{
  "_format": "hh-sol-artifact-1",
  "contractName": "YaxisToken",
  "sourceName": "contracts/token/YaxisToken.sol",
  "abi": [
    {
      "inputs": [],
      "stateMutability": "nonpayable",
      "type": "constructor"
    },
    {
      "anonymous": false,
      "inputs": [
        {
          "indexed": true,
          "internalType": "address",
          "name": "owner",
          "type": "address"
        },
        {
          "indexed": true,
          "internalType": "address",
          "name": "spender",
          "type": "address"
        },
        {
          "indexed": false,
          "internalType": "uint256",
          "name": "value",
          "type": "uint256"
        }
      ],
      "name": "Approval",
      "type": "event"
    },
    {
      "anonymous": false,
      "inputs": [
        {
          "indexed": true,
          "internalType": "address",
          "name": "from",
          "type": "address"
        },
        {
          "indexed": true,
          "internalType": "address",
          "name": "to",
          "type": "address"
        },
        {
          "indexed": false,
          "internalType": "uint256",
          "name": "value",
          "type": "uint256"
        },
        {
          "indexed": false,
          "internalType": "bytes",
          "name": "data",
          "type": "bytes"
        }
      ],
      "name": "Transfer",
      "type": "event"
    },
    {
      "anonymous": false,
      "inputs": [
        {
          "indexed": true,
          "internalType": "address",
          "name": "from",
          "type": "address"
        },
        {
          "indexed": true,
          "internalType": "address",
          "name": "to",
          "type": "address"
        },
        {
          "indexed": false,
          "internalType": "uint256",
          "name": "value",
          "type": "uint256"
        }
      ],
      "name": "Transfer",
      "type": "event"
    },
    {
      "inputs": [
        {
          "internalType": "address",
          "name": "owner",
          "type": "address"
        },
        {
          "internalType": "address",
          "name": "spender",
          "type": "address"
        }
      ],
      "name": "allowance",
      "outputs": [
        {
          "internalType": "uint256",
          "name": "",
          "type": "uint256"
        }
      ],
      "stateMutability": "view",
      "type": "function"
    },
    {
      "inputs": [
        {
          "internalType": "address",
          "name": "spender",
          "type": "address"
        },
        {
          "internalType": "uint256",
          "name": "amount",
          "type": "uint256"
        }
      ],
      "name": "approve",
      "outputs": [
        {
          "internalType": "bool",
          "name": "",
          "type": "bool"
        }
      ],
      "stateMutability": "nonpayable",
      "type": "function"
    },
    {
      "inputs": [
        {
          "internalType": "address",
          "name": "account",
          "type": "address"
        }
      ],
      "name": "balanceOf",
      "outputs": [
        {
          "internalType": "uint256",
          "name": "",
          "type": "uint256"
        }
      ],
      "stateMutability": "view",
      "type": "function"
    },
    {
      "inputs": [],
      "name": "decimals",
      "outputs": [
        {
          "internalType": "uint8",
          "name": "",
          "type": "uint8"
        }
      ],
      "stateMutability": "view",
      "type": "function"
    },
    {
      "inputs": [
        {
          "internalType": "address",
          "name": "spender",
          "type": "address"
        },
        {
          "internalType": "uint256",
          "name": "subtractedValue",
          "type": "uint256"
        }
      ],
      "name": "decreaseAllowance",
      "outputs": [
        {
          "internalType": "bool",
          "name": "",
          "type": "bool"
        }
      ],
      "stateMutability": "nonpayable",
      "type": "function"
    },
    {
      "inputs": [
        {
          "internalType": "address",
          "name": "spender",
          "type": "address"
        },
        {
          "internalType": "uint256",
          "name": "subtractedValue",
          "type": "uint256"
        }
      ],
      "name": "decreaseApproval",
      "outputs": [
        {
          "internalType": "bool",
          "name": "",
          "type": "bool"
        }
      ],
      "stateMutability": "nonpayable",
      "type": "function"
    },
    {
      "inputs": [
        {
          "internalType": "address",
          "name": "spender",
          "type": "address"
        },
        {
          "internalType": "uint256",
          "name": "addedValue",
          "type": "uint256"
        }
      ],
      "name": "increaseAllowance",
      "outputs": [
        {
          "internalType": "bool",
          "name": "",
          "type": "bool"
        }
      ],
      "stateMutability": "nonpayable",
      "type": "function"
    },
    {
      "inputs": [
        {
          "internalType": "address",
          "name": "spender",
          "type": "address"
        },
        {
          "internalType": "uint256",
          "name": "addedValue",
          "type": "uint256"
        }
      ],
      "name": "increaseApproval",
      "outputs": [
        {
          "internalType": "bool",
          "name": "",
          "type": "bool"
        }
      ],
      "stateMutability": "nonpayable",
      "type": "function"
    },
    {
      "inputs": [],
      "name": "name",
      "outputs": [
        {
          "internalType": "string",
          "name": "",
          "type": "string"
        }
      ],
      "stateMutability": "view",
      "type": "function"
    },
    {
      "inputs": [],
      "name": "symbol",
      "outputs": [
        {
          "internalType": "string",
          "name": "",
          "type": "string"
        }
      ],
      "stateMutability": "view",
      "type": "function"
    },
    {
      "inputs": [],
      "name": "totalSupply",
      "outputs": [
        {
          "internalType": "uint256",
          "name": "",
          "type": "uint256"
        }
      ],
      "stateMutability": "view",
      "type": "function"
    },
    {
      "inputs": [
        {
          "internalType": "address",
          "name": "recipient",
          "type": "address"
        },
        {
          "internalType": "uint256",
          "name": "amount",
          "type": "uint256"
        }
      ],
      "name": "transfer",
      "outputs": [
        {
          "internalType": "bool",
          "name": "",
          "type": "bool"
        }
      ],
      "stateMutability": "nonpayable",
      "type": "function"
    },
    {
      "inputs": [
        {
          "internalType": "address",
          "name": "_to",
          "type": "address"
        },
        {
          "internalType": "uint256",
          "name": "_value",
          "type": "uint256"
        },
        {
          "internalType": "bytes",
          "name": "_data",
          "type": "bytes"
        }
      ],
      "name": "transferAndCall",
      "outputs": [
        {
          "internalType": "bool",
          "name": "success",
          "type": "bool"
        }
      ],
      "stateMutability": "nonpayable",
      "type": "function"
    },
    {
      "inputs": [
        {
          "internalType": "address",
          "name": "sender",
          "type": "address"
        },
        {
          "internalType": "address",
          "name": "recipient",
          "type": "address"
        },
        {
          "internalType": "uint256",
          "name": "amount",
          "type": "uint256"
        }
      ],
      "name": "transferFrom",
      "outputs": [
        {
          "internalType": "bool",
          "name": "",
          "type": "bool"
        }
      ],
      "stateMutability": "nonpayable",
      "type": "function"
    }
  ],
  "bytecode": "0x60806040523480156200001157600080fd5b5060408051808201825260088152673ca0bc34b9902b1960c11b602080830191825283518085019094526005845264594158495360d81b9084015281519192916200005f9160039162000224565b5080516200007590600490602084019062000224565b50506005805460ff19166012179055506200008f62000095565b620002c0565b620000ac336a09195731e2ce35eb000000620000ae565b565b6001600160a01b0382166200010a576040805162461bcd60e51b815260206004820152601f60248201527f45524332303a206d696e7420746f20746865207a65726f206164647265737300604482015290519081900360640190fd5b6200011860008383620001bd565b6200013481600254620001c260201b620007c11790919060201c565b6002556001600160a01b0382166000908152602081815260409091205462000167918390620007c1620001c2821b17901c565b6001600160a01b0383166000818152602081815260408083209490945583518581529351929391927fddf252ad1be2c89b69c2b068fc378daa952ba7f163c4a11628f55a4df523b3ef9281900390910190a35050565b505050565b6000828201838110156200021d576040805162461bcd60e51b815260206004820152601b60248201527f536166654d6174683a206164646974696f6e206f766572666c6f770000000000604482015290519081900360640190fd5b9392505050565b828054600181600116156101000203166002900490600052602060002090601f016020900481019282601f106200026757805160ff191683800117855562000297565b8280016001018555821562000297579182015b82811115620002975782518255916020019190600101906200027a565b50620002a5929150620002a9565b5090565b5b80821115620002a55760008155600101620002aa565b610dd380620002d06000396000f3fe608060405234801561001057600080fd5b50600436106100ea5760003560e01c8063661884631161008c578063a457c2d711610066578063a457c2d71461035b578063a9059cbb14610387578063d73dd623146103b3578063dd62ed3e146103df576100ea565b8063661884631461030157806370a082311461032d57806395d89b4114610353576100ea565b806323b872dd116100c857806323b872dd146101c6578063313ce567146101fc578063395093511461021a5780634000aea014610246576100ea565b806306fdde03146100ef578063095ea7b31461016c57806318160ddd146101ac575b600080fd5b6100f761040d565b6040805160208082528351818301528351919283929083019185019080838360005b83811015610131578181015183820152602001610119565b50505050905090810190601f16801561015e5780820380516001836020036101000a031916815260200191505b509250505060405180910390f35b6101986004803603604081101561018257600080fd5b506001600160a01b0381351690602001356104a3565b604080519115158252519081900360200190f35b6101b46104c0565b60408051918252519081900360200190f35b610198600480360360608110156101dc57600080fd5b506001600160a01b038135811691602081013590911690604001356104c6565b61020461054d565b6040805160ff9092168252519081900360200190f35b6101986004803603604081101561023057600080fd5b506001600160a01b038135169060200135610556565b6101986004803603606081101561025c57600080fd5b6001600160a01b038235169160208101359181019060608101604082013564010000000081111561028c57600080fd5b82018360208201111561029e57600080fd5b803590602001918460018302840111640100000000831117156102c057600080fd5b91908080601f0160208091040260200160405190810160405280939291908181526020018383808284376000920191909152509295506105a4945050505050565b6101986004803603604081101561031757600080fd5b506001600160a01b03813516906020013561067f565b6101b46004803603602081101561034357600080fd5b50356001600160a01b0316610692565b6100f76106ad565b6101986004803603604081101561037157600080fd5b506001600160a01b03813516906020013561070e565b6101986004803603604081101561039d57600080fd5b506001600160a01b038135169060200135610776565b610198600480360360408110156103c957600080fd5b506001600160a01b03813516906020013561078a565b6101b4600480360360408110156103f557600080fd5b506001600160a01b0381358116916020013516610796565b60038054604080516020601f60026000196101006001881615020190951694909404938401819004810282018101909252828152606093909290918301828280156104995780601f1061046e57610100808354040283529160200191610499565b820191906000526020600020905b81548152906001019060200180831161047c57829003601f168201915b5050505050905090565b60006104b76104b061081b565b848461081f565b50600192915050565b60025490565b60006104d384848461087f565b610543846104df61081b565b61053e85604051806060016040528060288152602001610d08602891396001600160a01b038a1660009081526001602052604081209061051d61081b565b6001600160a01b0316815260208101919091526040016000205491906108d9565b61081f565b5060019392505050565b60055460ff1690565b60006104b761056361081b565b8461053e856001600061057461081b565b6001600160a01b03908116825260208083019390935260409182016000908120918c1681529252902054906107c1565b60006105b08484610776565b50836001600160a01b0316336001600160a01b03167fe19260aff97b920c7df27010903aeb9c8d2be5d310a2c67824cf3f15396e4c1685856040518083815260200180602001828103825283818151815260200191508051906020019080838360005b8381101561062b578181015183820152602001610613565b50505050905090810190601f1680156106585780820380516001836020036101000a031916815260200191505b50935050505060405180910390a361066f84610970565b1561054357610543848484610976565b600061068b838361070e565b9392505050565b6001600160a01b031660009081526020819052604090205490565b60048054604080516020601f60026000196101006001881615020190951694909404938401819004810282018101909252828152606093909290918301828280156104995780601f1061046e57610100808354040283529160200191610499565b60006104b761071b61081b565b8461053e85604051806060016040528060258152602001610d79602591396001600061074561081b565b6001600160a01b03908116825260208083019390935260409182016000908120918d168152925290205491906108d9565b60006104b761078361081b565b848461087f565b600061068b8383610556565b6001600160a01b03918216600090815260016020908152604080832093909416825291909152205490565b60008282018381101561068b576040805162461bcd60e51b815260206004820152601b60248201527f536166654d6174683a206164646974696f6e206f766572666c6f770000000000604482015290519081900360640190fd5b3390565b816001600160a01b03811630141561086e576040805162461bcd60e51b815260206004820152600d60248201526c2176616c69644164647265737360981b604482015290519081900360640190fd5b610879848484610a50565b50505050565b816001600160a01b0381163014156108ce576040805162461bcd60e51b815260206004820152600d60248201526c2176616c69644164647265737360981b604482015290519081900360640190fd5b610879848484610b3c565b600081848411156109685760405162461bcd60e51b81526004018080602001828103825283818151815260200191508051906020019080838360005b8381101561092d578181015183820152602001610915565b50505050905090810190601f16801561095a5780820380516001836020036101000a031916815260200191505b509250505060405180910390fd5b505050900390565b3b151590565b604051635260769b60e11b815233600482018181526024830185905260606044840190815284516064850152845187946001600160a01b0386169463a4c0ed369490938993899360840190602085019080838360005b838110156109e45781810151838201526020016109cc565b50505050905090810190601f168015610a115780820380516001836020036101000a031916815260200191505b50945050505050600060405180830381600087803b158015610a3257600080fd5b505af1158015610a46573d6000803e3d6000fd5b5050505050505050565b6001600160a01b038316610a955760405162461bcd60e51b8152600401808060200182810382526024815260200180610d556024913960400191505060405180910390fd5b6001600160a01b038216610ada5760405162461bcd60e51b8152600401808060200182810382526022815260200180610cc06022913960400191505060405180910390fd5b6001600160a01b03808416600081815260016020908152604080832094871680845294825291829020859055815185815291517f8c5be1e5ebec7d5bd14f71427d1e84f3dd0314c0f7b2291e5b200ac8c7c3b9259281900390910190a3505050565b6001600160a01b038316610b815760405162461bcd60e51b8152600401808060200182810382526025815260200180610d306025913960400191505060405180910390fd5b6001600160a01b038216610bc65760405162461bcd60e51b8152600401808060200182810382526023815260200180610c9d6023913960400191505060405180910390fd5b610bd1838383610c97565b610c0e81604051806060016040528060268152602001610ce2602691396001600160a01b03861660009081526020819052604090205491906108d9565b6001600160a01b038085166000908152602081905260408082209390935590841681522054610c3d90826107c1565b6001600160a01b038084166000818152602081815260409182902094909455805185815290519193928716927fddf252ad1be2c89b69c2b068fc378daa952ba7f163c4a11628f55a4df523b3ef92918290030190a3505050565b50505056fe45524332303a207472616e7366657220746f20746865207a65726f206164647265737345524332303a20617070726f766520746f20746865207a65726f206164647265737345524332303a207472616e7366657220616d6f756e7420657863656564732062616c616e636545524332303a207472616e7366657220616d6f756e74206578636565647320616c6c6f77616e636545524332303a207472616e736665722066726f6d20746865207a65726f206164647265737345524332303a20617070726f76652066726f6d20746865207a65726f206164647265737345524332303a2064656372656173656420616c6c6f77616e63652062656c6f77207a65726fa26469706673582212208309badbcd9a9f6eff2ccdb64defc93ecd97deb9e0d92816f203586b4404847064736f6c634300060c0033",
  "linkReferences": {},
  "deployedLinkReferences": {}
}