{
  "_format": "hh-sol-artifact-1",
  "contractName": "PerpV2QuoteToken",
  "sourceName": "contracts/QuoteToken.sol",
  "abi": [
    {
      "anonymous": false,
      "inputs": [
        {
          "indexed": true,
          "internalType": "address",
          "name": "owner",
          "type": "address"
        },
        {
          "indexed": true,
          "internalType": "address",
          "name": "spender",
          "type": "address"
        },
        {
          "indexed": false,
          "internalType": "uint256",
          "name": "value",
          "type": "uint256"
        }
      ],
      "name": "Approval",
      "type": "event"
    },
    {
      "anonymous": false,
      "inputs": [
        {
          "indexed": true,
          "internalType": "address",
          "name": "previousOwner",
          "type": "address"
        },
        {
          "indexed": true,
          "internalType": "address",
          "name": "newOwner",
          "type": "address"
        }
      ],
      "name": "OwnershipTransferred",
      "type": "event"
    },
    {
      "anonymous": false,
      "inputs": [
        {
          "indexed": true,
          "internalType": "address",
          "name": "from",
          "type": "address"
        },
        {
          "indexed": true,
          "internalType": "address",
          "name": "to",
          "type": "address"
        },
        {
          "indexed": false,
          "internalType": "uint256",
          "name": "value",
          "type": "uint256"
        }
      ],
      "name": "Transfer",
      "type": "event"
    },
    {
      "anonymous": false,
      "inputs": [
        {
          "indexed": false,
          "internalType": "address",
          "name": "account",
          "type": "address"
        }
      ],
      "name": "WhitelistAdded",
      "type": "event"
    },
    {
      "anonymous": false,
      "inputs": [
        {
          "indexed": false,
          "internalType": "address",
          "name": "account",
          "type": "address"
        }
      ],
      "name": "WhitelistRemoved",
      "type": "event"
    },
    {
      "inputs": [
        {
          "internalType": "address",
          "name": "account",
          "type": "address"
        }
      ],
      "name": "addWhitelist",
      "outputs": [],
      "stateMutability": "nonpayable",
      "type": "function"
    },
    {
      "inputs": [
        {
          "internalType": "address",
          "name": "owner",
          "type": "address"
        },
        {
          "internalType": "address",
          "name": "spender",
          "type": "address"
        }
      ],
      "name": "allowance",
      "outputs": [
        {
          "internalType": "uint256",
          "name": "",
          "type": "uint256"
        }
      ],
      "stateMutability": "view",
      "type": "function"
    },
    {
      "inputs": [
        {
          "internalType": "address",
          "name": "spender",
          "type": "address"
        },
        {
          "internalType": "uint256",
          "name": "amount",
          "type": "uint256"
        }
      ],
      "name": "approve",
      "outputs": [
        {
          "internalType": "bool",
          "name": "",
          "type": "bool"
        }
      ],
      "stateMutability": "nonpayable",
      "type": "function"
    },
    {
      "inputs": [
        {
          "internalType": "address",
          "name": "account",
          "type": "address"
        }
      ],
      "name": "balanceOf",
      "outputs": [
        {
          "internalType": "uint256",
          "name": "",
          "type": "uint256"
        }
      ],
      "stateMutability": "view",
      "type": "function"
    },
    {
      "inputs": [],
      "name": "candidate",
      "outputs": [
        {
          "internalType": "address",
          "name": "",
          "type": "address"
        }
      ],
      "stateMutability": "view",
      "type": "function"
    },
    {
      "inputs": [],
      "name": "decimals",
      "outputs": [
        {
          "internalType": "uint8",
          "name": "",
          "type": "uint8"
        }
      ],
      "stateMutability": "view",
      "type": "function"
    },
    {
      "inputs": [
        {
          "internalType": "address",
          "name": "spender",
          "type": "address"
        },
        {
          "internalType": "uint256",
          "name": "subtractedValue",
          "type": "uint256"
        }
      ],
      "name": "decreaseAllowance",
      "outputs": [
        {
          "internalType": "bool",
          "name": "",
          "type": "bool"
        }
      ],
      "stateMutability": "nonpayable",
      "type": "function"
    },
    {
      "inputs": [
        {
          "internalType": "address",
          "name": "spender",
          "type": "address"
        },
        {
          "internalType": "uint256",
          "name": "addedValue",
          "type": "uint256"
        }
      ],
      "name": "increaseAllowance",
      "outputs": [
        {
          "internalType": "bool",
          "name": "",
          "type": "bool"
        }
      ],
      "stateMutability": "nonpayable",
      "type": "function"
    },
    {
      "inputs": [
        {
          "internalType": "string",
          "name": "nameArg",
          "type": "string"
        },
        {
          "internalType": "string",
          "name": "symbolArg",
          "type": "string"
        }
      ],
      "name": "initialize",
      "outputs": [],
      "stateMutability": "nonpayable",
      "type": "function"
    },
    {
      "inputs": [
        {
          "internalType": "address",
          "name": "account",
          "type": "address"
        }
      ],
      "name": "isInWhitelist",
      "outputs": [
        {
          "internalType": "bool",
          "name": "",
          "type": "bool"
        }
      ],
      "stateMutability": "view",
      "type": "function"
    },
    {
      "inputs": [
        {
          "internalType": "address",
          "name": "recipient",
          "type": "address"
        }
      ],
      "name": "mintMaximumTo",
      "outputs": [],
      "stateMutability": "nonpayable",
      "type": "function"
    },
    {
      "inputs": [],
      "name": "name",
      "outputs": [
        {
          "internalType": "string",
          "name": "",
          "type": "string"
        }
      ],
      "stateMutability": "view",
      "type": "function"
    },
    {
      "inputs": [],
      "name": "owner",
      "outputs": [
        {
          "internalType": "address",
          "name": "",
          "type": "address"
        }
      ],
      "stateMutability": "view",
      "type": "function"
    },
    {
      "inputs": [
        {
          "internalType": "address",
          "name": "account",
          "type": "address"
        }
      ],
      "name": "removeWhitelist",
      "outputs": [],
      "stateMutability": "nonpayable",
      "type": "function"
    },
    {
      "inputs": [],
      "name": "renounceOwnership",
      "outputs": [],
      "stateMutability": "nonpayable",
      "type": "function"
    },
    {
      "inputs": [
        {
          "internalType": "address",
          "name": "newOwner",
          "type": "address"
        }
      ],
      "name": "setOwner",
      "outputs": [],
      "stateMutability": "nonpayable",
      "type": "function"
    },
    {
      "inputs": [],
      "name": "symbol",
      "outputs": [
        {
          "internalType": "string",
          "name": "",
          "type": "string"
        }
      ],
      "stateMutability": "view",
      "type": "function"
    },
    {
      "inputs": [],
      "name": "totalSupply",
      "outputs": [
        {
          "internalType": "uint256",
          "name": "",
          "type": "uint256"
        }
      ],
      "stateMutability": "view",
      "type": "function"
    },
    {
      "inputs": [
        {
          "internalType": "address",
          "name": "recipient",
          "type": "address"
        },
        {
          "internalType": "uint256",
          "name": "amount",
          "type": "uint256"
        }
      ],
      "name": "transfer",
      "outputs": [
        {
          "internalType": "bool",
          "name": "",
          "type": "bool"
        }
      ],
      "stateMutability": "nonpayable",
      "type": "function"
    },
    {
      "inputs": [
        {
          "internalType": "address",
          "name": "sender",
          "type": "address"
        },
        {
          "internalType": "address",
          "name": "recipient",
          "type": "address"
        },
        {
          "internalType": "uint256",
          "name": "amount",
          "type": "uint256"
        }
      ],
      "name": "transferFrom",
      "outputs": [
        {
          "internalType": "bool",
          "name": "",
          "type": "bool"
        }
      ],
      "stateMutability": "nonpayable",
      "type": "function"
    },
    {
      "inputs": [],
      "name": "updateOwner",
      "outputs": [],
      "stateMutability": "nonpayable",
      "type": "function"
    }
  ],
  "bytecode": "0x608060405234801561001057600080fd5b50611946806100206000396000f3fe608060405234801561001057600080fd5b50600436106101375760003560e01c806370a08231116100b8578063a457c2d71161007c578063a457c2d714610492578063a9059cbb146104be578063bc5920ba146104ea578063dd62ed3e146104f2578063f52e308e14610520578063f80f5dd51461054657610137565b806370a082311461042e578063715018a61461045457806378c8cda71461045c5780638da5cb5b1461048257806395d89b411461048a57610137565b806323b872dd116100ff57806323b872dd14610261578063313ce5671461029757806339509351146102b55780634cd88b76146102e15780636c8381f81461040a57610137565b806306fdde031461013c578063095ea7b3146101b957806309fd8212146101f957806313af40351461021f57806318160ddd14610247575b600080fd5b61014461056c565b6040805160208082528351818301528351919283929083019185019080838360005b8381101561017e578181015183820152602001610166565b50505050905090810190601f1680156101ab5780820380516001836020036101000a031916815260200191505b509250505060405180910390f35b6101e5600480360360408110156101cf57600080fd5b506001600160a01b038135169060200135610602565b604080519115158252519081900360200190f35b6101e56004803603602081101561020f57600080fd5b50356001600160a01b031661061f565b6102456004803603602081101561023557600080fd5b50356001600160a01b031661063d565b005b61024f610798565b60408051918252519081900360200190f35b6101e56004803603606081101561027757600080fd5b506001600160a01b0381358116916020810135909116906040013561079e565b61029f610825565b6040805160ff9092168252519081900360200190f35b6101e5600480360360408110156102cb57600080fd5b506001600160a01b03813516906020013561082e565b610245600480360360408110156102f757600080fd5b810190602081018135600160201b81111561031157600080fd5b82018360208201111561032357600080fd5b803590602001918460018302840111600160201b8311171561034457600080fd5b91908080601f0160208091040260200160405190810160405280939291908181526020018383808284376000920191909152509295949360208101935035915050600160201b81111561039657600080fd5b8201836020820111156103a857600080fd5b803590602001918460018302840111600160201b831117156103c957600080fd5b91908080601f01602080910402602001604051908101604052809392919081815260200183838082843760009201919091525092955061087c945050505050565b61041261092a565b604080516001600160a01b039092168252519081900360200190f35b61024f6004803603602081101561044457600080fd5b50356001600160a01b0316610939565b610245610954565b6102456004803603602081101561047257600080fd5b50356001600160a01b03166109f5565b610412610aee565b610144610afd565b6101e5600480360360408110156104a857600080fd5b506001600160a01b038135169060200135610b5e565b6101e5600480360360408110156104d457600080fd5b506001600160a01b038135169060200135610bc6565b610245610bda565b61024f6004803603604081101561050857600080fd5b506001600160a01b0381358116916020013516610cc6565b6102456004803603602081101561053657600080fd5b50356001600160a01b0316610cf1565b6102456004803603602081101561055c57600080fd5b50356001600160a01b0316610d5d565b606a8054604080516020601f60026000196101006001881615020190951694909404938401819004810282018101909252828152606093909290918301828280156105f85780601f106105cd576101008083540402835291602001916105f8565b820191906000526020600020905b8154815290600101906020018083116105db57829003601f168201915b5050505050905090565b600061061661060f610e15565b8484610e19565b50600192915050565b6001600160a01b031660009081526099602052604090205460ff1690565b610645610e15565b6001600160a01b0316610656610aee565b6001600160a01b03161461069a576040805162461bcd60e51b8152602060048201526006602482015265534f5f434e4f60d01b604482015290519081900360640190fd5b6001600160a01b0381166106de576040805162461bcd60e51b81526020600482015260066024820152650534f5f4e57360d41b604482015290519081900360640190fd5b6033546001600160a01b038281169116141561072a576040805162461bcd60e51b8152602060048201526006602482015265534f5f53414f60d01b604482015290519081900360640190fd5b6034546001600160a01b0382811691161415610776576040805162461bcd60e51b8152602060048201526006602482015265534f5f53414360d01b604482015290519081900360640190fd5b603480546001600160a01b0319166001600160a01b0392909216919091179055565b60695490565b60006107ab848484610f05565b61081b846107b7610e15565b6108168560405180606001604052806028815260200161185b602891396001600160a01b038a166000908152606860205260408120906107f5610e15565b6001600160a01b031681526020810191909152604001600020549190611062565b610e19565b5060019392505050565b606c5460ff1690565b600061061661083b610e15565b84610816856068600061084c610e15565b6001600160a01b03908116825260208083019390935260409182016000908120918c1681529252902054906110f9565b600054610100900460ff1680610895575061089561115a565b806108a3575060005460ff16155b6108de5760405162461bcd60e51b815260040180806020018281038252602e81526020018061182d602e913960400191505060405180910390fd5b600054610100900460ff16158015610909576000805460ff1961ff0019909116610100171660011790555b610913838361116b565b8015610925576000805461ff00191690555b505050565b6034546001600160a01b031690565b6001600160a01b031660009081526067602052604090205490565b61095c610e15565b6001600160a01b031661096d610aee565b6001600160a01b0316146109b1576040805162461bcd60e51b8152602060048201526006602482015265534f5f434e4f60d01b604482015290519081900360640190fd5b6033546040516000916001600160a01b031690600080516020611883833981519152908390a3603380546001600160a01b0319908116909155603480549091169055565b6109fd610e15565b6001600160a01b0316610a0e610aee565b6001600160a01b031614610a52576040805162461bcd60e51b8152602060048201526006602482015265534f5f434e4f60d01b604482015290519081900360640190fd5b610a5b81610939565b15610a96576040805162461bcd60e51b81526020600482015260066024820152652b2a2fa1272d60d11b604482015290519081900360640190fd5b6001600160a01b038116600081815260996020908152604091829020805460ff19169055815192835290517fde8cf212af7ce38b2840785a2768d97ff2dbf3c21b516961cec0061e134c2a1e9281900390910190a150565b6033546001600160a01b031690565b606b8054604080516020601f60026000196101006001881615020190951694909404938401819004810282018101909252828152606093909290918301828280156105f85780601f106105cd576101008083540402835291602001916105f8565b6000610616610b6b610e15565b84610816856040518060600160405280602581526020016118ec6025913960686000610b95610e15565b6001600160a01b03908116825260208083019390935260409182016000908120918d16815292529020549190611062565b6000610616610bd3610e15565b8484610f05565b6034546001600160a01b0316610c1f576040805162461bcd60e51b81526020600482015260056024820152640534f5f43360dc1b604482015290519081900360640190fd5b610c27610e15565b6034546001600160a01b03908116911614610c72576040805162461bcd60e51b8152602060048201526006602482015265534f5f434e4360d01b604482015290519081900360640190fd5b6034546033546040516001600160a01b03928316929091169060008051602061188383398151915290600090a360348054603380546001600160a01b03199081166001600160a01b03841617909155169055565b6001600160a01b03918216600090815260686020908152604080832093909416825291909152205490565b610cf9610e15565b6001600160a01b0316610d0a610aee565b6001600160a01b031614610d4e576040805162461bcd60e51b8152602060048201526006602482015265534f5f434e4f60d01b604482015290519081900360640190fd5b610d5a8160001961120a565b50565b610d65610e15565b6001600160a01b0316610d76610aee565b6001600160a01b031614610dba576040805162461bcd60e51b8152602060048201526006602482015265534f5f434e4f60d01b604482015290519081900360640190fd5b6001600160a01b038116600081815260996020908152604091829020805460ff19166001179055815192835290517f4790a4adb426ca2345bb5108f6e454eae852a7bf687544cd66a7270dff3a41d69281900390910190a150565b3390565b6001600160a01b038316610e5e5760405162461bcd60e51b81526004018080602001828103825260248152602001806118c86024913960400191505060405180910390fd5b6001600160a01b038216610ea35760405162461bcd60e51b81526004018080602001828103825260228152602001806117e56022913960400191505060405180910390fd5b6001600160a01b03808416600081815260686020908152604080832094871680845294825291829020859055815185815291517f8c5be1e5ebec7d5bd14f71427d1e84f3dd0314c0f7b2291e5b200ac8c7c3b9259281900390910190a3505050565b6001600160a01b038316610f4a5760405162461bcd60e51b81526004018080602001828103825260258152602001806118a36025913960400191505060405180910390fd5b6001600160a01b038216610f8f5760405162461bcd60e51b81526004018080602001828103825260238152602001806117c26023913960400191505060405180910390fd5b610f9a8383836112fc565b610fd781604051806060016040528060268152602001611807602691396001600160a01b0386166000908152606760205260409020549190611062565b6001600160a01b03808516600090815260676020526040808220939093559084168152205461100690826110f9565b6001600160a01b0380841660008181526067602090815260409182902094909455805185815290519193928716927fddf252ad1be2c89b69c2b068fc378daa952ba7f163c4a11628f55a4df523b3ef92918290030190a3505050565b600081848411156110f15760405162461bcd60e51b81526004018080602001828103825283818151815260200191508051906020019080838360005b838110156110b657818101518382015260200161109e565b50505050905090810190601f1680156110e35780820380516001836020036101000a031916815260200191505b509250505060405180910390fd5b505050900390565b600082820183811015611153576040805162461bcd60e51b815260206004820152601b60248201527f536166654d6174683a206164646974696f6e206f766572666c6f770000000000604482015290519081900360640190fd5b9392505050565b60006111653061136b565b15905090565b600054610100900460ff1680611184575061118461115a565b80611192575060005460ff16155b6111cd5760405162461bcd60e51b815260040180806020018281038252602e81526020018061182d602e913960400191505060405180910390fd5b600054610100900460ff161580156111f8576000805460ff1961ff0019909116610100171660011790555b611200611371565b6109138383611460565b6001600160a01b038216611265576040805162461bcd60e51b815260206004820152601f60248201527f45524332303a206d696e7420746f20746865207a65726f206164647265737300604482015290519081900360640190fd5b611271600083836112fc565b60695461127e90826110f9565b6069556001600160a01b0382166000908152606760205260409020546112a490826110f9565b6001600160a01b03831660008181526067602090815260408083209490945583518581529351929391927fddf252ad1be2c89b69c2b068fc378daa952ba7f163c4a11628f55a4df523b3ef9281900390910190a35050565b611307838383610925565b6001600160a01b03831615610925576001600160a01b03831660009081526099602052604090205460ff16610925576040805162461bcd60e51b815260206004820152600560248201526456545f4e5760d81b604482015290519081900360640190fd5b3b151590565b600054610100900460ff168061138a575061138a61115a565b80611398575060005460ff16155b6113d35760405162461bcd60e51b815260040180806020018281038252602e81526020018061182d602e913960400191505060405180910390fd5b600054610100900460ff161580156113fe576000805460ff1961ff0019909116610100171660011790555b6114066114ff565b6000611410610e15565b603380546001600160a01b0319166001600160a01b03831690811790915560405191925090600090600080516020611883833981519152908290a3508015610d5a576000805461ff001916905550565b600054610100900460ff1680611479575061147961115a565b80611487575060005460ff16155b6114c25760405162461bcd60e51b815260040180806020018281038252602e81526020018061182d602e913960400191505060405180910390fd5b600054610100900460ff161580156114ed576000805460ff1961ff0019909116610100171660011790555b6114f56115a8565b6109138383611648565b600054610100900460ff1680611518575061151861115a565b80611526575060005460ff16155b6115615760405162461bcd60e51b815260040180806020018281038252602e81526020018061182d602e913960400191505060405180910390fd5b600054610100900460ff1615801561158c576000805460ff1961ff0019909116610100171660011790555b6115946115a8565b8015610d5a576000805461ff001916905550565b600054610100900460ff16806115c157506115c161115a565b806115cf575060005460ff16155b61160a5760405162461bcd60e51b815260040180806020018281038252602e81526020018061182d602e913960400191505060405180910390fd5b600054610100900460ff16158015611594576000805460ff1961ff0019909116610100171660011790558015610d5a576000805461ff001916905550565b600054610100900460ff1680611661575061166161115a565b8061166f575060005460ff16155b6116aa5760405162461bcd60e51b815260040180806020018281038252602e81526020018061182d602e913960400191505060405180910390fd5b600054610100900460ff161580156116d5576000805460ff1961ff0019909116610100171660011790555b82516116e890606a906020860190611720565b5081516116fc90606b906020850190611720565b50606c805460ff191660121790558015610925576000805461ff0019169055505050565b828054600181600116156101000203166002900490600052602060002090601f016020900481019282611756576000855561179c565b82601f1061176f57805160ff191683800117855561179c565b8280016001018555821561179c579182015b8281111561179c578251825591602001919060010190611781565b506117a89291506117ac565b5090565b5b808211156117a857600081556001016117ad56fe45524332303a207472616e7366657220746f20746865207a65726f206164647265737345524332303a20617070726f766520746f20746865207a65726f206164647265737345524332303a207472616e7366657220616d6f756e7420657863656564732062616c616e6365496e697469616c697a61626c653a20636f6e747261637420697320616c726561647920696e697469616c697a656445524332303a207472616e7366657220616d6f756e74206578636565647320616c6c6f77616e63658be0079c531659141344cd1fd0a4f28419497f9722a3daafe3b4186f6b6457e045524332303a207472616e736665722066726f6d20746865207a65726f206164647265737345524332303a20617070726f76652066726f6d20746865207a65726f206164647265737345524332303a2064656372656173656420616c6c6f77616e63652062656c6f77207a65726fa264697066735822122061a6e831af8bbaab67c43d39eef35dd612537339ac1816d93530e91d7eee202b64736f6c63430007060033",
  "linkReferences": {},
  "deployedLinkReferences": {}
}