{
  "_format": "hh-sol-artifact-1",
  "contractName": "PerpV2Vault",
  "sourceName": "contracts/Vault.sol",
  "abi": [
    {
      "anonymous": false,
      "inputs": [
        {
          "indexed": true,
          "internalType": "address",
          "name": "collateralToken",
          "type": "address"
        },
        {
          "indexed": true,
          "internalType": "address",
          "name": "trader",
          "type": "address"
        },
        {
          "indexed": false,
          "internalType": "uint256",
          "name": "amount",
          "type": "uint256"
        }
      ],
      "name": "Deposited",
      "type": "event"
    },
    {
      "anonymous": false,
      "inputs": [
        {
          "indexed": true,
          "internalType": "address",
          "name": "previousOwner",
          "type": "address"
        },
        {
          "indexed": true,
          "internalType": "address",
          "name": "newOwner",
          "type": "address"
        }
      ],
      "name": "OwnershipTransferred",
      "type": "event"
    },
    {
      "anonymous": false,
      "inputs": [
        {
          "indexed": false,
          "internalType": "address",
          "name": "account",
          "type": "address"
        }
      ],
      "name": "Paused",
      "type": "event"
    },
    {
      "anonymous": false,
      "inputs": [
        {
          "indexed": false,
          "internalType": "address",
          "name": "trustedForwarder",
          "type": "address"
        }
      ],
      "name": "TrustedForwarderUpdated",
      "type": "event"
    },
    {
      "anonymous": false,
      "inputs": [
        {
          "indexed": false,
          "internalType": "address",
          "name": "account",
          "type": "address"
        }
      ],
      "name": "Unpaused",
      "type": "event"
    },
    {
      "anonymous": false,
      "inputs": [
        {
          "indexed": true,
          "internalType": "address",
          "name": "collateralToken",
          "type": "address"
        },
        {
          "indexed": true,
          "internalType": "address",
          "name": "trader",
          "type": "address"
        },
        {
          "indexed": false,
          "internalType": "uint256",
          "name": "amount",
          "type": "uint256"
        }
      ],
      "name": "Withdrawn",
      "type": "event"
    },
    {
      "inputs": [],
      "name": "candidate",
      "outputs": [
        {
          "internalType": "address",
          "name": "",
          "type": "address"
        }
      ],
      "stateMutability": "view",
      "type": "function"
    },
    {
      "inputs": [],
      "name": "decimals",
      "outputs": [
        {
          "internalType": "uint8",
          "name": "",
          "type": "uint8"
        }
      ],
      "stateMutability": "view",
      "type": "function"
    },
    {
      "inputs": [
        {
          "internalType": "address",
          "name": "token",
          "type": "address"
        },
        {
          "internalType": "uint256",
          "name": "amountX10_D",
          "type": "uint256"
        }
      ],
      "name": "deposit",
      "outputs": [],
      "stateMutability": "nonpayable",
      "type": "function"
    },
    {
      "inputs": [],
      "name": "getAccountBalance",
      "outputs": [
        {
          "internalType": "address",
          "name": "",
          "type": "address"
        }
      ],
      "stateMutability": "view",
      "type": "function"
    },
    {
      "inputs": [
        {
          "internalType": "address",
          "name": "trader",
          "type": "address"
        }
      ],
      "name": "getBalance",
      "outputs": [
        {
          "internalType": "int256",
          "name": "",
          "type": "int256"
        }
      ],
      "stateMutability": "view",
      "type": "function"
    },
    {
      "inputs": [],
      "name": "getClearingHouse",
      "outputs": [
        {
          "internalType": "address",
          "name": "",
          "type": "address"
        }
      ],
      "stateMutability": "view",
      "type": "function"
    },
    {
      "inputs": [],
      "name": "getClearingHouseConfig",
      "outputs": [
        {
          "internalType": "address",
          "name": "",
          "type": "address"
        }
      ],
      "stateMutability": "view",
      "type": "function"
    },
    {
      "inputs": [],
      "name": "getExchange",
      "outputs": [
        {
          "internalType": "address",
          "name": "",
          "type": "address"
        }
      ],
      "stateMutability": "view",
      "type": "function"
    },
    {
      "inputs": [
        {
          "internalType": "address",
          "name": "trader",
          "type": "address"
        }
      ],
      "name": "getFreeCollateral",
      "outputs": [
        {
          "internalType": "uint256",
          "name": "",
          "type": "uint256"
        }
      ],
      "stateMutability": "view",
      "type": "function"
    },
    {
      "inputs": [
        {
          "internalType": "address",
          "name": "trader",
          "type": "address"
        },
        {
          "internalType": "uint24",
          "name": "ratio",
          "type": "uint24"
        }
      ],
      "name": "getFreeCollateralByRatio",
      "outputs": [
        {
          "internalType": "int256",
          "name": "",
          "type": "int256"
        }
      ],
      "stateMutability": "view",
      "type": "function"
    },
    {
      "inputs": [],
      "name": "getInsuranceFund",
      "outputs": [
        {
          "internalType": "address",
          "name": "",
          "type": "address"
        }
      ],
      "stateMutability": "view",
      "type": "function"
    },
    {
      "inputs": [],
      "name": "getSettlementToken",
      "outputs": [
        {
          "internalType": "address",
          "name": "",
          "type": "address"
        }
      ],
      "stateMutability": "view",
      "type": "function"
    },
    {
      "inputs": [],
      "name": "getTotalDebt",
      "outputs": [
        {
          "internalType": "uint256",
          "name": "",
          "type": "uint256"
        }
      ],
      "stateMutability": "view",
      "type": "function"
    },
    {
      "inputs": [],
      "name": "getTrustedForwarder",
      "outputs": [
        {
          "internalType": "address",
          "name": "",
          "type": "address"
        }
      ],
      "stateMutability": "view",
      "type": "function"
    },
    {
      "inputs": [
        {
          "internalType": "address",
          "name": "insuranceFundArg",
          "type": "address"
        },
        {
          "internalType": "address",
          "name": "clearingHouseConfigArg",
          "type": "address"
        },
        {
          "internalType": "address",
          "name": "accountBalanceArg",
          "type": "address"
        },
        {
          "internalType": "address",
          "name": "exchangeArg",
          "type": "address"
        }
      ],
      "name": "initialize",
      "outputs": [],
      "stateMutability": "nonpayable",
      "type": "function"
    },
    {
      "inputs": [
        {
          "internalType": "address",
          "name": "forwarder",
          "type": "address"
        }
      ],
      "name": "isTrustedForwarder",
      "outputs": [
        {
          "internalType": "bool",
          "name": "",
          "type": "bool"
        }
      ],
      "stateMutability": "view",
      "type": "function"
    },
    {
      "inputs": [],
      "name": "owner",
      "outputs": [
        {
          "internalType": "address",
          "name": "",
          "type": "address"
        }
      ],
      "stateMutability": "view",
      "type": "function"
    },
    {
      "inputs": [],
      "name": "pause",
      "outputs": [],
      "stateMutability": "nonpayable",
      "type": "function"
    },
    {
      "inputs": [],
      "name": "paused",
      "outputs": [
        {
          "internalType": "bool",
          "name": "",
          "type": "bool"
        }
      ],
      "stateMutability": "view",
      "type": "function"
    },
    {
      "inputs": [],
      "name": "renounceOwnership",
      "outputs": [],
      "stateMutability": "nonpayable",
      "type": "function"
    },
    {
      "inputs": [
        {
          "internalType": "address",
          "name": "clearingHouseArg",
          "type": "address"
        }
      ],
      "name": "setClearingHouse",
      "outputs": [],
      "stateMutability": "nonpayable",
      "type": "function"
    },
    {
      "inputs": [
        {
          "internalType": "address",
          "name": "newOwner",
          "type": "address"
        }
      ],
      "name": "setOwner",
      "outputs": [],
      "stateMutability": "nonpayable",
      "type": "function"
    },
    {
      "inputs": [
        {
          "internalType": "address",
          "name": "trustedForwarderArg",
          "type": "address"
        }
      ],
      "name": "setTrustedForwarder",
      "outputs": [],
      "stateMutability": "nonpayable",
      "type": "function"
    },
    {
      "inputs": [],
      "name": "unpause",
      "outputs": [],
      "stateMutability": "nonpayable",
      "type": "function"
    },
    {
      "inputs": [],
      "name": "updateOwner",
      "outputs": [],
      "stateMutability": "nonpayable",
      "type": "function"
    },
    {
      "inputs": [],
      "name": "versionRecipient",
      "outputs": [
        {
          "internalType": "string",
          "name": "",
          "type": "string"
        }
      ],
      "stateMutability": "pure",
      "type": "function"
    },
    {
      "inputs": [
        {
          "internalType": "address",
          "name": "token",
          "type": "address"
        },
        {
          "internalType": "uint256",
          "name": "amountX10_D",
          "type": "uint256"
        }
      ],
      "name": "withdraw",
      "outputs": [],
      "stateMutability": "nonpayable",
      "type": "function"
    }
  ],
  "bytecode": "0x608060405234801561001057600080fd5b50612933806100206000396000f3fe608060405234801561001057600080fd5b50600436106101795760003560e01c80636c8381f8116100d9578063c575ff7911610087578063c575ff79146103b2578063ce1b815f146103ba578063da742228146103c2578063f3fef3a3146103e8578063f807cd2214610414578063f8b2cb4f1461041c578063f8c8765e1461044257610179565b80636c8381f81461035c578063715018a6146103645780638456cb591461036c5780638da5cb5b14610374578063aa2a82941461037c578063bc5920ba14610384578063c39994441461038c57610179565b80633ffd1303116101365780633ffd130314610212578063449323d81461024357806347e7ef2414610269578063486ff0cd14610295578063572b6c05146103125780635c975abb1461034c5780636896fabf1461035457610179565b806312803c7d1461017e57806313af4035146101a2578063158626f7146101ca578063313ce567146101d257806334ce998a146101f05780633f4ba83a1461020a575b600080fd5b610186610480565b604080516001600160a01b039092168252519081900360200190f35b6101c8600480360360208110156101b857600080fd5b50356001600160a01b0316610496565b005b6101866105f1565b6101da610601565b6040805160ff9092168252519081900360200190f35b6101f861060b565b60408051918252519081900360200190f35b6101c8610612565b6101f86004803603604081101561022857600080fd5b5080356001600160a01b0316906020013562ffffff16610679565b6101c86004803603602081101561025957600080fd5b50356001600160a01b0316610832565b6101c86004803603604081101561027f57600080fd5b506001600160a01b0381351690602001356108fe565b61029d610cde565b6040805160208082528351818301528351919283929083019185019080838360005b838110156102d75781810151838201526020016102bf565b50505050905090810190601f1680156103045780820380516001836020036101000a031916815260200191505b509250505060405180910390f35b6103386004803603602081101561032857600080fd5b50356001600160a01b0316610cfd565b604080519115158252519081900360200190f35b610338610d11565b610186610d1a565b610186610d2a565b6101c8610d39565b6101c8610dda565b610186610e3f565b610186610e4e565b6101c8610e5e565b6101f8600480360360208110156103a257600080fd5b50356001600160a01b0316610f4a565b610186610fe8565b610186610ff8565b6101c8600480360360208110156103d857600080fd5b50356001600160a01b0316611007565b6101c8600480360360408110156103fe57600080fd5b506001600160a01b0381351690602001356110bc565b6101866114e6565b6101f86004803603602081101561043257600080fd5b50356001600160a01b03166114f6565b6101c86004803603608081101561045857600080fd5b506001600160a01b038135811691602081013582169160408201358116916060013516611529565b6101305461010090046001600160a01b03165b90565b61049e611853565b6001600160a01b03166104af610e3f565b6001600160a01b0316146104f3576040805162461bcd60e51b8152602060048201526006602482015265534f5f434e4f60d01b604482015290519081900360640190fd5b6001600160a01b038116610537576040805162461bcd60e51b81526020600482015260066024820152650534f5f4e57360d41b604482015290519081900360640190fd5b6065546001600160a01b0382811691161415610583576040805162461bcd60e51b8152602060048201526006602482015265534f5f53414f60d01b604482015290519081900360640190fd5b6066546001600160a01b03828116911614156105cf576040805162461bcd60e51b8152602060048201526006602482015265534f5f53414360d01b604482015290519081900360640190fd5b606680546001600160a01b0319166001600160a01b0392909216919091179055565b610133546001600160a01b031690565b6101305460ff1690565b6101365490565b61061a611853565b6001600160a01b031661062b610e3f565b6001600160a01b03161461066f576040805162461bcd60e51b8152602060048201526006602482015265534f5f434e4f60d01b604482015290519081900360640190fd5b610677611862565b565b61013454604080516380f57f1160e01b81526001600160a01b0385811660048301529151600093849316916380f57f11916024808301926020929190829003018186803b1580156106c957600080fd5b505afa1580156106dd573d6000803e3d6000fd5b505050506040513d60208110156106f357600080fd5b5051610132546040805163bba85bcf60e01b81526001600160a01b038881166004830152915193945060009384938493169163bba85bcf916024808301926060929190829003018186803b15801561074a57600080fd5b505afa15801561075e573d6000803e3d6000fd5b505050506040513d606081101561077457600080fd5b5080516020820151604090920151610130549195509193509091506000906107c8906107bf9060ff166107b96107a986611902565b6107b3898b61194e565b906119ba565b90611a1f565b6107b38a6114f6565b610130549091506000906107eb906107e490869060ff16611a1f565b83906119ba565b905060006107f98a8a611a35565b61013054909150610824906108149060ff166107b984611902565b61081e8585611ac5565b9061194e565b9a9950505050505050505050565b61083a611853565b6001600160a01b031661084b610e3f565b6001600160a01b03161461088f576040805162461bcd60e51b8152602060048201526006602482015265534f5f434e4f60d01b604482015290519081900360640190fd5b6108a1816001600160a01b0316611adb565b6108db576040805162461bcd60e51b8152602060048201526006602482015265565f43484e4360d01b604482015290519081900360640190fd5b61013580546001600160a01b0319166001600160a01b0392909216919091179055565b610906610d11565b1561094b576040805162461bcd60e51b815260206004820152601060248201526f14185d5cd8589b194e881c185d5cd95960821b604482015290519081900360640190fd5b600260015414156109a3576040805162461bcd60e51b815260206004820152601f60248201527f5265656e7472616e637947756172643a207265656e7472616e742063616c6c00604482015290519081900360640190fd5b60026001556101305482906001600160a01b0380831661010090920416146109fa576040805162461bcd60e51b81526020600482015260056024820152641597d3d4d560da1b604482015290519081900360640190fd5b6000610a04611853565b9050610a198185610a1486611902565b611ae1565b6000846001600160a01b03166370a08231306040518263ffffffff1660e01b815260040180826001600160a01b0316815260200191505060206040518083038186803b158015610a6857600080fd5b505afa158015610a7c573d6000803e3d6000fd5b505050506040513d6020811015610a9257600080fd5b50519050610aa285833087611b44565b83610b2682876001600160a01b03166370a08231306040518263ffffffff1660e01b815260040180826001600160a01b0316815260200191505060206040518083038186803b158015610af457600080fd5b505afa158015610b08573d6000803e3d6000fd5b505050506040513d6020811015610b1e57600080fd5b505190611ba4565b14610b60576040805162461bcd60e51b8152602060048201526005602482015264565f49424160d81b604482015290519081900360640190fd5b61013154604080516385eacc7760e01b815290516000926001600160a01b0316916385eacc77916004808301926020929190829003018186803b158015610ba657600080fd5b505afa158015610bba573d6000803e3d6000fd5b505050506040513d6020811015610bd057600080fd5b5051604080516370a0823160e01b8152306004820152905191925082916001600160a01b038916916370a08231916024808301926020929190829003018186803b158015610c1d57600080fd5b505afa158015610c31573d6000803e3d6000fd5b505050506040513d6020811015610c4757600080fd5b50511115610c87576040805162461bcd60e51b8152602060048201526008602482015267565f47545354424360c01b604482015290519081900360640190fd5b826001600160a01b0316866001600160a01b03167f8752a472e571a816aea92eec8dae9baf628e840f4929fbcc2d155e6233ff68a7876040518082815260200191505060405180910390a350506001805550505050565b6040805180820190915260058152640322e302e360dc1b602082015290565b60fd546001600160a01b0390811691161490565b60995460ff1690565b610132546001600160a01b031690565b6066546001600160a01b031690565b610d41611853565b6001600160a01b0316610d52610e3f565b6001600160a01b031614610d96576040805162461bcd60e51b8152602060048201526006602482015265534f5f434e4f60d01b604482015290519081900360640190fd5b6065546040516000916001600160a01b031690600080516020612868833981519152908390a3606580546001600160a01b0319908116909155606680549091169055565b610de2611853565b6001600160a01b0316610df3610e3f565b6001600160a01b031614610e37576040805162461bcd60e51b8152602060048201526006602482015265534f5f434e4f60d01b604482015290519081900360640190fd5b610677611c01565b6065546001600160a01b031690565b610131546001600160a01b031690565b6066546001600160a01b0316610ea3576040805162461bcd60e51b81526020600482015260056024820152640534f5f43360dc1b604482015290519081900360640190fd5b610eab611853565b6066546001600160a01b03908116911614610ef6576040805162461bcd60e51b8152602060048201526006602482015265534f5f434e4360d01b604482015290519081900360640190fd5b6066546065546040516001600160a01b03928316929091169060008051602061286883398151915290600090a360668054606580546001600160a01b03199081166001600160a01b03841617909155169055565b6000610fe2610fdd610fd68461013160009054906101000a90046001600160a01b03166001600160a01b031663543ce73a6040518163ffffffff1660e01b815260040160206040518083038186803b158015610fa557600080fd5b505afa158015610fb9573d6000803e3d6000fd5b505050506040513d6020811015610fcf57600080fd5b5051610679565b6000611c84565b611c94565b92915050565b610135546001600160a01b031690565b60fd546001600160a01b031690565b61100f611853565b6001600160a01b0316611020610e3f565b6001600160a01b031614611064576040805162461bcd60e51b8152602060048201526006602482015265534f5f434e4f60d01b604482015290519081900360640190fd5b611076816001600160a01b0316611adb565b6110b0576040805162461bcd60e51b8152602060048201526006602482015265565f54464e4360d01b604482015290519081900360640190fd5b6110b981611ceb565b50565b6110c4610d11565b15611109576040805162461bcd60e51b815260206004820152601060248201526f14185d5cd8589b194e881c185d5cd95960821b604482015290519081900360640190fd5b60026001541415611161576040805162461bcd60e51b815260206004820152601f60248201527f5265656e7472616e637947756172643a207265656e7472616e742063616c6c00604482015290519081900360640190fd5b60026001556101305482906001600160a01b0380831661010090920416146111b8576040805162461bcd60e51b81526020600482015260056024820152641597d3d4d560da1b604482015290519081900360640190fd5b60006111c2611853565b61013554604080516375cdc89760e11b81526001600160a01b038085166004830152915193945091169163eb9b912e9160248082019260009290919082900301818387803b15801561121357600080fd5b505af1158015611227573d6000803e3d6000fd5b5050610132546040805163fd6ceee560e01b81526001600160a01b03868116600483015291516000955091909216925063fd6ceee59160248082019260209290919082900301818787803b15801561127e57600080fd5b505af1158015611292573d6000803e3d6000fd5b505050506040513d60208110156112a857600080fd5b50516101315460408051632a1e739d60e11b815290519293506000926112fc9286926001600160a01b039091169163543ce73a91600480820192602092909190829003018186803b158015610fa557600080fd5b905061130785611902565b6101305461131d906107e490859060ff16611a1f565b1215611359576040805162461bcd60e51b8152602060048201526006602482015265565f4e45464360d01b604482015290519081900360640190fd5b6000866001600160a01b03166370a08231306040518263ffffffff1660e01b815260040180826001600160a01b0316815260200191505060206040518083038186803b1580156113a857600080fd5b505afa1580156113bc573d6000803e3d6000fd5b505050506040513d60208110156113d257600080fd5b505190508581101561145357610133546040805163317afabb60e21b815283890360048201819052915191926001600160a01b03169163c5ebeaec9160248082019260009290919082900301818387803b15801561142f57600080fd5b505af1158015611443573d6000803e3d6000fd5b5050610136805490930190925550505b610130546114839085908990610a149061147e9061147590899060ff16611a1f565b61081e8c611902565b611d3f565b61148e878588611d74565b836001600160a01b0316876001600160a01b03167fd1c19fbcd4551a5edfb66d43d2e337c04837afda3482b42bdf569a8fccdae5fb886040518082815260200191505060405180910390a35050600180555050505050565b610134546001600160a01b031690565b6001600160a01b039081166000908152610137602090815260408083206101305461010090049094168352929052205490565b600054610100900460ff16806115425750611542611dcb565b80611550575060005460ff16155b61158b5760405162461bcd60e51b815260040180806020018281038252602e815260200180612819602e913960400191505060405180910390fd5b600054610100900460ff161580156115b6576000805460ff1961ff0019909116610100171660011790555b6000856001600160a01b03166321df0da76040518163ffffffff1660e01b815260040160206040518083038186803b1580156115f157600080fd5b505afa158015611605573d6000803e3d6000fd5b505050506040513d602081101561161b57600080fd5b50516040805163313ce56760e01b815290519192506000916001600160a01b0384169163313ce567916004808301926020929190829003018186803b15801561166357600080fd5b505afa158015611677573d6000803e3d6000fd5b505050506040513d602081101561168d57600080fd5b50519050601260ff821611156116d3576040805162461bcd60e51b81526020600482015260066024820152651597d254d51160d21b604482015290519081900360640190fd5b6116e5866001600160a01b0316611adb565b611720576040805162461bcd60e51b8152602060048201526007602482015266565f4348434e4360c81b604482015290519081900360640190fd5b611732856001600160a01b0316611adb565b61176c576040805162461bcd60e51b8152602060048201526006602482015265565f41424e4360d01b604482015290519081900360640190fd5b61177e846001600160a01b0316611adb565b6117b7576040805162461bcd60e51b8152602060048201526005602482015264565f454e4360d81b604482015290519081900360640190fd5b6117bf611ddc565b6117c7611e85565b610130805460ff191660ff9290921691909117610100600160a81b0319166101006001600160a01b039384160217905561013380546001600160a01b03199081168884161790915561013180548216878416179055610132805482168684161790556101348054909116918416919091179055801561184c576000805461ff00191690555b5050505050565b600061185d611f22565b905090565b61186a610d11565b6118b2576040805162461bcd60e51b815260206004820152601460248201527314185d5cd8589b194e881b9bdd081c185d5cd95960621b604482015290519081900360640190fd5b6099805460ff191690557f5db9ee0a495bf2e6ff9c91a7834c1ba4fdd244a5e8aa4e537bd38aeae4b073aa6118e5611853565b604080516001600160a01b039092168252519081900360200190a1565b60006001600160ff1b0382111561194a5760405162461bcd60e51b81526004018080602001828103825260288152602001806128886028913960400191505060405180910390fd5b5090565b60008183038183128015906119635750838113155b80611978575060008312801561197857508381135b6119b35760405162461bcd60e51b81526004018080602001828103825260248152602001806128b06024913960400191505060405180910390fd5b9392505050565b60008282018183128015906119cf5750838112155b806119e457506000831280156119e457508381125b6119b35760405162461bcd60e51b81526004018080602001828103825260218152602001806127d26021913960400191505060405180910390fd5b60006119b38360ff601285900316600a0a611f52565b610132546040805163293a507760e01b81526001600160a01b03858116600483015291516000938493169163293a5077916024808301926020929190829003018186803b158015611a8557600080fd5b505afa158015611a99573d6000803e3d6000fd5b505050506040513d6020811015611aaf57600080fd5b50519050611abd818461200a565b949350505050565b6000818312611ad457816119b3565b5090919050565b3b151590565b6001600160a01b0380841660009081526101376020908152604080832093861683529290522054611b1290826119ba565b6001600160a01b0393841660009081526101376020908152604080832095909616825293909352929091209190915550565b604080516001600160a01b0380861660248301528416604482015260648082018490528251808303909101815260849091019091526020810180516001600160e01b03166323b872dd60e01b179052611b9e90859061201f565b50505050565b600082821115611bfb576040805162461bcd60e51b815260206004820152601e60248201527f536166654d6174683a207375627472616374696f6e206f766572666c6f770000604482015290519081900360640190fd5b50900390565b611c09610d11565b15611c4e576040805162461bcd60e51b815260206004820152601060248201526f14185d5cd8589b194e881c185d5cd95960821b604482015290519081900360640190fd5b6099805460ff191660011790557f62e78cea01bee320cd4e420270b5ea74000d11b0c9f74754ebdbfc544b05a2586118e5611853565b600081831215611ad457816119b3565b60008082121561194a576040805162461bcd60e51b815260206004820181905260248201527f53616665436173743a2076616c7565206d75737420626520706f736974697665604482015290519081900360640190fd5b60fd80546001600160a01b0383166001600160a01b0319909116811790915560408051918252517fa4388ecc389b1390354ae0c65a856c0d7dd4fb648419f5d3ac0b99e38f46fd119181900360200190a150565b6000600160ff1b8213611d6d5760405162461bcd60e51b8152600401611d649061279a565b60405180910390fd5b5060000390565b604080516001600160a01b038416602482015260448082018490528251808303909101815260649091019091526020810180516001600160e01b031663a9059cbb60e01b179052611dc690849061201f565b505050565b6000611dd630611adb565b15905090565b600054610100900460ff1680611df55750611df5611dcb565b80611e03575060005460ff16155b611e3e5760405162461bcd60e51b815260040180806020018281038252602e815260200180612819602e913960400191505060405180910390fd5b600054610100900460ff16158015611e69576000805460ff1961ff0019909116610100171660011790555b611e716120d0565b80156110b9576000805461ff001916905550565b600054610100900460ff1680611e9e5750611e9e611dcb565b80611eac575060005460ff16155b611ee75760405162461bcd60e51b815260040180806020018281038252602e815260200180612819602e913960400191505060405180910390fd5b600054610100900460ff16158015611f12576000805460ff1961ff0019909116610100171660011790555b611f1a612175565b611e71612264565b600060143610801590611f395750611f3933610cfd565b15611f4d575060131936013560601c610493565b503390565b600081611fa6576040805162461bcd60e51b815260206004820181905260248201527f5369676e6564536166654d6174683a206469766973696f6e206279207a65726f604482015290519081900360640190fd5b81600019148015611fba5750600160ff1b83145b15611ff65760405162461bcd60e51b81526004018080602001828103825260218152602001806128476021913960400191505060405180910390fd5b600082848161200157fe5b05949350505050565b60006119b3838362ffffff16620f4240612301565b6000612074826040518060400160405280602081526020017f5361666545524332303a206c6f772d6c6576656c2063616c6c206661696c6564815250856001600160a01b03166123b09092919063ffffffff16565b805190915015611dc65780806020019051602081101561209357600080fd5b5051611dc65760405162461bcd60e51b815260040180806020018281038252602a8152602001806128d4602a913960400191505060405180910390fd5b600054610100900460ff16806120e957506120e9611dcb565b806120f7575060005460ff16155b6121325760405162461bcd60e51b815260040180806020018281038252602e815260200180612819602e913960400191505060405180910390fd5b600054610100900460ff1615801561215d576000805460ff1961ff0019909116610100171660011790555b6001805580156110b9576000805461ff001916905550565b600054610100900460ff168061218e575061218e611dcb565b8061219c575060005460ff16155b6121d75760405162461bcd60e51b815260040180806020018281038252602e815260200180612819602e913960400191505060405180910390fd5b600054610100900460ff16158015612202576000805460ff1961ff0019909116610100171660011790555b61220a6123bf565b6000612214611853565b606580546001600160a01b0319166001600160a01b03831690811790915560405191925090600090600080516020612868833981519152908290a35080156110b9576000805461ff001916905550565b600054610100900460ff168061227d575061227d611dcb565b8061228b575060005460ff16155b6122c65760405162461bcd60e51b815260040180806020018281038252602e815260200180612819602e913960400191505060405180910390fd5b600054610100900460ff161580156122f1576000805460ff1961ff0019909116610100171660011790555b6122f9612450565b611e716124f0565b6000808060001985870986860292508281109083900303905080612337576000841161232c57600080fd5b5082900490506119b3565b80841161234357600080fd5b6000848688096000868103871696879004966002600389028118808a02820302808a02820302808a02820302808a02820302808a02820302808a02909103029181900381900460010186841190950394909402919094039290920491909117919091029150509392505050565b6060611abd848460008561259b565b600054610100900460ff16806123d857506123d8611dcb565b806123e6575060005460ff16155b6124215760405162461bcd60e51b815260040180806020018281038252602e815260200180612819602e913960400191505060405180910390fd5b600054610100900460ff1615801561244c576000805460ff1961ff0019909116610100171660011790555b611e715b600054610100900460ff16806124695750612469611dcb565b80612477575060005460ff16155b6124b25760405162461bcd60e51b815260040180806020018281038252602e815260200180612819602e913960400191505060405180910390fd5b600054610100900460ff16158015611e71576000805460ff1961ff00199091166101001716600117905580156110b9576000805461ff001916905550565b600054610100900460ff16806125095750612509611dcb565b80612517575060005460ff16155b6125525760405162461bcd60e51b815260040180806020018281038252602e815260200180612819602e913960400191505060405180910390fd5b600054610100900460ff1615801561257d576000805460ff1961ff0019909116610100171660011790555b6099805460ff1916905580156110b9576000805461ff001916905550565b6060824710156125dc5760405162461bcd60e51b81526004018080602001828103825260268152602001806127f36026913960400191505060405180910390fd5b6125e585611adb565b612636576040805162461bcd60e51b815260206004820152601d60248201527f416464726573733a2063616c6c20746f206e6f6e2d636f6e7472616374000000604482015290519081900360640190fd5b600080866001600160a01b031685876040518082805190602001908083835b602083106126745780518252601f199092019160209182019101612655565b6001836020036101000a03801982511681845116808217855250505050505090500191505060006040518083038185875af1925050503d80600081146126d6576040519150601f19603f3d011682016040523d82523d6000602084013e6126db565b606091505b50915091506126eb8282866126f6565b979650505050505050565b606083156127055750816119b3565b8251156127155782518084602001fd5b8160405162461bcd60e51b81526004018080602001828103825283818151815260200191508051906020019080838360005b8381101561275f578181015183820152602001612747565b50505050905090810190601f16801561278c5780820380516001836020036101000a031916815260200191505b509250505060405180910390fd5b6020808252601c908201527f506572704d6174683a20696e76657273696f6e206f766572666c6f770000000060408201526060019056fe5369676e6564536166654d6174683a206164646974696f6e206f766572666c6f77416464726573733a20696e73756666696369656e742062616c616e636520666f722063616c6c496e697469616c697a61626c653a20636f6e747261637420697320616c726561647920696e697469616c697a65645369676e6564536166654d6174683a206469766973696f6e206f766572666c6f778be0079c531659141344cd1fd0a4f28419497f9722a3daafe3b4186f6b6457e053616665436173743a2076616c756520646f65736e27742066697420696e20616e20696e743235365369676e6564536166654d6174683a207375627472616374696f6e206f766572666c6f775361666545524332303a204552433230206f7065726174696f6e20646964206e6f742073756363656564a26469706673582212200da650f6e8195ab7d813b00888e40565ca58a0080d1da2cddc61baceab32c30c64736f6c63430007060033",
  "linkReferences": {},
  "deployedLinkReferences": {}
}