{
  "_format": "hh-sol-artifact-1",
  "contractName": "PerpV2ClearingHouse",
  "sourceName": "contracts/ClearingHouse.sol",
  "abi": [
    {
      "anonymous": false,
      "inputs": [
        {
          "indexed": true,
          "internalType": "address",
          "name": "trader",
          "type": "address"
        },
        {
          "indexed": true,
          "internalType": "address",
          "name": "baseToken",
          "type": "address"
        },
        {
          "indexed": false,
          "internalType": "int256",
          "name": "fundingPayment",
          "type": "int256"
        }
      ],
      "name": "FundingPaymentSettled",
      "type": "event"
    },
    {
      "anonymous": false,
      "inputs": [
        {
          "indexed": true,
          "internalType": "address",
          "name": "maker",
          "type": "address"
        },
        {
          "indexed": true,
          "internalType": "address",
          "name": "baseToken",
          "type": "address"
        },
        {
          "indexed": true,
          "internalType": "address",
          "name": "quoteToken",
          "type": "address"
        },
        {
          "indexed": false,
          "internalType": "int24",
          "name": "lowerTick",
          "type": "int24"
        },
        {
          "indexed": false,
          "internalType": "int24",
          "name": "upperTick",
          "type": "int24"
        },
        {
          "indexed": false,
          "internalType": "int256",
          "name": "base",
          "type": "int256"
        },
        {
          "indexed": false,
          "internalType": "int256",
          "name": "quote",
          "type": "int256"
        },
        {
          "indexed": false,
          "internalType": "int128",
          "name": "liquidity",
          "type": "int128"
        },
        {
          "indexed": false,
          "internalType": "uint256",
          "name": "quoteFee",
          "type": "uint256"
        }
      ],
      "name": "LiquidityChanged",
      "type": "event"
    },
    {
      "anonymous": false,
      "inputs": [
        {
          "indexed": true,
          "internalType": "address",
          "name": "previousOwner",
          "type": "address"
        },
        {
          "indexed": true,
          "internalType": "address",
          "name": "newOwner",
          "type": "address"
        }
      ],
      "name": "OwnershipTransferred",
      "type": "event"
    },
    {
      "anonymous": false,
      "inputs": [
        {
          "indexed": false,
          "internalType": "address",
          "name": "account",
          "type": "address"
        }
      ],
      "name": "Paused",
      "type": "event"
    },
    {
      "anonymous": false,
      "inputs": [
        {
          "indexed": true,
          "internalType": "address",
          "name": "trader",
          "type": "address"
        },
        {
          "indexed": true,
          "internalType": "address",
          "name": "baseToken",
          "type": "address"
        },
        {
          "indexed": false,
          "internalType": "int256",
          "name": "exchangedPositionSize",
          "type": "int256"
        },
        {
          "indexed": false,
          "internalType": "int256",
          "name": "exchangedPositionNotional",
          "type": "int256"
        },
        {
          "indexed": false,
          "internalType": "uint256",
          "name": "fee",
          "type": "uint256"
        },
        {
          "indexed": false,
          "internalType": "int256",
          "name": "openNotional",
          "type": "int256"
        },
        {
          "indexed": false,
          "internalType": "int256",
          "name": "realizedPnl",
          "type": "int256"
        },
        {
          "indexed": false,
          "internalType": "uint256",
          "name": "sqrtPriceAfterX96",
          "type": "uint256"
        }
      ],
      "name": "PositionChanged",
      "type": "event"
    },
    {
      "anonymous": false,
      "inputs": [
        {
          "indexed": true,
          "internalType": "address",
          "name": "trader",
          "type": "address"
        },
        {
          "indexed": true,
          "internalType": "address",
          "name": "baseToken",
          "type": "address"
        },
        {
          "indexed": false,
          "internalType": "uint256",
          "name": "positionNotional",
          "type": "uint256"
        },
        {
          "indexed": false,
          "internalType": "uint256",
          "name": "positionSize",
          "type": "uint256"
        },
        {
          "indexed": false,
          "internalType": "uint256",
          "name": "liquidationFee",
          "type": "uint256"
        },
        {
          "indexed": false,
          "internalType": "address",
          "name": "liquidator",
          "type": "address"
        }
      ],
      "name": "PositionLiquidated",
      "type": "event"
    },
    {
      "anonymous": false,
      "inputs": [
        {
          "indexed": true,
          "internalType": "bytes32",
          "name": "referralCode",
          "type": "bytes32"
        }
      ],
      "name": "ReferredPositionChanged",
      "type": "event"
    },
    {
      "anonymous": false,
      "inputs": [
        {
          "indexed": true,
          "internalType": "address",
          "name": "forwarder",
          "type": "address"
        }
      ],
      "name": "TrustedForwarderChanged",
      "type": "event"
    },
    {
      "anonymous": false,
      "inputs": [
        {
          "indexed": false,
          "internalType": "address",
          "name": "trustedForwarder",
          "type": "address"
        }
      ],
      "name": "TrustedForwarderUpdated",
      "type": "event"
    },
    {
      "anonymous": false,
      "inputs": [
        {
          "indexed": false,
          "internalType": "address",
          "name": "account",
          "type": "address"
        }
      ],
      "name": "Unpaused",
      "type": "event"
    },
    {
      "inputs": [
        {
          "components": [
            {
              "internalType": "address",
              "name": "baseToken",
              "type": "address"
            },
            {
              "internalType": "uint256",
              "name": "base",
              "type": "uint256"
            },
            {
              "internalType": "uint256",
              "name": "quote",
              "type": "uint256"
            },
            {
              "internalType": "int24",
              "name": "lowerTick",
              "type": "int24"
            },
            {
              "internalType": "int24",
              "name": "upperTick",
              "type": "int24"
            },
            {
              "internalType": "uint256",
              "name": "minBase",
              "type": "uint256"
            },
            {
              "internalType": "uint256",
              "name": "minQuote",
              "type": "uint256"
            },
            {
              "internalType": "bool",
              "name": "useTakerBalance",
              "type": "bool"
            },
            {
              "internalType": "uint256",
              "name": "deadline",
              "type": "uint256"
            }
          ],
          "internalType": "struct IClearingHouse.AddLiquidityParams",
          "name": "params",
          "type": "tuple"
        }
      ],
      "name": "addLiquidity",
      "outputs": [
        {
          "components": [
            {
              "internalType": "uint256",
              "name": "base",
              "type": "uint256"
            },
            {
              "internalType": "uint256",
              "name": "quote",
              "type": "uint256"
            },
            {
              "internalType": "uint256",
              "name": "fee",
              "type": "uint256"
            },
            {
              "internalType": "uint256",
              "name": "liquidity",
              "type": "uint256"
            }
          ],
          "internalType": "struct IClearingHouse.AddLiquidityResponse",
          "name": "",
          "type": "tuple"
        }
      ],
      "stateMutability": "nonpayable",
      "type": "function"
    },
    {
      "inputs": [
        {
          "internalType": "address",
          "name": "maker",
          "type": "address"
        },
        {
          "internalType": "address",
          "name": "baseToken",
          "type": "address"
        }
      ],
      "name": "cancelAllExcessOrders",
      "outputs": [],
      "stateMutability": "nonpayable",
      "type": "function"
    },
    {
      "inputs": [
        {
          "internalType": "address",
          "name": "maker",
          "type": "address"
        },
        {
          "internalType": "address",
          "name": "baseToken",
          "type": "address"
        },
        {
          "internalType": "bytes32[]",
          "name": "orderIds",
          "type": "bytes32[]"
        }
      ],
      "name": "cancelExcessOrders",
      "outputs": [],
      "stateMutability": "nonpayable",
      "type": "function"
    },
    {
      "inputs": [],
      "name": "candidate",
      "outputs": [
        {
          "internalType": "address",
          "name": "",
          "type": "address"
        }
      ],
      "stateMutability": "view",
      "type": "function"
    },
    {
      "inputs": [
        {
          "components": [
            {
              "internalType": "address",
              "name": "baseToken",
              "type": "address"
            },
            {
              "internalType": "uint160",
              "name": "sqrtPriceLimitX96",
              "type": "uint160"
            },
            {
              "internalType": "uint256",
              "name": "oppositeAmountBound",
              "type": "uint256"
            },
            {
              "internalType": "uint256",
              "name": "deadline",
              "type": "uint256"
            },
            {
              "internalType": "bytes32",
              "name": "referralCode",
              "type": "bytes32"
            }
          ],
          "internalType": "struct IClearingHouse.ClosePositionParams",
          "name": "params",
          "type": "tuple"
        }
      ],
      "name": "closePosition",
      "outputs": [
        {
          "internalType": "uint256",
          "name": "base",
          "type": "uint256"
        },
        {
          "internalType": "uint256",
          "name": "quote",
          "type": "uint256"
        }
      ],
      "stateMutability": "nonpayable",
      "type": "function"
    },
    {
      "inputs": [],
      "name": "getAccountBalance",
      "outputs": [
        {
          "internalType": "address",
          "name": "",
          "type": "address"
        }
      ],
      "stateMutability": "view",
      "type": "function"
    },
    {
      "inputs": [
        {
          "internalType": "address",
          "name": "trader",
          "type": "address"
        }
      ],
      "name": "getAccountValue",
      "outputs": [
        {
          "internalType": "int256",
          "name": "",
          "type": "int256"
        }
      ],
      "stateMutability": "view",
      "type": "function"
    },
    {
      "inputs": [],
      "name": "getClearingHouseConfig",
      "outputs": [
        {
          "internalType": "address",
          "name": "",
          "type": "address"
        }
      ],
      "stateMutability": "view",
      "type": "function"
    },
    {
      "inputs": [],
      "name": "getExchange",
      "outputs": [
        {
          "internalType": "address",
          "name": "",
          "type": "address"
        }
      ],
      "stateMutability": "view",
      "type": "function"
    },
    {
      "inputs": [],
      "name": "getInsuranceFund",
      "outputs": [
        {
          "internalType": "address",
          "name": "",
          "type": "address"
        }
      ],
      "stateMutability": "view",
      "type": "function"
    },
    {
      "inputs": [],
      "name": "getOrderBook",
      "outputs": [
        {
          "internalType": "address",
          "name": "",
          "type": "address"
        }
      ],
      "stateMutability": "view",
      "type": "function"
    },
    {
      "inputs": [],
      "name": "getQuoteToken",
      "outputs": [
        {
          "internalType": "address",
          "name": "",
          "type": "address"
        }
      ],
      "stateMutability": "view",
      "type": "function"
    },
    {
      "inputs": [],
      "name": "getTrustedForwarder",
      "outputs": [
        {
          "internalType": "address",
          "name": "",
          "type": "address"
        }
      ],
      "stateMutability": "view",
      "type": "function"
    },
    {
      "inputs": [],
      "name": "getUniswapV3Factory",
      "outputs": [
        {
          "internalType": "address",
          "name": "",
          "type": "address"
        }
      ],
      "stateMutability": "view",
      "type": "function"
    },
    {
      "inputs": [],
      "name": "getVault",
      "outputs": [
        {
          "internalType": "address",
          "name": "",
          "type": "address"
        }
      ],
      "stateMutability": "view",
      "type": "function"
    },
    {
      "inputs": [
        {
          "internalType": "address",
          "name": "clearingHouseConfigArg",
          "type": "address"
        },
        {
          "internalType": "address",
          "name": "vaultArg",
          "type": "address"
        },
        {
          "internalType": "address",
          "name": "quoteTokenArg",
          "type": "address"
        },
        {
          "internalType": "address",
          "name": "uniV3FactoryArg",
          "type": "address"
        },
        {
          "internalType": "address",
          "name": "exchangeArg",
          "type": "address"
        },
        {
          "internalType": "address",
          "name": "accountBalanceArg",
          "type": "address"
        },
        {
          "internalType": "address",
          "name": "insuranceFundArg",
          "type": "address"
        }
      ],
      "name": "initialize",
      "outputs": [],
      "stateMutability": "nonpayable",
      "type": "function"
    },
    {
      "inputs": [
        {
          "internalType": "address",
          "name": "forwarder",
          "type": "address"
        }
      ],
      "name": "isTrustedForwarder",
      "outputs": [
        {
          "internalType": "bool",
          "name": "",
          "type": "bool"
        }
      ],
      "stateMutability": "view",
      "type": "function"
    },
    {
      "inputs": [
        {
          "internalType": "address",
          "name": "trader",
          "type": "address"
        },
        {
          "internalType": "address",
          "name": "baseToken",
          "type": "address"
        }
      ],
      "name": "liquidate",
      "outputs": [],
      "stateMutability": "nonpayable",
      "type": "function"
    },
    {
      "inputs": [
        {
          "components": [
            {
              "internalType": "address",
              "name": "baseToken",
              "type": "address"
            },
            {
              "internalType": "bool",
              "name": "isBaseToQuote",
              "type": "bool"
            },
            {
              "internalType": "bool",
              "name": "isExactInput",
              "type": "bool"
            },
            {
              "internalType": "uint256",
              "name": "amount",
              "type": "uint256"
            },
            {
              "internalType": "uint256",
              "name": "oppositeAmountBound",
              "type": "uint256"
            },
            {
              "internalType": "uint256",
              "name": "deadline",
              "type": "uint256"
            },
            {
              "internalType": "uint160",
              "name": "sqrtPriceLimitX96",
              "type": "uint160"
            },
            {
              "internalType": "bytes32",
              "name": "referralCode",
              "type": "bytes32"
            }
          ],
          "internalType": "struct IClearingHouse.OpenPositionParams",
          "name": "params",
          "type": "tuple"
        }
      ],
      "name": "openPosition",
      "outputs": [
        {
          "internalType": "uint256",
          "name": "base",
          "type": "uint256"
        },
        {
          "internalType": "uint256",
          "name": "quote",
          "type": "uint256"
        }
      ],
      "stateMutability": "nonpayable",
      "type": "function"
    },
    {
      "inputs": [],
      "name": "owner",
      "outputs": [
        {
          "internalType": "address",
          "name": "",
          "type": "address"
        }
      ],
      "stateMutability": "view",
      "type": "function"
    },
    {
      "inputs": [],
      "name": "pause",
      "outputs": [],
      "stateMutability": "nonpayable",
      "type": "function"
    },
    {
      "inputs": [],
      "name": "paused",
      "outputs": [
        {
          "internalType": "bool",
          "name": "",
          "type": "bool"
        }
      ],
      "stateMutability": "view",
      "type": "function"
    },
    {
      "inputs": [
        {
          "components": [
            {
              "internalType": "address",
              "name": "baseToken",
              "type": "address"
            },
            {
              "internalType": "int24",
              "name": "lowerTick",
              "type": "int24"
            },
            {
              "internalType": "int24",
              "name": "upperTick",
              "type": "int24"
            },
            {
              "internalType": "uint128",
              "name": "liquidity",
              "type": "uint128"
            },
            {
              "internalType": "uint256",
              "name": "minBase",
              "type": "uint256"
            },
            {
              "internalType": "uint256",
              "name": "minQuote",
              "type": "uint256"
            },
            {
              "internalType": "uint256",
              "name": "deadline",
              "type": "uint256"
            }
          ],
          "internalType": "struct IClearingHouse.RemoveLiquidityParams",
          "name": "params",
          "type": "tuple"
        }
      ],
      "name": "removeLiquidity",
      "outputs": [
        {
          "components": [
            {
              "internalType": "uint256",
              "name": "base",
              "type": "uint256"
            },
            {
              "internalType": "uint256",
              "name": "quote",
              "type": "uint256"
            },
            {
              "internalType": "uint256",
              "name": "fee",
              "type": "uint256"
            }
          ],
          "internalType": "struct IClearingHouse.RemoveLiquidityResponse",
          "name": "",
          "type": "tuple"
        }
      ],
      "stateMutability": "nonpayable",
      "type": "function"
    },
    {
      "inputs": [],
      "name": "renounceOwnership",
      "outputs": [],
      "stateMutability": "nonpayable",
      "type": "function"
    },
    {
      "inputs": [
        {
          "internalType": "address",
          "name": "newOwner",
          "type": "address"
        }
      ],
      "name": "setOwner",
      "outputs": [],
      "stateMutability": "nonpayable",
      "type": "function"
    },
    {
      "inputs": [
        {
          "internalType": "address",
          "name": "trustedForwarderArg",
          "type": "address"
        }
      ],
      "name": "setTrustedForwarder",
      "outputs": [],
      "stateMutability": "nonpayable",
      "type": "function"
    },
    {
      "inputs": [
        {
          "internalType": "address",
          "name": "trader",
          "type": "address"
        }
      ],
      "name": "settleAllFunding",
      "outputs": [],
      "stateMutability": "nonpayable",
      "type": "function"
    },
    {
      "inputs": [
        {
          "internalType": "uint256",
          "name": "amount0Owed",
          "type": "uint256"
        },
        {
          "internalType": "uint256",
          "name": "amount1Owed",
          "type": "uint256"
        },
        {
          "internalType": "bytes",
          "name": "data",
          "type": "bytes"
        }
      ],
      "name": "uniswapV3MintCallback",
      "outputs": [],
      "stateMutability": "nonpayable",
      "type": "function"
    },
    {
      "inputs": [
        {
          "internalType": "int256",
          "name": "amount0Delta",
          "type": "int256"
        },
        {
          "internalType": "int256",
          "name": "amount1Delta",
          "type": "int256"
        },
        {
          "internalType": "bytes",
          "name": "data",
          "type": "bytes"
        }
      ],
      "name": "uniswapV3SwapCallback",
      "outputs": [],
      "stateMutability": "nonpayable",
      "type": "function"
    },
    {
      "inputs": [],
      "name": "unpause",
      "outputs": [],
      "stateMutability": "nonpayable",
      "type": "function"
    },
    {
      "inputs": [],
      "name": "updateOwner",
      "outputs": [],
      "stateMutability": "nonpayable",
      "type": "function"
    },
    {
      "inputs": [],
      "name": "versionRecipient",
      "outputs": [
        {
          "internalType": "string",
          "name": "",
          "type": "string"
        }
      ],
      "stateMutability": "pure",
      "type": "function"
    }
  ],
  "bytecode": "0x608060405234801561001057600080fd5b50615a8d80620000216000396000f3fe608060405234801561001057600080fd5b50600436106101af5760003560e01c80638d928af8116100ef578063cc3606dc11610092578063cc3606dc14610331578063cde109b614610344578063ce1b815f14610364578063d34879971461036c578063da7422281461037f578063eb9b912e14610392578063f807cd22146103a5578063fa461e33146103ad576101af565b80638d928af8146102ce5780638da5cb5b146102d6578063aa2a8294146102de578063b081983b146102e6578063b248c4ef146102ee578063b6b1b6c3146102f6578063bc5920ba14610309578063c35eb28c14610311576101af565b80635ae80951116101575780635ae80951146102605780635c975abb146102805780636896fabf146102885780636c8381f814610290578063715018a61461029857806380a98332146102a05780638456cb59146102b357806386b9d81f146102bb576101af565b8062aa9a89146101b457806313af4035146101de578063158626f7146101f357806335876476146102085780633f4ba83a1461021b578063486ff0cd146102235780634a64d67d14610238578063572b6c0514610240575b600080fd5b6101c76101c2366004614ca9565b6103c0565b6040516101d5929190615803565b60405180910390f35b6101f16101ec36600461480b565b610662565b005b6101fb6107bd565b6040516101d5919061508a565b6101f161021636600461487b565b6107ce565b6101f1610c0f565b61022b610c76565b6040516101d59190615216565b6101fb610c95565b61025361024e36600461480b565b610ca5565b6040516101d59190615191565b61027361026e36600461480b565b610cbc565b6040516101d5919061519c565b610253610ea3565b6101fb610eac565b6101fb610ebc565b6101f1610ecb565b6101f16102ae366004614910565b610f6c565b6101f161104f565b6101f16102c9366004614843565b6110b4565b6101fb6114bb565b6101fb6114cb565b6101fb6114da565b6101fb6114ea565b6101fb6114fa565b6101c7610304366004614df8565b61150a565b6101f1611760565b61032461031f366004614c2d565b61184c565b6040516101d591906156ca565b6101f161033f366004614843565b612045565b610357610352366004614e9c565b61217b565b6040516101d59190615785565b6101fb61262a565b6101f161037a366004614b4d565b612639565b6101f161038d36600461480b565b6128bd565b6101f16103a036600461480b565b612988565b6101fb612a4a565b6101f16103bb366004614b4d565b612a5a565b6000806103cb610ea3565b15610410576040805162461bcd60e51b815260206004820152601060248201526f14185d5cd8589b194e881c185d5cd95960821b604482015290519081900360640190fd5b60026001541415610456576040805162461bcd60e51b815260206004820152601f60248201526000805160206158ce833981519152604482015290519081900360640190fd5b6002600155606083013580610469612c75565b11156104905760405162461bcd60e51b815260040161048790615532565b60405180910390fd5b600061049a612c79565b90506104b2816104ad602088018861480b565b612c88565b5060006105166040518060600160405280846001600160a01b031681526020018860000160208101906104e5919061480b565b6001600160a01b03168152602001886020016020810190610506919061480b565b6001600160a01b03169052612e46565b905060008082604001511261052c57600061052f565b60015b905060008261012001516105475787604001356105d1565b6101325460408051633a14199b60e11b815290516105d1926001600160a01b0316916374283336916004808301926020929190829003018186803b15801561058e57600080fd5b505afa1580156105a2573d6000803e3d6000fd5b505050506040513d601f19601f820116820180604052508101906105c6919061504d565b60408a013590612f66565b905061060e6040518060a0016040528084151581526020018415158152602001856000015181526020018560200151815260200183815250612f82565b608088013515610648576040516080890135907f09a07769667a46c2b89124a4d731c76fb5203061073aec16319ba9c6a79a324890600090a25b505080516020909101516001805590969095509350505050565b61066a612c79565b6001600160a01b031661067b6114cb565b6001600160a01b0316146106bf576040805162461bcd60e51b8152602060048201526006602482015265534f5f434e4f60d01b604482015290519081900360640190fd5b6001600160a01b038116610703576040805162461bcd60e51b81526020600482015260066024820152650534f5f4e57360d41b604482015290519081900360640190fd5b6065546001600160a01b038281169116141561074f576040805162461bcd60e51b8152602060048201526006602482015265534f5f53414f60d01b604482015290519081900360640190fd5b6066546001600160a01b038281169116141561079b576040805162461bcd60e51b8152602060048201526006602482015265534f5f53414360d01b604482015290519081900360640190fd5b606680546001600160a01b0319166001600160a01b0392909216919091179055565b610137546001600160a01b03165b90565b600054610100900460ff16806107e757506107e7613058565b806107f5575060005460ff16155b6108305760405162461bcd60e51b815260040180806020018281038252602e815260200180615956602e913960400191505060405180910390fd5b600054610100900460ff1615801561085b576000805460ff1961ff0019909116610100171660011790555b61086d876001600160a01b0316613069565b6108895760405162461bcd60e51b815260040161048790615551565b61089b866001600160a01b0316613069565b6108b75760405162461bcd60e51b815260040161048790615392565b856001600160a01b031663313ce5676040518163ffffffff1660e01b815260040160206040518083038186803b1580156108f057600080fd5b505afa158015610904573d6000803e3d6000fd5b505050506040513d601f19601f820116820180604052508101906109289190615069565b60ff1660121461094a5760405162461bcd60e51b815260040161048790615269565b61095c856001600160a01b0316613069565b6109785760405162461bcd60e51b81526004016104879061532e565b61098a886001600160a01b0316613069565b6109a65760405162461bcd60e51b815260040161048790615456565b6109b8836001600160a01b0316613069565b6109d45760405162461bcd60e51b81526004016104879061530d565b6109e6846001600160a01b0316613069565b610a025760405162461bcd60e51b815260040161048790615436565b610a14826001600160a01b0316613069565b610a305760405162461bcd60e51b8152600401610487906152ca565b6000846001600160a01b031663b248c4ef6040518163ffffffff1660e01b815260040160206040518083038186803b158015610a6b57600080fd5b505afa158015610a7f573d6000803e3d6000fd5b505050506040513d601f19601f82011682018060405250810190610aa39190614827565b9050610ab7816001600160a01b0316613069565b610ad35760405162461bcd60e51b8152600401610487906154d2565b610adb61306f565b610ae3613118565b61013280546001600160a01b03199081166001600160a01b038c811691909117909255610133805482168b84161790819055610130805483168b8516179055610131805483168a85161790556101348054831689851617905561013580548316858516179055610136805483168885161790556101378054909216868416179091556040805163313ce56760e01b81529051919092169163313ce567916004808301926020929190829003018186803b158015610b9f57600080fd5b505afa158015610bb3573d6000803e3d6000fd5b505050506040513d601f19601f82011682018060405250810190610bd79190615069565b61013160146101000a81548160ff021916908360ff160217905550508015610c05576000805461ff00191690555b5050505050505050565b610c17612c79565b6001600160a01b0316610c286114cb565b6001600160a01b031614610c6c576040805162461bcd60e51b8152602060048201526006602482015265534f5f434e4f60d01b604482015290519081900360640190fd5b610c746131b5565b565b6040805180820190915260058152640322e302e360dc1b602082015290565b610130546001600160a01b031690565b60fd546001600160a01b038281169116145b919050565b610134546040516380f57f1160e01b815260009182916001600160a01b03909116906380f57f1190610cf290869060040161508a565b60206040518083038186803b158015610d0a57600080fd5b505afa158015610d1e573d6000803e3d6000fd5b505050506040513d601f19601f82011682018060405250810190610d429190614b12565b6101365460405163bba85bcf60e01b8152919250600091829182916001600160a01b039091169063bba85bcf90610d7d90899060040161508a565b60606040518083038186803b158015610d9557600080fd5b505afa158015610da9573d6000803e3d6000fd5b505050506040513d601f19601f82011682018060405250810190610dcd9190614b9d565b6101335460405163f8b2cb4f60e01b81529396509194509250600091610e6e916001600160a01b03169063f8b2cb4f90610e0b908b9060040161508a565b60206040518083038186803b158015610e2357600080fd5b505afa158015610e37573d6000803e3d6000fd5b505050506040513d601f19601f82011682018060405250810190610e5b9190614b12565b61013154600160a01b900460ff16613255565b9050610e98610e7c8361326b565b610e928581610e8b898b6132b7565b869061331c565b9061331c565b979650505050505050565b60995460ff1690565b610136546001600160a01b031690565b6066546001600160a01b031690565b610ed3612c79565b6001600160a01b0316610ee46114cb565b6001600160a01b031614610f28576040805162461bcd60e51b8152602060048201526006602482015265534f5f434e4f60d01b604482015290519081900360640190fd5b6065546040516000916001600160a01b0316906000805160206159a5833981519152908390a3606580546001600160a01b0319908116909155606680549091169055565b610f74610ea3565b15610fb9576040805162461bcd60e51b815260206004820152601060248201526f14185d5cd8589b194e881c185d5cd95960821b604482015290519081900360640190fd5b60026001541415610fff576040805162461bcd60e51b815260206004820152601f60248201526000805160206158ce833981519152604482015290519081900360640190fd5b6002600181905550611045848484848080602002602001604051908101604052809392919081815260200183836020028082843760009201919091525061338192505050565b5050600180555050565b611057612c79565b6001600160a01b03166110686114cb565b6001600160a01b0316146110ac576040805162461bcd60e51b8152602060048201526006602482015265534f5f434e4f60d01b604482015290519081900360640190fd5b610c7461375d565b6110bc610ea3565b15611101576040805162461bcd60e51b815260206004820152601060248201526f14185d5cd8589b194e881c185d5cd95960821b604482015290519081900360640190fd5b60026001541415611147576040805162461bcd60e51b815260206004820152601f60248201526000805160206158ce833981519152604482015290519081900360640190fd5b60026001556101365460405163659e3dc760e11b81526001600160a01b039091169063cb3c7b8e9061117d90859060040161508a565b60206040518083038186803b15801561119557600080fd5b505afa1580156111a9573d6000803e3d6000fd5b505050506040513d601f19601f820116820180604052508101906111cd9190614ada565b156111ea5760405162461bcd60e51b815260040161048790615477565b6101365460405163f75c266d60e01b81526001600160a01b039091169063f75c266d9061121b90859060040161508a565b60206040518083038186803b15801561123357600080fd5b505afa158015611247573d6000803e3d6000fd5b505050506040513d601f19601f8201168201806040525081019061126b9190614b12565b61127483610cbc565b126112915760405162461bcd60e51b81526004016104879061528b565b61129b8282612c88565b50604080516060810182526001600160a01b0380851682528316602082015260009181018290526112cb90612e46565b9050600061136c61013260009054906101000a90046001600160a01b03166001600160a01b031663fedf924b6040518163ffffffff1660e01b815260040160206040518083038186803b15801561132157600080fd5b505afa158015611335573d6000803e3d6000fd5b505050506040513d601f19601f82011682018060405250810190611359919061504d565b61136684606001516137e0565b90612f66565b610136549091506001600160a01b031663874044f38561138b84613809565b6040518363ffffffff1660e01b81526004016113a892919061513b565b600060405180830381600087803b1580156113c257600080fd5b505af11580156113d6573d6000803e3d6000fd5b5050505060006113e4612c79565b610136549091506001600160a01b031663874044f3826114038561326b565b6040518363ffffffff1660e01b815260040161142092919061513b565b600060405180830381600087803b15801561143a57600080fd5b505af115801561144e573d6000803e3d6000fd5b50505050836001600160a01b0316856001600160a01b03167fd9aced30440caca81570436bc942f816cfd95a3f08f700a2aeb6334c7cb5b49761149486606001516137e0565b86516040516114a892919088908890615811565b60405180910390a3505060018055505050565b610133546001600160a01b031690565b6065546001600160a01b031690565b610132546001600160a01b031690565b610131546001600160a01b031690565b610135546001600160a01b031690565b600080611515610ea3565b1561155a576040805162461bcd60e51b815260206004820152601060248201526f14185d5cd8589b194e881c185d5cd95960821b604482015290519081900360640190fd5b600260015414156115a0576040805162461bcd60e51b815260206004820152601f60248201526000805160206158ce833981519152604482015290519081900360640190fd5b600260015560a0830151806115b3612c75565b11156115d15760405162461bcd60e51b815260040161048790615532565b60006115db612c79565b610136548651604051633f1cdc8560e21b81529293506001600160a01b039091169163fc737214916116129185919060040161509e565b600060405180830381600087803b15801561162c57600080fd5b505af1158015611640573d6000803e3d6000fd5b50505050611652818660000151612c88565b5060006116c66040518060e00160405280846001600160a01b0316815260200188600001516001600160a01b03168152602001886020015115158152602001886040015115158152602001600015158152602001886060015181526020018860c001516001600160a01b031681525061381d565b905061170f6040518060a0016040528088602001511515815260200188604001511515815260200183600001518152602001836020015181526020018860800151815250612f82565b60e0860151156117485760e08601516040517f09a07769667a46c2b89124a4d731c76fb5203061073aec16319ba9c6a79a324890600090a25b80516020909101516001805590969095509350505050565b6066546001600160a01b03166117a5576040805162461bcd60e51b81526020600482015260056024820152640534f5f43360dc1b604482015290519081900360640190fd5b6117ad612c79565b6066546001600160a01b039081169116146117f8576040805162461bcd60e51b8152602060048201526006602482015265534f5f434e4360d01b604482015290519081900360640190fd5b6066546065546040516001600160a01b0392831692909116906000805160206159a583398151915290600090a360668054606580546001600160a01b03199081166001600160a01b03841617909155169055565b6118546146a4565b61185c610ea3565b156118a1576040805162461bcd60e51b815260206004820152601060248201526f14185d5cd8589b194e881c185d5cd95960821b604482015290519081900360640190fd5b600260015414156118e7576040805162461bcd60e51b815260206004820152601f60248201526000805160206158ce833981519152604482015290519081900360640190fd5b6002600155610100820135806118fb612c75565b11156119195760405162461bcd60e51b815260040161048790615532565b61192a610100840160e08501614abe565b156119475760405162461bcd60e51b8152600401610487906153f4565b6000611951612c79565b610136549091506001600160a01b031663fc73721482611974602088018861480b565b6040518363ffffffff1660e01b815260040161199192919061509e565b600060405180830381600087803b1580156119ab57600080fd5b505af11580156119bf573d6000803e3d6000fd5b50600092506119d991508390506104ad602088018861480b565b610135546040805160e081019091526001600160a01b0385811682529293506000929091169063e8ab2fb390602080820190611a17908b018b61480b565b6001600160a01b031681526020018960200135815260200189604001358152602001896060016020810190611a4c9190614af6565b60020b8152602001611a6460a08b0160808c01614af6565b60020b8152602001858152506040518263ffffffff1660e01b8152600401611a8c919061565c565b608060405180830381600087803b158015611aa657600080fd5b505af1158015611aba573d6000803e3d6000fd5b505050506040513d601f19601f82011682018060405250810190611ade9190614c45565b90508560a00135816000015110158015611b0057508560c00135816020015110155b611b1c5760405162461bcd60e51b8152600401610487906153d3565b611b2d610100870160e08801614abe565b15611eda5780516020820151901515901515811415611b5e5760405162461bcd60e51b8152600401610487906155f6565b610136546000906001600160a01b0316636332fef686611b8160208c018c61480b565b6040518363ffffffff1660e01b8152600401611b9e92919061509e565b60606040518083038186803b158015611bb657600080fd5b505afa158015611bca573d6000803e3d6000fd5b505050506040513d601f19601f82011682018060405250810190611bee9190614cba565b90506000808315611c54578451611c049061326b565b83511215611c245760405162461bcd60e51b815260040161048790615593565b8451611c2f90613809565b83516020850151919350611c4d91611c479085613c28565b90613cd1565b9050611cac565b611c61856020015161326b565b83602001511215611c845760405162461bcd60e51b8152600401610487906155b4565b611c918560200151613809565b60208401518451919250611ca991611c479084613c28565b91505b610135546001600160a01b031663b0c04174611cfa89611ccf60208f018f61480b565b8e6060016020810190611ce29190614af6565b8f6080016020810190611cf59190614af6565b613d89565b84846040518463ffffffff1660e01b8152600401611d1a939291906151a5565b600060405180830381600087803b158015611d3457600080fd5b505af1158015611d48573d6000803e3d6000fd5b505061013654600092506001600160a01b03169050633c9b5ad189611d7060208f018f61480b565b86866040518563ffffffff1660e01b8152600401611d9194939291906150dc565b6040805180830381600087803b158015611daa57600080fd5b505af1158015611dbe573d6000803e3d6000fd5b505050506040513d601f19601f82011682018060405250810190611de29190614b2a565b61013454909250600091506001600160a01b03166399e4a771611e0860208f018f61480b565b60006040518363ffffffff1660e01b8152600401611e27929190615154565b60206040518083038186803b158015611e3f57600080fd5b505afa158015611e53573d6000803e3d6000fd5b505050506040513d601f19601f82011682018060405250810190611e779190614827565b6001600160a01b03169050611e8f60208d018d61480b565b6001600160a01b0316896001600160a01b03166000805160206158ee8339815191528686600087600088604051611ecb969594939291906151ee565b60405180910390a35050505050505b6101365460408201516001600160a01b039091169063874044f3908590611f009061326b565b6040518363ffffffff1660e01b8152600401611f1d92919061513b565b600060405180830381600087803b158015611f3757600080fd5b505af1158015611f4b573d6000803e3d6000fd5b50505050611f5883613dea565b610130546001600160a01b0316611f72602088018861480b565b6001600160a01b039081169085166000805160206159ec833981519152611f9f60808b0160608c01614af6565b611faf60a08c0160808d01614af6565b8651611fba9061326b565b611fc7886020015161326b565b611fdd89606001516001600160801b0316613e5d565b8960400151604051611ff4969594939291906151bb565b60405180910390a4604051806080016040528082600001518152602001826020015181526020018260400151815260200182606001516001600160801b031681525094505050505060018055919050565b61204d610ea3565b15612092576040805162461bcd60e51b815260206004820152601060248201526f14185d5cd8589b194e881c185d5cd95960821b604482015290519081900360640190fd5b600260015414156120d8576040805162461bcd60e51b815260206004820152601f60248201526000805160206158ce833981519152604482015290519081900360640190fd5b6002600155610135546040516321b499f560e11b81526000916001600160a01b03169063436933ea90612111908690869060040161509e565b60006040518083038186803b15801561212957600080fd5b505afa15801561213d573d6000803e3d6000fd5b505050506040513d6000823e601f3d908101601f191682016040526121659190810190614a3b565b9050612172838383613381565b50506001805550565b6121836146cc565b61218b610ea3565b156121d0576040805162461bcd60e51b815260206004820152601060248201526f14185d5cd8589b194e881c185d5cd95960821b604482015290519081900360640190fd5b60026001541415612216576040805162461bcd60e51b815260206004820152601f60248201526000805160206158ce833981519152604482015290519081900360640190fd5b600260015560c082013580612229612c75565b11156122475760405162461bcd60e51b815260040161048790615532565b6000612251612c79565b9050612264816104ad602087018761480b565b50610135546040805160a081019091526001600160a01b0383811682526000921690635b778b9d9060208082019061229e908a018a61480b565b6001600160a01b031681526020018860200160208101906122bf9190614af6565b60020b81526020016122d760608a0160408b01614af6565b60020b81526020016122ef60808a0160608b01615031565b6001600160801b03168152506040518263ffffffff1660e01b8152600401612317919061572e565b60a060405180830381600087803b15801561233157600080fd5b505af1158015612345573d6000803e3d6000fd5b505050506040513d601f19601f820116820180604052508101906123699190614ead565b905060006123848361237e602089018961480b565b84613ea0565b905085608001358260000151101580156123a657508560a00135826020015110155b6123c25760405162461bcd60e51b8152600401610487906153d3565b610130546001600160a01b03166123dc602088018861480b565b6001600160a01b039081169085166000805160206159ec83398151915261240960408b0160208c01614af6565b61241960608c0160408d01614af6565b875161242490613809565b6124318960200151613809565b6124558e60600160208101906124479190615031565b6001600160801b0316613fef565b8a6040015160405161246c969594939291906151bb565b60405180910390a4610136546000906001600160a01b031663d50d01b78561249760208b018b61480b565b6040518363ffffffff1660e01b81526004016124b492919061509e565b60206040518083038186803b1580156124cc57600080fd5b505afa1580156124e0573d6000803e3d6000fd5b505050506040513d601f19601f820116820180604052508101906125049190614b12565b610134549091506000906001600160a01b03166399e4a77161252960208b018b61480b565b60006040518363ffffffff1660e01b8152600401612548929190615154565b60206040518083038186803b15801561256057600080fd5b505afa158015612574573d6000803e3d6000fd5b505050506040513d601f19601f820116820180604052508101906125989190614827565b6001600160a01b031690506125b0602089018961480b565b6001600160a01b0316856001600160a01b03166000805160206158ee8339815191528660600151876080015160008789886040516125f3969594939291906151ee565b60405180910390a3505060408051606081018252835181526020808501519082015292810151908301525060018055949350505050565b60fd546001600160a01b031690565b610135546001600160a01b031633146126645760405162461bcd60e51b8152600401610487906154f3565b600061267282840184614da1565b9050841561279557600081602001516001600160a01b0316630dfe16816040518163ffffffff1660e01b815260040160206040518083038186803b1580156126b957600080fd5b505afa1580156126cd573d6000803e3d6000fd5b505050506040513d601f19601f820116820180604052508101906126f19190614827565b602083015160405163a9059cbb60e01b81529192506001600160a01b0383169163a9059cbb91612725918a9060040161513b565b602060405180830381600087803b15801561273f57600080fd5b505af1158015612753573d6000803e3d6000fd5b505050506040513d601f19601f820116820180604052508101906127779190614ada565b6127935760405162461bcd60e51b815260040161048790615513565b505b83156128b657600081602001516001600160a01b031663d21220a76040518163ffffffff1660e01b815260040160206040518083038186803b1580156127da57600080fd5b505afa1580156127ee573d6000803e3d6000fd5b505050506040513d601f19601f820116820180604052508101906128129190614827565b602083015160405163a9059cbb60e01b81529192506001600160a01b0383169163a9059cbb9161284691899060040161513b565b602060405180830381600087803b15801561286057600080fd5b505af1158015612874573d6000803e3d6000fd5b505050506040513d601f19601f820116820180604052508101906128989190614ada565b6128b45760405162461bcd60e51b815260040161048790615513565b505b5050505050565b6128c5612c79565b6001600160a01b03166128d66114cb565b6001600160a01b03161461291a576040805162461bcd60e51b8152602060048201526006602482015265534f5f434e4f60d01b604482015290519081900360640190fd5b61292c816001600160a01b0316613069565b6129485760405162461bcd60e51b815260040161048790615415565b61295181614003565b6040516001600160a01b038216907f871264f4293af7d2865ae7eae628b228f4991c57cb45b39c99f0b774ebe2901890600090a250565b610136546040516357ba739b60e11b81526000916001600160a01b03169063af74e736906129ba90859060040161508a565b60006040518083038186803b1580156129d257600080fd5b505afa1580156129e6573d6000803e3d6000fd5b505050506040513d6000823e601f3d908101601f19168201604052612a0e919081019061499e565b805190915060005b81811015612a4457612a3b84848381518110612a2e57fe5b6020026020010151612c88565b50600101612a16565b50505050565b610134546001600160a01b031690565b610134546001600160a01b03163314612a855760405162461bcd60e51b8152600401610487906152ab565b600084138015612a955750600083125b80612aab5750600084128015612aab5750600083135b612ac75760405162461bcd60e51b8152600401610487906153b3565b6000612ad582840184614f15565b6040810151909150600080808813612b5e57826001600160a01b031663d21220a76040518163ffffffff1660e01b815260040160206040518083038186803b158015612b2057600080fd5b505afa158015612b34573d6000803e3d6000fd5b505050506040513d601f19601f82011682018060405250810190612b589190614827565b87612bd1565b826001600160a01b0316630dfe16816040518163ffffffff1660e01b815260040160206040518083038186803b158015612b9757600080fd5b505afa158015612bab573d6000803e3d6000fd5b505050506040513d601f19601f82011682018060405250810190612bcf9190614827565b885b91509150816001600160a01b031663a9059cbb8560400151836040518363ffffffff1660e01b8152600401612c0792919061513b565b602060405180830381600087803b158015612c2157600080fd5b505af1158015612c35573d6000803e3d6000fd5b505050506040513d601f19601f82011682018060405250810190612c599190614ada565b610c055760405162461bcd60e51b815260040161048790615513565b4290565b6000612c83614057565b905090565b612c906146ed565b61013454604051631e81ac3360e01b81526000916001600160a01b031690631e81ac3390612cc4908790879060040161509e565b606060405180830381600087803b158015612cde57600080fd5b505af1158015612cf2573d6000803e3d6000fd5b505050506040513d601f19601f82011682018060405250810190612d169190614bca565b925090508015612dd757610136546001600160a01b031663874044f385612d3c84614087565b6040518363ffffffff1660e01b8152600401612d5992919061513b565b600060405180830381600087803b158015612d7357600080fd5b505af1158015612d87573d6000803e3d6000fd5b50505050826001600160a01b0316846001600160a01b03167f733330d4aad1a878654bf888817b79bc6478013399be29fa3b8845c81305249e83604051612dce919061519c565b60405180910390a35b610136548251604051632e4586c360e01b81526001600160a01b0390921691632e4586c391612e0c91889188916004016150b8565b600060405180830381600087803b158015612e2657600080fd5b505af1158015612e3a573d6000803e3d6000fd5b50505050505b92915050565b612e4e614707565b610136548251602084015160405163165c4e2960e31b81526000936001600160a01b03169263b2e2714892612e859260040161509e565b60206040518083038186803b158015612e9d57600080fd5b505afa158015612eb1573d6000803e3d6000fd5b505050506040513d601f19601f82011682018060405250810190612ed59190614b12565b905080612ef45760405162461bcd60e51b81526004016104879061563c565b6040805160e08101825284516001600160a01b03908116825260208087015190911690820152600083139181018290526060810182905260016080820152612f5e9060a08101612f43856137e0565b815260200186604001516001600160a01b031681525061381d565b949350505050565b6000612f7b838362ffffff16620f42406140b3565b9392505050565b6080810151612f9057613055565b805115612ffb57806020015115612fce57806080015181606001511015612fc95760405162461bcd60e51b8152600401610487906155d5565b612ff6565b806080015181604001511115612ff65760405162461bcd60e51b8152600401610487906152ec565b613055565b80602001511561302d57806080015181604001511015612ff65760405162461bcd60e51b815260040161048790615572565b8060800151816060015111156130555760405162461bcd60e51b81526004016104879061534f565b50565b600061306330613069565b15905090565b3b151590565b600054610100900460ff16806130885750613088613058565b80613096575060005460ff16155b6130d15760405162461bcd60e51b815260040180806020018281038252602e815260200180615956602e913960400191505060405180910390fd5b600054610100900460ff161580156130fc576000805460ff1961ff0019909116610100171660011790555b613104614162565b8015613055576000805461ff001916905550565b600054610100900460ff16806131315750613131613058565b8061313f575060005460ff16155b61317a5760405162461bcd60e51b815260040180806020018281038252602e815260200180615956602e913960400191505060405180910390fd5b600054610100900460ff161580156131a5576000805460ff1961ff0019909116610100171660011790555b6131ad614207565b6131046142f6565b6131bd610ea3565b613205576040805162461bcd60e51b815260206004820152601460248201527314185d5cd8589b194e881b9bdd081c185d5cd95960621b604482015290519081900360640190fd5b6099805460ff191690557f5db9ee0a495bf2e6ff9c91a7834c1ba4fdd244a5e8aa4e537bd38aeae4b073aa613238612c79565b604080516001600160a01b039092168252519081900360200190a1565b6000612f7b8360ff601285900316600a0a613c28565b60006001600160ff1b038211156132b35760405162461bcd60e51b8152600401808060200182810382526028815260200180615a0c6028913960400191505060405180910390fd5b5090565b60008183038183128015906132cc5750838113155b806132e157506000831280156132e157508381135b612f7b5760405162461bcd60e51b8152600401808060200182810382526024815260200180615a346024913960400191505060405180910390fd5b60008282018183128015906133315750838112155b80613346575060008312801561334657508381125b612f7b5760405162461bcd60e51b81526004018080602001828103825260218152602001806159356021913960400191505060405180910390fd5b60006134138461013260009054906101000a90046001600160a01b03166001600160a01b031663a85494026040518163ffffffff1660e01b815260040160206040518083038186803b1580156133d657600080fd5b505afa1580156133ea573d6000803e3d6000fd5b505050506040513d601f19601f8201168201806040525081019061340e919061504d565b614393565b12806134a657506101365460405163f75c266d60e01b81526001600160a01b039091169063f75c266d9061344b90869060040161508a565b60206040518083038186803b15801561346357600080fd5b505afa158015613477573d6000803e3d6000fd5b505050506040513d601f19601f8201168201806040525081019061349b9190614b12565b6134a484610cbc565b125b6134c25760405162461bcd60e51b81526004016104879061561b565b6134cc8383612c88565b506134d561475f565b8151806134e3575050613758565b60005b8181101561374c576101355484516000916001600160a01b03169063acf718279087908590811061351357fe5b60200260200101516040518263ffffffff1660e01b8152600401613537919061519c565b6101206040518083038186803b15801561355057600080fd5b505afa158015613564573d6000803e3d6000fd5b505050506040513d601f19601f820116820180604052508101906135889190614d0e565b610135546040805160a0810182526001600160a01b038b811682528a8116602080840191909152850151600290810b8385015283860151900b606083015284516001600160801b031660808301529151635b778b9d60e01b81529394506000939190921691635b778b9d91613600919060040161572e565b60a060405180830381600087803b15801561361a57600080fd5b505af115801561362e573d6000803e3d6000fd5b505050506040513d601f19601f820116820180604052508101906136529190614ead565b805186519192506136639190614417565b85526020808201519086015161367891614417565b60208601526040808201519086015161369091614417565b6040860152606080820151908601516136a89161331c565b6060860152608080820151908601516136c09161331c565b6080860152610130546020830151604084015183516001600160a01b03938416938b811693908d16926000805160206159ec8339815191529261370290613809565b61370f8860200151613809565b8951613723906001600160801b0316613fef565b896040015160405161373a969594939291906151bb565b60405180910390a450506001016134e6565b506128b4858584613ea0565b505050565b613765610ea3565b156137aa576040805162461bcd60e51b815260206004820152601060248201526f14185d5cd8589b194e881c185d5cd95960821b604482015290519081900360640190fd5b6099805460ff191660011790557f62e78cea01bee320cd4e420270b5ea74000d11b0c9f74754ebdbfc544b05a258613238612c79565b600080821215613800576137fb6137f683614087565b614471565b612e40565b612e4082614471565b60006138148261326b565b60000392915050565b613825614707565b610134546040805160e08101825284516001600160a01b0390811682526020808701518216908301528583015115158284015260608087015115159083015260808087015115159083015260a0808701519083015260c08087015182169083015291516310c5328760e21b81526000939290921691634314ca1c916138ac916004016157a6565b61014060405180830381600087803b1580156138c757600080fd5b505af11580156138db573d6000803e3d6000fd5b505050506040513d601f19601f820116820180604052508101906138ff9190614f9e565b610136546101375460a08301519293506001600160a01b039182169263874044f3929091169061392e9061326b565b6040518363ffffffff1660e01b815260040161394b92919061513b565b600060405180830381600087803b15801561396557600080fd5b505af1158015613979573d6000803e3d6000fd5b5050505061013660009054906101000a90046001600160a01b03166001600160a01b0316633c9b5ad18460000151856020015184604001516139cc6139c1876080015161326b565b6060880151906132b7565b6040518563ffffffff1660e01b81526004016139eb94939291906150dc565b6040805180830381600087803b158015613a0457600080fd5b505af1158015613a18573d6000803e3d6000fd5b505050506040513d601f19601f82011682018060405250810190613a3c9190614b2a565b505060c081015115613aba57610136548351602085015160c08401516040516376323d0960e11b81526001600160a01b039094169363ec647a1293613a8793909290916004016150b8565b600060405180830381600087803b158015613aa157600080fd5b505af1158015613ab5573d6000803e3d6000fd5b505050505b8260800151613ace578251613ace90613dea565b610136548351602085015160405163d50d01b760e01b81526000936001600160a01b03169263d50d01b792613b059260040161509e565b60206040518083038186803b158015613b1d57600080fd5b505afa158015613b31573d6000803e3d6000fd5b505050506040513d601f19601f82011682018060405250810190613b559190614b12565b905083602001516001600160a01b031684600001516001600160a01b03166000805160206158ee833981519152846040015185606001518660800151868860c001518960e00151604051613bae969594939291906151ee565b60405180910390a3610136548451602086015160405163fa8e30af60e01b81526001600160a01b039093169263fa8e30af92613bee92909160040161509e565b600060405180830381600087803b158015613c0857600080fd5b505af1158015613c1c573d6000803e3d6000fd5b50939695505050505050565b600082613c3757506000612e40565b82600019148015613c4b5750600160ff1b82145b15613c875760405162461bcd60e51b81526004018080602001828103825260278152602001806159c56027913960400191505060405180910390fd5b82820282848281613c9457fe5b0514612f7b5760405162461bcd60e51b81526004018080602001828103825260278152602001806159c56027913960400191505060405180910390fd5b600081613d25576040805162461bcd60e51b815260206004820181905260248201527f5369676e6564536166654d6174683a206469766973696f6e206279207a65726f604482015290519081900360640190fd5b81600019148015613d395750600160ff1b83145b15613d755760405162461bcd60e51b81526004018080602001828103825260218152602001806159846021913960400191505060405180910390fd5b6000828481613d8057fe5b05949350505050565b604080516bffffffffffffffffffffffff19606096871b81166020808401919091529590961b9095166034860152600292830b60e890811b60488701529190920b901b604b8401528051602e818503018152604e9093019052815191012090565b6000613e3f8261013260009054906101000a90046001600160a01b03166001600160a01b031663543ce73a6040518163ffffffff1660e01b815260040160206040518083038186803b1580156133d657600080fd5b12156130555760405162461bcd60e51b815260040161048790615370565b80600f81900b8114610cb75760405162461bcd60e51b815260040180806020018281038252602781526020018061590e6027913960400191505060405180910390fd5b6000808260600151600014613f5f576101345460408051608080820183526001600160a01b03898116835288811660208401526060808901518486015291880151918301919091529151631393a46960e01b81529190921691631393a46991613f0c91906004016156f5565b60206040518083038186803b158015613f2457600080fd5b505afa158015613f38573d6000803e3d6000fd5b505050506040513d601f19601f82011682018060405250810190613f5c9190614b12565b90505b610136546060840151608085015160408601516001600160a01b03909316926389f9217792899289928790613f939061326b565b6040518763ffffffff1660e01b8152600401613fb496959493929190615105565b600060405180830381600087803b158015613fce57600080fd5b505af1158015613fe2573d6000803e3d6000fd5b5092979650505050505050565b6000613814826001600160801b0316613e5d565b60fd80546001600160a01b0383166001600160a01b0319909116811790915560408051918252517fa4388ecc389b1390354ae0c65a856c0d7dd4fb648419f5d3ac0b99e38f46fd119181900360200190a150565b60006014361080159061406e575061406e33610ca5565b15614082575060131936013560601c6107cb565b503390565b6000600160ff1b82136140ac5760405162461bcd60e51b81526004016104879061549b565b5060000390565b60008080600019858709868602925082811090839003039050806140e957600084116140de57600080fd5b508290049050612f7b565b8084116140f557600080fd5b6000848688096000868103871696879004966002600389028118808a02820302808a02820302808a02820302808a02820302808a02820302808a02909103029181900381900460010186841190950394909402919094039290920491909117919091029150509392505050565b600054610100900460ff168061417b575061417b613058565b80614189575060005460ff16155b6141c45760405162461bcd60e51b815260040180806020018281038252602e815260200180615956602e913960400191505060405180910390fd5b600054610100900460ff161580156141ef576000805460ff1961ff0019909116610100171660011790555b600180558015613055576000805461ff001916905550565b600054610100900460ff16806142205750614220613058565b8061422e575060005460ff16155b6142695760405162461bcd60e51b815260040180806020018281038252602e815260200180615956602e913960400191505060405180910390fd5b600054610100900460ff16158015614294576000805460ff1961ff0019909116610100171660011790555b61429c6144c8565b60006142a6612c79565b606580546001600160a01b0319166001600160a01b038316908117909155604051919250906000906000805160206159a5833981519152908290a3508015613055576000805461ff001916905550565b600054610100900460ff168061430f575061430f613058565b8061431d575060005460ff16155b6143585760405162461bcd60e51b815260040180806020018281038252602e815260200180615956602e913960400191505060405180910390fd5b600054610100900460ff16158015614383576000805460ff1961ff0019909116610100171660011790555b61438b614559565b6131046145f9565b61013354604051633ffd130360e01b81526000916001600160a01b031690633ffd1303906143c79086908690600401615173565b60206040518083038186803b1580156143df57600080fd5b505afa1580156143f3573d6000803e3d6000fd5b505050506040513d601f19601f82011682018060405250810190612f7b9190614b12565b600082820183811015612f7b576040805162461bcd60e51b815260206004820152601b60248201527f536166654d6174683a206164646974696f6e206f766572666c6f770000000000604482015290519081900360640190fd5b6000808212156132b3576040805162461bcd60e51b815260206004820181905260248201527f53616665436173743a2076616c7565206d75737420626520706f736974697665604482015290519081900360640190fd5b600054610100900460ff16806144e157506144e1613058565b806144ef575060005460ff16155b61452a5760405162461bcd60e51b815260040180806020018281038252602e815260200180615956602e913960400191505060405180910390fd5b600054610100900460ff16158015614555576000805460ff1961ff0019909116610100171660011790555b6131045b600054610100900460ff16806145725750614572613058565b80614580575060005460ff16155b6145bb5760405162461bcd60e51b815260040180806020018281038252602e815260200180615956602e913960400191505060405180910390fd5b600054610100900460ff16158015613104576000805460ff1961ff0019909116610100171660011790558015613055576000805461ff001916905550565b600054610100900460ff16806146125750614612613058565b80614620575060005460ff16155b61465b5760405162461bcd60e51b815260040180806020018281038252602e815260200180615956602e913960400191505060405180910390fd5b600054610100900460ff16158015614686576000805460ff1961ff0019909116610100171660011790555b6099805460ff191690558015613055576000805461ff001916905550565b6040518060800160405280600081526020016000815260200160008152602001600081525090565b60405180606001604052806000815260200160008152602001600081525090565b604051806040016040528060008152602001600081525090565b6040518061014001604052806000815260200160008152602001600081526020016000815260200160008152602001600081526020016000815260200160008152602001600060020b81526020016000151581525090565b6040518060a0016040528060008152602001600081526020016000815260200160008152602001600081525090565b8035610cb781615875565b8035610cb78161588a565b8051610cb78161588a565b60008083601f8401126147c0578182fd5b5081356001600160401b038111156147d6578182fd5b6020830191508360208285010111156147ee57600080fd5b9250929050565b8051610cb781615898565b8051610cb7816158a7565b60006020828403121561481c578081fd5b8135612f7b81615875565b600060208284031215614838578081fd5b8151612f7b81615875565b60008060408385031215614855578081fd5b823561486081615875565b9150602083013561487081615875565b809150509250929050565b600080600080600080600060e0888a031215614895578283fd5b87356148a081615875565b965060208801356148b081615875565b955060408801356148c081615875565b945060608801356148d081615875565b935060808801356148e081615875565b925060a08801356148f081615875565b915060c088013561490081615875565b8091505092959891949750929550565b60008060008060608587031215614925578182fd5b843561493081615875565b9350602085013561494081615875565b925060408501356001600160401b038082111561495b578384fd5b818701915087601f83011261496e578384fd5b81358181111561497c578485fd5b886020808302850101111561498f578485fd5b95989497505060200194505050565b600060208083850312156149b0578182fd5b82516001600160401b038111156149c5578283fd5b8301601f810185136149d5578283fd5b80516149e86149e382615858565b615835565b8181528381019083850185840285018601891015614a04578687fd5b8694505b83851015614a2f578051614a1b81615875565b835260019490940193918501918501614a08565b50979650505050505050565b60006020808385031215614a4d578182fd5b82516001600160401b03811115614a62578283fd5b8301601f81018513614a72578283fd5b8051614a806149e382615858565b8181528381019083850185840285018601891015614a9c578687fd5b8694505b83851015614a2f578051835260019490940193918501918501614aa0565b600060208284031215614acf578081fd5b8135612f7b8161588a565b600060208284031215614aeb578081fd5b8151612f7b8161588a565b600060208284031215614b07578081fd5b8135612f7b81615898565b600060208284031215614b23578081fd5b5051919050565b60008060408385031215614b3c578182fd5b505080516020909101519092909150565b60008060008060608587031215614b62578182fd5b843593506020850135925060408501356001600160401b03811115614b85578283fd5b614b91878288016147af565b95989497509550505050565b600080600060608486031215614bb1578081fd5b8351925060208401519150604084015190509250925092565b6000808284036060811215614bdd578283fd5b835192506040601f1982011215614bf2578182fd5b50604051604081018181106001600160401b0382111715614c0f57fe5b60409081526020858101518352940151938101939093525092909150565b60006101208284031215614c3f578081fd5b50919050565b600060808284031215614c56578081fd5b604051608081018181106001600160401b0382111715614c7257fe5b80604052508251815260208301516020820152604083015160408201526060830151614c9d816158a7565b60608201529392505050565b600060a08284031215614c3f578081fd5b600060608284031215614ccb578081fd5b604051606081018181106001600160401b0382111715614ce757fe5b80604052508251815260208301516020820152604083015160408201528091505092915050565b6000610120808385031215614d21578182fd5b614d2a81615835565b9050614d3583614800565b8152614d43602084016147f5565b6020820152614d54604084016147f5565b6040820152606083015160608201526080830151608082015260a083015160a082015260c083015160c082015260e083015160e08201526101008084015181830152508091505092915050565b600060408284031215614db2578081fd5b604051604081018181106001600160401b0382111715614dce57fe5b6040528235614ddc81615875565b81526020830135614dec81615875565b60208201529392505050565b6000610100808385031215614e0b578182fd5b604051908101906001600160401b0382118183101715614e2757fe5b81604052614e348461478e565b8152614e4260208501614799565b6020820152614e5360408501614799565b6040820152606084013560608201526080840135608082015260a084013560a0820152614e8260c0850161478e565b60c082015260e084013560e0820152809250505092915050565b600060e08284031215614c3f578081fd5b600060a08284031215614ebe578081fd5b60405160a081018181106001600160401b0382111715614eda57fe5b806040525082518152602083015160208201526040830151604082015260608301516060820152608083015160808201528091505092915050565b600060a08284031215614f26578081fd5b60405160a081018181106001600160401b0382111715614f4257fe5b6040528235614f5081615875565b81526020830135614f6081615875565b60208201526040830135614f7381615875565b60408201526060830135614f86816158bc565b60608201526080928301359281019290925250919050565b6000610140808385031215614fb1578182fd5b614fba81615835565b9050825181526020830151602082015260408301516040820152606083015160608201526080830151608082015260a083015160a082015260c083015160c082015260e083015160e08201526101006150148185016147f5565b908201526101206150268482016147a4565b908201529392505050565b600060208284031215615042578081fd5b8135612f7b816158a7565b60006020828403121561505e578081fd5b8151612f7b816158bc565b60006020828403121561507a578081fd5b815160ff81168114612f7b578182fd5b6001600160a01b0391909116815260200190565b6001600160a01b0392831681529116602082015260400190565b6001600160a01b039384168152919092166020820152604081019190915260600190565b6001600160a01b0394851681529290931660208301526040820152606081019190915260800190565b6001600160a01b03968716815294909516602085015260408401929092526060830152608082015260a081019190915260c00190565b6001600160a01b03929092168252602082015260400190565b6001600160a01b0392909216825263ffffffff16602082015260400190565b6001600160a01b0392909216825262ffffff16602082015260400190565b901515815260200190565b90815260200190565b9283526020830191909152604082015260600190565b600296870b81529490950b602085015260408401929092526060830152600f0b608082015260a081019190915260c00190565b958652602086019490945260408501929092526060840152608083015260a082015260c00190565b6000602080835283518082850152825b8181101561524257858101830151858201604001528201615226565b818111156152535783604083870101525b50601f01601f1916929092016040019392505050565b60208082526008908201526708690bea2889c62760c31b604082015260600190565b60208082526006908201526521a42fa2a0ab60d11b604082015260600190565b60208082526005908201526443485f4f4560d81b604082015260600190565b60208082526008908201526743485f4946414e4360c01b604082015260600190565b60208082526007908201526643485f544d525360c81b604082015260600190565b60208082526007908201526643485f41424e4360c81b604082015260600190565b60208082526007908201526643485f55414e4360c81b604082015260600190565b60208082526007908201526610d217d513549360ca1b604082015260600190565b60208082526008908201526743485f4e4546434960c01b604082015260600190565b60208082526007908201526643485f51414e4360c81b604082015260600190565b60208082526006908201526543485f46305360d01b604082015260600190565b60208082526007908201526621a42fa829a1a360c91b604082015260600190565b60208082526007908201526621a42fa22aaa2160c91b604082015260600190565b60208082526007908201526643485f54464e4360c81b604082015260600190565b60208082526006908201526543485f454e4360d01b604082015260600190565b60208082526007908201526643485f43434e4360c81b604082015260600190565b6020808252600a908201526943485f434c575449534f60b01b604082015260600190565b6020808252601c908201527f506572704d6174683a20696e76657273696f6e206f766572666c6f7700000000604082015260600190565b60208082526007908201526643485f4f424e4360c81b604082015260600190565b60208082526006908201526521a42fa727a160d11b604082015260600190565b60208082526005908201526421a42faa2360d91b604082015260600190565b60208082526005908201526443485f544560d81b604082015260600190565b60208082526007908201526643485f56414e4360c81b604082015260600190565b60208082526007908201526610d217d513149360ca1b604082015260600190565b60208082526007908201526643485f54424e4560c81b604082015260600190565b60208082526007908201526643485f54514e4560c81b604082015260600190565b60208082526007908201526643485f544c525360c81b604082015260600190565b6020808252600b908201526a043485f43414c57524654560ac1b604082015260600190565b60208082526007908201526643485f4e45584f60c81b604082015260600190565b60208082526006908201526521a42fa829ad60d11b604082015260600190565b60006101008201905060018060a01b03808451168352806020850151166020840152506040830151604083015260608301516060830152608083015160020b608083015260a083015160020b60a083015260c0830151805160c0840152602081015160e08401525092915050565b8151815260208083015190820152604080830151908201526060918201519181019190915260800190565b81516001600160a01b03908116825260208084015190911690820152604080830151908201526060918201519181019190915260800190565b81516001600160a01b03908116825260208084015190911690820152604080830151600290810b9183019190915260608084015190910b908201526080918201516001600160801b03169181019190915260a00190565b81518152602080830151908201526040918201519181019190915260600190565b81516001600160a01b03908116825260208084015182169083015260408084015115159083015260608084015115159083015260808084015115159083015260a0838101519083015260c092830151169181019190915260e00190565b918252602082015260400190565b938452602084019290925260408301526001600160a01b0316606082015260800190565b6040518181016001600160401b038111828210171561585057fe5b604052919050565b60006001600160401b0382111561586b57fe5b5060209081020190565b6001600160a01b038116811461305557600080fd5b801515811461305557600080fd5b8060020b811461305557600080fd5b6001600160801b038116811461305557600080fd5b62ffffff8116811461305557600080fdfe5265656e7472616e637947756172643a207265656e7472616e742063616c6c00968bc4f738eae0486dc6736c4b427dbafa4acfdf6eaf223337791ddeb3a5624753616665436173743a2076616c756520646f65736e27742066697420696e2031323820626974735369676e6564536166654d6174683a206164646974696f6e206f766572666c6f77496e697469616c697a61626c653a20636f6e747261637420697320616c726561647920696e697469616c697a65645369676e6564536166654d6174683a206469766973696f6e206f766572666c6f778be0079c531659141344cd1fd0a4f28419497f9722a3daafe3b4186f6b6457e05369676e6564536166654d6174683a206d756c7469706c69636174696f6e206f766572666c6f77cb47d8bf351d355bdd5497973533eada41777b4509f2585a62ae246336ebaa9453616665436173743a2076616c756520646f65736e27742066697420696e20616e20696e743235365369676e6564536166654d6174683a207375627472616374696f6e206f766572666c6f77a26469706673582212207ab2696ec996e460df76e8a0f6a0d6622ccedcb2f610f05a69c39b3ceeae71ed64736f6c63430007060033",
  "linkReferences": {},
  "deployedLinkReferences": {}
}