{
  "address": "0x5284472073BD090B4E208F314e2809280B2146F2",
  "abi": [
    {
      "inputs": [
        {
          "internalType": "address",
          "name": "_newSaleToken",
          "type": "address"
        },
        {
          "internalType": "address",
          "name": "_newPaymentToken",
          "type": "address"
        },
        {
          "internalType": "uint256",
          "name": "_newSaleTokenDecimals",
          "type": "uint256"
        }
      ],
      "stateMutability": "nonpayable",
      "type": "constructor"
    },
    {
      "anonymous": false,
      "inputs": [
        {
          "indexed": true,
          "internalType": "address",
          "name": "previousNominee",
          "type": "address"
        },
        {
          "indexed": true,
          "internalType": "address",
          "name": "newNominee",
          "type": "address"
        }
      ],
      "name": "NomineeUpdate",
      "type": "event"
    },
    {
      "anonymous": false,
      "inputs": [
        {
          "indexed": true,
          "internalType": "address",
          "name": "previousOwner",
          "type": "address"
        },
        {
          "indexed": true,
          "internalType": "address",
          "name": "newOwner",
          "type": "address"
        }
      ],
      "name": "OwnershipTransferred",
      "type": "event"
    },
    {
      "anonymous": false,
      "inputs": [
        {
          "indexed": false,
          "internalType": "uint256",
          "name": "newPrice",
          "type": "uint256"
        }
      ],
      "name": "PriceChange",
      "type": "event"
    },
    {
      "anonymous": false,
      "inputs": [
        {
          "indexed": true,
          "internalType": "address",
          "name": "purchaser",
          "type": "address"
        },
        {
          "indexed": true,
          "internalType": "address",
          "name": "recipient",
          "type": "address"
        },
        {
          "indexed": false,
          "internalType": "uint256",
          "name": "amount",
          "type": "uint256"
        },
        {
          "indexed": false,
          "internalType": "uint256",
          "name": "price",
          "type": "uint256"
        }
      ],
      "name": "Purchase",
      "type": "event"
    },
    {
      "anonymous": false,
      "inputs": [
        {
          "indexed": false,
          "internalType": "contract IPurchaseHook",
          "name": "newPurchaseHook",
          "type": "address"
        }
      ],
      "name": "PurchaseHookChange",
      "type": "event"
    },
    {
      "inputs": [],
      "name": "acceptOwnership",
      "outputs": [],
      "stateMutability": "nonpayable",
      "type": "function"
    },
    {
      "inputs": [],
      "name": "getNominee",
      "outputs": [
        {
          "internalType": "address",
          "name": "",
          "type": "address"
        }
      ],
      "stateMutability": "view",
      "type": "function"
    },
    {
      "inputs": [],
      "name": "getPaymentToken",
      "outputs": [
        {
          "internalType": "contract IERC20Metadata",
          "name": "",
          "type": "address"
        }
      ],
      "stateMutability": "view",
      "type": "function"
    },
    {
      "inputs": [],
      "name": "getPrice",
      "outputs": [
        {
          "internalType": "uint256",
          "name": "",
          "type": "uint256"
        }
      ],
      "stateMutability": "view",
      "type": "function"
    },
    {
      "inputs": [],
      "name": "getPurchaseHook",
      "outputs": [
        {
          "internalType": "contract IPurchaseHook",
          "name": "",
          "type": "address"
        }
      ],
      "stateMutability": "view",
      "type": "function"
    },
    {
      "inputs": [],
      "name": "getSaleToken",
      "outputs": [
        {
          "internalType": "contract IERC20Metadata",
          "name": "",
          "type": "address"
        }
      ],
      "stateMutability": "view",
      "type": "function"
    },
    {
      "inputs": [],
      "name": "owner",
      "outputs": [
        {
          "internalType": "address",
          "name": "",
          "type": "address"
        }
      ],
      "stateMutability": "view",
      "type": "function"
    },
    {
      "inputs": [
        {
          "internalType": "address",
          "name": "_recipient",
          "type": "address"
        },
        {
          "internalType": "uint256",
          "name": "_saleTokenAmount",
          "type": "uint256"
        },
        {
          "internalType": "uint256",
          "name": "_purchasePrice",
          "type": "uint256"
        },
        {
          "internalType": "bytes",
          "name": "_data",
          "type": "bytes"
        }
      ],
      "name": "purchase",
      "outputs": [],
      "stateMutability": "nonpayable",
      "type": "function"
    },
    {
      "inputs": [],
      "name": "renounceOwnership",
      "outputs": [],
      "stateMutability": "nonpayable",
      "type": "function"
    },
    {
      "inputs": [
        {
          "internalType": "uint256",
          "name": "_newPrice",
          "type": "uint256"
        }
      ],
      "name": "setPrice",
      "outputs": [],
      "stateMutability": "nonpayable",
      "type": "function"
    },
    {
      "inputs": [
        {
          "internalType": "contract IPurchaseHook",
          "name": "_newPurchaseHook",
          "type": "address"
        }
      ],
      "name": "setPurchaseHook",
      "outputs": [],
      "stateMutability": "nonpayable",
      "type": "function"
    },
    {
      "inputs": [
        {
          "internalType": "address",
          "name": "_newNominee",
          "type": "address"
        }
      ],
      "name": "transferOwnership",
      "outputs": [],
      "stateMutability": "nonpayable",
      "type": "function"
    },
    {
      "inputs": [
        {
          "internalType": "address[]",
          "name": "_erc20Tokens",
          "type": "address[]"
        },
        {
          "internalType": "uint256[]",
          "name": "_amounts",
          "type": "uint256[]"
        }
      ],
      "name": "withdrawERC20",
      "outputs": [],
      "stateMutability": "nonpayable",
      "type": "function"
    }
  ],
  "transactionHash": "0x89227bfbb41a370c78665eaf4815e5b14fe4c3b90a0018dbf0e9eac373ab5b3c",
  "args": [
    "0x70F4163Ddc830655271A5302db930Ee9B1A830F4",
    "0xD0778E8A78E95f612A95A3636141435253131103",
    18
  ],
  "numDeployments": 1,
  "solcInputHash": "e6428b844484e78043dfdcd98da5e961",
  "bytecode": "0x60e06040523480156200001157600080fd5b50604051620014d4380380620014d48339810160408190526200003491620000e5565b6200003f3362000078565b60016002556001600160601b0319606084811b821660805283901b1660a0526200006b81600a6200016f565b60c0525062000250915050565b600080546001600160a01b038381166001600160a01b0319831681178455604051919092169283917f8be0079c531659141344cd1fd0a4f28419497f9722a3daafe3b4186f6b6457e09190a35050565b80516001600160a01b0381168114620000e057600080fd5b919050565b600080600060608486031215620000fb57600080fd5b6200010684620000c8565b92506200011660208501620000c8565b9150604084015190509250925092565b600181815b80851115620001675781600019048211156200014b576200014b6200023a565b808516156200015957918102915b93841c93908002906200012b565b509250929050565b60006200017d838362000184565b9392505050565b600082620001955750600162000234565b81620001a45750600062000234565b8160018114620001bd5760028114620001c857620001e8565b600191505062000234565b60ff841115620001dc57620001dc6200023a565b50506001821b62000234565b5060208310610133831016604e8410600b84101617156200020d575081810a62000234565b62000219838362000126565b80600019048211156200023057620002306200023a565b0290505b92915050565b634e487b7160e01b600052601160045260246000fd5b60805160601c60a05160601c60c0516112406200029460003960006106d60152600081816101c201526107220152600081816101e8015261084001526112406000f3fe608060405234801561001057600080fd5b50600436106100df5760003560e01c8063b45acd2f1161008c578063d41c3a6511610066578063d41c3a65146101c0578063ec3dd116146101e6578063eea3ea3f1461020c578063f2fde38b1461021f57600080fd5b8063b45acd2f14610171578063b6ca0b6314610184578063c1867b4e146101a257600080fd5b80638da5cb5b116100bd5780638da5cb5b1461010957806391b7f5ed1461014d57806398d5fdca1461016057600080fd5b806318819022146100e4578063715018a6146100f957806379ba509714610101575b600080fd5b6100f76100f2366004610f50565b610232565b005b6100f76103b5565b6100f76103d1565b60005473ffffffffffffffffffffffffffffffffffffffff165b60405173ffffffffffffffffffffffffffffffffffffffff90911681526020015b60405180910390f35b6100f761015b366004610fde565b61048a565b600354604051908152602001610144565b6100f761017f366004610e9d565b6104ce565b60015473ffffffffffffffffffffffffffffffffffffffff16610123565b60045473ffffffffffffffffffffffffffffffffffffffff16610123565b7f0000000000000000000000000000000000000000000000000000000000000000610123565b7f0000000000000000000000000000000000000000000000000000000000000000610123565b6100f761021a366004610eba565b610549565b6100f761022d366004610e9d565b61091e565b61023a610932565b6002805414156102ab576040517f08c379a000000000000000000000000000000000000000000000000000000000815260206004820152601f60248201527f5265656e7472616e637947756172643a207265656e7472616e742063616c6c0060448201526064015b60405180910390fd5b60028055828114610318576040517f08c379a000000000000000000000000000000000000000000000000000000000815260206004820152601560248201527f4172726179206c656e677468206d69736d61746368000000000000000000000060448201526064016102a2565b6000805473ffffffffffffffffffffffffffffffffffffffff169084905b818110156103a75761039f83868684818110610354576103546111b9565b9050602002013589898581811061036d5761036d6111b9565b90506020020160208101906103829190610e9d565b73ffffffffffffffffffffffffffffffffffffffff1691906109b3565b600101610336565b505060016002555050505050565b6103bd610932565b6103c5610a45565b6103cf6000610a57565b565b60015473ffffffffffffffffffffffffffffffffffffffff163373ffffffffffffffffffffffffffffffffffffffff1614610468576040517f08c379a000000000000000000000000000000000000000000000000000000000815260206004820152601560248201527f6d73672e73656e64657220213d206e6f6d696e6565000000000000000000000060448201526064016102a2565b6001546103c59073ffffffffffffffffffffffffffffffffffffffff16610ace565b610492610932565b60038190556040518181527ff347ee99503bf19c028bd6b18f3c676e82a9bb5b2bb5225aebe0fd62fd6a0d19906020015b60405180910390a150565b6104d6610932565b600480547fffffffffffffffffffffffff00000000000000000000000000000000000000001673ffffffffffffffffffffffffffffffffffffffff83169081179091556040519081527f53d4d39686c76b484b85af8483df1f79dc1f95a60ea908543e5ef4c3a6d0bdaa906020016104c3565b6002805414156105b5576040517f08c379a000000000000000000000000000000000000000000000000000000000815260206004820152601f60248201527f5265656e7472616e637947756172643a207265656e7472616e742063616c6c0060448201526064016102a2565b600280556003548314610624576040517f08c379a000000000000000000000000000000000000000000000000000000000815260206004820152600e60248201527f5072696365206d69736d6174636800000000000000000000000000000000000060448201526064016102a2565b60045473ffffffffffffffffffffffffffffffffffffffff1680156106d2576040517f6813ced400000000000000000000000000000000000000000000000000000000815273ffffffffffffffffffffffffffffffffffffffff821690636813ced49061069f9033908a908a908a908a908a90600401611013565b600060405180830381600087803b1580156106b957600080fd5b505af11580156106cd573d6000803e3d6000fd5b505050505b60007f00000000000000000000000000000000000000000000000000000000000000006106ff8688611125565b61070991906110ea565b905073ffffffffffffffffffffffffffffffffffffffff7f0000000000000000000000000000000000000000000000000000000000000000166323b872dd336040517fffffffff0000000000000000000000000000000000000000000000000000000060e084901b16815273ffffffffffffffffffffffffffffffffffffffff909116600482015230602482015260448101849052606401602060405180830381600087803b1580156107bb57600080fd5b505af11580156107cf573d6000803e3d6000fd5b505050506040513d601f19601f820116820180604052508101906107f39190610fbc565b506040517fa9059cbb00000000000000000000000000000000000000000000000000000000815273ffffffffffffffffffffffffffffffffffffffff8881166004830152602482018890527f0000000000000000000000000000000000000000000000000000000000000000169063a9059cbb90604401602060405180830381600087803b15801561088457600080fd5b505af1158015610898573d6000803e3d6000fd5b505050506040513d601f19601f820116820180604052508101906108bc9190610fbc565b50604080518781526020810187905273ffffffffffffffffffffffffffffffffffffffff89169133917f46661dab58311a6838247afecbee792192b4f27fc8b3e7168c66bc55ec2e404e910160405180910390a3505060016002555050505050565b610926610932565b61092f81610a57565b50565b60005473ffffffffffffffffffffffffffffffffffffffff1633146103cf576040517f08c379a000000000000000000000000000000000000000000000000000000000815260206004820181905260248201527f4f776e61626c653a2063616c6c6572206973206e6f7420746865206f776e657260448201526064016102a2565b6040805173ffffffffffffffffffffffffffffffffffffffff8416602482015260448082018490528251808303909101815260649091019091526020810180517bffffffffffffffffffffffffffffffffffffffffffffffffffffffff167fa9059cbb00000000000000000000000000000000000000000000000000000000179052610a40908490610b43565b505050565b610a4d610932565b6103cf6000610ace565b6001805473ffffffffffffffffffffffffffffffffffffffff8381167fffffffffffffffffffffffff0000000000000000000000000000000000000000831681179093556040519116919082907fe7624d724357e317f51579affee5050a97c60b060e513e69aa8a1a35fb3315a790600090a35050565b6000805473ffffffffffffffffffffffffffffffffffffffff8381167fffffffffffffffffffffffff0000000000000000000000000000000000000000831681178455604051919092169283917f8be0079c531659141344cd1fd0a4f28419497f9722a3daafe3b4186f6b6457e09190a35050565b6000610ba5826040518060400160405280602081526020017f5361666545524332303a206c6f772d6c6576656c2063616c6c206661696c65648152508573ffffffffffffffffffffffffffffffffffffffff16610c4f9092919063ffffffff16565b805190915015610a405780806020019051810190610bc39190610fbc565b610a40576040517f08c379a000000000000000000000000000000000000000000000000000000000815260206004820152602a60248201527f5361666545524332303a204552433230206f7065726174696f6e20646964206e60448201527f6f7420737563636565640000000000000000000000000000000000000000000060648201526084016102a2565b6060610c5e8484600085610c68565b90505b9392505050565b606082471015610cfa576040517f08c379a000000000000000000000000000000000000000000000000000000000815260206004820152602660248201527f416464726573733a20696e73756666696369656e742062616c616e636520666f60448201527f722063616c6c000000000000000000000000000000000000000000000000000060648201526084016102a2565b73ffffffffffffffffffffffffffffffffffffffff85163b610d78576040517f08c379a000000000000000000000000000000000000000000000000000000000815260206004820152601d60248201527f416464726573733a2063616c6c20746f206e6f6e2d636f6e747261637400000060448201526064016102a2565b6000808673ffffffffffffffffffffffffffffffffffffffff168587604051610da19190610ff7565b60006040518083038185875af1925050503d8060008114610dde576040519150601f19603f3d011682016040523d82523d6000602084013e610de3565b606091505b5091509150610df3828286610dfe565b979650505050505050565b60608315610e0d575081610c61565b825115610e1d5782518084602001fd5b816040517f08c379a00000000000000000000000000000000000000000000000000000000081526004016102a29190611099565b60008083601f840112610e6357600080fd5b50813567ffffffffffffffff811115610e7b57600080fd5b6020830191508360208260051b8501011115610e9657600080fd5b9250929050565b600060208284031215610eaf57600080fd5b8135610c61816111e8565b600080600080600060808688031215610ed257600080fd5b8535610edd816111e8565b94506020860135935060408601359250606086013567ffffffffffffffff80821115610f0857600080fd5b818801915088601f830112610f1c57600080fd5b813581811115610f2b57600080fd5b896020828501011115610f3d57600080fd5b9699959850939650602001949392505050565b60008060008060408587031215610f6657600080fd5b843567ffffffffffffffff80821115610f7e57600080fd5b610f8a88838901610e51565b90965094506020870135915080821115610fa357600080fd5b50610fb087828801610e51565b95989497509550505050565b600060208284031215610fce57600080fd5b81518015158114610c6157600080fd5b600060208284031215610ff057600080fd5b5035919050565b60008251611009818460208701611189565b9190910192915050565b600073ffffffffffffffffffffffffffffffffffffffff808916835280881660208401525085604083015284606083015260a060808301528260a0830152828460c0840137600060c0848401015260c07fffffffffffffffffffffffffffffffffffffffffffffffffffffffffffffffe0601f8501168301019050979650505050505050565b60208152600082518060208401526110b8816040850160208701611189565b601f017fffffffffffffffffffffffffffffffffffffffffffffffffffffffffffffffe0169190910160400192915050565b600082611120577f4e487b7100000000000000000000000000000000000000000000000000000000600052601260045260246000fd5b500490565b6000817fffffffffffffffffffffffffffffffffffffffffffffffffffffffffffffffff0483118215151615611184577f4e487b7100000000000000000000000000000000000000000000000000000000600052601160045260246000fd5b500290565b60005b838110156111a457818101518382015260200161118c565b838111156111b3576000848401525b50505050565b7f4e487b7100000000000000000000000000000000000000000000000000000000600052603260045260246000fd5b73ffffffffffffffffffffffffffffffffffffffff8116811461092f57600080fdfea26469706673582212207ceb9fb3113d797889c68075114d1a7a78135266483b6b4c9527723385fbad5664736f6c63430008070033",
  "devdoc": {
    "kind": "dev",
    "methods": {
      "acceptOwnership()": {
        "details": "Only callable by the current nominee. Sets nominee back to zero address."
      },
      "getNominee()": {
        "returns": {
          "_0": "The current nominee"
        }
      },
      "getPaymentToken()": {
        "returns": {
          "_0": "The ERC20 token used for payment"
        }
      },
      "getPrice()": {
        "returns": {
          "_0": "The fixed price of sale token in terms of payment token"
        }
      },
      "getPurchaseHook()": {
        "returns": {
          "_0": "The purchase hook contract"
        }
      },
      "getSaleToken()": {
        "returns": {
          "_0": "The ERC20 token being sold"
        }
      },
      "owner()": {
        "details": "Returns the address of the current owner."
      }
    },
    "version": 1
  },
  "userdoc": {
    "kind": "user",
    "methods": {
      "acceptOwnership()": {
        "notice": "Accepts ownership nomination."
      }
    },
    "version": 1
  },
  "storageLayout": {
    "storage": [
      {
        "astId": 3334,
        "contract": "contracts/mini-sales/MiniSales.sol:MiniSales",
        "label": "_owner",
        "offset": 0,
        "slot": "0",
        "type": "t_address"
      },
      {
        "astId": 47096,
        "contract": "contracts/mini-sales/MiniSales.sol:MiniSales",
        "label": "_nominee",
        "offset": 0,
        "slot": "1",
        "type": "t_address"
      },
      {
        "astId": 4312,
        "contract": "contracts/mini-sales/MiniSales.sol:MiniSales",
        "label": "_status",
        "offset": 0,
        "slot": "2",
        "type": "t_uint256"
      },
      {
        "astId": 11267,
        "contract": "contracts/mini-sales/MiniSales.sol:MiniSales",
        "label": "_price",
        "offset": 0,
        "slot": "3",
        "type": "t_uint256"
      },
      {
        "astId": 11270,
        "contract": "contracts/mini-sales/MiniSales.sol:MiniSales",
        "label": "_purchaseHook",
        "offset": 0,
        "slot": "4",
        "type": "t_contract(IPurchaseHook)11584"
      }
    ],
    "types": {
      "t_address": {
        "encoding": "inplace",
        "label": "address",
        "numberOfBytes": "20"
      },
      "t_contract(IPurchaseHook)11584": {
        "encoding": "inplace",
        "label": "contract IPurchaseHook",
        "numberOfBytes": "20"
      },
      "t_uint256": {
        "encoding": "inplace",
        "label": "uint256",
        "numberOfBytes": "32"
      }
    }
  }
}