{
  "address": "0x831AFB428d3a8aD7e2316753cc0Ac3bb3DF883cB",
  "abi": [
    {
      "inputs": [],
      "stateMutability": "nonpayable",
      "type": "constructor"
    },
    {
      "anonymous": false,
      "inputs": [
        {
          "indexed": false,
          "internalType": "contract IAccountList",
          "name": "newAllowlist",
          "type": "address"
        }
      ],
      "name": "AllowlistChange",
      "type": "event"
    },
    {
      "anonymous": false,
      "inputs": [
        {
          "indexed": true,
          "internalType": "address",
          "name": "previousNominee",
          "type": "address"
        },
        {
          "indexed": true,
          "internalType": "address",
          "name": "newNominee",
          "type": "address"
        }
      ],
      "name": "NomineeUpdate",
      "type": "event"
    },
    {
      "anonymous": false,
      "inputs": [
        {
          "indexed": true,
          "internalType": "address",
          "name": "previousOwner",
          "type": "address"
        },
        {
          "indexed": true,
          "internalType": "address",
          "name": "newOwner",
          "type": "address"
        }
      ],
      "name": "OwnershipTransferred",
      "type": "event"
    },
    {
      "inputs": [],
      "name": "acceptOwnership",
      "outputs": [],
      "stateMutability": "nonpayable",
      "type": "function"
    },
    {
      "inputs": [],
      "name": "getAllowlist",
      "outputs": [
        {
          "internalType": "contract IAccountList",
          "name": "",
          "type": "address"
        }
      ],
      "stateMutability": "view",
      "type": "function"
    },
    {
      "inputs": [],
      "name": "getNominee",
      "outputs": [
        {
          "internalType": "address",
          "name": "",
          "type": "address"
        }
      ],
      "stateMutability": "view",
      "type": "function"
    },
    {
      "inputs": [
        {
          "internalType": "address",
          "name": "_purchaser",
          "type": "address"
        },
        {
          "internalType": "address",
          "name": "_recipient",
          "type": "address"
        },
        {
          "internalType": "uint256",
          "name": "_amount",
          "type": "uint256"
        },
        {
          "internalType": "uint256",
          "name": "_price",
          "type": "uint256"
        },
        {
          "internalType": "bytes",
          "name": "_data",
          "type": "bytes"
        }
      ],
      "name": "hook",
      "outputs": [],
      "stateMutability": "nonpayable",
      "type": "function"
    },
    {
      "inputs": [],
      "name": "owner",
      "outputs": [
        {
          "internalType": "address",
          "name": "",
          "type": "address"
        }
      ],
      "stateMutability": "view",
      "type": "function"
    },
    {
      "inputs": [],
      "name": "renounceOwnership",
      "outputs": [],
      "stateMutability": "nonpayable",
      "type": "function"
    },
    {
      "inputs": [
        {
          "internalType": "contract IAccountList",
          "name": "_newAllowlist",
          "type": "address"
        }
      ],
      "name": "setAllowlist",
      "outputs": [],
      "stateMutability": "nonpayable",
      "type": "function"
    },
    {
      "inputs": [
        {
          "internalType": "address",
          "name": "_newNominee",
          "type": "address"
        }
      ],
      "name": "transferOwnership",
      "outputs": [],
      "stateMutability": "nonpayable",
      "type": "function"
    }
  ],
  "transactionHash": "0xf61e67804d109a5f95059b711ee99441855c7783b156f20f8271359343672398",
  "args": [],
  "numDeployments": 1,
  "solcInputHash": "98c20857f2b957ca344caf2e1b2d45f4",
  "bytecode": "0x608060405234801561001057600080fd5b5061001a3361001f565b61006f565b600080546001600160a01b038381166001600160a01b0319831681178455604051919092169283917f8be0079c531659141344cd1fd0a4f28419497f9722a3daafe3b4186f6b6457e09190a35050565b61069e8061007e6000396000f3fe608060405234801561001057600080fd5b50600436106100885760003560e01c80638da5cb5b1161005b5780638da5cb5b146100c5578063b6ca0b6314610108578063c5eff3d014610126578063f2fde38b1461014457600080fd5b806358bf3c7f1461008d5780636813ced4146100a2578063715018a6146100b557806379ba5097146100bd575b600080fd5b6100a061009b366004610556565b610157565b005b6100a06100b036600461057a565b6101d8565b6100a06102ee565b6100a061030a565b60005473ffffffffffffffffffffffffffffffffffffffff165b60405173ffffffffffffffffffffffffffffffffffffffff909116815260200160405180910390f35b60015473ffffffffffffffffffffffffffffffffffffffff166100df565b60025473ffffffffffffffffffffffffffffffffffffffff166100df565b6100a0610152366004610556565b6103c3565b61015f6103d7565b600280547fffffffffffffffffffffffff00000000000000000000000000000000000000001673ffffffffffffffffffffffffffffffffffffffff83169081179091556040519081527f4b7ae0bfa9ee2ccf7c1d19931b772d3060ff246c77dc5b2a96c18e05308daf219060200160405180910390a150565b6002546040517f26c9ffa800000000000000000000000000000000000000000000000000000000815273ffffffffffffffffffffffffffffffffffffffff8781166004830152909116906326c9ffa89060240160206040518083038186803b15801561024357600080fd5b505afa158015610257573d6000803e3d6000fd5b505050506040513d601f19601f8201168201806040525081019061027b9190610624565b6102e6576040517f08c379a000000000000000000000000000000000000000000000000000000000815260206004820152601560248201527f526563697069656e74206e6f7420616c6c6f776564000000000000000000000060448201526064015b60405180910390fd5b505050505050565b6102f66103d7565b6102fe610458565b610308600061046a565b565b60015473ffffffffffffffffffffffffffffffffffffffff163373ffffffffffffffffffffffffffffffffffffffff16146103a1576040517f08c379a000000000000000000000000000000000000000000000000000000000815260206004820152601560248201527f6d73672e73656e64657220213d206e6f6d696e6565000000000000000000000060448201526064016102dd565b6001546102fe9073ffffffffffffffffffffffffffffffffffffffff166104e1565b6103cb6103d7565b6103d48161046a565b50565b60005473ffffffffffffffffffffffffffffffffffffffff163314610308576040517f08c379a000000000000000000000000000000000000000000000000000000000815260206004820181905260248201527f4f776e61626c653a2063616c6c6572206973206e6f7420746865206f776e657260448201526064016102dd565b6104606103d7565b61030860006104e1565b6001805473ffffffffffffffffffffffffffffffffffffffff8381167fffffffffffffffffffffffff0000000000000000000000000000000000000000831681179093556040519116919082907fe7624d724357e317f51579affee5050a97c60b060e513e69aa8a1a35fb3315a790600090a35050565b6000805473ffffffffffffffffffffffffffffffffffffffff8381167fffffffffffffffffffffffff0000000000000000000000000000000000000000831681178455604051919092169283917f8be0079c531659141344cd1fd0a4f28419497f9722a3daafe3b4186f6b6457e09190a35050565b60006020828403121561056857600080fd5b813561057381610646565b9392505050565b60008060008060008060a0878903121561059357600080fd5b863561059e81610646565b955060208701356105ae81610646565b94506040870135935060608701359250608087013567ffffffffffffffff808211156105d957600080fd5b818901915089601f8301126105ed57600080fd5b8135818111156105fc57600080fd5b8a602082850101111561060e57600080fd5b6020830194508093505050509295509295509295565b60006020828403121561063657600080fd5b8151801515811461057357600080fd5b73ffffffffffffffffffffffffffffffffffffffff811681146103d457600080fdfea2646970667358221220102499047b4b969044b089faeeedb910d6695190dce9fd60d20ce3e8afdb3e4d64736f6c63430008070033",
  "devdoc": {
    "kind": "dev",
    "methods": {
      "acceptOwnership()": {
        "details": "Only callable by the current nominee. Sets nominee back to zero address."
      },
      "getAllowlist()": {
        "returns": {
          "_0": "The allowlist contract"
        }
      },
      "getNominee()": {
        "returns": {
          "_0": "The current nominee"
        }
      },
      "owner()": {
        "details": "Returns the address of the current owner."
      }
    },
    "version": 1
  },
  "userdoc": {
    "kind": "user",
    "methods": {
      "acceptOwnership()": {
        "notice": "Accepts ownership nomination."
      }
    },
    "version": 1
  },
  "storageLayout": {
    "storage": [
      {
        "astId": 3334,
        "contract": "contracts/mini-sales/AllowlistPurchaseHook.sol:AllowlistPurchaseHook",
        "label": "_owner",
        "offset": 0,
        "slot": "0",
        "type": "t_address"
      },
      {
        "astId": 46994,
        "contract": "contracts/mini-sales/AllowlistPurchaseHook.sol:AllowlistPurchaseHook",
        "label": "_nominee",
        "offset": 0,
        "slot": "1",
        "type": "t_address"
      },
      {
        "astId": 11193,
        "contract": "contracts/mini-sales/AllowlistPurchaseHook.sol:AllowlistPurchaseHook",
        "label": "_allowlist",
        "offset": 0,
        "slot": "2",
        "type": "t_contract(IAccountList)44899"
      }
    ],
    "types": {
      "t_address": {
        "encoding": "inplace",
        "label": "address",
        "numberOfBytes": "20"
      },
      "t_contract(IAccountList)44899": {
        "encoding": "inplace",
        "label": "contract IAccountList",
        "numberOfBytes": "20"
      }
    }
  }
}