{
  "address": "0x882DEb54De4D6DDF04405B2F0bf0c731E728fF35",
  "abi": [
    {
      "inputs": [],
      "stateMutability": "nonpayable",
      "type": "constructor"
    },
    {
      "anonymous": false,
      "inputs": [
        {
          "indexed": true,
          "internalType": "address",
          "name": "previousNominee",
          "type": "address"
        },
        {
          "indexed": true,
          "internalType": "address",
          "name": "newNominee",
          "type": "address"
        }
      ],
      "name": "NomineeUpdate",
      "type": "event"
    },
    {
      "anonymous": false,
      "inputs": [
        {
          "indexed": true,
          "internalType": "address",
          "name": "previousOwner",
          "type": "address"
        },
        {
          "indexed": true,
          "internalType": "address",
          "name": "newOwner",
          "type": "address"
        }
      ],
      "name": "OwnershipTransferred",
      "type": "event"
    },
    {
      "inputs": [],
      "name": "acceptOwnership",
      "outputs": [],
      "stateMutability": "nonpayable",
      "type": "function"
    },
    {
      "inputs": [],
      "name": "getNominee",
      "outputs": [
        {
          "internalType": "address",
          "name": "",
          "type": "address"
        }
      ],
      "stateMutability": "view",
      "type": "function"
    },
    {
      "inputs": [
        {
          "internalType": "address",
          "name": "_account",
          "type": "address"
        }
      ],
      "name": "isIncluded",
      "outputs": [
        {
          "internalType": "bool",
          "name": "",
          "type": "bool"
        }
      ],
      "stateMutability": "view",
      "type": "function"
    },
    {
      "inputs": [],
      "name": "owner",
      "outputs": [
        {
          "internalType": "address",
          "name": "",
          "type": "address"
        }
      ],
      "stateMutability": "view",
      "type": "function"
    },
    {
      "inputs": [],
      "name": "renounceOwnership",
      "outputs": [],
      "stateMutability": "nonpayable",
      "type": "function"
    },
    {
      "inputs": [
        {
          "internalType": "address[]",
          "name": "_newIncludedAccounts",
          "type": "address[]"
        }
      ],
      "name": "reset",
      "outputs": [],
      "stateMutability": "nonpayable",
      "type": "function"
    },
    {
      "inputs": [
        {
          "internalType": "address[]",
          "name": "_accounts",
          "type": "address[]"
        },
        {
          "internalType": "bool[]",
          "name": "_included",
          "type": "bool[]"
        }
      ],
      "name": "set",
      "outputs": [],
      "stateMutability": "nonpayable",
      "type": "function"
    },
    {
      "inputs": [
        {
          "internalType": "address",
          "name": "_newNominee",
          "type": "address"
        }
      ],
      "name": "transferOwnership",
      "outputs": [],
      "stateMutability": "nonpayable",
      "type": "function"
    }
  ],
  "transactionHash": "0x2dd0f72656c7cbb2d50d7fd19d32d3b3e041fc33f6c033d641d0ed3081c8cf60",
  "args": [],
  "numDeployments": 1,
  "solcInputHash": "98c20857f2b957ca344caf2e1b2d45f4",
  "bytecode": "0x608060405234801561001057600080fd5b5061001a3361001f565b61006f565b600080546001600160a01b038381166001600160a01b0319831681178455604051919092169283917f8be0079c531659141344cd1fd0a4f28419497f9722a3daafe3b4186f6b6457e09190a35050565b61082d8061007e6000396000f3fe608060405234801561001057600080fd5b50600436106100885760003560e01c8063b6ca0b631161005b578063b6ca0b631461013a578063b916de5914610158578063bfec52e71461016b578063f2fde38b1461017e57600080fd5b806326c9ffa81461008d578063715018a6146100e957806379ba5097146100f35780638da5cb5b146100fb575b600080fd5b6100d461009b36600461065b565b600254600090815260036020908152604080832073ffffffffffffffffffffffffffffffffffffffff9094168352929052205460ff1690565b60405190151581526020015b60405180910390f35b6100f1610191565b005b6100f16101ad565b60005473ffffffffffffffffffffffffffffffffffffffff165b60405173ffffffffffffffffffffffffffffffffffffffff90911681526020016100e0565b60015473ffffffffffffffffffffffffffffffffffffffff16610115565b6100f1610166366004610698565b61026b565b6100f16101793660046106da565b610336565b6100f161018c36600461065b565b61047c565b610199610490565b6101a1610511565b6101ab6000610523565b565b60015473ffffffffffffffffffffffffffffffffffffffff163373ffffffffffffffffffffffffffffffffffffffff1614610249576040517f08c379a000000000000000000000000000000000000000000000000000000000815260206004820152601560248201527f6d73672e73656e64657220213d206e6f6d696e6565000000000000000000000060448201526064015b60405180910390fd5b6001546101a19073ffffffffffffffffffffffffffffffffffffffff1661059a565b610273610490565b6002805490600061028383610768565b919050555060005b818110156103315760025460009081526003602052604081206001918585858181106102b9576102b96107c8565b90506020020160208101906102ce919061065b565b73ffffffffffffffffffffffffffffffffffffffff168152602081019190915260400160002080547fffffffffffffffffffffffffffffffffffffffffffffffffffffffffffffff001691151591909117905561032a81610768565b905061028b565b505050565b61033e610490565b8281146103a7576040517f08c379a000000000000000000000000000000000000000000000000000000000815260206004820152601560248201527f4172726179206c656e677468206d69736d6174636800000000000000000000006044820152606401610240565b60005b83811015610475578282828181106103c4576103c46107c8565b90506020020160208101906103d99190610746565b6002546000908152600360205260408120908787858181106103fd576103fd6107c8565b9050602002016020810190610412919061065b565b73ffffffffffffffffffffffffffffffffffffffff168152602081019190915260400160002080547fffffffffffffffffffffffffffffffffffffffffffffffffffffffffffffff001691151591909117905561046e81610768565b90506103aa565b5050505050565b610484610490565b61048d81610523565b50565b60005473ffffffffffffffffffffffffffffffffffffffff1633146101ab576040517f08c379a000000000000000000000000000000000000000000000000000000000815260206004820181905260248201527f4f776e61626c653a2063616c6c6572206973206e6f7420746865206f776e65726044820152606401610240565b610519610490565b6101ab600061059a565b6001805473ffffffffffffffffffffffffffffffffffffffff8381167fffffffffffffffffffffffff0000000000000000000000000000000000000000831681179093556040519116919082907fe7624d724357e317f51579affee5050a97c60b060e513e69aa8a1a35fb3315a790600090a35050565b6000805473ffffffffffffffffffffffffffffffffffffffff8381167fffffffffffffffffffffffff0000000000000000000000000000000000000000831681178455604051919092169283917f8be0079c531659141344cd1fd0a4f28419497f9722a3daafe3b4186f6b6457e09190a35050565b60008083601f84011261062157600080fd5b50813567ffffffffffffffff81111561063957600080fd5b6020830191508360208260051b850101111561065457600080fd5b9250929050565b60006020828403121561066d57600080fd5b813573ffffffffffffffffffffffffffffffffffffffff8116811461069157600080fd5b9392505050565b600080602083850312156106ab57600080fd5b823567ffffffffffffffff8111156106c257600080fd5b6106ce8582860161060f565b90969095509350505050565b600080600080604085870312156106f057600080fd5b843567ffffffffffffffff8082111561070857600080fd5b6107148883890161060f565b9096509450602087013591508082111561072d57600080fd5b5061073a8782880161060f565b95989497509550505050565b60006020828403121561075857600080fd5b8135801515811461069157600080fd5b60007fffffffffffffffffffffffffffffffffffffffffffffffffffffffffffffffff8214156107c1577f4e487b7100000000000000000000000000000000000000000000000000000000600052601160045260246000fd5b5060010190565b7f4e487b7100000000000000000000000000000000000000000000000000000000600052603260045260246000fdfea26469706673582212206f2811b397063b6413ac178942743a7da593ec611de152ba220c340eb8bad00564736f6c63430008070033",
  "devdoc": {
    "kind": "dev",
    "methods": {
      "acceptOwnership()": {
        "details": "Only callable by the current nominee. Sets nominee back to zero address."
      },
      "getNominee()": {
        "returns": {
          "_0": "The current nominee"
        }
      },
      "owner()": {
        "details": "Returns the address of the current owner."
      }
    },
    "version": 1
  },
  "userdoc": {
    "kind": "user",
    "methods": {
      "acceptOwnership()": {
        "notice": "Accepts ownership nomination."
      }
    },
    "version": 1
  },
  "storageLayout": {
    "storage": [
      {
        "astId": 3334,
        "contract": "contracts/ppo/AccountList.sol:AccountList",
        "label": "_owner",
        "offset": 0,
        "slot": "0",
        "type": "t_address"
      },
      {
        "astId": 46994,
        "contract": "contracts/ppo/AccountList.sol:AccountList",
        "label": "_nominee",
        "offset": 0,
        "slot": "1",
        "type": "t_address"
      },
      {
        "astId": 44389,
        "contract": "contracts/ppo/AccountList.sol:AccountList",
        "label": "_resetIndex",
        "offset": 0,
        "slot": "2",
        "type": "t_uint256"
      },
      {
        "astId": 44395,
        "contract": "contracts/ppo/AccountList.sol:AccountList",
        "label": "_resetIndexToAccountToIncluded",
        "offset": 0,
        "slot": "3",
        "type": "t_mapping(t_uint256,t_mapping(t_address,t_bool))"
      }
    ],
    "types": {
      "t_address": {
        "encoding": "inplace",
        "label": "address",
        "numberOfBytes": "20"
      },
      "t_bool": {
        "encoding": "inplace",
        "label": "bool",
        "numberOfBytes": "1"
      },
      "t_mapping(t_address,t_bool)": {
        "encoding": "mapping",
        "key": "t_address",
        "label": "mapping(address => bool)",
        "numberOfBytes": "32",
        "value": "t_bool"
      },
      "t_mapping(t_uint256,t_mapping(t_address,t_bool))": {
        "encoding": "mapping",
        "key": "t_uint256",
        "label": "mapping(uint256 => mapping(address => bool))",
        "numberOfBytes": "32",
        "value": "t_mapping(t_address,t_bool)"
      },
      "t_uint256": {
        "encoding": "inplace",
        "label": "uint256",
        "numberOfBytes": "32"
      }
    }
  }
}