{"abi":[{"inputs":[{"internalType":"address","name":"lendingPoolAddress","type":"address"},{"internalType":"address","name":"wethAddress","type":"address"}],"stateMutability":"nonpayable","type":"constructor","name":"constructor"},{"inputs":[],"name":"BACKD_REFERRAL_CODE","outputs":[{"internalType":"uint16","name":"","type":"uint16"}],"stateMutability":"view","type":"function"},{"inputs":[{"internalType":"address","name":"account","type":"address"}],"name":"getUserFactor","outputs":[{"internalType":"uint256","name":"","type":"uint256"}],"stateMutability":"view","type":"function"},{"inputs":[],"name":"lendingPool","outputs":[{"internalType":"contract ILendingPool","name":"","type":"address"}],"stateMutability":"view","type":"function"},{"inputs":[{"internalType":"address","name":"account","type":"address"},{"internalType":"address","name":"underlying","type":"address"},{"internalType":"uint256","name":"amount","type":"uint256"},{"internalType":"bool","name":"repayDebt","type":"bool"}],"name":"topUp","outputs":[{"internalType":"bool","name":"","type":"bool"}],"stateMutability":"nonpayable","type":"function"},{"inputs":[],"name":"weth","outputs":[{"internalType":"contract IWETH","name":"","type":"address"}],"stateMutability":"view","type":"function"}],"bytecode":"60c060405234801561001057600080fd5b50604051610ece380380610ece83398101604081905261002f91610062565b6001600160a01b039182166080521660a052610095565b80516001600160a01b038116811461005d57600080fd5b919050565b6000806040838503121561007557600080fd5b61007e83610046565b915061008c60208401610046565b90509250929050565b60805160a051610de56100e9600039600081816087015281816101e3015261025701526000818160e20152818161014b0152818161029b015281816103930152818161052901526106000152610de56000f3fe608060405234801561001057600080fd5b50600436106100575760003560e01c80631d0a29a01461005c5780633fc8cef31461008257806349b745e3146100c1578063a59a9973146100dd578063ce275f6c14610104575b600080fd5b61006f61006a366004610a22565b610127565b6040519081526020015b60405180910390f35b6100a97f000000000000000000000000000000000000000000000000000000000000000081565b6040516001600160a01b039091168152602001610079565b6100ca61f36a81565b60405161ffff9091168152602001610079565b6100a97f000000000000000000000000000000000000000000000000000000000000000081565b610117610112366004610a4d565b6101d1565b6040519015158152602001610079565b604051632fe4a15f60e21b81526001600160a01b03828116600483015260009182917f0000000000000000000000000000000000000000000000000000000000000000169063bf92857c9060240160c06040518083038186803b15801561018d57600080fd5b505afa1580156101a1573d6000803e3d6000fd5b505050506040513d601f19601f820116820180604052508101906101c59190610aa0565b98975050505050505050565b60006001600160a01b038416610279577f00000000000000000000000000000000000000000000000000000000000000006001600160a01b031663d0e30db0846040518263ffffffff1660e01b81526004016000604051808303818588803b15801561023c57600080fd5b505af1158015610250573d6000803e3d6000fd5b50505050507f000000000000000000000000000000000000000000000000000000000000000093505b6040516335ea6a7560e01b81526001600160a01b0385811660048301526000917f0000000000000000000000000000000000000000000000000000000000000000909116906335ea6a75906024016101806040518083038186803b1580156102e057600080fd5b505afa1580156102f4573d6000803e3d6000fd5b505050506040513d601f19601f820116820180604052508101906103189190610bc8565b60e081015160408051808201909152601e81527f756e6465726c79696e6720746f6b656e206e6f7420737570706f72746564000060208201529192506001600160a01b03166103835760405162461bcd60e51b815260040161037a9190610ce5565b60405180910390fd5b506103b86001600160a01b0386167f00000000000000000000000000000000000000000000000000000000000000008661066a565b82156105ca576101008101516040516370a0823160e01b81526001600160a01b03888116600483015260009216906370a082319060240160206040518083038186803b15801561040757600080fd5b505afa15801561041b573d6000803e3d6000fd5b505050506040513d601f19601f8201168201806040525081019061043f9190610d18565b6101208301516040516370a0823160e01b81526001600160a01b038a81166004830152929350600092909116906370a082319060240160206040518083038186803b15801561048d57600080fd5b505afa1580156104a1573d6000803e3d6000fd5b505050506040513d601f19601f820116820180604052508101906104c59190610d18565b905060006104d38383610d47565b11156105c75760008183116104e95760026104ec565b60015b60405163573ade8160e01b81526001600160a01b038a81166004830152602482018a905260ff92909216604482018190528b8316606483015292507f00000000000000000000000000000000000000000000000000000000000000009091169063573ade8190608401602060405180830381600087803b15801561056f57600080fd5b505af1158015610583573d6000803e3d6000fd5b505050506040513d601f19601f820116820180604052508101906105a79190610d18565b6105b19088610d5f565b9650866105c5576001945050505050610662565b505b50505b60405163e8eda9df60e01b81526001600160a01b03868116600483015260248201869052878116604483015261f36a60648301527f0000000000000000000000000000000000000000000000000000000000000000169063e8eda9df90608401600060405180830381600087803b15801561064457600080fd5b505af1158015610658573d6000803e3d6000fd5b5050505060019150505b949350505050565b8015806106f35750604051636eb1769f60e11b81523060048201526001600160a01b03838116602483015284169063dd62ed3e9060440160206040518083038186803b1580156106b957600080fd5b505afa1580156106cd573d6000803e3d6000fd5b505050506040513d601f19601f820116820180604052508101906106f19190610d18565b155b61075e5760405162461bcd60e51b815260206004820152603660248201527f5361666545524332303a20617070726f76652066726f6d206e6f6e2d7a65726f60448201527520746f206e6f6e2d7a65726f20616c6c6f77616e636560501b606482015260840161037a565b604080516001600160a01b038416602482015260448082018490528251808303909101815260649091019091526020810180516001600160e01b031663095ea7b360e01b1790526107b09084906107b5565b505050565b600061080a826040518060400160405280602081526020017f5361666545524332303a206c6f772d6c6576656c2063616c6c206661696c6564815250856001600160a01b03166108879092919063ffffffff16565b8051909150156107b057808060200190518101906108289190610d76565b6107b05760405162461bcd60e51b815260206004820152602a60248201527f5361666545524332303a204552433230206f7065726174696f6e20646964206e6044820152691bdd081cdd58d8d9595960b21b606482015260840161037a565b606061089684846000856108a0565b90505b9392505050565b6060824710156109015760405162461bcd60e51b815260206004820152602660248201527f416464726573733a20696e73756666696369656e742062616c616e636520666f6044820152651c8818d85b1b60d21b606482015260840161037a565b6001600160a01b0385163b6109585760405162461bcd60e51b815260206004820152601d60248201527f416464726573733a2063616c6c20746f206e6f6e2d636f6e7472616374000000604482015260640161037a565b600080866001600160a01b031685876040516109749190610d93565b60006040518083038185875af1925050503d80600081146109b1576040519150601f19603f3d011682016040523d82523d6000602084013e6109b6565b606091505b50915091506109c68282866109d1565b979650505050505050565b606083156109e0575081610899565b8251156109f05782518084602001fd5b8160405162461bcd60e51b815260040161037a9190610ce5565b6001600160a01b0381168114610a1f57600080fd5b50565b600060208284031215610a3457600080fd5b813561089981610a0a565b8015158114610a1f57600080fd5b60008060008060808587031215610a6357600080fd5b8435610a6e81610a0a565b93506020850135610a7e81610a0a565b9250604085013591506060850135610a9581610a3f565b939692955090935050565b60008060008060008060c08789031215610ab957600080fd5b865195506020870151945060408701519350606087015192506080870151915060a087015190509295509295509295565b604051610180810167ffffffffffffffff81118282101715610b1c57634e487b7160e01b600052604160045260246000fd5b60405290565b600060208284031215610b3457600080fd5b6040516020810181811067ffffffffffffffff82111715610b6557634e487b7160e01b600052604160045260246000fd5b6040529151825250919050565b80516fffffffffffffffffffffffffffffffff81168114610b9257600080fd5b919050565b805164ffffffffff81168114610b9257600080fd5b8051610b9281610a0a565b805160ff81168114610b9257600080fd5b60006101808284031215610bdb57600080fd5b610be3610aea565b610bed8484610b22565b8152610bfb60208401610b72565b6020820152610c0c60408401610b72565b6040820152610c1d60608401610b72565b6060820152610c2e60808401610b72565b6080820152610c3f60a08401610b72565b60a0820152610c5060c08401610b97565b60c0820152610c6160e08401610bac565b60e0820152610100610c74818501610bac565b90820152610120610c86848201610bac565b90820152610140610c98848201610bac565b90820152610160610caa848201610bb7565b908201529392505050565b60005b83811015610cd0578181015183820152602001610cb8565b83811115610cdf576000848401525b50505050565b6020815260008251806020840152610d04816040850160208701610cb5565b601f01601f19169190910160400192915050565b600060208284031215610d2a57600080fd5b5051919050565b634e487b7160e01b600052601160045260246000fd5b60008219821115610d5a57610d5a610d31565b500190565b600082821015610d7157610d71610d31565b500390565b600060208284031215610d8857600080fd5b815161089981610a3f565b60008251610da5818460208701610cb5565b919091019291505056fea2646970667358221220a8f9447bfbc9fd0815b1a3895d98667c766c215ba0065097fe6acafc91199d9264736f6c63430008090033","bytecodeSha1":"5e8a038bda7c0ebf1bc71367833f323cf8e95967","compiler":{"evm_version":"london","optimizer":{"enabled":true,"runs":200},"version":"0.8.9+commit.e5eed63a"},"contractName":"AaveHandler","language":"Solidity","natspec":{"kind":"dev","methods":{"getUserFactor(address)":{"notice":"Returns a factor for the user which should always be >= 1 for sufficiently         colletaralized positions and should get closer to 1 when collaterization level decreases This should be an aggregate value including all the collateral of the user","params":{"account":"account for which to get the factor"}},"topUp(address,address,uint256,bool)":{"notice":"Executes the top-up of a position.","params":{"account":"Account holding the position.","amount":"Amount to top-up by.","underlying":"Underlying for tup-up."},"returns":{"_0":"`true` if successful."}}},"version":1},"opcodes":"PUSH1 0x80 PUSH1 0x40 MSTORE CALLVALUE DUP1 ISZERO PUSH2 0x10 JUMPI PUSH1 0x0 DUP1 REVERT JUMPDEST POP PUSH1 0x4 CALLDATASIZE LT PUSH2 0x57 JUMPI PUSH1 0x0 CALLDATALOAD PUSH1 0xE0 SHR DUP1 PUSH4 0x1D0A29A0 EQ PUSH2 0x5C JUMPI DUP1 PUSH4 0x3FC8CEF3 EQ PUSH2 0x82 JUMPI DUP1 PUSH4 0x49B745E3 EQ PUSH2 0xC1 JUMPI DUP1 PUSH4 0xA59A9973 EQ PUSH2 0xDD JUMPI DUP1 PUSH4 0xCE275F6C EQ PUSH2 0x104 JUMPI JUMPDEST PUSH1 0x0 DUP1 REVERT JUMPDEST PUSH2 0x6F PUSH2 0x6A CALLDATASIZE PUSH1 0x4 PUSH2 0xA22 JUMP JUMPDEST PUSH2 0x127 JUMP JUMPDEST PUSH1 0x40 MLOAD SWAP1 DUP2 MSTORE PUSH1 0x20 ADD JUMPDEST PUSH1 0x40 MLOAD DUP1 SWAP2 SUB SWAP1 RETURN JUMPDEST PUSH2 0xA9 PUSH32 0x0 DUP2 JUMP JUMPDEST PUSH1 0x40 MLOAD PUSH1 0x1 PUSH1 0x1 PUSH1 0xA0 SHL SUB SWAP1 SWAP2 AND DUP2 MSTORE PUSH1 0x20 ADD PUSH2 0x79 JUMP JUMPDEST PUSH2 0xCA PUSH2 0xF36A DUP2 JUMP JUMPDEST PUSH1 0x40 MLOAD PUSH2 0xFFFF SWAP1 SWAP2 AND DUP2 MSTORE PUSH1 0x20 ADD PUSH2 0x79 JUMP JUMPDEST PUSH2 0xA9 PUSH32 0x0 DUP2 JUMP JUMPDEST PUSH2 0x117 PUSH2 0x112 CALLDATASIZE PUSH1 0x4 PUSH2 0xA4D JUMP JUMPDEST PUSH2 0x1D1 JUMP JUMPDEST PUSH1 0x40 MLOAD SWAP1 ISZERO ISZERO DUP2 MSTORE PUSH1 0x20 ADD PUSH2 0x79 JUMP JUMPDEST PUSH1 0x40 MLOAD PUSH4 0x2FE4A15F PUSH1 0xE2 SHL DUP2 MSTORE PUSH1 0x1 PUSH1 0x1 PUSH1 0xA0 SHL SUB DUP3 DUP2 AND PUSH1 0x4 DUP4 ADD MSTORE PUSH1 0x0 SWAP2 DUP3 SWAP2 PUSH32 0x0 AND SWAP1 PUSH4 0xBF92857C SWAP1 PUSH1 0x24 ADD PUSH1 0xC0 PUSH1 0x40 MLOAD DUP1 DUP4 SUB DUP2 DUP7 DUP1 EXTCODESIZE ISZERO DUP1 ISZERO PUSH2 0x18D JUMPI PUSH1 0x0 DUP1 REVERT JUMPDEST POP GAS STATICCALL ISZERO DUP1 ISZERO PUSH2 0x1A1 JUMPI RETURNDATASIZE PUSH1 0x0 DUP1 RETURNDATACOPY RETURNDATASIZE PUSH1 0x0 REVERT JUMPDEST POP POP POP POP PUSH1 0x40 MLOAD RETURNDATASIZE PUSH1 0x1F NOT PUSH1 0x1F DUP3 ADD AND DUP3 ADD DUP1 PUSH1 0x40 MSTORE POP DUP2 ADD SWAP1 PUSH2 0x1C5 SWAP2 SWAP1 PUSH2 0xAA0 JUMP JUMPDEST SWAP9 SWAP8 POP POP POP POP POP POP POP POP JUMP JUMPDEST PUSH1 0x0 PUSH1 0x1 PUSH1 0x1 PUSH1 0xA0 SHL SUB DUP5 AND PUSH2 0x279 JUMPI PUSH32 0x0 PUSH1 0x1 PUSH1 0x1 PUSH1 0xA0 SHL SUB AND PUSH4 0xD0E30DB0 DUP5 PUSH1 0x40 MLOAD DUP3 PUSH4 0xFFFFFFFF AND PUSH1 0xE0 SHL DUP2 MSTORE PUSH1 0x4 ADD PUSH1 0x0 PUSH1 0x40 MLOAD DUP1 DUP4 SUB DUP2 DUP6 DUP9 DUP1 EXTCODESIZE ISZERO DUP1 ISZERO PUSH2 0x23C JUMPI PUSH1 0x0 DUP1 REVERT JUMPDEST POP GAS CALL ISZERO DUP1 ISZERO PUSH2 0x250 JUMPI RETURNDATASIZE PUSH1 0x0 DUP1 RETURNDATACOPY RETURNDATASIZE PUSH1 0x0 REVERT JUMPDEST POP POP POP POP POP PUSH32 0x0 SWAP4 POP JUMPDEST PUSH1 0x40 MLOAD PUSH4 0x35EA6A75 PUSH1 0xE0 SHL DUP2 MSTORE PUSH1 0x1 PUSH1 0x1 PUSH1 0xA0 SHL SUB DUP6 DUP2 AND PUSH1 0x4 DUP4 ADD MSTORE PUSH1 0x0 SWAP2 PUSH32 0x0 SWAP1 SWAP2 AND SWAP1 PUSH4 0x35EA6A75 SWAP1 PUSH1 0x24 ADD PUSH2 0x180 PUSH1 0x40 MLOAD DUP1 DUP4 SUB DUP2 DUP7 DUP1 EXTCODESIZE ISZERO DUP1 ISZERO PUSH2 0x2E0 JUMPI PUSH1 0x0 DUP1 REVERT JUMPDEST POP GAS STATICCALL ISZERO DUP1 ISZERO PUSH2 0x2F4 JUMPI RETURNDATASIZE PUSH1 0x0 DUP1 RETURNDATACOPY RETURNDATASIZE PUSH1 0x0 REVERT JUMPDEST POP POP POP POP PUSH1 0x40 MLOAD RETURNDATASIZE PUSH1 0x1F NOT PUSH1 0x1F DUP3 ADD AND DUP3 ADD DUP1 PUSH1 0x40 MSTORE POP DUP2 ADD SWAP1 PUSH2 0x318 SWAP2 SWAP1 PUSH2 0xBC8 JUMP JUMPDEST PUSH1 0xE0 DUP2 ADD MLOAD PUSH1 0x40 DUP1 MLOAD DUP1 DUP3 ADD SWAP1 SWAP2 MSTORE PUSH1 0x1E DUP2 MSTORE PUSH32 0x756E6465726C79696E6720746F6B656E206E6F7420737570706F727465640000 PUSH1 0x20 DUP3 ADD MSTORE SWAP2 SWAP3 POP PUSH1 0x1 PUSH1 0x1 PUSH1 0xA0 SHL SUB AND PUSH2 0x383 JUMPI PUSH1 0x40 MLOAD PUSH3 0x461BCD PUSH1 0xE5 SHL DUP2 MSTORE PUSH1 0x4 ADD PUSH2 0x37A SWAP2 SWAP1 PUSH2 0xCE5 JUMP JUMPDEST PUSH1 0x40 MLOAD DUP1 SWAP2 SUB SWAP1 REVERT JUMPDEST POP PUSH2 0x3B8 PUSH1 0x1 PUSH1 0x1 PUSH1 0xA0 SHL SUB DUP7 AND PUSH32 0x0 DUP7 PUSH2 0x66A JUMP JUMPDEST DUP3 ISZERO PUSH2 0x5CA JUMPI PUSH2 0x100 DUP2 ADD MLOAD PUSH1 0x40 MLOAD PUSH4 0x70A08231 PUSH1 0xE0 SHL DUP2 MSTORE PUSH1 0x1 PUSH1 0x1 PUSH1 0xA0 SHL SUB DUP9 DUP2 AND PUSH1 0x4 DUP4 ADD MSTORE PUSH1 0x0 SWAP3 AND SWAP1 PUSH4 0x70A08231 SWAP1 PUSH1 0x24 ADD PUSH1 0x20 PUSH1 0x40 MLOAD DUP1 DUP4 SUB DUP2 DUP7 DUP1 EXTCODESIZE ISZERO DUP1 ISZERO PUSH2 0x407 JUMPI PUSH1 0x0 DUP1 REVERT JUMPDEST POP GAS STATICCALL ISZERO DUP1 ISZERO PUSH2 0x41B JUMPI RETURNDATASIZE PUSH1 0x0 DUP1 RETURNDATACOPY RETURNDATASIZE PUSH1 0x0 REVERT JUMPDEST POP POP POP POP PUSH1 0x40 MLOAD RETURNDATASIZE PUSH1 0x1F NOT PUSH1 0x1F DUP3 ADD AND DUP3 ADD DUP1 PUSH1 0x40 MSTORE POP DUP2 ADD SWAP1 PUSH2 0x43F SWAP2 SWAP1 PUSH2 0xD18 JUMP JUMPDEST PUSH2 0x120 DUP4 ADD MLOAD PUSH1 0x40 MLOAD PUSH4 0x70A08231 PUSH1 0xE0 SHL DUP2 MSTORE PUSH1 0x1 PUSH1 0x1 PUSH1 0xA0 SHL SUB DUP11 DUP2 AND PUSH1 0x4 DUP4 ADD MSTORE SWAP3 SWAP4 POP PUSH1 0x0 SWAP3 SWAP1 SWAP2 AND SWAP1 PUSH4 0x70A08231 SWAP1 PUSH1 0x24 ADD PUSH1 0x20 PUSH1 0x40 MLOAD DUP1 DUP4 SUB DUP2 DUP7 DUP1 EXTCODESIZE ISZERO DUP1 ISZERO PUSH2 0x48D JUMPI PUSH1 0x0 DUP1 REVERT JUMPDEST POP GAS STATICCALL ISZERO DUP1 ISZERO PUSH2 0x4A1 JUMPI RETURNDATASIZE PUSH1 0x0 DUP1 RETURNDATACOPY RETURNDATASIZE PUSH1 0x0 REVERT JUMPDEST POP POP POP POP PUSH1 0x40 MLOAD RETURNDATASIZE PUSH1 0x1F NOT PUSH1 0x1F DUP3 ADD AND DUP3 ADD DUP1 PUSH1 0x40 MSTORE POP DUP2 ADD SWAP1 PUSH2 0x4C5 SWAP2 SWAP1 PUSH2 0xD18 JUMP JUMPDEST SWAP1 POP PUSH1 0x0 PUSH2 0x4D3 DUP4 DUP4 PUSH2 0xD47 JUMP JUMPDEST GT ISZERO PUSH2 0x5C7 JUMPI PUSH1 0x0 DUP2 DUP4 GT PUSH2 0x4E9 JUMPI PUSH1 0x2 PUSH2 0x4EC JUMP JUMPDEST PUSH1 0x1 JUMPDEST PUSH1 0x40 MLOAD PUSH4 0x573ADE81 PUSH1 0xE0 SHL DUP2 MSTORE PUSH1 0x1 PUSH1 0x1 PUSH1 0xA0 SHL SUB DUP11 DUP2 AND PUSH1 0x4 DUP4 ADD MSTORE PUSH1 0x24 DUP3 ADD DUP11 SWAP1 MSTORE PUSH1 0xFF SWAP3 SWAP1 SWAP3 AND PUSH1 0x44 DUP3 ADD DUP2 SWAP1 MSTORE DUP12 DUP4 AND PUSH1 0x64 DUP4 ADD MSTORE SWAP3 POP PUSH32 0x0 SWAP1 SWAP2 AND SWAP1 PUSH4 0x573ADE81 SWAP1 PUSH1 0x84 ADD PUSH1 0x20 PUSH1 0x40 MLOAD DUP1 DUP4 SUB DUP2 PUSH1 0x0 DUP8 DUP1 EXTCODESIZE ISZERO DUP1 ISZERO PUSH2 0x56F JUMPI PUSH1 0x0 DUP1 REVERT JUMPDEST POP GAS CALL ISZERO DUP1 ISZERO PUSH2 0x583 JUMPI RETURNDATASIZE PUSH1 0x0 DUP1 RETURNDATACOPY RETURNDATASIZE PUSH1 0x0 REVERT JUMPDEST POP POP POP POP PUSH1 0x40 MLOAD RETURNDATASIZE PUSH1 0x1F NOT PUSH1 0x1F DUP3 ADD AND DUP3 ADD DUP1 PUSH1 0x40 MSTORE POP DUP2 ADD SWAP1 PUSH2 0x5A7 SWAP2 SWAP1 PUSH2 0xD18 JUMP JUMPDEST PUSH2 0x5B1 SWAP1 DUP9 PUSH2 0xD5F JUMP JUMPDEST SWAP7 POP DUP7 PUSH2 0x5C5 JUMPI PUSH1 0x1 SWAP5 POP POP POP POP POP PUSH2 0x662 JUMP JUMPDEST POP JUMPDEST POP POP JUMPDEST PUSH1 0x40 MLOAD PUSH4 0xE8EDA9DF PUSH1 0xE0 SHL DUP2 MSTORE PUSH1 0x1 PUSH1 0x1 PUSH1 0xA0 SHL SUB DUP7 DUP2 AND PUSH1 0x4 DUP4 ADD MSTORE PUSH1 0x24 DUP3 ADD DUP7 SWAP1 MSTORE DUP8 DUP2 AND PUSH1 0x44 DUP4 ADD MSTORE PUSH2 0xF36A PUSH1 0x64 DUP4 ADD MSTORE PUSH32 0x0 AND SWAP1 PUSH4 0xE8EDA9DF SWAP1 PUSH1 0x84 ADD PUSH1 0x0 PUSH1 0x40 MLOAD DUP1 DUP4 SUB DUP2 PUSH1 0x0 DUP8 DUP1 EXTCODESIZE ISZERO DUP1 ISZERO PUSH2 0x644 JUMPI PUSH1 0x0 DUP1 REVERT JUMPDEST POP GAS CALL ISZERO DUP1 ISZERO PUSH2 0x658 JUMPI RETURNDATASIZE PUSH1 0x0 DUP1 RETURNDATACOPY RETURNDATASIZE PUSH1 0x0 REVERT JUMPDEST POP POP POP POP PUSH1 0x1 SWAP2 POP POP JUMPDEST SWAP5 SWAP4 POP POP POP POP JUMP JUMPDEST DUP1 ISZERO DUP1 PUSH2 0x6F3 JUMPI POP PUSH1 0x40 MLOAD PUSH4 0x6EB1769F PUSH1 0xE1 SHL DUP2 MSTORE ADDRESS PUSH1 0x4 DUP3 ADD MSTORE PUSH1 0x1 PUSH1 0x1 PUSH1 0xA0 SHL SUB DUP4 DUP2 AND PUSH1 0x24 DUP4 ADD MSTORE DUP5 AND SWAP1 PUSH4 0xDD62ED3E SWAP1 PUSH1 0x44 ADD PUSH1 0x20 PUSH1 0x40 MLOAD DUP1 DUP4 SUB DUP2 DUP7 DUP1 EXTCODESIZE ISZERO DUP1 ISZERO PUSH2 0x6B9 JUMPI PUSH1 0x0 DUP1 REVERT JUMPDEST POP GAS STATICCALL ISZERO DUP1 ISZERO PUSH2 0x6CD JUMPI RETURNDATASIZE PUSH1 0x0 DUP1 RETURNDATACOPY RETURNDATASIZE PUSH1 0x0 REVERT JUMPDEST POP POP POP POP PUSH1 0x40 MLOAD RETURNDATASIZE PUSH1 0x1F NOT PUSH1 0x1F DUP3 ADD AND DUP3 ADD DUP1 PUSH1 0x40 MSTORE POP DUP2 ADD SWAP1 PUSH2 0x6F1 SWAP2 SWAP1 PUSH2 0xD18 JUMP JUMPDEST ISZERO JUMPDEST PUSH2 0x75E JUMPI PUSH1 0x40 MLOAD PUSH3 0x461BCD PUSH1 0xE5 SHL DUP2 MSTORE PUSH1 0x20 PUSH1 0x4 DUP3 ADD MSTORE PUSH1 0x36 PUSH1 0x24 DUP3 ADD MSTORE PUSH32 0x5361666545524332303A20617070726F76652066726F6D206E6F6E2D7A65726F PUSH1 0x44 DUP3 ADD MSTORE PUSH22 0x20746F206E6F6E2D7A65726F20616C6C6F77616E6365 PUSH1 0x50 SHL PUSH1 0x64 DUP3 ADD MSTORE PUSH1 0x84 ADD PUSH2 0x37A JUMP JUMPDEST PUSH1 0x40 DUP1 MLOAD PUSH1 0x1 PUSH1 0x1 PUSH1 0xA0 SHL SUB DUP5 AND PUSH1 0x24 DUP3 ADD MSTORE PUSH1 0x44 DUP1 DUP3 ADD DUP5 SWAP1 MSTORE DUP3 MLOAD DUP1 DUP4 SUB SWAP1 SWAP2 ADD DUP2 MSTORE PUSH1 0x64 SWAP1 SWAP2 ADD SWAP1 SWAP2 MSTORE PUSH1 0x20 DUP2 ADD DUP1 MLOAD PUSH1 0x1 PUSH1 0x1 PUSH1 0xE0 SHL SUB AND PUSH4 0x95EA7B3 PUSH1 0xE0 SHL OR SWAP1 MSTORE PUSH2 0x7B0 SWAP1 DUP5 SWAP1 PUSH2 0x7B5 JUMP JUMPDEST POP POP POP JUMP JUMPDEST PUSH1 0x0 PUSH2 0x80A DUP3 PUSH1 0x40 MLOAD DUP1 PUSH1 0x40 ADD PUSH1 0x40 MSTORE DUP1 PUSH1 0x20 DUP2 MSTORE PUSH1 0x20 ADD PUSH32 0x5361666545524332303A206C6F772D6C6576656C2063616C6C206661696C6564 DUP2 MSTORE POP DUP6 PUSH1 0x1 PUSH1 0x1 PUSH1 0xA0 SHL SUB AND PUSH2 0x887 SWAP1 SWAP3 SWAP2 SWAP1 PUSH4 0xFFFFFFFF AND JUMP JUMPDEST DUP1 MLOAD SWAP1 SWAP2 POP ISZERO PUSH2 0x7B0 JUMPI DUP1 DUP1 PUSH1 0x20 ADD SWAP1 MLOAD DUP2 ADD SWAP1 PUSH2 0x828 SWAP2 SWAP1 PUSH2 0xD76 JUMP JUMPDEST PUSH2 0x7B0 JUMPI PUSH1 0x40 MLOAD PUSH3 0x461BCD PUSH1 0xE5 SHL DUP2 MSTORE PUSH1 0x20 PUSH1 0x4 DUP3 ADD MSTORE PUSH1 0x2A PUSH1 0x24 DUP3 ADD MSTORE PUSH32 0x5361666545524332303A204552433230206F7065726174696F6E20646964206E PUSH1 0x44 DUP3 ADD MSTORE PUSH10 0x1BDD081CDD58D8D95959 PUSH1 0xB2 SHL PUSH1 0x64 DUP3 ADD MSTORE PUSH1 0x84 ADD PUSH2 0x37A JUMP JUMPDEST PUSH1 0x60 PUSH2 0x896 DUP5 DUP5 PUSH1 0x0 DUP6 PUSH2 0x8A0 JUMP JUMPDEST SWAP1 POP JUMPDEST SWAP4 SWAP3 POP POP POP JUMP JUMPDEST PUSH1 0x60 DUP3 SELFBALANCE LT ISZERO PUSH2 0x901 JUMPI PUSH1 0x40 MLOAD PUSH3 0x461BCD PUSH1 0xE5 SHL DUP2 MSTORE PUSH1 0x20 PUSH1 0x4 DUP3 ADD MSTORE PUSH1 0x26 PUSH1 0x24 DUP3 ADD MSTORE PUSH32 0x416464726573733A20696E73756666696369656E742062616C616E636520666F PUSH1 0x44 DUP3 ADD MSTORE PUSH6 0x1C8818D85B1B PUSH1 0xD2 SHL PUSH1 0x64 DUP3 ADD MSTORE PUSH1 0x84 ADD PUSH2 0x37A JUMP JUMPDEST PUSH1 0x1 PUSH1 0x1 PUSH1 0xA0 SHL SUB DUP6 AND EXTCODESIZE PUSH2 0x958 JUMPI PUSH1 0x40 MLOAD PUSH3 0x461BCD PUSH1 0xE5 SHL DUP2 MSTORE PUSH1 0x20 PUSH1 0x4 DUP3 ADD MSTORE PUSH1 0x1D PUSH1 0x24 DUP3 ADD MSTORE PUSH32 0x416464726573733A2063616C6C20746F206E6F6E2D636F6E7472616374000000 PUSH1 0x44 DUP3 ADD MSTORE PUSH1 0x64 ADD PUSH2 0x37A JUMP JUMPDEST PUSH1 0x0 DUP1 DUP7 PUSH1 0x1 PUSH1 0x1 PUSH1 0xA0 SHL SUB AND DUP6 DUP8 PUSH1 0x40 MLOAD PUSH2 0x974 SWAP2 SWAP1 PUSH2 0xD93 JUMP JUMPDEST PUSH1 0x0 PUSH1 0x40 MLOAD DUP1 DUP4 SUB DUP2 DUP6 DUP8 GAS CALL SWAP3 POP POP POP RETURNDATASIZE DUP1 PUSH1 0x0 DUP2 EQ PUSH2 0x9B1 JUMPI PUSH1 0x40 MLOAD SWAP2 POP PUSH1 0x1F NOT PUSH1 0x3F RETURNDATASIZE ADD AND DUP3 ADD PUSH1 0x40 MSTORE RETURNDATASIZE DUP3 MSTORE RETURNDATASIZE PUSH1 0x0 PUSH1 0x20 DUP5 ADD RETURNDATACOPY PUSH2 0x9B6 JUMP JUMPDEST PUSH1 0x60 SWAP2 POP JUMPDEST POP SWAP2 POP SWAP2 POP PUSH2 0x9C6 DUP3 DUP3 DUP7 PUSH2 0x9D1 JUMP JUMPDEST SWAP8 SWAP7 POP POP POP POP POP POP POP JUMP JUMPDEST PUSH1 0x60 DUP4 ISZERO PUSH2 0x9E0 JUMPI POP DUP2 PUSH2 0x899 JUMP JUMPDEST DUP3 MLOAD ISZERO PUSH2 0x9F0 JUMPI DUP3 MLOAD DUP1 DUP5 PUSH1 0x20 ADD REVERT JUMPDEST DUP2 PUSH1 0x40 MLOAD PUSH3 0x461BCD PUSH1 0xE5 SHL DUP2 MSTORE PUSH1 0x4 ADD PUSH2 0x37A SWAP2 SWAP1 PUSH2 0xCE5 JUMP JUMPDEST PUSH1 0x1 PUSH1 0x1 PUSH1 0xA0 SHL SUB DUP2 AND DUP2 EQ PUSH2 0xA1F JUMPI PUSH1 0x0 DUP1 REVERT JUMPDEST POP JUMP JUMPDEST PUSH1 0x0 PUSH1 0x20 DUP3 DUP5 SUB SLT ISZERO PUSH2 0xA34 JUMPI PUSH1 0x0 DUP1 REVERT JUMPDEST DUP2 CALLDATALOAD PUSH2 0x899 DUP2 PUSH2 0xA0A JUMP JUMPDEST DUP1 ISZERO ISZERO DUP2 EQ PUSH2 0xA1F JUMPI PUSH1 0x0 DUP1 REVERT JUMPDEST PUSH1 0x0 DUP1 PUSH1 0x0 DUP1 PUSH1 0x80 DUP6 DUP8 SUB SLT ISZERO PUSH2 0xA63 JUMPI PUSH1 0x0 DUP1 REVERT JUMPDEST DUP5 CALLDATALOAD PUSH2 0xA6E DUP2 PUSH2 0xA0A JUMP JUMPDEST SWAP4 POP PUSH1 0x20 DUP6 ADD CALLDATALOAD PUSH2 0xA7E DUP2 PUSH2 0xA0A JUMP JUMPDEST SWAP3 POP PUSH1 0x40 DUP6 ADD CALLDATALOAD SWAP2 POP PUSH1 0x60 DUP6 ADD CALLDATALOAD PUSH2 0xA95 DUP2 PUSH2 0xA3F JUMP JUMPDEST SWAP4 SWAP7 SWAP3 SWAP6 POP SWAP1 SWAP4 POP POP JUMP JUMPDEST PUSH1 0x0 DUP1 PUSH1 0x0 DUP1 PUSH1 0x0 DUP1 PUSH1 0xC0 DUP8 DUP10 SUB SLT ISZERO PUSH2 0xAB9 JUMPI PUSH1 0x0 DUP1 REVERT JUMPDEST DUP7 MLOAD SWAP6 POP PUSH1 0x20 DUP8 ADD MLOAD SWAP5 POP PUSH1 0x40 DUP8 ADD MLOAD SWAP4 POP PUSH1 0x60 DUP8 ADD MLOAD SWAP3 POP PUSH1 0x80 DUP8 ADD MLOAD SWAP2 POP PUSH1 0xA0 DUP8 ADD MLOAD SWAP1 POP SWAP3 SWAP6 POP SWAP3 SWAP6 POP SWAP3 SWAP6 JUMP JUMPDEST PUSH1 0x40 MLOAD PUSH2 0x180 DUP2 ADD PUSH8 0xFFFFFFFFFFFFFFFF DUP2 GT DUP3 DUP3 LT OR ISZERO PUSH2 0xB1C JUMPI PUSH4 0x4E487B71 PUSH1 0xE0 SHL PUSH1 0x0 MSTORE PUSH1 0x41 PUSH1 0x4 MSTORE PUSH1 0x24 PUSH1 0x0 REVERT JUMPDEST PUSH1 0x40 MSTORE SWAP1 JUMP JUMPDEST PUSH1 0x0 PUSH1 0x20 DUP3 DUP5 SUB SLT ISZERO PUSH2 0xB34 JUMPI PUSH1 0x0 DUP1 REVERT JUMPDEST PUSH1 0x40 MLOAD PUSH1 0x20 DUP2 ADD DUP2 DUP2 LT PUSH8 0xFFFFFFFFFFFFFFFF DUP3 GT OR ISZERO PUSH2 0xB65 JUMPI PUSH4 0x4E487B71 PUSH1 0xE0 SHL PUSH1 0x0 MSTORE PUSH1 0x41 PUSH1 0x4 MSTORE PUSH1 0x24 PUSH1 0x0 REVERT JUMPDEST PUSH1 0x40 MSTORE SWAP2 MLOAD DUP3 MSTORE POP SWAP2 SWAP1 POP JUMP JUMPDEST DUP1 MLOAD PUSH16 0xFFFFFFFFFFFFFFFFFFFFFFFFFFFFFFFF DUP2 AND DUP2 EQ PUSH2 0xB92 JUMPI PUSH1 0x0 DUP1 REVERT JUMPDEST SWAP2 SWAP1 POP JUMP JUMPDEST DUP1 MLOAD PUSH5 0xFFFFFFFFFF DUP2 AND DUP2 EQ PUSH2 0xB92 JUMPI PUSH1 0x0 DUP1 REVERT JUMPDEST DUP1 MLOAD PUSH2 0xB92 DUP2 PUSH2 0xA0A JUMP JUMPDEST DUP1 MLOAD PUSH1 0xFF DUP2 AND DUP2 EQ PUSH2 0xB92 JUMPI PUSH1 0x0 DUP1 REVERT JUMPDEST PUSH1 0x0 PUSH2 0x180 DUP3 DUP5 SUB SLT ISZERO PUSH2 0xBDB JUMPI PUSH1 0x0 DUP1 REVERT JUMPDEST PUSH2 0xBE3 PUSH2 0xAEA JUMP JUMPDEST PUSH2 0xBED DUP5 DUP5 PUSH2 0xB22 JUMP JUMPDEST DUP2 MSTORE PUSH2 0xBFB PUSH1 0x20 DUP5 ADD PUSH2 0xB72 JUMP JUMPDEST PUSH1 0x20 DUP3 ADD MSTORE PUSH2 0xC0C PUSH1 0x40 DUP5 ADD PUSH2 0xB72 JUMP JUMPDEST PUSH1 0x40 DUP3 ADD MSTORE PUSH2 0xC1D PUSH1 0x60 DUP5 ADD PUSH2 0xB72 JUMP JUMPDEST PUSH1 0x60 DUP3 ADD MSTORE PUSH2 0xC2E PUSH1 0x80 DUP5 ADD PUSH2 0xB72 JUMP JUMPDEST PUSH1 0x80 DUP3 ADD MSTORE PUSH2 0xC3F PUSH1 0xA0 DUP5 ADD PUSH2 0xB72 JUMP JUMPDEST PUSH1 0xA0 DUP3 ADD MSTORE PUSH2 0xC50 PUSH1 0xC0 DUP5 ADD PUSH2 0xB97 JUMP JUMPDEST PUSH1 0xC0 DUP3 ADD MSTORE PUSH2 0xC61 PUSH1 0xE0 DUP5 ADD PUSH2 0xBAC JUMP JUMPDEST PUSH1 0xE0 DUP3 ADD MSTORE PUSH2 0x100 PUSH2 0xC74 DUP2 DUP6 ADD PUSH2 0xBAC JUMP JUMPDEST SWAP1 DUP3 ADD MSTORE PUSH2 0x120 PUSH2 0xC86 DUP5 DUP3 ADD PUSH2 0xBAC JUMP JUMPDEST SWAP1 DUP3 ADD MSTORE PUSH2 0x140 PUSH2 0xC98 DUP5 DUP3 ADD PUSH2 0xBAC JUMP JUMPDEST SWAP1 DUP3 ADD MSTORE PUSH2 0x160 PUSH2 0xCAA DUP5 DUP3 ADD PUSH2 0xBB7 JUMP JUMPDEST SWAP1 DUP3 ADD MSTORE SWAP4 SWAP3 POP POP POP JUMP JUMPDEST PUSH1 0x0 JUMPDEST DUP4 DUP2 LT ISZERO PUSH2 0xCD0 JUMPI DUP2 DUP2 ADD MLOAD DUP4 DUP3 ADD MSTORE PUSH1 0x20 ADD PUSH2 0xCB8 JUMP JUMPDEST DUP4 DUP2 GT ISZERO PUSH2 0xCDF JUMPI PUSH1 0x0 DUP5 DUP5 ADD MSTORE JUMPDEST POP POP POP POP JUMP JUMPDEST PUSH1 0x20 DUP2 MSTORE PUSH1 0x0 DUP3 MLOAD DUP1 PUSH1 0x20 DUP5 ADD MSTORE PUSH2 0xD04 DUP2 PUSH1 0x40 DUP6 ADD PUSH1 0x20 DUP8 ADD PUSH2 0xCB5 JUMP JUMPDEST PUSH1 0x1F ADD PUSH1 0x1F NOT AND SWAP2 SWAP1 SWAP2 ADD PUSH1 0x40 ADD SWAP3 SWAP2 POP POP JUMP JUMPDEST PUSH1 0x0 PUSH1 0x20 DUP3 DUP5 SUB SLT ISZERO PUSH2 0xD2A JUMPI PUSH1 0x0 DUP1 REVERT JUMPDEST POP MLOAD SWAP2 SWAP1 POP JUMP JUMPDEST PUSH4 0x4E487B71 PUSH1 0xE0 SHL PUSH1 0x0 MSTORE PUSH1 0x11 PUSH1 0x4 MSTORE PUSH1 0x24 PUSH1 0x0 REVERT JUMPDEST PUSH1 0x0 DUP3 NOT DUP3 GT ISZERO PUSH2 0xD5A JUMPI PUSH2 0xD5A PUSH2 0xD31 JUMP JUMPDEST POP ADD SWAP1 JUMP JUMPDEST PUSH1 0x0 DUP3 DUP3 LT ISZERO PUSH2 0xD71 JUMPI PUSH2 0xD71 PUSH2 0xD31 JUMP JUMPDEST POP SUB SWAP1 JUMP JUMPDEST PUSH1 0x0 PUSH1 0x20 DUP3 DUP5 SUB SLT ISZERO PUSH2 0xD88 JUMPI PUSH1 0x0 DUP1 REVERT JUMPDEST DUP2 MLOAD PUSH2 0x899 DUP2 PUSH2 0xA3F JUMP JUMPDEST PUSH1 0x0 DUP3 MLOAD PUSH2 0xDA5 DUP2 DUP5 PUSH1 0x20 DUP8 ADD PUSH2 0xCB5 JUMP JUMPDEST SWAP2 SWAP1 SWAP2 ADD SWAP3 SWAP2 POP POP JUMP INVALID LOG2 PUSH5 0x6970667358 0x22 SLT KECCAK256 0xA8 0xF9 DIFFICULTY PUSH28 0xFBC9FD0815B1A3895D98667C766C215BA0065097FE6ACAFC91199D92 PUSH5 0x736F6C6343 STOP ADDMOD MULMOD STOP CALLER ","sha1":"70056a8d8ff1b493343f38c4753f64d50954c9af","source":"// SPDX-License-Identifier: GPL-3.0-or-later\npragma solidity 0.8.9;\n\nimport \"@openzeppelin/contracts/token/ERC20/IERC20.sol\";\nimport \"@openzeppelin/contracts/token/ERC20/utils/SafeERC20.sol\";\n\nimport \"../../../../interfaces/actions/topup/ITopUpHandler.sol\";\nimport \"../../../../libraries/Errors.sol\";\n\nimport \"../../../../interfaces/vendor/ILendingPool.sol\";\nimport \"../../../../interfaces/vendor/IWETH.sol\";\nimport \"../../../../libraries/vendor/DataTypes.sol\";\n\ncontract AaveHandler is ITopUpHandler {\n    using SafeERC20 for IERC20;\n\n    uint16 public constant BACKD_REFERRAL_CODE = 62314;\n\n    ILendingPool public immutable lendingPool;\n    IWETH public immutable weth;\n\n    constructor(address lendingPoolAddress, address wethAddress) {\n        lendingPool = ILendingPool(lendingPoolAddress);\n        weth = IWETH(wethAddress);\n    }\n\n    /**\n     * @notice Executes the top-up of a position.\n     * @param account Account holding the position.\n     * @param underlying Underlying for tup-up.\n     * @param amount Amount to top-up by.\n     * @return `true` if successful.\n     */\n    function topUp(\n        address account,\n        address underlying,\n        uint256 amount,\n        bool repayDebt\n    ) external override returns (bool) {\n        if (underlying == address(0)) {\n            weth.deposit{value: amount}();\n            underlying = address(weth);\n        }\n\n        DataTypes.ReserveData memory reserve = lendingPool.getReserveData(underlying);\n        require(reserve.aTokenAddress != address(0), Error.UNDERLYING_NOT_SUPPORTED);\n\n        IERC20(underlying).safeApprove(address(lendingPool), amount);\n\n        if (repayDebt) {\n            uint256 stableDebt = IERC20(reserve.stableDebtTokenAddress).balanceOf(account);\n            uint256 variableDebt = IERC20(reserve.variableDebtTokenAddress).balanceOf(account);\n            if (variableDebt + stableDebt > 0) {\n                uint256 rateMode = stableDebt > variableDebt ? 1 : 2;\n                amount -= lendingPool.repay(underlying, amount, rateMode, account);\n                if (amount == 0) return true;\n            }\n        }\n\n        lendingPool.deposit(underlying, amount, account, BACKD_REFERRAL_CODE);\n        return true;\n    }\n\n    function getUserFactor(address account) external view override returns (uint256) {\n        (, , , , , uint256 healthFactor) = lendingPool.getUserAccountData(account);\n        return healthFactor;\n    }\n}\n","sourcePath":"contracts/actions/topup/handlers/AaveHandler.sol","type":"contract","deployment":{"address":"0x21B60d89E156B5F6C03b81662af7C59d079384F7","chainid":"42","blockHeight":30414865}}