{"abi":[{"inputs":[{"internalType":"contract IRoleManager","name":"roleManager","type":"address"},{"internalType":"address","name":"ethFeed","type":"address"}],"stateMutability":"nonpayable","type":"constructor","name":"constructor"},{"anonymous":false,"inputs":[{"indexed":true,"internalType":"address","name":"asset","type":"address"},{"indexed":true,"internalType":"address","name":"previousFeed","type":"address"},{"indexed":true,"internalType":"address","name":"newFeed","type":"address"}],"name":"FeedUpdated","type":"event"},{"inputs":[{"internalType":"address","name":"","type":"address"}],"name":"feeds","outputs":[{"internalType":"address","name":"","type":"address"}],"stateMutability":"view","type":"function"},{"inputs":[{"internalType":"address","name":"asset","type":"address"}],"name":"getPriceETH","outputs":[{"internalType":"uint256","name":"","type":"uint256"}],"stateMutability":"view","type":"function"},{"inputs":[{"internalType":"address","name":"asset","type":"address"}],"name":"getPriceUSD","outputs":[{"internalType":"uint256","name":"","type":"uint256"}],"stateMutability":"view","type":"function"},{"inputs":[],"name":"roleManager","outputs":[{"internalType":"contract IRoleManager","name":"","type":"address"}],"stateMutability":"view","type":"function"},{"inputs":[{"internalType":"address","name":"asset","type":"address"},{"internalType":"address","name":"feed","type":"address"}],"name":"setFeed","outputs":[],"stateMutability":"nonpayable","type":"function"},{"inputs":[{"internalType":"uint256","name":"stalePriceDelay_","type":"uint256"}],"name":"setStalePriceDelay","outputs":[],"stateMutability":"nonpayable","type":"function"},{"inputs":[],"name":"stalePriceDelay","outputs":[{"internalType":"uint256","name":"","type":"uint256"}],"stateMutability":"view","type":"function"}],"bytecode":"60a060405234801561001057600080fd5b50604051610b62380380610b6283398101604081905261002f916100a1565b6001600160a01b03918216608052600080805260016020527fa6eef7e35abe7026729641147f7915573c7e97b47efa546f5f6e3230263bcb4980546001600160a01b0319169290931691909117909155611c2090556100db565b6001600160a01b038116811461009e57600080fd5b50565b600080604083850312156100b457600080fd5b82516100bf81610089565b60208401519092506100d081610089565b809150509250929050565b608051610a5f6101036000396000818160830152818161015001526102a10152610a5f6000f3fe608060405234801561001057600080fd5b506004361061007c5760003560e01c806340b1eb101161005b57806340b1eb10146100fe5780635647a646146101115780635708447d14610128578063e5ec9db91461013b57600080fd5b8062435da5146100815780632fba4aa9146100c05780633a150b69146100e9575b600080fd5b7f00000000000000000000000000000000000000000000000000000000000000005b6040516001600160a01b0390911681526020015b60405180910390f35b6100a36100ce366004610732565b6001602052600090815260409020546001600160a01b031681565b6100fc6100f7366004610754565b61014e565b005b6100fc61010c36600461076d565b61029f565b61011a60005481565b6040519081526020016100b7565b61011a610136366004610732565b610461565b61011a610149366004610732565b610677565b7f0000000000000000000000000000000000000000000000000000000000000000604051632474521560e21b815269676f7665726e616e636560b01b60048201523360248201526001600160a01b0391909116906391d148549060440160206040518083038186803b1580156101c357600080fd5b505afa1580156101d7573d6000803e3d6000fd5b505050506040513d601f19601f820116820180604052508101906101fb91906107a0565b60405180604001604052806013815260200172756e617574686f72697a65642061636365737360681b8152509061024e5760405162461bcd60e51b815260040161024591906107c2565b60405180910390fd5b5060408051808201909152601081526f1a5b9d985b1a5908185c99dd5b595b9d60821b6020820152610e108210156102995760405162461bcd60e51b815260040161024591906107c2565b50600055565b7f0000000000000000000000000000000000000000000000000000000000000000604051632474521560e21b815269676f7665726e616e636560b01b60048201523360248201526001600160a01b0391909116906391d148549060440160206040518083038186803b15801561031457600080fd5b505afa158015610328573d6000803e3d6000fd5b505050506040513d601f19601f8201168201806040525081019061034c91906107a0565b60405180604001604052806013815260200172756e617574686f72697a65642061636365737360681b815250906103965760405162461bcd60e51b815260040161024591906107c2565b506001600160a01b03808316600090815260016020908152604091829020548251808401909352601083526f1a5b9d985b1a5908185c99dd5b595b9d60821b9183019190915282169183168214156104015760405162461bcd60e51b815260040161024591906107c2565b506001600160a01b0383811660008181526001602052604080822080546001600160a01b03191687861690811790915590519093851692917f321e37f6a0404dbaed483cc2ece840899199567b4a62f4639eff9587735b87fd91a4505050565b6001600160a01b0380821660009081526001602090815260408083205481518083019092526013825272105cdcd95d081b9bdd081cdd5c1c1bdc9d1959606a1b9282019290925291921690816104ca5760405162461bcd60e51b815260040161024591906107c2565b50600080826001600160a01b031663feaf968c6040518163ffffffff1660e01b815260040160a06040518083038186803b15801561050757600080fd5b505afa15801561051b573d6000803e3d6000fd5b505050506040513d601f19601f8201168201806040525081019061053f9190610831565b50935050925050600054816105549190610897565b4211156040518060400160405280600e81526020016d5072696365206973207374616c6560901b8152509061059c5760405162461bcd60e51b815260040161024591906107c2565b506040805180820190915260118152705072696365206973206e6567617469766560781b602082015260008312156105e75760405162461bcd60e51b815260040161024591906107c2565b5060008290506000846001600160a01b031663313ce5676040518163ffffffff1660e01b815260040160206040518083038186803b15801561062857600080fd5b505afa15801561063c573d6000803e3d6000fd5b505050506040513d601f19601f8201168201806040525081019061066091906108af565b905061066c82826106ae565b979650505050505050565b60006106836000610461565b61068c83610461565b61069e90670de0b6b3a76400006108d2565b6106a891906108f1565b92915050565b600060ff8216601214156106c35750816106a8565b601260ff831611156106f6576106da601283610913565b6106e590600a610a1a565b6106ef90846108f1565b90506106a8565b610701826012610913565b61070c90600a610a1a565b6106ef90846108d2565b80356001600160a01b038116811461072d57600080fd5b919050565b60006020828403121561074457600080fd5b61074d82610716565b9392505050565b60006020828403121561076657600080fd5b5035919050565b6000806040838503121561078057600080fd5b61078983610716565b915061079760208401610716565b90509250929050565b6000602082840312156107b257600080fd5b8151801515811461074d57600080fd5b600060208083528351808285015260005b818110156107ef578581018301518582016040015282016107d3565b81811115610801576000604083870101525b50601f01601f1916929092016040019392505050565b805169ffffffffffffffffffff8116811461072d57600080fd5b600080600080600060a0868803121561084957600080fd5b61085286610817565b945060208601519350604086015192506060860151915061087560808701610817565b90509295509295909350565b634e487b7160e01b600052601160045260246000fd5b600082198211156108aa576108aa610881565b500190565b6000602082840312156108c157600080fd5b815160ff8116811461074d57600080fd5b60008160001904831182151516156108ec576108ec610881565b500290565b60008261090e57634e487b7160e01b600052601260045260246000fd5b500490565b600060ff821660ff84168082101561092d5761092d610881565b90039392505050565b600181815b8085111561097157816000190482111561095757610957610881565b8085161561096457918102915b93841c939080029061093b565b509250929050565b600082610988575060016106a8565b81610995575060006106a8565b81600181146109ab57600281146109b5576109d1565b60019150506106a8565b60ff8411156109c6576109c6610881565b50506001821b6106a8565b5060208310610133831016604e8410600b84101617156109f4575081810a6106a8565b6109fe8383610936565b8060001904821115610a1257610a12610881565b029392505050565b600061074d60ff84168361097956fea264697066735822122066c1c47b09b86e880ea634540f8052fc94fc29ad8a58c89859045ec47eaf246e64736f6c63430008090033","bytecodeSha1":"c824219a400e1c66ec4a2d4113f411abf920cff5","compiler":{"evm_version":"london","optimizer":{"enabled":true,"runs":200},"version":"0.8.9+commit.e5eed63a"},"contractName":"ChainlinkOracleProvider","language":"Solidity","natspec":{"kind":"dev","methods":{"getPriceETH(address)":{"notice":"Quotes the ETH price of `baseAsset`","params":{"baseAsset":"the asset of which the price is to be quoted"},"returns":{"_0":"the ETH price of the asset"}},"getPriceUSD(address)":{"notice":"Quotes the USD price of `baseAsset`","params":{"baseAsset":"the asset of which the price is to be quoted"},"returns":{"_0":"the USD price of the asset"}},"setFeed(address,address)":{"details":"All feeds should be set relative to USD. This can only be called by governance","notice":"Allows to set Chainlink feeds"},"setStalePriceDelay(uint256)":{"notice":"Sets the stake price delay value.","params":{"stalePriceDelay_":"The new stale price delay to set."}}},"version":1},"opcodes":"PUSH1 0x80 PUSH1 0x40 MSTORE CALLVALUE DUP1 ISZERO PUSH2 0x10 JUMPI PUSH1 0x0 DUP1 REVERT JUMPDEST POP PUSH1 0x4 CALLDATASIZE LT PUSH2 0x7C JUMPI PUSH1 0x0 CALLDATALOAD PUSH1 0xE0 SHR DUP1 PUSH4 0x40B1EB10 GT PUSH2 0x5B JUMPI DUP1 PUSH4 0x40B1EB10 EQ PUSH2 0xFE JUMPI DUP1 PUSH4 0x5647A646 EQ PUSH2 0x111 JUMPI DUP1 PUSH4 0x5708447D EQ PUSH2 0x128 JUMPI DUP1 PUSH4 0xE5EC9DB9 EQ PUSH2 0x13B JUMPI PUSH1 0x0 DUP1 REVERT JUMPDEST DUP1 PUSH3 0x435DA5 EQ PUSH2 0x81 JUMPI DUP1 PUSH4 0x2FBA4AA9 EQ PUSH2 0xC0 JUMPI DUP1 PUSH4 0x3A150B69 EQ PUSH2 0xE9 JUMPI JUMPDEST PUSH1 0x0 DUP1 REVERT JUMPDEST PUSH32 0x0 JUMPDEST PUSH1 0x40 MLOAD PUSH1 0x1 PUSH1 0x1 PUSH1 0xA0 SHL SUB SWAP1 SWAP2 AND DUP2 MSTORE PUSH1 0x20 ADD JUMPDEST PUSH1 0x40 MLOAD DUP1 SWAP2 SUB SWAP1 RETURN JUMPDEST PUSH2 0xA3 PUSH2 0xCE CALLDATASIZE PUSH1 0x4 PUSH2 0x732 JUMP JUMPDEST PUSH1 0x1 PUSH1 0x20 MSTORE PUSH1 0x0 SWAP1 DUP2 MSTORE PUSH1 0x40 SWAP1 KECCAK256 SLOAD PUSH1 0x1 PUSH1 0x1 PUSH1 0xA0 SHL SUB AND DUP2 JUMP JUMPDEST PUSH2 0xFC PUSH2 0xF7 CALLDATASIZE PUSH1 0x4 PUSH2 0x754 JUMP JUMPDEST PUSH2 0x14E JUMP JUMPDEST STOP JUMPDEST PUSH2 0xFC PUSH2 0x10C CALLDATASIZE PUSH1 0x4 PUSH2 0x76D JUMP JUMPDEST PUSH2 0x29F JUMP JUMPDEST PUSH2 0x11A PUSH1 0x0 SLOAD DUP2 JUMP JUMPDEST PUSH1 0x40 MLOAD SWAP1 DUP2 MSTORE PUSH1 0x20 ADD PUSH2 0xB7 JUMP JUMPDEST PUSH2 0x11A PUSH2 0x136 CALLDATASIZE PUSH1 0x4 PUSH2 0x732 JUMP JUMPDEST PUSH2 0x461 JUMP JUMPDEST PUSH2 0x11A PUSH2 0x149 CALLDATASIZE PUSH1 0x4 PUSH2 0x732 JUMP JUMPDEST PUSH2 0x677 JUMP JUMPDEST PUSH32 0x0 PUSH1 0x40 MLOAD PUSH4 0x24745215 PUSH1 0xE2 SHL DUP2 MSTORE PUSH10 0x676F7665726E616E6365 PUSH1 0xB0 SHL PUSH1 0x4 DUP3 ADD MSTORE CALLER PUSH1 0x24 DUP3 ADD MSTORE PUSH1 0x1 PUSH1 0x1 PUSH1 0xA0 SHL SUB SWAP2 SWAP1 SWAP2 AND SWAP1 PUSH4 0x91D14854 SWAP1 PUSH1 0x44 ADD PUSH1 0x20 PUSH1 0x40 MLOAD DUP1 DUP4 SUB DUP2 DUP7 DUP1 EXTCODESIZE ISZERO DUP1 ISZERO PUSH2 0x1C3 JUMPI PUSH1 0x0 DUP1 REVERT JUMPDEST POP GAS STATICCALL ISZERO DUP1 ISZERO PUSH2 0x1D7 JUMPI RETURNDATASIZE PUSH1 0x0 DUP1 RETURNDATACOPY RETURNDATASIZE PUSH1 0x0 REVERT JUMPDEST POP POP POP POP PUSH1 0x40 MLOAD RETURNDATASIZE PUSH1 0x1F NOT PUSH1 0x1F DUP3 ADD AND DUP3 ADD DUP1 PUSH1 0x40 MSTORE POP DUP2 ADD SWAP1 PUSH2 0x1FB SWAP2 SWAP1 PUSH2 0x7A0 JUMP JUMPDEST PUSH1 0x40 MLOAD DUP1 PUSH1 0x40 ADD PUSH1 0x40 MSTORE DUP1 PUSH1 0x13 DUP2 MSTORE PUSH1 0x20 ADD PUSH19 0x756E617574686F72697A656420616363657373 PUSH1 0x68 SHL DUP2 MSTORE POP SWAP1 PUSH2 0x24E JUMPI PUSH1 0x40 MLOAD PUSH3 0x461BCD PUSH1 0xE5 SHL DUP2 MSTORE PUSH1 0x4 ADD PUSH2 0x245 SWAP2 SWAP1 PUSH2 0x7C2 JUMP JUMPDEST PUSH1 0x40 MLOAD DUP1 SWAP2 SUB SWAP1 REVERT JUMPDEST POP PUSH1 0x40 DUP1 MLOAD DUP1 DUP3 ADD SWAP1 SWAP2 MSTORE PUSH1 0x10 DUP2 MSTORE PUSH16 0x1A5B9D985B1A5908185C99DD5B595B9D PUSH1 0x82 SHL PUSH1 0x20 DUP3 ADD MSTORE PUSH2 0xE10 DUP3 LT ISZERO PUSH2 0x299 JUMPI PUSH1 0x40 MLOAD PUSH3 0x461BCD PUSH1 0xE5 SHL DUP2 MSTORE PUSH1 0x4 ADD PUSH2 0x245 SWAP2 SWAP1 PUSH2 0x7C2 JUMP JUMPDEST POP PUSH1 0x0 SSTORE JUMP JUMPDEST PUSH32 0x0 PUSH1 0x40 MLOAD PUSH4 0x24745215 PUSH1 0xE2 SHL DUP2 MSTORE PUSH10 0x676F7665726E616E6365 PUSH1 0xB0 SHL PUSH1 0x4 DUP3 ADD MSTORE CALLER PUSH1 0x24 DUP3 ADD MSTORE PUSH1 0x1 PUSH1 0x1 PUSH1 0xA0 SHL SUB SWAP2 SWAP1 SWAP2 AND SWAP1 PUSH4 0x91D14854 SWAP1 PUSH1 0x44 ADD PUSH1 0x20 PUSH1 0x40 MLOAD DUP1 DUP4 SUB DUP2 DUP7 DUP1 EXTCODESIZE ISZERO DUP1 ISZERO PUSH2 0x314 JUMPI PUSH1 0x0 DUP1 REVERT JUMPDEST POP GAS STATICCALL ISZERO DUP1 ISZERO PUSH2 0x328 JUMPI RETURNDATASIZE PUSH1 0x0 DUP1 RETURNDATACOPY RETURNDATASIZE PUSH1 0x0 REVERT JUMPDEST POP POP POP POP PUSH1 0x40 MLOAD RETURNDATASIZE PUSH1 0x1F NOT PUSH1 0x1F DUP3 ADD AND DUP3 ADD DUP1 PUSH1 0x40 MSTORE POP DUP2 ADD SWAP1 PUSH2 0x34C SWAP2 SWAP1 PUSH2 0x7A0 JUMP JUMPDEST PUSH1 0x40 MLOAD DUP1 PUSH1 0x40 ADD PUSH1 0x40 MSTORE DUP1 PUSH1 0x13 DUP2 MSTORE PUSH1 0x20 ADD PUSH19 0x756E617574686F72697A656420616363657373 PUSH1 0x68 SHL DUP2 MSTORE POP SWAP1 PUSH2 0x396 JUMPI PUSH1 0x40 MLOAD PUSH3 0x461BCD PUSH1 0xE5 SHL DUP2 MSTORE PUSH1 0x4 ADD PUSH2 0x245 SWAP2 SWAP1 PUSH2 0x7C2 JUMP JUMPDEST POP PUSH1 0x1 PUSH1 0x1 PUSH1 0xA0 SHL SUB DUP1 DUP4 AND PUSH1 0x0 SWAP1 DUP2 MSTORE PUSH1 0x1 PUSH1 0x20 SWAP1 DUP2 MSTORE PUSH1 0x40 SWAP2 DUP3 SWAP1 KECCAK256 SLOAD DUP3 MLOAD DUP1 DUP5 ADD SWAP1 SWAP4 MSTORE PUSH1 0x10 DUP4 MSTORE PUSH16 0x1A5B9D985B1A5908185C99DD5B595B9D PUSH1 0x82 SHL SWAP2 DUP4 ADD SWAP2 SWAP1 SWAP2 MSTORE DUP3 AND SWAP2 DUP4 AND DUP3 EQ ISZERO PUSH2 0x401 JUMPI PUSH1 0x40 MLOAD PUSH3 0x461BCD PUSH1 0xE5 SHL DUP2 MSTORE PUSH1 0x4 ADD PUSH2 0x245 SWAP2 SWAP1 PUSH2 0x7C2 JUMP JUMPDEST POP PUSH1 0x1 PUSH1 0x1 PUSH1 0xA0 SHL SUB DUP4 DUP2 AND PUSH1 0x0 DUP2 DUP2 MSTORE PUSH1 0x1 PUSH1 0x20 MSTORE PUSH1 0x40 DUP1 DUP3 KECCAK256 DUP1 SLOAD PUSH1 0x1 PUSH1 0x1 PUSH1 0xA0 SHL SUB NOT AND DUP8 DUP7 AND SWAP1 DUP2 OR SWAP1 SWAP2 SSTORE SWAP1 MLOAD SWAP1 SWAP4 DUP6 AND SWAP3 SWAP2 PUSH32 0x321E37F6A0404DBAED483CC2ECE840899199567B4A62F4639EFF9587735B87FD SWAP2 LOG4 POP POP POP JUMP JUMPDEST PUSH1 0x1 PUSH1 0x1 PUSH1 0xA0 SHL SUB DUP1 DUP3 AND PUSH1 0x0 SWAP1 DUP2 MSTORE PUSH1 0x1 PUSH1 0x20 SWAP1 DUP2 MSTORE PUSH1 0x40 DUP1 DUP4 KECCAK256 SLOAD DUP2 MLOAD DUP1 DUP4 ADD SWAP1 SWAP3 MSTORE PUSH1 0x13 DUP3 MSTORE PUSH19 0x105CDCD95D081B9BDD081CDD5C1C1BDC9D1959 PUSH1 0x6A SHL SWAP3 DUP3 ADD SWAP3 SWAP1 SWAP3 MSTORE SWAP2 SWAP3 AND SWAP1 DUP2 PUSH2 0x4CA JUMPI PUSH1 0x40 MLOAD PUSH3 0x461BCD PUSH1 0xE5 SHL DUP2 MSTORE PUSH1 0x4 ADD PUSH2 0x245 SWAP2 SWAP1 PUSH2 0x7C2 JUMP JUMPDEST POP PUSH1 0x0 DUP1 DUP3 PUSH1 0x1 PUSH1 0x1 PUSH1 0xA0 SHL SUB AND PUSH4 0xFEAF968C PUSH1 0x40 MLOAD DUP2 PUSH4 0xFFFFFFFF AND PUSH1 0xE0 SHL DUP2 MSTORE PUSH1 0x4 ADD PUSH1 0xA0 PUSH1 0x40 MLOAD DUP1 DUP4 SUB DUP2 DUP7 DUP1 EXTCODESIZE ISZERO DUP1 ISZERO PUSH2 0x507 JUMPI PUSH1 0x0 DUP1 REVERT JUMPDEST POP GAS STATICCALL ISZERO DUP1 ISZERO PUSH2 0x51B JUMPI RETURNDATASIZE PUSH1 0x0 DUP1 RETURNDATACOPY RETURNDATASIZE PUSH1 0x0 REVERT JUMPDEST POP POP POP POP PUSH1 0x40 MLOAD RETURNDATASIZE PUSH1 0x1F NOT PUSH1 0x1F DUP3 ADD AND DUP3 ADD DUP1 PUSH1 0x40 MSTORE POP DUP2 ADD SWAP1 PUSH2 0x53F SWAP2 SWAP1 PUSH2 0x831 JUMP JUMPDEST POP SWAP4 POP POP SWAP3 POP POP PUSH1 0x0 SLOAD DUP2 PUSH2 0x554 SWAP2 SWAP1 PUSH2 0x897 JUMP JUMPDEST TIMESTAMP GT ISZERO PUSH1 0x40 MLOAD DUP1 PUSH1 0x40 ADD PUSH1 0x40 MSTORE DUP1 PUSH1 0xE DUP2 MSTORE PUSH1 0x20 ADD PUSH14 0x5072696365206973207374616C65 PUSH1 0x90 SHL DUP2 MSTORE POP SWAP1 PUSH2 0x59C JUMPI PUSH1 0x40 MLOAD PUSH3 0x461BCD PUSH1 0xE5 SHL DUP2 MSTORE PUSH1 0x4 ADD PUSH2 0x245 SWAP2 SWAP1 PUSH2 0x7C2 JUMP JUMPDEST POP PUSH1 0x40 DUP1 MLOAD DUP1 DUP3 ADD SWAP1 SWAP2 MSTORE PUSH1 0x11 DUP2 MSTORE PUSH17 0x5072696365206973206E65676174697665 PUSH1 0x78 SHL PUSH1 0x20 DUP3 ADD MSTORE PUSH1 0x0 DUP4 SLT ISZERO PUSH2 0x5E7 JUMPI PUSH1 0x40 MLOAD PUSH3 0x461BCD PUSH1 0xE5 SHL DUP2 MSTORE PUSH1 0x4 ADD PUSH2 0x245 SWAP2 SWAP1 PUSH2 0x7C2 JUMP JUMPDEST POP PUSH1 0x0 DUP3 SWAP1 POP PUSH1 0x0 DUP5 PUSH1 0x1 PUSH1 0x1 PUSH1 0xA0 SHL SUB AND PUSH4 0x313CE567 PUSH1 0x40 MLOAD DUP2 PUSH4 0xFFFFFFFF AND PUSH1 0xE0 SHL DUP2 MSTORE PUSH1 0x4 ADD PUSH1 0x20 PUSH1 0x40 MLOAD DUP1 DUP4 SUB DUP2 DUP7 DUP1 EXTCODESIZE ISZERO DUP1 ISZERO PUSH2 0x628 JUMPI PUSH1 0x0 DUP1 REVERT JUMPDEST POP GAS STATICCALL ISZERO DUP1 ISZERO PUSH2 0x63C JUMPI RETURNDATASIZE PUSH1 0x0 DUP1 RETURNDATACOPY RETURNDATASIZE PUSH1 0x0 REVERT JUMPDEST POP POP POP POP PUSH1 0x40 MLOAD RETURNDATASIZE PUSH1 0x1F NOT PUSH1 0x1F DUP3 ADD AND DUP3 ADD DUP1 PUSH1 0x40 MSTORE POP DUP2 ADD SWAP1 PUSH2 0x660 SWAP2 SWAP1 PUSH2 0x8AF JUMP JUMPDEST SWAP1 POP PUSH2 0x66C DUP3 DUP3 PUSH2 0x6AE JUMP JUMPDEST SWAP8 SWAP7 POP POP POP POP POP POP POP JUMP JUMPDEST PUSH1 0x0 PUSH2 0x683 PUSH1 0x0 PUSH2 0x461 JUMP JUMPDEST PUSH2 0x68C DUP4 PUSH2 0x461 JUMP JUMPDEST PUSH2 0x69E SWAP1 PUSH8 0xDE0B6B3A7640000 PUSH2 0x8D2 JUMP JUMPDEST PUSH2 0x6A8 SWAP2 SWAP1 PUSH2 0x8F1 JUMP JUMPDEST SWAP3 SWAP2 POP POP JUMP JUMPDEST PUSH1 0x0 PUSH1 0xFF DUP3 AND PUSH1 0x12 EQ ISZERO PUSH2 0x6C3 JUMPI POP DUP2 PUSH2 0x6A8 JUMP JUMPDEST PUSH1 0x12 PUSH1 0xFF DUP4 AND GT ISZERO PUSH2 0x6F6 JUMPI PUSH2 0x6DA PUSH1 0x12 DUP4 PUSH2 0x913 JUMP JUMPDEST PUSH2 0x6E5 SWAP1 PUSH1 0xA PUSH2 0xA1A JUMP JUMPDEST PUSH2 0x6EF SWAP1 DUP5 PUSH2 0x8F1 JUMP JUMPDEST SWAP1 POP PUSH2 0x6A8 JUMP JUMPDEST PUSH2 0x701 DUP3 PUSH1 0x12 PUSH2 0x913 JUMP JUMPDEST PUSH2 0x70C SWAP1 PUSH1 0xA PUSH2 0xA1A JUMP JUMPDEST PUSH2 0x6EF SWAP1 DUP5 PUSH2 0x8D2 JUMP JUMPDEST DUP1 CALLDATALOAD PUSH1 0x1 PUSH1 0x1 PUSH1 0xA0 SHL SUB DUP2 AND DUP2 EQ PUSH2 0x72D JUMPI PUSH1 0x0 DUP1 REVERT JUMPDEST SWAP2 SWAP1 POP JUMP JUMPDEST PUSH1 0x0 PUSH1 0x20 DUP3 DUP5 SUB SLT ISZERO PUSH2 0x744 JUMPI PUSH1 0x0 DUP1 REVERT JUMPDEST PUSH2 0x74D DUP3 PUSH2 0x716 JUMP JUMPDEST SWAP4 SWAP3 POP POP POP JUMP JUMPDEST PUSH1 0x0 PUSH1 0x20 DUP3 DUP5 SUB SLT ISZERO PUSH2 0x766 JUMPI PUSH1 0x0 DUP1 REVERT JUMPDEST POP CALLDATALOAD SWAP2 SWAP1 POP JUMP JUMPDEST PUSH1 0x0 DUP1 PUSH1 0x40 DUP4 DUP6 SUB SLT ISZERO PUSH2 0x780 JUMPI PUSH1 0x0 DUP1 REVERT JUMPDEST PUSH2 0x789 DUP4 PUSH2 0x716 JUMP JUMPDEST SWAP2 POP PUSH2 0x797 PUSH1 0x20 DUP5 ADD PUSH2 0x716 JUMP JUMPDEST SWAP1 POP SWAP3 POP SWAP3 SWAP1 POP JUMP JUMPDEST PUSH1 0x0 PUSH1 0x20 DUP3 DUP5 SUB SLT ISZERO PUSH2 0x7B2 JUMPI PUSH1 0x0 DUP1 REVERT JUMPDEST DUP2 MLOAD DUP1 ISZERO ISZERO DUP2 EQ PUSH2 0x74D JUMPI PUSH1 0x0 DUP1 REVERT JUMPDEST PUSH1 0x0 PUSH1 0x20 DUP1 DUP4 MSTORE DUP4 MLOAD DUP1 DUP3 DUP6 ADD MSTORE PUSH1 0x0 JUMPDEST DUP2 DUP2 LT ISZERO PUSH2 0x7EF JUMPI DUP6 DUP2 ADD DUP4 ADD MLOAD DUP6 DUP3 ADD PUSH1 0x40 ADD MSTORE DUP3 ADD PUSH2 0x7D3 JUMP JUMPDEST DUP2 DUP2 GT ISZERO PUSH2 0x801 JUMPI PUSH1 0x0 PUSH1 0x40 DUP4 DUP8 ADD ADD MSTORE JUMPDEST POP PUSH1 0x1F ADD PUSH1 0x1F NOT AND SWAP3 SWAP1 SWAP3 ADD PUSH1 0x40 ADD SWAP4 SWAP3 POP POP POP JUMP JUMPDEST DUP1 MLOAD PUSH10 0xFFFFFFFFFFFFFFFFFFFF DUP2 AND DUP2 EQ PUSH2 0x72D JUMPI PUSH1 0x0 DUP1 REVERT JUMPDEST PUSH1 0x0 DUP1 PUSH1 0x0 DUP1 PUSH1 0x0 PUSH1 0xA0 DUP7 DUP9 SUB SLT ISZERO PUSH2 0x849 JUMPI PUSH1 0x0 DUP1 REVERT JUMPDEST PUSH2 0x852 DUP7 PUSH2 0x817 JUMP JUMPDEST SWAP5 POP PUSH1 0x20 DUP7 ADD MLOAD SWAP4 POP PUSH1 0x40 DUP7 ADD MLOAD SWAP3 POP PUSH1 0x60 DUP7 ADD MLOAD SWAP2 POP PUSH2 0x875 PUSH1 0x80 DUP8 ADD PUSH2 0x817 JUMP JUMPDEST SWAP1 POP SWAP3 SWAP6 POP SWAP3 SWAP6 SWAP1 SWAP4 POP JUMP JUMPDEST PUSH4 0x4E487B71 PUSH1 0xE0 SHL PUSH1 0x0 MSTORE PUSH1 0x11 PUSH1 0x4 MSTORE PUSH1 0x24 PUSH1 0x0 REVERT JUMPDEST PUSH1 0x0 DUP3 NOT DUP3 GT ISZERO PUSH2 0x8AA JUMPI PUSH2 0x8AA PUSH2 0x881 JUMP JUMPDEST POP ADD SWAP1 JUMP JUMPDEST PUSH1 0x0 PUSH1 0x20 DUP3 DUP5 SUB SLT ISZERO PUSH2 0x8C1 JUMPI PUSH1 0x0 DUP1 REVERT JUMPDEST DUP2 MLOAD PUSH1 0xFF DUP2 AND DUP2 EQ PUSH2 0x74D JUMPI PUSH1 0x0 DUP1 REVERT JUMPDEST PUSH1 0x0 DUP2 PUSH1 0x0 NOT DIV DUP4 GT DUP3 ISZERO ISZERO AND ISZERO PUSH2 0x8EC JUMPI PUSH2 0x8EC PUSH2 0x881 JUMP JUMPDEST POP MUL SWAP1 JUMP JUMPDEST PUSH1 0x0 DUP3 PUSH2 0x90E JUMPI PUSH4 0x4E487B71 PUSH1 0xE0 SHL PUSH1 0x0 MSTORE PUSH1 0x12 PUSH1 0x4 MSTORE PUSH1 0x24 PUSH1 0x0 REVERT JUMPDEST POP DIV SWAP1 JUMP JUMPDEST PUSH1 0x0 PUSH1 0xFF DUP3 AND PUSH1 0xFF DUP5 AND DUP1 DUP3 LT ISZERO PUSH2 0x92D JUMPI PUSH2 0x92D PUSH2 0x881 JUMP JUMPDEST SWAP1 SUB SWAP4 SWAP3 POP POP POP JUMP JUMPDEST PUSH1 0x1 DUP2 DUP2 JUMPDEST DUP1 DUP6 GT ISZERO PUSH2 0x971 JUMPI DUP2 PUSH1 0x0 NOT DIV DUP3 GT ISZERO PUSH2 0x957 JUMPI PUSH2 0x957 PUSH2 0x881 JUMP JUMPDEST DUP1 DUP6 AND ISZERO PUSH2 0x964 JUMPI SWAP2 DUP2 MUL SWAP2 JUMPDEST SWAP4 DUP5 SHR SWAP4 SWAP1 DUP1 MUL SWAP1 PUSH2 0x93B JUMP JUMPDEST POP SWAP3 POP SWAP3 SWAP1 POP JUMP JUMPDEST PUSH1 0x0 DUP3 PUSH2 0x988 JUMPI POP PUSH1 0x1 PUSH2 0x6A8 JUMP JUMPDEST DUP2 PUSH2 0x995 JUMPI POP PUSH1 0x0 PUSH2 0x6A8 JUMP JUMPDEST DUP2 PUSH1 0x1 DUP2 EQ PUSH2 0x9AB JUMPI PUSH1 0x2 DUP2 EQ PUSH2 0x9B5 JUMPI PUSH2 0x9D1 JUMP JUMPDEST PUSH1 0x1 SWAP2 POP POP PUSH2 0x6A8 JUMP JUMPDEST PUSH1 0xFF DUP5 GT ISZERO PUSH2 0x9C6 JUMPI PUSH2 0x9C6 PUSH2 0x881 JUMP JUMPDEST POP POP PUSH1 0x1 DUP3 SHL PUSH2 0x6A8 JUMP JUMPDEST POP PUSH1 0x20 DUP4 LT PUSH2 0x133 DUP4 LT AND PUSH1 0x4E DUP5 LT PUSH1 0xB DUP5 LT AND OR ISZERO PUSH2 0x9F4 JUMPI POP DUP2 DUP2 EXP PUSH2 0x6A8 JUMP JUMPDEST PUSH2 0x9FE DUP4 DUP4 PUSH2 0x936 JUMP JUMPDEST DUP1 PUSH1 0x0 NOT DIV DUP3 GT ISZERO PUSH2 0xA12 JUMPI PUSH2 0xA12 PUSH2 0x881 JUMP JUMPDEST MUL SWAP4 SWAP3 POP POP POP JUMP JUMPDEST PUSH1 0x0 PUSH2 0x74D PUSH1 0xFF DUP5 AND DUP4 PUSH2 0x979 JUMP INVALID LOG2 PUSH5 0x6970667358 0x22 SLT KECCAK256 PUSH7 0xC1C47B09B86E88 0xE 0xA6 CALLVALUE SLOAD 0xF DUP1 MSTORE 0xFC SWAP5 0xFC 0x29 0xAD DUP11 PC 0xC8 SWAP9 MSIZE DIV 0x5E 0xC4 PUSH31 0xAF246E64736F6C634300080900330000000000000000000000000000000000 ","sha1":"5b4f04abbe26a6fb9b7e7df182561de59c32a9cf","source":"// SPDX-License-Identifier: GPL-3.0-or-later\npragma solidity 0.8.9;\n\nimport \"../access/Authorization.sol\";\n\nimport \"../../interfaces/oracles/IChainlinkOracleProvider.sol\";\nimport \"../../interfaces/vendor/ChainlinkAggregator.sol\";\n\nimport \"../../libraries/Errors.sol\";\nimport \"../../libraries/DecimalScale.sol\";\n\ncontract ChainlinkOracleProvider is IChainlinkOracleProvider, Authorization {\n    using DecimalScale for uint256;\n\n    uint256 public stalePriceDelay;\n\n    mapping(address => address) public feeds;\n\n    event FeedUpdated(address indexed asset, address indexed previousFeed, address indexed newFeed);\n\n    constructor(IRoleManager roleManager, address ethFeed) Authorization(roleManager) {\n        feeds[address(0)] = ethFeed;\n        stalePriceDelay = 2 hours;\n    }\n\n    /// @notice Allows to set Chainlink feeds\n    /// @dev All feeds should be set relative to USD.\n    /// This can only be called by governance\n    function setFeed(address asset, address feed) external override onlyGovernance {\n        address previousFeed = feeds[asset];\n        require(feed != previousFeed, Error.INVALID_ARGUMENT);\n        feeds[asset] = feed;\n        emit FeedUpdated(asset, previousFeed, feed);\n    }\n\n    /**\n     * @notice Sets the stake price delay value.\n     * @param stalePriceDelay_ The new stale price delay to set.\n     */\n    function setStalePriceDelay(uint256 stalePriceDelay_) external override onlyGovernance {\n        require(stalePriceDelay_ >= 1 hours, Error.INVALID_ARGUMENT);\n        stalePriceDelay = stalePriceDelay_;\n    }\n\n    /// @inheritdoc IOracleProvider\n    function getPriceETH(address asset) external view override returns (uint256) {\n        return (getPriceUSD(asset) * 1e18) / getPriceUSD(address(0));\n    }\n\n    /// @inheritdoc IOracleProvider\n    function getPriceUSD(address asset) public view override returns (uint256) {\n        address feed = feeds[asset];\n        require(feed != address(0), Error.ASSET_NOT_SUPPORTED);\n\n        (, int256 answer, , uint256 updatedAt, ) = AggregatorV2V3Interface(feed).latestRoundData();\n\n        require(block.timestamp <= updatedAt + stalePriceDelay, Error.STALE_PRICE);\n        require(answer >= 0, Error.NEGATIVE_PRICE);\n\n        uint256 price = uint256(answer);\n        uint8 decimals = AggregatorV2V3Interface(feed).decimals();\n        return price.scaleFrom(decimals);\n    }\n}\n","sourcePath":"contracts/oracles/ChainlinkOracleProvider.sol","type":"contract","deployment":{"address":"0x29a8Fc43334bc940156D6d283E504B721082c0B6","chainid":"42","blockHeight":30414724}}