{"abi":[{"inputs":[{"internalType":"contract IController","name":"_controller","type":"address"},{"internalType":"address","name":"_actionContract","type":"address"},{"internalType":"uint256","name":"keeperFee","type":"uint256"},{"internalType":"uint256","name":"treasuryFee","type":"uint256"}],"stateMutability":"nonpayable","type":"constructor","name":"constructor"},{"anonymous":false,"inputs":[{"indexed":true,"internalType":"bytes32","name":"key","type":"bytes32"},{"indexed":false,"internalType":"address","name":"value","type":"address"},{"indexed":false,"internalType":"uint256","name":"delay","type":"uint256"}],"name":"ConfigPreparedAddress","type":"event"},{"anonymous":false,"inputs":[{"indexed":true,"internalType":"bytes32","name":"key","type":"bytes32"},{"indexed":false,"internalType":"uint256","name":"value","type":"uint256"},{"indexed":false,"internalType":"uint256","name":"delay","type":"uint256"}],"name":"ConfigPreparedNumber","type":"event"},{"anonymous":false,"inputs":[{"indexed":true,"internalType":"bytes32","name":"key","type":"bytes32"}],"name":"ConfigReset","type":"event"},{"anonymous":false,"inputs":[{"indexed":true,"internalType":"bytes32","name":"key","type":"bytes32"},{"indexed":false,"internalType":"address","name":"oldValue","type":"address"},{"indexed":false,"internalType":"address","name":"newValue","type":"address"}],"name":"ConfigUpdatedAddress","type":"event"},{"anonymous":false,"inputs":[{"indexed":true,"internalType":"bytes32","name":"key","type":"bytes32"},{"indexed":false,"internalType":"uint256","name":"oldValue","type":"uint256"},{"indexed":false,"internalType":"uint256","name":"newValue","type":"uint256"}],"name":"ConfigUpdatedNumber","type":"event"},{"anonymous":false,"inputs":[{"indexed":true,"internalType":"address","name":"payer","type":"address"},{"indexed":true,"internalType":"address","name":"keeper","type":"address"},{"indexed":false,"internalType":"address","name":"token","type":"address"},{"indexed":false,"internalType":"uint256","name":"amount","type":"uint256"},{"indexed":false,"internalType":"uint256","name":"keeperAmount","type":"uint256"},{"indexed":false,"internalType":"uint256","name":"lpAmount","type":"uint256"}],"name":"FeesPayed","type":"event"},{"anonymous":false,"inputs":[{"indexed":true,"internalType":"address","name":"keeper","type":"address"},{"indexed":false,"internalType":"address","name":"token","type":"address"},{"indexed":false,"internalType":"uint256","name":"totalClaimed","type":"uint256"}],"name":"KeeperFeesClaimed","type":"event"},{"inputs":[],"name":"actionContract","outputs":[{"internalType":"address","name":"","type":"address"}],"stateMutability":"view","type":"function"},{"inputs":[{"internalType":"address","name":"beneficiary","type":"address"},{"internalType":"address","name":"token","type":"address"}],"name":"claimKeeperFeesForPool","outputs":[{"internalType":"bool","name":"","type":"bool"}],"stateMutability":"nonpayable","type":"function"},{"inputs":[{"internalType":"address","name":"token","type":"address"}],"name":"claimTreasuryFees","outputs":[{"internalType":"bool","name":"","type":"bool"}],"stateMutability":"nonpayable","type":"function"},{"inputs":[],"name":"controller","outputs":[{"internalType":"contract IController","name":"","type":"address"}],"stateMutability":"view","type":"function"},{"inputs":[{"internalType":"bytes32","name":"","type":"bytes32"}],"name":"currentAddresses","outputs":[{"internalType":"address","name":"","type":"address"}],"stateMutability":"view","type":"function"},{"inputs":[{"internalType":"bytes32","name":"","type":"bytes32"}],"name":"currentUInts256","outputs":[{"internalType":"uint256","name":"","type":"uint256"}],"stateMutability":"view","type":"function"},{"inputs":[{"internalType":"bytes32","name":"","type":"bytes32"}],"name":"deadlines","outputs":[{"internalType":"uint256","name":"","type":"uint256"}],"stateMutability":"view","type":"function"},{"inputs":[],"name":"executeKeeperFee","outputs":[{"internalType":"uint256","name":"","type":"uint256"}],"stateMutability":"nonpayable","type":"function"},{"inputs":[{"internalType":"address","name":"lpToken","type":"address"}],"name":"executeKeeperGauge","outputs":[{"internalType":"address","name":"","type":"address"}],"stateMutability":"nonpayable","type":"function"},{"inputs":[],"name":"executeTreasuryFee","outputs":[{"internalType":"uint256","name":"","type":"uint256"}],"stateMutability":"nonpayable","type":"function"},{"inputs":[],"name":"getKeeperFeeFraction","outputs":[{"internalType":"uint256","name":"","type":"uint256"}],"stateMutability":"view","type":"function"},{"inputs":[{"internalType":"address","name":"lpToken","type":"address"}],"name":"getKeeperGauge","outputs":[{"internalType":"address","name":"","type":"address"}],"stateMutability":"view","type":"function"},{"inputs":[],"name":"getTreasuryFeeFraction","outputs":[{"internalType":"uint256","name":"","type":"uint256"}],"stateMutability":"view","type":"function"},{"inputs":[{"internalType":"address","name":"","type":"address"},{"internalType":"address","name":"","type":"address"}],"name":"keeperRecords","outputs":[{"internalType":"uint256","name":"","type":"uint256"}],"stateMutability":"view","type":"function"},{"inputs":[{"internalType":"address","name":"payer","type":"address"},{"internalType":"address","name":"beneficiary","type":"address"},{"internalType":"uint256","name":"amount","type":"uint256"},{"internalType":"address","name":"lpTokenAddress","type":"address"}],"name":"payFees","outputs":[{"internalType":"bool","name":"","type":"bool"}],"stateMutability":"nonpayable","type":"function"},{"inputs":[{"internalType":"bytes32","name":"","type":"bytes32"}],"name":"pendingAddresses","outputs":[{"internalType":"address","name":"","type":"address"}],"stateMutability":"view","type":"function"},{"inputs":[{"internalType":"bytes32","name":"","type":"bytes32"}],"name":"pendingUInts256","outputs":[{"internalType":"uint256","name":"","type":"uint256"}],"stateMutability":"view","type":"function"},{"inputs":[{"internalType":"uint256","name":"newKeeperFee","type":"uint256"}],"name":"prepareKeeperFee","outputs":[{"internalType":"bool","name":"","type":"bool"}],"stateMutability":"nonpayable","type":"function"},{"inputs":[{"internalType":"address","name":"lpToken","type":"address"},{"internalType":"address","name":"newKeeperGauge","type":"address"}],"name":"prepareKeeperGauge","outputs":[{"internalType":"bool","name":"","type":"bool"}],"stateMutability":"nonpayable","type":"function"},{"inputs":[{"internalType":"uint256","name":"newTreasuryFee","type":"uint256"}],"name":"prepareTreasuryFee","outputs":[{"internalType":"bool","name":"","type":"bool"}],"stateMutability":"nonpayable","type":"function"},{"inputs":[],"name":"resetKeeperFee","outputs":[{"internalType":"bool","name":"","type":"bool"}],"stateMutability":"nonpayable","type":"function"},{"inputs":[{"internalType":"address","name":"lpToken","type":"address"}],"name":"resetKeeperGauge","outputs":[{"internalType":"bool","name":"","type":"bool"}],"stateMutability":"nonpayable","type":"function"},{"inputs":[],"name":"resetTreasuryFee","outputs":[{"internalType":"bool","name":"","type":"bool"}],"stateMutability":"nonpayable","type":"function"},{"inputs":[],"name":"roleManager","outputs":[{"internalType":"contract IRoleManager","name":"","type":"address"}],"stateMutability":"view","type":"function"},{"inputs":[{"internalType":"address","name":"lpToken","type":"address"},{"internalType":"address","name":"_keeperGauge","type":"address"}],"name":"setInitialKeeperGaugeForToken","outputs":[{"internalType":"bool","name":"","type":"bool"}],"stateMutability":"nonpayable","type":"function"},{"inputs":[{"internalType":"address","name":"","type":"address"}],"name":"treasuryAmounts","outputs":[{"internalType":"uint256","name":"","type":"uint256"}],"stateMutability":"view","type":"function"}],"bytecode":"60e06040523480156200001157600080fd5b50604051620023b2380380620023b28339810160408190526200003491620002a4565b620000c7846001600160a01b0316632954018c6040518163ffffffff1660e01b815260040160206040518083038186803b1580156200007257600080fd5b505afa15801562000087573d6000803e3d6000fd5b505050506040513d601f19601f82011682018060405250810190620000ad9190620002f1565b6001600160a01b03166200018d60201b620013f51760201c565b6001600160a01b0316608052670de0b6b3a7640000620000e8828462000318565b11156040518060400160405280600e81526020016d1a5b9d985b1a5908185b5bdd5b9d60921b815250906200013b5760405162461bcd60e51b81526004016200013291906200033f565b60405180910390fd5b506001600160a01b0380841660a052841660c05262000167684b656570657246656560b81b836200021f565b50620001826a547265617375727946656560a81b826200021f565b505050505062000397565b6040516321f8a72160e01b81526a3937b632a6b0b730b3b2b960a91b60048201526000906001600160a01b038316906321f8a7219060240160206040518083038186803b158015620001de57600080fd5b505afa158015620001f3573d6000803e3d6000fd5b505050506040513d601f19601f82011682018060405250810190620002199190620002f1565b92915050565b6000828152600360209081526040808320805490859055600183528184208490556004835281842084905581518181529283018590529185917fcc0bafe2accb565ea70674bf4b2555e49a47d410fb9932dfab3e5f41855d0a2f910160405180910390a2509092915050565b6001600160a01b0381168114620002a157600080fd5b50565b60008060008060808587031215620002bb57600080fd5b8451620002c8816200028b565b6020860151909450620002db816200028b565b6040860151606090960151949790965092505050565b6000602082840312156200030457600080fd5b815162000311816200028b565b9392505050565b600082198211156200033a57634e487b7160e01b600052601160045260246000fd5b500190565b600060208083528351808285015260005b818110156200036e5785810183015185820160400152820162000350565b8181111562000381576000604083870101525b50601f01601f1916929092016040019392505050565b60805160a05160c051611fac620004066000396000818161040601526109430152600081816102750152611071015260008181610194015281816104310152818161060c015281816107be01528181610b1e01528181610c7f01528181610d8a01526112e60152611fac6000f3fe608060405234801561001057600080fd5b506004361061018d5760003560e01c806390f6ce0c116100de578063cb44017311610097578063e73c361511610071578063e73c36151461039a578063ee036a75146103c5578063f76c3399146103d8578063f77c47911461040157600080fd5b8063cb44017314610356578063cfd93e321461035e578063e3976edf1461037157600080fd5b806390f6ce0c146102ed578063a151eab114610300578063ac3483b014610313578063aff1b7e414610326578063b94f5bdf14610346578063bbeffd851461034e57600080fd5b806339bef3661161014b57806372038b181161012557806372038b181461029f5780637265fc91146102a757806377233752146102ba5780638fe96732146102da57600080fd5b806339bef36614610268578063444116b5146102705780635fe8af5d1461029757600080fd5b8062435da5146101925780630f2703a2146101d157806312bb00ee146101f457806315dbfe62146102075780632a56555114610235578063346a4a5114610248575b600080fd5b7f00000000000000000000000000000000000000000000000000000000000000005b6040516001600160a01b0390911681526020015b60405180910390f35b6101e46101df366004611d53565b61042d565b60405190151581526020016101c8565b6101e4610202366004611d8c565b610608565b610227610215366004611d8c565b60016020526000908152604090205481565b6040519081526020016101c8565b6101b4610243366004611da5565b61076d565b610227610256366004611d8c565b60046020526000908152604090205481565b610227610780565b6101b47f000000000000000000000000000000000000000000000000000000000000000081565b6101e46107ba565b6102276108c9565b6101e46102b5366004611da5565b610905565b6102276102c8366004611da5565b60056020526000908152604090205481565b6101e46102e8366004611d53565b6109e7565b6101b46102fb366004611da5565b610aeb565b6101e461030e366004611d8c565b610b1a565b6101e4610321366004611da5565b610c7b565b610227610334366004611d8c565b60036020526000908152604090205481565b6101e4610d86565b610227610e97565b610227610f69565b6101e461036c366004611dc2565b611039565b6101b461037f366004611d8c565b6000602081905290815260409020546001600160a01b031681565b6102276103a8366004611d53565b600660209081526000928352604080842090915290825290205481565b6101e46103d3366004611d53565b6112e2565b6101b46103e6366004611d8c565b6002602052600090815260409020546001600160a01b031681565b6101b47f000000000000000000000000000000000000000000000000000000000000000081565b905090565b60007f0000000000000000000000000000000000000000000000000000000000000000604051632474521560e21b815269676f7665726e616e636560b01b60048201523360248201526001600160a01b0391909116906391d148549060440160206040518083038186803b1580156104a457600080fd5b505afa1580156104b8573d6000803e3d6000fd5b505050506040513d601f19601f820116820180604052508101906104dc9190611e15565b60405180604001604052806013815260200172756e617574686f72697a65642061636365737360681b8152509061052f5760405162461bcd60e51b81526004016105269190611e63565b60405180910390fd5b50600061053b84610aeb565b6001600160a01b031614604051806040016040528060188152602001771e995c9bc81859191c995cdcc81b9bdd08185b1b1bddd95960421b815250906105945760405162461bcd60e51b81526004016105269190611e63565b506040805180820190915260188152771e995c9bc81859191c995cdcc81b9bdd08185b1b1bddd95960421b60208201526001600160a01b0383166105eb5760405162461bcd60e51b81526004016105269190611e63565b506105fe6105f88461147e565b836114d9565b5060019392505050565b60007f0000000000000000000000000000000000000000000000000000000000000000604051632474521560e21b815269676f7665726e616e636560b01b60048201523360248201526001600160a01b0391909116906391d148549060440160206040518083038186803b15801561067f57600080fd5b505afa158015610693573d6000803e3d6000fd5b505050506040513d601f19601f820116820180604052508101906106b79190611e15565b60405180604001604052806013815260200172756e617574686f72697a65642061636365737360681b815250906107015760405162461bcd60e51b81526004016105269190611e63565b5060408051808201909152600e81526d1a5b9d985b1a5908185b5bdd5b9d60921b6020820152670de0b6b3a76400008311156107505760405162461bcd60e51b81526004016105269190611e63565b50610767684b656570657246656560b81b83611564565b92915050565b600061076761077b8361147e565b611574565b684b656570657246656560b81b60005260036020527f46fbd738fa5d44e701d49be219801064ee5964d35f7f3946d57a88ca6bd5e7905490565b60007f0000000000000000000000000000000000000000000000000000000000000000604051632474521560e21b815269676f7665726e616e636560b01b60048201523360248201526001600160a01b0391909116906391d148549060440160206040518083038186803b15801561083157600080fd5b505afa158015610845573d6000803e3d6000fd5b505050506040513d601f19601f820116820180604052508101906108699190611e15565b60405180604001604052806013815260200172756e617574686f72697a65642061636365737360681b815250906108b35760405162461bcd60e51b81526004016105269190611e63565b50610428684b656570657246656560b81b6115a8565b6a547265617375727946656560a81b60005260036020527f7a257e8f29bfe1d0de97f10ac228f173c9eb0267f3cbf293b42ec4a0e86dc96f5490565b6001600160a01b0380821660009081526005602090815260408083208054908490558151630a55006360e21b81529151939490936109de936109cd937f000000000000000000000000000000000000000000000000000000000000000090931692632954018c9260048083019392829003018186803b15801561098757600080fd5b505afa15801561099b573d6000803e3d6000fd5b505050506040513d601f19601f820116820180604052508101906109bf9190611e96565b6001600160a01b031661164f565b6001600160a01b0385169083611689565b50600192915050565b6001600160a01b0380831660009081526006602090815260408083209385168352928152828220548351808501909452601d84527f7468657265206973206e6f20636c61696d61626c652062616c616e636500000091840191909152909181610a635760405162461bcd60e51b81526004016105269190611e63565b506001600160a01b038085166000908152600660209081526040808320938716808452939091528120558390610a9a908684611689565b604080516001600160a01b038681168252602082018590528716917fa2099e15da4f15b4446a2ccd0b9767c2e897c797777c20ab5f5b899a62704e67910160405180910390a2506001949350505050565b600060026000610afa8461147e565b81526020810191909152604001600020546001600160a01b031692915050565b60007f0000000000000000000000000000000000000000000000000000000000000000604051632474521560e21b815269676f7665726e616e636560b01b60048201523360248201526001600160a01b0391909116906391d148549060440160206040518083038186803b158015610b9157600080fd5b505afa158015610ba5573d6000803e3d6000fd5b505050506040513d601f19601f82011682018060405250810190610bc99190611e15565b60405180604001604052806013815260200172756e617574686f72697a65642061636365737360681b81525090610c135760405162461bcd60e51b81526004016105269190611e63565b5060408051808201909152600e81526d1a5b9d985b1a5908185b5bdd5b9d60921b6020820152670de0b6b3a7640000831115610c625760405162461bcd60e51b81526004016105269190611e63565b506107676a547265617375727946656560a81b83611564565b60007f0000000000000000000000000000000000000000000000000000000000000000604051632474521560e21b815269676f7665726e616e636560b01b60048201523360248201526001600160a01b0391909116906391d148549060440160206040518083038186803b158015610cf257600080fd5b505afa158015610d06573d6000803e3d6000fd5b505050506040513d601f19601f82011682018060405250810190610d2a9190611e15565b60405180604001604052806013815260200172756e617574686f72697a65642061636365737360681b81525090610d745760405162461bcd60e51b81526004016105269190611e63565b50610767610d818361147e565b6116f1565b60007f0000000000000000000000000000000000000000000000000000000000000000604051632474521560e21b815269676f7665726e616e636560b01b60048201523360248201526001600160a01b0391909116906391d148549060440160206040518083038186803b158015610dfd57600080fd5b505afa158015610e11573d6000803e3d6000fd5b505050506040513d601f19601f82011682018060405250810190610e359190611e15565b60405180604001604052806013815260200172756e617574686f72697a65642061636365737360681b81525090610e7f5760405162461bcd60e51b81526004016105269190611e63565b506104286a547265617375727946656560a81b6115a8565b60016020527f60c67394e69102ffbeb9a616df8f05bd23ff11b556ace7ba8bedef12119e00a5546a547265617375727946656560a81b60009081527fe37c5cdd27e258abaa4f959c757cd2d7040a9ff7ea53e54acf000117f55809ac549091670de0b6b3a764000091610f0a9190611ec9565b11156040518060400160405280600e81526020016d1a5b9d985b1a5908185b5bdd5b9d60921b81525090610f515760405162461bcd60e51b81526004016105269190611e63565b506104286a547265617375727946656560a81b6117a2565b60016020527f60c67394e69102ffbeb9a616df8f05bd23ff11b556ace7ba8bedef12119e00a5546a547265617375727946656560a81b60009081527fe37c5cdd27e258abaa4f959c757cd2d7040a9ff7ea53e54acf000117f55809ac549091670de0b6b3a764000091610fdc9190611ec9565b11156040518060400160405280600e81526020016d1a5b9d985b1a5908185b5bdd5b9d60921b815250906110235760405162461bcd60e51b81526004016105269190611e63565b50610428684b656570657246656560b81b6117a2565b604080518082019091526013815272756e617574686f72697a65642061636365737360681b6020820152600090336001600160a01b037f000000000000000000000000000000000000000000000000000000000000000016146110af5760405162461bcd60e51b81526004016105269190611e63565b5060006110c46110bd610780565b85906117c6565b905060006110da6110d36108c9565b86906117c6565b9050836110f26001600160a01b0382163330896117e5565b60006110fd86610aeb565b90506001600160a01b0381161561119a576040516303d86c0d60e31b81526001600160a01b038981166004830152602482018690528781166044830152821690631ec3606890606401602060405180830381600087803b15801561116057600080fd5b505af1158015611174573d6000803e3d6000fd5b505050506040513d601f19601f820116820180604052508101906111989190611e15565b505b6001600160a01b038089166000908152600660209081526040808320938a16835292905290812080548692906111d1908490611ec9565b90915550506001600160a01b038616600090815260056020526040812080548592906111fe908490611ec9565b909155506000905083611211868a611ee1565b61121b9190611ee1565b604051630852cd8d60e31b8152600481018290529091506001600160a01b038416906342966c6890602401600060405180830381600087803b15801561126057600080fd5b505af1158015611274573d6000803e3d6000fd5b5050604080516001600160a01b038b81168252602082018d905291810189905260608101859052818d169350908d1691507ffa9d128d86552a91243363427b3fde4f942de701bf1f81908816fc2c056750859060800160405180910390a35060019998505050505050505050565b60007f0000000000000000000000000000000000000000000000000000000000000000604051632474521560e21b815269676f7665726e616e636560b01b60048201523360248201526001600160a01b0391909116906391d148549060440160206040518083038186803b15801561135957600080fd5b505afa15801561136d573d6000803e3d6000fd5b505050506040513d601f19601f820116820180604052508101906113919190611e15565b60405180604001604052806013815260200172756e617574686f72697a65642061636365737360681b815250906113db5760405162461bcd60e51b81526004016105269190611e63565b506113ee6113e88461147e565b83611823565b9392505050565b6040516321f8a72160e01b81526a3937b632a6b0b730b3b2b960a91b60048201526000906001600160a01b038316906321f8a721906024015b60206040518083038186803b15801561144657600080fd5b505afa15801561145a573d6000803e3d6000fd5b505050506040513d601f19601f820116820180604052508101906107679190611e96565b60006a4b6565706572476175676560a81b826040516020016114bc92919091825260601b6bffffffffffffffffffffffff1916602082015260340190565b604051602081830303815290604052805190602001209050919050565b600082815260026020908152604080832080546001600160a01b03198082166001600160a01b038881169182179094558686528487208054909216909155600485528386208690558351929091168083529382015285917fc4a957706c639829ad54381b04930c464db6c7ffdc09d2b4b1acc9ee34fb926191015b60405180910390a2509092915050565b60006113ee83836203f480611833565b600061157f82611897565b6000828152602081905260409020546001600160a01b03166115a183826114d9565b5092915050565b600081815260046020908152604080832054815180830190925260128252710646561646c696e65206d75737420626520360741b92820192909252906116015760405162461bcd60e51b81526004016105269190611e63565b50600082815260046020908152604080832083905560019091528082208290555183917f90fb84ad67dd037c388289337bb80b61b8605d38ba9a875dc38b5600909d172f91a2506001919050565b6040516321f8a72160e01b815267747265617375727960c01b60048201526000906001600160a01b038316906321f8a7219060240161142e565b6040516001600160a01b0383166024820152604481018290526116ec90849063a9059cbb60e01b906064015b60408051601f198184030181529190526020810180516001600160e01b03166001600160e01b031990931692909217909152611940565b505050565b600081815260046020908152604080832054815180830190925260128252710646561646c696e65206d75737420626520360741b928201929092529061174a5760405162461bcd60e51b81526004016105269190611e63565b5060008281526004602090815260408083208390559082905280822080546001600160a01b03191690555183917f90fb84ad67dd037c388289337bb80b61b8605d38ba9a875dc38b5600909d172f91a2506001919050565b60006117ad82611897565b6000828152600160205260409020546115a18382611a12565b6000670de0b6b3a76400006117db8385611ef8565b6113ee9190611f17565b6040516001600160a01b038085166024830152831660448201526064810182905261181d9085906323b872dd60e01b906084016116b5565b50505050565b60006113ee83836203f480611a73565b600061183f8483611ae0565b600084815260016020908152604091829020859055815185815290810184905285917f0e6790002e78fb96ff1fdfe3a3bb2a86489d3f3923372c1fe5b6b1fed071eed491015b60405180910390a25060019392505050565b60006004600083815260200190815260200160002054905080421015604051806060016040528060218152602001611f5660219139906118ea5760405162461bcd60e51b81526004016105269190611e63565b5060408051808201909152600d81526c0646561646c696e65206973203609c1b60208201528161192d5760405162461bcd60e51b81526004016105269190611e63565b5050600090815260046020526040812055565b6000611995826040518060400160405280602081526020017f5361666545524332303a206c6f772d6c6576656c2063616c6c206661696c6564815250856001600160a01b0316611bba9092919063ffffffff16565b8051909150156116ec57808060200190518101906119b39190611e15565b6116ec5760405162461bcd60e51b815260206004820152602a60248201527f5361666545524332303a204552433230206f7065726174696f6e20646964206e6044820152691bdd081cdd58d8d9595960b21b6064820152608401610526565b6000828152600360209081526040808320805490859055600183528184208490556004835281842084905581518181529283018590529185917fcc0bafe2accb565ea70674bf4b2555e49a47d410fb9932dfab3e5f41855d0a2f9101611554565b6000611a7f8483611ae0565b6000848152602081815260409182902080546001600160a01b0319166001600160a01b038716908117909155825190815290810184905285917fd46e58ee9dc1ae703349f8c09c19f23213a531b4d57f00cfd4a5a6cb6519668d9101611885565b6004600083815260200190815260200160002054600014604051806040016040528060128152602001710646561646c696e65206d75737420626520360741b81525090611b405760405162461bcd60e51b81526004016105269190611e63565b5060408051808201909152601881527f64656c6179206265206174206c6561737420332064617973000000000000000060208201526203f480821015611b995760405162461bcd60e51b81526004016105269190611e63565b50611ba48142611ec9565b6000928352600460205260409092209190915550565b6060611bc98484600085611bd1565b949350505050565b606082471015611c325760405162461bcd60e51b815260206004820152602660248201527f416464726573733a20696e73756666696369656e742062616c616e636520666f6044820152651c8818d85b1b60d21b6064820152608401610526565b6001600160a01b0385163b611c895760405162461bcd60e51b815260206004820152601d60248201527f416464726573733a2063616c6c20746f206e6f6e2d636f6e74726163740000006044820152606401610526565b600080866001600160a01b03168587604051611ca59190611f39565b60006040518083038185875af1925050503d8060008114611ce2576040519150601f19603f3d011682016040523d82523d6000602084013e611ce7565b606091505b5091509150611cf7828286611d02565b979650505050505050565b60608315611d115750816113ee565b825115611d215782518084602001fd5b8160405162461bcd60e51b81526004016105269190611e63565b6001600160a01b0381168114611d5057600080fd5b50565b60008060408385031215611d6657600080fd5b8235611d7181611d3b565b91506020830135611d8181611d3b565b809150509250929050565b600060208284031215611d9e57600080fd5b5035919050565b600060208284031215611db757600080fd5b81356113ee81611d3b565b60008060008060808587031215611dd857600080fd5b8435611de381611d3b565b93506020850135611df381611d3b565b9250604085013591506060850135611e0a81611d3b565b939692955090935050565b600060208284031215611e2757600080fd5b815180151581146113ee57600080fd5b60005b83811015611e52578181015183820152602001611e3a565b8381111561181d5750506000910152565b6020815260008251806020840152611e82816040850160208701611e37565b601f01601f19169190910160400192915050565b600060208284031215611ea857600080fd5b81516113ee81611d3b565b634e487b7160e01b600052601160045260246000fd5b60008219821115611edc57611edc611eb3565b500190565b600082821015611ef357611ef3611eb3565b500390565b6000816000190483118215151615611f1257611f12611eb3565b500290565b600082611f3457634e487b7160e01b600052601260045260246000fd5b500490565b60008251611f4b818460208701611e37565b919091019291505056fe646561646c696e6520686173206e6f74206265656e207265616368656420796574a26469706673582212200c287048605306d5dc2ef0523c25bd2006f02824c699a3d948fb6eb92d81a50664736f6c63430008090033","bytecodeSha1":"b6f053450ca8c53e05e0c416cbe35036e2a7cc2f","compiler":{"evm_version":"london","optimizer":{"enabled":true,"runs":200},"version":"0.8.9+commit.e5eed63a"},"contractName":"TopUpActionFeeHandler","language":"Solidity","natspec":{"kind":"dev","methods":{"claimKeeperFeesForPool(address,address)":{"notice":"Claim all accrued fees for an LPToken.","params":{"beneficiary":"Address to claim the fees for.","token":"Address of the lpToken for claiming."},"returns":{"_0":"`true` if successful."}},"claimTreasuryFees(address)":{"notice":"Claim all accrued treasury fees for an LPToken.","params":{"token":"Address of the lpToken for claiming."},"returns":{"_0":"`true` if successful."}},"executeKeeperFee()":{"details":"Needs to be called after the update was prepraed. Fails if called before time delay is met.","notice":"Execute update of keeper fee (with time delay enforced).","returns":{"_0":"New keeper fee."}},"executeTreasuryFee()":{"details":"Needs to be called after the update was prepraed. Fails if called before time delay is met.","notice":"Execute update of treasury fee (with time delay enforced).","returns":{"_0":"New treasury fee."}},"payFees(address,address,uint256,address)":{"notice":"Transfers the keeper and treasury fees to the fee handler and burns LP fees.","params":{"amount":"Total fee value (both keeper and LP fees).","beneficiary":"Beneficiary of the fees paid (usually this will be the keeper).","lpTokenAddress":"Address of the lpToken used to pay fees.","payer":"Account who's position the fees are charged on."},"returns":{"_0":"`true` if successful."}},"prepareKeeperFee(uint256)":{"notice":"Prepare update of keeper fee (with time delay enforced).","params":{"newKeeperFee":"New keeper fee value."},"returns":{"_0":"`true` if successful."}},"prepareTreasuryFee(uint256)":{"notice":"Prepare update of treasury fee (with time delay enforced).","params":{"newTreasuryFee":"New treasury fee value."},"returns":{"_0":"`true` if successful."}}},"notice":"Contract to manage the distribution protocol fees","version":1},"opcodes":"PUSH1 0x80 PUSH1 0x40 MSTORE CALLVALUE DUP1 ISZERO PUSH2 0x10 JUMPI PUSH1 0x0 DUP1 REVERT JUMPDEST POP PUSH1 0x4 CALLDATASIZE LT PUSH2 0x18D JUMPI PUSH1 0x0 CALLDATALOAD PUSH1 0xE0 SHR DUP1 PUSH4 0x90F6CE0C GT PUSH2 0xDE JUMPI DUP1 PUSH4 0xCB440173 GT PUSH2 0x97 JUMPI DUP1 PUSH4 0xE73C3615 GT PUSH2 0x71 JUMPI DUP1 PUSH4 0xE73C3615 EQ PUSH2 0x39A JUMPI DUP1 PUSH4 0xEE036A75 EQ PUSH2 0x3C5 JUMPI DUP1 PUSH4 0xF76C3399 EQ PUSH2 0x3D8 JUMPI DUP1 PUSH4 0xF77C4791 EQ PUSH2 0x401 JUMPI PUSH1 0x0 DUP1 REVERT JUMPDEST DUP1 PUSH4 0xCB440173 EQ PUSH2 0x356 JUMPI DUP1 PUSH4 0xCFD93E32 EQ PUSH2 0x35E JUMPI DUP1 PUSH4 0xE3976EDF EQ PUSH2 0x371 JUMPI PUSH1 0x0 DUP1 REVERT JUMPDEST DUP1 PUSH4 0x90F6CE0C EQ PUSH2 0x2ED JUMPI DUP1 PUSH4 0xA151EAB1 EQ PUSH2 0x300 JUMPI DUP1 PUSH4 0xAC3483B0 EQ PUSH2 0x313 JUMPI DUP1 PUSH4 0xAFF1B7E4 EQ PUSH2 0x326 JUMPI DUP1 PUSH4 0xB94F5BDF EQ PUSH2 0x346 JUMPI DUP1 PUSH4 0xBBEFFD85 EQ PUSH2 0x34E JUMPI PUSH1 0x0 DUP1 REVERT JUMPDEST DUP1 PUSH4 0x39BEF366 GT PUSH2 0x14B JUMPI DUP1 PUSH4 0x72038B18 GT PUSH2 0x125 JUMPI DUP1 PUSH4 0x72038B18 EQ PUSH2 0x29F JUMPI DUP1 PUSH4 0x7265FC91 EQ PUSH2 0x2A7 JUMPI DUP1 PUSH4 0x77233752 EQ PUSH2 0x2BA JUMPI DUP1 PUSH4 0x8FE96732 EQ PUSH2 0x2DA JUMPI PUSH1 0x0 DUP1 REVERT JUMPDEST DUP1 PUSH4 0x39BEF366 EQ PUSH2 0x268 JUMPI DUP1 PUSH4 0x444116B5 EQ PUSH2 0x270 JUMPI DUP1 PUSH4 0x5FE8AF5D EQ PUSH2 0x297 JUMPI PUSH1 0x0 DUP1 REVERT JUMPDEST DUP1 PUSH3 0x435DA5 EQ PUSH2 0x192 JUMPI DUP1 PUSH4 0xF2703A2 EQ PUSH2 0x1D1 JUMPI DUP1 PUSH4 0x12BB00EE EQ PUSH2 0x1F4 JUMPI DUP1 PUSH4 0x15DBFE62 EQ PUSH2 0x207 JUMPI DUP1 PUSH4 0x2A565551 EQ PUSH2 0x235 JUMPI DUP1 PUSH4 0x346A4A51 EQ PUSH2 0x248 JUMPI JUMPDEST PUSH1 0x0 DUP1 REVERT JUMPDEST PUSH32 0x0 JUMPDEST PUSH1 0x40 MLOAD PUSH1 0x1 PUSH1 0x1 PUSH1 0xA0 SHL SUB SWAP1 SWAP2 AND DUP2 MSTORE PUSH1 0x20 ADD JUMPDEST PUSH1 0x40 MLOAD DUP1 SWAP2 SUB SWAP1 RETURN JUMPDEST PUSH2 0x1E4 PUSH2 0x1DF CALLDATASIZE PUSH1 0x4 PUSH2 0x1D53 JUMP JUMPDEST PUSH2 0x42D JUMP JUMPDEST PUSH1 0x40 MLOAD SWAP1 ISZERO ISZERO DUP2 MSTORE PUSH1 0x20 ADD PUSH2 0x1C8 JUMP JUMPDEST PUSH2 0x1E4 PUSH2 0x202 CALLDATASIZE PUSH1 0x4 PUSH2 0x1D8C JUMP JUMPDEST PUSH2 0x608 JUMP JUMPDEST PUSH2 0x227 PUSH2 0x215 CALLDATASIZE PUSH1 0x4 PUSH2 0x1D8C JUMP JUMPDEST PUSH1 0x1 PUSH1 0x20 MSTORE PUSH1 0x0 SWAP1 DUP2 MSTORE PUSH1 0x40 SWAP1 KECCAK256 SLOAD DUP2 JUMP JUMPDEST PUSH1 0x40 MLOAD SWAP1 DUP2 MSTORE PUSH1 0x20 ADD PUSH2 0x1C8 JUMP JUMPDEST PUSH2 0x1B4 PUSH2 0x243 CALLDATASIZE PUSH1 0x4 PUSH2 0x1DA5 JUMP JUMPDEST PUSH2 0x76D JUMP JUMPDEST PUSH2 0x227 PUSH2 0x256 CALLDATASIZE PUSH1 0x4 PUSH2 0x1D8C JUMP JUMPDEST PUSH1 0x4 PUSH1 0x20 MSTORE PUSH1 0x0 SWAP1 DUP2 MSTORE PUSH1 0x40 SWAP1 KECCAK256 SLOAD DUP2 JUMP JUMPDEST PUSH2 0x227 PUSH2 0x780 JUMP JUMPDEST PUSH2 0x1B4 PUSH32 0x0 DUP2 JUMP JUMPDEST PUSH2 0x1E4 PUSH2 0x7BA JUMP JUMPDEST PUSH2 0x227 PUSH2 0x8C9 JUMP JUMPDEST PUSH2 0x1E4 PUSH2 0x2B5 CALLDATASIZE PUSH1 0x4 PUSH2 0x1DA5 JUMP JUMPDEST PUSH2 0x905 JUMP JUMPDEST PUSH2 0x227 PUSH2 0x2C8 CALLDATASIZE PUSH1 0x4 PUSH2 0x1DA5 JUMP JUMPDEST PUSH1 0x5 PUSH1 0x20 MSTORE PUSH1 0x0 SWAP1 DUP2 MSTORE PUSH1 0x40 SWAP1 KECCAK256 SLOAD DUP2 JUMP JUMPDEST PUSH2 0x1E4 PUSH2 0x2E8 CALLDATASIZE PUSH1 0x4 PUSH2 0x1D53 JUMP JUMPDEST PUSH2 0x9E7 JUMP JUMPDEST PUSH2 0x1B4 PUSH2 0x2FB CALLDATASIZE PUSH1 0x4 PUSH2 0x1DA5 JUMP JUMPDEST PUSH2 0xAEB JUMP JUMPDEST PUSH2 0x1E4 PUSH2 0x30E CALLDATASIZE PUSH1 0x4 PUSH2 0x1D8C JUMP JUMPDEST PUSH2 0xB1A JUMP JUMPDEST PUSH2 0x1E4 PUSH2 0x321 CALLDATASIZE PUSH1 0x4 PUSH2 0x1DA5 JUMP JUMPDEST PUSH2 0xC7B JUMP JUMPDEST PUSH2 0x227 PUSH2 0x334 CALLDATASIZE PUSH1 0x4 PUSH2 0x1D8C JUMP JUMPDEST PUSH1 0x3 PUSH1 0x20 MSTORE PUSH1 0x0 SWAP1 DUP2 MSTORE PUSH1 0x40 SWAP1 KECCAK256 SLOAD DUP2 JUMP JUMPDEST PUSH2 0x1E4 PUSH2 0xD86 JUMP JUMPDEST PUSH2 0x227 PUSH2 0xE97 JUMP JUMPDEST PUSH2 0x227 PUSH2 0xF69 JUMP JUMPDEST PUSH2 0x1E4 PUSH2 0x36C CALLDATASIZE PUSH1 0x4 PUSH2 0x1DC2 JUMP JUMPDEST PUSH2 0x1039 JUMP JUMPDEST PUSH2 0x1B4 PUSH2 0x37F CALLDATASIZE PUSH1 0x4 PUSH2 0x1D8C JUMP JUMPDEST PUSH1 0x0 PUSH1 0x20 DUP2 SWAP1 MSTORE SWAP1 DUP2 MSTORE PUSH1 0x40 SWAP1 KECCAK256 SLOAD PUSH1 0x1 PUSH1 0x1 PUSH1 0xA0 SHL SUB AND DUP2 JUMP JUMPDEST PUSH2 0x227 PUSH2 0x3A8 CALLDATASIZE PUSH1 0x4 PUSH2 0x1D53 JUMP JUMPDEST PUSH1 0x6 PUSH1 0x20 SWAP1 DUP2 MSTORE PUSH1 0x0 SWAP3 DUP4 MSTORE PUSH1 0x40 DUP1 DUP5 KECCAK256 SWAP1 SWAP2 MSTORE SWAP1 DUP3 MSTORE SWAP1 KECCAK256 SLOAD DUP2 JUMP JUMPDEST PUSH2 0x1E4 PUSH2 0x3D3 CALLDATASIZE PUSH1 0x4 PUSH2 0x1D53 JUMP JUMPDEST PUSH2 0x12E2 JUMP JUMPDEST PUSH2 0x1B4 PUSH2 0x3E6 CALLDATASIZE PUSH1 0x4 PUSH2 0x1D8C JUMP JUMPDEST PUSH1 0x2 PUSH1 0x20 MSTORE PUSH1 0x0 SWAP1 DUP2 MSTORE PUSH1 0x40 SWAP1 KECCAK256 SLOAD PUSH1 0x1 PUSH1 0x1 PUSH1 0xA0 SHL SUB AND DUP2 JUMP JUMPDEST PUSH2 0x1B4 PUSH32 0x0 DUP2 JUMP JUMPDEST SWAP1 POP SWAP1 JUMP JUMPDEST PUSH1 0x0 PUSH32 0x0 PUSH1 0x40 MLOAD PUSH4 0x24745215 PUSH1 0xE2 SHL DUP2 MSTORE PUSH10 0x676F7665726E616E6365 PUSH1 0xB0 SHL PUSH1 0x4 DUP3 ADD MSTORE CALLER PUSH1 0x24 DUP3 ADD MSTORE PUSH1 0x1 PUSH1 0x1 PUSH1 0xA0 SHL SUB SWAP2 SWAP1 SWAP2 AND SWAP1 PUSH4 0x91D14854 SWAP1 PUSH1 0x44 ADD PUSH1 0x20 PUSH1 0x40 MLOAD DUP1 DUP4 SUB DUP2 DUP7 DUP1 EXTCODESIZE ISZERO DUP1 ISZERO PUSH2 0x4A4 JUMPI PUSH1 0x0 DUP1 REVERT JUMPDEST POP GAS STATICCALL ISZERO DUP1 ISZERO PUSH2 0x4B8 JUMPI RETURNDATASIZE PUSH1 0x0 DUP1 RETURNDATACOPY RETURNDATASIZE PUSH1 0x0 REVERT JUMPDEST POP POP POP POP PUSH1 0x40 MLOAD RETURNDATASIZE PUSH1 0x1F NOT PUSH1 0x1F DUP3 ADD AND DUP3 ADD DUP1 PUSH1 0x40 MSTORE POP DUP2 ADD SWAP1 PUSH2 0x4DC SWAP2 SWAP1 PUSH2 0x1E15 JUMP JUMPDEST PUSH1 0x40 MLOAD DUP1 PUSH1 0x40 ADD PUSH1 0x40 MSTORE DUP1 PUSH1 0x13 DUP2 MSTORE PUSH1 0x20 ADD PUSH19 0x756E617574686F72697A656420616363657373 PUSH1 0x68 SHL DUP2 MSTORE POP SWAP1 PUSH2 0x52F JUMPI PUSH1 0x40 MLOAD PUSH3 0x461BCD PUSH1 0xE5 SHL DUP2 MSTORE PUSH1 0x4 ADD PUSH2 0x526 SWAP2 SWAP1 PUSH2 0x1E63 JUMP JUMPDEST PUSH1 0x40 MLOAD DUP1 SWAP2 SUB SWAP1 REVERT JUMPDEST POP PUSH1 0x0 PUSH2 0x53B DUP5 PUSH2 0xAEB JUMP JUMPDEST PUSH1 0x1 PUSH1 0x1 PUSH1 0xA0 SHL SUB AND EQ PUSH1 0x40 MLOAD DUP1 PUSH1 0x40 ADD PUSH1 0x40 MSTORE DUP1 PUSH1 0x18 DUP2 MSTORE PUSH1 0x20 ADD PUSH24 0x1E995C9BC81859191C995CDCC81B9BDD08185B1B1BDDD959 PUSH1 0x42 SHL DUP2 MSTORE POP SWAP1 PUSH2 0x594 JUMPI PUSH1 0x40 MLOAD PUSH3 0x461BCD PUSH1 0xE5 SHL DUP2 MSTORE PUSH1 0x4 ADD PUSH2 0x526 SWAP2 SWAP1 PUSH2 0x1E63 JUMP JUMPDEST POP PUSH1 0x40 DUP1 MLOAD DUP1 DUP3 ADD SWAP1 SWAP2 MSTORE PUSH1 0x18 DUP2 MSTORE PUSH24 0x1E995C9BC81859191C995CDCC81B9BDD08185B1B1BDDD959 PUSH1 0x42 SHL PUSH1 0x20 DUP3 ADD MSTORE PUSH1 0x1 PUSH1 0x1 PUSH1 0xA0 SHL SUB DUP4 AND PUSH2 0x5EB JUMPI PUSH1 0x40 MLOAD PUSH3 0x461BCD PUSH1 0xE5 SHL DUP2 MSTORE PUSH1 0x4 ADD PUSH2 0x526 SWAP2 SWAP1 PUSH2 0x1E63 JUMP JUMPDEST POP PUSH2 0x5FE PUSH2 0x5F8 DUP5 PUSH2 0x147E JUMP JUMPDEST DUP4 PUSH2 0x14D9 JUMP JUMPDEST POP PUSH1 0x1 SWAP4 SWAP3 POP POP POP JUMP JUMPDEST PUSH1 0x0 PUSH32 0x0 PUSH1 0x40 MLOAD PUSH4 0x24745215 PUSH1 0xE2 SHL DUP2 MSTORE PUSH10 0x676F7665726E616E6365 PUSH1 0xB0 SHL PUSH1 0x4 DUP3 ADD MSTORE CALLER PUSH1 0x24 DUP3 ADD MSTORE PUSH1 0x1 PUSH1 0x1 PUSH1 0xA0 SHL SUB SWAP2 SWAP1 SWAP2 AND SWAP1 PUSH4 0x91D14854 SWAP1 PUSH1 0x44 ADD PUSH1 0x20 PUSH1 0x40 MLOAD DUP1 DUP4 SUB DUP2 DUP7 DUP1 EXTCODESIZE ISZERO DUP1 ISZERO PUSH2 0x67F JUMPI PUSH1 0x0 DUP1 REVERT JUMPDEST POP GAS STATICCALL ISZERO DUP1 ISZERO PUSH2 0x693 JUMPI RETURNDATASIZE PUSH1 0x0 DUP1 RETURNDATACOPY RETURNDATASIZE PUSH1 0x0 REVERT JUMPDEST POP POP POP POP PUSH1 0x40 MLOAD RETURNDATASIZE PUSH1 0x1F NOT PUSH1 0x1F DUP3 ADD AND DUP3 ADD DUP1 PUSH1 0x40 MSTORE POP DUP2 ADD SWAP1 PUSH2 0x6B7 SWAP2 SWAP1 PUSH2 0x1E15 JUMP JUMPDEST PUSH1 0x40 MLOAD DUP1 PUSH1 0x40 ADD PUSH1 0x40 MSTORE DUP1 PUSH1 0x13 DUP2 MSTORE PUSH1 0x20 ADD PUSH19 0x756E617574686F72697A656420616363657373 PUSH1 0x68 SHL DUP2 MSTORE POP SWAP1 PUSH2 0x701 JUMPI PUSH1 0x40 MLOAD PUSH3 0x461BCD PUSH1 0xE5 SHL DUP2 MSTORE PUSH1 0x4 ADD PUSH2 0x526 SWAP2 SWAP1 PUSH2 0x1E63 JUMP JUMPDEST POP PUSH1 0x40 DUP1 MLOAD DUP1 DUP3 ADD SWAP1 SWAP2 MSTORE PUSH1 0xE DUP2 MSTORE PUSH14 0x1A5B9D985B1A5908185B5BDD5B9D PUSH1 0x92 SHL PUSH1 0x20 DUP3 ADD MSTORE PUSH8 0xDE0B6B3A7640000 DUP4 GT ISZERO PUSH2 0x750 JUMPI PUSH1 0x40 MLOAD PUSH3 0x461BCD PUSH1 0xE5 SHL DUP2 MSTORE PUSH1 0x4 ADD PUSH2 0x526 SWAP2 SWAP1 PUSH2 0x1E63 JUMP JUMPDEST POP PUSH2 0x767 PUSH9 0x4B6565706572466565 PUSH1 0xB8 SHL DUP4 PUSH2 0x1564 JUMP JUMPDEST SWAP3 SWAP2 POP POP JUMP JUMPDEST PUSH1 0x0 PUSH2 0x767 PUSH2 0x77B DUP4 PUSH2 0x147E JUMP JUMPDEST PUSH2 0x1574 JUMP JUMPDEST PUSH9 0x4B6565706572466565 PUSH1 0xB8 SHL PUSH1 0x0 MSTORE PUSH1 0x3 PUSH1 0x20 MSTORE PUSH32 0x46FBD738FA5D44E701D49BE219801064EE5964D35F7F3946D57A88CA6BD5E790 SLOAD SWAP1 JUMP JUMPDEST PUSH1 0x0 PUSH32 0x0 PUSH1 0x40 MLOAD PUSH4 0x24745215 PUSH1 0xE2 SHL DUP2 MSTORE PUSH10 0x676F7665726E616E6365 PUSH1 0xB0 SHL PUSH1 0x4 DUP3 ADD MSTORE CALLER PUSH1 0x24 DUP3 ADD MSTORE PUSH1 0x1 PUSH1 0x1 PUSH1 0xA0 SHL SUB SWAP2 SWAP1 SWAP2 AND SWAP1 PUSH4 0x91D14854 SWAP1 PUSH1 0x44 ADD PUSH1 0x20 PUSH1 0x40 MLOAD DUP1 DUP4 SUB DUP2 DUP7 DUP1 EXTCODESIZE ISZERO DUP1 ISZERO PUSH2 0x831 JUMPI PUSH1 0x0 DUP1 REVERT JUMPDEST POP GAS STATICCALL ISZERO DUP1 ISZERO PUSH2 0x845 JUMPI RETURNDATASIZE PUSH1 0x0 DUP1 RETURNDATACOPY RETURNDATASIZE PUSH1 0x0 REVERT JUMPDEST POP POP POP POP PUSH1 0x40 MLOAD RETURNDATASIZE PUSH1 0x1F NOT PUSH1 0x1F DUP3 ADD AND DUP3 ADD DUP1 PUSH1 0x40 MSTORE POP DUP2 ADD SWAP1 PUSH2 0x869 SWAP2 SWAP1 PUSH2 0x1E15 JUMP JUMPDEST PUSH1 0x40 MLOAD DUP1 PUSH1 0x40 ADD PUSH1 0x40 MSTORE DUP1 PUSH1 0x13 DUP2 MSTORE PUSH1 0x20 ADD PUSH19 0x756E617574686F72697A656420616363657373 PUSH1 0x68 SHL DUP2 MSTORE POP SWAP1 PUSH2 0x8B3 JUMPI PUSH1 0x40 MLOAD PUSH3 0x461BCD PUSH1 0xE5 SHL DUP2 MSTORE PUSH1 0x4 ADD PUSH2 0x526 SWAP2 SWAP1 PUSH2 0x1E63 JUMP JUMPDEST POP PUSH2 0x428 PUSH9 0x4B6565706572466565 PUSH1 0xB8 SHL PUSH2 0x15A8 JUMP JUMPDEST PUSH11 0x5472656173757279466565 PUSH1 0xA8 SHL PUSH1 0x0 MSTORE PUSH1 0x3 PUSH1 0x20 MSTORE PUSH32 0x7A257E8F29BFE1D0DE97F10AC228F173C9EB0267F3CBF293B42EC4A0E86DC96F SLOAD SWAP1 JUMP JUMPDEST PUSH1 0x1 PUSH1 0x1 PUSH1 0xA0 SHL SUB DUP1 DUP3 AND PUSH1 0x0 SWAP1 DUP2 MSTORE PUSH1 0x5 PUSH1 0x20 SWAP1 DUP2 MSTORE PUSH1 0x40 DUP1 DUP4 KECCAK256 DUP1 SLOAD SWAP1 DUP5 SWAP1 SSTORE DUP2 MLOAD PUSH4 0xA550063 PUSH1 0xE2 SHL DUP2 MSTORE SWAP2 MLOAD SWAP4 SWAP5 SWAP1 SWAP4 PUSH2 0x9DE SWAP4 PUSH2 0x9CD SWAP4 PUSH32 0x0 SWAP1 SWAP4 AND SWAP3 PUSH4 0x2954018C SWAP3 PUSH1 0x4 DUP1 DUP4 ADD SWAP4 SWAP3 DUP3 SWAP1 SUB ADD DUP2 DUP7 DUP1 EXTCODESIZE ISZERO DUP1 ISZERO PUSH2 0x987 JUMPI PUSH1 0x0 DUP1 REVERT JUMPDEST POP GAS STATICCALL ISZERO DUP1 ISZERO PUSH2 0x99B JUMPI RETURNDATASIZE PUSH1 0x0 DUP1 RETURNDATACOPY RETURNDATASIZE PUSH1 0x0 REVERT JUMPDEST POP POP POP POP PUSH1 0x40 MLOAD RETURNDATASIZE PUSH1 0x1F NOT PUSH1 0x1F DUP3 ADD AND DUP3 ADD DUP1 PUSH1 0x40 MSTORE POP DUP2 ADD SWAP1 PUSH2 0x9BF SWAP2 SWAP1 PUSH2 0x1E96 JUMP JUMPDEST PUSH1 0x1 PUSH1 0x1 PUSH1 0xA0 SHL SUB AND PUSH2 0x164F JUMP JUMPDEST PUSH1 0x1 PUSH1 0x1 PUSH1 0xA0 SHL SUB DUP6 AND SWAP1 DUP4 PUSH2 0x1689 JUMP JUMPDEST POP PUSH1 0x1 SWAP3 SWAP2 POP POP JUMP JUMPDEST PUSH1 0x1 PUSH1 0x1 PUSH1 0xA0 SHL SUB DUP1 DUP4 AND PUSH1 0x0 SWAP1 DUP2 MSTORE PUSH1 0x6 PUSH1 0x20 SWAP1 DUP2 MSTORE PUSH1 0x40 DUP1 DUP4 KECCAK256 SWAP4 DUP6 AND DUP4 MSTORE SWAP3 DUP2 MSTORE DUP3 DUP3 KECCAK256 SLOAD DUP4 MLOAD DUP1 DUP6 ADD SWAP1 SWAP5 MSTORE PUSH1 0x1D DUP5 MSTORE PUSH32 0x7468657265206973206E6F20636C61696D61626C652062616C616E6365000000 SWAP2 DUP5 ADD SWAP2 SWAP1 SWAP2 MSTORE SWAP1 SWAP2 DUP2 PUSH2 0xA63 JUMPI PUSH1 0x40 MLOAD PUSH3 0x461BCD PUSH1 0xE5 SHL DUP2 MSTORE PUSH1 0x4 ADD PUSH2 0x526 SWAP2 SWAP1 PUSH2 0x1E63 JUMP JUMPDEST POP PUSH1 0x1 PUSH1 0x1 PUSH1 0xA0 SHL SUB DUP1 DUP6 AND PUSH1 0x0 SWAP1 DUP2 MSTORE PUSH1 0x6 PUSH1 0x20 SWAP1 DUP2 MSTORE PUSH1 0x40 DUP1 DUP4 KECCAK256 SWAP4 DUP8 AND DUP1 DUP5 MSTORE SWAP4 SWAP1 SWAP2 MSTORE DUP2 KECCAK256 SSTORE DUP4 SWAP1 PUSH2 0xA9A SWAP1 DUP7 DUP5 PUSH2 0x1689 JUMP JUMPDEST PUSH1 0x40 DUP1 MLOAD PUSH1 0x1 PUSH1 0x1 PUSH1 0xA0 SHL SUB DUP7 DUP2 AND DUP3 MSTORE PUSH1 0x20 DUP3 ADD DUP6 SWAP1 MSTORE DUP8 AND SWAP2 PUSH32 0xA2099E15DA4F15B4446A2CCD0B9767C2E897C797777C20AB5F5B899A62704E67 SWAP2 ADD PUSH1 0x40 MLOAD DUP1 SWAP2 SUB SWAP1 LOG2 POP PUSH1 0x1 SWAP5 SWAP4 POP POP POP POP JUMP JUMPDEST PUSH1 0x0 PUSH1 0x2 PUSH1 0x0 PUSH2 0xAFA DUP5 PUSH2 0x147E JUMP JUMPDEST DUP2 MSTORE PUSH1 0x20 DUP2 ADD SWAP2 SWAP1 SWAP2 MSTORE PUSH1 0x40 ADD PUSH1 0x0 KECCAK256 SLOAD PUSH1 0x1 PUSH1 0x1 PUSH1 0xA0 SHL SUB AND SWAP3 SWAP2 POP POP JUMP JUMPDEST PUSH1 0x0 PUSH32 0x0 PUSH1 0x40 MLOAD PUSH4 0x24745215 PUSH1 0xE2 SHL DUP2 MSTORE PUSH10 0x676F7665726E616E6365 PUSH1 0xB0 SHL PUSH1 0x4 DUP3 ADD MSTORE CALLER PUSH1 0x24 DUP3 ADD MSTORE PUSH1 0x1 PUSH1 0x1 PUSH1 0xA0 SHL SUB SWAP2 SWAP1 SWAP2 AND SWAP1 PUSH4 0x91D14854 SWAP1 PUSH1 0x44 ADD PUSH1 0x20 PUSH1 0x40 MLOAD DUP1 DUP4 SUB DUP2 DUP7 DUP1 EXTCODESIZE ISZERO DUP1 ISZERO PUSH2 0xB91 JUMPI PUSH1 0x0 DUP1 REVERT JUMPDEST POP GAS STATICCALL ISZERO DUP1 ISZERO PUSH2 0xBA5 JUMPI RETURNDATASIZE PUSH1 0x0 DUP1 RETURNDATACOPY RETURNDATASIZE PUSH1 0x0 REVERT JUMPDEST POP POP POP POP PUSH1 0x40 MLOAD RETURNDATASIZE PUSH1 0x1F NOT PUSH1 0x1F DUP3 ADD AND DUP3 ADD DUP1 PUSH1 0x40 MSTORE POP DUP2 ADD SWAP1 PUSH2 0xBC9 SWAP2 SWAP1 PUSH2 0x1E15 JUMP JUMPDEST PUSH1 0x40 MLOAD DUP1 PUSH1 0x40 ADD PUSH1 0x40 MSTORE DUP1 PUSH1 0x13 DUP2 MSTORE PUSH1 0x20 ADD PUSH19 0x756E617574686F72697A656420616363657373 PUSH1 0x68 SHL DUP2 MSTORE POP SWAP1 PUSH2 0xC13 JUMPI PUSH1 0x40 MLOAD PUSH3 0x461BCD PUSH1 0xE5 SHL DUP2 MSTORE PUSH1 0x4 ADD PUSH2 0x526 SWAP2 SWAP1 PUSH2 0x1E63 JUMP JUMPDEST POP PUSH1 0x40 DUP1 MLOAD DUP1 DUP3 ADD SWAP1 SWAP2 MSTORE PUSH1 0xE DUP2 MSTORE PUSH14 0x1A5B9D985B1A5908185B5BDD5B9D PUSH1 0x92 SHL PUSH1 0x20 DUP3 ADD MSTORE PUSH8 0xDE0B6B3A7640000 DUP4 GT ISZERO PUSH2 0xC62 JUMPI PUSH1 0x40 MLOAD PUSH3 0x461BCD PUSH1 0xE5 SHL DUP2 MSTORE PUSH1 0x4 ADD PUSH2 0x526 SWAP2 SWAP1 PUSH2 0x1E63 JUMP JUMPDEST POP PUSH2 0x767 PUSH11 0x5472656173757279466565 PUSH1 0xA8 SHL DUP4 PUSH2 0x1564 JUMP JUMPDEST PUSH1 0x0 PUSH32 0x0 PUSH1 0x40 MLOAD PUSH4 0x24745215 PUSH1 0xE2 SHL DUP2 MSTORE PUSH10 0x676F7665726E616E6365 PUSH1 0xB0 SHL PUSH1 0x4 DUP3 ADD MSTORE CALLER PUSH1 0x24 DUP3 ADD MSTORE PUSH1 0x1 PUSH1 0x1 PUSH1 0xA0 SHL SUB SWAP2 SWAP1 SWAP2 AND SWAP1 PUSH4 0x91D14854 SWAP1 PUSH1 0x44 ADD PUSH1 0x20 PUSH1 0x40 MLOAD DUP1 DUP4 SUB DUP2 DUP7 DUP1 EXTCODESIZE ISZERO DUP1 ISZERO PUSH2 0xCF2 JUMPI PUSH1 0x0 DUP1 REVERT JUMPDEST POP GAS STATICCALL ISZERO DUP1 ISZERO PUSH2 0xD06 JUMPI RETURNDATASIZE PUSH1 0x0 DUP1 RETURNDATACOPY RETURNDATASIZE PUSH1 0x0 REVERT JUMPDEST POP POP POP POP PUSH1 0x40 MLOAD RETURNDATASIZE PUSH1 0x1F NOT PUSH1 0x1F DUP3 ADD AND DUP3 ADD DUP1 PUSH1 0x40 MSTORE POP DUP2 ADD SWAP1 PUSH2 0xD2A SWAP2 SWAP1 PUSH2 0x1E15 JUMP JUMPDEST PUSH1 0x40 MLOAD DUP1 PUSH1 0x40 ADD PUSH1 0x40 MSTORE DUP1 PUSH1 0x13 DUP2 MSTORE PUSH1 0x20 ADD PUSH19 0x756E617574686F72697A656420616363657373 PUSH1 0x68 SHL DUP2 MSTORE POP SWAP1 PUSH2 0xD74 JUMPI PUSH1 0x40 MLOAD PUSH3 0x461BCD PUSH1 0xE5 SHL DUP2 MSTORE PUSH1 0x4 ADD PUSH2 0x526 SWAP2 SWAP1 PUSH2 0x1E63 JUMP JUMPDEST POP PUSH2 0x767 PUSH2 0xD81 DUP4 PUSH2 0x147E JUMP JUMPDEST PUSH2 0x16F1 JUMP JUMPDEST PUSH1 0x0 PUSH32 0x0 PUSH1 0x40 MLOAD PUSH4 0x24745215 PUSH1 0xE2 SHL DUP2 MSTORE PUSH10 0x676F7665726E616E6365 PUSH1 0xB0 SHL PUSH1 0x4 DUP3 ADD MSTORE CALLER PUSH1 0x24 DUP3 ADD MSTORE PUSH1 0x1 PUSH1 0x1 PUSH1 0xA0 SHL SUB SWAP2 SWAP1 SWAP2 AND SWAP1 PUSH4 0x91D14854 SWAP1 PUSH1 0x44 ADD PUSH1 0x20 PUSH1 0x40 MLOAD DUP1 DUP4 SUB DUP2 DUP7 DUP1 EXTCODESIZE ISZERO DUP1 ISZERO PUSH2 0xDFD JUMPI PUSH1 0x0 DUP1 REVERT JUMPDEST POP GAS STATICCALL ISZERO DUP1 ISZERO PUSH2 0xE11 JUMPI RETURNDATASIZE PUSH1 0x0 DUP1 RETURNDATACOPY RETURNDATASIZE PUSH1 0x0 REVERT JUMPDEST POP POP POP POP PUSH1 0x40 MLOAD RETURNDATASIZE PUSH1 0x1F NOT PUSH1 0x1F DUP3 ADD AND DUP3 ADD DUP1 PUSH1 0x40 MSTORE POP DUP2 ADD SWAP1 PUSH2 0xE35 SWAP2 SWAP1 PUSH2 0x1E15 JUMP JUMPDEST PUSH1 0x40 MLOAD DUP1 PUSH1 0x40 ADD PUSH1 0x40 MSTORE DUP1 PUSH1 0x13 DUP2 MSTORE PUSH1 0x20 ADD PUSH19 0x756E617574686F72697A656420616363657373 PUSH1 0x68 SHL DUP2 MSTORE POP SWAP1 PUSH2 0xE7F JUMPI PUSH1 0x40 MLOAD PUSH3 0x461BCD PUSH1 0xE5 SHL DUP2 MSTORE PUSH1 0x4 ADD PUSH2 0x526 SWAP2 SWAP1 PUSH2 0x1E63 JUMP JUMPDEST POP PUSH2 0x428 PUSH11 0x5472656173757279466565 PUSH1 0xA8 SHL PUSH2 0x15A8 JUMP JUMPDEST PUSH1 0x1 PUSH1 0x20 MSTORE PUSH32 0x60C67394E69102FFBEB9A616DF8F05BD23FF11B556ACE7BA8BEDEF12119E00A5 SLOAD PUSH11 0x5472656173757279466565 PUSH1 0xA8 SHL PUSH1 0x0 SWAP1 DUP2 MSTORE PUSH32 0xE37C5CDD27E258ABAA4F959C757CD2D7040A9FF7EA53E54ACF000117F55809AC SLOAD SWAP1 SWAP2 PUSH8 0xDE0B6B3A7640000 SWAP2 PUSH2 0xF0A SWAP2 SWAP1 PUSH2 0x1EC9 JUMP JUMPDEST GT ISZERO PUSH1 0x40 MLOAD DUP1 PUSH1 0x40 ADD PUSH1 0x40 MSTORE DUP1 PUSH1 0xE DUP2 MSTORE PUSH1 0x20 ADD PUSH14 0x1A5B9D985B1A5908185B5BDD5B9D PUSH1 0x92 SHL DUP2 MSTORE POP SWAP1 PUSH2 0xF51 JUMPI PUSH1 0x40 MLOAD PUSH3 0x461BCD PUSH1 0xE5 SHL DUP2 MSTORE PUSH1 0x4 ADD PUSH2 0x526 SWAP2 SWAP1 PUSH2 0x1E63 JUMP JUMPDEST POP PUSH2 0x428 PUSH11 0x5472656173757279466565 PUSH1 0xA8 SHL PUSH2 0x17A2 JUMP JUMPDEST PUSH1 0x1 PUSH1 0x20 MSTORE PUSH32 0x60C67394E69102FFBEB9A616DF8F05BD23FF11B556ACE7BA8BEDEF12119E00A5 SLOAD PUSH11 0x5472656173757279466565 PUSH1 0xA8 SHL PUSH1 0x0 SWAP1 DUP2 MSTORE PUSH32 0xE37C5CDD27E258ABAA4F959C757CD2D7040A9FF7EA53E54ACF000117F55809AC SLOAD SWAP1 SWAP2 PUSH8 0xDE0B6B3A7640000 SWAP2 PUSH2 0xFDC SWAP2 SWAP1 PUSH2 0x1EC9 JUMP JUMPDEST GT ISZERO PUSH1 0x40 MLOAD DUP1 PUSH1 0x40 ADD PUSH1 0x40 MSTORE DUP1 PUSH1 0xE DUP2 MSTORE PUSH1 0x20 ADD PUSH14 0x1A5B9D985B1A5908185B5BDD5B9D PUSH1 0x92 SHL DUP2 MSTORE POP SWAP1 PUSH2 0x1023 JUMPI PUSH1 0x40 MLOAD PUSH3 0x461BCD PUSH1 0xE5 SHL DUP2 MSTORE PUSH1 0x4 ADD PUSH2 0x526 SWAP2 SWAP1 PUSH2 0x1E63 JUMP JUMPDEST POP PUSH2 0x428 PUSH9 0x4B6565706572466565 PUSH1 0xB8 SHL PUSH2 0x17A2 JUMP JUMPDEST PUSH1 0x40 DUP1 MLOAD DUP1 DUP3 ADD SWAP1 SWAP2 MSTORE PUSH1 0x13 DUP2 MSTORE PUSH19 0x756E617574686F72697A656420616363657373 PUSH1 0x68 SHL PUSH1 0x20 DUP3 ADD MSTORE PUSH1 0x0 SWAP1 CALLER PUSH1 0x1 PUSH1 0x1 PUSH1 0xA0 SHL SUB PUSH32 0x0 AND EQ PUSH2 0x10AF JUMPI PUSH1 0x40 MLOAD PUSH3 0x461BCD PUSH1 0xE5 SHL DUP2 MSTORE PUSH1 0x4 ADD PUSH2 0x526 SWAP2 SWAP1 PUSH2 0x1E63 JUMP JUMPDEST POP PUSH1 0x0 PUSH2 0x10C4 PUSH2 0x10BD PUSH2 0x780 JUMP JUMPDEST DUP6 SWAP1 PUSH2 0x17C6 JUMP JUMPDEST SWAP1 POP PUSH1 0x0 PUSH2 0x10DA PUSH2 0x10D3 PUSH2 0x8C9 JUMP JUMPDEST DUP7 SWAP1 PUSH2 0x17C6 JUMP JUMPDEST SWAP1 POP DUP4 PUSH2 0x10F2 PUSH1 0x1 PUSH1 0x1 PUSH1 0xA0 SHL SUB DUP3 AND CALLER ADDRESS DUP10 PUSH2 0x17E5 JUMP JUMPDEST PUSH1 0x0 PUSH2 0x10FD DUP7 PUSH2 0xAEB JUMP JUMPDEST SWAP1 POP PUSH1 0x1 PUSH1 0x1 PUSH1 0xA0 SHL SUB DUP2 AND ISZERO PUSH2 0x119A JUMPI PUSH1 0x40 MLOAD PUSH4 0x3D86C0D PUSH1 0xE3 SHL DUP2 MSTORE PUSH1 0x1 PUSH1 0x1 PUSH1 0xA0 SHL SUB DUP10 DUP2 AND PUSH1 0x4 DUP4 ADD MSTORE PUSH1 0x24 DUP3 ADD DUP7 SWAP1 MSTORE DUP8 DUP2 AND PUSH1 0x44 DUP4 ADD MSTORE DUP3 AND SWAP1 PUSH4 0x1EC36068 SWAP1 PUSH1 0x64 ADD PUSH1 0x20 PUSH1 0x40 MLOAD DUP1 DUP4 SUB DUP2 PUSH1 0x0 DUP8 DUP1 EXTCODESIZE ISZERO DUP1 ISZERO PUSH2 0x1160 JUMPI PUSH1 0x0 DUP1 REVERT JUMPDEST POP GAS CALL ISZERO DUP1 ISZERO PUSH2 0x1174 JUMPI RETURNDATASIZE PUSH1 0x0 DUP1 RETURNDATACOPY RETURNDATASIZE PUSH1 0x0 REVERT JUMPDEST POP POP POP POP PUSH1 0x40 MLOAD RETURNDATASIZE PUSH1 0x1F NOT PUSH1 0x1F DUP3 ADD AND DUP3 ADD DUP1 PUSH1 0x40 MSTORE POP DUP2 ADD SWAP1 PUSH2 0x1198 SWAP2 SWAP1 PUSH2 0x1E15 JUMP JUMPDEST POP JUMPDEST PUSH1 0x1 PUSH1 0x1 PUSH1 0xA0 SHL SUB DUP1 DUP10 AND PUSH1 0x0 SWAP1 DUP2 MSTORE PUSH1 0x6 PUSH1 0x20 SWAP1 DUP2 MSTORE PUSH1 0x40 DUP1 DUP4 KECCAK256 SWAP4 DUP11 AND DUP4 MSTORE SWAP3 SWAP1 MSTORE SWAP1 DUP2 KECCAK256 DUP1 SLOAD DUP7 SWAP3 SWAP1 PUSH2 0x11D1 SWAP1 DUP5 SWAP1 PUSH2 0x1EC9 JUMP JUMPDEST SWAP1 SWAP2 SSTORE POP POP PUSH1 0x1 PUSH1 0x1 PUSH1 0xA0 SHL SUB DUP7 AND PUSH1 0x0 SWAP1 DUP2 MSTORE PUSH1 0x5 PUSH1 0x20 MSTORE PUSH1 0x40 DUP2 KECCAK256 DUP1 SLOAD DUP6 SWAP3 SWAP1 PUSH2 0x11FE SWAP1 DUP5 SWAP1 PUSH2 0x1EC9 JUMP JUMPDEST SWAP1 SWAP2 SSTORE POP PUSH1 0x0 SWAP1 POP DUP4 PUSH2 0x1211 DUP7 DUP11 PUSH2 0x1EE1 JUMP JUMPDEST PUSH2 0x121B SWAP2 SWAP1 PUSH2 0x1EE1 JUMP JUMPDEST PUSH1 0x40 MLOAD PUSH4 0x852CD8D PUSH1 0xE3 SHL DUP2 MSTORE PUSH1 0x4 DUP2 ADD DUP3 SWAP1 MSTORE SWAP1 SWAP2 POP PUSH1 0x1 PUSH1 0x1 PUSH1 0xA0 SHL SUB DUP5 AND SWAP1 PUSH4 0x42966C68 SWAP1 PUSH1 0x24 ADD PUSH1 0x0 PUSH1 0x40 MLOAD DUP1 DUP4 SUB DUP2 PUSH1 0x0 DUP8 DUP1 EXTCODESIZE ISZERO DUP1 ISZERO PUSH2 0x1260 JUMPI PUSH1 0x0 DUP1 REVERT JUMPDEST POP GAS CALL ISZERO DUP1 ISZERO PUSH2 0x1274 JUMPI RETURNDATASIZE PUSH1 0x0 DUP1 RETURNDATACOPY RETURNDATASIZE PUSH1 0x0 REVERT JUMPDEST POP POP PUSH1 0x40 DUP1 MLOAD PUSH1 0x1 PUSH1 0x1 PUSH1 0xA0 SHL SUB DUP12 DUP2 AND DUP3 MSTORE PUSH1 0x20 DUP3 ADD DUP14 SWAP1 MSTORE SWAP2 DUP2 ADD DUP10 SWAP1 MSTORE PUSH1 0x60 DUP2 ADD DUP6 SWAP1 MSTORE DUP2 DUP14 AND SWAP4 POP SWAP1 DUP14 AND SWAP2 POP PUSH32 0xFA9D128D86552A91243363427B3FDE4F942DE701BF1F81908816FC2C05675085 SWAP1 PUSH1 0x80 ADD PUSH1 0x40 MLOAD DUP1 SWAP2 SUB SWAP1 LOG3 POP PUSH1 0x1 SWAP10 SWAP9 POP POP POP POP POP POP POP POP POP JUMP JUMPDEST PUSH1 0x0 PUSH32 0x0 PUSH1 0x40 MLOAD PUSH4 0x24745215 PUSH1 0xE2 SHL DUP2 MSTORE PUSH10 0x676F7665726E616E6365 PUSH1 0xB0 SHL PUSH1 0x4 DUP3 ADD MSTORE CALLER PUSH1 0x24 DUP3 ADD MSTORE PUSH1 0x1 PUSH1 0x1 PUSH1 0xA0 SHL SUB SWAP2 SWAP1 SWAP2 AND SWAP1 PUSH4 0x91D14854 SWAP1 PUSH1 0x44 ADD PUSH1 0x20 PUSH1 0x40 MLOAD DUP1 DUP4 SUB DUP2 DUP7 DUP1 EXTCODESIZE ISZERO DUP1 ISZERO PUSH2 0x1359 JUMPI PUSH1 0x0 DUP1 REVERT JUMPDEST POP GAS STATICCALL ISZERO DUP1 ISZERO PUSH2 0x136D JUMPI RETURNDATASIZE PUSH1 0x0 DUP1 RETURNDATACOPY RETURNDATASIZE PUSH1 0x0 REVERT JUMPDEST POP POP POP POP PUSH1 0x40 MLOAD RETURNDATASIZE PUSH1 0x1F NOT PUSH1 0x1F DUP3 ADD AND DUP3 ADD DUP1 PUSH1 0x40 MSTORE POP DUP2 ADD SWAP1 PUSH2 0x1391 SWAP2 SWAP1 PUSH2 0x1E15 JUMP JUMPDEST PUSH1 0x40 MLOAD DUP1 PUSH1 0x40 ADD PUSH1 0x40 MSTORE DUP1 PUSH1 0x13 DUP2 MSTORE PUSH1 0x20 ADD PUSH19 0x756E617574686F72697A656420616363657373 PUSH1 0x68 SHL DUP2 MSTORE POP SWAP1 PUSH2 0x13DB JUMPI PUSH1 0x40 MLOAD PUSH3 0x461BCD PUSH1 0xE5 SHL DUP2 MSTORE PUSH1 0x4 ADD PUSH2 0x526 SWAP2 SWAP1 PUSH2 0x1E63 JUMP JUMPDEST POP PUSH2 0x13EE PUSH2 0x13E8 DUP5 PUSH2 0x147E JUMP JUMPDEST DUP4 PUSH2 0x1823 JUMP JUMPDEST SWAP4 SWAP3 POP POP POP JUMP JUMPDEST PUSH1 0x40 MLOAD PUSH4 0x21F8A721 PUSH1 0xE0 SHL DUP2 MSTORE PUSH11 0x3937B632A6B0B730B3B2B9 PUSH1 0xA9 SHL PUSH1 0x4 DUP3 ADD MSTORE PUSH1 0x0 SWAP1 PUSH1 0x1 PUSH1 0x1 PUSH1 0xA0 SHL SUB DUP4 AND SWAP1 PUSH4 0x21F8A721 SWAP1 PUSH1 0x24 ADD JUMPDEST PUSH1 0x20 PUSH1 0x40 MLOAD DUP1 DUP4 SUB DUP2 DUP7 DUP1 EXTCODESIZE ISZERO DUP1 ISZERO PUSH2 0x1446 JUMPI PUSH1 0x0 DUP1 REVERT JUMPDEST POP GAS STATICCALL ISZERO DUP1 ISZERO PUSH2 0x145A JUMPI RETURNDATASIZE PUSH1 0x0 DUP1 RETURNDATACOPY RETURNDATASIZE PUSH1 0x0 REVERT JUMPDEST POP POP POP POP PUSH1 0x40 MLOAD RETURNDATASIZE PUSH1 0x1F NOT PUSH1 0x1F DUP3 ADD AND DUP3 ADD DUP1 PUSH1 0x40 MSTORE POP DUP2 ADD SWAP1 PUSH2 0x767 SWAP2 SWAP1 PUSH2 0x1E96 JUMP JUMPDEST PUSH1 0x0 PUSH11 0x4B65657065724761756765 PUSH1 0xA8 SHL DUP3 PUSH1 0x40 MLOAD PUSH1 0x20 ADD PUSH2 0x14BC SWAP3 SWAP2 SWAP1 SWAP2 DUP3 MSTORE PUSH1 0x60 SHL PUSH12 0xFFFFFFFFFFFFFFFFFFFFFFFF NOT AND PUSH1 0x20 DUP3 ADD MSTORE PUSH1 0x34 ADD SWAP1 JUMP JUMPDEST PUSH1 0x40 MLOAD PUSH1 0x20 DUP2 DUP4 SUB SUB DUP2 MSTORE SWAP1 PUSH1 0x40 MSTORE DUP1 MLOAD SWAP1 PUSH1 0x20 ADD KECCAK256 SWAP1 POP SWAP2 SWAP1 POP JUMP JUMPDEST PUSH1 0x0 DUP3 DUP2 MSTORE PUSH1 0x2 PUSH1 0x20 SWAP1 DUP2 MSTORE PUSH1 0x40 DUP1 DUP4 KECCAK256 DUP1 SLOAD PUSH1 0x1 PUSH1 0x1 PUSH1 0xA0 SHL SUB NOT DUP1 DUP3 AND PUSH1 0x1 PUSH1 0x1 PUSH1 0xA0 SHL SUB DUP9 DUP2 AND SWAP2 DUP3 OR SWAP1 SWAP5 SSTORE DUP7 DUP7 MSTORE DUP5 DUP8 KECCAK256 DUP1 SLOAD SWAP1 SWAP3 AND SWAP1 SWAP2 SSTORE PUSH1 0x4 DUP6 MSTORE DUP4 DUP7 KECCAK256 DUP7 SWAP1 SSTORE DUP4 MLOAD SWAP3 SWAP1 SWAP2 AND DUP1 DUP4 MSTORE SWAP4 DUP3 ADD MSTORE DUP6 SWAP2 PUSH32 0xC4A957706C639829AD54381B04930C464DB6C7FFDC09D2B4B1ACC9EE34FB9261 SWAP2 ADD JUMPDEST PUSH1 0x40 MLOAD DUP1 SWAP2 SUB SWAP1 LOG2 POP SWAP1 SWAP3 SWAP2 POP POP JUMP JUMPDEST PUSH1 0x0 PUSH2 0x13EE DUP4 DUP4 PUSH3 0x3F480 PUSH2 0x1833 JUMP JUMPDEST PUSH1 0x0 PUSH2 0x157F DUP3 PUSH2 0x1897 JUMP JUMPDEST PUSH1 0x0 DUP3 DUP2 MSTORE PUSH1 0x20 DUP2 SWAP1 MSTORE PUSH1 0x40 SWAP1 KECCAK256 SLOAD PUSH1 0x1 PUSH1 0x1 PUSH1 0xA0 SHL SUB AND PUSH2 0x15A1 DUP4 DUP3 PUSH2 0x14D9 JUMP JUMPDEST POP SWAP3 SWAP2 POP POP JUMP JUMPDEST PUSH1 0x0 DUP2 DUP2 MSTORE PUSH1 0x4 PUSH1 0x20 SWAP1 DUP2 MSTORE PUSH1 0x40 DUP1 DUP4 KECCAK256 SLOAD DUP2 MLOAD DUP1 DUP4 ADD SWAP1 SWAP3 MSTORE PUSH1 0x12 DUP3 MSTORE PUSH18 0x646561646C696E65206D757374206265203 PUSH1 0x74 SHL SWAP3 DUP3 ADD SWAP3 SWAP1 SWAP3 MSTORE SWAP1 PUSH2 0x1601 JUMPI PUSH1 0x40 MLOAD PUSH3 0x461BCD PUSH1 0xE5 SHL DUP2 MSTORE PUSH1 0x4 ADD PUSH2 0x526 SWAP2 SWAP1 PUSH2 0x1E63 JUMP JUMPDEST POP PUSH1 0x0 DUP3 DUP2 MSTORE PUSH1 0x4 PUSH1 0x20 SWAP1 DUP2 MSTORE PUSH1 0x40 DUP1 DUP4 KECCAK256 DUP4 SWAP1 SSTORE PUSH1 0x1 SWAP1 SWAP2 MSTORE DUP1 DUP3 KECCAK256 DUP3 SWAP1 SSTORE MLOAD DUP4 SWAP2 PUSH32 0x90FB84AD67DD037C388289337BB80B61B8605D38BA9A875DC38B5600909D172F SWAP2 LOG2 POP PUSH1 0x1 SWAP2 SWAP1 POP JUMP JUMPDEST PUSH1 0x40 MLOAD PUSH4 0x21F8A721 PUSH1 0xE0 SHL DUP2 MSTORE PUSH8 0x7472656173757279 PUSH1 0xC0 SHL PUSH1 0x4 DUP3 ADD MSTORE PUSH1 0x0 SWAP1 PUSH1 0x1 PUSH1 0x1 PUSH1 0xA0 SHL SUB DUP4 AND SWAP1 PUSH4 0x21F8A721 SWAP1 PUSH1 0x24 ADD PUSH2 0x142E JUMP JUMPDEST PUSH1 0x40 MLOAD PUSH1 0x1 PUSH1 0x1 PUSH1 0xA0 SHL SUB DUP4 AND PUSH1 0x24 DUP3 ADD MSTORE PUSH1 0x44 DUP2 ADD DUP3 SWAP1 MSTORE PUSH2 0x16EC SWAP1 DUP5 SWAP1 PUSH4 0xA9059CBB PUSH1 0xE0 SHL SWAP1 PUSH1 0x64 ADD JUMPDEST PUSH1 0x40 DUP1 MLOAD PUSH1 0x1F NOT DUP2 DUP5 SUB ADD DUP2 MSTORE SWAP2 SWAP1 MSTORE PUSH1 0x20 DUP2 ADD DUP1 MLOAD PUSH1 0x1 PUSH1 0x1 PUSH1 0xE0 SHL SUB AND PUSH1 0x1 PUSH1 0x1 PUSH1 0xE0 SHL SUB NOT SWAP1 SWAP4 AND SWAP3 SWAP1 SWAP3 OR SWAP1 SWAP2 MSTORE PUSH2 0x1940 JUMP JUMPDEST POP POP POP JUMP JUMPDEST PUSH1 0x0 DUP2 DUP2 MSTORE PUSH1 0x4 PUSH1 0x20 SWAP1 DUP2 MSTORE PUSH1 0x40 DUP1 DUP4 KECCAK256 SLOAD DUP2 MLOAD DUP1 DUP4 ADD SWAP1 SWAP3 MSTORE PUSH1 0x12 DUP3 MSTORE PUSH18 0x646561646C696E65206D757374206265203 PUSH1 0x74 SHL SWAP3 DUP3 ADD SWAP3 SWAP1 SWAP3 MSTORE SWAP1 PUSH2 0x174A JUMPI PUSH1 0x40 MLOAD PUSH3 0x461BCD PUSH1 0xE5 SHL DUP2 MSTORE PUSH1 0x4 ADD PUSH2 0x526 SWAP2 SWAP1 PUSH2 0x1E63 JUMP JUMPDEST POP PUSH1 0x0 DUP3 DUP2 MSTORE PUSH1 0x4 PUSH1 0x20 SWAP1 DUP2 MSTORE PUSH1 0x40 DUP1 DUP4 KECCAK256 DUP4 SWAP1 SSTORE SWAP1 DUP3 SWAP1 MSTORE DUP1 DUP3 KECCAK256 DUP1 SLOAD PUSH1 0x1 PUSH1 0x1 PUSH1 0xA0 SHL SUB NOT AND SWAP1 SSTORE MLOAD DUP4 SWAP2 PUSH32 0x90FB84AD67DD037C388289337BB80B61B8605D38BA9A875DC38B5600909D172F SWAP2 LOG2 POP PUSH1 0x1 SWAP2 SWAP1 POP JUMP JUMPDEST PUSH1 0x0 PUSH2 0x17AD DUP3 PUSH2 0x1897 JUMP JUMPDEST PUSH1 0x0 DUP3 DUP2 MSTORE PUSH1 0x1 PUSH1 0x20 MSTORE PUSH1 0x40 SWAP1 KECCAK256 SLOAD PUSH2 0x15A1 DUP4 DUP3 PUSH2 0x1A12 JUMP JUMPDEST PUSH1 0x0 PUSH8 0xDE0B6B3A7640000 PUSH2 0x17DB DUP4 DUP6 PUSH2 0x1EF8 JUMP JUMPDEST PUSH2 0x13EE SWAP2 SWAP1 PUSH2 0x1F17 JUMP JUMPDEST PUSH1 0x40 MLOAD PUSH1 0x1 PUSH1 0x1 PUSH1 0xA0 SHL SUB DUP1 DUP6 AND PUSH1 0x24 DUP4 ADD MSTORE DUP4 AND PUSH1 0x44 DUP3 ADD MSTORE PUSH1 0x64 DUP2 ADD DUP3 SWAP1 MSTORE PUSH2 0x181D SWAP1 DUP6 SWAP1 PUSH4 0x23B872DD PUSH1 0xE0 SHL SWAP1 PUSH1 0x84 ADD PUSH2 0x16B5 JUMP JUMPDEST POP POP POP POP JUMP JUMPDEST PUSH1 0x0 PUSH2 0x13EE DUP4 DUP4 PUSH3 0x3F480 PUSH2 0x1A73 JUMP JUMPDEST PUSH1 0x0 PUSH2 0x183F DUP5 DUP4 PUSH2 0x1AE0 JUMP JUMPDEST PUSH1 0x0 DUP5 DUP2 MSTORE PUSH1 0x1 PUSH1 0x20 SWAP1 DUP2 MSTORE PUSH1 0x40 SWAP2 DUP3 SWAP1 KECCAK256 DUP6 SWAP1 SSTORE DUP2 MLOAD DUP6 DUP2 MSTORE SWAP1 DUP2 ADD DUP5 SWAP1 MSTORE DUP6 SWAP2 PUSH32 0xE6790002E78FB96FF1FDFE3A3BB2A86489D3F3923372C1FE5B6B1FED071EED4 SWAP2 ADD JUMPDEST PUSH1 0x40 MLOAD DUP1 SWAP2 SUB SWAP1 LOG2 POP PUSH1 0x1 SWAP4 SWAP3 POP POP POP JUMP JUMPDEST PUSH1 0x0 PUSH1 0x4 PUSH1 0x0 DUP4 DUP2 MSTORE PUSH1 0x20 ADD SWAP1 DUP2 MSTORE PUSH1 0x20 ADD PUSH1 0x0 KECCAK256 SLOAD SWAP1 POP DUP1 TIMESTAMP LT ISZERO PUSH1 0x40 MLOAD DUP1 PUSH1 0x60 ADD PUSH1 0x40 MSTORE DUP1 PUSH1 0x21 DUP2 MSTORE PUSH1 0x20 ADD PUSH2 0x1F56 PUSH1 0x21 SWAP2 CODECOPY SWAP1 PUSH2 0x18EA JUMPI PUSH1 0x40 MLOAD PUSH3 0x461BCD PUSH1 0xE5 SHL DUP2 MSTORE PUSH1 0x4 ADD PUSH2 0x526 SWAP2 SWAP1 PUSH2 0x1E63 JUMP JUMPDEST POP PUSH1 0x40 DUP1 MLOAD DUP1 DUP3 ADD SWAP1 SWAP2 MSTORE PUSH1 0xD DUP2 MSTORE PUSH13 0x646561646C696E65206973203 PUSH1 0x9C SHL PUSH1 0x20 DUP3 ADD MSTORE DUP2 PUSH2 0x192D JUMPI PUSH1 0x40 MLOAD PUSH3 0x461BCD PUSH1 0xE5 SHL DUP2 MSTORE PUSH1 0x4 ADD PUSH2 0x526 SWAP2 SWAP1 PUSH2 0x1E63 JUMP JUMPDEST POP POP PUSH1 0x0 SWAP1 DUP2 MSTORE PUSH1 0x4 PUSH1 0x20 MSTORE PUSH1 0x40 DUP2 KECCAK256 SSTORE JUMP JUMPDEST PUSH1 0x0 PUSH2 0x1995 DUP3 PUSH1 0x40 MLOAD DUP1 PUSH1 0x40 ADD PUSH1 0x40 MSTORE DUP1 PUSH1 0x20 DUP2 MSTORE PUSH1 0x20 ADD PUSH32 0x5361666545524332303A206C6F772D6C6576656C2063616C6C206661696C6564 DUP2 MSTORE POP DUP6 PUSH1 0x1 PUSH1 0x1 PUSH1 0xA0 SHL SUB AND PUSH2 0x1BBA SWAP1 SWAP3 SWAP2 SWAP1 PUSH4 0xFFFFFFFF AND JUMP JUMPDEST DUP1 MLOAD SWAP1 SWAP2 POP ISZERO PUSH2 0x16EC JUMPI DUP1 DUP1 PUSH1 0x20 ADD SWAP1 MLOAD DUP2 ADD SWAP1 PUSH2 0x19B3 SWAP2 SWAP1 PUSH2 0x1E15 JUMP JUMPDEST PUSH2 0x16EC JUMPI PUSH1 0x40 MLOAD PUSH3 0x461BCD PUSH1 0xE5 SHL DUP2 MSTORE PUSH1 0x20 PUSH1 0x4 DUP3 ADD MSTORE PUSH1 0x2A PUSH1 0x24 DUP3 ADD MSTORE PUSH32 0x5361666545524332303A204552433230206F7065726174696F6E20646964206E PUSH1 0x44 DUP3 ADD MSTORE PUSH10 0x1BDD081CDD58D8D95959 PUSH1 0xB2 SHL PUSH1 0x64 DUP3 ADD MSTORE PUSH1 0x84 ADD PUSH2 0x526 JUMP JUMPDEST PUSH1 0x0 DUP3 DUP2 MSTORE PUSH1 0x3 PUSH1 0x20 SWAP1 DUP2 MSTORE PUSH1 0x40 DUP1 DUP4 KECCAK256 DUP1 SLOAD SWAP1 DUP6 SWAP1 SSTORE PUSH1 0x1 DUP4 MSTORE DUP2 DUP5 KECCAK256 DUP5 SWAP1 SSTORE PUSH1 0x4 DUP4 MSTORE DUP2 DUP5 KECCAK256 DUP5 SWAP1 SSTORE DUP2 MLOAD DUP2 DUP2 MSTORE SWAP3 DUP4 ADD DUP6 SWAP1 MSTORE SWAP2 DUP6 SWAP2 PUSH32 0xCC0BAFE2ACCB565EA70674BF4B2555E49A47D410FB9932DFAB3E5F41855D0A2F SWAP2 ADD PUSH2 0x1554 JUMP JUMPDEST PUSH1 0x0 PUSH2 0x1A7F DUP5 DUP4 PUSH2 0x1AE0 JUMP JUMPDEST PUSH1 0x0 DUP5 DUP2 MSTORE PUSH1 0x20 DUP2 DUP2 MSTORE PUSH1 0x40 SWAP2 DUP3 SWAP1 KECCAK256 DUP1 SLOAD PUSH1 0x1 PUSH1 0x1 PUSH1 0xA0 SHL SUB NOT AND PUSH1 0x1 PUSH1 0x1 PUSH1 0xA0 SHL SUB DUP8 AND SWAP1 DUP2 OR SWAP1 SWAP2 SSTORE DUP3 MLOAD SWAP1 DUP2 MSTORE SWAP1 DUP2 ADD DUP5 SWAP1 MSTORE DUP6 SWAP2 PUSH32 0xD46E58EE9DC1AE703349F8C09C19F23213A531B4D57F00CFD4A5A6CB6519668D SWAP2 ADD PUSH2 0x1885 JUMP JUMPDEST PUSH1 0x4 PUSH1 0x0 DUP4 DUP2 MSTORE PUSH1 0x20 ADD SWAP1 DUP2 MSTORE PUSH1 0x20 ADD PUSH1 0x0 KECCAK256 SLOAD PUSH1 0x0 EQ PUSH1 0x40 MLOAD DUP1 PUSH1 0x40 ADD PUSH1 0x40 MSTORE DUP1 PUSH1 0x12 DUP2 MSTORE PUSH1 0x20 ADD PUSH18 0x646561646C696E65206D757374206265203 PUSH1 0x74 SHL DUP2 MSTORE POP SWAP1 PUSH2 0x1B40 JUMPI PUSH1 0x40 MLOAD PUSH3 0x461BCD PUSH1 0xE5 SHL DUP2 MSTORE PUSH1 0x4 ADD PUSH2 0x526 SWAP2 SWAP1 PUSH2 0x1E63 JUMP JUMPDEST POP PUSH1 0x40 DUP1 MLOAD DUP1 DUP3 ADD SWAP1 SWAP2 MSTORE PUSH1 0x18 DUP2 MSTORE PUSH32 0x64656C6179206265206174206C65617374203320646179730000000000000000 PUSH1 0x20 DUP3 ADD MSTORE PUSH3 0x3F480 DUP3 LT ISZERO PUSH2 0x1B99 JUMPI PUSH1 0x40 MLOAD PUSH3 0x461BCD PUSH1 0xE5 SHL DUP2 MSTORE PUSH1 0x4 ADD PUSH2 0x526 SWAP2 SWAP1 PUSH2 0x1E63 JUMP JUMPDEST POP PUSH2 0x1BA4 DUP2 TIMESTAMP PUSH2 0x1EC9 JUMP JUMPDEST PUSH1 0x0 SWAP3 DUP4 MSTORE PUSH1 0x4 PUSH1 0x20 MSTORE PUSH1 0x40 SWAP1 SWAP3 KECCAK256 SWAP2 SWAP1 SWAP2 SSTORE POP JUMP JUMPDEST PUSH1 0x60 PUSH2 0x1BC9 DUP5 DUP5 PUSH1 0x0 DUP6 PUSH2 0x1BD1 JUMP JUMPDEST SWAP5 SWAP4 POP POP POP POP JUMP JUMPDEST PUSH1 0x60 DUP3 SELFBALANCE LT ISZERO PUSH2 0x1C32 JUMPI PUSH1 0x40 MLOAD PUSH3 0x461BCD PUSH1 0xE5 SHL DUP2 MSTORE PUSH1 0x20 PUSH1 0x4 DUP3 ADD MSTORE PUSH1 0x26 PUSH1 0x24 DUP3 ADD MSTORE PUSH32 0x416464726573733A20696E73756666696369656E742062616C616E636520666F PUSH1 0x44 DUP3 ADD MSTORE PUSH6 0x1C8818D85B1B PUSH1 0xD2 SHL PUSH1 0x64 DUP3 ADD MSTORE PUSH1 0x84 ADD PUSH2 0x526 JUMP JUMPDEST PUSH1 0x1 PUSH1 0x1 PUSH1 0xA0 SHL SUB DUP6 AND EXTCODESIZE PUSH2 0x1C89 JUMPI PUSH1 0x40 MLOAD PUSH3 0x461BCD PUSH1 0xE5 SHL DUP2 MSTORE PUSH1 0x20 PUSH1 0x4 DUP3 ADD MSTORE PUSH1 0x1D PUSH1 0x24 DUP3 ADD MSTORE PUSH32 0x416464726573733A2063616C6C20746F206E6F6E2D636F6E7472616374000000 PUSH1 0x44 DUP3 ADD MSTORE PUSH1 0x64 ADD PUSH2 0x526 JUMP JUMPDEST PUSH1 0x0 DUP1 DUP7 PUSH1 0x1 PUSH1 0x1 PUSH1 0xA0 SHL SUB AND DUP6 DUP8 PUSH1 0x40 MLOAD PUSH2 0x1CA5 SWAP2 SWAP1 PUSH2 0x1F39 JUMP JUMPDEST PUSH1 0x0 PUSH1 0x40 MLOAD DUP1 DUP4 SUB DUP2 DUP6 DUP8 GAS CALL SWAP3 POP POP POP RETURNDATASIZE DUP1 PUSH1 0x0 DUP2 EQ PUSH2 0x1CE2 JUMPI PUSH1 0x40 MLOAD SWAP2 POP PUSH1 0x1F NOT PUSH1 0x3F RETURNDATASIZE ADD AND DUP3 ADD PUSH1 0x40 MSTORE RETURNDATASIZE DUP3 MSTORE RETURNDATASIZE PUSH1 0x0 PUSH1 0x20 DUP5 ADD RETURNDATACOPY PUSH2 0x1CE7 JUMP JUMPDEST PUSH1 0x60 SWAP2 POP JUMPDEST POP SWAP2 POP SWAP2 POP PUSH2 0x1CF7 DUP3 DUP3 DUP7 PUSH2 0x1D02 JUMP JUMPDEST SWAP8 SWAP7 POP POP POP POP POP POP POP JUMP JUMPDEST PUSH1 0x60 DUP4 ISZERO PUSH2 0x1D11 JUMPI POP DUP2 PUSH2 0x13EE JUMP JUMPDEST DUP3 MLOAD ISZERO PUSH2 0x1D21 JUMPI DUP3 MLOAD DUP1 DUP5 PUSH1 0x20 ADD REVERT JUMPDEST DUP2 PUSH1 0x40 MLOAD PUSH3 0x461BCD PUSH1 0xE5 SHL DUP2 MSTORE PUSH1 0x4 ADD PUSH2 0x526 SWAP2 SWAP1 PUSH2 0x1E63 JUMP JUMPDEST PUSH1 0x1 PUSH1 0x1 PUSH1 0xA0 SHL SUB DUP2 AND DUP2 EQ PUSH2 0x1D50 JUMPI PUSH1 0x0 DUP1 REVERT JUMPDEST POP JUMP JUMPDEST PUSH1 0x0 DUP1 PUSH1 0x40 DUP4 DUP6 SUB SLT ISZERO PUSH2 0x1D66 JUMPI PUSH1 0x0 DUP1 REVERT JUMPDEST DUP3 CALLDATALOAD PUSH2 0x1D71 DUP2 PUSH2 0x1D3B JUMP JUMPDEST SWAP2 POP PUSH1 0x20 DUP4 ADD CALLDATALOAD PUSH2 0x1D81 DUP2 PUSH2 0x1D3B JUMP JUMPDEST DUP1 SWAP2 POP POP SWAP3 POP SWAP3 SWAP1 POP JUMP JUMPDEST PUSH1 0x0 PUSH1 0x20 DUP3 DUP5 SUB SLT ISZERO PUSH2 0x1D9E JUMPI PUSH1 0x0 DUP1 REVERT JUMPDEST POP CALLDATALOAD SWAP2 SWAP1 POP JUMP JUMPDEST PUSH1 0x0 PUSH1 0x20 DUP3 DUP5 SUB SLT ISZERO PUSH2 0x1DB7 JUMPI PUSH1 0x0 DUP1 REVERT JUMPDEST DUP2 CALLDATALOAD PUSH2 0x13EE DUP2 PUSH2 0x1D3B JUMP JUMPDEST PUSH1 0x0 DUP1 PUSH1 0x0 DUP1 PUSH1 0x80 DUP6 DUP8 SUB SLT ISZERO PUSH2 0x1DD8 JUMPI PUSH1 0x0 DUP1 REVERT JUMPDEST DUP5 CALLDATALOAD PUSH2 0x1DE3 DUP2 PUSH2 0x1D3B JUMP JUMPDEST SWAP4 POP PUSH1 0x20 DUP6 ADD CALLDATALOAD PUSH2 0x1DF3 DUP2 PUSH2 0x1D3B JUMP JUMPDEST SWAP3 POP PUSH1 0x40 DUP6 ADD CALLDATALOAD SWAP2 POP PUSH1 0x60 DUP6 ADD CALLDATALOAD PUSH2 0x1E0A DUP2 PUSH2 0x1D3B JUMP JUMPDEST SWAP4 SWAP7 SWAP3 SWAP6 POP SWAP1 SWAP4 POP POP JUMP JUMPDEST PUSH1 0x0 PUSH1 0x20 DUP3 DUP5 SUB SLT ISZERO PUSH2 0x1E27 JUMPI PUSH1 0x0 DUP1 REVERT JUMPDEST DUP2 MLOAD DUP1 ISZERO ISZERO DUP2 EQ PUSH2 0x13EE JUMPI PUSH1 0x0 DUP1 REVERT JUMPDEST PUSH1 0x0 JUMPDEST DUP4 DUP2 LT ISZERO PUSH2 0x1E52 JUMPI DUP2 DUP2 ADD MLOAD DUP4 DUP3 ADD MSTORE PUSH1 0x20 ADD PUSH2 0x1E3A JUMP JUMPDEST DUP4 DUP2 GT ISZERO PUSH2 0x181D JUMPI POP POP PUSH1 0x0 SWAP2 ADD MSTORE JUMP JUMPDEST PUSH1 0x20 DUP2 MSTORE PUSH1 0x0 DUP3 MLOAD DUP1 PUSH1 0x20 DUP5 ADD MSTORE PUSH2 0x1E82 DUP2 PUSH1 0x40 DUP6 ADD PUSH1 0x20 DUP8 ADD PUSH2 0x1E37 JUMP JUMPDEST PUSH1 0x1F ADD PUSH1 0x1F NOT AND SWAP2 SWAP1 SWAP2 ADD PUSH1 0x40 ADD SWAP3 SWAP2 POP POP JUMP JUMPDEST PUSH1 0x0 PUSH1 0x20 DUP3 DUP5 SUB SLT ISZERO PUSH2 0x1EA8 JUMPI PUSH1 0x0 DUP1 REVERT JUMPDEST DUP2 MLOAD PUSH2 0x13EE DUP2 PUSH2 0x1D3B JUMP JUMPDEST PUSH4 0x4E487B71 PUSH1 0xE0 SHL PUSH1 0x0 MSTORE PUSH1 0x11 PUSH1 0x4 MSTORE PUSH1 0x24 PUSH1 0x0 REVERT JUMPDEST PUSH1 0x0 DUP3 NOT DUP3 GT ISZERO PUSH2 0x1EDC JUMPI PUSH2 0x1EDC PUSH2 0x1EB3 JUMP JUMPDEST POP ADD SWAP1 JUMP JUMPDEST PUSH1 0x0 DUP3 DUP3 LT ISZERO PUSH2 0x1EF3 JUMPI PUSH2 0x1EF3 PUSH2 0x1EB3 JUMP JUMPDEST POP SUB SWAP1 JUMP JUMPDEST PUSH1 0x0 DUP2 PUSH1 0x0 NOT DIV DUP4 GT DUP3 ISZERO ISZERO AND ISZERO PUSH2 0x1F12 JUMPI PUSH2 0x1F12 PUSH2 0x1EB3 JUMP JUMPDEST POP MUL SWAP1 JUMP JUMPDEST PUSH1 0x0 DUP3 PUSH2 0x1F34 JUMPI PUSH4 0x4E487B71 PUSH1 0xE0 SHL PUSH1 0x0 MSTORE PUSH1 0x12 PUSH1 0x4 MSTORE PUSH1 0x24 PUSH1 0x0 REVERT JUMPDEST POP DIV SWAP1 JUMP JUMPDEST PUSH1 0x0 DUP3 MLOAD PUSH2 0x1F4B DUP2 DUP5 PUSH1 0x20 DUP8 ADD PUSH2 0x1E37 JUMP JUMPDEST SWAP2 SWAP1 SWAP2 ADD SWAP3 SWAP2 POP POP JUMP INVALID PUSH5 0x6561646C69 PUSH15 0x6520686173206E6F74206265656E20 PUSH19 0x65616368656420796574A26469706673582212 KECCAK256 0xC 0x28 PUSH17 0x48605306D5DC2EF0523C25BD2006F02824 0xC6 SWAP10 LOG3 0xD9 BASEFEE 0xFB PUSH15 0xB92D81A50664736F6C634300080900 CALLER ","sha1":"f1ae61129026b3b544081cce9e4bb7054f381b55","source":"// SPDX-License-Identifier: GPL-3.0-or-later\npragma solidity 0.8.9;\n\nimport \"@openzeppelin/contracts-upgradeable/token/ERC20/utils/SafeERC20Upgradeable.sol\";\n\nimport \"../../../interfaces/actions/IActionFeeHandler.sol\";\nimport \"../../../interfaces/IController.sol\";\nimport \"../../../interfaces/tokenomics/IKeeperGauge.sol\";\n\nimport \"../../../libraries/Errors.sol\";\nimport \"../../../libraries/ScaledMath.sol\";\nimport \"../../../libraries/AddressProviderHelpers.sol\";\n\nimport \"../../LpToken.sol\";\nimport \"../../access/Authorization.sol\";\nimport \"../../pool/LiquidityPool.sol\";\nimport \"../../utils/Preparable.sol\";\n\n/**\n * @notice Contract to manage the distribution protocol fees\n */\ncontract TopUpActionFeeHandler is IActionFeeHandler, Authorization, Preparable {\n    using ScaledMath for uint256;\n    using SafeERC20Upgradeable for LpToken;\n    using AddressProviderHelpers for IAddressProvider;\n\n    bytes32 internal constant _KEEPER_FEE_FRACTION_KEY = \"KeeperFee\";\n    bytes32 internal constant _KEEPER_GAUGE_KEY = \"KeeperGauge\";\n    bytes32 internal constant _TREASURY_FEE_FRACTION_KEY = \"TreasuryFee\";\n\n    address public immutable actionContract;\n    IController public immutable controller;\n\n    mapping(address => uint256) public treasuryAmounts;\n    mapping(address => mapping(address => uint256)) public keeperRecords;\n\n    event KeeperFeesClaimed(address indexed keeper, address token, uint256 totalClaimed);\n\n    event FeesPayed(\n        address indexed payer,\n        address indexed keeper,\n        address token,\n        uint256 amount,\n        uint256 keeperAmount,\n        uint256 lpAmount\n    );\n\n    constructor(\n        IController _controller,\n        address _actionContract,\n        uint256 keeperFee,\n        uint256 treasuryFee\n    ) Authorization(_controller.addressProvider().getRoleManager()) {\n        require(keeperFee + treasuryFee <= ScaledMath.ONE, Error.INVALID_AMOUNT);\n        actionContract = _actionContract;\n        controller = _controller;\n        _setConfig(_KEEPER_FEE_FRACTION_KEY, keeperFee);\n        _setConfig(_TREASURY_FEE_FRACTION_KEY, treasuryFee);\n    }\n\n    function setInitialKeeperGaugeForToken(address lpToken, address _keeperGauge)\n        external\n        override\n        onlyGovernance\n        returns (bool)\n    {\n        require(getKeeperGauge(lpToken) == address(0), Error.ZERO_ADDRESS_NOT_ALLOWED);\n        require(_keeperGauge != address(0), Error.ZERO_ADDRESS_NOT_ALLOWED);\n        _setConfig(_getKeeperGaugeKey(lpToken), _keeperGauge);\n        return true;\n    }\n\n    /**\n     * @notice Transfers the keeper and treasury fees to the fee handler and burns LP fees.\n     * @param payer Account who's position the fees are charged on.\n     * @param beneficiary Beneficiary of the fees paid (usually this will be the keeper).\n     * @param amount Total fee value (both keeper and LP fees).\n     * @param lpTokenAddress Address of the lpToken used to pay fees.\n     * @return `true` if successful.\n     */\n    function payFees(\n        address payer,\n        address beneficiary,\n        uint256 amount,\n        address lpTokenAddress\n    ) external override returns (bool) {\n        require(msg.sender == actionContract, Error.UNAUTHORIZED_ACCESS);\n        // Handle keeper fees\n        uint256 keeperAmount = amount.scaledMul(getKeeperFeeFraction());\n        uint256 treasuryAmount = amount.scaledMul(getTreasuryFeeFraction());\n        LpToken lpToken = LpToken(lpTokenAddress);\n\n        lpToken.safeTransferFrom(msg.sender, address(this), amount);\n\n        address keeperGauge = getKeeperGauge(lpTokenAddress);\n        if (keeperGauge != address(0)) {\n            IKeeperGauge(keeperGauge).reportFees(beneficiary, keeperAmount, lpTokenAddress);\n        }\n\n        // Accrue keeper and treasury fees here for periodic claiming\n        keeperRecords[beneficiary][lpTokenAddress] += keeperAmount;\n        treasuryAmounts[lpTokenAddress] += treasuryAmount;\n\n        // Handle LP fees\n        uint256 lpAmount = amount - keeperAmount - treasuryAmount;\n        lpToken.burn(lpAmount);\n        emit FeesPayed(payer, beneficiary, lpTokenAddress, amount, keeperAmount, lpAmount);\n        return true;\n    }\n\n    /**\n     * @notice Claim all accrued fees for an LPToken.\n     * @param beneficiary Address to claim the fees for.\n     * @param token Address of the lpToken for claiming.\n     * @return `true` if successful.\n     */\n    function claimKeeperFeesForPool(address beneficiary, address token)\n        external\n        override\n        returns (bool)\n    {\n        uint256 totalClaimable = keeperRecords[beneficiary][token];\n        require(totalClaimable > 0, Error.NOTHING_TO_CLAIM);\n        keeperRecords[beneficiary][token] = 0;\n\n        LpToken lpToken = LpToken(token);\n        lpToken.safeTransfer(beneficiary, totalClaimable);\n\n        emit KeeperFeesClaimed(beneficiary, token, totalClaimable);\n        return true;\n    }\n\n    /**\n     * @notice Claim all accrued treasury fees for an LPToken.\n     * @param token Address of the lpToken for claiming.\n     * @return `true` if successful.\n     */\n    function claimTreasuryFees(address token) external override returns (bool) {\n        uint256 claimable = treasuryAmounts[token];\n        treasuryAmounts[token] = 0;\n        LpToken(token).safeTransfer(controller.addressProvider().getTreasury(), claimable);\n        return true;\n    }\n\n    /**\n     * @notice Prepare update of keeper fee (with time delay enforced).\n     * @param newKeeperFee New keeper fee value.\n     * @return `true` if successful.\n     */\n    function prepareKeeperFee(uint256 newKeeperFee) external onlyGovernance returns (bool) {\n        require(newKeeperFee <= ScaledMath.ONE, Error.INVALID_AMOUNT);\n        return _prepare(_KEEPER_FEE_FRACTION_KEY, newKeeperFee);\n    }\n\n    /**\n     * @notice Execute update of keeper fee (with time delay enforced).\n     * @dev Needs to be called after the update was prepraed. Fails if called before time delay is met.\n     * @return New keeper fee.\n     */\n    function executeKeeperFee() external returns (uint256) {\n        require(\n            pendingUInts256[_TREASURY_FEE_FRACTION_KEY] +\n                pendingUInts256[_KEEPER_FEE_FRACTION_KEY] <=\n                ScaledMath.ONE,\n            Error.INVALID_AMOUNT\n        );\n        return _executeUInt256(_KEEPER_FEE_FRACTION_KEY);\n    }\n\n    function resetKeeperFee() external onlyGovernance returns (bool) {\n        return _resetUInt256Config(_KEEPER_FEE_FRACTION_KEY);\n    }\n\n    function prepareKeeperGauge(address lpToken, address newKeeperGauge)\n        external\n        onlyGovernance\n        returns (bool)\n    {\n        return _prepare(_getKeeperGaugeKey(lpToken), newKeeperGauge);\n    }\n\n    function executeKeeperGauge(address lpToken) external returns (address) {\n        return _executeAddress(_getKeeperGaugeKey(lpToken));\n    }\n\n    function resetKeeperGauge(address lpToken) external onlyGovernance returns (bool) {\n        return _resetAddressConfig(_getKeeperGaugeKey(lpToken));\n    }\n\n    /**\n     * @notice Prepare update of treasury fee (with time delay enforced).\n     * @param newTreasuryFee New treasury fee value.\n     * @return `true` if successful.\n     */\n    function prepareTreasuryFee(uint256 newTreasuryFee) external onlyGovernance returns (bool) {\n        require(newTreasuryFee <= ScaledMath.ONE, Error.INVALID_AMOUNT);\n        return _prepare(_TREASURY_FEE_FRACTION_KEY, newTreasuryFee);\n    }\n\n    /**\n     * @notice Execute update of treasury fee (with time delay enforced).\n     * @dev Needs to be called after the update was prepraed. Fails if called before time delay is met.\n     * @return New treasury fee.\n     */\n    function executeTreasuryFee() external returns (uint256) {\n        require(\n            pendingUInts256[_TREASURY_FEE_FRACTION_KEY] +\n                pendingUInts256[_KEEPER_FEE_FRACTION_KEY] <=\n                ScaledMath.ONE,\n            Error.INVALID_AMOUNT\n        );\n        return _executeUInt256(_TREASURY_FEE_FRACTION_KEY);\n    }\n\n    function resetTreasuryFee() external onlyGovernance returns (bool) {\n        return _resetUInt256Config(_TREASURY_FEE_FRACTION_KEY);\n    }\n\n    function getKeeperFeeFraction() public view returns (uint256) {\n        return currentUInts256[_KEEPER_FEE_FRACTION_KEY];\n    }\n\n    function getKeeperGauge(address lpToken) public view returns (address) {\n        return currentAddresses[_getKeeperGaugeKey(lpToken)];\n    }\n\n    function getTreasuryFeeFraction() public view returns (uint256) {\n        return currentUInts256[_TREASURY_FEE_FRACTION_KEY];\n    }\n\n    function _getKeeperGaugeKey(address lpToken) internal pure returns (bytes32) {\n        return keccak256(abi.encodePacked(_KEEPER_GAUGE_KEY, lpToken));\n    }\n}\n","sourcePath":"contracts/actions/topup/TopUpActionFeeHandler.sol","type":"contract","deployment":{"address":"0x2F9Acddfd127a4BB9B5115856d766142a79C20Ee","chainid":"42","blockHeight":30414890}}