{"abi":[{"inputs":[{"internalType":"contract IController","name":"controller","type":"address"}],"stateMutability":"nonpayable","type":"constructor","name":"constructor"},{"anonymous":false,"inputs":[{"indexed":true,"internalType":"bytes32","name":"key","type":"bytes32"},{"indexed":false,"internalType":"address","name":"value","type":"address"},{"indexed":false,"internalType":"uint256","name":"delay","type":"uint256"}],"name":"ConfigPreparedAddress","type":"event"},{"anonymous":false,"inputs":[{"indexed":true,"internalType":"bytes32","name":"key","type":"bytes32"},{"indexed":false,"internalType":"uint256","name":"value","type":"uint256"},{"indexed":false,"internalType":"uint256","name":"delay","type":"uint256"}],"name":"ConfigPreparedNumber","type":"event"},{"anonymous":false,"inputs":[{"indexed":true,"internalType":"bytes32","name":"key","type":"bytes32"}],"name":"ConfigReset","type":"event"},{"anonymous":false,"inputs":[{"indexed":true,"internalType":"bytes32","name":"key","type":"bytes32"},{"indexed":false,"internalType":"address","name":"oldValue","type":"address"},{"indexed":false,"internalType":"address","name":"newValue","type":"address"}],"name":"ConfigUpdatedAddress","type":"event"},{"anonymous":false,"inputs":[{"indexed":true,"internalType":"bytes32","name":"key","type":"bytes32"},{"indexed":false,"internalType":"uint256","name":"oldValue","type":"uint256"},{"indexed":false,"internalType":"uint256","name":"newValue","type":"uint256"}],"name":"ConfigUpdatedNumber","type":"event"},{"anonymous":false,"inputs":[{"indexed":true,"internalType":"uint256","name":"netProfit","type":"uint256"},{"indexed":true,"internalType":"uint256","name":"loss","type":"uint256"}],"name":"Harvest","type":"event"},{"anonymous":false,"inputs":[{"indexed":true,"internalType":"address","name":"strategy","type":"address"}],"name":"StrategyActivated","type":"event"},{"anonymous":false,"inputs":[{"indexed":true,"internalType":"address","name":"strategy","type":"address"}],"name":"StrategyDeactivated","type":"event"},{"inputs":[],"name":"MAX_DEVIATION_BOUND","outputs":[{"internalType":"uint256","name":"","type":"uint256"}],"stateMutability":"view","type":"function"},{"inputs":[],"name":"MAX_PERFORMANCE_FEE","outputs":[{"internalType":"uint256","name":"","type":"uint256"}],"stateMutability":"view","type":"function"},{"inputs":[],"name":"STRATEGY_DELAY","outputs":[{"internalType":"uint256","name":"","type":"uint256"}],"stateMutability":"view","type":"function"},{"inputs":[],"name":"activateStrategy","outputs":[{"internalType":"bool","name":"","type":"bool"}],"stateMutability":"nonpayable","type":"function"},{"inputs":[],"name":"addressProvider","outputs":[{"internalType":"contract IAddressProvider","name":"","type":"address"}],"stateMutability":"view","type":"function"},{"inputs":[],"name":"controller","outputs":[{"internalType":"contract IController","name":"","type":"address"}],"stateMutability":"view","type":"function"},{"inputs":[{"internalType":"bytes32","name":"","type":"bytes32"}],"name":"currentAddresses","outputs":[{"internalType":"address","name":"","type":"address"}],"stateMutability":"view","type":"function"},{"inputs":[],"name":"currentAllocated","outputs":[{"internalType":"uint256","name":"","type":"uint256"}],"stateMutability":"view","type":"function"},{"inputs":[{"internalType":"bytes32","name":"","type":"bytes32"}],"name":"currentUInts256","outputs":[{"internalType":"uint256","name":"","type":"uint256"}],"stateMutability":"view","type":"function"},{"inputs":[],"name":"deactivateStrategy","outputs":[{"internalType":"bool","name":"","type":"bool"}],"stateMutability":"nonpayable","type":"function"},{"inputs":[{"internalType":"bytes32","name":"","type":"bytes32"}],"name":"deadlines","outputs":[{"internalType":"uint256","name":"","type":"uint256"}],"stateMutability":"view","type":"function"},{"inputs":[],"name":"deposit","outputs":[],"stateMutability":"payable","type":"function"},{"inputs":[],"name":"executeBound","outputs":[{"internalType":"uint256","name":"","type":"uint256"}],"stateMutability":"nonpayable","type":"function"},{"inputs":[],"name":"executeDebtLimit","outputs":[{"internalType":"uint256","name":"","type":"uint256"}],"stateMutability":"nonpayable","type":"function"},{"inputs":[],"name":"executeNewStrategy","outputs":[{"internalType":"address","name":"","type":"address"}],"stateMutability":"nonpayable","type":"function"},{"inputs":[],"name":"executePerformanceFee","outputs":[{"internalType":"uint256","name":"","type":"uint256"}],"stateMutability":"nonpayable","type":"function"},{"inputs":[],"name":"executeReserveFee","outputs":[{"internalType":"uint256","name":"","type":"uint256"}],"stateMutability":"nonpayable","type":"function"},{"inputs":[],"name":"executeStrategistFee","outputs":[{"internalType":"uint256","name":"","type":"uint256"}],"stateMutability":"nonpayable","type":"function"},{"inputs":[],"name":"executeTargetAllocation","outputs":[{"internalType":"uint256","name":"","type":"uint256"}],"stateMutability":"nonpayable","type":"function"},{"inputs":[{"internalType":"address","name":"strategy","type":"address"}],"name":"getAllocatedToStrategyWaitingForRemoval","outputs":[{"internalType":"uint256","name":"","type":"uint256"}],"stateMutability":"view","type":"function"},{"inputs":[],"name":"getBound","outputs":[{"internalType":"uint256","name":"","type":"uint256"}],"stateMutability":"view","type":"function"},{"inputs":[],"name":"getDebtLimit","outputs":[{"internalType":"uint256","name":"","type":"uint256"}],"stateMutability":"view","type":"function"},{"inputs":[],"name":"getPerformanceFee","outputs":[{"internalType":"uint256","name":"","type":"uint256"}],"stateMutability":"view","type":"function"},{"inputs":[],"name":"getReserveFee","outputs":[{"internalType":"uint256","name":"","type":"uint256"}],"stateMutability":"view","type":"function"},{"inputs":[],"name":"getStrategiesWaitingForRemoval","outputs":[{"internalType":"address[]","name":"","type":"address[]"}],"stateMutability":"view","type":"function"},{"inputs":[],"name":"getStrategistFee","outputs":[{"internalType":"uint256","name":"","type":"uint256"}],"stateMutability":"view","type":"function"},{"inputs":[],"name":"getStrategy","outputs":[{"internalType":"contract IStrategy","name":"","type":"address"}],"stateMutability":"view","type":"function"},{"inputs":[],"name":"getTargetAllocation","outputs":[{"internalType":"uint256","name":"","type":"uint256"}],"stateMutability":"view","type":"function"},{"inputs":[],"name":"getTotalUnderlying","outputs":[{"internalType":"uint256","name":"","type":"uint256"}],"stateMutability":"view","type":"function"},{"inputs":[],"name":"getUnderlying","outputs":[{"internalType":"address","name":"","type":"address"}],"stateMutability":"view","type":"function"},{"inputs":[],"name":"harvest","outputs":[{"internalType":"bool","name":"","type":"bool"}],"stateMutability":"nonpayable","type":"function"},{"inputs":[{"internalType":"address","name":"_pool","type":"address"},{"internalType":"uint256","name":"_debtLimit","type":"uint256"},{"internalType":"uint256","name":"_targetAllocation","type":"uint256"},{"internalType":"uint256","name":"_bound","type":"uint256"}],"name":"initialize","outputs":[],"stateMutability":"nonpayable","type":"function"},{"inputs":[{"internalType":"address","name":"strategy_","type":"address"}],"name":"initializeStrategy","outputs":[{"internalType":"bool","name":"","type":"bool"}],"stateMutability":"nonpayable","type":"function"},{"inputs":[{"internalType":"bytes32","name":"","type":"bytes32"}],"name":"pendingAddresses","outputs":[{"internalType":"address","name":"","type":"address"}],"stateMutability":"view","type":"function"},{"inputs":[{"internalType":"bytes32","name":"","type":"bytes32"}],"name":"pendingUInts256","outputs":[{"internalType":"uint256","name":"","type":"uint256"}],"stateMutability":"view","type":"function"},{"inputs":[],"name":"pool","outputs":[{"internalType":"address","name":"","type":"address"}],"stateMutability":"view","type":"function"},{"inputs":[{"internalType":"uint256","name":"newBound","type":"uint256"}],"name":"prepareBound","outputs":[{"internalType":"bool","name":"","type":"bool"}],"stateMutability":"nonpayable","type":"function"},{"inputs":[{"internalType":"uint256","name":"newDebtLimit","type":"uint256"}],"name":"prepareDebtLimit","outputs":[{"internalType":"bool","name":"","type":"bool"}],"stateMutability":"nonpayable","type":"function"},{"inputs":[{"internalType":"address","name":"newStrategy","type":"address"}],"name":"prepareNewStrategy","outputs":[{"internalType":"bool","name":"","type":"bool"}],"stateMutability":"nonpayable","type":"function"},{"inputs":[{"internalType":"uint256","name":"newPerformanceFee","type":"uint256"}],"name":"preparePerformanceFee","outputs":[{"internalType":"bool","name":"","type":"bool"}],"stateMutability":"nonpayable","type":"function"},{"inputs":[{"internalType":"uint256","name":"newReserveFee","type":"uint256"}],"name":"prepareReserveFee","outputs":[{"internalType":"bool","name":"","type":"bool"}],"stateMutability":"nonpayable","type":"function"},{"inputs":[{"internalType":"uint256","name":"newStrategistFee","type":"uint256"}],"name":"prepareStrategistFee","outputs":[{"internalType":"bool","name":"","type":"bool"}],"stateMutability":"nonpayable","type":"function"},{"inputs":[{"internalType":"uint256","name":"newTargetAllocation","type":"uint256"}],"name":"prepareTargetAllocation","outputs":[{"internalType":"bool","name":"","type":"bool"}],"stateMutability":"nonpayable","type":"function"},{"inputs":[],"name":"reserve","outputs":[{"internalType":"contract IVaultReserve","name":"","type":"address"}],"stateMutability":"view","type":"function"},{"inputs":[],"name":"resetBound","outputs":[{"internalType":"bool","name":"","type":"bool"}],"stateMutability":"nonpayable","type":"function"},{"inputs":[],"name":"resetDebtLimit","outputs":[{"internalType":"bool","name":"","type":"bool"}],"stateMutability":"nonpayable","type":"function"},{"inputs":[],"name":"resetNewStrategy","outputs":[{"internalType":"bool","name":"","type":"bool"}],"stateMutability":"nonpayable","type":"function"},{"inputs":[],"name":"resetPerformanceFee","outputs":[{"internalType":"bool","name":"","type":"bool"}],"stateMutability":"nonpayable","type":"function"},{"inputs":[],"name":"resetReserveFee","outputs":[{"internalType":"bool","name":"","type":"bool"}],"stateMutability":"nonpayable","type":"function"},{"inputs":[],"name":"resetStrategistFee","outputs":[{"internalType":"bool","name":"","type":"bool"}],"stateMutability":"nonpayable","type":"function"},{"inputs":[],"name":"resetTargetAllocation","outputs":[{"internalType":"bool","name":"","type":"bool"}],"stateMutability":"nonpayable","type":"function"},{"inputs":[],"name":"roleManager","outputs":[{"internalType":"contract IRoleManager","name":"","type":"address"}],"stateMutability":"view","type":"function"},{"inputs":[],"name":"strategyActive","outputs":[{"internalType":"bool","name":"","type":"bool"}],"stateMutability":"view","type":"function"},{"inputs":[],"name":"totalDebt","outputs":[{"internalType":"uint256","name":"","type":"uint256"}],"stateMutability":"view","type":"function"},{"inputs":[],"name":"waitingForRemovalAllocated","outputs":[{"internalType":"uint256","name":"","type":"uint256"}],"stateMutability":"view","type":"function"},{"inputs":[{"internalType":"uint256","name":"amount","type":"uint256"}],"name":"withdraw","outputs":[{"internalType":"bool","name":"","type":"bool"}],"stateMutability":"nonpayable","type":"function"},{"inputs":[],"name":"withdrawAll","outputs":[],"stateMutability":"nonpayable","type":"function"},{"inputs":[],"name":"withdrawAllFromStrategy","outputs":[{"internalType":"bool","name":"","type":"bool"}],"stateMutability":"nonpayable","type":"function"},{"inputs":[{"internalType":"uint256","name":"amount","type":"uint256"}],"name":"withdrawFromReserve","outputs":[],"stateMutability":"nonpayable","type":"function"},{"inputs":[{"internalType":"uint256","name":"amount","type":"uint256"}],"name":"withdrawFromStrategy","outputs":[{"internalType":"bool","name":"","type":"bool"}],"stateMutability":"nonpayable","type":"function"},{"inputs":[{"internalType":"address","name":"strategy","type":"address"}],"name":"withdrawFromStrategyWaitingForRemoval","outputs":[{"internalType":"uint256","name":"","type":"uint256"}],"stateMutability":"nonpayable","type":"function"}],"bytecode":"6101006040523480156200001257600080fd5b5060405162005bbf38038062005bbf83398101604081905262000035916200028f565b80620000c9816001600160a01b0316632954018c6040518163ffffffff1660e01b815260040160206040518083038186803b1580156200007457600080fd5b505afa15801562000089573d6000803e3d6000fd5b505050506040513d601f19601f82011682018060405250810190620000af91906200028f565b6001600160a01b0316620001a460201b620034da1760201c565b6001600160a01b03908116608052811660a081905260408051630a55006360e21b8152905160009291632954018c916004808301926020929190829003018186803b1580156200011857600080fd5b505afa1580156200012d573d6000803e3d6000fd5b505050506040513d601f19601f820116820180604052508101906200015391906200028f565b9050806001600160a01b031660c0816001600160a01b0316815250506200018e816001600160a01b03166200023760201b620035631760201c565b6001600160a01b031660e05250620002b6915050565b6040516321f8a72160e01b81526a3937b632a6b0b730b3b2b960a91b60048201526000906001600160a01b038316906321f8a721906024015b60206040518083038186803b158015620001f657600080fd5b505afa1580156200020b573d6000803e3d6000fd5b505050506040513d601f19601f820116820180604052508101906200023191906200028f565b92915050565b6040516321f8a72160e01b81526b7661756c745265736572766560a01b60048201526000906001600160a01b038316906321f8a72190602401620001dd565b6001600160a01b03811681146200028c57600080fd5b50565b600060208284031215620002a257600080fd5b8151620002af8162000276565b9392505050565b60805160a05160c05160e0516158826200033d600039600081816108d801528181610ca101528181610da901528181611ce2015281816148b20152818161499301528181614a1c01528181614dc201528181614f760152818161500601526150c901526000818161052b0152614e7f01526000610a1e015260006135a301526158826000f3fe6080604052600436106103a15760003560e01c80638e6ac89b116101e7578063c4baed931161010d578063e3976edf116100a0578063f76c33991161006f578063f76c3399146109d6578063f77c479114610a0c578063f95d943814610a40578063fc7b9c1814610a5657600080fd5b8063e3976edf14610956578063f09b8fb11461098c578063f1eeb9e6146109a1578063f3e7fc80146109c157600080fd5b8063d46a8478116100dc578063d46a847814610902578063d583e65914610917578063d698e2bb1461092c578063d8ae7bf81461094157600080fd5b8063c4baed9314610891578063c9fd9227146108b1578063cd3293de146108c6578063d0e30db0146108fa57600080fd5b8063a852d3e011610185578063aff1b7e411610154578063aff1b7e414610835578063b40494e514610862578063bd2a8b0714610877578063bdca91651461074e57600080fd5b8063a852d3e0146107cb578063a966bc09146107eb578063ade1096014610800578063af2a8fff1461081557600080fd5b80639816f473116101c15780639816f4731461076a5780639cf7fcc91461077f5780639d711f3b146107a1578063a50ec876146107b657600080fd5b80638e6ac89b1461072457806390f38918146107395780639407d08f1461074e57600080fd5b80634278a673116102cc5780636f21cac31161026a5780637fef50da116102395780637fef50da146106cf578063853828b6146106e4578063890f5f83146106f957806389efcaac1461070e57600080fd5b80636f21cac314610670578063779ce5a414610690578063798cf01d146106a55780637cd32a12146106ba57600080fd5b80634ec81af1116102a65780634ec81af1146106045780636741c1b914610624578063678cbcb5146106395780636d785cf31461065957600080fd5b80634278a673146105af5780634641257d146105cf57806348b19335146105e457600080fd5b806316f0115b116103445780632954018c116103135780632954018c146105195780632e1a7d4d1461054d57806332a894c11461056d578063346a4a511461058257600080fd5b806316f0115b146104af57806321401dd1146104cf5780632182a5c4146104e4578063235c36031461050457600080fd5b80630ee43c20116103805780630ee43c201461040f5780630fe6cbcf14610434578063102a91261461045457806315dbfe621461047457600080fd5b8062435da5146103a657806307da0603146103d85780630a8bcdb9146103ed575b600080fd5b3480156103b257600080fd5b506103bb610a6c565b6040516001600160a01b0390911681526020015b60405180910390f35b3480156103e457600080fd5b506103bb610a7b565b3480156103f957600080fd5b5061040d61040836600461553f565b610abd565b005b34801561041b57600080fd5b50610424610e63565b60405190151581526020016103cf565b34801561044057600080fd5b5061042461044f36600461553f565b610f56565b34801561046057600080fd5b5061042461046f36600461553f565b61105e565b34801561048057600080fd5b506104a161048f36600461553f565b603b6020526000908152604090205481565b6040519081526020016103cf565b3480156104bb57600080fd5b506002546103bb906001600160a01b031681565b3480156104db57600080fd5b5061042461115d565b3480156104f057600080fd5b506104246104ff36600461553f565b61123c565b34801561051057600080fd5b506104a1611329565b34801561052557600080fd5b506103bb7f000000000000000000000000000000000000000000000000000000000000000081565b34801561055957600080fd5b5061042461056836600461553f565b611368565b34801561057957600080fd5b506104a16116c3565b34801561058e57600080fd5b506104a161059d36600461553f565b603e6020526000908152604090205481565b3480156105bb57600080fd5b506104246105ca36600461553f565b6116e6565b3480156105db57600080fd5b5061042461181e565b3480156105f057600080fd5b506104246105ff36600461553f565b611913565b34801561061057600080fd5b5061040d61061f36600461556d565b611b4c565b34801561063057600080fd5b50610424611d39565b34801561064557600080fd5b506104246106543660046155a8565b611e18565b34801561066557600080fd5b506104a16206978081565b34801561067c57600080fd5b506104a161068b3660046155a8565b6120d3565b34801561069c57600080fd5b506104a16120e0565b3480156106b157600080fd5b506104a1612121565b3480156106c657600080fd5b506104a161215f565b3480156106db57600080fd5b506104a1612199565b3480156106f057600080fd5b5061040d6121cf565b34801561070557600080fd5b506104246122e0565b34801561071a57600080fd5b506104a160015481565b34801561073057600080fd5b506104246123cd565b34801561074557600080fd5b506104a16124bd565b34801561075a57600080fd5b506104a16706f05b59d3b2000081565b34801561077657600080fd5b506103bb6124ec565b34801561078b57600080fd5b50610794612569565b6040516103cf91906155c5565b3480156107ad57600080fd5b50610424612575565b3480156107c257600080fd5b506103bb612660565b3480156107d757600080fd5b506104246107e636600461553f565b6128a1565b3480156107f757600080fd5b50610424612995565b34801561080c57600080fd5b50610424612a7d565b34801561082157600080fd5b506104246108303660046155a8565b612b71565b34801561084157600080fd5b506104a161085036600461553f565b603d6020526000908152604090205481565b34801561086e57600080fd5b506104a1612c61565b34801561088357600080fd5b506004546104249060ff1681565b34801561089d57600080fd5b506104246108ac36600461553f565b612cd1565b3480156108bd57600080fd5b506104a1612e12565b3480156108d257600080fd5b506103bb7f000000000000000000000000000000000000000000000000000000000000000081565b61040d612e31565b34801561090e57600080fd5b506104a1612f23565b34801561092357600080fd5b506104a1612f4a565b34801561093857600080fd5b50610424612f94565b34801561094d57600080fd5b50610424613085565b34801561096257600080fd5b506103bb61097136600461553f565b603a602052600090815260409020546001600160a01b031681565b34801561099857600080fd5b506104a1613171565b3480156109ad57600080fd5b506104a16109bc3660046155a8565b61318d565b3480156109cd57600080fd5b506104a161349f565b3480156109e257600080fd5b506103bb6109f136600461553f565b603c602052600090815260409020546001600160a01b031681565b348015610a1857600080fd5b506103bb7f000000000000000000000000000000000000000000000000000000000000000081565b348015610a4c57600080fd5b506104a160005481565b348015610a6257600080fd5b506104a160035481565b6000610a766135a1565b905090565b67537472617465677960c01b600052603c6020527f15bdd40257915f753934b43755984618aeb2ae4fff096845769c2bb729e989be546001600160a01b031690565b610ac56135a1565b6001600160a01b03166391d1485469676f7665726e616e636560b01b336040518363ffffffff1660e01b8152600401610aff929190615612565b60206040518083038186803b158015610b1757600080fd5b505afa158015610b2b573d6000803e3d6000fd5b505050506040513d601f19601f82011682018060405250810190610b4f9190615629565b60405180604001604052806013815260200160008051602061580c83398151915281525090610b9a5760405162461bcd60e51b8152600401610b919190615677565b60405180910390fd5b5060408051808201909152600e81526d1a5b9d985b1a5908185b5bdd5b9d60921b602082015281610bde5760405162461bcd60e51b8152600401610b919190615677565b50600260009054906101000a90046001600160a01b03166001600160a01b031663b187bd266040518163ffffffff1660e01b815260040160206040518083038186803b158015610c2d57600080fd5b505afa158015610c41573d6000803e3d6000fd5b505050506040513d601f19601f82011682018060405250810190610c659190615629565b6040518060600160405280602c81526020016157e0602c913990610c9c5760405162461bcd60e51b8152600401610b919190615677565b5060007f00000000000000000000000000000000000000000000000000000000000000006001600160a01b031663d4fac45d30610cd76124ec565b6040516001600160e01b031960e085901b1681526001600160a01b0392831660048201529116602482015260440160206040518083038186803b158015610d1d57600080fd5b505afa158015610d31573d6000803e3d6000fd5b505050506040513d601f19601f82011682018060405250810190610d5591906156aa565b90508082111560405180604001604052806014815260200173696e73756666696369656e742062616c616e636560601b81525090610da65760405162461bcd60e51b8152600401610b919190615677565b507f00000000000000000000000000000000000000000000000000000000000000006001600160a01b031663f3fef3a3610dde6124ec565b6040516001600160e01b031960e084901b1681526001600160a01b03909116600482015260248101859052604401602060405180830381600087803b158015610e2657600080fd5b505af1158015610e3a573d6000803e3d6000fd5b505050506040513d601f19601f82011682018060405250810190610e5e9190615629565b505050565b6000610e6d6135a1565b6001600160a01b03166391d1485469676f7665726e616e636560b01b336040518363ffffffff1660e01b8152600401610ea7929190615612565b60206040518083038186803b158015610ebf57600080fd5b505afa158015610ed3573d6000803e3d6000fd5b505050506040513d601f19601f82011682018060405250810190610ef79190615629565b60405180604001604052806013815260200160008051602061580c83398151915281525090610f395760405162461bcd60e51b8152600401610b919190615677565b50610a766f2a30b933b2ba20b63637b1b0ba34b7b760811b6135c5565b6000610f606135a1565b6001600160a01b03166391d1485469676f7665726e616e636560b01b336040518363ffffffff1660e01b8152600401610f9a929190615612565b60206040518083038186803b158015610fb257600080fd5b505afa158015610fc6573d6000803e3d6000fd5b505050506040513d601f19601f82011682018060405250810190610fea9190615629565b60405180604001604052806013815260200160008051602061580c8339815191528152509061102c5760405162461bcd60e51b8152600401610b919190615677565b5061103e61103861349f565b8361366c565b6110586c5374726174656769737446656560981b836136f7565b92915050565b60006110686135a1565b6001600160a01b03166391d1485469676f7665726e616e636560b01b336040518363ffffffff1660e01b81526004016110a2929190615612565b60206040518083038186803b1580156110ba57600080fd5b505afa1580156110ce573d6000803e3d6000fd5b505050506040513d601f19601f820116820180604052508101906110f29190615629565b60405180604001604052806013815260200160008051602061580c833981519152815250906111345760405162461bcd60e51b8152600401610b919190615677565b5061114682611141612121565b61366c565b611058695265736572766546656560b01b836136f7565b60006111676135a1565b6001600160a01b03166391d1485469676f7665726e616e636560b01b336040518363ffffffff1660e01b81526004016111a1929190615612565b60206040518083038186803b1580156111b957600080fd5b505afa1580156111cd573d6000803e3d6000fd5b505050506040513d601f19601f820116820180604052508101906111f19190615629565b60405180604001604052806013815260200160008051602061580c833981519152815250906112335760405162461bcd60e51b8152600401610b919190615677565b50610a7661370e565b60006112466135a1565b6001600160a01b03166391d1485469676f7665726e616e636560b01b336040518363ffffffff1660e01b8152600401611280929190615612565b60206040518083038186803b15801561129857600080fd5b505afa1580156112ac573d6000803e3d6000fd5b505050506040513d601f19601f820116820180604052508101906112d09190615629565b60405180604001604052806013815260200160008051602061580c833981519152815250906113125760405162461bcd60e51b8152600401610b919190615677565b50611058681119589d131a5b5a5d60ba1b836136f7565b6d506572666f726d616e636546656560901b600052603d6020527fbadb955f4a57baa7811abc9bcd6809eb9d3b80456cae1a7ea27f30fddfd0c0a65490565b6002546000906001600160a01b031633148061141157506113876135a1565b6001600160a01b03166391d1485469676f7665726e616e636560b01b336040518363ffffffff1660e01b81526004016113c1929190615612565b60206040518083038186803b1580156113d957600080fd5b505afa1580156113ed573d6000803e3d6000fd5b505050506040513d601f19601f820116820180604052508101906114119190615629565b60405180604001604052806013815260200160008051602061580c833981519152815250906114535760405162461bcd60e51b8152600401610b919190615677565b50600061145e610a7b565b9050600061146a61376e565b9050838110156115e5576001600160a01b03821661148c575060009392505050565b6000826001600160a01b031663b69ef8a86040518163ffffffff1660e01b815260040160206040518083038186803b1580156114c757600080fd5b505afa1580156114db573d6000803e3d6000fd5b505050506040513d601f19601f820116820180604052508101906114ff91906156aa565b9050600061150d83876156d9565b9050818111156115235750600095945050505050565b60006115406115306120e0565b61153a84866156d9565b906137f1565b9050600061154e82856156d9565b604051632e1a7d4d60e01b8152600481018290529091506001600160a01b03871690632e1a7d4d90602401602060405180830381600087803b15801561159357600080fd5b505af11580156115a7573d6000803e3d6000fd5b505050506040513d601f19601f820116820180604052508101906115cb9190615629565b506115d860005482613810565b600055506116a392505050565b60006001600160a01b0383161561166a57826001600160a01b031663b69ef8a86040518163ffffffff1660e01b815260040160206040518083038186803b15801561162f57600080fd5b505afa158015611643573d6000803e3d6000fd5b505050506040513d601f19601f8201168201806040525081019061166791906156aa565b90505b60015460009061167a83856156f0565b61168491906156f0565b9050600061169287836156d9565b905061169e8184613834565b505050505b6002546116b9906001600160a01b031685613a4b565b5060019392505050565b6000806116d764109bdd5b9960da1b613a68565b90506116e1613a8c565b919050565b60006116f06135a1565b6001600160a01b03166391d1485469676f7665726e616e636560b01b336040518363ffffffff1660e01b815260040161172a929190615612565b60206040518083038186803b15801561174257600080fd5b505afa158015611756573d6000803e3d6000fd5b505050506040513d601f19601f8201168201806040525081019061177a9190615629565b60405180604001604052806013815260200160008051602061580c833981519152815250906117bc5760405162461bcd60e51b8152600401610b919190615677565b5060408051808201909152600e81526d1a5b9d985b1a5908185b5bdd5b9d60921b60208201526706f05b59d3b2000083111561180b5760405162461bcd60e51b8152600401610b919190615677565b5061105864109bdd5b9960da1b836136f7565b6002546000906001600160a01b03163314806118c8575061183d6135a1565b6001600160a01b03166391d148546a6d61696e74656e616e636560a81b336040518363ffffffff1660e01b8152600401611878929190615612565b60206040518083038186803b15801561189057600080fd5b505afa1580156118a4573d6000803e3d6000fd5b505050506040513d601f19601f820116820180604052508101906118c89190615629565b60405180604001604052806013815260200160008051602061580c8339815191528152509061190a5760405162461bcd60e51b8152600401610b919190615677565b50610a76613b4b565b600061191d6135a1565b6001600160a01b03166391d1485469676f7665726e616e636560b01b336040518363ffffffff1660e01b8152600401611957929190615612565b60206040518083038186803b15801561196f57600080fd5b505afa158015611983573d6000803e3d6000fd5b505050506040513d601f19601f820116820180604052508101906119a79190615629565b60405180604001604052806013815260200160008051602061580c833981519152815250906119e95760405162461bcd60e51b8152600401610b919190615677565b5060006119f4610a7b565b90506001600160a01b038116611a0d5750600092915050565b82816001600160a01b031663b69ef8a86040518163ffffffff1660e01b815260040160206040518083038186803b158015611a4757600080fd5b505afa158015611a5b573d6000803e3d6000fd5b505050506040513d601f19601f82011682018060405250810190611a7f91906156aa565b1015611a8e5750600092915050565b6000611a9861376e565b604051632e1a7d4d60e01b8152600481018690529091506001600160a01b03831690632e1a7d4d90602401602060405180830381600087803b158015611add57600080fd5b505af1158015611af1573d6000803e3d6000fd5b505050506040513d601f19601f82011682018060405250810190611b159190615629565b506000611b2061376e565b9050611b2c82826156d9565b600080828254611b3c91906156d9565b9091555060019695505050505050565b603f54610100900460ff16611b6757603f5460ff1615611b6b565b303b155b611bce5760405162461bcd60e51b815260206004820152602e60248201527f496e697469616c697a61626c653a20636f6e747261637420697320616c72656160448201526d191e481a5b9a5d1a585b1a5e995960921b6064820152608401610b91565b603f54610100900460ff16158015611bf057603f805461ffff19166101011790555b611bfc85858585613e02565b60025460408051639816f47360e01b815290516000926001600160a01b031691639816f473916004808301926020929190829003018186803b158015611c4157600080fd5b505afa158015611c55573d6000803e3d6000fd5b505050506040513d601f19601f82011682018060405250810190611c799190615708565b6040805180820190915260188152771e995c9bc81859191c995cdcc81b9bdd08185b1b1bddd95960421b60208201529091506001600160a01b038216611cd25760405162461bcd60e51b8152600401610b919190615677565b50611d096001600160a01b0382167f0000000000000000000000000000000000000000000000000000000000000000600019613fb0565b611d1f6001600160a01b03821687600019613fb0565b508015611d3257603f805461ff00191690555b5050505050565b6000611d436135a1565b6001600160a01b03166391d1485469676f7665726e616e636560b01b336040518363ffffffff1660e01b8152600401611d7d929190615612565b60206040518083038186803b158015611d9557600080fd5b505afa158015611da9573d6000803e3d6000fd5b505050506040513d601f19601f82011682018060405250810190611dcd9190615629565b60405180604001604052806013815260200160008051602061580c83398151915281525090611e0f5760405162461bcd60e51b8152600401610b919190615677565b50610a76614107565b6000611e226135a1565b6001600160a01b03166391d1485469676f7665726e616e636560b01b336040518363ffffffff1660e01b8152600401611e5c929190615612565b60206040518083038186803b158015611e7457600080fd5b505afa158015611e88573d6000803e3d6000fd5b505050506040513d601f19601f82011682018060405250810190611eac9190615629565b60405180604001604052806013815260200160008051602061580c83398151915281525090611eee5760405162461bcd60e51b8152600401610b919190615677565b5067537472617465677960c01b600052603c60209081527f15bdd40257915f753934b43755984618aeb2ae4fff096845769c2bb729e989be546040805180820190915260168152751059191c995cdcc81a5cc8185b1c9958591e481cd95d60521b928101929092526001600160a01b031615611f7d5760405162461bcd60e51b8152600401610b919190615677565b506040805180820190915260188152771e995c9bc81859191c995cdcc81b9bdd08185b1b1bddd95960421b60208201526001600160a01b038316611fd45760405162461bcd60e51b8152600401610b919190615677565b50611fea67537472617465677960c01b8361417b565b50611ff3614107565b5060006001600160a01b0316826001600160a01b0316631fe4a6866040518163ffffffff1660e01b815260040160206040518083038186803b15801561203857600080fd5b505afa15801561204c573d6000803e3d6000fd5b505050506040513d601f19601f820116820180604052508101906120709190615708565b6001600160a01b03161415604051806040016040528060188152602001771e995c9bc81859191c995cdcc81b9bdd08185b1b1bddd95960421b815250906120ca5760405162461bcd60e51b8152600401610b919190615677565b50600192915050565b6000611058600583614207565b6f2a30b933b2ba20b63637b1b0ba34b7b760811b600052603d6020527f0a3006de449e2f6da78c92d58370b3dd2ef3b1e1963fc373ed67d46ced02eb8f5490565b6c5374726174656769737446656560981b600052603d6020527f9991a201724620367b875943d3f1e2d8a65d067f05ccd6a37af85ae33cf679e95490565b681119589d131a5b5a5d60ba1b600052603d6020527fed35bbff007ae1d09677de3676c3cb1b0411569c4ab270913b3fb2a177a703195490565b64109bdd5b9960da1b600052603d6020527fcba6df5081839cab6ded1888d57f2772386c9d156438bb2faa7b07ec10c244705490565b6002546001600160a01b031633148061227557506121eb6135a1565b6001600160a01b03166391d1485469676f7665726e616e636560b01b336040518363ffffffff1660e01b8152600401612225929190615612565b60206040518083038186803b15801561223d57600080fd5b505afa158015612251573d6000803e3d6000fd5b505050506040513d601f19601f820116820180604052508101906122759190615629565b60405180604001604052806013815260200160008051602061580c833981519152815250906122b75760405162461bcd60e51b8152600401610b919190615677565b506122c061421c565b506002546122de906001600160a01b03166122d961376e565b613a4b565b565b60006122ea6135a1565b6001600160a01b03166391d1485469676f7665726e616e636560b01b336040518363ffffffff1660e01b8152600401612324929190615612565b60206040518083038186803b15801561233c57600080fd5b505afa158015612350573d6000803e3d6000fd5b505050506040513d601f19601f820116820180604052508101906123749190615629565b60405180604001604052806013815260200160008051602061580c833981519152815250906123b65760405162461bcd60e51b8152600401610b919190615677565b50610a76695265736572766546656560b01b6135c5565b60006123d76135a1565b6001600160a01b03166391d1485469676f7665726e616e636560b01b336040518363ffffffff1660e01b8152600401612411929190615612565b60206040518083038186803b15801561242957600080fd5b505afa15801561243d573d6000803e3d6000fd5b505050506040513d601f19601f820116820180604052508101906124619190615629565b60405180604001604052806013815260200160008051602061580c833981519152815250906124a35760405162461bcd60e51b8152600401610b919190615677565b50610a766c5374726174656769737446656560981b6135c5565b6000806124d96c5374726174656769737446656560981b613a68565b90506116e16124e661349f565b8261366c565b60025460408051639816f47360e01b815290516000926001600160a01b031691639816f473916004808301926020929190829003018186803b15801561253157600080fd5b505afa158015612545573d6000803e3d6000fd5b505050506040513d601f19601f82011682018060405250810190610a769190615708565b6060610a766005614305565b600061257f6135a1565b6001600160a01b03166391d1485469676f7665726e616e636560b01b336040518363ffffffff1660e01b81526004016125b9929190615612565b60206040518083038186803b1580156125d157600080fd5b505afa1580156125e5573d6000803e3d6000fd5b505050506040513d601f19601f820116820180604052508101906126099190615629565b60405180604001604052806013815260200160008051602061580c8339815191528152509061264b5760405162461bcd60e51b8152600401610b919190615677565b50610a7667537472617465677960c01b6143b4565b600061267667537472617465677960c01b614466565b6000612680610a7b565b90506001600160a01b0381161561282457612699613b4b565b50806001600160a01b031663fc0e74d16040518163ffffffff1660e01b8152600401602060405180830381600087803b1580156126d557600080fd5b505af11580156126e9573d6000803e3d6000fd5b505050506040513d601f19601f8201168201806040525081019061270d9190615629565b50806001600160a01b031663853828b66040518163ffffffff1660e01b8152600401602060405180830381600087803b15801561274957600080fd5b505af115801561275d573d6000803e3d6000fd5b505050506040513d601f19601f8201168201806040525081019061278191906156aa565b506000816001600160a01b031663b69ef8a86040518163ffffffff1660e01b815260040160206040518083038186803b1580156127bd57600080fd5b505afa1580156127d1573d6000803e3d6000fd5b505050506040513d601f19601f820116820180604052508101906127f591906156aa565b90508015612822576128096005838361450f565b50806001600082825461281c91906156f0565b90915550505b505b61282c61370e565b506000808055600381905567537472617465677960c01b90819052603a6020527fa4caf68bc3013a9a5274c5d8968485ae05b8c28e9f50493f41acc96b22818c23546001600160a01b031690612882908261417b565b506001600160a01b038116156110585761289a614107565b5092915050565b60006128ab6135a1565b6001600160a01b03166391d1485469676f7665726e616e636560b01b336040518363ffffffff1660e01b81526004016128e5929190615612565b60206040518083038186803b1580156128fd57600080fd5b505afa158015612911573d6000803e3d6000fd5b505050506040513d601f19601f820116820180604052508101906129359190615629565b60405180604001604052806013815260200160008051602061580c833981519152815250906129775760405162461bcd60e51b8152600401610b919190615677565b506110586f2a30b933b2ba20b63637b1b0ba34b7b760811b836136f7565b600061299f6135a1565b6001600160a01b03166391d1485469676f7665726e616e636560b01b336040518363ffffffff1660e01b81526004016129d9929190615612565b60206040518083038186803b1580156129f157600080fd5b505afa158015612a05573d6000803e3d6000fd5b505050506040513d601f19601f82011682018060405250810190612a299190615629565b60405180604001604052806013815260200160008051602061580c83398151915281525090612a6b5760405162461bcd60e51b8152600401610b919190615677565b50610a7664109bdd5b9960da1b6135c5565b6002546000906001600160a01b0316331480612b265750612a9c6135a1565b6001600160a01b03166391d1485469676f7665726e616e636560b01b336040518363ffffffff1660e01b8152600401612ad6929190615612565b60206040518083038186803b158015612aee57600080fd5b505afa158015612b02573d6000803e3d6000fd5b505050506040513d601f19601f82011682018060405250810190612b269190615629565b60405180604001604052806013815260200160008051602061580c83398151915281525090612b685760405162461bcd60e51b8152600401610b919190615677565b50610a7661421c565b6000612b7b6135a1565b6001600160a01b03166391d1485469676f7665726e616e636560b01b336040518363ffffffff1660e01b8152600401612bb5929190615612565b60206040518083038186803b158015612bcd57600080fd5b505afa158015612be1573d6000803e3d6000fd5b505050506040513d601f19601f82011682018060405250810190612c059190615629565b60405180604001604052806013815260200160008051602061580c83398151915281525090612c475760405162461bcd60e51b8152600401610b919190615677565b5061105867537472617465677960c01b836206978061452d565b600080612c6c61376e565b90506000612c78610a7b565b6001600160a01b03161415612c8c57919050565b600060015460005483612c9f91906156f0565b612ca991906156f0565b90508060035411612cc857600354612cc190826156d9565b9250505090565b60009250505090565b6000612cdb6135a1565b6001600160a01b03166391d1485469676f7665726e616e636560b01b336040518363ffffffff1660e01b8152600401612d15929190615612565b60206040518083038186803b158015612d2d57600080fd5b505afa158015612d41573d6000803e3d6000fd5b505050506040513d601f19601f82011682018060405250810190612d659190615629565b60405180604001604052806013815260200160008051602061580c83398151915281525090612da75760405162461bcd60e51b8152600401610b919190615677565b5060408051808201909152600e81526d1a5b9d985b1a5908185b5bdd5b9d60921b60208201526706f05b59d3b20000831115612df65760405162461bcd60e51b8152600401610b919190615677565b506110586d506572666f726d616e636546656560901b836136f7565b6000806116d76f2a30b933b2ba20b63637b1b0ba34b7b760811b613a68565b6002546001600160a01b0316331480612ed85750612e4d6135a1565b6001600160a01b03166391d148546a6d61696e74656e616e636560a81b336040518363ffffffff1660e01b8152600401612e88929190615612565b60206040518083038186803b158015612ea057600080fd5b505afa158015612eb4573d6000803e3d6000fd5b505050506040513d601f19601f82011682018060405250810190612ed89190615629565b60405180604001604052806013815260200160008051602061580c83398151915281525090612f1a5760405162461bcd60e51b8152600401610b919190615677565b506122de613a8c565b600080612f3c695265736572766546656560b01b613a68565b90506116e181611141612121565b600080612f62681119589d131a5b5a5d60ba1b613a68565b90506000612f7b826000546137f190919063ffffffff16565b90508060035410612f8e57612f8e6145aa565b50919050565b6000612f9e6135a1565b6001600160a01b03166391d1485469676f7665726e616e636560b01b336040518363ffffffff1660e01b8152600401612fd8929190615612565b60206040518083038186803b158015612ff057600080fd5b505afa158015613004573d6000803e3d6000fd5b505050506040513d601f19601f820116820180604052508101906130289190615629565b60405180604001604052806013815260200160008051602061580c8339815191528152509061306a5760405162461bcd60e51b8152600401610b919190615677565b50610a766d506572666f726d616e636546656560901b6135c5565b600061308f6135a1565b6001600160a01b03166391d1485469676f7665726e616e636560b01b336040518363ffffffff1660e01b81526004016130c9929190615612565b60206040518083038186803b1580156130e157600080fd5b505afa1580156130f5573d6000803e3d6000fd5b505050506040513d601f19601f820116820180604052508101906131199190615629565b60405180604001604052806013815260200160008051602061580c8339815191528152509061315b5760405162461bcd60e51b8152600401610b919190615677565b50610a76681119589d131a5b5a5d60ba1b6135c5565b6000610a766d506572666f726d616e636546656560901b613a68565b6000808061319c6005856145c7565b91509150816040518060400160405280601781526020017f537472617465677920646f6573206e6f74206578697374000000000000000000815250906131f55760405162461bcd60e51b8152600401610b919190615677565b506000849050806001600160a01b0316634641257d6040518163ffffffff1660e01b8152600401602060405180830381600087803b15801561323657600080fd5b505af115801561324a573d6000803e3d6000fd5b505050506040513d601f19601f8201168201806040525081019061326e91906156aa565b506000816001600160a01b031663853828b66040518163ffffffff1660e01b8152600401602060405180830381600087803b1580156132ac57600080fd5b505af11580156132c0573d6000803e3d6000fd5b505050506040513d601f19601f820116820180604052508101906132e491906156aa565b6001549091508082106132fb576000600155613309565b61330582826156d9565b6001555b838211156133f457600061331d85846156d9565b9050600061333b61333661332f611329565b84906137f1565b6145ee565b905080156133bd576133bd81866001600160a01b0316631fe4a6866040518163ffffffff1660e01b815260040160206040518083038186803b15801561338057600080fd5b505afa158015613394573d6000803e3d6000fd5b505050506040513d601f19601f820116820180604052508101906133b89190615708565b61464e565b60405160009650869083907f6c8433a8e155f0af04dba058d4e4695f7da554578963d876bdf4a6d8d6399d9c908390a35050613401565b6133fe82856156d9565b93505b826001600160a01b031663b69ef8a86040518163ffffffff1660e01b815260040160206040518083038186803b15801561343a57600080fd5b505afa15801561344e573d6000803e3d6000fd5b505050506040513d601f19601f8201168201806040525081019061347291906156aa565b613487576134816005846146e6565b50613495565b6134936005848661450f565b505b5095945050505050565b695265736572766546656560b01b600052603d6020527fa61f8e25cb35ba15fc70bbd3ba789d53bf34a4deddb38a43a213af3182d35aae5490565b6040516321f8a72160e01b81526a3937b632a6b0b730b3b2b960a91b60048201526000906001600160a01b038316906321f8a721906024015b60206040518083038186803b15801561352b57600080fd5b505afa15801561353f573d6000803e3d6000fd5b505050506040513d601f19601f820116820180604052508101906110589190615708565b6040516321f8a72160e01b81526b7661756c745265736572766560a01b60048201526000906001600160a01b038316906321f8a72190602401613513565b7f000000000000000000000000000000000000000000000000000000000000000090565b6000818152603e6020908152604080832054815180830190925260128252710646561646c696e65206d75737420626520360741b928201929092529061361e5760405162461bcd60e51b8152600401610b919190615677565b506000828152603e60209081526040808320839055603b9091528082208290555183917f90fb84ad67dd037c388289337bb80b61b8605d38ba9a875dc38b5600909d172f91a2506001919050565b670de0b6b3a764000061367f82846156f0565b11156136f35760405162461bcd60e51b815260206004820152603760248201527f73756d206f6620737472617465676973742066656520616e642072657365727660448201527f65206665652073686f756c642062652062656c6f7720310000000000000000006064820152608401610b91565b5050565b600061370783836203f4806146fb565b9392505050565b60045460009060ff166137215750600090565b6004805460ff19169055613733610a7b565b6001600160a01b03167f274ec28d31430170ad5dd350f8e7505ffab078c309300878c710383ae4cbed4960405160405180910390a250600190565b60006137786124ec565b6040516370a0823160e01b81523060048201526001600160a01b0391909116906370a082319060240160206040518083038186803b1580156137b957600080fd5b505afa1580156137cd573d6000803e3d6000fd5b505050506040513d601f19601f82011682018060405250810190610a7691906156aa565b6000670de0b6b3a76400006138068385615725565b6137079190615744565b60008183111561382b5761382482846156d9565b9050611058565b50600092915050565b60045460009060ff1661384957506000611058565b60006138536120e0565b9050600061385f610a7b565b9050600061386b612199565b9050600061387987856137f1565b9050600084156138925761388d83866156f0565b613895565b60005b9050670de0b6b3a764000081116138ac57806138b6565b670de0b6b3a76400005b905060008584116138d0576138cb84876156d9565b6138d3565b60005b90506138df89836137f1565b8811156139855760006138f2848a6156d9565b604051632e1a7d4d60e01b8152600481018290529091506001600160a01b03871690632e1a7d4d90602401602060405180830381600087803b15801561393757600080fd5b505af115801561394b573d6000803e3d6000fd5b505050506040513d601f19601f8201168201806040525081019061396f9190615629565b5061397c60005482613810565b60005550613a3c565b61398f89826137f1565b881015613a3c5760006139a289856156d9565b90506139ae8682613a4b565b806000808282546139bf91906156f0565b92505081905550856001600160a01b031663d0e30db06040518163ffffffff1660e01b8152600401602060405180830381600087803b158015613a0157600080fd5b505af1158015613a15573d6000803e3d6000fd5b505050506040513d601f19601f82011682018060405250810190613a399190615629565b50505b50600198975050505050505050565b6136f38282613a586124ec565b6001600160a01b03169190614751565b6000613a7382614466565b6000828152603b602052604090205461289a8382614781565b60045460ff16613a9857565b6000613aa2610a7b565b6001600160a01b031663b69ef8a86040518163ffffffff1660e01b815260040160206040518083038186803b158015613ada57600080fd5b505afa158015613aee573d6000803e3d6000fd5b505050506040513d601f19601f82011682018060405250810190613b1291906156aa565b9050600060015482613b2261376e565b613b2c91906156f0565b613b3691906156f0565b905080613b41575050565b610e5e8183613834565b600080613b56610a7b565b90506001600160a01b038116613b6e57600091505090565b806001600160a01b0316634641257d6040518163ffffffff1660e01b8152600401602060405180830381600087803b158015613ba957600080fd5b505af1158015613bbd573d6000803e3d6000fd5b505050506040513d601f19601f82011682018060405250810190613be191906156aa565b50600080826001600160a01b031663b69ef8a86040518163ffffffff1660e01b815260040160206040518083038186803b158015613c1e57600080fd5b505afa158015613c32573d6000803e3d6000fd5b505050506040513d601f19601f82011682018060405250810190613c5691906156aa565b6000546003549192509081831115613ce7576000613c7483856156d9565b905081811115613ca7578115613c9557613c8e82826156d9565b9050600091505b613c9e816147e2565b95509050613cb4565b613cb181836156d9565b91505b60405160009082907f6c8433a8e155f0af04dba058d4e4695f7da554578963d876bdf4a6d8d6399d9c908390a350613d78565b81831015613d6c576000613cfb84846156d9565b9050613d0781836156f0565b91506000613d1361215f565b90506000613d2185836137f1565b905080841115613d3757613d34846148ad565b93505b60405183906000907f6c8433a8e155f0af04dba058d4e4695f7da554578963d876bdf4a6d8d6399d9c908290a3505050613d78565b60019550505050505090565b80600381905550846001600160a01b031663b69ef8a86040518163ffffffff1660e01b815260040160206040518083038186803b158015613db857600080fd5b505afa158015613dcc573d6000803e3d6000fd5b505050506040513d601f19601f82011682018060405250810190613df091906156aa565b6000558315613d6c57613d6c84614ae5565b60408051808201909152600e81526d1a5b9d985b1a5908185b5bdd5b9d60921b6020820152670de0b6b3a7640000841115613e505760405162461bcd60e51b8152600401610b919190615677565b5060408051808201909152600e81526d1a5b9d985b1a5908185b5bdd5b9d60921b6020820152670de0b6b3a7640000831115613e9f5760405162461bcd60e51b8152600401610b919190615677565b5060408051808201909152600e81526d1a5b9d985b1a5908185b5bdd5b9d60921b60208201526706f05b59d3b20000821115613eee5760405162461bcd60e51b8152600401610b919190615677565b50600280546001600160a01b0319166001600160a01b038616179055613f20681119589d131a5b5a5d60ba1b84614781565b50613f3e6f2a30b933b2ba20b63637b1b0ba34b7b760811b83614781565b50613f5164109bdd5b9960da1b82614781565b50613f70695265736572766546656560b01b662386f26fc10000614781565b50613f936c5374726174656769737446656560981b67016345785d8a0000614781565b50611d326d506572666f726d616e636546656560901b6000614781565b8015806140395750604051636eb1769f60e11b81523060048201526001600160a01b03838116602483015284169063dd62ed3e9060440160206040518083038186803b158015613fff57600080fd5b505afa158015614013573d6000803e3d6000fd5b505050506040513d601f19601f8201168201806040525081019061403791906156aa565b155b6140a45760405162461bcd60e51b815260206004820152603660248201527f5361666545524332303a20617070726f76652066726f6d206e6f6e2d7a65726f60448201527520746f206e6f6e2d7a65726f20616c6c6f77616e636560501b6064820152608401610b91565b6040516001600160a01b038316602482015260448101829052610e5e90849063095ea7b360e01b906064015b60408051601f198184030181529190526020810180516001600160e01b03166001600160e01b031990931692909217909152614b2c565b600080614112610a7b565b90506001600160a01b03811661412a57600091505090565b6004805460ff191660011790556040516001600160a01b038216907f652f053fc39779b70b29678135ade972fcb79966fc68fcb77c996b1aa4fd9afb90600090a2614173613a8c565b600191505090565b6000828152603c6020908152604080832080546001600160a01b03198082166001600160a01b03888116918217909455603a86528487208054909216909155603e85528386208690558351929091168083529382015285917fc4a957706c639829ad54381b04930c464db6c7ffdc09d2b4b1acc9ee34fb926191015b60405180910390a2509092915050565b6000613707836001600160a01b038416614bfe565b600080614227610a7b565b90506001600160a01b03811661423f57600091505090565b614247613b4b565b50600061425261376e565b9050816001600160a01b031663853828b66040518163ffffffff1660e01b8152600401602060405180830381600087803b15801561428f57600080fd5b505af11580156142a3573d6000803e3d6000fd5b505050506040513d601f19601f820116820180604052508101906142c791906156aa565b5060006142d261376e565b905060006142e083836156d9565b90506142ee60005482613810565b6000556142f961370e565b50600194505050505090565b6060600061431283614c6e565b905060008167ffffffffffffffff81111561432f5761432f615766565b604051908082528060200260200182016040528015614358578160200160208202803683370190505b50905060005b828110156143ac576143708582614c79565b8282815181106143825761438261577c565b6001600160a01b0390921660209283029190910190910152806143a481615792565b91505061435e565b509392505050565b6000818152603e6020908152604080832054815180830190925260128252710646561646c696e65206d75737420626520360741b928201929092529061440d5760405162461bcd60e51b8152600401610b919190615677565b506000828152603e60209081526040808320839055603a90915280822080546001600160a01b03191690555183917f90fb84ad67dd037c388289337bb80b61b8605d38ba9a875dc38b5600909d172f91a2506001919050565b6000603e60008381526020019081526020016000205490508042101560405180606001604052806021815260200161582c60219139906144b95760405162461bcd60e51b8152600401610b919190615677565b5060408051808201909152600d81526c0646561646c696e65206973203609c1b6020820152816144fc5760405162461bcd60e51b8152600401610b919190615677565b50506000908152603e6020526040812055565b6000614525846001600160a01b03851684614c8f565b949350505050565b60006145398483614cac565b6000848152603a602090815260409182902080546001600160a01b0319166001600160a01b038716908117909155825190815290810184905285917fd46e58ee9dc1ae703349f8c09c19f23213a531b4d57f00cfd4a5a6cb6519668d91015b60405180910390a25060019392505050565b60035460006145b8826148ad565b90508082146136f35760035550565b60008080806145df866001600160a01b038716614d86565b909450925050505b9250929050565b6000806145fc61332f612121565b9050600061461261460b61349f565b85906137f1565b905060008161462184876156d9565b61462b91906156d9565b905061463682614dc0565b80156146455761464581614e77565b50909392505050565b6001600160a01b038116614660575050565b6002546040516317a790f160e11b81526001600160a01b0383811660048301526024820185905290911690632f4f21e290604401602060405180830381600087803b1580156146ae57600080fd5b505af11580156146c2573d6000803e3d6000fd5b505050506040513d601f19601f82011682018060405250810190610e5e91906156aa565b6000613707836001600160a01b038416614eb5565b60006147078483614cac565b6000848152603b6020908152604091829020859055815185815290810184905285917f0e6790002e78fb96ff1fdfe3a3bb2a86489d3f3923372c1fe5b6b1fed071eed49101614598565b6040516001600160a01b038316602482015260448101829052610e5e90849063a9059cbb60e01b906064016140d0565b6000828152603d60209081526040808320805490859055603b8352818420849055603e835281842084905581518181529283018590529185917fcc0bafe2accb565ea70674bf4b2555e49a47d410fb9932dfab3e5f41855d0a2f91016141f7565b60008060006147f261460b611329565b9050806147fd61376e565b101561488c5761480b610a7b565b6001600160a01b0316632e1a7d4d826040518263ffffffff1660e01b815260040161483891815260200190565b602060405180830381600087803b15801561485257600080fd5b505af1158015614866573d6000803e3d6000fd5b505050506040513d601f19601f8201168201806040525081019061488a9190615629565b505b6000614897826145ee565b90506148a382866156d9565b9590945092505050565b6000807f00000000000000000000000000000000000000000000000000000000000000006001600160a01b031663d4fac45d306148e86124ec565b6040516001600160e01b031960e085901b1681526001600160a01b0392831660048201529116602482015260440160206040518083038186803b15801561492e57600080fd5b505afa158015614942573d6000803e3d6000fd5b505050506040513d601f19601f8201168201806040525081019061496691906156aa565b90508083111561497e5761497981614ed2565b614ade565b60405163019262d360e41b81523060048201527f00000000000000000000000000000000000000000000000000000000000000006001600160a01b0316906319262d309060240160206040518083038186803b1580156149dd57600080fd5b505afa1580156149f1573d6000803e3d6000fd5b505050506040513d601f19601f82011682018060405250810190614a159190615629565b15614ade577f00000000000000000000000000000000000000000000000000000000000000006001600160a01b031663f3fef3a3614a516124ec565b6040516001600160e01b031960e084901b1681526001600160a01b03909116600482015260248101869052604401602060405180830381600087803b158015614a9957600080fd5b505af1158015614aad573d6000803e3d6000fd5b505050506040513d601f19601f82011682018060405250810190614ad19190615629565b5060009250614ade613a8c565b5090919050565b614b2981614af1610a7b565b6001600160a01b0316631fe4a6866040518163ffffffff1660e01b815260040160206040518083038186803b15801561338057600080fd5b50565b6000614b81826040518060400160405280602081526020017f5361666545524332303a206c6f772d6c6576656c2063616c6c206661696c6564815250856001600160a01b031661518e9092919063ffffffff16565b805190915015610e5e5780806020019051810190614b9f9190615629565b610e5e5760405162461bcd60e51b815260206004820152602a60248201527f5361666545524332303a204552433230206f7065726174696f6e20646964206e6044820152691bdd081cdd58d8d9595960b21b6064820152608401610b91565b600081815260028301602052604081205480151580614c225750614c22848461519d565b6137075760405162461bcd60e51b815260206004820152601e60248201527f456e756d657261626c654d61703a206e6f6e6578697374656e74206b657900006044820152606401610b91565b6000611058826151a9565b600080614c8684846151b4565b50949350505050565b6000828152600284016020526040812082905561452584846151c3565b603e600083815260200190815260200160002054600014604051806040016040528060128152602001710646561646c696e65206d75737420626520360741b81525090614d0c5760405162461bcd60e51b8152600401610b919190615677565b5060408051808201909152601881527f64656c6179206265206174206c6561737420332064617973000000000000000060208201526203f480821015614d655760405162461bcd60e51b8152600401610b919190615677565b50614d7081426156f0565b6000928352603e60205260409092209190915550565b6000818152600283016020526040812054819080614db557614da8858561519d565b9250600091506145e79050565b6001925090506145e7565b7f00000000000000000000000000000000000000000000000000000000000000006001600160a01b03166347e7ef24614df76124ec565b6040516001600160e01b031960e084901b1681526001600160a01b03909116600482015260248101849052604401602060405180830381600087803b158015614e3f57600080fd5b505af1158015614e53573d6000803e3d6000fd5b505050506040513d601f19601f820116820180604052508101906136f39190615629565b614b29614eac7f00000000000000000000000000000000000000000000000000000000000000006001600160a01b03166151cf565b82613a586124ec565b600081815260028301602052604081208190556137078383615209565b6000614edc610a7b565b6001600160a01b031663853828b66040518163ffffffff1660e01b8152600401602060405180830381600087803b158015614f1657600080fd5b505af1158015614f2a573d6000803e3d6000fd5b505050506040513d601f19601f82011682018060405250810190614f4e91906156aa565b90506000614f5e60005483613810565b60405163019262d360e41b81523060048201529091507f00000000000000000000000000000000000000000000000000000000000000006001600160a01b0316906319262d309060240160206040518083038186803b158015614fc057600080fd5b505afa158015614fd4573d6000803e3d6000fd5b505050506040513d601f19601f82011682018060405250810190614ff89190615629565b15615180578083106150c1577f00000000000000000000000000000000000000000000000000000000000000006001600160a01b031663f3fef3a361503b6124ec565b6040516001600160e01b031960e084901b1681526001600160a01b03909116600482015260248101849052604401602060405180830381600087803b15801561508357600080fd5b505af1158015615097573d6000803e3d6000fd5b505050506040513d601f19601f820116820180604052508101906150bb9190615629565b50615180565b8215615180577f00000000000000000000000000000000000000000000000000000000000000006001600160a01b031663f3fef3a36150fe6124ec565b6040516001600160e01b031960e084901b1681526001600160a01b03909116600482015260248101869052604401602060405180830381600087803b15801561514657600080fd5b505af115801561515a573d6000803e3d6000fd5b505050506040513d601f19601f8201168201806040525081019061517e9190615629565b505b61518861370e565b50505050565b60606145258484600085615215565b60006137078383615346565b60006110588261535e565b60008080806145df8686615368565b60006137078383615393565b6040516321f8a72160e01b815267747265617375727960c01b60048201526000906001600160a01b038316906321f8a72190602401613513565b600061370783836153e2565b6060824710156152765760405162461bcd60e51b815260206004820152602660248201527f416464726573733a20696e73756666696369656e742062616c616e636520666f6044820152651c8818d85b1b60d21b6064820152608401610b91565b6001600160a01b0385163b6152cd5760405162461bcd60e51b815260206004820152601d60248201527f416464726573733a2063616c6c20746f206e6f6e2d636f6e74726163740000006044820152606401610b91565b600080866001600160a01b031685876040516152e991906157ad565b60006040518083038185875af1925050503d8060008114615326576040519150601f19603f3d011682016040523d82523d6000602084013e61532b565b606091505b509150915061533b8282866154d5565b979650505050505050565b60008181526001830160205260408120541515613707565b6000611058825490565b60008080615376858561550e565b600081815260029690960160205260409095205494959350505050565b60008181526001830160205260408120546153da57508154600181810184556000848152602080822090930184905584548482528286019093526040902091909155611058565b506000611058565b600081815260018301602052604081205480156154cb5760006154066001836156d9565b855490915060009061541a906001906156d9565b905081811461547f57600086600001828154811061543a5761543a61577c565b906000526020600020015490508087600001848154811061545d5761545d61577c565b6000918252602080832090910192909255918252600188019052604090208390555b8554869080615490576154906157c9565b600190038181906000526020600020016000905590558560010160008681526020019081526020016000206000905560019350505050611058565b6000915050611058565b606083156154e4575081613707565b8251156154f45782518084602001fd5b8160405162461bcd60e51b8152600401610b919190615677565b60006137078383600082600001828154811061552c5761552c61577c565b9060005260206000200154905092915050565b60006020828403121561555157600080fd5b5035919050565b6001600160a01b0381168114614b2957600080fd5b6000806000806080858703121561558357600080fd5b843561558e81615558565b966020860135965060408601359560600135945092505050565b6000602082840312156155ba57600080fd5b813561370781615558565b6020808252825182820181905260009190848201906040850190845b818110156156065783516001600160a01b0316835292840192918401916001016155e1565b50909695505050505050565b9182526001600160a01b0316602082015260400190565b60006020828403121561563b57600080fd5b8151801515811461370757600080fd5b60005b8381101561566657818101518382015260200161564e565b838111156151885750506000910152565b602081526000825180602084015261569681604085016020870161564b565b601f01601f19169190910160400192915050565b6000602082840312156156bc57600080fd5b5051919050565b634e487b7160e01b600052601160045260246000fd5b6000828210156156eb576156eb6156c3565b500390565b60008219821115615703576157036156c3565b500190565b60006020828403121561571a57600080fd5b815161370781615558565b600081600019048311821515161561573f5761573f6156c3565b500290565b60008261576157634e487b7160e01b600052601260045260246000fd5b500490565b634e487b7160e01b600052604160045260246000fd5b634e487b7160e01b600052603260045260246000fd5b60006000198214156157a6576157a66156c3565b5060010190565b600082516157bf81846020870161564b565b9190910192915050565b634e487b7160e01b600052603160045260246000fdfe506f6f6c206d7573742062652070617573656420746f2077697468647261772066726f6d2072657365727665756e617574686f72697a65642061636365737300000000000000000000000000646561646c696e6520686173206e6f74206265656e207265616368656420796574a2646970667358221220b9461137cc7925b2efb3570802b116877a0ed0fa0e827563cedf28951c1dbd3664736f6c63430008090033","bytecodeSha1":"3c4eb680b66cbb910b52e3e09ce068ad6f03a64a","compiler":{"evm_version":"london","optimizer":{"enabled":true,"runs":200},"version":"0.8.9+commit.e5eed63a"},"contractName":"Erc20Vault","language":"Solidity","natspec":{"kind":"dev","methods":{"activateStrategy()":{"notice":"Activate the current strategy set for the vault.","returns":{"_0":"`true` if strategy has been activated"}},"deactivateStrategy()":{"notice":"Deactivates a strategy.","returns":{"_0":"`true` if strategy has been deactivated"}},"deposit()":{"notice":"Handles deposits from the liquidity pool"},"executeBound()":{"details":"Needs to be called after the update was prepraed. Fails if called before time delay is met.","notice":"Execute update of deviation bound for strategy allocation (with time delay enforced).","returns":{"_0":"New deviation bound."}},"executeDebtLimit()":{"details":"Needs to be called after the update was prepraed. Fails if called before time delay is met.","notice":"Execute update of debt limit (with time delay enforced).","returns":{"_0":"New debt limit."}},"executeNewStrategy()":{"details":"Needs to be called after the update was prepraed. Fails if called before time delay is met.","notice":"Execute strategy update (with time delay enforced).","returns":{"_0":"New strategy address."}},"executePerformanceFee()":{"details":"Needs to be called after the update was prepraed. Fails if called before time delay is met.","notice":"Execute update of performance fee (with time delay enforced).","returns":{"_0":"New performance fee."}},"executeReserveFee()":{"details":"Needs to be called after the update was prepraed. Fails if called before time delay is met.","notice":"Execute update of reserve fee (with time delay enforced).","returns":{"_0":"New reserve fee."}},"executeStrategistFee()":{"details":"Needs to be called after the update was prepraed. Fails if called before time delay is met.","notice":"Execute update of strategist fee (with time delay enforced).","returns":{"_0":"New strategist fee."}},"executeTargetAllocation()":{"details":"Needs to be called after the update was prepraed. Fails if called before time delay is met.","notice":"Execute update of target allocation (with time delay enforced).","returns":{"_0":"New target allocation."}},"getBound()":{"notice":"Returns the allowed symmetric bound for target allocation (e.g. +- 5%)"},"getDebtLimit()":{"notice":"The debt limit that the total debt of a strategy may not exceed."},"getPerformanceFee()":{"details":"The strategist is paid in LP tokens, while the remainder of the profit stays in the vault.      Default performance fee is set to 5% of harvested profits.","notice":"Returns the fee charged on a strategy's generated profits."},"getReserveFee()":{"notice":"Returns the percentage of the performance fee which is allocated to the vault reserve"},"getStrategistFee()":{"notice":"Returns the percentage of the performance fee that goes to the strategist."},"getTargetAllocation()":{"details":"this is to reduce gas costs. Withdrawals first come from idle funds and can therefore      avoid unnecessary gas costs.","notice":"The target percentage of total underlying funds to be allocated towards a strategy."},"getTotalUnderlying()":{"notice":"Computes the total underlying of the vault: idle funds + allocated funds - debt","returns":{"_0":"Total amount of underlying."}},"harvest()":{"details":"Harvesting adds profits to the vault's balance and deducts fees.  No performance fees are charged on profit used to repay debt.","notice":"Harvest profits from the vault's strategy.","returns":{"_0":"`true` if successful."}},"initializeStrategy(address)":{"details":"Bypasses the time delay, but can only be called if strategy is not set already.","notice":"Initializes the vault's strategy.","params":{"strategy_":"Address of the strategy."},"returns":{"_0":"`true` if successful."}},"prepareBound(uint256)":{"notice":"Prepare update of deviation bound for strategy allocation (with time delay enforced).","params":{"newBound":"New deviation bound for target allocation."},"returns":{"_0":"`true` if successful."}},"prepareDebtLimit(uint256)":{"notice":"Prepare update of debt limit (with time delay enforced).","params":{"newDebtLimit":"New debt limit."},"returns":{"_0":"`true` if successful."}},"prepareNewStrategy(address)":{"notice":"Prepare update of the vault's strategy (with time delay enforced).","params":{"newStrategy":"Address of the new strategy."},"returns":{"_0":"`true` if successful."}},"preparePerformanceFee(uint256)":{"notice":"Prepare update of performance fee (with time delay enforced).","params":{"newPerformanceFee":"New performance fee value."},"returns":{"_0":"`true` if successful."}},"prepareReserveFee(uint256)":{"notice":"Prepare update of reserve fee (with time delay enforced).","params":{"newReserveFee":"New reserve fee."},"returns":{"_0":"`true` if successful."}},"prepareStrategistFee(uint256)":{"notice":"Prepare update of strategist fee (with time delay enforced).","params":{"newStrategistFee":"New strategist fee value."},"returns":{"_0":"`true` if successful."}},"prepareTargetAllocation(uint256)":{"notice":"Prepare update of target allocation (with time delay enforced).","params":{"newTargetAllocation":"New target allocation."},"returns":{"_0":"`true` if successful."}},"withdraw(uint256)":{"details":"If the specified amount exceeds idle funds, an amount of funds is withdrawn      from the strategy such that it will achieve a target allocation for after the      amount has been withdrawn.","notice":"Withdraws specified amount of underlying from vault.","params":{"amount":"Amount to withdraw."},"returns":{"_0":"`true` if successful."}},"withdrawAll()":{"notice":"Withdraws all funds from vault and strategy and transfer them to the pool."},"withdrawAllFromStrategy()":{"details":"Harvests profits before withdrawing. Deactivates strategy after withdrawing.","notice":"Withdraws all funds from strategy to vault.","returns":{"_0":"`true` if successful."}},"withdrawFromReserve(uint256)":{"details":"Withdraws from reserve will cause a spike in pool exchange rate.  Pool deposits should be paused during this to prevent front running","notice":"Withdraws specified amount of underlying from reserve to vault.","params":{"amount":"Amount to withdraw."}},"withdrawFromStrategy(uint256)":{"notice":"Withdraws an amount of underlying from the strategy to the vault.","params":{"amount":"Amount of underlying to withdraw."},"returns":{"_0":"True if successful withdrawal."}}},"version":1},"opcodes":"PUSH1 0x80 PUSH1 0x40 MSTORE PUSH1 0x4 CALLDATASIZE LT PUSH2 0x3A1 JUMPI PUSH1 0x0 CALLDATALOAD PUSH1 0xE0 SHR DUP1 PUSH4 0x8E6AC89B GT PUSH2 0x1E7 JUMPI DUP1 PUSH4 0xC4BAED93 GT PUSH2 0x10D JUMPI DUP1 PUSH4 0xE3976EDF GT PUSH2 0xA0 JUMPI DUP1 PUSH4 0xF76C3399 GT PUSH2 0x6F JUMPI DUP1 PUSH4 0xF76C3399 EQ PUSH2 0x9D6 JUMPI DUP1 PUSH4 0xF77C4791 EQ PUSH2 0xA0C JUMPI DUP1 PUSH4 0xF95D9438 EQ PUSH2 0xA40 JUMPI DUP1 PUSH4 0xFC7B9C18 EQ PUSH2 0xA56 JUMPI PUSH1 0x0 DUP1 REVERT JUMPDEST DUP1 PUSH4 0xE3976EDF EQ PUSH2 0x956 JUMPI DUP1 PUSH4 0xF09B8FB1 EQ PUSH2 0x98C JUMPI DUP1 PUSH4 0xF1EEB9E6 EQ PUSH2 0x9A1 JUMPI DUP1 PUSH4 0xF3E7FC80 EQ PUSH2 0x9C1 JUMPI PUSH1 0x0 DUP1 REVERT JUMPDEST DUP1 PUSH4 0xD46A8478 GT PUSH2 0xDC JUMPI DUP1 PUSH4 0xD46A8478 EQ PUSH2 0x902 JUMPI DUP1 PUSH4 0xD583E659 EQ PUSH2 0x917 JUMPI DUP1 PUSH4 0xD698E2BB EQ PUSH2 0x92C JUMPI DUP1 PUSH4 0xD8AE7BF8 EQ PUSH2 0x941 JUMPI PUSH1 0x0 DUP1 REVERT JUMPDEST DUP1 PUSH4 0xC4BAED93 EQ PUSH2 0x891 JUMPI DUP1 PUSH4 0xC9FD9227 EQ PUSH2 0x8B1 JUMPI DUP1 PUSH4 0xCD3293DE EQ PUSH2 0x8C6 JUMPI DUP1 PUSH4 0xD0E30DB0 EQ PUSH2 0x8FA JUMPI PUSH1 0x0 DUP1 REVERT JUMPDEST DUP1 PUSH4 0xA852D3E0 GT PUSH2 0x185 JUMPI DUP1 PUSH4 0xAFF1B7E4 GT PUSH2 0x154 JUMPI DUP1 PUSH4 0xAFF1B7E4 EQ PUSH2 0x835 JUMPI DUP1 PUSH4 0xB40494E5 EQ PUSH2 0x862 JUMPI DUP1 PUSH4 0xBD2A8B07 EQ PUSH2 0x877 JUMPI DUP1 PUSH4 0xBDCA9165 EQ PUSH2 0x74E JUMPI PUSH1 0x0 DUP1 REVERT JUMPDEST DUP1 PUSH4 0xA852D3E0 EQ PUSH2 0x7CB JUMPI DUP1 PUSH4 0xA966BC09 EQ PUSH2 0x7EB JUMPI DUP1 PUSH4 0xADE10960 EQ PUSH2 0x800 JUMPI DUP1 PUSH4 0xAF2A8FFF EQ PUSH2 0x815 JUMPI PUSH1 0x0 DUP1 REVERT JUMPDEST DUP1 PUSH4 0x9816F473 GT PUSH2 0x1C1 JUMPI DUP1 PUSH4 0x9816F473 EQ PUSH2 0x76A JUMPI DUP1 PUSH4 0x9CF7FCC9 EQ PUSH2 0x77F JUMPI DUP1 PUSH4 0x9D711F3B EQ PUSH2 0x7A1 JUMPI DUP1 PUSH4 0xA50EC876 EQ PUSH2 0x7B6 JUMPI PUSH1 0x0 DUP1 REVERT JUMPDEST DUP1 PUSH4 0x8E6AC89B EQ PUSH2 0x724 JUMPI DUP1 PUSH4 0x90F38918 EQ PUSH2 0x739 JUMPI DUP1 PUSH4 0x9407D08F EQ PUSH2 0x74E JUMPI PUSH1 0x0 DUP1 REVERT JUMPDEST DUP1 PUSH4 0x4278A673 GT PUSH2 0x2CC JUMPI DUP1 PUSH4 0x6F21CAC3 GT PUSH2 0x26A JUMPI DUP1 PUSH4 0x7FEF50DA GT PUSH2 0x239 JUMPI DUP1 PUSH4 0x7FEF50DA EQ PUSH2 0x6CF JUMPI DUP1 PUSH4 0x853828B6 EQ PUSH2 0x6E4 JUMPI DUP1 PUSH4 0x890F5F83 EQ PUSH2 0x6F9 JUMPI DUP1 PUSH4 0x89EFCAAC EQ PUSH2 0x70E JUMPI PUSH1 0x0 DUP1 REVERT JUMPDEST DUP1 PUSH4 0x6F21CAC3 EQ PUSH2 0x670 JUMPI DUP1 PUSH4 0x779CE5A4 EQ PUSH2 0x690 JUMPI DUP1 PUSH4 0x798CF01D EQ PUSH2 0x6A5 JUMPI DUP1 PUSH4 0x7CD32A12 EQ PUSH2 0x6BA JUMPI PUSH1 0x0 DUP1 REVERT JUMPDEST DUP1 PUSH4 0x4EC81AF1 GT PUSH2 0x2A6 JUMPI DUP1 PUSH4 0x4EC81AF1 EQ PUSH2 0x604 JUMPI DUP1 PUSH4 0x6741C1B9 EQ PUSH2 0x624 JUMPI DUP1 PUSH4 0x678CBCB5 EQ PUSH2 0x639 JUMPI DUP1 PUSH4 0x6D785CF3 EQ PUSH2 0x659 JUMPI PUSH1 0x0 DUP1 REVERT JUMPDEST DUP1 PUSH4 0x4278A673 EQ PUSH2 0x5AF JUMPI DUP1 PUSH4 0x4641257D EQ PUSH2 0x5CF JUMPI DUP1 PUSH4 0x48B19335 EQ PUSH2 0x5E4 JUMPI PUSH1 0x0 DUP1 REVERT JUMPDEST DUP1 PUSH4 0x16F0115B GT PUSH2 0x344 JUMPI DUP1 PUSH4 0x2954018C GT PUSH2 0x313 JUMPI DUP1 PUSH4 0x2954018C EQ PUSH2 0x519 JUMPI DUP1 PUSH4 0x2E1A7D4D EQ PUSH2 0x54D JUMPI DUP1 PUSH4 0x32A894C1 EQ PUSH2 0x56D JUMPI DUP1 PUSH4 0x346A4A51 EQ PUSH2 0x582 JUMPI PUSH1 0x0 DUP1 REVERT JUMPDEST DUP1 PUSH4 0x16F0115B EQ PUSH2 0x4AF JUMPI DUP1 PUSH4 0x21401DD1 EQ PUSH2 0x4CF JUMPI DUP1 PUSH4 0x2182A5C4 EQ PUSH2 0x4E4 JUMPI DUP1 PUSH4 0x235C3603 EQ PUSH2 0x504 JUMPI PUSH1 0x0 DUP1 REVERT JUMPDEST DUP1 PUSH4 0xEE43C20 GT PUSH2 0x380 JUMPI DUP1 PUSH4 0xEE43C20 EQ PUSH2 0x40F JUMPI DUP1 PUSH4 0xFE6CBCF EQ PUSH2 0x434 JUMPI DUP1 PUSH4 0x102A9126 EQ PUSH2 0x454 JUMPI DUP1 PUSH4 0x15DBFE62 EQ PUSH2 0x474 JUMPI PUSH1 0x0 DUP1 REVERT JUMPDEST DUP1 PUSH3 0x435DA5 EQ PUSH2 0x3A6 JUMPI DUP1 PUSH4 0x7DA0603 EQ PUSH2 0x3D8 JUMPI DUP1 PUSH4 0xA8BCDB9 EQ PUSH2 0x3ED JUMPI JUMPDEST PUSH1 0x0 DUP1 REVERT JUMPDEST CALLVALUE DUP1 ISZERO PUSH2 0x3B2 JUMPI PUSH1 0x0 DUP1 REVERT JUMPDEST POP PUSH2 0x3BB PUSH2 0xA6C JUMP JUMPDEST PUSH1 0x40 MLOAD PUSH1 0x1 PUSH1 0x1 PUSH1 0xA0 SHL SUB SWAP1 SWAP2 AND DUP2 MSTORE PUSH1 0x20 ADD JUMPDEST PUSH1 0x40 MLOAD DUP1 SWAP2 SUB SWAP1 RETURN JUMPDEST CALLVALUE DUP1 ISZERO PUSH2 0x3E4 JUMPI PUSH1 0x0 DUP1 REVERT JUMPDEST POP PUSH2 0x3BB PUSH2 0xA7B JUMP JUMPDEST CALLVALUE DUP1 ISZERO PUSH2 0x3F9 JUMPI PUSH1 0x0 DUP1 REVERT JUMPDEST POP PUSH2 0x40D PUSH2 0x408 CALLDATASIZE PUSH1 0x4 PUSH2 0x553F JUMP JUMPDEST PUSH2 0xABD JUMP JUMPDEST STOP JUMPDEST CALLVALUE DUP1 ISZERO PUSH2 0x41B JUMPI PUSH1 0x0 DUP1 REVERT JUMPDEST POP PUSH2 0x424 PUSH2 0xE63 JUMP JUMPDEST PUSH1 0x40 MLOAD SWAP1 ISZERO ISZERO DUP2 MSTORE PUSH1 0x20 ADD PUSH2 0x3CF JUMP JUMPDEST CALLVALUE DUP1 ISZERO PUSH2 0x440 JUMPI PUSH1 0x0 DUP1 REVERT JUMPDEST POP PUSH2 0x424 PUSH2 0x44F CALLDATASIZE PUSH1 0x4 PUSH2 0x553F JUMP JUMPDEST PUSH2 0xF56 JUMP JUMPDEST CALLVALUE DUP1 ISZERO PUSH2 0x460 JUMPI PUSH1 0x0 DUP1 REVERT JUMPDEST POP PUSH2 0x424 PUSH2 0x46F CALLDATASIZE PUSH1 0x4 PUSH2 0x553F JUMP JUMPDEST PUSH2 0x105E JUMP JUMPDEST CALLVALUE DUP1 ISZERO PUSH2 0x480 JUMPI PUSH1 0x0 DUP1 REVERT JUMPDEST POP PUSH2 0x4A1 PUSH2 0x48F CALLDATASIZE PUSH1 0x4 PUSH2 0x553F JUMP JUMPDEST PUSH1 0x3B PUSH1 0x20 MSTORE PUSH1 0x0 SWAP1 DUP2 MSTORE PUSH1 0x40 SWAP1 KECCAK256 SLOAD DUP2 JUMP JUMPDEST PUSH1 0x40 MLOAD SWAP1 DUP2 MSTORE PUSH1 0x20 ADD PUSH2 0x3CF JUMP JUMPDEST CALLVALUE DUP1 ISZERO PUSH2 0x4BB JUMPI PUSH1 0x0 DUP1 REVERT JUMPDEST POP PUSH1 0x2 SLOAD PUSH2 0x3BB SWAP1 PUSH1 0x1 PUSH1 0x1 PUSH1 0xA0 SHL SUB AND DUP2 JUMP JUMPDEST CALLVALUE DUP1 ISZERO PUSH2 0x4DB JUMPI PUSH1 0x0 DUP1 REVERT JUMPDEST POP PUSH2 0x424 PUSH2 0x115D JUMP JUMPDEST CALLVALUE DUP1 ISZERO PUSH2 0x4F0 JUMPI PUSH1 0x0 DUP1 REVERT JUMPDEST POP PUSH2 0x424 PUSH2 0x4FF CALLDATASIZE PUSH1 0x4 PUSH2 0x553F JUMP JUMPDEST PUSH2 0x123C JUMP JUMPDEST CALLVALUE DUP1 ISZERO PUSH2 0x510 JUMPI PUSH1 0x0 DUP1 REVERT JUMPDEST POP PUSH2 0x4A1 PUSH2 0x1329 JUMP JUMPDEST CALLVALUE DUP1 ISZERO PUSH2 0x525 JUMPI PUSH1 0x0 DUP1 REVERT JUMPDEST POP PUSH2 0x3BB PUSH32 0x0 DUP2 JUMP JUMPDEST CALLVALUE DUP1 ISZERO PUSH2 0x559 JUMPI PUSH1 0x0 DUP1 REVERT JUMPDEST POP PUSH2 0x424 PUSH2 0x568 CALLDATASIZE PUSH1 0x4 PUSH2 0x553F JUMP JUMPDEST PUSH2 0x1368 JUMP JUMPDEST CALLVALUE DUP1 ISZERO PUSH2 0x579 JUMPI PUSH1 0x0 DUP1 REVERT JUMPDEST POP PUSH2 0x4A1 PUSH2 0x16C3 JUMP JUMPDEST CALLVALUE DUP1 ISZERO PUSH2 0x58E JUMPI PUSH1 0x0 DUP1 REVERT JUMPDEST POP PUSH2 0x4A1 PUSH2 0x59D CALLDATASIZE PUSH1 0x4 PUSH2 0x553F JUMP JUMPDEST PUSH1 0x3E PUSH1 0x20 MSTORE PUSH1 0x0 SWAP1 DUP2 MSTORE PUSH1 0x40 SWAP1 KECCAK256 SLOAD DUP2 JUMP JUMPDEST CALLVALUE DUP1 ISZERO PUSH2 0x5BB JUMPI PUSH1 0x0 DUP1 REVERT JUMPDEST POP PUSH2 0x424 PUSH2 0x5CA CALLDATASIZE PUSH1 0x4 PUSH2 0x553F JUMP JUMPDEST PUSH2 0x16E6 JUMP JUMPDEST CALLVALUE DUP1 ISZERO PUSH2 0x5DB JUMPI PUSH1 0x0 DUP1 REVERT JUMPDEST POP PUSH2 0x424 PUSH2 0x181E JUMP JUMPDEST CALLVALUE DUP1 ISZERO PUSH2 0x5F0 JUMPI PUSH1 0x0 DUP1 REVERT JUMPDEST POP PUSH2 0x424 PUSH2 0x5FF CALLDATASIZE PUSH1 0x4 PUSH2 0x553F JUMP JUMPDEST PUSH2 0x1913 JUMP JUMPDEST CALLVALUE DUP1 ISZERO PUSH2 0x610 JUMPI PUSH1 0x0 DUP1 REVERT JUMPDEST POP PUSH2 0x40D PUSH2 0x61F CALLDATASIZE PUSH1 0x4 PUSH2 0x556D JUMP JUMPDEST PUSH2 0x1B4C JUMP JUMPDEST CALLVALUE DUP1 ISZERO PUSH2 0x630 JUMPI PUSH1 0x0 DUP1 REVERT JUMPDEST POP PUSH2 0x424 PUSH2 0x1D39 JUMP JUMPDEST CALLVALUE DUP1 ISZERO PUSH2 0x645 JUMPI PUSH1 0x0 DUP1 REVERT JUMPDEST POP PUSH2 0x424 PUSH2 0x654 CALLDATASIZE PUSH1 0x4 PUSH2 0x55A8 JUMP JUMPDEST PUSH2 0x1E18 JUMP JUMPDEST CALLVALUE DUP1 ISZERO PUSH2 0x665 JUMPI PUSH1 0x0 DUP1 REVERT JUMPDEST POP PUSH2 0x4A1 PUSH3 0x69780 DUP2 JUMP JUMPDEST CALLVALUE DUP1 ISZERO PUSH2 0x67C JUMPI PUSH1 0x0 DUP1 REVERT JUMPDEST POP PUSH2 0x4A1 PUSH2 0x68B CALLDATASIZE PUSH1 0x4 PUSH2 0x55A8 JUMP JUMPDEST PUSH2 0x20D3 JUMP JUMPDEST CALLVALUE DUP1 ISZERO PUSH2 0x69C JUMPI PUSH1 0x0 DUP1 REVERT JUMPDEST POP PUSH2 0x4A1 PUSH2 0x20E0 JUMP JUMPDEST CALLVALUE DUP1 ISZERO PUSH2 0x6B1 JUMPI PUSH1 0x0 DUP1 REVERT JUMPDEST POP PUSH2 0x4A1 PUSH2 0x2121 JUMP JUMPDEST CALLVALUE DUP1 ISZERO PUSH2 0x6C6 JUMPI PUSH1 0x0 DUP1 REVERT JUMPDEST POP PUSH2 0x4A1 PUSH2 0x215F JUMP JUMPDEST CALLVALUE DUP1 ISZERO PUSH2 0x6DB JUMPI PUSH1 0x0 DUP1 REVERT JUMPDEST POP PUSH2 0x4A1 PUSH2 0x2199 JUMP JUMPDEST CALLVALUE DUP1 ISZERO PUSH2 0x6F0 JUMPI PUSH1 0x0 DUP1 REVERT JUMPDEST POP PUSH2 0x40D PUSH2 0x21CF JUMP JUMPDEST CALLVALUE DUP1 ISZERO PUSH2 0x705 JUMPI PUSH1 0x0 DUP1 REVERT JUMPDEST POP PUSH2 0x424 PUSH2 0x22E0 JUMP JUMPDEST CALLVALUE DUP1 ISZERO PUSH2 0x71A JUMPI PUSH1 0x0 DUP1 REVERT JUMPDEST POP PUSH2 0x4A1 PUSH1 0x1 SLOAD DUP2 JUMP JUMPDEST CALLVALUE DUP1 ISZERO PUSH2 0x730 JUMPI PUSH1 0x0 DUP1 REVERT JUMPDEST POP PUSH2 0x424 PUSH2 0x23CD JUMP JUMPDEST CALLVALUE DUP1 ISZERO PUSH2 0x745 JUMPI PUSH1 0x0 DUP1 REVERT JUMPDEST POP PUSH2 0x4A1 PUSH2 0x24BD JUMP JUMPDEST CALLVALUE DUP1 ISZERO PUSH2 0x75A JUMPI PUSH1 0x0 DUP1 REVERT JUMPDEST POP PUSH2 0x4A1 PUSH8 0x6F05B59D3B20000 DUP2 JUMP JUMPDEST CALLVALUE DUP1 ISZERO PUSH2 0x776 JUMPI PUSH1 0x0 DUP1 REVERT JUMPDEST POP PUSH2 0x3BB PUSH2 0x24EC JUMP JUMPDEST CALLVALUE DUP1 ISZERO PUSH2 0x78B JUMPI PUSH1 0x0 DUP1 REVERT JUMPDEST POP PUSH2 0x794 PUSH2 0x2569 JUMP JUMPDEST PUSH1 0x40 MLOAD PUSH2 0x3CF SWAP2 SWAP1 PUSH2 0x55C5 JUMP JUMPDEST CALLVALUE DUP1 ISZERO PUSH2 0x7AD JUMPI PUSH1 0x0 DUP1 REVERT JUMPDEST POP PUSH2 0x424 PUSH2 0x2575 JUMP JUMPDEST CALLVALUE DUP1 ISZERO PUSH2 0x7C2 JUMPI PUSH1 0x0 DUP1 REVERT JUMPDEST POP PUSH2 0x3BB PUSH2 0x2660 JUMP JUMPDEST CALLVALUE DUP1 ISZERO PUSH2 0x7D7 JUMPI PUSH1 0x0 DUP1 REVERT JUMPDEST POP PUSH2 0x424 PUSH2 0x7E6 CALLDATASIZE PUSH1 0x4 PUSH2 0x553F JUMP JUMPDEST PUSH2 0x28A1 JUMP JUMPDEST CALLVALUE DUP1 ISZERO PUSH2 0x7F7 JUMPI PUSH1 0x0 DUP1 REVERT JUMPDEST POP PUSH2 0x424 PUSH2 0x2995 JUMP JUMPDEST CALLVALUE DUP1 ISZERO PUSH2 0x80C JUMPI PUSH1 0x0 DUP1 REVERT JUMPDEST POP PUSH2 0x424 PUSH2 0x2A7D JUMP JUMPDEST CALLVALUE DUP1 ISZERO PUSH2 0x821 JUMPI PUSH1 0x0 DUP1 REVERT JUMPDEST POP PUSH2 0x424 PUSH2 0x830 CALLDATASIZE PUSH1 0x4 PUSH2 0x55A8 JUMP JUMPDEST PUSH2 0x2B71 JUMP JUMPDEST CALLVALUE DUP1 ISZERO PUSH2 0x841 JUMPI PUSH1 0x0 DUP1 REVERT JUMPDEST POP PUSH2 0x4A1 PUSH2 0x850 CALLDATASIZE PUSH1 0x4 PUSH2 0x553F JUMP JUMPDEST PUSH1 0x3D PUSH1 0x20 MSTORE PUSH1 0x0 SWAP1 DUP2 MSTORE PUSH1 0x40 SWAP1 KECCAK256 SLOAD DUP2 JUMP JUMPDEST CALLVALUE DUP1 ISZERO PUSH2 0x86E JUMPI PUSH1 0x0 DUP1 REVERT JUMPDEST POP PUSH2 0x4A1 PUSH2 0x2C61 JUMP JUMPDEST CALLVALUE DUP1 ISZERO PUSH2 0x883 JUMPI PUSH1 0x0 DUP1 REVERT JUMPDEST POP PUSH1 0x4 SLOAD PUSH2 0x424 SWAP1 PUSH1 0xFF AND DUP2 JUMP JUMPDEST CALLVALUE DUP1 ISZERO PUSH2 0x89D JUMPI PUSH1 0x0 DUP1 REVERT JUMPDEST POP PUSH2 0x424 PUSH2 0x8AC CALLDATASIZE PUSH1 0x4 PUSH2 0x553F JUMP JUMPDEST PUSH2 0x2CD1 JUMP JUMPDEST CALLVALUE DUP1 ISZERO PUSH2 0x8BD JUMPI PUSH1 0x0 DUP1 REVERT JUMPDEST POP PUSH2 0x4A1 PUSH2 0x2E12 JUMP JUMPDEST CALLVALUE DUP1 ISZERO PUSH2 0x8D2 JUMPI PUSH1 0x0 DUP1 REVERT JUMPDEST POP PUSH2 0x3BB PUSH32 0x0 DUP2 JUMP JUMPDEST PUSH2 0x40D PUSH2 0x2E31 JUMP JUMPDEST CALLVALUE DUP1 ISZERO PUSH2 0x90E JUMPI PUSH1 0x0 DUP1 REVERT JUMPDEST POP PUSH2 0x4A1 PUSH2 0x2F23 JUMP JUMPDEST CALLVALUE DUP1 ISZERO PUSH2 0x923 JUMPI PUSH1 0x0 DUP1 REVERT JUMPDEST POP PUSH2 0x4A1 PUSH2 0x2F4A JUMP JUMPDEST CALLVALUE DUP1 ISZERO PUSH2 0x938 JUMPI PUSH1 0x0 DUP1 REVERT JUMPDEST POP PUSH2 0x424 PUSH2 0x2F94 JUMP JUMPDEST CALLVALUE DUP1 ISZERO PUSH2 0x94D JUMPI PUSH1 0x0 DUP1 REVERT JUMPDEST POP PUSH2 0x424 PUSH2 0x3085 JUMP JUMPDEST CALLVALUE DUP1 ISZERO PUSH2 0x962 JUMPI PUSH1 0x0 DUP1 REVERT JUMPDEST POP PUSH2 0x3BB PUSH2 0x971 CALLDATASIZE PUSH1 0x4 PUSH2 0x553F JUMP JUMPDEST PUSH1 0x3A PUSH1 0x20 MSTORE PUSH1 0x0 SWAP1 DUP2 MSTORE PUSH1 0x40 SWAP1 KECCAK256 SLOAD PUSH1 0x1 PUSH1 0x1 PUSH1 0xA0 SHL SUB AND DUP2 JUMP JUMPDEST CALLVALUE DUP1 ISZERO PUSH2 0x998 JUMPI PUSH1 0x0 DUP1 REVERT JUMPDEST POP PUSH2 0x4A1 PUSH2 0x3171 JUMP JUMPDEST CALLVALUE DUP1 ISZERO PUSH2 0x9AD JUMPI PUSH1 0x0 DUP1 REVERT JUMPDEST POP PUSH2 0x4A1 PUSH2 0x9BC CALLDATASIZE PUSH1 0x4 PUSH2 0x55A8 JUMP JUMPDEST PUSH2 0x318D JUMP JUMPDEST CALLVALUE DUP1 ISZERO PUSH2 0x9CD JUMPI PUSH1 0x0 DUP1 REVERT JUMPDEST POP PUSH2 0x4A1 PUSH2 0x349F JUMP JUMPDEST CALLVALUE DUP1 ISZERO PUSH2 0x9E2 JUMPI PUSH1 0x0 DUP1 REVERT JUMPDEST POP PUSH2 0x3BB PUSH2 0x9F1 CALLDATASIZE PUSH1 0x4 PUSH2 0x553F JUMP JUMPDEST PUSH1 0x3C PUSH1 0x20 MSTORE PUSH1 0x0 SWAP1 DUP2 MSTORE PUSH1 0x40 SWAP1 KECCAK256 SLOAD PUSH1 0x1 PUSH1 0x1 PUSH1 0xA0 SHL SUB AND DUP2 JUMP JUMPDEST CALLVALUE DUP1 ISZERO PUSH2 0xA18 JUMPI PUSH1 0x0 DUP1 REVERT JUMPDEST POP PUSH2 0x3BB PUSH32 0x0 DUP2 JUMP JUMPDEST CALLVALUE DUP1 ISZERO PUSH2 0xA4C JUMPI PUSH1 0x0 DUP1 REVERT JUMPDEST POP PUSH2 0x4A1 PUSH1 0x0 SLOAD DUP2 JUMP JUMPDEST CALLVALUE DUP1 ISZERO PUSH2 0xA62 JUMPI PUSH1 0x0 DUP1 REVERT JUMPDEST POP PUSH2 0x4A1 PUSH1 0x3 SLOAD DUP2 JUMP JUMPDEST PUSH1 0x0 PUSH2 0xA76 PUSH2 0x35A1 JUMP JUMPDEST SWAP1 POP SWAP1 JUMP JUMPDEST PUSH8 0x5374726174656779 PUSH1 0xC0 SHL PUSH1 0x0 MSTORE PUSH1 0x3C PUSH1 0x20 MSTORE PUSH32 0x15BDD40257915F753934B43755984618AEB2AE4FFF096845769C2BB729E989BE SLOAD PUSH1 0x1 PUSH1 0x1 PUSH1 0xA0 SHL SUB AND SWAP1 JUMP JUMPDEST PUSH2 0xAC5 PUSH2 0x35A1 JUMP JUMPDEST PUSH1 0x1 PUSH1 0x1 PUSH1 0xA0 SHL SUB AND PUSH4 0x91D14854 PUSH10 0x676F7665726E616E6365 PUSH1 0xB0 SHL CALLER PUSH1 0x40 MLOAD DUP4 PUSH4 0xFFFFFFFF AND PUSH1 0xE0 SHL DUP2 MSTORE PUSH1 0x4 ADD PUSH2 0xAFF SWAP3 SWAP2 SWAP1 PUSH2 0x5612 JUMP JUMPDEST PUSH1 0x20 PUSH1 0x40 MLOAD DUP1 DUP4 SUB DUP2 DUP7 DUP1 EXTCODESIZE ISZERO DUP1 ISZERO PUSH2 0xB17 JUMPI PUSH1 0x0 DUP1 REVERT JUMPDEST POP GAS STATICCALL ISZERO DUP1 ISZERO PUSH2 0xB2B JUMPI RETURNDATASIZE PUSH1 0x0 DUP1 RETURNDATACOPY RETURNDATASIZE PUSH1 0x0 REVERT JUMPDEST POP POP POP POP PUSH1 0x40 MLOAD RETURNDATASIZE PUSH1 0x1F NOT PUSH1 0x1F DUP3 ADD AND DUP3 ADD DUP1 PUSH1 0x40 MSTORE POP DUP2 ADD SWAP1 PUSH2 0xB4F SWAP2 SWAP1 PUSH2 0x5629 JUMP JUMPDEST PUSH1 0x40 MLOAD DUP1 PUSH1 0x40 ADD PUSH1 0x40 MSTORE DUP1 PUSH1 0x13 DUP2 MSTORE PUSH1 0x20 ADD PUSH1 0x0 DUP1 MLOAD PUSH1 0x20 PUSH2 0x580C DUP4 CODECOPY DUP2 MLOAD SWAP2 MSTORE DUP2 MSTORE POP SWAP1 PUSH2 0xB9A JUMPI PUSH1 0x40 MLOAD PUSH3 0x461BCD PUSH1 0xE5 SHL DUP2 MSTORE PUSH1 0x4 ADD PUSH2 0xB91 SWAP2 SWAP1 PUSH2 0x5677 JUMP JUMPDEST PUSH1 0x40 MLOAD DUP1 SWAP2 SUB SWAP1 REVERT JUMPDEST POP PUSH1 0x40 DUP1 MLOAD DUP1 DUP3 ADD SWAP1 SWAP2 MSTORE PUSH1 0xE DUP2 MSTORE PUSH14 0x1A5B9D985B1A5908185B5BDD5B9D PUSH1 0x92 SHL PUSH1 0x20 DUP3 ADD MSTORE DUP2 PUSH2 0xBDE JUMPI PUSH1 0x40 MLOAD PUSH3 0x461BCD PUSH1 0xE5 SHL DUP2 MSTORE PUSH1 0x4 ADD PUSH2 0xB91 SWAP2 SWAP1 PUSH2 0x5677 JUMP JUMPDEST POP PUSH1 0x2 PUSH1 0x0 SWAP1 SLOAD SWAP1 PUSH2 0x100 EXP SWAP1 DIV PUSH1 0x1 PUSH1 0x1 PUSH1 0xA0 SHL SUB AND PUSH1 0x1 PUSH1 0x1 PUSH1 0xA0 SHL SUB AND PUSH4 0xB187BD26 PUSH1 0x40 MLOAD DUP2 PUSH4 0xFFFFFFFF AND PUSH1 0xE0 SHL DUP2 MSTORE PUSH1 0x4 ADD PUSH1 0x20 PUSH1 0x40 MLOAD DUP1 DUP4 SUB DUP2 DUP7 DUP1 EXTCODESIZE ISZERO DUP1 ISZERO PUSH2 0xC2D JUMPI PUSH1 0x0 DUP1 REVERT JUMPDEST POP GAS STATICCALL ISZERO DUP1 ISZERO PUSH2 0xC41 JUMPI RETURNDATASIZE PUSH1 0x0 DUP1 RETURNDATACOPY RETURNDATASIZE PUSH1 0x0 REVERT JUMPDEST POP POP POP POP PUSH1 0x40 MLOAD RETURNDATASIZE PUSH1 0x1F NOT PUSH1 0x1F DUP3 ADD AND DUP3 ADD DUP1 PUSH1 0x40 MSTORE POP DUP2 ADD SWAP1 PUSH2 0xC65 SWAP2 SWAP1 PUSH2 0x5629 JUMP JUMPDEST PUSH1 0x40 MLOAD DUP1 PUSH1 0x60 ADD PUSH1 0x40 MSTORE DUP1 PUSH1 0x2C DUP2 MSTORE PUSH1 0x20 ADD PUSH2 0x57E0 PUSH1 0x2C SWAP2 CODECOPY SWAP1 PUSH2 0xC9C JUMPI PUSH1 0x40 MLOAD PUSH3 0x461BCD PUSH1 0xE5 SHL DUP2 MSTORE PUSH1 0x4 ADD PUSH2 0xB91 SWAP2 SWAP1 PUSH2 0x5677 JUMP JUMPDEST POP PUSH1 0x0 PUSH32 0x0 PUSH1 0x1 PUSH1 0x1 PUSH1 0xA0 SHL SUB AND PUSH4 0xD4FAC45D ADDRESS PUSH2 0xCD7 PUSH2 0x24EC JUMP JUMPDEST PUSH1 0x40 MLOAD PUSH1 0x1 PUSH1 0x1 PUSH1 0xE0 SHL SUB NOT PUSH1 0xE0 DUP6 SWAP1 SHL AND DUP2 MSTORE PUSH1 0x1 PUSH1 0x1 PUSH1 0xA0 SHL SUB SWAP3 DUP4 AND PUSH1 0x4 DUP3 ADD MSTORE SWAP2 AND PUSH1 0x24 DUP3 ADD MSTORE PUSH1 0x44 ADD PUSH1 0x20 PUSH1 0x40 MLOAD DUP1 DUP4 SUB DUP2 DUP7 DUP1 EXTCODESIZE ISZERO DUP1 ISZERO PUSH2 0xD1D JUMPI PUSH1 0x0 DUP1 REVERT JUMPDEST POP GAS STATICCALL ISZERO DUP1 ISZERO PUSH2 0xD31 JUMPI RETURNDATASIZE PUSH1 0x0 DUP1 RETURNDATACOPY RETURNDATASIZE PUSH1 0x0 REVERT JUMPDEST POP POP POP POP PUSH1 0x40 MLOAD RETURNDATASIZE PUSH1 0x1F NOT PUSH1 0x1F DUP3 ADD AND DUP3 ADD DUP1 PUSH1 0x40 MSTORE POP DUP2 ADD SWAP1 PUSH2 0xD55 SWAP2 SWAP1 PUSH2 0x56AA JUMP JUMPDEST SWAP1 POP DUP1 DUP3 GT ISZERO PUSH1 0x40 MLOAD DUP1 PUSH1 0x40 ADD PUSH1 0x40 MSTORE DUP1 PUSH1 0x14 DUP2 MSTORE PUSH1 0x20 ADD PUSH20 0x696E73756666696369656E742062616C616E6365 PUSH1 0x60 SHL DUP2 MSTORE POP SWAP1 PUSH2 0xDA6 JUMPI PUSH1 0x40 MLOAD PUSH3 0x461BCD PUSH1 0xE5 SHL DUP2 MSTORE PUSH1 0x4 ADD PUSH2 0xB91 SWAP2 SWAP1 PUSH2 0x5677 JUMP JUMPDEST POP PUSH32 0x0 PUSH1 0x1 PUSH1 0x1 PUSH1 0xA0 SHL SUB AND PUSH4 0xF3FEF3A3 PUSH2 0xDDE PUSH2 0x24EC JUMP JUMPDEST PUSH1 0x40 MLOAD PUSH1 0x1 PUSH1 0x1 PUSH1 0xE0 SHL SUB NOT PUSH1 0xE0 DUP5 SWAP1 SHL AND DUP2 MSTORE PUSH1 0x1 PUSH1 0x1 PUSH1 0xA0 SHL SUB SWAP1 SWAP2 AND PUSH1 0x4 DUP3 ADD MSTORE PUSH1 0x24 DUP2 ADD DUP6 SWAP1 MSTORE PUSH1 0x44 ADD PUSH1 0x20 PUSH1 0x40 MLOAD DUP1 DUP4 SUB DUP2 PUSH1 0x0 DUP8 DUP1 EXTCODESIZE ISZERO DUP1 ISZERO PUSH2 0xE26 JUMPI PUSH1 0x0 DUP1 REVERT JUMPDEST POP GAS CALL ISZERO DUP1 ISZERO PUSH2 0xE3A JUMPI RETURNDATASIZE PUSH1 0x0 DUP1 RETURNDATACOPY RETURNDATASIZE PUSH1 0x0 REVERT JUMPDEST POP POP POP POP PUSH1 0x40 MLOAD RETURNDATASIZE PUSH1 0x1F NOT PUSH1 0x1F DUP3 ADD AND DUP3 ADD DUP1 PUSH1 0x40 MSTORE POP DUP2 ADD SWAP1 PUSH2 0xE5E SWAP2 SWAP1 PUSH2 0x5629 JUMP JUMPDEST POP POP POP JUMP JUMPDEST PUSH1 0x0 PUSH2 0xE6D PUSH2 0x35A1 JUMP JUMPDEST PUSH1 0x1 PUSH1 0x1 PUSH1 0xA0 SHL SUB AND PUSH4 0x91D14854 PUSH10 0x676F7665726E616E6365 PUSH1 0xB0 SHL CALLER PUSH1 0x40 MLOAD DUP4 PUSH4 0xFFFFFFFF AND PUSH1 0xE0 SHL DUP2 MSTORE PUSH1 0x4 ADD PUSH2 0xEA7 SWAP3 SWAP2 SWAP1 PUSH2 0x5612 JUMP JUMPDEST PUSH1 0x20 PUSH1 0x40 MLOAD DUP1 DUP4 SUB DUP2 DUP7 DUP1 EXTCODESIZE ISZERO DUP1 ISZERO PUSH2 0xEBF JUMPI PUSH1 0x0 DUP1 REVERT JUMPDEST POP GAS STATICCALL ISZERO DUP1 ISZERO PUSH2 0xED3 JUMPI RETURNDATASIZE PUSH1 0x0 DUP1 RETURNDATACOPY RETURNDATASIZE PUSH1 0x0 REVERT JUMPDEST POP POP POP POP PUSH1 0x40 MLOAD RETURNDATASIZE PUSH1 0x1F NOT PUSH1 0x1F DUP3 ADD AND DUP3 ADD DUP1 PUSH1 0x40 MSTORE POP DUP2 ADD SWAP1 PUSH2 0xEF7 SWAP2 SWAP1 PUSH2 0x5629 JUMP JUMPDEST PUSH1 0x40 MLOAD DUP1 PUSH1 0x40 ADD PUSH1 0x40 MSTORE DUP1 PUSH1 0x13 DUP2 MSTORE PUSH1 0x20 ADD PUSH1 0x0 DUP1 MLOAD PUSH1 0x20 PUSH2 0x580C DUP4 CODECOPY DUP2 MLOAD SWAP2 MSTORE DUP2 MSTORE POP SWAP1 PUSH2 0xF39 JUMPI PUSH1 0x40 MLOAD PUSH3 0x461BCD PUSH1 0xE5 SHL DUP2 MSTORE PUSH1 0x4 ADD PUSH2 0xB91 SWAP2 SWAP1 PUSH2 0x5677 JUMP JUMPDEST POP PUSH2 0xA76 PUSH16 0x2A30B933B2BA20B63637B1B0BA34B7B7 PUSH1 0x81 SHL PUSH2 0x35C5 JUMP JUMPDEST PUSH1 0x0 PUSH2 0xF60 PUSH2 0x35A1 JUMP JUMPDEST PUSH1 0x1 PUSH1 0x1 PUSH1 0xA0 SHL SUB AND PUSH4 0x91D14854 PUSH10 0x676F7665726E616E6365 PUSH1 0xB0 SHL CALLER PUSH1 0x40 MLOAD DUP4 PUSH4 0xFFFFFFFF AND PUSH1 0xE0 SHL DUP2 MSTORE PUSH1 0x4 ADD PUSH2 0xF9A SWAP3 SWAP2 SWAP1 PUSH2 0x5612 JUMP JUMPDEST PUSH1 0x20 PUSH1 0x40 MLOAD DUP1 DUP4 SUB DUP2 DUP7 DUP1 EXTCODESIZE ISZERO DUP1 ISZERO PUSH2 0xFB2 JUMPI PUSH1 0x0 DUP1 REVERT JUMPDEST POP GAS STATICCALL ISZERO DUP1 ISZERO PUSH2 0xFC6 JUMPI RETURNDATASIZE PUSH1 0x0 DUP1 RETURNDATACOPY RETURNDATASIZE PUSH1 0x0 REVERT JUMPDEST POP POP POP POP PUSH1 0x40 MLOAD RETURNDATASIZE PUSH1 0x1F NOT PUSH1 0x1F DUP3 ADD AND DUP3 ADD DUP1 PUSH1 0x40 MSTORE POP DUP2 ADD SWAP1 PUSH2 0xFEA SWAP2 SWAP1 PUSH2 0x5629 JUMP JUMPDEST PUSH1 0x40 MLOAD DUP1 PUSH1 0x40 ADD PUSH1 0x40 MSTORE DUP1 PUSH1 0x13 DUP2 MSTORE PUSH1 0x20 ADD PUSH1 0x0 DUP1 MLOAD PUSH1 0x20 PUSH2 0x580C DUP4 CODECOPY DUP2 MLOAD SWAP2 MSTORE DUP2 MSTORE POP SWAP1 PUSH2 0x102C JUMPI PUSH1 0x40 MLOAD PUSH3 0x461BCD PUSH1 0xE5 SHL DUP2 MSTORE PUSH1 0x4 ADD PUSH2 0xB91 SWAP2 SWAP1 PUSH2 0x5677 JUMP JUMPDEST POP PUSH2 0x103E PUSH2 0x1038 PUSH2 0x349F JUMP JUMPDEST DUP4 PUSH2 0x366C JUMP JUMPDEST PUSH2 0x1058 PUSH13 0x53747261746567697374466565 PUSH1 0x98 SHL DUP4 PUSH2 0x36F7 JUMP JUMPDEST SWAP3 SWAP2 POP POP JUMP JUMPDEST PUSH1 0x0 PUSH2 0x1068 PUSH2 0x35A1 JUMP JUMPDEST PUSH1 0x1 PUSH1 0x1 PUSH1 0xA0 SHL SUB AND PUSH4 0x91D14854 PUSH10 0x676F7665726E616E6365 PUSH1 0xB0 SHL CALLER PUSH1 0x40 MLOAD DUP4 PUSH4 0xFFFFFFFF AND PUSH1 0xE0 SHL DUP2 MSTORE PUSH1 0x4 ADD PUSH2 0x10A2 SWAP3 SWAP2 SWAP1 PUSH2 0x5612 JUMP JUMPDEST PUSH1 0x20 PUSH1 0x40 MLOAD DUP1 DUP4 SUB DUP2 DUP7 DUP1 EXTCODESIZE ISZERO DUP1 ISZERO PUSH2 0x10BA JUMPI PUSH1 0x0 DUP1 REVERT JUMPDEST POP GAS STATICCALL ISZERO DUP1 ISZERO PUSH2 0x10CE JUMPI RETURNDATASIZE PUSH1 0x0 DUP1 RETURNDATACOPY RETURNDATASIZE PUSH1 0x0 REVERT JUMPDEST POP POP POP POP PUSH1 0x40 MLOAD RETURNDATASIZE PUSH1 0x1F NOT PUSH1 0x1F DUP3 ADD AND DUP3 ADD DUP1 PUSH1 0x40 MSTORE POP DUP2 ADD SWAP1 PUSH2 0x10F2 SWAP2 SWAP1 PUSH2 0x5629 JUMP JUMPDEST PUSH1 0x40 MLOAD DUP1 PUSH1 0x40 ADD PUSH1 0x40 MSTORE DUP1 PUSH1 0x13 DUP2 MSTORE PUSH1 0x20 ADD PUSH1 0x0 DUP1 MLOAD PUSH1 0x20 PUSH2 0x580C DUP4 CODECOPY DUP2 MLOAD SWAP2 MSTORE DUP2 MSTORE POP SWAP1 PUSH2 0x1134 JUMPI PUSH1 0x40 MLOAD PUSH3 0x461BCD PUSH1 0xE5 SHL DUP2 MSTORE PUSH1 0x4 ADD PUSH2 0xB91 SWAP2 SWAP1 PUSH2 0x5677 JUMP JUMPDEST POP PUSH2 0x1146 DUP3 PUSH2 0x1141 PUSH2 0x2121 JUMP JUMPDEST PUSH2 0x366C JUMP JUMPDEST PUSH2 0x1058 PUSH10 0x52657365727665466565 PUSH1 0xB0 SHL DUP4 PUSH2 0x36F7 JUMP JUMPDEST PUSH1 0x0 PUSH2 0x1167 PUSH2 0x35A1 JUMP JUMPDEST PUSH1 0x1 PUSH1 0x1 PUSH1 0xA0 SHL SUB AND PUSH4 0x91D14854 PUSH10 0x676F7665726E616E6365 PUSH1 0xB0 SHL CALLER PUSH1 0x40 MLOAD DUP4 PUSH4 0xFFFFFFFF AND PUSH1 0xE0 SHL DUP2 MSTORE PUSH1 0x4 ADD PUSH2 0x11A1 SWAP3 SWAP2 SWAP1 PUSH2 0x5612 JUMP JUMPDEST PUSH1 0x20 PUSH1 0x40 MLOAD DUP1 DUP4 SUB DUP2 DUP7 DUP1 EXTCODESIZE ISZERO DUP1 ISZERO PUSH2 0x11B9 JUMPI PUSH1 0x0 DUP1 REVERT JUMPDEST POP GAS STATICCALL ISZERO DUP1 ISZERO PUSH2 0x11CD JUMPI RETURNDATASIZE PUSH1 0x0 DUP1 RETURNDATACOPY RETURNDATASIZE PUSH1 0x0 REVERT JUMPDEST POP POP POP POP PUSH1 0x40 MLOAD RETURNDATASIZE PUSH1 0x1F NOT PUSH1 0x1F DUP3 ADD AND DUP3 ADD DUP1 PUSH1 0x40 MSTORE POP DUP2 ADD SWAP1 PUSH2 0x11F1 SWAP2 SWAP1 PUSH2 0x5629 JUMP JUMPDEST PUSH1 0x40 MLOAD DUP1 PUSH1 0x40 ADD PUSH1 0x40 MSTORE DUP1 PUSH1 0x13 DUP2 MSTORE PUSH1 0x20 ADD PUSH1 0x0 DUP1 MLOAD PUSH1 0x20 PUSH2 0x580C DUP4 CODECOPY DUP2 MLOAD SWAP2 MSTORE DUP2 MSTORE POP SWAP1 PUSH2 0x1233 JUMPI PUSH1 0x40 MLOAD PUSH3 0x461BCD PUSH1 0xE5 SHL DUP2 MSTORE PUSH1 0x4 ADD PUSH2 0xB91 SWAP2 SWAP1 PUSH2 0x5677 JUMP JUMPDEST POP PUSH2 0xA76 PUSH2 0x370E JUMP JUMPDEST PUSH1 0x0 PUSH2 0x1246 PUSH2 0x35A1 JUMP JUMPDEST PUSH1 0x1 PUSH1 0x1 PUSH1 0xA0 SHL SUB AND PUSH4 0x91D14854 PUSH10 0x676F7665726E616E6365 PUSH1 0xB0 SHL CALLER PUSH1 0x40 MLOAD DUP4 PUSH4 0xFFFFFFFF AND PUSH1 0xE0 SHL DUP2 MSTORE PUSH1 0x4 ADD PUSH2 0x1280 SWAP3 SWAP2 SWAP1 PUSH2 0x5612 JUMP JUMPDEST PUSH1 0x20 PUSH1 0x40 MLOAD DUP1 DUP4 SUB DUP2 DUP7 DUP1 EXTCODESIZE ISZERO DUP1 ISZERO PUSH2 0x1298 JUMPI PUSH1 0x0 DUP1 REVERT JUMPDEST POP GAS STATICCALL ISZERO DUP1 ISZERO PUSH2 0x12AC JUMPI RETURNDATASIZE PUSH1 0x0 DUP1 RETURNDATACOPY RETURNDATASIZE PUSH1 0x0 REVERT JUMPDEST POP POP POP POP PUSH1 0x40 MLOAD RETURNDATASIZE PUSH1 0x1F NOT PUSH1 0x1F DUP3 ADD AND DUP3 ADD DUP1 PUSH1 0x40 MSTORE POP DUP2 ADD SWAP1 PUSH2 0x12D0 SWAP2 SWAP1 PUSH2 0x5629 JUMP JUMPDEST PUSH1 0x40 MLOAD DUP1 PUSH1 0x40 ADD PUSH1 0x40 MSTORE DUP1 PUSH1 0x13 DUP2 MSTORE PUSH1 0x20 ADD PUSH1 0x0 DUP1 MLOAD PUSH1 0x20 PUSH2 0x580C DUP4 CODECOPY DUP2 MLOAD SWAP2 MSTORE DUP2 MSTORE POP SWAP1 PUSH2 0x1312 JUMPI PUSH1 0x40 MLOAD PUSH3 0x461BCD PUSH1 0xE5 SHL DUP2 MSTORE PUSH1 0x4 ADD PUSH2 0xB91 SWAP2 SWAP1 PUSH2 0x5677 JUMP JUMPDEST POP PUSH2 0x1058 PUSH9 0x1119589D131A5B5A5D PUSH1 0xBA SHL DUP4 PUSH2 0x36F7 JUMP JUMPDEST PUSH14 0x506572666F726D616E6365466565 PUSH1 0x90 SHL PUSH1 0x0 MSTORE PUSH1 0x3D PUSH1 0x20 MSTORE PUSH32 0xBADB955F4A57BAA7811ABC9BCD6809EB9D3B80456CAE1A7EA27F30FDDFD0C0A6 SLOAD SWAP1 JUMP JUMPDEST PUSH1 0x2 SLOAD PUSH1 0x0 SWAP1 PUSH1 0x1 PUSH1 0x1 PUSH1 0xA0 SHL SUB AND CALLER EQ DUP1 PUSH2 0x1411 JUMPI POP PUSH2 0x1387 PUSH2 0x35A1 JUMP JUMPDEST PUSH1 0x1 PUSH1 0x1 PUSH1 0xA0 SHL SUB AND PUSH4 0x91D14854 PUSH10 0x676F7665726E616E6365 PUSH1 0xB0 SHL CALLER PUSH1 0x40 MLOAD DUP4 PUSH4 0xFFFFFFFF AND PUSH1 0xE0 SHL DUP2 MSTORE PUSH1 0x4 ADD PUSH2 0x13C1 SWAP3 SWAP2 SWAP1 PUSH2 0x5612 JUMP JUMPDEST PUSH1 0x20 PUSH1 0x40 MLOAD DUP1 DUP4 SUB DUP2 DUP7 DUP1 EXTCODESIZE ISZERO DUP1 ISZERO PUSH2 0x13D9 JUMPI PUSH1 0x0 DUP1 REVERT JUMPDEST POP GAS STATICCALL ISZERO DUP1 ISZERO PUSH2 0x13ED JUMPI RETURNDATASIZE PUSH1 0x0 DUP1 RETURNDATACOPY RETURNDATASIZE PUSH1 0x0 REVERT JUMPDEST POP POP POP POP PUSH1 0x40 MLOAD RETURNDATASIZE PUSH1 0x1F NOT PUSH1 0x1F DUP3 ADD AND DUP3 ADD DUP1 PUSH1 0x40 MSTORE POP DUP2 ADD SWAP1 PUSH2 0x1411 SWAP2 SWAP1 PUSH2 0x5629 JUMP JUMPDEST PUSH1 0x40 MLOAD DUP1 PUSH1 0x40 ADD PUSH1 0x40 MSTORE DUP1 PUSH1 0x13 DUP2 MSTORE PUSH1 0x20 ADD PUSH1 0x0 DUP1 MLOAD PUSH1 0x20 PUSH2 0x580C DUP4 CODECOPY DUP2 MLOAD SWAP2 MSTORE DUP2 MSTORE POP SWAP1 PUSH2 0x1453 JUMPI PUSH1 0x40 MLOAD PUSH3 0x461BCD PUSH1 0xE5 SHL DUP2 MSTORE PUSH1 0x4 ADD PUSH2 0xB91 SWAP2 SWAP1 PUSH2 0x5677 JUMP JUMPDEST POP PUSH1 0x0 PUSH2 0x145E PUSH2 0xA7B JUMP JUMPDEST SWAP1 POP PUSH1 0x0 PUSH2 0x146A PUSH2 0x376E JUMP JUMPDEST SWAP1 POP DUP4 DUP2 LT ISZERO PUSH2 0x15E5 JUMPI PUSH1 0x1 PUSH1 0x1 PUSH1 0xA0 SHL SUB DUP3 AND PUSH2 0x148C JUMPI POP PUSH1 0x0 SWAP4 SWAP3 POP POP POP JUMP JUMPDEST PUSH1 0x0 DUP3 PUSH1 0x1 PUSH1 0x1 PUSH1 0xA0 SHL SUB AND PUSH4 0xB69EF8A8 PUSH1 0x40 MLOAD DUP2 PUSH4 0xFFFFFFFF AND PUSH1 0xE0 SHL DUP2 MSTORE PUSH1 0x4 ADD PUSH1 0x20 PUSH1 0x40 MLOAD DUP1 DUP4 SUB DUP2 DUP7 DUP1 EXTCODESIZE ISZERO DUP1 ISZERO PUSH2 0x14C7 JUMPI PUSH1 0x0 DUP1 REVERT JUMPDEST POP GAS STATICCALL ISZERO DUP1 ISZERO PUSH2 0x14DB JUMPI RETURNDATASIZE PUSH1 0x0 DUP1 RETURNDATACOPY RETURNDATASIZE PUSH1 0x0 REVERT JUMPDEST POP POP POP POP PUSH1 0x40 MLOAD RETURNDATASIZE PUSH1 0x1F NOT PUSH1 0x1F DUP3 ADD AND DUP3 ADD DUP1 PUSH1 0x40 MSTORE POP DUP2 ADD SWAP1 PUSH2 0x14FF SWAP2 SWAP1 PUSH2 0x56AA JUMP JUMPDEST SWAP1 POP PUSH1 0x0 PUSH2 0x150D DUP4 DUP8 PUSH2 0x56D9 JUMP JUMPDEST SWAP1 POP DUP2 DUP2 GT ISZERO PUSH2 0x1523 JUMPI POP PUSH1 0x0 SWAP6 SWAP5 POP POP POP POP POP JUMP JUMPDEST PUSH1 0x0 PUSH2 0x1540 PUSH2 0x1530 PUSH2 0x20E0 JUMP JUMPDEST PUSH2 0x153A DUP5 DUP7 PUSH2 0x56D9 JUMP JUMPDEST SWAP1 PUSH2 0x37F1 JUMP JUMPDEST SWAP1 POP PUSH1 0x0 PUSH2 0x154E DUP3 DUP6 PUSH2 0x56D9 JUMP JUMPDEST PUSH1 0x40 MLOAD PUSH4 0x2E1A7D4D PUSH1 0xE0 SHL DUP2 MSTORE PUSH1 0x4 DUP2 ADD DUP3 SWAP1 MSTORE SWAP1 SWAP2 POP PUSH1 0x1 PUSH1 0x1 PUSH1 0xA0 SHL SUB DUP8 AND SWAP1 PUSH4 0x2E1A7D4D SWAP1 PUSH1 0x24 ADD PUSH1 0x20 PUSH1 0x40 MLOAD DUP1 DUP4 SUB DUP2 PUSH1 0x0 DUP8 DUP1 EXTCODESIZE ISZERO DUP1 ISZERO PUSH2 0x1593 JUMPI PUSH1 0x0 DUP1 REVERT JUMPDEST POP GAS CALL ISZERO DUP1 ISZERO PUSH2 0x15A7 JUMPI RETURNDATASIZE PUSH1 0x0 DUP1 RETURNDATACOPY RETURNDATASIZE PUSH1 0x0 REVERT JUMPDEST POP POP POP POP PUSH1 0x40 MLOAD RETURNDATASIZE PUSH1 0x1F NOT PUSH1 0x1F DUP3 ADD AND DUP3 ADD DUP1 PUSH1 0x40 MSTORE POP DUP2 ADD SWAP1 PUSH2 0x15CB SWAP2 SWAP1 PUSH2 0x5629 JUMP JUMPDEST POP PUSH2 0x15D8 PUSH1 0x0 SLOAD DUP3 PUSH2 0x3810 JUMP JUMPDEST PUSH1 0x0 SSTORE POP PUSH2 0x16A3 SWAP3 POP POP POP JUMP JUMPDEST PUSH1 0x0 PUSH1 0x1 PUSH1 0x1 PUSH1 0xA0 SHL SUB DUP4 AND ISZERO PUSH2 0x166A JUMPI DUP3 PUSH1 0x1 PUSH1 0x1 PUSH1 0xA0 SHL SUB AND PUSH4 0xB69EF8A8 PUSH1 0x40 MLOAD DUP2 PUSH4 0xFFFFFFFF AND PUSH1 0xE0 SHL DUP2 MSTORE PUSH1 0x4 ADD PUSH1 0x20 PUSH1 0x40 MLOAD DUP1 DUP4 SUB DUP2 DUP7 DUP1 EXTCODESIZE ISZERO DUP1 ISZERO PUSH2 0x162F JUMPI PUSH1 0x0 DUP1 REVERT JUMPDEST POP GAS STATICCALL ISZERO DUP1 ISZERO PUSH2 0x1643 JUMPI RETURNDATASIZE PUSH1 0x0 DUP1 RETURNDATACOPY RETURNDATASIZE PUSH1 0x0 REVERT JUMPDEST POP POP POP POP PUSH1 0x40 MLOAD RETURNDATASIZE PUSH1 0x1F NOT PUSH1 0x1F DUP3 ADD AND DUP3 ADD DUP1 PUSH1 0x40 MSTORE POP DUP2 ADD SWAP1 PUSH2 0x1667 SWAP2 SWAP1 PUSH2 0x56AA JUMP JUMPDEST SWAP1 POP JUMPDEST PUSH1 0x1 SLOAD PUSH1 0x0 SWAP1 PUSH2 0x167A DUP4 DUP6 PUSH2 0x56F0 JUMP JUMPDEST PUSH2 0x1684 SWAP2 SWAP1 PUSH2 0x56F0 JUMP JUMPDEST SWAP1 POP PUSH1 0x0 PUSH2 0x1692 DUP8 DUP4 PUSH2 0x56D9 JUMP JUMPDEST SWAP1 POP PUSH2 0x169E DUP2 DUP5 PUSH2 0x3834 JUMP JUMPDEST POP POP POP POP JUMPDEST PUSH1 0x2 SLOAD PUSH2 0x16B9 SWAP1 PUSH1 0x1 PUSH1 0x1 PUSH1 0xA0 SHL SUB AND DUP6 PUSH2 0x3A4B JUMP JUMPDEST POP PUSH1 0x1 SWAP4 SWAP3 POP POP POP JUMP JUMPDEST PUSH1 0x0 DUP1 PUSH2 0x16D7 PUSH5 0x109BDD5B99 PUSH1 0xDA SHL PUSH2 0x3A68 JUMP JUMPDEST SWAP1 POP PUSH2 0x16E1 PUSH2 0x3A8C JUMP JUMPDEST SWAP2 SWAP1 POP JUMP JUMPDEST PUSH1 0x0 PUSH2 0x16F0 PUSH2 0x35A1 JUMP JUMPDEST PUSH1 0x1 PUSH1 0x1 PUSH1 0xA0 SHL SUB AND PUSH4 0x91D14854 PUSH10 0x676F7665726E616E6365 PUSH1 0xB0 SHL CALLER PUSH1 0x40 MLOAD DUP4 PUSH4 0xFFFFFFFF AND PUSH1 0xE0 SHL DUP2 MSTORE PUSH1 0x4 ADD PUSH2 0x172A SWAP3 SWAP2 SWAP1 PUSH2 0x5612 JUMP JUMPDEST PUSH1 0x20 PUSH1 0x40 MLOAD DUP1 DUP4 SUB DUP2 DUP7 DUP1 EXTCODESIZE ISZERO DUP1 ISZERO PUSH2 0x1742 JUMPI PUSH1 0x0 DUP1 REVERT JUMPDEST POP GAS STATICCALL ISZERO DUP1 ISZERO PUSH2 0x1756 JUMPI RETURNDATASIZE PUSH1 0x0 DUP1 RETURNDATACOPY RETURNDATASIZE PUSH1 0x0 REVERT JUMPDEST POP POP POP POP PUSH1 0x40 MLOAD RETURNDATASIZE PUSH1 0x1F NOT PUSH1 0x1F DUP3 ADD AND DUP3 ADD DUP1 PUSH1 0x40 MSTORE POP DUP2 ADD SWAP1 PUSH2 0x177A SWAP2 SWAP1 PUSH2 0x5629 JUMP JUMPDEST PUSH1 0x40 MLOAD DUP1 PUSH1 0x40 ADD PUSH1 0x40 MSTORE DUP1 PUSH1 0x13 DUP2 MSTORE PUSH1 0x20 ADD PUSH1 0x0 DUP1 MLOAD PUSH1 0x20 PUSH2 0x580C DUP4 CODECOPY DUP2 MLOAD SWAP2 MSTORE DUP2 MSTORE POP SWAP1 PUSH2 0x17BC JUMPI PUSH1 0x40 MLOAD PUSH3 0x461BCD PUSH1 0xE5 SHL DUP2 MSTORE PUSH1 0x4 ADD PUSH2 0xB91 SWAP2 SWAP1 PUSH2 0x5677 JUMP JUMPDEST POP PUSH1 0x40 DUP1 MLOAD DUP1 DUP3 ADD SWAP1 SWAP2 MSTORE PUSH1 0xE DUP2 MSTORE PUSH14 0x1A5B9D985B1A5908185B5BDD5B9D PUSH1 0x92 SHL PUSH1 0x20 DUP3 ADD MSTORE PUSH8 0x6F05B59D3B20000 DUP4 GT ISZERO PUSH2 0x180B JUMPI PUSH1 0x40 MLOAD PUSH3 0x461BCD PUSH1 0xE5 SHL DUP2 MSTORE PUSH1 0x4 ADD PUSH2 0xB91 SWAP2 SWAP1 PUSH2 0x5677 JUMP JUMPDEST POP PUSH2 0x1058 PUSH5 0x109BDD5B99 PUSH1 0xDA SHL DUP4 PUSH2 0x36F7 JUMP JUMPDEST PUSH1 0x2 SLOAD PUSH1 0x0 SWAP1 PUSH1 0x1 PUSH1 0x1 PUSH1 0xA0 SHL SUB AND CALLER EQ DUP1 PUSH2 0x18C8 JUMPI POP PUSH2 0x183D PUSH2 0x35A1 JUMP JUMPDEST PUSH1 0x1 PUSH1 0x1 PUSH1 0xA0 SHL SUB AND PUSH4 0x91D14854 PUSH11 0x6D61696E74656E616E6365 PUSH1 0xA8 SHL CALLER PUSH1 0x40 MLOAD DUP4 PUSH4 0xFFFFFFFF AND PUSH1 0xE0 SHL DUP2 MSTORE PUSH1 0x4 ADD PUSH2 0x1878 SWAP3 SWAP2 SWAP1 PUSH2 0x5612 JUMP JUMPDEST PUSH1 0x20 PUSH1 0x40 MLOAD DUP1 DUP4 SUB DUP2 DUP7 DUP1 EXTCODESIZE ISZERO DUP1 ISZERO PUSH2 0x1890 JUMPI PUSH1 0x0 DUP1 REVERT JUMPDEST POP GAS STATICCALL ISZERO DUP1 ISZERO PUSH2 0x18A4 JUMPI RETURNDATASIZE PUSH1 0x0 DUP1 RETURNDATACOPY RETURNDATASIZE PUSH1 0x0 REVERT JUMPDEST POP POP POP POP PUSH1 0x40 MLOAD RETURNDATASIZE PUSH1 0x1F NOT PUSH1 0x1F DUP3 ADD AND DUP3 ADD DUP1 PUSH1 0x40 MSTORE POP DUP2 ADD SWAP1 PUSH2 0x18C8 SWAP2 SWAP1 PUSH2 0x5629 JUMP JUMPDEST PUSH1 0x40 MLOAD DUP1 PUSH1 0x40 ADD PUSH1 0x40 MSTORE DUP1 PUSH1 0x13 DUP2 MSTORE PUSH1 0x20 ADD PUSH1 0x0 DUP1 MLOAD PUSH1 0x20 PUSH2 0x580C DUP4 CODECOPY DUP2 MLOAD SWAP2 MSTORE DUP2 MSTORE POP SWAP1 PUSH2 0x190A JUMPI PUSH1 0x40 MLOAD PUSH3 0x461BCD PUSH1 0xE5 SHL DUP2 MSTORE PUSH1 0x4 ADD PUSH2 0xB91 SWAP2 SWAP1 PUSH2 0x5677 JUMP JUMPDEST POP PUSH2 0xA76 PUSH2 0x3B4B JUMP JUMPDEST PUSH1 0x0 PUSH2 0x191D PUSH2 0x35A1 JUMP JUMPDEST PUSH1 0x1 PUSH1 0x1 PUSH1 0xA0 SHL SUB AND PUSH4 0x91D14854 PUSH10 0x676F7665726E616E6365 PUSH1 0xB0 SHL CALLER PUSH1 0x40 MLOAD DUP4 PUSH4 0xFFFFFFFF AND PUSH1 0xE0 SHL DUP2 MSTORE PUSH1 0x4 ADD PUSH2 0x1957 SWAP3 SWAP2 SWAP1 PUSH2 0x5612 JUMP JUMPDEST PUSH1 0x20 PUSH1 0x40 MLOAD DUP1 DUP4 SUB DUP2 DUP7 DUP1 EXTCODESIZE ISZERO DUP1 ISZERO PUSH2 0x196F JUMPI PUSH1 0x0 DUP1 REVERT JUMPDEST POP GAS STATICCALL ISZERO DUP1 ISZERO PUSH2 0x1983 JUMPI RETURNDATASIZE PUSH1 0x0 DUP1 RETURNDATACOPY RETURNDATASIZE PUSH1 0x0 REVERT JUMPDEST POP POP POP POP PUSH1 0x40 MLOAD RETURNDATASIZE PUSH1 0x1F NOT PUSH1 0x1F DUP3 ADD AND DUP3 ADD DUP1 PUSH1 0x40 MSTORE POP DUP2 ADD SWAP1 PUSH2 0x19A7 SWAP2 SWAP1 PUSH2 0x5629 JUMP JUMPDEST PUSH1 0x40 MLOAD DUP1 PUSH1 0x40 ADD PUSH1 0x40 MSTORE DUP1 PUSH1 0x13 DUP2 MSTORE PUSH1 0x20 ADD PUSH1 0x0 DUP1 MLOAD PUSH1 0x20 PUSH2 0x580C DUP4 CODECOPY DUP2 MLOAD SWAP2 MSTORE DUP2 MSTORE POP SWAP1 PUSH2 0x19E9 JUMPI PUSH1 0x40 MLOAD PUSH3 0x461BCD PUSH1 0xE5 SHL DUP2 MSTORE PUSH1 0x4 ADD PUSH2 0xB91 SWAP2 SWAP1 PUSH2 0x5677 JUMP JUMPDEST POP PUSH1 0x0 PUSH2 0x19F4 PUSH2 0xA7B JUMP JUMPDEST SWAP1 POP PUSH1 0x1 PUSH1 0x1 PUSH1 0xA0 SHL SUB DUP2 AND PUSH2 0x1A0D JUMPI POP PUSH1 0x0 SWAP3 SWAP2 POP POP JUMP JUMPDEST DUP3 DUP2 PUSH1 0x1 PUSH1 0x1 PUSH1 0xA0 SHL SUB AND PUSH4 0xB69EF8A8 PUSH1 0x40 MLOAD DUP2 PUSH4 0xFFFFFFFF AND PUSH1 0xE0 SHL DUP2 MSTORE PUSH1 0x4 ADD PUSH1 0x20 PUSH1 0x40 MLOAD DUP1 DUP4 SUB DUP2 DUP7 DUP1 EXTCODESIZE ISZERO DUP1 ISZERO PUSH2 0x1A47 JUMPI PUSH1 0x0 DUP1 REVERT JUMPDEST POP GAS STATICCALL ISZERO DUP1 ISZERO PUSH2 0x1A5B JUMPI RETURNDATASIZE PUSH1 0x0 DUP1 RETURNDATACOPY RETURNDATASIZE PUSH1 0x0 REVERT JUMPDEST POP POP POP POP PUSH1 0x40 MLOAD RETURNDATASIZE PUSH1 0x1F NOT PUSH1 0x1F DUP3 ADD AND DUP3 ADD DUP1 PUSH1 0x40 MSTORE POP DUP2 ADD SWAP1 PUSH2 0x1A7F SWAP2 SWAP1 PUSH2 0x56AA JUMP JUMPDEST LT ISZERO PUSH2 0x1A8E JUMPI POP PUSH1 0x0 SWAP3 SWAP2 POP POP JUMP JUMPDEST PUSH1 0x0 PUSH2 0x1A98 PUSH2 0x376E JUMP JUMPDEST PUSH1 0x40 MLOAD PUSH4 0x2E1A7D4D PUSH1 0xE0 SHL DUP2 MSTORE PUSH1 0x4 DUP2 ADD DUP7 SWAP1 MSTORE SWAP1 SWAP2 POP PUSH1 0x1 PUSH1 0x1 PUSH1 0xA0 SHL SUB DUP4 AND SWAP1 PUSH4 0x2E1A7D4D SWAP1 PUSH1 0x24 ADD PUSH1 0x20 PUSH1 0x40 MLOAD DUP1 DUP4 SUB DUP2 PUSH1 0x0 DUP8 DUP1 EXTCODESIZE ISZERO DUP1 ISZERO PUSH2 0x1ADD JUMPI PUSH1 0x0 DUP1 REVERT JUMPDEST POP GAS CALL ISZERO DUP1 ISZERO PUSH2 0x1AF1 JUMPI RETURNDATASIZE PUSH1 0x0 DUP1 RETURNDATACOPY RETURNDATASIZE PUSH1 0x0 REVERT JUMPDEST POP POP POP POP PUSH1 0x40 MLOAD RETURNDATASIZE PUSH1 0x1F NOT PUSH1 0x1F DUP3 ADD AND DUP3 ADD DUP1 PUSH1 0x40 MSTORE POP DUP2 ADD SWAP1 PUSH2 0x1B15 SWAP2 SWAP1 PUSH2 0x5629 JUMP JUMPDEST POP PUSH1 0x0 PUSH2 0x1B20 PUSH2 0x376E JUMP JUMPDEST SWAP1 POP PUSH2 0x1B2C DUP3 DUP3 PUSH2 0x56D9 JUMP JUMPDEST PUSH1 0x0 DUP1 DUP3 DUP3 SLOAD PUSH2 0x1B3C SWAP2 SWAP1 PUSH2 0x56D9 JUMP JUMPDEST SWAP1 SWAP2 SSTORE POP PUSH1 0x1 SWAP7 SWAP6 POP POP POP POP POP POP JUMP JUMPDEST PUSH1 0x3F SLOAD PUSH2 0x100 SWAP1 DIV PUSH1 0xFF AND PUSH2 0x1B67 JUMPI PUSH1 0x3F SLOAD PUSH1 0xFF AND ISZERO PUSH2 0x1B6B JUMP JUMPDEST ADDRESS EXTCODESIZE ISZERO JUMPDEST PUSH2 0x1BCE JUMPI PUSH1 0x40 MLOAD PUSH3 0x461BCD PUSH1 0xE5 SHL DUP2 MSTORE PUSH1 0x20 PUSH1 0x4 DUP3 ADD MSTORE PUSH1 0x2E PUSH1 0x24 DUP3 ADD MSTORE PUSH32 0x496E697469616C697A61626C653A20636F6E747261637420697320616C726561 PUSH1 0x44 DUP3 ADD MSTORE PUSH14 0x191E481A5B9A5D1A585B1A5E9959 PUSH1 0x92 SHL PUSH1 0x64 DUP3 ADD MSTORE PUSH1 0x84 ADD PUSH2 0xB91 JUMP JUMPDEST PUSH1 0x3F SLOAD PUSH2 0x100 SWAP1 DIV PUSH1 0xFF AND ISZERO DUP1 ISZERO PUSH2 0x1BF0 JUMPI PUSH1 0x3F DUP1 SLOAD PUSH2 0xFFFF NOT AND PUSH2 0x101 OR SWAP1 SSTORE JUMPDEST PUSH2 0x1BFC DUP6 DUP6 DUP6 DUP6 PUSH2 0x3E02 JUMP JUMPDEST PUSH1 0x2 SLOAD PUSH1 0x40 DUP1 MLOAD PUSH4 0x9816F473 PUSH1 0xE0 SHL DUP2 MSTORE SWAP1 MLOAD PUSH1 0x0 SWAP3 PUSH1 0x1 PUSH1 0x1 PUSH1 0xA0 SHL SUB AND SWAP2 PUSH4 0x9816F473 SWAP2 PUSH1 0x4 DUP1 DUP4 ADD SWAP3 PUSH1 0x20 SWAP3 SWAP2 SWAP1 DUP3 SWAP1 SUB ADD DUP2 DUP7 DUP1 EXTCODESIZE ISZERO DUP1 ISZERO PUSH2 0x1C41 JUMPI PUSH1 0x0 DUP1 REVERT JUMPDEST POP GAS STATICCALL ISZERO DUP1 ISZERO PUSH2 0x1C55 JUMPI RETURNDATASIZE PUSH1 0x0 DUP1 RETURNDATACOPY RETURNDATASIZE PUSH1 0x0 REVERT JUMPDEST POP POP POP POP PUSH1 0x40 MLOAD RETURNDATASIZE PUSH1 0x1F NOT PUSH1 0x1F DUP3 ADD AND DUP3 ADD DUP1 PUSH1 0x40 MSTORE POP DUP2 ADD SWAP1 PUSH2 0x1C79 SWAP2 SWAP1 PUSH2 0x5708 JUMP JUMPDEST PUSH1 0x40 DUP1 MLOAD DUP1 DUP3 ADD SWAP1 SWAP2 MSTORE PUSH1 0x18 DUP2 MSTORE PUSH24 0x1E995C9BC81859191C995CDCC81B9BDD08185B1B1BDDD959 PUSH1 0x42 SHL PUSH1 0x20 DUP3 ADD MSTORE SWAP1 SWAP2 POP PUSH1 0x1 PUSH1 0x1 PUSH1 0xA0 SHL SUB DUP3 AND PUSH2 0x1CD2 JUMPI PUSH1 0x40 MLOAD PUSH3 0x461BCD PUSH1 0xE5 SHL DUP2 MSTORE PUSH1 0x4 ADD PUSH2 0xB91 SWAP2 SWAP1 PUSH2 0x5677 JUMP JUMPDEST POP PUSH2 0x1D09 PUSH1 0x1 PUSH1 0x1 PUSH1 0xA0 SHL SUB DUP3 AND PUSH32 0x0 PUSH1 0x0 NOT PUSH2 0x3FB0 JUMP JUMPDEST PUSH2 0x1D1F PUSH1 0x1 PUSH1 0x1 PUSH1 0xA0 SHL SUB DUP3 AND DUP8 PUSH1 0x0 NOT PUSH2 0x3FB0 JUMP JUMPDEST POP DUP1 ISZERO PUSH2 0x1D32 JUMPI PUSH1 0x3F DUP1 SLOAD PUSH2 0xFF00 NOT AND SWAP1 SSTORE JUMPDEST POP POP POP POP POP JUMP JUMPDEST PUSH1 0x0 PUSH2 0x1D43 PUSH2 0x35A1 JUMP JUMPDEST PUSH1 0x1 PUSH1 0x1 PUSH1 0xA0 SHL SUB AND PUSH4 0x91D14854 PUSH10 0x676F7665726E616E6365 PUSH1 0xB0 SHL CALLER PUSH1 0x40 MLOAD DUP4 PUSH4 0xFFFFFFFF AND PUSH1 0xE0 SHL DUP2 MSTORE PUSH1 0x4 ADD PUSH2 0x1D7D SWAP3 SWAP2 SWAP1 PUSH2 0x5612 JUMP JUMPDEST PUSH1 0x20 PUSH1 0x40 MLOAD DUP1 DUP4 SUB DUP2 DUP7 DUP1 EXTCODESIZE ISZERO DUP1 ISZERO PUSH2 0x1D95 JUMPI PUSH1 0x0 DUP1 REVERT JUMPDEST POP GAS STATICCALL ISZERO DUP1 ISZERO PUSH2 0x1DA9 JUMPI RETURNDATASIZE PUSH1 0x0 DUP1 RETURNDATACOPY RETURNDATASIZE PUSH1 0x0 REVERT JUMPDEST POP POP POP POP PUSH1 0x40 MLOAD RETURNDATASIZE PUSH1 0x1F NOT PUSH1 0x1F DUP3 ADD AND DUP3 ADD DUP1 PUSH1 0x40 MSTORE POP DUP2 ADD SWAP1 PUSH2 0x1DCD SWAP2 SWAP1 PUSH2 0x5629 JUMP JUMPDEST PUSH1 0x40 MLOAD DUP1 PUSH1 0x40 ADD PUSH1 0x40 MSTORE DUP1 PUSH1 0x13 DUP2 MSTORE PUSH1 0x20 ADD PUSH1 0x0 DUP1 MLOAD PUSH1 0x20 PUSH2 0x580C DUP4 CODECOPY DUP2 MLOAD SWAP2 MSTORE DUP2 MSTORE POP SWAP1 PUSH2 0x1E0F JUMPI PUSH1 0x40 MLOAD PUSH3 0x461BCD PUSH1 0xE5 SHL DUP2 MSTORE PUSH1 0x4 ADD PUSH2 0xB91 SWAP2 SWAP1 PUSH2 0x5677 JUMP JUMPDEST POP PUSH2 0xA76 PUSH2 0x4107 JUMP JUMPDEST PUSH1 0x0 PUSH2 0x1E22 PUSH2 0x35A1 JUMP JUMPDEST PUSH1 0x1 PUSH1 0x1 PUSH1 0xA0 SHL SUB AND PUSH4 0x91D14854 PUSH10 0x676F7665726E616E6365 PUSH1 0xB0 SHL CALLER PUSH1 0x40 MLOAD DUP4 PUSH4 0xFFFFFFFF AND PUSH1 0xE0 SHL DUP2 MSTORE PUSH1 0x4 ADD PUSH2 0x1E5C SWAP3 SWAP2 SWAP1 PUSH2 0x5612 JUMP JUMPDEST PUSH1 0x20 PUSH1 0x40 MLOAD DUP1 DUP4 SUB DUP2 DUP7 DUP1 EXTCODESIZE ISZERO DUP1 ISZERO PUSH2 0x1E74 JUMPI PUSH1 0x0 DUP1 REVERT JUMPDEST POP GAS STATICCALL ISZERO DUP1 ISZERO PUSH2 0x1E88 JUMPI RETURNDATASIZE PUSH1 0x0 DUP1 RETURNDATACOPY RETURNDATASIZE PUSH1 0x0 REVERT JUMPDEST POP POP POP POP PUSH1 0x40 MLOAD RETURNDATASIZE PUSH1 0x1F NOT PUSH1 0x1F DUP3 ADD AND DUP3 ADD DUP1 PUSH1 0x40 MSTORE POP DUP2 ADD SWAP1 PUSH2 0x1EAC SWAP2 SWAP1 PUSH2 0x5629 JUMP JUMPDEST PUSH1 0x40 MLOAD DUP1 PUSH1 0x40 ADD PUSH1 0x40 MSTORE DUP1 PUSH1 0x13 DUP2 MSTORE PUSH1 0x20 ADD PUSH1 0x0 DUP1 MLOAD PUSH1 0x20 PUSH2 0x580C DUP4 CODECOPY DUP2 MLOAD SWAP2 MSTORE DUP2 MSTORE POP SWAP1 PUSH2 0x1EEE JUMPI PUSH1 0x40 MLOAD PUSH3 0x461BCD PUSH1 0xE5 SHL DUP2 MSTORE PUSH1 0x4 ADD PUSH2 0xB91 SWAP2 SWAP1 PUSH2 0x5677 JUMP JUMPDEST POP PUSH8 0x5374726174656779 PUSH1 0xC0 SHL PUSH1 0x0 MSTORE PUSH1 0x3C PUSH1 0x20 SWAP1 DUP2 MSTORE PUSH32 0x15BDD40257915F753934B43755984618AEB2AE4FFF096845769C2BB729E989BE SLOAD PUSH1 0x40 DUP1 MLOAD DUP1 DUP3 ADD SWAP1 SWAP2 MSTORE PUSH1 0x16 DUP2 MSTORE PUSH22 0x1059191C995CDCC81A5CC8185B1C9958591E481CD95D PUSH1 0x52 SHL SWAP3 DUP2 ADD SWAP3 SWAP1 SWAP3 MSTORE PUSH1 0x1 PUSH1 0x1 PUSH1 0xA0 SHL SUB AND ISZERO PUSH2 0x1F7D JUMPI PUSH1 0x40 MLOAD PUSH3 0x461BCD PUSH1 0xE5 SHL DUP2 MSTORE PUSH1 0x4 ADD PUSH2 0xB91 SWAP2 SWAP1 PUSH2 0x5677 JUMP JUMPDEST POP PUSH1 0x40 DUP1 MLOAD DUP1 DUP3 ADD SWAP1 SWAP2 MSTORE PUSH1 0x18 DUP2 MSTORE PUSH24 0x1E995C9BC81859191C995CDCC81B9BDD08185B1B1BDDD959 PUSH1 0x42 SHL PUSH1 0x20 DUP3 ADD MSTORE PUSH1 0x1 PUSH1 0x1 PUSH1 0xA0 SHL SUB DUP4 AND PUSH2 0x1FD4 JUMPI PUSH1 0x40 MLOAD PUSH3 0x461BCD PUSH1 0xE5 SHL DUP2 MSTORE PUSH1 0x4 ADD PUSH2 0xB91 SWAP2 SWAP1 PUSH2 0x5677 JUMP JUMPDEST POP PUSH2 0x1FEA PUSH8 0x5374726174656779 PUSH1 0xC0 SHL DUP4 PUSH2 0x417B JUMP JUMPDEST POP PUSH2 0x1FF3 PUSH2 0x4107 JUMP JUMPDEST POP PUSH1 0x0 PUSH1 0x1 PUSH1 0x1 PUSH1 0xA0 SHL SUB AND DUP3 PUSH1 0x1 PUSH1 0x1 PUSH1 0xA0 SHL SUB AND PUSH4 0x1FE4A686 PUSH1 0x40 MLOAD DUP2 PUSH4 0xFFFFFFFF AND PUSH1 0xE0 SHL DUP2 MSTORE PUSH1 0x4 ADD PUSH1 0x20 PUSH1 0x40 MLOAD DUP1 DUP4 SUB DUP2 DUP7 DUP1 EXTCODESIZE ISZERO DUP1 ISZERO PUSH2 0x2038 JUMPI PUSH1 0x0 DUP1 REVERT JUMPDEST POP GAS STATICCALL ISZERO DUP1 ISZERO PUSH2 0x204C JUMPI RETURNDATASIZE PUSH1 0x0 DUP1 RETURNDATACOPY RETURNDATASIZE PUSH1 0x0 REVERT JUMPDEST POP POP POP POP PUSH1 0x40 MLOAD RETURNDATASIZE PUSH1 0x1F NOT PUSH1 0x1F DUP3 ADD AND DUP3 ADD DUP1 PUSH1 0x40 MSTORE POP DUP2 ADD SWAP1 PUSH2 0x2070 SWAP2 SWAP1 PUSH2 0x5708 JUMP JUMPDEST PUSH1 0x1 PUSH1 0x1 PUSH1 0xA0 SHL SUB AND EQ ISZERO PUSH1 0x40 MLOAD DUP1 PUSH1 0x40 ADD PUSH1 0x40 MSTORE DUP1 PUSH1 0x18 DUP2 MSTORE PUSH1 0x20 ADD PUSH24 0x1E995C9BC81859191C995CDCC81B9BDD08185B1B1BDDD959 PUSH1 0x42 SHL DUP2 MSTORE POP SWAP1 PUSH2 0x20CA JUMPI PUSH1 0x40 MLOAD PUSH3 0x461BCD PUSH1 0xE5 SHL DUP2 MSTORE PUSH1 0x4 ADD PUSH2 0xB91 SWAP2 SWAP1 PUSH2 0x5677 JUMP JUMPDEST POP PUSH1 0x1 SWAP3 SWAP2 POP POP JUMP JUMPDEST PUSH1 0x0 PUSH2 0x1058 PUSH1 0x5 DUP4 PUSH2 0x4207 JUMP JUMPDEST PUSH16 0x2A30B933B2BA20B63637B1B0BA34B7B7 PUSH1 0x81 SHL PUSH1 0x0 MSTORE PUSH1 0x3D PUSH1 0x20 MSTORE PUSH32 0xA3006DE449E2F6DA78C92D58370B3DD2EF3B1E1963FC373ED67D46CED02EB8F SLOAD SWAP1 JUMP JUMPDEST PUSH13 0x53747261746567697374466565 PUSH1 0x98 SHL PUSH1 0x0 MSTORE PUSH1 0x3D PUSH1 0x20 MSTORE PUSH32 0x9991A201724620367B875943D3F1E2D8A65D067F05CCD6A37AF85AE33CF679E9 SLOAD SWAP1 JUMP JUMPDEST PUSH9 0x1119589D131A5B5A5D PUSH1 0xBA SHL PUSH1 0x0 MSTORE PUSH1 0x3D PUSH1 0x20 MSTORE PUSH32 0xED35BBFF007AE1D09677DE3676C3CB1B0411569C4AB270913B3FB2A177A70319 SLOAD SWAP1 JUMP JUMPDEST PUSH5 0x109BDD5B99 PUSH1 0xDA SHL PUSH1 0x0 MSTORE PUSH1 0x3D PUSH1 0x20 MSTORE PUSH32 0xCBA6DF5081839CAB6DED1888D57F2772386C9D156438BB2FAA7B07EC10C24470 SLOAD SWAP1 JUMP JUMPDEST PUSH1 0x2 SLOAD PUSH1 0x1 PUSH1 0x1 PUSH1 0xA0 SHL SUB AND CALLER EQ DUP1 PUSH2 0x2275 JUMPI POP PUSH2 0x21EB PUSH2 0x35A1 JUMP JUMPDEST PUSH1 0x1 PUSH1 0x1 PUSH1 0xA0 SHL SUB AND PUSH4 0x91D14854 PUSH10 0x676F7665726E616E6365 PUSH1 0xB0 SHL CALLER PUSH1 0x40 MLOAD DUP4 PUSH4 0xFFFFFFFF AND PUSH1 0xE0 SHL DUP2 MSTORE PUSH1 0x4 ADD PUSH2 0x2225 SWAP3 SWAP2 SWAP1 PUSH2 0x5612 JUMP JUMPDEST PUSH1 0x20 PUSH1 0x40 MLOAD DUP1 DUP4 SUB DUP2 DUP7 DUP1 EXTCODESIZE ISZERO DUP1 ISZERO PUSH2 0x223D JUMPI PUSH1 0x0 DUP1 REVERT JUMPDEST POP GAS STATICCALL ISZERO DUP1 ISZERO PUSH2 0x2251 JUMPI RETURNDATASIZE PUSH1 0x0 DUP1 RETURNDATACOPY RETURNDATASIZE PUSH1 0x0 REVERT JUMPDEST POP POP POP POP PUSH1 0x40 MLOAD RETURNDATASIZE PUSH1 0x1F NOT PUSH1 0x1F DUP3 ADD AND DUP3 ADD DUP1 PUSH1 0x40 MSTORE POP DUP2 ADD SWAP1 PUSH2 0x2275 SWAP2 SWAP1 PUSH2 0x5629 JUMP JUMPDEST PUSH1 0x40 MLOAD DUP1 PUSH1 0x40 ADD PUSH1 0x40 MSTORE DUP1 PUSH1 0x13 DUP2 MSTORE PUSH1 0x20 ADD PUSH1 0x0 DUP1 MLOAD PUSH1 0x20 PUSH2 0x580C DUP4 CODECOPY DUP2 MLOAD SWAP2 MSTORE DUP2 MSTORE POP SWAP1 PUSH2 0x22B7 JUMPI PUSH1 0x40 MLOAD PUSH3 0x461BCD PUSH1 0xE5 SHL DUP2 MSTORE PUSH1 0x4 ADD PUSH2 0xB91 SWAP2 SWAP1 PUSH2 0x5677 JUMP JUMPDEST POP PUSH2 0x22C0 PUSH2 0x421C JUMP JUMPDEST POP PUSH1 0x2 SLOAD PUSH2 0x22DE SWAP1 PUSH1 0x1 PUSH1 0x1 PUSH1 0xA0 SHL SUB AND PUSH2 0x22D9 PUSH2 0x376E JUMP JUMPDEST PUSH2 0x3A4B JUMP JUMPDEST JUMP JUMPDEST PUSH1 0x0 PUSH2 0x22EA PUSH2 0x35A1 JUMP JUMPDEST PUSH1 0x1 PUSH1 0x1 PUSH1 0xA0 SHL SUB AND PUSH4 0x91D14854 PUSH10 0x676F7665726E616E6365 PUSH1 0xB0 SHL CALLER PUSH1 0x40 MLOAD DUP4 PUSH4 0xFFFFFFFF AND PUSH1 0xE0 SHL DUP2 MSTORE PUSH1 0x4 ADD PUSH2 0x2324 SWAP3 SWAP2 SWAP1 PUSH2 0x5612 JUMP JUMPDEST PUSH1 0x20 PUSH1 0x40 MLOAD DUP1 DUP4 SUB DUP2 DUP7 DUP1 EXTCODESIZE ISZERO DUP1 ISZERO PUSH2 0x233C JUMPI PUSH1 0x0 DUP1 REVERT JUMPDEST POP GAS STATICCALL ISZERO DUP1 ISZERO PUSH2 0x2350 JUMPI RETURNDATASIZE PUSH1 0x0 DUP1 RETURNDATACOPY RETURNDATASIZE PUSH1 0x0 REVERT JUMPDEST POP POP POP POP PUSH1 0x40 MLOAD RETURNDATASIZE PUSH1 0x1F NOT PUSH1 0x1F DUP3 ADD AND DUP3 ADD DUP1 PUSH1 0x40 MSTORE POP DUP2 ADD SWAP1 PUSH2 0x2374 SWAP2 SWAP1 PUSH2 0x5629 JUMP JUMPDEST PUSH1 0x40 MLOAD DUP1 PUSH1 0x40 ADD PUSH1 0x40 MSTORE DUP1 PUSH1 0x13 DUP2 MSTORE PUSH1 0x20 ADD PUSH1 0x0 DUP1 MLOAD PUSH1 0x20 PUSH2 0x580C DUP4 CODECOPY DUP2 MLOAD SWAP2 MSTORE DUP2 MSTORE POP SWAP1 PUSH2 0x23B6 JUMPI PUSH1 0x40 MLOAD PUSH3 0x461BCD PUSH1 0xE5 SHL DUP2 MSTORE PUSH1 0x4 ADD PUSH2 0xB91 SWAP2 SWAP1 PUSH2 0x5677 JUMP JUMPDEST POP PUSH2 0xA76 PUSH10 0x52657365727665466565 PUSH1 0xB0 SHL PUSH2 0x35C5 JUMP JUMPDEST PUSH1 0x0 PUSH2 0x23D7 PUSH2 0x35A1 JUMP JUMPDEST PUSH1 0x1 PUSH1 0x1 PUSH1 0xA0 SHL SUB AND PUSH4 0x91D14854 PUSH10 0x676F7665726E616E6365 PUSH1 0xB0 SHL CALLER PUSH1 0x40 MLOAD DUP4 PUSH4 0xFFFFFFFF AND PUSH1 0xE0 SHL DUP2 MSTORE PUSH1 0x4 ADD PUSH2 0x2411 SWAP3 SWAP2 SWAP1 PUSH2 0x5612 JUMP JUMPDEST PUSH1 0x20 PUSH1 0x40 MLOAD DUP1 DUP4 SUB DUP2 DUP7 DUP1 EXTCODESIZE ISZERO DUP1 ISZERO PUSH2 0x2429 JUMPI PUSH1 0x0 DUP1 REVERT JUMPDEST POP GAS STATICCALL ISZERO DUP1 ISZERO PUSH2 0x243D JUMPI RETURNDATASIZE PUSH1 0x0 DUP1 RETURNDATACOPY RETURNDATASIZE PUSH1 0x0 REVERT JUMPDEST POP POP POP POP PUSH1 0x40 MLOAD RETURNDATASIZE PUSH1 0x1F NOT PUSH1 0x1F DUP3 ADD AND DUP3 ADD DUP1 PUSH1 0x40 MSTORE POP DUP2 ADD SWAP1 PUSH2 0x2461 SWAP2 SWAP1 PUSH2 0x5629 JUMP JUMPDEST PUSH1 0x40 MLOAD DUP1 PUSH1 0x40 ADD PUSH1 0x40 MSTORE DUP1 PUSH1 0x13 DUP2 MSTORE PUSH1 0x20 ADD PUSH1 0x0 DUP1 MLOAD PUSH1 0x20 PUSH2 0x580C DUP4 CODECOPY DUP2 MLOAD SWAP2 MSTORE DUP2 MSTORE POP SWAP1 PUSH2 0x24A3 JUMPI PUSH1 0x40 MLOAD PUSH3 0x461BCD PUSH1 0xE5 SHL DUP2 MSTORE PUSH1 0x4 ADD PUSH2 0xB91 SWAP2 SWAP1 PUSH2 0x5677 JUMP JUMPDEST POP PUSH2 0xA76 PUSH13 0x53747261746567697374466565 PUSH1 0x98 SHL PUSH2 0x35C5 JUMP JUMPDEST PUSH1 0x0 DUP1 PUSH2 0x24D9 PUSH13 0x53747261746567697374466565 PUSH1 0x98 SHL PUSH2 0x3A68 JUMP JUMPDEST SWAP1 POP PUSH2 0x16E1 PUSH2 0x24E6 PUSH2 0x349F JUMP JUMPDEST DUP3 PUSH2 0x366C JUMP JUMPDEST PUSH1 0x2 SLOAD PUSH1 0x40 DUP1 MLOAD PUSH4 0x9816F473 PUSH1 0xE0 SHL DUP2 MSTORE SWAP1 MLOAD PUSH1 0x0 SWAP3 PUSH1 0x1 PUSH1 0x1 PUSH1 0xA0 SHL SUB AND SWAP2 PUSH4 0x9816F473 SWAP2 PUSH1 0x4 DUP1 DUP4 ADD SWAP3 PUSH1 0x20 SWAP3 SWAP2 SWAP1 DUP3 SWAP1 SUB ADD DUP2 DUP7 DUP1 EXTCODESIZE ISZERO DUP1 ISZERO PUSH2 0x2531 JUMPI PUSH1 0x0 DUP1 REVERT JUMPDEST POP GAS STATICCALL ISZERO DUP1 ISZERO PUSH2 0x2545 JUMPI RETURNDATASIZE PUSH1 0x0 DUP1 RETURNDATACOPY RETURNDATASIZE PUSH1 0x0 REVERT JUMPDEST POP POP POP POP PUSH1 0x40 MLOAD RETURNDATASIZE PUSH1 0x1F NOT PUSH1 0x1F DUP3 ADD AND DUP3 ADD DUP1 PUSH1 0x40 MSTORE POP DUP2 ADD SWAP1 PUSH2 0xA76 SWAP2 SWAP1 PUSH2 0x5708 JUMP JUMPDEST PUSH1 0x60 PUSH2 0xA76 PUSH1 0x5 PUSH2 0x4305 JUMP JUMPDEST PUSH1 0x0 PUSH2 0x257F PUSH2 0x35A1 JUMP JUMPDEST PUSH1 0x1 PUSH1 0x1 PUSH1 0xA0 SHL SUB AND PUSH4 0x91D14854 PUSH10 0x676F7665726E616E6365 PUSH1 0xB0 SHL CALLER PUSH1 0x40 MLOAD DUP4 PUSH4 0xFFFFFFFF AND PUSH1 0xE0 SHL DUP2 MSTORE PUSH1 0x4 ADD PUSH2 0x25B9 SWAP3 SWAP2 SWAP1 PUSH2 0x5612 JUMP JUMPDEST PUSH1 0x20 PUSH1 0x40 MLOAD DUP1 DUP4 SUB DUP2 DUP7 DUP1 EXTCODESIZE ISZERO DUP1 ISZERO PUSH2 0x25D1 JUMPI PUSH1 0x0 DUP1 REVERT JUMPDEST POP GAS STATICCALL ISZERO DUP1 ISZERO PUSH2 0x25E5 JUMPI RETURNDATASIZE PUSH1 0x0 DUP1 RETURNDATACOPY RETURNDATASIZE PUSH1 0x0 REVERT JUMPDEST POP POP POP POP PUSH1 0x40 MLOAD RETURNDATASIZE PUSH1 0x1F NOT PUSH1 0x1F DUP3 ADD AND DUP3 ADD DUP1 PUSH1 0x40 MSTORE POP DUP2 ADD SWAP1 PUSH2 0x2609 SWAP2 SWAP1 PUSH2 0x5629 JUMP JUMPDEST PUSH1 0x40 MLOAD DUP1 PUSH1 0x40 ADD PUSH1 0x40 MSTORE DUP1 PUSH1 0x13 DUP2 MSTORE PUSH1 0x20 ADD PUSH1 0x0 DUP1 MLOAD PUSH1 0x20 PUSH2 0x580C DUP4 CODECOPY DUP2 MLOAD SWAP2 MSTORE DUP2 MSTORE POP SWAP1 PUSH2 0x264B JUMPI PUSH1 0x40 MLOAD PUSH3 0x461BCD PUSH1 0xE5 SHL DUP2 MSTORE PUSH1 0x4 ADD PUSH2 0xB91 SWAP2 SWAP1 PUSH2 0x5677 JUMP JUMPDEST POP PUSH2 0xA76 PUSH8 0x5374726174656779 PUSH1 0xC0 SHL PUSH2 0x43B4 JUMP JUMPDEST PUSH1 0x0 PUSH2 0x2676 PUSH8 0x5374726174656779 PUSH1 0xC0 SHL PUSH2 0x4466 JUMP JUMPDEST PUSH1 0x0 PUSH2 0x2680 PUSH2 0xA7B JUMP JUMPDEST SWAP1 POP PUSH1 0x1 PUSH1 0x1 PUSH1 0xA0 SHL SUB DUP2 AND ISZERO PUSH2 0x2824 JUMPI PUSH2 0x2699 PUSH2 0x3B4B JUMP JUMPDEST POP DUP1 PUSH1 0x1 PUSH1 0x1 PUSH1 0xA0 SHL SUB AND PUSH4 0xFC0E74D1 PUSH1 0x40 MLOAD DUP2 PUSH4 0xFFFFFFFF AND PUSH1 0xE0 SHL DUP2 MSTORE PUSH1 0x4 ADD PUSH1 0x20 PUSH1 0x40 MLOAD DUP1 DUP4 SUB DUP2 PUSH1 0x0 DUP8 DUP1 EXTCODESIZE ISZERO DUP1 ISZERO PUSH2 0x26D5 JUMPI PUSH1 0x0 DUP1 REVERT JUMPDEST POP GAS CALL ISZERO DUP1 ISZERO PUSH2 0x26E9 JUMPI RETURNDATASIZE PUSH1 0x0 DUP1 RETURNDATACOPY RETURNDATASIZE PUSH1 0x0 REVERT JUMPDEST POP POP POP POP PUSH1 0x40 MLOAD RETURNDATASIZE PUSH1 0x1F NOT PUSH1 0x1F DUP3 ADD AND DUP3 ADD DUP1 PUSH1 0x40 MSTORE POP DUP2 ADD SWAP1 PUSH2 0x270D SWAP2 SWAP1 PUSH2 0x5629 JUMP JUMPDEST POP DUP1 PUSH1 0x1 PUSH1 0x1 PUSH1 0xA0 SHL SUB AND PUSH4 0x853828B6 PUSH1 0x40 MLOAD DUP2 PUSH4 0xFFFFFFFF AND PUSH1 0xE0 SHL DUP2 MSTORE PUSH1 0x4 ADD PUSH1 0x20 PUSH1 0x40 MLOAD DUP1 DUP4 SUB DUP2 PUSH1 0x0 DUP8 DUP1 EXTCODESIZE ISZERO DUP1 ISZERO PUSH2 0x2749 JUMPI PUSH1 0x0 DUP1 REVERT JUMPDEST POP GAS CALL ISZERO DUP1 ISZERO PUSH2 0x275D JUMPI RETURNDATASIZE PUSH1 0x0 DUP1 RETURNDATACOPY RETURNDATASIZE PUSH1 0x0 REVERT JUMPDEST POP POP POP POP PUSH1 0x40 MLOAD RETURNDATASIZE PUSH1 0x1F NOT PUSH1 0x1F DUP3 ADD AND DUP3 ADD DUP1 PUSH1 0x40 MSTORE POP DUP2 ADD SWAP1 PUSH2 0x2781 SWAP2 SWAP1 PUSH2 0x56AA JUMP JUMPDEST POP PUSH1 0x0 DUP2 PUSH1 0x1 PUSH1 0x1 PUSH1 0xA0 SHL SUB AND PUSH4 0xB69EF8A8 PUSH1 0x40 MLOAD DUP2 PUSH4 0xFFFFFFFF AND PUSH1 0xE0 SHL DUP2 MSTORE PUSH1 0x4 ADD PUSH1 0x20 PUSH1 0x40 MLOAD DUP1 DUP4 SUB DUP2 DUP7 DUP1 EXTCODESIZE ISZERO DUP1 ISZERO PUSH2 0x27BD JUMPI PUSH1 0x0 DUP1 REVERT JUMPDEST POP GAS STATICCALL ISZERO DUP1 ISZERO PUSH2 0x27D1 JUMPI RETURNDATASIZE PUSH1 0x0 DUP1 RETURNDATACOPY RETURNDATASIZE PUSH1 0x0 REVERT JUMPDEST POP POP POP POP PUSH1 0x40 MLOAD RETURNDATASIZE PUSH1 0x1F NOT PUSH1 0x1F DUP3 ADD AND DUP3 ADD DUP1 PUSH1 0x40 MSTORE POP DUP2 ADD SWAP1 PUSH2 0x27F5 SWAP2 SWAP1 PUSH2 0x56AA JUMP JUMPDEST SWAP1 POP DUP1 ISZERO PUSH2 0x2822 JUMPI PUSH2 0x2809 PUSH1 0x5 DUP4 DUP4 PUSH2 0x450F JUMP JUMPDEST POP DUP1 PUSH1 0x1 PUSH1 0x0 DUP3 DUP3 SLOAD PUSH2 0x281C SWAP2 SWAP1 PUSH2 0x56F0 JUMP JUMPDEST SWAP1 SWAP2 SSTORE POP POP JUMPDEST POP JUMPDEST PUSH2 0x282C PUSH2 0x370E JUMP JUMPDEST POP PUSH1 0x0 DUP1 DUP1 SSTORE PUSH1 0x3 DUP2 SWAP1 SSTORE PUSH8 0x5374726174656779 PUSH1 0xC0 SHL SWAP1 DUP2 SWAP1 MSTORE PUSH1 0x3A PUSH1 0x20 MSTORE PUSH32 0xA4CAF68BC3013A9A5274C5D8968485AE05B8C28E9F50493F41ACC96B22818C23 SLOAD PUSH1 0x1 PUSH1 0x1 PUSH1 0xA0 SHL SUB AND SWAP1 PUSH2 0x2882 SWAP1 DUP3 PUSH2 0x417B JUMP JUMPDEST POP PUSH1 0x1 PUSH1 0x1 PUSH1 0xA0 SHL SUB DUP2 AND ISZERO PUSH2 0x1058 JUMPI PUSH2 0x289A PUSH2 0x4107 JUMP JUMPDEST POP SWAP3 SWAP2 POP POP JUMP JUMPDEST PUSH1 0x0 PUSH2 0x28AB PUSH2 0x35A1 JUMP JUMPDEST PUSH1 0x1 PUSH1 0x1 PUSH1 0xA0 SHL SUB AND PUSH4 0x91D14854 PUSH10 0x676F7665726E616E6365 PUSH1 0xB0 SHL CALLER PUSH1 0x40 MLOAD DUP4 PUSH4 0xFFFFFFFF AND PUSH1 0xE0 SHL DUP2 MSTORE PUSH1 0x4 ADD PUSH2 0x28E5 SWAP3 SWAP2 SWAP1 PUSH2 0x5612 JUMP JUMPDEST PUSH1 0x20 PUSH1 0x40 MLOAD DUP1 DUP4 SUB DUP2 DUP7 DUP1 EXTCODESIZE ISZERO DUP1 ISZERO PUSH2 0x28FD JUMPI PUSH1 0x0 DUP1 REVERT JUMPDEST POP GAS STATICCALL ISZERO DUP1 ISZERO PUSH2 0x2911 JUMPI RETURNDATASIZE PUSH1 0x0 DUP1 RETURNDATACOPY RETURNDATASIZE PUSH1 0x0 REVERT JUMPDEST POP POP POP POP PUSH1 0x40 MLOAD RETURNDATASIZE PUSH1 0x1F NOT PUSH1 0x1F DUP3 ADD AND DUP3 ADD DUP1 PUSH1 0x40 MSTORE POP DUP2 ADD SWAP1 PUSH2 0x2935 SWAP2 SWAP1 PUSH2 0x5629 JUMP JUMPDEST PUSH1 0x40 MLOAD DUP1 PUSH1 0x40 ADD PUSH1 0x40 MSTORE DUP1 PUSH1 0x13 DUP2 MSTORE PUSH1 0x20 ADD PUSH1 0x0 DUP1 MLOAD PUSH1 0x20 PUSH2 0x580C DUP4 CODECOPY DUP2 MLOAD SWAP2 MSTORE DUP2 MSTORE POP SWAP1 PUSH2 0x2977 JUMPI PUSH1 0x40 MLOAD PUSH3 0x461BCD PUSH1 0xE5 SHL DUP2 MSTORE PUSH1 0x4 ADD PUSH2 0xB91 SWAP2 SWAP1 PUSH2 0x5677 JUMP JUMPDEST POP PUSH2 0x1058 PUSH16 0x2A30B933B2BA20B63637B1B0BA34B7B7 PUSH1 0x81 SHL DUP4 PUSH2 0x36F7 JUMP JUMPDEST PUSH1 0x0 PUSH2 0x299F PUSH2 0x35A1 JUMP JUMPDEST PUSH1 0x1 PUSH1 0x1 PUSH1 0xA0 SHL SUB AND PUSH4 0x91D14854 PUSH10 0x676F7665726E616E6365 PUSH1 0xB0 SHL CALLER PUSH1 0x40 MLOAD DUP4 PUSH4 0xFFFFFFFF AND PUSH1 0xE0 SHL DUP2 MSTORE PUSH1 0x4 ADD PUSH2 0x29D9 SWAP3 SWAP2 SWAP1 PUSH2 0x5612 JUMP JUMPDEST PUSH1 0x20 PUSH1 0x40 MLOAD DUP1 DUP4 SUB DUP2 DUP7 DUP1 EXTCODESIZE ISZERO DUP1 ISZERO PUSH2 0x29F1 JUMPI PUSH1 0x0 DUP1 REVERT JUMPDEST POP GAS STATICCALL ISZERO DUP1 ISZERO PUSH2 0x2A05 JUMPI RETURNDATASIZE PUSH1 0x0 DUP1 RETURNDATACOPY RETURNDATASIZE PUSH1 0x0 REVERT JUMPDEST POP POP POP POP PUSH1 0x40 MLOAD RETURNDATASIZE PUSH1 0x1F NOT PUSH1 0x1F DUP3 ADD AND DUP3 ADD DUP1 PUSH1 0x40 MSTORE POP DUP2 ADD SWAP1 PUSH2 0x2A29 SWAP2 SWAP1 PUSH2 0x5629 JUMP JUMPDEST PUSH1 0x40 MLOAD DUP1 PUSH1 0x40 ADD PUSH1 0x40 MSTORE DUP1 PUSH1 0x13 DUP2 MSTORE PUSH1 0x20 ADD PUSH1 0x0 DUP1 MLOAD PUSH1 0x20 PUSH2 0x580C DUP4 CODECOPY DUP2 MLOAD SWAP2 MSTORE DUP2 MSTORE POP SWAP1 PUSH2 0x2A6B JUMPI PUSH1 0x40 MLOAD PUSH3 0x461BCD PUSH1 0xE5 SHL DUP2 MSTORE PUSH1 0x4 ADD PUSH2 0xB91 SWAP2 SWAP1 PUSH2 0x5677 JUMP JUMPDEST POP PUSH2 0xA76 PUSH5 0x109BDD5B99 PUSH1 0xDA SHL PUSH2 0x35C5 JUMP JUMPDEST PUSH1 0x2 SLOAD PUSH1 0x0 SWAP1 PUSH1 0x1 PUSH1 0x1 PUSH1 0xA0 SHL SUB AND CALLER EQ DUP1 PUSH2 0x2B26 JUMPI POP PUSH2 0x2A9C PUSH2 0x35A1 JUMP JUMPDEST PUSH1 0x1 PUSH1 0x1 PUSH1 0xA0 SHL SUB AND PUSH4 0x91D14854 PUSH10 0x676F7665726E616E6365 PUSH1 0xB0 SHL CALLER PUSH1 0x40 MLOAD DUP4 PUSH4 0xFFFFFFFF AND PUSH1 0xE0 SHL DUP2 MSTORE PUSH1 0x4 ADD PUSH2 0x2AD6 SWAP3 SWAP2 SWAP1 PUSH2 0x5612 JUMP JUMPDEST PUSH1 0x20 PUSH1 0x40 MLOAD DUP1 DUP4 SUB DUP2 DUP7 DUP1 EXTCODESIZE ISZERO DUP1 ISZERO PUSH2 0x2AEE JUMPI PUSH1 0x0 DUP1 REVERT JUMPDEST POP GAS STATICCALL ISZERO DUP1 ISZERO PUSH2 0x2B02 JUMPI RETURNDATASIZE PUSH1 0x0 DUP1 RETURNDATACOPY RETURNDATASIZE PUSH1 0x0 REVERT JUMPDEST POP POP POP POP PUSH1 0x40 MLOAD RETURNDATASIZE PUSH1 0x1F NOT PUSH1 0x1F DUP3 ADD AND DUP3 ADD DUP1 PUSH1 0x40 MSTORE POP DUP2 ADD SWAP1 PUSH2 0x2B26 SWAP2 SWAP1 PUSH2 0x5629 JUMP JUMPDEST PUSH1 0x40 MLOAD DUP1 PUSH1 0x40 ADD PUSH1 0x40 MSTORE DUP1 PUSH1 0x13 DUP2 MSTORE PUSH1 0x20 ADD PUSH1 0x0 DUP1 MLOAD PUSH1 0x20 PUSH2 0x580C DUP4 CODECOPY DUP2 MLOAD SWAP2 MSTORE DUP2 MSTORE POP SWAP1 PUSH2 0x2B68 JUMPI PUSH1 0x40 MLOAD PUSH3 0x461BCD PUSH1 0xE5 SHL DUP2 MSTORE PUSH1 0x4 ADD PUSH2 0xB91 SWAP2 SWAP1 PUSH2 0x5677 JUMP JUMPDEST POP PUSH2 0xA76 PUSH2 0x421C JUMP JUMPDEST PUSH1 0x0 PUSH2 0x2B7B PUSH2 0x35A1 JUMP JUMPDEST PUSH1 0x1 PUSH1 0x1 PUSH1 0xA0 SHL SUB AND PUSH4 0x91D14854 PUSH10 0x676F7665726E616E6365 PUSH1 0xB0 SHL CALLER PUSH1 0x40 MLOAD DUP4 PUSH4 0xFFFFFFFF AND PUSH1 0xE0 SHL DUP2 MSTORE PUSH1 0x4 ADD PUSH2 0x2BB5 SWAP3 SWAP2 SWAP1 PUSH2 0x5612 JUMP JUMPDEST PUSH1 0x20 PUSH1 0x40 MLOAD DUP1 DUP4 SUB DUP2 DUP7 DUP1 EXTCODESIZE ISZERO DUP1 ISZERO PUSH2 0x2BCD JUMPI PUSH1 0x0 DUP1 REVERT JUMPDEST POP GAS STATICCALL ISZERO DUP1 ISZERO PUSH2 0x2BE1 JUMPI RETURNDATASIZE PUSH1 0x0 DUP1 RETURNDATACOPY RETURNDATASIZE PUSH1 0x0 REVERT JUMPDEST POP POP POP POP PUSH1 0x40 MLOAD RETURNDATASIZE PUSH1 0x1F NOT PUSH1 0x1F DUP3 ADD AND DUP3 ADD DUP1 PUSH1 0x40 MSTORE POP DUP2 ADD SWAP1 PUSH2 0x2C05 SWAP2 SWAP1 PUSH2 0x5629 JUMP JUMPDEST PUSH1 0x40 MLOAD DUP1 PUSH1 0x40 ADD PUSH1 0x40 MSTORE DUP1 PUSH1 0x13 DUP2 MSTORE PUSH1 0x20 ADD PUSH1 0x0 DUP1 MLOAD PUSH1 0x20 PUSH2 0x580C DUP4 CODECOPY DUP2 MLOAD SWAP2 MSTORE DUP2 MSTORE POP SWAP1 PUSH2 0x2C47 JUMPI PUSH1 0x40 MLOAD PUSH3 0x461BCD PUSH1 0xE5 SHL DUP2 MSTORE PUSH1 0x4 ADD PUSH2 0xB91 SWAP2 SWAP1 PUSH2 0x5677 JUMP JUMPDEST POP PUSH2 0x1058 PUSH8 0x5374726174656779 PUSH1 0xC0 SHL DUP4 PUSH3 0x69780 PUSH2 0x452D JUMP JUMPDEST PUSH1 0x0 DUP1 PUSH2 0x2C6C PUSH2 0x376E JUMP JUMPDEST SWAP1 POP PUSH1 0x0 PUSH2 0x2C78 PUSH2 0xA7B JUMP JUMPDEST PUSH1 0x1 PUSH1 0x1 PUSH1 0xA0 SHL SUB AND EQ ISZERO PUSH2 0x2C8C JUMPI SWAP2 SWAP1 POP JUMP JUMPDEST PUSH1 0x0 PUSH1 0x1 SLOAD PUSH1 0x0 SLOAD DUP4 PUSH2 0x2C9F SWAP2 SWAP1 PUSH2 0x56F0 JUMP JUMPDEST PUSH2 0x2CA9 SWAP2 SWAP1 PUSH2 0x56F0 JUMP JUMPDEST SWAP1 POP DUP1 PUSH1 0x3 SLOAD GT PUSH2 0x2CC8 JUMPI PUSH1 0x3 SLOAD PUSH2 0x2CC1 SWAP1 DUP3 PUSH2 0x56D9 JUMP JUMPDEST SWAP3 POP POP POP SWAP1 JUMP JUMPDEST PUSH1 0x0 SWAP3 POP POP POP SWAP1 JUMP JUMPDEST PUSH1 0x0 PUSH2 0x2CDB PUSH2 0x35A1 JUMP JUMPDEST PUSH1 0x1 PUSH1 0x1 PUSH1 0xA0 SHL SUB AND PUSH4 0x91D14854 PUSH10 0x676F7665726E616E6365 PUSH1 0xB0 SHL CALLER PUSH1 0x40 MLOAD DUP4 PUSH4 0xFFFFFFFF AND PUSH1 0xE0 SHL DUP2 MSTORE PUSH1 0x4 ADD PUSH2 0x2D15 SWAP3 SWAP2 SWAP1 PUSH2 0x5612 JUMP JUMPDEST PUSH1 0x20 PUSH1 0x40 MLOAD DUP1 DUP4 SUB DUP2 DUP7 DUP1 EXTCODESIZE ISZERO DUP1 ISZERO PUSH2 0x2D2D JUMPI PUSH1 0x0 DUP1 REVERT JUMPDEST POP GAS STATICCALL ISZERO DUP1 ISZERO PUSH2 0x2D41 JUMPI RETURNDATASIZE PUSH1 0x0 DUP1 RETURNDATACOPY RETURNDATASIZE PUSH1 0x0 REVERT JUMPDEST POP POP POP POP PUSH1 0x40 MLOAD RETURNDATASIZE PUSH1 0x1F NOT PUSH1 0x1F DUP3 ADD AND DUP3 ADD DUP1 PUSH1 0x40 MSTORE POP DUP2 ADD SWAP1 PUSH2 0x2D65 SWAP2 SWAP1 PUSH2 0x5629 JUMP JUMPDEST PUSH1 0x40 MLOAD DUP1 PUSH1 0x40 ADD PUSH1 0x40 MSTORE DUP1 PUSH1 0x13 DUP2 MSTORE PUSH1 0x20 ADD PUSH1 0x0 DUP1 MLOAD PUSH1 0x20 PUSH2 0x580C DUP4 CODECOPY DUP2 MLOAD SWAP2 MSTORE DUP2 MSTORE POP SWAP1 PUSH2 0x2DA7 JUMPI PUSH1 0x40 MLOAD PUSH3 0x461BCD PUSH1 0xE5 SHL DUP2 MSTORE PUSH1 0x4 ADD PUSH2 0xB91 SWAP2 SWAP1 PUSH2 0x5677 JUMP JUMPDEST POP PUSH1 0x40 DUP1 MLOAD DUP1 DUP3 ADD SWAP1 SWAP2 MSTORE PUSH1 0xE DUP2 MSTORE PUSH14 0x1A5B9D985B1A5908185B5BDD5B9D PUSH1 0x92 SHL PUSH1 0x20 DUP3 ADD MSTORE PUSH8 0x6F05B59D3B20000 DUP4 GT ISZERO PUSH2 0x2DF6 JUMPI PUSH1 0x40 MLOAD PUSH3 0x461BCD PUSH1 0xE5 SHL DUP2 MSTORE PUSH1 0x4 ADD PUSH2 0xB91 SWAP2 SWAP1 PUSH2 0x5677 JUMP JUMPDEST POP PUSH2 0x1058 PUSH14 0x506572666F726D616E6365466565 PUSH1 0x90 SHL DUP4 PUSH2 0x36F7 JUMP JUMPDEST PUSH1 0x0 DUP1 PUSH2 0x16D7 PUSH16 0x2A30B933B2BA20B63637B1B0BA34B7B7 PUSH1 0x81 SHL PUSH2 0x3A68 JUMP JUMPDEST PUSH1 0x2 SLOAD PUSH1 0x1 PUSH1 0x1 PUSH1 0xA0 SHL SUB AND CALLER EQ DUP1 PUSH2 0x2ED8 JUMPI POP PUSH2 0x2E4D PUSH2 0x35A1 JUMP JUMPDEST PUSH1 0x1 PUSH1 0x1 PUSH1 0xA0 SHL SUB AND PUSH4 0x91D14854 PUSH11 0x6D61696E74656E616E6365 PUSH1 0xA8 SHL CALLER PUSH1 0x40 MLOAD DUP4 PUSH4 0xFFFFFFFF AND PUSH1 0xE0 SHL DUP2 MSTORE PUSH1 0x4 ADD PUSH2 0x2E88 SWAP3 SWAP2 SWAP1 PUSH2 0x5612 JUMP JUMPDEST PUSH1 0x20 PUSH1 0x40 MLOAD DUP1 DUP4 SUB DUP2 DUP7 DUP1 EXTCODESIZE ISZERO DUP1 ISZERO PUSH2 0x2EA0 JUMPI PUSH1 0x0 DUP1 REVERT JUMPDEST POP GAS STATICCALL ISZERO DUP1 ISZERO PUSH2 0x2EB4 JUMPI RETURNDATASIZE PUSH1 0x0 DUP1 RETURNDATACOPY RETURNDATASIZE PUSH1 0x0 REVERT JUMPDEST POP POP POP POP PUSH1 0x40 MLOAD RETURNDATASIZE PUSH1 0x1F NOT PUSH1 0x1F DUP3 ADD AND DUP3 ADD DUP1 PUSH1 0x40 MSTORE POP DUP2 ADD SWAP1 PUSH2 0x2ED8 SWAP2 SWAP1 PUSH2 0x5629 JUMP JUMPDEST PUSH1 0x40 MLOAD DUP1 PUSH1 0x40 ADD PUSH1 0x40 MSTORE DUP1 PUSH1 0x13 DUP2 MSTORE PUSH1 0x20 ADD PUSH1 0x0 DUP1 MLOAD PUSH1 0x20 PUSH2 0x580C DUP4 CODECOPY DUP2 MLOAD SWAP2 MSTORE DUP2 MSTORE POP SWAP1 PUSH2 0x2F1A JUMPI PUSH1 0x40 MLOAD PUSH3 0x461BCD PUSH1 0xE5 SHL DUP2 MSTORE PUSH1 0x4 ADD PUSH2 0xB91 SWAP2 SWAP1 PUSH2 0x5677 JUMP JUMPDEST POP PUSH2 0x22DE PUSH2 0x3A8C JUMP JUMPDEST PUSH1 0x0 DUP1 PUSH2 0x2F3C PUSH10 0x52657365727665466565 PUSH1 0xB0 SHL PUSH2 0x3A68 JUMP JUMPDEST SWAP1 POP PUSH2 0x16E1 DUP2 PUSH2 0x1141 PUSH2 0x2121 JUMP JUMPDEST PUSH1 0x0 DUP1 PUSH2 0x2F62 PUSH9 0x1119589D131A5B5A5D PUSH1 0xBA SHL PUSH2 0x3A68 JUMP JUMPDEST SWAP1 POP PUSH1 0x0 PUSH2 0x2F7B DUP3 PUSH1 0x0 SLOAD PUSH2 0x37F1 SWAP1 SWAP2 SWAP1 PUSH4 0xFFFFFFFF AND JUMP JUMPDEST SWAP1 POP DUP1 PUSH1 0x3 SLOAD LT PUSH2 0x2F8E JUMPI PUSH2 0x2F8E PUSH2 0x45AA JUMP JUMPDEST POP SWAP2 SWAP1 POP JUMP JUMPDEST PUSH1 0x0 PUSH2 0x2F9E PUSH2 0x35A1 JUMP JUMPDEST PUSH1 0x1 PUSH1 0x1 PUSH1 0xA0 SHL SUB AND PUSH4 0x91D14854 PUSH10 0x676F7665726E616E6365 PUSH1 0xB0 SHL CALLER PUSH1 0x40 MLOAD DUP4 PUSH4 0xFFFFFFFF AND PUSH1 0xE0 SHL DUP2 MSTORE PUSH1 0x4 ADD PUSH2 0x2FD8 SWAP3 SWAP2 SWAP1 PUSH2 0x5612 JUMP JUMPDEST PUSH1 0x20 PUSH1 0x40 MLOAD DUP1 DUP4 SUB DUP2 DUP7 DUP1 EXTCODESIZE ISZERO DUP1 ISZERO PUSH2 0x2FF0 JUMPI PUSH1 0x0 DUP1 REVERT JUMPDEST POP GAS STATICCALL ISZERO DUP1 ISZERO PUSH2 0x3004 JUMPI RETURNDATASIZE PUSH1 0x0 DUP1 RETURNDATACOPY RETURNDATASIZE PUSH1 0x0 REVERT JUMPDEST POP POP POP POP PUSH1 0x40 MLOAD RETURNDATASIZE PUSH1 0x1F NOT PUSH1 0x1F DUP3 ADD AND DUP3 ADD DUP1 PUSH1 0x40 MSTORE POP DUP2 ADD SWAP1 PUSH2 0x3028 SWAP2 SWAP1 PUSH2 0x5629 JUMP JUMPDEST PUSH1 0x40 MLOAD DUP1 PUSH1 0x40 ADD PUSH1 0x40 MSTORE DUP1 PUSH1 0x13 DUP2 MSTORE PUSH1 0x20 ADD PUSH1 0x0 DUP1 MLOAD PUSH1 0x20 PUSH2 0x580C DUP4 CODECOPY DUP2 MLOAD SWAP2 MSTORE DUP2 MSTORE POP SWAP1 PUSH2 0x306A JUMPI PUSH1 0x40 MLOAD PUSH3 0x461BCD PUSH1 0xE5 SHL DUP2 MSTORE PUSH1 0x4 ADD PUSH2 0xB91 SWAP2 SWAP1 PUSH2 0x5677 JUMP JUMPDEST POP PUSH2 0xA76 PUSH14 0x506572666F726D616E6365466565 PUSH1 0x90 SHL PUSH2 0x35C5 JUMP JUMPDEST PUSH1 0x0 PUSH2 0x308F PUSH2 0x35A1 JUMP JUMPDEST PUSH1 0x1 PUSH1 0x1 PUSH1 0xA0 SHL SUB AND PUSH4 0x91D14854 PUSH10 0x676F7665726E616E6365 PUSH1 0xB0 SHL CALLER PUSH1 0x40 MLOAD DUP4 PUSH4 0xFFFFFFFF AND PUSH1 0xE0 SHL DUP2 MSTORE PUSH1 0x4 ADD PUSH2 0x30C9 SWAP3 SWAP2 SWAP1 PUSH2 0x5612 JUMP JUMPDEST PUSH1 0x20 PUSH1 0x40 MLOAD DUP1 DUP4 SUB DUP2 DUP7 DUP1 EXTCODESIZE ISZERO DUP1 ISZERO PUSH2 0x30E1 JUMPI PUSH1 0x0 DUP1 REVERT JUMPDEST POP GAS STATICCALL ISZERO DUP1 ISZERO PUSH2 0x30F5 JUMPI RETURNDATASIZE PUSH1 0x0 DUP1 RETURNDATACOPY RETURNDATASIZE PUSH1 0x0 REVERT JUMPDEST POP POP POP POP PUSH1 0x40 MLOAD RETURNDATASIZE PUSH1 0x1F NOT PUSH1 0x1F DUP3 ADD AND DUP3 ADD DUP1 PUSH1 0x40 MSTORE POP DUP2 ADD SWAP1 PUSH2 0x3119 SWAP2 SWAP1 PUSH2 0x5629 JUMP JUMPDEST PUSH1 0x40 MLOAD DUP1 PUSH1 0x40 ADD PUSH1 0x40 MSTORE DUP1 PUSH1 0x13 DUP2 MSTORE PUSH1 0x20 ADD PUSH1 0x0 DUP1 MLOAD PUSH1 0x20 PUSH2 0x580C DUP4 CODECOPY DUP2 MLOAD SWAP2 MSTORE DUP2 MSTORE POP SWAP1 PUSH2 0x315B JUMPI PUSH1 0x40 MLOAD PUSH3 0x461BCD PUSH1 0xE5 SHL DUP2 MSTORE PUSH1 0x4 ADD PUSH2 0xB91 SWAP2 SWAP1 PUSH2 0x5677 JUMP JUMPDEST POP PUSH2 0xA76 PUSH9 0x1119589D131A5B5A5D PUSH1 0xBA SHL PUSH2 0x35C5 JUMP JUMPDEST PUSH1 0x0 PUSH2 0xA76 PUSH14 0x506572666F726D616E6365466565 PUSH1 0x90 SHL PUSH2 0x3A68 JUMP JUMPDEST PUSH1 0x0 DUP1 DUP1 PUSH2 0x319C PUSH1 0x5 DUP6 PUSH2 0x45C7 JUMP JUMPDEST SWAP2 POP SWAP2 POP DUP2 PUSH1 0x40 MLOAD DUP1 PUSH1 0x40 ADD PUSH1 0x40 MSTORE DUP1 PUSH1 0x17 DUP2 MSTORE PUSH1 0x20 ADD PUSH32 0x537472617465677920646F6573206E6F74206578697374000000000000000000 DUP2 MSTORE POP SWAP1 PUSH2 0x31F5 JUMPI PUSH1 0x40 MLOAD PUSH3 0x461BCD PUSH1 0xE5 SHL DUP2 MSTORE PUSH1 0x4 ADD PUSH2 0xB91 SWAP2 SWAP1 PUSH2 0x5677 JUMP JUMPDEST POP PUSH1 0x0 DUP5 SWAP1 POP DUP1 PUSH1 0x1 PUSH1 0x1 PUSH1 0xA0 SHL SUB AND PUSH4 0x4641257D PUSH1 0x40 MLOAD DUP2 PUSH4 0xFFFFFFFF AND PUSH1 0xE0 SHL DUP2 MSTORE PUSH1 0x4 ADD PUSH1 0x20 PUSH1 0x40 MLOAD DUP1 DUP4 SUB DUP2 PUSH1 0x0 DUP8 DUP1 EXTCODESIZE ISZERO DUP1 ISZERO PUSH2 0x3236 JUMPI PUSH1 0x0 DUP1 REVERT JUMPDEST POP GAS CALL ISZERO DUP1 ISZERO PUSH2 0x324A JUMPI RETURNDATASIZE PUSH1 0x0 DUP1 RETURNDATACOPY RETURNDATASIZE PUSH1 0x0 REVERT JUMPDEST POP POP POP POP PUSH1 0x40 MLOAD RETURNDATASIZE PUSH1 0x1F NOT PUSH1 0x1F DUP3 ADD AND DUP3 ADD DUP1 PUSH1 0x40 MSTORE POP DUP2 ADD SWAP1 PUSH2 0x326E SWAP2 SWAP1 PUSH2 0x56AA JUMP JUMPDEST POP PUSH1 0x0 DUP2 PUSH1 0x1 PUSH1 0x1 PUSH1 0xA0 SHL SUB AND PUSH4 0x853828B6 PUSH1 0x40 MLOAD DUP2 PUSH4 0xFFFFFFFF AND PUSH1 0xE0 SHL DUP2 MSTORE PUSH1 0x4 ADD PUSH1 0x20 PUSH1 0x40 MLOAD DUP1 DUP4 SUB DUP2 PUSH1 0x0 DUP8 DUP1 EXTCODESIZE ISZERO DUP1 ISZERO PUSH2 0x32AC JUMPI PUSH1 0x0 DUP1 REVERT JUMPDEST POP GAS CALL ISZERO DUP1 ISZERO PUSH2 0x32C0 JUMPI RETURNDATASIZE PUSH1 0x0 DUP1 RETURNDATACOPY RETURNDATASIZE PUSH1 0x0 REVERT JUMPDEST POP POP POP POP PUSH1 0x40 MLOAD RETURNDATASIZE PUSH1 0x1F NOT PUSH1 0x1F DUP3 ADD AND DUP3 ADD DUP1 PUSH1 0x40 MSTORE POP DUP2 ADD SWAP1 PUSH2 0x32E4 SWAP2 SWAP1 PUSH2 0x56AA JUMP JUMPDEST PUSH1 0x1 SLOAD SWAP1 SWAP2 POP DUP1 DUP3 LT PUSH2 0x32FB JUMPI PUSH1 0x0 PUSH1 0x1 SSTORE PUSH2 0x3309 JUMP JUMPDEST PUSH2 0x3305 DUP3 DUP3 PUSH2 0x56D9 JUMP JUMPDEST PUSH1 0x1 SSTORE JUMPDEST DUP4 DUP3 GT ISZERO PUSH2 0x33F4 JUMPI PUSH1 0x0 PUSH2 0x331D DUP6 DUP5 PUSH2 0x56D9 JUMP JUMPDEST SWAP1 POP PUSH1 0x0 PUSH2 0x333B PUSH2 0x3336 PUSH2 0x332F PUSH2 0x1329 JUMP JUMPDEST DUP5 SWAP1 PUSH2 0x37F1 JUMP JUMPDEST PUSH2 0x45EE JUMP JUMPDEST SWAP1 POP DUP1 ISZERO PUSH2 0x33BD JUMPI PUSH2 0x33BD DUP2 DUP7 PUSH1 0x1 PUSH1 0x1 PUSH1 0xA0 SHL SUB AND PUSH4 0x1FE4A686 PUSH1 0x40 MLOAD DUP2 PUSH4 0xFFFFFFFF AND PUSH1 0xE0 SHL DUP2 MSTORE PUSH1 0x4 ADD PUSH1 0x20 PUSH1 0x40 MLOAD DUP1 DUP4 SUB DUP2 DUP7 DUP1 EXTCODESIZE ISZERO DUP1 ISZERO PUSH2 0x3380 JUMPI PUSH1 0x0 DUP1 REVERT JUMPDEST POP GAS STATICCALL ISZERO DUP1 ISZERO PUSH2 0x3394 JUMPI RETURNDATASIZE PUSH1 0x0 DUP1 RETURNDATACOPY RETURNDATASIZE PUSH1 0x0 REVERT JUMPDEST POP POP POP POP PUSH1 0x40 MLOAD RETURNDATASIZE PUSH1 0x1F NOT PUSH1 0x1F DUP3 ADD AND DUP3 ADD DUP1 PUSH1 0x40 MSTORE POP DUP2 ADD SWAP1 PUSH2 0x33B8 SWAP2 SWAP1 PUSH2 0x5708 JUMP JUMPDEST PUSH2 0x464E JUMP JUMPDEST PUSH1 0x40 MLOAD PUSH1 0x0 SWAP7 POP DUP7 SWAP1 DUP4 SWAP1 PUSH32 0x6C8433A8E155F0AF04DBA058D4E4695F7DA554578963D876BDF4A6D8D6399D9C SWAP1 DUP4 SWAP1 LOG3 POP POP PUSH2 0x3401 JUMP JUMPDEST PUSH2 0x33FE DUP3 DUP6 PUSH2 0x56D9 JUMP JUMPDEST SWAP4 POP JUMPDEST DUP3 PUSH1 0x1 PUSH1 0x1 PUSH1 0xA0 SHL SUB AND PUSH4 0xB69EF8A8 PUSH1 0x40 MLOAD DUP2 PUSH4 0xFFFFFFFF AND PUSH1 0xE0 SHL DUP2 MSTORE PUSH1 0x4 ADD PUSH1 0x20 PUSH1 0x40 MLOAD DUP1 DUP4 SUB DUP2 DUP7 DUP1 EXTCODESIZE ISZERO DUP1 ISZERO PUSH2 0x343A JUMPI PUSH1 0x0 DUP1 REVERT JUMPDEST POP GAS STATICCALL ISZERO DUP1 ISZERO PUSH2 0x344E JUMPI RETURNDATASIZE PUSH1 0x0 DUP1 RETURNDATACOPY RETURNDATASIZE PUSH1 0x0 REVERT JUMPDEST POP POP POP POP PUSH1 0x40 MLOAD RETURNDATASIZE PUSH1 0x1F NOT PUSH1 0x1F DUP3 ADD AND DUP3 ADD DUP1 PUSH1 0x40 MSTORE POP DUP2 ADD SWAP1 PUSH2 0x3472 SWAP2 SWAP1 PUSH2 0x56AA JUMP JUMPDEST PUSH2 0x3487 JUMPI PUSH2 0x3481 PUSH1 0x5 DUP5 PUSH2 0x46E6 JUMP JUMPDEST POP PUSH2 0x3495 JUMP JUMPDEST PUSH2 0x3493 PUSH1 0x5 DUP5 DUP7 PUSH2 0x450F JUMP JUMPDEST POP JUMPDEST POP SWAP6 SWAP5 POP POP POP POP POP JUMP JUMPDEST PUSH10 0x52657365727665466565 PUSH1 0xB0 SHL PUSH1 0x0 MSTORE PUSH1 0x3D PUSH1 0x20 MSTORE PUSH32 0xA61F8E25CB35BA15FC70BBD3BA789D53BF34A4DEDDB38A43A213AF3182D35AAE SLOAD SWAP1 JUMP JUMPDEST PUSH1 0x40 MLOAD PUSH4 0x21F8A721 PUSH1 0xE0 SHL DUP2 MSTORE PUSH11 0x3937B632A6B0B730B3B2B9 PUSH1 0xA9 SHL PUSH1 0x4 DUP3 ADD MSTORE PUSH1 0x0 SWAP1 PUSH1 0x1 PUSH1 0x1 PUSH1 0xA0 SHL SUB DUP4 AND SWAP1 PUSH4 0x21F8A721 SWAP1 PUSH1 0x24 ADD JUMPDEST PUSH1 0x20 PUSH1 0x40 MLOAD DUP1 DUP4 SUB DUP2 DUP7 DUP1 EXTCODESIZE ISZERO DUP1 ISZERO PUSH2 0x352B JUMPI PUSH1 0x0 DUP1 REVERT JUMPDEST POP GAS STATICCALL ISZERO DUP1 ISZERO PUSH2 0x353F JUMPI RETURNDATASIZE PUSH1 0x0 DUP1 RETURNDATACOPY RETURNDATASIZE PUSH1 0x0 REVERT JUMPDEST POP POP POP POP PUSH1 0x40 MLOAD RETURNDATASIZE PUSH1 0x1F NOT PUSH1 0x1F DUP3 ADD AND DUP3 ADD DUP1 PUSH1 0x40 MSTORE POP DUP2 ADD SWAP1 PUSH2 0x1058 SWAP2 SWAP1 PUSH2 0x5708 JUMP JUMPDEST PUSH1 0x40 MLOAD PUSH4 0x21F8A721 PUSH1 0xE0 SHL DUP2 MSTORE PUSH12 0x7661756C7452657365727665 PUSH1 0xA0 SHL PUSH1 0x4 DUP3 ADD MSTORE PUSH1 0x0 SWAP1 PUSH1 0x1 PUSH1 0x1 PUSH1 0xA0 SHL SUB DUP4 AND SWAP1 PUSH4 0x21F8A721 SWAP1 PUSH1 0x24 ADD PUSH2 0x3513 JUMP JUMPDEST PUSH32 0x0 SWAP1 JUMP JUMPDEST PUSH1 0x0 DUP2 DUP2 MSTORE PUSH1 0x3E PUSH1 0x20 SWAP1 DUP2 MSTORE PUSH1 0x40 DUP1 DUP4 KECCAK256 SLOAD DUP2 MLOAD DUP1 DUP4 ADD SWAP1 SWAP3 MSTORE PUSH1 0x12 DUP3 MSTORE PUSH18 0x646561646C696E65206D757374206265203 PUSH1 0x74 SHL SWAP3 DUP3 ADD SWAP3 SWAP1 SWAP3 MSTORE SWAP1 PUSH2 0x361E JUMPI PUSH1 0x40 MLOAD PUSH3 0x461BCD PUSH1 0xE5 SHL DUP2 MSTORE PUSH1 0x4 ADD PUSH2 0xB91 SWAP2 SWAP1 PUSH2 0x5677 JUMP JUMPDEST POP PUSH1 0x0 DUP3 DUP2 MSTORE PUSH1 0x3E PUSH1 0x20 SWAP1 DUP2 MSTORE PUSH1 0x40 DUP1 DUP4 KECCAK256 DUP4 SWAP1 SSTORE PUSH1 0x3B SWAP1 SWAP2 MSTORE DUP1 DUP3 KECCAK256 DUP3 SWAP1 SSTORE MLOAD DUP4 SWAP2 PUSH32 0x90FB84AD67DD037C388289337BB80B61B8605D38BA9A875DC38B5600909D172F SWAP2 LOG2 POP PUSH1 0x1 SWAP2 SWAP1 POP JUMP JUMPDEST PUSH8 0xDE0B6B3A7640000 PUSH2 0x367F DUP3 DUP5 PUSH2 0x56F0 JUMP JUMPDEST GT ISZERO PUSH2 0x36F3 JUMPI PUSH1 0x40 MLOAD PUSH3 0x461BCD PUSH1 0xE5 SHL DUP2 MSTORE PUSH1 0x20 PUSH1 0x4 DUP3 ADD MSTORE PUSH1 0x37 PUSH1 0x24 DUP3 ADD MSTORE PUSH32 0x73756D206F6620737472617465676973742066656520616E6420726573657276 PUSH1 0x44 DUP3 ADD MSTORE PUSH32 0x65206665652073686F756C642062652062656C6F772031000000000000000000 PUSH1 0x64 DUP3 ADD MSTORE PUSH1 0x84 ADD PUSH2 0xB91 JUMP JUMPDEST POP POP JUMP JUMPDEST PUSH1 0x0 PUSH2 0x3707 DUP4 DUP4 PUSH3 0x3F480 PUSH2 0x46FB JUMP JUMPDEST SWAP4 SWAP3 POP POP POP JUMP JUMPDEST PUSH1 0x4 SLOAD PUSH1 0x0 SWAP1 PUSH1 0xFF AND PUSH2 0x3721 JUMPI POP PUSH1 0x0 SWAP1 JUMP JUMPDEST PUSH1 0x4 DUP1 SLOAD PUSH1 0xFF NOT AND SWAP1 SSTORE PUSH2 0x3733 PUSH2 0xA7B JUMP JUMPDEST PUSH1 0x1 PUSH1 0x1 PUSH1 0xA0 SHL SUB AND PUSH32 0x274EC28D31430170AD5DD350F8E7505FFAB078C309300878C710383AE4CBED49 PUSH1 0x40 MLOAD PUSH1 0x40 MLOAD DUP1 SWAP2 SUB SWAP1 LOG2 POP PUSH1 0x1 SWAP1 JUMP JUMPDEST PUSH1 0x0 PUSH2 0x3778 PUSH2 0x24EC JUMP JUMPDEST PUSH1 0x40 MLOAD PUSH4 0x70A08231 PUSH1 0xE0 SHL DUP2 MSTORE ADDRESS PUSH1 0x4 DUP3 ADD MSTORE PUSH1 0x1 PUSH1 0x1 PUSH1 0xA0 SHL SUB SWAP2 SWAP1 SWAP2 AND SWAP1 PUSH4 0x70A08231 SWAP1 PUSH1 0x24 ADD PUSH1 0x20 PUSH1 0x40 MLOAD DUP1 DUP4 SUB DUP2 DUP7 DUP1 EXTCODESIZE ISZERO DUP1 ISZERO PUSH2 0x37B9 JUMPI PUSH1 0x0 DUP1 REVERT JUMPDEST POP GAS STATICCALL ISZERO DUP1 ISZERO PUSH2 0x37CD JUMPI RETURNDATASIZE PUSH1 0x0 DUP1 RETURNDATACOPY RETURNDATASIZE PUSH1 0x0 REVERT JUMPDEST POP POP POP POP PUSH1 0x40 MLOAD RETURNDATASIZE PUSH1 0x1F NOT PUSH1 0x1F DUP3 ADD AND DUP3 ADD DUP1 PUSH1 0x40 MSTORE POP DUP2 ADD SWAP1 PUSH2 0xA76 SWAP2 SWAP1 PUSH2 0x56AA JUMP JUMPDEST PUSH1 0x0 PUSH8 0xDE0B6B3A7640000 PUSH2 0x3806 DUP4 DUP6 PUSH2 0x5725 JUMP JUMPDEST PUSH2 0x3707 SWAP2 SWAP1 PUSH2 0x5744 JUMP JUMPDEST PUSH1 0x0 DUP2 DUP4 GT ISZERO PUSH2 0x382B JUMPI PUSH2 0x3824 DUP3 DUP5 PUSH2 0x56D9 JUMP JUMPDEST SWAP1 POP PUSH2 0x1058 JUMP JUMPDEST POP PUSH1 0x0 SWAP3 SWAP2 POP POP JUMP JUMPDEST PUSH1 0x4 SLOAD PUSH1 0x0 SWAP1 PUSH1 0xFF AND PUSH2 0x3849 JUMPI POP PUSH1 0x0 PUSH2 0x1058 JUMP JUMPDEST PUSH1 0x0 PUSH2 0x3853 PUSH2 0x20E0 JUMP JUMPDEST SWAP1 POP PUSH1 0x0 PUSH2 0x385F PUSH2 0xA7B JUMP JUMPDEST SWAP1 POP PUSH1 0x0 PUSH2 0x386B PUSH2 0x2199 JUMP JUMPDEST SWAP1 POP PUSH1 0x0 PUSH2 0x3879 DUP8 DUP6 PUSH2 0x37F1 JUMP JUMPDEST SWAP1 POP PUSH1 0x0 DUP5 ISZERO PUSH2 0x3892 JUMPI PUSH2 0x388D DUP4 DUP7 PUSH2 0x56F0 JUMP JUMPDEST PUSH2 0x3895 JUMP JUMPDEST PUSH1 0x0 JUMPDEST SWAP1 POP PUSH8 0xDE0B6B3A7640000 DUP2 GT PUSH2 0x38AC JUMPI DUP1 PUSH2 0x38B6 JUMP JUMPDEST PUSH8 0xDE0B6B3A7640000 JUMPDEST SWAP1 POP PUSH1 0x0 DUP6 DUP5 GT PUSH2 0x38D0 JUMPI PUSH2 0x38CB DUP5 DUP8 PUSH2 0x56D9 JUMP JUMPDEST PUSH2 0x38D3 JUMP JUMPDEST PUSH1 0x0 JUMPDEST SWAP1 POP PUSH2 0x38DF DUP10 DUP4 PUSH2 0x37F1 JUMP JUMPDEST DUP9 GT ISZERO PUSH2 0x3985 JUMPI PUSH1 0x0 PUSH2 0x38F2 DUP5 DUP11 PUSH2 0x56D9 JUMP JUMPDEST PUSH1 0x40 MLOAD PUSH4 0x2E1A7D4D PUSH1 0xE0 SHL DUP2 MSTORE PUSH1 0x4 DUP2 ADD DUP3 SWAP1 MSTORE SWAP1 SWAP2 POP PUSH1 0x1 PUSH1 0x1 PUSH1 0xA0 SHL SUB DUP8 AND SWAP1 PUSH4 0x2E1A7D4D SWAP1 PUSH1 0x24 ADD PUSH1 0x20 PUSH1 0x40 MLOAD DUP1 DUP4 SUB DUP2 PUSH1 0x0 DUP8 DUP1 EXTCODESIZE ISZERO DUP1 ISZERO PUSH2 0x3937 JUMPI PUSH1 0x0 DUP1 REVERT JUMPDEST POP GAS CALL ISZERO DUP1 ISZERO PUSH2 0x394B JUMPI RETURNDATASIZE PUSH1 0x0 DUP1 RETURNDATACOPY RETURNDATASIZE PUSH1 0x0 REVERT JUMPDEST POP POP POP POP PUSH1 0x40 MLOAD RETURNDATASIZE PUSH1 0x1F NOT PUSH1 0x1F DUP3 ADD AND DUP3 ADD DUP1 PUSH1 0x40 MSTORE POP DUP2 ADD SWAP1 PUSH2 0x396F SWAP2 SWAP1 PUSH2 0x5629 JUMP JUMPDEST POP PUSH2 0x397C PUSH1 0x0 SLOAD DUP3 PUSH2 0x3810 JUMP JUMPDEST PUSH1 0x0 SSTORE POP PUSH2 0x3A3C JUMP JUMPDEST PUSH2 0x398F DUP10 DUP3 PUSH2 0x37F1 JUMP JUMPDEST DUP9 LT ISZERO PUSH2 0x3A3C JUMPI PUSH1 0x0 PUSH2 0x39A2 DUP10 DUP6 PUSH2 0x56D9 JUMP JUMPDEST SWAP1 POP PUSH2 0x39AE DUP7 DUP3 PUSH2 0x3A4B JUMP JUMPDEST DUP1 PUSH1 0x0 DUP1 DUP3 DUP3 SLOAD PUSH2 0x39BF SWAP2 SWAP1 PUSH2 0x56F0 JUMP JUMPDEST SWAP3 POP POP DUP2 SWAP1 SSTORE POP DUP6 PUSH1 0x1 PUSH1 0x1 PUSH1 0xA0 SHL SUB AND PUSH4 0xD0E30DB0 PUSH1 0x40 MLOAD DUP2 PUSH4 0xFFFFFFFF AND PUSH1 0xE0 SHL DUP2 MSTORE PUSH1 0x4 ADD PUSH1 0x20 PUSH1 0x40 MLOAD DUP1 DUP4 SUB DUP2 PUSH1 0x0 DUP8 DUP1 EXTCODESIZE ISZERO DUP1 ISZERO PUSH2 0x3A01 JUMPI PUSH1 0x0 DUP1 REVERT JUMPDEST POP GAS CALL ISZERO DUP1 ISZERO PUSH2 0x3A15 JUMPI RETURNDATASIZE PUSH1 0x0 DUP1 RETURNDATACOPY RETURNDATASIZE PUSH1 0x0 REVERT JUMPDEST POP POP POP POP PUSH1 0x40 MLOAD RETURNDATASIZE PUSH1 0x1F NOT PUSH1 0x1F DUP3 ADD AND DUP3 ADD DUP1 PUSH1 0x40 MSTORE POP DUP2 ADD SWAP1 PUSH2 0x3A39 SWAP2 SWAP1 PUSH2 0x5629 JUMP JUMPDEST POP POP JUMPDEST POP PUSH1 0x1 SWAP9 SWAP8 POP POP POP POP POP POP POP POP JUMP JUMPDEST PUSH2 0x36F3 DUP3 DUP3 PUSH2 0x3A58 PUSH2 0x24EC JUMP JUMPDEST PUSH1 0x1 PUSH1 0x1 PUSH1 0xA0 SHL SUB AND SWAP2 SWAP1 PUSH2 0x4751 JUMP JUMPDEST PUSH1 0x0 PUSH2 0x3A73 DUP3 PUSH2 0x4466 JUMP JUMPDEST PUSH1 0x0 DUP3 DUP2 MSTORE PUSH1 0x3B PUSH1 0x20 MSTORE PUSH1 0x40 SWAP1 KECCAK256 SLOAD PUSH2 0x289A DUP4 DUP3 PUSH2 0x4781 JUMP JUMPDEST PUSH1 0x4 SLOAD PUSH1 0xFF AND PUSH2 0x3A98 JUMPI JUMP JUMPDEST PUSH1 0x0 PUSH2 0x3AA2 PUSH2 0xA7B JUMP JUMPDEST PUSH1 0x1 PUSH1 0x1 PUSH1 0xA0 SHL SUB AND PUSH4 0xB69EF8A8 PUSH1 0x40 MLOAD DUP2 PUSH4 0xFFFFFFFF AND PUSH1 0xE0 SHL DUP2 MSTORE PUSH1 0x4 ADD PUSH1 0x20 PUSH1 0x40 MLOAD DUP1 DUP4 SUB DUP2 DUP7 DUP1 EXTCODESIZE ISZERO DUP1 ISZERO PUSH2 0x3ADA JUMPI PUSH1 0x0 DUP1 REVERT JUMPDEST POP GAS STATICCALL ISZERO DUP1 ISZERO PUSH2 0x3AEE JUMPI RETURNDATASIZE PUSH1 0x0 DUP1 RETURNDATACOPY RETURNDATASIZE PUSH1 0x0 REVERT JUMPDEST POP POP POP POP PUSH1 0x40 MLOAD RETURNDATASIZE PUSH1 0x1F NOT PUSH1 0x1F DUP3 ADD AND DUP3 ADD DUP1 PUSH1 0x40 MSTORE POP DUP2 ADD SWAP1 PUSH2 0x3B12 SWAP2 SWAP1 PUSH2 0x56AA JUMP JUMPDEST SWAP1 POP PUSH1 0x0 PUSH1 0x1 SLOAD DUP3 PUSH2 0x3B22 PUSH2 0x376E JUMP JUMPDEST PUSH2 0x3B2C SWAP2 SWAP1 PUSH2 0x56F0 JUMP JUMPDEST PUSH2 0x3B36 SWAP2 SWAP1 PUSH2 0x56F0 JUMP JUMPDEST SWAP1 POP DUP1 PUSH2 0x3B41 JUMPI POP POP JUMP JUMPDEST PUSH2 0xE5E DUP2 DUP4 PUSH2 0x3834 JUMP JUMPDEST PUSH1 0x0 DUP1 PUSH2 0x3B56 PUSH2 0xA7B JUMP JUMPDEST SWAP1 POP PUSH1 0x1 PUSH1 0x1 PUSH1 0xA0 SHL SUB DUP2 AND PUSH2 0x3B6E JUMPI PUSH1 0x0 SWAP2 POP POP SWAP1 JUMP JUMPDEST DUP1 PUSH1 0x1 PUSH1 0x1 PUSH1 0xA0 SHL SUB AND PUSH4 0x4641257D PUSH1 0x40 MLOAD DUP2 PUSH4 0xFFFFFFFF AND PUSH1 0xE0 SHL DUP2 MSTORE PUSH1 0x4 ADD PUSH1 0x20 PUSH1 0x40 MLOAD DUP1 DUP4 SUB DUP2 PUSH1 0x0 DUP8 DUP1 EXTCODESIZE ISZERO DUP1 ISZERO PUSH2 0x3BA9 JUMPI PUSH1 0x0 DUP1 REVERT JUMPDEST POP GAS CALL ISZERO DUP1 ISZERO PUSH2 0x3BBD JUMPI RETURNDATASIZE PUSH1 0x0 DUP1 RETURNDATACOPY RETURNDATASIZE PUSH1 0x0 REVERT JUMPDEST POP POP POP POP PUSH1 0x40 MLOAD RETURNDATASIZE PUSH1 0x1F NOT PUSH1 0x1F DUP3 ADD AND DUP3 ADD DUP1 PUSH1 0x40 MSTORE POP DUP2 ADD SWAP1 PUSH2 0x3BE1 SWAP2 SWAP1 PUSH2 0x56AA JUMP JUMPDEST POP PUSH1 0x0 DUP1 DUP3 PUSH1 0x1 PUSH1 0x1 PUSH1 0xA0 SHL SUB AND PUSH4 0xB69EF8A8 PUSH1 0x40 MLOAD DUP2 PUSH4 0xFFFFFFFF AND PUSH1 0xE0 SHL DUP2 MSTORE PUSH1 0x4 ADD PUSH1 0x20 PUSH1 0x40 MLOAD DUP1 DUP4 SUB DUP2 DUP7 DUP1 EXTCODESIZE ISZERO DUP1 ISZERO PUSH2 0x3C1E JUMPI PUSH1 0x0 DUP1 REVERT JUMPDEST POP GAS STATICCALL ISZERO DUP1 ISZERO PUSH2 0x3C32 JUMPI RETURNDATASIZE PUSH1 0x0 DUP1 RETURNDATACOPY RETURNDATASIZE PUSH1 0x0 REVERT JUMPDEST POP POP POP POP PUSH1 0x40 MLOAD RETURNDATASIZE PUSH1 0x1F NOT PUSH1 0x1F DUP3 ADD AND DUP3 ADD DUP1 PUSH1 0x40 MSTORE POP DUP2 ADD SWAP1 PUSH2 0x3C56 SWAP2 SWAP1 PUSH2 0x56AA JUMP JUMPDEST PUSH1 0x0 SLOAD PUSH1 0x3 SLOAD SWAP2 SWAP3 POP SWAP1 DUP2 DUP4 GT ISZERO PUSH2 0x3CE7 JUMPI PUSH1 0x0 PUSH2 0x3C74 DUP4 DUP6 PUSH2 0x56D9 JUMP JUMPDEST SWAP1 POP DUP2 DUP2 GT ISZERO PUSH2 0x3CA7 JUMPI DUP2 ISZERO PUSH2 0x3C95 JUMPI PUSH2 0x3C8E DUP3 DUP3 PUSH2 0x56D9 JUMP JUMPDEST SWAP1 POP PUSH1 0x0 SWAP2 POP JUMPDEST PUSH2 0x3C9E DUP2 PUSH2 0x47E2 JUMP JUMPDEST SWAP6 POP SWAP1 POP PUSH2 0x3CB4 JUMP JUMPDEST PUSH2 0x3CB1 DUP2 DUP4 PUSH2 0x56D9 JUMP JUMPDEST SWAP2 POP JUMPDEST PUSH1 0x40 MLOAD PUSH1 0x0 SWAP1 DUP3 SWAP1 PUSH32 0x6C8433A8E155F0AF04DBA058D4E4695F7DA554578963D876BDF4A6D8D6399D9C SWAP1 DUP4 SWAP1 LOG3 POP PUSH2 0x3D78 JUMP JUMPDEST DUP2 DUP4 LT ISZERO PUSH2 0x3D6C JUMPI PUSH1 0x0 PUSH2 0x3CFB DUP5 DUP5 PUSH2 0x56D9 JUMP JUMPDEST SWAP1 POP PUSH2 0x3D07 DUP2 DUP4 PUSH2 0x56F0 JUMP JUMPDEST SWAP2 POP PUSH1 0x0 PUSH2 0x3D13 PUSH2 0x215F JUMP JUMPDEST SWAP1 POP PUSH1 0x0 PUSH2 0x3D21 DUP6 DUP4 PUSH2 0x37F1 JUMP JUMPDEST SWAP1 POP DUP1 DUP5 GT ISZERO PUSH2 0x3D37 JUMPI PUSH2 0x3D34 DUP5 PUSH2 0x48AD JUMP JUMPDEST SWAP4 POP JUMPDEST PUSH1 0x40 MLOAD DUP4 SWAP1 PUSH1 0x0 SWAP1 PUSH32 0x6C8433A8E155F0AF04DBA058D4E4695F7DA554578963D876BDF4A6D8D6399D9C SWAP1 DUP3 SWAP1 LOG3 POP POP POP PUSH2 0x3D78 JUMP JUMPDEST PUSH1 0x1 SWAP6 POP POP POP POP POP POP SWAP1 JUMP JUMPDEST DUP1 PUSH1 0x3 DUP2 SWAP1 SSTORE POP DUP5 PUSH1 0x1 PUSH1 0x1 PUSH1 0xA0 SHL SUB AND PUSH4 0xB69EF8A8 PUSH1 0x40 MLOAD DUP2 PUSH4 0xFFFFFFFF AND PUSH1 0xE0 SHL DUP2 MSTORE PUSH1 0x4 ADD PUSH1 0x20 PUSH1 0x40 MLOAD DUP1 DUP4 SUB DUP2 DUP7 DUP1 EXTCODESIZE ISZERO DUP1 ISZERO PUSH2 0x3DB8 JUMPI PUSH1 0x0 DUP1 REVERT JUMPDEST POP GAS STATICCALL ISZERO DUP1 ISZERO PUSH2 0x3DCC JUMPI RETURNDATASIZE PUSH1 0x0 DUP1 RETURNDATACOPY RETURNDATASIZE PUSH1 0x0 REVERT JUMPDEST POP POP POP POP PUSH1 0x40 MLOAD RETURNDATASIZE PUSH1 0x1F NOT PUSH1 0x1F DUP3 ADD AND DUP3 ADD DUP1 PUSH1 0x40 MSTORE POP DUP2 ADD SWAP1 PUSH2 0x3DF0 SWAP2 SWAP1 PUSH2 0x56AA JUMP JUMPDEST PUSH1 0x0 SSTORE DUP4 ISZERO PUSH2 0x3D6C JUMPI PUSH2 0x3D6C DUP5 PUSH2 0x4AE5 JUMP JUMPDEST PUSH1 0x40 DUP1 MLOAD DUP1 DUP3 ADD SWAP1 SWAP2 MSTORE PUSH1 0xE DUP2 MSTORE PUSH14 0x1A5B9D985B1A5908185B5BDD5B9D PUSH1 0x92 SHL PUSH1 0x20 DUP3 ADD MSTORE PUSH8 0xDE0B6B3A7640000 DUP5 GT ISZERO PUSH2 0x3E50 JUMPI PUSH1 0x40 MLOAD PUSH3 0x461BCD PUSH1 0xE5 SHL DUP2 MSTORE PUSH1 0x4 ADD PUSH2 0xB91 SWAP2 SWAP1 PUSH2 0x5677 JUMP JUMPDEST POP PUSH1 0x40 DUP1 MLOAD DUP1 DUP3 ADD SWAP1 SWAP2 MSTORE PUSH1 0xE DUP2 MSTORE PUSH14 0x1A5B9D985B1A5908185B5BDD5B9D PUSH1 0x92 SHL PUSH1 0x20 DUP3 ADD MSTORE PUSH8 0xDE0B6B3A7640000 DUP4 GT ISZERO PUSH2 0x3E9F JUMPI PUSH1 0x40 MLOAD PUSH3 0x461BCD PUSH1 0xE5 SHL DUP2 MSTORE PUSH1 0x4 ADD PUSH2 0xB91 SWAP2 SWAP1 PUSH2 0x5677 JUMP JUMPDEST POP PUSH1 0x40 DUP1 MLOAD DUP1 DUP3 ADD SWAP1 SWAP2 MSTORE PUSH1 0xE DUP2 MSTORE PUSH14 0x1A5B9D985B1A5908185B5BDD5B9D PUSH1 0x92 SHL PUSH1 0x20 DUP3 ADD MSTORE PUSH8 0x6F05B59D3B20000 DUP3 GT ISZERO PUSH2 0x3EEE JUMPI PUSH1 0x40 MLOAD PUSH3 0x461BCD PUSH1 0xE5 SHL DUP2 MSTORE PUSH1 0x4 ADD PUSH2 0xB91 SWAP2 SWAP1 PUSH2 0x5677 JUMP JUMPDEST POP PUSH1 0x2 DUP1 SLOAD PUSH1 0x1 PUSH1 0x1 PUSH1 0xA0 SHL SUB NOT AND PUSH1 0x1 PUSH1 0x1 PUSH1 0xA0 SHL SUB DUP7 AND OR SWAP1 SSTORE PUSH2 0x3F20 PUSH9 0x1119589D131A5B5A5D PUSH1 0xBA SHL DUP5 PUSH2 0x4781 JUMP JUMPDEST POP PUSH2 0x3F3E PUSH16 0x2A30B933B2BA20B63637B1B0BA34B7B7 PUSH1 0x81 SHL DUP4 PUSH2 0x4781 JUMP JUMPDEST POP PUSH2 0x3F51 PUSH5 0x109BDD5B99 PUSH1 0xDA SHL DUP3 PUSH2 0x4781 JUMP JUMPDEST POP PUSH2 0x3F70 PUSH10 0x52657365727665466565 PUSH1 0xB0 SHL PUSH7 0x2386F26FC10000 PUSH2 0x4781 JUMP JUMPDEST POP PUSH2 0x3F93 PUSH13 0x53747261746567697374466565 PUSH1 0x98 SHL PUSH8 0x16345785D8A0000 PUSH2 0x4781 JUMP JUMPDEST POP PUSH2 0x1D32 PUSH14 0x506572666F726D616E6365466565 PUSH1 0x90 SHL PUSH1 0x0 PUSH2 0x4781 JUMP JUMPDEST DUP1 ISZERO DUP1 PUSH2 0x4039 JUMPI POP PUSH1 0x40 MLOAD PUSH4 0x6EB1769F PUSH1 0xE1 SHL DUP2 MSTORE ADDRESS PUSH1 0x4 DUP3 ADD MSTORE PUSH1 0x1 PUSH1 0x1 PUSH1 0xA0 SHL SUB DUP4 DUP2 AND PUSH1 0x24 DUP4 ADD MSTORE DUP5 AND SWAP1 PUSH4 0xDD62ED3E SWAP1 PUSH1 0x44 ADD PUSH1 0x20 PUSH1 0x40 MLOAD DUP1 DUP4 SUB DUP2 DUP7 DUP1 EXTCODESIZE ISZERO DUP1 ISZERO PUSH2 0x3FFF JUMPI PUSH1 0x0 DUP1 REVERT JUMPDEST POP GAS STATICCALL ISZERO DUP1 ISZERO PUSH2 0x4013 JUMPI RETURNDATASIZE PUSH1 0x0 DUP1 RETURNDATACOPY RETURNDATASIZE PUSH1 0x0 REVERT JUMPDEST POP POP POP POP PUSH1 0x40 MLOAD RETURNDATASIZE PUSH1 0x1F NOT PUSH1 0x1F DUP3 ADD AND DUP3 ADD DUP1 PUSH1 0x40 MSTORE POP DUP2 ADD SWAP1 PUSH2 0x4037 SWAP2 SWAP1 PUSH2 0x56AA JUMP JUMPDEST ISZERO JUMPDEST PUSH2 0x40A4 JUMPI PUSH1 0x40 MLOAD PUSH3 0x461BCD PUSH1 0xE5 SHL DUP2 MSTORE PUSH1 0x20 PUSH1 0x4 DUP3 ADD MSTORE PUSH1 0x36 PUSH1 0x24 DUP3 ADD MSTORE PUSH32 0x5361666545524332303A20617070726F76652066726F6D206E6F6E2D7A65726F PUSH1 0x44 DUP3 ADD MSTORE PUSH22 0x20746F206E6F6E2D7A65726F20616C6C6F77616E6365 PUSH1 0x50 SHL PUSH1 0x64 DUP3 ADD MSTORE PUSH1 0x84 ADD PUSH2 0xB91 JUMP JUMPDEST PUSH1 0x40 MLOAD PUSH1 0x1 PUSH1 0x1 PUSH1 0xA0 SHL SUB DUP4 AND PUSH1 0x24 DUP3 ADD MSTORE PUSH1 0x44 DUP2 ADD DUP3 SWAP1 MSTORE PUSH2 0xE5E SWAP1 DUP5 SWAP1 PUSH4 0x95EA7B3 PUSH1 0xE0 SHL SWAP1 PUSH1 0x64 ADD JUMPDEST PUSH1 0x40 DUP1 MLOAD PUSH1 0x1F NOT DUP2 DUP5 SUB ADD DUP2 MSTORE SWAP2 SWAP1 MSTORE PUSH1 0x20 DUP2 ADD DUP1 MLOAD PUSH1 0x1 PUSH1 0x1 PUSH1 0xE0 SHL SUB AND PUSH1 0x1 PUSH1 0x1 PUSH1 0xE0 SHL SUB NOT SWAP1 SWAP4 AND SWAP3 SWAP1 SWAP3 OR SWAP1 SWAP2 MSTORE PUSH2 0x4B2C JUMP JUMPDEST PUSH1 0x0 DUP1 PUSH2 0x4112 PUSH2 0xA7B JUMP JUMPDEST SWAP1 POP PUSH1 0x1 PUSH1 0x1 PUSH1 0xA0 SHL SUB DUP2 AND PUSH2 0x412A JUMPI PUSH1 0x0 SWAP2 POP POP SWAP1 JUMP JUMPDEST PUSH1 0x4 DUP1 SLOAD PUSH1 0xFF NOT AND PUSH1 0x1 OR SWAP1 SSTORE PUSH1 0x40 MLOAD PUSH1 0x1 PUSH1 0x1 PUSH1 0xA0 SHL SUB DUP3 AND SWAP1 PUSH32 0x652F053FC39779B70B29678135ADE972FCB79966FC68FCB77C996B1AA4FD9AFB SWAP1 PUSH1 0x0 SWAP1 LOG2 PUSH2 0x4173 PUSH2 0x3A8C JUMP JUMPDEST PUSH1 0x1 SWAP2 POP POP SWAP1 JUMP JUMPDEST PUSH1 0x0 DUP3 DUP2 MSTORE PUSH1 0x3C PUSH1 0x20 SWAP1 DUP2 MSTORE PUSH1 0x40 DUP1 DUP4 KECCAK256 DUP1 SLOAD PUSH1 0x1 PUSH1 0x1 PUSH1 0xA0 SHL SUB NOT DUP1 DUP3 AND PUSH1 0x1 PUSH1 0x1 PUSH1 0xA0 SHL SUB DUP9 DUP2 AND SWAP2 DUP3 OR SWAP1 SWAP5 SSTORE PUSH1 0x3A DUP7 MSTORE DUP5 DUP8 KECCAK256 DUP1 SLOAD SWAP1 SWAP3 AND SWAP1 SWAP2 SSTORE PUSH1 0x3E DUP6 MSTORE DUP4 DUP7 KECCAK256 DUP7 SWAP1 SSTORE DUP4 MLOAD SWAP3 SWAP1 SWAP2 AND DUP1 DUP4 MSTORE SWAP4 DUP3 ADD MSTORE DUP6 SWAP2 PUSH32 0xC4A957706C639829AD54381B04930C464DB6C7FFDC09D2B4B1ACC9EE34FB9261 SWAP2 ADD JUMPDEST PUSH1 0x40 MLOAD DUP1 SWAP2 SUB SWAP1 LOG2 POP SWAP1 SWAP3 SWAP2 POP POP JUMP JUMPDEST PUSH1 0x0 PUSH2 0x3707 DUP4 PUSH1 0x1 PUSH1 0x1 PUSH1 0xA0 SHL SUB DUP5 AND PUSH2 0x4BFE JUMP JUMPDEST PUSH1 0x0 DUP1 PUSH2 0x4227 PUSH2 0xA7B JUMP JUMPDEST SWAP1 POP PUSH1 0x1 PUSH1 0x1 PUSH1 0xA0 SHL SUB DUP2 AND PUSH2 0x423F JUMPI PUSH1 0x0 SWAP2 POP POP SWAP1 JUMP JUMPDEST PUSH2 0x4247 PUSH2 0x3B4B JUMP JUMPDEST POP PUSH1 0x0 PUSH2 0x4252 PUSH2 0x376E JUMP JUMPDEST SWAP1 POP DUP2 PUSH1 0x1 PUSH1 0x1 PUSH1 0xA0 SHL SUB AND PUSH4 0x853828B6 PUSH1 0x40 MLOAD DUP2 PUSH4 0xFFFFFFFF AND PUSH1 0xE0 SHL DUP2 MSTORE PUSH1 0x4 ADD PUSH1 0x20 PUSH1 0x40 MLOAD DUP1 DUP4 SUB DUP2 PUSH1 0x0 DUP8 DUP1 EXTCODESIZE ISZERO DUP1 ISZERO PUSH2 0x428F JUMPI PUSH1 0x0 DUP1 REVERT JUMPDEST POP GAS CALL ISZERO DUP1 ISZERO PUSH2 0x42A3 JUMPI RETURNDATASIZE PUSH1 0x0 DUP1 RETURNDATACOPY RETURNDATASIZE PUSH1 0x0 REVERT JUMPDEST POP POP POP POP PUSH1 0x40 MLOAD RETURNDATASIZE PUSH1 0x1F NOT PUSH1 0x1F DUP3 ADD AND DUP3 ADD DUP1 PUSH1 0x40 MSTORE POP DUP2 ADD SWAP1 PUSH2 0x42C7 SWAP2 SWAP1 PUSH2 0x56AA JUMP JUMPDEST POP PUSH1 0x0 PUSH2 0x42D2 PUSH2 0x376E JUMP JUMPDEST SWAP1 POP PUSH1 0x0 PUSH2 0x42E0 DUP4 DUP4 PUSH2 0x56D9 JUMP JUMPDEST SWAP1 POP PUSH2 0x42EE PUSH1 0x0 SLOAD DUP3 PUSH2 0x3810 JUMP JUMPDEST PUSH1 0x0 SSTORE PUSH2 0x42F9 PUSH2 0x370E JUMP JUMPDEST POP PUSH1 0x1 SWAP5 POP POP POP POP POP SWAP1 JUMP JUMPDEST PUSH1 0x60 PUSH1 0x0 PUSH2 0x4312 DUP4 PUSH2 0x4C6E JUMP JUMPDEST SWAP1 POP PUSH1 0x0 DUP2 PUSH8 0xFFFFFFFFFFFFFFFF DUP2 GT ISZERO PUSH2 0x432F JUMPI PUSH2 0x432F PUSH2 0x5766 JUMP JUMPDEST PUSH1 0x40 MLOAD SWAP1 DUP1 DUP3 MSTORE DUP1 PUSH1 0x20 MUL PUSH1 0x20 ADD DUP3 ADD PUSH1 0x40 MSTORE DUP1 ISZERO PUSH2 0x4358 JUMPI DUP2 PUSH1 0x20 ADD PUSH1 0x20 DUP3 MUL DUP1 CALLDATASIZE DUP4 CALLDATACOPY ADD SWAP1 POP JUMPDEST POP SWAP1 POP PUSH1 0x0 JUMPDEST DUP3 DUP2 LT ISZERO PUSH2 0x43AC JUMPI PUSH2 0x4370 DUP6 DUP3 PUSH2 0x4C79 JUMP JUMPDEST DUP3 DUP3 DUP2 MLOAD DUP2 LT PUSH2 0x4382 JUMPI PUSH2 0x4382 PUSH2 0x577C JUMP JUMPDEST PUSH1 0x1 PUSH1 0x1 PUSH1 0xA0 SHL SUB SWAP1 SWAP3 AND PUSH1 0x20 SWAP3 DUP4 MUL SWAP2 SWAP1 SWAP2 ADD SWAP1 SWAP2 ADD MSTORE DUP1 PUSH2 0x43A4 DUP2 PUSH2 0x5792 JUMP JUMPDEST SWAP2 POP POP PUSH2 0x435E JUMP JUMPDEST POP SWAP4 SWAP3 POP POP POP JUMP JUMPDEST PUSH1 0x0 DUP2 DUP2 MSTORE PUSH1 0x3E PUSH1 0x20 SWAP1 DUP2 MSTORE PUSH1 0x40 DUP1 DUP4 KECCAK256 SLOAD DUP2 MLOAD DUP1 DUP4 ADD SWAP1 SWAP3 MSTORE PUSH1 0x12 DUP3 MSTORE PUSH18 0x646561646C696E65206D757374206265203 PUSH1 0x74 SHL SWAP3 DUP3 ADD SWAP3 SWAP1 SWAP3 MSTORE SWAP1 PUSH2 0x440D JUMPI PUSH1 0x40 MLOAD PUSH3 0x461BCD PUSH1 0xE5 SHL DUP2 MSTORE PUSH1 0x4 ADD PUSH2 0xB91 SWAP2 SWAP1 PUSH2 0x5677 JUMP JUMPDEST POP PUSH1 0x0 DUP3 DUP2 MSTORE PUSH1 0x3E PUSH1 0x20 SWAP1 DUP2 MSTORE PUSH1 0x40 DUP1 DUP4 KECCAK256 DUP4 SWAP1 SSTORE PUSH1 0x3A SWAP1 SWAP2 MSTORE DUP1 DUP3 KECCAK256 DUP1 SLOAD PUSH1 0x1 PUSH1 0x1 PUSH1 0xA0 SHL SUB NOT AND SWAP1 SSTORE MLOAD DUP4 SWAP2 PUSH32 0x90FB84AD67DD037C388289337BB80B61B8605D38BA9A875DC38B5600909D172F SWAP2 LOG2 POP PUSH1 0x1 SWAP2 SWAP1 POP JUMP JUMPDEST PUSH1 0x0 PUSH1 0x3E PUSH1 0x0 DUP4 DUP2 MSTORE PUSH1 0x20 ADD SWAP1 DUP2 MSTORE PUSH1 0x20 ADD PUSH1 0x0 KECCAK256 SLOAD SWAP1 POP DUP1 TIMESTAMP LT ISZERO PUSH1 0x40 MLOAD DUP1 PUSH1 0x60 ADD PUSH1 0x40 MSTORE DUP1 PUSH1 0x21 DUP2 MSTORE PUSH1 0x20 ADD PUSH2 0x582C PUSH1 0x21 SWAP2 CODECOPY SWAP1 PUSH2 0x44B9 JUMPI PUSH1 0x40 MLOAD PUSH3 0x461BCD PUSH1 0xE5 SHL DUP2 MSTORE PUSH1 0x4 ADD PUSH2 0xB91 SWAP2 SWAP1 PUSH2 0x5677 JUMP JUMPDEST POP PUSH1 0x40 DUP1 MLOAD DUP1 DUP3 ADD SWAP1 SWAP2 MSTORE PUSH1 0xD DUP2 MSTORE PUSH13 0x646561646C696E65206973203 PUSH1 0x9C SHL PUSH1 0x20 DUP3 ADD MSTORE DUP2 PUSH2 0x44FC JUMPI PUSH1 0x40 MLOAD PUSH3 0x461BCD PUSH1 0xE5 SHL DUP2 MSTORE PUSH1 0x4 ADD PUSH2 0xB91 SWAP2 SWAP1 PUSH2 0x5677 JUMP JUMPDEST POP POP PUSH1 0x0 SWAP1 DUP2 MSTORE PUSH1 0x3E PUSH1 0x20 MSTORE PUSH1 0x40 DUP2 KECCAK256 SSTORE JUMP JUMPDEST PUSH1 0x0 PUSH2 0x4525 DUP5 PUSH1 0x1 PUSH1 0x1 PUSH1 0xA0 SHL SUB DUP6 AND DUP5 PUSH2 0x4C8F JUMP JUMPDEST SWAP5 SWAP4 POP POP POP POP JUMP JUMPDEST PUSH1 0x0 PUSH2 0x4539 DUP5 DUP4 PUSH2 0x4CAC JUMP JUMPDEST PUSH1 0x0 DUP5 DUP2 MSTORE PUSH1 0x3A PUSH1 0x20 SWAP1 DUP2 MSTORE PUSH1 0x40 SWAP2 DUP3 SWAP1 KECCAK256 DUP1 SLOAD PUSH1 0x1 PUSH1 0x1 PUSH1 0xA0 SHL SUB NOT AND PUSH1 0x1 PUSH1 0x1 PUSH1 0xA0 SHL SUB DUP8 AND SWAP1 DUP2 OR SWAP1 SWAP2 SSTORE DUP3 MLOAD SWAP1 DUP2 MSTORE SWAP1 DUP2 ADD DUP5 SWAP1 MSTORE DUP6 SWAP2 PUSH32 0xD46E58EE9DC1AE703349F8C09C19F23213A531B4D57F00CFD4A5A6CB6519668D SWAP2 ADD JUMPDEST PUSH1 0x40 MLOAD DUP1 SWAP2 SUB SWAP1 LOG2 POP PUSH1 0x1 SWAP4 SWAP3 POP POP POP JUMP JUMPDEST PUSH1 0x3 SLOAD PUSH1 0x0 PUSH2 0x45B8 DUP3 PUSH2 0x48AD JUMP JUMPDEST SWAP1 POP DUP1 DUP3 EQ PUSH2 0x36F3 JUMPI PUSH1 0x3 SSTORE POP JUMP JUMPDEST PUSH1 0x0 DUP1 DUP1 DUP1 PUSH2 0x45DF DUP7 PUSH1 0x1 PUSH1 0x1 PUSH1 0xA0 SHL SUB DUP8 AND PUSH2 0x4D86 JUMP JUMPDEST SWAP1 SWAP5 POP SWAP3 POP POP POP JUMPDEST SWAP3 POP SWAP3 SWAP1 POP JUMP JUMPDEST PUSH1 0x0 DUP1 PUSH2 0x45FC PUSH2 0x332F PUSH2 0x2121 JUMP JUMPDEST SWAP1 POP PUSH1 0x0 PUSH2 0x4612 PUSH2 0x460B PUSH2 0x349F JUMP JUMPDEST DUP6 SWAP1 PUSH2 0x37F1 JUMP JUMPDEST SWAP1 POP PUSH1 0x0 DUP2 PUSH2 0x4621 DUP5 DUP8 PUSH2 0x56D9 JUMP JUMPDEST PUSH2 0x462B SWAP2 SWAP1 PUSH2 0x56D9 JUMP JUMPDEST SWAP1 POP PUSH2 0x4636 DUP3 PUSH2 0x4DC0 JUMP JUMPDEST DUP1 ISZERO PUSH2 0x4645 JUMPI PUSH2 0x4645 DUP2 PUSH2 0x4E77 JUMP JUMPDEST POP SWAP1 SWAP4 SWAP3 POP POP POP JUMP JUMPDEST PUSH1 0x1 PUSH1 0x1 PUSH1 0xA0 SHL SUB DUP2 AND PUSH2 0x4660 JUMPI POP POP JUMP JUMPDEST PUSH1 0x2 SLOAD PUSH1 0x40 MLOAD PUSH4 0x17A790F1 PUSH1 0xE1 SHL DUP2 MSTORE PUSH1 0x1 PUSH1 0x1 PUSH1 0xA0 SHL SUB DUP4 DUP2 AND PUSH1 0x4 DUP4 ADD MSTORE PUSH1 0x24 DUP3 ADD DUP6 SWAP1 MSTORE SWAP1 SWAP2 AND SWAP1 PUSH4 0x2F4F21E2 SWAP1 PUSH1 0x44 ADD PUSH1 0x20 PUSH1 0x40 MLOAD DUP1 DUP4 SUB DUP2 PUSH1 0x0 DUP8 DUP1 EXTCODESIZE ISZERO DUP1 ISZERO PUSH2 0x46AE JUMPI PUSH1 0x0 DUP1 REVERT JUMPDEST POP GAS CALL ISZERO DUP1 ISZERO PUSH2 0x46C2 JUMPI RETURNDATASIZE PUSH1 0x0 DUP1 RETURNDATACOPY RETURNDATASIZE PUSH1 0x0 REVERT JUMPDEST POP POP POP POP PUSH1 0x40 MLOAD RETURNDATASIZE PUSH1 0x1F NOT PUSH1 0x1F DUP3 ADD AND DUP3 ADD DUP1 PUSH1 0x40 MSTORE POP DUP2 ADD SWAP1 PUSH2 0xE5E SWAP2 SWAP1 PUSH2 0x56AA JUMP JUMPDEST PUSH1 0x0 PUSH2 0x3707 DUP4 PUSH1 0x1 PUSH1 0x1 PUSH1 0xA0 SHL SUB DUP5 AND PUSH2 0x4EB5 JUMP JUMPDEST PUSH1 0x0 PUSH2 0x4707 DUP5 DUP4 PUSH2 0x4CAC JUMP JUMPDEST PUSH1 0x0 DUP5 DUP2 MSTORE PUSH1 0x3B PUSH1 0x20 SWAP1 DUP2 MSTORE PUSH1 0x40 SWAP2 DUP3 SWAP1 KECCAK256 DUP6 SWAP1 SSTORE DUP2 MLOAD DUP6 DUP2 MSTORE SWAP1 DUP2 ADD DUP5 SWAP1 MSTORE DUP6 SWAP2 PUSH32 0xE6790002E78FB96FF1FDFE3A3BB2A86489D3F3923372C1FE5B6B1FED071EED4 SWAP2 ADD PUSH2 0x4598 JUMP JUMPDEST PUSH1 0x40 MLOAD PUSH1 0x1 PUSH1 0x1 PUSH1 0xA0 SHL SUB DUP4 AND PUSH1 0x24 DUP3 ADD MSTORE PUSH1 0x44 DUP2 ADD DUP3 SWAP1 MSTORE PUSH2 0xE5E SWAP1 DUP5 SWAP1 PUSH4 0xA9059CBB PUSH1 0xE0 SHL SWAP1 PUSH1 0x64 ADD PUSH2 0x40D0 JUMP JUMPDEST PUSH1 0x0 DUP3 DUP2 MSTORE PUSH1 0x3D PUSH1 0x20 SWAP1 DUP2 MSTORE PUSH1 0x40 DUP1 DUP4 KECCAK256 DUP1 SLOAD SWAP1 DUP6 SWAP1 SSTORE PUSH1 0x3B DUP4 MSTORE DUP2 DUP5 KECCAK256 DUP5 SWAP1 SSTORE PUSH1 0x3E DUP4 MSTORE DUP2 DUP5 KECCAK256 DUP5 SWAP1 SSTORE DUP2 MLOAD DUP2 DUP2 MSTORE SWAP3 DUP4 ADD DUP6 SWAP1 MSTORE SWAP2 DUP6 SWAP2 PUSH32 0xCC0BAFE2ACCB565EA70674BF4B2555E49A47D410FB9932DFAB3E5F41855D0A2F SWAP2 ADD PUSH2 0x41F7 JUMP JUMPDEST PUSH1 0x0 DUP1 PUSH1 0x0 PUSH2 0x47F2 PUSH2 0x460B PUSH2 0x1329 JUMP JUMPDEST SWAP1 POP DUP1 PUSH2 0x47FD PUSH2 0x376E JUMP JUMPDEST LT ISZERO PUSH2 0x488C JUMPI PUSH2 0x480B PUSH2 0xA7B JUMP JUMPDEST PUSH1 0x1 PUSH1 0x1 PUSH1 0xA0 SHL SUB AND PUSH4 0x2E1A7D4D DUP3 PUSH1 0x40 MLOAD DUP3 PUSH4 0xFFFFFFFF AND PUSH1 0xE0 SHL DUP2 MSTORE PUSH1 0x4 ADD PUSH2 0x4838 SWAP2 DUP2 MSTORE PUSH1 0x20 ADD SWAP1 JUMP JUMPDEST PUSH1 0x20 PUSH1 0x40 MLOAD DUP1 DUP4 SUB DUP2 PUSH1 0x0 DUP8 DUP1 EXTCODESIZE ISZERO DUP1 ISZERO PUSH2 0x4852 JUMPI PUSH1 0x0 DUP1 REVERT JUMPDEST POP GAS CALL ISZERO DUP1 ISZERO PUSH2 0x4866 JUMPI RETURNDATASIZE PUSH1 0x0 DUP1 RETURNDATACOPY RETURNDATASIZE PUSH1 0x0 REVERT JUMPDEST POP POP POP POP PUSH1 0x40 MLOAD RETURNDATASIZE PUSH1 0x1F NOT PUSH1 0x1F DUP3 ADD AND DUP3 ADD DUP1 PUSH1 0x40 MSTORE POP DUP2 ADD SWAP1 PUSH2 0x488A SWAP2 SWAP1 PUSH2 0x5629 JUMP JUMPDEST POP JUMPDEST PUSH1 0x0 PUSH2 0x4897 DUP3 PUSH2 0x45EE JUMP JUMPDEST SWAP1 POP PUSH2 0x48A3 DUP3 DUP7 PUSH2 0x56D9 JUMP JUMPDEST SWAP6 SWAP1 SWAP5 POP SWAP3 POP POP POP JUMP JUMPDEST PUSH1 0x0 DUP1 PUSH32 0x0 PUSH1 0x1 PUSH1 0x1 PUSH1 0xA0 SHL SUB AND PUSH4 0xD4FAC45D ADDRESS PUSH2 0x48E8 PUSH2 0x24EC JUMP JUMPDEST PUSH1 0x40 MLOAD PUSH1 0x1 PUSH1 0x1 PUSH1 0xE0 SHL SUB NOT PUSH1 0xE0 DUP6 SWAP1 SHL AND DUP2 MSTORE PUSH1 0x1 PUSH1 0x1 PUSH1 0xA0 SHL SUB SWAP3 DUP4 AND PUSH1 0x4 DUP3 ADD MSTORE SWAP2 AND PUSH1 0x24 DUP3 ADD MSTORE PUSH1 0x44 ADD PUSH1 0x20 PUSH1 0x40 MLOAD DUP1 DUP4 SUB DUP2 DUP7 DUP1 EXTCODESIZE ISZERO DUP1 ISZERO PUSH2 0x492E JUMPI PUSH1 0x0 DUP1 REVERT JUMPDEST POP GAS STATICCALL ISZERO DUP1 ISZERO PUSH2 0x4942 JUMPI RETURNDATASIZE PUSH1 0x0 DUP1 RETURNDATACOPY RETURNDATASIZE PUSH1 0x0 REVERT JUMPDEST POP POP POP POP PUSH1 0x40 MLOAD RETURNDATASIZE PUSH1 0x1F NOT PUSH1 0x1F DUP3 ADD AND DUP3 ADD DUP1 PUSH1 0x40 MSTORE POP DUP2 ADD SWAP1 PUSH2 0x4966 SWAP2 SWAP1 PUSH2 0x56AA JUMP JUMPDEST SWAP1 POP DUP1 DUP4 GT ISZERO PUSH2 0x497E JUMPI PUSH2 0x4979 DUP2 PUSH2 0x4ED2 JUMP JUMPDEST PUSH2 0x4ADE JUMP JUMPDEST PUSH1 0x40 MLOAD PUSH4 0x19262D3 PUSH1 0xE4 SHL DUP2 MSTORE ADDRESS PUSH1 0x4 DUP3 ADD MSTORE PUSH32 0x0 PUSH1 0x1 PUSH1 0x1 PUSH1 0xA0 SHL SUB AND SWAP1 PUSH4 0x19262D30 SWAP1 PUSH1 0x24 ADD PUSH1 0x20 PUSH1 0x40 MLOAD DUP1 DUP4 SUB DUP2 DUP7 DUP1 EXTCODESIZE ISZERO DUP1 ISZERO PUSH2 0x49DD JUMPI PUSH1 0x0 DUP1 REVERT JUMPDEST POP GAS STATICCALL ISZERO DUP1 ISZERO PUSH2 0x49F1 JUMPI RETURNDATASIZE PUSH1 0x0 DUP1 RETURNDATACOPY RETURNDATASIZE PUSH1 0x0 REVERT JUMPDEST POP POP POP POP PUSH1 0x40 MLOAD RETURNDATASIZE PUSH1 0x1F NOT PUSH1 0x1F DUP3 ADD AND DUP3 ADD DUP1 PUSH1 0x40 MSTORE POP DUP2 ADD SWAP1 PUSH2 0x4A15 SWAP2 SWAP1 PUSH2 0x5629 JUMP JUMPDEST ISZERO PUSH2 0x4ADE JUMPI PUSH32 0x0 PUSH1 0x1 PUSH1 0x1 PUSH1 0xA0 SHL SUB AND PUSH4 0xF3FEF3A3 PUSH2 0x4A51 PUSH2 0x24EC JUMP JUMPDEST PUSH1 0x40 MLOAD PUSH1 0x1 PUSH1 0x1 PUSH1 0xE0 SHL SUB NOT PUSH1 0xE0 DUP5 SWAP1 SHL AND DUP2 MSTORE PUSH1 0x1 PUSH1 0x1 PUSH1 0xA0 SHL SUB SWAP1 SWAP2 AND PUSH1 0x4 DUP3 ADD MSTORE PUSH1 0x24 DUP2 ADD DUP7 SWAP1 MSTORE PUSH1 0x44 ADD PUSH1 0x20 PUSH1 0x40 MLOAD DUP1 DUP4 SUB DUP2 PUSH1 0x0 DUP8 DUP1 EXTCODESIZE ISZERO DUP1 ISZERO PUSH2 0x4A99 JUMPI PUSH1 0x0 DUP1 REVERT JUMPDEST POP GAS CALL ISZERO DUP1 ISZERO PUSH2 0x4AAD JUMPI RETURNDATASIZE PUSH1 0x0 DUP1 RETURNDATACOPY RETURNDATASIZE PUSH1 0x0 REVERT JUMPDEST POP POP POP POP PUSH1 0x40 MLOAD RETURNDATASIZE PUSH1 0x1F NOT PUSH1 0x1F DUP3 ADD AND DUP3 ADD DUP1 PUSH1 0x40 MSTORE POP DUP2 ADD SWAP1 PUSH2 0x4AD1 SWAP2 SWAP1 PUSH2 0x5629 JUMP JUMPDEST POP PUSH1 0x0 SWAP3 POP PUSH2 0x4ADE PUSH2 0x3A8C JUMP JUMPDEST POP SWAP1 SWAP2 SWAP1 POP JUMP JUMPDEST PUSH2 0x4B29 DUP2 PUSH2 0x4AF1 PUSH2 0xA7B JUMP JUMPDEST PUSH1 0x1 PUSH1 0x1 PUSH1 0xA0 SHL SUB AND PUSH4 0x1FE4A686 PUSH1 0x40 MLOAD DUP2 PUSH4 0xFFFFFFFF AND PUSH1 0xE0 SHL DUP2 MSTORE PUSH1 0x4 ADD PUSH1 0x20 PUSH1 0x40 MLOAD DUP1 DUP4 SUB DUP2 DUP7 DUP1 EXTCODESIZE ISZERO DUP1 ISZERO PUSH2 0x3380 JUMPI PUSH1 0x0 DUP1 REVERT JUMPDEST POP JUMP JUMPDEST PUSH1 0x0 PUSH2 0x4B81 DUP3 PUSH1 0x40 MLOAD DUP1 PUSH1 0x40 ADD PUSH1 0x40 MSTORE DUP1 PUSH1 0x20 DUP2 MSTORE PUSH1 0x20 ADD PUSH32 0x5361666545524332303A206C6F772D6C6576656C2063616C6C206661696C6564 DUP2 MSTORE POP DUP6 PUSH1 0x1 PUSH1 0x1 PUSH1 0xA0 SHL SUB AND PUSH2 0x518E SWAP1 SWAP3 SWAP2 SWAP1 PUSH4 0xFFFFFFFF AND JUMP JUMPDEST DUP1 MLOAD SWAP1 SWAP2 POP ISZERO PUSH2 0xE5E JUMPI DUP1 DUP1 PUSH1 0x20 ADD SWAP1 MLOAD DUP2 ADD SWAP1 PUSH2 0x4B9F SWAP2 SWAP1 PUSH2 0x5629 JUMP JUMPDEST PUSH2 0xE5E JUMPI PUSH1 0x40 MLOAD PUSH3 0x461BCD PUSH1 0xE5 SHL DUP2 MSTORE PUSH1 0x20 PUSH1 0x4 DUP3 ADD MSTORE PUSH1 0x2A PUSH1 0x24 DUP3 ADD MSTORE PUSH32 0x5361666545524332303A204552433230206F7065726174696F6E20646964206E PUSH1 0x44 DUP3 ADD MSTORE PUSH10 0x1BDD081CDD58D8D95959 PUSH1 0xB2 SHL PUSH1 0x64 DUP3 ADD MSTORE PUSH1 0x84 ADD PUSH2 0xB91 JUMP JUMPDEST PUSH1 0x0 DUP2 DUP2 MSTORE PUSH1 0x2 DUP4 ADD PUSH1 0x20 MSTORE PUSH1 0x40 DUP2 KECCAK256 SLOAD DUP1 ISZERO ISZERO DUP1 PUSH2 0x4C22 JUMPI POP PUSH2 0x4C22 DUP5 DUP5 PUSH2 0x519D JUMP JUMPDEST PUSH2 0x3707 JUMPI PUSH1 0x40 MLOAD PUSH3 0x461BCD PUSH1 0xE5 SHL DUP2 MSTORE PUSH1 0x20 PUSH1 0x4 DUP3 ADD MSTORE PUSH1 0x1E PUSH1 0x24 DUP3 ADD MSTORE PUSH32 0x456E756D657261626C654D61703A206E6F6E6578697374656E74206B65790000 PUSH1 0x44 DUP3 ADD MSTORE PUSH1 0x64 ADD PUSH2 0xB91 JUMP JUMPDEST PUSH1 0x0 PUSH2 0x1058 DUP3 PUSH2 0x51A9 JUMP JUMPDEST PUSH1 0x0 DUP1 PUSH2 0x4C86 DUP5 DUP5 PUSH2 0x51B4 JUMP JUMPDEST POP SWAP5 SWAP4 POP POP POP POP JUMP JUMPDEST PUSH1 0x0 DUP3 DUP2 MSTORE PUSH1 0x2 DUP5 ADD PUSH1 0x20 MSTORE PUSH1 0x40 DUP2 KECCAK256 DUP3 SWAP1 SSTORE PUSH2 0x4525 DUP5 DUP5 PUSH2 0x51C3 JUMP JUMPDEST PUSH1 0x3E PUSH1 0x0 DUP4 DUP2 MSTORE PUSH1 0x20 ADD SWAP1 DUP2 MSTORE PUSH1 0x20 ADD PUSH1 0x0 KECCAK256 SLOAD PUSH1 0x0 EQ PUSH1 0x40 MLOAD DUP1 PUSH1 0x40 ADD PUSH1 0x40 MSTORE DUP1 PUSH1 0x12 DUP2 MSTORE PUSH1 0x20 ADD PUSH18 0x646561646C696E65206D757374206265203 PUSH1 0x74 SHL DUP2 MSTORE POP SWAP1 PUSH2 0x4D0C JUMPI PUSH1 0x40 MLOAD PUSH3 0x461BCD PUSH1 0xE5 SHL DUP2 MSTORE PUSH1 0x4 ADD PUSH2 0xB91 SWAP2 SWAP1 PUSH2 0x5677 JUMP JUMPDEST POP PUSH1 0x40 DUP1 MLOAD DUP1 DUP3 ADD SWAP1 SWAP2 MSTORE PUSH1 0x18 DUP2 MSTORE PUSH32 0x64656C6179206265206174206C65617374203320646179730000000000000000 PUSH1 0x20 DUP3 ADD MSTORE PUSH3 0x3F480 DUP3 LT ISZERO PUSH2 0x4D65 JUMPI PUSH1 0x40 MLOAD PUSH3 0x461BCD PUSH1 0xE5 SHL DUP2 MSTORE PUSH1 0x4 ADD PUSH2 0xB91 SWAP2 SWAP1 PUSH2 0x5677 JUMP JUMPDEST POP PUSH2 0x4D70 DUP2 TIMESTAMP PUSH2 0x56F0 JUMP JUMPDEST PUSH1 0x0 SWAP3 DUP4 MSTORE PUSH1 0x3E PUSH1 0x20 MSTORE PUSH1 0x40 SWAP1 SWAP3 KECCAK256 SWAP2 SWAP1 SWAP2 SSTORE POP JUMP JUMPDEST PUSH1 0x0 DUP2 DUP2 MSTORE PUSH1 0x2 DUP4 ADD PUSH1 0x20 MSTORE PUSH1 0x40 DUP2 KECCAK256 SLOAD DUP2 SWAP1 DUP1 PUSH2 0x4DB5 JUMPI PUSH2 0x4DA8 DUP6 DUP6 PUSH2 0x519D JUMP JUMPDEST SWAP3 POP PUSH1 0x0 SWAP2 POP PUSH2 0x45E7 SWAP1 POP JUMP JUMPDEST PUSH1 0x1 SWAP3 POP SWAP1 POP PUSH2 0x45E7 JUMP JUMPDEST PUSH32 0x0 PUSH1 0x1 PUSH1 0x1 PUSH1 0xA0 SHL SUB AND PUSH4 0x47E7EF24 PUSH2 0x4DF7 PUSH2 0x24EC JUMP JUMPDEST PUSH1 0x40 MLOAD PUSH1 0x1 PUSH1 0x1 PUSH1 0xE0 SHL SUB NOT PUSH1 0xE0 DUP5 SWAP1 SHL AND DUP2 MSTORE PUSH1 0x1 PUSH1 0x1 PUSH1 0xA0 SHL SUB SWAP1 SWAP2 AND PUSH1 0x4 DUP3 ADD MSTORE PUSH1 0x24 DUP2 ADD DUP5 SWAP1 MSTORE PUSH1 0x44 ADD PUSH1 0x20 PUSH1 0x40 MLOAD DUP1 DUP4 SUB DUP2 PUSH1 0x0 DUP8 DUP1 EXTCODESIZE ISZERO DUP1 ISZERO PUSH2 0x4E3F JUMPI PUSH1 0x0 DUP1 REVERT JUMPDEST POP GAS CALL ISZERO DUP1 ISZERO PUSH2 0x4E53 JUMPI RETURNDATASIZE PUSH1 0x0 DUP1 RETURNDATACOPY RETURNDATASIZE PUSH1 0x0 REVERT JUMPDEST POP POP POP POP PUSH1 0x40 MLOAD RETURNDATASIZE PUSH1 0x1F NOT PUSH1 0x1F DUP3 ADD AND DUP3 ADD DUP1 PUSH1 0x40 MSTORE POP DUP2 ADD SWAP1 PUSH2 0x36F3 SWAP2 SWAP1 PUSH2 0x5629 JUMP JUMPDEST PUSH2 0x4B29 PUSH2 0x4EAC PUSH32 0x0 PUSH1 0x1 PUSH1 0x1 PUSH1 0xA0 SHL SUB AND PUSH2 0x51CF JUMP JUMPDEST DUP3 PUSH2 0x3A58 PUSH2 0x24EC JUMP JUMPDEST PUSH1 0x0 DUP2 DUP2 MSTORE PUSH1 0x2 DUP4 ADD PUSH1 0x20 MSTORE PUSH1 0x40 DUP2 KECCAK256 DUP2 SWAP1 SSTORE PUSH2 0x3707 DUP4 DUP4 PUSH2 0x5209 JUMP JUMPDEST PUSH1 0x0 PUSH2 0x4EDC PUSH2 0xA7B JUMP JUMPDEST PUSH1 0x1 PUSH1 0x1 PUSH1 0xA0 SHL SUB AND PUSH4 0x853828B6 PUSH1 0x40 MLOAD DUP2 PUSH4 0xFFFFFFFF AND PUSH1 0xE0 SHL DUP2 MSTORE PUSH1 0x4 ADD PUSH1 0x20 PUSH1 0x40 MLOAD DUP1 DUP4 SUB DUP2 PUSH1 0x0 DUP8 DUP1 EXTCODESIZE ISZERO DUP1 ISZERO PUSH2 0x4F16 JUMPI PUSH1 0x0 DUP1 REVERT JUMPDEST POP GAS CALL ISZERO DUP1 ISZERO PUSH2 0x4F2A JUMPI RETURNDATASIZE PUSH1 0x0 DUP1 RETURNDATACOPY RETURNDATASIZE PUSH1 0x0 REVERT JUMPDEST POP POP POP POP PUSH1 0x40 MLOAD RETURNDATASIZE PUSH1 0x1F NOT PUSH1 0x1F DUP3 ADD AND DUP3 ADD DUP1 PUSH1 0x40 MSTORE POP DUP2 ADD SWAP1 PUSH2 0x4F4E SWAP2 SWAP1 PUSH2 0x56AA JUMP JUMPDEST SWAP1 POP PUSH1 0x0 PUSH2 0x4F5E PUSH1 0x0 SLOAD DUP4 PUSH2 0x3810 JUMP JUMPDEST PUSH1 0x40 MLOAD PUSH4 0x19262D3 PUSH1 0xE4 SHL DUP2 MSTORE ADDRESS PUSH1 0x4 DUP3 ADD MSTORE SWAP1 SWAP2 POP PUSH32 0x0 PUSH1 0x1 PUSH1 0x1 PUSH1 0xA0 SHL SUB AND SWAP1 PUSH4 0x19262D30 SWAP1 PUSH1 0x24 ADD PUSH1 0x20 PUSH1 0x40 MLOAD DUP1 DUP4 SUB DUP2 DUP7 DUP1 EXTCODESIZE ISZERO DUP1 ISZERO PUSH2 0x4FC0 JUMPI PUSH1 0x0 DUP1 REVERT JUMPDEST POP GAS STATICCALL ISZERO DUP1 ISZERO PUSH2 0x4FD4 JUMPI RETURNDATASIZE PUSH1 0x0 DUP1 RETURNDATACOPY RETURNDATASIZE PUSH1 0x0 REVERT JUMPDEST POP POP POP POP PUSH1 0x40 MLOAD RETURNDATASIZE PUSH1 0x1F NOT PUSH1 0x1F DUP3 ADD AND DUP3 ADD DUP1 PUSH1 0x40 MSTORE POP DUP2 ADD SWAP1 PUSH2 0x4FF8 SWAP2 SWAP1 PUSH2 0x5629 JUMP JUMPDEST ISZERO PUSH2 0x5180 JUMPI DUP1 DUP4 LT PUSH2 0x50C1 JUMPI PUSH32 0x0 PUSH1 0x1 PUSH1 0x1 PUSH1 0xA0 SHL SUB AND PUSH4 0xF3FEF3A3 PUSH2 0x503B PUSH2 0x24EC JUMP JUMPDEST PUSH1 0x40 MLOAD PUSH1 0x1 PUSH1 0x1 PUSH1 0xE0 SHL SUB NOT PUSH1 0xE0 DUP5 SWAP1 SHL AND DUP2 MSTORE PUSH1 0x1 PUSH1 0x1 PUSH1 0xA0 SHL SUB SWAP1 SWAP2 AND PUSH1 0x4 DUP3 ADD MSTORE PUSH1 0x24 DUP2 ADD DUP5 SWAP1 MSTORE PUSH1 0x44 ADD PUSH1 0x20 PUSH1 0x40 MLOAD DUP1 DUP4 SUB DUP2 PUSH1 0x0 DUP8 DUP1 EXTCODESIZE ISZERO DUP1 ISZERO PUSH2 0x5083 JUMPI PUSH1 0x0 DUP1 REVERT JUMPDEST POP GAS CALL ISZERO DUP1 ISZERO PUSH2 0x5097 JUMPI RETURNDATASIZE PUSH1 0x0 DUP1 RETURNDATACOPY RETURNDATASIZE PUSH1 0x0 REVERT JUMPDEST POP POP POP POP PUSH1 0x40 MLOAD RETURNDATASIZE PUSH1 0x1F NOT PUSH1 0x1F DUP3 ADD AND DUP3 ADD DUP1 PUSH1 0x40 MSTORE POP DUP2 ADD SWAP1 PUSH2 0x50BB SWAP2 SWAP1 PUSH2 0x5629 JUMP JUMPDEST POP PUSH2 0x5180 JUMP JUMPDEST DUP3 ISZERO PUSH2 0x5180 JUMPI PUSH32 0x0 PUSH1 0x1 PUSH1 0x1 PUSH1 0xA0 SHL SUB AND PUSH4 0xF3FEF3A3 PUSH2 0x50FE PUSH2 0x24EC JUMP JUMPDEST PUSH1 0x40 MLOAD PUSH1 0x1 PUSH1 0x1 PUSH1 0xE0 SHL SUB NOT PUSH1 0xE0 DUP5 SWAP1 SHL AND DUP2 MSTORE PUSH1 0x1 PUSH1 0x1 PUSH1 0xA0 SHL SUB SWAP1 SWAP2 AND PUSH1 0x4 DUP3 ADD MSTORE PUSH1 0x24 DUP2 ADD DUP7 SWAP1 MSTORE PUSH1 0x44 ADD PUSH1 0x20 PUSH1 0x40 MLOAD DUP1 DUP4 SUB DUP2 PUSH1 0x0 DUP8 DUP1 EXTCODESIZE ISZERO DUP1 ISZERO PUSH2 0x5146 JUMPI PUSH1 0x0 DUP1 REVERT JUMPDEST POP GAS CALL ISZERO DUP1 ISZERO PUSH2 0x515A JUMPI RETURNDATASIZE PUSH1 0x0 DUP1 RETURNDATACOPY RETURNDATASIZE PUSH1 0x0 REVERT JUMPDEST POP POP POP POP PUSH1 0x40 MLOAD RETURNDATASIZE PUSH1 0x1F NOT PUSH1 0x1F DUP3 ADD AND DUP3 ADD DUP1 PUSH1 0x40 MSTORE POP DUP2 ADD SWAP1 PUSH2 0x517E SWAP2 SWAP1 PUSH2 0x5629 JUMP JUMPDEST POP JUMPDEST PUSH2 0x5188 PUSH2 0x370E JUMP JUMPDEST POP POP POP POP JUMP JUMPDEST PUSH1 0x60 PUSH2 0x4525 DUP5 DUP5 PUSH1 0x0 DUP6 PUSH2 0x5215 JUMP JUMPDEST PUSH1 0x0 PUSH2 0x3707 DUP4 DUP4 PUSH2 0x5346 JUMP JUMPDEST PUSH1 0x0 PUSH2 0x1058 DUP3 PUSH2 0x535E JUMP JUMPDEST PUSH1 0x0 DUP1 DUP1 DUP1 PUSH2 0x45DF DUP7 DUP7 PUSH2 0x5368 JUMP JUMPDEST PUSH1 0x0 PUSH2 0x3707 DUP4 DUP4 PUSH2 0x5393 JUMP JUMPDEST PUSH1 0x40 MLOAD PUSH4 0x21F8A721 PUSH1 0xE0 SHL DUP2 MSTORE PUSH8 0x7472656173757279 PUSH1 0xC0 SHL PUSH1 0x4 DUP3 ADD MSTORE PUSH1 0x0 SWAP1 PUSH1 0x1 PUSH1 0x1 PUSH1 0xA0 SHL SUB DUP4 AND SWAP1 PUSH4 0x21F8A721 SWAP1 PUSH1 0x24 ADD PUSH2 0x3513 JUMP JUMPDEST PUSH1 0x0 PUSH2 0x3707 DUP4 DUP4 PUSH2 0x53E2 JUMP JUMPDEST PUSH1 0x60 DUP3 SELFBALANCE LT ISZERO PUSH2 0x5276 JUMPI PUSH1 0x40 MLOAD PUSH3 0x461BCD PUSH1 0xE5 SHL DUP2 MSTORE PUSH1 0x20 PUSH1 0x4 DUP3 ADD MSTORE PUSH1 0x26 PUSH1 0x24 DUP3 ADD MSTORE PUSH32 0x416464726573733A20696E73756666696369656E742062616C616E636520666F PUSH1 0x44 DUP3 ADD MSTORE PUSH6 0x1C8818D85B1B PUSH1 0xD2 SHL PUSH1 0x64 DUP3 ADD MSTORE PUSH1 0x84 ADD PUSH2 0xB91 JUMP JUMPDEST PUSH1 0x1 PUSH1 0x1 PUSH1 0xA0 SHL SUB DUP6 AND EXTCODESIZE PUSH2 0x52CD JUMPI PUSH1 0x40 MLOAD PUSH3 0x461BCD PUSH1 0xE5 SHL DUP2 MSTORE PUSH1 0x20 PUSH1 0x4 DUP3 ADD MSTORE PUSH1 0x1D PUSH1 0x24 DUP3 ADD MSTORE PUSH32 0x416464726573733A2063616C6C20746F206E6F6E2D636F6E7472616374000000 PUSH1 0x44 DUP3 ADD MSTORE PUSH1 0x64 ADD PUSH2 0xB91 JUMP JUMPDEST PUSH1 0x0 DUP1 DUP7 PUSH1 0x1 PUSH1 0x1 PUSH1 0xA0 SHL SUB AND DUP6 DUP8 PUSH1 0x40 MLOAD PUSH2 0x52E9 SWAP2 SWAP1 PUSH2 0x57AD JUMP JUMPDEST PUSH1 0x0 PUSH1 0x40 MLOAD DUP1 DUP4 SUB DUP2 DUP6 DUP8 GAS CALL SWAP3 POP POP POP RETURNDATASIZE DUP1 PUSH1 0x0 DUP2 EQ PUSH2 0x5326 JUMPI PUSH1 0x40 MLOAD SWAP2 POP PUSH1 0x1F NOT PUSH1 0x3F RETURNDATASIZE ADD AND DUP3 ADD PUSH1 0x40 MSTORE RETURNDATASIZE DUP3 MSTORE RETURNDATASIZE PUSH1 0x0 PUSH1 0x20 DUP5 ADD RETURNDATACOPY PUSH2 0x532B JUMP JUMPDEST PUSH1 0x60 SWAP2 POP JUMPDEST POP SWAP2 POP SWAP2 POP PUSH2 0x533B DUP3 DUP3 DUP7 PUSH2 0x54D5 JUMP JUMPDEST SWAP8 SWAP7 POP POP POP POP POP POP POP JUMP JUMPDEST PUSH1 0x0 DUP2 DUP2 MSTORE PUSH1 0x1 DUP4 ADD PUSH1 0x20 MSTORE PUSH1 0x40 DUP2 KECCAK256 SLOAD ISZERO ISZERO PUSH2 0x3707 JUMP JUMPDEST PUSH1 0x0 PUSH2 0x1058 DUP3 SLOAD SWAP1 JUMP JUMPDEST PUSH1 0x0 DUP1 DUP1 PUSH2 0x5376 DUP6 DUP6 PUSH2 0x550E JUMP JUMPDEST PUSH1 0x0 DUP2 DUP2 MSTORE PUSH1 0x2 SWAP7 SWAP1 SWAP7 ADD PUSH1 0x20 MSTORE PUSH1 0x40 SWAP1 SWAP6 KECCAK256 SLOAD SWAP5 SWAP6 SWAP4 POP POP POP POP JUMP JUMPDEST PUSH1 0x0 DUP2 DUP2 MSTORE PUSH1 0x1 DUP4 ADD PUSH1 0x20 MSTORE PUSH1 0x40 DUP2 KECCAK256 SLOAD PUSH2 0x53DA JUMPI POP DUP2 SLOAD PUSH1 0x1 DUP2 DUP2 ADD DUP5 SSTORE PUSH1 0x0 DUP5 DUP2 MSTORE PUSH1 0x20 DUP1 DUP3 KECCAK256 SWAP1 SWAP4 ADD DUP5 SWAP1 SSTORE DUP5 SLOAD DUP5 DUP3 MSTORE DUP3 DUP7 ADD SWAP1 SWAP4 MSTORE PUSH1 0x40 SWAP1 KECCAK256 SWAP2 SWAP1 SWAP2 SSTORE PUSH2 0x1058 JUMP JUMPDEST POP PUSH1 0x0 PUSH2 0x1058 JUMP JUMPDEST PUSH1 0x0 DUP2 DUP2 MSTORE PUSH1 0x1 DUP4 ADD PUSH1 0x20 MSTORE PUSH1 0x40 DUP2 KECCAK256 SLOAD DUP1 ISZERO PUSH2 0x54CB JUMPI PUSH1 0x0 PUSH2 0x5406 PUSH1 0x1 DUP4 PUSH2 0x56D9 JUMP JUMPDEST DUP6 SLOAD SWAP1 SWAP2 POP PUSH1 0x0 SWAP1 PUSH2 0x541A SWAP1 PUSH1 0x1 SWAP1 PUSH2 0x56D9 JUMP JUMPDEST SWAP1 POP DUP2 DUP2 EQ PUSH2 0x547F JUMPI PUSH1 0x0 DUP7 PUSH1 0x0 ADD DUP3 DUP2 SLOAD DUP2 LT PUSH2 0x543A JUMPI PUSH2 0x543A PUSH2 0x577C JUMP JUMPDEST SWAP1 PUSH1 0x0 MSTORE PUSH1 0x20 PUSH1 0x0 KECCAK256 ADD SLOAD SWAP1 POP DUP1 DUP8 PUSH1 0x0 ADD DUP5 DUP2 SLOAD DUP2 LT PUSH2 0x545D JUMPI PUSH2 0x545D PUSH2 0x577C JUMP JUMPDEST PUSH1 0x0 SWAP2 DUP3 MSTORE PUSH1 0x20 DUP1 DUP4 KECCAK256 SWAP1 SWAP2 ADD SWAP3 SWAP1 SWAP3 SSTORE SWAP2 DUP3 MSTORE PUSH1 0x1 DUP9 ADD SWAP1 MSTORE PUSH1 0x40 SWAP1 KECCAK256 DUP4 SWAP1 SSTORE JUMPDEST DUP6 SLOAD DUP7 SWAP1 DUP1 PUSH2 0x5490 JUMPI PUSH2 0x5490 PUSH2 0x57C9 JUMP JUMPDEST PUSH1 0x1 SWAP1 SUB DUP2 DUP2 SWAP1 PUSH1 0x0 MSTORE PUSH1 0x20 PUSH1 0x0 KECCAK256 ADD PUSH1 0x0 SWAP1 SSTORE SWAP1 SSTORE DUP6 PUSH1 0x1 ADD PUSH1 0x0 DUP7 DUP2 MSTORE PUSH1 0x20 ADD SWAP1 DUP2 MSTORE PUSH1 0x20 ADD PUSH1 0x0 KECCAK256 PUSH1 0x0 SWAP1 SSTORE PUSH1 0x1 SWAP4 POP POP POP POP PUSH2 0x1058 JUMP JUMPDEST PUSH1 0x0 SWAP2 POP POP PUSH2 0x1058 JUMP JUMPDEST PUSH1 0x60 DUP4 ISZERO PUSH2 0x54E4 JUMPI POP DUP2 PUSH2 0x3707 JUMP JUMPDEST DUP3 MLOAD ISZERO PUSH2 0x54F4 JUMPI DUP3 MLOAD DUP1 DUP5 PUSH1 0x20 ADD REVERT JUMPDEST DUP2 PUSH1 0x40 MLOAD PUSH3 0x461BCD PUSH1 0xE5 SHL DUP2 MSTORE PUSH1 0x4 ADD PUSH2 0xB91 SWAP2 SWAP1 PUSH2 0x5677 JUMP JUMPDEST PUSH1 0x0 PUSH2 0x3707 DUP4 DUP4 PUSH1 0x0 DUP3 PUSH1 0x0 ADD DUP3 DUP2 SLOAD DUP2 LT PUSH2 0x552C JUMPI PUSH2 0x552C PUSH2 0x577C JUMP JUMPDEST SWAP1 PUSH1 0x0 MSTORE PUSH1 0x20 PUSH1 0x0 KECCAK256 ADD SLOAD SWAP1 POP SWAP3 SWAP2 POP POP JUMP JUMPDEST PUSH1 0x0 PUSH1 0x20 DUP3 DUP5 SUB SLT ISZERO PUSH2 0x5551 JUMPI PUSH1 0x0 DUP1 REVERT JUMPDEST POP CALLDATALOAD SWAP2 SWAP1 POP JUMP JUMPDEST PUSH1 0x1 PUSH1 0x1 PUSH1 0xA0 SHL SUB DUP2 AND DUP2 EQ PUSH2 0x4B29 JUMPI PUSH1 0x0 DUP1 REVERT JUMPDEST PUSH1 0x0 DUP1 PUSH1 0x0 DUP1 PUSH1 0x80 DUP6 DUP8 SUB SLT ISZERO PUSH2 0x5583 JUMPI PUSH1 0x0 DUP1 REVERT JUMPDEST DUP5 CALLDATALOAD PUSH2 0x558E DUP2 PUSH2 0x5558 JUMP JUMPDEST SWAP7 PUSH1 0x20 DUP7 ADD CALLDATALOAD SWAP7 POP PUSH1 0x40 DUP7 ADD CALLDATALOAD SWAP6 PUSH1 0x60 ADD CALLDATALOAD SWAP5 POP SWAP3 POP POP POP JUMP JUMPDEST PUSH1 0x0 PUSH1 0x20 DUP3 DUP5 SUB SLT ISZERO PUSH2 0x55BA JUMPI PUSH1 0x0 DUP1 REVERT JUMPDEST DUP2 CALLDATALOAD PUSH2 0x3707 DUP2 PUSH2 0x5558 JUMP JUMPDEST PUSH1 0x20 DUP1 DUP3 MSTORE DUP3 MLOAD DUP3 DUP3 ADD DUP2 SWAP1 MSTORE PUSH1 0x0 SWAP2 SWAP1 DUP5 DUP3 ADD SWAP1 PUSH1 0x40 DUP6 ADD SWAP1 DUP5 JUMPDEST DUP2 DUP2 LT ISZERO PUSH2 0x5606 JUMPI DUP4 MLOAD PUSH1 0x1 PUSH1 0x1 PUSH1 0xA0 SHL SUB AND DUP4 MSTORE SWAP3 DUP5 ADD SWAP3 SWAP2 DUP5 ADD SWAP2 PUSH1 0x1 ADD PUSH2 0x55E1 JUMP JUMPDEST POP SWAP1 SWAP7 SWAP6 POP POP POP POP POP POP JUMP JUMPDEST SWAP2 DUP3 MSTORE PUSH1 0x1 PUSH1 0x1 PUSH1 0xA0 SHL SUB AND PUSH1 0x20 DUP3 ADD MSTORE PUSH1 0x40 ADD SWAP1 JUMP JUMPDEST PUSH1 0x0 PUSH1 0x20 DUP3 DUP5 SUB SLT ISZERO PUSH2 0x563B JUMPI PUSH1 0x0 DUP1 REVERT JUMPDEST DUP2 MLOAD DUP1 ISZERO ISZERO DUP2 EQ PUSH2 0x3707 JUMPI PUSH1 0x0 DUP1 REVERT JUMPDEST PUSH1 0x0 JUMPDEST DUP4 DUP2 LT ISZERO PUSH2 0x5666 JUMPI DUP2 DUP2 ADD MLOAD DUP4 DUP3 ADD MSTORE PUSH1 0x20 ADD PUSH2 0x564E JUMP JUMPDEST DUP4 DUP2 GT ISZERO PUSH2 0x5188 JUMPI POP POP PUSH1 0x0 SWAP2 ADD MSTORE JUMP JUMPDEST PUSH1 0x20 DUP2 MSTORE PUSH1 0x0 DUP3 MLOAD DUP1 PUSH1 0x20 DUP5 ADD MSTORE PUSH2 0x5696 DUP2 PUSH1 0x40 DUP6 ADD PUSH1 0x20 DUP8 ADD PUSH2 0x564B JUMP JUMPDEST PUSH1 0x1F ADD PUSH1 0x1F NOT AND SWAP2 SWAP1 SWAP2 ADD PUSH1 0x40 ADD SWAP3 SWAP2 POP POP JUMP JUMPDEST PUSH1 0x0 PUSH1 0x20 DUP3 DUP5 SUB SLT ISZERO PUSH2 0x56BC JUMPI PUSH1 0x0 DUP1 REVERT JUMPDEST POP MLOAD SWAP2 SWAP1 POP JUMP JUMPDEST PUSH4 0x4E487B71 PUSH1 0xE0 SHL PUSH1 0x0 MSTORE PUSH1 0x11 PUSH1 0x4 MSTORE PUSH1 0x24 PUSH1 0x0 REVERT JUMPDEST PUSH1 0x0 DUP3 DUP3 LT ISZERO PUSH2 0x56EB JUMPI PUSH2 0x56EB PUSH2 0x56C3 JUMP JUMPDEST POP SUB SWAP1 JUMP JUMPDEST PUSH1 0x0 DUP3 NOT DUP3 GT ISZERO PUSH2 0x5703 JUMPI PUSH2 0x5703 PUSH2 0x56C3 JUMP JUMPDEST POP ADD SWAP1 JUMP JUMPDEST PUSH1 0x0 PUSH1 0x20 DUP3 DUP5 SUB SLT ISZERO PUSH2 0x571A JUMPI PUSH1 0x0 DUP1 REVERT JUMPDEST DUP2 MLOAD PUSH2 0x3707 DUP2 PUSH2 0x5558 JUMP JUMPDEST PUSH1 0x0 DUP2 PUSH1 0x0 NOT DIV DUP4 GT DUP3 ISZERO ISZERO AND ISZERO PUSH2 0x573F JUMPI PUSH2 0x573F PUSH2 0x56C3 JUMP JUMPDEST POP MUL SWAP1 JUMP JUMPDEST PUSH1 0x0 DUP3 PUSH2 0x5761 JUMPI PUSH4 0x4E487B71 PUSH1 0xE0 SHL PUSH1 0x0 MSTORE PUSH1 0x12 PUSH1 0x4 MSTORE PUSH1 0x24 PUSH1 0x0 REVERT JUMPDEST POP DIV SWAP1 JUMP JUMPDEST PUSH4 0x4E487B71 PUSH1 0xE0 SHL PUSH1 0x0 MSTORE PUSH1 0x41 PUSH1 0x4 MSTORE PUSH1 0x24 PUSH1 0x0 REVERT JUMPDEST PUSH4 0x4E487B71 PUSH1 0xE0 SHL PUSH1 0x0 MSTORE PUSH1 0x32 PUSH1 0x4 MSTORE PUSH1 0x24 PUSH1 0x0 REVERT JUMPDEST PUSH1 0x0 PUSH1 0x0 NOT DUP3 EQ ISZERO PUSH2 0x57A6 JUMPI PUSH2 0x57A6 PUSH2 0x56C3 JUMP JUMPDEST POP PUSH1 0x1 ADD SWAP1 JUMP JUMPDEST PUSH1 0x0 DUP3 MLOAD PUSH2 0x57BF DUP2 DUP5 PUSH1 0x20 DUP8 ADD PUSH2 0x564B JUMP JUMPDEST SWAP2 SWAP1 SWAP2 ADD SWAP3 SWAP2 POP POP JUMP JUMPDEST PUSH4 0x4E487B71 PUSH1 0xE0 SHL PUSH1 0x0 MSTORE PUSH1 0x31 PUSH1 0x4 MSTORE PUSH1 0x24 PUSH1 0x0 REVERT INVALID POP PUSH16 0x6F6C206D757374206265207061757365 PUSH5 0x20746F2077 PUSH10 0x7468647261772066726F PUSH14 0x2072657365727665756E61757468 PUSH16 0x72697A65642061636365737300000000 STOP STOP STOP STOP STOP STOP STOP STOP STOP PUSH5 0x6561646C69 PUSH15 0x6520686173206E6F74206265656E20 PUSH19 0x65616368656420796574A26469706673582212 KECCAK256 0xB9 CHAINID GT CALLDATACOPY 0xCC PUSH26 0x25B2EFB3570802B116877A0ED0FA0E827563CEDF28951C1DBD36 PUSH5 0x736F6C6343 STOP ADDMOD MULMOD STOP CALLER ","sha1":"7458da7badf7586a78398993f493596a8a88e9ca","source":"// SPDX-License-Identifier: GPL-3.0-or-later\npragma solidity 0.8.9;\n\nimport \"./Vault.sol\";\n\ncontract Erc20Vault is Vault {\n    using AddressProviderHelpers for IAddressProvider;\n    using SafeERC20 for IERC20;\n\n    constructor(IController controller) Vault(controller) {}\n\n    function initialize(\n        address _pool,\n        uint256 _debtLimit,\n        uint256 _targetAllocation,\n        uint256 _bound\n    ) external virtual override initializer {\n        _initialize(_pool, _debtLimit, _targetAllocation, _bound);\n        address underlying_ = ILiquidityPool(pool).getUnderlying();\n        require(underlying_ != address(0), Error.ZERO_ADDRESS_NOT_ALLOWED);\n        IERC20(underlying_).safeApprove(address(reserve), type(uint256).max);\n        IERC20(underlying_).safeApprove(_pool, type(uint256).max);\n    }\n\n    function getUnderlying() public view override returns (address) {\n        return ILiquidityPool(pool).getUnderlying();\n    }\n\n    function _transfer(address to, uint256 amount) internal override {\n        IERC20(getUnderlying()).safeTransfer(to, amount);\n    }\n\n    function _depositToReserve(uint256 amount) internal override {\n        reserve.deposit(getUnderlying(), amount);\n    }\n\n    function _depositToTreasury(uint256 amount) internal override {\n        IERC20(getUnderlying()).safeTransfer(addressProvider.getTreasury(), amount);\n    }\n\n    function _payStrategist(uint256 amount, address strategist) internal override {\n        if (strategist == address(0)) return;\n        ILiquidityPool(pool).depositFor(strategist, amount);\n    }\n\n    function _availableUnderlying() internal view override returns (uint256) {\n        return IERC20(getUnderlying()).balanceOf(address(this));\n    }\n}\n","sourcePath":"contracts/vault/Erc20Vault.sol","type":"contract","deployment":{"address":"0x408060cB358519af16794aC85B73E55901E0cf1E","chainid":"42","blockHeight":30414779}}