{"abi":[{"inputs":[{"internalType":"contract IAddressProvider","name":"addressProvider","type":"IAddressProvider"},{"internalType":"address","name":"token","type":"address"},{"internalType":"address","name":"actionToken","type":"address"},{"internalType":"uint256","name":"amount","type":"uint256"}],"name":"calcExchangeAmount","outputs":[{"internalType":"uint256","name":"","type":"uint256"}],"stateMutability":"view","type":"function"},{"inputs":[{"internalType":"contract IAddressProvider","name":"addressProvider","type":"IAddressProvider"},{"internalType":"address","name":"underlying","type":"address"},{"internalType":"address","name":"actionToken","type":"address"}],"name":"getSwapper","outputs":[{"internalType":"contract ISwapper","name":"","type":"ISwapper"}],"stateMutability":"view","type":"function"}],"bytecode":"610e8961003a600b82828239805160001a60731461002d57634e487b7160e01b600052600060045260246000fd5b30600052607381538281f3fe730000000000000000000000000000000000000000301460806040526004361061004b5760003560e01c806376b4805114610050578063d384721614610080578063dc488298146100a1575b600080fd5b61006361005e366004610bd7565b6100c3565b6040516001600160a01b0390911681526020015b60405180910390f35b61009361008e366004610c22565b6101c8565b604051908152602001610077565b8180156100ad57600080fd5b506100c16100bc366004610c73565b61041a565b005b6000806100d8856001600160a01b0316610762565b6040516336e6ef1160e01b81526001600160a01b03868116600483015285811660248301529192506000918316906336e6ef119060440160206040518083038186803b15801561012757600080fd5b505afa15801561013b573d6000803e3d6000fd5b505050506040513d601f19601f8201168201806040525081019061015f9190610cce565b6040805180820190915260138152721cddd85c081c185d1a081b9bdd08199bdd5b99606a1b60208201529091506001600160a01b0382166101bc5760405162461bcd60e51b81526004016101b39190610d17565b60405180910390fd5b509150505b9392505050565b604051630956fef360e21b81526001600160a01b038481166004830152600091829187169063255bfbcc9060240160206040518083038186803b15801561020e57600080fd5b505afa158015610222573d6000803e3d6000fd5b505050506040513d601f19601f820116820180604052508101906102469190610cce565b90506000816001600160a01b0316633ba0b9a96040518163ffffffff1660e01b815260040160206040518083038186803b15801561028357600080fd5b505afa158015610297573d6000803e3d6000fd5b505050506040513d601f19601f820116820180604052508101906102bb9190610d4a565b90506000826001600160a01b0316639816f4736040518163ffffffff1660e01b815260040160206040518083038186803b1580156102f857600080fd5b505afa15801561030c573d6000803e3d6000fd5b505050506040513d601f19601f820116820180604052508101906103309190610cce565b9050856001600160a01b0316816001600160a01b031614156103605761035685836107f4565b9350505050610412565b600061036d8983896100c3565b604051631bcdc3f560e11b81526001600160a01b038481166004830152898116602483015291925060009183169063379b87ea9060440160206040518083038186803b1580156103bc57600080fd5b505afa1580156103d0573d6000803e3d6000fd5b505050506040513d601f19601f820116820180604052508101906103f49190610d4a565b905061040a610403858361082a565b88906107f4565b955050505050505b949350505050565b818582156105675781831161042f5782610431565b815b92506104486001600160a01b03861687308661083f565b61045c6001600160a01b03861688856108b0565b60405163534a7e1d60e11b8152600481018490526001600160a01b0382169063a694fc3a90602401602060405180830381600087803b15801561049e57600080fd5b505af11580156104b2573d6000803e3d6000fd5b505050506040513d601f19601f820116820180604052508101906104d69190610d63565b50604051630fcb700160e41b81526001600160a01b0387811660048301526024820185905282169063fcb7001090604401602060405180830381600087803b15801561052157600080fd5b505af1158015610535573d6000803e3d6000fd5b505050506040513d601f19601f820116820180604052508101906105599190610d63565b506105648383610d9b565b91505b811561071d576040516370a0823160e01b81526001600160a01b038781166004830152600091908316906370a082319060240160206040518083038186803b1580156105b257600080fd5b505afa1580156105c6573d6000803e3d6000fd5b505050506040513d601f19601f820116820180604052508101906105ea9190610d4a565b604051636eb1769f60e11b81526001600160a01b03898116600483015230602483015291925060009184169063dd62ed3e9060440160206040518083038186803b15801561063757600080fd5b505afa15801561064b573d6000803e3d6000fd5b505050506040513d601f19601f8201168201806040525081019061066f9190610d4a565b905060008183106106805781610682565b825b9050848110610719576040516323b872dd60e01b81526001600160a01b038a81166004830152306024830152604482018790528516906323b872dd90606401602060405180830381600087803b1580156106db57600080fd5b505af11580156106ef573d6000803e3d6000fd5b505050506040513d601f19601f820116820180604052508101906107139190610d63565b50600094505b5050505b816000146040518060600160405280602c8152602001610e28602c9139906107585760405162461bcd60e51b81526004016101b39190610d17565b5050505050505050565b6040516321f8a72160e01b81526e73776170706572526567697374727960881b60048201526000906001600160a01b038316906321f8a7219060240160206040518083038186803b1580156107b657600080fd5b505afa1580156107ca573d6000803e3d6000fd5b505050506040513d601f19601f820116820180604052508101906107ee9190610cce565b92915050565b60008160018161080c670de0b6b3a764000087610db2565b6108169190610dd1565b6108209190610d9b565b6101c19190610de9565b6000670de0b6b3a76400006108208385610db2565b6040516001600160a01b03808516602483015283166044820152606481018290526108aa9085906323b872dd60e01b906084015b60408051601f198184030181529190526020810180516001600160e01b03166001600160e01b0319909316929092179091526109d9565b50505050565b8015806109395750604051636eb1769f60e11b81523060048201526001600160a01b03838116602483015284169063dd62ed3e9060440160206040518083038186803b1580156108ff57600080fd5b505afa158015610913573d6000803e3d6000fd5b505050506040513d601f19601f820116820180604052508101906109379190610d4a565b155b6109a45760405162461bcd60e51b815260206004820152603660248201527f5361666545524332303a20617070726f76652066726f6d206e6f6e2d7a65726f60448201527520746f206e6f6e2d7a65726f20616c6c6f77616e636560501b60648201526084016101b3565b6040516001600160a01b0383166024820152604481018290526109d490849063095ea7b360e01b90606401610873565b505050565b6000610a2e826040518060400160405280602081526020017f5361666545524332303a206c6f772d6c6576656c2063616c6c206661696c6564815250856001600160a01b0316610aab9092919063ffffffff16565b8051909150156109d45780806020019051810190610a4c9190610d63565b6109d45760405162461bcd60e51b815260206004820152602a60248201527f5361666545524332303a204552433230206f7065726174696f6e20646964206e6044820152691bdd081cdd58d8d9595960b21b60648201526084016101b3565b60606104128484600085856001600160a01b0385163b610b0d5760405162461bcd60e51b815260206004820152601d60248201527f416464726573733a2063616c6c20746f206e6f6e2d636f6e747261637400000060448201526064016101b3565b600080866001600160a01b03168587604051610b299190610e0b565b60006040518083038185875af1925050503d8060008114610b66576040519150601f19603f3d011682016040523d82523d6000602084013e610b6b565b606091505b5091509150610b7b828286610b86565b979650505050505050565b60608315610b955750816101c1565b825115610ba55782518084602001fd5b8160405162461bcd60e51b81526004016101b39190610d17565b6001600160a01b0381168114610bd457600080fd5b50565b600080600060608486031215610bec57600080fd5b8335610bf781610bbf565b92506020840135610c0781610bbf565b91506040840135610c1781610bbf565b809150509250925092565b60008060008060808587031215610c3857600080fd5b8435610c4381610bbf565b93506020850135610c5381610bbf565b92506040850135610c6381610bbf565b9396929550929360600135925050565b600080600080600060a08688031215610c8b57600080fd5b8535610c9681610bbf565b94506020860135610ca681610bbf565b93506040860135610cb681610bbf565b94979396509394606081013594506080013592915050565b600060208284031215610ce057600080fd5b81516101c181610bbf565b60005b83811015610d06578181015183820152602001610cee565b838111156108aa5750506000910152565b6020815260008251806020840152610d36816040850160208701610ceb565b601f01601f19169190910160400192915050565b600060208284031215610d5c57600080fd5b5051919050565b600060208284031215610d7557600080fd5b815180151581146101c157600080fd5b634e487b7160e01b600052601160045260246000fd5b600082821015610dad57610dad610d85565b500390565b6000816000190483118215151615610dcc57610dcc610d85565b500290565b60008219821115610de457610de4610d85565b500190565b600082610e0657634e487b7160e01b600052601260045260246000fd5b500490565b60008251610e1d818460208701610ceb565b919091019291505056fe696e73756666696369656e742066756e647320666f72207570646174696e672074686520706f736974696f6ea26469706673582212204f6a564fff773d50c21f41bf85b5b6051259c3fdaeb0cd7ce8df2a2da828a0dc64736f6c63430008090033","bytecodeSha1":"eaf1f55fbaf4a426723626e666c1e5a4f177fe8e","compiler":{"evm_version":"london","optimizer":{"enabled":true,"runs":200},"version":"0.8.9+commit.e5eed63a"},"contractName":"TopUpActionLibrary","language":"Solidity","natspec":{"kind":"dev","methods":{"calcExchangeAmount(IAddressProvider,address,address,uint256)":{"details":"Computes and returns the amount of LP tokens of type `token` that will be received in exchange for an `amount` of the underlying."}},"notice":"The logic here should really be part of the top-up action but is split in a library to circumvent the byte-code size limit","version":1},"opcodes":"PUSH20 0x0 ADDRESS EQ PUSH1 0x80 PUSH1 0x40 MSTORE PUSH1 0x4 CALLDATASIZE LT PUSH2 0x4B JUMPI PUSH1 0x0 CALLDATALOAD PUSH1 0xE0 SHR DUP1 PUSH4 0x76B48051 EQ PUSH2 0x50 JUMPI DUP1 PUSH4 0xD3847216 EQ PUSH2 0x80 JUMPI DUP1 PUSH4 0xDC488298 EQ PUSH2 0xA1 JUMPI JUMPDEST PUSH1 0x0 DUP1 REVERT JUMPDEST PUSH2 0x63 PUSH2 0x5E CALLDATASIZE PUSH1 0x4 PUSH2 0xBD7 JUMP JUMPDEST PUSH2 0xC3 JUMP JUMPDEST PUSH1 0x40 MLOAD PUSH1 0x1 PUSH1 0x1 PUSH1 0xA0 SHL SUB SWAP1 SWAP2 AND DUP2 MSTORE PUSH1 0x20 ADD JUMPDEST PUSH1 0x40 MLOAD DUP1 SWAP2 SUB SWAP1 RETURN JUMPDEST PUSH2 0x93 PUSH2 0x8E CALLDATASIZE PUSH1 0x4 PUSH2 0xC22 JUMP JUMPDEST PUSH2 0x1C8 JUMP JUMPDEST PUSH1 0x40 MLOAD SWAP1 DUP2 MSTORE PUSH1 0x20 ADD PUSH2 0x77 JUMP JUMPDEST DUP2 DUP1 ISZERO PUSH2 0xAD JUMPI PUSH1 0x0 DUP1 REVERT JUMPDEST POP PUSH2 0xC1 PUSH2 0xBC CALLDATASIZE PUSH1 0x4 PUSH2 0xC73 JUMP JUMPDEST PUSH2 0x41A JUMP JUMPDEST STOP JUMPDEST PUSH1 0x0 DUP1 PUSH2 0xD8 DUP6 PUSH1 0x1 PUSH1 0x1 PUSH1 0xA0 SHL SUB AND PUSH2 0x762 JUMP JUMPDEST PUSH1 0x40 MLOAD PUSH4 0x36E6EF11 PUSH1 0xE0 SHL DUP2 MSTORE PUSH1 0x1 PUSH1 0x1 PUSH1 0xA0 SHL SUB DUP7 DUP2 AND PUSH1 0x4 DUP4 ADD MSTORE DUP6 DUP2 AND PUSH1 0x24 DUP4 ADD MSTORE SWAP2 SWAP3 POP PUSH1 0x0 SWAP2 DUP4 AND SWAP1 PUSH4 0x36E6EF11 SWAP1 PUSH1 0x44 ADD PUSH1 0x20 PUSH1 0x40 MLOAD DUP1 DUP4 SUB DUP2 DUP7 DUP1 EXTCODESIZE ISZERO DUP1 ISZERO PUSH2 0x127 JUMPI PUSH1 0x0 DUP1 REVERT JUMPDEST POP GAS STATICCALL ISZERO DUP1 ISZERO PUSH2 0x13B JUMPI RETURNDATASIZE PUSH1 0x0 DUP1 RETURNDATACOPY RETURNDATASIZE PUSH1 0x0 REVERT JUMPDEST POP POP POP POP PUSH1 0x40 MLOAD RETURNDATASIZE PUSH1 0x1F NOT PUSH1 0x1F DUP3 ADD AND DUP3 ADD DUP1 PUSH1 0x40 MSTORE POP DUP2 ADD SWAP1 PUSH2 0x15F SWAP2 SWAP1 PUSH2 0xCCE JUMP JUMPDEST PUSH1 0x40 DUP1 MLOAD DUP1 DUP3 ADD SWAP1 SWAP2 MSTORE PUSH1 0x13 DUP2 MSTORE PUSH19 0x1CDDD85C081C185D1A081B9BDD08199BDD5B99 PUSH1 0x6A SHL PUSH1 0x20 DUP3 ADD MSTORE SWAP1 SWAP2 POP PUSH1 0x1 PUSH1 0x1 PUSH1 0xA0 SHL SUB DUP3 AND PUSH2 0x1BC JUMPI PUSH1 0x40 MLOAD PUSH3 0x461BCD PUSH1 0xE5 SHL DUP2 MSTORE PUSH1 0x4 ADD PUSH2 0x1B3 SWAP2 SWAP1 PUSH2 0xD17 JUMP JUMPDEST PUSH1 0x40 MLOAD DUP1 SWAP2 SUB SWAP1 REVERT JUMPDEST POP SWAP2 POP POP JUMPDEST SWAP4 SWAP3 POP POP POP JUMP JUMPDEST PUSH1 0x40 MLOAD PUSH4 0x956FEF3 PUSH1 0xE2 SHL DUP2 MSTORE PUSH1 0x1 PUSH1 0x1 PUSH1 0xA0 SHL SUB DUP5 DUP2 AND PUSH1 0x4 DUP4 ADD MSTORE PUSH1 0x0 SWAP2 DUP3 SWAP2 DUP8 AND SWAP1 PUSH4 0x255BFBCC SWAP1 PUSH1 0x24 ADD PUSH1 0x20 PUSH1 0x40 MLOAD DUP1 DUP4 SUB DUP2 DUP7 DUP1 EXTCODESIZE ISZERO DUP1 ISZERO PUSH2 0x20E JUMPI PUSH1 0x0 DUP1 REVERT JUMPDEST POP GAS STATICCALL ISZERO DUP1 ISZERO PUSH2 0x222 JUMPI RETURNDATASIZE PUSH1 0x0 DUP1 RETURNDATACOPY RETURNDATASIZE PUSH1 0x0 REVERT JUMPDEST POP POP POP POP PUSH1 0x40 MLOAD RETURNDATASIZE PUSH1 0x1F NOT PUSH1 0x1F DUP3 ADD AND DUP3 ADD DUP1 PUSH1 0x40 MSTORE POP DUP2 ADD SWAP1 PUSH2 0x246 SWAP2 SWAP1 PUSH2 0xCCE JUMP JUMPDEST SWAP1 POP PUSH1 0x0 DUP2 PUSH1 0x1 PUSH1 0x1 PUSH1 0xA0 SHL SUB AND PUSH4 0x3BA0B9A9 PUSH1 0x40 MLOAD DUP2 PUSH4 0xFFFFFFFF AND PUSH1 0xE0 SHL DUP2 MSTORE PUSH1 0x4 ADD PUSH1 0x20 PUSH1 0x40 MLOAD DUP1 DUP4 SUB DUP2 DUP7 DUP1 EXTCODESIZE ISZERO DUP1 ISZERO PUSH2 0x283 JUMPI PUSH1 0x0 DUP1 REVERT JUMPDEST POP GAS STATICCALL ISZERO DUP1 ISZERO PUSH2 0x297 JUMPI RETURNDATASIZE PUSH1 0x0 DUP1 RETURNDATACOPY RETURNDATASIZE PUSH1 0x0 REVERT JUMPDEST POP POP POP POP PUSH1 0x40 MLOAD RETURNDATASIZE PUSH1 0x1F NOT PUSH1 0x1F DUP3 ADD AND DUP3 ADD DUP1 PUSH1 0x40 MSTORE POP DUP2 ADD SWAP1 PUSH2 0x2BB SWAP2 SWAP1 PUSH2 0xD4A JUMP JUMPDEST SWAP1 POP PUSH1 0x0 DUP3 PUSH1 0x1 PUSH1 0x1 PUSH1 0xA0 SHL SUB AND PUSH4 0x9816F473 PUSH1 0x40 MLOAD DUP2 PUSH4 0xFFFFFFFF AND PUSH1 0xE0 SHL DUP2 MSTORE PUSH1 0x4 ADD PUSH1 0x20 PUSH1 0x40 MLOAD DUP1 DUP4 SUB DUP2 DUP7 DUP1 EXTCODESIZE ISZERO DUP1 ISZERO PUSH2 0x2F8 JUMPI PUSH1 0x0 DUP1 REVERT JUMPDEST POP GAS STATICCALL ISZERO DUP1 ISZERO PUSH2 0x30C JUMPI RETURNDATASIZE PUSH1 0x0 DUP1 RETURNDATACOPY RETURNDATASIZE PUSH1 0x0 REVERT JUMPDEST POP POP POP POP PUSH1 0x40 MLOAD RETURNDATASIZE PUSH1 0x1F NOT PUSH1 0x1F DUP3 ADD AND DUP3 ADD DUP1 PUSH1 0x40 MSTORE POP DUP2 ADD SWAP1 PUSH2 0x330 SWAP2 SWAP1 PUSH2 0xCCE JUMP JUMPDEST SWAP1 POP DUP6 PUSH1 0x1 PUSH1 0x1 PUSH1 0xA0 SHL SUB AND DUP2 PUSH1 0x1 PUSH1 0x1 PUSH1 0xA0 SHL SUB AND EQ ISZERO PUSH2 0x360 JUMPI PUSH2 0x356 DUP6 DUP4 PUSH2 0x7F4 JUMP JUMPDEST SWAP4 POP POP POP POP PUSH2 0x412 JUMP JUMPDEST PUSH1 0x0 PUSH2 0x36D DUP10 DUP4 DUP10 PUSH2 0xC3 JUMP JUMPDEST PUSH1 0x40 MLOAD PUSH4 0x1BCDC3F5 PUSH1 0xE1 SHL DUP2 MSTORE PUSH1 0x1 PUSH1 0x1 PUSH1 0xA0 SHL SUB DUP5 DUP2 AND PUSH1 0x4 DUP4 ADD MSTORE DUP10 DUP2 AND PUSH1 0x24 DUP4 ADD MSTORE SWAP2 SWAP3 POP PUSH1 0x0 SWAP2 DUP4 AND SWAP1 PUSH4 0x379B87EA SWAP1 PUSH1 0x44 ADD PUSH1 0x20 PUSH1 0x40 MLOAD DUP1 DUP4 SUB DUP2 DUP7 DUP1 EXTCODESIZE ISZERO DUP1 ISZERO PUSH2 0x3BC JUMPI PUSH1 0x0 DUP1 REVERT JUMPDEST POP GAS STATICCALL ISZERO DUP1 ISZERO PUSH2 0x3D0 JUMPI RETURNDATASIZE PUSH1 0x0 DUP1 RETURNDATACOPY RETURNDATASIZE PUSH1 0x0 REVERT JUMPDEST POP POP POP POP PUSH1 0x40 MLOAD RETURNDATASIZE PUSH1 0x1F NOT PUSH1 0x1F DUP3 ADD AND DUP3 ADD DUP1 PUSH1 0x40 MSTORE POP DUP2 ADD SWAP1 PUSH2 0x3F4 SWAP2 SWAP1 PUSH2 0xD4A JUMP JUMPDEST SWAP1 POP PUSH2 0x40A PUSH2 0x403 DUP6 DUP4 PUSH2 0x82A JUMP JUMPDEST DUP9 SWAP1 PUSH2 0x7F4 JUMP JUMPDEST SWAP6 POP POP POP POP POP POP JUMPDEST SWAP5 SWAP4 POP POP POP POP JUMP JUMPDEST DUP2 DUP6 DUP3 ISZERO PUSH2 0x567 JUMPI DUP2 DUP4 GT PUSH2 0x42F JUMPI DUP3 PUSH2 0x431 JUMP JUMPDEST DUP2 JUMPDEST SWAP3 POP PUSH2 0x448 PUSH1 0x1 PUSH1 0x1 PUSH1 0xA0 SHL SUB DUP7 AND DUP8 ADDRESS DUP7 PUSH2 0x83F JUMP JUMPDEST PUSH2 0x45C PUSH1 0x1 PUSH1 0x1 PUSH1 0xA0 SHL SUB DUP7 AND DUP9 DUP6 PUSH2 0x8B0 JUMP JUMPDEST PUSH1 0x40 MLOAD PUSH4 0x534A7E1D PUSH1 0xE1 SHL DUP2 MSTORE PUSH1 0x4 DUP2 ADD DUP5 SWAP1 MSTORE PUSH1 0x1 PUSH1 0x1 PUSH1 0xA0 SHL SUB DUP3 AND SWAP1 PUSH4 0xA694FC3A SWAP1 PUSH1 0x24 ADD PUSH1 0x20 PUSH1 0x40 MLOAD DUP1 DUP4 SUB DUP2 PUSH1 0x0 DUP8 DUP1 EXTCODESIZE ISZERO DUP1 ISZERO PUSH2 0x49E JUMPI PUSH1 0x0 DUP1 REVERT JUMPDEST POP GAS CALL ISZERO DUP1 ISZERO PUSH2 0x4B2 JUMPI RETURNDATASIZE PUSH1 0x0 DUP1 RETURNDATACOPY RETURNDATASIZE PUSH1 0x0 REVERT JUMPDEST POP POP POP POP PUSH1 0x40 MLOAD RETURNDATASIZE PUSH1 0x1F NOT PUSH1 0x1F DUP3 ADD AND DUP3 ADD DUP1 PUSH1 0x40 MSTORE POP DUP2 ADD SWAP1 PUSH2 0x4D6 SWAP2 SWAP1 PUSH2 0xD63 JUMP JUMPDEST POP PUSH1 0x40 MLOAD PUSH4 0xFCB7001 PUSH1 0xE4 SHL DUP2 MSTORE PUSH1 0x1 PUSH1 0x1 PUSH1 0xA0 SHL SUB DUP8 DUP2 AND PUSH1 0x4 DUP4 ADD MSTORE PUSH1 0x24 DUP3 ADD DUP6 SWAP1 MSTORE DUP3 AND SWAP1 PUSH4 0xFCB70010 SWAP1 PUSH1 0x44 ADD PUSH1 0x20 PUSH1 0x40 MLOAD DUP1 DUP4 SUB DUP2 PUSH1 0x0 DUP8 DUP1 EXTCODESIZE ISZERO DUP1 ISZERO PUSH2 0x521 JUMPI PUSH1 0x0 DUP1 REVERT JUMPDEST POP GAS CALL ISZERO DUP1 ISZERO PUSH2 0x535 JUMPI RETURNDATASIZE PUSH1 0x0 DUP1 RETURNDATACOPY RETURNDATASIZE PUSH1 0x0 REVERT JUMPDEST POP POP POP POP PUSH1 0x40 MLOAD RETURNDATASIZE PUSH1 0x1F NOT PUSH1 0x1F DUP3 ADD AND DUP3 ADD DUP1 PUSH1 0x40 MSTORE POP DUP2 ADD SWAP1 PUSH2 0x559 SWAP2 SWAP1 PUSH2 0xD63 JUMP JUMPDEST POP PUSH2 0x564 DUP4 DUP4 PUSH2 0xD9B JUMP JUMPDEST SWAP2 POP JUMPDEST DUP2 ISZERO PUSH2 0x71D JUMPI PUSH1 0x40 MLOAD PUSH4 0x70A08231 PUSH1 0xE0 SHL DUP2 MSTORE PUSH1 0x1 PUSH1 0x1 PUSH1 0xA0 SHL SUB DUP8 DUP2 AND PUSH1 0x4 DUP4 ADD MSTORE PUSH1 0x0 SWAP2 SWAP1 DUP4 AND SWAP1 PUSH4 0x70A08231 SWAP1 PUSH1 0x24 ADD PUSH1 0x20 PUSH1 0x40 MLOAD DUP1 DUP4 SUB DUP2 DUP7 DUP1 EXTCODESIZE ISZERO DUP1 ISZERO PUSH2 0x5B2 JUMPI PUSH1 0x0 DUP1 REVERT JUMPDEST POP GAS STATICCALL ISZERO DUP1 ISZERO PUSH2 0x5C6 JUMPI RETURNDATASIZE PUSH1 0x0 DUP1 RETURNDATACOPY RETURNDATASIZE PUSH1 0x0 REVERT JUMPDEST POP POP POP POP PUSH1 0x40 MLOAD RETURNDATASIZE PUSH1 0x1F NOT PUSH1 0x1F DUP3 ADD AND DUP3 ADD DUP1 PUSH1 0x40 MSTORE POP DUP2 ADD SWAP1 PUSH2 0x5EA SWAP2 SWAP1 PUSH2 0xD4A JUMP JUMPDEST PUSH1 0x40 MLOAD PUSH4 0x6EB1769F PUSH1 0xE1 SHL DUP2 MSTORE PUSH1 0x1 PUSH1 0x1 PUSH1 0xA0 SHL SUB DUP10 DUP2 AND PUSH1 0x4 DUP4 ADD MSTORE ADDRESS PUSH1 0x24 DUP4 ADD MSTORE SWAP2 SWAP3 POP PUSH1 0x0 SWAP2 DUP5 AND SWAP1 PUSH4 0xDD62ED3E SWAP1 PUSH1 0x44 ADD PUSH1 0x20 PUSH1 0x40 MLOAD DUP1 DUP4 SUB DUP2 DUP7 DUP1 EXTCODESIZE ISZERO DUP1 ISZERO PUSH2 0x637 JUMPI PUSH1 0x0 DUP1 REVERT JUMPDEST POP GAS STATICCALL ISZERO DUP1 ISZERO PUSH2 0x64B JUMPI RETURNDATASIZE PUSH1 0x0 DUP1 RETURNDATACOPY RETURNDATASIZE PUSH1 0x0 REVERT JUMPDEST POP POP POP POP PUSH1 0x40 MLOAD RETURNDATASIZE PUSH1 0x1F NOT PUSH1 0x1F DUP3 ADD AND DUP3 ADD DUP1 PUSH1 0x40 MSTORE POP DUP2 ADD SWAP1 PUSH2 0x66F SWAP2 SWAP1 PUSH2 0xD4A JUMP JUMPDEST SWAP1 POP PUSH1 0x0 DUP2 DUP4 LT PUSH2 0x680 JUMPI DUP2 PUSH2 0x682 JUMP JUMPDEST DUP3 JUMPDEST SWAP1 POP DUP5 DUP2 LT PUSH2 0x719 JUMPI PUSH1 0x40 MLOAD PUSH4 0x23B872DD PUSH1 0xE0 SHL DUP2 MSTORE PUSH1 0x1 PUSH1 0x1 PUSH1 0xA0 SHL SUB DUP11 DUP2 AND PUSH1 0x4 DUP4 ADD MSTORE ADDRESS PUSH1 0x24 DUP4 ADD MSTORE PUSH1 0x44 DUP3 ADD DUP8 SWAP1 MSTORE DUP6 AND SWAP1 PUSH4 0x23B872DD SWAP1 PUSH1 0x64 ADD PUSH1 0x20 PUSH1 0x40 MLOAD DUP1 DUP4 SUB DUP2 PUSH1 0x0 DUP8 DUP1 EXTCODESIZE ISZERO DUP1 ISZERO PUSH2 0x6DB JUMPI PUSH1 0x0 DUP1 REVERT JUMPDEST POP GAS CALL ISZERO DUP1 ISZERO PUSH2 0x6EF JUMPI RETURNDATASIZE PUSH1 0x0 DUP1 RETURNDATACOPY RETURNDATASIZE PUSH1 0x0 REVERT JUMPDEST POP POP POP POP PUSH1 0x40 MLOAD RETURNDATASIZE PUSH1 0x1F NOT PUSH1 0x1F DUP3 ADD AND DUP3 ADD DUP1 PUSH1 0x40 MSTORE POP DUP2 ADD SWAP1 PUSH2 0x713 SWAP2 SWAP1 PUSH2 0xD63 JUMP JUMPDEST POP PUSH1 0x0 SWAP5 POP JUMPDEST POP POP POP JUMPDEST DUP2 PUSH1 0x0 EQ PUSH1 0x40 MLOAD DUP1 PUSH1 0x60 ADD PUSH1 0x40 MSTORE DUP1 PUSH1 0x2C DUP2 MSTORE PUSH1 0x20 ADD PUSH2 0xE28 PUSH1 0x2C SWAP2 CODECOPY SWAP1 PUSH2 0x758 JUMPI PUSH1 0x40 MLOAD PUSH3 0x461BCD PUSH1 0xE5 SHL DUP2 MSTORE PUSH1 0x4 ADD PUSH2 0x1B3 SWAP2 SWAP1 PUSH2 0xD17 JUMP JUMPDEST POP POP POP POP POP POP POP POP JUMP JUMPDEST PUSH1 0x40 MLOAD PUSH4 0x21F8A721 PUSH1 0xE0 SHL DUP2 MSTORE PUSH15 0x737761707065725265676973747279 PUSH1 0x88 SHL PUSH1 0x4 DUP3 ADD MSTORE PUSH1 0x0 SWAP1 PUSH1 0x1 PUSH1 0x1 PUSH1 0xA0 SHL SUB DUP4 AND SWAP1 PUSH4 0x21F8A721 SWAP1 PUSH1 0x24 ADD PUSH1 0x20 PUSH1 0x40 MLOAD DUP1 DUP4 SUB DUP2 DUP7 DUP1 EXTCODESIZE ISZERO DUP1 ISZERO PUSH2 0x7B6 JUMPI PUSH1 0x0 DUP1 REVERT JUMPDEST POP GAS STATICCALL ISZERO DUP1 ISZERO PUSH2 0x7CA JUMPI RETURNDATASIZE PUSH1 0x0 DUP1 RETURNDATACOPY RETURNDATASIZE PUSH1 0x0 REVERT JUMPDEST POP POP POP POP PUSH1 0x40 MLOAD RETURNDATASIZE PUSH1 0x1F NOT PUSH1 0x1F DUP3 ADD AND DUP3 ADD DUP1 PUSH1 0x40 MSTORE POP DUP2 ADD SWAP1 PUSH2 0x7EE SWAP2 SWAP1 PUSH2 0xCCE JUMP JUMPDEST SWAP3 SWAP2 POP POP JUMP JUMPDEST PUSH1 0x0 DUP2 PUSH1 0x1 DUP2 PUSH2 0x80C PUSH8 0xDE0B6B3A7640000 DUP8 PUSH2 0xDB2 JUMP JUMPDEST PUSH2 0x816 SWAP2 SWAP1 PUSH2 0xDD1 JUMP JUMPDEST PUSH2 0x820 SWAP2 SWAP1 PUSH2 0xD9B JUMP JUMPDEST PUSH2 0x1C1 SWAP2 SWAP1 PUSH2 0xDE9 JUMP JUMPDEST PUSH1 0x0 PUSH8 0xDE0B6B3A7640000 PUSH2 0x820 DUP4 DUP6 PUSH2 0xDB2 JUMP JUMPDEST PUSH1 0x40 MLOAD PUSH1 0x1 PUSH1 0x1 PUSH1 0xA0 SHL SUB DUP1 DUP6 AND PUSH1 0x24 DUP4 ADD MSTORE DUP4 AND PUSH1 0x44 DUP3 ADD MSTORE PUSH1 0x64 DUP2 ADD DUP3 SWAP1 MSTORE PUSH2 0x8AA SWAP1 DUP6 SWAP1 PUSH4 0x23B872DD PUSH1 0xE0 SHL SWAP1 PUSH1 0x84 ADD JUMPDEST PUSH1 0x40 DUP1 MLOAD PUSH1 0x1F NOT DUP2 DUP5 SUB ADD DUP2 MSTORE SWAP2 SWAP1 MSTORE PUSH1 0x20 DUP2 ADD DUP1 MLOAD PUSH1 0x1 PUSH1 0x1 PUSH1 0xE0 SHL SUB AND PUSH1 0x1 PUSH1 0x1 PUSH1 0xE0 SHL SUB NOT SWAP1 SWAP4 AND SWAP3 SWAP1 SWAP3 OR SWAP1 SWAP2 MSTORE PUSH2 0x9D9 JUMP JUMPDEST POP POP POP POP JUMP JUMPDEST DUP1 ISZERO DUP1 PUSH2 0x939 JUMPI POP PUSH1 0x40 MLOAD PUSH4 0x6EB1769F PUSH1 0xE1 SHL DUP2 MSTORE ADDRESS PUSH1 0x4 DUP3 ADD MSTORE PUSH1 0x1 PUSH1 0x1 PUSH1 0xA0 SHL SUB DUP4 DUP2 AND PUSH1 0x24 DUP4 ADD MSTORE DUP5 AND SWAP1 PUSH4 0xDD62ED3E SWAP1 PUSH1 0x44 ADD PUSH1 0x20 PUSH1 0x40 MLOAD DUP1 DUP4 SUB DUP2 DUP7 DUP1 EXTCODESIZE ISZERO DUP1 ISZERO PUSH2 0x8FF JUMPI PUSH1 0x0 DUP1 REVERT JUMPDEST POP GAS STATICCALL ISZERO DUP1 ISZERO PUSH2 0x913 JUMPI RETURNDATASIZE PUSH1 0x0 DUP1 RETURNDATACOPY RETURNDATASIZE PUSH1 0x0 REVERT JUMPDEST POP POP POP POP PUSH1 0x40 MLOAD RETURNDATASIZE PUSH1 0x1F NOT PUSH1 0x1F DUP3 ADD AND DUP3 ADD DUP1 PUSH1 0x40 MSTORE POP DUP2 ADD SWAP1 PUSH2 0x937 SWAP2 SWAP1 PUSH2 0xD4A JUMP JUMPDEST ISZERO JUMPDEST PUSH2 0x9A4 JUMPI PUSH1 0x40 MLOAD PUSH3 0x461BCD PUSH1 0xE5 SHL DUP2 MSTORE PUSH1 0x20 PUSH1 0x4 DUP3 ADD MSTORE PUSH1 0x36 PUSH1 0x24 DUP3 ADD MSTORE PUSH32 0x5361666545524332303A20617070726F76652066726F6D206E6F6E2D7A65726F PUSH1 0x44 DUP3 ADD MSTORE PUSH22 0x20746F206E6F6E2D7A65726F20616C6C6F77616E6365 PUSH1 0x50 SHL PUSH1 0x64 DUP3 ADD MSTORE PUSH1 0x84 ADD PUSH2 0x1B3 JUMP JUMPDEST PUSH1 0x40 MLOAD PUSH1 0x1 PUSH1 0x1 PUSH1 0xA0 SHL SUB DUP4 AND PUSH1 0x24 DUP3 ADD MSTORE PUSH1 0x44 DUP2 ADD DUP3 SWAP1 MSTORE PUSH2 0x9D4 SWAP1 DUP5 SWAP1 PUSH4 0x95EA7B3 PUSH1 0xE0 SHL SWAP1 PUSH1 0x64 ADD PUSH2 0x873 JUMP JUMPDEST POP POP POP JUMP JUMPDEST PUSH1 0x0 PUSH2 0xA2E DUP3 PUSH1 0x40 MLOAD DUP1 PUSH1 0x40 ADD PUSH1 0x40 MSTORE DUP1 PUSH1 0x20 DUP2 MSTORE PUSH1 0x20 ADD PUSH32 0x5361666545524332303A206C6F772D6C6576656C2063616C6C206661696C6564 DUP2 MSTORE POP DUP6 PUSH1 0x1 PUSH1 0x1 PUSH1 0xA0 SHL SUB AND PUSH2 0xAAB SWAP1 SWAP3 SWAP2 SWAP1 PUSH4 0xFFFFFFFF AND JUMP JUMPDEST DUP1 MLOAD SWAP1 SWAP2 POP ISZERO PUSH2 0x9D4 JUMPI DUP1 DUP1 PUSH1 0x20 ADD SWAP1 MLOAD DUP2 ADD SWAP1 PUSH2 0xA4C SWAP2 SWAP1 PUSH2 0xD63 JUMP JUMPDEST PUSH2 0x9D4 JUMPI PUSH1 0x40 MLOAD PUSH3 0x461BCD PUSH1 0xE5 SHL DUP2 MSTORE PUSH1 0x20 PUSH1 0x4 DUP3 ADD MSTORE PUSH1 0x2A PUSH1 0x24 DUP3 ADD MSTORE PUSH32 0x5361666545524332303A204552433230206F7065726174696F6E20646964206E PUSH1 0x44 DUP3 ADD MSTORE PUSH10 0x1BDD081CDD58D8D95959 PUSH1 0xB2 SHL PUSH1 0x64 DUP3 ADD MSTORE PUSH1 0x84 ADD PUSH2 0x1B3 JUMP JUMPDEST PUSH1 0x60 PUSH2 0x412 DUP5 DUP5 PUSH1 0x0 DUP6 DUP6 PUSH1 0x1 PUSH1 0x1 PUSH1 0xA0 SHL SUB DUP6 AND EXTCODESIZE PUSH2 0xB0D JUMPI PUSH1 0x40 MLOAD PUSH3 0x461BCD PUSH1 0xE5 SHL DUP2 MSTORE PUSH1 0x20 PUSH1 0x4 DUP3 ADD MSTORE PUSH1 0x1D PUSH1 0x24 DUP3 ADD MSTORE PUSH32 0x416464726573733A2063616C6C20746F206E6F6E2D636F6E7472616374000000 PUSH1 0x44 DUP3 ADD MSTORE PUSH1 0x64 ADD PUSH2 0x1B3 JUMP JUMPDEST PUSH1 0x0 DUP1 DUP7 PUSH1 0x1 PUSH1 0x1 PUSH1 0xA0 SHL SUB AND DUP6 DUP8 PUSH1 0x40 MLOAD PUSH2 0xB29 SWAP2 SWAP1 PUSH2 0xE0B JUMP JUMPDEST PUSH1 0x0 PUSH1 0x40 MLOAD DUP1 DUP4 SUB DUP2 DUP6 DUP8 GAS CALL SWAP3 POP POP POP RETURNDATASIZE DUP1 PUSH1 0x0 DUP2 EQ PUSH2 0xB66 JUMPI PUSH1 0x40 MLOAD SWAP2 POP PUSH1 0x1F NOT PUSH1 0x3F RETURNDATASIZE ADD AND DUP3 ADD PUSH1 0x40 MSTORE RETURNDATASIZE DUP3 MSTORE RETURNDATASIZE PUSH1 0x0 PUSH1 0x20 DUP5 ADD RETURNDATACOPY PUSH2 0xB6B JUMP JUMPDEST PUSH1 0x60 SWAP2 POP JUMPDEST POP SWAP2 POP SWAP2 POP PUSH2 0xB7B DUP3 DUP3 DUP7 PUSH2 0xB86 JUMP JUMPDEST SWAP8 SWAP7 POP POP POP POP POP POP POP JUMP JUMPDEST PUSH1 0x60 DUP4 ISZERO PUSH2 0xB95 JUMPI POP DUP2 PUSH2 0x1C1 JUMP JUMPDEST DUP3 MLOAD ISZERO PUSH2 0xBA5 JUMPI DUP3 MLOAD DUP1 DUP5 PUSH1 0x20 ADD REVERT JUMPDEST DUP2 PUSH1 0x40 MLOAD PUSH3 0x461BCD PUSH1 0xE5 SHL DUP2 MSTORE PUSH1 0x4 ADD PUSH2 0x1B3 SWAP2 SWAP1 PUSH2 0xD17 JUMP JUMPDEST PUSH1 0x1 PUSH1 0x1 PUSH1 0xA0 SHL SUB DUP2 AND DUP2 EQ PUSH2 0xBD4 JUMPI PUSH1 0x0 DUP1 REVERT JUMPDEST POP JUMP JUMPDEST PUSH1 0x0 DUP1 PUSH1 0x0 PUSH1 0x60 DUP5 DUP7 SUB SLT ISZERO PUSH2 0xBEC JUMPI PUSH1 0x0 DUP1 REVERT JUMPDEST DUP4 CALLDATALOAD PUSH2 0xBF7 DUP2 PUSH2 0xBBF JUMP JUMPDEST SWAP3 POP PUSH1 0x20 DUP5 ADD CALLDATALOAD PUSH2 0xC07 DUP2 PUSH2 0xBBF JUMP JUMPDEST SWAP2 POP PUSH1 0x40 DUP5 ADD CALLDATALOAD PUSH2 0xC17 DUP2 PUSH2 0xBBF JUMP JUMPDEST DUP1 SWAP2 POP POP SWAP3 POP SWAP3 POP SWAP3 JUMP JUMPDEST PUSH1 0x0 DUP1 PUSH1 0x0 DUP1 PUSH1 0x80 DUP6 DUP8 SUB SLT ISZERO PUSH2 0xC38 JUMPI PUSH1 0x0 DUP1 REVERT JUMPDEST DUP5 CALLDATALOAD PUSH2 0xC43 DUP2 PUSH2 0xBBF JUMP JUMPDEST SWAP4 POP PUSH1 0x20 DUP6 ADD CALLDATALOAD PUSH2 0xC53 DUP2 PUSH2 0xBBF JUMP JUMPDEST SWAP3 POP PUSH1 0x40 DUP6 ADD CALLDATALOAD PUSH2 0xC63 DUP2 PUSH2 0xBBF JUMP JUMPDEST SWAP4 SWAP7 SWAP3 SWAP6 POP SWAP3 SWAP4 PUSH1 0x60 ADD CALLDATALOAD SWAP3 POP POP JUMP JUMPDEST PUSH1 0x0 DUP1 PUSH1 0x0 DUP1 PUSH1 0x0 PUSH1 0xA0 DUP7 DUP9 SUB SLT ISZERO PUSH2 0xC8B JUMPI PUSH1 0x0 DUP1 REVERT JUMPDEST DUP6 CALLDATALOAD PUSH2 0xC96 DUP2 PUSH2 0xBBF JUMP JUMPDEST SWAP5 POP PUSH1 0x20 DUP7 ADD CALLDATALOAD PUSH2 0xCA6 DUP2 PUSH2 0xBBF JUMP JUMPDEST SWAP4 POP PUSH1 0x40 DUP7 ADD CALLDATALOAD PUSH2 0xCB6 DUP2 PUSH2 0xBBF JUMP JUMPDEST SWAP5 SWAP8 SWAP4 SWAP7 POP SWAP4 SWAP5 PUSH1 0x60 DUP2 ADD CALLDATALOAD SWAP5 POP PUSH1 0x80 ADD CALLDATALOAD SWAP3 SWAP2 POP POP JUMP JUMPDEST PUSH1 0x0 PUSH1 0x20 DUP3 DUP5 SUB SLT ISZERO PUSH2 0xCE0 JUMPI PUSH1 0x0 DUP1 REVERT JUMPDEST DUP2 MLOAD PUSH2 0x1C1 DUP2 PUSH2 0xBBF JUMP JUMPDEST PUSH1 0x0 JUMPDEST DUP4 DUP2 LT ISZERO PUSH2 0xD06 JUMPI DUP2 DUP2 ADD MLOAD DUP4 DUP3 ADD MSTORE PUSH1 0x20 ADD PUSH2 0xCEE JUMP JUMPDEST DUP4 DUP2 GT ISZERO PUSH2 0x8AA JUMPI POP POP PUSH1 0x0 SWAP2 ADD MSTORE JUMP JUMPDEST PUSH1 0x20 DUP2 MSTORE PUSH1 0x0 DUP3 MLOAD DUP1 PUSH1 0x20 DUP5 ADD MSTORE PUSH2 0xD36 DUP2 PUSH1 0x40 DUP6 ADD PUSH1 0x20 DUP8 ADD PUSH2 0xCEB JUMP JUMPDEST PUSH1 0x1F ADD PUSH1 0x1F NOT AND SWAP2 SWAP1 SWAP2 ADD PUSH1 0x40 ADD SWAP3 SWAP2 POP POP JUMP JUMPDEST PUSH1 0x0 PUSH1 0x20 DUP3 DUP5 SUB SLT ISZERO PUSH2 0xD5C JUMPI PUSH1 0x0 DUP1 REVERT JUMPDEST POP MLOAD SWAP2 SWAP1 POP JUMP JUMPDEST PUSH1 0x0 PUSH1 0x20 DUP3 DUP5 SUB SLT ISZERO PUSH2 0xD75 JUMPI PUSH1 0x0 DUP1 REVERT JUMPDEST DUP2 MLOAD DUP1 ISZERO ISZERO DUP2 EQ PUSH2 0x1C1 JUMPI PUSH1 0x0 DUP1 REVERT JUMPDEST PUSH4 0x4E487B71 PUSH1 0xE0 SHL PUSH1 0x0 MSTORE PUSH1 0x11 PUSH1 0x4 MSTORE PUSH1 0x24 PUSH1 0x0 REVERT JUMPDEST PUSH1 0x0 DUP3 DUP3 LT ISZERO PUSH2 0xDAD JUMPI PUSH2 0xDAD PUSH2 0xD85 JUMP JUMPDEST POP SUB SWAP1 JUMP JUMPDEST PUSH1 0x0 DUP2 PUSH1 0x0 NOT DIV DUP4 GT DUP3 ISZERO ISZERO AND ISZERO PUSH2 0xDCC JUMPI PUSH2 0xDCC PUSH2 0xD85 JUMP JUMPDEST POP MUL SWAP1 JUMP JUMPDEST PUSH1 0x0 DUP3 NOT DUP3 GT ISZERO PUSH2 0xDE4 JUMPI PUSH2 0xDE4 PUSH2 0xD85 JUMP JUMPDEST POP ADD SWAP1 JUMP JUMPDEST PUSH1 0x0 DUP3 PUSH2 0xE06 JUMPI PUSH4 0x4E487B71 PUSH1 0xE0 SHL PUSH1 0x0 MSTORE PUSH1 0x12 PUSH1 0x4 MSTORE PUSH1 0x24 PUSH1 0x0 REVERT JUMPDEST POP DIV SWAP1 JUMP JUMPDEST PUSH1 0x0 DUP3 MLOAD PUSH2 0xE1D DUP2 DUP5 PUSH1 0x20 DUP8 ADD PUSH2 0xCEB JUMP JUMPDEST SWAP2 SWAP1 SWAP2 ADD SWAP3 SWAP2 POP POP JUMP INVALID PUSH10 0x6E73756666696369656E PUSH21 0x2066756E647320666F72207570646174696E672074 PUSH9 0x6520706F736974696F PUSH15 0xA26469706673582212204F6A564FFF PUSH24 0x3D50C21F41BF85B5B6051259C3FDAEB0CD7CE8DF2A2DA828 LOG0 0xDC PUSH5 0x736F6C6343 STOP ADDMOD MULMOD STOP CALLER ","sha1":"e61d7aeb6153de4d5cbeef51103cc5ff2b75467f","source":"// SPDX-License-Identifier: GPL-3.0-or-later\npragma solidity 0.8.9;\n\nimport \"@openzeppelin/contracts/token/ERC20/utils/SafeERC20.sol\";\nimport \"@openzeppelin/contracts-upgradeable/proxy/utils/Initializable.sol\";\nimport \"@openzeppelin/contracts/token/ERC20/IERC20.sol\";\nimport \"@openzeppelin/contracts/utils/structs/EnumerableSet.sol\";\n\nimport \"../../../interfaces/IGasBank.sol\";\nimport \"../../../interfaces/pool/ILiquidityPool.sol\";\nimport \"../../../interfaces/ISwapperRegistry.sol\";\nimport \"../../../interfaces/IController.sol\";\nimport \"../../../interfaces/IStakerVault.sol\";\nimport \"../../../interfaces/ISwapper.sol\";\nimport \"../../../interfaces/actions/topup/ITopUpHandler.sol\";\nimport \"../../../interfaces/actions/topup/ITopUpAction.sol\";\nimport \"../../../interfaces/actions/IActionFeeHandler.sol\";\n\nimport \"../../../libraries/AddressProviderHelpers.sol\";\nimport \"../../../libraries/Errors.sol\";\nimport \"../../../libraries/ScaledMath.sol\";\nimport \"../../../libraries/EnumerableExtensions.sol\";\n\nimport \"../../access/Authorization.sol\";\nimport \"../../utils/Preparable.sol\";\n\n/**\n * @notice The logic here should really be part of the top-up action\n * but is split in a library to circumvent the byte-code size limit\n */\nlibrary TopUpActionLibrary {\n    using SafeERC20 for IERC20;\n    using ScaledMath for uint256;\n    using AddressProviderHelpers for IAddressProvider;\n\n    function lockFunds(\n        address stakerVaultAddress,\n        address payer,\n        address token,\n        uint256 lockAmount,\n        uint256 depositAmount\n    ) external {\n        uint256 amountLeft = lockAmount;\n        IStakerVault stakerVault = IStakerVault(stakerVaultAddress);\n\n        // stake deposit amount\n        if (depositAmount > 0) {\n            depositAmount = depositAmount > amountLeft ? amountLeft : depositAmount;\n            IERC20(token).safeTransferFrom(payer, address(this), depositAmount);\n            IERC20(token).safeApprove(stakerVaultAddress, depositAmount);\n            stakerVault.stake(depositAmount);\n            stakerVault.increaseActionLockedBalance(payer, depositAmount);\n            amountLeft -= depositAmount;\n        }\n\n        // use stake vault allowance if available and required\n        if (amountLeft > 0) {\n            uint256 balance = stakerVault.balanceOf(payer);\n            uint256 allowance = stakerVault.allowance(payer, address(this));\n            uint256 availableFunds = balance < allowance ? balance : allowance;\n            if (availableFunds >= amountLeft) {\n                stakerVault.transferFrom(payer, address(this), amountLeft);\n                amountLeft = 0;\n            }\n        }\n\n        require(amountLeft == 0, Error.INSUFFICIENT_UPDATE_BALANCE);\n    }\n\n    /**\n     * @dev Computes and returns the amount of LP tokens of type `token` that will be received in exchange for an `amount` of the underlying.\n     */\n    function calcExchangeAmount(\n        IAddressProvider addressProvider,\n        address token,\n        address actionToken,\n        uint256 amount\n    ) external view returns (uint256) {\n        ILiquidityPool pool = addressProvider.getPoolForToken(token);\n        uint256 rate = pool.exchangeRate();\n        address underlying = pool.getUnderlying();\n        if (underlying == actionToken) {\n            return amount.scaledDivRoundUp(rate);\n        }\n\n        ISwapper swapper = getSwapper(addressProvider, underlying, actionToken);\n        uint256 swapperRate = swapper.getRate(underlying, actionToken);\n        return amount.scaledDivRoundUp(rate.scaledMul(swapperRate));\n    }\n\n    function getSwapper(\n        IAddressProvider addressProvider,\n        address underlying,\n        address actionToken\n    ) public view returns (ISwapper) {\n        address swapperRegistry = addressProvider.getSwapperRegistry();\n        address swapper = ISwapperRegistry(swapperRegistry).getSwapper(underlying, actionToken);\n        require(swapper != address(0), Error.SWAP_PATH_NOT_FOUND);\n        return ISwapper(swapper);\n    }\n}\n\ncontract TopUpAction is ITopUpAction, Authorization, Preparable, Initializable {\n    using ScaledMath for uint256;\n    using ScaledMath for uint128;\n    using SafeERC20 for IERC20;\n    using EnumerableSet for EnumerableSet.AddressSet;\n    using EnumerableSet for EnumerableSet.Bytes32Set;\n    using EnumerableExtensions for EnumerableSet.AddressSet;\n    using AddressProviderHelpers for IAddressProvider;\n\n    /**\n     * @dev Temporary struct to hold local variables in execute\n     * and avoid the stack being \"too deep\"\n     */\n    struct ExecuteLocalVars {\n        uint256 minActionAmountToTopUp;\n        uint256 actionTokenAmount;\n        uint256 depositTotalFeesAmount;\n        uint256 actionAmountWithFees;\n        uint256 userFactor;\n        uint256 rate;\n        uint256 depositAmountWithFees;\n        uint256 depositAmountWithoutFees;\n        uint256 actionFee;\n        uint256 totalActionTokenAmount;\n        uint128 totalTopUpAmount;\n        bool success;\n        bytes topupResult;\n        uint256 gasBankBalance;\n        uint256 initialGas;\n        uint256 gasConsumed;\n        uint256 userGasPrice;\n        uint256 estimatedRequiredGas;\n        uint256 estimatedRequiredWeiForGas;\n        uint256 requiredWeiForGas;\n        uint256 reimbursedWeiForGas;\n        address underlying;\n        bool removePosition;\n    }\n\n    EnumerableSet.AddressSet private _usableTokens;\n\n    uint256 internal constant _INITIAL_ESTIMATED_GAS_USAGE = 500_000;\n\n    bytes32 internal constant _ACTION_FEE_KEY = \"ActionFee\";\n    bytes32 internal constant _FEE_HANDLER_KEY = \"FeeHandler\";\n    bytes32 internal constant _TOP_UP_HANDLER_KEY = \"TopUpHandler\";\n    bytes32 internal constant _ESTIMATED_GAS_USAGE_KEY = \"EstimatedGasUsage\";\n    bytes32 internal constant _MAX_SWAPPER_SLIPPAGE_KEY = \"MaxSwapperSlippage\";\n\n    uint256 internal constant _MAX_ACTION_FEE = 0.5 * 1e18;\n    uint256 internal constant _MIN_SWAPPER_SLIPPAGE = 0.6 * 1e18;\n    uint256 internal constant _MAX_SWAPPER_SLIPPAGE = 0.95 * 1e18;\n\n    IController public immutable controller;\n    IAddressProvider public immutable addressProvider;\n\n    EnumerableSet.Bytes32Set internal _supportedProtocols;\n\n    mapping(address => mapping(address => mapping(bytes32 => Record))) private _positions;\n\n    mapping(address => RecordMeta[]) internal _userPositions;\n\n    EnumerableSet.AddressSet internal _usersWithPositions;\n\n    constructor(IController _controller)\n        Authorization(_controller.addressProvider().getRoleManager())\n    {\n        controller = _controller;\n        addressProvider = controller.addressProvider();\n        _setConfig(_ESTIMATED_GAS_USAGE_KEY, _INITIAL_ESTIMATED_GAS_USAGE);\n    }\n\n    receive() external payable {\n        // solhint-disable-previous-line no-empty-blocks\n    }\n\n    function initialize(\n        address feeHandler,\n        bytes32[] calldata protocols,\n        address[] calldata handlers\n    ) external initializer onlyGovernance {\n        require(protocols.length == handlers.length, Error.INVALID_ARGUMENT);\n        _setConfig(_FEE_HANDLER_KEY, feeHandler);\n        _setConfig(_MAX_SWAPPER_SLIPPAGE_KEY, _MAX_SWAPPER_SLIPPAGE);\n        for (uint256 i = 0; i < protocols.length; i++) {\n            bytes32 protocolKey = _getProtocolKey(protocols[i]);\n            _setConfig(protocolKey, handlers[i]);\n            _updateTopUpHandler(protocols[i], address(0), handlers[i]);\n        }\n    }\n\n    /**\n     * @notice Register a top up action.\n     * @dev The `depositAmount` must be greater or equal to the `totalTopUpAmount` (which is denominated in `actionToken`).\n     * @param account Account to be topped up.\n     * @param depositAmount Amount of `depositToken` that will be locked.\n     * @param protocol Protocol which holds position to be topped up.\n     * @param record containing the data for the position to register\n     */\n    function register(\n        address account,\n        bytes32 protocol,\n        uint128 depositAmount,\n        Record memory record\n    ) external payable returns (bool) {\n        require(_supportedProtocols.contains(protocol), Error.PROTOCOL_NOT_FOUND);\n        require(record.singleTopUpAmount > 0, Error.INVALID_AMOUNT);\n        require(record.threshold > ScaledMath.ONE, Error.INVALID_AMOUNT);\n        require(record.singleTopUpAmount <= record.totalTopUpAmount, Error.INVALID_AMOUNT);\n        require(\n            _positions[msg.sender][account][protocol].threshold == 0,\n            Error.POSITION_ALREADY_EXISTS\n        );\n        require(_isSwappable(record.depositToken, record.actionToken), Error.SWAP_PATH_NOT_FOUND);\n        require(isUsable(record.depositToken), Error.TOKEN_NOT_USABLE);\n\n        uint256 gasDeposit = (record.totalTopUpAmount.divRoundUp(record.singleTopUpAmount)) *\n            record.maxFee *\n            getEstimatedGasUsage();\n\n        require(msg.value >= gasDeposit, Error.VALUE_TOO_LOW_FOR_GAS);\n\n        uint256 totalLockAmount = _calcExchangeAmount(\n            record.depositToken,\n            record.actionToken,\n            record.totalTopUpAmount\n        );\n        _lockFunds(msg.sender, record.depositToken, totalLockAmount, depositAmount);\n\n        addressProvider.getGasBank().depositFor{value: msg.value}(msg.sender);\n\n        record.depositTokenBalance = uint128(totalLockAmount);\n        _positions[msg.sender][account][protocol] = record;\n        _userPositions[msg.sender].push(RecordMeta(account, protocol));\n        _usersWithPositions.add(msg.sender);\n\n        emit Register(\n            account,\n            protocol,\n            record.threshold,\n            msg.sender,\n            record.depositToken,\n            totalLockAmount,\n            record.actionToken,\n            record.singleTopUpAmount,\n            record.totalTopUpAmount,\n            record.maxFee,\n            record.repayDebt\n        );\n        return true;\n    }\n\n    /**\n     * @notice See overloaded version of `execute` for more details.\n     */\n    function execute(\n        address payer,\n        address account,\n        address beneficiary,\n        bytes32 protocol\n    ) external override returns (bool) {\n        return execute(payer, account, beneficiary, protocol, 0);\n    }\n\n    /**\n     * @notice Delete a position to back on the given protocol for `account`.\n     * @param account Account holding the position.\n     * @param protocol Protocol the position is held on.\n     * @param unstake If the tokens should be unstaked from vault.\n     * @return `true` if successful.\n     */\n    function resetPosition(\n        address account,\n        bytes32 protocol,\n        bool unstake\n    ) external override returns (bool) {\n        address payer = msg.sender;\n        Record memory position = _positions[payer][account][protocol];\n        require(position.threshold != 0, Error.NO_POSITION_EXISTS);\n\n        address vault = addressProvider.getStakerVault(position.depositToken); // will revert if vault does not exist\n        IStakerVault staker = IStakerVault(vault);\n        staker.decreaseActionLockedBalance(payer, position.depositTokenBalance);\n        if (unstake) {\n            staker.unstake(position.depositTokenBalance);\n            IERC20(position.depositToken).safeTransfer(payer, position.depositTokenBalance);\n        } else {\n            staker.transfer(payer, position.depositTokenBalance);\n        }\n\n        _removePosition(payer, account, protocol);\n        addressProvider.getGasBank().withdrawUnused(payer);\n        return true;\n    }\n\n    /**\n     * @notice Execute top up handler update (with time delay enforced).\n     * @dev Needs to be called after the update was prepared. Fails if called before time delay is met.\n     * @param protocol Protocol for which a new handler should be executed.\n     * @return Address of new handler.\n     */\n    function executeTopUpHandler(bytes32 protocol) external override returns (address) {\n        address oldHandler = _getHandler(protocol, false);\n        address newHandler = _executeAddress(_getProtocolKey(protocol));\n\n        _updateTopUpHandler(protocol, oldHandler, newHandler);\n        return newHandler;\n    }\n\n    /**\n     * @notice Reset new top up handler deadline for a protocol.\n     * @param protocol Protocol for which top up handler deadline should be reset.\n     * @return `true` if successful.\n     */\n    function resetTopUpHandler(bytes32 protocol) external onlyGovernance returns (bool) {\n        return _resetAddressConfig(_getProtocolKey(protocol));\n    }\n\n    /**\n     * @notice Prepare action fee update.\n     * @param newActionFee New fee to set.\n     * @return `true` if success.\n     */\n    function prepareActionFee(uint256 newActionFee) external onlyGovernance returns (bool) {\n        require(newActionFee <= _MAX_ACTION_FEE, Error.INVALID_AMOUNT);\n        return _prepare(_ACTION_FEE_KEY, newActionFee);\n    }\n\n    /**\n     * @notice Execute action fee update (with time delay enforced).\n     * @dev Needs to be called after the update was prepared. Fails if called before time delay is met.\n     * @return `true` if successful.\n     */\n    function executeActionFee() external override returns (uint256) {\n        return _executeUInt256(_ACTION_FEE_KEY);\n    }\n\n    /**\n     * @notice Reset action fee deadline.\n     * @return `true` if successful.\n     */\n    function resetActionFee() external onlyGovernance returns (bool) {\n        return _resetUInt256Config(_ACTION_FEE_KEY);\n    }\n\n    /**\n     * @notice Prepare swapper slippage update.\n     * @param newSwapperSlippage New slippage to set.\n     * @return `true` if success.\n     */\n    function prepareSwapperSlippage(uint256 newSwapperSlippage)\n        external\n        onlyGovernance\n        returns (bool)\n    {\n        require(\n            newSwapperSlippage >= _MIN_SWAPPER_SLIPPAGE &&\n                newSwapperSlippage <= _MAX_SWAPPER_SLIPPAGE,\n            Error.INVALID_AMOUNT\n        );\n        return _prepare(_MAX_SWAPPER_SLIPPAGE_KEY, newSwapperSlippage);\n    }\n\n    /**\n     * @notice Execute swapper slippage update (with time delay enforced).\n     * @dev Needs to be called after the update was prepared. Fails if called before time delay is met.\n     * @return `true` if successful.\n     */\n    function executeSwapperSlippage() external override returns (uint256) {\n        return _executeUInt256(_MAX_SWAPPER_SLIPPAGE_KEY);\n    }\n\n    /**\n     * @notice Reset action fee deadline.\n     * @return `true` if successful.\n     */\n    function resetSwapperSlippage() external onlyGovernance returns (bool) {\n        return _resetUInt256Config(_MAX_SWAPPER_SLIPPAGE_KEY);\n    }\n\n    /** Set fee handler */\n    /**\n     * @notice Prepare update of fee handler.\n     * @param handler New fee handler.\n     * @return `true` if success.\n     */\n    function prepareFeeHandler(address handler) external onlyGovernance returns (bool) {\n        return _prepare(_FEE_HANDLER_KEY, handler);\n    }\n\n    /**\n     * @notice Execute update of fee handler (with time delay enforced).\n     * @dev Needs to be called after the update was prepraed. Fails if called before time delay is met.\n     * @return `true` if successful.\n     */\n    function executeFeeHandler() external override returns (address) {\n        return _executeAddress(_FEE_HANDLER_KEY);\n    }\n\n    /**\n     * @notice Reset the handler deadline.\n     * @return `true` if success.\n     */\n    function resetFeeHandler() external onlyGovernance returns (bool) {\n        return _resetAddressConfig(_FEE_HANDLER_KEY);\n    }\n\n    /**\n     * @notice Prepare update of estimated gas usage.\n     * @param gasUsage New estimated gas usage.\n     * @return `true` if success.\n     */\n    function prepareEstimatedGasUsage(uint256 gasUsage) external onlyGovernance returns (bool) {\n        return _prepare(_ESTIMATED_GAS_USAGE_KEY, gasUsage);\n    }\n\n    /**\n     * @notice Execute update of gas usage (with time delay enforced).\n     * @return `true` if successful.\n     */\n    function executeEstimatedGasUsage() external returns (uint256) {\n        return _executeUInt256(_ESTIMATED_GAS_USAGE_KEY);\n    }\n\n    /**\n     * @notice Reset the gas usage deadline.\n     * @return `true` if success.\n     */\n    function resetGasUsage() external onlyGovernance returns (bool) {\n        return _resetUInt256Config(_ESTIMATED_GAS_USAGE_KEY);\n    }\n\n    /**\n     * @notice Add a new deposit token that is supported by the action.\n     * @dev There is a separate check for whether the usable token (i.e. deposit token)\n     *      is swappable for some action token.\n     * @param token Address of deposit token that can be used by the action.\n     */\n    function addUsableToken(address token) external override onlyGovernance returns (bool) {\n        return _usableTokens.add(token);\n    }\n\n    /**\n     * @notice Computes the total amount of ETH (as wei) required to pay for all\n     * the top-ups assuming the maximum gas price and the current estimated gas\n     * usage of a top-up\n     */\n    function getEthRequiredForGas(address payer) external view override returns (uint256) {\n        uint256 totalEthRequired = 0;\n        RecordMeta[] memory userRecordsMeta = _userPositions[payer];\n        uint256 gasUsagePerCall = getEstimatedGasUsage();\n        uint256 length = userRecordsMeta.length;\n        for (uint256 i = 0; i < length; i++) {\n            RecordMeta memory meta = userRecordsMeta[i];\n            Record memory record = _positions[payer][meta.account][meta.protocol];\n            uint256 totalCalls = record.totalTopUpAmount.divRoundUp(record.singleTopUpAmount);\n            totalEthRequired += totalCalls * gasUsagePerCall * record.maxFee;\n        }\n        return totalEthRequired;\n    }\n\n    /**\n     * @notice Returns a list of positions for the given payer\n     */\n    function getUserPositions(address payer) external view override returns (RecordMeta[] memory) {\n        return _userPositions[payer];\n    }\n\n    /**\n     * @notice Get a list supported protocols.\n     * @return List of supported protocols.\n     */\n    function getSupportedProtocols() external view override returns (bytes32[] memory) {\n        uint256 length = _supportedProtocols.length();\n        bytes32[] memory protocols = new bytes32[](length);\n        for (uint256 i = 0; i < length; i++) {\n            protocols[i] = _supportedProtocols.at(i);\n        }\n        return protocols;\n    }\n\n    /*\n     * @notice Gets a list of users that have an active position.\n     * @dev Uses cursor pagination.\n     * @param cursor The cursor for pagination (should start at 0 for first call).\n     * @param howMany Maximum number of users to return in this pagination request.\n     * @return users List of users that have an active position.\n     * @return nextCursor The cursor to use for the next pagination request.\n     */\n    function usersWithPositions(uint256 cursor, uint256 howMany)\n        external\n        view\n        override\n        returns (address[] memory users, uint256 nextCursor)\n    {\n        uint256 length = _usersWithPositions.length();\n        if (cursor >= length) return (new address[](0), 0);\n        if (howMany >= length - cursor) {\n            howMany = length - cursor;\n        }\n\n        address[] memory usersWithPositions_ = new address[](howMany);\n        for (uint256 i = 0; i < howMany; i++) {\n            usersWithPositions_[i] = _usersWithPositions.at(i + cursor);\n        }\n\n        return (usersWithPositions_, cursor + howMany);\n    }\n\n    /**\n     * @notice Get a list of all tokens usable for this action.\n     * @dev This refers to all tokens that can be used as deposit tokens.\n     * @return Array of addresses of usable tokens.\n     */\n    function getUsableTokens() external view override returns (address[] memory) {\n        return _usableTokens.toArray();\n    }\n\n    /**\n     * @notice Retrieves the topup handler for the given `protocol`\n     */\n    function getTopUpHandler(bytes32 protocol) external view returns (address) {\n        return _getHandler(protocol, false);\n    }\n\n    /**\n     * @notice Successfully tops up a position if it's conditions are met.\n     * @dev pool and vault funds are rebalanced after withdrawal for top up\n     * @param payer Account that pays for the top up.\n     * @param account Account owning the position for top up.\n     * @param beneficiary Address of the keeper's wallet for fee accrual.\n     * @param protocol Protocol of the top up position.\n     * @param maxWeiForGas the maximum extra amount of wei that the keeper is willing to pay for the gas\n     * @return `true` if successful.\n     */\n    function execute(\n        address payer,\n        address account,\n        address beneficiary,\n        bytes32 protocol,\n        uint256 maxWeiForGas\n    ) public override returns (bool) {\n        require(controller.canKeeperExecuteAction(msg.sender), Error.NOT_ENOUGH_BKD_STAKED);\n\n        ExecuteLocalVars memory vars;\n\n        vars.initialGas = gasleft();\n\n        Record storage position = _positions[payer][account][protocol];\n        require(position.threshold != 0, Error.NO_POSITION_EXISTS);\n        require(position.totalTopUpAmount > 0, Error.INSUFFICIENT_BALANCE);\n\n        address topUpHandler = _getHandler(protocol, true);\n        vars.userFactor = ITopUpHandler(topUpHandler).getUserFactor(account);\n\n        // ensure that the position is actually below its set user factor threshold\n        require(vars.userFactor < position.threshold, Error.INSUFFICIENT_THRESHOLD);\n\n        IGasBank gasBank = addressProvider.getGasBank();\n\n        // fail early if the user does not have enough funds in the gas bank\n        // to cover the cost of the transaction\n        vars.estimatedRequiredGas = getEstimatedGasUsage();\n        vars.estimatedRequiredWeiForGas = vars.estimatedRequiredGas * tx.gasprice;\n\n        // compute the gas price that the user will be paying\n        vars.userGasPrice = block.basefee + position.priorityFee;\n        if (vars.userGasPrice > tx.gasprice) vars.userGasPrice = tx.gasprice;\n        if (vars.userGasPrice > position.maxFee) vars.userGasPrice = position.maxFee;\n\n        // ensure the current position allows for the gas to be paid\n        require(\n            vars.estimatedRequiredWeiForGas <=\n                vars.estimatedRequiredGas * vars.userGasPrice + maxWeiForGas,\n            Error.ESTIMATED_GAS_TOO_HIGH\n        );\n\n        vars.gasBankBalance = gasBank.balanceOf(payer);\n        // ensure the user has enough funds in the gas bank to cover the gas\n        require(\n            vars.gasBankBalance + maxWeiForGas >= vars.estimatedRequiredWeiForGas,\n            Error.GAS_BANK_BALANCE_TOO_LOW\n        );\n\n        vars.totalTopUpAmount = position.totalTopUpAmount;\n        vars.actionFee = getActionFee();\n        // add top-up fees to top-up amount\n        vars.minActionAmountToTopUp = position.singleTopUpAmount;\n        vars.actionAmountWithFees = vars.minActionAmountToTopUp.scaledMul(\n            ScaledMath.ONE + vars.actionFee\n        );\n\n        // if the amount that we want to top-up (including fees) is higher than\n        // the available topup amount, we lower this down to what is left of the position\n        if (vars.actionAmountWithFees > vars.totalTopUpAmount) {\n            vars.actionAmountWithFees = vars.totalTopUpAmount;\n            vars.minActionAmountToTopUp = vars.actionAmountWithFees.scaledDiv(\n                ScaledMath.ONE + vars.actionFee\n            );\n        }\n        ILiquidityPool pool = addressProvider.getPoolForToken(position.depositToken);\n        vars.underlying = pool.getUnderlying();\n        vars.rate = pool.exchangeRate();\n\n        ISwapper swapper;\n\n        if (vars.underlying != position.actionToken) {\n            swapper = _getSwapper(vars.underlying, position.actionToken);\n            vars.rate = vars.rate.scaledMul(swapper.getRate(vars.underlying, position.actionToken));\n        }\n\n        // compute the deposit tokens amount with and without fees\n        // we will need to unstake the amount with fees and to\n        // swap the amount without fees into action tokens\n        vars.depositAmountWithFees = vars.actionAmountWithFees.scaledDivRoundUp(vars.rate);\n        if (position.depositTokenBalance < vars.depositAmountWithFees) {\n            vars.depositAmountWithFees = position.depositTokenBalance;\n            vars.minActionAmountToTopUp =\n                (vars.depositAmountWithFees * vars.rate) /\n                (ScaledMath.ONE + vars.actionFee);\n        }\n\n        // compute amount of LP tokens needed to pay for action\n        // rate is expressed in actionToken per depositToken\n        vars.depositAmountWithoutFees = vars.minActionAmountToTopUp.scaledDivRoundUp(vars.rate);\n        vars.depositTotalFeesAmount = vars.depositAmountWithFees - vars.depositAmountWithoutFees;\n\n        // will revert if vault does not exist\n        address vault = addressProvider.getStakerVault(position.depositToken);\n\n        // unstake deposit tokens including fees\n        IStakerVault(vault).unstake(vars.depositAmountWithFees);\n        IStakerVault(vault).decreaseActionLockedBalance(payer, vars.depositAmountWithFees);\n\n        // swap the amount without the fees\n        // as the fees are paid in deposit token, not in action token\n        // Redeem first and use swapper only if the underlying tokens are not action tokens\n        vars.actionTokenAmount = pool.redeem(vars.depositAmountWithoutFees);\n\n        if (address(swapper) != address(0)) {\n            vars.minActionAmountToTopUp = vars.minActionAmountToTopUp.scaledMul(\n                getSwapperSlippage()\n            );\n            _approve(vars.underlying, address(swapper));\n            vars.actionTokenAmount = swapper.swap(\n                vars.underlying,\n                position.actionToken,\n                vars.actionTokenAmount,\n                vars.minActionAmountToTopUp\n            );\n        }\n\n        // compute how much of action token was actually redeemed and add fees to it\n        // this is to ensure that no funds get locked inside the contract\n        vars.totalActionTokenAmount =\n            vars.actionTokenAmount +\n            vars.depositTotalFeesAmount.scaledMul(vars.rate);\n\n        // at this point, we have exactly `vars.actionTokenAmount`\n        // (at least `position.singleTopUpAmount`) of action token\n        // and exactly `vars.depositTotalFeesAmount` deposit tokens in the contract\n        // solhint-disable-next-line avoid-low-level-calls\n        (vars.success, vars.topupResult) = topUpHandler.delegatecall(\n            abi.encodeWithSignature(\n                \"topUp(address,address,uint256,bool)\",\n                account,\n                position.actionToken,\n                vars.actionTokenAmount,\n                position.repayDebt\n            )\n        );\n\n        require(vars.success && abi.decode(vars.topupResult, (bool)), Error.TOP_UP_FAILED);\n\n        // totalTopUpAmount is updated to reflect the new \"balance\" of the position\n        if (vars.totalTopUpAmount > vars.totalActionTokenAmount) {\n            position.totalTopUpAmount -= uint128(vars.totalActionTokenAmount);\n        } else {\n            position.totalTopUpAmount = 0;\n        }\n\n        position.depositTokenBalance -= uint128(vars.depositAmountWithFees);\n\n        vars.removePosition = position.totalTopUpAmount == 0 || position.depositTokenBalance == 0;\n        _payFees(payer, beneficiary, vars.depositTotalFeesAmount, position.depositToken);\n        if (vars.removePosition) {\n            if (position.depositTokenBalance > 0) {\n                // transfer any unused locked tokens to the payer\n                IStakerVault(vault).transfer(payer, position.depositTokenBalance);\n                IStakerVault(vault).decreaseActionLockedBalance(\n                    payer,\n                    position.depositTokenBalance\n                );\n            }\n            _removePosition(payer, account, protocol);\n        }\n\n        emit TopUp(\n            account,\n            protocol,\n            payer,\n            position.depositToken,\n            vars.depositAmountWithFees,\n            position.actionToken,\n            vars.actionTokenAmount\n        );\n\n        // compute gas used and reimburse the keeper by using the\n        // funds of payer in the gas bank\n        // TODO: add constant gas consumed for transfer and tx prologue\n        vars.gasConsumed = vars.initialGas - gasleft();\n\n        vars.reimbursedWeiForGas = vars.userGasPrice * vars.gasConsumed;\n        if (vars.reimbursedWeiForGas > vars.gasBankBalance) {\n            vars.reimbursedWeiForGas = vars.gasBankBalance;\n        }\n\n        // ensure that the keeper is not overpaying\n        vars.requiredWeiForGas = tx.gasprice * vars.gasConsumed;\n        require(\n            vars.reimbursedWeiForGas + maxWeiForGas >= vars.requiredWeiForGas,\n            Error.GAS_TOO_HIGH\n        );\n        gasBank.withdrawFrom(payer, payable(msg.sender), vars.reimbursedWeiForGas);\n        if (vars.removePosition) {\n            gasBank.withdrawUnused(payer);\n        }\n\n        return true;\n    }\n\n    /**\n     * @notice Prepare new top up handler fee update.\n     * @dev Setting the addres to 0 means that the protocol will no longer be supported.\n     * @param protocol Protocol for which a new handler should be prepared.\n     * @param newHandler Address of new handler.\n     * @return `true` if success.\n     */\n    function prepareTopUpHandler(bytes32 protocol, address newHandler)\n        public\n        onlyGovernance\n        returns (bool)\n    {\n        return _prepare(_getProtocolKey(protocol), newHandler);\n    }\n\n    /**\n     * @notice Check if action can be executed.\n     * @param protocol for which to get the health factor\n     * @param account for which to get the health factor\n     * @return healthFactor of the position\n     */\n    function getHealthFactor(bytes32 protocol, address account)\n        public\n        view\n        override\n        returns (uint256 healthFactor)\n    {\n        ITopUpHandler topUpHandler = ITopUpHandler(_getHandler(protocol, true));\n        return topUpHandler.getUserFactor(account);\n    }\n\n    function getHandler(bytes32 protocol) public view override returns (address) {\n        return _getHandler(protocol, false);\n    }\n\n    /**\n     * @notice returns the current estimated gas usage\n     */\n    function getEstimatedGasUsage() public view returns (uint256) {\n        return currentUInts256[_ESTIMATED_GAS_USAGE_KEY];\n    }\n\n    /**\n     * @notice Returns the current action fee\n     */\n    function getActionFee() public view override returns (uint256) {\n        return currentUInts256[_ACTION_FEE_KEY];\n    }\n\n    /**\n     * @notice Returns the current max swapper slippage\n     */\n    function getSwapperSlippage() public view override returns (uint256) {\n        return currentUInts256[_MAX_SWAPPER_SLIPPAGE_KEY];\n    }\n\n    /**\n     * @notice Returns the current fee handler\n     */\n    function getFeeHandler() public view override returns (address) {\n        return currentAddresses[_FEE_HANDLER_KEY];\n    }\n\n    /**\n     * @notice Get the record for a position.\n     * @param payer Registered payer of the position.\n     * @param account Address holding the position.\n     * @param protocol Protocol where the position is held.\n     */\n    function getPosition(\n        address payer,\n        address account,\n        bytes32 protocol\n    ) public view override returns (Record memory) {\n        return _positions[payer][account][protocol];\n    }\n\n    /**\n     * @notice Check whether a token is usable as a deposit token.\n     * @param token Address of token to check.\n     * @return True if token is usable as a deposit token for this action.\n     */\n    function isUsable(address token) public view override returns (bool) {\n        return _usableTokens.contains(token);\n    }\n\n    function _updateTopUpHandler(\n        bytes32 protocol,\n        address oldHandler,\n        address newHandler\n    ) internal {\n        if (newHandler == address(0)) {\n            _supportedProtocols.remove(protocol);\n        } else if (oldHandler == address(0)) {\n            _supportedProtocols.add(protocol);\n        }\n    }\n\n    /**\n     * @dev Pays fees to the feeHandler\n     * @param payer The account who's position the fees are charged on\n     * @param beneficiary The beneficiary of the fees paid (usually this will be the keeper)\n     * @param feeAmount The amount in tokens to pay as fees\n     * @param depositToken The LpToken used to pay the fees\n     */\n    function _payFees(\n        address payer,\n        address beneficiary,\n        uint256 feeAmount,\n        address depositToken\n    ) internal {\n        address feeHandler = getFeeHandler();\n        IERC20(depositToken).safeApprove(feeHandler, feeAmount);\n        IActionFeeHandler(feeHandler).payFees(payer, beneficiary, feeAmount, depositToken);\n    }\n\n    /**\n     * @dev \"Locks\" an amount of tokens on behalf of the TopUpAction\n     * Funds are taken from staker vault if allowance is sufficient, else direct transfer or a combination of both.\n     * @param payer Owner of the funds to be locked\n     * @param token Token to lock\n     * @param lockAmount Minimum amount of `token` to lock\n     * @param depositAmount Amount of `token` that was deposited.\n     *                      If this is 0 then the staker vault allowance should be used.\n     *                      If this is greater than `requiredAmount` more tokens will be locked.\n     */\n    function _lockFunds(\n        address payer,\n        address token,\n        uint256 lockAmount,\n        uint256 depositAmount\n    ) internal {\n        address stakerVaultAddress = addressProvider.getStakerVault(token);\n        TopUpActionLibrary.lockFunds(stakerVaultAddress, payer, token, lockAmount, depositAmount);\n    }\n\n    function _removePosition(\n        address payer,\n        address account,\n        bytes32 protocol\n    ) internal {\n        delete _positions[payer][account][protocol];\n        _removeUserPosition(payer, account, protocol);\n        if (_userPositions[payer].length == 0) {\n            _usersWithPositions.remove(payer);\n        }\n        emit Deregister(payer, account, protocol);\n    }\n\n    function _removeUserPosition(\n        address payer,\n        address account,\n        bytes32 protocol\n    ) internal {\n        RecordMeta[] storage positionsMeta = _userPositions[payer];\n        uint256 length = positionsMeta.length;\n        for (uint256 i = 0; i < length; i++) {\n            RecordMeta storage positionMeta = positionsMeta[i];\n            if (positionMeta.account == account && positionMeta.protocol == protocol) {\n                positionsMeta[i] = positionsMeta[length - 1];\n                positionsMeta.pop();\n                return;\n            }\n        }\n    }\n\n    /**\n     * @dev Approves infinite spending for the given spender.\n     * @param token The token to approve for.\n     * @param spender The spender to approve.\n     */\n    function _approve(address token, address spender) internal {\n        if (IERC20(token).allowance(address(this), spender) > 0) return;\n        IERC20(token).safeApprove(spender, type(uint256).max);\n    }\n\n    /**\n     * @dev Computes and returns the amount of LP tokens of type `token` that will be received in exchange for an `amount` of the underlying.\n     */\n    function _calcExchangeAmount(\n        address token,\n        address actionToken,\n        uint256 amount\n    ) internal view returns (uint256) {\n        return TopUpActionLibrary.calcExchangeAmount(addressProvider, token, actionToken, amount);\n    }\n\n    function _getSwapper(address underlying, address actionToken) internal view returns (ISwapper) {\n        return TopUpActionLibrary.getSwapper(addressProvider, underlying, actionToken);\n    }\n\n    function _getHandler(bytes32 protocol, bool ensureExists) internal view returns (address) {\n        address handler = currentAddresses[_getProtocolKey(protocol)];\n        require(!ensureExists || handler != address(0), Error.PROTOCOL_NOT_FOUND);\n        return handler;\n    }\n\n    function _isSwappable(address depositToken, address toToken) internal view returns (bool) {\n        ILiquidityPool pool = addressProvider.getPoolForToken(depositToken);\n        address underlying = pool.getUnderlying();\n        if (underlying == toToken) {\n            return true;\n        }\n        address swapperRegistry = addressProvider.getSwapperRegistry();\n        return ISwapperRegistry(swapperRegistry).swapperExists(underlying, toToken);\n    }\n\n    function _getProtocolKey(bytes32 protocol) internal pure returns (bytes32) {\n        return keccak256(abi.encodePacked(_TOP_UP_HANDLER_KEY, protocol));\n    }\n}\n","sourcePath":"contracts/actions/topup/TopUpAction.sol","type":"library","deployment":{"address":"0xaAcF57Be89400F33A831e0eACE956Bad653aD468","chainid":"42","blockHeight":30414884}}