{"abi":[{"inputs":[{"internalType":"contract IController","name":"_controller","type":"address"}],"stateMutability":"nonpayable","type":"constructor","name":"constructor"},{"anonymous":false,"inputs":[{"indexed":true,"internalType":"address","name":"account","type":"address"},{"indexed":false,"internalType":"uint256","name":"value","type":"uint256"}],"name":"Deposit","type":"event"},{"anonymous":false,"inputs":[{"indexed":true,"internalType":"address","name":"account","type":"address"},{"indexed":true,"internalType":"address","name":"receiver","type":"address"},{"indexed":false,"internalType":"uint256","name":"value","type":"uint256"}],"name":"Withdraw","type":"event"},{"inputs":[],"name":"addressProvider","outputs":[{"internalType":"contract IAddressProvider","name":"","type":"address"}],"stateMutability":"view","type":"function"},{"inputs":[{"internalType":"address","name":"account","type":"address"}],"name":"balanceOf","outputs":[{"internalType":"uint256","name":"","type":"uint256"}],"stateMutability":"view","type":"function"},{"inputs":[],"name":"controller","outputs":[{"internalType":"contract IController","name":"","type":"address"}],"stateMutability":"view","type":"function"},{"inputs":[{"internalType":"address","name":"account","type":"address"}],"name":"depositFor","outputs":[],"stateMutability":"payable","type":"function"},{"inputs":[{"internalType":"address","name":"account","type":"address"},{"internalType":"uint256","name":"amount","type":"uint256"}],"name":"withdrawFrom","outputs":[],"stateMutability":"nonpayable","type":"function"},{"inputs":[{"internalType":"address","name":"account","type":"address"},{"internalType":"address payable","name":"to","type":"address"},{"internalType":"uint256","name":"amount","type":"uint256"}],"name":"withdrawFrom","outputs":[],"stateMutability":"nonpayable","type":"function"},{"inputs":[{"internalType":"address","name":"account","type":"address"}],"name":"withdrawUnused","outputs":[],"stateMutability":"nonpayable","type":"function"}],"bytecode":"60c060405234801561001057600080fd5b50604051610a80380380610a8083398101604081905261002f916100cf565b806001600160a01b0316632954018c6040518163ffffffff1660e01b815260040160206040518083038186803b15801561006857600080fd5b505afa15801561007c573d6000803e3d6000fd5b505050506040513d601f19601f820116820180604052508101906100a091906100cf565b6001600160a01b0390811660a052166080526100f3565b6001600160a01b03811681146100cc57600080fd5b50565b6000602082840312156100e157600080fd5b81516100ec816100b7565b9392505050565b60805160a05161094d6101336000396000818160870152818161026401526104fd0152600081816101910152818161036401526105ec015261094d6000f3fe6080604052600436106100705760003560e01c80639555a9421161004e5780639555a9421461012c578063aa67c9191461014c578063d49cb0941461015f578063f77c47911461017f57600080fd5b80632954018c1461007557806370a08231146100c65780639470b0bd1461010a575b600080fd5b34801561008157600080fd5b506100a97f000000000000000000000000000000000000000000000000000000000000000081565b6040516001600160a01b0390911681526020015b60405180910390f35b3480156100d257600080fd5b506100fc6100e13660046107b1565b6001600160a01b031660009081526020819052604090205490565b6040519081526020016100bd565b34801561011657600080fd5b5061012a6101253660046107d5565b6101b3565b005b34801561013857600080fd5b5061012a610147366004610801565b6101c2565b61012a61015a3660046107b1565b610458565b34801561016b57600080fd5b5061012a61017a3660046107b1565b6104c6565b34801561018b57600080fd5b506100a97f000000000000000000000000000000000000000000000000000000000000000081565b6101be8283836101c2565b5050565b6001600160a01b03831660009081526020818152604091829020548251808401909352601c83527f6e6f7420656e6f7567682066756e647320746f2077697468647261770000000091830191909152908282101561023c5760405162461bcd60e51b81526004016102339190610842565b60405180910390fd5b50336001600160a01b03851614806102e6575060405163622e68cb60e01b81523360048201527f00000000000000000000000000000000000000000000000000000000000000006001600160a01b03169063622e68cb9060240160206040518083038186803b1580156102ae57600080fd5b505afa1580156102c2573d6000803e3d6000fd5b505050506040513d601f19601f820116820180604052508101906102e69190610897565b60405180604001604052806013815260200172756e617574686f72697a65642061636365737360681b815250906103305760405162461bcd60e51b81526004016102339190610842565b50336001600160a01b0385161415610446576040516394421e8960e01b81526001600160a01b0385811660048301526000917f0000000000000000000000000000000000000000000000000000000000000000909116906394421e899060240160206040518083038186803b1580156103a857600080fd5b505afa1580156103bc573d6000803e3d6000fd5b505050506040513d601f19601f820116820180604052508101906103e091906108b9565b9050806103ed84846108e8565b10156040518060400160405280601c81526020017f6e6f7420656e6f7567682066756e647320746f20776974686472617700000000815250906104435760405162461bcd60e51b81526004016102339190610842565b50505b6104528484848461068c565b50505050565b6001600160a01b038116600090815260208190526040812080543492906104809084906108ff565b90915550506040513481526001600160a01b038216907fe1fffcc4923d04b559f4d29a8bfc6cda04eb5b0d3c460751c2402c5c5cc9109c9060200160405180910390a250565b6001600160a01b0381166000818152602081905260409020549033148061057f575060405163622e68cb60e01b81523360048201527f00000000000000000000000000000000000000000000000000000000000000006001600160a01b03169063622e68cb9060240160206040518083038186803b15801561054757600080fd5b505afa15801561055b573d6000803e3d6000fd5b505050506040513d601f19601f8201168201806040525081019061057f9190610897565b60405180604001604052806013815260200172756e617574686f72697a65642061636365737360681b815250906105c95760405162461bcd60e51b81526004016102339190610842565b506040516394421e8960e01b81526001600160a01b0383811660048301526000917f0000000000000000000000000000000000000000000000000000000000000000909116906394421e899060240160206040518083038186803b15801561063057600080fd5b505afa158015610644573d6000803e3d6000fd5b505050506040513d601f19601f8201168201806040525081019061066891906108b9565b90508082111561068757610687838061068184866108e8565b8561068c565b505050565b61069682826108e8565b6001600160a01b038581166000908152602081905260408082209390935591519085169084908381818185875af1925050503d80600081146106f4576040519150601f19603f3d011682016040523d82523d6000602084013e6106f9565b606091505b50509050806040518060400160405280600f81526020016e1d1c985b9cd9995c8819985a5b1959608a1b815250906107445760405162461bcd60e51b81526004016102339190610842565b50836001600160a01b0316856001600160a01b03167f9b1bfa7fa9ee420a16e124f794c35ac9f90472acc99140eb2f6447c714cad8eb8560405161078a91815260200190565b60405180910390a35050505050565b6001600160a01b03811681146107ae57600080fd5b50565b6000602082840312156107c357600080fd5b81356107ce81610799565b9392505050565b600080604083850312156107e857600080fd5b82356107f381610799565b946020939093013593505050565b60008060006060848603121561081657600080fd5b833561082181610799565b9250602084013561083181610799565b929592945050506040919091013590565b600060208083528351808285015260005b8181101561086f57858101830151858201604001528201610853565b81811115610881576000604083870101525b50601f01601f1916929092016040019392505050565b6000602082840312156108a957600080fd5b815180151581146107ce57600080fd5b6000602082840312156108cb57600080fd5b5051919050565b634e487b7160e01b600052601160045260246000fd5b6000828210156108fa576108fa6108d2565b500390565b60008219821115610912576109126108d2565b50019056fea2646970667358221220144ed32436ab355f8c47ecd890157b666a9864013aafd81e38e58b56fb41615764736f6c63430008090033","bytecodeSha1":"1843e33b242db5afe3a5bc77668ead8c261e9380","compiler":{"evm_version":"london","optimizer":{"enabled":true,"runs":200},"version":"0.8.9+commit.e5eed63a"},"contractName":"GasBank","language":"Solidity","natspec":{"kind":"dev","methods":{"balanceOf(address)":{"returns":{"_0":"the balance of `account`"}},"depositFor(address)":{"notice":"Deposit `msg.value` on behalf of `account`"},"withdrawFrom(address,address,uint256)":{"notice":"Withdraws `amount` on behalf of `account` and send to `to`"},"withdrawFrom(address,uint256)":{"notice":"Withdraws `amount` from `account`"},"withdrawUnused(address)":{"notice":"Withdraws amount not required by any action"}},"version":1},"opcodes":"PUSH1 0x80 PUSH1 0x40 MSTORE PUSH1 0x4 CALLDATASIZE LT PUSH2 0x70 JUMPI PUSH1 0x0 CALLDATALOAD PUSH1 0xE0 SHR DUP1 PUSH4 0x9555A942 GT PUSH2 0x4E JUMPI DUP1 PUSH4 0x9555A942 EQ PUSH2 0x12C JUMPI DUP1 PUSH4 0xAA67C919 EQ PUSH2 0x14C JUMPI DUP1 PUSH4 0xD49CB094 EQ PUSH2 0x15F JUMPI DUP1 PUSH4 0xF77C4791 EQ PUSH2 0x17F JUMPI PUSH1 0x0 DUP1 REVERT JUMPDEST DUP1 PUSH4 0x2954018C EQ PUSH2 0x75 JUMPI DUP1 PUSH4 0x70A08231 EQ PUSH2 0xC6 JUMPI DUP1 PUSH4 0x9470B0BD EQ PUSH2 0x10A JUMPI JUMPDEST PUSH1 0x0 DUP1 REVERT JUMPDEST CALLVALUE DUP1 ISZERO PUSH2 0x81 JUMPI PUSH1 0x0 DUP1 REVERT JUMPDEST POP PUSH2 0xA9 PUSH32 0x0 DUP2 JUMP JUMPDEST PUSH1 0x40 MLOAD PUSH1 0x1 PUSH1 0x1 PUSH1 0xA0 SHL SUB SWAP1 SWAP2 AND DUP2 MSTORE PUSH1 0x20 ADD JUMPDEST PUSH1 0x40 MLOAD DUP1 SWAP2 SUB SWAP1 RETURN JUMPDEST CALLVALUE DUP1 ISZERO PUSH2 0xD2 JUMPI PUSH1 0x0 DUP1 REVERT JUMPDEST POP PUSH2 0xFC PUSH2 0xE1 CALLDATASIZE PUSH1 0x4 PUSH2 0x7B1 JUMP JUMPDEST PUSH1 0x1 PUSH1 0x1 PUSH1 0xA0 SHL SUB AND PUSH1 0x0 SWAP1 DUP2 MSTORE PUSH1 0x20 DUP2 SWAP1 MSTORE PUSH1 0x40 SWAP1 KECCAK256 SLOAD SWAP1 JUMP JUMPDEST PUSH1 0x40 MLOAD SWAP1 DUP2 MSTORE PUSH1 0x20 ADD PUSH2 0xBD JUMP JUMPDEST CALLVALUE DUP1 ISZERO PUSH2 0x116 JUMPI PUSH1 0x0 DUP1 REVERT JUMPDEST POP PUSH2 0x12A PUSH2 0x125 CALLDATASIZE PUSH1 0x4 PUSH2 0x7D5 JUMP JUMPDEST PUSH2 0x1B3 JUMP JUMPDEST STOP JUMPDEST CALLVALUE DUP1 ISZERO PUSH2 0x138 JUMPI PUSH1 0x0 DUP1 REVERT JUMPDEST POP PUSH2 0x12A PUSH2 0x147 CALLDATASIZE PUSH1 0x4 PUSH2 0x801 JUMP JUMPDEST PUSH2 0x1C2 JUMP JUMPDEST PUSH2 0x12A PUSH2 0x15A CALLDATASIZE PUSH1 0x4 PUSH2 0x7B1 JUMP JUMPDEST PUSH2 0x458 JUMP JUMPDEST CALLVALUE DUP1 ISZERO PUSH2 0x16B JUMPI PUSH1 0x0 DUP1 REVERT JUMPDEST POP PUSH2 0x12A PUSH2 0x17A CALLDATASIZE PUSH1 0x4 PUSH2 0x7B1 JUMP JUMPDEST PUSH2 0x4C6 JUMP JUMPDEST CALLVALUE DUP1 ISZERO PUSH2 0x18B JUMPI PUSH1 0x0 DUP1 REVERT JUMPDEST POP PUSH2 0xA9 PUSH32 0x0 DUP2 JUMP JUMPDEST PUSH2 0x1BE DUP3 DUP4 DUP4 PUSH2 0x1C2 JUMP JUMPDEST POP POP JUMP JUMPDEST PUSH1 0x1 PUSH1 0x1 PUSH1 0xA0 SHL SUB DUP4 AND PUSH1 0x0 SWAP1 DUP2 MSTORE PUSH1 0x20 DUP2 DUP2 MSTORE PUSH1 0x40 SWAP2 DUP3 SWAP1 KECCAK256 SLOAD DUP3 MLOAD DUP1 DUP5 ADD SWAP1 SWAP4 MSTORE PUSH1 0x1C DUP4 MSTORE PUSH32 0x6E6F7420656E6F7567682066756E647320746F20776974686472617700000000 SWAP2 DUP4 ADD SWAP2 SWAP1 SWAP2 MSTORE SWAP1 DUP3 DUP3 LT ISZERO PUSH2 0x23C JUMPI PUSH1 0x40 MLOAD PUSH3 0x461BCD PUSH1 0xE5 SHL DUP2 MSTORE PUSH1 0x4 ADD PUSH2 0x233 SWAP2 SWAP1 PUSH2 0x842 JUMP JUMPDEST PUSH1 0x40 MLOAD DUP1 SWAP2 SUB SWAP1 REVERT JUMPDEST POP CALLER PUSH1 0x1 PUSH1 0x1 PUSH1 0xA0 SHL SUB DUP6 AND EQ DUP1 PUSH2 0x2E6 JUMPI POP PUSH1 0x40 MLOAD PUSH4 0x622E68CB PUSH1 0xE0 SHL DUP2 MSTORE CALLER PUSH1 0x4 DUP3 ADD MSTORE PUSH32 0x0 PUSH1 0x1 PUSH1 0x1 PUSH1 0xA0 SHL SUB AND SWAP1 PUSH4 0x622E68CB SWAP1 PUSH1 0x24 ADD PUSH1 0x20 PUSH1 0x40 MLOAD DUP1 DUP4 SUB DUP2 DUP7 DUP1 EXTCODESIZE ISZERO DUP1 ISZERO PUSH2 0x2AE JUMPI PUSH1 0x0 DUP1 REVERT JUMPDEST POP GAS STATICCALL ISZERO DUP1 ISZERO PUSH2 0x2C2 JUMPI RETURNDATASIZE PUSH1 0x0 DUP1 RETURNDATACOPY RETURNDATASIZE PUSH1 0x0 REVERT JUMPDEST POP POP POP POP PUSH1 0x40 MLOAD RETURNDATASIZE PUSH1 0x1F NOT PUSH1 0x1F DUP3 ADD AND DUP3 ADD DUP1 PUSH1 0x40 MSTORE POP DUP2 ADD SWAP1 PUSH2 0x2E6 SWAP2 SWAP1 PUSH2 0x897 JUMP JUMPDEST PUSH1 0x40 MLOAD DUP1 PUSH1 0x40 ADD PUSH1 0x40 MSTORE DUP1 PUSH1 0x13 DUP2 MSTORE PUSH1 0x20 ADD PUSH19 0x756E617574686F72697A656420616363657373 PUSH1 0x68 SHL DUP2 MSTORE POP SWAP1 PUSH2 0x330 JUMPI PUSH1 0x40 MLOAD PUSH3 0x461BCD PUSH1 0xE5 SHL DUP2 MSTORE PUSH1 0x4 ADD PUSH2 0x233 SWAP2 SWAP1 PUSH2 0x842 JUMP JUMPDEST POP CALLER PUSH1 0x1 PUSH1 0x1 PUSH1 0xA0 SHL SUB DUP6 AND EQ ISZERO PUSH2 0x446 JUMPI PUSH1 0x40 MLOAD PUSH4 0x94421E89 PUSH1 0xE0 SHL DUP2 MSTORE PUSH1 0x1 PUSH1 0x1 PUSH1 0xA0 SHL SUB DUP6 DUP2 AND PUSH1 0x4 DUP4 ADD MSTORE PUSH1 0x0 SWAP2 PUSH32 0x0 SWAP1 SWAP2 AND SWAP1 PUSH4 0x94421E89 SWAP1 PUSH1 0x24 ADD PUSH1 0x20 PUSH1 0x40 MLOAD DUP1 DUP4 SUB DUP2 DUP7 DUP1 EXTCODESIZE ISZERO DUP1 ISZERO PUSH2 0x3A8 JUMPI PUSH1 0x0 DUP1 REVERT JUMPDEST POP GAS STATICCALL ISZERO DUP1 ISZERO PUSH2 0x3BC JUMPI RETURNDATASIZE PUSH1 0x0 DUP1 RETURNDATACOPY RETURNDATASIZE PUSH1 0x0 REVERT JUMPDEST POP POP POP POP PUSH1 0x40 MLOAD RETURNDATASIZE PUSH1 0x1F NOT PUSH1 0x1F DUP3 ADD AND DUP3 ADD DUP1 PUSH1 0x40 MSTORE POP DUP2 ADD SWAP1 PUSH2 0x3E0 SWAP2 SWAP1 PUSH2 0x8B9 JUMP JUMPDEST SWAP1 POP DUP1 PUSH2 0x3ED DUP5 DUP5 PUSH2 0x8E8 JUMP JUMPDEST LT ISZERO PUSH1 0x40 MLOAD DUP1 PUSH1 0x40 ADD PUSH1 0x40 MSTORE DUP1 PUSH1 0x1C DUP2 MSTORE PUSH1 0x20 ADD PUSH32 0x6E6F7420656E6F7567682066756E647320746F20776974686472617700000000 DUP2 MSTORE POP SWAP1 PUSH2 0x443 JUMPI PUSH1 0x40 MLOAD PUSH3 0x461BCD PUSH1 0xE5 SHL DUP2 MSTORE PUSH1 0x4 ADD PUSH2 0x233 SWAP2 SWAP1 PUSH2 0x842 JUMP JUMPDEST POP POP JUMPDEST PUSH2 0x452 DUP5 DUP5 DUP5 DUP5 PUSH2 0x68C JUMP JUMPDEST POP POP POP POP JUMP JUMPDEST PUSH1 0x1 PUSH1 0x1 PUSH1 0xA0 SHL SUB DUP2 AND PUSH1 0x0 SWAP1 DUP2 MSTORE PUSH1 0x20 DUP2 SWAP1 MSTORE PUSH1 0x40 DUP2 KECCAK256 DUP1 SLOAD CALLVALUE SWAP3 SWAP1 PUSH2 0x480 SWAP1 DUP5 SWAP1 PUSH2 0x8FF JUMP JUMPDEST SWAP1 SWAP2 SSTORE POP POP PUSH1 0x40 MLOAD CALLVALUE DUP2 MSTORE PUSH1 0x1 PUSH1 0x1 PUSH1 0xA0 SHL SUB DUP3 AND SWAP1 PUSH32 0xE1FFFCC4923D04B559F4D29A8BFC6CDA04EB5B0D3C460751C2402C5C5CC9109C SWAP1 PUSH1 0x20 ADD PUSH1 0x40 MLOAD DUP1 SWAP2 SUB SWAP1 LOG2 POP JUMP JUMPDEST PUSH1 0x1 PUSH1 0x1 PUSH1 0xA0 SHL SUB DUP2 AND PUSH1 0x0 DUP2 DUP2 MSTORE PUSH1 0x20 DUP2 SWAP1 MSTORE PUSH1 0x40 SWAP1 KECCAK256 SLOAD SWAP1 CALLER EQ DUP1 PUSH2 0x57F JUMPI POP PUSH1 0x40 MLOAD PUSH4 0x622E68CB PUSH1 0xE0 SHL DUP2 MSTORE CALLER PUSH1 0x4 DUP3 ADD MSTORE PUSH32 0x0 PUSH1 0x1 PUSH1 0x1 PUSH1 0xA0 SHL SUB AND SWAP1 PUSH4 0x622E68CB SWAP1 PUSH1 0x24 ADD PUSH1 0x20 PUSH1 0x40 MLOAD DUP1 DUP4 SUB DUP2 DUP7 DUP1 EXTCODESIZE ISZERO DUP1 ISZERO PUSH2 0x547 JUMPI PUSH1 0x0 DUP1 REVERT JUMPDEST POP GAS STATICCALL ISZERO DUP1 ISZERO PUSH2 0x55B JUMPI RETURNDATASIZE PUSH1 0x0 DUP1 RETURNDATACOPY RETURNDATASIZE PUSH1 0x0 REVERT JUMPDEST POP POP POP POP PUSH1 0x40 MLOAD RETURNDATASIZE PUSH1 0x1F NOT PUSH1 0x1F DUP3 ADD AND DUP3 ADD DUP1 PUSH1 0x40 MSTORE POP DUP2 ADD SWAP1 PUSH2 0x57F SWAP2 SWAP1 PUSH2 0x897 JUMP JUMPDEST PUSH1 0x40 MLOAD DUP1 PUSH1 0x40 ADD PUSH1 0x40 MSTORE DUP1 PUSH1 0x13 DUP2 MSTORE PUSH1 0x20 ADD PUSH19 0x756E617574686F72697A656420616363657373 PUSH1 0x68 SHL DUP2 MSTORE POP SWAP1 PUSH2 0x5C9 JUMPI PUSH1 0x40 MLOAD PUSH3 0x461BCD PUSH1 0xE5 SHL DUP2 MSTORE PUSH1 0x4 ADD PUSH2 0x233 SWAP2 SWAP1 PUSH2 0x842 JUMP JUMPDEST POP PUSH1 0x40 MLOAD PUSH4 0x94421E89 PUSH1 0xE0 SHL DUP2 MSTORE PUSH1 0x1 PUSH1 0x1 PUSH1 0xA0 SHL SUB DUP4 DUP2 AND PUSH1 0x4 DUP4 ADD MSTORE PUSH1 0x0 SWAP2 PUSH32 0x0 SWAP1 SWAP2 AND SWAP1 PUSH4 0x94421E89 SWAP1 PUSH1 0x24 ADD PUSH1 0x20 PUSH1 0x40 MLOAD DUP1 DUP4 SUB DUP2 DUP7 DUP1 EXTCODESIZE ISZERO DUP1 ISZERO PUSH2 0x630 JUMPI PUSH1 0x0 DUP1 REVERT JUMPDEST POP GAS STATICCALL ISZERO DUP1 ISZERO PUSH2 0x644 JUMPI RETURNDATASIZE PUSH1 0x0 DUP1 RETURNDATACOPY RETURNDATASIZE PUSH1 0x0 REVERT JUMPDEST POP POP POP POP PUSH1 0x40 MLOAD RETURNDATASIZE PUSH1 0x1F NOT PUSH1 0x1F DUP3 ADD AND DUP3 ADD DUP1 PUSH1 0x40 MSTORE POP DUP2 ADD SWAP1 PUSH2 0x668 SWAP2 SWAP1 PUSH2 0x8B9 JUMP JUMPDEST SWAP1 POP DUP1 DUP3 GT ISZERO PUSH2 0x687 JUMPI PUSH2 0x687 DUP4 DUP1 PUSH2 0x681 DUP5 DUP7 PUSH2 0x8E8 JUMP JUMPDEST DUP6 PUSH2 0x68C JUMP JUMPDEST POP POP POP JUMP JUMPDEST PUSH2 0x696 DUP3 DUP3 PUSH2 0x8E8 JUMP JUMPDEST PUSH1 0x1 PUSH1 0x1 PUSH1 0xA0 SHL SUB DUP6 DUP2 AND PUSH1 0x0 SWAP1 DUP2 MSTORE PUSH1 0x20 DUP2 SWAP1 MSTORE PUSH1 0x40 DUP1 DUP3 KECCAK256 SWAP4 SWAP1 SWAP4 SSTORE SWAP2 MLOAD SWAP1 DUP6 AND SWAP1 DUP5 SWAP1 DUP4 DUP2 DUP2 DUP2 DUP6 DUP8 GAS CALL SWAP3 POP POP POP RETURNDATASIZE DUP1 PUSH1 0x0 DUP2 EQ PUSH2 0x6F4 JUMPI PUSH1 0x40 MLOAD SWAP2 POP PUSH1 0x1F NOT PUSH1 0x3F RETURNDATASIZE ADD AND DUP3 ADD PUSH1 0x40 MSTORE RETURNDATASIZE DUP3 MSTORE RETURNDATASIZE PUSH1 0x0 PUSH1 0x20 DUP5 ADD RETURNDATACOPY PUSH2 0x6F9 JUMP JUMPDEST PUSH1 0x60 SWAP2 POP JUMPDEST POP POP SWAP1 POP DUP1 PUSH1 0x40 MLOAD DUP1 PUSH1 0x40 ADD PUSH1 0x40 MSTORE DUP1 PUSH1 0xF DUP2 MSTORE PUSH1 0x20 ADD PUSH15 0x1D1C985B9CD9995C8819985A5B1959 PUSH1 0x8A SHL DUP2 MSTORE POP SWAP1 PUSH2 0x744 JUMPI PUSH1 0x40 MLOAD PUSH3 0x461BCD PUSH1 0xE5 SHL DUP2 MSTORE PUSH1 0x4 ADD PUSH2 0x233 SWAP2 SWAP1 PUSH2 0x842 JUMP JUMPDEST POP DUP4 PUSH1 0x1 PUSH1 0x1 PUSH1 0xA0 SHL SUB AND DUP6 PUSH1 0x1 PUSH1 0x1 PUSH1 0xA0 SHL SUB AND PUSH32 0x9B1BFA7FA9EE420A16E124F794C35AC9F90472ACC99140EB2F6447C714CAD8EB DUP6 PUSH1 0x40 MLOAD PUSH2 0x78A SWAP2 DUP2 MSTORE PUSH1 0x20 ADD SWAP1 JUMP JUMPDEST PUSH1 0x40 MLOAD DUP1 SWAP2 SUB SWAP1 LOG3 POP POP POP POP POP JUMP JUMPDEST PUSH1 0x1 PUSH1 0x1 PUSH1 0xA0 SHL SUB DUP2 AND DUP2 EQ PUSH2 0x7AE JUMPI PUSH1 0x0 DUP1 REVERT JUMPDEST POP JUMP JUMPDEST PUSH1 0x0 PUSH1 0x20 DUP3 DUP5 SUB SLT ISZERO PUSH2 0x7C3 JUMPI PUSH1 0x0 DUP1 REVERT JUMPDEST DUP2 CALLDATALOAD PUSH2 0x7CE DUP2 PUSH2 0x799 JUMP JUMPDEST SWAP4 SWAP3 POP POP POP JUMP JUMPDEST PUSH1 0x0 DUP1 PUSH1 0x40 DUP4 DUP6 SUB SLT ISZERO PUSH2 0x7E8 JUMPI PUSH1 0x0 DUP1 REVERT JUMPDEST DUP3 CALLDATALOAD PUSH2 0x7F3 DUP2 PUSH2 0x799 JUMP JUMPDEST SWAP5 PUSH1 0x20 SWAP4 SWAP1 SWAP4 ADD CALLDATALOAD SWAP4 POP POP POP JUMP JUMPDEST PUSH1 0x0 DUP1 PUSH1 0x0 PUSH1 0x60 DUP5 DUP7 SUB SLT ISZERO PUSH2 0x816 JUMPI PUSH1 0x0 DUP1 REVERT JUMPDEST DUP4 CALLDATALOAD PUSH2 0x821 DUP2 PUSH2 0x799 JUMP JUMPDEST SWAP3 POP PUSH1 0x20 DUP5 ADD CALLDATALOAD PUSH2 0x831 DUP2 PUSH2 0x799 JUMP JUMPDEST SWAP3 SWAP6 SWAP3 SWAP5 POP POP POP PUSH1 0x40 SWAP2 SWAP1 SWAP2 ADD CALLDATALOAD SWAP1 JUMP JUMPDEST PUSH1 0x0 PUSH1 0x20 DUP1 DUP4 MSTORE DUP4 MLOAD DUP1 DUP3 DUP6 ADD MSTORE PUSH1 0x0 JUMPDEST DUP2 DUP2 LT ISZERO PUSH2 0x86F JUMPI DUP6 DUP2 ADD DUP4 ADD MLOAD DUP6 DUP3 ADD PUSH1 0x40 ADD MSTORE DUP3 ADD PUSH2 0x853 JUMP JUMPDEST DUP2 DUP2 GT ISZERO PUSH2 0x881 JUMPI PUSH1 0x0 PUSH1 0x40 DUP4 DUP8 ADD ADD MSTORE JUMPDEST POP PUSH1 0x1F ADD PUSH1 0x1F NOT AND SWAP3 SWAP1 SWAP3 ADD PUSH1 0x40 ADD SWAP4 SWAP3 POP POP POP JUMP JUMPDEST PUSH1 0x0 PUSH1 0x20 DUP3 DUP5 SUB SLT ISZERO PUSH2 0x8A9 JUMPI PUSH1 0x0 DUP1 REVERT JUMPDEST DUP2 MLOAD DUP1 ISZERO ISZERO DUP2 EQ PUSH2 0x7CE JUMPI PUSH1 0x0 DUP1 REVERT JUMPDEST PUSH1 0x0 PUSH1 0x20 DUP3 DUP5 SUB SLT ISZERO PUSH2 0x8CB JUMPI PUSH1 0x0 DUP1 REVERT JUMPDEST POP MLOAD SWAP2 SWAP1 POP JUMP JUMPDEST PUSH4 0x4E487B71 PUSH1 0xE0 SHL PUSH1 0x0 MSTORE PUSH1 0x11 PUSH1 0x4 MSTORE PUSH1 0x24 PUSH1 0x0 REVERT JUMPDEST PUSH1 0x0 DUP3 DUP3 LT ISZERO PUSH2 0x8FA JUMPI PUSH2 0x8FA PUSH2 0x8D2 JUMP JUMPDEST POP SUB SWAP1 JUMP JUMPDEST PUSH1 0x0 DUP3 NOT DUP3 GT ISZERO PUSH2 0x912 JUMPI PUSH2 0x912 PUSH2 0x8D2 JUMP JUMPDEST POP ADD SWAP1 JUMP INVALID LOG2 PUSH5 0x6970667358 0x22 SLT KECCAK256 EQ 0x4E 0xD3 0x24 CALLDATASIZE 0xAB CALLDATALOAD 0x5F DUP13 SELFBALANCE 0xEC 0xD8 SWAP1 ISZERO PUSH28 0x666A9864013AAFD81E38E58B56FB41615764736F6C63430008090033 ","sha1":"3a18553e0ec4d5b8bcbd1d672c1ef5320855c17c","source":"// SPDX-License-Identifier: GPL-3.0-or-later\npragma solidity 0.8.9;\n\nimport \"../libraries/Errors.sol\";\nimport \"../interfaces/IController.sol\";\nimport \"../interfaces/IGasBank.sol\";\n\ncontract GasBank is IGasBank {\n    IController public immutable controller;\n    IAddressProvider public immutable addressProvider;\n\n    /**\n     * @notice Keeps track of the user balances\n     */\n    mapping(address => uint256) internal _balances;\n\n    constructor(IController _controller) {\n        addressProvider = _controller.addressProvider();\n        controller = _controller;\n    }\n\n    /**\n     * @notice Deposit `msg.value` on behalf of `account`\n     */\n    function depositFor(address account) external payable override {\n        _balances[account] += msg.value;\n        emit Deposit(account, msg.value);\n    }\n\n    /**\n     * @notice Withdraws `amount` from `account`\n     */\n    function withdrawFrom(address account, uint256 amount) external override {\n        withdrawFrom(account, payable(account), amount);\n    }\n\n    /**\n     * @notice Withdraws amount not required by any action\n     */\n    function withdrawUnused(address account) external {\n        uint256 currentBalance = _balances[account];\n        require(\n            msg.sender == account || addressProvider.isAction(msg.sender),\n            Error.UNAUTHORIZED_ACCESS\n        );\n        uint256 ethRequired = controller.getTotalEthRequiredForGas(account);\n        if (currentBalance > ethRequired) {\n            _withdrawFrom(account, payable(account), currentBalance - ethRequired, currentBalance);\n        }\n    }\n\n    /**\n     * @return the balance of `account`\n     */\n    function balanceOf(address account) external view override returns (uint256) {\n        return _balances[account];\n    }\n\n    /**\n     * @notice Withdraws `amount` on behalf of `account` and send to `to`\n     */\n    function withdrawFrom(\n        address account,\n        address payable to,\n        uint256 amount\n    ) public override {\n        uint256 currentBalance = _balances[account];\n        require(currentBalance >= amount, Error.NOT_ENOUGH_FUNDS);\n        require(\n            msg.sender == account || addressProvider.isAction(msg.sender),\n            Error.UNAUTHORIZED_ACCESS\n        );\n\n        if (msg.sender == account) {\n            uint256 ethRequired = controller.getTotalEthRequiredForGas(account);\n            require(currentBalance - amount >= ethRequired, Error.NOT_ENOUGH_FUNDS);\n        }\n        _withdrawFrom(account, to, amount, currentBalance);\n    }\n\n    function _withdrawFrom(\n        address account,\n        address payable to,\n        uint256 amount,\n        uint256 currentBalance\n    ) internal {\n        _balances[account] = currentBalance - amount;\n\n        // solhint-disable-next-line avoid-low-level-calls\n        (bool success, ) = to.call{value: amount}(\"\");\n        require(success, Error.FAILED_TRANSFER);\n\n        emit Withdraw(account, to, amount);\n    }\n}\n","sourcePath":"contracts/GasBank.sol","type":"contract","deployment":{"address":"0xAf908b22EE872D24DaEcf3fcc37C965AeF25bC91","chainid":"42","blockHeight":30414854}}