{"abi":[{"inputs":[{"internalType":"contract IController","name":"_controller","type":"address"}],"stateMutability":"nonpayable","type":"constructor","name":"constructor"},{"anonymous":false,"inputs":[{"indexed":false,"internalType":"bytes32","name":"key","type":"bytes32"},{"indexed":false,"internalType":"bytes32","name":"name","type":"bytes32"},{"indexed":false,"internalType":"address","name":"implementation","type":"address"}],"name":"NewImplementation","type":"event"},{"anonymous":false,"inputs":[{"indexed":false,"internalType":"address","name":"pool","type":"address"},{"indexed":false,"internalType":"address","name":"vault","type":"address"},{"indexed":false,"internalType":"address","name":"lpToken","type":"address"},{"indexed":false,"internalType":"address","name":"stakerVault","type":"address"}],"name":"NewPool","type":"event"},{"inputs":[{"internalType":"bytes32","name":"name","type":"bytes32"},{"internalType":"address","name":"implementation","type":"address"}],"name":"addLpTokenImplementation","outputs":[{"internalType":"bool","name":"","type":"bool"}],"stateMutability":"nonpayable","type":"function"},{"inputs":[{"internalType":"bytes32","name":"name","type":"bytes32"},{"internalType":"address","name":"implementation","type":"address"}],"name":"addPoolImplementation","outputs":[{"internalType":"bool","name":"","type":"bool"}],"stateMutability":"nonpayable","type":"function"},{"inputs":[{"internalType":"bytes32","name":"name","type":"bytes32"},{"internalType":"address","name":"implementation","type":"address"}],"name":"addStakerVaultImplementation","outputs":[{"internalType":"bool","name":"","type":"bool"}],"stateMutability":"nonpayable","type":"function"},{"inputs":[{"internalType":"bytes32","name":"name","type":"bytes32"},{"internalType":"address","name":"implementation","type":"address"}],"name":"addVaultImplementation","outputs":[{"internalType":"bool","name":"","type":"bool"}],"stateMutability":"nonpayable","type":"function"},{"inputs":[],"name":"addressProvider","outputs":[{"internalType":"contract IAddressProvider","name":"","type":"address"}],"stateMutability":"view","type":"function"},{"inputs":[],"name":"controller","outputs":[{"internalType":"contract IController","name":"","type":"address"}],"stateMutability":"view","type":"function"},{"inputs":[{"internalType":"string","name":"poolName","type":"string"},{"internalType":"uint256","name":"depositCap","type":"uint256"},{"internalType":"address","name":"underlying","type":"address"},{"components":[{"internalType":"string","name":"name","type":"string"},{"internalType":"string","name":"symbol","type":"string"},{"internalType":"uint8","name":"decimals","type":"uint8"}],"internalType":"struct PoolFactory.LpTokenArgs","name":"lpTokenArgs","type":"tuple"},{"components":[{"internalType":"uint256","name":"debtLimit","type":"uint256"},{"internalType":"uint256","name":"targetAllocation","type":"uint256"},{"internalType":"uint256","name":"bound","type":"uint256"}],"internalType":"struct PoolFactory.VaultArgs","name":"vaultArgs","type":"tuple"},{"components":[{"internalType":"bytes32","name":"pool","type":"bytes32"},{"internalType":"bytes32","name":"vault","type":"bytes32"},{"internalType":"bytes32","name":"lpToken","type":"bytes32"},{"internalType":"bytes32","name":"stakerVault","type":"bytes32"}],"internalType":"struct PoolFactory.ImplementationNames","name":"implementationNames","type":"tuple"}],"name":"deployPool","outputs":[{"components":[{"internalType":"address","name":"pool","type":"address"},{"internalType":"address","name":"vault","type":"address"},{"internalType":"address","name":"lpToken","type":"address"},{"internalType":"address","name":"stakerVault","type":"address"}],"internalType":"struct PoolFactory.Addresses","name":"addrs","type":"tuple"}],"stateMutability":"nonpayable","type":"function"},{"inputs":[{"internalType":"bytes32","name":"","type":"bytes32"},{"internalType":"bytes32","name":"","type":"bytes32"}],"name":"implementations","outputs":[{"internalType":"address","name":"","type":"address"}],"stateMutability":"view","type":"function"},{"inputs":[],"name":"roleManager","outputs":[{"internalType":"contract IRoleManager","name":"","type":"address"}],"stateMutability":"view","type":"function"}],"bytecode":"60e06040523480156200001157600080fd5b50604051620018fe380380620018fe83398101604081905262000034916200020c565b620000c7816001600160a01b0316632954018c6040518163ffffffff1660e01b815260040160206040518083038186803b1580156200007257600080fd5b505afa15801562000087573d6000803e3d6000fd5b505050506040513d601f19601f82011682018060405250810190620000ad91906200020c565b6001600160a01b03166200016160201b620010511760201c565b6001600160a01b03908116608052811660a081905260408051630a55006360e21b81529051632954018c91600480820192602092909190829003018186803b1580156200011357600080fd5b505afa15801562000128573d6000803e3d6000fd5b505050506040513d601f19601f820116820180604052508101906200014e91906200020c565b6001600160a01b031660c0525062000233565b6040516321f8a72160e01b81526a3937b632a6b0b730b3b2b960a91b60048201526000906001600160a01b038316906321f8a7219060240160206040518083038186803b158015620001b257600080fd5b505afa158015620001c7573d6000803e3d6000fd5b505050506040513d601f19601f82011682018060405250810190620001ed91906200020c565b92915050565b6001600160a01b03811681146200020957600080fd5b50565b6000602082840312156200021f57600080fd5b81516200022c81620001f3565b9392505050565b60805160a05160c05161166c620002926000396000818160db0152610f750152600081816101e50152610d6101526000818160990152818161020b015281816103270152818161043401528181610544015261067a015261166c6000f3fe608060405234801561001057600080fd5b50600436106100925760003560e01c806393ade8e71161006657806393ade8e714610133578063bbbaf17214610146578063d74009b214610159578063f6b6af7d146101af578063f77c4791146101e057600080fd5b8062435da5146100975780632954018c146100d6578063327bea89146100fd57806334e6cbad14610120575b600080fd5b7f00000000000000000000000000000000000000000000000000000000000000005b6040516001600160a01b0390911681526020015b60405180910390f35b6100b97f000000000000000000000000000000000000000000000000000000000000000081565b61011061010b366004611243565b610207565b60405190151581526020016100cd565b61011061012e366004611243565b610323565b610110610141366004611243565b610430565b610110610154366004611243565b610540565b61016c61016736600461129d565b610654565b6040516100cd919081516001600160a01b039081168252602080840151821690830152604080840151821690830152606092830151169181019190915260800190565b6100b96101bd366004611371565b60006020818152928152604080822090935290815220546001600160a01b031681565b6100b97f000000000000000000000000000000000000000000000000000000000000000081565b60007f0000000000000000000000000000000000000000000000000000000000000000604051632474521560e21b815269676f7665726e616e636560b01b60048201523360248201526001600160a01b0391909116906391d148549060440160206040518083038186803b15801561027e57600080fd5b505afa158015610292573d6000803e3d6000fd5b505050506040513d601f19601f820116820180604052508101906102b69190611393565b60405180604001604052806013815260200172756e617574686f72697a65642061636365737360681b815250906103095760405162461bcd60e51b815260040161030091906113b5565b60405180910390fd5b5061031c631c1bdbdb60e21b84846110df565b9392505050565b60007f0000000000000000000000000000000000000000000000000000000000000000604051632474521560e21b815269676f7665726e616e636560b01b60048201523360248201526001600160a01b0391909116906391d148549060440160206040518083038186803b15801561039a57600080fd5b505afa1580156103ae573d6000803e3d6000fd5b505050506040513d601f19601f820116820180604052508101906103d29190611393565b60405180604001604052806013815260200172756e617574686f72697a65642061636365737360681b8152509061041c5760405162461bcd60e51b815260040161030091906113b5565b5061031c641d985d5b1d60da1b84846110df565b60007f0000000000000000000000000000000000000000000000000000000000000000604051632474521560e21b815269676f7665726e616e636560b01b60048201523360248201526001600160a01b0391909116906391d148549060440160206040518083038186803b1580156104a757600080fd5b505afa1580156104bb573d6000803e3d6000fd5b505050506040513d601f19601f820116820180604052508101906104df9190611393565b60405180604001604052806013815260200172756e617574686f72697a65642061636365737360681b815250906105295760405162461bcd60e51b815260040161030091906113b5565b5061031c6736382fba37b5b2b760c11b84846110df565b60007f0000000000000000000000000000000000000000000000000000000000000000604051632474521560e21b815269676f7665726e616e636560b01b60048201523360248201526001600160a01b0391909116906391d148549060440160206040518083038186803b1580156105b757600080fd5b505afa1580156105cb573d6000803e3d6000fd5b505050506040513d601f19601f820116820180604052508101906105ef9190611393565b60405180604001604052806013815260200172756e617574686f72697a65642061636365737360681b815250906106395760405162461bcd60e51b815260040161030091906113b5565b5061031c6b1cdd185ad95c97dd985d5b1d60a21b84846110df565b6040805160808101825260008082526020820181905291810182905260608101919091527f0000000000000000000000000000000000000000000000000000000000000000604051632474521560e21b815269676f7665726e616e636560b01b60048201523360248201526001600160a01b0391909116906391d148549060440160206040518083038186803b1580156106ed57600080fd5b505afa158015610701573d6000803e3d6000fd5b505050506040513d601f19601f820116820180604052508101906107259190611393565b60405180604001604052806013815260200172756e617574686f72697a65642061636365737360681b8152509061076f5760405162461bcd60e51b815260040161030091906113b5565b5060408051608081018252600080825260208083018281528385018390526060808501849052873584527f41c12a0618fd8c91e4bd4c2bad3960a11ca69ecb61096f2afe909d647d705506835292859020546001600160a01b0316908190528451928301909452602a8083529293151592906115ae90830139906108065760405162461bcd60e51b815260040161030091906113b5565b5060408381013560009081527f509576413f2a764e16fca6f55b1b0b59f0c7d685debdb649e7380f6e646f85ec602090815290829020546001600160a01b0316808452825160608101909352602e80845290151592916115d890830139906108815760405162461bcd60e51b815260040161030091906113b5565b5060208381013560009081527f5a91006bbd508b31448de1f8d6457185050e71de2fb28afff373542928e213b98252604090819020546001600160a01b031660608085018290528251908101909252602b8083529015159261158390830139906108fe5760405162461bcd60e51b815260040161030091906113b5565b5060608084013560009081527f2cf082650f22d678d13e32cb83a8e9eb2f601f6cb0dd457ecf139323a1bac1aa6020908152604091829020546001600160a01b031684830181905282519384019092526031808452911515929190611606908301399061097e5760405162461bcd60e51b815260040161030091906113b5565b5061098c8160200151611183565b6001600160a01b0316825260608101516109a590611183565b6001600160a01b0390811660208401528616610b795760006001600160a01b031681602001516001600160a01b0316639816f4736040518163ffffffff1660e01b815260040160206040518083038186803b158015610a0357600080fd5b505afa158015610a17573d6000803e3d6000fd5b505050506040513d601f19601f82011682018060405250810190610a3b919061140a565b6001600160a01b0316146040518060600160405280602a81526020016115ae602a913990610a7c5760405162461bcd60e51b815260040161030091906113b5565b50610a8d6060860160408701611427565b60ff166012146040518060400160405280601c81526020017f696e636f7272656374206e756d626572206f6620646563696d616c730000000081525090610ae75760405162461bcd60e51b815260040161030091906113b5565b5081516020830151604051634f3bddeb60e01b81526001600160a01b0390921691634f3bddeb91610b21918d918d918d9190600401611473565b602060405180830381600087803b158015610b3b57600080fd5b505af1158015610b4f573d6000803e3d6000fd5b505050506040513d601f19601f82011682018060405250810190610b739190611393565b50610c07565b81516020830151604051632ad84a2b60e11b81526001600160a01b03909216916355b0945691610bb3918d918d918c918e916004016114a8565b602060405180830381600087803b158015610bcd57600080fd5b505af1158015610be1573d6000803e3d6000fd5b505050506040513d601f19601f82011682018060405250810190610c059190611393565b505b8051610c1290611183565b6001600160a01b03166040830181905263de7ea79d610c3187806114e6565b610c3e60208a018a6114e6565b610c4e60608c0160408d01611427565b88516040516001600160e01b031960e089901b168152610c7696959493929190600401611534565b602060405180830381600087803b158015610c9057600080fd5b505af1158015610ca4573d6000803e3d6000fd5b505050506040513d601f19601f82011682018060405250810190610cc89190611393565b50610cd68160400151611183565b6001600160a01b0390811660608401819052604080850151905163189acdbd60e31b8152921660048301529063c4d66de890602401600060405180830381600087803b158015610d2557600080fd5b505af1158015610d39573d6000803e3d6000fd5b50505050606082015160405163c1d84e0b60e01b81526001600160a01b0391821660048201527f00000000000000000000000000000000000000000000000000000000000000009091169063c1d84e0b90602401602060405180830381600087803b158015610da757600080fd5b505af1158015610dbb573d6000803e3d6000fd5b505050506040513d601f19601f82011682018060405250810190610ddf9190611393565b5081516040808401519051639ee933b560e01b81526001600160a01b039182166004820152911690639ee933b590602401602060405180830381600087803b158015610e2a57600080fd5b505af1158015610e3e573d6000803e3d6000fd5b505050506040513d601f19601f82011682018060405250810190610e629190611393565b5081600001516001600160a01b03166366f07dd26040518163ffffffff1660e01b8152600401602060405180830381600087803b158015610ea257600080fd5b505af1158015610eb6573d6000803e3d6000fd5b505050506040513d601f19601f82011682018060405250810190610eda9190611393565b50602082810151835160408051634ec81af160e01b81526001600160a01b0392831660048201528835602482015293880135604485015287013560648401521690634ec81af190608401600060405180830381600087803b158015610f3e57600080fd5b505af1158015610f52573d6000803e3d6000fd5b5050835160405163d914cd4b60e01b81526001600160a01b0391821660048201527f0000000000000000000000000000000000000000000000000000000000000000909116925063d914cd4b9150602401600060405180830381600087803b158015610fbd57600080fd5b505af1158015610fd1573d6000803e3d6000fd5b505083516020850151604080870151606088015191517f7485fd97aa22b8f3780a33f0f69ac8a5f0e479548977fe3fa7d9459698a2d8fe965061103d95509091906001600160a01b03948516815292841660208401529083166040830152909116606082015260800190565b60405180910390a150979650505050505050565b6040516321f8a72160e01b81526a3937b632a6b0b730b3b2b960a91b60048201526000906001600160a01b038316906321f8a7219060240160206040518083038186803b1580156110a157600080fd5b505afa1580156110b5573d6000803e3d6000fd5b505050506040513d601f19601f820116820180604052508101906110d9919061140a565b92915050565b600083815260208181526040808320858452918290528220546001600160a01b03161561111057600091505061031c565b6000848152602082815260409182902080546001600160a01b0387166001600160a01b0319909116811790915582518881529182018790528183015290517fb6995687d7ca103560700935c62676d62918daf01877efebce4eeeeb6bedd5129181900360600190a1506001949350505050565b6000604051733d602d80600a3d3981f3363d3d373d3d3d363d7360601b81528260601b60148201526e5af43d82803e903d91602b57fd5bf360881b60288201526037816000f09150506001600160a01b03811661121b5760405162461bcd60e51b8152602060048201526016602482015275115490cc4c4d8dce8818dc99585d194819985a5b195960521b6044820152606401610300565b919050565b6001600160a01b038116811461123557600080fd5b50565b803561121b81611220565b6000806040838503121561125657600080fd5b82359150602083013561126881611220565b809150509250929050565b60006060828403121561128557600080fd5b50919050565b60006080828403121561128557600080fd5b6000806000806000806000610160888a0312156112b957600080fd5b873567ffffffffffffffff808211156112d157600080fd5b818a0191508a601f8301126112e557600080fd5b8135818111156112f457600080fd5b8b602082850101111561130657600080fd5b60208381019a509098508a0135965061132160408b01611238565b955060608a013591508082111561133757600080fd5b506113448a828b01611273565b9350506113548960808a01611273565b91506113638960e08a0161128b565b905092959891949750929550565b6000806040838503121561138457600080fd5b50508035926020909101359150565b6000602082840312156113a557600080fd5b8151801515811461031c57600080fd5b600060208083528351808285015260005b818110156113e2578581018301518582016040015282016113c6565b818111156113f4576000604083870101525b50601f01601f1916929092016040019392505050565b60006020828403121561141c57600080fd5b815161031c81611220565b60006020828403121561143957600080fd5b813560ff8116811461031c57600080fd5b81835281816020850137506000828201602090810191909152601f909101601f19169091010190565b60608152600061148760608301868861144a565b6020830194909452506001600160a01b039190911660409091015292915050565b6080815260006114bc60808301878961144a565b6001600160a01b039586166020840152604083019490945250921660609092019190915292915050565b6000808335601e198436030181126114fd57600080fd5b83018035915067ffffffffffffffff82111561151857600080fd5b60200191503681900382131561152d57600080fd5b9250929050565b60808152600061154860808301888a61144a565b828103602084015261155b81878961144a565b60ff95909516604084015250506001600160a01b039190911660609091015294935050505056fe696e76616c6964207661756c7420696d706c656d656e746174696f6e20666f7220676976656e20636f696e696e76616c696420706f6f6c20696d706c656d656e746174696f6e20666f7220676976656e20636f696e696e76616c6964204c5020546f6b656e20696d706c656d656e746174696f6e20666f7220676976656e20636f696e696e76616c6964207374616b65725661756c7420696d706c656d656e746174696f6e20666f7220676976656e20636f696ea264697066735822122073b0d58400804fe1579ba7112be400559e5fc52f6585009b9379b90bc0c59c1e64736f6c63430008090033","bytecodeSha1":"e7345eb94b2cb336996ccd684329e3e62613eb4a","compiler":{"evm_version":"london","optimizer":{"enabled":true,"runs":200},"version":"0.8.9+commit.e5eed63a"},"contractName":"PoolFactory","language":"Solidity","natspec":{"kind":"dev","methods":{"addLpTokenImplementation(bytes32,address)":{"notice":"Add a new LP token implementation to the factory.","params":{"implementation":"of lp token implementation to add.","name":"of the LP token implementation."}},"addPoolImplementation(bytes32,address)":{"notice":"Add a new pool implementation to the factory.","params":{"implementation":"of pool implementation to add.","name":"of the pool implementation."}},"addStakerVaultImplementation(bytes32,address)":{"notice":"Add a new staker vault implementation to the factory.","params":{"implementation":"of staker vault implementation to add.","name":"of the staker vault implementation."}},"addVaultImplementation(bytes32,address)":{"notice":"Add a new vault implementation to the factory.","params":{"implementation":"of vault implementation to add.","name":"of the vault implementation."}},"deployPool(string,uint256,address,(string,string,uint8),(uint256,uint256,uint256),(bytes32,bytes32,bytes32,bytes32))":{"details":"Decimals is an argument as not all ERC20 tokens implement the ERC20Detailed interface.      An implementation where `getUnderlying()` returns the zero address is for ETH pools.","notice":"Deploys a new pool and LP token.","params":{"implementationNames":"Name of the implementations to use","lpTokenArgs":"Arguments to create the LP token for the pool","poolName":"Name of the pool.","underlying":"Address of the pool's underlying.","vaultArgs":"Arguments to create the vault"},"returns":{"addrs":"Address of the deployed pool, address of the pool's deployed LP token."}}},"stateVariables":{"implementations":{"details":"maps a contract type (e.g. \"pool\" or \"lp_token\", as defined in constants above) to a mapping from an implementation name to the actual implementation The implementation name is decided when registering the implementation and can be arbitrary (e.g. \"ERC20PoolV1\")"}},"version":1},"opcodes":"PUSH1 0x80 PUSH1 0x40 MSTORE CALLVALUE DUP1 ISZERO PUSH2 0x10 JUMPI PUSH1 0x0 DUP1 REVERT JUMPDEST POP PUSH1 0x4 CALLDATASIZE LT PUSH2 0x92 JUMPI PUSH1 0x0 CALLDATALOAD PUSH1 0xE0 SHR DUP1 PUSH4 0x93ADE8E7 GT PUSH2 0x66 JUMPI DUP1 PUSH4 0x93ADE8E7 EQ PUSH2 0x133 JUMPI DUP1 PUSH4 0xBBBAF172 EQ PUSH2 0x146 JUMPI DUP1 PUSH4 0xD74009B2 EQ PUSH2 0x159 JUMPI DUP1 PUSH4 0xF6B6AF7D EQ PUSH2 0x1AF JUMPI DUP1 PUSH4 0xF77C4791 EQ PUSH2 0x1E0 JUMPI PUSH1 0x0 DUP1 REVERT JUMPDEST DUP1 PUSH3 0x435DA5 EQ PUSH2 0x97 JUMPI DUP1 PUSH4 0x2954018C EQ PUSH2 0xD6 JUMPI DUP1 PUSH4 0x327BEA89 EQ PUSH2 0xFD JUMPI DUP1 PUSH4 0x34E6CBAD EQ PUSH2 0x120 JUMPI JUMPDEST PUSH1 0x0 DUP1 REVERT JUMPDEST PUSH32 0x0 JUMPDEST PUSH1 0x40 MLOAD PUSH1 0x1 PUSH1 0x1 PUSH1 0xA0 SHL SUB SWAP1 SWAP2 AND DUP2 MSTORE PUSH1 0x20 ADD JUMPDEST PUSH1 0x40 MLOAD DUP1 SWAP2 SUB SWAP1 RETURN JUMPDEST PUSH2 0xB9 PUSH32 0x0 DUP2 JUMP JUMPDEST PUSH2 0x110 PUSH2 0x10B CALLDATASIZE PUSH1 0x4 PUSH2 0x1243 JUMP JUMPDEST PUSH2 0x207 JUMP JUMPDEST PUSH1 0x40 MLOAD SWAP1 ISZERO ISZERO DUP2 MSTORE PUSH1 0x20 ADD PUSH2 0xCD JUMP JUMPDEST PUSH2 0x110 PUSH2 0x12E CALLDATASIZE PUSH1 0x4 PUSH2 0x1243 JUMP JUMPDEST PUSH2 0x323 JUMP JUMPDEST PUSH2 0x110 PUSH2 0x141 CALLDATASIZE PUSH1 0x4 PUSH2 0x1243 JUMP JUMPDEST PUSH2 0x430 JUMP JUMPDEST PUSH2 0x110 PUSH2 0x154 CALLDATASIZE PUSH1 0x4 PUSH2 0x1243 JUMP JUMPDEST PUSH2 0x540 JUMP JUMPDEST PUSH2 0x16C PUSH2 0x167 CALLDATASIZE PUSH1 0x4 PUSH2 0x129D JUMP JUMPDEST PUSH2 0x654 JUMP JUMPDEST PUSH1 0x40 MLOAD PUSH2 0xCD SWAP2 SWAP1 DUP2 MLOAD PUSH1 0x1 PUSH1 0x1 PUSH1 0xA0 SHL SUB SWAP1 DUP2 AND DUP3 MSTORE PUSH1 0x20 DUP1 DUP5 ADD MLOAD DUP3 AND SWAP1 DUP4 ADD MSTORE PUSH1 0x40 DUP1 DUP5 ADD MLOAD DUP3 AND SWAP1 DUP4 ADD MSTORE PUSH1 0x60 SWAP3 DUP4 ADD MLOAD AND SWAP2 DUP2 ADD SWAP2 SWAP1 SWAP2 MSTORE PUSH1 0x80 ADD SWAP1 JUMP JUMPDEST PUSH2 0xB9 PUSH2 0x1BD CALLDATASIZE PUSH1 0x4 PUSH2 0x1371 JUMP JUMPDEST PUSH1 0x0 PUSH1 0x20 DUP2 DUP2 MSTORE SWAP3 DUP2 MSTORE PUSH1 0x40 DUP1 DUP3 KECCAK256 SWAP1 SWAP4 MSTORE SWAP1 DUP2 MSTORE KECCAK256 SLOAD PUSH1 0x1 PUSH1 0x1 PUSH1 0xA0 SHL SUB AND DUP2 JUMP JUMPDEST PUSH2 0xB9 PUSH32 0x0 DUP2 JUMP JUMPDEST PUSH1 0x0 PUSH32 0x0 PUSH1 0x40 MLOAD PUSH4 0x24745215 PUSH1 0xE2 SHL DUP2 MSTORE PUSH10 0x676F7665726E616E6365 PUSH1 0xB0 SHL PUSH1 0x4 DUP3 ADD MSTORE CALLER PUSH1 0x24 DUP3 ADD MSTORE PUSH1 0x1 PUSH1 0x1 PUSH1 0xA0 SHL SUB SWAP2 SWAP1 SWAP2 AND SWAP1 PUSH4 0x91D14854 SWAP1 PUSH1 0x44 ADD PUSH1 0x20 PUSH1 0x40 MLOAD DUP1 DUP4 SUB DUP2 DUP7 DUP1 EXTCODESIZE ISZERO DUP1 ISZERO PUSH2 0x27E JUMPI PUSH1 0x0 DUP1 REVERT JUMPDEST POP GAS STATICCALL ISZERO DUP1 ISZERO PUSH2 0x292 JUMPI RETURNDATASIZE PUSH1 0x0 DUP1 RETURNDATACOPY RETURNDATASIZE PUSH1 0x0 REVERT JUMPDEST POP POP POP POP PUSH1 0x40 MLOAD RETURNDATASIZE PUSH1 0x1F NOT PUSH1 0x1F DUP3 ADD AND DUP3 ADD DUP1 PUSH1 0x40 MSTORE POP DUP2 ADD SWAP1 PUSH2 0x2B6 SWAP2 SWAP1 PUSH2 0x1393 JUMP JUMPDEST PUSH1 0x40 MLOAD DUP1 PUSH1 0x40 ADD PUSH1 0x40 MSTORE DUP1 PUSH1 0x13 DUP2 MSTORE PUSH1 0x20 ADD PUSH19 0x756E617574686F72697A656420616363657373 PUSH1 0x68 SHL DUP2 MSTORE POP SWAP1 PUSH2 0x309 JUMPI PUSH1 0x40 MLOAD PUSH3 0x461BCD PUSH1 0xE5 SHL DUP2 MSTORE PUSH1 0x4 ADD PUSH2 0x300 SWAP2 SWAP1 PUSH2 0x13B5 JUMP JUMPDEST PUSH1 0x40 MLOAD DUP1 SWAP2 SUB SWAP1 REVERT JUMPDEST POP PUSH2 0x31C PUSH4 0x1C1BDBDB PUSH1 0xE2 SHL DUP5 DUP5 PUSH2 0x10DF JUMP JUMPDEST SWAP4 SWAP3 POP POP POP JUMP JUMPDEST PUSH1 0x0 PUSH32 0x0 PUSH1 0x40 MLOAD PUSH4 0x24745215 PUSH1 0xE2 SHL DUP2 MSTORE PUSH10 0x676F7665726E616E6365 PUSH1 0xB0 SHL PUSH1 0x4 DUP3 ADD MSTORE CALLER PUSH1 0x24 DUP3 ADD MSTORE PUSH1 0x1 PUSH1 0x1 PUSH1 0xA0 SHL SUB SWAP2 SWAP1 SWAP2 AND SWAP1 PUSH4 0x91D14854 SWAP1 PUSH1 0x44 ADD PUSH1 0x20 PUSH1 0x40 MLOAD DUP1 DUP4 SUB DUP2 DUP7 DUP1 EXTCODESIZE ISZERO DUP1 ISZERO PUSH2 0x39A JUMPI PUSH1 0x0 DUP1 REVERT JUMPDEST POP GAS STATICCALL ISZERO DUP1 ISZERO PUSH2 0x3AE JUMPI RETURNDATASIZE PUSH1 0x0 DUP1 RETURNDATACOPY RETURNDATASIZE PUSH1 0x0 REVERT JUMPDEST POP POP POP POP PUSH1 0x40 MLOAD RETURNDATASIZE PUSH1 0x1F NOT PUSH1 0x1F DUP3 ADD AND DUP3 ADD DUP1 PUSH1 0x40 MSTORE POP DUP2 ADD SWAP1 PUSH2 0x3D2 SWAP2 SWAP1 PUSH2 0x1393 JUMP JUMPDEST PUSH1 0x40 MLOAD DUP1 PUSH1 0x40 ADD PUSH1 0x40 MSTORE DUP1 PUSH1 0x13 DUP2 MSTORE PUSH1 0x20 ADD PUSH19 0x756E617574686F72697A656420616363657373 PUSH1 0x68 SHL DUP2 MSTORE POP SWAP1 PUSH2 0x41C JUMPI PUSH1 0x40 MLOAD PUSH3 0x461BCD PUSH1 0xE5 SHL DUP2 MSTORE PUSH1 0x4 ADD PUSH2 0x300 SWAP2 SWAP1 PUSH2 0x13B5 JUMP JUMPDEST POP PUSH2 0x31C PUSH5 0x1D985D5B1D PUSH1 0xDA SHL DUP5 DUP5 PUSH2 0x10DF JUMP JUMPDEST PUSH1 0x0 PUSH32 0x0 PUSH1 0x40 MLOAD PUSH4 0x24745215 PUSH1 0xE2 SHL DUP2 MSTORE PUSH10 0x676F7665726E616E6365 PUSH1 0xB0 SHL PUSH1 0x4 DUP3 ADD MSTORE CALLER PUSH1 0x24 DUP3 ADD MSTORE PUSH1 0x1 PUSH1 0x1 PUSH1 0xA0 SHL SUB SWAP2 SWAP1 SWAP2 AND SWAP1 PUSH4 0x91D14854 SWAP1 PUSH1 0x44 ADD PUSH1 0x20 PUSH1 0x40 MLOAD DUP1 DUP4 SUB DUP2 DUP7 DUP1 EXTCODESIZE ISZERO DUP1 ISZERO PUSH2 0x4A7 JUMPI PUSH1 0x0 DUP1 REVERT JUMPDEST POP GAS STATICCALL ISZERO DUP1 ISZERO PUSH2 0x4BB JUMPI RETURNDATASIZE PUSH1 0x0 DUP1 RETURNDATACOPY RETURNDATASIZE PUSH1 0x0 REVERT JUMPDEST POP POP POP POP PUSH1 0x40 MLOAD RETURNDATASIZE PUSH1 0x1F NOT PUSH1 0x1F DUP3 ADD AND DUP3 ADD DUP1 PUSH1 0x40 MSTORE POP DUP2 ADD SWAP1 PUSH2 0x4DF SWAP2 SWAP1 PUSH2 0x1393 JUMP JUMPDEST PUSH1 0x40 MLOAD DUP1 PUSH1 0x40 ADD PUSH1 0x40 MSTORE DUP1 PUSH1 0x13 DUP2 MSTORE PUSH1 0x20 ADD PUSH19 0x756E617574686F72697A656420616363657373 PUSH1 0x68 SHL DUP2 MSTORE POP SWAP1 PUSH2 0x529 JUMPI PUSH1 0x40 MLOAD PUSH3 0x461BCD PUSH1 0xE5 SHL DUP2 MSTORE PUSH1 0x4 ADD PUSH2 0x300 SWAP2 SWAP1 PUSH2 0x13B5 JUMP JUMPDEST POP PUSH2 0x31C PUSH8 0x36382FBA37B5B2B7 PUSH1 0xC1 SHL DUP5 DUP5 PUSH2 0x10DF JUMP JUMPDEST PUSH1 0x0 PUSH32 0x0 PUSH1 0x40 MLOAD PUSH4 0x24745215 PUSH1 0xE2 SHL DUP2 MSTORE PUSH10 0x676F7665726E616E6365 PUSH1 0xB0 SHL PUSH1 0x4 DUP3 ADD MSTORE CALLER PUSH1 0x24 DUP3 ADD MSTORE PUSH1 0x1 PUSH1 0x1 PUSH1 0xA0 SHL SUB SWAP2 SWAP1 SWAP2 AND SWAP1 PUSH4 0x91D14854 SWAP1 PUSH1 0x44 ADD PUSH1 0x20 PUSH1 0x40 MLOAD DUP1 DUP4 SUB DUP2 DUP7 DUP1 EXTCODESIZE ISZERO DUP1 ISZERO PUSH2 0x5B7 JUMPI PUSH1 0x0 DUP1 REVERT JUMPDEST POP GAS STATICCALL ISZERO DUP1 ISZERO PUSH2 0x5CB JUMPI RETURNDATASIZE PUSH1 0x0 DUP1 RETURNDATACOPY RETURNDATASIZE PUSH1 0x0 REVERT JUMPDEST POP POP POP POP PUSH1 0x40 MLOAD RETURNDATASIZE PUSH1 0x1F NOT PUSH1 0x1F DUP3 ADD AND DUP3 ADD DUP1 PUSH1 0x40 MSTORE POP DUP2 ADD SWAP1 PUSH2 0x5EF SWAP2 SWAP1 PUSH2 0x1393 JUMP JUMPDEST PUSH1 0x40 MLOAD DUP1 PUSH1 0x40 ADD PUSH1 0x40 MSTORE DUP1 PUSH1 0x13 DUP2 MSTORE PUSH1 0x20 ADD PUSH19 0x756E617574686F72697A656420616363657373 PUSH1 0x68 SHL DUP2 MSTORE POP SWAP1 PUSH2 0x639 JUMPI PUSH1 0x40 MLOAD PUSH3 0x461BCD PUSH1 0xE5 SHL DUP2 MSTORE PUSH1 0x4 ADD PUSH2 0x300 SWAP2 SWAP1 PUSH2 0x13B5 JUMP JUMPDEST POP PUSH2 0x31C PUSH12 0x1CDD185AD95C97DD985D5B1D PUSH1 0xA2 SHL DUP5 DUP5 PUSH2 0x10DF JUMP JUMPDEST PUSH1 0x40 DUP1 MLOAD PUSH1 0x80 DUP2 ADD DUP3 MSTORE PUSH1 0x0 DUP1 DUP3 MSTORE PUSH1 0x20 DUP3 ADD DUP2 SWAP1 MSTORE SWAP2 DUP2 ADD DUP3 SWAP1 MSTORE PUSH1 0x60 DUP2 ADD SWAP2 SWAP1 SWAP2 MSTORE PUSH32 0x0 PUSH1 0x40 MLOAD PUSH4 0x24745215 PUSH1 0xE2 SHL DUP2 MSTORE PUSH10 0x676F7665726E616E6365 PUSH1 0xB0 SHL PUSH1 0x4 DUP3 ADD MSTORE CALLER PUSH1 0x24 DUP3 ADD MSTORE PUSH1 0x1 PUSH1 0x1 PUSH1 0xA0 SHL SUB SWAP2 SWAP1 SWAP2 AND SWAP1 PUSH4 0x91D14854 SWAP1 PUSH1 0x44 ADD PUSH1 0x20 PUSH1 0x40 MLOAD DUP1 DUP4 SUB DUP2 DUP7 DUP1 EXTCODESIZE ISZERO DUP1 ISZERO PUSH2 0x6ED JUMPI PUSH1 0x0 DUP1 REVERT JUMPDEST POP GAS STATICCALL ISZERO DUP1 ISZERO PUSH2 0x701 JUMPI RETURNDATASIZE PUSH1 0x0 DUP1 RETURNDATACOPY RETURNDATASIZE PUSH1 0x0 REVERT JUMPDEST POP POP POP POP PUSH1 0x40 MLOAD RETURNDATASIZE PUSH1 0x1F NOT PUSH1 0x1F DUP3 ADD AND DUP3 ADD DUP1 PUSH1 0x40 MSTORE POP DUP2 ADD SWAP1 PUSH2 0x725 SWAP2 SWAP1 PUSH2 0x1393 JUMP JUMPDEST PUSH1 0x40 MLOAD DUP1 PUSH1 0x40 ADD PUSH1 0x40 MSTORE DUP1 PUSH1 0x13 DUP2 MSTORE PUSH1 0x20 ADD PUSH19 0x756E617574686F72697A656420616363657373 PUSH1 0x68 SHL DUP2 MSTORE POP SWAP1 PUSH2 0x76F JUMPI PUSH1 0x40 MLOAD PUSH3 0x461BCD PUSH1 0xE5 SHL DUP2 MSTORE PUSH1 0x4 ADD PUSH2 0x300 SWAP2 SWAP1 PUSH2 0x13B5 JUMP JUMPDEST POP PUSH1 0x40 DUP1 MLOAD PUSH1 0x80 DUP2 ADD DUP3 MSTORE PUSH1 0x0 DUP1 DUP3 MSTORE PUSH1 0x20 DUP1 DUP4 ADD DUP3 DUP2 MSTORE DUP4 DUP6 ADD DUP4 SWAP1 MSTORE PUSH1 0x60 DUP1 DUP6 ADD DUP5 SWAP1 MSTORE DUP8 CALLDATALOAD DUP5 MSTORE PUSH32 0x41C12A0618FD8C91E4BD4C2BAD3960A11CA69ECB61096F2AFE909D647D705506 DUP4 MSTORE SWAP3 DUP6 SWAP1 KECCAK256 SLOAD PUSH1 0x1 PUSH1 0x1 PUSH1 0xA0 SHL SUB AND SWAP1 DUP2 SWAP1 MSTORE DUP5 MLOAD SWAP3 DUP4 ADD SWAP1 SWAP5 MSTORE PUSH1 0x2A DUP1 DUP4 MSTORE SWAP3 SWAP4 ISZERO ISZERO SWAP3 SWAP1 PUSH2 0x15AE SWAP1 DUP4 ADD CODECOPY SWAP1 PUSH2 0x806 JUMPI PUSH1 0x40 MLOAD PUSH3 0x461BCD PUSH1 0xE5 SHL DUP2 MSTORE PUSH1 0x4 ADD PUSH2 0x300 SWAP2 SWAP1 PUSH2 0x13B5 JUMP JUMPDEST POP PUSH1 0x40 DUP4 DUP2 ADD CALLDATALOAD PUSH1 0x0 SWAP1 DUP2 MSTORE PUSH32 0x509576413F2A764E16FCA6F55B1B0B59F0C7D685DEBDB649E7380F6E646F85EC PUSH1 0x20 SWAP1 DUP2 MSTORE SWAP1 DUP3 SWAP1 KECCAK256 SLOAD PUSH1 0x1 PUSH1 0x1 PUSH1 0xA0 SHL SUB AND DUP1 DUP5 MSTORE DUP3 MLOAD PUSH1 0x60 DUP2 ADD SWAP1 SWAP4 MSTORE PUSH1 0x2E DUP1 DUP5 MSTORE SWAP1 ISZERO ISZERO SWAP3 SWAP2 PUSH2 0x15D8 SWAP1 DUP4 ADD CODECOPY SWAP1 PUSH2 0x881 JUMPI PUSH1 0x40 MLOAD PUSH3 0x461BCD PUSH1 0xE5 SHL DUP2 MSTORE PUSH1 0x4 ADD PUSH2 0x300 SWAP2 SWAP1 PUSH2 0x13B5 JUMP JUMPDEST POP PUSH1 0x20 DUP4 DUP2 ADD CALLDATALOAD PUSH1 0x0 SWAP1 DUP2 MSTORE PUSH32 0x5A91006BBD508B31448DE1F8D6457185050E71DE2FB28AFFF373542928E213B9 DUP3 MSTORE PUSH1 0x40 SWAP1 DUP2 SWAP1 KECCAK256 SLOAD PUSH1 0x1 PUSH1 0x1 PUSH1 0xA0 SHL SUB AND PUSH1 0x60 DUP1 DUP6 ADD DUP3 SWAP1 MSTORE DUP3 MLOAD SWAP1 DUP2 ADD SWAP1 SWAP3 MSTORE PUSH1 0x2B DUP1 DUP4 MSTORE SWAP1 ISZERO ISZERO SWAP3 PUSH2 0x1583 SWAP1 DUP4 ADD CODECOPY SWAP1 PUSH2 0x8FE JUMPI PUSH1 0x40 MLOAD PUSH3 0x461BCD PUSH1 0xE5 SHL DUP2 MSTORE PUSH1 0x4 ADD PUSH2 0x300 SWAP2 SWAP1 PUSH2 0x13B5 JUMP JUMPDEST POP PUSH1 0x60 DUP1 DUP5 ADD CALLDATALOAD PUSH1 0x0 SWAP1 DUP2 MSTORE PUSH32 0x2CF082650F22D678D13E32CB83A8E9EB2F601F6CB0DD457ECF139323A1BAC1AA PUSH1 0x20 SWAP1 DUP2 MSTORE PUSH1 0x40 SWAP2 DUP3 SWAP1 KECCAK256 SLOAD PUSH1 0x1 PUSH1 0x1 PUSH1 0xA0 SHL SUB AND DUP5 DUP4 ADD DUP2 SWAP1 MSTORE DUP3 MLOAD SWAP4 DUP5 ADD SWAP1 SWAP3 MSTORE PUSH1 0x31 DUP1 DUP5 MSTORE SWAP2 ISZERO ISZERO SWAP3 SWAP2 SWAP1 PUSH2 0x1606 SWAP1 DUP4 ADD CODECOPY SWAP1 PUSH2 0x97E JUMPI PUSH1 0x40 MLOAD PUSH3 0x461BCD PUSH1 0xE5 SHL DUP2 MSTORE PUSH1 0x4 ADD PUSH2 0x300 SWAP2 SWAP1 PUSH2 0x13B5 JUMP JUMPDEST POP PUSH2 0x98C DUP2 PUSH1 0x20 ADD MLOAD PUSH2 0x1183 JUMP JUMPDEST PUSH1 0x1 PUSH1 0x1 PUSH1 0xA0 SHL SUB AND DUP3 MSTORE PUSH1 0x60 DUP2 ADD MLOAD PUSH2 0x9A5 SWAP1 PUSH2 0x1183 JUMP JUMPDEST PUSH1 0x1 PUSH1 0x1 PUSH1 0xA0 SHL SUB SWAP1 DUP2 AND PUSH1 0x20 DUP5 ADD MSTORE DUP7 AND PUSH2 0xB79 JUMPI PUSH1 0x0 PUSH1 0x1 PUSH1 0x1 PUSH1 0xA0 SHL SUB AND DUP2 PUSH1 0x20 ADD MLOAD PUSH1 0x1 PUSH1 0x1 PUSH1 0xA0 SHL SUB AND PUSH4 0x9816F473 PUSH1 0x40 MLOAD DUP2 PUSH4 0xFFFFFFFF AND PUSH1 0xE0 SHL DUP2 MSTORE PUSH1 0x4 ADD PUSH1 0x20 PUSH1 0x40 MLOAD DUP1 DUP4 SUB DUP2 DUP7 DUP1 EXTCODESIZE ISZERO DUP1 ISZERO PUSH2 0xA03 JUMPI PUSH1 0x0 DUP1 REVERT JUMPDEST POP GAS STATICCALL ISZERO DUP1 ISZERO PUSH2 0xA17 JUMPI RETURNDATASIZE PUSH1 0x0 DUP1 RETURNDATACOPY RETURNDATASIZE PUSH1 0x0 REVERT JUMPDEST POP POP POP POP PUSH1 0x40 MLOAD RETURNDATASIZE PUSH1 0x1F NOT PUSH1 0x1F DUP3 ADD AND DUP3 ADD DUP1 PUSH1 0x40 MSTORE POP DUP2 ADD SWAP1 PUSH2 0xA3B SWAP2 SWAP1 PUSH2 0x140A JUMP JUMPDEST PUSH1 0x1 PUSH1 0x1 PUSH1 0xA0 SHL SUB AND EQ PUSH1 0x40 MLOAD DUP1 PUSH1 0x60 ADD PUSH1 0x40 MSTORE DUP1 PUSH1 0x2A DUP2 MSTORE PUSH1 0x20 ADD PUSH2 0x15AE PUSH1 0x2A SWAP2 CODECOPY SWAP1 PUSH2 0xA7C JUMPI PUSH1 0x40 MLOAD PUSH3 0x461BCD PUSH1 0xE5 SHL DUP2 MSTORE PUSH1 0x4 ADD PUSH2 0x300 SWAP2 SWAP1 PUSH2 0x13B5 JUMP JUMPDEST POP PUSH2 0xA8D PUSH1 0x60 DUP7 ADD PUSH1 0x40 DUP8 ADD PUSH2 0x1427 JUMP JUMPDEST PUSH1 0xFF AND PUSH1 0x12 EQ PUSH1 0x40 MLOAD DUP1 PUSH1 0x40 ADD PUSH1 0x40 MSTORE DUP1 PUSH1 0x1C DUP2 MSTORE PUSH1 0x20 ADD PUSH32 0x696E636F7272656374206E756D626572206F6620646563696D616C7300000000 DUP2 MSTORE POP SWAP1 PUSH2 0xAE7 JUMPI PUSH1 0x40 MLOAD PUSH3 0x461BCD PUSH1 0xE5 SHL DUP2 MSTORE PUSH1 0x4 ADD PUSH2 0x300 SWAP2 SWAP1 PUSH2 0x13B5 JUMP JUMPDEST POP DUP2 MLOAD PUSH1 0x20 DUP4 ADD MLOAD PUSH1 0x40 MLOAD PUSH4 0x4F3BDDEB PUSH1 0xE0 SHL DUP2 MSTORE PUSH1 0x1 PUSH1 0x1 PUSH1 0xA0 SHL SUB SWAP1 SWAP3 AND SWAP2 PUSH4 0x4F3BDDEB SWAP2 PUSH2 0xB21 SWAP2 DUP14 SWAP2 DUP14 SWAP2 DUP14 SWAP2 SWAP1 PUSH1 0x4 ADD PUSH2 0x1473 JUMP JUMPDEST PUSH1 0x20 PUSH1 0x40 MLOAD DUP1 DUP4 SUB DUP2 PUSH1 0x0 DUP8 DUP1 EXTCODESIZE ISZERO DUP1 ISZERO PUSH2 0xB3B JUMPI PUSH1 0x0 DUP1 REVERT JUMPDEST POP GAS CALL ISZERO DUP1 ISZERO PUSH2 0xB4F JUMPI RETURNDATASIZE PUSH1 0x0 DUP1 RETURNDATACOPY RETURNDATASIZE PUSH1 0x0 REVERT JUMPDEST POP POP POP POP PUSH1 0x40 MLOAD RETURNDATASIZE PUSH1 0x1F NOT PUSH1 0x1F DUP3 ADD AND DUP3 ADD DUP1 PUSH1 0x40 MSTORE POP DUP2 ADD SWAP1 PUSH2 0xB73 SWAP2 SWAP1 PUSH2 0x1393 JUMP JUMPDEST POP PUSH2 0xC07 JUMP JUMPDEST DUP2 MLOAD PUSH1 0x20 DUP4 ADD MLOAD PUSH1 0x40 MLOAD PUSH4 0x2AD84A2B PUSH1 0xE1 SHL DUP2 MSTORE PUSH1 0x1 PUSH1 0x1 PUSH1 0xA0 SHL SUB SWAP1 SWAP3 AND SWAP2 PUSH4 0x55B09456 SWAP2 PUSH2 0xBB3 SWAP2 DUP14 SWAP2 DUP14 SWAP2 DUP13 SWAP2 DUP15 SWAP2 PUSH1 0x4 ADD PUSH2 0x14A8 JUMP JUMPDEST PUSH1 0x20 PUSH1 0x40 MLOAD DUP1 DUP4 SUB DUP2 PUSH1 0x0 DUP8 DUP1 EXTCODESIZE ISZERO DUP1 ISZERO PUSH2 0xBCD JUMPI PUSH1 0x0 DUP1 REVERT JUMPDEST POP GAS CALL ISZERO DUP1 ISZERO PUSH2 0xBE1 JUMPI RETURNDATASIZE PUSH1 0x0 DUP1 RETURNDATACOPY RETURNDATASIZE PUSH1 0x0 REVERT JUMPDEST POP POP POP POP PUSH1 0x40 MLOAD RETURNDATASIZE PUSH1 0x1F NOT PUSH1 0x1F DUP3 ADD AND DUP3 ADD DUP1 PUSH1 0x40 MSTORE POP DUP2 ADD SWAP1 PUSH2 0xC05 SWAP2 SWAP1 PUSH2 0x1393 JUMP JUMPDEST POP JUMPDEST DUP1 MLOAD PUSH2 0xC12 SWAP1 PUSH2 0x1183 JUMP JUMPDEST PUSH1 0x1 PUSH1 0x1 PUSH1 0xA0 SHL SUB AND PUSH1 0x40 DUP4 ADD DUP2 SWAP1 MSTORE PUSH4 0xDE7EA79D PUSH2 0xC31 DUP8 DUP1 PUSH2 0x14E6 JUMP JUMPDEST PUSH2 0xC3E PUSH1 0x20 DUP11 ADD DUP11 PUSH2 0x14E6 JUMP JUMPDEST PUSH2 0xC4E PUSH1 0x60 DUP13 ADD PUSH1 0x40 DUP14 ADD PUSH2 0x1427 JUMP JUMPDEST DUP9 MLOAD PUSH1 0x40 MLOAD PUSH1 0x1 PUSH1 0x1 PUSH1 0xE0 SHL SUB NOT PUSH1 0xE0 DUP10 SWAP1 SHL AND DUP2 MSTORE PUSH2 0xC76 SWAP7 SWAP6 SWAP5 SWAP4 SWAP3 SWAP2 SWAP1 PUSH1 0x4 ADD PUSH2 0x1534 JUMP JUMPDEST PUSH1 0x20 PUSH1 0x40 MLOAD DUP1 DUP4 SUB DUP2 PUSH1 0x0 DUP8 DUP1 EXTCODESIZE ISZERO DUP1 ISZERO PUSH2 0xC90 JUMPI PUSH1 0x0 DUP1 REVERT JUMPDEST POP GAS CALL ISZERO DUP1 ISZERO PUSH2 0xCA4 JUMPI RETURNDATASIZE PUSH1 0x0 DUP1 RETURNDATACOPY RETURNDATASIZE PUSH1 0x0 REVERT JUMPDEST POP POP POP POP PUSH1 0x40 MLOAD RETURNDATASIZE PUSH1 0x1F NOT PUSH1 0x1F DUP3 ADD AND DUP3 ADD DUP1 PUSH1 0x40 MSTORE POP DUP2 ADD SWAP1 PUSH2 0xCC8 SWAP2 SWAP1 PUSH2 0x1393 JUMP JUMPDEST POP PUSH2 0xCD6 DUP2 PUSH1 0x40 ADD MLOAD PUSH2 0x1183 JUMP JUMPDEST PUSH1 0x1 PUSH1 0x1 PUSH1 0xA0 SHL SUB SWAP1 DUP2 AND PUSH1 0x60 DUP5 ADD DUP2 SWAP1 MSTORE PUSH1 0x40 DUP1 DUP6 ADD MLOAD SWAP1 MLOAD PUSH4 0x189ACDBD PUSH1 0xE3 SHL DUP2 MSTORE SWAP3 AND PUSH1 0x4 DUP4 ADD MSTORE SWAP1 PUSH4 0xC4D66DE8 SWAP1 PUSH1 0x24 ADD PUSH1 0x0 PUSH1 0x40 MLOAD DUP1 DUP4 SUB DUP2 PUSH1 0x0 DUP8 DUP1 EXTCODESIZE ISZERO DUP1 ISZERO PUSH2 0xD25 JUMPI PUSH1 0x0 DUP1 REVERT JUMPDEST POP GAS CALL ISZERO DUP1 ISZERO PUSH2 0xD39 JUMPI RETURNDATASIZE PUSH1 0x0 DUP1 RETURNDATACOPY RETURNDATASIZE PUSH1 0x0 REVERT JUMPDEST POP POP POP POP PUSH1 0x60 DUP3 ADD MLOAD PUSH1 0x40 MLOAD PUSH4 0xC1D84E0B PUSH1 0xE0 SHL DUP2 MSTORE PUSH1 0x1 PUSH1 0x1 PUSH1 0xA0 SHL SUB SWAP2 DUP3 AND PUSH1 0x4 DUP3 ADD MSTORE PUSH32 0x0 SWAP1 SWAP2 AND SWAP1 PUSH4 0xC1D84E0B SWAP1 PUSH1 0x24 ADD PUSH1 0x20 PUSH1 0x40 MLOAD DUP1 DUP4 SUB DUP2 PUSH1 0x0 DUP8 DUP1 EXTCODESIZE ISZERO DUP1 ISZERO PUSH2 0xDA7 JUMPI PUSH1 0x0 DUP1 REVERT JUMPDEST POP GAS CALL ISZERO DUP1 ISZERO PUSH2 0xDBB JUMPI RETURNDATASIZE PUSH1 0x0 DUP1 RETURNDATACOPY RETURNDATASIZE PUSH1 0x0 REVERT JUMPDEST POP POP POP POP PUSH1 0x40 MLOAD RETURNDATASIZE PUSH1 0x1F NOT PUSH1 0x1F DUP3 ADD AND DUP3 ADD DUP1 PUSH1 0x40 MSTORE POP DUP2 ADD SWAP1 PUSH2 0xDDF SWAP2 SWAP1 PUSH2 0x1393 JUMP JUMPDEST POP DUP2 MLOAD PUSH1 0x40 DUP1 DUP5 ADD MLOAD SWAP1 MLOAD PUSH4 0x9EE933B5 PUSH1 0xE0 SHL DUP2 MSTORE PUSH1 0x1 PUSH1 0x1 PUSH1 0xA0 SHL SUB SWAP2 DUP3 AND PUSH1 0x4 DUP3 ADD MSTORE SWAP2 AND SWAP1 PUSH4 0x9EE933B5 SWAP1 PUSH1 0x24 ADD PUSH1 0x20 PUSH1 0x40 MLOAD DUP1 DUP4 SUB DUP2 PUSH1 0x0 DUP8 DUP1 EXTCODESIZE ISZERO DUP1 ISZERO PUSH2 0xE2A JUMPI PUSH1 0x0 DUP1 REVERT JUMPDEST POP GAS CALL ISZERO DUP1 ISZERO PUSH2 0xE3E JUMPI RETURNDATASIZE PUSH1 0x0 DUP1 RETURNDATACOPY RETURNDATASIZE PUSH1 0x0 REVERT JUMPDEST POP POP POP POP PUSH1 0x40 MLOAD RETURNDATASIZE PUSH1 0x1F NOT PUSH1 0x1F DUP3 ADD AND DUP3 ADD DUP1 PUSH1 0x40 MSTORE POP DUP2 ADD SWAP1 PUSH2 0xE62 SWAP2 SWAP1 PUSH2 0x1393 JUMP JUMPDEST POP DUP2 PUSH1 0x0 ADD MLOAD PUSH1 0x1 PUSH1 0x1 PUSH1 0xA0 SHL SUB AND PUSH4 0x66F07DD2 PUSH1 0x40 MLOAD DUP2 PUSH4 0xFFFFFFFF AND PUSH1 0xE0 SHL DUP2 MSTORE PUSH1 0x4 ADD PUSH1 0x20 PUSH1 0x40 MLOAD DUP1 DUP4 SUB DUP2 PUSH1 0x0 DUP8 DUP1 EXTCODESIZE ISZERO DUP1 ISZERO PUSH2 0xEA2 JUMPI PUSH1 0x0 DUP1 REVERT JUMPDEST POP GAS CALL ISZERO DUP1 ISZERO PUSH2 0xEB6 JUMPI RETURNDATASIZE PUSH1 0x0 DUP1 RETURNDATACOPY RETURNDATASIZE PUSH1 0x0 REVERT JUMPDEST POP POP POP POP PUSH1 0x40 MLOAD RETURNDATASIZE PUSH1 0x1F NOT PUSH1 0x1F DUP3 ADD AND DUP3 ADD DUP1 PUSH1 0x40 MSTORE POP DUP2 ADD SWAP1 PUSH2 0xEDA SWAP2 SWAP1 PUSH2 0x1393 JUMP JUMPDEST POP PUSH1 0x20 DUP3 DUP2 ADD MLOAD DUP4 MLOAD PUSH1 0x40 DUP1 MLOAD PUSH4 0x4EC81AF1 PUSH1 0xE0 SHL DUP2 MSTORE PUSH1 0x1 PUSH1 0x1 PUSH1 0xA0 SHL SUB SWAP3 DUP4 AND PUSH1 0x4 DUP3 ADD MSTORE DUP9 CALLDATALOAD PUSH1 0x24 DUP3 ADD MSTORE SWAP4 DUP9 ADD CALLDATALOAD PUSH1 0x44 DUP6 ADD MSTORE DUP8 ADD CALLDATALOAD PUSH1 0x64 DUP5 ADD MSTORE AND SWAP1 PUSH4 0x4EC81AF1 SWAP1 PUSH1 0x84 ADD PUSH1 0x0 PUSH1 0x40 MLOAD DUP1 DUP4 SUB DUP2 PUSH1 0x0 DUP8 DUP1 EXTCODESIZE ISZERO DUP1 ISZERO PUSH2 0xF3E JUMPI PUSH1 0x0 DUP1 REVERT JUMPDEST POP GAS CALL ISZERO DUP1 ISZERO PUSH2 0xF52 JUMPI RETURNDATASIZE PUSH1 0x0 DUP1 RETURNDATACOPY RETURNDATASIZE PUSH1 0x0 REVERT JUMPDEST POP POP DUP4 MLOAD PUSH1 0x40 MLOAD PUSH4 0xD914CD4B PUSH1 0xE0 SHL DUP2 MSTORE PUSH1 0x1 PUSH1 0x1 PUSH1 0xA0 SHL SUB SWAP2 DUP3 AND PUSH1 0x4 DUP3 ADD MSTORE PUSH32 0x0 SWAP1 SWAP2 AND SWAP3 POP PUSH4 0xD914CD4B SWAP2 POP PUSH1 0x24 ADD PUSH1 0x0 PUSH1 0x40 MLOAD DUP1 DUP4 SUB DUP2 PUSH1 0x0 DUP8 DUP1 EXTCODESIZE ISZERO DUP1 ISZERO PUSH2 0xFBD JUMPI PUSH1 0x0 DUP1 REVERT JUMPDEST POP GAS CALL ISZERO DUP1 ISZERO PUSH2 0xFD1 JUMPI RETURNDATASIZE PUSH1 0x0 DUP1 RETURNDATACOPY RETURNDATASIZE PUSH1 0x0 REVERT JUMPDEST POP POP DUP4 MLOAD PUSH1 0x20 DUP6 ADD MLOAD PUSH1 0x40 DUP1 DUP8 ADD MLOAD PUSH1 0x60 DUP9 ADD MLOAD SWAP2 MLOAD PUSH32 0x7485FD97AA22B8F3780A33F0F69AC8A5F0E479548977FE3FA7D9459698A2D8FE SWAP7 POP PUSH2 0x103D SWAP6 POP SWAP1 SWAP2 SWAP1 PUSH1 0x1 PUSH1 0x1 PUSH1 0xA0 SHL SUB SWAP5 DUP6 AND DUP2 MSTORE SWAP3 DUP5 AND PUSH1 0x20 DUP5 ADD MSTORE SWAP1 DUP4 AND PUSH1 0x40 DUP4 ADD MSTORE SWAP1 SWAP2 AND PUSH1 0x60 DUP3 ADD MSTORE PUSH1 0x80 ADD SWAP1 JUMP JUMPDEST PUSH1 0x40 MLOAD DUP1 SWAP2 SUB SWAP1 LOG1 POP SWAP8 SWAP7 POP POP POP POP POP POP POP JUMP JUMPDEST PUSH1 0x40 MLOAD PUSH4 0x21F8A721 PUSH1 0xE0 SHL DUP2 MSTORE PUSH11 0x3937B632A6B0B730B3B2B9 PUSH1 0xA9 SHL PUSH1 0x4 DUP3 ADD MSTORE PUSH1 0x0 SWAP1 PUSH1 0x1 PUSH1 0x1 PUSH1 0xA0 SHL SUB DUP4 AND SWAP1 PUSH4 0x21F8A721 SWAP1 PUSH1 0x24 ADD PUSH1 0x20 PUSH1 0x40 MLOAD DUP1 DUP4 SUB DUP2 DUP7 DUP1 EXTCODESIZE ISZERO DUP1 ISZERO PUSH2 0x10A1 JUMPI PUSH1 0x0 DUP1 REVERT JUMPDEST POP GAS STATICCALL ISZERO DUP1 ISZERO PUSH2 0x10B5 JUMPI RETURNDATASIZE PUSH1 0x0 DUP1 RETURNDATACOPY RETURNDATASIZE PUSH1 0x0 REVERT JUMPDEST POP POP POP POP PUSH1 0x40 MLOAD RETURNDATASIZE PUSH1 0x1F NOT PUSH1 0x1F DUP3 ADD AND DUP3 ADD DUP1 PUSH1 0x40 MSTORE POP DUP2 ADD SWAP1 PUSH2 0x10D9 SWAP2 SWAP1 PUSH2 0x140A JUMP JUMPDEST SWAP3 SWAP2 POP POP JUMP JUMPDEST PUSH1 0x0 DUP4 DUP2 MSTORE PUSH1 0x20 DUP2 DUP2 MSTORE PUSH1 0x40 DUP1 DUP4 KECCAK256 DUP6 DUP5 MSTORE SWAP2 DUP3 SWAP1 MSTORE DUP3 KECCAK256 SLOAD PUSH1 0x1 PUSH1 0x1 PUSH1 0xA0 SHL SUB AND ISZERO PUSH2 0x1110 JUMPI PUSH1 0x0 SWAP2 POP POP PUSH2 0x31C JUMP JUMPDEST PUSH1 0x0 DUP5 DUP2 MSTORE PUSH1 0x20 DUP3 DUP2 MSTORE PUSH1 0x40 SWAP2 DUP3 SWAP1 KECCAK256 DUP1 SLOAD PUSH1 0x1 PUSH1 0x1 PUSH1 0xA0 SHL SUB DUP8 AND PUSH1 0x1 PUSH1 0x1 PUSH1 0xA0 SHL SUB NOT SWAP1 SWAP2 AND DUP2 OR SWAP1 SWAP2 SSTORE DUP3 MLOAD DUP9 DUP2 MSTORE SWAP2 DUP3 ADD DUP8 SWAP1 MSTORE DUP2 DUP4 ADD MSTORE SWAP1 MLOAD PUSH32 0xB6995687D7CA103560700935C62676D62918DAF01877EFEBCE4EEEEB6BEDD512 SWAP2 DUP2 SWAP1 SUB PUSH1 0x60 ADD SWAP1 LOG1 POP PUSH1 0x1 SWAP5 SWAP4 POP POP POP POP JUMP JUMPDEST PUSH1 0x0 PUSH1 0x40 MLOAD PUSH20 0x3D602D80600A3D3981F3363D3D373D3D3D363D73 PUSH1 0x60 SHL DUP2 MSTORE DUP3 PUSH1 0x60 SHL PUSH1 0x14 DUP3 ADD MSTORE PUSH15 0x5AF43D82803E903D91602B57FD5BF3 PUSH1 0x88 SHL PUSH1 0x28 DUP3 ADD MSTORE PUSH1 0x37 DUP2 PUSH1 0x0 CREATE SWAP2 POP POP PUSH1 0x1 PUSH1 0x1 PUSH1 0xA0 SHL SUB DUP2 AND PUSH2 0x121B JUMPI PUSH1 0x40 MLOAD PUSH3 0x461BCD PUSH1 0xE5 SHL DUP2 MSTORE PUSH1 0x20 PUSH1 0x4 DUP3 ADD MSTORE PUSH1 0x16 PUSH1 0x24 DUP3 ADD MSTORE PUSH22 0x115490CC4C4D8DCE8818DC99585D194819985A5B1959 PUSH1 0x52 SHL PUSH1 0x44 DUP3 ADD MSTORE PUSH1 0x64 ADD PUSH2 0x300 JUMP JUMPDEST SWAP2 SWAP1 POP JUMP JUMPDEST PUSH1 0x1 PUSH1 0x1 PUSH1 0xA0 SHL SUB DUP2 AND DUP2 EQ PUSH2 0x1235 JUMPI PUSH1 0x0 DUP1 REVERT JUMPDEST POP JUMP JUMPDEST DUP1 CALLDATALOAD PUSH2 0x121B DUP2 PUSH2 0x1220 JUMP JUMPDEST PUSH1 0x0 DUP1 PUSH1 0x40 DUP4 DUP6 SUB SLT ISZERO PUSH2 0x1256 JUMPI PUSH1 0x0 DUP1 REVERT JUMPDEST DUP3 CALLDATALOAD SWAP2 POP PUSH1 0x20 DUP4 ADD CALLDATALOAD PUSH2 0x1268 DUP2 PUSH2 0x1220 JUMP JUMPDEST DUP1 SWAP2 POP POP SWAP3 POP SWAP3 SWAP1 POP JUMP JUMPDEST PUSH1 0x0 PUSH1 0x60 DUP3 DUP5 SUB SLT ISZERO PUSH2 0x1285 JUMPI PUSH1 0x0 DUP1 REVERT JUMPDEST POP SWAP2 SWAP1 POP JUMP JUMPDEST PUSH1 0x0 PUSH1 0x80 DUP3 DUP5 SUB SLT ISZERO PUSH2 0x1285 JUMPI PUSH1 0x0 DUP1 REVERT JUMPDEST PUSH1 0x0 DUP1 PUSH1 0x0 DUP1 PUSH1 0x0 DUP1 PUSH1 0x0 PUSH2 0x160 DUP9 DUP11 SUB SLT ISZERO PUSH2 0x12B9 JUMPI PUSH1 0x0 DUP1 REVERT JUMPDEST DUP8 CALLDATALOAD PUSH8 0xFFFFFFFFFFFFFFFF DUP1 DUP3 GT ISZERO PUSH2 0x12D1 JUMPI PUSH1 0x0 DUP1 REVERT JUMPDEST DUP2 DUP11 ADD SWAP2 POP DUP11 PUSH1 0x1F DUP4 ADD SLT PUSH2 0x12E5 JUMPI PUSH1 0x0 DUP1 REVERT JUMPDEST DUP2 CALLDATALOAD DUP2 DUP2 GT ISZERO PUSH2 0x12F4 JUMPI PUSH1 0x0 DUP1 REVERT JUMPDEST DUP12 PUSH1 0x20 DUP3 DUP6 ADD ADD GT ISZERO PUSH2 0x1306 JUMPI PUSH1 0x0 DUP1 REVERT JUMPDEST PUSH1 0x20 DUP4 DUP2 ADD SWAP11 POP SWAP1 SWAP9 POP DUP11 ADD CALLDATALOAD SWAP7 POP PUSH2 0x1321 PUSH1 0x40 DUP12 ADD PUSH2 0x1238 JUMP JUMPDEST SWAP6 POP PUSH1 0x60 DUP11 ADD CALLDATALOAD SWAP2 POP DUP1 DUP3 GT ISZERO PUSH2 0x1337 JUMPI PUSH1 0x0 DUP1 REVERT JUMPDEST POP PUSH2 0x1344 DUP11 DUP3 DUP12 ADD PUSH2 0x1273 JUMP JUMPDEST SWAP4 POP POP PUSH2 0x1354 DUP10 PUSH1 0x80 DUP11 ADD PUSH2 0x1273 JUMP JUMPDEST SWAP2 POP PUSH2 0x1363 DUP10 PUSH1 0xE0 DUP11 ADD PUSH2 0x128B JUMP JUMPDEST SWAP1 POP SWAP3 SWAP6 SWAP9 SWAP2 SWAP5 SWAP8 POP SWAP3 SWAP6 POP JUMP JUMPDEST PUSH1 0x0 DUP1 PUSH1 0x40 DUP4 DUP6 SUB SLT ISZERO PUSH2 0x1384 JUMPI PUSH1 0x0 DUP1 REVERT JUMPDEST POP POP DUP1 CALLDATALOAD SWAP3 PUSH1 0x20 SWAP1 SWAP2 ADD CALLDATALOAD SWAP2 POP JUMP JUMPDEST PUSH1 0x0 PUSH1 0x20 DUP3 DUP5 SUB SLT ISZERO PUSH2 0x13A5 JUMPI PUSH1 0x0 DUP1 REVERT JUMPDEST DUP2 MLOAD DUP1 ISZERO ISZERO DUP2 EQ PUSH2 0x31C JUMPI PUSH1 0x0 DUP1 REVERT JUMPDEST PUSH1 0x0 PUSH1 0x20 DUP1 DUP4 MSTORE DUP4 MLOAD DUP1 DUP3 DUP6 ADD MSTORE PUSH1 0x0 JUMPDEST DUP2 DUP2 LT ISZERO PUSH2 0x13E2 JUMPI DUP6 DUP2 ADD DUP4 ADD MLOAD DUP6 DUP3 ADD PUSH1 0x40 ADD MSTORE DUP3 ADD PUSH2 0x13C6 JUMP JUMPDEST DUP2 DUP2 GT ISZERO PUSH2 0x13F4 JUMPI PUSH1 0x0 PUSH1 0x40 DUP4 DUP8 ADD ADD MSTORE JUMPDEST POP PUSH1 0x1F ADD PUSH1 0x1F NOT AND SWAP3 SWAP1 SWAP3 ADD PUSH1 0x40 ADD SWAP4 SWAP3 POP POP POP JUMP JUMPDEST PUSH1 0x0 PUSH1 0x20 DUP3 DUP5 SUB SLT ISZERO PUSH2 0x141C JUMPI PUSH1 0x0 DUP1 REVERT JUMPDEST DUP2 MLOAD PUSH2 0x31C DUP2 PUSH2 0x1220 JUMP JUMPDEST PUSH1 0x0 PUSH1 0x20 DUP3 DUP5 SUB SLT ISZERO PUSH2 0x1439 JUMPI PUSH1 0x0 DUP1 REVERT JUMPDEST DUP2 CALLDATALOAD PUSH1 0xFF DUP2 AND DUP2 EQ PUSH2 0x31C JUMPI PUSH1 0x0 DUP1 REVERT JUMPDEST DUP2 DUP4 MSTORE DUP2 DUP2 PUSH1 0x20 DUP6 ADD CALLDATACOPY POP PUSH1 0x0 DUP3 DUP3 ADD PUSH1 0x20 SWAP1 DUP2 ADD SWAP2 SWAP1 SWAP2 MSTORE PUSH1 0x1F SWAP1 SWAP2 ADD PUSH1 0x1F NOT AND SWAP1 SWAP2 ADD ADD SWAP1 JUMP JUMPDEST PUSH1 0x60 DUP2 MSTORE PUSH1 0x0 PUSH2 0x1487 PUSH1 0x60 DUP4 ADD DUP7 DUP9 PUSH2 0x144A JUMP JUMPDEST PUSH1 0x20 DUP4 ADD SWAP5 SWAP1 SWAP5 MSTORE POP PUSH1 0x1 PUSH1 0x1 PUSH1 0xA0 SHL SUB SWAP2 SWAP1 SWAP2 AND PUSH1 0x40 SWAP1 SWAP2 ADD MSTORE SWAP3 SWAP2 POP POP JUMP JUMPDEST PUSH1 0x80 DUP2 MSTORE PUSH1 0x0 PUSH2 0x14BC PUSH1 0x80 DUP4 ADD DUP8 DUP10 PUSH2 0x144A JUMP JUMPDEST PUSH1 0x1 PUSH1 0x1 PUSH1 0xA0 SHL SUB SWAP6 DUP7 AND PUSH1 0x20 DUP5 ADD MSTORE PUSH1 0x40 DUP4 ADD SWAP5 SWAP1 SWAP5 MSTORE POP SWAP3 AND PUSH1 0x60 SWAP1 SWAP3 ADD SWAP2 SWAP1 SWAP2 MSTORE SWAP3 SWAP2 POP POP JUMP JUMPDEST PUSH1 0x0 DUP1 DUP4 CALLDATALOAD PUSH1 0x1E NOT DUP5 CALLDATASIZE SUB ADD DUP2 SLT PUSH2 0x14FD JUMPI PUSH1 0x0 DUP1 REVERT JUMPDEST DUP4 ADD DUP1 CALLDATALOAD SWAP2 POP PUSH8 0xFFFFFFFFFFFFFFFF DUP3 GT ISZERO PUSH2 0x1518 JUMPI PUSH1 0x0 DUP1 REVERT JUMPDEST PUSH1 0x20 ADD SWAP2 POP CALLDATASIZE DUP2 SWAP1 SUB DUP3 SGT ISZERO PUSH2 0x152D JUMPI PUSH1 0x0 DUP1 REVERT JUMPDEST SWAP3 POP SWAP3 SWAP1 POP JUMP JUMPDEST PUSH1 0x80 DUP2 MSTORE PUSH1 0x0 PUSH2 0x1548 PUSH1 0x80 DUP4 ADD DUP9 DUP11 PUSH2 0x144A JUMP JUMPDEST DUP3 DUP2 SUB PUSH1 0x20 DUP5 ADD MSTORE PUSH2 0x155B DUP2 DUP8 DUP10 PUSH2 0x144A JUMP JUMPDEST PUSH1 0xFF SWAP6 SWAP1 SWAP6 AND PUSH1 0x40 DUP5 ADD MSTORE POP POP PUSH1 0x1 PUSH1 0x1 PUSH1 0xA0 SHL SUB SWAP2 SWAP1 SWAP2 AND PUSH1 0x60 SWAP1 SWAP2 ADD MSTORE SWAP5 SWAP4 POP POP POP POP JUMP INVALID PUSH10 0x6E76616C696420766175 PUSH13 0x7420696D706C656D656E746174 PUSH10 0x6F6E20666F7220676976 PUSH6 0x6E20636F696E PUSH10 0x6E76616C696420706F6F PUSH13 0x20696D706C656D656E74617469 PUSH16 0x6E20666F7220676976656E20636F696E PUSH10 0x6E76616C6964204C5020 SLOAD PUSH16 0x6B656E20696D706C656D656E74617469 PUSH16 0x6E20666F7220676976656E20636F696E PUSH10 0x6E76616C696420737461 PUSH12 0x65725661756C7420696D706C PUSH6 0x6D656E746174 PUSH10 0x6F6E20666F7220676976 PUSH6 0x6E20636F696E LOG2 PUSH5 0x6970667358 0x22 SLT KECCAK256 PUSH20 0xB0D58400804FE1579BA7112BE400559E5FC52F65 DUP6 STOP SWAP12 SWAP4 PUSH26 0xB90BC0C59C1E64736F6C63430008090033000000000000000000 ","sha1":"7ba4b2f79d3760dd2543791086bcde1eb76adc0d","source":"// SPDX-License-Identifier: GPL-3.0-or-later\npragma solidity 0.8.9;\n\nimport \"@openzeppelin/contracts/proxy/transparent/TransparentUpgradeableProxy.sol\";\nimport \"@openzeppelin/contracts/token/ERC20/utils/SafeERC20.sol\";\nimport \"@openzeppelin/contracts/token/ERC20/IERC20.sol\";\nimport \"@openzeppelin/contracts/proxy/Clones.sol\";\n\nimport \"../../interfaces/IStakerVault.sol\";\nimport \"../../interfaces/IVault.sol\";\nimport \"../../interfaces/ILpToken.sol\";\nimport \"../../interfaces/IAdmin.sol\";\nimport \"../../interfaces/IController.sol\";\nimport \"../../interfaces/pool/ILiquidityPool.sol\";\nimport \"../../interfaces/pool/IErc20Pool.sol\";\nimport \"../../interfaces/pool/IEthPool.sol\";\n\nimport \"../../libraries/ScaledMath.sol\";\nimport \"../../libraries/AddressProviderHelpers.sol\";\n\nimport \"../access/Authorization.sol\";\n\ncontract PoolFactory is Authorization {\n    using AddressProviderHelpers for IAddressProvider;\n\n    struct Addresses {\n        address pool;\n        address vault;\n        address lpToken;\n        address stakerVault;\n    }\n\n    struct ImplementationNames {\n        bytes32 pool;\n        bytes32 vault;\n        bytes32 lpToken;\n        bytes32 stakerVault;\n    }\n\n    struct VaultArgs {\n        uint256 debtLimit;\n        uint256 targetAllocation;\n        uint256 bound;\n    }\n\n    struct LpTokenArgs {\n        string name;\n        string symbol;\n        uint8 decimals;\n    }\n\n    struct DeployPoolVars {\n        address lpTokenImplementation;\n        address poolImplementation;\n        address stakerVaultImplementation;\n        address vaultImplementation;\n    }\n\n    bytes32 internal constant _POOL_KEY = \"pool\";\n    bytes32 internal constant _LP_TOKEN_KEY = \"lp_token\";\n    bytes32 internal constant _STAKER_VAULT_KEY = \"staker_vault\";\n    bytes32 internal constant _VAULT_KEY = \"vault\";\n\n    IController public immutable controller;\n    IAddressProvider public immutable addressProvider;\n\n    /**\n     * @dev maps a contract type (e.g. \"pool\" or \"lp_token\", as defined in constants above)\n     * to a mapping from an implementation name to the actual implementation\n     * The implementation name is decided when registering the implementation\n     * and can be arbitrary (e.g. \"ERC20PoolV1\")\n     */\n    mapping(bytes32 => mapping(bytes32 => address)) public implementations;\n\n    event NewPool(address pool, address vault, address lpToken, address stakerVault);\n    event NewImplementation(bytes32 key, bytes32 name, address implementation);\n\n    constructor(IController _controller)\n        Authorization(_controller.addressProvider().getRoleManager())\n    {\n        controller = IController(_controller);\n        addressProvider = IController(_controller).addressProvider();\n    }\n\n    /**\n     * @notice Add a new pool implementation to the factory.\n     * @param name of the pool implementation.\n     * @param implementation of pool implementation to add.\n     */\n    function addPoolImplementation(bytes32 name, address implementation)\n        external\n        onlyGovernance\n        returns (bool)\n    {\n        return _addImplementation(_POOL_KEY, name, implementation);\n    }\n\n    /**\n     * @notice Add a new LP token implementation to the factory.\n     * @param name of the LP token implementation.\n     * @param implementation of lp token implementation to add.\n     */\n    function addLpTokenImplementation(bytes32 name, address implementation)\n        external\n        onlyGovernance\n        returns (bool)\n    {\n        return _addImplementation(_LP_TOKEN_KEY, name, implementation);\n    }\n\n    /**\n     * @notice Add a new vault implementation to the factory.\n     * @param name of the vault implementation.\n     * @param implementation of vault implementation to add.\n     */\n    function addVaultImplementation(bytes32 name, address implementation)\n        external\n        onlyGovernance\n        returns (bool)\n    {\n        return _addImplementation(_VAULT_KEY, name, implementation);\n    }\n\n    /**\n     * @notice Add a new staker vault implementation to the factory.\n     * @param name of the staker vault implementation.\n     * @param implementation of staker vault implementation to add.\n     */\n    function addStakerVaultImplementation(bytes32 name, address implementation)\n        external\n        onlyGovernance\n        returns (bool)\n    {\n        return _addImplementation(_STAKER_VAULT_KEY, name, implementation);\n    }\n\n    /**\n     * @notice Deploys a new pool and LP token.\n     * @dev Decimals is an argument as not all ERC20 tokens implement the ERC20Detailed interface.\n     *      An implementation where `getUnderlying()` returns the zero address is for ETH pools.\n     * @param poolName Name of the pool.\n     * @param underlying Address of the pool's underlying.\n     * @param lpTokenArgs Arguments to create the LP token for the pool\n     * @param vaultArgs Arguments to create the vault\n     * @param implementationNames Name of the implementations to use\n     * @return addrs Address of the deployed pool, address of the pool's deployed LP token.\n     */\n    function deployPool(\n        string calldata poolName,\n        uint256 depositCap,\n        address underlying,\n        LpTokenArgs calldata lpTokenArgs,\n        VaultArgs calldata vaultArgs,\n        ImplementationNames calldata implementationNames\n    ) external onlyGovernance returns (Addresses memory addrs) {\n        DeployPoolVars memory vars;\n\n        vars.poolImplementation = implementations[_POOL_KEY][implementationNames.pool];\n        require(vars.poolImplementation != address(0), Error.INVALID_POOL_IMPLEMENTATION);\n\n        vars.lpTokenImplementation = implementations[_LP_TOKEN_KEY][implementationNames.lpToken];\n        require(vars.lpTokenImplementation != address(0), Error.INVALID_LP_TOKEN_IMPLEMENTATION);\n\n        vars.vaultImplementation = implementations[_VAULT_KEY][implementationNames.vault];\n        require(vars.vaultImplementation != address(0), Error.INVALID_VAULT_IMPLEMENTATION);\n\n        vars.stakerVaultImplementation = implementations[_STAKER_VAULT_KEY][\n            implementationNames.stakerVault\n        ];\n        require(\n            vars.stakerVaultImplementation != address(0),\n            Error.INVALID_STAKER_VAULT_IMPLEMENTATION\n        );\n\n        addrs.pool = Clones.clone(vars.poolImplementation);\n        addrs.vault = Clones.clone(vars.vaultImplementation);\n\n        if (underlying == address(0)) {\n            // ETH pool\n            require(\n                ILiquidityPool(vars.poolImplementation).getUnderlying() == address(0),\n                Error.INVALID_POOL_IMPLEMENTATION\n            );\n            require(lpTokenArgs.decimals == 18, Error.INVALID_DECIMALS);\n            IEthPool(addrs.pool).initialize(poolName, depositCap, addrs.vault);\n        } else {\n            IErc20Pool(addrs.pool).initialize(poolName, underlying, depositCap, addrs.vault);\n        }\n\n        addrs.lpToken = Clones.clone(vars.lpTokenImplementation);\n\n        ILpToken(addrs.lpToken).initialize(\n            lpTokenArgs.name,\n            lpTokenArgs.symbol,\n            lpTokenArgs.decimals,\n            addrs.pool\n        );\n\n        addrs.stakerVault = Clones.clone(vars.stakerVaultImplementation);\n        IStakerVault(addrs.stakerVault).initialize(addrs.lpToken);\n        controller.addStakerVault(addrs.stakerVault);\n\n        ILiquidityPool(addrs.pool).setLpToken(addrs.lpToken);\n        ILiquidityPool(addrs.pool).setStaker();\n\n        IVault(addrs.vault).initialize(\n            addrs.pool,\n            vaultArgs.debtLimit,\n            vaultArgs.targetAllocation,\n            vaultArgs.bound\n        );\n\n        addressProvider.addPool(addrs.pool);\n\n        emit NewPool(addrs.pool, addrs.vault, addrs.lpToken, addrs.stakerVault);\n        return addrs;\n    }\n\n    /**\n     * @notice Add a new implementation of type `name` to the factory.\n     * @param key of the implementation to add.\n     * @param name of the implementation to add.\n     * @param implementation of lp token implementation to add.\n     */\n    function _addImplementation(\n        bytes32 key,\n        bytes32 name,\n        address implementation\n    ) internal returns (bool) {\n        mapping(bytes32 => address) storage currentImplementations = implementations[key];\n        if (currentImplementations[name] != address(0)) {\n            return false;\n        }\n        currentImplementations[name] = implementation;\n        emit NewImplementation(key, name, implementation);\n        return true;\n    }\n}\n","sourcePath":"contracts/pool/PoolFactory.sol","type":"contract","deployment":{"address":"0xb4b58d15CE64477872074D18Ac6610508122eED7","chainid":"42","blockHeight":30414751}}