{"abi":[{"inputs":[{"internalType":"address","name":"comptrollerAddress","type":"address"},{"internalType":"address","name":"_cTokenRegistry","type":"address"}],"stateMutability":"nonpayable","type":"constructor","name":"constructor"},{"inputs":[],"name":"cTokenRegistry","outputs":[{"internalType":"contract ICTokenRegistry","name":"","type":"address"}],"stateMutability":"view","type":"function"},{"inputs":[],"name":"comptroller","outputs":[{"internalType":"contract Comptroller","name":"","type":"address"}],"stateMutability":"view","type":"function"},{"inputs":[{"internalType":"address","name":"account","type":"address"}],"name":"getUserFactor","outputs":[{"internalType":"uint256","name":"","type":"uint256"}],"stateMutability":"view","type":"function"},{"inputs":[{"internalType":"address","name":"account","type":"address"},{"internalType":"address","name":"underlying","type":"address"},{"internalType":"uint256","name":"amount","type":"uint256"},{"internalType":"bool","name":"repayDebt","type":"bool"}],"name":"topUp","outputs":[{"internalType":"bool","name":"","type":"bool"}],"stateMutability":"nonpayable","type":"function"}],"bytecode":"60c060405234801561001057600080fd5b5060405161154438038061154483398101604081905261002f91610062565b6001600160a01b039182166080521660a052610095565b80516001600160a01b038116811461005d57600080fd5b919050565b6000806040838503121561007557600080fd5b61007e83610046565b915061008c60208401610046565b90509250929050565b60805160a0516114706100d46000396000818160bb015261015c015260008181607c0152818161056f0152818161062301526107ca01526114706000f3fe608060405234801561001057600080fd5b506004361061004c5760003560e01c80631d0a29a0146100515780635fe3b56714610077578063c45eb708146100b6578063ce275f6c146100dd575b600080fd5b61006461005f3660046110cf565b610100565b6040519081526020015b60405180910390f35b61009e7f000000000000000000000000000000000000000000000000000000000000000081565b6040516001600160a01b03909116815260200161006e565b61009e7f000000000000000000000000000000000000000000000000000000000000000081565b6100f06100eb3660046110fa565b610138565b604051901515815260200161006e565b600080600061010e8461055f565b91509150806000141561012657506000199392505050565b61013082826109de565b949350505050565b604051632e38823560e01b81526001600160a01b03848116600483015260009182917f00000000000000000000000000000000000000000000000000000000000000001690632e38823590602401602060405180830381600087803b1580156101a057600080fd5b505af11580156101b4573d6000803e3d6000fd5b505050506040513d601f19601f820116820180604052508101906101d8919061115d565b6040516370a0823160e01b81523060048201529091506000906001600160a01b038316906370a082319060240160206040518083038186803b15801561021d57600080fd5b505afa158015610231573d6000803e3d6000fd5b505050506040513d601f19601f82011682018060405250810190610255919061117a565b905083156102855761026987878785610a04565b61027390866111a9565b94508461028557600192505050610130565b60006001600160a01b0387166103185760405163140e25ad60e31b8152600481018790526001600160a01b0384169063a0712d689088906024016020604051808303818588803b1580156102d857600080fd5b505af11580156102ec573d6000803e3d6000fd5b50505050506040513d601f19601f82011682018060405250810190610311919061117a565b90506103a9565b61032c6001600160a01b0388168488610c26565b60405163140e25ad60e31b8152600481018790526001600160a01b0384169063a0712d6890602401602060405180830381600087803b15801561036e57600080fd5b505af1158015610382573d6000803e3d6000fd5b505050506040513d601f19601f820116820180604052508101906103a6919061117a565b90505b60408051808201909152600b81526a1b5a5b9d0819985a5b195960aa1b602082015281156103f35760405162461bcd60e51b81526004016103ea91906111f0565b60405180910390fd5b506040516370a0823160e01b81523060048201526000906001600160a01b038516906370a082319060240160206040518083038186803b15801561043657600080fd5b505afa15801561044a573d6000803e3d6000fd5b505050506040513d601f19601f8201168201806040525081019061046e919061117a565b9050600061047c84836111a9565b60405163a9059cbb60e01b81526001600160a01b038c811660048301526024820183905291925060009187169063a9059cbb90604401602060405180830381600087803b1580156104cc57600080fd5b505af11580156104e0573d6000803e3d6000fd5b505050506040513d601f19601f820116820180604052508101906105049190611223565b9050806040518060400160405280600f81526020016e1d1c985b9cd9995c8819985a5b1959608a1b8152509061054d5760405162461bcd60e51b81526004016103ea91906111f0565b5060019b9a5050505050505050505050565b60008061056a611015565b6000807f00000000000000000000000000000000000000000000000000000000000000006001600160a01b0316637dc0d1d06040518163ffffffff1660e01b815260040160206040518083038186803b1580156105c657600080fd5b505afa1580156105da573d6000803e3d6000fd5b505050506040513d601f19601f820116820180604052508101906105fe919061115d565b604051632aff3bff60e21b81526001600160a01b0388811660048301529192506000917f0000000000000000000000000000000000000000000000000000000000000000169063abfceffc9060240160006040518083038186803b15801561066557600080fd5b505afa158015610679573d6000803e3d6000fd5b505050506040513d6000823e601f3d908101601f191682016040526106a19190810190611256565b905060005b81518110156109c65760008282815181106106c3576106c361131b565b60209081029190910101516040516361bfb47160e11b81526001600160a01b038b811660048301529192509082169063c37f68e29060240160806040518083038186803b15801561071357600080fd5b505afa158015610727573d6000803e3d6000fd5b505050506040513d601f19601f8201168201806040525081019061074b9190611331565b60808a01526060890152604080890191909152805180820190915260128152711b595d1a1bd90818d85b1b0819985a5b195960721b602082015290955085156107a75760405162461bcd60e51b81526004016103ea91906111f0565b50604051638e8f294b60e01b81526001600160a01b0382811660048301526000917f000000000000000000000000000000000000000000000000000000000000000090911690638e8f294b9060240160606040518083038186803b15801561080e57600080fd5b505afa158015610822573d6000803e3d6000fd5b505050506040513d601f19601f820116820180604052508101906108469190611367565b50604080516020808201835283825260c08c01919091528151908101825260808b0151815260e08b01525163fc57d4df60e01b81526001600160a01b038581166004830152919350908716915063fc57d4df9060240160206040518083038186803b1580156108b457600080fd5b505afa1580156108c8573d6000803e3d6000fd5b505050506040513d601f19601f820116820180604052508101906108ec919061117a565b60a088018190526040805180820190915260128152711b595d1a1bd90818d85b1b0819985a5b195960721b60208201529061093a5760405162461bcd60e51b81526004016103ea91906111f0565b50604080516020810190915260a0880151815261010088015260c087015160e08801516109759161096a91610d71565b886101000151610d71565b61012088018190526040880151885161098f929190610dbb565b8752610100870151606088015160208901516109ac929190610dbb565b6020880152508190506109be816113aa565b9150506106a6565b50836000015184602001519550955050505050915091565b6000816109f3670de0b6b3a7640000856113c5565b6109fd91906113e4565b9392505050565b6040516305eff7ef60e21b81526001600160a01b03858116600483015260009182918416906317bfdfbc90602401602060405180830381600087803b158015610a4c57600080fd5b505af1158015610a60573d6000803e3d6000fd5b505050506040513d601f19601f82011682018060405250810190610a84919061117a565b905080610a95576000915050610130565b83811115610aa05750825b60006001600160a01b038616610b385760405163e597461960e01b81526001600160a01b03888116600483015285919082169063e59746199085906024016020604051808303818588803b158015610af757600080fd5b505af1158015610b0b573d6000803e3d6000fd5b50505050506040513d601f19601f82011682018060405250810190610b30919061117a565b915050610bd1565b610b4c6001600160a01b0387168584610c26565b6040516304c11f0360e31b81526001600160a01b03888116600483015260248201849052851690632608f81890604401602060405180830381600087803b158015610b9657600080fd5b505af1158015610baa573d6000803e3d6000fd5b505050506040513d601f19601f82011682018060405250810190610bce919061117a565b90505b6040805180820190915260138152721c995c185e48189bdc9c9bddc819985a5b1959606a1b60208201528115610c1a5760405162461bcd60e51b81526004016103ea91906111f0565b50909695505050505050565b801580610caf5750604051636eb1769f60e11b81523060048201526001600160a01b03838116602483015284169063dd62ed3e9060440160206040518083038186803b158015610c7557600080fd5b505afa158015610c89573d6000803e3d6000fd5b505050506040513d601f19601f82011682018060405250810190610cad919061117a565b155b610d1a5760405162461bcd60e51b815260206004820152603660248201527f5361666545524332303a20617070726f76652066726f6d206e6f6e2d7a65726f60448201527520746f206e6f6e2d7a65726f20616c6c6f77616e636560501b60648201526084016103ea565b604080516001600160a01b038416602482015260448082018490528251808303909101815260649091019091526020810180516001600160e01b031663095ea7b360e01b179052610d6c908490610de7565b505050565b6040805160208101909152600081526040518060200160405280670de0b6b3a764000084600001518660000151610da891906113c5565b610db291906113e4565b90529392505050565b600080610dc88585610eb9565b905082610dd482610ee3565b610dde9190611406565b95945050505050565b6000610e3c826040518060400160405280602081526020017f5361666545524332303a206c6f772d6c6576656c2063616c6c206661696c6564815250856001600160a01b0316610f019092919063ffffffff16565b805190915015610d6c5780806020019051810190610e5a9190611223565b610d6c5760405162461bcd60e51b815260206004820152602a60248201527f5361666545524332303a204552433230206f7065726174696f6e20646964206e6044820152691bdd081cdd58d8d9595960b21b60648201526084016103ea565b6040805160208101909152600081526040518060200160405280838560000151610db291906113c5565b8051600090610efb90670de0b6b3a7640000906113e4565b92915050565b60606101308484600085856001600160a01b0385163b610f635760405162461bcd60e51b815260206004820152601d60248201527f416464726573733a2063616c6c20746f206e6f6e2d636f6e747261637400000060448201526064016103ea565b600080866001600160a01b03168587604051610f7f919061141e565b60006040518083038185875af1925050503d8060008114610fbc576040519150601f19603f3d011682016040523d82523d6000602084013e610fc1565b606091505b5091509150610fd1828286610fdc565b979650505050505050565b60608315610feb5750816109fd565b825115610ffb5782518084602001fd5b8160405162461bcd60e51b81526004016103ea91906111f0565b6040518061014001604052806000815260200160008152602001600081526020016000815260200160008152602001600081526020016110616040518060200160405280600081525090565b815260200161107c6040518060200160405280600081525090565b81526020016110976040518060200160405280600081525090565b81526020016110b26040518060200160405280600081525090565b905290565b6001600160a01b03811681146110cc57600080fd5b50565b6000602082840312156110e157600080fd5b81356109fd816110b7565b80151581146110cc57600080fd5b6000806000806080858703121561111057600080fd5b843561111b816110b7565b9350602085013561112b816110b7565b9250604085013591506060850135611142816110ec565b939692955090935050565b8051611158816110b7565b919050565b60006020828403121561116f57600080fd5b81516109fd816110b7565b60006020828403121561118c57600080fd5b5051919050565b634e487b7160e01b600052601160045260246000fd5b6000828210156111bb576111bb611193565b500390565b60005b838110156111db5781810151838201526020016111c3565b838111156111ea576000848401525b50505050565b602081526000825180602084015261120f8160408501602087016111c0565b601f01601f19169190910160400192915050565b60006020828403121561123557600080fd5b81516109fd816110ec565b634e487b7160e01b600052604160045260246000fd5b6000602080838503121561126957600080fd5b825167ffffffffffffffff8082111561128157600080fd5b818501915085601f83011261129557600080fd5b8151818111156112a7576112a7611240565b8060051b604051601f19603f830116810181811085821117156112cc576112cc611240565b6040529182528482019250838101850191888311156112ea57600080fd5b938501935b8285101561130f576113008561114d565b845293850193928501926112ef565b98975050505050505050565b634e487b7160e01b600052603260045260246000fd5b6000806000806080858703121561134757600080fd5b505082516020840151604085015160609095015191969095509092509050565b60008060006060848603121561137c57600080fd5b8351611387816110ec565b60208501516040860151919450925061139f816110ec565b809150509250925092565b60006000198214156113be576113be611193565b5060010190565b60008160001904831182151516156113df576113df611193565b500290565b60008261140157634e487b7160e01b600052601260045260246000fd5b500490565b6000821982111561141957611419611193565b500190565b600082516114308184602087016111c0565b919091019291505056fea2646970667358221220206ea8d9e1492e34c5cfa5f8b7eb8c56e3326223e3fbffd03867940c3ebcdeb664736f6c63430008090033","bytecodeSha1":"8102894a90c1fa5db7ffdfcafde745032b8baee8","compiler":{"evm_version":"london","optimizer":{"enabled":true,"runs":200},"version":"0.8.9+commit.e5eed63a"},"contractName":"CompoundHandler","language":"Solidity","natspec":{"kind":"dev","methods":{"getUserFactor(address)":{"notice":"Returns the collaterization ratio of the user.         A result of 1.5 (x1e18) means that the user has a 150% collaterization ratio.","params":{"account":"account for which to check the factor."},"returns":{"_0":"User factor."}},"topUp(address,address,uint256,bool)":{"notice":"Executes the top-up of a position.","params":{"account":"Account holding the position.","amount":"Amount to top-up by.","underlying":"Underlying for tup-up."},"returns":{"_0":"`true` if successful."}}},"version":1},"opcodes":"PUSH1 0x80 PUSH1 0x40 MSTORE CALLVALUE DUP1 ISZERO PUSH2 0x10 JUMPI PUSH1 0x0 DUP1 REVERT JUMPDEST POP PUSH1 0x4 CALLDATASIZE LT PUSH2 0x4C JUMPI PUSH1 0x0 CALLDATALOAD PUSH1 0xE0 SHR DUP1 PUSH4 0x1D0A29A0 EQ PUSH2 0x51 JUMPI DUP1 PUSH4 0x5FE3B567 EQ PUSH2 0x77 JUMPI DUP1 PUSH4 0xC45EB708 EQ PUSH2 0xB6 JUMPI DUP1 PUSH4 0xCE275F6C EQ PUSH2 0xDD JUMPI JUMPDEST PUSH1 0x0 DUP1 REVERT JUMPDEST PUSH2 0x64 PUSH2 0x5F CALLDATASIZE PUSH1 0x4 PUSH2 0x10CF JUMP JUMPDEST PUSH2 0x100 JUMP JUMPDEST PUSH1 0x40 MLOAD SWAP1 DUP2 MSTORE PUSH1 0x20 ADD JUMPDEST PUSH1 0x40 MLOAD DUP1 SWAP2 SUB SWAP1 RETURN JUMPDEST PUSH2 0x9E PUSH32 0x0 DUP2 JUMP JUMPDEST PUSH1 0x40 MLOAD PUSH1 0x1 PUSH1 0x1 PUSH1 0xA0 SHL SUB SWAP1 SWAP2 AND DUP2 MSTORE PUSH1 0x20 ADD PUSH2 0x6E JUMP JUMPDEST PUSH2 0x9E PUSH32 0x0 DUP2 JUMP JUMPDEST PUSH2 0xF0 PUSH2 0xEB CALLDATASIZE PUSH1 0x4 PUSH2 0x10FA JUMP JUMPDEST PUSH2 0x138 JUMP JUMPDEST PUSH1 0x40 MLOAD SWAP1 ISZERO ISZERO DUP2 MSTORE PUSH1 0x20 ADD PUSH2 0x6E JUMP JUMPDEST PUSH1 0x0 DUP1 PUSH1 0x0 PUSH2 0x10E DUP5 PUSH2 0x55F JUMP JUMPDEST SWAP2 POP SWAP2 POP DUP1 PUSH1 0x0 EQ ISZERO PUSH2 0x126 JUMPI POP PUSH1 0x0 NOT SWAP4 SWAP3 POP POP POP JUMP JUMPDEST PUSH2 0x130 DUP3 DUP3 PUSH2 0x9DE JUMP JUMPDEST SWAP5 SWAP4 POP POP POP POP JUMP JUMPDEST PUSH1 0x40 MLOAD PUSH4 0x2E388235 PUSH1 0xE0 SHL DUP2 MSTORE PUSH1 0x1 PUSH1 0x1 PUSH1 0xA0 SHL SUB DUP5 DUP2 AND PUSH1 0x4 DUP4 ADD MSTORE PUSH1 0x0 SWAP2 DUP3 SWAP2 PUSH32 0x0 AND SWAP1 PUSH4 0x2E388235 SWAP1 PUSH1 0x24 ADD PUSH1 0x20 PUSH1 0x40 MLOAD DUP1 DUP4 SUB DUP2 PUSH1 0x0 DUP8 DUP1 EXTCODESIZE ISZERO DUP1 ISZERO PUSH2 0x1A0 JUMPI PUSH1 0x0 DUP1 REVERT JUMPDEST POP GAS CALL ISZERO DUP1 ISZERO PUSH2 0x1B4 JUMPI RETURNDATASIZE PUSH1 0x0 DUP1 RETURNDATACOPY RETURNDATASIZE PUSH1 0x0 REVERT JUMPDEST POP POP POP POP PUSH1 0x40 MLOAD RETURNDATASIZE PUSH1 0x1F NOT PUSH1 0x1F DUP3 ADD AND DUP3 ADD DUP1 PUSH1 0x40 MSTORE POP DUP2 ADD SWAP1 PUSH2 0x1D8 SWAP2 SWAP1 PUSH2 0x115D JUMP JUMPDEST PUSH1 0x40 MLOAD PUSH4 0x70A08231 PUSH1 0xE0 SHL DUP2 MSTORE ADDRESS PUSH1 0x4 DUP3 ADD MSTORE SWAP1 SWAP2 POP PUSH1 0x0 SWAP1 PUSH1 0x1 PUSH1 0x1 PUSH1 0xA0 SHL SUB DUP4 AND SWAP1 PUSH4 0x70A08231 SWAP1 PUSH1 0x24 ADD PUSH1 0x20 PUSH1 0x40 MLOAD DUP1 DUP4 SUB DUP2 DUP7 DUP1 EXTCODESIZE ISZERO DUP1 ISZERO PUSH2 0x21D JUMPI PUSH1 0x0 DUP1 REVERT JUMPDEST POP GAS STATICCALL ISZERO DUP1 ISZERO PUSH2 0x231 JUMPI RETURNDATASIZE PUSH1 0x0 DUP1 RETURNDATACOPY RETURNDATASIZE PUSH1 0x0 REVERT JUMPDEST POP POP POP POP PUSH1 0x40 MLOAD RETURNDATASIZE PUSH1 0x1F NOT PUSH1 0x1F DUP3 ADD AND DUP3 ADD DUP1 PUSH1 0x40 MSTORE POP DUP2 ADD SWAP1 PUSH2 0x255 SWAP2 SWAP1 PUSH2 0x117A JUMP JUMPDEST SWAP1 POP DUP4 ISZERO PUSH2 0x285 JUMPI PUSH2 0x269 DUP8 DUP8 DUP8 DUP6 PUSH2 0xA04 JUMP JUMPDEST PUSH2 0x273 SWAP1 DUP7 PUSH2 0x11A9 JUMP JUMPDEST SWAP5 POP DUP5 PUSH2 0x285 JUMPI PUSH1 0x1 SWAP3 POP POP POP PUSH2 0x130 JUMP JUMPDEST PUSH1 0x0 PUSH1 0x1 PUSH1 0x1 PUSH1 0xA0 SHL SUB DUP8 AND PUSH2 0x318 JUMPI PUSH1 0x40 MLOAD PUSH4 0x140E25AD PUSH1 0xE3 SHL DUP2 MSTORE PUSH1 0x4 DUP2 ADD DUP8 SWAP1 MSTORE PUSH1 0x1 PUSH1 0x1 PUSH1 0xA0 SHL SUB DUP5 AND SWAP1 PUSH4 0xA0712D68 SWAP1 DUP9 SWAP1 PUSH1 0x24 ADD PUSH1 0x20 PUSH1 0x40 MLOAD DUP1 DUP4 SUB DUP2 DUP6 DUP9 DUP1 EXTCODESIZE ISZERO DUP1 ISZERO PUSH2 0x2D8 JUMPI PUSH1 0x0 DUP1 REVERT JUMPDEST POP GAS CALL ISZERO DUP1 ISZERO PUSH2 0x2EC JUMPI RETURNDATASIZE PUSH1 0x0 DUP1 RETURNDATACOPY RETURNDATASIZE PUSH1 0x0 REVERT JUMPDEST POP POP POP POP POP PUSH1 0x40 MLOAD RETURNDATASIZE PUSH1 0x1F NOT PUSH1 0x1F DUP3 ADD AND DUP3 ADD DUP1 PUSH1 0x40 MSTORE POP DUP2 ADD SWAP1 PUSH2 0x311 SWAP2 SWAP1 PUSH2 0x117A JUMP JUMPDEST SWAP1 POP PUSH2 0x3A9 JUMP JUMPDEST PUSH2 0x32C PUSH1 0x1 PUSH1 0x1 PUSH1 0xA0 SHL SUB DUP9 AND DUP5 DUP9 PUSH2 0xC26 JUMP JUMPDEST PUSH1 0x40 MLOAD PUSH4 0x140E25AD PUSH1 0xE3 SHL DUP2 MSTORE PUSH1 0x4 DUP2 ADD DUP8 SWAP1 MSTORE PUSH1 0x1 PUSH1 0x1 PUSH1 0xA0 SHL SUB DUP5 AND SWAP1 PUSH4 0xA0712D68 SWAP1 PUSH1 0x24 ADD PUSH1 0x20 PUSH1 0x40 MLOAD DUP1 DUP4 SUB DUP2 PUSH1 0x0 DUP8 DUP1 EXTCODESIZE ISZERO DUP1 ISZERO PUSH2 0x36E JUMPI PUSH1 0x0 DUP1 REVERT JUMPDEST POP GAS CALL ISZERO DUP1 ISZERO PUSH2 0x382 JUMPI RETURNDATASIZE PUSH1 0x0 DUP1 RETURNDATACOPY RETURNDATASIZE PUSH1 0x0 REVERT JUMPDEST POP POP POP POP PUSH1 0x40 MLOAD RETURNDATASIZE PUSH1 0x1F NOT PUSH1 0x1F DUP3 ADD AND DUP3 ADD DUP1 PUSH1 0x40 MSTORE POP DUP2 ADD SWAP1 PUSH2 0x3A6 SWAP2 SWAP1 PUSH2 0x117A JUMP JUMPDEST SWAP1 POP JUMPDEST PUSH1 0x40 DUP1 MLOAD DUP1 DUP3 ADD SWAP1 SWAP2 MSTORE PUSH1 0xB DUP2 MSTORE PUSH11 0x1B5A5B9D0819985A5B1959 PUSH1 0xAA SHL PUSH1 0x20 DUP3 ADD MSTORE DUP2 ISZERO PUSH2 0x3F3 JUMPI PUSH1 0x40 MLOAD PUSH3 0x461BCD PUSH1 0xE5 SHL DUP2 MSTORE PUSH1 0x4 ADD PUSH2 0x3EA SWAP2 SWAP1 PUSH2 0x11F0 JUMP JUMPDEST PUSH1 0x40 MLOAD DUP1 SWAP2 SUB SWAP1 REVERT JUMPDEST POP PUSH1 0x40 MLOAD PUSH4 0x70A08231 PUSH1 0xE0 SHL DUP2 MSTORE ADDRESS PUSH1 0x4 DUP3 ADD MSTORE PUSH1 0x0 SWAP1 PUSH1 0x1 PUSH1 0x1 PUSH1 0xA0 SHL SUB DUP6 AND SWAP1 PUSH4 0x70A08231 SWAP1 PUSH1 0x24 ADD PUSH1 0x20 PUSH1 0x40 MLOAD DUP1 DUP4 SUB DUP2 DUP7 DUP1 EXTCODESIZE ISZERO DUP1 ISZERO PUSH2 0x436 JUMPI PUSH1 0x0 DUP1 REVERT JUMPDEST POP GAS STATICCALL ISZERO DUP1 ISZERO PUSH2 0x44A JUMPI RETURNDATASIZE PUSH1 0x0 DUP1 RETURNDATACOPY RETURNDATASIZE PUSH1 0x0 REVERT JUMPDEST POP POP POP POP PUSH1 0x40 MLOAD RETURNDATASIZE PUSH1 0x1F NOT PUSH1 0x1F DUP3 ADD AND DUP3 ADD DUP1 PUSH1 0x40 MSTORE POP DUP2 ADD SWAP1 PUSH2 0x46E SWAP2 SWAP1 PUSH2 0x117A JUMP JUMPDEST SWAP1 POP PUSH1 0x0 PUSH2 0x47C DUP5 DUP4 PUSH2 0x11A9 JUMP JUMPDEST PUSH1 0x40 MLOAD PUSH4 0xA9059CBB PUSH1 0xE0 SHL DUP2 MSTORE PUSH1 0x1 PUSH1 0x1 PUSH1 0xA0 SHL SUB DUP13 DUP2 AND PUSH1 0x4 DUP4 ADD MSTORE PUSH1 0x24 DUP3 ADD DUP4 SWAP1 MSTORE SWAP2 SWAP3 POP PUSH1 0x0 SWAP2 DUP8 AND SWAP1 PUSH4 0xA9059CBB SWAP1 PUSH1 0x44 ADD PUSH1 0x20 PUSH1 0x40 MLOAD DUP1 DUP4 SUB DUP2 PUSH1 0x0 DUP8 DUP1 EXTCODESIZE ISZERO DUP1 ISZERO PUSH2 0x4CC JUMPI PUSH1 0x0 DUP1 REVERT JUMPDEST POP GAS CALL ISZERO DUP1 ISZERO PUSH2 0x4E0 JUMPI RETURNDATASIZE PUSH1 0x0 DUP1 RETURNDATACOPY RETURNDATASIZE PUSH1 0x0 REVERT JUMPDEST POP POP POP POP PUSH1 0x40 MLOAD RETURNDATASIZE PUSH1 0x1F NOT PUSH1 0x1F DUP3 ADD AND DUP3 ADD DUP1 PUSH1 0x40 MSTORE POP DUP2 ADD SWAP1 PUSH2 0x504 SWAP2 SWAP1 PUSH2 0x1223 JUMP JUMPDEST SWAP1 POP DUP1 PUSH1 0x40 MLOAD DUP1 PUSH1 0x40 ADD PUSH1 0x40 MSTORE DUP1 PUSH1 0xF DUP2 MSTORE PUSH1 0x20 ADD PUSH15 0x1D1C985B9CD9995C8819985A5B1959 PUSH1 0x8A SHL DUP2 MSTORE POP SWAP1 PUSH2 0x54D JUMPI PUSH1 0x40 MLOAD PUSH3 0x461BCD PUSH1 0xE5 SHL DUP2 MSTORE PUSH1 0x4 ADD PUSH2 0x3EA SWAP2 SWAP1 PUSH2 0x11F0 JUMP JUMPDEST POP PUSH1 0x1 SWAP12 SWAP11 POP POP POP POP POP POP POP POP POP POP POP JUMP JUMPDEST PUSH1 0x0 DUP1 PUSH2 0x56A PUSH2 0x1015 JUMP JUMPDEST PUSH1 0x0 DUP1 PUSH32 0x0 PUSH1 0x1 PUSH1 0x1 PUSH1 0xA0 SHL SUB AND PUSH4 0x7DC0D1D0 PUSH1 0x40 MLOAD DUP2 PUSH4 0xFFFFFFFF AND PUSH1 0xE0 SHL DUP2 MSTORE PUSH1 0x4 ADD PUSH1 0x20 PUSH1 0x40 MLOAD DUP1 DUP4 SUB DUP2 DUP7 DUP1 EXTCODESIZE ISZERO DUP1 ISZERO PUSH2 0x5C6 JUMPI PUSH1 0x0 DUP1 REVERT JUMPDEST POP GAS STATICCALL ISZERO DUP1 ISZERO PUSH2 0x5DA JUMPI RETURNDATASIZE PUSH1 0x0 DUP1 RETURNDATACOPY RETURNDATASIZE PUSH1 0x0 REVERT JUMPDEST POP POP POP POP PUSH1 0x40 MLOAD RETURNDATASIZE PUSH1 0x1F NOT PUSH1 0x1F DUP3 ADD AND DUP3 ADD DUP1 PUSH1 0x40 MSTORE POP DUP2 ADD SWAP1 PUSH2 0x5FE SWAP2 SWAP1 PUSH2 0x115D JUMP JUMPDEST PUSH1 0x40 MLOAD PUSH4 0x2AFF3BFF PUSH1 0xE2 SHL DUP2 MSTORE PUSH1 0x1 PUSH1 0x1 PUSH1 0xA0 SHL SUB DUP9 DUP2 AND PUSH1 0x4 DUP4 ADD MSTORE SWAP2 SWAP3 POP PUSH1 0x0 SWAP2 PUSH32 0x0 AND SWAP1 PUSH4 0xABFCEFFC SWAP1 PUSH1 0x24 ADD PUSH1 0x0 PUSH1 0x40 MLOAD DUP1 DUP4 SUB DUP2 DUP7 DUP1 EXTCODESIZE ISZERO DUP1 ISZERO PUSH2 0x665 JUMPI PUSH1 0x0 DUP1 REVERT JUMPDEST POP GAS STATICCALL ISZERO DUP1 ISZERO PUSH2 0x679 JUMPI RETURNDATASIZE PUSH1 0x0 DUP1 RETURNDATACOPY RETURNDATASIZE PUSH1 0x0 REVERT JUMPDEST POP POP POP POP PUSH1 0x40 MLOAD RETURNDATASIZE PUSH1 0x0 DUP3 RETURNDATACOPY PUSH1 0x1F RETURNDATASIZE SWAP1 DUP2 ADD PUSH1 0x1F NOT AND DUP3 ADD PUSH1 0x40 MSTORE PUSH2 0x6A1 SWAP2 SWAP1 DUP2 ADD SWAP1 PUSH2 0x1256 JUMP JUMPDEST SWAP1 POP PUSH1 0x0 JUMPDEST DUP2 MLOAD DUP2 LT ISZERO PUSH2 0x9C6 JUMPI PUSH1 0x0 DUP3 DUP3 DUP2 MLOAD DUP2 LT PUSH2 0x6C3 JUMPI PUSH2 0x6C3 PUSH2 0x131B JUMP JUMPDEST PUSH1 0x20 SWAP1 DUP2 MUL SWAP2 SWAP1 SWAP2 ADD ADD MLOAD PUSH1 0x40 MLOAD PUSH4 0x61BFB471 PUSH1 0xE1 SHL DUP2 MSTORE PUSH1 0x1 PUSH1 0x1 PUSH1 0xA0 SHL SUB DUP12 DUP2 AND PUSH1 0x4 DUP4 ADD MSTORE SWAP2 SWAP3 POP SWAP1 DUP3 AND SWAP1 PUSH4 0xC37F68E2 SWAP1 PUSH1 0x24 ADD PUSH1 0x80 PUSH1 0x40 MLOAD DUP1 DUP4 SUB DUP2 DUP7 DUP1 EXTCODESIZE ISZERO DUP1 ISZERO PUSH2 0x713 JUMPI PUSH1 0x0 DUP1 REVERT JUMPDEST POP GAS STATICCALL ISZERO DUP1 ISZERO PUSH2 0x727 JUMPI RETURNDATASIZE PUSH1 0x0 DUP1 RETURNDATACOPY RETURNDATASIZE PUSH1 0x0 REVERT JUMPDEST POP POP POP POP PUSH1 0x40 MLOAD RETURNDATASIZE PUSH1 0x1F NOT PUSH1 0x1F DUP3 ADD AND DUP3 ADD DUP1 PUSH1 0x40 MSTORE POP DUP2 ADD SWAP1 PUSH2 0x74B SWAP2 SWAP1 PUSH2 0x1331 JUMP JUMPDEST PUSH1 0x80 DUP11 ADD MSTORE PUSH1 0x60 DUP10 ADD MSTORE PUSH1 0x40 DUP1 DUP10 ADD SWAP2 SWAP1 SWAP2 MSTORE DUP1 MLOAD DUP1 DUP3 ADD SWAP1 SWAP2 MSTORE PUSH1 0x12 DUP2 MSTORE PUSH18 0x1B595D1A1BD90818D85B1B0819985A5B1959 PUSH1 0x72 SHL PUSH1 0x20 DUP3 ADD MSTORE SWAP1 SWAP6 POP DUP6 ISZERO PUSH2 0x7A7 JUMPI PUSH1 0x40 MLOAD PUSH3 0x461BCD PUSH1 0xE5 SHL DUP2 MSTORE PUSH1 0x4 ADD PUSH2 0x3EA SWAP2 SWAP1 PUSH2 0x11F0 JUMP JUMPDEST POP PUSH1 0x40 MLOAD PUSH4 0x8E8F294B PUSH1 0xE0 SHL DUP2 MSTORE PUSH1 0x1 PUSH1 0x1 PUSH1 0xA0 SHL SUB DUP3 DUP2 AND PUSH1 0x4 DUP4 ADD MSTORE PUSH1 0x0 SWAP2 PUSH32 0x0 SWAP1 SWAP2 AND SWAP1 PUSH4 0x8E8F294B SWAP1 PUSH1 0x24 ADD PUSH1 0x60 PUSH1 0x40 MLOAD DUP1 DUP4 SUB DUP2 DUP7 DUP1 EXTCODESIZE ISZERO DUP1 ISZERO PUSH2 0x80E JUMPI PUSH1 0x0 DUP1 REVERT JUMPDEST POP GAS STATICCALL ISZERO DUP1 ISZERO PUSH2 0x822 JUMPI RETURNDATASIZE PUSH1 0x0 DUP1 RETURNDATACOPY RETURNDATASIZE PUSH1 0x0 REVERT JUMPDEST POP POP POP POP PUSH1 0x40 MLOAD RETURNDATASIZE PUSH1 0x1F NOT PUSH1 0x1F DUP3 ADD AND DUP3 ADD DUP1 PUSH1 0x40 MSTORE POP DUP2 ADD SWAP1 PUSH2 0x846 SWAP2 SWAP1 PUSH2 0x1367 JUMP JUMPDEST POP PUSH1 0x40 DUP1 MLOAD PUSH1 0x20 DUP1 DUP3 ADD DUP4 MSTORE DUP4 DUP3 MSTORE PUSH1 0xC0 DUP13 ADD SWAP2 SWAP1 SWAP2 MSTORE DUP2 MLOAD SWAP1 DUP2 ADD DUP3 MSTORE PUSH1 0x80 DUP12 ADD MLOAD DUP2 MSTORE PUSH1 0xE0 DUP12 ADD MSTORE MLOAD PUSH4 0xFC57D4DF PUSH1 0xE0 SHL DUP2 MSTORE PUSH1 0x1 PUSH1 0x1 PUSH1 0xA0 SHL SUB DUP6 DUP2 AND PUSH1 0x4 DUP4 ADD MSTORE SWAP2 SWAP4 POP SWAP1 DUP8 AND SWAP2 POP PUSH4 0xFC57D4DF SWAP1 PUSH1 0x24 ADD PUSH1 0x20 PUSH1 0x40 MLOAD DUP1 DUP4 SUB DUP2 DUP7 DUP1 EXTCODESIZE ISZERO DUP1 ISZERO PUSH2 0x8B4 JUMPI PUSH1 0x0 DUP1 REVERT JUMPDEST POP GAS STATICCALL ISZERO DUP1 ISZERO PUSH2 0x8C8 JUMPI RETURNDATASIZE PUSH1 0x0 DUP1 RETURNDATACOPY RETURNDATASIZE PUSH1 0x0 REVERT JUMPDEST POP POP POP POP PUSH1 0x40 MLOAD RETURNDATASIZE PUSH1 0x1F NOT PUSH1 0x1F DUP3 ADD AND DUP3 ADD DUP1 PUSH1 0x40 MSTORE POP DUP2 ADD SWAP1 PUSH2 0x8EC SWAP2 SWAP1 PUSH2 0x117A JUMP JUMPDEST PUSH1 0xA0 DUP9 ADD DUP2 SWAP1 MSTORE PUSH1 0x40 DUP1 MLOAD DUP1 DUP3 ADD SWAP1 SWAP2 MSTORE PUSH1 0x12 DUP2 MSTORE PUSH18 0x1B595D1A1BD90818D85B1B0819985A5B1959 PUSH1 0x72 SHL PUSH1 0x20 DUP3 ADD MSTORE SWAP1 PUSH2 0x93A JUMPI PUSH1 0x40 MLOAD PUSH3 0x461BCD PUSH1 0xE5 SHL DUP2 MSTORE PUSH1 0x4 ADD PUSH2 0x3EA SWAP2 SWAP1 PUSH2 0x11F0 JUMP JUMPDEST POP PUSH1 0x40 DUP1 MLOAD PUSH1 0x20 DUP2 ADD SWAP1 SWAP2 MSTORE PUSH1 0xA0 DUP9 ADD MLOAD DUP2 MSTORE PUSH2 0x100 DUP9 ADD MSTORE PUSH1 0xC0 DUP8 ADD MLOAD PUSH1 0xE0 DUP9 ADD MLOAD PUSH2 0x975 SWAP2 PUSH2 0x96A SWAP2 PUSH2 0xD71 JUMP JUMPDEST DUP9 PUSH2 0x100 ADD MLOAD PUSH2 0xD71 JUMP JUMPDEST PUSH2 0x120 DUP9 ADD DUP2 SWAP1 MSTORE PUSH1 0x40 DUP9 ADD MLOAD DUP9 MLOAD PUSH2 0x98F SWAP3 SWAP2 SWAP1 PUSH2 0xDBB JUMP JUMPDEST DUP8 MSTORE PUSH2 0x100 DUP8 ADD MLOAD PUSH1 0x60 DUP9 ADD MLOAD PUSH1 0x20 DUP10 ADD MLOAD PUSH2 0x9AC SWAP3 SWAP2 SWAP1 PUSH2 0xDBB JUMP JUMPDEST PUSH1 0x20 DUP9 ADD MSTORE POP DUP2 SWAP1 POP PUSH2 0x9BE DUP2 PUSH2 0x13AA JUMP JUMPDEST SWAP2 POP POP PUSH2 0x6A6 JUMP JUMPDEST POP DUP4 PUSH1 0x0 ADD MLOAD DUP5 PUSH1 0x20 ADD MLOAD SWAP6 POP SWAP6 POP POP POP POP POP SWAP2 POP SWAP2 JUMP JUMPDEST PUSH1 0x0 DUP2 PUSH2 0x9F3 PUSH8 0xDE0B6B3A7640000 DUP6 PUSH2 0x13C5 JUMP JUMPDEST PUSH2 0x9FD SWAP2 SWAP1 PUSH2 0x13E4 JUMP JUMPDEST SWAP4 SWAP3 POP POP POP JUMP JUMPDEST PUSH1 0x40 MLOAD PUSH4 0x5EFF7EF PUSH1 0xE2 SHL DUP2 MSTORE PUSH1 0x1 PUSH1 0x1 PUSH1 0xA0 SHL SUB DUP6 DUP2 AND PUSH1 0x4 DUP4 ADD MSTORE PUSH1 0x0 SWAP2 DUP3 SWAP2 DUP5 AND SWAP1 PUSH4 0x17BFDFBC SWAP1 PUSH1 0x24 ADD PUSH1 0x20 PUSH1 0x40 MLOAD DUP1 DUP4 SUB DUP2 PUSH1 0x0 DUP8 DUP1 EXTCODESIZE ISZERO DUP1 ISZERO PUSH2 0xA4C JUMPI PUSH1 0x0 DUP1 REVERT JUMPDEST POP GAS CALL ISZERO DUP1 ISZERO PUSH2 0xA60 JUMPI RETURNDATASIZE PUSH1 0x0 DUP1 RETURNDATACOPY RETURNDATASIZE PUSH1 0x0 REVERT JUMPDEST POP POP POP POP PUSH1 0x40 MLOAD RETURNDATASIZE PUSH1 0x1F NOT PUSH1 0x1F DUP3 ADD AND DUP3 ADD DUP1 PUSH1 0x40 MSTORE POP DUP2 ADD SWAP1 PUSH2 0xA84 SWAP2 SWAP1 PUSH2 0x117A JUMP JUMPDEST SWAP1 POP DUP1 PUSH2 0xA95 JUMPI PUSH1 0x0 SWAP2 POP POP PUSH2 0x130 JUMP JUMPDEST DUP4 DUP2 GT ISZERO PUSH2 0xAA0 JUMPI POP DUP3 JUMPDEST PUSH1 0x0 PUSH1 0x1 PUSH1 0x1 PUSH1 0xA0 SHL SUB DUP7 AND PUSH2 0xB38 JUMPI PUSH1 0x40 MLOAD PUSH4 0xE5974619 PUSH1 0xE0 SHL DUP2 MSTORE PUSH1 0x1 PUSH1 0x1 PUSH1 0xA0 SHL SUB DUP9 DUP2 AND PUSH1 0x4 DUP4 ADD MSTORE DUP6 SWAP2 SWAP1 DUP3 AND SWAP1 PUSH4 0xE5974619 SWAP1 DUP6 SWAP1 PUSH1 0x24 ADD PUSH1 0x20 PUSH1 0x40 MLOAD DUP1 DUP4 SUB DUP2 DUP6 DUP9 DUP1 EXTCODESIZE ISZERO DUP1 ISZERO PUSH2 0xAF7 JUMPI PUSH1 0x0 DUP1 REVERT JUMPDEST POP GAS CALL ISZERO DUP1 ISZERO PUSH2 0xB0B JUMPI RETURNDATASIZE PUSH1 0x0 DUP1 RETURNDATACOPY RETURNDATASIZE PUSH1 0x0 REVERT JUMPDEST POP POP POP POP POP PUSH1 0x40 MLOAD RETURNDATASIZE PUSH1 0x1F NOT PUSH1 0x1F DUP3 ADD AND DUP3 ADD DUP1 PUSH1 0x40 MSTORE POP DUP2 ADD SWAP1 PUSH2 0xB30 SWAP2 SWAP1 PUSH2 0x117A JUMP JUMPDEST SWAP2 POP POP PUSH2 0xBD1 JUMP JUMPDEST PUSH2 0xB4C PUSH1 0x1 PUSH1 0x1 PUSH1 0xA0 SHL SUB DUP8 AND DUP6 DUP5 PUSH2 0xC26 JUMP JUMPDEST PUSH1 0x40 MLOAD PUSH4 0x4C11F03 PUSH1 0xE3 SHL DUP2 MSTORE PUSH1 0x1 PUSH1 0x1 PUSH1 0xA0 SHL SUB DUP9 DUP2 AND PUSH1 0x4 DUP4 ADD MSTORE PUSH1 0x24 DUP3 ADD DUP5 SWAP1 MSTORE DUP6 AND SWAP1 PUSH4 0x2608F818 SWAP1 PUSH1 0x44 ADD PUSH1 0x20 PUSH1 0x40 MLOAD DUP1 DUP4 SUB DUP2 PUSH1 0x0 DUP8 DUP1 EXTCODESIZE ISZERO DUP1 ISZERO PUSH2 0xB96 JUMPI PUSH1 0x0 DUP1 REVERT JUMPDEST POP GAS CALL ISZERO DUP1 ISZERO PUSH2 0xBAA JUMPI RETURNDATASIZE PUSH1 0x0 DUP1 RETURNDATACOPY RETURNDATASIZE PUSH1 0x0 REVERT JUMPDEST POP POP POP POP PUSH1 0x40 MLOAD RETURNDATASIZE PUSH1 0x1F NOT PUSH1 0x1F DUP3 ADD AND DUP3 ADD DUP1 PUSH1 0x40 MSTORE POP DUP2 ADD SWAP1 PUSH2 0xBCE SWAP2 SWAP1 PUSH2 0x117A JUMP JUMPDEST SWAP1 POP JUMPDEST PUSH1 0x40 DUP1 MLOAD DUP1 DUP3 ADD SWAP1 SWAP2 MSTORE PUSH1 0x13 DUP2 MSTORE PUSH19 0x1C995C185E48189BDC9C9BDDC819985A5B1959 PUSH1 0x6A SHL PUSH1 0x20 DUP3 ADD MSTORE DUP2 ISZERO PUSH2 0xC1A JUMPI PUSH1 0x40 MLOAD PUSH3 0x461BCD PUSH1 0xE5 SHL DUP2 MSTORE PUSH1 0x4 ADD PUSH2 0x3EA SWAP2 SWAP1 PUSH2 0x11F0 JUMP JUMPDEST POP SWAP1 SWAP7 SWAP6 POP POP POP POP POP POP JUMP JUMPDEST DUP1 ISZERO DUP1 PUSH2 0xCAF JUMPI POP PUSH1 0x40 MLOAD PUSH4 0x6EB1769F PUSH1 0xE1 SHL DUP2 MSTORE ADDRESS PUSH1 0x4 DUP3 ADD MSTORE PUSH1 0x1 PUSH1 0x1 PUSH1 0xA0 SHL SUB DUP4 DUP2 AND PUSH1 0x24 DUP4 ADD MSTORE DUP5 AND SWAP1 PUSH4 0xDD62ED3E SWAP1 PUSH1 0x44 ADD PUSH1 0x20 PUSH1 0x40 MLOAD DUP1 DUP4 SUB DUP2 DUP7 DUP1 EXTCODESIZE ISZERO DUP1 ISZERO PUSH2 0xC75 JUMPI PUSH1 0x0 DUP1 REVERT JUMPDEST POP GAS STATICCALL ISZERO DUP1 ISZERO PUSH2 0xC89 JUMPI RETURNDATASIZE PUSH1 0x0 DUP1 RETURNDATACOPY RETURNDATASIZE PUSH1 0x0 REVERT JUMPDEST POP POP POP POP PUSH1 0x40 MLOAD RETURNDATASIZE PUSH1 0x1F NOT PUSH1 0x1F DUP3 ADD AND DUP3 ADD DUP1 PUSH1 0x40 MSTORE POP DUP2 ADD SWAP1 PUSH2 0xCAD SWAP2 SWAP1 PUSH2 0x117A JUMP JUMPDEST ISZERO JUMPDEST PUSH2 0xD1A JUMPI PUSH1 0x40 MLOAD PUSH3 0x461BCD PUSH1 0xE5 SHL DUP2 MSTORE PUSH1 0x20 PUSH1 0x4 DUP3 ADD MSTORE PUSH1 0x36 PUSH1 0x24 DUP3 ADD MSTORE PUSH32 0x5361666545524332303A20617070726F76652066726F6D206E6F6E2D7A65726F PUSH1 0x44 DUP3 ADD MSTORE PUSH22 0x20746F206E6F6E2D7A65726F20616C6C6F77616E6365 PUSH1 0x50 SHL PUSH1 0x64 DUP3 ADD MSTORE PUSH1 0x84 ADD PUSH2 0x3EA JUMP JUMPDEST PUSH1 0x40 DUP1 MLOAD PUSH1 0x1 PUSH1 0x1 PUSH1 0xA0 SHL SUB DUP5 AND PUSH1 0x24 DUP3 ADD MSTORE PUSH1 0x44 DUP1 DUP3 ADD DUP5 SWAP1 MSTORE DUP3 MLOAD DUP1 DUP4 SUB SWAP1 SWAP2 ADD DUP2 MSTORE PUSH1 0x64 SWAP1 SWAP2 ADD SWAP1 SWAP2 MSTORE PUSH1 0x20 DUP2 ADD DUP1 MLOAD PUSH1 0x1 PUSH1 0x1 PUSH1 0xE0 SHL SUB AND PUSH4 0x95EA7B3 PUSH1 0xE0 SHL OR SWAP1 MSTORE PUSH2 0xD6C SWAP1 DUP5 SWAP1 PUSH2 0xDE7 JUMP JUMPDEST POP POP POP JUMP JUMPDEST PUSH1 0x40 DUP1 MLOAD PUSH1 0x20 DUP2 ADD SWAP1 SWAP2 MSTORE PUSH1 0x0 DUP2 MSTORE PUSH1 0x40 MLOAD DUP1 PUSH1 0x20 ADD PUSH1 0x40 MSTORE DUP1 PUSH8 0xDE0B6B3A7640000 DUP5 PUSH1 0x0 ADD MLOAD DUP7 PUSH1 0x0 ADD MLOAD PUSH2 0xDA8 SWAP2 SWAP1 PUSH2 0x13C5 JUMP JUMPDEST PUSH2 0xDB2 SWAP2 SWAP1 PUSH2 0x13E4 JUMP JUMPDEST SWAP1 MSTORE SWAP4 SWAP3 POP POP POP JUMP JUMPDEST PUSH1 0x0 DUP1 PUSH2 0xDC8 DUP6 DUP6 PUSH2 0xEB9 JUMP JUMPDEST SWAP1 POP DUP3 PUSH2 0xDD4 DUP3 PUSH2 0xEE3 JUMP JUMPDEST PUSH2 0xDDE SWAP2 SWAP1 PUSH2 0x1406 JUMP JUMPDEST SWAP6 SWAP5 POP POP POP POP POP JUMP JUMPDEST PUSH1 0x0 PUSH2 0xE3C DUP3 PUSH1 0x40 MLOAD DUP1 PUSH1 0x40 ADD PUSH1 0x40 MSTORE DUP1 PUSH1 0x20 DUP2 MSTORE PUSH1 0x20 ADD PUSH32 0x5361666545524332303A206C6F772D6C6576656C2063616C6C206661696C6564 DUP2 MSTORE POP DUP6 PUSH1 0x1 PUSH1 0x1 PUSH1 0xA0 SHL SUB AND PUSH2 0xF01 SWAP1 SWAP3 SWAP2 SWAP1 PUSH4 0xFFFFFFFF AND JUMP JUMPDEST DUP1 MLOAD SWAP1 SWAP2 POP ISZERO PUSH2 0xD6C JUMPI DUP1 DUP1 PUSH1 0x20 ADD SWAP1 MLOAD DUP2 ADD SWAP1 PUSH2 0xE5A SWAP2 SWAP1 PUSH2 0x1223 JUMP JUMPDEST PUSH2 0xD6C JUMPI PUSH1 0x40 MLOAD PUSH3 0x461BCD PUSH1 0xE5 SHL DUP2 MSTORE PUSH1 0x20 PUSH1 0x4 DUP3 ADD MSTORE PUSH1 0x2A PUSH1 0x24 DUP3 ADD MSTORE PUSH32 0x5361666545524332303A204552433230206F7065726174696F6E20646964206E PUSH1 0x44 DUP3 ADD MSTORE PUSH10 0x1BDD081CDD58D8D95959 PUSH1 0xB2 SHL PUSH1 0x64 DUP3 ADD MSTORE PUSH1 0x84 ADD PUSH2 0x3EA JUMP JUMPDEST PUSH1 0x40 DUP1 MLOAD PUSH1 0x20 DUP2 ADD SWAP1 SWAP2 MSTORE PUSH1 0x0 DUP2 MSTORE PUSH1 0x40 MLOAD DUP1 PUSH1 0x20 ADD PUSH1 0x40 MSTORE DUP1 DUP4 DUP6 PUSH1 0x0 ADD MLOAD PUSH2 0xDB2 SWAP2 SWAP1 PUSH2 0x13C5 JUMP JUMPDEST DUP1 MLOAD PUSH1 0x0 SWAP1 PUSH2 0xEFB SWAP1 PUSH8 0xDE0B6B3A7640000 SWAP1 PUSH2 0x13E4 JUMP JUMPDEST SWAP3 SWAP2 POP POP JUMP JUMPDEST PUSH1 0x60 PUSH2 0x130 DUP5 DUP5 PUSH1 0x0 DUP6 DUP6 PUSH1 0x1 PUSH1 0x1 PUSH1 0xA0 SHL SUB DUP6 AND EXTCODESIZE PUSH2 0xF63 JUMPI PUSH1 0x40 MLOAD PUSH3 0x461BCD PUSH1 0xE5 SHL DUP2 MSTORE PUSH1 0x20 PUSH1 0x4 DUP3 ADD MSTORE PUSH1 0x1D PUSH1 0x24 DUP3 ADD MSTORE PUSH32 0x416464726573733A2063616C6C20746F206E6F6E2D636F6E7472616374000000 PUSH1 0x44 DUP3 ADD MSTORE PUSH1 0x64 ADD PUSH2 0x3EA JUMP JUMPDEST PUSH1 0x0 DUP1 DUP7 PUSH1 0x1 PUSH1 0x1 PUSH1 0xA0 SHL SUB AND DUP6 DUP8 PUSH1 0x40 MLOAD PUSH2 0xF7F SWAP2 SWAP1 PUSH2 0x141E JUMP JUMPDEST PUSH1 0x0 PUSH1 0x40 MLOAD DUP1 DUP4 SUB DUP2 DUP6 DUP8 GAS CALL SWAP3 POP POP POP RETURNDATASIZE DUP1 PUSH1 0x0 DUP2 EQ PUSH2 0xFBC JUMPI PUSH1 0x40 MLOAD SWAP2 POP PUSH1 0x1F NOT PUSH1 0x3F RETURNDATASIZE ADD AND DUP3 ADD PUSH1 0x40 MSTORE RETURNDATASIZE DUP3 MSTORE RETURNDATASIZE PUSH1 0x0 PUSH1 0x20 DUP5 ADD RETURNDATACOPY PUSH2 0xFC1 JUMP JUMPDEST PUSH1 0x60 SWAP2 POP JUMPDEST POP SWAP2 POP SWAP2 POP PUSH2 0xFD1 DUP3 DUP3 DUP7 PUSH2 0xFDC JUMP JUMPDEST SWAP8 SWAP7 POP POP POP POP POP POP POP JUMP JUMPDEST PUSH1 0x60 DUP4 ISZERO PUSH2 0xFEB JUMPI POP DUP2 PUSH2 0x9FD JUMP JUMPDEST DUP3 MLOAD ISZERO PUSH2 0xFFB JUMPI DUP3 MLOAD DUP1 DUP5 PUSH1 0x20 ADD REVERT JUMPDEST DUP2 PUSH1 0x40 MLOAD PUSH3 0x461BCD PUSH1 0xE5 SHL DUP2 MSTORE PUSH1 0x4 ADD PUSH2 0x3EA SWAP2 SWAP1 PUSH2 0x11F0 JUMP JUMPDEST PUSH1 0x40 MLOAD DUP1 PUSH2 0x140 ADD PUSH1 0x40 MSTORE DUP1 PUSH1 0x0 DUP2 MSTORE PUSH1 0x20 ADD PUSH1 0x0 DUP2 MSTORE PUSH1 0x20 ADD PUSH1 0x0 DUP2 MSTORE PUSH1 0x20 ADD PUSH1 0x0 DUP2 MSTORE PUSH1 0x20 ADD PUSH1 0x0 DUP2 MSTORE PUSH1 0x20 ADD PUSH1 0x0 DUP2 MSTORE PUSH1 0x20 ADD PUSH2 0x1061 PUSH1 0x40 MLOAD DUP1 PUSH1 0x20 ADD PUSH1 0x40 MSTORE DUP1 PUSH1 0x0 DUP2 MSTORE POP SWAP1 JUMP JUMPDEST DUP2 MSTORE PUSH1 0x20 ADD PUSH2 0x107C PUSH1 0x40 MLOAD DUP1 PUSH1 0x20 ADD PUSH1 0x40 MSTORE DUP1 PUSH1 0x0 DUP2 MSTORE POP SWAP1 JUMP JUMPDEST DUP2 MSTORE PUSH1 0x20 ADD PUSH2 0x1097 PUSH1 0x40 MLOAD DUP1 PUSH1 0x20 ADD PUSH1 0x40 MSTORE DUP1 PUSH1 0x0 DUP2 MSTORE POP SWAP1 JUMP JUMPDEST DUP2 MSTORE PUSH1 0x20 ADD PUSH2 0x10B2 PUSH1 0x40 MLOAD DUP1 PUSH1 0x20 ADD PUSH1 0x40 MSTORE DUP1 PUSH1 0x0 DUP2 MSTORE POP SWAP1 JUMP JUMPDEST SWAP1 MSTORE SWAP1 JUMP JUMPDEST PUSH1 0x1 PUSH1 0x1 PUSH1 0xA0 SHL SUB DUP2 AND DUP2 EQ PUSH2 0x10CC JUMPI PUSH1 0x0 DUP1 REVERT JUMPDEST POP JUMP JUMPDEST PUSH1 0x0 PUSH1 0x20 DUP3 DUP5 SUB SLT ISZERO PUSH2 0x10E1 JUMPI PUSH1 0x0 DUP1 REVERT JUMPDEST DUP2 CALLDATALOAD PUSH2 0x9FD DUP2 PUSH2 0x10B7 JUMP JUMPDEST DUP1 ISZERO ISZERO DUP2 EQ PUSH2 0x10CC JUMPI PUSH1 0x0 DUP1 REVERT JUMPDEST PUSH1 0x0 DUP1 PUSH1 0x0 DUP1 PUSH1 0x80 DUP6 DUP8 SUB SLT ISZERO PUSH2 0x1110 JUMPI PUSH1 0x0 DUP1 REVERT JUMPDEST DUP5 CALLDATALOAD PUSH2 0x111B DUP2 PUSH2 0x10B7 JUMP JUMPDEST SWAP4 POP PUSH1 0x20 DUP6 ADD CALLDATALOAD PUSH2 0x112B DUP2 PUSH2 0x10B7 JUMP JUMPDEST SWAP3 POP PUSH1 0x40 DUP6 ADD CALLDATALOAD SWAP2 POP PUSH1 0x60 DUP6 ADD CALLDATALOAD PUSH2 0x1142 DUP2 PUSH2 0x10EC JUMP JUMPDEST SWAP4 SWAP7 SWAP3 SWAP6 POP SWAP1 SWAP4 POP POP JUMP JUMPDEST DUP1 MLOAD PUSH2 0x1158 DUP2 PUSH2 0x10B7 JUMP JUMPDEST SWAP2 SWAP1 POP JUMP JUMPDEST PUSH1 0x0 PUSH1 0x20 DUP3 DUP5 SUB SLT ISZERO PUSH2 0x116F JUMPI PUSH1 0x0 DUP1 REVERT JUMPDEST DUP2 MLOAD PUSH2 0x9FD DUP2 PUSH2 0x10B7 JUMP JUMPDEST PUSH1 0x0 PUSH1 0x20 DUP3 DUP5 SUB SLT ISZERO PUSH2 0x118C JUMPI PUSH1 0x0 DUP1 REVERT JUMPDEST POP MLOAD SWAP2 SWAP1 POP JUMP JUMPDEST PUSH4 0x4E487B71 PUSH1 0xE0 SHL PUSH1 0x0 MSTORE PUSH1 0x11 PUSH1 0x4 MSTORE PUSH1 0x24 PUSH1 0x0 REVERT JUMPDEST PUSH1 0x0 DUP3 DUP3 LT ISZERO PUSH2 0x11BB JUMPI PUSH2 0x11BB PUSH2 0x1193 JUMP JUMPDEST POP SUB SWAP1 JUMP JUMPDEST PUSH1 0x0 JUMPDEST DUP4 DUP2 LT ISZERO PUSH2 0x11DB JUMPI DUP2 DUP2 ADD MLOAD DUP4 DUP3 ADD MSTORE PUSH1 0x20 ADD PUSH2 0x11C3 JUMP JUMPDEST DUP4 DUP2 GT ISZERO PUSH2 0x11EA JUMPI PUSH1 0x0 DUP5 DUP5 ADD MSTORE JUMPDEST POP POP POP POP JUMP JUMPDEST PUSH1 0x20 DUP2 MSTORE PUSH1 0x0 DUP3 MLOAD DUP1 PUSH1 0x20 DUP5 ADD MSTORE PUSH2 0x120F DUP2 PUSH1 0x40 DUP6 ADD PUSH1 0x20 DUP8 ADD PUSH2 0x11C0 JUMP JUMPDEST PUSH1 0x1F ADD PUSH1 0x1F NOT AND SWAP2 SWAP1 SWAP2 ADD PUSH1 0x40 ADD SWAP3 SWAP2 POP POP JUMP JUMPDEST PUSH1 0x0 PUSH1 0x20 DUP3 DUP5 SUB SLT ISZERO PUSH2 0x1235 JUMPI PUSH1 0x0 DUP1 REVERT JUMPDEST DUP2 MLOAD PUSH2 0x9FD DUP2 PUSH2 0x10EC JUMP JUMPDEST PUSH4 0x4E487B71 PUSH1 0xE0 SHL PUSH1 0x0 MSTORE PUSH1 0x41 PUSH1 0x4 MSTORE PUSH1 0x24 PUSH1 0x0 REVERT JUMPDEST PUSH1 0x0 PUSH1 0x20 DUP1 DUP4 DUP6 SUB SLT ISZERO PUSH2 0x1269 JUMPI PUSH1 0x0 DUP1 REVERT JUMPDEST DUP3 MLOAD PUSH8 0xFFFFFFFFFFFFFFFF DUP1 DUP3 GT ISZERO PUSH2 0x1281 JUMPI PUSH1 0x0 DUP1 REVERT JUMPDEST DUP2 DUP6 ADD SWAP2 POP DUP6 PUSH1 0x1F DUP4 ADD SLT PUSH2 0x1295 JUMPI PUSH1 0x0 DUP1 REVERT JUMPDEST DUP2 MLOAD DUP2 DUP2 GT ISZERO PUSH2 0x12A7 JUMPI PUSH2 0x12A7 PUSH2 0x1240 JUMP JUMPDEST DUP1 PUSH1 0x5 SHL PUSH1 0x40 MLOAD PUSH1 0x1F NOT PUSH1 0x3F DUP4 ADD AND DUP2 ADD DUP2 DUP2 LT DUP6 DUP3 GT OR ISZERO PUSH2 0x12CC JUMPI PUSH2 0x12CC PUSH2 0x1240 JUMP JUMPDEST PUSH1 0x40 MSTORE SWAP2 DUP3 MSTORE DUP5 DUP3 ADD SWAP3 POP DUP4 DUP2 ADD DUP6 ADD SWAP2 DUP9 DUP4 GT ISZERO PUSH2 0x12EA JUMPI PUSH1 0x0 DUP1 REVERT JUMPDEST SWAP4 DUP6 ADD SWAP4 JUMPDEST DUP3 DUP6 LT ISZERO PUSH2 0x130F JUMPI PUSH2 0x1300 DUP6 PUSH2 0x114D JUMP JUMPDEST DUP5 MSTORE SWAP4 DUP6 ADD SWAP4 SWAP3 DUP6 ADD SWAP3 PUSH2 0x12EF JUMP JUMPDEST SWAP9 SWAP8 POP POP POP POP POP POP POP POP JUMP JUMPDEST PUSH4 0x4E487B71 PUSH1 0xE0 SHL PUSH1 0x0 MSTORE PUSH1 0x32 PUSH1 0x4 MSTORE PUSH1 0x24 PUSH1 0x0 REVERT JUMPDEST PUSH1 0x0 DUP1 PUSH1 0x0 DUP1 PUSH1 0x80 DUP6 DUP8 SUB SLT ISZERO PUSH2 0x1347 JUMPI PUSH1 0x0 DUP1 REVERT JUMPDEST POP POP DUP3 MLOAD PUSH1 0x20 DUP5 ADD MLOAD PUSH1 0x40 DUP6 ADD MLOAD PUSH1 0x60 SWAP1 SWAP6 ADD MLOAD SWAP2 SWAP7 SWAP1 SWAP6 POP SWAP1 SWAP3 POP SWAP1 POP JUMP JUMPDEST PUSH1 0x0 DUP1 PUSH1 0x0 PUSH1 0x60 DUP5 DUP7 SUB SLT ISZERO PUSH2 0x137C JUMPI PUSH1 0x0 DUP1 REVERT JUMPDEST DUP4 MLOAD PUSH2 0x1387 DUP2 PUSH2 0x10EC JUMP JUMPDEST PUSH1 0x20 DUP6 ADD MLOAD PUSH1 0x40 DUP7 ADD MLOAD SWAP2 SWAP5 POP SWAP3 POP PUSH2 0x139F DUP2 PUSH2 0x10EC JUMP JUMPDEST DUP1 SWAP2 POP POP SWAP3 POP SWAP3 POP SWAP3 JUMP JUMPDEST PUSH1 0x0 PUSH1 0x0 NOT DUP3 EQ ISZERO PUSH2 0x13BE JUMPI PUSH2 0x13BE PUSH2 0x1193 JUMP JUMPDEST POP PUSH1 0x1 ADD SWAP1 JUMP JUMPDEST PUSH1 0x0 DUP2 PUSH1 0x0 NOT DIV DUP4 GT DUP3 ISZERO ISZERO AND ISZERO PUSH2 0x13DF JUMPI PUSH2 0x13DF PUSH2 0x1193 JUMP JUMPDEST POP MUL SWAP1 JUMP JUMPDEST PUSH1 0x0 DUP3 PUSH2 0x1401 JUMPI PUSH4 0x4E487B71 PUSH1 0xE0 SHL PUSH1 0x0 MSTORE PUSH1 0x12 PUSH1 0x4 MSTORE PUSH1 0x24 PUSH1 0x0 REVERT JUMPDEST POP DIV SWAP1 JUMP JUMPDEST PUSH1 0x0 DUP3 NOT DUP3 GT ISZERO PUSH2 0x1419 JUMPI PUSH2 0x1419 PUSH2 0x1193 JUMP JUMPDEST POP ADD SWAP1 JUMP JUMPDEST PUSH1 0x0 DUP3 MLOAD PUSH2 0x1430 DUP2 DUP5 PUSH1 0x20 DUP8 ADD PUSH2 0x11C0 JUMP JUMPDEST SWAP2 SWAP1 SWAP2 ADD SWAP3 SWAP2 POP POP JUMP INVALID LOG2 PUSH5 0x6970667358 0x22 SLT KECCAK256 KECCAK256 PUSH15 0xA8D9E1492E34C5CFA5F8B7EB8C56E3 ORIGIN PUSH3 0x23E3FB SELFDESTRUCT 0xD0 CODESIZE PUSH8 0x940C3EBCDEB66473 PUSH16 0x6C634300080900330000000000000000 ","sha1":"3a8693fcaacd101de8c0c8c115b0243aac28f69b","source":"// SPDX-License-Identifier: GPL-3.0-or-later\npragma solidity 0.8.9;\n\nimport \"@openzeppelin/contracts/token/ERC20/utils/SafeERC20.sol\";\nimport \"@openzeppelin/contracts/token/ERC20/IERC20.sol\";\n\nimport \"./BaseHandler.sol\";\nimport \"../../../../interfaces/ICTokenRegistry.sol\";\nimport \"../../../../interfaces/vendor/CToken.sol\";\nimport \"../../../../interfaces/vendor/ExponentialNoError.sol\";\nimport \"../../../../interfaces/vendor/Comptroller.sol\";\nimport \"../../../../libraries/Errors.sol\";\nimport \"../../../../libraries/ScaledMath.sol\";\n\ncontract CompoundHandler is BaseHandler, ExponentialNoError {\n    using ScaledMath for uint256;\n    using SafeERC20 for IERC20;\n\n    struct AccountLiquidityLocalVars {\n        uint256 sumCollateral;\n        uint256 sumBorrow;\n        uint256 cTokenBalance;\n        uint256 borrowBalance;\n        uint256 exchangeRateMantissa;\n        uint256 oraclePriceMantissa;\n        Exp collateralFactor;\n        Exp exchangeRate;\n        Exp oraclePrice;\n        Exp tokensToDenom;\n    }\n\n    Comptroller public immutable comptroller;\n    ICTokenRegistry public immutable cTokenRegistry;\n\n    constructor(address comptrollerAddress, address _cTokenRegistry) {\n        comptroller = Comptroller(comptrollerAddress);\n        cTokenRegistry = ICTokenRegistry(_cTokenRegistry);\n    }\n\n    /**\n     * @notice Executes the top-up of a position.\n     * @param account Account holding the position.\n     * @param underlying Underlying for tup-up.\n     * @param amount Amount to top-up by.\n     * @return `true` if successful.\n     */\n    function topUp(\n        address account,\n        address underlying,\n        uint256 amount,\n        bool repayDebt\n    ) external override returns (bool) {\n        CToken ctoken = cTokenRegistry.fetchCToken(underlying);\n        uint256 initialTokens = ctoken.balanceOf(address(this));\n\n        if (repayDebt) {\n            amount -= _repayAnyDebt(account, underlying, amount, ctoken);\n            if (amount == 0) return true;\n        }\n\n        uint256 err;\n        if (underlying == address(0)) {\n            err = ctoken.mint{value: amount}(amount);\n        } else {\n            IERC20(underlying).safeApprove(address(ctoken), amount);\n            err = ctoken.mint(amount);\n        }\n        require(err == 0, Error.FAILED_MINT);\n\n        uint256 newTokens = ctoken.balanceOf(address(this));\n        uint256 mintedTokens = newTokens - initialTokens;\n\n        bool success = ctoken.transfer(account, mintedTokens);\n        require(success, Error.FAILED_TRANSFER);\n        return true;\n    }\n\n    /**\n     * @notice Returns the collaterization ratio of the user.\n     *         A result of 1.5 (x1e18) means that the user has a 150% collaterization ratio.\n     * @param account account for which to check the factor.\n     * @return User factor.\n     */\n    function getUserFactor(address account) external view override returns (uint256) {\n        (uint256 sumCollateral, uint256 sumBorrow) = _getAccountBorrowsAndSupply(account);\n        if (sumBorrow == 0) {\n            return type(uint256).max;\n        }\n        return sumCollateral.scaledDiv(sumBorrow);\n    }\n\n    /**\n     * @notice Repays any existing debt for the given underlying.\n     * @param account Account for which to repay the debt.\n     * @param underlying The underlying token to repay the debt for.\n     * @param maximum The maximum amount of debt to repay.\n     * @return The amount of debt that was repayed in the underlying.\n     */\n    function _repayAnyDebt(\n        address account,\n        address underlying,\n        uint256 maximum,\n        CToken ctoken\n    ) internal returns (uint256) {\n        uint256 debt = ctoken.borrowBalanceCurrent(account);\n        if (debt == 0) return 0;\n        if (debt > maximum) debt = maximum;\n\n        uint256 err;\n        if (underlying == address(0)) {\n            CEther cether = CEther(address(ctoken));\n            err = cether.repayBorrowBehalf{value: debt}(account);\n        } else {\n            IERC20(underlying).safeApprove(address(ctoken), debt);\n            err = ctoken.repayBorrowBehalf(account, debt);\n        }\n        require(err == 0, Error.FAILED_REPAY_BORROW);\n\n        return debt;\n    }\n\n    function _getAccountBorrowsAndSupply(address account) internal view returns (uint256, uint256) {\n        AccountLiquidityLocalVars memory vars; // Holds all our calculation results\n        uint256 oErr;\n\n        PriceOracle oracle = comptroller.oracle();\n        // For each asset the account is in\n        CToken[] memory assets = comptroller.getAssetsIn(account);\n        for (uint256 i = 0; i < assets.length; i++) {\n            CToken asset = assets[i];\n\n            // Read the balances and exchange rate from the cToken\n            (oErr, vars.cTokenBalance, vars.borrowBalance, vars.exchangeRateMantissa) = asset\n                .getAccountSnapshot(account);\n            require(oErr == 0, Error.FAILED_METHOD_CALL);\n            (, uint256 collateralFactorMantissa, ) = comptroller.markets(address(asset));\n            vars.collateralFactor = Exp({mantissa: collateralFactorMantissa});\n            vars.exchangeRate = Exp({mantissa: vars.exchangeRateMantissa});\n\n            // Get the normalized price of the asset\n            vars.oraclePriceMantissa = oracle.getUnderlyingPrice(asset);\n            require(vars.oraclePriceMantissa != 0, Error.FAILED_METHOD_CALL);\n            vars.oraclePrice = Exp({mantissa: vars.oraclePriceMantissa});\n\n            // Pre-compute a conversion factor from tokens -> ether (normalized price value)\n            vars.tokensToDenom = mul_(\n                mul_(vars.collateralFactor, vars.exchangeRate),\n                vars.oraclePrice\n            );\n\n            // sumCollateral += tokensToDenom * cTokenBalance\n            vars.sumCollateral = mul_ScalarTruncateAddUInt(\n                vars.tokensToDenom,\n                vars.cTokenBalance,\n                vars.sumCollateral\n            );\n\n            // sumBorrow += oraclePrice * borrowBalance\n            vars.sumBorrow = mul_ScalarTruncateAddUInt(\n                vars.oraclePrice,\n                vars.borrowBalance,\n                vars.sumBorrow\n            );\n        }\n\n        return (vars.sumCollateral, vars.sumBorrow);\n    }\n}\n","sourcePath":"contracts/actions/topup/handlers/CompoundHandler.sol","type":"contract","deployment":{"address":"0xBD08648C0A4F03C514463dca24F252270551885d","chainid":"42","blockHeight":30414873}}