{
  "address": "0x72c2361A2Da2a98855539c0d596036E364eB8bE4",
  "abi": [
    {
      "inputs": [
        {
          "internalType": "address",
          "name": "_endpoint",
          "type": "address"
        },
        {
          "internalType": "string",
          "name": "_setBaseURI",
          "type": "string"
        },
        {
          "internalType": "string",
          "name": "_name",
          "type": "string"
        },
        {
          "internalType": "string",
          "name": "_symbol",
          "type": "string"
        }
      ],
      "stateMutability": "nonpayable",
      "type": "constructor"
    },
    {
      "anonymous": false,
      "inputs": [
        {
          "indexed": true,
          "internalType": "address",
          "name": "owner",
          "type": "address"
        },
        {
          "indexed": true,
          "internalType": "address",
          "name": "approved",
          "type": "address"
        },
        {
          "indexed": true,
          "internalType": "uint256",
          "name": "tokenId",
          "type": "uint256"
        }
      ],
      "name": "Approval",
      "type": "event"
    },
    {
      "anonymous": false,
      "inputs": [
        {
          "indexed": true,
          "internalType": "address",
          "name": "owner",
          "type": "address"
        },
        {
          "indexed": true,
          "internalType": "address",
          "name": "operator",
          "type": "address"
        },
        {
          "indexed": false,
          "internalType": "bool",
          "name": "approved",
          "type": "bool"
        }
      ],
      "name": "ApprovalForAll",
      "type": "event"
    },
    {
      "anonymous": false,
      "inputs": [
        {
          "indexed": false,
          "internalType": "uint16",
          "name": "_srcChainId",
          "type": "uint16"
        },
        {
          "indexed": false,
          "internalType": "bytes",
          "name": "_srcAddress",
          "type": "bytes"
        },
        {
          "indexed": false,
          "internalType": "uint64",
          "name": "_nonce",
          "type": "uint64"
        },
        {
          "indexed": false,
          "internalType": "bytes",
          "name": "_payload",
          "type": "bytes"
        },
        {
          "indexed": false,
          "internalType": "bytes",
          "name": "_reason",
          "type": "bytes"
        }
      ],
      "name": "MessageFailed",
      "type": "event"
    },
    {
      "anonymous": false,
      "inputs": [
        {
          "indexed": true,
          "internalType": "address",
          "name": "previousOwner",
          "type": "address"
        },
        {
          "indexed": true,
          "internalType": "address",
          "name": "newOwner",
          "type": "address"
        }
      ],
      "name": "OwnershipTransferred",
      "type": "event"
    },
    {
      "anonymous": false,
      "inputs": [
        {
          "indexed": false,
          "internalType": "uint16",
          "name": "_srcChainId",
          "type": "uint16"
        },
        {
          "indexed": false,
          "internalType": "address",
          "name": "_from",
          "type": "address"
        },
        {
          "indexed": false,
          "internalType": "uint256[]",
          "name": "_tokenId",
          "type": "uint256[]"
        }
      ],
      "name": "ReceiveNFT",
      "type": "event"
    },
    {
      "anonymous": false,
      "inputs": [
        {
          "indexed": false,
          "internalType": "uint16",
          "name": "_srcChainId",
          "type": "uint16"
        },
        {
          "indexed": false,
          "internalType": "bytes",
          "name": "_srcAddress",
          "type": "bytes"
        },
        {
          "indexed": false,
          "internalType": "uint64",
          "name": "_nonce",
          "type": "uint64"
        },
        {
          "indexed": false,
          "internalType": "bytes32",
          "name": "_payloadHash",
          "type": "bytes32"
        }
      ],
      "name": "RetryMessageSuccess",
      "type": "event"
    },
    {
      "anonymous": false,
      "inputs": [
        {
          "indexed": true,
          "internalType": "address",
          "name": "from",
          "type": "address"
        },
        {
          "indexed": true,
          "internalType": "address",
          "name": "to",
          "type": "address"
        },
        {
          "indexed": true,
          "internalType": "uint256",
          "name": "tokenId",
          "type": "uint256"
        }
      ],
      "name": "Transfer",
      "type": "event"
    },
    {
      "inputs": [
        {
          "internalType": "address",
          "name": "to",
          "type": "address"
        },
        {
          "internalType": "uint256",
          "name": "tokenId",
          "type": "uint256"
        }
      ],
      "name": "_bridgeMint",
      "outputs": [],
      "stateMutability": "nonpayable",
      "type": "function"
    },
    {
      "inputs": [
        {
          "internalType": "address",
          "name": "_asset",
          "type": "address"
        }
      ],
      "name": "addAsset",
      "outputs": [],
      "stateMutability": "nonpayable",
      "type": "function"
    },
    {
      "inputs": [
        {
          "internalType": "address",
          "name": "_asset",
          "type": "address"
        }
      ],
      "name": "allowedAsset",
      "outputs": [
        {
          "internalType": "bool",
          "name": "",
          "type": "bool"
        }
      ],
      "stateMutability": "view",
      "type": "function"
    },
    {
      "inputs": [
        {
          "internalType": "address",
          "name": "to",
          "type": "address"
        },
        {
          "internalType": "uint256",
          "name": "tokenId",
          "type": "uint256"
        }
      ],
      "name": "approve",
      "outputs": [],
      "stateMutability": "nonpayable",
      "type": "function"
    },
    {
      "inputs": [
        {
          "internalType": "address",
          "name": "_to",
          "type": "address"
        },
        {
          "internalType": "uint256[]",
          "name": "_ids",
          "type": "uint256[]"
        }
      ],
      "name": "approveMany",
      "outputs": [],
      "stateMutability": "nonpayable",
      "type": "function"
    },
    {
      "inputs": [
        {
          "internalType": "uint256",
          "name": "",
          "type": "uint256"
        }
      ],
      "name": "assets",
      "outputs": [
        {
          "internalType": "address",
          "name": "",
          "type": "address"
        }
      ],
      "stateMutability": "view",
      "type": "function"
    },
    {
      "inputs": [],
      "name": "assetsLength",
      "outputs": [
        {
          "internalType": "uint256",
          "name": "",
          "type": "uint256"
        }
      ],
      "stateMutability": "view",
      "type": "function"
    },
    {
      "inputs": [
        {
          "internalType": "address",
          "name": "_user",
          "type": "address"
        }
      ],
      "name": "balanceIds",
      "outputs": [
        {
          "internalType": "uint256[]",
          "name": "",
          "type": "uint256[]"
        }
      ],
      "stateMutability": "view",
      "type": "function"
    },
    {
      "inputs": [
        {
          "internalType": "address",
          "name": "owner",
          "type": "address"
        }
      ],
      "name": "balanceOf",
      "outputs": [
        {
          "internalType": "uint256",
          "name": "",
          "type": "uint256"
        }
      ],
      "stateMutability": "view",
      "type": "function"
    },
    {
      "inputs": [],
      "name": "baseURI",
      "outputs": [
        {
          "internalType": "string",
          "name": "",
          "type": "string"
        }
      ],
      "stateMutability": "view",
      "type": "function"
    },
    {
      "inputs": [
        {
          "internalType": "address",
          "name": "_tigAsset",
          "type": "address"
        }
      ],
      "name": "claim",
      "outputs": [],
      "stateMutability": "nonpayable",
      "type": "function"
    },
    {
      "inputs": [
        {
          "internalType": "uint16",
          "name": "_dstChainId",
          "type": "uint16"
        },
        {
          "internalType": "bytes",
          "name": "_destination",
          "type": "bytes"
        },
        {
          "internalType": "address",
          "name": "_to",
          "type": "address"
        },
        {
          "internalType": "uint256[]",
          "name": "tokenId",
          "type": "uint256[]"
        }
      ],
      "name": "crossChain",
      "outputs": [],
      "stateMutability": "payable",
      "type": "function"
    },
    {
      "inputs": [
        {
          "internalType": "address",
          "name": "_tigAsset",
          "type": "address"
        },
        {
          "internalType": "uint256",
          "name": "_amount",
          "type": "uint256"
        }
      ],
      "name": "distribute",
      "outputs": [],
      "stateMutability": "nonpayable",
      "type": "function"
    },
    {
      "inputs": [],
      "name": "endpoint",
      "outputs": [
        {
          "internalType": "contract ILayerZeroEndpoint",
          "name": "",
          "type": "address"
        }
      ],
      "stateMutability": "view",
      "type": "function"
    },
    {
      "inputs": [
        {
          "internalType": "uint16",
          "name": "_dstChainId",
          "type": "uint16"
        },
        {
          "internalType": "address",
          "name": "_userApplication",
          "type": "address"
        },
        {
          "internalType": "bytes",
          "name": "_payload",
          "type": "bytes"
        },
        {
          "internalType": "bool",
          "name": "_payInZRO",
          "type": "bool"
        },
        {
          "internalType": "bytes",
          "name": "_adapterParams",
          "type": "bytes"
        }
      ],
      "name": "estimateFees",
      "outputs": [
        {
          "internalType": "uint256",
          "name": "nativeFee",
          "type": "uint256"
        },
        {
          "internalType": "uint256",
          "name": "zroFee",
          "type": "uint256"
        }
      ],
      "stateMutability": "view",
      "type": "function"
    },
    {
      "inputs": [
        {
          "internalType": "uint16",
          "name": "",
          "type": "uint16"
        },
        {
          "internalType": "bytes",
          "name": "",
          "type": "bytes"
        },
        {
          "internalType": "uint64",
          "name": "",
          "type": "uint64"
        }
      ],
      "name": "failedMessages",
      "outputs": [
        {
          "internalType": "bytes32",
          "name": "",
          "type": "bytes32"
        }
      ],
      "stateMutability": "view",
      "type": "function"
    },
    {
      "inputs": [],
      "name": "gas",
      "outputs": [
        {
          "internalType": "uint256",
          "name": "",
          "type": "uint256"
        }
      ],
      "stateMutability": "view",
      "type": "function"
    },
    {
      "inputs": [
        {
          "internalType": "uint256",
          "name": "tokenId",
          "type": "uint256"
        }
      ],
      "name": "getApproved",
      "outputs": [
        {
          "internalType": "address",
          "name": "",
          "type": "address"
        }
      ],
      "stateMutability": "view",
      "type": "function"
    },
    {
      "inputs": [
        {
          "internalType": "address",
          "name": "owner",
          "type": "address"
        },
        {
          "internalType": "address",
          "name": "operator",
          "type": "address"
        }
      ],
      "name": "isApprovedForAll",
      "outputs": [
        {
          "internalType": "bool",
          "name": "",
          "type": "bool"
        }
      ],
      "stateMutability": "view",
      "type": "function"
    },
    {
      "inputs": [
        {
          "internalType": "uint16",
          "name": "",
          "type": "uint16"
        },
        {
          "internalType": "address",
          "name": "",
          "type": "address"
        }
      ],
      "name": "isTrustedAddress",
      "outputs": [
        {
          "internalType": "bool",
          "name": "",
          "type": "bool"
        }
      ],
      "stateMutability": "view",
      "type": "function"
    },
    {
      "inputs": [
        {
          "internalType": "address",
          "name": "_forwarder",
          "type": "address"
        }
      ],
      "name": "isTrustedForwarder",
      "outputs": [
        {
          "internalType": "bool",
          "name": "",
          "type": "bool"
        }
      ],
      "stateMutability": "view",
      "type": "function"
    },
    {
      "inputs": [
        {
          "internalType": "uint16",
          "name": "_srcChainId",
          "type": "uint16"
        },
        {
          "internalType": "bytes",
          "name": "_srcAddress",
          "type": "bytes"
        },
        {
          "internalType": "uint64",
          "name": "_nonce",
          "type": "uint64"
        },
        {
          "internalType": "bytes",
          "name": "_payload",
          "type": "bytes"
        }
      ],
      "name": "lzReceive",
      "outputs": [],
      "stateMutability": "nonpayable",
      "type": "function"
    },
    {
      "inputs": [],
      "name": "maxBridge",
      "outputs": [
        {
          "internalType": "uint256",
          "name": "",
          "type": "uint256"
        }
      ],
      "stateMutability": "view",
      "type": "function"
    },
    {
      "inputs": [],
      "name": "name",
      "outputs": [
        {
          "internalType": "string",
          "name": "",
          "type": "string"
        }
      ],
      "stateMutability": "view",
      "type": "function"
    },
    {
      "inputs": [
        {
          "internalType": "uint16",
          "name": "_srcChainId",
          "type": "uint16"
        },
        {
          "internalType": "bytes",
          "name": "_srcAddress",
          "type": "bytes"
        },
        {
          "internalType": "uint64",
          "name": "_nonce",
          "type": "uint64"
        },
        {
          "internalType": "bytes",
          "name": "_payload",
          "type": "bytes"
        }
      ],
      "name": "nonblockingLzReceive",
      "outputs": [],
      "stateMutability": "nonpayable",
      "type": "function"
    },
    {
      "inputs": [],
      "name": "owner",
      "outputs": [
        {
          "internalType": "address",
          "name": "",
          "type": "address"
        }
      ],
      "stateMutability": "view",
      "type": "function"
    },
    {
      "inputs": [
        {
          "internalType": "uint256",
          "name": "tokenId",
          "type": "uint256"
        }
      ],
      "name": "ownerOf",
      "outputs": [
        {
          "internalType": "address",
          "name": "",
          "type": "address"
        }
      ],
      "stateMutability": "view",
      "type": "function"
    },
    {
      "inputs": [
        {
          "internalType": "address",
          "name": "user",
          "type": "address"
        },
        {
          "internalType": "address",
          "name": "_tigAsset",
          "type": "address"
        }
      ],
      "name": "pending",
      "outputs": [
        {
          "internalType": "uint256",
          "name": "",
          "type": "uint256"
        }
      ],
      "stateMutability": "view",
      "type": "function"
    },
    {
      "inputs": [],
      "name": "renounceOwnership",
      "outputs": [],
      "stateMutability": "nonpayable",
      "type": "function"
    },
    {
      "inputs": [
        {
          "internalType": "uint16",
          "name": "_srcChainId",
          "type": "uint16"
        },
        {
          "internalType": "bytes",
          "name": "_srcAddress",
          "type": "bytes"
        },
        {
          "internalType": "uint64",
          "name": "_nonce",
          "type": "uint64"
        },
        {
          "internalType": "bytes",
          "name": "_payload",
          "type": "bytes"
        }
      ],
      "name": "retryMessage",
      "outputs": [],
      "stateMutability": "nonpayable",
      "type": "function"
    },
    {
      "inputs": [
        {
          "internalType": "address",
          "name": "from",
          "type": "address"
        },
        {
          "internalType": "address",
          "name": "to",
          "type": "address"
        },
        {
          "internalType": "uint256",
          "name": "tokenId",
          "type": "uint256"
        }
      ],
      "name": "safeTransferFrom",
      "outputs": [],
      "stateMutability": "nonpayable",
      "type": "function"
    },
    {
      "inputs": [
        {
          "internalType": "address",
          "name": "from",
          "type": "address"
        },
        {
          "internalType": "address",
          "name": "to",
          "type": "address"
        },
        {
          "internalType": "uint256",
          "name": "tokenId",
          "type": "uint256"
        },
        {
          "internalType": "bytes",
          "name": "data",
          "type": "bytes"
        }
      ],
      "name": "safeTransferFrom",
      "outputs": [],
      "stateMutability": "nonpayable",
      "type": "function"
    },
    {
      "inputs": [
        {
          "internalType": "address",
          "name": "_from",
          "type": "address"
        },
        {
          "internalType": "address",
          "name": "_to",
          "type": "address"
        },
        {
          "internalType": "uint256[]",
          "name": "_ids",
          "type": "uint256[]"
        }
      ],
      "name": "safeTransferFromMany",
      "outputs": [],
      "stateMutability": "nonpayable",
      "type": "function"
    },
    {
      "inputs": [
        {
          "internalType": "address",
          "name": "_to",
          "type": "address"
        },
        {
          "internalType": "uint256[]",
          "name": "_ids",
          "type": "uint256[]"
        }
      ],
      "name": "safeTransferMany",
      "outputs": [],
      "stateMutability": "nonpayable",
      "type": "function"
    },
    {
      "inputs": [
        {
          "internalType": "address",
          "name": "_asset",
          "type": "address"
        },
        {
          "internalType": "bool",
          "name": "_bool",
          "type": "bool"
        }
      ],
      "name": "setAllowedAsset",
      "outputs": [],
      "stateMutability": "nonpayable",
      "type": "function"
    },
    {
      "inputs": [
        {
          "internalType": "address",
          "name": "operator",
          "type": "address"
        },
        {
          "internalType": "bool",
          "name": "approved",
          "type": "bool"
        }
      ],
      "name": "setApprovalForAll",
      "outputs": [],
      "stateMutability": "nonpayable",
      "type": "function"
    },
    {
      "inputs": [
        {
          "internalType": "string",
          "name": "_newBaseURI",
          "type": "string"
        }
      ],
      "name": "setBaseURI",
      "outputs": [],
      "stateMutability": "nonpayable",
      "type": "function"
    },
    {
      "inputs": [
        {
          "internalType": "contract ILayerZeroEndpoint",
          "name": "_endpoint",
          "type": "address"
        }
      ],
      "name": "setEndpoint",
      "outputs": [],
      "stateMutability": "nonpayable",
      "type": "function"
    },
    {
      "inputs": [
        {
          "internalType": "uint256",
          "name": "_gas",
          "type": "uint256"
        }
      ],
      "name": "setGas",
      "outputs": [],
      "stateMutability": "nonpayable",
      "type": "function"
    },
    {
      "inputs": [
        {
          "internalType": "uint256",
          "name": "_max",
          "type": "uint256"
        }
      ],
      "name": "setMaxBridge",
      "outputs": [],
      "stateMutability": "nonpayable",
      "type": "function"
    },
    {
      "inputs": [
        {
          "internalType": "uint16",
          "name": "_chainId",
          "type": "uint16"
        },
        {
          "internalType": "address",
          "name": "_contract",
          "type": "address"
        },
        {
          "internalType": "bool",
          "name": "_bool",
          "type": "bool"
        }
      ],
      "name": "setTrustedAddress",
      "outputs": [],
      "stateMutability": "nonpayable",
      "type": "function"
    },
    {
      "inputs": [
        {
          "internalType": "address",
          "name": "_forwarder",
          "type": "address"
        },
        {
          "internalType": "bool",
          "name": "_bool",
          "type": "bool"
        }
      ],
      "name": "setTrustedForwarder",
      "outputs": [],
      "stateMutability": "nonpayable",
      "type": "function"
    },
    {
      "inputs": [
        {
          "internalType": "bytes4",
          "name": "interfaceId",
          "type": "bytes4"
        }
      ],
      "name": "supportsInterface",
      "outputs": [
        {
          "internalType": "bool",
          "name": "",
          "type": "bool"
        }
      ],
      "stateMutability": "view",
      "type": "function"
    },
    {
      "inputs": [],
      "name": "symbol",
      "outputs": [
        {
          "internalType": "string",
          "name": "",
          "type": "string"
        }
      ],
      "stateMutability": "view",
      "type": "function"
    },
    {
      "inputs": [
        {
          "internalType": "uint256",
          "name": "index",
          "type": "uint256"
        }
      ],
      "name": "tokenByIndex",
      "outputs": [
        {
          "internalType": "uint256",
          "name": "",
          "type": "uint256"
        }
      ],
      "stateMutability": "view",
      "type": "function"
    },
    {
      "inputs": [
        {
          "internalType": "address",
          "name": "owner",
          "type": "address"
        },
        {
          "internalType": "uint256",
          "name": "index",
          "type": "uint256"
        }
      ],
      "name": "tokenOfOwnerByIndex",
      "outputs": [
        {
          "internalType": "uint256",
          "name": "",
          "type": "uint256"
        }
      ],
      "stateMutability": "view",
      "type": "function"
    },
    {
      "inputs": [
        {
          "internalType": "uint256",
          "name": "tokenId",
          "type": "uint256"
        }
      ],
      "name": "tokenURI",
      "outputs": [
        {
          "internalType": "string",
          "name": "",
          "type": "string"
        }
      ],
      "stateMutability": "view",
      "type": "function"
    },
    {
      "inputs": [],
      "name": "totalSupply",
      "outputs": [
        {
          "internalType": "uint256",
          "name": "",
          "type": "uint256"
        }
      ],
      "stateMutability": "view",
      "type": "function"
    },
    {
      "inputs": [
        {
          "internalType": "address",
          "name": "from",
          "type": "address"
        },
        {
          "internalType": "address",
          "name": "to",
          "type": "address"
        },
        {
          "internalType": "uint256",
          "name": "tokenId",
          "type": "uint256"
        }
      ],
      "name": "transferFrom",
      "outputs": [],
      "stateMutability": "nonpayable",
      "type": "function"
    },
    {
      "inputs": [
        {
          "internalType": "address",
          "name": "newOwner",
          "type": "address"
        }
      ],
      "name": "transferOwnership",
      "outputs": [],
      "stateMutability": "nonpayable",
      "type": "function"
    }
  ],
  "transactionHash": "0xe26cd63fe10be90a972afc158803eebebbe0dd5fa58bd744d50b934d56911a43",
  "args": [
    "0x0000000000000000000000000000000000000000",
    "",
    "Tigris Governance NFT",
    "Tigris Gov NFT"
  ],
  "numDeployments": 1,
  "solcInputHash": "7b1ca2c078e5196f2ac66a3b3c2e2fb9",
  "bytecode": "0x6080604052620249f0600c556014600e553480156200001d57600080fd5b5060405162005ab438038062005ab4833981016040819052620000409162000222565b8181600062000050838262000363565b5060016200005f828262000363565b5050506200007c62000076620000b060201b60201c565b620000cc565b600f80546001600160a01b0319166001600160a01b038616179055600d620000a5848262000363565b50505050506200042f565b6000620000c76200011e60201b620028ed1760201c565b905090565b600a80546001600160a01b038381166001600160a01b0319831681179093556040519116919082907f8be0079c531659141344cd1fd0a4f28419497f9722a3daafe3b4186f6b6457e090600090a35050565b336000908152600b602052604081205460ff161562000144575060131936013560601c90565b620000c76200015960201b6200293a1760201c565b3390565b634e487b7160e01b600052604160045260246000fd5b600082601f8301126200018557600080fd5b81516001600160401b0380821115620001a257620001a26200015d565b604051601f8301601f19908116603f01168101908282118183101715620001cd57620001cd6200015d565b81604052838152602092508683858801011115620001ea57600080fd5b600091505b838210156200020e5785820183015181830184015290820190620001ef565b600093810190920192909252949350505050565b600080600080608085870312156200023957600080fd5b84516001600160a01b03811681146200025157600080fd5b60208601519094506001600160401b03808211156200026f57600080fd5b6200027d8883890162000173565b945060408701519150808211156200029457600080fd5b620002a28883890162000173565b93506060870151915080821115620002b957600080fd5b50620002c88782880162000173565b91505092959194509250565b600181811c90821680620002e957607f821691505b6020821081036200030a57634e487b7160e01b600052602260045260246000fd5b50919050565b601f8211156200035e57600081815260208120601f850160051c81016020861015620003395750805b601f850160051c820191505b818110156200035a5782815560010162000345565b5050505b505050565b81516001600160401b038111156200037f576200037f6200015d565b6200039781620003908454620002d4565b8462000310565b602080601f831160018114620003cf5760008415620003b65750858301515b600019600386901b1c1916600185901b1785556200035a565b600085815260208120601f198616915b828110156200040057888601518255948401946001909101908401620003df565b50858210156200041f5787850151600019600388901b60f8161c191681555b5050505050600190811b01905550565b615675806200043f6000396000f3fe6080604052600436106103285760003560e01c80636c0360eb116101a5578063cf35bdd0116100ec578063e691d03b11610095578063f2fde38b1161006f578063f2fde38b146109c8578063f35da34c146109e8578063f50477a214610a2e578063fb93210814610a4357600080fd5b8063e691d03b14610932578063e985e9c514610952578063ec92977d146109a857600080fd5b8063d9a3aa3c116100c6578063d9a3aa3c146108d2578063dbbb4155146108f2578063dd51faa21461091257600080fd5b8063cf35bdd014610872578063d1deba1f14610892578063d6651c70146108b257600080fd5b806399bb81341161014e578063adc82e0111610128578063adc82e0114610805578063b88d4fde14610832578063c87b56dd1461085257600080fd5b806399bb81341461078a578063a22cb465146107aa578063a914fdc6146107ca57600080fd5b8063715018a61161017f578063715018a6146107355780638da5cb5b1461074a57806395d89b411461077557600080fd5b80636c0360eb146106ea5780636ca7c216146106ff57806370a082311461071557600080fd5b80633206e3e711610274578063572b6c051161021d5780635deccd72116101f75780635deccd721461066a5780635e280f111461067d5780636352211e146106aa57806366ad5c8a146106ca57600080fd5b8063572b6c05146105b557806358c5de6a146105fb5780635b8c41e61461061b57600080fd5b8063456560f41161024e578063456560f41461055f5780634f6ccce71461057557806355f804b31461059557600080fd5b80633206e3e7146104ea57806340a7bb101461050a57806342842e0e1461053f57600080fd5b806318160ddd116102d657806323b872dd116102b057806323b872dd1461048a578063298410e5146104aa5780632f745c59146104ca57600080fd5b806318160ddd1461042b57806319bc9ae81461044a5780631e83409a1461046a57600080fd5b806306fdde031161030757806306fdde03146103a4578063081812fc146103c6578063095ea7b31461040b57600080fd5b80621d35671461032d57806301ffc9a71461034f57806304e538fd14610384575b600080fd5b34801561033957600080fd5b5061034d610348366004614714565b610a63565b005b34801561035b57600080fd5b5061036f61036a3660046147c7565b610c74565b60405190151581526020015b60405180910390f35b34801561039057600080fd5b5061034d61039f366004614806565b610cd0565b3480156103b057600080fd5b506103b9610ed5565b60405161037b91906148a0565b3480156103d257600080fd5b506103e66103e13660046148b3565b610f67565b60405173ffffffffffffffffffffffffffffffffffffffff909116815260200161037b565b34801561041757600080fd5b5061034d610426366004614806565b610f9b565b34801561043757600080fd5b506008545b60405190815260200161037b565b34801561045657600080fd5b5061043c6104653660046148cc565b611146565b34801561047657600080fd5b5061034d610485366004614905565b6111e8565b34801561049657600080fd5b5061034d6104a5366004614922565b6112ed565b3480156104b657600080fd5b5061034d6104c5366004614905565b611395565b3480156104d657600080fd5b5061043c6104e5366004614806565b611528565b3480156104f657600080fd5b5061034d6105053660046149af565b6115f7565b34801561051657600080fd5b5061052a610525366004614a64565b61163e565b6040805192835260208301919091520161037b565b34801561054b57600080fd5b5061034d61055a366004614922565b6116f5565b34801561056b57600080fd5b5061043c600e5481565b34801561058157600080fd5b5061043c6105903660046148b3565b611710565b3480156105a157600080fd5b5061034d6105b0366004614b0c565b6117ce565b3480156105c157600080fd5b5061036f6105d0366004614905565b73ffffffffffffffffffffffffffffffffffffffff166000908152600b602052604090205460ff1690565b34801561060757600080fd5b5061034d610616366004614b4e565b6117e3565b34801561062757600080fd5b5061043c610636366004614b97565b6011602090815260009384526040808520845180860184018051928152908401958401959095209452929052825290205481565b61034d610678366004614c19565b611851565b34801561068957600080fd5b50600f546103e69073ffffffffffffffffffffffffffffffffffffffff1681565b3480156106b657600080fd5b506103e66106c53660046148b3565b611cb0565b3480156106d657600080fd5b5061034d6106e5366004614cfb565b611d3c565b3480156106f657600080fd5b506103b9611e40565b34801561070b57600080fd5b5061043c600c5481565b34801561072157600080fd5b5061043c610730366004614905565b611ece565b34801561074157600080fd5b5061034d611f9c565b34801561075657600080fd5b50600a5473ffffffffffffffffffffffffffffffffffffffff166103e6565b34801561078157600080fd5b506103b9611fb0565b34801561079657600080fd5b5061034d6107a5366004614d8f565b611fbf565b3480156107b657600080fd5b5061034d6107c5366004614de4565b611ffe565b3480156107d657600080fd5b5061036f6107e5366004614e12565b601060209081526000928352604080842090915290825290205460ff1681565b34801561081157600080fd5b50610825610820366004614905565b612010565b60405161037b9190614e69565b34801561083e57600080fd5b5061034d61084d366004614e7c565b6120ad565b34801561085e57600080fd5b506103b961086d3660046148b3565b612156565b34801561087e57600080fd5b506103e661088d3660046148b3565b6121bc565b34801561089e57600080fd5b5061034d6108ad366004614cfb565b6121f3565b3480156108be57600080fd5b5061034d6108cd366004614d8f565b612475565b3480156108de57600080fd5b5061034d6108ed366004614de4565b6124bc565b3480156108fe57600080fd5b5061034d61090d366004614905565b61251a565b34801561091e57600080fd5b5061034d61092d3660046148b3565b6125e6565b34801561093e57600080fd5b5061034d61094d366004614de4565b6125f3565b34801561095e57600080fd5b5061036f61096d3660046148cc565b73ffffffffffffffffffffffffffffffffffffffff918216600090815260056020908152604080832093909416825291909152205460ff1690565b3480156109b457600080fd5b5061034d6109c33660046148b3565b612651565b3480156109d457600080fd5b5061034d6109e3366004614905565b61265e565b3480156109f457600080fd5b5061036f610a03366004614905565b73ffffffffffffffffffffffffffffffffffffffff1660009081526013602052604090205460ff1690565b348015610a3a57600080fd5b5060125461043c565b348015610a4f57600080fd5b5061034d610a5e366004614806565b612715565b600f5473ffffffffffffffffffffffffffffffffffffffff16610a8461293e565b73ffffffffffffffffffffffffffffffffffffffff1614610b06576040517f08c379a000000000000000000000000000000000000000000000000000000000815260206004820152600960248201527f21456e64706f696e74000000000000000000000000000000000000000000000060448201526064015b60405180910390fd5b600080610bcb60055a610b1a906004614f0b565b610b249190614f22565b60966366ad5c8a60e01b89898989604051602401610b459493929190614f5d565b604080517fffffffffffffffffffffffffffffffffffffffffffffffffffffffffffffffe08184030181529190526020810180517bffffffffffffffffffffffffffffffffffffffffffffffffffffffff167fffffffff000000000000000000000000000000000000000000000000000000009093169290921790915230929190612948565b9150915081610c6c578280519060200120601160008861ffff1661ffff16815260200190815260200160002086604051610c059190614fa7565b90815260408051918290036020908101832067ffffffffffffffff89166000908152915220919091557fe183f33de2837795525b4792ca4cd60535bd77c53b7e7030060bfcf5734d6b0c90610c639088908890889088908790614fc3565b60405180910390a15b505050505050565b60007fffffffff0000000000000000000000000000000000000000000000000000000082167f780e9d63000000000000000000000000000000000000000000000000000000001480610cca5750610cca826129d3565b92915050565b33301480610d125750600a5473ffffffffffffffffffffffffffffffffffffffff16610cfa61293e565b73ffffffffffffffffffffffffffffffffffffffff16145b610d78576040517f08c379a000000000000000000000000000000000000000000000000000000000815260206004820152600960248201527f4e6f7442726964676500000000000000000000000000000000000000000000006044820152606401610afd565b6127108111158015610d8957508015155b610def576040517f08c379a000000000000000000000000000000000000000000000000000000000815260206004820152600560248201527f42616449440000000000000000000000000000000000000000000000000000006044820152606401610afd565b60005b601254811015610ec6576017600060128381548110610e1357610e13615022565b600091825260208083209091015473ffffffffffffffffffffffffffffffffffffffff90811684528382019490945260409283018220549387168252601590529081206012805491929185908110610e6d57610e6d615022565b600091825260208083209091015473ffffffffffffffffffffffffffffffffffffffff16835282019290925260400181208054909190610eae908490615051565b90915550819050610ebe81615064565b915050610df2565b50610ed18282612ab6565b5050565b606060008054610ee49061509c565b80601f0160208091040260200160405190810160405280929190818152602001828054610f109061509c565b8015610f5d5780601f10610f3257610100808354040283529160200191610f5d565b820191906000526020600020905b815481529060010190602001808311610f4057829003601f168201915b5050505050905090565b6000610f7282612ce9565b5060009081526004602052604090205473ffffffffffffffffffffffffffffffffffffffff1690565b6000610fa682611cb0565b90508073ffffffffffffffffffffffffffffffffffffffff168373ffffffffffffffffffffffffffffffffffffffff1603611063576040517f08c379a000000000000000000000000000000000000000000000000000000000815260206004820152602160248201527f4552433732313a20617070726f76616c20746f2063757272656e74206f776e6560448201527f72000000000000000000000000000000000000000000000000000000000000006064820152608401610afd565b8073ffffffffffffffffffffffffffffffffffffffff1661108261293e565b73ffffffffffffffffffffffffffffffffffffffff1614806110ab57506110ab8161096d61293e565b611137576040517f08c379a000000000000000000000000000000000000000000000000000000000815260206004820152603d60248201527f4552433732313a20617070726f76652063616c6c6572206973206e6f7420746f60448201527f6b656e206f776e6572206f7220617070726f76656420666f7220616c6c0000006064820152608401610afd565b6111418383612d74565b505050565b73ffffffffffffffffffffffffffffffffffffffff808316600090815260156020908152604080832093851683529281528282205460179091529181205490919061119085611ece565b61119a9190614f0b565b73ffffffffffffffffffffffffffffffffffffffff8086166000908152601660209081526040808320938816835292905220546111d79190615051565b6111e191906150ef565b9392505050565b60006111f261293e565b905060006112008284611146565b73ffffffffffffffffffffffffffffffffffffffff8084166000908152601560209081526040808320938816835292905290812080549293508392909190611249908490615051565b90915550506040517fa9059cbb00000000000000000000000000000000000000000000000000000000815273ffffffffffffffffffffffffffffffffffffffff83811660048301526024820183905284169063a9059cbb906044016020604051808303816000875af11580156112c3573d6000803e3d6000fd5b505050506040513d601f19601f820116820180604052508101906112e79190615102565b50505050565b6112fe6112f861293e565b82612e14565b61138a576040517f08c379a000000000000000000000000000000000000000000000000000000000815260206004820152602d60248201527f4552433732313a2063616c6c6572206973206e6f7420746f6b656e206f776e6560448201527f72206f7220617070726f766564000000000000000000000000000000000000006064820152608401610afd565b611141838383612ed4565b61139d613315565b6012541580611407575073ffffffffffffffffffffffffffffffffffffffff81166000818152601460205260409020546012805490919081106113e2576113e2615022565b60009182526020909120015473ffffffffffffffffffffffffffffffffffffffff1614155b61146d576040517f08c379a000000000000000000000000000000000000000000000000000000000815260206004820152600d60248201527f416c7265616479206164646564000000000000000000000000000000000000006044820152606401610afd565b6012805473ffffffffffffffffffffffffffffffffffffffff909216600081815260146020908152604080832086905560018087019095557fbb8a6a4669ba250d26cd7a459eca9d215f8307e33aebe50379bc5a3617ec344490950180547fffffffffffffffffffffffff0000000000000000000000000000000000000000168417905591815260139091529190912080547fffffffffffffffffffffffffffffffffffffffffffffffffffffffffffffff00169091179055565b600061153383611ece565b82106115c1576040517f08c379a000000000000000000000000000000000000000000000000000000000815260206004820152602b60248201527f455243373231456e756d657261626c653a206f776e657220696e646578206f7560448201527f74206f6620626f756e64730000000000000000000000000000000000000000006064820152608401610afd565b5073ffffffffffffffffffffffffffffffffffffffff919091166000908152600660209081526040808320938352929052205490565b60005b8181101561163757611625858585858581811061161957611619615022565b905060200201356116f5565b8061162f81615064565b9150506115fa565b5050505050565b600f546040517f40a7bb10000000000000000000000000000000000000000000000000000000008152600091829173ffffffffffffffffffffffffffffffffffffffff909116906340a7bb10906116a5908c908c908c908c908c908c908c90600401615168565b6040805180830381865afa1580156116c1573d6000803e3d6000fd5b505050506040513d601f19601f820116820180604052508101906116e591906151cb565b9150915097509795505050505050565b611141838383604051806020016040528060008152506120ad565b600061171b60085490565b82106117a9576040517f08c379a000000000000000000000000000000000000000000000000000000000815260206004820152602c60248201527f455243373231456e756d657261626c653a20676c6f62616c20696e646578206f60448201527f7574206f6620626f756e647300000000000000000000000000000000000000006064820152608401610afd565b600882815481106117bc576117bc615022565b90600052602060002001549050919050565b6117d6613315565b600d611141828483615235565b6117eb613315565b61ffff909216600090815260106020908152604080832073ffffffffffffffffffffffffffffffffffffffff90941683529290522080549115157fffffffffffffffffffffffffffffffffffffffffffffffffffffffffffffff00909216919091179055565b60008151116118bc576040517f08c379a000000000000000000000000000000000000000000000000000000000815260206004820152600c60248201527f4e6f74206272696467696e6700000000000000000000000000000000000000006044820152606401610afd565b60005b81518110156119b9576118ea8282815181106118dd576118dd615022565b6020026020010151611cb0565b73ffffffffffffffffffffffffffffffffffffffff1661190861293e565b73ffffffffffffffffffffffffffffffffffffffff1614611985576040517f08c379a000000000000000000000000000000000000000000000000000000000815260206004820152600d60248201527f4e6f7420746865206f776e6572000000000000000000000000000000000000006044820152606401610afd565b6119a782828151811061199a5761199a615022565b60200260200101516133cf565b806119b181615064565b9150506118bf565b50601483015161ffff8516600090815260106020908152604080832073ffffffffffffffffffffffffffffffffffffffff8516845290915290205460ff16611a5d576040517f08c379a000000000000000000000000000000000000000000000000000000000815260206004820152600860248201527f21547275737465640000000000000000000000000000000000000000000000006044820152606401610afd565b60008383604051602001611a7292919061534f565b604051602081830303815290604052905060006001905060008451600c54611a9a9190614f0b565b611aa7906207a120615051565b6040805160f085901b7fffff0000000000000000000000000000000000000000000000000000000000001660208201526022808201849052825180830390910181526042820192839052600f547f40a7bb100000000000000000000000000000000000000000000000000000000090935292935060009173ffffffffffffffffffffffffffffffffffffffff16906340a7bb1090611b51908d9030908a908790899060460161537e565b6040805180830381865afa158015611b6d573d6000803e3d6000fd5b505050506040513d601f19601f82011682018060405250810190611b9191906151cb565b50905080341015611c24576040517f08c379a000000000000000000000000000000000000000000000000000000000815260206004820152602a60248201527f4d7573742073656e6420656e6f7567682076616c756520746f20636f7665722060448201527f6d657373616765466565000000000000000000000000000000000000000000006064820152608401610afd565b600f5473ffffffffffffffffffffffffffffffffffffffff1663c5803100348c8c89611c4e61293e565b6000896040518863ffffffff1660e01b8152600401611c72969594939291906153d1565b6000604051808303818588803b158015611c8b57600080fd5b505af1158015611c9f573d6000803e3d6000fd5b505050505050505050505050505050565b60008181526002602052604081205473ffffffffffffffffffffffffffffffffffffffff1680610cca576040517f08c379a000000000000000000000000000000000000000000000000000000000815260206004820152601860248201527f4552433732313a20696e76616c696420746f6b656e20494400000000000000006044820152606401610afd565b333014611dca576040517f08c379a0000000000000000000000000000000000000000000000000000000008152602060048201526024808201527f4e6f6e626c6f636b696e674c7a4170703a2063616c6c6572206d75737420626560448201527f20617070000000000000000000000000000000000000000000000000000000006064820152608401610afd565b610c6c8686868080601f01602080910402602001604051908101604052809392919081815260200183838082843760009201919091525050604080516020601f8901819004810282018101909252878152899350915087908790819084018382808284376000920191909152506136c592505050565b600d8054611e4d9061509c565b80601f0160208091040260200160405190810160405280929190818152602001828054611e799061509c565b8015611ec65780601f10611e9b57610100808354040283529160200191611ec6565b820191906000526020600020905b815481529060010190602001808311611ea957829003601f168201915b505050505081565b600073ffffffffffffffffffffffffffffffffffffffff8216611f73576040517f08c379a000000000000000000000000000000000000000000000000000000000815260206004820152602960248201527f4552433732313a2061646472657373207a65726f206973206e6f74206120766160448201527f6c6964206f776e657200000000000000000000000000000000000000000000006064820152608401610afd565b5073ffffffffffffffffffffffffffffffffffffffff1660009081526003602052604090205490565b611fa4613315565b611fae60006137f8565b565b606060018054610ee49061509c565b60005b818110156112e757611fec84848484818110611fe057611fe0615022565b90506020020135610f9b565b80611ff681615064565b915050611fc2565b610ed161200961293e565b838361386f565b6060600061201d83611ece565b67ffffffffffffffff811115612035576120356145f0565b60405190808252806020026020018201604052801561205e578160200160208202803683370190505b50905060005b81518110156120a6576120778482611528565b82828151811061208957612089615022565b60209081029190910101528061209e81615064565b915050612064565b5092915050565b6120be6120b861293e565b83612e14565b61214a576040517f08c379a000000000000000000000000000000000000000000000000000000000815260206004820152602d60248201527f4552433732313a2063616c6c6572206973206e6f7420746f6b656e206f776e6560448201527f72206f7220617070726f766564000000000000000000000000000000000000006064820152608401610afd565b6112e78484848461399c565b606061216182612ce9565b600061216b613a3f565b9050600081511161218b57604051806020016040528060008152506111e1565b8061219584613a4e565b6040516020016121a6929190615445565b6040516020818303038152906040529392505050565b601281815481106121cc57600080fd5b60009182526020909120015473ffffffffffffffffffffffffffffffffffffffff16905081565b61ffff861660009081526011602052604080822090516122169088908890615474565b908152604080516020928190038301902067ffffffffffffffff8716600090815292529020549050806122cb576040517f08c379a000000000000000000000000000000000000000000000000000000000815260206004820152602360248201527f4e6f6e626c6f636b696e674c7a4170703a206e6f2073746f726564206d65737360448201527f61676500000000000000000000000000000000000000000000000000000000006064820152608401610afd565b8083836040516122dc929190615474565b604051809103902014612371576040517f08c379a000000000000000000000000000000000000000000000000000000000815260206004820152602160248201527f4e6f6e626c6f636b696e674c7a4170703a20696e76616c6964207061796c6f6160448201527f64000000000000000000000000000000000000000000000000000000000000006064820152608401610afd565b61ffff871660009081526011602052604080822090516123949089908990615474565b908152604080516020928190038301812067ffffffffffffffff8916600090815290845282902093909355601f8801829004820283018201905286825261242d918991899089908190840183828082843760009201919091525050604080516020601f8a018190048102820181019092528881528a9350915088908890819084018382808284376000920191909152506136c592505050565b7fc264d91f3adc5588250e1551f547752ca0cfa8f6b530d243b9f9f4cab10ea8e58787878785604051612464959493929190615484565b60405180910390a150505050505050565b60005b818110156112e7576124aa61248b61293e565b8585858581811061249e5761249e615022565b90506020020135612ed4565b806124b481615064565b915050612478565b6124c4613315565b73ffffffffffffffffffffffffffffffffffffffff91909116600090815260136020526040902080547fffffffffffffffffffffffffffffffffffffffffffffffffffffffffffffff0016911515919091179055565b612522613315565b73ffffffffffffffffffffffffffffffffffffffff811661259f576040517f08c379a000000000000000000000000000000000000000000000000000000000815260206004820152600b60248201527f5a65726f416464726573730000000000000000000000000000000000000000006044820152606401610afd565b600f80547fffffffffffffffffffffffff00000000000000000000000000000000000000001673ffffffffffffffffffffffffffffffffffffffff92909216919091179055565b6125ee613315565b600c55565b6125fb613315565b73ffffffffffffffffffffffffffffffffffffffff919091166000908152600b6020526040902080547fffffffffffffffffffffffffffffffffffffffffffffffffffffffffffffff0016911515919091179055565b612659613315565b600e55565b612666613315565b73ffffffffffffffffffffffffffffffffffffffff8116612709576040517f08c379a000000000000000000000000000000000000000000000000000000000815260206004820152602660248201527f4f776e61626c653a206e6577206f776e657220697320746865207a65726f206160448201527f64647265737300000000000000000000000000000000000000000000000000006064820152608401610afd565b612712816137f8565b50565b601254158061277e575073ffffffffffffffffffffffffffffffffffffffff821660009081526014602052604081205460128054909190811061275a5761275a615022565b60009182526020909120015473ffffffffffffffffffffffffffffffffffffffff16145b806127895750600854155b806127ba575073ffffffffffffffffffffffffffffffffffffffff821660009081526013602052604090205460ff16155b156127c3575050565b8173ffffffffffffffffffffffffffffffffffffffff166323b872dd6127e761293e565b6040517fffffffff0000000000000000000000000000000000000000000000000000000060e084901b16815273ffffffffffffffffffffffffffffffffffffffff9091166004820152306024820152604481018490526064016020604051808303816000875af1925050508015612899575060408051601f3d9081017fffffffffffffffffffffffffffffffffffffffffffffffffffffffffffffffe016820190925261289691810190615102565b60015b6128a1575050565b506008546128af9082614f22565b73ffffffffffffffffffffffffffffffffffffffff8316600090815260176020526040812080549091906128e4908490615051565b90915550505050565b336000908152600b602052604081205460ff161561293057507fffffffffffffffffffffffffffffffffffffffffffffffffffffffffffffffec36013560601c90565b503390565b905090565b3390565b60006129356128ed565b6000606060008060008661ffff1667ffffffffffffffff81111561296e5761296e6145f0565b6040519080825280601f01601f191660200182016040528015612998576020820181803683370190505b50905060008087516020890160008d8df191503d9250868311156129ba578692505b828152826000602083013e909890975095505050505050565b60007fffffffff0000000000000000000000000000000000000000000000000000000082167f80ac58cd000000000000000000000000000000000000000000000000000000001480612a6657507fffffffff0000000000000000000000000000000000000000000000000000000082167f5b5e139f00000000000000000000000000000000000000000000000000000000145b80610cca57507f01ffc9a7000000000000000000000000000000000000000000000000000000007fffffffff00000000000000000000000000000000000000000000000000000000831614610cca565b73ffffffffffffffffffffffffffffffffffffffff8216612b33576040517f08c379a000000000000000000000000000000000000000000000000000000000815260206004820181905260248201527f4552433732313a206d696e7420746f20746865207a65726f20616464726573736044820152606401610afd565b60008181526002602052604090205473ffffffffffffffffffffffffffffffffffffffff1615612bbf576040517f08c379a000000000000000000000000000000000000000000000000000000000815260206004820152601c60248201527f4552433732313a20746f6b656e20616c7265616479206d696e746564000000006044820152606401610afd565b612bcd600083836001613b0c565b60008181526002602052604090205473ffffffffffffffffffffffffffffffffffffffff1615612c59576040517f08c379a000000000000000000000000000000000000000000000000000000000815260206004820152601c60248201527f4552433732313a20746f6b656e20616c7265616479206d696e746564000000006044820152606401610afd565b73ffffffffffffffffffffffffffffffffffffffff8216600081815260036020908152604080832080546001019055848352600290915280822080547fffffffffffffffffffffffff0000000000000000000000000000000000000000168417905551839291907fddf252ad1be2c89b69c2b068fc378daa952ba7f163c4a11628f55a4df523b3ef908290a45050565b60008181526002602052604090205473ffffffffffffffffffffffffffffffffffffffff16612712576040517f08c379a000000000000000000000000000000000000000000000000000000000815260206004820152601860248201527f4552433732313a20696e76616c696420746f6b656e20494400000000000000006044820152606401610afd565b600081815260046020526040902080547fffffffffffffffffffffffff00000000000000000000000000000000000000001673ffffffffffffffffffffffffffffffffffffffff84169081179091558190612dce82611cb0565b73ffffffffffffffffffffffffffffffffffffffff167f8c5be1e5ebec7d5bd14f71427d1e84f3dd0314c0f7b2291e5b200ac8c7c3b92560405160405180910390a45050565b600080612e2083611cb0565b90508073ffffffffffffffffffffffffffffffffffffffff168473ffffffffffffffffffffffffffffffffffffffff161480612e8e575073ffffffffffffffffffffffffffffffffffffffff80821660009081526005602090815260408083209388168352929052205460ff165b80612ecc57508373ffffffffffffffffffffffffffffffffffffffff16612eb484610f67565b73ffffffffffffffffffffffffffffffffffffffff16145b949350505050565b8273ffffffffffffffffffffffffffffffffffffffff16612ef482611cb0565b73ffffffffffffffffffffffffffffffffffffffff1614612f71576040517f08c379a000000000000000000000000000000000000000000000000000000000815260206004820152600660248201527f214f776e657200000000000000000000000000000000000000000000000000006044820152606401610afd565b60005b601254811015613309576017600060128381548110612f9557612f95615022565b600091825260208083209091015473ffffffffffffffffffffffffffffffffffffffff90811684528382019490945260409283018220549388168252601690529081206012805491929185908110612fef57612fef615022565b600091825260208083209091015473ffffffffffffffffffffffffffffffffffffffff16835282019290925260400181208054909190613030908490615051565b9091555061303f905084611ece565b73ffffffffffffffffffffffffffffffffffffffff85166000908152601560205260408120601280549192918590811061307b5761307b615022565b600091825260208083209091015473ffffffffffffffffffffffffffffffffffffffff1683528201929092526040019020546130b79190614f22565b73ffffffffffffffffffffffffffffffffffffffff8516600090815260166020526040812060128054919291859081106130f3576130f3615022565b600091825260208083209091015473ffffffffffffffffffffffffffffffffffffffff168352820192909252604001812080549091906131349084906150ef565b90915550613143905084611ece565b73ffffffffffffffffffffffffffffffffffffffff85166000908152601560205260408120601280549192918590811061317f5761317f615022565b600091825260208083209091015473ffffffffffffffffffffffffffffffffffffffff1683528201929092526040019020546131bb9190614f22565b73ffffffffffffffffffffffffffffffffffffffff8516600090815260156020526040812060128054919291859081106131f7576131f7615022565b600091825260208083209091015473ffffffffffffffffffffffffffffffffffffffff168352820192909252604001812080549091906132389084906150ef565b92505081905550601760006012838154811061325657613256615022565b600091825260208083209091015473ffffffffffffffffffffffffffffffffffffffff908116845283820194909452604092830182205493871682526015905290812060128054919291859081106132b0576132b0615022565b600091825260208083209091015473ffffffffffffffffffffffffffffffffffffffff168352820192909252604001812080549091906132f1908490615051565b9091555081905061330181615064565b915050612f74565b50611141838383613cb5565b61331d61293e565b73ffffffffffffffffffffffffffffffffffffffff16613352600a5473ffffffffffffffffffffffffffffffffffffffff1690565b73ffffffffffffffffffffffffffffffffffffffff1614611fae576040517f08c379a000000000000000000000000000000000000000000000000000000000815260206004820181905260248201527f4f776e61626c653a2063616c6c6572206973206e6f7420746865206f776e65726044820152606401610afd565b60006133da82611cb0565b905060005b6012548110156136bb57601760006012838154811061340057613400615022565b600091825260208083209091015473ffffffffffffffffffffffffffffffffffffffff9081168452838201949094526040928301822054938616825260169052908120601280549192918590811061345a5761345a615022565b600091825260208083209091015473ffffffffffffffffffffffffffffffffffffffff1683528201929092526040018120805490919061349b908490615051565b909155506134aa905082611ece565b73ffffffffffffffffffffffffffffffffffffffff8316600090815260156020526040812060128054919291859081106134e6576134e6615022565b600091825260208083209091015473ffffffffffffffffffffffffffffffffffffffff1683528201929092526040019020546135229190614f22565b73ffffffffffffffffffffffffffffffffffffffff83166000908152601660205260408120601280549192918590811061355e5761355e615022565b600091825260208083209091015473ffffffffffffffffffffffffffffffffffffffff1683528201929092526040018120805490919061359f9084906150ef565b909155506135ae905082611ece565b73ffffffffffffffffffffffffffffffffffffffff8316600090815260156020526040812060128054919291859081106135ea576135ea615022565b600091825260208083209091015473ffffffffffffffffffffffffffffffffffffffff1683528201929092526040019020546136269190614f22565b73ffffffffffffffffffffffffffffffffffffffff83166000908152601560205260408120601280549192918590811061366257613662615022565b600091825260208083209091015473ffffffffffffffffffffffffffffffffffffffff168352820192909252604001812080549091906136a39084906150ef565b909155508190506136b381615064565b9150506133df565b50610ed182613fbd565b601483015161ffff8516600090815260106020908152604080832073ffffffffffffffffffffffffffffffffffffffff8516845290915290205460ff16613768576040517f08c379a000000000000000000000000000000000000000000000000000000000815260206004820152600f60248201527f21547275737465644164647265737300000000000000000000000000000000006044820152606401610afd565b6000808380602001905181019061377f91906154c0565b9150915060005b81518110156137c4576137b2838383815181106137a5576137a5615022565b6020026020010151610cd0565b806137bc81615064565b915050613786565b507fd1277f109a4c2ec8d99a410396e48214f894389b6e789a231d8b7ccbb050bed787838360405161246493929190615568565b600a805473ffffffffffffffffffffffffffffffffffffffff8381167fffffffffffffffffffffffff0000000000000000000000000000000000000000831681179093556040519116919082907f8be0079c531659141344cd1fd0a4f28419497f9722a3daafe3b4186f6b6457e090600090a35050565b8173ffffffffffffffffffffffffffffffffffffffff168373ffffffffffffffffffffffffffffffffffffffff1603613904576040517f08c379a000000000000000000000000000000000000000000000000000000000815260206004820152601960248201527f4552433732313a20617070726f766520746f2063616c6c6572000000000000006044820152606401610afd565b73ffffffffffffffffffffffffffffffffffffffff83811660008181526005602090815260408083209487168084529482529182902080547fffffffffffffffffffffffffffffffffffffffffffffffffffffffffffffff001686151590811790915591519182527f17307eab39ab6107e8899845ad3d59bd9653f200f220920489ca2b5937696c31910160405180910390a3505050565b6139a7848484612ed4565b6139b3848484846140a3565b6112e7576040517f08c379a000000000000000000000000000000000000000000000000000000000815260206004820152603260248201527f4552433732313a207472616e7366657220746f206e6f6e20455243373231526560448201527f63656976657220696d706c656d656e74657200000000000000000000000000006064820152608401610afd565b6060600d8054610ee49061509c565b60606000613a5b83614284565b600101905060008167ffffffffffffffff811115613a7b57613a7b6145f0565b6040519080825280601f01601f191660200182016040528015613aa5576020820181803683370190505b5090508181016020015b7fffffffffffffffffffffffffffffffffffffffffffffffffffffffffffffffff017f3031323334353637383961626364656600000000000000000000000000000000600a86061a8153600a8504945084613aaf57509392505050565b613b1884848484614366565b6001811115613ba9576040517f08c379a000000000000000000000000000000000000000000000000000000000815260206004820152603560248201527f455243373231456e756d657261626c653a20636f6e736563757469766520747260448201527f616e7366657273206e6f7420737570706f7274656400000000000000000000006064820152608401610afd565b8173ffffffffffffffffffffffffffffffffffffffff8516613c1257613c0d81600880546000838152600960205260408120829055600182018355919091527ff3f7a9fe364faab93b216da50a3214154f22a0a2b415b23a84c8169e8b636ee30155565b613c4f565b8373ffffffffffffffffffffffffffffffffffffffff168573ffffffffffffffffffffffffffffffffffffffff1614613c4f57613c4f8582614422565b73ffffffffffffffffffffffffffffffffffffffff8416613c7857613c73816144d9565b611637565b8473ffffffffffffffffffffffffffffffffffffffff168473ffffffffffffffffffffffffffffffffffffffff1614611637576116378482614588565b8273ffffffffffffffffffffffffffffffffffffffff16613cd582611cb0565b73ffffffffffffffffffffffffffffffffffffffff1614613d78576040517f08c379a000000000000000000000000000000000000000000000000000000000815260206004820152602560248201527f4552433732313a207472616e736665722066726f6d20696e636f72726563742060448201527f6f776e65720000000000000000000000000000000000000000000000000000006064820152608401610afd565b73ffffffffffffffffffffffffffffffffffffffff8216613e1a576040517f08c379a0000000000000000000000000000000000000000000000000000000008152602060048201526024808201527f4552433732313a207472616e7366657220746f20746865207a65726f2061646460448201527f72657373000000000000000000000000000000000000000000000000000000006064820152608401610afd565b613e278383836001613b0c565b8273ffffffffffffffffffffffffffffffffffffffff16613e4782611cb0565b73ffffffffffffffffffffffffffffffffffffffff1614613eea576040517f08c379a000000000000000000000000000000000000000000000000000000000815260206004820152602560248201527f4552433732313a207472616e736665722066726f6d20696e636f72726563742060448201527f6f776e65720000000000000000000000000000000000000000000000000000006064820152608401610afd565b600081815260046020908152604080832080547fffffffffffffffffffffffff000000000000000000000000000000000000000090811690915573ffffffffffffffffffffffffffffffffffffffff8781168086526003855283862080547fffffffffffffffffffffffffffffffffffffffffffffffffffffffffffffffff01905590871680865283862080546001019055868652600290945282852080549092168417909155905184937fddf252ad1be2c89b69c2b068fc378daa952ba7f163c4a11628f55a4df523b3ef91a4505050565b6000613fc882611cb0565b9050613fd8816000846001613b0c565b613fe182611cb0565b600083815260046020908152604080832080547fffffffffffffffffffffffff000000000000000000000000000000000000000090811690915573ffffffffffffffffffffffffffffffffffffffff85168085526003845282852080547fffffffffffffffffffffffffffffffffffffffffffffffffffffffffffffffff0190558785526002909352818420805490911690555192935084927fddf252ad1be2c89b69c2b068fc378daa952ba7f163c4a11628f55a4df523b3ef908390a45050565b600073ffffffffffffffffffffffffffffffffffffffff84163b15614279578373ffffffffffffffffffffffffffffffffffffffff1663150b7a026140e661293e565b8786866040518563ffffffff1660e01b815260040161410894939291906155aa565b6020604051808303816000875af1925050508015614161575060408051601f3d9081017fffffffffffffffffffffffffffffffffffffffffffffffffffffffffffffffe016820190925261415e918101906155f3565b60015b61422e573d80801561418f576040519150601f19603f3d011682016040523d82523d6000602084013e614194565b606091505b508051600003614226576040517f08c379a000000000000000000000000000000000000000000000000000000000815260206004820152603260248201527f4552433732313a207472616e7366657220746f206e6f6e20455243373231526560448201527f63656976657220696d706c656d656e74657200000000000000000000000000006064820152608401610afd565b805181602001fd5b7fffffffff00000000000000000000000000000000000000000000000000000000167f150b7a0200000000000000000000000000000000000000000000000000000000149050612ecc565b506001949350505050565b6000807a184f03e93ff9f4daa797ed6e38ed64bf6a1f01000000000000000083106142cd577a184f03e93ff9f4daa797ed6e38ed64bf6a1f010000000000000000830492506040015b6d04ee2d6d415b85acef810000000083106142f9576d04ee2d6d415b85acef8100000000830492506020015b662386f26fc10000831061431757662386f26fc10000830492506010015b6305f5e100831061432f576305f5e100830492506008015b612710831061434357612710830492506004015b60648310614355576064830492506002015b600a8310610cca5760010192915050565b60018111156112e75773ffffffffffffffffffffffffffffffffffffffff8416156143c65773ffffffffffffffffffffffffffffffffffffffff8416600090815260036020526040812080548392906143c09084906150ef565b90915550505b73ffffffffffffffffffffffffffffffffffffffff8316156112e75773ffffffffffffffffffffffffffffffffffffffff831660009081526003602052604081208054839290614417908490615051565b909155505050505050565b6000600161442f84611ece565b61443991906150ef565b6000838152600760205260409020549091508082146144995773ffffffffffffffffffffffffffffffffffffffff841660009081526006602090815260408083208584528252808320548484528184208190558352600790915290208190555b50600091825260076020908152604080842084905573ffffffffffffffffffffffffffffffffffffffff9094168352600681528383209183525290812055565b6008546000906144eb906001906150ef565b6000838152600960205260408120546008805493945090928490811061451357614513615022565b90600052602060002001549050806008838154811061453457614534615022565b600091825260208083209091019290925582815260099091526040808220849055858252812055600880548061456c5761456c615610565b6001900381819060005260206000200160009055905550505050565b600061459383611ece565b73ffffffffffffffffffffffffffffffffffffffff9093166000908152600660209081526040808320868452825280832085905593825260079052919091209190915550565b803561ffff811681146145eb57600080fd5b919050565b7f4e487b7100000000000000000000000000000000000000000000000000000000600052604160045260246000fd5b604051601f82017fffffffffffffffffffffffffffffffffffffffffffffffffffffffffffffffe016810167ffffffffffffffff81118282101715614666576146666145f0565b604052919050565b600082601f83011261467f57600080fd5b813567ffffffffffffffff811115614699576146996145f0565b6146ca60207fffffffffffffffffffffffffffffffffffffffffffffffffffffffffffffffe0601f8401160161461f565b8181528460208386010111156146df57600080fd5b816020850160208301376000918101602001919091529392505050565b803567ffffffffffffffff811681146145eb57600080fd5b6000806000806080858703121561472a57600080fd5b614733856145d9565b9350602085013567ffffffffffffffff8082111561475057600080fd5b61475c8883890161466e565b945061476a604088016146fc565b9350606087013591508082111561478057600080fd5b5061478d8782880161466e565b91505092959194509250565b7fffffffff000000000000000000000000000000000000000000000000000000008116811461271257600080fd5b6000602082840312156147d957600080fd5b81356111e181614799565b73ffffffffffffffffffffffffffffffffffffffff8116811461271257600080fd5b6000806040838503121561481957600080fd5b8235614824816147e4565b946020939093013593505050565b60005b8381101561484d578181015183820152602001614835565b50506000910152565b6000815180845261486e816020860160208601614832565b601f017fffffffffffffffffffffffffffffffffffffffffffffffffffffffffffffffe0169290920160200192915050565b6020815260006111e16020830184614856565b6000602082840312156148c557600080fd5b5035919050565b600080604083850312156148df57600080fd5b82356148ea816147e4565b915060208301356148fa816147e4565b809150509250929050565b60006020828403121561491757600080fd5b81356111e1816147e4565b60008060006060848603121561493757600080fd5b8335614942816147e4565b92506020840135614952816147e4565b929592945050506040919091013590565b60008083601f84011261497557600080fd5b50813567ffffffffffffffff81111561498d57600080fd5b6020830191508360208260051b85010111156149a857600080fd5b9250929050565b600080600080606085870312156149c557600080fd5b84356149d0816147e4565b935060208501356149e0816147e4565b9250604085013567ffffffffffffffff8111156149fc57600080fd5b614a0887828801614963565b95989497509550505050565b60008083601f840112614a2657600080fd5b50813567ffffffffffffffff811115614a3e57600080fd5b6020830191508360208285010111156149a857600080fd5b801515811461271257600080fd5b600080600080600080600060a0888a031215614a7f57600080fd5b614a88886145d9565b96506020880135614a98816147e4565b9550604088013567ffffffffffffffff80821115614ab557600080fd5b614ac18b838c01614a14565b909750955060608a01359150614ad682614a56565b90935060808901359080821115614aec57600080fd5b50614af98a828b01614a14565b989b979a50959850939692959293505050565b60008060208385031215614b1f57600080fd5b823567ffffffffffffffff811115614b3657600080fd5b614b4285828601614a14565b90969095509350505050565b600080600060608486031215614b6357600080fd5b614b6c846145d9565b92506020840135614b7c816147e4565b91506040840135614b8c81614a56565b809150509250925092565b600080600060608486031215614bac57600080fd5b614bb5846145d9565b9250602084013567ffffffffffffffff811115614bd157600080fd5b614bdd8682870161466e565b925050614bec604085016146fc565b90509250925092565b600067ffffffffffffffff821115614c0f57614c0f6145f0565b5060051b60200190565b60008060008060808587031215614c2f57600080fd5b614c38856145d9565b935060208086013567ffffffffffffffff80821115614c5657600080fd5b614c6289838a0161466e565b955060408801359150614c74826147e4565b90935060608701359080821115614c8a57600080fd5b508601601f81018813614c9c57600080fd5b8035614caf614caa82614bf5565b61461f565b81815260059190911b8201830190838101908a831115614cce57600080fd5b928401925b82841015614cec57833582529284019290840190614cd3565b979a9699509497505050505050565b60008060008060008060808789031215614d1457600080fd5b614d1d876145d9565b9550602087013567ffffffffffffffff80821115614d3a57600080fd5b614d468a838b01614a14565b9097509550859150614d5a60408a016146fc565b94506060890135915080821115614d7057600080fd5b50614d7d89828a01614a14565b979a9699509497509295939492505050565b600080600060408486031215614da457600080fd5b8335614daf816147e4565b9250602084013567ffffffffffffffff811115614dcb57600080fd5b614dd786828701614963565b9497909650939450505050565b60008060408385031215614df757600080fd5b8235614e02816147e4565b915060208301356148fa81614a56565b60008060408385031215614e2557600080fd5b6148ea836145d9565b600081518084526020808501945080840160005b83811015614e5e57815187529582019590820190600101614e42565b509495945050505050565b6020815260006111e16020830184614e2e565b60008060008060808587031215614e9257600080fd5b8435614e9d816147e4565b93506020850135614ead816147e4565b925060408501359150606085013567ffffffffffffffff811115614ed057600080fd5b61478d8782880161466e565b7f4e487b7100000000000000000000000000000000000000000000000000000000600052601160045260246000fd5b8082028115828204841417610cca57610cca614edc565b600082614f58577f4e487b7100000000000000000000000000000000000000000000000000000000600052601260045260246000fd5b500490565b61ffff85168152608060208201526000614f7a6080830186614856565b67ffffffffffffffff851660408401528281036060840152614f9c8185614856565b979650505050505050565b60008251614fb9818460208701614832565b9190910192915050565b61ffff8616815260a060208201526000614fe060a0830187614856565b67ffffffffffffffff8616604084015282810360608401526150028186614856565b905082810360808401526150168185614856565b98975050505050505050565b7f4e487b7100000000000000000000000000000000000000000000000000000000600052603260045260246000fd5b80820180821115610cca57610cca614edc565b60007fffffffffffffffffffffffffffffffffffffffffffffffffffffffffffffffff820361509557615095614edc565b5060010190565b600181811c908216806150b057607f821691505b6020821081036150e9577f4e487b7100000000000000000000000000000000000000000000000000000000600052602260045260246000fd5b50919050565b81810381811115610cca57610cca614edc565b60006020828403121561511457600080fd5b81516111e181614a56565b8183528181602085013750600060208284010152600060207fffffffffffffffffffffffffffffffffffffffffffffffffffffffffffffffe0601f840116840101905092915050565b61ffff8816815273ffffffffffffffffffffffffffffffffffffffff8716602082015260a0604082015260006151a260a08301878961511f565b851515606084015282810360808401526151bd81858761511f565b9a9950505050505050505050565b600080604083850312156151de57600080fd5b505080516020909101519092909150565b601f82111561114157600081815260208120601f850160051c810160208610156152165750805b601f850160051c820191505b81811015610c6c57828155600101615222565b67ffffffffffffffff83111561524d5761524d6145f0565b6152618361525b835461509c565b836151ef565b6000601f8411600181146152b3576000851561527d5750838201355b7fffffffffffffffffffffffffffffffffffffffffffffffffffffffffffffffff600387901b1c1916600186901b178355611637565b6000838152602090207fffffffffffffffffffffffffffffffffffffffffffffffffffffffffffffffe0861690835b8281101561530257868501358255602094850194600190920191016152e2565b508682101561533d577fffffffffffffffffffffffffffffffffffffffffffffffffffffffffffffffff60f88860031b161c19848701351681555b505060018560011b0183555050505050565b73ffffffffffffffffffffffffffffffffffffffff83168152604060208201526000612ecc6040830184614e2e565b61ffff8616815273ffffffffffffffffffffffffffffffffffffffff8516602082015260a0604082015260006153b760a0830186614856565b841515606084015282810360808401526150168185614856565b61ffff8716815260c0602082015260006153ee60c0830188614856565b82810360408401526154008188614856565b73ffffffffffffffffffffffffffffffffffffffff87811660608601528616608085015283810360a085015290506154388185614856565b9998505050505050505050565b60008351615457818460208801614832565b83519083019061546b818360208801614832565b01949350505050565b8183823760009101908152919050565b61ffff861681526080602082015260006154a260808301868861511f565b67ffffffffffffffff94909416604083015250606001529392505050565b600080604083850312156154d357600080fd5b82516154de816147e4565b8092505060208084015167ffffffffffffffff8111156154fd57600080fd5b8401601f8101861361550e57600080fd5b805161551c614caa82614bf5565b81815260059190911b8201830190838101908883111561553b57600080fd5b928401925b8284101561555957835182529284019290840190615540565b80955050505050509250929050565b61ffff8416815273ffffffffffffffffffffffffffffffffffffffff831660208201526060604082015260006155a16060830184614e2e565b95945050505050565b600073ffffffffffffffffffffffffffffffffffffffff8087168352808616602084015250836040830152608060608301526155e96080830184614856565b9695505050505050565b60006020828403121561560557600080fd5b81516111e181614799565b7f4e487b7100000000000000000000000000000000000000000000000000000000600052603160045260246000fdfea2646970667358221220c5e576b42469966f54710a336dae2e30326665dcbdd8f29c78bb2df49ba99d2164736f6c63430008110033",
  "devdoc": {
    "kind": "dev",
    "methods": {
      "approve(address,uint256)": {
        "details": "See {IERC721-approve}."
      },
      "balanceOf(address)": {
        "details": "See {IERC721-balanceOf}."
      },
      "getApproved(uint256)": {
        "details": "See {IERC721-getApproved}."
      },
      "isApprovedForAll(address,address)": {
        "details": "See {IERC721-isApprovedForAll}."
      },
      "name()": {
        "details": "See {IERC721Metadata-name}."
      },
      "owner()": {
        "details": "Returns the address of the current owner."
      },
      "ownerOf(uint256)": {
        "details": "See {IERC721-ownerOf}."
      },
      "renounceOwnership()": {
        "details": "Leaves the contract without owner. It will not be possible to call `onlyOwner` functions anymore. Can only be called by the current owner. NOTE: Renouncing ownership will leave the contract without an owner, thereby removing any functionality that is only available to the owner."
      },
      "safeTransferFrom(address,address,uint256)": {
        "details": "See {IERC721-safeTransferFrom}."
      },
      "safeTransferFrom(address,address,uint256,bytes)": {
        "details": "See {IERC721-safeTransferFrom}."
      },
      "setApprovalForAll(address,bool)": {
        "details": "See {IERC721-setApprovalForAll}."
      },
      "supportsInterface(bytes4)": {
        "details": "See {IERC165-supportsInterface}."
      },
      "symbol()": {
        "details": "See {IERC721Metadata-symbol}."
      },
      "tokenByIndex(uint256)": {
        "details": "See {IERC721Enumerable-tokenByIndex}."
      },
      "tokenOfOwnerByIndex(address,uint256)": {
        "details": "See {IERC721Enumerable-tokenOfOwnerByIndex}."
      },
      "tokenURI(uint256)": {
        "details": "See {IERC721Metadata-tokenURI}."
      },
      "totalSupply()": {
        "details": "See {IERC721Enumerable-totalSupply}."
      },
      "transferFrom(address,address,uint256)": {
        "details": "See {IERC721-transferFrom}."
      },
      "transferOwnership(address)": {
        "details": "Transfers ownership of the contract to a new account (`newOwner`). Can only be called by the current owner."
      }
    },
    "version": 1
  },
  "userdoc": {
    "kind": "user",
    "methods": {},
    "version": 1
  },
  "storageLayout": {
    "storage": [
      {
        "astId": 2605,
        "contract": "contracts/GovNFTBridged.sol:GovNFTBridged",
        "label": "_name",
        "offset": 0,
        "slot": "0",
        "type": "t_string_storage"
      },
      {
        "astId": 2607,
        "contract": "contracts/GovNFTBridged.sol:GovNFTBridged",
        "label": "_symbol",
        "offset": 0,
        "slot": "1",
        "type": "t_string_storage"
      },
      {
        "astId": 2611,
        "contract": "contracts/GovNFTBridged.sol:GovNFTBridged",
        "label": "_owners",
        "offset": 0,
        "slot": "2",
        "type": "t_mapping(t_uint256,t_address)"
      },
      {
        "astId": 2615,
        "contract": "contracts/GovNFTBridged.sol:GovNFTBridged",
        "label": "_balances",
        "offset": 0,
        "slot": "3",
        "type": "t_mapping(t_address,t_uint256)"
      },
      {
        "astId": 2619,
        "contract": "contracts/GovNFTBridged.sol:GovNFTBridged",
        "label": "_tokenApprovals",
        "offset": 0,
        "slot": "4",
        "type": "t_mapping(t_uint256,t_address)"
      },
      {
        "astId": 2625,
        "contract": "contracts/GovNFTBridged.sol:GovNFTBridged",
        "label": "_operatorApprovals",
        "offset": 0,
        "slot": "5",
        "type": "t_mapping(t_address,t_mapping(t_address,t_bool))"
      },
      {
        "astId": 3673,
        "contract": "contracts/GovNFTBridged.sol:GovNFTBridged",
        "label": "_ownedTokens",
        "offset": 0,
        "slot": "6",
        "type": "t_mapping(t_address,t_mapping(t_uint256,t_uint256))"
      },
      {
        "astId": 3677,
        "contract": "contracts/GovNFTBridged.sol:GovNFTBridged",
        "label": "_ownedTokensIndex",
        "offset": 0,
        "slot": "7",
        "type": "t_mapping(t_uint256,t_uint256)"
      },
      {
        "astId": 3680,
        "contract": "contracts/GovNFTBridged.sol:GovNFTBridged",
        "label": "_allTokens",
        "offset": 0,
        "slot": "8",
        "type": "t_array(t_uint256)dyn_storage"
      },
      {
        "astId": 3684,
        "contract": "contracts/GovNFTBridged.sol:GovNFTBridged",
        "label": "_allTokensIndex",
        "offset": 0,
        "slot": "9",
        "type": "t_mapping(t_uint256,t_uint256)"
      },
      {
        "astId": 396,
        "contract": "contracts/GovNFTBridged.sol:GovNFTBridged",
        "label": "_owner",
        "offset": 0,
        "slot": "10",
        "type": "t_address"
      },
      {
        "astId": 18509,
        "contract": "contracts/GovNFTBridged.sol:GovNFTBridged",
        "label": "_isTrustedForwarder",
        "offset": 0,
        "slot": "11",
        "type": "t_mapping(t_address,t_bool)"
      },
      {
        "astId": 8697,
        "contract": "contracts/GovNFTBridged.sol:GovNFTBridged",
        "label": "gas",
        "offset": 0,
        "slot": "12",
        "type": "t_uint256"
      },
      {
        "astId": 8699,
        "contract": "contracts/GovNFTBridged.sol:GovNFTBridged",
        "label": "baseURI",
        "offset": 0,
        "slot": "13",
        "type": "t_string_storage"
      },
      {
        "astId": 8702,
        "contract": "contracts/GovNFTBridged.sol:GovNFTBridged",
        "label": "maxBridge",
        "offset": 0,
        "slot": "14",
        "type": "t_uint256"
      },
      {
        "astId": 8705,
        "contract": "contracts/GovNFTBridged.sol:GovNFTBridged",
        "label": "endpoint",
        "offset": 0,
        "slot": "15",
        "type": "t_contract(ILayerZeroEndpoint)15460"
      },
      {
        "astId": 8711,
        "contract": "contracts/GovNFTBridged.sol:GovNFTBridged",
        "label": "isTrustedAddress",
        "offset": 0,
        "slot": "16",
        "type": "t_mapping(t_uint16,t_mapping(t_address,t_bool))"
      },
      {
        "astId": 8719,
        "contract": "contracts/GovNFTBridged.sol:GovNFTBridged",
        "label": "failedMessages",
        "offset": 0,
        "slot": "17",
        "type": "t_mapping(t_uint16,t_mapping(t_bytes_memory_ptr,t_mapping(t_uint64,t_bytes32)))"
      },
      {
        "astId": 9620,
        "contract": "contracts/GovNFTBridged.sol:GovNFTBridged",
        "label": "assets",
        "offset": 0,
        "slot": "18",
        "type": "t_array(t_address)dyn_storage"
      },
      {
        "astId": 9624,
        "contract": "contracts/GovNFTBridged.sol:GovNFTBridged",
        "label": "_allowedAsset",
        "offset": 0,
        "slot": "19",
        "type": "t_mapping(t_address,t_bool)"
      },
      {
        "astId": 9628,
        "contract": "contracts/GovNFTBridged.sol:GovNFTBridged",
        "label": "assetsIndex",
        "offset": 0,
        "slot": "20",
        "type": "t_mapping(t_address,t_uint256)"
      },
      {
        "astId": 9634,
        "contract": "contracts/GovNFTBridged.sol:GovNFTBridged",
        "label": "userPaid",
        "offset": 0,
        "slot": "21",
        "type": "t_mapping(t_address,t_mapping(t_address,t_uint256))"
      },
      {
        "astId": 9640,
        "contract": "contracts/GovNFTBridged.sol:GovNFTBridged",
        "label": "userDebt",
        "offset": 0,
        "slot": "22",
        "type": "t_mapping(t_address,t_mapping(t_address,t_uint256))"
      },
      {
        "astId": 9644,
        "contract": "contracts/GovNFTBridged.sol:GovNFTBridged",
        "label": "accRewardsPerNFT",
        "offset": 0,
        "slot": "23",
        "type": "t_mapping(t_address,t_uint256)"
      }
    ],
    "types": {
      "t_address": {
        "encoding": "inplace",
        "label": "address",
        "numberOfBytes": "20"
      },
      "t_array(t_address)dyn_storage": {
        "base": "t_address",
        "encoding": "dynamic_array",
        "label": "address[]",
        "numberOfBytes": "32"
      },
      "t_array(t_uint256)dyn_storage": {
        "base": "t_uint256",
        "encoding": "dynamic_array",
        "label": "uint256[]",
        "numberOfBytes": "32"
      },
      "t_bool": {
        "encoding": "inplace",
        "label": "bool",
        "numberOfBytes": "1"
      },
      "t_bytes32": {
        "encoding": "inplace",
        "label": "bytes32",
        "numberOfBytes": "32"
      },
      "t_bytes_memory_ptr": {
        "encoding": "bytes",
        "label": "bytes",
        "numberOfBytes": "32"
      },
      "t_contract(ILayerZeroEndpoint)15460": {
        "encoding": "inplace",
        "label": "contract ILayerZeroEndpoint",
        "numberOfBytes": "20"
      },
      "t_mapping(t_address,t_bool)": {
        "encoding": "mapping",
        "key": "t_address",
        "label": "mapping(address => bool)",
        "numberOfBytes": "32",
        "value": "t_bool"
      },
      "t_mapping(t_address,t_mapping(t_address,t_bool))": {
        "encoding": "mapping",
        "key": "t_address",
        "label": "mapping(address => mapping(address => bool))",
        "numberOfBytes": "32",
        "value": "t_mapping(t_address,t_bool)"
      },
      "t_mapping(t_address,t_mapping(t_address,t_uint256))": {
        "encoding": "mapping",
        "key": "t_address",
        "label": "mapping(address => mapping(address => uint256))",
        "numberOfBytes": "32",
        "value": "t_mapping(t_address,t_uint256)"
      },
      "t_mapping(t_address,t_mapping(t_uint256,t_uint256))": {
        "encoding": "mapping",
        "key": "t_address",
        "label": "mapping(address => mapping(uint256 => uint256))",
        "numberOfBytes": "32",
        "value": "t_mapping(t_uint256,t_uint256)"
      },
      "t_mapping(t_address,t_uint256)": {
        "encoding": "mapping",
        "key": "t_address",
        "label": "mapping(address => uint256)",
        "numberOfBytes": "32",
        "value": "t_uint256"
      },
      "t_mapping(t_bytes_memory_ptr,t_mapping(t_uint64,t_bytes32))": {
        "encoding": "mapping",
        "key": "t_bytes_memory_ptr",
        "label": "mapping(bytes => mapping(uint64 => bytes32))",
        "numberOfBytes": "32",
        "value": "t_mapping(t_uint64,t_bytes32)"
      },
      "t_mapping(t_uint16,t_mapping(t_address,t_bool))": {
        "encoding": "mapping",
        "key": "t_uint16",
        "label": "mapping(uint16 => mapping(address => bool))",
        "numberOfBytes": "32",
        "value": "t_mapping(t_address,t_bool)"
      },
      "t_mapping(t_uint16,t_mapping(t_bytes_memory_ptr,t_mapping(t_uint64,t_bytes32)))": {
        "encoding": "mapping",
        "key": "t_uint16",
        "label": "mapping(uint16 => mapping(bytes => mapping(uint64 => bytes32)))",
        "numberOfBytes": "32",
        "value": "t_mapping(t_bytes_memory_ptr,t_mapping(t_uint64,t_bytes32))"
      },
      "t_mapping(t_uint256,t_address)": {
        "encoding": "mapping",
        "key": "t_uint256",
        "label": "mapping(uint256 => address)",
        "numberOfBytes": "32",
        "value": "t_address"
      },
      "t_mapping(t_uint256,t_uint256)": {
        "encoding": "mapping",
        "key": "t_uint256",
        "label": "mapping(uint256 => uint256)",
        "numberOfBytes": "32",
        "value": "t_uint256"
      },
      "t_mapping(t_uint64,t_bytes32)": {
        "encoding": "mapping",
        "key": "t_uint64",
        "label": "mapping(uint64 => bytes32)",
        "numberOfBytes": "32",
        "value": "t_bytes32"
      },
      "t_string_storage": {
        "encoding": "bytes",
        "label": "string",
        "numberOfBytes": "32"
      },
      "t_uint16": {
        "encoding": "inplace",
        "label": "uint16",
        "numberOfBytes": "2"
      },
      "t_uint256": {
        "encoding": "inplace",
        "label": "uint256",
        "numberOfBytes": "32"
      },
      "t_uint64": {
        "encoding": "inplace",
        "label": "uint64",
        "numberOfBytes": "8"
      }
    }
  }
}