{
  "address": "0x08046aBBe9631089A4dCb15bBa24d1021B77E785",
  "abi": [
    {
      "inputs": [
        {
          "internalType": "address",
          "name": "_positions",
          "type": "address"
        },
        {
          "internalType": "uint256",
          "name": "_id",
          "type": "uint256"
        },
        {
          "internalType": "uint256",
          "name": "_liqPercent",
          "type": "uint256"
        }
      ],
      "name": "getLiqPrice",
      "outputs": [
        {
          "internalType": "uint256",
          "name": "",
          "type": "uint256"
        }
      ],
      "stateMutability": "view",
      "type": "function"
    },
    {
      "inputs": [
        {
          "internalType": "bool",
          "name": "_direction",
          "type": "bool"
        },
        {
          "internalType": "uint256",
          "name": "_tradePrice",
          "type": "uint256"
        },
        {
          "internalType": "uint256",
          "name": "_leverage",
          "type": "uint256"
        },
        {
          "internalType": "uint256",
          "name": "_margin",
          "type": "uint256"
        },
        {
          "internalType": "int256",
          "name": "_accInterest",
          "type": "int256"
        },
        {
          "internalType": "uint256",
          "name": "_liqPercent",
          "type": "uint256"
        }
      ],
      "name": "liqPrice",
      "outputs": [
        {
          "internalType": "uint256",
          "name": "_liqPrice",
          "type": "uint256"
        }
      ],
      "stateMutability": "pure",
      "type": "function"
    },
    {
      "inputs": [
        {
          "internalType": "bool",
          "name": "_direction",
          "type": "bool"
        },
        {
          "internalType": "uint256",
          "name": "_currentPrice",
          "type": "uint256"
        },
        {
          "internalType": "uint256",
          "name": "_price",
          "type": "uint256"
        },
        {
          "internalType": "uint256",
          "name": "_margin",
          "type": "uint256"
        },
        {
          "internalType": "uint256",
          "name": "_leverage",
          "type": "uint256"
        },
        {
          "internalType": "int256",
          "name": "accInterest",
          "type": "int256"
        }
      ],
      "name": "pnl",
      "outputs": [
        {
          "internalType": "uint256",
          "name": "_positionSize",
          "type": "uint256"
        },
        {
          "internalType": "int256",
          "name": "_payout",
          "type": "int256"
        }
      ],
      "stateMutability": "pure",
      "type": "function"
    }
  ],
  "transactionHash": "0xef1890679f48b291918976abe340a02bdb91eb923dc81ea3f704336966d2f6b6",
  "args": [],
  "numDeployments": 1,
  "solcInputHash": "74f3eb32db9fedf4547f8e727546c2c4",
  "bytecode": "0x61133e61003a600b82828239805160001a60731461002d57634e487b7160e01b600052600060045260246000fd5b30600052607381538281f3fe73000000000000000000000000000000000000000030146080604052600436106100565760003560e01c806326d4e7751461005b578063360e8043146100815780633b8b0d65146100a9578063d63b3c7b146100be575b600080fd5b61006e610069366004610d4b565b6100d1565b6040519081526020015b60405180910390f35b61009461008f366004610d8e565b610194565b60408051928352602083019190915201610078565b6100bc6100b7366004610dda565b6102fb565b005b61006e6100cc366004610d8e565b61093b565b6040517f1e6c598e00000000000000000000000000000000000000000000000000000000815260048101839052600090819073ffffffffffffffffffffffffffffffffffffffff861690631e6c598e9060240161018060405180830381865afa158015610142573d6000803e3d6000fd5b505050506040513d601f19601f820116820180604052508101906101669190610f38565b905061018b81606001518260800151836020015184600001518561016001518861093b565b95945050505050565b600080670de0b6b3a7640000848602048880156101b15750868810155b156101f65783670de0b6b3a764000080898b670de0b6b3a764000002816101da576101da610fe7565b04038302816101eb576101eb610fe7565b0487010191506102db565b88801561020257508688105b1561024f5783670de0b6b3a7640000888a670de0b6b3a7640000028161022a5761022a610fe7565b04670de0b6b3a76400000383028161024457610244610fe7565b0487030191506102db565b8815801561025d5750868811155b1561029f5783670de0b6b3a7640000888a670de0b6b3a7640000028161028557610285610fe7565b04670de0b6b3a7640000038302816101eb576101eb610fe7565b83670de0b6b3a764000080898b670de0b6b3a764000002816102c3576102c3610fe7565b04038302816102d4576102d4610fe7565b0487030191505b86888202816102ec576102ec610fe7565b04925050965096945050505050565b60006103cf84848080601f016020809104026020016040519081016040528093929190818152602001838380828437600092019190915250506040516103c9925061034b91508990602001611016565b604080517fffffffffffffffffffffffffffffffffffffffffffffffffffffffffffffffe081840301815282825280516020918201207f19457468657265756d205369676e6564204d6573736167653a0a33320000000084830152603c8085019190915282518085039091018152605c909301909152815191012090565b90610a19565b90506103de6020860186611084565b73ffffffffffffffffffffffffffffffffffffffff168173ffffffffffffffffffffffffffffffffffffffff1614610477576040517f08c379a000000000000000000000000000000000000000000000000000000000815260206004820152600660248201527f426164536967000000000000000000000000000000000000000000000000000060448201526064015b60405180910390fd5b73ffffffffffffffffffffffffffffffffffffffff811660009081526020839052604090205460ff16610506576040517f08c379a000000000000000000000000000000000000000000000000000000000815260206004820152600560248201527f214e6f6465000000000000000000000000000000000000000000000000000000604482015260640161046e565b84602001358814610573576040517f08c379a000000000000000000000000000000000000000000000000000000000815260206004820152600660248201527f2141737365740000000000000000000000000000000000000000000000000000604482015260640161046e565b61058360c0860160a087016110a8565b156105ea576040517f08c379a000000000000000000000000000000000000000000000000000000000815260206004820152600660248201527f436c6f7365640000000000000000000000000000000000000000000000000000604482015260640161046e565b8460800135421015610658576040517f08c379a000000000000000000000000000000000000000000000000000000000815260206004820152600660248201527f4675745369670000000000000000000000000000000000000000000000000000604482015260640161046e565b6106668960808701356110f4565b4211156106cf576040517f08c379a000000000000000000000000000000000000000000000000000000000815260206004820152600660248201527f4578705369670000000000000000000000000000000000000000000000000000604482015260640161046e565b600085604001351161073d576040517f08c379a000000000000000000000000000000000000000000000000000000000815260206004820152600760248201527f4e6f507269636500000000000000000000000000000000000000000000000000604482015260640161046e565b86801561075f575073ffffffffffffffffffffffffffffffffffffffff861615155b156109305760008673ffffffffffffffffffffffffffffffffffffffff166350d25bcd6040518163ffffffff1660e01b8152600401602060405180830381865afa1580156107b1573d6000803e3d6000fd5b505050506040513d601f19601f820116820180604052508101906107d59190611107565b9050801561092e5760008773ffffffffffffffffffffffffffffffffffffffff1663313ce5676040518163ffffffff1660e01b8152600401602060405180830381865afa15801561082a573d6000803e3d6000fd5b505050506040513d601f19601f8201168201806040525081019061084e9190611107565b610859906012611120565b61086490600a611253565b61086e908361125f565b9050606461087d82600261125f565b6108879190611276565b61089190826110f4565b87604001351080156108c6575060646108ab82600261125f565b6108b59190611276565b6108bf9082611120565b8760400135115b61092c576040517f08c379a000000000000000000000000000000000000000000000000000000000815260206004820152600f60248201527f21636861696e6c696e6b50726963650000000000000000000000000000000000604482015260640161046e565b505b505b505050505050505050565b600086156109ab576402540be400828561095586826112b1565b886109688b670de0b6b3a764000061125f565b6109729190611276565b61097c919061125f565b6109869190611276565b610990919061125f565b61099a9190611276565b6109a49087611120565b9050610a0f565b6402540be40082856109bd86826112b1565b886109d08b670de0b6b3a764000061125f565b6109da9190611276565b6109e4919061125f565b6109ee9190611276565b6109f8919061125f565b610a029190611276565b610a0c90876110f4565b90505b9695505050505050565b6000806000610a288585610a3f565b91509150610a3581610a84565b5090505b92915050565b6000808251604103610a755760208301516040840151606085015160001a610a6987828585610c3a565b94509450505050610a7d565b506000905060025b9250929050565b6000816004811115610a9857610a986112d9565b03610aa05750565b6001816004811115610ab457610ab46112d9565b03610b1b576040517f08c379a000000000000000000000000000000000000000000000000000000000815260206004820152601860248201527f45434453413a20696e76616c6964207369676e61747572650000000000000000604482015260640161046e565b6002816004811115610b2f57610b2f6112d9565b03610b96576040517f08c379a000000000000000000000000000000000000000000000000000000000815260206004820152601f60248201527f45434453413a20696e76616c6964207369676e6174757265206c656e67746800604482015260640161046e565b6003816004811115610baa57610baa6112d9565b03610c37576040517f08c379a000000000000000000000000000000000000000000000000000000000815260206004820152602260248201527f45434453413a20696e76616c6964207369676e6174757265202773272076616c60448201527f7565000000000000000000000000000000000000000000000000000000000000606482015260840161046e565b50565b6000807f7fffffffffffffffffffffffffffffff5d576e7357a4501ddfe92f46681b20a0831115610c715750600090506003610d20565b6040805160008082526020820180845289905260ff881692820192909252606081018690526080810185905260019060a0016020604051602081039080840390855afa158015610cc5573d6000803e3d6000fd5b50506040517fffffffffffffffffffffffffffffffffffffffffffffffffffffffffffffffe0015191505073ffffffffffffffffffffffffffffffffffffffff8116610d1957600060019250925050610d20565b9150600090505b94509492505050565b73ffffffffffffffffffffffffffffffffffffffff81168114610c3757600080fd5b600080600060608486031215610d6057600080fd5b8335610d6b81610d29565b95602085013595506040909401359392505050565b8015158114610c3757600080fd5b60008060008060008060c08789031215610da757600080fd5b8635610db281610d80565b9860208801359850604088013597606081013597506080810135965060a00135945092505050565b600080600080600080600080888a03610180811215610df857600080fd5b8935985060208a0135975060408a0135610e1181610d80565b965060608a0135610e2181610d29565b955060c07fffffffffffffffffffffffffffffffffffffffffffffffffffffffffffffff8082011215610e5357600080fd5b5060808901935061014089013567ffffffffffffffff80821115610e7657600080fd5b818b0191508b601f830112610e8a57600080fd5b813581811115610e9957600080fd5b8c6020828501011115610eab57600080fd5b60208301955080945050505061016089013590509295985092959890939650565b604051610180810167ffffffffffffffff81118282101715610f17577f4e487b7100000000000000000000000000000000000000000000000000000000600052604160045260246000fd5b60405290565b8051610f2881610d80565b919050565b8051610f2881610d29565b60006101808284031215610f4b57600080fd5b610f53610ecc565b825181526020830151602082015260408301516040820152610f7760608401610f1d565b60608201526080830151608082015260a083015160a082015260c083015160c082015260e083015160e0820152610100610fb2818501610f2d565b908201526101208381015190820152610140610fcf818501610f2d565b90820152610160928301519281019290925250919050565b7f4e487b7100000000000000000000000000000000000000000000000000000000600052601260045260246000fd5b60c08101823561102581610d29565b73ffffffffffffffffffffffffffffffffffffffff81168352506020830135602083015260408301356040830152606083013560608301526080830135608083015260a083013561107581610d80565b80151560a08401525092915050565b60006020828403121561109657600080fd5b81356110a181610d29565b9392505050565b6000602082840312156110ba57600080fd5b81356110a181610d80565b7f4e487b7100000000000000000000000000000000000000000000000000000000600052601160045260246000fd5b80820180821115610a3957610a396110c5565b60006020828403121561111957600080fd5b5051919050565b81810381811115610a3957610a396110c5565b600181815b8085111561118c57817fffffffffffffffffffffffffffffffffffffffffffffffffffffffffffffffff04821115611172576111726110c5565b8085161561117f57918102915b93841c9390800290611138565b509250929050565b6000826111a357506001610a39565b816111b057506000610a39565b81600181146111c657600281146111d0576111ec565b6001915050610a39565b60ff8411156111e1576111e16110c5565b50506001821b610a39565b5060208310610133831016604e8410600b841016171561120f575081810a610a39565b6112198383611133565b807fffffffffffffffffffffffffffffffffffffffffffffffffffffffffffffffff0482111561124b5761124b6110c5565b029392505050565b60006110a18383611194565b8082028115828204841417610a3957610a396110c5565b6000826112ac577f4e487b7100000000000000000000000000000000000000000000000000000000600052601260045260246000fd5b500490565b80820182811260008312801582168215821617156112d1576112d16110c5565b505092915050565b7f4e487b7100000000000000000000000000000000000000000000000000000000600052602160045260246000fdfea2646970667358221220f272cb2bad5212b528c09201646105352f783a5c2f1537a0983d69cc5c77755664736f6c63430008110033",
  "devdoc": {
    "kind": "dev",
    "methods": {},
    "version": 1
  },
  "userdoc": {
    "kind": "user",
    "methods": {},
    "version": 1
  },
  "storageLayout": {
    "storage": [],
    "types": null
  }
}