{
  "address": "0x0809b4d180e1b8933Eb0722253F16D010097ea65",
  "abi": [
    {
      "inputs": [
        {
          "internalType": "address",
          "name": "_trading",
          "type": "address"
        },
        {
          "internalType": "address",
          "name": "_pairsContract",
          "type": "address"
        },
        {
          "internalType": "address",
          "name": "_ref",
          "type": "address"
        },
        {
          "internalType": "address",
          "name": "_position",
          "type": "address"
        }
      ],
      "stateMutability": "nonpayable",
      "type": "constructor"
    },
    {
      "anonymous": false,
      "inputs": [
        {
          "indexed": true,
          "internalType": "address",
          "name": "previousOwner",
          "type": "address"
        },
        {
          "indexed": true,
          "internalType": "address",
          "name": "newOwner",
          "type": "address"
        }
      ],
      "name": "OwnershipTransferred",
      "type": "event"
    },
    {
      "inputs": [],
      "name": "_checkGas",
      "outputs": [],
      "stateMutability": "view",
      "type": "function"
    },
    {
      "inputs": [
        {
          "internalType": "uint256",
          "name": "_id",
          "type": "uint256"
        },
        {
          "internalType": "uint256",
          "name": "_price",
          "type": "uint256"
        },
        {
          "internalType": "uint256",
          "name": "_percent",
          "type": "uint256"
        }
      ],
      "name": "_closePosition",
      "outputs": [
        {
          "components": [
            {
              "internalType": "uint256",
              "name": "margin",
              "type": "uint256"
            },
            {
              "internalType": "uint256",
              "name": "leverage",
              "type": "uint256"
            },
            {
              "internalType": "uint256",
              "name": "asset",
              "type": "uint256"
            },
            {
              "internalType": "bool",
              "name": "direction",
              "type": "bool"
            },
            {
              "internalType": "uint256",
              "name": "price",
              "type": "uint256"
            },
            {
              "internalType": "uint256",
              "name": "tpPrice",
              "type": "uint256"
            },
            {
              "internalType": "uint256",
              "name": "slPrice",
              "type": "uint256"
            },
            {
              "internalType": "uint256",
              "name": "orderType",
              "type": "uint256"
            },
            {
              "internalType": "address",
              "name": "trader",
              "type": "address"
            },
            {
              "internalType": "uint256",
              "name": "id",
              "type": "uint256"
            },
            {
              "internalType": "address",
              "name": "tigAsset",
              "type": "address"
            },
            {
              "internalType": "int256",
              "name": "accInterest",
              "type": "int256"
            }
          ],
          "internalType": "struct IPosition.Trade",
          "name": "_trade",
          "type": "tuple"
        },
        {
          "internalType": "uint256",
          "name": "_positionSize",
          "type": "uint256"
        },
        {
          "internalType": "int256",
          "name": "_payout",
          "type": "int256"
        }
      ],
      "stateMutability": "nonpayable",
      "type": "function"
    },
    {
      "inputs": [
        {
          "internalType": "uint256",
          "name": "_id",
          "type": "uint256"
        },
        {
          "internalType": "bool",
          "name": "_tp",
          "type": "bool"
        },
        {
          "components": [
            {
              "internalType": "address",
              "name": "provider",
              "type": "address"
            },
            {
              "internalType": "uint256",
              "name": "asset",
              "type": "uint256"
            },
            {
              "internalType": "uint256",
              "name": "price",
              "type": "uint256"
            },
            {
              "internalType": "uint256",
              "name": "spread",
              "type": "uint256"
            },
            {
              "internalType": "uint256",
              "name": "timestamp",
              "type": "uint256"
            },
            {
              "internalType": "bool",
              "name": "isClosed",
              "type": "bool"
            }
          ],
          "internalType": "struct PriceData",
          "name": "_priceData",
          "type": "tuple"
        },
        {
          "internalType": "bytes",
          "name": "_signature",
          "type": "bytes"
        }
      ],
      "name": "_limitClose",
      "outputs": [
        {
          "internalType": "uint256",
          "name": "_limitPrice",
          "type": "uint256"
        },
        {
          "internalType": "address",
          "name": "_tigAsset",
          "type": "address"
        }
      ],
      "stateMutability": "view",
      "type": "function"
    },
    {
      "inputs": [
        {
          "internalType": "bytes32",
          "name": "_referral",
          "type": "bytes32"
        },
        {
          "internalType": "address",
          "name": "_trader",
          "type": "address"
        }
      ],
      "name": "_setReferral",
      "outputs": [],
      "stateMutability": "nonpayable",
      "type": "function"
    },
    {
      "inputs": [
        {
          "internalType": "address",
          "name": "",
          "type": "address"
        }
      ],
      "name": "allowedMargin",
      "outputs": [
        {
          "internalType": "bool",
          "name": "",
          "type": "bool"
        }
      ],
      "stateMutability": "view",
      "type": "function"
    },
    {
      "inputs": [],
      "name": "chainlinkEnabled",
      "outputs": [
        {
          "internalType": "bool",
          "name": "",
          "type": "bool"
        }
      ],
      "stateMutability": "view",
      "type": "function"
    },
    {
      "inputs": [
        {
          "internalType": "address",
          "name": "_trader",
          "type": "address"
        }
      ],
      "name": "getRef",
      "outputs": [
        {
          "internalType": "address",
          "name": "",
          "type": "address"
        }
      ],
      "stateMutability": "view",
      "type": "function"
    },
    {
      "inputs": [
        {
          "internalType": "uint256",
          "name": "_asset",
          "type": "uint256"
        },
        {
          "components": [
            {
              "internalType": "address",
              "name": "provider",
              "type": "address"
            },
            {
              "internalType": "uint256",
              "name": "asset",
              "type": "uint256"
            },
            {
              "internalType": "uint256",
              "name": "price",
              "type": "uint256"
            },
            {
              "internalType": "uint256",
              "name": "spread",
              "type": "uint256"
            },
            {
              "internalType": "uint256",
              "name": "timestamp",
              "type": "uint256"
            },
            {
              "internalType": "bool",
              "name": "isClosed",
              "type": "bool"
            }
          ],
          "internalType": "struct PriceData",
          "name": "_priceData",
          "type": "tuple"
        },
        {
          "internalType": "bytes",
          "name": "_signature",
          "type": "bytes"
        },
        {
          "internalType": "uint256",
          "name": "_withSpreadIsLong",
          "type": "uint256"
        }
      ],
      "name": "getVerifiedPrice",
      "outputs": [
        {
          "internalType": "uint256",
          "name": "_price",
          "type": "uint256"
        },
        {
          "internalType": "uint256",
          "name": "_spread",
          "type": "uint256"
        }
      ],
      "stateMutability": "view",
      "type": "function"
    },
    {
      "inputs": [],
      "name": "maxGasPrice",
      "outputs": [
        {
          "internalType": "uint256",
          "name": "",
          "type": "uint256"
        }
      ],
      "stateMutability": "view",
      "type": "function"
    },
    {
      "inputs": [
        {
          "internalType": "address",
          "name": "_asset",
          "type": "address"
        }
      ],
      "name": "minPos",
      "outputs": [
        {
          "internalType": "uint256",
          "name": "",
          "type": "uint256"
        }
      ],
      "stateMutability": "view",
      "type": "function"
    },
    {
      "inputs": [
        {
          "internalType": "address",
          "name": "",
          "type": "address"
        }
      ],
      "name": "minPositionSize",
      "outputs": [
        {
          "internalType": "uint256",
          "name": "",
          "type": "uint256"
        }
      ],
      "stateMutability": "view",
      "type": "function"
    },
    {
      "inputs": [
        {
          "internalType": "uint256",
          "name": "_asset",
          "type": "uint256"
        },
        {
          "internalType": "address",
          "name": "_tigAsset",
          "type": "address"
        },
        {
          "internalType": "bool",
          "name": "_onOpen",
          "type": "bool"
        },
        {
          "internalType": "uint256",
          "name": "_size",
          "type": "uint256"
        }
      ],
      "name": "modifyLongOi",
      "outputs": [],
      "stateMutability": "nonpayable",
      "type": "function"
    },
    {
      "inputs": [
        {
          "internalType": "uint256",
          "name": "_asset",
          "type": "uint256"
        },
        {
          "internalType": "address",
          "name": "_tigAsset",
          "type": "address"
        },
        {
          "internalType": "bool",
          "name": "_onOpen",
          "type": "bool"
        },
        {
          "internalType": "uint256",
          "name": "_size",
          "type": "uint256"
        }
      ],
      "name": "modifyShortOi",
      "outputs": [],
      "stateMutability": "nonpayable",
      "type": "function"
    },
    {
      "inputs": [],
      "name": "owner",
      "outputs": [
        {
          "internalType": "address",
          "name": "",
          "type": "address"
        }
      ],
      "stateMutability": "view",
      "type": "function"
    },
    {
      "inputs": [],
      "name": "paused",
      "outputs": [
        {
          "internalType": "bool",
          "name": "",
          "type": "bool"
        }
      ],
      "stateMutability": "view",
      "type": "function"
    },
    {
      "inputs": [],
      "name": "renounceOwnership",
      "outputs": [],
      "stateMutability": "nonpayable",
      "type": "function"
    },
    {
      "inputs": [
        {
          "internalType": "address",
          "name": "_tigAsset",
          "type": "address"
        },
        {
          "internalType": "bool",
          "name": "_bool",
          "type": "bool"
        }
      ],
      "name": "setAllowedMargin",
      "outputs": [],
      "stateMutability": "nonpayable",
      "type": "function"
    },
    {
      "inputs": [
        {
          "internalType": "bool",
          "name": "_bool",
          "type": "bool"
        }
      ],
      "name": "setChainlinkEnabled",
      "outputs": [],
      "stateMutability": "nonpayable",
      "type": "function"
    },
    {
      "inputs": [
        {
          "internalType": "uint256",
          "name": "_maxGasPrice",
          "type": "uint256"
        }
      ],
      "name": "setMaxGasPrice",
      "outputs": [],
      "stateMutability": "nonpayable",
      "type": "function"
    },
    {
      "inputs": [
        {
          "internalType": "address",
          "name": "_tigAsset",
          "type": "address"
        },
        {
          "internalType": "uint256",
          "name": "_min",
          "type": "uint256"
        }
      ],
      "name": "setMinPositionSize",
      "outputs": [],
      "stateMutability": "nonpayable",
      "type": "function"
    },
    {
      "inputs": [
        {
          "internalType": "address",
          "name": "_node",
          "type": "address"
        },
        {
          "internalType": "bool",
          "name": "_bool",
          "type": "bool"
        }
      ],
      "name": "setNode",
      "outputs": [],
      "stateMutability": "nonpayable",
      "type": "function"
    },
    {
      "inputs": [
        {
          "internalType": "bool",
          "name": "_paused",
          "type": "bool"
        }
      ],
      "name": "setPaused",
      "outputs": [],
      "stateMutability": "nonpayable",
      "type": "function"
    },
    {
      "inputs": [
        {
          "internalType": "uint256",
          "name": "_validSignatureTimer",
          "type": "uint256"
        }
      ],
      "name": "setValidSignatureTimer",
      "outputs": [],
      "stateMutability": "nonpayable",
      "type": "function"
    },
    {
      "inputs": [],
      "name": "trading",
      "outputs": [
        {
          "internalType": "address",
          "name": "",
          "type": "address"
        }
      ],
      "stateMutability": "view",
      "type": "function"
    },
    {
      "inputs": [
        {
          "internalType": "address",
          "name": "newOwner",
          "type": "address"
        }
      ],
      "name": "transferOwnership",
      "outputs": [],
      "stateMutability": "nonpayable",
      "type": "function"
    },
    {
      "inputs": [],
      "name": "validSignatureTimer",
      "outputs": [
        {
          "internalType": "uint256",
          "name": "",
          "type": "uint256"
        }
      ],
      "stateMutability": "view",
      "type": "function"
    },
    {
      "inputs": [
        {
          "internalType": "uint256",
          "name": "_asset",
          "type": "uint256"
        },
        {
          "internalType": "address",
          "name": "_tigAsset",
          "type": "address"
        },
        {
          "internalType": "uint256",
          "name": "_margin",
          "type": "uint256"
        },
        {
          "internalType": "uint256",
          "name": "_leverage",
          "type": "uint256"
        }
      ],
      "name": "validateTrade",
      "outputs": [],
      "stateMutability": "view",
      "type": "function"
    }
  ],
  "transactionHash": "0x939a8a1aeb0b1731b5e02df658bb61d5b65970d6ddbc86685c1213e2e7512dce",
  "args": [
    "0x90fAd78284d1C24e3D5aE06BC91afE62a9F6aa13",
    "0x6D1D6Fbd0D43a31a48F63BB80383729da7Aef8Fc",
    "0x0ccBc6232AD9C1E2c2fD783FfcBAD16e34846479",
    "0xa6065A5114dFc7b53e0e31C2Fd96Abc10a43eCC8"
  ],
  "numDeployments": 1,
  "solcInputHash": "a290f40070d67d0df3fa12e4097ec646",
  "bytecode": "0x608060405264e8d4a51000600a553480156200001a57600080fd5b5060405162002482380380620024828339810160408190526200003d9162000117565b6200004833620000aa565b600180546001600160a01b039586166001600160a01b0319918216179091556007805494861661010002610100600160a81b03199095169490941790935560088054928516928416929092179091556009805491909316911617905562000174565b600080546001600160a01b038381166001600160a01b0319831681178455604051919092169283917f8be0079c531659141344cd1fd0a4f28419497f9722a3daafe3b4186f6b6457e09190a35050565b80516001600160a01b03811681146200011257600080fd5b919050565b600080600080608085870312156200012e57600080fd5b6200013985620000fa565b93506200014960208601620000fa565b92506200015960408601620000fa565b91506200016960608601620000fa565b905092959194509250565b6122fe80620001846000396000f3fe608060405234801561001057600080fd5b50600436106101b95760003560e01c806378157a90116100f95780639b8e2bb511610097578063d2fa635e11610071578063d2fa635e14610411578063ec44acf214610424578063ef37d94b14610444578063f2fde38b1461046657600080fd5b80639b8e2bb5146103d3578063a893cf90146103fb578063bf5d598d1461040857600080fd5b80638485b624116100d35780638485b62414610359578063879bafb11461036c57806387a64cfa146103a25780638da5cb5b146103b557600080fd5b806378157a9014610320578063797b371e1461033357806380a1c4f51461034657600080fd5b806341addb7b116101665780635c975abb116101405780635c975abb146102f0578063620b9584146102fd57806366b481e814610310578063715018a61461031857600080fd5b806341addb7b146102685780634206f8031461027b5780635a7db533146102b857600080fd5b806325f2f4791161019757806325f2f479146102195780632b355e011461022c5780633de39c111461025f57600080fd5b8063058f3bc8146101be57806316c38b3c146101d35780631b6cc297146101e6575b600080fd5b6101d16101cc3660046119f7565b610479565b005b6101d16101e13660046119f7565b6104b2565b6102066101f4366004611a3d565b60056020526000908152604090205481565b6040519081526020015b60405180910390f35b6101d1610227366004611a5a565b6104eb565b61024f61023a366004611a3d565b60066020526000908152604090205460ff1681565b6040519015158152602001610210565b610206600a5481565b6101d1610276366004611a86565b61051c565b61028e610289366004611b20565b61057a565b6040805192835273ffffffffffffffffffffffffffffffffffffffff909116602083015201610210565b6102cb6102c6366004611a3d565b610987565b60405173ffffffffffffffffffffffffffffffffffffffff9091168152602001610210565b60075461024f9060ff1681565b6101d161030b366004611b94565b610a89565b6101d1610bb2565b6101d1610c20565b6101d161032e366004611bdc565b610c32565b6101d1610341366004611c19565b611009565b6101d1610354366004611a86565b611016565b6101d1610367366004611c32565b611074565b61020661037a366004611a3d565b73ffffffffffffffffffffffffffffffffffffffff1660009081526005602052604090205490565b6101d16103b0366004611b94565b6112d5565b60005473ffffffffffffffffffffffffffffffffffffffff166102cb565b6103e66103e1366004611c57565b6113ca565b60408051928352602083019190915201610210565b60035461024f9060ff1681565b61020660025481565b6101d161041f366004611c19565b611585565b6001546102cb9073ffffffffffffffffffffffffffffffffffffffff1681565b610457610452366004611cbc565b611592565b60405161021093929190611ce8565b6101d1610474366004611a3d565b61183c565b6104816118f3565b600380547fffffffffffffffffffffffffffffffffffffffffffffffffffffffffffffff0016911515919091179055565b6104ba6118f3565b600780547fffffffffffffffffffffffffffffffffffffffffffffffffffffffffffffff0016911515919091179055565b6104f36118f3565b73ffffffffffffffffffffffffffffffffffffffff909116600090815260056020526040902055565b6105246118f3565b73ffffffffffffffffffffffffffffffffffffffff91909116600090815260046020526040902080547fffffffffffffffffffffffffffffffffffffffffffffffffffffffffffffff0016911515919091179055565b600080610585610bb2565b6009546040517f1e6c598e0000000000000000000000000000000000000000000000000000000081526004810189905260009173ffffffffffffffffffffffffffffffffffffffff1690631e6c598e9060240161018060405180830381865afa1580156105f6573d6000803e3d6000fd5b505050506040513d601f19601f8201168201806040525081019061061a9190611ea2565b90508061014001519150610636816040015187878760006113ca565b505060e0810151604087013590156106af576040517f08c379a000000000000000000000000000000000000000000000000000000000815260206004820152600160248201527f340000000000000000000000000000000000000000000000000000000000000060448201526064015b60405180910390fd5b871561081a578160a00151600003610723576040517f08c379a000000000000000000000000000000000000000000000000000000000815260206004820152600160248201527f370000000000000000000000000000000000000000000000000000000000000060448201526064016106a6565b8160600151156107a057808260a00151111561079b576040517f08c379a000000000000000000000000000000000000000000000000000000000815260206004820152600160248201527f360000000000000000000000000000000000000000000000000000000000000060448201526064016106a6565b61080e565b808260a00151101561080e576040517f08c379a000000000000000000000000000000000000000000000000000000000815260206004820152600160248201527f360000000000000000000000000000000000000000000000000000000000000060448201526064016106a6565b8160a00151935061097b565b8160c00151600003610888576040517f08c379a000000000000000000000000000000000000000000000000000000000815260206004820152600160248201527f370000000000000000000000000000000000000000000000000000000000000060448201526064016106a6565b81606001511561090557808260c001511015610900576040517f08c379a000000000000000000000000000000000000000000000000000000000815260206004820152600160248201527f360000000000000000000000000000000000000000000000000000000000000060448201526064016106a6565b610973565b808260c001511115610973576040517f08c379a000000000000000000000000000000000000000000000000000000000815260206004820152600160248201527f360000000000000000000000000000000000000000000000000000000000000060448201526064016106a6565b8160c0015193505b50509550959350505050565b6008546040517fd113f04c00000000000000000000000000000000000000000000000000000000815273ffffffffffffffffffffffffffffffffffffffff838116600483015260009216906382e58d5190829063d113f04c90602401602060405180830381865afa158015610a00573d6000803e3d6000fd5b505050506040513d601f19601f82011682018060405250810190610a249190611f51565b6040518263ffffffff1660e01b8152600401610a4291815260200190565b602060405180830381865afa158015610a5f573d6000803e3d6000fd5b505050506040513d601f19601f82011682018060405250810190610a839190611f6a565b92915050565b60015473ffffffffffffffffffffffffffffffffffffffff163314610b0a576040517f08c379a000000000000000000000000000000000000000000000000000000000815260206004820152600960248201527f2170726f746f636f6c000000000000000000000000000000000000000000000060448201526064016106a6565b6007546040517f620b95840000000000000000000000000000000000000000000000000000000081526004810186905273ffffffffffffffffffffffffffffffffffffffff85811660248301528415156044830152606482018490526101009092049091169063620b9584906084015b600060405180830381600087803b158015610b9457600080fd5b505af1158015610ba8573d6000803e3d6000fd5b5050505050505050565b600a543a1115610c1e576040517f08c379a000000000000000000000000000000000000000000000000000000000815260206004820152600160248201527f310000000000000000000000000000000000000000000000000000000000000060448201526064016106a6565b565b610c286118f3565b610c1e6000611974565b6007546040517fc688fca700000000000000000000000000000000000000000000000000000000815260048101869052600091610100900473ffffffffffffffffffffffffffffffffffffffff169063c688fca790602401600060405180830381865afa158015610ca7573d6000803e3d6000fd5b505050506040513d6000823e601f3d9081017fffffffffffffffffffffffffffffffffffffffffffffffffffffffffffffffe0168201604052610ced9190810190611f87565b73ffffffffffffffffffffffffffffffffffffffff851660009081526006602052604090205490915060ff16610d7f576040517f08c379a000000000000000000000000000000000000000000000000000000000815260206004820152600760248201527f216d617267696e0000000000000000000000000000000000000000000000000060448201526064016106a6565b60075460ff1615610dec576040517f08c379a000000000000000000000000000000000000000000000000000000000815260206004820152600660248201527f706175736564000000000000000000000000000000000000000000000000000060448201526064016106a6565b6007546040517fd8a5f72f0000000000000000000000000000000000000000000000000000000081526004810187905261010090910473ffffffffffffffffffffffffffffffffffffffff169063d8a5f72f90602401602060405180830381865afa158015610e5f573d6000803e3d6000fd5b505050506040513d601f19601f82011682018060405250810190610e8391906120b5565b610ee9576040517f08c379a000000000000000000000000000000000000000000000000000000000815260206004820152600860248201527f21616c6c6f77656400000000000000000000000000000000000000000000000060448201526064016106a6565b8060400151821080610efe5750806060015182115b15610f67576040517f08c379a00000000000000000000000000000000000000000000000000000000081526004016106a69060208082526004908201527f216c657600000000000000000000000000000000000000000000000000000000604082015260600190565b73ffffffffffffffffffffffffffffffffffffffff8416600090815260056020526040902054670de0b6b3a7640000848402041015611002576040517f08c379a000000000000000000000000000000000000000000000000000000000815260206004820152600560248201527f2173697a6500000000000000000000000000000000000000000000000000000060448201526064016106a6565b5050505050565b6110116118f3565b600255565b61101e6118f3565b73ffffffffffffffffffffffffffffffffffffffff91909116600090815260066020526040902080547fffffffffffffffffffffffffffffffffffffffffffffffffffffffffffffff0016911515919091179055565b60015473ffffffffffffffffffffffffffffffffffffffff1633146110f5576040517f08c379a000000000000000000000000000000000000000000000000000000000815260206004820152600960248201527f2170726f746f636f6c000000000000000000000000000000000000000000000060448201526064016106a6565b81156112d1576008546040517f82e58d510000000000000000000000000000000000000000000000000000000081526004810184905260009173ffffffffffffffffffffffffffffffffffffffff16906382e58d5190602401602060405180830381865afa15801561116b573d6000803e3d6000fd5b505050506040513d601f19601f8201168201806040525081019061118f9190611f6a565b73ffffffffffffffffffffffffffffffffffffffff16146112d1576008546040517fd113f04c00000000000000000000000000000000000000000000000000000000815273ffffffffffffffffffffffffffffffffffffffff8381166004830152600092169063d113f04c90602401602060405180830381865afa15801561121b573d6000803e3d6000fd5b505050506040513d601f19601f8201168201806040525081019061123f9190611f51565b036112d1576008546040517fe20c854800000000000000000000000000000000000000000000000000000000815273ffffffffffffffffffffffffffffffffffffffff8381166004830152602482018590529091169063e20c854890604401600060405180830381600087803b1580156112b857600080fd5b505af11580156112cc573d6000803e3d6000fd5b505050505b5050565b60015473ffffffffffffffffffffffffffffffffffffffff163314611356576040517f08c379a000000000000000000000000000000000000000000000000000000000815260206004820152600960248201527f2170726f746f636f6c000000000000000000000000000000000000000000000060448201526064016106a6565b6007546040517f87a64cfa0000000000000000000000000000000000000000000000000000000081526004810186905273ffffffffffffffffffffffffffffffffffffffff8581166024830152841515604483015260648201849052610100909204909116906387a64cfa90608401610b7a565b6002546003546007546040517fc688fca70000000000000000000000000000000000000000000000000000000081526004810189905260009384937308046aBBe9631089A4dCb15bBa24d1021B77E78593633b8b0d65938c9260ff1691610100900473ffffffffffffffffffffffffffffffffffffffff169063c688fca790602401600060405180830381865afa158015611469573d6000803e3d6000fd5b505050506040513d6000823e601f3d9081017fffffffffffffffffffffffffffffffffffffffffffffffffffffffffffffffe01682016040526114af9190810190611f87565b602001518b8b8b60046040518963ffffffff1660e01b81526004016114db98979695949392919061214a565b60006040518083038186803b1580156114f357600080fd5b505af4158015611507573d6000803e3d6000fd5b5050505085604001359150856060013590508260010361154c576402540be400611531828461222c565b61153b9190612243565b611545908361227e565b915061157b565b8260020361157b576402540be400611564828461222c565b61156e9190612243565b6115789083612291565b91505b9550959350505050565b61158d6118f3565b600a55565b61162460405180610180016040528060008152602001600081526020016000815260200160001515815260200160008152602001600081526020016000815260200160008152602001600073ffffffffffffffffffffffffffffffffffffffff16815260200160008152602001600073ffffffffffffffffffffffffffffffffffffffff168152602001600081525090565b6009546040517f1e6c598e00000000000000000000000000000000000000000000000000000000815260048101869052600091829173ffffffffffffffffffffffffffffffffffffffff90911690631e6c598e9060240161018060405180830381865afa158015611699573d6000803e3d6000fd5b505050506040513d601f19601f820116820180604052508101906116bd9190611ea2565b60608101516080820151825160208401516101608501516040517f360e80430000000000000000000000000000000000000000000000000000000081529415156004860152602485018b905260448501939093526064840191909152608483015260a48201529093507308046aBBe9631089A4dCb15bBa24d1021B77E7859063360e80439060c4016040805180830381865af4158015611761573d6000803e3d6000fd5b505050506040513d601f19601f8201168201806040525081019061178591906122a4565b60608501519193509150156117e6576117e1836040015184610140015160006402540be40088670de0b6b3a764000089602001518a6000015102816117cc576117cc6120d2565b0402816117db576117db6120d2565b046112d5565b611833565b611833836040015184610140015160006402540be40088670de0b6b3a764000089602001518a60000151028161181e5761181e6120d2565b04028161182d5761182d6120d2565b04610a89565b93509350939050565b6118446118f3565b73ffffffffffffffffffffffffffffffffffffffff81166118e7576040517f08c379a000000000000000000000000000000000000000000000000000000000815260206004820152602660248201527f4f776e61626c653a206e6577206f776e657220697320746865207a65726f206160448201527f646472657373000000000000000000000000000000000000000000000000000060648201526084016106a6565b6118f081611974565b50565b60005473ffffffffffffffffffffffffffffffffffffffff163314610c1e576040517f08c379a000000000000000000000000000000000000000000000000000000000815260206004820181905260248201527f4f776e61626c653a2063616c6c6572206973206e6f7420746865206f776e657260448201526064016106a6565b6000805473ffffffffffffffffffffffffffffffffffffffff8381167fffffffffffffffffffffffff0000000000000000000000000000000000000000831681178455604051919092169283917f8be0079c531659141344cd1fd0a4f28419497f9722a3daafe3b4186f6b6457e09190a35050565b80151581146118f057600080fd5b600060208284031215611a0957600080fd5b8135611a14816119e9565b9392505050565b73ffffffffffffffffffffffffffffffffffffffff811681146118f057600080fd5b600060208284031215611a4f57600080fd5b8135611a1481611a1b565b60008060408385031215611a6d57600080fd5b8235611a7881611a1b565b946020939093013593505050565b60008060408385031215611a9957600080fd5b8235611aa481611a1b565b91506020830135611ab4816119e9565b809150509250929050565b600060c08284031215611ad157600080fd5b50919050565b60008083601f840112611ae957600080fd5b50813567ffffffffffffffff811115611b0157600080fd5b602083019150836020828501011115611b1957600080fd5b9250929050565b60008060008060006101208688031215611b3957600080fd5b853594506020860135611b4b816119e9565b9350611b5a8760408801611abf565b925061010086013567ffffffffffffffff811115611b7757600080fd5b611b8388828901611ad7565b969995985093965092949392505050565b60008060008060808587031215611baa57600080fd5b843593506020850135611bbc81611a1b565b92506040850135611bcc816119e9565b9396929550929360600135925050565b60008060008060808587031215611bf257600080fd5b843593506020850135611c0481611a1b565b93969395505050506040820135916060013590565b600060208284031215611c2b57600080fd5b5035919050565b60008060408385031215611c4557600080fd5b823591506020830135611ab481611a1b565b60008060008060006101208688031215611c7057600080fd5b85359450611c818760208801611abf565b935060e086013567ffffffffffffffff811115611c9d57600080fd5b611ca988828901611ad7565b9699959850966101000135949350505050565b600080600060608486031215611cd157600080fd5b505081359360208301359350604090920135919050565b60006101c0820190508451825260208501516020830152604085015160408301526060850151611d1c606084018215159052565b506080850151608083015260a085015160a083015260c085015160c083015260e085015160e083015261010080860151611d6d8285018273ffffffffffffffffffffffffffffffffffffffff169052565b505061012085810151908301526101408086015173ffffffffffffffffffffffffffffffffffffffff169083015261016094850151948201949094526101808101929092526101a09091015290565b7f4e487b7100000000000000000000000000000000000000000000000000000000600052604160045260246000fd5b604051610180810167ffffffffffffffff81118282101715611e0f57611e0f611dbc565b60405290565b60405160c0810167ffffffffffffffff81118282101715611e0f57611e0f611dbc565b604051601f82017fffffffffffffffffffffffffffffffffffffffffffffffffffffffffffffffe016810167ffffffffffffffff81118282101715611e7f57611e7f611dbc565b604052919050565b8051611e92816119e9565b919050565b8051611e9281611a1b565b60006101808284031215611eb557600080fd5b611ebd611deb565b825181526020830151602082015260408301516040820152611ee160608401611e87565b60608201526080830151608082015260a083015160a082015260c083015160c082015260e083015160e0820152610100611f1c818501611e97565b908201526101208381015190820152610140611f39818501611e97565b90820152610160928301519281019290925250919050565b600060208284031215611f6357600080fd5b5051919050565b600060208284031215611f7c57600080fd5b8151611a1481611a1b565b60006020808385031215611f9a57600080fd5b825167ffffffffffffffff80821115611fb257600080fd5b9084019060c08287031215611fc657600080fd5b611fce611e15565b825182811115611fdd57600080fd5b8301601f81018813611fee57600080fd5b80518381111561200057612000611dbc565b612030867fffffffffffffffffffffffffffffffffffffffffffffffffffffffffffffffe0601f84011601611e38565b9350808452888682840101111561204657600080fd5b60005b81811015612064578281018701518582018801528601612049565b5060009084018601525081815261207c838501611e97565b8482015260408301516040820152606083015160608201526080830151608082015260a083015160a08201528094505050505092915050565b6000602082840312156120c757600080fd5b8151611a14816119e9565b7f4e487b7100000000000000000000000000000000000000000000000000000000600052601260045260246000fd5b8183528181602085013750600060208284010152600060207fffffffffffffffffffffffffffffffffffffffffffffffffffffffffffffffe0601f840116840101905092915050565b60006101808a8352896020840152881515604084015273ffffffffffffffffffffffffffffffffffffffff8089166060850152873561218881611a1b565b81811660808601525050602087013560a0840152604087013560c0840152606087013560e0840152608087013561010084015260a08701356121c9816119e9565b151561012084015261014083018190526121e68184018688612101565b915050826101608301529998505050505050505050565b7f4e487b7100000000000000000000000000000000000000000000000000000000600052601160045260246000fd5b8082028115828204841417610a8357610a836121fd565b600082612279577f4e487b7100000000000000000000000000000000000000000000000000000000600052601260045260246000fd5b500490565b80820180821115610a8357610a836121fd565b81810381811115610a8357610a836121fd565b600080604083850312156122b757600080fd5b50508051602090910151909290915056fea26469706673582212204633cd2d251e098eacfca33f197ed4a19cf306f54e85da792b86e026db9115d064736f6c63430008110033",
  "deployedBytecode": "0x608060405234801561001057600080fd5b50600436106101b95760003560e01c806378157a90116100f95780639b8e2bb511610097578063d2fa635e11610071578063d2fa635e14610411578063ec44acf214610424578063ef37d94b14610444578063f2fde38b1461046657600080fd5b80639b8e2bb5146103d3578063a893cf90146103fb578063bf5d598d1461040857600080fd5b80638485b624116100d35780638485b62414610359578063879bafb11461036c57806387a64cfa146103a25780638da5cb5b146103b557600080fd5b806378157a9014610320578063797b371e1461033357806380a1c4f51461034657600080fd5b806341addb7b116101665780635c975abb116101405780635c975abb146102f0578063620b9584146102fd57806366b481e814610310578063715018a61461031857600080fd5b806341addb7b146102685780634206f8031461027b5780635a7db533146102b857600080fd5b806325f2f4791161019757806325f2f479146102195780632b355e011461022c5780633de39c111461025f57600080fd5b8063058f3bc8146101be57806316c38b3c146101d35780631b6cc297146101e6575b600080fd5b6101d16101cc3660046119f7565b610479565b005b6101d16101e13660046119f7565b6104b2565b6102066101f4366004611a3d565b60056020526000908152604090205481565b6040519081526020015b60405180910390f35b6101d1610227366004611a5a565b6104eb565b61024f61023a366004611a3d565b60066020526000908152604090205460ff1681565b6040519015158152602001610210565b610206600a5481565b6101d1610276366004611a86565b61051c565b61028e610289366004611b20565b61057a565b6040805192835273ffffffffffffffffffffffffffffffffffffffff909116602083015201610210565b6102cb6102c6366004611a3d565b610987565b60405173ffffffffffffffffffffffffffffffffffffffff9091168152602001610210565b60075461024f9060ff1681565b6101d161030b366004611b94565b610a89565b6101d1610bb2565b6101d1610c20565b6101d161032e366004611bdc565b610c32565b6101d1610341366004611c19565b611009565b6101d1610354366004611a86565b611016565b6101d1610367366004611c32565b611074565b61020661037a366004611a3d565b73ffffffffffffffffffffffffffffffffffffffff1660009081526005602052604090205490565b6101d16103b0366004611b94565b6112d5565b60005473ffffffffffffffffffffffffffffffffffffffff166102cb565b6103e66103e1366004611c57565b6113ca565b60408051928352602083019190915201610210565b60035461024f9060ff1681565b61020660025481565b6101d161041f366004611c19565b611585565b6001546102cb9073ffffffffffffffffffffffffffffffffffffffff1681565b610457610452366004611cbc565b611592565b60405161021093929190611ce8565b6101d1610474366004611a3d565b61183c565b6104816118f3565b600380547fffffffffffffffffffffffffffffffffffffffffffffffffffffffffffffff0016911515919091179055565b6104ba6118f3565b600780547fffffffffffffffffffffffffffffffffffffffffffffffffffffffffffffff0016911515919091179055565b6104f36118f3565b73ffffffffffffffffffffffffffffffffffffffff909116600090815260056020526040902055565b6105246118f3565b73ffffffffffffffffffffffffffffffffffffffff91909116600090815260046020526040902080547fffffffffffffffffffffffffffffffffffffffffffffffffffffffffffffff0016911515919091179055565b600080610585610bb2565b6009546040517f1e6c598e0000000000000000000000000000000000000000000000000000000081526004810189905260009173ffffffffffffffffffffffffffffffffffffffff1690631e6c598e9060240161018060405180830381865afa1580156105f6573d6000803e3d6000fd5b505050506040513d601f19601f8201168201806040525081019061061a9190611ea2565b90508061014001519150610636816040015187878760006113ca565b505060e0810151604087013590156106af576040517f08c379a000000000000000000000000000000000000000000000000000000000815260206004820152600160248201527f340000000000000000000000000000000000000000000000000000000000000060448201526064015b60405180910390fd5b871561081a578160a00151600003610723576040517f08c379a000000000000000000000000000000000000000000000000000000000815260206004820152600160248201527f370000000000000000000000000000000000000000000000000000000000000060448201526064016106a6565b8160600151156107a057808260a00151111561079b576040517f08c379a000000000000000000000000000000000000000000000000000000000815260206004820152600160248201527f360000000000000000000000000000000000000000000000000000000000000060448201526064016106a6565b61080e565b808260a00151101561080e576040517f08c379a000000000000000000000000000000000000000000000000000000000815260206004820152600160248201527f360000000000000000000000000000000000000000000000000000000000000060448201526064016106a6565b8160a00151935061097b565b8160c00151600003610888576040517f08c379a000000000000000000000000000000000000000000000000000000000815260206004820152600160248201527f370000000000000000000000000000000000000000000000000000000000000060448201526064016106a6565b81606001511561090557808260c001511015610900576040517f08c379a000000000000000000000000000000000000000000000000000000000815260206004820152600160248201527f360000000000000000000000000000000000000000000000000000000000000060448201526064016106a6565b610973565b808260c001511115610973576040517f08c379a000000000000000000000000000000000000000000000000000000000815260206004820152600160248201527f360000000000000000000000000000000000000000000000000000000000000060448201526064016106a6565b8160c0015193505b50509550959350505050565b6008546040517fd113f04c00000000000000000000000000000000000000000000000000000000815273ffffffffffffffffffffffffffffffffffffffff838116600483015260009216906382e58d5190829063d113f04c90602401602060405180830381865afa158015610a00573d6000803e3d6000fd5b505050506040513d601f19601f82011682018060405250810190610a249190611f51565b6040518263ffffffff1660e01b8152600401610a4291815260200190565b602060405180830381865afa158015610a5f573d6000803e3d6000fd5b505050506040513d601f19601f82011682018060405250810190610a839190611f6a565b92915050565b60015473ffffffffffffffffffffffffffffffffffffffff163314610b0a576040517f08c379a000000000000000000000000000000000000000000000000000000000815260206004820152600960248201527f2170726f746f636f6c000000000000000000000000000000000000000000000060448201526064016106a6565b6007546040517f620b95840000000000000000000000000000000000000000000000000000000081526004810186905273ffffffffffffffffffffffffffffffffffffffff85811660248301528415156044830152606482018490526101009092049091169063620b9584906084015b600060405180830381600087803b158015610b9457600080fd5b505af1158015610ba8573d6000803e3d6000fd5b5050505050505050565b600a543a1115610c1e576040517f08c379a000000000000000000000000000000000000000000000000000000000815260206004820152600160248201527f310000000000000000000000000000000000000000000000000000000000000060448201526064016106a6565b565b610c286118f3565b610c1e6000611974565b6007546040517fc688fca700000000000000000000000000000000000000000000000000000000815260048101869052600091610100900473ffffffffffffffffffffffffffffffffffffffff169063c688fca790602401600060405180830381865afa158015610ca7573d6000803e3d6000fd5b505050506040513d6000823e601f3d9081017fffffffffffffffffffffffffffffffffffffffffffffffffffffffffffffffe0168201604052610ced9190810190611f87565b73ffffffffffffffffffffffffffffffffffffffff851660009081526006602052604090205490915060ff16610d7f576040517f08c379a000000000000000000000000000000000000000000000000000000000815260206004820152600760248201527f216d617267696e0000000000000000000000000000000000000000000000000060448201526064016106a6565b60075460ff1615610dec576040517f08c379a000000000000000000000000000000000000000000000000000000000815260206004820152600660248201527f706175736564000000000000000000000000000000000000000000000000000060448201526064016106a6565b6007546040517fd8a5f72f0000000000000000000000000000000000000000000000000000000081526004810187905261010090910473ffffffffffffffffffffffffffffffffffffffff169063d8a5f72f90602401602060405180830381865afa158015610e5f573d6000803e3d6000fd5b505050506040513d601f19601f82011682018060405250810190610e8391906120b5565b610ee9576040517f08c379a000000000000000000000000000000000000000000000000000000000815260206004820152600860248201527f21616c6c6f77656400000000000000000000000000000000000000000000000060448201526064016106a6565b8060400151821080610efe5750806060015182115b15610f67576040517f08c379a00000000000000000000000000000000000000000000000000000000081526004016106a69060208082526004908201527f216c657600000000000000000000000000000000000000000000000000000000604082015260600190565b73ffffffffffffffffffffffffffffffffffffffff8416600090815260056020526040902054670de0b6b3a7640000848402041015611002576040517f08c379a000000000000000000000000000000000000000000000000000000000815260206004820152600560248201527f2173697a6500000000000000000000000000000000000000000000000000000060448201526064016106a6565b5050505050565b6110116118f3565b600255565b61101e6118f3565b73ffffffffffffffffffffffffffffffffffffffff91909116600090815260066020526040902080547fffffffffffffffffffffffffffffffffffffffffffffffffffffffffffffff0016911515919091179055565b60015473ffffffffffffffffffffffffffffffffffffffff1633146110f5576040517f08c379a000000000000000000000000000000000000000000000000000000000815260206004820152600960248201527f2170726f746f636f6c000000000000000000000000000000000000000000000060448201526064016106a6565b81156112d1576008546040517f82e58d510000000000000000000000000000000000000000000000000000000081526004810184905260009173ffffffffffffffffffffffffffffffffffffffff16906382e58d5190602401602060405180830381865afa15801561116b573d6000803e3d6000fd5b505050506040513d601f19601f8201168201806040525081019061118f9190611f6a565b73ffffffffffffffffffffffffffffffffffffffff16146112d1576008546040517fd113f04c00000000000000000000000000000000000000000000000000000000815273ffffffffffffffffffffffffffffffffffffffff8381166004830152600092169063d113f04c90602401602060405180830381865afa15801561121b573d6000803e3d6000fd5b505050506040513d601f19601f8201168201806040525081019061123f9190611f51565b036112d1576008546040517fe20c854800000000000000000000000000000000000000000000000000000000815273ffffffffffffffffffffffffffffffffffffffff8381166004830152602482018590529091169063e20c854890604401600060405180830381600087803b1580156112b857600080fd5b505af11580156112cc573d6000803e3d6000fd5b505050505b5050565b60015473ffffffffffffffffffffffffffffffffffffffff163314611356576040517f08c379a000000000000000000000000000000000000000000000000000000000815260206004820152600960248201527f2170726f746f636f6c000000000000000000000000000000000000000000000060448201526064016106a6565b6007546040517f87a64cfa0000000000000000000000000000000000000000000000000000000081526004810186905273ffffffffffffffffffffffffffffffffffffffff8581166024830152841515604483015260648201849052610100909204909116906387a64cfa90608401610b7a565b6002546003546007546040517fc688fca700000000000000000000000000000000000000000000000000000000815260048101899052600093849373__$34d91051683fc282c906c8d068cc59eb11$__93633b8b0d65938c9260ff1691610100900473ffffffffffffffffffffffffffffffffffffffff169063c688fca790602401600060405180830381865afa158015611469573d6000803e3d6000fd5b505050506040513d6000823e601f3d9081017fffffffffffffffffffffffffffffffffffffffffffffffffffffffffffffffe01682016040526114af9190810190611f87565b602001518b8b8b60046040518963ffffffff1660e01b81526004016114db98979695949392919061214a565b60006040518083038186803b1580156114f357600080fd5b505af4158015611507573d6000803e3d6000fd5b5050505085604001359150856060013590508260010361154c576402540be400611531828461222c565b61153b9190612243565b611545908361227e565b915061157b565b8260020361157b576402540be400611564828461222c565b61156e9190612243565b6115789083612291565b91505b9550959350505050565b61158d6118f3565b600a55565b61162460405180610180016040528060008152602001600081526020016000815260200160001515815260200160008152602001600081526020016000815260200160008152602001600073ffffffffffffffffffffffffffffffffffffffff16815260200160008152602001600073ffffffffffffffffffffffffffffffffffffffff168152602001600081525090565b6009546040517f1e6c598e00000000000000000000000000000000000000000000000000000000815260048101869052600091829173ffffffffffffffffffffffffffffffffffffffff90911690631e6c598e9060240161018060405180830381865afa158015611699573d6000803e3d6000fd5b505050506040513d601f19601f820116820180604052508101906116bd9190611ea2565b60608101516080820151825160208401516101608501516040517f360e80430000000000000000000000000000000000000000000000000000000081529415156004860152602485018b905260448501939093526064840191909152608483015260a482015290935073__$34d91051683fc282c906c8d068cc59eb11$__9063360e80439060c4016040805180830381865af4158015611761573d6000803e3d6000fd5b505050506040513d601f19601f8201168201806040525081019061178591906122a4565b60608501519193509150156117e6576117e1836040015184610140015160006402540be40088670de0b6b3a764000089602001518a6000015102816117cc576117cc6120d2565b0402816117db576117db6120d2565b046112d5565b611833565b611833836040015184610140015160006402540be40088670de0b6b3a764000089602001518a60000151028161181e5761181e6120d2565b04028161182d5761182d6120d2565b04610a89565b93509350939050565b6118446118f3565b73ffffffffffffffffffffffffffffffffffffffff81166118e7576040517f08c379a000000000000000000000000000000000000000000000000000000000815260206004820152602660248201527f4f776e61626c653a206e6577206f776e657220697320746865207a65726f206160448201527f646472657373000000000000000000000000000000000000000000000000000060648201526084016106a6565b6118f081611974565b50565b60005473ffffffffffffffffffffffffffffffffffffffff163314610c1e576040517f08c379a000000000000000000000000000000000000000000000000000000000815260206004820181905260248201527f4f776e61626c653a2063616c6c6572206973206e6f7420746865206f776e657260448201526064016106a6565b6000805473ffffffffffffffffffffffffffffffffffffffff8381167fffffffffffffffffffffffff0000000000000000000000000000000000000000831681178455604051919092169283917f8be0079c531659141344cd1fd0a4f28419497f9722a3daafe3b4186f6b6457e09190a35050565b80151581146118f057600080fd5b600060208284031215611a0957600080fd5b8135611a14816119e9565b9392505050565b73ffffffffffffffffffffffffffffffffffffffff811681146118f057600080fd5b600060208284031215611a4f57600080fd5b8135611a1481611a1b565b60008060408385031215611a6d57600080fd5b8235611a7881611a1b565b946020939093013593505050565b60008060408385031215611a9957600080fd5b8235611aa481611a1b565b91506020830135611ab4816119e9565b809150509250929050565b600060c08284031215611ad157600080fd5b50919050565b60008083601f840112611ae957600080fd5b50813567ffffffffffffffff811115611b0157600080fd5b602083019150836020828501011115611b1957600080fd5b9250929050565b60008060008060006101208688031215611b3957600080fd5b853594506020860135611b4b816119e9565b9350611b5a8760408801611abf565b925061010086013567ffffffffffffffff811115611b7757600080fd5b611b8388828901611ad7565b969995985093965092949392505050565b60008060008060808587031215611baa57600080fd5b843593506020850135611bbc81611a1b565b92506040850135611bcc816119e9565b9396929550929360600135925050565b60008060008060808587031215611bf257600080fd5b843593506020850135611c0481611a1b565b93969395505050506040820135916060013590565b600060208284031215611c2b57600080fd5b5035919050565b60008060408385031215611c4557600080fd5b823591506020830135611ab481611a1b565b60008060008060006101208688031215611c7057600080fd5b85359450611c818760208801611abf565b935060e086013567ffffffffffffffff811115611c9d57600080fd5b611ca988828901611ad7565b9699959850966101000135949350505050565b600080600060608486031215611cd157600080fd5b505081359360208301359350604090920135919050565b60006101c0820190508451825260208501516020830152604085015160408301526060850151611d1c606084018215159052565b506080850151608083015260a085015160a083015260c085015160c083015260e085015160e083015261010080860151611d6d8285018273ffffffffffffffffffffffffffffffffffffffff169052565b505061012085810151908301526101408086015173ffffffffffffffffffffffffffffffffffffffff169083015261016094850151948201949094526101808101929092526101a09091015290565b7f4e487b7100000000000000000000000000000000000000000000000000000000600052604160045260246000fd5b604051610180810167ffffffffffffffff81118282101715611e0f57611e0f611dbc565b60405290565b60405160c0810167ffffffffffffffff81118282101715611e0f57611e0f611dbc565b604051601f82017fffffffffffffffffffffffffffffffffffffffffffffffffffffffffffffffe016810167ffffffffffffffff81118282101715611e7f57611e7f611dbc565b604052919050565b8051611e92816119e9565b919050565b8051611e9281611a1b565b60006101808284031215611eb557600080fd5b611ebd611deb565b825181526020830151602082015260408301516040820152611ee160608401611e87565b60608201526080830151608082015260a083015160a082015260c083015160c082015260e083015160e0820152610100611f1c818501611e97565b908201526101208381015190820152610140611f39818501611e97565b90820152610160928301519281019290925250919050565b600060208284031215611f6357600080fd5b5051919050565b600060208284031215611f7c57600080fd5b8151611a1481611a1b565b60006020808385031215611f9a57600080fd5b825167ffffffffffffffff80821115611fb257600080fd5b9084019060c08287031215611fc657600080fd5b611fce611e15565b825182811115611fdd57600080fd5b8301601f81018813611fee57600080fd5b80518381111561200057612000611dbc565b612030867fffffffffffffffffffffffffffffffffffffffffffffffffffffffffffffffe0601f84011601611e38565b9350808452888682840101111561204657600080fd5b60005b81811015612064578281018701518582018801528601612049565b5060009084018601525081815261207c838501611e97565b8482015260408301516040820152606083015160608201526080830151608082015260a083015160a08201528094505050505092915050565b6000602082840312156120c757600080fd5b8151611a14816119e9565b7f4e487b7100000000000000000000000000000000000000000000000000000000600052601260045260246000fd5b8183528181602085013750600060208284010152600060207fffffffffffffffffffffffffffffffffffffffffffffffffffffffffffffffe0601f840116840101905092915050565b60006101808a8352896020840152881515604084015273ffffffffffffffffffffffffffffffffffffffff8089166060850152873561218881611a1b565b81811660808601525050602087013560a0840152604087013560c0840152606087013560e0840152608087013561010084015260a08701356121c9816119e9565b151561012084015261014083018190526121e68184018688612101565b915050826101608301529998505050505050505050565b7f4e487b7100000000000000000000000000000000000000000000000000000000600052601160045260246000fd5b8082028115828204841417610a8357610a836121fd565b600082612279577f4e487b7100000000000000000000000000000000000000000000000000000000600052601260045260246000fd5b500490565b80820180821115610a8357610a836121fd565b81810381811115610a8357610a836121fd565b600080604083850312156122b757600080fd5b50508051602090910151909290915056fea26469706673582212204633cd2d251e098eacfca33f197ed4a19cf306f54e85da792b86e026db9115d064736f6c63430008110033",
  "libraries": {
    "TradingLibrary": "0x08046aBBe9631089A4dCb15bBa24d1021B77E785"
  },
  "devdoc": {
    "kind": "dev",
    "methods": {
      "owner()": {
        "details": "Returns the address of the current owner."
      },
      "renounceOwnership()": {
        "details": "Leaves the contract without owner. It will not be possible to call `onlyOwner` functions anymore. Can only be called by the current owner. NOTE: Renouncing ownership will leave the contract without an owner, thereby removing any functionality that is only available to the owner."
      },
      "setAllowedMargin(address,bool)": {
        "details": "Allows a tigAsset to be used",
        "params": {
          "_bool": "bool",
          "_tigAsset": "tigAsset"
        }
      },
      "setMinPositionSize(address,uint256)": {
        "details": "changes the minimum position size",
        "params": {
          "_min": "minimum position size 18 decimals",
          "_tigAsset": "tigAsset"
        }
      },
      "setNode(address,bool)": {
        "details": "whitelists a node",
        "params": {
          "_bool": "bool",
          "_node": "node address"
        }
      },
      "transferOwnership(address)": {
        "details": "Transfers ownership of the contract to a new account (`newOwner`). Can only be called by the current owner."
      },
      "validateTrade(uint256,address,uint256,uint256)": {
        "details": "validates the inputs of trades",
        "params": {
          "_asset": "asset id",
          "_leverage": "leverage",
          "_margin": "margin",
          "_tigAsset": "margin asset"
        }
      }
    },
    "version": 1
  },
  "userdoc": {
    "kind": "user",
    "methods": {},
    "version": 1
  },
  "storageLayout": {
    "storage": [
      {
        "astId": 7,
        "contract": "contracts/TradingExtension.sol:TradingExtension",
        "label": "_owner",
        "offset": 0,
        "slot": "0",
        "type": "t_address"
      },
      {
        "astId": 1549,
        "contract": "contracts/TradingExtension.sol:TradingExtension",
        "label": "trading",
        "offset": 0,
        "slot": "1",
        "type": "t_address"
      },
      {
        "astId": 1551,
        "contract": "contracts/TradingExtension.sol:TradingExtension",
        "label": "validSignatureTimer",
        "offset": 0,
        "slot": "2",
        "type": "t_uint256"
      },
      {
        "astId": 1553,
        "contract": "contracts/TradingExtension.sol:TradingExtension",
        "label": "chainlinkEnabled",
        "offset": 0,
        "slot": "3",
        "type": "t_bool"
      },
      {
        "astId": 1557,
        "contract": "contracts/TradingExtension.sol:TradingExtension",
        "label": "isNode",
        "offset": 0,
        "slot": "4",
        "type": "t_mapping(t_address,t_bool)"
      },
      {
        "astId": 1561,
        "contract": "contracts/TradingExtension.sol:TradingExtension",
        "label": "minPositionSize",
        "offset": 0,
        "slot": "5",
        "type": "t_mapping(t_address,t_uint256)"
      },
      {
        "astId": 1565,
        "contract": "contracts/TradingExtension.sol:TradingExtension",
        "label": "allowedMargin",
        "offset": 0,
        "slot": "6",
        "type": "t_mapping(t_address,t_bool)"
      },
      {
        "astId": 1567,
        "contract": "contracts/TradingExtension.sol:TradingExtension",
        "label": "paused",
        "offset": 0,
        "slot": "7",
        "type": "t_bool"
      },
      {
        "astId": 1570,
        "contract": "contracts/TradingExtension.sol:TradingExtension",
        "label": "pairsContract",
        "offset": 1,
        "slot": "7",
        "type": "t_contract(IPairsContract)2304"
      },
      {
        "astId": 1573,
        "contract": "contracts/TradingExtension.sol:TradingExtension",
        "label": "referrals",
        "offset": 0,
        "slot": "8",
        "type": "t_contract(IReferrals)2529"
      },
      {
        "astId": 1576,
        "contract": "contracts/TradingExtension.sol:TradingExtension",
        "label": "position",
        "offset": 0,
        "slot": "9",
        "type": "t_contract(IPosition)2500"
      },
      {
        "astId": 1579,
        "contract": "contracts/TradingExtension.sol:TradingExtension",
        "label": "maxGasPrice",
        "offset": 0,
        "slot": "10",
        "type": "t_uint256"
      }
    ],
    "types": {
      "t_address": {
        "encoding": "inplace",
        "label": "address",
        "numberOfBytes": "20"
      },
      "t_bool": {
        "encoding": "inplace",
        "label": "bool",
        "numberOfBytes": "1"
      },
      "t_contract(IPairsContract)2304": {
        "encoding": "inplace",
        "label": "contract IPairsContract",
        "numberOfBytes": "20"
      },
      "t_contract(IPosition)2500": {
        "encoding": "inplace",
        "label": "contract IPosition",
        "numberOfBytes": "20"
      },
      "t_contract(IReferrals)2529": {
        "encoding": "inplace",
        "label": "contract IReferrals",
        "numberOfBytes": "20"
      },
      "t_mapping(t_address,t_bool)": {
        "encoding": "mapping",
        "key": "t_address",
        "label": "mapping(address => bool)",
        "numberOfBytes": "32",
        "value": "t_bool"
      },
      "t_mapping(t_address,t_uint256)": {
        "encoding": "mapping",
        "key": "t_address",
        "label": "mapping(address => uint256)",
        "numberOfBytes": "32",
        "value": "t_uint256"
      },
      "t_uint256": {
        "encoding": "inplace",
        "label": "uint256",
        "numberOfBytes": "32"
      }
    }
  }
}