{
  "_format": "hh-sol-artifact-1",
  "contractName": "MockDRewards",
  "sourceName": "contracts/mock/MockDRewards.sol",
  "abi": [
    {
      "inputs": [
        {
          "internalType": "address",
          "name": "_lpToken",
          "type": "address"
        },
        {
          "internalType": "address",
          "name": "_rewardToken",
          "type": "address"
        },
        {
          "internalType": "uint256",
          "name": "_rewardRate",
          "type": "uint256"
        }
      ],
      "stateMutability": "nonpayable",
      "type": "constructor"
    },
    {
      "inputs": [
        {
          "internalType": "address",
          "name": "account",
          "type": "address"
        }
      ],
      "name": "balanceOf",
      "outputs": [
        {
          "internalType": "uint256",
          "name": "",
          "type": "uint256"
        }
      ],
      "stateMutability": "view",
      "type": "function"
    },
    {
      "inputs": [
        {
          "internalType": "address",
          "name": "account",
          "type": "address"
        }
      ],
      "name": "earned",
      "outputs": [
        {
          "internalType": "uint256",
          "name": "",
          "type": "uint256"
        }
      ],
      "stateMutability": "view",
      "type": "function"
    },
    {
      "inputs": [],
      "name": "exit",
      "outputs": [],
      "stateMutability": "nonpayable",
      "type": "function"
    },
    {
      "inputs": [],
      "name": "getReward",
      "outputs": [],
      "stateMutability": "nonpayable",
      "type": "function"
    },
    {
      "inputs": [],
      "name": "lpToken",
      "outputs": [
        {
          "internalType": "contract IERC20",
          "name": "",
          "type": "address"
        }
      ],
      "stateMutability": "view",
      "type": "function"
    },
    {
      "inputs": [],
      "name": "rewardToken",
      "outputs": [
        {
          "internalType": "contract IERC20",
          "name": "",
          "type": "address"
        }
      ],
      "stateMutability": "view",
      "type": "function"
    },
    {
      "inputs": [
        {
          "internalType": "uint256",
          "name": "amount",
          "type": "uint256"
        }
      ],
      "name": "stake",
      "outputs": [],
      "stateMutability": "nonpayable",
      "type": "function"
    },
    {
      "inputs": [],
      "name": "totalSupply",
      "outputs": [
        {
          "internalType": "uint256",
          "name": "",
          "type": "uint256"
        }
      ],
      "stateMutability": "view",
      "type": "function"
    },
    {
      "inputs": [
        {
          "internalType": "uint256",
          "name": "amount",
          "type": "uint256"
        }
      ],
      "name": "withdraw",
      "outputs": [],
      "stateMutability": "nonpayable",
      "type": "function"
    }
  ],
  "bytecode": "0x608060405234801561001057600080fd5b506040516109f53803806109f58339818101604052606081101561003357600080fd5b5080516020820151604090920151600080546001600160a01b039384166001600160a01b0319918216179091556001805493909416921691909117909155600455610972806100836000396000f3fe608060405234801561001057600080fd5b50600436106100925760003560e01c80635fcbd285116100665780635fcbd285146100fe57806370a0823114610122578063a694fc3a14610148578063e9fad8ee14610165578063f7c618c11461016d57610092565b80628cc2621461009757806318160ddd146100cf5780632e1a7d4d146100d75780633d18b912146100f6575b600080fd5b6100bd600480360360208110156100ad57600080fd5b50356001600160a01b0316610175565b60408051918252519081900360200190f35b6100bd61019e565b6100f4600480360360208110156100ed57600080fd5b50356101a4565b005b6100f46101fc565b61010661031e565b604080516001600160a01b039092168252519081900360200190f35b6100bd6004803603602081101561013857600080fd5b50356001600160a01b031661032d565b6100f46004803603602081101561015e57600080fd5b5035610348565b6100f461039e565b6101066103b9565b60006101986103e861019260045461018c8661032d565b906103c8565b90610428565b92915050565b60025490565b6002546101b1908261048f565b600255336000908152600360205260409020546101ce908261048f565b3360008181526003602052604081209290925590546101f9916001600160a01b0390911690836104ec565b50565b600061020733610175565b905080156101f957600154604080516370a0823160e01b815230600482015290516001600160a01b03909216916370a0823191602480820192602092909190829003018186803b15801561025a57600080fd5b505afa15801561026e573d6000803e3d6000fd5b505050506040513d602081101561028457600080fd5b505181111561030757600154604080516370a0823160e01b815230600482015290516001600160a01b03909216916370a0823191602480820192602092909190829003018186803b1580156102d857600080fd5b505afa1580156102ec573d6000803e3d6000fd5b505050506040513d602081101561030257600080fd5b505190505b6001546101f9906001600160a01b031633836104ec565b6000546001600160a01b031681565b6001600160a01b031660009081526003602052604090205490565b6002546103559082610543565b600255336000908152600360205260409020546103729082610543565b3360008181526003602052604081209290925590546101f9916001600160a01b0390911690308461059d565b6103af6103aa3361032d565b6101a4565b6103b76101fc565b565b6001546001600160a01b031681565b6000826103d757506000610198565b828202828482816103e457fe5b04146104215760405162461bcd60e51b81526004018080602001828103825260218152602001806108f26021913960400191505060405180910390fd5b9392505050565b600080821161047e576040805162461bcd60e51b815260206004820152601a60248201527f536166654d6174683a206469766973696f6e206279207a65726f000000000000604482015290519081900360640190fd5b81838161048757fe5b049392505050565b6000828211156104e6576040805162461bcd60e51b815260206004820152601e60248201527f536166654d6174683a207375627472616374696f6e206f766572666c6f770000604482015290519081900360640190fd5b50900390565b604080516001600160a01b038416602482015260448082018490528251808303909101815260649091019091526020810180516001600160e01b031663a9059cbb60e01b17905261053e9084906105fd565b505050565b600082820183811015610421576040805162461bcd60e51b815260206004820152601b60248201527f536166654d6174683a206164646974696f6e206f766572666c6f770000000000604482015290519081900360640190fd5b604080516001600160a01b0380861660248301528416604482015260648082018490528251808303909101815260849091019091526020810180516001600160e01b03166323b872dd60e01b1790526105f79085906105fd565b50505050565b6060610652826040518060400160405280602081526020017f5361666545524332303a206c6f772d6c6576656c2063616c6c206661696c6564815250856001600160a01b03166106ae9092919063ffffffff16565b80519091501561053e5780806020019051602081101561067157600080fd5b505161053e5760405162461bcd60e51b815260040180806020018281038252602a815260200180610913602a913960400191505060405180910390fd5b60606106bd84846000856106c5565b949350505050565b6060824710156107065760405162461bcd60e51b81526004018080602001828103825260268152602001806108cc6026913960400191505060405180910390fd5b61070f85610821565b610760576040805162461bcd60e51b815260206004820152601d60248201527f416464726573733a2063616c6c20746f206e6f6e2d636f6e7472616374000000604482015290519081900360640190fd5b60006060866001600160a01b031685876040518082805190602001908083835b6020831061079f5780518252601f199092019160209182019101610780565b6001836020036101000a03801982511681845116808217855250505050505090500191505060006040518083038185875af1925050503d8060008114610801576040519150601f19603f3d011682016040523d82523d6000602084013e610806565b606091505b5091509150610816828286610827565b979650505050505050565b3b151590565b60608315610836575081610421565b8251156108465782518084602001fd5b8160405162461bcd60e51b81526004018080602001828103825283818151815260200191508051906020019080838360005b83811015610890578181015183820152602001610878565b50505050905090810190601f1680156108bd5780820380516001836020036101000a031916815260200191505b509250505060405180910390fdfe416464726573733a20696e73756666696369656e742062616c616e636520666f722063616c6c536166654d6174683a206d756c7469706c69636174696f6e206f766572666c6f775361666545524332303a204552433230206f7065726174696f6e20646964206e6f742073756363656564a2646970667358221220a293ee5262a4f3f5448fc24eebc42a4cc45cea68163bfc7ec3b71b8928cdd1f764736f6c634300060c0033",
  "linkReferences": {},
  "deployedLinkReferences": {}
}