{
  "_format": "hh-sol-artifact-1",
  "contractName": "MockzpaToken",
  "sourceName": "contracts/mock/MockzpaToken.sol",
  "abi": [
    {
      "inputs": [
        {
          "internalType": "string",
          "name": "_name",
          "type": "string"
        },
        {
          "internalType": "string",
          "name": "_symbol",
          "type": "string"
        },
        {
          "internalType": "address",
          "name": "_underlyingAsset",
          "type": "address"
        }
      ],
      "stateMutability": "nonpayable",
      "type": "constructor"
    },
    {
      "anonymous": false,
      "inputs": [
        {
          "indexed": true,
          "internalType": "address",
          "name": "owner",
          "type": "address"
        },
        {
          "indexed": true,
          "internalType": "address",
          "name": "spender",
          "type": "address"
        },
        {
          "indexed": false,
          "internalType": "uint256",
          "name": "value",
          "type": "uint256"
        }
      ],
      "name": "Approval",
      "type": "event"
    },
    {
      "anonymous": false,
      "inputs": [
        {
          "indexed": true,
          "internalType": "address",
          "name": "from",
          "type": "address"
        },
        {
          "indexed": true,
          "internalType": "address",
          "name": "to",
          "type": "address"
        },
        {
          "indexed": false,
          "internalType": "uint256",
          "name": "value",
          "type": "uint256"
        }
      ],
      "name": "Transfer",
      "type": "event"
    },
    {
      "inputs": [
        {
          "internalType": "address",
          "name": "owner",
          "type": "address"
        },
        {
          "internalType": "address",
          "name": "spender",
          "type": "address"
        }
      ],
      "name": "allowance",
      "outputs": [
        {
          "internalType": "uint256",
          "name": "",
          "type": "uint256"
        }
      ],
      "stateMutability": "view",
      "type": "function"
    },
    {
      "inputs": [
        {
          "internalType": "address",
          "name": "spender",
          "type": "address"
        },
        {
          "internalType": "uint256",
          "name": "amount",
          "type": "uint256"
        }
      ],
      "name": "approve",
      "outputs": [
        {
          "internalType": "bool",
          "name": "",
          "type": "bool"
        }
      ],
      "stateMutability": "nonpayable",
      "type": "function"
    },
    {
      "inputs": [
        {
          "internalType": "address",
          "name": "account",
          "type": "address"
        }
      ],
      "name": "balanceOf",
      "outputs": [
        {
          "internalType": "uint256",
          "name": "",
          "type": "uint256"
        }
      ],
      "stateMutability": "view",
      "type": "function"
    },
    {
      "inputs": [],
      "name": "decimals",
      "outputs": [
        {
          "internalType": "uint8",
          "name": "",
          "type": "uint8"
        }
      ],
      "stateMutability": "view",
      "type": "function"
    },
    {
      "inputs": [
        {
          "internalType": "address",
          "name": "spender",
          "type": "address"
        },
        {
          "internalType": "uint256",
          "name": "subtractedValue",
          "type": "uint256"
        }
      ],
      "name": "decreaseAllowance",
      "outputs": [
        {
          "internalType": "bool",
          "name": "",
          "type": "bool"
        }
      ],
      "stateMutability": "nonpayable",
      "type": "function"
    },
    {
      "inputs": [
        {
          "internalType": "uint256",
          "name": "_amount",
          "type": "uint256"
        }
      ],
      "name": "deposit",
      "outputs": [],
      "stateMutability": "nonpayable",
      "type": "function"
    },
    {
      "inputs": [],
      "name": "endFee",
      "outputs": [
        {
          "internalType": "uint256",
          "name": "",
          "type": "uint256"
        }
      ],
      "stateMutability": "view",
      "type": "function"
    },
    {
      "inputs": [],
      "name": "feeDuration",
      "outputs": [
        {
          "internalType": "uint256",
          "name": "",
          "type": "uint256"
        }
      ],
      "stateMutability": "view",
      "type": "function"
    },
    {
      "inputs": [
        {
          "internalType": "address",
          "name": "spender",
          "type": "address"
        },
        {
          "internalType": "uint256",
          "name": "addedValue",
          "type": "uint256"
        }
      ],
      "name": "increaseAllowance",
      "outputs": [
        {
          "internalType": "bool",
          "name": "",
          "type": "bool"
        }
      ],
      "stateMutability": "nonpayable",
      "type": "function"
    },
    {
      "inputs": [],
      "name": "initialFee",
      "outputs": [
        {
          "internalType": "uint256",
          "name": "",
          "type": "uint256"
        }
      ],
      "stateMutability": "view",
      "type": "function"
    },
    {
      "inputs": [],
      "name": "name",
      "outputs": [
        {
          "internalType": "string",
          "name": "",
          "type": "string"
        }
      ],
      "stateMutability": "view",
      "type": "function"
    },
    {
      "inputs": [],
      "name": "pricePerToken",
      "outputs": [
        {
          "internalType": "uint256",
          "name": "",
          "type": "uint256"
        }
      ],
      "stateMutability": "view",
      "type": "function"
    },
    {
      "inputs": [
        {
          "internalType": "uint256",
          "name": "_amount",
          "type": "uint256"
        }
      ],
      "name": "redeem",
      "outputs": [],
      "stateMutability": "nonpayable",
      "type": "function"
    },
    {
      "inputs": [],
      "name": "symbol",
      "outputs": [
        {
          "internalType": "string",
          "name": "",
          "type": "string"
        }
      ],
      "stateMutability": "view",
      "type": "function"
    },
    {
      "inputs": [],
      "name": "totalSupply",
      "outputs": [
        {
          "internalType": "uint256",
          "name": "",
          "type": "uint256"
        }
      ],
      "stateMutability": "view",
      "type": "function"
    },
    {
      "inputs": [
        {
          "internalType": "address",
          "name": "recipient",
          "type": "address"
        },
        {
          "internalType": "uint256",
          "name": "amount",
          "type": "uint256"
        }
      ],
      "name": "transfer",
      "outputs": [
        {
          "internalType": "bool",
          "name": "",
          "type": "bool"
        }
      ],
      "stateMutability": "nonpayable",
      "type": "function"
    },
    {
      "inputs": [
        {
          "internalType": "address",
          "name": "sender",
          "type": "address"
        },
        {
          "internalType": "address",
          "name": "recipient",
          "type": "address"
        },
        {
          "internalType": "uint256",
          "name": "amount",
          "type": "uint256"
        }
      ],
      "name": "transferFrom",
      "outputs": [
        {
          "internalType": "bool",
          "name": "",
          "type": "bool"
        }
      ],
      "stateMutability": "nonpayable",
      "type": "function"
    },
    {
      "inputs": [],
      "name": "underlyingAsset",
      "outputs": [
        {
          "internalType": "address",
          "name": "",
          "type": "address"
        }
      ],
      "stateMutability": "view",
      "type": "function"
    }
  ],
  "bytecode": "0x60806040526103e8600655606460075562093a806008553480156200002357600080fd5b50604051620016bf380380620016bf833981810160405260608110156200004957600080fd5b81019080805160405193929190846401000000008211156200006a57600080fd5b9083019060208201858111156200008057600080fd5b82516401000000008111828201881017156200009b57600080fd5b82525081516020918201929091019080838360005b83811015620000ca578181015183820152602001620000b0565b50505050905090810190601f168015620000f85780820380516001836020036101000a031916815260200191505b50604052602001805160405193929190846401000000008211156200011c57600080fd5b9083019060208201858111156200013257600080fd5b82516401000000008111828201881017156200014d57600080fd5b82525081516020918201929091019080838360005b838110156200017c57818101518382015260200162000162565b50505050905090810190601f168015620001aa5780820380516001836020036101000a031916815260200191505b5060405260209081015185519093508592508491620001cf9160039185019062000222565b508051620001e590600490602084019062000222565b5050600580546001600160a01b0390931661010002610100600160a81b031960ff19909416601217939093169290921790915550620002be915050565b828054600181600116156101000203166002900490600052602060002090601f016020900481019282601f106200026557805160ff191683800117855562000295565b8280016001018555821562000295579182015b828111156200029557825182559160200191906001019062000278565b50620002a3929150620002a7565b5090565b5b80821115620002a35760008155600101620002a8565b6113f180620002ce6000396000f3fe608060405234801561001057600080fd5b50600436106101165760003560e01c80637158da7c116100a2578063a457c2d711610071578063a457c2d7146102e4578063a9059cbb14610310578063b6b55f251461033c578063db006a751461035b578063dd62ed3e1461037857610116565b80637158da7c146102a85780637b1b1de6146102cc57806395d89b41146102d45780639c00316e146102dc57610116565b806323b872dd116100e957806323b872dd146101fa578063313ce5671461023057806332ef9c871461024e578063395093511461025657806370a082311461028257610116565b806306fdde031461011b578063095ea7b3146101985780630a7d39f0146101d857806318160ddd146101f2575b600080fd5b6101236103a6565b6040805160208082528351818301528351919283929083019185019080838360005b8381101561015d578181015183820152602001610145565b50505050905090810190601f16801561018a5780820380516001836020036101000a031916815260200191505b509250505060405180910390f35b6101c4600480360360408110156101ae57600080fd5b506001600160a01b03813516906020013561043c565b604080519115158252519081900360200190f35b6101e061045a565b60408051918252519081900360200190f35b6101e0610460565b6101c46004803603606081101561021057600080fd5b506001600160a01b03813581169160208101359091169060400135610466565b6102386104ee565b6040805160ff9092168252519081900360200190f35b6101e06104f7565b6101c46004803603604081101561026c57600080fd5b506001600160a01b0381351690602001356104fd565b6101e06004803603602081101561029857600080fd5b50356001600160a01b031661054b565b6102b0610566565b604080516001600160a01b039092168252519081900360200190f35b6101e061057a565b610123610586565b6101e06105e7565b6101c4600480360360408110156102fa57600080fd5b506001600160a01b0381351690602001356105ed565b6101c46004803603604081101561032657600080fd5b506001600160a01b038135169060200135610655565b6103596004803603602081101561035257600080fd5b5035610669565b005b6103596004803603602081101561037157600080fd5b50356106e3565b6101e06004803603604081101561038e57600080fd5b506001600160a01b0381358116916020013516610855565b60038054604080516020601f60026000196101006001881615020190951694909404938401819004810282018101909252828152606093909290918301828280156104325780601f1061040757610100808354040283529160200191610432565b820191906000526020600020905b81548152906001019060200180831161041557829003601f168201915b5050505050905090565b6000610450610449610880565b8484610884565b5060015b92915050565b60075481565b60025490565b6000610473848484610970565b6104e38461047f610880565b6104de856040518060600160405280602881526020016112db602891396001600160a01b038a166000908152600160205260408120906104bd610880565b6001600160a01b031681526020810191909152604001600020549190610acb565b610884565b5060015b9392505050565b60055460ff1690565b60085481565b600061045061050a610880565b846104de856001600061051b610880565b6001600160a01b03908116825260208083019390935260409182016000908120918c168152925290205490610b62565b6001600160a01b031660009081526020819052604090205490565b60055461010090046001600160a01b031681565b671bc16d674ec8000090565b60048054604080516020601f60026000196101006001881615020190951694909404938401819004810282018101909252828152606093909290918301828280156104325780601f1061040757610100808354040283529160200191610432565b60065481565b60006104506105fa610880565b846104de856040518060600160405280602581526020016113976025913960016000610624610880565b6001600160a01b03908116825260208083019390935260409182016000908120918d16815292529020549190610acb565b6000610450610662610880565b8484610970565b600061068e61067661057a565b61068884670de0b6b3a7640000610bbc565b90610c15565b6005549091506106ae9061010090046001600160a01b0316333085610c7c565b6106b83382610cd6565b42600960006106c5610880565b6001600160a01b031681526020810191909152604001600020555050565b6000610703670de0b6b3a76400006106886106fc61057a565b8590610bbc565b905061070f3383610dc6565b6009600061071b610880565b6001600160a01b03168152602081019190915260400160002054610761574260096000610746610880565b6001600160a01b031681526020810191909152604001600020555b60006107b160085461068861079c6009600061077b610880565b6001600160a01b031681526020810191909152604001600020544290610ec2565b6007546006546107ab91610ec2565b90610bbc565b90506107ca600754600654610ec290919063ffffffff16565b8111156107e3576007546006546107e091610ec2565b90505b6006546000906107f39083610ec2565b9050610806620186a06106888584610bbc565b90506108128382610ec2565b6005549093506108319061010090046001600160a01b03163385610f1f565b60055461084f9061010090046001600160a01b031661dead83610f1f565b50505050565b6001600160a01b03918216600090815260016020908152604080832093909416825291909152205490565b3390565b6001600160a01b0383166108c95760405162461bcd60e51b81526004018080602001828103825260248152602001806113496024913960400191505060405180910390fd5b6001600160a01b03821661090e5760405162461bcd60e51b815260040180806020018281038252602281526020018061124c6022913960400191505060405180910390fd5b6001600160a01b03808416600081815260016020908152604080832094871680845294825291829020859055815185815291517f8c5be1e5ebec7d5bd14f71427d1e84f3dd0314c0f7b2291e5b200ac8c7c3b9259281900390910190a3505050565b6001600160a01b0383166109b55760405162461bcd60e51b81526004018080602001828103825260258152602001806113246025913960400191505060405180910390fd5b6001600160a01b0382166109fa5760405162461bcd60e51b81526004018080602001828103825260238152602001806112076023913960400191505060405180910390fd5b610a05838383610f71565b610a428160405180606001604052806026815260200161126e602691396001600160a01b0386166000908152602081905260409020549190610acb565b6001600160a01b038085166000908152602081905260408082209390935590841681522054610a719082610b62565b6001600160a01b038084166000818152602081815260409182902094909455805185815290519193928716927fddf252ad1be2c89b69c2b068fc378daa952ba7f163c4a11628f55a4df523b3ef92918290030190a3505050565b60008184841115610b5a5760405162461bcd60e51b81526004018080602001828103825283818151815260200191508051906020019080838360005b83811015610b1f578181015183820152602001610b07565b50505050905090810190601f168015610b4c5780820380516001836020036101000a031916815260200191505b509250505060405180910390fd5b505050900390565b6000828201838110156104e7576040805162461bcd60e51b815260206004820152601b60248201527f536166654d6174683a206164646974696f6e206f766572666c6f770000000000604482015290519081900360640190fd5b600082610bcb57506000610454565b82820282848281610bd857fe5b04146104e75760405162461bcd60e51b81526004018080602001828103825260218152602001806112ba6021913960400191505060405180910390fd5b6000808211610c6b576040805162461bcd60e51b815260206004820152601a60248201527f536166654d6174683a206469766973696f6e206279207a65726f000000000000604482015290519081900360640190fd5b818381610c7457fe5b049392505050565b604080516001600160a01b0380861660248301528416604482015260648082018490528251808303909101815260849091019091526020810180516001600160e01b03166323b872dd60e01b17905261084f908590610f76565b6001600160a01b038216610d31576040805162461bcd60e51b815260206004820152601f60248201527f45524332303a206d696e7420746f20746865207a65726f206164647265737300604482015290519081900360640190fd5b610d3d60008383610f71565b600254610d4a9082610b62565b6002556001600160a01b038216600090815260208190526040902054610d709082610b62565b6001600160a01b0383166000818152602081815260408083209490945583518581529351929391927fddf252ad1be2c89b69c2b068fc378daa952ba7f163c4a11628f55a4df523b3ef9281900390910190a35050565b6001600160a01b038216610e0b5760405162461bcd60e51b81526004018080602001828103825260218152602001806113036021913960400191505060405180910390fd5b610e1782600083610f71565b610e548160405180606001604052806022815260200161122a602291396001600160a01b0385166000908152602081905260409020549190610acb565b6001600160a01b038316600090815260208190526040902055600254610e7a9082610ec2565b6002556040805182815290516000916001600160a01b038516917fddf252ad1be2c89b69c2b068fc378daa952ba7f163c4a11628f55a4df523b3ef9181900360200190a35050565b600082821115610f19576040805162461bcd60e51b815260206004820152601e60248201527f536166654d6174683a207375627472616374696f6e206f766572666c6f770000604482015290519081900360640190fd5b50900390565b604080516001600160a01b038416602482015260448082018490528251808303909101815260649091019091526020810180516001600160e01b031663a9059cbb60e01b179052610f71908490610f76565b505050565b6060610fcb826040518060400160405280602081526020017f5361666545524332303a206c6f772d6c6576656c2063616c6c206661696c6564815250856001600160a01b03166110279092919063ffffffff16565b805190915015610f7157808060200190516020811015610fea57600080fd5b5051610f715760405162461bcd60e51b815260040180806020018281038252602a81526020018061136d602a913960400191505060405180910390fd5b6060611036848460008561103e565b949350505050565b60608247101561107f5760405162461bcd60e51b81526004018080602001828103825260268152602001806112946026913960400191505060405180910390fd5b6110888561119a565b6110d9576040805162461bcd60e51b815260206004820152601d60248201527f416464726573733a2063616c6c20746f206e6f6e2d636f6e7472616374000000604482015290519081900360640190fd5b60006060866001600160a01b031685876040518082805190602001908083835b602083106111185780518252601f1990920191602091820191016110f9565b6001836020036101000a03801982511681845116808217855250505050505090500191505060006040518083038185875af1925050503d806000811461117a576040519150601f19603f3d011682016040523d82523d6000602084013e61117f565b606091505b509150915061118f8282866111a0565b979650505050505050565b3b151590565b606083156111af5750816104e7565b8251156111bf5782518084602001fd5b60405162461bcd60e51b8152602060048201818152845160248401528451859391928392604401919085019080838360008315610b1f578181015183820152602001610b0756fe45524332303a207472616e7366657220746f20746865207a65726f206164647265737345524332303a206275726e20616d6f756e7420657863656564732062616c616e636545524332303a20617070726f766520746f20746865207a65726f206164647265737345524332303a207472616e7366657220616d6f756e7420657863656564732062616c616e6365416464726573733a20696e73756666696369656e742062616c616e636520666f722063616c6c536166654d6174683a206d756c7469706c69636174696f6e206f766572666c6f7745524332303a207472616e7366657220616d6f756e74206578636565647320616c6c6f77616e636545524332303a206275726e2066726f6d20746865207a65726f206164647265737345524332303a207472616e736665722066726f6d20746865207a65726f206164647265737345524332303a20617070726f76652066726f6d20746865207a65726f20616464726573735361666545524332303a204552433230206f7065726174696f6e20646964206e6f74207375636365656445524332303a2064656372656173656420616c6c6f77616e63652062656c6f77207a65726fa26469706673582212202c219e44f3854f8118ae14bfaa5c7c04a795126d9d2a06fe37f0f9579ef79e6964736f6c634300060c0033",
  "linkReferences": {},
  "deployedLinkReferences": {}
}