{
  "_format": "hh-sol-artifact-1",
  "contractName": "VaultToken",
  "sourceName": "contracts/v3/VaultToken.sol",
  "abi": [
    {
      "inputs": [
        {
          "internalType": "string",
          "name": "_name",
          "type": "string"
        },
        {
          "internalType": "string",
          "name": "_symbol",
          "type": "string"
        }
      ],
      "stateMutability": "nonpayable",
      "type": "constructor"
    },
    {
      "anonymous": false,
      "inputs": [
        {
          "indexed": true,
          "internalType": "address",
          "name": "owner",
          "type": "address"
        },
        {
          "indexed": true,
          "internalType": "address",
          "name": "spender",
          "type": "address"
        },
        {
          "indexed": false,
          "internalType": "uint256",
          "name": "value",
          "type": "uint256"
        }
      ],
      "name": "Approval",
      "type": "event"
    },
    {
      "anonymous": false,
      "inputs": [
        {
          "indexed": true,
          "internalType": "address",
          "name": "from",
          "type": "address"
        },
        {
          "indexed": true,
          "internalType": "address",
          "name": "to",
          "type": "address"
        },
        {
          "indexed": false,
          "internalType": "uint256",
          "name": "value",
          "type": "uint256"
        },
        {
          "indexed": false,
          "internalType": "bytes",
          "name": "data",
          "type": "bytes"
        }
      ],
      "name": "Transfer",
      "type": "event"
    },
    {
      "anonymous": false,
      "inputs": [
        {
          "indexed": true,
          "internalType": "address",
          "name": "from",
          "type": "address"
        },
        {
          "indexed": true,
          "internalType": "address",
          "name": "to",
          "type": "address"
        },
        {
          "indexed": false,
          "internalType": "uint256",
          "name": "value",
          "type": "uint256"
        }
      ],
      "name": "Transfer",
      "type": "event"
    },
    {
      "inputs": [
        {
          "internalType": "address",
          "name": "owner",
          "type": "address"
        },
        {
          "internalType": "address",
          "name": "spender",
          "type": "address"
        }
      ],
      "name": "allowance",
      "outputs": [
        {
          "internalType": "uint256",
          "name": "",
          "type": "uint256"
        }
      ],
      "stateMutability": "view",
      "type": "function"
    },
    {
      "inputs": [
        {
          "internalType": "address",
          "name": "spender",
          "type": "address"
        },
        {
          "internalType": "uint256",
          "name": "amount",
          "type": "uint256"
        }
      ],
      "name": "approve",
      "outputs": [
        {
          "internalType": "bool",
          "name": "",
          "type": "bool"
        }
      ],
      "stateMutability": "nonpayable",
      "type": "function"
    },
    {
      "inputs": [
        {
          "internalType": "address",
          "name": "account",
          "type": "address"
        }
      ],
      "name": "balanceOf",
      "outputs": [
        {
          "internalType": "uint256",
          "name": "",
          "type": "uint256"
        }
      ],
      "stateMutability": "view",
      "type": "function"
    },
    {
      "inputs": [],
      "name": "decimals",
      "outputs": [
        {
          "internalType": "uint8",
          "name": "",
          "type": "uint8"
        }
      ],
      "stateMutability": "view",
      "type": "function"
    },
    {
      "inputs": [
        {
          "internalType": "address",
          "name": "spender",
          "type": "address"
        },
        {
          "internalType": "uint256",
          "name": "subtractedValue",
          "type": "uint256"
        }
      ],
      "name": "decreaseAllowance",
      "outputs": [
        {
          "internalType": "bool",
          "name": "",
          "type": "bool"
        }
      ],
      "stateMutability": "nonpayable",
      "type": "function"
    },
    {
      "inputs": [
        {
          "internalType": "address",
          "name": "spender",
          "type": "address"
        },
        {
          "internalType": "uint256",
          "name": "subtractedValue",
          "type": "uint256"
        }
      ],
      "name": "decreaseApproval",
      "outputs": [
        {
          "internalType": "bool",
          "name": "",
          "type": "bool"
        }
      ],
      "stateMutability": "nonpayable",
      "type": "function"
    },
    {
      "inputs": [
        {
          "internalType": "address",
          "name": "spender",
          "type": "address"
        },
        {
          "internalType": "uint256",
          "name": "addedValue",
          "type": "uint256"
        }
      ],
      "name": "increaseAllowance",
      "outputs": [
        {
          "internalType": "bool",
          "name": "",
          "type": "bool"
        }
      ],
      "stateMutability": "nonpayable",
      "type": "function"
    },
    {
      "inputs": [
        {
          "internalType": "address",
          "name": "spender",
          "type": "address"
        },
        {
          "internalType": "uint256",
          "name": "addedValue",
          "type": "uint256"
        }
      ],
      "name": "increaseApproval",
      "outputs": [
        {
          "internalType": "bool",
          "name": "",
          "type": "bool"
        }
      ],
      "stateMutability": "nonpayable",
      "type": "function"
    },
    {
      "inputs": [],
      "name": "name",
      "outputs": [
        {
          "internalType": "string",
          "name": "",
          "type": "string"
        }
      ],
      "stateMutability": "view",
      "type": "function"
    },
    {
      "inputs": [],
      "name": "symbol",
      "outputs": [
        {
          "internalType": "string",
          "name": "",
          "type": "string"
        }
      ],
      "stateMutability": "view",
      "type": "function"
    },
    {
      "inputs": [],
      "name": "totalSupply",
      "outputs": [
        {
          "internalType": "uint256",
          "name": "",
          "type": "uint256"
        }
      ],
      "stateMutability": "view",
      "type": "function"
    },
    {
      "inputs": [
        {
          "internalType": "address",
          "name": "recipient",
          "type": "address"
        },
        {
          "internalType": "uint256",
          "name": "amount",
          "type": "uint256"
        }
      ],
      "name": "transfer",
      "outputs": [
        {
          "internalType": "bool",
          "name": "",
          "type": "bool"
        }
      ],
      "stateMutability": "nonpayable",
      "type": "function"
    },
    {
      "inputs": [
        {
          "internalType": "address",
          "name": "_to",
          "type": "address"
        },
        {
          "internalType": "uint256",
          "name": "_value",
          "type": "uint256"
        },
        {
          "internalType": "bytes",
          "name": "_data",
          "type": "bytes"
        }
      ],
      "name": "transferAndCall",
      "outputs": [
        {
          "internalType": "bool",
          "name": "success",
          "type": "bool"
        }
      ],
      "stateMutability": "nonpayable",
      "type": "function"
    },
    {
      "inputs": [
        {
          "internalType": "address",
          "name": "sender",
          "type": "address"
        },
        {
          "internalType": "address",
          "name": "recipient",
          "type": "address"
        },
        {
          "internalType": "uint256",
          "name": "amount",
          "type": "uint256"
        }
      ],
      "name": "transferFrom",
      "outputs": [
        {
          "internalType": "bool",
          "name": "",
          "type": "bool"
        }
      ],
      "stateMutability": "nonpayable",
      "type": "function"
    }
  ],
  "bytecode": "0x60806040523480156200001157600080fd5b506040516200106638038062001066833981810160405260408110156200003757600080fd5b81019080805160405193929190846401000000008211156200005857600080fd5b9083019060208201858111156200006e57600080fd5b82516401000000008111828201881017156200008957600080fd5b82525081516020918201929091019080838360005b83811015620000b85781810151838201526020016200009e565b50505050905090810190601f168015620000e65780820380516001836020036101000a031916815260200191505b50604052602001805160405193929190846401000000008211156200010a57600080fd5b9083019060208201858111156200012057600080fd5b82516401000000008111828201881017156200013b57600080fd5b82525081516020918201929091019080838360005b838110156200016a57818101518382015260200162000150565b50505050905090810190601f168015620001985780820380516001836020036101000a031916815260200191505b50604052505082518391508290620001b8906003906020850190620001e7565b508051620001ce906004906020840190620001e7565b50506005805460ff191660121790555062000283915050565b828054600181600116156101000203166002900490600052602060002090601f016020900481019282601f106200022a57805160ff19168380011785556200025a565b828001600101855582156200025a579182015b828111156200025a5782518255916020019190600101906200023d565b50620002689291506200026c565b5090565b5b808211156200026857600081556001016200026d565b610dd380620002936000396000f3fe608060405234801561001057600080fd5b50600436106100ea5760003560e01c8063661884631161008c578063a457c2d711610066578063a457c2d71461035b578063a9059cbb14610387578063d73dd623146103b3578063dd62ed3e146103df576100ea565b8063661884631461030157806370a082311461032d57806395d89b4114610353576100ea565b806323b872dd116100c857806323b872dd146101c6578063313ce567146101fc578063395093511461021a5780634000aea014610246576100ea565b806306fdde03146100ef578063095ea7b31461016c57806318160ddd146101ac575b600080fd5b6100f761040d565b6040805160208082528351818301528351919283929083019185019080838360005b83811015610131578181015183820152602001610119565b50505050905090810190601f16801561015e5780820380516001836020036101000a031916815260200191505b509250505060405180910390f35b6101986004803603604081101561018257600080fd5b506001600160a01b0381351690602001356104a3565b604080519115158252519081900360200190f35b6101b46104c0565b60408051918252519081900360200190f35b610198600480360360608110156101dc57600080fd5b506001600160a01b038135811691602081013590911690604001356104c6565b61020461054d565b6040805160ff9092168252519081900360200190f35b6101986004803603604081101561023057600080fd5b506001600160a01b038135169060200135610556565b6101986004803603606081101561025c57600080fd5b6001600160a01b038235169160208101359181019060608101604082013564010000000081111561028c57600080fd5b82018360208201111561029e57600080fd5b803590602001918460018302840111640100000000831117156102c057600080fd5b91908080601f0160208091040260200160405190810160405280939291908181526020018383808284376000920191909152509295506105a4945050505050565b6101986004803603604081101561031757600080fd5b506001600160a01b03813516906020013561067f565b6101b46004803603602081101561034357600080fd5b50356001600160a01b0316610692565b6100f76106ad565b6101986004803603604081101561037157600080fd5b506001600160a01b03813516906020013561070e565b6101986004803603604081101561039d57600080fd5b506001600160a01b038135169060200135610776565b610198600480360360408110156103c957600080fd5b506001600160a01b03813516906020013561078a565b6101b4600480360360408110156103f557600080fd5b506001600160a01b0381358116916020013516610796565b60038054604080516020601f60026000196101006001881615020190951694909404938401819004810282018101909252828152606093909290918301828280156104995780601f1061046e57610100808354040283529160200191610499565b820191906000526020600020905b81548152906001019060200180831161047c57829003601f168201915b5050505050905090565b60006104b76104b06107c1565b84846107c5565b50600192915050565b60025490565b60006104d3848484610825565b610543846104df6107c1565b61053e85604051806060016040528060288152602001610d08602891396001600160a01b038a1660009081526001602052604081209061051d6107c1565b6001600160a01b03168152602081019190915260400160002054919061087f565b6107c5565b5060019392505050565b60055460ff1690565b60006104b76105636107c1565b8461053e85600160006105746107c1565b6001600160a01b03908116825260208083019390935260409182016000908120918c168152925290205490610916565b60006105b08484610776565b50836001600160a01b0316336001600160a01b03167fe19260aff97b920c7df27010903aeb9c8d2be5d310a2c67824cf3f15396e4c1685856040518083815260200180602001828103825283818151815260200191508051906020019080838360005b8381101561062b578181015183820152602001610613565b50505050905090810190601f1680156106585780820380516001836020036101000a031916815260200191505b50935050505060405180910390a361066f84610970565b1561054357610543848484610976565b600061068b838361070e565b9392505050565b6001600160a01b031660009081526020819052604090205490565b60048054604080516020601f60026000196101006001881615020190951694909404938401819004810282018101909252828152606093909290918301828280156104995780601f1061046e57610100808354040283529160200191610499565b60006104b761071b6107c1565b8461053e85604051806060016040528060258152602001610d7960259139600160006107456107c1565b6001600160a01b03908116825260208083019390935260409182016000908120918d1681529252902054919061087f565b60006104b76107836107c1565b8484610825565b600061068b8383610556565b6001600160a01b03918216600090815260016020908152604080832093909416825291909152205490565b3390565b816001600160a01b038116301415610814576040805162461bcd60e51b815260206004820152600d60248201526c2176616c69644164647265737360981b604482015290519081900360640190fd5b61081f848484610a50565b50505050565b816001600160a01b038116301415610874576040805162461bcd60e51b815260206004820152600d60248201526c2176616c69644164647265737360981b604482015290519081900360640190fd5b61081f848484610b3c565b6000818484111561090e5760405162461bcd60e51b81526004018080602001828103825283818151815260200191508051906020019080838360005b838110156108d35781810151838201526020016108bb565b50505050905090810190601f1680156109005780820380516001836020036101000a031916815260200191505b509250505060405180910390fd5b505050900390565b60008282018381101561068b576040805162461bcd60e51b815260206004820152601b60248201527f536166654d6174683a206164646974696f6e206f766572666c6f770000000000604482015290519081900360640190fd5b3b151590565b604051635260769b60e11b815233600482018181526024830185905260606044840190815284516064850152845187946001600160a01b0386169463a4c0ed369490938993899360840190602085019080838360005b838110156109e45781810151838201526020016109cc565b50505050905090810190601f168015610a115780820380516001836020036101000a031916815260200191505b50945050505050600060405180830381600087803b158015610a3257600080fd5b505af1158015610a46573d6000803e3d6000fd5b5050505050505050565b6001600160a01b038316610a955760405162461bcd60e51b8152600401808060200182810382526024815260200180610d556024913960400191505060405180910390fd5b6001600160a01b038216610ada5760405162461bcd60e51b8152600401808060200182810382526022815260200180610cc06022913960400191505060405180910390fd5b6001600160a01b03808416600081815260016020908152604080832094871680845294825291829020859055815185815291517f8c5be1e5ebec7d5bd14f71427d1e84f3dd0314c0f7b2291e5b200ac8c7c3b9259281900390910190a3505050565b6001600160a01b038316610b815760405162461bcd60e51b8152600401808060200182810382526025815260200180610d306025913960400191505060405180910390fd5b6001600160a01b038216610bc65760405162461bcd60e51b8152600401808060200182810382526023815260200180610c9d6023913960400191505060405180910390fd5b610bd1838383610c97565b610c0e81604051806060016040528060268152602001610ce2602691396001600160a01b038616600090815260208190526040902054919061087f565b6001600160a01b038085166000908152602081905260408082209390935590841681522054610c3d9082610916565b6001600160a01b038084166000818152602081815260409182902094909455805185815290519193928716927fddf252ad1be2c89b69c2b068fc378daa952ba7f163c4a11628f55a4df523b3ef92918290030190a3505050565b50505056fe45524332303a207472616e7366657220746f20746865207a65726f206164647265737345524332303a20617070726f766520746f20746865207a65726f206164647265737345524332303a207472616e7366657220616d6f756e7420657863656564732062616c616e636545524332303a207472616e7366657220616d6f756e74206578636565647320616c6c6f77616e636545524332303a207472616e736665722066726f6d20746865207a65726f206164647265737345524332303a20617070726f76652066726f6d20746865207a65726f206164647265737345524332303a2064656372656173656420616c6c6f77616e63652062656c6f77207a65726fa2646970667358221220e3f895eeb90938e50ac1c0910f030de05ef17c88e406f9bb340a0581016b706264736f6c634300060c0033",
  "linkReferences": {},
  "deployedLinkReferences": {}
}