{
  "address": "0x9A5620779feF1928eF87c1111491212efC2C3cB8",
  "abi": [
    {
      "inputs": [
        {
          "internalType": "contract IERC20",
          "name": "weth",
          "type": "address"
        }
      ],
      "stateMutability": "nonpayable",
      "type": "constructor"
    },
    {
      "anonymous": false,
      "inputs": [
        {
          "indexed": true,
          "internalType": "address",
          "name": "masterContract",
          "type": "address"
        },
        {
          "indexed": false,
          "internalType": "bytes",
          "name": "data",
          "type": "bytes"
        },
        {
          "indexed": true,
          "internalType": "address",
          "name": "cloneAddress",
          "type": "address"
        }
      ],
      "name": "LogDeploy",
      "type": "event"
    },
    {
      "anonymous": false,
      "inputs": [
        {
          "indexed": true,
          "internalType": "contract IERC20",
          "name": "token",
          "type": "address"
        },
        {
          "indexed": true,
          "internalType": "address",
          "name": "from",
          "type": "address"
        },
        {
          "indexed": true,
          "internalType": "address",
          "name": "to",
          "type": "address"
        },
        {
          "indexed": false,
          "internalType": "uint256",
          "name": "amount",
          "type": "uint256"
        },
        {
          "indexed": false,
          "internalType": "uint256",
          "name": "share",
          "type": "uint256"
        }
      ],
      "name": "LogDeposit",
      "type": "event"
    },
    {
      "anonymous": false,
      "inputs": [
        {
          "indexed": true,
          "internalType": "address",
          "name": "borrower",
          "type": "address"
        },
        {
          "indexed": true,
          "internalType": "contract IERC20",
          "name": "token",
          "type": "address"
        },
        {
          "indexed": false,
          "internalType": "uint256",
          "name": "amount",
          "type": "uint256"
        },
        {
          "indexed": false,
          "internalType": "uint256",
          "name": "feeAmount",
          "type": "uint256"
        },
        {
          "indexed": true,
          "internalType": "address",
          "name": "receiver",
          "type": "address"
        }
      ],
      "name": "LogFlashLoan",
      "type": "event"
    },
    {
      "anonymous": false,
      "inputs": [
        {
          "indexed": true,
          "internalType": "address",
          "name": "protocol",
          "type": "address"
        }
      ],
      "name": "LogRegisterProtocol",
      "type": "event"
    },
    {
      "anonymous": false,
      "inputs": [
        {
          "indexed": true,
          "internalType": "address",
          "name": "masterContract",
          "type": "address"
        },
        {
          "indexed": true,
          "internalType": "address",
          "name": "user",
          "type": "address"
        },
        {
          "indexed": false,
          "internalType": "bool",
          "name": "approved",
          "type": "bool"
        }
      ],
      "name": "LogSetMasterContractApproval",
      "type": "event"
    },
    {
      "anonymous": false,
      "inputs": [
        {
          "indexed": true,
          "internalType": "contract IERC20",
          "name": "token",
          "type": "address"
        },
        {
          "indexed": false,
          "internalType": "uint256",
          "name": "amount",
          "type": "uint256"
        }
      ],
      "name": "LogStrategyDivest",
      "type": "event"
    },
    {
      "anonymous": false,
      "inputs": [
        {
          "indexed": true,
          "internalType": "contract IERC20",
          "name": "token",
          "type": "address"
        },
        {
          "indexed": false,
          "internalType": "uint256",
          "name": "amount",
          "type": "uint256"
        }
      ],
      "name": "LogStrategyInvest",
      "type": "event"
    },
    {
      "anonymous": false,
      "inputs": [
        {
          "indexed": true,
          "internalType": "contract IERC20",
          "name": "token",
          "type": "address"
        },
        {
          "indexed": false,
          "internalType": "uint256",
          "name": "amount",
          "type": "uint256"
        }
      ],
      "name": "LogStrategyLoss",
      "type": "event"
    },
    {
      "anonymous": false,
      "inputs": [
        {
          "indexed": true,
          "internalType": "contract IERC20",
          "name": "token",
          "type": "address"
        },
        {
          "indexed": false,
          "internalType": "uint256",
          "name": "amount",
          "type": "uint256"
        }
      ],
      "name": "LogStrategyProfit",
      "type": "event"
    },
    {
      "anonymous": false,
      "inputs": [
        {
          "indexed": true,
          "internalType": "contract IERC20",
          "name": "token",
          "type": "address"
        },
        {
          "indexed": true,
          "internalType": "contract IStrategy",
          "name": "strategy",
          "type": "address"
        }
      ],
      "name": "LogStrategyQueued",
      "type": "event"
    },
    {
      "anonymous": false,
      "inputs": [
        {
          "indexed": true,
          "internalType": "contract IERC20",
          "name": "token",
          "type": "address"
        },
        {
          "indexed": true,
          "internalType": "contract IStrategy",
          "name": "strategy",
          "type": "address"
        }
      ],
      "name": "LogStrategySet",
      "type": "event"
    },
    {
      "anonymous": false,
      "inputs": [
        {
          "indexed": true,
          "internalType": "contract IERC20",
          "name": "token",
          "type": "address"
        },
        {
          "indexed": false,
          "internalType": "uint256",
          "name": "targetPercentage",
          "type": "uint256"
        }
      ],
      "name": "LogStrategyTargetPercentage",
      "type": "event"
    },
    {
      "anonymous": false,
      "inputs": [
        {
          "indexed": true,
          "internalType": "contract IERC20",
          "name": "token",
          "type": "address"
        },
        {
          "indexed": true,
          "internalType": "address",
          "name": "from",
          "type": "address"
        },
        {
          "indexed": true,
          "internalType": "address",
          "name": "to",
          "type": "address"
        },
        {
          "indexed": false,
          "internalType": "uint256",
          "name": "share",
          "type": "uint256"
        }
      ],
      "name": "LogTransfer",
      "type": "event"
    },
    {
      "anonymous": false,
      "inputs": [
        {
          "indexed": true,
          "internalType": "address",
          "name": "masterContract",
          "type": "address"
        },
        {
          "indexed": false,
          "internalType": "bool",
          "name": "approved",
          "type": "bool"
        }
      ],
      "name": "LogWhiteListMasterContract",
      "type": "event"
    },
    {
      "anonymous": false,
      "inputs": [
        {
          "indexed": true,
          "internalType": "contract IERC20",
          "name": "token",
          "type": "address"
        },
        {
          "indexed": true,
          "internalType": "address",
          "name": "from",
          "type": "address"
        },
        {
          "indexed": true,
          "internalType": "address",
          "name": "to",
          "type": "address"
        },
        {
          "indexed": false,
          "internalType": "uint256",
          "name": "amount",
          "type": "uint256"
        },
        {
          "indexed": false,
          "internalType": "uint256",
          "name": "share",
          "type": "uint256"
        }
      ],
      "name": "LogWithdraw",
      "type": "event"
    },
    {
      "anonymous": false,
      "inputs": [
        {
          "indexed": true,
          "internalType": "address",
          "name": "previousOwner",
          "type": "address"
        },
        {
          "indexed": true,
          "internalType": "address",
          "name": "newOwner",
          "type": "address"
        }
      ],
      "name": "OwnershipTransferred",
      "type": "event"
    },
    {
      "inputs": [],
      "name": "DOMAIN_SEPARATOR",
      "outputs": [
        {
          "internalType": "bytes32",
          "name": "",
          "type": "bytes32"
        }
      ],
      "stateMutability": "view",
      "type": "function"
    },
    {
      "inputs": [
        {
          "internalType": "contract IERC20",
          "name": "token",
          "type": "address"
        },
        {
          "internalType": "uint256",
          "name": "amount",
          "type": "uint256"
        }
      ],
      "name": "addProfit",
      "outputs": [],
      "stateMutability": "nonpayable",
      "type": "function"
    },
    {
      "inputs": [
        {
          "internalType": "contract IERC20",
          "name": "",
          "type": "address"
        },
        {
          "internalType": "address",
          "name": "",
          "type": "address"
        }
      ],
      "name": "balanceOf",
      "outputs": [
        {
          "internalType": "uint256",
          "name": "",
          "type": "uint256"
        }
      ],
      "stateMutability": "view",
      "type": "function"
    },
    {
      "inputs": [
        {
          "internalType": "bytes[]",
          "name": "calls",
          "type": "bytes[]"
        },
        {
          "internalType": "bool",
          "name": "revertOnFail",
          "type": "bool"
        }
      ],
      "name": "batch",
      "outputs": [
        {
          "internalType": "bool[]",
          "name": "successes",
          "type": "bool[]"
        },
        {
          "internalType": "bytes[]",
          "name": "results",
          "type": "bytes[]"
        }
      ],
      "stateMutability": "payable",
      "type": "function"
    },
    {
      "inputs": [
        {
          "internalType": "contract IBatchFlashBorrower",
          "name": "borrower",
          "type": "address"
        },
        {
          "internalType": "address[]",
          "name": "receivers",
          "type": "address[]"
        },
        {
          "internalType": "contract IERC20[]",
          "name": "tokens",
          "type": "address[]"
        },
        {
          "internalType": "uint256[]",
          "name": "amounts",
          "type": "uint256[]"
        },
        {
          "internalType": "bytes",
          "name": "data",
          "type": "bytes"
        }
      ],
      "name": "batchFlashLoan",
      "outputs": [],
      "stateMutability": "nonpayable",
      "type": "function"
    },
    {
      "inputs": [],
      "name": "claimOwnership",
      "outputs": [],
      "stateMutability": "nonpayable",
      "type": "function"
    },
    {
      "inputs": [
        {
          "internalType": "address",
          "name": "masterContract",
          "type": "address"
        },
        {
          "internalType": "bytes",
          "name": "data",
          "type": "bytes"
        },
        {
          "internalType": "bool",
          "name": "useCreate2",
          "type": "bool"
        }
      ],
      "name": "deploy",
      "outputs": [
        {
          "internalType": "address",
          "name": "cloneAddress",
          "type": "address"
        }
      ],
      "stateMutability": "payable",
      "type": "function"
    },
    {
      "inputs": [
        {
          "internalType": "contract IERC20",
          "name": "token_",
          "type": "address"
        },
        {
          "internalType": "address",
          "name": "from",
          "type": "address"
        },
        {
          "internalType": "address",
          "name": "to",
          "type": "address"
        },
        {
          "internalType": "uint256",
          "name": "amount",
          "type": "uint256"
        },
        {
          "internalType": "uint256",
          "name": "share",
          "type": "uint256"
        }
      ],
      "name": "deposit",
      "outputs": [
        {
          "internalType": "uint256",
          "name": "amountOut",
          "type": "uint256"
        },
        {
          "internalType": "uint256",
          "name": "shareOut",
          "type": "uint256"
        }
      ],
      "stateMutability": "payable",
      "type": "function"
    },
    {
      "inputs": [
        {
          "internalType": "contract IFlashBorrower",
          "name": "borrower",
          "type": "address"
        },
        {
          "internalType": "address",
          "name": "receiver",
          "type": "address"
        },
        {
          "internalType": "contract IERC20",
          "name": "token",
          "type": "address"
        },
        {
          "internalType": "uint256",
          "name": "amount",
          "type": "uint256"
        },
        {
          "internalType": "bytes",
          "name": "data",
          "type": "bytes"
        }
      ],
      "name": "flashLoan",
      "outputs": [],
      "stateMutability": "nonpayable",
      "type": "function"
    },
    {
      "inputs": [
        {
          "internalType": "contract IERC20",
          "name": "token",
          "type": "address"
        },
        {
          "internalType": "bool",
          "name": "balance",
          "type": "bool"
        },
        {
          "internalType": "uint256",
          "name": "maxChangeAmount",
          "type": "uint256"
        }
      ],
      "name": "harvest",
      "outputs": [],
      "stateMutability": "nonpayable",
      "type": "function"
    },
    {
      "inputs": [
        {
          "internalType": "address",
          "name": "",
          "type": "address"
        },
        {
          "internalType": "address",
          "name": "",
          "type": "address"
        }
      ],
      "name": "masterContractApproved",
      "outputs": [
        {
          "internalType": "bool",
          "name": "",
          "type": "bool"
        }
      ],
      "stateMutability": "view",
      "type": "function"
    },
    {
      "inputs": [
        {
          "internalType": "address",
          "name": "",
          "type": "address"
        }
      ],
      "name": "masterContractOf",
      "outputs": [
        {
          "internalType": "address",
          "name": "",
          "type": "address"
        }
      ],
      "stateMutability": "view",
      "type": "function"
    },
    {
      "inputs": [
        {
          "internalType": "address",
          "name": "",
          "type": "address"
        }
      ],
      "name": "nonces",
      "outputs": [
        {
          "internalType": "uint256",
          "name": "",
          "type": "uint256"
        }
      ],
      "stateMutability": "view",
      "type": "function"
    },
    {
      "inputs": [],
      "name": "owner",
      "outputs": [
        {
          "internalType": "address",
          "name": "",
          "type": "address"
        }
      ],
      "stateMutability": "view",
      "type": "function"
    },
    {
      "inputs": [],
      "name": "pendingOwner",
      "outputs": [
        {
          "internalType": "address",
          "name": "",
          "type": "address"
        }
      ],
      "stateMutability": "view",
      "type": "function"
    },
    {
      "inputs": [
        {
          "internalType": "contract IERC20",
          "name": "",
          "type": "address"
        }
      ],
      "name": "pendingStrategy",
      "outputs": [
        {
          "internalType": "contract IStrategy",
          "name": "",
          "type": "address"
        }
      ],
      "stateMutability": "view",
      "type": "function"
    },
    {
      "inputs": [
        {
          "internalType": "contract IERC20",
          "name": "token",
          "type": "address"
        },
        {
          "internalType": "address",
          "name": "from",
          "type": "address"
        },
        {
          "internalType": "address",
          "name": "to",
          "type": "address"
        },
        {
          "internalType": "uint256",
          "name": "amount",
          "type": "uint256"
        },
        {
          "internalType": "uint256",
          "name": "deadline",
          "type": "uint256"
        },
        {
          "internalType": "uint8",
          "name": "v",
          "type": "uint8"
        },
        {
          "internalType": "bytes32",
          "name": "r",
          "type": "bytes32"
        },
        {
          "internalType": "bytes32",
          "name": "s",
          "type": "bytes32"
        }
      ],
      "name": "permitToken",
      "outputs": [],
      "stateMutability": "nonpayable",
      "type": "function"
    },
    {
      "inputs": [],
      "name": "registerProtocol",
      "outputs": [],
      "stateMutability": "nonpayable",
      "type": "function"
    },
    {
      "inputs": [
        {
          "internalType": "address",
          "name": "user",
          "type": "address"
        },
        {
          "internalType": "address",
          "name": "masterContract",
          "type": "address"
        },
        {
          "internalType": "bool",
          "name": "approved",
          "type": "bool"
        },
        {
          "internalType": "uint8",
          "name": "v",
          "type": "uint8"
        },
        {
          "internalType": "bytes32",
          "name": "r",
          "type": "bytes32"
        },
        {
          "internalType": "bytes32",
          "name": "s",
          "type": "bytes32"
        }
      ],
      "name": "setMasterContractApproval",
      "outputs": [],
      "stateMutability": "nonpayable",
      "type": "function"
    },
    {
      "inputs": [
        {
          "internalType": "contract IERC20",
          "name": "token",
          "type": "address"
        },
        {
          "internalType": "contract IStrategy",
          "name": "newStrategy",
          "type": "address"
        }
      ],
      "name": "setStrategy",
      "outputs": [],
      "stateMutability": "nonpayable",
      "type": "function"
    },
    {
      "inputs": [
        {
          "internalType": "contract IERC20",
          "name": "token",
          "type": "address"
        },
        {
          "internalType": "uint64",
          "name": "targetPercentage_",
          "type": "uint64"
        }
      ],
      "name": "setStrategyTargetPercentage",
      "outputs": [],
      "stateMutability": "nonpayable",
      "type": "function"
    },
    {
      "inputs": [
        {
          "internalType": "contract IERC20",
          "name": "",
          "type": "address"
        }
      ],
      "name": "strategy",
      "outputs": [
        {
          "internalType": "contract IStrategy",
          "name": "",
          "type": "address"
        }
      ],
      "stateMutability": "view",
      "type": "function"
    },
    {
      "inputs": [
        {
          "internalType": "contract IERC20",
          "name": "",
          "type": "address"
        }
      ],
      "name": "strategyData",
      "outputs": [
        {
          "internalType": "uint64",
          "name": "strategyStartDate",
          "type": "uint64"
        },
        {
          "internalType": "uint64",
          "name": "targetPercentage",
          "type": "uint64"
        },
        {
          "internalType": "uint128",
          "name": "balance",
          "type": "uint128"
        }
      ],
      "stateMutability": "view",
      "type": "function"
    },
    {
      "inputs": [
        {
          "internalType": "contract IERC20",
          "name": "token",
          "type": "address"
        },
        {
          "internalType": "uint256",
          "name": "amount",
          "type": "uint256"
        }
      ],
      "name": "takeLoss",
      "outputs": [],
      "stateMutability": "nonpayable",
      "type": "function"
    },
    {
      "inputs": [
        {
          "internalType": "contract IERC20",
          "name": "token",
          "type": "address"
        },
        {
          "internalType": "uint256",
          "name": "share",
          "type": "uint256"
        },
        {
          "internalType": "bool",
          "name": "roundUp",
          "type": "bool"
        }
      ],
      "name": "toAmount",
      "outputs": [
        {
          "internalType": "uint256",
          "name": "amount",
          "type": "uint256"
        }
      ],
      "stateMutability": "view",
      "type": "function"
    },
    {
      "inputs": [
        {
          "internalType": "contract IERC20",
          "name": "token",
          "type": "address"
        },
        {
          "internalType": "uint256",
          "name": "amount",
          "type": "uint256"
        },
        {
          "internalType": "bool",
          "name": "roundUp",
          "type": "bool"
        }
      ],
      "name": "toShare",
      "outputs": [
        {
          "internalType": "uint256",
          "name": "share",
          "type": "uint256"
        }
      ],
      "stateMutability": "view",
      "type": "function"
    },
    {
      "inputs": [
        {
          "internalType": "contract IERC20",
          "name": "",
          "type": "address"
        }
      ],
      "name": "totals",
      "outputs": [
        {
          "internalType": "uint128",
          "name": "elastic",
          "type": "uint128"
        },
        {
          "internalType": "uint128",
          "name": "base",
          "type": "uint128"
        }
      ],
      "stateMutability": "view",
      "type": "function"
    },
    {
      "inputs": [
        {
          "internalType": "contract IERC20",
          "name": "token",
          "type": "address"
        },
        {
          "internalType": "address",
          "name": "from",
          "type": "address"
        },
        {
          "internalType": "address",
          "name": "to",
          "type": "address"
        },
        {
          "internalType": "uint256",
          "name": "share",
          "type": "uint256"
        }
      ],
      "name": "transfer",
      "outputs": [],
      "stateMutability": "nonpayable",
      "type": "function"
    },
    {
      "inputs": [
        {
          "internalType": "contract IERC20",
          "name": "token",
          "type": "address"
        },
        {
          "internalType": "address",
          "name": "from",
          "type": "address"
        },
        {
          "internalType": "address[]",
          "name": "tos",
          "type": "address[]"
        },
        {
          "internalType": "uint256[]",
          "name": "shares",
          "type": "uint256[]"
        }
      ],
      "name": "transferMultiple",
      "outputs": [],
      "stateMutability": "nonpayable",
      "type": "function"
    },
    {
      "inputs": [
        {
          "internalType": "address",
          "name": "newOwner",
          "type": "address"
        },
        {
          "internalType": "bool",
          "name": "direct",
          "type": "bool"
        },
        {
          "internalType": "bool",
          "name": "renounce",
          "type": "bool"
        }
      ],
      "name": "transferOwnership",
      "outputs": [],
      "stateMutability": "nonpayable",
      "type": "function"
    },
    {
      "inputs": [
        {
          "internalType": "address",
          "name": "masterContract",
          "type": "address"
        },
        {
          "internalType": "bool",
          "name": "approved",
          "type": "bool"
        }
      ],
      "name": "whitelistMasterContract",
      "outputs": [],
      "stateMutability": "nonpayable",
      "type": "function"
    },
    {
      "inputs": [
        {
          "internalType": "address",
          "name": "",
          "type": "address"
        }
      ],
      "name": "whitelistedMasterContracts",
      "outputs": [
        {
          "internalType": "bool",
          "name": "",
          "type": "bool"
        }
      ],
      "stateMutability": "view",
      "type": "function"
    },
    {
      "inputs": [
        {
          "internalType": "contract IERC20",
          "name": "token_",
          "type": "address"
        },
        {
          "internalType": "address",
          "name": "from",
          "type": "address"
        },
        {
          "internalType": "address",
          "name": "to",
          "type": "address"
        },
        {
          "internalType": "uint256",
          "name": "amount",
          "type": "uint256"
        },
        {
          "internalType": "uint256",
          "name": "share",
          "type": "uint256"
        }
      ],
      "name": "withdraw",
      "outputs": [
        {
          "internalType": "uint256",
          "name": "amountOut",
          "type": "uint256"
        },
        {
          "internalType": "uint256",
          "name": "shareOut",
          "type": "uint256"
        }
      ],
      "stateMutability": "nonpayable",
      "type": "function"
    },
    {
      "stateMutability": "payable",
      "type": "receive"
    }
  ],
  "transactionHash": "0x9760e459f1570c458a46d5c865f512bdc206956bcca554cc9feb7d086b39d9a7",
  "args": [
    "0xf34200FB29d202867DbE147696e6c5650F81Fbb3"
  ],
  "solcInputHash": "aca01c1a6fd2699b1adc885469d39e7b",
  "bytecode": "0x60e06040523480156200001157600080fd5b50604051620048c4380380620048c4833981016040819052620000349162000117565b600080546001600160a01b0319163390811782556040518392907f8be0079c531659141344cd1fd0a4f28419497f9722a3daafe3b4186f6b6457e0908290a34660a081905262000084816200009f565b6080525060601b6001600160601b03191660c052506200016b565b60007f8cad95687ba82c2ce50e74f7b754645e5117c3a5bec8151c0726d5857980a8667fd7df266aff736d415a9dc14b4158201d612e70d75b9c7f4e375ccfd20aa5166f8330604051602001620000fa949392919062000147565b604051602081830303815290604052805190602001209050919050565b60006020828403121562000129578081fd5b81516001600160a01b038116811462000140578182fd5b9392505050565b938452602084019290925260408301526001600160a01b0316606082015260800190565b60805160a05160c05160601c61471a620001aa6000398061071b52806109e85280611f5d528061213e5250806110ae5250806110e3525061471a6000f3fe6080604052600436106101f25760003560e01c80637c516e941161010d578063c0a47c93116100a0578063e30c39781161006f578063e30c397814610596578063f1676d37146105ab578063f18d03cc146105cb578063f483b3da146105eb578063f7888aec1461060b576101f9565b8063c0a47c9314610506578063d2423b5114610526578063da5139ca14610547578063df23b45b14610567576101f9565b806397da6d30116100dc57806397da6d30146104915780639a7a4b5d146104b1578063aee4d1b2146104d1578063bafe4f14146104e6576101f9565b80637c516e941461041c5780637ecebe001461043c5780638da5cb5b1461045c57806391e0eab514610471576101f9565b80633e2a9d4e116101855780635662311811610154578063566231181461039c57806366c6bb0b146103bc57806372cb5d97146103dc578063733a9d7c146103fc576101f9565b80633e2a9d4e146103195780634e71e0c8146103395780634ffe34db1461034e5780635108a5581461037c576101f9565b80631583d56c116101c15780631583d56c146102975780631f54245b146102b7578063228bfd9f146102d75780633644e515146102f7576101f9565b806302b9446c146101fe578063078dfbe7146102285780630fca88431461024a57806312a90c8a1461026a576101f9565b366101f957005b600080fd5b61021161020c366004613858565b61062b565b60405161021f9291906145f0565b60405180910390f35b34801561023457600080fd5b5061024861024336600461360f565b610aef565b005b34801561025657600080fd5b50610248610265366004613933565b610bd5565b34801561027657600080fd5b5061028a610285366004613522565b610e86565b60405161021f9190613eef565b3480156102a357600080fd5b506102486102b2366004613a04565b610e9b565b6102ca6102c5366004613659565b610ed2565b60405161021f9190613cb6565b3480156102e357600080fd5b506102ca6102f2366004613522565b61108e565b34801561030357600080fd5b5061030c6110a9565b60405161021f9190613efa565b34801561032557600080fd5b50610248610334366004613a65565b611109565b34801561034557600080fd5b506102486111d4565b34801561035a57600080fd5b5061036e610369366004613522565b611261565b60405161021f9291906145d6565b34801561038857600080fd5b506102ca610397366004613522565b611287565b3480156103a857600080fd5b5061030c6103b7366004613a2f565b6112a2565b3480156103c857600080fd5b506102486103d73660046139c4565b6112f6565b3480156103e857600080fd5b506102486103f73660046137f6565b6118bf565b34801561040857600080fd5b506102486104173660046135e2565b611d1d565b34801561042857600080fd5b506102486104373660046138b2565b611dc1565b34801561044857600080fd5b5061030c610457366004613522565b611e35565b34801561046857600080fd5b506102ca611e47565b34801561047d57600080fd5b5061028a61048c36600461353e565b611e56565b34801561049d57600080fd5b506102116104ac366004613858565b611e76565b3480156104bd57600080fd5b506102486104cc366004613a04565b61228a565b3480156104dd57600080fd5b506102486122c0565b3480156104f257600080fd5b506102ca610501366004613522565b612307565b34801561051257600080fd5b50610248610521366004613576565b612322565b6105396105343660046136be565b612631565b60405161021f929190613e55565b34801561055357600080fd5b5061030c610562366004613a2f565b6127c1565b34801561057357600080fd5b50610587610582366004613522565b61280d565b60405161021f93929190614612565b3480156105a257600080fd5b506102ca612846565b3480156105b757600080fd5b506102486105c6366004613a9d565b612855565b3480156105d757600080fd5b506102486105e6366004613808565b6129a6565b3480156105f757600080fd5b50610248610606366004613723565b612b4a565b34801561061757600080fd5b5061030c6106263660046137f6565b612e0a565b600080856001600160a01b038116331480159061065157506001600160a01b0381163014155b156106dc57336000908152600260205260409020546001600160a01b0316806106955760405162461bcd60e51b815260040161068c906143f3565b60405180910390fd5b6001600160a01b0380821660009081526003602090815260408083209386168352929052205460ff166106da5760405162461bcd60e51b815260040161068c90614276565b505b6001600160a01b0386166107025760405162461bcd60e51b815260040161068c906141dc565b60006001600160a01b03891615610719578861073b565b7f00000000000000000000000000000000000000000000000000000000000000005b9050610745613448565b506001600160a01b0381166000908152600760209081526040918290208251808401909352546001600160801b03808216808552600160801b909204169183019190915215158061080657506000826001600160a01b03166318160ddd6040518163ffffffff1660e01b815260040160206040518083038186803b1580156107cc57600080fd5b505afa1580156107e0573d6000803e3d6000fd5b505050506040513d601f19601f820116820180604052508101906108049190613b0d565b115b6108225760405162461bcd60e51b815260040161068c9061410a565b8561087a5761083381886000612e27565b95506103e861085861084488612ec1565b60208401516001600160801b031690612eee565b6001600160801b0316101561087557600080945094505050610ae4565b610889565b61088681876001612f23565b96505b6001600160a01b038916301415806108a857506001600160a01b038a16155b806108d0575080516108cc906001600160801b03166108c684612fa2565b9061304a565b8711155b6108ec5760405162461bcd60e51b815260040161068c90613fcf565b6001600160a01b038083166000908152600660209081526040808320938c168352929052205461091c908761306d565b6001600160a01b038084166000908152600660209081526040808320938d168352929052205561096261094e87612ec1565b60208301516001600160801b031690612eee565b6001600160801b0316602082015261098d61097c88612ec1565b82516001600160801b031690612eee565b6001600160801b0390811682526001600160a01b03808416600090815260076020908152604090912084518154928601518516600160801b029085166001600160801b031990931692909217909316179091558a16610a5f577f00000000000000000000000000000000000000000000000000000000000000006001600160a01b031663d0e30db0886040518263ffffffff1660e01b81526004016000604051808303818588803b158015610a4157600080fd5b505af1158015610a55573d6000803e3d6000fd5b5050505050610a84565b6001600160a01b0389163014610a8457610a846001600160a01b0383168a308a613090565b876001600160a01b0316896001600160a01b0316836001600160a01b03167fb2346165e782564f17f5b7e555c21f4fd96fbc93458572bf0113ea35a958fc558a8a604051610ad39291906145f0565b60405180910390a486945085935050505b509550959350505050565b6000546001600160a01b03163314610b195760405162461bcd60e51b815260040161068c90614241565b8115610bb4576001600160a01b038316151580610b335750805b610b4f5760405162461bcd60e51b815260040161068c906140db565b600080546040516001600160a01b03808716939216917f8be0079c531659141344cd1fd0a4f28419497f9722a3daafe3b4186f6b6457e091a3600080546001600160a01b0385166001600160a01b031991821617909155600180549091169055610bd0565b600180546001600160a01b0319166001600160a01b0385161790555b505050565b846001600160a01b0381163314801590610bf857506001600160a01b0381163014155b15610c7a57336000908152600260205260409020546001600160a01b031680610c335760405162461bcd60e51b815260040161068c906143f3565b6001600160a01b0380821660009081526003602090815260408083209386168352929052205460ff16610c785760405162461bcd60e51b815260040161068c90614276565b505b600085858281610c8657fe5b9050602002016020810190610c9b9190613522565b6001600160a01b03161415610cc25760405162461bcd60e51b815260040161068c906141a5565b600084815b81811015610e1e576000888883818110610cdd57fe5b9050602002016020810190610cf29190613522565b9050610d61878784818110610d0357fe5b90506020020135600660008e6001600160a01b03166001600160a01b031681526020019081526020016000206000846001600160a01b03166001600160a01b031681526020019081526020016000205461306d90919063ffffffff16565b6001600160a01b03808d16600090815260066020908152604080832093861683529290522055610dac878784818110610d9657fe5b905060200201358561306d90919063ffffffff16565b9350806001600160a01b03168a6001600160a01b03168c6001600160a01b03167f6eabe333476233fd382224f233210cb808a7bc4c4de64f9d76628bf63c677b1a8a8a87818110610df957fe5b90506020020135604051610e0d9190613efa565b60405180910390a450600101610cc7565b506001600160a01b03808a166000908152600660209081526040808320938c1683529290522054610e4f908361304a565b6001600160a01b03998a1660009081526006602090815260408083209b909c16825299909952989097209790975550505050505050565b60046020526000908152604090205460ff1681565b610eb06001600160a01b038316333084613090565b6001600160a01b0382166000908152600760205260409020610bd09082613189565b60006001600160a01b038516610efa5760405162461bcd60e51b815260040161068c90614387565b606085901b8215610f6c5760008585604051610f17929190613c60565b60405180910390209050604051733d602d80600a3d3981f3363d3d373d3d3d363d7360601b81528260148201526e5af43d82803e903d91602b57fd5bf360881b6028820152816037826000f593505050610fb1565b604051733d602d80600a3d3981f3363d3d373d3d3d363d7360601b81528160148201526e5af43d82803e903d91602b57fd5bf360881b60288201526037816000f09250505b6001600160a01b038281166000818152600260205260409081902080546001600160a01b031916938a16939093179092559051631377d1f560e21b8152634ddf47d49034906110069089908990600401613f79565b6000604051808303818588803b15801561101f57600080fd5b505af1158015611033573d6000803e3d6000fd5b5050505050816001600160a01b0316866001600160a01b03167fd62166f3c2149208e51788b1401cc356bf5da1fc6c7886a32e18570f57d88b3b878760405161107d929190613f79565b60405180910390a350949350505050565b6008602052600090815260409020546001600160a01b031681565b6000467f000000000000000000000000000000000000000000000000000000000000000081146110e1576110dc816131cd565b611103565b7f00000000000000000000000000000000000000000000000000000000000000005b91505090565b6000546001600160a01b031633146111335760405162461bcd60e51b815260040161068c90614241565b605f816001600160401b0316111561115d5760405162461bcd60e51b815260040161068c9061456b565b6001600160a01b0382166000818152600a602052604090819020805467ffffffffffffffff60401b1916600160401b6001600160401b03861602179055517f7543af99b5602c06e62da0631b5308489a5ff859150105a623b6eb15e8deae0b906111c89084906145fe565b60405180910390a25050565b6001546001600160a01b03163381146111ff5760405162461bcd60e51b815260040161068c906142ad565b600080546040516001600160a01b03808516939216917f8be0079c531659141344cd1fd0a4f28419497f9722a3daafe3b4186f6b6457e091a3600080546001600160a01b039092166001600160a01b0319928316179055600180549091169055565b6007602052600090815260409020546001600160801b0380821691600160801b90041682565b6009602052600090815260409020546001600160a01b031681565b6001600160a01b03831660009081526007602090815260408083208151808301909252546001600160801b038082168352600160801b90910416918101919091526112ee908484612f23565b949350505050565b6112fe61345f565b506001600160a01b038381166000818152600a60209081526040808320815160608101835290546001600160401b038082168352600160401b82041682850152600160801b90046001600160801b031681830190815294845260089092528083205493519051630c7e663b60e11b81529194939093169283916318fccc769161138b9133906004016145b4565b602060405180830381600087803b1580156113a557600080fd5b505af11580156113b9573d6000803e3d6000fd5b505050506040513d601f19601f820116820180604052508101906113dd9190613b0d565b9050801580156113eb575084155b156113f857505050610bd0565b6001600160a01b0386166000908152600760205260408120546001600160801b0316908213156114ae578161142d828261306d565b915061143882612ec1565b6001600160a01b0389166000818152600760205260409081902080546001600160801b0319166001600160801b03949094169390931790925590517f911c9f20a03edabcbcbd18dca1174cce47a91b234ced7a5a3c60ba0d5b56c5d2906114a0908490613efa565b60405180910390a25061157c565b600082121561157c5760008290036114c6828261304a565b91506114d182612ec1565b6001600160a01b038916600090815260076020526040902080546001600160801b0319166001600160801b039290921691909117905561152761151382612ec1565b60408701516001600160801b031690613244565b6001600160801b0316604080870191909152516001600160a01b038916907f8f1f26eb9b6aa8689dbdd519ead1999d9c8819d4738e403b2003b18197d9cf9790611572908490613efa565b60405180910390a2505b851561183b57600060646115a686602001516001600160401b03168461327390919063ffffffff16565b816115ad57fe5b0490508085604001516001600160801b031610156116e85760006115e786604001516001600160801b03168361304a90919063ffffffff16565b905086158015906115f757508681115b156115ff5750855b6116136001600160a01b038a1686836132aa565b61163361161f82612ec1565b60408801516001600160801b031690612eee565b6001600160801b031660408088019190915251636939aaf560e01b81526001600160a01b03861690636939aaf59061166f908490600401613efa565b600060405180830381600087803b15801561168957600080fd5b505af115801561169d573d6000803e3d6000fd5b50505050886001600160a01b03167fb18e7e4f6eac147a63a3bb6beb2d9039c88698623aff3efc4febbc20b0164ee5826040516116da9190613efa565b60405180910390a250611839565b8085604001516001600160801b0316111561183957600061171f61170b83612ec1565b60408801516001600160801b031690613244565b6001600160801b03169050861580159061173857508681115b156117405750855b604051632e1a7d4d60e01b81526000906001600160a01b03871690632e1a7d4d9061176f908590600401613efa565b602060405180830381600087803b15801561178957600080fd5b505af115801561179d573d6000803e3d6000fd5b505050506040513d601f19601f820116820180604052508101906117c19190613b0d565b90506117e36117cf82612ec1565b60408901516001600160801b031690613244565b6001600160801b0316604080890191909152516001600160a01b038b16907f39aa22060f8dd4d291720311feedf3b72fef47c06c66ccf5c22b502c62e7550a9061182e908490613efa565b60405180910390a250505b505b5050506001600160a01b0384166000908152600a6020908152604091829020835181549285015193909401516001600160801b03908116600160801b026001600160401b03948516600160401b0267ffffffffffffffff60401b199590961667ffffffffffffffff1990941693909317939093169390931791909116179055505050565b6000546001600160a01b031633146118e95760405162461bcd60e51b815260040161068c90614241565b6118f161345f565b506001600160a01b038281166000818152600a60209081526040808320815160608101835290546001600160401b038082168352600160401b8204811683860152600160801b9091046001600160801b0316828401529484526009909252909120548151919316911615806119785750826001600160a01b0316816001600160a01b031614155b15611a02576001600160a01b03848116600090815260096020526040902080546001600160a01b0319169185169190911790556119b96212750042016133a0565b6001600160401b031682526040516001600160a01b0380851691908616907f6f7ccdf3f86039e5a1dcf6028bf7b4773cbf7a234716ba2e5392b12bb0f8558f90600090a3611c9d565b81516001600160401b031615801590611a25575081516001600160401b03164210155b611a415760405162461bcd60e51b815260040161068c9061420a565b6001600160a01b038481166000908152600860205260409020541615611c26576001600160a01b0380851660009081526008602052604080822054858201519151637f8661a160e01b815292931691637f8661a191611aa2916004016145a0565b602060405180830381600087803b158015611abc57600080fd5b505af1158015611ad0573d6000803e3d6000fd5b505050506040513d601f19601f82011682018060405250810190611af49190613b0d565b90506000811315611b6b576001600160a01b03851660009081526007602052604090208190611b239082613189565b50856001600160a01b03167f911c9f20a03edabcbcbd18dca1174cce47a91b234ced7a5a3c60ba0d5b56c5d282604051611b5d9190613efa565b60405180910390a250611bdf565b6000811215611bdf576001600160a01b03851660009081526007602052604081209082900390611b9b90826133c9565b50856001600160a01b03167f8f1f26eb9b6aa8689dbdd519ead1999d9c8819d4738e403b2003b18197d9cf9782604051611bd59190613efa565b60405180910390a2505b846001600160a01b03167f39aa22060f8dd4d291720311feedf3b72fef47c06c66ccf5c22b502c62e7550a8460400151604051611c1c91906145a0565b60405180910390a2505b6001600160a01b03808516600081815260086020908152604080832080548688166001600160a01b0319918216179091558388528782018490528484526009909252808320805490921690915551928616927f03e6352a885adc4cc54767592939c3b1bbd65685658c3beaaba66a888120e2179190a35b506001600160a01b03929092166000908152600a60209081526040918290208451815492860151939095015167ffffffffffffffff199092166001600160401b039586161767ffffffffffffffff60401b1916600160401b9590931694909402919091176001600160801b03908116600160801b91909216021790915550565b6000546001600160a01b03163314611d475760405162461bcd60e51b815260040161068c90614241565b6001600160a01b038216611d6d5760405162461bcd60e51b815260040161068c90614006565b6001600160a01b03821660008181526004602052604090819020805460ff1916841515179055517f31a1e0eac44b54ac6c2a2efa87e92c83405ffcf33fceef02a7bca695130e2600906111c8908490613eef565b60405163d505accf60e01b81526001600160a01b0389169063d505accf90611df9908a908a908a908a908a908a908a90600401613dfb565b600060405180830381600087803b158015611e1357600080fd5b505af1158015611e27573d6000803e3d6000fd5b505050505050505050505050565b60056020526000908152604090205481565b6000546001600160a01b031681565b600360209081526000928352604080842090915290825290205460ff1681565b600080856001600160a01b0381163314801590611e9c57506001600160a01b0381163014155b15611f1e57336000908152600260205260409020546001600160a01b031680611ed75760405162461bcd60e51b815260040161068c906143f3565b6001600160a01b0380821660009081526003602090815260408083209386168352929052205460ff16611f1c5760405162461bcd60e51b815260040161068c90614276565b505b6001600160a01b038616611f445760405162461bcd60e51b815260040161068c906141dc565b60006001600160a01b03891615611f5b5788611f7d565b7f00000000000000000000000000000000000000000000000000000000000000005b9050611f87613448565b506001600160a01b0381166000908152600760209081526040918290208251808401909352546001600160801b038082168452600160801b909104169082015285611fdf57611fd881886001612e27565b9550611fee565b611feb81876000612f23565b96505b6001600160a01b038083166000908152600660209081526040808320938d168352929052205461201e908761304a565b6001600160a01b038084166000908152600660209081526040808320938e168352929052205561206161205088612ec1565b82516001600160801b031690613244565b6001600160801b0316815261208c61207887612ec1565b60208301516001600160801b031690613244565b6001600160801b0316602082018190526103e81115806120b7575060208101516001600160801b0316155b6120d35760405162461bcd60e51b815260040161068c906140ab565b6001600160a01b03828116600090815260076020908152604090912083518154928501516001600160801b03199093166001600160801b03918216178116600160801b91909316029190911790558a1661222757604051632e1a7d4d60e01b81526001600160a01b037f00000000000000000000000000000000000000000000000000000000000000001690632e1a7d4d90612173908a90600401613efa565b600060405180830381600087803b15801561218d57600080fd5b505af11580156121a1573d6000803e3d6000fd5b505050506000886001600160a01b0316886040516121be90613cb3565b60006040518083038185875af1925050503d80600081146121fb576040519150601f19603f3d011682016040523d82523d6000602084013e612200565b606091505b50509050806122215760405162461bcd60e51b815260040161068c906144fd565b5061223b565b61223b6001600160a01b03831689896132aa565b876001600160a01b0316896001600160a01b0316836001600160a01b03167fad9ab9ee6953d4d177f4a03b3a3ac3178ffcb9816319f348060194aa76b144868a8a604051610ad39291906145f0565b61229e6001600160a01b03831633836132aa565b6001600160a01b0382166000908152600760205260409020610bd090826133c9565b3360008181526002602052604080822080546001600160a01b03191684179055517fdfb44ffabf0d3a8f650d3ce43eff98f6d050e7ea1a396d5794f014e7dadabacb9190a2565b6002602052600090815260409020546001600160a01b031681565b6001600160a01b0385166123485760405162461bcd60e51b815260040161068c906143bc565b81158015612354575080155b8015612361575060ff8316155b15612403576001600160a01b038616331461238e5760405162461bcd60e51b815260040161068c9061403d565b6001600160a01b0386811660009081526002602052604090205416156123c65760405162461bcd60e51b815260040161068c90614319565b6001600160a01b03851660009081526004602052604090205460ff166123fe5760405162461bcd60e51b815260040161068c906144c6565b6125bd565b6001600160a01b0386166124295760405162461bcd60e51b815260040161068c9061445f565b600060405180604001604052806002815260200161190160f01b81525061244e6110a9565b7f1962bc9f5484cb7a998701b81090e966ee1fce5771af884cceee7c081b14ade28761249a577fb426802f1f7dc850a7b6b38805edea2442f3992878a9ab985abfe8091d95d0b16124bc565b7f422ac5323fe049241dee67716229a1cc1bc7b313b23dfe3ef6d42ab177a3b2845b6001600160a01b038b1660009081526005602090815260409182902080546001810190915591516124f69493928e928e928e929101613f03565b6040516020818303038152906040528051906020012060405160200161251e93929190613c8c565b60405160208183030381529060405280519060200120905060006001828686866040516000815260200160405260405161255b9493929190613f5b565b6020604051602081039080840390855afa15801561257d573d6000803e3d6000fd5b505050602060405103519050876001600160a01b0316816001600160a01b0316146125ba5760405162461bcd60e51b815260040161068c90614350565b50505b6001600160a01b038581166000818152600360209081526040808320948b168084529490915290819020805460ff1916881515179055517f5f6ebb64ba012a851c6f014e6cad458ddf213d1512049b31cd06365c2b05925790612621908890613eef565b60405180910390a3505050505050565b606080836001600160401b038111801561264a57600080fd5b50604051908082528060200260200182016040528015612674578160200160208202803683370190505b509150836001600160401b038111801561268d57600080fd5b506040519080825280602002602001820160405280156126c157816020015b60608152602001906001900390816126ac5790505b50905060005b848110156127b85760006060308888858181106126e057fe5b90506020028101906126f2919061463e565b604051612700929190613c60565b600060405180830381855af49150503d806000811461273b576040519150601f19603f3d011682016040523d82523d6000602084013e612740565b606091505b5091509150818061274f575085155b612758826133e8565b906127765760405162461bcd60e51b815260040161068c9190613f8d565b508185848151811061278457fe5b602002602001019015159081151581525050808484815181106127a357fe5b602090810291909101015250506001016126c7565b50935093915050565b6001600160a01b03831660009081526007602090815260408083208151808301909252546001600160801b038082168352600160801b90910416918101919091526112ee908484612e27565b600a602052600090815260409020546001600160401b0380821691600160401b810490911690600160801b90046001600160801b031683565b6001546001600160a01b031681565b6000620186a0612866856032613273565b8161286d57fe5b0490506128846001600160a01b03861687866132aa565b6040516323e30c8b60e01b81526001600160a01b038816906323e30c8b906128ba9033908990899087908a908a90600401613d90565b600060405180830381600087803b1580156128d457600080fd5b505af11580156128e8573d6000803e3d6000fd5b5050505061291f6128f882612ec1565b6001600160a01b0387166000908152600760205260409020906001600160801b0316613189565b61292886612fa2565b10156129465760405162461bcd60e51b815260040161068c90614496565b856001600160a01b0316856001600160a01b0316886001600160a01b03167f3be9b85936d5d30a1655ea116a17ee3d827b2cd428cc026ce5bf2ac46a22320487856040516129959291906145f0565b60405180910390a450505050505050565b826001600160a01b03811633148015906129c957506001600160a01b0381163014155b15612a4b57336000908152600260205260409020546001600160a01b031680612a045760405162461bcd60e51b815260040161068c906143f3565b6001600160a01b0380821660009081526003602090815260408083209386168352929052205460ff16612a495760405162461bcd60e51b815260040161068c90614276565b505b6001600160a01b038316612a715760405162461bcd60e51b815260040161068c906141dc565b6001600160a01b03808616600090815260066020908152604080832093881683529290522054612aa1908361304a565b6001600160a01b03868116600090815260066020908152604080832089851684529091528082209390935590851681522054612add908361306d565b6001600160a01b0380871660008181526006602090815260408083208986168085529252918290209490945551918716917f6eabe333476233fd382224f233210cb808a7bc4c4de64f9d76628bf63c677b1a90612b3b908790613efa565b60405180910390a45050505050565b6060856001600160401b0381118015612b6257600080fd5b50604051908082528060200260200182016040528015612b8c578160200160208202803683370190505b5090508560005b81811015612c5b576000878783818110612ba957fe5b905060200201359050620186a0612bca60328361327390919063ffffffff16565b81612bd157fe5b04848381518110612bde57fe5b602002602001018181525050612c528c8c84818110612bf957fe5b9050602002016020810190612c0e9190613522565b898985818110612c1a57fe5b905060200201358c8c86818110612c2d57fe5b9050602002016020810190612c429190613522565b6001600160a01b031691906132aa565b50600101612b93565b5060405163d9d1762360e01b81526001600160a01b038c169063d9d1762390612c969033908c908c908c908c908a908d908d90600401613cca565b600060405180830381600087803b158015612cb057600080fd5b505af1158015612cc4573d6000803e3d6000fd5b5050505060005b81811015611e27576000898983818110612ce157fe5b9050602002016020810190612cf69190613522565b9050612d3e612d17858481518110612d0a57fe5b6020026020010151612ec1565b6001600160a01b0383166000908152600760205260409020906001600160801b0316613189565b612d4782612fa2565b1015612d655760405162461bcd60e51b815260040161068c90614496565b8b8b83818110612d7157fe5b9050602002016020810190612d869190613522565b6001600160a01b0316816001600160a01b03168e6001600160a01b03167f3be9b85936d5d30a1655ea116a17ee3d827b2cd428cc026ce5bf2ac46a2232048b8b87818110612dd057fe5b90506020020135888781518110612de357fe5b6020026020010151604051612df99291906145f0565b60405180910390a450600101612ccb565b600660209081526000928352604080842090915290825290205481565b82516000906001600160801b0316612e40575081612eba565b835160208501516001600160801b0391821691612e5f91869116613273565b81612e6657fe5b049050818015612eaa57508284602001516001600160801b0316612ea086600001516001600160801b03168461327390919063ffffffff16565b81612ea757fe5b04105b15612eba576112ee81600161306d565b9392505050565b60006001600160801b03821115612eea5760405162461bcd60e51b815260040161068c90614137565b5090565b8181016001600160801b038083169082161015612f1d5760405162461bcd60e51b815260040161068c9061416e565b92915050565b600083602001516001600160801b031660001415612f42575081612eba565b602084015184516001600160801b0391821691612f6191869116613273565b81612f6857fe5b049050818015612eaa57508284600001516001600160801b0316612ea086602001516001600160801b03168461327390919063ffffffff16565b6001600160a01b0381166000818152600a60205260408082205490516370a0823160e01b81529192612f1d92600160801b9092046001600160801b0316916370a0823190612ff4903090600401613cb6565b60206040518083038186803b15801561300c57600080fd5b505afa158015613020573d6000803e3d6000fd5b505050506040513d601f19601f820116820180604052508101906130449190613b0d565b9061306d565b80820382811115612f1d5760405162461bcd60e51b815260040161068c90613fa0565b81810181811015612f1d5760405162461bcd60e51b815260040161068c9061416e565b60006060856001600160a01b03166323b872dd60e01b8686866040516024016130bb93929190613dd7565b60408051601f198184030181529181526020820180516001600160e01b03166001600160e01b03199094169390931790925290516130f99190613c70565b6000604051808303816000865af19150503d8060008114613136576040519150601f19603f3d011682016040523d82523d6000602084013e61313b565b606091505b50915091508180156131655750805115806131655750808060200190518101906131659190613707565b6131815760405162461bcd60e51b815260040161068c9061442a565b505050505050565b60006131a861319783612ec1565b84546001600160801b031690612eee565b83546001600160801b0319166001600160801b03919091169081179093555090919050565b60007f8cad95687ba82c2ce50e74f7b754645e5117c3a5bec8151c0726d5857980a8667fd7df266aff736d415a9dc14b4158201d612e70d75b9c7f4e375ccfd20aa5166f83306040516020016132269493929190613f37565b6040516020818303038152906040528051906020012090505b919050565b8082036001600160801b038084169082161115612f1d5760405162461bcd60e51b815260040161068c90613fa0565b600081158061328e5750508082028282828161328b57fe5b04145b612f1d5760405162461bcd60e51b815260040161068c90614534565b60006060846001600160a01b031663a9059cbb60e01b85856040516024016132d3929190613e3c565b60408051601f198184030181529181526020820180516001600160e01b03166001600160e01b03199094169390931790925290516133119190613c70565b6000604051808303816000865af19150503d806000811461334e576040519150601f19603f3d011682016040523d82523d6000602084013e613353565b606091505b509150915081801561337d57508051158061337d57508080602001905181019061337d9190613707565b6133995760405162461bcd60e51b815260040161068c90614074565b5050505050565b60006001600160401b03821115612eea5760405162461bcd60e51b815260040161068c906142e2565b60006131a86133d783612ec1565b84546001600160801b031690613244565b606060448251101561342e575060408051808201909152601d81527f5472616e73616374696f6e2072657665727465642073696c656e746c79000000602082015261323f565b60048201915081806020019051810190612f1d9190613b25565b604080518082019091526000808252602082015290565b604080516060810182526000808252602082018190529181019190915290565b60008083601f840112613490578182fd5b5081356001600160401b038111156134a6578182fd5b60208301915083602080830285010111156134c057600080fd5b9250929050565b60008083601f8401126134d8578182fd5b5081356001600160401b038111156134ee578182fd5b6020830191508360208285010111156134c057600080fd5b8035612f1d816146be565b803560ff81168114612f1d57600080fd5b600060208284031215613533578081fd5b8135612eba816146be565b60008060408385031215613550578081fd5b823561355b816146be565b9150602083013561356b816146be565b809150509250929050565b60008060008060008060c0878903121561358e578182fd5b8635613599816146be565b955060208701356135a9816146be565b945060408701356135b9816146d6565b93506135c88860608901613511565b92506080870135915060a087013590509295509295509295565b600080604083850312156135f4578182fd5b82356135ff816146be565b9150602083013561356b816146d6565b600080600060608486031215613623578283fd5b833561362e816146be565b9250602084013561363e816146d6565b9150604084013561364e816146d6565b809150509250925092565b6000806000806060858703121561366e578384fd5b8435613679816146be565b935060208501356001600160401b03811115613693578384fd5b61369f878288016134c7565b90945092505060408501356136b3816146d6565b939692955090935050565b6000806000604084860312156136d2578081fd5b83356001600160401b038111156136e7578182fd5b6136f38682870161347f565b909450925050602084013561364e816146d6565b600060208284031215613718578081fd5b8151612eba816146d6565b600080600080600080600080600060a08a8c031215613740578687fd5b893561374b816146be565b985060208a01356001600160401b0380821115613766578889fd5b6137728d838e0161347f565b909a50985060408c013591508082111561378a578485fd5b6137968d838e0161347f565b909850965060608c01359150808211156137ae578485fd5b6137ba8d838e0161347f565b909650945060808c01359150808211156137d2578384fd5b506137df8c828d016134c7565b915080935050809150509295985092959850929598565b60008060408385031215613550578182fd5b6000806000806080858703121561381d578182fd5b8435613828816146be565b93506020850135613838816146be565b92506040850135613848816146be565b9396929550929360600135925050565b600080600080600060a0868803121561386f578283fd5b853561387a816146be565b9450602086013561388a816146be565b9350604086013561389a816146be565b94979396509394606081013594506080013592915050565b600080600080600080600080610100898b0312156138ce578182fd5b88356138d9816146be565b975060208901356138e9816146be565b965060408901356138f9816146be565b955060608901359450608089013593506139168a60a08b01613511565b925060c0890135915060e089013590509295985092959890939650565b6000806000806000806080878903121561394b578384fd5b8635613956816146be565b95506020870135613966816146be565b945060408701356001600160401b0380821115613981578586fd5b61398d8a838b0161347f565b909650945060608901359150808211156139a5578384fd5b506139b289828a0161347f565b979a9699509497509295939492505050565b6000806000606084860312156139d8578081fd5b83356139e3816146be565b925060208401356139f3816146d6565b929592945050506040919091013590565b60008060408385031215613a16578182fd5b8235613a21816146be565b946020939093013593505050565b600080600060608486031215613a43578081fd5b8335613a4e816146be565b925060208401359150604084013561364e816146d6565b60008060408385031215613a77578182fd5b8235613a82816146be565b915060208301356001600160401b038116811461356b578182fd5b60008060008060008060a08789031215613ab5578384fd5b8635613ac0816146be565b95506020870135613ad0816146be565b94506040870135613ae0816146be565b93506060870135925060808701356001600160401b03811115613b01578283fd5b6139b289828a016134c7565b600060208284031215613b1e578081fd5b5051919050565b600060208284031215613b36578081fd5b81516001600160401b0380821115613b4c578283fd5b818401915084601f830112613b5f578283fd5b815181811115613b6d578384fd5b604051601f8201601f191681016020018381118282101715613b8d578586fd5b604052818152838201602001871015613ba4578485fd5b613bb582602083016020870161468e565b9695505050505050565b6001600160a01b0316815260200190565b6000815180845260208085019450808401835b83811015613bff57815187529582019590820190600101613be3565b509495945050505050565b60008284528282602086013780602084860101526020601f19601f85011685010190509392505050565b60008151808452613c4c81602086016020860161468e565b601f01601f19169290920160200192915050565b6000828483379101908152919050565b60008251613c8281846020870161468e565b9190910192915050565b60008451613c9e81846020890161468e565b91909101928352506020820152604001919050565b90565b6001600160a01b0391909116815260200190565b6001600160a01b038916815260a0602080830182905260009183019081613cf18b82613efa565b90508b9250835b8b811015613d2357828401613d1683613d118388613506565b613bbf565b9094509150600101613cf8565b508481036040860152613d368982613efa565b9250506001600160fb1b03881115613d4c578283fd5b8702613d5981838b614682565b018281036060840152613d6c8187613bd0565b90508281036080840152613d81818587613c0a565b9b9a5050505050505050505050565b6001600160a01b03878116825286166020820152604081018590526060810184905260a060808201819052600090613dcb9083018486613c0a565b98975050505050505050565b6001600160a01b039384168152919092166020820152604081019190915260600190565b6001600160a01b0397881681529590961660208601526040850193909352606084019190915260ff16608083015260a082015260c081019190915260e00190565b6001600160a01b03929092168252602082015260400190565b604080825283519082018190526000906020906060840190828701845b82811015613e90578151151584529284019290840190600101613e72565b50505083810382850152808551613ea78184613efa565b91508192508381028201848801865b83811015613ee0578583038552613ece838351613c34565b94870194925090860190600101613eb6565b50909998505050505050505050565b901515815260200190565b90815260200190565b95865260208601949094526001600160a01b039283166040860152911660608401521515608083015260a082015260c00190565b938452602084019290925260408301526001600160a01b0316606082015260800190565b93845260ff9290921660208401526040830152606082015260800190565b6000602082526112ee602083018486613c0a565b600060208252612eba6020830184613c34565b602080825260159082015274426f72696e674d6174683a20556e646572666c6f7760581b604082015260600190565b60208082526017908201527f42656e746f426f783a20536b696d20746f6f206d756368000000000000000000604082015260600190565b6020808252601c908201527f4d6173746572434d67723a2043616e6e6f7420617070726f7665203000000000604082015260600190565b6020808252601b908201527f4d6173746572434d67723a2075736572206e6f742073656e6465720000000000604082015260600190565b6020808252601c908201527f426f72696e6745524332303a205472616e73666572206661696c656400000000604082015260600190565b60208082526016908201527542656e746f426f783a2063616e6e6f7420656d70747960501b604082015260600190565b6020808252601590820152744f776e61626c653a207a65726f206164647265737360581b604082015260600190565b60208082526013908201527242656e746f426f783a204e6f20746f6b656e7360681b604082015260600190565b6020808252601c908201527f426f72696e674d6174683a2075696e74313238204f766572666c6f7700000000604082015260600190565b60208082526018908201527f426f72696e674d6174683a20416464204f766572666c6f770000000000000000604082015260600190565b60208082526017908201527f42656e746f426f783a20746f5b305d206e6f7420736574000000000000000000604082015260600190565b60208082526014908201527310995b9d1bd09bde0e881d1bc81b9bdd081cd95d60621b604082015260600190565b6020808252601a908201527f53747261746567794d616e616765723a20546f6f206561726c79000000000000604082015260600190565b6020808252818101527f4f776e61626c653a2063616c6c6572206973206e6f7420746865206f776e6572604082015260600190565b6020808252601f908201527f42656e746f426f783a205472616e73666572206e6f7420617070726f76656400604082015260600190565b6020808252818101527f4f776e61626c653a2063616c6c657220213d2070656e64696e67206f776e6572604082015260600190565b6020808252601b908201527f426f72696e674d6174683a2075696e743634204f766572666c6f770000000000604082015260600190565b60208082526019908201527f4d6173746572434d67723a207573657220697320636c6f6e6500000000000000604082015260600190565b6020808252601d908201527f4d6173746572434d67723a20496e76616c6964205369676e6174757265000000604082015260600190565b6020808252818101527f426f72696e67466163746f72793a204e6f206d6173746572436f6e7472616374604082015260600190565b6020808252601b908201527f4d6173746572434d67723a206d617374657243206e6f74207365740000000000604082015260600190565b6020808252601b908201527f42656e746f426f783a206e6f206d6173746572436f6e74726163740000000000604082015260600190565b6020808252818101527f426f72696e6745524332303a205472616e7366657246726f6d206661696c6564604082015260600190565b6020808252601c908201527f4d6173746572434d67723a20557365722063616e6e6f74206265203000000000604082015260600190565b60208082526016908201527510995b9d1bd09bde0e8815dc9bdb99c8185b5bdd5b9d60521b604082015260600190565b6020808252601b908201527f4d6173746572434d67723a206e6f742077686974656c69737465640000000000604082015260600190565b6020808252601d908201527f42656e746f426f783a20455448207472616e73666572206661696c6564000000604082015260600190565b60208082526018908201527f426f72696e674d6174683a204d756c204f766572666c6f770000000000000000604082015260600190565b6020808252818101527f53747261746567794d616e616765723a2054617267657420746f6f2068696768604082015260600190565b6001600160801b0391909116815260200190565b6001600160801b039290921682526001600160a01b0316602082015260400190565b6001600160801b0392831681529116602082015260400190565b918252602082015260400190565b6001600160401b0391909116815260200190565b6001600160401b0393841681529190921660208201526001600160801b03909116604082015260600190565b6000808335601e19843603018112614654578283fd5b8301803591506001600160401b0382111561466d578283fd5b6020019150368190038213156134c057600080fd5b82818337506000910152565b60005b838110156146a9578181015183820152602001614691565b838111156146b8576000848401525b50505050565b6001600160a01b03811681146146d357600080fd5b50565b80151581146146d357600080fdfea264697066735822122073faf05d2f16c218afa386d66e9106020c7faffb68b3b44ad5bfabe7b878bc7264736f6c634300060c0033",
  "devdoc": {
    "kind": "dev",
    "methods": {
      "batch(bytes[],bool)": {
        "params": {
          "calls": "An array of inputs for each call.",
          "revertOnFail": "If True then reverts after a failed call and stops doing further calls."
        },
        "returns": {
          "results": "An array with the returned data of each function call, mapped one-to-one to `calls`.",
          "successes": "An array indicating the success of a call, mapped one-to-one to `calls`."
        }
      },
      "batchFlashLoan(address,address[],address[],uint256[],bytes)": {
        "params": {
          "amounts": "of the tokens for each receiver.",
          "borrower": "The address of the contract that implements and conforms to `IBatchFlashBorrower` and handles the flashloan.",
          "data": "The calldata to pass to the `borrower` contract.",
          "receivers": "An array of the token receivers. A one-to-one mapping with `tokens` and `amounts`.",
          "tokens": "The addresses of the tokens."
        }
      },
      "deploy(address,bytes,bool)": {
        "params": {
          "data": "Additional abi encoded calldata that is passed to the new clone via `IMasterContract.init`.",
          "masterContract": "The address of the contract to clone.",
          "useCreate2": "Creates the clone by using the CREATE2 opcode, in this case `data` will be used as salt."
        },
        "returns": {
          "cloneAddress": "Address of the created clone contract."
        }
      },
      "deposit(address,address,address,uint256,uint256)": {
        "params": {
          "amount": "Token amount in native representation to deposit.",
          "from": "which account to pull the tokens.",
          "share": "Token amount represented in shares to deposit. Takes precedence over `amount`.",
          "to": "which account to push the tokens.",
          "token_": "The ERC-20 token to deposit."
        },
        "returns": {
          "amountOut": "The amount deposited.",
          "shareOut": "The deposited amount repesented in shares."
        }
      },
      "flashLoan(address,address,address,uint256,bytes)": {
        "params": {
          "amount": "of the tokens to receive.",
          "borrower": "The address of the contract that implements and conforms to `IFlashBorrower` and handles the flashloan.",
          "data": "The calldata to pass to the `borrower` contract.",
          "receiver": "Address of the token receiver.",
          "token": "The address of the token to receive."
        }
      },
      "harvest(address,bool,uint256)": {
        "params": {
          "balance": "True if housekeeping should be done.",
          "maxChangeAmount": "The maximum amount for either pulling or pushing from/to the `IStrategy` contract.",
          "token": "The address of the token for which a strategy is deployed."
        }
      },
      "setMasterContractApproval(address,address,bool,uint8,bytes32,bytes32)": {
        "params": {
          "approved": "If True approves access. If False revokes access.",
          "masterContract": "The address who gains or loses access.",
          "r": "Part of the signature. (See EIP-191)",
          "s": "Part of the signature. (See EIP-191)",
          "user": "The address of the user that approves or revokes access.",
          "v": "Part of the signature. (See EIP-191)"
        }
      },
      "setStrategy(address,address)": {
        "details": "Only the owner of this contract is allowed to change this.",
        "params": {
          "newStrategy": "The address of the contract that conforms to `IStrategy`.",
          "token": "The address of the token that maps to a strategy to change."
        }
      },
      "setStrategyTargetPercentage(address,uint64)": {
        "details": "Only the owner of this contract is allowed to change this.",
        "params": {
          "targetPercentage_": "The new target in percent. Must be lesser or equal to `MAX_TARGET_PERCENTAGE`.",
          "token": "The address of the token that maps to a strategy to change."
        }
      },
      "toAmount(address,uint256,bool)": {
        "details": "Helper function represent shares back into the `token` amount.",
        "params": {
          "roundUp": "If the result should be rounded up.",
          "share": "The amount of shares.",
          "token": "The ERC-20 token."
        },
        "returns": {
          "amount": "The share amount back into native representation."
        }
      },
      "toShare(address,uint256,bool)": {
        "details": "Helper function to represent an `amount` of `token` in shares.",
        "params": {
          "amount": "The `token` amount.",
          "roundUp": "If the result `share` should be rounded up.",
          "token": "The ERC-20 token."
        },
        "returns": {
          "share": "The token amount represented in shares."
        }
      },
      "transfer(address,address,address,uint256)": {
        "params": {
          "from": "which user to pull the tokens.",
          "share": "The amount of `token` in shares.",
          "to": "which user to push the tokens.",
          "token": "The ERC-20 token to transfer."
        }
      },
      "transferMultiple(address,address,address[],uint256[])": {
        "params": {
          "from": "which user to pull the tokens.",
          "shares": "The amount of `token` in shares for each receiver in `tos`.",
          "token": "The ERC-20 token to transfer.",
          "tos": "The receivers of the tokens."
        }
      },
      "transferOwnership(address,bool,bool)": {
        "params": {
          "direct": "True if `newOwner` should be set immediately. False if `newOwner` needs to use `claimOwnership`.",
          "newOwner": "Address of the new owner.",
          "renounce": "Allows the `newOwner` to be `address(0)` if `direct` and `renounce` is True. Has no effect otherwise."
        }
      },
      "withdraw(address,address,address,uint256,uint256)": {
        "params": {
          "amount": "of tokens. Either one of `amount` or `share` needs to be supplied.",
          "from": "which user to pull the tokens.",
          "share": "Like above, but `share` takes precedence over `amount`.",
          "to": "which user to push the tokens.",
          "token_": "The ERC-20 token to withdraw."
        }
      }
    },
    "version": 1
  },
  "userdoc": {
    "kind": "user",
    "methods": {
      "batch(bytes[],bool)": {
        "notice": "Allows batched call to self (this contract)."
      },
      "batchFlashLoan(address,address[],address[],uint256[],bytes)": {
        "notice": "Support for batched flashloans. Useful to request multiple different `tokens` in a single transaction."
      },
      "claimOwnership()": {
        "notice": "Needs to be called by `pendingOwner` to claim ownership."
      },
      "deploy(address,bytes,bool)": {
        "notice": "Deploys a given master Contract as a clone. Any ETH transferred with this call is forwarded to the new clone. Emits `LogDeploy`."
      },
      "deposit(address,address,address,uint256,uint256)": {
        "notice": "Deposit an amount of `token` represented in either `amount` or `share`."
      },
      "flashLoan(address,address,address,uint256,bytes)": {
        "notice": "Flashloan ability."
      },
      "harvest(address,bool,uint256)": {
        "notice": "The actual process of yield farming. Executes the strategy of `token`. Optionally does housekeeping if `balance` is true. `maxChangeAmount` is relevant for skimming or withdrawing if `balance` is true."
      },
      "masterContractApproved(address,address)": {
        "notice": "masterContract to user to approval state"
      },
      "masterContractOf(address)": {
        "notice": "Mapping from clone contracts to their masterContract."
      },
      "nonces(address)": {
        "notice": "user nonces for masterContract approvals"
      },
      "permitToken(address,address,address,uint256,uint256,uint8,bytes32,bytes32)": {
        "notice": "Call wrapper that performs `ERC20.permit` on `token`. Lookup `IERC20.permit`."
      },
      "registerProtocol()": {
        "notice": "Other contracts need to register with this master contract so that users can approve them for the BentoBox."
      },
      "setMasterContractApproval(address,address,bool,uint8,bytes32,bytes32)": {
        "notice": "Approves or revokes a `masterContract` access to `user` funds."
      },
      "setStrategy(address,address)": {
        "notice": "Sets the contract address of a new strategy that conforms to `IStrategy` for `token`. Must be called twice with the same arguments. A new strategy becomes pending first and can be activated once `STRATEGY_DELAY` is over."
      },
      "setStrategyTargetPercentage(address,uint64)": {
        "notice": "Sets the target percentage of the strategy for `token`."
      },
      "transfer(address,address,address,uint256)": {
        "notice": "Transfer shares from a user account to another one."
      },
      "transferMultiple(address,address,address[],uint256[])": {
        "notice": "Transfer shares from a user account to multiple other ones."
      },
      "transferOwnership(address,bool,bool)": {
        "notice": "Transfers ownership to `newOwner`. Either directly or claimable by the new pending owner. Can only be invoked by the current `owner`."
      },
      "whitelistMasterContract(address,bool)": {
        "notice": "Enables or disables a contract for approval without signed message."
      },
      "whitelistedMasterContracts(address)": {
        "notice": "masterContract to whitelisted state for approval without signed message"
      },
      "withdraw(address,address,address,uint256,uint256)": {
        "notice": "Withdraws an amount of `token` from a user account."
      }
    },
    "version": 1
  },
  "storageLayout": {
    "storage": [
      {
        "astId": 900,
        "contract": "contracts/mocks/BentoBoxMock.sol:BentoBoxMock",
        "label": "owner",
        "offset": 0,
        "slot": "0",
        "type": "t_address"
      },
      {
        "astId": 902,
        "contract": "contracts/mocks/BentoBoxMock.sol:BentoBoxMock",
        "label": "pendingOwner",
        "offset": 0,
        "slot": "1",
        "type": "t_address"
      },
      {
        "astId": 1046,
        "contract": "contracts/mocks/BentoBoxMock.sol:BentoBoxMock",
        "label": "masterContractOf",
        "offset": 0,
        "slot": "2",
        "type": "t_mapping(t_address,t_address)"
      },
      {
        "astId": 1140,
        "contract": "contracts/mocks/BentoBoxMock.sol:BentoBoxMock",
        "label": "masterContractApproved",
        "offset": 0,
        "slot": "3",
        "type": "t_mapping(t_address,t_mapping(t_address,t_bool))"
      },
      {
        "astId": 1145,
        "contract": "contracts/mocks/BentoBoxMock.sol:BentoBoxMock",
        "label": "whitelistedMasterContracts",
        "offset": 0,
        "slot": "4",
        "type": "t_mapping(t_address,t_bool)"
      },
      {
        "astId": 1150,
        "contract": "contracts/mocks/BentoBoxMock.sol:BentoBoxMock",
        "label": "nonces",
        "offset": 0,
        "slot": "5",
        "type": "t_mapping(t_address,t_uint256)"
      },
      {
        "astId": 1701,
        "contract": "contracts/mocks/BentoBoxMock.sol:BentoBoxMock",
        "label": "balanceOf",
        "offset": 0,
        "slot": "6",
        "type": "t_mapping(t_contract(IERC20)67,t_mapping(t_address,t_uint256))"
      },
      {
        "astId": 1705,
        "contract": "contracts/mocks/BentoBoxMock.sol:BentoBoxMock",
        "label": "totals",
        "offset": 0,
        "slot": "7",
        "type": "t_mapping(t_contract(IERC20)67,t_struct(Rebase)550_storage)"
      },
      {
        "astId": 1709,
        "contract": "contracts/mocks/BentoBoxMock.sol:BentoBoxMock",
        "label": "strategy",
        "offset": 0,
        "slot": "8",
        "type": "t_mapping(t_contract(IERC20)67,t_contract(IStrategy)142)"
      },
      {
        "astId": 1713,
        "contract": "contracts/mocks/BentoBoxMock.sol:BentoBoxMock",
        "label": "pendingStrategy",
        "offset": 0,
        "slot": "9",
        "type": "t_mapping(t_contract(IERC20)67,t_contract(IStrategy)142)"
      },
      {
        "astId": 1717,
        "contract": "contracts/mocks/BentoBoxMock.sol:BentoBoxMock",
        "label": "strategyData",
        "offset": 0,
        "slot": "10",
        "type": "t_mapping(t_contract(IERC20)67,t_struct(StrategyData)1673_storage)"
      }
    ],
    "types": {
      "t_address": {
        "encoding": "inplace",
        "label": "address",
        "numberOfBytes": "20"
      },
      "t_bool": {
        "encoding": "inplace",
        "label": "bool",
        "numberOfBytes": "1"
      },
      "t_contract(IERC20)67": {
        "encoding": "inplace",
        "label": "contract IERC20",
        "numberOfBytes": "20"
      },
      "t_contract(IStrategy)142": {
        "encoding": "inplace",
        "label": "contract IStrategy",
        "numberOfBytes": "20"
      },
      "t_mapping(t_address,t_address)": {
        "encoding": "mapping",
        "key": "t_address",
        "label": "mapping(address => address)",
        "numberOfBytes": "32",
        "value": "t_address"
      },
      "t_mapping(t_address,t_bool)": {
        "encoding": "mapping",
        "key": "t_address",
        "label": "mapping(address => bool)",
        "numberOfBytes": "32",
        "value": "t_bool"
      },
      "t_mapping(t_address,t_mapping(t_address,t_bool))": {
        "encoding": "mapping",
        "key": "t_address",
        "label": "mapping(address => mapping(address => bool))",
        "numberOfBytes": "32",
        "value": "t_mapping(t_address,t_bool)"
      },
      "t_mapping(t_address,t_uint256)": {
        "encoding": "mapping",
        "key": "t_address",
        "label": "mapping(address => uint256)",
        "numberOfBytes": "32",
        "value": "t_uint256"
      },
      "t_mapping(t_contract(IERC20)67,t_contract(IStrategy)142)": {
        "encoding": "mapping",
        "key": "t_contract(IERC20)67",
        "label": "mapping(contract IERC20 => contract IStrategy)",
        "numberOfBytes": "32",
        "value": "t_contract(IStrategy)142"
      },
      "t_mapping(t_contract(IERC20)67,t_mapping(t_address,t_uint256))": {
        "encoding": "mapping",
        "key": "t_contract(IERC20)67",
        "label": "mapping(contract IERC20 => mapping(address => uint256))",
        "numberOfBytes": "32",
        "value": "t_mapping(t_address,t_uint256)"
      },
      "t_mapping(t_contract(IERC20)67,t_struct(Rebase)550_storage)": {
        "encoding": "mapping",
        "key": "t_contract(IERC20)67",
        "label": "mapping(contract IERC20 => struct Rebase)",
        "numberOfBytes": "32",
        "value": "t_struct(Rebase)550_storage"
      },
      "t_mapping(t_contract(IERC20)67,t_struct(StrategyData)1673_storage)": {
        "encoding": "mapping",
        "key": "t_contract(IERC20)67",
        "label": "mapping(contract IERC20 => struct BentoBoxV1.StrategyData)",
        "numberOfBytes": "32",
        "value": "t_struct(StrategyData)1673_storage"
      },
      "t_struct(Rebase)550_storage": {
        "encoding": "inplace",
        "label": "struct Rebase",
        "members": [
          {
            "astId": 547,
            "contract": "contracts/mocks/BentoBoxMock.sol:BentoBoxMock",
            "label": "elastic",
            "offset": 0,
            "slot": "0",
            "type": "t_uint128"
          },
          {
            "astId": 549,
            "contract": "contracts/mocks/BentoBoxMock.sol:BentoBoxMock",
            "label": "base",
            "offset": 16,
            "slot": "0",
            "type": "t_uint128"
          }
        ],
        "numberOfBytes": "32"
      },
      "t_struct(StrategyData)1673_storage": {
        "encoding": "inplace",
        "label": "struct BentoBoxV1.StrategyData",
        "members": [
          {
            "astId": 1668,
            "contract": "contracts/mocks/BentoBoxMock.sol:BentoBoxMock",
            "label": "strategyStartDate",
            "offset": 0,
            "slot": "0",
            "type": "t_uint64"
          },
          {
            "astId": 1670,
            "contract": "contracts/mocks/BentoBoxMock.sol:BentoBoxMock",
            "label": "targetPercentage",
            "offset": 8,
            "slot": "0",
            "type": "t_uint64"
          },
          {
            "astId": 1672,
            "contract": "contracts/mocks/BentoBoxMock.sol:BentoBoxMock",
            "label": "balance",
            "offset": 16,
            "slot": "0",
            "type": "t_uint128"
          }
        ],
        "numberOfBytes": "32"
      },
      "t_uint128": {
        "encoding": "inplace",
        "label": "uint128",
        "numberOfBytes": "16"
      },
      "t_uint256": {
        "encoding": "inplace",
        "label": "uint256",
        "numberOfBytes": "32"
      },
      "t_uint64": {
        "encoding": "inplace",
        "label": "uint64",
        "numberOfBytes": "8"
      }
    }
  }
}