{
  "address": "0x3a341f5474aac54829a587cE6ab13C86af6B1E29",
  "abi": [
    {
      "inputs": [
        {
          "internalType": "contract IBentoBoxV1",
          "name": "bentoBox_",
          "type": "address"
        }
      ],
      "stateMutability": "nonpayable",
      "type": "constructor"
    },
    {
      "anonymous": false,
      "inputs": [
        {
          "indexed": true,
          "internalType": "address",
          "name": "newFeeTo",
          "type": "address"
        }
      ],
      "name": "LogFeeTo",
      "type": "event"
    },
    {
      "anonymous": false,
      "inputs": [
        {
          "indexed": true,
          "internalType": "address",
          "name": "lender",
          "type": "address"
        },
        {
          "indexed": true,
          "internalType": "uint256",
          "name": "tokenId",
          "type": "uint256"
        }
      ],
      "name": "LogLend",
      "type": "event"
    },
    {
      "anonymous": false,
      "inputs": [
        {
          "indexed": true,
          "internalType": "uint256",
          "name": "tokenId",
          "type": "uint256"
        },
        {
          "indexed": false,
          "internalType": "address",
          "name": "recipient",
          "type": "address"
        }
      ],
      "name": "LogRemoveCollateral",
      "type": "event"
    },
    {
      "anonymous": false,
      "inputs": [
        {
          "indexed": true,
          "internalType": "address",
          "name": "from",
          "type": "address"
        },
        {
          "indexed": true,
          "internalType": "uint256",
          "name": "tokenId",
          "type": "uint256"
        }
      ],
      "name": "LogRepay",
      "type": "event"
    },
    {
      "anonymous": false,
      "inputs": [
        {
          "indexed": true,
          "internalType": "address",
          "name": "borrower",
          "type": "address"
        },
        {
          "indexed": true,
          "internalType": "uint256",
          "name": "tokenId",
          "type": "uint256"
        },
        {
          "indexed": false,
          "internalType": "uint128",
          "name": "valuation",
          "type": "uint128"
        },
        {
          "indexed": false,
          "internalType": "uint64",
          "name": "duration",
          "type": "uint64"
        },
        {
          "indexed": false,
          "internalType": "uint16",
          "name": "annualInterestBPS",
          "type": "uint16"
        }
      ],
      "name": "LogRequestLoan",
      "type": "event"
    },
    {
      "anonymous": false,
      "inputs": [
        {
          "indexed": true,
          "internalType": "uint256",
          "name": "tokenId",
          "type": "uint256"
        },
        {
          "indexed": false,
          "internalType": "uint128",
          "name": "valuation",
          "type": "uint128"
        },
        {
          "indexed": false,
          "internalType": "uint64",
          "name": "duration",
          "type": "uint64"
        },
        {
          "indexed": false,
          "internalType": "uint16",
          "name": "annualInterestBPS",
          "type": "uint16"
        }
      ],
      "name": "LogUpdateLoanParams",
      "type": "event"
    },
    {
      "anonymous": false,
      "inputs": [
        {
          "indexed": true,
          "internalType": "address",
          "name": "feeTo",
          "type": "address"
        },
        {
          "indexed": false,
          "internalType": "uint256",
          "name": "feeShare",
          "type": "uint256"
        }
      ],
      "name": "LogWithdrawFees",
      "type": "event"
    },
    {
      "anonymous": false,
      "inputs": [
        {
          "indexed": true,
          "internalType": "address",
          "name": "previousOwner",
          "type": "address"
        },
        {
          "indexed": true,
          "internalType": "address",
          "name": "newOwner",
          "type": "address"
        }
      ],
      "name": "OwnershipTransferred",
      "type": "event"
    },
    {
      "inputs": [],
      "name": "DOMAIN_SEPARATOR",
      "outputs": [
        {
          "internalType": "bytes32",
          "name": "",
          "type": "bytes32"
        }
      ],
      "stateMutability": "view",
      "type": "function"
    },
    {
      "inputs": [],
      "name": "asset",
      "outputs": [
        {
          "internalType": "contract IERC20",
          "name": "",
          "type": "address"
        }
      ],
      "stateMutability": "view",
      "type": "function"
    },
    {
      "inputs": [],
      "name": "bentoBox",
      "outputs": [
        {
          "internalType": "contract IBentoBoxV1",
          "name": "",
          "type": "address"
        }
      ],
      "stateMutability": "view",
      "type": "function"
    },
    {
      "inputs": [
        {
          "internalType": "uint256",
          "name": "principal",
          "type": "uint256"
        },
        {
          "internalType": "uint64",
          "name": "t",
          "type": "uint64"
        },
        {
          "internalType": "uint16",
          "name": "aprBPS",
          "type": "uint16"
        }
      ],
      "name": "calculateInterest",
      "outputs": [
        {
          "internalType": "uint256",
          "name": "interest",
          "type": "uint256"
        }
      ],
      "stateMutability": "pure",
      "type": "function"
    },
    {
      "inputs": [],
      "name": "claimOwnership",
      "outputs": [],
      "stateMutability": "nonpayable",
      "type": "function"
    },
    {
      "inputs": [],
      "name": "collateral",
      "outputs": [
        {
          "internalType": "contract IERC721",
          "name": "",
          "type": "address"
        }
      ],
      "stateMutability": "view",
      "type": "function"
    },
    {
      "inputs": [
        {
          "internalType": "uint8[]",
          "name": "actions",
          "type": "uint8[]"
        },
        {
          "internalType": "uint256[]",
          "name": "values",
          "type": "uint256[]"
        },
        {
          "internalType": "bytes[]",
          "name": "datas",
          "type": "bytes[]"
        }
      ],
      "name": "cook",
      "outputs": [
        {
          "internalType": "uint256",
          "name": "value1",
          "type": "uint256"
        },
        {
          "internalType": "uint256",
          "name": "value2",
          "type": "uint256"
        }
      ],
      "stateMutability": "payable",
      "type": "function"
    },
    {
      "inputs": [],
      "name": "feeTo",
      "outputs": [
        {
          "internalType": "address",
          "name": "",
          "type": "address"
        }
      ],
      "stateMutability": "view",
      "type": "function"
    },
    {
      "inputs": [],
      "name": "feesEarnedShare",
      "outputs": [
        {
          "internalType": "uint256",
          "name": "",
          "type": "uint256"
        }
      ],
      "stateMutability": "view",
      "type": "function"
    },
    {
      "inputs": [
        {
          "internalType": "bytes",
          "name": "data",
          "type": "bytes"
        }
      ],
      "name": "init",
      "outputs": [],
      "stateMutability": "payable",
      "type": "function"
    },
    {
      "inputs": [
        {
          "internalType": "uint256",
          "name": "tokenId",
          "type": "uint256"
        },
        {
          "components": [
            {
              "internalType": "uint128",
              "name": "valuation",
              "type": "uint128"
            },
            {
              "internalType": "uint64",
              "name": "duration",
              "type": "uint64"
            },
            {
              "internalType": "uint16",
              "name": "annualInterestBPS",
              "type": "uint16"
            }
          ],
          "internalType": "struct TokenLoanParams",
          "name": "accepted",
          "type": "tuple"
        },
        {
          "internalType": "bool",
          "name": "skim",
          "type": "bool"
        }
      ],
      "name": "lend",
      "outputs": [],
      "stateMutability": "nonpayable",
      "type": "function"
    },
    {
      "inputs": [],
      "name": "masterContract",
      "outputs": [
        {
          "internalType": "contract NFTPair",
          "name": "",
          "type": "address"
        }
      ],
      "stateMutability": "view",
      "type": "function"
    },
    {
      "inputs": [
        {
          "internalType": "address",
          "name": "",
          "type": "address"
        }
      ],
      "name": "nonces",
      "outputs": [
        {
          "internalType": "uint256",
          "name": "",
          "type": "uint256"
        }
      ],
      "stateMutability": "view",
      "type": "function"
    },
    {
      "inputs": [],
      "name": "owner",
      "outputs": [
        {
          "internalType": "address",
          "name": "",
          "type": "address"
        }
      ],
      "stateMutability": "view",
      "type": "function"
    },
    {
      "inputs": [],
      "name": "pendingOwner",
      "outputs": [
        {
          "internalType": "address",
          "name": "",
          "type": "address"
        }
      ],
      "stateMutability": "view",
      "type": "function"
    },
    {
      "inputs": [
        {
          "internalType": "uint256",
          "name": "tokenId",
          "type": "uint256"
        },
        {
          "internalType": "address",
          "name": "to",
          "type": "address"
        }
      ],
      "name": "removeCollateral",
      "outputs": [],
      "stateMutability": "nonpayable",
      "type": "function"
    },
    {
      "inputs": [
        {
          "internalType": "uint256",
          "name": "tokenId",
          "type": "uint256"
        },
        {
          "internalType": "bool",
          "name": "skim",
          "type": "bool"
        }
      ],
      "name": "repay",
      "outputs": [
        {
          "internalType": "uint256",
          "name": "amount",
          "type": "uint256"
        }
      ],
      "stateMutability": "nonpayable",
      "type": "function"
    },
    {
      "inputs": [
        {
          "internalType": "uint256",
          "name": "tokenId",
          "type": "uint256"
        },
        {
          "internalType": "address",
          "name": "lender",
          "type": "address"
        },
        {
          "internalType": "address",
          "name": "recipient",
          "type": "address"
        },
        {
          "components": [
            {
              "internalType": "uint128",
              "name": "valuation",
              "type": "uint128"
            },
            {
              "internalType": "uint64",
              "name": "duration",
              "type": "uint64"
            },
            {
              "internalType": "uint16",
              "name": "annualInterestBPS",
              "type": "uint16"
            }
          ],
          "internalType": "struct TokenLoanParams",
          "name": "params",
          "type": "tuple"
        },
        {
          "internalType": "bool",
          "name": "skimCollateral",
          "type": "bool"
        },
        {
          "internalType": "bool",
          "name": "anyTokenId",
          "type": "bool"
        },
        {
          "internalType": "uint256",
          "name": "deadline",
          "type": "uint256"
        },
        {
          "internalType": "uint8",
          "name": "v",
          "type": "uint8"
        },
        {
          "internalType": "bytes32",
          "name": "r",
          "type": "bytes32"
        },
        {
          "internalType": "bytes32",
          "name": "s",
          "type": "bytes32"
        }
      ],
      "name": "requestAndBorrow",
      "outputs": [],
      "stateMutability": "nonpayable",
      "type": "function"
    },
    {
      "inputs": [
        {
          "internalType": "uint256",
          "name": "tokenId",
          "type": "uint256"
        },
        {
          "components": [
            {
              "internalType": "uint128",
              "name": "valuation",
              "type": "uint128"
            },
            {
              "internalType": "uint64",
              "name": "duration",
              "type": "uint64"
            },
            {
              "internalType": "uint16",
              "name": "annualInterestBPS",
              "type": "uint16"
            }
          ],
          "internalType": "struct TokenLoanParams",
          "name": "params",
          "type": "tuple"
        },
        {
          "internalType": "address",
          "name": "to",
          "type": "address"
        },
        {
          "internalType": "bool",
          "name": "skim",
          "type": "bool"
        }
      ],
      "name": "requestLoan",
      "outputs": [],
      "stateMutability": "nonpayable",
      "type": "function"
    },
    {
      "inputs": [
        {
          "internalType": "address",
          "name": "newFeeTo",
          "type": "address"
        }
      ],
      "name": "setFeeTo",
      "outputs": [],
      "stateMutability": "nonpayable",
      "type": "function"
    },
    {
      "inputs": [
        {
          "internalType": "uint256",
          "name": "tokenId",
          "type": "uint256"
        },
        {
          "internalType": "address",
          "name": "borrower",
          "type": "address"
        },
        {
          "components": [
            {
              "internalType": "uint128",
              "name": "valuation",
              "type": "uint128"
            },
            {
              "internalType": "uint64",
              "name": "duration",
              "type": "uint64"
            },
            {
              "internalType": "uint16",
              "name": "annualInterestBPS",
              "type": "uint16"
            }
          ],
          "internalType": "struct TokenLoanParams",
          "name": "params",
          "type": "tuple"
        },
        {
          "internalType": "bool",
          "name": "skimFunds",
          "type": "bool"
        },
        {
          "internalType": "uint256",
          "name": "deadline",
          "type": "uint256"
        },
        {
          "internalType": "uint8",
          "name": "v",
          "type": "uint8"
        },
        {
          "internalType": "bytes32",
          "name": "r",
          "type": "bytes32"
        },
        {
          "internalType": "bytes32",
          "name": "s",
          "type": "bytes32"
        }
      ],
      "name": "takeCollateralAndLend",
      "outputs": [],
      "stateMutability": "nonpayable",
      "type": "function"
    },
    {
      "inputs": [
        {
          "internalType": "uint256",
          "name": "",
          "type": "uint256"
        }
      ],
      "name": "tokenLoan",
      "outputs": [
        {
          "internalType": "address",
          "name": "borrower",
          "type": "address"
        },
        {
          "internalType": "address",
          "name": "lender",
          "type": "address"
        },
        {
          "internalType": "uint64",
          "name": "startTime",
          "type": "uint64"
        },
        {
          "internalType": "uint8",
          "name": "status",
          "type": "uint8"
        }
      ],
      "stateMutability": "view",
      "type": "function"
    },
    {
      "inputs": [
        {
          "internalType": "uint256",
          "name": "",
          "type": "uint256"
        }
      ],
      "name": "tokenLoanParams",
      "outputs": [
        {
          "internalType": "uint128",
          "name": "valuation",
          "type": "uint128"
        },
        {
          "internalType": "uint64",
          "name": "duration",
          "type": "uint64"
        },
        {
          "internalType": "uint16",
          "name": "annualInterestBPS",
          "type": "uint16"
        }
      ],
      "stateMutability": "view",
      "type": "function"
    },
    {
      "inputs": [
        {
          "internalType": "address",
          "name": "newOwner",
          "type": "address"
        },
        {
          "internalType": "bool",
          "name": "direct",
          "type": "bool"
        },
        {
          "internalType": "bool",
          "name": "renounce",
          "type": "bool"
        }
      ],
      "name": "transferOwnership",
      "outputs": [],
      "stateMutability": "nonpayable",
      "type": "function"
    },
    {
      "inputs": [
        {
          "internalType": "uint256",
          "name": "tokenId",
          "type": "uint256"
        },
        {
          "components": [
            {
              "internalType": "uint128",
              "name": "valuation",
              "type": "uint128"
            },
            {
              "internalType": "uint64",
              "name": "duration",
              "type": "uint64"
            },
            {
              "internalType": "uint16",
              "name": "annualInterestBPS",
              "type": "uint16"
            }
          ],
          "internalType": "struct TokenLoanParams",
          "name": "params",
          "type": "tuple"
        }
      ],
      "name": "updateLoanParams",
      "outputs": [],
      "stateMutability": "nonpayable",
      "type": "function"
    },
    {
      "inputs": [],
      "name": "withdrawFees",
      "outputs": [],
      "stateMutability": "nonpayable",
      "type": "function"
    }
  ],
  "transactionHash": "0x45ab4a0577a58d44883f9b5ecd9d948fb04a60456076d41f2d90b57b96fe1379",
  "args": [
    "0x9A5620779feF1928eF87c1111491212efC2C3cB8"
  ],
  "solcInputHash": "495ac39dee8145a05ebd7dff96081707",
  "bytecode": "0x6101006040523480156200001257600080fd5b5060405162003fdf38038062003fdf8339810160408190526200003591620000fd565b600080546001600160a01b0319163390811782556040519091907f8be0079c531659141344cd1fd0a4f28419497f9722a3daafe3b4186f6b6457e0908290a34660a08190526200008581620000a7565b608052506001600160601b0319606091821b1660c05230901b60e0526200014c565b60007f47e79534a245952e8b16893a336b85a3d9ea9fa8c573f3d803afb92a794692188230604051602001620000e0939291906200012d565b604051602081830303815290604052805190602001209050919050565b6000602082840312156200010f578081fd5b81516001600160a01b038116811462000126578182fd5b9392505050565b92835260208301919091526001600160a01b0316604082015260600190565b60805160a05160c05160601c60e05160601c613e02620001dd600039806108ba5280611b825250806109705280610d115280610ed95280610fb152806111d7528061160352806116af5280611764528061182b52806118f35280611f115280611fed528061219c52806126fc52806127c5528061288a528061291d525080611e75525080611eaa5250613e026000f3fe6080604052600436106101815760003560e01c806379921557116100d1578063cd446e221161008a578063e30c397811610064578063e30c397814610410578063e7cf3f8614610425578063f41f5e1e14610445578063f46901ed1461046557610181565b8063cd446e22146103c6578063d41ddc96146103db578063d8dfeb45146103fb57610181565b806379921557146103015780637ecebe00146103215780638bea2242146103415780638da5cb5b14610371578063ba0b362314610386578063c9878e45146103a657610181565b80633644e5151161013e5780634ddf47d4116101185780634ddf47d4146102a35780634e71e0c8146102b6578063656f3d64146102cb5780636b2ace87146102ec57610181565b80633644e5151461026457806338d52e0f14610279578063476343ee1461028e57610181565b8063017e7e5814610186578063078dfbe7146101b1578063114c2cda146101d35780631329b682146102005780631b65fe041461021557806321fa310014610235575b600080fd5b34801561019257600080fd5b5061019b610485565b6040516101a89190613491565b60405180910390f35b3480156101bd57600080fd5b506101d16101cc366004612e46565b610494565b005b3480156101df57600080fd5b506101f36101ee3660046133da565b610583565b6040516101a89190613536565b34801561020c57600080fd5b506101f36105f4565b34801561022157600080fd5b506101d1610230366004613305565b6105fa565b34801561024157600080fd5b5061025561025036600461313f565b61085f565b6040516101a893929190613c44565b34801561027057600080fd5b506101f3610898565b34801561028557600080fd5b5061019b6108a7565b34801561029a57600080fd5b506101d16108b6565b6101d16102b1366004612f41565b610a28565b3480156102c257600080fd5b506101d1610aaf565b6102de6102d9366004612e90565b610b3c565b6040516101a8929190613caf565b3480156102f857600080fd5b5061019b6111d5565b34801561030d57600080fd5b506101d161031c3660046132c2565b6111f9565b34801561032d57600080fd5b506101f361033c366004612cc5565b61141a565b34801561034d57600080fd5b5061036161035c36600461313f565b61142c565b6040516101a89493929190613502565b34801561037d57600080fd5b5061019b61146f565b34801561039257600080fd5b506101f36103a13660046132e1565b61147e565b3480156103b257600080fd5b506101d16103c136600461323f565b611a1f565b3480156103d257600080fd5b5061019b611b80565b3480156103e757600080fd5b506101d16103f636600461316f565b611ba4565b34801561040757600080fd5b5061019b611d96565b34801561041c57600080fd5b5061019b611da5565b34801561043157600080fd5b506101d1610440366004613331565b611db4565b34801561045157600080fd5b506101d1610460366004613382565b611dc7565b34801561047157600080fd5b506101d1610480366004612cc5565b611dd3565b6002546001600160a01b031681565b6000546001600160a01b031633146104c75760405162461bcd60e51b81526004016104be906139ea565b60405180910390fd5b8115610562576001600160a01b0383161515806104e15750805b6104fd5760405162461bcd60e51b81526004016104be90613845565b600080546040516001600160a01b03808716939216917f8be0079c531659141344cd1fd0a4f28419497f9722a3daafe3b4186f6b6457e091a3600080546001600160a01b0385166001600160a01b03199182161790915560018054909116905561057e565b600180546001600160a01b0319166001600160a01b0385161790555b505050565b64496cebb80061ffff82166001600160401b0384160284810282900491829060025b600681116105d95764496cebb8008201915081848402816105c257fe5b0492506105cf8584611e47565b94506001016105a5565b50600160801b84106105ea57600080fd5b5050509392505050565b60055481565b610602612b50565b50600082815260076020908152604091829020825160808101845281546001600160a01b03908116825260019092015491821692810192909252600160a01b81046001600160401b031692820192909252600160e01b90910460ff1660608201819052600214156107605780602001516001600160a01b0316336001600160a01b0316146106a25760405162461bcd60e51b81526004016104be90613ba8565b6106aa612b77565b50600083815260066020908152604091829020825160608101845290546001600160801b0381168252600160801b81046001600160401b03908116838501819052600160c01b90920461ffff169483019490945291850151909216108015906107225750805183516001600160801b03918216911611155b801561073e5750806040015161ffff16836040015161ffff1611155b61075a5760405162461bcd60e51b81526004016104be90613816565b506107b6565b606081015160ff166001141561079e5780516001600160a01b031633146107995760405162461bcd60e51b81526004016104be90613ab1565b6107b6565b60405162461bcd60e51b81526004016104be90613b4a565b6000838152600660209081526040918290208451815492860151868501516001600160801b03199094166001600160801b0383161767ffffffffffffffff60801b1916600160801b6001600160401b038316021761ffff60c01b1916600160c01b61ffff86160217909255925186937fdf52f3c0981f49c8b074bb6c4ebdc7f4cdaf7ff212ac032edec0684a9cfa73ef93610852939192613c44565b60405180910390a2505050565b6006602052600090815260409020546001600160801b03811690600160801b81046001600160401b031690600160c01b900461ffff1683565b60006108a2611e70565b905090565b6004546001600160a01b031681565b60007f00000000000000000000000000000000000000000000000000000000000000006001600160a01b031663017e7e586040518163ffffffff1660e01b815260040160206040518083038186803b15801561091157600080fd5b505afa158015610925573d6000803e3d6000fd5b505050506040513d601f19601f820116820180604052508101906109499190612ce8565b60055490915080156109e35760048054604051633c6340f360e21b81526001600160a01b037f000000000000000000000000000000000000000000000000000000000000000081169363f18d03cc936109ab9392169130918891889101613649565b600060405180830381600087803b1580156109c557600080fd5b505af11580156109d9573d6000803e3d6000fd5b5050600060055550505b816001600160a01b03167fbe641c3ffc44b2d6c184f023fa4ed7bda4b6ffa71e03b3c98ae0c776da1f17e782604051610a1c9190613536565b60405180910390a25050565b6003546001600160a01b031615610a515760405162461bcd60e51b81526004016104be90613ae8565b610a5d81830183613107565b600480546001600160a01b03199081166001600160a01b039384161790915560038054909116928216929092179182905516610aab5760405162461bcd60e51b81526004016104be90613b1f565b5050565b6001546001600160a01b0316338114610ada5760405162461bcd60e51b81526004016104be90613a4c565b600080546040516001600160a01b03808516939216917f8be0079c531659141344cd1fd0a4f28419497f9722a3daafe3b4186f6b6457e091a3600080546001600160a01b039092166001600160a01b0319928316179055600180549091169055565b60008060005b878110156111c9576000898983818110610b5857fe5b9050602002016020810190610b6d9190613410565b905060ff811660021415610bbf57600080878785818110610b8a57fe5b9050602002810190610b9c9190613cbd565b810190610ba991906132e1565b91509150610bb7828261147e565b5050506111c0565b60ff811660041415610c0e57600080878785818110610bda57fe5b9050602002810190610bec9190613cbd565b810190610bf9919061316f565b91509150610c078282611ba4565b50506111c0565b60ff8116600c1415610c6f576000610c24612b77565b600080898987818110610c3357fe5b9050602002810190610c459190613cbd565b810190610c529190613331565b9350935093509350610c6684848484611db4565b505050506111c0565b60ff8116600d1415610cc3576000610c85612b77565b6000888886818110610c9357fe5b9050602002810190610ca59190613cbd565b810190610cb29190613382565b925092509250610bb7838383611dc7565b60ff811660181415610da2576000806000806000808b8b89818110610ce457fe5b9050602002810190610cf69190613cbd565b810190610d039190612d04565b9550955095509550955095507f00000000000000000000000000000000000000000000000000000000000000006001600160a01b031663c0a47c938787878787876040518763ffffffff1660e01b8152600401610d65969594939291906134a5565b600060405180830381600087803b158015610d7f57600080fd5b505af1158015610d93573d6000803e3d6000fd5b505050505050505050506111c0565b60ff811660141415610e2a57610e20868684818110610dbd57fe5b9050602002810190610dcf9190613cbd565b8080601f0160208091040260200160405190810160405280939291908181526020018383808284376000920191909152508c92508b9150869050818110610e1257fe5b905060200201358686611ed0565b90945092506111c0565b60ff811660151415610e9557610e20868684818110610e4557fe5b9050602002810190610e579190613cbd565b8080601f016020809104026020016040519081016040528093929190818152602001838380828437600092019190915250889250879150611fc69050565b60ff811660161415610f6d576000806000888886818110610eb257fe5b9050602002810190610ec49190613cbd565b810190610ed19190612fad565b9250925092507f00000000000000000000000000000000000000000000000000000000000000006001600160a01b031663f18d03cc843385610f14868d8d6120b4565b6040518563ffffffff1660e01b8152600401610f339493929190613649565b600060405180830381600087803b158015610f4d57600080fd5b505af1158015610f61573d6000803e3d6000fd5b505050505050506111c0565b60ff811660171415611001576000606080888886818110610f8a57fe5b9050602002810190610f9c9190613cbd565b810190610fa99190613034565b9250925092507f00000000000000000000000000000000000000000000000000000000000000006001600160a01b0316630fca8843843385856040518563ffffffff1660e01b8152600401610f3394939291906136a7565b60ff8116601e14156110da57606060006110838a8a8681811061102057fe5b9050602002013589898781811061103357fe5b90506020028101906110459190613cbd565b8080601f0160208091040260200160405190810160405280939291908181526020018383808284376000920191909152508b92508a91506120de9050565b915091508060ff16600114156110ae57818060200190518101906110a79190613157565b9550610c07565b8060ff1660021415610c0757818060200190518101906110ce91906133b7565b909650945050506111c0565b60ff81166028141561114d5760008060006110f3612b77565b6000806000806000808f8f8d81811061110857fe5b905060200281019061111a9190613cbd565b8101906111279190613193565b9950995099509950995099509950995099509950610d938a8a8a8a8a8a8a8a8a8a6111f9565b60ff8116602914156111c057600080611164612b77565b60008060008060008d8d8b81811061117857fe5b905060200281019061118a9190613cbd565b810190611197919061323f565b975097509750975097509750975097506111b78888888888888888611a1f565b50505050505050505b50600101610b42565b50965096945050505050565b7f000000000000000000000000000000000000000000000000000000000000000081565b60ff8316158015611208575081155b8015611212575080155b156112b657604051630960450960e11b81526001600160a01b038a16906312c08a1290611245908d908b90600401613c72565b60206040518083038186803b15801561125d57600080fd5b505afa158015611271573d6000803e3d6000fd5b505050506040513d601f19601f820116820180604052508101906112959190612f25565b6112b15760405162461bcd60e51b81526004016104be906139a4565b6113f4565b834211156112d65760405162461bcd60e51b81526004016104be90613874565b6001600160a01b0389166000908152600860205260408120805460018101909155907f06bcca6f35b7c1b98f11abbb10957d273a681069ba90358de25404f49e2430f83088611325578d611328565b60005b898c600001518d602001518e60400151888d6040516020016113529998979695949392919061353f565b6040516020818303038152906040528051906020012090508a6001600160a01b0316600161137f836122ae565b8787876040516000815260200160405260405161139f9493929190613611565b6020604051602081039080840390855afa1580156113c1573d6000803e3d6000fd5b505050602060405103516001600160a01b0316146113f15760405162461bcd60e51b81526004016104be90613c0d565b50505b611401338b898b8a612303565b61140e898b896000612593565b50505050505050505050565b60086020526000908152604090205481565b600760205260009081526040902080546001909101546001600160a01b0391821691811690600160a01b81046001600160401b031690600160e01b900460ff1684565b6000546001600160a01b031681565b6000611488612b50565b50600083815260076020908152604091829020825160808101845281546001600160a01b03908116825260019092015491821692810192909252600160a01b81046001600160401b031692820192909252600160e01b90910460ff166060820181905260021461150a5760405162461bcd60e51b81526004016104be9061378f565b611512612b77565b50600084815260066020908152604091829020825160608101845290546001600160801b0381168252600160801b81046001600160401b03908116938301849052600160c01b90910461ffff16828501529284015190924291169091011161158c5760405162461bcd60e51b81526004016104be90613910565b60008160000151905060006115c66115c1836001600160801b031686604001516001600160401b031642038660400151610583565b612aec565b60048054604051636d289ce560e11b81526001600160801b03938416938616840198509293506127106103e8850204926000926001600160a01b037f000000000000000000000000000000000000000000000000000000000000000081169363da5139ca9361163e9392909116918c9187910161376c565b60206040518083038186803b15801561165657600080fd5b505afa15801561166a573d6000803e3d6000fd5b505050506040513d601f19601f8201168201806040525081019061168e9190613157565b60048054604051636d289ce560e11b81529293506000926001600160a01b037f000000000000000000000000000000000000000000000000000000000000000081169363da5139ca936116e893921691889187910161376c565b60206040518083038186803b15801561170057600080fd5b505afa158015611714573d6000803e3d6000fd5b505050506040513d601f19601f820116820180604052508101906117389190613157565b9050600089156118105760055460048054604051633de222bb60e21b8152928601926001600160a01b037f000000000000000000000000000000000000000000000000000000000000000081169363f7888aec9361179b9392169130910161362f565b60206040518083038186803b1580156117b357600080fd5b505afa1580156117c7573d6000803e3d6000fd5b505050506040513d601f19601f820116820180604052508101906117eb9190613157565b10156118095760405162461bcd60e51b81526004016104be90613a81565b503061189c565b60048054604051633c6340f360e21b81526001600160a01b037f000000000000000000000000000000000000000000000000000000000000000081169363f18d03cc936118669392169133913091899101613649565b600060405180830381600087803b15801561188057600080fd5b505af1158015611894573d6000803e3d6000fd5b505050503390505b600580548301905560008b81526007602090815260409182902080546001600160a01b031916815560010180546001600160e81b031916905560048054918b01519251633c6340f360e21b81526001600160a01b037f000000000000000000000000000000000000000000000000000000000000000081169463f18d03cc9461192e949216928792898b039101613649565b600060405180830381600087803b15801561194857600080fd5b505af115801561195c573d6000803e3d6000fd5b50505050600360009054906101000a90046001600160a01b03166001600160a01b03166323b872dd308a600001518e6040518463ffffffff1660e01b81526004016119a9939291906134de565b600060405180830381600087803b1580156119c357600080fd5b505af11580156119d7573d6000803e3d6000fd5b50506040518d92506001600160a01b03841691507fcd300581542c5eab58e736a0b08b42cec829c4504d1c16af90f4630b27e30de390600090a3505050505050505092915050565b83421115611a3f5760405162461bcd60e51b81526004016104be90613874565b600060086000896001600160a01b03166001600160a01b03168152602001908152602001600020600081548092919060010191905055905060007ff2c9128b0fb8406af3168320897e5ff08f3bb536dd5f804c29ed276e93ec433660001b308b8a600001518b602001518c60400151878c604051602001611ac798979695949392919061359d565b604051602081830303815290604052805190602001209050886001600160a01b03166001611af4836122ae565b87878760405160008152602001604052604051611b149493929190613611565b6020604051602081039080840390855afa158015611b36573d6000803e3d6000fd5b505050602060405103516001600160a01b031614611b665760405162461bcd60e51b81526004016104be90613c0d565b611b74898b8a8c6000612303565b61140e338b8a8a612593565b7f000000000000000000000000000000000000000000000000000000000000000081565b611bac612b50565b50600082815260076020908152604091829020825160808101845281546001600160a01b03908116825260019283015490811693820193909352600160a01b83046001600160401b031693810193909352600160e01b90910460ff16606083018190521415611c435780516001600160a01b03163314611c3e5760405162461bcd60e51b81526004016104be90613ab1565b611cd2565b606081015160ff1660021415611cd25780602001516001600160a01b0316336001600160a01b031614611c885760405162461bcd60e51b81526004016104be90613ba8565b60008381526006602052604090819020549082015142600160801b9092046001600160401b039081169116011115611cd25760405162461bcd60e51b81526004016104be90613bdf565b6000838152600760205260409081902080546001600160a01b031916815560010180546001600160e81b031916905560035490516323b872dd60e01b81526001600160a01b03909116906323b872dd90611d34903090869088906004016134de565b600060405180830381600087803b158015611d4e57600080fd5b505af1158015611d62573d6000803e3d6000fd5b50505050827f279c10f9827cdddd314534dd33cb906c270c3ac21cdd72ed94a1d534aca5a25a836040516108529190613491565b6003546001600160a01b031681565b6001546001600160a01b031681565b611dc13385858585612303565b50505050565b61057e33848484612593565b6000546001600160a01b03163314611dfd5760405162461bcd60e51b81526004016104be906139ea565b600280546001600160a01b0319166001600160a01b0383169081179091556040517fcf1d3f17e521c635e0d20b8acba94ba170afc041d0546d46dafa09d3c9c19eb390600090a250565b81810181811015611e6a5760405162461bcd60e51b81526004016104be9061393f565b92915050565b6000467f00000000000000000000000000000000000000000000000000000000000000008114611ea857611ea381612b19565b611eca565b7f00000000000000000000000000000000000000000000000000000000000000005b91505090565b60008060008060008089806020019051810190611eed9190612fed565b9350935093509350611f008289896120b4565b9150611f0d8189896120b4565b90507f00000000000000000000000000000000000000000000000000000000000000006001600160a01b03166302b9446c8a86338787876040518763ffffffff1660e01b8152600401611f64959493929190613673565b60408051808303818588803b158015611f7c57600080fd5b505af1158015611f90573d6000803e3d6000fd5b50505050506040513d601f19601f82011682018060405250810190611fb591906133b7565b955095505050505094509492505050565b60008060008060008088806020019051810190611fe39190612fed565b93509350935093507f00000000000000000000000000000000000000000000000000000000000000006001600160a01b03166397da6d30853386612028878e8e6120b4565b612033878f8f6120b4565b6040518663ffffffff1660e01b8152600401612053959493929190613673565b6040805180830381600087803b15801561206c57600080fd5b505af1158015612080573d6000803e3d6000fd5b505050506040513d601f19601f820116820180604052508101906120a491906133b7565b9550955050505050935093915050565b6000808412156120d45760001984146120cd57816120cf565b825b6120d6565b835b949350505050565b606060008060606000806000898060200190518101906120fe9190612d71565b94509450945094509450828015612113575081155b1561214157838960405160200161212b929190613448565b604051602081830303815290604052935061219a565b8215801561214c5750815b1561216457838860405160200161212b929190613448565b82801561216e5750815b1561219a578389896040516020016121889392919061346a565b60405160208183030381529060405293505b7f00000000000000000000000000000000000000000000000000000000000000006001600160a01b0316856001600160a01b0316141580156121ea57506003546001600160a01b03868116911614155b80156121ff57506001600160a01b0385163014155b61221b5760405162461bcd60e51b81526004016104be90613a1f565b60006060866001600160a01b03168d87604051612238919061342c565b60006040518083038185875af1925050503d8060008114612275576040519150601f19603f3d011682016040523d82523d6000602084013e61227a565b606091505b50915091508161229c5760405162461bcd60e51b81526004016104be906138ab565b9c919b50909950505050505050505050565b600060405180604001604052806002815260200161190160f01b8152506122d3611e70565b836040516020016122e69392919061346a565b604051602081830303815290604052805190602001209050919050565b600084815260076020526040902060010154600160e01b900460ff161561233c5760405162461bcd60e51b81526004016104be90613976565b80156123ed576003546040516331a9108f60e11b815230916001600160a01b031690636352211e90612372908890600401613536565b60206040518083038186803b15801561238a57600080fd5b505afa15801561239e573d6000803e3d6000fd5b505050506040513d601f19601f820116820180604052508101906123c29190612ce8565b6001600160a01b0316146123e85760405162461bcd60e51b81526004016104be90613b7a565b612454565b6003546040516323b872dd60e01b81526001600160a01b03909116906323b872dd90612421908890309089906004016134de565b600060405180830381600087803b15801561243b57600080fd5b505af115801561244f573d6000803e3d6000fd5b505050505b61245c612b50565b6001600160a01b038381168083526001606084018181526000898152600760209081526040808320885181546001600160a01b0319908116918a16919091178255838a0151919096018054838b015196519716919098161767ffffffffffffffff60a01b1916600160a01b6001600160401b03958616021760ff60e01b1916600160e01b60ff90961695909502949094179095556006855282902088518154958a01518a8501516001600160801b03199097166001600160801b0383161767ffffffffffffffff60801b1916600160801b948216949094029390931761ffff60c01b1916600160c01b61ffff88160217909155915189947f37067dab1c05118bd00db86de14fcd009c2a6109392037ade66d33f8f6bcd17393612583939092909190613c44565b60405180910390a3505050505050565b61259b612b50565b50600083815260076020908152604091829020825160808101845281546001600160a01b03908116825260019283015490811693820193909352600160a01b83046001600160401b031693810193909352600160e01b90910460ff16606083018190521461261b5760405162461bcd60e51b81526004016104be906137b9565b612623612b77565b50600084815260066020908152604091829020825160608101845290546001600160801b03808216808452600160801b83046001600160401b031694840194909452600160c01b90910461ffff169382019390935285519092161480156126a4575083602001516001600160401b031681602001516001600160401b031611155b80156126c05750836040015161ffff16816040015161ffff1610155b6126dc5760405162461bcd60e51b81526004016104be906137e9565b600480548251604051636d289ce560e11b81526000936001600160a01b037f000000000000000000000000000000000000000000000000000000000000000081169463da5139ca94612735949190921692879101613740565b60206040518083038186803b15801561274d57600080fd5b505afa158015612761573d6000803e3d6000fd5b505050506040513d601f19601f820116820180604052508101906127859190613157565b905061271060648202819004906103e8820204851561286f5760055460048054604051633de222bb60e21b81528587038501909301926001600160a01b037f000000000000000000000000000000000000000000000000000000000000000081169363f7888aec936127fc9392169130910161362f565b60206040518083038186803b15801561281457600080fd5b505afa158015612828573d6000803e3d6000fd5b505050506040513d601f19601f8201168201806040525081019061284c9190613157565b101561286a5760405162461bcd60e51b81526004016104be90613a81565b6128fc565b60048054604051633c6340f360e21b81526001600160a01b037f000000000000000000000000000000000000000000000000000000000000000081169363f18d03cc936128c9939216918e913091898b0389019101613649565b600060405180830381600087803b1580156128e357600080fd5b505af11580156128f7573d6000803e3d6000fd5b505050505b600480548651604051633c6340f360e21b8152858703936001600160a01b037f000000000000000000000000000000000000000000000000000000000000000081169463f18d03cc94612959949190921692309291889101613649565b600060405180830381600087803b15801561297357600080fd5b505af1158015612987573d6000803e3d6000fd5b50505050816005600082825401925050819055508986602001906001600160a01b031690816001600160a01b0316815250506002866060019060ff16908160ff16815250504286604001906001600160401b031690816001600160401b03168152505085600760008b815260200190815260200160002060008201518160000160006101000a8154816001600160a01b0302191690836001600160a01b0316021790555060208201518160010160006101000a8154816001600160a01b0302191690836001600160a01b0316021790555060408201518160010160146101000a8154816001600160401b0302191690836001600160401b03160217905550606082015181600101601c6101000a81548160ff021916908360ff160217905550905050888a6001600160a01b03167ff0742e8f1b967b4a34ebd6094f10a23dd802856a1591ee09b37c06df665ec18e60405160405180910390a350505050505050505050565b60006001600160801b03821115612b155760405162461bcd60e51b81526004016104be906138d9565b5090565b60007f47e79534a245952e8b16893a336b85a3d9ea9fa8c573f3d803afb92a7946921882306040516020016122e6939291906135f2565b60408051608081018252600080825260208201819052918101829052606081019190915290565b604080516060810182526000808252602082018190529181019190915290565b60008083601f840112612ba8578182fd5b5081356001600160401b03811115612bbe578182fd5b6020830191508360208083028501011115612bd857600080fd5b9250929050565b600082601f830112612bef578081fd5b8135612c02612bfd82613d27565b613d01565b818152915060208083019084810181840286018201871015612c2357600080fd5b60005b84811015612c4257813584529282019290820190600101612c26565b505050505092915050565b8051611e6a81613d8a565b600060608284031215612c69578081fd5b612c736060613d01565b905081356001600160801b0381168114612c8c57600080fd5b81526020820135612c9c81613da8565b60208201526040820135612caf81613d98565b604082015292915050565b8051611e6a81613dbd565b600060208284031215612cd6578081fd5b8135612ce181613d72565b9392505050565b600060208284031215612cf9578081fd5b8151612ce181613d72565b60008060008060008060c08789031215612d1c578182fd5b8635612d2781613d72565b95506020870135612d3781613d72565b94506040870135612d4781613d8a565b93506060870135612d5781613dbd565b9598949750929560808101359460a0909101359350915050565b600080600080600060a08688031215612d88578283fd5b8551612d9381613d72565b60208701519095506001600160401b0380821115612daf578485fd5b818801915088601f830112612dc2578485fd5b815181811115612dd0578586fd5b612de3601f8201601f1916602001613d01565b9150808252896020828501011115612df9578586fd5b612e0a816020840160208601613d46565b509450612e1c90508760408801612c4d565b9250612e2b8760608801612c4d565b9150612e3a8760808801612cba565b90509295509295909350565b600080600060608486031215612e5a578081fd5b8335612e6581613d72565b92506020840135612e7581613d8a565b91506040840135612e8581613d8a565b809150509250925092565b60008060008060008060608789031215612ea8578384fd5b86356001600160401b0380821115612ebe578586fd5b612eca8a838b01612b97565b90985096506020890135915080821115612ee2578586fd5b612eee8a838b01612b97565b90965094506040890135915080821115612f06578384fd5b50612f1389828a01612b97565b979a9699509497509295939492505050565b600060208284031215612f36578081fd5b8151612ce181613d8a565b60008060208385031215612f53578182fd5b82356001600160401b0380821115612f69578384fd5b818501915085601f830112612f7c578384fd5b813581811115612f8a578485fd5b866020828501011115612f9b578485fd5b60209290920196919550909350505050565b600080600060608486031215612fc1578081fd5b8335612fcc81613d72565b92506020840135612fdc81613d72565b929592945050506040919091013590565b60008060008060808587031215613002578182fd5b845161300d81613d72565b602086015190945061301e81613d72565b6040860151606090960151949790965092505050565b600080600060608486031215613048578081fd5b833561305381613d72565b92506020848101356001600160401b038082111561306f578384fd5b818701915087601f830112613082578384fd5b8135613090612bfd82613d27565b81815284810190848601868402860187018c10156130ac578788fd5b8795505b838610156130d75780356130c381613d72565b8352600195909501949186019186016130b0565b509650505060408701359250808311156130ef578384fd5b50506130fd86828701612bdf565b9150509250925092565b60008060408385031215613119578182fd5b823561312481613d72565b9150602083013561313481613d72565b809150509250929050565b600060208284031215613150578081fd5b5035919050565b600060208284031215613168578081fd5b5051919050565b60008060408385031215613181578182fd5b82359150602083013561313481613d72565b6000806000806000806000806000806101808b8d0312156131b2578788fd5b8a35995060208b01356131c481613d72565b985060408b01356131d481613d72565b97506131e38c60608d01612c58565b965060c08b01356131f381613d8a565b955060e08b013561320381613d8a565b94506101008b013593506101208b013561321c81613dbd565b809350506101408b013591506101608b013590509295989b9194979a5092959850565b600080600080600080600080610140898b03121561325b578182fd5b88359750602089013561326d81613d72565b965061327c8a60408b01612c58565b955060a089013561328c81613d8a565b945060c0890135935060e08901356132a381613dbd565b979a969950949793969295929450505061010082013591610120013590565b6000806000806000806000806000806101808b8d0312156131b2578384fd5b600080604083850312156132f3578182fd5b82359150602083013561313481613d8a565b60008060808385031215613317578182fd5b823591506133288460208501612c58565b90509250929050565b60008060008060c08587031215613346578182fd5b843593506133578660208701612c58565b9250608085013561336781613d72565b915060a085013561337781613d8a565b939692955090935050565b600080600060a08486031215613396578081fd5b833592506133a78560208601612c58565b91506080840135612e8581613d8a565b600080604083850312156133c9578182fd5b505080516020909101519092909150565b6000806000606084860312156133ee578081fd5b83359250602084013561340081613da8565b91506040840135612e8581613d98565b600060208284031215613421578081fd5b8135612ce181613dbd565b6000825161343e818460208701613d46565b9190910192915050565b6000835161345a818460208801613d46565b9190910191825250602001919050565b6000845161347c818460208901613d46565b91909101928352506020820152604001919050565b6001600160a01b0391909116815260200190565b6001600160a01b039687168152949095166020850152911515604084015260ff166060830152608082015260a081019190915260c00190565b6001600160a01b039384168152919092166020820152604081019190915260600190565b6001600160a01b0394851681529290931660208301526001600160401b0316604082015260ff909116606082015260800190565b90815260200190565b9889526001600160a01b03979097166020890152604088019590955292151560608701526001600160801b039190911660808601526001600160401b031660a085015261ffff1660c084015260e08301526101008201526101200190565b9788526001600160a01b0396909616602088015260408701949094526001600160801b039290921660608601526001600160401b0316608085015261ffff1660a084015260c083015260e08201526101000190565b92835260208301919091526001600160a01b0316604082015260600190565b93845260ff9290921660208401526040830152606082015260800190565b6001600160a01b0392831681529116602082015260400190565b6001600160a01b039485168152928416602084015292166040820152606081019190915260800190565b6001600160a01b03958616815293851660208501529190931660408301526060820192909252608081019190915260a00190565b60006080820160018060a01b0380881684526020818816818601526080604086015282875180855260a0870191508289019450855b818110156136fa5785518516835294830194918301916001016136dc565b50508581036060870152865180825290820193509150808601845b8381101561373157815185529382019390820190600101613715565b50929998505050505050505050565b6001600160a01b039390931683526001600160801b039190911660208301521515604082015260600190565b6001600160a01b0393909316835260208301919091521515604082015260600190565b60208082526010908201526f27232a2830b4b91d103737903637b0b760811b604082015260600190565b6020808252601690820152754e4654506169723a206e6f7420617661696c61626c6560501b604082015260600190565b6020808252601390820152724e4654506169723a2062616420706172616d7360681b604082015260600190565b6020808252601590820152744e4654506169723a20776f72736520706172616d7360581b604082015260600190565b6020808252601590820152744f776e61626c653a207a65726f206164647265737360581b604082015260600190565b6020808252601a908201527f4e4654506169723a207369676e61747572652065787069726564000000000000604082015260600190565b60208082526014908201527313919514185a5c8e8818d85b1b0819985a5b195960621b604082015260600190565b6020808252601c908201527f426f72696e674d6174683a2075696e74313238204f766572666c6f7700000000604082015260600190565b60208082526015908201527413919514185a5c8e881b1bd85b88195e1c1a5c9959605a1b604082015260600190565b60208082526018908201527f426f72696e674d6174683a20416464204f766572666c6f770000000000000000604082015260600190565b6020808252601490820152734e4654506169723a206c6f616e2065786973747360601b604082015260600190565b60208082526026908201527f4e4654506169723a204c656e64696e67436c756220646f6573206e6f74206c696040820152656b6520796f7560d01b606082015260800190565b6020808252818101527f4f776e61626c653a2063616c6c6572206973206e6f7420746865206f776e6572604082015260600190565b60208082526013908201527213919514185a5c8e8818d85b89dd0818d85b1b606a1b604082015260600190565b6020808252818101527f4f776e61626c653a2063616c6c657220213d2070656e64696e67206f776e6572604082015260600190565b60208082526016908201527509c8ca8a0c2d2e47440e6d6d2da40e8dede40daeac6d60531b604082015260600190565b60208082526019908201527f4e4654506169723a206e6f742074686520626f72726f77657200000000000000604082015260600190565b6020808252601c908201527f4e4654506169723a20616c726561647920696e697469616c697a656400000000604082015260600190565b60208082526011908201527027232a2830b4b91d103130b2103830b4b960791b604082015260600190565b60208082526016908201527513919514185a5c8e881b9bc818dbdb1b185d195c985b60521b604082015260600190565b60208082526014908201527313919514185a5c8e881cdada5b4819985a5b195960621b604082015260600190565b60208082526017908201527f4e4654506169723a206e6f7420746865206c656e646572000000000000000000604082015260600190565b60208082526014908201527313919514185a5c8e881b9bdd08195e1c1a5c995960621b604082015260600190565b6020808252601a908201527f4e4654506169723a207369676e617475726520696e76616c6964000000000000604082015260600190565b6001600160801b039390931683526001600160401b0391909116602083015261ffff16604082015260600190565b91825280516001600160801b03166020808401919091528101516001600160401b0316604080840191909152015161ffff16606082015260800190565b918252602082015260400190565b6000808335601e19843603018112613cd3578283fd5b8301803591506001600160401b03821115613cec578283fd5b602001915036819003821315612bd857600080fd5b6040518181016001600160401b0381118282101715613d1f57600080fd5b604052919050565b60006001600160401b03821115613d3c578081fd5b5060209081020190565b60005b83811015613d61578181015183820152602001613d49565b83811115611dc15750506000910152565b6001600160a01b0381168114613d8757600080fd5b50565b8015158114613d8757600080fd5b61ffff81168114613d8757600080fd5b6001600160401b0381168114613d8757600080fd5b60ff81168114613d8757600080fdfea2646970667358221220be96e15312f71b4b3e89cf5382353d98018daa218fd94eba4b435767c89e377f64736f6c634300060c0033",
  "devdoc": {
    "details": "This contract allows contract calls to any contract (except BentoBox) from arbitrary callers thus, don't trust calls from this contract in any circumstances.",
    "kind": "dev",
    "methods": {
      "cook(uint8[],uint256[],bytes[])": {
        "params": {
          "actions": "An array with a sequence of actions to execute (see ACTION_ declarations).",
          "datas": "A one-to-one mapped array to `actions`. Contains abi encoded data of function arguments.",
          "values": "A one-to-one mapped array to `actions`. ETH amounts to send along with the actions. Only applicable to `ACTION_CALL`, `ACTION_BENTO_DEPOSIT`."
        },
        "returns": {
          "value1": "May contain the first positioned return value of the last executed action (if applicable).",
          "value2": "May contain the second positioned return value of the last executed action which returns 2 values (if applicable)."
        }
      },
      "lend(uint256,(uint128,uint64,uint16),bool)": {
        "params": {
          "accepted": "Loan parameters as the lender saw them, for security",
          "skim": "True if the funds have been transfered to the contract",
          "tokenId": "ID of the token that will function as collateral"
        }
      },
      "removeCollateral(uint256,address)": {
        "params": {
          "to": "The receiver of the token.",
          "tokenId": "The token"
        }
      },
      "requestAndBorrow(uint256,address,address,(uint128,uint64,uint16),bool,bool,uint256,uint8,bytes32,bytes32)": {
        "params": {
          "anyTokenId": "Set if lender agreed to any token. Must have tokenId 0 in signature.",
          "lender": "Lender, whose BentoBox balance the funds will come from",
          "params": "Loan parameters requested, and signed by the lender",
          "recipient": "Address to receive the loan.",
          "skimCollateral": "True if the collateral has already been transfered",
          "tokenId": "ID of the token that will function as collateral"
        }
      },
      "requestLoan(uint256,(uint128,uint64,uint16),address,bool)": {
        "params": {
          "params": "Loan conditions on offer",
          "skim": "True if the token has already been transfered",
          "to": "Address to receive the loan, or option to withdraw collateral",
          "tokenId": "ID of the NFT"
        }
      },
      "setFeeTo(address)": {
        "params": {
          "newFeeTo": "The address of the receiver."
        }
      },
      "takeCollateralAndLend(uint256,address,(uint128,uint64,uint16),bool,uint256,uint8,bytes32,bytes32)": {
        "params": {
          "borrower": "Address that provides collateral and receives the loan",
          "params": "Loan terms offered, and signed by the borrower",
          "skimFunds": "True if the funds have been transfered to the contract",
          "tokenId": "ID of the token that will function as collateral"
        }
      },
      "transferOwnership(address,bool,bool)": {
        "params": {
          "direct": "True if `newOwner` should be set immediately. False if `newOwner` needs to use `claimOwnership`.",
          "newOwner": "Address of the new owner.",
          "renounce": "Allows the `newOwner` to be `address(0)` if `direct` and `renounce` is True. Has no effect otherwise."
        }
      }
    },
    "title": "NFTPair",
    "version": 1
  },
  "userdoc": {
    "kind": "user",
    "methods": {
      "calculateInterest(uint256,uint64,uint16)": {
        "notice": "Approximates continuous compounding. Uses Horner's method to evaluate the truncated Maclaurin series for exp - 1, accumulating rounding errors along the way. The following is always guaranteed:   principal * time * apr <= result <= principal * (e^(time * apr) - 1), where time = t/YEAR, up to at most the rounding error obtained in calculating linear interest. If the theoretical result that we are approximating (the rightmost part of the above inquality) fits in 128 bits, then the function is guaranteed not to revert (unless n > 250, which is way too high). If even the linear interest (leftmost part of the inequality) does not the function will revert. Otherwise, the function may revert, return a reasonable result, or return a very inaccurate result. Even then the above inequality is respected."
      },
      "claimOwnership()": {
        "notice": "Needs to be called by `pendingOwner` to claim ownership."
      },
      "constructor": "The constructor is only used for the initial master contract.Subsequent clones are initialised via `init`.",
      "cook(uint8[],uint256[],bytes[])": {
        "notice": "Executes a set of actions and allows composability (contract calls) to other contracts."
      },
      "init(bytes)": {
        "notice": "De facto constructor for clone contracts"
      },
      "lend(uint256,(uint128,uint64,uint16),bool)": {
        "notice": "Lends with the parameters specified by the borrower."
      },
      "removeCollateral(uint256,address)": {
        "notice": "Removes `tokenId` as collateral and transfers it to `to`.This destroys the loan."
      },
      "requestAndBorrow(uint256,address,address,(uint128,uint64,uint16),bool,bool,uint256,uint8,bytes32,bytes32)": {
        "notice": "Caller provides collateral; loan can go to a different address."
      },
      "requestLoan(uint256,(uint128,uint64,uint16),address,bool)": {
        "notice": "Deposit an NFT as collateral and request a loan against it"
      },
      "setFeeTo(address)": {
        "notice": "Sets the beneficiary of fees accrued in liquidations. MasterContract Only Admin function."
      },
      "takeCollateralAndLend(uint256,address,(uint128,uint64,uint16),bool,uint256,uint8,bytes32,bytes32)": {
        "notice": "Take collateral from a pre-commited borrower and lend against itCollateral must come from the borrower, not a third party."
      },
      "transferOwnership(address,bool,bool)": {
        "notice": "Transfers ownership to `newOwner`. Either directly or claimable by the new pending owner. Can only be invoked by the current `owner`."
      },
      "withdrawFees()": {
        "notice": "Withdraws the fees accumulated."
      }
    },
    "version": 1
  },
  "storageLayout": {
    "storage": [
      {
        "astId": 674,
        "contract": "contracts/NFTPair.sol:NFTPair",
        "label": "owner",
        "offset": 0,
        "slot": "0",
        "type": "t_address"
      },
      {
        "astId": 676,
        "contract": "contracts/NFTPair.sol:NFTPair",
        "label": "pendingOwner",
        "offset": 0,
        "slot": "1",
        "type": "t_address"
      },
      {
        "astId": 14561,
        "contract": "contracts/NFTPair.sol:NFTPair",
        "label": "feeTo",
        "offset": 0,
        "slot": "2",
        "type": "t_address"
      },
      {
        "astId": 14563,
        "contract": "contracts/NFTPair.sol:NFTPair",
        "label": "collateral",
        "offset": 0,
        "slot": "3",
        "type": "t_contract(IERC721)19856"
      },
      {
        "astId": 14565,
        "contract": "contracts/NFTPair.sol:NFTPair",
        "label": "asset",
        "offset": 0,
        "slot": "4",
        "type": "t_contract(IERC20)1405"
      },
      {
        "astId": 14567,
        "contract": "contracts/NFTPair.sol:NFTPair",
        "label": "feesEarnedShare",
        "offset": 0,
        "slot": "5",
        "type": "t_uint256"
      },
      {
        "astId": 14571,
        "contract": "contracts/NFTPair.sol:NFTPair",
        "label": "tokenLoanParams",
        "offset": 0,
        "slot": "6",
        "type": "t_mapping(t_uint256,t_struct(TokenLoanParams)14439_storage)"
      },
      {
        "astId": 14593,
        "contract": "contracts/NFTPair.sol:NFTPair",
        "label": "tokenLoan",
        "offset": 0,
        "slot": "7",
        "type": "t_mapping(t_uint256,t_struct(TokenLoan)14589_storage)"
      },
      {
        "astId": 14618,
        "contract": "contracts/NFTPair.sol:NFTPair",
        "label": "nonces",
        "offset": 0,
        "slot": "8",
        "type": "t_mapping(t_address,t_uint256)"
      }
    ],
    "types": {
      "t_address": {
        "encoding": "inplace",
        "label": "address",
        "numberOfBytes": "20"
      },
      "t_contract(IERC20)1405": {
        "encoding": "inplace",
        "label": "contract IERC20",
        "numberOfBytes": "20"
      },
      "t_contract(IERC721)19856": {
        "encoding": "inplace",
        "label": "contract IERC721",
        "numberOfBytes": "20"
      },
      "t_mapping(t_address,t_uint256)": {
        "encoding": "mapping",
        "key": "t_address",
        "label": "mapping(address => uint256)",
        "numberOfBytes": "32",
        "value": "t_uint256"
      },
      "t_mapping(t_uint256,t_struct(TokenLoan)14589_storage)": {
        "encoding": "mapping",
        "key": "t_uint256",
        "label": "mapping(uint256 => struct NFTPair.TokenLoan)",
        "numberOfBytes": "32",
        "value": "t_struct(TokenLoan)14589_storage"
      },
      "t_mapping(t_uint256,t_struct(TokenLoanParams)14439_storage)": {
        "encoding": "mapping",
        "key": "t_uint256",
        "label": "mapping(uint256 => struct TokenLoanParams)",
        "numberOfBytes": "32",
        "value": "t_struct(TokenLoanParams)14439_storage"
      },
      "t_struct(TokenLoan)14589_storage": {
        "encoding": "inplace",
        "label": "struct NFTPair.TokenLoan",
        "members": [
          {
            "astId": 14582,
            "contract": "contracts/NFTPair.sol:NFTPair",
            "label": "borrower",
            "offset": 0,
            "slot": "0",
            "type": "t_address"
          },
          {
            "astId": 14584,
            "contract": "contracts/NFTPair.sol:NFTPair",
            "label": "lender",
            "offset": 0,
            "slot": "1",
            "type": "t_address"
          },
          {
            "astId": 14586,
            "contract": "contracts/NFTPair.sol:NFTPair",
            "label": "startTime",
            "offset": 20,
            "slot": "1",
            "type": "t_uint64"
          },
          {
            "astId": 14588,
            "contract": "contracts/NFTPair.sol:NFTPair",
            "label": "status",
            "offset": 28,
            "slot": "1",
            "type": "t_uint8"
          }
        ],
        "numberOfBytes": "64"
      },
      "t_struct(TokenLoanParams)14439_storage": {
        "encoding": "inplace",
        "label": "struct TokenLoanParams",
        "members": [
          {
            "astId": 14434,
            "contract": "contracts/NFTPair.sol:NFTPair",
            "label": "valuation",
            "offset": 0,
            "slot": "0",
            "type": "t_uint128"
          },
          {
            "astId": 14436,
            "contract": "contracts/NFTPair.sol:NFTPair",
            "label": "duration",
            "offset": 16,
            "slot": "0",
            "type": "t_uint64"
          },
          {
            "astId": 14438,
            "contract": "contracts/NFTPair.sol:NFTPair",
            "label": "annualInterestBPS",
            "offset": 24,
            "slot": "0",
            "type": "t_uint16"
          }
        ],
        "numberOfBytes": "32"
      },
      "t_uint128": {
        "encoding": "inplace",
        "label": "uint128",
        "numberOfBytes": "16"
      },
      "t_uint16": {
        "encoding": "inplace",
        "label": "uint16",
        "numberOfBytes": "2"
      },
      "t_uint256": {
        "encoding": "inplace",
        "label": "uint256",
        "numberOfBytes": "32"
      },
      "t_uint64": {
        "encoding": "inplace",
        "label": "uint64",
        "numberOfBytes": "8"
      },
      "t_uint8": {
        "encoding": "inplace",
        "label": "uint8",
        "numberOfBytes": "1"
      }
    }
  }
}