{
  "_format": "hh-sol-artifact-1",
  "contractName": "MockYearnV2",
  "sourceName": "contracts/mock/MockYearnV2.sol",
  "abi": [
    {
      "inputs": [
        {
          "internalType": "string",
          "name": "name",
          "type": "string"
        },
        {
          "internalType": "string",
          "name": "symbol",
          "type": "string"
        },
        {
          "internalType": "contract IERC20",
          "name": "_underlying",
          "type": "address"
        }
      ],
      "stateMutability": "nonpayable",
      "type": "constructor"
    },
    {
      "anonymous": false,
      "inputs": [
        {
          "indexed": true,
          "internalType": "address",
          "name": "owner",
          "type": "address"
        },
        {
          "indexed": true,
          "internalType": "address",
          "name": "spender",
          "type": "address"
        },
        {
          "indexed": false,
          "internalType": "uint256",
          "name": "value",
          "type": "uint256"
        }
      ],
      "name": "Approval",
      "type": "event"
    },
    {
      "anonymous": false,
      "inputs": [
        {
          "indexed": true,
          "internalType": "address",
          "name": "from",
          "type": "address"
        },
        {
          "indexed": true,
          "internalType": "address",
          "name": "to",
          "type": "address"
        },
        {
          "indexed": false,
          "internalType": "uint256",
          "name": "value",
          "type": "uint256"
        }
      ],
      "name": "Transfer",
      "type": "event"
    },
    {
      "inputs": [
        {
          "internalType": "address",
          "name": "owner",
          "type": "address"
        },
        {
          "internalType": "address",
          "name": "spender",
          "type": "address"
        }
      ],
      "name": "allowance",
      "outputs": [
        {
          "internalType": "uint256",
          "name": "",
          "type": "uint256"
        }
      ],
      "stateMutability": "view",
      "type": "function"
    },
    {
      "inputs": [
        {
          "internalType": "address",
          "name": "spender",
          "type": "address"
        },
        {
          "internalType": "uint256",
          "name": "amount",
          "type": "uint256"
        }
      ],
      "name": "approve",
      "outputs": [
        {
          "internalType": "bool",
          "name": "",
          "type": "bool"
        }
      ],
      "stateMutability": "nonpayable",
      "type": "function"
    },
    {
      "inputs": [],
      "name": "balance",
      "outputs": [
        {
          "internalType": "uint256",
          "name": "",
          "type": "uint256"
        }
      ],
      "stateMutability": "view",
      "type": "function"
    },
    {
      "inputs": [
        {
          "internalType": "address",
          "name": "account",
          "type": "address"
        }
      ],
      "name": "balanceOf",
      "outputs": [
        {
          "internalType": "uint256",
          "name": "",
          "type": "uint256"
        }
      ],
      "stateMutability": "view",
      "type": "function"
    },
    {
      "inputs": [],
      "name": "decimals",
      "outputs": [
        {
          "internalType": "uint8",
          "name": "",
          "type": "uint8"
        }
      ],
      "stateMutability": "view",
      "type": "function"
    },
    {
      "inputs": [
        {
          "internalType": "address",
          "name": "spender",
          "type": "address"
        },
        {
          "internalType": "uint256",
          "name": "subtractedValue",
          "type": "uint256"
        }
      ],
      "name": "decreaseAllowance",
      "outputs": [
        {
          "internalType": "bool",
          "name": "",
          "type": "bool"
        }
      ],
      "stateMutability": "nonpayable",
      "type": "function"
    },
    {
      "inputs": [
        {
          "internalType": "uint256",
          "name": "_amount",
          "type": "uint256"
        }
      ],
      "name": "deposit",
      "outputs": [
        {
          "internalType": "uint256",
          "name": "",
          "type": "uint256"
        }
      ],
      "stateMutability": "nonpayable",
      "type": "function"
    },
    {
      "inputs": [],
      "name": "deposit",
      "outputs": [
        {
          "internalType": "uint256",
          "name": "",
          "type": "uint256"
        }
      ],
      "stateMutability": "nonpayable",
      "type": "function"
    },
    {
      "inputs": [
        {
          "internalType": "address",
          "name": "spender",
          "type": "address"
        },
        {
          "internalType": "uint256",
          "name": "addedValue",
          "type": "uint256"
        }
      ],
      "name": "increaseAllowance",
      "outputs": [
        {
          "internalType": "bool",
          "name": "",
          "type": "bool"
        }
      ],
      "stateMutability": "nonpayable",
      "type": "function"
    },
    {
      "inputs": [],
      "name": "name",
      "outputs": [
        {
          "internalType": "string",
          "name": "",
          "type": "string"
        }
      ],
      "stateMutability": "view",
      "type": "function"
    },
    {
      "inputs": [],
      "name": "pricePerShare",
      "outputs": [
        {
          "internalType": "uint256",
          "name": "",
          "type": "uint256"
        }
      ],
      "stateMutability": "view",
      "type": "function"
    },
    {
      "inputs": [],
      "name": "symbol",
      "outputs": [
        {
          "internalType": "string",
          "name": "",
          "type": "string"
        }
      ],
      "stateMutability": "view",
      "type": "function"
    },
    {
      "inputs": [],
      "name": "token",
      "outputs": [
        {
          "internalType": "address",
          "name": "",
          "type": "address"
        }
      ],
      "stateMutability": "view",
      "type": "function"
    },
    {
      "inputs": [],
      "name": "totalSupply",
      "outputs": [
        {
          "internalType": "uint256",
          "name": "",
          "type": "uint256"
        }
      ],
      "stateMutability": "view",
      "type": "function"
    },
    {
      "inputs": [
        {
          "internalType": "address",
          "name": "recipient",
          "type": "address"
        },
        {
          "internalType": "uint256",
          "name": "amount",
          "type": "uint256"
        }
      ],
      "name": "transfer",
      "outputs": [
        {
          "internalType": "bool",
          "name": "",
          "type": "bool"
        }
      ],
      "stateMutability": "nonpayable",
      "type": "function"
    },
    {
      "inputs": [
        {
          "internalType": "address",
          "name": "sender",
          "type": "address"
        },
        {
          "internalType": "address",
          "name": "recipient",
          "type": "address"
        },
        {
          "internalType": "uint256",
          "name": "amount",
          "type": "uint256"
        }
      ],
      "name": "transferFrom",
      "outputs": [
        {
          "internalType": "bool",
          "name": "",
          "type": "bool"
        }
      ],
      "stateMutability": "nonpayable",
      "type": "function"
    },
    {
      "inputs": [],
      "name": "underlying",
      "outputs": [
        {
          "internalType": "contract IERC20",
          "name": "",
          "type": "address"
        }
      ],
      "stateMutability": "view",
      "type": "function"
    },
    {
      "inputs": [
        {
          "internalType": "uint256",
          "name": "_amount",
          "type": "uint256"
        }
      ],
      "name": "withdraw",
      "outputs": [],
      "stateMutability": "nonpayable",
      "type": "function"
    },
    {
      "inputs": [],
      "name": "withdraw",
      "outputs": [],
      "stateMutability": "nonpayable",
      "type": "function"
    }
  ],
  "bytecode": "0x60806040523480156200001157600080fd5b506040516200170d3803806200170d833981810160405260608110156200003757600080fd5b81019080805160405193929190846401000000008211156200005857600080fd5b9083019060208201858111156200006e57600080fd5b82516401000000008111828201881017156200008957600080fd5b82525081516020918201929091019080838360005b83811015620000b85781810151838201526020016200009e565b50505050905090810190601f168015620000e65780820380516001836020036101000a031916815260200191505b50604052602001805160405193929190846401000000008211156200010a57600080fd5b9083019060208201858111156200012057600080fd5b82516401000000008111828201881017156200013b57600080fd5b82525081516020918201929091019080838360005b838110156200016a57818101518382015260200162000150565b50505050905090810190601f168015620001985780820380516001836020036101000a031916815260200191505b5060405260209081015185519093508592508491620001bd9160039185019062000210565b508051620001d390600490602084019062000210565b5050600580546001600160a01b0390931661010002610100600160a81b031960ff19909416601217939093169290921790915550620002ac915050565b828054600181600116156101000203166002900490600052602060002090601f016020900481019282601f106200025357805160ff191683800117855562000283565b8280016001018555821562000283579182015b828111156200028357825182559160200191906001019062000266565b506200029192915062000295565b5090565b5b8082111562000291576000815560010162000296565b61145180620002bc6000396000f3fe608060405234801561001057600080fd5b50600436106101215760003560e01c806370a08231116100ad578063b69ef8a811610071578063b69ef8a814610356578063b6b55f251461035e578063d0e30db01461037b578063dd62ed3e14610383578063fc0c546a146103b157610121565b806370a08231146102c857806395d89b41146102ee57806399530b06146102f6578063a457c2d7146102fe578063a9059cbb1461032a57610121565b80632e1a7d4d116100f45780632e1a7d4d14610233578063313ce5671461025257806339509351146102705780633ccfd60b1461029c5780636f307dc3146102a457610121565b806306fdde0314610126578063095ea7b3146101a357806318160ddd146101e357806323b872dd146101fd575b600080fd5b61012e6103b9565b6040805160208082528351818301528351919283929083019185019080838360005b83811015610168578181015183820152602001610150565b50505050905090810190601f1680156101955780820380516001836020036101000a031916815260200191505b509250505060405180910390f35b6101cf600480360360408110156101b957600080fd5b506001600160a01b03813516906020013561044f565b604080519115158252519081900360200190f35b6101eb61046d565b60408051918252519081900360200190f35b6101cf6004803603606081101561021357600080fd5b506001600160a01b03813581169160208101359091169060400135610473565b6102506004803603602081101561024957600080fd5b50356104fb565b005b61025a61054c565b6040805160ff9092168252519081900360200190f35b6101cf6004803603604081101561028657600080fd5b506001600160a01b038135169060200135610555565b6102506105a3565b6102ac6105b6565b604080516001600160a01b039092168252519081900360200190f35b6101eb600480360360208110156102de57600080fd5b50356001600160a01b03166105ca565b61012e6105e5565b6101eb610646565b6101cf6004803603604081101561031457600080fd5b506001600160a01b03813516906020013561066c565b6101cf6004803603604081101561034057600080fd5b506001600160a01b0381351690602001356106d4565b6101eb6106e8565b6101eb6004803603602081101561037457600080fd5b5035610769565b6101eb6107f9565b6101eb6004803603604081101561039957600080fd5b506001600160a01b038135811691602001351661089b565b6102ac6108c6565b60038054604080516020601f60026000196101006001881615020190951694909404938401819004810282018101909252828152606093909290918301828280156104455780601f1061041a57610100808354040283529160200191610445565b820191906000526020600020905b81548152906001019060200180831161042857829003601f168201915b5050505050905090565b600061046361045c6108da565b84846108de565b5060015b92915050565b60025490565b60006104808484846109ca565b6104f08461048c6108da565b6104eb8560405180606001604052806028815260200161133b602891396001600160a01b038a166000908152600160205260408120906104ca6108da565b6001600160a01b031681526020810191909152604001600020549190610b25565b6108de565b5060015b9392505050565b600061052061050861046d565b61051a846105146106e8565b90610bbc565b90610c15565b905061052c3383610c7c565b6005546105489061010090046001600160a01b03163383610d78565b5050565b60055460ff1690565b60006104636105626108da565b846104eb85600160006105736108da565b6001600160a01b03908116825260208083019390935260409182016000908120918c168152925290205490610dcf565b6105b46105af336105ca565b6104fb565b565b60055461010090046001600160a01b031681565b6001600160a01b031660009081526020819052604090205490565b60048054604080516020601f60026000196101006001881615020190951694909404938401819004810282018101909252828152606093909290918301828280156104455780601f1061041a57610100808354040283529160200191610445565b600061066761065361046d565b61051a670de0b6b3a76400006105146106e8565b905090565b60006104636106796108da565b846104eb856040518060600160405280602581526020016113f760259139600160006106a36108da565b6001600160a01b03908116825260208083019390935260409182016000908120918d16815292529020549190610b25565b60006104636106e16108da565b84846109ca565b600554604080516370a0823160e01b8152306004820152905160009261010090046001600160a01b0316916370a08231916024808301926020929190829003018186803b15801561073857600080fd5b505afa15801561074c573d6000803e3d6000fd5b505050506040513d602081101561076257600080fd5b5051905090565b6000806107746106e8565b905060006107806106e8565b6005549091506107a09061010090046001600160a01b0316333087610e29565b60006107aa6106e8565b90506107b68183610e89565b945060006107c261046d565b6107cd5750846107e6565b6107e38461051a6107dc61046d565b8990610bbc565b90505b6107f03382610ee6565b95945050505050565b600080600560019054906101000a90046001600160a01b03166001600160a01b03166370a08231336040518263ffffffff1660e01b815260040180826001600160a01b0316815260200191505060206040518083038186803b15801561085e57600080fd5b505afa158015610872573d6000803e3d6000fd5b505050506040513d602081101561088857600080fd5b5051905061089581610769565b91505090565b6001600160a01b03918216600090815260016020908152604080832093909416825291909152205490565b60055461010090046001600160a01b031690565b3390565b6001600160a01b0383166109235760405162461bcd60e51b81526004018080602001828103825260248152602001806113a96024913960400191505060405180910390fd5b6001600160a01b0382166109685760405162461bcd60e51b81526004018080602001828103825260228152602001806112ac6022913960400191505060405180910390fd5b6001600160a01b03808416600081815260016020908152604080832094871680845294825291829020859055815185815291517f8c5be1e5ebec7d5bd14f71427d1e84f3dd0314c0f7b2291e5b200ac8c7c3b9259281900390910190a3505050565b6001600160a01b038316610a0f5760405162461bcd60e51b81526004018080602001828103825260258152602001806113846025913960400191505060405180910390fd5b6001600160a01b038216610a545760405162461bcd60e51b81526004018080602001828103825260238152602001806112676023913960400191505060405180910390fd5b610a5f838383610dca565b610a9c816040518060600160405280602681526020016112ce602691396001600160a01b0386166000908152602081905260409020549190610b25565b6001600160a01b038085166000908152602081905260408082209390935590841681522054610acb9082610dcf565b6001600160a01b038084166000818152602081815260409182902094909455805185815290519193928716927fddf252ad1be2c89b69c2b068fc378daa952ba7f163c4a11628f55a4df523b3ef92918290030190a3505050565b60008184841115610bb45760405162461bcd60e51b81526004018080602001828103825283818151815260200191508051906020019080838360005b83811015610b79578181015183820152602001610b61565b50505050905090810190601f168015610ba65780820380516001836020036101000a031916815260200191505b509250505060405180910390fd5b505050900390565b600082610bcb57506000610467565b82820282848281610bd857fe5b04146104f45760405162461bcd60e51b815260040180806020018281038252602181526020018061131a6021913960400191505060405180910390fd5b6000808211610c6b576040805162461bcd60e51b815260206004820152601a60248201527f536166654d6174683a206469766973696f6e206279207a65726f000000000000604482015290519081900360640190fd5b818381610c7457fe5b049392505050565b6001600160a01b038216610cc15760405162461bcd60e51b81526004018080602001828103825260218152602001806113636021913960400191505060405180910390fd5b610ccd82600083610dca565b610d0a8160405180606001604052806022815260200161128a602291396001600160a01b0385166000908152602081905260409020549190610b25565b6001600160a01b038316600090815260208190526040902055600254610d309082610e89565b6002556040805182815290516000916001600160a01b038516917fddf252ad1be2c89b69c2b068fc378daa952ba7f163c4a11628f55a4df523b3ef9181900360200190a35050565b604080516001600160a01b038416602482015260448082018490528251808303909101815260649091019091526020810180516001600160e01b031663a9059cbb60e01b179052610dca908490610fd6565b505050565b6000828201838110156104f4576040805162461bcd60e51b815260206004820152601b60248201527f536166654d6174683a206164646974696f6e206f766572666c6f770000000000604482015290519081900360640190fd5b604080516001600160a01b0380861660248301528416604482015260648082018490528251808303909101815260849091019091526020810180516001600160e01b03166323b872dd60e01b179052610e83908590610fd6565b50505050565b600082821115610ee0576040805162461bcd60e51b815260206004820152601e60248201527f536166654d6174683a207375627472616374696f6e206f766572666c6f770000604482015290519081900360640190fd5b50900390565b6001600160a01b038216610f41576040805162461bcd60e51b815260206004820152601f60248201527f45524332303a206d696e7420746f20746865207a65726f206164647265737300604482015290519081900360640190fd5b610f4d60008383610dca565b600254610f5a9082610dcf565b6002556001600160a01b038216600090815260208190526040902054610f809082610dcf565b6001600160a01b0383166000818152602081815260408083209490945583518581529351929391927fddf252ad1be2c89b69c2b068fc378daa952ba7f163c4a11628f55a4df523b3ef9281900390910190a35050565b606061102b826040518060400160405280602081526020017f5361666545524332303a206c6f772d6c6576656c2063616c6c206661696c6564815250856001600160a01b03166110879092919063ffffffff16565b805190915015610dca5780806020019051602081101561104a57600080fd5b5051610dca5760405162461bcd60e51b815260040180806020018281038252602a8152602001806113cd602a913960400191505060405180910390fd5b6060611096848460008561109e565b949350505050565b6060824710156110df5760405162461bcd60e51b81526004018080602001828103825260268152602001806112f46026913960400191505060405180910390fd5b6110e8856111fa565b611139576040805162461bcd60e51b815260206004820152601d60248201527f416464726573733a2063616c6c20746f206e6f6e2d636f6e7472616374000000604482015290519081900360640190fd5b60006060866001600160a01b031685876040518082805190602001908083835b602083106111785780518252601f199092019160209182019101611159565b6001836020036101000a03801982511681845116808217855250505050505090500191505060006040518083038185875af1925050503d80600081146111da576040519150601f19603f3d011682016040523d82523d6000602084013e6111df565b606091505b50915091506111ef828286611200565b979650505050505050565b3b151590565b6060831561120f5750816104f4565b82511561121f5782518084602001fd5b60405162461bcd60e51b8152602060048201818152845160248401528451859391928392604401919085019080838360008315610b79578181015183820152602001610b6156fe45524332303a207472616e7366657220746f20746865207a65726f206164647265737345524332303a206275726e20616d6f756e7420657863656564732062616c616e636545524332303a20617070726f766520746f20746865207a65726f206164647265737345524332303a207472616e7366657220616d6f756e7420657863656564732062616c616e6365416464726573733a20696e73756666696369656e742062616c616e636520666f722063616c6c536166654d6174683a206d756c7469706c69636174696f6e206f766572666c6f7745524332303a207472616e7366657220616d6f756e74206578636565647320616c6c6f77616e636545524332303a206275726e2066726f6d20746865207a65726f206164647265737345524332303a207472616e736665722066726f6d20746865207a65726f206164647265737345524332303a20617070726f76652066726f6d20746865207a65726f20616464726573735361666545524332303a204552433230206f7065726174696f6e20646964206e6f74207375636365656445524332303a2064656372656173656420616c6c6f77616e63652062656c6f77207a65726fa264697066735822122048da8b18eca3ef7095813487a8701cf1a540d46c50672036ad577a125bd9059664736f6c634300060c0033",
  "linkReferences": {},
  "deployedLinkReferences": {}
}