{
  "_format": "hh-sol-artifact-1",
  "contractName": "MockYaxisBar",
  "sourceName": "contracts/legacy/mock/MockYaxisBar.sol",
  "abi": [
    {
      "inputs": [
        {
          "internalType": "address",
          "name": "_yax",
          "type": "address"
        }
      ],
      "stateMutability": "nonpayable",
      "type": "constructor"
    },
    {
      "anonymous": false,
      "inputs": [
        {
          "indexed": true,
          "internalType": "address",
          "name": "owner",
          "type": "address"
        },
        {
          "indexed": true,
          "internalType": "address",
          "name": "spender",
          "type": "address"
        },
        {
          "indexed": false,
          "internalType": "uint256",
          "name": "value",
          "type": "uint256"
        }
      ],
      "name": "Approval",
      "type": "event"
    },
    {
      "anonymous": false,
      "inputs": [
        {
          "indexed": true,
          "internalType": "address",
          "name": "from",
          "type": "address"
        },
        {
          "indexed": true,
          "internalType": "address",
          "name": "to",
          "type": "address"
        },
        {
          "indexed": false,
          "internalType": "uint256",
          "name": "value",
          "type": "uint256"
        }
      ],
      "name": "Transfer",
      "type": "event"
    },
    {
      "inputs": [],
      "name": "YAX",
      "outputs": [
        {
          "internalType": "contract IERC20",
          "name": "",
          "type": "address"
        }
      ],
      "stateMutability": "view",
      "type": "function"
    },
    {
      "inputs": [
        {
          "internalType": "address",
          "name": "owner",
          "type": "address"
        },
        {
          "internalType": "address",
          "name": "spender",
          "type": "address"
        }
      ],
      "name": "allowance",
      "outputs": [
        {
          "internalType": "uint256",
          "name": "",
          "type": "uint256"
        }
      ],
      "stateMutability": "view",
      "type": "function"
    },
    {
      "inputs": [
        {
          "internalType": "address",
          "name": "spender",
          "type": "address"
        },
        {
          "internalType": "uint256",
          "name": "amount",
          "type": "uint256"
        }
      ],
      "name": "approve",
      "outputs": [
        {
          "internalType": "bool",
          "name": "",
          "type": "bool"
        }
      ],
      "stateMutability": "nonpayable",
      "type": "function"
    },
    {
      "inputs": [],
      "name": "availableBalance",
      "outputs": [
        {
          "internalType": "uint256",
          "name": "",
          "type": "uint256"
        }
      ],
      "stateMutability": "view",
      "type": "function"
    },
    {
      "inputs": [
        {
          "internalType": "address",
          "name": "account",
          "type": "address"
        }
      ],
      "name": "balanceOf",
      "outputs": [
        {
          "internalType": "uint256",
          "name": "",
          "type": "uint256"
        }
      ],
      "stateMutability": "view",
      "type": "function"
    },
    {
      "inputs": [],
      "name": "decimals",
      "outputs": [
        {
          "internalType": "uint8",
          "name": "",
          "type": "uint8"
        }
      ],
      "stateMutability": "view",
      "type": "function"
    },
    {
      "inputs": [
        {
          "internalType": "address",
          "name": "spender",
          "type": "address"
        },
        {
          "internalType": "uint256",
          "name": "subtractedValue",
          "type": "uint256"
        }
      ],
      "name": "decreaseAllowance",
      "outputs": [
        {
          "internalType": "bool",
          "name": "",
          "type": "bool"
        }
      ],
      "stateMutability": "nonpayable",
      "type": "function"
    },
    {
      "inputs": [
        {
          "internalType": "uint256",
          "name": "_amount",
          "type": "uint256"
        }
      ],
      "name": "enter",
      "outputs": [],
      "stateMutability": "nonpayable",
      "type": "function"
    },
    {
      "inputs": [],
      "name": "exit",
      "outputs": [],
      "stateMutability": "nonpayable",
      "type": "function"
    },
    {
      "inputs": [],
      "name": "getPricePerFullShare",
      "outputs": [
        {
          "internalType": "uint256",
          "name": "",
          "type": "uint256"
        }
      ],
      "stateMutability": "view",
      "type": "function"
    },
    {
      "inputs": [
        {
          "internalType": "address",
          "name": "spender",
          "type": "address"
        },
        {
          "internalType": "uint256",
          "name": "addedValue",
          "type": "uint256"
        }
      ],
      "name": "increaseAllowance",
      "outputs": [
        {
          "internalType": "bool",
          "name": "",
          "type": "bool"
        }
      ],
      "stateMutability": "nonpayable",
      "type": "function"
    },
    {
      "inputs": [
        {
          "internalType": "uint256",
          "name": "_amount",
          "type": "uint256"
        }
      ],
      "name": "leave",
      "outputs": [],
      "stateMutability": "nonpayable",
      "type": "function"
    },
    {
      "inputs": [],
      "name": "name",
      "outputs": [
        {
          "internalType": "string",
          "name": "",
          "type": "string"
        }
      ],
      "stateMutability": "view",
      "type": "function"
    },
    {
      "inputs": [],
      "name": "symbol",
      "outputs": [
        {
          "internalType": "string",
          "name": "",
          "type": "string"
        }
      ],
      "stateMutability": "view",
      "type": "function"
    },
    {
      "inputs": [],
      "name": "totalSupply",
      "outputs": [
        {
          "internalType": "uint256",
          "name": "",
          "type": "uint256"
        }
      ],
      "stateMutability": "view",
      "type": "function"
    },
    {
      "inputs": [
        {
          "internalType": "address",
          "name": "recipient",
          "type": "address"
        },
        {
          "internalType": "uint256",
          "name": "amount",
          "type": "uint256"
        }
      ],
      "name": "transfer",
      "outputs": [
        {
          "internalType": "bool",
          "name": "",
          "type": "bool"
        }
      ],
      "stateMutability": "nonpayable",
      "type": "function"
    },
    {
      "inputs": [
        {
          "internalType": "address",
          "name": "sender",
          "type": "address"
        },
        {
          "internalType": "address",
          "name": "recipient",
          "type": "address"
        },
        {
          "internalType": "uint256",
          "name": "amount",
          "type": "uint256"
        }
      ],
      "name": "transferFrom",
      "outputs": [
        {
          "internalType": "bool",
          "name": "",
          "type": "bool"
        }
      ],
      "stateMutability": "nonpayable",
      "type": "function"
    }
  ],
  "bytecode": "0x60a06040523480156200001157600080fd5b506040516200164c3803806200164c833981810160405260208110156200003757600080fd5b5051604080518082018252600c81526b5374616b656420794178697360a01b6020828101918252835180850190945260048452630e6b282b60e31b9084015281519192916200008991600391620000c7565b5080516200009f906004906020840190620000c7565b505060058054601260ff199091161790555060601b6001600160601b03191660805262000163565b828054600181600116156101000203166002900490600052602060002090601f016020900481019282601f106200010a57805160ff19168380011785556200013a565b828001600101855582156200013a579182015b828111156200013a5782518255916020019190600101906200011d565b50620001489291506200014c565b5090565b5b808211156200014857600081556001016200014d565b60805160601c6114b762000195600039806105a852806106155280610802528061084252806108e052506114b76000f3fe608060405234801561001057600080fd5b506004361061010b5760003560e01c806377c7b8fc116100a2578063a9059cbb11610071578063a9059cbb14610305578063ab2f0e5114610331578063c6f461d014610339578063dd62ed3e1461035d578063e9fad8ee1461038b5761010b565b806377c7b8fc146102ac57806395d89b41146102b4578063a457c2d7146102bc578063a59f3e0c146102e85761010b565b8063313ce567116100de578063313ce5671461021d578063395093511461023b57806367dfd4c91461026757806370a08231146102865761010b565b806306fdde0314610110578063095ea7b31461018d57806318160ddd146101cd57806323b872dd146101e7575b600080fd5b610118610393565b6040805160208082528351818301528351919283929083019185019080838360005b8381101561015257818101518382015260200161013a565b50505050905090810190601f16801561017f5780820380516001836020036101000a031916815260200191505b509250505060405180910390f35b6101b9600480360360408110156101a357600080fd5b506001600160a01b038135169060200135610429565b604080519115158252519081900360200190f35b6101d5610447565b60408051918252519081900360200190f35b6101b9600480360360608110156101fd57600080fd5b506001600160a01b0381358116916020810135909116906040013561044d565b6102256104d5565b6040805160ff9092168252519081900360200190f35b6101b96004803603604081101561025157600080fd5b506001600160a01b0381351690602001356104de565b6102846004803603602081101561027d57600080fd5b503561052c565b005b6101d56004803603602081101561029c57600080fd5b50356001600160a01b03166105d2565b6101d56105ed565b6101186106c6565b6101b9600480360360408110156102d257600080fd5b506001600160a01b038135169060200135610727565b610284600480360360208110156102fe57600080fd5b503561078f565b6101b96004803603604081101561031b57600080fd5b506001600160a01b03813516906020013561082a565b6101d561083e565b6103416108de565b604080516001600160a01b039092168252519081900360200190f35b6101d56004803603604081101561037357600080fd5b506001600160a01b0381358116916020013516610902565b61028461092d565b60038054604080516020601f600260001961010060018816150201909516949094049384018190048102820181019092528281526060939092909183018282801561041f5780601f106103f45761010080835404028352916020019161041f565b820191906000526020600020905b81548152906001019060200180831161040257829003601f168201915b5050505050905090565b600061043d610436610940565b8484610944565b5060015b92915050565b60025490565b600061045a848484610a30565b6104ca84610466610940565b6104c5856040518060600160405280602881526020016113a1602891396001600160a01b038a166000908152600160205260408120906104a4610940565b6001600160a01b031681526020810191909152604001600020549190610b8b565b610944565b5060015b9392505050565b60055460ff1690565b600061043d6104eb610940565b846104c585600160006104fc610940565b6001600160a01b03908116825260208083019390935260409182016000908120918c168152925290205490610c22565b6000811161056c576040805162461bcd60e51b81526020600482015260086024820152670857d85b5bdd5b9d60c21b604482015290519081900360640190fd5b6105763382610c7c565b6105cf3361059e670de0b6b3a76400006105986105916105ed565b8690610d78565b90610dd1565b6001600160a01b037f0000000000000000000000000000000000000000000000000000000000000000169190610e38565b50565b6001600160a01b031660009081526020819052604090205490565b60006105f7610447565b156106b7576106b2610607610447565b610598670de0b6b3a76400007f00000000000000000000000000000000000000000000000000000000000000006001600160a01b03166370a08231306040518263ffffffff1660e01b815260040180826001600160a01b0316815260200191505060206040518083038186803b15801561068057600080fd5b505afa158015610694573d6000803e3d6000fd5b505050506040513d60208110156106aa57600080fd5b505190610d78565b6106c1565b670de0b6b3a76400005b905090565b60048054604080516020601f600260001961010060018816150201909516949094049384018190048102820181019092528281526060939092909183018282801561041f5780601f106103f45761010080835404028352916020019161041f565b600061043d610734610940565b846104c58560405180606001604052806025815260200161145d602591396001600061075e610940565b6001600160a01b03908116825260208083019390935260409182016000908120918d16815292529020549190610b8b565b600081116107cf576040805162461bcd60e51b81526020600482015260086024820152670857d85b5bdd5b9d60c21b604482015290519081900360640190fd5b6107f5336107f06107de6105ed565b61059885670de0b6b3a7640000610d78565b610e8f565b6105cf6001600160a01b037f000000000000000000000000000000000000000000000000000000000000000016333084610f7f565b600061043d610837610940565b8484610a30565b60007f00000000000000000000000000000000000000000000000000000000000000006001600160a01b03166370a08231306040518263ffffffff1660e01b815260040180826001600160a01b0316815260200191505060206040518083038186803b1580156108ad57600080fd5b505afa1580156108c1573d6000803e3d6000fd5b505050506040513d60208110156108d757600080fd5b5051905090565b7f000000000000000000000000000000000000000000000000000000000000000081565b6001600160a01b03918216600090815260016020908152604080832093909416825291909152205490565b61093e610939336105d2565b61052c565b565b3390565b6001600160a01b0383166109895760405162461bcd60e51b815260040180806020018281038252602481526020018061140f6024913960400191505060405180910390fd5b6001600160a01b0382166109ce5760405162461bcd60e51b81526004018080602001828103825260228152602001806113126022913960400191505060405180910390fd5b6001600160a01b03808416600081815260016020908152604080832094871680845294825291829020859055815185815291517f8c5be1e5ebec7d5bd14f71427d1e84f3dd0314c0f7b2291e5b200ac8c7c3b9259281900390910190a3505050565b6001600160a01b038316610a755760405162461bcd60e51b81526004018080602001828103825260258152602001806113ea6025913960400191505060405180910390fd5b6001600160a01b038216610aba5760405162461bcd60e51b81526004018080602001828103825260238152602001806112cd6023913960400191505060405180910390fd5b610ac5838383610e8a565b610b0281604051806060016040528060268152602001611334602691396001600160a01b0386166000908152602081905260409020549190610b8b565b6001600160a01b038085166000908152602081905260408082209390935590841681522054610b319082610c22565b6001600160a01b038084166000818152602081815260409182902094909455805185815290519193928716927fddf252ad1be2c89b69c2b068fc378daa952ba7f163c4a11628f55a4df523b3ef92918290030190a3505050565b60008184841115610c1a5760405162461bcd60e51b81526004018080602001828103825283818151815260200191508051906020019080838360005b83811015610bdf578181015183820152602001610bc7565b50505050905090810190601f168015610c0c5780820380516001836020036101000a031916815260200191505b509250505060405180910390fd5b505050900390565b6000828201838110156104ce576040805162461bcd60e51b815260206004820152601b60248201527f536166654d6174683a206164646974696f6e206f766572666c6f770000000000604482015290519081900360640190fd5b6001600160a01b038216610cc15760405162461bcd60e51b81526004018080602001828103825260218152602001806113c96021913960400191505060405180910390fd5b610ccd82600083610e8a565b610d0a816040518060600160405280602281526020016112f0602291396001600160a01b0385166000908152602081905260409020549190610b8b565b6001600160a01b038316600090815260208190526040902055600254610d309082610fdf565b6002556040805182815290516000916001600160a01b038516917fddf252ad1be2c89b69c2b068fc378daa952ba7f163c4a11628f55a4df523b3ef9181900360200190a35050565b600082610d8757506000610441565b82820282848281610d9457fe5b04146104ce5760405162461bcd60e51b81526004018080602001828103825260218152602001806113806021913960400191505060405180910390fd5b6000808211610e27576040805162461bcd60e51b815260206004820152601a60248201527f536166654d6174683a206469766973696f6e206279207a65726f000000000000604482015290519081900360640190fd5b818381610e3057fe5b049392505050565b604080516001600160a01b038416602482015260448082018490528251808303909101815260649091019091526020810180516001600160e01b031663a9059cbb60e01b179052610e8a90849061103c565b505050565b6001600160a01b038216610eea576040805162461bcd60e51b815260206004820152601f60248201527f45524332303a206d696e7420746f20746865207a65726f206164647265737300604482015290519081900360640190fd5b610ef660008383610e8a565b600254610f039082610c22565b6002556001600160a01b038216600090815260208190526040902054610f299082610c22565b6001600160a01b0383166000818152602081815260408083209490945583518581529351929391927fddf252ad1be2c89b69c2b068fc378daa952ba7f163c4a11628f55a4df523b3ef9281900390910190a35050565b604080516001600160a01b0380861660248301528416604482015260648082018490528251808303909101815260849091019091526020810180516001600160e01b03166323b872dd60e01b179052610fd990859061103c565b50505050565b600082821115611036576040805162461bcd60e51b815260206004820152601e60248201527f536166654d6174683a207375627472616374696f6e206f766572666c6f770000604482015290519081900360640190fd5b50900390565b6060611091826040518060400160405280602081526020017f5361666545524332303a206c6f772d6c6576656c2063616c6c206661696c6564815250856001600160a01b03166110ed9092919063ffffffff16565b805190915015610e8a578080602001905160208110156110b057600080fd5b5051610e8a5760405162461bcd60e51b815260040180806020018281038252602a815260200180611433602a913960400191505060405180910390fd5b60606110fc8484600085611104565b949350505050565b6060824710156111455760405162461bcd60e51b815260040180806020018281038252602681526020018061135a6026913960400191505060405180910390fd5b61114e85611260565b61119f576040805162461bcd60e51b815260206004820152601d60248201527f416464726573733a2063616c6c20746f206e6f6e2d636f6e7472616374000000604482015290519081900360640190fd5b60006060866001600160a01b031685876040518082805190602001908083835b602083106111de5780518252601f1990920191602091820191016111bf565b6001836020036101000a03801982511681845116808217855250505050505090500191505060006040518083038185875af1925050503d8060008114611240576040519150601f19603f3d011682016040523d82523d6000602084013e611245565b606091505b5091509150611255828286611266565b979650505050505050565b3b151590565b606083156112755750816104ce565b8251156112855782518084602001fd5b60405162461bcd60e51b8152602060048201818152845160248401528451859391928392604401919085019080838360008315610bdf578181015183820152602001610bc756fe45524332303a207472616e7366657220746f20746865207a65726f206164647265737345524332303a206275726e20616d6f756e7420657863656564732062616c616e636545524332303a20617070726f766520746f20746865207a65726f206164647265737345524332303a207472616e7366657220616d6f756e7420657863656564732062616c616e6365416464726573733a20696e73756666696369656e742062616c616e636520666f722063616c6c536166654d6174683a206d756c7469706c69636174696f6e206f766572666c6f7745524332303a207472616e7366657220616d6f756e74206578636565647320616c6c6f77616e636545524332303a206275726e2066726f6d20746865207a65726f206164647265737345524332303a207472616e736665722066726f6d20746865207a65726f206164647265737345524332303a20617070726f76652066726f6d20746865207a65726f20616464726573735361666545524332303a204552433230206f7065726174696f6e20646964206e6f74207375636365656445524332303a2064656372656173656420616c6c6f77616e63652062656c6f77207a65726fa26469706673582212206f24533cad6b33b921623e9474c6f8fe8f395f9b56e75b3923d18d6c0beec4c264736f6c634300060c0033",
  "linkReferences": {},
  "deployedLinkReferences": {}
}