{
  "address": "0xAF0F4CF38494dEDa6D12B096d93757094a16a1D3",
  "abi": [
    {
      "inputs": [
        {
          "internalType": "address",
          "name": "_l1Router",
          "type": "address"
        },
        {
          "internalType": "address",
          "name": "_l1LPTEscrow",
          "type": "address"
        },
        {
          "internalType": "address",
          "name": "_l1Lpt",
          "type": "address"
        },
        {
          "internalType": "address",
          "name": "_l2Lpt",
          "type": "address"
        },
        {
          "internalType": "address",
          "name": "_inbox",
          "type": "address"
        }
      ],
      "stateMutability": "nonpayable",
      "type": "constructor"
    },
    {
      "anonymous": false,
      "inputs": [
        {
          "indexed": false,
          "internalType": "address",
          "name": "_l1Token",
          "type": "address"
        },
        {
          "indexed": true,
          "internalType": "address",
          "name": "_from",
          "type": "address"
        },
        {
          "indexed": true,
          "internalType": "address",
          "name": "_to",
          "type": "address"
        },
        {
          "indexed": true,
          "internalType": "uint256",
          "name": "_sequenceNumber",
          "type": "uint256"
        },
        {
          "indexed": false,
          "internalType": "uint256",
          "name": "_amount",
          "type": "uint256"
        }
      ],
      "name": "DepositInitiated",
      "type": "event"
    },
    {
      "anonymous": false,
      "inputs": [
        {
          "indexed": false,
          "internalType": "address",
          "name": "account",
          "type": "address"
        }
      ],
      "name": "Paused",
      "type": "event"
    },
    {
      "anonymous": false,
      "inputs": [
        {
          "indexed": true,
          "internalType": "bytes32",
          "name": "role",
          "type": "bytes32"
        },
        {
          "indexed": true,
          "internalType": "bytes32",
          "name": "previousAdminRole",
          "type": "bytes32"
        },
        {
          "indexed": true,
          "internalType": "bytes32",
          "name": "newAdminRole",
          "type": "bytes32"
        }
      ],
      "name": "RoleAdminChanged",
      "type": "event"
    },
    {
      "anonymous": false,
      "inputs": [
        {
          "indexed": true,
          "internalType": "bytes32",
          "name": "role",
          "type": "bytes32"
        },
        {
          "indexed": true,
          "internalType": "address",
          "name": "account",
          "type": "address"
        },
        {
          "indexed": true,
          "internalType": "address",
          "name": "sender",
          "type": "address"
        }
      ],
      "name": "RoleGranted",
      "type": "event"
    },
    {
      "anonymous": false,
      "inputs": [
        {
          "indexed": true,
          "internalType": "bytes32",
          "name": "role",
          "type": "bytes32"
        },
        {
          "indexed": true,
          "internalType": "address",
          "name": "account",
          "type": "address"
        },
        {
          "indexed": true,
          "internalType": "address",
          "name": "sender",
          "type": "address"
        }
      ],
      "name": "RoleRevoked",
      "type": "event"
    },
    {
      "anonymous": false,
      "inputs": [
        {
          "indexed": true,
          "internalType": "address",
          "name": "from",
          "type": "address"
        },
        {
          "indexed": true,
          "internalType": "address",
          "name": "to",
          "type": "address"
        },
        {
          "indexed": true,
          "internalType": "uint256",
          "name": "seqNum",
          "type": "uint256"
        },
        {
          "indexed": false,
          "internalType": "bytes",
          "name": "data",
          "type": "bytes"
        }
      ],
      "name": "TxToL2",
      "type": "event"
    },
    {
      "anonymous": false,
      "inputs": [
        {
          "indexed": false,
          "internalType": "address",
          "name": "account",
          "type": "address"
        }
      ],
      "name": "Unpaused",
      "type": "event"
    },
    {
      "anonymous": false,
      "inputs": [
        {
          "indexed": false,
          "internalType": "address",
          "name": "_l1Token",
          "type": "address"
        },
        {
          "indexed": true,
          "internalType": "address",
          "name": "_from",
          "type": "address"
        },
        {
          "indexed": true,
          "internalType": "address",
          "name": "_to",
          "type": "address"
        },
        {
          "indexed": true,
          "internalType": "uint256",
          "name": "_exitNum",
          "type": "uint256"
        },
        {
          "indexed": false,
          "internalType": "uint256",
          "name": "_amount",
          "type": "uint256"
        }
      ],
      "name": "WithdrawalFinalized",
      "type": "event"
    },
    {
      "inputs": [],
      "name": "DEFAULT_ADMIN_ROLE",
      "outputs": [
        {
          "internalType": "bytes32",
          "name": "",
          "type": "bytes32"
        }
      ],
      "stateMutability": "view",
      "type": "function"
    },
    {
      "inputs": [],
      "name": "GOVERNOR_ROLE",
      "outputs": [
        {
          "internalType": "bytes32",
          "name": "",
          "type": "bytes32"
        }
      ],
      "stateMutability": "view",
      "type": "function"
    },
    {
      "inputs": [
        {
          "internalType": "address",
          "name": "l1Token",
          "type": "address"
        }
      ],
      "name": "calculateL2TokenAddress",
      "outputs": [
        {
          "internalType": "address",
          "name": "",
          "type": "address"
        }
      ],
      "stateMutability": "view",
      "type": "function"
    },
    {
      "inputs": [],
      "name": "counterpartGateway",
      "outputs": [
        {
          "internalType": "address",
          "name": "",
          "type": "address"
        }
      ],
      "stateMutability": "view",
      "type": "function"
    },
    {
      "inputs": [
        {
          "internalType": "address",
          "name": "l1Token",
          "type": "address"
        },
        {
          "internalType": "address",
          "name": "from",
          "type": "address"
        },
        {
          "internalType": "address",
          "name": "to",
          "type": "address"
        },
        {
          "internalType": "uint256",
          "name": "amount",
          "type": "uint256"
        },
        {
          "internalType": "bytes",
          "name": "data",
          "type": "bytes"
        }
      ],
      "name": "finalizeInboundTransfer",
      "outputs": [],
      "stateMutability": "nonpayable",
      "type": "function"
    },
    {
      "inputs": [
        {
          "internalType": "address",
          "name": "l1Token",
          "type": "address"
        },
        {
          "internalType": "address",
          "name": "from",
          "type": "address"
        },
        {
          "internalType": "address",
          "name": "to",
          "type": "address"
        },
        {
          "internalType": "uint256",
          "name": "amount",
          "type": "uint256"
        },
        {
          "internalType": "bytes",
          "name": "data",
          "type": "bytes"
        }
      ],
      "name": "getOutboundCalldata",
      "outputs": [
        {
          "internalType": "bytes",
          "name": "outboundCalldata",
          "type": "bytes"
        }
      ],
      "stateMutability": "pure",
      "type": "function"
    },
    {
      "inputs": [
        {
          "internalType": "bytes32",
          "name": "role",
          "type": "bytes32"
        }
      ],
      "name": "getRoleAdmin",
      "outputs": [
        {
          "internalType": "bytes32",
          "name": "",
          "type": "bytes32"
        }
      ],
      "stateMutability": "view",
      "type": "function"
    },
    {
      "inputs": [
        {
          "internalType": "bytes32",
          "name": "role",
          "type": "bytes32"
        },
        {
          "internalType": "address",
          "name": "account",
          "type": "address"
        }
      ],
      "name": "grantRole",
      "outputs": [],
      "stateMutability": "nonpayable",
      "type": "function"
    },
    {
      "inputs": [
        {
          "internalType": "bytes32",
          "name": "role",
          "type": "bytes32"
        },
        {
          "internalType": "address",
          "name": "account",
          "type": "address"
        }
      ],
      "name": "hasRole",
      "outputs": [
        {
          "internalType": "bool",
          "name": "",
          "type": "bool"
        }
      ],
      "stateMutability": "view",
      "type": "function"
    },
    {
      "inputs": [],
      "name": "inbox",
      "outputs": [
        {
          "internalType": "contract IInbox",
          "name": "",
          "type": "address"
        }
      ],
      "stateMutability": "view",
      "type": "function"
    },
    {
      "inputs": [],
      "name": "l1LPTEscrow",
      "outputs": [
        {
          "internalType": "address",
          "name": "",
          "type": "address"
        }
      ],
      "stateMutability": "view",
      "type": "function"
    },
    {
      "inputs": [],
      "name": "l1Lpt",
      "outputs": [
        {
          "internalType": "address",
          "name": "",
          "type": "address"
        }
      ],
      "stateMutability": "view",
      "type": "function"
    },
    {
      "inputs": [],
      "name": "l1Router",
      "outputs": [
        {
          "internalType": "address",
          "name": "",
          "type": "address"
        }
      ],
      "stateMutability": "view",
      "type": "function"
    },
    {
      "inputs": [],
      "name": "l2Counterpart",
      "outputs": [
        {
          "internalType": "address",
          "name": "",
          "type": "address"
        }
      ],
      "stateMutability": "view",
      "type": "function"
    },
    {
      "inputs": [],
      "name": "l2Lpt",
      "outputs": [
        {
          "internalType": "address",
          "name": "",
          "type": "address"
        }
      ],
      "stateMutability": "view",
      "type": "function"
    },
    {
      "inputs": [
        {
          "internalType": "address",
          "name": "_l1Token",
          "type": "address"
        },
        {
          "internalType": "address",
          "name": "_to",
          "type": "address"
        },
        {
          "internalType": "uint256",
          "name": "_amount",
          "type": "uint256"
        },
        {
          "internalType": "uint256",
          "name": "_maxGas",
          "type": "uint256"
        },
        {
          "internalType": "uint256",
          "name": "_gasPriceBid",
          "type": "uint256"
        },
        {
          "internalType": "bytes",
          "name": "_data",
          "type": "bytes"
        }
      ],
      "name": "outboundTransfer",
      "outputs": [
        {
          "internalType": "bytes",
          "name": "",
          "type": "bytes"
        }
      ],
      "stateMutability": "payable",
      "type": "function"
    },
    {
      "inputs": [],
      "name": "pause",
      "outputs": [],
      "stateMutability": "nonpayable",
      "type": "function"
    },
    {
      "inputs": [],
      "name": "paused",
      "outputs": [
        {
          "internalType": "bool",
          "name": "",
          "type": "bool"
        }
      ],
      "stateMutability": "view",
      "type": "function"
    },
    {
      "inputs": [
        {
          "internalType": "bytes32",
          "name": "role",
          "type": "bytes32"
        },
        {
          "internalType": "address",
          "name": "account",
          "type": "address"
        }
      ],
      "name": "renounceRole",
      "outputs": [],
      "stateMutability": "nonpayable",
      "type": "function"
    },
    {
      "inputs": [
        {
          "internalType": "bytes32",
          "name": "role",
          "type": "bytes32"
        },
        {
          "internalType": "address",
          "name": "account",
          "type": "address"
        }
      ],
      "name": "revokeRole",
      "outputs": [],
      "stateMutability": "nonpayable",
      "type": "function"
    },
    {
      "inputs": [
        {
          "internalType": "address",
          "name": "_l2Counterpart",
          "type": "address"
        }
      ],
      "name": "setCounterpart",
      "outputs": [],
      "stateMutability": "nonpayable",
      "type": "function"
    },
    {
      "inputs": [
        {
          "internalType": "bytes4",
          "name": "interfaceId",
          "type": "bytes4"
        }
      ],
      "name": "supportsInterface",
      "outputs": [
        {
          "internalType": "bool",
          "name": "",
          "type": "bool"
        }
      ],
      "stateMutability": "view",
      "type": "function"
    },
    {
      "inputs": [],
      "name": "unpause",
      "outputs": [],
      "stateMutability": "nonpayable",
      "type": "function"
    }
  ],
  "transactionHash": "0xa412965dab807db27eedb70f8492ab415731a72c989fa458edbdce96151df3a7",
  "args": [
    "0x70C143928eCfFaf9F5b406f7f4fC28Dc43d68380",
    "0xF3E3410399C686584148f1F5046161fc67F3Aed1",
    "0x148D9a919977B392E3a3c309Aa23481e68D2e502",
    "0x663D000d6d6B61580fc23ef9d23Ea43D2850af40",
    "0x578BAde599406A8fE3d24Fd7f7211c0911F5B29e"
  ],
  "solcInputHash": "32fd9971ac458e296f813f74fd73c046",
  "bytecode": "0x6101206040523480156200001257600080fd5b5060405162003161380380620031618339818101604052810190620000389190620003e3565b8083836000600160006101000a81548160ff0219169083151502179055506200007a6000801b6200006e620001d160201b60201c565b620001d960201b60201c565b620000af7f7935bd0ae54bc31f548c14dba4d37c5c64b3f8ca900cb468fb8abd54d5894f556000801b620001ef60201b60201c565b8173ffffffffffffffffffffffffffffffffffffffff1660808173ffffffffffffffffffffffffffffffffffffffff1660601b815250508073ffffffffffffffffffffffffffffffffffffffff1660a08173ffffffffffffffffffffffffffffffffffffffff1660601b8152505050508073ffffffffffffffffffffffffffffffffffffffff1660c08173ffffffffffffffffffffffffffffffffffffffff1660601b81525050508473ffffffffffffffffffffffffffffffffffffffff1660e08173ffffffffffffffffffffffffffffffffffffffff1660601b815250508373ffffffffffffffffffffffffffffffffffffffff166101008173ffffffffffffffffffffffffffffffffffffffff1660601b815250505050505050620004b3565b600033905090565b620001eb82826200025260201b60201c565b5050565b600062000202836200034360201b60201c565b905081600080858152602001908152602001600020600101819055508181847fbd79b86ffe0ab8e8776151514217cd7cacd52c909f66475c3af44e129f0b00ff60405160405180910390a4505050565b6200026482826200036260201b60201c565b6200033f57600160008084815260200190815260200160002060000160008373ffffffffffffffffffffffffffffffffffffffff1673ffffffffffffffffffffffffffffffffffffffff16815260200190815260200160002060006101000a81548160ff021916908315150217905550620002e4620001d160201b60201c565b73ffffffffffffffffffffffffffffffffffffffff168173ffffffffffffffffffffffffffffffffffffffff16837f2f8788117e7eff1d82e926ec794901d17c78024a50270940304540a733656f0d60405160405180910390a45b5050565b6000806000838152602001908152602001600020600101549050919050565b600080600084815260200190815260200160002060000160008373ffffffffffffffffffffffffffffffffffffffff1673ffffffffffffffffffffffffffffffffffffffff16815260200190815260200160002060009054906101000a900460ff16905092915050565b600081519050620003dd8162000499565b92915050565b600080600080600060a08688031215620003fc57600080fd5b60006200040c88828901620003cc565b95505060206200041f88828901620003cc565b94505060406200043288828901620003cc565b93505060606200044588828901620003cc565b92505060806200045888828901620003cc565b9150509295509295909350565b6000620004728262000479565b9050919050565b600073ffffffffffffffffffffffffffffffffffffffff82169050919050565b620004a48162000465565b8114620004b057600080fd5b50565b60805160601c60a05160601c60c05160601c60e05160601c6101005160601c612c1b620005466000396000818161099201528181610bbe0152611053015260008181610b830152611627015260008181610659015281816111ea01526116c9015260008181610d230152610e6d0152600081816105cb015281816108d401528181610e110152610f040152612c1b6000f3fe6080604052600436106101405760003560e01c806377061e4d116100b6578063a217fddf1161006f578063a217fddf14610438578063a7e28d4814610463578063ccc57490146104a0578063d2ce7d65146104cb578063d547741f146104fb578063fb0e722b1461052457610140565b806377061e4d146103285780638456cb59146103515780638e7c8efe1461036857806391d14854146103935780639d79bdb5146103d0578063a0c76a96146103fb57610140565b80632f2ff15d116101085780632f2ff15d1461023e57806336568abe146102675780633f4ba83a14610290578063407395e0146102a75780635c975abb146102d257806362dcefbb146102fd57610140565b806301ffc9a7146101455780630725667714610182578063248a9ca3146101ad5780632db09c1c146101ea5780632e567b3614610215575b600080fd5b34801561015157600080fd5b5061016c60048036038101906101679190611fb0565b61054f565b6040516101799190612499565b60405180910390f35b34801561018e57600080fd5b506101976105c9565b6040516101a4919061233f565b60405180910390f35b3480156101b957600080fd5b506101d460048036038101906101cf9190611f4b565b6105ed565b6040516101e191906124b4565b60405180910390f35b3480156101f657600080fd5b506101ff61060c565b60405161020c919061233f565b60405180910390f35b34801561022157600080fd5b5061023c60048036038101906102379190611d5a565b610634565b005b34801561024a57600080fd5b5061026560048036038101906102609190611f74565b610a98565b005b34801561027357600080fd5b5061028e60048036038101906102899190611f74565b610ac1565b005b34801561029c57600080fd5b506102a5610b44565b005b3480156102b357600080fd5b506102bc610b81565b6040516102c9919061233f565b60405180910390f35b3480156102de57600080fd5b506102e7610ba5565b6040516102f49190612499565b60405180910390f35b34801561030957600080fd5b50610312610bbc565b60405161031f919061233f565b60405180910390f35b34801561033457600080fd5b5061034f600480360381019061034a9190611cb4565b610be0565b005b34801561035d57600080fd5b50610366610c56565b005b34801561037457600080fd5b5061037d610c93565b60405161038a919061233f565b60405180910390f35b34801561039f57600080fd5b506103ba60048036038101906103b59190611f74565b610cb7565b6040516103c79190612499565b60405180910390f35b3480156103dc57600080fd5b506103e5610d21565b6040516103f2919061233f565b60405180910390f35b34801561040757600080fd5b50610422600480360381019061041d9190611dec565b610d45565b60405161042f91906124cf565b60405180910390f35b34801561044457600080fd5b5061044d610e06565b60405161045a91906124b4565b60405180910390f35b34801561046f57600080fd5b5061048a60048036038101906104859190611cb4565b610e0d565b604051610497919061233f565b60405180910390f35b3480156104ac57600080fd5b506104b5610e94565b6040516104c291906124b4565b60405180910390f35b6104e560048036038101906104e09190611e7b565b610eb8565b6040516104f291906124cf565b60405180910390f35b34801561050757600080fd5b50610522600480360381019061051d9190611f74565b6111bf565b005b34801561053057600080fd5b506105396111e8565b6040516105469190612528565b60405180910390f35b60007f7965db0b000000000000000000000000000000000000000000000000000000007bffffffffffffffffffffffffffffffffffffffffffffffffffffffff1916827bffffffffffffffffffffffffffffffffffffffffffffffffffffffff191614806105c257506105c18261120c565b5b9050919050565b7f000000000000000000000000000000000000000000000000000000000000000081565b6000806000838152602001908152602001600020600101549050919050565b600060018054906101000a900473ffffffffffffffffffffffffffffffffffffffff16905090565b60018054906101000a900473ffffffffffffffffffffffffffffffffffffffff1660007f000000000000000000000000000000000000000000000000000000000000000073ffffffffffffffffffffffffffffffffffffffff1663e78cea926040518163ffffffff1660e01b815260040160206040518083038186803b1580156106bd57600080fd5b505afa1580156106d1573d6000803e3d6000fd5b505050506040513d601f19601f820116820180604052508101906106f59190611cdd565b90508073ffffffffffffffffffffffffffffffffffffffff163373ffffffffffffffffffffffffffffffffffffffff1614610765576040517f08c379a000000000000000000000000000000000000000000000000000000000815260040161075c906125a5565b60405180910390fd5b60008173ffffffffffffffffffffffffffffffffffffffff1663ab5d89436040518163ffffffff1660e01b815260040160206040518083038186803b1580156107ad57600080fd5b505afa1580156107c1573d6000803e3d6000fd5b505050506040513d601f19601f820116820180604052508101906107e59190611cdd565b73ffffffffffffffffffffffffffffffffffffffff166380648b026040518163ffffffff1660e01b815260040160206040518083038186803b15801561082a57600080fd5b505afa15801561083e573d6000803e3d6000fd5b505050506040513d601f19601f820116820180604052508101906108629190611cdd565b90508273ffffffffffffffffffffffffffffffffffffffff168173ffffffffffffffffffffffffffffffffffffffff16146108d2576040517f08c379a00000000000000000000000000000000000000000000000000000000081526004016108c990612625565b60405180910390fd5b7f000000000000000000000000000000000000000000000000000000000000000073ffffffffffffffffffffffffffffffffffffffff168973ffffffffffffffffffffffffffffffffffffffff1614610960576040517f08c379a0000000000000000000000000000000000000000000000000000000008152600401610957906125c5565b60405180910390fd5b600085858101906109719190612002565b5090508973ffffffffffffffffffffffffffffffffffffffff166323b872dd7f00000000000000000000000000000000000000000000000000000000000000008a8a6040518463ffffffff1660e01b81526004016109d1939291906123b4565b602060405180830381600087803b1580156109eb57600080fd5b505af11580156109ff573d6000803e3d6000fd5b505050506040513d601f19601f82011682018060405250810190610a239190611f22565b50808873ffffffffffffffffffffffffffffffffffffffff168a73ffffffffffffffffffffffffffffffffffffffff167f891afe029c75c4f8c5855fc3480598bc5a53739344f6ae575bdb7ea2a79f56b38d8b604051610a84929190612470565b60405180910390a450505050505050505050565b610aa1826105ed565b610ab281610aad611276565b61127e565b610abc838361131b565b505050565b610ac9611276565b73ffffffffffffffffffffffffffffffffffffffff168173ffffffffffffffffffffffffffffffffffffffff1614610b36576040517f08c379a0000000000000000000000000000000000000000000000000000000008152600401610b2d90612645565b60405180910390fd5b610b4082826113fb565b5050565b7f7935bd0ae54bc31f548c14dba4d37c5c64b3f8ca900cb468fb8abd54d5894f55610b7681610b71611276565b61127e565b610b7e6114dc565b50565b7f000000000000000000000000000000000000000000000000000000000000000081565b6000600160009054906101000a900460ff16905090565b7f000000000000000000000000000000000000000000000000000000000000000081565b7f7935bd0ae54bc31f548c14dba4d37c5c64b3f8ca900cb468fb8abd54d5894f55610c1281610c0d611276565b61127e565b816001806101000a81548173ffffffffffffffffffffffffffffffffffffffff021916908373ffffffffffffffffffffffffffffffffffffffff1602179055505050565b7f7935bd0ae54bc31f548c14dba4d37c5c64b3f8ca900cb468fb8abd54d5894f55610c8881610c83611276565b61127e565b610c9061157e565b50565b60018054906101000a900473ffffffffffffffffffffffffffffffffffffffff1681565b600080600084815260200190815260200160002060000160008373ffffffffffffffffffffffffffffffffffffffff1673ffffffffffffffffffffffffffffffffffffffff16815260200190815260200160002060009054906101000a900460ff16905092915050565b7f000000000000000000000000000000000000000000000000000000000000000081565b60606000604051806020016040528060008152509050632e567b3660e01b878787878588604051602001610d7a9291906124f1565b604051602081830303815290604052604051602401610d9d95949392919061235a565b604051602081830303815290604052907bffffffffffffffffffffffffffffffffffffffffffffffffffffffff19166020820180517bffffffffffffffffffffffffffffffffffffffffffffffffffffffff838183161783525050505091505095945050505050565b6000801b81565b60007f000000000000000000000000000000000000000000000000000000000000000073ffffffffffffffffffffffffffffffffffffffff168273ffffffffffffffffffffffffffffffffffffffff1614610e6b5760009050610e8f565b7f000000000000000000000000000000000000000000000000000000000000000090505b919050565b7f7935bd0ae54bc31f548c14dba4d37c5c64b3f8ca900cb468fb8abd54d5894f5581565b6060610ec2610ba5565b15610f02576040517f08c379a0000000000000000000000000000000000000000000000000000000008152600401610ef9906125e5565b60405180910390fd5b7f000000000000000000000000000000000000000000000000000000000000000073ffffffffffffffffffffffffffffffffffffffff168873ffffffffffffffffffffffffffffffffffffffff1614610f90576040517f08c379a0000000000000000000000000000000000000000000000000000000008152600401610f87906125c5565b60405180910390fd5b60008060606000610fe487878080601f016020809104026020016040519081016040528093929190818152602001838380828437600081840152601f19601f82011690508083019250505050505050611620565b8094508193508296505050506000825114611034576040517f08c379a000000000000000000000000000000000000000000000000000000000815260040161102b90612605565b60405180910390fd5b8b73ffffffffffffffffffffffffffffffffffffffff166323b872dd857f00000000000000000000000000000000000000000000000000000000000000008d6040518463ffffffff1660e01b8152600401611091939291906123b4565b602060405180830381600087803b1580156110ab57600080fd5b505af11580156110bf573d6000803e3d6000fd5b505050506040513d601f19601f820116820180604052508101906110e39190611f22565b5060006110f38d868e8e87610d45565b905061112360018054906101000a900473ffffffffffffffffffffffffffffffffffffffff1686848d8d866116c4565b93505050818a73ffffffffffffffffffffffffffffffffffffffff168473ffffffffffffffffffffffffffffffffffffffff167fb8910b9960c443aac3240b98585384e3a6f109fbf6969e264c3f183d69aba7e18e8d604051611187929190612470565b60405180910390a4816040516020016111a09190612665565b6040516020818303038152906040529350505050979650505050505050565b6111c8826105ed565b6111d9816111d4611276565b61127e565b6111e383836113fb565b505050565b7f000000000000000000000000000000000000000000000000000000000000000081565b60007f01ffc9a7000000000000000000000000000000000000000000000000000000007bffffffffffffffffffffffffffffffffffffffffffffffffffffffff1916827bffffffffffffffffffffffffffffffffffffffffffffffffffffffff1916149050919050565b600033905090565b6112888282610cb7565b611317576112ad8173ffffffffffffffffffffffffffffffffffffffff1660146117f8565b6112bb8360001c60206117f8565b6040516020016112cc929190612305565b6040516020818303038152906040526040517f08c379a000000000000000000000000000000000000000000000000000000000815260040161130e9190612543565b60405180910390fd5b5050565b6113258282610cb7565b6113f757600160008084815260200190815260200160002060000160008373ffffffffffffffffffffffffffffffffffffffff1673ffffffffffffffffffffffffffffffffffffffff16815260200190815260200160002060006101000a81548160ff02191690831515021790555061139c611276565b73ffffffffffffffffffffffffffffffffffffffff168173ffffffffffffffffffffffffffffffffffffffff16837f2f8788117e7eff1d82e926ec794901d17c78024a50270940304540a733656f0d60405160405180910390a45b5050565b6114058282610cb7565b156114d857600080600084815260200190815260200160002060000160008373ffffffffffffffffffffffffffffffffffffffff1673ffffffffffffffffffffffffffffffffffffffff16815260200190815260200160002060006101000a81548160ff02191690831515021790555061147d611276565b73ffffffffffffffffffffffffffffffffffffffff168173ffffffffffffffffffffffffffffffffffffffff16837ff6391f5c32d9c69d2a47ea670b442974b53935d1edc7fd64eb21e047a839171b60405160405180910390a45b5050565b6114e4610ba5565b611523576040517f08c379a000000000000000000000000000000000000000000000000000000000815260040161151a90612585565b60405180910390fd5b6000600160006101000a81548160ff0219169083151502179055507f5db9ee0a495bf2e6ff9c91a7834c1ba4fdd244a5e8aa4e537bd38aeae4b073aa611567611276565b604051611574919061233f565b60405180910390a1565b611586610ba5565b156115c6576040517f08c379a00000000000000000000000000000000000000000000000000000000081526004016115bd906125e5565b60405180910390fd5b60018060006101000a81548160ff0219169083151502179055507f62e78cea01bee320cd4e420270b5ea74000d11b0c9f74754ebdbfc544b05a258611609611276565b604051611616919061233f565b60405180910390a1565b60008060607f000000000000000000000000000000000000000000000000000000000000000073ffffffffffffffffffffffffffffffffffffffff163373ffffffffffffffffffffffffffffffffffffffff16141561169a578380602001905181019061168d9190611d06565b80925081945050506116a1565b3392508390505b808060200190518101906116b59190612056565b80925081935050509193909250565b6000807f000000000000000000000000000000000000000000000000000000000000000073ffffffffffffffffffffffffffffffffffffffff1663679b6ded348a60008a8c8d8c8c8c6040518a63ffffffff1660e01b81526004016117309897969594939291906123eb565b6020604051808303818588803b15801561174957600080fd5b505af115801561175d573d6000803e3d6000fd5b50505050506040513d601f19601f820116820180604052508101906117829190611fd9565b9050808873ffffffffffffffffffffffffffffffffffffffff168873ffffffffffffffffffffffffffffffffffffffff167fc1d1490cf25c3b40d600dfb27c7680340ed1ab901b7e8f3551280968a3b372b0866040516117e291906124cf565b60405180910390a4809150509695505050505050565b60606000600283600261180b919061276f565b6118159190612719565b67ffffffffffffffff811115611854577f4e487b7100000000000000000000000000000000000000000000000000000000600052604160045260246000fd5b6040519080825280601f01601f1916602001820160405280156118865781602001600182028036833780820191505090505b5090507f3000000000000000000000000000000000000000000000000000000000000000816000815181106118e4577f4e487b7100000000000000000000000000000000000000000000000000000000600052603260045260246000fd5b60200101907effffffffffffffffffffffffffffffffffffffffffffffffffffffffffffff1916908160001a9053507f78000000000000000000000000000000000000000000000000000000000000008160018151811061196e577f4e487b7100000000000000000000000000000000000000000000000000000000600052603260045260246000fd5b60200101907effffffffffffffffffffffffffffffffffffffffffffffffffffffffffffff1916908160001a905350600060018460026119ae919061276f565b6119b89190612719565b90505b6001811115611aa4577f3031323334353637383961626364656600000000000000000000000000000000600f861660108110611a20577f4e487b7100000000000000000000000000000000000000000000000000000000600052603260045260246000fd5b1a60f81b828281518110611a5d577f4e487b7100000000000000000000000000000000000000000000000000000000600052603260045260246000fd5b60200101907effffffffffffffffffffffffffffffffffffffffffffffffffffffffffffff1916908160001a905350600485901c945080611a9d906128d1565b90506119bb565b5060008414611ae8576040517f08c379a0000000000000000000000000000000000000000000000000000000008152600401611adf90612565565b60405180910390fd5b8091505092915050565b6000611b05611b00846126a5565b612680565b905082815260208101848484011115611b1d57600080fd5b611b2884828561288f565b509392505050565b6000611b43611b3e846126a5565b612680565b905082815260208101848484011115611b5b57600080fd5b611b6684828561289e565b509392505050565b600081359050611b7d81612b5b565b92915050565b600081519050611b9281612b5b565b92915050565b600081519050611ba781612b72565b92915050565b600081519050611bbc81612b89565b92915050565b600081359050611bd181612ba0565b92915050565b600081359050611be681612bb7565b92915050565b60008083601f840112611bfe57600080fd5b8235905067ffffffffffffffff811115611c1757600080fd5b602083019150836001820283011115611c2f57600080fd5b9250929050565b600082601f830112611c4757600080fd5b8135611c57848260208601611af2565b91505092915050565b600082601f830112611c7157600080fd5b8151611c81848260208601611b30565b91505092915050565b600081359050611c9981612bce565b92915050565b600081519050611cae81612bce565b92915050565b600060208284031215611cc657600080fd5b6000611cd484828501611b6e565b91505092915050565b600060208284031215611cef57600080fd5b6000611cfd84828501611b83565b91505092915050565b60008060408385031215611d1957600080fd5b6000611d2785828601611b98565b925050602083015167ffffffffffffffff811115611d4457600080fd5b611d5085828601611c60565b9150509250929050565b60008060008060008060a08789031215611d7357600080fd5b6000611d8189828a01611b6e565b9650506020611d9289828a01611b6e565b9550506040611da389828a01611b6e565b9450506060611db489828a01611c8a565b935050608087013567ffffffffffffffff811115611dd157600080fd5b611ddd89828a01611bec565b92509250509295509295509295565b600080600080600060a08688031215611e0457600080fd5b6000611e1288828901611b6e565b9550506020611e2388828901611b6e565b9450506040611e3488828901611b6e565b9350506060611e4588828901611c8a565b925050608086013567ffffffffffffffff811115611e6257600080fd5b611e6e88828901611c36565b9150509295509295909350565b600080600080600080600060c0888a031215611e9657600080fd5b6000611ea48a828b01611b6e565b9750506020611eb58a828b01611b6e565b9650506040611ec68a828b01611c8a565b9550506060611ed78a828b01611c8a565b9450506080611ee88a828b01611c8a565b93505060a088013567ffffffffffffffff811115611f0557600080fd5b611f118a828b01611bec565b925092505092959891949750929550565b600060208284031215611f3457600080fd5b6000611f4284828501611bad565b91505092915050565b600060208284031215611f5d57600080fd5b6000611f6b84828501611bc2565b91505092915050565b60008060408385031215611f8757600080fd5b6000611f9585828601611bc2565b9250506020611fa685828601611b6e565b9150509250929050565b600060208284031215611fc257600080fd5b6000611fd084828501611bd7565b91505092915050565b600060208284031215611feb57600080fd5b6000611ff984828501611c9f565b91505092915050565b6000806040838503121561201557600080fd5b600061202385828601611c8a565b925050602083013567ffffffffffffffff81111561204057600080fd5b61204c85828601611c36565b9150509250929050565b6000806040838503121561206957600080fd5b600061207785828601611c9f565b925050602083015167ffffffffffffffff81111561209457600080fd5b6120a085828601611c60565b9150509250929050565b6120b3816127c9565b82525050565b6120c2816127ed565b82525050565b6120d1816127f9565b82525050565b60006120e2826126d6565b6120ec81856126ec565b93506120fc81856020860161289e565b6121058161298a565b840191505092915050565b61211981612859565b82525050565b6121288161287d565b82525050565b6000612139826126e1565b61214381856126fd565b935061215381856020860161289e565b61215c8161298a565b840191505092915050565b6000612172826126e1565b61217c818561270e565b935061218c81856020860161289e565b80840191505092915050565b60006121a56020836126fd565b91506121b08261299b565b602082019050919050565b60006121c86014836126fd565b91506121d3826129c4565b602082019050919050565b60006121eb600f836126fd565b91506121f6826129ed565b602082019050919050565b600061220e600d836126fd565b915061221982612a16565b602082019050919050565b60006122316010836126fd565b915061223c82612a3f565b602082019050919050565b6000612254601a836126fd565b915061225f82612a68565b602082019050919050565b600061227760178361270e565b915061228282612a91565b601782019050919050565b600061229a6018836126fd565b91506122a582612aba565b602082019050919050565b60006122bd60118361270e565b91506122c882612ae3565b601182019050919050565b60006122e0602f836126fd565b91506122eb82612b0c565b604082019050919050565b6122ff8161284f565b82525050565b60006123108261226a565b915061231c8285612167565b9150612327826122b0565b91506123338284612167565b91508190509392505050565b600060208201905061235460008301846120aa565b92915050565b600060a08201905061236f60008301886120aa565b61237c60208301876120aa565b61238960408301866120aa565b61239660608301856122f6565b81810360808301526123a881846120d7565b90509695505050505050565b60006060820190506123c960008301866120aa565b6123d660208301856120aa565b6123e360408301846122f6565b949350505050565b600061010082019050612401600083018b6120aa565b61240e602083018a61211f565b61241b60408301896122f6565b61242860608301886120aa565b61243560808301876120aa565b61244260a08301866122f6565b61244f60c08301856122f6565b81810360e083015261246181846120d7565b90509998505050505050505050565b600060408201905061248560008301856120aa565b61249260208301846122f6565b9392505050565b60006020820190506124ae60008301846120b9565b92915050565b60006020820190506124c960008301846120c8565b92915050565b600060208201905081810360008301526124e981846120d7565b905092915050565b6000604082019050818103600083015261250b81856120d7565b9050818103602083015261251f81846120d7565b90509392505050565b600060208201905061253d6000830184612110565b92915050565b6000602082019050818103600083015261255d818461212e565b905092915050565b6000602082019050818103600083015261257e81612198565b9050919050565b6000602082019050818103600083015261259e816121bb565b9050919050565b600060208201905081810360008301526125be816121de565b9050919050565b600060208201905081810360008301526125de81612201565b9050919050565b600060208201905081810360008301526125fe81612224565b9050919050565b6000602082019050818103600083015261261e81612247565b9050919050565b6000602082019050818103600083015261263e8161228d565b9050919050565b6000602082019050818103600083015261265e816122d3565b9050919050565b600060208201905061267a60008301846122f6565b92915050565b600061268a61269b565b905061269682826128fb565b919050565b6000604051905090565b600067ffffffffffffffff8211156126c0576126bf61295b565b5b6126c98261298a565b9050602081019050919050565b600081519050919050565b600081519050919050565b600082825260208201905092915050565b600082825260208201905092915050565b600081905092915050565b60006127248261284f565b915061272f8361284f565b9250827fffffffffffffffffffffffffffffffffffffffffffffffffffffffffffffffff038211156127645761276361292c565b5b828201905092915050565b600061277a8261284f565b91506127858361284f565b9250817fffffffffffffffffffffffffffffffffffffffffffffffffffffffffffffffff04831182151516156127be576127bd61292c565b5b828202905092915050565b60006127d48261282f565b9050919050565b60006127e68261282f565b9050919050565b60008115159050919050565b6000819050919050565b60007fffffffff0000000000000000000000000000000000000000000000000000000082169050919050565b600073ffffffffffffffffffffffffffffffffffffffff82169050919050565b6000819050919050565b60006128648261286b565b9050919050565b60006128768261282f565b9050919050565b60006128888261284f565b9050919050565b82818337600083830152505050565b60005b838110156128bc5780820151818401526020810190506128a1565b838111156128cb576000848401525b50505050565b60006128dc8261284f565b915060008214156128f0576128ef61292c565b5b600182039050919050565b6129048261298a565b810181811067ffffffffffffffff821117156129235761292261295b565b5b80604052505050565b7f4e487b7100000000000000000000000000000000000000000000000000000000600052601160045260246000fd5b7f4e487b7100000000000000000000000000000000000000000000000000000000600052604160045260246000fd5b6000601f19601f8301169050919050565b7f537472696e67733a20686578206c656e67746820696e73756666696369656e74600082015250565b7f5061757361626c653a206e6f7420706175736564000000000000000000000000600082015250565b7f4e4f545f46524f4d5f4252494447450000000000000000000000000000000000600082015250565b7f544f4b454e5f4e4f545f4c505400000000000000000000000000000000000000600082015250565b7f5061757361626c653a2070617573656400000000000000000000000000000000600082015250565b7f43414c4c5f484f4f4b5f444154415f4e4f545f414c4c4f574544000000000000600082015250565b7f416363657373436f6e74726f6c3a206163636f756e7420000000000000000000600082015250565b7f4f4e4c595f434f554e544552504152545f474154455741590000000000000000600082015250565b7f206973206d697373696e6720726f6c6520000000000000000000000000000000600082015250565b7f416363657373436f6e74726f6c3a2063616e206f6e6c792072656e6f756e636560008201527f20726f6c657320666f722073656c660000000000000000000000000000000000602082015250565b612b64816127c9565b8114612b6f57600080fd5b50565b612b7b816127db565b8114612b8657600080fd5b50565b612b92816127ed565b8114612b9d57600080fd5b50565b612ba9816127f9565b8114612bb457600080fd5b50565b612bc081612803565b8114612bcb57600080fd5b50565b612bd78161284f565b8114612be257600080fd5b5056fea26469706673582212207f91d3cb48b5f8094180edb9736305f28271d452ac721303f2a14339619e354b64736f6c63430008040033",
  "devdoc": {
    "kind": "dev",
    "methods": {
      "getRoleAdmin(bytes32)": {
        "details": "Returns the admin role that controls `role`. See {grantRole} and {revokeRole}. To change a role's admin, use {_setRoleAdmin}."
      },
      "grantRole(bytes32,address)": {
        "details": "Grants `role` to `account`. If `account` had not been already granted `role`, emits a {RoleGranted} event. Requirements: - the caller must have ``role``'s admin role."
      },
      "hasRole(bytes32,address)": {
        "details": "Returns `true` if `account` has been granted `role`."
      },
      "paused()": {
        "details": "Returns true if the contract is paused, and false otherwise."
      },
      "renounceRole(bytes32,address)": {
        "details": "Revokes `role` from the calling account. Roles are often managed via {grantRole} and {revokeRole}: this function's purpose is to provide a mechanism for accounts to lose their privileges if they are compromised (such as when a trusted device is misplaced). If the calling account had been granted `role`, emits a {RoleRevoked} event. Requirements: - the caller must be `account`."
      },
      "revokeRole(bytes32,address)": {
        "details": "Revokes `role` from `account`. If `account` had been granted `role`, emits a {RoleRevoked} event. Requirements: - the caller must have ``role``'s admin role."
      },
      "supportsInterface(bytes4)": {
        "details": "See {IERC165-supportsInterface}."
      }
    },
    "version": 1
  },
  "userdoc": {
    "kind": "user",
    "methods": {},
    "version": 1
  },
  "storageLayout": {
    "storage": [
      {
        "astId": 24,
        "contract": "contracts/L1/gateway/L1LPTGateway.sol:L1LPTGateway",
        "label": "_roles",
        "offset": 0,
        "slot": "0",
        "type": "t_mapping(t_bytes32,t_struct(RoleData)19_storage)"
      },
      {
        "astId": 397,
        "contract": "contracts/L1/gateway/L1LPTGateway.sol:L1LPTGateway",
        "label": "_paused",
        "offset": 0,
        "slot": "1",
        "type": "t_bool"
      },
      {
        "astId": 2512,
        "contract": "contracts/L1/gateway/L1LPTGateway.sol:L1LPTGateway",
        "label": "l2Counterpart",
        "offset": 1,
        "slot": "1",
        "type": "t_address"
      }
    ],
    "types": {
      "t_address": {
        "encoding": "inplace",
        "label": "address",
        "numberOfBytes": "20"
      },
      "t_bool": {
        "encoding": "inplace",
        "label": "bool",
        "numberOfBytes": "1"
      },
      "t_bytes32": {
        "encoding": "inplace",
        "label": "bytes32",
        "numberOfBytes": "32"
      },
      "t_mapping(t_address,t_bool)": {
        "encoding": "mapping",
        "key": "t_address",
        "label": "mapping(address => bool)",
        "numberOfBytes": "32",
        "value": "t_bool"
      },
      "t_mapping(t_bytes32,t_struct(RoleData)19_storage)": {
        "encoding": "mapping",
        "key": "t_bytes32",
        "label": "mapping(bytes32 => struct AccessControl.RoleData)",
        "numberOfBytes": "32",
        "value": "t_struct(RoleData)19_storage"
      },
      "t_struct(RoleData)19_storage": {
        "encoding": "inplace",
        "label": "struct AccessControl.RoleData",
        "members": [
          {
            "astId": 16,
            "contract": "contracts/L1/gateway/L1LPTGateway.sol:L1LPTGateway",
            "label": "members",
            "offset": 0,
            "slot": "0",
            "type": "t_mapping(t_address,t_bool)"
          },
          {
            "astId": 18,
            "contract": "contracts/L1/gateway/L1LPTGateway.sol:L1LPTGateway",
            "label": "adminRole",
            "offset": 0,
            "slot": "1",
            "type": "t_bytes32"
          }
        ],
        "numberOfBytes": "64"
      }
    }
  }
}