{
  "address": "0x6344aa79D46825a241683463Dc5C1D41ab20762D",
  "abi": [
    {
      "inputs": [],
      "stateMutability": "nonpayable",
      "type": "constructor"
    },
    {
      "anonymous": false,
      "inputs": [
        {
          "indexed": true,
          "internalType": "address",
          "name": "_user",
          "type": "address"
        }
      ],
      "name": "Allow",
      "type": "event"
    },
    {
      "anonymous": false,
      "inputs": [
        {
          "indexed": true,
          "internalType": "address",
          "name": "_token",
          "type": "address"
        },
        {
          "indexed": true,
          "internalType": "address",
          "name": "_spender",
          "type": "address"
        },
        {
          "indexed": false,
          "internalType": "uint256",
          "name": "_value",
          "type": "uint256"
        }
      ],
      "name": "Approve",
      "type": "event"
    },
    {
      "anonymous": false,
      "inputs": [
        {
          "indexed": true,
          "internalType": "address",
          "name": "_user",
          "type": "address"
        }
      ],
      "name": "Deny",
      "type": "event"
    },
    {
      "inputs": [
        {
          "internalType": "address",
          "name": "_user",
          "type": "address"
        }
      ],
      "name": "allow",
      "outputs": [],
      "stateMutability": "nonpayable",
      "type": "function"
    },
    {
      "inputs": [
        {
          "internalType": "address",
          "name": "",
          "type": "address"
        }
      ],
      "name": "allowed",
      "outputs": [
        {
          "internalType": "bool",
          "name": "",
          "type": "bool"
        }
      ],
      "stateMutability": "view",
      "type": "function"
    },
    {
      "inputs": [
        {
          "internalType": "address",
          "name": "_token",
          "type": "address"
        },
        {
          "internalType": "address",
          "name": "_spender",
          "type": "address"
        },
        {
          "internalType": "uint256",
          "name": "_value",
          "type": "uint256"
        }
      ],
      "name": "approve",
      "outputs": [],
      "stateMutability": "nonpayable",
      "type": "function"
    },
    {
      "inputs": [
        {
          "internalType": "address",
          "name": "_user",
          "type": "address"
        }
      ],
      "name": "deny",
      "outputs": [],
      "stateMutability": "nonpayable",
      "type": "function"
    },
    {
      "inputs": [
        {
          "internalType": "address",
          "name": "_token",
          "type": "address"
        },
        {
          "internalType": "address",
          "name": "_user",
          "type": "address"
        }
      ],
      "name": "revoke",
      "outputs": [],
      "stateMutability": "nonpayable",
      "type": "function"
    }
  ],
  "transactionHash": "0x0941cb3ed1ea2ace3f60a1b5d476e7ab20db6ba23bd22eda067071bffaf1668b",
  "args": [],
  "solcInputHash": "745567fe26c6599e3de280e2ec214387",
  "bytecode": "0x608060405234801561001057600080fd5b5060016000803373ffffffffffffffffffffffffffffffffffffffff1673ffffffffffffffffffffffffffffffffffffffff16815260200190815260200160002060006101000a81548160ff021916908315150217905550610821806100776000396000f3fe608060405234801561001057600080fd5b50600436106100575760003560e01c80639c52a7f11461005c578063d63a8e1114610078578063dcf3fb2a146100a8578063e1f21c67146100c4578063ff9913e8146100e0575b600080fd5b610076600480360381019061007191906105b8565b6100fc565b005b610092600480360381019061008d91906105b8565b61022b565b60405161009f91906106e5565b60405180910390f35b6100c260048036038101906100bd91906105e1565b61024b565b005b6100de60048036038101906100d9919061061d565b6102f6565b005b6100fa60048036038101906100f591906105b8565b61045f565b005b600115156000803373ffffffffffffffffffffffffffffffffffffffff1673ffffffffffffffffffffffffffffffffffffffff16815260200190815260200160002060009054906101000a900460ff1615151461018e576040517f08c379a000000000000000000000000000000000000000000000000000000000815260040161018590610700565b60405180910390fd5b60008060008373ffffffffffffffffffffffffffffffffffffffff1673ffffffffffffffffffffffffffffffffffffffff16815260200190815260200160002060006101000a81548160ff0219169083151502179055508073ffffffffffffffffffffffffffffffffffffffff167f184450df2e323acec0ed3b5c7531b81f9b4cdef7914dfd4c0a4317416bb5251b60405160405180910390a250565b60006020528060005260406000206000915054906101000a900460ff1681565b600115156000803373ffffffffffffffffffffffffffffffffffffffff1673ffffffffffffffffffffffffffffffffffffffff16815260200190815260200160002060009054906101000a900460ff161515146102dd576040517f08c379a00000000000000000000000000000000000000000000000000000000081526004016102d490610700565b60405180910390fd5b6102e6816100fc565b6102f2828260006102f6565b5050565b600115156000803373ffffffffffffffffffffffffffffffffffffffff1673ffffffffffffffffffffffffffffffffffffffff16815260200190815260200160002060009054906101000a900460ff16151514610388576040517f08c379a000000000000000000000000000000000000000000000000000000000815260040161037f90610700565b60405180910390fd5b8173ffffffffffffffffffffffffffffffffffffffff168373ffffffffffffffffffffffffffffffffffffffff167f6e11fb1b7f119e3f2fa29896ef5fdf8b8a2d0d4df6fe90ba8668e7d8b2ffa25e836040516103e59190610720565b60405180910390a38273ffffffffffffffffffffffffffffffffffffffff1663095ea7b383836040518363ffffffff1660e01b81526004016104289291906106bc565b600060405180830381600087803b15801561044257600080fd5b505af1158015610456573d6000803e3d6000fd5b50505050505050565b600115156000803373ffffffffffffffffffffffffffffffffffffffff1673ffffffffffffffffffffffffffffffffffffffff16815260200190815260200160002060009054906101000a900460ff161515146104f1576040517f08c379a00000000000000000000000000000000000000000000000000000000081526004016104e890610700565b60405180910390fd5b60016000808373ffffffffffffffffffffffffffffffffffffffff1673ffffffffffffffffffffffffffffffffffffffff16815260200190815260200160002060006101000a81548160ff0219169083151502179055508073ffffffffffffffffffffffffffffffffffffffff167f16c61d7230298bd24fb91c350e2c76dd94d2e45ebc2c5216331577721b01935360405160405180910390a250565b60008135905061059d816107bd565b92915050565b6000813590506105b2816107d4565b92915050565b6000602082840312156105ca57600080fd5b60006105d88482850161058e565b91505092915050565b600080604083850312156105f457600080fd5b60006106028582860161058e565b92505060206106138582860161058e565b9150509250929050565b60008060006060848603121561063257600080fd5b60006106408682870161058e565b93505060206106518682870161058e565b9250506040610662868287016105a3565b9150509250925092565b6106758161074c565b82525050565b6106848161075e565b82525050565b6000610697600e8361073b565b91506106a282610794565b602082019050919050565b6106b68161078a565b82525050565b60006040820190506106d1600083018561066c565b6106de60208301846106ad565b9392505050565b60006020820190506106fa600083018461067b565b92915050565b600060208201905081810360008301526107198161068a565b9050919050565b600060208201905061073560008301846106ad565b92915050565b600082825260208201905092915050565b60006107578261076a565b9050919050565b60008115159050919050565b600073ffffffffffffffffffffffffffffffffffffffff82169050919050565b6000819050919050565b7f4e4f545f415554484f52495a4544000000000000000000000000000000000000600082015250565b6107c68161074c565b81146107d157600080fd5b50565b6107dd8161078a565b81146107e857600080fd5b5056fea264697066735822122018825cb294fb59efe85fdd4cc477b04c9a3d86268fd732f3a0ac18909b5bf50d64736f6c63430008040033",
  "devdoc": {
    "kind": "dev",
    "methods": {},
    "version": 1
  },
  "userdoc": {
    "kind": "user",
    "methods": {},
    "version": 1
  },
  "storageLayout": {
    "storage": [
      {
        "astId": 2246,
        "contract": "contracts/L1/escrow/L1LPTEscrow.sol:L1LPTEscrow",
        "label": "allowed",
        "offset": 0,
        "slot": "0",
        "type": "t_mapping(t_address,t_bool)"
      }
    ],
    "types": {
      "t_address": {
        "encoding": "inplace",
        "label": "address",
        "numberOfBytes": "20"
      },
      "t_bool": {
        "encoding": "inplace",
        "label": "bool",
        "numberOfBytes": "1"
      },
      "t_mapping(t_address,t_bool)": {
        "encoding": "mapping",
        "key": "t_address",
        "label": "mapping(address => bool)",
        "numberOfBytes": "32",
        "value": "t_bool"
      }
    }
  }
}