{
  "address": "0xcC7E99a650ED63f061AC26660f2bb71570e571b2",
  "abi": [
    {
      "inputs": [
        {
          "internalType": "address",
          "name": "_inbox",
          "type": "address"
        },
        {
          "internalType": "address",
          "name": "_bondingManagerAddr",
          "type": "address"
        },
        {
          "internalType": "address",
          "name": "_ticketBrokerAddr",
          "type": "address"
        },
        {
          "internalType": "address",
          "name": "_l2MigratorAddr",
          "type": "address"
        }
      ],
      "stateMutability": "nonpayable",
      "type": "constructor"
    },
    {
      "anonymous": false,
      "inputs": [
        {
          "indexed": true,
          "internalType": "uint256",
          "name": "seqNo",
          "type": "uint256"
        },
        {
          "components": [
            {
              "internalType": "address",
              "name": "l1Addr",
              "type": "address"
            },
            {
              "internalType": "address",
              "name": "l2Addr",
              "type": "address"
            },
            {
              "internalType": "uint256",
              "name": "stake",
              "type": "uint256"
            },
            {
              "internalType": "uint256",
              "name": "delegatedStake",
              "type": "uint256"
            },
            {
              "internalType": "uint256",
              "name": "fees",
              "type": "uint256"
            },
            {
              "internalType": "address",
              "name": "delegate",
              "type": "address"
            }
          ],
          "indexed": false,
          "internalType": "struct IMigrator.MigrateDelegatorParams",
          "name": "params",
          "type": "tuple"
        }
      ],
      "name": "MigrateDelegatorInitiated",
      "type": "event"
    },
    {
      "anonymous": false,
      "inputs": [
        {
          "indexed": true,
          "internalType": "uint256",
          "name": "seqNo",
          "type": "uint256"
        },
        {
          "components": [
            {
              "internalType": "address",
              "name": "l1Addr",
              "type": "address"
            },
            {
              "internalType": "address",
              "name": "l2Addr",
              "type": "address"
            },
            {
              "internalType": "uint256",
              "name": "deposit",
              "type": "uint256"
            },
            {
              "internalType": "uint256",
              "name": "reserve",
              "type": "uint256"
            }
          ],
          "indexed": false,
          "internalType": "struct IMigrator.MigrateSenderParams",
          "name": "params",
          "type": "tuple"
        }
      ],
      "name": "MigrateSenderInitiated",
      "type": "event"
    },
    {
      "anonymous": false,
      "inputs": [
        {
          "indexed": true,
          "internalType": "uint256",
          "name": "seqNo",
          "type": "uint256"
        },
        {
          "components": [
            {
              "internalType": "address",
              "name": "l1Addr",
              "type": "address"
            },
            {
              "internalType": "address",
              "name": "l2Addr",
              "type": "address"
            },
            {
              "internalType": "uint256",
              "name": "total",
              "type": "uint256"
            },
            {
              "internalType": "uint256[]",
              "name": "unbondingLockIds",
              "type": "uint256[]"
            }
          ],
          "indexed": false,
          "internalType": "struct IMigrator.MigrateUnbondingLocksParams",
          "name": "params",
          "type": "tuple"
        }
      ],
      "name": "MigrateUnbondingLocksInitiated",
      "type": "event"
    },
    {
      "anonymous": false,
      "inputs": [
        {
          "indexed": true,
          "internalType": "address",
          "name": "from",
          "type": "address"
        },
        {
          "indexed": true,
          "internalType": "address",
          "name": "to",
          "type": "address"
        },
        {
          "indexed": true,
          "internalType": "uint256",
          "name": "seqNum",
          "type": "uint256"
        },
        {
          "indexed": false,
          "internalType": "bytes",
          "name": "data",
          "type": "bytes"
        }
      ],
      "name": "TxToL2",
      "type": "event"
    },
    {
      "inputs": [],
      "name": "bondingManagerAddr",
      "outputs": [
        {
          "internalType": "address",
          "name": "",
          "type": "address"
        }
      ],
      "stateMutability": "view",
      "type": "function"
    },
    {
      "inputs": [
        {
          "internalType": "address",
          "name": "_l1Addr",
          "type": "address"
        },
        {
          "internalType": "address",
          "name": "_l2Addr",
          "type": "address"
        }
      ],
      "name": "getMigrateDelegatorParams",
      "outputs": [
        {
          "internalType": "bytes",
          "name": "data",
          "type": "bytes"
        },
        {
          "components": [
            {
              "internalType": "address",
              "name": "l1Addr",
              "type": "address"
            },
            {
              "internalType": "address",
              "name": "l2Addr",
              "type": "address"
            },
            {
              "internalType": "uint256",
              "name": "stake",
              "type": "uint256"
            },
            {
              "internalType": "uint256",
              "name": "delegatedStake",
              "type": "uint256"
            },
            {
              "internalType": "uint256",
              "name": "fees",
              "type": "uint256"
            },
            {
              "internalType": "address",
              "name": "delegate",
              "type": "address"
            }
          ],
          "internalType": "struct IMigrator.MigrateDelegatorParams",
          "name": "params",
          "type": "tuple"
        }
      ],
      "stateMutability": "view",
      "type": "function"
    },
    {
      "inputs": [
        {
          "internalType": "address",
          "name": "_l1Addr",
          "type": "address"
        },
        {
          "internalType": "address",
          "name": "_l2Addr",
          "type": "address"
        }
      ],
      "name": "getMigrateSenderParams",
      "outputs": [
        {
          "internalType": "bytes",
          "name": "data",
          "type": "bytes"
        },
        {
          "components": [
            {
              "internalType": "address",
              "name": "l1Addr",
              "type": "address"
            },
            {
              "internalType": "address",
              "name": "l2Addr",
              "type": "address"
            },
            {
              "internalType": "uint256",
              "name": "deposit",
              "type": "uint256"
            },
            {
              "internalType": "uint256",
              "name": "reserve",
              "type": "uint256"
            }
          ],
          "internalType": "struct IMigrator.MigrateSenderParams",
          "name": "params",
          "type": "tuple"
        }
      ],
      "stateMutability": "view",
      "type": "function"
    },
    {
      "inputs": [
        {
          "internalType": "address",
          "name": "_l1Addr",
          "type": "address"
        },
        {
          "internalType": "address",
          "name": "_l2Addr",
          "type": "address"
        },
        {
          "internalType": "uint256[]",
          "name": "_unbondingLockIds",
          "type": "uint256[]"
        }
      ],
      "name": "getMigrateUnbondingLocksParams",
      "outputs": [
        {
          "internalType": "bytes",
          "name": "data",
          "type": "bytes"
        },
        {
          "components": [
            {
              "internalType": "address",
              "name": "l1Addr",
              "type": "address"
            },
            {
              "internalType": "address",
              "name": "l2Addr",
              "type": "address"
            },
            {
              "internalType": "uint256",
              "name": "total",
              "type": "uint256"
            },
            {
              "internalType": "uint256[]",
              "name": "unbondingLockIds",
              "type": "uint256[]"
            }
          ],
          "internalType": "struct IMigrator.MigrateUnbondingLocksParams",
          "name": "params",
          "type": "tuple"
        }
      ],
      "stateMutability": "view",
      "type": "function"
    },
    {
      "inputs": [],
      "name": "inbox",
      "outputs": [
        {
          "internalType": "contract IInbox",
          "name": "",
          "type": "address"
        }
      ],
      "stateMutability": "view",
      "type": "function"
    },
    {
      "inputs": [],
      "name": "l2MigratorAddr",
      "outputs": [
        {
          "internalType": "address",
          "name": "",
          "type": "address"
        }
      ],
      "stateMutability": "view",
      "type": "function"
    },
    {
      "inputs": [
        {
          "internalType": "address",
          "name": "_l1Addr",
          "type": "address"
        },
        {
          "internalType": "address",
          "name": "_l2Addr",
          "type": "address"
        },
        {
          "internalType": "bytes",
          "name": "_sig",
          "type": "bytes"
        },
        {
          "internalType": "uint256",
          "name": "_maxGas",
          "type": "uint256"
        },
        {
          "internalType": "uint256",
          "name": "_gasPriceBid",
          "type": "uint256"
        },
        {
          "internalType": "uint256",
          "name": "_maxSubmissionCost",
          "type": "uint256"
        }
      ],
      "name": "migrateDelegator",
      "outputs": [],
      "stateMutability": "payable",
      "type": "function"
    },
    {
      "inputs": [
        {
          "internalType": "address",
          "name": "_l1Addr",
          "type": "address"
        },
        {
          "internalType": "address",
          "name": "_l2Addr",
          "type": "address"
        },
        {
          "internalType": "bytes",
          "name": "_sig",
          "type": "bytes"
        },
        {
          "internalType": "uint256",
          "name": "_maxGas",
          "type": "uint256"
        },
        {
          "internalType": "uint256",
          "name": "_gasPriceBid",
          "type": "uint256"
        },
        {
          "internalType": "uint256",
          "name": "_maxSubmissionCost",
          "type": "uint256"
        }
      ],
      "name": "migrateSender",
      "outputs": [],
      "stateMutability": "payable",
      "type": "function"
    },
    {
      "inputs": [
        {
          "internalType": "address",
          "name": "_l1Addr",
          "type": "address"
        },
        {
          "internalType": "address",
          "name": "_l2Addr",
          "type": "address"
        },
        {
          "internalType": "uint256[]",
          "name": "_unbondingLockIds",
          "type": "uint256[]"
        },
        {
          "internalType": "bytes",
          "name": "_sig",
          "type": "bytes"
        },
        {
          "internalType": "uint256",
          "name": "_maxGas",
          "type": "uint256"
        },
        {
          "internalType": "uint256",
          "name": "_gasPriceBid",
          "type": "uint256"
        },
        {
          "internalType": "uint256",
          "name": "_maxSubmissionCost",
          "type": "uint256"
        }
      ],
      "name": "migrateUnbondingLocks",
      "outputs": [],
      "stateMutability": "payable",
      "type": "function"
    },
    {
      "inputs": [],
      "name": "ticketBrokerAddr",
      "outputs": [
        {
          "internalType": "address",
          "name": "",
          "type": "address"
        }
      ],
      "stateMutability": "view",
      "type": "function"
    }
  ],
  "transactionHash": "0xc425593335061b5bb18bf01cd08d8cbcca1dec6007d8f6eca91051a3cbc0bd69",
  "args": [
    "0x578BAde599406A8fE3d24Fd7f7211c0911F5B29e",
    "0xf71b1fb1bd297ddb4e92c9ab89d5f57ffcc899f9",
    "0x940D5630bBc300cCCF4BEaBAFfC300F7787d5b1f",
    "0x4547918C363f5d6452b77c6233c70F31Ae41b613"
  ],
  "solcInputHash": "182aeea627bf4c7935fdc9302b192bd9",
  "bytecode": "0x6101a06040523480156200001257600080fd5b5060405162002dc038038062002dc0833981810160405281019062000038919062000260565b6040518060400160405280601381526020017f4c69766570656572204c314d69677261746f72000000000000000000000000008152506040518060400160405280600181526020017f3100000000000000000000000000000000000000000000000000000000000000815250858073ffffffffffffffffffffffffffffffffffffffff1660808173ffffffffffffffffffffffffffffffffffffffff1660601b815250505060008280519060200120905060008280519060200120905060007f8b73c3c69bb8fe3d512ecc4cf759cc79239f7b179b0ffacaa9a75d522b39400f90508260e081815250508161010081815250504660c08181525050620001468184846200020d60201b60201c565b60a0818152505080610120818152505050505050508273ffffffffffffffffffffffffffffffffffffffff166101408173ffffffffffffffffffffffffffffffffffffffff1660601b815250508173ffffffffffffffffffffffffffffffffffffffff166101608173ffffffffffffffffffffffffffffffffffffffff1660601b815250508073ffffffffffffffffffffffffffffffffffffffff166101808173ffffffffffffffffffffffffffffffffffffffff1660601b8152505050505050620003be565b600083838346306040516020016200022a959493929190620002ff565b6040516020818303038152906040528051906020012090509392505050565b6000815190506200025a81620003a4565b92915050565b600080600080608085870312156200027757600080fd5b6000620002878782880162000249565b94505060206200029a8782880162000249565b9350506040620002ad8782880162000249565b9250506060620002c08782880162000249565b91505092959194509250565b620002d7816200035c565b82525050565b620002e88162000370565b82525050565b620002f9816200039a565b82525050565b600060a082019050620003166000830188620002dd565b620003256020830187620002dd565b620003346040830186620002dd565b620003436060830185620002ee565b620003526080830184620002cc565b9695505050505050565b600062000369826200037a565b9050919050565b6000819050919050565b600073ffffffffffffffffffffffffffffffffffffffff82169050919050565b6000819050919050565b620003af816200035c565b8114620003bb57600080fd5b50565b60805160601c60a05160c05160e05161010051610120516101405160601c6101605160601c6101805160601c6129546200046c6000396000818161032a015281816108e001528181610b0c0152610b9c01526000818161095001526109800152600081816103a8015281816106810152610c0c01526000610f7601526000610fb801526000610f9701526000610f2301526000610f4b015260008181610c300152610d7a01526129546000f3fe6080604052600436106100915760003560e01c80639ca228bc116100595780639ca228bc14610175578063de1ec2d6146101b3578063e40309ca146101de578063e89320e5146101fa578063fb0e722b1461022557610091565b806328293d5114610096578063329b114e146100b257806336e9feb9146100f057806378da35741461012e5780638f2c17ed1461014a575b600080fd5b6100b060048036038101906100ab919061190e565b610250565b005b3480156100be57600080fd5b506100d960048036038101906100d491906118d2565b61039a565b6040516100e792919061225d565b60405180910390f35b3480156100fc57600080fd5b50610117600480360381019061011291906119e0565b610673565b6040516101259291906122bd565b60405180910390f35b61014860048036038101906101439190611a47565b610872565b005b34801561015657600080fd5b5061015f61094e565b60405161016c9190612035565b60405180910390f35b34801561018157600080fd5b5061019c600480360381019061019791906118d2565b610972565b6040516101aa92919061228d565b60405180910390f35b3480156101bf57600080fd5b506101c8610b0a565b6040516101d59190612035565b60405180910390f35b6101f860048036038101906101f39190611a47565b610b2e565b005b34801561020657600080fd5b5061020f610c0a565b60405161021c9190612035565b60405180910390f35b34801561023157600080fd5b5061023a610c2e565b60405161024791906122f4565b60405180910390f35b6102d088887f61aed36780e7480ed685cb5ea394df4fb8da267b9f97daeb24db6c660f7116978b8b8b8b60405160200161028b929190611fe5565b604051602081830303815290604052805190602001206040516020016102b4949392919061215e565b6040516020818303038152906040528051906020012087610c52565b60008061031f8a8a8a8a80806020026020016040519081016040528093929190818152602001838360200280828437600081840152601f19601f82011690508083019250505050505050610673565b9150915060006103537f00000000000000000000000000000000000000000000000000000000000000008b86898988610d75565b9050807f866b95b17eb8769a4c75462bd9ce7c2f12ba80be2b0d459669a7a2a624e06444836040516103859190612405565b60405180910390a25050505050505050505050565b60606103a461157e565b60007f0000000000000000000000000000000000000000000000000000000000000000905060008173ffffffffffffffffffffffffffffffffffffffff16639d0b2c7a8760006040518363ffffffff1660e01b8152600401610407929190612050565b60206040518083038186803b15801561041f57600080fd5b505afa158015610433573d6000803e3d6000fd5b505050506040513d601f19601f820116820180604052508101906104579190611b24565b905060008273ffffffffffffffffffffffffffffffffffffffff1663f595f1cc8860006040518363ffffffff1660e01b8152600401610497929190612050565b60206040518083038186803b1580156104af57600080fd5b505afa1580156104c3573d6000803e3d6000fd5b505050506040513d601f19601f820116820180604052508101906104e79190611b24565b90506000808473ffffffffffffffffffffffffffffffffffffffff1663a64ad5958a6040518263ffffffff1660e01b81526004016105259190612035565b60e06040518083038186803b15801561053d57600080fd5b505afa158015610551573d6000803e3d6000fd5b505050506040513d601f19601f820116820180604052508101906105759190611b89565b5050509350935050506040518060c001604052808a73ffffffffffffffffffffffffffffffffffffffff1681526020018973ffffffffffffffffffffffffffffffffffffffff1681526020018581526020018281526020018481526020018373ffffffffffffffffffffffffffffffffffffffff168152509550631a0725d860e01b8660405160240161060891906123cf565b604051602081830303815290604052907bffffffffffffffffffffffffffffffffffffffffffffffffffffffff19166020820180517bffffffffffffffffffffffffffffffffffffffffffffffffffffffff8381831617835250505050965050505050509250929050565b606061067d6115f6565b60007f000000000000000000000000000000000000000000000000000000000000000090506000805b85518110156107a05760008373ffffffffffffffffffffffffffffffffffffffff1663412f83b68a898581518110610707577f4e487b7100000000000000000000000000000000000000000000000000000000600052603260045260246000fd5b60200260200101516040518363ffffffff1660e01b815260040161072c9291906120fe565b604080518083038186803b15801561074357600080fd5b505afa158015610757573d6000803e3d6000fd5b505050506040513d601f19601f8201168201806040525081019061077b9190611b4d565b509050808361078a9190612525565b925050808061079890612677565b9150506106a6565b5060405180608001604052808873ffffffffffffffffffffffffffffffffffffffff1681526020018773ffffffffffffffffffffffffffffffffffffffff168152602001828152602001868152509250637164394560e01b836040516024016108099190612405565b604051602081830303815290604052907bffffffffffffffffffffffffffffffffffffffffffffffffffffffff19166020820180517bffffffffffffffffffffffffffffffffffffffffffffffffffffffff838183161783525050505093505050935093915050565b6108c886867f0988862b47ed3bbfb4a6ca37401c7f403b193459aeac85ae89b67007a66b7a8f89896040516020016108ac93929190612127565b6040516020818303038152906040528051906020012087610c52565b6000806108d5888861039a565b9150915060006109097f00000000000000000000000000000000000000000000000000000000000000008986898988610d75565b9050807f5dde64de6b2af2aa82b195f67a162a4f870e84c1416562735f6653c614a099eb8360405161093b91906123cf565b60405180910390a2505050505050505050565b7f000000000000000000000000000000000000000000000000000000000000000081565b606061097c61164a565b60007f000000000000000000000000000000000000000000000000000000000000000090506000808273ffffffffffffffffffffffffffffffffffffffff1663e1a589da886040518263ffffffff1660e01b81526004016109dd9190612035565b60806040518083038186803b1580156109f557600080fd5b505afa158015610a09573d6000803e3d6000fd5b505050506040513d601f19601f82011682018060405250810190610a2d9190611ae8565b9150915060405180608001604052808873ffffffffffffffffffffffffffffffffffffffff1681526020018773ffffffffffffffffffffffffffffffffffffffff168152602001836000015181526020018260000151815250935063b3f5ccae60e01b84604051602401610aa191906123ea565b604051602081830303815290604052907bffffffffffffffffffffffffffffffffffffffffffffffffffffffff19166020820180517bffffffffffffffffffffffffffffffffffffffffffffffffffffffff838183161783525050505094505050509250929050565b7f000000000000000000000000000000000000000000000000000000000000000081565b610b8486867f028d23c953a67a525f843967e7e61f06d72d4a0aed8e3133159bee065e32f81f8989604051602001610b6893929190612127565b6040516020818303038152906040528051906020012087610c52565b600080610b918888610972565b915091506000610bc57f00000000000000000000000000000000000000000000000000000000000000008986898988610d75565b9050807f53a728d7c49e850e9b34c39a448454863a6fbfc7afe9fbaf257f9dd5fd1663b383604051610bf791906123ea565b60405180910390a2505050505050505050565b7f000000000000000000000000000000000000000000000000000000000000000081565b7f000000000000000000000000000000000000000000000000000000000000000081565b600073ffffffffffffffffffffffffffffffffffffffff168373ffffffffffffffffffffffffffffffffffffffff161415610cc2576040517f08c379a0000000000000000000000000000000000000000000000000000000008152600401610cb99061234f565b60405180910390fd5b8373ffffffffffffffffffffffffffffffffffffffff163373ffffffffffffffffffffffffffffffffffffffff161480610d3057508373ffffffffffffffffffffffffffffffffffffffff16610d188383610ea9565b73ffffffffffffffffffffffffffffffffffffffff16145b610d6f576040517f08c379a0000000000000000000000000000000000000000000000000000000008152600401610d669061238f565b60405180910390fd5b50505050565b6000807f000000000000000000000000000000000000000000000000000000000000000073ffffffffffffffffffffffffffffffffffffffff1663679b6ded348a60008a8c8d8c8c8c6040518a63ffffffff1660e01b8152600401610de1989796959493929190612079565b6020604051808303818588803b158015610dfa57600080fd5b505af1158015610e0e573d6000803e3d6000fd5b50505050506040513d601f19601f82011682018060405250810190610e339190611b24565b9050808873ffffffffffffffffffffffffffffffffffffffff168873ffffffffffffffffffffffffffffffffffffffff167fc1d1490cf25c3b40d600dfb27c7680340ed1ab901b7e8f3551280968a3b372b086604051610e93919061223b565b60405180910390a4809150509695505050505050565b60008082511415610ebd5760009050610ed8565b6000610ec884610ede565b9050610ed48184610ef8565b9150505b92915050565b6000610ef1610eeb610f1f565b83610fe2565b9050919050565b6000806000610f078585611015565b91509150610f1481611098565b819250505092915050565b60007f0000000000000000000000000000000000000000000000000000000000000000461415610f71577f00000000000000000000000000000000000000000000000000000000000000009050610fdf565b610fdc7f00000000000000000000000000000000000000000000000000000000000000007f00000000000000000000000000000000000000000000000000000000000000007f00000000000000000000000000000000000000000000000000000000000000006113e9565b90505b90565b60008282604051602001610ff7929190611ffe565b60405160208183030381529060405280519060200120905092915050565b6000806041835114156110575760008060006020860151925060408601519150606086015160001a905061104b87828585611423565b94509450505050611091565b60408351141561108857600080602085015191506040850151905061107d868383611530565b935093505050611091565b60006002915091505b9250929050565b600060048111156110d2577f4e487b7100000000000000000000000000000000000000000000000000000000600052602160045260246000fd5b81600481111561110b577f4e487b7100000000000000000000000000000000000000000000000000000000600052602160045260246000fd5b1415611116576113e6565b60016004811115611150577f4e487b7100000000000000000000000000000000000000000000000000000000600052602160045260246000fd5b816004811115611189577f4e487b7100000000000000000000000000000000000000000000000000000000600052602160045260246000fd5b14156111ca576040517f08c379a00000000000000000000000000000000000000000000000000000000081526004016111c19061230f565b60405180910390fd5b60026004811115611204577f4e487b7100000000000000000000000000000000000000000000000000000000600052602160045260246000fd5b81600481111561123d577f4e487b7100000000000000000000000000000000000000000000000000000000600052602160045260246000fd5b141561127e576040517f08c379a00000000000000000000000000000000000000000000000000000000081526004016112759061232f565b60405180910390fd5b600360048111156112b8577f4e487b7100000000000000000000000000000000000000000000000000000000600052602160045260246000fd5b8160048111156112f1577f4e487b7100000000000000000000000000000000000000000000000000000000600052602160045260246000fd5b1415611332576040517f08c379a00000000000000000000000000000000000000000000000000000000081526004016113299061236f565b60405180910390fd5b60048081111561136b577f4e487b7100000000000000000000000000000000000000000000000000000000600052602160045260246000fd5b8160048111156113a4577f4e487b7100000000000000000000000000000000000000000000000000000000600052602160045260246000fd5b14156113e5576040517f08c379a00000000000000000000000000000000000000000000000000000000081526004016113dc906123af565b60405180910390fd5b5b50565b600083838346306040516020016114049594939291906121a3565b6040516020818303038152906040528051906020012090509392505050565b6000807f7fffffffffffffffffffffffffffffff5d576e7357a4501ddfe92f46681b20a08360001c111561145e576000600391509150611527565b601b8560ff16141580156114765750601c8560ff1614155b15611488576000600491509150611527565b6000600187878787604051600081526020016040526040516114ad94939291906121f6565b6020604051602081039080840390855afa1580156114cf573d6000803e3d6000fd5b505050602060405103519050600073ffffffffffffffffffffffffffffffffffffffff168173ffffffffffffffffffffffffffffffffffffffff16141561151e57600060019250925050611527565b80600092509250505b94509492505050565b6000806000807f7fffffffffffffffffffffffffffffffffffffffffffffffffffffffffffffff85169150601b8560ff1c01905061157087828885611423565b935093505050935093915050565b6040518060c00160405280600073ffffffffffffffffffffffffffffffffffffffff168152602001600073ffffffffffffffffffffffffffffffffffffffff168152602001600081526020016000815260200160008152602001600073ffffffffffffffffffffffffffffffffffffffff1681525090565b6040518060800160405280600073ffffffffffffffffffffffffffffffffffffffff168152602001600073ffffffffffffffffffffffffffffffffffffffff16815260200160008152602001606081525090565b6040518060800160405280600073ffffffffffffffffffffffffffffffffffffffff168152602001600073ffffffffffffffffffffffffffffffffffffffff16815260200160008152602001600081525090565b60006116b16116ac8461244c565b612427565b905080838252602082019050828560208602820111156116d057600080fd5b60005b8581101561170057816116e688826118a8565b8452602084019350602083019250506001810190506116d3565b5050509392505050565b600061171d61171884612478565b612427565b90508281526020810184848401111561173557600080fd5b611740848285612604565b509392505050565b600081359050611757816128f0565b92915050565b60008151905061176c816128f0565b92915050565b60008083601f84011261178457600080fd5b8235905067ffffffffffffffff81111561179d57600080fd5b6020830191508360208202830111156117b557600080fd5b9250929050565b600082601f8301126117cd57600080fd5b81356117dd84826020860161169e565b91505092915050565b600082601f8301126117f757600080fd5b813561180784826020860161170a565b91505092915050565b60006040828403121561182257600080fd5b61182c6040612427565b9050600061183c848285016118bd565b6000830152506020611850848285016118bd565b60208301525092915050565b60006040828403121561186e57600080fd5b6118786040612427565b90506000611888848285016118bd565b600083015250602061189c848285016118bd565b60208301525092915050565b6000813590506118b781612907565b92915050565b6000815190506118cc81612907565b92915050565b600080604083850312156118e557600080fd5b60006118f385828601611748565b925050602061190485828601611748565b9150509250929050565b60008060008060008060008060e0898b03121561192a57600080fd5b60006119388b828c01611748565b98505060206119498b828c01611748565b975050604089013567ffffffffffffffff81111561196657600080fd5b6119728b828c01611772565b9650965050606089013567ffffffffffffffff81111561199157600080fd5b61199d8b828c016117e6565b94505060806119ae8b828c016118a8565b93505060a06119bf8b828c016118a8565b92505060c06119d08b828c016118a8565b9150509295985092959890939650565b6000806000606084860312156119f557600080fd5b6000611a0386828701611748565b9350506020611a1486828701611748565b925050604084013567ffffffffffffffff811115611a3157600080fd5b611a3d868287016117bc565b9150509250925092565b60008060008060008060c08789031215611a6057600080fd5b6000611a6e89828a01611748565b9650506020611a7f89828a01611748565b955050604087013567ffffffffffffffff811115611a9c57600080fd5b611aa889828a016117e6565b9450506060611ab989828a016118a8565b9350506080611aca89828a016118a8565b92505060a0611adb89828a016118a8565b9150509295509295509295565b60008060808385031215611afb57600080fd5b6000611b098582860161185c565b9250506040611b1a85828601611810565b9150509250929050565b600060208284031215611b3657600080fd5b6000611b44848285016118bd565b91505092915050565b60008060408385031215611b6057600080fd5b6000611b6e858286016118bd565b9250506020611b7f858286016118bd565b9150509250929050565b600080600080600080600060e0888a031215611ba457600080fd5b6000611bb28a828b016118bd565b9750506020611bc38a828b016118bd565b9650506040611bd48a828b0161175d565b9550506060611be58a828b016118bd565b9450506080611bf68a828b016118bd565b93505060a0611c078a828b016118bd565b92505060c0611c188a828b016118bd565b91505092959891949750929550565b6000611c338383611fb8565b60208301905092915050565b611c488161257b565b82525050565b611c578161257b565b82525050565b6000611c6983856124ed565b93507f07ffffffffffffffffffffffffffffffffffffffffffffffffffffffffffffff831115611c9857600080fd5b602083029250611ca9838584612604565b82840190509392505050565b6000611cc0826124b9565b611cca81856124dc565b9350611cd5836124a9565b8060005b83811015611d06578151611ced8882611c27565b9750611cf8836124cf565b925050600181019050611cd9565b5085935050505092915050565b611d1c8161258d565b82525050565b611d33611d2e8261258d565b6126c0565b82525050565b6000611d44826124c4565b611d4e81856124f8565b9350611d5e818560208601612613565b611d6781612728565b840191505092915050565b611d7b816125ce565b82525050565b611d8a816125f2565b82525050565b6000611d9d601883612509565b9150611da882612739565b602082019050919050565b6000611dc0601f83612509565b9150611dcb82612762565b602082019050919050565b6000611de3603183612509565b9150611dee8261278b565b604082019050919050565b6000611e0660028361251a565b9150611e11826127da565b600282019050919050565b6000611e29602283612509565b9150611e3482612803565b604082019050919050565b6000611e4c602b83612509565b9150611e5782612852565b604082019050919050565b6000611e6f602283612509565b9150611e7a826128a1565b604082019050919050565b60c082016000820151611e9b6000850182611c3f565b506020820151611eae6020850182611c3f565b506040820151611ec16040850182611fb8565b506060820151611ed46060850182611fb8565b506080820151611ee76080850182611fb8565b5060a0820151611efa60a0850182611c3f565b50505050565b608082016000820151611f166000850182611c3f565b506020820151611f296020850182611c3f565b506040820151611f3c6040850182611fb8565b506060820151611f4f6060850182611fb8565b50505050565b6000608083016000830151611f6d6000860182611c3f565b506020830151611f806020860182611c3f565b506040830151611f936040860182611fb8565b5060608301518482036060860152611fab8282611cb5565b9150508091505092915050565b611fc1816125b7565b82525050565b611fd0816125b7565b82525050565b611fdf816125c1565b82525050565b6000611ff2828486611c5d565b91508190509392505050565b600061200982611df9565b91506120158285611d22565b6020820191506120258284611d22565b6020820191508190509392505050565b600060208201905061204a6000830184611c4e565b92915050565b60006040820190506120656000830185611c4e565b6120726020830184611d81565b9392505050565b60006101008201905061208f600083018b611c4e565b61209c602083018a611d81565b6120a96040830189611fc7565b6120b66060830188611c4e565b6120c36080830187611c4e565b6120d060a0830186611fc7565b6120dd60c0830185611fc7565b81810360e08301526120ef8184611d39565b90509998505050505050505050565b60006040820190506121136000830185611c4e565b6121206020830184611fc7565b9392505050565b600060608201905061213c6000830186611d13565b6121496020830185611c4e565b6121566040830184611c4e565b949350505050565b60006080820190506121736000830187611d13565b6121806020830186611c4e565b61218d6040830185611c4e565b61219a6060830184611d13565b95945050505050565b600060a0820190506121b86000830188611d13565b6121c56020830187611d13565b6121d26040830186611d13565b6121df6060830185611fc7565b6121ec6080830184611c4e565b9695505050505050565b600060808201905061220b6000830187611d13565b6122186020830186611fd6565b6122256040830185611d13565b6122326060830184611d13565b95945050505050565b600060208201905081810360008301526122558184611d39565b905092915050565b600060e08201905081810360008301526122778185611d39565b90506122866020830184611e85565b9392505050565b600060a08201905081810360008301526122a78185611d39565b90506122b66020830184611f00565b9392505050565b600060408201905081810360008301526122d78185611d39565b905081810360208301526122eb8184611f55565b90509392505050565b60006020820190506123096000830184611d72565b92915050565b6000602082019050818103600083015261232881611d90565b9050919050565b6000602082019050818103600083015261234881611db3565b9050919050565b6000602082019050818103600083015261236881611dd6565b9050919050565b6000602082019050818103600083015261238881611e1c565b9050919050565b600060208201905081810360008301526123a881611e3f565b9050919050565b600060208201905081810360008301526123c881611e62565b9050919050565b600060c0820190506123e46000830184611e85565b92915050565b60006080820190506123ff6000830184611f00565b92915050565b6000602082019050818103600083015261241f8184611f55565b905092915050565b6000612431612442565b905061243d8282612646565b919050565b6000604051905090565b600067ffffffffffffffff821115612467576124666126f9565b5b602082029050602081019050919050565b600067ffffffffffffffff821115612493576124926126f9565b5b61249c82612728565b9050602081019050919050565b6000819050602082019050919050565b600081519050919050565b600081519050919050565b6000602082019050919050565b600082825260208201905092915050565b600081905092915050565b600082825260208201905092915050565b600082825260208201905092915050565b600081905092915050565b6000612530826125b7565b915061253b836125b7565b9250827fffffffffffffffffffffffffffffffffffffffffffffffffffffffffffffffff038211156125705761256f6126ca565b5b828201905092915050565b600061258682612597565b9050919050565b6000819050919050565b600073ffffffffffffffffffffffffffffffffffffffff82169050919050565b6000819050919050565b600060ff82169050919050565b60006125d9826125e0565b9050919050565b60006125eb82612597565b9050919050565b60006125fd826125b7565b9050919050565b82818337600083830152505050565b60005b83811015612631578082015181840152602081019050612616565b83811115612640576000848401525b50505050565b61264f82612728565b810181811067ffffffffffffffff8211171561266e5761266d6126f9565b5b80604052505050565b6000612682826125b7565b91507fffffffffffffffffffffffffffffffffffffffffffffffffffffffffffffffff8214156126b5576126b46126ca565b5b600182019050919050565b6000819050919050565b7f4e487b7100000000000000000000000000000000000000000000000000000000600052601160045260246000fd5b7f4e487b7100000000000000000000000000000000000000000000000000000000600052604160045260246000fd5b6000601f19601f8301169050919050565b7f45434453413a20696e76616c6964207369676e61747572650000000000000000600082015250565b7f45434453413a20696e76616c6964207369676e6174757265206c656e67746800600082015250565b7f4c314d69677261746f72237265717569726556616c69644d6967726174696f6e60008201527f3a20494e56414c49445f4c325f41444452000000000000000000000000000000602082015250565b7f1901000000000000000000000000000000000000000000000000000000000000600082015250565b7f45434453413a20696e76616c6964207369676e6174757265202773272076616c60008201527f7565000000000000000000000000000000000000000000000000000000000000602082015250565b7f4c314d69677261746f72237265717569726556616c69644d6967726174696f6e60008201527f3a204641494c5f41555448000000000000000000000000000000000000000000602082015250565b7f45434453413a20696e76616c6964207369676e6174757265202776272076616c60008201527f7565000000000000000000000000000000000000000000000000000000000000602082015250565b6128f98161257b565b811461290457600080fd5b50565b612910816125b7565b811461291b57600080fd5b5056fea2646970667358221220790eda0ef8abba0a5905d2712e35e67ff869d199b3ed5024a8786f02708ed27e64736f6c63430008040033",
  "devdoc": {
    "kind": "dev",
    "methods": {},
    "version": 1
  },
  "userdoc": {
    "kind": "user",
    "methods": {},
    "version": 1
  },
  "storageLayout": {
    "storage": [],
    "types": null
  }
}