{
  "address": "0x148D9a919977B392E3a3c309Aa23481e68D2e502",
  "abi": [
    {
      "inputs": [],
      "stateMutability": "nonpayable",
      "type": "constructor"
    },
    {
      "anonymous": false,
      "inputs": [
        {
          "indexed": true,
          "internalType": "address",
          "name": "owner",
          "type": "address"
        },
        {
          "indexed": true,
          "internalType": "address",
          "name": "spender",
          "type": "address"
        },
        {
          "indexed": false,
          "internalType": "uint256",
          "name": "value",
          "type": "uint256"
        }
      ],
      "name": "Approval",
      "type": "event"
    },
    {
      "anonymous": false,
      "inputs": [
        {
          "indexed": true,
          "internalType": "address",
          "name": "burner",
          "type": "address"
        },
        {
          "indexed": false,
          "internalType": "uint256",
          "name": "amount",
          "type": "uint256"
        }
      ],
      "name": "Burn",
      "type": "event"
    },
    {
      "anonymous": false,
      "inputs": [
        {
          "indexed": true,
          "internalType": "address",
          "name": "to",
          "type": "address"
        },
        {
          "indexed": false,
          "internalType": "uint256",
          "name": "amount",
          "type": "uint256"
        }
      ],
      "name": "Mint",
      "type": "event"
    },
    {
      "anonymous": false,
      "inputs": [
        {
          "indexed": true,
          "internalType": "bytes32",
          "name": "role",
          "type": "bytes32"
        },
        {
          "indexed": true,
          "internalType": "bytes32",
          "name": "previousAdminRole",
          "type": "bytes32"
        },
        {
          "indexed": true,
          "internalType": "bytes32",
          "name": "newAdminRole",
          "type": "bytes32"
        }
      ],
      "name": "RoleAdminChanged",
      "type": "event"
    },
    {
      "anonymous": false,
      "inputs": [
        {
          "indexed": true,
          "internalType": "bytes32",
          "name": "role",
          "type": "bytes32"
        },
        {
          "indexed": true,
          "internalType": "address",
          "name": "account",
          "type": "address"
        },
        {
          "indexed": true,
          "internalType": "address",
          "name": "sender",
          "type": "address"
        }
      ],
      "name": "RoleGranted",
      "type": "event"
    },
    {
      "anonymous": false,
      "inputs": [
        {
          "indexed": true,
          "internalType": "bytes32",
          "name": "role",
          "type": "bytes32"
        },
        {
          "indexed": true,
          "internalType": "address",
          "name": "account",
          "type": "address"
        },
        {
          "indexed": true,
          "internalType": "address",
          "name": "sender",
          "type": "address"
        }
      ],
      "name": "RoleRevoked",
      "type": "event"
    },
    {
      "anonymous": false,
      "inputs": [
        {
          "indexed": true,
          "internalType": "address",
          "name": "from",
          "type": "address"
        },
        {
          "indexed": true,
          "internalType": "address",
          "name": "to",
          "type": "address"
        },
        {
          "indexed": false,
          "internalType": "uint256",
          "name": "value",
          "type": "uint256"
        }
      ],
      "name": "Transfer",
      "type": "event"
    },
    {
      "inputs": [],
      "name": "BURNER_ROLE",
      "outputs": [
        {
          "internalType": "bytes32",
          "name": "",
          "type": "bytes32"
        }
      ],
      "stateMutability": "view",
      "type": "function"
    },
    {
      "inputs": [],
      "name": "DEFAULT_ADMIN_ROLE",
      "outputs": [
        {
          "internalType": "bytes32",
          "name": "",
          "type": "bytes32"
        }
      ],
      "stateMutability": "view",
      "type": "function"
    },
    {
      "inputs": [],
      "name": "DOMAIN_SEPARATOR",
      "outputs": [
        {
          "internalType": "bytes32",
          "name": "",
          "type": "bytes32"
        }
      ],
      "stateMutability": "view",
      "type": "function"
    },
    {
      "inputs": [],
      "name": "MINTER_ROLE",
      "outputs": [
        {
          "internalType": "bytes32",
          "name": "",
          "type": "bytes32"
        }
      ],
      "stateMutability": "view",
      "type": "function"
    },
    {
      "inputs": [
        {
          "internalType": "address",
          "name": "owner",
          "type": "address"
        },
        {
          "internalType": "address",
          "name": "spender",
          "type": "address"
        }
      ],
      "name": "allowance",
      "outputs": [
        {
          "internalType": "uint256",
          "name": "",
          "type": "uint256"
        }
      ],
      "stateMutability": "view",
      "type": "function"
    },
    {
      "inputs": [
        {
          "internalType": "address",
          "name": "spender",
          "type": "address"
        },
        {
          "internalType": "uint256",
          "name": "amount",
          "type": "uint256"
        }
      ],
      "name": "approve",
      "outputs": [
        {
          "internalType": "bool",
          "name": "",
          "type": "bool"
        }
      ],
      "stateMutability": "nonpayable",
      "type": "function"
    },
    {
      "inputs": [
        {
          "internalType": "address",
          "name": "account",
          "type": "address"
        }
      ],
      "name": "balanceOf",
      "outputs": [
        {
          "internalType": "uint256",
          "name": "",
          "type": "uint256"
        }
      ],
      "stateMutability": "view",
      "type": "function"
    },
    {
      "inputs": [
        {
          "internalType": "address",
          "name": "_from",
          "type": "address"
        },
        {
          "internalType": "uint256",
          "name": "_amount",
          "type": "uint256"
        }
      ],
      "name": "burn",
      "outputs": [],
      "stateMutability": "nonpayable",
      "type": "function"
    },
    {
      "inputs": [],
      "name": "decimals",
      "outputs": [
        {
          "internalType": "uint8",
          "name": "",
          "type": "uint8"
        }
      ],
      "stateMutability": "view",
      "type": "function"
    },
    {
      "inputs": [
        {
          "internalType": "address",
          "name": "spender",
          "type": "address"
        },
        {
          "internalType": "uint256",
          "name": "subtractedValue",
          "type": "uint256"
        }
      ],
      "name": "decreaseAllowance",
      "outputs": [
        {
          "internalType": "bool",
          "name": "",
          "type": "bool"
        }
      ],
      "stateMutability": "nonpayable",
      "type": "function"
    },
    {
      "inputs": [
        {
          "internalType": "bytes32",
          "name": "role",
          "type": "bytes32"
        }
      ],
      "name": "getRoleAdmin",
      "outputs": [
        {
          "internalType": "bytes32",
          "name": "",
          "type": "bytes32"
        }
      ],
      "stateMutability": "view",
      "type": "function"
    },
    {
      "inputs": [
        {
          "internalType": "bytes32",
          "name": "role",
          "type": "bytes32"
        },
        {
          "internalType": "address",
          "name": "account",
          "type": "address"
        }
      ],
      "name": "grantRole",
      "outputs": [],
      "stateMutability": "nonpayable",
      "type": "function"
    },
    {
      "inputs": [
        {
          "internalType": "bytes32",
          "name": "role",
          "type": "bytes32"
        },
        {
          "internalType": "address",
          "name": "account",
          "type": "address"
        }
      ],
      "name": "hasRole",
      "outputs": [
        {
          "internalType": "bool",
          "name": "",
          "type": "bool"
        }
      ],
      "stateMutability": "view",
      "type": "function"
    },
    {
      "inputs": [
        {
          "internalType": "address",
          "name": "spender",
          "type": "address"
        },
        {
          "internalType": "uint256",
          "name": "addedValue",
          "type": "uint256"
        }
      ],
      "name": "increaseAllowance",
      "outputs": [
        {
          "internalType": "bool",
          "name": "",
          "type": "bool"
        }
      ],
      "stateMutability": "nonpayable",
      "type": "function"
    },
    {
      "inputs": [
        {
          "internalType": "address",
          "name": "_to",
          "type": "address"
        },
        {
          "internalType": "uint256",
          "name": "_amount",
          "type": "uint256"
        }
      ],
      "name": "mint",
      "outputs": [],
      "stateMutability": "nonpayable",
      "type": "function"
    },
    {
      "inputs": [],
      "name": "name",
      "outputs": [
        {
          "internalType": "string",
          "name": "",
          "type": "string"
        }
      ],
      "stateMutability": "view",
      "type": "function"
    },
    {
      "inputs": [
        {
          "internalType": "address",
          "name": "owner",
          "type": "address"
        }
      ],
      "name": "nonces",
      "outputs": [
        {
          "internalType": "uint256",
          "name": "",
          "type": "uint256"
        }
      ],
      "stateMutability": "view",
      "type": "function"
    },
    {
      "inputs": [
        {
          "internalType": "address",
          "name": "owner",
          "type": "address"
        },
        {
          "internalType": "address",
          "name": "spender",
          "type": "address"
        },
        {
          "internalType": "uint256",
          "name": "value",
          "type": "uint256"
        },
        {
          "internalType": "uint256",
          "name": "deadline",
          "type": "uint256"
        },
        {
          "internalType": "uint8",
          "name": "v",
          "type": "uint8"
        },
        {
          "internalType": "bytes32",
          "name": "r",
          "type": "bytes32"
        },
        {
          "internalType": "bytes32",
          "name": "s",
          "type": "bytes32"
        }
      ],
      "name": "permit",
      "outputs": [],
      "stateMutability": "nonpayable",
      "type": "function"
    },
    {
      "inputs": [
        {
          "internalType": "bytes32",
          "name": "role",
          "type": "bytes32"
        },
        {
          "internalType": "address",
          "name": "account",
          "type": "address"
        }
      ],
      "name": "renounceRole",
      "outputs": [],
      "stateMutability": "nonpayable",
      "type": "function"
    },
    {
      "inputs": [
        {
          "internalType": "bytes32",
          "name": "role",
          "type": "bytes32"
        },
        {
          "internalType": "address",
          "name": "account",
          "type": "address"
        }
      ],
      "name": "revokeRole",
      "outputs": [],
      "stateMutability": "nonpayable",
      "type": "function"
    },
    {
      "inputs": [
        {
          "internalType": "bytes4",
          "name": "interfaceId",
          "type": "bytes4"
        }
      ],
      "name": "supportsInterface",
      "outputs": [
        {
          "internalType": "bool",
          "name": "",
          "type": "bool"
        }
      ],
      "stateMutability": "view",
      "type": "function"
    },
    {
      "inputs": [],
      "name": "symbol",
      "outputs": [
        {
          "internalType": "string",
          "name": "",
          "type": "string"
        }
      ],
      "stateMutability": "view",
      "type": "function"
    },
    {
      "inputs": [],
      "name": "totalSupply",
      "outputs": [
        {
          "internalType": "uint256",
          "name": "",
          "type": "uint256"
        }
      ],
      "stateMutability": "view",
      "type": "function"
    },
    {
      "inputs": [
        {
          "internalType": "address",
          "name": "recipient",
          "type": "address"
        },
        {
          "internalType": "uint256",
          "name": "amount",
          "type": "uint256"
        }
      ],
      "name": "transfer",
      "outputs": [
        {
          "internalType": "bool",
          "name": "",
          "type": "bool"
        }
      ],
      "stateMutability": "nonpayable",
      "type": "function"
    },
    {
      "inputs": [
        {
          "internalType": "address",
          "name": "sender",
          "type": "address"
        },
        {
          "internalType": "address",
          "name": "recipient",
          "type": "address"
        },
        {
          "internalType": "uint256",
          "name": "amount",
          "type": "uint256"
        }
      ],
      "name": "transferFrom",
      "outputs": [
        {
          "internalType": "bool",
          "name": "",
          "type": "bool"
        }
      ],
      "stateMutability": "nonpayable",
      "type": "function"
    }
  ],
  "transactionHash": "0x0a277b0a91baa3fadbfeae5d5e5a838923fbb90a6eddc9cd71b0bcf58df1f000",
  "args": [],
  "solcInputHash": "32fd9971ac458e296f813f74fd73c046",
  "bytecode": "0x6101406040527f6e71edae12b1b97f4d1f60370fef10105fa2faae0126114a169c64845d6126c9610120908152503480156200003a57600080fd5b506040518060400160405280600e81526020017f4c6976657065657220546f6b656e000000000000000000000000000000000000815250806040518060400160405280600181526020017f31000000000000000000000000000000000000000000000000000000000000008152506040518060400160405280600e81526020017f4c6976657065657220546f6b656e0000000000000000000000000000000000008152506040518060400160405280600381526020017f4c5054000000000000000000000000000000000000000000000000000000000081525081600490805190602001906200012c92919062000491565b5080600590805190602001906200014592919062000491565b50505060008280519060200120905060008280519060200120905060007f8b73c3c69bb8fe3d512ecc4cf759cc79239f7b179b0ffacaa9a75d522b39400f90508260c081815250508160e081815250504660a08181525050620001b08184846200025a60201b60201c565b60808181525050806101008181525050505050505050620001ea6000801b620001de6200029660201b60201c565b6200029e60201b60201c565b6200021f7f9f2df0fed2c77648de5860a4cc508cd0818c85b8b8a1ab4ceeef8d981c8956a66000801b620002b460201b60201c565b620002547f3c11d16cbaffd01df69ce1c404f6340ee057498f5f00246190ea54220576a8486000801b620002b460201b60201c565b6200067e565b600083838346306040516020016200027795949392919062000574565b6040516020818303038152906040528051906020012090509392505050565b600033905090565b620002b082826200031760201b60201c565b5050565b6000620002c7836200040860201b60201c565b905081600080858152602001908152602001600020600101819055508181847fbd79b86ffe0ab8e8776151514217cd7cacd52c909f66475c3af44e129f0b00ff60405160405180910390a4505050565b6200032982826200042760201b60201c565b6200040457600160008084815260200190815260200160002060000160008373ffffffffffffffffffffffffffffffffffffffff1673ffffffffffffffffffffffffffffffffffffffff16815260200190815260200160002060006101000a81548160ff021916908315150217905550620003a96200029660201b60201c565b73ffffffffffffffffffffffffffffffffffffffff168173ffffffffffffffffffffffffffffffffffffffff16837f2f8788117e7eff1d82e926ec794901d17c78024a50270940304540a733656f0d60405160405180910390a45b5050565b6000806000838152602001908152602001600020600101549050919050565b600080600084815260200190815260200160002060000160008373ffffffffffffffffffffffffffffffffffffffff1673ffffffffffffffffffffffffffffffffffffffff16815260200190815260200160002060009054906101000a900460ff16905092915050565b8280546200049f9062000619565b90600052602060002090601f016020900481019282620004c357600085556200050f565b82601f10620004de57805160ff19168380011785556200050f565b828001600101855582156200050f579182015b828111156200050e578251825591602001919060010190620004f1565b5b5090506200051e919062000522565b5090565b5b808211156200053d57600081600090555060010162000523565b5090565b6200054c81620005d1565b82525050565b6200055d81620005e5565b82525050565b6200056e816200060f565b82525050565b600060a0820190506200058b600083018862000552565b6200059a602083018762000552565b620005a9604083018662000552565b620005b8606083018562000563565b620005c7608083018462000541565b9695505050505050565b6000620005de82620005ef565b9050919050565b6000819050919050565b600073ffffffffffffffffffffffffffffffffffffffff82169050919050565b6000819050919050565b600060028204905060018216806200063257607f821691505b602082108114156200064957620006486200064f565b5b50919050565b7f4e487b7100000000000000000000000000000000000000000000000000000000600052602260045260246000fd5b60805160a05160c05160e051610100516101205161355e620006ce6000396000610d090152600061156d015260006115af0152600061158e0152600061151a01526000611542015261355e6000f3fe608060405234801561001057600080fd5b50600436106101735760003560e01c806340c10f19116100de578063a217fddf11610097578063d505accf11610071578063d505accf1461049a578063d5391393146104b6578063d547741f146104d4578063dd62ed3e146104f057610173565b8063a217fddf1461041c578063a457c2d71461043a578063a9059cbb1461046a57610173565b806340c10f191461033657806370a08231146103525780637ecebe001461038257806391d14854146103b257806395d89b41146103e25780639dc29fac1461040057610173565b8063282c51f311610130578063282c51f3146102745780632f2ff15d14610292578063313ce567146102ae5780633644e515146102cc57806336568abe146102ea578063395093511461030657610173565b806301ffc9a71461017857806306fdde03146101a8578063095ea7b3146101c657806318160ddd146101f657806323b872dd14610214578063248a9ca314610244575b600080fd5b610192600480360381019061018d91906124e6565b610520565b60405161019f919061292b565b60405180910390f35b6101b061059a565b6040516101bd9190612a5a565b60405180910390f35b6101e060048036038101906101db9190612445565b61062c565b6040516101ed919061292b565b60405180910390f35b6101fe61064a565b60405161020b9190612cbc565b60405180910390f35b61022e60048036038101906102299190612358565b610654565b60405161023b919061292b565b60405180910390f35b61025e60048036038101906102599190612481565b61074c565b60405161026b9190612946565b60405180910390f35b61027c61076b565b6040516102899190612946565b60405180910390f35b6102ac60048036038101906102a791906124aa565b61078f565b005b6102b66107b8565b6040516102c39190612cd7565b60405180910390f35b6102d46107c1565b6040516102e19190612946565b60405180910390f35b61030460048036038101906102ff91906124aa565b6107d0565b005b610320600480360381019061031b9190612445565b610853565b60405161032d919061292b565b60405180910390f35b610350600480360381019061034b9190612445565b6108ff565b005b61036c600480360381019061036791906122f3565b61098e565b6040516103799190612cbc565b60405180910390f35b61039c600480360381019061039791906122f3565b6109d7565b6040516103a99190612cbc565b60405180910390f35b6103cc60048036038101906103c791906124aa565b610a27565b6040516103d9919061292b565b60405180910390f35b6103ea610a91565b6040516103f79190612a5a565b60405180910390f35b61041a60048036038101906104159190612445565b610b23565b005b610424610bb2565b6040516104319190612946565b60405180910390f35b610454600480360381019061044f9190612445565b610bb9565b604051610461919061292b565b60405180910390f35b610484600480360381019061047f9190612445565b610ca4565b604051610491919061292b565b60405180910390f35b6104b460048036038101906104af91906123a7565b610cc2565b005b6104be610e04565b6040516104cb9190612946565b60405180910390f35b6104ee60048036038101906104e991906124aa565b610e28565b005b61050a6004803603810190610505919061231c565b610e51565b6040516105179190612cbc565b60405180910390f35b60007f7965db0b000000000000000000000000000000000000000000000000000000007bffffffffffffffffffffffffffffffffffffffffffffffffffffffff1916827bffffffffffffffffffffffffffffffffffffffffffffffffffffffff19161480610593575061059282610ed8565b5b9050919050565b6060600480546105a990612ee5565b80601f01602080910402602001604051908101604052809291908181526020018280546105d590612ee5565b80156106225780601f106105f757610100808354040283529160200191610622565b820191906000526020600020905b81548152906001019060200180831161060557829003601f168201915b5050505050905090565b6000610640610639610f42565b8484610f4a565b6001905092915050565b6000600354905090565b6000610661848484611115565b6000600260008673ffffffffffffffffffffffffffffffffffffffff1673ffffffffffffffffffffffffffffffffffffffff16815260200190815260200160002060006106ac610f42565b73ffffffffffffffffffffffffffffffffffffffff1673ffffffffffffffffffffffffffffffffffffffff1681526020019081526020016000205490508281101561072c576040517f08c379a000000000000000000000000000000000000000000000000000000000815260040161072390612bdc565b60405180910390fd5b61074085610738610f42565b858403610f4a565b60019150509392505050565b6000806000838152602001908152602001600020600101549050919050565b7f3c11d16cbaffd01df69ce1c404f6340ee057498f5f00246190ea54220576a84881565b6107988261074c565b6107a9816107a4610f42565b611399565b6107b38383611436565b505050565b60006012905090565b60006107cb611516565b905090565b6107d8610f42565b73ffffffffffffffffffffffffffffffffffffffff168173ffffffffffffffffffffffffffffffffffffffff1614610845576040517f08c379a000000000000000000000000000000000000000000000000000000000815260040161083c90612c7c565b60405180910390fd5b61084f82826115d9565b5050565b60006108f5610860610f42565b84846002600061086e610f42565b73ffffffffffffffffffffffffffffffffffffffff1673ffffffffffffffffffffffffffffffffffffffff16815260200190815260200160002060008873ffffffffffffffffffffffffffffffffffffffff1673ffffffffffffffffffffffffffffffffffffffff168152602001908152602001600020546108f09190612d19565b610f4a565b6001905092915050565b7f9f2df0fed2c77648de5860a4cc508cd0818c85b8b8a1ab4ceeef8d981c8956a66109318161092c610f42565b611399565b61093b83836116ba565b8273ffffffffffffffffffffffffffffffffffffffff167f0f6798a560793a54c3bcfe86a93cde1e73087d944c0ea20544137d4121396885836040516109819190612cbc565b60405180910390a2505050565b6000600160008373ffffffffffffffffffffffffffffffffffffffff1673ffffffffffffffffffffffffffffffffffffffff168152602001908152602001600020549050919050565b6000610a20600660008473ffffffffffffffffffffffffffffffffffffffff1673ffffffffffffffffffffffffffffffffffffffff16815260200190815260200160002061181b565b9050919050565b600080600084815260200190815260200160002060000160008373ffffffffffffffffffffffffffffffffffffffff1673ffffffffffffffffffffffffffffffffffffffff16815260200190815260200160002060009054906101000a900460ff16905092915050565b606060058054610aa090612ee5565b80601f0160208091040260200160405190810160405280929190818152602001828054610acc90612ee5565b8015610b195780601f10610aee57610100808354040283529160200191610b19565b820191906000526020600020905b815481529060010190602001808311610afc57829003601f168201915b5050505050905090565b7f3c11d16cbaffd01df69ce1c404f6340ee057498f5f00246190ea54220576a848610b5581610b50610f42565b611399565b610b5f8383611829565b8273ffffffffffffffffffffffffffffffffffffffff167fcc16f5dbb4873280815c1ee09dbd06736cffcc184412cf7a71a0fdb75d397ca583604051610ba59190612cbc565b60405180910390a2505050565b6000801b81565b60008060026000610bc8610f42565b73ffffffffffffffffffffffffffffffffffffffff1673ffffffffffffffffffffffffffffffffffffffff16815260200190815260200160002060008573ffffffffffffffffffffffffffffffffffffffff1673ffffffffffffffffffffffffffffffffffffffff16815260200190815260200160002054905082811015610c85576040517f08c379a0000000000000000000000000000000000000000000000000000000008152600401610c7c90612c5c565b60405180910390fd5b610c99610c90610f42565b85858403610f4a565b600191505092915050565b6000610cb8610cb1610f42565b8484611115565b6001905092915050565b83421115610d05576040517f08c379a0000000000000000000000000000000000000000000000000000000008152600401610cfc90612b3c565b60405180910390fd5b60007f0000000000000000000000000000000000000000000000000000000000000000888888610d348c611a02565b89604051602001610d4a96959493929190612961565b6040516020818303038152906040528051906020012090506000610d6d82611a60565b90506000610d7d82878787611a7a565b90508973ffffffffffffffffffffffffffffffffffffffff168173ffffffffffffffffffffffffffffffffffffffff1614610ded576040517f08c379a0000000000000000000000000000000000000000000000000000000008152600401610de490612bbc565b60405180910390fd5b610df88a8a8a610f4a565b50505050505050505050565b7f9f2df0fed2c77648de5860a4cc508cd0818c85b8b8a1ab4ceeef8d981c8956a681565b610e318261074c565b610e4281610e3d610f42565b611399565b610e4c83836115d9565b505050565b6000600260008473ffffffffffffffffffffffffffffffffffffffff1673ffffffffffffffffffffffffffffffffffffffff16815260200190815260200160002060008373ffffffffffffffffffffffffffffffffffffffff1673ffffffffffffffffffffffffffffffffffffffff16815260200190815260200160002054905092915050565b60007f01ffc9a7000000000000000000000000000000000000000000000000000000007bffffffffffffffffffffffffffffffffffffffffffffffffffffffff1916827bffffffffffffffffffffffffffffffffffffffffffffffffffffffff1916149050919050565b600033905090565b600073ffffffffffffffffffffffffffffffffffffffff168373ffffffffffffffffffffffffffffffffffffffff161415610fba576040517f08c379a0000000000000000000000000000000000000000000000000000000008152600401610fb190612c3c565b60405180910390fd5b600073ffffffffffffffffffffffffffffffffffffffff168273ffffffffffffffffffffffffffffffffffffffff16141561102a576040517f08c379a000000000000000000000000000000000000000000000000000000000815260040161102190612b1c565b60405180910390fd5b80600260008573ffffffffffffffffffffffffffffffffffffffff1673ffffffffffffffffffffffffffffffffffffffff16815260200190815260200160002060008473ffffffffffffffffffffffffffffffffffffffff1673ffffffffffffffffffffffffffffffffffffffff168152602001908152602001600020819055508173ffffffffffffffffffffffffffffffffffffffff168373ffffffffffffffffffffffffffffffffffffffff167f8c5be1e5ebec7d5bd14f71427d1e84f3dd0314c0f7b2291e5b200ac8c7c3b925836040516111089190612cbc565b60405180910390a3505050565b600073ffffffffffffffffffffffffffffffffffffffff168373ffffffffffffffffffffffffffffffffffffffff161415611185576040517f08c379a000000000000000000000000000000000000000000000000000000000815260040161117c90612c1c565b60405180910390fd5b600073ffffffffffffffffffffffffffffffffffffffff168273ffffffffffffffffffffffffffffffffffffffff1614156111f5576040517f08c379a00000000000000000000000000000000000000000000000000000000081526004016111ec90612abc565b60405180910390fd5b611200838383611aa5565b6000600160008573ffffffffffffffffffffffffffffffffffffffff1673ffffffffffffffffffffffffffffffffffffffff16815260200190815260200160002054905081811015611287576040517f08c379a000000000000000000000000000000000000000000000000000000000815260040161127e90612b5c565b60405180910390fd5b818103600160008673ffffffffffffffffffffffffffffffffffffffff1673ffffffffffffffffffffffffffffffffffffffff1681526020019081526020016000208190555081600160008573ffffffffffffffffffffffffffffffffffffffff1673ffffffffffffffffffffffffffffffffffffffff168152602001908152602001600020600082825461131c9190612d19565b925050819055508273ffffffffffffffffffffffffffffffffffffffff168473ffffffffffffffffffffffffffffffffffffffff167fddf252ad1be2c89b69c2b068fc378daa952ba7f163c4a11628f55a4df523b3ef846040516113809190612cbc565b60405180910390a3611393848484611aaa565b50505050565b6113a38282610a27565b611432576113c88173ffffffffffffffffffffffffffffffffffffffff166014611aaf565b6113d68360001c6020611aaf565b6040516020016113e79291906128f1565b6040516020818303038152906040526040517f08c379a00000000000000000000000000000000000000000000000000000000081526004016114299190612a5a565b60405180910390fd5b5050565b6114408282610a27565b61151257600160008084815260200190815260200160002060000160008373ffffffffffffffffffffffffffffffffffffffff1673ffffffffffffffffffffffffffffffffffffffff16815260200190815260200160002060006101000a81548160ff0219169083151502179055506114b7610f42565b73ffffffffffffffffffffffffffffffffffffffff168173ffffffffffffffffffffffffffffffffffffffff16837f2f8788117e7eff1d82e926ec794901d17c78024a50270940304540a733656f0d60405160405180910390a45b5050565b60007f0000000000000000000000000000000000000000000000000000000000000000461415611568577f000000000000000000000000000000000000000000000000000000000000000090506115d6565b6115d37f00000000000000000000000000000000000000000000000000000000000000007f00000000000000000000000000000000000000000000000000000000000000007f0000000000000000000000000000000000000000000000000000000000000000611da9565b90505b90565b6115e38282610a27565b156116b657600080600084815260200190815260200160002060000160008373ffffffffffffffffffffffffffffffffffffffff1673ffffffffffffffffffffffffffffffffffffffff16815260200190815260200160002060006101000a81548160ff02191690831515021790555061165b610f42565b73ffffffffffffffffffffffffffffffffffffffff168173ffffffffffffffffffffffffffffffffffffffff16837ff6391f5c32d9c69d2a47ea670b442974b53935d1edc7fd64eb21e047a839171b60405160405180910390a45b5050565b600073ffffffffffffffffffffffffffffffffffffffff168273ffffffffffffffffffffffffffffffffffffffff16141561172a576040517f08c379a000000000000000000000000000000000000000000000000000000000815260040161172190612c9c565b60405180910390fd5b61173660008383611aa5565b80600360008282546117489190612d19565b9250508190555080600160008473ffffffffffffffffffffffffffffffffffffffff1673ffffffffffffffffffffffffffffffffffffffff168152602001908152602001600020600082825461179e9190612d19565b925050819055508173ffffffffffffffffffffffffffffffffffffffff16600073ffffffffffffffffffffffffffffffffffffffff167fddf252ad1be2c89b69c2b068fc378daa952ba7f163c4a11628f55a4df523b3ef836040516118039190612cbc565b60405180910390a361181760008383611aaa565b5050565b600081600001549050919050565b600073ffffffffffffffffffffffffffffffffffffffff168273ffffffffffffffffffffffffffffffffffffffff161415611899576040517f08c379a000000000000000000000000000000000000000000000000000000000815260040161189090612bfc565b60405180910390fd5b6118a582600083611aa5565b6000600160008473ffffffffffffffffffffffffffffffffffffffff1673ffffffffffffffffffffffffffffffffffffffff1681526020019081526020016000205490508181101561192c576040517f08c379a000000000000000000000000000000000000000000000000000000000815260040161192390612adc565b60405180910390fd5b818103600160008573ffffffffffffffffffffffffffffffffffffffff1673ffffffffffffffffffffffffffffffffffffffff1681526020019081526020016000208190555081600360008282546119849190612dc9565b92505081905550600073ffffffffffffffffffffffffffffffffffffffff168373ffffffffffffffffffffffffffffffffffffffff167fddf252ad1be2c89b69c2b068fc378daa952ba7f163c4a11628f55a4df523b3ef846040516119e99190612cbc565b60405180910390a36119fd83600084611aaa565b505050565b600080600660008473ffffffffffffffffffffffffffffffffffffffff1673ffffffffffffffffffffffffffffffffffffffff1681526020019081526020016000209050611a4f8161181b565b9150611a5a81611de3565b50919050565b6000611a73611a6d611516565b83611df9565b9050919050565b6000806000611a8b87878787611e2c565b91509150611a9881611f39565b8192505050949350505050565b505050565b505050565b606060006002836002611ac29190612d6f565b611acc9190612d19565b67ffffffffffffffff811115611b0b577f4e487b7100000000000000000000000000000000000000000000000000000000600052604160045260246000fd5b6040519080825280601f01601f191660200182016040528015611b3d5781602001600182028036833780820191505090505b5090507f300000000000000000000000000000000000000000000000000000000000000081600081518110611b9b577f4e487b7100000000000000000000000000000000000000000000000000000000600052603260045260246000fd5b60200101907effffffffffffffffffffffffffffffffffffffffffffffffffffffffffffff1916908160001a9053507f780000000000000000000000000000000000000000000000000000000000000081600181518110611c25577f4e487b7100000000000000000000000000000000000000000000000000000000600052603260045260246000fd5b60200101907effffffffffffffffffffffffffffffffffffffffffffffffffffffffffffff1916908160001a90535060006001846002611c659190612d6f565b611c6f9190612d19565b90505b6001811115611d5b577f3031323334353637383961626364656600000000000000000000000000000000600f861660108110611cd7577f4e487b7100000000000000000000000000000000000000000000000000000000600052603260045260246000fd5b1a60f81b828281518110611d14577f4e487b7100000000000000000000000000000000000000000000000000000000600052603260045260246000fd5b60200101907effffffffffffffffffffffffffffffffffffffffffffffffffffffffffffff1916908160001a905350600485901c945080611d5490612ebb565b9050611c72565b5060008414611d9f576040517f08c379a0000000000000000000000000000000000000000000000000000000008152600401611d9690612a9c565b60405180910390fd5b8091505092915050565b60008383834630604051602001611dc49594939291906129c2565b6040516020818303038152906040528051906020012090509392505050565b6001816000016000828254019250508190555050565b60008282604051602001611e0e9291906128ba565b60405160208183030381529060405280519060200120905092915050565b6000807f7fffffffffffffffffffffffffffffff5d576e7357a4501ddfe92f46681b20a08360001c1115611e67576000600391509150611f30565b601b8560ff1614158015611e7f5750601c8560ff1614155b15611e91576000600491509150611f30565b600060018787878760405160008152602001604052604051611eb69493929190612a15565b6020604051602081039080840390855afa158015611ed8573d6000803e3d6000fd5b505050602060405103519050600073ffffffffffffffffffffffffffffffffffffffff168173ffffffffffffffffffffffffffffffffffffffff161415611f2757600060019250925050611f30565b80600092509250505b94509492505050565b60006004811115611f73577f4e487b7100000000000000000000000000000000000000000000000000000000600052602160045260246000fd5b816004811115611fac577f4e487b7100000000000000000000000000000000000000000000000000000000600052602160045260246000fd5b1415611fb757612287565b60016004811115611ff1577f4e487b7100000000000000000000000000000000000000000000000000000000600052602160045260246000fd5b81600481111561202a577f4e487b7100000000000000000000000000000000000000000000000000000000600052602160045260246000fd5b141561206b576040517f08c379a000000000000000000000000000000000000000000000000000000000815260040161206290612a7c565b60405180910390fd5b600260048111156120a5577f4e487b7100000000000000000000000000000000000000000000000000000000600052602160045260246000fd5b8160048111156120de577f4e487b7100000000000000000000000000000000000000000000000000000000600052602160045260246000fd5b141561211f576040517f08c379a000000000000000000000000000000000000000000000000000000000815260040161211690612afc565b60405180910390fd5b60036004811115612159577f4e487b7100000000000000000000000000000000000000000000000000000000600052602160045260246000fd5b816004811115612192577f4e487b7100000000000000000000000000000000000000000000000000000000600052602160045260246000fd5b14156121d3576040517f08c379a00000000000000000000000000000000000000000000000000000000081526004016121ca90612b7c565b60405180910390fd5b60048081111561220c577f4e487b7100000000000000000000000000000000000000000000000000000000600052602160045260246000fd5b816004811115612245577f4e487b7100000000000000000000000000000000000000000000000000000000600052602160045260246000fd5b1415612286576040517f08c379a000000000000000000000000000000000000000000000000000000000815260040161227d90612b9c565b60405180910390fd5b5b50565b600081359050612299816134b5565b92915050565b6000813590506122ae816134cc565b92915050565b6000813590506122c3816134e3565b92915050565b6000813590506122d8816134fa565b92915050565b6000813590506122ed81613511565b92915050565b60006020828403121561230557600080fd5b60006123138482850161228a565b91505092915050565b6000806040838503121561232f57600080fd5b600061233d8582860161228a565b925050602061234e8582860161228a565b9150509250929050565b60008060006060848603121561236d57600080fd5b600061237b8682870161228a565b935050602061238c8682870161228a565b925050604061239d868287016122c9565b9150509250925092565b600080600080600080600060e0888a0312156123c257600080fd5b60006123d08a828b0161228a565b97505060206123e18a828b0161228a565b96505060406123f28a828b016122c9565b95505060606124038a828b016122c9565b94505060806124148a828b016122de565b93505060a06124258a828b0161229f565b92505060c06124368a828b0161229f565b91505092959891949750929550565b6000806040838503121561245857600080fd5b60006124668582860161228a565b9250506020612477858286016122c9565b9150509250929050565b60006020828403121561249357600080fd5b60006124a18482850161229f565b91505092915050565b600080604083850312156124bd57600080fd5b60006124cb8582860161229f565b92505060206124dc8582860161228a565b9150509250929050565b6000602082840312156124f857600080fd5b6000612506848285016122b4565b91505092915050565b61251881612dfd565b82525050565b61252781612e0f565b82525050565b61253681612e1b565b82525050565b61254d61254882612e1b565b612f17565b82525050565b600061255e82612cf2565b6125688185612cfd565b9350612578818560208601612e88565b61258181612f7f565b840191505092915050565b600061259782612cf2565b6125a18185612d0e565b93506125b1818560208601612e88565b80840191505092915050565b60006125ca601883612cfd565b91506125d582612f90565b602082019050919050565b60006125ed602083612cfd565b91506125f882612fb9565b602082019050919050565b6000612610602383612cfd565b915061261b82612fe2565b604082019050919050565b6000612633602283612cfd565b915061263e82613031565b604082019050919050565b6000612656601f83612cfd565b915061266182613080565b602082019050919050565b6000612679602283612cfd565b9150612684826130a9565b604082019050919050565b600061269c600283612d0e565b91506126a7826130f8565b600282019050919050565b60006126bf601d83612cfd565b91506126ca82613121565b602082019050919050565b60006126e2602683612cfd565b91506126ed8261314a565b604082019050919050565b6000612705602283612cfd565b915061271082613199565b604082019050919050565b6000612728602283612cfd565b9150612733826131e8565b604082019050919050565b600061274b601e83612cfd565b915061275682613237565b602082019050919050565b600061276e602883612cfd565b915061277982613260565b604082019050919050565b6000612791602183612cfd565b915061279c826132af565b604082019050919050565b60006127b4602583612cfd565b91506127bf826132fe565b604082019050919050565b60006127d7602483612cfd565b91506127e28261334d565b604082019050919050565b60006127fa601783612d0e565b91506128058261339c565b601782019050919050565b600061281d602583612cfd565b9150612828826133c5565b604082019050919050565b6000612840601183612d0e565b915061284b82613414565b601182019050919050565b6000612863602f83612cfd565b915061286e8261343d565b604082019050919050565b6000612886601f83612cfd565b91506128918261348c565b602082019050919050565b6128a581612e71565b82525050565b6128b481612e7b565b82525050565b60006128c58261268f565b91506128d1828561253c565b6020820191506128e1828461253c565b6020820191508190509392505050565b60006128fc826127ed565b9150612908828561258c565b915061291382612833565b915061291f828461258c565b91508190509392505050565b6000602082019050612940600083018461251e565b92915050565b600060208201905061295b600083018461252d565b92915050565b600060c082019050612976600083018961252d565b612983602083018861250f565b612990604083018761250f565b61299d606083018661289c565b6129aa608083018561289c565b6129b760a083018461289c565b979650505050505050565b600060a0820190506129d7600083018861252d565b6129e4602083018761252d565b6129f1604083018661252d565b6129fe606083018561289c565b612a0b608083018461250f565b9695505050505050565b6000608082019050612a2a600083018761252d565b612a3760208301866128ab565b612a44604083018561252d565b612a51606083018461252d565b95945050505050565b60006020820190508181036000830152612a748184612553565b905092915050565b60006020820190508181036000830152612a95816125bd565b9050919050565b60006020820190508181036000830152612ab5816125e0565b9050919050565b60006020820190508181036000830152612ad581612603565b9050919050565b60006020820190508181036000830152612af581612626565b9050919050565b60006020820190508181036000830152612b1581612649565b9050919050565b60006020820190508181036000830152612b358161266c565b9050919050565b60006020820190508181036000830152612b55816126b2565b9050919050565b60006020820190508181036000830152612b75816126d5565b9050919050565b60006020820190508181036000830152612b95816126f8565b9050919050565b60006020820190508181036000830152612bb58161271b565b9050919050565b60006020820190508181036000830152612bd58161273e565b9050919050565b60006020820190508181036000830152612bf581612761565b9050919050565b60006020820190508181036000830152612c1581612784565b9050919050565b60006020820190508181036000830152612c35816127a7565b9050919050565b60006020820190508181036000830152612c55816127ca565b9050919050565b60006020820190508181036000830152612c7581612810565b9050919050565b60006020820190508181036000830152612c9581612856565b9050919050565b60006020820190508181036000830152612cb581612879565b9050919050565b6000602082019050612cd1600083018461289c565b92915050565b6000602082019050612cec60008301846128ab565b92915050565b600081519050919050565b600082825260208201905092915050565b600081905092915050565b6000612d2482612e71565b9150612d2f83612e71565b9250827fffffffffffffffffffffffffffffffffffffffffffffffffffffffffffffffff03821115612d6457612d63612f21565b5b828201905092915050565b6000612d7a82612e71565b9150612d8583612e71565b9250817fffffffffffffffffffffffffffffffffffffffffffffffffffffffffffffffff0483118215151615612dbe57612dbd612f21565b5b828202905092915050565b6000612dd482612e71565b9150612ddf83612e71565b925082821015612df257612df1612f21565b5b828203905092915050565b6000612e0882612e51565b9050919050565b60008115159050919050565b6000819050919050565b60007fffffffff0000000000000000000000000000000000000000000000000000000082169050919050565b600073ffffffffffffffffffffffffffffffffffffffff82169050919050565b6000819050919050565b600060ff82169050919050565b60005b83811015612ea6578082015181840152602081019050612e8b565b83811115612eb5576000848401525b50505050565b6000612ec682612e71565b91506000821415612eda57612ed9612f21565b5b600182039050919050565b60006002820490506001821680612efd57607f821691505b60208210811415612f1157612f10612f50565b5b50919050565b6000819050919050565b7f4e487b7100000000000000000000000000000000000000000000000000000000600052601160045260246000fd5b7f4e487b7100000000000000000000000000000000000000000000000000000000600052602260045260246000fd5b6000601f19601f8301169050919050565b7f45434453413a20696e76616c6964207369676e61747572650000000000000000600082015250565b7f537472696e67733a20686578206c656e67746820696e73756666696369656e74600082015250565b7f45524332303a207472616e7366657220746f20746865207a65726f206164647260008201527f6573730000000000000000000000000000000000000000000000000000000000602082015250565b7f45524332303a206275726e20616d6f756e7420657863656564732062616c616e60008201527f6365000000000000000000000000000000000000000000000000000000000000602082015250565b7f45434453413a20696e76616c6964207369676e6174757265206c656e67746800600082015250565b7f45524332303a20617070726f766520746f20746865207a65726f20616464726560008201527f7373000000000000000000000000000000000000000000000000000000000000602082015250565b7f1901000000000000000000000000000000000000000000000000000000000000600082015250565b7f45524332305065726d69743a206578706972656420646561646c696e65000000600082015250565b7f45524332303a207472616e7366657220616d6f756e742065786365656473206260008201527f616c616e63650000000000000000000000000000000000000000000000000000602082015250565b7f45434453413a20696e76616c6964207369676e6174757265202773272076616c60008201527f7565000000000000000000000000000000000000000000000000000000000000602082015250565b7f45434453413a20696e76616c6964207369676e6174757265202776272076616c60008201527f7565000000000000000000000000000000000000000000000000000000000000602082015250565b7f45524332305065726d69743a20696e76616c6964207369676e61747572650000600082015250565b7f45524332303a207472616e7366657220616d6f756e742065786365656473206160008201527f6c6c6f77616e6365000000000000000000000000000000000000000000000000602082015250565b7f45524332303a206275726e2066726f6d20746865207a65726f2061646472657360008201527f7300000000000000000000000000000000000000000000000000000000000000602082015250565b7f45524332303a207472616e736665722066726f6d20746865207a65726f20616460008201527f6472657373000000000000000000000000000000000000000000000000000000602082015250565b7f45524332303a20617070726f76652066726f6d20746865207a65726f2061646460008201527f7265737300000000000000000000000000000000000000000000000000000000602082015250565b7f416363657373436f6e74726f6c3a206163636f756e7420000000000000000000600082015250565b7f45524332303a2064656372656173656420616c6c6f77616e63652062656c6f7760008201527f207a65726f000000000000000000000000000000000000000000000000000000602082015250565b7f206973206d697373696e6720726f6c6520000000000000000000000000000000600082015250565b7f416363657373436f6e74726f6c3a2063616e206f6e6c792072656e6f756e636560008201527f20726f6c657320666f722073656c660000000000000000000000000000000000602082015250565b7f45524332303a206d696e7420746f20746865207a65726f206164647265737300600082015250565b6134be81612dfd565b81146134c957600080fd5b50565b6134d581612e1b565b81146134e057600080fd5b50565b6134ec81612e25565b81146134f757600080fd5b50565b61350381612e71565b811461350e57600080fd5b50565b61351a81612e7b565b811461352557600080fd5b5056fea2646970667358221220e9d1ad1be132205f515d2a03fa69779a625a04d3cd61f08cb25ea9f413f672ed64736f6c63430008040033",
  "devdoc": {
    "kind": "dev",
    "methods": {
      "DOMAIN_SEPARATOR()": {
        "details": "See {IERC20Permit-DOMAIN_SEPARATOR}."
      },
      "allowance(address,address)": {
        "details": "See {IERC20-allowance}."
      },
      "approve(address,uint256)": {
        "details": "See {IERC20-approve}. Requirements: - `spender` cannot be the zero address."
      },
      "balanceOf(address)": {
        "details": "See {IERC20-balanceOf}."
      },
      "burn(address,uint256)": {
        "details": "Burns a specific amount of the sender's tokens",
        "params": {
          "_amount": "The amount of tokens to be burned"
        }
      },
      "decimals()": {
        "details": "Returns the number of decimals used to get its user representation. For example, if `decimals` equals `2`, a balance of `505` tokens should be displayed to a user as `5.05` (`505 / 10 ** 2`). Tokens usually opt for a value of 18, imitating the relationship between Ether and Wei. This is the value {ERC20} uses, unless this function is overridden; NOTE: This information is only used for _display_ purposes: it in no way affects any of the arithmetic of the contract, including {IERC20-balanceOf} and {IERC20-transfer}."
      },
      "decreaseAllowance(address,uint256)": {
        "details": "Atomically decreases the allowance granted to `spender` by the caller. This is an alternative to {approve} that can be used as a mitigation for problems described in {IERC20-approve}. Emits an {Approval} event indicating the updated allowance. Requirements: - `spender` cannot be the zero address. - `spender` must have allowance for the caller of at least `subtractedValue`."
      },
      "getRoleAdmin(bytes32)": {
        "details": "Returns the admin role that controls `role`. See {grantRole} and {revokeRole}. To change a role's admin, use {_setRoleAdmin}."
      },
      "grantRole(bytes32,address)": {
        "details": "Grants `role` to `account`. If `account` had not been already granted `role`, emits a {RoleGranted} event. Requirements: - the caller must have ``role``'s admin role."
      },
      "hasRole(bytes32,address)": {
        "details": "Returns `true` if `account` has been granted `role`."
      },
      "increaseAllowance(address,uint256)": {
        "details": "Atomically increases the allowance granted to `spender` by the caller. This is an alternative to {approve} that can be used as a mitigation for problems described in {IERC20-approve}. Emits an {Approval} event indicating the updated allowance. Requirements: - `spender` cannot be the zero address."
      },
      "mint(address,uint256)": {
        "details": "Function to mint tokens",
        "params": {
          "_amount": "The amount of tokens to mint.",
          "_to": "The address that will receive the minted tokens."
        }
      },
      "name()": {
        "details": "Returns the name of the token."
      },
      "nonces(address)": {
        "details": "See {IERC20Permit-nonces}."
      },
      "permit(address,address,uint256,uint256,uint8,bytes32,bytes32)": {
        "details": "See {IERC20Permit-permit}."
      },
      "renounceRole(bytes32,address)": {
        "details": "Revokes `role` from the calling account. Roles are often managed via {grantRole} and {revokeRole}: this function's purpose is to provide a mechanism for accounts to lose their privileges if they are compromised (such as when a trusted device is misplaced). If the calling account had been granted `role`, emits a {RoleRevoked} event. Requirements: - the caller must be `account`."
      },
      "revokeRole(bytes32,address)": {
        "details": "Revokes `role` from `account`. If `account` had been granted `role`, emits a {RoleRevoked} event. Requirements: - the caller must have ``role``'s admin role."
      },
      "supportsInterface(bytes4)": {
        "details": "See {IERC165-supportsInterface}."
      },
      "symbol()": {
        "details": "Returns the symbol of the token, usually a shorter version of the name."
      },
      "totalSupply()": {
        "details": "See {IERC20-totalSupply}."
      },
      "transfer(address,uint256)": {
        "details": "See {IERC20-transfer}. Requirements: - `recipient` cannot be the zero address. - the caller must have a balance of at least `amount`."
      },
      "transferFrom(address,address,uint256)": {
        "details": "See {IERC20-transferFrom}. Emits an {Approval} event indicating the updated allowance. This is not required by the EIP. See the note at the beginning of {ERC20}. Requirements: - `sender` and `recipient` cannot be the zero address. - `sender` must have a balance of at least `amount`. - the caller must have allowance for ``sender``'s tokens of at least `amount`."
      }
    },
    "version": 1
  },
  "userdoc": {
    "kind": "user",
    "methods": {},
    "version": 1
  },
  "storageLayout": {
    "storage": [
      {
        "astId": 24,
        "contract": "contracts/L2/token/LivepeerToken.sol:LivepeerToken",
        "label": "_roles",
        "offset": 0,
        "slot": "0",
        "type": "t_mapping(t_bytes32,t_struct(RoleData)19_storage)"
      },
      {
        "astId": 487,
        "contract": "contracts/L2/token/LivepeerToken.sol:LivepeerToken",
        "label": "_balances",
        "offset": 0,
        "slot": "1",
        "type": "t_mapping(t_address,t_uint256)"
      },
      {
        "astId": 493,
        "contract": "contracts/L2/token/LivepeerToken.sol:LivepeerToken",
        "label": "_allowances",
        "offset": 0,
        "slot": "2",
        "type": "t_mapping(t_address,t_mapping(t_address,t_uint256))"
      },
      {
        "astId": 495,
        "contract": "contracts/L2/token/LivepeerToken.sol:LivepeerToken",
        "label": "_totalSupply",
        "offset": 0,
        "slot": "3",
        "type": "t_uint256"
      },
      {
        "astId": 497,
        "contract": "contracts/L2/token/LivepeerToken.sol:LivepeerToken",
        "label": "_name",
        "offset": 0,
        "slot": "4",
        "type": "t_string_storage"
      },
      {
        "astId": 499,
        "contract": "contracts/L2/token/LivepeerToken.sol:LivepeerToken",
        "label": "_symbol",
        "offset": 0,
        "slot": "5",
        "type": "t_string_storage"
      },
      {
        "astId": 1143,
        "contract": "contracts/L2/token/LivepeerToken.sol:LivepeerToken",
        "label": "_nonces",
        "offset": 0,
        "slot": "6",
        "type": "t_mapping(t_address,t_struct(Counter)1353_storage)"
      }
    ],
    "types": {
      "t_address": {
        "encoding": "inplace",
        "label": "address",
        "numberOfBytes": "20"
      },
      "t_bool": {
        "encoding": "inplace",
        "label": "bool",
        "numberOfBytes": "1"
      },
      "t_bytes32": {
        "encoding": "inplace",
        "label": "bytes32",
        "numberOfBytes": "32"
      },
      "t_mapping(t_address,t_bool)": {
        "encoding": "mapping",
        "key": "t_address",
        "label": "mapping(address => bool)",
        "numberOfBytes": "32",
        "value": "t_bool"
      },
      "t_mapping(t_address,t_mapping(t_address,t_uint256))": {
        "encoding": "mapping",
        "key": "t_address",
        "label": "mapping(address => mapping(address => uint256))",
        "numberOfBytes": "32",
        "value": "t_mapping(t_address,t_uint256)"
      },
      "t_mapping(t_address,t_struct(Counter)1353_storage)": {
        "encoding": "mapping",
        "key": "t_address",
        "label": "mapping(address => struct Counters.Counter)",
        "numberOfBytes": "32",
        "value": "t_struct(Counter)1353_storage"
      },
      "t_mapping(t_address,t_uint256)": {
        "encoding": "mapping",
        "key": "t_address",
        "label": "mapping(address => uint256)",
        "numberOfBytes": "32",
        "value": "t_uint256"
      },
      "t_mapping(t_bytes32,t_struct(RoleData)19_storage)": {
        "encoding": "mapping",
        "key": "t_bytes32",
        "label": "mapping(bytes32 => struct AccessControl.RoleData)",
        "numberOfBytes": "32",
        "value": "t_struct(RoleData)19_storage"
      },
      "t_string_storage": {
        "encoding": "bytes",
        "label": "string",
        "numberOfBytes": "32"
      },
      "t_struct(Counter)1353_storage": {
        "encoding": "inplace",
        "label": "struct Counters.Counter",
        "members": [
          {
            "astId": 1352,
            "contract": "contracts/L2/token/LivepeerToken.sol:LivepeerToken",
            "label": "_value",
            "offset": 0,
            "slot": "0",
            "type": "t_uint256"
          }
        ],
        "numberOfBytes": "32"
      },
      "t_struct(RoleData)19_storage": {
        "encoding": "inplace",
        "label": "struct AccessControl.RoleData",
        "members": [
          {
            "astId": 16,
            "contract": "contracts/L2/token/LivepeerToken.sol:LivepeerToken",
            "label": "members",
            "offset": 0,
            "slot": "0",
            "type": "t_mapping(t_address,t_bool)"
          },
          {
            "astId": 18,
            "contract": "contracts/L2/token/LivepeerToken.sol:LivepeerToken",
            "label": "adminRole",
            "offset": 0,
            "slot": "1",
            "type": "t_bytes32"
          }
        ],
        "numberOfBytes": "64"
      },
      "t_uint256": {
        "encoding": "inplace",
        "label": "uint256",
        "numberOfBytes": "32"
      }
    }
  }
}