{
  "_format": "hh-sol-artifact-1",
  "contractName": "LegacyController",
  "sourceName": "contracts/v3/controllers/LegacyController.sol",
  "abi": [
    {
      "inputs": [
        {
          "internalType": "address",
          "name": "_manager",
          "type": "address"
        },
        {
          "internalType": "address",
          "name": "_metavault",
          "type": "address"
        }
      ],
      "stateMutability": "nonpayable",
      "type": "constructor"
    },
    {
      "anonymous": false,
      "inputs": [
        {
          "indexed": false,
          "internalType": "uint256",
          "name": "amount",
          "type": "uint256"
        }
      ],
      "name": "Earn",
      "type": "event"
    },
    {
      "anonymous": false,
      "inputs": [
        {
          "indexed": false,
          "internalType": "uint256",
          "name": "amount",
          "type": "uint256"
        }
      ],
      "name": "Withdraw",
      "type": "event"
    },
    {
      "inputs": [],
      "name": "MAX",
      "outputs": [
        {
          "internalType": "uint256",
          "name": "",
          "type": "uint256"
        }
      ],
      "stateMutability": "view",
      "type": "function"
    },
    {
      "inputs": [
        {
          "internalType": "address",
          "name": "_token",
          "type": "address"
        }
      ],
      "name": "balanceOf",
      "outputs": [
        {
          "internalType": "uint256",
          "name": "",
          "type": "uint256"
        }
      ],
      "stateMutability": "view",
      "type": "function"
    },
    {
      "inputs": [],
      "name": "converter",
      "outputs": [
        {
          "internalType": "contract IConverter",
          "name": "",
          "type": "address"
        }
      ],
      "stateMutability": "view",
      "type": "function"
    },
    {
      "inputs": [
        {
          "internalType": "address",
          "name": "",
          "type": "address"
        },
        {
          "internalType": "uint256",
          "name": "_amount",
          "type": "uint256"
        }
      ],
      "name": "earn",
      "outputs": [],
      "stateMutability": "nonpayable",
      "type": "function"
    },
    {
      "inputs": [],
      "name": "investEnabled",
      "outputs": [
        {
          "internalType": "bool",
          "name": "",
          "type": "bool"
        }
      ],
      "stateMutability": "view",
      "type": "function"
    },
    {
      "inputs": [
        {
          "internalType": "address",
          "name": "_toToken",
          "type": "address"
        },
        {
          "internalType": "uint256",
          "name": "_expected",
          "type": "uint256"
        }
      ],
      "name": "legacyDeposit",
      "outputs": [],
      "stateMutability": "nonpayable",
      "type": "function"
    },
    {
      "inputs": [],
      "name": "manager",
      "outputs": [
        {
          "internalType": "contract IManager",
          "name": "",
          "type": "address"
        }
      ],
      "stateMutability": "view",
      "type": "function"
    },
    {
      "inputs": [],
      "name": "metavault",
      "outputs": [
        {
          "internalType": "address",
          "name": "",
          "type": "address"
        }
      ],
      "stateMutability": "view",
      "type": "function"
    },
    {
      "inputs": [
        {
          "internalType": "address",
          "name": "_token",
          "type": "address"
        },
        {
          "internalType": "address",
          "name": "_receiver",
          "type": "address"
        }
      ],
      "name": "recoverUnsupportedToken",
      "outputs": [],
      "stateMutability": "nonpayable",
      "type": "function"
    },
    {
      "inputs": [
        {
          "internalType": "address",
          "name": "_converter",
          "type": "address"
        }
      ],
      "name": "setConverter",
      "outputs": [],
      "stateMutability": "nonpayable",
      "type": "function"
    },
    {
      "inputs": [
        {
          "internalType": "bool",
          "name": "_investEnabled",
          "type": "bool"
        }
      ],
      "name": "setInvestEnabled",
      "outputs": [],
      "stateMutability": "nonpayable",
      "type": "function"
    },
    {
      "inputs": [
        {
          "internalType": "address",
          "name": "_vault",
          "type": "address"
        }
      ],
      "name": "setVault",
      "outputs": [],
      "stateMutability": "nonpayable",
      "type": "function"
    },
    {
      "inputs": [],
      "name": "token",
      "outputs": [
        {
          "internalType": "contract IERC20",
          "name": "",
          "type": "address"
        }
      ],
      "stateMutability": "view",
      "type": "function"
    },
    {
      "inputs": [],
      "name": "vault",
      "outputs": [
        {
          "internalType": "contract IVault",
          "name": "",
          "type": "address"
        }
      ],
      "stateMutability": "view",
      "type": "function"
    },
    {
      "inputs": [
        {
          "internalType": "address",
          "name": "",
          "type": "address"
        },
        {
          "internalType": "uint256",
          "name": "_amount",
          "type": "uint256"
        }
      ],
      "name": "withdraw",
      "outputs": [],
      "stateMutability": "nonpayable",
      "type": "function"
    },
    {
      "inputs": [
        {
          "internalType": "address",
          "name": "_token",
          "type": "address"
        },
        {
          "internalType": "uint256",
          "name": "_amount",
          "type": "uint256"
        }
      ],
      "name": "withdrawFee",
      "outputs": [
        {
          "internalType": "uint256",
          "name": "",
          "type": "uint256"
        }
      ],
      "stateMutability": "view",
      "type": "function"
    }
  ],
  "bytecode": "0x60e060405234801561001057600080fd5b5060405161205d38038061205d8339818101604052604081101561003357600080fd5b5080516020918201516001600160601b0319606083811b821660805282901b1660c05260408051631f1fcd5160e01b81529051929391926000926001600160a01b03851692631f1fcd51926004808301939282900301818787803b15801561009a57600080fd5b505af11580156100ae573d6000803e3d6000fd5b505050506040513d60208110156100c457600080fd5b50516001600160601b031960609190911b1660a05250505060805160601c60a05160601c60c05160601c611ec5610198600039806104855280610e115280610f9a5280611027528061115952806116ae52508061041552806104a65280610547528061059b52806106a6528061092a52806109655280610a105280610a545280610d05528061108a5280611137528061130752806115e752806116d8528061177152806117985250806102f252806103165280610730528061085c5280610c365280610ea952806118125250611ec56000f3fe608060405234801561001057600080fd5b50600436106101005760003560e01c8063b19337a411610097578063f3fef3a311610066578063f3fef3a314610288578063fbfa77cf146102b4578063fc0c546a146102bc578063fd9be522146102c457610100565b8063b19337a41461024a578063bad0a7fd14610270578063bd38837b14610278578063d49d51811461028057610100565b80638fc1ea1e116100d35780638fc1ea1e146101a55780639246ce41146101c4578063940a4584146101f0578063b02bf4b91461021e57610100565b8063481c6a75146101055780636817031b1461012957806370a082311461015157806371f4f3fb14610189575b600080fd5b61010d6102f0565b604080516001600160a01b039092168252519081900360200190f35b61014f6004803603602081101561013f57600080fd5b50356001600160a01b0316610314565b005b6101776004803603602081101561016757600080fd5b50356001600160a01b0316610596565b60408051918252519081900360200190f35b610191610725565b604080519115158252519081900360200190f35b61014f600480360360208110156101bb57600080fd5b5035151561072e565b61014f600480360360408110156101da57600080fd5b506001600160a01b038135169060200135610810565b61014f6004803603604081101561020657600080fd5b506001600160a01b0381358116916020013516610c34565b61014f6004803603604081101561023457600080fd5b506001600160a01b038135169060200135610e06565b61014f6004803603602081101561026057600080fd5b50356001600160a01b0316610ea7565b61010d610f98565b61010d610fbc565b610177610fcb565b61014f6004803603604081101561029e57600080fd5b506001600160a01b038135169060200135610fd1565b61010d61175b565b61010d61176f565b610177600480360360408110156102da57600080fd5b506001600160a01b038135169060200135611793565b7f000000000000000000000000000000000000000000000000000000000000000081565b7f00000000000000000000000000000000000000000000000000000000000000006001600160a01b0316631fe4a6866040518163ffffffff1660e01b815260040160206040518083038186803b15801561036d57600080fd5b505afa158015610381573d6000803e3d6000fd5b505050506040513d602081101561039757600080fd5b50516001600160a01b031633146103e3576040805162461bcd60e51b815260206004820152600b60248201526a085cdd1c985d1959da5cdd60aa1b604482015290519081900360640190fd5b60005461010090046001600160a01b03161561056e576000805460408051630fa09e6360e41b81526001600160a01b037f00000000000000000000000000000000000000000000000000000000000000008116600483015291516101009093049091169263fa09e6309260248084019382900301818387803b15801561046857600080fd5b505af115801561047c573d6000803e3d6000fd5b5050505061056e7f00000000000000000000000000000000000000000000000000000000000000007f00000000000000000000000000000000000000000000000000000000000000006001600160a01b03166370a08231306040518263ffffffff1660e01b815260040180826001600160a01b0316815260200191505060206040518083038186803b15801561051157600080fd5b505afa158015610525573d6000803e3d6000fd5b505050506040513d602081101561053b57600080fd5b50516001600160a01b037f00000000000000000000000000000000000000000000000000000000000000001691906118a3565b600080546001600160a01b0390921661010002610100600160a81b0319909216919091179055565b6000817f00000000000000000000000000000000000000000000000000000000000000006001600160a01b0316816001600160a01b031614610609576040805162461bcd60e51b815260206004820152600760248201526610afba37b5b2b760c91b604482015290519081900360640190fd5b600054604080516370a0823160e01b8152306004820152905161071e9261010090046001600160a01b0316916370a08231916024808301926020929190829003018186803b15801561065a57600080fd5b505afa15801561066e573d6000803e3d6000fd5b505050506040513d602081101561068457600080fd5b5051604080516370a0823160e01b815230600482015290516001600160a01b037f000000000000000000000000000000000000000000000000000000000000000016916370a08231916024808301926020929190829003018186803b1580156106ec57600080fd5b505afa158015610700573d6000803e3d6000fd5b505050506040513d602081101561071657600080fd5b5051906118fa565b9392505050565b60005460ff1681565b7f00000000000000000000000000000000000000000000000000000000000000006001600160a01b0316631fe4a6866040518163ffffffff1660e01b815260040160206040518083038186803b15801561078757600080fd5b505afa15801561079b573d6000803e3d6000fd5b505050506040513d60208110156107b157600080fd5b50516001600160a01b031633146107fd576040805162461bcd60e51b815260206004820152600b60248201526a085cdd1c985d1959da5cdd60aa1b604482015290519081900360640190fd5b6000805460ff1916911515919091179055565b6001546001600160a01b031661085a576040805162461bcd60e51b815260206004820152600a60248201526910b1b7b73b32b93a32b960b11b604482015290519081900360640190fd5b7f00000000000000000000000000000000000000000000000000000000000000006001600160a01b0316634bdaeac16040518163ffffffff1660e01b815260040160206040518083038186803b1580156108b357600080fd5b505afa1580156108c7573d6000803e3d6000fd5b505050506040513d60208110156108dd57600080fd5b50516001600160a01b03163314610928576040805162461bcd60e51b815260206004820152600a60248201526910b430b93b32b9ba32b960b11b604482015290519081900360640190fd5b7f00000000000000000000000000000000000000000000000000000000000000006001600160a01b0316826001600160a01b031614610aec5760007f00000000000000000000000000000000000000000000000000000000000000006001600160a01b03166370a08231306040518263ffffffff1660e01b815260040180826001600160a01b0316815260200191505060206040518083038186803b1580156109d057600080fd5b505afa1580156109e4573d6000803e3d6000fd5b505050506040513d60208110156109fa57600080fd5b5051600154909150610a39906001600160a01b037f000000000000000000000000000000000000000000000000000000000000000081169116836118a3565b600154604080516375892cf160e01b81526001600160a01b037f00000000000000000000000000000000000000000000000000000000000000008116600483015286811660248301526044820185905260648201869052915191909216916375892cf19160848083019260209291908290030181600087803b158015610abe57600080fd5b505af1158015610ad2573d6000803e3d6000fd5b505050506040513d6020811015610ae857600080fd5b5050505b60008054610b0c916001600160a01b03858116926101009004169061195d565b600054610b2d906001600160a01b038481169161010090041660001961195d565b600054604080516370a0823160e01b815230600482015290516001600160a01b036101009093048316926347e7ef24928692918316916370a0823191602480820192602092909190829003018186803b158015610b8957600080fd5b505afa158015610b9d573d6000803e3d6000fd5b505050506040513d6020811015610bb357600080fd5b5051604080516001600160e01b031960e086901b1681526001600160a01b03909316600484015260248301919091525160448083019260209291908290030181600087803b158015610c0457600080fd5b505af1158015610c18573d6000803e3d6000fd5b505050506040513d6020811015610c2e57600080fd5b50505050565b7f00000000000000000000000000000000000000000000000000000000000000006001600160a01b0316631fe4a6866040518163ffffffff1660e01b815260040160206040518083038186803b158015610c8d57600080fd5b505afa158015610ca1573d6000803e3d6000fd5b505050506040513d6020811015610cb757600080fd5b50516001600160a01b03163314610d03576040805162461bcd60e51b815260206004820152600b60248201526a085cdd1c985d1959da5cdd60aa1b604482015290519081900360640190fd5b7f00000000000000000000000000000000000000000000000000000000000000006001600160a01b0316826001600160a01b03161415610d74576040805162461bcd60e51b815260206004820152600760248201526610afba37b5b2b760c91b604482015290519081900360640190fd5b610e0281836001600160a01b03166370a08231306040518263ffffffff1660e01b815260040180826001600160a01b0316815260200191505060206040518083038186803b158015610dc557600080fd5b505afa158015610dd9573d6000803e3d6000fd5b505050506040513d6020811015610def57600080fd5b50516001600160a01b03851691906118a3565b5050565b336001600160a01b037f00000000000000000000000000000000000000000000000000000000000000001614610e70576040805162461bcd60e51b815260206004820152600a602482015269085b595d185d985d5b1d60b21b604482015290519081900360640190fd5b6040805182815290517fe9d573778e0925491fffd3b5b980fb161b898fd42d8e2dcd7c128f9de611c1bc9181900360200190a15050565b7f00000000000000000000000000000000000000000000000000000000000000006001600160a01b0316631fe4a6866040518163ffffffff1660e01b815260040160206040518083038186803b158015610f0057600080fd5b505afa158015610f14573d6000803e3d6000fd5b505050506040513d6020811015610f2a57600080fd5b50516001600160a01b03163314610f76576040805162461bcd60e51b815260206004820152600b60248201526a085cdd1c985d1959da5cdd60aa1b604482015290519081900360640190fd5b600180546001600160a01b0319166001600160a01b0392909216919091179055565b7f000000000000000000000000000000000000000000000000000000000000000081565b6001546001600160a01b031681565b61271081565b60005461010090046001600160a01b031661101c576040805162461bcd60e51b8152602060048201526006602482015265085d985d5b1d60d21b604482015290519081900360640190fd5b336001600160a01b037f00000000000000000000000000000000000000000000000000000000000000001614611086576040805162461bcd60e51b815260206004820152600a602482015269085b595d185d985d5b1d60b21b604482015290519081900360640190fd5b60007f00000000000000000000000000000000000000000000000000000000000000006001600160a01b03166370a08231306040518263ffffffff1660e01b815260040180826001600160a01b0316815260200191505060206040518083038186803b1580156110f557600080fd5b505afa158015611109573d6000803e3d6000fd5b505050506040513d602081101561111f57600080fd5b505190508181106111835761117e6001600160a01b037f0000000000000000000000000000000000000000000000000000000000000000167f0000000000000000000000000000000000000000000000000000000000000000846118a3565b611723565b600061118f8383611a70565b90506060600060019054906101000a90046001600160a01b03166001600160a01b031663aa6ca8086040518163ffffffff1660e01b815260040160006040518083038186803b1580156111e157600080fd5b505afa1580156111f5573d6000803e3d6000fd5b505050506040513d6000823e601f3d908101601f19168201604052602081101561121e57600080fd5b810190808051604051939291908464010000000082111561123e57600080fd5b90830190602082018581111561125357600080fd5b825186602082028301116401000000008211171561127057600080fd5b82525081516020918201928201910280838360005b8381101561129d578181015183820152602001611285565b50505050905001604052505050905060008151116112ed576040805162461bcd60e51b8152602060048201526008602482015267215f746f6b656e7360c01b604482015290519081900360640190fd5b60015481516000916001600160a01b03169063717e7389907f0000000000000000000000000000000000000000000000000000000000000000908590859061133157fe5b6020026020010151866040518463ffffffff1660e01b815260040180846001600160a01b03168152602001836001600160a01b03168152602001828152602001935050505060206040518083038186803b15801561138e57600080fd5b505afa1580156113a2573d6000803e3d6000fd5b505050506040513d60208110156113b857600080fd5b50516000805460408051631df1ee3f60e21b815290519394509192611450926101009092046001600160a01b0316916377c7b8fc916004808301926020929190829003018186803b15801561140c57600080fd5b505afa158015611420573d6000803e3d6000fd5b505050506040513d602081101561143657600080fd5b505161144a84670de0b6b3a7640000611acd565b90611b26565b9050600060019054906101000a90046001600160a01b03166001600160a01b031662f714ce828560008151811061148357fe5b60200260200101516040518363ffffffff1660e01b815260040180838152602001826001600160a01b0316815260200192505050600060405180830381600087803b1580156114d157600080fd5b505af11580156114e5573d6000803e3d6000fd5b50505050826000815181106114f657fe5b60200260200101516001600160a01b03166370a08231306040518263ffffffff1660e01b815260040180826001600160a01b0316815260200191505060206040518083038186803b15801561154a57600080fd5b505afa15801561155e573d6000803e3d6000fd5b505050506040513d602081101561157457600080fd5b505160015484519196506115bb916001600160a01b03909116908790869060009061159b57fe5b60200260200101516001600160a01b03166118a39092919063ffffffff16565b60015483516001600160a01b03909116906375892cf19085906000906115dd57fe5b60200260200101517f00000000000000000000000000000000000000000000000000000000000000008860016040518563ffffffff1660e01b815260040180856001600160a01b03168152602001846001600160a01b03168152602001838152602001828152602001945050505050602060405180830381600087803b15801561166657600080fd5b505af115801561167a573d6000803e3d6000fd5b505050506040513d602081101561169057600080fd5b5050604080516370a0823160e01b8152306004820152905161171e917f0000000000000000000000000000000000000000000000000000000000000000916001600160a01b037f000000000000000000000000000000000000000000000000000000000000000016916370a08231916024808301926020929190829003018186803b15801561051157600080fd5b505050505b6040805183815290517f5b6b431d4476a211bb7d41c20d1aab9ae2321deee0d20be3d9fc9b1093fa6e3d9181900360200190a1505050565b60005461010090046001600160a01b031681565b7f000000000000000000000000000000000000000000000000000000000000000081565b6000827f00000000000000000000000000000000000000000000000000000000000000006001600160a01b0316816001600160a01b031614611806576040805162461bcd60e51b815260206004820152600760248201526610afba37b5b2b760c91b604482015290519081900360640190fd5b61189b61271061144a857f00000000000000000000000000000000000000000000000000000000000000006001600160a01b031663825139096040518163ffffffff1660e01b815260040160206040518083038186803b15801561186957600080fd5b505afa15801561187d573d6000803e3d6000fd5b505050506040513d602081101561189357600080fd5b505190611acd565b949350505050565b604080516001600160a01b038416602482015260448082018490528251808303909101815260649091019091526020810180516001600160e01b031663a9059cbb60e01b1790526118f5908490611b8d565b505050565b600082820183811015611954576040805162461bcd60e51b815260206004820152601b60248201527f536166654d6174683a206164646974696f6e206f766572666c6f770000000000604482015290519081900360640190fd5b90505b92915050565b8015806119e3575060408051636eb1769f60e11b81523060048201526001600160a01b03848116602483015291519185169163dd62ed3e91604480820192602092909190829003018186803b1580156119b557600080fd5b505afa1580156119c9573d6000803e3d6000fd5b505050506040513d60208110156119df57600080fd5b5051155b611a1e5760405162461bcd60e51b8152600401808060200182810382526036815260200180611e5a6036913960400191505060405180910390fd5b604080516001600160a01b038416602482015260448082018490528251808303909101815260649091019091526020810180516001600160e01b031663095ea7b360e01b1790526118f5908490611b8d565b600082821115611ac7576040805162461bcd60e51b815260206004820152601e60248201527f536166654d6174683a207375627472616374696f6e206f766572666c6f770000604482015290519081900360640190fd5b50900390565b600082611adc57506000611957565b82820282848281611ae957fe5b04146119545760405162461bcd60e51b8152600401808060200182810382526021815260200180611e0f6021913960400191505060405180910390fd5b6000808211611b7c576040805162461bcd60e51b815260206004820152601a60248201527f536166654d6174683a206469766973696f6e206279207a65726f000000000000604482015290519081900360640190fd5b818381611b8557fe5b049392505050565b6060611be2826040518060400160405280602081526020017f5361666545524332303a206c6f772d6c6576656c2063616c6c206661696c6564815250856001600160a01b0316611c3e9092919063ffffffff16565b8051909150156118f557808060200190516020811015611c0157600080fd5b50516118f55760405162461bcd60e51b815260040180806020018281038252602a815260200180611e30602a913960400191505060405180910390fd5b606061189b848460008585611c5285611d64565b611ca3576040805162461bcd60e51b815260206004820152601d60248201527f416464726573733a2063616c6c20746f206e6f6e2d636f6e7472616374000000604482015290519081900360640190fd5b60006060866001600160a01b031685876040518082805190602001908083835b60208310611ce25780518252601f199092019160209182019101611cc3565b6001836020036101000a03801982511681845116808217855250505050505090500191505060006040518083038185875af1925050503d8060008114611d44576040519150601f19603f3d011682016040523d82523d6000602084013e611d49565b606091505b5091509150611d59828286611d6a565b979650505050505050565b3b151590565b60608315611d7957508161071e565b825115611d895782518084602001fd5b8160405162461bcd60e51b81526004018080602001828103825283818151815260200191508051906020019080838360005b83811015611dd3578181015183820152602001611dbb565b50505050905090810190601f168015611e005780820380516001836020036101000a031916815260200191505b509250505060405180910390fdfe536166654d6174683a206d756c7469706c69636174696f6e206f766572666c6f775361666545524332303a204552433230206f7065726174696f6e20646964206e6f7420737563636565645361666545524332303a20617070726f76652066726f6d206e6f6e2d7a65726f20746f206e6f6e2d7a65726f20616c6c6f77616e6365a264697066735822122005784451b0f543286250eb1dd2ce68164b5aa1320022af3232ae9f6acb3e517d64736f6c634300060c0033",
  "linkReferences": {},
  "deployedLinkReferences": {}
}