{
  "_format": "hh-sol-artifact-1",
  "contractName": "MockStabilizePool",
  "sourceName": "contracts/mock/MockStabilizePool.sol",
  "abi": [
    {
      "inputs": [
        {
          "internalType": "address",
          "name": "_lpToken",
          "type": "address"
        },
        {
          "internalType": "address",
          "name": "_rewardToken",
          "type": "address"
        },
        {
          "internalType": "uint256",
          "name": "_rewardRate",
          "type": "uint256"
        }
      ],
      "stateMutability": "nonpayable",
      "type": "constructor"
    },
    {
      "inputs": [
        {
          "internalType": "uint256",
          "name": "_pid",
          "type": "uint256"
        },
        {
          "internalType": "uint256",
          "name": "_amount",
          "type": "uint256"
        }
      ],
      "name": "deposit",
      "outputs": [],
      "stateMutability": "nonpayable",
      "type": "function"
    },
    {
      "inputs": [
        {
          "internalType": "uint256",
          "name": "_pid",
          "type": "uint256"
        },
        {
          "internalType": "uint256",
          "name": "_amount",
          "type": "uint256"
        }
      ],
      "name": "exit",
      "outputs": [],
      "stateMutability": "nonpayable",
      "type": "function"
    },
    {
      "inputs": [
        {
          "internalType": "uint256",
          "name": "_pid",
          "type": "uint256"
        }
      ],
      "name": "getReward",
      "outputs": [],
      "stateMutability": "nonpayable",
      "type": "function"
    },
    {
      "inputs": [],
      "name": "lpToken",
      "outputs": [
        {
          "internalType": "contract IERC20",
          "name": "",
          "type": "address"
        }
      ],
      "stateMutability": "view",
      "type": "function"
    },
    {
      "inputs": [
        {
          "internalType": "uint256",
          "name": "_pid",
          "type": "uint256"
        },
        {
          "internalType": "address",
          "name": "_user",
          "type": "address"
        }
      ],
      "name": "poolBalance",
      "outputs": [
        {
          "internalType": "uint256",
          "name": "",
          "type": "uint256"
        }
      ],
      "stateMutability": "view",
      "type": "function"
    },
    {
      "inputs": [
        {
          "internalType": "uint256",
          "name": "",
          "type": "uint256"
        }
      ],
      "name": "poolTokenAddress",
      "outputs": [
        {
          "internalType": "address",
          "name": "",
          "type": "address"
        }
      ],
      "stateMutability": "view",
      "type": "function"
    },
    {
      "inputs": [
        {
          "internalType": "uint256",
          "name": "_pid",
          "type": "uint256"
        },
        {
          "internalType": "address",
          "name": "_user",
          "type": "address"
        }
      ],
      "name": "rewardEarned",
      "outputs": [
        {
          "internalType": "uint256",
          "name": "",
          "type": "uint256"
        }
      ],
      "stateMutability": "view",
      "type": "function"
    },
    {
      "inputs": [],
      "name": "rewardRate",
      "outputs": [
        {
          "internalType": "uint256",
          "name": "",
          "type": "uint256"
        }
      ],
      "stateMutability": "view",
      "type": "function"
    },
    {
      "inputs": [],
      "name": "rewardToken",
      "outputs": [
        {
          "internalType": "contract IERC20",
          "name": "",
          "type": "address"
        }
      ],
      "stateMutability": "view",
      "type": "function"
    },
    {
      "inputs": [
        {
          "internalType": "uint256",
          "name": "_pid",
          "type": "uint256"
        },
        {
          "internalType": "uint256",
          "name": "_amount",
          "type": "uint256"
        }
      ],
      "name": "withdraw",
      "outputs": [],
      "stateMutability": "nonpayable",
      "type": "function"
    }
  ],
  "bytecode": "0x608060405234801561001057600080fd5b5060405161098e38038061098e8339818101604052606081101561003357600080fd5b5080516020820151604090920151600080546001600160a01b039384166001600160a01b031991821617909155600180549390941692169190911790915560025561090b806100836000396000f3fe608060405234801561001057600080fd5b506004361061009e5760003560e01c80635fcbd285116100665780635fcbd2851461017f5780637b0a47ee14610187578063cdfa2c361461018f578063e2bbb158146101bb578063f7c618c1146101de5761009e565b80631c4b774b146100a35780632af9cc41146100c25780632eb5d00d146100e5578063351e7cb31461011e578063441a3e701461015c575b600080fd5b6100c0600480360360208110156100b957600080fd5b50356101e6565b005b6100c0600480360360408110156100d857600080fd5b5080359060200135610210565b610102600480360360208110156100fb57600080fd5b5035610223565b604080516001600160a01b039092168252519081900360200190f35b61014a6004803603604081101561013457600080fd5b50803590602001356001600160a01b031661023e565b60408051918252519081900360200190f35b6100c06004803603604081101561017257600080fd5b5080359060200135610268565b6101026102c0565b61014a6102cf565b61014a600480360360408110156101a557600080fd5b50803590602001356001600160a01b03166102d5565b6100c0600480360360408110156101d157600080fd5b5080359060200135610300565b610102610359565b60006101f282336102d5565b60015490915061020c906001600160a01b03163383610368565b5050565b61021a8282610268565b61020c826101e6565b6004602052600090815260409020546001600160a01b031681565b60008281526003602090815260408083206001600160a01b03851684529091529020545b92915050565b600082815260036020908152604080832033845290915290205461028c90826103bf565b60008381526003602090815260408083203380855292528220929092555461020c916001600160a01b039091169083610368565b6000546001600160a01b031681565b60025481565b60006102f96103e86102f36002546102ed878761023e565b9061041c565b90610475565b9392505050565b600082815260036020908152604080832033845290915290205461032490826104dc565b60008381526003602090815260408083203380855292528220929092555461020c916001600160a01b03909116903084610536565b6001546001600160a01b031681565b604080516001600160a01b038416602482015260448082018490528251808303909101815260649091019091526020810180516001600160e01b031663a9059cbb60e01b1790526103ba908490610596565b505050565b600082821115610416576040805162461bcd60e51b815260206004820152601e60248201527f536166654d6174683a207375627472616374696f6e206f766572666c6f770000604482015290519081900360640190fd5b50900390565b60008261042b57506000610262565b8282028284828161043857fe5b04146102f95760405162461bcd60e51b815260040180806020018281038252602181526020018061088b6021913960400191505060405180910390fd5b60008082116104cb576040805162461bcd60e51b815260206004820152601a60248201527f536166654d6174683a206469766973696f6e206279207a65726f000000000000604482015290519081900360640190fd5b8183816104d457fe5b049392505050565b6000828201838110156102f9576040805162461bcd60e51b815260206004820152601b60248201527f536166654d6174683a206164646974696f6e206f766572666c6f770000000000604482015290519081900360640190fd5b604080516001600160a01b0380861660248301528416604482015260648082018490528251808303909101815260849091019091526020810180516001600160e01b03166323b872dd60e01b179052610590908590610596565b50505050565b60606105eb826040518060400160405280602081526020017f5361666545524332303a206c6f772d6c6576656c2063616c6c206661696c6564815250856001600160a01b03166106479092919063ffffffff16565b8051909150156103ba5780806020019051602081101561060a57600080fd5b50516103ba5760405162461bcd60e51b815260040180806020018281038252602a8152602001806108ac602a913960400191505060405180910390fd5b6060610656848460008561065e565b949350505050565b60608247101561069f5760405162461bcd60e51b81526004018080602001828103825260268152602001806108656026913960400191505060405180910390fd5b6106a8856107ba565b6106f9576040805162461bcd60e51b815260206004820152601d60248201527f416464726573733a2063616c6c20746f206e6f6e2d636f6e7472616374000000604482015290519081900360640190fd5b60006060866001600160a01b031685876040518082805190602001908083835b602083106107385780518252601f199092019160209182019101610719565b6001836020036101000a03801982511681845116808217855250505050505090500191505060006040518083038185875af1925050503d806000811461079a576040519150601f19603f3d011682016040523d82523d6000602084013e61079f565b606091505b50915091506107af8282866107c0565b979650505050505050565b3b151590565b606083156107cf5750816102f9565b8251156107df5782518084602001fd5b8160405162461bcd60e51b81526004018080602001828103825283818151815260200191508051906020019080838360005b83811015610829578181015183820152602001610811565b50505050905090810190601f1680156108565780820380516001836020036101000a031916815260200191505b509250505060405180910390fdfe416464726573733a20696e73756666696369656e742062616c616e636520666f722063616c6c536166654d6174683a206d756c7469706c69636174696f6e206f766572666c6f775361666545524332303a204552433230206f7065726174696f6e20646964206e6f742073756363656564a264697066735822122036a09c90564077fd87b964c06a518893741b66261f81203d78f209a101fb4aeb64736f6c634300060c0033",
  "linkReferences": {},
  "deployedLinkReferences": {}
}