{
  "address": "0x849851A7683cfF52De5F50C712C0606FEf6A3e8f",
  "abi": [
    {
      "inputs": [
        {
          "internalType": "bytes",
          "name": "salt",
          "type": "bytes"
        },
        {
          "internalType": "bytes",
          "name": "data",
          "type": "bytes"
        },
        {
          "internalType": "uint256",
          "name": "iterations",
          "type": "uint256"
        }
      ],
      "name": "hash",
      "outputs": [
        {
          "internalType": "bytes32",
          "name": "",
          "type": "bytes32"
        }
      ],
      "stateMutability": "pure",
      "type": "function"
    }
  ],
  "transactionHash": "0x1e9806d0963233a2ceec08d32665ad9be97ef45c029d597480e37bdfc2055fa5",
  "args": [],
  "solcInputHash": "40ce5451dce8f428cafdaca8fb82d91d",
  "bytecode": "0x608060405234801561001057600080fd5b50610d61806100206000396000f3fe608060405234801561001057600080fd5b506004361061002b5760003560e01c806368f9dab214610030575b600080fd5b61004a60048036038101906100459190610a91565b610060565b6040516100579190610b29565b60405180910390f35b600061006a610a18565b61009a601086869050898990506100819190610b44565b61008b9190610b44565b8261024290919063ffffffff16565b506100f285858080601f016020809104026020016040519081016040528093929190818152602001838380828437600081840152601f19601f82011690508083019250505050505050826102ac90919063ffffffff16565b5061014a87878080601f016020809104026020016040519081016040528093929190818152602001838380828437600081840152601f19601f82011690508083019250505050505050826102ac90919063ffffffff16565b50600061015a82600001516102ce565b905060008411156102255761016e826107ec565b50610186600060601b8361080390919063ffffffff16565b506101de88888080601f016020809104026020016040519081016040528093929190818152602001838380828437600081840152601f19601f82011690508083019250505050505050836102ac90919063ffffffff16565b5060005b8481101561022357610200600083856108349092919063ffffffff16565b5061020e83600001516102ce565b9150808061021b90610c3c565b9150506101e2565b505b806bffffffffffffffffffffffff19169250505095945050505050565b61024a610a18565b60006020836102599190610c85565b146102855760208261026b9190610c85565b60206102779190610bf4565b826102829190610b44565b91505b81836020018181525050604051808452600081528281016020016040525082905092915050565b6102b4610a18565b6102c683846000015151848551610861565b905092915050565b60006040518251602084019350604067ffffffffffffffc0600183011601600982820310600181146102ff57610306565b6040820191505b50776745230100efcdab890098badcfe001032547600c3d2e1f061035e565b6000838310156103575782820151905082840393506020841015610356576001846020036101000a03198082169150505b5b9392505050565b60005b8281101561076c57610374848289610325565b8552610384846020830189610325565b60208601526040818503106001811461039c576103a5565b60808286038701535b50604083038114600181146103b9576103c9565b6008850260208701511760208701525b5060405b60808110156104555760408103860151603882038701511860208203870151600c830388015118187c010000000100000001000000010000000100000001000000010000000163800000008204167ffffffffefffffffefffffffefffffffefffffffefffffffefffffffefffffffe6002830216179050808288015250600c810190506103cd565b5060805b6101408110156104e257608081038601516070820387015118604082038701516018830388015118187c030000000300000003000000030000000300000003000000030000000363400000008204167ffffffffcfffffffcfffffffcfffffffcfffffffcfffffffcfffffffcfffffffc6004830216179050808288015250601881019050610459565b508160008060005b605081101561073e57601481046000811461051c576001811461056657600281146105a357600381146106065761063f565b6501000000000085046a01000000000000000000008604189350836f01000000000000000000000000000000860416935083650100000000008604189350635a827999925061063f565b6a010000000000000000000085046f01000000000000000000000000000000860418935083650100000000008604189350636ed9eba1925061063f565b6a010000000000000000000085046f01000000000000000000000000000000860417935083650100000000008604169350836a010000000000000000000086046f01000000000000000000000000000000870416179350638f1bbcdc925061063f565b6a010000000000000000000085046f0100000000000000000000000000000086041893508365010000000000860418935063ca62c1d692505b50601f770800000000000000000000000000000000000000000000008504168063ffffffe073080000000000000000000000000000000000000087041617905080840190508063ffffffff86160190508083019050807c0100000000000000000000000000000000000000000000000000000000600484028c0151040190507401000000000000000000000000000000000000000081026501000000000086041794506a0100000000000000000000633fffffff6a040000000000000000000087041663c00000006604000000000000880416170277ffffffff00ffffffff000000000000ffffffff00ffffffff8616179450506001810190506104ea565b5077ffffffff00ffffffff00ffffffff00ffffffff00ffffffff838601169450505050604081019050610361565b506c0100000000000000000000000063ffffffff821667ffffffff000000006101008404166bffffffff0000000000000000620100008504166fffffffff000000000000000000000000630100000086041673ffffffff000000000000000000000000000000006401000000008704161717171702945050505050919050565b6107f4610a18565b81516000815250819050919050565b61080b610a18565b61082c83846000015151846bffffffffffffffffffffffff19166014610950565b905092915050565b61083c610a18565b6108588484846bffffffffffffffffffffffff19166014610950565b90509392505050565b610869610a18565b825182111561087757600080fd5b846020015182856108889190610b44565b11156108bd576108bc8560026108ad886020015188876108a89190610b44565b6109d8565b6108b79190610b9a565b6109f4565b5b6000808651805187602083010193508088870111156108dc5787860182525b60208701925050505b6020841061092357805182526020826108fe9190610b44565b915060208161090d9190610b44565b905060208461091c9190610bf4565b93506108e5565b60006001856020036101000a03905080198251168184511681811785525050508692505050949350505050565b610958610a18565b846020015184836109699190610b44565b11156109915761099085600286856109819190610b44565b61098b9190610b9a565b6109f4565b5b60006001836101000a0390508260200360080284901c935085518386820101858319825116178152815185880111156109ca5784870182525b505050849050949350505050565b6000818311156109ea578290506109ee565b8190505b92915050565b600082600001519050610a078383610242565b50610a1283826102ac565b50505050565b604051806040016040528060608152602001600081525090565b60008083601f840112610a4457600080fd5b8235905067ffffffffffffffff811115610a5d57600080fd5b602083019150836001820283011115610a7557600080fd5b9250929050565b600081359050610a8b81610d14565b92915050565b600080600080600060608688031215610aa957600080fd5b600086013567ffffffffffffffff811115610ac357600080fd5b610acf88828901610a32565b9550955050602086013567ffffffffffffffff811115610aee57600080fd5b610afa88828901610a32565b93509350506040610b0d88828901610a7c565b9150509295509295909350565b610b2381610c28565b82525050565b6000602082019050610b3e6000830184610b1a565b92915050565b6000610b4f82610c32565b9150610b5a83610c32565b9250827fffffffffffffffffffffffffffffffffffffffffffffffffffffffffffffffff03821115610b8f57610b8e610cb6565b5b828201905092915050565b6000610ba582610c32565b9150610bb083610c32565b9250817fffffffffffffffffffffffffffffffffffffffffffffffffffffffffffffffff0483118215151615610be957610be8610cb6565b5b828202905092915050565b6000610bff82610c32565b9150610c0a83610c32565b925082821015610c1d57610c1c610cb6565b5b828203905092915050565b6000819050919050565b6000819050919050565b6000610c4782610c32565b91507fffffffffffffffffffffffffffffffffffffffffffffffffffffffffffffffff821415610c7a57610c79610cb6565b5b600182019050919050565b6000610c9082610c32565b9150610c9b83610c32565b925082610cab57610caa610ce5565b5b828206905092915050565b7f4e487b7100000000000000000000000000000000000000000000000000000000600052601160045260246000fd5b7f4e487b7100000000000000000000000000000000000000000000000000000000600052601260045260246000fd5b610d1d81610c32565b8114610d2857600080fd5b5056fea264697066735822122014909039cf171591f8629bfc52114a9908cd2479bcd90c7bef5c7a119ab14a3264736f6c63430008040033",
  "devdoc": {
    "details": "Implements the DNSSEC iterated SHA1 digest used for NSEC3 records.",
    "kind": "dev",
    "methods": {
      "hash(bytes,bytes,uint256)": {
        "details": "Performs an NSEC3 iterated hash.",
        "params": {
          "data": "The data to hash.",
          "iterations": "The number of iterations to perform.",
          "salt": "The salt value to use on each iteration."
        },
        "returns": {
          "_0": "The result of the iterated hash operation."
        }
      }
    },
    "version": 1
  },
  "userdoc": {
    "kind": "user",
    "methods": {},
    "version": 1
  },
  "storageLayout": {
    "storage": [],
    "types": null
  }
}