{
  "_format": "hh-sol-artifact-1",
  "contractName": "Manager",
  "sourceName": "contracts/v3/Manager.sol",
  "abi": [
    {
      "inputs": [
        {
          "internalType": "address",
          "name": "_yaxis",
          "type": "address"
        }
      ],
      "stateMutability": "nonpayable",
      "type": "constructor"
    },
    {
      "anonymous": false,
      "inputs": [
        {
          "indexed": true,
          "internalType": "address",
          "name": "_controller",
          "type": "address"
        },
        {
          "indexed": false,
          "internalType": "bool",
          "name": "_allowed",
          "type": "bool"
        }
      ],
      "name": "AllowedController",
      "type": "event"
    },
    {
      "anonymous": false,
      "inputs": [
        {
          "indexed": true,
          "internalType": "address",
          "name": "_converter",
          "type": "address"
        },
        {
          "indexed": false,
          "internalType": "bool",
          "name": "_allowed",
          "type": "bool"
        }
      ],
      "name": "AllowedConverter",
      "type": "event"
    },
    {
      "anonymous": false,
      "inputs": [
        {
          "indexed": true,
          "internalType": "address",
          "name": "_strategy",
          "type": "address"
        },
        {
          "indexed": false,
          "internalType": "bool",
          "name": "_allowed",
          "type": "bool"
        }
      ],
      "name": "AllowedStrategy",
      "type": "event"
    },
    {
      "anonymous": false,
      "inputs": [
        {
          "indexed": true,
          "internalType": "address",
          "name": "_token",
          "type": "address"
        },
        {
          "indexed": false,
          "internalType": "bool",
          "name": "_allowed",
          "type": "bool"
        }
      ],
      "name": "AllowedToken",
      "type": "event"
    },
    {
      "anonymous": false,
      "inputs": [
        {
          "indexed": true,
          "internalType": "address",
          "name": "_vault",
          "type": "address"
        },
        {
          "indexed": false,
          "internalType": "bool",
          "name": "_allowed",
          "type": "bool"
        }
      ],
      "name": "AllowedVault",
      "type": "event"
    },
    {
      "anonymous": false,
      "inputs": [],
      "name": "Halted",
      "type": "event"
    },
    {
      "anonymous": false,
      "inputs": [
        {
          "indexed": true,
          "internalType": "address",
          "name": "_vault",
          "type": "address"
        },
        {
          "indexed": true,
          "internalType": "address",
          "name": "_controller",
          "type": "address"
        }
      ],
      "name": "SetController",
      "type": "event"
    },
    {
      "anonymous": false,
      "inputs": [
        {
          "indexed": true,
          "internalType": "address",
          "name": "_governance",
          "type": "address"
        }
      ],
      "name": "SetGovernance",
      "type": "event"
    },
    {
      "anonymous": false,
      "inputs": [
        {
          "indexed": true,
          "internalType": "address",
          "name": "_strategist",
          "type": "address"
        }
      ],
      "name": "SetPendingStrategist",
      "type": "event"
    },
    {
      "anonymous": false,
      "inputs": [
        {
          "indexed": true,
          "internalType": "address",
          "name": "_strategist",
          "type": "address"
        }
      ],
      "name": "SetStrategist",
      "type": "event"
    },
    {
      "anonymous": false,
      "inputs": [
        {
          "indexed": true,
          "internalType": "address",
          "name": "_vault",
          "type": "address"
        },
        {
          "indexed": true,
          "internalType": "address",
          "name": "_token",
          "type": "address"
        }
      ],
      "name": "TokenAdded",
      "type": "event"
    },
    {
      "anonymous": false,
      "inputs": [
        {
          "indexed": true,
          "internalType": "address",
          "name": "_vault",
          "type": "address"
        },
        {
          "indexed": true,
          "internalType": "address",
          "name": "_token",
          "type": "address"
        }
      ],
      "name": "TokenRemoved",
      "type": "event"
    },
    {
      "inputs": [],
      "name": "MAX_TOKENS",
      "outputs": [
        {
          "internalType": "uint256",
          "name": "",
          "type": "uint256"
        }
      ],
      "stateMutability": "view",
      "type": "function"
    },
    {
      "inputs": [],
      "name": "PENDING_STRATEGIST_TIMELOCK",
      "outputs": [
        {
          "internalType": "uint256",
          "name": "",
          "type": "uint256"
        }
      ],
      "stateMutability": "view",
      "type": "function"
    },
    {
      "inputs": [],
      "name": "acceptStrategist",
      "outputs": [],
      "stateMutability": "nonpayable",
      "type": "function"
    },
    {
      "inputs": [
        {
          "internalType": "address",
          "name": "_vault",
          "type": "address"
        },
        {
          "internalType": "address",
          "name": "_token",
          "type": "address"
        }
      ],
      "name": "addToken",
      "outputs": [],
      "stateMutability": "nonpayable",
      "type": "function"
    },
    {
      "inputs": [
        {
          "internalType": "address",
          "name": "",
          "type": "address"
        }
      ],
      "name": "allowedControllers",
      "outputs": [
        {
          "internalType": "bool",
          "name": "",
          "type": "bool"
        }
      ],
      "stateMutability": "view",
      "type": "function"
    },
    {
      "inputs": [
        {
          "internalType": "address",
          "name": "",
          "type": "address"
        }
      ],
      "name": "allowedConverters",
      "outputs": [
        {
          "internalType": "bool",
          "name": "",
          "type": "bool"
        }
      ],
      "stateMutability": "view",
      "type": "function"
    },
    {
      "inputs": [
        {
          "internalType": "address",
          "name": "",
          "type": "address"
        }
      ],
      "name": "allowedStrategies",
      "outputs": [
        {
          "internalType": "bool",
          "name": "",
          "type": "bool"
        }
      ],
      "stateMutability": "view",
      "type": "function"
    },
    {
      "inputs": [
        {
          "internalType": "address",
          "name": "",
          "type": "address"
        }
      ],
      "name": "allowedTokens",
      "outputs": [
        {
          "internalType": "bool",
          "name": "",
          "type": "bool"
        }
      ],
      "stateMutability": "view",
      "type": "function"
    },
    {
      "inputs": [
        {
          "internalType": "address",
          "name": "",
          "type": "address"
        }
      ],
      "name": "allowedVaults",
      "outputs": [
        {
          "internalType": "bool",
          "name": "",
          "type": "bool"
        }
      ],
      "stateMutability": "view",
      "type": "function"
    },
    {
      "inputs": [
        {
          "internalType": "address",
          "name": "",
          "type": "address"
        }
      ],
      "name": "controllers",
      "outputs": [
        {
          "internalType": "address",
          "name": "",
          "type": "address"
        }
      ],
      "stateMutability": "view",
      "type": "function"
    },
    {
      "inputs": [],
      "name": "getHarvestFeeInfo",
      "outputs": [
        {
          "internalType": "address",
          "name": "",
          "type": "address"
        },
        {
          "internalType": "address",
          "name": "",
          "type": "address"
        },
        {
          "internalType": "uint256",
          "name": "",
          "type": "uint256"
        }
      ],
      "stateMutability": "view",
      "type": "function"
    },
    {
      "inputs": [
        {
          "internalType": "address",
          "name": "_vault",
          "type": "address"
        }
      ],
      "name": "getTokens",
      "outputs": [
        {
          "internalType": "address[]",
          "name": "",
          "type": "address[]"
        }
      ],
      "stateMutability": "view",
      "type": "function"
    },
    {
      "inputs": [],
      "name": "governance",
      "outputs": [
        {
          "internalType": "address",
          "name": "",
          "type": "address"
        }
      ],
      "stateMutability": "view",
      "type": "function"
    },
    {
      "inputs": [],
      "name": "halted",
      "outputs": [
        {
          "internalType": "bool",
          "name": "",
          "type": "bool"
        }
      ],
      "stateMutability": "view",
      "type": "function"
    },
    {
      "inputs": [],
      "name": "harvester",
      "outputs": [
        {
          "internalType": "address",
          "name": "",
          "type": "address"
        }
      ],
      "stateMutability": "view",
      "type": "function"
    },
    {
      "inputs": [],
      "name": "insuranceFee",
      "outputs": [
        {
          "internalType": "uint256",
          "name": "",
          "type": "uint256"
        }
      ],
      "stateMutability": "view",
      "type": "function"
    },
    {
      "inputs": [],
      "name": "insurancePool",
      "outputs": [
        {
          "internalType": "address",
          "name": "",
          "type": "address"
        }
      ],
      "stateMutability": "view",
      "type": "function"
    },
    {
      "inputs": [],
      "name": "insurancePoolFee",
      "outputs": [
        {
          "internalType": "uint256",
          "name": "",
          "type": "uint256"
        }
      ],
      "stateMutability": "view",
      "type": "function"
    },
    {
      "inputs": [],
      "name": "pendingStrategist",
      "outputs": [
        {
          "internalType": "address",
          "name": "",
          "type": "address"
        }
      ],
      "stateMutability": "view",
      "type": "function"
    },
    {
      "inputs": [
        {
          "internalType": "contract IERC20",
          "name": "_token",
          "type": "address"
        },
        {
          "internalType": "uint256",
          "name": "_amount",
          "type": "uint256"
        },
        {
          "internalType": "address",
          "name": "_to",
          "type": "address"
        }
      ],
      "name": "recoverToken",
      "outputs": [],
      "stateMutability": "nonpayable",
      "type": "function"
    },
    {
      "inputs": [
        {
          "internalType": "address",
          "name": "_vault",
          "type": "address"
        },
        {
          "internalType": "address",
          "name": "_token",
          "type": "address"
        }
      ],
      "name": "removeToken",
      "outputs": [],
      "stateMutability": "nonpayable",
      "type": "function"
    },
    {
      "inputs": [
        {
          "internalType": "address",
          "name": "_controller",
          "type": "address"
        },
        {
          "internalType": "bool",
          "name": "_allowed",
          "type": "bool"
        }
      ],
      "name": "setAllowedController",
      "outputs": [],
      "stateMutability": "nonpayable",
      "type": "function"
    },
    {
      "inputs": [
        {
          "internalType": "address",
          "name": "_converter",
          "type": "address"
        },
        {
          "internalType": "bool",
          "name": "_allowed",
          "type": "bool"
        }
      ],
      "name": "setAllowedConverter",
      "outputs": [],
      "stateMutability": "nonpayable",
      "type": "function"
    },
    {
      "inputs": [
        {
          "internalType": "address",
          "name": "_strategy",
          "type": "address"
        },
        {
          "internalType": "bool",
          "name": "_allowed",
          "type": "bool"
        }
      ],
      "name": "setAllowedStrategy",
      "outputs": [],
      "stateMutability": "nonpayable",
      "type": "function"
    },
    {
      "inputs": [
        {
          "internalType": "address",
          "name": "_token",
          "type": "address"
        },
        {
          "internalType": "bool",
          "name": "_allowed",
          "type": "bool"
        }
      ],
      "name": "setAllowedToken",
      "outputs": [],
      "stateMutability": "nonpayable",
      "type": "function"
    },
    {
      "inputs": [
        {
          "internalType": "address",
          "name": "_vault",
          "type": "address"
        },
        {
          "internalType": "bool",
          "name": "_allowed",
          "type": "bool"
        }
      ],
      "name": "setAllowedVault",
      "outputs": [],
      "stateMutability": "nonpayable",
      "type": "function"
    },
    {
      "inputs": [
        {
          "internalType": "address",
          "name": "_vault",
          "type": "address"
        },
        {
          "internalType": "address",
          "name": "_controller",
          "type": "address"
        }
      ],
      "name": "setController",
      "outputs": [],
      "stateMutability": "nonpayable",
      "type": "function"
    },
    {
      "inputs": [
        {
          "internalType": "address",
          "name": "_governance",
          "type": "address"
        }
      ],
      "name": "setGovernance",
      "outputs": [],
      "stateMutability": "nonpayable",
      "type": "function"
    },
    {
      "inputs": [],
      "name": "setHalted",
      "outputs": [],
      "stateMutability": "nonpayable",
      "type": "function"
    },
    {
      "inputs": [
        {
          "internalType": "address",
          "name": "_harvester",
          "type": "address"
        }
      ],
      "name": "setHarvester",
      "outputs": [],
      "stateMutability": "nonpayable",
      "type": "function"
    },
    {
      "inputs": [
        {
          "internalType": "uint256",
          "name": "_insuranceFee",
          "type": "uint256"
        }
      ],
      "name": "setInsuranceFee",
      "outputs": [],
      "stateMutability": "nonpayable",
      "type": "function"
    },
    {
      "inputs": [
        {
          "internalType": "address",
          "name": "_insurancePool",
          "type": "address"
        }
      ],
      "name": "setInsurancePool",
      "outputs": [],
      "stateMutability": "nonpayable",
      "type": "function"
    },
    {
      "inputs": [
        {
          "internalType": "uint256",
          "name": "_insurancePoolFee",
          "type": "uint256"
        }
      ],
      "name": "setInsurancePoolFee",
      "outputs": [],
      "stateMutability": "nonpayable",
      "type": "function"
    },
    {
      "inputs": [
        {
          "internalType": "address",
          "name": "_stakingPool",
          "type": "address"
        }
      ],
      "name": "setStakingPool",
      "outputs": [],
      "stateMutability": "nonpayable",
      "type": "function"
    },
    {
      "inputs": [
        {
          "internalType": "uint256",
          "name": "_stakingPoolShareFee",
          "type": "uint256"
        }
      ],
      "name": "setStakingPoolShareFee",
      "outputs": [],
      "stateMutability": "nonpayable",
      "type": "function"
    },
    {
      "inputs": [
        {
          "internalType": "address",
          "name": "_strategist",
          "type": "address"
        }
      ],
      "name": "setStrategist",
      "outputs": [],
      "stateMutability": "nonpayable",
      "type": "function"
    },
    {
      "inputs": [
        {
          "internalType": "address",
          "name": "_treasury",
          "type": "address"
        }
      ],
      "name": "setTreasury",
      "outputs": [],
      "stateMutability": "nonpayable",
      "type": "function"
    },
    {
      "inputs": [
        {
          "internalType": "uint256",
          "name": "_treasuryFee",
          "type": "uint256"
        }
      ],
      "name": "setTreasuryFee",
      "outputs": [],
      "stateMutability": "nonpayable",
      "type": "function"
    },
    {
      "inputs": [
        {
          "internalType": "uint256",
          "name": "_withdrawalProtectionFee",
          "type": "uint256"
        }
      ],
      "name": "setWithdrawalProtectionFee",
      "outputs": [],
      "stateMutability": "nonpayable",
      "type": "function"
    },
    {
      "inputs": [],
      "name": "stakingPool",
      "outputs": [
        {
          "internalType": "address",
          "name": "",
          "type": "address"
        }
      ],
      "stateMutability": "view",
      "type": "function"
    },
    {
      "inputs": [],
      "name": "stakingPoolShareFee",
      "outputs": [
        {
          "internalType": "uint256",
          "name": "",
          "type": "uint256"
        }
      ],
      "stateMutability": "view",
      "type": "function"
    },
    {
      "inputs": [],
      "name": "strategist",
      "outputs": [
        {
          "internalType": "address",
          "name": "",
          "type": "address"
        }
      ],
      "stateMutability": "view",
      "type": "function"
    },
    {
      "inputs": [
        {
          "internalType": "address",
          "name": "",
          "type": "address"
        },
        {
          "internalType": "uint256",
          "name": "",
          "type": "uint256"
        }
      ],
      "name": "tokens",
      "outputs": [
        {
          "internalType": "address",
          "name": "",
          "type": "address"
        }
      ],
      "stateMutability": "view",
      "type": "function"
    },
    {
      "inputs": [],
      "name": "treasury",
      "outputs": [
        {
          "internalType": "address",
          "name": "",
          "type": "address"
        }
      ],
      "stateMutability": "view",
      "type": "function"
    },
    {
      "inputs": [],
      "name": "treasuryFee",
      "outputs": [
        {
          "internalType": "uint256",
          "name": "",
          "type": "uint256"
        }
      ],
      "stateMutability": "view",
      "type": "function"
    },
    {
      "inputs": [
        {
          "internalType": "address",
          "name": "",
          "type": "address"
        }
      ],
      "name": "vaults",
      "outputs": [
        {
          "internalType": "address",
          "name": "",
          "type": "address"
        }
      ],
      "stateMutability": "view",
      "type": "function"
    },
    {
      "inputs": [],
      "name": "withdrawalProtectionFee",
      "outputs": [
        {
          "internalType": "uint256",
          "name": "",
          "type": "uint256"
        }
      ],
      "stateMutability": "view",
      "type": "function"
    },
    {
      "inputs": [],
      "name": "yaxis",
      "outputs": [
        {
          "internalType": "address",
          "name": "",
          "type": "address"
        }
      ],
      "stateMutability": "view",
      "type": "function"
    }
  ],
  "bytecode": "0x60a060405234801561001057600080fd5b506040516126f63803806126f68339818101604052602081101561003357600080fd5b50516001600160a01b03811661007a576040805162461bcd60e51b8152602060048201526007602482015266215f796178697360c81b604482015290519081900360640190fd5b606081901b6001600160601b03191660805260008054336001600160a01b0319918216811783556004805483168217905560018054831682179055600680549092161790556107d06009556101f4600a908155600b556001600160a01b03909116906125fe906100f8903980610aa752806123f752506125fe6000f3fe608060405234801561001057600080fd5b50600436106102a05760003560e01c806396d4370611610167578063c4c4f2ee116100ce578063da633d3111610087578063da633d31146107a0578063da8c229e146107d2578063e744092e146107f8578063e8d76bce1461081e578063f0f4426014610844578063f47c84c51461086a576102a0565b8063c4c4f2ee146106c3578063c7b9d530146106f1578063cc08c4cc14610717578063cc32d17614610734578063d04323c51461073c578063d2a3259f14610772576102a0565b8063ab2adc0011610120578063ab2adc001461067e578063b1c7d36f14610686578063b9b8af0b1461068e578063ba32681e14610696578063c3de0cc4146106b3578063c3f45387146106bb576102a0565b806396d43706146105ce5780639735b0e3146105d657806397c4fac714610604578063a622ee7c1461060c578063a94c487e14610632578063ab033ea914610658576102a0565b8063603dfcda1161020b5780637ae6c8d4116101c45780637ae6c8d4146105165780637b7d6c681461053c5780637d5c01551461056a5780638251390914610572578063836496741461057a5780638aaa2284146105a0576102a0565b8063603dfcda1461044f57806361d027b31461046c5780636aef220a146104745780636b0243bc146104ae5780636bbdc24b146104cb57806377e741c7146104f9576102a0565b806346821efa1161025d57806346821efa1461039d5780634abf825d146103b75780634bdaeac1146103e35780635476bd72146103eb5780635aa6e675146104195780635b301d4c14610421576102a0565b80630c56ae3b146102a557806315de1daa146102c95780631fe4a686146102f15780633028f63a146102f95780633f021b0e1461031f578063450efe2114610327575b600080fd5b6102ad610872565b604080516001600160a01b039092168252519081900360200190f35b6102ef600480360360208110156102df57600080fd5b50356001600160a01b0316610881565b005b6102ad6109e6565b6102ef6004803603602081101561030f57600080fd5b50356001600160a01b03166109f5565b6102ad610aa5565b61034d6004803603602081101561033d57600080fd5b50356001600160a01b0316610ac9565b60408051602080825283518183015283519192839290830191858101910280838360005b83811015610389578181015183820152602001610371565b505050509050019250505060405180910390f35b6103a5610b3f565b60408051918252519081900360200190f35b6102ad600480360360408110156103cd57600080fd5b506001600160a01b038135169060200135610b45565b6102ad610b7a565b6102ef6004803603604081101561040157600080fd5b506001600160a01b0381358116916020013516610b89565b6102ad610daf565b6102ef6004803603604081101561043757600080fd5b506001600160a01b0381351690602001351515610dbe565b6102ef6004803603602081101561046557600080fd5b5035610f61565b6102ad61104b565b61049a6004803603602081101561048a57600080fd5b50356001600160a01b031661105a565b604080519115158252519081900360200190f35b6102ef600480360360208110156104c457600080fd5b503561106f565b6102ef600480360360408110156104e157600080fd5b506001600160a01b0381351690602001351515611158565b6102ef6004803603602081101561050f57600080fd5b50356112fb565b61049a6004803603602081101561052c57600080fd5b50356001600160a01b03166113dd565b6102ef6004803603604081101561055257600080fd5b506001600160a01b03813581169160200135166113f2565b6103a561158a565b6103a5611591565b61049a6004803603602081101561059057600080fd5b50356001600160a01b0316611597565b6102ef600480360360408110156105b657600080fd5b506001600160a01b03813516906020013515156115ac565b6102ef61169a565b6102ef600480360360408110156105ec57600080fd5b506001600160a01b0381358116916020013516611760565b6103a561198a565b6102ad6004803603602081101561062257600080fd5b50356001600160a01b0316611990565b6102ef6004803603602081101561064857600080fd5b50356001600160a01b03166119ab565b6102ef6004803603602081101561066e57600080fd5b50356001600160a01b0316611a5b565b6102ad611b31565b6103a5611b40565b61049a611b46565b6102ef600480360360208110156106ac57600080fd5b5035611b4f565b6102ad611c30565b6102ef611c3f565b6102ef600480360360408110156106d957600080fd5b506001600160a01b0381351690602001351515611d85565b6102ef6004803603602081101561070757600080fd5b50356001600160a01b0316611f28565b6102ef6004803603602081101561072d57600080fd5b503561204d565b6103a5612137565b6102ef6004803603606081101561075257600080fd5b506001600160a01b0381358116916020810135916040909101351661213d565b6102ef6004803603604081101561078857600080fd5b506001600160a01b038135169060200135151561224c565b6107a86123ef565b604080516001600160a01b0394851681529290931660208301528183015290519081900360600190f35b6102ad600480360360208110156107e857600080fd5b50356001600160a01b0316612424565b61049a6004803603602081101561080e57600080fd5b50356001600160a01b031661243f565b61049a6004803603602081101561083457600080fd5b50356001600160a01b0316612454565b6102ef6004803603602081101561085a57600080fd5b50356001600160a01b0316612469565b6103a5612561565b6003546001600160a01b031681565b600c5460ff16156108c2576040805162461bcd60e51b81526020600482015260066024820152651a185b1d195960d21b604482015290519081900360640190fd5b6000546001600160a01b0316331461090f576040805162461bcd60e51b815260206004820152600b60248201526a21676f7665726e616e636560a81b604482015290519081900360640190fd5b306001600160a01b0316816001600160a01b031663481c6a756040518163ffffffff1660e01b815260040160206040518083038186803b15801561095257600080fd5b505afa158015610966573d6000803e3d6000fd5b505050506040513d602081101561097c57600080fd5b50516001600160a01b0316146109c4576040805162461bcd60e51b815260206004820152600860248201526710b6b0b730b3b2b960c11b604482015290519081900360640190fd5b600180546001600160a01b0319166001600160a01b0392909216919091179055565b6004546001600160a01b031681565b600c5460ff1615610a36576040805162461bcd60e51b81526020600482015260066024820152651a185b1d195960d21b604482015290519081900360640190fd5b6000546001600160a01b03163314610a83576040805162461bcd60e51b815260206004820152600b60248201526a21676f7665726e616e636560a81b604482015290519081900360640190fd5b600380546001600160a01b0319166001600160a01b0392909216919091179055565b7f000000000000000000000000000000000000000000000000000000000000000081565b6001600160a01b038116600090815260146020908152604091829020805483518184028101840190945280845260609392830182828015610b3357602002820191906000526020600020905b81546001600160a01b03168152600190910190602001808311610b15575b50505050509050919050565b60085481565b60146020528160005260406000208181548110610b5e57fe5b6000918252602090912001546001600160a01b03169150829050565b6001546001600160a01b031681565b600c5460ff1615610bca576040805162461bcd60e51b81526020600482015260066024820152651a185b1d195960d21b604482015290519081900360640190fd5b6004546001600160a01b03163314610c17576040805162461bcd60e51b815260206004820152600b60248201526a085cdd1c985d1959da5cdd60aa1b604482015290519081900360640190fd5b6001600160a01b03811660009081526011602052604090205460ff16610c75576040805162461bcd60e51b815260206004820152600e60248201526d21616c6c6f776564546f6b656e7360901b604482015290519081900360640190fd5b6001600160a01b03821660009081526012602052604090205460ff16610cd3576040805162461bcd60e51b815260206004820152600e60248201526d21616c6c6f7765645661756c747360901b604482015290519081900360640190fd5b6001600160a01b03821660009081526014602052604090205461010011610d2b576040805162461bcd60e51b81526020600482015260076024820152663e746f6b656e7360c81b604482015290519081900360640190fd5b6001600160a01b03808216600081815260156020908152604080832080549588166001600160a01b031996871681179091558084526014835281842080546001810182559085529284209092018054909516841790945592519192917fdffbd9ded1c09446f09377de547142dcce7dc541c8b0b028142b1eba7026b9e79190a35050565b6000546001600160a01b031681565b600c5460ff1615610dff576040805162461bcd60e51b81526020600482015260066024820152651a185b1d195960d21b604482015290519081900360640190fd5b6000546001600160a01b03163314610e4c576040805162461bcd60e51b815260206004820152600b60248201526a21676f7665726e616e636560a81b604482015290519081900360640190fd5b306001600160a01b0316826001600160a01b031663481c6a756040518163ffffffff1660e01b815260040160206040518083038186803b158015610e8f57600080fd5b505afa158015610ea3573d6000803e3d6000fd5b505050506040513d6020811015610eb957600080fd5b50516001600160a01b031614610f01576040805162461bcd60e51b815260206004820152600860248201526710b6b0b730b3b2b960c11b604482015290519081900360640190fd5b6001600160a01b0382166000818152600f6020908152604091829020805460ff1916851515908117909155825190815291517f1da9d4667c5bcfd6db52e9fa66b3bf5e3a0bb5cd3e198216853056d08a84a25e9281900390910190a25050565b600c5460ff1615610fa2576040805162461bcd60e51b81526020600482015260066024820152651a185b1d195960d21b604482015290519081900360640190fd5b6000546001600160a01b03163314610fef576040805162461bcd60e51b815260206004820152600b60248201526a21676f7665726e616e636560a81b604482015290519081900360640190fd5b611388811115611046576040805162461bcd60e51b815260206004820152601d60248201527f5f7374616b696e67506f6f6c5368617265466565206f76657220353025000000604482015290519081900360640190fd5b600955565b6006546001600160a01b031681565b600e6020526000908152604090205460ff1681565b600c5460ff16156110b0576040805162461bcd60e51b81526020600482015260066024820152651a185b1d195960d21b604482015290519081900360640190fd5b6000546001600160a01b031633146110fd576040805162461bcd60e51b815260206004820152600b60248201526a21676f7665726e616e636560a81b604482015290519081900360640190fd5b6064811115611153576040805162461bcd60e51b815260206004820181905260248201527f5f7769746864726177616c50726f74656374696f6e466565206f766572203125604482015290519081900360640190fd5b600b55565b600c5460ff1615611199576040805162461bcd60e51b81526020600482015260066024820152651a185b1d195960d21b604482015290519081900360640190fd5b6000546001600160a01b031633146111e6576040805162461bcd60e51b815260206004820152600b60248201526a21676f7665726e616e636560a81b604482015290519081900360640190fd5b306001600160a01b0316826001600160a01b031663481c6a756040518163ffffffff1660e01b815260040160206040518083038186803b15801561122957600080fd5b505afa15801561123d573d6000803e3d6000fd5b505050506040513d602081101561125357600080fd5b50516001600160a01b03161461129b576040805162461bcd60e51b815260206004820152600860248201526710b6b0b730b3b2b960c11b604482015290519081900360640190fd5b6001600160a01b038216600081815260126020908152604091829020805460ff1916851515908117909155825190815291517f782feb3c2ff233492ea8302a5109cb6f33fcdedaf15f4d4a7e847f3ec06c53829281900390910190a25050565b600c5460ff161561133c576040805162461bcd60e51b81526020600482015260066024820152651a185b1d195960d21b604482015290519081900360640190fd5b6000546001600160a01b03163314611389576040805162461bcd60e51b815260206004820152600b60248201526a21676f7665726e616e636560a81b604482015290519081900360640190fd5b6107d08111156113d8576040805162461bcd60e51b81526020600482015260156024820152745f7472656173757279466565206f7665722032302560581b604482015290519081900360640190fd5b600a55565b60106020526000908152604090205460ff1681565b600c5460ff1615611433576040805162461bcd60e51b81526020600482015260066024820152651a185b1d195960d21b604482015290519081900360640190fd5b6004546001600160a01b03163314611480576040805162461bcd60e51b815260206004820152600b60248201526a085cdd1c985d1959da5cdd60aa1b604482015290519081900360640190fd5b6001600160a01b03821660009081526012602052604090205460ff166114d7576040805162461bcd60e51b81526020600482015260076024820152660857dd985d5b1d60ca1b604482015290519081900360640190fd5b6001600160a01b0381166000908152600e602052604090205460ff16611533576040805162461bcd60e51b815260206004820152600c60248201526b10afb1b7b73a3937b63632b960a11b604482015290519081900360640190fd5b6001600160a01b0382811660008181526013602052604080822080546001600160a01b0319169486169485179055517f9fdb07212c6f92fd298affc4000712177664bc3c4cae5f61098d42da6d05be1e9190a35050565b62093a8081565b600b5481565b600f6020526000908152604090205460ff1681565b600c5460ff16156115ed576040805162461bcd60e51b81526020600482015260066024820152651a185b1d195960d21b604482015290519081900360640190fd5b6000546001600160a01b0316331461163a576040805162461bcd60e51b815260206004820152600b60248201526a21676f7665726e616e636560a81b604482015290519081900360640190fd5b6001600160a01b038216600081815260116020908152604091829020805460ff1916851515908117909155825190815291517f6bd3e0eb1458bd31e582b2c39532ad85abdb9839088714daa4c6bba0717da00f9281900390910190a25050565b600c5460ff16156116db576040805162461bcd60e51b81526020600482015260066024820152651a185b1d195960d21b604482015290519081900360640190fd5b6004546001600160a01b03163314611728576040805162461bcd60e51b815260206004820152600b60248201526a085cdd1c985d1959da5cdd60aa1b604482015290519081900360640190fd5b600c805460ff191660011790556040517f1ee9080f6b55ca44ce58681c8162e6c1ac1c47e1da791a4a1c1ec6186d8af1f390600090a1565b600c5460ff16156117a1576040805162461bcd60e51b81526020600482015260066024820152651a185b1d195960d21b604482015290519081900360640190fd5b6004546001600160a01b031633146117ee576040805162461bcd60e51b815260206004820152600b60248201526a085cdd1c985d1959da5cdd60aa1b604482015290519081900360640190fd5b6001600160a01b0382166000908152601460205260408120549080805b8381101561186b576001600160a01b0386811660009081526014602052604090208054918716918390811061183c57fe5b6000918252602090912001546001600160a01b03161415611863578092506001915061186b565b60010161180b565b508015611983576001600160a01b03851660009081526014602052604090208054600019850190811061189a57fe5b60009182526020808320909101546001600160a01b038881168452601490925260409092208054919092169190849081106118d157fe5b600091825260208083209190910180546001600160a01b0319166001600160a01b03948516179055918716815260149091526040902080548061191057fe5b60008281526020808220830160001990810180546001600160a01b031990811690915593019093556001600160a01b038781168083526015909452604080832080549094169093559151918816917fbbe55b1ff108e23e5ff1a6f5d36946eec15ec0ca0ded2bfed4cdcf697ca904609190a35b5050505050565b60075481565b6015602052600090815260409020546001600160a01b031681565b600c5460ff16156119ec576040805162461bcd60e51b81526020600482015260066024820152651a185b1d195960d21b604482015290519081900360640190fd5b6000546001600160a01b03163314611a39576040805162461bcd60e51b815260206004820152600b60248201526a21676f7665726e616e636560a81b604482015290519081900360640190fd5b600280546001600160a01b0319166001600160a01b0392909216919091179055565b600c5460ff1615611a9c576040805162461bcd60e51b81526020600482015260066024820152651a185b1d195960d21b604482015290519081900360640190fd5b6000546001600160a01b03163314611ae9576040805162461bcd60e51b815260206004820152600b60248201526a21676f7665726e616e636560a81b604482015290519081900360640190fd5b600080546001600160a01b0319166001600160a01b038316908117825560405190917f24a8c4807b324a269a51827c3446b8ac1cc13810d7d0c0ca1efafabddd7b621991a250565b6002546001600160a01b031681565b60095481565b600c5460ff1681565b600c5460ff1615611b90576040805162461bcd60e51b81526020600482015260066024820152651a185b1d195960d21b604482015290519081900360640190fd5b6000546001600160a01b03163314611bdd576040805162461bcd60e51b815260206004820152600b60248201526a21676f7665726e616e636560a81b604482015290519081900360640190fd5b6064811115611c2b576040805162461bcd60e51b81526020600482015260156024820152745f696e737572616e6365466565206f76657220312560581b604482015290519081900360640190fd5b600755565b6005546001600160a01b031681565b600c5460ff1615611c80576040805162461bcd60e51b81526020600482015260066024820152651a185b1d195960d21b604482015290519081900360640190fd5b6005546001600160a01b03163314611cd4576040805162461bcd60e51b8152602060048201526012602482015271085c195b991a5b99d4dd1c985d1959da5cdd60721b604482015290519081900360640190fd5b600d54611ce49062093a80612567565b4211611d37576040805162461bcd60e51b815260206004820152601b60248201527f50454e44494e475f535452415445474953545f54494d454c4f434b0000000000604482015290519081900360640190fd5b600580546001600160a01b03199081169091556000600d81905560048054339316831790556040517f46d58e3fa07bf19b1d27240f0e286b27e9f7c1b0d88933333fe833b60eec54129190a2565b600c5460ff1615611dc6576040805162461bcd60e51b81526020600482015260066024820152651a185b1d195960d21b604482015290519081900360640190fd5b6000546001600160a01b03163314611e13576040805162461bcd60e51b815260206004820152600b60248201526a21676f7665726e616e636560a81b604482015290519081900360640190fd5b306001600160a01b0316826001600160a01b031663481c6a756040518163ffffffff1660e01b815260040160206040518083038186803b158015611e5657600080fd5b505afa158015611e6a573d6000803e3d6000fd5b505050506040513d6020811015611e8057600080fd5b50516001600160a01b031614611ec8576040805162461bcd60e51b815260206004820152600860248201526710b6b0b730b3b2b960c11b604482015290519081900360640190fd5b6001600160a01b038216600081815260106020908152604091829020805460ff1916851515908117909155825190815291517f7dc60e546dd3412c6abd1e15894f1e79359a5d19a26dff0554649831f8ebfc499281900390910190a25050565b600c5460ff1615611f69576040805162461bcd60e51b81526020600482015260066024820152651a185b1d195960d21b604482015290519081900360640190fd5b6000546001600160a01b03163314611fb6576040805162461bcd60e51b815260206004820152600b60248201526a21676f7665726e616e636560a81b604482015290519081900360640190fd5b6001600160a01b038116612000576040805162461bcd60e51b815260206004820152600c60248201526b0857dcdd1c985d1959da5cdd60a21b604482015290519081900360640190fd5b600580546001600160a01b0319166001600160a01b03831690811790915542600d556040517e82dcc415a21035ab1e9de07c5fb8f8e351e148774f21288b1f1ad81992b0a690600090a250565b600c5460ff161561208e576040805162461bcd60e51b81526020600482015260066024820152651a185b1d195960d21b604482015290519081900360640190fd5b6000546001600160a01b031633146120db576040805162461bcd60e51b815260206004820152600b60248201526a21676f7665726e616e636560a81b604482015290519081900360640190fd5b6107d0811115612132576040805162461bcd60e51b815260206004820152601a60248201527f5f696e737572616e6365506f6f6c466565206f76657220323025000000000000604482015290519081900360640190fd5b600855565b600a5481565b600c5460ff161561217e576040805162461bcd60e51b81526020600482015260066024820152651a185b1d195960d21b604482015290519081900360640190fd5b6004546001600160a01b031633146121cb576040805162461bcd60e51b815260206004820152600b60248201526a085cdd1c985d1959da5cdd60aa1b604482015290519081900360640190fd5b826001600160a01b031663a9059cbb82846040518363ffffffff1660e01b815260040180836001600160a01b0316815260200182815260200192505050602060405180830381600087803b15801561222257600080fd5b505af1158015612236573d6000803e3d6000fd5b505050506040513d602081101561198357600080fd5b600c5460ff161561228d576040805162461bcd60e51b81526020600482015260066024820152651a185b1d195960d21b604482015290519081900360640190fd5b6000546001600160a01b031633146122da576040805162461bcd60e51b815260206004820152600b60248201526a21676f7665726e616e636560a81b604482015290519081900360640190fd5b306001600160a01b0316826001600160a01b031663481c6a756040518163ffffffff1660e01b815260040160206040518083038186803b15801561231d57600080fd5b505afa158015612331573d6000803e3d6000fd5b505050506040513d602081101561234757600080fd5b50516001600160a01b03161461238f576040805162461bcd60e51b815260206004820152600860248201526710b6b0b730b3b2b960c11b604482015290519081900360640190fd5b6001600160a01b0382166000818152600e6020908152604091829020805460ff1916851515908117909155825190815291517f301f7fe22cf850fe662189cc6dca0701b83a64a254b04eb21a3c1ef4118dd3eb9281900390910190a25050565b600654600a547f0000000000000000000000000000000000000000000000000000000000000000916001600160a01b03169192565b6013602052600090815260409020546001600160a01b031681565b60116020526000908152604090205460ff1681565b60126020526000908152604090205460ff1681565b600c5460ff16156124aa576040805162461bcd60e51b81526020600482015260066024820152651a185b1d195960d21b604482015290519081900360640190fd5b6000546001600160a01b031633146124f7576040805162461bcd60e51b815260206004820152600b60248201526a21676f7665726e616e636560a81b604482015290519081900360640190fd5b6001600160a01b03811661253f576040805162461bcd60e51b815260206004820152600a602482015269215f747265617375727960b01b604482015290519081900360640190fd5b600680546001600160a01b0319166001600160a01b0392909216919091179055565b61010081565b6000828201838110156125c1576040805162461bcd60e51b815260206004820152601b60248201527f536166654d6174683a206164646974696f6e206f766572666c6f770000000000604482015290519081900360640190fd5b939250505056fea26469706673582212203e2d7fdbfaa3236dc7c3939547fb3ec900d5eb405f1d32c26af55f098068502564736f6c634300060c0033",
  "linkReferences": {},
  "deployedLinkReferences": {}
}