{
  "address": "0xd3846505fF88236593c2Dfe045e484174365f4F9",
  "abi": [
    {
      "inputs": [
        {
          "internalType": "address",
          "name": "_masterDeployer",
          "type": "address"
        }
      ],
      "stateMutability": "nonpayable",
      "type": "constructor"
    },
    {
      "inputs": [
        {
          "internalType": "bytes32",
          "name": "",
          "type": "bytes32"
        }
      ],
      "name": "configAddress",
      "outputs": [
        {
          "internalType": "address",
          "name": "",
          "type": "address"
        }
      ],
      "stateMutability": "view",
      "type": "function"
    },
    {
      "inputs": [
        {
          "internalType": "bytes",
          "name": "_deployData",
          "type": "bytes"
        }
      ],
      "name": "deployPool",
      "outputs": [
        {
          "internalType": "address",
          "name": "pool",
          "type": "address"
        }
      ],
      "stateMutability": "nonpayable",
      "type": "function"
    },
    {
      "inputs": [
        {
          "internalType": "address",
          "name": "token0",
          "type": "address"
        },
        {
          "internalType": "address",
          "name": "token1",
          "type": "address"
        },
        {
          "internalType": "uint256",
          "name": "startIndex",
          "type": "uint256"
        },
        {
          "internalType": "uint256",
          "name": "endIndex",
          "type": "uint256"
        }
      ],
      "name": "getPools",
      "outputs": [
        {
          "internalType": "address[]",
          "name": "pairPools",
          "type": "address[]"
        }
      ],
      "stateMutability": "view",
      "type": "function"
    },
    {
      "inputs": [],
      "name": "masterDeployer",
      "outputs": [
        {
          "internalType": "address",
          "name": "",
          "type": "address"
        }
      ],
      "stateMutability": "view",
      "type": "function"
    },
    {
      "inputs": [
        {
          "internalType": "address",
          "name": "",
          "type": "address"
        },
        {
          "internalType": "address",
          "name": "",
          "type": "address"
        },
        {
          "internalType": "uint256",
          "name": "",
          "type": "uint256"
        }
      ],
      "name": "pools",
      "outputs": [
        {
          "internalType": "address",
          "name": "",
          "type": "address"
        }
      ],
      "stateMutability": "view",
      "type": "function"
    },
    {
      "inputs": [
        {
          "internalType": "address",
          "name": "token0",
          "type": "address"
        },
        {
          "internalType": "address",
          "name": "token1",
          "type": "address"
        }
      ],
      "name": "poolsCount",
      "outputs": [
        {
          "internalType": "uint256",
          "name": "count",
          "type": "uint256"
        }
      ],
      "stateMutability": "view",
      "type": "function"
    }
  ],
  "transactionHash": "0x3e600bc86df379024f0a49aa385fdc3725924d3aa98a4ddeadf6f6f3050a1388",
  "args": [
    "0xB8ef8579EEBDCCCf69305418E49a3A545301b393"
  ],
  "solcInputHash": "54eedb95824944b9250147be5a2e4035",
  "bytecode": "0x60a060405234801561001057600080fd5b5060405161521e38038061521e83398101604081905261002f9161008f565b806001600160a01b0381166100795760405162461bcd60e51b815260206004820152600c60248201526b5a45524f5f4144445245535360a01b604482015260640160405180910390fd5b60601b6001600160601b031916608052506100bf565b6000602082840312156100a157600080fd5b81516001600160a01b03811681146100b857600080fd5b9392505050565b60805160601c6151336100eb6000396000818161015a01528181610370015261053601526151336000f3fe60806040523480156200001157600080fd5b50600436106200007b5760003560e01c806371a25812116200005657806371a25812146200012e578063cf58879a1462000154578063f6ab6d99146200017c57600080fd5b8063169c4cef146200008057806327c3cae114620000c15780635bc93d6c14620000d8575b600080fd5b620000976200009136600462000a20565b620001b5565b60405173ffffffffffffffffffffffffffffffffffffffff90911681526020015b60405180910390f35b62000097620000d236600462000acb565b62000208565b6200011f620000e9366004620009e2565b73ffffffffffffffffffffffffffffffffffffffff91821660009081526020818152604080832093909416825291909152205490565b604051908152602001620000b8565b620001456200013f36600462000a66565b620003e4565b604051620000b8919062000ba4565b620000977f000000000000000000000000000000000000000000000000000000000000000081565b620000976200018d36600462000ab1565b60016020526000908152604090205473ffffffffffffffffffffffffffffffffffffffff1681565b60006020528260005260406000206020528160005260406000208181548110620001de57600080fd5b60009182526020909120015473ffffffffffffffffffffffffffffffffffffffff16925083915050565b60008060008060008580602001905181019062000226919062000982565b93509350935093508273ffffffffffffffffffffffffffffffffffffffff168473ffffffffffffffffffffffffffffffffffffffff161115620002b4576040805173ffffffffffffffffffffffffffffffffffffffff808616602083015286169181019190915260608101839052811515608082015292939260a00160405160208183030381529060405295505b6040805160028082526060820183526000926020830190803683370190505090508481600081518110620002ec57620002ec62000d19565b602002602001019073ffffffffffffffffffffffffffffffffffffffff16908173ffffffffffffffffffffffffffffffffffffffff168152505083816001815181106200033d576200033d62000d19565b73ffffffffffffffffffffffffffffffffffffffff909216602092830291909101820152875190880120604051819089907f0000000000000000000000000000000000000000000000000000000000000000906200039b9062000974565b620003a892919062000c00565b8190604051809103906000f5905080158015620003c9573d6000803e3d6000fd5b509650620003d98783836200051e565b505050505050919050565b6060620003f2838362000c94565b67ffffffffffffffff8111156200040d576200040d62000d48565b60405190808252806020026020018201604052801562000437578160200160208202803683370190505b50905060005b82841015620005155773ffffffffffffffffffffffffffffffffffffffff8087166000908152602081815260408083209389168352929052208054859081106200048b576200048b62000d19565b9060005260206000200160009054906101000a900473ffffffffffffffffffffffffffffffffffffffff16828281518110620004cb57620004cb62000d19565b73ffffffffffffffffffffffffffffffffffffffff9092166020928302919091019091015283620004fc8162000cae565b94505080806200050c9062000cae565b9150506200043d565b50949350505050565b3373ffffffffffffffffffffffffffffffffffffffff7f00000000000000000000000000000000000000000000000000000000000000001614620005c3576040517f08c379a000000000000000000000000000000000000000000000000000000000815260206004820152601560248201527f554e415554484f52495a45445f4445504c4f594552000000000000000000000060448201526064015b60405180910390fd5b60008181526001602052604090205473ffffffffffffffffffffffffffffffffffffffff161562000651576040517f08c379a000000000000000000000000000000000000000000000000000000000815260206004820152601560248201527f504f4f4c5f414c52454144595f4445504c4f59454400000000000000000000006044820152606401620005ba565b600081815260016020526040812080547fffffffffffffffffffffffff00000000000000000000000000000000000000001673ffffffffffffffffffffffffffffffffffffffff86161790555b60018351038110156200096e57828160010181518110620006c357620006c362000d19565b602002602001015173ffffffffffffffffffffffffffffffffffffffff16838281518110620006f657620006f662000d19565b602002602001015173ffffffffffffffffffffffffffffffffffffffff16106200077d576040517f08c379a000000000000000000000000000000000000000000000000000000000815260206004820152601360248201527f494e56414c49445f544f4b454e5f4f52444552000000000000000000000000006044820152606401620005ba565b600181015b83518110156200096457600080858481518110620007a457620007a462000d19565b602002602001015173ffffffffffffffffffffffffffffffffffffffff1673ffffffffffffffffffffffffffffffffffffffff1681526020019081526020016000206000858381518110620007fd57620007fd62000d19565b60209081029190910181015173ffffffffffffffffffffffffffffffffffffffff90811683528282019390935260409091016000908120805460018101825590825291812090910180547fffffffffffffffffffffffff00000000000000000000000000000000000000001692881692909217909155845181908690849081106200088c576200088c62000d19565b602002602001015173ffffffffffffffffffffffffffffffffffffffff1673ffffffffffffffffffffffffffffffffffffffff1681526020019081526020016000206000858481518110620008e557620008e562000d19565b60209081029190910181015173ffffffffffffffffffffffffffffffffffffffff908116835282820193909352604090910160009081208054600180820183559183529290912090910180547fffffffffffffffffffffffff000000000000000000000000000000000000000016928816929092179091550162000782565b506001016200069e565b50505050565b6143608062000d9e83390190565b600080600080608085870312156200099957600080fd5b8451620009a68162000d77565b6020860151909450620009b98162000d77565b6040860151606087015191945092508015158114620009d757600080fd5b939692955090935050565b60008060408385031215620009f657600080fd5b823562000a038162000d77565b9150602083013562000a158162000d77565b809150509250929050565b60008060006060848603121562000a3657600080fd5b833562000a438162000d77565b9250602084013562000a558162000d77565b929592945050506040919091013590565b6000806000806080858703121562000a7d57600080fd5b843562000a8a8162000d77565b9350602085013562000a9c8162000d77565b93969395505050506040820135916060013590565b60006020828403121562000ac457600080fd5b5035919050565b60006020828403121562000ade57600080fd5b813567ffffffffffffffff8082111562000af757600080fd5b818401915084601f83011262000b0c57600080fd5b81358181111562000b215762000b2162000d48565b604051601f82017fffffffffffffffffffffffffffffffffffffffffffffffffffffffffffffffe0908116603f0116810190838211818310171562000b6a5762000b6a62000d48565b8160405282815287602084870101111562000b8457600080fd5b826020860160208301376000928101602001929092525095945050505050565b6020808252825182820181905260009190848201906040850190845b8181101562000bf457835173ffffffffffffffffffffffffffffffffffffffff168352928401929184019160010162000bc0565b50909695505050505050565b604081526000835180604084015260005b8181101562000c30576020818701810151606086840101520162000c11565b8181111562000c43576000606083860101525b5073ffffffffffffffffffffffffffffffffffffffff93909316602083015250601f919091017fffffffffffffffffffffffffffffffffffffffffffffffffffffffffffffffe01601606001919050565b60008282101562000ca95762000ca962000cea565b500390565b60007fffffffffffffffffffffffffffffffffffffffffffffffffffffffffffffffff82141562000ce35762000ce362000cea565b5060010190565b7f4e487b7100000000000000000000000000000000000000000000000000000000600052601160045260246000fd5b7f4e487b7100000000000000000000000000000000000000000000000000000000600052603260045260246000fd5b7f4e487b7100000000000000000000000000000000000000000000000000000000600052604160045260246000fd5b73ffffffffffffffffffffffffffffffffffffffff8116811462000d9a57600080fd5b5056fe6101806040523480156200001257600080fd5b5060405162004360380380620043608339810160408190526200003591620005ce565b604080518082018252600e81526d29bab9b434902628102a37b5b2b760911b6020918201528151808301835260018152603160f81b9082015281517f8b73c3c69bb8fe3d512ecc4cf759cc79239f7b179b0ffacaa9a75d522b39400f918101919091527fc2bf45081e840722410522aa366600d7fe4da5bfb5a5b417f4d5125b4ed180a4918101919091527fc89efdaa54c0f20c7adf612882df0950f5a951637e0307cdcb4c672f298b8bc660608201524660808201523060a082015260c0016040516020818303038152906040528051906020012060808181525050600080600080858060200190518101906200012e91906200056e565b929650909450925090506001600160a01b038416620001835760405162461bcd60e51b815260206004820152600c60248201526b5a45524f5f4144445245535360a01b60448201526064015b60405180910390fd5b826001600160a01b0316846001600160a01b03161415620001e75760405162461bcd60e51b815260206004820152601360248201527f4944454e544943414c5f4144445245535345530000000000000000000000000060448201526064016200017a565b6001600160a01b038416301415620002325760405162461bcd60e51b815260206004820152600d60248201526c24a72b20a624a22faa27a5a2a760991b60448201526064016200017a565b6001600160a01b0383163014156200027d5760405162461bcd60e51b815260206004820152600d60248201526c24a72b20a624a22faa27a5a2a760991b60448201526064016200017a565b612710821115620002c45760405162461bcd60e51b815260206004820152601060248201526f494e56414c49445f535741505f46454560801b60448201526064016200017a565b60408051600481526024810182526020810180516001600160e01b03166360a56c0160e11b17905290516000916001600160a01b03881691620003089190620006b5565b600060405180830381855afa9150503d806000811462000345576040519150601f19603f3d011682016040523d82523d6000602084013e6200034a565b606091505b5060408051600481526024810182526020810180516001600160e01b0316630605066960e11b1790529051919350600092506001600160a01b03891691620003939190620006b5565b600060405180830381855afa9150503d8060008114620003d0576040519150601f19603f3d011682016040523d82523d6000602084013e620003d5565b606091505b5060408051600481526024810182526020810180516001600160e01b0316634da3182760e01b1790529051919350600092506001600160a01b038a16916200041e9190620006b5565b600060405180830381855afa9150503d80600081146200045b576040519150601f19603f3d011682016040523d82523d6000602084013e62000460565b606091505b506001600160601b031960608a811b82166101405289901b166101605260a087905261271087900360c0528451909250620004a69150840160209081019085016200069b565b6004558151620004c0908301602090810190840162000547565b60601b6001600160601b03191660e0528051620004e7906020908301810190830162000547565b6001600160601b0319606091821b8116610100529089901b1661012052600160095583156200052657600880546001600160e01b0316600160e01b1790555b50505050505050505062000735565b805162000542816200071c565b919050565b6000602082840312156200055a57600080fd5b815162000567816200071c565b9392505050565b600080600080608085870312156200058557600080fd5b845162000592816200071c565b6020860151909450620005a5816200071c565b6040860151606087015191945092508015158114620005c357600080fd5b939692955090935050565b60008060408385031215620005e257600080fd5b82516001600160401b0380821115620005fa57600080fd5b818501915085601f8301126200060f57600080fd5b81518181111562000624576200062462000706565b604051601f8201601f19908116603f011681019083821181831017156200064f576200064f62000706565b816040528281528860208487010111156200066957600080fd5b6200067c836020830160208801620006d3565b8096505050505050620006926020840162000535565b90509250929050565b600060208284031215620006ae57600080fd5b5051919050565b60008251620006c9818460208701620006d3565b9190910192915050565b60005b83811015620006f0578181015183820152602001620006d6565b8381111562000700576000848401525b50505050565b634e487b7160e01b600052604160045260246000fd5b6001600160a01b03811681146200073257600080fd5b50565b60805160a05160c05160e05160601c6101005160601c6101205160601c6101405160601c6101605160601c613acf62000891600039600081816105b30152818161080b0152818161093a015281816109e801528181611070015281816111780152818161142a01528181611499015281816116db0152818161212d015281816121b40152612b7d01526000818161032e0152818161078701528181610acd01528181610bfc015281816110440152818161110f015281816113d60152818161157a0152818161166d01528181611e8e015281816121ed015281816122d80152612a7e01526000818161058c015281816119710152611d8e0152600081816103f9015281816127e60152818161295c01528181612a420152612c260152600081816102e20152613049015260006126e8015260008181610420015281816132eb01526133560152600081816103d2015261240b0152613acf6000f3fe608060405234801561001057600080fd5b506004361061020b5760003560e01c8063627dd56a1161012a578063a69840a8116100bd578063c14ad8021161008c578063d21220a711610071578063d21220a7146105ae578063d505accf146105d5578063dd62ed3e146105e857600080fd5b8063c14ad8021461057e578063cf58879a1461058757600080fd5b8063a69840a81461051e578063a8f1f52e14610545578063a9059cbb14610558578063af8c09bf1461056b57600080fd5b80637ba0e2e7116100f95780637ba0e2e7146104a55780637ecebe00146104b857806392bc3219146104d857806395d89b41146104e257600080fd5b8063627dd56a1461045457806367e4ac2c1461046757806370a082311461047c5780637464fc3d1461049c57600080fd5b80632a07b6c7116101a25780634da31827116101715780634da31827146103f457806354cf2aeb1461041b5780635909c0d5146104425780635a3d54931461044b57600080fd5b80632a07b6c71461036c57806330adf81f1461038c578063313ce567146103b35780633644e515146103cd57600080fd5b80630c0a0cd2116101de5780630c0a0cd2146102dd5780630dfe16811461032957806318160ddd1461035057806323b872dd1461035957600080fd5b8063053da1c81461021057806306fdde03146102365780630902f1ac1461027f578063095ea7b3146102ba575b600080fd5b61022361021e3660046136fc565b610613565b6040519081526020015b60405180910390f35b6102726040518060400160405280600e81526020017f5375736869204c5020546f6b656e00000000000000000000000000000000000081525081565b60405161022d91906138ac565b610287610cb8565b604080516dffffffffffffffffffffffffffff948516815293909216602084015263ffffffff169082015260600161022d565b6102cd6102c83660046135df565b610d21565b604051901515815260200161022d565b6103047f000000000000000000000000000000000000000000000000000000000000000081565b60405173ffffffffffffffffffffffffffffffffffffffff909116815260200161022d565b6103047f000000000000000000000000000000000000000000000000000000000000000081565b61022360005481565b6102cd610367366004613644565b610d9a565b61037f61037a3660046136fc565b610ee6565b60405161022d9190613847565b6102237f6e71edae12b1b97f4d1f60370fef10105fa2faae0126114a169c64845d6126c981565b6103bb601281565b60405160ff909116815260200161022d565b6102237f000000000000000000000000000000000000000000000000000000000000000081565b6103047f000000000000000000000000000000000000000000000000000000000000000081565b6102237f000000000000000000000000000000000000000000000000000000000000000081565b61022360055481565b61022360065481565b6102236104623660046136fc565b61125b565b61046f61164b565b60405161022d91906137ed565b61022361048a366004613413565b60016020526000908152604090205481565b61022360075481565b6102236104b33660046136fc565b61174a565b6102236104c6366004613413565b60036020526000908152604090205481565b6104e0611d1c565b005b6102726040518060400160405280600381526020017f534c50000000000000000000000000000000000000000000000000000000000081525081565b6102237f54726964656e743a436f6e7374616e7450726f6475637400000000000000000081565b6102236105533660046136fc565b611e17565b6102cd6105663660046135df565b611f4a565b6102236105793660046136fc565b611fcf565b61022360045481565b6103047f000000000000000000000000000000000000000000000000000000000000000081565b6103047f000000000000000000000000000000000000000000000000000000000000000081565b6104e06105e3366004613685565b612378565b6102236105f636600461360b565b600260209081526000928352604080842090915290825290205481565b6000600954600114610686576040517f08c379a000000000000000000000000000000000000000000000000000000000815260206004820152600660248201527f4c4f434b4544000000000000000000000000000000000000000000000000000060448201526064015b60405180910390fd5b600260095560008080808061069d8789018961349b565b9450945094509450945060008060006107056008546dffffffffffffffffffffffffffff808216926e01000000000000000000000000000083049091169163ffffffff7c01000000000000000000000000000000000000000000000000000000009091041690565b9250925092506000836dffffffffffffffffffffffffffff1611610785576040517f08c379a000000000000000000000000000000000000000000000000000000000815260206004820152601260248201527f504f4f4c5f554e494e495449414c495a45440000000000000000000000000000604482015260640161067d565b7f000000000000000000000000000000000000000000000000000000000000000073ffffffffffffffffffffffffffffffffffffffff168873ffffffffffffffffffffffffffffffffffffffff1614156109e65761080485846dffffffffffffffffffffffffffff16846dffffffffffffffffffffffffffff166126e0565b98506108327f00000000000000000000000000000000000000000000000000000000000000008a8989612743565b6040517fbd50c7b1000000000000000000000000000000000000000000000000000000008152339063bd50c7b19061086e9087906004016138ac565b600060405180830381600087803b15801561088857600080fd5b505af115801561089c573d6000803e3d6000fd5b505050506000806108ab612a3b565b9150915086856dffffffffffffffffffffffffffff168303101561092b576040517f08c379a000000000000000000000000000000000000000000000000000000000815260206004820152601660248201527f494e53554646494349454e545f414d4f554e545f494e00000000000000000000604482015260640161067d565b6109388282878787612cb3565b7f000000000000000000000000000000000000000000000000000000000000000073ffffffffffffffffffffffffffffffffffffffff168a73ffffffffffffffffffffffffffffffffffffffff168a73ffffffffffffffffffffffffffffffffffffffff167fcd3829a3813dc3cdd188fd3d01dcf3268c16be2fdd2dd21d0665418816e460628a8f6040516109d7929190918252602082015260400190565b60405180910390a45050610ca4565b7f000000000000000000000000000000000000000000000000000000000000000073ffffffffffffffffffffffffffffffffffffffff168873ffffffffffffffffffffffffffffffffffffffff1614610a9b576040517f08c379a000000000000000000000000000000000000000000000000000000000815260206004820152601360248201527f494e56414c49445f494e5055545f544f4b454e00000000000000000000000000604482015260640161067d565b610ac685836dffffffffffffffffffffffffffff16856dffffffffffffffffffffffffffff166126e0565b9850610af47f00000000000000000000000000000000000000000000000000000000000000008a8989612743565b6040517fbd50c7b1000000000000000000000000000000000000000000000000000000008152339063bd50c7b190610b309087906004016138ac565b600060405180830381600087803b158015610b4a57600080fd5b505af1158015610b5e573d6000803e3d6000fd5b50505050600080610b6d612a3b565b9150915086846dffffffffffffffffffffffffffff1682031015610bed576040517f08c379a000000000000000000000000000000000000000000000000000000000815260206004820152601660248201527f494e53554646494349454e545f414d4f554e545f494e00000000000000000000604482015260640161067d565b610bfa8282878787612cb3565b7f000000000000000000000000000000000000000000000000000000000000000073ffffffffffffffffffffffffffffffffffffffff168a73ffffffffffffffffffffffffffffffffffffffff168a73ffffffffffffffffffffffffffffffffffffffff167fcd3829a3813dc3cdd188fd3d01dcf3268c16be2fdd2dd21d0665418816e460628a8f604051610c99929190918252602082015260400190565b60405180910390a450505b505060016009555094979650505050505050565b6000806000610d166008546dffffffffffffffffffffffffffff808216926e01000000000000000000000000000083049091169163ffffffff7c01000000000000000000000000000000000000000000000000000000009091041690565b925092509250909192565b33600081815260026020908152604080832073ffffffffffffffffffffffffffffffffffffffff8716808552925280832085905551919290917f8c5be1e5ebec7d5bd14f71427d1e84f3dd0314c0f7b2291e5b200ac8c7c3b92590610d899086815260200190565b60405180910390a350600192915050565b73ffffffffffffffffffffffffffffffffffffffff831660009081526002602090815260408083203384529091528120547fffffffffffffffffffffffffffffffffffffffffffffffffffffffffffffffff14610e375773ffffffffffffffffffffffffffffffffffffffff8416600090815260026020908152604080832033845290915281208054849290610e31908490613928565b90915550505b73ffffffffffffffffffffffffffffffffffffffff841660009081526001602052604081208054849290610e6c908490613928565b909155505073ffffffffffffffffffffffffffffffffffffffff808416600081815260016020526040908190208054860190555190918616907fddf252ad1be2c89b69c2b068fc378daa952ba7f163c4a11628f55a4df523b3ef90610ed49086815260200190565b60405180910390a35060019392505050565b6060600954600114610f54576040517f08c379a000000000000000000000000000000000000000000000000000000000815260206004820152600660248201527f4c4f434b45440000000000000000000000000000000000000000000000000000604482015260640161067d565b6002600955600080610f68848601866135aa565b915091506000806000610fca6008546dffffffffffffffffffffffffffff808216926e01000000000000000000000000000083049091169163ffffffff7c01000000000000000000000000000000000000000000000000000000009091041690565b925092509250600080610fdb612a3b565b60008054308252600160205260409091205492945090925090610fff878784612fc9565b9091019060008261101086846138eb565b61101a91906138d7565b905060008361102986856138eb565b61103391906138d7565b905061103f3084613078565b61106b7f0000000000000000000000000000000000000000000000000000000000000000838d8d612743565b6110977f0000000000000000000000000000000000000000000000000000000000000000828d8d612743565b818603955080850394506110ae86868b8b8b612cb3565b6110c06110bb86886138eb565b61310b565b6007556040805160028082526060820190925290816020015b60408051808201909152600080825260208201528152602001906001900390816110d9579050509b5060405180604001604052807f000000000000000000000000000000000000000000000000000000000000000073ffffffffffffffffffffffffffffffffffffffff168152602001838152508c60008151811061116057611160613a16565b602002602001018190525060405180604001604052807f000000000000000000000000000000000000000000000000000000000000000073ffffffffffffffffffffffffffffffffffffffff168152602001828152508c6001815181106111c9576111c9613a16565b60200260200101819052508a73ffffffffffffffffffffffffffffffffffffffff163373ffffffffffffffffffffffffffffffffffffffff167fdccd412f0b1252819cb1fd330b93224ca42612892bb3f4f789976e6d81936496848460405161123c929190918252602082015260400190565b60405180910390a35050600160095550979a9950505050505050505050565b60006009546001146112c9576040517f08c379a000000000000000000000000000000000000000000000000000000000815260206004820152600660248201527f4c4f434b45440000000000000000000000000000000000000000000000000000604482015260640161067d565b6002600955600080806112de85870187613454565b92509250925060008060006113426008546dffffffffffffffffffffffffffff808216926e01000000000000000000000000000083049091169163ffffffff7c01000000000000000000000000000000000000000000000000000000009091041690565b9250925092506000836dffffffffffffffffffffffffffff16116113c2576040517f08c379a000000000000000000000000000000000000000000000000000000000815260206004820152601260248201527f504f4f4c5f554e494e495449414c495a45440000000000000000000000000000604482015260640161067d565b6000806113cd612a3b565b915091506000807f000000000000000000000000000000000000000000000000000000000000000073ffffffffffffffffffffffffffffffffffffffff168a73ffffffffffffffffffffffffffffffffffffffff161415611497577f00000000000000000000000000000000000000000000000000000000000000009050866dffffffffffffffffffffffffffff168403915061148b82886dffffffffffffffffffffffffffff16886dffffffffffffffffffffffffffff166126e0565b9a508a830392506115b3565b7f000000000000000000000000000000000000000000000000000000000000000073ffffffffffffffffffffffffffffffffffffffff168a73ffffffffffffffffffffffffffffffffffffffff161461154c576040517f08c379a000000000000000000000000000000000000000000000000000000000815260206004820152601360248201527f494e56414c49445f494e5055545f544f4b454e00000000000000000000000000604482015260640161067d565b50506008546dffffffffffffffffffffffffffff6e01000000000000000000000000000090910481168203907f0000000000000000000000000000000000000000000000000000000000000000906115ab908390888116908a166126e0565b9a508a840393505b6115bf818c8b8b612743565b6115cc8484898989612cb3565b8073ffffffffffffffffffffffffffffffffffffffff168a73ffffffffffffffffffffffffffffffffffffffff168a73ffffffffffffffffffffffffffffffffffffffff167fcd3829a3813dc3cdd188fd3d01dcf3268c16be2fdd2dd21d0665418816e46062858f604051610c99929190918252602082015260400190565b60408051600280825260608083018452926020830190803683370190505090507f00000000000000000000000000000000000000000000000000000000000000008160008151811061169f5761169f613a16565b602002602001019073ffffffffffffffffffffffffffffffffffffffff16908173ffffffffffffffffffffffffffffffffffffffff16815250507f00000000000000000000000000000000000000000000000000000000000000008160018151811061170d5761170d613a16565b602002602001019073ffffffffffffffffffffffffffffffffffffffff16908173ffffffffffffffffffffffffffffffffffffffff168152505090565b60006009546001146117b8576040517f08c379a000000000000000000000000000000000000000000000000000000000815260206004820152600660248201527f4c4f434b45440000000000000000000000000000000000000000000000000000604482015260640161067d565b600260095560006117cb83850185613413565b9050600080600061182b6008546dffffffffffffffffffffffffffff808216926e01000000000000000000000000000083049091169163ffffffff7c01000000000000000000000000000000000000000000000000000000009091041690565b92509250925060008061183c612a3b565b600054919350915061184f868683612fc9565b01600061186c6dffffffffffffffffffffffffffff881685613928565b9050600061188a6dffffffffffffffffffffffffffff881685613928565b90506000806118bb84848c6dffffffffffffffffffffffffffff168c6dffffffffffffffffffffffffffff16613290565b909250905060006118e36118cf8389613928565b6118d9858b613928565b6110bb91906138eb565b905085611bda576000851180156118fa5750600084115b611960576040517f08c379a000000000000000000000000000000000000000000000000000000000815260206004820152600f60248201527f494e56414c49445f414d4f554e54530000000000000000000000000000000000604482015260640161067d565b61196d60006103e8613393565b60007f000000000000000000000000000000000000000000000000000000000000000073ffffffffffffffffffffffffffffffffffffffff16637cd07e476040518163ffffffff1660e01b815260040160206040518083038186803b1580156119d557600080fd5b505afa1580156119e9573d6000803e3d6000fd5b505050506040513d601f19601f82011682018060405250810190611a0d9190613437565b90503373ffffffffffffffffffffffffffffffffffffffff82161415611b47578073ffffffffffffffffffffffffffffffffffffffff166340dc0e376040518163ffffffff1660e01b815260040160206040518083038186803b158015611a7357600080fd5b505afa158015611a87573d6000803e3d6000fd5b505050506040513d601f19601f82011682018060405250810190611aab919061376e565b9d508d15801590611adc57507fffffffffffffffffffffffffffffffffffffffffffffffffffffffffffffffff8e14155b611b42576040517f08c379a000000000000000000000000000000000000000000000000000000000815260206004820152601560248201527f4241445f444553495245445f4c49515549444954590000000000000000000000604482015260640161067d565b611bd4565b73ffffffffffffffffffffffffffffffffffffffff811615611bc5576040517f08c379a000000000000000000000000000000000000000000000000000000000815260206004820152600d60248201527f4f4e4c595f4d49475241544f5200000000000000000000000000000000000000604482015260640161067d565b611bd16103e883613928565b9d505b50611c22565b6000611bfc6110bb6dffffffffffffffffffffffffffff808e16908f166138eb565b90508087611c0a8285613928565b611c1491906138eb565b611c1e91906138d7565b9d50505b8c611c89576040517f08c379a000000000000000000000000000000000000000000000000000000000815260206004820152601d60248201527f494e53554646494349454e545f4c49515549444954595f4d494e544544000000604482015260640161067d565b611c938c8e613393565b611ca088888d8d8d612cb3565b611cad6110bb888a6138eb565b600755604080518681526020810186905273ffffffffffffffffffffffffffffffffffffffff8e169133917fdbba30eb0402b389513e87f51f4db2db80bed454384ec6925a24097c3548a02a91015b60405180910390a35050600160095550989b9a5050505050505050505050565b60408051600481526024810182526020810180517bffffffffffffffffffffffffffffffffffffffffffffffffffffffff167fc14ad80200000000000000000000000000000000000000000000000000000000179052905160009173ffffffffffffffffffffffffffffffffffffffff7f00000000000000000000000000000000000000000000000000000000000000001691611db991906137d1565b600060405180830381855afa9150503d8060008114611df4576040519150601f19603f3d011682016040523d82523d6000602084013e611df9565b606091505b5091505080806020019051810190611e11919061376e565b60045550565b60008080611e27848601866135df565b91509150600080611e876008546dffffffffffffffffffffffffffff808216926e01000000000000000000000000000083049091169163ffffffff7c01000000000000000000000000000000000000000000000000000000009091041690565b50915091507f000000000000000000000000000000000000000000000000000000000000000073ffffffffffffffffffffffffffffffffffffffff168473ffffffffffffffffffffffffffffffffffffffff161415611f1257611f0b83836dffffffffffffffffffffffffffff16836dffffffffffffffffffffffffffff166126e0565b9450611f40565b611f3d83826dffffffffffffffffffffffffffff16846dffffffffffffffffffffffffffff166126e0565b94505b5050505092915050565b33600090815260016020526040812080548391908390611f6b908490613928565b909155505073ffffffffffffffffffffffffffffffffffffffff8316600081815260016020526040908190208054850190555133907fddf252ad1be2c89b69c2b068fc378daa952ba7f163c4a11628f55a4df523b3ef90610d899086815260200190565b600060095460011461203d576040517f08c379a000000000000000000000000000000000000000000000000000000000815260206004820152600660248201527f4c4f434b45440000000000000000000000000000000000000000000000000000604482015260640161067d565b60026009556000808061205285870187613454565b92509250925060008060006120b66008546dffffffffffffffffffffffffffff808216926e01000000000000000000000000000083049091169163ffffffff7c01000000000000000000000000000000000000000000000000000000009091041690565b9250925092506000806120c7612a3b565b600080543082526001602052604090912054929450909250906120eb878784612fc9565b909101906000826120fc86846138eb565b61210691906138d7565b905060008361211586856138eb565b61211f91906138d7565b905061212b3084613078565b7f000000000000000000000000000000000000000000000000000000000000000073ffffffffffffffffffffffffffffffffffffffff168c73ffffffffffffffffffffffffffffffffffffffff1614156121eb576121ae82838b6dffffffffffffffffffffffffffff1603838b6dffffffffffffffffffffffffffff16036126e0565b016121db7f0000000000000000000000000000000000000000000000000000000000000000828d8d612743565b9b5050918a90039160008b61230b565b7f000000000000000000000000000000000000000000000000000000000000000073ffffffffffffffffffffffffffffffffffffffff168c73ffffffffffffffffffffffffffffffffffffffff16146122a0576040517f08c379a000000000000000000000000000000000000000000000000000000000815260206004820152601460248201527f494e56414c49445f4f55545055545f544f4b454e000000000000000000000000604482015260640161067d565b6122cf81828a6dffffffffffffffffffffffffffff1603848c6dffffffffffffffffffffffffffff16036126e0565b820191506122ff7f0000000000000000000000000000000000000000000000000000000000000000838d8d612743565b509a50928a9003928a60005b61231886868b8b8b612cb3565b6123256110bb86886138eb565b600755604080518381526020810183905273ffffffffffffffffffffffffffffffffffffffff8d169133917fdccd412f0b1252819cb1fd330b93224ca42612892bb3f4f789976e6d819364969101611cfc565b428410156123e2576040517f08c379a000000000000000000000000000000000000000000000000000000000815260206004820152601760248201527f5045524d49545f444541444c494e455f45585049524544000000000000000000604482015260640161067d565b73ffffffffffffffffffffffffffffffffffffffff8716600090815260036020526040812080547f0000000000000000000000000000000000000000000000000000000000000000917f6e71edae12b1b97f4d1f60370fef10105fa2faae0126114a169c64845d6126c9918b918b918b918761245d8361396b565b9091555060408051602081019690965273ffffffffffffffffffffffffffffffffffffffff94851690860152929091166060840152608083015260a082015260c0810187905260e001604051602081830303815290604052805190602001206040516020016124fe9291907f190100000000000000000000000000000000000000000000000000000000000081526002810192909252602282015260420190565b604080517fffffffffffffffffffffffffffffffffffffffffffffffffffffffffffffffe08184030181528282528051602091820120600080855291840180845281905260ff88169284019290925260608301869052608083018590529092509060019060a0016020604051602081039080840390855afa158015612587573d6000803e3d6000fd5b50506040517fffffffffffffffffffffffffffffffffffffffffffffffffffffffffffffffe0015191505073ffffffffffffffffffffffffffffffffffffffff81161580159061260257508873ffffffffffffffffffffffffffffffffffffffff168173ffffffffffffffffffffffffffffffffffffffff16145b612668576040517f08c379a000000000000000000000000000000000000000000000000000000000815260206004820152601860248201527f494e56414c49445f5045524d49545f5349474e41545552450000000000000000604482015260640161067d565b73ffffffffffffffffffffffffffffffffffffffff81811660009081526002602090815260408083208c8516808552908352928190208b9055518a815291928c16917f8c5be1e5ebec7d5bd14f71427d1e84f3dd0314c0f7b2291e5b200ac8c7c3b925910160405180910390a3505050505050505050565b60008061270d7f0000000000000000000000000000000000000000000000000000000000000000866138eb565b90508061271c612710866138eb565b61272691906138bf565b61273084836138eb565b61273a91906138d7565b95945050505050565b80156128c5576040805173ffffffffffffffffffffffffffffffffffffffff8681166024830152306044830152848116606483015260006084830181905260a48084018890528451808503909101815260c490930184526020830180517bffffffffffffffffffffffffffffffffffffffffffffffffffffffff167f97da6d300000000000000000000000000000000000000000000000000000000017905292517f000000000000000000000000000000000000000000000000000000000000000090911691612812916137d1565b6000604051808303816000865af19150503d806000811461284f576040519150601f19603f3d011682016040523d82523d6000602084013e612854565b606091505b50509050806128bf576040517f08c379a000000000000000000000000000000000000000000000000000000000815260206004820152600f60248201527f57495448445241575f4641494c45440000000000000000000000000000000000604482015260640161067d565b50612a35565b6040805173ffffffffffffffffffffffffffffffffffffffff8681166024830152306044830152848116606483015260848083018790528351808403909101815260a490920183526020820180517bffffffffffffffffffffffffffffffffffffffffffffffffffffffff167ff18d03cc0000000000000000000000000000000000000000000000000000000017905291516000927f00000000000000000000000000000000000000000000000000000000000000001691612986916137d1565b6000604051808303816000865af19150503d80600081146129c3576040519150601f19603f3d011682016040523d82523d6000602084013e6129c8565b606091505b5050905080612a33576040517f08c379a000000000000000000000000000000000000000000000000000000000815260206004820152600f60248201527f5452414e534645525f4641494c45440000000000000000000000000000000000604482015260640161067d565b505b50505050565b60008060007f000000000000000000000000000000000000000000000000000000000000000073ffffffffffffffffffffffffffffffffffffffff1663f7888aec7f000000000000000000000000000000000000000000000000000000000000000030604051602401612ad192919073ffffffffffffffffffffffffffffffffffffffff92831681529116602082015260400190565b6040516020818303038152906040529060e01b6020820180517bffffffffffffffffffffffffffffffffffffffffffffffffffffffff8381831617835250505050604051612b1f91906137d1565b600060405180830381855afa9150503d8060008114612b5a576040519150601f19603f3d011682016040523d82523d6000602084013e612b5f565b606091505b5091505080806020019051810190612b77919061376e565b604080517f000000000000000000000000000000000000000000000000000000000000000073ffffffffffffffffffffffffffffffffffffffff90811660248301523060448084019190915283518084039091018152606490920183526020820180517bffffffffffffffffffffffffffffffffffffffffffffffffffffffff167ff7888aec0000000000000000000000000000000000000000000000000000000017905291519295506000927f000000000000000000000000000000000000000000000000000000000000000090921691612c5391906137d1565b600060405180830381855afa9150503d8060008114612c8e576040519150601f19603f3d011682016040523d82523d6000602084013e612c93565b606091505b5091505080806020019051810190612cab919061376e565b925050509091565b6dffffffffffffffffffffffffffff8511801590612cdf57506dffffffffffffffffffffffffffff8411155b612d45576040517f08c379a000000000000000000000000000000000000000000000000000000000815260206004820152600860248201527f4f564552464c4f57000000000000000000000000000000000000000000000000604482015260640161067d565b6008547c0100000000000000000000000000000000000000000000000000000000900463ffffffff16612dc957600880546dffffffffffffffffffffffffffff8681166e010000000000000000000000000000027fffffffff0000000000000000000000000000000000000000000000000000000090921690881617179055612f89565b6000612dda640100000000426139a4565b90508163ffffffff168163ffffffff1614158015612e0757506dffffffffffffffffffffffffffff841615155b8015612e2257506dffffffffffffffffffffffffffff831615155b15612ee75781810360006dffffffffffffffffffffffffffff86167bffffffffffffffffffffffffffff0000000000000000000000000000607087901b1681612e6d57612e6d6139e7565b600580549290910463ffffffff851681029092019055905060006dffffffffffffffffffffffffffff8616607088901b7bffffffffffffffffffffffffffff00000000000000000000000000001681612ec857612ec86139e7565b0490508263ffffffff1681026006600082825401925050819055505050505b6008805463ffffffff9092167c0100000000000000000000000000000000000000000000000000000000027bffffffffffffffffffffffffffffffffffffffffffffffffffffffff6dffffffffffffffffffffffffffff8881166e010000000000000000000000000000027fffffffff00000000000000000000000000000000000000000000000000000000909516908a161793909317929092169190911790555b60408051868152602081018690527fcf2aa50876cdfbb541206f89af0ee78d44a2abf8d328e37fa4917f982149848a910160405180910390a15050505050565b6007546000908015613070576000612ff76110bb6dffffffffffffffffffffffffffff8088169089166138eb565b90508181111561306e576127108160045484846130149190613928565b61301e90886138eb565b61302891906138eb565b61303291906138d7565b61303c91906138d7565b9250821561306e5761306e7f000000000000000000000000000000000000000000000000000000000000000084613393565b505b509392505050565b73ffffffffffffffffffffffffffffffffffffffff8216600090815260016020526040812080548392906130ad908490613928565b909155505060008054829003815560405182815273ffffffffffffffffffffffffffffffffffffffff8416907fddf252ad1be2c89b69c2b068fc378daa952ba7f163c4a11628f55a4df523b3ef906020015b60405180910390a35050565b60008161311a57506000919050565b81600170010000000000000000000000000000000082106131405760809190911c9060401b5b68010000000000000000821061315b5760409190911c9060201b5b64010000000082106131725760209190911c9060101b5b6201000082106131875760109190911c9060081b5b610100821061319b5760089190911c9060041b5b601082106131ae5760049190911c9060021b5b600882106131ba5760011b5b60018185816131cb576131cb6139e7565b048201901c905060018185816131e3576131e36139e7565b048201901c905060018185816131fb576131fb6139e7565b048201901c90506001818581613213576132136139e7565b048201901c9050600181858161322b5761322b6139e7565b048201901c90506001818581613243576132436139e7565b048201901c9050600181858161325b5761325b6139e7565b048201901c90506000818581613273576132736139e7565b0490508082106132835780613285565b815b93505050505b919050565b60008083158061329e575082155b156132ae5750600090508061338a565b6000846132bb85896138eb565b6132c591906138d7565b9050858111613320576132db61271060026138eb565b6132e58288613928565b61330f907f00000000000000000000000000000000000000000000000000000000000000006138eb565b61331991906138d7565b9150613388565b60008461332d87896138eb565b61333791906138d7565b905061334661271060026138eb565b613350828a613928565b61337a907f00000000000000000000000000000000000000000000000000000000000000006138eb565b61338491906138d7565b9350505b505b94509492505050565b806000808282546133a491906138bf565b909155505073ffffffffffffffffffffffffffffffffffffffff82166000818152600160209081526040808320805486019055518481527fddf252ad1be2c89b69c2b068fc378daa952ba7f163c4a11628f55a4df523b3ef91016130ff565b8035801515811461328b57600080fd5b60006020828403121561342557600080fd5b813561343081613a74565b9392505050565b60006020828403121561344957600080fd5b815161343081613a74565b60008060006060848603121561346957600080fd5b833561347481613a74565b9250602084013561348481613a74565b915061349260408501613403565b90509250925092565b600080600080600060a086880312156134b357600080fd5b85356134be81613a74565b945060208601356134ce81613a74565b93506134dc60408701613403565b925060608601359150608086013567ffffffffffffffff8082111561350057600080fd5b818801915088601f83011261351457600080fd5b81358181111561352657613526613a45565b604051601f82017fffffffffffffffffffffffffffffffffffffffffffffffffffffffffffffffe0908116603f0116810190838211818310171561356c5761356c613a45565b816040528281528b602084870101111561358557600080fd5b8260208601602083013760006020848301015280955050505050509295509295909350565b600080604083850312156135bd57600080fd5b82356135c881613a74565b91506135d660208401613403565b90509250929050565b600080604083850312156135f257600080fd5b82356135fd81613a74565b946020939093013593505050565b6000806040838503121561361e57600080fd5b823561362981613a74565b9150602083013561363981613a74565b809150509250929050565b60008060006060848603121561365957600080fd5b833561366481613a74565b9250602084013561367481613a74565b929592945050506040919091013590565b600080600080600080600060e0888a0312156136a057600080fd5b87356136ab81613a74565b965060208801356136bb81613a74565b95506040880135945060608801359350608088013560ff811681146136df57600080fd5b9699959850939692959460a0840135945060c09093013592915050565b6000806020838503121561370f57600080fd5b823567ffffffffffffffff8082111561372757600080fd5b818501915085601f83011261373b57600080fd5b81358181111561374a57600080fd5b86602082850101111561375c57600080fd5b60209290920196919550909350505050565b60006020828403121561378057600080fd5b5051919050565b6000815180845261379f81602086016020860161393f565b601f017fffffffffffffffffffffffffffffffffffffffffffffffffffffffffffffffe0169290920160200192915050565b600082516137e381846020870161393f565b9190910192915050565b6020808252825182820181905260009190848201906040850190845b8181101561383b57835173ffffffffffffffffffffffffffffffffffffffff1683529284019291840191600101613809565b50909695505050505050565b602080825282518282018190526000919060409081850190868401855b8281101561389f578151805173ffffffffffffffffffffffffffffffffffffffff168552860151868501529284019290850190600101613864565b5091979650505050505050565b6020815260006134306020830184613787565b600082198211156138d2576138d26139b8565b500190565b6000826138e6576138e66139e7565b500490565b6000817fffffffffffffffffffffffffffffffffffffffffffffffffffffffffffffffff0483118215151615613923576139236139b8565b500290565b60008282101561393a5761393a6139b8565b500390565b60005b8381101561395a578181015183820152602001613942565b83811115612a355750506000910152565b60007fffffffffffffffffffffffffffffffffffffffffffffffffffffffffffffffff82141561399d5761399d6139b8565b5060010190565b6000826139b3576139b36139e7565b500690565b7f4e487b7100000000000000000000000000000000000000000000000000000000600052601160045260246000fd5b7f4e487b7100000000000000000000000000000000000000000000000000000000600052601260045260246000fd5b7f4e487b7100000000000000000000000000000000000000000000000000000000600052603260045260246000fd5b7f4e487b7100000000000000000000000000000000000000000000000000000000600052604160045260246000fd5b73ffffffffffffffffffffffffffffffffffffffff81168114613a9657600080fd5b5056fea2646970667358221220cac1766b845e8ba4c0757dd059a8216d1cbea509a97e739fc406adead106834764736f6c63430008070033a26469706673582212200923e9adc809643ffee969567bd845458e75c6c6eb021747da9b157ffc327f0364736f6c63430008070033",
  "devdoc": {
    "author": "Mudit Gupta.",
    "kind": "dev",
    "methods": {},
    "version": 1
  },
  "userdoc": {
    "kind": "user",
    "methods": {},
    "notice": "Contract for deploying Trident exchange Constant Product Pool with configurations.",
    "version": 1
  },
  "storageLayout": {
    "storage": [
      {
        "astId": 8137,
        "contract": "contracts/pool/ConstantProductPoolFactory.sol:ConstantProductPoolFactory",
        "label": "pools",
        "offset": 0,
        "slot": "0",
        "type": "t_mapping(t_address,t_mapping(t_address,t_array(t_address)dyn_storage))"
      },
      {
        "astId": 8141,
        "contract": "contracts/pool/ConstantProductPoolFactory.sol:ConstantProductPoolFactory",
        "label": "configAddress",
        "offset": 0,
        "slot": "1",
        "type": "t_mapping(t_bytes32,t_address)"
      }
    ],
    "types": {
      "t_address": {
        "encoding": "inplace",
        "label": "address",
        "numberOfBytes": "20"
      },
      "t_array(t_address)dyn_storage": {
        "base": "t_address",
        "encoding": "dynamic_array",
        "label": "address[]",
        "numberOfBytes": "32"
      },
      "t_bytes32": {
        "encoding": "inplace",
        "label": "bytes32",
        "numberOfBytes": "32"
      },
      "t_mapping(t_address,t_array(t_address)dyn_storage)": {
        "encoding": "mapping",
        "key": "t_address",
        "label": "mapping(address => address[])",
        "numberOfBytes": "32",
        "value": "t_array(t_address)dyn_storage"
      },
      "t_mapping(t_address,t_mapping(t_address,t_array(t_address)dyn_storage))": {
        "encoding": "mapping",
        "key": "t_address",
        "label": "mapping(address => mapping(address => address[]))",
        "numberOfBytes": "32",
        "value": "t_mapping(t_address,t_array(t_address)dyn_storage)"
      },
      "t_mapping(t_bytes32,t_address)": {
        "encoding": "mapping",
        "key": "t_bytes32",
        "label": "mapping(bytes32 => address)",
        "numberOfBytes": "32",
        "value": "t_address"
      }
    }
  }
}