{
  "address": "0x877bebEF2594f10a12c3222D0020D482b440708d",
  "abi": [
    {
      "inputs": [
        {
          "internalType": "address",
          "name": "_masterDeployer",
          "type": "address"
        }
      ],
      "stateMutability": "nonpayable",
      "type": "constructor"
    },
    {
      "inputs": [
        {
          "internalType": "bytes32",
          "name": "",
          "type": "bytes32"
        }
      ],
      "name": "configAddress",
      "outputs": [
        {
          "internalType": "address",
          "name": "",
          "type": "address"
        }
      ],
      "stateMutability": "view",
      "type": "function"
    },
    {
      "inputs": [
        {
          "internalType": "bytes",
          "name": "_deployData",
          "type": "bytes"
        }
      ],
      "name": "deployPool",
      "outputs": [
        {
          "internalType": "address",
          "name": "pool",
          "type": "address"
        }
      ],
      "stateMutability": "nonpayable",
      "type": "function"
    },
    {
      "inputs": [
        {
          "internalType": "address",
          "name": "token0",
          "type": "address"
        },
        {
          "internalType": "address",
          "name": "token1",
          "type": "address"
        },
        {
          "internalType": "uint256",
          "name": "startIndex",
          "type": "uint256"
        },
        {
          "internalType": "uint256",
          "name": "endIndex",
          "type": "uint256"
        }
      ],
      "name": "getPools",
      "outputs": [
        {
          "internalType": "address[]",
          "name": "pairPools",
          "type": "address[]"
        }
      ],
      "stateMutability": "view",
      "type": "function"
    },
    {
      "inputs": [],
      "name": "masterDeployer",
      "outputs": [
        {
          "internalType": "address",
          "name": "",
          "type": "address"
        }
      ],
      "stateMutability": "view",
      "type": "function"
    },
    {
      "inputs": [
        {
          "internalType": "address",
          "name": "",
          "type": "address"
        },
        {
          "internalType": "address",
          "name": "",
          "type": "address"
        },
        {
          "internalType": "uint256",
          "name": "",
          "type": "uint256"
        }
      ],
      "name": "pools",
      "outputs": [
        {
          "internalType": "address",
          "name": "",
          "type": "address"
        }
      ],
      "stateMutability": "view",
      "type": "function"
    },
    {
      "inputs": [
        {
          "internalType": "address",
          "name": "token0",
          "type": "address"
        },
        {
          "internalType": "address",
          "name": "token1",
          "type": "address"
        }
      ],
      "name": "poolsCount",
      "outputs": [
        {
          "internalType": "uint256",
          "name": "count",
          "type": "uint256"
        }
      ],
      "stateMutability": "view",
      "type": "function"
    }
  ],
  "transactionHash": "0x31362740f6285ce06bbae5a1346ecb2c2d60e1828dbe604eb0e44b348f0b0d01",
  "args": [
    "0xB8ef8579EEBDCCCf69305418E49a3A545301b393"
  ],
  "solcInputHash": "54eedb95824944b9250147be5a2e4035",
  "bytecode": "0x60a060405234801561001057600080fd5b5060405161530a38038061530a83398101604081905261002f9161008f565b806001600160a01b0381166100795760405162461bcd60e51b815260206004820152600c60248201526b5a45524f5f4144445245535360a01b604482015260640160405180910390fd5b60601b6001600160601b031916608052506100bf565b6000602082840312156100a157600080fd5b81516001600160a01b03811681146100b857600080fd5b9392505050565b60805160601c61521f6100eb6000396000818161015a0152818161036f0152610535015261521f6000f3fe60806040523480156200001157600080fd5b50600436106200007b5760003560e01c806371a25812116200005657806371a25812146200012e578063cf58879a1462000154578063f6ab6d99146200017c57600080fd5b8063169c4cef146200008057806327c3cae114620000c15780635bc93d6c14620000d8575b600080fd5b620000976200009136600462000a0c565b620001b5565b60405173ffffffffffffffffffffffffffffffffffffffff90911681526020015b60405180910390f35b62000097620000d236600462000ab7565b62000208565b6200011f620000e9366004620009ce565b73ffffffffffffffffffffffffffffffffffffffff91821660009081526020818152604080832093909416825291909152205490565b604051908152602001620000b8565b620001456200013f36600462000a52565b620003e3565b604051620000b8919062000b90565b620000977f000000000000000000000000000000000000000000000000000000000000000081565b620000976200018d36600462000a9d565b60016020526000908152604090205473ffffffffffffffffffffffffffffffffffffffff1681565b60006020528260005260406000206020528160005260406000208181548110620001de57600080fd5b60009182526020909120015473ffffffffffffffffffffffffffffffffffffffff16925083915050565b60008060008060008580602001905181019062000226919062000981565b93509350935093508273ffffffffffffffffffffffffffffffffffffffff168473ffffffffffffffffffffffffffffffffffffffff161115620002b3576040805173ffffffffffffffffffffffffffffffffffffffff8086166020830152861691810191909152606081018390526080810182905292939260a00160405160208183030381529060405295505b6040805160028082526060820183526000926020830190803683370190505090508481600081518110620002eb57620002eb62000d05565b602002602001019073ffffffffffffffffffffffffffffffffffffffff16908173ffffffffffffffffffffffffffffffffffffffff168152505083816001815181106200033c576200033c62000d05565b73ffffffffffffffffffffffffffffffffffffffff909216602092830291909101820152875190880120604051819089907f0000000000000000000000000000000000000000000000000000000000000000906200039a9062000973565b620003a792919062000bec565b8190604051809103906000f5905080158015620003c8573d6000803e3d6000fd5b509650620003d88783836200051d565b505050505050919050565b6060620003f1838362000c80565b67ffffffffffffffff8111156200040c576200040c62000d34565b60405190808252806020026020018201604052801562000436578160200160208202803683370190505b50905060005b82841015620005145773ffffffffffffffffffffffffffffffffffffffff8087166000908152602081815260408083209389168352929052208054859081106200048a576200048a62000d05565b9060005260206000200160009054906101000a900473ffffffffffffffffffffffffffffffffffffffff16828281518110620004ca57620004ca62000d05565b73ffffffffffffffffffffffffffffffffffffffff9092166020928302919091019091015283620004fb8162000c9a565b94505080806200050b9062000c9a565b9150506200043c565b50949350505050565b3373ffffffffffffffffffffffffffffffffffffffff7f00000000000000000000000000000000000000000000000000000000000000001614620005c2576040517f08c379a000000000000000000000000000000000000000000000000000000000815260206004820152601560248201527f554e415554484f52495a45445f4445504c4f594552000000000000000000000060448201526064015b60405180910390fd5b60008181526001602052604090205473ffffffffffffffffffffffffffffffffffffffff161562000650576040517f08c379a000000000000000000000000000000000000000000000000000000000815260206004820152601560248201527f504f4f4c5f414c52454144595f4445504c4f59454400000000000000000000006044820152606401620005b9565b600081815260016020526040812080547fffffffffffffffffffffffff00000000000000000000000000000000000000001673ffffffffffffffffffffffffffffffffffffffff86161790555b60018351038110156200096d57828160010181518110620006c257620006c262000d05565b602002602001015173ffffffffffffffffffffffffffffffffffffffff16838281518110620006f557620006f562000d05565b602002602001015173ffffffffffffffffffffffffffffffffffffffff16106200077c576040517f08c379a000000000000000000000000000000000000000000000000000000000815260206004820152601360248201527f494e56414c49445f544f4b454e5f4f52444552000000000000000000000000006044820152606401620005b9565b600181015b83518110156200096357600080858481518110620007a357620007a362000d05565b602002602001015173ffffffffffffffffffffffffffffffffffffffff1673ffffffffffffffffffffffffffffffffffffffff1681526020019081526020016000206000858381518110620007fc57620007fc62000d05565b60209081029190910181015173ffffffffffffffffffffffffffffffffffffffff90811683528282019390935260409091016000908120805460018101825590825291812090910180547fffffffffffffffffffffffff00000000000000000000000000000000000000001692881692909217909155845181908690849081106200088b576200088b62000d05565b602002602001015173ffffffffffffffffffffffffffffffffffffffff1673ffffffffffffffffffffffffffffffffffffffff1681526020019081526020016000206000858481518110620008e457620008e462000d05565b60209081029190910181015173ffffffffffffffffffffffffffffffffffffffff908116835282820193909352604090910160009081208054600180820183559183529290912090910180547fffffffffffffffffffffffff000000000000000000000000000000000000000016928816929092179091550162000781565b506001016200069d565b50505050565b6144608062000d8a83390190565b600080600080608085870312156200099857600080fd5b8451620009a58162000d63565b6020860151909450620009b88162000d63565b6040860151606090960151949790965092505050565b60008060408385031215620009e257600080fd5b8235620009ef8162000d63565b9150602083013562000a018162000d63565b809150509250929050565b60008060006060848603121562000a2257600080fd5b833562000a2f8162000d63565b9250602084013562000a418162000d63565b929592945050506040919091013590565b6000806000806080858703121562000a6957600080fd5b843562000a768162000d63565b9350602085013562000a888162000d63565b93969395505050506040820135916060013590565b60006020828403121562000ab057600080fd5b5035919050565b60006020828403121562000aca57600080fd5b813567ffffffffffffffff8082111562000ae357600080fd5b818401915084601f83011262000af857600080fd5b81358181111562000b0d5762000b0d62000d34565b604051601f82017fffffffffffffffffffffffffffffffffffffffffffffffffffffffffffffffe0908116603f0116810190838211818310171562000b565762000b5662000d34565b8160405282815287602084870101111562000b7057600080fd5b826020860160208301376000928101602001929092525095945050505050565b6020808252825182820181905260009190848201906040850190845b8181101562000be057835173ffffffffffffffffffffffffffffffffffffffff168352928401929184019160010162000bac565b50909695505050505050565b604081526000835180604084015260005b8181101562000c1c576020818701810151606086840101520162000bfd565b8181111562000c2f576000606083860101525b5073ffffffffffffffffffffffffffffffffffffffff93909316602083015250601f919091017fffffffffffffffffffffffffffffffffffffffffffffffffffffffffffffffe01601606001919050565b60008282101562000c955762000c9562000cd6565b500390565b60007fffffffffffffffffffffffffffffffffffffffffffffffffffffffffffffffff82141562000ccf5762000ccf62000cd6565b5060010190565b7f4e487b7100000000000000000000000000000000000000000000000000000000600052601160045260246000fd5b7f4e487b7100000000000000000000000000000000000000000000000000000000600052603260045260246000fd5b7f4e487b7100000000000000000000000000000000000000000000000000000000600052604160045260246000fd5b73ffffffffffffffffffffffffffffffffffffffff8116811462000d8657600080fd5b5056fe6101e06040523480156200001257600080fd5b5060405162004460380380620044608339810160408190526200003591620006d0565b604080518082018252600e81526d29bab9b434902628102a37b5b2b760911b6020918201528151808301835260018152603160f81b9082015281517f8b73c3c69bb8fe3d512ecc4cf759cc79239f7b179b0ffacaa9a75d522b39400f918101919091527fc2bf45081e840722410522aa366600d7fe4da5bfb5a5b417f4d5125b4ed180a4918101919091527fc89efdaa54c0f20c7adf612882df0950f5a951637e0307cdcb4c672f298b8bc660608201524660808201523060a082015260c0016040516020818303038152906040528051906020012060808181525050600080600080858060200190518101906200012e919062000683565b929650909450925090506001600160a01b038416620001835760405162461bcd60e51b815260206004820152600c60248201526b5a45524f5f4144445245535360a01b60448201526064015b60405180910390fd5b826001600160a01b0316846001600160a01b03161415620001e75760405162461bcd60e51b815260206004820152601360248201527f4944454e544943414c5f4144445245535345530000000000000000000000000060448201526064016200017a565b6127108211156200022e5760405162461bcd60e51b815260206004820152601060248201526f494e56414c49445f535741505f46454560801b60448201526064016200017a565b80620002665760405162461bcd60e51b81526020600482015260066024820152655a45524f5f4160d01b60448201526064016200017a565b60408051600481526024810182526020810180516001600160e01b03166360a56c0160e11b17905290516000916001600160a01b03881691620002aa9190620007dc565b600060405180830381855afa9150503d8060008114620002e7576040519150601f19603f3d011682016040523d82523d6000602084013e620002ec565b606091505b5060408051600481526024810182526020810180516001600160e01b0316630605066960e11b1790529051919350600092506001600160a01b03891691620003359190620007dc565b600060405180830381855afa9150503d806000811462000372576040519150601f19603f3d011682016040523d82523d6000602084013e62000377565b606091505b5060408051600481526024810182526020810180516001600160e01b0316634da3182760e01b1790529051919350600092506001600160a01b038a1691620003c09190620007dc565b600060405180830381855afa9150503d8060008114620003fd576040519150601f19603f3d011682016040523d82523d6000602084013e62000402565b606091505b5060408051600481526024810182526020810180516001600160e01b031663313ce56760e01b1790529051919350600092506001600160a01b038a16916200044b9190620007dc565b600060405180830381855afa9150503d806000811462000488576040519150601f19603f3d011682016040523d82523d6000602084013e6200048d565b606091505b5060408051600481526024810182526020810180516001600160e01b031663313ce56760e01b1790529051919350600092506001600160a01b038a1691620004d69190620007dc565b600060405180830381855afa9150503d806000811462000513576040519150601f19603f3d011682016040523d82523d6000602084013e62000518565b606091505b506001600160601b031960608c811b8216610120528b901b166101405260a08990528651909250620005559150860160209081019087016200079d565b60045583516200056f90850160209081019086016200065c565b60601b6001600160601b03191660c05282516200059690602090850181019085016200065c565b6001600160601b0319606091821b811660e052908b901b1661010052610160869052620005c586600262000904565b610180528151620005e09083016020908101908401620007b7565b620005ed90601262000926565b620005fa90600a62000843565b6101a0528051620006159082016020908101908301620007b7565b6200062290601262000926565b6200062f90600a62000843565b6101c0525050600160065550620009c4975050505050505050565b80516200065781620009ab565b919050565b6000602082840312156200066f57600080fd5b81516200067c81620009ab565b9392505050565b600080600080608085870312156200069a57600080fd5b8451620006a781620009ab565b6020860151909450620006ba81620009ab565b6040860151606090960151949790965092505050565b60008060408385031215620006e457600080fd5b82516001600160401b0380821115620006fc57600080fd5b818501915085601f8301126200071157600080fd5b81518181111562000726576200072662000995565b604051601f8201601f19908116603f0116810190838211818310171562000751576200075162000995565b816040528281528860208487010111156200076b57600080fd5b6200077e8360208301602088016200094c565b809650505050505062000794602084016200064a565b90509250929050565b600060208284031215620007b057600080fd5b5051919050565b600060208284031215620007ca57600080fd5b815160ff811681146200067c57600080fd5b60008251620007f08184602087016200094c565b9190910192915050565b600181815b808511156200083b5781600019048211156200081f576200081f6200097f565b808516156200082d57918102915b93841c9390800290620007ff565b509250929050565b60006200067c60ff8416836000826200085f57506001620008fe565b816200086e57506000620008fe565b81600181146200088757600281146200089257620008b2565b6001915050620008fe565b60ff841115620008a657620008a66200097f565b50506001821b620008fe565b5060208310610133831016604e8410600b8410161715620008d7575081810a620008fe565b620008e38383620007fa565b8060001904821115620008fa57620008fa6200097f565b0290505b92915050565b60008160001904831182151516156200092157620009216200097f565b500290565b600060ff821660ff8416808210156200094357620009436200097f565b90039392505050565b60005b83811015620009695781810151838201526020016200094f565b8381111562000979576000848401525b50505050565b634e487b7160e01b600052601160045260246000fd5b634e487b7160e01b600052604160045260246000fd5b6001600160a01b0381168114620009c157600080fd5b50565b60805160a05160c05160601c60e05160601c6101005160601c6101205160601c6101405160601c61016051610180516101a0516101c05161383162000c2f600039600081816104020152818161233e0152818161239b015281816123f30152818161248a0152612e4b015260008181610571015281816123120152818161236a015281816123c7015281816124640152612e1d015260008181612f7201528181612fc80152818161307301526130bd0152600061062d0152600081816105c80152818161074b015281816107ee015281816108e7015281816109c201528181610a6e01528181610a9201528181610eed01528181610f4f0152818161103d0152818161121e01528181611277015281816114a301528181611aaf01528181611b6801528181611c8e01528181611d1a0152818161217201528181612b290152612b4d015260008181610310015281816106f7015281816107710152818161081d015281816108410152818161099c01528181610a3f01528181610ec101528181610f1901528181610fd4015281816111c90152818161132d01528181611435015281816118b101528181611b0801528181611b9401528181611bd401528181611cee0152818161214601528181612ada0152612afe0152600081816105a101526117b40152600081816103db015281816121d2015281816125d801528181612707015281816127ff0152612c390152600081816102c401528181610b340152612ce5015260008181610429015281816107a0015281816109f10152818161187401528181612c8e01528181612d6d0152612dd80152600081816103b40152611e3f01526138316000f3fe608060405234801561001057600080fd5b506004361061020b5760003560e01c806367e4ac2c1161012a578063a9059cbb116100bd578063cf58879a1161008c578063d505accf11610071578063d505accf146105ea578063dd62ed3e146105fd578063f446c1d01461062857600080fd5b8063cf58879a1461059c578063d21220a7146105c357600080fd5b8063a9059cbb14610546578063af8c09bf14610559578063baa8c7cb1461056c578063c14ad8021461059357600080fd5b806392bc3219116100f957806392bc3219146104c657806395d89b41146104d0578063a69840a81461050c578063a8f1f52e1461053357600080fd5b806367e4ac2c1461045e57806370a08231146104735780637ba0e2e7146104935780637ecebe00146104a657600080fd5b80632a07b6c7116101a25780634da31827116101715780634da31827146103d65780634e25dc47146103fd57806354cf2aeb14610424578063627dd56a1461044b57600080fd5b80632a07b6c71461034e57806330adf81f1461036e578063313ce567146103955780633644e515146103af57600080fd5b80630c0a0cd2116101de5780630c0a0cd2146102bf5780630dfe16811461030b57806318160ddd1461033257806323b872dd1461033b57600080fd5b8063053da1c81461021057806306fdde03146102365780630902f1ac1461027f578063095ea7b31461029c575b600080fd5b61022361021e36600461347f565b61064f565b6040519081526020015b60405180910390f35b6102726040518060400160405280600e81526020017f5375736869204c5020546f6b656e00000000000000000000000000000000000081525081565b60405161022d919061362f565b610287610bfe565b6040805192835260208301919091520161022d565b6102af6102aa366004613362565b610c12565b604051901515815260200161022d565b6102e67f000000000000000000000000000000000000000000000000000000000000000081565b60405173ffffffffffffffffffffffffffffffffffffffff909116815260200161022d565b6102e67f000000000000000000000000000000000000000000000000000000000000000081565b61022360005481565b6102af6103493660046133c7565b610c8b565b61036161035c36600461347f565b610dd7565b60405161022d91906135ca565b6102237f6e71edae12b1b97f4d1f60370fef10105fa2faae0126114a169c64845d6126c981565b61039d601281565b60405160ff909116815260200161022d565b6102237f000000000000000000000000000000000000000000000000000000000000000081565b6102e67f000000000000000000000000000000000000000000000000000000000000000081565b6102237f000000000000000000000000000000000000000000000000000000000000000081565b6102237f000000000000000000000000000000000000000000000000000000000000000081565b61022361045936600461347f565b61111d565b610466611413565b60405161022d9190613570565b6102236104813660046131ba565b60016020526000908152604090205481565b6102236104a136600461347f565b611512565b6102236104b43660046131ba565b60036020526000908152604090205481565b6104ce611742565b005b6102726040518060400160405280600381526020017f534c50000000000000000000000000000000000000000000000000000000000081525081565b6102237f54726964656e743a487962726964506f6f6c000000000000000000000000000081565b61022361054136600461347f565b61183d565b6102af610554366004613362565b611931565b61022361056736600461347f565b6119b6565b6102237f000000000000000000000000000000000000000000000000000000000000000081565b61022360045481565b6102e67f000000000000000000000000000000000000000000000000000000000000000081565b6102e67f000000000000000000000000000000000000000000000000000000000000000081565b6104ce6105f8366004613408565b611dac565b61022361060b36600461338e565b600260209081526000928352604080842090915290825290205481565b6102237f000000000000000000000000000000000000000000000000000000000000000081565b60006006546001146106c2576040517f08c379a000000000000000000000000000000000000000000000000000000000815260206004820152600660248201527f4c4f434b4544000000000000000000000000000000000000000000000000000060448201526064015b60405180910390fd5b60026006556000808080806106d98789018961321e565b945094509450945094506000806106ee612114565b915091506000807f000000000000000000000000000000000000000000000000000000000000000073ffffffffffffffffffffffffffffffffffffffff168973ffffffffffffffffffffffffffffffffffffffff1614156108e5577f000000000000000000000000000000000000000000000000000000000000000091506107967f00000000000000000000000000000000000000000000000000000000000000008761219d565b95506127106107c57f000000000000000000000000000000000000000000000000000000000000000088613695565b6107cf919061365a565b90506107e76107de82886136d2565b85856001612302565b99506108167f0000000000000000000000000000000000000000000000000000000000000000898c888b6124c2565b600061086a7f00000000000000000000000000000000000000000000000000000000000000006108657f000000000000000000000000000000000000000000000000000000000000000061254b565b61219d565b90508661087786836136d2565b10156108df576040517f08c379a000000000000000000000000000000000000000000000000000000000815260206004820152601660248201527f494e53554646494349454e545f414d4f554e545f494e0000000000000000000060448201526064016106b9565b50610b2d565b7f000000000000000000000000000000000000000000000000000000000000000073ffffffffffffffffffffffffffffffffffffffff168973ffffffffffffffffffffffffffffffffffffffff161461099a576040517f08c379a000000000000000000000000000000000000000000000000000000000815260206004820152601360248201527f494e56414c49445f494e5055545f544f4b454e0000000000000000000000000060448201526064016106b9565b7f000000000000000000000000000000000000000000000000000000000000000091506109e77f00000000000000000000000000000000000000000000000000000000000000008761219d565b9550612710610a167f000000000000000000000000000000000000000000000000000000000000000088613695565b610a20919061365a565b9050610a38610a2f82886136d2565b85856000612302565b9950610a677f0000000000000000000000000000000000000000000000000000000000000000898c888b6124c2565b6000610ab67f00000000000000000000000000000000000000000000000000000000000000006108657f000000000000000000000000000000000000000000000000000000000000000061254b565b905086610ac385836136d2565b1015610b2b576040517f08c379a000000000000000000000000000000000000000000000000000000000815260206004820152601660248201527f494e53554646494349454e545f414d4f554e545f494e0000000000000000000060448201526064016106b9565b505b610b5a89827f00000000000000000000000000000000000000000000000000000000000000006000612664565b610b626129c3565b8173ffffffffffffffffffffffffffffffffffffffff168973ffffffffffffffffffffffffffffffffffffffff168973ffffffffffffffffffffffffffffffffffffffff167fcd3829a3813dc3cdd188fd3d01dcf3268c16be2fdd2dd21d0665418816e46062898e604051610be1929190918252602082015260400190565b60405180910390a450506001600655509598975050505050505050565b600080610c09612114565b90939092509050565b33600081815260026020908152604080832073ffffffffffffffffffffffffffffffffffffffff8716808552925280832085905551919290917f8c5be1e5ebec7d5bd14f71427d1e84f3dd0314c0f7b2291e5b200ac8c7c3b92590610c7a9086815260200190565b60405180910390a350600192915050565b73ffffffffffffffffffffffffffffffffffffffff831660009081526002602090815260408083203384529091528120547fffffffffffffffffffffffffffffffffffffffffffffffffffffffffffffffff14610d285773ffffffffffffffffffffffffffffffffffffffff8416600090815260026020908152604080832033845290915281208054849290610d229084906136d2565b90915550505b73ffffffffffffffffffffffffffffffffffffffff841660009081526001602052604081208054849290610d5d9084906136d2565b909155505073ffffffffffffffffffffffffffffffffffffffff808416600081815260016020526040908190208054860190555190918616907fddf252ad1be2c89b69c2b068fc378daa952ba7f163c4a11628f55a4df523b3ef90610dc59086815260200190565b60405180910390a35060019392505050565b6060600654600114610e45576040517f08c379a000000000000000000000000000000000000000000000000000000000815260206004820152600660248201527f4c4f434b4544000000000000000000000000000000000000000000000000000060448201526064016106b9565b6002600655600080610e598486018661332d565b91509150600080610e68612ad2565b600080543082526001602052604082205493955091935090919082610e8d8684613695565b610e97919061365a565b9050600083610ea68685613695565b610eb0919061365a565b9050610ebc3084612b71565b610ee87f0000000000000000000000000000000000000000000000000000000000000000838a8a612664565b610f147f0000000000000000000000000000000000000000000000000000000000000000828a8a612664565b610f3e7f000000000000000000000000000000000000000000000000000000000000000083612c04565b610f4890876136d2565b9550610f747f000000000000000000000000000000000000000000000000000000000000000082612c04565b610f7e90866136d2565b9450610f886129c3565b6040805160028082526060820190925290816020015b6040805180820190915260008082526020820152815260200190600190039081610f9e57905050985060405180604001604052807f000000000000000000000000000000000000000000000000000000000000000073ffffffffffffffffffffffffffffffffffffffff168152602001838152508960008151811061102557611025613778565b602002602001018190525060405180604001604052807f000000000000000000000000000000000000000000000000000000000000000073ffffffffffffffffffffffffffffffffffffffff168152602001828152508960018151811061108e5761108e613778565b60200260200101819052508773ffffffffffffffffffffffffffffffffffffffff163373ffffffffffffffffffffffffffffffffffffffff167fdccd412f0b1252819cb1fd330b93224ca42612892bb3f4f789976e6d819364968484604051611101929190918252602082015260400190565b60405180910390a3505060016006555094979650505050505050565b600060065460011461118b576040517f08c379a000000000000000000000000000000000000000000000000000000000815260206004820152600660248201527f4c4f434b4544000000000000000000000000000000000000000000000000000060448201526064016106b9565b6002600655600080806111a0858701876131d7565b9250925092506000806111b1612114565b915091506000806111c0612ad2565b915091506000807f000000000000000000000000000000000000000000000000000000000000000073ffffffffffffffffffffffffffffffffffffffff168973ffffffffffffffffffffffffffffffffffffffff16141561127557507f000000000000000000000000000000000000000000000000000000000000000061124786856136d2565b915060006112558a84612c84565b905061126d61126482856136d2565b88886001612302565b9a5050611380565b7f000000000000000000000000000000000000000000000000000000000000000073ffffffffffffffffffffffffffffffffffffffff168973ffffffffffffffffffffffffffffffffffffffff161461132a576040517f08c379a000000000000000000000000000000000000000000000000000000000815260206004820152601360248201527f494e56414c49445f494e5055545f544f4b454e0000000000000000000000000060448201526064016106b9565b507f000000000000000000000000000000000000000000000000000000000000000061135685846136d2565b915060006113648a84612c84565b905061137c61137382856136d2565b88886000612302565b9a50505b61138c818b8a8a612664565b6113946129c3565b8073ffffffffffffffffffffffffffffffffffffffff168973ffffffffffffffffffffffffffffffffffffffff168973ffffffffffffffffffffffffffffffffffffffff167fcd3829a3813dc3cdd188fd3d01dcf3268c16be2fdd2dd21d0665418816e46062858e604051610be1929190918252602082015260400190565b60408051600280825260608083018452926020830190803683370190505090507f00000000000000000000000000000000000000000000000000000000000000008160008151811061146757611467613778565b602002602001019073ffffffffffffffffffffffffffffffffffffffff16908173ffffffffffffffffffffffffffffffffffffffff16815250507f0000000000000000000000000000000000000000000000000000000000000000816001815181106114d5576114d5613778565b602002602001019073ffffffffffffffffffffffffffffffffffffffff16908173ffffffffffffffffffffffffffffffffffffffff168152505090565b6000600654600114611580576040517f08c379a000000000000000000000000000000000000000000000000000000000815260206004820152600660248201527f4c4f434b4544000000000000000000000000000000000000000000000000000060448201526064016106b9565b60026006556000611593838501856131ba565b90506000806115a0612114565b915091506000806115af612ad2565b600080549294509092506115c386856136d2565b905060006115d186856136d2565b90506000806115e284848b8b612d12565b909250905060006116056115f6848a6136d2565b611600848a6136d2565b612e15565b90508561162c576116186103e8826136d2565b9b5061162760006103e8612e85565b61165e565b60006116388b8b612e15565b9050808761164682856136d2565b6116509190613695565b61165a919061365a565b9c50505b8b6116c5576040517f08c379a000000000000000000000000000000000000000000000000000000000815260206004820152601d60248201527f494e53554646494349454e545f4c49515549444954595f4d494e54454400000060448201526064016106b9565b6116cf8b8d612e85565b6116d76129c3565b604080518681526020810186905273ffffffffffffffffffffffffffffffffffffffff8d169133917fdbba30eb0402b389513e87f51f4db2db80bed454384ec6925a24097c3548a02a91015b60405180910390a35050600160065550979a9950505050505050505050565b60408051600481526024810182526020810180517bffffffffffffffffffffffffffffffffffffffffffffffffffffffff167fc14ad80200000000000000000000000000000000000000000000000000000000179052905160009173ffffffffffffffffffffffffffffffffffffffff7f000000000000000000000000000000000000000000000000000000000000000016916117df9190613554565b600060405180830381855afa9150503d806000811461181a576040519150601f19603f3d011682016040523d82523d6000602084013e61181f565b606091505b509150508080602001905181019061183791906134f1565b60045550565b6000808061184d84860186613362565b9150915060008061185c612114565b9150915061186a848461219d565b92506127106118997f000000000000000000000000000000000000000000000000000000000000000085613695565b6118a3919061365a565b6118ad90846136d2565b92507f000000000000000000000000000000000000000000000000000000000000000073ffffffffffffffffffffffffffffffffffffffff168473ffffffffffffffffffffffffffffffffffffffff161415611917576119108383836001612302565b9450611927565b6119248383836000612302565b94505b5050505092915050565b336000908152600160205260408120805483919083906119529084906136d2565b909155505073ffffffffffffffffffffffffffffffffffffffff8316600081815260016020526040908190208054850190555133907fddf252ad1be2c89b69c2b068fc378daa952ba7f163c4a11628f55a4df523b3ef90610c7a9086815260200190565b6000600654600114611a24576040517f08c379a000000000000000000000000000000000000000000000000000000000815260206004820152600660248201527f4c4f434b4544000000000000000000000000000000000000000000000000000060448201526064016106b9565b600260065560008080611a39858701876131d7565b925092509250600080611a4a612114565b91509150600080611a59612ad2565b600080543082526001602052604082205493955091935090919082611a7e8684613695565b611a88919061365a565b9050600083611a978685613695565b611aa1919061365a565b9050611aad3084612b71565b7f000000000000000000000000000000000000000000000000000000000000000073ffffffffffffffffffffffffffffffffffffffff168b73ffffffffffffffffffffffffffffffffffffffff161415611bd2576000611b2d7f000000000000000000000000000000000000000000000000000000000000000084612c84565b9050611b57611b3c82856136d2565b611b46858c6136d2565b611b50858c6136d2565b6001612302565b611b619083613642565b9150611b8f7f0000000000000000000000000000000000000000000000000000000000000000838d8d612664565b611bb97f000000000000000000000000000000000000000000000000000000000000000084612c04565b611bc390886136d2565b9650819c506000925050611d54565b7f000000000000000000000000000000000000000000000000000000000000000073ffffffffffffffffffffffffffffffffffffffff168b73ffffffffffffffffffffffffffffffffffffffff1614611c87576040517f08c379a000000000000000000000000000000000000000000000000000000000815260206004820152601460248201527f494e56414c49445f4f55545055545f544f4b454e00000000000000000000000060448201526064016106b9565b6000611cb37f000000000000000000000000000000000000000000000000000000000000000083612c84565b9050611cdd611cc282846136d2565b611ccc858c6136d2565b611cd6858c6136d2565b6000612302565b611ce79084613642565b9250611d157f0000000000000000000000000000000000000000000000000000000000000000848d8d612664565b611d3f7f000000000000000000000000000000000000000000000000000000000000000083612c04565b611d4990876136d2565b9550829c5060009150505b611d5c6129c3565b604080518381526020810183905273ffffffffffffffffffffffffffffffffffffffff8c169133917fdccd412f0b1252819cb1fd330b93224ca42612892bb3f4f789976e6d819364969101611723565b42841015611e16576040517f08c379a000000000000000000000000000000000000000000000000000000000815260206004820152601760248201527f5045524d49545f444541444c494e455f4558504952454400000000000000000060448201526064016106b9565b73ffffffffffffffffffffffffffffffffffffffff8716600090815260036020526040812080547f0000000000000000000000000000000000000000000000000000000000000000917f6e71edae12b1b97f4d1f60370fef10105fa2faae0126114a169c64845d6126c9918b918b918b9187611e9183613710565b9091555060408051602081019690965273ffffffffffffffffffffffffffffffffffffffff94851690860152929091166060840152608083015260a082015260c0810187905260e00160405160208183030381529060405280519060200120604051602001611f329291907f190100000000000000000000000000000000000000000000000000000000000081526002810192909252602282015260420190565b604080517fffffffffffffffffffffffffffffffffffffffffffffffffffffffffffffffe08184030181528282528051602091820120600080855291840180845281905260ff88169284019290925260608301869052608083018590529092509060019060a0016020604051602081039080840390855afa158015611fbb573d6000803e3d6000fd5b50506040517fffffffffffffffffffffffffffffffffffffffffffffffffffffffffffffffe0015191505073ffffffffffffffffffffffffffffffffffffffff81161580159061203657508873ffffffffffffffffffffffffffffffffffffffff168173ffffffffffffffffffffffffffffffffffffffff16145b61209c576040517f08c379a000000000000000000000000000000000000000000000000000000000815260206004820152601860248201527f494e56414c49445f5045524d49545f5349474e4154555245000000000000000060448201526064016106b9565b73ffffffffffffffffffffffffffffffffffffffff81811660009081526002602090815260408083208c8516808552908352928190208b9055518a815291928c16917f8c5be1e5ebec7d5bd14f71427d1e84f3dd0314c0f7b2291e5b200ac8c7c3b925910160405180910390a3505050505050505050565b6005546fffffffffffffffffffffffffffffffff8082169170010000000000000000000000000000000090041661216b7f00000000000000000000000000000000000000000000000000000000000000008361219d565b91506121977f00000000000000000000000000000000000000000000000000000000000000008261219d565b90509091565b60405173ffffffffffffffffffffffffffffffffffffffff8381166024830152604482018390526000606483018190529182917f000000000000000000000000000000000000000000000000000000000000000016907f5662311800000000000000000000000000000000000000000000000000000000906084015b604080517fffffffffffffffffffffffffffffffffffffffffffffffffffffffffffffffe08184030181529181526020820180517bffffffffffffffffffffffffffffffffffffffffffffffffffffffff167fffffffff000000000000000000000000000000000000000000000000000000009094169390931790925290516122a29190613554565b600060405180830381855afa9150503d80600081146122dd576040519150601f19603f3d011682016040523d82523d6000602084013e6122e2565b606091505b50915050808060200190518101906122fa91906134f1565b949350505050565b60008060008315612396576123377f000000000000000000000000000000000000000000000000000000000000000087613695565b91506123637f000000000000000000000000000000000000000000000000000000000000000086613695565b905061238f7f000000000000000000000000000000000000000000000000000000000000000088613695565b965061241b565b6123c07f000000000000000000000000000000000000000000000000000000000000000086613695565b91506123ec7f000000000000000000000000000000000000000000000000000000000000000087613695565b90506124187f000000000000000000000000000000000000000000000000000000000000000088613695565b96505b60006124278383612ef5565b905060006124358985613642565b905060006124438284613048565b9050600161245182866136d2565b61245b91906136d2565b955086612488577f00000000000000000000000000000000000000000000000000000000000000006124aa565b7f00000000000000000000000000000000000000000000000000000000000000005b6124b4908761365a565b9a9950505050505050505050565b6124ce85848684612664565b815115612544576040517fbd50c7b1000000000000000000000000000000000000000000000000000000008152339063bd50c7b19061251190859060040161362f565b600060405180830381600087803b15801561252b57600080fd5b505af115801561253f573d6000803e3d6000fd5b505050505b5050505050565b6040805173ffffffffffffffffffffffffffffffffffffffff83811660248301523060448084019190915283518084039091018152606490920183526020820180517bffffffffffffffffffffffffffffffffffffffffffffffffffffffff167ff7888aec00000000000000000000000000000000000000000000000000000000179052915160009283927f0000000000000000000000000000000000000000000000000000000000000000909116916126059190613554565b600060405180830381855afa9150503d8060008114612640576040519150601f19603f3d011682016040523d82523d6000602084013e612645565b606091505b509150508080602001905181019061265d91906134f1565b9392505050565b80156127e6576040805173ffffffffffffffffffffffffffffffffffffffff8681166024830152306044830152848116606483015260848201869052600060a48084018290528451808503909101815260c490930184526020830180517bffffffffffffffffffffffffffffffffffffffffffffffffffffffff167f97da6d300000000000000000000000000000000000000000000000000000000017905292517f00000000000000000000000000000000000000000000000000000000000000009091169161273391613554565b6000604051808303816000865af19150503d8060008114612770576040519150601f19603f3d011682016040523d82523d6000602084013e612775565b606091505b50509050806127e0576040517f08c379a000000000000000000000000000000000000000000000000000000000815260206004820152600f60248201527f57495448445241575f4641494c4544000000000000000000000000000000000060448201526064016106b9565b506129bd565b600073ffffffffffffffffffffffffffffffffffffffff7f0000000000000000000000000000000000000000000000000000000000000000167ff18d03cc0000000000000000000000000000000000000000000000000000000086308661284d838a612c04565b60405173ffffffffffffffffffffffffffffffffffffffff9485166024820152928416604484015292166064820152608481019190915260a401604080517fffffffffffffffffffffffffffffffffffffffffffffffffffffffffffffffe08184030181529181526020820180517bffffffffffffffffffffffffffffffffffffffffffffffffffffffff167fffffffff000000000000000000000000000000000000000000000000000000009094169390931790925290516129109190613554565b6000604051808303816000865af19150503d806000811461294d576040519150601f19603f3d011682016040523d82523d6000602084013e612952565b606091505b5050905080612544576040517f08c379a000000000000000000000000000000000000000000000000000000000815260206004820152600f60248201527f5452414e534645525f4641494c4544000000000000000000000000000000000060448201526064016106b9565b50505050565b6000806129ce612ad2565b90925090506fffffffffffffffffffffffffffffffff82108015612a0157506fffffffffffffffffffffffffffffffff81105b612a67576040517f08c379a000000000000000000000000000000000000000000000000000000000815260206004820152600860248201527f4f564552464c4f5700000000000000000000000000000000000000000000000060448201526064016106b9565b6fffffffffffffffffffffffffffffffff818116700100000000000000000000000000000000029083161760055560408051838152602081018390527fcf2aa50876cdfbb541206f89af0ee78d44a2abf8d328e37fa4917f982149848a910160405180910390a15050565b600080612b227f00000000000000000000000000000000000000000000000000000000000000006108657f000000000000000000000000000000000000000000000000000000000000000061254b565b91506121977f00000000000000000000000000000000000000000000000000000000000000006108657f000000000000000000000000000000000000000000000000000000000000000061254b565b73ffffffffffffffffffffffffffffffffffffffff821660009081526001602052604081208054839290612ba69084906136d2565b909155505060008054829003815560405182815273ffffffffffffffffffffffffffffffffffffffff8416907fddf252ad1be2c89b69c2b068fc378daa952ba7f163c4a11628f55a4df523b3ef906020015b60405180910390a35050565b60405173ffffffffffffffffffffffffffffffffffffffff8381166024830152604482018390526000606483018190529182917f000000000000000000000000000000000000000000000000000000000000000016907fda5139ca0000000000000000000000000000000000000000000000000000000090608401612219565b6000612710612cb37f000000000000000000000000000000000000000000000000000000000000000084613695565b612cbd919061365a565b9050600061271060045483612cd29190613695565b612cdc919061365a565b9050612d0b84827f00000000000000000000000000000000000000000000000000000000000000006000612664565b5092915050565b600080831580612d20575082155b15612d3057506000905080612e0c565b600084612d3d8589613695565b612d47919061365a565b9050858111612da257612d5d6127106002613695565b612d6782886136d2565b612d91907f0000000000000000000000000000000000000000000000000000000000000000613695565b612d9b919061365a565b9150612e0a565b600084612daf8789613695565b612db9919061365a565b9050612dc86127106002613695565b612dd2828a6136d2565b612dfc907f0000000000000000000000000000000000000000000000000000000000000000613695565b612e06919061365a565b9350505b505b94509492505050565b600080612e427f000000000000000000000000000000000000000000000000000000000000000085613695565b90506000612e707f000000000000000000000000000000000000000000000000000000000000000085613695565b9050612e7c8282612ef5565b95945050505050565b80600080828254612e969190613642565b909155505073ffffffffffffffffffffffffffffffffffffffff82166000818152600160209081526040808320805486019055518481527fddf252ad1be2c89b69c2b068fc378daa952ba7f163c4a11628f55a4df523b3ef9101612bf8565b600080612f028385613642565b905080612f0e57600091505b600081815b61010081101561303e576000600487848a612f2e8280613695565b612f38919061365a565b612f429190613695565b612f4c919061365a565b612f56919061365a565b9050829350806003612f689190613695565b836001612f9660647f000000000000000000000000000000000000000000000000000000000000000061365a565b612fa091906136d2565b612faa9190613695565b612fb49190613642565b83612fc0836002613695565b6064612fec897f0000000000000000000000000000000000000000000000000000000000000000613695565b612ff6919061365a565b6130009190613642565b61300a9190613695565b613014919061365a565b9250613020838561317a565b1561302b575061303e565b508061303681613710565b915050612f13565b5095945050505050565b600080613056846002613695565b6130608480613695565b61306a919061365a565b905060646130997f00000000000000000000000000000000000000000000000000000000000000006002613695565b6130a3919061365a565b6130ad8483613695565b6130b7919061365a565b905060007f00000000000000000000000000000000000000000000000000000000000000006130e7606486613695565b6130f1919061365a565b6130fb9086613642565b9050600084935060005b61010081101561192757849150858361311f846002613695565b6131299190613642565b61313391906136d2565b8461313e8780613695565b6131489190613642565b613152919061365a565b945061315e858361317a565b1561316857611927565b8061317281613710565b915050613105565b600060016131888484613191565b11159392505050565b6000818311156131a057508082035b500390565b803580151581146131b557600080fd5b919050565b6000602082840312156131cc57600080fd5b813561265d816137d6565b6000806000606084860312156131ec57600080fd5b83356131f7816137d6565b92506020840135613207816137d6565b9150613215604085016131a5565b90509250925092565b600080600080600060a0868803121561323657600080fd5b8535613241816137d6565b94506020860135613251816137d6565b935061325f604087016131a5565b925060608601359150608086013567ffffffffffffffff8082111561328357600080fd5b818801915088601f83011261329757600080fd5b8135818111156132a9576132a96137a7565b604051601f82017fffffffffffffffffffffffffffffffffffffffffffffffffffffffffffffffe0908116603f011681019083821181831017156132ef576132ef6137a7565b816040528281528b602084870101111561330857600080fd5b8260208601602083013760006020848301015280955050505050509295509295909350565b6000806040838503121561334057600080fd5b823561334b816137d6565b9150613359602084016131a5565b90509250929050565b6000806040838503121561337557600080fd5b8235613380816137d6565b946020939093013593505050565b600080604083850312156133a157600080fd5b82356133ac816137d6565b915060208301356133bc816137d6565b809150509250929050565b6000806000606084860312156133dc57600080fd5b83356133e7816137d6565b925060208401356133f7816137d6565b929592945050506040919091013590565b600080600080600080600060e0888a03121561342357600080fd5b873561342e816137d6565b9650602088013561343e816137d6565b95506040880135945060608801359350608088013560ff8116811461346257600080fd5b9699959850939692959460a0840135945060c09093013592915050565b6000806020838503121561349257600080fd5b823567ffffffffffffffff808211156134aa57600080fd5b818501915085601f8301126134be57600080fd5b8135818111156134cd57600080fd5b8660208285010111156134df57600080fd5b60209290920196919550909350505050565b60006020828403121561350357600080fd5b5051919050565b600081518084526135228160208601602086016136e4565b601f017fffffffffffffffffffffffffffffffffffffffffffffffffffffffffffffffe0169290920160200192915050565b600082516135668184602087016136e4565b9190910192915050565b6020808252825182820181905260009190848201906040850190845b818110156135be57835173ffffffffffffffffffffffffffffffffffffffff168352928401929184019160010161358c565b50909695505050505050565b602080825282518282018190526000919060409081850190868401855b82811015613622578151805173ffffffffffffffffffffffffffffffffffffffff1685528601518685015292840192908501906001016135e7565b5091979650505050505050565b60208152600061265d602083018461350a565b6000821982111561365557613655613749565b500190565b600082613690577f4e487b7100000000000000000000000000000000000000000000000000000000600052601260045260246000fd5b500490565b6000817fffffffffffffffffffffffffffffffffffffffffffffffffffffffffffffffff04831182151516156136cd576136cd613749565b500290565b6000828210156131a0576131a0613749565b60005b838110156136ff5781810151838201526020016136e7565b838111156129bd5750506000910152565b60007fffffffffffffffffffffffffffffffffffffffffffffffffffffffffffffffff82141561374257613742613749565b5060010190565b7f4e487b7100000000000000000000000000000000000000000000000000000000600052601160045260246000fd5b7f4e487b7100000000000000000000000000000000000000000000000000000000600052603260045260246000fd5b7f4e487b7100000000000000000000000000000000000000000000000000000000600052604160045260246000fd5b73ffffffffffffffffffffffffffffffffffffffff811681146137f857600080fd5b5056fea2646970667358221220e31ab69dea39d8ed6de49669b6c3ba69bdc624fce45eeac6668adfc12b70444464736f6c63430008070033a26469706673582212202ab820beceb012af24a07c47f912eeedbbe3e39fd0b1b32308f2fe5aced5ec9364736f6c63430008070033",
  "devdoc": {
    "author": "Mudit Gupta.",
    "kind": "dev",
    "methods": {},
    "version": 1
  },
  "userdoc": {
    "kind": "user",
    "methods": {},
    "notice": "Contract for deploying Trident exchange Hybrid Pool with configurations.",
    "version": 1
  },
  "storageLayout": {
    "storage": [
      {
        "astId": 8137,
        "contract": "contracts/pool/HybridPoolFactory.sol:HybridPoolFactory",
        "label": "pools",
        "offset": 0,
        "slot": "0",
        "type": "t_mapping(t_address,t_mapping(t_address,t_array(t_address)dyn_storage))"
      },
      {
        "astId": 8141,
        "contract": "contracts/pool/HybridPoolFactory.sol:HybridPoolFactory",
        "label": "configAddress",
        "offset": 0,
        "slot": "1",
        "type": "t_mapping(t_bytes32,t_address)"
      }
    ],
    "types": {
      "t_address": {
        "encoding": "inplace",
        "label": "address",
        "numberOfBytes": "20"
      },
      "t_array(t_address)dyn_storage": {
        "base": "t_address",
        "encoding": "dynamic_array",
        "label": "address[]",
        "numberOfBytes": "32"
      },
      "t_bytes32": {
        "encoding": "inplace",
        "label": "bytes32",
        "numberOfBytes": "32"
      },
      "t_mapping(t_address,t_array(t_address)dyn_storage)": {
        "encoding": "mapping",
        "key": "t_address",
        "label": "mapping(address => address[])",
        "numberOfBytes": "32",
        "value": "t_array(t_address)dyn_storage"
      },
      "t_mapping(t_address,t_mapping(t_address,t_array(t_address)dyn_storage))": {
        "encoding": "mapping",
        "key": "t_address",
        "label": "mapping(address => mapping(address => address[]))",
        "numberOfBytes": "32",
        "value": "t_mapping(t_address,t_array(t_address)dyn_storage)"
      },
      "t_mapping(t_bytes32,t_address)": {
        "encoding": "mapping",
        "key": "t_bytes32",
        "label": "mapping(bytes32 => address)",
        "numberOfBytes": "32",
        "value": "t_address"
      }
    }
  }
}