{
  "_format": "hh-sol-artifact-1",
  "contractName": "PrePOMarket",
  "sourceName": "contracts/core/PrePOMarket.sol",
  "abi": [
    {
      "inputs": [
        {
          "internalType": "address",
          "name": "_newCollateral",
          "type": "address"
        },
        {
          "internalType": "address",
          "name": "_governance",
          "type": "address"
        },
        {
          "internalType": "contract ILongShortToken",
          "name": "_newLongToken",
          "type": "address"
        },
        {
          "internalType": "contract ILongShortToken",
          "name": "_newShortToken",
          "type": "address"
        },
        {
          "internalType": "uint256",
          "name": "_newFloorLongPrice",
          "type": "uint256"
        },
        {
          "internalType": "uint256",
          "name": "_newCeilingLongPrice",
          "type": "uint256"
        },
        {
          "internalType": "uint256",
          "name": "_newFloorValuation",
          "type": "uint256"
        },
        {
          "internalType": "uint256",
          "name": "_newCeilingValuation",
          "type": "uint256"
        },
        {
          "internalType": "uint256",
          "name": "_newMintingFee",
          "type": "uint256"
        },
        {
          "internalType": "uint256",
          "name": "_newRedemptionFee",
          "type": "uint256"
        },
        {
          "internalType": "uint256",
          "name": "_newExpiryTime",
          "type": "uint256"
        },
        {
          "internalType": "bool",
          "name": "_allowed",
          "type": "bool"
        }
      ],
      "stateMutability": "nonpayable",
      "type": "constructor"
    },
    {
      "anonymous": false,
      "inputs": [
        {
          "indexed": false,
          "internalType": "uint256",
          "name": "price",
          "type": "uint256"
        }
      ],
      "name": "FinalLongPriceSet",
      "type": "event"
    },
    {
      "anonymous": false,
      "inputs": [
        {
          "indexed": false,
          "internalType": "address",
          "name": "longToken",
          "type": "address"
        },
        {
          "indexed": false,
          "internalType": "address",
          "name": "shortToken",
          "type": "address"
        },
        {
          "indexed": false,
          "internalType": "uint256",
          "name": "floorLongPrice",
          "type": "uint256"
        },
        {
          "indexed": false,
          "internalType": "uint256",
          "name": "ceilingLongPrice",
          "type": "uint256"
        },
        {
          "indexed": false,
          "internalType": "uint256",
          "name": "floorValuation",
          "type": "uint256"
        },
        {
          "indexed": false,
          "internalType": "uint256",
          "name": "ceilingValuation",
          "type": "uint256"
        },
        {
          "indexed": false,
          "internalType": "uint256",
          "name": "mintingFee",
          "type": "uint256"
        },
        {
          "indexed": false,
          "internalType": "uint256",
          "name": "redemptionFee",
          "type": "uint256"
        },
        {
          "indexed": false,
          "internalType": "uint256",
          "name": "expiryTime",
          "type": "uint256"
        }
      ],
      "name": "MarketCreated",
      "type": "event"
    },
    {
      "anonymous": false,
      "inputs": [
        {
          "indexed": true,
          "internalType": "address",
          "name": "minter",
          "type": "address"
        },
        {
          "indexed": false,
          "internalType": "uint256",
          "name": "amount",
          "type": "uint256"
        }
      ],
      "name": "Mint",
      "type": "event"
    },
    {
      "anonymous": false,
      "inputs": [
        {
          "indexed": false,
          "internalType": "uint256",
          "name": "fee",
          "type": "uint256"
        }
      ],
      "name": "MintingFeeChanged",
      "type": "event"
    },
    {
      "anonymous": false,
      "inputs": [
        {
          "indexed": true,
          "internalType": "address",
          "name": "previousOwner",
          "type": "address"
        },
        {
          "indexed": true,
          "internalType": "address",
          "name": "newOwner",
          "type": "address"
        }
      ],
      "name": "OwnershipTransferred",
      "type": "event"
    },
    {
      "anonymous": false,
      "inputs": [
        {
          "indexed": false,
          "internalType": "bool",
          "name": "allowed",
          "type": "bool"
        }
      ],
      "name": "PublicMintingChanged",
      "type": "event"
    },
    {
      "anonymous": false,
      "inputs": [
        {
          "indexed": true,
          "internalType": "address",
          "name": "redeemer",
          "type": "address"
        },
        {
          "indexed": false,
          "internalType": "uint256",
          "name": "amount",
          "type": "uint256"
        }
      ],
      "name": "Redemption",
      "type": "event"
    },
    {
      "anonymous": false,
      "inputs": [
        {
          "indexed": false,
          "internalType": "uint256",
          "name": "fee",
          "type": "uint256"
        }
      ],
      "name": "RedemptionFeeChanged",
      "type": "event"
    },
    {
      "anonymous": false,
      "inputs": [
        {
          "indexed": false,
          "internalType": "address",
          "name": "treasury",
          "type": "address"
        }
      ],
      "name": "TreasuryChanged",
      "type": "event"
    },
    {
      "inputs": [],
      "name": "getCeilingLongPrice",
      "outputs": [
        {
          "internalType": "uint256",
          "name": "",
          "type": "uint256"
        }
      ],
      "stateMutability": "view",
      "type": "function"
    },
    {
      "inputs": [],
      "name": "getCeilingValuation",
      "outputs": [
        {
          "internalType": "uint256",
          "name": "",
          "type": "uint256"
        }
      ],
      "stateMutability": "view",
      "type": "function"
    },
    {
      "inputs": [],
      "name": "getCollateral",
      "outputs": [
        {
          "internalType": "contract IERC20",
          "name": "",
          "type": "address"
        }
      ],
      "stateMutability": "view",
      "type": "function"
    },
    {
      "inputs": [],
      "name": "getExpiryTime",
      "outputs": [
        {
          "internalType": "uint256",
          "name": "",
          "type": "uint256"
        }
      ],
      "stateMutability": "view",
      "type": "function"
    },
    {
      "inputs": [],
      "name": "getFeeDenominator",
      "outputs": [
        {
          "internalType": "uint256",
          "name": "",
          "type": "uint256"
        }
      ],
      "stateMutability": "pure",
      "type": "function"
    },
    {
      "inputs": [],
      "name": "getFeeLimit",
      "outputs": [
        {
          "internalType": "uint256",
          "name": "",
          "type": "uint256"
        }
      ],
      "stateMutability": "pure",
      "type": "function"
    },
    {
      "inputs": [],
      "name": "getFinalLongPrice",
      "outputs": [
        {
          "internalType": "uint256",
          "name": "",
          "type": "uint256"
        }
      ],
      "stateMutability": "view",
      "type": "function"
    },
    {
      "inputs": [],
      "name": "getFloorLongPrice",
      "outputs": [
        {
          "internalType": "uint256",
          "name": "",
          "type": "uint256"
        }
      ],
      "stateMutability": "view",
      "type": "function"
    },
    {
      "inputs": [],
      "name": "getFloorValuation",
      "outputs": [
        {
          "internalType": "uint256",
          "name": "",
          "type": "uint256"
        }
      ],
      "stateMutability": "view",
      "type": "function"
    },
    {
      "inputs": [],
      "name": "getLongToken",
      "outputs": [
        {
          "internalType": "contract ILongShortToken",
          "name": "",
          "type": "address"
        }
      ],
      "stateMutability": "view",
      "type": "function"
    },
    {
      "inputs": [],
      "name": "getMaxPrice",
      "outputs": [
        {
          "internalType": "uint256",
          "name": "",
          "type": "uint256"
        }
      ],
      "stateMutability": "pure",
      "type": "function"
    },
    {
      "inputs": [],
      "name": "getMintingFee",
      "outputs": [
        {
          "internalType": "uint256",
          "name": "",
          "type": "uint256"
        }
      ],
      "stateMutability": "view",
      "type": "function"
    },
    {
      "inputs": [],
      "name": "getRedemptionFee",
      "outputs": [
        {
          "internalType": "uint256",
          "name": "",
          "type": "uint256"
        }
      ],
      "stateMutability": "view",
      "type": "function"
    },
    {
      "inputs": [],
      "name": "getShortToken",
      "outputs": [
        {
          "internalType": "contract ILongShortToken",
          "name": "",
          "type": "address"
        }
      ],
      "stateMutability": "view",
      "type": "function"
    },
    {
      "inputs": [],
      "name": "getTreasury",
      "outputs": [
        {
          "internalType": "address",
          "name": "",
          "type": "address"
        }
      ],
      "stateMutability": "view",
      "type": "function"
    },
    {
      "inputs": [],
      "name": "isPublicMintingAllowed",
      "outputs": [
        {
          "internalType": "bool",
          "name": "",
          "type": "bool"
        }
      ],
      "stateMutability": "view",
      "type": "function"
    },
    {
      "inputs": [
        {
          "internalType": "uint256",
          "name": "_amount",
          "type": "uint256"
        }
      ],
      "name": "mintLongShortTokens",
      "outputs": [
        {
          "internalType": "uint256",
          "name": "",
          "type": "uint256"
        }
      ],
      "stateMutability": "nonpayable",
      "type": "function"
    },
    {
      "inputs": [],
      "name": "owner",
      "outputs": [
        {
          "internalType": "address",
          "name": "",
          "type": "address"
        }
      ],
      "stateMutability": "view",
      "type": "function"
    },
    {
      "inputs": [
        {
          "internalType": "uint256",
          "name": "_longAmount",
          "type": "uint256"
        },
        {
          "internalType": "uint256",
          "name": "_shortAmount",
          "type": "uint256"
        }
      ],
      "name": "redeem",
      "outputs": [],
      "stateMutability": "nonpayable",
      "type": "function"
    },
    {
      "inputs": [],
      "name": "renounceOwnership",
      "outputs": [],
      "stateMutability": "nonpayable",
      "type": "function"
    },
    {
      "inputs": [
        {
          "internalType": "uint256",
          "name": "_newFinalLongPrice",
          "type": "uint256"
        }
      ],
      "name": "setFinalLongPrice",
      "outputs": [],
      "stateMutability": "nonpayable",
      "type": "function"
    },
    {
      "inputs": [
        {
          "internalType": "uint256",
          "name": "_newMintingFee",
          "type": "uint256"
        }
      ],
      "name": "setMintingFee",
      "outputs": [],
      "stateMutability": "nonpayable",
      "type": "function"
    },
    {
      "inputs": [
        {
          "internalType": "bool",
          "name": "_allowed",
          "type": "bool"
        }
      ],
      "name": "setPublicMinting",
      "outputs": [],
      "stateMutability": "nonpayable",
      "type": "function"
    },
    {
      "inputs": [
        {
          "internalType": "uint256",
          "name": "_newRedemptionFee",
          "type": "uint256"
        }
      ],
      "name": "setRedemptionFee",
      "outputs": [],
      "stateMutability": "nonpayable",
      "type": "function"
    },
    {
      "inputs": [
        {
          "internalType": "address",
          "name": "_newTreasury",
          "type": "address"
        }
      ],
      "name": "setTreasury",
      "outputs": [],
      "stateMutability": "nonpayable",
      "type": "function"
    },
    {
      "inputs": [
        {
          "internalType": "address",
          "name": "newOwner",
          "type": "address"
        }
      ],
      "name": "transferOwnership",
      "outputs": [],
      "stateMutability": "nonpayable",
      "type": "function"
    }
  ],
  "bytecode": "0x60806040523480156200001157600080fd5b506040516200226f3803806200226f83398101604081905262000034916200040c565b6200003f33620002eb565b60018055878711620000985760405162461bcd60e51b815260206004820152601960248201527f6365696c696e67206d7573742065786365656420666c6f6f720000000000000060448201526064015b60405180910390fd5b428211620000da5760405162461bcd60e51b815260206004820152600e60248201526d696e76616c69642065787069727960901b60448201526064016200008f565b61c350841115620001225760405162461bcd60e51b8152602060048201526011602482015270195e18d959591cc8199959481b1a5b5a5d607a1b60448201526064016200008f565b61c3508311156200016a5760405162461bcd60e51b8152602060048201526011602482015270195e18d959591cc8199959481b1a5b5a5d607a1b60448201526064016200008f565b670de0b6b3a7640000871115620001c45760405162461bcd60e51b815260206004820152601760248201527f6365696c696e672063616e6e6f7420657863656564203100000000000000000060448201526064016200008f565b620001cf8b6200033b565b600280546001600160a01b03808f166001600160a01b031992831617909255600380548e8416908316179055600480548d841690831617905560058054928c16929091169190911790556006889055600787905562000238670de0b6b3a76400006001620004d7565b6008556009849055600a839055600e805460ff1916821515179055600d829055600b869055600c859055604080516001600160a01b03808d1682528b166020820152908101899052606081018890526080810187905260a0810186905260c0810185905260e0810184905261010081018390527f5be786bdade1f2e50df552847c66fa2bcf484ed84576a689ac2afa6960ba59d7906101200160405180910390a150505050505050505050505062000514565b600080546001600160a01b038381166001600160a01b0319831681178455604051919092169283917f8be0079c531659141344cd1fd0a4f28419497f9722a3daafe3b4186f6b6457e09190a35050565b6000546001600160a01b03163314620003975760405162461bcd60e51b815260206004820181905260248201527f4f776e61626c653a2063616c6c6572206973206e6f7420746865206f776e657260448201526064016200008f565b6001600160a01b038116620003fe5760405162461bcd60e51b815260206004820152602660248201527f4f776e61626c653a206e6577206f776e657220697320746865207a65726f206160448201526564647265737360d01b60648201526084016200008f565b6200040981620002eb565b50565b6000806000806000806000806000806000806101808d8f0312156200043057600080fd5b8c516200043d81620004fe565b60208e0151909c506200045081620004fe565b60408e0151909b506200046381620004fe565b60608e0151909a506200047681620004fe565b8099505060808d0151975060a08d0151965060c08d0151955060e08d015194506101008d015193506101208d015192506101408d015191506101608d01518015158114620004c357600080fd5b809150509295989b509295989b509295989b565b60008219821115620004f957634e487b7160e01b600052601160045260246000fd5b500190565b6001600160a01b03811681146200040957600080fd5b611d4b80620005246000396000f3fe608060405234801561001057600080fd5b50600436106101ae5760003560e01c80637a71e684116100ee578063a7c45fe411610097578063dab12f8611610071578063dab12f8614610359578063f0f4426014610361578063f2fde38b14610374578063f4e1fc411461038757600080fd5b8063a7c45fe414610336578063b59d88a914610349578063bf13ff8e1461035157600080fd5b806382d8dff6116100c857806382d8dff6146103025780638da5cb5b146103105780639cd6f0091461032e57600080fd5b80637a71e684146102be5780637cbc2373146102dc5780637dbc1df0146102ef57600080fd5b80632c6826f71161015b578063430f894911610135578063430f89491461027a57806356a830d1146102905780635c1548fb14610298578063715018a6146102b657600080fd5b80632c6826f714610241578063366164e3146102495780633b19e84a1461025c57600080fd5b8063238a47091161018c578063238a470914610211578063254a47371461022657806325cb5bc01461023957600080fd5b80630b6783c6146101b357806313c7df66146101ca578063186b896d14610209575b600080fd5b6007545b6040519081526020015b60405180910390f35b60045473ffffffffffffffffffffffffffffffffffffffff165b60405173ffffffffffffffffffffffffffffffffffffffff90911681526020016101c1565b6006546101b7565b61022461021f366004611b44565b610390565b005b610224610234366004611b0a565b6104be565b600d546101b7565b600b546101b7565b610224610257366004611b44565b61059e565b60035473ffffffffffffffffffffffffffffffffffffffff166101e4565b600e5460ff1660405190151581526020016101c1565b61c3506101b7565b60025473ffffffffffffffffffffffffffffffffffffffff166101e4565b61022461072c565b60055473ffffffffffffffffffffffffffffffffffffffff166101e4565b6102246102ea366004611b76565b6107b9565b6102246102fd366004611b44565b610da7565b670de0b6b3a76400006101b7565b60005473ffffffffffffffffffffffffffffffffffffffff166101e4565b600a546101b7565b6101b7610344366004611b44565b610ec9565b6009546101b7565b6008546101b7565b600c546101b7565b61022461036f366004611ad4565b611389565b610224610382366004611ad4565b6114fa565b620f42406101b7565b60005473ffffffffffffffffffffffffffffffffffffffff163314610416576040517f08c379a000000000000000000000000000000000000000000000000000000000815260206004820181905260248201527f4f776e61626c653a2063616c6c6572206973206e6f7420746865206f776e657260448201526064015b60405180910390fd5b61c350811115610482576040517f08c379a000000000000000000000000000000000000000000000000000000000815260206004820152601160248201527f6578636565647320666565206c696d6974000000000000000000000000000000604482015260640161040d565b60098190556040518181527f7b96548969d8300725edaec0ef4f9b32997f67531162336066d67eb6f55dbb4f906020015b60405180910390a150565b60005473ffffffffffffffffffffffffffffffffffffffff16331461053f576040517f08c379a000000000000000000000000000000000000000000000000000000000815260206004820181905260248201527f4f776e61626c653a2063616c6c6572206973206e6f7420746865206f776e6572604482015260640161040d565b600e80547fffffffffffffffffffffffffffffffffffffffffffffffffffffffffffffff00168215159081179091556040519081527f9baba5c8eb154033a898fbff3ae813f8910c16f29536dca9fb39651cab381eed906020016104b3565b60005473ffffffffffffffffffffffffffffffffffffffff16331461061f576040517f08c379a000000000000000000000000000000000000000000000000000000000815260206004820181905260248201527f4f776e61626c653a2063616c6c6572206973206e6f7420746865206f776e6572604482015260640161040d565b60065481101561068b576040517f08c379a000000000000000000000000000000000000000000000000000000000815260206004820152601b60248201527f70726963652063616e6e6f742062652062656c6f7720666c6f6f720000000000604482015260640161040d565b6007548111156106f7576040517f08c379a000000000000000000000000000000000000000000000000000000000815260206004820152601b60248201527f70726963652063616e6e6f7420657863656564206365696c696e670000000000604482015260640161040d565b60088190556040518181527f4353ddb6f0c0062f153f70b6523a70889007c3aeffd4565a9356f2a1d9085dbb906020016104b3565b60005473ffffffffffffffffffffffffffffffffffffffff1633146107ad576040517f08c379a000000000000000000000000000000000000000000000000000000000815260206004820181905260248201527f4f776e61626c653a2063616c6c6572206973206e6f7420746865206f776e6572604482015260640161040d565b6107b7600061162a565b565b60026001541415610826576040517f08c379a000000000000000000000000000000000000000000000000000000000815260206004820152601f60248201527f5265656e7472616e637947756172643a207265656e7472616e742063616c6c00604482015260640161040d565b6002600155600480546040517f70a082310000000000000000000000000000000000000000000000000000000081523392810192909252839173ffffffffffffffffffffffffffffffffffffffff909116906370a082319060240160206040518083038186803b15801561089957600080fd5b505afa1580156108ad573d6000803e3d6000fd5b505050506040513d601f19601f820116820180604052508101906108d19190611b5d565b1015610939576040517f08c379a000000000000000000000000000000000000000000000000000000000815260206004820152601860248201527f696e73756666696369656e74206c6f6e6720746f6b656e730000000000000000604482015260640161040d565b6005546040517f70a08231000000000000000000000000000000000000000000000000000000008152336004820152829173ffffffffffffffffffffffffffffffffffffffff16906370a082319060240160206040518083038186803b1580156109a257600080fd5b505afa1580156109b6573d6000803e3d6000fd5b505050506040513d601f19601f820116820180604052508101906109da9190611b5d565b1015610a42576040517f08c379a000000000000000000000000000000000000000000000000000000000815260206004820152601960248201527f696e73756666696369656e742073686f727420746f6b656e7300000000000000604482015260640161040d565b6000670de0b6b3a764000060085411610aac576000600854670de0b6b3a7640000610a6d9190611c95565b9050670de0b6b3a7640000610a828483611c58565b85600854610a909190611c58565b610a9a9190611c05565b610aa49190611c1d565b915050610b64565b818314610b61576040517f08c379a000000000000000000000000000000000000000000000000000000000815260206004820152604260248201527f726564656d7074696f6e206265666f7265206d61726b657420656e642072657160448201527f756972657320657175616c206c6f6e6720616e642073686f727420616d6f756e60648201527f7473000000000000000000000000000000000000000000000000000000000000608482015260a40161040d565b50815b600480546040517f79cc679000000000000000000000000000000000000000000000000000000000815233928101929092526024820185905273ffffffffffffffffffffffffffffffffffffffff16906379cc679090604401600060405180830381600087803b158015610bd757600080fd5b505af1158015610beb573d6000803e3d6000fd5b50506005546040517f79cc67900000000000000000000000000000000000000000000000000000000081523360048201526024810186905273ffffffffffffffffffffffffffffffffffffffff90911692506379cc67909150604401600060405180830381600087803b158015610c6157600080fd5b505af1158015610c75573d6000803e3d6000fd5b505050506000620f4240600a5483610c8d9190611c58565b610c979190611c1d565b610ca2906001611c05565b9050808211610d0d576040517f08c379a000000000000000000000000000000000000000000000000000000000815260206004820152601b60248201527f726564656d7074696f6e20616d6f756e7420746f6f20736d616c6c0000000000604482015260640161040d565b600354600254610d379173ffffffffffffffffffffffffffffffffffffffff91821691168361169f565b610d418183611c95565b600254909250610d689073ffffffffffffffffffffffffffffffffffffffff16338461169f565b60405182815233907fe6c82503aaaa3db78b70f183901ae8668918f895b3982b2c851cf2ffe0c6c6399060200160405180910390a25050600180555050565b60005473ffffffffffffffffffffffffffffffffffffffff163314610e28576040517f08c379a000000000000000000000000000000000000000000000000000000000815260206004820181905260248201527f4f776e61626c653a2063616c6c6572206973206e6f7420746865206f776e6572604482015260640161040d565b61c350811115610e94576040517f08c379a000000000000000000000000000000000000000000000000000000000815260206004820152601160248201527f6578636565647320666565206c696d6974000000000000000000000000000000604482015260640161040d565b600a8190556040518181527f4dbf9634a3aaf3bc15ab627faeaac7c6b0a4754ead77206f1c11277356f2878f906020016104b3565b600060026001541415610f38576040517f08c379a000000000000000000000000000000000000000000000000000000000815260206004820152601f60248201527f5265656e7472616e637947756172643a207265656e7472616e742063616c6c00604482015260640161040d565b600260015560005473ffffffffffffffffffffffffffffffffffffffff163314610fc857600e5460ff16610fc8576040517f08c379a000000000000000000000000000000000000000000000000000000000815260206004820152601760248201527f7075626c6963206d696e74696e672064697361626c6564000000000000000000604482015260640161040d565b670de0b6b3a76400006008541161103b576040517f08c379a000000000000000000000000000000000000000000000000000000000815260206004820152600c60248201527f6d61726b657420656e6465640000000000000000000000000000000000000000604482015260640161040d565b6002546040517f70a08231000000000000000000000000000000000000000000000000000000008152336004820152839173ffffffffffffffffffffffffffffffffffffffff16906370a082319060240160206040518083038186803b1580156110a457600080fd5b505afa1580156110b8573d6000803e3d6000fd5b505050506040513d601f19601f820116820180604052508101906110dc9190611b5d565b1015611144576040517f08c379a000000000000000000000000000000000000000000000000000000000815260206004820152601760248201527f696e73756666696369656e7420636f6c6c61746572616c000000000000000000604482015260640161040d565b6000620f4240600954846111589190611c58565b6111629190611c1d565b61116d906001611c05565b90508083116111d8576040517f08c379a000000000000000000000000000000000000000000000000000000000815260206004820152601860248201527f6d696e74696e6720616d6f756e7420746f6f20736d616c6c0000000000000000604482015260640161040d565b6003546002546112049173ffffffffffffffffffffffffffffffffffffffff9182169133911684611778565b61120e8184611c95565b6002549093506112369073ffffffffffffffffffffffffffffffffffffffff16333086611778565b600480546040517f40c10f1900000000000000000000000000000000000000000000000000000000815233928101929092526024820185905273ffffffffffffffffffffffffffffffffffffffff16906340c10f1990604401600060405180830381600087803b1580156112a957600080fd5b505af11580156112bd573d6000803e3d6000fd5b50506005546040517f40c10f190000000000000000000000000000000000000000000000000000000081523360048201526024810187905273ffffffffffffffffffffffffffffffffffffffff90911692506340c10f199150604401600060405180830381600087803b15801561133357600080fd5b505af1158015611347573d6000803e3d6000fd5b50506040518581523392507f0f6798a560793a54c3bcfe86a93cde1e73087d944c0ea20544137d4121396885915060200160405180910390a250506001805590565b60005473ffffffffffffffffffffffffffffffffffffffff16331461140a576040517f08c379a000000000000000000000000000000000000000000000000000000000815260206004820181905260248201527f4f776e61626c653a2063616c6c6572206973206e6f7420746865206f776e6572604482015260640161040d565b73ffffffffffffffffffffffffffffffffffffffff8116611487576040517f08c379a000000000000000000000000000000000000000000000000000000000815260206004820152600c60248201527f7a65726f20616464726573730000000000000000000000000000000000000000604482015260640161040d565b600380547fffffffffffffffffffffffff00000000000000000000000000000000000000001673ffffffffffffffffffffffffffffffffffffffff83169081179091556040519081527fc714d22a2f08b695f81e7c707058db484aa5b4d6b4c9fd64beb10fe85832f608906020016104b3565b60005473ffffffffffffffffffffffffffffffffffffffff16331461157b576040517f08c379a000000000000000000000000000000000000000000000000000000000815260206004820181905260248201527f4f776e61626c653a2063616c6c6572206973206e6f7420746865206f776e6572604482015260640161040d565b73ffffffffffffffffffffffffffffffffffffffff811661161e576040517f08c379a000000000000000000000000000000000000000000000000000000000815260206004820152602660248201527f4f776e61626c653a206e6577206f776e657220697320746865207a65726f206160448201527f6464726573730000000000000000000000000000000000000000000000000000606482015260840161040d565b6116278161162a565b50565b6000805473ffffffffffffffffffffffffffffffffffffffff8381167fffffffffffffffffffffffff0000000000000000000000000000000000000000831681178455604051919092169283917f8be0079c531659141344cd1fd0a4f28419497f9722a3daafe3b4186f6b6457e09190a35050565b60405173ffffffffffffffffffffffffffffffffffffffff83166024820152604481018290526117739084907fa9059cbb00000000000000000000000000000000000000000000000000000000906064015b604080517fffffffffffffffffffffffffffffffffffffffffffffffffffffffffffffffe08184030181529190526020810180517bffffffffffffffffffffffffffffffffffffffffffffffffffffffff167fffffffff00000000000000000000000000000000000000000000000000000000909316929092179091526117dc565b505050565b60405173ffffffffffffffffffffffffffffffffffffffff808516602483015283166044820152606481018290526117d69085907f23b872dd00000000000000000000000000000000000000000000000000000000906084016116f1565b50505050565b600061183e826040518060400160405280602081526020017f5361666545524332303a206c6f772d6c6576656c2063616c6c206661696c65648152508573ffffffffffffffffffffffffffffffffffffffff166118e89092919063ffffffff16565b805190915015611773578080602001905181019061185c9190611b27565b611773576040517f08c379a000000000000000000000000000000000000000000000000000000000815260206004820152602a60248201527f5361666545524332303a204552433230206f7065726174696f6e20646964206e60448201527f6f74207375636365656400000000000000000000000000000000000000000000606482015260840161040d565b60606118f78484600085611901565b90505b9392505050565b606082471015611993576040517f08c379a000000000000000000000000000000000000000000000000000000000815260206004820152602660248201527f416464726573733a20696e73756666696369656e742062616c616e636520666f60448201527f722063616c6c0000000000000000000000000000000000000000000000000000606482015260840161040d565b843b6119fb576040517f08c379a000000000000000000000000000000000000000000000000000000000815260206004820152601d60248201527f416464726573733a2063616c6c20746f206e6f6e2d636f6e7472616374000000604482015260640161040d565b6000808673ffffffffffffffffffffffffffffffffffffffff168587604051611a249190611b98565b60006040518083038185875af1925050503d8060008114611a61576040519150601f19603f3d011682016040523d82523d6000602084013e611a66565b606091505b5091509150611a76828286611a81565b979650505050505050565b60608315611a905750816118fa565b825115611aa05782518084602001fd5b816040517f08c379a000000000000000000000000000000000000000000000000000000000815260040161040d9190611bb4565b600060208284031215611ae657600080fd5b813573ffffffffffffffffffffffffffffffffffffffff811681146118fa57600080fd5b600060208284031215611b1c57600080fd5b81356118fa81611d07565b600060208284031215611b3957600080fd5b81516118fa81611d07565b600060208284031215611b5657600080fd5b5035919050565b600060208284031215611b6f57600080fd5b5051919050565b60008060408385031215611b8957600080fd5b50508035926020909101359150565b60008251611baa818460208701611cac565b9190910192915050565b6020815260008251806020840152611bd3816040850160208701611cac565b601f017fffffffffffffffffffffffffffffffffffffffffffffffffffffffffffffffe0169190910160400192915050565b60008219821115611c1857611c18611cd8565b500190565b600082611c53577f4e487b7100000000000000000000000000000000000000000000000000000000600052601260045260246000fd5b500490565b6000817fffffffffffffffffffffffffffffffffffffffffffffffffffffffffffffffff0483118215151615611c9057611c90611cd8565b500290565b600082821015611ca757611ca7611cd8565b500390565b60005b83811015611cc7578181015183820152602001611caf565b838111156117d65750506000910152565b7f4e487b7100000000000000000000000000000000000000000000000000000000600052601160045260246000fd5b801515811461162757600080fdfea2646970667358221220e587a87340d3c5892bea36dd30905f5d5694e4ddecece68dc8636e4d64a0863564736f6c63430008070033",
  "linkReferences": {},
  "deployedLinkReferences": {}
}