{
  "contractName": "Registry2",
  "abi": [
    {
      "inputs": [],
      "stateMutability": "nonpayable",
      "type": "constructor"
    },
    {
      "inputs": [
        {
          "internalType": "address",
          "name": "_exchange",
          "type": "address"
        },
        {
          "internalType": "address",
          "name": "_token",
          "type": "address"
        }
      ],
      "name": "setExchange",
      "outputs": [],
      "stateMutability": "nonpayable",
      "type": "function"
    },
    {
      "inputs": [
        {
          "internalType": "address",
          "name": "token",
          "type": "address"
        }
      ],
      "name": "getExchange",
      "outputs": [
        {
          "internalType": "address",
          "name": "",
          "type": "address"
        }
      ],
      "stateMutability": "view",
      "type": "function",
      "constant": true
    }
  ],
  "bytecode": "0x608060405234801561001057600080fd5b50610242806100206000396000f3fe608060405234801561001057600080fd5b50600436106100365760003560e01c806306f2bf621461003b578063bb60160e146100bf575b600080fd5b61007d6004803603602081101561005157600080fd5b81019080803573ffffffffffffffffffffffffffffffffffffffff169060200190929190505050610123565b604051808273ffffffffffffffffffffffffffffffffffffffff1673ffffffffffffffffffffffffffffffffffffffff16815260200191505060405180910390f35b610121600480360360408110156100d557600080fd5b81019080803573ffffffffffffffffffffffffffffffffffffffff169060200190929190803573ffffffffffffffffffffffffffffffffffffffff16906020019092919050505061018b565b005b60008060008373ffffffffffffffffffffffffffffffffffffffff1673ffffffffffffffffffffffffffffffffffffffff16815260200190815260200160002060009054906101000a900473ffffffffffffffffffffffffffffffffffffffff169050919050565b816000808373ffffffffffffffffffffffffffffffffffffffff1673ffffffffffffffffffffffffffffffffffffffff16815260200190815260200160002060006101000a81548173ffffffffffffffffffffffffffffffffffffffff021916908373ffffffffffffffffffffffffffffffffffffffff160217905550505056fea2646970667358221220d1ca77f60011d175e89fa0de7b4c8eb99d237263022b42ab05eb93f26b37fcde64736f6c63430006040033",
  "source": "pragma solidity 0.6.4;\n\n\ncontract Registry2 {\n\nmapping (address => address) registry;\t\t// Token -> Exchange\n\n\n\t// Creation event\n\tconstructor() public {\n\n\t}\n\n\tfunction setExchange (address _exchange, address _token) public {\t\n\t\tregistry[_token] = _exchange;\n\t}\n\t\n\n\tfunction getExchange(address token) public view returns (address) {\n\t    //exchange = address(0x0000000000000000000000000000000000000000);\n\t    return registry[token];\n\t}\n\n}",
  "sourcePath": "/Users/dev/dev/vether/vether-contracts/contracts/Registry2.sol",
  "compiler": {
    "name": "solc",
    "version": "0.6.4+commit.1dca32f3.Emscripten.clang"
  },
  "schemaVersion": "3.1.0",
  "updatedAt": "2020-05-01T14:01:12.569Z",
  "networkType": "ethereum",
  "devdoc": {
    "methods": {}
  },
  "userdoc": {
    "methods": {}
  }
}