{
  "address": "0x69f9aAC8e68cBa3685b84A1990a0F29F131Ca791",
  "abi": [
    {
      "inputs": [
        {
          "internalType": "uint256",
          "name": "_duration",
          "type": "uint256"
        },
        {
          "internalType": "contract IJBFundingCycleStore",
          "name": "_fundingCycleStore",
          "type": "address"
        }
      ],
      "stateMutability": "nonpayable",
      "type": "constructor"
    },
    {
      "anonymous": false,
      "inputs": [
        {
          "indexed": true,
          "internalType": "uint256",
          "name": "projectId",
          "type": "uint256"
        },
        {
          "indexed": true,
          "internalType": "uint256",
          "name": "configuration",
          "type": "uint256"
        },
        {
          "indexed": true,
          "internalType": "enum JBBallotState",
          "name": "ballotState",
          "type": "uint8"
        },
        {
          "indexed": false,
          "internalType": "address",
          "name": "caller",
          "type": "address"
        }
      ],
      "name": "Finalize",
      "type": "event"
    },
    {
      "inputs": [],
      "name": "duration",
      "outputs": [
        {
          "internalType": "uint256",
          "name": "",
          "type": "uint256"
        }
      ],
      "stateMutability": "view",
      "type": "function"
    },
    {
      "inputs": [
        {
          "internalType": "uint256",
          "name": "",
          "type": "uint256"
        },
        {
          "internalType": "uint256",
          "name": "",
          "type": "uint256"
        }
      ],
      "name": "finalState",
      "outputs": [
        {
          "internalType": "enum JBBallotState",
          "name": "",
          "type": "uint8"
        }
      ],
      "stateMutability": "view",
      "type": "function"
    },
    {
      "inputs": [
        {
          "internalType": "uint256",
          "name": "_projectId",
          "type": "uint256"
        },
        {
          "internalType": "uint256",
          "name": "_configured",
          "type": "uint256"
        }
      ],
      "name": "finalize",
      "outputs": [
        {
          "internalType": "enum JBBallotState",
          "name": "ballotState",
          "type": "uint8"
        }
      ],
      "stateMutability": "nonpayable",
      "type": "function"
    },
    {
      "inputs": [],
      "name": "fundingCycleStore",
      "outputs": [
        {
          "internalType": "contract IJBFundingCycleStore",
          "name": "",
          "type": "address"
        }
      ],
      "stateMutability": "view",
      "type": "function"
    },
    {
      "inputs": [
        {
          "internalType": "uint256",
          "name": "_projectId",
          "type": "uint256"
        },
        {
          "internalType": "uint256",
          "name": "_configured",
          "type": "uint256"
        },
        {
          "internalType": "uint256",
          "name": "_start",
          "type": "uint256"
        }
      ],
      "name": "stateOf",
      "outputs": [
        {
          "internalType": "enum JBBallotState",
          "name": "",
          "type": "uint8"
        }
      ],
      "stateMutability": "view",
      "type": "function"
    },
    {
      "inputs": [
        {
          "internalType": "bytes4",
          "name": "_interfaceId",
          "type": "bytes4"
        }
      ],
      "name": "supportsInterface",
      "outputs": [
        {
          "internalType": "bool",
          "name": "",
          "type": "bool"
        }
      ],
      "stateMutability": "view",
      "type": "function"
    }
  ],
  "transactionHash": "0x43d24eac217aa27e4ecbb20eb69a531eeb112e1965ef6424b026060678dc3fdc",
  "args": [
    604800,
    "0x8b3e0af1f7ee6C5a3fab969b5cAdD9347B009F1a"
  ],
  "numDeployments": 3,
  "solcInputHash": "a1f674e02c4866a16e5bde886a31b82e",
  "bytecode": "0x60c060405234801561001057600080fd5b5060405161080c38038061080c83398101604081905261002f9161004a565b60809190915260601b6001600160601b03191660a052610087565b6000806040838503121561005d57600080fd5b825160208401519092506001600160a01b038116811461007c57600080fd5b809150509250929050565b60805160a05160601c6107516100bb6000396000818160d9015261035d01526000818160a401526102bd01526107516000f3fe608060405234801561001057600080fd5b50600436106100725760003560e01c806374167907116100505780637416790714610120578063a994c09f14610140578063b6013cef1461016b57600080fd5b806301ffc9a7146100775780630fb5a6b41461009f578063557e7155146100d4575b600080fd5b61008a61008536600461050b565b61017e565b60405190151581526020015b60405180910390f35b6100c67f000000000000000000000000000000000000000000000000000000000000000081565b604051908152602001610096565b6100fb7f000000000000000000000000000000000000000000000000000000000000000081565b60405173ffffffffffffffffffffffffffffffffffffffff9091168152602001610096565b61013361012e3660046105ef565b610263565b604051610096919061061b565b61013361014e3660046105cd565b600060208181529281526040808220909352908152205460ff1681565b6101336101793660046105cd565b61030d565b60007fffffffff0000000000000000000000000000000000000000000000000000000082167f4aeb8d2500000000000000000000000000000000000000000000000000000000148061021157507fffffffff0000000000000000000000000000000000000000000000000000000082167f7ba3dfb300000000000000000000000000000000000000000000000000000000145b8061025d57507f01ffc9a7000000000000000000000000000000000000000000000000000000007fffffffff000000000000000000000000000000000000000000000000000000008316145b92915050565b60008060008581526020818152604080832087845290915290205460ff166002811115610292576102926106ec565b146102b8575060008381526020818152604080832085845290915290205460ff16610306565b6102e27f0000000000000000000000000000000000000000000000000000000000000000846106ad565b42101561030257814210156102f85760006102fb565b60025b9050610306565b5060015b9392505050565b6040517f669e48aa0000000000000000000000000000000000000000000000000000000081526004810183905260248101829052600090819073ffffffffffffffffffffffffffffffffffffffff7f0000000000000000000000000000000000000000000000000000000000000000169063669e48aa906044016101206040518083038186803b1580156103a057600080fd5b505afa1580156103b4573d6000803e3d6000fd5b505050506040513d601f19601f820116820180604052508101906103d8919061054d565b60008581526020818152604080832087845290915281205460ff16935090915082600281111561040a5761040a6106ec565b14156104db5761041f84848360600151610263565b91506000826002811115610435576104356106ec565b146104db57600084815260208181526040808320868452909152902080548391907fffffffffffffffffffffffffffffffffffffffffffffffffffffffffffffff0016600183600281111561048c5761048c6106ec565b02179055508160028111156104a3576104a36106ec565b604051338152849086907f7e3b0e79d754a8d4c902d51b0deb131c43d7a702f465413e38db25cf786b0b349060200160405180910390a45b5092915050565b805173ffffffffffffffffffffffffffffffffffffffff8116811461050657600080fd5b919050565b60006020828403121561051d57600080fd5b81357fffffffff000000000000000000000000000000000000000000000000000000008116811461030657600080fd5b6000610120828403121561056057600080fd5b61056861065c565b825181526020830151602082015260408301516040820152606083015160608201526080830151608082015260a083015160a082015260c083015160c08201526105b460e084016104e2565b60e0820152610100928301519281019290925250919050565b600080604083850312156105e057600080fd5b50508035926020909101359150565b60008060006060848603121561060457600080fd5b505081359360208301359350604090920135919050565b6020810160038310610656577f4e487b7100000000000000000000000000000000000000000000000000000000600052602160045260246000fd5b91905290565b604051610120810167ffffffffffffffff811182821017156106a7577f4e487b7100000000000000000000000000000000000000000000000000000000600052604160045260246000fd5b60405290565b600082198211156106e7577f4e487b7100000000000000000000000000000000000000000000000000000000600052601160045260246000fd5b500190565b7f4e487b7100000000000000000000000000000000000000000000000000000000600052602160045260246000fdfea2646970667358221220b4c451762a49327da15d0f73731945f302ac28b4c7176ec1fd7268bced594b7b64736f6c63430008060033",
  "devdoc": {
    "details": "Adheres to - IJBReconfigurationBufferBallot: General interface for the methods in this contract that interact with the blockchain's state according to the protocol's rules.Inherits from - ERC165: Introspection on interface adherance. ",
    "kind": "dev",
    "methods": {
      "constructor": {
        "params": {
          "_duration": "The number of seconds to wait until a reconfiguration can be either `Approved` or `Failed`.",
          "_fundingCycleStore": "A contract storing all funding cycle configurations."
        }
      },
      "finalize(uint256,uint256)": {
        "params": {
          "_configured": "The configuration of the funding cycle to check the state of.",
          "_projectId": "The ID of the project to which the funding cycle being checked belongs."
        },
        "returns": {
          "ballotState": "The state of the finalized ballot. If `Active`, the ballot can still later be finalized when it's state resolves."
        }
      },
      "stateOf(uint256,uint256,uint256)": {
        "params": {
          "_configured": "The configuration of the funding cycle to check the state of.",
          "_projectId": "The ID of the project to which the funding cycle being checked belongs.",
          "_start": "The start timestamp of the funding cycle to check the state of."
        },
        "returns": {
          "_0": "The state of the provided ballot."
        }
      },
      "supportsInterface(bytes4)": {
        "details": " See {IERC165-supportsInterface}.",
        "params": {
          "_interfaceId": "The ID of the interface to check for adherance to."
        },
        "returns": {
          "_0": "A flag indicating if this contract adheres to the specified interface."
        }
      }
    },
    "stateVariables": {
      "finalState": {
        "details": "If `Active`, the ballot for the provided configuration can still be finalized whenever its state settles. _projectId The ID of the project to check the final ballot state of. _configuration The configuration of the funding cycle to check the final ballot state of."
      }
    },
    "version": 1
  },
  "userdoc": {
    "kind": "user",
    "methods": {
      "duration()": {
        "notice": " The number of seconds that must pass for a funding cycle reconfiguration to become either `Approved` or `Failed`."
      },
      "finalState(uint256,uint256)": {
        "notice": " The finalized state."
      },
      "finalize(uint256,uint256)": {
        "notice": " Finalizes a configuration state if the current state has settled."
      },
      "fundingCycleStore()": {
        "notice": "The contract storing all funding cycle configurations."
      },
      "stateOf(uint256,uint256,uint256)": {
        "notice": " The approval state of a particular funding cycle."
      },
      "supportsInterface(bytes4)": {
        "notice": "Indicates if this contract adheres to the specified interface."
      }
    },
    "notice": " Manages approving funding cycle reconfigurations automatically after a buffer period.",
    "version": 1
  },
  "storageLayout": {
    "storage": [
      {
        "astId": 10907,
        "contract": "contracts/JBReconfigurationBufferBallot.sol:JBReconfigurationBufferBallot",
        "label": "finalState",
        "offset": 0,
        "slot": "0",
        "type": "t_mapping(t_uint256,t_mapping(t_uint256,t_enum(JBBallotState)16904))"
      }
    ],
    "types": {
      "t_enum(JBBallotState)16904": {
        "encoding": "inplace",
        "label": "enum JBBallotState",
        "numberOfBytes": "1"
      },
      "t_mapping(t_uint256,t_enum(JBBallotState)16904)": {
        "encoding": "mapping",
        "key": "t_uint256",
        "label": "mapping(uint256 => enum JBBallotState)",
        "numberOfBytes": "32",
        "value": "t_enum(JBBallotState)16904"
      },
      "t_mapping(t_uint256,t_mapping(t_uint256,t_enum(JBBallotState)16904))": {
        "encoding": "mapping",
        "key": "t_uint256",
        "label": "mapping(uint256 => mapping(uint256 => enum JBBallotState))",
        "numberOfBytes": "32",
        "value": "t_mapping(t_uint256,t_enum(JBBallotState)16904)"
      },
      "t_uint256": {
        "encoding": "inplace",
        "label": "uint256",
        "numberOfBytes": "32"
      }
    }
  }
}