{
  "address": "0xd96ecf0E07eB197587Ad4A897933f78A00B21c9a",
  "abi": [
    {
      "inputs": [
        {
          "internalType": "contract IJBOperatorStore",
          "name": "_operatorStore",
          "type": "address"
        },
        {
          "internalType": "contract IJBProjects",
          "name": "_projects",
          "type": "address"
        },
        {
          "internalType": "contract IJBDirectory",
          "name": "_directory",
          "type": "address"
        },
        {
          "internalType": "contract IJBFundingCycleStore",
          "name": "_fundingCycleStore",
          "type": "address"
        },
        {
          "internalType": "contract IJBTokenStore",
          "name": "_tokenStore",
          "type": "address"
        },
        {
          "internalType": "contract IJBSplitsStore",
          "name": "_splitsStore",
          "type": "address"
        }
      ],
      "stateMutability": "nonpayable",
      "type": "constructor"
    },
    {
      "inputs": [],
      "name": "BURN_PAUSED_AND_SENDER_NOT_VALID_TERMINAL_DELEGATE",
      "type": "error"
    },
    {
      "inputs": [],
      "name": "CANT_MIGRATE_TO_CURRENT_CONTROLLER",
      "type": "error"
    },
    {
      "inputs": [],
      "name": "CHANGE_TOKEN_NOT_ALLOWED",
      "type": "error"
    },
    {
      "inputs": [],
      "name": "FUNDING_CYCLE_ALREADY_LAUNCHED",
      "type": "error"
    },
    {
      "inputs": [],
      "name": "INVALID_BALLOT_REDEMPTION_RATE",
      "type": "error"
    },
    {
      "inputs": [],
      "name": "INVALID_DISTRIBUTION_LIMIT",
      "type": "error"
    },
    {
      "inputs": [],
      "name": "INVALID_DISTRIBUTION_LIMIT_CURRENCY",
      "type": "error"
    },
    {
      "inputs": [],
      "name": "INVALID_OVERFLOW_ALLOWANCE",
      "type": "error"
    },
    {
      "inputs": [],
      "name": "INVALID_OVERFLOW_ALLOWANCE_CURRENCY",
      "type": "error"
    },
    {
      "inputs": [],
      "name": "INVALID_REDEMPTION_RATE",
      "type": "error"
    },
    {
      "inputs": [],
      "name": "INVALID_RESERVED_RATE",
      "type": "error"
    },
    {
      "inputs": [],
      "name": "MIGRATION_NOT_ALLOWED",
      "type": "error"
    },
    {
      "inputs": [],
      "name": "MINT_NOT_ALLOWED_AND_NOT_TERMINAL_DELEGATE",
      "type": "error"
    },
    {
      "inputs": [],
      "name": "NOT_CURRENT_CONTROLLER",
      "type": "error"
    },
    {
      "inputs": [],
      "name": "NO_BURNABLE_TOKENS",
      "type": "error"
    },
    {
      "inputs": [
        {
          "internalType": "uint256",
          "name": "prod1",
          "type": "uint256"
        },
        {
          "internalType": "uint256",
          "name": "denominator",
          "type": "uint256"
        }
      ],
      "name": "PRBMath__MulDivOverflow",
      "type": "error"
    },
    {
      "inputs": [],
      "name": "UNAUTHORIZED",
      "type": "error"
    },
    {
      "inputs": [],
      "name": "ZERO_TOKENS_TO_MINT",
      "type": "error"
    },
    {
      "anonymous": false,
      "inputs": [
        {
          "indexed": true,
          "internalType": "address",
          "name": "holder",
          "type": "address"
        },
        {
          "indexed": true,
          "internalType": "uint256",
          "name": "projectId",
          "type": "uint256"
        },
        {
          "indexed": false,
          "internalType": "uint256",
          "name": "tokenCount",
          "type": "uint256"
        },
        {
          "indexed": false,
          "internalType": "string",
          "name": "memo",
          "type": "string"
        },
        {
          "indexed": false,
          "internalType": "address",
          "name": "caller",
          "type": "address"
        }
      ],
      "name": "BurnTokens",
      "type": "event"
    },
    {
      "anonymous": false,
      "inputs": [
        {
          "indexed": true,
          "internalType": "uint256",
          "name": "fundingCycleConfiguration",
          "type": "uint256"
        },
        {
          "indexed": true,
          "internalType": "uint256",
          "name": "fundingCycleNumber",
          "type": "uint256"
        },
        {
          "indexed": true,
          "internalType": "uint256",
          "name": "projectId",
          "type": "uint256"
        },
        {
          "indexed": false,
          "internalType": "address",
          "name": "beneficiary",
          "type": "address"
        },
        {
          "indexed": false,
          "internalType": "uint256",
          "name": "tokenCount",
          "type": "uint256"
        },
        {
          "indexed": false,
          "internalType": "uint256",
          "name": "beneficiaryTokenCount",
          "type": "uint256"
        },
        {
          "indexed": false,
          "internalType": "string",
          "name": "memo",
          "type": "string"
        },
        {
          "indexed": false,
          "internalType": "address",
          "name": "caller",
          "type": "address"
        }
      ],
      "name": "DistributeReservedTokens",
      "type": "event"
    },
    {
      "anonymous": false,
      "inputs": [
        {
          "indexed": true,
          "internalType": "uint256",
          "name": "projectId",
          "type": "uint256"
        },
        {
          "indexed": true,
          "internalType": "uint256",
          "name": "domain",
          "type": "uint256"
        },
        {
          "indexed": true,
          "internalType": "uint256",
          "name": "group",
          "type": "uint256"
        },
        {
          "components": [
            {
              "internalType": "bool",
              "name": "preferClaimed",
              "type": "bool"
            },
            {
              "internalType": "bool",
              "name": "preferAddToBalance",
              "type": "bool"
            },
            {
              "internalType": "uint256",
              "name": "percent",
              "type": "uint256"
            },
            {
              "internalType": "uint256",
              "name": "projectId",
              "type": "uint256"
            },
            {
              "internalType": "address payable",
              "name": "beneficiary",
              "type": "address"
            },
            {
              "internalType": "uint256",
              "name": "lockedUntil",
              "type": "uint256"
            },
            {
              "internalType": "contract IJBSplitAllocator",
              "name": "allocator",
              "type": "address"
            }
          ],
          "indexed": false,
          "internalType": "struct JBSplit",
          "name": "split",
          "type": "tuple"
        },
        {
          "indexed": false,
          "internalType": "uint256",
          "name": "tokenCount",
          "type": "uint256"
        },
        {
          "indexed": false,
          "internalType": "address",
          "name": "caller",
          "type": "address"
        }
      ],
      "name": "DistributeToReservedTokenSplit",
      "type": "event"
    },
    {
      "anonymous": false,
      "inputs": [
        {
          "indexed": false,
          "internalType": "uint256",
          "name": "configuration",
          "type": "uint256"
        },
        {
          "indexed": false,
          "internalType": "uint256",
          "name": "projectId",
          "type": "uint256"
        },
        {
          "indexed": false,
          "internalType": "string",
          "name": "memo",
          "type": "string"
        },
        {
          "indexed": false,
          "internalType": "address",
          "name": "caller",
          "type": "address"
        }
      ],
      "name": "LaunchFundingCycles",
      "type": "event"
    },
    {
      "anonymous": false,
      "inputs": [
        {
          "indexed": false,
          "internalType": "uint256",
          "name": "configuration",
          "type": "uint256"
        },
        {
          "indexed": false,
          "internalType": "uint256",
          "name": "projectId",
          "type": "uint256"
        },
        {
          "indexed": false,
          "internalType": "string",
          "name": "memo",
          "type": "string"
        },
        {
          "indexed": false,
          "internalType": "address",
          "name": "caller",
          "type": "address"
        }
      ],
      "name": "LaunchProject",
      "type": "event"
    },
    {
      "anonymous": false,
      "inputs": [
        {
          "indexed": true,
          "internalType": "uint256",
          "name": "projectId",
          "type": "uint256"
        },
        {
          "indexed": false,
          "internalType": "contract IJBMigratable",
          "name": "to",
          "type": "address"
        },
        {
          "indexed": false,
          "internalType": "address",
          "name": "caller",
          "type": "address"
        }
      ],
      "name": "Migrate",
      "type": "event"
    },
    {
      "anonymous": false,
      "inputs": [
        {
          "indexed": true,
          "internalType": "address",
          "name": "beneficiary",
          "type": "address"
        },
        {
          "indexed": true,
          "internalType": "uint256",
          "name": "projectId",
          "type": "uint256"
        },
        {
          "indexed": false,
          "internalType": "uint256",
          "name": "tokenCount",
          "type": "uint256"
        },
        {
          "indexed": false,
          "internalType": "uint256",
          "name": "beneficiaryTokenCount",
          "type": "uint256"
        },
        {
          "indexed": false,
          "internalType": "string",
          "name": "memo",
          "type": "string"
        },
        {
          "indexed": false,
          "internalType": "uint256",
          "name": "reservedRate",
          "type": "uint256"
        },
        {
          "indexed": false,
          "internalType": "address",
          "name": "caller",
          "type": "address"
        }
      ],
      "name": "MintTokens",
      "type": "event"
    },
    {
      "anonymous": false,
      "inputs": [
        {
          "indexed": true,
          "internalType": "uint256",
          "name": "projectId",
          "type": "uint256"
        },
        {
          "indexed": false,
          "internalType": "address",
          "name": "from",
          "type": "address"
        },
        {
          "indexed": false,
          "internalType": "address",
          "name": "caller",
          "type": "address"
        }
      ],
      "name": "PrepMigration",
      "type": "event"
    },
    {
      "anonymous": false,
      "inputs": [
        {
          "indexed": false,
          "internalType": "uint256",
          "name": "configuration",
          "type": "uint256"
        },
        {
          "indexed": false,
          "internalType": "uint256",
          "name": "projectId",
          "type": "uint256"
        },
        {
          "indexed": false,
          "internalType": "string",
          "name": "memo",
          "type": "string"
        },
        {
          "indexed": false,
          "internalType": "address",
          "name": "caller",
          "type": "address"
        }
      ],
      "name": "ReconfigureFundingCycles",
      "type": "event"
    },
    {
      "anonymous": false,
      "inputs": [
        {
          "indexed": true,
          "internalType": "uint256",
          "name": "fundingCycleConfiguration",
          "type": "uint256"
        },
        {
          "indexed": true,
          "internalType": "uint256",
          "name": "fundingCycleNumber",
          "type": "uint256"
        },
        {
          "indexed": true,
          "internalType": "uint256",
          "name": "projectId",
          "type": "uint256"
        },
        {
          "components": [
            {
              "internalType": "contract IJBPaymentTerminal",
              "name": "terminal",
              "type": "address"
            },
            {
              "internalType": "address",
              "name": "token",
              "type": "address"
            },
            {
              "internalType": "uint256",
              "name": "distributionLimit",
              "type": "uint256"
            },
            {
              "internalType": "uint256",
              "name": "distributionLimitCurrency",
              "type": "uint256"
            },
            {
              "internalType": "uint256",
              "name": "overflowAllowance",
              "type": "uint256"
            },
            {
              "internalType": "uint256",
              "name": "overflowAllowanceCurrency",
              "type": "uint256"
            }
          ],
          "indexed": false,
          "internalType": "struct JBFundAccessConstraints",
          "name": "constraints",
          "type": "tuple"
        },
        {
          "indexed": false,
          "internalType": "address",
          "name": "caller",
          "type": "address"
        }
      ],
      "name": "SetFundAccessConstraints",
      "type": "event"
    },
    {
      "inputs": [
        {
          "internalType": "address",
          "name": "_holder",
          "type": "address"
        },
        {
          "internalType": "uint256",
          "name": "_projectId",
          "type": "uint256"
        },
        {
          "internalType": "uint256",
          "name": "_tokenCount",
          "type": "uint256"
        },
        {
          "internalType": "string",
          "name": "_memo",
          "type": "string"
        },
        {
          "internalType": "bool",
          "name": "_preferClaimedTokens",
          "type": "bool"
        }
      ],
      "name": "burnTokensOf",
      "outputs": [],
      "stateMutability": "nonpayable",
      "type": "function"
    },
    {
      "inputs": [
        {
          "internalType": "uint256",
          "name": "_projectId",
          "type": "uint256"
        },
        {
          "internalType": "contract IJBToken",
          "name": "_token",
          "type": "address"
        },
        {
          "internalType": "address",
          "name": "_newOwner",
          "type": "address"
        }
      ],
      "name": "changeTokenOf",
      "outputs": [],
      "stateMutability": "nonpayable",
      "type": "function"
    },
    {
      "inputs": [
        {
          "internalType": "uint256",
          "name": "_projectId",
          "type": "uint256"
        }
      ],
      "name": "currentFundingCycleOf",
      "outputs": [
        {
          "components": [
            {
              "internalType": "uint256",
              "name": "number",
              "type": "uint256"
            },
            {
              "internalType": "uint256",
              "name": "configuration",
              "type": "uint256"
            },
            {
              "internalType": "uint256",
              "name": "basedOn",
              "type": "uint256"
            },
            {
              "internalType": "uint256",
              "name": "start",
              "type": "uint256"
            },
            {
              "internalType": "uint256",
              "name": "duration",
              "type": "uint256"
            },
            {
              "internalType": "uint256",
              "name": "weight",
              "type": "uint256"
            },
            {
              "internalType": "uint256",
              "name": "discountRate",
              "type": "uint256"
            },
            {
              "internalType": "contract IJBFundingCycleBallot",
              "name": "ballot",
              "type": "address"
            },
            {
              "internalType": "uint256",
              "name": "metadata",
              "type": "uint256"
            }
          ],
          "internalType": "struct JBFundingCycle",
          "name": "fundingCycle",
          "type": "tuple"
        },
        {
          "components": [
            {
              "components": [
                {
                  "internalType": "bool",
                  "name": "allowSetTerminals",
                  "type": "bool"
                },
                {
                  "internalType": "bool",
                  "name": "allowSetController",
                  "type": "bool"
                }
              ],
              "internalType": "struct JBGlobalFundingCycleMetadata",
              "name": "global",
              "type": "tuple"
            },
            {
              "internalType": "uint256",
              "name": "reservedRate",
              "type": "uint256"
            },
            {
              "internalType": "uint256",
              "name": "redemptionRate",
              "type": "uint256"
            },
            {
              "internalType": "uint256",
              "name": "ballotRedemptionRate",
              "type": "uint256"
            },
            {
              "internalType": "bool",
              "name": "pausePay",
              "type": "bool"
            },
            {
              "internalType": "bool",
              "name": "pauseDistributions",
              "type": "bool"
            },
            {
              "internalType": "bool",
              "name": "pauseRedeem",
              "type": "bool"
            },
            {
              "internalType": "bool",
              "name": "pauseBurn",
              "type": "bool"
            },
            {
              "internalType": "bool",
              "name": "allowMinting",
              "type": "bool"
            },
            {
              "internalType": "bool",
              "name": "allowChangeToken",
              "type": "bool"
            },
            {
              "internalType": "bool",
              "name": "allowTerminalMigration",
              "type": "bool"
            },
            {
              "internalType": "bool",
              "name": "allowControllerMigration",
              "type": "bool"
            },
            {
              "internalType": "bool",
              "name": "holdFees",
              "type": "bool"
            },
            {
              "internalType": "bool",
              "name": "useTotalOverflowForRedemptions",
              "type": "bool"
            },
            {
              "internalType": "bool",
              "name": "useDataSourceForPay",
              "type": "bool"
            },
            {
              "internalType": "bool",
              "name": "useDataSourceForRedeem",
              "type": "bool"
            },
            {
              "internalType": "address",
              "name": "dataSource",
              "type": "address"
            }
          ],
          "internalType": "struct JBFundingCycleMetadata",
          "name": "metadata",
          "type": "tuple"
        }
      ],
      "stateMutability": "view",
      "type": "function"
    },
    {
      "inputs": [],
      "name": "directory",
      "outputs": [
        {
          "internalType": "contract IJBDirectory",
          "name": "",
          "type": "address"
        }
      ],
      "stateMutability": "view",
      "type": "function"
    },
    {
      "inputs": [
        {
          "internalType": "uint256",
          "name": "_projectId",
          "type": "uint256"
        },
        {
          "internalType": "string",
          "name": "_memo",
          "type": "string"
        }
      ],
      "name": "distributeReservedTokensOf",
      "outputs": [
        {
          "internalType": "uint256",
          "name": "",
          "type": "uint256"
        }
      ],
      "stateMutability": "nonpayable",
      "type": "function"
    },
    {
      "inputs": [
        {
          "internalType": "uint256",
          "name": "_projectId",
          "type": "uint256"
        },
        {
          "internalType": "uint256",
          "name": "_configuration",
          "type": "uint256"
        },
        {
          "internalType": "contract IJBPaymentTerminal",
          "name": "_terminal",
          "type": "address"
        },
        {
          "internalType": "address",
          "name": "_token",
          "type": "address"
        }
      ],
      "name": "distributionLimitOf",
      "outputs": [
        {
          "internalType": "uint256",
          "name": "",
          "type": "uint256"
        },
        {
          "internalType": "uint256",
          "name": "",
          "type": "uint256"
        }
      ],
      "stateMutability": "view",
      "type": "function"
    },
    {
      "inputs": [],
      "name": "fundingCycleStore",
      "outputs": [
        {
          "internalType": "contract IJBFundingCycleStore",
          "name": "",
          "type": "address"
        }
      ],
      "stateMutability": "view",
      "type": "function"
    },
    {
      "inputs": [
        {
          "internalType": "uint256",
          "name": "_projectId",
          "type": "uint256"
        },
        {
          "internalType": "uint256",
          "name": "_configuration",
          "type": "uint256"
        }
      ],
      "name": "getFundingCycleOf",
      "outputs": [
        {
          "components": [
            {
              "internalType": "uint256",
              "name": "number",
              "type": "uint256"
            },
            {
              "internalType": "uint256",
              "name": "configuration",
              "type": "uint256"
            },
            {
              "internalType": "uint256",
              "name": "basedOn",
              "type": "uint256"
            },
            {
              "internalType": "uint256",
              "name": "start",
              "type": "uint256"
            },
            {
              "internalType": "uint256",
              "name": "duration",
              "type": "uint256"
            },
            {
              "internalType": "uint256",
              "name": "weight",
              "type": "uint256"
            },
            {
              "internalType": "uint256",
              "name": "discountRate",
              "type": "uint256"
            },
            {
              "internalType": "contract IJBFundingCycleBallot",
              "name": "ballot",
              "type": "address"
            },
            {
              "internalType": "uint256",
              "name": "metadata",
              "type": "uint256"
            }
          ],
          "internalType": "struct JBFundingCycle",
          "name": "fundingCycle",
          "type": "tuple"
        },
        {
          "components": [
            {
              "components": [
                {
                  "internalType": "bool",
                  "name": "allowSetTerminals",
                  "type": "bool"
                },
                {
                  "internalType": "bool",
                  "name": "allowSetController",
                  "type": "bool"
                }
              ],
              "internalType": "struct JBGlobalFundingCycleMetadata",
              "name": "global",
              "type": "tuple"
            },
            {
              "internalType": "uint256",
              "name": "reservedRate",
              "type": "uint256"
            },
            {
              "internalType": "uint256",
              "name": "redemptionRate",
              "type": "uint256"
            },
            {
              "internalType": "uint256",
              "name": "ballotRedemptionRate",
              "type": "uint256"
            },
            {
              "internalType": "bool",
              "name": "pausePay",
              "type": "bool"
            },
            {
              "internalType": "bool",
              "name": "pauseDistributions",
              "type": "bool"
            },
            {
              "internalType": "bool",
              "name": "pauseRedeem",
              "type": "bool"
            },
            {
              "internalType": "bool",
              "name": "pauseBurn",
              "type": "bool"
            },
            {
              "internalType": "bool",
              "name": "allowMinting",
              "type": "bool"
            },
            {
              "internalType": "bool",
              "name": "allowChangeToken",
              "type": "bool"
            },
            {
              "internalType": "bool",
              "name": "allowTerminalMigration",
              "type": "bool"
            },
            {
              "internalType": "bool",
              "name": "allowControllerMigration",
              "type": "bool"
            },
            {
              "internalType": "bool",
              "name": "holdFees",
              "type": "bool"
            },
            {
              "internalType": "bool",
              "name": "useTotalOverflowForRedemptions",
              "type": "bool"
            },
            {
              "internalType": "bool",
              "name": "useDataSourceForPay",
              "type": "bool"
            },
            {
              "internalType": "bool",
              "name": "useDataSourceForRedeem",
              "type": "bool"
            },
            {
              "internalType": "address",
              "name": "dataSource",
              "type": "address"
            }
          ],
          "internalType": "struct JBFundingCycleMetadata",
          "name": "metadata",
          "type": "tuple"
        }
      ],
      "stateMutability": "view",
      "type": "function"
    },
    {
      "inputs": [
        {
          "internalType": "uint256",
          "name": "_projectId",
          "type": "uint256"
        },
        {
          "internalType": "string",
          "name": "_name",
          "type": "string"
        },
        {
          "internalType": "string",
          "name": "_symbol",
          "type": "string"
        }
      ],
      "name": "issueTokenFor",
      "outputs": [
        {
          "internalType": "contract IJBToken",
          "name": "token",
          "type": "address"
        }
      ],
      "stateMutability": "nonpayable",
      "type": "function"
    },
    {
      "inputs": [
        {
          "internalType": "uint256",
          "name": "_projectId",
          "type": "uint256"
        }
      ],
      "name": "latestConfiguredFundingCycleOf",
      "outputs": [
        {
          "components": [
            {
              "internalType": "uint256",
              "name": "number",
              "type": "uint256"
            },
            {
              "internalType": "uint256",
              "name": "configuration",
              "type": "uint256"
            },
            {
              "internalType": "uint256",
              "name": "basedOn",
              "type": "uint256"
            },
            {
              "internalType": "uint256",
              "name": "start",
              "type": "uint256"
            },
            {
              "internalType": "uint256",
              "name": "duration",
              "type": "uint256"
            },
            {
              "internalType": "uint256",
              "name": "weight",
              "type": "uint256"
            },
            {
              "internalType": "uint256",
              "name": "discountRate",
              "type": "uint256"
            },
            {
              "internalType": "contract IJBFundingCycleBallot",
              "name": "ballot",
              "type": "address"
            },
            {
              "internalType": "uint256",
              "name": "metadata",
              "type": "uint256"
            }
          ],
          "internalType": "struct JBFundingCycle",
          "name": "fundingCycle",
          "type": "tuple"
        },
        {
          "components": [
            {
              "components": [
                {
                  "internalType": "bool",
                  "name": "allowSetTerminals",
                  "type": "bool"
                },
                {
                  "internalType": "bool",
                  "name": "allowSetController",
                  "type": "bool"
                }
              ],
              "internalType": "struct JBGlobalFundingCycleMetadata",
              "name": "global",
              "type": "tuple"
            },
            {
              "internalType": "uint256",
              "name": "reservedRate",
              "type": "uint256"
            },
            {
              "internalType": "uint256",
              "name": "redemptionRate",
              "type": "uint256"
            },
            {
              "internalType": "uint256",
              "name": "ballotRedemptionRate",
              "type": "uint256"
            },
            {
              "internalType": "bool",
              "name": "pausePay",
              "type": "bool"
            },
            {
              "internalType": "bool",
              "name": "pauseDistributions",
              "type": "bool"
            },
            {
              "internalType": "bool",
              "name": "pauseRedeem",
              "type": "bool"
            },
            {
              "internalType": "bool",
              "name": "pauseBurn",
              "type": "bool"
            },
            {
              "internalType": "bool",
              "name": "allowMinting",
              "type": "bool"
            },
            {
              "internalType": "bool",
              "name": "allowChangeToken",
              "type": "bool"
            },
            {
              "internalType": "bool",
              "name": "allowTerminalMigration",
              "type": "bool"
            },
            {
              "internalType": "bool",
              "name": "allowControllerMigration",
              "type": "bool"
            },
            {
              "internalType": "bool",
              "name": "holdFees",
              "type": "bool"
            },
            {
              "internalType": "bool",
              "name": "useTotalOverflowForRedemptions",
              "type": "bool"
            },
            {
              "internalType": "bool",
              "name": "useDataSourceForPay",
              "type": "bool"
            },
            {
              "internalType": "bool",
              "name": "useDataSourceForRedeem",
              "type": "bool"
            },
            {
              "internalType": "address",
              "name": "dataSource",
              "type": "address"
            }
          ],
          "internalType": "struct JBFundingCycleMetadata",
          "name": "metadata",
          "type": "tuple"
        },
        {
          "internalType": "enum JBBallotState",
          "name": "ballotState",
          "type": "uint8"
        }
      ],
      "stateMutability": "view",
      "type": "function"
    },
    {
      "inputs": [
        {
          "internalType": "uint256",
          "name": "_projectId",
          "type": "uint256"
        },
        {
          "components": [
            {
              "internalType": "uint256",
              "name": "duration",
              "type": "uint256"
            },
            {
              "internalType": "uint256",
              "name": "weight",
              "type": "uint256"
            },
            {
              "internalType": "uint256",
              "name": "discountRate",
              "type": "uint256"
            },
            {
              "internalType": "contract IJBFundingCycleBallot",
              "name": "ballot",
              "type": "address"
            }
          ],
          "internalType": "struct JBFundingCycleData",
          "name": "_data",
          "type": "tuple"
        },
        {
          "components": [
            {
              "components": [
                {
                  "internalType": "bool",
                  "name": "allowSetTerminals",
                  "type": "bool"
                },
                {
                  "internalType": "bool",
                  "name": "allowSetController",
                  "type": "bool"
                }
              ],
              "internalType": "struct JBGlobalFundingCycleMetadata",
              "name": "global",
              "type": "tuple"
            },
            {
              "internalType": "uint256",
              "name": "reservedRate",
              "type": "uint256"
            },
            {
              "internalType": "uint256",
              "name": "redemptionRate",
              "type": "uint256"
            },
            {
              "internalType": "uint256",
              "name": "ballotRedemptionRate",
              "type": "uint256"
            },
            {
              "internalType": "bool",
              "name": "pausePay",
              "type": "bool"
            },
            {
              "internalType": "bool",
              "name": "pauseDistributions",
              "type": "bool"
            },
            {
              "internalType": "bool",
              "name": "pauseRedeem",
              "type": "bool"
            },
            {
              "internalType": "bool",
              "name": "pauseBurn",
              "type": "bool"
            },
            {
              "internalType": "bool",
              "name": "allowMinting",
              "type": "bool"
            },
            {
              "internalType": "bool",
              "name": "allowChangeToken",
              "type": "bool"
            },
            {
              "internalType": "bool",
              "name": "allowTerminalMigration",
              "type": "bool"
            },
            {
              "internalType": "bool",
              "name": "allowControllerMigration",
              "type": "bool"
            },
            {
              "internalType": "bool",
              "name": "holdFees",
              "type": "bool"
            },
            {
              "internalType": "bool",
              "name": "useTotalOverflowForRedemptions",
              "type": "bool"
            },
            {
              "internalType": "bool",
              "name": "useDataSourceForPay",
              "type": "bool"
            },
            {
              "internalType": "bool",
              "name": "useDataSourceForRedeem",
              "type": "bool"
            },
            {
              "internalType": "address",
              "name": "dataSource",
              "type": "address"
            }
          ],
          "internalType": "struct JBFundingCycleMetadata",
          "name": "_metadata",
          "type": "tuple"
        },
        {
          "internalType": "uint256",
          "name": "_mustStartAtOrAfter",
          "type": "uint256"
        },
        {
          "components": [
            {
              "internalType": "uint256",
              "name": "group",
              "type": "uint256"
            },
            {
              "components": [
                {
                  "internalType": "bool",
                  "name": "preferClaimed",
                  "type": "bool"
                },
                {
                  "internalType": "bool",
                  "name": "preferAddToBalance",
                  "type": "bool"
                },
                {
                  "internalType": "uint256",
                  "name": "percent",
                  "type": "uint256"
                },
                {
                  "internalType": "uint256",
                  "name": "projectId",
                  "type": "uint256"
                },
                {
                  "internalType": "address payable",
                  "name": "beneficiary",
                  "type": "address"
                },
                {
                  "internalType": "uint256",
                  "name": "lockedUntil",
                  "type": "uint256"
                },
                {
                  "internalType": "contract IJBSplitAllocator",
                  "name": "allocator",
                  "type": "address"
                }
              ],
              "internalType": "struct JBSplit[]",
              "name": "splits",
              "type": "tuple[]"
            }
          ],
          "internalType": "struct JBGroupedSplits[]",
          "name": "_groupedSplits",
          "type": "tuple[]"
        },
        {
          "components": [
            {
              "internalType": "contract IJBPaymentTerminal",
              "name": "terminal",
              "type": "address"
            },
            {
              "internalType": "address",
              "name": "token",
              "type": "address"
            },
            {
              "internalType": "uint256",
              "name": "distributionLimit",
              "type": "uint256"
            },
            {
              "internalType": "uint256",
              "name": "distributionLimitCurrency",
              "type": "uint256"
            },
            {
              "internalType": "uint256",
              "name": "overflowAllowance",
              "type": "uint256"
            },
            {
              "internalType": "uint256",
              "name": "overflowAllowanceCurrency",
              "type": "uint256"
            }
          ],
          "internalType": "struct JBFundAccessConstraints[]",
          "name": "_fundAccessConstraints",
          "type": "tuple[]"
        },
        {
          "internalType": "contract IJBPaymentTerminal[]",
          "name": "_terminals",
          "type": "address[]"
        },
        {
          "internalType": "string",
          "name": "_memo",
          "type": "string"
        }
      ],
      "name": "launchFundingCyclesFor",
      "outputs": [
        {
          "internalType": "uint256",
          "name": "configuration",
          "type": "uint256"
        }
      ],
      "stateMutability": "nonpayable",
      "type": "function"
    },
    {
      "inputs": [
        {
          "internalType": "address",
          "name": "_owner",
          "type": "address"
        },
        {
          "components": [
            {
              "internalType": "string",
              "name": "content",
              "type": "string"
            },
            {
              "internalType": "uint256",
              "name": "domain",
              "type": "uint256"
            }
          ],
          "internalType": "struct JBProjectMetadata",
          "name": "_projectMetadata",
          "type": "tuple"
        },
        {
          "components": [
            {
              "internalType": "uint256",
              "name": "duration",
              "type": "uint256"
            },
            {
              "internalType": "uint256",
              "name": "weight",
              "type": "uint256"
            },
            {
              "internalType": "uint256",
              "name": "discountRate",
              "type": "uint256"
            },
            {
              "internalType": "contract IJBFundingCycleBallot",
              "name": "ballot",
              "type": "address"
            }
          ],
          "internalType": "struct JBFundingCycleData",
          "name": "_data",
          "type": "tuple"
        },
        {
          "components": [
            {
              "components": [
                {
                  "internalType": "bool",
                  "name": "allowSetTerminals",
                  "type": "bool"
                },
                {
                  "internalType": "bool",
                  "name": "allowSetController",
                  "type": "bool"
                }
              ],
              "internalType": "struct JBGlobalFundingCycleMetadata",
              "name": "global",
              "type": "tuple"
            },
            {
              "internalType": "uint256",
              "name": "reservedRate",
              "type": "uint256"
            },
            {
              "internalType": "uint256",
              "name": "redemptionRate",
              "type": "uint256"
            },
            {
              "internalType": "uint256",
              "name": "ballotRedemptionRate",
              "type": "uint256"
            },
            {
              "internalType": "bool",
              "name": "pausePay",
              "type": "bool"
            },
            {
              "internalType": "bool",
              "name": "pauseDistributions",
              "type": "bool"
            },
            {
              "internalType": "bool",
              "name": "pauseRedeem",
              "type": "bool"
            },
            {
              "internalType": "bool",
              "name": "pauseBurn",
              "type": "bool"
            },
            {
              "internalType": "bool",
              "name": "allowMinting",
              "type": "bool"
            },
            {
              "internalType": "bool",
              "name": "allowChangeToken",
              "type": "bool"
            },
            {
              "internalType": "bool",
              "name": "allowTerminalMigration",
              "type": "bool"
            },
            {
              "internalType": "bool",
              "name": "allowControllerMigration",
              "type": "bool"
            },
            {
              "internalType": "bool",
              "name": "holdFees",
              "type": "bool"
            },
            {
              "internalType": "bool",
              "name": "useTotalOverflowForRedemptions",
              "type": "bool"
            },
            {
              "internalType": "bool",
              "name": "useDataSourceForPay",
              "type": "bool"
            },
            {
              "internalType": "bool",
              "name": "useDataSourceForRedeem",
              "type": "bool"
            },
            {
              "internalType": "address",
              "name": "dataSource",
              "type": "address"
            }
          ],
          "internalType": "struct JBFundingCycleMetadata",
          "name": "_metadata",
          "type": "tuple"
        },
        {
          "internalType": "uint256",
          "name": "_mustStartAtOrAfter",
          "type": "uint256"
        },
        {
          "components": [
            {
              "internalType": "uint256",
              "name": "group",
              "type": "uint256"
            },
            {
              "components": [
                {
                  "internalType": "bool",
                  "name": "preferClaimed",
                  "type": "bool"
                },
                {
                  "internalType": "bool",
                  "name": "preferAddToBalance",
                  "type": "bool"
                },
                {
                  "internalType": "uint256",
                  "name": "percent",
                  "type": "uint256"
                },
                {
                  "internalType": "uint256",
                  "name": "projectId",
                  "type": "uint256"
                },
                {
                  "internalType": "address payable",
                  "name": "beneficiary",
                  "type": "address"
                },
                {
                  "internalType": "uint256",
                  "name": "lockedUntil",
                  "type": "uint256"
                },
                {
                  "internalType": "contract IJBSplitAllocator",
                  "name": "allocator",
                  "type": "address"
                }
              ],
              "internalType": "struct JBSplit[]",
              "name": "splits",
              "type": "tuple[]"
            }
          ],
          "internalType": "struct JBGroupedSplits[]",
          "name": "_groupedSplits",
          "type": "tuple[]"
        },
        {
          "components": [
            {
              "internalType": "contract IJBPaymentTerminal",
              "name": "terminal",
              "type": "address"
            },
            {
              "internalType": "address",
              "name": "token",
              "type": "address"
            },
            {
              "internalType": "uint256",
              "name": "distributionLimit",
              "type": "uint256"
            },
            {
              "internalType": "uint256",
              "name": "distributionLimitCurrency",
              "type": "uint256"
            },
            {
              "internalType": "uint256",
              "name": "overflowAllowance",
              "type": "uint256"
            },
            {
              "internalType": "uint256",
              "name": "overflowAllowanceCurrency",
              "type": "uint256"
            }
          ],
          "internalType": "struct JBFundAccessConstraints[]",
          "name": "_fundAccessConstraints",
          "type": "tuple[]"
        },
        {
          "internalType": "contract IJBPaymentTerminal[]",
          "name": "_terminals",
          "type": "address[]"
        },
        {
          "internalType": "string",
          "name": "_memo",
          "type": "string"
        }
      ],
      "name": "launchProjectFor",
      "outputs": [
        {
          "internalType": "uint256",
          "name": "projectId",
          "type": "uint256"
        }
      ],
      "stateMutability": "nonpayable",
      "type": "function"
    },
    {
      "inputs": [
        {
          "internalType": "uint256",
          "name": "_projectId",
          "type": "uint256"
        },
        {
          "internalType": "contract IJBMigratable",
          "name": "_to",
          "type": "address"
        }
      ],
      "name": "migrate",
      "outputs": [],
      "stateMutability": "nonpayable",
      "type": "function"
    },
    {
      "inputs": [
        {
          "internalType": "uint256",
          "name": "_projectId",
          "type": "uint256"
        },
        {
          "internalType": "uint256",
          "name": "_tokenCount",
          "type": "uint256"
        },
        {
          "internalType": "address",
          "name": "_beneficiary",
          "type": "address"
        },
        {
          "internalType": "string",
          "name": "_memo",
          "type": "string"
        },
        {
          "internalType": "bool",
          "name": "_preferClaimedTokens",
          "type": "bool"
        },
        {
          "internalType": "bool",
          "name": "_useReservedRate",
          "type": "bool"
        }
      ],
      "name": "mintTokensOf",
      "outputs": [
        {
          "internalType": "uint256",
          "name": "beneficiaryTokenCount",
          "type": "uint256"
        }
      ],
      "stateMutability": "nonpayable",
      "type": "function"
    },
    {
      "inputs": [],
      "name": "operatorStore",
      "outputs": [
        {
          "internalType": "contract IJBOperatorStore",
          "name": "",
          "type": "address"
        }
      ],
      "stateMutability": "view",
      "type": "function"
    },
    {
      "inputs": [
        {
          "internalType": "uint256",
          "name": "_projectId",
          "type": "uint256"
        },
        {
          "internalType": "uint256",
          "name": "_configuration",
          "type": "uint256"
        },
        {
          "internalType": "contract IJBPaymentTerminal",
          "name": "_terminal",
          "type": "address"
        },
        {
          "internalType": "address",
          "name": "_token",
          "type": "address"
        }
      ],
      "name": "overflowAllowanceOf",
      "outputs": [
        {
          "internalType": "uint256",
          "name": "",
          "type": "uint256"
        },
        {
          "internalType": "uint256",
          "name": "",
          "type": "uint256"
        }
      ],
      "stateMutability": "view",
      "type": "function"
    },
    {
      "inputs": [
        {
          "internalType": "uint256",
          "name": "_projectId",
          "type": "uint256"
        },
        {
          "internalType": "address",
          "name": "_from",
          "type": "address"
        }
      ],
      "name": "prepForMigrationOf",
      "outputs": [],
      "stateMutability": "nonpayable",
      "type": "function"
    },
    {
      "inputs": [],
      "name": "projects",
      "outputs": [
        {
          "internalType": "contract IJBProjects",
          "name": "",
          "type": "address"
        }
      ],
      "stateMutability": "view",
      "type": "function"
    },
    {
      "inputs": [
        {
          "internalType": "uint256",
          "name": "_projectId",
          "type": "uint256"
        }
      ],
      "name": "queuedFundingCycleOf",
      "outputs": [
        {
          "components": [
            {
              "internalType": "uint256",
              "name": "number",
              "type": "uint256"
            },
            {
              "internalType": "uint256",
              "name": "configuration",
              "type": "uint256"
            },
            {
              "internalType": "uint256",
              "name": "basedOn",
              "type": "uint256"
            },
            {
              "internalType": "uint256",
              "name": "start",
              "type": "uint256"
            },
            {
              "internalType": "uint256",
              "name": "duration",
              "type": "uint256"
            },
            {
              "internalType": "uint256",
              "name": "weight",
              "type": "uint256"
            },
            {
              "internalType": "uint256",
              "name": "discountRate",
              "type": "uint256"
            },
            {
              "internalType": "contract IJBFundingCycleBallot",
              "name": "ballot",
              "type": "address"
            },
            {
              "internalType": "uint256",
              "name": "metadata",
              "type": "uint256"
            }
          ],
          "internalType": "struct JBFundingCycle",
          "name": "fundingCycle",
          "type": "tuple"
        },
        {
          "components": [
            {
              "components": [
                {
                  "internalType": "bool",
                  "name": "allowSetTerminals",
                  "type": "bool"
                },
                {
                  "internalType": "bool",
                  "name": "allowSetController",
                  "type": "bool"
                }
              ],
              "internalType": "struct JBGlobalFundingCycleMetadata",
              "name": "global",
              "type": "tuple"
            },
            {
              "internalType": "uint256",
              "name": "reservedRate",
              "type": "uint256"
            },
            {
              "internalType": "uint256",
              "name": "redemptionRate",
              "type": "uint256"
            },
            {
              "internalType": "uint256",
              "name": "ballotRedemptionRate",
              "type": "uint256"
            },
            {
              "internalType": "bool",
              "name": "pausePay",
              "type": "bool"
            },
            {
              "internalType": "bool",
              "name": "pauseDistributions",
              "type": "bool"
            },
            {
              "internalType": "bool",
              "name": "pauseRedeem",
              "type": "bool"
            },
            {
              "internalType": "bool",
              "name": "pauseBurn",
              "type": "bool"
            },
            {
              "internalType": "bool",
              "name": "allowMinting",
              "type": "bool"
            },
            {
              "internalType": "bool",
              "name": "allowChangeToken",
              "type": "bool"
            },
            {
              "internalType": "bool",
              "name": "allowTerminalMigration",
              "type": "bool"
            },
            {
              "internalType": "bool",
              "name": "allowControllerMigration",
              "type": "bool"
            },
            {
              "internalType": "bool",
              "name": "holdFees",
              "type": "bool"
            },
            {
              "internalType": "bool",
              "name": "useTotalOverflowForRedemptions",
              "type": "bool"
            },
            {
              "internalType": "bool",
              "name": "useDataSourceForPay",
              "type": "bool"
            },
            {
              "internalType": "bool",
              "name": "useDataSourceForRedeem",
              "type": "bool"
            },
            {
              "internalType": "address",
              "name": "dataSource",
              "type": "address"
            }
          ],
          "internalType": "struct JBFundingCycleMetadata",
          "name": "metadata",
          "type": "tuple"
        }
      ],
      "stateMutability": "view",
      "type": "function"
    },
    {
      "inputs": [
        {
          "internalType": "uint256",
          "name": "_projectId",
          "type": "uint256"
        },
        {
          "components": [
            {
              "internalType": "uint256",
              "name": "duration",
              "type": "uint256"
            },
            {
              "internalType": "uint256",
              "name": "weight",
              "type": "uint256"
            },
            {
              "internalType": "uint256",
              "name": "discountRate",
              "type": "uint256"
            },
            {
              "internalType": "contract IJBFundingCycleBallot",
              "name": "ballot",
              "type": "address"
            }
          ],
          "internalType": "struct JBFundingCycleData",
          "name": "_data",
          "type": "tuple"
        },
        {
          "components": [
            {
              "components": [
                {
                  "internalType": "bool",
                  "name": "allowSetTerminals",
                  "type": "bool"
                },
                {
                  "internalType": "bool",
                  "name": "allowSetController",
                  "type": "bool"
                }
              ],
              "internalType": "struct JBGlobalFundingCycleMetadata",
              "name": "global",
              "type": "tuple"
            },
            {
              "internalType": "uint256",
              "name": "reservedRate",
              "type": "uint256"
            },
            {
              "internalType": "uint256",
              "name": "redemptionRate",
              "type": "uint256"
            },
            {
              "internalType": "uint256",
              "name": "ballotRedemptionRate",
              "type": "uint256"
            },
            {
              "internalType": "bool",
              "name": "pausePay",
              "type": "bool"
            },
            {
              "internalType": "bool",
              "name": "pauseDistributions",
              "type": "bool"
            },
            {
              "internalType": "bool",
              "name": "pauseRedeem",
              "type": "bool"
            },
            {
              "internalType": "bool",
              "name": "pauseBurn",
              "type": "bool"
            },
            {
              "internalType": "bool",
              "name": "allowMinting",
              "type": "bool"
            },
            {
              "internalType": "bool",
              "name": "allowChangeToken",
              "type": "bool"
            },
            {
              "internalType": "bool",
              "name": "allowTerminalMigration",
              "type": "bool"
            },
            {
              "internalType": "bool",
              "name": "allowControllerMigration",
              "type": "bool"
            },
            {
              "internalType": "bool",
              "name": "holdFees",
              "type": "bool"
            },
            {
              "internalType": "bool",
              "name": "useTotalOverflowForRedemptions",
              "type": "bool"
            },
            {
              "internalType": "bool",
              "name": "useDataSourceForPay",
              "type": "bool"
            },
            {
              "internalType": "bool",
              "name": "useDataSourceForRedeem",
              "type": "bool"
            },
            {
              "internalType": "address",
              "name": "dataSource",
              "type": "address"
            }
          ],
          "internalType": "struct JBFundingCycleMetadata",
          "name": "_metadata",
          "type": "tuple"
        },
        {
          "internalType": "uint256",
          "name": "_mustStartAtOrAfter",
          "type": "uint256"
        },
        {
          "components": [
            {
              "internalType": "uint256",
              "name": "group",
              "type": "uint256"
            },
            {
              "components": [
                {
                  "internalType": "bool",
                  "name": "preferClaimed",
                  "type": "bool"
                },
                {
                  "internalType": "bool",
                  "name": "preferAddToBalance",
                  "type": "bool"
                },
                {
                  "internalType": "uint256",
                  "name": "percent",
                  "type": "uint256"
                },
                {
                  "internalType": "uint256",
                  "name": "projectId",
                  "type": "uint256"
                },
                {
                  "internalType": "address payable",
                  "name": "beneficiary",
                  "type": "address"
                },
                {
                  "internalType": "uint256",
                  "name": "lockedUntil",
                  "type": "uint256"
                },
                {
                  "internalType": "contract IJBSplitAllocator",
                  "name": "allocator",
                  "type": "address"
                }
              ],
              "internalType": "struct JBSplit[]",
              "name": "splits",
              "type": "tuple[]"
            }
          ],
          "internalType": "struct JBGroupedSplits[]",
          "name": "_groupedSplits",
          "type": "tuple[]"
        },
        {
          "components": [
            {
              "internalType": "contract IJBPaymentTerminal",
              "name": "terminal",
              "type": "address"
            },
            {
              "internalType": "address",
              "name": "token",
              "type": "address"
            },
            {
              "internalType": "uint256",
              "name": "distributionLimit",
              "type": "uint256"
            },
            {
              "internalType": "uint256",
              "name": "distributionLimitCurrency",
              "type": "uint256"
            },
            {
              "internalType": "uint256",
              "name": "overflowAllowance",
              "type": "uint256"
            },
            {
              "internalType": "uint256",
              "name": "overflowAllowanceCurrency",
              "type": "uint256"
            }
          ],
          "internalType": "struct JBFundAccessConstraints[]",
          "name": "_fundAccessConstraints",
          "type": "tuple[]"
        },
        {
          "internalType": "string",
          "name": "_memo",
          "type": "string"
        }
      ],
      "name": "reconfigureFundingCyclesOf",
      "outputs": [
        {
          "internalType": "uint256",
          "name": "configuration",
          "type": "uint256"
        }
      ],
      "stateMutability": "nonpayable",
      "type": "function"
    },
    {
      "inputs": [
        {
          "internalType": "uint256",
          "name": "_projectId",
          "type": "uint256"
        },
        {
          "internalType": "uint256",
          "name": "_reservedRate",
          "type": "uint256"
        }
      ],
      "name": "reservedTokenBalanceOf",
      "outputs": [
        {
          "internalType": "uint256",
          "name": "",
          "type": "uint256"
        }
      ],
      "stateMutability": "view",
      "type": "function"
    },
    {
      "inputs": [],
      "name": "splitsStore",
      "outputs": [
        {
          "internalType": "contract IJBSplitsStore",
          "name": "",
          "type": "address"
        }
      ],
      "stateMutability": "view",
      "type": "function"
    },
    {
      "inputs": [
        {
          "internalType": "bytes4",
          "name": "_interfaceId",
          "type": "bytes4"
        }
      ],
      "name": "supportsInterface",
      "outputs": [
        {
          "internalType": "bool",
          "name": "",
          "type": "bool"
        }
      ],
      "stateMutability": "view",
      "type": "function"
    },
    {
      "inputs": [],
      "name": "tokenStore",
      "outputs": [
        {
          "internalType": "contract IJBTokenStore",
          "name": "",
          "type": "address"
        }
      ],
      "stateMutability": "view",
      "type": "function"
    },
    {
      "inputs": [
        {
          "internalType": "uint256",
          "name": "_projectId",
          "type": "uint256"
        },
        {
          "internalType": "uint256",
          "name": "_reservedRate",
          "type": "uint256"
        }
      ],
      "name": "totalOutstandingTokensOf",
      "outputs": [
        {
          "internalType": "uint256",
          "name": "",
          "type": "uint256"
        }
      ],
      "stateMutability": "view",
      "type": "function"
    }
  ],
  "transactionHash": "0x24bd1188f6300f7a90e0a4f40db5fa608f135429ff03247dc853f18d40d8f4b8",
  "args": [
    "0xEDB2db4b82A4D4956C3B4aA474F7ddf3Ac73c5AB",
    "0x2d8e361f8F1B5daF33fDb2C99971b33503E60EEE",
    "0x1A9b04A9617ba5C9b7EBfF9668C30F41db6fC21a",
    "0x8b3e0af1f7ee6C5a3fab969b5cAdD9347B009F1a",
    "0x220468762c6cE4C05E8fda5cc68Ffaf0CC0B2A85",
    "0x767e488155030589c1833592E60876bbE64c1C74"
  ],
  "numDeployments": 3,
  "solcInputHash": "a1f674e02c4866a16e5bde886a31b82e",
  "bytecode": "0x6101406040523480156200001257600080fd5b5060405162005eb138038062005eb1833981016040819052620000359162000076565b6001600160601b0319606096871b811660805294861b851660a05292851b84166101205290841b831660c052831b821660e05290911b166101005262000123565b60008060008060008060c087890312156200009057600080fd5b86516200009d816200010a565b6020880151909650620000b0816200010a565b6040880151909550620000c3816200010a565b6060880151909450620000d6816200010a565b6080880151909350620000e9816200010a565b60a0880151909250620000fc816200010a565b809150509295509295509295565b6001600160a01b03811681146200012057600080fd5b50565b60805160601c60a05160601c60c05160601c60e05160601c6101005160601c6101205160601c615bd5620002dc600039600081816104580152818161084801528181610a080152818161106c0152818161132b015281816116780152818161190c0152818161198e01528181611b4e01528181611c5a0152818161204d015261213c0152600081816102400152818161360a0152613b860152600081816102cc01528181610b3d01528181610fad0152818161115601528181611511015281816123090152818161272d015281816128cc015281816129f9015281816131b8015281816133a201528181613c820152613e570152600081816102a5015281816107760152818161093701528181610d1001528181610e9b015281816114170152818161181d01528181611e3401528181611ed80152818161265a0152818161310001526135210152600081816103d101528181610dd9015281816112620152818161175301528181611a8d01528181611f91015281816123f00152818161280c015281816132a80152613d0f01526000818161041e01528181612d5501528181612e2401528181612f3d015261300c0152615bd56000f3fe608060405234801561001057600080fd5b50600436106101a35760003560e01c80637fc19af5116100ee578063ad007d6311610097578063d101307311610071578063d10130731461047a578063e867c59c1461048d578063e8db2130146104a0578063f033b3b41461050f57600080fd5b8063ad007d6314610419578063b5f1e34d14610440578063c41c2f241461045357600080fd5b80638b79543c116100c85780638b79543c146103cc57806394b63795146103f3578063a40bb9c71461040657600080fd5b80637fc19af5146103935780638776c499146103a65780638ae9c07b146103b957600080fd5b80633e8c615b11610150578063619306301161012a57806361930630146102c75780636d4bae6b146102ee5780637a81b5621461030f57600080fd5b80633e8c615b1461027a578063405b84fa1461028d578063557e7155146102a057600080fd5b80631f510453116101815780631f51045314610206578063229bb824146102285780632bdfe0041461023b57600080fd5b806301ffc9a7146101a857806312b37b14146101d05780631665bc0f146101f1575b600080fd5b6101bb6101b6366004614918565b610522565b60405190151581526020015b60405180910390f35b6101e36101de366004614b0c565b610653565b6040516101c7929190615201565b6102046101ff366004614770565b610804565b005b610219610214366004614b0c565b610bee565b6040516101c79392919061527c565b610204610236366004614b63565b610daa565b6102627f000000000000000000000000000000000000000000000000000000000000000081565b6040516001600160a01b0390911681526020016101c7565b610204610288366004614b3e565b611033565b61020461029b366004614b3e565b611233565b6102627f000000000000000000000000000000000000000000000000000000000000000081565b6102627f000000000000000000000000000000000000000000000000000000000000000081565b6103016102fc366004614d43565b611721565b6040519081526020016101c7565b61037e61031d366004614ee3565b60009384526002602090815260408086209486529381528385206001600160a01b039384168652815283852091909216845290529020547cffffffffffffffffffffffffffffffffffffffffffffffffffffffffff81169160e89190911c90565b604080519283526020830191909152016101c7565b6103016103a1366004614646565b611a5a565b6101e36103b4366004614b0c565b611d11565b6103016103c7366004614e53565b611e63565b6102627f000000000000000000000000000000000000000000000000000000000000000081565b610301610401366004614c6b565b6123be565b6101e3610414366004614e31565b612534565b6102627f000000000000000000000000000000000000000000000000000000000000000081565b61030161044e366004614e31565b6126f1565b6102627f000000000000000000000000000000000000000000000000000000000000000081565b610262610488366004614bf1565b6127da565b61030161049b366004614ba5565b612968565b61037e6104ae366004614ee3565b60009384526001602090815260408086209486529381528385206001600160a01b039384168652815283852091909216845290529020547cffffffffffffffffffffffffffffffffffffffffffffffffffffffffff81169160e89190911c90565b61030161051d366004614e31565b6129b4565b60007fffffffff0000000000000000000000000000000000000000000000000000000082167fe8469c850000000000000000000000000000000000000000000000000000000014806105b557507fffffffff0000000000000000000000000000000000000000000000000000000082167f3e8c615b00000000000000000000000000000000000000000000000000000000145b8061060157507fffffffff0000000000000000000000000000000000000000000000000000000082167fad007d6300000000000000000000000000000000000000000000000000000000145b8061064d57507f01ffc9a7000000000000000000000000000000000000000000000000000000007fffffffff000000000000000000000000000000000000000000000000000000008316145b92915050565b6106ab6040518061012001604052806000815260200160008152602001600081526020016000815260200160008152602001600081526020016000815260200160006001600160a01b03168152602001600081525090565b6040805161026081018252600061022082018181526102408301829052825260208201819052818301819052606082018190526080820181905260a0820181905260c0820181905260e08201819052610100820181905261012082018190526101408201819052610160820181905261018082018190526101a082018190526101c082018190526101e0820181905261020082015290517f5c550078000000000000000000000000000000000000000000000000000000008152600481018490526001600160a01b037f00000000000000000000000000000000000000000000000000000000000000001690635c550078906024015b6101206040518083038186803b1580156107ba57600080fd5b505afa1580156107ce573d6000803e3d6000fd5b505050506040513d601f19601f820116820180604052508101906107f29190614ab1565b91506107fd82612a80565b9050915091565b6040517f6e49181f0000000000000000000000000000000000000000000000000000000081526004810186905233602482015286908690600a906001600160a01b037f00000000000000000000000000000000000000000000000000000000000000001690636e49181f9060440160206040518083038186803b15801561088a57600080fd5b505afa15801561089e573d6000803e3d6000fd5b505050506040513d601f19601f820116820180604052508101906108c291906148fb565b6108ce84848484612ceb565b87610905576040517f7b38547b00000000000000000000000000000000000000000000000000000000815260040160405180910390fd5b6040517f43a266c2000000000000000000000000000000000000000000000000000000008152600481018a90526000907f00000000000000000000000000000000000000000000000000000000000000006001600160a01b0316906343a266c2906024016101206040518083038186803b15801561098257600080fd5b505afa158015610996573d6000803e3d6000fd5b505050506040513d601f19601f820116820180604052508101906109ba9190614ab1565b610100810151909150604b1c6001908116148015610a8c57506040517f6e49181f000000000000000000000000000000000000000000000000000000008152600481018b90523360248201527f00000000000000000000000000000000000000000000000000000000000000006001600160a01b031690636e49181f9060440160206040518083038186803b158015610a5257600080fd5b505afa158015610a66573d6000803e3d6000fd5b505050506040513d601f19601f82011682018060405250810190610a8a91906148fb565b155b15610ac3576040517f78a4871800000000000000000000000000000000000000000000000000000000815260040160405180910390fd5b60008a815260208190526040902054610add908a90615839565b60008b8152602081905260409081902091909155517f906ebd0f0000000000000000000000000000000000000000000000000000000081526001600160a01b038c81166004830152602482018c9052604482018b905287151560648301527f0000000000000000000000000000000000000000000000000000000000000000169063906ebd0f90608401600060405180830381600087803b158015610b8157600080fd5b505af1158015610b95573d6000803e3d6000fd5b50505050898b6001600160a01b03167fdf04e13ee4fcd48a81ab2fd114757093740a3efa9b6475d86e05878b4c59d0798b8b8b33604051610bd99493929190615406565b60405180910390a35050505050505050505050565b610c466040518061012001604052806000815260200160008152602001600081526020016000815260200160008152602001600081526020016000815260200160006001600160a01b03168152602001600081525090565b6040805161026081018252600061022082018181526102408301829052825260208201819052918101829052606081018290526080810182905260a0810182905260c0810182905260e08101829052610100810182905261012081018290526101408101829052610160810182905261018081018290526101a081018290526101c081018290526101e081018290526102008101919091526040517febc8ca1f000000000000000000000000000000000000000000000000000000008152600481018490526000907f00000000000000000000000000000000000000000000000000000000000000006001600160a01b03169063ebc8ca1f906024016101406040518083038186803b158015610d5b57600080fd5b505afa158015610d6f573d6000803e3d6000fd5b505050506040513d601f19601f82011682018060405250810190610d939190614ace565b9093509050610da183612a80565b91509193909250565b6040517f6352211e000000000000000000000000000000000000000000000000000000008152600481018490527f00000000000000000000000000000000000000000000000000000000000000006001600160a01b031690636352211e9060240160206040518083038186803b158015610e2357600080fd5b505afa158015610e37573d6000803e3d6000fd5b505050506040513d601f19601f82011682018060405250810190610e5b9190614629565b836008610e69838383612edd565b6040517f43a266c2000000000000000000000000000000000000000000000000000000008152600481018790526000907f00000000000000000000000000000000000000000000000000000000000000006001600160a01b0316906343a266c2906024016101206040518083038186803b158015610ee657600080fd5b505afa158015610efa573d6000803e3d6000fd5b505050506040513d601f19601f82011682018060405250810190610f1e9190614ab1565b610100810151909150604d1c600190811614610f66576040517f2ebc601300000000000000000000000000000000000000000000000000000000815260040160405180910390fd5b6040517f57e4c778000000000000000000000000000000000000000000000000000000008152600481018890526001600160a01b03878116602483015286811660448301527f000000000000000000000000000000000000000000000000000000000000000016906357e4c77890606401602060405180830381600087803b158015610ff157600080fd5b505af1158015611005573d6000803e3d6000fd5b505050506040513d601f19601f820116820180604052508101906110299190614629565b5050505050505050565b6040517f5dd8f6aa0000000000000000000000000000000000000000000000000000000081526004810183905230906001600160a01b037f00000000000000000000000000000000000000000000000000000000000000001690635dd8f6aa9060240160206040518083038186803b1580156110ae57600080fd5b505afa1580156110c2573d6000803e3d6000fd5b505050506040513d601f19601f820116820180604052508101906110e69190614629565b6001600160a01b03161415611127576040517ffc2ce25a00000000000000000000000000000000000000000000000000000000815260040160405180910390fd5b6040517f75b0d9cd000000000000000000000000000000000000000000000000000000008152600481018390527f00000000000000000000000000000000000000000000000000000000000000006001600160a01b0316906375b0d9cd9060240160206040518083038186803b1580156111a057600080fd5b505afa1580156111b4573d6000803e3d6000fd5b505050506040513d601f19601f820116820180604052508101906111d89190614b25565b600083815260208181526040918290209290925580516001600160a01b0384168152339281019290925283917ff389f4f5d01fe4903d6a7a63b8790b7bf80d374b6afed808c03795c3b323d4d3910160405180910390a25050565b6040517f6352211e000000000000000000000000000000000000000000000000000000008152600481018390527f00000000000000000000000000000000000000000000000000000000000000006001600160a01b031690636352211e9060240160206040518083038186803b1580156112ac57600080fd5b505afa1580156112c0573d6000803e3d6000fd5b505050506040513d601f19601f820116820180604052508101906112e49190614629565b8260036112f2838383612edd565b6040517f5dd8f6aa0000000000000000000000000000000000000000000000000000000081526004810186905230906001600160a01b037f00000000000000000000000000000000000000000000000000000000000000001690635dd8f6aa9060240160206040518083038186803b15801561136d57600080fd5b505afa158015611381573d6000803e3d6000fd5b505050506040513d601f19601f820116820180604052508101906113a59190614629565b6001600160a01b0316146113e5576040517fe0a0a87d00000000000000000000000000000000000000000000000000000000815260040160405180910390fd5b6040517f43a266c2000000000000000000000000000000000000000000000000000000008152600481018690526000907f00000000000000000000000000000000000000000000000000000000000000006001600160a01b0316906343a266c2906024016101206040518083038186803b15801561146257600080fd5b505afa158015611476573d6000803e3d6000fd5b505050506040513d601f19601f8201168201806040525081019061149a9190614ab1565b610100810151909150604f1c6001908116146114e2576040517f46ace3f900000000000000000000000000000000000000000000000000000000815260040160405180910390fd5b6040517f75b0d9cd000000000000000000000000000000000000000000000000000000008152600481018790527f00000000000000000000000000000000000000000000000000000000000000006001600160a01b0316906375b0d9cd9060240160206040518083038186803b15801561155b57600080fd5b505afa15801561156f573d6000803e3d6000fd5b505050506040513d601f19601f820116820180604052508101906115939190614b25565b600087815260208190526040902054146115c2576115c086604051806020016040528060008152506130c4565b505b6040517f3e8c615b000000000000000000000000000000000000000000000000000000008152600481018790523060248201526001600160a01b03861690633e8c615b90604401600060405180830381600087803b15801561162357600080fd5b505af1158015611637573d6000803e3d6000fd5b50506040517f714e7f32000000000000000000000000000000000000000000000000000000008152600481018990526001600160a01b0388811660248301527f000000000000000000000000000000000000000000000000000000000000000016925063714e7f329150604401600060405180830381600087803b1580156116be57600080fd5b505af11580156116d2573d6000803e3d6000fd5b5050604080516001600160a01b03891681523360208201528993507f01f954abace731a88ab86e71186040cc2be49fe517ea06bc0d24f25b82b8345692500160405180910390a2505050505050565b6040517f6352211e000000000000000000000000000000000000000000000000000000008152600481018a90526000907f00000000000000000000000000000000000000000000000000000000000000006001600160a01b031690636352211e9060240160206040518083038186803b15801561179d57600080fd5b505afa1580156117b1573d6000803e3d6000fd5b505050506040513d601f19601f820116820180604052508101906117d59190614629565b8a60016117e3838383612edd565b6040517f2cee6deb000000000000000000000000000000000000000000000000000000008152600481018e90526000906001600160a01b037f00000000000000000000000000000000000000000000000000000000000000001690632cee6deb9060240160206040518083038186803b15801561185f57600080fd5b505afa158015611873573d6000803e3d6000fd5b505050506040513d601f19601f820116820180604052508101906118979190614b25565b11156118cf576040517fffd0bc1200000000000000000000000000000000000000000000000000000000815260040160405180910390fd5b6040517f714e7f32000000000000000000000000000000000000000000000000000000008152600481018e90523060248201526001600160a01b037f0000000000000000000000000000000000000000000000000000000000000000169063714e7f3290604401600060405180830381600087803b15801561195057600080fd5b505af1158015611964573d6000803e3d6000fd5b505050506119828d8d8d8d8d8d9061197c91906158c4565b8c613453565b865190945015611a0d577f00000000000000000000000000000000000000000000000000000000000000006001600160a01b031663821b9fd88e886040518363ffffffff1660e01b81526004016119da9291906153bc565b600060405180830381600087803b1580156119f457600080fd5b505af1158015611a08573d6000803e3d6000fd5b505050505b7f8621c3692c18d8ddd4cd26457d6a3e1d916e7001c4243a6c8dfa862a7e10a823848e8733604051611a42949392919061566d565b60405180910390a15050509998505050505050505050565b6040517f666d87a00000000000000000000000000000000000000000000000000000000081526000906001600160a01b037f0000000000000000000000000000000000000000000000000000000000000000169063666d87a090611ac4908f908f9060040161511f565b602060405180830381600087803b158015611ade57600080fd5b505af1158015611af2573d6000803e3d6000fd5b505050506040513d601f19601f82011682018060405250810190611b169190614b25565b6040517f714e7f32000000000000000000000000000000000000000000000000000000008152600481018290523060248201529091507f00000000000000000000000000000000000000000000000000000000000000006001600160a01b03169063714e7f3290604401600060405180830381600087803b158015611b9a57600080fd5b505af1158015611bae573d6000803e3d6000fd5b505050506000611c20828c8c8c8c8c90611bc891906158c4565b8b8b808060200260200160405190810160405280939291908181526020016000905b82821015611c1657611c0760c0830286013681900381019061495a565b81526020019060010190611bea565b5050505050613453565b845190915015611cc4576040517f821b9fd80000000000000000000000000000000000000000000000000000000081526001600160a01b037f0000000000000000000000000000000000000000000000000000000000000000169063821b9fd890611c9190859088906004016153bc565b600060405180830381600087803b158015611cab57600080fd5b505af1158015611cbf573d6000803e3d6000fd5b505050505b7ff3e6948ba8b32d557363ea08470121c47c0127659aed09320812174d373afef281838533604051611cf9949392919061566d565b60405180910390a1509b9a5050505050505050505050565b611d696040518061012001604052806000815260200160008152602001600081526020016000815260200160008152602001600081526020016000815260200160006001600160a01b03168152602001600081525090565b6040805161026081018252600061022082018181526102408301829052825260208201819052818301819052606082018190526080820181905260a0820181905260c0820181905260e08201819052610100820181905261012082018190526101408201819052610160820181905261018082018190526101a082018190526101c082018190526101e0820181905261020082015290517f43a266c2000000000000000000000000000000000000000000000000000000008152600481018490526001600160a01b037f000000000000000000000000000000000000000000000000000000000000000016906343a266c2906024016107a1565b600086611e9c576040517f9fd13e5400000000000000000000000000000000000000000000000000000000815260040160405180910390fd5b6040517f43a266c20000000000000000000000000000000000000000000000000000000081526004810189905260009081906001600160a01b037f000000000000000000000000000000000000000000000000000000000000000016906343a266c2906024016101206040518083038186803b158015611f1b57600080fd5b505afa158015611f2f573d6000803e3d6000fd5b505050506040513d601f19601f82011682018060405250810190611f539190614ab1565b6040517f6352211e000000000000000000000000000000000000000000000000000000008152600481018c90529091506120f0906001600160a01b037f00000000000000000000000000000000000000000000000000000000000000001690636352211e9060240160206040518083038186803b158015611fd357600080fd5b505afa158015611fe7573d6000803e3d6000fd5b505050506040513d601f19601f8201168201806040525081019061200b9190614629565b6040517f6e49181f000000000000000000000000000000000000000000000000000000008152600481018d90523360248201528c906009906001600160a01b037f00000000000000000000000000000000000000000000000000000000000000001690636e49181f9060440160206040518083038186803b15801561208f57600080fd5b505afa1580156120a3573d6000803e3d6000fd5b505050506040513d601f19601f820116820180604052508101906120c791906148fb565b806120eb575061010085015160541c6001600160a01b0316336001600160a01b0316145b612ceb565b610100810151604c1c6001908116141580156121c057506040517f6e49181f000000000000000000000000000000000000000000000000000000008152600481018b90523360248201527f00000000000000000000000000000000000000000000000000000000000000006001600160a01b031690636e49181f9060440160206040518083038186803b15801561218657600080fd5b505afa15801561219a573d6000803e3d6000fd5b505050506040513d601f19601f820116820180604052508101906121be91906148fb565b155b80156121e6575061010081015160541c6001600160a01b0316336001600160a01b031614155b1561221d576040517f9d0ca8fd00000000000000000000000000000000000000000000000000000000815260040160405180910390fd5b83612229576000612237565b61010081015160181c61ffff165b9150506127108114156122725760008981526020819052604090205461225e908990615839565b60008a815260208190526040902055612366565b61228a88612282836127106158ad565b612710613938565b9150806122bb576000898152602081905260409020546122ab9083906157ad565b60008a8152602081905260409020555b6040517fceddd3e40000000000000000000000000000000000000000000000000000000081526001600160a01b038881166004830152602482018b90526044820184905285151560648301527f0000000000000000000000000000000000000000000000000000000000000000169063ceddd3e490608401600060405180830381600087803b15801561234d57600080fd5b505af1158015612361573d6000803e3d6000fd5b505050505b88876001600160a01b03167fe6fee9c572244c0c2238c3112ac12d411750a7ee00eeebd32521c3e5a666c14b8a858a8a87336040516123aa9695949392919061562b565b60405180910390a350979650505050505050565b6040517f6352211e000000000000000000000000000000000000000000000000000000008152600481018b90526000907f00000000000000000000000000000000000000000000000000000000000000006001600160a01b031690636352211e9060240160206040518083038186803b15801561243a57600080fd5b505afa15801561244e573d6000803e3d6000fd5b505050506040513d601f19601f820116820180604052508101906124729190614629565b8b6001612480838383612edd565b6124e28e8e8e8e8e8e9061249491906158c4565b8d8d808060200260200160405190810160405280939291908181526020016000905b82821015611c16576124d360c0830286013681900381019061495a565b815260200190600101906124b6565b93507f1a08ad37c93969a586fd0605d240c17113b20a9c9ac3847595d0ab425225f6af848f88883360405161251b9594939291906155f0565b60405180910390a15050509a9950505050505050505050565b61258c6040518061012001604052806000815260200160008152602001600081526020016000815260200160008152602001600081526020016000815260200160006001600160a01b03168152602001600081525090565b6040805161026081018252600061022082018181526102408301829052825260208201819052918101829052606081018290526080810182905260a0810182905260c0810182905260e08101829052610100810182905261012081018290526101408101829052610160810182905261018081018290526101a081018290526101c081018290526101e081018290526102008101919091526040517f669e48aa00000000000000000000000000000000000000000000000000000000815260048101859052602481018490527f00000000000000000000000000000000000000000000000000000000000000006001600160a01b03169063669e48aa906044016101206040518083038186803b1580156126a557600080fd5b505afa1580156126b9573d6000803e3d6000fd5b505050506040513d601f19601f820116820180604052508101906126dd9190614ab1565b91506126e882612a80565b90509250929050565b6040517f75b0d9cd0000000000000000000000000000000000000000000000000000000081526004810183905260009081906001600160a01b037f000000000000000000000000000000000000000000000000000000000000000016906375b0d9cd9060240160206040518083038186803b15801561276f57600080fd5b505afa158015612783573d6000803e3d6000fd5b505050506040513d601f19601f820116820180604052508101906127a79190614b25565b600085815260208190526040812054919250906127c5908584613a41565b90506127d18183615821565b95945050505050565b6040517f6352211e000000000000000000000000000000000000000000000000000000008152600481018690526000907f00000000000000000000000000000000000000000000000000000000000000006001600160a01b031690636352211e9060240160206040518083038186803b15801561285657600080fd5b505afa15801561286a573d6000803e3d6000fd5b505050506040513d601f19601f8201168201806040525081019061288e9190614629565b86600761289c838383612edd565b6040517fa7f2a70b0000000000000000000000000000000000000000000000000000000081526001600160a01b037f0000000000000000000000000000000000000000000000000000000000000000169063a7f2a70b90612909908c908c908c908c908c9060040161543a565b602060405180830381600087803b15801561292357600080fd5b505af1158015612937573d6000803e3d6000fd5b505050506040513d601f19601f8201168201806040525081019061295b9190614629565b9998505050505050505050565b60006129aa8484848080601f0160208091040260200160405190810160405280939291908181526020018383808284376000920191909152506130c492505050565b90505b9392505050565b6000828152602081905260408082205490517f75b0d9cd000000000000000000000000000000000000000000000000000000008152600481018590526129ad919084907f00000000000000000000000000000000000000000000000000000000000000006001600160a01b0316906375b0d9cd9060240160206040518083038186803b158015612a4357600080fd5b505afa158015612a57573d6000803e3d6000fd5b505050506040513d601f19601f82011682018060405250810190612a7b9190614b25565b613a41565b6040805161026081018252600061022082018181526102408301829052825260208201819052918101829052606081018290526080810182905260a0810182905260c0810182905260e08101829052610100810182905261012081018290526101408101829052610160810182905261018081018290526101a081018290526101c081018290526101e08101829052610200810191909152604051806102200160405280612b2d84613ab2565b815261010084015160209091019060181c61ffff168152602001612b5084613b0a565b8152602001612b5e84613b27565b8152602001612b7a846101000151600160489190911c81161490565b15158152602001612b98846101000151600160499190911c81161490565b15158152602001612bb68461010001516001604a9190911c81161490565b15158152602001612bd48461010001516001604b9190911c81161490565b15158152602001612bf28461010001516001604c9190911c81161490565b15158152602001612c108461010001516001604d9190911c81161490565b15158152602001612c2e8461010001516001604e9190911c81161490565b15158152602001612c4c8461010001516001604f9190911c81161490565b15158152602001612c6a846101000151600160509190911c81161490565b15158152602001612c88846101000151600160519190911c81161490565b15158152602001612ca6846101000151600160529190911c81161490565b15158152602001612cc4846101000151600160539190911c81161490565b15158152602001612cda84610100015160541c90565b6001600160a01b0316905292915050565b80158015612d025750336001600160a01b03851614155b8015612dd157506040517fc161c93f0000000000000000000000000000000000000000000000000000000081523360048201526001600160a01b03858116602483015260448201859052606482018490527f0000000000000000000000000000000000000000000000000000000000000000169063c161c93f9060840160206040518083038186803b158015612d9757600080fd5b505afa158015612dab573d6000803e3d6000fd5b505050506040513d601f19601f82011682018060405250810190612dcf91906148fb565b155b8015612ea057506040517fc161c93f0000000000000000000000000000000000000000000000000000000081523360048201526001600160a01b03858116602483015260006044830152606482018490527f0000000000000000000000000000000000000000000000000000000000000000169063c161c93f9060840160206040518083038186803b158015612e6657600080fd5b505afa158015612e7a573d6000803e3d6000fd5b505050506040513d601f19601f82011682018060405250810190612e9e91906148fb565b155b15612ed7576040517f075fd2b100000000000000000000000000000000000000000000000000000000815260040160405180910390fd5b50505050565b336001600160a01b03841614801590612fb957506040517fc161c93f0000000000000000000000000000000000000000000000000000000081523360048201526001600160a01b03848116602483015260448201849052606482018390527f0000000000000000000000000000000000000000000000000000000000000000169063c161c93f9060840160206040518083038186803b158015612f7f57600080fd5b505afa158015612f93573d6000803e3d6000fd5b505050506040513d601f19601f82011682018060405250810190612fb791906148fb565b155b801561308857506040517fc161c93f0000000000000000000000000000000000000000000000000000000081523360048201526001600160a01b03848116602483015260006044830152606482018390527f0000000000000000000000000000000000000000000000000000000000000000169063c161c93f9060840160206040518083038186803b15801561304e57600080fd5b505afa158015613062573d6000803e3d6000fd5b505050506040513d601f19601f8201168201806040525081019061308691906148fb565b155b156130bf576040517f075fd2b100000000000000000000000000000000000000000000000000000000815260040160405180910390fd5b505050565b6040517f43a266c20000000000000000000000000000000000000000000000000000000081526004810183905260009081906001600160a01b037f000000000000000000000000000000000000000000000000000000000000000016906343a266c2906024016101206040518083038186803b15801561314357600080fd5b505afa158015613157573d6000803e3d6000fd5b505050506040513d601f19601f8201168201806040525081019061317b9190614ab1565b6040517f75b0d9cd000000000000000000000000000000000000000000000000000000008152600481018690529091506000906001600160a01b037f000000000000000000000000000000000000000000000000000000000000000016906375b0d9cd9060240160206040518083038186803b1580156131fa57600080fd5b505afa15801561320e573d6000803e3d6000fd5b505050506040513d601f19601f820116820180604052508101906132329190614b25565b60008681526020819052604090205461010084015191925061325b9160181c61ffff1683613a41565b92506132678382615821565b6000868152602081905260408082209290925590517f6352211e000000000000000000000000000000000000000000000000000000008152600481018790527f00000000000000000000000000000000000000000000000000000000000000006001600160a01b031690636352211e9060240160206040518083038186803b1580156132f257600080fd5b505afa158015613306573d6000803e3d6000fd5b505050506040513d601f19601f8201168201806040525081019061332a9190614629565b90506000841561334a57613345878560200151600288613b44565b61334d565b60005b905080156133ff576040517fceddd3e40000000000000000000000000000000000000000000000000000000081526001600160a01b0383811660048301526024820189905260448201839052600060648301527f0000000000000000000000000000000000000000000000000000000000000000169063ceddd3e490608401600060405180830381600087803b1580156133e657600080fd5b505af11580156133fa573d6000803e3d6000fd5b505050505b86846000015185602001517fb12d7a78048433f69fe6d30145bf08aad8e82985b96e4db6d5c6a7e94d57086e8589868c336040516134419594939291906151bd565b60405180910390a45050505092915050565b600061271085604001351115613495576040517f5623289500000000000000000000000000000000000000000000000000000000815260040160405180910390fd5b612710856060013511156134d5576040517f9db9ee9300000000000000000000000000000000000000000000000000000000815260040160405180910390fd5b61271085608001351115613515576040517fddbf1bc600000000000000000000000000000000000000000000000000000000815260040160405180910390fd5b60006001600160a01b037f00000000000000000000000000000000000000000000000000000000000000001663a249d425898961355f61355a368c90038c018c614976565b614063565b896040518563ffffffff1660e01b815260040161357f9493929190615473565b61012060405180830381600087803b15801561359a57600080fd5b505af11580156135ae573d6000803e3d6000fd5b505050506040513d601f19601f820116820180604052508101906135d29190614ab1565b60208101516040517ff2da44b60000000000000000000000000000000000000000000000000000000081529192506001600160a01b037f0000000000000000000000000000000000000000000000000000000000000000169163f2da44b691613642918c919089906004016154c7565b600060405180830381600087803b15801561365c57600080fd5b505af1158015613670573d6000803e3d6000fd5b5050505060005b835181101561392857600084828151811061369457613694615b1b565b602002602001015190507cffffffffffffffffffffffffffffffffffffffffffffffffffffffffff8016816040015111156136fb576040517fa9b8fbcf00000000000000000000000000000000000000000000000000000000815260040160405180910390fd5b606081015162ffffff101561373c576040517f9583faed00000000000000000000000000000000000000000000000000000000815260040160405180910390fd5b60808101517cffffffffffffffffffffffffffffffffffffffffffffffffffffffffff1015613797576040517f5730278300000000000000000000000000000000000000000000000000000000815260040160405180910390fd5b60a081015162ffffff10156137d8576040517fd9b93c2500000000000000000000000000000000000000000000000000000000815260040160405180910390fd5b60408101511561383557606081015160408083015160008d815260016020908152838220888201518352815283822086516001600160a01b03908116845290825284832082880151909116835290529190912060e89290921b1790555b6080810151156138925760a0810151608082015160008c8152600260209081526040808320888301518452825280832086516001600160a01b039081168552908352818420838801519091168452909152902060e89290921b1790555b82516020808501516040805185516001600160a01b0390811682528685015116938101939093528085015190830152606080850151908301526080808501519083015260a080850151908301523360c08301528c92917f8a1c80ab9ab05d6bf02096dd94aa2fa05a9de212e793835a50dd5ffe8d8cbab89060e00160405180910390a4508061392081615a4b565b915050613677565b5060200151979650505050505050565b600080807fffffffffffffffffffffffffffffffffffffffffffffffffffffffffffffffff85870985870292508281108382030391505080600014156139915783828161398757613987615aec565b04925050506129ad565b8381106139d8576040517f773cc18c000000000000000000000000000000000000000000000000000000008152600481018290526024810185905260440160405180910390fd5b60008486880960026001871981018816978890046003810283188082028403028082028403028082028403028082028403028082028403029081029092039091026000889003889004909101858311909403939093029303949094049190911702949350505050565b6000806000851215613a6557613a5685615a84565b613a609084615821565b613a6f565b613a6f85846158ad565b905080613a805760009150506129ad565b612710841415613a915790506129ad565b80613aa881612710613aa388826158ad565b613938565b6127d191906158ad565b604080518082019091526000808252602082015261064d6008836101000151901c6040805180820182526000808252602091820152815180830190925260018381168114835292831c83169092149181019190915290565b60006028826101000151901c61ffff1661271061064d91906158ad565b60006038826101000151901c61ffff1661271061064d91906158ad565b6040517f69e11cc500000000000000000000000000000000000000000000000000000000815260048101859052602481018490526044810183905281906000907f00000000000000000000000000000000000000000000000000000000000000006001600160a01b0316906369e11cc59060640160006040518083038186803b158015613bd057600080fd5b505afa158015613be4573d6000803e3d6000fd5b505050506040513d6000823e601f3d9081017fffffffffffffffffffffffffffffffffffffffffffffffffffffffffffffffe0168201604052613c2a91908101906147ec565b905060005b8151811015614059576000828281518110613c4c57613c4c615b1b565b602002602001015190506000613c6b868360400151633b9aca00613938565b905080156140065760c08201516001600160a01b037f000000000000000000000000000000000000000000000000000000000000000081169163ceddd3e49116613d96576060840151613cda5760808401516001600160a01b0316613cd05733613d9c565b8360800151613d9c565b60608401516040517f6352211e00000000000000000000000000000000000000000000000000000000815260048101919091527f00000000000000000000000000000000000000000000000000000000000000006001600160a01b031690636352211e9060240160206040518083038186803b158015613d5957600080fd5b505afa158015613d6d573d6000803e3d6000fd5b505050506040513d601f19601f82011682018060405250810190613d919190614629565b613d9c565b8360c001515b845160405160e084901b7fffffffff000000000000000000000000000000000000000000000000000000001681526001600160a01b039092166004830152602482018d90526044820185905215156064820152608401600060405180830381600087803b158015613e0c57600080fd5b505af1158015613e20573d6000803e3d6000fd5b5050505060c08201516001600160a01b031615613ff9578160c001516001600160a01b0316639d740bfa6040518060c001604052807f00000000000000000000000000000000000000000000000000000000000000006001600160a01b031663ea78803f8e6040518263ffffffff1660e01b8152600401613ea391815260200190565b60206040518083038186803b158015613ebb57600080fd5b505afa158015613ecf573d6000803e3d6000fd5b505050506040513d601f19601f82011682018060405250810190613ef39190614629565b6001600160a01b03168152602001848152602001601281526020018c81526020018a8152602001858152506040518263ffffffff1660e01b8152600401613fc6919081516001600160a01b0390811682526020808401518184015260408085015181850152606080860151818601526080808701518187015260a096870151805115158888015293840151151560c0808801919091529284015160e08701529083015161010086015282015183166101208501529381015161014084015292909201519091166101608201526101800190565b600060405180830381600087803b158015613fe057600080fd5b505af1158015613ff4573d6000803e3d6000fd5b505050505b61400381866158ad565b94505b86888a7f990c1da5d280602f972ae3c429b6dc66a66569875205cc6e67f14e0b3fc4d2ac85853360405161403c9392919061533d565b60405180910390a45050808061405190615a4b565b915050613c2f565b5050949350505050565b80516001906008906140749061420b565b901b8117905060188260200151901b811790506028826040015161271061409b91906158ad565b901b81179050603882606001516127106140b591906158ad565b901b811790508160800151156140d2576901000000000000000000175b8160a00151156140e9576902000000000000000000175b8160c0015115614100576904000000000000000000175b8160e0015115614117576908000000000000000000175b8161010001511561412f576910000000000000000000175b81610120015115614147576920000000000000000000175b8161014001511561415f576940000000000000000000175b81610160015115614177576980000000000000000000175b81610180015115614190576a0100000000000000000000175b816101a00151156141a9576a0200000000000000000000175b816101c00151156141c2576a0400000000000000000000175b816101e00151156141db576a0800000000000000000000175b610200919091015160541b7e0ffffffffffffffffffffffffffffffffffffffff000000000000000000000161790565b805160009015614219576001175b816020015115614227576002175b919050565b803561422781615b79565b600082601f83011261424857600080fd5b8135602061425d61425883615789565b61573a565b80838252828201915082860187848660051b890101111561427d57600080fd5b60005b858110156142a557813561429381615b79565b84529284019290840190600101614280565b5090979650505050505050565b60008083601f8401126142c457600080fd5b50813567ffffffffffffffff8111156142dc57600080fd5b60208301915083602060c0830285010111156142f757600080fd5b9250929050565b600082601f83011261430f57600080fd5b8135602061431f61425883615789565b8281528181019085830160c08086028801850189101561433e57600080fd5b60005b86811015614365576143538a8461449e565b85529385019391810191600101614341565b509198975050505050505050565b60008083601f84011261438557600080fd5b50813567ffffffffffffffff81111561439d57600080fd5b6020830191508360208260051b85010111156142f757600080fd5b803561422781615b91565b805161422781615b79565b60008083601f8401126143e057600080fd5b50813567ffffffffffffffff8111156143f857600080fd5b6020830191508360208285010111156142f757600080fd5b600082601f83011261442157600080fd5b813567ffffffffffffffff81111561443b5761443b615b4a565b61446c60207fffffffffffffffffffffffffffffffffffffffffffffffffffffffffffffffe0601f8401160161573a565b81815284602083860101111561448157600080fd5b816020850160208301376000918101602001919091529392505050565b600060c082840312156144b057600080fd5b60405160c0810181811067ffffffffffffffff821117156144d3576144d3615b4a565b60405290508082356144e481615b79565b815260208301356144f481615b79565b8060208301525060408301356040820152606083013560608201526080830135608082015260a083013560a08201525092915050565b60006080828403121561453c57600080fd5b50919050565b6000610240828403121561453c57600080fd5b6000610120828403121561456857600080fd5b6145706156a6565b9050815181526020820151602082015260408201516040820152606082015160608201526080820151608082015260a082015160a082015260c082015160c08201526145be60e083016143c3565b60e082015261010080830151818301525092915050565b6000604082840312156145e757600080fd5b6145ef6156d0565b905081356145fc81615b91565b8152602082013561460c81615b91565b602082015292915050565b60006040828403121561453c57600080fd5b60006020828403121561463b57600080fd5b81516129ad81615b79565b60008060008060008060008060008060006103a08c8e03121561466857600080fd5b6146718c61422c565b9a5067ffffffffffffffff8060208e0135111561468d57600080fd5b61469d8e60208f01358f01614617565b9a506146ac8e60408f0161452a565b99506146bb8e60c08f01614542565b98506103008d01359750806103208e013511156146d757600080fd5b6146e88e6103208f01358f01614373565b90975095506103408d01358110156146ff57600080fd5b6147108e6103408f01358f016142b2565b90955093506103608d013581101561472757600080fd5b6147388e6103608f01358f01614237565b9250806103808e0135111561474c57600080fd5b5061475e8d6103808e01358e01614410565b90509295989b509295989b9093969950565b60008060008060008060a0878903121561478957600080fd5b863561479481615b79565b95506020870135945060408701359350606087013567ffffffffffffffff8111156147be57600080fd5b6147ca89828a016143ce565b90945092505060808701356147de81615b91565b809150509295509295509295565b600060208083850312156147ff57600080fd5b825167ffffffffffffffff81111561481657600080fd5b8301601f8101851361482757600080fd5b805161483561425882615789565b8181528381019083850160e0808502860187018a101561485457600080fd5b60009550855b858110156148ec5781838c031215614870578687fd5b6148786156f3565b835161488381615b91565b81528389015161489281615b91565b818a015260408481015190820152606080850151908201526080808501516148b981615b79565b9082015260a0848101519082015260c0808501516148d681615b79565b908201528552938701939181019160010161485a565b50919998505050505050505050565b60006020828403121561490d57600080fd5b81516129ad81615b91565b60006020828403121561492a57600080fd5b81357fffffffff00000000000000000000000000000000000000000000000000000000811681146129ad57600080fd5b600060c0828403121561496c57600080fd5b6129ad838361449e565b6000610240828403121561498957600080fd5b614991615716565b61499b84846145d5565b81526040830135602082015260608301356040820152608083013560608201526149c760a084016143b8565b60808201526149d860c084016143b8565b60a08201526149e960e084016143b8565b60c08201526101006149fc8185016143b8565b60e0830152610120614a0f8186016143b8565b828401526101409150614a238286016143b8565b90830152610160614a358582016143b8565b828401526101809150614a498286016143b8565b908301526101a0614a5b8582016143b8565b828401526101c09150614a6f8286016143b8565b908301526101e0614a818582016143b8565b828401526102009150614a958286016143b8565b90830152614aa6610220850161422c565b908201529392505050565b60006101208284031215614ac457600080fd5b6129ad8383614555565b6000806101408385031215614ae257600080fd5b614aec8484614555565b915061012083015160038110614b0157600080fd5b809150509250929050565b600060208284031215614b1e57600080fd5b5035919050565b600060208284031215614b3757600080fd5b5051919050565b60008060408385031215614b5157600080fd5b823591506020830135614b0181615b79565b600080600060608486031215614b7857600080fd5b833592506020840135614b8a81615b79565b91506040840135614b9a81615b79565b809150509250925092565b600080600060408486031215614bba57600080fd5b83359250602084013567ffffffffffffffff811115614bd857600080fd5b614be4868287016143ce565b9497909650939450505050565b600080600080600060608688031215614c0957600080fd5b85359450602086013567ffffffffffffffff80821115614c2857600080fd5b614c3489838a016143ce565b90965094506040880135915080821115614c4d57600080fd5b50614c5a888289016143ce565b969995985093965092949392505050565b6000806000806000806000806000806103608b8d031215614c8b57600080fd5b8a359950614c9c8c60208d0161452a565b9850614cab8c60a08d01614542565b97506102e08b013596506103008b013567ffffffffffffffff80821115614cd157600080fd5b614cdd8e838f01614373565b90985096506103208d0135915080821115614cf757600080fd5b614d038e838f016142b2565b90965094506103408d0135915080821115614d1d57600080fd5b50614d2a8d828e016143ce565b915080935050809150509295989b9194979a5092959850565b60008060008060008060008060006103808a8c031215614d6257600080fd5b89359850614d738b60208c0161452a565b9750614d828b60a08c01614542565b96506102e08a013595506103008a013567ffffffffffffffff80821115614da857600080fd5b614db48d838e01614373565b90975095506103208c0135915080821115614dce57600080fd5b614dda8d838e016142fe565b94506103408c0135915080821115614df157600080fd5b614dfd8d838e01614237565b93506103608c0135915080821115614e1457600080fd5b50614e218c828d01614410565b9150509295985092959850929598565b60008060408385031215614e4457600080fd5b50508035926020909101359150565b600080600080600080600060c0888a031215614e6e57600080fd5b87359650602088013595506040880135614e8781615b79565b9450606088013567ffffffffffffffff811115614ea357600080fd5b614eaf8a828b016143ce565b9095509350506080880135614ec381615b91565b915060a0880135614ed381615b91565b8091505092959891949750929550565b60008060008060808587031215614ef957600080fd5b84359350602085013592506040850135614f1281615b79565b91506060850135614f2281615b79565b939692955090935050565b8183528181602085013750600060208284010152600060207fffffffffffffffffffffffffffffffffffffffffffffffffffffffffffffffe0601f840116840101905092915050565b6000815180845260005b81811015614f9c57602081850181015186830182015201614f80565b81811115614fae576000602083870101525b50601f017fffffffffffffffffffffffffffffffffffffffffffffffffffffffffffffffe0169290920160200192915050565b614ffa8282518051151582526020908101511515910152565b602081015160408301526040810151606083015260608101516080830152608081015161502b60a084018215159052565b5060a081015180151560c08401525060c081015180151560e08401525060e081015161010061505d8185018315159052565b82015190506101206150728482018315159052565b82015190506101406150878482018315159052565b820151905061016061509c8482018315159052565b82015190506101806150b18482018315159052565b82015190506101a06150c68482018315159052565b82015190506101c06150db8482018315159052565b82015190506101e06150f08482018315159052565b82015190506102006151058482018315159052565b8201516001600160a01b0381166102208501529050505050565b6001600160a01b038316815260406020820152600082357fffffffffffffffffffffffffffffffffffffffffffffffffffffffffffffffe184360301811261516657600080fd5b8301803567ffffffffffffffff81111561517f57600080fd5b80360385131561518e57600080fd5b6040808501526151a5608085018260208501614f2d565b91505060208401356060840152809150509392505050565b60006001600160a01b03808816835286602084015285604084015260a060608401526151ec60a0840186614f76565b91508084166080840152509695505050505050565b610360810161526e8285805182526020810151602083015260408101516040830152606081015160608301526080810151608083015260a081015160a083015260c081015160c08301526001600160a01b0360e08201511660e08301526101008082015181840152505050565b6129ad610120830184614fe1565b61038081016152e98286805182526020810151602083015260408101516040830152606081015160608301526080810151608083015260a081015160a083015260c081015160c08301526001600160a01b0360e08201511660e08301526101008082015181840152505050565b6152f7610120830185614fe1565b6003831061532e577f4e487b7100000000000000000000000000000000000000000000000000000000600052602160045260246000fd5b82610360830152949350505050565b610120810161539e8286805115158252602081015115156020830152604081015160408301526060810151606083015260808101516001600160a01b03808216608085015260a083015160a08501528060c08401511660c085015250505050565b8360e08301526001600160a01b038316610100830152949350505050565b6000604082018483526020604081850152818551808452606086019150828701935060005b818110156142a55784516001600160a01b0316835293830193918301916001016153e1565b848152606060208201526000615420606083018587614f2d565b90506001600160a01b038316604083015295945050505050565b858152606060208201526000615454606083018688614f2d565b8281036040840152615467818587614f2d565b98975050505050505050565b600060e08201905085825284356020830152602085013560408301526040850135606083015260608501356154a781615b79565b6001600160a01b0316608083015260a082019390935260c0015292915050565b60006060808301868452602086818601526040838187015282875180855260808801915060808160051b89010194508389016000805b838110156155de578a88037fffffffffffffffffffffffffffffffffffffffffffffffffffffffffffffff800185528251805189528701518789018790528051878a018190529088019083908b8b01905b808310156155c9576155b3828551805115158252602081015115156020830152604081015160408301526060810151606083015260808101516001600160a01b03808216608085015260a083015160a08501528060c08401511660c085015250505050565b60e0820191508a8401935060018301925061554e565b509950505093860193918601916001016154fd565b50959c9b505050505050505050505050565b858152846020820152608060408201526000615610608083018587614f2d565b90506001600160a01b03831660608301529695505050505050565b86815285602082015260a06040820152600061564b60a083018688614f2d565b90508360608301526001600160a01b0383166080830152979650505050505050565b84815283602082015260806040820152600061568c6080830185614f76565b90506001600160a01b038316606083015295945050505050565b604051610120810167ffffffffffffffff811182821017156156ca576156ca615b4a565b60405290565b6040805190810167ffffffffffffffff811182821017156156ca576156ca615b4a565b60405160e0810167ffffffffffffffff811182821017156156ca576156ca615b4a565b604051610220810167ffffffffffffffff811182821017156156ca576156ca615b4a565b604051601f82017fffffffffffffffffffffffffffffffffffffffffffffffffffffffffffffffe016810167ffffffffffffffff8111828210171561578157615781615b4a565b604052919050565b600067ffffffffffffffff8211156157a3576157a3615b4a565b5060051b60200190565b6000808212827f7fffffffffffffffffffffffffffffffffffffffffffffffffffffffffffffff038413811516156157e7576157e7615abd565b827f800000000000000000000000000000000000000000000000000000000000000003841281161561581b5761581b615abd565b50500190565b6000821982111561583457615834615abd565b500190565b6000808312837f80000000000000000000000000000000000000000000000000000000000000000183128115161561587357615873615abd565b837f7fffffffffffffffffffffffffffffffffffffffffffffffffffffffffffffff0183138116156158a7576158a7615abd565b50500390565b6000828210156158bf576158bf615abd565b500390565b60006158d261425884615789565b808482526020808301925084368760051b870111156158f057600080fd5b60005b87811015615a3f57813567ffffffffffffffff8082111561591357600080fd5b8189019150604080833603121561592957600080fd5b6159316156d0565b83358152868401358381111561594657600080fd5b939093019236601f85011261595a57600080fd5b8335925061596a61425884615789565b8381528781019085890160e03681880289018c01111561598957600080fd5b600097505b86881015615a23578082360312156159a557600080fd5b6159ad6156f3565b82356159b881615b91565b8152828c01356159c781615b91565b818d01528287013587820152606080840135908201526080808401356159ec81615b79565b9082015260a0838101359082015260c080840135615a0981615b79565b90820152845260019790970196928a01929081019061598e565b50508289015250885250505093820193908201906001016158f3565b50919695505050505050565b60007fffffffffffffffffffffffffffffffffffffffffffffffffffffffffffffffff821415615a7d57615a7d615abd565b5060010190565b60007f8000000000000000000000000000000000000000000000000000000000000000821415615ab657615ab6615abd565b5060000390565b7f4e487b7100000000000000000000000000000000000000000000000000000000600052601160045260246000fd5b7f4e487b7100000000000000000000000000000000000000000000000000000000600052601260045260246000fd5b7f4e487b7100000000000000000000000000000000000000000000000000000000600052603260045260246000fd5b7f4e487b7100000000000000000000000000000000000000000000000000000000600052604160045260246000fd5b6001600160a01b0381168114615b8e57600080fd5b50565b8015158114615b8e57600080fdfea2646970667358221220fa982fde3e93747d9cb8438464eac3961e9d1cb9ed1fe4bed3f1802a7fbccb9064736f6c63430008060033",
  "devdoc": {
    "details": "Adheres to - IJBController: General interface for the generic controller methods in this contract that interacts with funding cycles and tokens according to the protocol's rules. IJBMigratable: Allows migrating to this contract, with a hook called to prepare for the migration.Inherits from - JBOperatable: Several functions in this contract can only be accessed by a project owner, or an address that has been preconfifigured to be an operator of the project. ERC165: Introspection on interface adherance. ",
    "kind": "dev",
    "methods": {
      "burnTokensOf(address,uint256,uint256,string,bool)": {
        "details": "Only a token's holder, a designated operator, or a project's terminal can burn it.",
        "params": {
          "_holder": "The account that is having its tokens burned.",
          "_memo": "A memo to pass along to the emitted event.",
          "_preferClaimedTokens": "A flag indicating whether a project's attached token contract should be burned first if they have been issued.",
          "_projectId": "The ID of the project to which the tokens being burned belong.",
          "_tokenCount": "The number of tokens to burn."
        }
      },
      "changeTokenOf(uint256,address,address)": {
        "details": "Only a project's owner or operator can change its token.",
        "params": {
          "_newOwner": "An address to transfer the current token's ownership to. This is optional, but it cannot be done later.",
          "_projectId": "The ID of the project to which the changed token belongs.",
          "_token": "The new token."
        }
      },
      "constructor": {
        "params": {
          "_directory": "A contract storing directories of terminals and controllers for each project.",
          "_fundingCycleStore": "A contract storing all funding cycle configurations.",
          "_operatorStore": "A contract storing operator assignments.",
          "_projects": "A contract which mints ERC-721's that represent project ownership and transfers.",
          "_splitsStore": "A contract that stores splits for each project.",
          "_tokenStore": "A contract that manages token minting and burning."
        }
      },
      "currentFundingCycleOf(uint256)": {
        "params": {
          "_projectId": "The ID of the project to which the funding cycle belongs."
        },
        "returns": {
          "fundingCycle": "The current funding cycle.",
          "metadata": "The current funding cycle's metadata."
        }
      },
      "distributeReservedTokensOf(uint256,string)": {
        "params": {
          "_memo": "A memo to pass along to the emitted event.",
          "_projectId": "The ID of the project to which the reserved tokens belong."
        },
        "returns": {
          "_0": "The amount of minted reserved tokens."
        }
      },
      "distributionLimitOf(uint256,uint256,address,address)": {
        "details": "The number of decimals in the returned fixed point amount is the same as that of the specified terminal. ",
        "params": {
          "_configuration": "The configuration during which the distribution limit applies.",
          "_projectId": "The ID of the project to get the distribution limit of.",
          "_terminal": "The terminal from which distributions are being limited.",
          "_token": "The token for which the distribution limit applies."
        },
        "returns": {
          "_0": "The distribution limit, as a fixed point number with the same number of decimals as the provided terminal.",
          "_1": "The currency of the distribution limit."
        }
      },
      "getFundingCycleOf(uint256,uint256)": {
        "params": {
          "_projectId": "The ID of the project to which the funding cycle belongs."
        },
        "returns": {
          "fundingCycle": "The funding cycle.",
          "metadata": "The funding cycle's metadata."
        }
      },
      "issueTokenFor(uint256,string,string)": {
        "details": "Deploys a project's ERC20 JBToken contract.Only a project's owner or operator can issue its token.",
        "params": {
          "_name": "The ERC20's name.",
          "_projectId": "The ID of the project being issued tokens.",
          "_symbol": "The ERC20's symbol."
        }
      },
      "latestConfiguredFundingCycleOf(uint256)": {
        "params": {
          "_projectId": "The ID of the project to which the funding cycle belongs."
        },
        "returns": {
          "ballotState": "The state of the configuration.",
          "fundingCycle": "The latest configured funding cycle.",
          "metadata": "The latest configured funding cycle's metadata."
        }
      },
      "launchFundingCyclesFor(uint256,(uint256,uint256,uint256,address),((bool,bool),uint256,uint256,uint256,bool,bool,bool,bool,bool,bool,bool,bool,bool,bool,bool,bool,address),uint256,(uint256,(bool,bool,uint256,uint256,address,uint256,address)[])[],(address,address,uint256,uint256,uint256,uint256)[],address[],string)": {
        "details": "Each operation within this transaction can be done in sequence separately.Only a project owner or operator can launch its funding cycles.",
        "params": {
          "_data": "Data that defines the project's first funding cycle. These properties will remain fixed for the duration of the funding cycle.",
          "_fundAccessConstraints": "An array containing amounts that a project can use from its treasury for each payment terminal. Amounts are fixed point numbers using the same number of decimals as the accompanying terminal. The `_distributionLimit` and `_overflowAllowance` parameters must fit in a `uint232`.",
          "_groupedSplits": "An array of splits to set for any number of groups. ",
          "_memo": "A memo to pass along to the emitted event.",
          "_metadata": "Metadata specifying the controller specific params that a funding cycle can have. These properties will remain fixed for the duration of the funding cycle.",
          "_mustStartAtOrAfter": "The time before which the configured funding cycle cannot start.",
          "_projectId": "The ID of the project to launch funding cycles for.",
          "_terminals": "Payment terminals to add for the project."
        },
        "returns": {
          "configuration": "The configuration of the funding cycle that was successfully created."
        }
      },
      "launchProjectFor(address,(string,uint256),(uint256,uint256,uint256,address),((bool,bool),uint256,uint256,uint256,bool,bool,bool,bool,bool,bool,bool,bool,bool,bool,bool,bool,address),uint256,(uint256,(bool,bool,uint256,uint256,address,uint256,address)[])[],(address,address,uint256,uint256,uint256,uint256)[],address[],string)": {
        "details": "Each operation within this transaction can be done in sequence separately.Anyone can deploy a project on an owner's behalf.",
        "params": {
          "_data": "Data that defines the project's first funding cycle. These properties will remain fixed for the duration of the funding cycle.",
          "_fundAccessConstraints": "An array containing amounts that a project can use from its treasury for each payment terminal. Amounts are fixed point numbers using the same number of decimals as the accompanying terminal. The `_distributionLimit` and `_overflowAllowance` parameters must fit in a `uint232`.",
          "_groupedSplits": "An array of splits to set for any number of groups. ",
          "_memo": "A memo to pass along to the emitted event.",
          "_metadata": "Metadata specifying the controller specific params that a funding cycle can have. These properties will remain fixed for the duration of the funding cycle.",
          "_mustStartAtOrAfter": "The time before which the configured funding cycle cannot start.",
          "_owner": "The address to set as the owner of the project. The project ERC-721 will be owned by this address.",
          "_projectMetadata": "Metadata to associate with the project within a particular domain. This can be updated any time by the owner of the project.",
          "_terminals": "Payment terminals to add for the project."
        },
        "returns": {
          "projectId": "The ID of the project."
        }
      },
      "migrate(uint256,address)": {
        "details": "Only a project's owner or a designated operator can migrate it.",
        "params": {
          "_projectId": "The ID of the project that will be migrated from this controller.",
          "_to": "The controller to which the project is migrating."
        }
      },
      "mintTokensOf(uint256,uint256,address,string,bool,bool)": {
        "details": "Only a project's owner, a designated operator, one of its terminals, or the current data source can mint its tokens.",
        "params": {
          "_beneficiary": "The account that the tokens are being minted for.",
          "_memo": "A memo to pass along to the emitted event.",
          "_preferClaimedTokens": "A flag indicating whether a project's attached token contract should be minted if they have been issued.",
          "_projectId": "The ID of the project to which the tokens being minted belong.",
          "_tokenCount": "The amount of tokens to mint in total, counting however many should be reserved.",
          "_useReservedRate": "Whether to use the current funding cycle's reserved rate in the mint calculation."
        },
        "returns": {
          "beneficiaryTokenCount": "The amount of tokens minted for the beneficiary."
        }
      },
      "overflowAllowanceOf(uint256,uint256,address,address)": {
        "details": "The number of decimals in the returned fixed point amount is the same as that of the specified terminal. ",
        "params": {
          "_configuration": "The configuration of the during which the allowance applies.",
          "_projectId": "The ID of the project to get the overflow allowance of.",
          "_terminal": "The terminal managing the overflow.",
          "_token": "The token for which the overflow allowance applies."
        },
        "returns": {
          "_0": "The overflow allowance, as a fixed point number with the same number of decimals as the provided terminal.",
          "_1": "The currency of the overflow allowance."
        }
      },
      "prepForMigrationOf(uint256,address)": {
        "details": "This controller should not yet be the project's controller.",
        "params": {
          "_from": "The controller being migrated from.",
          "_projectId": "The ID of the project that will be migrated to this controller."
        }
      },
      "queuedFundingCycleOf(uint256)": {
        "params": {
          "_projectId": "The ID of the project to which the funding cycle belongs."
        },
        "returns": {
          "fundingCycle": "The queued funding cycle.",
          "metadata": "The queued funding cycle's metadata."
        }
      },
      "reconfigureFundingCyclesOf(uint256,(uint256,uint256,uint256,address),((bool,bool),uint256,uint256,uint256,bool,bool,bool,bool,bool,bool,bool,bool,bool,bool,bool,bool,address),uint256,(uint256,(bool,bool,uint256,uint256,address,uint256,address)[])[],(address,address,uint256,uint256,uint256,uint256)[],string)": {
        "details": "Only a project's owner or a designated operator can configure its funding cycles.",
        "params": {
          "_data": "Data that defines the funding cycle. These properties will remain fixed for the duration of the funding cycle.",
          "_fundAccessConstraints": "An array containing amounts that a project can use from its treasury for each payment terminal. Amounts are fixed point numbers using the same number of decimals as the accompanying terminal. The `_distributionLimit` and `_overflowAllowance` parameters must fit in a `uint232`.",
          "_groupedSplits": "An array of splits to set for any number of groups. ",
          "_memo": "A memo to pass along to the emitted event.",
          "_metadata": "Metadata specifying the controller specific params that a funding cycle can have. These properties will remain fixed for the duration of the funding cycle.",
          "_mustStartAtOrAfter": "The time before which the configured funding cycle cannot start.",
          "_projectId": "The ID of the project whose funding cycles are being reconfigured."
        },
        "returns": {
          "configuration": "The configuration of the funding cycle that was successfully reconfigured."
        }
      },
      "reservedTokenBalanceOf(uint256,uint256)": {
        "params": {
          "_projectId": "The ID of the project to get a reserved token balance of.",
          "_reservedRate": "The reserved rate to use when making the calculation."
        },
        "returns": {
          "_0": "The current amount of reserved tokens."
        }
      },
      "supportsInterface(bytes4)": {
        "details": " See {IERC165-supportsInterface}.",
        "params": {
          "_interfaceId": "The ID of the interface to check for adherance to."
        }
      },
      "totalOutstandingTokensOf(uint256,uint256)": {
        "params": {
          "_projectId": "The ID of the project to get total outstanding tokens of.",
          "_reservedRate": "The reserved rate to use when making the calculation."
        },
        "returns": {
          "_0": "The current total amount of outstanding tokens for the project."
        }
      }
    },
    "stateVariables": {
      "_packedDistributionLimitDataOf": {
        "details": "bits 0-231: The amount of token that a project can distribute per funding cycle.bits 232-255: The currency of amount that a project can distribute. _projectId The ID of the project to get the packed distribution limit data of. _configuration The configuration during which the packed distribution limit data applies. _terminal The terminal from which distributions are being limited. _token The token for which distributions are being limited."
      },
      "_packedOverflowAllowanceDataOf": {
        "details": "bits 0-231: The amount of overflow that a project is allowed to tap into on-demand throughout the configuration.bits 232-255: The currency of the amount of overflow that a project is allowed to tap. _projectId The ID of the project to get the packed overflow allowance data of. _configuration The configuration during which the packed overflow allowance data applies. _terminal The terminal managing the overflow. _token The token for which overflow is being allowed."
      }
    },
    "version": 1
  },
  "userdoc": {
    "errors": {
      "PRBMath__MulDivOverflow(uint256,uint256)": [
        {
          "notice": "Emitted when the result overflows uint256."
        }
      ]
    },
    "kind": "user",
    "methods": {
      "burnTokensOf(address,uint256,uint256,string,bool)": {
        "notice": "Burns a token holder's supply."
      },
      "changeTokenOf(uint256,address,address)": {
        "notice": "Swap the current project's token that is minted and burned for another, and transfer ownership of the current token to another address if needed."
      },
      "currentFundingCycleOf(uint256)": {
        "notice": "A project's current funding cycle along with its metadata."
      },
      "directory()": {
        "notice": "The directory of terminals and controllers for projects."
      },
      "distributeReservedTokensOf(uint256,string)": {
        "notice": "Distributes all outstanding reserved tokens for a project."
      },
      "distributionLimitOf(uint256,uint256,address,address)": {
        "notice": "The amount of token that a project can distribute per funding cycle, and the currency it's in terms of."
      },
      "fundingCycleStore()": {
        "notice": "The contract storing all funding cycle configurations."
      },
      "getFundingCycleOf(uint256,uint256)": {
        "notice": "A project's funding cycle for the specified configuration along with its metadata."
      },
      "issueTokenFor(uint256,string,string)": {
        "notice": "Issues an owner's ERC20 JBTokens that'll be used when claiming tokens."
      },
      "latestConfiguredFundingCycleOf(uint256)": {
        "notice": "A project's latest configured funding cycle along with its metadata and the ballot state of the configuration."
      },
      "launchFundingCyclesFor(uint256,(uint256,uint256,uint256,address),((bool,bool),uint256,uint256,uint256,bool,bool,bool,bool,bool,bool,bool,bool,bool,bool,bool,bool,address),uint256,(uint256,(bool,bool,uint256,uint256,address,uint256,address)[])[],(address,address,uint256,uint256,uint256,uint256)[],address[],string)": {
        "notice": "Creates a funding cycle for an already existing project ERC-721."
      },
      "launchProjectFor(address,(string,uint256),(uint256,uint256,uint256,address),((bool,bool),uint256,uint256,uint256,bool,bool,bool,bool,bool,bool,bool,bool,bool,bool,bool,bool,address),uint256,(uint256,(bool,bool,uint256,uint256,address,uint256,address)[])[],(address,address,uint256,uint256,uint256,uint256)[],address[],string)": {
        "notice": "Creates a project. This will mint an ERC-721 into the specified owner's account, configure a first funding cycle, and set up any splits."
      },
      "migrate(uint256,address)": {
        "notice": "Allows a project to migrate from this controller to another."
      },
      "mintTokensOf(uint256,uint256,address,string,bool,bool)": {
        "notice": "Mint new token supply into an account, and optionally reserve a supply to be distributed according to the project's current funding cycle configuration."
      },
      "operatorStore()": {
        "notice": " A contract storing operator assignments."
      },
      "overflowAllowanceOf(uint256,uint256,address,address)": {
        "notice": "The amount of overflow that a project is allowed to tap into on-demand throughout a configuration, and the currency it's in terms of."
      },
      "prepForMigrationOf(uint256,address)": {
        "notice": "Allows other controllers to signal to this one that a migration is expected for the specified project."
      },
      "projects()": {
        "notice": "Mints ERC-721's that represent project ownership."
      },
      "queuedFundingCycleOf(uint256)": {
        "notice": "A project's queued funding cycle along with its metadata."
      },
      "reconfigureFundingCyclesOf(uint256,(uint256,uint256,uint256,address),((bool,bool),uint256,uint256,uint256,bool,bool,bool,bool,bool,bool,bool,bool,bool,bool,bool,bool,address),uint256,(uint256,(bool,bool,uint256,uint256,address,uint256,address)[])[],(address,address,uint256,uint256,uint256,uint256)[],string)": {
        "notice": "Proposes a configuration of a subsequent funding cycle that will take effect once the current one expires if it is approved by the current funding cycle's ballot."
      },
      "reservedTokenBalanceOf(uint256,uint256)": {
        "notice": "Gets the amount of reserved tokens that a project has available to distribute."
      },
      "splitsStore()": {
        "notice": "The contract that stores splits for each project."
      },
      "supportsInterface(bytes4)": {
        "notice": "Indicates if this contract adheres to the specified interface."
      },
      "tokenStore()": {
        "notice": "The contract that manages token minting and burning."
      },
      "totalOutstandingTokensOf(uint256,uint256)": {
        "notice": "Gets the current total amount of outstanding tokens for a project, given a reserved rate."
      }
    },
    "notice": "Stitches together funding cycles and community tokens, making sure all activity is accounted for and correct.",
    "version": 1
  },
  "storageLayout": {
    "storage": [
      {
        "astId": 4718,
        "contract": "contracts/JBController.sol:JBController",
        "label": "_processedTokenTrackerOf",
        "offset": 0,
        "slot": "0",
        "type": "t_mapping(t_uint256,t_int256)"
      },
      {
        "astId": 4730,
        "contract": "contracts/JBController.sol:JBController",
        "label": "_packedDistributionLimitDataOf",
        "offset": 0,
        "slot": "1",
        "type": "t_mapping(t_uint256,t_mapping(t_uint256,t_mapping(t_contract(IJBPaymentTerminal)17954,t_mapping(t_address,t_uint256))))"
      },
      {
        "astId": 4742,
        "contract": "contracts/JBController.sol:JBController",
        "label": "_packedOverflowAllowanceDataOf",
        "offset": 0,
        "slot": "2",
        "type": "t_mapping(t_uint256,t_mapping(t_uint256,t_mapping(t_contract(IJBPaymentTerminal)17954,t_mapping(t_address,t_uint256))))"
      }
    ],
    "types": {
      "t_address": {
        "encoding": "inplace",
        "label": "address",
        "numberOfBytes": "20"
      },
      "t_contract(IJBPaymentTerminal)17954": {
        "encoding": "inplace",
        "label": "contract IJBPaymentTerminal",
        "numberOfBytes": "20"
      },
      "t_int256": {
        "encoding": "inplace",
        "label": "int256",
        "numberOfBytes": "32"
      },
      "t_mapping(t_address,t_uint256)": {
        "encoding": "mapping",
        "key": "t_address",
        "label": "mapping(address => uint256)",
        "numberOfBytes": "32",
        "value": "t_uint256"
      },
      "t_mapping(t_contract(IJBPaymentTerminal)17954,t_mapping(t_address,t_uint256))": {
        "encoding": "mapping",
        "key": "t_contract(IJBPaymentTerminal)17954",
        "label": "mapping(contract IJBPaymentTerminal => mapping(address => uint256))",
        "numberOfBytes": "32",
        "value": "t_mapping(t_address,t_uint256)"
      },
      "t_mapping(t_uint256,t_int256)": {
        "encoding": "mapping",
        "key": "t_uint256",
        "label": "mapping(uint256 => int256)",
        "numberOfBytes": "32",
        "value": "t_int256"
      },
      "t_mapping(t_uint256,t_mapping(t_contract(IJBPaymentTerminal)17954,t_mapping(t_address,t_uint256)))": {
        "encoding": "mapping",
        "key": "t_uint256",
        "label": "mapping(uint256 => mapping(contract IJBPaymentTerminal => mapping(address => uint256)))",
        "numberOfBytes": "32",
        "value": "t_mapping(t_contract(IJBPaymentTerminal)17954,t_mapping(t_address,t_uint256))"
      },
      "t_mapping(t_uint256,t_mapping(t_uint256,t_mapping(t_contract(IJBPaymentTerminal)17954,t_mapping(t_address,t_uint256))))": {
        "encoding": "mapping",
        "key": "t_uint256",
        "label": "mapping(uint256 => mapping(uint256 => mapping(contract IJBPaymentTerminal => mapping(address => uint256))))",
        "numberOfBytes": "32",
        "value": "t_mapping(t_uint256,t_mapping(t_contract(IJBPaymentTerminal)17954,t_mapping(t_address,t_uint256)))"
      },
      "t_uint256": {
        "encoding": "inplace",
        "label": "uint256",
        "numberOfBytes": "32"
      }
    }
  }
}