{
  "address": "0x765A8b9a23F58Db6c8849315C04ACf32b2D55cF8",
  "abi": [
    {
      "inputs": [
        {
          "internalType": "uint256",
          "name": "_baseWeightCurrency",
          "type": "uint256"
        },
        {
          "internalType": "contract IJBOperatorStore",
          "name": "_operatorStore",
          "type": "address"
        },
        {
          "internalType": "contract IJBProjects",
          "name": "_projects",
          "type": "address"
        },
        {
          "internalType": "contract IJBDirectory",
          "name": "_directory",
          "type": "address"
        },
        {
          "internalType": "contract IJBSplitsStore",
          "name": "_splitsStore",
          "type": "address"
        },
        {
          "internalType": "contract IJBPrices",
          "name": "_prices",
          "type": "address"
        },
        {
          "internalType": "contract IJBSingleTokenPaymentTerminalStore",
          "name": "_store",
          "type": "address"
        },
        {
          "internalType": "address",
          "name": "_owner",
          "type": "address"
        }
      ],
      "stateMutability": "nonpayable",
      "type": "constructor"
    },
    {
      "inputs": [],
      "name": "FEE_TOO_HIGH",
      "type": "error"
    },
    {
      "inputs": [],
      "name": "INADEQUATE_DISTRIBUTION_AMOUNT",
      "type": "error"
    },
    {
      "inputs": [],
      "name": "INADEQUATE_RECLAIM_AMOUNT",
      "type": "error"
    },
    {
      "inputs": [],
      "name": "INADEQUATE_TOKEN_COUNT",
      "type": "error"
    },
    {
      "inputs": [],
      "name": "NO_MSG_VALUE_ALLOWED",
      "type": "error"
    },
    {
      "inputs": [],
      "name": "PAY_TO_ZERO_ADDRESS",
      "type": "error"
    },
    {
      "inputs": [
        {
          "internalType": "uint256",
          "name": "prod1",
          "type": "uint256"
        },
        {
          "internalType": "uint256",
          "name": "denominator",
          "type": "uint256"
        }
      ],
      "name": "PRBMath__MulDivOverflow",
      "type": "error"
    },
    {
      "inputs": [],
      "name": "PROJECT_TERMINAL_MISMATCH",
      "type": "error"
    },
    {
      "inputs": [],
      "name": "REDEEM_TO_ZERO_ADDRESS",
      "type": "error"
    },
    {
      "inputs": [],
      "name": "TERMINAL_IN_SPLIT_ZERO_ADDRESS",
      "type": "error"
    },
    {
      "inputs": [],
      "name": "TERMINAL_TOKENS_INCOMPATIBLE",
      "type": "error"
    },
    {
      "inputs": [],
      "name": "UNAUTHORIZED",
      "type": "error"
    },
    {
      "anonymous": false,
      "inputs": [
        {
          "indexed": true,
          "internalType": "uint256",
          "name": "projectId",
          "type": "uint256"
        },
        {
          "indexed": false,
          "internalType": "uint256",
          "name": "amount",
          "type": "uint256"
        },
        {
          "indexed": false,
          "internalType": "uint256",
          "name": "refundedFees",
          "type": "uint256"
        },
        {
          "indexed": false,
          "internalType": "string",
          "name": "memo",
          "type": "string"
        },
        {
          "indexed": false,
          "internalType": "bytes",
          "name": "metadata",
          "type": "bytes"
        },
        {
          "indexed": false,
          "internalType": "address",
          "name": "caller",
          "type": "address"
        }
      ],
      "name": "AddToBalance",
      "type": "event"
    },
    {
      "anonymous": false,
      "inputs": [
        {
          "indexed": true,
          "internalType": "contract IJBPayDelegate",
          "name": "delegate",
          "type": "address"
        },
        {
          "components": [
            {
              "internalType": "address",
              "name": "payer",
              "type": "address"
            },
            {
              "internalType": "uint256",
              "name": "projectId",
              "type": "uint256"
            },
            {
              "internalType": "uint256",
              "name": "currentFundingCycleConfiguration",
              "type": "uint256"
            },
            {
              "components": [
                {
                  "internalType": "address",
                  "name": "token",
                  "type": "address"
                },
                {
                  "internalType": "uint256",
                  "name": "value",
                  "type": "uint256"
                },
                {
                  "internalType": "uint256",
                  "name": "decimals",
                  "type": "uint256"
                },
                {
                  "internalType": "uint256",
                  "name": "currency",
                  "type": "uint256"
                }
              ],
              "internalType": "struct JBTokenAmount",
              "name": "amount",
              "type": "tuple"
            },
            {
              "internalType": "uint256",
              "name": "projectTokenCount",
              "type": "uint256"
            },
            {
              "internalType": "address",
              "name": "beneficiary",
              "type": "address"
            },
            {
              "internalType": "bool",
              "name": "preferClaimedTokens",
              "type": "bool"
            },
            {
              "internalType": "string",
              "name": "memo",
              "type": "string"
            },
            {
              "internalType": "bytes",
              "name": "metadata",
              "type": "bytes"
            }
          ],
          "indexed": false,
          "internalType": "struct JBDidPayData",
          "name": "data",
          "type": "tuple"
        },
        {
          "indexed": false,
          "internalType": "address",
          "name": "caller",
          "type": "address"
        }
      ],
      "name": "DelegateDidPay",
      "type": "event"
    },
    {
      "anonymous": false,
      "inputs": [
        {
          "indexed": true,
          "internalType": "contract IJBRedemptionDelegate",
          "name": "delegate",
          "type": "address"
        },
        {
          "components": [
            {
              "internalType": "address",
              "name": "holder",
              "type": "address"
            },
            {
              "internalType": "uint256",
              "name": "projectId",
              "type": "uint256"
            },
            {
              "internalType": "uint256",
              "name": "currentFundingCycleConfiguration",
              "type": "uint256"
            },
            {
              "internalType": "uint256",
              "name": "projectTokenCount",
              "type": "uint256"
            },
            {
              "components": [
                {
                  "internalType": "address",
                  "name": "token",
                  "type": "address"
                },
                {
                  "internalType": "uint256",
                  "name": "value",
                  "type": "uint256"
                },
                {
                  "internalType": "uint256",
                  "name": "decimals",
                  "type": "uint256"
                },
                {
                  "internalType": "uint256",
                  "name": "currency",
                  "type": "uint256"
                }
              ],
              "internalType": "struct JBTokenAmount",
              "name": "reclaimedAmount",
              "type": "tuple"
            },
            {
              "internalType": "address payable",
              "name": "beneficiary",
              "type": "address"
            },
            {
              "internalType": "string",
              "name": "memo",
              "type": "string"
            },
            {
              "internalType": "bytes",
              "name": "metadata",
              "type": "bytes"
            }
          ],
          "indexed": false,
          "internalType": "struct JBDidRedeemData",
          "name": "data",
          "type": "tuple"
        },
        {
          "indexed": false,
          "internalType": "address",
          "name": "caller",
          "type": "address"
        }
      ],
      "name": "DelegateDidRedeem",
      "type": "event"
    },
    {
      "anonymous": false,
      "inputs": [
        {
          "indexed": true,
          "internalType": "uint256",
          "name": "fundingCycleConfiguration",
          "type": "uint256"
        },
        {
          "indexed": true,
          "internalType": "uint256",
          "name": "fundingCycleNumber",
          "type": "uint256"
        },
        {
          "indexed": true,
          "internalType": "uint256",
          "name": "projectId",
          "type": "uint256"
        },
        {
          "indexed": false,
          "internalType": "address",
          "name": "beneficiary",
          "type": "address"
        },
        {
          "indexed": false,
          "internalType": "uint256",
          "name": "amount",
          "type": "uint256"
        },
        {
          "indexed": false,
          "internalType": "uint256",
          "name": "distributedAmount",
          "type": "uint256"
        },
        {
          "indexed": false,
          "internalType": "uint256",
          "name": "fee",
          "type": "uint256"
        },
        {
          "indexed": false,
          "internalType": "uint256",
          "name": "beneficiaryDistributionAmount",
          "type": "uint256"
        },
        {
          "indexed": false,
          "internalType": "string",
          "name": "memo",
          "type": "string"
        },
        {
          "indexed": false,
          "internalType": "address",
          "name": "caller",
          "type": "address"
        }
      ],
      "name": "DistributePayouts",
      "type": "event"
    },
    {
      "anonymous": false,
      "inputs": [
        {
          "indexed": true,
          "internalType": "uint256",
          "name": "projectId",
          "type": "uint256"
        },
        {
          "indexed": true,
          "internalType": "uint256",
          "name": "domain",
          "type": "uint256"
        },
        {
          "indexed": true,
          "internalType": "uint256",
          "name": "group",
          "type": "uint256"
        },
        {
          "components": [
            {
              "internalType": "bool",
              "name": "preferClaimed",
              "type": "bool"
            },
            {
              "internalType": "bool",
              "name": "preferAddToBalance",
              "type": "bool"
            },
            {
              "internalType": "uint256",
              "name": "percent",
              "type": "uint256"
            },
            {
              "internalType": "uint256",
              "name": "projectId",
              "type": "uint256"
            },
            {
              "internalType": "address payable",
              "name": "beneficiary",
              "type": "address"
            },
            {
              "internalType": "uint256",
              "name": "lockedUntil",
              "type": "uint256"
            },
            {
              "internalType": "contract IJBSplitAllocator",
              "name": "allocator",
              "type": "address"
            }
          ],
          "indexed": false,
          "internalType": "struct JBSplit",
          "name": "split",
          "type": "tuple"
        },
        {
          "indexed": false,
          "internalType": "uint256",
          "name": "amount",
          "type": "uint256"
        },
        {
          "indexed": false,
          "internalType": "address",
          "name": "caller",
          "type": "address"
        }
      ],
      "name": "DistributeToPayoutSplit",
      "type": "event"
    },
    {
      "anonymous": false,
      "inputs": [
        {
          "indexed": true,
          "internalType": "uint256",
          "name": "projectId",
          "type": "uint256"
        },
        {
          "indexed": true,
          "internalType": "uint256",
          "name": "amount",
          "type": "uint256"
        },
        {
          "indexed": true,
          "internalType": "uint256",
          "name": "fee",
          "type": "uint256"
        },
        {
          "indexed": false,
          "internalType": "uint256",
          "name": "feeDiscount",
          "type": "uint256"
        },
        {
          "indexed": false,
          "internalType": "address",
          "name": "beneficiary",
          "type": "address"
        },
        {
          "indexed": false,
          "internalType": "address",
          "name": "caller",
          "type": "address"
        }
      ],
      "name": "HoldFee",
      "type": "event"
    },
    {
      "anonymous": false,
      "inputs": [
        {
          "indexed": true,
          "internalType": "uint256",
          "name": "projectId",
          "type": "uint256"
        },
        {
          "indexed": true,
          "internalType": "contract IJBPaymentTerminal",
          "name": "to",
          "type": "address"
        },
        {
          "indexed": false,
          "internalType": "uint256",
          "name": "amount",
          "type": "uint256"
        },
        {
          "indexed": false,
          "internalType": "address",
          "name": "caller",
          "type": "address"
        }
      ],
      "name": "Migrate",
      "type": "event"
    },
    {
      "anonymous": false,
      "inputs": [
        {
          "indexed": true,
          "internalType": "address",
          "name": "previousOwner",
          "type": "address"
        },
        {
          "indexed": true,
          "internalType": "address",
          "name": "newOwner",
          "type": "address"
        }
      ],
      "name": "OwnershipTransferred",
      "type": "event"
    },
    {
      "anonymous": false,
      "inputs": [
        {
          "indexed": true,
          "internalType": "uint256",
          "name": "fundingCycleConfiguration",
          "type": "uint256"
        },
        {
          "indexed": true,
          "internalType": "uint256",
          "name": "fundingCycleNumber",
          "type": "uint256"
        },
        {
          "indexed": true,
          "internalType": "uint256",
          "name": "projectId",
          "type": "uint256"
        },
        {
          "indexed": false,
          "internalType": "address",
          "name": "payer",
          "type": "address"
        },
        {
          "indexed": false,
          "internalType": "address",
          "name": "beneficiary",
          "type": "address"
        },
        {
          "indexed": false,
          "internalType": "uint256",
          "name": "amount",
          "type": "uint256"
        },
        {
          "indexed": false,
          "internalType": "uint256",
          "name": "beneficiaryTokenCount",
          "type": "uint256"
        },
        {
          "indexed": false,
          "internalType": "string",
          "name": "memo",
          "type": "string"
        },
        {
          "indexed": false,
          "internalType": "bytes",
          "name": "metadata",
          "type": "bytes"
        },
        {
          "indexed": false,
          "internalType": "address",
          "name": "caller",
          "type": "address"
        }
      ],
      "name": "Pay",
      "type": "event"
    },
    {
      "anonymous": false,
      "inputs": [
        {
          "indexed": true,
          "internalType": "uint256",
          "name": "projectId",
          "type": "uint256"
        },
        {
          "indexed": true,
          "internalType": "uint256",
          "name": "amount",
          "type": "uint256"
        },
        {
          "indexed": true,
          "internalType": "bool",
          "name": "wasHeld",
          "type": "bool"
        },
        {
          "indexed": false,
          "internalType": "address",
          "name": "beneficiary",
          "type": "address"
        },
        {
          "indexed": false,
          "internalType": "address",
          "name": "caller",
          "type": "address"
        }
      ],
      "name": "ProcessFee",
      "type": "event"
    },
    {
      "anonymous": false,
      "inputs": [
        {
          "indexed": true,
          "internalType": "uint256",
          "name": "fundingCycleConfiguration",
          "type": "uint256"
        },
        {
          "indexed": true,
          "internalType": "uint256",
          "name": "fundingCycleNumber",
          "type": "uint256"
        },
        {
          "indexed": true,
          "internalType": "uint256",
          "name": "projectId",
          "type": "uint256"
        },
        {
          "indexed": false,
          "internalType": "address",
          "name": "holder",
          "type": "address"
        },
        {
          "indexed": false,
          "internalType": "address",
          "name": "beneficiary",
          "type": "address"
        },
        {
          "indexed": false,
          "internalType": "uint256",
          "name": "tokenCount",
          "type": "uint256"
        },
        {
          "indexed": false,
          "internalType": "uint256",
          "name": "reclaimedAmount",
          "type": "uint256"
        },
        {
          "indexed": false,
          "internalType": "string",
          "name": "memo",
          "type": "string"
        },
        {
          "indexed": false,
          "internalType": "bytes",
          "name": "metadata",
          "type": "bytes"
        },
        {
          "indexed": false,
          "internalType": "address",
          "name": "caller",
          "type": "address"
        }
      ],
      "name": "RedeemTokens",
      "type": "event"
    },
    {
      "anonymous": false,
      "inputs": [
        {
          "indexed": true,
          "internalType": "uint256",
          "name": "projectId",
          "type": "uint256"
        },
        {
          "indexed": true,
          "internalType": "uint256",
          "name": "amount",
          "type": "uint256"
        },
        {
          "indexed": true,
          "internalType": "uint256",
          "name": "refundedFees",
          "type": "uint256"
        },
        {
          "indexed": false,
          "internalType": "uint256",
          "name": "leftoverAmount",
          "type": "uint256"
        },
        {
          "indexed": false,
          "internalType": "address",
          "name": "caller",
          "type": "address"
        }
      ],
      "name": "RefundHeldFees",
      "type": "event"
    },
    {
      "anonymous": false,
      "inputs": [
        {
          "indexed": false,
          "internalType": "uint256",
          "name": "fee",
          "type": "uint256"
        },
        {
          "indexed": false,
          "internalType": "address",
          "name": "caller",
          "type": "address"
        }
      ],
      "name": "SetFee",
      "type": "event"
    },
    {
      "anonymous": false,
      "inputs": [
        {
          "indexed": true,
          "internalType": "contract IJBFeeGauge",
          "name": "feeGauge",
          "type": "address"
        },
        {
          "indexed": false,
          "internalType": "address",
          "name": "caller",
          "type": "address"
        }
      ],
      "name": "SetFeeGauge",
      "type": "event"
    },
    {
      "anonymous": false,
      "inputs": [
        {
          "indexed": true,
          "internalType": "address",
          "name": "addrs",
          "type": "address"
        },
        {
          "indexed": true,
          "internalType": "bool",
          "name": "flag",
          "type": "bool"
        },
        {
          "indexed": false,
          "internalType": "address",
          "name": "caller",
          "type": "address"
        }
      ],
      "name": "SetFeelessAddress",
      "type": "event"
    },
    {
      "anonymous": false,
      "inputs": [
        {
          "indexed": true,
          "internalType": "uint256",
          "name": "fundingCycleConfiguration",
          "type": "uint256"
        },
        {
          "indexed": true,
          "internalType": "uint256",
          "name": "fundingCycleNumber",
          "type": "uint256"
        },
        {
          "indexed": true,
          "internalType": "uint256",
          "name": "projectId",
          "type": "uint256"
        },
        {
          "indexed": false,
          "internalType": "address",
          "name": "beneficiary",
          "type": "address"
        },
        {
          "indexed": false,
          "internalType": "uint256",
          "name": "amount",
          "type": "uint256"
        },
        {
          "indexed": false,
          "internalType": "uint256",
          "name": "distributedAmount",
          "type": "uint256"
        },
        {
          "indexed": false,
          "internalType": "uint256",
          "name": "netDistributedamount",
          "type": "uint256"
        },
        {
          "indexed": false,
          "internalType": "string",
          "name": "memo",
          "type": "string"
        },
        {
          "indexed": false,
          "internalType": "address",
          "name": "caller",
          "type": "address"
        }
      ],
      "name": "UseAllowance",
      "type": "event"
    },
    {
      "inputs": [
        {
          "internalType": "address",
          "name": "_token",
          "type": "address"
        },
        {
          "internalType": "uint256",
          "name": "_projectId",
          "type": "uint256"
        }
      ],
      "name": "acceptsToken",
      "outputs": [
        {
          "internalType": "bool",
          "name": "",
          "type": "bool"
        }
      ],
      "stateMutability": "view",
      "type": "function"
    },
    {
      "inputs": [
        {
          "internalType": "uint256",
          "name": "_projectId",
          "type": "uint256"
        },
        {
          "internalType": "uint256",
          "name": "_amount",
          "type": "uint256"
        },
        {
          "internalType": "address",
          "name": "_token",
          "type": "address"
        },
        {
          "internalType": "string",
          "name": "_memo",
          "type": "string"
        },
        {
          "internalType": "bytes",
          "name": "_metadata",
          "type": "bytes"
        }
      ],
      "name": "addToBalanceOf",
      "outputs": [],
      "stateMutability": "payable",
      "type": "function"
    },
    {
      "inputs": [],
      "name": "baseWeightCurrency",
      "outputs": [
        {
          "internalType": "uint256",
          "name": "",
          "type": "uint256"
        }
      ],
      "stateMutability": "view",
      "type": "function"
    },
    {
      "inputs": [],
      "name": "currency",
      "outputs": [
        {
          "internalType": "uint256",
          "name": "",
          "type": "uint256"
        }
      ],
      "stateMutability": "view",
      "type": "function"
    },
    {
      "inputs": [
        {
          "internalType": "address",
          "name": "_token",
          "type": "address"
        }
      ],
      "name": "currencyForToken",
      "outputs": [
        {
          "internalType": "uint256",
          "name": "",
          "type": "uint256"
        }
      ],
      "stateMutability": "view",
      "type": "function"
    },
    {
      "inputs": [
        {
          "internalType": "uint256",
          "name": "_projectId",
          "type": "uint256"
        }
      ],
      "name": "currentEthOverflowOf",
      "outputs": [
        {
          "internalType": "uint256",
          "name": "",
          "type": "uint256"
        }
      ],
      "stateMutability": "view",
      "type": "function"
    },
    {
      "inputs": [],
      "name": "decimals",
      "outputs": [
        {
          "internalType": "uint256",
          "name": "",
          "type": "uint256"
        }
      ],
      "stateMutability": "view",
      "type": "function"
    },
    {
      "inputs": [
        {
          "internalType": "address",
          "name": "_token",
          "type": "address"
        }
      ],
      "name": "decimalsForToken",
      "outputs": [
        {
          "internalType": "uint256",
          "name": "",
          "type": "uint256"
        }
      ],
      "stateMutability": "view",
      "type": "function"
    },
    {
      "inputs": [],
      "name": "directory",
      "outputs": [
        {
          "internalType": "contract IJBDirectory",
          "name": "",
          "type": "address"
        }
      ],
      "stateMutability": "view",
      "type": "function"
    },
    {
      "inputs": [
        {
          "internalType": "uint256",
          "name": "_projectId",
          "type": "uint256"
        },
        {
          "internalType": "uint256",
          "name": "_amount",
          "type": "uint256"
        },
        {
          "internalType": "uint256",
          "name": "_currency",
          "type": "uint256"
        },
        {
          "internalType": "address",
          "name": "_token",
          "type": "address"
        },
        {
          "internalType": "uint256",
          "name": "_minReturnedTokens",
          "type": "uint256"
        },
        {
          "internalType": "string",
          "name": "_memo",
          "type": "string"
        }
      ],
      "name": "distributePayoutsOf",
      "outputs": [
        {
          "internalType": "uint256",
          "name": "netLeftoverDistributionAmount",
          "type": "uint256"
        }
      ],
      "stateMutability": "nonpayable",
      "type": "function"
    },
    {
      "inputs": [],
      "name": "fee",
      "outputs": [
        {
          "internalType": "uint256",
          "name": "",
          "type": "uint256"
        }
      ],
      "stateMutability": "view",
      "type": "function"
    },
    {
      "inputs": [],
      "name": "feeGauge",
      "outputs": [
        {
          "internalType": "contract IJBFeeGauge",
          "name": "",
          "type": "address"
        }
      ],
      "stateMutability": "view",
      "type": "function"
    },
    {
      "inputs": [
        {
          "internalType": "uint256",
          "name": "_projectId",
          "type": "uint256"
        }
      ],
      "name": "heldFeesOf",
      "outputs": [
        {
          "components": [
            {
              "internalType": "uint256",
              "name": "amount",
              "type": "uint256"
            },
            {
              "internalType": "uint32",
              "name": "fee",
              "type": "uint32"
            },
            {
              "internalType": "uint32",
              "name": "feeDiscount",
              "type": "uint32"
            },
            {
              "internalType": "address",
              "name": "beneficiary",
              "type": "address"
            }
          ],
          "internalType": "struct JBFee[]",
          "name": "",
          "type": "tuple[]"
        }
      ],
      "stateMutability": "view",
      "type": "function"
    },
    {
      "inputs": [
        {
          "internalType": "address",
          "name": "",
          "type": "address"
        }
      ],
      "name": "isFeelessAddress",
      "outputs": [
        {
          "internalType": "bool",
          "name": "",
          "type": "bool"
        }
      ],
      "stateMutability": "view",
      "type": "function"
    },
    {
      "inputs": [
        {
          "internalType": "uint256",
          "name": "_projectId",
          "type": "uint256"
        },
        {
          "internalType": "contract IJBPaymentTerminal",
          "name": "_to",
          "type": "address"
        }
      ],
      "name": "migrate",
      "outputs": [
        {
          "internalType": "uint256",
          "name": "balance",
          "type": "uint256"
        }
      ],
      "stateMutability": "nonpayable",
      "type": "function"
    },
    {
      "inputs": [],
      "name": "operatorStore",
      "outputs": [
        {
          "internalType": "contract IJBOperatorStore",
          "name": "",
          "type": "address"
        }
      ],
      "stateMutability": "view",
      "type": "function"
    },
    {
      "inputs": [],
      "name": "owner",
      "outputs": [
        {
          "internalType": "address",
          "name": "",
          "type": "address"
        }
      ],
      "stateMutability": "view",
      "type": "function"
    },
    {
      "inputs": [
        {
          "internalType": "uint256",
          "name": "_projectId",
          "type": "uint256"
        },
        {
          "internalType": "uint256",
          "name": "_amount",
          "type": "uint256"
        },
        {
          "internalType": "address",
          "name": "_token",
          "type": "address"
        },
        {
          "internalType": "address",
          "name": "_beneficiary",
          "type": "address"
        },
        {
          "internalType": "uint256",
          "name": "_minReturnedTokens",
          "type": "uint256"
        },
        {
          "internalType": "bool",
          "name": "_preferClaimedTokens",
          "type": "bool"
        },
        {
          "internalType": "string",
          "name": "_memo",
          "type": "string"
        },
        {
          "internalType": "bytes",
          "name": "_metadata",
          "type": "bytes"
        }
      ],
      "name": "pay",
      "outputs": [
        {
          "internalType": "uint256",
          "name": "",
          "type": "uint256"
        }
      ],
      "stateMutability": "payable",
      "type": "function"
    },
    {
      "inputs": [],
      "name": "payoutSplitsGroup",
      "outputs": [
        {
          "internalType": "uint256",
          "name": "",
          "type": "uint256"
        }
      ],
      "stateMutability": "view",
      "type": "function"
    },
    {
      "inputs": [],
      "name": "prices",
      "outputs": [
        {
          "internalType": "contract IJBPrices",
          "name": "",
          "type": "address"
        }
      ],
      "stateMutability": "view",
      "type": "function"
    },
    {
      "inputs": [
        {
          "internalType": "uint256",
          "name": "_projectId",
          "type": "uint256"
        }
      ],
      "name": "processFees",
      "outputs": [],
      "stateMutability": "nonpayable",
      "type": "function"
    },
    {
      "inputs": [],
      "name": "projects",
      "outputs": [
        {
          "internalType": "contract IJBProjects",
          "name": "",
          "type": "address"
        }
      ],
      "stateMutability": "view",
      "type": "function"
    },
    {
      "inputs": [
        {
          "internalType": "address",
          "name": "_holder",
          "type": "address"
        },
        {
          "internalType": "uint256",
          "name": "_projectId",
          "type": "uint256"
        },
        {
          "internalType": "uint256",
          "name": "_tokenCount",
          "type": "uint256"
        },
        {
          "internalType": "address",
          "name": "_token",
          "type": "address"
        },
        {
          "internalType": "uint256",
          "name": "_minReturnedTokens",
          "type": "uint256"
        },
        {
          "internalType": "address payable",
          "name": "_beneficiary",
          "type": "address"
        },
        {
          "internalType": "string",
          "name": "_memo",
          "type": "string"
        },
        {
          "internalType": "bytes",
          "name": "_metadata",
          "type": "bytes"
        }
      ],
      "name": "redeemTokensOf",
      "outputs": [
        {
          "internalType": "uint256",
          "name": "reclaimAmount",
          "type": "uint256"
        }
      ],
      "stateMutability": "nonpayable",
      "type": "function"
    },
    {
      "inputs": [],
      "name": "renounceOwnership",
      "outputs": [],
      "stateMutability": "nonpayable",
      "type": "function"
    },
    {
      "inputs": [
        {
          "internalType": "uint256",
          "name": "_fee",
          "type": "uint256"
        }
      ],
      "name": "setFee",
      "outputs": [],
      "stateMutability": "nonpayable",
      "type": "function"
    },
    {
      "inputs": [
        {
          "internalType": "contract IJBFeeGauge",
          "name": "_feeGauge",
          "type": "address"
        }
      ],
      "name": "setFeeGauge",
      "outputs": [],
      "stateMutability": "nonpayable",
      "type": "function"
    },
    {
      "inputs": [
        {
          "internalType": "address",
          "name": "_address",
          "type": "address"
        },
        {
          "internalType": "bool",
          "name": "_flag",
          "type": "bool"
        }
      ],
      "name": "setFeelessAddress",
      "outputs": [],
      "stateMutability": "nonpayable",
      "type": "function"
    },
    {
      "inputs": [],
      "name": "splitsStore",
      "outputs": [
        {
          "internalType": "contract IJBSplitsStore",
          "name": "",
          "type": "address"
        }
      ],
      "stateMutability": "view",
      "type": "function"
    },
    {
      "inputs": [],
      "name": "store",
      "outputs": [
        {
          "internalType": "contract IJBSingleTokenPaymentTerminalStore",
          "name": "",
          "type": "address"
        }
      ],
      "stateMutability": "view",
      "type": "function"
    },
    {
      "inputs": [
        {
          "internalType": "bytes4",
          "name": "_interfaceId",
          "type": "bytes4"
        }
      ],
      "name": "supportsInterface",
      "outputs": [
        {
          "internalType": "bool",
          "name": "",
          "type": "bool"
        }
      ],
      "stateMutability": "view",
      "type": "function"
    },
    {
      "inputs": [],
      "name": "token",
      "outputs": [
        {
          "internalType": "address",
          "name": "",
          "type": "address"
        }
      ],
      "stateMutability": "view",
      "type": "function"
    },
    {
      "inputs": [
        {
          "internalType": "address",
          "name": "newOwner",
          "type": "address"
        }
      ],
      "name": "transferOwnership",
      "outputs": [],
      "stateMutability": "nonpayable",
      "type": "function"
    },
    {
      "inputs": [
        {
          "internalType": "uint256",
          "name": "_projectId",
          "type": "uint256"
        },
        {
          "internalType": "uint256",
          "name": "_amount",
          "type": "uint256"
        },
        {
          "internalType": "uint256",
          "name": "_currency",
          "type": "uint256"
        },
        {
          "internalType": "address",
          "name": "_token",
          "type": "address"
        },
        {
          "internalType": "uint256",
          "name": "_minReturnedTokens",
          "type": "uint256"
        },
        {
          "internalType": "address payable",
          "name": "_beneficiary",
          "type": "address"
        },
        {
          "internalType": "string",
          "name": "_memo",
          "type": "string"
        }
      ],
      "name": "useAllowanceOf",
      "outputs": [
        {
          "internalType": "uint256",
          "name": "netDistributedAmount",
          "type": "uint256"
        }
      ],
      "stateMutability": "nonpayable",
      "type": "function"
    }
  ],
  "transactionHash": "0xa3576f314e912aec35133c38d8501541740d66295e30c6f128a014e63db3cb0c",
  "args": [
    "1",
    "0xEDB2db4b82A4D4956C3B4aA474F7ddf3Ac73c5AB",
    "0x2d8e361f8F1B5daF33fDb2C99971b33503E60EEE",
    "0x1A9b04A9617ba5C9b7EBfF9668C30F41db6fC21a",
    "0x767e488155030589c1833592E60876bbE64c1C74",
    "0xFF1D73AB28140b574Bb7A90e9fBCeD1eDAFce5c1",
    "0x5d4eb71749DD9984118EBdF96aaF3CF6EAE1A745",
    "0xAF28bcB48C40dBC86f52D459A6562F658fc94B1e"
  ],
  "numDeployments": 3,
  "solcInputHash": "a1f674e02c4866a16e5bde886a31b82e",
  "bytecode": "0x6101e060405263017d78406003553480156200001a57600080fd5b5060405162005e1938038062005e198339810160408190526200003d9162000219565b6deeee000000000000000000000000608052601260a0819052600160c0819052606089901b6001600160601b03191660e05261eeee91908a818b8b8b8b8b8b8b6200008833620000f4565b600180556101a08990526101c08890526001600160601b0319606087811b82166101005286811b82166101205285811b82166101405284811b82166101605283901b1661018052620000da8162000144565b5050505050505050505050505050505050505050620002e4565b600080546001600160a01b038381166001600160a01b0319831681178455604051919092169283917f8be0079c531659141344cd1fd0a4f28419497f9722a3daafe3b4186f6b6457e09190a35050565b6000546001600160a01b03163314620001a45760405162461bcd60e51b815260206004820181905260248201527f4f776e61626c653a2063616c6c6572206973206e6f7420746865206f776e657260448201526064015b60405180910390fd5b6001600160a01b0381166200020b5760405162461bcd60e51b815260206004820152602660248201527f4f776e61626c653a206e6577206f776e657220697320746865207a65726f206160448201526564647265737360d01b60648201526084016200019b565b6200021681620000f4565b50565b600080600080600080600080610100898b0312156200023757600080fd5b8851975060208901516200024b81620002ce565b60408a01519097506200025e81620002ce565b60608a01519096506200027181620002ce565b60808a01519095506200028481620002ce565b60a08a01519094506200029781620002ce565b60c08a0151909350620002aa81620002ce565b60e08a0151909250620002bd81620002ce565b809150509295985092959890939650565b6001600160a01b03811681146200021657600080fd5b60805160601c60a05160c05160e05160601c6101005160601c6101205160601c6101405160601c6101605160601c6101805160601c6101a0516101c05161590362000516600039600081816103d4015261257201526000818161032c0152611fa50152600081816104fc01528181610f2a015281816117f201528181611d6001528181611f73015281816123b601528181612ec401526131d4015260008181610648015261199f0152600081816102e00152613d840152600081816106140152818161095901528181610b660152818161207e01528181612b3e015281816132e001528181613be501526140b50152600081816104aa01528181610d7c0152818161146a01528181611a67015281816124a30152612fbb015260008181610550015281816126ba015281816127890152818161290e01526129dd01526000818161026b01528181610700015281816118d10152818161194c01528181611f4d01526134a6015260008181610360015281816105c0015281816118720152818161189e015281816118fe0152818161197901528181611f27015281816134800152613f470152600081816106be0152818161075401528181610a1301528181610c1801528181610e3c01528181610fba0152818161104601528181611ef201528181612b1301528181612c0101528181612c8f0152818161344b01528181613bb801528181613ec801528181613f12015281816140e2015281816142ee015281816143c0015261443901526159036000f3fe6080604052600436106101fe5760003560e01c80638b79543c1161011d578063c41c2f24116100b0578063df21a7dd1161007f578063f2fde38b11610064578063f2fde38b14610722578063fc0c546a14610742578063fe663f0f1461077657600080fd5b8063df21a7dd146106a0578063e5a6b10f146106ee57600080fd5b8063c41c2f2414610602578063d3419bf314610636578063d6dacc531461066a578063ddca3f431461068a57600080fd5b8063ad007d63116100ec578063ad007d631461053e578063b631b50014610572578063b7bad1b1146105a2578063bc8926e9146105e257600080fd5b80638b79543c146104985780638da5cb5b146104cc578063975057e7146104ea578063a32e1e961461051e57600080fd5b8063405b84fa11610195578063715018a611610164578063715018a6146104165780637258002c1461042b57806389701db51461044b5780638af560941461046b57600080fd5b8063405b84fa14610382578063637913ac146103a257806366248b86146103c257806369fe0e2d146103f657600080fd5b80632b267b4e116101d15780632b267b4e146102ae5780632bdfe004146102ce5780632d1a59031461031a578063313ce5671461034e57600080fd5b806301ffc9a7146102035780630cf8e858146102385780631982d6791461024d5780631ebc263f1461029b575b600080fd5b34801561020f57600080fd5b5061022361021e366004614bfd565b610796565b60405190151581526020015b60405180910390f35b61024b610246366004614dfd565b610922565b005b34801561025957600080fd5b5061028d610268366004614962565b507f000000000000000000000000000000000000000000000000000000000000000090565b60405190815260200161022f565b61028d6102a9366004614d35565b610b24565b3480156102ba57600080fd5b5061028d6102c9366004614f1c565b610d2e565b3480156102da57600080fd5b506103027f000000000000000000000000000000000000000000000000000000000000000081565b6040516001600160a01b03909116815260200161022f565b34801561032657600080fd5b5061028d7f000000000000000000000000000000000000000000000000000000000000000081565b34801561035a57600080fd5b5061028d7f000000000000000000000000000000000000000000000000000000000000000081565b34801561038e57600080fd5b5061028d61039d366004614d10565b610d4a565b3480156103ae57600080fd5b5061024b6103bd366004614962565b6110f0565b3480156103ce57600080fd5b5061028d7f000000000000000000000000000000000000000000000000000000000000000081565b34801561040257600080fd5b5061024b610411366004614cde565b6111d5565b34801561042257600080fd5b5061024b6112c7565b34801561043757600080fd5b5061024b61044636600461499c565b611347565b34801561045757600080fd5b5061024b610466366004614cde565b61143b565b34801561047757600080fd5b5061048b610486366004614cde565b6116fe565b60405161022f919061530b565b3480156104a457600080fd5b506103027f000000000000000000000000000000000000000000000000000000000000000081565b3480156104d857600080fd5b506000546001600160a01b0316610302565b3480156104f657600080fd5b506103027f000000000000000000000000000000000000000000000000000000000000000081565b34801561052a57600080fd5b5061028d610539366004614cde565b6117b0565b34801561054a57600080fd5b506103027f000000000000000000000000000000000000000000000000000000000000000081565b34801561057e57600080fd5b5061022361058d366004614962565b60056020526000908152604090205460ff1681565b3480156105ae57600080fd5b5061028d6105bd366004614962565b507f000000000000000000000000000000000000000000000000000000000000000090565b3480156105ee57600080fd5b5061028d6105fd366004614e93565b611a35565b34801561060e57600080fd5b506103027f000000000000000000000000000000000000000000000000000000000000000081565b34801561064257600080fd5b506103027f000000000000000000000000000000000000000000000000000000000000000081565b34801561067657600080fd5b50600454610302906001600160a01b031681565b34801561069657600080fd5b5061028d60035481565b3480156106ac57600080fd5b506102236106bb3660046149d5565b507f00000000000000000000000000000000000000000000000000000000000000006001600160a01b0390811691161490565b3480156106fa57600080fd5b5061028d7f000000000000000000000000000000000000000000000000000000000000000081565b34801561072e57600080fd5b5061024b61073d366004614962565b611b14565b34801561074e57600080fd5b506103027f000000000000000000000000000000000000000000000000000000000000000081565b34801561078257600080fd5b5061028d610791366004614a01565b611c2a565b60007fffffffff0000000000000000000000000000000000000000000000000000000082167fedb527eb00000000000000000000000000000000000000000000000000000000148061082957507fffffffff0000000000000000000000000000000000000000000000000000000082167f2b267b4e00000000000000000000000000000000000000000000000000000000145b8061087557507fffffffff0000000000000000000000000000000000000000000000000000000082167fbc8926e900000000000000000000000000000000000000000000000000000000145b806108c157507fffffffff0000000000000000000000000000000000000000000000000000000082167ffe663f0f00000000000000000000000000000000000000000000000000000000145b8061090d57507fffffffff0000000000000000000000000000000000000000000000000000000082167fad007d6300000000000000000000000000000000000000000000000000000000145b8061091c575061091c82611c4a565b92915050565b6040517f6e49181f0000000000000000000000000000000000000000000000000000000081526004810188905230602482015287907f00000000000000000000000000000000000000000000000000000000000000006001600160a01b031690636e49181f9060440160206040518083038186803b1580156109a357600080fd5b505afa1580156109b7573d6000803e3d6000fd5b505050506040513d601f19601f820116820180604052508101906109db9190614be0565b610a11576040517fd8ead2c800000000000000000000000000000000000000000000000000000000815260040160405180910390fd5b7f00000000000000000000000000000000000000000000000000000000000000006001600160a01b031661eeee14610a8b573415610a7b576040517fbcfd35be00000000000000000000000000000000000000000000000000000000815260040160405180910390fd5b610a86333089611d2d565b610a8f565b3496505b33600090815260056020908152604091829020548251601f8801839004830281018301909352868352610b1a928b928b9260ff161591908a908a908190840183828082843760009201919091525050604080516020601f8c018190048102820181019092528a815292508a9150899081908401838280828437600092019190915250611d3c92505050565b5050505050505050565b6040517f6e49181f000000000000000000000000000000000000000000000000000000008152600481018b90523060248201526000908b906001600160a01b037f00000000000000000000000000000000000000000000000000000000000000001690636e49181f9060440160206040518083038186803b158015610ba857600080fd5b505afa158015610bbc573d6000803e3d6000fd5b505050506040513d601f19601f82011682018060405250810190610be09190614be0565b610c16576040517fd8ead2c800000000000000000000000000000000000000000000000000000000815260040160405180910390fd5b7f00000000000000000000000000000000000000000000000000000000000000006001600160a01b031661eeee14610c90573415610c80576040517fbcfd35be00000000000000000000000000000000000000000000000000000000815260040160405180910390fd5b610c8b33308d611d2d565b610c94565b349a505b610d1e8b338e8c8c8c8c8c8080601f016020809104026020016040519081016040528093929190818152602001838380828437600081840152601f19601f820116905080830192505050505050508b8b8080601f016020809104026020016040519081016040528093929190818152602001838380828437600092019190915250611e4692505050565b9c9b505050505050505050505050565b6000610d3e88888887878761236a565b98975050505050505050565b6040517f6352211e000000000000000000000000000000000000000000000000000000008152600481018390526000907f00000000000000000000000000000000000000000000000000000000000000006001600160a01b031690636352211e9060240160206040518083038186803b158015610dc657600080fd5b505afa158015610dda573d6000803e3d6000fd5b505050506040513d601f19601f82011682018060405250810190610dfe919061497f565b836004610e0c83838361265a565b6040517fdf21a7dd0000000000000000000000000000000000000000000000000000000081526001600160a01b037f0000000000000000000000000000000000000000000000000000000000000000811660048301526024820188905286169063df21a7dd9060440160206040518083038186803b158015610e8d57600080fd5b505afa158015610ea1573d6000803e3d6000fd5b505050506040513d601f19601f82011682018060405250810190610ec59190614be0565b610efb576040517f581010ed00000000000000000000000000000000000000000000000000000000815260040160405180910390fd5b6040517f6bb6a5ad000000000000000000000000000000000000000000000000000000008152600481018790527f00000000000000000000000000000000000000000000000000000000000000006001600160a01b031690636bb6a5ad90602401602060405180830381600087803b158015610f7657600080fd5b505af1158015610f8a573d6000803e3d6000fd5b505050506040513d601f19601f82011682018060405250810190610fae9190614cf7565b935083156110a25760007f00000000000000000000000000000000000000000000000000000000000000006001600160a01b031661eeee14610ff1576000610ff3565b845b604080516020810182526000815290517f0cf8e8580000000000000000000000000000000000000000000000000000000081529192506001600160a01b03881691630cf8e85891849161106e918c918b917f0000000000000000000000000000000000000000000000000000000000000000916004016154bb565b6000604051808303818588803b15801561108757600080fd5b505af115801561109b573d6000803e3d6000fd5b5050505050505b604080518581523360208201526001600160a01b0387169188917fa7519e5f94697b7f53e97c5eb46a0c730a296ab686ab8fd333835c5f735784eb910160405180910390a350505092915050565b6000546001600160a01b03163314611169576040517f08c379a000000000000000000000000000000000000000000000000000000000815260206004820181905260248201527f4f776e61626c653a2063616c6c6572206973206e6f7420746865206f776e657260448201526064015b60405180910390fd5b600480547fffffffffffffffffffffffff0000000000000000000000000000000000000000166001600160a01b0383169081179091556040513381527f0a9a80fe9716605b3e52abb3d792d6a4e7816d6afc02a5a4ef023081feaf9f609060200160405180910390a250565b6000546001600160a01b03163314611249576040517f08c379a000000000000000000000000000000000000000000000000000000000815260206004820181905260248201527f4f776e61626c653a2063616c6c6572206973206e6f7420746865206f776e65726044820152606401611160565b6302faf080811115611287576040517f45fbd9c100000000000000000000000000000000000000000000000000000000815260040160405180910390fd5b6003819055604080518281523360208201527fd7414e590e1cb532989ab2a34c8f4c2c17f7ab6f006efeeaef2e87cd5008c202910160405180910390a150565b6000546001600160a01b0316331461133b576040517f08c379a000000000000000000000000000000000000000000000000000000000815260206004820181905260248201527f4f776e61626c653a2063616c6c6572206973206e6f7420746865206f776e65726044820152606401611160565b611345600061283c565b565b6000546001600160a01b031633146113bb576040517f08c379a000000000000000000000000000000000000000000000000000000000815260206004820181905260248201527f4f776e61626c653a2063616c6c6572206973206e6f7420746865206f776e65726044820152606401611160565b6001600160a01b03821660008181526005602090815260409182902080547fffffffffffffffffffffffffffffffffffffffffffffffffffffffffffffff001685151590811790915591513381529192917fa2653e25a502c023a5830d0de847ef6f458387865b1f4f575d7594f9f2c0d71e910160405180910390a35050565b6040517f6352211e000000000000000000000000000000000000000000000000000000008152600481018290527f00000000000000000000000000000000000000000000000000000000000000006001600160a01b031690636352211e9060240160206040518083038186803b1580156114b457600080fd5b505afa1580156114c8573d6000803e3d6000fd5b505050506040513d601f19601f820116820180604052508101906114ec919061497f565b8160056115016000546001600160a01b031690565b6001600160a01b0316336001600160a01b031614611521848484846128a4565b600085815260026020908152604080832080548251818502810185019093528083529192909190849084015b828210156115bf57600084815260209081902060408051608081018252600286029092018054835260019081015463ffffffff8082168587015264010000000082041692840192909252680100000000000000009091046001600160a01b03166060830152908352909201910161154d565b50505060008881526002602052604081209293506115de929150614794565b805160005b81811015610b1a57600061165b8483815181106116025761160261584c565b6020026020010151600001518584815181106116205761162061584c565b60200260200101516020015163ffffffff168685815181106116445761164461584c565b60200260200101516040015163ffffffff16612a96565b9050611684818584815181106116735761167361584c565b602002602001015160600151612adc565b60011515818a7fcf0c92a2c6d7c42f488326b0cb900104b99984b6b218db81cd29371364a352518786815181106116bd576116bd61584c565b602002602001015160600151336040516116ed9291906001600160a01b0392831681529116602082015260400190565b60405180910390a4506001016115e3565b606060026000838152602001908152602001600020805480602002602001604051908101604052809291908181526020016000905b828210156117a557600084815260209081902060408051608081018252600286029092018054835260019081015463ffffffff8082168587015264010000000082041692840192909252680100000000000000009091046001600160a01b031660608301529083529092019101611733565b505050509050919050565b6040517fd49031c00000000000000000000000000000000000000000000000000000000081523060048201526024810182905260009081906001600160a01b037f0000000000000000000000000000000000000000000000000000000000000000169063d49031c09060440160206040518083038186803b15801561183457600080fd5b505afa158015611848573d6000803e3d6000fd5b505050506040513d601f19601f8201168201806040525081019061186c9190614cf7565b905060007f00000000000000000000000000000000000000000000000000000000000000006012146118c9576118c4827f00000000000000000000000000000000000000000000000000000000000000006012612d15565b6118cb565b815b905060017f000000000000000000000000000000000000000000000000000000000000000014611a2b57611a26816119247f0000000000000000000000000000000000000000000000000000000000000000600a6156a8565b6040517fa4d0caf20000000000000000000000000000000000000000000000000000000081527f00000000000000000000000000000000000000000000000000000000000000006004820152600160248201527f000000000000000000000000000000000000000000000000000000000000000060448201527f00000000000000000000000000000000000000000000000000000000000000006001600160a01b03169063a4d0caf29060640160206040518083038186803b1580156119e957600080fd5b505afa1580156119fd573d6000803e3d6000fd5b505050506040513d601f19601f82011682018060405250810190611a219190614cf7565b612d73565b611a2d565b805b949350505050565b6040517f6352211e000000000000000000000000000000000000000000000000000000008152600481018890526000907f00000000000000000000000000000000000000000000000000000000000000006001600160a01b031690636352211e9060240160206040518083038186803b158015611ab157600080fd5b505afa158015611ac5573d6000803e3d6000fd5b505050506040513d601f19601f82011682018060405250810190611ae9919061497f565b886011611af783838361265a565b611b058b8b8b8a8a8a612e78565b9b9a5050505050505050505050565b6000546001600160a01b03163314611b88576040517f08c379a000000000000000000000000000000000000000000000000000000000815260206004820181905260248201527f4f776e61626c653a2063616c6c6572206973206e6f7420746865206f776e65726044820152606401611160565b6001600160a01b038116611c1e576040517f08c379a000000000000000000000000000000000000000000000000000000000815260206004820152602660248201527f4f776e61626c653a206e6577206f776e657220697320746865207a65726f206160448201527f64647265737300000000000000000000000000000000000000000000000000006064820152608401611160565b611c278161283c565b50565b600088886002611c3b83838361265a565b610d1e8c8c8c8b8b8b8b613107565b60007fffffffff0000000000000000000000000000000000000000000000000000000082167fc07370e4000000000000000000000000000000000000000000000000000000001480611cdd57507fffffffff0000000000000000000000000000000000000000000000000000000082167f2896000200000000000000000000000000000000000000000000000000000000145b8061091c57507f01ffc9a7000000000000000000000000000000000000000000000000000000007fffffffff0000000000000000000000000000000000000000000000000000000083161461091c565b611d3782826135f7565b505050565b600083611d4a576000611d54565b611d548686613744565b90506001600160a01b037f00000000000000000000000000000000000000000000000000000000000000001663e7c8e3e387611d9084896155f4565b6040517fffffffff0000000000000000000000000000000000000000000000000000000060e085901b16815260048101929092526024820152604401600060405180830381600087803b158015611de657600080fd5b505af1158015611dfa573d6000803e3d6000fd5b50505050857f9ecaf7fc3dfffd6867c175d6e684b1f1e3aef019398ba8db2c1ffab4a09db2538683868633604051611e36959493929190615501565b60405180910390a2505050505050565b60006001600160a01b038616611e88576040517fa762251300000000000000000000000000000000000000000000000000000000815260040160405180910390fd5b611ee06040518061012001604052806000815260200160008152602001600081526020016000815260200160008152602001600081526020016000815260200160006001600160a01b03168152602001600081525090565b600080600060405180608001604052807f00000000000000000000000000000000000000000000000000000000000000006001600160a01b031681526020018e81526020017f000000000000000000000000000000000000000000000000000000000000000081526020017f000000000000000000000000000000000000000000000000000000000000000081525090507f00000000000000000000000000000000000000000000000000000000000000006001600160a01b0316632fa1b3918d838e7f00000000000000000000000000000000000000000000000000000000000000008f8d8d6040518863ffffffff1660e01b8152600401611fe99796959493929190615237565b600060405180830381600087803b15801561200357600080fd5b505af1158015612017573d6000803e3d6000fd5b505050506040513d6000823e601f3d908101601f1916820160405261203f9190810190614c6e565b9950919550909350915081156121c4576040517f5dd8f6aa000000000000000000000000000000000000000000000000000000008152600481018c90527f00000000000000000000000000000000000000000000000000000000000000006001600160a01b031690635dd8f6aa9060240160206040518083038186803b1580156120c857600080fd5b505afa1580156120dc573d6000803e3d6000fd5b505050506040513d601f19601f82011682018060405250810190612100919061497f565b6040517f8ae9c07b000000000000000000000000000000000000000000000000000000008152600481018d9052602481018490526001600160a01b038c8116604483015260c06064830152600060c48301528a15156084830152600160a48301529190911690638ae9c07b9060e401602060405180830381600087803b15801561218957600080fd5b505af115801561219d573d6000803e3d6000fd5b505050506040513d601f19601f820116820180604052508101906121c19190614cf7565b94505b888510156121fe576040517f7b94612600000000000000000000000000000000000000000000000000000000815260040160405180910390fd5b6001600160a01b0383161561230c5760006040518061012001604052808e6001600160a01b031681526020018d8152602001866020015181526020018381526020018781526020018c6001600160a01b031681526020018a15158152602001898152602001888152509050836001600160a01b031663304b1eea826040518263ffffffff1660e01b81526004016122959190615381565b600060405180830381600087803b1580156122af57600080fd5b505af11580156122c3573d6000803e3d6000fd5b50505050836001600160a01b03167fdcbcf946bdc8fbe709377d507c6a207221aecd117c05690f674af73d923cdb548233604051612302929190615394565b60405180910390a2505b50505087816000015182602001517f133161f1c9161488f777ab9a26aae91d47c0d9a3fafb398960f138db02c737978c8b8f888b8b3360405161235597969594939291906151d6565b60405180910390a45098975050505050505050565b6040517fc6644597000000000000000000000000000000000000000000000000000000008152600481018790526024810186905260448101859052600090819081906001600160a01b037f0000000000000000000000000000000000000000000000000000000000000000169063c66445979060640161014060405180830381600087803b1580156123fb57600080fd5b505af115801561240f573d6000803e3d6000fd5b505050506040513d601f19601f820116820180604052508101906124339190614c3f565b9150915085811015612471576040517fb01493c100000000000000000000000000000000000000000000000000000000815260040160405180910390fd5b6040517f6352211e000000000000000000000000000000000000000000000000000000008152600481018a90526000907f00000000000000000000000000000000000000000000000000000000000000006001600160a01b031690636352211e9060240160206040518083038186803b1580156124ed57600080fd5b505afa158015612501573d6000803e3d6000fd5b505050506040513d601f19601f82011682018060405250810190612525919061497f565b90506000806003546000148061254a57503360009081526005602052604090205460ff165b61255c576125578c613b81565b612562565b633b9aca005b90506000806125988e88602001517f00000000000000000000000000000000000000000000000000000000000000008987613d40565b810192509050633b9aca008314806125ae575081155b6125c4576125bf8e888488876145e5565b6125c7565b60005b935080156125e3576125dc8160035485612a96565b81036125e6565b60005b975087156125f9576125f930868a611d2d565b5050508a846000015185602001517f24352f49df447b14e0e08a323625c663d865ce20c343c4638af12e1dc48aa760858e88878c8f8f33604051612644989796959493929190615172565b60405180910390a4505050509695505050505050565b336001600160a01b0384161480159061273657506040517fc161c93f0000000000000000000000000000000000000000000000000000000081523360048201526001600160a01b03848116602483015260448201849052606482018390527f0000000000000000000000000000000000000000000000000000000000000000169063c161c93f9060840160206040518083038186803b1580156126fc57600080fd5b505afa158015612710573d6000803e3d6000fd5b505050506040513d601f19601f820116820180604052508101906127349190614be0565b155b801561280557506040517fc161c93f0000000000000000000000000000000000000000000000000000000081523360048201526001600160a01b03848116602483015260006044830152606482018390527f0000000000000000000000000000000000000000000000000000000000000000169063c161c93f9060840160206040518083038186803b1580156127cb57600080fd5b505afa1580156127df573d6000803e3d6000fd5b505050506040513d601f19601f820116820180604052508101906128039190614be0565b155b15611d37576040517f075fd2b100000000000000000000000000000000000000000000000000000000815260040160405180910390fd5b600080546001600160a01b038381167fffffffffffffffffffffffff0000000000000000000000000000000000000000831681178455604051919092169283917f8be0079c531659141344cd1fd0a4f28419497f9722a3daafe3b4186f6b6457e09190a35050565b801580156128bb5750336001600160a01b03851614155b801561298a57506040517fc161c93f0000000000000000000000000000000000000000000000000000000081523360048201526001600160a01b03858116602483015260448201859052606482018490527f0000000000000000000000000000000000000000000000000000000000000000169063c161c93f9060840160206040518083038186803b15801561295057600080fd5b505afa158015612964573d6000803e3d6000fd5b505050506040513d601f19601f820116820180604052508101906129889190614be0565b155b8015612a5957506040517fc161c93f0000000000000000000000000000000000000000000000000000000081523360048201526001600160a01b03858116602483015260006044830152606482018490527f0000000000000000000000000000000000000000000000000000000000000000169063c161c93f9060840160206040518083038186803b158015612a1f57600080fd5b505afa158015612a33573d6000803e3d6000fd5b505050506040513d601f19601f82011682018060405250810190612a579190614be0565b155b15612a90576040517f075fd2b100000000000000000000000000000000000000000000000000000000815260040160405180910390fd5b50505050565b600080612aa88484633b9aca00612d73565b612ab290856157ab565b9050612ac785633b9aca00611a2181856155f4565b612ad190866157ab565b9150505b9392505050565b6040517f86202650000000000000000000000000000000000000000000000000000000008152600160048201526001600160a01b037f0000000000000000000000000000000000000000000000000000000000000000811660248301526000917f00000000000000000000000000000000000000000000000000000000000000009091169063862026509060440160206040518083038186803b158015612b8257600080fd5b505afa158015612b96573d6000803e3d6000fd5b505050506040513d601f19601f82011682018060405250810190612bba919061497f565b90506001600160a01b038116301415612bfd57612a9083306001856000806040518060200160405280600081525060405180602001604052806000815250611e46565b60007f00000000000000000000000000000000000000000000000000000000000000006001600160a01b031661eeee14612c38576000612c3a565b835b60408051602081018252600080825291517f1ebc263f0000000000000000000000000000000000000000000000000000000081529293506001600160a01b03851692631ebc263f928592612cbc926001928b927f0000000000000000000000000000000000000000000000000000000000000000928c92918291600401615464565b6020604051808303818588803b158015612cd557600080fd5b505af1158015612ce9573d6000803e3d6000fd5b50505050506040513d601f19601f82011682018060405250810190612d0e9190614cf7565b5050505050565b600082821415612d26575082612ad5565b82821115612d5457612d3883836157ab565b612d4390600a6156a8565b612d4d908561576e565b9050612ad5565b612d5e82846157ab565b612d6990600a6156a8565b612d4d908561560c565b600080807fffffffffffffffffffffffffffffffffffffffffffffffffffffffffffffffff8587098587029250828110838203039150508060001415612dcc57838281612dc257612dc261581d565b0492505050612ad5565b838110612e0f576040517f773cc18c0000000000000000000000000000000000000000000000000000000081526004810182905260248101859052604401611160565b60008486880960026001871981018816978890046003810283188082028403028082028403028082028403028082028403028082028403029081029092039091026000889003889004909101858311909403939093029303949094049190911702949350505050565b6040517f25386715000000000000000000000000000000000000000000000000000000008152600481018790526024810186905260448101859052600090819081906001600160a01b037f0000000000000000000000000000000000000000000000000000000000000000169063253867159060640161014060405180830381600087803b158015612f0957600080fd5b505af1158015612f1d573d6000803e3d6000fd5b505050506040513d601f19601f82011682018060405250810190612f419190614c3f565b9150915085811015612f7f576040517fb01493c100000000000000000000000000000000000000000000000000000000815260040160405180910390fd5b6040517f6352211e000000000000000000000000000000000000000000000000000000008152600481018a905260009081906001600160a01b037f00000000000000000000000000000000000000000000000000000000000000001690636352211e9060240160206040518083038186803b158015612ffd57600080fd5b505afa158015613011573d6000803e3d6000fd5b505050506040513d601f19601f82011682018060405250810190613035919061497f565b905060006003546000148061305957503360009081526005602052604090205460ff165b61306b576130668c613b81565b613071565b633b9aca005b9050633b9aca0081146130905761308b8c868685856145e5565b613093565b60005b808503965092508383146130ac576130ac308988611d2d565b50505088826000015183602001517f8657a0c05a68a912c23c1bd00124afaa8c669063b046bd9bfd22b21d573c5e6d888c86898b336040516130f396959493929190615127565b60405180910390a450509695505050505050565b60006001600160a01b038416613149576040517ff74a1b6600000000000000000000000000000000000000000000000000000000815260040160405180910390fd5b6131a16040518061012001604052806000815260200160008152602001600081526020016000815260200160008152602001600081526020016000815260200160006001600160a01b03168152602001600081525090565b6040517fa2df1f950000000000000000000000000000000000000000000000000000000081526000906001600160a01b037f0000000000000000000000000000000000000000000000000000000000000000169063a2df1f9590613211908d908d908d908b908b906004016152cb565b600060405180830381600087803b15801561322b57600080fd5b505af115801561323f573d6000803e3d6000fd5b505050506040513d6000823e601f3d908101601f191682016040526132679190810190614c6e565b97509094509092509050868310156132ab576040517ff896960b00000000000000000000000000000000000000000000000000000000815260040160405180910390fd5b87156133fc576040517f5dd8f6aa000000000000000000000000000000000000000000000000000000008152600481018a90527f00000000000000000000000000000000000000000000000000000000000000006001600160a01b031690635dd8f6aa9060240160206040518083038186803b15801561332a57600080fd5b505afa15801561333e573d6000803e3d6000fd5b505050506040513d601f19601f82011682018060405250810190613362919061497f565b6040517f1665bc0f0000000000000000000000000000000000000000000000000000000081526001600160a01b038c81166004830152602482018c9052604482018b905260a06064830152600060a4830181905260848301529190911690631665bc0f9060c401600060405180830381600087803b1580156133e357600080fd5b505af11580156133f7573d6000803e3d6000fd5b505050505b6001600160a01b0381161561358b5760006040518061010001604052808c6001600160a01b031681526020018b8152602001846020015181526020018a815260200160405180608001604052807f00000000000000000000000000000000000000000000000000000000000000006001600160a01b031681526020018781526020017f000000000000000000000000000000000000000000000000000000000000000081526020017f00000000000000000000000000000000000000000000000000000000000000008152508152602001886001600160a01b03168152602001878152602001868152509050816001600160a01b0316632400e8f7826040518263ffffffff1660e01b815260040161351491906153bf565b600060405180830381600087803b15801561352e57600080fd5b505af1158015613542573d6000803e3d6000fd5b50505050816001600160a01b03167fb5f35105f7321aaa2c0eae1a660fb9bc9624fceaa75a04a3dd171a1fe303edae82336040516135819291906153d2565b60405180910390a2505b50811561359d5761359d308684611d2d565b87816000015182602001517f2be10f2a0203c77d0fcaa9fd6484a8a1d6904de31cd820587f60c1c8c338c8148c898c888b8b336040516135e397969594939291906151d6565b60405180910390a450979650505050505050565b80471015613661576040517f08c379a000000000000000000000000000000000000000000000000000000000815260206004820152601d60248201527f416464726573733a20696e73756666696369656e742062616c616e63650000006044820152606401611160565b6000826001600160a01b03168260405160006040518083038185875af1925050503d80600081146136ae576040519150601f19603f3d011682016040523d82523d6000602084013e6136b3565b606091505b5050905080611d37576040517f08c379a000000000000000000000000000000000000000000000000000000000815260206004820152603a60248201527f416464726573733a20756e61626c6520746f2073656e642076616c75652c207260448201527f6563697069656e74206d617920686176652072657665727465640000000000006064820152608401611160565b600082815260026020908152604080832080548251818502810185019093528083528493849084015b828210156137df57600084815260209081902060408051608081018252600286029092018054835260019081015463ffffffff8082168587015264010000000082041692840192909252680100000000000000009091046001600160a01b03166060830152908352909201910161376d565b50505060008681526002602052604081209293506137fe929150614794565b8051839060005b81811015613b3957826138f257600087815260026020526040902084518590839081106138345761383461584c565b60209081029190910181015182546001818101855560009485529383902082516002909202019081559181015191909201805460408401516060909401516001600160a01b031668010000000000000000027fffffffff0000000000000000000000000000000000000000ffffffffffffffff63ffffffff958616640100000000027fffffffffffffffffffffffffffffffffffffffffffffffff000000000000000090931695909416949094171791909116919091179055613b31565b8381815181106139045761390461584c565b6020026020010151600001518310613998578381815181106139285761392861584c565b6020026020010151600001518303925061398f84828151811061394d5761394d61584c565b60200260200101516000015185838151811061396b5761396b61584c565b60200260200101516020015163ffffffff168684815181106116445761164461584c565b85019450613b31565b600260008881526020019081526020016000206040518060800160405280858785815181106139c9576139c961584c565b6020026020010151600001516139df91906157ab565b81526020018684815181106139f6576139f661584c565b60200260200101516020015163ffffffff168152602001868481518110613a1f57613a1f61584c565b60200260200101516040015163ffffffff168152602001868481518110613a4857613a4861584c565b6020908102919091018101516060908101516001600160a01b039081169093528454600181810187556000968752958390208551600290920201908155918401519190940180546040850151949095015190921668010000000000000000027fffffffff0000000000000000000000000000000000000000ffffffffffffffff63ffffffff948516640100000000027fffffffffffffffffffffffffffffffffffffffffffffffff0000000000000000909616949092169390931793909317929092161790558351613b2890849086908490811061396b5761396b61584c565b85019450600092505b600101613805565b50604080518381523360208201528591879189917f59860d79d97c1fce2be7f987915c631471f4b08f671200463cc40a3380194ffb910160405180910390a450505092915050565b6040517f86202650000000000000000000000000000000000000000000000000000000008152600160048201526001600160a01b037f00000000000000000000000000000000000000000000000000000000000000008116602483015260009182917f0000000000000000000000000000000000000000000000000000000000000000169063862026509060440160206040518083038186803b158015613c2757600080fd5b505afa158015613c3b573d6000803e3d6000fd5b505050506040513d601f19601f82011682018060405250810190613c5f919061497f565b6001600160a01b03161415613c795750633b9aca00919050565b6004546001600160a01b0316613c9157506000613d2b565b600480546040517f776958960000000000000000000000000000000000000000000000000000000081529182018490526001600160a01b03169063776958969060240160206040518083038186803b158015613cec57600080fd5b505afa925050508015613d1c575060408051601f3d908101601f19168201909252613d1991810190614cf7565b60015b613d2857506000613d2b565b90505b633b9aca00811115613d3b575060005b919050565b6040517f69e11cc5000000000000000000000000000000000000000000000000000000008152600481018690526024810185905260448101849052829060009081907f00000000000000000000000000000000000000000000000000000000000000006001600160a01b0316906369e11cc59060640160006040518083038186803b158015613dce57600080fd5b505afa158015613de2573d6000803e3d6000fd5b505050506040513d6000823e601f3d908101601f19168201604052613e0a9190810190614aba565b905060005b81518110156145d9576000828281518110613e2c57613e2c61584c565b602002602001015190506000613e4b888360400151633b9aca00612d73565b90506000811561458d5760c08301516001600160a01b0316156140735760c08301516001600160a01b031660009081526005602052604090205460ff1615613e94575080613ec4565b633b9aca008814613eb357613eac826003548a612a96565b8203613eb5565b815b9050613ec182876155f4565b95505b60007f00000000000000000000000000000000000000000000000000000000000000006001600160a01b031661eeee14613eff576000613f01565b815b905060006040518060c001604052807f00000000000000000000000000000000000000000000000000000000000000006001600160a01b031681526020018481526020017f000000000000000000000000000000000000000000000000000000000000000081526020018f81526020018d81526020018681525090508460c001516001600160a01b0316639d740bfa83836040518363ffffffff1660e01b815260040161403a919081516001600160a01b0390811682526020808401518184015260408085015181850152606080860151818601526080808701518187015260a096870151805115158888015293840151151560c0808801919091529284015160e08701529083015161010086015282015183166101208501529381015161014084015292909201519091166101608201526101800190565b6000604051808303818588803b15801561405357600080fd5b505af1158015614067573d6000803e3d6000fd5b50505050505050614587565b6060830151156145235760608301516040517f862026500000000000000000000000000000000000000000000000000000000081526000916001600160a01b037f0000000000000000000000000000000000000000000000000000000000000000169163862026509161411c917f0000000000000000000000000000000000000000000000000000000000000000906004019182526001600160a01b0316602082015260400190565b60206040518083038186803b15801561413457600080fd5b505afa158015614148573d6000803e3d6000fd5b505050506040513d601f19601f8201168201806040525081019061416c919061497f565b90506001600160a01b0381166141ae576040517f6921234300000000000000000000000000000000000000000000000000000000815260040160405180910390fd5b6001600160a01b038116301415614291576040805160208082528183019092528493506000916020820181803683370190505090508d6040516020016141f691815260200190565b60405160208183030381529060405290508460200151156142375761423285606001518460006040518060200160405280600081525085611d3c565b61428b565b6142898330876060015160006001600160a01b031689608001516001600160a01b03161415614266573361426c565b88608001515b60008a600001516040518060200160405280600081525088611e46565b505b5061451d565b6001600160a01b03811660009081526005602052604090205460ff16156142ba578291506142ea565b633b9aca0089146142d9576142d2836003548b612a96565b83036142db565b825b91506142e783886155f4565b96505b60007f00000000000000000000000000000000000000000000000000000000000000006001600160a01b031661eeee14614325576000614327565b825b604080516020808252818301909252919250600091906020820181803683370190505090508e60405160200161435f91815260200190565b60405160208183030381529060405290508560200151156144215760608601516040517f0cf8e8580000000000000000000000000000000000000000000000000000000081526001600160a01b03851691630cf8e8589185916143ea9189907f00000000000000000000000000000000000000000000000000000000000000009088906004016154bb565b6000604051808303818588803b15801561440357600080fd5b505af1158015614417573d6000803e3d6000fd5b505050505061451a565b826001600160a01b0316631ebc263f838860600151877f000000000000000000000000000000000000000000000000000000000000000060006001600160a01b03168c608001516001600160a01b0316141561447d5733614483565b8b608001515b8c516040517fffffffff0000000000000000000000000000000000000000000000000000000060e089901b1681526144c695949392916000918b90600401615464565b6020604051808303818588803b1580156144df57600080fd5b505af11580156144f3573d6000803e3d6000fd5b50505050506040513d601f19601f820116820180604052508101906145189190614cf7565b505b50505b50614587565b633b9aca0088146145425761453b826003548a612a96565b8203614544565b815b905061455082876155f4565b95506145873060006001600160a01b031685608001516001600160a01b0316141561457b5733614581565b84608001515b83611d2d565b81870396505b898b8d7f2a1f2df21da49f011c6165709ae4b279f8d6d7cffe9043c582352882d8c9698b8685336040516145c3939291906153e5565b60405180910390a4836001019350505050613e0f565b50509550959350505050565b60006145f48460035484612a96565b61010086015190915060501c6001908116141561473857600086815260026020818152604080842081516080810183528981526003805463ffffffff9081168387019081528a82168487019081526001600160a01b038d81166060808801828152895460018082018c559a8f529d8c902098519d909c029097019b8c5592519a90960180549151995190961668010000000000000000027fffffffff0000000000000000000000000000000000000000ffffffffffffffff998416640100000000027fffffffffffffffffffffffffffffffffffffffffffffffff00000000000000009092169a9093169990991798909817969096169590951790915592548151878152928301949094523390820152869189917f77813be0661650ddc1a5193ff2837df4162b251cb432651e2c060c3fc39756be910160405180910390a461478b565b6147428184612adc565b604080516001600160a01b0385168152336020820152600091839189917fcf0c92a2c6d7c42f488326b0cb900104b99984b6b218db81cd29371364a35251910160405180910390a45b95945050505050565b5080546000825560020290600052602060002090810190611c2791905b808211156147ef57600081556001810180547fffffffff000000000000000000000000000000000000000000000000000000001690556002016147b1565b5090565b60008083601f84011261480557600080fd5b50813567ffffffffffffffff81111561481d57600080fd5b60208301915083602082850101111561483557600080fd5b9250929050565b600082601f83011261484d57600080fd5b813561486061485b826155cc565b61559b565b81815284602083860101111561487557600080fd5b816020850160208301376000918101602001919091529392505050565b8051613d3b816158aa565b600082601f8301126148ae57600080fd5b81516148bc61485b826155cc565b8181528460208386010111156148d157600080fd5b611a2d8260208301602087016157c2565b600061012082840312156148f557600080fd5b6148fd61554e565b9050815181526020820151602082015260408201516040820152606082015160608201526080820151608082015260a082015160a082015260c082015160c082015261494b60e08301614892565b60e082015261010080830151818301525092915050565b60006020828403121561497457600080fd5b8135612ad5816158aa565b60006020828403121561499157600080fd5b8151612ad5816158aa565b600080604083850312156149af57600080fd5b82356149ba816158aa565b915060208301356149ca816158bf565b809150509250929050565b600080604083850312156149e857600080fd5b82356149f3816158aa565b946020939093013593505050565b600080600080600080600080610100898b031215614a1e57600080fd5b8835614a29816158aa565b975060208901359650604089013595506060890135614a47816158aa565b94506080890135935060a0890135614a5e816158aa565b925060c089013567ffffffffffffffff80821115614a7b57600080fd5b614a878c838d0161483c565b935060e08b0135915080821115614a9d57600080fd5b50614aaa8b828c0161483c565b9150509295985092959890939650565b60006020808385031215614acd57600080fd5b825167ffffffffffffffff80821115614ae557600080fd5b818501915085601f830112614af957600080fd5b815181811115614b0b57614b0b61587b565b614b19848260051b0161559b565b818152848101925083850160e0808402860187018a1015614b3957600080fd5b60009550855b84811015614bd15781838c031215614b55578687fd5b614b5d615578565b8351614b68816158bf565b815283890151614b77816158bf565b818a01526040848101519082015260608085015190820152608080850151614b9e816158aa565b9082015260a0848101519082015260c080850151614bbb816158aa565b9082015286529487019491810191600101614b3f565b50919998505050505050505050565b600060208284031215614bf257600080fd5b8151612ad5816158bf565b600060208284031215614c0f57600080fd5b81357fffffffff0000000000000000000000000000000000000000000000000000000081168114612ad557600080fd5b6000806101408385031215614c5357600080fd5b614c5d84846148e2565b915061012083015190509250929050565b6000806000806101808587031215614c8557600080fd5b614c8f86866148e2565b93506101208501519250610140850151614ca8816158aa565b61016086015190925067ffffffffffffffff811115614cc657600080fd5b614cd28782880161489d565b91505092959194509250565b600060208284031215614cf057600080fd5b5035919050565b600060208284031215614d0957600080fd5b5051919050565b60008060408385031215614d2357600080fd5b8235915060208301356149ca816158aa565b6000806000806000806000806000806101008b8d031215614d5557600080fd5b8a35995060208b0135985060408b0135614d6e816158aa565b975060608b0135614d7e816158aa565b965060808b0135955060a08b0135614d95816158bf565b945060c08b013567ffffffffffffffff80821115614db257600080fd5b614dbe8e838f016147f3565b909650945060e08d0135915080821115614dd757600080fd5b50614de48d828e016147f3565b915080935050809150509295989b9194979a5092959850565b600080600080600080600060a0888a031215614e1857600080fd5b87359650602088013595506040880135614e31816158aa565b9450606088013567ffffffffffffffff80821115614e4e57600080fd5b614e5a8b838c016147f3565b909650945060808a0135915080821115614e7357600080fd5b50614e808a828b016147f3565b989b979a50959850939692959293505050565b600080600080600080600060e0888a031215614eae57600080fd5b8735965060208801359550604088013594506060880135614ece816158aa565b93506080880135925060a0880135614ee5816158aa565b915060c088013567ffffffffffffffff811115614f0157600080fd5b614f0d8a828b0161483c565b91505092959891949750929550565b600080600080600080600060c0888a031215614f3757600080fd5b8735965060208801359550604088013594506060880135614f57816158aa565b93506080880135925060a088013567ffffffffffffffff811115614f7a57600080fd5b614e808a828b016147f3565b60008151808452614f9e8160208601602086016157c2565b601f01601f19169290920160200192915050565b80516001600160a01b031682526000610180602083810151858201526040808501518187015260608086015180516001600160a01b0316828901529283015160808801529082015160a087015281015160c086015250608083015160e085015260a083015161010061502e818701836001600160a01b03169052565b60c0850151151561012087015260e08501516101408701849052915061505683870183614f86565b92508085015191505084820361016086015261478b8282614f86565b60006101606001600160a01b03835116845260208301516020850152604083015160408501526060830151606085015260808301516150de60808601826001600160a01b0381511682526020810151602083015260408101516040830152606081015160608301525050565b5060a08301516001600160a01b031661010085015260c0830151610120850182905261510c82860182614f86565b91505060e083015184820361014086015261478b8282614f86565b60006001600160a01b03808916835287602084015286604084015285606084015260c0608084015261515c60c0840186614f86565b915080841660a084015250979650505050505050565b60006001600160a01b03808b16835289602084015288604084015287606084015286608084015260e060a08401528460e08401526101008587828601376000848701820152931660c083015250601f909201601f1916909101019695505050505050565b60006001600160a01b03808a168352808916602084015287604084015286606084015260e0608084015261520d60e0840187614f86565b83810360a085015261521f8187614f86565b92505080841660c08401525098975050505050505050565b60006101406001600160a01b03808b168452615280602085018b6001600160a01b0381511682526020810151602083015260408101516040830152606081015160608301525050565b8860a08501528760c085015280871660e085015250806101008401526152a881840186614f86565b90508281036101208401526152bd8185614f86565b9a9950505050505050505050565b6001600160a01b038616815284602082015283604082015260a0606082015260006152f960a0830185614f86565b8281036080840152610d3e8185614f86565b602080825282518282018190526000919060409081850190868401855b82811015615374578151805185528681015163ffffffff908116888701528682015116868601526060908101516001600160a01b03169085015260809093019290850190600101615328565b5091979650505050505050565b602081526000612ad56020830184614fb2565b6040815260006153a76040830185614fb2565b90506001600160a01b03831660208301529392505050565b602081526000612ad56020830184615072565b6040815260006153a76040830185615072565b61012081016154468286805115158252602081015115156020830152604081015160408301526060810151606083015260808101516001600160a01b03808216608085015260a083015160a08501528060c08401511660c085015250505050565b8360e08301526001600160a01b038316610100830152949350505050565b60006101008983528860208401526001600160a01b03808916604085015280881660608501525085608084015284151560a08401528060c0840152600081840152506101208060e08401526152bd81840185614f86565b8481528360208201526001600160a01b038316604082015260a06060820152600060a082015260c0608082015260006154f760c0830184614f86565b9695505050505050565b85815284602082015260a06040820152600061552060a0830186614f86565b82810360608401526155328186614f86565b9150506001600160a01b03831660808301529695505050505050565b604051610120810167ffffffffffffffff811182821017156155725761557261587b565b60405290565b60405160e0810167ffffffffffffffff811182821017156155725761557261587b565b604051601f8201601f1916810167ffffffffffffffff811182821017156155c4576155c461587b565b604052919050565b600067ffffffffffffffff8211156155e6576155e661587b565b50601f01601f191660200190565b60008219821115615607576156076157ee565b500190565b600082615642577f4e487b7100000000000000000000000000000000000000000000000000000000600052601260045260246000fd5b500490565b600181815b808511156156a057817fffffffffffffffffffffffffffffffffffffffffffffffffffffffffffffffff04821115615686576156866157ee565b8085161561569357918102915b93841c939080029061564c565b509250929050565b6000612ad583836000826156be5750600161091c565b816156cb5750600061091c565b81600181146156e157600281146156eb57615707565b600191505061091c565b60ff8411156156fc576156fc6157ee565b50506001821b61091c565b5060208310610133831016604e8410600b841016171561572a575081810a61091c565b6157348383615647565b807fffffffffffffffffffffffffffffffffffffffffffffffffffffffffffffffff04821115615766576157666157ee565b029392505050565b6000817fffffffffffffffffffffffffffffffffffffffffffffffffffffffffffffffff04831182151516156157a6576157a66157ee565b500290565b6000828210156157bd576157bd6157ee565b500390565b60005b838110156157dd5781810151838201526020016157c5565b83811115612a905750506000910152565b7f4e487b7100000000000000000000000000000000000000000000000000000000600052601160045260246000fd5b7f4e487b7100000000000000000000000000000000000000000000000000000000600052601260045260246000fd5b7f4e487b7100000000000000000000000000000000000000000000000000000000600052603260045260246000fd5b7f4e487b7100000000000000000000000000000000000000000000000000000000600052604160045260246000fd5b6001600160a01b0381168114611c2757600080fd5b8015158114611c2757600080fdfea26469706673582212203048e3a51c53a802cedc757646aeab17c1e8f34e2144ffb602315970ccc0276664736f6c63430008060033",
  "devdoc": {
    "details": "Inherits from - JBPayoutRedemptionPaymentTerminal: Generic terminal managing all inflows and outflows of funds into the protocol ecosystem.",
    "kind": "dev",
    "methods": {
      "acceptsToken(address,uint256)": {
        "params": {
          "_projectId": "The project ID to check for token acceptance.",
          "_token": "The token to check if this terminal accepts or not."
        },
        "returns": {
          "_0": "The flag."
        }
      },
      "addToBalanceOf(uint256,uint256,address,string,bytes)": {
        "params": {
          "_amount": "The amount of tokens to add, as a fixed point number with the same number of decimals as this terminal. If this is an ETH terminal, this is ignored and msg.value is used instead.",
          "_memo": "A memo to pass along to the emitted event.",
          "_metadata": "Extra data to pass along to the emitted event.",
          "_projectId": "The ID of the project to which the funds received belong.",
          "_token": "The token being paid. This terminal ignores this property since it only manages one currency. "
        }
      },
      "constructor": {
        "params": {
          "_baseWeightCurrency": "The currency to base token issuance on.",
          "_directory": "A contract storing directories of terminals and controllers for each project.",
          "_operatorStore": "A contract storing operator assignments.",
          "_owner": "The address that will own this contract.",
          "_prices": "A contract that exposes price feeds.",
          "_projects": "A contract which mints ERC-721's that represent project ownership and transfers.",
          "_splitsStore": "A contract that stores splits for each project.",
          "_store": "A contract that stores the terminal's data."
        }
      },
      "currencyForToken(address)": {
        "params": {
          "_token": "The token to check for the currency of."
        },
        "returns": {
          "_0": "The currency index."
        }
      },
      "currentEthOverflowOf(uint256)": {
        "details": "The current overflow is represented as a fixed point number with 18 decimals.",
        "params": {
          "_projectId": "The ID of the project to get overflow for."
        },
        "returns": {
          "_0": "The current amount of ETH overflow that project has in this terminal, as a fixed point number with 18 decimals."
        }
      },
      "decimalsForToken(address)": {
        "params": {
          "_token": "The token to check for the decimals of."
        },
        "returns": {
          "_0": "The number of decimals for the token."
        }
      },
      "distributePayoutsOf(uint256,uint256,uint256,address,uint256,string)": {
        "details": "Payouts are sent to the preprogrammed splits. Any leftover is sent to the project's owner.Anyone can distribute payouts on a project's behalf. The project can preconfigure a wildcard split that is used to send funds to msg.sender. This can be used to incentivize calling this function.All funds distributed outside of this contract or any feeless terminals incure the protocol fee.",
        "params": {
          "_amount": "The amount of terminal tokens to distribute, as a fixed point number with same number of decimals as this terminal.",
          "_currency": "The expected currency of the amount being distributed. Must match the project's current funding cycle's distribution limit currency.",
          "_memo": "A memo to pass along to the emitted event.",
          "_minReturnedTokens": "The minimum number of terminal tokens that the `_amount` should be valued at in terms of this terminal's currency, as a fixed point number with the same number of decimals as this terminal.",
          "_projectId": "The ID of the project having its payouts distributed.",
          "_token": "The token being distributed. This terminal ignores this property since it only manages one token. "
        },
        "returns": {
          "netLeftoverDistributionAmount": "The amount that was sent to the project owner, as a fixed point number with the same amount of decimals as this terminal."
        }
      },
      "heldFeesOf(uint256)": {
        "params": {
          "_projectId": "The ID of the project for which fees are being held."
        },
        "returns": {
          "_0": "An array of fees that are being held."
        }
      },
      "migrate(uint256,address)": {
        "details": "Only a project's owner or a designated operator can migrate it.",
        "params": {
          "_projectId": "The ID of the project being migrated.",
          "_to": "The terminal contract that will gain the project's funds."
        },
        "returns": {
          "balance": "The amount of funds that were migrated, as a fixed point number with the same amount of decimals as this terminal."
        }
      },
      "owner()": {
        "details": "Returns the address of the current owner."
      },
      "pay(uint256,uint256,address,address,uint256,bool,string,bytes)": {
        "params": {
          "_amount": "The amount of terminal tokens being received, as a fixed point number with the same amount of decimals as this terminal. If this terminal's token is ETH, this is ignored and msg.value is used in its place.",
          "_beneficiary": "The address to mint tokens for and pass along to the funding cycle's data source and delegate.",
          "_memo": "A memo to pass along to the emitted event, and passed along the the funding cycle's data source and delegate.  A data source can alter the memo before emitting in the event and forwarding to the delegate.",
          "_metadata": "Bytes to send along to the data source, delegate, and emitted event, if provided.",
          "_minReturnedTokens": "The minimum number of project tokens expected in return, as a fixed point number with the same amount of decimals as this terminal.",
          "_preferClaimedTokens": "A flag indicating whether the request prefers to mint project tokens into the beneficiaries wallet rather than leaving them unclaimed. This is only possible if the project has an attached token contract. Leaving them unclaimed saves gas.",
          "_projectId": "The ID of the project being paid.",
          "_token": "The token being paid. This terminal ignores this property since it only manages one token. "
        },
        "returns": {
          "_0": "The number of tokens minted for the beneficiary, as a fixed point number with 18 decimals."
        }
      },
      "processFees(uint256)": {
        "details": "Only a project owner, an operator, or the contract's owner can process held fees.",
        "params": {
          "_projectId": "The ID of the project whos held fees should be processed."
        }
      },
      "redeemTokensOf(address,uint256,uint256,address,uint256,address,string,bytes)": {
        "details": "Only a token holder or a designated operator can redeem its tokens.",
        "params": {
          "_beneficiary": "The address to send the terminal tokens to.",
          "_holder": "The account to redeem tokens for.",
          "_memo": "A memo to pass along to the emitted event.",
          "_metadata": "Bytes to send along to the data source, delegate, and emitted event, if provided.",
          "_minReturnedTokens": "The minimum amount of terminal tokens expected in return, as a fixed point number with the same amount of decimals as the terminal.",
          "_projectId": "The ID of the project to which the tokens being redeemed belong.",
          "_token": "The token being reclaimed. This terminal ignores this property since it only manages one token. ",
          "_tokenCount": "The number of project tokens to redeem, as a fixed point number with 18 decimals."
        },
        "returns": {
          "reclaimAmount": "The amount of terminal tokens that the project tokens were redeemed for, as a fixed point number with 18 decimals."
        }
      },
      "renounceOwnership()": {
        "details": "Leaves the contract without owner. It will not be possible to call `onlyOwner` functions anymore. Can only be called by the current owner. NOTE: Renouncing ownership will leave the contract without an owner, thereby removing any functionality that is only available to the owner."
      },
      "setFee(uint256)": {
        "details": "Only the owner of this contract can change the fee.",
        "params": {
          "_fee": "The new fee, out of MAX_FEE."
        }
      },
      "setFeeGauge(address)": {
        "details": "Only the owner of this contract can change the fee gauge.If the fee gauge reverts when called upon while a project is attempting to distribute its funds, a project's funds will be locked. This is a known risk.",
        "params": {
          "_feeGauge": "The new fee gauge."
        }
      },
      "setFeelessAddress(address,bool)": {
        "details": "Only the owner of this contract can set addresses as feeless.",
        "params": {
          "_address": "The address that can be paid towards while still bypassing fees.",
          "_flag": "A flag indicating whether the terminal should be feeless or not."
        }
      },
      "supportsInterface(bytes4)": {
        "details": " See {IERC165-supportsInterface}.",
        "params": {
          "_interfaceId": "The ID of the interface to check for adherance to."
        }
      },
      "transferOwnership(address)": {
        "details": "Transfers ownership of the contract to a new account (`newOwner`). Can only be called by the current owner."
      },
      "useAllowanceOf(uint256,uint256,uint256,address,uint256,address,string)": {
        "details": "Only a project's owner or a designated operator can use its allowance.Incurs the protocol fee.",
        "params": {
          "_amount": "The amount of terminal tokens to use from this project's current allowance, as a fixed point number with the same amount of decimals as this terminal.",
          "_beneficiary": "The address to send the funds to.",
          "_currency": "The expected currency of the amount being distributed. Must match the project's current funding cycle's overflow allowance currency.",
          "_memo": "A memo to pass along to the emitted event.",
          "_minReturnedTokens": "The minimum number of tokens that the `_amount` should be valued at in terms of this terminal's currency, as a fixed point number with 18 decimals.",
          "_projectId": "The ID of the project to use the allowance of.",
          "_token": "The token being distributed. This terminal ignores this property since it only manages one token. "
        },
        "returns": {
          "netDistributedAmount": "The amount of tokens that was distributed to the beneficiary, as a fixed point number with the same amount of decimals as the terminal."
        }
      }
    },
    "version": 1
  },
  "userdoc": {
    "errors": {
      "PRBMath__MulDivOverflow(uint256,uint256)": [
        {
          "notice": "Emitted when the result overflows uint256."
        }
      ]
    },
    "kind": "user",
    "methods": {
      "acceptsToken(address,uint256)": {
        "notice": "A flag indicating if this terminal accepts the specified token."
      },
      "addToBalanceOf(uint256,uint256,address,string,bytes)": {
        "notice": "Receives funds belonging to the specified project."
      },
      "baseWeightCurrency()": {
        "notice": "The currency to base token issuance on."
      },
      "currency()": {
        "notice": "The currency to use when resolving price feeds for this terminal."
      },
      "currencyForToken(address)": {
        "notice": "The currency that should be used for the specified token."
      },
      "currentEthOverflowOf(uint256)": {
        "notice": "Gets the current overflowed amount in this terminal for a specified project, in terms of ETH."
      },
      "decimals()": {
        "notice": "The number of decimals the token fixed point amounts are expected to have."
      },
      "decimalsForToken(address)": {
        "notice": "The decimals that should be used in fixed number accounting for the specified token."
      },
      "directory()": {
        "notice": "The directory of terminals and controllers for projects."
      },
      "distributePayoutsOf(uint256,uint256,uint256,address,uint256,string)": {
        "notice": "Distributes payouts for a project with the distribution limit of its current funding cycle."
      },
      "fee()": {
        "notice": "The platform fee percent."
      },
      "feeGauge()": {
        "notice": "The data source that returns a discount to apply to a project's fee."
      },
      "heldFeesOf(uint256)": {
        "notice": "The fees that are currently being held to be processed later for each project."
      },
      "isFeelessAddress(address)": {
        "notice": "Addresses that can be paid towards from this terminal without incurring a fee. _address The address that can be paid toward."
      },
      "migrate(uint256,address)": {
        "notice": "Allows a project owner to migrate its funds and operations to a new terminal that accepts the same token type."
      },
      "operatorStore()": {
        "notice": " A contract storing operator assignments."
      },
      "pay(uint256,uint256,address,address,uint256,bool,string,bytes)": {
        "notice": "Contribute tokens to a project."
      },
      "payoutSplitsGroup()": {
        "notice": "The group that payout splits coming from this terminal are identified by."
      },
      "prices()": {
        "notice": "The contract that exposes price feeds."
      },
      "processFees(uint256)": {
        "notice": "Process any fees that are being held for the project."
      },
      "projects()": {
        "notice": "Mints ERC-721's that represent project ownership and transfers."
      },
      "redeemTokensOf(address,uint256,uint256,address,uint256,address,string,bytes)": {
        "notice": "Holders can redeem their tokens to claim the project's overflowed tokens, or to trigger rules determined by the project's current funding cycle's data source."
      },
      "setFee(uint256)": {
        "notice": "Allows the fee to be updated."
      },
      "setFeeGauge(address)": {
        "notice": "Allows the fee gauge to be updated."
      },
      "setFeelessAddress(address,bool)": {
        "notice": "Sets whether projects operating on this terminal can pay towards the specified address without incurring a fee."
      },
      "splitsStore()": {
        "notice": "The contract that stores splits for each project."
      },
      "store()": {
        "notice": "The contract that stores and manages the terminal's data."
      },
      "supportsInterface(bytes4)": {
        "notice": "Indicates if this contract adheres to the specified interface."
      },
      "token()": {
        "notice": "The token that this terminal accepts."
      },
      "useAllowanceOf(uint256,uint256,uint256,address,uint256,address,string)": {
        "notice": "Allows a project to send funds from its overflow up to the preconfigured allowance."
      }
    },
    "notice": "Manages all inflows and outflows of ETH funds into the protocol ecosystem.",
    "version": 1
  },
  "storageLayout": {
    "storage": [
      {
        "astId": 53,
        "contract": "contracts/JBETHPaymentTerminal.sol:JBETHPaymentTerminal",
        "label": "_owner",
        "offset": 0,
        "slot": "0",
        "type": "t_address"
      },
      {
        "astId": 693,
        "contract": "contracts/JBETHPaymentTerminal.sol:JBETHPaymentTerminal",
        "label": "_status",
        "offset": 0,
        "slot": "1",
        "type": "t_uint256"
      },
      {
        "astId": 14550,
        "contract": "contracts/JBETHPaymentTerminal.sol:JBETHPaymentTerminal",
        "label": "_heldFeesOf",
        "offset": 0,
        "slot": "2",
        "type": "t_mapping(t_uint256,t_array(t_struct(JBFee)20245_storage)dyn_storage)"
      },
      {
        "astId": 14588,
        "contract": "contracts/JBETHPaymentTerminal.sol:JBETHPaymentTerminal",
        "label": "fee",
        "offset": 0,
        "slot": "3",
        "type": "t_uint256"
      },
      {
        "astId": 14593,
        "contract": "contracts/JBETHPaymentTerminal.sol:JBETHPaymentTerminal",
        "label": "feeGauge",
        "offset": 0,
        "slot": "4",
        "type": "t_contract(IJBFeeGauge)17625"
      },
      {
        "astId": 14599,
        "contract": "contracts/JBETHPaymentTerminal.sol:JBETHPaymentTerminal",
        "label": "isFeelessAddress",
        "offset": 0,
        "slot": "5",
        "type": "t_mapping(t_address,t_bool)"
      }
    ],
    "types": {
      "t_address": {
        "encoding": "inplace",
        "label": "address",
        "numberOfBytes": "20"
      },
      "t_array(t_struct(JBFee)20245_storage)dyn_storage": {
        "base": "t_struct(JBFee)20245_storage",
        "encoding": "dynamic_array",
        "label": "struct JBFee[]",
        "numberOfBytes": "32"
      },
      "t_bool": {
        "encoding": "inplace",
        "label": "bool",
        "numberOfBytes": "1"
      },
      "t_contract(IJBFeeGauge)17625": {
        "encoding": "inplace",
        "label": "contract IJBFeeGauge",
        "numberOfBytes": "20"
      },
      "t_mapping(t_address,t_bool)": {
        "encoding": "mapping",
        "key": "t_address",
        "label": "mapping(address => bool)",
        "numberOfBytes": "32",
        "value": "t_bool"
      },
      "t_mapping(t_uint256,t_array(t_struct(JBFee)20245_storage)dyn_storage)": {
        "encoding": "mapping",
        "key": "t_uint256",
        "label": "mapping(uint256 => struct JBFee[])",
        "numberOfBytes": "32",
        "value": "t_array(t_struct(JBFee)20245_storage)dyn_storage"
      },
      "t_struct(JBFee)20245_storage": {
        "encoding": "inplace",
        "label": "struct JBFee",
        "members": [
          {
            "astId": 20238,
            "contract": "contracts/JBETHPaymentTerminal.sol:JBETHPaymentTerminal",
            "label": "amount",
            "offset": 0,
            "slot": "0",
            "type": "t_uint256"
          },
          {
            "astId": 20240,
            "contract": "contracts/JBETHPaymentTerminal.sol:JBETHPaymentTerminal",
            "label": "fee",
            "offset": 0,
            "slot": "1",
            "type": "t_uint32"
          },
          {
            "astId": 20242,
            "contract": "contracts/JBETHPaymentTerminal.sol:JBETHPaymentTerminal",
            "label": "feeDiscount",
            "offset": 4,
            "slot": "1",
            "type": "t_uint32"
          },
          {
            "astId": 20244,
            "contract": "contracts/JBETHPaymentTerminal.sol:JBETHPaymentTerminal",
            "label": "beneficiary",
            "offset": 8,
            "slot": "1",
            "type": "t_address"
          }
        ],
        "numberOfBytes": "64"
      },
      "t_uint256": {
        "encoding": "inplace",
        "label": "uint256",
        "numberOfBytes": "32"
      },
      "t_uint32": {
        "encoding": "inplace",
        "label": "uint32",
        "numberOfBytes": "4"
      }
    }
  }
}