{
  "address": "0xFF1D73AB28140b574Bb7A90e9fBCeD1eDAFce5c1",
  "abi": [
    {
      "inputs": [
        {
          "internalType": "address",
          "name": "_owner",
          "type": "address"
        }
      ],
      "stateMutability": "nonpayable",
      "type": "constructor"
    },
    {
      "inputs": [
        {
          "internalType": "uint256",
          "name": "prod1",
          "type": "uint256"
        },
        {
          "internalType": "uint256",
          "name": "denominator",
          "type": "uint256"
        }
      ],
      "name": "PRBMath__MulDivOverflow",
      "type": "error"
    },
    {
      "inputs": [],
      "name": "PRICE_FEED_ALREADY_EXISTS",
      "type": "error"
    },
    {
      "inputs": [],
      "name": "PRICE_FEED_NOT_FOUND",
      "type": "error"
    },
    {
      "anonymous": false,
      "inputs": [
        {
          "indexed": true,
          "internalType": "uint256",
          "name": "currency",
          "type": "uint256"
        },
        {
          "indexed": true,
          "internalType": "uint256",
          "name": "base",
          "type": "uint256"
        },
        {
          "indexed": false,
          "internalType": "contract IJBPriceFeed",
          "name": "feed",
          "type": "address"
        }
      ],
      "name": "AddFeed",
      "type": "event"
    },
    {
      "anonymous": false,
      "inputs": [
        {
          "indexed": true,
          "internalType": "address",
          "name": "previousOwner",
          "type": "address"
        },
        {
          "indexed": true,
          "internalType": "address",
          "name": "newOwner",
          "type": "address"
        }
      ],
      "name": "OwnershipTransferred",
      "type": "event"
    },
    {
      "inputs": [
        {
          "internalType": "uint256",
          "name": "_currency",
          "type": "uint256"
        },
        {
          "internalType": "uint256",
          "name": "_base",
          "type": "uint256"
        },
        {
          "internalType": "contract IJBPriceFeed",
          "name": "_feed",
          "type": "address"
        }
      ],
      "name": "addFeedFor",
      "outputs": [],
      "stateMutability": "nonpayable",
      "type": "function"
    },
    {
      "inputs": [
        {
          "internalType": "uint256",
          "name": "",
          "type": "uint256"
        },
        {
          "internalType": "uint256",
          "name": "",
          "type": "uint256"
        }
      ],
      "name": "feedFor",
      "outputs": [
        {
          "internalType": "contract IJBPriceFeed",
          "name": "",
          "type": "address"
        }
      ],
      "stateMutability": "view",
      "type": "function"
    },
    {
      "inputs": [],
      "name": "owner",
      "outputs": [
        {
          "internalType": "address",
          "name": "",
          "type": "address"
        }
      ],
      "stateMutability": "view",
      "type": "function"
    },
    {
      "inputs": [
        {
          "internalType": "uint256",
          "name": "_currency",
          "type": "uint256"
        },
        {
          "internalType": "uint256",
          "name": "_base",
          "type": "uint256"
        },
        {
          "internalType": "uint256",
          "name": "_decimals",
          "type": "uint256"
        }
      ],
      "name": "priceFor",
      "outputs": [
        {
          "internalType": "uint256",
          "name": "",
          "type": "uint256"
        }
      ],
      "stateMutability": "view",
      "type": "function"
    },
    {
      "inputs": [],
      "name": "renounceOwnership",
      "outputs": [],
      "stateMutability": "nonpayable",
      "type": "function"
    },
    {
      "inputs": [
        {
          "internalType": "address",
          "name": "newOwner",
          "type": "address"
        }
      ],
      "name": "transferOwnership",
      "outputs": [],
      "stateMutability": "nonpayable",
      "type": "function"
    }
  ],
  "transactionHash": "0x06d1786fa8691ea8bfed37dbe751186fa51f45cf11274e0d7920cfef15ffd65b",
  "args": [
    "0xE9bE6df23C7f9CaBa3005DA2fa2d8714d340D0aF"
  ],
  "numDeployments": 1,
  "solcInputHash": "87acdcf5deeaa43ae3ecf62f45455645",
  "bytecode": "0x608060405234801561001057600080fd5b50604051610c6f380380610c6f83398101604081905261002f91610167565b61003833610047565b61004181610097565b50610197565b600080546001600160a01b038381166001600160a01b0319831681178455604051919092169283917f8be0079c531659141344cd1fd0a4f28419497f9722a3daafe3b4186f6b6457e09190a35050565b6000546001600160a01b031633146100f65760405162461bcd60e51b815260206004820181905260248201527f4f776e61626c653a2063616c6c6572206973206e6f7420746865206f776e657260448201526064015b60405180910390fd5b6001600160a01b03811661015b5760405162461bcd60e51b815260206004820152602660248201527f4f776e61626c653a206e6577206f776e657220697320746865207a65726f206160448201526564647265737360d01b60648201526084016100ed565b61016481610047565b50565b60006020828403121561017957600080fd5b81516001600160a01b038116811461019057600080fd5b9392505050565b610ac9806101a66000396000f3fe608060405234801561001057600080fd5b50600436106100725760003560e01c806396364e6d1161005057806396364e6d1461010a578063a4d0caf21461011d578063f2fde38b1461013e57600080fd5b806315d63a9114610077578063715018a6146100e25780638da5cb5b146100ec575b600080fd5b6100b8610085366004610863565b600160209081526000928352604080842090915290825290205473ffffffffffffffffffffffffffffffffffffffff1681565b60405173ffffffffffffffffffffffffffffffffffffffff90911681526020015b60405180910390f35b6100ea610151565b005b60005473ffffffffffffffffffffffffffffffffffffffff166100b8565b6100ea610118366004610885565b6101e3565b61013061012b3660046108be565b61035f565b6040519081526020016100d9565b6100ea61014c36600461082d565b610583565b60005473ffffffffffffffffffffffffffffffffffffffff1633146101d7576040517f08c379a000000000000000000000000000000000000000000000000000000000815260206004820181905260248201527f4f776e61626c653a2063616c6c6572206973206e6f7420746865206f776e657260448201526064015b60405180910390fd5b6101e160006106b3565b565b60005473ffffffffffffffffffffffffffffffffffffffff163314610264576040517f08c379a000000000000000000000000000000000000000000000000000000000815260206004820181905260248201527f4f776e61626c653a2063616c6c6572206973206e6f7420746865206f776e657260448201526064016101ce565b600083815260016020908152604080832085845290915290205473ffffffffffffffffffffffffffffffffffffffff16156102cb576040517fd28d564f00000000000000000000000000000000000000000000000000000000815260040160405180910390fd5b600083815260016020908152604080832085845282529182902080547fffffffffffffffffffffffff00000000000000000000000000000000000000001673ffffffffffffffffffffffffffffffffffffffff85169081179091559151918252839185917f2809ef679fa4c20b88a6467f2660840ad173b5205fef76c270c5d7ba44cb7057910160405180910390a3505050565b60008284141561037b5761037482600a61094b565b905061057c565b600084815260016020908152604080832086845290915290205473ffffffffffffffffffffffffffffffffffffffff168015610457576040517f7a3c4c170000000000000000000000000000000000000000000000000000000081526004810184905273ffffffffffffffffffffffffffffffffffffffff821690637a3c4c179060240160206040518083038186803b15801561041757600080fd5b505afa15801561042b573d6000803e3d6000fd5b505050506040513d601f19601f8201168201806040525081019061044f919061084a565b91505061057c565b50600083815260016020908152604080832087845290915290205473ffffffffffffffffffffffffffffffffffffffff16801561054a5761044f61049c84600a61094b565b6104a785600a61094b565b6040517f7a3c4c170000000000000000000000000000000000000000000000000000000081526004810187905273ffffffffffffffffffffffffffffffffffffffff851690637a3c4c179060240160206040518083038186803b15801561050d57600080fd5b505afa158015610521573d6000803e3d6000fd5b505050506040513d601f19601f82011682018060405250810190610545919061084a565b610728565b6040517f75c9d5ca00000000000000000000000000000000000000000000000000000000815260040160405180910390fd5b9392505050565b60005473ffffffffffffffffffffffffffffffffffffffff163314610604576040517f08c379a000000000000000000000000000000000000000000000000000000000815260206004820181905260248201527f4f776e61626c653a2063616c6c6572206973206e6f7420746865206f776e657260448201526064016101ce565b73ffffffffffffffffffffffffffffffffffffffff81166106a7576040517f08c379a000000000000000000000000000000000000000000000000000000000815260206004820152602660248201527f4f776e61626c653a206e6577206f776e657220697320746865207a65726f206160448201527f646472657373000000000000000000000000000000000000000000000000000060648201526084016101ce565b6106b0816106b3565b50565b6000805473ffffffffffffffffffffffffffffffffffffffff8381167fffffffffffffffffffffffff0000000000000000000000000000000000000000831681178455604051919092169283917f8be0079c531659141344cd1fd0a4f28419497f9722a3daafe3b4186f6b6457e09190a35050565b600080807fffffffffffffffffffffffffffffffffffffffffffffffffffffffffffffffff85870985870292508281108382030391505080600014156107815783828161077757610777610a42565b049250505061057c565b8381106107c4576040517f773cc18c00000000000000000000000000000000000000000000000000000000815260048101829052602481018590526044016101ce565b60008486880960026001871981018816978890046003810283188082028403028082028403028082028403028082028403028082028403029081029092039091026000889003889004909101858311909403939093029303949094049190911702949350505050565b60006020828403121561083f57600080fd5b813561057c81610a71565b60006020828403121561085c57600080fd5b5051919050565b6000806040838503121561087657600080fd5b50508035926020909101359150565b60008060006060848603121561089a57600080fd5b833592506020840135915060408401356108b381610a71565b809150509250925092565b6000806000606084860312156108d357600080fd5b505081359360208301359350604090920135919050565b600181815b8085111561094357817fffffffffffffffffffffffffffffffffffffffffffffffffffffffffffffffff0482111561092957610929610a13565b8085161561093657918102915b93841c93908002906108ef565b509250929050565b600061057c838360008261096157506001610a0d565b8161096e57506000610a0d565b8160018114610984576002811461098e576109aa565b6001915050610a0d565b60ff84111561099f5761099f610a13565b50506001821b610a0d565b5060208310610133831016604e8410600b84101617156109cd575081810a610a0d565b6109d783836108ea565b807fffffffffffffffffffffffffffffffffffffffffffffffffffffffffffffffff04821115610a0957610a09610a13565b0290505b92915050565b7f4e487b7100000000000000000000000000000000000000000000000000000000600052601160045260246000fd5b7f4e487b7100000000000000000000000000000000000000000000000000000000600052601260045260246000fd5b73ffffffffffffffffffffffffffffffffffffffff811681146106b057600080fdfea264697066735822122001c1579e287d6aff7e85c92dd8ba4781c9bb0fea899df13298f74e9a32f8d3cf64736f6c63430008060033",
  "devdoc": {
    "details": "Adheres to - IJBPrices: General interface for the methods in this contract that interact with the blockchain's state according to the protocol's rules.Inherits from - Ownable: Includes convenience functionality for checking a message sender's permissions before executing certain transactions.",
    "kind": "dev",
    "methods": {
      "addFeedFor(uint256,uint256,address)": {
        "details": "Current feeds can't be modified.",
        "params": {
          "_base": "The base currency unit being priced by the feed.",
          "_currency": "The currency units the feed's resulting price is in terms of.",
          "_feed": "The price feed being added."
        }
      },
      "constructor": {
        "params": {
          "_owner": "The address that will own the contract."
        }
      },
      "owner()": {
        "details": "Returns the address of the current owner."
      },
      "priceFor(uint256,uint256,uint256)": {
        "params": {
          "_base": "The base currency unit being priced.",
          "_currency": "The currency units the resulting price is in terms of.",
          "_decimals": "The number of decimals the returned fixed point price should include."
        },
        "returns": {
          "_0": "The price of the currency in terms of the base, as a fixed point number with the specified number of decimals."
        }
      },
      "renounceOwnership()": {
        "details": "Leaves the contract without owner. It will not be possible to call `onlyOwner` functions anymore. Can only be called by the current owner. NOTE: Renouncing ownership will leave the contract without an owner, thereby removing any functionality that is only available to the owner."
      },
      "transferOwnership(address)": {
        "details": "Transfers ownership of the contract to a new account (`newOwner`). Can only be called by the current owner."
      }
    },
    "stateVariables": {
      "feedFor": {
        "details": "The feed returns the number of `_currency` units that can be converted to 1 `_base` unit. _currency The currency units the feed's resulting price is in terms of. _base The base currency unit being priced by the feed."
      }
    },
    "version": 1
  },
  "userdoc": {
    "errors": {
      "PRBMath__MulDivOverflow(uint256,uint256)": [
        {
          "notice": "Emitted when the result overflows uint256."
        }
      ]
    },
    "kind": "user",
    "methods": {
      "addFeedFor(uint256,uint256,address)": {
        "notice": " Add a price feed for a currency in terms of the provided base currency."
      },
      "feedFor(uint256,uint256)": {
        "notice": " The available price feeds."
      },
      "priceFor(uint256,uint256,uint256)": {
        "notice": "Gets the number of `_currency` units that can be converted to 1 `_base` unit."
      }
    },
    "notice": " Manages and normalizes price feeds.",
    "version": 1
  },
  "storageLayout": {
    "storage": [
      {
        "astId": 53,
        "contract": "contracts/JBPrices.sol:JBPrices",
        "label": "_owner",
        "offset": 0,
        "slot": "0",
        "type": "t_address"
      },
      {
        "astId": 10458,
        "contract": "contracts/JBPrices.sol:JBPrices",
        "label": "feedFor",
        "offset": 0,
        "slot": "1",
        "type": "t_mapping(t_uint256,t_mapping(t_uint256,t_contract(IJBPriceFeed)18181))"
      }
    ],
    "types": {
      "t_address": {
        "encoding": "inplace",
        "label": "address",
        "numberOfBytes": "20"
      },
      "t_contract(IJBPriceFeed)18181": {
        "encoding": "inplace",
        "label": "contract IJBPriceFeed",
        "numberOfBytes": "20"
      },
      "t_mapping(t_uint256,t_contract(IJBPriceFeed)18181)": {
        "encoding": "mapping",
        "key": "t_uint256",
        "label": "mapping(uint256 => contract IJBPriceFeed)",
        "numberOfBytes": "32",
        "value": "t_contract(IJBPriceFeed)18181"
      },
      "t_mapping(t_uint256,t_mapping(t_uint256,t_contract(IJBPriceFeed)18181))": {
        "encoding": "mapping",
        "key": "t_uint256",
        "label": "mapping(uint256 => mapping(uint256 => contract IJBPriceFeed))",
        "numberOfBytes": "32",
        "value": "t_mapping(t_uint256,t_contract(IJBPriceFeed)18181)"
      },
      "t_uint256": {
        "encoding": "inplace",
        "label": "uint256",
        "numberOfBytes": "32"
      }
    }
  }
}