{
  "_format": "hh-sol-artifact-1",
  "contractName": "AlwaysAccess",
  "sourceName": "contracts/v3/test/AlwaysAccess.sol",
  "abi": [
    {
      "inputs": [
        {
          "internalType": "bool",
          "name": "_authorized",
          "type": "bool"
        }
      ],
      "stateMutability": "nonpayable",
      "type": "constructor"
    },
    {
      "inputs": [
        {
          "internalType": "address",
          "name": "_address",
          "type": "address"
        }
      ],
      "name": "allowedControllers",
      "outputs": [
        {
          "internalType": "bool",
          "name": "",
          "type": "bool"
        }
      ],
      "stateMutability": "view",
      "type": "function"
    },
    {
      "inputs": [
        {
          "internalType": "address",
          "name": "_address",
          "type": "address"
        }
      ],
      "name": "allowedStrategies",
      "outputs": [
        {
          "internalType": "bool",
          "name": "",
          "type": "bool"
        }
      ],
      "stateMutability": "view",
      "type": "function"
    },
    {
      "inputs": [
        {
          "internalType": "address",
          "name": "_address",
          "type": "address"
        }
      ],
      "name": "allowedVaults",
      "outputs": [
        {
          "internalType": "bool",
          "name": "",
          "type": "bool"
        }
      ],
      "stateMutability": "view",
      "type": "function"
    },
    {
      "inputs": [
        {
          "internalType": "address",
          "name": "_address",
          "type": "address"
        },
        {
          "internalType": "bool",
          "name": "_authorized",
          "type": "bool"
        }
      ],
      "name": "setAuthorized",
      "outputs": [],
      "stateMutability": "nonpayable",
      "type": "function"
    }
  ],
  "bytecode": "0x608060405234801561001057600080fd5b506040516101923803806101928339818101604052602081101561003357600080fd5b5051336000908152602081905260409020805491151560ff1990921691909117905561012e806100646000396000f3fe6080604052348015600f57600080fd5b506004361060465760003560e01c80636aef220a14604b578063711bf9b21460825780637ae6c8d414604b578063e8d76bce14604b575b600080fd5b606e60048036036020811015605f57600080fd5b50356001600160a01b031660af565b604080519115158252519081900360200190f35b60ad60048036036040811015609657600080fd5b506001600160a01b038135169060200135151560cd565b005b6001600160a01b031660009081526020819052604090205460ff1690565b6001600160a01b03919091166000908152602081905260409020805460ff191691151591909117905556fea26469706673582212201f5f6a8929d4d9bee4257cb92049e19b73aa8371ddae404230cd67d295a5dcad64736f6c634300060c0033",
  "linkReferences": {},
  "deployedLinkReferences": {}
}