{
  "_format": "hh-sol-artifact-1",
  "contractName": "MockGenericVault",
  "sourceName": "contracts/mock/MockGenericVault.sol",
  "abi": [
    {
      "inputs": [
        {
          "internalType": "address",
          "name": "_token",
          "type": "address"
        }
      ],
      "stateMutability": "nonpayable",
      "type": "constructor"
    },
    {
      "anonymous": false,
      "inputs": [
        {
          "indexed": true,
          "internalType": "address",
          "name": "src",
          "type": "address"
        },
        {
          "indexed": true,
          "internalType": "address",
          "name": "dst",
          "type": "address"
        },
        {
          "indexed": false,
          "internalType": "uint256",
          "name": "amt",
          "type": "uint256"
        }
      ],
      "name": "Approval",
      "type": "event"
    },
    {
      "anonymous": false,
      "inputs": [
        {
          "indexed": true,
          "internalType": "address",
          "name": "src",
          "type": "address"
        },
        {
          "indexed": true,
          "internalType": "address",
          "name": "dst",
          "type": "address"
        },
        {
          "indexed": false,
          "internalType": "uint256",
          "name": "amt",
          "type": "uint256"
        }
      ],
      "name": "Transfer",
      "type": "event"
    },
    {
      "inputs": [
        {
          "internalType": "address",
          "name": "src",
          "type": "address"
        },
        {
          "internalType": "address",
          "name": "dst",
          "type": "address"
        }
      ],
      "name": "allowance",
      "outputs": [
        {
          "internalType": "uint256",
          "name": "",
          "type": "uint256"
        }
      ],
      "stateMutability": "view",
      "type": "function"
    },
    {
      "inputs": [
        {
          "internalType": "address",
          "name": "dst",
          "type": "address"
        },
        {
          "internalType": "uint256",
          "name": "amt",
          "type": "uint256"
        }
      ],
      "name": "approve",
      "outputs": [
        {
          "internalType": "bool",
          "name": "",
          "type": "bool"
        }
      ],
      "stateMutability": "nonpayable",
      "type": "function"
    },
    {
      "inputs": [],
      "name": "available",
      "outputs": [
        {
          "internalType": "uint256",
          "name": "",
          "type": "uint256"
        }
      ],
      "stateMutability": "view",
      "type": "function"
    },
    {
      "inputs": [],
      "name": "balance",
      "outputs": [
        {
          "internalType": "uint256",
          "name": "",
          "type": "uint256"
        }
      ],
      "stateMutability": "view",
      "type": "function"
    },
    {
      "inputs": [
        {
          "internalType": "address",
          "name": "whom",
          "type": "address"
        }
      ],
      "name": "balanceOf",
      "outputs": [
        {
          "internalType": "uint256",
          "name": "",
          "type": "uint256"
        }
      ],
      "stateMutability": "view",
      "type": "function"
    },
    {
      "inputs": [
        {
          "internalType": "uint256",
          "name": "amt",
          "type": "uint256"
        }
      ],
      "name": "burn",
      "outputs": [
        {
          "internalType": "bool",
          "name": "",
          "type": "bool"
        }
      ],
      "stateMutability": "nonpayable",
      "type": "function"
    },
    {
      "inputs": [
        {
          "internalType": "address",
          "name": "src",
          "type": "address"
        },
        {
          "internalType": "uint256",
          "name": "amt",
          "type": "uint256"
        }
      ],
      "name": "burnFrom",
      "outputs": [
        {
          "internalType": "bool",
          "name": "",
          "type": "bool"
        }
      ],
      "stateMutability": "nonpayable",
      "type": "function"
    },
    {
      "inputs": [],
      "name": "decimals",
      "outputs": [
        {
          "internalType": "uint8",
          "name": "",
          "type": "uint8"
        }
      ],
      "stateMutability": "view",
      "type": "function"
    },
    {
      "inputs": [
        {
          "internalType": "uint256",
          "name": "_amount",
          "type": "uint256"
        }
      ],
      "name": "deposit",
      "outputs": [],
      "stateMutability": "nonpayable",
      "type": "function"
    },
    {
      "inputs": [],
      "name": "depositAll",
      "outputs": [],
      "stateMutability": "nonpayable",
      "type": "function"
    },
    {
      "inputs": [
        {
          "internalType": "uint256",
          "name": "amt",
          "type": "uint256"
        }
      ],
      "name": "faucet",
      "outputs": [
        {
          "internalType": "bool",
          "name": "",
          "type": "bool"
        }
      ],
      "stateMutability": "nonpayable",
      "type": "function"
    },
    {
      "inputs": [],
      "name": "getPricePerFullShare",
      "outputs": [
        {
          "internalType": "uint256",
          "name": "",
          "type": "uint256"
        }
      ],
      "stateMutability": "view",
      "type": "function"
    },
    {
      "inputs": [],
      "name": "max",
      "outputs": [
        {
          "internalType": "uint256",
          "name": "",
          "type": "uint256"
        }
      ],
      "stateMutability": "view",
      "type": "function"
    },
    {
      "inputs": [],
      "name": "min",
      "outputs": [
        {
          "internalType": "uint256",
          "name": "",
          "type": "uint256"
        }
      ],
      "stateMutability": "view",
      "type": "function"
    },
    {
      "inputs": [
        {
          "internalType": "address",
          "name": "dst",
          "type": "address"
        },
        {
          "internalType": "uint256",
          "name": "amt",
          "type": "uint256"
        }
      ],
      "name": "mint",
      "outputs": [
        {
          "internalType": "bool",
          "name": "",
          "type": "bool"
        }
      ],
      "stateMutability": "nonpayable",
      "type": "function"
    },
    {
      "inputs": [],
      "name": "name",
      "outputs": [
        {
          "internalType": "string",
          "name": "",
          "type": "string"
        }
      ],
      "stateMutability": "view",
      "type": "function"
    },
    {
      "inputs": [],
      "name": "symbol",
      "outputs": [
        {
          "internalType": "string",
          "name": "",
          "type": "string"
        }
      ],
      "stateMutability": "view",
      "type": "function"
    },
    {
      "inputs": [],
      "name": "token",
      "outputs": [
        {
          "internalType": "contract IERC20",
          "name": "",
          "type": "address"
        }
      ],
      "stateMutability": "view",
      "type": "function"
    },
    {
      "inputs": [],
      "name": "totalSupply",
      "outputs": [
        {
          "internalType": "uint256",
          "name": "",
          "type": "uint256"
        }
      ],
      "stateMutability": "view",
      "type": "function"
    },
    {
      "inputs": [
        {
          "internalType": "address",
          "name": "dst",
          "type": "address"
        },
        {
          "internalType": "uint256",
          "name": "amt",
          "type": "uint256"
        }
      ],
      "name": "transfer",
      "outputs": [
        {
          "internalType": "bool",
          "name": "",
          "type": "bool"
        }
      ],
      "stateMutability": "nonpayable",
      "type": "function"
    },
    {
      "inputs": [
        {
          "internalType": "address",
          "name": "src",
          "type": "address"
        },
        {
          "internalType": "address",
          "name": "dst",
          "type": "address"
        },
        {
          "internalType": "uint256",
          "name": "amt",
          "type": "uint256"
        }
      ],
      "name": "transferFrom",
      "outputs": [
        {
          "internalType": "bool",
          "name": "",
          "type": "bool"
        }
      ],
      "stateMutability": "nonpayable",
      "type": "function"
    },
    {
      "inputs": [
        {
          "internalType": "address",
          "name": "newOwner",
          "type": "address"
        }
      ],
      "name": "transferOwnership",
      "outputs": [],
      "stateMutability": "nonpayable",
      "type": "function"
    },
    {
      "inputs": [
        {
          "internalType": "uint256",
          "name": "_shares",
          "type": "uint256"
        }
      ],
      "name": "withdraw",
      "outputs": [],
      "stateMutability": "nonpayable",
      "type": "function"
    },
    {
      "inputs": [],
      "name": "withdrawAll",
      "outputs": [],
      "stateMutability": "nonpayable",
      "type": "function"
    }
  ],
  "bytecode": "0x608060405261251c6007553480156200001757600080fd5b50604051620019ca380380620019ca833981810160405260208110156200003d57600080fd5b5051604080516306fdde0360e01b815290516001600160a01b038316916306fdde03916004808301926000929190829003018186803b1580156200008057600080fd5b505afa15801562000095573d6000803e3d6000fd5b505050506040513d6000823e601f3d908101601f191682016040526020811015620000bf57600080fd5b8101908080516040519392919084640100000000821115620000e057600080fd5b908301906020820185811115620000f657600080fd5b82516401000000008111828201881017156200011157600080fd5b82525081516020918201929091019080838360005b838110156200014057818101518382015260200162000126565b50505050905090810190601f1680156200016e5780820380516001836020036101000a031916815260200191505b5060405250505060405160200180806d023b2b732b934b1902b30bab63a160951b815250600e0182805190602001908083835b60208310620001c25780518252601f199092019160209182019101620001a1565b6001836020036101000a038019825116818451168082178552505050505050905001915050604051602081830303815290604052816001600160a01b03166395d89b416040518163ffffffff1660e01b815260040160006040518083038186803b1580156200023057600080fd5b505afa15801562000245573d6000803e3d6000fd5b505050506040513d6000823e601f3d908101601f1916820160405260208110156200026f57600080fd5b81019080805160405193929190846401000000008211156200029057600080fd5b908301906020820185811115620002a657600080fd5b8251640100000000811182820188101715620002c157600080fd5b82525081516020918201929091019080838360005b83811015620002f0578181015183820152602001620002d6565b50505050905090810190601f1680156200031e5780820380516001836020036101000a031916815260200191505b506040525050506040516020018080603b60f91b81525060010182805190602001908083835b60208310620003655780518252601f19909201916020918201910162000344565b6001836020036101000a038019825116818451168082178552505050505050905001915050604051602081830303815290604052826001600160a01b031663313ce5676040518163ffffffff1660e01b815260040160206040518083038186803b158015620003d357600080fd5b505afa158015620003e8573d6000803e3d6000fd5b505050506040513d6020811015620003ff57600080fd5b50518251620004169060009060208601906200047a565b5081516200042c9060019060208501906200047a565b506002805460ff191660ff9290921691909117610100600160a81b03191661010033021790555050600680546001600160a01b0319166001600160a01b039290921691909117905562000516565b828054600181600116156101000203166002900490600052602060002090601f016020900481019282601f10620004bd57805160ff1916838001178555620004ed565b82800160010185558215620004ed579182015b82811115620004ed578251825591602001919060010190620004d0565b50620004fb929150620004ff565b5090565b5b80821115620004fb576000815560010162000500565b6114a480620005266000396000f3fe608060405234801561001057600080fd5b50600436106101585760003560e01c806377c7b8fc116100c3578063b6b55f251161007c578063b6b55f25146103bb578063dd62ed3e146103d8578063de5f626814610406578063f2fde38b1461040e578063f889794514610434578063fc0c546a1461043c57610158565b806377c7b8fc1461034357806379cc67901461034b578063853828b61461037757806395d89b411461037f578063a9059cbb14610387578063b69ef8a8146103b357610158565b806340c10f191161011557806340c10f19146102a757806342966c68146102d357806348a0d754146102f057806357915897146102f85780636ac5db191461031557806370a082311461031d57610158565b806306fdde031461015d578063095ea7b3146101da57806318160ddd1461021a57806323b872dd146102345780632e1a7d4d1461026a578063313ce56714610289575b600080fd5b610165610460565b6040805160208082528351818301528351919283929083019185019080838360005b8381101561019f578181015183820152602001610187565b50505050905090810190601f1680156101cc5780820380516001836020036101000a031916815260200191505b509250505060405180910390f35b610206600480360360408110156101f057600080fd5b506001600160a01b0381351690602001356104f6565b604080519115158252519081900360200190f35b61022261055d565b60408051918252519081900360200190f35b6102066004803603606081101561024a57600080fd5b506001600160a01b03813581169160208101359091169060400135610563565b6102876004803603602081101561028057600080fd5b50356106c3565b005b61029161070f565b6040805160ff9092168252519081900360200190f35b610206600480360360408110156102bd57600080fd5b506001600160a01b038135169060200135610718565b610206600480360360208110156102e957600080fd5b5035610782565b6102226107e1565b6102066004803603602081101561030e57600080fd5b5035610875565b610222610881565b6102226004803603602081101561033357600080fd5b50356001600160a01b0316610887565b6102226108a2565b6102066004803603604081101561036157600080fd5b506001600160a01b0381351690602001356108c3565b61028761097a565b61016561098d565b6102066004803603604081101561039d57600080fd5b506001600160a01b0381351690602001356109ed565b6102226109fa565b610287600480360360208110156103d157600080fd5b5035610a76565b610222600480360360408110156103ee57600080fd5b506001600160a01b0381358116916020013516610bdc565b610287610c07565b6102876004803603602081101561042457600080fd5b50356001600160a01b0316610c84565b610222610d00565b610444610d06565b604080516001600160a01b039092168252519081900360200190f35b60008054604080516020601f60026000196101006001881615020190951694909404938401819004810282018101909252828152606093909290918301828280156104ec5780601f106104c1576101008083540402835291602001916104ec565b820191906000526020600020905b8154815290600101906020018083116104cf57829003601f168201915b5050505050905090565b3360008181526005602090815260408083206001600160a01b038716808552908352818420869055815186815291519394909390927f8c5be1e5ebec7d5bd14f71427d1e84f3dd0314c0f7b2291e5b200ac8c7c3b925928290030190a35060015b92915050565b60035490565b6000336001600160a01b038516148061059f57506001600160a01b03841660009081526005602090815260408083203384529091529020548211155b6105db576040805162461bcd60e51b815260206004820152600860248201526710b9b832b73232b960c11b604482015290519081900360640190fd5b6105e6848484610d15565b336001600160a01b0385161480159061062457506001600160a01b038416600090815260056020908152604080832033845290915290205460001914155b156106b8576001600160a01b03841660009081526005602090815260408083203384529091529020546106579083610e19565b6001600160a01b03858116600090815260056020908152604080832033808552908352928190208590558051948552519287169391927f8c5be1e5ebec7d5bd14f71427d1e84f3dd0314c0f7b2291e5b200ac8c7c3b9259281900390910190a35b5060015b9392505050565b60006106e86106d061055d565b6106e2846106dc6109fa565b90610e29565b90610e82565b90506106f43383610ee9565b60065461070b906001600160a01b03163383610f7a565b5050565b60025460ff1690565b60025460009061010090046001600160a01b0316331461076f576040805162461bcd60e51b815260206004820152600d60248201526c22a9292fa727aa2fa7aba722a960991b604482015290519081900360640190fd5b6107798383610fd1565b50600192915050565b336000908152600460205260408120548211156107cf576040805162461bcd60e51b815260206004808301919091526024820152630858985b60e21b604482015290519081900360640190fd5b6107d93383610ee9565b506001919050565b600754600654604080516370a0823160e01b8152306004820152905160009361087093612710936106e2936001600160a01b03909216916370a0823191602480820192602092909190829003018186803b15801561083e57600080fd5b505afa158015610852573d6000803e3d6000fd5b505050506040513d602081101561086857600080fd5b505190610e29565b905090565b60006107d93383610fd1565b61271081565b6001600160a01b031660009081526004602052604090205490565b60006108706108af61055d565b6106e2670de0b6b3a76400006106dc6109fa565b60025460009061010090046001600160a01b0316331461091a576040805162461bcd60e51b815260206004820152600d60248201526c22a9292fa727aa2fa7aba722a960991b604482015290519081900360640190fd5b6001600160a01b038316600090815260046020526040902054821115610970576040805162461bcd60e51b815260206004808301919091526024820152630858985b60e21b604482015290519081900360640190fd5b6107798383610ee9565b61098b61098633610887565b6106c3565b565b60018054604080516020601f600260001961010087891615020190951694909404938401819004810282018101909252828152606093909290918301828280156104ec5780601f106104c1576101008083540402835291602001916104ec565b6000610779338484610d15565b600654604080516370a0823160e01b815230600482015290516000926001600160a01b0316916370a08231916024808301926020929190829003018186803b158015610a4557600080fd5b505afa158015610a59573d6000803e3d6000fd5b505050506040513d6020811015610a6f57600080fd5b5051905090565b6000610a806109fa565b600654604080516370a0823160e01b815230600482015290519293506000926001600160a01b03909216916370a0823191602480820192602092909190829003018186803b158015610ad157600080fd5b505afa158015610ae5573d6000803e3d6000fd5b505050506040513d6020811015610afb57600080fd5b5051600654909150610b18906001600160a01b0316333086611062565b600654604080516370a0823160e01b815230600482015290516000926001600160a01b0316916370a08231916024808301926020929190829003018186803b158015610b6357600080fd5b505afa158015610b77573d6000803e3d6000fd5b505050506040513d6020811015610b8d57600080fd5b50519050610b9b81836110c2565b93506000610ba761055d565b610bb2575083610bcb565b610bc8846106e2610bc161055d565b8890610e29565b90505b610bd53382610fd1565b5050505050565b6001600160a01b03918216600090815260056020908152604080832093909416825291909152205490565b600654604080516370a0823160e01b8152336004820152905161098b926001600160a01b0316916370a08231916024808301926020929190829003018186803b158015610c5357600080fd5b505afa158015610c67573d6000803e3d6000fd5b505050506040513d6020811015610c7d57600080fd5b5051610a76565b60025461010090046001600160a01b03163314610cd8576040805162461bcd60e51b815260206004820152600d60248201526c22a9292fa727aa2fa7aba722a960991b604482015290519081900360640190fd5b600280546001600160a01b0390921661010002610100600160a81b0319909216919091179055565b60075481565b6006546001600160a01b031681565b6001600160a01b038316600090815260046020526040902054811115610d6b576040805162461bcd60e51b815260206004808301919091526024820152630858985b60e21b604482015290519081900360640190fd5b6001600160a01b038316600090815260046020526040902054610d8e9082610e19565b6001600160a01b038085166000908152600460205260408082209390935590841681522054610dbd908261111f565b6001600160a01b0380841660008181526004602090815260409182902094909455805185815290519193928716927fddf252ad1be2c89b69c2b068fc378daa952ba7f163c4a11628f55a4df523b3ef92918290030190a3505050565b8082038281111561055757600080fd5b600082610e3857506000610557565b82820282848281610e4557fe5b04146106bc5760405162461bcd60e51b81526004018080602001828103825260218152602001806114246021913960400191505060405180910390fd5b6000808211610ed8576040805162461bcd60e51b815260206004820152601a60248201527f536166654d6174683a206469766973696f6e206279207a65726f000000000000604482015290519081900360640190fd5b818381610ee157fe5b049392505050565b6001600160a01b038216600090815260046020526040902054610f0c9082610e19565b6001600160a01b038316600090815260046020526040902055600354610f329082610e19565b6003556040805182815290516000916001600160a01b038516917fddf252ad1be2c89b69c2b068fc378daa952ba7f163c4a11628f55a4df523b3ef9181900360200190a35050565b604080516001600160a01b038416602482015260448082018490528251808303909101815260649091019091526020810180516001600160e01b031663a9059cbb60e01b179052610fcc90849061112f565b505050565b6001600160a01b038216600090815260046020526040902054610ff4908261111f565b6001600160a01b03831660009081526004602052604090205560035461101a908261111f565b6003556040805182815290516001600160a01b038416916000917fddf252ad1be2c89b69c2b068fc378daa952ba7f163c4a11628f55a4df523b3ef9181900360200190a35050565b604080516001600160a01b0380861660248301528416604482015260648082018490528251808303909101815260849091019091526020810180516001600160e01b03166323b872dd60e01b1790526110bc90859061112f565b50505050565b600082821115611119576040805162461bcd60e51b815260206004820152601e60248201527f536166654d6174683a207375627472616374696f6e206f766572666c6f770000604482015290519081900360640190fd5b50900390565b8082018281101561055757600080fd5b6060611184826040518060400160405280602081526020017f5361666545524332303a206c6f772d6c6576656c2063616c6c206661696c6564815250856001600160a01b03166111e09092919063ffffffff16565b805190915015610fcc578080602001905160208110156111a357600080fd5b5051610fcc5760405162461bcd60e51b815260040180806020018281038252602a815260200180611445602a913960400191505060405180910390fd5b60606111ef84846000856111f7565b949350505050565b6060824710156112385760405162461bcd60e51b81526004018080602001828103825260268152602001806113fe6026913960400191505060405180910390fd5b61124185611353565b611292576040805162461bcd60e51b815260206004820152601d60248201527f416464726573733a2063616c6c20746f206e6f6e2d636f6e7472616374000000604482015290519081900360640190fd5b60006060866001600160a01b031685876040518082805190602001908083835b602083106112d15780518252601f1990920191602091820191016112b2565b6001836020036101000a03801982511681845116808217855250505050505090500191505060006040518083038185875af1925050503d8060008114611333576040519150601f19603f3d011682016040523d82523d6000602084013e611338565b606091505b5091509150611348828286611359565b979650505050505050565b3b151590565b606083156113685750816106bc565b8251156113785782518084602001fd5b8160405162461bcd60e51b81526004018080602001828103825283818151815260200191508051906020019080838360005b838110156113c25781810151838201526020016113aa565b50505050905090810190601f1680156113ef5780820380516001836020036101000a031916815260200191505b509250505060405180910390fdfe416464726573733a20696e73756666696369656e742062616c616e636520666f722063616c6c536166654d6174683a206d756c7469706c69636174696f6e206f766572666c6f775361666545524332303a204552433230206f7065726174696f6e20646964206e6f742073756363656564a26469706673582212203996bd55672ae7a2725d6f5198b3c07c86703f532fc624b3846fd5d2b5fadab364736f6c634300060c0033",
  "linkReferences": {},
  "deployedLinkReferences": {}
}