{
  "_format": "hh-sol-artifact-1",
  "contractName": "MockIdleToken",
  "sourceName": "contracts/mock/MockIdleToken.sol",
  "abi": [
    {
      "inputs": [
        {
          "internalType": "string",
          "name": "_name",
          "type": "string"
        },
        {
          "internalType": "string",
          "name": "_symbol",
          "type": "string"
        },
        {
          "internalType": "address",
          "name": "_underlyingAsset",
          "type": "address"
        },
        {
          "internalType": "address",
          "name": "_rewardToken",
          "type": "address"
        },
        {
          "internalType": "address",
          "name": "_govToken",
          "type": "address"
        }
      ],
      "stateMutability": "nonpayable",
      "type": "constructor"
    },
    {
      "anonymous": false,
      "inputs": [
        {
          "indexed": true,
          "internalType": "address",
          "name": "owner",
          "type": "address"
        },
        {
          "indexed": true,
          "internalType": "address",
          "name": "spender",
          "type": "address"
        },
        {
          "indexed": false,
          "internalType": "uint256",
          "name": "value",
          "type": "uint256"
        }
      ],
      "name": "Approval",
      "type": "event"
    },
    {
      "anonymous": false,
      "inputs": [
        {
          "indexed": true,
          "internalType": "address",
          "name": "from",
          "type": "address"
        },
        {
          "indexed": true,
          "internalType": "address",
          "name": "to",
          "type": "address"
        },
        {
          "indexed": false,
          "internalType": "uint256",
          "name": "value",
          "type": "uint256"
        }
      ],
      "name": "Transfer",
      "type": "event"
    },
    {
      "inputs": [
        {
          "internalType": "address",
          "name": "owner",
          "type": "address"
        },
        {
          "internalType": "address",
          "name": "spender",
          "type": "address"
        }
      ],
      "name": "allowance",
      "outputs": [
        {
          "internalType": "uint256",
          "name": "",
          "type": "uint256"
        }
      ],
      "stateMutability": "view",
      "type": "function"
    },
    {
      "inputs": [
        {
          "internalType": "address",
          "name": "spender",
          "type": "address"
        },
        {
          "internalType": "uint256",
          "name": "amount",
          "type": "uint256"
        }
      ],
      "name": "approve",
      "outputs": [
        {
          "internalType": "bool",
          "name": "",
          "type": "bool"
        }
      ],
      "stateMutability": "nonpayable",
      "type": "function"
    },
    {
      "inputs": [
        {
          "internalType": "address",
          "name": "account",
          "type": "address"
        }
      ],
      "name": "balanceOf",
      "outputs": [
        {
          "internalType": "uint256",
          "name": "",
          "type": "uint256"
        }
      ],
      "stateMutability": "view",
      "type": "function"
    },
    {
      "inputs": [],
      "name": "decimals",
      "outputs": [
        {
          "internalType": "uint8",
          "name": "",
          "type": "uint8"
        }
      ],
      "stateMutability": "view",
      "type": "function"
    },
    {
      "inputs": [
        {
          "internalType": "address",
          "name": "spender",
          "type": "address"
        },
        {
          "internalType": "uint256",
          "name": "subtractedValue",
          "type": "uint256"
        }
      ],
      "name": "decreaseAllowance",
      "outputs": [
        {
          "internalType": "bool",
          "name": "",
          "type": "bool"
        }
      ],
      "stateMutability": "nonpayable",
      "type": "function"
    },
    {
      "inputs": [],
      "name": "govToken",
      "outputs": [
        {
          "internalType": "contract IERC20",
          "name": "",
          "type": "address"
        }
      ],
      "stateMutability": "view",
      "type": "function"
    },
    {
      "inputs": [
        {
          "internalType": "address",
          "name": "spender",
          "type": "address"
        },
        {
          "internalType": "uint256",
          "name": "addedValue",
          "type": "uint256"
        }
      ],
      "name": "increaseAllowance",
      "outputs": [
        {
          "internalType": "bool",
          "name": "",
          "type": "bool"
        }
      ],
      "stateMutability": "nonpayable",
      "type": "function"
    },
    {
      "inputs": [
        {
          "internalType": "uint256",
          "name": "_amount",
          "type": "uint256"
        },
        {
          "internalType": "bool",
          "name": "",
          "type": "bool"
        },
        {
          "internalType": "address",
          "name": "",
          "type": "address"
        }
      ],
      "name": "mintIdleToken",
      "outputs": [
        {
          "internalType": "uint256",
          "name": "mintedTokens",
          "type": "uint256"
        }
      ],
      "stateMutability": "nonpayable",
      "type": "function"
    },
    {
      "inputs": [],
      "name": "name",
      "outputs": [
        {
          "internalType": "string",
          "name": "",
          "type": "string"
        }
      ],
      "stateMutability": "view",
      "type": "function"
    },
    {
      "inputs": [
        {
          "internalType": "uint256",
          "name": "_amount",
          "type": "uint256"
        }
      ],
      "name": "redeemIdleToken",
      "outputs": [
        {
          "internalType": "uint256",
          "name": "redeemedTokens",
          "type": "uint256"
        }
      ],
      "stateMutability": "nonpayable",
      "type": "function"
    },
    {
      "inputs": [],
      "name": "rewardToken",
      "outputs": [
        {
          "internalType": "contract IERC20",
          "name": "",
          "type": "address"
        }
      ],
      "stateMutability": "view",
      "type": "function"
    },
    {
      "inputs": [],
      "name": "symbol",
      "outputs": [
        {
          "internalType": "string",
          "name": "",
          "type": "string"
        }
      ],
      "stateMutability": "view",
      "type": "function"
    },
    {
      "inputs": [],
      "name": "token",
      "outputs": [
        {
          "internalType": "address",
          "name": "",
          "type": "address"
        }
      ],
      "stateMutability": "view",
      "type": "function"
    },
    {
      "inputs": [],
      "name": "tokenPrice",
      "outputs": [
        {
          "internalType": "uint256",
          "name": "",
          "type": "uint256"
        }
      ],
      "stateMutability": "view",
      "type": "function"
    },
    {
      "inputs": [],
      "name": "totalSupply",
      "outputs": [
        {
          "internalType": "uint256",
          "name": "",
          "type": "uint256"
        }
      ],
      "stateMutability": "view",
      "type": "function"
    },
    {
      "inputs": [
        {
          "internalType": "address",
          "name": "recipient",
          "type": "address"
        },
        {
          "internalType": "uint256",
          "name": "amount",
          "type": "uint256"
        }
      ],
      "name": "transfer",
      "outputs": [
        {
          "internalType": "bool",
          "name": "",
          "type": "bool"
        }
      ],
      "stateMutability": "nonpayable",
      "type": "function"
    },
    {
      "inputs": [
        {
          "internalType": "address",
          "name": "sender",
          "type": "address"
        },
        {
          "internalType": "address",
          "name": "recipient",
          "type": "address"
        },
        {
          "internalType": "uint256",
          "name": "amount",
          "type": "uint256"
        }
      ],
      "name": "transferFrom",
      "outputs": [
        {
          "internalType": "bool",
          "name": "",
          "type": "bool"
        }
      ],
      "stateMutability": "nonpayable",
      "type": "function"
    }
  ],
  "bytecode": "0x60806040523480156200001157600080fd5b50604051620015e0380380620015e0833981810160405260a08110156200003757600080fd5b81019080805160405193929190846401000000008211156200005857600080fd5b9083019060208201858111156200006e57600080fd5b82516401000000008111828201881017156200008957600080fd5b82525081516020918201929091019080838360005b83811015620000b85781810151838201526020016200009e565b50505050905090810190601f168015620000e65780820380516001836020036101000a031916815260200191505b50604052602001805160405193929190846401000000008211156200010a57600080fd5b9083019060208201858111156200012057600080fd5b82516401000000008111828201881017156200013b57600080fd5b82525081516020918201929091019080838360005b838110156200016a57818101518382015260200162000150565b50505050905090810190601f168015620001985780820380516001836020036101000a031916815260200191505b50604090815260208281015191830151606090930151875192955092935086918691620001cb916003918501906200023d565b508051620001e19060049060208401906200023d565b5050600580546001600160a01b0395861661010002610100600160a81b031960ff199092166012179190911617905550600680549284166001600160a01b03199384161790556007805491909316911617905550620002d99050565b828054600181600116156101000203166002900490600052602060002090601f016020900481019282601f106200028057805160ff1916838001178555620002b0565b82800160010185558215620002b0579182015b82811115620002b057825182559160200191906001019062000293565b50620002be929150620002c2565b5090565b5b80821115620002be5760008155600101620002c3565b6112f780620002e96000396000f3fe608060405234801561001057600080fd5b506004361061010b5760003560e01c806370a08231116100a2578063a457c2d711610071578063a457c2d714610312578063a9059cbb1461033e578063dd62ed3e1461036a578063f7c618c114610398578063fc0c546a146103a05761010b565b806370a08231146102bf5780637ff9b596146102e55780638b30b516146102ed57806395d89b411461030a5761010b565b806323b872dd116100de57806323b872dd1461020b5780632befabbf14610241578063313ce5671461027557806339509351146102935761010b565b806305268cff1461011057806306fdde0314610134578063095ea7b3146101b157806318160ddd146101f1575b600080fd5b6101186103a8565b604080516001600160a01b039092168252519081900360200190f35b61013c6103b7565b6040805160208082528351818301528351919283929083019185019080838360005b8381101561017657818101518382015260200161015e565b50505050905090810190601f1680156101a35780820380516001836020036101000a031916815260200191505b509250505060405180910390f35b6101dd600480360360408110156101c757600080fd5b506001600160a01b03813516906020013561044d565b604080519115158252519081900360200190f35b6101f961046b565b60408051918252519081900360200190f35b6101dd6004803603606081101561022157600080fd5b506001600160a01b03813581169160208101359091169060400135610471565b6101f96004803603606081101561025757600080fd5b508035906020810135151590604001356001600160a01b03166104f9565b61027d610548565b6040805160ff9092168252519081900360200190f35b6101dd600480360360408110156102a957600080fd5b506001600160a01b038135169060200135610551565b6101f9600480360360208110156102d557600080fd5b50356001600160a01b031661059f565b6101f96105ba565b6101f96004803603602081101561030357600080fd5b50356105c6565b61013c610655565b6101dd6004803603604081101561032857600080fd5b506001600160a01b0381351690602001356106b6565b6101dd6004803603604081101561035457600080fd5b506001600160a01b03813516906020013561071e565b6101f96004803603604081101561038057600080fd5b506001600160a01b0381358116916020013516610732565b61011861075d565b61011861076c565b6007546001600160a01b031681565b60038054604080516020601f60026000196101006001881615020190951694909404938401819004810282018101909252828152606093909290918301828280156104435780601f1061041857610100808354040283529160200191610443565b820191906000526020600020905b81548152906001019060200180831161042657829003601f168201915b5050505050905090565b600061046161045a610780565b8484610784565b5060015b92915050565b60025490565b600061047e848484610870565b6104ee8461048a610780565b6104e9856040518060600160405280602881526020016111e1602891396001600160a01b038a166000908152600160205260408120906104c8610780565b6001600160a01b0316815260208101919091526040016000205491906109cb565b610784565b5060015b9392505050565b600061051e6105066105ba565b61051886670de0b6b3a7640000610a62565b90610abb565b60055490915061053e9061010090046001600160a01b0316333087610b22565b6104f23382610b82565b60055460ff1690565b600061046161055e610780565b846104e9856001600061056f610780565b6001600160a01b03908116825260208083019390935260409182016000908120918c168152925290205490610c72565b6001600160a01b031660009081526020819052604090205490565b671bc16d674ec8000090565b6000806105d16105ba565b90506105e9670de0b6b3a76400006105188584610a62565b91506105f53384610ccc565b600654610614906001600160a01b031633678ac7230489e80000610dc8565b600754610633906001600160a01b031633674563918244f40000610dc8565b60055461064f9061010090046001600160a01b03163384610dc8565b50919050565b60048054604080516020601f60026000196101006001881615020190951694909404938401819004810282018101909252828152606093909290918301828280156104435780601f1061041857610100808354040283529160200191610443565b60006104616106c3610780565b846104e98560405180606001604052806025815260200161129d60259139600160006106ed610780565b6001600160a01b03908116825260208083019390935260409182016000908120918d168152925290205491906109cb565b600061046161072b610780565b8484610870565b6001600160a01b03918216600090815260016020908152604080832093909416825291909152205490565b6006546001600160a01b031681565b60055461010090046001600160a01b031681565b3390565b6001600160a01b0383166107c95760405162461bcd60e51b815260040180806020018281038252602481526020018061124f6024913960400191505060405180910390fd5b6001600160a01b03821661080e5760405162461bcd60e51b81526004018080602001828103825260228152602001806111526022913960400191505060405180910390fd5b6001600160a01b03808416600081815260016020908152604080832094871680845294825291829020859055815185815291517f8c5be1e5ebec7d5bd14f71427d1e84f3dd0314c0f7b2291e5b200ac8c7c3b9259281900390910190a3505050565b6001600160a01b0383166108b55760405162461bcd60e51b815260040180806020018281038252602581526020018061122a6025913960400191505060405180910390fd5b6001600160a01b0382166108fa5760405162461bcd60e51b815260040180806020018281038252602381526020018061110d6023913960400191505060405180910390fd5b610905838383610e1a565b61094281604051806060016040528060268152602001611174602691396001600160a01b03861660009081526020819052604090205491906109cb565b6001600160a01b0380851660009081526020819052604080822093909355908416815220546109719082610c72565b6001600160a01b038084166000818152602081815260409182902094909455805185815290519193928716927fddf252ad1be2c89b69c2b068fc378daa952ba7f163c4a11628f55a4df523b3ef92918290030190a3505050565b60008184841115610a5a5760405162461bcd60e51b81526004018080602001828103825283818151815260200191508051906020019080838360005b83811015610a1f578181015183820152602001610a07565b50505050905090810190601f168015610a4c5780820380516001836020036101000a031916815260200191505b509250505060405180910390fd5b505050900390565b600082610a7157506000610465565b82820282848281610a7e57fe5b04146104f25760405162461bcd60e51b81526004018080602001828103825260218152602001806111c06021913960400191505060405180910390fd5b6000808211610b11576040805162461bcd60e51b815260206004820152601a60248201527f536166654d6174683a206469766973696f6e206279207a65726f000000000000604482015290519081900360640190fd5b818381610b1a57fe5b049392505050565b604080516001600160a01b0380861660248301528416604482015260648082018490528251808303909101815260849091019091526020810180516001600160e01b03166323b872dd60e01b179052610b7c908590610e1f565b50505050565b6001600160a01b038216610bdd576040805162461bcd60e51b815260206004820152601f60248201527f45524332303a206d696e7420746f20746865207a65726f206164647265737300604482015290519081900360640190fd5b610be960008383610e1a565b600254610bf69082610c72565b6002556001600160a01b038216600090815260208190526040902054610c1c9082610c72565b6001600160a01b0383166000818152602081815260408083209490945583518581529351929391927fddf252ad1be2c89b69c2b068fc378daa952ba7f163c4a11628f55a4df523b3ef9281900390910190a35050565b6000828201838110156104f2576040805162461bcd60e51b815260206004820152601b60248201527f536166654d6174683a206164646974696f6e206f766572666c6f770000000000604482015290519081900360640190fd5b6001600160a01b038216610d115760405162461bcd60e51b81526004018080602001828103825260218152602001806112096021913960400191505060405180910390fd5b610d1d82600083610e1a565b610d5a81604051806060016040528060228152602001611130602291396001600160a01b03851660009081526020819052604090205491906109cb565b6001600160a01b038316600090815260208190526040902055600254610d809082610ed0565b6002556040805182815290516000916001600160a01b038516917fddf252ad1be2c89b69c2b068fc378daa952ba7f163c4a11628f55a4df523b3ef9181900360200190a35050565b604080516001600160a01b038416602482015260448082018490528251808303909101815260649091019091526020810180516001600160e01b031663a9059cbb60e01b179052610e1a908490610e1f565b505050565b6060610e74826040518060400160405280602081526020017f5361666545524332303a206c6f772d6c6576656c2063616c6c206661696c6564815250856001600160a01b0316610f2d9092919063ffffffff16565b805190915015610e1a57808060200190516020811015610e9357600080fd5b5051610e1a5760405162461bcd60e51b815260040180806020018281038252602a815260200180611273602a913960400191505060405180910390fd5b600082821115610f27576040805162461bcd60e51b815260206004820152601e60248201527f536166654d6174683a207375627472616374696f6e206f766572666c6f770000604482015290519081900360640190fd5b50900390565b6060610f3c8484600085610f44565b949350505050565b606082471015610f855760405162461bcd60e51b815260040180806020018281038252602681526020018061119a6026913960400191505060405180910390fd5b610f8e856110a0565b610fdf576040805162461bcd60e51b815260206004820152601d60248201527f416464726573733a2063616c6c20746f206e6f6e2d636f6e7472616374000000604482015290519081900360640190fd5b60006060866001600160a01b031685876040518082805190602001908083835b6020831061101e5780518252601f199092019160209182019101610fff565b6001836020036101000a03801982511681845116808217855250505050505090500191505060006040518083038185875af1925050503d8060008114611080576040519150601f19603f3d011682016040523d82523d6000602084013e611085565b606091505b50915091506110958282866110a6565b979650505050505050565b3b151590565b606083156110b55750816104f2565b8251156110c55782518084602001fd5b60405162461bcd60e51b8152602060048201818152845160248401528451859391928392604401919085019080838360008315610a1f578181015183820152602001610a0756fe45524332303a207472616e7366657220746f20746865207a65726f206164647265737345524332303a206275726e20616d6f756e7420657863656564732062616c616e636545524332303a20617070726f766520746f20746865207a65726f206164647265737345524332303a207472616e7366657220616d6f756e7420657863656564732062616c616e6365416464726573733a20696e73756666696369656e742062616c616e636520666f722063616c6c536166654d6174683a206d756c7469706c69636174696f6e206f766572666c6f7745524332303a207472616e7366657220616d6f756e74206578636565647320616c6c6f77616e636545524332303a206275726e2066726f6d20746865207a65726f206164647265737345524332303a207472616e736665722066726f6d20746865207a65726f206164647265737345524332303a20617070726f76652066726f6d20746865207a65726f20616464726573735361666545524332303a204552433230206f7065726174696f6e20646964206e6f74207375636365656445524332303a2064656372656173656420616c6c6f77616e63652062656c6f77207a65726fa2646970667358221220af3611598f3ca6d5bc17df1ba7de653f1dd3b5b012de0d5cb0fa29709688dda664736f6c634300060c0033",
  "linkReferences": {},
  "deployedLinkReferences": {}
}