{
  "_format": "hh-sol-artifact-1",
  "contractName": "YaxisVoteProxy",
  "sourceName": "contracts/governance/YaxisVoteProxy.sol",
  "abi": [
    {
      "inputs": [],
      "stateMutability": "nonpayable",
      "type": "constructor"
    },
    {
      "inputs": [
        {
          "internalType": "address",
          "name": "_voter",
          "type": "address"
        }
      ],
      "name": "balanceOf",
      "outputs": [
        {
          "internalType": "uint256",
          "name": "",
          "type": "uint256"
        }
      ],
      "stateMutability": "view",
      "type": "function"
    },
    {
      "inputs": [],
      "name": "decimals",
      "outputs": [
        {
          "internalType": "uint8",
          "name": "",
          "type": "uint8"
        }
      ],
      "stateMutability": "view",
      "type": "function"
    },
    {
      "inputs": [],
      "name": "governance",
      "outputs": [
        {
          "internalType": "address",
          "name": "",
          "type": "address"
        }
      ],
      "stateMutability": "view",
      "type": "function"
    },
    {
      "inputs": [
        {
          "internalType": "contract IERC20",
          "name": "_token",
          "type": "address"
        },
        {
          "internalType": "uint256",
          "name": "amount",
          "type": "uint256"
        },
        {
          "internalType": "address",
          "name": "to",
          "type": "address"
        }
      ],
      "name": "governanceRecoverUnsupported",
      "outputs": [],
      "stateMutability": "nonpayable",
      "type": "function"
    },
    {
      "inputs": [],
      "name": "name",
      "outputs": [
        {
          "internalType": "string",
          "name": "",
          "type": "string"
        }
      ],
      "stateMutability": "pure",
      "type": "function"
    },
    {
      "inputs": [
        {
          "internalType": "address",
          "name": "_governance",
          "type": "address"
        }
      ],
      "name": "setGovernance",
      "outputs": [],
      "stateMutability": "nonpayable",
      "type": "function"
    },
    {
      "inputs": [
        {
          "internalType": "contract IVoteProxy",
          "name": "_voteProxy",
          "type": "address"
        }
      ],
      "name": "setVoteProxy",
      "outputs": [],
      "stateMutability": "nonpayable",
      "type": "function"
    },
    {
      "inputs": [],
      "name": "symbol",
      "outputs": [
        {
          "internalType": "string",
          "name": "",
          "type": "string"
        }
      ],
      "stateMutability": "pure",
      "type": "function"
    },
    {
      "inputs": [],
      "name": "totalSupply",
      "outputs": [
        {
          "internalType": "uint256",
          "name": "",
          "type": "uint256"
        }
      ],
      "stateMutability": "view",
      "type": "function"
    },
    {
      "inputs": [],
      "name": "voteProxy",
      "outputs": [
        {
          "internalType": "contract IVoteProxy",
          "name": "",
          "type": "address"
        }
      ],
      "stateMutability": "view",
      "type": "function"
    }
  ],
  "bytecode": "0x608060405234801561001057600080fd5b50600180546001600160a01b031916331790556105d6806100326000396000f3fe608060405234801561001057600080fd5b506004361061009e5760003560e01c80635aa6e675116100665780635aa6e675146101b457806370a08231146101bc57806395d89b41146101e2578063ab033ea9146101ea578063cd8b0478146102105761009e565b806306fdde03146100a357806318160ddd146101205780632f252a561461013a578063313ce5671461015e57806354575af41461017c575b600080fd5b6100ab610236565b6040805160208082528351818301528351919283929083019185019080838360005b838110156100e55781810151838201526020016100cd565b50505050905090810190601f1680156101125780820380516001836020036101000a031916815260200191505b509250505060405180910390f35b610128610260565b60408051918252519081900360200190f35b6101426102e0565b604080516001600160a01b039092168252519081900360200190f35b6101666102ef565b6040805160ff9092168252519081900360200190f35b6101b26004803603606081101561019257600080fd5b506001600160a01b0381358116916020810135916040909101351661033e565b005b610142610413565b610128600480360360208110156101d257600080fd5b50356001600160a01b0316610422565b6100ab6104a2565b6101b26004803603602081101561020057600080fd5b50356001600160a01b03166104c2565b6101b26004803603602081101561022657600080fd5b50356001600160a01b0316610531565b60408051808201909152601081526f2ca0ac24a9902b37ba32902837bbb2b960811b602082015290565b60008060009054906101000a90046001600160a01b03166001600160a01b03166318160ddd6040518163ffffffff1660e01b815260040160206040518083038186803b1580156102af57600080fd5b505afa1580156102c3573d6000803e3d6000fd5b505050506040513d60208110156102d957600080fd5b5051905090565b6000546001600160a01b031681565b60008060009054906101000a90046001600160a01b03166001600160a01b031663313ce5676040518163ffffffff1660e01b815260040160206040518083038186803b1580156102af57600080fd5b6001546001600160a01b0316331461038b576040805162461bcd60e51b815260206004820152600b60248201526a21676f7665726e616e636560a81b604482015290519081900360640190fd5b826001600160a01b031663a9059cbb82846040518363ffffffff1660e01b815260040180836001600160a01b0316815260200182815260200192505050602060405180830381600087803b1580156103e257600080fd5b505af11580156103f6573d6000803e3d6000fd5b505050506040513d602081101561040c57600080fd5b5050505050565b6001546001600160a01b031681565b60008054604080516370a0823160e01b81526001600160a01b038581166004830152915191909216916370a08231916024808301926020929190829003018186803b15801561047057600080fd5b505afa158015610484573d6000803e3d6000fd5b505050506040513d602081101561049a57600080fd5b505192915050565b60408051808201909152600681526505941582056560d41b602082015290565b6001546001600160a01b0316331461050f576040805162461bcd60e51b815260206004820152600b60248201526a21676f7665726e616e636560a81b604482015290519081900360640190fd5b600180546001600160a01b0319166001600160a01b0392909216919091179055565b6001546001600160a01b0316331461057e576040805162461bcd60e51b815260206004820152600b60248201526a21676f7665726e616e636560a81b604482015290519081900360640190fd5b600080546001600160a01b0319166001600160a01b039290921691909117905556fea264697066735822122053c90b3a7139ba757c217cb887bd73c13ce713872f54011f72109ff7d509b3ad64736f6c634300060c0033",
  "linkReferences": {},
  "deployedLinkReferences": {}
}