{"abi":[{"inputs":[{"internalType":"address","name":"comptrollerAddress","type":"address"}],"stateMutability":"nonpayable","type":"constructor","name":"constructor"},{"inputs":[],"name":"COMPTROLLER_MAINNET_ADDRESS","outputs":[{"internalType":"address","name":"","type":"address"}],"stateMutability":"view","type":"function"},{"inputs":[],"name":"comptroller","outputs":[{"internalType":"contract Comptroller","name":"","type":"address"}],"stateMutability":"view","type":"function"},{"inputs":[{"internalType":"address","name":"underlying","type":"address"}],"name":"fetchCToken","outputs":[{"internalType":"contract CToken","name":"","type":"address"}],"stateMutability":"nonpayable","type":"function"},{"inputs":[{"internalType":"address","name":"underlying","type":"address"}],"name":"getCToken","outputs":[{"internalType":"contract CToken","name":"","type":"address"}],"stateMutability":"view","type":"function"},{"inputs":[{"internalType":"address","name":"underlying","type":"address"},{"internalType":"bool","name":"ensureExists","type":"bool"}],"name":"getCToken","outputs":[{"internalType":"contract CToken","name":"","type":"address"}],"stateMutability":"view","type":"function"}],"bytecode":"60a06040523480156200001157600080fd5b506040516200111338038062001113833981016040819052620000349162000469565b6001600160a01b0381166080526200004b62000052565b506200073b565b60006080516001600160a01b031663b0772d0b6040518163ffffffff1660e01b815260040160006040518083038186803b1580156200009057600080fd5b505afa158015620000a5573d6000803e3d6000fd5b505050506040513d6000823e601f3d908101601f19168201604052620000cf9190810190620004d9565b905060005b8151811015620002f7576000828281518110620000f557620000f562000597565b602002602001015190506200011081620002fb60201b60201c565b6200011c5750620002e2565b604051630c68aa8960e31b602082015260240160405160208183030381529060405280519060200120816001600160a01b03166395d89b416040518163ffffffff1660e01b815260040160006040518083038186803b1580156200017f57600080fd5b505afa15801562000194573d6000803e3d6000fd5b505050506040513d6000823e601f3d908101601f19168201604052620001be9190810190620005e0565b604051602001620001d091906200067e565b604051602081830303815290604052805190602001201415620002355760008080526020527fad3228b676f7d3cd4284a5443f17f1962b36e491b30a40b2405849e597ba5fb580546001600160a01b0319166001600160a01b038316179055620002e0565b80600080836001600160a01b0316636f307dc36040518163ffffffff1660e01b815260040160206040518083038186803b1580156200027357600080fd5b505afa15801562000288573d6000803e3d6000fd5b505050506040513d601f19601f82011682018060405250810190620002ae919062000469565b6001600160a01b039081168252602082019290925260400160002080546001600160a01b031916929091169190911790555b505b80620002ee816200069c565b915050620000d4565b5050565b608051604051638e8f294b60e01b81526001600160a01b0383811660048301526000928392911690638e8f294b9060240160606040518083038186803b1580156200034557600080fd5b505afa1580156200035a573d6000803e3d6000fd5b505050506040513d601f19601f82011682018060405250810190620003809190620006dc565b505090506000733d9819210a31b4961b30ef54be2aed79b9c9cd3b6001600160a01b03166080516001600160a01b03161480156200043a57506080516040516394543c1560e01b81526001600160a01b038681166004830152909116906394543c159060240160206040518083038186803b158015620003ff57600080fd5b505afa15801562000414573d6000803e3d6000fd5b505050506040513d601f19601f820116820180604052508101906200043a91906200071d565b905081801562000448575080155b949350505050565b6001600160a01b03811681146200046657600080fd5b50565b6000602082840312156200047c57600080fd5b8151620004898162000450565b9392505050565b634e487b7160e01b600052604160045260246000fd5b604051601f8201601f191681016001600160401b0381118282101715620004d157620004d162000490565b604052919050565b60006020808385031215620004ed57600080fd5b82516001600160401b03808211156200050557600080fd5b818501915085601f8301126200051a57600080fd5b8151818111156200052f576200052f62000490565b8060051b915062000542848301620004a6565b81815291830184019184810190888411156200055d57600080fd5b938501935b838510156200058b57845192506200057a8362000450565b828252938501939085019062000562565b98975050505050505050565b634e487b7160e01b600052603260045260246000fd5b60005b83811015620005ca578181015183820152602001620005b0565b83811115620005da576000848401525b50505050565b600060208284031215620005f357600080fd5b81516001600160401b03808211156200060b57600080fd5b818401915084601f8301126200062057600080fd5b81518181111562000635576200063562000490565b6200064a601f8201601f1916602001620004a6565b91508082528560208285010111156200066257600080fd5b62000675816020840160208601620005ad565b50949350505050565b6000825162000692818460208701620005ad565b9190910192915050565b6000600019821415620006bf57634e487b7160e01b600052601160045260246000fd5b5060010190565b80518015158114620006d757600080fd5b919050565b600080600060608486031215620006f257600080fd5b620006fd84620006c6565b9250602084015191506200071460408501620006c6565b90509250925092565b6000602082840312156200073057600080fd5b6200048982620006c6565b6080516109a162000772600039600081816090015281816101e3015281816104a901528181610549015261059801526109a16000f3fe608060405234801561001057600080fd5b50600436106100575760003560e01c80632e3882351461005c5780635fe3b5671461008b5780637e5a4eb9146100b2578063b6bbc950146100c5578063f3748fc8146100d8575b600080fd5b61006f61006a36600461063f565b6100f3565b6040516001600160a01b03909116815260200160405180910390f35b61006f7f000000000000000000000000000000000000000000000000000000000000000081565b61006f6100c036600461063f565b610132565b61006f6100d336600461066a565b610145565b61006f733d9819210a31b4961b30ef54be2aed79b9c9cd3b81565b600080610101836000610145565b90506001600160a01b038116156101185792915050565b6101206101df565b61012b836001610145565b9392505050565b600061013f826001610145565b92915050565b6001600160a01b0380831660009081526020819052604081205490911682801561018657506001600160a01b0381161580610186575061018481610485565b155b1561012b57604080518082018252601e81527f756e6465726c79696e6720746f6b656e206e6f7420737570706f7274656400006020820152905162461bcd60e51b81526101d691906004016106d3565b60405180910390fd5b60007f00000000000000000000000000000000000000000000000000000000000000006001600160a01b031663b0772d0b6040518163ffffffff1660e01b815260040160006040518083038186803b15801561023a57600080fd5b505afa15801561024e573d6000803e3d6000fd5b505050506040513d6000823e601f3d908101601f19168201604052610276919081019061074d565b905060005b8151811015610481576000828281518110610298576102986107ff565b602002602001015190506102ab81610485565b6102b5575061046f565b604051630c68aa8960e31b602082015260240160405160208183030381529060405280519060200120816001600160a01b03166395d89b416040518163ffffffff1660e01b815260040160006040518083038186803b15801561031757600080fd5b505afa15801561032b573d6000803e3d6000fd5b505050506040513d6000823e601f3d908101601f191682016040526103539190810190610815565b60405160200161036391906108a9565b6040516020818303038152906040528051906020012014156103c65760008080526020527fad3228b676f7d3cd4284a5443f17f1962b36e491b30a40b2405849e597ba5fb580546001600160a01b0319166001600160a01b03831617905561046d565b80600080836001600160a01b0316636f307dc36040518163ffffffff1660e01b815260040160206040518083038186803b15801561040357600080fd5b505afa158015610417573d6000803e3d6000fd5b505050506040513d601f19601f8201168201806040525081019061043b91906108c5565b6001600160a01b039081168252602082019290925260400160002080546001600160a01b031916929091169190911790555b505b80610479816108e2565b91505061027b565b5050565b604051638e8f294b60e01b81526001600160a01b03828116600483015260009182917f00000000000000000000000000000000000000000000000000000000000000001690638e8f294b9060240160606040518083038186803b1580156104eb57600080fd5b505afa1580156104ff573d6000803e3d6000fd5b505050506040513d601f19601f82011682018060405250810190610523919061090b565b505090506000733d9819210a31b4961b30ef54be2aed79b9c9cd3b6001600160a01b03167f00000000000000000000000000000000000000000000000000000000000000006001600160a01b031614801561061257506040516394543c1560e01b81526001600160a01b0385811660048301527f000000000000000000000000000000000000000000000000000000000000000016906394543c159060240160206040518083038186803b1580156105da57600080fd5b505afa1580156105ee573d6000803e3d6000fd5b505050506040513d601f19601f82011682018060405250810190610612919061094e565b905081801561061f575080155b949350505050565b6001600160a01b038116811461063c57600080fd5b50565b60006020828403121561065157600080fd5b813561012b81610627565b801515811461063c57600080fd5b6000806040838503121561067d57600080fd5b823561068881610627565b915060208301356106988161065c565b809150509250929050565b60005b838110156106be5781810151838201526020016106a6565b838111156106cd576000848401525b50505050565b60208152600082518060208401526106f28160408501602087016106a3565b601f01601f19169190910160400192915050565b634e487b7160e01b600052604160045260246000fd5b604051601f8201601f1916810167ffffffffffffffff8111828210171561074557610745610706565b604052919050565b6000602080838503121561076057600080fd5b825167ffffffffffffffff8082111561077857600080fd5b818501915085601f83011261078c57600080fd5b81518181111561079e5761079e610706565b8060051b91506107af84830161071c565b81815291830184019184810190888411156107c957600080fd5b938501935b838510156107f357845192506107e383610627565b82825293850193908501906107ce565b98975050505050505050565b634e487b7160e01b600052603260045260246000fd5b60006020828403121561082757600080fd5b815167ffffffffffffffff8082111561083f57600080fd5b818401915084601f83011261085357600080fd5b81518181111561086557610865610706565b610878601f8201601f191660200161071c565b915080825285602082850101111561088f57600080fd5b6108a08160208401602086016106a3565b50949350505050565b600082516108bb8184602087016106a3565b9190910192915050565b6000602082840312156108d757600080fd5b815161012b81610627565b600060001982141561090457634e487b7160e01b600052601160045260246000fd5b5060010190565b60008060006060848603121561092057600080fd5b835161092b8161065c565b6020850151604086015191945092506109438161065c565b809150509250925092565b60006020828403121561096057600080fd5b815161012b8161065c56fea2646970667358221220fc0e25a8b337e760cdf9a932873a8b58ddb70b775a2a400aabf0fbb7c3a405fc64736f6c63430008090033","bytecodeSha1":"c9bd5cabbe278fb10e99d851b2fb91b8455550f5","compiler":{"evm_version":"london","optimizer":{"enabled":true,"runs":200},"version":"0.8.9+commit.e5eed63a"},"contractName":"CTokenRegistry","language":"Solidity","natspec":{"kind":"dev","methods":{"fetchCToken(address)":{"notice":"Tries to read the CToken contract address for a given underlying token address If not found, tries to fetch it from the Comptroller contract and fails if cannot find it in the comptroller either"},"getCToken(address)":{"notice":"Reads the CToken contract address for a given underlying token address or fails if not found"},"getCToken(address,bool)":{"notice":"Reads the CToken contract address for a given underlying token address If `ensureExists` is `true`, fails if not found, otherwise returns address 0"}},"version":1},"opcodes":"PUSH1 0x80 PUSH1 0x40 MSTORE CALLVALUE DUP1 ISZERO PUSH2 0x10 JUMPI PUSH1 0x0 DUP1 REVERT JUMPDEST POP PUSH1 0x4 CALLDATASIZE LT PUSH2 0x57 JUMPI PUSH1 0x0 CALLDATALOAD PUSH1 0xE0 SHR DUP1 PUSH4 0x2E388235 EQ PUSH2 0x5C JUMPI DUP1 PUSH4 0x5FE3B567 EQ PUSH2 0x8B JUMPI DUP1 PUSH4 0x7E5A4EB9 EQ PUSH2 0xB2 JUMPI DUP1 PUSH4 0xB6BBC950 EQ PUSH2 0xC5 JUMPI DUP1 PUSH4 0xF3748FC8 EQ PUSH2 0xD8 JUMPI JUMPDEST PUSH1 0x0 DUP1 REVERT JUMPDEST PUSH2 0x6F PUSH2 0x6A CALLDATASIZE PUSH1 0x4 PUSH2 0x63F JUMP JUMPDEST PUSH2 0xF3 JUMP JUMPDEST PUSH1 0x40 MLOAD PUSH1 0x1 PUSH1 0x1 PUSH1 0xA0 SHL SUB SWAP1 SWAP2 AND DUP2 MSTORE PUSH1 0x20 ADD PUSH1 0x40 MLOAD DUP1 SWAP2 SUB SWAP1 RETURN JUMPDEST PUSH2 0x6F PUSH32 0x0 DUP2 JUMP JUMPDEST PUSH2 0x6F PUSH2 0xC0 CALLDATASIZE PUSH1 0x4 PUSH2 0x63F JUMP JUMPDEST PUSH2 0x132 JUMP JUMPDEST PUSH2 0x6F PUSH2 0xD3 CALLDATASIZE PUSH1 0x4 PUSH2 0x66A JUMP JUMPDEST PUSH2 0x145 JUMP JUMPDEST PUSH2 0x6F PUSH20 0x3D9819210A31B4961B30EF54BE2AED79B9C9CD3B DUP2 JUMP JUMPDEST PUSH1 0x0 DUP1 PUSH2 0x101 DUP4 PUSH1 0x0 PUSH2 0x145 JUMP JUMPDEST SWAP1 POP PUSH1 0x1 PUSH1 0x1 PUSH1 0xA0 SHL SUB DUP2 AND ISZERO PUSH2 0x118 JUMPI SWAP3 SWAP2 POP POP JUMP JUMPDEST PUSH2 0x120 PUSH2 0x1DF JUMP JUMPDEST PUSH2 0x12B DUP4 PUSH1 0x1 PUSH2 0x145 JUMP JUMPDEST SWAP4 SWAP3 POP POP POP JUMP JUMPDEST PUSH1 0x0 PUSH2 0x13F DUP3 PUSH1 0x1 PUSH2 0x145 JUMP JUMPDEST SWAP3 SWAP2 POP POP JUMP JUMPDEST PUSH1 0x1 PUSH1 0x1 PUSH1 0xA0 SHL SUB DUP1 DUP4 AND PUSH1 0x0 SWAP1 DUP2 MSTORE PUSH1 0x20 DUP2 SWAP1 MSTORE PUSH1 0x40 DUP2 KECCAK256 SLOAD SWAP1 SWAP2 AND DUP3 DUP1 ISZERO PUSH2 0x186 JUMPI POP PUSH1 0x1 PUSH1 0x1 PUSH1 0xA0 SHL SUB DUP2 AND ISZERO DUP1 PUSH2 0x186 JUMPI POP PUSH2 0x184 DUP2 PUSH2 0x485 JUMP JUMPDEST ISZERO JUMPDEST ISZERO PUSH2 0x12B JUMPI PUSH1 0x40 DUP1 MLOAD DUP1 DUP3 ADD DUP3 MSTORE PUSH1 0x1E DUP2 MSTORE PUSH32 0x756E6465726C79696E6720746F6B656E206E6F7420737570706F727465640000 PUSH1 0x20 DUP3 ADD MSTORE SWAP1 MLOAD PUSH3 0x461BCD PUSH1 0xE5 SHL DUP2 MSTORE PUSH2 0x1D6 SWAP2 SWAP1 PUSH1 0x4 ADD PUSH2 0x6D3 JUMP JUMPDEST PUSH1 0x40 MLOAD DUP1 SWAP2 SUB SWAP1 REVERT JUMPDEST PUSH1 0x0 PUSH32 0x0 PUSH1 0x1 PUSH1 0x1 PUSH1 0xA0 SHL SUB AND PUSH4 0xB0772D0B PUSH1 0x40 MLOAD DUP2 PUSH4 0xFFFFFFFF AND PUSH1 0xE0 SHL DUP2 MSTORE PUSH1 0x4 ADD PUSH1 0x0 PUSH1 0x40 MLOAD DUP1 DUP4 SUB DUP2 DUP7 DUP1 EXTCODESIZE ISZERO DUP1 ISZERO PUSH2 0x23A JUMPI PUSH1 0x0 DUP1 REVERT JUMPDEST POP GAS STATICCALL ISZERO DUP1 ISZERO PUSH2 0x24E JUMPI RETURNDATASIZE PUSH1 0x0 DUP1 RETURNDATACOPY RETURNDATASIZE PUSH1 0x0 REVERT JUMPDEST POP POP POP POP PUSH1 0x40 MLOAD RETURNDATASIZE PUSH1 0x0 DUP3 RETURNDATACOPY PUSH1 0x1F RETURNDATASIZE SWAP1 DUP2 ADD PUSH1 0x1F NOT AND DUP3 ADD PUSH1 0x40 MSTORE PUSH2 0x276 SWAP2 SWAP1 DUP2 ADD SWAP1 PUSH2 0x74D JUMP JUMPDEST SWAP1 POP PUSH1 0x0 JUMPDEST DUP2 MLOAD DUP2 LT ISZERO PUSH2 0x481 JUMPI PUSH1 0x0 DUP3 DUP3 DUP2 MLOAD DUP2 LT PUSH2 0x298 JUMPI PUSH2 0x298 PUSH2 0x7FF JUMP JUMPDEST PUSH1 0x20 MUL PUSH1 0x20 ADD ADD MLOAD SWAP1 POP PUSH2 0x2AB DUP2 PUSH2 0x485 JUMP JUMPDEST PUSH2 0x2B5 JUMPI POP PUSH2 0x46F JUMP JUMPDEST PUSH1 0x40 MLOAD PUSH4 0xC68AA89 PUSH1 0xE3 SHL PUSH1 0x20 DUP3 ADD MSTORE PUSH1 0x24 ADD PUSH1 0x40 MLOAD PUSH1 0x20 DUP2 DUP4 SUB SUB DUP2 MSTORE SWAP1 PUSH1 0x40 MSTORE DUP1 MLOAD SWAP1 PUSH1 0x20 ADD KECCAK256 DUP2 PUSH1 0x1 PUSH1 0x1 PUSH1 0xA0 SHL SUB AND PUSH4 0x95D89B41 PUSH1 0x40 MLOAD DUP2 PUSH4 0xFFFFFFFF AND PUSH1 0xE0 SHL DUP2 MSTORE PUSH1 0x4 ADD PUSH1 0x0 PUSH1 0x40 MLOAD DUP1 DUP4 SUB DUP2 DUP7 DUP1 EXTCODESIZE ISZERO DUP1 ISZERO PUSH2 0x317 JUMPI PUSH1 0x0 DUP1 REVERT JUMPDEST POP GAS STATICCALL ISZERO DUP1 ISZERO PUSH2 0x32B JUMPI RETURNDATASIZE PUSH1 0x0 DUP1 RETURNDATACOPY RETURNDATASIZE PUSH1 0x0 REVERT JUMPDEST POP POP POP POP PUSH1 0x40 MLOAD RETURNDATASIZE PUSH1 0x0 DUP3 RETURNDATACOPY PUSH1 0x1F RETURNDATASIZE SWAP1 DUP2 ADD PUSH1 0x1F NOT AND DUP3 ADD PUSH1 0x40 MSTORE PUSH2 0x353 SWAP2 SWAP1 DUP2 ADD SWAP1 PUSH2 0x815 JUMP JUMPDEST PUSH1 0x40 MLOAD PUSH1 0x20 ADD PUSH2 0x363 SWAP2 SWAP1 PUSH2 0x8A9 JUMP JUMPDEST PUSH1 0x40 MLOAD PUSH1 0x20 DUP2 DUP4 SUB SUB DUP2 MSTORE SWAP1 PUSH1 0x40 MSTORE DUP1 MLOAD SWAP1 PUSH1 0x20 ADD KECCAK256 EQ ISZERO PUSH2 0x3C6 JUMPI PUSH1 0x0 DUP1 DUP1 MSTORE PUSH1 0x20 MSTORE PUSH32 0xAD3228B676F7D3CD4284A5443F17F1962B36E491B30A40B2405849E597BA5FB5 DUP1 SLOAD PUSH1 0x1 PUSH1 0x1 PUSH1 0xA0 SHL SUB NOT AND PUSH1 0x1 PUSH1 0x1 PUSH1 0xA0 SHL SUB DUP4 AND OR SWAP1 SSTORE PUSH2 0x46D JUMP JUMPDEST DUP1 PUSH1 0x0 DUP1 DUP4 PUSH1 0x1 PUSH1 0x1 PUSH1 0xA0 SHL SUB AND PUSH4 0x6F307DC3 PUSH1 0x40 MLOAD DUP2 PUSH4 0xFFFFFFFF AND PUSH1 0xE0 SHL DUP2 MSTORE PUSH1 0x4 ADD PUSH1 0x20 PUSH1 0x40 MLOAD DUP1 DUP4 SUB DUP2 DUP7 DUP1 EXTCODESIZE ISZERO DUP1 ISZERO PUSH2 0x403 JUMPI PUSH1 0x0 DUP1 REVERT JUMPDEST POP GAS STATICCALL ISZERO DUP1 ISZERO PUSH2 0x417 JUMPI RETURNDATASIZE PUSH1 0x0 DUP1 RETURNDATACOPY RETURNDATASIZE PUSH1 0x0 REVERT JUMPDEST POP POP POP POP PUSH1 0x40 MLOAD RETURNDATASIZE PUSH1 0x1F NOT PUSH1 0x1F DUP3 ADD AND DUP3 ADD DUP1 PUSH1 0x40 MSTORE POP DUP2 ADD SWAP1 PUSH2 0x43B SWAP2 SWAP1 PUSH2 0x8C5 JUMP JUMPDEST PUSH1 0x1 PUSH1 0x1 PUSH1 0xA0 SHL SUB SWAP1 DUP2 AND DUP3 MSTORE PUSH1 0x20 DUP3 ADD SWAP3 SWAP1 SWAP3 MSTORE PUSH1 0x40 ADD PUSH1 0x0 KECCAK256 DUP1 SLOAD PUSH1 0x1 PUSH1 0x1 PUSH1 0xA0 SHL SUB NOT AND SWAP3 SWAP1 SWAP2 AND SWAP2 SWAP1 SWAP2 OR SWAP1 SSTORE JUMPDEST POP JUMPDEST DUP1 PUSH2 0x479 DUP2 PUSH2 0x8E2 JUMP JUMPDEST SWAP2 POP POP PUSH2 0x27B JUMP JUMPDEST POP POP JUMP JUMPDEST PUSH1 0x40 MLOAD PUSH4 0x8E8F294B PUSH1 0xE0 SHL DUP2 MSTORE PUSH1 0x1 PUSH1 0x1 PUSH1 0xA0 SHL SUB DUP3 DUP2 AND PUSH1 0x4 DUP4 ADD MSTORE PUSH1 0x0 SWAP2 DUP3 SWAP2 PUSH32 0x0 AND SWAP1 PUSH4 0x8E8F294B SWAP1 PUSH1 0x24 ADD PUSH1 0x60 PUSH1 0x40 MLOAD DUP1 DUP4 SUB DUP2 DUP7 DUP1 EXTCODESIZE ISZERO DUP1 ISZERO PUSH2 0x4EB JUMPI PUSH1 0x0 DUP1 REVERT JUMPDEST POP GAS STATICCALL ISZERO DUP1 ISZERO PUSH2 0x4FF JUMPI RETURNDATASIZE PUSH1 0x0 DUP1 RETURNDATACOPY RETURNDATASIZE PUSH1 0x0 REVERT JUMPDEST POP POP POP POP PUSH1 0x40 MLOAD RETURNDATASIZE PUSH1 0x1F NOT PUSH1 0x1F DUP3 ADD AND DUP3 ADD DUP1 PUSH1 0x40 MSTORE POP DUP2 ADD SWAP1 PUSH2 0x523 SWAP2 SWAP1 PUSH2 0x90B JUMP JUMPDEST POP POP SWAP1 POP PUSH1 0x0 PUSH20 0x3D9819210A31B4961B30EF54BE2AED79B9C9CD3B PUSH1 0x1 PUSH1 0x1 PUSH1 0xA0 SHL SUB AND PUSH32 0x0 PUSH1 0x1 PUSH1 0x1 PUSH1 0xA0 SHL SUB AND EQ DUP1 ISZERO PUSH2 0x612 JUMPI POP PUSH1 0x40 MLOAD PUSH4 0x94543C15 PUSH1 0xE0 SHL DUP2 MSTORE PUSH1 0x1 PUSH1 0x1 PUSH1 0xA0 SHL SUB DUP6 DUP2 AND PUSH1 0x4 DUP4 ADD MSTORE PUSH32 0x0 AND SWAP1 PUSH4 0x94543C15 SWAP1 PUSH1 0x24 ADD PUSH1 0x20 PUSH1 0x40 MLOAD DUP1 DUP4 SUB DUP2 DUP7 DUP1 EXTCODESIZE ISZERO DUP1 ISZERO PUSH2 0x5DA JUMPI PUSH1 0x0 DUP1 REVERT JUMPDEST POP GAS STATICCALL ISZERO DUP1 ISZERO PUSH2 0x5EE JUMPI RETURNDATASIZE PUSH1 0x0 DUP1 RETURNDATACOPY RETURNDATASIZE PUSH1 0x0 REVERT JUMPDEST POP POP POP POP PUSH1 0x40 MLOAD RETURNDATASIZE PUSH1 0x1F NOT PUSH1 0x1F DUP3 ADD AND DUP3 ADD DUP1 PUSH1 0x40 MSTORE POP DUP2 ADD SWAP1 PUSH2 0x612 SWAP2 SWAP1 PUSH2 0x94E JUMP JUMPDEST SWAP1 POP DUP2 DUP1 ISZERO PUSH2 0x61F JUMPI POP DUP1 ISZERO JUMPDEST SWAP5 SWAP4 POP POP POP POP JUMP JUMPDEST PUSH1 0x1 PUSH1 0x1 PUSH1 0xA0 SHL SUB DUP2 AND DUP2 EQ PUSH2 0x63C JUMPI PUSH1 0x0 DUP1 REVERT JUMPDEST POP JUMP JUMPDEST PUSH1 0x0 PUSH1 0x20 DUP3 DUP5 SUB SLT ISZERO PUSH2 0x651 JUMPI PUSH1 0x0 DUP1 REVERT JUMPDEST DUP2 CALLDATALOAD PUSH2 0x12B DUP2 PUSH2 0x627 JUMP JUMPDEST DUP1 ISZERO ISZERO DUP2 EQ PUSH2 0x63C JUMPI PUSH1 0x0 DUP1 REVERT JUMPDEST PUSH1 0x0 DUP1 PUSH1 0x40 DUP4 DUP6 SUB SLT ISZERO PUSH2 0x67D JUMPI PUSH1 0x0 DUP1 REVERT JUMPDEST DUP3 CALLDATALOAD PUSH2 0x688 DUP2 PUSH2 0x627 JUMP JUMPDEST SWAP2 POP PUSH1 0x20 DUP4 ADD CALLDATALOAD PUSH2 0x698 DUP2 PUSH2 0x65C JUMP JUMPDEST DUP1 SWAP2 POP POP SWAP3 POP SWAP3 SWAP1 POP JUMP JUMPDEST PUSH1 0x0 JUMPDEST DUP4 DUP2 LT ISZERO PUSH2 0x6BE JUMPI DUP2 DUP2 ADD MLOAD DUP4 DUP3 ADD MSTORE PUSH1 0x20 ADD PUSH2 0x6A6 JUMP JUMPDEST DUP4 DUP2 GT ISZERO PUSH2 0x6CD JUMPI PUSH1 0x0 DUP5 DUP5 ADD MSTORE JUMPDEST POP POP POP POP JUMP JUMPDEST PUSH1 0x20 DUP2 MSTORE PUSH1 0x0 DUP3 MLOAD DUP1 PUSH1 0x20 DUP5 ADD MSTORE PUSH2 0x6F2 DUP2 PUSH1 0x40 DUP6 ADD PUSH1 0x20 DUP8 ADD PUSH2 0x6A3 JUMP JUMPDEST PUSH1 0x1F ADD PUSH1 0x1F NOT AND SWAP2 SWAP1 SWAP2 ADD PUSH1 0x40 ADD SWAP3 SWAP2 POP POP JUMP JUMPDEST PUSH4 0x4E487B71 PUSH1 0xE0 SHL PUSH1 0x0 MSTORE PUSH1 0x41 PUSH1 0x4 MSTORE PUSH1 0x24 PUSH1 0x0 REVERT JUMPDEST PUSH1 0x40 MLOAD PUSH1 0x1F DUP3 ADD PUSH1 0x1F NOT AND DUP2 ADD PUSH8 0xFFFFFFFFFFFFFFFF DUP2 GT DUP3 DUP3 LT OR ISZERO PUSH2 0x745 JUMPI PUSH2 0x745 PUSH2 0x706 JUMP JUMPDEST PUSH1 0x40 MSTORE SWAP2 SWAP1 POP JUMP JUMPDEST PUSH1 0x0 PUSH1 0x20 DUP1 DUP4 DUP6 SUB SLT ISZERO PUSH2 0x760 JUMPI PUSH1 0x0 DUP1 REVERT JUMPDEST DUP3 MLOAD PUSH8 0xFFFFFFFFFFFFFFFF DUP1 DUP3 GT ISZERO PUSH2 0x778 JUMPI PUSH1 0x0 DUP1 REVERT JUMPDEST DUP2 DUP6 ADD SWAP2 POP DUP6 PUSH1 0x1F DUP4 ADD SLT PUSH2 0x78C JUMPI PUSH1 0x0 DUP1 REVERT JUMPDEST DUP2 MLOAD DUP2 DUP2 GT ISZERO PUSH2 0x79E JUMPI PUSH2 0x79E PUSH2 0x706 JUMP JUMPDEST DUP1 PUSH1 0x5 SHL SWAP2 POP PUSH2 0x7AF DUP5 DUP4 ADD PUSH2 0x71C JUMP JUMPDEST DUP2 DUP2 MSTORE SWAP2 DUP4 ADD DUP5 ADD SWAP2 DUP5 DUP2 ADD SWAP1 DUP9 DUP5 GT ISZERO PUSH2 0x7C9 JUMPI PUSH1 0x0 DUP1 REVERT JUMPDEST SWAP4 DUP6 ADD SWAP4 JUMPDEST DUP4 DUP6 LT ISZERO PUSH2 0x7F3 JUMPI DUP5 MLOAD SWAP3 POP PUSH2 0x7E3 DUP4 PUSH2 0x627 JUMP JUMPDEST DUP3 DUP3 MSTORE SWAP4 DUP6 ADD SWAP4 SWAP1 DUP6 ADD SWAP1 PUSH2 0x7CE JUMP JUMPDEST SWAP9 SWAP8 POP POP POP POP POP POP POP POP JUMP JUMPDEST PUSH4 0x4E487B71 PUSH1 0xE0 SHL PUSH1 0x0 MSTORE PUSH1 0x32 PUSH1 0x4 MSTORE PUSH1 0x24 PUSH1 0x0 REVERT JUMPDEST PUSH1 0x0 PUSH1 0x20 DUP3 DUP5 SUB SLT ISZERO PUSH2 0x827 JUMPI PUSH1 0x0 DUP1 REVERT JUMPDEST DUP2 MLOAD PUSH8 0xFFFFFFFFFFFFFFFF DUP1 DUP3 GT ISZERO PUSH2 0x83F JUMPI PUSH1 0x0 DUP1 REVERT JUMPDEST DUP2 DUP5 ADD SWAP2 POP DUP5 PUSH1 0x1F DUP4 ADD SLT PUSH2 0x853 JUMPI PUSH1 0x0 DUP1 REVERT JUMPDEST DUP2 MLOAD DUP2 DUP2 GT ISZERO PUSH2 0x865 JUMPI PUSH2 0x865 PUSH2 0x706 JUMP JUMPDEST PUSH2 0x878 PUSH1 0x1F DUP3 ADD PUSH1 0x1F NOT AND PUSH1 0x20 ADD PUSH2 0x71C JUMP JUMPDEST SWAP2 POP DUP1 DUP3 MSTORE DUP6 PUSH1 0x20 DUP3 DUP6 ADD ADD GT ISZERO PUSH2 0x88F JUMPI PUSH1 0x0 DUP1 REVERT JUMPDEST PUSH2 0x8A0 DUP2 PUSH1 0x20 DUP5 ADD PUSH1 0x20 DUP7 ADD PUSH2 0x6A3 JUMP JUMPDEST POP SWAP5 SWAP4 POP POP POP POP JUMP JUMPDEST PUSH1 0x0 DUP3 MLOAD PUSH2 0x8BB DUP2 DUP5 PUSH1 0x20 DUP8 ADD PUSH2 0x6A3 JUMP JUMPDEST SWAP2 SWAP1 SWAP2 ADD SWAP3 SWAP2 POP POP JUMP JUMPDEST PUSH1 0x0 PUSH1 0x20 DUP3 DUP5 SUB SLT ISZERO PUSH2 0x8D7 JUMPI PUSH1 0x0 DUP1 REVERT JUMPDEST DUP2 MLOAD PUSH2 0x12B DUP2 PUSH2 0x627 JUMP JUMPDEST PUSH1 0x0 PUSH1 0x0 NOT DUP3 EQ ISZERO PUSH2 0x904 JUMPI PUSH4 0x4E487B71 PUSH1 0xE0 SHL PUSH1 0x0 MSTORE PUSH1 0x11 PUSH1 0x4 MSTORE PUSH1 0x24 PUSH1 0x0 REVERT JUMPDEST POP PUSH1 0x1 ADD SWAP1 JUMP JUMPDEST PUSH1 0x0 DUP1 PUSH1 0x0 PUSH1 0x60 DUP5 DUP7 SUB SLT ISZERO PUSH2 0x920 JUMPI PUSH1 0x0 DUP1 REVERT JUMPDEST DUP4 MLOAD PUSH2 0x92B DUP2 PUSH2 0x65C JUMP JUMPDEST PUSH1 0x20 DUP6 ADD MLOAD PUSH1 0x40 DUP7 ADD MLOAD SWAP2 SWAP5 POP SWAP3 POP PUSH2 0x943 DUP2 PUSH2 0x65C JUMP JUMPDEST DUP1 SWAP2 POP POP SWAP3 POP SWAP3 POP SWAP3 JUMP JUMPDEST PUSH1 0x0 PUSH1 0x20 DUP3 DUP5 SUB SLT ISZERO PUSH2 0x960 JUMPI PUSH1 0x0 DUP1 REVERT JUMPDEST DUP2 MLOAD PUSH2 0x12B DUP2 PUSH2 0x65C JUMP INVALID LOG2 PUSH5 0x6970667358 0x22 SLT KECCAK256 0xFC 0xE 0x25 0xA8 0xB3 CALLDATACOPY 0xE7 PUSH1 0xCD 0xF9 0xA9 ORIGIN DUP8 GASPRICE DUP12 PC 0xDD 0xB7 SIGNEXTEND PUSH24 0x5A2A400AABF0FBB7C3A405FC64736F6C6343000809003300 ","sha1":"96b7b0728529009ea54f5084d8e8c55cf86d7e94","source":"// SPDX-License-Identifier: GPL-3.0-or-later\npragma solidity 0.8.9;\n\nimport \"../../../../interfaces/vendor/CToken.sol\";\nimport \"../../../../interfaces/vendor/Comptroller.sol\";\nimport \"../../../../libraries/Errors.sol\";\n\ncontract CTokenRegistry {\n    Comptroller public immutable comptroller;\n\n    address public constant COMPTROLLER_MAINNET_ADDRESS =\n        address(0x3d9819210A31b4961b30EF54bE2aeD79B9c9Cd3B);\n\n    mapping(address => address) internal _underlyingToCToken;\n\n    constructor(address comptrollerAddress) {\n        comptroller = Comptroller(comptrollerAddress);\n        _updateCTokenMapping();\n    }\n\n    /**\n     * @notice Tries to read the CToken contract address for a given underlying token address\n     * If not found, tries to fetch it from the Comptroller contract and fails if\n     * cannot find it in the comptroller either\n     */\n    function fetchCToken(address underlying) external returns (CToken) {\n        CToken ctoken = getCToken(underlying, false);\n        if (address(ctoken) != address(0)) {\n            return CToken(ctoken);\n        }\n\n        _updateCTokenMapping();\n        return getCToken(underlying, true);\n    }\n\n    /**\n     * @notice Reads the CToken contract address for a given underlying token address\n     * or fails if not found\n     */\n    function getCToken(address underlying) external view returns (CToken) {\n        return getCToken(underlying, true);\n    }\n\n    /**\n     * @notice Reads the CToken contract address for a given underlying token address\n     * If `ensureExists` is `true`, fails if not found, otherwise returns address 0\n     */\n    function getCToken(address underlying, bool ensureExists) public view returns (CToken) {\n        CToken ctoken = CToken(_underlyingToCToken[underlying]);\n        if (ensureExists && (address(ctoken) == address(0) || !_isCTokenUsable(ctoken))) {\n            revert(Error.UNDERLYING_NOT_SUPPORTED);\n        }\n        return ctoken;\n    }\n\n    /**\n     * @dev Updates the CToken mapping by fetching information from the Comptroller contract\n     */\n    function _updateCTokenMapping() internal {\n        CToken[] memory ctokens = comptroller.getAllMarkets();\n        for (uint256 i = 0; i < ctokens.length; i++) {\n            CToken ctoken = ctokens[i];\n            if (!_isCTokenUsable(ctoken)) {\n                continue;\n            }\n            if (\n                keccak256(abi.encodePacked(ctoken.symbol())) == keccak256(abi.encodePacked(\"cETH\"))\n            ) {\n                _underlyingToCToken[address(0)] = address(ctoken);\n            } else {\n                _underlyingToCToken[ctoken.underlying()] = address(ctoken);\n            }\n        }\n    }\n\n    function _isCTokenUsable(CToken ctoken) internal view returns (bool) {\n        (bool listed, , ) = comptroller.markets(address(ctoken));\n        // NOTE: comptroller.isDeprecated is not available on Kovan\n        bool deprecated = address(comptroller) == COMPTROLLER_MAINNET_ADDRESS &&\n            comptroller.isDeprecated(ctoken);\n        return listed && !deprecated;\n    }\n}\n","sourcePath":"contracts/actions/topup/handlers/CTokenRegistry.sol","type":"contract","deployment":{"address":"0x0E7De9De36ff1CeA86551642a3c52F89130D07d2","chainid":"42","blockHeight":30414871}}