{"abi":[{"inputs":[{"internalType":"contract IRoleManager","name":"roleManager","type":"address"}],"stateMutability":"nonpayable","type":"constructor","name":"constructor"},{"anonymous":false,"inputs":[{"indexed":true,"internalType":"address","name":"vault","type":"address"},{"indexed":true,"internalType":"address","name":"token","type":"address"},{"indexed":false,"internalType":"uint256","name":"amount","type":"uint256"}],"name":"Deposit","type":"event"},{"anonymous":false,"inputs":[{"indexed":true,"internalType":"address","name":"vault","type":"address"}],"name":"VaultListed","type":"event"},{"anonymous":false,"inputs":[{"indexed":true,"internalType":"address","name":"vault","type":"address"},{"indexed":true,"internalType":"address","name":"token","type":"address"},{"indexed":false,"internalType":"uint256","name":"amount","type":"uint256"}],"name":"Withdraw","type":"event"},{"inputs":[{"internalType":"address","name":"vault","type":"address"}],"name":"canWithdraw","outputs":[{"internalType":"bool","name":"","type":"bool"}],"stateMutability":"view","type":"function"},{"inputs":[{"internalType":"address","name":"token","type":"address"},{"internalType":"uint256","name":"amount","type":"uint256"}],"name":"deposit","outputs":[{"internalType":"bool","name":"","type":"bool"}],"stateMutability":"payable","type":"function"},{"inputs":[{"internalType":"address","name":"vault","type":"address"},{"internalType":"address","name":"token","type":"address"}],"name":"getBalance","outputs":[{"internalType":"uint256","name":"","type":"uint256"}],"stateMutability":"view","type":"function"},{"inputs":[],"name":"minWithdrawalDelay","outputs":[{"internalType":"uint256","name":"","type":"uint256"}],"stateMutability":"view","type":"function"},{"inputs":[],"name":"roleManager","outputs":[{"internalType":"contract IRoleManager","name":"","type":"address"}],"stateMutability":"view","type":"function"},{"inputs":[{"internalType":"address","name":"token","type":"address"},{"internalType":"uint256","name":"amount","type":"uint256"}],"name":"withdraw","outputs":[{"internalType":"bool","name":"","type":"bool"}],"stateMutability":"nonpayable","type":"function"}],"bytecode":"60a060405234801561001057600080fd5b50604051610d22380380610d2283398101604081905261002f91610047565b6001600160a01b03166080526203f480600255610077565b60006020828403121561005957600080fd5b81516001600160a01b038116811461007057600080fd5b9392505050565b608051610c8361009f600039600081816073015281816101a1015261051c0152610c836000f3fe6080604052600436106100545760003560e01c8062435da5146100595780630d5b0067146100a257806319262d30146100c657806347e7ef24146100f6578063d4fac45d14610109578063f3fef3a31461014d575b600080fd5b34801561006557600080fd5b506040516001600160a01b037f00000000000000000000000000000000000000000000000000000000000000001681526020015b60405180910390f35b3480156100ae57600080fd5b506100b860025481565b604051908152602001610099565b3480156100d257600080fd5b506100e66100e1366004610ada565b61016d565b6040519015158152602001610099565b6100e6610104366004610af5565b61019d565b34801561011557600080fd5b506100b8610124366004610b1f565b6001600160a01b0391821660009081526020818152604080832093909416825291909152205490565b34801561015957600080fd5b506100e6610168366004610af5565b610518565b6002546001600160a01b038216600090815260016020526040812054909161019491610b68565b42101592915050565b60007f0000000000000000000000000000000000000000000000000000000000000000604051632474521560e21b8152641d985d5b1d60da1b60048201523360248201526001600160a01b0391909116906391d148549060440160206040518083038186803b15801561020f57600080fd5b505afa158015610223573d6000803e3d6000fd5b505050506040513d601f19601f820116820180604052508101906102479190610b80565b60405180604001604052806013815260200172756e617574686f72697a65642061636365737360681b8152509061029a5760405162461bcd60e51b81526004016102919190610bce565b60405180910390fd5b506001600160a01b03831661032f5760408051808201909152600e81526d1a5b9d985b1a5908185b5bdd5b9d60921b60208201523483146102ee5760405162461bcd60e51b81526004016102919190610bce565b50336000908152602081815260408083206001600160a01b038716845290915281208054349290610320908490610b68565b90915550600191506105129050565b6040516370a0823160e01b81523060048201526000906001600160a01b038516906370a082319060240160206040518083038186803b15801561037157600080fd5b505afa158015610385573d6000803e3d6000fd5b505050506040513d601f19601f820116820180604052508101906103a99190610c01565b90506103c06001600160a01b0385163330866107c3565b6040516370a0823160e01b81523060048201526000906001600160a01b038616906370a082319060240160206040518083038186803b15801561040257600080fd5b505afa158015610416573d6000803e3d6000fd5b505050506040513d601f19601f8201168201806040525081019061043a9190610c01565b905060006104488383610c1a565b9050848110156040518060400160405280600e81526020016d1a5b9d985b1a5908185b5bdd5b9d60921b815250906104935760405162461bcd60e51b81526004016102919190610bce565b50336000908152602081815260408083206001600160a01b038a168452909152812080548392906104c5908490610b68565b90915550506040518581526001600160a01b0387169033907f5548c837ab068cf56a2c2479df0882a4922fd203edb7517321831d95078c5f629060200160405180910390a3600193505050505b92915050565b60007f0000000000000000000000000000000000000000000000000000000000000000604051632474521560e21b8152641d985d5b1d60da1b60048201523360248201526001600160a01b0391909116906391d148549060440160206040518083038186803b15801561058a57600080fd5b505afa15801561059e573d6000803e3d6000fd5b505050506040513d601f19601f820116820180604052508101906105c29190610b80565b60405180604001604052806013815260200172756e617574686f72697a65642061636365737360681b8152509061060c5760405162461bcd60e51b81526004016102919190610bce565b506106163361016d565b6040518060400160405280601781526020017f52657365727665206163636573732065786365656465640000000000000000008152509061066a5760405162461bcd60e51b81526004016102919190610bce565b50336000908152602081815260408083206001600160a01b03871684528252918290205482518084019093526014835273696e73756666696369656e742062616c616e636560601b9183019190915290838210156106db5760405162461bcd60e51b81526004016102919190610bce565b50336000908152602081815260408083206001600160a01b03881684529091528120805485929061070d908490610c1a565b90915550503360009081526001602052604090204290556001600160a01b03841661076557604051339084156108fc029085906000818181858888f1935050505015801561075f573d6000803e3d6000fd5b50610779565b6107796001600160a01b0385163385610834565b6040518381526001600160a01b0385169033907f9b1bfa7fa9ee420a16e124f794c35ac9f90472acc99140eb2f6447c714cad8eb9060200160405180910390a35060019392505050565b6040516001600160a01b038085166024830152831660448201526064810182905261082e9085906323b872dd60e01b906084015b60408051601f198184030181529190526020810180516001600160e01b03166001600160e01b031990931692909217909152610869565b50505050565b6040516001600160a01b03831660248201526044810182905261086490849063a9059cbb60e01b906064016107f7565b505050565b60006108be826040518060400160405280602081526020017f5361666545524332303a206c6f772d6c6576656c2063616c6c206661696c6564815250856001600160a01b031661093b9092919063ffffffff16565b80519091501561086457808060200190518101906108dc9190610b80565b6108645760405162461bcd60e51b815260206004820152602a60248201527f5361666545524332303a204552433230206f7065726174696f6e20646964206e6044820152691bdd081cdd58d8d9595960b21b6064820152608401610291565b606061094a8484600085610954565b90505b9392505050565b6060824710156109b55760405162461bcd60e51b815260206004820152602660248201527f416464726573733a20696e73756666696369656e742062616c616e636520666f6044820152651c8818d85b1b60d21b6064820152608401610291565b6001600160a01b0385163b610a0c5760405162461bcd60e51b815260206004820152601d60248201527f416464726573733a2063616c6c20746f206e6f6e2d636f6e74726163740000006044820152606401610291565b600080866001600160a01b03168587604051610a289190610c31565b60006040518083038185875af1925050503d8060008114610a65576040519150601f19603f3d011682016040523d82523d6000602084013e610a6a565b606091505b5091509150610a7a828286610a85565b979650505050505050565b60608315610a9457508161094d565b825115610aa45782518084602001fd5b8160405162461bcd60e51b81526004016102919190610bce565b80356001600160a01b0381168114610ad557600080fd5b919050565b600060208284031215610aec57600080fd5b61094d82610abe565b60008060408385031215610b0857600080fd5b610b1183610abe565b946020939093013593505050565b60008060408385031215610b3257600080fd5b610b3b83610abe565b9150610b4960208401610abe565b90509250929050565b634e487b7160e01b600052601160045260246000fd5b60008219821115610b7b57610b7b610b52565b500190565b600060208284031215610b9257600080fd5b8151801515811461094d57600080fd5b60005b83811015610bbd578181015183820152602001610ba5565b8381111561082e5750506000910152565b6020815260008251806020840152610bed816040850160208701610ba2565b601f01601f19169190910160400192915050565b600060208284031215610c1357600080fd5b5051919050565b600082821015610c2c57610c2c610b52565b500390565b60008251610c43818460208701610ba2565b919091019291505056fea2646970667358221220368eb5384f77392941fc6e16a80b8aea9ae14b1c1ce191efe1221cebd368868364736f6c63430008090033","bytecodeSha1":"8661c4f877b57ef35fe2f0a5352189368a1af1b1","compiler":{"evm_version":"london","optimizer":{"enabled":true,"runs":200},"version":"0.8.9+commit.e5eed63a"},"contractName":"VaultReserve","language":"Solidity","natspec":{"details":"ETH reserves are stored under address(0)","kind":"dev","methods":{"canWithdraw(address)":{"notice":"returns true if the vault is allowed to withdraw from the reserve"},"deposit(address,uint256)":{"notice":"Deposit funds into vault reserve.Only callable by a whitelisted vault.","params":{"amount":"Amount to deposit.","token":"Token to deposit."},"returns":{"_0":"True if deposit was successful."}},"getBalance(address,address)":{"notice":"Check token balance of a specific vault.","params":{"token":"Token to check balance in.","vault":"Vault to check balance of."},"returns":{"_0":"Token balance of vault."}},"withdraw(address,uint256)":{"notice":"Withdraw funds from vault reserve.Only callable by a whitelisted vault.","params":{"amount":"Amount to withdraw.","token":"Token to withdraw."},"returns":{"_0":"True if withdrawal was successful."}}},"notice":"Contract holding vault reserves","version":1},"opcodes":"PUSH1 0x80 PUSH1 0x40 MSTORE PUSH1 0x4 CALLDATASIZE LT PUSH2 0x54 JUMPI PUSH1 0x0 CALLDATALOAD PUSH1 0xE0 SHR DUP1 PUSH3 0x435DA5 EQ PUSH2 0x59 JUMPI DUP1 PUSH4 0xD5B0067 EQ PUSH2 0xA2 JUMPI DUP1 PUSH4 0x19262D30 EQ PUSH2 0xC6 JUMPI DUP1 PUSH4 0x47E7EF24 EQ PUSH2 0xF6 JUMPI DUP1 PUSH4 0xD4FAC45D EQ PUSH2 0x109 JUMPI DUP1 PUSH4 0xF3FEF3A3 EQ PUSH2 0x14D JUMPI JUMPDEST PUSH1 0x0 DUP1 REVERT JUMPDEST CALLVALUE DUP1 ISZERO PUSH2 0x65 JUMPI PUSH1 0x0 DUP1 REVERT JUMPDEST POP PUSH1 0x40 MLOAD PUSH1 0x1 PUSH1 0x1 PUSH1 0xA0 SHL SUB PUSH32 0x0 AND DUP2 MSTORE PUSH1 0x20 ADD JUMPDEST PUSH1 0x40 MLOAD DUP1 SWAP2 SUB SWAP1 RETURN JUMPDEST CALLVALUE DUP1 ISZERO PUSH2 0xAE JUMPI PUSH1 0x0 DUP1 REVERT JUMPDEST POP PUSH2 0xB8 PUSH1 0x2 SLOAD DUP2 JUMP JUMPDEST PUSH1 0x40 MLOAD SWAP1 DUP2 MSTORE PUSH1 0x20 ADD PUSH2 0x99 JUMP JUMPDEST CALLVALUE DUP1 ISZERO PUSH2 0xD2 JUMPI PUSH1 0x0 DUP1 REVERT JUMPDEST POP PUSH2 0xE6 PUSH2 0xE1 CALLDATASIZE PUSH1 0x4 PUSH2 0xADA JUMP JUMPDEST PUSH2 0x16D JUMP JUMPDEST PUSH1 0x40 MLOAD SWAP1 ISZERO ISZERO DUP2 MSTORE PUSH1 0x20 ADD PUSH2 0x99 JUMP JUMPDEST PUSH2 0xE6 PUSH2 0x104 CALLDATASIZE PUSH1 0x4 PUSH2 0xAF5 JUMP JUMPDEST PUSH2 0x19D JUMP JUMPDEST CALLVALUE DUP1 ISZERO PUSH2 0x115 JUMPI PUSH1 0x0 DUP1 REVERT JUMPDEST POP PUSH2 0xB8 PUSH2 0x124 CALLDATASIZE PUSH1 0x4 PUSH2 0xB1F JUMP JUMPDEST PUSH1 0x1 PUSH1 0x1 PUSH1 0xA0 SHL SUB SWAP2 DUP3 AND PUSH1 0x0 SWAP1 DUP2 MSTORE PUSH1 0x20 DUP2 DUP2 MSTORE PUSH1 0x40 DUP1 DUP4 KECCAK256 SWAP4 SWAP1 SWAP5 AND DUP3 MSTORE SWAP2 SWAP1 SWAP2 MSTORE KECCAK256 SLOAD SWAP1 JUMP JUMPDEST CALLVALUE DUP1 ISZERO PUSH2 0x159 JUMPI PUSH1 0x0 DUP1 REVERT JUMPDEST POP PUSH2 0xE6 PUSH2 0x168 CALLDATASIZE PUSH1 0x4 PUSH2 0xAF5 JUMP JUMPDEST PUSH2 0x518 JUMP JUMPDEST PUSH1 0x2 SLOAD PUSH1 0x1 PUSH1 0x1 PUSH1 0xA0 SHL SUB DUP3 AND PUSH1 0x0 SWAP1 DUP2 MSTORE PUSH1 0x1 PUSH1 0x20 MSTORE PUSH1 0x40 DUP2 KECCAK256 SLOAD SWAP1 SWAP2 PUSH2 0x194 SWAP2 PUSH2 0xB68 JUMP JUMPDEST TIMESTAMP LT ISZERO SWAP3 SWAP2 POP POP JUMP JUMPDEST PUSH1 0x0 PUSH32 0x0 PUSH1 0x40 MLOAD PUSH4 0x24745215 PUSH1 0xE2 SHL DUP2 MSTORE PUSH5 0x1D985D5B1D PUSH1 0xDA SHL PUSH1 0x4 DUP3 ADD MSTORE CALLER PUSH1 0x24 DUP3 ADD MSTORE PUSH1 0x1 PUSH1 0x1 PUSH1 0xA0 SHL SUB SWAP2 SWAP1 SWAP2 AND SWAP1 PUSH4 0x91D14854 SWAP1 PUSH1 0x44 ADD PUSH1 0x20 PUSH1 0x40 MLOAD DUP1 DUP4 SUB DUP2 DUP7 DUP1 EXTCODESIZE ISZERO DUP1 ISZERO PUSH2 0x20F JUMPI PUSH1 0x0 DUP1 REVERT JUMPDEST POP GAS STATICCALL ISZERO DUP1 ISZERO PUSH2 0x223 JUMPI RETURNDATASIZE PUSH1 0x0 DUP1 RETURNDATACOPY RETURNDATASIZE PUSH1 0x0 REVERT JUMPDEST POP POP POP POP PUSH1 0x40 MLOAD RETURNDATASIZE PUSH1 0x1F NOT PUSH1 0x1F DUP3 ADD AND DUP3 ADD DUP1 PUSH1 0x40 MSTORE POP DUP2 ADD SWAP1 PUSH2 0x247 SWAP2 SWAP1 PUSH2 0xB80 JUMP JUMPDEST PUSH1 0x40 MLOAD DUP1 PUSH1 0x40 ADD PUSH1 0x40 MSTORE DUP1 PUSH1 0x13 DUP2 MSTORE PUSH1 0x20 ADD PUSH19 0x756E617574686F72697A656420616363657373 PUSH1 0x68 SHL DUP2 MSTORE POP SWAP1 PUSH2 0x29A JUMPI PUSH1 0x40 MLOAD PUSH3 0x461BCD PUSH1 0xE5 SHL DUP2 MSTORE PUSH1 0x4 ADD PUSH2 0x291 SWAP2 SWAP1 PUSH2 0xBCE JUMP JUMPDEST PUSH1 0x40 MLOAD DUP1 SWAP2 SUB SWAP1 REVERT JUMPDEST POP PUSH1 0x1 PUSH1 0x1 PUSH1 0xA0 SHL SUB DUP4 AND PUSH2 0x32F JUMPI PUSH1 0x40 DUP1 MLOAD DUP1 DUP3 ADD SWAP1 SWAP2 MSTORE PUSH1 0xE DUP2 MSTORE PUSH14 0x1A5B9D985B1A5908185B5BDD5B9D PUSH1 0x92 SHL PUSH1 0x20 DUP3 ADD MSTORE CALLVALUE DUP4 EQ PUSH2 0x2EE JUMPI PUSH1 0x40 MLOAD PUSH3 0x461BCD PUSH1 0xE5 SHL DUP2 MSTORE PUSH1 0x4 ADD PUSH2 0x291 SWAP2 SWAP1 PUSH2 0xBCE JUMP JUMPDEST POP CALLER PUSH1 0x0 SWAP1 DUP2 MSTORE PUSH1 0x20 DUP2 DUP2 MSTORE PUSH1 0x40 DUP1 DUP4 KECCAK256 PUSH1 0x1 PUSH1 0x1 PUSH1 0xA0 SHL SUB DUP8 AND DUP5 MSTORE SWAP1 SWAP2 MSTORE DUP2 KECCAK256 DUP1 SLOAD CALLVALUE SWAP3 SWAP1 PUSH2 0x320 SWAP1 DUP5 SWAP1 PUSH2 0xB68 JUMP JUMPDEST SWAP1 SWAP2 SSTORE POP PUSH1 0x1 SWAP2 POP PUSH2 0x512 SWAP1 POP JUMP JUMPDEST PUSH1 0x40 MLOAD PUSH4 0x70A08231 PUSH1 0xE0 SHL DUP2 MSTORE ADDRESS PUSH1 0x4 DUP3 ADD MSTORE PUSH1 0x0 SWAP1 PUSH1 0x1 PUSH1 0x1 PUSH1 0xA0 SHL SUB DUP6 AND SWAP1 PUSH4 0x70A08231 SWAP1 PUSH1 0x24 ADD PUSH1 0x20 PUSH1 0x40 MLOAD DUP1 DUP4 SUB DUP2 DUP7 DUP1 EXTCODESIZE ISZERO DUP1 ISZERO PUSH2 0x371 JUMPI PUSH1 0x0 DUP1 REVERT JUMPDEST POP GAS STATICCALL ISZERO DUP1 ISZERO PUSH2 0x385 JUMPI RETURNDATASIZE PUSH1 0x0 DUP1 RETURNDATACOPY RETURNDATASIZE PUSH1 0x0 REVERT JUMPDEST POP POP POP POP PUSH1 0x40 MLOAD RETURNDATASIZE PUSH1 0x1F NOT PUSH1 0x1F DUP3 ADD AND DUP3 ADD DUP1 PUSH1 0x40 MSTORE POP DUP2 ADD SWAP1 PUSH2 0x3A9 SWAP2 SWAP1 PUSH2 0xC01 JUMP JUMPDEST SWAP1 POP PUSH2 0x3C0 PUSH1 0x1 PUSH1 0x1 PUSH1 0xA0 SHL SUB DUP6 AND CALLER ADDRESS DUP7 PUSH2 0x7C3 JUMP JUMPDEST PUSH1 0x40 MLOAD PUSH4 0x70A08231 PUSH1 0xE0 SHL DUP2 MSTORE ADDRESS PUSH1 0x4 DUP3 ADD MSTORE PUSH1 0x0 SWAP1 PUSH1 0x1 PUSH1 0x1 PUSH1 0xA0 SHL SUB DUP7 AND SWAP1 PUSH4 0x70A08231 SWAP1 PUSH1 0x24 ADD PUSH1 0x20 PUSH1 0x40 MLOAD DUP1 DUP4 SUB DUP2 DUP7 DUP1 EXTCODESIZE ISZERO DUP1 ISZERO PUSH2 0x402 JUMPI PUSH1 0x0 DUP1 REVERT JUMPDEST POP GAS STATICCALL ISZERO DUP1 ISZERO PUSH2 0x416 JUMPI RETURNDATASIZE PUSH1 0x0 DUP1 RETURNDATACOPY RETURNDATASIZE PUSH1 0x0 REVERT JUMPDEST POP POP POP POP PUSH1 0x40 MLOAD RETURNDATASIZE PUSH1 0x1F NOT PUSH1 0x1F DUP3 ADD AND DUP3 ADD DUP1 PUSH1 0x40 MSTORE POP DUP2 ADD SWAP1 PUSH2 0x43A SWAP2 SWAP1 PUSH2 0xC01 JUMP JUMPDEST SWAP1 POP PUSH1 0x0 PUSH2 0x448 DUP4 DUP4 PUSH2 0xC1A JUMP JUMPDEST SWAP1 POP DUP5 DUP2 LT ISZERO PUSH1 0x40 MLOAD DUP1 PUSH1 0x40 ADD PUSH1 0x40 MSTORE DUP1 PUSH1 0xE DUP2 MSTORE PUSH1 0x20 ADD PUSH14 0x1A5B9D985B1A5908185B5BDD5B9D PUSH1 0x92 SHL DUP2 MSTORE POP SWAP1 PUSH2 0x493 JUMPI PUSH1 0x40 MLOAD PUSH3 0x461BCD PUSH1 0xE5 SHL DUP2 MSTORE PUSH1 0x4 ADD PUSH2 0x291 SWAP2 SWAP1 PUSH2 0xBCE JUMP JUMPDEST POP CALLER PUSH1 0x0 SWAP1 DUP2 MSTORE PUSH1 0x20 DUP2 DUP2 MSTORE PUSH1 0x40 DUP1 DUP4 KECCAK256 PUSH1 0x1 PUSH1 0x1 PUSH1 0xA0 SHL SUB DUP11 AND DUP5 MSTORE SWAP1 SWAP2 MSTORE DUP2 KECCAK256 DUP1 SLOAD DUP4 SWAP3 SWAP1 PUSH2 0x4C5 SWAP1 DUP5 SWAP1 PUSH2 0xB68 JUMP JUMPDEST SWAP1 SWAP2 SSTORE POP POP PUSH1 0x40 MLOAD DUP6 DUP2 MSTORE PUSH1 0x1 PUSH1 0x1 PUSH1 0xA0 SHL SUB DUP8 AND SWAP1 CALLER SWAP1 PUSH32 0x5548C837AB068CF56A2C2479DF0882A4922FD203EDB7517321831D95078C5F62 SWAP1 PUSH1 0x20 ADD PUSH1 0x40 MLOAD DUP1 SWAP2 SUB SWAP1 LOG3 PUSH1 0x1 SWAP4 POP POP POP POP JUMPDEST SWAP3 SWAP2 POP POP JUMP JUMPDEST PUSH1 0x0 PUSH32 0x0 PUSH1 0x40 MLOAD PUSH4 0x24745215 PUSH1 0xE2 SHL DUP2 MSTORE PUSH5 0x1D985D5B1D PUSH1 0xDA SHL PUSH1 0x4 DUP3 ADD MSTORE CALLER PUSH1 0x24 DUP3 ADD MSTORE PUSH1 0x1 PUSH1 0x1 PUSH1 0xA0 SHL SUB SWAP2 SWAP1 SWAP2 AND SWAP1 PUSH4 0x91D14854 SWAP1 PUSH1 0x44 ADD PUSH1 0x20 PUSH1 0x40 MLOAD DUP1 DUP4 SUB DUP2 DUP7 DUP1 EXTCODESIZE ISZERO DUP1 ISZERO PUSH2 0x58A JUMPI PUSH1 0x0 DUP1 REVERT JUMPDEST POP GAS STATICCALL ISZERO DUP1 ISZERO PUSH2 0x59E JUMPI RETURNDATASIZE PUSH1 0x0 DUP1 RETURNDATACOPY RETURNDATASIZE PUSH1 0x0 REVERT JUMPDEST POP POP POP POP PUSH1 0x40 MLOAD RETURNDATASIZE PUSH1 0x1F NOT PUSH1 0x1F DUP3 ADD AND DUP3 ADD DUP1 PUSH1 0x40 MSTORE POP DUP2 ADD SWAP1 PUSH2 0x5C2 SWAP2 SWAP1 PUSH2 0xB80 JUMP JUMPDEST PUSH1 0x40 MLOAD DUP1 PUSH1 0x40 ADD PUSH1 0x40 MSTORE DUP1 PUSH1 0x13 DUP2 MSTORE PUSH1 0x20 ADD PUSH19 0x756E617574686F72697A656420616363657373 PUSH1 0x68 SHL DUP2 MSTORE POP SWAP1 PUSH2 0x60C JUMPI PUSH1 0x40 MLOAD PUSH3 0x461BCD PUSH1 0xE5 SHL DUP2 MSTORE PUSH1 0x4 ADD PUSH2 0x291 SWAP2 SWAP1 PUSH2 0xBCE JUMP JUMPDEST POP PUSH2 0x616 CALLER PUSH2 0x16D JUMP JUMPDEST PUSH1 0x40 MLOAD DUP1 PUSH1 0x40 ADD PUSH1 0x40 MSTORE DUP1 PUSH1 0x17 DUP2 MSTORE PUSH1 0x20 ADD PUSH32 0x5265736572766520616363657373206578636565646564000000000000000000 DUP2 MSTORE POP SWAP1 PUSH2 0x66A JUMPI PUSH1 0x40 MLOAD PUSH3 0x461BCD PUSH1 0xE5 SHL DUP2 MSTORE PUSH1 0x4 ADD PUSH2 0x291 SWAP2 SWAP1 PUSH2 0xBCE JUMP JUMPDEST POP CALLER PUSH1 0x0 SWAP1 DUP2 MSTORE PUSH1 0x20 DUP2 DUP2 MSTORE PUSH1 0x40 DUP1 DUP4 KECCAK256 PUSH1 0x1 PUSH1 0x1 PUSH1 0xA0 SHL SUB DUP8 AND DUP5 MSTORE DUP3 MSTORE SWAP2 DUP3 SWAP1 KECCAK256 SLOAD DUP3 MLOAD DUP1 DUP5 ADD SWAP1 SWAP4 MSTORE PUSH1 0x14 DUP4 MSTORE PUSH20 0x696E73756666696369656E742062616C616E6365 PUSH1 0x60 SHL SWAP2 DUP4 ADD SWAP2 SWAP1 SWAP2 MSTORE SWAP1 DUP4 DUP3 LT ISZERO PUSH2 0x6DB JUMPI PUSH1 0x40 MLOAD PUSH3 0x461BCD PUSH1 0xE5 SHL DUP2 MSTORE PUSH1 0x4 ADD PUSH2 0x291 SWAP2 SWAP1 PUSH2 0xBCE JUMP JUMPDEST POP CALLER PUSH1 0x0 SWAP1 DUP2 MSTORE PUSH1 0x20 DUP2 DUP2 MSTORE PUSH1 0x40 DUP1 DUP4 KECCAK256 PUSH1 0x1 PUSH1 0x1 PUSH1 0xA0 SHL SUB DUP9 AND DUP5 MSTORE SWAP1 SWAP2 MSTORE DUP2 KECCAK256 DUP1 SLOAD DUP6 SWAP3 SWAP1 PUSH2 0x70D SWAP1 DUP5 SWAP1 PUSH2 0xC1A JUMP JUMPDEST SWAP1 SWAP2 SSTORE POP POP CALLER PUSH1 0x0 SWAP1 DUP2 MSTORE PUSH1 0x1 PUSH1 0x20 MSTORE PUSH1 0x40 SWAP1 KECCAK256 TIMESTAMP SWAP1 SSTORE PUSH1 0x1 PUSH1 0x1 PUSH1 0xA0 SHL SUB DUP5 AND PUSH2 0x765 JUMPI PUSH1 0x40 MLOAD CALLER SWAP1 DUP5 ISZERO PUSH2 0x8FC MUL SWAP1 DUP6 SWAP1 PUSH1 0x0 DUP2 DUP2 DUP2 DUP6 DUP9 DUP9 CALL SWAP4 POP POP POP POP ISZERO DUP1 ISZERO PUSH2 0x75F JUMPI RETURNDATASIZE PUSH1 0x0 DUP1 RETURNDATACOPY RETURNDATASIZE PUSH1 0x0 REVERT JUMPDEST POP PUSH2 0x779 JUMP JUMPDEST PUSH2 0x779 PUSH1 0x1 PUSH1 0x1 PUSH1 0xA0 SHL SUB DUP6 AND CALLER DUP6 PUSH2 0x834 JUMP JUMPDEST PUSH1 0x40 MLOAD DUP4 DUP2 MSTORE PUSH1 0x1 PUSH1 0x1 PUSH1 0xA0 SHL SUB DUP6 AND SWAP1 CALLER SWAP1 PUSH32 0x9B1BFA7FA9EE420A16E124F794C35AC9F90472ACC99140EB2F6447C714CAD8EB SWAP1 PUSH1 0x20 ADD PUSH1 0x40 MLOAD DUP1 SWAP2 SUB SWAP1 LOG3 POP PUSH1 0x1 SWAP4 SWAP3 POP POP POP JUMP JUMPDEST PUSH1 0x40 MLOAD PUSH1 0x1 PUSH1 0x1 PUSH1 0xA0 SHL SUB DUP1 DUP6 AND PUSH1 0x24 DUP4 ADD MSTORE DUP4 AND PUSH1 0x44 DUP3 ADD MSTORE PUSH1 0x64 DUP2 ADD DUP3 SWAP1 MSTORE PUSH2 0x82E SWAP1 DUP6 SWAP1 PUSH4 0x23B872DD PUSH1 0xE0 SHL SWAP1 PUSH1 0x84 ADD JUMPDEST PUSH1 0x40 DUP1 MLOAD PUSH1 0x1F NOT DUP2 DUP5 SUB ADD DUP2 MSTORE SWAP2 SWAP1 MSTORE PUSH1 0x20 DUP2 ADD DUP1 MLOAD PUSH1 0x1 PUSH1 0x1 PUSH1 0xE0 SHL SUB AND PUSH1 0x1 PUSH1 0x1 PUSH1 0xE0 SHL SUB NOT SWAP1 SWAP4 AND SWAP3 SWAP1 SWAP3 OR SWAP1 SWAP2 MSTORE PUSH2 0x869 JUMP JUMPDEST POP POP POP POP JUMP JUMPDEST PUSH1 0x40 MLOAD PUSH1 0x1 PUSH1 0x1 PUSH1 0xA0 SHL SUB DUP4 AND PUSH1 0x24 DUP3 ADD MSTORE PUSH1 0x44 DUP2 ADD DUP3 SWAP1 MSTORE PUSH2 0x864 SWAP1 DUP5 SWAP1 PUSH4 0xA9059CBB PUSH1 0xE0 SHL SWAP1 PUSH1 0x64 ADD PUSH2 0x7F7 JUMP JUMPDEST POP POP POP JUMP JUMPDEST PUSH1 0x0 PUSH2 0x8BE DUP3 PUSH1 0x40 MLOAD DUP1 PUSH1 0x40 ADD PUSH1 0x40 MSTORE DUP1 PUSH1 0x20 DUP2 MSTORE PUSH1 0x20 ADD PUSH32 0x5361666545524332303A206C6F772D6C6576656C2063616C6C206661696C6564 DUP2 MSTORE POP DUP6 PUSH1 0x1 PUSH1 0x1 PUSH1 0xA0 SHL SUB AND PUSH2 0x93B SWAP1 SWAP3 SWAP2 SWAP1 PUSH4 0xFFFFFFFF AND JUMP JUMPDEST DUP1 MLOAD SWAP1 SWAP2 POP ISZERO PUSH2 0x864 JUMPI DUP1 DUP1 PUSH1 0x20 ADD SWAP1 MLOAD DUP2 ADD SWAP1 PUSH2 0x8DC SWAP2 SWAP1 PUSH2 0xB80 JUMP JUMPDEST PUSH2 0x864 JUMPI PUSH1 0x40 MLOAD PUSH3 0x461BCD PUSH1 0xE5 SHL DUP2 MSTORE PUSH1 0x20 PUSH1 0x4 DUP3 ADD MSTORE PUSH1 0x2A PUSH1 0x24 DUP3 ADD MSTORE PUSH32 0x5361666545524332303A204552433230206F7065726174696F6E20646964206E PUSH1 0x44 DUP3 ADD MSTORE PUSH10 0x1BDD081CDD58D8D95959 PUSH1 0xB2 SHL PUSH1 0x64 DUP3 ADD MSTORE PUSH1 0x84 ADD PUSH2 0x291 JUMP JUMPDEST PUSH1 0x60 PUSH2 0x94A DUP5 DUP5 PUSH1 0x0 DUP6 PUSH2 0x954 JUMP JUMPDEST SWAP1 POP JUMPDEST SWAP4 SWAP3 POP POP POP JUMP JUMPDEST PUSH1 0x60 DUP3 SELFBALANCE LT ISZERO PUSH2 0x9B5 JUMPI PUSH1 0x40 MLOAD PUSH3 0x461BCD PUSH1 0xE5 SHL DUP2 MSTORE PUSH1 0x20 PUSH1 0x4 DUP3 ADD MSTORE PUSH1 0x26 PUSH1 0x24 DUP3 ADD MSTORE PUSH32 0x416464726573733A20696E73756666696369656E742062616C616E636520666F PUSH1 0x44 DUP3 ADD MSTORE PUSH6 0x1C8818D85B1B PUSH1 0xD2 SHL PUSH1 0x64 DUP3 ADD MSTORE PUSH1 0x84 ADD PUSH2 0x291 JUMP JUMPDEST PUSH1 0x1 PUSH1 0x1 PUSH1 0xA0 SHL SUB DUP6 AND EXTCODESIZE PUSH2 0xA0C JUMPI PUSH1 0x40 MLOAD PUSH3 0x461BCD PUSH1 0xE5 SHL DUP2 MSTORE PUSH1 0x20 PUSH1 0x4 DUP3 ADD MSTORE PUSH1 0x1D PUSH1 0x24 DUP3 ADD MSTORE PUSH32 0x416464726573733A2063616C6C20746F206E6F6E2D636F6E7472616374000000 PUSH1 0x44 DUP3 ADD MSTORE PUSH1 0x64 ADD PUSH2 0x291 JUMP JUMPDEST PUSH1 0x0 DUP1 DUP7 PUSH1 0x1 PUSH1 0x1 PUSH1 0xA0 SHL SUB AND DUP6 DUP8 PUSH1 0x40 MLOAD PUSH2 0xA28 SWAP2 SWAP1 PUSH2 0xC31 JUMP JUMPDEST PUSH1 0x0 PUSH1 0x40 MLOAD DUP1 DUP4 SUB DUP2 DUP6 DUP8 GAS CALL SWAP3 POP POP POP RETURNDATASIZE DUP1 PUSH1 0x0 DUP2 EQ PUSH2 0xA65 JUMPI PUSH1 0x40 MLOAD SWAP2 POP PUSH1 0x1F NOT PUSH1 0x3F RETURNDATASIZE ADD AND DUP3 ADD PUSH1 0x40 MSTORE RETURNDATASIZE DUP3 MSTORE RETURNDATASIZE PUSH1 0x0 PUSH1 0x20 DUP5 ADD RETURNDATACOPY PUSH2 0xA6A JUMP JUMPDEST PUSH1 0x60 SWAP2 POP JUMPDEST POP SWAP2 POP SWAP2 POP PUSH2 0xA7A DUP3 DUP3 DUP7 PUSH2 0xA85 JUMP JUMPDEST SWAP8 SWAP7 POP POP POP POP POP POP POP JUMP JUMPDEST PUSH1 0x60 DUP4 ISZERO PUSH2 0xA94 JUMPI POP DUP2 PUSH2 0x94D JUMP JUMPDEST DUP3 MLOAD ISZERO PUSH2 0xAA4 JUMPI DUP3 MLOAD DUP1 DUP5 PUSH1 0x20 ADD REVERT JUMPDEST DUP2 PUSH1 0x40 MLOAD PUSH3 0x461BCD PUSH1 0xE5 SHL DUP2 MSTORE PUSH1 0x4 ADD PUSH2 0x291 SWAP2 SWAP1 PUSH2 0xBCE JUMP JUMPDEST DUP1 CALLDATALOAD PUSH1 0x1 PUSH1 0x1 PUSH1 0xA0 SHL SUB DUP2 AND DUP2 EQ PUSH2 0xAD5 JUMPI PUSH1 0x0 DUP1 REVERT JUMPDEST SWAP2 SWAP1 POP JUMP JUMPDEST PUSH1 0x0 PUSH1 0x20 DUP3 DUP5 SUB SLT ISZERO PUSH2 0xAEC JUMPI PUSH1 0x0 DUP1 REVERT JUMPDEST PUSH2 0x94D DUP3 PUSH2 0xABE JUMP JUMPDEST PUSH1 0x0 DUP1 PUSH1 0x40 DUP4 DUP6 SUB SLT ISZERO PUSH2 0xB08 JUMPI PUSH1 0x0 DUP1 REVERT JUMPDEST PUSH2 0xB11 DUP4 PUSH2 0xABE JUMP JUMPDEST SWAP5 PUSH1 0x20 SWAP4 SWAP1 SWAP4 ADD CALLDATALOAD SWAP4 POP POP POP JUMP JUMPDEST PUSH1 0x0 DUP1 PUSH1 0x40 DUP4 DUP6 SUB SLT ISZERO PUSH2 0xB32 JUMPI PUSH1 0x0 DUP1 REVERT JUMPDEST PUSH2 0xB3B DUP4 PUSH2 0xABE JUMP JUMPDEST SWAP2 POP PUSH2 0xB49 PUSH1 0x20 DUP5 ADD PUSH2 0xABE JUMP JUMPDEST SWAP1 POP SWAP3 POP SWAP3 SWAP1 POP JUMP JUMPDEST PUSH4 0x4E487B71 PUSH1 0xE0 SHL PUSH1 0x0 MSTORE PUSH1 0x11 PUSH1 0x4 MSTORE PUSH1 0x24 PUSH1 0x0 REVERT JUMPDEST PUSH1 0x0 DUP3 NOT DUP3 GT ISZERO PUSH2 0xB7B JUMPI PUSH2 0xB7B PUSH2 0xB52 JUMP JUMPDEST POP ADD SWAP1 JUMP JUMPDEST PUSH1 0x0 PUSH1 0x20 DUP3 DUP5 SUB SLT ISZERO PUSH2 0xB92 JUMPI PUSH1 0x0 DUP1 REVERT JUMPDEST DUP2 MLOAD DUP1 ISZERO ISZERO DUP2 EQ PUSH2 0x94D JUMPI PUSH1 0x0 DUP1 REVERT JUMPDEST PUSH1 0x0 JUMPDEST DUP4 DUP2 LT ISZERO PUSH2 0xBBD JUMPI DUP2 DUP2 ADD MLOAD DUP4 DUP3 ADD MSTORE PUSH1 0x20 ADD PUSH2 0xBA5 JUMP JUMPDEST DUP4 DUP2 GT ISZERO PUSH2 0x82E JUMPI POP POP PUSH1 0x0 SWAP2 ADD MSTORE JUMP JUMPDEST PUSH1 0x20 DUP2 MSTORE PUSH1 0x0 DUP3 MLOAD DUP1 PUSH1 0x20 DUP5 ADD MSTORE PUSH2 0xBED DUP2 PUSH1 0x40 DUP6 ADD PUSH1 0x20 DUP8 ADD PUSH2 0xBA2 JUMP JUMPDEST PUSH1 0x1F ADD PUSH1 0x1F NOT AND SWAP2 SWAP1 SWAP2 ADD PUSH1 0x40 ADD SWAP3 SWAP2 POP POP JUMP JUMPDEST PUSH1 0x0 PUSH1 0x20 DUP3 DUP5 SUB SLT ISZERO PUSH2 0xC13 JUMPI PUSH1 0x0 DUP1 REVERT JUMPDEST POP MLOAD SWAP2 SWAP1 POP JUMP JUMPDEST PUSH1 0x0 DUP3 DUP3 LT ISZERO PUSH2 0xC2C JUMPI PUSH2 0xC2C PUSH2 0xB52 JUMP JUMPDEST POP SUB SWAP1 JUMP JUMPDEST PUSH1 0x0 DUP3 MLOAD PUSH2 0xC43 DUP2 DUP5 PUSH1 0x20 DUP8 ADD PUSH2 0xBA2 JUMP JUMPDEST SWAP2 SWAP1 SWAP2 ADD SWAP3 SWAP2 POP POP JUMP INVALID LOG2 PUSH5 0x6970667358 0x22 SLT KECCAK256 CALLDATASIZE DUP15 0xB5 CODESIZE 0x4F PUSH24 0x392941FC6E16A80B8AEA9AE14B1C1CE191EFE1221CEBD368 DUP7 DUP4 PUSH5 0x736F6C6343 STOP ADDMOD MULMOD STOP CALLER ","sha1":"2c6692388d1361619669aa13ed11d1e1bb017dfa","source":"// SPDX-License-Identifier: GPL-3.0-or-later\npragma solidity 0.8.9;\n\nimport \"@openzeppelin/contracts/token/ERC20/utils/SafeERC20.sol\";\nimport \"@openzeppelin/contracts/token/ERC20/IERC20.sol\";\n\nimport \"../../interfaces/IVaultReserve.sol\";\nimport \"../../libraries/Errors.sol\";\n\nimport \"../access/Authorization.sol\";\nimport \"../vault/Vault.sol\";\n\n/**\n * @notice Contract holding vault reserves\n * @dev ETH reserves are stored under address(0)\n */\ncontract VaultReserve is IVaultReserve, Authorization {\n    using SafeERC20 for IERC20;\n\n    uint256 internal constant _INITIAL_WITHDRAWAL_DELAY = 3 days;\n\n    mapping(address => mapping(address => uint256)) private _balances;\n    mapping(address => uint256) private _lastWithdrawal;\n\n    uint256 public minWithdrawalDelay;\n\n    modifier onlyVault() {\n        require(_roleManager().hasRole(Roles.VAULT, msg.sender), Error.UNAUTHORIZED_ACCESS);\n        _;\n    }\n\n    constructor(IRoleManager roleManager) Authorization(roleManager) {\n        minWithdrawalDelay = _INITIAL_WITHDRAWAL_DELAY;\n    }\n\n    /**\n     * @notice Deposit funds into vault reserve.\n     * @notice Only callable by a whitelisted vault.\n     * @param token Token to deposit.\n     * @param amount Amount to deposit.\n     * @return True if deposit was successful.\n     */\n    function deposit(address token, uint256 amount)\n        external\n        payable\n        override\n        onlyVault\n        returns (bool)\n    {\n        if (token == address(0)) {\n            require(msg.value == amount, Error.INVALID_AMOUNT);\n            _balances[msg.sender][token] += msg.value;\n            return true;\n        }\n        uint256 balance = IERC20(token).balanceOf(address(this));\n        IERC20(token).safeTransferFrom(msg.sender, address(this), amount);\n        uint256 newBalance = IERC20(token).balanceOf(address(this));\n        uint256 received = newBalance - balance;\n        require(received >= amount, Error.INVALID_AMOUNT);\n        _balances[msg.sender][token] += received;\n        emit Deposit(msg.sender, token, amount);\n        return true;\n    }\n\n    /**\n     * @notice Withdraw funds from vault reserve.\n     * @notice Only callable by a whitelisted vault.\n     * @param token Token to withdraw.\n     * @param amount Amount to withdraw.\n     * @return True if withdrawal was successful.\n     */\n    function withdraw(address token, uint256 amount) external override onlyVault returns (bool) {\n        require(canWithdraw(msg.sender), Error.RESERVE_ACCESS_EXCEEDED);\n        uint256 accountBalance = _balances[msg.sender][token];\n        require(accountBalance >= amount, Error.INSUFFICIENT_BALANCE);\n\n        _balances[msg.sender][token] -= amount;\n        _lastWithdrawal[msg.sender] = block.timestamp;\n\n        if (token == address(0)) {\n            payable(msg.sender).transfer(amount);\n        } else {\n            IERC20(token).safeTransfer(msg.sender, amount);\n        }\n        emit Withdraw(msg.sender, token, amount);\n        return true;\n    }\n\n    /**\n     * @notice Check token balance of a specific vault.\n     * @param vault Vault to check balance of.\n     * @param token Token to check balance in.\n     * @return Token balance of vault.\n     */\n    function getBalance(address vault, address token) public view override returns (uint256) {\n        return _balances[vault][token];\n    }\n\n    /**\n     * @notice returns true if the vault is allowed to withdraw from the reserve\n     */\n    function canWithdraw(address vault) public view returns (bool) {\n        return block.timestamp >= _lastWithdrawal[vault] + minWithdrawalDelay;\n    }\n}\n","sourcePath":"contracts/vault/VaultReserve.sol","type":"contract","deployment":{"address":"0x102ed8a5Dd48306248e7C9C39F0c1c77d1F3D350","chainid":"42","blockHeight":30414719}}