{"abi":[{"inputs":[{"internalType":"contract IController","name":"_controller","type":"address"}],"stateMutability":"nonpayable","type":"constructor","name":"constructor"},{"anonymous":false,"inputs":[{"indexed":true,"internalType":"bytes32","name":"key","type":"bytes32"},{"indexed":false,"internalType":"address","name":"value","type":"address"},{"indexed":false,"internalType":"uint256","name":"delay","type":"uint256"}],"name":"ConfigPreparedAddress","type":"event"},{"anonymous":false,"inputs":[{"indexed":true,"internalType":"bytes32","name":"key","type":"bytes32"},{"indexed":false,"internalType":"uint256","name":"value","type":"uint256"},{"indexed":false,"internalType":"uint256","name":"delay","type":"uint256"}],"name":"ConfigPreparedNumber","type":"event"},{"anonymous":false,"inputs":[{"indexed":true,"internalType":"bytes32","name":"key","type":"bytes32"}],"name":"ConfigReset","type":"event"},{"anonymous":false,"inputs":[{"indexed":true,"internalType":"bytes32","name":"key","type":"bytes32"},{"indexed":false,"internalType":"address","name":"oldValue","type":"address"},{"indexed":false,"internalType":"address","name":"newValue","type":"address"}],"name":"ConfigUpdatedAddress","type":"event"},{"anonymous":false,"inputs":[{"indexed":true,"internalType":"bytes32","name":"key","type":"bytes32"},{"indexed":false,"internalType":"uint256","name":"oldValue","type":"uint256"},{"indexed":false,"internalType":"uint256","name":"newValue","type":"uint256"}],"name":"ConfigUpdatedNumber","type":"event"},{"anonymous":false,"inputs":[{"indexed":true,"internalType":"address","name":"payer","type":"address"},{"indexed":true,"internalType":"address","name":"account","type":"address"},{"indexed":true,"internalType":"bytes32","name":"protocol","type":"bytes32"}],"name":"Deregister","type":"event"},{"anonymous":false,"inputs":[{"indexed":true,"internalType":"address","name":"account","type":"address"},{"indexed":true,"internalType":"bytes32","name":"protocol","type":"bytes32"},{"indexed":true,"internalType":"uint256","name":"threshold","type":"uint256"},{"indexed":false,"internalType":"address","name":"payer","type":"address"},{"indexed":false,"internalType":"address","name":"depositToken","type":"address"},{"indexed":false,"internalType":"uint256","name":"depositAmount","type":"uint256"},{"indexed":false,"internalType":"address","name":"actionToken","type":"address"},{"indexed":false,"internalType":"uint256","name":"singleTopUpAmount","type":"uint256"},{"indexed":false,"internalType":"uint256","name":"totalTopUpAmount","type":"uint256"},{"indexed":false,"internalType":"uint256","name":"maxGasPrice","type":"uint256"},{"indexed":false,"internalType":"bool","name":"repayDebt","type":"bool"}],"name":"Register","type":"event"},{"anonymous":false,"inputs":[{"indexed":true,"internalType":"address","name":"account","type":"address"},{"indexed":true,"internalType":"bytes32","name":"protocol","type":"bytes32"},{"indexed":true,"internalType":"address","name":"payer","type":"address"},{"indexed":false,"internalType":"address","name":"depositToken","type":"address"},{"indexed":false,"internalType":"uint256","name":"consumedDepositAmount","type":"uint256"},{"indexed":false,"internalType":"address","name":"actionToken","type":"address"},{"indexed":false,"internalType":"uint256","name":"topupAmount","type":"uint256"}],"name":"TopUp","type":"event"},{"inputs":[{"internalType":"address","name":"token","type":"address"}],"name":"addUsableToken","outputs":[{"internalType":"bool","name":"","type":"bool"}],"stateMutability":"nonpayable","type":"function"},{"inputs":[],"name":"addressProvider","outputs":[{"internalType":"contract IAddressProvider","name":"","type":"address"}],"stateMutability":"view","type":"function"},{"inputs":[],"name":"controller","outputs":[{"internalType":"contract IController","name":"","type":"address"}],"stateMutability":"view","type":"function"},{"inputs":[{"internalType":"bytes32","name":"","type":"bytes32"}],"name":"currentAddresses","outputs":[{"internalType":"address","name":"","type":"address"}],"stateMutability":"view","type":"function"},{"inputs":[{"internalType":"bytes32","name":"","type":"bytes32"}],"name":"currentUInts256","outputs":[{"internalType":"uint256","name":"","type":"uint256"}],"stateMutability":"view","type":"function"},{"inputs":[{"internalType":"bytes32","name":"","type":"bytes32"}],"name":"deadlines","outputs":[{"internalType":"uint256","name":"","type":"uint256"}],"stateMutability":"view","type":"function"},{"inputs":[{"internalType":"address","name":"payer","type":"address"},{"internalType":"address","name":"account","type":"address"},{"internalType":"address","name":"beneficiary","type":"address"},{"internalType":"bytes32","name":"protocol","type":"bytes32"}],"name":"execute","outputs":[{"internalType":"bool","name":"","type":"bool"}],"stateMutability":"nonpayable","type":"function"},{"inputs":[{"internalType":"address","name":"payer","type":"address"},{"internalType":"address","name":"account","type":"address"},{"internalType":"address","name":"beneficiary","type":"address"},{"internalType":"bytes32","name":"protocol","type":"bytes32"},{"internalType":"uint256","name":"maxWeiForGas","type":"uint256"}],"name":"execute","outputs":[{"internalType":"bool","name":"","type":"bool"}],"stateMutability":"nonpayable","type":"function"},{"inputs":[],"name":"executeActionFee","outputs":[{"internalType":"uint256","name":"","type":"uint256"}],"stateMutability":"nonpayable","type":"function"},{"inputs":[],"name":"executeEstimatedGasUsage","outputs":[{"internalType":"uint256","name":"","type":"uint256"}],"stateMutability":"nonpayable","type":"function"},{"inputs":[],"name":"executeFeeHandler","outputs":[{"internalType":"address","name":"","type":"address"}],"stateMutability":"nonpayable","type":"function"},{"inputs":[],"name":"executeSwapperSlippage","outputs":[{"internalType":"uint256","name":"","type":"uint256"}],"stateMutability":"nonpayable","type":"function"},{"inputs":[{"internalType":"bytes32","name":"protocol","type":"bytes32"}],"name":"executeTopUpHandler","outputs":[{"internalType":"address","name":"","type":"address"}],"stateMutability":"nonpayable","type":"function"},{"inputs":[],"name":"getActionFee","outputs":[{"internalType":"uint256","name":"","type":"uint256"}],"stateMutability":"view","type":"function"},{"inputs":[],"name":"getEstimatedGasUsage","outputs":[{"internalType":"uint256","name":"","type":"uint256"}],"stateMutability":"view","type":"function"},{"inputs":[{"internalType":"address","name":"payer","type":"address"}],"name":"getEthRequiredForGas","outputs":[{"internalType":"uint256","name":"","type":"uint256"}],"stateMutability":"view","type":"function"},{"inputs":[],"name":"getFeeHandler","outputs":[{"internalType":"address","name":"","type":"address"}],"stateMutability":"view","type":"function"},{"inputs":[{"internalType":"bytes32","name":"protocol","type":"bytes32"}],"name":"getHandler","outputs":[{"internalType":"address","name":"","type":"address"}],"stateMutability":"view","type":"function"},{"inputs":[{"internalType":"bytes32","name":"protocol","type":"bytes32"},{"internalType":"address","name":"account","type":"address"}],"name":"getHealthFactor","outputs":[{"internalType":"uint256","name":"healthFactor","type":"uint256"}],"stateMutability":"view","type":"function"},{"inputs":[{"internalType":"address","name":"payer","type":"address"},{"internalType":"address","name":"account","type":"address"},{"internalType":"bytes32","name":"protocol","type":"bytes32"}],"name":"getPosition","outputs":[{"components":[{"internalType":"uint64","name":"threshold","type":"uint64"},{"internalType":"uint64","name":"priorityFee","type":"uint64"},{"internalType":"uint64","name":"maxFee","type":"uint64"},{"internalType":"address","name":"actionToken","type":"address"},{"internalType":"address","name":"depositToken","type":"address"},{"internalType":"uint128","name":"singleTopUpAmount","type":"uint128"},{"internalType":"uint128","name":"totalTopUpAmount","type":"uint128"},{"internalType":"uint128","name":"depositTokenBalance","type":"uint128"},{"internalType":"bool","name":"repayDebt","type":"bool"}],"internalType":"struct ITopUpAction.Record","name":"","type":"tuple"}],"stateMutability":"view","type":"function"},{"inputs":[],"name":"getSupportedProtocols","outputs":[{"internalType":"bytes32[]","name":"","type":"bytes32[]"}],"stateMutability":"view","type":"function"},{"inputs":[],"name":"getSwapperSlippage","outputs":[{"internalType":"uint256","name":"","type":"uint256"}],"stateMutability":"view","type":"function"},{"inputs":[{"internalType":"bytes32","name":"protocol","type":"bytes32"}],"name":"getTopUpHandler","outputs":[{"internalType":"address","name":"","type":"address"}],"stateMutability":"view","type":"function"},{"inputs":[],"name":"getUsableTokens","outputs":[{"internalType":"address[]","name":"","type":"address[]"}],"stateMutability":"view","type":"function"},{"inputs":[{"internalType":"address","name":"payer","type":"address"}],"name":"getUserPositions","outputs":[{"components":[{"internalType":"address","name":"account","type":"address"},{"internalType":"bytes32","name":"protocol","type":"bytes32"}],"internalType":"struct ITopUpAction.RecordMeta[]","name":"","type":"tuple[]"}],"stateMutability":"view","type":"function"},{"inputs":[{"internalType":"address","name":"feeHandler","type":"address"},{"internalType":"bytes32[]","name":"protocols","type":"bytes32[]"},{"internalType":"address[]","name":"handlers","type":"address[]"}],"name":"initialize","outputs":[],"stateMutability":"nonpayable","type":"function"},{"inputs":[{"internalType":"address","name":"token","type":"address"}],"name":"isUsable","outputs":[{"internalType":"bool","name":"","type":"bool"}],"stateMutability":"view","type":"function"},{"inputs":[{"internalType":"bytes32","name":"","type":"bytes32"}],"name":"pendingAddresses","outputs":[{"internalType":"address","name":"","type":"address"}],"stateMutability":"view","type":"function"},{"inputs":[{"internalType":"bytes32","name":"","type":"bytes32"}],"name":"pendingUInts256","outputs":[{"internalType":"uint256","name":"","type":"uint256"}],"stateMutability":"view","type":"function"},{"inputs":[{"internalType":"uint256","name":"newActionFee","type":"uint256"}],"name":"prepareActionFee","outputs":[{"internalType":"bool","name":"","type":"bool"}],"stateMutability":"nonpayable","type":"function"},{"inputs":[{"internalType":"uint256","name":"gasUsage","type":"uint256"}],"name":"prepareEstimatedGasUsage","outputs":[{"internalType":"bool","name":"","type":"bool"}],"stateMutability":"nonpayable","type":"function"},{"inputs":[{"internalType":"address","name":"handler","type":"address"}],"name":"prepareFeeHandler","outputs":[{"internalType":"bool","name":"","type":"bool"}],"stateMutability":"nonpayable","type":"function"},{"inputs":[{"internalType":"uint256","name":"newSwapperSlippage","type":"uint256"}],"name":"prepareSwapperSlippage","outputs":[{"internalType":"bool","name":"","type":"bool"}],"stateMutability":"nonpayable","type":"function"},{"inputs":[{"internalType":"bytes32","name":"protocol","type":"bytes32"},{"internalType":"address","name":"newHandler","type":"address"}],"name":"prepareTopUpHandler","outputs":[{"internalType":"bool","name":"","type":"bool"}],"stateMutability":"nonpayable","type":"function"},{"inputs":[{"internalType":"address","name":"account","type":"address"},{"internalType":"bytes32","name":"protocol","type":"bytes32"},{"internalType":"uint128","name":"depositAmount","type":"uint128"},{"components":[{"internalType":"uint64","name":"threshold","type":"uint64"},{"internalType":"uint64","name":"priorityFee","type":"uint64"},{"internalType":"uint64","name":"maxFee","type":"uint64"},{"internalType":"address","name":"actionToken","type":"address"},{"internalType":"address","name":"depositToken","type":"address"},{"internalType":"uint128","name":"singleTopUpAmount","type":"uint128"},{"internalType":"uint128","name":"totalTopUpAmount","type":"uint128"},{"internalType":"uint128","name":"depositTokenBalance","type":"uint128"},{"internalType":"bool","name":"repayDebt","type":"bool"}],"internalType":"struct ITopUpAction.Record","name":"record","type":"tuple"}],"name":"register","outputs":[{"internalType":"bool","name":"","type":"bool"}],"stateMutability":"payable","type":"function"},{"inputs":[],"name":"resetActionFee","outputs":[{"internalType":"bool","name":"","type":"bool"}],"stateMutability":"nonpayable","type":"function"},{"inputs":[],"name":"resetFeeHandler","outputs":[{"internalType":"bool","name":"","type":"bool"}],"stateMutability":"nonpayable","type":"function"},{"inputs":[],"name":"resetGasUsage","outputs":[{"internalType":"bool","name":"","type":"bool"}],"stateMutability":"nonpayable","type":"function"},{"inputs":[{"internalType":"address","name":"account","type":"address"},{"internalType":"bytes32","name":"protocol","type":"bytes32"},{"internalType":"bool","name":"unstake","type":"bool"}],"name":"resetPosition","outputs":[{"internalType":"bool","name":"","type":"bool"}],"stateMutability":"nonpayable","type":"function"},{"inputs":[],"name":"resetSwapperSlippage","outputs":[{"internalType":"bool","name":"","type":"bool"}],"stateMutability":"nonpayable","type":"function"},{"inputs":[{"internalType":"bytes32","name":"protocol","type":"bytes32"}],"name":"resetTopUpHandler","outputs":[{"internalType":"bool","name":"","type":"bool"}],"stateMutability":"nonpayable","type":"function"},{"inputs":[],"name":"roleManager","outputs":[{"internalType":"contract IRoleManager","name":"","type":"address"}],"stateMutability":"view","type":"function"},{"inputs":[{"internalType":"uint256","name":"cursor","type":"uint256"},{"internalType":"uint256","name":"howMany","type":"uint256"}],"name":"usersWithPositions","outputs":[{"internalType":"address[]","name":"users","type":"address[]"},{"internalType":"uint256","name":"nextCursor","type":"uint256"}],"stateMutability":"view","type":"function"},{"stateMutability":"payable","type":"receive"}],"bytecode":"60e06040523480156200001157600080fd5b5060405162005fd738038062005fd783398101604081905262000034916200029c565b620000c7816001600160a01b0316632954018c6040518163ffffffff1660e01b815260040160206040518083038186803b1580156200007257600080fd5b505afa15801562000087573d6000803e3d6000fd5b505050506040513d601f19601f82011682018060405250810190620000ad91906200029c565b6001600160a01b03166200018560201b62003d471760201c565b6001600160a01b03908116608052811660a081905260408051630a55006360e21b81529051632954018c91600480820192602092909190829003018186803b1580156200011357600080fd5b505afa15801562000128573d6000803e3d6000fd5b505050506040513d601f19601f820116820180604052508101906200014e91906200029c565b6001600160a01b031660c0526200017d70457374696d61746564476173557361676560781b6207a12062000217565b5050620002c3565b6040516321f8a72160e01b81526a3937b632a6b0b730b3b2b960a91b60048201526000906001600160a01b038316906321f8a7219060240160206040518083038186803b158015620001d657600080fd5b505afa158015620001eb573d6000803e3d6000fd5b505050506040513d601f19601f820116820180604052508101906200021191906200029c565b92915050565b6000828152600360209081526040808320805490859055600183528184208490556004835281842084905581518181529283018590529185917fcc0bafe2accb565ea70674bf4b2555e49a47d410fb9932dfab3e5f41855d0a2f910160405180910390a2509092915050565b6001600160a01b03811681146200029957600080fd5b50565b600060208284031215620002af57600080fd5b8151620002bc8162000283565b9392505050565b60805160a05160c051615c3c6200039b6000396000818161039301528181610b0301528181610d5e015281816114e1015281816117a401528181611ad701528181613746015281816141d5015281816146e2015281816147ff015281816148d2015261497e0152600081816108d3015261116801526000818161027a01528181610ec001528181610ff8015281816124b50152818161279e0152818161289b015281816129a401528181612aa701528181612bc401528181612cf801528181612fbd015281816131660152613b700152615c3c6000f3fe60806040526004361061025f5760003560e01c80638cb164f911610144578063c84ce0d0116100b6578063e3976edf1161007a578063e3976edf1461082b578063e471696714610861578063ec59425414610876578063f76c33991461088b578063f77c4791146108c1578063ff13d719146108f557600080fd5b8063c84ce0d01461067e578063cc0b4001146106ac578063d1f6ced1146107e1578063d41b4e72146107f6578063d7e241bf1461081857600080fd5b8063b75d609a11610108578063b75d609a146105dd578063b7837b2e146105fd578063ba46fba614610612578063bba018a114610627578063bc92464a14610649578063bef47adf1461066957600080fd5b80638cb164f91461053057806391d08007146105505780639e1876e514610570578063a90875ab14610590578063aff1b7e4146105b057600080fd5b80632ff8e157116101dd5780634bcfc83c116101a15780634bcfc83c14610499578063532913a5146104b95780636df45f55146104db57806375614e3f146104f05780637dc318461461051057806380fdfe2c1461033157600080fd5b80632ff8e157146103f75780633007860614610417578063340ed9fd1461042c578063346a4a511461044c5780634505e56c1461047957600080fd5b80631ecb8ac6116102245780631ecb8ac61461033157806328f72c3d146103515780632954018c146103815780632a6bc2dd146103b55780632fe35e14146103e257600080fd5b8062435da51461026b578063100b5f2e146102b757806313c5daf6146102da57806315dbfe62146102ef5780631bb480e51461031c57600080fd5b3661026657005b600080fd5b34801561027757600080fd5b507f00000000000000000000000000000000000000000000000000000000000000005b6040516001600160a01b0390911681526020015b60405180910390f35b3480156102c357600080fd5b506102cc61091a565b6040519081526020016102ae565b3480156102e657600080fd5b506102cc61095d565b3480156102fb57600080fd5b506102cc61030a366004615364565b60016020526000908152604090205481565b34801561032857600080fd5b506102cc61099f565b34801561033d57600080fd5b5061029a61034c366004615364565b6109be565b34801561035d57600080fd5b5061037161036c3660046153b9565b6109d1565b60405190151581526020016102ae565b34801561038d57600080fd5b5061029a7f000000000000000000000000000000000000000000000000000000000000000081565b3480156103c157600080fd5b506103d56103d03660046153fb565b610df8565b6040516102ae9190615418565b3480156103ee57600080fd5b506102cc610e83565b34801561040357600080fd5b50610371610412366004615470565b610ea3565b34801561042357600080fd5b50610371610ebc565b34801561043857600080fd5b5061029a610447366004615364565b610fc4565b34801561045857600080fd5b506102cc610467366004615364565b60046020526000908152604090205481565b34801561048557600080fd5b50610371610494366004615364565b610ff4565b3480156104a557600080fd5b506103716104b43660046154c1565b611150565b3480156104c557600080fd5b506104ce6123f8565b6040516102ae919061551c565b3480156104e757600080fd5b506102cc61249a565b3480156104fc57600080fd5b5061037161050b366004615560565b6124b1565b34801561051c57600080fd5b506102cc61052b3660046153fb565b6125b5565b34801561053c57600080fd5b5061037161054b3660046153fb565b61279a565b34801561055c57600080fd5b5061037161056b3660046153fb565b612897565b34801561057c57600080fd5b5061037161058b366004615364565b6129a0565b34801561059c57600080fd5b506103716105ab366004615364565b612aa3565b3480156105bc57600080fd5b506102cc6105cb366004615364565b60036020526000908152604090205481565b3480156105e957600080fd5b506103716105f83660046153fb565b612bb3565b34801561060957600080fd5b50610371612bc0565b34801561061e57600080fd5b5061029a612cd0565b34801561063357600080fd5b5061063c612ce8565b6040516102ae91906155d4565b34801561065557600080fd5b50610371610664366004615364565b612cf4565b34801561067557600080fd5b5061029a612e6b565b34801561068a57600080fd5b5061069e6106993660046155e7565b612eaf565b6040516102ae929190615609565b3480156106b857600080fd5b506107d46106c736600461562b565b6040805161012081018252600080825260208201819052918101829052606081018290526080810182905260a0810182905260c0810182905260e08101829052610100810191909152506001600160a01b039283166000908152600a60209081526040808320948616835293815283822092825291825282902082516101208101845281546001600160401b038082168352600160401b8204811694830194909452600160801b90819004909316938101939093526001810154841660608401526002810154909316608083015260038301546001600160801b0380821660a085015290829004811660c084015260049093015492831660e083015290910460ff16151561010082015290565b6040516102ae919061566c565b3480156107ed57600080fd5b50610371612fb9565b34801561080257600080fd5b50610816610811366004615777565b6130c0565b005b610371610826366004615874565b6133b5565b34801561083757600080fd5b5061029a610846366004615364565b6000602081905290815260409020546001600160a01b031681565b34801561086d57600080fd5b50610371613b6c565b34801561088257600080fd5b506102cc613c7b565b34801561089757600080fd5b5061029a6108a6366004615364565b6002602052600090815260409020546001600160a01b031681565b3480156108cd57600080fd5b5061029a7f000000000000000000000000000000000000000000000000000000000000000081565b34801561090157600080fd5b506102cc610910366004615560565b613cb5565b905090565b714d617853776170706572536c69707061676560701b60005260036020527f0a7ab04b93b5e6e7a6233e3dba8c0355d868f3f251b1df44eccff4c6067798195490565b70457374696d61746564476173557361676560781b60005260036020527fd92ae9a825c06e5a7102e086cc9fd80c4ef8adf441004161c8b93e0e5b4492a25490565b600061091570457374696d61746564476173557361676560781b613dd0565b60006109cb826000613df4565b92915050565b336000818152600a602090815260408083206001600160a01b038881168552908352818420878552835281842082516101208101845281546001600160401b03808216808452600160401b8304821684890152600160801b92839004909116838701526001840154851660608401526002840154909416608083015260038301546001600160801b0380821660a085015290829004811660c084015260049093015492831660e083015290910460ff161515610100820152825180840190935260128352716e6f20706f736974696f6e2065786973747360701b93830193909352929392610adb5760405162461bcd60e51b8152600401610ad2919061599c565b60405180910390fd5b50608081015160405163059eadeb60e41b81526001600160a01b0391821660048201526000917f000000000000000000000000000000000000000000000000000000000000000016906359eadeb09060240160206040518083038186803b158015610b4557600080fd5b505afa158015610b59573d6000803e3d6000fd5b505050506040513d601f19601f82011682018060405250810190610b7d91906159cf565b60e0830151604051636a278cd960e01b815291925082916001600160a01b03831691636a278cd991610bb39188916004016159ec565b602060405180830381600087803b158015610bcd57600080fd5b505af1158015610be1573d6000803e3d6000fd5b505050506040513d601f19601f82011682018060405250810190610c059190615a0e565b508515610cc95760e08301516040516305c2fbcf60e31b81526001600160801b0390911660048201526001600160a01b03821690632e17de7890602401602060405180830381600087803b158015610c5c57600080fd5b505af1158015610c70573d6000803e3d6000fd5b505050506040513d601f19601f82011682018060405250810190610c949190615a0e565b50610cc4848460e001516001600160801b031685608001516001600160a01b0316613e869092919063ffffffff16565b610d4e565b60e083015160405163a9059cbb60e01b81526001600160a01b0383169163a9059cbb91610cfa9188916004016159ec565b602060405180830381600087803b158015610d1457600080fd5b505af1158015610d28573d6000803e3d6000fd5b505050506040513d601f19601f82011682018060405250810190610d4c9190615a0e565b505b610d59848989613eee565b610d8b7f00000000000000000000000000000000000000000000000000000000000000006001600160a01b0316613fe9565b6040516335272c2560e21b81526001600160a01b038681166004830152919091169063d49cb09490602401600060405180830381600087803b158015610dd057600080fd5b505af1158015610de4573d6000803e3d6000fd5b5050505060019450505050505b9392505050565b6001600160a01b0381166000908152600b60209081526040808320805482518185028101850190935280835260609492939192909184015b82821015610e78576000848152602090819020604080518082019091526002850290910180546001600160a01b03168252600190810154828401529083529092019101610e30565b505050509050919050565b6000610915714d617853776170706572536c69707061676560701b613dd0565b6000610eb3858585856000611150565b95945050505050565b60007f0000000000000000000000000000000000000000000000000000000000000000604051632474521560e21b815269676f7665726e616e636560b01b60048201523360248201526001600160a01b0391909116906391d148549060440160206040518083038186803b158015610f3357600080fd5b505afa158015610f47573d6000803e3d6000fd5b505050506040513d601f19601f82011682018060405250810190610f6b9190615a0e565b604051806040016040528060138152602001600080516020615bc683398151915281525090610fad5760405162461bcd60e51b8152600401610ad2919061599c565b50610915692332b2a430b7323632b960b11b614022565b600080610fd2836000613df4565b90506000610fe7610fe2856140d3565b614115565b9050610df1848383614142565b60007f0000000000000000000000000000000000000000000000000000000000000000604051632474521560e21b815269676f7665726e616e636560b01b60048201523360248201526001600160a01b0391909116906391d148549060440160206040518083038186803b15801561106b57600080fd5b505afa15801561107f573d6000803e3d6000fd5b505050506040513d601f19601f820116820180604052508101906110a39190615a0e565b604051806040016040528060138152602001600080516020615bc6833981519152815250906110e55760405162461bcd60e51b8152600401610ad2919061599c565b5060408051808201909152600e81526d1a5b9d985b1a5908185b5bdd5b9d60921b60208201526706f05b59d3b200008311156111345760405162461bcd60e51b8152600401610ad2919061599c565b506109cb68416374696f6e46656560b81b8361417a565b919050565b6040516306547d4b60e21b81523360048201526000907f00000000000000000000000000000000000000000000000000000000000000006001600160a01b031690631951f52c9060240160206040518083038186803b1580156111b257600080fd5b505afa1580156111c6573d6000803e3d6000fd5b505050506040513d601f19601f820116820180604052508101906111ea9190615a0e565b6040518060400160405280601c81526020017f4e6f7420656e6f75676820424b4420746f6b656e73207374616b6564000000008152509061123e5760405162461bcd60e51b8152600401610ad2919061599c565b50611306604051806102e001604052806000815260200160008152602001600081526020016000815260200160008152602001600081526020016000815260200160008152602001600081526020016000815260200160006001600160801b0316815260200160001515815260200160608152602001600081526020016000815260200160008152602001600081526020016000815260200160008152602001600081526020016000815260200160006001600160a01b031681526020016000151581525090565b5a6101c08201526001600160a01b038088166000908152600a60209081526040808320938a1683529281528282208783528152908290208054835180850190945260128452716e6f20706f736974696f6e2065786973747360701b9284019290925291906001600160401b03166113905760405162461bcd60e51b8152600401610ad2919061599c565b506003810154604080518082019091526014815273696e73756666696369656e742062616c616e636560601b602082015290600160801b90046001600160801b03166113ef5760405162461bcd60e51b8152600401610ad2919061599c565b5060006113fd866001613df4565b60405162e8514d60e51b81526001600160a01b038a8116600483015291925090821690631d0a29a09060240160206040518083038186803b15801561144157600080fd5b505afa158015611455573d6000803e3d6000fd5b505050506040513d601f19601f820116820180604052508101906114799190615a2b565b6080840181905282546040805180820190915260168152751a5b9cdd59999a58da595b9d081d1a1c995cda1bdb1960521b6020820152916001600160401b03909116116114d95760405162461bcd60e51b8152600401610ad2919061599c565b50600061150e7f00000000000000000000000000000000000000000000000000000000000000006001600160a01b0316613fe9565b905061151861095d565b610220850181905261152b903a90615a5a565b610240850152825461154d90600160401b90046001600160401b031648615a79565b61020085018190523a1015611564573a6102008501525b8254610200850151600160801b9091046001600160401b0316101561159c578254600160801b90046001600160401b03166102008501525b858461020001518561022001516115b39190615a5a565b6115bd9190615a79565b8461024001511115604051806060016040528060218152602001615b7e60219139906115fc5760405162461bcd60e51b8152600401610ad2919061599c565b506040516370a0823160e01b81526001600160a01b038b811660048301528216906370a082319060240160206040518083038186803b15801561163e57600080fd5b505afa158015611652573d6000803e3d6000fd5b505050506040513d601f19601f820116820180604052508101906116769190615a2b565b6101a0850181905261024085015190611690908890615a79565b1015604051806060016040528060278152602001615b9f60279139906116c95760405162461bcd60e51b8152600401610ad2919061599c565b506003830154600160801b90046001600160801b03166101408501526116ed613c7b565b610100850181905260038401546001600160801b031685526117239061171b90670de0b6b3a7640000615a79565b85519061418a565b606085018190526101408501516001600160801b0316101561177d576101408401516001600160801b0316606085015261010084015161177a9061176f90670de0b6b3a7640000615a79565b6060860151906141a9565b84525b6002830154604051630956fef360e21b81526001600160a01b0391821660048201526000917f0000000000000000000000000000000000000000000000000000000000000000169063255bfbcc9060240160206040518083038186803b1580156117e657600080fd5b505afa1580156117fa573d6000803e3d6000fd5b505050506040513d601f19601f8201168201806040525081019061181e91906159cf565b9050806001600160a01b0316639816f4736040518163ffffffff1660e01b815260040160206040518083038186803b15801561185957600080fd5b505afa15801561186d573d6000803e3d6000fd5b505050506040513d601f19601f8201168201806040525081019061189191906159cf565b856102a001906001600160a01b031690816001600160a01b031681525050806001600160a01b0316633ba0b9a96040518163ffffffff1660e01b815260040160206040518083038186803b1580156118e857600080fd5b505afa1580156118fc573d6000803e3d6000fd5b505050506040513d601f19601f820116820180604052508101906119209190615a2b565b60a086015260018401546102a08601516000916001600160a01b03918216911614611a08576102a0860151600186015461196391906001600160a01b03166141be565b6102a08701516001870154604051631bcdc3f560e11b81526001600160a01b0392831660048201529082166024820152919250611a02919083169063379b87ea9060440160206040518083038186803b1580156119bf57600080fd5b505afa1580156119d3573d6000803e3d6000fd5b505050506040513d601f19601f820116820180604052508101906119f79190615a2b565b60a08801519061418a565b60a08701525b60a08601516060870151611a1b9161427c565b60c0870181905260048601546001600160801b03161015611a825760048501546001600160801b031660c0870152610100860151611a6190670de0b6b3a7640000615a79565b8660a001518760c00151611a759190615a5a565b611a7f9190615a91565b86525b60a08601518651611a929161427c565b60e0870181905260c0870151611aa89190615ab3565b6040878101919091526002860154905163059eadeb60e41b81526001600160a01b0391821660048201526000917f000000000000000000000000000000000000000000000000000000000000000016906359eadeb09060240160206040518083038186803b158015611b1957600080fd5b505afa158015611b2d573d6000803e3d6000fd5b505050506040513d601f19601f82011682018060405250810190611b5191906159cf565b60c08801516040516305c2fbcf60e31b81529192506001600160a01b03831691632e17de7891611b879160040190815260200190565b602060405180830381600087803b158015611ba157600080fd5b505af1158015611bb5573d6000803e3d6000fd5b505050506040513d601f19601f82011682018060405250810190611bd99190615a0e565b5060c0870151604051636a278cd960e01b81526001600160a01b038f81166004830152602482019290925290821690636a278cd990604401602060405180830381600087803b158015611c2b57600080fd5b505af1158015611c3f573d6000803e3d6000fd5b505050506040513d601f19601f82011682018060405250810190611c639190615a0e565b5060e087015160405163db006a7560e01b815260048101919091526001600160a01b0384169063db006a7590602401602060405180830381600087803b158015611cac57600080fd5b505af1158015611cc0573d6000803e3d6000fd5b505050506040513d601f19601f82011682018060405250810190611ce49190615a2b565b60208801526001600160a01b03821615611dc657611d0b611d0361091a565b88519061418a565b87526102a0870151611d1d90836142a8565b6102a0870151600187015460208901518951604051637f0148ab60e11b81526001600160a01b0394851660048201529284166024840152604483019190915260648201529083169063fe02915690608401602060405180830381600087803b158015611d8857600080fd5b505af1158015611d9c573d6000803e3d6000fd5b505050506040513d601f19601f82011682018060405250810190611dc09190615a2b565b60208801525b60a08701516040880151611dd99161418a565b8760200151611de89190615a79565b87610120018181525050846001600160a01b03168c8760010160009054906101000a90046001600160a01b031689602001518960040160109054906101000a900460ff16604051602401611e6394939291906001600160a01b0394851681529290931660208301526040820152901515606082015260800190565b60408051601f198184030181529181526020820180516001600160e01b0316633389d7db60e21b17905251611e989190615aca565b600060405180830381855af49150503d8060008114611ed3576040519150601f19603f3d011682016040523d82523d6000602084013e611ed8565b606091505b50610180890152158015610160890181905290611f095750866101800151806020019051810190611f099190615a0e565b6040518060400160405280600d81526020016c1d1bdc081d5c0819985a5b1959609a1b81525090611f4d5760405162461bcd60e51b8152600401610ad2919061599c565b508661012001518761014001516001600160801b03161115611fbc57610120870151600387018054601090611f93908490600160801b90046001600160801b0316615ae6565b92506101000a8154816001600160801b0302191690836001600160801b03160217905550611fce565b6003860180546001600160801b031690555b60c0870151600487018054600090611ff09084906001600160801b0316615ae6565b92506101000a8154816001600160801b0302191690836001600160801b031602179055508560030160109054906101000a90046001600160801b03166001600160801b03166000148061204e575060048601546001600160801b0316155b15156102c088015260408701516002870154612077918f918e91906001600160a01b031661434f565b866102c00151156121d15760048601546001600160801b0316156121c657806001600160a01b031663a9059cbb8e8860040160009054906101000a90046001600160801b03166040518363ffffffff1660e01b81526004016120da9291906159ec565b602060405180830381600087803b1580156120f457600080fd5b505af1158015612108573d6000803e3d6000fd5b505050506040513d601f19601f8201168201806040525081019061212c9190615a0e565b50806001600160a01b0316636a278cd98e8860040160009054906101000a90046001600160801b03166040518363ffffffff1660e01b81526004016121729291906159ec565b602060405180830381600087803b15801561218c57600080fd5b505af11580156121a0573d6000803e3d6000fd5b505050506040513d601f19601f820116820180604052508101906121c49190615a0e565b505b6121d18d8d8c613eee565b600286015460c088015160018801546020808b0151604080516001600160a01b03968716815292830194909452918416928101929092526060820152818f16918c91908f16907f1cc2b485c79a887aaf9be5a861a7af2897533d6b38181d27ebd47ed6a660f2429060800160405180910390a45a876101c001516122559190615ab3565b6101e0880181905261020088015161226d9190615a5a565b61028088018190526101a0880151101561228e576101a08701516102808801525b6101e087015161229e903a615a5a565b61026088018190526102808801516122b7908b90615a79565b10156040518060400160405280601981526020017f746f6f206d75636820455448207573656420666f7220676173000000000000008152509061230d5760405162461bcd60e51b8152600401610ad2919061599c565b50610280870151604051634aaad4a160e11b81526001600160a01b038f81166004830152336024830152604482019290925290851690639555a94290606401600060405180830381600087803b15801561236657600080fd5b505af115801561237a573d6000803e3d6000fd5b50505050866102c00151156123e5576040516335272c2560e21b81526001600160a01b038e8116600483015285169063d49cb09490602401600060405180830381600087803b1580156123cc57600080fd5b505af11580156123e0573d6000803e3d6000fd5b505050505b5060019c9b505050505050505050505050565b606060006124066008614401565b90506000816001600160401b0381111561242257612422615810565b60405190808252806020026020018201604052801561244b578160200160208202803683370190505b50905060005b828110156124935761246460088261440b565b82828151811061247657612476615b0e565b60209081029190910101528061248b81615b24565b915050612451565b5092915050565b600061091568416374696f6e46656560b81b613dd0565b60007f0000000000000000000000000000000000000000000000000000000000000000604051632474521560e21b815269676f7665726e616e636560b01b60048201523360248201526001600160a01b0391909116906391d148549060440160206040518083038186803b15801561252857600080fd5b505afa15801561253c573d6000803e3d6000fd5b505050506040513d601f19601f820116820180604052508101906125609190615a0e565b604051806040016040528060138152602001600080516020615bc6833981519152815250906125a25760405162461bcd60e51b8152600401610ad2919061599c565b50610df16125af846140d3565b83614417565b6001600160a01b0381166000908152600b60209081526040808320805482518185028101850190935280835284938493929190849084015b82821015612635576000848152602090819020604080518082019091526002850290910180546001600160a01b031682526001908101548284015290835290920191016125ed565b505050509050600061264561095d565b825190915060005b8181101561278f57600084828151811061266957612669615b0e565b6020908102919091018101516001600160a01b038a81166000908152600a845260408082208451841683528552808220848601518352855280822081516101208101835281546001600160401b038082168352600160401b8204811698830198909852600160801b90819004909716928101929092526001810154841660608301526002810154909316608082015260038301546001600160801b0380821660a0840181905291879004811660c0840181905260049095015490811660e08401529590950460ff16151561010082015292945091926127489190614427565b60408301519091506001600160401b03166127638783615a5a565b61276d9190615a5a565b6127779089615a79565b9750505050808061278790615b24565b91505061264d565b509295945050505050565b60007f0000000000000000000000000000000000000000000000000000000000000000604051632474521560e21b815269676f7665726e616e636560b01b60048201523360248201526001600160a01b0391909116906391d148549060440160206040518083038186803b15801561281157600080fd5b505afa158015612825573d6000803e3d6000fd5b505050506040513d601f19601f820116820180604052508101906128499190615a0e565b604051806040016040528060138152602001600080516020615bc68339815191528152509061288b5760405162461bcd60e51b8152600401610ad2919061599c565b506109cb600683614436565b60007f0000000000000000000000000000000000000000000000000000000000000000604051632474521560e21b815269676f7665726e616e636560b01b60048201523360248201526001600160a01b0391909116906391d148549060440160206040518083038186803b15801561290e57600080fd5b505afa158015612922573d6000803e3d6000fd5b505050506040513d601f19601f820116820180604052508101906129469190615a0e565b604051806040016040528060138152602001600080516020615bc6833981519152815250906129885760405162461bcd60e51b8152600401610ad2919061599c565b506109cb692332b2a430b7323632b960b11b83614417565b60007f0000000000000000000000000000000000000000000000000000000000000000604051632474521560e21b815269676f7665726e616e636560b01b60048201523360248201526001600160a01b0391909116906391d148549060440160206040518083038186803b158015612a1757600080fd5b505afa158015612a2b573d6000803e3d6000fd5b505050506040513d601f19601f82011682018060405250810190612a4f9190615a0e565b604051806040016040528060138152602001600080516020615bc683398151915281525090612a915760405162461bcd60e51b8152600401610ad2919061599c565b506109cb612a9e836140d3565b614022565b60007f0000000000000000000000000000000000000000000000000000000000000000604051632474521560e21b815269676f7665726e616e636560b01b60048201523360248201526001600160a01b0391909116906391d148549060440160206040518083038186803b158015612b1a57600080fd5b505afa158015612b2e573d6000803e3d6000fd5b505050506040513d601f19601f82011682018060405250810190612b529190615a0e565b604051806040016040528060138152602001600080516020615bc683398151915281525090612b945760405162461bcd60e51b8152600401610ad2919061599c565b506109cb70457374696d61746564476173557361676560781b8361417a565b60006109cb60068361444b565b60007f0000000000000000000000000000000000000000000000000000000000000000604051632474521560e21b815269676f7665726e616e636560b01b60048201523360248201526001600160a01b0391909116906391d148549060440160206040518083038186803b158015612c3757600080fd5b505afa158015612c4b573d6000803e3d6000fd5b505050506040513d601f19601f82011682018060405250810190612c6f9190615a0e565b604051806040016040528060138152602001600080516020615bc683398151915281525090612cb15760405162461bcd60e51b8152600401610ad2919061599c565b50610915714d617853776170706572536c69707061676560701b61446d565b6000610915692332b2a430b7323632b960b11b614115565b60606109156006614514565b60007f0000000000000000000000000000000000000000000000000000000000000000604051632474521560e21b815269676f7665726e616e636560b01b60048201523360248201526001600160a01b0391909116906391d148549060440160206040518083038186803b158015612d6b57600080fd5b505afa158015612d7f573d6000803e3d6000fd5b505050506040513d601f19601f82011682018060405250810190612da39190615a0e565b604051806040016040528060138152602001600080516020615bc683398151915281525090612de55760405162461bcd60e51b8152600401610ad2919061599c565b50670853a0d2313c00008210158015612e065750670d2f13f7789f00008211155b6040518060400160405280600e81526020016d1a5b9d985b1a5908185b5bdd5b9d60921b81525090612e4b5760405162461bcd60e51b8152600401610ad2919061599c565b506109cb714d617853776170706572536c69707061676560701b8361417a565b692332b2a430b7323632b960b11b60005260026020527f6ca0624ed247bf0fea5288fbb74a4bd8fc7f94847d3670d0c0d9ba9a2af3242c546001600160a01b031690565b6060600080612ebe600c614401565b9050808510612ee0575050604080516000808252602082019092529150612fb2565b612eea8582615ab3565b8410612efd57612efa8582615ab3565b93505b6000846001600160401b03811115612f1757612f17615810565b604051908082528060200260200182016040528015612f40578160200160208202803683370190505b50905060005b85811015612f9f57612f63612f5b8883615a79565b600c9061440b565b828281518110612f7557612f75615b0e565b6001600160a01b039092166020928302919091019091015280612f9781615b24565b915050612f46565b5080612fab8688615a79565b9350935050505b9250929050565b60007f0000000000000000000000000000000000000000000000000000000000000000604051632474521560e21b815269676f7665726e616e636560b01b60048201523360248201526001600160a01b0391909116906391d148549060440160206040518083038186803b15801561303057600080fd5b505afa158015613044573d6000803e3d6000fd5b505050506040513d601f19601f820116820180604052508101906130689190615a0e565b604051806040016040528060138152602001600080516020615bc6833981519152815250906130aa5760405162461bcd60e51b8152600401610ad2919061599c565b5061091568416374696f6e46656560b81b61446d565b600554610100900460ff166130db5760055460ff16156130df565b303b155b6131425760405162461bcd60e51b815260206004820152602e60248201527f496e697469616c697a61626c653a20636f6e747261637420697320616c72656160448201526d191e481a5b9a5d1a585b1a5e995960921b6064820152608401610ad2565b600554610100900460ff16158015613164576005805461ffff19166101011790555b7f0000000000000000000000000000000000000000000000000000000000000000604051632474521560e21b815269676f7665726e616e636560b01b60048201523360248201526001600160a01b0391909116906391d148549060440160206040518083038186803b1580156131d957600080fd5b505afa1580156131ed573d6000803e3d6000fd5b505050506040513d601f19601f820116820180604052508101906132119190615a0e565b604051806040016040528060138152602001600080516020615bc6833981519152815250906132535760405162461bcd60e51b8152600401610ad2919061599c565b5060408051808201909152601081526f1a5b9d985b1a5908185c99dd5b595b9d60821b602082015284831461329b5760405162461bcd60e51b8152600401610ad2919061599c565b506132b3692332b2a430b7323632b960b11b876145ba565b506132db714d617853776170706572536c69707061676560701b670d2f13f7789f0000614645565b5060005b8481101561339a57600061330a8787848181106132fe576132fe615b0e565b905060200201356140d3565b905061333c8186868581811061332257613322615b0e565b905060200201602081019061333791906153fb565b6145ba565b5061338787878481811061335257613352615b0e565b90506020020135600087878681811061336d5761336d615b0e565b905060200201602081019061338291906153fb565b614142565b508061339281615b24565b9150506132df565b5080156133ad576005805461ff00191690555b505050505050565b60006133c26008856146a6565b604051806040016040528060128152602001711c1c9bdd1bd8dbdb081b9bdd08199bdd5b9960721b8152509061340b5760405162461bcd60e51b8152600401610ad2919061599c565b5060008260a001516001600160801b0316116040518060400160405280600e81526020016d1a5b9d985b1a5908185b5bdd5b9d60921b815250906134625760405162461bcd60e51b8152600401610ad2919061599c565b50670de0b6b3a764000082600001516001600160401b0316116040518060400160405280600e81526020016d1a5b9d985b1a5908185b5bdd5b9d60921b815250906134c05760405162461bcd60e51b8152600401610ad2919061599c565b508160c001516001600160801b03168260a001516001600160801b031611156040518060400160405280600e81526020016d1a5b9d985b1a5908185b5bdd5b9d60921b815250906135245760405162461bcd60e51b8152600401610ad2919061599c565b50336000908152600a602090815260408083206001600160a01b03891684528252808320878452825291829020548251808401909352601783527f706f736974696f6e20616c726561647920657869737473000000000000000000918301919091526001600160401b0316156135ad5760405162461bcd60e51b8152600401610ad2919061599c565b506135c0826080015183606001516146be565b604051806040016040528060138152602001721cddd85c081c185d1a081b9bdd08199bdd5b99606a1b8152509061360a5760405162461bcd60e51b8152600401610ad2919061599c565b506136188260800151612bb3565b604051806060016040528060288152602001615b56602891399061364f5760405162461bcd60e51b8152600401610ad2919061599c565b50600061365a61095d565b83604001516001600160401b03166136958560a001516001600160801b03168660c001516001600160801b031661442790919063ffffffff16565b61369f9190615a5a565b6136a99190615a5a565b9050803410156040518060400160405280601a81526020017f76616c756520746f6f206c6f7720746f20636f76657220676173000000000000815250906137035760405162461bcd60e51b8152600401610ad2919061599c565b506000613726846080015185606001518660c001516001600160801b03166148bb565b905061374133856080015183886001600160801b031661495c565b6137737f00000000000000000000000000000000000000000000000000000000000000006001600160a01b0316613fe9565b60405163aa67c91960e01b81523360048201526001600160a01b03919091169063aa67c9199034906024016000604051808303818588803b1580156137b757600080fd5b505af11580156137cb573d6000803e3d6000fd5b5050505050808460e001906001600160801b031690816001600160801b03168152505083600a6000336001600160a01b03166001600160a01b031681526020019081526020016000206000896001600160a01b03166001600160a01b03168152602001908152602001600020600088815260200190815260200160002060008201518160000160006101000a8154816001600160401b0302191690836001600160401b0316021790555060208201518160000160086101000a8154816001600160401b0302191690836001600160401b0316021790555060408201518160000160106101000a8154816001600160401b0302191690836001600160401b0316021790555060608201518160010160006101000a8154816001600160a01b0302191690836001600160a01b0316021790555060808201518160020160006101000a8154816001600160a01b0302191690836001600160a01b0316021790555060a08201518160030160006101000a8154816001600160801b0302191690836001600160801b0316021790555060c08201518160030160106101000a8154816001600160801b0302191690836001600160801b0316021790555060e08201518160040160006101000a8154816001600160801b0302191690836001600160801b031602179055506101008201518160040160106101000a81548160ff021916908315150217905550905050600b6000336001600160a01b03166001600160a01b031681526020019081526020016000206040518060400160405280896001600160a01b0316815260200188815250908060018154018082558091505060019003906000526020600020906002020160009091909190915060008201518160000160006101000a8154816001600160a01b0302191690836001600160a01b03160217905550602082015181600101555050613a8d33600c61443690919063ffffffff16565b5083600001516001600160401b031686886001600160a01b03167f88cc1820fb3b8c2414e61704cbf68e517a5e0cd1af9fe40cfb5070c53a7e6071338860800151868a606001518b60a001518c60c001518d604001518e6101000151604051613b579897969594939291906001600160a01b039889168152968816602088015260408701959095529290951660608501526001600160801b0390811660808501529390931660a08301526001600160401b039290921660c082015290151560e08201526101000190565b60405180910390a45060019695505050505050565b60007f0000000000000000000000000000000000000000000000000000000000000000604051632474521560e21b815269676f7665726e616e636560b01b60048201523360248201526001600160a01b0391909116906391d148549060440160206040518083038186803b158015613be357600080fd5b505afa158015613bf7573d6000803e3d6000fd5b505050506040513d601f19601f82011682018060405250810190613c1b9190615a0e565b604051806040016040528060138152602001600080516020615bc683398151915281525090613c5d5760405162461bcd60e51b8152600401610ad2919061599c565b5061091570457374696d61746564476173557361676560781b61446d565b68416374696f6e46656560b81b60005260036020527fa54dccff97a6072259c3aa6b782765087d250e0214d8d05826d45d992ff11fac5490565b600080613cc3846001613df4565b60405162e8514d60e51b81526001600160a01b03858116600483015291925090821690631d0a29a09060240160206040518083038186803b158015613d0757600080fd5b505afa158015613d1b573d6000803e3d6000fd5b505050506040513d601f19601f82011682018060405250810190613d3f9190615a2b565b949350505050565b6040516321f8a72160e01b81526a3937b632a6b0b730b3b2b960a91b60048201526000906001600160a01b038316906321f8a721906024015b60206040518083038186803b158015613d9857600080fd5b505afa158015613dac573d6000803e3d6000fd5b505050506040513d601f19601f820116820180604052508101906109cb91906159cf565b6000613ddb82614a8d565b6000828152600160205260409020546124938382614645565b60008060026000613e04866140d3565b81526020810191909152604001600020546001600160a01b03169050821580613e3557506001600160a01b03811615155b604051806040016040528060128152602001711c1c9bdd1bd8dbdb081b9bdd08199bdd5b9960721b81525090613e7e5760405162461bcd60e51b8152600401610ad2919061599c565b509392505050565b6040516001600160a01b038316602482015260448101829052613ee990849063a9059cbb60e01b906064015b60408051601f198184030181529190526020810180516001600160e01b03166001600160e01b031990931692909217909152614b36565b505050565b6001600160a01b038084166000908152600a602090815260408083209386168352928152828220848352905290812080546001600160c01b03191681556001810180546001600160a01b031990811690915560028201805490911690556003810191909155600401805470ffffffffffffffffffffffffffffffffff19169055613f79838383614c08565b6001600160a01b0383166000908152600b6020526040902054613fa357613fa1600c84614d42565b505b80826001600160a01b0316846001600160a01b03167f9e42103de6527e30e7bdde19d27ec0a9936bca0c315fbe2163514cc67f15cfa160405160405180910390a4505050565b6040516321f8a72160e01b81526667617342616e6b60c81b60048201526000906001600160a01b038316906321f8a72190602401613d80565b600081815260046020908152604080832054815180830190925260128252710646561646c696e65206d75737420626520360741b928201929092529061407b5760405162461bcd60e51b8152600401610ad2919061599c565b5060008281526004602090815260408083208390559082905280822080546001600160a01b03191690555183917f90fb84ad67dd037c388289337bb80b61b8605d38ba9a875dc38b5600909d172f91a2506001919050565b604080516b2a37b82ab82430b7323632b960a11b6020820152908101829052600090606001604051602081830303815290604052805190602001209050919050565b600061412082614a8d565b6000828152602081905260409020546001600160a01b031661249383826145ba565b6001600160a01b0381166141615761415b600884614d57565b50505050565b6001600160a01b038216613ee95761415b600884614d63565b6000610df183836203f480614d6f565b6000670de0b6b3a764000061419f8385615a5a565b610df19190615a91565b60008161419f670de0b6b3a764000085615a5a565b6040516376b4805160e01b81526001600160a01b037f00000000000000000000000000000000000000000000000000000000000000008116600483015280841660248301528216604482015260009073__TopUpActionLibrary____________________906376b480519060640160206040518083038186803b15801561424457600080fd5b505af4158015614258573d6000803e3d6000fd5b505050506040513d601f19601f82011682018060405250810190610df191906159cf565b600081600181614294670de0b6b3a764000087615a5a565b61429e9190615a79565b61419f9190615ab3565b604051636eb1769f60e11b81523060048201526001600160a01b0382811660248301526000919084169063dd62ed3e9060440160206040518083038186803b1580156142f357600080fd5b505afa158015614307573d6000803e3d6000fd5b505050506040513d601f19601f8201168201806040525081019061432b9190615a2b565b1115614335575050565b61434b6001600160a01b03831682600019614dd3565b5050565b6000614359612e6b565b905061436f6001600160a01b0383168285614dd3565b6040516367ec9f1960e11b81526001600160a01b038681166004830152858116602483015260448201859052838116606483015282169063cfd93e3290608401602060405180830381600087803b1580156143c957600080fd5b505af11580156143dd573d6000803e3d6000fd5b505050506040513d601f19601f820116820180604052508101906133ad9190615a0e565b60006109cb825490565b6000610df18383614ef7565b6000610df183836203f480614f21565b600081600161429e8286615a79565b6000610df1836001600160a01b038416614f8e565b6001600160a01b03811660009081526001830160205260408120541515610df1565b600081815260046020908152604080832054815180830190925260128252710646561646c696e65206d75737420626520360741b92820192909252906144c65760405162461bcd60e51b8152600401610ad2919061599c565b50600082815260046020908152604080832083905560019091528082208290555183917f90fb84ad67dd037c388289337bb80b61b8605d38ba9a875dc38b5600909d172f91a2506001919050565b6060600061452183614401565b90506000816001600160401b0381111561453d5761453d615810565b604051908082528060200260200182016040528015614566578160200160208202803683370190505b50905060005b82811015613e7e5761457e858261440b565b82828151811061459057614590615b0e565b6001600160a01b0390921660209283029190910190910152806145b281615b24565b91505061456c565b600082815260026020908152604080832080546001600160a01b03198082166001600160a01b038881169182179094558686528487208054909216909155600485528386208690558351929091168083529382015285917fc4a957706c639829ad54381b04930c464db6c7ffdc09d2b4b1acc9ee34fb926191015b60405180910390a2509092915050565b6000828152600360209081526040808320805490859055600183528184208490556004835281842084905581518181529283018590529185917fcc0bafe2accb565ea70674bf4b2555e49a47d410fb9932dfab3e5f41855d0a2f9101614635565b60008181526001830160205260408120541515610df1565b604051630956fef360e21b81526001600160a01b03838116600483015260009182917f0000000000000000000000000000000000000000000000000000000000000000169063255bfbcc9060240160206040518083038186803b15801561472457600080fd5b505afa158015614738573d6000803e3d6000fd5b505050506040513d601f19601f8201168201806040525081019061475c91906159cf565b90506000816001600160a01b0316639816f4736040518163ffffffff1660e01b815260040160206040518083038186803b15801561479957600080fd5b505afa1580156147ad573d6000803e3d6000fd5b505050506040513d601f19601f820116820180604052508101906147d191906159cf565b9050836001600160a01b0316816001600160a01b031614156147f8576001925050506109cb565b600061482c7f00000000000000000000000000000000000000000000000000000000000000006001600160a01b0316614fdd565b6040516301f354d560e21b81526001600160a01b0384811660048301528781166024830152919250908216906307cd53549060440160206040518083038186803b15801561487957600080fd5b505afa15801561488d573d6000803e3d6000fd5b505050506040513d601f19601f820116820180604052508101906148b19190615a0e565b9695505050505050565b6040516369c2390b60e11b81526001600160a01b037f0000000000000000000000000000000000000000000000000000000000000000811660048301528085166024830152831660448201526064810182905260009073__TopUpActionLibrary____________________9063d38472169060840160206040518083038186803b15801561494857600080fd5b505af4158015613d1b573d6000803e3d6000fd5b60405163059eadeb60e41b81526001600160a01b0384811660048301526000917f0000000000000000000000000000000000000000000000000000000000000000909116906359eadeb09060240160206040518083038186803b1580156149c257600080fd5b505afa1580156149d6573d6000803e3d6000fd5b505050506040513d601f19601f820116820180604052508101906149fa91906159cf565b604051631b89105360e31b81526001600160a01b038083166004830152808816602483015286166044820152606481018590526084810184905290915073__TopUpActionLibrary____________________9063dc4882989060a40160006040518083038186803b158015614a6e57600080fd5b505af4158015614a82573d6000803e3d6000fd5b505050505050505050565b60006004600083815260200190815260200160002054905080421015604051806060016040528060218152602001615be66021913990614ae05760405162461bcd60e51b8152600401610ad2919061599c565b5060408051808201909152600d81526c0646561646c696e65206973203609c1b602082015281614b235760405162461bcd60e51b8152600401610ad2919061599c565b5050600090815260046020526040812055565b6000614b8b826040518060400160405280602081526020017f5361666545524332303a206c6f772d6c6576656c2063616c6c206661696c6564815250856001600160a01b031661501e9092919063ffffffff16565b805190915015613ee95780806020019051810190614ba99190615a0e565b613ee95760405162461bcd60e51b815260206004820152602a60248201527f5361666545524332303a204552433230206f7065726174696f6e20646964206e6044820152691bdd081cdd58d8d9595960b21b6064820152608401610ad2565b6001600160a01b0383166000908152600b60205260408120805490915b818110156133ad576000838281548110614c4157614c41615b0e565b6000918252602090912060029091020180549091506001600160a01b038781169116148015614c735750848160010154145b15614d2f5783614c84600185615ab3565b81548110614c9457614c94615b0e565b9060005260206000209060020201848381548110614cb457614cb4615b0e565b60009182526020909120825460029092020180546001600160a01b0319166001600160a01b039092169190911781556001918201549101558354849080614cfd57614cfd615b3f565b60008281526020812060026000199093019283020180546001600160a01b031916815560010155905550505050505050565b5080614d3a81615b24565b915050614c25565b6000610df1836001600160a01b03841661502d565b6000610df1838361502d565b6000610df18383614f8e565b6000614d7b8483615120565b600084815260016020908152604091829020859055815185815290810184905285917f0e6790002e78fb96ff1fdfe3a3bb2a86489d3f3923372c1fe5b6b1fed071eed491015b60405180910390a25060019392505050565b801580614e5c5750604051636eb1769f60e11b81523060048201526001600160a01b03838116602483015284169063dd62ed3e9060440160206040518083038186803b158015614e2257600080fd5b505afa158015614e36573d6000803e3d6000fd5b505050506040513d601f19601f82011682018060405250810190614e5a9190615a2b565b155b614ec75760405162461bcd60e51b815260206004820152603660248201527f5361666545524332303a20617070726f76652066726f6d206e6f6e2d7a65726f60448201527520746f206e6f6e2d7a65726f20616c6c6f77616e636560501b6064820152608401610ad2565b6040516001600160a01b038316602482015260448101829052613ee990849063095ea7b360e01b90606401613eb2565b6000826000018281548110614f0e57614f0e615b0e565b9060005260206000200154905092915050565b6000614f2d8483615120565b6000848152602081815260409182902080546001600160a01b0319166001600160a01b038716908117909155825190815290810184905285917fd46e58ee9dc1ae703349f8c09c19f23213a531b4d57f00cfd4a5a6cb6519668d9101614dc1565b6000818152600183016020526040812054614fd5575081546001818101845560008481526020808220909301849055845484825282860190935260409020919091556109cb565b5060006109cb565b6040516321f8a72160e01b81526e73776170706572526567697374727960881b60048201526000906001600160a01b038316906321f8a72190602401613d80565b6060613d3f84846000856151fa565b60008181526001830160205260408120548015615116576000615051600183615ab3565b855490915060009061506590600190615ab3565b90508181146150ca57600086600001828154811061508557615085615b0e565b90600052602060002001549050808760000184815481106150a8576150a8615b0e565b6000918252602080832090910192909255918252600188019052604090208390555b85548690806150db576150db615b3f565b6001900381819060005260206000200160009055905585600101600086815260200190815260200160002060009055600193505050506109cb565b60009150506109cb565b6004600083815260200190815260200160002054600014604051806040016040528060128152602001710646561646c696e65206d75737420626520360741b815250906151805760405162461bcd60e51b8152600401610ad2919061599c565b5060408051808201909152601881527f64656c6179206265206174206c6561737420332064617973000000000000000060208201526203f4808210156151d95760405162461bcd60e51b8152600401610ad2919061599c565b506151e48142615a79565b6000928352600460205260409092209190915550565b60608247101561525b5760405162461bcd60e51b815260206004820152602660248201527f416464726573733a20696e73756666696369656e742062616c616e636520666f6044820152651c8818d85b1b60d21b6064820152608401610ad2565b6001600160a01b0385163b6152b25760405162461bcd60e51b815260206004820152601d60248201527f416464726573733a2063616c6c20746f206e6f6e2d636f6e74726163740000006044820152606401610ad2565b600080866001600160a01b031685876040516152ce9190615aca565b60006040518083038185875af1925050503d806000811461530b576040519150601f19603f3d011682016040523d82523d6000602084013e615310565b606091505b509150915061532082828661532b565b979650505050505050565b6060831561533a575081610df1565b82511561534a5782518084602001fd5b8160405162461bcd60e51b8152600401610ad2919061599c565b60006020828403121561537657600080fd5b5035919050565b6001600160a01b038116811461539257600080fd5b50565b803561114b8161537d565b801515811461539257600080fd5b803561114b816153a0565b6000806000606084860312156153ce57600080fd5b83356153d98161537d565b92506020840135915060408401356153f0816153a0565b809150509250925092565b60006020828403121561540d57600080fd5b8135610df18161537d565b602080825282518282018190526000919060409081850190868401855b8281101561546357815180516001600160a01b03168552860151868501529284019290850190600101615435565b5091979650505050505050565b6000806000806080858703121561548657600080fd5b84356154918161537d565b935060208501356154a18161537d565b925060408501356154b18161537d565b9396929550929360600135925050565b600080600080600060a086880312156154d957600080fd5b85356154e48161537d565b945060208601356154f48161537d565b935060408601356155048161537d565b94979396509394606081013594506080013592915050565b6020808252825182820181905260009190848201906040850190845b8181101561555457835183529284019291840191600101615538565b50909695505050505050565b6000806040838503121561557357600080fd5b8235915060208301356155858161537d565b809150509250929050565b600081518084526020808501945080840160005b838110156155c95781516001600160a01b0316875295820195908201906001016155a4565b509495945050505050565b602081526000610df16020830184615590565b600080604083850312156155fa57600080fd5b50508035926020909101359150565b60408152600061561c6040830185615590565b90508260208301529392505050565b60008060006060848603121561564057600080fd5b833561564b8161537d565b9250602084013561565b8161537d565b929592945050506040919091013590565b81516001600160401b039081168252602080840151821690830152604080840151918216908301526101208201905060608301516156b560608401826001600160a01b03169052565b5060808301516156d060808401826001600160a01b03169052565b5060a08301516156eb60a08401826001600160801b03169052565b5060c083015161570660c08401826001600160801b03169052565b5060e083015161572160e08401826001600160801b03169052565b50610100928301511515919092015290565b60008083601f84011261574557600080fd5b5081356001600160401b0381111561575c57600080fd5b6020830191508360208260051b8501011115612fb257600080fd5b60008060008060006060868803121561578f57600080fd5b853561579a8161537d565b945060208601356001600160401b03808211156157b657600080fd5b6157c289838a01615733565b909650945060408801359150808211156157db57600080fd5b506157e888828901615733565b969995985093965092949392505050565b80356001600160801b038116811461114b57600080fd5b634e487b7160e01b600052604160045260246000fd5b60405161012081016001600160401b038111828210171561585757634e487b7160e01b600052604160045260246000fd5b60405290565b80356001600160401b038116811461114b57600080fd5b60008060008084860361018081121561588c57600080fd5b85356158978161537d565b9450602086013593506158ac604087016157f9565b925061012080605f19830112156158c257600080fd5b6158ca615826565b91506158d86060880161585d565b82526158e66080880161585d565b60208301526158f760a0880161585d565b604083015261590860c08801615395565b606083015261591960e08801615395565b608083015261010061592c8189016157f9565b60a084015261593c8289016157f9565b60c084015261594e61014089016157f9565b60e084015261596061016089016153ae565b9083015250939692955090935050565b60005b8381101561598b578181015183820152602001615973565b8381111561415b5750506000910152565b60208152600082518060208401526159bb816040850160208701615970565b601f01601f19169190910160400192915050565b6000602082840312156159e157600080fd5b8151610df18161537d565b6001600160a01b039290921682526001600160801b0316602082015260400190565b600060208284031215615a2057600080fd5b8151610df1816153a0565b600060208284031215615a3d57600080fd5b5051919050565b634e487b7160e01b600052601160045260246000fd5b6000816000190483118215151615615a7457615a74615a44565b500290565b60008219821115615a8c57615a8c615a44565b500190565b600082615aae57634e487b7160e01b600052601260045260246000fd5b500490565b600082821015615ac557615ac5615a44565b500390565b60008251615adc818460208701615970565b9190910192915050565b60006001600160801b0383811690831681811015615b0657615b06615a44565b039392505050565b634e487b7160e01b600052603260045260246000fd5b6000600019821415615b3857615b38615a44565b5060010190565b634e487b7160e01b600052603160045260246000fdfe746f6b656e206e6f7420757361626c6520666f722074686520737065636966696320616374696f6e746f6f206d756368204554482077696c6c206265207573656420666f72206761736e6f7420656e6f7567682045544820696e206761732062616e6b20746f20636f76657220676173756e617574686f72697a65642061636365737300000000000000000000000000646561646c696e6520686173206e6f74206265656e207265616368656420796574a26469706673582212200f6d2651d9bafeb58683f4c63cf6f2b40093c0c63a7930a9626feb272a0e1ef964736f6c63430008090033","bytecodeSha1":"1e588cc1bfc1063446edacdf91d96d86e6f589f6","compiler":{"evm_version":"london","optimizer":{"enabled":true,"runs":200},"version":"0.8.9+commit.e5eed63a"},"contractName":"TopUpAction","deployedBytecode":"60806040526004361061025f5760003560e01c80638cb164f911610144578063c84ce0d0116100b6578063e3976edf1161007a578063e3976edf1461082b578063e471696714610861578063ec59425414610876578063f76c33991461088b578063f77c4791146108c1578063ff13d719146108f557600080fd5b8063c84ce0d01461067e578063cc0b4001146106ac578063d1f6ced1146107e1578063d41b4e72146107f6578063d7e241bf1461081857600080fd5b8063b75d609a11610108578063b75d609a146105dd578063b7837b2e146105fd578063ba46fba614610612578063bba018a114610627578063bc92464a14610649578063bef47adf1461066957600080fd5b80638cb164f91461053057806391d08007146105505780639e1876e514610570578063a90875ab14610590578063aff1b7e4146105b057600080fd5b80632ff8e157116101dd5780634bcfc83c116101a15780634bcfc83c14610499578063532913a5146104b95780636df45f55146104db57806375614e3f146104f05780637dc318461461051057806380fdfe2c1461033157600080fd5b80632ff8e157146103f75780633007860614610417578063340ed9fd1461042c578063346a4a511461044c5780634505e56c1461047957600080fd5b80631ecb8ac6116102245780631ecb8ac61461033157806328f72c3d146103515780632954018c146103815780632a6bc2dd146103b55780632fe35e14146103e257600080fd5b8062435da51461026b578063100b5f2e146102b757806313c5daf6146102da57806315dbfe62146102ef5780631bb480e51461031c57600080fd5b3661026657005b600080fd5b34801561027757600080fd5b507f00000000000000000000000000000000000000000000000000000000000000005b6040516001600160a01b0390911681526020015b60405180910390f35b3480156102c357600080fd5b506102cc61091a565b6040519081526020016102ae565b3480156102e657600080fd5b506102cc61095d565b3480156102fb57600080fd5b506102cc61030a366004615364565b60016020526000908152604090205481565b34801561032857600080fd5b506102cc61099f565b34801561033d57600080fd5b5061029a61034c366004615364565b6109be565b34801561035d57600080fd5b5061037161036c3660046153b9565b6109d1565b60405190151581526020016102ae565b34801561038d57600080fd5b5061029a7f000000000000000000000000000000000000000000000000000000000000000081565b3480156103c157600080fd5b506103d56103d03660046153fb565b610df8565b6040516102ae9190615418565b3480156103ee57600080fd5b506102cc610e83565b34801561040357600080fd5b50610371610412366004615470565b610ea3565b34801561042357600080fd5b50610371610ebc565b34801561043857600080fd5b5061029a610447366004615364565b610fc4565b34801561045857600080fd5b506102cc610467366004615364565b60046020526000908152604090205481565b34801561048557600080fd5b50610371610494366004615364565b610ff4565b3480156104a557600080fd5b506103716104b43660046154c1565b611150565b3480156104c557600080fd5b506104ce6123f8565b6040516102ae919061551c565b3480156104e757600080fd5b506102cc61249a565b3480156104fc57600080fd5b5061037161050b366004615560565b6124b1565b34801561051c57600080fd5b506102cc61052b3660046153fb565b6125b5565b34801561053c57600080fd5b5061037161054b3660046153fb565b61279a565b34801561055c57600080fd5b5061037161056b3660046153fb565b612897565b34801561057c57600080fd5b5061037161058b366004615364565b6129a0565b34801561059c57600080fd5b506103716105ab366004615364565b612aa3565b3480156105bc57600080fd5b506102cc6105cb366004615364565b60036020526000908152604090205481565b3480156105e957600080fd5b506103716105f83660046153fb565b612bb3565b34801561060957600080fd5b50610371612bc0565b34801561061e57600080fd5b5061029a612cd0565b34801561063357600080fd5b5061063c612ce8565b6040516102ae91906155d4565b34801561065557600080fd5b50610371610664366004615364565b612cf4565b34801561067557600080fd5b5061029a612e6b565b34801561068a57600080fd5b5061069e6106993660046155e7565b612eaf565b6040516102ae929190615609565b3480156106b857600080fd5b506107d46106c736600461562b565b6040805161012081018252600080825260208201819052918101829052606081018290526080810182905260a0810182905260c0810182905260e08101829052610100810191909152506001600160a01b039283166000908152600a60209081526040808320948616835293815283822092825291825282902082516101208101845281546001600160401b038082168352600160401b8204811694830194909452600160801b90819004909316938101939093526001810154841660608401526002810154909316608083015260038301546001600160801b0380821660a085015290829004811660c084015260049093015492831660e083015290910460ff16151561010082015290565b6040516102ae919061566c565b3480156107ed57600080fd5b50610371612fb9565b34801561080257600080fd5b50610816610811366004615777565b6130c0565b005b610371610826366004615874565b6133b5565b34801561083757600080fd5b5061029a610846366004615364565b6000602081905290815260409020546001600160a01b031681565b34801561086d57600080fd5b50610371613b6c565b34801561088257600080fd5b506102cc613c7b565b34801561089757600080fd5b5061029a6108a6366004615364565b6002602052600090815260409020546001600160a01b031681565b3480156108cd57600080fd5b5061029a7f000000000000000000000000000000000000000000000000000000000000000081565b34801561090157600080fd5b506102cc610910366004615560565b613cb5565b905090565b714d617853776170706572536c69707061676560701b60005260036020527f0a7ab04b93b5e6e7a6233e3dba8c0355d868f3f251b1df44eccff4c6067798195490565b70457374696d61746564476173557361676560781b60005260036020527fd92ae9a825c06e5a7102e086cc9fd80c4ef8adf441004161c8b93e0e5b4492a25490565b600061091570457374696d61746564476173557361676560781b613dd0565b60006109cb826000613df4565b92915050565b336000818152600a602090815260408083206001600160a01b038881168552908352818420878552835281842082516101208101845281546001600160401b03808216808452600160401b8304821684890152600160801b92839004909116838701526001840154851660608401526002840154909416608083015260038301546001600160801b0380821660a085015290829004811660c084015260049093015492831660e083015290910460ff161515610100820152825180840190935260128352716e6f20706f736974696f6e2065786973747360701b93830193909352929392610adb5760405162461bcd60e51b8152600401610ad2919061599c565b60405180910390fd5b50608081015160405163059eadeb60e41b81526001600160a01b0391821660048201526000917f000000000000000000000000000000000000000000000000000000000000000016906359eadeb09060240160206040518083038186803b158015610b4557600080fd5b505afa158015610b59573d6000803e3d6000fd5b505050506040513d601f19601f82011682018060405250810190610b7d91906159cf565b60e0830151604051636a278cd960e01b815291925082916001600160a01b03831691636a278cd991610bb39188916004016159ec565b602060405180830381600087803b158015610bcd57600080fd5b505af1158015610be1573d6000803e3d6000fd5b505050506040513d601f19601f82011682018060405250810190610c059190615a0e565b508515610cc95760e08301516040516305c2fbcf60e31b81526001600160801b0390911660048201526001600160a01b03821690632e17de7890602401602060405180830381600087803b158015610c5c57600080fd5b505af1158015610c70573d6000803e3d6000fd5b505050506040513d601f19601f82011682018060405250810190610c949190615a0e565b50610cc4848460e001516001600160801b031685608001516001600160a01b0316613e869092919063ffffffff16565b610d4e565b60e083015160405163a9059cbb60e01b81526001600160a01b0383169163a9059cbb91610cfa9188916004016159ec565b602060405180830381600087803b158015610d1457600080fd5b505af1158015610d28573d6000803e3d6000fd5b505050506040513d601f19601f82011682018060405250810190610d4c9190615a0e565b505b610d59848989613eee565b610d8b7f00000000000000000000000000000000000000000000000000000000000000006001600160a01b0316613fe9565b6040516335272c2560e21b81526001600160a01b038681166004830152919091169063d49cb09490602401600060405180830381600087803b158015610dd057600080fd5b505af1158015610de4573d6000803e3d6000fd5b5050505060019450505050505b9392505050565b6001600160a01b0381166000908152600b60209081526040808320805482518185028101850190935280835260609492939192909184015b82821015610e78576000848152602090819020604080518082019091526002850290910180546001600160a01b03168252600190810154828401529083529092019101610e30565b505050509050919050565b6000610915714d617853776170706572536c69707061676560701b613dd0565b6000610eb3858585856000611150565b95945050505050565b60007f0000000000000000000000000000000000000000000000000000000000000000604051632474521560e21b815269676f7665726e616e636560b01b60048201523360248201526001600160a01b0391909116906391d148549060440160206040518083038186803b158015610f3357600080fd5b505afa158015610f47573d6000803e3d6000fd5b505050506040513d601f19601f82011682018060405250810190610f6b9190615a0e565b604051806040016040528060138152602001600080516020615bc683398151915281525090610fad5760405162461bcd60e51b8152600401610ad2919061599c565b50610915692332b2a430b7323632b960b11b614022565b600080610fd2836000613df4565b90506000610fe7610fe2856140d3565b614115565b9050610df1848383614142565b60007f0000000000000000000000000000000000000000000000000000000000000000604051632474521560e21b815269676f7665726e616e636560b01b60048201523360248201526001600160a01b0391909116906391d148549060440160206040518083038186803b15801561106b57600080fd5b505afa15801561107f573d6000803e3d6000fd5b505050506040513d601f19601f820116820180604052508101906110a39190615a0e565b604051806040016040528060138152602001600080516020615bc6833981519152815250906110e55760405162461bcd60e51b8152600401610ad2919061599c565b5060408051808201909152600e81526d1a5b9d985b1a5908185b5bdd5b9d60921b60208201526706f05b59d3b200008311156111345760405162461bcd60e51b8152600401610ad2919061599c565b506109cb68416374696f6e46656560b81b8361417a565b919050565b6040516306547d4b60e21b81523360048201526000907f00000000000000000000000000000000000000000000000000000000000000006001600160a01b031690631951f52c9060240160206040518083038186803b1580156111b257600080fd5b505afa1580156111c6573d6000803e3d6000fd5b505050506040513d601f19601f820116820180604052508101906111ea9190615a0e565b6040518060400160405280601c81526020017f4e6f7420656e6f75676820424b4420746f6b656e73207374616b6564000000008152509061123e5760405162461bcd60e51b8152600401610ad2919061599c565b50611306604051806102e001604052806000815260200160008152602001600081526020016000815260200160008152602001600081526020016000815260200160008152602001600081526020016000815260200160006001600160801b0316815260200160001515815260200160608152602001600081526020016000815260200160008152602001600081526020016000815260200160008152602001600081526020016000815260200160006001600160a01b031681526020016000151581525090565b5a6101c08201526001600160a01b038088166000908152600a60209081526040808320938a1683529281528282208783528152908290208054835180850190945260128452716e6f20706f736974696f6e2065786973747360701b9284019290925291906001600160401b03166113905760405162461bcd60e51b8152600401610ad2919061599c565b506003810154604080518082019091526014815273696e73756666696369656e742062616c616e636560601b602082015290600160801b90046001600160801b03166113ef5760405162461bcd60e51b8152600401610ad2919061599c565b5060006113fd866001613df4565b60405162e8514d60e51b81526001600160a01b038a8116600483015291925090821690631d0a29a09060240160206040518083038186803b15801561144157600080fd5b505afa158015611455573d6000803e3d6000fd5b505050506040513d601f19601f820116820180604052508101906114799190615a2b565b6080840181905282546040805180820190915260168152751a5b9cdd59999a58da595b9d081d1a1c995cda1bdb1960521b6020820152916001600160401b03909116116114d95760405162461bcd60e51b8152600401610ad2919061599c565b50600061150e7f00000000000000000000000000000000000000000000000000000000000000006001600160a01b0316613fe9565b905061151861095d565b610220850181905261152b903a90615a5a565b610240850152825461154d90600160401b90046001600160401b031648615a79565b61020085018190523a1015611564573a6102008501525b8254610200850151600160801b9091046001600160401b0316101561159c578254600160801b90046001600160401b03166102008501525b858461020001518561022001516115b39190615a5a565b6115bd9190615a79565b8461024001511115604051806060016040528060218152602001615b7e60219139906115fc5760405162461bcd60e51b8152600401610ad2919061599c565b506040516370a0823160e01b81526001600160a01b038b811660048301528216906370a082319060240160206040518083038186803b15801561163e57600080fd5b505afa158015611652573d6000803e3d6000fd5b505050506040513d601f19601f820116820180604052508101906116769190615a2b565b6101a0850181905261024085015190611690908890615a79565b1015604051806060016040528060278152602001615b9f60279139906116c95760405162461bcd60e51b8152600401610ad2919061599c565b506003830154600160801b90046001600160801b03166101408501526116ed613c7b565b610100850181905260038401546001600160801b031685526117239061171b90670de0b6b3a7640000615a79565b85519061418a565b606085018190526101408501516001600160801b0316101561177d576101408401516001600160801b0316606085015261010084015161177a9061176f90670de0b6b3a7640000615a79565b6060860151906141a9565b84525b6002830154604051630956fef360e21b81526001600160a01b0391821660048201526000917f0000000000000000000000000000000000000000000000000000000000000000169063255bfbcc9060240160206040518083038186803b1580156117e657600080fd5b505afa1580156117fa573d6000803e3d6000fd5b505050506040513d601f19601f8201168201806040525081019061181e91906159cf565b9050806001600160a01b0316639816f4736040518163ffffffff1660e01b815260040160206040518083038186803b15801561185957600080fd5b505afa15801561186d573d6000803e3d6000fd5b505050506040513d601f19601f8201168201806040525081019061189191906159cf565b856102a001906001600160a01b031690816001600160a01b031681525050806001600160a01b0316633ba0b9a96040518163ffffffff1660e01b815260040160206040518083038186803b1580156118e857600080fd5b505afa1580156118fc573d6000803e3d6000fd5b505050506040513d601f19601f820116820180604052508101906119209190615a2b565b60a086015260018401546102a08601516000916001600160a01b03918216911614611a08576102a0860151600186015461196391906001600160a01b03166141be565b6102a08701516001870154604051631bcdc3f560e11b81526001600160a01b0392831660048201529082166024820152919250611a02919083169063379b87ea9060440160206040518083038186803b1580156119bf57600080fd5b505afa1580156119d3573d6000803e3d6000fd5b505050506040513d601f19601f820116820180604052508101906119f79190615a2b565b60a08801519061418a565b60a08701525b60a08601516060870151611a1b9161427c565b60c0870181905260048601546001600160801b03161015611a825760048501546001600160801b031660c0870152610100860151611a6190670de0b6b3a7640000615a79565b8660a001518760c00151611a759190615a5a565b611a7f9190615a91565b86525b60a08601518651611a929161427c565b60e0870181905260c0870151611aa89190615ab3565b6040878101919091526002860154905163059eadeb60e41b81526001600160a01b0391821660048201526000917f000000000000000000000000000000000000000000000000000000000000000016906359eadeb09060240160206040518083038186803b158015611b1957600080fd5b505afa158015611b2d573d6000803e3d6000fd5b505050506040513d601f19601f82011682018060405250810190611b5191906159cf565b60c08801516040516305c2fbcf60e31b81529192506001600160a01b03831691632e17de7891611b879160040190815260200190565b602060405180830381600087803b158015611ba157600080fd5b505af1158015611bb5573d6000803e3d6000fd5b505050506040513d601f19601f82011682018060405250810190611bd99190615a0e565b5060c0870151604051636a278cd960e01b81526001600160a01b038f81166004830152602482019290925290821690636a278cd990604401602060405180830381600087803b158015611c2b57600080fd5b505af1158015611c3f573d6000803e3d6000fd5b505050506040513d601f19601f82011682018060405250810190611c639190615a0e565b5060e087015160405163db006a7560e01b815260048101919091526001600160a01b0384169063db006a7590602401602060405180830381600087803b158015611cac57600080fd5b505af1158015611cc0573d6000803e3d6000fd5b505050506040513d601f19601f82011682018060405250810190611ce49190615a2b565b60208801526001600160a01b03821615611dc657611d0b611d0361091a565b88519061418a565b87526102a0870151611d1d90836142a8565b6102a0870151600187015460208901518951604051637f0148ab60e11b81526001600160a01b0394851660048201529284166024840152604483019190915260648201529083169063fe02915690608401602060405180830381600087803b158015611d8857600080fd5b505af1158015611d9c573d6000803e3d6000fd5b505050506040513d601f19601f82011682018060405250810190611dc09190615a2b565b60208801525b60a08701516040880151611dd99161418a565b8760200151611de89190615a79565b87610120018181525050846001600160a01b03168c8760010160009054906101000a90046001600160a01b031689602001518960040160109054906101000a900460ff16604051602401611e6394939291906001600160a01b0394851681529290931660208301526040820152901515606082015260800190565b60408051601f198184030181529181526020820180516001600160e01b0316633389d7db60e21b17905251611e989190615aca565b600060405180830381855af49150503d8060008114611ed3576040519150601f19603f3d011682016040523d82523d6000602084013e611ed8565b606091505b50610180890152158015610160890181905290611f095750866101800151806020019051810190611f099190615a0e565b6040518060400160405280600d81526020016c1d1bdc081d5c0819985a5b1959609a1b81525090611f4d5760405162461bcd60e51b8152600401610ad2919061599c565b508661012001518761014001516001600160801b03161115611fbc57610120870151600387018054601090611f93908490600160801b90046001600160801b0316615ae6565b92506101000a8154816001600160801b0302191690836001600160801b03160217905550611fce565b6003860180546001600160801b031690555b60c0870151600487018054600090611ff09084906001600160801b0316615ae6565b92506101000a8154816001600160801b0302191690836001600160801b031602179055508560030160109054906101000a90046001600160801b03166001600160801b03166000148061204e575060048601546001600160801b0316155b15156102c088015260408701516002870154612077918f918e91906001600160a01b031661434f565b866102c00151156121d15760048601546001600160801b0316156121c657806001600160a01b031663a9059cbb8e8860040160009054906101000a90046001600160801b03166040518363ffffffff1660e01b81526004016120da9291906159ec565b602060405180830381600087803b1580156120f457600080fd5b505af1158015612108573d6000803e3d6000fd5b505050506040513d601f19601f8201168201806040525081019061212c9190615a0e565b50806001600160a01b0316636a278cd98e8860040160009054906101000a90046001600160801b03166040518363ffffffff1660e01b81526004016121729291906159ec565b602060405180830381600087803b15801561218c57600080fd5b505af11580156121a0573d6000803e3d6000fd5b505050506040513d601f19601f820116820180604052508101906121c49190615a0e565b505b6121d18d8d8c613eee565b600286015460c088015160018801546020808b0151604080516001600160a01b03968716815292830194909452918416928101929092526060820152818f16918c91908f16907f1cc2b485c79a887aaf9be5a861a7af2897533d6b38181d27ebd47ed6a660f2429060800160405180910390a45a876101c001516122559190615ab3565b6101e0880181905261020088015161226d9190615a5a565b61028088018190526101a0880151101561228e576101a08701516102808801525b6101e087015161229e903a615a5a565b61026088018190526102808801516122b7908b90615a79565b10156040518060400160405280601981526020017f746f6f206d75636820455448207573656420666f7220676173000000000000008152509061230d5760405162461bcd60e51b8152600401610ad2919061599c565b50610280870151604051634aaad4a160e11b81526001600160a01b038f81166004830152336024830152604482019290925290851690639555a94290606401600060405180830381600087803b15801561236657600080fd5b505af115801561237a573d6000803e3d6000fd5b50505050866102c00151156123e5576040516335272c2560e21b81526001600160a01b038e8116600483015285169063d49cb09490602401600060405180830381600087803b1580156123cc57600080fd5b505af11580156123e0573d6000803e3d6000fd5b505050505b5060019c9b505050505050505050505050565b606060006124066008614401565b90506000816001600160401b0381111561242257612422615810565b60405190808252806020026020018201604052801561244b578160200160208202803683370190505b50905060005b828110156124935761246460088261440b565b82828151811061247657612476615b0e565b60209081029190910101528061248b81615b24565b915050612451565b5092915050565b600061091568416374696f6e46656560b81b613dd0565b60007f0000000000000000000000000000000000000000000000000000000000000000604051632474521560e21b815269676f7665726e616e636560b01b60048201523360248201526001600160a01b0391909116906391d148549060440160206040518083038186803b15801561252857600080fd5b505afa15801561253c573d6000803e3d6000fd5b505050506040513d601f19601f820116820180604052508101906125609190615a0e565b604051806040016040528060138152602001600080516020615bc6833981519152815250906125a25760405162461bcd60e51b8152600401610ad2919061599c565b50610df16125af846140d3565b83614417565b6001600160a01b0381166000908152600b60209081526040808320805482518185028101850190935280835284938493929190849084015b82821015612635576000848152602090819020604080518082019091526002850290910180546001600160a01b031682526001908101548284015290835290920191016125ed565b505050509050600061264561095d565b825190915060005b8181101561278f57600084828151811061266957612669615b0e565b6020908102919091018101516001600160a01b038a81166000908152600a845260408082208451841683528552808220848601518352855280822081516101208101835281546001600160401b038082168352600160401b8204811698830198909852600160801b90819004909716928101929092526001810154841660608301526002810154909316608082015260038301546001600160801b0380821660a0840181905291879004811660c0840181905260049095015490811660e08401529590950460ff16151561010082015292945091926127489190614427565b60408301519091506001600160401b03166127638783615a5a565b61276d9190615a5a565b6127779089615a79565b9750505050808061278790615b24565b91505061264d565b509295945050505050565b60007f0000000000000000000000000000000000000000000000000000000000000000604051632474521560e21b815269676f7665726e616e636560b01b60048201523360248201526001600160a01b0391909116906391d148549060440160206040518083038186803b15801561281157600080fd5b505afa158015612825573d6000803e3d6000fd5b505050506040513d601f19601f820116820180604052508101906128499190615a0e565b604051806040016040528060138152602001600080516020615bc68339815191528152509061288b5760405162461bcd60e51b8152600401610ad2919061599c565b506109cb600683614436565b60007f0000000000000000000000000000000000000000000000000000000000000000604051632474521560e21b815269676f7665726e616e636560b01b60048201523360248201526001600160a01b0391909116906391d148549060440160206040518083038186803b15801561290e57600080fd5b505afa158015612922573d6000803e3d6000fd5b505050506040513d601f19601f820116820180604052508101906129469190615a0e565b604051806040016040528060138152602001600080516020615bc6833981519152815250906129885760405162461bcd60e51b8152600401610ad2919061599c565b506109cb692332b2a430b7323632b960b11b83614417565b60007f0000000000000000000000000000000000000000000000000000000000000000604051632474521560e21b815269676f7665726e616e636560b01b60048201523360248201526001600160a01b0391909116906391d148549060440160206040518083038186803b158015612a1757600080fd5b505afa158015612a2b573d6000803e3d6000fd5b505050506040513d601f19601f82011682018060405250810190612a4f9190615a0e565b604051806040016040528060138152602001600080516020615bc683398151915281525090612a915760405162461bcd60e51b8152600401610ad2919061599c565b506109cb612a9e836140d3565b614022565b60007f0000000000000000000000000000000000000000000000000000000000000000604051632474521560e21b815269676f7665726e616e636560b01b60048201523360248201526001600160a01b0391909116906391d148549060440160206040518083038186803b158015612b1a57600080fd5b505afa158015612b2e573d6000803e3d6000fd5b505050506040513d601f19601f82011682018060405250810190612b529190615a0e565b604051806040016040528060138152602001600080516020615bc683398151915281525090612b945760405162461bcd60e51b8152600401610ad2919061599c565b506109cb70457374696d61746564476173557361676560781b8361417a565b60006109cb60068361444b565b60007f0000000000000000000000000000000000000000000000000000000000000000604051632474521560e21b815269676f7665726e616e636560b01b60048201523360248201526001600160a01b0391909116906391d148549060440160206040518083038186803b158015612c3757600080fd5b505afa158015612c4b573d6000803e3d6000fd5b505050506040513d601f19601f82011682018060405250810190612c6f9190615a0e565b604051806040016040528060138152602001600080516020615bc683398151915281525090612cb15760405162461bcd60e51b8152600401610ad2919061599c565b50610915714d617853776170706572536c69707061676560701b61446d565b6000610915692332b2a430b7323632b960b11b614115565b60606109156006614514565b60007f0000000000000000000000000000000000000000000000000000000000000000604051632474521560e21b815269676f7665726e616e636560b01b60048201523360248201526001600160a01b0391909116906391d148549060440160206040518083038186803b158015612d6b57600080fd5b505afa158015612d7f573d6000803e3d6000fd5b505050506040513d601f19601f82011682018060405250810190612da39190615a0e565b604051806040016040528060138152602001600080516020615bc683398151915281525090612de55760405162461bcd60e51b8152600401610ad2919061599c565b50670853a0d2313c00008210158015612e065750670d2f13f7789f00008211155b6040518060400160405280600e81526020016d1a5b9d985b1a5908185b5bdd5b9d60921b81525090612e4b5760405162461bcd60e51b8152600401610ad2919061599c565b506109cb714d617853776170706572536c69707061676560701b8361417a565b692332b2a430b7323632b960b11b60005260026020527f6ca0624ed247bf0fea5288fbb74a4bd8fc7f94847d3670d0c0d9ba9a2af3242c546001600160a01b031690565b6060600080612ebe600c614401565b9050808510612ee0575050604080516000808252602082019092529150612fb2565b612eea8582615ab3565b8410612efd57612efa8582615ab3565b93505b6000846001600160401b03811115612f1757612f17615810565b604051908082528060200260200182016040528015612f40578160200160208202803683370190505b50905060005b85811015612f9f57612f63612f5b8883615a79565b600c9061440b565b828281518110612f7557612f75615b0e565b6001600160a01b039092166020928302919091019091015280612f9781615b24565b915050612f46565b5080612fab8688615a79565b9350935050505b9250929050565b60007f0000000000000000000000000000000000000000000000000000000000000000604051632474521560e21b815269676f7665726e616e636560b01b60048201523360248201526001600160a01b0391909116906391d148549060440160206040518083038186803b15801561303057600080fd5b505afa158015613044573d6000803e3d6000fd5b505050506040513d601f19601f820116820180604052508101906130689190615a0e565b604051806040016040528060138152602001600080516020615bc6833981519152815250906130aa5760405162461bcd60e51b8152600401610ad2919061599c565b5061091568416374696f6e46656560b81b61446d565b600554610100900460ff166130db5760055460ff16156130df565b303b155b6131425760405162461bcd60e51b815260206004820152602e60248201527f496e697469616c697a61626c653a20636f6e747261637420697320616c72656160448201526d191e481a5b9a5d1a585b1a5e995960921b6064820152608401610ad2565b600554610100900460ff16158015613164576005805461ffff19166101011790555b7f0000000000000000000000000000000000000000000000000000000000000000604051632474521560e21b815269676f7665726e616e636560b01b60048201523360248201526001600160a01b0391909116906391d148549060440160206040518083038186803b1580156131d957600080fd5b505afa1580156131ed573d6000803e3d6000fd5b505050506040513d601f19601f820116820180604052508101906132119190615a0e565b604051806040016040528060138152602001600080516020615bc6833981519152815250906132535760405162461bcd60e51b8152600401610ad2919061599c565b5060408051808201909152601081526f1a5b9d985b1a5908185c99dd5b595b9d60821b602082015284831461329b5760405162461bcd60e51b8152600401610ad2919061599c565b506132b3692332b2a430b7323632b960b11b876145ba565b506132db714d617853776170706572536c69707061676560701b670d2f13f7789f0000614645565b5060005b8481101561339a57600061330a8787848181106132fe576132fe615b0e565b905060200201356140d3565b905061333c8186868581811061332257613322615b0e565b905060200201602081019061333791906153fb565b6145ba565b5061338787878481811061335257613352615b0e565b90506020020135600087878681811061336d5761336d615b0e565b905060200201602081019061338291906153fb565b614142565b508061339281615b24565b9150506132df565b5080156133ad576005805461ff00191690555b505050505050565b60006133c26008856146a6565b604051806040016040528060128152602001711c1c9bdd1bd8dbdb081b9bdd08199bdd5b9960721b8152509061340b5760405162461bcd60e51b8152600401610ad2919061599c565b5060008260a001516001600160801b0316116040518060400160405280600e81526020016d1a5b9d985b1a5908185b5bdd5b9d60921b815250906134625760405162461bcd60e51b8152600401610ad2919061599c565b50670de0b6b3a764000082600001516001600160401b0316116040518060400160405280600e81526020016d1a5b9d985b1a5908185b5bdd5b9d60921b815250906134c05760405162461bcd60e51b8152600401610ad2919061599c565b508160c001516001600160801b03168260a001516001600160801b031611156040518060400160405280600e81526020016d1a5b9d985b1a5908185b5bdd5b9d60921b815250906135245760405162461bcd60e51b8152600401610ad2919061599c565b50336000908152600a602090815260408083206001600160a01b03891684528252808320878452825291829020548251808401909352601783527f706f736974696f6e20616c726561647920657869737473000000000000000000918301919091526001600160401b0316156135ad5760405162461bcd60e51b8152600401610ad2919061599c565b506135c0826080015183606001516146be565b604051806040016040528060138152602001721cddd85c081c185d1a081b9bdd08199bdd5b99606a1b8152509061360a5760405162461bcd60e51b8152600401610ad2919061599c565b506136188260800151612bb3565b604051806060016040528060288152602001615b56602891399061364f5760405162461bcd60e51b8152600401610ad2919061599c565b50600061365a61095d565b83604001516001600160401b03166136958560a001516001600160801b03168660c001516001600160801b031661442790919063ffffffff16565b61369f9190615a5a565b6136a99190615a5a565b9050803410156040518060400160405280601a81526020017f76616c756520746f6f206c6f7720746f20636f76657220676173000000000000815250906137035760405162461bcd60e51b8152600401610ad2919061599c565b506000613726846080015185606001518660c001516001600160801b03166148bb565b905061374133856080015183886001600160801b031661495c565b6137737f00000000000000000000000000000000000000000000000000000000000000006001600160a01b0316613fe9565b60405163aa67c91960e01b81523360048201526001600160a01b03919091169063aa67c9199034906024016000604051808303818588803b1580156137b757600080fd5b505af11580156137cb573d6000803e3d6000fd5b5050505050808460e001906001600160801b031690816001600160801b03168152505083600a6000336001600160a01b03166001600160a01b031681526020019081526020016000206000896001600160a01b03166001600160a01b03168152602001908152602001600020600088815260200190815260200160002060008201518160000160006101000a8154816001600160401b0302191690836001600160401b0316021790555060208201518160000160086101000a8154816001600160401b0302191690836001600160401b0316021790555060408201518160000160106101000a8154816001600160401b0302191690836001600160401b0316021790555060608201518160010160006101000a8154816001600160a01b0302191690836001600160a01b0316021790555060808201518160020160006101000a8154816001600160a01b0302191690836001600160a01b0316021790555060a08201518160030160006101000a8154816001600160801b0302191690836001600160801b0316021790555060c08201518160030160106101000a8154816001600160801b0302191690836001600160801b0316021790555060e08201518160040160006101000a8154816001600160801b0302191690836001600160801b031602179055506101008201518160040160106101000a81548160ff021916908315150217905550905050600b6000336001600160a01b03166001600160a01b031681526020019081526020016000206040518060400160405280896001600160a01b0316815260200188815250908060018154018082558091505060019003906000526020600020906002020160009091909190915060008201518160000160006101000a8154816001600160a01b0302191690836001600160a01b03160217905550602082015181600101555050613a8d33600c61443690919063ffffffff16565b5083600001516001600160401b031686886001600160a01b03167f88cc1820fb3b8c2414e61704cbf68e517a5e0cd1af9fe40cfb5070c53a7e6071338860800151868a606001518b60a001518c60c001518d604001518e6101000151604051613b579897969594939291906001600160a01b039889168152968816602088015260408701959095529290951660608501526001600160801b0390811660808501529390931660a08301526001600160401b039290921660c082015290151560e08201526101000190565b60405180910390a45060019695505050505050565b60007f0000000000000000000000000000000000000000000000000000000000000000604051632474521560e21b815269676f7665726e616e636560b01b60048201523360248201526001600160a01b0391909116906391d148549060440160206040518083038186803b158015613be357600080fd5b505afa158015613bf7573d6000803e3d6000fd5b505050506040513d601f19601f82011682018060405250810190613c1b9190615a0e565b604051806040016040528060138152602001600080516020615bc683398151915281525090613c5d5760405162461bcd60e51b8152600401610ad2919061599c565b5061091570457374696d61746564476173557361676560781b61446d565b68416374696f6e46656560b81b60005260036020527fa54dccff97a6072259c3aa6b782765087d250e0214d8d05826d45d992ff11fac5490565b600080613cc3846001613df4565b60405162e8514d60e51b81526001600160a01b03858116600483015291925090821690631d0a29a09060240160206040518083038186803b158015613d0757600080fd5b505afa158015613d1b573d6000803e3d6000fd5b505050506040513d601f19601f82011682018060405250810190613d3f9190615a2b565b949350505050565b6040516321f8a72160e01b81526a3937b632a6b0b730b3b2b960a91b60048201526000906001600160a01b038316906321f8a721906024015b60206040518083038186803b158015613d9857600080fd5b505afa158015613dac573d6000803e3d6000fd5b505050506040513d601f19601f820116820180604052508101906109cb91906159cf565b6000613ddb82614a8d565b6000828152600160205260409020546124938382614645565b60008060026000613e04866140d3565b81526020810191909152604001600020546001600160a01b03169050821580613e3557506001600160a01b03811615155b604051806040016040528060128152602001711c1c9bdd1bd8dbdb081b9bdd08199bdd5b9960721b81525090613e7e5760405162461bcd60e51b8152600401610ad2919061599c565b509392505050565b6040516001600160a01b038316602482015260448101829052613ee990849063a9059cbb60e01b906064015b60408051601f198184030181529190526020810180516001600160e01b03166001600160e01b031990931692909217909152614b36565b505050565b6001600160a01b038084166000908152600a602090815260408083209386168352928152828220848352905290812080546001600160c01b03191681556001810180546001600160a01b031990811690915560028201805490911690556003810191909155600401805470ffffffffffffffffffffffffffffffffff19169055613f79838383614c08565b6001600160a01b0383166000908152600b6020526040902054613fa357613fa1600c84614d42565b505b80826001600160a01b0316846001600160a01b03167f9e42103de6527e30e7bdde19d27ec0a9936bca0c315fbe2163514cc67f15cfa160405160405180910390a4505050565b6040516321f8a72160e01b81526667617342616e6b60c81b60048201526000906001600160a01b038316906321f8a72190602401613d80565b600081815260046020908152604080832054815180830190925260128252710646561646c696e65206d75737420626520360741b928201929092529061407b5760405162461bcd60e51b8152600401610ad2919061599c565b5060008281526004602090815260408083208390559082905280822080546001600160a01b03191690555183917f90fb84ad67dd037c388289337bb80b61b8605d38ba9a875dc38b5600909d172f91a2506001919050565b604080516b2a37b82ab82430b7323632b960a11b6020820152908101829052600090606001604051602081830303815290604052805190602001209050919050565b600061412082614a8d565b6000828152602081905260409020546001600160a01b031661249383826145ba565b6001600160a01b0381166141615761415b600884614d57565b50505050565b6001600160a01b038216613ee95761415b600884614d63565b6000610df183836203f480614d6f565b6000670de0b6b3a764000061419f8385615a5a565b610df19190615a91565b60008161419f670de0b6b3a764000085615a5a565b6040516376b4805160e01b81526001600160a01b037f00000000000000000000000000000000000000000000000000000000000000008116600483015280841660248301528216604482015260009073__$69d5f919a2332fd1585cf8aec6346e89b0$__906376b480519060640160206040518083038186803b15801561424457600080fd5b505af4158015614258573d6000803e3d6000fd5b505050506040513d601f19601f82011682018060405250810190610df191906159cf565b600081600181614294670de0b6b3a764000087615a5a565b61429e9190615a79565b61419f9190615ab3565b604051636eb1769f60e11b81523060048201526001600160a01b0382811660248301526000919084169063dd62ed3e9060440160206040518083038186803b1580156142f357600080fd5b505afa158015614307573d6000803e3d6000fd5b505050506040513d601f19601f8201168201806040525081019061432b9190615a2b565b1115614335575050565b61434b6001600160a01b03831682600019614dd3565b5050565b6000614359612e6b565b905061436f6001600160a01b0383168285614dd3565b6040516367ec9f1960e11b81526001600160a01b038681166004830152858116602483015260448201859052838116606483015282169063cfd93e3290608401602060405180830381600087803b1580156143c957600080fd5b505af11580156143dd573d6000803e3d6000fd5b505050506040513d601f19601f820116820180604052508101906133ad9190615a0e565b60006109cb825490565b6000610df18383614ef7565b6000610df183836203f480614f21565b600081600161429e8286615a79565b6000610df1836001600160a01b038416614f8e565b6001600160a01b03811660009081526001830160205260408120541515610df1565b600081815260046020908152604080832054815180830190925260128252710646561646c696e65206d75737420626520360741b92820192909252906144c65760405162461bcd60e51b8152600401610ad2919061599c565b50600082815260046020908152604080832083905560019091528082208290555183917f90fb84ad67dd037c388289337bb80b61b8605d38ba9a875dc38b5600909d172f91a2506001919050565b6060600061452183614401565b90506000816001600160401b0381111561453d5761453d615810565b604051908082528060200260200182016040528015614566578160200160208202803683370190505b50905060005b82811015613e7e5761457e858261440b565b82828151811061459057614590615b0e565b6001600160a01b0390921660209283029190910190910152806145b281615b24565b91505061456c565b600082815260026020908152604080832080546001600160a01b03198082166001600160a01b038881169182179094558686528487208054909216909155600485528386208690558351929091168083529382015285917fc4a957706c639829ad54381b04930c464db6c7ffdc09d2b4b1acc9ee34fb926191015b60405180910390a2509092915050565b6000828152600360209081526040808320805490859055600183528184208490556004835281842084905581518181529283018590529185917fcc0bafe2accb565ea70674bf4b2555e49a47d410fb9932dfab3e5f41855d0a2f9101614635565b60008181526001830160205260408120541515610df1565b604051630956fef360e21b81526001600160a01b03838116600483015260009182917f0000000000000000000000000000000000000000000000000000000000000000169063255bfbcc9060240160206040518083038186803b15801561472457600080fd5b505afa158015614738573d6000803e3d6000fd5b505050506040513d601f19601f8201168201806040525081019061475c91906159cf565b90506000816001600160a01b0316639816f4736040518163ffffffff1660e01b815260040160206040518083038186803b15801561479957600080fd5b505afa1580156147ad573d6000803e3d6000fd5b505050506040513d601f19601f820116820180604052508101906147d191906159cf565b9050836001600160a01b0316816001600160a01b031614156147f8576001925050506109cb565b600061482c7f00000000000000000000000000000000000000000000000000000000000000006001600160a01b0316614fdd565b6040516301f354d560e21b81526001600160a01b0384811660048301528781166024830152919250908216906307cd53549060440160206040518083038186803b15801561487957600080fd5b505afa15801561488d573d6000803e3d6000fd5b505050506040513d601f19601f820116820180604052508101906148b19190615a0e565b9695505050505050565b6040516369c2390b60e11b81526001600160a01b037f0000000000000000000000000000000000000000000000000000000000000000811660048301528085166024830152831660448201526064810182905260009073__$69d5f919a2332fd1585cf8aec6346e89b0$__9063d38472169060840160206040518083038186803b15801561494857600080fd5b505af4158015613d1b573d6000803e3d6000fd5b60405163059eadeb60e41b81526001600160a01b0384811660048301526000917f0000000000000000000000000000000000000000000000000000000000000000909116906359eadeb09060240160206040518083038186803b1580156149c257600080fd5b505afa1580156149d6573d6000803e3d6000fd5b505050506040513d601f19601f820116820180604052508101906149fa91906159cf565b604051631b89105360e31b81526001600160a01b038083166004830152808816602483015286166044820152606481018590526084810184905290915073__$69d5f919a2332fd1585cf8aec6346e89b0$__9063dc4882989060a40160006040518083038186803b158015614a6e57600080fd5b505af4158015614a82573d6000803e3d6000fd5b505050505050505050565b60006004600083815260200190815260200160002054905080421015604051806060016040528060218152602001615be66021913990614ae05760405162461bcd60e51b8152600401610ad2919061599c565b5060408051808201909152600d81526c0646561646c696e65206973203609c1b602082015281614b235760405162461bcd60e51b8152600401610ad2919061599c565b5050600090815260046020526040812055565b6000614b8b826040518060400160405280602081526020017f5361666545524332303a206c6f772d6c6576656c2063616c6c206661696c6564815250856001600160a01b031661501e9092919063ffffffff16565b805190915015613ee95780806020019051810190614ba99190615a0e565b613ee95760405162461bcd60e51b815260206004820152602a60248201527f5361666545524332303a204552433230206f7065726174696f6e20646964206e6044820152691bdd081cdd58d8d9595960b21b6064820152608401610ad2565b6001600160a01b0383166000908152600b60205260408120805490915b818110156133ad576000838281548110614c4157614c41615b0e565b6000918252602090912060029091020180549091506001600160a01b038781169116148015614c735750848160010154145b15614d2f5783614c84600185615ab3565b81548110614c9457614c94615b0e565b9060005260206000209060020201848381548110614cb457614cb4615b0e565b60009182526020909120825460029092020180546001600160a01b0319166001600160a01b039092169190911781556001918201549101558354849080614cfd57614cfd615b3f565b60008281526020812060026000199093019283020180546001600160a01b031916815560010155905550505050505050565b5080614d3a81615b24565b915050614c25565b6000610df1836001600160a01b03841661502d565b6000610df1838361502d565b6000610df18383614f8e565b6000614d7b8483615120565b600084815260016020908152604091829020859055815185815290810184905285917f0e6790002e78fb96ff1fdfe3a3bb2a86489d3f3923372c1fe5b6b1fed071eed491015b60405180910390a25060019392505050565b801580614e5c5750604051636eb1769f60e11b81523060048201526001600160a01b03838116602483015284169063dd62ed3e9060440160206040518083038186803b158015614e2257600080fd5b505afa158015614e36573d6000803e3d6000fd5b505050506040513d601f19601f82011682018060405250810190614e5a9190615a2b565b155b614ec75760405162461bcd60e51b815260206004820152603660248201527f5361666545524332303a20617070726f76652066726f6d206e6f6e2d7a65726f60448201527520746f206e6f6e2d7a65726f20616c6c6f77616e636560501b6064820152608401610ad2565b6040516001600160a01b038316602482015260448101829052613ee990849063095ea7b360e01b90606401613eb2565b6000826000018281548110614f0e57614f0e615b0e565b9060005260206000200154905092915050565b6000614f2d8483615120565b6000848152602081815260409182902080546001600160a01b0319166001600160a01b038716908117909155825190815290810184905285917fd46e58ee9dc1ae703349f8c09c19f23213a531b4d57f00cfd4a5a6cb6519668d9101614dc1565b6000818152600183016020526040812054614fd5575081546001818101845560008481526020808220909301849055845484825282860190935260409020919091556109cb565b5060006109cb565b6040516321f8a72160e01b81526e73776170706572526567697374727960881b60048201526000906001600160a01b038316906321f8a72190602401613d80565b6060613d3f84846000856151fa565b60008181526001830160205260408120548015615116576000615051600183615ab3565b855490915060009061506590600190615ab3565b90508181146150ca57600086600001828154811061508557615085615b0e565b90600052602060002001549050808760000184815481106150a8576150a8615b0e565b6000918252602080832090910192909255918252600188019052604090208390555b85548690806150db576150db615b3f565b6001900381819060005260206000200160009055905585600101600086815260200190815260200160002060009055600193505050506109cb565b60009150506109cb565b6004600083815260200190815260200160002054600014604051806040016040528060128152602001710646561646c696e65206d75737420626520360741b815250906151805760405162461bcd60e51b8152600401610ad2919061599c565b5060408051808201909152601881527f64656c6179206265206174206c6561737420332064617973000000000000000060208201526203f4808210156151d95760405162461bcd60e51b8152600401610ad2919061599c565b506151e48142615a79565b6000928352600460205260409092209190915550565b60608247101561525b5760405162461bcd60e51b815260206004820152602660248201527f416464726573733a20696e73756666696369656e742062616c616e636520666f6044820152651c8818d85b1b60d21b6064820152608401610ad2565b6001600160a01b0385163b6152b25760405162461bcd60e51b815260206004820152601d60248201527f416464726573733a2063616c6c20746f206e6f6e2d636f6e74726163740000006044820152606401610ad2565b600080866001600160a01b031685876040516152ce9190615aca565b60006040518083038185875af1925050503d806000811461530b576040519150601f19603f3d011682016040523d82523d6000602084013e615310565b606091505b509150915061532082828661532b565b979650505050505050565b6060831561533a575081610df1565b82511561534a5782518084602001fd5b8160405162461bcd60e51b8152600401610ad2919061599c565b60006020828403121561537657600080fd5b5035919050565b6001600160a01b038116811461539257600080fd5b50565b803561114b8161537d565b801515811461539257600080fd5b803561114b816153a0565b6000806000606084860312156153ce57600080fd5b83356153d98161537d565b92506020840135915060408401356153f0816153a0565b809150509250925092565b60006020828403121561540d57600080fd5b8135610df18161537d565b602080825282518282018190526000919060409081850190868401855b8281101561546357815180516001600160a01b03168552860151868501529284019290850190600101615435565b5091979650505050505050565b6000806000806080858703121561548657600080fd5b84356154918161537d565b935060208501356154a18161537d565b925060408501356154b18161537d565b9396929550929360600135925050565b600080600080600060a086880312156154d957600080fd5b85356154e48161537d565b945060208601356154f48161537d565b935060408601356155048161537d565b94979396509394606081013594506080013592915050565b6020808252825182820181905260009190848201906040850190845b8181101561555457835183529284019291840191600101615538565b50909695505050505050565b6000806040838503121561557357600080fd5b8235915060208301356155858161537d565b809150509250929050565b600081518084526020808501945080840160005b838110156155c95781516001600160a01b0316875295820195908201906001016155a4565b509495945050505050565b602081526000610df16020830184615590565b600080604083850312156155fa57600080fd5b50508035926020909101359150565b60408152600061561c6040830185615590565b90508260208301529392505050565b60008060006060848603121561564057600080fd5b833561564b8161537d565b9250602084013561565b8161537d565b929592945050506040919091013590565b81516001600160401b039081168252602080840151821690830152604080840151918216908301526101208201905060608301516156b560608401826001600160a01b03169052565b5060808301516156d060808401826001600160a01b03169052565b5060a08301516156eb60a08401826001600160801b03169052565b5060c083015161570660c08401826001600160801b03169052565b5060e083015161572160e08401826001600160801b03169052565b50610100928301511515919092015290565b60008083601f84011261574557600080fd5b5081356001600160401b0381111561575c57600080fd5b6020830191508360208260051b8501011115612fb257600080fd5b60008060008060006060868803121561578f57600080fd5b853561579a8161537d565b945060208601356001600160401b03808211156157b657600080fd5b6157c289838a01615733565b909650945060408801359150808211156157db57600080fd5b506157e888828901615733565b969995985093965092949392505050565b80356001600160801b038116811461114b57600080fd5b634e487b7160e01b600052604160045260246000fd5b60405161012081016001600160401b038111828210171561585757634e487b7160e01b600052604160045260246000fd5b60405290565b80356001600160401b038116811461114b57600080fd5b60008060008084860361018081121561588c57600080fd5b85356158978161537d565b9450602086013593506158ac604087016157f9565b925061012080605f19830112156158c257600080fd5b6158ca615826565b91506158d86060880161585d565b82526158e66080880161585d565b60208301526158f760a0880161585d565b604083015261590860c08801615395565b606083015261591960e08801615395565b608083015261010061592c8189016157f9565b60a084015261593c8289016157f9565b60c084015261594e61014089016157f9565b60e084015261596061016089016153ae565b9083015250939692955090935050565b60005b8381101561598b578181015183820152602001615973565b8381111561415b5750506000910152565b60208152600082518060208401526159bb816040850160208701615970565b601f01601f19169190910160400192915050565b6000602082840312156159e157600080fd5b8151610df18161537d565b6001600160a01b039290921682526001600160801b0316602082015260400190565b600060208284031215615a2057600080fd5b8151610df1816153a0565b600060208284031215615a3d57600080fd5b5051919050565b634e487b7160e01b600052601160045260246000fd5b6000816000190483118215151615615a7457615a74615a44565b500290565b60008219821115615a8c57615a8c615a44565b500190565b600082615aae57634e487b7160e01b600052601260045260246000fd5b500490565b600082821015615ac557615ac5615a44565b500390565b60008251615adc818460208701615970565b9190910192915050565b60006001600160801b0383811690831681811015615b0657615b06615a44565b039392505050565b634e487b7160e01b600052603260045260246000fd5b6000600019821415615b3857615b38615a44565b5060010190565b634e487b7160e01b600052603160045260246000fdfe746f6b656e206e6f7420757361626c6520666f722074686520737065636966696320616374696f6e746f6f206d756368204554482077696c6c206265207573656420666f72206761736e6f7420656e6f7567682045544820696e206761732062616e6b20746f20636f76657220676173756e617574686f72697a65642061636365737300000000000000000000000000646561646c696e6520686173206e6f74206265656e207265616368656420796574a26469706673582212200f6d2651d9bafeb58683f4c63cf6f2b40093c0c63a7930a9626feb272a0e1ef964736f6c63430008090033","language":"Solidity","natspec":{"kind":"dev","methods":{"addUsableToken(address)":{"details":"There is a separate check for whether the usable token (i.e. deposit token)      is swappable for some action token.","notice":"Add a new deposit token that is supported by the action.","params":{"token":"Address of deposit token that can be used by the action."}},"execute(address,address,address,bytes32)":{"notice":"See overloaded version of `execute` for more details."},"execute(address,address,address,bytes32,uint256)":{"details":"pool and vault funds are rebalanced after withdrawal for top up","notice":"Successfully tops up a position if it's conditions are met.","params":{"account":"Account owning the position for top up.","beneficiary":"Address of the keeper's wallet for fee accrual.","maxWeiForGas":"the maximum extra amount of wei that the keeper is willing to pay for the gas","payer":"Account that pays for the top up.","protocol":"Protocol of the top up position."},"returns":{"_0":"`true` if successful."}},"executeActionFee()":{"details":"Needs to be called after the update was prepared. Fails if called before time delay is met.","notice":"Execute action fee update (with time delay enforced).","returns":{"_0":"`true` if successful."}},"executeEstimatedGasUsage()":{"notice":"Execute update of gas usage (with time delay enforced).","returns":{"_0":"`true` if successful."}},"executeFeeHandler()":{"details":"Needs to be called after the update was prepraed. Fails if called before time delay is met.","notice":"Execute update of fee handler (with time delay enforced).","returns":{"_0":"`true` if successful."}},"executeSwapperSlippage()":{"details":"Needs to be called after the update was prepared. Fails if called before time delay is met.","notice":"Execute swapper slippage update (with time delay enforced).","returns":{"_0":"`true` if successful."}},"executeTopUpHandler(bytes32)":{"details":"Needs to be called after the update was prepared. Fails if called before time delay is met.","notice":"Execute top up handler update (with time delay enforced).","params":{"protocol":"Protocol for which a new handler should be executed."},"returns":{"_0":"Address of new handler."}},"getActionFee()":{"notice":"Returns the current action fee"},"getEstimatedGasUsage()":{"notice":"returns the current estimated gas usage"},"getEthRequiredForGas(address)":{"notice":"Computes the total amount of ETH (as wei) required to pay for all the top-ups assuming the maximum gas price and the current estimated gas usage of a top-up"},"getFeeHandler()":{"notice":"Returns the current fee handler"},"getHealthFactor(bytes32,address)":{"notice":"Check if action can be executed.","params":{"account":"for which to get the health factor","protocol":"for which to get the health factor"},"returns":{"healthFactor":"of the position"}},"getPosition(address,address,bytes32)":{"notice":"Get the record for a position.","params":{"account":"Address holding the position.","payer":"Registered payer of the position.","protocol":"Protocol where the position is held."}},"getSupportedProtocols()":{"notice":"Get a list supported protocols.","returns":{"_0":"List of supported protocols."}},"getSwapperSlippage()":{"notice":"Returns the current max swapper slippage"},"getTopUpHandler(bytes32)":{"notice":"Retrieves the topup handler for the given `protocol`"},"getUsableTokens()":{"details":"This refers to all tokens that can be used as deposit tokens.","notice":"Get a list of all tokens usable for this action.","returns":{"_0":"Array of addresses of usable tokens."}},"getUserPositions(address)":{"notice":"Returns a list of positions for the given payer"},"isUsable(address)":{"notice":"Check whether a token is usable as a deposit token.","params":{"token":"Address of token to check."},"returns":{"_0":"True if token is usable as a deposit token for this action."}},"prepareActionFee(uint256)":{"notice":"Prepare action fee update.","params":{"newActionFee":"New fee to set."},"returns":{"_0":"`true` if success."}},"prepareEstimatedGasUsage(uint256)":{"notice":"Prepare update of estimated gas usage.","params":{"gasUsage":"New estimated gas usage."},"returns":{"_0":"`true` if success."}},"prepareFeeHandler(address)":{"notice":"Prepare update of fee handler.","params":{"handler":"New fee handler."},"returns":{"_0":"`true` if success."}},"prepareSwapperSlippage(uint256)":{"notice":"Prepare swapper slippage update.","params":{"newSwapperSlippage":"New slippage to set."},"returns":{"_0":"`true` if success."}},"prepareTopUpHandler(bytes32,address)":{"details":"Setting the addres to 0 means that the protocol will no longer be supported.","notice":"Prepare new top up handler fee update.","params":{"newHandler":"Address of new handler.","protocol":"Protocol for which a new handler should be prepared."},"returns":{"_0":"`true` if success."}},"register(address,bytes32,uint128,(uint64,uint64,uint64,address,address,uint128,uint128,uint128,bool))":{"details":"The `depositAmount` must be greater or equal to the `totalTopUpAmount` (which is denominated in `actionToken`).","notice":"Register a top up action.","params":{"account":"Account to be topped up.","depositAmount":"Amount of `depositToken` that will be locked.","protocol":"Protocol which holds position to be topped up.","record":"containing the data for the position to register"}},"resetActionFee()":{"notice":"Reset action fee deadline.","returns":{"_0":"`true` if successful."}},"resetFeeHandler()":{"notice":"Reset the handler deadline.","returns":{"_0":"`true` if success."}},"resetGasUsage()":{"notice":"Reset the gas usage deadline.","returns":{"_0":"`true` if success."}},"resetPosition(address,bytes32,bool)":{"notice":"Delete a position to back on the given protocol for `account`.","params":{"account":"Account holding the position.","protocol":"Protocol the position is held on.","unstake":"If the tokens should be unstaked from vault."},"returns":{"_0":"`true` if successful."}},"resetSwapperSlippage()":{"notice":"Reset action fee deadline.","returns":{"_0":"`true` if successful."}},"resetTopUpHandler(bytes32)":{"notice":"Reset new top up handler deadline for a protocol.","params":{"protocol":"Protocol for which top up handler deadline should be reset."},"returns":{"_0":"`true` if successful."}}},"version":1},"opcodes":"PUSH1 0x80 PUSH1 0x40 MSTORE PUSH1 0x4 CALLDATASIZE LT PUSH2 0x25F JUMPI PUSH1 0x0 CALLDATALOAD PUSH1 0xE0 SHR DUP1 PUSH4 0x8CB164F9 GT PUSH2 0x144 JUMPI DUP1 PUSH4 0xC84CE0D0 GT PUSH2 0xB6 JUMPI DUP1 PUSH4 0xE3976EDF GT PUSH2 0x7A JUMPI DUP1 PUSH4 0xE3976EDF EQ PUSH2 0x82B JUMPI DUP1 PUSH4 0xE4716967 EQ PUSH2 0x861 JUMPI DUP1 PUSH4 0xEC594254 EQ PUSH2 0x876 JUMPI DUP1 PUSH4 0xF76C3399 EQ PUSH2 0x88B JUMPI DUP1 PUSH4 0xF77C4791 EQ PUSH2 0x8C1 JUMPI DUP1 PUSH4 0xFF13D719 EQ PUSH2 0x8F5 JUMPI PUSH1 0x0 DUP1 REVERT JUMPDEST DUP1 PUSH4 0xC84CE0D0 EQ PUSH2 0x67E JUMPI DUP1 PUSH4 0xCC0B4001 EQ PUSH2 0x6AC JUMPI DUP1 PUSH4 0xD1F6CED1 EQ PUSH2 0x7E1 JUMPI DUP1 PUSH4 0xD41B4E72 EQ PUSH2 0x7F6 JUMPI DUP1 PUSH4 0xD7E241BF EQ PUSH2 0x818 JUMPI PUSH1 0x0 DUP1 REVERT JUMPDEST DUP1 PUSH4 0xB75D609A GT PUSH2 0x108 JUMPI DUP1 PUSH4 0xB75D609A EQ PUSH2 0x5DD JUMPI DUP1 PUSH4 0xB7837B2E EQ PUSH2 0x5FD JUMPI DUP1 PUSH4 0xBA46FBA6 EQ PUSH2 0x612 JUMPI DUP1 PUSH4 0xBBA018A1 EQ PUSH2 0x627 JUMPI DUP1 PUSH4 0xBC92464A EQ PUSH2 0x649 JUMPI DUP1 PUSH4 0xBEF47ADF EQ PUSH2 0x669 JUMPI PUSH1 0x0 DUP1 REVERT JUMPDEST DUP1 PUSH4 0x8CB164F9 EQ PUSH2 0x530 JUMPI DUP1 PUSH4 0x91D08007 EQ PUSH2 0x550 JUMPI DUP1 PUSH4 0x9E1876E5 EQ PUSH2 0x570 JUMPI DUP1 PUSH4 0xA90875AB EQ PUSH2 0x590 JUMPI DUP1 PUSH4 0xAFF1B7E4 EQ PUSH2 0x5B0 JUMPI PUSH1 0x0 DUP1 REVERT JUMPDEST DUP1 PUSH4 0x2FF8E157 GT PUSH2 0x1DD JUMPI DUP1 PUSH4 0x4BCFC83C GT PUSH2 0x1A1 JUMPI DUP1 PUSH4 0x4BCFC83C EQ PUSH2 0x499 JUMPI DUP1 PUSH4 0x532913A5 EQ PUSH2 0x4B9 JUMPI DUP1 PUSH4 0x6DF45F55 EQ PUSH2 0x4DB JUMPI DUP1 PUSH4 0x75614E3F EQ PUSH2 0x4F0 JUMPI DUP1 PUSH4 0x7DC31846 EQ PUSH2 0x510 JUMPI DUP1 PUSH4 0x80FDFE2C EQ PUSH2 0x331 JUMPI PUSH1 0x0 DUP1 REVERT JUMPDEST DUP1 PUSH4 0x2FF8E157 EQ PUSH2 0x3F7 JUMPI DUP1 PUSH4 0x30078606 EQ PUSH2 0x417 JUMPI DUP1 PUSH4 0x340ED9FD EQ PUSH2 0x42C JUMPI DUP1 PUSH4 0x346A4A51 EQ PUSH2 0x44C JUMPI DUP1 PUSH4 0x4505E56C EQ PUSH2 0x479 JUMPI PUSH1 0x0 DUP1 REVERT JUMPDEST DUP1 PUSH4 0x1ECB8AC6 GT PUSH2 0x224 JUMPI DUP1 PUSH4 0x1ECB8AC6 EQ PUSH2 0x331 JUMPI DUP1 PUSH4 0x28F72C3D EQ PUSH2 0x351 JUMPI DUP1 PUSH4 0x2954018C EQ PUSH2 0x381 JUMPI DUP1 PUSH4 0x2A6BC2DD EQ PUSH2 0x3B5 JUMPI DUP1 PUSH4 0x2FE35E14 EQ PUSH2 0x3E2 JUMPI PUSH1 0x0 DUP1 REVERT JUMPDEST DUP1 PUSH3 0x435DA5 EQ PUSH2 0x26B JUMPI DUP1 PUSH4 0x100B5F2E EQ PUSH2 0x2B7 JUMPI DUP1 PUSH4 0x13C5DAF6 EQ PUSH2 0x2DA JUMPI DUP1 PUSH4 0x15DBFE62 EQ PUSH2 0x2EF JUMPI DUP1 PUSH4 0x1BB480E5 EQ PUSH2 0x31C JUMPI PUSH1 0x0 DUP1 REVERT JUMPDEST CALLDATASIZE PUSH2 0x266 JUMPI STOP JUMPDEST PUSH1 0x0 DUP1 REVERT JUMPDEST CALLVALUE DUP1 ISZERO PUSH2 0x277 JUMPI PUSH1 0x0 DUP1 REVERT JUMPDEST POP PUSH32 0x0 JUMPDEST PUSH1 0x40 MLOAD PUSH1 0x1 PUSH1 0x1 PUSH1 0xA0 SHL SUB SWAP1 SWAP2 AND DUP2 MSTORE PUSH1 0x20 ADD JUMPDEST PUSH1 0x40 MLOAD DUP1 SWAP2 SUB SWAP1 RETURN JUMPDEST CALLVALUE DUP1 ISZERO PUSH2 0x2C3 JUMPI PUSH1 0x0 DUP1 REVERT JUMPDEST POP PUSH2 0x2CC PUSH2 0x91A JUMP JUMPDEST PUSH1 0x40 MLOAD SWAP1 DUP2 MSTORE PUSH1 0x20 ADD PUSH2 0x2AE JUMP JUMPDEST CALLVALUE DUP1 ISZERO PUSH2 0x2E6 JUMPI PUSH1 0x0 DUP1 REVERT JUMPDEST POP PUSH2 0x2CC PUSH2 0x95D JUMP JUMPDEST CALLVALUE DUP1 ISZERO PUSH2 0x2FB JUMPI PUSH1 0x0 DUP1 REVERT JUMPDEST POP PUSH2 0x2CC PUSH2 0x30A CALLDATASIZE PUSH1 0x4 PUSH2 0x5364 JUMP JUMPDEST PUSH1 0x1 PUSH1 0x20 MSTORE PUSH1 0x0 SWAP1 DUP2 MSTORE PUSH1 0x40 SWAP1 KECCAK256 SLOAD DUP2 JUMP JUMPDEST CALLVALUE DUP1 ISZERO PUSH2 0x328 JUMPI PUSH1 0x0 DUP1 REVERT JUMPDEST POP PUSH2 0x2CC PUSH2 0x99F JUMP JUMPDEST CALLVALUE DUP1 ISZERO PUSH2 0x33D JUMPI PUSH1 0x0 DUP1 REVERT JUMPDEST POP PUSH2 0x29A PUSH2 0x34C CALLDATASIZE PUSH1 0x4 PUSH2 0x5364 JUMP JUMPDEST PUSH2 0x9BE JUMP JUMPDEST CALLVALUE DUP1 ISZERO PUSH2 0x35D JUMPI PUSH1 0x0 DUP1 REVERT JUMPDEST POP PUSH2 0x371 PUSH2 0x36C CALLDATASIZE PUSH1 0x4 PUSH2 0x53B9 JUMP JUMPDEST PUSH2 0x9D1 JUMP JUMPDEST PUSH1 0x40 MLOAD SWAP1 ISZERO ISZERO DUP2 MSTORE PUSH1 0x20 ADD PUSH2 0x2AE JUMP JUMPDEST CALLVALUE DUP1 ISZERO PUSH2 0x38D JUMPI PUSH1 0x0 DUP1 REVERT JUMPDEST POP PUSH2 0x29A PUSH32 0x0 DUP2 JUMP JUMPDEST CALLVALUE DUP1 ISZERO PUSH2 0x3C1 JUMPI PUSH1 0x0 DUP1 REVERT JUMPDEST POP PUSH2 0x3D5 PUSH2 0x3D0 CALLDATASIZE PUSH1 0x4 PUSH2 0x53FB JUMP JUMPDEST PUSH2 0xDF8 JUMP JUMPDEST PUSH1 0x40 MLOAD PUSH2 0x2AE SWAP2 SWAP1 PUSH2 0x5418 JUMP JUMPDEST CALLVALUE DUP1 ISZERO PUSH2 0x3EE JUMPI PUSH1 0x0 DUP1 REVERT JUMPDEST POP PUSH2 0x2CC PUSH2 0xE83 JUMP JUMPDEST CALLVALUE DUP1 ISZERO PUSH2 0x403 JUMPI PUSH1 0x0 DUP1 REVERT JUMPDEST POP PUSH2 0x371 PUSH2 0x412 CALLDATASIZE PUSH1 0x4 PUSH2 0x5470 JUMP JUMPDEST PUSH2 0xEA3 JUMP JUMPDEST CALLVALUE DUP1 ISZERO PUSH2 0x423 JUMPI PUSH1 0x0 DUP1 REVERT JUMPDEST POP PUSH2 0x371 PUSH2 0xEBC JUMP JUMPDEST CALLVALUE DUP1 ISZERO PUSH2 0x438 JUMPI PUSH1 0x0 DUP1 REVERT JUMPDEST POP PUSH2 0x29A PUSH2 0x447 CALLDATASIZE PUSH1 0x4 PUSH2 0x5364 JUMP JUMPDEST PUSH2 0xFC4 JUMP JUMPDEST CALLVALUE DUP1 ISZERO PUSH2 0x458 JUMPI PUSH1 0x0 DUP1 REVERT JUMPDEST POP PUSH2 0x2CC PUSH2 0x467 CALLDATASIZE PUSH1 0x4 PUSH2 0x5364 JUMP JUMPDEST PUSH1 0x4 PUSH1 0x20 MSTORE PUSH1 0x0 SWAP1 DUP2 MSTORE PUSH1 0x40 SWAP1 KECCAK256 SLOAD DUP2 JUMP JUMPDEST CALLVALUE DUP1 ISZERO PUSH2 0x485 JUMPI PUSH1 0x0 DUP1 REVERT JUMPDEST POP PUSH2 0x371 PUSH2 0x494 CALLDATASIZE PUSH1 0x4 PUSH2 0x5364 JUMP JUMPDEST PUSH2 0xFF4 JUMP JUMPDEST CALLVALUE DUP1 ISZERO PUSH2 0x4A5 JUMPI PUSH1 0x0 DUP1 REVERT JUMPDEST POP PUSH2 0x371 PUSH2 0x4B4 CALLDATASIZE PUSH1 0x4 PUSH2 0x54C1 JUMP JUMPDEST PUSH2 0x1150 JUMP JUMPDEST CALLVALUE DUP1 ISZERO PUSH2 0x4C5 JUMPI PUSH1 0x0 DUP1 REVERT JUMPDEST POP PUSH2 0x4CE PUSH2 0x23F8 JUMP JUMPDEST PUSH1 0x40 MLOAD PUSH2 0x2AE SWAP2 SWAP1 PUSH2 0x551C JUMP JUMPDEST CALLVALUE DUP1 ISZERO PUSH2 0x4E7 JUMPI PUSH1 0x0 DUP1 REVERT JUMPDEST POP PUSH2 0x2CC PUSH2 0x249A JUMP JUMPDEST CALLVALUE DUP1 ISZERO PUSH2 0x4FC JUMPI PUSH1 0x0 DUP1 REVERT JUMPDEST POP PUSH2 0x371 PUSH2 0x50B CALLDATASIZE PUSH1 0x4 PUSH2 0x5560 JUMP JUMPDEST PUSH2 0x24B1 JUMP JUMPDEST CALLVALUE DUP1 ISZERO PUSH2 0x51C JUMPI PUSH1 0x0 DUP1 REVERT JUMPDEST POP PUSH2 0x2CC PUSH2 0x52B CALLDATASIZE PUSH1 0x4 PUSH2 0x53FB JUMP JUMPDEST PUSH2 0x25B5 JUMP JUMPDEST CALLVALUE DUP1 ISZERO PUSH2 0x53C JUMPI PUSH1 0x0 DUP1 REVERT JUMPDEST POP PUSH2 0x371 PUSH2 0x54B CALLDATASIZE PUSH1 0x4 PUSH2 0x53FB JUMP JUMPDEST PUSH2 0x279A JUMP JUMPDEST CALLVALUE DUP1 ISZERO PUSH2 0x55C JUMPI PUSH1 0x0 DUP1 REVERT JUMPDEST POP PUSH2 0x371 PUSH2 0x56B CALLDATASIZE PUSH1 0x4 PUSH2 0x53FB JUMP JUMPDEST PUSH2 0x2897 JUMP JUMPDEST CALLVALUE DUP1 ISZERO PUSH2 0x57C JUMPI PUSH1 0x0 DUP1 REVERT JUMPDEST POP PUSH2 0x371 PUSH2 0x58B CALLDATASIZE PUSH1 0x4 PUSH2 0x5364 JUMP JUMPDEST PUSH2 0x29A0 JUMP JUMPDEST CALLVALUE DUP1 ISZERO PUSH2 0x59C JUMPI PUSH1 0x0 DUP1 REVERT JUMPDEST POP PUSH2 0x371 PUSH2 0x5AB CALLDATASIZE PUSH1 0x4 PUSH2 0x5364 JUMP JUMPDEST PUSH2 0x2AA3 JUMP JUMPDEST CALLVALUE DUP1 ISZERO PUSH2 0x5BC JUMPI PUSH1 0x0 DUP1 REVERT JUMPDEST POP PUSH2 0x2CC PUSH2 0x5CB CALLDATASIZE PUSH1 0x4 PUSH2 0x5364 JUMP JUMPDEST PUSH1 0x3 PUSH1 0x20 MSTORE PUSH1 0x0 SWAP1 DUP2 MSTORE PUSH1 0x40 SWAP1 KECCAK256 SLOAD DUP2 JUMP JUMPDEST CALLVALUE DUP1 ISZERO PUSH2 0x5E9 JUMPI PUSH1 0x0 DUP1 REVERT JUMPDEST POP PUSH2 0x371 PUSH2 0x5F8 CALLDATASIZE PUSH1 0x4 PUSH2 0x53FB JUMP JUMPDEST PUSH2 0x2BB3 JUMP JUMPDEST CALLVALUE DUP1 ISZERO PUSH2 0x609 JUMPI PUSH1 0x0 DUP1 REVERT JUMPDEST POP PUSH2 0x371 PUSH2 0x2BC0 JUMP JUMPDEST CALLVALUE DUP1 ISZERO PUSH2 0x61E JUMPI PUSH1 0x0 DUP1 REVERT JUMPDEST POP PUSH2 0x29A PUSH2 0x2CD0 JUMP JUMPDEST CALLVALUE DUP1 ISZERO PUSH2 0x633 JUMPI PUSH1 0x0 DUP1 REVERT JUMPDEST POP PUSH2 0x63C PUSH2 0x2CE8 JUMP JUMPDEST PUSH1 0x40 MLOAD PUSH2 0x2AE SWAP2 SWAP1 PUSH2 0x55D4 JUMP JUMPDEST CALLVALUE DUP1 ISZERO PUSH2 0x655 JUMPI PUSH1 0x0 DUP1 REVERT JUMPDEST POP PUSH2 0x371 PUSH2 0x664 CALLDATASIZE PUSH1 0x4 PUSH2 0x5364 JUMP JUMPDEST PUSH2 0x2CF4 JUMP JUMPDEST CALLVALUE DUP1 ISZERO PUSH2 0x675 JUMPI PUSH1 0x0 DUP1 REVERT JUMPDEST POP PUSH2 0x29A PUSH2 0x2E6B JUMP JUMPDEST CALLVALUE DUP1 ISZERO PUSH2 0x68A JUMPI PUSH1 0x0 DUP1 REVERT JUMPDEST POP PUSH2 0x69E PUSH2 0x699 CALLDATASIZE PUSH1 0x4 PUSH2 0x55E7 JUMP JUMPDEST PUSH2 0x2EAF JUMP JUMPDEST PUSH1 0x40 MLOAD PUSH2 0x2AE SWAP3 SWAP2 SWAP1 PUSH2 0x5609 JUMP JUMPDEST CALLVALUE DUP1 ISZERO PUSH2 0x6B8 JUMPI PUSH1 0x0 DUP1 REVERT JUMPDEST POP PUSH2 0x7D4 PUSH2 0x6C7 CALLDATASIZE PUSH1 0x4 PUSH2 0x562B JUMP JUMPDEST PUSH1 0x40 DUP1 MLOAD PUSH2 0x120 DUP2 ADD DUP3 MSTORE PUSH1 0x0 DUP1 DUP3 MSTORE PUSH1 0x20 DUP3 ADD DUP2 SWAP1 MSTORE SWAP2 DUP2 ADD DUP3 SWAP1 MSTORE PUSH1 0x60 DUP2 ADD DUP3 SWAP1 MSTORE PUSH1 0x80 DUP2 ADD DUP3 SWAP1 MSTORE PUSH1 0xA0 DUP2 ADD DUP3 SWAP1 MSTORE PUSH1 0xC0 DUP2 ADD DUP3 SWAP1 MSTORE PUSH1 0xE0 DUP2 ADD DUP3 SWAP1 MSTORE PUSH2 0x100 DUP2 ADD SWAP2 SWAP1 SWAP2 MSTORE POP PUSH1 0x1 PUSH1 0x1 PUSH1 0xA0 SHL SUB SWAP3 DUP4 AND PUSH1 0x0 SWAP1 DUP2 MSTORE PUSH1 0xA PUSH1 0x20 SWAP1 DUP2 MSTORE PUSH1 0x40 DUP1 DUP4 KECCAK256 SWAP5 DUP7 AND DUP4 MSTORE SWAP4 DUP2 MSTORE DUP4 DUP3 KECCAK256 SWAP3 DUP3 MSTORE SWAP2 DUP3 MSTORE DUP3 SWAP1 KECCAK256 DUP3 MLOAD PUSH2 0x120 DUP2 ADD DUP5 MSTORE DUP2 SLOAD PUSH1 0x1 PUSH1 0x1 PUSH1 0x40 SHL SUB DUP1 DUP3 AND DUP4 MSTORE PUSH1 0x1 PUSH1 0x40 SHL DUP3 DIV DUP2 AND SWAP5 DUP4 ADD SWAP5 SWAP1 SWAP5 MSTORE PUSH1 0x1 PUSH1 0x80 SHL SWAP1 DUP2 SWAP1 DIV SWAP1 SWAP4 AND SWAP4 DUP2 ADD SWAP4 SWAP1 SWAP4 MSTORE PUSH1 0x1 DUP2 ADD SLOAD DUP5 AND PUSH1 0x60 DUP5 ADD MSTORE PUSH1 0x2 DUP2 ADD SLOAD SWAP1 SWAP4 AND PUSH1 0x80 DUP4 ADD MSTORE PUSH1 0x3 DUP4 ADD SLOAD PUSH1 0x1 PUSH1 0x1 PUSH1 0x80 SHL SUB DUP1 DUP3 AND PUSH1 0xA0 DUP6 ADD MSTORE SWAP1 DUP3 SWAP1 DIV DUP2 AND PUSH1 0xC0 DUP5 ADD MSTORE PUSH1 0x4 SWAP1 SWAP4 ADD SLOAD SWAP3 DUP4 AND PUSH1 0xE0 DUP4 ADD MSTORE SWAP1 SWAP2 DIV PUSH1 0xFF AND ISZERO ISZERO PUSH2 0x100 DUP3 ADD MSTORE SWAP1 JUMP JUMPDEST PUSH1 0x40 MLOAD PUSH2 0x2AE SWAP2 SWAP1 PUSH2 0x566C JUMP JUMPDEST CALLVALUE DUP1 ISZERO PUSH2 0x7ED JUMPI PUSH1 0x0 DUP1 REVERT JUMPDEST POP PUSH2 0x371 PUSH2 0x2FB9 JUMP JUMPDEST CALLVALUE DUP1 ISZERO PUSH2 0x802 JUMPI PUSH1 0x0 DUP1 REVERT JUMPDEST POP PUSH2 0x816 PUSH2 0x811 CALLDATASIZE PUSH1 0x4 PUSH2 0x5777 JUMP JUMPDEST PUSH2 0x30C0 JUMP JUMPDEST STOP JUMPDEST PUSH2 0x371 PUSH2 0x826 CALLDATASIZE PUSH1 0x4 PUSH2 0x5874 JUMP JUMPDEST PUSH2 0x33B5 JUMP JUMPDEST CALLVALUE DUP1 ISZERO PUSH2 0x837 JUMPI PUSH1 0x0 DUP1 REVERT JUMPDEST POP PUSH2 0x29A PUSH2 0x846 CALLDATASIZE PUSH1 0x4 PUSH2 0x5364 JUMP JUMPDEST PUSH1 0x0 PUSH1 0x20 DUP2 SWAP1 MSTORE SWAP1 DUP2 MSTORE PUSH1 0x40 SWAP1 KECCAK256 SLOAD PUSH1 0x1 PUSH1 0x1 PUSH1 0xA0 SHL SUB AND DUP2 JUMP JUMPDEST CALLVALUE DUP1 ISZERO PUSH2 0x86D JUMPI PUSH1 0x0 DUP1 REVERT JUMPDEST POP PUSH2 0x371 PUSH2 0x3B6C JUMP JUMPDEST CALLVALUE DUP1 ISZERO PUSH2 0x882 JUMPI PUSH1 0x0 DUP1 REVERT JUMPDEST POP PUSH2 0x2CC PUSH2 0x3C7B JUMP JUMPDEST CALLVALUE DUP1 ISZERO PUSH2 0x897 JUMPI PUSH1 0x0 DUP1 REVERT JUMPDEST POP PUSH2 0x29A PUSH2 0x8A6 CALLDATASIZE PUSH1 0x4 PUSH2 0x5364 JUMP JUMPDEST PUSH1 0x2 PUSH1 0x20 MSTORE PUSH1 0x0 SWAP1 DUP2 MSTORE PUSH1 0x40 SWAP1 KECCAK256 SLOAD PUSH1 0x1 PUSH1 0x1 PUSH1 0xA0 SHL SUB AND DUP2 JUMP JUMPDEST CALLVALUE DUP1 ISZERO PUSH2 0x8CD JUMPI PUSH1 0x0 DUP1 REVERT JUMPDEST POP PUSH2 0x29A PUSH32 0x0 DUP2 JUMP JUMPDEST CALLVALUE DUP1 ISZERO PUSH2 0x901 JUMPI PUSH1 0x0 DUP1 REVERT JUMPDEST POP PUSH2 0x2CC PUSH2 0x910 CALLDATASIZE PUSH1 0x4 PUSH2 0x5560 JUMP JUMPDEST PUSH2 0x3CB5 JUMP JUMPDEST SWAP1 POP SWAP1 JUMP JUMPDEST PUSH18 0x4D617853776170706572536C697070616765 PUSH1 0x70 SHL PUSH1 0x0 MSTORE PUSH1 0x3 PUSH1 0x20 MSTORE PUSH32 0xA7AB04B93B5E6E7A6233E3DBA8C0355D868F3F251B1DF44ECCFF4C606779819 SLOAD SWAP1 JUMP JUMPDEST PUSH17 0x457374696D617465644761735573616765 PUSH1 0x78 SHL PUSH1 0x0 MSTORE PUSH1 0x3 PUSH1 0x20 MSTORE PUSH32 0xD92AE9A825C06E5A7102E086CC9FD80C4EF8ADF441004161C8B93E0E5B4492A2 SLOAD SWAP1 JUMP JUMPDEST PUSH1 0x0 PUSH2 0x915 PUSH17 0x457374696D617465644761735573616765 PUSH1 0x78 SHL PUSH2 0x3DD0 JUMP JUMPDEST PUSH1 0x0 PUSH2 0x9CB DUP3 PUSH1 0x0 PUSH2 0x3DF4 JUMP JUMPDEST SWAP3 SWAP2 POP POP JUMP JUMPDEST CALLER PUSH1 0x0 DUP2 DUP2 MSTORE PUSH1 0xA PUSH1 0x20 SWAP1 DUP2 MSTORE PUSH1 0x40 DUP1 DUP4 KECCAK256 PUSH1 0x1 PUSH1 0x1 PUSH1 0xA0 SHL SUB DUP9 DUP2 AND DUP6 MSTORE SWAP1 DUP4 MSTORE DUP2 DUP5 KECCAK256 DUP8 DUP6 MSTORE DUP4 MSTORE DUP2 DUP5 KECCAK256 DUP3 MLOAD PUSH2 0x120 DUP2 ADD DUP5 MSTORE DUP2 SLOAD PUSH1 0x1 PUSH1 0x1 PUSH1 0x40 SHL SUB DUP1 DUP3 AND DUP1 DUP5 MSTORE PUSH1 0x1 PUSH1 0x40 SHL DUP4 DIV DUP3 AND DUP5 DUP10 ADD MSTORE PUSH1 0x1 PUSH1 0x80 SHL SWAP3 DUP4 SWAP1 DIV SWAP1 SWAP2 AND DUP4 DUP8 ADD MSTORE PUSH1 0x1 DUP5 ADD SLOAD DUP6 AND PUSH1 0x60 DUP5 ADD MSTORE PUSH1 0x2 DUP5 ADD SLOAD SWAP1 SWAP5 AND PUSH1 0x80 DUP4 ADD MSTORE PUSH1 0x3 DUP4 ADD SLOAD PUSH1 0x1 PUSH1 0x1 PUSH1 0x80 SHL SUB DUP1 DUP3 AND PUSH1 0xA0 DUP6 ADD MSTORE SWAP1 DUP3 SWAP1 DIV DUP2 AND PUSH1 0xC0 DUP5 ADD MSTORE PUSH1 0x4 SWAP1 SWAP4 ADD SLOAD SWAP3 DUP4 AND PUSH1 0xE0 DUP4 ADD MSTORE SWAP1 SWAP2 DIV PUSH1 0xFF AND ISZERO ISZERO PUSH2 0x100 DUP3 ADD MSTORE DUP3 MLOAD DUP1 DUP5 ADD SWAP1 SWAP4 MSTORE PUSH1 0x12 DUP4 MSTORE PUSH18 0x6E6F20706F736974696F6E20657869737473 PUSH1 0x70 SHL SWAP4 DUP4 ADD SWAP4 SWAP1 SWAP4 MSTORE SWAP3 SWAP4 SWAP3 PUSH2 0xADB JUMPI PUSH1 0x40 MLOAD PUSH3 0x461BCD PUSH1 0xE5 SHL DUP2 MSTORE PUSH1 0x4 ADD PUSH2 0xAD2 SWAP2 SWAP1 PUSH2 0x599C JUMP JUMPDEST PUSH1 0x40 MLOAD DUP1 SWAP2 SUB SWAP1 REVERT JUMPDEST POP PUSH1 0x80 DUP2 ADD MLOAD PUSH1 0x40 MLOAD PUSH4 0x59EADEB PUSH1 0xE4 SHL DUP2 MSTORE PUSH1 0x1 PUSH1 0x1 PUSH1 0xA0 SHL SUB SWAP2 DUP3 AND PUSH1 0x4 DUP3 ADD MSTORE PUSH1 0x0 SWAP2 PUSH32 0x0 AND SWAP1 PUSH4 0x59EADEB0 SWAP1 PUSH1 0x24 ADD PUSH1 0x20 PUSH1 0x40 MLOAD DUP1 DUP4 SUB DUP2 DUP7 DUP1 EXTCODESIZE ISZERO DUP1 ISZERO PUSH2 0xB45 JUMPI PUSH1 0x0 DUP1 REVERT JUMPDEST POP GAS STATICCALL ISZERO DUP1 ISZERO PUSH2 0xB59 JUMPI RETURNDATASIZE PUSH1 0x0 DUP1 RETURNDATACOPY RETURNDATASIZE PUSH1 0x0 REVERT JUMPDEST POP POP POP POP PUSH1 0x40 MLOAD RETURNDATASIZE PUSH1 0x1F NOT PUSH1 0x1F DUP3 ADD AND DUP3 ADD DUP1 PUSH1 0x40 MSTORE POP DUP2 ADD SWAP1 PUSH2 0xB7D SWAP2 SWAP1 PUSH2 0x59CF JUMP JUMPDEST PUSH1 0xE0 DUP4 ADD MLOAD PUSH1 0x40 MLOAD PUSH4 0x6A278CD9 PUSH1 0xE0 SHL DUP2 MSTORE SWAP2 SWAP3 POP DUP3 SWAP2 PUSH1 0x1 PUSH1 0x1 PUSH1 0xA0 SHL SUB DUP4 AND SWAP2 PUSH4 0x6A278CD9 SWAP2 PUSH2 0xBB3 SWAP2 DUP9 SWAP2 PUSH1 0x4 ADD PUSH2 0x59EC JUMP JUMPDEST PUSH1 0x20 PUSH1 0x40 MLOAD DUP1 DUP4 SUB DUP2 PUSH1 0x0 DUP8 DUP1 EXTCODESIZE ISZERO DUP1 ISZERO PUSH2 0xBCD JUMPI PUSH1 0x0 DUP1 REVERT JUMPDEST POP GAS CALL ISZERO DUP1 ISZERO PUSH2 0xBE1 JUMPI RETURNDATASIZE PUSH1 0x0 DUP1 RETURNDATACOPY RETURNDATASIZE PUSH1 0x0 REVERT JUMPDEST POP POP POP POP PUSH1 0x40 MLOAD RETURNDATASIZE PUSH1 0x1F NOT PUSH1 0x1F DUP3 ADD AND DUP3 ADD DUP1 PUSH1 0x40 MSTORE POP DUP2 ADD SWAP1 PUSH2 0xC05 SWAP2 SWAP1 PUSH2 0x5A0E JUMP JUMPDEST POP DUP6 ISZERO PUSH2 0xCC9 JUMPI PUSH1 0xE0 DUP4 ADD MLOAD PUSH1 0x40 MLOAD PUSH4 0x5C2FBCF PUSH1 0xE3 SHL DUP2 MSTORE PUSH1 0x1 PUSH1 0x1 PUSH1 0x80 SHL SUB SWAP1 SWAP2 AND PUSH1 0x4 DUP3 ADD MSTORE PUSH1 0x1 PUSH1 0x1 PUSH1 0xA0 SHL SUB DUP3 AND SWAP1 PUSH4 0x2E17DE78 SWAP1 PUSH1 0x24 ADD PUSH1 0x20 PUSH1 0x40 MLOAD DUP1 DUP4 SUB DUP2 PUSH1 0x0 DUP8 DUP1 EXTCODESIZE ISZERO DUP1 ISZERO PUSH2 0xC5C JUMPI PUSH1 0x0 DUP1 REVERT JUMPDEST POP GAS CALL ISZERO DUP1 ISZERO PUSH2 0xC70 JUMPI RETURNDATASIZE PUSH1 0x0 DUP1 RETURNDATACOPY RETURNDATASIZE PUSH1 0x0 REVERT JUMPDEST POP POP POP POP PUSH1 0x40 MLOAD RETURNDATASIZE PUSH1 0x1F NOT PUSH1 0x1F DUP3 ADD AND DUP3 ADD DUP1 PUSH1 0x40 MSTORE POP DUP2 ADD SWAP1 PUSH2 0xC94 SWAP2 SWAP1 PUSH2 0x5A0E JUMP JUMPDEST POP PUSH2 0xCC4 DUP5 DUP5 PUSH1 0xE0 ADD MLOAD PUSH1 0x1 PUSH1 0x1 PUSH1 0x80 SHL SUB AND DUP6 PUSH1 0x80 ADD MLOAD PUSH1 0x1 PUSH1 0x1 PUSH1 0xA0 SHL SUB AND PUSH2 0x3E86 SWAP1 SWAP3 SWAP2 SWAP1 PUSH4 0xFFFFFFFF AND JUMP JUMPDEST PUSH2 0xD4E JUMP JUMPDEST PUSH1 0xE0 DUP4 ADD MLOAD PUSH1 0x40 MLOAD PUSH4 0xA9059CBB PUSH1 0xE0 SHL DUP2 MSTORE PUSH1 0x1 PUSH1 0x1 PUSH1 0xA0 SHL SUB DUP4 AND SWAP2 PUSH4 0xA9059CBB SWAP2 PUSH2 0xCFA SWAP2 DUP9 SWAP2 PUSH1 0x4 ADD PUSH2 0x59EC JUMP JUMPDEST PUSH1 0x20 PUSH1 0x40 MLOAD DUP1 DUP4 SUB DUP2 PUSH1 0x0 DUP8 DUP1 EXTCODESIZE ISZERO DUP1 ISZERO PUSH2 0xD14 JUMPI PUSH1 0x0 DUP1 REVERT JUMPDEST POP GAS CALL ISZERO DUP1 ISZERO PUSH2 0xD28 JUMPI RETURNDATASIZE PUSH1 0x0 DUP1 RETURNDATACOPY RETURNDATASIZE PUSH1 0x0 REVERT JUMPDEST POP POP POP POP PUSH1 0x40 MLOAD RETURNDATASIZE PUSH1 0x1F NOT PUSH1 0x1F DUP3 ADD AND DUP3 ADD DUP1 PUSH1 0x40 MSTORE POP DUP2 ADD SWAP1 PUSH2 0xD4C SWAP2 SWAP1 PUSH2 0x5A0E JUMP JUMPDEST POP JUMPDEST PUSH2 0xD59 DUP5 DUP10 DUP10 PUSH2 0x3EEE JUMP JUMPDEST PUSH2 0xD8B PUSH32 0x0 PUSH1 0x1 PUSH1 0x1 PUSH1 0xA0 SHL SUB AND PUSH2 0x3FE9 JUMP JUMPDEST PUSH1 0x40 MLOAD PUSH4 0x35272C25 PUSH1 0xE2 SHL DUP2 MSTORE PUSH1 0x1 PUSH1 0x1 PUSH1 0xA0 SHL SUB DUP7 DUP2 AND PUSH1 0x4 DUP4 ADD MSTORE SWAP2 SWAP1 SWAP2 AND SWAP1 PUSH4 0xD49CB094 SWAP1 PUSH1 0x24 ADD PUSH1 0x0 PUSH1 0x40 MLOAD DUP1 DUP4 SUB DUP2 PUSH1 0x0 DUP8 DUP1 EXTCODESIZE ISZERO DUP1 ISZERO PUSH2 0xDD0 JUMPI PUSH1 0x0 DUP1 REVERT JUMPDEST POP GAS CALL ISZERO DUP1 ISZERO PUSH2 0xDE4 JUMPI RETURNDATASIZE PUSH1 0x0 DUP1 RETURNDATACOPY RETURNDATASIZE PUSH1 0x0 REVERT JUMPDEST POP POP POP POP PUSH1 0x1 SWAP5 POP POP POP POP POP JUMPDEST SWAP4 SWAP3 POP POP POP JUMP JUMPDEST PUSH1 0x1 PUSH1 0x1 PUSH1 0xA0 SHL SUB DUP2 AND PUSH1 0x0 SWAP1 DUP2 MSTORE PUSH1 0xB PUSH1 0x20 SWAP1 DUP2 MSTORE PUSH1 0x40 DUP1 DUP4 KECCAK256 DUP1 SLOAD DUP3 MLOAD DUP2 DUP6 MUL DUP2 ADD DUP6 ADD SWAP1 SWAP4 MSTORE DUP1 DUP4 MSTORE PUSH1 0x60 SWAP5 SWAP3 SWAP4 SWAP2 SWAP3 SWAP1 SWAP2 DUP5 ADD JUMPDEST DUP3 DUP3 LT ISZERO PUSH2 0xE78 JUMPI PUSH1 0x0 DUP5 DUP2 MSTORE PUSH1 0x20 SWAP1 DUP2 SWAP1 KECCAK256 PUSH1 0x40 DUP1 MLOAD DUP1 DUP3 ADD SWAP1 SWAP2 MSTORE PUSH1 0x2 DUP6 MUL SWAP1 SWAP2 ADD DUP1 SLOAD PUSH1 0x1 PUSH1 0x1 PUSH1 0xA0 SHL SUB AND DUP3 MSTORE PUSH1 0x1 SWAP1 DUP2 ADD SLOAD DUP3 DUP5 ADD MSTORE SWAP1 DUP4 MSTORE SWAP1 SWAP3 ADD SWAP2 ADD PUSH2 0xE30 JUMP JUMPDEST POP POP POP POP SWAP1 POP SWAP2 SWAP1 POP JUMP JUMPDEST PUSH1 0x0 PUSH2 0x915 PUSH18 0x4D617853776170706572536C697070616765 PUSH1 0x70 SHL PUSH2 0x3DD0 JUMP JUMPDEST PUSH1 0x0 PUSH2 0xEB3 DUP6 DUP6 DUP6 DUP6 PUSH1 0x0 PUSH2 0x1150 JUMP JUMPDEST SWAP6 SWAP5 POP POP POP POP POP JUMP JUMPDEST PUSH1 0x0 PUSH32 0x0 PUSH1 0x40 MLOAD PUSH4 0x24745215 PUSH1 0xE2 SHL DUP2 MSTORE PUSH10 0x676F7665726E616E6365 PUSH1 0xB0 SHL PUSH1 0x4 DUP3 ADD MSTORE CALLER PUSH1 0x24 DUP3 ADD MSTORE PUSH1 0x1 PUSH1 0x1 PUSH1 0xA0 SHL SUB SWAP2 SWAP1 SWAP2 AND SWAP1 PUSH4 0x91D14854 SWAP1 PUSH1 0x44 ADD PUSH1 0x20 PUSH1 0x40 MLOAD DUP1 DUP4 SUB DUP2 DUP7 DUP1 EXTCODESIZE ISZERO DUP1 ISZERO PUSH2 0xF33 JUMPI PUSH1 0x0 DUP1 REVERT JUMPDEST POP GAS STATICCALL ISZERO DUP1 ISZERO PUSH2 0xF47 JUMPI RETURNDATASIZE PUSH1 0x0 DUP1 RETURNDATACOPY RETURNDATASIZE PUSH1 0x0 REVERT JUMPDEST POP POP POP POP PUSH1 0x40 MLOAD RETURNDATASIZE PUSH1 0x1F NOT PUSH1 0x1F DUP3 ADD AND DUP3 ADD DUP1 PUSH1 0x40 MSTORE POP DUP2 ADD SWAP1 PUSH2 0xF6B SWAP2 SWAP1 PUSH2 0x5A0E JUMP JUMPDEST PUSH1 0x40 MLOAD DUP1 PUSH1 0x40 ADD PUSH1 0x40 MSTORE DUP1 PUSH1 0x13 DUP2 MSTORE PUSH1 0x20 ADD PUSH1 0x0 DUP1 MLOAD PUSH1 0x20 PUSH2 0x5BC6 DUP4 CODECOPY DUP2 MLOAD SWAP2 MSTORE DUP2 MSTORE POP SWAP1 PUSH2 0xFAD JUMPI PUSH1 0x40 MLOAD PUSH3 0x461BCD PUSH1 0xE5 SHL DUP2 MSTORE PUSH1 0x4 ADD PUSH2 0xAD2 SWAP2 SWAP1 PUSH2 0x599C JUMP JUMPDEST POP PUSH2 0x915 PUSH10 0x2332B2A430B7323632B9 PUSH1 0xB1 SHL PUSH2 0x4022 JUMP JUMPDEST PUSH1 0x0 DUP1 PUSH2 0xFD2 DUP4 PUSH1 0x0 PUSH2 0x3DF4 JUMP JUMPDEST SWAP1 POP PUSH1 0x0 PUSH2 0xFE7 PUSH2 0xFE2 DUP6 PUSH2 0x40D3 JUMP JUMPDEST PUSH2 0x4115 JUMP JUMPDEST SWAP1 POP PUSH2 0xDF1 DUP5 DUP4 DUP4 PUSH2 0x4142 JUMP JUMPDEST PUSH1 0x0 PUSH32 0x0 PUSH1 0x40 MLOAD PUSH4 0x24745215 PUSH1 0xE2 SHL DUP2 MSTORE PUSH10 0x676F7665726E616E6365 PUSH1 0xB0 SHL PUSH1 0x4 DUP3 ADD MSTORE CALLER PUSH1 0x24 DUP3 ADD MSTORE PUSH1 0x1 PUSH1 0x1 PUSH1 0xA0 SHL SUB SWAP2 SWAP1 SWAP2 AND SWAP1 PUSH4 0x91D14854 SWAP1 PUSH1 0x44 ADD PUSH1 0x20 PUSH1 0x40 MLOAD DUP1 DUP4 SUB DUP2 DUP7 DUP1 EXTCODESIZE ISZERO DUP1 ISZERO PUSH2 0x106B JUMPI PUSH1 0x0 DUP1 REVERT JUMPDEST POP GAS STATICCALL ISZERO DUP1 ISZERO PUSH2 0x107F JUMPI RETURNDATASIZE PUSH1 0x0 DUP1 RETURNDATACOPY RETURNDATASIZE PUSH1 0x0 REVERT JUMPDEST POP POP POP POP PUSH1 0x40 MLOAD RETURNDATASIZE PUSH1 0x1F NOT PUSH1 0x1F DUP3 ADD AND DUP3 ADD DUP1 PUSH1 0x40 MSTORE POP DUP2 ADD SWAP1 PUSH2 0x10A3 SWAP2 SWAP1 PUSH2 0x5A0E JUMP JUMPDEST PUSH1 0x40 MLOAD DUP1 PUSH1 0x40 ADD PUSH1 0x40 MSTORE DUP1 PUSH1 0x13 DUP2 MSTORE PUSH1 0x20 ADD PUSH1 0x0 DUP1 MLOAD PUSH1 0x20 PUSH2 0x5BC6 DUP4 CODECOPY DUP2 MLOAD SWAP2 MSTORE DUP2 MSTORE POP SWAP1 PUSH2 0x10E5 JUMPI PUSH1 0x40 MLOAD PUSH3 0x461BCD PUSH1 0xE5 SHL DUP2 MSTORE PUSH1 0x4 ADD PUSH2 0xAD2 SWAP2 SWAP1 PUSH2 0x599C JUMP JUMPDEST POP PUSH1 0x40 DUP1 MLOAD DUP1 DUP3 ADD SWAP1 SWAP2 MSTORE PUSH1 0xE DUP2 MSTORE PUSH14 0x1A5B9D985B1A5908185B5BDD5B9D PUSH1 0x92 SHL PUSH1 0x20 DUP3 ADD MSTORE PUSH8 0x6F05B59D3B20000 DUP4 GT ISZERO PUSH2 0x1134 JUMPI PUSH1 0x40 MLOAD PUSH3 0x461BCD PUSH1 0xE5 SHL DUP2 MSTORE PUSH1 0x4 ADD PUSH2 0xAD2 SWAP2 SWAP1 PUSH2 0x599C JUMP JUMPDEST POP PUSH2 0x9CB PUSH9 0x416374696F6E466565 PUSH1 0xB8 SHL DUP4 PUSH2 0x417A JUMP JUMPDEST SWAP2 SWAP1 POP JUMP JUMPDEST PUSH1 0x40 MLOAD PUSH4 0x6547D4B PUSH1 0xE2 SHL DUP2 MSTORE CALLER PUSH1 0x4 DUP3 ADD MSTORE PUSH1 0x0 SWAP1 PUSH32 0x0 PUSH1 0x1 PUSH1 0x1 PUSH1 0xA0 SHL SUB AND SWAP1 PUSH4 0x1951F52C SWAP1 PUSH1 0x24 ADD PUSH1 0x20 PUSH1 0x40 MLOAD DUP1 DUP4 SUB DUP2 DUP7 DUP1 EXTCODESIZE ISZERO DUP1 ISZERO PUSH2 0x11B2 JUMPI PUSH1 0x0 DUP1 REVERT JUMPDEST POP GAS STATICCALL ISZERO DUP1 ISZERO PUSH2 0x11C6 JUMPI RETURNDATASIZE PUSH1 0x0 DUP1 RETURNDATACOPY RETURNDATASIZE PUSH1 0x0 REVERT JUMPDEST POP POP POP POP PUSH1 0x40 MLOAD RETURNDATASIZE PUSH1 0x1F NOT PUSH1 0x1F DUP3 ADD AND DUP3 ADD DUP1 PUSH1 0x40 MSTORE POP DUP2 ADD SWAP1 PUSH2 0x11EA SWAP2 SWAP1 PUSH2 0x5A0E JUMP JUMPDEST PUSH1 0x40 MLOAD DUP1 PUSH1 0x40 ADD PUSH1 0x40 MSTORE DUP1 PUSH1 0x1C DUP2 MSTORE PUSH1 0x20 ADD PUSH32 0x4E6F7420656E6F75676820424B4420746F6B656E73207374616B656400000000 DUP2 MSTORE POP SWAP1 PUSH2 0x123E JUMPI PUSH1 0x40 MLOAD PUSH3 0x461BCD PUSH1 0xE5 SHL DUP2 MSTORE PUSH1 0x4 ADD PUSH2 0xAD2 SWAP2 SWAP1 PUSH2 0x599C JUMP JUMPDEST POP PUSH2 0x1306 PUSH1 0x40 MLOAD DUP1 PUSH2 0x2E0 ADD PUSH1 0x40 MSTORE DUP1 PUSH1 0x0 DUP2 MSTORE PUSH1 0x20 ADD PUSH1 0x0 DUP2 MSTORE PUSH1 0x20 ADD PUSH1 0x0 DUP2 MSTORE PUSH1 0x20 ADD PUSH1 0x0 DUP2 MSTORE PUSH1 0x20 ADD PUSH1 0x0 DUP2 MSTORE PUSH1 0x20 ADD PUSH1 0x0 DUP2 MSTORE PUSH1 0x20 ADD PUSH1 0x0 DUP2 MSTORE PUSH1 0x20 ADD PUSH1 0x0 DUP2 MSTORE PUSH1 0x20 ADD PUSH1 0x0 DUP2 MSTORE PUSH1 0x20 ADD PUSH1 0x0 DUP2 MSTORE PUSH1 0x20 ADD PUSH1 0x0 PUSH1 0x1 PUSH1 0x1 PUSH1 0x80 SHL SUB AND DUP2 MSTORE PUSH1 0x20 ADD PUSH1 0x0 ISZERO ISZERO DUP2 MSTORE PUSH1 0x20 ADD PUSH1 0x60 DUP2 MSTORE PUSH1 0x20 ADD PUSH1 0x0 DUP2 MSTORE PUSH1 0x20 ADD PUSH1 0x0 DUP2 MSTORE PUSH1 0x20 ADD PUSH1 0x0 DUP2 MSTORE PUSH1 0x20 ADD PUSH1 0x0 DUP2 MSTORE PUSH1 0x20 ADD PUSH1 0x0 DUP2 MSTORE PUSH1 0x20 ADD PUSH1 0x0 DUP2 MSTORE PUSH1 0x20 ADD PUSH1 0x0 DUP2 MSTORE PUSH1 0x20 ADD PUSH1 0x0 DUP2 MSTORE PUSH1 0x20 ADD PUSH1 0x0 PUSH1 0x1 PUSH1 0x1 PUSH1 0xA0 SHL SUB AND DUP2 MSTORE PUSH1 0x20 ADD PUSH1 0x0 ISZERO ISZERO DUP2 MSTORE POP SWAP1 JUMP JUMPDEST GAS PUSH2 0x1C0 DUP3 ADD MSTORE PUSH1 0x1 PUSH1 0x1 PUSH1 0xA0 SHL SUB DUP1 DUP9 AND PUSH1 0x0 SWAP1 DUP2 MSTORE PUSH1 0xA PUSH1 0x20 SWAP1 DUP2 MSTORE PUSH1 0x40 DUP1 DUP4 KECCAK256 SWAP4 DUP11 AND DUP4 MSTORE SWAP3 DUP2 MSTORE DUP3 DUP3 KECCAK256 DUP8 DUP4 MSTORE DUP2 MSTORE SWAP1 DUP3 SWAP1 KECCAK256 DUP1 SLOAD DUP4 MLOAD DUP1 DUP6 ADD SWAP1 SWAP5 MSTORE PUSH1 0x12 DUP5 MSTORE PUSH18 0x6E6F20706F736974696F6E20657869737473 PUSH1 0x70 SHL SWAP3 DUP5 ADD SWAP3 SWAP1 SWAP3 MSTORE SWAP2 SWAP1 PUSH1 0x1 PUSH1 0x1 PUSH1 0x40 SHL SUB AND PUSH2 0x1390 JUMPI PUSH1 0x40 MLOAD PUSH3 0x461BCD PUSH1 0xE5 SHL DUP2 MSTORE PUSH1 0x4 ADD PUSH2 0xAD2 SWAP2 SWAP1 PUSH2 0x599C JUMP JUMPDEST POP PUSH1 0x3 DUP2 ADD SLOAD PUSH1 0x40 DUP1 MLOAD DUP1 DUP3 ADD SWAP1 SWAP2 MSTORE PUSH1 0x14 DUP2 MSTORE PUSH20 0x696E73756666696369656E742062616C616E6365 PUSH1 0x60 SHL PUSH1 0x20 DUP3 ADD MSTORE SWAP1 PUSH1 0x1 PUSH1 0x80 SHL SWAP1 DIV PUSH1 0x1 PUSH1 0x1 PUSH1 0x80 SHL SUB AND PUSH2 0x13EF JUMPI PUSH1 0x40 MLOAD PUSH3 0x461BCD PUSH1 0xE5 SHL DUP2 MSTORE PUSH1 0x4 ADD PUSH2 0xAD2 SWAP2 SWAP1 PUSH2 0x599C JUMP JUMPDEST POP PUSH1 0x0 PUSH2 0x13FD DUP7 PUSH1 0x1 PUSH2 0x3DF4 JUMP JUMPDEST PUSH1 0x40 MLOAD PUSH3 0xE8514D PUSH1 0xE5 SHL DUP2 MSTORE PUSH1 0x1 PUSH1 0x1 PUSH1 0xA0 SHL SUB DUP11 DUP2 AND PUSH1 0x4 DUP4 ADD MSTORE SWAP2 SWAP3 POP SWAP1 DUP3 AND SWAP1 PUSH4 0x1D0A29A0 SWAP1 PUSH1 0x24 ADD PUSH1 0x20 PUSH1 0x40 MLOAD DUP1 DUP4 SUB DUP2 DUP7 DUP1 EXTCODESIZE ISZERO DUP1 ISZERO PUSH2 0x1441 JUMPI PUSH1 0x0 DUP1 REVERT JUMPDEST POP GAS STATICCALL ISZERO DUP1 ISZERO PUSH2 0x1455 JUMPI RETURNDATASIZE PUSH1 0x0 DUP1 RETURNDATACOPY RETURNDATASIZE PUSH1 0x0 REVERT JUMPDEST POP POP POP POP PUSH1 0x40 MLOAD RETURNDATASIZE PUSH1 0x1F NOT PUSH1 0x1F DUP3 ADD AND DUP3 ADD DUP1 PUSH1 0x40 MSTORE POP DUP2 ADD SWAP1 PUSH2 0x1479 SWAP2 SWAP1 PUSH2 0x5A2B JUMP JUMPDEST PUSH1 0x80 DUP5 ADD DUP2 SWAP1 MSTORE DUP3 SLOAD PUSH1 0x40 DUP1 MLOAD DUP1 DUP3 ADD SWAP1 SWAP2 MSTORE PUSH1 0x16 DUP2 MSTORE PUSH22 0x1A5B9CDD59999A58DA595B9D081D1A1C995CDA1BDB19 PUSH1 0x52 SHL PUSH1 0x20 DUP3 ADD MSTORE SWAP2 PUSH1 0x1 PUSH1 0x1 PUSH1 0x40 SHL SUB SWAP1 SWAP2 AND GT PUSH2 0x14D9 JUMPI PUSH1 0x40 MLOAD PUSH3 0x461BCD PUSH1 0xE5 SHL DUP2 MSTORE PUSH1 0x4 ADD PUSH2 0xAD2 SWAP2 SWAP1 PUSH2 0x599C JUMP JUMPDEST POP PUSH1 0x0 PUSH2 0x150E PUSH32 0x0 PUSH1 0x1 PUSH1 0x1 PUSH1 0xA0 SHL SUB AND PUSH2 0x3FE9 JUMP JUMPDEST SWAP1 POP PUSH2 0x1518 PUSH2 0x95D JUMP JUMPDEST PUSH2 0x220 DUP6 ADD DUP2 SWAP1 MSTORE PUSH2 0x152B SWAP1 GASPRICE SWAP1 PUSH2 0x5A5A JUMP JUMPDEST PUSH2 0x240 DUP6 ADD MSTORE DUP3 SLOAD PUSH2 0x154D SWAP1 PUSH1 0x1 PUSH1 0x40 SHL SWAP1 DIV PUSH1 0x1 PUSH1 0x1 PUSH1 0x40 SHL SUB AND BASEFEE PUSH2 0x5A79 JUMP JUMPDEST PUSH2 0x200 DUP6 ADD DUP2 SWAP1 MSTORE GASPRICE LT ISZERO PUSH2 0x1564 JUMPI GASPRICE PUSH2 0x200 DUP6 ADD MSTORE JUMPDEST DUP3 SLOAD PUSH2 0x200 DUP6 ADD MLOAD PUSH1 0x1 PUSH1 0x80 SHL SWAP1 SWAP2 DIV PUSH1 0x1 PUSH1 0x1 PUSH1 0x40 SHL SUB AND LT ISZERO PUSH2 0x159C JUMPI DUP3 SLOAD PUSH1 0x1 PUSH1 0x80 SHL SWAP1 DIV PUSH1 0x1 PUSH1 0x1 PUSH1 0x40 SHL SUB AND PUSH2 0x200 DUP6 ADD MSTORE JUMPDEST DUP6 DUP5 PUSH2 0x200 ADD MLOAD DUP6 PUSH2 0x220 ADD MLOAD PUSH2 0x15B3 SWAP2 SWAP1 PUSH2 0x5A5A JUMP JUMPDEST PUSH2 0x15BD SWAP2 SWAP1 PUSH2 0x5A79 JUMP JUMPDEST DUP5 PUSH2 0x240 ADD MLOAD GT ISZERO PUSH1 0x40 MLOAD DUP1 PUSH1 0x60 ADD PUSH1 0x40 MSTORE DUP1 PUSH1 0x21 DUP2 MSTORE PUSH1 0x20 ADD PUSH2 0x5B7E PUSH1 0x21 SWAP2 CODECOPY SWAP1 PUSH2 0x15FC JUMPI PUSH1 0x40 MLOAD PUSH3 0x461BCD PUSH1 0xE5 SHL DUP2 MSTORE PUSH1 0x4 ADD PUSH2 0xAD2 SWAP2 SWAP1 PUSH2 0x599C JUMP JUMPDEST POP PUSH1 0x40 MLOAD PUSH4 0x70A08231 PUSH1 0xE0 SHL DUP2 MSTORE PUSH1 0x1 PUSH1 0x1 PUSH1 0xA0 SHL SUB DUP12 DUP2 AND PUSH1 0x4 DUP4 ADD MSTORE DUP3 AND SWAP1 PUSH4 0x70A08231 SWAP1 PUSH1 0x24 ADD PUSH1 0x20 PUSH1 0x40 MLOAD DUP1 DUP4 SUB DUP2 DUP7 DUP1 EXTCODESIZE ISZERO DUP1 ISZERO PUSH2 0x163E JUMPI PUSH1 0x0 DUP1 REVERT JUMPDEST POP GAS STATICCALL ISZERO DUP1 ISZERO PUSH2 0x1652 JUMPI RETURNDATASIZE PUSH1 0x0 DUP1 RETURNDATACOPY RETURNDATASIZE PUSH1 0x0 REVERT JUMPDEST POP POP POP POP PUSH1 0x40 MLOAD RETURNDATASIZE PUSH1 0x1F NOT PUSH1 0x1F DUP3 ADD AND DUP3 ADD DUP1 PUSH1 0x40 MSTORE POP DUP2 ADD SWAP1 PUSH2 0x1676 SWAP2 SWAP1 PUSH2 0x5A2B JUMP JUMPDEST PUSH2 0x1A0 DUP6 ADD DUP2 SWAP1 MSTORE PUSH2 0x240 DUP6 ADD MLOAD SWAP1 PUSH2 0x1690 SWAP1 DUP9 SWAP1 PUSH2 0x5A79 JUMP JUMPDEST LT ISZERO PUSH1 0x40 MLOAD DUP1 PUSH1 0x60 ADD PUSH1 0x40 MSTORE DUP1 PUSH1 0x27 DUP2 MSTORE PUSH1 0x20 ADD PUSH2 0x5B9F PUSH1 0x27 SWAP2 CODECOPY SWAP1 PUSH2 0x16C9 JUMPI PUSH1 0x40 MLOAD PUSH3 0x461BCD PUSH1 0xE5 SHL DUP2 MSTORE PUSH1 0x4 ADD PUSH2 0xAD2 SWAP2 SWAP1 PUSH2 0x599C JUMP JUMPDEST POP PUSH1 0x3 DUP4 ADD SLOAD PUSH1 0x1 PUSH1 0x80 SHL SWAP1 DIV PUSH1 0x1 PUSH1 0x1 PUSH1 0x80 SHL SUB AND PUSH2 0x140 DUP6 ADD MSTORE PUSH2 0x16ED PUSH2 0x3C7B JUMP JUMPDEST PUSH2 0x100 DUP6 ADD DUP2 SWAP1 MSTORE PUSH1 0x3 DUP5 ADD SLOAD PUSH1 0x1 PUSH1 0x1 PUSH1 0x80 SHL SUB AND DUP6 MSTORE PUSH2 0x1723 SWAP1 PUSH2 0x171B SWAP1 PUSH8 0xDE0B6B3A7640000 PUSH2 0x5A79 JUMP JUMPDEST DUP6 MLOAD SWAP1 PUSH2 0x418A JUMP JUMPDEST PUSH1 0x60 DUP6 ADD DUP2 SWAP1 MSTORE PUSH2 0x140 DUP6 ADD MLOAD PUSH1 0x1 PUSH1 0x1 PUSH1 0x80 SHL SUB AND LT ISZERO PUSH2 0x177D JUMPI PUSH2 0x140 DUP5 ADD MLOAD PUSH1 0x1 PUSH1 0x1 PUSH1 0x80 SHL SUB AND PUSH1 0x60 DUP6 ADD MSTORE PUSH2 0x100 DUP5 ADD MLOAD PUSH2 0x177A SWAP1 PUSH2 0x176F SWAP1 PUSH8 0xDE0B6B3A7640000 PUSH2 0x5A79 JUMP JUMPDEST PUSH1 0x60 DUP7 ADD MLOAD SWAP1 PUSH2 0x41A9 JUMP JUMPDEST DUP5 MSTORE JUMPDEST PUSH1 0x2 DUP4 ADD SLOAD PUSH1 0x40 MLOAD PUSH4 0x956FEF3 PUSH1 0xE2 SHL DUP2 MSTORE PUSH1 0x1 PUSH1 0x1 PUSH1 0xA0 SHL SUB SWAP2 DUP3 AND PUSH1 0x4 DUP3 ADD MSTORE PUSH1 0x0 SWAP2 PUSH32 0x0 AND SWAP1 PUSH4 0x255BFBCC SWAP1 PUSH1 0x24 ADD PUSH1 0x20 PUSH1 0x40 MLOAD DUP1 DUP4 SUB DUP2 DUP7 DUP1 EXTCODESIZE ISZERO DUP1 ISZERO PUSH2 0x17E6 JUMPI PUSH1 0x0 DUP1 REVERT JUMPDEST POP GAS STATICCALL ISZERO DUP1 ISZERO PUSH2 0x17FA JUMPI RETURNDATASIZE PUSH1 0x0 DUP1 RETURNDATACOPY RETURNDATASIZE PUSH1 0x0 REVERT JUMPDEST POP POP POP POP PUSH1 0x40 MLOAD RETURNDATASIZE PUSH1 0x1F NOT PUSH1 0x1F DUP3 ADD AND DUP3 ADD DUP1 PUSH1 0x40 MSTORE POP DUP2 ADD SWAP1 PUSH2 0x181E SWAP2 SWAP1 PUSH2 0x59CF JUMP JUMPDEST SWAP1 POP DUP1 PUSH1 0x1 PUSH1 0x1 PUSH1 0xA0 SHL SUB AND PUSH4 0x9816F473 PUSH1 0x40 MLOAD DUP2 PUSH4 0xFFFFFFFF AND PUSH1 0xE0 SHL DUP2 MSTORE PUSH1 0x4 ADD PUSH1 0x20 PUSH1 0x40 MLOAD DUP1 DUP4 SUB DUP2 DUP7 DUP1 EXTCODESIZE ISZERO DUP1 ISZERO PUSH2 0x1859 JUMPI PUSH1 0x0 DUP1 REVERT JUMPDEST POP GAS STATICCALL ISZERO DUP1 ISZERO PUSH2 0x186D JUMPI RETURNDATASIZE PUSH1 0x0 DUP1 RETURNDATACOPY RETURNDATASIZE PUSH1 0x0 REVERT JUMPDEST POP POP POP POP PUSH1 0x40 MLOAD RETURNDATASIZE PUSH1 0x1F NOT PUSH1 0x1F DUP3 ADD AND DUP3 ADD DUP1 PUSH1 0x40 MSTORE POP DUP2 ADD SWAP1 PUSH2 0x1891 SWAP2 SWAP1 PUSH2 0x59CF JUMP JUMPDEST DUP6 PUSH2 0x2A0 ADD SWAP1 PUSH1 0x1 PUSH1 0x1 PUSH1 0xA0 SHL SUB AND SWAP1 DUP2 PUSH1 0x1 PUSH1 0x1 PUSH1 0xA0 SHL SUB AND DUP2 MSTORE POP POP DUP1 PUSH1 0x1 PUSH1 0x1 PUSH1 0xA0 SHL SUB AND PUSH4 0x3BA0B9A9 PUSH1 0x40 MLOAD DUP2 PUSH4 0xFFFFFFFF AND PUSH1 0xE0 SHL DUP2 MSTORE PUSH1 0x4 ADD PUSH1 0x20 PUSH1 0x40 MLOAD DUP1 DUP4 SUB DUP2 DUP7 DUP1 EXTCODESIZE ISZERO DUP1 ISZERO PUSH2 0x18E8 JUMPI PUSH1 0x0 DUP1 REVERT JUMPDEST POP GAS STATICCALL ISZERO DUP1 ISZERO PUSH2 0x18FC JUMPI RETURNDATASIZE PUSH1 0x0 DUP1 RETURNDATACOPY RETURNDATASIZE PUSH1 0x0 REVERT JUMPDEST POP POP POP POP PUSH1 0x40 MLOAD RETURNDATASIZE PUSH1 0x1F NOT PUSH1 0x1F DUP3 ADD AND DUP3 ADD DUP1 PUSH1 0x40 MSTORE POP DUP2 ADD SWAP1 PUSH2 0x1920 SWAP2 SWAP1 PUSH2 0x5A2B JUMP JUMPDEST PUSH1 0xA0 DUP7 ADD MSTORE PUSH1 0x1 DUP5 ADD SLOAD PUSH2 0x2A0 DUP7 ADD MLOAD PUSH1 0x0 SWAP2 PUSH1 0x1 PUSH1 0x1 PUSH1 0xA0 SHL SUB SWAP2 DUP3 AND SWAP2 AND EQ PUSH2 0x1A08 JUMPI PUSH2 0x2A0 DUP7 ADD MLOAD PUSH1 0x1 DUP7 ADD SLOAD PUSH2 0x1963 SWAP2 SWAP1 PUSH1 0x1 PUSH1 0x1 PUSH1 0xA0 SHL SUB AND PUSH2 0x41BE JUMP JUMPDEST PUSH2 0x2A0 DUP8 ADD MLOAD PUSH1 0x1 DUP8 ADD SLOAD PUSH1 0x40 MLOAD PUSH4 0x1BCDC3F5 PUSH1 0xE1 SHL DUP2 MSTORE PUSH1 0x1 PUSH1 0x1 PUSH1 0xA0 SHL SUB SWAP3 DUP4 AND PUSH1 0x4 DUP3 ADD MSTORE SWAP1 DUP3 AND PUSH1 0x24 DUP3 ADD MSTORE SWAP2 SWAP3 POP PUSH2 0x1A02 SWAP2 SWAP1 DUP4 AND SWAP1 PUSH4 0x379B87EA SWAP1 PUSH1 0x44 ADD PUSH1 0x20 PUSH1 0x40 MLOAD DUP1 DUP4 SUB DUP2 DUP7 DUP1 EXTCODESIZE ISZERO DUP1 ISZERO PUSH2 0x19BF JUMPI PUSH1 0x0 DUP1 REVERT JUMPDEST POP GAS STATICCALL ISZERO DUP1 ISZERO PUSH2 0x19D3 JUMPI RETURNDATASIZE PUSH1 0x0 DUP1 RETURNDATACOPY RETURNDATASIZE PUSH1 0x0 REVERT JUMPDEST POP POP POP POP PUSH1 0x40 MLOAD RETURNDATASIZE PUSH1 0x1F NOT PUSH1 0x1F DUP3 ADD AND DUP3 ADD DUP1 PUSH1 0x40 MSTORE POP DUP2 ADD SWAP1 PUSH2 0x19F7 SWAP2 SWAP1 PUSH2 0x5A2B JUMP JUMPDEST PUSH1 0xA0 DUP9 ADD MLOAD SWAP1 PUSH2 0x418A JUMP JUMPDEST PUSH1 0xA0 DUP8 ADD MSTORE JUMPDEST PUSH1 0xA0 DUP7 ADD MLOAD PUSH1 0x60 DUP8 ADD MLOAD PUSH2 0x1A1B SWAP2 PUSH2 0x427C JUMP JUMPDEST PUSH1 0xC0 DUP8 ADD DUP2 SWAP1 MSTORE PUSH1 0x4 DUP7 ADD SLOAD PUSH1 0x1 PUSH1 0x1 PUSH1 0x80 SHL SUB AND LT ISZERO PUSH2 0x1A82 JUMPI PUSH1 0x4 DUP6 ADD SLOAD PUSH1 0x1 PUSH1 0x1 PUSH1 0x80 SHL SUB AND PUSH1 0xC0 DUP8 ADD MSTORE PUSH2 0x100 DUP7 ADD MLOAD PUSH2 0x1A61 SWAP1 PUSH8 0xDE0B6B3A7640000 PUSH2 0x5A79 JUMP JUMPDEST DUP7 PUSH1 0xA0 ADD MLOAD DUP8 PUSH1 0xC0 ADD MLOAD PUSH2 0x1A75 SWAP2 SWAP1 PUSH2 0x5A5A JUMP JUMPDEST PUSH2 0x1A7F SWAP2 SWAP1 PUSH2 0x5A91 JUMP JUMPDEST DUP7 MSTORE JUMPDEST PUSH1 0xA0 DUP7 ADD MLOAD DUP7 MLOAD PUSH2 0x1A92 SWAP2 PUSH2 0x427C JUMP JUMPDEST PUSH1 0xE0 DUP8 ADD DUP2 SWAP1 MSTORE PUSH1 0xC0 DUP8 ADD MLOAD PUSH2 0x1AA8 SWAP2 SWAP1 PUSH2 0x5AB3 JUMP JUMPDEST PUSH1 0x40 DUP8 DUP2 ADD SWAP2 SWAP1 SWAP2 MSTORE PUSH1 0x2 DUP7 ADD SLOAD SWAP1 MLOAD PUSH4 0x59EADEB PUSH1 0xE4 SHL DUP2 MSTORE PUSH1 0x1 PUSH1 0x1 PUSH1 0xA0 SHL SUB SWAP2 DUP3 AND PUSH1 0x4 DUP3 ADD MSTORE PUSH1 0x0 SWAP2 PUSH32 0x0 AND SWAP1 PUSH4 0x59EADEB0 SWAP1 PUSH1 0x24 ADD PUSH1 0x20 PUSH1 0x40 MLOAD DUP1 DUP4 SUB DUP2 DUP7 DUP1 EXTCODESIZE ISZERO DUP1 ISZERO PUSH2 0x1B19 JUMPI PUSH1 0x0 DUP1 REVERT JUMPDEST POP GAS STATICCALL ISZERO DUP1 ISZERO PUSH2 0x1B2D JUMPI RETURNDATASIZE PUSH1 0x0 DUP1 RETURNDATACOPY RETURNDATASIZE PUSH1 0x0 REVERT JUMPDEST POP POP POP POP PUSH1 0x40 MLOAD RETURNDATASIZE PUSH1 0x1F NOT PUSH1 0x1F DUP3 ADD AND DUP3 ADD DUP1 PUSH1 0x40 MSTORE POP DUP2 ADD SWAP1 PUSH2 0x1B51 SWAP2 SWAP1 PUSH2 0x59CF JUMP JUMPDEST PUSH1 0xC0 DUP9 ADD MLOAD PUSH1 0x40 MLOAD PUSH4 0x5C2FBCF PUSH1 0xE3 SHL DUP2 MSTORE SWAP2 SWAP3 POP PUSH1 0x1 PUSH1 0x1 PUSH1 0xA0 SHL SUB DUP4 AND SWAP2 PUSH4 0x2E17DE78 SWAP2 PUSH2 0x1B87 SWAP2 PUSH1 0x4 ADD SWAP1 DUP2 MSTORE PUSH1 0x20 ADD SWAP1 JUMP JUMPDEST PUSH1 0x20 PUSH1 0x40 MLOAD DUP1 DUP4 SUB DUP2 PUSH1 0x0 DUP8 DUP1 EXTCODESIZE ISZERO DUP1 ISZERO PUSH2 0x1BA1 JUMPI PUSH1 0x0 DUP1 REVERT JUMPDEST POP GAS CALL ISZERO DUP1 ISZERO PUSH2 0x1BB5 JUMPI RETURNDATASIZE PUSH1 0x0 DUP1 RETURNDATACOPY RETURNDATASIZE PUSH1 0x0 REVERT JUMPDEST POP POP POP POP PUSH1 0x40 MLOAD RETURNDATASIZE PUSH1 0x1F NOT PUSH1 0x1F DUP3 ADD AND DUP3 ADD DUP1 PUSH1 0x40 MSTORE POP DUP2 ADD SWAP1 PUSH2 0x1BD9 SWAP2 SWAP1 PUSH2 0x5A0E JUMP JUMPDEST POP PUSH1 0xC0 DUP8 ADD MLOAD PUSH1 0x40 MLOAD PUSH4 0x6A278CD9 PUSH1 0xE0 SHL DUP2 MSTORE PUSH1 0x1 PUSH1 0x1 PUSH1 0xA0 SHL SUB DUP16 DUP2 AND PUSH1 0x4 DUP4 ADD MSTORE PUSH1 0x24 DUP3 ADD SWAP3 SWAP1 SWAP3 MSTORE SWAP1 DUP3 AND SWAP1 PUSH4 0x6A278CD9 SWAP1 PUSH1 0x44 ADD PUSH1 0x20 PUSH1 0x40 MLOAD DUP1 DUP4 SUB DUP2 PUSH1 0x0 DUP8 DUP1 EXTCODESIZE ISZERO DUP1 ISZERO PUSH2 0x1C2B JUMPI PUSH1 0x0 DUP1 REVERT JUMPDEST POP GAS CALL ISZERO DUP1 ISZERO PUSH2 0x1C3F JUMPI RETURNDATASIZE PUSH1 0x0 DUP1 RETURNDATACOPY RETURNDATASIZE PUSH1 0x0 REVERT JUMPDEST POP POP POP POP PUSH1 0x40 MLOAD RETURNDATASIZE PUSH1 0x1F NOT PUSH1 0x1F DUP3 ADD AND DUP3 ADD DUP1 PUSH1 0x40 MSTORE POP DUP2 ADD SWAP1 PUSH2 0x1C63 SWAP2 SWAP1 PUSH2 0x5A0E JUMP JUMPDEST POP PUSH1 0xE0 DUP8 ADD MLOAD PUSH1 0x40 MLOAD PUSH4 0xDB006A75 PUSH1 0xE0 SHL DUP2 MSTORE PUSH1 0x4 DUP2 ADD SWAP2 SWAP1 SWAP2 MSTORE PUSH1 0x1 PUSH1 0x1 PUSH1 0xA0 SHL SUB DUP5 AND SWAP1 PUSH4 0xDB006A75 SWAP1 PUSH1 0x24 ADD PUSH1 0x20 PUSH1 0x40 MLOAD DUP1 DUP4 SUB DUP2 PUSH1 0x0 DUP8 DUP1 EXTCODESIZE ISZERO DUP1 ISZERO PUSH2 0x1CAC JUMPI PUSH1 0x0 DUP1 REVERT JUMPDEST POP GAS CALL ISZERO DUP1 ISZERO PUSH2 0x1CC0 JUMPI RETURNDATASIZE PUSH1 0x0 DUP1 RETURNDATACOPY RETURNDATASIZE PUSH1 0x0 REVERT JUMPDEST POP POP POP POP PUSH1 0x40 MLOAD RETURNDATASIZE PUSH1 0x1F NOT PUSH1 0x1F DUP3 ADD AND DUP3 ADD DUP1 PUSH1 0x40 MSTORE POP DUP2 ADD SWAP1 PUSH2 0x1CE4 SWAP2 SWAP1 PUSH2 0x5A2B JUMP JUMPDEST PUSH1 0x20 DUP9 ADD MSTORE PUSH1 0x1 PUSH1 0x1 PUSH1 0xA0 SHL SUB DUP3 AND ISZERO PUSH2 0x1DC6 JUMPI PUSH2 0x1D0B PUSH2 0x1D03 PUSH2 0x91A JUMP JUMPDEST DUP9 MLOAD SWAP1 PUSH2 0x418A JUMP JUMPDEST DUP8 MSTORE PUSH2 0x2A0 DUP8 ADD MLOAD PUSH2 0x1D1D SWAP1 DUP4 PUSH2 0x42A8 JUMP JUMPDEST PUSH2 0x2A0 DUP8 ADD MLOAD PUSH1 0x1 DUP8 ADD SLOAD PUSH1 0x20 DUP10 ADD MLOAD DUP10 MLOAD PUSH1 0x40 MLOAD PUSH4 0x7F0148AB PUSH1 0xE1 SHL DUP2 MSTORE PUSH1 0x1 PUSH1 0x1 PUSH1 0xA0 SHL SUB SWAP5 DUP6 AND PUSH1 0x4 DUP3 ADD MSTORE SWAP3 DUP5 AND PUSH1 0x24 DUP5 ADD MSTORE PUSH1 0x44 DUP4 ADD SWAP2 SWAP1 SWAP2 MSTORE PUSH1 0x64 DUP3 ADD MSTORE SWAP1 DUP4 AND SWAP1 PUSH4 0xFE029156 SWAP1 PUSH1 0x84 ADD PUSH1 0x20 PUSH1 0x40 MLOAD DUP1 DUP4 SUB DUP2 PUSH1 0x0 DUP8 DUP1 EXTCODESIZE ISZERO DUP1 ISZERO PUSH2 0x1D88 JUMPI PUSH1 0x0 DUP1 REVERT JUMPDEST POP GAS CALL ISZERO DUP1 ISZERO PUSH2 0x1D9C JUMPI RETURNDATASIZE PUSH1 0x0 DUP1 RETURNDATACOPY RETURNDATASIZE PUSH1 0x0 REVERT JUMPDEST POP POP POP POP PUSH1 0x40 MLOAD RETURNDATASIZE PUSH1 0x1F NOT PUSH1 0x1F DUP3 ADD AND DUP3 ADD DUP1 PUSH1 0x40 MSTORE POP DUP2 ADD SWAP1 PUSH2 0x1DC0 SWAP2 SWAP1 PUSH2 0x5A2B JUMP JUMPDEST PUSH1 0x20 DUP9 ADD MSTORE JUMPDEST PUSH1 0xA0 DUP8 ADD MLOAD PUSH1 0x40 DUP9 ADD MLOAD PUSH2 0x1DD9 SWAP2 PUSH2 0x418A JUMP JUMPDEST DUP8 PUSH1 0x20 ADD MLOAD PUSH2 0x1DE8 SWAP2 SWAP1 PUSH2 0x5A79 JUMP JUMPDEST DUP8 PUSH2 0x120 ADD DUP2 DUP2 MSTORE POP POP DUP5 PUSH1 0x1 PUSH1 0x1 PUSH1 0xA0 SHL SUB AND DUP13 DUP8 PUSH1 0x1 ADD PUSH1 0x0 SWAP1 SLOAD SWAP1 PUSH2 0x100 EXP SWAP1 DIV PUSH1 0x1 PUSH1 0x1 PUSH1 0xA0 SHL SUB AND DUP10 PUSH1 0x20 ADD MLOAD DUP10 PUSH1 0x4 ADD PUSH1 0x10 SWAP1 SLOAD SWAP1 PUSH2 0x100 EXP SWAP1 DIV PUSH1 0xFF AND PUSH1 0x40 MLOAD PUSH1 0x24 ADD PUSH2 0x1E63 SWAP5 SWAP4 SWAP3 SWAP2 SWAP1 PUSH1 0x1 PUSH1 0x1 PUSH1 0xA0 SHL SUB SWAP5 DUP6 AND DUP2 MSTORE SWAP3 SWAP1 SWAP4 AND PUSH1 0x20 DUP4 ADD MSTORE PUSH1 0x40 DUP3 ADD MSTORE SWAP1 ISZERO ISZERO PUSH1 0x60 DUP3 ADD MSTORE PUSH1 0x80 ADD SWAP1 JUMP JUMPDEST PUSH1 0x40 DUP1 MLOAD PUSH1 0x1F NOT DUP2 DUP5 SUB ADD DUP2 MSTORE SWAP2 DUP2 MSTORE PUSH1 0x20 DUP3 ADD DUP1 MLOAD PUSH1 0x1 PUSH1 0x1 PUSH1 0xE0 SHL SUB AND PUSH4 0x3389D7DB PUSH1 0xE2 SHL OR SWAP1 MSTORE MLOAD PUSH2 0x1E98 SWAP2 SWAP1 PUSH2 0x5ACA JUMP JUMPDEST PUSH1 0x0 PUSH1 0x40 MLOAD DUP1 DUP4 SUB DUP2 DUP6 GAS DELEGATECALL SWAP2 POP POP RETURNDATASIZE DUP1 PUSH1 0x0 DUP2 EQ PUSH2 0x1ED3 JUMPI PUSH1 0x40 MLOAD SWAP2 POP PUSH1 0x1F NOT PUSH1 0x3F RETURNDATASIZE ADD AND DUP3 ADD PUSH1 0x40 MSTORE RETURNDATASIZE DUP3 MSTORE RETURNDATASIZE PUSH1 0x0 PUSH1 0x20 DUP5 ADD RETURNDATACOPY PUSH2 0x1ED8 JUMP JUMPDEST PUSH1 0x60 SWAP2 POP JUMPDEST POP PUSH2 0x180 DUP10 ADD MSTORE ISZERO DUP1 ISZERO PUSH2 0x160 DUP10 ADD DUP2 SWAP1 MSTORE SWAP1 PUSH2 0x1F09 JUMPI POP DUP7 PUSH2 0x180 ADD MLOAD DUP1 PUSH1 0x20 ADD SWAP1 MLOAD DUP2 ADD SWAP1 PUSH2 0x1F09 SWAP2 SWAP1 PUSH2 0x5A0E JUMP JUMPDEST PUSH1 0x40 MLOAD DUP1 PUSH1 0x40 ADD PUSH1 0x40 MSTORE DUP1 PUSH1 0xD DUP2 MSTORE PUSH1 0x20 ADD PUSH13 0x1D1BDC081D5C0819985A5B1959 PUSH1 0x9A SHL DUP2 MSTORE POP SWAP1 PUSH2 0x1F4D JUMPI PUSH1 0x40 MLOAD PUSH3 0x461BCD PUSH1 0xE5 SHL DUP2 MSTORE PUSH1 0x4 ADD PUSH2 0xAD2 SWAP2 SWAP1 PUSH2 0x599C JUMP JUMPDEST POP DUP7 PUSH2 0x120 ADD MLOAD DUP8 PUSH2 0x140 ADD MLOAD PUSH1 0x1 PUSH1 0x1 PUSH1 0x80 SHL SUB AND GT ISZERO PUSH2 0x1FBC JUMPI PUSH2 0x120 DUP8 ADD MLOAD PUSH1 0x3 DUP8 ADD DUP1 SLOAD PUSH1 0x10 SWAP1 PUSH2 0x1F93 SWAP1 DUP5 SWAP1 PUSH1 0x1 PUSH1 0x80 SHL SWAP1 DIV PUSH1 0x1 PUSH1 0x1 PUSH1 0x80 SHL SUB AND PUSH2 0x5AE6 JUMP JUMPDEST SWAP3 POP PUSH2 0x100 EXP DUP2 SLOAD DUP2 PUSH1 0x1 PUSH1 0x1 PUSH1 0x80 SHL SUB MUL NOT AND SWAP1 DUP4 PUSH1 0x1 PUSH1 0x1 PUSH1 0x80 SHL SUB AND MUL OR SWAP1 SSTORE POP PUSH2 0x1FCE JUMP JUMPDEST PUSH1 0x3 DUP7 ADD DUP1 SLOAD PUSH1 0x1 PUSH1 0x1 PUSH1 0x80 SHL SUB AND SWAP1 SSTORE JUMPDEST PUSH1 0xC0 DUP8 ADD MLOAD PUSH1 0x4 DUP8 ADD DUP1 SLOAD PUSH1 0x0 SWAP1 PUSH2 0x1FF0 SWAP1 DUP5 SWAP1 PUSH1 0x1 PUSH1 0x1 PUSH1 0x80 SHL SUB AND PUSH2 0x5AE6 JUMP JUMPDEST SWAP3 POP PUSH2 0x100 EXP DUP2 SLOAD DUP2 PUSH1 0x1 PUSH1 0x1 PUSH1 0x80 SHL SUB MUL NOT AND SWAP1 DUP4 PUSH1 0x1 PUSH1 0x1 PUSH1 0x80 SHL SUB AND MUL OR SWAP1 SSTORE POP DUP6 PUSH1 0x3 ADD PUSH1 0x10 SWAP1 SLOAD SWAP1 PUSH2 0x100 EXP SWAP1 DIV PUSH1 0x1 PUSH1 0x1 PUSH1 0x80 SHL SUB AND PUSH1 0x1 PUSH1 0x1 PUSH1 0x80 SHL SUB AND PUSH1 0x0 EQ DUP1 PUSH2 0x204E JUMPI POP PUSH1 0x4 DUP7 ADD SLOAD PUSH1 0x1 PUSH1 0x1 PUSH1 0x80 SHL SUB AND ISZERO JUMPDEST ISZERO ISZERO PUSH2 0x2C0 DUP9 ADD MSTORE PUSH1 0x40 DUP8 ADD MLOAD PUSH1 0x2 DUP8 ADD SLOAD PUSH2 0x2077 SWAP2 DUP16 SWAP2 DUP15 SWAP2 SWAP1 PUSH1 0x1 PUSH1 0x1 PUSH1 0xA0 SHL SUB AND PUSH2 0x434F JUMP JUMPDEST DUP7 PUSH2 0x2C0 ADD MLOAD ISZERO PUSH2 0x21D1 JUMPI PUSH1 0x4 DUP7 ADD SLOAD PUSH1 0x1 PUSH1 0x1 PUSH1 0x80 SHL SUB AND ISZERO PUSH2 0x21C6 JUMPI DUP1 PUSH1 0x1 PUSH1 0x1 PUSH1 0xA0 SHL SUB AND PUSH4 0xA9059CBB DUP15 DUP9 PUSH1 0x4 ADD PUSH1 0x0 SWAP1 SLOAD SWAP1 PUSH2 0x100 EXP SWAP1 DIV PUSH1 0x1 PUSH1 0x1 PUSH1 0x80 SHL SUB AND PUSH1 0x40 MLOAD DUP4 PUSH4 0xFFFFFFFF AND PUSH1 0xE0 SHL DUP2 MSTORE PUSH1 0x4 ADD PUSH2 0x20DA SWAP3 SWAP2 SWAP1 PUSH2 0x59EC JUMP JUMPDEST PUSH1 0x20 PUSH1 0x40 MLOAD DUP1 DUP4 SUB DUP2 PUSH1 0x0 DUP8 DUP1 EXTCODESIZE ISZERO DUP1 ISZERO PUSH2 0x20F4 JUMPI PUSH1 0x0 DUP1 REVERT JUMPDEST POP GAS CALL ISZERO DUP1 ISZERO PUSH2 0x2108 JUMPI RETURNDATASIZE PUSH1 0x0 DUP1 RETURNDATACOPY RETURNDATASIZE PUSH1 0x0 REVERT JUMPDEST POP POP POP POP PUSH1 0x40 MLOAD RETURNDATASIZE PUSH1 0x1F NOT PUSH1 0x1F DUP3 ADD AND DUP3 ADD DUP1 PUSH1 0x40 MSTORE POP DUP2 ADD SWAP1 PUSH2 0x212C SWAP2 SWAP1 PUSH2 0x5A0E JUMP JUMPDEST POP DUP1 PUSH1 0x1 PUSH1 0x1 PUSH1 0xA0 SHL SUB AND PUSH4 0x6A278CD9 DUP15 DUP9 PUSH1 0x4 ADD PUSH1 0x0 SWAP1 SLOAD SWAP1 PUSH2 0x100 EXP SWAP1 DIV PUSH1 0x1 PUSH1 0x1 PUSH1 0x80 SHL SUB AND PUSH1 0x40 MLOAD DUP4 PUSH4 0xFFFFFFFF AND PUSH1 0xE0 SHL DUP2 MSTORE PUSH1 0x4 ADD PUSH2 0x2172 SWAP3 SWAP2 SWAP1 PUSH2 0x59EC JUMP JUMPDEST PUSH1 0x20 PUSH1 0x40 MLOAD DUP1 DUP4 SUB DUP2 PUSH1 0x0 DUP8 DUP1 EXTCODESIZE ISZERO DUP1 ISZERO PUSH2 0x218C JUMPI PUSH1 0x0 DUP1 REVERT JUMPDEST POP GAS CALL ISZERO DUP1 ISZERO PUSH2 0x21A0 JUMPI RETURNDATASIZE PUSH1 0x0 DUP1 RETURNDATACOPY RETURNDATASIZE PUSH1 0x0 REVERT JUMPDEST POP POP POP POP PUSH1 0x40 MLOAD RETURNDATASIZE PUSH1 0x1F NOT PUSH1 0x1F DUP3 ADD AND DUP3 ADD DUP1 PUSH1 0x40 MSTORE POP DUP2 ADD SWAP1 PUSH2 0x21C4 SWAP2 SWAP1 PUSH2 0x5A0E JUMP JUMPDEST POP JUMPDEST PUSH2 0x21D1 DUP14 DUP14 DUP13 PUSH2 0x3EEE JUMP JUMPDEST PUSH1 0x2 DUP7 ADD SLOAD PUSH1 0xC0 DUP9 ADD MLOAD PUSH1 0x1 DUP9 ADD SLOAD PUSH1 0x20 DUP1 DUP12 ADD MLOAD PUSH1 0x40 DUP1 MLOAD PUSH1 0x1 PUSH1 0x1 PUSH1 0xA0 SHL SUB SWAP7 DUP8 AND DUP2 MSTORE SWAP3 DUP4 ADD SWAP5 SWAP1 SWAP5 MSTORE SWAP2 DUP5 AND SWAP3 DUP2 ADD SWAP3 SWAP1 SWAP3 MSTORE PUSH1 0x60 DUP3 ADD MSTORE DUP2 DUP16 AND SWAP2 DUP13 SWAP2 SWAP1 DUP16 AND SWAP1 PUSH32 0x1CC2B485C79A887AAF9BE5A861A7AF2897533D6B38181D27EBD47ED6A660F242 SWAP1 PUSH1 0x80 ADD PUSH1 0x40 MLOAD DUP1 SWAP2 SUB SWAP1 LOG4 GAS DUP8 PUSH2 0x1C0 ADD MLOAD PUSH2 0x2255 SWAP2 SWAP1 PUSH2 0x5AB3 JUMP JUMPDEST PUSH2 0x1E0 DUP9 ADD DUP2 SWAP1 MSTORE PUSH2 0x200 DUP9 ADD MLOAD PUSH2 0x226D SWAP2 SWAP1 PUSH2 0x5A5A JUMP JUMPDEST PUSH2 0x280 DUP9 ADD DUP2 SWAP1 MSTORE PUSH2 0x1A0 DUP9 ADD MLOAD LT ISZERO PUSH2 0x228E JUMPI PUSH2 0x1A0 DUP8 ADD MLOAD PUSH2 0x280 DUP9 ADD MSTORE JUMPDEST PUSH2 0x1E0 DUP8 ADD MLOAD PUSH2 0x229E SWAP1 GASPRICE PUSH2 0x5A5A JUMP JUMPDEST PUSH2 0x260 DUP9 ADD DUP2 SWAP1 MSTORE PUSH2 0x280 DUP9 ADD MLOAD PUSH2 0x22B7 SWAP1 DUP12 SWAP1 PUSH2 0x5A79 JUMP JUMPDEST LT ISZERO PUSH1 0x40 MLOAD DUP1 PUSH1 0x40 ADD PUSH1 0x40 MSTORE DUP1 PUSH1 0x19 DUP2 MSTORE PUSH1 0x20 ADD PUSH32 0x746F6F206D75636820455448207573656420666F722067617300000000000000 DUP2 MSTORE POP SWAP1 PUSH2 0x230D JUMPI PUSH1 0x40 MLOAD PUSH3 0x461BCD PUSH1 0xE5 SHL DUP2 MSTORE PUSH1 0x4 ADD PUSH2 0xAD2 SWAP2 SWAP1 PUSH2 0x599C JUMP JUMPDEST POP PUSH2 0x280 DUP8 ADD MLOAD PUSH1 0x40 MLOAD PUSH4 0x4AAAD4A1 PUSH1 0xE1 SHL DUP2 MSTORE PUSH1 0x1 PUSH1 0x1 PUSH1 0xA0 SHL SUB DUP16 DUP2 AND PUSH1 0x4 DUP4 ADD MSTORE CALLER PUSH1 0x24 DUP4 ADD MSTORE PUSH1 0x44 DUP3 ADD SWAP3 SWAP1 SWAP3 MSTORE SWAP1 DUP6 AND SWAP1 PUSH4 0x9555A942 SWAP1 PUSH1 0x64 ADD PUSH1 0x0 PUSH1 0x40 MLOAD DUP1 DUP4 SUB DUP2 PUSH1 0x0 DUP8 DUP1 EXTCODESIZE ISZERO DUP1 ISZERO PUSH2 0x2366 JUMPI PUSH1 0x0 DUP1 REVERT JUMPDEST POP GAS CALL ISZERO DUP1 ISZERO PUSH2 0x237A JUMPI RETURNDATASIZE PUSH1 0x0 DUP1 RETURNDATACOPY RETURNDATASIZE PUSH1 0x0 REVERT JUMPDEST POP POP POP POP DUP7 PUSH2 0x2C0 ADD MLOAD ISZERO PUSH2 0x23E5 JUMPI PUSH1 0x40 MLOAD PUSH4 0x35272C25 PUSH1 0xE2 SHL DUP2 MSTORE PUSH1 0x1 PUSH1 0x1 PUSH1 0xA0 SHL SUB DUP15 DUP2 AND PUSH1 0x4 DUP4 ADD MSTORE DUP6 AND SWAP1 PUSH4 0xD49CB094 SWAP1 PUSH1 0x24 ADD PUSH1 0x0 PUSH1 0x40 MLOAD DUP1 DUP4 SUB DUP2 PUSH1 0x0 DUP8 DUP1 EXTCODESIZE ISZERO DUP1 ISZERO PUSH2 0x23CC JUMPI PUSH1 0x0 DUP1 REVERT JUMPDEST POP GAS CALL ISZERO DUP1 ISZERO PUSH2 0x23E0 JUMPI RETURNDATASIZE PUSH1 0x0 DUP1 RETURNDATACOPY RETURNDATASIZE PUSH1 0x0 REVERT JUMPDEST POP POP POP POP JUMPDEST POP PUSH1 0x1 SWAP13 SWAP12 POP POP POP POP POP POP POP POP POP POP POP POP JUMP JUMPDEST PUSH1 0x60 PUSH1 0x0 PUSH2 0x2406 PUSH1 0x8 PUSH2 0x4401 JUMP JUMPDEST SWAP1 POP PUSH1 0x0 DUP2 PUSH1 0x1 PUSH1 0x1 PUSH1 0x40 SHL SUB DUP2 GT ISZERO PUSH2 0x2422 JUMPI PUSH2 0x2422 PUSH2 0x5810 JUMP JUMPDEST PUSH1 0x40 MLOAD SWAP1 DUP1 DUP3 MSTORE DUP1 PUSH1 0x20 MUL PUSH1 0x20 ADD DUP3 ADD PUSH1 0x40 MSTORE DUP1 ISZERO PUSH2 0x244B JUMPI DUP2 PUSH1 0x20 ADD PUSH1 0x20 DUP3 MUL DUP1 CALLDATASIZE DUP4 CALLDATACOPY ADD SWAP1 POP JUMPDEST POP SWAP1 POP PUSH1 0x0 JUMPDEST DUP3 DUP2 LT ISZERO PUSH2 0x2493 JUMPI PUSH2 0x2464 PUSH1 0x8 DUP3 PUSH2 0x440B JUMP JUMPDEST DUP3 DUP3 DUP2 MLOAD DUP2 LT PUSH2 0x2476 JUMPI PUSH2 0x2476 PUSH2 0x5B0E JUMP JUMPDEST PUSH1 0x20 SWAP1 DUP2 MUL SWAP2 SWAP1 SWAP2 ADD ADD MSTORE DUP1 PUSH2 0x248B DUP2 PUSH2 0x5B24 JUMP JUMPDEST SWAP2 POP POP PUSH2 0x2451 JUMP JUMPDEST POP SWAP3 SWAP2 POP POP JUMP JUMPDEST PUSH1 0x0 PUSH2 0x915 PUSH9 0x416374696F6E466565 PUSH1 0xB8 SHL PUSH2 0x3DD0 JUMP JUMPDEST PUSH1 0x0 PUSH32 0x0 PUSH1 0x40 MLOAD PUSH4 0x24745215 PUSH1 0xE2 SHL DUP2 MSTORE PUSH10 0x676F7665726E616E6365 PUSH1 0xB0 SHL PUSH1 0x4 DUP3 ADD MSTORE CALLER PUSH1 0x24 DUP3 ADD MSTORE PUSH1 0x1 PUSH1 0x1 PUSH1 0xA0 SHL SUB SWAP2 SWAP1 SWAP2 AND SWAP1 PUSH4 0x91D14854 SWAP1 PUSH1 0x44 ADD PUSH1 0x20 PUSH1 0x40 MLOAD DUP1 DUP4 SUB DUP2 DUP7 DUP1 EXTCODESIZE ISZERO DUP1 ISZERO PUSH2 0x2528 JUMPI PUSH1 0x0 DUP1 REVERT JUMPDEST POP GAS STATICCALL ISZERO DUP1 ISZERO PUSH2 0x253C JUMPI RETURNDATASIZE PUSH1 0x0 DUP1 RETURNDATACOPY RETURNDATASIZE PUSH1 0x0 REVERT JUMPDEST POP POP POP POP PUSH1 0x40 MLOAD RETURNDATASIZE PUSH1 0x1F NOT PUSH1 0x1F DUP3 ADD AND DUP3 ADD DUP1 PUSH1 0x40 MSTORE POP DUP2 ADD SWAP1 PUSH2 0x2560 SWAP2 SWAP1 PUSH2 0x5A0E JUMP JUMPDEST PUSH1 0x40 MLOAD DUP1 PUSH1 0x40 ADD PUSH1 0x40 MSTORE DUP1 PUSH1 0x13 DUP2 MSTORE PUSH1 0x20 ADD PUSH1 0x0 DUP1 MLOAD PUSH1 0x20 PUSH2 0x5BC6 DUP4 CODECOPY DUP2 MLOAD SWAP2 MSTORE DUP2 MSTORE POP SWAP1 PUSH2 0x25A2 JUMPI PUSH1 0x40 MLOAD PUSH3 0x461BCD PUSH1 0xE5 SHL DUP2 MSTORE PUSH1 0x4 ADD PUSH2 0xAD2 SWAP2 SWAP1 PUSH2 0x599C JUMP JUMPDEST POP PUSH2 0xDF1 PUSH2 0x25AF DUP5 PUSH2 0x40D3 JUMP JUMPDEST DUP4 PUSH2 0x4417 JUMP JUMPDEST PUSH1 0x1 PUSH1 0x1 PUSH1 0xA0 SHL SUB DUP2 AND PUSH1 0x0 SWAP1 DUP2 MSTORE PUSH1 0xB PUSH1 0x20 SWAP1 DUP2 MSTORE PUSH1 0x40 DUP1 DUP4 KECCAK256 DUP1 SLOAD DUP3 MLOAD DUP2 DUP6 MUL DUP2 ADD DUP6 ADD SWAP1 SWAP4 MSTORE DUP1 DUP4 MSTORE DUP5 SWAP4 DUP5 SWAP4 SWAP3 SWAP2 SWAP1 DUP5 SWAP1 DUP5 ADD JUMPDEST DUP3 DUP3 LT ISZERO PUSH2 0x2635 JUMPI PUSH1 0x0 DUP5 DUP2 MSTORE PUSH1 0x20 SWAP1 DUP2 SWAP1 KECCAK256 PUSH1 0x40 DUP1 MLOAD DUP1 DUP3 ADD SWAP1 SWAP2 MSTORE PUSH1 0x2 DUP6 MUL SWAP1 SWAP2 ADD DUP1 SLOAD PUSH1 0x1 PUSH1 0x1 PUSH1 0xA0 SHL SUB AND DUP3 MSTORE PUSH1 0x1 SWAP1 DUP2 ADD SLOAD DUP3 DUP5 ADD MSTORE SWAP1 DUP4 MSTORE SWAP1 SWAP3 ADD SWAP2 ADD PUSH2 0x25ED JUMP JUMPDEST POP POP POP POP SWAP1 POP PUSH1 0x0 PUSH2 0x2645 PUSH2 0x95D JUMP JUMPDEST DUP3 MLOAD SWAP1 SWAP2 POP PUSH1 0x0 JUMPDEST DUP2 DUP2 LT ISZERO PUSH2 0x278F JUMPI PUSH1 0x0 DUP5 DUP3 DUP2 MLOAD DUP2 LT PUSH2 0x2669 JUMPI PUSH2 0x2669 PUSH2 0x5B0E JUMP JUMPDEST PUSH1 0x20 SWAP1 DUP2 MUL SWAP2 SWAP1 SWAP2 ADD DUP2 ADD MLOAD PUSH1 0x1 PUSH1 0x1 PUSH1 0xA0 SHL SUB DUP11 DUP2 AND PUSH1 0x0 SWAP1 DUP2 MSTORE PUSH1 0xA DUP5 MSTORE PUSH1 0x40 DUP1 DUP3 KECCAK256 DUP5 MLOAD DUP5 AND DUP4 MSTORE DUP6 MSTORE DUP1 DUP3 KECCAK256 DUP5 DUP7 ADD MLOAD DUP4 MSTORE DUP6 MSTORE DUP1 DUP3 KECCAK256 DUP2 MLOAD PUSH2 0x120 DUP2 ADD DUP4 MSTORE DUP2 SLOAD PUSH1 0x1 PUSH1 0x1 PUSH1 0x40 SHL SUB DUP1 DUP3 AND DUP4 MSTORE PUSH1 0x1 PUSH1 0x40 SHL DUP3 DIV DUP2 AND SWAP9 DUP4 ADD SWAP9 SWAP1 SWAP9 MSTORE PUSH1 0x1 PUSH1 0x80 SHL SWAP1 DUP2 SWAP1 DIV SWAP1 SWAP8 AND SWAP3 DUP2 ADD SWAP3 SWAP1 SWAP3 MSTORE PUSH1 0x1 DUP2 ADD SLOAD DUP5 AND PUSH1 0x60 DUP4 ADD MSTORE PUSH1 0x2 DUP2 ADD SLOAD SWAP1 SWAP4 AND PUSH1 0x80 DUP3 ADD MSTORE PUSH1 0x3 DUP4 ADD SLOAD PUSH1 0x1 PUSH1 0x1 PUSH1 0x80 SHL SUB DUP1 DUP3 AND PUSH1 0xA0 DUP5 ADD DUP2 SWAP1 MSTORE SWAP2 DUP8 SWAP1 DIV DUP2 AND PUSH1 0xC0 DUP5 ADD DUP2 SWAP1 MSTORE PUSH1 0x4 SWAP1 SWAP6 ADD SLOAD SWAP1 DUP2 AND PUSH1 0xE0 DUP5 ADD MSTORE SWAP6 SWAP1 SWAP6 DIV PUSH1 0xFF AND ISZERO ISZERO PUSH2 0x100 DUP3 ADD MSTORE SWAP3 SWAP5 POP SWAP2 SWAP3 PUSH2 0x2748 SWAP2 SWAP1 PUSH2 0x4427 JUMP JUMPDEST PUSH1 0x40 DUP4 ADD MLOAD SWAP1 SWAP2 POP PUSH1 0x1 PUSH1 0x1 PUSH1 0x40 SHL SUB AND PUSH2 0x2763 DUP8 DUP4 PUSH2 0x5A5A JUMP JUMPDEST PUSH2 0x276D SWAP2 SWAP1 PUSH2 0x5A5A JUMP JUMPDEST PUSH2 0x2777 SWAP1 DUP10 PUSH2 0x5A79 JUMP JUMPDEST SWAP8 POP POP POP POP DUP1 DUP1 PUSH2 0x2787 SWAP1 PUSH2 0x5B24 JUMP JUMPDEST SWAP2 POP POP PUSH2 0x264D JUMP JUMPDEST POP SWAP3 SWAP6 SWAP5 POP POP POP POP POP JUMP JUMPDEST PUSH1 0x0 PUSH32 0x0 PUSH1 0x40 MLOAD PUSH4 0x24745215 PUSH1 0xE2 SHL DUP2 MSTORE PUSH10 0x676F7665726E616E6365 PUSH1 0xB0 SHL PUSH1 0x4 DUP3 ADD MSTORE CALLER PUSH1 0x24 DUP3 ADD MSTORE PUSH1 0x1 PUSH1 0x1 PUSH1 0xA0 SHL SUB SWAP2 SWAP1 SWAP2 AND SWAP1 PUSH4 0x91D14854 SWAP1 PUSH1 0x44 ADD PUSH1 0x20 PUSH1 0x40 MLOAD DUP1 DUP4 SUB DUP2 DUP7 DUP1 EXTCODESIZE ISZERO DUP1 ISZERO PUSH2 0x2811 JUMPI PUSH1 0x0 DUP1 REVERT JUMPDEST POP GAS STATICCALL ISZERO DUP1 ISZERO PUSH2 0x2825 JUMPI RETURNDATASIZE PUSH1 0x0 DUP1 RETURNDATACOPY RETURNDATASIZE PUSH1 0x0 REVERT JUMPDEST POP POP POP POP PUSH1 0x40 MLOAD RETURNDATASIZE PUSH1 0x1F NOT PUSH1 0x1F DUP3 ADD AND DUP3 ADD DUP1 PUSH1 0x40 MSTORE POP DUP2 ADD SWAP1 PUSH2 0x2849 SWAP2 SWAP1 PUSH2 0x5A0E JUMP JUMPDEST PUSH1 0x40 MLOAD DUP1 PUSH1 0x40 ADD PUSH1 0x40 MSTORE DUP1 PUSH1 0x13 DUP2 MSTORE PUSH1 0x20 ADD PUSH1 0x0 DUP1 MLOAD PUSH1 0x20 PUSH2 0x5BC6 DUP4 CODECOPY DUP2 MLOAD SWAP2 MSTORE DUP2 MSTORE POP SWAP1 PUSH2 0x288B JUMPI PUSH1 0x40 MLOAD PUSH3 0x461BCD PUSH1 0xE5 SHL DUP2 MSTORE PUSH1 0x4 ADD PUSH2 0xAD2 SWAP2 SWAP1 PUSH2 0x599C JUMP JUMPDEST POP PUSH2 0x9CB PUSH1 0x6 DUP4 PUSH2 0x4436 JUMP JUMPDEST PUSH1 0x0 PUSH32 0x0 PUSH1 0x40 MLOAD PUSH4 0x24745215 PUSH1 0xE2 SHL DUP2 MSTORE PUSH10 0x676F7665726E616E6365 PUSH1 0xB0 SHL PUSH1 0x4 DUP3 ADD MSTORE CALLER PUSH1 0x24 DUP3 ADD MSTORE PUSH1 0x1 PUSH1 0x1 PUSH1 0xA0 SHL SUB SWAP2 SWAP1 SWAP2 AND SWAP1 PUSH4 0x91D14854 SWAP1 PUSH1 0x44 ADD PUSH1 0x20 PUSH1 0x40 MLOAD DUP1 DUP4 SUB DUP2 DUP7 DUP1 EXTCODESIZE ISZERO DUP1 ISZERO PUSH2 0x290E JUMPI PUSH1 0x0 DUP1 REVERT JUMPDEST POP GAS STATICCALL ISZERO DUP1 ISZERO PUSH2 0x2922 JUMPI RETURNDATASIZE PUSH1 0x0 DUP1 RETURNDATACOPY RETURNDATASIZE PUSH1 0x0 REVERT JUMPDEST POP POP POP POP PUSH1 0x40 MLOAD RETURNDATASIZE PUSH1 0x1F NOT PUSH1 0x1F DUP3 ADD AND DUP3 ADD DUP1 PUSH1 0x40 MSTORE POP DUP2 ADD SWAP1 PUSH2 0x2946 SWAP2 SWAP1 PUSH2 0x5A0E JUMP JUMPDEST PUSH1 0x40 MLOAD DUP1 PUSH1 0x40 ADD PUSH1 0x40 MSTORE DUP1 PUSH1 0x13 DUP2 MSTORE PUSH1 0x20 ADD PUSH1 0x0 DUP1 MLOAD PUSH1 0x20 PUSH2 0x5BC6 DUP4 CODECOPY DUP2 MLOAD SWAP2 MSTORE DUP2 MSTORE POP SWAP1 PUSH2 0x2988 JUMPI PUSH1 0x40 MLOAD PUSH3 0x461BCD PUSH1 0xE5 SHL DUP2 MSTORE PUSH1 0x4 ADD PUSH2 0xAD2 SWAP2 SWAP1 PUSH2 0x599C JUMP JUMPDEST POP PUSH2 0x9CB PUSH10 0x2332B2A430B7323632B9 PUSH1 0xB1 SHL DUP4 PUSH2 0x4417 JUMP JUMPDEST PUSH1 0x0 PUSH32 0x0 PUSH1 0x40 MLOAD PUSH4 0x24745215 PUSH1 0xE2 SHL DUP2 MSTORE PUSH10 0x676F7665726E616E6365 PUSH1 0xB0 SHL PUSH1 0x4 DUP3 ADD MSTORE CALLER PUSH1 0x24 DUP3 ADD MSTORE PUSH1 0x1 PUSH1 0x1 PUSH1 0xA0 SHL SUB SWAP2 SWAP1 SWAP2 AND SWAP1 PUSH4 0x91D14854 SWAP1 PUSH1 0x44 ADD PUSH1 0x20 PUSH1 0x40 MLOAD DUP1 DUP4 SUB DUP2 DUP7 DUP1 EXTCODESIZE ISZERO DUP1 ISZERO PUSH2 0x2A17 JUMPI PUSH1 0x0 DUP1 REVERT JUMPDEST POP GAS STATICCALL ISZERO DUP1 ISZERO PUSH2 0x2A2B JUMPI RETURNDATASIZE PUSH1 0x0 DUP1 RETURNDATACOPY RETURNDATASIZE PUSH1 0x0 REVERT JUMPDEST POP POP POP POP PUSH1 0x40 MLOAD RETURNDATASIZE PUSH1 0x1F NOT PUSH1 0x1F DUP3 ADD AND DUP3 ADD DUP1 PUSH1 0x40 MSTORE POP DUP2 ADD SWAP1 PUSH2 0x2A4F SWAP2 SWAP1 PUSH2 0x5A0E JUMP JUMPDEST PUSH1 0x40 MLOAD DUP1 PUSH1 0x40 ADD PUSH1 0x40 MSTORE DUP1 PUSH1 0x13 DUP2 MSTORE PUSH1 0x20 ADD PUSH1 0x0 DUP1 MLOAD PUSH1 0x20 PUSH2 0x5BC6 DUP4 CODECOPY DUP2 MLOAD SWAP2 MSTORE DUP2 MSTORE POP SWAP1 PUSH2 0x2A91 JUMPI PUSH1 0x40 MLOAD PUSH3 0x461BCD PUSH1 0xE5 SHL DUP2 MSTORE PUSH1 0x4 ADD PUSH2 0xAD2 SWAP2 SWAP1 PUSH2 0x599C JUMP JUMPDEST POP PUSH2 0x9CB PUSH2 0x2A9E DUP4 PUSH2 0x40D3 JUMP JUMPDEST PUSH2 0x4022 JUMP JUMPDEST PUSH1 0x0 PUSH32 0x0 PUSH1 0x40 MLOAD PUSH4 0x24745215 PUSH1 0xE2 SHL DUP2 MSTORE PUSH10 0x676F7665726E616E6365 PUSH1 0xB0 SHL PUSH1 0x4 DUP3 ADD MSTORE CALLER PUSH1 0x24 DUP3 ADD MSTORE PUSH1 0x1 PUSH1 0x1 PUSH1 0xA0 SHL SUB SWAP2 SWAP1 SWAP2 AND SWAP1 PUSH4 0x91D14854 SWAP1 PUSH1 0x44 ADD PUSH1 0x20 PUSH1 0x40 MLOAD DUP1 DUP4 SUB DUP2 DUP7 DUP1 EXTCODESIZE ISZERO DUP1 ISZERO PUSH2 0x2B1A JUMPI PUSH1 0x0 DUP1 REVERT JUMPDEST POP GAS STATICCALL ISZERO DUP1 ISZERO PUSH2 0x2B2E JUMPI RETURNDATASIZE PUSH1 0x0 DUP1 RETURNDATACOPY RETURNDATASIZE PUSH1 0x0 REVERT JUMPDEST POP POP POP POP PUSH1 0x40 MLOAD RETURNDATASIZE PUSH1 0x1F NOT PUSH1 0x1F DUP3 ADD AND DUP3 ADD DUP1 PUSH1 0x40 MSTORE POP DUP2 ADD SWAP1 PUSH2 0x2B52 SWAP2 SWAP1 PUSH2 0x5A0E JUMP JUMPDEST PUSH1 0x40 MLOAD DUP1 PUSH1 0x40 ADD PUSH1 0x40 MSTORE DUP1 PUSH1 0x13 DUP2 MSTORE PUSH1 0x20 ADD PUSH1 0x0 DUP1 MLOAD PUSH1 0x20 PUSH2 0x5BC6 DUP4 CODECOPY DUP2 MLOAD SWAP2 MSTORE DUP2 MSTORE POP SWAP1 PUSH2 0x2B94 JUMPI PUSH1 0x40 MLOAD PUSH3 0x461BCD PUSH1 0xE5 SHL DUP2 MSTORE PUSH1 0x4 ADD PUSH2 0xAD2 SWAP2 SWAP1 PUSH2 0x599C JUMP JUMPDEST POP PUSH2 0x9CB PUSH17 0x457374696D617465644761735573616765 PUSH1 0x78 SHL DUP4 PUSH2 0x417A JUMP JUMPDEST PUSH1 0x0 PUSH2 0x9CB PUSH1 0x6 DUP4 PUSH2 0x444B JUMP JUMPDEST PUSH1 0x0 PUSH32 0x0 PUSH1 0x40 MLOAD PUSH4 0x24745215 PUSH1 0xE2 SHL DUP2 MSTORE PUSH10 0x676F7665726E616E6365 PUSH1 0xB0 SHL PUSH1 0x4 DUP3 ADD MSTORE CALLER PUSH1 0x24 DUP3 ADD MSTORE PUSH1 0x1 PUSH1 0x1 PUSH1 0xA0 SHL SUB SWAP2 SWAP1 SWAP2 AND SWAP1 PUSH4 0x91D14854 SWAP1 PUSH1 0x44 ADD PUSH1 0x20 PUSH1 0x40 MLOAD DUP1 DUP4 SUB DUP2 DUP7 DUP1 EXTCODESIZE ISZERO DUP1 ISZERO PUSH2 0x2C37 JUMPI PUSH1 0x0 DUP1 REVERT JUMPDEST POP GAS STATICCALL ISZERO DUP1 ISZERO PUSH2 0x2C4B JUMPI RETURNDATASIZE PUSH1 0x0 DUP1 RETURNDATACOPY RETURNDATASIZE PUSH1 0x0 REVERT JUMPDEST POP POP POP POP PUSH1 0x40 MLOAD RETURNDATASIZE PUSH1 0x1F NOT PUSH1 0x1F DUP3 ADD AND DUP3 ADD DUP1 PUSH1 0x40 MSTORE POP DUP2 ADD SWAP1 PUSH2 0x2C6F SWAP2 SWAP1 PUSH2 0x5A0E JUMP JUMPDEST PUSH1 0x40 MLOAD DUP1 PUSH1 0x40 ADD PUSH1 0x40 MSTORE DUP1 PUSH1 0x13 DUP2 MSTORE PUSH1 0x20 ADD PUSH1 0x0 DUP1 MLOAD PUSH1 0x20 PUSH2 0x5BC6 DUP4 CODECOPY DUP2 MLOAD SWAP2 MSTORE DUP2 MSTORE POP SWAP1 PUSH2 0x2CB1 JUMPI PUSH1 0x40 MLOAD PUSH3 0x461BCD PUSH1 0xE5 SHL DUP2 MSTORE PUSH1 0x4 ADD PUSH2 0xAD2 SWAP2 SWAP1 PUSH2 0x599C JUMP JUMPDEST POP PUSH2 0x915 PUSH18 0x4D617853776170706572536C697070616765 PUSH1 0x70 SHL PUSH2 0x446D JUMP JUMPDEST PUSH1 0x0 PUSH2 0x915 PUSH10 0x2332B2A430B7323632B9 PUSH1 0xB1 SHL PUSH2 0x4115 JUMP JUMPDEST PUSH1 0x60 PUSH2 0x915 PUSH1 0x6 PUSH2 0x4514 JUMP JUMPDEST PUSH1 0x0 PUSH32 0x0 PUSH1 0x40 MLOAD PUSH4 0x24745215 PUSH1 0xE2 SHL DUP2 MSTORE PUSH10 0x676F7665726E616E6365 PUSH1 0xB0 SHL PUSH1 0x4 DUP3 ADD MSTORE CALLER PUSH1 0x24 DUP3 ADD MSTORE PUSH1 0x1 PUSH1 0x1 PUSH1 0xA0 SHL SUB SWAP2 SWAP1 SWAP2 AND SWAP1 PUSH4 0x91D14854 SWAP1 PUSH1 0x44 ADD PUSH1 0x20 PUSH1 0x40 MLOAD DUP1 DUP4 SUB DUP2 DUP7 DUP1 EXTCODESIZE ISZERO DUP1 ISZERO PUSH2 0x2D6B JUMPI PUSH1 0x0 DUP1 REVERT JUMPDEST POP GAS STATICCALL ISZERO DUP1 ISZERO PUSH2 0x2D7F JUMPI RETURNDATASIZE PUSH1 0x0 DUP1 RETURNDATACOPY RETURNDATASIZE PUSH1 0x0 REVERT JUMPDEST POP POP POP POP PUSH1 0x40 MLOAD RETURNDATASIZE PUSH1 0x1F NOT PUSH1 0x1F DUP3 ADD AND DUP3 ADD DUP1 PUSH1 0x40 MSTORE POP DUP2 ADD SWAP1 PUSH2 0x2DA3 SWAP2 SWAP1 PUSH2 0x5A0E JUMP JUMPDEST PUSH1 0x40 MLOAD DUP1 PUSH1 0x40 ADD PUSH1 0x40 MSTORE DUP1 PUSH1 0x13 DUP2 MSTORE PUSH1 0x20 ADD PUSH1 0x0 DUP1 MLOAD PUSH1 0x20 PUSH2 0x5BC6 DUP4 CODECOPY DUP2 MLOAD SWAP2 MSTORE DUP2 MSTORE POP SWAP1 PUSH2 0x2DE5 JUMPI PUSH1 0x40 MLOAD PUSH3 0x461BCD PUSH1 0xE5 SHL DUP2 MSTORE PUSH1 0x4 ADD PUSH2 0xAD2 SWAP2 SWAP1 PUSH2 0x599C JUMP JUMPDEST POP PUSH8 0x853A0D2313C0000 DUP3 LT ISZERO DUP1 ISZERO PUSH2 0x2E06 JUMPI POP PUSH8 0xD2F13F7789F0000 DUP3 GT ISZERO JUMPDEST PUSH1 0x40 MLOAD DUP1 PUSH1 0x40 ADD PUSH1 0x40 MSTORE DUP1 PUSH1 0xE DUP2 MSTORE PUSH1 0x20 ADD PUSH14 0x1A5B9D985B1A5908185B5BDD5B9D PUSH1 0x92 SHL DUP2 MSTORE POP SWAP1 PUSH2 0x2E4B JUMPI PUSH1 0x40 MLOAD PUSH3 0x461BCD PUSH1 0xE5 SHL DUP2 MSTORE PUSH1 0x4 ADD PUSH2 0xAD2 SWAP2 SWAP1 PUSH2 0x599C JUMP JUMPDEST POP PUSH2 0x9CB PUSH18 0x4D617853776170706572536C697070616765 PUSH1 0x70 SHL DUP4 PUSH2 0x417A JUMP JUMPDEST PUSH10 0x2332B2A430B7323632B9 PUSH1 0xB1 SHL PUSH1 0x0 MSTORE PUSH1 0x2 PUSH1 0x20 MSTORE PUSH32 0x6CA0624ED247BF0FEA5288FBB74A4BD8FC7F94847D3670D0C0D9BA9A2AF3242C SLOAD PUSH1 0x1 PUSH1 0x1 PUSH1 0xA0 SHL SUB AND SWAP1 JUMP JUMPDEST PUSH1 0x60 PUSH1 0x0 DUP1 PUSH2 0x2EBE PUSH1 0xC PUSH2 0x4401 JUMP JUMPDEST SWAP1 POP DUP1 DUP6 LT PUSH2 0x2EE0 JUMPI POP POP PUSH1 0x40 DUP1 MLOAD PUSH1 0x0 DUP1 DUP3 MSTORE PUSH1 0x20 DUP3 ADD SWAP1 SWAP3 MSTORE SWAP2 POP PUSH2 0x2FB2 JUMP JUMPDEST PUSH2 0x2EEA DUP6 DUP3 PUSH2 0x5AB3 JUMP JUMPDEST DUP5 LT PUSH2 0x2EFD JUMPI PUSH2 0x2EFA DUP6 DUP3 PUSH2 0x5AB3 JUMP JUMPDEST SWAP4 POP JUMPDEST PUSH1 0x0 DUP5 PUSH1 0x1 PUSH1 0x1 PUSH1 0x40 SHL SUB DUP2 GT ISZERO PUSH2 0x2F17 JUMPI PUSH2 0x2F17 PUSH2 0x5810 JUMP JUMPDEST PUSH1 0x40 MLOAD SWAP1 DUP1 DUP3 MSTORE DUP1 PUSH1 0x20 MUL PUSH1 0x20 ADD DUP3 ADD PUSH1 0x40 MSTORE DUP1 ISZERO PUSH2 0x2F40 JUMPI DUP2 PUSH1 0x20 ADD PUSH1 0x20 DUP3 MUL DUP1 CALLDATASIZE DUP4 CALLDATACOPY ADD SWAP1 POP JUMPDEST POP SWAP1 POP PUSH1 0x0 JUMPDEST DUP6 DUP2 LT ISZERO PUSH2 0x2F9F JUMPI PUSH2 0x2F63 PUSH2 0x2F5B DUP9 DUP4 PUSH2 0x5A79 JUMP JUMPDEST PUSH1 0xC SWAP1 PUSH2 0x440B JUMP JUMPDEST DUP3 DUP3 DUP2 MLOAD DUP2 LT PUSH2 0x2F75 JUMPI PUSH2 0x2F75 PUSH2 0x5B0E JUMP JUMPDEST PUSH1 0x1 PUSH1 0x1 PUSH1 0xA0 SHL SUB SWAP1 SWAP3 AND PUSH1 0x20 SWAP3 DUP4 MUL SWAP2 SWAP1 SWAP2 ADD SWAP1 SWAP2 ADD MSTORE DUP1 PUSH2 0x2F97 DUP2 PUSH2 0x5B24 JUMP JUMPDEST SWAP2 POP POP PUSH2 0x2F46 JUMP JUMPDEST POP DUP1 PUSH2 0x2FAB DUP7 DUP9 PUSH2 0x5A79 JUMP JUMPDEST SWAP4 POP SWAP4 POP POP POP JUMPDEST SWAP3 POP SWAP3 SWAP1 POP JUMP JUMPDEST PUSH1 0x0 PUSH32 0x0 PUSH1 0x40 MLOAD PUSH4 0x24745215 PUSH1 0xE2 SHL DUP2 MSTORE PUSH10 0x676F7665726E616E6365 PUSH1 0xB0 SHL PUSH1 0x4 DUP3 ADD MSTORE CALLER PUSH1 0x24 DUP3 ADD MSTORE PUSH1 0x1 PUSH1 0x1 PUSH1 0xA0 SHL SUB SWAP2 SWAP1 SWAP2 AND SWAP1 PUSH4 0x91D14854 SWAP1 PUSH1 0x44 ADD PUSH1 0x20 PUSH1 0x40 MLOAD DUP1 DUP4 SUB DUP2 DUP7 DUP1 EXTCODESIZE ISZERO DUP1 ISZERO PUSH2 0x3030 JUMPI PUSH1 0x0 DUP1 REVERT JUMPDEST POP GAS STATICCALL ISZERO DUP1 ISZERO PUSH2 0x3044 JUMPI RETURNDATASIZE PUSH1 0x0 DUP1 RETURNDATACOPY RETURNDATASIZE PUSH1 0x0 REVERT JUMPDEST POP POP POP POP PUSH1 0x40 MLOAD RETURNDATASIZE PUSH1 0x1F NOT PUSH1 0x1F DUP3 ADD AND DUP3 ADD DUP1 PUSH1 0x40 MSTORE POP DUP2 ADD SWAP1 PUSH2 0x3068 SWAP2 SWAP1 PUSH2 0x5A0E JUMP JUMPDEST PUSH1 0x40 MLOAD DUP1 PUSH1 0x40 ADD PUSH1 0x40 MSTORE DUP1 PUSH1 0x13 DUP2 MSTORE PUSH1 0x20 ADD PUSH1 0x0 DUP1 MLOAD PUSH1 0x20 PUSH2 0x5BC6 DUP4 CODECOPY DUP2 MLOAD SWAP2 MSTORE DUP2 MSTORE POP SWAP1 PUSH2 0x30AA JUMPI PUSH1 0x40 MLOAD PUSH3 0x461BCD PUSH1 0xE5 SHL DUP2 MSTORE PUSH1 0x4 ADD PUSH2 0xAD2 SWAP2 SWAP1 PUSH2 0x599C JUMP JUMPDEST POP PUSH2 0x915 PUSH9 0x416374696F6E466565 PUSH1 0xB8 SHL PUSH2 0x446D JUMP JUMPDEST PUSH1 0x5 SLOAD PUSH2 0x100 SWAP1 DIV PUSH1 0xFF AND PUSH2 0x30DB JUMPI PUSH1 0x5 SLOAD PUSH1 0xFF AND ISZERO PUSH2 0x30DF JUMP JUMPDEST ADDRESS EXTCODESIZE ISZERO JUMPDEST PUSH2 0x3142 JUMPI PUSH1 0x40 MLOAD PUSH3 0x461BCD PUSH1 0xE5 SHL DUP2 MSTORE PUSH1 0x20 PUSH1 0x4 DUP3 ADD MSTORE PUSH1 0x2E PUSH1 0x24 DUP3 ADD MSTORE PUSH32 0x496E697469616C697A61626C653A20636F6E747261637420697320616C726561 PUSH1 0x44 DUP3 ADD MSTORE PUSH14 0x191E481A5B9A5D1A585B1A5E9959 PUSH1 0x92 SHL PUSH1 0x64 DUP3 ADD MSTORE PUSH1 0x84 ADD PUSH2 0xAD2 JUMP JUMPDEST PUSH1 0x5 SLOAD PUSH2 0x100 SWAP1 DIV PUSH1 0xFF AND ISZERO DUP1 ISZERO PUSH2 0x3164 JUMPI PUSH1 0x5 DUP1 SLOAD PUSH2 0xFFFF NOT AND PUSH2 0x101 OR SWAP1 SSTORE JUMPDEST PUSH32 0x0 PUSH1 0x40 MLOAD PUSH4 0x24745215 PUSH1 0xE2 SHL DUP2 MSTORE PUSH10 0x676F7665726E616E6365 PUSH1 0xB0 SHL PUSH1 0x4 DUP3 ADD MSTORE CALLER PUSH1 0x24 DUP3 ADD MSTORE PUSH1 0x1 PUSH1 0x1 PUSH1 0xA0 SHL SUB SWAP2 SWAP1 SWAP2 AND SWAP1 PUSH4 0x91D14854 SWAP1 PUSH1 0x44 ADD PUSH1 0x20 PUSH1 0x40 MLOAD DUP1 DUP4 SUB DUP2 DUP7 DUP1 EXTCODESIZE ISZERO DUP1 ISZERO PUSH2 0x31D9 JUMPI PUSH1 0x0 DUP1 REVERT JUMPDEST POP GAS STATICCALL ISZERO DUP1 ISZERO PUSH2 0x31ED JUMPI RETURNDATASIZE PUSH1 0x0 DUP1 RETURNDATACOPY RETURNDATASIZE PUSH1 0x0 REVERT JUMPDEST POP POP POP POP PUSH1 0x40 MLOAD RETURNDATASIZE PUSH1 0x1F NOT PUSH1 0x1F DUP3 ADD AND DUP3 ADD DUP1 PUSH1 0x40 MSTORE POP DUP2 ADD SWAP1 PUSH2 0x3211 SWAP2 SWAP1 PUSH2 0x5A0E JUMP JUMPDEST PUSH1 0x40 MLOAD DUP1 PUSH1 0x40 ADD PUSH1 0x40 MSTORE DUP1 PUSH1 0x13 DUP2 MSTORE PUSH1 0x20 ADD PUSH1 0x0 DUP1 MLOAD PUSH1 0x20 PUSH2 0x5BC6 DUP4 CODECOPY DUP2 MLOAD SWAP2 MSTORE DUP2 MSTORE POP SWAP1 PUSH2 0x3253 JUMPI PUSH1 0x40 MLOAD PUSH3 0x461BCD PUSH1 0xE5 SHL DUP2 MSTORE PUSH1 0x4 ADD PUSH2 0xAD2 SWAP2 SWAP1 PUSH2 0x599C JUMP JUMPDEST POP PUSH1 0x40 DUP1 MLOAD DUP1 DUP3 ADD SWAP1 SWAP2 MSTORE PUSH1 0x10 DUP2 MSTORE PUSH16 0x1A5B9D985B1A5908185C99DD5B595B9D PUSH1 0x82 SHL PUSH1 0x20 DUP3 ADD MSTORE DUP5 DUP4 EQ PUSH2 0x329B JUMPI PUSH1 0x40 MLOAD PUSH3 0x461BCD PUSH1 0xE5 SHL DUP2 MSTORE PUSH1 0x4 ADD PUSH2 0xAD2 SWAP2 SWAP1 PUSH2 0x599C JUMP JUMPDEST POP PUSH2 0x32B3 PUSH10 0x2332B2A430B7323632B9 PUSH1 0xB1 SHL DUP8 PUSH2 0x45BA JUMP JUMPDEST POP PUSH2 0x32DB PUSH18 0x4D617853776170706572536C697070616765 PUSH1 0x70 SHL PUSH8 0xD2F13F7789F0000 PUSH2 0x4645 JUMP JUMPDEST POP PUSH1 0x0 JUMPDEST DUP5 DUP2 LT ISZERO PUSH2 0x339A JUMPI PUSH1 0x0 PUSH2 0x330A DUP8 DUP8 DUP5 DUP2 DUP2 LT PUSH2 0x32FE JUMPI PUSH2 0x32FE PUSH2 0x5B0E JUMP JUMPDEST SWAP1 POP PUSH1 0x20 MUL ADD CALLDATALOAD PUSH2 0x40D3 JUMP JUMPDEST SWAP1 POP PUSH2 0x333C DUP2 DUP7 DUP7 DUP6 DUP2 DUP2 LT PUSH2 0x3322 JUMPI PUSH2 0x3322 PUSH2 0x5B0E JUMP JUMPDEST SWAP1 POP PUSH1 0x20 MUL ADD PUSH1 0x20 DUP2 ADD SWAP1 PUSH2 0x3337 SWAP2 SWAP1 PUSH2 0x53FB JUMP JUMPDEST PUSH2 0x45BA JUMP JUMPDEST POP PUSH2 0x3387 DUP8 DUP8 DUP5 DUP2 DUP2 LT PUSH2 0x3352 JUMPI PUSH2 0x3352 PUSH2 0x5B0E JUMP JUMPDEST SWAP1 POP PUSH1 0x20 MUL ADD CALLDATALOAD PUSH1 0x0 DUP8 DUP8 DUP7 DUP2 DUP2 LT PUSH2 0x336D JUMPI PUSH2 0x336D PUSH2 0x5B0E JUMP JUMPDEST SWAP1 POP PUSH1 0x20 MUL ADD PUSH1 0x20 DUP2 ADD SWAP1 PUSH2 0x3382 SWAP2 SWAP1 PUSH2 0x53FB JUMP JUMPDEST PUSH2 0x4142 JUMP JUMPDEST POP DUP1 PUSH2 0x3392 DUP2 PUSH2 0x5B24 JUMP JUMPDEST SWAP2 POP POP PUSH2 0x32DF JUMP JUMPDEST POP DUP1 ISZERO PUSH2 0x33AD JUMPI PUSH1 0x5 DUP1 SLOAD PUSH2 0xFF00 NOT AND SWAP1 SSTORE JUMPDEST POP POP POP POP POP POP JUMP JUMPDEST PUSH1 0x0 PUSH2 0x33C2 PUSH1 0x8 DUP6 PUSH2 0x46A6 JUMP JUMPDEST PUSH1 0x40 MLOAD DUP1 PUSH1 0x40 ADD PUSH1 0x40 MSTORE DUP1 PUSH1 0x12 DUP2 MSTORE PUSH1 0x20 ADD PUSH18 0x1C1C9BDD1BD8DBDB081B9BDD08199BDD5B99 PUSH1 0x72 SHL DUP2 MSTORE POP SWAP1 PUSH2 0x340B JUMPI PUSH1 0x40 MLOAD PUSH3 0x461BCD PUSH1 0xE5 SHL DUP2 MSTORE PUSH1 0x4 ADD PUSH2 0xAD2 SWAP2 SWAP1 PUSH2 0x599C JUMP JUMPDEST POP PUSH1 0x0 DUP3 PUSH1 0xA0 ADD MLOAD PUSH1 0x1 PUSH1 0x1 PUSH1 0x80 SHL SUB AND GT PUSH1 0x40 MLOAD DUP1 PUSH1 0x40 ADD PUSH1 0x40 MSTORE DUP1 PUSH1 0xE DUP2 MSTORE PUSH1 0x20 ADD PUSH14 0x1A5B9D985B1A5908185B5BDD5B9D PUSH1 0x92 SHL DUP2 MSTORE POP SWAP1 PUSH2 0x3462 JUMPI PUSH1 0x40 MLOAD PUSH3 0x461BCD PUSH1 0xE5 SHL DUP2 MSTORE PUSH1 0x4 ADD PUSH2 0xAD2 SWAP2 SWAP1 PUSH2 0x599C JUMP JUMPDEST POP PUSH8 0xDE0B6B3A7640000 DUP3 PUSH1 0x0 ADD MLOAD PUSH1 0x1 PUSH1 0x1 PUSH1 0x40 SHL SUB AND GT PUSH1 0x40 MLOAD DUP1 PUSH1 0x40 ADD PUSH1 0x40 MSTORE DUP1 PUSH1 0xE DUP2 MSTORE PUSH1 0x20 ADD PUSH14 0x1A5B9D985B1A5908185B5BDD5B9D PUSH1 0x92 SHL DUP2 MSTORE POP SWAP1 PUSH2 0x34C0 JUMPI PUSH1 0x40 MLOAD PUSH3 0x461BCD PUSH1 0xE5 SHL DUP2 MSTORE PUSH1 0x4 ADD PUSH2 0xAD2 SWAP2 SWAP1 PUSH2 0x599C JUMP JUMPDEST POP DUP2 PUSH1 0xC0 ADD MLOAD PUSH1 0x1 PUSH1 0x1 PUSH1 0x80 SHL SUB AND DUP3 PUSH1 0xA0 ADD MLOAD PUSH1 0x1 PUSH1 0x1 PUSH1 0x80 SHL SUB AND GT ISZERO PUSH1 0x40 MLOAD DUP1 PUSH1 0x40 ADD PUSH1 0x40 MSTORE DUP1 PUSH1 0xE DUP2 MSTORE PUSH1 0x20 ADD PUSH14 0x1A5B9D985B1A5908185B5BDD5B9D PUSH1 0x92 SHL DUP2 MSTORE POP SWAP1 PUSH2 0x3524 JUMPI PUSH1 0x40 MLOAD PUSH3 0x461BCD PUSH1 0xE5 SHL DUP2 MSTORE PUSH1 0x4 ADD PUSH2 0xAD2 SWAP2 SWAP1 PUSH2 0x599C JUMP JUMPDEST POP CALLER PUSH1 0x0 SWAP1 DUP2 MSTORE PUSH1 0xA PUSH1 0x20 SWAP1 DUP2 MSTORE PUSH1 0x40 DUP1 DUP4 KECCAK256 PUSH1 0x1 PUSH1 0x1 PUSH1 0xA0 SHL SUB DUP10 AND DUP5 MSTORE DUP3 MSTORE DUP1 DUP4 KECCAK256 DUP8 DUP5 MSTORE DUP3 MSTORE SWAP2 DUP3 SWAP1 KECCAK256 SLOAD DUP3 MLOAD DUP1 DUP5 ADD SWAP1 SWAP4 MSTORE PUSH1 0x17 DUP4 MSTORE PUSH32 0x706F736974696F6E20616C726561647920657869737473000000000000000000 SWAP2 DUP4 ADD SWAP2 SWAP1 SWAP2 MSTORE PUSH1 0x1 PUSH1 0x1 PUSH1 0x40 SHL SUB AND ISZERO PUSH2 0x35AD JUMPI PUSH1 0x40 MLOAD PUSH3 0x461BCD PUSH1 0xE5 SHL DUP2 MSTORE PUSH1 0x4 ADD PUSH2 0xAD2 SWAP2 SWAP1 PUSH2 0x599C JUMP JUMPDEST POP PUSH2 0x35C0 DUP3 PUSH1 0x80 ADD MLOAD DUP4 PUSH1 0x60 ADD MLOAD PUSH2 0x46BE JUMP JUMPDEST PUSH1 0x40 MLOAD DUP1 PUSH1 0x40 ADD PUSH1 0x40 MSTORE DUP1 PUSH1 0x13 DUP2 MSTORE PUSH1 0x20 ADD PUSH19 0x1CDDD85C081C185D1A081B9BDD08199BDD5B99 PUSH1 0x6A SHL DUP2 MSTORE POP SWAP1 PUSH2 0x360A JUMPI PUSH1 0x40 MLOAD PUSH3 0x461BCD PUSH1 0xE5 SHL DUP2 MSTORE PUSH1 0x4 ADD PUSH2 0xAD2 SWAP2 SWAP1 PUSH2 0x599C JUMP JUMPDEST POP PUSH2 0x3618 DUP3 PUSH1 0x80 ADD MLOAD PUSH2 0x2BB3 JUMP JUMPDEST PUSH1 0x40 MLOAD DUP1 PUSH1 0x60 ADD PUSH1 0x40 MSTORE DUP1 PUSH1 0x28 DUP2 MSTORE PUSH1 0x20 ADD PUSH2 0x5B56 PUSH1 0x28 SWAP2 CODECOPY SWAP1 PUSH2 0x364F JUMPI PUSH1 0x40 MLOAD PUSH3 0x461BCD PUSH1 0xE5 SHL DUP2 MSTORE PUSH1 0x4 ADD PUSH2 0xAD2 SWAP2 SWAP1 PUSH2 0x599C JUMP JUMPDEST POP PUSH1 0x0 PUSH2 0x365A PUSH2 0x95D JUMP JUMPDEST DUP4 PUSH1 0x40 ADD MLOAD PUSH1 0x1 PUSH1 0x1 PUSH1 0x40 SHL SUB AND PUSH2 0x3695 DUP6 PUSH1 0xA0 ADD MLOAD PUSH1 0x1 PUSH1 0x1 PUSH1 0x80 SHL SUB AND DUP7 PUSH1 0xC0 ADD MLOAD PUSH1 0x1 PUSH1 0x1 PUSH1 0x80 SHL SUB AND PUSH2 0x4427 SWAP1 SWAP2 SWAP1 PUSH4 0xFFFFFFFF AND JUMP JUMPDEST PUSH2 0x369F SWAP2 SWAP1 PUSH2 0x5A5A JUMP JUMPDEST PUSH2 0x36A9 SWAP2 SWAP1 PUSH2 0x5A5A JUMP JUMPDEST SWAP1 POP DUP1 CALLVALUE LT ISZERO PUSH1 0x40 MLOAD DUP1 PUSH1 0x40 ADD PUSH1 0x40 MSTORE DUP1 PUSH1 0x1A DUP2 MSTORE PUSH1 0x20 ADD PUSH32 0x76616C756520746F6F206C6F7720746F20636F76657220676173000000000000 DUP2 MSTORE POP SWAP1 PUSH2 0x3703 JUMPI PUSH1 0x40 MLOAD PUSH3 0x461BCD PUSH1 0xE5 SHL DUP2 MSTORE PUSH1 0x4 ADD PUSH2 0xAD2 SWAP2 SWAP1 PUSH2 0x599C JUMP JUMPDEST POP PUSH1 0x0 PUSH2 0x3726 DUP5 PUSH1 0x80 ADD MLOAD DUP6 PUSH1 0x60 ADD MLOAD DUP7 PUSH1 0xC0 ADD MLOAD PUSH1 0x1 PUSH1 0x1 PUSH1 0x80 SHL SUB AND PUSH2 0x48BB JUMP JUMPDEST SWAP1 POP PUSH2 0x3741 CALLER DUP6 PUSH1 0x80 ADD MLOAD DUP4 DUP9 PUSH1 0x1 PUSH1 0x1 PUSH1 0x80 SHL SUB AND PUSH2 0x495C JUMP JUMPDEST PUSH2 0x3773 PUSH32 0x0 PUSH1 0x1 PUSH1 0x1 PUSH1 0xA0 SHL SUB AND PUSH2 0x3FE9 JUMP JUMPDEST PUSH1 0x40 MLOAD PUSH4 0xAA67C919 PUSH1 0xE0 SHL DUP2 MSTORE CALLER PUSH1 0x4 DUP3 ADD MSTORE PUSH1 0x1 PUSH1 0x1 PUSH1 0xA0 SHL SUB SWAP2 SWAP1 SWAP2 AND SWAP1 PUSH4 0xAA67C919 SWAP1 CALLVALUE SWAP1 PUSH1 0x24 ADD PUSH1 0x0 PUSH1 0x40 MLOAD DUP1 DUP4 SUB DUP2 DUP6 DUP9 DUP1 EXTCODESIZE ISZERO DUP1 ISZERO PUSH2 0x37B7 JUMPI PUSH1 0x0 DUP1 REVERT JUMPDEST POP GAS CALL ISZERO DUP1 ISZERO PUSH2 0x37CB JUMPI RETURNDATASIZE PUSH1 0x0 DUP1 RETURNDATACOPY RETURNDATASIZE PUSH1 0x0 REVERT JUMPDEST POP POP POP POP POP DUP1 DUP5 PUSH1 0xE0 ADD SWAP1 PUSH1 0x1 PUSH1 0x1 PUSH1 0x80 SHL SUB AND SWAP1 DUP2 PUSH1 0x1 PUSH1 0x1 PUSH1 0x80 SHL SUB AND DUP2 MSTORE POP POP DUP4 PUSH1 0xA PUSH1 0x0 CALLER PUSH1 0x1 PUSH1 0x1 PUSH1 0xA0 SHL SUB AND PUSH1 0x1 PUSH1 0x1 PUSH1 0xA0 SHL SUB AND DUP2 MSTORE PUSH1 0x20 ADD SWAP1 DUP2 MSTORE PUSH1 0x20 ADD PUSH1 0x0 KECCAK256 PUSH1 0x0 DUP10 PUSH1 0x1 PUSH1 0x1 PUSH1 0xA0 SHL SUB AND PUSH1 0x1 PUSH1 0x1 PUSH1 0xA0 SHL SUB AND DUP2 MSTORE PUSH1 0x20 ADD SWAP1 DUP2 MSTORE PUSH1 0x20 ADD PUSH1 0x0 KECCAK256 PUSH1 0x0 DUP9 DUP2 MSTORE PUSH1 0x20 ADD SWAP1 DUP2 MSTORE PUSH1 0x20 ADD PUSH1 0x0 KECCAK256 PUSH1 0x0 DUP3 ADD MLOAD DUP2 PUSH1 0x0 ADD PUSH1 0x0 PUSH2 0x100 EXP DUP2 SLOAD DUP2 PUSH1 0x1 PUSH1 0x1 PUSH1 0x40 SHL SUB MUL NOT AND SWAP1 DUP4 PUSH1 0x1 PUSH1 0x1 PUSH1 0x40 SHL SUB AND MUL OR SWAP1 SSTORE POP PUSH1 0x20 DUP3 ADD MLOAD DUP2 PUSH1 0x0 ADD PUSH1 0x8 PUSH2 0x100 EXP DUP2 SLOAD DUP2 PUSH1 0x1 PUSH1 0x1 PUSH1 0x40 SHL SUB MUL NOT AND SWAP1 DUP4 PUSH1 0x1 PUSH1 0x1 PUSH1 0x40 SHL SUB AND MUL OR SWAP1 SSTORE POP PUSH1 0x40 DUP3 ADD MLOAD DUP2 PUSH1 0x0 ADD PUSH1 0x10 PUSH2 0x100 EXP DUP2 SLOAD DUP2 PUSH1 0x1 PUSH1 0x1 PUSH1 0x40 SHL SUB MUL NOT AND SWAP1 DUP4 PUSH1 0x1 PUSH1 0x1 PUSH1 0x40 SHL SUB AND MUL OR SWAP1 SSTORE POP PUSH1 0x60 DUP3 ADD MLOAD DUP2 PUSH1 0x1 ADD PUSH1 0x0 PUSH2 0x100 EXP DUP2 SLOAD DUP2 PUSH1 0x1 PUSH1 0x1 PUSH1 0xA0 SHL SUB MUL NOT AND SWAP1 DUP4 PUSH1 0x1 PUSH1 0x1 PUSH1 0xA0 SHL SUB AND MUL OR SWAP1 SSTORE POP PUSH1 0x80 DUP3 ADD MLOAD DUP2 PUSH1 0x2 ADD PUSH1 0x0 PUSH2 0x100 EXP DUP2 SLOAD DUP2 PUSH1 0x1 PUSH1 0x1 PUSH1 0xA0 SHL SUB MUL NOT AND SWAP1 DUP4 PUSH1 0x1 PUSH1 0x1 PUSH1 0xA0 SHL SUB AND MUL OR SWAP1 SSTORE POP PUSH1 0xA0 DUP3 ADD MLOAD DUP2 PUSH1 0x3 ADD PUSH1 0x0 PUSH2 0x100 EXP DUP2 SLOAD DUP2 PUSH1 0x1 PUSH1 0x1 PUSH1 0x80 SHL SUB MUL NOT AND SWAP1 DUP4 PUSH1 0x1 PUSH1 0x1 PUSH1 0x80 SHL SUB AND MUL OR SWAP1 SSTORE POP PUSH1 0xC0 DUP3 ADD MLOAD DUP2 PUSH1 0x3 ADD PUSH1 0x10 PUSH2 0x100 EXP DUP2 SLOAD DUP2 PUSH1 0x1 PUSH1 0x1 PUSH1 0x80 SHL SUB MUL NOT AND SWAP1 DUP4 PUSH1 0x1 PUSH1 0x1 PUSH1 0x80 SHL SUB AND MUL OR SWAP1 SSTORE POP PUSH1 0xE0 DUP3 ADD MLOAD DUP2 PUSH1 0x4 ADD PUSH1 0x0 PUSH2 0x100 EXP DUP2 SLOAD DUP2 PUSH1 0x1 PUSH1 0x1 PUSH1 0x80 SHL SUB MUL NOT AND SWAP1 DUP4 PUSH1 0x1 PUSH1 0x1 PUSH1 0x80 SHL SUB AND MUL OR SWAP1 SSTORE POP PUSH2 0x100 DUP3 ADD MLOAD DUP2 PUSH1 0x4 ADD PUSH1 0x10 PUSH2 0x100 EXP DUP2 SLOAD DUP2 PUSH1 0xFF MUL NOT AND SWAP1 DUP4 ISZERO ISZERO MUL OR SWAP1 SSTORE POP SWAP1 POP POP PUSH1 0xB PUSH1 0x0 CALLER PUSH1 0x1 PUSH1 0x1 PUSH1 0xA0 SHL SUB AND PUSH1 0x1 PUSH1 0x1 PUSH1 0xA0 SHL SUB AND DUP2 MSTORE PUSH1 0x20 ADD SWAP1 DUP2 MSTORE PUSH1 0x20 ADD PUSH1 0x0 KECCAK256 PUSH1 0x40 MLOAD DUP1 PUSH1 0x40 ADD PUSH1 0x40 MSTORE DUP1 DUP10 PUSH1 0x1 PUSH1 0x1 PUSH1 0xA0 SHL SUB AND DUP2 MSTORE PUSH1 0x20 ADD DUP9 DUP2 MSTORE POP SWAP1 DUP1 PUSH1 0x1 DUP2 SLOAD ADD DUP1 DUP3 SSTORE DUP1 SWAP2 POP POP PUSH1 0x1 SWAP1 SUB SWAP1 PUSH1 0x0 MSTORE PUSH1 0x20 PUSH1 0x0 KECCAK256 SWAP1 PUSH1 0x2 MUL ADD PUSH1 0x0 SWAP1 SWAP2 SWAP1 SWAP2 SWAP1 SWAP2 POP PUSH1 0x0 DUP3 ADD MLOAD DUP2 PUSH1 0x0 ADD PUSH1 0x0 PUSH2 0x100 EXP DUP2 SLOAD DUP2 PUSH1 0x1 PUSH1 0x1 PUSH1 0xA0 SHL SUB MUL NOT AND SWAP1 DUP4 PUSH1 0x1 PUSH1 0x1 PUSH1 0xA0 SHL SUB AND MUL OR SWAP1 SSTORE POP PUSH1 0x20 DUP3 ADD MLOAD DUP2 PUSH1 0x1 ADD SSTORE POP POP PUSH2 0x3A8D CALLER PUSH1 0xC PUSH2 0x4436 SWAP1 SWAP2 SWAP1 PUSH4 0xFFFFFFFF AND JUMP JUMPDEST POP DUP4 PUSH1 0x0 ADD MLOAD PUSH1 0x1 PUSH1 0x1 PUSH1 0x40 SHL SUB AND DUP7 DUP9 PUSH1 0x1 PUSH1 0x1 PUSH1 0xA0 SHL SUB AND PUSH32 0x88CC1820FB3B8C2414E61704CBF68E517A5E0CD1AF9FE40CFB5070C53A7E6071 CALLER DUP9 PUSH1 0x80 ADD MLOAD DUP7 DUP11 PUSH1 0x60 ADD MLOAD DUP12 PUSH1 0xA0 ADD MLOAD DUP13 PUSH1 0xC0 ADD MLOAD DUP14 PUSH1 0x40 ADD MLOAD DUP15 PUSH2 0x100 ADD MLOAD PUSH1 0x40 MLOAD PUSH2 0x3B57 SWAP9 SWAP8 SWAP7 SWAP6 SWAP5 SWAP4 SWAP3 SWAP2 SWAP1 PUSH1 0x1 PUSH1 0x1 PUSH1 0xA0 SHL SUB SWAP9 DUP10 AND DUP2 MSTORE SWAP7 DUP9 AND PUSH1 0x20 DUP9 ADD MSTORE PUSH1 0x40 DUP8 ADD SWAP6 SWAP1 SWAP6 MSTORE SWAP3 SWAP1 SWAP6 AND PUSH1 0x60 DUP6 ADD MSTORE PUSH1 0x1 PUSH1 0x1 PUSH1 0x80 SHL SUB SWAP1 DUP2 AND PUSH1 0x80 DUP6 ADD MSTORE SWAP4 SWAP1 SWAP4 AND PUSH1 0xA0 DUP4 ADD MSTORE PUSH1 0x1 PUSH1 0x1 PUSH1 0x40 SHL SUB SWAP3 SWAP1 SWAP3 AND PUSH1 0xC0 DUP3 ADD MSTORE SWAP1 ISZERO ISZERO PUSH1 0xE0 DUP3 ADD MSTORE PUSH2 0x100 ADD SWAP1 JUMP JUMPDEST PUSH1 0x40 MLOAD DUP1 SWAP2 SUB SWAP1 LOG4 POP PUSH1 0x1 SWAP7 SWAP6 POP POP POP POP POP POP JUMP JUMPDEST PUSH1 0x0 PUSH32 0x0 PUSH1 0x40 MLOAD PUSH4 0x24745215 PUSH1 0xE2 SHL DUP2 MSTORE PUSH10 0x676F7665726E616E6365 PUSH1 0xB0 SHL PUSH1 0x4 DUP3 ADD MSTORE CALLER PUSH1 0x24 DUP3 ADD MSTORE PUSH1 0x1 PUSH1 0x1 PUSH1 0xA0 SHL SUB SWAP2 SWAP1 SWAP2 AND SWAP1 PUSH4 0x91D14854 SWAP1 PUSH1 0x44 ADD PUSH1 0x20 PUSH1 0x40 MLOAD DUP1 DUP4 SUB DUP2 DUP7 DUP1 EXTCODESIZE ISZERO DUP1 ISZERO PUSH2 0x3BE3 JUMPI PUSH1 0x0 DUP1 REVERT JUMPDEST POP GAS STATICCALL ISZERO DUP1 ISZERO PUSH2 0x3BF7 JUMPI RETURNDATASIZE PUSH1 0x0 DUP1 RETURNDATACOPY RETURNDATASIZE PUSH1 0x0 REVERT JUMPDEST POP POP POP POP PUSH1 0x40 MLOAD RETURNDATASIZE PUSH1 0x1F NOT PUSH1 0x1F DUP3 ADD AND DUP3 ADD DUP1 PUSH1 0x40 MSTORE POP DUP2 ADD SWAP1 PUSH2 0x3C1B SWAP2 SWAP1 PUSH2 0x5A0E JUMP JUMPDEST PUSH1 0x40 MLOAD DUP1 PUSH1 0x40 ADD PUSH1 0x40 MSTORE DUP1 PUSH1 0x13 DUP2 MSTORE PUSH1 0x20 ADD PUSH1 0x0 DUP1 MLOAD PUSH1 0x20 PUSH2 0x5BC6 DUP4 CODECOPY DUP2 MLOAD SWAP2 MSTORE DUP2 MSTORE POP SWAP1 PUSH2 0x3C5D JUMPI PUSH1 0x40 MLOAD PUSH3 0x461BCD PUSH1 0xE5 SHL DUP2 MSTORE PUSH1 0x4 ADD PUSH2 0xAD2 SWAP2 SWAP1 PUSH2 0x599C JUMP JUMPDEST POP PUSH2 0x915 PUSH17 0x457374696D617465644761735573616765 PUSH1 0x78 SHL PUSH2 0x446D JUMP JUMPDEST PUSH9 0x416374696F6E466565 PUSH1 0xB8 SHL PUSH1 0x0 MSTORE PUSH1 0x3 PUSH1 0x20 MSTORE PUSH32 0xA54DCCFF97A6072259C3AA6B782765087D250E0214D8D05826D45D992FF11FAC SLOAD SWAP1 JUMP JUMPDEST PUSH1 0x0 DUP1 PUSH2 0x3CC3 DUP5 PUSH1 0x1 PUSH2 0x3DF4 JUMP JUMPDEST PUSH1 0x40 MLOAD PUSH3 0xE8514D PUSH1 0xE5 SHL DUP2 MSTORE PUSH1 0x1 PUSH1 0x1 PUSH1 0xA0 SHL SUB DUP6 DUP2 AND PUSH1 0x4 DUP4 ADD MSTORE SWAP2 SWAP3 POP SWAP1 DUP3 AND SWAP1 PUSH4 0x1D0A29A0 SWAP1 PUSH1 0x24 ADD PUSH1 0x20 PUSH1 0x40 MLOAD DUP1 DUP4 SUB DUP2 DUP7 DUP1 EXTCODESIZE ISZERO DUP1 ISZERO PUSH2 0x3D07 JUMPI PUSH1 0x0 DUP1 REVERT JUMPDEST POP GAS STATICCALL ISZERO DUP1 ISZERO PUSH2 0x3D1B JUMPI RETURNDATASIZE PUSH1 0x0 DUP1 RETURNDATACOPY RETURNDATASIZE PUSH1 0x0 REVERT JUMPDEST POP POP POP POP PUSH1 0x40 MLOAD RETURNDATASIZE PUSH1 0x1F NOT PUSH1 0x1F DUP3 ADD AND DUP3 ADD DUP1 PUSH1 0x40 MSTORE POP DUP2 ADD SWAP1 PUSH2 0x3D3F SWAP2 SWAP1 PUSH2 0x5A2B JUMP JUMPDEST SWAP5 SWAP4 POP POP POP POP JUMP JUMPDEST PUSH1 0x40 MLOAD PUSH4 0x21F8A721 PUSH1 0xE0 SHL DUP2 MSTORE PUSH11 0x3937B632A6B0B730B3B2B9 PUSH1 0xA9 SHL PUSH1 0x4 DUP3 ADD MSTORE PUSH1 0x0 SWAP1 PUSH1 0x1 PUSH1 0x1 PUSH1 0xA0 SHL SUB DUP4 AND SWAP1 PUSH4 0x21F8A721 SWAP1 PUSH1 0x24 ADD JUMPDEST PUSH1 0x20 PUSH1 0x40 MLOAD DUP1 DUP4 SUB DUP2 DUP7 DUP1 EXTCODESIZE ISZERO DUP1 ISZERO PUSH2 0x3D98 JUMPI PUSH1 0x0 DUP1 REVERT JUMPDEST POP GAS STATICCALL ISZERO DUP1 ISZERO PUSH2 0x3DAC JUMPI RETURNDATASIZE PUSH1 0x0 DUP1 RETURNDATACOPY RETURNDATASIZE PUSH1 0x0 REVERT JUMPDEST POP POP POP POP PUSH1 0x40 MLOAD RETURNDATASIZE PUSH1 0x1F NOT PUSH1 0x1F DUP3 ADD AND DUP3 ADD DUP1 PUSH1 0x40 MSTORE POP DUP2 ADD SWAP1 PUSH2 0x9CB SWAP2 SWAP1 PUSH2 0x59CF JUMP JUMPDEST PUSH1 0x0 PUSH2 0x3DDB DUP3 PUSH2 0x4A8D JUMP JUMPDEST PUSH1 0x0 DUP3 DUP2 MSTORE PUSH1 0x1 PUSH1 0x20 MSTORE PUSH1 0x40 SWAP1 KECCAK256 SLOAD PUSH2 0x2493 DUP4 DUP3 PUSH2 0x4645 JUMP JUMPDEST PUSH1 0x0 DUP1 PUSH1 0x2 PUSH1 0x0 PUSH2 0x3E04 DUP7 PUSH2 0x40D3 JUMP JUMPDEST DUP2 MSTORE PUSH1 0x20 DUP2 ADD SWAP2 SWAP1 SWAP2 MSTORE PUSH1 0x40 ADD PUSH1 0x0 KECCAK256 SLOAD PUSH1 0x1 PUSH1 0x1 PUSH1 0xA0 SHL SUB AND SWAP1 POP DUP3 ISZERO DUP1 PUSH2 0x3E35 JUMPI POP PUSH1 0x1 PUSH1 0x1 PUSH1 0xA0 SHL SUB DUP2 AND ISZERO ISZERO JUMPDEST PUSH1 0x40 MLOAD DUP1 PUSH1 0x40 ADD PUSH1 0x40 MSTORE DUP1 PUSH1 0x12 DUP2 MSTORE PUSH1 0x20 ADD PUSH18 0x1C1C9BDD1BD8DBDB081B9BDD08199BDD5B99 PUSH1 0x72 SHL DUP2 MSTORE POP SWAP1 PUSH2 0x3E7E JUMPI PUSH1 0x40 MLOAD PUSH3 0x461BCD PUSH1 0xE5 SHL DUP2 MSTORE PUSH1 0x4 ADD PUSH2 0xAD2 SWAP2 SWAP1 PUSH2 0x599C JUMP JUMPDEST POP SWAP4 SWAP3 POP POP POP JUMP JUMPDEST PUSH1 0x40 MLOAD PUSH1 0x1 PUSH1 0x1 PUSH1 0xA0 SHL SUB DUP4 AND PUSH1 0x24 DUP3 ADD MSTORE PUSH1 0x44 DUP2 ADD DUP3 SWAP1 MSTORE PUSH2 0x3EE9 SWAP1 DUP5 SWAP1 PUSH4 0xA9059CBB PUSH1 0xE0 SHL SWAP1 PUSH1 0x64 ADD JUMPDEST PUSH1 0x40 DUP1 MLOAD PUSH1 0x1F NOT DUP2 DUP5 SUB ADD DUP2 MSTORE SWAP2 SWAP1 MSTORE PUSH1 0x20 DUP2 ADD DUP1 MLOAD PUSH1 0x1 PUSH1 0x1 PUSH1 0xE0 SHL SUB AND PUSH1 0x1 PUSH1 0x1 PUSH1 0xE0 SHL SUB NOT SWAP1 SWAP4 AND SWAP3 SWAP1 SWAP3 OR SWAP1 SWAP2 MSTORE PUSH2 0x4B36 JUMP JUMPDEST POP POP POP JUMP JUMPDEST PUSH1 0x1 PUSH1 0x1 PUSH1 0xA0 SHL SUB DUP1 DUP5 AND PUSH1 0x0 SWAP1 DUP2 MSTORE PUSH1 0xA PUSH1 0x20 SWAP1 DUP2 MSTORE PUSH1 0x40 DUP1 DUP4 KECCAK256 SWAP4 DUP7 AND DUP4 MSTORE SWAP3 DUP2 MSTORE DUP3 DUP3 KECCAK256 DUP5 DUP4 MSTORE SWAP1 MSTORE SWAP1 DUP2 KECCAK256 DUP1 SLOAD PUSH1 0x1 PUSH1 0x1 PUSH1 0xC0 SHL SUB NOT AND DUP2 SSTORE PUSH1 0x1 DUP2 ADD DUP1 SLOAD PUSH1 0x1 PUSH1 0x1 PUSH1 0xA0 SHL SUB NOT SWAP1 DUP2 AND SWAP1 SWAP2 SSTORE PUSH1 0x2 DUP3 ADD DUP1 SLOAD SWAP1 SWAP2 AND SWAP1 SSTORE PUSH1 0x3 DUP2 ADD SWAP2 SWAP1 SWAP2 SSTORE PUSH1 0x4 ADD DUP1 SLOAD PUSH17 0xFFFFFFFFFFFFFFFFFFFFFFFFFFFFFFFFFF NOT AND SWAP1 SSTORE PUSH2 0x3F79 DUP4 DUP4 DUP4 PUSH2 0x4C08 JUMP JUMPDEST PUSH1 0x1 PUSH1 0x1 PUSH1 0xA0 SHL SUB DUP4 AND PUSH1 0x0 SWAP1 DUP2 MSTORE PUSH1 0xB PUSH1 0x20 MSTORE PUSH1 0x40 SWAP1 KECCAK256 SLOAD PUSH2 0x3FA3 JUMPI PUSH2 0x3FA1 PUSH1 0xC DUP5 PUSH2 0x4D42 JUMP JUMPDEST POP JUMPDEST DUP1 DUP3 PUSH1 0x1 PUSH1 0x1 PUSH1 0xA0 SHL SUB AND DUP5 PUSH1 0x1 PUSH1 0x1 PUSH1 0xA0 SHL SUB AND PUSH32 0x9E42103DE6527E30E7BDDE19D27EC0A9936BCA0C315FBE2163514CC67F15CFA1 PUSH1 0x40 MLOAD PUSH1 0x40 MLOAD DUP1 SWAP2 SUB SWAP1 LOG4 POP POP POP JUMP JUMPDEST PUSH1 0x40 MLOAD PUSH4 0x21F8A721 PUSH1 0xE0 SHL DUP2 MSTORE PUSH7 0x67617342616E6B PUSH1 0xC8 SHL PUSH1 0x4 DUP3 ADD MSTORE PUSH1 0x0 SWAP1 PUSH1 0x1 PUSH1 0x1 PUSH1 0xA0 SHL SUB DUP4 AND SWAP1 PUSH4 0x21F8A721 SWAP1 PUSH1 0x24 ADD PUSH2 0x3D80 JUMP JUMPDEST PUSH1 0x0 DUP2 DUP2 MSTORE PUSH1 0x4 PUSH1 0x20 SWAP1 DUP2 MSTORE PUSH1 0x40 DUP1 DUP4 KECCAK256 SLOAD DUP2 MLOAD DUP1 DUP4 ADD SWAP1 SWAP3 MSTORE PUSH1 0x12 DUP3 MSTORE PUSH18 0x646561646C696E65206D757374206265203 PUSH1 0x74 SHL SWAP3 DUP3 ADD SWAP3 SWAP1 SWAP3 MSTORE SWAP1 PUSH2 0x407B JUMPI PUSH1 0x40 MLOAD PUSH3 0x461BCD PUSH1 0xE5 SHL DUP2 MSTORE PUSH1 0x4 ADD PUSH2 0xAD2 SWAP2 SWAP1 PUSH2 0x599C JUMP JUMPDEST POP PUSH1 0x0 DUP3 DUP2 MSTORE PUSH1 0x4 PUSH1 0x20 SWAP1 DUP2 MSTORE PUSH1 0x40 DUP1 DUP4 KECCAK256 DUP4 SWAP1 SSTORE SWAP1 DUP3 SWAP1 MSTORE DUP1 DUP3 KECCAK256 DUP1 SLOAD PUSH1 0x1 PUSH1 0x1 PUSH1 0xA0 SHL SUB NOT AND SWAP1 SSTORE MLOAD DUP4 SWAP2 PUSH32 0x90FB84AD67DD037C388289337BB80B61B8605D38BA9A875DC38B5600909D172F SWAP2 LOG2 POP PUSH1 0x1 SWAP2 SWAP1 POP JUMP JUMPDEST PUSH1 0x40 DUP1 MLOAD PUSH12 0x2A37B82AB82430B7323632B9 PUSH1 0xA1 SHL PUSH1 0x20 DUP3 ADD MSTORE SWAP1 DUP2 ADD DUP3 SWAP1 MSTORE PUSH1 0x0 SWAP1 PUSH1 0x60 ADD PUSH1 0x40 MLOAD PUSH1 0x20 DUP2 DUP4 SUB SUB DUP2 MSTORE SWAP1 PUSH1 0x40 MSTORE DUP1 MLOAD SWAP1 PUSH1 0x20 ADD KECCAK256 SWAP1 POP SWAP2 SWAP1 POP JUMP JUMPDEST PUSH1 0x0 PUSH2 0x4120 DUP3 PUSH2 0x4A8D JUMP JUMPDEST PUSH1 0x0 DUP3 DUP2 MSTORE PUSH1 0x20 DUP2 SWAP1 MSTORE PUSH1 0x40 SWAP1 KECCAK256 SLOAD PUSH1 0x1 PUSH1 0x1 PUSH1 0xA0 SHL SUB AND PUSH2 0x2493 DUP4 DUP3 PUSH2 0x45BA JUMP JUMPDEST PUSH1 0x1 PUSH1 0x1 PUSH1 0xA0 SHL SUB DUP2 AND PUSH2 0x4161 JUMPI PUSH2 0x415B PUSH1 0x8 DUP5 PUSH2 0x4D57 JUMP JUMPDEST POP POP POP POP JUMP JUMPDEST PUSH1 0x1 PUSH1 0x1 PUSH1 0xA0 SHL SUB DUP3 AND PUSH2 0x3EE9 JUMPI PUSH2 0x415B PUSH1 0x8 DUP5 PUSH2 0x4D63 JUMP JUMPDEST PUSH1 0x0 PUSH2 0xDF1 DUP4 DUP4 PUSH3 0x3F480 PUSH2 0x4D6F JUMP JUMPDEST PUSH1 0x0 PUSH8 0xDE0B6B3A7640000 PUSH2 0x419F DUP4 DUP6 PUSH2 0x5A5A JUMP JUMPDEST PUSH2 0xDF1 SWAP2 SWAP1 PUSH2 0x5A91 JUMP JUMPDEST PUSH1 0x0 DUP2 PUSH2 0x419F PUSH8 0xDE0B6B3A7640000 DUP6 PUSH2 0x5A5A JUMP JUMPDEST PUSH1 0x40 MLOAD PUSH4 0x76B48051 PUSH1 0xE0 SHL DUP2 MSTORE PUSH1 0x1 PUSH1 0x1 PUSH1 0xA0 SHL SUB PUSH32 0x0 DUP2 AND PUSH1 0x4 DUP4 ADD MSTORE DUP1 DUP5 AND PUSH1 0x24 DUP4 ADD MSTORE DUP3 AND PUSH1 0x44 DUP3 ADD MSTORE PUSH1 0x0 SWAP1 PUSH20 0x0 SWAP1 PUSH4 0x76B48051 SWAP1 PUSH1 0x64 ADD PUSH1 0x20 PUSH1 0x40 MLOAD DUP1 DUP4 SUB DUP2 DUP7 DUP1 EXTCODESIZE ISZERO DUP1 ISZERO PUSH2 0x4244 JUMPI PUSH1 0x0 DUP1 REVERT JUMPDEST POP GAS DELEGATECALL ISZERO DUP1 ISZERO PUSH2 0x4258 JUMPI RETURNDATASIZE PUSH1 0x0 DUP1 RETURNDATACOPY RETURNDATASIZE PUSH1 0x0 REVERT JUMPDEST POP POP POP POP PUSH1 0x40 MLOAD RETURNDATASIZE PUSH1 0x1F NOT PUSH1 0x1F DUP3 ADD AND DUP3 ADD DUP1 PUSH1 0x40 MSTORE POP DUP2 ADD SWAP1 PUSH2 0xDF1 SWAP2 SWAP1 PUSH2 0x59CF JUMP JUMPDEST PUSH1 0x0 DUP2 PUSH1 0x1 DUP2 PUSH2 0x4294 PUSH8 0xDE0B6B3A7640000 DUP8 PUSH2 0x5A5A JUMP JUMPDEST PUSH2 0x429E SWAP2 SWAP1 PUSH2 0x5A79 JUMP JUMPDEST PUSH2 0x419F SWAP2 SWAP1 PUSH2 0x5AB3 JUMP JUMPDEST PUSH1 0x40 MLOAD PUSH4 0x6EB1769F PUSH1 0xE1 SHL DUP2 MSTORE ADDRESS PUSH1 0x4 DUP3 ADD MSTORE PUSH1 0x1 PUSH1 0x1 PUSH1 0xA0 SHL SUB DUP3 DUP2 AND PUSH1 0x24 DUP4 ADD MSTORE PUSH1 0x0 SWAP2 SWAP1 DUP5 AND SWAP1 PUSH4 0xDD62ED3E SWAP1 PUSH1 0x44 ADD PUSH1 0x20 PUSH1 0x40 MLOAD DUP1 DUP4 SUB DUP2 DUP7 DUP1 EXTCODESIZE ISZERO DUP1 ISZERO PUSH2 0x42F3 JUMPI PUSH1 0x0 DUP1 REVERT JUMPDEST POP GAS STATICCALL ISZERO DUP1 ISZERO PUSH2 0x4307 JUMPI RETURNDATASIZE PUSH1 0x0 DUP1 RETURNDATACOPY RETURNDATASIZE PUSH1 0x0 REVERT JUMPDEST POP POP POP POP PUSH1 0x40 MLOAD RETURNDATASIZE PUSH1 0x1F NOT PUSH1 0x1F DUP3 ADD AND DUP3 ADD DUP1 PUSH1 0x40 MSTORE POP DUP2 ADD SWAP1 PUSH2 0x432B SWAP2 SWAP1 PUSH2 0x5A2B JUMP JUMPDEST GT ISZERO PUSH2 0x4335 JUMPI POP POP JUMP JUMPDEST PUSH2 0x434B PUSH1 0x1 PUSH1 0x1 PUSH1 0xA0 SHL SUB DUP4 AND DUP3 PUSH1 0x0 NOT PUSH2 0x4DD3 JUMP JUMPDEST POP POP JUMP JUMPDEST PUSH1 0x0 PUSH2 0x4359 PUSH2 0x2E6B JUMP JUMPDEST SWAP1 POP PUSH2 0x436F PUSH1 0x1 PUSH1 0x1 PUSH1 0xA0 SHL SUB DUP4 AND DUP3 DUP6 PUSH2 0x4DD3 JUMP JUMPDEST PUSH1 0x40 MLOAD PUSH4 0x67EC9F19 PUSH1 0xE1 SHL DUP2 MSTORE PUSH1 0x1 PUSH1 0x1 PUSH1 0xA0 SHL SUB DUP7 DUP2 AND PUSH1 0x4 DUP4 ADD MSTORE DUP6 DUP2 AND PUSH1 0x24 DUP4 ADD MSTORE PUSH1 0x44 DUP3 ADD DUP6 SWAP1 MSTORE DUP4 DUP2 AND PUSH1 0x64 DUP4 ADD MSTORE DUP3 AND SWAP1 PUSH4 0xCFD93E32 SWAP1 PUSH1 0x84 ADD PUSH1 0x20 PUSH1 0x40 MLOAD DUP1 DUP4 SUB DUP2 PUSH1 0x0 DUP8 DUP1 EXTCODESIZE ISZERO DUP1 ISZERO PUSH2 0x43C9 JUMPI PUSH1 0x0 DUP1 REVERT JUMPDEST POP GAS CALL ISZERO DUP1 ISZERO PUSH2 0x43DD JUMPI RETURNDATASIZE PUSH1 0x0 DUP1 RETURNDATACOPY RETURNDATASIZE PUSH1 0x0 REVERT JUMPDEST POP POP POP POP PUSH1 0x40 MLOAD RETURNDATASIZE PUSH1 0x1F NOT PUSH1 0x1F DUP3 ADD AND DUP3 ADD DUP1 PUSH1 0x40 MSTORE POP DUP2 ADD SWAP1 PUSH2 0x33AD SWAP2 SWAP1 PUSH2 0x5A0E JUMP JUMPDEST PUSH1 0x0 PUSH2 0x9CB DUP3 SLOAD SWAP1 JUMP JUMPDEST PUSH1 0x0 PUSH2 0xDF1 DUP4 DUP4 PUSH2 0x4EF7 JUMP JUMPDEST PUSH1 0x0 PUSH2 0xDF1 DUP4 DUP4 PUSH3 0x3F480 PUSH2 0x4F21 JUMP JUMPDEST PUSH1 0x0 DUP2 PUSH1 0x1 PUSH2 0x429E DUP3 DUP7 PUSH2 0x5A79 JUMP JUMPDEST PUSH1 0x0 PUSH2 0xDF1 DUP4 PUSH1 0x1 PUSH1 0x1 PUSH1 0xA0 SHL SUB DUP5 AND PUSH2 0x4F8E JUMP JUMPDEST PUSH1 0x1 PUSH1 0x1 PUSH1 0xA0 SHL SUB DUP2 AND PUSH1 0x0 SWAP1 DUP2 MSTORE PUSH1 0x1 DUP4 ADD PUSH1 0x20 MSTORE PUSH1 0x40 DUP2 KECCAK256 SLOAD ISZERO ISZERO PUSH2 0xDF1 JUMP JUMPDEST PUSH1 0x0 DUP2 DUP2 MSTORE PUSH1 0x4 PUSH1 0x20 SWAP1 DUP2 MSTORE PUSH1 0x40 DUP1 DUP4 KECCAK256 SLOAD DUP2 MLOAD DUP1 DUP4 ADD SWAP1 SWAP3 MSTORE PUSH1 0x12 DUP3 MSTORE PUSH18 0x646561646C696E65206D757374206265203 PUSH1 0x74 SHL SWAP3 DUP3 ADD SWAP3 SWAP1 SWAP3 MSTORE SWAP1 PUSH2 0x44C6 JUMPI PUSH1 0x40 MLOAD PUSH3 0x461BCD PUSH1 0xE5 SHL DUP2 MSTORE PUSH1 0x4 ADD PUSH2 0xAD2 SWAP2 SWAP1 PUSH2 0x599C JUMP JUMPDEST POP PUSH1 0x0 DUP3 DUP2 MSTORE PUSH1 0x4 PUSH1 0x20 SWAP1 DUP2 MSTORE PUSH1 0x40 DUP1 DUP4 KECCAK256 DUP4 SWAP1 SSTORE PUSH1 0x1 SWAP1 SWAP2 MSTORE DUP1 DUP3 KECCAK256 DUP3 SWAP1 SSTORE MLOAD DUP4 SWAP2 PUSH32 0x90FB84AD67DD037C388289337BB80B61B8605D38BA9A875DC38B5600909D172F SWAP2 LOG2 POP PUSH1 0x1 SWAP2 SWAP1 POP JUMP JUMPDEST PUSH1 0x60 PUSH1 0x0 PUSH2 0x4521 DUP4 PUSH2 0x4401 JUMP JUMPDEST SWAP1 POP PUSH1 0x0 DUP2 PUSH1 0x1 PUSH1 0x1 PUSH1 0x40 SHL SUB DUP2 GT ISZERO PUSH2 0x453D JUMPI PUSH2 0x453D PUSH2 0x5810 JUMP JUMPDEST PUSH1 0x40 MLOAD SWAP1 DUP1 DUP3 MSTORE DUP1 PUSH1 0x20 MUL PUSH1 0x20 ADD DUP3 ADD PUSH1 0x40 MSTORE DUP1 ISZERO PUSH2 0x4566 JUMPI DUP2 PUSH1 0x20 ADD PUSH1 0x20 DUP3 MUL DUP1 CALLDATASIZE DUP4 CALLDATACOPY ADD SWAP1 POP JUMPDEST POP SWAP1 POP PUSH1 0x0 JUMPDEST DUP3 DUP2 LT ISZERO PUSH2 0x3E7E JUMPI PUSH2 0x457E DUP6 DUP3 PUSH2 0x440B JUMP JUMPDEST DUP3 DUP3 DUP2 MLOAD DUP2 LT PUSH2 0x4590 JUMPI PUSH2 0x4590 PUSH2 0x5B0E JUMP JUMPDEST PUSH1 0x1 PUSH1 0x1 PUSH1 0xA0 SHL SUB SWAP1 SWAP3 AND PUSH1 0x20 SWAP3 DUP4 MUL SWAP2 SWAP1 SWAP2 ADD SWAP1 SWAP2 ADD MSTORE DUP1 PUSH2 0x45B2 DUP2 PUSH2 0x5B24 JUMP JUMPDEST SWAP2 POP POP PUSH2 0x456C JUMP JUMPDEST PUSH1 0x0 DUP3 DUP2 MSTORE PUSH1 0x2 PUSH1 0x20 SWAP1 DUP2 MSTORE PUSH1 0x40 DUP1 DUP4 KECCAK256 DUP1 SLOAD PUSH1 0x1 PUSH1 0x1 PUSH1 0xA0 SHL SUB NOT DUP1 DUP3 AND PUSH1 0x1 PUSH1 0x1 PUSH1 0xA0 SHL SUB DUP9 DUP2 AND SWAP2 DUP3 OR SWAP1 SWAP5 SSTORE DUP7 DUP7 MSTORE DUP5 DUP8 KECCAK256 DUP1 SLOAD SWAP1 SWAP3 AND SWAP1 SWAP2 SSTORE PUSH1 0x4 DUP6 MSTORE DUP4 DUP7 KECCAK256 DUP7 SWAP1 SSTORE DUP4 MLOAD SWAP3 SWAP1 SWAP2 AND DUP1 DUP4 MSTORE SWAP4 DUP3 ADD MSTORE DUP6 SWAP2 PUSH32 0xC4A957706C639829AD54381B04930C464DB6C7FFDC09D2B4B1ACC9EE34FB9261 SWAP2 ADD JUMPDEST PUSH1 0x40 MLOAD DUP1 SWAP2 SUB SWAP1 LOG2 POP SWAP1 SWAP3 SWAP2 POP POP JUMP JUMPDEST PUSH1 0x0 DUP3 DUP2 MSTORE PUSH1 0x3 PUSH1 0x20 SWAP1 DUP2 MSTORE PUSH1 0x40 DUP1 DUP4 KECCAK256 DUP1 SLOAD SWAP1 DUP6 SWAP1 SSTORE PUSH1 0x1 DUP4 MSTORE DUP2 DUP5 KECCAK256 DUP5 SWAP1 SSTORE PUSH1 0x4 DUP4 MSTORE DUP2 DUP5 KECCAK256 DUP5 SWAP1 SSTORE DUP2 MLOAD DUP2 DUP2 MSTORE SWAP3 DUP4 ADD DUP6 SWAP1 MSTORE SWAP2 DUP6 SWAP2 PUSH32 0xCC0BAFE2ACCB565EA70674BF4B2555E49A47D410FB9932DFAB3E5F41855D0A2F SWAP2 ADD PUSH2 0x4635 JUMP JUMPDEST PUSH1 0x0 DUP2 DUP2 MSTORE PUSH1 0x1 DUP4 ADD PUSH1 0x20 MSTORE PUSH1 0x40 DUP2 KECCAK256 SLOAD ISZERO ISZERO PUSH2 0xDF1 JUMP JUMPDEST PUSH1 0x40 MLOAD PUSH4 0x956FEF3 PUSH1 0xE2 SHL DUP2 MSTORE PUSH1 0x1 PUSH1 0x1 PUSH1 0xA0 SHL SUB DUP4 DUP2 AND PUSH1 0x4 DUP4 ADD MSTORE PUSH1 0x0 SWAP2 DUP3 SWAP2 PUSH32 0x0 AND SWAP1 PUSH4 0x255BFBCC SWAP1 PUSH1 0x24 ADD PUSH1 0x20 PUSH1 0x40 MLOAD DUP1 DUP4 SUB DUP2 DUP7 DUP1 EXTCODESIZE ISZERO DUP1 ISZERO PUSH2 0x4724 JUMPI PUSH1 0x0 DUP1 REVERT JUMPDEST POP GAS STATICCALL ISZERO DUP1 ISZERO PUSH2 0x4738 JUMPI RETURNDATASIZE PUSH1 0x0 DUP1 RETURNDATACOPY RETURNDATASIZE PUSH1 0x0 REVERT JUMPDEST POP POP POP POP PUSH1 0x40 MLOAD RETURNDATASIZE PUSH1 0x1F NOT PUSH1 0x1F DUP3 ADD AND DUP3 ADD DUP1 PUSH1 0x40 MSTORE POP DUP2 ADD SWAP1 PUSH2 0x475C SWAP2 SWAP1 PUSH2 0x59CF JUMP JUMPDEST SWAP1 POP PUSH1 0x0 DUP2 PUSH1 0x1 PUSH1 0x1 PUSH1 0xA0 SHL SUB AND PUSH4 0x9816F473 PUSH1 0x40 MLOAD DUP2 PUSH4 0xFFFFFFFF AND PUSH1 0xE0 SHL DUP2 MSTORE PUSH1 0x4 ADD PUSH1 0x20 PUSH1 0x40 MLOAD DUP1 DUP4 SUB DUP2 DUP7 DUP1 EXTCODESIZE ISZERO DUP1 ISZERO PUSH2 0x4799 JUMPI PUSH1 0x0 DUP1 REVERT JUMPDEST POP GAS STATICCALL ISZERO DUP1 ISZERO PUSH2 0x47AD JUMPI RETURNDATASIZE PUSH1 0x0 DUP1 RETURNDATACOPY RETURNDATASIZE PUSH1 0x0 REVERT JUMPDEST POP POP POP POP PUSH1 0x40 MLOAD RETURNDATASIZE PUSH1 0x1F NOT PUSH1 0x1F DUP3 ADD AND DUP3 ADD DUP1 PUSH1 0x40 MSTORE POP DUP2 ADD SWAP1 PUSH2 0x47D1 SWAP2 SWAP1 PUSH2 0x59CF JUMP JUMPDEST SWAP1 POP DUP4 PUSH1 0x1 PUSH1 0x1 PUSH1 0xA0 SHL SUB AND DUP2 PUSH1 0x1 PUSH1 0x1 PUSH1 0xA0 SHL SUB AND EQ ISZERO PUSH2 0x47F8 JUMPI PUSH1 0x1 SWAP3 POP POP POP PUSH2 0x9CB JUMP JUMPDEST PUSH1 0x0 PUSH2 0x482C PUSH32 0x0 PUSH1 0x1 PUSH1 0x1 PUSH1 0xA0 SHL SUB AND PUSH2 0x4FDD JUMP JUMPDEST PUSH1 0x40 MLOAD PUSH4 0x1F354D5 PUSH1 0xE2 SHL DUP2 MSTORE PUSH1 0x1 PUSH1 0x1 PUSH1 0xA0 SHL SUB DUP5 DUP2 AND PUSH1 0x4 DUP4 ADD MSTORE DUP8 DUP2 AND PUSH1 0x24 DUP4 ADD MSTORE SWAP2 SWAP3 POP SWAP1 DUP3 AND SWAP1 PUSH4 0x7CD5354 SWAP1 PUSH1 0x44 ADD PUSH1 0x20 PUSH1 0x40 MLOAD DUP1 DUP4 SUB DUP2 DUP7 DUP1 EXTCODESIZE ISZERO DUP1 ISZERO PUSH2 0x4879 JUMPI PUSH1 0x0 DUP1 REVERT JUMPDEST POP GAS STATICCALL ISZERO DUP1 ISZERO PUSH2 0x488D JUMPI RETURNDATASIZE PUSH1 0x0 DUP1 RETURNDATACOPY RETURNDATASIZE PUSH1 0x0 REVERT JUMPDEST POP POP POP POP PUSH1 0x40 MLOAD RETURNDATASIZE PUSH1 0x1F NOT PUSH1 0x1F DUP3 ADD AND DUP3 ADD DUP1 PUSH1 0x40 MSTORE POP DUP2 ADD SWAP1 PUSH2 0x48B1 SWAP2 SWAP1 PUSH2 0x5A0E JUMP JUMPDEST SWAP7 SWAP6 POP POP POP POP POP POP JUMP JUMPDEST PUSH1 0x40 MLOAD PUSH4 0x69C2390B PUSH1 0xE1 SHL DUP2 MSTORE PUSH1 0x1 PUSH1 0x1 PUSH1 0xA0 SHL SUB PUSH32 0x0 DUP2 AND PUSH1 0x4 DUP4 ADD MSTORE DUP1 DUP6 AND PUSH1 0x24 DUP4 ADD MSTORE DUP4 AND PUSH1 0x44 DUP3 ADD MSTORE PUSH1 0x64 DUP2 ADD DUP3 SWAP1 MSTORE PUSH1 0x0 SWAP1 PUSH20 0x0 SWAP1 PUSH4 0xD3847216 SWAP1 PUSH1 0x84 ADD PUSH1 0x20 PUSH1 0x40 MLOAD DUP1 DUP4 SUB DUP2 DUP7 DUP1 EXTCODESIZE ISZERO DUP1 ISZERO PUSH2 0x4948 JUMPI PUSH1 0x0 DUP1 REVERT JUMPDEST POP GAS DELEGATECALL ISZERO DUP1 ISZERO PUSH2 0x3D1B JUMPI RETURNDATASIZE PUSH1 0x0 DUP1 RETURNDATACOPY RETURNDATASIZE PUSH1 0x0 REVERT JUMPDEST PUSH1 0x40 MLOAD PUSH4 0x59EADEB PUSH1 0xE4 SHL DUP2 MSTORE PUSH1 0x1 PUSH1 0x1 PUSH1 0xA0 SHL SUB DUP5 DUP2 AND PUSH1 0x4 DUP4 ADD MSTORE PUSH1 0x0 SWAP2 PUSH32 0x0 SWAP1 SWAP2 AND SWAP1 PUSH4 0x59EADEB0 SWAP1 PUSH1 0x24 ADD PUSH1 0x20 PUSH1 0x40 MLOAD DUP1 DUP4 SUB DUP2 DUP7 DUP1 EXTCODESIZE ISZERO DUP1 ISZERO PUSH2 0x49C2 JUMPI PUSH1 0x0 DUP1 REVERT JUMPDEST POP GAS STATICCALL ISZERO DUP1 ISZERO PUSH2 0x49D6 JUMPI RETURNDATASIZE PUSH1 0x0 DUP1 RETURNDATACOPY RETURNDATASIZE PUSH1 0x0 REVERT JUMPDEST POP POP POP POP PUSH1 0x40 MLOAD RETURNDATASIZE PUSH1 0x1F NOT PUSH1 0x1F DUP3 ADD AND DUP3 ADD DUP1 PUSH1 0x40 MSTORE POP DUP2 ADD SWAP1 PUSH2 0x49FA SWAP2 SWAP1 PUSH2 0x59CF JUMP JUMPDEST PUSH1 0x40 MLOAD PUSH4 0x1B891053 PUSH1 0xE3 SHL DUP2 MSTORE PUSH1 0x1 PUSH1 0x1 PUSH1 0xA0 SHL SUB DUP1 DUP4 AND PUSH1 0x4 DUP4 ADD MSTORE DUP1 DUP9 AND PUSH1 0x24 DUP4 ADD MSTORE DUP7 AND PUSH1 0x44 DUP3 ADD MSTORE PUSH1 0x64 DUP2 ADD DUP6 SWAP1 MSTORE PUSH1 0x84 DUP2 ADD DUP5 SWAP1 MSTORE SWAP1 SWAP2 POP PUSH20 0x0 SWAP1 PUSH4 0xDC488298 SWAP1 PUSH1 0xA4 ADD PUSH1 0x0 PUSH1 0x40 MLOAD DUP1 DUP4 SUB DUP2 DUP7 DUP1 EXTCODESIZE ISZERO DUP1 ISZERO PUSH2 0x4A6E JUMPI PUSH1 0x0 DUP1 REVERT JUMPDEST POP GAS DELEGATECALL ISZERO DUP1 ISZERO PUSH2 0x4A82 JUMPI RETURNDATASIZE PUSH1 0x0 DUP1 RETURNDATACOPY RETURNDATASIZE PUSH1 0x0 REVERT JUMPDEST POP POP POP POP POP POP POP POP POP JUMP JUMPDEST PUSH1 0x0 PUSH1 0x4 PUSH1 0x0 DUP4 DUP2 MSTORE PUSH1 0x20 ADD SWAP1 DUP2 MSTORE PUSH1 0x20 ADD PUSH1 0x0 KECCAK256 SLOAD SWAP1 POP DUP1 TIMESTAMP LT ISZERO PUSH1 0x40 MLOAD DUP1 PUSH1 0x60 ADD PUSH1 0x40 MSTORE DUP1 PUSH1 0x21 DUP2 MSTORE PUSH1 0x20 ADD PUSH2 0x5BE6 PUSH1 0x21 SWAP2 CODECOPY SWAP1 PUSH2 0x4AE0 JUMPI PUSH1 0x40 MLOAD PUSH3 0x461BCD PUSH1 0xE5 SHL DUP2 MSTORE PUSH1 0x4 ADD PUSH2 0xAD2 SWAP2 SWAP1 PUSH2 0x599C JUMP JUMPDEST POP PUSH1 0x40 DUP1 MLOAD DUP1 DUP3 ADD SWAP1 SWAP2 MSTORE PUSH1 0xD DUP2 MSTORE PUSH13 0x646561646C696E65206973203 PUSH1 0x9C SHL PUSH1 0x20 DUP3 ADD MSTORE DUP2 PUSH2 0x4B23 JUMPI PUSH1 0x40 MLOAD PUSH3 0x461BCD PUSH1 0xE5 SHL DUP2 MSTORE PUSH1 0x4 ADD PUSH2 0xAD2 SWAP2 SWAP1 PUSH2 0x599C JUMP JUMPDEST POP POP PUSH1 0x0 SWAP1 DUP2 MSTORE PUSH1 0x4 PUSH1 0x20 MSTORE PUSH1 0x40 DUP2 KECCAK256 SSTORE JUMP JUMPDEST PUSH1 0x0 PUSH2 0x4B8B DUP3 PUSH1 0x40 MLOAD DUP1 PUSH1 0x40 ADD PUSH1 0x40 MSTORE DUP1 PUSH1 0x20 DUP2 MSTORE PUSH1 0x20 ADD PUSH32 0x5361666545524332303A206C6F772D6C6576656C2063616C6C206661696C6564 DUP2 MSTORE POP DUP6 PUSH1 0x1 PUSH1 0x1 PUSH1 0xA0 SHL SUB AND PUSH2 0x501E SWAP1 SWAP3 SWAP2 SWAP1 PUSH4 0xFFFFFFFF AND JUMP JUMPDEST DUP1 MLOAD SWAP1 SWAP2 POP ISZERO PUSH2 0x3EE9 JUMPI DUP1 DUP1 PUSH1 0x20 ADD SWAP1 MLOAD DUP2 ADD SWAP1 PUSH2 0x4BA9 SWAP2 SWAP1 PUSH2 0x5A0E JUMP JUMPDEST PUSH2 0x3EE9 JUMPI PUSH1 0x40 MLOAD PUSH3 0x461BCD PUSH1 0xE5 SHL DUP2 MSTORE PUSH1 0x20 PUSH1 0x4 DUP3 ADD MSTORE PUSH1 0x2A PUSH1 0x24 DUP3 ADD MSTORE PUSH32 0x5361666545524332303A204552433230206F7065726174696F6E20646964206E PUSH1 0x44 DUP3 ADD MSTORE PUSH10 0x1BDD081CDD58D8D95959 PUSH1 0xB2 SHL PUSH1 0x64 DUP3 ADD MSTORE PUSH1 0x84 ADD PUSH2 0xAD2 JUMP JUMPDEST PUSH1 0x1 PUSH1 0x1 PUSH1 0xA0 SHL SUB DUP4 AND PUSH1 0x0 SWAP1 DUP2 MSTORE PUSH1 0xB PUSH1 0x20 MSTORE PUSH1 0x40 DUP2 KECCAK256 DUP1 SLOAD SWAP1 SWAP2 JUMPDEST DUP2 DUP2 LT ISZERO PUSH2 0x33AD JUMPI PUSH1 0x0 DUP4 DUP3 DUP2 SLOAD DUP2 LT PUSH2 0x4C41 JUMPI PUSH2 0x4C41 PUSH2 0x5B0E JUMP JUMPDEST PUSH1 0x0 SWAP2 DUP3 MSTORE PUSH1 0x20 SWAP1 SWAP2 KECCAK256 PUSH1 0x2 SWAP1 SWAP2 MUL ADD DUP1 SLOAD SWAP1 SWAP2 POP PUSH1 0x1 PUSH1 0x1 PUSH1 0xA0 SHL SUB DUP8 DUP2 AND SWAP2 AND EQ DUP1 ISZERO PUSH2 0x4C73 JUMPI POP DUP5 DUP2 PUSH1 0x1 ADD SLOAD EQ JUMPDEST ISZERO PUSH2 0x4D2F JUMPI DUP4 PUSH2 0x4C84 PUSH1 0x1 DUP6 PUSH2 0x5AB3 JUMP JUMPDEST DUP2 SLOAD DUP2 LT PUSH2 0x4C94 JUMPI PUSH2 0x4C94 PUSH2 0x5B0E JUMP JUMPDEST SWAP1 PUSH1 0x0 MSTORE PUSH1 0x20 PUSH1 0x0 KECCAK256 SWAP1 PUSH1 0x2 MUL ADD DUP5 DUP4 DUP2 SLOAD DUP2 LT PUSH2 0x4CB4 JUMPI PUSH2 0x4CB4 PUSH2 0x5B0E JUMP JUMPDEST PUSH1 0x0 SWAP2 DUP3 MSTORE PUSH1 0x20 SWAP1 SWAP2 KECCAK256 DUP3 SLOAD PUSH1 0x2 SWAP1 SWAP3 MUL ADD DUP1 SLOAD PUSH1 0x1 PUSH1 0x1 PUSH1 0xA0 SHL SUB NOT AND PUSH1 0x1 PUSH1 0x1 PUSH1 0xA0 SHL SUB SWAP1 SWAP3 AND SWAP2 SWAP1 SWAP2 OR DUP2 SSTORE PUSH1 0x1 SWAP2 DUP3 ADD SLOAD SWAP2 ADD SSTORE DUP4 SLOAD DUP5 SWAP1 DUP1 PUSH2 0x4CFD JUMPI PUSH2 0x4CFD PUSH2 0x5B3F JUMP JUMPDEST PUSH1 0x0 DUP3 DUP2 MSTORE PUSH1 0x20 DUP2 KECCAK256 PUSH1 0x2 PUSH1 0x0 NOT SWAP1 SWAP4 ADD SWAP3 DUP4 MUL ADD DUP1 SLOAD PUSH1 0x1 PUSH1 0x1 PUSH1 0xA0 SHL SUB NOT AND DUP2 SSTORE PUSH1 0x1 ADD SSTORE SWAP1 SSTORE POP POP POP POP POP POP POP JUMP JUMPDEST POP DUP1 PUSH2 0x4D3A DUP2 PUSH2 0x5B24 JUMP JUMPDEST SWAP2 POP POP PUSH2 0x4C25 JUMP JUMPDEST PUSH1 0x0 PUSH2 0xDF1 DUP4 PUSH1 0x1 PUSH1 0x1 PUSH1 0xA0 SHL SUB DUP5 AND PUSH2 0x502D JUMP JUMPDEST PUSH1 0x0 PUSH2 0xDF1 DUP4 DUP4 PUSH2 0x502D JUMP JUMPDEST PUSH1 0x0 PUSH2 0xDF1 DUP4 DUP4 PUSH2 0x4F8E JUMP JUMPDEST PUSH1 0x0 PUSH2 0x4D7B DUP5 DUP4 PUSH2 0x5120 JUMP JUMPDEST PUSH1 0x0 DUP5 DUP2 MSTORE PUSH1 0x1 PUSH1 0x20 SWAP1 DUP2 MSTORE PUSH1 0x40 SWAP2 DUP3 SWAP1 KECCAK256 DUP6 SWAP1 SSTORE DUP2 MLOAD DUP6 DUP2 MSTORE SWAP1 DUP2 ADD DUP5 SWAP1 MSTORE DUP6 SWAP2 PUSH32 0xE6790002E78FB96FF1FDFE3A3BB2A86489D3F3923372C1FE5B6B1FED071EED4 SWAP2 ADD JUMPDEST PUSH1 0x40 MLOAD DUP1 SWAP2 SUB SWAP1 LOG2 POP PUSH1 0x1 SWAP4 SWAP3 POP POP POP JUMP JUMPDEST DUP1 ISZERO DUP1 PUSH2 0x4E5C JUMPI POP PUSH1 0x40 MLOAD PUSH4 0x6EB1769F PUSH1 0xE1 SHL DUP2 MSTORE ADDRESS PUSH1 0x4 DUP3 ADD MSTORE PUSH1 0x1 PUSH1 0x1 PUSH1 0xA0 SHL SUB DUP4 DUP2 AND PUSH1 0x24 DUP4 ADD MSTORE DUP5 AND SWAP1 PUSH4 0xDD62ED3E SWAP1 PUSH1 0x44 ADD PUSH1 0x20 PUSH1 0x40 MLOAD DUP1 DUP4 SUB DUP2 DUP7 DUP1 EXTCODESIZE ISZERO DUP1 ISZERO PUSH2 0x4E22 JUMPI PUSH1 0x0 DUP1 REVERT JUMPDEST POP GAS STATICCALL ISZERO DUP1 ISZERO PUSH2 0x4E36 JUMPI RETURNDATASIZE PUSH1 0x0 DUP1 RETURNDATACOPY RETURNDATASIZE PUSH1 0x0 REVERT JUMPDEST POP POP POP POP PUSH1 0x40 MLOAD RETURNDATASIZE PUSH1 0x1F NOT PUSH1 0x1F DUP3 ADD AND DUP3 ADD DUP1 PUSH1 0x40 MSTORE POP DUP2 ADD SWAP1 PUSH2 0x4E5A SWAP2 SWAP1 PUSH2 0x5A2B JUMP JUMPDEST ISZERO JUMPDEST PUSH2 0x4EC7 JUMPI PUSH1 0x40 MLOAD PUSH3 0x461BCD PUSH1 0xE5 SHL DUP2 MSTORE PUSH1 0x20 PUSH1 0x4 DUP3 ADD MSTORE PUSH1 0x36 PUSH1 0x24 DUP3 ADD MSTORE PUSH32 0x5361666545524332303A20617070726F76652066726F6D206E6F6E2D7A65726F PUSH1 0x44 DUP3 ADD MSTORE PUSH22 0x20746F206E6F6E2D7A65726F20616C6C6F77616E6365 PUSH1 0x50 SHL PUSH1 0x64 DUP3 ADD MSTORE PUSH1 0x84 ADD PUSH2 0xAD2 JUMP JUMPDEST PUSH1 0x40 MLOAD PUSH1 0x1 PUSH1 0x1 PUSH1 0xA0 SHL SUB DUP4 AND PUSH1 0x24 DUP3 ADD MSTORE PUSH1 0x44 DUP2 ADD DUP3 SWAP1 MSTORE PUSH2 0x3EE9 SWAP1 DUP5 SWAP1 PUSH4 0x95EA7B3 PUSH1 0xE0 SHL SWAP1 PUSH1 0x64 ADD PUSH2 0x3EB2 JUMP JUMPDEST PUSH1 0x0 DUP3 PUSH1 0x0 ADD DUP3 DUP2 SLOAD DUP2 LT PUSH2 0x4F0E JUMPI PUSH2 0x4F0E PUSH2 0x5B0E JUMP JUMPDEST SWAP1 PUSH1 0x0 MSTORE PUSH1 0x20 PUSH1 0x0 KECCAK256 ADD SLOAD SWAP1 POP SWAP3 SWAP2 POP POP JUMP JUMPDEST PUSH1 0x0 PUSH2 0x4F2D DUP5 DUP4 PUSH2 0x5120 JUMP JUMPDEST PUSH1 0x0 DUP5 DUP2 MSTORE PUSH1 0x20 DUP2 DUP2 MSTORE PUSH1 0x40 SWAP2 DUP3 SWAP1 KECCAK256 DUP1 SLOAD PUSH1 0x1 PUSH1 0x1 PUSH1 0xA0 SHL SUB NOT AND PUSH1 0x1 PUSH1 0x1 PUSH1 0xA0 SHL SUB DUP8 AND SWAP1 DUP2 OR SWAP1 SWAP2 SSTORE DUP3 MLOAD SWAP1 DUP2 MSTORE SWAP1 DUP2 ADD DUP5 SWAP1 MSTORE DUP6 SWAP2 PUSH32 0xD46E58EE9DC1AE703349F8C09C19F23213A531B4D57F00CFD4A5A6CB6519668D SWAP2 ADD PUSH2 0x4DC1 JUMP JUMPDEST PUSH1 0x0 DUP2 DUP2 MSTORE PUSH1 0x1 DUP4 ADD PUSH1 0x20 MSTORE PUSH1 0x40 DUP2 KECCAK256 SLOAD PUSH2 0x4FD5 JUMPI POP DUP2 SLOAD PUSH1 0x1 DUP2 DUP2 ADD DUP5 SSTORE PUSH1 0x0 DUP5 DUP2 MSTORE PUSH1 0x20 DUP1 DUP3 KECCAK256 SWAP1 SWAP4 ADD DUP5 SWAP1 SSTORE DUP5 SLOAD DUP5 DUP3 MSTORE DUP3 DUP7 ADD SWAP1 SWAP4 MSTORE PUSH1 0x40 SWAP1 KECCAK256 SWAP2 SWAP1 SWAP2 SSTORE PUSH2 0x9CB JUMP JUMPDEST POP PUSH1 0x0 PUSH2 0x9CB JUMP JUMPDEST PUSH1 0x40 MLOAD PUSH4 0x21F8A721 PUSH1 0xE0 SHL DUP2 MSTORE PUSH15 0x737761707065725265676973747279 PUSH1 0x88 SHL PUSH1 0x4 DUP3 ADD MSTORE PUSH1 0x0 SWAP1 PUSH1 0x1 PUSH1 0x1 PUSH1 0xA0 SHL SUB DUP4 AND SWAP1 PUSH4 0x21F8A721 SWAP1 PUSH1 0x24 ADD PUSH2 0x3D80 JUMP JUMPDEST PUSH1 0x60 PUSH2 0x3D3F DUP5 DUP5 PUSH1 0x0 DUP6 PUSH2 0x51FA JUMP JUMPDEST PUSH1 0x0 DUP2 DUP2 MSTORE PUSH1 0x1 DUP4 ADD PUSH1 0x20 MSTORE PUSH1 0x40 DUP2 KECCAK256 SLOAD DUP1 ISZERO PUSH2 0x5116 JUMPI PUSH1 0x0 PUSH2 0x5051 PUSH1 0x1 DUP4 PUSH2 0x5AB3 JUMP JUMPDEST DUP6 SLOAD SWAP1 SWAP2 POP PUSH1 0x0 SWAP1 PUSH2 0x5065 SWAP1 PUSH1 0x1 SWAP1 PUSH2 0x5AB3 JUMP JUMPDEST SWAP1 POP DUP2 DUP2 EQ PUSH2 0x50CA JUMPI PUSH1 0x0 DUP7 PUSH1 0x0 ADD DUP3 DUP2 SLOAD DUP2 LT PUSH2 0x5085 JUMPI PUSH2 0x5085 PUSH2 0x5B0E JUMP JUMPDEST SWAP1 PUSH1 0x0 MSTORE PUSH1 0x20 PUSH1 0x0 KECCAK256 ADD SLOAD SWAP1 POP DUP1 DUP8 PUSH1 0x0 ADD DUP5 DUP2 SLOAD DUP2 LT PUSH2 0x50A8 JUMPI PUSH2 0x50A8 PUSH2 0x5B0E JUMP JUMPDEST PUSH1 0x0 SWAP2 DUP3 MSTORE PUSH1 0x20 DUP1 DUP4 KECCAK256 SWAP1 SWAP2 ADD SWAP3 SWAP1 SWAP3 SSTORE SWAP2 DUP3 MSTORE PUSH1 0x1 DUP9 ADD SWAP1 MSTORE PUSH1 0x40 SWAP1 KECCAK256 DUP4 SWAP1 SSTORE JUMPDEST DUP6 SLOAD DUP7 SWAP1 DUP1 PUSH2 0x50DB JUMPI PUSH2 0x50DB PUSH2 0x5B3F JUMP JUMPDEST PUSH1 0x1 SWAP1 SUB DUP2 DUP2 SWAP1 PUSH1 0x0 MSTORE PUSH1 0x20 PUSH1 0x0 KECCAK256 ADD PUSH1 0x0 SWAP1 SSTORE SWAP1 SSTORE DUP6 PUSH1 0x1 ADD PUSH1 0x0 DUP7 DUP2 MSTORE PUSH1 0x20 ADD SWAP1 DUP2 MSTORE PUSH1 0x20 ADD PUSH1 0x0 KECCAK256 PUSH1 0x0 SWAP1 SSTORE PUSH1 0x1 SWAP4 POP POP POP POP PUSH2 0x9CB JUMP JUMPDEST PUSH1 0x0 SWAP2 POP POP PUSH2 0x9CB JUMP JUMPDEST PUSH1 0x4 PUSH1 0x0 DUP4 DUP2 MSTORE PUSH1 0x20 ADD SWAP1 DUP2 MSTORE PUSH1 0x20 ADD PUSH1 0x0 KECCAK256 SLOAD PUSH1 0x0 EQ PUSH1 0x40 MLOAD DUP1 PUSH1 0x40 ADD PUSH1 0x40 MSTORE DUP1 PUSH1 0x12 DUP2 MSTORE PUSH1 0x20 ADD PUSH18 0x646561646C696E65206D757374206265203 PUSH1 0x74 SHL DUP2 MSTORE POP SWAP1 PUSH2 0x5180 JUMPI PUSH1 0x40 MLOAD PUSH3 0x461BCD PUSH1 0xE5 SHL DUP2 MSTORE PUSH1 0x4 ADD PUSH2 0xAD2 SWAP2 SWAP1 PUSH2 0x599C JUMP JUMPDEST POP PUSH1 0x40 DUP1 MLOAD DUP1 DUP3 ADD SWAP1 SWAP2 MSTORE PUSH1 0x18 DUP2 MSTORE PUSH32 0x64656C6179206265206174206C65617374203320646179730000000000000000 PUSH1 0x20 DUP3 ADD MSTORE PUSH3 0x3F480 DUP3 LT ISZERO PUSH2 0x51D9 JUMPI PUSH1 0x40 MLOAD PUSH3 0x461BCD PUSH1 0xE5 SHL DUP2 MSTORE PUSH1 0x4 ADD PUSH2 0xAD2 SWAP2 SWAP1 PUSH2 0x599C JUMP JUMPDEST POP PUSH2 0x51E4 DUP2 TIMESTAMP PUSH2 0x5A79 JUMP JUMPDEST PUSH1 0x0 SWAP3 DUP4 MSTORE PUSH1 0x4 PUSH1 0x20 MSTORE PUSH1 0x40 SWAP1 SWAP3 KECCAK256 SWAP2 SWAP1 SWAP2 SSTORE POP JUMP JUMPDEST PUSH1 0x60 DUP3 SELFBALANCE LT ISZERO PUSH2 0x525B JUMPI PUSH1 0x40 MLOAD PUSH3 0x461BCD PUSH1 0xE5 SHL DUP2 MSTORE PUSH1 0x20 PUSH1 0x4 DUP3 ADD MSTORE PUSH1 0x26 PUSH1 0x24 DUP3 ADD MSTORE PUSH32 0x416464726573733A20696E73756666696369656E742062616C616E636520666F PUSH1 0x44 DUP3 ADD MSTORE PUSH6 0x1C8818D85B1B PUSH1 0xD2 SHL PUSH1 0x64 DUP3 ADD MSTORE PUSH1 0x84 ADD PUSH2 0xAD2 JUMP JUMPDEST PUSH1 0x1 PUSH1 0x1 PUSH1 0xA0 SHL SUB DUP6 AND EXTCODESIZE PUSH2 0x52B2 JUMPI PUSH1 0x40 MLOAD PUSH3 0x461BCD PUSH1 0xE5 SHL DUP2 MSTORE PUSH1 0x20 PUSH1 0x4 DUP3 ADD MSTORE PUSH1 0x1D PUSH1 0x24 DUP3 ADD MSTORE PUSH32 0x416464726573733A2063616C6C20746F206E6F6E2D636F6E7472616374000000 PUSH1 0x44 DUP3 ADD MSTORE PUSH1 0x64 ADD PUSH2 0xAD2 JUMP JUMPDEST PUSH1 0x0 DUP1 DUP7 PUSH1 0x1 PUSH1 0x1 PUSH1 0xA0 SHL SUB AND DUP6 DUP8 PUSH1 0x40 MLOAD PUSH2 0x52CE SWAP2 SWAP1 PUSH2 0x5ACA JUMP JUMPDEST PUSH1 0x0 PUSH1 0x40 MLOAD DUP1 DUP4 SUB DUP2 DUP6 DUP8 GAS CALL SWAP3 POP POP POP RETURNDATASIZE DUP1 PUSH1 0x0 DUP2 EQ PUSH2 0x530B JUMPI PUSH1 0x40 MLOAD SWAP2 POP PUSH1 0x1F NOT PUSH1 0x3F RETURNDATASIZE ADD AND DUP3 ADD PUSH1 0x40 MSTORE RETURNDATASIZE DUP3 MSTORE RETURNDATASIZE PUSH1 0x0 PUSH1 0x20 DUP5 ADD RETURNDATACOPY PUSH2 0x5310 JUMP JUMPDEST PUSH1 0x60 SWAP2 POP JUMPDEST POP SWAP2 POP SWAP2 POP PUSH2 0x5320 DUP3 DUP3 DUP7 PUSH2 0x532B JUMP JUMPDEST SWAP8 SWAP7 POP POP POP POP POP POP POP JUMP JUMPDEST PUSH1 0x60 DUP4 ISZERO PUSH2 0x533A JUMPI POP DUP2 PUSH2 0xDF1 JUMP JUMPDEST DUP3 MLOAD ISZERO PUSH2 0x534A JUMPI DUP3 MLOAD DUP1 DUP5 PUSH1 0x20 ADD REVERT JUMPDEST DUP2 PUSH1 0x40 MLOAD PUSH3 0x461BCD PUSH1 0xE5 SHL DUP2 MSTORE PUSH1 0x4 ADD PUSH2 0xAD2 SWAP2 SWAP1 PUSH2 0x599C JUMP JUMPDEST PUSH1 0x0 PUSH1 0x20 DUP3 DUP5 SUB SLT ISZERO PUSH2 0x5376 JUMPI PUSH1 0x0 DUP1 REVERT JUMPDEST POP CALLDATALOAD SWAP2 SWAP1 POP JUMP JUMPDEST PUSH1 0x1 PUSH1 0x1 PUSH1 0xA0 SHL SUB DUP2 AND DUP2 EQ PUSH2 0x5392 JUMPI PUSH1 0x0 DUP1 REVERT JUMPDEST POP JUMP JUMPDEST DUP1 CALLDATALOAD PUSH2 0x114B DUP2 PUSH2 0x537D JUMP JUMPDEST DUP1 ISZERO ISZERO DUP2 EQ PUSH2 0x5392 JUMPI PUSH1 0x0 DUP1 REVERT JUMPDEST DUP1 CALLDATALOAD PUSH2 0x114B DUP2 PUSH2 0x53A0 JUMP JUMPDEST PUSH1 0x0 DUP1 PUSH1 0x0 PUSH1 0x60 DUP5 DUP7 SUB SLT ISZERO PUSH2 0x53CE JUMPI PUSH1 0x0 DUP1 REVERT JUMPDEST DUP4 CALLDATALOAD PUSH2 0x53D9 DUP2 PUSH2 0x537D JUMP JUMPDEST SWAP3 POP PUSH1 0x20 DUP5 ADD CALLDATALOAD SWAP2 POP PUSH1 0x40 DUP5 ADD CALLDATALOAD PUSH2 0x53F0 DUP2 PUSH2 0x53A0 JUMP JUMPDEST DUP1 SWAP2 POP POP SWAP3 POP SWAP3 POP SWAP3 JUMP JUMPDEST PUSH1 0x0 PUSH1 0x20 DUP3 DUP5 SUB SLT ISZERO PUSH2 0x540D JUMPI PUSH1 0x0 DUP1 REVERT JUMPDEST DUP2 CALLDATALOAD PUSH2 0xDF1 DUP2 PUSH2 0x537D JUMP JUMPDEST PUSH1 0x20 DUP1 DUP3 MSTORE DUP3 MLOAD DUP3 DUP3 ADD DUP2 SWAP1 MSTORE PUSH1 0x0 SWAP2 SWAP1 PUSH1 0x40 SWAP1 DUP2 DUP6 ADD SWAP1 DUP7 DUP5 ADD DUP6 JUMPDEST DUP3 DUP2 LT ISZERO PUSH2 0x5463 JUMPI DUP2 MLOAD DUP1 MLOAD PUSH1 0x1 PUSH1 0x1 PUSH1 0xA0 SHL SUB AND DUP6 MSTORE DUP7 ADD MLOAD DUP7 DUP6 ADD MSTORE SWAP3 DUP5 ADD SWAP3 SWAP1 DUP6 ADD SWAP1 PUSH1 0x1 ADD PUSH2 0x5435 JUMP JUMPDEST POP SWAP2 SWAP8 SWAP7 POP POP POP POP POP POP POP JUMP JUMPDEST PUSH1 0x0 DUP1 PUSH1 0x0 DUP1 PUSH1 0x80 DUP6 DUP8 SUB SLT ISZERO PUSH2 0x5486 JUMPI PUSH1 0x0 DUP1 REVERT JUMPDEST DUP5 CALLDATALOAD PUSH2 0x5491 DUP2 PUSH2 0x537D JUMP JUMPDEST SWAP4 POP PUSH1 0x20 DUP6 ADD CALLDATALOAD PUSH2 0x54A1 DUP2 PUSH2 0x537D JUMP JUMPDEST SWAP3 POP PUSH1 0x40 DUP6 ADD CALLDATALOAD PUSH2 0x54B1 DUP2 PUSH2 0x537D JUMP JUMPDEST SWAP4 SWAP7 SWAP3 SWAP6 POP SWAP3 SWAP4 PUSH1 0x60 ADD CALLDATALOAD SWAP3 POP POP JUMP JUMPDEST PUSH1 0x0 DUP1 PUSH1 0x0 DUP1 PUSH1 0x0 PUSH1 0xA0 DUP7 DUP9 SUB SLT ISZERO PUSH2 0x54D9 JUMPI PUSH1 0x0 DUP1 REVERT JUMPDEST DUP6 CALLDATALOAD PUSH2 0x54E4 DUP2 PUSH2 0x537D JUMP JUMPDEST SWAP5 POP PUSH1 0x20 DUP7 ADD CALLDATALOAD PUSH2 0x54F4 DUP2 PUSH2 0x537D JUMP JUMPDEST SWAP4 POP PUSH1 0x40 DUP7 ADD CALLDATALOAD PUSH2 0x5504 DUP2 PUSH2 0x537D JUMP JUMPDEST SWAP5 SWAP8 SWAP4 SWAP7 POP SWAP4 SWAP5 PUSH1 0x60 DUP2 ADD CALLDATALOAD SWAP5 POP PUSH1 0x80 ADD CALLDATALOAD SWAP3 SWAP2 POP POP JUMP JUMPDEST PUSH1 0x20 DUP1 DUP3 MSTORE DUP3 MLOAD DUP3 DUP3 ADD DUP2 SWAP1 MSTORE PUSH1 0x0 SWAP2 SWAP1 DUP5 DUP3 ADD SWAP1 PUSH1 0x40 DUP6 ADD SWAP1 DUP5 JUMPDEST DUP2 DUP2 LT ISZERO PUSH2 0x5554 JUMPI DUP4 MLOAD DUP4 MSTORE SWAP3 DUP5 ADD SWAP3 SWAP2 DUP5 ADD SWAP2 PUSH1 0x1 ADD PUSH2 0x5538 JUMP JUMPDEST POP SWAP1 SWAP7 SWAP6 POP POP POP POP POP POP JUMP JUMPDEST PUSH1 0x0 DUP1 PUSH1 0x40 DUP4 DUP6 SUB SLT ISZERO PUSH2 0x5573 JUMPI PUSH1 0x0 DUP1 REVERT JUMPDEST DUP3 CALLDATALOAD SWAP2 POP PUSH1 0x20 DUP4 ADD CALLDATALOAD PUSH2 0x5585 DUP2 PUSH2 0x537D JUMP JUMPDEST DUP1 SWAP2 POP POP SWAP3 POP SWAP3 SWAP1 POP JUMP JUMPDEST PUSH1 0x0 DUP2 MLOAD DUP1 DUP5 MSTORE PUSH1 0x20 DUP1 DUP6 ADD SWAP5 POP DUP1 DUP5 ADD PUSH1 0x0 JUMPDEST DUP4 DUP2 LT ISZERO PUSH2 0x55C9 JUMPI DUP2 MLOAD PUSH1 0x1 PUSH1 0x1 PUSH1 0xA0 SHL SUB AND DUP8 MSTORE SWAP6 DUP3 ADD SWAP6 SWAP1 DUP3 ADD SWAP1 PUSH1 0x1 ADD PUSH2 0x55A4 JUMP JUMPDEST POP SWAP5 SWAP6 SWAP5 POP POP POP POP POP JUMP JUMPDEST PUSH1 0x20 DUP2 MSTORE PUSH1 0x0 PUSH2 0xDF1 PUSH1 0x20 DUP4 ADD DUP5 PUSH2 0x5590 JUMP JUMPDEST PUSH1 0x0 DUP1 PUSH1 0x40 DUP4 DUP6 SUB SLT ISZERO PUSH2 0x55FA JUMPI PUSH1 0x0 DUP1 REVERT JUMPDEST POP POP DUP1 CALLDATALOAD SWAP3 PUSH1 0x20 SWAP1 SWAP2 ADD CALLDATALOAD SWAP2 POP JUMP JUMPDEST PUSH1 0x40 DUP2 MSTORE PUSH1 0x0 PUSH2 0x561C PUSH1 0x40 DUP4 ADD DUP6 PUSH2 0x5590 JUMP JUMPDEST SWAP1 POP DUP3 PUSH1 0x20 DUP4 ADD MSTORE SWAP4 SWAP3 POP POP POP JUMP JUMPDEST PUSH1 0x0 DUP1 PUSH1 0x0 PUSH1 0x60 DUP5 DUP7 SUB SLT ISZERO PUSH2 0x5640 JUMPI PUSH1 0x0 DUP1 REVERT JUMPDEST DUP4 CALLDATALOAD PUSH2 0x564B DUP2 PUSH2 0x537D JUMP JUMPDEST SWAP3 POP PUSH1 0x20 DUP5 ADD CALLDATALOAD PUSH2 0x565B DUP2 PUSH2 0x537D JUMP JUMPDEST SWAP3 SWAP6 SWAP3 SWAP5 POP POP POP PUSH1 0x40 SWAP2 SWAP1 SWAP2 ADD CALLDATALOAD SWAP1 JUMP JUMPDEST DUP2 MLOAD PUSH1 0x1 PUSH1 0x1 PUSH1 0x40 SHL SUB SWAP1 DUP2 AND DUP3 MSTORE PUSH1 0x20 DUP1 DUP5 ADD MLOAD DUP3 AND SWAP1 DUP4 ADD MSTORE PUSH1 0x40 DUP1 DUP5 ADD MLOAD SWAP2 DUP3 AND SWAP1 DUP4 ADD MSTORE PUSH2 0x120 DUP3 ADD SWAP1 POP PUSH1 0x60 DUP4 ADD MLOAD PUSH2 0x56B5 PUSH1 0x60 DUP5 ADD DUP3 PUSH1 0x1 PUSH1 0x1 PUSH1 0xA0 SHL SUB AND SWAP1 MSTORE JUMP JUMPDEST POP PUSH1 0x80 DUP4 ADD MLOAD PUSH2 0x56D0 PUSH1 0x80 DUP5 ADD DUP3 PUSH1 0x1 PUSH1 0x1 PUSH1 0xA0 SHL SUB AND SWAP1 MSTORE JUMP JUMPDEST POP PUSH1 0xA0 DUP4 ADD MLOAD PUSH2 0x56EB PUSH1 0xA0 DUP5 ADD DUP3 PUSH1 0x1 PUSH1 0x1 PUSH1 0x80 SHL SUB AND SWAP1 MSTORE JUMP JUMPDEST POP PUSH1 0xC0 DUP4 ADD MLOAD PUSH2 0x5706 PUSH1 0xC0 DUP5 ADD DUP3 PUSH1 0x1 PUSH1 0x1 PUSH1 0x80 SHL SUB AND SWAP1 MSTORE JUMP JUMPDEST POP PUSH1 0xE0 DUP4 ADD MLOAD PUSH2 0x5721 PUSH1 0xE0 DUP5 ADD DUP3 PUSH1 0x1 PUSH1 0x1 PUSH1 0x80 SHL SUB AND SWAP1 MSTORE JUMP JUMPDEST POP PUSH2 0x100 SWAP3 DUP4 ADD MLOAD ISZERO ISZERO SWAP2 SWAP1 SWAP3 ADD MSTORE SWAP1 JUMP JUMPDEST PUSH1 0x0 DUP1 DUP4 PUSH1 0x1F DUP5 ADD SLT PUSH2 0x5745 JUMPI PUSH1 0x0 DUP1 REVERT JUMPDEST POP DUP2 CALLDATALOAD PUSH1 0x1 PUSH1 0x1 PUSH1 0x40 SHL SUB DUP2 GT ISZERO PUSH2 0x575C JUMPI PUSH1 0x0 DUP1 REVERT JUMPDEST PUSH1 0x20 DUP4 ADD SWAP2 POP DUP4 PUSH1 0x20 DUP3 PUSH1 0x5 SHL DUP6 ADD ADD GT ISZERO PUSH2 0x2FB2 JUMPI PUSH1 0x0 DUP1 REVERT JUMPDEST PUSH1 0x0 DUP1 PUSH1 0x0 DUP1 PUSH1 0x0 PUSH1 0x60 DUP7 DUP9 SUB SLT ISZERO PUSH2 0x578F JUMPI PUSH1 0x0 DUP1 REVERT JUMPDEST DUP6 CALLDATALOAD PUSH2 0x579A DUP2 PUSH2 0x537D JUMP JUMPDEST SWAP5 POP PUSH1 0x20 DUP7 ADD CALLDATALOAD PUSH1 0x1 PUSH1 0x1 PUSH1 0x40 SHL SUB DUP1 DUP3 GT ISZERO PUSH2 0x57B6 JUMPI PUSH1 0x0 DUP1 REVERT JUMPDEST PUSH2 0x57C2 DUP10 DUP4 DUP11 ADD PUSH2 0x5733 JUMP JUMPDEST SWAP1 SWAP7 POP SWAP5 POP PUSH1 0x40 DUP9 ADD CALLDATALOAD SWAP2 POP DUP1 DUP3 GT ISZERO PUSH2 0x57DB JUMPI PUSH1 0x0 DUP1 REVERT JUMPDEST POP PUSH2 0x57E8 DUP9 DUP3 DUP10 ADD PUSH2 0x5733 JUMP JUMPDEST SWAP7 SWAP10 SWAP6 SWAP9 POP SWAP4 SWAP7 POP SWAP3 SWAP5 SWAP4 SWAP3 POP POP POP JUMP JUMPDEST DUP1 CALLDATALOAD PUSH1 0x1 PUSH1 0x1 PUSH1 0x80 SHL SUB DUP2 AND DUP2 EQ PUSH2 0x114B JUMPI PUSH1 0x0 DUP1 REVERT JUMPDEST PUSH4 0x4E487B71 PUSH1 0xE0 SHL PUSH1 0x0 MSTORE PUSH1 0x41 PUSH1 0x4 MSTORE PUSH1 0x24 PUSH1 0x0 REVERT JUMPDEST PUSH1 0x40 MLOAD PUSH2 0x120 DUP2 ADD PUSH1 0x1 PUSH1 0x1 PUSH1 0x40 SHL SUB DUP2 GT DUP3 DUP3 LT OR ISZERO PUSH2 0x5857 JUMPI PUSH4 0x4E487B71 PUSH1 0xE0 SHL PUSH1 0x0 MSTORE PUSH1 0x41 PUSH1 0x4 MSTORE PUSH1 0x24 PUSH1 0x0 REVERT JUMPDEST PUSH1 0x40 MSTORE SWAP1 JUMP JUMPDEST DUP1 CALLDATALOAD PUSH1 0x1 PUSH1 0x1 PUSH1 0x40 SHL SUB DUP2 AND DUP2 EQ PUSH2 0x114B JUMPI PUSH1 0x0 DUP1 REVERT JUMPDEST PUSH1 0x0 DUP1 PUSH1 0x0 DUP1 DUP5 DUP7 SUB PUSH2 0x180 DUP2 SLT ISZERO PUSH2 0x588C JUMPI PUSH1 0x0 DUP1 REVERT JUMPDEST DUP6 CALLDATALOAD PUSH2 0x5897 DUP2 PUSH2 0x537D JUMP JUMPDEST SWAP5 POP PUSH1 0x20 DUP7 ADD CALLDATALOAD SWAP4 POP PUSH2 0x58AC PUSH1 0x40 DUP8 ADD PUSH2 0x57F9 JUMP JUMPDEST SWAP3 POP PUSH2 0x120 DUP1 PUSH1 0x5F NOT DUP4 ADD SLT ISZERO PUSH2 0x58C2 JUMPI PUSH1 0x0 DUP1 REVERT JUMPDEST PUSH2 0x58CA PUSH2 0x5826 JUMP JUMPDEST SWAP2 POP PUSH2 0x58D8 PUSH1 0x60 DUP9 ADD PUSH2 0x585D JUMP JUMPDEST DUP3 MSTORE PUSH2 0x58E6 PUSH1 0x80 DUP9 ADD PUSH2 0x585D JUMP JUMPDEST PUSH1 0x20 DUP4 ADD MSTORE PUSH2 0x58F7 PUSH1 0xA0 DUP9 ADD PUSH2 0x585D JUMP JUMPDEST PUSH1 0x40 DUP4 ADD MSTORE PUSH2 0x5908 PUSH1 0xC0 DUP9 ADD PUSH2 0x5395 JUMP JUMPDEST PUSH1 0x60 DUP4 ADD MSTORE PUSH2 0x5919 PUSH1 0xE0 DUP9 ADD PUSH2 0x5395 JUMP JUMPDEST PUSH1 0x80 DUP4 ADD MSTORE PUSH2 0x100 PUSH2 0x592C DUP2 DUP10 ADD PUSH2 0x57F9 JUMP JUMPDEST PUSH1 0xA0 DUP5 ADD MSTORE PUSH2 0x593C DUP3 DUP10 ADD PUSH2 0x57F9 JUMP JUMPDEST PUSH1 0xC0 DUP5 ADD MSTORE PUSH2 0x594E PUSH2 0x140 DUP10 ADD PUSH2 0x57F9 JUMP JUMPDEST PUSH1 0xE0 DUP5 ADD MSTORE PUSH2 0x5960 PUSH2 0x160 DUP10 ADD PUSH2 0x53AE JUMP JUMPDEST SWAP1 DUP4 ADD MSTORE POP SWAP4 SWAP7 SWAP3 SWAP6 POP SWAP1 SWAP4 POP POP JUMP JUMPDEST PUSH1 0x0 JUMPDEST DUP4 DUP2 LT ISZERO PUSH2 0x598B JUMPI DUP2 DUP2 ADD MLOAD DUP4 DUP3 ADD MSTORE PUSH1 0x20 ADD PUSH2 0x5973 JUMP JUMPDEST DUP4 DUP2 GT ISZERO PUSH2 0x415B JUMPI POP POP PUSH1 0x0 SWAP2 ADD MSTORE JUMP JUMPDEST PUSH1 0x20 DUP2 MSTORE PUSH1 0x0 DUP3 MLOAD DUP1 PUSH1 0x20 DUP5 ADD MSTORE PUSH2 0x59BB DUP2 PUSH1 0x40 DUP6 ADD PUSH1 0x20 DUP8 ADD PUSH2 0x5970 JUMP JUMPDEST PUSH1 0x1F ADD PUSH1 0x1F NOT AND SWAP2 SWAP1 SWAP2 ADD PUSH1 0x40 ADD SWAP3 SWAP2 POP POP JUMP JUMPDEST PUSH1 0x0 PUSH1 0x20 DUP3 DUP5 SUB SLT ISZERO PUSH2 0x59E1 JUMPI PUSH1 0x0 DUP1 REVERT JUMPDEST DUP2 MLOAD PUSH2 0xDF1 DUP2 PUSH2 0x537D JUMP JUMPDEST PUSH1 0x1 PUSH1 0x1 PUSH1 0xA0 SHL SUB SWAP3 SWAP1 SWAP3 AND DUP3 MSTORE PUSH1 0x1 PUSH1 0x1 PUSH1 0x80 SHL SUB AND PUSH1 0x20 DUP3 ADD MSTORE PUSH1 0x40 ADD SWAP1 JUMP JUMPDEST PUSH1 0x0 PUSH1 0x20 DUP3 DUP5 SUB SLT ISZERO PUSH2 0x5A20 JUMPI PUSH1 0x0 DUP1 REVERT JUMPDEST DUP2 MLOAD PUSH2 0xDF1 DUP2 PUSH2 0x53A0 JUMP JUMPDEST PUSH1 0x0 PUSH1 0x20 DUP3 DUP5 SUB SLT ISZERO PUSH2 0x5A3D JUMPI PUSH1 0x0 DUP1 REVERT JUMPDEST POP MLOAD SWAP2 SWAP1 POP JUMP JUMPDEST PUSH4 0x4E487B71 PUSH1 0xE0 SHL PUSH1 0x0 MSTORE PUSH1 0x11 PUSH1 0x4 MSTORE PUSH1 0x24 PUSH1 0x0 REVERT JUMPDEST PUSH1 0x0 DUP2 PUSH1 0x0 NOT DIV DUP4 GT DUP3 ISZERO ISZERO AND ISZERO PUSH2 0x5A74 JUMPI PUSH2 0x5A74 PUSH2 0x5A44 JUMP JUMPDEST POP MUL SWAP1 JUMP JUMPDEST PUSH1 0x0 DUP3 NOT DUP3 GT ISZERO PUSH2 0x5A8C JUMPI PUSH2 0x5A8C PUSH2 0x5A44 JUMP JUMPDEST POP ADD SWAP1 JUMP JUMPDEST PUSH1 0x0 DUP3 PUSH2 0x5AAE JUMPI PUSH4 0x4E487B71 PUSH1 0xE0 SHL PUSH1 0x0 MSTORE PUSH1 0x12 PUSH1 0x4 MSTORE PUSH1 0x24 PUSH1 0x0 REVERT JUMPDEST POP DIV SWAP1 JUMP JUMPDEST PUSH1 0x0 DUP3 DUP3 LT ISZERO PUSH2 0x5AC5 JUMPI PUSH2 0x5AC5 PUSH2 0x5A44 JUMP JUMPDEST POP SUB SWAP1 JUMP JUMPDEST PUSH1 0x0 DUP3 MLOAD PUSH2 0x5ADC DUP2 DUP5 PUSH1 0x20 DUP8 ADD PUSH2 0x5970 JUMP JUMPDEST SWAP2 SWAP1 SWAP2 ADD SWAP3 SWAP2 POP POP JUMP JUMPDEST PUSH1 0x0 PUSH1 0x1 PUSH1 0x1 PUSH1 0x80 SHL SUB DUP4 DUP2 AND SWAP1 DUP4 AND DUP2 DUP2 LT ISZERO PUSH2 0x5B06 JUMPI PUSH2 0x5B06 PUSH2 0x5A44 JUMP JUMPDEST SUB SWAP4 SWAP3 POP POP POP JUMP JUMPDEST PUSH4 0x4E487B71 PUSH1 0xE0 SHL PUSH1 0x0 MSTORE PUSH1 0x32 PUSH1 0x4 MSTORE PUSH1 0x24 PUSH1 0x0 REVERT JUMPDEST PUSH1 0x0 PUSH1 0x0 NOT DUP3 EQ ISZERO PUSH2 0x5B38 JUMPI PUSH2 0x5B38 PUSH2 0x5A44 JUMP JUMPDEST POP PUSH1 0x1 ADD SWAP1 JUMP JUMPDEST PUSH4 0x4E487B71 PUSH1 0xE0 SHL PUSH1 0x0 MSTORE PUSH1 0x31 PUSH1 0x4 MSTORE PUSH1 0x24 PUSH1 0x0 REVERT INVALID PUSH21 0x6F6B656E206E6F7420757361626C6520666F722074 PUSH9 0x652073706563696669 PUSH4 0x20616374 PUSH10 0x6F6E746F6F206D756368 KECCAK256 GASLIMIT SLOAD BASEFEE KECCAK256 PUSH24 0x696C6C206265207573656420666F72206761736E6F742065 PUSH15 0x6F7567682045544820696E20676173 KECCAK256 PUSH3 0x616E6B KECCAK256 PUSH21 0x6F20636F76657220676173756E617574686F72697A PUSH6 0x642061636365 PUSH20 0x7300000000000000000000000000646561646C69 PUSH15 0x6520686173206E6F74206265656E20 PUSH19 0x65616368656420796574A26469706673582212 KECCAK256 0xF PUSH14 0x2651D9BAFEB58683F4C63CF6F2B4 STOP SWAP4 0xC0 0xC6 GASPRICE PUSH26 0x30A9626FEB272A0E1EF964736F6C634300080900330000000000 ","sha1":"e61d7aeb6153de4d5cbeef51103cc5ff2b75467f","source":"// SPDX-License-Identifier: GPL-3.0-or-later\npragma solidity 0.8.9;\n\nimport \"@openzeppelin/contracts/token/ERC20/utils/SafeERC20.sol\";\nimport \"@openzeppelin/contracts-upgradeable/proxy/utils/Initializable.sol\";\nimport \"@openzeppelin/contracts/token/ERC20/IERC20.sol\";\nimport \"@openzeppelin/contracts/utils/structs/EnumerableSet.sol\";\n\nimport \"../../../interfaces/IGasBank.sol\";\nimport \"../../../interfaces/pool/ILiquidityPool.sol\";\nimport \"../../../interfaces/ISwapperRegistry.sol\";\nimport \"../../../interfaces/IController.sol\";\nimport \"../../../interfaces/IStakerVault.sol\";\nimport \"../../../interfaces/ISwapper.sol\";\nimport \"../../../interfaces/actions/topup/ITopUpHandler.sol\";\nimport \"../../../interfaces/actions/topup/ITopUpAction.sol\";\nimport \"../../../interfaces/actions/IActionFeeHandler.sol\";\n\nimport \"../../../libraries/AddressProviderHelpers.sol\";\nimport \"../../../libraries/Errors.sol\";\nimport \"../../../libraries/ScaledMath.sol\";\nimport \"../../../libraries/EnumerableExtensions.sol\";\n\nimport \"../../access/Authorization.sol\";\nimport \"../../utils/Preparable.sol\";\n\n/**\n * @notice The logic here should really be part of the top-up action\n * but is split in a library to circumvent the byte-code size limit\n */\nlibrary TopUpActionLibrary {\n    using SafeERC20 for IERC20;\n    using ScaledMath for uint256;\n    using AddressProviderHelpers for IAddressProvider;\n\n    function lockFunds(\n        address stakerVaultAddress,\n        address payer,\n        address token,\n        uint256 lockAmount,\n        uint256 depositAmount\n    ) external {\n        uint256 amountLeft = lockAmount;\n        IStakerVault stakerVault = IStakerVault(stakerVaultAddress);\n\n        // stake deposit amount\n        if (depositAmount > 0) {\n            depositAmount = depositAmount > amountLeft ? amountLeft : depositAmount;\n            IERC20(token).safeTransferFrom(payer, address(this), depositAmount);\n            IERC20(token).safeApprove(stakerVaultAddress, depositAmount);\n            stakerVault.stake(depositAmount);\n            stakerVault.increaseActionLockedBalance(payer, depositAmount);\n            amountLeft -= depositAmount;\n        }\n\n        // use stake vault allowance if available and required\n        if (amountLeft > 0) {\n            uint256 balance = stakerVault.balanceOf(payer);\n            uint256 allowance = stakerVault.allowance(payer, address(this));\n            uint256 availableFunds = balance < allowance ? balance : allowance;\n            if (availableFunds >= amountLeft) {\n                stakerVault.transferFrom(payer, address(this), amountLeft);\n                amountLeft = 0;\n            }\n        }\n\n        require(amountLeft == 0, Error.INSUFFICIENT_UPDATE_BALANCE);\n    }\n\n    /**\n     * @dev Computes and returns the amount of LP tokens of type `token` that will be received in exchange for an `amount` of the underlying.\n     */\n    function calcExchangeAmount(\n        IAddressProvider addressProvider,\n        address token,\n        address actionToken,\n        uint256 amount\n    ) external view returns (uint256) {\n        ILiquidityPool pool = addressProvider.getPoolForToken(token);\n        uint256 rate = pool.exchangeRate();\n        address underlying = pool.getUnderlying();\n        if (underlying == actionToken) {\n            return amount.scaledDivRoundUp(rate);\n        }\n\n        ISwapper swapper = getSwapper(addressProvider, underlying, actionToken);\n        uint256 swapperRate = swapper.getRate(underlying, actionToken);\n        return amount.scaledDivRoundUp(rate.scaledMul(swapperRate));\n    }\n\n    function getSwapper(\n        IAddressProvider addressProvider,\n        address underlying,\n        address actionToken\n    ) public view returns (ISwapper) {\n        address swapperRegistry = addressProvider.getSwapperRegistry();\n        address swapper = ISwapperRegistry(swapperRegistry).getSwapper(underlying, actionToken);\n        require(swapper != address(0), Error.SWAP_PATH_NOT_FOUND);\n        return ISwapper(swapper);\n    }\n}\n\ncontract TopUpAction is ITopUpAction, Authorization, Preparable, Initializable {\n    using ScaledMath for uint256;\n    using ScaledMath for uint128;\n    using SafeERC20 for IERC20;\n    using EnumerableSet for EnumerableSet.AddressSet;\n    using EnumerableSet for EnumerableSet.Bytes32Set;\n    using EnumerableExtensions for EnumerableSet.AddressSet;\n    using AddressProviderHelpers for IAddressProvider;\n\n    /**\n     * @dev Temporary struct to hold local variables in execute\n     * and avoid the stack being \"too deep\"\n     */\n    struct ExecuteLocalVars {\n        uint256 minActionAmountToTopUp;\n        uint256 actionTokenAmount;\n        uint256 depositTotalFeesAmount;\n        uint256 actionAmountWithFees;\n        uint256 userFactor;\n        uint256 rate;\n        uint256 depositAmountWithFees;\n        uint256 depositAmountWithoutFees;\n        uint256 actionFee;\n        uint256 totalActionTokenAmount;\n        uint128 totalTopUpAmount;\n        bool success;\n        bytes topupResult;\n        uint256 gasBankBalance;\n        uint256 initialGas;\n        uint256 gasConsumed;\n        uint256 userGasPrice;\n        uint256 estimatedRequiredGas;\n        uint256 estimatedRequiredWeiForGas;\n        uint256 requiredWeiForGas;\n        uint256 reimbursedWeiForGas;\n        address underlying;\n        bool removePosition;\n    }\n\n    EnumerableSet.AddressSet private _usableTokens;\n\n    uint256 internal constant _INITIAL_ESTIMATED_GAS_USAGE = 500_000;\n\n    bytes32 internal constant _ACTION_FEE_KEY = \"ActionFee\";\n    bytes32 internal constant _FEE_HANDLER_KEY = \"FeeHandler\";\n    bytes32 internal constant _TOP_UP_HANDLER_KEY = \"TopUpHandler\";\n    bytes32 internal constant _ESTIMATED_GAS_USAGE_KEY = \"EstimatedGasUsage\";\n    bytes32 internal constant _MAX_SWAPPER_SLIPPAGE_KEY = \"MaxSwapperSlippage\";\n\n    uint256 internal constant _MAX_ACTION_FEE = 0.5 * 1e18;\n    uint256 internal constant _MIN_SWAPPER_SLIPPAGE = 0.6 * 1e18;\n    uint256 internal constant _MAX_SWAPPER_SLIPPAGE = 0.95 * 1e18;\n\n    IController public immutable controller;\n    IAddressProvider public immutable addressProvider;\n\n    EnumerableSet.Bytes32Set internal _supportedProtocols;\n\n    mapping(address => mapping(address => mapping(bytes32 => Record))) private _positions;\n\n    mapping(address => RecordMeta[]) internal _userPositions;\n\n    EnumerableSet.AddressSet internal _usersWithPositions;\n\n    constructor(IController _controller)\n        Authorization(_controller.addressProvider().getRoleManager())\n    {\n        controller = _controller;\n        addressProvider = controller.addressProvider();\n        _setConfig(_ESTIMATED_GAS_USAGE_KEY, _INITIAL_ESTIMATED_GAS_USAGE);\n    }\n\n    receive() external payable {\n        // solhint-disable-previous-line no-empty-blocks\n    }\n\n    function initialize(\n        address feeHandler,\n        bytes32[] calldata protocols,\n        address[] calldata handlers\n    ) external initializer onlyGovernance {\n        require(protocols.length == handlers.length, Error.INVALID_ARGUMENT);\n        _setConfig(_FEE_HANDLER_KEY, feeHandler);\n        _setConfig(_MAX_SWAPPER_SLIPPAGE_KEY, _MAX_SWAPPER_SLIPPAGE);\n        for (uint256 i = 0; i < protocols.length; i++) {\n            bytes32 protocolKey = _getProtocolKey(protocols[i]);\n            _setConfig(protocolKey, handlers[i]);\n            _updateTopUpHandler(protocols[i], address(0), handlers[i]);\n        }\n    }\n\n    /**\n     * @notice Register a top up action.\n     * @dev The `depositAmount` must be greater or equal to the `totalTopUpAmount` (which is denominated in `actionToken`).\n     * @param account Account to be topped up.\n     * @param depositAmount Amount of `depositToken` that will be locked.\n     * @param protocol Protocol which holds position to be topped up.\n     * @param record containing the data for the position to register\n     */\n    function register(\n        address account,\n        bytes32 protocol,\n        uint128 depositAmount,\n        Record memory record\n    ) external payable returns (bool) {\n        require(_supportedProtocols.contains(protocol), Error.PROTOCOL_NOT_FOUND);\n        require(record.singleTopUpAmount > 0, Error.INVALID_AMOUNT);\n        require(record.threshold > ScaledMath.ONE, Error.INVALID_AMOUNT);\n        require(record.singleTopUpAmount <= record.totalTopUpAmount, Error.INVALID_AMOUNT);\n        require(\n            _positions[msg.sender][account][protocol].threshold == 0,\n            Error.POSITION_ALREADY_EXISTS\n        );\n        require(_isSwappable(record.depositToken, record.actionToken), Error.SWAP_PATH_NOT_FOUND);\n        require(isUsable(record.depositToken), Error.TOKEN_NOT_USABLE);\n\n        uint256 gasDeposit = (record.totalTopUpAmount.divRoundUp(record.singleTopUpAmount)) *\n            record.maxFee *\n            getEstimatedGasUsage();\n\n        require(msg.value >= gasDeposit, Error.VALUE_TOO_LOW_FOR_GAS);\n\n        uint256 totalLockAmount = _calcExchangeAmount(\n            record.depositToken,\n            record.actionToken,\n            record.totalTopUpAmount\n        );\n        _lockFunds(msg.sender, record.depositToken, totalLockAmount, depositAmount);\n\n        addressProvider.getGasBank().depositFor{value: msg.value}(msg.sender);\n\n        record.depositTokenBalance = uint128(totalLockAmount);\n        _positions[msg.sender][account][protocol] = record;\n        _userPositions[msg.sender].push(RecordMeta(account, protocol));\n        _usersWithPositions.add(msg.sender);\n\n        emit Register(\n            account,\n            protocol,\n            record.threshold,\n            msg.sender,\n            record.depositToken,\n            totalLockAmount,\n            record.actionToken,\n            record.singleTopUpAmount,\n            record.totalTopUpAmount,\n            record.maxFee,\n            record.repayDebt\n        );\n        return true;\n    }\n\n    /**\n     * @notice See overloaded version of `execute` for more details.\n     */\n    function execute(\n        address payer,\n        address account,\n        address beneficiary,\n        bytes32 protocol\n    ) external override returns (bool) {\n        return execute(payer, account, beneficiary, protocol, 0);\n    }\n\n    /**\n     * @notice Delete a position to back on the given protocol for `account`.\n     * @param account Account holding the position.\n     * @param protocol Protocol the position is held on.\n     * @param unstake If the tokens should be unstaked from vault.\n     * @return `true` if successful.\n     */\n    function resetPosition(\n        address account,\n        bytes32 protocol,\n        bool unstake\n    ) external override returns (bool) {\n        address payer = msg.sender;\n        Record memory position = _positions[payer][account][protocol];\n        require(position.threshold != 0, Error.NO_POSITION_EXISTS);\n\n        address vault = addressProvider.getStakerVault(position.depositToken); // will revert if vault does not exist\n        IStakerVault staker = IStakerVault(vault);\n        staker.decreaseActionLockedBalance(payer, position.depositTokenBalance);\n        if (unstake) {\n            staker.unstake(position.depositTokenBalance);\n            IERC20(position.depositToken).safeTransfer(payer, position.depositTokenBalance);\n        } else {\n            staker.transfer(payer, position.depositTokenBalance);\n        }\n\n        _removePosition(payer, account, protocol);\n        addressProvider.getGasBank().withdrawUnused(payer);\n        return true;\n    }\n\n    /**\n     * @notice Execute top up handler update (with time delay enforced).\n     * @dev Needs to be called after the update was prepared. Fails if called before time delay is met.\n     * @param protocol Protocol for which a new handler should be executed.\n     * @return Address of new handler.\n     */\n    function executeTopUpHandler(bytes32 protocol) external override returns (address) {\n        address oldHandler = _getHandler(protocol, false);\n        address newHandler = _executeAddress(_getProtocolKey(protocol));\n\n        _updateTopUpHandler(protocol, oldHandler, newHandler);\n        return newHandler;\n    }\n\n    /**\n     * @notice Reset new top up handler deadline for a protocol.\n     * @param protocol Protocol for which top up handler deadline should be reset.\n     * @return `true` if successful.\n     */\n    function resetTopUpHandler(bytes32 protocol) external onlyGovernance returns (bool) {\n        return _resetAddressConfig(_getProtocolKey(protocol));\n    }\n\n    /**\n     * @notice Prepare action fee update.\n     * @param newActionFee New fee to set.\n     * @return `true` if success.\n     */\n    function prepareActionFee(uint256 newActionFee) external onlyGovernance returns (bool) {\n        require(newActionFee <= _MAX_ACTION_FEE, Error.INVALID_AMOUNT);\n        return _prepare(_ACTION_FEE_KEY, newActionFee);\n    }\n\n    /**\n     * @notice Execute action fee update (with time delay enforced).\n     * @dev Needs to be called after the update was prepared. Fails if called before time delay is met.\n     * @return `true` if successful.\n     */\n    function executeActionFee() external override returns (uint256) {\n        return _executeUInt256(_ACTION_FEE_KEY);\n    }\n\n    /**\n     * @notice Reset action fee deadline.\n     * @return `true` if successful.\n     */\n    function resetActionFee() external onlyGovernance returns (bool) {\n        return _resetUInt256Config(_ACTION_FEE_KEY);\n    }\n\n    /**\n     * @notice Prepare swapper slippage update.\n     * @param newSwapperSlippage New slippage to set.\n     * @return `true` if success.\n     */\n    function prepareSwapperSlippage(uint256 newSwapperSlippage)\n        external\n        onlyGovernance\n        returns (bool)\n    {\n        require(\n            newSwapperSlippage >= _MIN_SWAPPER_SLIPPAGE &&\n                newSwapperSlippage <= _MAX_SWAPPER_SLIPPAGE,\n            Error.INVALID_AMOUNT\n        );\n        return _prepare(_MAX_SWAPPER_SLIPPAGE_KEY, newSwapperSlippage);\n    }\n\n    /**\n     * @notice Execute swapper slippage update (with time delay enforced).\n     * @dev Needs to be called after the update was prepared. Fails if called before time delay is met.\n     * @return `true` if successful.\n     */\n    function executeSwapperSlippage() external override returns (uint256) {\n        return _executeUInt256(_MAX_SWAPPER_SLIPPAGE_KEY);\n    }\n\n    /**\n     * @notice Reset action fee deadline.\n     * @return `true` if successful.\n     */\n    function resetSwapperSlippage() external onlyGovernance returns (bool) {\n        return _resetUInt256Config(_MAX_SWAPPER_SLIPPAGE_KEY);\n    }\n\n    /** Set fee handler */\n    /**\n     * @notice Prepare update of fee handler.\n     * @param handler New fee handler.\n     * @return `true` if success.\n     */\n    function prepareFeeHandler(address handler) external onlyGovernance returns (bool) {\n        return _prepare(_FEE_HANDLER_KEY, handler);\n    }\n\n    /**\n     * @notice Execute update of fee handler (with time delay enforced).\n     * @dev Needs to be called after the update was prepraed. Fails if called before time delay is met.\n     * @return `true` if successful.\n     */\n    function executeFeeHandler() external override returns (address) {\n        return _executeAddress(_FEE_HANDLER_KEY);\n    }\n\n    /**\n     * @notice Reset the handler deadline.\n     * @return `true` if success.\n     */\n    function resetFeeHandler() external onlyGovernance returns (bool) {\n        return _resetAddressConfig(_FEE_HANDLER_KEY);\n    }\n\n    /**\n     * @notice Prepare update of estimated gas usage.\n     * @param gasUsage New estimated gas usage.\n     * @return `true` if success.\n     */\n    function prepareEstimatedGasUsage(uint256 gasUsage) external onlyGovernance returns (bool) {\n        return _prepare(_ESTIMATED_GAS_USAGE_KEY, gasUsage);\n    }\n\n    /**\n     * @notice Execute update of gas usage (with time delay enforced).\n     * @return `true` if successful.\n     */\n    function executeEstimatedGasUsage() external returns (uint256) {\n        return _executeUInt256(_ESTIMATED_GAS_USAGE_KEY);\n    }\n\n    /**\n     * @notice Reset the gas usage deadline.\n     * @return `true` if success.\n     */\n    function resetGasUsage() external onlyGovernance returns (bool) {\n        return _resetUInt256Config(_ESTIMATED_GAS_USAGE_KEY);\n    }\n\n    /**\n     * @notice Add a new deposit token that is supported by the action.\n     * @dev There is a separate check for whether the usable token (i.e. deposit token)\n     *      is swappable for some action token.\n     * @param token Address of deposit token that can be used by the action.\n     */\n    function addUsableToken(address token) external override onlyGovernance returns (bool) {\n        return _usableTokens.add(token);\n    }\n\n    /**\n     * @notice Computes the total amount of ETH (as wei) required to pay for all\n     * the top-ups assuming the maximum gas price and the current estimated gas\n     * usage of a top-up\n     */\n    function getEthRequiredForGas(address payer) external view override returns (uint256) {\n        uint256 totalEthRequired = 0;\n        RecordMeta[] memory userRecordsMeta = _userPositions[payer];\n        uint256 gasUsagePerCall = getEstimatedGasUsage();\n        uint256 length = userRecordsMeta.length;\n        for (uint256 i = 0; i < length; i++) {\n            RecordMeta memory meta = userRecordsMeta[i];\n            Record memory record = _positions[payer][meta.account][meta.protocol];\n            uint256 totalCalls = record.totalTopUpAmount.divRoundUp(record.singleTopUpAmount);\n            totalEthRequired += totalCalls * gasUsagePerCall * record.maxFee;\n        }\n        return totalEthRequired;\n    }\n\n    /**\n     * @notice Returns a list of positions for the given payer\n     */\n    function getUserPositions(address payer) external view override returns (RecordMeta[] memory) {\n        return _userPositions[payer];\n    }\n\n    /**\n     * @notice Get a list supported protocols.\n     * @return List of supported protocols.\n     */\n    function getSupportedProtocols() external view override returns (bytes32[] memory) {\n        uint256 length = _supportedProtocols.length();\n        bytes32[] memory protocols = new bytes32[](length);\n        for (uint256 i = 0; i < length; i++) {\n            protocols[i] = _supportedProtocols.at(i);\n        }\n        return protocols;\n    }\n\n    /*\n     * @notice Gets a list of users that have an active position.\n     * @dev Uses cursor pagination.\n     * @param cursor The cursor for pagination (should start at 0 for first call).\n     * @param howMany Maximum number of users to return in this pagination request.\n     * @return users List of users that have an active position.\n     * @return nextCursor The cursor to use for the next pagination request.\n     */\n    function usersWithPositions(uint256 cursor, uint256 howMany)\n        external\n        view\n        override\n        returns (address[] memory users, uint256 nextCursor)\n    {\n        uint256 length = _usersWithPositions.length();\n        if (cursor >= length) return (new address[](0), 0);\n        if (howMany >= length - cursor) {\n            howMany = length - cursor;\n        }\n\n        address[] memory usersWithPositions_ = new address[](howMany);\n        for (uint256 i = 0; i < howMany; i++) {\n            usersWithPositions_[i] = _usersWithPositions.at(i + cursor);\n        }\n\n        return (usersWithPositions_, cursor + howMany);\n    }\n\n    /**\n     * @notice Get a list of all tokens usable for this action.\n     * @dev This refers to all tokens that can be used as deposit tokens.\n     * @return Array of addresses of usable tokens.\n     */\n    function getUsableTokens() external view override returns (address[] memory) {\n        return _usableTokens.toArray();\n    }\n\n    /**\n     * @notice Retrieves the topup handler for the given `protocol`\n     */\n    function getTopUpHandler(bytes32 protocol) external view returns (address) {\n        return _getHandler(protocol, false);\n    }\n\n    /**\n     * @notice Successfully tops up a position if it's conditions are met.\n     * @dev pool and vault funds are rebalanced after withdrawal for top up\n     * @param payer Account that pays for the top up.\n     * @param account Account owning the position for top up.\n     * @param beneficiary Address of the keeper's wallet for fee accrual.\n     * @param protocol Protocol of the top up position.\n     * @param maxWeiForGas the maximum extra amount of wei that the keeper is willing to pay for the gas\n     * @return `true` if successful.\n     */\n    function execute(\n        address payer,\n        address account,\n        address beneficiary,\n        bytes32 protocol,\n        uint256 maxWeiForGas\n    ) public override returns (bool) {\n        require(controller.canKeeperExecuteAction(msg.sender), Error.NOT_ENOUGH_BKD_STAKED);\n\n        ExecuteLocalVars memory vars;\n\n        vars.initialGas = gasleft();\n\n        Record storage position = _positions[payer][account][protocol];\n        require(position.threshold != 0, Error.NO_POSITION_EXISTS);\n        require(position.totalTopUpAmount > 0, Error.INSUFFICIENT_BALANCE);\n\n        address topUpHandler = _getHandler(protocol, true);\n        vars.userFactor = ITopUpHandler(topUpHandler).getUserFactor(account);\n\n        // ensure that the position is actually below its set user factor threshold\n        require(vars.userFactor < position.threshold, Error.INSUFFICIENT_THRESHOLD);\n\n        IGasBank gasBank = addressProvider.getGasBank();\n\n        // fail early if the user does not have enough funds in the gas bank\n        // to cover the cost of the transaction\n        vars.estimatedRequiredGas = getEstimatedGasUsage();\n        vars.estimatedRequiredWeiForGas = vars.estimatedRequiredGas * tx.gasprice;\n\n        // compute the gas price that the user will be paying\n        vars.userGasPrice = block.basefee + position.priorityFee;\n        if (vars.userGasPrice > tx.gasprice) vars.userGasPrice = tx.gasprice;\n        if (vars.userGasPrice > position.maxFee) vars.userGasPrice = position.maxFee;\n\n        // ensure the current position allows for the gas to be paid\n        require(\n            vars.estimatedRequiredWeiForGas <=\n                vars.estimatedRequiredGas * vars.userGasPrice + maxWeiForGas,\n            Error.ESTIMATED_GAS_TOO_HIGH\n        );\n\n        vars.gasBankBalance = gasBank.balanceOf(payer);\n        // ensure the user has enough funds in the gas bank to cover the gas\n        require(\n            vars.gasBankBalance + maxWeiForGas >= vars.estimatedRequiredWeiForGas,\n            Error.GAS_BANK_BALANCE_TOO_LOW\n        );\n\n        vars.totalTopUpAmount = position.totalTopUpAmount;\n        vars.actionFee = getActionFee();\n        // add top-up fees to top-up amount\n        vars.minActionAmountToTopUp = position.singleTopUpAmount;\n        vars.actionAmountWithFees = vars.minActionAmountToTopUp.scaledMul(\n            ScaledMath.ONE + vars.actionFee\n        );\n\n        // if the amount that we want to top-up (including fees) is higher than\n        // the available topup amount, we lower this down to what is left of the position\n        if (vars.actionAmountWithFees > vars.totalTopUpAmount) {\n            vars.actionAmountWithFees = vars.totalTopUpAmount;\n            vars.minActionAmountToTopUp = vars.actionAmountWithFees.scaledDiv(\n                ScaledMath.ONE + vars.actionFee\n            );\n        }\n        ILiquidityPool pool = addressProvider.getPoolForToken(position.depositToken);\n        vars.underlying = pool.getUnderlying();\n        vars.rate = pool.exchangeRate();\n\n        ISwapper swapper;\n\n        if (vars.underlying != position.actionToken) {\n            swapper = _getSwapper(vars.underlying, position.actionToken);\n            vars.rate = vars.rate.scaledMul(swapper.getRate(vars.underlying, position.actionToken));\n        }\n\n        // compute the deposit tokens amount with and without fees\n        // we will need to unstake the amount with fees and to\n        // swap the amount without fees into action tokens\n        vars.depositAmountWithFees = vars.actionAmountWithFees.scaledDivRoundUp(vars.rate);\n        if (position.depositTokenBalance < vars.depositAmountWithFees) {\n            vars.depositAmountWithFees = position.depositTokenBalance;\n            vars.minActionAmountToTopUp =\n                (vars.depositAmountWithFees * vars.rate) /\n                (ScaledMath.ONE + vars.actionFee);\n        }\n\n        // compute amount of LP tokens needed to pay for action\n        // rate is expressed in actionToken per depositToken\n        vars.depositAmountWithoutFees = vars.minActionAmountToTopUp.scaledDivRoundUp(vars.rate);\n        vars.depositTotalFeesAmount = vars.depositAmountWithFees - vars.depositAmountWithoutFees;\n\n        // will revert if vault does not exist\n        address vault = addressProvider.getStakerVault(position.depositToken);\n\n        // unstake deposit tokens including fees\n        IStakerVault(vault).unstake(vars.depositAmountWithFees);\n        IStakerVault(vault).decreaseActionLockedBalance(payer, vars.depositAmountWithFees);\n\n        // swap the amount without the fees\n        // as the fees are paid in deposit token, not in action token\n        // Redeem first and use swapper only if the underlying tokens are not action tokens\n        vars.actionTokenAmount = pool.redeem(vars.depositAmountWithoutFees);\n\n        if (address(swapper) != address(0)) {\n            vars.minActionAmountToTopUp = vars.minActionAmountToTopUp.scaledMul(\n                getSwapperSlippage()\n            );\n            _approve(vars.underlying, address(swapper));\n            vars.actionTokenAmount = swapper.swap(\n                vars.underlying,\n                position.actionToken,\n                vars.actionTokenAmount,\n                vars.minActionAmountToTopUp\n            );\n        }\n\n        // compute how much of action token was actually redeemed and add fees to it\n        // this is to ensure that no funds get locked inside the contract\n        vars.totalActionTokenAmount =\n            vars.actionTokenAmount +\n            vars.depositTotalFeesAmount.scaledMul(vars.rate);\n\n        // at this point, we have exactly `vars.actionTokenAmount`\n        // (at least `position.singleTopUpAmount`) of action token\n        // and exactly `vars.depositTotalFeesAmount` deposit tokens in the contract\n        // solhint-disable-next-line avoid-low-level-calls\n        (vars.success, vars.topupResult) = topUpHandler.delegatecall(\n            abi.encodeWithSignature(\n                \"topUp(address,address,uint256,bool)\",\n                account,\n                position.actionToken,\n                vars.actionTokenAmount,\n                position.repayDebt\n            )\n        );\n\n        require(vars.success && abi.decode(vars.topupResult, (bool)), Error.TOP_UP_FAILED);\n\n        // totalTopUpAmount is updated to reflect the new \"balance\" of the position\n        if (vars.totalTopUpAmount > vars.totalActionTokenAmount) {\n            position.totalTopUpAmount -= uint128(vars.totalActionTokenAmount);\n        } else {\n            position.totalTopUpAmount = 0;\n        }\n\n        position.depositTokenBalance -= uint128(vars.depositAmountWithFees);\n\n        vars.removePosition = position.totalTopUpAmount == 0 || position.depositTokenBalance == 0;\n        _payFees(payer, beneficiary, vars.depositTotalFeesAmount, position.depositToken);\n        if (vars.removePosition) {\n            if (position.depositTokenBalance > 0) {\n                // transfer any unused locked tokens to the payer\n                IStakerVault(vault).transfer(payer, position.depositTokenBalance);\n                IStakerVault(vault).decreaseActionLockedBalance(\n                    payer,\n                    position.depositTokenBalance\n                );\n            }\n            _removePosition(payer, account, protocol);\n        }\n\n        emit TopUp(\n            account,\n            protocol,\n            payer,\n            position.depositToken,\n            vars.depositAmountWithFees,\n            position.actionToken,\n            vars.actionTokenAmount\n        );\n\n        // compute gas used and reimburse the keeper by using the\n        // funds of payer in the gas bank\n        // TODO: add constant gas consumed for transfer and tx prologue\n        vars.gasConsumed = vars.initialGas - gasleft();\n\n        vars.reimbursedWeiForGas = vars.userGasPrice * vars.gasConsumed;\n        if (vars.reimbursedWeiForGas > vars.gasBankBalance) {\n            vars.reimbursedWeiForGas = vars.gasBankBalance;\n        }\n\n        // ensure that the keeper is not overpaying\n        vars.requiredWeiForGas = tx.gasprice * vars.gasConsumed;\n        require(\n            vars.reimbursedWeiForGas + maxWeiForGas >= vars.requiredWeiForGas,\n            Error.GAS_TOO_HIGH\n        );\n        gasBank.withdrawFrom(payer, payable(msg.sender), vars.reimbursedWeiForGas);\n        if (vars.removePosition) {\n            gasBank.withdrawUnused(payer);\n        }\n\n        return true;\n    }\n\n    /**\n     * @notice Prepare new top up handler fee update.\n     * @dev Setting the addres to 0 means that the protocol will no longer be supported.\n     * @param protocol Protocol for which a new handler should be prepared.\n     * @param newHandler Address of new handler.\n     * @return `true` if success.\n     */\n    function prepareTopUpHandler(bytes32 protocol, address newHandler)\n        public\n        onlyGovernance\n        returns (bool)\n    {\n        return _prepare(_getProtocolKey(protocol), newHandler);\n    }\n\n    /**\n     * @notice Check if action can be executed.\n     * @param protocol for which to get the health factor\n     * @param account for which to get the health factor\n     * @return healthFactor of the position\n     */\n    function getHealthFactor(bytes32 protocol, address account)\n        public\n        view\n        override\n        returns (uint256 healthFactor)\n    {\n        ITopUpHandler topUpHandler = ITopUpHandler(_getHandler(protocol, true));\n        return topUpHandler.getUserFactor(account);\n    }\n\n    function getHandler(bytes32 protocol) public view override returns (address) {\n        return _getHandler(protocol, false);\n    }\n\n    /**\n     * @notice returns the current estimated gas usage\n     */\n    function getEstimatedGasUsage() public view returns (uint256) {\n        return currentUInts256[_ESTIMATED_GAS_USAGE_KEY];\n    }\n\n    /**\n     * @notice Returns the current action fee\n     */\n    function getActionFee() public view override returns (uint256) {\n        return currentUInts256[_ACTION_FEE_KEY];\n    }\n\n    /**\n     * @notice Returns the current max swapper slippage\n     */\n    function getSwapperSlippage() public view override returns (uint256) {\n        return currentUInts256[_MAX_SWAPPER_SLIPPAGE_KEY];\n    }\n\n    /**\n     * @notice Returns the current fee handler\n     */\n    function getFeeHandler() public view override returns (address) {\n        return currentAddresses[_FEE_HANDLER_KEY];\n    }\n\n    /**\n     * @notice Get the record for a position.\n     * @param payer Registered payer of the position.\n     * @param account Address holding the position.\n     * @param protocol Protocol where the position is held.\n     */\n    function getPosition(\n        address payer,\n        address account,\n        bytes32 protocol\n    ) public view override returns (Record memory) {\n        return _positions[payer][account][protocol];\n    }\n\n    /**\n     * @notice Check whether a token is usable as a deposit token.\n     * @param token Address of token to check.\n     * @return True if token is usable as a deposit token for this action.\n     */\n    function isUsable(address token) public view override returns (bool) {\n        return _usableTokens.contains(token);\n    }\n\n    function _updateTopUpHandler(\n        bytes32 protocol,\n        address oldHandler,\n        address newHandler\n    ) internal {\n        if (newHandler == address(0)) {\n            _supportedProtocols.remove(protocol);\n        } else if (oldHandler == address(0)) {\n            _supportedProtocols.add(protocol);\n        }\n    }\n\n    /**\n     * @dev Pays fees to the feeHandler\n     * @param payer The account who's position the fees are charged on\n     * @param beneficiary The beneficiary of the fees paid (usually this will be the keeper)\n     * @param feeAmount The amount in tokens to pay as fees\n     * @param depositToken The LpToken used to pay the fees\n     */\n    function _payFees(\n        address payer,\n        address beneficiary,\n        uint256 feeAmount,\n        address depositToken\n    ) internal {\n        address feeHandler = getFeeHandler();\n        IERC20(depositToken).safeApprove(feeHandler, feeAmount);\n        IActionFeeHandler(feeHandler).payFees(payer, beneficiary, feeAmount, depositToken);\n    }\n\n    /**\n     * @dev \"Locks\" an amount of tokens on behalf of the TopUpAction\n     * Funds are taken from staker vault if allowance is sufficient, else direct transfer or a combination of both.\n     * @param payer Owner of the funds to be locked\n     * @param token Token to lock\n     * @param lockAmount Minimum amount of `token` to lock\n     * @param depositAmount Amount of `token` that was deposited.\n     *                      If this is 0 then the staker vault allowance should be used.\n     *                      If this is greater than `requiredAmount` more tokens will be locked.\n     */\n    function _lockFunds(\n        address payer,\n        address token,\n        uint256 lockAmount,\n        uint256 depositAmount\n    ) internal {\n        address stakerVaultAddress = addressProvider.getStakerVault(token);\n        TopUpActionLibrary.lockFunds(stakerVaultAddress, payer, token, lockAmount, depositAmount);\n    }\n\n    function _removePosition(\n        address payer,\n        address account,\n        bytes32 protocol\n    ) internal {\n        delete _positions[payer][account][protocol];\n        _removeUserPosition(payer, account, protocol);\n        if (_userPositions[payer].length == 0) {\n            _usersWithPositions.remove(payer);\n        }\n        emit Deregister(payer, account, protocol);\n    }\n\n    function _removeUserPosition(\n        address payer,\n        address account,\n        bytes32 protocol\n    ) internal {\n        RecordMeta[] storage positionsMeta = _userPositions[payer];\n        uint256 length = positionsMeta.length;\n        for (uint256 i = 0; i < length; i++) {\n            RecordMeta storage positionMeta = positionsMeta[i];\n            if (positionMeta.account == account && positionMeta.protocol == protocol) {\n                positionsMeta[i] = positionsMeta[length - 1];\n                positionsMeta.pop();\n                return;\n            }\n        }\n    }\n\n    /**\n     * @dev Approves infinite spending for the given spender.\n     * @param token The token to approve for.\n     * @param spender The spender to approve.\n     */\n    function _approve(address token, address spender) internal {\n        if (IERC20(token).allowance(address(this), spender) > 0) return;\n        IERC20(token).safeApprove(spender, type(uint256).max);\n    }\n\n    /**\n     * @dev Computes and returns the amount of LP tokens of type `token` that will be received in exchange for an `amount` of the underlying.\n     */\n    function _calcExchangeAmount(\n        address token,\n        address actionToken,\n        uint256 amount\n    ) internal view returns (uint256) {\n        return TopUpActionLibrary.calcExchangeAmount(addressProvider, token, actionToken, amount);\n    }\n\n    function _getSwapper(address underlying, address actionToken) internal view returns (ISwapper) {\n        return TopUpActionLibrary.getSwapper(addressProvider, underlying, actionToken);\n    }\n\n    function _getHandler(bytes32 protocol, bool ensureExists) internal view returns (address) {\n        address handler = currentAddresses[_getProtocolKey(protocol)];\n        require(!ensureExists || handler != address(0), Error.PROTOCOL_NOT_FOUND);\n        return handler;\n    }\n\n    function _isSwappable(address depositToken, address toToken) internal view returns (bool) {\n        ILiquidityPool pool = addressProvider.getPoolForToken(depositToken);\n        address underlying = pool.getUnderlying();\n        if (underlying == toToken) {\n            return true;\n        }\n        address swapperRegistry = addressProvider.getSwapperRegistry();\n        return ISwapperRegistry(swapperRegistry).swapperExists(underlying, toToken);\n    }\n\n    function _getProtocolKey(bytes32 protocol) internal pure returns (bytes32) {\n        return keccak256(abi.encodePacked(_TOP_UP_HANDLER_KEY, protocol));\n    }\n}\n","sourcePath":"contracts/actions/topup/TopUpAction.sol","type":"contract","deployment":{"address":"0x1e2c0Ec0D282b2c77D8468052884Df7F3116ECcc","chainid":"42","blockHeight":30414886}}