{"abi":[{"inputs":[{"internalType":"uint256","name":"_annualInflationRateLp","type":"uint256"},{"internalType":"uint256","name":"_annualInflationRateKeeper","type":"uint256"},{"internalType":"uint256","name":"_annualInflationRateAmm","type":"uint256"},{"internalType":"uint256","name":"_annualInflationDecayLp","type":"uint256"},{"internalType":"uint256","name":"_annualInflationDecayKeeper","type":"uint256"},{"internalType":"uint256","name":"_annualInflationDecayAmm","type":"uint256"},{"internalType":"uint256","name":"_initialPeriodKeeperInflation","type":"uint256"},{"internalType":"uint256","name":"_initialPeriodAmmInflation","type":"uint256"},{"internalType":"uint256","name":"_nonInflationDistribution","type":"uint256"},{"internalType":"contract IController","name":"_controller","type":"address"}],"stateMutability":"nonpayable","type":"constructor","name":"constructor"},{"anonymous":false,"inputs":[{"indexed":false,"internalType":"address","name":"beneficiary","type":"address"},{"indexed":false,"internalType":"uint256","name":"amount","type":"uint256"}],"name":"TokensMinted","type":"event"},{"inputs":[],"name":"annualInflationDecayAmm","outputs":[{"internalType":"uint256","name":"","type":"uint256"}],"stateMutability":"view","type":"function"},{"inputs":[],"name":"annualInflationDecayKeeper","outputs":[{"internalType":"uint256","name":"","type":"uint256"}],"stateMutability":"view","type":"function"},{"inputs":[],"name":"annualInflationDecayLp","outputs":[{"internalType":"uint256","name":"","type":"uint256"}],"stateMutability":"view","type":"function"},{"inputs":[],"name":"controller","outputs":[{"internalType":"contract IController","name":"","type":"address"}],"stateMutability":"view","type":"function"},{"inputs":[],"name":"currentInflationAmountAmm","outputs":[{"internalType":"uint256","name":"","type":"uint256"}],"stateMutability":"view","type":"function"},{"inputs":[],"name":"currentInflationAmountKeeper","outputs":[{"internalType":"uint256","name":"","type":"uint256"}],"stateMutability":"view","type":"function"},{"inputs":[],"name":"currentInflationAmountLp","outputs":[{"internalType":"uint256","name":"","type":"uint256"}],"stateMutability":"view","type":"function"},{"inputs":[],"name":"currentTotalInflation","outputs":[{"internalType":"uint256","name":"","type":"uint256"}],"stateMutability":"view","type":"function"},{"inputs":[],"name":"executeInflationRateUpdate","outputs":[{"internalType":"bool","name":"","type":"bool"}],"stateMutability":"nonpayable","type":"function"},{"inputs":[],"name":"getAmmInflationRate","outputs":[{"internalType":"uint256","name":"","type":"uint256"}],"stateMutability":"view","type":"function"},{"inputs":[],"name":"getKeeperInflationRate","outputs":[{"internalType":"uint256","name":"","type":"uint256"}],"stateMutability":"view","type":"function"},{"inputs":[],"name":"getLpInflationRate","outputs":[{"internalType":"uint256","name":"","type":"uint256"}],"stateMutability":"view","type":"function"},{"inputs":[],"name":"initialAnnualInflationRateAmm","outputs":[{"internalType":"uint256","name":"","type":"uint256"}],"stateMutability":"view","type":"function"},{"inputs":[],"name":"initialAnnualInflationRateKeeper","outputs":[{"internalType":"uint256","name":"","type":"uint256"}],"stateMutability":"view","type":"function"},{"inputs":[],"name":"initialAnnualInflationRateLp","outputs":[{"internalType":"uint256","name":"","type":"uint256"}],"stateMutability":"view","type":"function"},{"inputs":[],"name":"initialPeriodAmmInflation","outputs":[{"internalType":"uint256","name":"","type":"uint256"}],"stateMutability":"view","type":"function"},{"inputs":[],"name":"initialPeriodEnded","outputs":[{"internalType":"bool","name":"","type":"bool"}],"stateMutability":"view","type":"function"},{"inputs":[],"name":"initialPeriodKeeperInflation","outputs":[{"internalType":"uint256","name":"","type":"uint256"}],"stateMutability":"view","type":"function"},{"inputs":[],"name":"issuedNonInflationSupply","outputs":[{"internalType":"uint256","name":"","type":"uint256"}],"stateMutability":"view","type":"function"},{"inputs":[],"name":"lastEvent","outputs":[{"internalType":"uint256","name":"","type":"uint256"}],"stateMutability":"view","type":"function"},{"inputs":[],"name":"lastInflationDecay","outputs":[{"internalType":"uint256","name":"","type":"uint256"}],"stateMutability":"view","type":"function"},{"inputs":[{"internalType":"address","name":"beneficiary","type":"address"},{"internalType":"uint256","name":"amount","type":"uint256"}],"name":"mint","outputs":[{"internalType":"bool","name":"","type":"bool"}],"stateMutability":"nonpayable","type":"function"},{"inputs":[{"internalType":"address","name":"beneficiary","type":"address"},{"internalType":"uint256","name":"amount","type":"uint256"}],"name":"mintNonInflationTokens","outputs":[{"internalType":"bool","name":"","type":"bool"}],"stateMutability":"nonpayable","type":"function"},{"inputs":[],"name":"nonInflationDistribution","outputs":[{"internalType":"uint256","name":"","type":"uint256"}],"stateMutability":"view","type":"function"},{"inputs":[],"name":"roleManager","outputs":[{"internalType":"contract IRoleManager","name":"","type":"address"}],"stateMutability":"view","type":"function"},{"inputs":[{"internalType":"address","name":"_token","type":"address"}],"name":"setToken","outputs":[],"stateMutability":"nonpayable","type":"function"},{"inputs":[],"name":"startInflation","outputs":[],"stateMutability":"nonpayable","type":"function"},{"inputs":[],"name":"token","outputs":[{"internalType":"contract BkdToken","name":"","type":"address"}],"stateMutability":"view","type":"function"},{"inputs":[],"name":"totalAvailableToNow","outputs":[{"internalType":"uint256","name":"","type":"uint256"}],"stateMutability":"view","type":"function"},{"inputs":[],"name":"totalMintedToNow","outputs":[{"internalType":"uint256","name":"","type":"uint256"}],"stateMutability":"view","type":"function"}],"bytecode":"6101e06040523480156200001257600080fd5b506040516200171a3803806200171a83398101604081905262000035916200030f565b620000c8816001600160a01b0316632954018c6040518163ffffffff1660e01b815260040160206040518083038186803b1580156200007357600080fd5b505afa15801562000088573d6000803e3d6000fd5b505050506040513d601f19601f82011682018060405250810190620000ae919062000391565b6001600160a01b03166200026460201b62000b791760201c565b6001600160a01b0316608052600160005560408051606081019091526021808252670de0b6b3a764000089109190620016f9602083013990620001295760405162461bcd60e51b8152600401620001209190620003b8565b60405180910390fd5b50670de0b6b3a76400008610604051806060016040528060218152602001620016f96021913990620001705760405162461bcd60e51b8152600401620001209190620003b8565b50670de0b6b3a76400008510604051806060016040528060218152602001620016f96021913990620001b75760405162461bcd60e51b8152600401620001209190620003b8565b5060a08a905261010089905261016088905260c087905261012086905261018085905260e0849052610140839052620001f56301e133808b62000410565b600155620002086301e133808562000410565b6002556200021b6301e133808462000410565b600381905560025460015462000232919062000433565b6200023e919062000433565b6007556101a0919091526001600160a01b03166101c052506200045a9650505050505050565b6040516321f8a72160e01b81526a3937b632a6b0b730b3b2b960a91b60048201526000906001600160a01b038316906321f8a7219060240160206040518083038186803b158015620002b557600080fd5b505afa158015620002ca573d6000803e3d6000fd5b505050506040513d601f19601f82011682018060405250810190620002f0919062000391565b92915050565b6001600160a01b03811681146200030c57600080fd5b50565b6000806000806000806000806000806101408b8d0312156200033057600080fd5b8a51995060208b0151985060408b0151975060608b0151965060808b0151955060a08b0151945060c08b0151935060e08b015192506101008b015191506101208b01516200037e81620002f6565b809150509295989b9194979a5092959850565b600060208284031215620003a457600080fd5b8151620003b181620002f6565b9392505050565b600060208083528351808285015260005b81811015620003e757858101830151858201604001528201620003c9565b81811115620003fa576000604083870101525b50601f01601f1916929092016040019392505050565b6000826200042e57634e487b7160e01b600052601260045260246000fd5b500490565b600082198211156200045557634e487b7160e01b600052601160045260246000fd5b500190565b60805160a05160c05160e05161010051610120516101405161016051610180516101a0516101c0516111cb6200052e600039600081816104580152818161066a0152610ee701526000818161032601526108d30152600081816102e60152610e260152600081816102a90152610e8d0152600061023701526000818161034d0152610df60152600081816103850152610e5c015260006104310152600081816103da0152610dbb0152600061040a0152600081816101e00152818161049c015281816107db0152610a2801526111cb6000f3fe608060405234801561001057600080fd5b50600436106101d95760003560e01c8063b169106411610104578063d8ba1175116100a2578063f4fe6b0011610071578063f4fe6b001461042c578063f77c479114610453578063f9b7ce021461047a578063fc0c546a1461048257600080fd5b8063d8ba1175146103cc578063dbb9c246146103d5578063e7c5009c146103fc578063f3a5fa4a1461040557600080fd5b8063c2af2cf8116100de578063c2af2cf814610380578063c522a6e4146103a7578063cc1962aa146103ba578063d1f6593a146103c357600080fd5b8063b169106414610348578063b5a703901461036f578063bf3f55801461037857600080fd5b8063555c627a1161017c578063877f16921161014b578063877f16921461030857806388258d3114610310578063a0604e5514610318578063aee5b63c1461032157600080fd5b8063555c627a146102a45780635853f6c6146102cb5780635ab675a4146102d857806371f19a9f146102e157600080fd5b80631ca992e4116101b85780631ca992e4146102675780632d3d88511461027057806340c10f19146102795780634a17ed591461029c57600080fd5b8062435da5146101de578063144fa6d71461021d57806316ba199914610232575b600080fd5b7f00000000000000000000000000000000000000000000000000000000000000005b6040516001600160a01b0390911681526020015b60405180910390f35b61023061022b366004611032565b61049a565b005b6102597f000000000000000000000000000000000000000000000000000000000000000081565b604051908152602001610214565b61025960085481565b61025960065481565b61028c61028736600461104f565b61060b565b6040519015158152602001610214565b61028c61077f565b6102597f000000000000000000000000000000000000000000000000000000000000000081565b60045461028c9060ff1681565b610259600a5481565b6102597f000000000000000000000000000000000000000000000000000000000000000081565b610259610789565b6102596107a3565b61025960015481565b6102597f000000000000000000000000000000000000000000000000000000000000000081565b6102597f000000000000000000000000000000000000000000000000000000000000000081565b61025960095481565b6102596107bd565b6102597f000000000000000000000000000000000000000000000000000000000000000081565b61028c6103b536600461104f565b6107d7565b61025960035481565b61025960025481565b61025960075481565b6102597f000000000000000000000000000000000000000000000000000000000000000081565b61025960055481565b6102597f000000000000000000000000000000000000000000000000000000000000000081565b6102597f000000000000000000000000000000000000000000000000000000000000000081565b6102007f000000000000000000000000000000000000000000000000000000000000000081565b610230610a26565b600b54610200906001600160a01b031681565b905090565b7f0000000000000000000000000000000000000000000000000000000000000000604051632474521560e21b815269676f7665726e616e636560b01b60048201523360248201526001600160a01b0391909116906391d148549060440160206040518083038186803b15801561050f57600080fd5b505afa158015610523573d6000803e3d6000fd5b505050506040513d601f19601f82011682018060405250810190610547919061107b565b60405180604001604052806013815260200172756e617574686f72697a65642061636365737360681b8152509061059a5760405162461bcd60e51b8152600401610591919061109d565b60405180910390fd5b50600b546001600160a01b0316156105e95760405162461bcd60e51b8152602060048201526012602482015271546f6b656e20616c7265616479207365742160701b6044820152606401610591565b600b80546001600160a01b0319166001600160a01b0392909216919091179055565b6000600260005414156106605760405162461bcd60e51b815260206004820152601f60248201527f5265656e7472616e637947756172643a207265656e7472616e742063616c6c006044820152606401610591565b60026000819055507f00000000000000000000000000000000000000000000000000000000000000006001600160a01b031663dbcd89fa6040518163ffffffff1660e01b815260040160206040518083038186803b1580156106c157600080fd5b505afa1580156106d5573d6000803e3d6000fd5b505050506040513d601f19601f820116820180604052508101906106f991906110f2565b6001600160a01b0316336001600160a01b03161460405180604001604052806013815260200172756e617574686f72697a65642061636365737360681b815250906107575760405162461bcd60e51b8152600401610591919061109d565b50600a5461076757506000610774565b6107718383610c07565b90505b600160005592915050565b6000610495610d63565b6000600a546000141561079c5750600090565b5060035490565b6000600a54600014156107b65750600090565b5060015490565b6000600a54600014156107d05750600090565b5060025490565b60007f0000000000000000000000000000000000000000000000000000000000000000604051632474521560e21b815269676f7665726e616e636560b01b60048201523360248201526001600160a01b0391909116906391d148549060440160206040518083038186803b15801561084e57600080fd5b505afa158015610862573d6000803e3d6000fd5b505050506040513d601f19601f82011682018060405250810190610886919061107b565b60405180604001604052806013815260200172756e617574686f72697a65642061636365737360681b815250906108d05760405162461bcd60e51b8152600401610591919061109d565b507f0000000000000000000000000000000000000000000000000000000000000000826005546109009190611125565b111561095d5760405162461bcd60e51b815260206004820152602660248201527f4d6178696d756d206e6f6e2d696e666c6174696f6e20616d6f756e742065786360448201526532b2b232b21760d11b6064820152608401610591565b816005600082825461096f9190611125565b9091555050600b546040516340c10f1960e01b81526001600160a01b03858116600483015260248201859052909116906340c10f1990604401600060405180830381600087803b1580156109c257600080fd5b505af11580156109d6573d6000803e3d6000fd5b5050604080516001600160a01b0387168152602081018690527f3f2c9d57c068687834f0de942a9babb9e5acab57d516d3480a3c16ee165a4273935001905060405180910390a150600192915050565b7f0000000000000000000000000000000000000000000000000000000000000000604051632474521560e21b815269676f7665726e616e636560b01b60048201523360248201526001600160a01b0391909116906391d148549060440160206040518083038186803b158015610a9b57600080fd5b505afa158015610aaf573d6000803e3d6000fd5b505050506040513d601f19601f82011682018060405250810190610ad3919061107b565b60405180604001604052806013815260200172756e617574686f72697a65642061636365737360681b81525090610b1d5760405162461bcd60e51b8152600401610591919061109d565b50600a5415610b6e5760405162461bcd60e51b815260206004820152601e60248201527f496e666c6174696f6e2068617320616c726561647920737461727465642e00006044820152606401610591565b42600a819055600655565b6040516321f8a72160e01b81526a3937b632a6b0b730b3b2b960a91b60048201526000906001600160a01b038316906321f8a7219060240160206040518083038186803b158015610bc957600080fd5b505afa158015610bdd573d6000803e3d6000fd5b505050506040513d601f19601f82011682018060405250810190610c0191906110f2565b92915050565b6000600754600a5442610c1a919061113d565b610c249190611154565b60086000828254610c359190611125565b9091555050600954600090610c4b908490611125565b9050600854811115610c9f5760405162461bcd60e51b815260206004820152601860248201527f4d696e7461626c6520616d6f756e7420657863656564656400000000000000006044820152606401610591565b600981905542600a55600b546040516340c10f1960e01b81526001600160a01b03868116600483015260248201869052909116906340c10f1990604401600060405180830381600087803b158015610cf657600080fd5b505af1158015610d0a573d6000803e3d6000fd5b50505050610d16610d63565b50604080516001600160a01b0386168152602081018590527f3f2c9d57c068687834f0de942a9babb9e5acab57d516d3480a3c16ee165a4273910160405180910390a15060019392505050565b6000600a5442610d73919061113d565b600754610d809190611154565b60086000828254610d919190611125565b909155505042600a55600654610dac906301e1338090611125565b4210610fee57600154610ddf907f0000000000000000000000000000000000000000000000000000000000000000610ff4565b60015560045460ff1615610e5257600254610e1a907f0000000000000000000000000000000000000000000000000000000000000000610ff4565b600255600354610e4a907f0000000000000000000000000000000000000000000000000000000000000000610ff4565b600355610ec2565b610e806301e133807f0000000000000000000000000000000000000000000000000000000000000000611173565b600255610eb16301e133807f0000000000000000000000000000000000000000000000000000000000000000611173565b6003556004805460ff191660011790555b600354600254600154610ed59190611125565b610edf9190611125565b6007819055507f00000000000000000000000000000000000000000000000000000000000000006001600160a01b031663dbcd89fa6040518163ffffffff1660e01b815260040160206040518083038186803b158015610f3e57600080fd5b505afa158015610f52573d6000803e3d6000fd5b505050506040513d601f19601f82011682018060405250810190610f7691906110f2565b6001600160a01b031663b662fc556040518163ffffffff1660e01b8152600401602060405180830381600087803b158015610fb057600080fd5b505af1158015610fc4573d6000803e3d6000fd5b505050506040513d601f19601f82011682018060405250810190610fe8919061107b565b50426006555b50600190565b6000670de0b6b3a76400006110098385611154565b6110139190611173565b9392505050565b6001600160a01b038116811461102f57600080fd5b50565b60006020828403121561104457600080fd5b81356110138161101a565b6000806040838503121561106257600080fd5b823561106d8161101a565b946020939093013593505050565b60006020828403121561108d57600080fd5b8151801515811461101357600080fd5b600060208083528351808285015260005b818110156110ca578581018301518582016040015282016110ae565b818111156110dc576000604083870101525b50601f01601f1916929092016040019392505050565b60006020828403121561110457600080fd5b81516110138161101a565b634e487b7160e01b600052601160045260246000fd5b600082198211156111385761113861110f565b500190565b60008282101561114f5761114f61110f565b500390565b600081600019048311821515161561116e5761116e61110f565b500290565b60008261119057634e487b7160e01b600052601260045260246000fd5b50049056fea2646970667358221220aafff43d8d3784534ed78702023029e4b228572b43b111c1dde4e5ed84a8354964736f6c63430008090033696e76616c696420706172616d657465722076616c756520617474656d70746564","bytecodeSha1":"da39a3ee5e6b4b0d3255bfef95601890afd80709","compiler":{"evm_version":"london","optimizer":{"enabled":true,"runs":200},"version":"0.8.9+commit.e5eed63a"},"contractName":"Minter","language":"Solidity","natspec":{"kind":"dev","methods":{"executeInflationRateUpdate()":{"details":"This updates the inflation rate to the next linear segment in the inflations schedule.","notice":"Update the inflation rate according to the piecewise linear schedule.","returns":{"_0":"`true` if successful."}},"getAmmInflationRate()":{"notice":"Supplies the inflation rate for LPs on AMMs per unit of time (seconds).","returns":{"_0":"AMM inflation rate."}},"getKeeperInflationRate()":{"notice":"Supplies the inflation rate for keepers per unit of time (seconds).","returns":{"_0":"keeper inflation rate."}},"getLpInflationRate()":{"notice":"Supplies the inflation rate for LPs per unit of time (seconds).","returns":{"_0":"LP inflation rate."}},"mint(address,uint256)":{"details":"Can only be called by the controller.","notice":"Mints BKD tokens to a specified address.","params":{"amount":"Amount of tokens to mint.","beneficiary":"Address to mint tokens for."},"returns":{"_0":"`true` if successful."}},"mintNonInflationTokens(address,uint256)":{"details":"The amount of tokens that can be minted in total is subject to a pre-set upper limit.","notice":"Mint tokens that are not part of the inflation schedule.","params":{"amount":"Amount of tokens to mint.","beneficiary":"Address to mint tokens for."},"returns":{"_0":"`true` if successful."}}},"version":1},"opcodes":"PUSH1 0x80 PUSH1 0x40 MSTORE CALLVALUE DUP1 ISZERO PUSH2 0x10 JUMPI PUSH1 0x0 DUP1 REVERT JUMPDEST POP PUSH1 0x4 CALLDATASIZE LT PUSH2 0x1D9 JUMPI PUSH1 0x0 CALLDATALOAD PUSH1 0xE0 SHR DUP1 PUSH4 0xB1691064 GT PUSH2 0x104 JUMPI DUP1 PUSH4 0xD8BA1175 GT PUSH2 0xA2 JUMPI DUP1 PUSH4 0xF4FE6B00 GT PUSH2 0x71 JUMPI DUP1 PUSH4 0xF4FE6B00 EQ PUSH2 0x42C JUMPI DUP1 PUSH4 0xF77C4791 EQ PUSH2 0x453 JUMPI DUP1 PUSH4 0xF9B7CE02 EQ PUSH2 0x47A JUMPI DUP1 PUSH4 0xFC0C546A EQ PUSH2 0x482 JUMPI PUSH1 0x0 DUP1 REVERT JUMPDEST DUP1 PUSH4 0xD8BA1175 EQ PUSH2 0x3CC JUMPI DUP1 PUSH4 0xDBB9C246 EQ PUSH2 0x3D5 JUMPI DUP1 PUSH4 0xE7C5009C EQ PUSH2 0x3FC JUMPI DUP1 PUSH4 0xF3A5FA4A EQ PUSH2 0x405 JUMPI PUSH1 0x0 DUP1 REVERT JUMPDEST DUP1 PUSH4 0xC2AF2CF8 GT PUSH2 0xDE JUMPI DUP1 PUSH4 0xC2AF2CF8 EQ PUSH2 0x380 JUMPI DUP1 PUSH4 0xC522A6E4 EQ PUSH2 0x3A7 JUMPI DUP1 PUSH4 0xCC1962AA EQ PUSH2 0x3BA JUMPI DUP1 PUSH4 0xD1F6593A EQ PUSH2 0x3C3 JUMPI PUSH1 0x0 DUP1 REVERT JUMPDEST DUP1 PUSH4 0xB1691064 EQ PUSH2 0x348 JUMPI DUP1 PUSH4 0xB5A70390 EQ PUSH2 0x36F JUMPI DUP1 PUSH4 0xBF3F5580 EQ PUSH2 0x378 JUMPI PUSH1 0x0 DUP1 REVERT JUMPDEST DUP1 PUSH4 0x555C627A GT PUSH2 0x17C JUMPI DUP1 PUSH4 0x877F1692 GT PUSH2 0x14B JUMPI DUP1 PUSH4 0x877F1692 EQ PUSH2 0x308 JUMPI DUP1 PUSH4 0x88258D31 EQ PUSH2 0x310 JUMPI DUP1 PUSH4 0xA0604E55 EQ PUSH2 0x318 JUMPI DUP1 PUSH4 0xAEE5B63C EQ PUSH2 0x321 JUMPI PUSH1 0x0 DUP1 REVERT JUMPDEST DUP1 PUSH4 0x555C627A EQ PUSH2 0x2A4 JUMPI DUP1 PUSH4 0x5853F6C6 EQ PUSH2 0x2CB JUMPI DUP1 PUSH4 0x5AB675A4 EQ PUSH2 0x2D8 JUMPI DUP1 PUSH4 0x71F19A9F EQ PUSH2 0x2E1 JUMPI PUSH1 0x0 DUP1 REVERT JUMPDEST DUP1 PUSH4 0x1CA992E4 GT PUSH2 0x1B8 JUMPI DUP1 PUSH4 0x1CA992E4 EQ PUSH2 0x267 JUMPI DUP1 PUSH4 0x2D3D8851 EQ PUSH2 0x270 JUMPI DUP1 PUSH4 0x40C10F19 EQ PUSH2 0x279 JUMPI DUP1 PUSH4 0x4A17ED59 EQ PUSH2 0x29C JUMPI PUSH1 0x0 DUP1 REVERT JUMPDEST DUP1 PUSH3 0x435DA5 EQ PUSH2 0x1DE JUMPI DUP1 PUSH4 0x144FA6D7 EQ PUSH2 0x21D JUMPI DUP1 PUSH4 0x16BA1999 EQ PUSH2 0x232 JUMPI JUMPDEST PUSH1 0x0 DUP1 REVERT JUMPDEST PUSH32 0x0 JUMPDEST PUSH1 0x40 MLOAD PUSH1 0x1 PUSH1 0x1 PUSH1 0xA0 SHL SUB SWAP1 SWAP2 AND DUP2 MSTORE PUSH1 0x20 ADD JUMPDEST PUSH1 0x40 MLOAD DUP1 SWAP2 SUB SWAP1 RETURN JUMPDEST PUSH2 0x230 PUSH2 0x22B CALLDATASIZE PUSH1 0x4 PUSH2 0x1032 JUMP JUMPDEST PUSH2 0x49A JUMP JUMPDEST STOP JUMPDEST PUSH2 0x259 PUSH32 0x0 DUP2 JUMP JUMPDEST PUSH1 0x40 MLOAD SWAP1 DUP2 MSTORE PUSH1 0x20 ADD PUSH2 0x214 JUMP JUMPDEST PUSH2 0x259 PUSH1 0x8 SLOAD DUP2 JUMP JUMPDEST PUSH2 0x259 PUSH1 0x6 SLOAD DUP2 JUMP JUMPDEST PUSH2 0x28C PUSH2 0x287 CALLDATASIZE PUSH1 0x4 PUSH2 0x104F JUMP JUMPDEST PUSH2 0x60B JUMP JUMPDEST PUSH1 0x40 MLOAD SWAP1 ISZERO ISZERO DUP2 MSTORE PUSH1 0x20 ADD PUSH2 0x214 JUMP JUMPDEST PUSH2 0x28C PUSH2 0x77F JUMP JUMPDEST PUSH2 0x259 PUSH32 0x0 DUP2 JUMP JUMPDEST PUSH1 0x4 SLOAD PUSH2 0x28C SWAP1 PUSH1 0xFF AND DUP2 JUMP JUMPDEST PUSH2 0x259 PUSH1 0xA SLOAD DUP2 JUMP JUMPDEST PUSH2 0x259 PUSH32 0x0 DUP2 JUMP JUMPDEST PUSH2 0x259 PUSH2 0x789 JUMP JUMPDEST PUSH2 0x259 PUSH2 0x7A3 JUMP JUMPDEST PUSH2 0x259 PUSH1 0x1 SLOAD DUP2 JUMP JUMPDEST PUSH2 0x259 PUSH32 0x0 DUP2 JUMP JUMPDEST PUSH2 0x259 PUSH32 0x0 DUP2 JUMP JUMPDEST PUSH2 0x259 PUSH1 0x9 SLOAD DUP2 JUMP JUMPDEST PUSH2 0x259 PUSH2 0x7BD JUMP JUMPDEST PUSH2 0x259 PUSH32 0x0 DUP2 JUMP JUMPDEST PUSH2 0x28C PUSH2 0x3B5 CALLDATASIZE PUSH1 0x4 PUSH2 0x104F JUMP JUMPDEST PUSH2 0x7D7 JUMP JUMPDEST PUSH2 0x259 PUSH1 0x3 SLOAD DUP2 JUMP JUMPDEST PUSH2 0x259 PUSH1 0x2 SLOAD DUP2 JUMP JUMPDEST PUSH2 0x259 PUSH1 0x7 SLOAD DUP2 JUMP JUMPDEST PUSH2 0x259 PUSH32 0x0 DUP2 JUMP JUMPDEST PUSH2 0x259 PUSH1 0x5 SLOAD DUP2 JUMP JUMPDEST PUSH2 0x259 PUSH32 0x0 DUP2 JUMP JUMPDEST PUSH2 0x259 PUSH32 0x0 DUP2 JUMP JUMPDEST PUSH2 0x200 PUSH32 0x0 DUP2 JUMP JUMPDEST PUSH2 0x230 PUSH2 0xA26 JUMP JUMPDEST PUSH1 0xB SLOAD PUSH2 0x200 SWAP1 PUSH1 0x1 PUSH1 0x1 PUSH1 0xA0 SHL SUB AND DUP2 JUMP JUMPDEST SWAP1 POP SWAP1 JUMP JUMPDEST PUSH32 0x0 PUSH1 0x40 MLOAD PUSH4 0x24745215 PUSH1 0xE2 SHL DUP2 MSTORE PUSH10 0x676F7665726E616E6365 PUSH1 0xB0 SHL PUSH1 0x4 DUP3 ADD MSTORE CALLER PUSH1 0x24 DUP3 ADD MSTORE PUSH1 0x1 PUSH1 0x1 PUSH1 0xA0 SHL SUB SWAP2 SWAP1 SWAP2 AND SWAP1 PUSH4 0x91D14854 SWAP1 PUSH1 0x44 ADD PUSH1 0x20 PUSH1 0x40 MLOAD DUP1 DUP4 SUB DUP2 DUP7 DUP1 EXTCODESIZE ISZERO DUP1 ISZERO PUSH2 0x50F JUMPI PUSH1 0x0 DUP1 REVERT JUMPDEST POP GAS STATICCALL ISZERO DUP1 ISZERO PUSH2 0x523 JUMPI RETURNDATASIZE PUSH1 0x0 DUP1 RETURNDATACOPY RETURNDATASIZE PUSH1 0x0 REVERT JUMPDEST POP POP POP POP PUSH1 0x40 MLOAD RETURNDATASIZE PUSH1 0x1F NOT PUSH1 0x1F DUP3 ADD AND DUP3 ADD DUP1 PUSH1 0x40 MSTORE POP DUP2 ADD SWAP1 PUSH2 0x547 SWAP2 SWAP1 PUSH2 0x107B JUMP JUMPDEST PUSH1 0x40 MLOAD DUP1 PUSH1 0x40 ADD PUSH1 0x40 MSTORE DUP1 PUSH1 0x13 DUP2 MSTORE PUSH1 0x20 ADD PUSH19 0x756E617574686F72697A656420616363657373 PUSH1 0x68 SHL DUP2 MSTORE POP SWAP1 PUSH2 0x59A JUMPI PUSH1 0x40 MLOAD PUSH3 0x461BCD PUSH1 0xE5 SHL DUP2 MSTORE PUSH1 0x4 ADD PUSH2 0x591 SWAP2 SWAP1 PUSH2 0x109D JUMP JUMPDEST PUSH1 0x40 MLOAD DUP1 SWAP2 SUB SWAP1 REVERT JUMPDEST POP PUSH1 0xB SLOAD PUSH1 0x1 PUSH1 0x1 PUSH1 0xA0 SHL SUB AND ISZERO PUSH2 0x5E9 JUMPI PUSH1 0x40 MLOAD PUSH3 0x461BCD PUSH1 0xE5 SHL DUP2 MSTORE PUSH1 0x20 PUSH1 0x4 DUP3 ADD MSTORE PUSH1 0x12 PUSH1 0x24 DUP3 ADD MSTORE PUSH18 0x546F6B656E20616C72656164792073657421 PUSH1 0x70 SHL PUSH1 0x44 DUP3 ADD MSTORE PUSH1 0x64 ADD PUSH2 0x591 JUMP JUMPDEST PUSH1 0xB DUP1 SLOAD PUSH1 0x1 PUSH1 0x1 PUSH1 0xA0 SHL SUB NOT AND PUSH1 0x1 PUSH1 0x1 PUSH1 0xA0 SHL SUB SWAP3 SWAP1 SWAP3 AND SWAP2 SWAP1 SWAP2 OR SWAP1 SSTORE JUMP JUMPDEST PUSH1 0x0 PUSH1 0x2 PUSH1 0x0 SLOAD EQ ISZERO PUSH2 0x660 JUMPI PUSH1 0x40 MLOAD PUSH3 0x461BCD PUSH1 0xE5 SHL DUP2 MSTORE PUSH1 0x20 PUSH1 0x4 DUP3 ADD MSTORE PUSH1 0x1F PUSH1 0x24 DUP3 ADD MSTORE PUSH32 0x5265656E7472616E637947756172643A207265656E7472616E742063616C6C00 PUSH1 0x44 DUP3 ADD MSTORE PUSH1 0x64 ADD PUSH2 0x591 JUMP JUMPDEST PUSH1 0x2 PUSH1 0x0 DUP2 SWAP1 SSTORE POP PUSH32 0x0 PUSH1 0x1 PUSH1 0x1 PUSH1 0xA0 SHL SUB AND PUSH4 0xDBCD89FA PUSH1 0x40 MLOAD DUP2 PUSH4 0xFFFFFFFF AND PUSH1 0xE0 SHL DUP2 MSTORE PUSH1 0x4 ADD PUSH1 0x20 PUSH1 0x40 MLOAD DUP1 DUP4 SUB DUP2 DUP7 DUP1 EXTCODESIZE ISZERO DUP1 ISZERO PUSH2 0x6C1 JUMPI PUSH1 0x0 DUP1 REVERT JUMPDEST POP GAS STATICCALL ISZERO DUP1 ISZERO PUSH2 0x6D5 JUMPI RETURNDATASIZE PUSH1 0x0 DUP1 RETURNDATACOPY RETURNDATASIZE PUSH1 0x0 REVERT JUMPDEST POP POP POP POP PUSH1 0x40 MLOAD RETURNDATASIZE PUSH1 0x1F NOT PUSH1 0x1F DUP3 ADD AND DUP3 ADD DUP1 PUSH1 0x40 MSTORE POP DUP2 ADD SWAP1 PUSH2 0x6F9 SWAP2 SWAP1 PUSH2 0x10F2 JUMP JUMPDEST PUSH1 0x1 PUSH1 0x1 PUSH1 0xA0 SHL SUB AND CALLER PUSH1 0x1 PUSH1 0x1 PUSH1 0xA0 SHL SUB AND EQ PUSH1 0x40 MLOAD DUP1 PUSH1 0x40 ADD PUSH1 0x40 MSTORE DUP1 PUSH1 0x13 DUP2 MSTORE PUSH1 0x20 ADD PUSH19 0x756E617574686F72697A656420616363657373 PUSH1 0x68 SHL DUP2 MSTORE POP SWAP1 PUSH2 0x757 JUMPI PUSH1 0x40 MLOAD PUSH3 0x461BCD PUSH1 0xE5 SHL DUP2 MSTORE PUSH1 0x4 ADD PUSH2 0x591 SWAP2 SWAP1 PUSH2 0x109D JUMP JUMPDEST POP PUSH1 0xA SLOAD PUSH2 0x767 JUMPI POP PUSH1 0x0 PUSH2 0x774 JUMP JUMPDEST PUSH2 0x771 DUP4 DUP4 PUSH2 0xC07 JUMP JUMPDEST SWAP1 POP JUMPDEST PUSH1 0x1 PUSH1 0x0 SSTORE SWAP3 SWAP2 POP POP JUMP JUMPDEST PUSH1 0x0 PUSH2 0x495 PUSH2 0xD63 JUMP JUMPDEST PUSH1 0x0 PUSH1 0xA SLOAD PUSH1 0x0 EQ ISZERO PUSH2 0x79C JUMPI POP PUSH1 0x0 SWAP1 JUMP JUMPDEST POP PUSH1 0x3 SLOAD SWAP1 JUMP JUMPDEST PUSH1 0x0 PUSH1 0xA SLOAD PUSH1 0x0 EQ ISZERO PUSH2 0x7B6 JUMPI POP PUSH1 0x0 SWAP1 JUMP JUMPDEST POP PUSH1 0x1 SLOAD SWAP1 JUMP JUMPDEST PUSH1 0x0 PUSH1 0xA SLOAD PUSH1 0x0 EQ ISZERO PUSH2 0x7D0 JUMPI POP PUSH1 0x0 SWAP1 JUMP JUMPDEST POP PUSH1 0x2 SLOAD SWAP1 JUMP JUMPDEST PUSH1 0x0 PUSH32 0x0 PUSH1 0x40 MLOAD PUSH4 0x24745215 PUSH1 0xE2 SHL DUP2 MSTORE PUSH10 0x676F7665726E616E6365 PUSH1 0xB0 SHL PUSH1 0x4 DUP3 ADD MSTORE CALLER PUSH1 0x24 DUP3 ADD MSTORE PUSH1 0x1 PUSH1 0x1 PUSH1 0xA0 SHL SUB SWAP2 SWAP1 SWAP2 AND SWAP1 PUSH4 0x91D14854 SWAP1 PUSH1 0x44 ADD PUSH1 0x20 PUSH1 0x40 MLOAD DUP1 DUP4 SUB DUP2 DUP7 DUP1 EXTCODESIZE ISZERO DUP1 ISZERO PUSH2 0x84E JUMPI PUSH1 0x0 DUP1 REVERT JUMPDEST POP GAS STATICCALL ISZERO DUP1 ISZERO PUSH2 0x862 JUMPI RETURNDATASIZE PUSH1 0x0 DUP1 RETURNDATACOPY RETURNDATASIZE PUSH1 0x0 REVERT JUMPDEST POP POP POP POP PUSH1 0x40 MLOAD RETURNDATASIZE PUSH1 0x1F NOT PUSH1 0x1F DUP3 ADD AND DUP3 ADD DUP1 PUSH1 0x40 MSTORE POP DUP2 ADD SWAP1 PUSH2 0x886 SWAP2 SWAP1 PUSH2 0x107B JUMP JUMPDEST PUSH1 0x40 MLOAD DUP1 PUSH1 0x40 ADD PUSH1 0x40 MSTORE DUP1 PUSH1 0x13 DUP2 MSTORE PUSH1 0x20 ADD PUSH19 0x756E617574686F72697A656420616363657373 PUSH1 0x68 SHL DUP2 MSTORE POP SWAP1 PUSH2 0x8D0 JUMPI PUSH1 0x40 MLOAD PUSH3 0x461BCD PUSH1 0xE5 SHL DUP2 MSTORE PUSH1 0x4 ADD PUSH2 0x591 SWAP2 SWAP1 PUSH2 0x109D JUMP JUMPDEST POP PUSH32 0x0 DUP3 PUSH1 0x5 SLOAD PUSH2 0x900 SWAP2 SWAP1 PUSH2 0x1125 JUMP JUMPDEST GT ISZERO PUSH2 0x95D JUMPI PUSH1 0x40 MLOAD PUSH3 0x461BCD PUSH1 0xE5 SHL DUP2 MSTORE PUSH1 0x20 PUSH1 0x4 DUP3 ADD MSTORE PUSH1 0x26 PUSH1 0x24 DUP3 ADD MSTORE PUSH32 0x4D6178696D756D206E6F6E2D696E666C6174696F6E20616D6F756E7420657863 PUSH1 0x44 DUP3 ADD MSTORE PUSH6 0x32B2B232B217 PUSH1 0xD1 SHL PUSH1 0x64 DUP3 ADD MSTORE PUSH1 0x84 ADD PUSH2 0x591 JUMP JUMPDEST DUP2 PUSH1 0x5 PUSH1 0x0 DUP3 DUP3 SLOAD PUSH2 0x96F SWAP2 SWAP1 PUSH2 0x1125 JUMP JUMPDEST SWAP1 SWAP2 SSTORE POP POP PUSH1 0xB SLOAD PUSH1 0x40 MLOAD PUSH4 0x40C10F19 PUSH1 0xE0 SHL DUP2 MSTORE PUSH1 0x1 PUSH1 0x1 PUSH1 0xA0 SHL SUB DUP6 DUP2 AND PUSH1 0x4 DUP4 ADD MSTORE PUSH1 0x24 DUP3 ADD DUP6 SWAP1 MSTORE SWAP1 SWAP2 AND SWAP1 PUSH4 0x40C10F19 SWAP1 PUSH1 0x44 ADD PUSH1 0x0 PUSH1 0x40 MLOAD DUP1 DUP4 SUB DUP2 PUSH1 0x0 DUP8 DUP1 EXTCODESIZE ISZERO DUP1 ISZERO PUSH2 0x9C2 JUMPI PUSH1 0x0 DUP1 REVERT JUMPDEST POP GAS CALL ISZERO DUP1 ISZERO PUSH2 0x9D6 JUMPI RETURNDATASIZE PUSH1 0x0 DUP1 RETURNDATACOPY RETURNDATASIZE PUSH1 0x0 REVERT JUMPDEST POP POP PUSH1 0x40 DUP1 MLOAD PUSH1 0x1 PUSH1 0x1 PUSH1 0xA0 SHL SUB DUP8 AND DUP2 MSTORE PUSH1 0x20 DUP2 ADD DUP7 SWAP1 MSTORE PUSH32 0x3F2C9D57C068687834F0DE942A9BABB9E5ACAB57D516D3480A3C16EE165A4273 SWAP4 POP ADD SWAP1 POP PUSH1 0x40 MLOAD DUP1 SWAP2 SUB SWAP1 LOG1 POP PUSH1 0x1 SWAP3 SWAP2 POP POP JUMP JUMPDEST PUSH32 0x0 PUSH1 0x40 MLOAD PUSH4 0x24745215 PUSH1 0xE2 SHL DUP2 MSTORE PUSH10 0x676F7665726E616E6365 PUSH1 0xB0 SHL PUSH1 0x4 DUP3 ADD MSTORE CALLER PUSH1 0x24 DUP3 ADD MSTORE PUSH1 0x1 PUSH1 0x1 PUSH1 0xA0 SHL SUB SWAP2 SWAP1 SWAP2 AND SWAP1 PUSH4 0x91D14854 SWAP1 PUSH1 0x44 ADD PUSH1 0x20 PUSH1 0x40 MLOAD DUP1 DUP4 SUB DUP2 DUP7 DUP1 EXTCODESIZE ISZERO DUP1 ISZERO PUSH2 0xA9B JUMPI PUSH1 0x0 DUP1 REVERT JUMPDEST POP GAS STATICCALL ISZERO DUP1 ISZERO PUSH2 0xAAF JUMPI RETURNDATASIZE PUSH1 0x0 DUP1 RETURNDATACOPY RETURNDATASIZE PUSH1 0x0 REVERT JUMPDEST POP POP POP POP PUSH1 0x40 MLOAD RETURNDATASIZE PUSH1 0x1F NOT PUSH1 0x1F DUP3 ADD AND DUP3 ADD DUP1 PUSH1 0x40 MSTORE POP DUP2 ADD SWAP1 PUSH2 0xAD3 SWAP2 SWAP1 PUSH2 0x107B JUMP JUMPDEST PUSH1 0x40 MLOAD DUP1 PUSH1 0x40 ADD PUSH1 0x40 MSTORE DUP1 PUSH1 0x13 DUP2 MSTORE PUSH1 0x20 ADD PUSH19 0x756E617574686F72697A656420616363657373 PUSH1 0x68 SHL DUP2 MSTORE POP SWAP1 PUSH2 0xB1D JUMPI PUSH1 0x40 MLOAD PUSH3 0x461BCD PUSH1 0xE5 SHL DUP2 MSTORE PUSH1 0x4 ADD PUSH2 0x591 SWAP2 SWAP1 PUSH2 0x109D JUMP JUMPDEST POP PUSH1 0xA SLOAD ISZERO PUSH2 0xB6E JUMPI PUSH1 0x40 MLOAD PUSH3 0x461BCD PUSH1 0xE5 SHL DUP2 MSTORE PUSH1 0x20 PUSH1 0x4 DUP3 ADD MSTORE PUSH1 0x1E PUSH1 0x24 DUP3 ADD MSTORE PUSH32 0x496E666C6174696F6E2068617320616C726561647920737461727465642E0000 PUSH1 0x44 DUP3 ADD MSTORE PUSH1 0x64 ADD PUSH2 0x591 JUMP JUMPDEST TIMESTAMP PUSH1 0xA DUP2 SWAP1 SSTORE PUSH1 0x6 SSTORE JUMP JUMPDEST PUSH1 0x40 MLOAD PUSH4 0x21F8A721 PUSH1 0xE0 SHL DUP2 MSTORE PUSH11 0x3937B632A6B0B730B3B2B9 PUSH1 0xA9 SHL PUSH1 0x4 DUP3 ADD MSTORE PUSH1 0x0 SWAP1 PUSH1 0x1 PUSH1 0x1 PUSH1 0xA0 SHL SUB DUP4 AND SWAP1 PUSH4 0x21F8A721 SWAP1 PUSH1 0x24 ADD PUSH1 0x20 PUSH1 0x40 MLOAD DUP1 DUP4 SUB DUP2 DUP7 DUP1 EXTCODESIZE ISZERO DUP1 ISZERO PUSH2 0xBC9 JUMPI PUSH1 0x0 DUP1 REVERT JUMPDEST POP GAS STATICCALL ISZERO DUP1 ISZERO PUSH2 0xBDD JUMPI RETURNDATASIZE PUSH1 0x0 DUP1 RETURNDATACOPY RETURNDATASIZE PUSH1 0x0 REVERT JUMPDEST POP POP POP POP PUSH1 0x40 MLOAD RETURNDATASIZE PUSH1 0x1F NOT PUSH1 0x1F DUP3 ADD AND DUP3 ADD DUP1 PUSH1 0x40 MSTORE POP DUP2 ADD SWAP1 PUSH2 0xC01 SWAP2 SWAP1 PUSH2 0x10F2 JUMP JUMPDEST SWAP3 SWAP2 POP POP JUMP JUMPDEST PUSH1 0x0 PUSH1 0x7 SLOAD PUSH1 0xA SLOAD TIMESTAMP PUSH2 0xC1A SWAP2 SWAP1 PUSH2 0x113D JUMP JUMPDEST PUSH2 0xC24 SWAP2 SWAP1 PUSH2 0x1154 JUMP JUMPDEST PUSH1 0x8 PUSH1 0x0 DUP3 DUP3 SLOAD PUSH2 0xC35 SWAP2 SWAP1 PUSH2 0x1125 JUMP JUMPDEST SWAP1 SWAP2 SSTORE POP POP PUSH1 0x9 SLOAD PUSH1 0x0 SWAP1 PUSH2 0xC4B SWAP1 DUP5 SWAP1 PUSH2 0x1125 JUMP JUMPDEST SWAP1 POP PUSH1 0x8 SLOAD DUP2 GT ISZERO PUSH2 0xC9F JUMPI PUSH1 0x40 MLOAD PUSH3 0x461BCD PUSH1 0xE5 SHL DUP2 MSTORE PUSH1 0x20 PUSH1 0x4 DUP3 ADD MSTORE PUSH1 0x18 PUSH1 0x24 DUP3 ADD MSTORE PUSH32 0x4D696E7461626C6520616D6F756E742065786365656465640000000000000000 PUSH1 0x44 DUP3 ADD MSTORE PUSH1 0x64 ADD PUSH2 0x591 JUMP JUMPDEST PUSH1 0x9 DUP2 SWAP1 SSTORE TIMESTAMP PUSH1 0xA SSTORE PUSH1 0xB SLOAD PUSH1 0x40 MLOAD PUSH4 0x40C10F19 PUSH1 0xE0 SHL DUP2 MSTORE PUSH1 0x1 PUSH1 0x1 PUSH1 0xA0 SHL SUB DUP7 DUP2 AND PUSH1 0x4 DUP4 ADD MSTORE PUSH1 0x24 DUP3 ADD DUP7 SWAP1 MSTORE SWAP1 SWAP2 AND SWAP1 PUSH4 0x40C10F19 SWAP1 PUSH1 0x44 ADD PUSH1 0x0 PUSH1 0x40 MLOAD DUP1 DUP4 SUB DUP2 PUSH1 0x0 DUP8 DUP1 EXTCODESIZE ISZERO DUP1 ISZERO PUSH2 0xCF6 JUMPI PUSH1 0x0 DUP1 REVERT JUMPDEST POP GAS CALL ISZERO DUP1 ISZERO PUSH2 0xD0A JUMPI RETURNDATASIZE PUSH1 0x0 DUP1 RETURNDATACOPY RETURNDATASIZE PUSH1 0x0 REVERT JUMPDEST POP POP POP POP PUSH2 0xD16 PUSH2 0xD63 JUMP JUMPDEST POP PUSH1 0x40 DUP1 MLOAD PUSH1 0x1 PUSH1 0x1 PUSH1 0xA0 SHL SUB DUP7 AND DUP2 MSTORE PUSH1 0x20 DUP2 ADD DUP6 SWAP1 MSTORE PUSH32 0x3F2C9D57C068687834F0DE942A9BABB9E5ACAB57D516D3480A3C16EE165A4273 SWAP2 ADD PUSH1 0x40 MLOAD DUP1 SWAP2 SUB SWAP1 LOG1 POP PUSH1 0x1 SWAP4 SWAP3 POP POP POP JUMP JUMPDEST PUSH1 0x0 PUSH1 0xA SLOAD TIMESTAMP PUSH2 0xD73 SWAP2 SWAP1 PUSH2 0x113D JUMP JUMPDEST PUSH1 0x7 SLOAD PUSH2 0xD80 SWAP2 SWAP1 PUSH2 0x1154 JUMP JUMPDEST PUSH1 0x8 PUSH1 0x0 DUP3 DUP3 SLOAD PUSH2 0xD91 SWAP2 SWAP1 PUSH2 0x1125 JUMP JUMPDEST SWAP1 SWAP2 SSTORE POP POP TIMESTAMP PUSH1 0xA SSTORE PUSH1 0x6 SLOAD PUSH2 0xDAC SWAP1 PUSH4 0x1E13380 SWAP1 PUSH2 0x1125 JUMP JUMPDEST TIMESTAMP LT PUSH2 0xFEE JUMPI PUSH1 0x1 SLOAD PUSH2 0xDDF SWAP1 PUSH32 0x0 PUSH2 0xFF4 JUMP JUMPDEST PUSH1 0x1 SSTORE PUSH1 0x4 SLOAD PUSH1 0xFF AND ISZERO PUSH2 0xE52 JUMPI PUSH1 0x2 SLOAD PUSH2 0xE1A SWAP1 PUSH32 0x0 PUSH2 0xFF4 JUMP JUMPDEST PUSH1 0x2 SSTORE PUSH1 0x3 SLOAD PUSH2 0xE4A SWAP1 PUSH32 0x0 PUSH2 0xFF4 JUMP JUMPDEST PUSH1 0x3 SSTORE PUSH2 0xEC2 JUMP JUMPDEST PUSH2 0xE80 PUSH4 0x1E13380 PUSH32 0x0 PUSH2 0x1173 JUMP JUMPDEST PUSH1 0x2 SSTORE PUSH2 0xEB1 PUSH4 0x1E13380 PUSH32 0x0 PUSH2 0x1173 JUMP JUMPDEST PUSH1 0x3 SSTORE PUSH1 0x4 DUP1 SLOAD PUSH1 0xFF NOT AND PUSH1 0x1 OR SWAP1 SSTORE JUMPDEST PUSH1 0x3 SLOAD PUSH1 0x2 SLOAD PUSH1 0x1 SLOAD PUSH2 0xED5 SWAP2 SWAP1 PUSH2 0x1125 JUMP JUMPDEST PUSH2 0xEDF SWAP2 SWAP1 PUSH2 0x1125 JUMP JUMPDEST PUSH1 0x7 DUP2 SWAP1 SSTORE POP PUSH32 0x0 PUSH1 0x1 PUSH1 0x1 PUSH1 0xA0 SHL SUB AND PUSH4 0xDBCD89FA PUSH1 0x40 MLOAD DUP2 PUSH4 0xFFFFFFFF AND PUSH1 0xE0 SHL DUP2 MSTORE PUSH1 0x4 ADD PUSH1 0x20 PUSH1 0x40 MLOAD DUP1 DUP4 SUB DUP2 DUP7 DUP1 EXTCODESIZE ISZERO DUP1 ISZERO PUSH2 0xF3E JUMPI PUSH1 0x0 DUP1 REVERT JUMPDEST POP GAS STATICCALL ISZERO DUP1 ISZERO PUSH2 0xF52 JUMPI RETURNDATASIZE PUSH1 0x0 DUP1 RETURNDATACOPY RETURNDATASIZE PUSH1 0x0 REVERT JUMPDEST POP POP POP POP PUSH1 0x40 MLOAD RETURNDATASIZE PUSH1 0x1F NOT PUSH1 0x1F DUP3 ADD AND DUP3 ADD DUP1 PUSH1 0x40 MSTORE POP DUP2 ADD SWAP1 PUSH2 0xF76 SWAP2 SWAP1 PUSH2 0x10F2 JUMP JUMPDEST PUSH1 0x1 PUSH1 0x1 PUSH1 0xA0 SHL SUB AND PUSH4 0xB662FC55 PUSH1 0x40 MLOAD DUP2 PUSH4 0xFFFFFFFF AND PUSH1 0xE0 SHL DUP2 MSTORE PUSH1 0x4 ADD PUSH1 0x20 PUSH1 0x40 MLOAD DUP1 DUP4 SUB DUP2 PUSH1 0x0 DUP8 DUP1 EXTCODESIZE ISZERO DUP1 ISZERO PUSH2 0xFB0 JUMPI PUSH1 0x0 DUP1 REVERT JUMPDEST POP GAS CALL ISZERO DUP1 ISZERO PUSH2 0xFC4 JUMPI RETURNDATASIZE PUSH1 0x0 DUP1 RETURNDATACOPY RETURNDATASIZE PUSH1 0x0 REVERT JUMPDEST POP POP POP POP PUSH1 0x40 MLOAD RETURNDATASIZE PUSH1 0x1F NOT PUSH1 0x1F DUP3 ADD AND DUP3 ADD DUP1 PUSH1 0x40 MSTORE POP DUP2 ADD SWAP1 PUSH2 0xFE8 SWAP2 SWAP1 PUSH2 0x107B JUMP JUMPDEST POP TIMESTAMP PUSH1 0x6 SSTORE JUMPDEST POP PUSH1 0x1 SWAP1 JUMP JUMPDEST PUSH1 0x0 PUSH8 0xDE0B6B3A7640000 PUSH2 0x1009 DUP4 DUP6 PUSH2 0x1154 JUMP JUMPDEST PUSH2 0x1013 SWAP2 SWAP1 PUSH2 0x1173 JUMP JUMPDEST SWAP4 SWAP3 POP POP POP JUMP JUMPDEST PUSH1 0x1 PUSH1 0x1 PUSH1 0xA0 SHL SUB DUP2 AND DUP2 EQ PUSH2 0x102F JUMPI PUSH1 0x0 DUP1 REVERT JUMPDEST POP JUMP JUMPDEST PUSH1 0x0 PUSH1 0x20 DUP3 DUP5 SUB SLT ISZERO PUSH2 0x1044 JUMPI PUSH1 0x0 DUP1 REVERT JUMPDEST DUP2 CALLDATALOAD PUSH2 0x1013 DUP2 PUSH2 0x101A JUMP JUMPDEST PUSH1 0x0 DUP1 PUSH1 0x40 DUP4 DUP6 SUB SLT ISZERO PUSH2 0x1062 JUMPI PUSH1 0x0 DUP1 REVERT JUMPDEST DUP3 CALLDATALOAD PUSH2 0x106D DUP2 PUSH2 0x101A JUMP JUMPDEST SWAP5 PUSH1 0x20 SWAP4 SWAP1 SWAP4 ADD CALLDATALOAD SWAP4 POP POP POP JUMP JUMPDEST PUSH1 0x0 PUSH1 0x20 DUP3 DUP5 SUB SLT ISZERO PUSH2 0x108D JUMPI PUSH1 0x0 DUP1 REVERT JUMPDEST DUP2 MLOAD DUP1 ISZERO ISZERO DUP2 EQ PUSH2 0x1013 JUMPI PUSH1 0x0 DUP1 REVERT JUMPDEST PUSH1 0x0 PUSH1 0x20 DUP1 DUP4 MSTORE DUP4 MLOAD DUP1 DUP3 DUP6 ADD MSTORE PUSH1 0x0 JUMPDEST DUP2 DUP2 LT ISZERO PUSH2 0x10CA JUMPI DUP6 DUP2 ADD DUP4 ADD MLOAD DUP6 DUP3 ADD PUSH1 0x40 ADD MSTORE DUP3 ADD PUSH2 0x10AE JUMP JUMPDEST DUP2 DUP2 GT ISZERO PUSH2 0x10DC JUMPI PUSH1 0x0 PUSH1 0x40 DUP4 DUP8 ADD ADD MSTORE JUMPDEST POP PUSH1 0x1F ADD PUSH1 0x1F NOT AND SWAP3 SWAP1 SWAP3 ADD PUSH1 0x40 ADD SWAP4 SWAP3 POP POP POP JUMP JUMPDEST PUSH1 0x0 PUSH1 0x20 DUP3 DUP5 SUB SLT ISZERO PUSH2 0x1104 JUMPI PUSH1 0x0 DUP1 REVERT JUMPDEST DUP2 MLOAD PUSH2 0x1013 DUP2 PUSH2 0x101A JUMP JUMPDEST PUSH4 0x4E487B71 PUSH1 0xE0 SHL PUSH1 0x0 MSTORE PUSH1 0x11 PUSH1 0x4 MSTORE PUSH1 0x24 PUSH1 0x0 REVERT JUMPDEST PUSH1 0x0 DUP3 NOT DUP3 GT ISZERO PUSH2 0x1138 JUMPI PUSH2 0x1138 PUSH2 0x110F JUMP JUMPDEST POP ADD SWAP1 JUMP JUMPDEST PUSH1 0x0 DUP3 DUP3 LT ISZERO PUSH2 0x114F JUMPI PUSH2 0x114F PUSH2 0x110F JUMP JUMPDEST POP SUB SWAP1 JUMP JUMPDEST PUSH1 0x0 DUP2 PUSH1 0x0 NOT DIV DUP4 GT DUP3 ISZERO ISZERO AND ISZERO PUSH2 0x116E JUMPI PUSH2 0x116E PUSH2 0x110F JUMP JUMPDEST POP MUL SWAP1 JUMP JUMPDEST PUSH1 0x0 DUP3 PUSH2 0x1190 JUMPI PUSH4 0x4E487B71 PUSH1 0xE0 SHL PUSH1 0x0 MSTORE PUSH1 0x12 PUSH1 0x4 MSTORE PUSH1 0x24 PUSH1 0x0 REVERT JUMPDEST POP DIV SWAP1 JUMP INVALID LOG2 PUSH5 0x6970667358 0x22 SLT KECCAK256 0xAA SELFDESTRUCT DELEGATECALL RETURNDATASIZE DUP14 CALLDATACOPY DUP5 MSTORE8 0x4E 0xD7 DUP8 MUL MUL ADDRESS 0x29 0xE4 0xB2 0x28 JUMPI 0x2B NUMBER 0xB1 GT 0xC1 0xDD 0xE4 0xE5 0xED DUP5 0xA8 CALLDATALOAD 0x49 PUSH5 0x736F6C6343 STOP ADDMOD MULMOD STOP CALLER ","sha1":"4608242a30619e6bc9a491c463c3f668e398b5dc","source":"// SPDX-License-Identifier: GPL-3.0-or-later\npragma solidity 0.8.9;\n\nimport \"@openzeppelin/contracts/token/ERC20/utils/SafeERC20.sol\";\nimport \"@openzeppelin/contracts/security/ReentrancyGuard.sol\";\n\nimport \"../../interfaces/IController.sol\";\nimport \"../../interfaces/tokenomics/IBkdToken.sol\";\n\nimport \"../../libraries/Errors.sol\";\nimport \"../../libraries/ScaledMath.sol\";\nimport \"../../libraries/AddressProviderHelpers.sol\";\n\nimport \"./BkdToken.sol\";\nimport \"../access/Authorization.sol\";\n\ncontract Minter is Authorization, ReentrancyGuard {\n    using ScaledMath for uint256;\n    using AddressProviderHelpers for IAddressProvider;\n\n    uint256 private constant _INFLATION_DECAY_PERIOD = 365 days;\n\n    // Lp Rates\n    uint256 public immutable initialAnnualInflationRateLp;\n    uint256 public immutable annualInflationDecayLp;\n    uint256 public currentInflationAmountLp;\n\n    // Keeper Rates\n    uint256 public immutable initialPeriodKeeperInflation;\n    uint256 public immutable initialAnnualInflationRateKeeper;\n    uint256 public immutable annualInflationDecayKeeper;\n    uint256 public currentInflationAmountKeeper;\n\n    // AMM Rates\n    uint256 public immutable initialPeriodAmmInflation;\n    uint256 public immutable initialAnnualInflationRateAmm;\n    uint256 public immutable annualInflationDecayAmm;\n    uint256 public currentInflationAmountAmm;\n\n    bool public initialPeriodEnded;\n\n    // Non-inflation rates\n    uint256 public immutable nonInflationDistribution;\n    uint256 public issuedNonInflationSupply;\n\n    uint256 public lastInflationDecay;\n    uint256 public currentTotalInflation;\n\n    // Used for final safety check to ensure inflation is not exceeded\n    uint256 public totalAvailableToNow;\n    uint256 public totalMintedToNow;\n    uint256 public lastEvent;\n\n    IController public immutable controller;\n    BkdToken public token;\n\n    event TokensMinted(address beneficiary, uint256 amount);\n\n    constructor(\n        uint256 _annualInflationRateLp,\n        uint256 _annualInflationRateKeeper,\n        uint256 _annualInflationRateAmm,\n        uint256 _annualInflationDecayLp,\n        uint256 _annualInflationDecayKeeper,\n        uint256 _annualInflationDecayAmm,\n        uint256 _initialPeriodKeeperInflation,\n        uint256 _initialPeriodAmmInflation,\n        uint256 _nonInflationDistribution,\n        IController _controller\n    ) Authorization(_controller.addressProvider().getRoleManager()) {\n        require(_annualInflationDecayLp < ScaledMath.ONE, Error.INVALID_PARAMETER_VALUE);\n        require(_annualInflationDecayKeeper < ScaledMath.ONE, Error.INVALID_PARAMETER_VALUE);\n        require(_annualInflationDecayAmm < ScaledMath.ONE, Error.INVALID_PARAMETER_VALUE);\n        initialAnnualInflationRateLp = _annualInflationRateLp;\n        initialAnnualInflationRateKeeper = _annualInflationRateKeeper;\n        initialAnnualInflationRateAmm = _annualInflationRateAmm;\n\n        annualInflationDecayLp = _annualInflationDecayLp;\n        annualInflationDecayKeeper = _annualInflationDecayKeeper;\n        annualInflationDecayAmm = _annualInflationDecayAmm;\n\n        initialPeriodKeeperInflation = _initialPeriodKeeperInflation;\n        initialPeriodAmmInflation = _initialPeriodAmmInflation;\n\n        currentInflationAmountLp = _annualInflationRateLp / _INFLATION_DECAY_PERIOD;\n        currentInflationAmountKeeper = _initialPeriodKeeperInflation / _INFLATION_DECAY_PERIOD;\n        currentInflationAmountAmm = _initialPeriodAmmInflation / _INFLATION_DECAY_PERIOD;\n\n        currentTotalInflation =\n            currentInflationAmountLp +\n            currentInflationAmountKeeper +\n            currentInflationAmountAmm;\n\n        nonInflationDistribution = _nonInflationDistribution;\n        controller = _controller;\n    }\n\n    function setToken(address _token) external onlyGovernance {\n        require(address(token) == address(0), \"Token already set!\");\n        token = BkdToken(_token);\n    }\n\n    function startInflation() external onlyGovernance {\n        require(lastEvent == 0, \"Inflation has already started.\");\n        lastEvent = block.timestamp;\n        lastInflationDecay = block.timestamp;\n    }\n\n    /**\n     * @notice Update the inflation rate according to the piecewise linear schedule.\n     * @dev This updates the inflation rate to the next linear segment in the inflations schedule.\n     * @return `true` if successful.\n     */\n    function executeInflationRateUpdate() external returns (bool) {\n        return _executeInflationRateUpdate();\n    }\n\n    /**\n     * @notice Mints BKD tokens to a specified address.\n     * @dev Can only be called by the controller.\n     * @param beneficiary Address to mint tokens for.\n     * @param amount Amount of tokens to mint.\n     * @return `true` if successful.\n     */\n    function mint(address beneficiary, uint256 amount) external nonReentrant returns (bool) {\n        require(msg.sender == address(controller.inflationManager()), Error.UNAUTHORIZED_ACCESS);\n        if (lastEvent == 0) return false;\n        return _mint(beneficiary, amount);\n    }\n\n    /**\n     * @notice Mint tokens that are not part of the inflation schedule.\n     * @dev The amount of tokens that can be minted in total is subject to a pre-set upper limit.\n     * @param beneficiary Address to mint tokens for.\n     * @param amount Amount of tokens to mint.\n     * @return `true` if successful.\n     */\n    function mintNonInflationTokens(address beneficiary, uint256 amount)\n        external\n        onlyGovernance\n        returns (bool)\n    {\n        require(\n            issuedNonInflationSupply + amount <= nonInflationDistribution,\n            \"Maximum non-inflation amount exceeded.\"\n        );\n        issuedNonInflationSupply += amount;\n        token.mint(beneficiary, amount);\n        emit TokensMinted(beneficiary, amount);\n        return true;\n    }\n\n    /**\n     * @notice Supplies the inflation rate for LPs per unit of time (seconds).\n     * @return LP inflation rate.\n     */\n    function getLpInflationRate() external view returns (uint256) {\n        if (lastEvent == 0) return 0;\n        return currentInflationAmountLp;\n    }\n\n    /**\n     * @notice Supplies the inflation rate for keepers per unit of time (seconds).\n     * @return keeper inflation rate.\n     */\n    function getKeeperInflationRate() external view returns (uint256) {\n        if (lastEvent == 0) return 0;\n        return currentInflationAmountKeeper;\n    }\n\n    /**\n     * @notice Supplies the inflation rate for LPs on AMMs per unit of time (seconds).\n     * @return AMM inflation rate.\n     */\n    function getAmmInflationRate() external view returns (uint256) {\n        if (lastEvent == 0) return 0;\n        return currentInflationAmountAmm;\n    }\n\n    function _executeInflationRateUpdate() internal returns (bool) {\n        totalAvailableToNow += (currentTotalInflation * (block.timestamp - lastEvent));\n        lastEvent = block.timestamp;\n        if (block.timestamp >= lastInflationDecay + _INFLATION_DECAY_PERIOD) {\n            currentInflationAmountLp = currentInflationAmountLp.scaledMul(annualInflationDecayLp);\n            if (initialPeriodEnded) {\n                currentInflationAmountKeeper = currentInflationAmountKeeper.scaledMul(\n                    annualInflationDecayKeeper\n                );\n                currentInflationAmountAmm = currentInflationAmountAmm.scaledMul(\n                    annualInflationDecayAmm\n                );\n            } else {\n                currentInflationAmountKeeper =\n                    initialAnnualInflationRateKeeper /\n                    _INFLATION_DECAY_PERIOD;\n\n                currentInflationAmountAmm = initialAnnualInflationRateAmm / _INFLATION_DECAY_PERIOD;\n                initialPeriodEnded = true;\n            }\n            currentTotalInflation =\n                currentInflationAmountLp +\n                currentInflationAmountKeeper +\n                currentInflationAmountAmm;\n            controller.inflationManager().checkpointAllGauges();\n            lastInflationDecay = block.timestamp;\n        }\n        return true;\n    }\n\n    function _mint(address beneficiary, uint256 amount) internal returns (bool) {\n        totalAvailableToNow += ((block.timestamp - lastEvent) * currentTotalInflation);\n        uint256 newTotalMintedToNow = totalMintedToNow + amount;\n        require(newTotalMintedToNow <= totalAvailableToNow, \"Mintable amount exceeded\");\n        totalMintedToNow = newTotalMintedToNow;\n        lastEvent = block.timestamp;\n        token.mint(beneficiary, amount);\n        _executeInflationRateUpdate();\n        emit TokensMinted(beneficiary, amount);\n        return true;\n    }\n}\n","sourcePath":"contracts/tokenomics/Minter.sol","type":"contract","deployment":{"address":"0x4BeA6e0dE483B2A2a957c2b513e1294070069BBa","chainid":"42","blockHeight":30414937}}