{"abi":[{"inputs":[{"internalType":"contract IAddressProvider","name":"_addressProvider","type":"address"}],"stateMutability":"nonpayable","type":"constructor","name":"constructor"},{"anonymous":false,"inputs":[{"indexed":true,"internalType":"address","name":"token","type":"address"},{"indexed":true,"internalType":"address","name":"ammGauge","type":"address"}],"name":"AmmGaugeDelisted","type":"event"},{"anonymous":false,"inputs":[{"indexed":true,"internalType":"address","name":"token","type":"address"},{"indexed":true,"internalType":"address","name":"ammGauge","type":"address"}],"name":"AmmGaugeListed","type":"event"},{"anonymous":false,"inputs":[{"indexed":true,"internalType":"bytes32","name":"key","type":"bytes32"},{"indexed":false,"internalType":"address","name":"value","type":"address"},{"indexed":false,"internalType":"uint256","name":"delay","type":"uint256"}],"name":"ConfigPreparedAddress","type":"event"},{"anonymous":false,"inputs":[{"indexed":true,"internalType":"bytes32","name":"key","type":"bytes32"},{"indexed":false,"internalType":"uint256","name":"value","type":"uint256"},{"indexed":false,"internalType":"uint256","name":"delay","type":"uint256"}],"name":"ConfigPreparedNumber","type":"event"},{"anonymous":false,"inputs":[{"indexed":true,"internalType":"bytes32","name":"key","type":"bytes32"}],"name":"ConfigReset","type":"event"},{"anonymous":false,"inputs":[{"indexed":true,"internalType":"bytes32","name":"key","type":"bytes32"},{"indexed":false,"internalType":"address","name":"oldValue","type":"address"},{"indexed":false,"internalType":"address","name":"newValue","type":"address"}],"name":"ConfigUpdatedAddress","type":"event"},{"anonymous":false,"inputs":[{"indexed":true,"internalType":"bytes32","name":"key","type":"bytes32"},{"indexed":false,"internalType":"uint256","name":"oldValue","type":"uint256"},{"indexed":false,"internalType":"uint256","name":"newValue","type":"uint256"}],"name":"ConfigUpdatedNumber","type":"event"},{"anonymous":false,"inputs":[{"indexed":true,"internalType":"address","name":"pool","type":"address"},{"indexed":true,"internalType":"address","name":"keeperGauge","type":"address"}],"name":"KeeperGaugeDelisted","type":"event"},{"anonymous":false,"inputs":[{"indexed":true,"internalType":"address","name":"pool","type":"address"},{"indexed":true,"internalType":"address","name":"keeperGauge","type":"address"}],"name":"KeeperGaugeListed","type":"event"},{"anonymous":false,"inputs":[{"indexed":true,"internalType":"address","name":"token","type":"address"},{"indexed":false,"internalType":"uint256","name":"newWeight","type":"uint256"}],"name":"NewAmmTokenWeight","type":"event"},{"anonymous":false,"inputs":[{"indexed":true,"internalType":"address","name":"pool","type":"address"},{"indexed":false,"internalType":"uint256","name":"newWeight","type":"uint256"}],"name":"NewKeeperWeight","type":"event"},{"anonymous":false,"inputs":[{"indexed":true,"internalType":"address","name":"pool","type":"address"},{"indexed":false,"internalType":"uint256","name":"newWeight","type":"uint256"}],"name":"NewLpWeight","type":"event"},{"inputs":[{"internalType":"address","name":"lpToken","type":"address"}],"name":"addGaugeForVault","outputs":[{"internalType":"bool","name":"","type":"bool"}],"stateMutability":"nonpayable","type":"function"},{"inputs":[{"internalType":"address","name":"depositStakerVault","type":"address"},{"internalType":"address","name":"strategyPool","type":"address"}],"name":"addStrategyToDepositStakerVault","outputs":[{"internalType":"bool","name":"","type":"bool"}],"stateMutability":"nonpayable","type":"function"},{"inputs":[],"name":"addressProvider","outputs":[{"internalType":"contract IAddressProvider","name":"","type":"address"}],"stateMutability":"view","type":"function"},{"inputs":[{"internalType":"address","name":"pool","type":"address"}],"name":"advanceKeeperGaugeEpoch","outputs":[{"internalType":"bool","name":"","type":"bool"}],"stateMutability":"nonpayable","type":"function"},{"inputs":[{"internalType":"address[]","name":"tokens","type":"address[]"}],"name":"batchExecuteAmmTokenWeights","outputs":[{"internalType":"bool","name":"","type":"bool"}],"stateMutability":"nonpayable","type":"function"},{"inputs":[{"internalType":"address[]","name":"pools","type":"address[]"}],"name":"batchExecuteKeeperPoolWeights","outputs":[{"internalType":"bool","name":"","type":"bool"}],"stateMutability":"nonpayable","type":"function"},{"inputs":[{"internalType":"address[]","name":"lpTokens","type":"address[]"}],"name":"batchExecuteLpPoolWeights","outputs":[{"internalType":"bool","name":"","type":"bool"}],"stateMutability":"nonpayable","type":"function"},{"inputs":[{"internalType":"address[]","name":"tokens","type":"address[]"},{"internalType":"uint256[]","name":"weights","type":"uint256[]"}],"name":"batchPrepareAmmTokenWeights","outputs":[{"internalType":"bool","name":"","type":"bool"}],"stateMutability":"nonpayable","type":"function"},{"inputs":[{"internalType":"address[]","name":"pools","type":"address[]"},{"internalType":"uint256[]","name":"weights","type":"uint256[]"}],"name":"batchPrepareKeeperPoolWeights","outputs":[{"internalType":"bool","name":"","type":"bool"}],"stateMutability":"nonpayable","type":"function"},{"inputs":[{"internalType":"address[]","name":"lpTokens","type":"address[]"},{"internalType":"uint256[]","name":"weights","type":"uint256[]"}],"name":"batchPrepareLpPoolWeights","outputs":[{"internalType":"bool","name":"","type":"bool"}],"stateMutability":"nonpayable","type":"function"},{"inputs":[],"name":"checkpointAllGauges","outputs":[{"internalType":"bool","name":"","type":"bool"}],"stateMutability":"nonpayable","type":"function"},{"inputs":[{"internalType":"bytes32","name":"","type":"bytes32"}],"name":"currentAddresses","outputs":[{"internalType":"address","name":"","type":"address"}],"stateMutability":"view","type":"function"},{"inputs":[{"internalType":"bytes32","name":"","type":"bytes32"}],"name":"currentUInts256","outputs":[{"internalType":"uint256","name":"","type":"uint256"}],"stateMutability":"view","type":"function"},{"inputs":[],"name":"deactivateWeightBasedKeeperDistribution","outputs":[{"internalType":"bool","name":"","type":"bool"}],"stateMutability":"nonpayable","type":"function"},{"inputs":[{"internalType":"bytes32","name":"","type":"bytes32"}],"name":"deadlines","outputs":[{"internalType":"uint256","name":"","type":"uint256"}],"stateMutability":"view","type":"function"},{"inputs":[{"internalType":"address","name":"token","type":"address"}],"name":"executeAmmTokenWeight","outputs":[{"internalType":"uint256","name":"","type":"uint256"}],"stateMutability":"nonpayable","type":"function"},{"inputs":[{"internalType":"address","name":"pool","type":"address"}],"name":"executeKeeperPoolWeight","outputs":[{"internalType":"uint256","name":"","type":"uint256"}],"stateMutability":"nonpayable","type":"function"},{"inputs":[{"internalType":"address","name":"lpToken","type":"address"}],"name":"executeLpPoolWeight","outputs":[{"internalType":"uint256","name":"","type":"uint256"}],"stateMutability":"nonpayable","type":"function"},{"inputs":[{"internalType":"address","name":"","type":"address"}],"name":"gauges","outputs":[{"internalType":"bool","name":"","type":"bool"}],"stateMutability":"view","type":"function"},{"inputs":[],"name":"getAllAmmGauges","outputs":[{"internalType":"address[]","name":"","type":"address[]"}],"stateMutability":"view","type":"function"},{"inputs":[{"internalType":"address","name":"token","type":"address"}],"name":"getAmmGaugeForToken","outputs":[{"internalType":"address","name":"","type":"address"}],"stateMutability":"view","type":"function"},{"inputs":[{"internalType":"address","name":"token","type":"address"}],"name":"getAmmRateForToken","outputs":[{"internalType":"uint256","name":"","type":"uint256"}],"stateMutability":"view","type":"function"},{"inputs":[{"internalType":"address","name":"token","type":"address"}],"name":"getAmmWeightForToken","outputs":[{"internalType":"uint256","name":"","type":"uint256"}],"stateMutability":"view","type":"function"},{"inputs":[{"internalType":"address","name":"pool","type":"address"}],"name":"getKeeperGaugeForPool","outputs":[{"internalType":"address","name":"","type":"address"}],"stateMutability":"view","type":"function"},{"inputs":[{"internalType":"address","name":"pool","type":"address"}],"name":"getKeeperRateForPool","outputs":[{"internalType":"uint256","name":"","type":"uint256"}],"stateMutability":"view","type":"function"},{"inputs":[{"internalType":"address","name":"pool","type":"address"}],"name":"getKeeperWeightForPool","outputs":[{"internalType":"uint256","name":"","type":"uint256"}],"stateMutability":"view","type":"function"},{"inputs":[{"internalType":"address","name":"lpToken","type":"address"}],"name":"getLpPoolWeight","outputs":[{"internalType":"uint256","name":"","type":"uint256"}],"stateMutability":"view","type":"function"},{"inputs":[{"internalType":"address","name":"stakerVault","type":"address"}],"name":"getLpRateForStakerVault","outputs":[{"internalType":"uint256","name":"","type":"uint256"}],"stateMutability":"view","type":"function"},{"inputs":[{"internalType":"address","name":"account","type":"address"}],"name":"isInflationWeightManager","outputs":[{"internalType":"bool","name":"","type":"bool"}],"stateMutability":"view","type":"function"},{"inputs":[{"internalType":"address","name":"beneficiary","type":"address"},{"internalType":"uint256","name":"amount","type":"uint256"}],"name":"mintRewards","outputs":[],"stateMutability":"nonpayable","type":"function"},{"inputs":[],"name":"minter","outputs":[{"internalType":"address","name":"","type":"address"}],"stateMutability":"view","type":"function"},{"inputs":[{"internalType":"bytes32","name":"","type":"bytes32"}],"name":"pendingAddresses","outputs":[{"internalType":"address","name":"","type":"address"}],"stateMutability":"view","type":"function"},{"inputs":[{"internalType":"bytes32","name":"","type":"bytes32"}],"name":"pendingUInts256","outputs":[{"internalType":"uint256","name":"","type":"uint256"}],"stateMutability":"view","type":"function"},{"inputs":[{"internalType":"address","name":"token","type":"address"},{"internalType":"uint256","name":"newTokenWeight","type":"uint256"}],"name":"prepareAmmTokenWeight","outputs":[{"internalType":"bool","name":"","type":"bool"}],"stateMutability":"nonpayable","type":"function"},{"inputs":[{"internalType":"address","name":"pool","type":"address"},{"internalType":"uint256","name":"newPoolWeight","type":"uint256"}],"name":"prepareKeeperPoolWeight","outputs":[{"internalType":"bool","name":"","type":"bool"}],"stateMutability":"nonpayable","type":"function"},{"inputs":[{"internalType":"address","name":"lpToken","type":"address"},{"internalType":"uint256","name":"newPoolWeight","type":"uint256"}],"name":"prepareLpPoolWeight","outputs":[{"internalType":"bool","name":"","type":"bool"}],"stateMutability":"nonpayable","type":"function"},{"inputs":[{"internalType":"address","name":"token","type":"address"}],"name":"removeAmmGauge","outputs":[{"internalType":"bool","name":"","type":"bool"}],"stateMutability":"nonpayable","type":"function"},{"inputs":[{"internalType":"address","name":"pool","type":"address"}],"name":"removeKeeperGauge","outputs":[{"internalType":"bool","name":"","type":"bool"}],"stateMutability":"nonpayable","type":"function"},{"inputs":[{"internalType":"address","name":"stakerVault","type":"address"},{"internalType":"address","name":"lpToken","type":"address"}],"name":"removeStakerVaultFromInflation","outputs":[],"stateMutability":"nonpayable","type":"function"},{"inputs":[],"name":"roleManager","outputs":[{"internalType":"contract IRoleManager","name":"","type":"address"}],"stateMutability":"view","type":"function"},{"inputs":[{"internalType":"address","name":"token","type":"address"},{"internalType":"address","name":"_ammGauge","type":"address"}],"name":"setAmmGauge","outputs":[{"internalType":"bool","name":"","type":"bool"}],"stateMutability":"nonpayable","type":"function"},{"inputs":[{"internalType":"address","name":"pool","type":"address"},{"internalType":"address","name":"_keeperGauge","type":"address"}],"name":"setKeeperGauge","outputs":[{"internalType":"bool","name":"","type":"bool"}],"stateMutability":"nonpayable","type":"function"},{"inputs":[{"internalType":"address","name":"_minter","type":"address"}],"name":"setMinter","outputs":[{"internalType":"bool","name":"","type":"bool"}],"stateMutability":"nonpayable","type":"function"},{"inputs":[],"name":"totalAmmTokenWeight","outputs":[{"internalType":"uint256","name":"","type":"uint256"}],"stateMutability":"view","type":"function"},{"inputs":[],"name":"totalKeeperPoolWeight","outputs":[{"internalType":"uint256","name":"","type":"uint256"}],"stateMutability":"view","type":"function"},{"inputs":[],"name":"totalLpPoolWeight","outputs":[{"internalType":"uint256","name":"","type":"uint256"}],"stateMutability":"view","type":"function"},{"inputs":[],"name":"weightBasedKeeperDistributionDeactivated","outputs":[{"internalType":"bool","name":"","type":"bool"}],"stateMutability":"view","type":"function"},{"inputs":[{"internalType":"address","name":"gauge","type":"address"}],"name":"whitelistGauge","outputs":[],"stateMutability":"nonpayable","type":"function"}],"bytecode":"60c06040523480156200001157600080fd5b5060405162004cd538038062004cd5833981016040819052620000349162000116565b62000053816001600160a01b03166200006b60201b6200382b1760201c565b6001600160a01b039081166080521660a0526200013d565b6040516321f8a72160e01b81526a3937b632a6b0b730b3b2b960a91b60048201526000906001600160a01b038316906321f8a7219060240160206040518083038186803b158015620000bc57600080fd5b505afa158015620000d1573d6000803e3d6000fd5b505050506040513d601f19601f82011682018060405250810190620000f7919062000116565b92915050565b6001600160a01b03811681146200011357600080fd5b50565b6000602082840312156200012957600080fd5b81516200013681620000fd565b9392505050565b60805160a051614b33620001a260003960008181610391015281816107fb01528181610c9501528181611060015281816113a8015281816118f901528181611da6015281816126bb01528181612dce0152613bb4015260006138b50152614b336000f3fe608060405234801561001057600080fd5b506004361061029f5760003560e01c80638461372f11610167578063b9a09fd5116100ce578063e003285811610087578063e00328581461060e578063e195a21514610621578063e3976edf14610634578063f76c33991461065d578063fca3b5aa14610686578063fd600b841461069957600080fd5b8063b9a09fd514610596578063bea00b72146105b9578063c51dfc8f146105cc578063c9fb321a146105df578063df9ccfff146105e8578063df9f8fb7146105fb57600080fd5b80639bbdd1ac116101205780639bbdd1ac146105205780639c6856fc14610533578063a871d4ee14610546578063aff1b7e41461055b578063b2d918c11461057b578063b662fc551461058e57600080fd5b80638461372f146104b857806385cabd98146104cb5780638a75b2cd146104de5780638d651082146104e75780638d6dca55146104fa5780638e01c1961461050d57600080fd5b80633d65d2df1161020b5780635394ee05116101c45780635394ee051461044557806354a8f333146104595780636a20de921461046c5780636ad2d1311461047f57806372ec31a8146104925780637ddbc911146104a557600080fd5b80633d65d2df146103d35780633da3c28f146103e657806342035057146103f9578063430e2e571461040c5780634875e0521461041f5780634bb382451461043257600080fd5b80631dc388ea1161025d5780631dc388ea1461034a578063204b0b8d1461035d57806326ea87b0146103705780632897a553146103795780632954018c1461038c578063346a4a51146103b357600080fd5b8062435da5146102a457806307546172146102c95780630edb01e4146102dc57806315dbfe62146102f4578063187e66e3146103225780631caea2c914610335575b600080fd5b6102ac6106ac565b6040516001600160a01b0390911681526020015b60405180910390f35b6005546102ac906001600160a01b031681565b6102e46106bb565b60405190151581526020016102c0565b6103146103023660046145e6565b60016020526000908152604090205481565b6040519081526020016102c0565b6102e4610330366004614617565b6108ef565b610348610343366004614643565b610a4f565b005b610314610358366004614643565b610b4d565b6102e461036b366004614617565b610b84565b61031460075481565b610314610387366004614643565b610e20565b6102ac7f000000000000000000000000000000000000000000000000000000000000000081565b6103146103c13660046145e6565b60046020526000908152604090205481565b6102e46103e13660046146a5565b610f11565b6103146103f4366004614643565b61127e565b610314610407366004614643565b61135c565b6102e461041a366004614643565b61137e565b6102e461042d366004614711565b61155c565b6102e461044036600461474a565b6117b0565b6005546102e490600160a01b900460ff1681565b6102e46104673660046146a5565b611a86565b61034861047a366004614617565b611ca0565b61031461048d366004614643565b611d82565b6103146104a0366004614643565b611f2e565b6102ac6104b3366004614643565b611f3a565b6102e46104c6366004614711565b611f50565b6102e46104d9366004614643565b612294565b61031460085481565b6102e46104f53660046146a5565b612333565b6102e4610508366004614643565b612536565b61031461051b366004614643565b612697565b6102e461052e366004614711565b612759565b610314610541366004614643565b612ae1565b61054e612bd0565b6040516102c0919061478c565b6103146105693660046145e6565b60036020526000908152604090205481565b6102e4610589366004614617565b612bdc565b6102e4612d1f565b6102e46105a4366004614643565b600f6020526000908152604090205460ff1681565b6103146105c7366004614643565b612fc0565b6103486105da366004614711565b612fe1565b61031460065481565b6102ac6105f6366004614643565b6130e7565b6102e4610609366004614643565b6130f5565b6102e461061c36600461474a565b6131df565b6102e461062f36600461474a565b613339565b6102ac6106423660046145e6565b6000602081905290815260409020546001600160a01b031681565b6102ac61066b3660046145e6565b6002602052600090815260409020546001600160a01b031681565b6102e4610694366004614643565b613496565b6102e46106a7366004614643565b61363c565b60006106b66138b3565b905090565b60006106c56138b3565b604051632474521560e21b815269676f7665726e616e636560b01b60048201523360248201526001600160a01b0391909116906391d148549060440160206040518083038186803b15801561071957600080fd5b505afa15801561072d573d6000803e3d6000fd5b505050506040513d601f19601f8201168201806040525081019061075191906147d9565b604051806040016040528060138152602001600080516020614a798339815191528152509061079c5760405162461bcd60e51b815260040161079391906147fb565b60405180910390fd5b50600554600160a01b900460ff16156107f75760405162461bcd60e51b815260206004820152601f60248201527f5765696768742d626173656420646973742e2064656163746976617465642e006044820152606401610793565b60007f00000000000000000000000000000000000000000000000000000000000000006001600160a01b031663c5c63e656040518163ffffffff1660e01b815260040160006040518083038186803b15801561085257600080fd5b505afa158015610866573d6000803e3d6000fd5b505050506040513d6000823e601f3d908101601f1916820160405261088e9190810190614871565b805190915060005b818110156108d2576108c08382815181106108b3576108b3614936565b60200260200101516138d7565b806108ca81614962565b915050610896565b50506005805460ff60a01b1916600160a01b179055506001905090565b600069676f7665726e616e636560b01b7034b7333630ba34b7b72fb6b0b730b3b2b960791b61091c6138b3565b6001600160a01b031663d756a4228383336040518463ffffffff1660e01b815260040161094b9392919061497d565b60206040518083038186803b15801561096357600080fd5b505afa158015610977573d6000803e3d6000fd5b505050506040513d601f19601f8201168201806040525081019061099b91906147d9565b604051806040016040528060138152602001600080516020614a79833981519152815250906109dd5760405162461bcd60e51b815260040161079391906147fb565b506109e9600c866139d1565b610a2b5760405162461bcd60e51b8152602060048201526013602482015272185b5b4819d85d59d9481b9bdd08199bdd5b99606a1b6044820152606401610793565b6000610a36866139ed565b9050610a428186613a2b565b5060019695505050505050565b6931b7b73a3937b63632b960b11b610a656138b3565b604051632474521560e21b8152600481018390523360248201526001600160a01b0391909116906391d148549060440160206040518083038186803b158015610aad57600080fd5b505afa158015610ac1573d6000803e3d6000fd5b505050506040513d601f19601f82011682018060405250810190610ae591906147d9565b604051806040016040528060138152602001600080516020614a7983398151915281525090610b275760405162461bcd60e51b815260040161079391906147fb565b50506001600160a01b03166000908152600f60205260409020805460ff19166001179055565b600080610b59836139ed565b9050610b6e8382610b6933612294565b613a3b565b5060009081526003602052604090205492915050565b600069676f7665726e616e636560b01b7034b7333630ba34b7b72fb6b0b730b3b2b960791b610bb16138b3565b6001600160a01b031663d756a4228383336040518463ffffffff1660e01b8152600401610be09392919061497d565b60206040518083038186803b158015610bf857600080fd5b505afa158015610c0c573d6000803e3d6000fd5b505050506040513d601f19601f82011682018060405250810190610c3091906147d9565b604051806040016040528060138152602001600080516020614a7983398151915281525090610c725760405162461bcd60e51b815260040161079391906147fb565b5060405163059eadeb60e41b81526001600160a01b0386811660048301526000917f0000000000000000000000000000000000000000000000000000000000000000909116906359eadeb09060240160206040518083038186803b158015610cd957600080fd5b505afa158015610ced573d6000803e3d6000fd5b505050506040513d601f19601f82011682018060405250810190610d11919061499c565b9050600f6000826001600160a01b0316632c8161246040518163ffffffff1660e01b815260040160206040518083038186803b158015610d5057600080fd5b505afa158015610d64573d6000803e3d6000fd5b505050506040513d601f19601f82011682018060405250810190610d88919061499c565b6001600160a01b031681526020808201929092526040908101600020548151808301909252601482527311d85d59d948191bd95cc81b9bdd08195e1a5cdd60621b928201929092529060ff16610df15760405162461bcd60e51b815260040161079391906147fb565b50610dfb86613b92565b6000610e0682613c87565b9050610e128187613a2b565b506001979650505050505050565b6005546000906001600160a01b03161580610e3b5750600754155b15610e4857506000919050565b6000610e5383613c87565b90506000600560009054906101000a90046001600160a01b03166001600160a01b03166388258d316040518163ffffffff1660e01b815260040160206040518083038186803b158015610ea557600080fd5b505afa158015610eb9573d6000803e3d6000fd5b505050506040513d601f19601f82011682018060405250810190610edd91906149b9565b60075460008481526003602052604081205492935091610efe9084906149d2565b610f0891906149f1565b95945050505050565b600069676f7665726e616e636560b01b7034b7333630ba34b7b72fb6b0b730b3b2b960791b610f3e6138b3565b6001600160a01b031663d756a4228383336040518463ffffffff1660e01b8152600401610f6d9392919061497d565b60206040518083038186803b158015610f8557600080fd5b505afa158015610f99573d6000803e3d6000fd5b505050506040513d601f19601f82011682018060405250810190610fbd91906147d9565b604051806040016040528060138152602001600080516020614a7983398151915281525090610fff5760405162461bcd60e51b815260040161079391906147fb565b50858481146110505760405162461bcd60e51b815260206004820152601b60248201527f496e76616c6964206c656e677468206f6620617267756d656e747300000000006044820152606401610793565b6000805b8281101561126e5760007f00000000000000000000000000000000000000000000000000000000000000006001600160a01b03166359eadeb08c8c8581811061109f5761109f614936565b90506020020160208101906110b49190614643565b6040516001600160e01b031960e084901b1681526001600160a01b03909116600482015260240160206040518083038186803b1580156110f357600080fd5b505afa158015611107573d6000803e3d6000fd5b505050506040513d601f19601f8201168201806040525081019061112b919061499c565b905060006001600160a01b0316816001600160a01b0316632c8161246040518163ffffffff1660e01b815260040160206040518083038186803b15801561117157600080fd5b505afa158015611185573d6000803e3d6000fd5b505050506040513d601f19601f820116820180604052508101906111a9919061499c565b6001600160a01b03161415604051806040016040528060118152602001701859191c995cdcc81b9bdd08199bdd5b99607a1b815250906111fc5760405162461bcd60e51b815260040161079391906147fb565b5061122c8b8b8481811061121257611212614936565b90506020020160208101906112279190614643565b613b92565b61123581613c87565b9250611259838a8a8581811061124d5761124d614936565b90506020020135613a2b565b5050808061126690614962565b915050611054565b5060019998505050505050505050565b6005546000906001600160a01b031615806112995750600854155b156112a657506000919050565b60006112b1836139ed565b90506000600560009054906101000a90046001600160a01b03166001600160a01b031663877f16926040518163ffffffff1660e01b815260040160206040518083038186803b15801561130357600080fd5b505afa158015611317573d6000803e3d6000fd5b505050506040513d601f19601f8201168201806040525081019061133b91906149b9565b60085460008481526003602052604081205492935091610efe9084906149d2565b600080611368836139ed565b6000908152600360205260409020549392505050565b604051635b80b5fb60e11b815233600482018190526001600160a01b0383811660248401526000927f00000000000000000000000000000000000000000000000000000000000000009091169063b7016bf69060440160206040518083038186803b1580156113ec57600080fd5b505afa158015611400573d6000803e3d6000fd5b505050506040513d601f19601f8201168201806040525081019061142491906147d9565b604051806040016040528060138152602001600080516020614a79833981519152815250906114665760405162461bcd60e51b815260040161079391906147fb565b506000816001600160a01b0316632c8161246040518163ffffffff1660e01b815260040160206040518083038186803b1580156114a257600080fd5b505afa1580156114b6573d6000803e3d6000fd5b505050506040513d601f19601f820116820180604052508101906114da919061499c565b60408051808201909152601481527311d85d59d948191bd95cc81b9bdd08195e1a5cdd60621b60208201529091506001600160a01b03821661152f5760405162461bcd60e51b815260040161079391906147fb565b506001600160a01b03166000908152600f60205260409020805460ff191660019081179091559392505050565b60006115666138b3565b604051632474521560e21b815269676f7665726e616e636560b01b60048201523360248201526001600160a01b0391909116906391d148549060440160206040518083038186803b1580156115ba57600080fd5b505afa1580156115ce573d6000803e3d6000fd5b505050506040513d601f19601f820116820180604052508101906115f291906147d9565b604051806040016040528060138152602001600080516020614a79833981519152815250906116345760405162461bcd60e51b815260040161079391906147fb565b506000826001600160a01b0316638d928af86040518163ffffffff1660e01b815260040160206040518083038186803b15801561167057600080fd5b505afa158015611684573d6000803e3d6000fd5b505050506040513d601f19601f820116820180604052508101906116a8919061499c565b9050836001600160a01b031663223e5479826001600160a01b03166307da06036040518163ffffffff1660e01b815260040160206040518083038186803b1580156116f257600080fd5b505afa158015611706573d6000803e3d6000fd5b505050506040513d601f19601f8201168201806040525081019061172a919061499c565b6040516001600160e01b031960e084901b1681526001600160a01b039091166004820152602401602060405180830381600087803b15801561176b57600080fd5b505af115801561177f573d6000803e3d6000fd5b505050506040513d601f19601f820116820180604052508101906117a391906147d9565b5060019150505b92915050565b600069676f7665726e616e636560b01b7034b7333630ba34b7b72fb6b0b730b3b2b960791b6117dd6138b3565b6001600160a01b031663d756a4228383336040518463ffffffff1660e01b815260040161180c9392919061497d565b60206040518083038186803b15801561182457600080fd5b505afa158015611838573d6000803e3d6000fd5b505050506040513d601f19601f8201168201806040525081019061185c91906147d9565b604051806040016040528060138152602001600080516020614a798339815191528152509061189e5760405162461bcd60e51b815260040161079391906147fb565b508360005b81811015610a425760008787838181106118bf576118bf614936565b90506020020160208101906118d49190614643565b60405163059eadeb60e41b81526001600160a01b0380831660048301529192506000917f000000000000000000000000000000000000000000000000000000000000000016906359eadeb09060240160206040518083038186803b15801561193b57600080fd5b505afa15801561194f573d6000803e3d6000fd5b505050506040513d601f19601f82011682018060405250810190611973919061499c565b905060006001600160a01b0316816001600160a01b0316632c8161246040518163ffffffff1660e01b815260040160206040518083038186803b1580156119b957600080fd5b505afa1580156119cd573d6000803e3d6000fd5b505050506040513d601f19601f820116820180604052508101906119f1919061499c565b6001600160a01b03161415604051806040016040528060118152602001701859191c995cdcc81b9bdd08199bdd5b99607a1b81525090611a445760405162461bcd60e51b815260040161079391906147fb565b50611a4e82613b92565b6000611a5982613c87565b9050611a6f818484611a6a33612294565b613ca7565b505050508080611a7e90614962565b9150506118a3565b600069676f7665726e616e636560b01b7034b7333630ba34b7b72fb6b0b730b3b2b960791b611ab36138b3565b6001600160a01b031663d756a4228383336040518463ffffffff1660e01b8152600401611ae29392919061497d565b60206040518083038186803b158015611afa57600080fd5b505afa158015611b0e573d6000803e3d6000fd5b505050506040513d601f19601f82011682018060405250810190611b3291906147d9565b604051806040016040528060138152602001600080516020614a7983398151915281525090611b745760405162461bcd60e51b815260040161079391906147fb565b50856000858214611bc75760405162461bcd60e51b815260206004820152601b60248201527f496e76616c6964206c656e677468206f6620617267756d656e747300000000006044820152606401610793565b60005b8281101561126e57611c048a8a83818110611be757611be7614936565b9050602002016020810190611bfc9190614643565b600c906139d1565b611c465760405162461bcd60e51b8152602060048201526013602482015272185b5b4819d85d59d9481b9bdd08199bdd5b99606a1b6044820152606401610793565b611c758a8a83818110611c5b57611c5b614936565b9050602002016020810190611c709190614643565b6139ed565b9150611c8d8289898481811061124d5761124d614936565b5080611c9881614962565b915050611bca565b336000908152600f602090815260409182902054825180840190935260138352600080516020614a798339815191529183019190915260ff16611cf65760405162461bcd60e51b815260040161079391906147fb565b506005546040516340c10f1960e01b81526001600160a01b03848116600483015260248201849052909116906340c10f1990604401602060405180830381600087803b158015611d4557600080fd5b505af1158015611d59573d6000803e3d6000fd5b505050506040513d601f19601f82011682018060405250810190611d7d91906147d9565b505050565b60405163059eadeb60e41b81526001600160a01b03828116600483015260009182917f000000000000000000000000000000000000000000000000000000000000000016906359eadeb09060240160206040518083038186803b158015611de857600080fd5b505afa158015611dfc573d6000803e3d6000fd5b505050506040513d601f19601f82011682018060405250810190611e20919061499c565b905060006001600160a01b0316816001600160a01b0316632c8161246040518163ffffffff1660e01b815260040160206040518083038186803b158015611e6657600080fd5b505afa158015611e7a573d6000803e3d6000fd5b505050506040513d601f19601f82011682018060405250810190611e9e919061499c565b6001600160a01b03161415604051806040016040528060118152602001701859191c995cdcc81b9bdd08199bdd5b99607a1b81525090611ef15760405162461bcd60e51b815260040161079391906147fb565b50611efb83613b92565b6000611f0682613c87565b9050611f17818584611a6a33612294565b506000908152600360205260409020549392505050565b60008061136883613df5565b600080611f48600c84613e19565b949350505050565b6000611f5a6138b3565b604051632474521560e21b815269676f7665726e616e636560b01b60048201523360248201526001600160a01b0391909116906391d148549060440160206040518083038186803b158015611fae57600080fd5b505afa158015611fc2573d6000803e3d6000fd5b505050506040513d601f19601f82011682018060405250810190611fe691906147d9565b604051806040016040528060138152602001600080516020614a79833981519152815250906120285760405162461bcd60e51b815260040161079391906147fb565b5060405163fa3f8f1b60e01b81526001600160a01b03848116600483015283169063fa3f8f1b9060240160206040518083038186803b15801561206a57600080fd5b505afa15801561207e573d6000803e3d6000fd5b505050506040513d601f19601f820116820180604052508101906120a291906147d9565b6040518060400160405280601781526020017f61646472657373206e6f742077686974656c6973746564000000000000000000815250906120f65760405162461bcd60e51b815260040161079391906147fb565b506000612103600c613e40565b905060005b81811015612151576001600160a01b038416612125600c83613e4b565b6001600160a01b0316141561213f576000925050506117aa565b8061214981614962565b915050612108565b5061215d600c856139d1565b1561225b57600061216f600c86613e58565b9050806001600160a01b0316635790a0c86040518163ffffffff1660e01b8152600401602060405180830381600087803b1580156121ac57600080fd5b505af11580156121c0573d6000803e3d6000fd5b505050506040513d601f19601f820116820180604052508101906121e491906147d9565b50806001600160a01b03166341c0e1b56040518163ffffffff1660e01b8152600401602060405180830381600087803b15801561222057600080fd5b505af1158015612234573d6000803e3d6000fd5b505050506040513d601f19601f8201168201806040525081019061225891906147d9565b50505b612267600c8585613e6d565b5050506001600160a01b03166000908152600f60205260409020805460ff19166001908117909155919050565b600061229e6138b3565b604051632474521560e21b81527034b7333630ba34b7b72fb6b0b730b3b2b960791b60048201526001600160a01b03848116602483015291909116906391d148549060440160206040518083038186803b1580156122fb57600080fd5b505afa15801561230f573d6000803e3d6000fd5b505050506040513d601f19601f820116820180604052508101906117aa91906147d9565b600061233d6138b3565b604051632474521560e21b815269676f7665726e616e636560b01b60048201523360248201526001600160a01b0391909116906391d148549060440160206040518083038186803b15801561239157600080fd5b505afa1580156123a5573d6000803e3d6000fd5b505050506040513d601f19601f820116820180604052508101906123c991906147d9565b604051806040016040528060138152602001600080516020614a798339815191528152509061240b5760405162461bcd60e51b815260040161079391906147fb565b5060408051808201909152601081526f1a5b9d985b1a5908185c99dd5b595b9d60821b602082015284908382146124555760405162461bcd60e51b815260040161079391906147fb565b506000805b82811015610e125761249488888381811061247757612477614936565b905060200201602081019061248c9190614643565b6009906139d1565b6040518060400160405280601081526020016f1a5b9d985b1a5908185c99dd5b595b9d60821b815250906124db5760405162461bcd60e51b815260040161079391906147fb565b5061250b8888838181106124f1576124f1614936565b90506020020160208101906125069190614643565b613df5565b91506125238287878481811061124d5761124d614936565b508061252e81614962565b91505061245a565b60006125406138b3565b604051632474521560e21b815269676f7665726e616e636560b01b60048201523360248201526001600160a01b0391909116906391d148549060440160206040518083038186803b15801561259457600080fd5b505afa1580156125a8573d6000803e3d6000fd5b505050506040513d601f19601f820116820180604052508101906125cc91906147d9565b604051806040016040528060138152602001600080516020614a798339815191528152509061260e5760405162461bcd60e51b815260040161079391906147fb565b5061261a600983613e58565b6001600160a01b0316633cf80e6c6040518163ffffffff1660e01b8152600401602060405180830381600087803b15801561265457600080fd5b505af1158015612668573d6000803e3d6000fd5b505050506040513d601f19601f8201168201806040525081019061268c91906147d9565b50600190505b919050565b60405163059eadeb60e41b81526001600160a01b03828116600483015260009182917f000000000000000000000000000000000000000000000000000000000000000016906359eadeb09060240160206040518083038186803b1580156126fd57600080fd5b505afa158015612711573d6000803e3d6000fd5b505050506040513d601f19601f82011682018060405250810190612735919061499c565b9050600061274282613c87565b600090815260036020526040902054949350505050565b60006127636138b3565b604051632474521560e21b815269676f7665726e616e636560b01b60048201523360248201526001600160a01b0391909116906391d148549060440160206040518083038186803b1580156127b757600080fd5b505afa1580156127cb573d6000803e3d6000fd5b505050506040513d601f19601f820116820180604052508101906127ef91906147d9565b604051806040016040528060138152602001600080516020614a79833981519152815250906128315760405162461bcd60e51b815260040161079391906147fb565b50600061283e6009613e40565b90506000805b8281101561288b576001600160a01b038516612861600983613e4b565b6001600160a01b03161415612879576001915061288b565b8061288381614962565b915050612844565b50801580156128a35750600554600160a01b900460ff165b80156128b0575060018210155b156128c0576000925050506117aa565b6000806128ce600988613e19565b915091508115806128f15750856001600160a01b0316816001600160a01b031614155b6040518060400160405280601081526020016f1a5b9d985b1a5908185c99dd5b595b9d60821b815250906129385760405162461bcd60e51b815260040161079391906147fb565b508180156129b45750806001600160a01b0316631f3a0e416040518163ffffffff1660e01b815260040160206040518083038186803b15801561297a57600080fd5b505afa15801561298e573d6000803e3d6000fd5b505050506040513d601f19601f820116820180604052508101906129b291906147d9565b155b15612aa257806001600160a01b0316635790a0c86040518163ffffffff1660e01b8152600401602060405180830381600087803b1580156129f457600080fd5b505af1158015612a08573d6000803e3d6000fd5b505050506040513d601f19601f82011682018060405250810190612a2c91906147d9565b50806001600160a01b03166341c0e1b56040518163ffffffff1660e01b8152600401602060405180830381600087803b158015612a6857600080fd5b505af1158015612a7c573d6000803e3d6000fd5b505050506040513d601f19601f82011682018060405250810190612aa091906147d9565b505b612aae60098888613e6d565b5050506001600160a01b0384166000908152600f60205260409020805460ff191660019081179091559250505092915050565b6005546000906001600160a01b0316612afc57506000919050565b6005546040805163017e7eab60e71b815290516000926001600160a01b03169163bf3f5580916004808301926020929190829003018186803b158015612b4157600080fd5b505afa158015612b55573d6000803e3d6000fd5b505050506040513d601f19601f82011682018060405250810190612b7991906149b9565b600554909150600160a01b900460ff1615612b945792915050565b600654612ba45750600092915050565b6000612baf84613df5565b60065460008281526003602052604081205492935091610efe9085906149d2565b60606106b6600c613e86565b6000612be66138b3565b604051632474521560e21b815269676f7665726e616e636560b01b60048201523360248201526001600160a01b0391909116906391d148549060440160206040518083038186803b158015612c3a57600080fd5b505afa158015612c4e573d6000803e3d6000fd5b505050506040513d601f19601f82011682018060405250810190612c7291906147d9565b604051806040016040528060138152602001600080516020614a7983398151915281525090612cb45760405162461bcd60e51b815260040161079391906147fb565b50612cc06009846139d1565b6040518060400160405280601081526020016f1a5b9d985b1a5908185c99dd5b595b9d60821b81525090612d075760405162461bcd60e51b815260040161079391906147fb565b506000612d1384613df5565b90506117a38184613a2b565b600080612d2c6009613e40565b905060005b81811015612dc957612d44600982613e4b565b6001600160a01b0316635790a0c86040518163ffffffff1660e01b8152600401602060405180830381600087803b158015612d7e57600080fd5b505af1158015612d92573d6000803e3d6000fd5b505050506040513d601f19601f82011682018060405250810190612db691906147d9565b5080612dc181614962565b915050612d31565b5060007f00000000000000000000000000000000000000000000000000000000000000006001600160a01b03166375a8012b6040518163ffffffff1660e01b815260040160006040518083038186803b158015612e2557600080fd5b505afa158015612e39573d6000803e3d6000fd5b505050506040513d6000823e601f3d908101601f19168201604052612e619190810190614871565b905060005b8151811015612f0e57818181518110612e8157612e81614936565b60200260200101516001600160a01b0316635790a0c86040518163ffffffff1660e01b8152600401602060405180830381600087803b158015612ec357600080fd5b505af1158015612ed7573d6000803e3d6000fd5b505050506040513d601f19601f82011682018060405250810190612efb91906147d9565b5080612f0681614962565b915050612e66565b50612f19600c613e40565b915060005b82811015612fb657612f31600c82613e4b565b6001600160a01b0316635790a0c86040518163ffffffff1660e01b8152600401602060405180830381600087803b158015612f6b57600080fd5b505af1158015612f7f573d6000803e3d6000fd5b505050506040513d601f19601f82011682018060405250810190612fa391906147d9565b5080612fae81614962565b915050612f1e565b5060019250505090565b600080612fcc83613df5565b9050610b6e8184612fdc33612294565b613f35565b6931b7b73a3937b63632b960b11b612ff76138b3565b604051632474521560e21b8152600481018390523360248201526001600160a01b0391909116906391d148549060440160206040518083038186803b15801561303f57600080fd5b505afa158015613053573d6000803e3d6000fd5b505050506040513d601f19601f8201168201806040525081019061307791906147d9565b604051806040016040528060138152602001600080516020614a79833981519152815250906130b95760405162461bcd60e51b815260040161079391906147fb565b5060006130c584613c87565b90506130d2816000613a2b565b506130e08184866001613ca7565b5050505050565b600080611f48600984613e19565b60006130ff6138b3565b604051632474521560e21b815269676f7665726e616e636560b01b60048201523360248201526001600160a01b0391909116906391d148549060440160206040518083038186803b15801561315357600080fd5b505afa158015613167573d6000803e3d6000fd5b505050506040513d601f19601f8201168201806040525081019061318b91906147d9565b604051806040016040528060138152602001600080516020614a79833981519152815250906131cd5760405162461bcd60e51b815260040161079391906147fb565b506131d7826138d7565b506001919050565b600069676f7665726e616e636560b01b7034b7333630ba34b7b72fb6b0b730b3b2b960791b61320c6138b3565b6001600160a01b031663d756a4228383336040518463ffffffff1660e01b815260040161323b9392919061497d565b60206040518083038186803b15801561325357600080fd5b505afa158015613267573d6000803e3d6000fd5b505050506040513d601f19601f8201168201806040525081019061328b91906147d9565b604051806040016040528060138152602001600080516020614a79833981519152815250906132cd5760405162461bcd60e51b815260040161079391906147fb565b50836000805b82811015610e12576132f08888838181106124f1576124f1614936565b91506133268289898481811061330857613308614936565b905060200201602081019061331d9190614643565b612fdc33612294565b508061333181614962565b9150506132d3565b600069676f7665726e616e636560b01b7034b7333630ba34b7b72fb6b0b730b3b2b960791b6133666138b3565b6001600160a01b031663d756a4228383336040518463ffffffff1660e01b81526004016133959392919061497d565b60206040518083038186803b1580156133ad57600080fd5b505afa1580156133c1573d6000803e3d6000fd5b505050506040513d601f19601f820116820180604052508101906133e591906147d9565b604051806040016040528060138152602001600080516020614a79833981519152815250906134275760405162461bcd60e51b815260040161079391906147fb565b5083600061343433612294565b905060008060005b8481101561126e5789898281811061345657613456614936565b905060200201602081019061346b9190614643565b9150613476826139ed565b9250613483828486613a3b565b508061348e81614962565b91505061343c565b60006134a06138b3565b604051632474521560e21b815269676f7665726e616e636560b01b60048201523360248201526001600160a01b0391909116906391d148549060440160206040518083038186803b1580156134f457600080fd5b505afa158015613508573d6000803e3d6000fd5b505050506040513d601f19601f8201168201806040525081019061352c91906147d9565b604051806040016040528060138152602001600080516020614a798339815191528152509061356e5760405162461bcd60e51b815260040161079391906147fb565b506005546040805180820190915260168152751059191c995cdcc81a5cc8185b1c9958591e481cd95d60521b6020820152906001600160a01b0316156135c75760405162461bcd60e51b815260040161079391906147fb565b5060006001600160a01b0316826001600160a01b03161415604051806080016040528060448152602001614aba60449139906136165760405162461bcd60e51b815260040161079391906147fb565b5050600580546001600160a01b0383166001600160a01b03199091161790556001919050565b60006136466138b3565b604051632474521560e21b815269676f7665726e616e636560b01b60048201523360248201526001600160a01b0391909116906391d148549060440160206040518083038186803b15801561369a57600080fd5b505afa1580156136ae573d6000803e3d6000fd5b505050506040513d601f19601f820116820180604052508101906136d291906147d9565b604051806040016040528060138152602001600080516020614a79833981519152815250906137145760405162461bcd60e51b815260040161079391906147fb565b50613720600c836139d1565b61372c57506000919050565b6000613739600c84613e58565b90506000613746846139ed565b9050613753816000613a2b565b5061376084826001613a3b565b50816001600160a01b03166341c0e1b56040518163ffffffff1660e01b8152600401602060405180830381600087803b15801561379c57600080fd5b505af11580156137b0573d6000803e3d6000fd5b505050506040513d601f19601f820116820180604052508101906137d491906147d9565b506137e0600c8561407a565b50816001600160a01b0316846001600160a01b03167fcc16c499caeb153ba6505515fba6ee59e03ae0b2d58e71b0bf2f5d6c1edce18a60405160405180910390a35060019392505050565b6040516321f8a72160e01b81526a3937b632a6b0b730b3b2b960a91b60048201526000906001600160a01b038316906321f8a7219060240160206040518083038186803b15801561387b57600080fd5b505afa15801561388f573d6000803e3d6000fd5b505050506040513d601f19601f820116820180604052508101906117aa919061499c565b7f000000000000000000000000000000000000000000000000000000000000000090565b60006138e4600983613e58565b905060006138f183613df5565b90506138fe816000613a2b565b5061390b81846001613f35565b5061391760098461407a565b50816001600160a01b03166341c0e1b56040518163ffffffff1660e01b8152600401602060405180830381600087803b15801561395357600080fd5b505af1158015613967573d6000803e3d6000fd5b505050506040513d601f19601f8201168201806040525081019061398b91906147d9565b50816001600160a01b0316836001600160a01b03167f17f0f96ae429677ea4738e76673566db1bd65621496eee49c94173e289e24dc860405160405180910390a3505050565b60006139e6836001600160a01b03841661408f565b9392505050565b600068185b5b55d95a59da1d60ba1b82604051602001613a0e929190614a13565b604051602081830303815290604052805190602001209050919050565b60006139e683836203f48061409b565b6000613a48600c85613e58565b6001600160a01b0316635790a0c86040518163ffffffff1660e01b8152600401602060405180830381600087803b158015613a8257600080fd5b505af1158015613a96573d6000803e3d6000fd5b505050506040513d601f19601f82011682018060405250810190613aba91906147d9565b50600083815260016020908152604080832054600390925290912054600854613ae39190614a33565b613aed9190614a4a565b6008819055613afd576000613b01565b6008545b60085581613b1757613b12836140f1565b613b31565b600083815260016020526040902054613b3190849061411c565b50836001600160a01b03167fae184fbf7bfb224f97d6249d7fa54401f07985f32c0dc355869f2268ef3211f56003600086815260200190815260200160002054604051613b8091815260200190565b60405180910390a25060019392505050565b604051633dea062f60e21b81526001600160a01b0382811660048301526000917f00000000000000000000000000000000000000000000000000000000000000009091169063f7a818bc9060240160206040518083038186803b158015613bf857600080fd5b505afa158015613c0c573d6000803e3d6000fd5b505050506040513d601f19601f82011682018060405250810190613c30919061499c565b6001600160a01b03161415604051806040016040528060118152602001701859191c995cdcc81b9bdd08199bdd5b99607a1b81525090613c835760405162461bcd60e51b815260040161079391906147fb565b5050565b6000671b1c15d95a59da1d60c21b82604051602001613a0e929190614a13565b6000826001600160a01b0316635790a0c86040518163ffffffff1660e01b8152600401602060405180830381600087803b158015613ce457600080fd5b505af1158015613cf8573d6000803e3d6000fd5b505050506040513d601f19601f82011682018060405250810190613d1c91906147d9565b50600085815260016020908152604080832054600390925290912054600754613d459190614a33565b613d4f9190614a4a565b6007819055613d5f576000613d63565b6007545b60075581613d7957613d74856140f1565b613d93565b600085815260016020526040902054613d9390869061411c565b50836001600160a01b03167fed56e077a86640eda727b81e991a174258c5356858ae761a377afccf9fac283e6003600088815260200190815260200160002054604051613de291815260200190565b60405180910390a2506001949350505050565b60006b1ad9595c195c95d95a59da1d60a21b82604051602001613a0e929190614a13565b6000808080613e31866001600160a01b038716614188565b909450925050505b9250929050565b60006117aa826141c2565b600080610f0884846141cd565b60006139e6836001600160a01b0384166141dc565b6000611f48846001600160a01b0380861690851661424c565b60606000613e9383613e40565b905060008167ffffffffffffffff811115613eb057613eb0614850565b604051908082528060200260200182016040528015613ed9578160200160208202803683370190505b50905060005b82811015613f2d57613ef18582613e4b565b828281518110613f0357613f03614936565b6001600160a01b039092166020928302919091019091015280613f2581614962565b915050613edf565b509392505050565b6000613f42600984613e58565b6001600160a01b0316635790a0c86040518163ffffffff1660e01b8152600401602060405180830381600087803b158015613f7c57600080fd5b505af1158015613f90573d6000803e3d6000fd5b505050506040513d601f19601f82011682018060405250810190613fb491906147d9565b50600084815260016020908152604080832054600390925290912054600654613fdd9190614a33565b613fe79190614a4a565b6006819055613ff7576000613ffb565b6006545b600655816140115761400c846140f1565b61402b565b60008481526001602052604090205461402b90859061411c565b50826001600160a01b03167fd4087c97381173c70bcc96da898724a384de03e9b747eefe531406b538babeac6003600087815260200190815260200160002054604051613b8091815260200190565b60006139e6836001600160a01b038416614269565b60006139e68383614286565b60006140a7848361429e565b600084815260016020908152604091829020859055815185815290810184905285917f0e6790002e78fb96ff1fdfe3a3bb2a86489d3f3923372c1fe5b6b1fed071eed49101613b80565b60006140fc82614378565b600082815260016020526040902054614115838261411c565b5092915050565b6000828152600360209081526040808320805490859055600183528184208490556004835281842084905581518181529283018590529185917fcc0bafe2accb565ea70674bf4b2555e49a47d410fb9932dfab3e5f41855d0a2f910160405180910390a2509092915050565b60008181526002830160205260408120548190806141b7576141aa858561408f565b925060009150613e399050565b600192509050613e39565b60006117aa82614421565b6000808080613e31868661442b565b6000818152600283016020526040812054801515806142005750614200848461408f565b6139e65760405162461bcd60e51b815260206004820152601e60248201527f456e756d657261626c654d61703a206e6f6e6578697374656e74206b657900006044820152606401610793565b60008281526002840160205260408120829055611f488484614456565b600081815260028301602052604081208190556139e68383614462565b600081815260018301602052604081205415156139e6565b6004600083815260200190815260200160002054600014604051806040016040528060128152602001710646561646c696e65206d75737420626520360741b815250906142fe5760405162461bcd60e51b815260040161079391906147fb565b5060408051808201909152601881527f64656c6179206265206174206c6561737420332064617973000000000000000060208201526203f4808210156143575760405162461bcd60e51b815260040161079391906147fb565b506143628142614a4a565b6000928352600460205260409092209190915550565b60006004600083815260200190815260200160002054905080421015604051806060016040528060218152602001614a9960219139906143cb5760405162461bcd60e51b815260040161079391906147fb565b5060408051808201909152600d81526c0646561646c696e65206973203609c1b60208201528161440e5760405162461bcd60e51b815260040161079391906147fb565b5050600090815260046020526040812055565b60006117aa825490565b60008080614439858561446e565b600081815260029690960160205260409095205494959350505050565b60006139e6838361447a565b60006139e683836144c9565b60006139e683836145bc565b60008181526001830160205260408120546144c1575081546001818101845560008481526020808220909301849055845484825282860190935260409020919091556117aa565b5060006117aa565b600081815260018301602052604081205480156145b25760006144ed600183614a33565b855490915060009061450190600190614a33565b905081811461456657600086600001828154811061452157614521614936565b906000526020600020015490508087600001848154811061454457614544614936565b6000918252602080832090910192909255918252600188019052604090208390555b855486908061457757614577614a62565b6001900381819060005260206000200160009055905585600101600086815260200190815260200160002060009055600193505050506117aa565b60009150506117aa565b60008260000182815481106145d3576145d3614936565b9060005260206000200154905092915050565b6000602082840312156145f857600080fd5b5035919050565b6001600160a01b038116811461461457600080fd5b50565b6000806040838503121561462a57600080fd5b8235614635816145ff565b946020939093013593505050565b60006020828403121561465557600080fd5b81356139e6816145ff565b60008083601f84011261467257600080fd5b50813567ffffffffffffffff81111561468a57600080fd5b6020830191508360208260051b8501011115613e3957600080fd5b600080600080604085870312156146bb57600080fd5b843567ffffffffffffffff808211156146d357600080fd5b6146df88838901614660565b909650945060208701359150808211156146f857600080fd5b5061470587828801614660565b95989497509550505050565b6000806040838503121561472457600080fd5b823561472f816145ff565b9150602083013561473f816145ff565b809150509250929050565b6000806020838503121561475d57600080fd5b823567ffffffffffffffff81111561477457600080fd5b61478085828601614660565b90969095509350505050565b6020808252825182820181905260009190848201906040850190845b818110156147cd5783516001600160a01b0316835292840192918401916001016147a8565b50909695505050505050565b6000602082840312156147eb57600080fd5b815180151581146139e657600080fd5b600060208083528351808285015260005b818110156148285785810183015185820160400152820161480c565b8181111561483a576000604083870101525b50601f01601f1916929092016040019392505050565b634e487b7160e01b600052604160045260246000fd5b8051612692816145ff565b6000602080838503121561488457600080fd5b825167ffffffffffffffff8082111561489c57600080fd5b818501915085601f8301126148b057600080fd5b8151818111156148c2576148c2614850565b8060051b604051601f19603f830116810181811085821117156148e7576148e7614850565b60405291825284820192508381018501918883111561490557600080fd5b938501935b8285101561492a5761491b85614866565b8452938501939285019261490a565b98975050505050505050565b634e487b7160e01b600052603260045260246000fd5b634e487b7160e01b600052601160045260246000fd5b60006000198214156149765761497661494c565b5060010190565b92835260208301919091526001600160a01b0316604082015260600190565b6000602082840312156149ae57600080fd5b81516139e6816145ff565b6000602082840312156149cb57600080fd5b5051919050565b60008160001904831182151516156149ec576149ec61494c565b500290565b600082614a0e57634e487b7160e01b600052601260045260246000fd5b500490565b91825260601b6bffffffffffffffffffffffff1916602082015260340190565b600082821015614a4557614a4561494c565b500390565b60008219821115614a5d57614a5d61494c565b500190565b634e487b7160e01b600052603160045260246000fdfe756e617574686f72697a65642061636365737300000000000000000000000000646561646c696e6520686173206e6f74206265656e207265616368656420796574746865206d696e7465722061646472657373206f6620746865204c5020746f6b656e20616e642074686520706f6f6c206164647265737320646f206e6f74206d61746368a26469706673582212206684ec31efafe0eeb4a07db52e9e27ce1eebb6b1543d94cb59f8d5cf92c54b9e64736f6c63430008090033","bytecodeSha1":"3739ca2cac8ffe2385d1738f826f33b812d33c7d","compiler":{"evm_version":"london","optimizer":{"enabled":true,"runs":200},"version":"0.8.9+commit.e5eed63a"},"contractName":"InflationManager","language":"Solidity","natspec":{"kind":"dev","methods":{"addStrategyToDepositStakerVault(address,address)":{"details":"This simply avoids the strategy accumulating tokens in the deposit pool.","notice":"Registers a pool's strategy with the stakerVault of the pool where the strategy deposits.","params":{"depositStakerVault":"StakerVault of the pool where the strategy deposits.","strategyPool":"The pool of the strategy to register (avoids blacklisting other addresses)."},"returns":{"_0":"`true` if successful."}},"advanceKeeperGaugeEpoch(address)":{"notice":"Advance the keeper gauge for a pool by on epoch.","params":{"pool":"Pool for which the keeper gauge is advanced."},"returns":{"_0":"`true` if successful."}},"batchExecuteAmmTokenWeights(address[])":{"details":"If this is called by the INFLATION_MANAGER role address, no time delay is enforced.","notice":"Execute weight updates for a batch of AMM tokens.","params":{"tokens":"AMM tokens to execute the weight updates for."},"returns":{"_0":"`true` if successful."}},"batchExecuteKeeperPoolWeights(address[])":{"notice":"Execute weight updates for a batch of _keeperGauges.","params":{"pools":"Pools to execute the keeper weight updates for."},"returns":{"_0":"`true` if successful."}},"batchExecuteLpPoolWeights(address[])":{"details":"If this is called by the INFLATION_MANAGER role address, no time delay is enforced.","notice":"Execute weight updates for a batch of LpTokens.","params":{"lpTokens":"LpTokens to execute the weight updates for."},"returns":{"_0":"`true` if successful."}},"batchPrepareAmmTokenWeights(address[],uint256[])":{"details":"Each entry in the tokens array corresponds to an entry in the weights array.","notice":"Prepare update of a batch of AMM token weights (with time delay enforced).","params":{"tokens":"AMM tokens to update the inflation weight for.","weights":"New weights for the inflation for the AMM tokens."},"returns":{"_0":"`true` if successful."}},"batchPrepareKeeperPoolWeights(address[],uint256[])":{"details":"Each entry in the pools array corresponds to an entry in the weights array.","notice":"Prepare update of a batch of keeperGauge weights (with time delay enforced).","params":{"pools":"Pools to update the keeper weight for.","weights":"New weights for the keeper inflation for the pools."},"returns":{"_0":"`true` if successful."}},"batchPrepareLpPoolWeights(address[],uint256[])":{"details":"Each entry in the lpTokens array corresponds to an entry in the weights array.","notice":"Prepare update of a batch of LP token weights (with time delay enforced).","params":{"lpTokens":"LpTokens to update the inflation weight for.","weights":"New weights for the inflation for the LpTokens."},"returns":{"_0":"`true` if successful."}},"checkpointAllGauges()":{"details":"This is mostly used upon inflation rate updates.","notice":"Checkpoints all gauges.","returns":{"_0":"`true` if successful."}},"deactivateWeightBasedKeeperDistribution()":{"details":"This can only be done once, when the keeper inflation mechanism is altered.","notice":"Deactivates the weight-based distribution of keeper inflation.","returns":{"_0":"`true` if successful."}},"executeAmmTokenWeight(address)":{"details":"Needs to be called after the update was prepraed. Fails if called before time delay is met.","notice":"Execute update of lp pool weight (with time delay enforced).","returns":{"_0":"New lp pool weight."}},"executeKeeperPoolWeight(address)":{"details":"Needs to be called after the update was prepraed. Fails if called before time delay is met.","notice":"Execute update of keeper pool weight (with time delay enforced).","params":{"pool":"Pool to execute the keeper weight update for."},"returns":{"_0":"New keeper pool weight."}},"executeLpPoolWeight(address)":{"details":"Needs to be called after the update was prepared. Fails if called before time delay is met.","notice":"Execute update of lp pool weight (with time delay enforced).","returns":{"_0":"New lp pool weight."}},"isInflationWeightManager(address)":{"notice":"Check if an account is governance proxy.","params":{"account":"Address to check."},"returns":{"_0":"`true` if account is governance proxy."}},"mintRewards(address,uint256)":{"notice":"Mints BKD tokens.","params":{"amount":"Amount of tokens to mint.","beneficiary":"Address to receive the tokens."}},"prepareAmmTokenWeight(address,uint256)":{"notice":"Prepare an inflation weight update for an AMM token (with time delay enforced).","params":{"newTokenWeight":"New AMM token inflation weight.","token":"AMM token to update the weight for."},"returns":{"_0":"`true` if successful."}},"prepareKeeperPoolWeight(address,uint256)":{"notice":"Prepare update of a keeper pool weight (with time delay enforced).","params":{"newPoolWeight":"New weight for the keeper inflation for the pool.","pool":"Pool to update the keeper weight for."},"returns":{"_0":"`true` if successful."}},"prepareLpPoolWeight(address,uint256)":{"notice":"Prepare update of a lp pool weight (with time delay enforced).","params":{"lpToken":"LP token to update the weight for.","newPoolWeight":"New LP inflation weight."},"returns":{"_0":"`true` if successful."}},"setAmmGauge(address,address)":{"notice":"Sets the AmmGauge for a particular AMM token.","params":{"_ammGauge":"Address of AmmGauge.","token":"Address of the amm token."},"returns":{"_0":"`true` if successful."}},"setKeeperGauge(address,address)":{"details":"Multiple pools can have the same KeeperGauge.","notice":"Sets the KeeperGauge for a pool.","params":{"_keeperGauge":"Address of KeeperGauge.","pool":"Address of pool to set the KeeperGauge for."},"returns":{"_0":"`true` if successful."}}},"version":1},"opcodes":"PUSH1 0x80 PUSH1 0x40 MSTORE CALLVALUE DUP1 ISZERO PUSH2 0x10 JUMPI PUSH1 0x0 DUP1 REVERT JUMPDEST POP PUSH1 0x4 CALLDATASIZE LT PUSH2 0x29F JUMPI PUSH1 0x0 CALLDATALOAD PUSH1 0xE0 SHR DUP1 PUSH4 0x8461372F GT PUSH2 0x167 JUMPI DUP1 PUSH4 0xB9A09FD5 GT PUSH2 0xCE JUMPI DUP1 PUSH4 0xE0032858 GT PUSH2 0x87 JUMPI DUP1 PUSH4 0xE0032858 EQ PUSH2 0x60E JUMPI DUP1 PUSH4 0xE195A215 EQ PUSH2 0x621 JUMPI DUP1 PUSH4 0xE3976EDF EQ PUSH2 0x634 JUMPI DUP1 PUSH4 0xF76C3399 EQ PUSH2 0x65D JUMPI DUP1 PUSH4 0xFCA3B5AA EQ PUSH2 0x686 JUMPI DUP1 PUSH4 0xFD600B84 EQ PUSH2 0x699 JUMPI PUSH1 0x0 DUP1 REVERT JUMPDEST DUP1 PUSH4 0xB9A09FD5 EQ PUSH2 0x596 JUMPI DUP1 PUSH4 0xBEA00B72 EQ PUSH2 0x5B9 JUMPI DUP1 PUSH4 0xC51DFC8F EQ PUSH2 0x5CC JUMPI DUP1 PUSH4 0xC9FB321A EQ PUSH2 0x5DF JUMPI DUP1 PUSH4 0xDF9CCFFF EQ PUSH2 0x5E8 JUMPI DUP1 PUSH4 0xDF9F8FB7 EQ PUSH2 0x5FB JUMPI PUSH1 0x0 DUP1 REVERT JUMPDEST DUP1 PUSH4 0x9BBDD1AC GT PUSH2 0x120 JUMPI DUP1 PUSH4 0x9BBDD1AC EQ PUSH2 0x520 JUMPI DUP1 PUSH4 0x9C6856FC EQ PUSH2 0x533 JUMPI DUP1 PUSH4 0xA871D4EE EQ PUSH2 0x546 JUMPI DUP1 PUSH4 0xAFF1B7E4 EQ PUSH2 0x55B JUMPI DUP1 PUSH4 0xB2D918C1 EQ PUSH2 0x57B JUMPI DUP1 PUSH4 0xB662FC55 EQ PUSH2 0x58E JUMPI PUSH1 0x0 DUP1 REVERT JUMPDEST DUP1 PUSH4 0x8461372F EQ PUSH2 0x4B8 JUMPI DUP1 PUSH4 0x85CABD98 EQ PUSH2 0x4CB JUMPI DUP1 PUSH4 0x8A75B2CD EQ PUSH2 0x4DE JUMPI DUP1 PUSH4 0x8D651082 EQ PUSH2 0x4E7 JUMPI DUP1 PUSH4 0x8D6DCA55 EQ PUSH2 0x4FA JUMPI DUP1 PUSH4 0x8E01C196 EQ PUSH2 0x50D JUMPI PUSH1 0x0 DUP1 REVERT JUMPDEST DUP1 PUSH4 0x3D65D2DF GT PUSH2 0x20B JUMPI DUP1 PUSH4 0x5394EE05 GT PUSH2 0x1C4 JUMPI DUP1 PUSH4 0x5394EE05 EQ PUSH2 0x445 JUMPI DUP1 PUSH4 0x54A8F333 EQ PUSH2 0x459 JUMPI DUP1 PUSH4 0x6A20DE92 EQ PUSH2 0x46C JUMPI DUP1 PUSH4 0x6AD2D131 EQ PUSH2 0x47F JUMPI DUP1 PUSH4 0x72EC31A8 EQ PUSH2 0x492 JUMPI DUP1 PUSH4 0x7DDBC911 EQ PUSH2 0x4A5 JUMPI PUSH1 0x0 DUP1 REVERT JUMPDEST DUP1 PUSH4 0x3D65D2DF EQ PUSH2 0x3D3 JUMPI DUP1 PUSH4 0x3DA3C28F EQ PUSH2 0x3E6 JUMPI DUP1 PUSH4 0x42035057 EQ PUSH2 0x3F9 JUMPI DUP1 PUSH4 0x430E2E57 EQ PUSH2 0x40C JUMPI DUP1 PUSH4 0x4875E052 EQ PUSH2 0x41F JUMPI DUP1 PUSH4 0x4BB38245 EQ PUSH2 0x432 JUMPI PUSH1 0x0 DUP1 REVERT JUMPDEST DUP1 PUSH4 0x1DC388EA GT PUSH2 0x25D JUMPI DUP1 PUSH4 0x1DC388EA EQ PUSH2 0x34A JUMPI DUP1 PUSH4 0x204B0B8D EQ PUSH2 0x35D JUMPI DUP1 PUSH4 0x26EA87B0 EQ PUSH2 0x370 JUMPI DUP1 PUSH4 0x2897A553 EQ PUSH2 0x379 JUMPI DUP1 PUSH4 0x2954018C EQ PUSH2 0x38C JUMPI DUP1 PUSH4 0x346A4A51 EQ PUSH2 0x3B3 JUMPI PUSH1 0x0 DUP1 REVERT JUMPDEST DUP1 PUSH3 0x435DA5 EQ PUSH2 0x2A4 JUMPI DUP1 PUSH4 0x7546172 EQ PUSH2 0x2C9 JUMPI DUP1 PUSH4 0xEDB01E4 EQ PUSH2 0x2DC JUMPI DUP1 PUSH4 0x15DBFE62 EQ PUSH2 0x2F4 JUMPI DUP1 PUSH4 0x187E66E3 EQ PUSH2 0x322 JUMPI DUP1 PUSH4 0x1CAEA2C9 EQ PUSH2 0x335 JUMPI JUMPDEST PUSH1 0x0 DUP1 REVERT JUMPDEST PUSH2 0x2AC PUSH2 0x6AC JUMP JUMPDEST PUSH1 0x40 MLOAD PUSH1 0x1 PUSH1 0x1 PUSH1 0xA0 SHL SUB SWAP1 SWAP2 AND DUP2 MSTORE PUSH1 0x20 ADD JUMPDEST PUSH1 0x40 MLOAD DUP1 SWAP2 SUB SWAP1 RETURN JUMPDEST PUSH1 0x5 SLOAD PUSH2 0x2AC SWAP1 PUSH1 0x1 PUSH1 0x1 PUSH1 0xA0 SHL SUB AND DUP2 JUMP JUMPDEST PUSH2 0x2E4 PUSH2 0x6BB JUMP JUMPDEST PUSH1 0x40 MLOAD SWAP1 ISZERO ISZERO DUP2 MSTORE PUSH1 0x20 ADD PUSH2 0x2C0 JUMP JUMPDEST PUSH2 0x314 PUSH2 0x302 CALLDATASIZE PUSH1 0x4 PUSH2 0x45E6 JUMP JUMPDEST PUSH1 0x1 PUSH1 0x20 MSTORE PUSH1 0x0 SWAP1 DUP2 MSTORE PUSH1 0x40 SWAP1 KECCAK256 SLOAD DUP2 JUMP JUMPDEST PUSH1 0x40 MLOAD SWAP1 DUP2 MSTORE PUSH1 0x20 ADD PUSH2 0x2C0 JUMP JUMPDEST PUSH2 0x2E4 PUSH2 0x330 CALLDATASIZE PUSH1 0x4 PUSH2 0x4617 JUMP JUMPDEST PUSH2 0x8EF JUMP JUMPDEST PUSH2 0x348 PUSH2 0x343 CALLDATASIZE PUSH1 0x4 PUSH2 0x4643 JUMP JUMPDEST PUSH2 0xA4F JUMP JUMPDEST STOP JUMPDEST PUSH2 0x314 PUSH2 0x358 CALLDATASIZE PUSH1 0x4 PUSH2 0x4643 JUMP JUMPDEST PUSH2 0xB4D JUMP JUMPDEST PUSH2 0x2E4 PUSH2 0x36B CALLDATASIZE PUSH1 0x4 PUSH2 0x4617 JUMP JUMPDEST PUSH2 0xB84 JUMP JUMPDEST PUSH2 0x314 PUSH1 0x7 SLOAD DUP2 JUMP JUMPDEST PUSH2 0x314 PUSH2 0x387 CALLDATASIZE PUSH1 0x4 PUSH2 0x4643 JUMP JUMPDEST PUSH2 0xE20 JUMP JUMPDEST PUSH2 0x2AC PUSH32 0x0 DUP2 JUMP JUMPDEST PUSH2 0x314 PUSH2 0x3C1 CALLDATASIZE PUSH1 0x4 PUSH2 0x45E6 JUMP JUMPDEST PUSH1 0x4 PUSH1 0x20 MSTORE PUSH1 0x0 SWAP1 DUP2 MSTORE PUSH1 0x40 SWAP1 KECCAK256 SLOAD DUP2 JUMP JUMPDEST PUSH2 0x2E4 PUSH2 0x3E1 CALLDATASIZE PUSH1 0x4 PUSH2 0x46A5 JUMP JUMPDEST PUSH2 0xF11 JUMP JUMPDEST PUSH2 0x314 PUSH2 0x3F4 CALLDATASIZE PUSH1 0x4 PUSH2 0x4643 JUMP JUMPDEST PUSH2 0x127E JUMP JUMPDEST PUSH2 0x314 PUSH2 0x407 CALLDATASIZE PUSH1 0x4 PUSH2 0x4643 JUMP JUMPDEST PUSH2 0x135C JUMP JUMPDEST PUSH2 0x2E4 PUSH2 0x41A CALLDATASIZE PUSH1 0x4 PUSH2 0x4643 JUMP JUMPDEST PUSH2 0x137E JUMP JUMPDEST PUSH2 0x2E4 PUSH2 0x42D CALLDATASIZE PUSH1 0x4 PUSH2 0x4711 JUMP JUMPDEST PUSH2 0x155C JUMP JUMPDEST PUSH2 0x2E4 PUSH2 0x440 CALLDATASIZE PUSH1 0x4 PUSH2 0x474A JUMP JUMPDEST PUSH2 0x17B0 JUMP JUMPDEST PUSH1 0x5 SLOAD PUSH2 0x2E4 SWAP1 PUSH1 0x1 PUSH1 0xA0 SHL SWAP1 DIV PUSH1 0xFF AND DUP2 JUMP JUMPDEST PUSH2 0x2E4 PUSH2 0x467 CALLDATASIZE PUSH1 0x4 PUSH2 0x46A5 JUMP JUMPDEST PUSH2 0x1A86 JUMP JUMPDEST PUSH2 0x348 PUSH2 0x47A CALLDATASIZE PUSH1 0x4 PUSH2 0x4617 JUMP JUMPDEST PUSH2 0x1CA0 JUMP JUMPDEST PUSH2 0x314 PUSH2 0x48D CALLDATASIZE PUSH1 0x4 PUSH2 0x4643 JUMP JUMPDEST PUSH2 0x1D82 JUMP JUMPDEST PUSH2 0x314 PUSH2 0x4A0 CALLDATASIZE PUSH1 0x4 PUSH2 0x4643 JUMP JUMPDEST PUSH2 0x1F2E JUMP JUMPDEST PUSH2 0x2AC PUSH2 0x4B3 CALLDATASIZE PUSH1 0x4 PUSH2 0x4643 JUMP JUMPDEST PUSH2 0x1F3A JUMP JUMPDEST PUSH2 0x2E4 PUSH2 0x4C6 CALLDATASIZE PUSH1 0x4 PUSH2 0x4711 JUMP JUMPDEST PUSH2 0x1F50 JUMP JUMPDEST PUSH2 0x2E4 PUSH2 0x4D9 CALLDATASIZE PUSH1 0x4 PUSH2 0x4643 JUMP JUMPDEST PUSH2 0x2294 JUMP JUMPDEST PUSH2 0x314 PUSH1 0x8 SLOAD DUP2 JUMP JUMPDEST PUSH2 0x2E4 PUSH2 0x4F5 CALLDATASIZE PUSH1 0x4 PUSH2 0x46A5 JUMP JUMPDEST PUSH2 0x2333 JUMP JUMPDEST PUSH2 0x2E4 PUSH2 0x508 CALLDATASIZE PUSH1 0x4 PUSH2 0x4643 JUMP JUMPDEST PUSH2 0x2536 JUMP JUMPDEST PUSH2 0x314 PUSH2 0x51B CALLDATASIZE PUSH1 0x4 PUSH2 0x4643 JUMP JUMPDEST PUSH2 0x2697 JUMP JUMPDEST PUSH2 0x2E4 PUSH2 0x52E CALLDATASIZE PUSH1 0x4 PUSH2 0x4711 JUMP JUMPDEST PUSH2 0x2759 JUMP JUMPDEST PUSH2 0x314 PUSH2 0x541 CALLDATASIZE PUSH1 0x4 PUSH2 0x4643 JUMP JUMPDEST PUSH2 0x2AE1 JUMP JUMPDEST PUSH2 0x54E PUSH2 0x2BD0 JUMP JUMPDEST PUSH1 0x40 MLOAD PUSH2 0x2C0 SWAP2 SWAP1 PUSH2 0x478C JUMP JUMPDEST PUSH2 0x314 PUSH2 0x569 CALLDATASIZE PUSH1 0x4 PUSH2 0x45E6 JUMP JUMPDEST PUSH1 0x3 PUSH1 0x20 MSTORE PUSH1 0x0 SWAP1 DUP2 MSTORE PUSH1 0x40 SWAP1 KECCAK256 SLOAD DUP2 JUMP JUMPDEST PUSH2 0x2E4 PUSH2 0x589 CALLDATASIZE PUSH1 0x4 PUSH2 0x4617 JUMP JUMPDEST PUSH2 0x2BDC JUMP JUMPDEST PUSH2 0x2E4 PUSH2 0x2D1F JUMP JUMPDEST PUSH2 0x2E4 PUSH2 0x5A4 CALLDATASIZE PUSH1 0x4 PUSH2 0x4643 JUMP JUMPDEST PUSH1 0xF PUSH1 0x20 MSTORE PUSH1 0x0 SWAP1 DUP2 MSTORE PUSH1 0x40 SWAP1 KECCAK256 SLOAD PUSH1 0xFF AND DUP2 JUMP JUMPDEST PUSH2 0x314 PUSH2 0x5C7 CALLDATASIZE PUSH1 0x4 PUSH2 0x4643 JUMP JUMPDEST PUSH2 0x2FC0 JUMP JUMPDEST PUSH2 0x348 PUSH2 0x5DA CALLDATASIZE PUSH1 0x4 PUSH2 0x4711 JUMP JUMPDEST PUSH2 0x2FE1 JUMP JUMPDEST PUSH2 0x314 PUSH1 0x6 SLOAD DUP2 JUMP JUMPDEST PUSH2 0x2AC PUSH2 0x5F6 CALLDATASIZE PUSH1 0x4 PUSH2 0x4643 JUMP JUMPDEST PUSH2 0x30E7 JUMP JUMPDEST PUSH2 0x2E4 PUSH2 0x609 CALLDATASIZE PUSH1 0x4 PUSH2 0x4643 JUMP JUMPDEST PUSH2 0x30F5 JUMP JUMPDEST PUSH2 0x2E4 PUSH2 0x61C CALLDATASIZE PUSH1 0x4 PUSH2 0x474A JUMP JUMPDEST PUSH2 0x31DF JUMP JUMPDEST PUSH2 0x2E4 PUSH2 0x62F CALLDATASIZE PUSH1 0x4 PUSH2 0x474A JUMP JUMPDEST PUSH2 0x3339 JUMP JUMPDEST PUSH2 0x2AC PUSH2 0x642 CALLDATASIZE PUSH1 0x4 PUSH2 0x45E6 JUMP JUMPDEST PUSH1 0x0 PUSH1 0x20 DUP2 SWAP1 MSTORE SWAP1 DUP2 MSTORE PUSH1 0x40 SWAP1 KECCAK256 SLOAD PUSH1 0x1 PUSH1 0x1 PUSH1 0xA0 SHL SUB AND DUP2 JUMP JUMPDEST PUSH2 0x2AC PUSH2 0x66B CALLDATASIZE PUSH1 0x4 PUSH2 0x45E6 JUMP JUMPDEST PUSH1 0x2 PUSH1 0x20 MSTORE PUSH1 0x0 SWAP1 DUP2 MSTORE PUSH1 0x40 SWAP1 KECCAK256 SLOAD PUSH1 0x1 PUSH1 0x1 PUSH1 0xA0 SHL SUB AND DUP2 JUMP JUMPDEST PUSH2 0x2E4 PUSH2 0x694 CALLDATASIZE PUSH1 0x4 PUSH2 0x4643 JUMP JUMPDEST PUSH2 0x3496 JUMP JUMPDEST PUSH2 0x2E4 PUSH2 0x6A7 CALLDATASIZE PUSH1 0x4 PUSH2 0x4643 JUMP JUMPDEST PUSH2 0x363C JUMP JUMPDEST PUSH1 0x0 PUSH2 0x6B6 PUSH2 0x38B3 JUMP JUMPDEST SWAP1 POP SWAP1 JUMP JUMPDEST PUSH1 0x0 PUSH2 0x6C5 PUSH2 0x38B3 JUMP JUMPDEST PUSH1 0x40 MLOAD PUSH4 0x24745215 PUSH1 0xE2 SHL DUP2 MSTORE PUSH10 0x676F7665726E616E6365 PUSH1 0xB0 SHL PUSH1 0x4 DUP3 ADD MSTORE CALLER PUSH1 0x24 DUP3 ADD MSTORE PUSH1 0x1 PUSH1 0x1 PUSH1 0xA0 SHL SUB SWAP2 SWAP1 SWAP2 AND SWAP1 PUSH4 0x91D14854 SWAP1 PUSH1 0x44 ADD PUSH1 0x20 PUSH1 0x40 MLOAD DUP1 DUP4 SUB DUP2 DUP7 DUP1 EXTCODESIZE ISZERO DUP1 ISZERO PUSH2 0x719 JUMPI PUSH1 0x0 DUP1 REVERT JUMPDEST POP GAS STATICCALL ISZERO DUP1 ISZERO PUSH2 0x72D JUMPI RETURNDATASIZE PUSH1 0x0 DUP1 RETURNDATACOPY RETURNDATASIZE PUSH1 0x0 REVERT JUMPDEST POP POP POP POP PUSH1 0x40 MLOAD RETURNDATASIZE PUSH1 0x1F NOT PUSH1 0x1F DUP3 ADD AND DUP3 ADD DUP1 PUSH1 0x40 MSTORE POP DUP2 ADD SWAP1 PUSH2 0x751 SWAP2 SWAP1 PUSH2 0x47D9 JUMP JUMPDEST PUSH1 0x40 MLOAD DUP1 PUSH1 0x40 ADD PUSH1 0x40 MSTORE DUP1 PUSH1 0x13 DUP2 MSTORE PUSH1 0x20 ADD PUSH1 0x0 DUP1 MLOAD PUSH1 0x20 PUSH2 0x4A79 DUP4 CODECOPY DUP2 MLOAD SWAP2 MSTORE DUP2 MSTORE POP SWAP1 PUSH2 0x79C JUMPI PUSH1 0x40 MLOAD PUSH3 0x461BCD PUSH1 0xE5 SHL DUP2 MSTORE PUSH1 0x4 ADD PUSH2 0x793 SWAP2 SWAP1 PUSH2 0x47FB JUMP JUMPDEST PUSH1 0x40 MLOAD DUP1 SWAP2 SUB SWAP1 REVERT JUMPDEST POP PUSH1 0x5 SLOAD PUSH1 0x1 PUSH1 0xA0 SHL SWAP1 DIV PUSH1 0xFF AND ISZERO PUSH2 0x7F7 JUMPI PUSH1 0x40 MLOAD PUSH3 0x461BCD PUSH1 0xE5 SHL DUP2 MSTORE PUSH1 0x20 PUSH1 0x4 DUP3 ADD MSTORE PUSH1 0x1F PUSH1 0x24 DUP3 ADD MSTORE PUSH32 0x5765696768742D626173656420646973742E2064656163746976617465642E00 PUSH1 0x44 DUP3 ADD MSTORE PUSH1 0x64 ADD PUSH2 0x793 JUMP JUMPDEST PUSH1 0x0 PUSH32 0x0 PUSH1 0x1 PUSH1 0x1 PUSH1 0xA0 SHL SUB AND PUSH4 0xC5C63E65 PUSH1 0x40 MLOAD DUP2 PUSH4 0xFFFFFFFF AND PUSH1 0xE0 SHL DUP2 MSTORE PUSH1 0x4 ADD PUSH1 0x0 PUSH1 0x40 MLOAD DUP1 DUP4 SUB DUP2 DUP7 DUP1 EXTCODESIZE ISZERO DUP1 ISZERO PUSH2 0x852 JUMPI PUSH1 0x0 DUP1 REVERT JUMPDEST POP GAS STATICCALL ISZERO DUP1 ISZERO PUSH2 0x866 JUMPI RETURNDATASIZE PUSH1 0x0 DUP1 RETURNDATACOPY RETURNDATASIZE PUSH1 0x0 REVERT JUMPDEST POP POP POP POP PUSH1 0x40 MLOAD RETURNDATASIZE PUSH1 0x0 DUP3 RETURNDATACOPY PUSH1 0x1F RETURNDATASIZE SWAP1 DUP2 ADD PUSH1 0x1F NOT AND DUP3 ADD PUSH1 0x40 MSTORE PUSH2 0x88E SWAP2 SWAP1 DUP2 ADD SWAP1 PUSH2 0x4871 JUMP JUMPDEST DUP1 MLOAD SWAP1 SWAP2 POP PUSH1 0x0 JUMPDEST DUP2 DUP2 LT ISZERO PUSH2 0x8D2 JUMPI PUSH2 0x8C0 DUP4 DUP3 DUP2 MLOAD DUP2 LT PUSH2 0x8B3 JUMPI PUSH2 0x8B3 PUSH2 0x4936 JUMP JUMPDEST PUSH1 0x20 MUL PUSH1 0x20 ADD ADD MLOAD PUSH2 0x38D7 JUMP JUMPDEST DUP1 PUSH2 0x8CA DUP2 PUSH2 0x4962 JUMP JUMPDEST SWAP2 POP POP PUSH2 0x896 JUMP JUMPDEST POP POP PUSH1 0x5 DUP1 SLOAD PUSH1 0xFF PUSH1 0xA0 SHL NOT AND PUSH1 0x1 PUSH1 0xA0 SHL OR SWAP1 SSTORE POP PUSH1 0x1 SWAP1 POP SWAP1 JUMP JUMPDEST PUSH1 0x0 PUSH10 0x676F7665726E616E6365 PUSH1 0xB0 SHL PUSH17 0x34B7333630BA34B7B72FB6B0B730B3B2B9 PUSH1 0x79 SHL PUSH2 0x91C PUSH2 0x38B3 JUMP JUMPDEST PUSH1 0x1 PUSH1 0x1 PUSH1 0xA0 SHL SUB AND PUSH4 0xD756A422 DUP4 DUP4 CALLER PUSH1 0x40 MLOAD DUP5 PUSH4 0xFFFFFFFF AND PUSH1 0xE0 SHL DUP2 MSTORE PUSH1 0x4 ADD PUSH2 0x94B SWAP4 SWAP3 SWAP2 SWAP1 PUSH2 0x497D JUMP JUMPDEST PUSH1 0x20 PUSH1 0x40 MLOAD DUP1 DUP4 SUB DUP2 DUP7 DUP1 EXTCODESIZE ISZERO DUP1 ISZERO PUSH2 0x963 JUMPI PUSH1 0x0 DUP1 REVERT JUMPDEST POP GAS STATICCALL ISZERO DUP1 ISZERO PUSH2 0x977 JUMPI RETURNDATASIZE PUSH1 0x0 DUP1 RETURNDATACOPY RETURNDATASIZE PUSH1 0x0 REVERT JUMPDEST POP POP POP POP PUSH1 0x40 MLOAD RETURNDATASIZE PUSH1 0x1F NOT PUSH1 0x1F DUP3 ADD AND DUP3 ADD DUP1 PUSH1 0x40 MSTORE POP DUP2 ADD SWAP1 PUSH2 0x99B SWAP2 SWAP1 PUSH2 0x47D9 JUMP JUMPDEST PUSH1 0x40 MLOAD DUP1 PUSH1 0x40 ADD PUSH1 0x40 MSTORE DUP1 PUSH1 0x13 DUP2 MSTORE PUSH1 0x20 ADD PUSH1 0x0 DUP1 MLOAD PUSH1 0x20 PUSH2 0x4A79 DUP4 CODECOPY DUP2 MLOAD SWAP2 MSTORE DUP2 MSTORE POP SWAP1 PUSH2 0x9DD JUMPI PUSH1 0x40 MLOAD PUSH3 0x461BCD PUSH1 0xE5 SHL DUP2 MSTORE PUSH1 0x4 ADD PUSH2 0x793 SWAP2 SWAP1 PUSH2 0x47FB JUMP JUMPDEST POP PUSH2 0x9E9 PUSH1 0xC DUP7 PUSH2 0x39D1 JUMP JUMPDEST PUSH2 0xA2B JUMPI PUSH1 0x40 MLOAD PUSH3 0x461BCD PUSH1 0xE5 SHL DUP2 MSTORE PUSH1 0x20 PUSH1 0x4 DUP3 ADD MSTORE PUSH1 0x13 PUSH1 0x24 DUP3 ADD MSTORE PUSH19 0x185B5B4819D85D59D9481B9BDD08199BDD5B99 PUSH1 0x6A SHL PUSH1 0x44 DUP3 ADD MSTORE PUSH1 0x64 ADD PUSH2 0x793 JUMP JUMPDEST PUSH1 0x0 PUSH2 0xA36 DUP7 PUSH2 0x39ED JUMP JUMPDEST SWAP1 POP PUSH2 0xA42 DUP2 DUP7 PUSH2 0x3A2B JUMP JUMPDEST POP PUSH1 0x1 SWAP7 SWAP6 POP POP POP POP POP POP JUMP JUMPDEST PUSH10 0x31B7B73A3937B63632B9 PUSH1 0xB1 SHL PUSH2 0xA65 PUSH2 0x38B3 JUMP JUMPDEST PUSH1 0x40 MLOAD PUSH4 0x24745215 PUSH1 0xE2 SHL DUP2 MSTORE PUSH1 0x4 DUP2 ADD DUP4 SWAP1 MSTORE CALLER PUSH1 0x24 DUP3 ADD MSTORE PUSH1 0x1 PUSH1 0x1 PUSH1 0xA0 SHL SUB SWAP2 SWAP1 SWAP2 AND SWAP1 PUSH4 0x91D14854 SWAP1 PUSH1 0x44 ADD PUSH1 0x20 PUSH1 0x40 MLOAD DUP1 DUP4 SUB DUP2 DUP7 DUP1 EXTCODESIZE ISZERO DUP1 ISZERO PUSH2 0xAAD JUMPI PUSH1 0x0 DUP1 REVERT JUMPDEST POP GAS STATICCALL ISZERO DUP1 ISZERO PUSH2 0xAC1 JUMPI RETURNDATASIZE PUSH1 0x0 DUP1 RETURNDATACOPY RETURNDATASIZE PUSH1 0x0 REVERT JUMPDEST POP POP POP POP PUSH1 0x40 MLOAD RETURNDATASIZE PUSH1 0x1F NOT PUSH1 0x1F DUP3 ADD AND DUP3 ADD DUP1 PUSH1 0x40 MSTORE POP DUP2 ADD SWAP1 PUSH2 0xAE5 SWAP2 SWAP1 PUSH2 0x47D9 JUMP JUMPDEST PUSH1 0x40 MLOAD DUP1 PUSH1 0x40 ADD PUSH1 0x40 MSTORE DUP1 PUSH1 0x13 DUP2 MSTORE PUSH1 0x20 ADD PUSH1 0x0 DUP1 MLOAD PUSH1 0x20 PUSH2 0x4A79 DUP4 CODECOPY DUP2 MLOAD SWAP2 MSTORE DUP2 MSTORE POP SWAP1 PUSH2 0xB27 JUMPI PUSH1 0x40 MLOAD PUSH3 0x461BCD PUSH1 0xE5 SHL DUP2 MSTORE PUSH1 0x4 ADD PUSH2 0x793 SWAP2 SWAP1 PUSH2 0x47FB JUMP JUMPDEST POP POP PUSH1 0x1 PUSH1 0x1 PUSH1 0xA0 SHL SUB AND PUSH1 0x0 SWAP1 DUP2 MSTORE PUSH1 0xF PUSH1 0x20 MSTORE PUSH1 0x40 SWAP1 KECCAK256 DUP1 SLOAD PUSH1 0xFF NOT AND PUSH1 0x1 OR SWAP1 SSTORE JUMP JUMPDEST PUSH1 0x0 DUP1 PUSH2 0xB59 DUP4 PUSH2 0x39ED JUMP JUMPDEST SWAP1 POP PUSH2 0xB6E DUP4 DUP3 PUSH2 0xB69 CALLER PUSH2 0x2294 JUMP JUMPDEST PUSH2 0x3A3B JUMP JUMPDEST POP PUSH1 0x0 SWAP1 DUP2 MSTORE PUSH1 0x3 PUSH1 0x20 MSTORE PUSH1 0x40 SWAP1 KECCAK256 SLOAD SWAP3 SWAP2 POP POP JUMP JUMPDEST PUSH1 0x0 PUSH10 0x676F7665726E616E6365 PUSH1 0xB0 SHL PUSH17 0x34B7333630BA34B7B72FB6B0B730B3B2B9 PUSH1 0x79 SHL PUSH2 0xBB1 PUSH2 0x38B3 JUMP JUMPDEST PUSH1 0x1 PUSH1 0x1 PUSH1 0xA0 SHL SUB AND PUSH4 0xD756A422 DUP4 DUP4 CALLER PUSH1 0x40 MLOAD DUP5 PUSH4 0xFFFFFFFF AND PUSH1 0xE0 SHL DUP2 MSTORE PUSH1 0x4 ADD PUSH2 0xBE0 SWAP4 SWAP3 SWAP2 SWAP1 PUSH2 0x497D JUMP JUMPDEST PUSH1 0x20 PUSH1 0x40 MLOAD DUP1 DUP4 SUB DUP2 DUP7 DUP1 EXTCODESIZE ISZERO DUP1 ISZERO PUSH2 0xBF8 JUMPI PUSH1 0x0 DUP1 REVERT JUMPDEST POP GAS STATICCALL ISZERO DUP1 ISZERO PUSH2 0xC0C JUMPI RETURNDATASIZE PUSH1 0x0 DUP1 RETURNDATACOPY RETURNDATASIZE PUSH1 0x0 REVERT JUMPDEST POP POP POP POP PUSH1 0x40 MLOAD RETURNDATASIZE PUSH1 0x1F NOT PUSH1 0x1F DUP3 ADD AND DUP3 ADD DUP1 PUSH1 0x40 MSTORE POP DUP2 ADD SWAP1 PUSH2 0xC30 SWAP2 SWAP1 PUSH2 0x47D9 JUMP JUMPDEST PUSH1 0x40 MLOAD DUP1 PUSH1 0x40 ADD PUSH1 0x40 MSTORE DUP1 PUSH1 0x13 DUP2 MSTORE PUSH1 0x20 ADD PUSH1 0x0 DUP1 MLOAD PUSH1 0x20 PUSH2 0x4A79 DUP4 CODECOPY DUP2 MLOAD SWAP2 MSTORE DUP2 MSTORE POP SWAP1 PUSH2 0xC72 JUMPI PUSH1 0x40 MLOAD PUSH3 0x461BCD PUSH1 0xE5 SHL DUP2 MSTORE PUSH1 0x4 ADD PUSH2 0x793 SWAP2 SWAP1 PUSH2 0x47FB JUMP JUMPDEST POP PUSH1 0x40 MLOAD PUSH4 0x59EADEB PUSH1 0xE4 SHL DUP2 MSTORE PUSH1 0x1 PUSH1 0x1 PUSH1 0xA0 SHL SUB DUP7 DUP2 AND PUSH1 0x4 DUP4 ADD MSTORE PUSH1 0x0 SWAP2 PUSH32 0x0 SWAP1 SWAP2 AND SWAP1 PUSH4 0x59EADEB0 SWAP1 PUSH1 0x24 ADD PUSH1 0x20 PUSH1 0x40 MLOAD DUP1 DUP4 SUB DUP2 DUP7 DUP1 EXTCODESIZE ISZERO DUP1 ISZERO PUSH2 0xCD9 JUMPI PUSH1 0x0 DUP1 REVERT JUMPDEST POP GAS STATICCALL ISZERO DUP1 ISZERO PUSH2 0xCED JUMPI RETURNDATASIZE PUSH1 0x0 DUP1 RETURNDATACOPY RETURNDATASIZE PUSH1 0x0 REVERT JUMPDEST POP POP POP POP PUSH1 0x40 MLOAD RETURNDATASIZE PUSH1 0x1F NOT PUSH1 0x1F DUP3 ADD AND DUP3 ADD DUP1 PUSH1 0x40 MSTORE POP DUP2 ADD SWAP1 PUSH2 0xD11 SWAP2 SWAP1 PUSH2 0x499C JUMP JUMPDEST SWAP1 POP PUSH1 0xF PUSH1 0x0 DUP3 PUSH1 0x1 PUSH1 0x1 PUSH1 0xA0 SHL SUB AND PUSH4 0x2C816124 PUSH1 0x40 MLOAD DUP2 PUSH4 0xFFFFFFFF AND PUSH1 0xE0 SHL DUP2 MSTORE PUSH1 0x4 ADD PUSH1 0x20 PUSH1 0x40 MLOAD DUP1 DUP4 SUB DUP2 DUP7 DUP1 EXTCODESIZE ISZERO DUP1 ISZERO PUSH2 0xD50 JUMPI PUSH1 0x0 DUP1 REVERT JUMPDEST POP GAS STATICCALL ISZERO DUP1 ISZERO PUSH2 0xD64 JUMPI RETURNDATASIZE PUSH1 0x0 DUP1 RETURNDATACOPY RETURNDATASIZE PUSH1 0x0 REVERT JUMPDEST POP POP POP POP PUSH1 0x40 MLOAD RETURNDATASIZE PUSH1 0x1F NOT PUSH1 0x1F DUP3 ADD AND DUP3 ADD DUP1 PUSH1 0x40 MSTORE POP DUP2 ADD SWAP1 PUSH2 0xD88 SWAP2 SWAP1 PUSH2 0x499C JUMP JUMPDEST PUSH1 0x1 PUSH1 0x1 PUSH1 0xA0 SHL SUB AND DUP2 MSTORE PUSH1 0x20 DUP1 DUP3 ADD SWAP3 SWAP1 SWAP3 MSTORE PUSH1 0x40 SWAP1 DUP2 ADD PUSH1 0x0 KECCAK256 SLOAD DUP2 MLOAD DUP1 DUP4 ADD SWAP1 SWAP3 MSTORE PUSH1 0x14 DUP3 MSTORE PUSH20 0x11D85D59D948191BD95CC81B9BDD08195E1A5CDD PUSH1 0x62 SHL SWAP3 DUP3 ADD SWAP3 SWAP1 SWAP3 MSTORE SWAP1 PUSH1 0xFF AND PUSH2 0xDF1 JUMPI PUSH1 0x40 MLOAD PUSH3 0x461BCD PUSH1 0xE5 SHL DUP2 MSTORE PUSH1 0x4 ADD PUSH2 0x793 SWAP2 SWAP1 PUSH2 0x47FB JUMP JUMPDEST POP PUSH2 0xDFB DUP7 PUSH2 0x3B92 JUMP JUMPDEST PUSH1 0x0 PUSH2 0xE06 DUP3 PUSH2 0x3C87 JUMP JUMPDEST SWAP1 POP PUSH2 0xE12 DUP2 DUP8 PUSH2 0x3A2B JUMP JUMPDEST POP PUSH1 0x1 SWAP8 SWAP7 POP POP POP POP POP POP POP JUMP JUMPDEST PUSH1 0x5 SLOAD PUSH1 0x0 SWAP1 PUSH1 0x1 PUSH1 0x1 PUSH1 0xA0 SHL SUB AND ISZERO DUP1 PUSH2 0xE3B JUMPI POP PUSH1 0x7 SLOAD ISZERO JUMPDEST ISZERO PUSH2 0xE48 JUMPI POP PUSH1 0x0 SWAP2 SWAP1 POP JUMP JUMPDEST PUSH1 0x0 PUSH2 0xE53 DUP4 PUSH2 0x3C87 JUMP JUMPDEST SWAP1 POP PUSH1 0x0 PUSH1 0x5 PUSH1 0x0 SWAP1 SLOAD SWAP1 PUSH2 0x100 EXP SWAP1 DIV PUSH1 0x1 PUSH1 0x1 PUSH1 0xA0 SHL SUB AND PUSH1 0x1 PUSH1 0x1 PUSH1 0xA0 SHL SUB AND PUSH4 0x88258D31 PUSH1 0x40 MLOAD DUP2 PUSH4 0xFFFFFFFF AND PUSH1 0xE0 SHL DUP2 MSTORE PUSH1 0x4 ADD PUSH1 0x20 PUSH1 0x40 MLOAD DUP1 DUP4 SUB DUP2 DUP7 DUP1 EXTCODESIZE ISZERO DUP1 ISZERO PUSH2 0xEA5 JUMPI PUSH1 0x0 DUP1 REVERT JUMPDEST POP GAS STATICCALL ISZERO DUP1 ISZERO PUSH2 0xEB9 JUMPI RETURNDATASIZE PUSH1 0x0 DUP1 RETURNDATACOPY RETURNDATASIZE PUSH1 0x0 REVERT JUMPDEST POP POP POP POP PUSH1 0x40 MLOAD RETURNDATASIZE PUSH1 0x1F NOT PUSH1 0x1F DUP3 ADD AND DUP3 ADD DUP1 PUSH1 0x40 MSTORE POP DUP2 ADD SWAP1 PUSH2 0xEDD SWAP2 SWAP1 PUSH2 0x49B9 JUMP JUMPDEST PUSH1 0x7 SLOAD PUSH1 0x0 DUP5 DUP2 MSTORE PUSH1 0x3 PUSH1 0x20 MSTORE PUSH1 0x40 DUP2 KECCAK256 SLOAD SWAP3 SWAP4 POP SWAP2 PUSH2 0xEFE SWAP1 DUP5 SWAP1 PUSH2 0x49D2 JUMP JUMPDEST PUSH2 0xF08 SWAP2 SWAP1 PUSH2 0x49F1 JUMP JUMPDEST SWAP6 SWAP5 POP POP POP POP POP JUMP JUMPDEST PUSH1 0x0 PUSH10 0x676F7665726E616E6365 PUSH1 0xB0 SHL PUSH17 0x34B7333630BA34B7B72FB6B0B730B3B2B9 PUSH1 0x79 SHL PUSH2 0xF3E PUSH2 0x38B3 JUMP JUMPDEST PUSH1 0x1 PUSH1 0x1 PUSH1 0xA0 SHL SUB AND PUSH4 0xD756A422 DUP4 DUP4 CALLER PUSH1 0x40 MLOAD DUP5 PUSH4 0xFFFFFFFF AND PUSH1 0xE0 SHL DUP2 MSTORE PUSH1 0x4 ADD PUSH2 0xF6D SWAP4 SWAP3 SWAP2 SWAP1 PUSH2 0x497D JUMP JUMPDEST PUSH1 0x20 PUSH1 0x40 MLOAD DUP1 DUP4 SUB DUP2 DUP7 DUP1 EXTCODESIZE ISZERO DUP1 ISZERO PUSH2 0xF85 JUMPI PUSH1 0x0 DUP1 REVERT JUMPDEST POP GAS STATICCALL ISZERO DUP1 ISZERO PUSH2 0xF99 JUMPI RETURNDATASIZE PUSH1 0x0 DUP1 RETURNDATACOPY RETURNDATASIZE PUSH1 0x0 REVERT JUMPDEST POP POP POP POP PUSH1 0x40 MLOAD RETURNDATASIZE PUSH1 0x1F NOT PUSH1 0x1F DUP3 ADD AND DUP3 ADD DUP1 PUSH1 0x40 MSTORE POP DUP2 ADD SWAP1 PUSH2 0xFBD SWAP2 SWAP1 PUSH2 0x47D9 JUMP JUMPDEST PUSH1 0x40 MLOAD DUP1 PUSH1 0x40 ADD PUSH1 0x40 MSTORE DUP1 PUSH1 0x13 DUP2 MSTORE PUSH1 0x20 ADD PUSH1 0x0 DUP1 MLOAD PUSH1 0x20 PUSH2 0x4A79 DUP4 CODECOPY DUP2 MLOAD SWAP2 MSTORE DUP2 MSTORE POP SWAP1 PUSH2 0xFFF JUMPI PUSH1 0x40 MLOAD PUSH3 0x461BCD PUSH1 0xE5 SHL DUP2 MSTORE PUSH1 0x4 ADD PUSH2 0x793 SWAP2 SWAP1 PUSH2 0x47FB JUMP JUMPDEST POP DUP6 DUP5 DUP2 EQ PUSH2 0x1050 JUMPI PUSH1 0x40 MLOAD PUSH3 0x461BCD PUSH1 0xE5 SHL DUP2 MSTORE PUSH1 0x20 PUSH1 0x4 DUP3 ADD MSTORE PUSH1 0x1B PUSH1 0x24 DUP3 ADD MSTORE PUSH32 0x496E76616C6964206C656E677468206F6620617267756D656E74730000000000 PUSH1 0x44 DUP3 ADD MSTORE PUSH1 0x64 ADD PUSH2 0x793 JUMP JUMPDEST PUSH1 0x0 DUP1 JUMPDEST DUP3 DUP2 LT ISZERO PUSH2 0x126E JUMPI PUSH1 0x0 PUSH32 0x0 PUSH1 0x1 PUSH1 0x1 PUSH1 0xA0 SHL SUB AND PUSH4 0x59EADEB0 DUP13 DUP13 DUP6 DUP2 DUP2 LT PUSH2 0x109F JUMPI PUSH2 0x109F PUSH2 0x4936 JUMP JUMPDEST SWAP1 POP PUSH1 0x20 MUL ADD PUSH1 0x20 DUP2 ADD SWAP1 PUSH2 0x10B4 SWAP2 SWAP1 PUSH2 0x4643 JUMP JUMPDEST PUSH1 0x40 MLOAD PUSH1 0x1 PUSH1 0x1 PUSH1 0xE0 SHL SUB NOT PUSH1 0xE0 DUP5 SWAP1 SHL AND DUP2 MSTORE PUSH1 0x1 PUSH1 0x1 PUSH1 0xA0 SHL SUB SWAP1 SWAP2 AND PUSH1 0x4 DUP3 ADD MSTORE PUSH1 0x24 ADD PUSH1 0x20 PUSH1 0x40 MLOAD DUP1 DUP4 SUB DUP2 DUP7 DUP1 EXTCODESIZE ISZERO DUP1 ISZERO PUSH2 0x10F3 JUMPI PUSH1 0x0 DUP1 REVERT JUMPDEST POP GAS STATICCALL ISZERO DUP1 ISZERO PUSH2 0x1107 JUMPI RETURNDATASIZE PUSH1 0x0 DUP1 RETURNDATACOPY RETURNDATASIZE PUSH1 0x0 REVERT JUMPDEST POP POP POP POP PUSH1 0x40 MLOAD RETURNDATASIZE PUSH1 0x1F NOT PUSH1 0x1F DUP3 ADD AND DUP3 ADD DUP1 PUSH1 0x40 MSTORE POP DUP2 ADD SWAP1 PUSH2 0x112B SWAP2 SWAP1 PUSH2 0x499C JUMP JUMPDEST SWAP1 POP PUSH1 0x0 PUSH1 0x1 PUSH1 0x1 PUSH1 0xA0 SHL SUB AND DUP2 PUSH1 0x1 PUSH1 0x1 PUSH1 0xA0 SHL SUB AND PUSH4 0x2C816124 PUSH1 0x40 MLOAD DUP2 PUSH4 0xFFFFFFFF AND PUSH1 0xE0 SHL DUP2 MSTORE PUSH1 0x4 ADD PUSH1 0x20 PUSH1 0x40 MLOAD DUP1 DUP4 SUB DUP2 DUP7 DUP1 EXTCODESIZE ISZERO DUP1 ISZERO PUSH2 0x1171 JUMPI PUSH1 0x0 DUP1 REVERT JUMPDEST POP GAS STATICCALL ISZERO DUP1 ISZERO PUSH2 0x1185 JUMPI RETURNDATASIZE PUSH1 0x0 DUP1 RETURNDATACOPY RETURNDATASIZE PUSH1 0x0 REVERT JUMPDEST POP POP POP POP PUSH1 0x40 MLOAD RETURNDATASIZE PUSH1 0x1F NOT PUSH1 0x1F DUP3 ADD AND DUP3 ADD DUP1 PUSH1 0x40 MSTORE POP DUP2 ADD SWAP1 PUSH2 0x11A9 SWAP2 SWAP1 PUSH2 0x499C JUMP JUMPDEST PUSH1 0x1 PUSH1 0x1 PUSH1 0xA0 SHL SUB AND EQ ISZERO PUSH1 0x40 MLOAD DUP1 PUSH1 0x40 ADD PUSH1 0x40 MSTORE DUP1 PUSH1 0x11 DUP2 MSTORE PUSH1 0x20 ADD PUSH17 0x1859191C995CDCC81B9BDD08199BDD5B99 PUSH1 0x7A SHL DUP2 MSTORE POP SWAP1 PUSH2 0x11FC JUMPI PUSH1 0x40 MLOAD PUSH3 0x461BCD PUSH1 0xE5 SHL DUP2 MSTORE PUSH1 0x4 ADD PUSH2 0x793 SWAP2 SWAP1 PUSH2 0x47FB JUMP JUMPDEST POP PUSH2 0x122C DUP12 DUP12 DUP5 DUP2 DUP2 LT PUSH2 0x1212 JUMPI PUSH2 0x1212 PUSH2 0x4936 JUMP JUMPDEST SWAP1 POP PUSH1 0x20 MUL ADD PUSH1 0x20 DUP2 ADD SWAP1 PUSH2 0x1227 SWAP2 SWAP1 PUSH2 0x4643 JUMP JUMPDEST PUSH2 0x3B92 JUMP JUMPDEST PUSH2 0x1235 DUP2 PUSH2 0x3C87 JUMP JUMPDEST SWAP3 POP PUSH2 0x1259 DUP4 DUP11 DUP11 DUP6 DUP2 DUP2 LT PUSH2 0x124D JUMPI PUSH2 0x124D PUSH2 0x4936 JUMP JUMPDEST SWAP1 POP PUSH1 0x20 MUL ADD CALLDATALOAD PUSH2 0x3A2B JUMP JUMPDEST POP POP DUP1 DUP1 PUSH2 0x1266 SWAP1 PUSH2 0x4962 JUMP JUMPDEST SWAP2 POP POP PUSH2 0x1054 JUMP JUMPDEST POP PUSH1 0x1 SWAP10 SWAP9 POP POP POP POP POP POP POP POP POP JUMP JUMPDEST PUSH1 0x5 SLOAD PUSH1 0x0 SWAP1 PUSH1 0x1 PUSH1 0x1 PUSH1 0xA0 SHL SUB AND ISZERO DUP1 PUSH2 0x1299 JUMPI POP PUSH1 0x8 SLOAD ISZERO JUMPDEST ISZERO PUSH2 0x12A6 JUMPI POP PUSH1 0x0 SWAP2 SWAP1 POP JUMP JUMPDEST PUSH1 0x0 PUSH2 0x12B1 DUP4 PUSH2 0x39ED JUMP JUMPDEST SWAP1 POP PUSH1 0x0 PUSH1 0x5 PUSH1 0x0 SWAP1 SLOAD SWAP1 PUSH2 0x100 EXP SWAP1 DIV PUSH1 0x1 PUSH1 0x1 PUSH1 0xA0 SHL SUB AND PUSH1 0x1 PUSH1 0x1 PUSH1 0xA0 SHL SUB AND PUSH4 0x877F1692 PUSH1 0x40 MLOAD DUP2 PUSH4 0xFFFFFFFF AND PUSH1 0xE0 SHL DUP2 MSTORE PUSH1 0x4 ADD PUSH1 0x20 PUSH1 0x40 MLOAD DUP1 DUP4 SUB DUP2 DUP7 DUP1 EXTCODESIZE ISZERO DUP1 ISZERO PUSH2 0x1303 JUMPI PUSH1 0x0 DUP1 REVERT JUMPDEST POP GAS STATICCALL ISZERO DUP1 ISZERO PUSH2 0x1317 JUMPI RETURNDATASIZE PUSH1 0x0 DUP1 RETURNDATACOPY RETURNDATASIZE PUSH1 0x0 REVERT JUMPDEST POP POP POP POP PUSH1 0x40 MLOAD RETURNDATASIZE PUSH1 0x1F NOT PUSH1 0x1F DUP3 ADD AND DUP3 ADD DUP1 PUSH1 0x40 MSTORE POP DUP2 ADD SWAP1 PUSH2 0x133B SWAP2 SWAP1 PUSH2 0x49B9 JUMP JUMPDEST PUSH1 0x8 SLOAD PUSH1 0x0 DUP5 DUP2 MSTORE PUSH1 0x3 PUSH1 0x20 MSTORE PUSH1 0x40 DUP2 KECCAK256 SLOAD SWAP3 SWAP4 POP SWAP2 PUSH2 0xEFE SWAP1 DUP5 SWAP1 PUSH2 0x49D2 JUMP JUMPDEST PUSH1 0x0 DUP1 PUSH2 0x1368 DUP4 PUSH2 0x39ED JUMP JUMPDEST PUSH1 0x0 SWAP1 DUP2 MSTORE PUSH1 0x3 PUSH1 0x20 MSTORE PUSH1 0x40 SWAP1 KECCAK256 SLOAD SWAP4 SWAP3 POP POP POP JUMP JUMPDEST PUSH1 0x40 MLOAD PUSH4 0x5B80B5FB PUSH1 0xE1 SHL DUP2 MSTORE CALLER PUSH1 0x4 DUP3 ADD DUP2 SWAP1 MSTORE PUSH1 0x1 PUSH1 0x1 PUSH1 0xA0 SHL SUB DUP4 DUP2 AND PUSH1 0x24 DUP5 ADD MSTORE PUSH1 0x0 SWAP3 PUSH32 0x0 SWAP1 SWAP2 AND SWAP1 PUSH4 0xB7016BF6 SWAP1 PUSH1 0x44 ADD PUSH1 0x20 PUSH1 0x40 MLOAD DUP1 DUP4 SUB DUP2 DUP7 DUP1 EXTCODESIZE ISZERO DUP1 ISZERO PUSH2 0x13EC JUMPI PUSH1 0x0 DUP1 REVERT JUMPDEST POP GAS STATICCALL ISZERO DUP1 ISZERO PUSH2 0x1400 JUMPI RETURNDATASIZE PUSH1 0x0 DUP1 RETURNDATACOPY RETURNDATASIZE PUSH1 0x0 REVERT JUMPDEST POP POP POP POP PUSH1 0x40 MLOAD RETURNDATASIZE PUSH1 0x1F NOT PUSH1 0x1F DUP3 ADD AND DUP3 ADD DUP1 PUSH1 0x40 MSTORE POP DUP2 ADD SWAP1 PUSH2 0x1424 SWAP2 SWAP1 PUSH2 0x47D9 JUMP JUMPDEST PUSH1 0x40 MLOAD DUP1 PUSH1 0x40 ADD PUSH1 0x40 MSTORE DUP1 PUSH1 0x13 DUP2 MSTORE PUSH1 0x20 ADD PUSH1 0x0 DUP1 MLOAD PUSH1 0x20 PUSH2 0x4A79 DUP4 CODECOPY DUP2 MLOAD SWAP2 MSTORE DUP2 MSTORE POP SWAP1 PUSH2 0x1466 JUMPI PUSH1 0x40 MLOAD PUSH3 0x461BCD PUSH1 0xE5 SHL DUP2 MSTORE PUSH1 0x4 ADD PUSH2 0x793 SWAP2 SWAP1 PUSH2 0x47FB JUMP JUMPDEST POP PUSH1 0x0 DUP2 PUSH1 0x1 PUSH1 0x1 PUSH1 0xA0 SHL SUB AND PUSH4 0x2C816124 PUSH1 0x40 MLOAD DUP2 PUSH4 0xFFFFFFFF AND PUSH1 0xE0 SHL DUP2 MSTORE PUSH1 0x4 ADD PUSH1 0x20 PUSH1 0x40 MLOAD DUP1 DUP4 SUB DUP2 DUP7 DUP1 EXTCODESIZE ISZERO DUP1 ISZERO PUSH2 0x14A2 JUMPI PUSH1 0x0 DUP1 REVERT JUMPDEST POP GAS STATICCALL ISZERO DUP1 ISZERO PUSH2 0x14B6 JUMPI RETURNDATASIZE PUSH1 0x0 DUP1 RETURNDATACOPY RETURNDATASIZE PUSH1 0x0 REVERT JUMPDEST POP POP POP POP PUSH1 0x40 MLOAD RETURNDATASIZE PUSH1 0x1F NOT PUSH1 0x1F DUP3 ADD AND DUP3 ADD DUP1 PUSH1 0x40 MSTORE POP DUP2 ADD SWAP1 PUSH2 0x14DA SWAP2 SWAP1 PUSH2 0x499C JUMP JUMPDEST PUSH1 0x40 DUP1 MLOAD DUP1 DUP3 ADD SWAP1 SWAP2 MSTORE PUSH1 0x14 DUP2 MSTORE PUSH20 0x11D85D59D948191BD95CC81B9BDD08195E1A5CDD PUSH1 0x62 SHL PUSH1 0x20 DUP3 ADD MSTORE SWAP1 SWAP2 POP PUSH1 0x1 PUSH1 0x1 PUSH1 0xA0 SHL SUB DUP3 AND PUSH2 0x152F JUMPI PUSH1 0x40 MLOAD PUSH3 0x461BCD PUSH1 0xE5 SHL DUP2 MSTORE PUSH1 0x4 ADD PUSH2 0x793 SWAP2 SWAP1 PUSH2 0x47FB JUMP JUMPDEST POP PUSH1 0x1 PUSH1 0x1 PUSH1 0xA0 SHL SUB AND PUSH1 0x0 SWAP1 DUP2 MSTORE PUSH1 0xF PUSH1 0x20 MSTORE PUSH1 0x40 SWAP1 KECCAK256 DUP1 SLOAD PUSH1 0xFF NOT AND PUSH1 0x1 SWAP1 DUP2 OR SWAP1 SWAP2 SSTORE SWAP4 SWAP3 POP POP POP JUMP JUMPDEST PUSH1 0x0 PUSH2 0x1566 PUSH2 0x38B3 JUMP JUMPDEST PUSH1 0x40 MLOAD PUSH4 0x24745215 PUSH1 0xE2 SHL DUP2 MSTORE PUSH10 0x676F7665726E616E6365 PUSH1 0xB0 SHL PUSH1 0x4 DUP3 ADD MSTORE CALLER PUSH1 0x24 DUP3 ADD MSTORE PUSH1 0x1 PUSH1 0x1 PUSH1 0xA0 SHL SUB SWAP2 SWAP1 SWAP2 AND SWAP1 PUSH4 0x91D14854 SWAP1 PUSH1 0x44 ADD PUSH1 0x20 PUSH1 0x40 MLOAD DUP1 DUP4 SUB DUP2 DUP7 DUP1 EXTCODESIZE ISZERO DUP1 ISZERO PUSH2 0x15BA JUMPI PUSH1 0x0 DUP1 REVERT JUMPDEST POP GAS STATICCALL ISZERO DUP1 ISZERO PUSH2 0x15CE JUMPI RETURNDATASIZE PUSH1 0x0 DUP1 RETURNDATACOPY RETURNDATASIZE PUSH1 0x0 REVERT JUMPDEST POP POP POP POP PUSH1 0x40 MLOAD RETURNDATASIZE PUSH1 0x1F NOT PUSH1 0x1F DUP3 ADD AND DUP3 ADD DUP1 PUSH1 0x40 MSTORE POP DUP2 ADD SWAP1 PUSH2 0x15F2 SWAP2 SWAP1 PUSH2 0x47D9 JUMP JUMPDEST PUSH1 0x40 MLOAD DUP1 PUSH1 0x40 ADD PUSH1 0x40 MSTORE DUP1 PUSH1 0x13 DUP2 MSTORE PUSH1 0x20 ADD PUSH1 0x0 DUP1 MLOAD PUSH1 0x20 PUSH2 0x4A79 DUP4 CODECOPY DUP2 MLOAD SWAP2 MSTORE DUP2 MSTORE POP SWAP1 PUSH2 0x1634 JUMPI PUSH1 0x40 MLOAD PUSH3 0x461BCD PUSH1 0xE5 SHL DUP2 MSTORE PUSH1 0x4 ADD PUSH2 0x793 SWAP2 SWAP1 PUSH2 0x47FB JUMP JUMPDEST POP PUSH1 0x0 DUP3 PUSH1 0x1 PUSH1 0x1 PUSH1 0xA0 SHL SUB AND PUSH4 0x8D928AF8 PUSH1 0x40 MLOAD DUP2 PUSH4 0xFFFFFFFF AND PUSH1 0xE0 SHL DUP2 MSTORE PUSH1 0x4 ADD PUSH1 0x20 PUSH1 0x40 MLOAD DUP1 DUP4 SUB DUP2 DUP7 DUP1 EXTCODESIZE ISZERO DUP1 ISZERO PUSH2 0x1670 JUMPI PUSH1 0x0 DUP1 REVERT JUMPDEST POP GAS STATICCALL ISZERO DUP1 ISZERO PUSH2 0x1684 JUMPI RETURNDATASIZE PUSH1 0x0 DUP1 RETURNDATACOPY RETURNDATASIZE PUSH1 0x0 REVERT JUMPDEST POP POP POP POP PUSH1 0x40 MLOAD RETURNDATASIZE PUSH1 0x1F NOT PUSH1 0x1F DUP3 ADD AND DUP3 ADD DUP1 PUSH1 0x40 MSTORE POP DUP2 ADD SWAP1 PUSH2 0x16A8 SWAP2 SWAP1 PUSH2 0x499C JUMP JUMPDEST SWAP1 POP DUP4 PUSH1 0x1 PUSH1 0x1 PUSH1 0xA0 SHL SUB AND PUSH4 0x223E5479 DUP3 PUSH1 0x1 PUSH1 0x1 PUSH1 0xA0 SHL SUB AND PUSH4 0x7DA0603 PUSH1 0x40 MLOAD DUP2 PUSH4 0xFFFFFFFF AND PUSH1 0xE0 SHL DUP2 MSTORE PUSH1 0x4 ADD PUSH1 0x20 PUSH1 0x40 MLOAD DUP1 DUP4 SUB DUP2 DUP7 DUP1 EXTCODESIZE ISZERO DUP1 ISZERO PUSH2 0x16F2 JUMPI PUSH1 0x0 DUP1 REVERT JUMPDEST POP GAS STATICCALL ISZERO DUP1 ISZERO PUSH2 0x1706 JUMPI RETURNDATASIZE PUSH1 0x0 DUP1 RETURNDATACOPY RETURNDATASIZE PUSH1 0x0 REVERT JUMPDEST POP POP POP POP PUSH1 0x40 MLOAD RETURNDATASIZE PUSH1 0x1F NOT PUSH1 0x1F DUP3 ADD AND DUP3 ADD DUP1 PUSH1 0x40 MSTORE POP DUP2 ADD SWAP1 PUSH2 0x172A SWAP2 SWAP1 PUSH2 0x499C JUMP JUMPDEST PUSH1 0x40 MLOAD PUSH1 0x1 PUSH1 0x1 PUSH1 0xE0 SHL SUB NOT PUSH1 0xE0 DUP5 SWAP1 SHL AND DUP2 MSTORE PUSH1 0x1 PUSH1 0x1 PUSH1 0xA0 SHL SUB SWAP1 SWAP2 AND PUSH1 0x4 DUP3 ADD MSTORE PUSH1 0x24 ADD PUSH1 0x20 PUSH1 0x40 MLOAD DUP1 DUP4 SUB DUP2 PUSH1 0x0 DUP8 DUP1 EXTCODESIZE ISZERO DUP1 ISZERO PUSH2 0x176B JUMPI PUSH1 0x0 DUP1 REVERT JUMPDEST POP GAS CALL ISZERO DUP1 ISZERO PUSH2 0x177F JUMPI RETURNDATASIZE PUSH1 0x0 DUP1 RETURNDATACOPY RETURNDATASIZE PUSH1 0x0 REVERT JUMPDEST POP POP POP POP PUSH1 0x40 MLOAD RETURNDATASIZE PUSH1 0x1F NOT PUSH1 0x1F DUP3 ADD AND DUP3 ADD DUP1 PUSH1 0x40 MSTORE POP DUP2 ADD SWAP1 PUSH2 0x17A3 SWAP2 SWAP1 PUSH2 0x47D9 JUMP JUMPDEST POP PUSH1 0x1 SWAP2 POP POP JUMPDEST SWAP3 SWAP2 POP POP JUMP JUMPDEST PUSH1 0x0 PUSH10 0x676F7665726E616E6365 PUSH1 0xB0 SHL PUSH17 0x34B7333630BA34B7B72FB6B0B730B3B2B9 PUSH1 0x79 SHL PUSH2 0x17DD PUSH2 0x38B3 JUMP JUMPDEST PUSH1 0x1 PUSH1 0x1 PUSH1 0xA0 SHL SUB AND PUSH4 0xD756A422 DUP4 DUP4 CALLER PUSH1 0x40 MLOAD DUP5 PUSH4 0xFFFFFFFF AND PUSH1 0xE0 SHL DUP2 MSTORE PUSH1 0x4 ADD PUSH2 0x180C SWAP4 SWAP3 SWAP2 SWAP1 PUSH2 0x497D JUMP JUMPDEST PUSH1 0x20 PUSH1 0x40 MLOAD DUP1 DUP4 SUB DUP2 DUP7 DUP1 EXTCODESIZE ISZERO DUP1 ISZERO PUSH2 0x1824 JUMPI PUSH1 0x0 DUP1 REVERT JUMPDEST POP GAS STATICCALL ISZERO DUP1 ISZERO PUSH2 0x1838 JUMPI RETURNDATASIZE PUSH1 0x0 DUP1 RETURNDATACOPY RETURNDATASIZE PUSH1 0x0 REVERT JUMPDEST POP POP POP POP PUSH1 0x40 MLOAD RETURNDATASIZE PUSH1 0x1F NOT PUSH1 0x1F DUP3 ADD AND DUP3 ADD DUP1 PUSH1 0x40 MSTORE POP DUP2 ADD SWAP1 PUSH2 0x185C SWAP2 SWAP1 PUSH2 0x47D9 JUMP JUMPDEST PUSH1 0x40 MLOAD DUP1 PUSH1 0x40 ADD PUSH1 0x40 MSTORE DUP1 PUSH1 0x13 DUP2 MSTORE PUSH1 0x20 ADD PUSH1 0x0 DUP1 MLOAD PUSH1 0x20 PUSH2 0x4A79 DUP4 CODECOPY DUP2 MLOAD SWAP2 MSTORE DUP2 MSTORE POP SWAP1 PUSH2 0x189E JUMPI PUSH1 0x40 MLOAD PUSH3 0x461BCD PUSH1 0xE5 SHL DUP2 MSTORE PUSH1 0x4 ADD PUSH2 0x793 SWAP2 SWAP1 PUSH2 0x47FB JUMP JUMPDEST POP DUP4 PUSH1 0x0 JUMPDEST DUP2 DUP2 LT ISZERO PUSH2 0xA42 JUMPI PUSH1 0x0 DUP8 DUP8 DUP4 DUP2 DUP2 LT PUSH2 0x18BF JUMPI PUSH2 0x18BF PUSH2 0x4936 JUMP JUMPDEST SWAP1 POP PUSH1 0x20 MUL ADD PUSH1 0x20 DUP2 ADD SWAP1 PUSH2 0x18D4 SWAP2 SWAP1 PUSH2 0x4643 JUMP JUMPDEST PUSH1 0x40 MLOAD PUSH4 0x59EADEB PUSH1 0xE4 SHL DUP2 MSTORE PUSH1 0x1 PUSH1 0x1 PUSH1 0xA0 SHL SUB DUP1 DUP4 AND PUSH1 0x4 DUP4 ADD MSTORE SWAP2 SWAP3 POP PUSH1 0x0 SWAP2 PUSH32 0x0 AND SWAP1 PUSH4 0x59EADEB0 SWAP1 PUSH1 0x24 ADD PUSH1 0x20 PUSH1 0x40 MLOAD DUP1 DUP4 SUB DUP2 DUP7 DUP1 EXTCODESIZE ISZERO DUP1 ISZERO PUSH2 0x193B JUMPI PUSH1 0x0 DUP1 REVERT JUMPDEST POP GAS STATICCALL ISZERO DUP1 ISZERO PUSH2 0x194F JUMPI RETURNDATASIZE PUSH1 0x0 DUP1 RETURNDATACOPY RETURNDATASIZE PUSH1 0x0 REVERT JUMPDEST POP POP POP POP PUSH1 0x40 MLOAD RETURNDATASIZE PUSH1 0x1F NOT PUSH1 0x1F DUP3 ADD AND DUP3 ADD DUP1 PUSH1 0x40 MSTORE POP DUP2 ADD SWAP1 PUSH2 0x1973 SWAP2 SWAP1 PUSH2 0x499C JUMP JUMPDEST SWAP1 POP PUSH1 0x0 PUSH1 0x1 PUSH1 0x1 PUSH1 0xA0 SHL SUB AND DUP2 PUSH1 0x1 PUSH1 0x1 PUSH1 0xA0 SHL SUB AND PUSH4 0x2C816124 PUSH1 0x40 MLOAD DUP2 PUSH4 0xFFFFFFFF AND PUSH1 0xE0 SHL DUP2 MSTORE PUSH1 0x4 ADD PUSH1 0x20 PUSH1 0x40 MLOAD DUP1 DUP4 SUB DUP2 DUP7 DUP1 EXTCODESIZE ISZERO DUP1 ISZERO PUSH2 0x19B9 JUMPI PUSH1 0x0 DUP1 REVERT JUMPDEST POP GAS STATICCALL ISZERO DUP1 ISZERO PUSH2 0x19CD JUMPI RETURNDATASIZE PUSH1 0x0 DUP1 RETURNDATACOPY RETURNDATASIZE PUSH1 0x0 REVERT JUMPDEST POP POP POP POP PUSH1 0x40 MLOAD RETURNDATASIZE PUSH1 0x1F NOT PUSH1 0x1F DUP3 ADD AND DUP3 ADD DUP1 PUSH1 0x40 MSTORE POP DUP2 ADD SWAP1 PUSH2 0x19F1 SWAP2 SWAP1 PUSH2 0x499C JUMP JUMPDEST PUSH1 0x1 PUSH1 0x1 PUSH1 0xA0 SHL SUB AND EQ ISZERO PUSH1 0x40 MLOAD DUP1 PUSH1 0x40 ADD PUSH1 0x40 MSTORE DUP1 PUSH1 0x11 DUP2 MSTORE PUSH1 0x20 ADD PUSH17 0x1859191C995CDCC81B9BDD08199BDD5B99 PUSH1 0x7A SHL DUP2 MSTORE POP SWAP1 PUSH2 0x1A44 JUMPI PUSH1 0x40 MLOAD PUSH3 0x461BCD PUSH1 0xE5 SHL DUP2 MSTORE PUSH1 0x4 ADD PUSH2 0x793 SWAP2 SWAP1 PUSH2 0x47FB JUMP JUMPDEST POP PUSH2 0x1A4E DUP3 PUSH2 0x3B92 JUMP JUMPDEST PUSH1 0x0 PUSH2 0x1A59 DUP3 PUSH2 0x3C87 JUMP JUMPDEST SWAP1 POP PUSH2 0x1A6F DUP2 DUP5 DUP5 PUSH2 0x1A6A CALLER PUSH2 0x2294 JUMP JUMPDEST PUSH2 0x3CA7 JUMP JUMPDEST POP POP POP POP DUP1 DUP1 PUSH2 0x1A7E SWAP1 PUSH2 0x4962 JUMP JUMPDEST SWAP2 POP POP PUSH2 0x18A3 JUMP JUMPDEST PUSH1 0x0 PUSH10 0x676F7665726E616E6365 PUSH1 0xB0 SHL PUSH17 0x34B7333630BA34B7B72FB6B0B730B3B2B9 PUSH1 0x79 SHL PUSH2 0x1AB3 PUSH2 0x38B3 JUMP JUMPDEST PUSH1 0x1 PUSH1 0x1 PUSH1 0xA0 SHL SUB AND PUSH4 0xD756A422 DUP4 DUP4 CALLER PUSH1 0x40 MLOAD DUP5 PUSH4 0xFFFFFFFF AND PUSH1 0xE0 SHL DUP2 MSTORE PUSH1 0x4 ADD PUSH2 0x1AE2 SWAP4 SWAP3 SWAP2 SWAP1 PUSH2 0x497D JUMP JUMPDEST PUSH1 0x20 PUSH1 0x40 MLOAD DUP1 DUP4 SUB DUP2 DUP7 DUP1 EXTCODESIZE ISZERO DUP1 ISZERO PUSH2 0x1AFA JUMPI PUSH1 0x0 DUP1 REVERT JUMPDEST POP GAS STATICCALL ISZERO DUP1 ISZERO PUSH2 0x1B0E JUMPI RETURNDATASIZE PUSH1 0x0 DUP1 RETURNDATACOPY RETURNDATASIZE PUSH1 0x0 REVERT JUMPDEST POP POP POP POP PUSH1 0x40 MLOAD RETURNDATASIZE PUSH1 0x1F NOT PUSH1 0x1F DUP3 ADD AND DUP3 ADD DUP1 PUSH1 0x40 MSTORE POP DUP2 ADD SWAP1 PUSH2 0x1B32 SWAP2 SWAP1 PUSH2 0x47D9 JUMP JUMPDEST PUSH1 0x40 MLOAD DUP1 PUSH1 0x40 ADD PUSH1 0x40 MSTORE DUP1 PUSH1 0x13 DUP2 MSTORE PUSH1 0x20 ADD PUSH1 0x0 DUP1 MLOAD PUSH1 0x20 PUSH2 0x4A79 DUP4 CODECOPY DUP2 MLOAD SWAP2 MSTORE DUP2 MSTORE POP SWAP1 PUSH2 0x1B74 JUMPI PUSH1 0x40 MLOAD PUSH3 0x461BCD PUSH1 0xE5 SHL DUP2 MSTORE PUSH1 0x4 ADD PUSH2 0x793 SWAP2 SWAP1 PUSH2 0x47FB JUMP JUMPDEST POP DUP6 PUSH1 0x0 DUP6 DUP3 EQ PUSH2 0x1BC7 JUMPI PUSH1 0x40 MLOAD PUSH3 0x461BCD PUSH1 0xE5 SHL DUP2 MSTORE PUSH1 0x20 PUSH1 0x4 DUP3 ADD MSTORE PUSH1 0x1B PUSH1 0x24 DUP3 ADD MSTORE PUSH32 0x496E76616C6964206C656E677468206F6620617267756D656E74730000000000 PUSH1 0x44 DUP3 ADD MSTORE PUSH1 0x64 ADD PUSH2 0x793 JUMP JUMPDEST PUSH1 0x0 JUMPDEST DUP3 DUP2 LT ISZERO PUSH2 0x126E JUMPI PUSH2 0x1C04 DUP11 DUP11 DUP4 DUP2 DUP2 LT PUSH2 0x1BE7 JUMPI PUSH2 0x1BE7 PUSH2 0x4936 JUMP JUMPDEST SWAP1 POP PUSH1 0x20 MUL ADD PUSH1 0x20 DUP2 ADD SWAP1 PUSH2 0x1BFC SWAP2 SWAP1 PUSH2 0x4643 JUMP JUMPDEST PUSH1 0xC SWAP1 PUSH2 0x39D1 JUMP JUMPDEST PUSH2 0x1C46 JUMPI PUSH1 0x40 MLOAD PUSH3 0x461BCD PUSH1 0xE5 SHL DUP2 MSTORE PUSH1 0x20 PUSH1 0x4 DUP3 ADD MSTORE PUSH1 0x13 PUSH1 0x24 DUP3 ADD MSTORE PUSH19 0x185B5B4819D85D59D9481B9BDD08199BDD5B99 PUSH1 0x6A SHL PUSH1 0x44 DUP3 ADD MSTORE PUSH1 0x64 ADD PUSH2 0x793 JUMP JUMPDEST PUSH2 0x1C75 DUP11 DUP11 DUP4 DUP2 DUP2 LT PUSH2 0x1C5B JUMPI PUSH2 0x1C5B PUSH2 0x4936 JUMP JUMPDEST SWAP1 POP PUSH1 0x20 MUL ADD PUSH1 0x20 DUP2 ADD SWAP1 PUSH2 0x1C70 SWAP2 SWAP1 PUSH2 0x4643 JUMP JUMPDEST PUSH2 0x39ED JUMP JUMPDEST SWAP2 POP PUSH2 0x1C8D DUP3 DUP10 DUP10 DUP5 DUP2 DUP2 LT PUSH2 0x124D JUMPI PUSH2 0x124D PUSH2 0x4936 JUMP JUMPDEST POP DUP1 PUSH2 0x1C98 DUP2 PUSH2 0x4962 JUMP JUMPDEST SWAP2 POP POP PUSH2 0x1BCA JUMP JUMPDEST CALLER PUSH1 0x0 SWAP1 DUP2 MSTORE PUSH1 0xF PUSH1 0x20 SWAP1 DUP2 MSTORE PUSH1 0x40 SWAP2 DUP3 SWAP1 KECCAK256 SLOAD DUP3 MLOAD DUP1 DUP5 ADD SWAP1 SWAP4 MSTORE PUSH1 0x13 DUP4 MSTORE PUSH1 0x0 DUP1 MLOAD PUSH1 0x20 PUSH2 0x4A79 DUP4 CODECOPY DUP2 MLOAD SWAP2 MSTORE SWAP2 DUP4 ADD SWAP2 SWAP1 SWAP2 MSTORE PUSH1 0xFF AND PUSH2 0x1CF6 JUMPI PUSH1 0x40 MLOAD PUSH3 0x461BCD PUSH1 0xE5 SHL DUP2 MSTORE PUSH1 0x4 ADD PUSH2 0x793 SWAP2 SWAP1 PUSH2 0x47FB JUMP JUMPDEST POP PUSH1 0x5 SLOAD PUSH1 0x40 MLOAD PUSH4 0x40C10F19 PUSH1 0xE0 SHL DUP2 MSTORE PUSH1 0x1 PUSH1 0x1 PUSH1 0xA0 SHL SUB DUP5 DUP2 AND PUSH1 0x4 DUP4 ADD MSTORE PUSH1 0x24 DUP3 ADD DUP5 SWAP1 MSTORE SWAP1 SWAP2 AND SWAP1 PUSH4 0x40C10F19 SWAP1 PUSH1 0x44 ADD PUSH1 0x20 PUSH1 0x40 MLOAD DUP1 DUP4 SUB DUP2 PUSH1 0x0 DUP8 DUP1 EXTCODESIZE ISZERO DUP1 ISZERO PUSH2 0x1D45 JUMPI PUSH1 0x0 DUP1 REVERT JUMPDEST POP GAS CALL ISZERO DUP1 ISZERO PUSH2 0x1D59 JUMPI RETURNDATASIZE PUSH1 0x0 DUP1 RETURNDATACOPY RETURNDATASIZE PUSH1 0x0 REVERT JUMPDEST POP POP POP POP PUSH1 0x40 MLOAD RETURNDATASIZE PUSH1 0x1F NOT PUSH1 0x1F DUP3 ADD AND DUP3 ADD DUP1 PUSH1 0x40 MSTORE POP DUP2 ADD SWAP1 PUSH2 0x1D7D SWAP2 SWAP1 PUSH2 0x47D9 JUMP JUMPDEST POP POP POP JUMP JUMPDEST PUSH1 0x40 MLOAD PUSH4 0x59EADEB PUSH1 0xE4 SHL DUP2 MSTORE PUSH1 0x1 PUSH1 0x1 PUSH1 0xA0 SHL SUB DUP3 DUP2 AND PUSH1 0x4 DUP4 ADD MSTORE PUSH1 0x0 SWAP2 DUP3 SWAP2 PUSH32 0x0 AND SWAP1 PUSH4 0x59EADEB0 SWAP1 PUSH1 0x24 ADD PUSH1 0x20 PUSH1 0x40 MLOAD DUP1 DUP4 SUB DUP2 DUP7 DUP1 EXTCODESIZE ISZERO DUP1 ISZERO PUSH2 0x1DE8 JUMPI PUSH1 0x0 DUP1 REVERT JUMPDEST POP GAS STATICCALL ISZERO DUP1 ISZERO PUSH2 0x1DFC JUMPI RETURNDATASIZE PUSH1 0x0 DUP1 RETURNDATACOPY RETURNDATASIZE PUSH1 0x0 REVERT JUMPDEST POP POP POP POP PUSH1 0x40 MLOAD RETURNDATASIZE PUSH1 0x1F NOT PUSH1 0x1F DUP3 ADD AND DUP3 ADD DUP1 PUSH1 0x40 MSTORE POP DUP2 ADD SWAP1 PUSH2 0x1E20 SWAP2 SWAP1 PUSH2 0x499C JUMP JUMPDEST SWAP1 POP PUSH1 0x0 PUSH1 0x1 PUSH1 0x1 PUSH1 0xA0 SHL SUB AND DUP2 PUSH1 0x1 PUSH1 0x1 PUSH1 0xA0 SHL SUB AND PUSH4 0x2C816124 PUSH1 0x40 MLOAD DUP2 PUSH4 0xFFFFFFFF AND PUSH1 0xE0 SHL DUP2 MSTORE PUSH1 0x4 ADD PUSH1 0x20 PUSH1 0x40 MLOAD DUP1 DUP4 SUB DUP2 DUP7 DUP1 EXTCODESIZE ISZERO DUP1 ISZERO PUSH2 0x1E66 JUMPI PUSH1 0x0 DUP1 REVERT JUMPDEST POP GAS STATICCALL ISZERO DUP1 ISZERO PUSH2 0x1E7A JUMPI RETURNDATASIZE PUSH1 0x0 DUP1 RETURNDATACOPY RETURNDATASIZE PUSH1 0x0 REVERT JUMPDEST POP POP POP POP PUSH1 0x40 MLOAD RETURNDATASIZE PUSH1 0x1F NOT PUSH1 0x1F DUP3 ADD AND DUP3 ADD DUP1 PUSH1 0x40 MSTORE POP DUP2 ADD SWAP1 PUSH2 0x1E9E SWAP2 SWAP1 PUSH2 0x499C JUMP JUMPDEST PUSH1 0x1 PUSH1 0x1 PUSH1 0xA0 SHL SUB AND EQ ISZERO PUSH1 0x40 MLOAD DUP1 PUSH1 0x40 ADD PUSH1 0x40 MSTORE DUP1 PUSH1 0x11 DUP2 MSTORE PUSH1 0x20 ADD PUSH17 0x1859191C995CDCC81B9BDD08199BDD5B99 PUSH1 0x7A SHL DUP2 MSTORE POP SWAP1 PUSH2 0x1EF1 JUMPI PUSH1 0x40 MLOAD PUSH3 0x461BCD PUSH1 0xE5 SHL DUP2 MSTORE PUSH1 0x4 ADD PUSH2 0x793 SWAP2 SWAP1 PUSH2 0x47FB JUMP JUMPDEST POP PUSH2 0x1EFB DUP4 PUSH2 0x3B92 JUMP JUMPDEST PUSH1 0x0 PUSH2 0x1F06 DUP3 PUSH2 0x3C87 JUMP JUMPDEST SWAP1 POP PUSH2 0x1F17 DUP2 DUP6 DUP5 PUSH2 0x1A6A CALLER PUSH2 0x2294 JUMP JUMPDEST POP PUSH1 0x0 SWAP1 DUP2 MSTORE PUSH1 0x3 PUSH1 0x20 MSTORE PUSH1 0x40 SWAP1 KECCAK256 SLOAD SWAP4 SWAP3 POP POP POP JUMP JUMPDEST PUSH1 0x0 DUP1 PUSH2 0x1368 DUP4 PUSH2 0x3DF5 JUMP JUMPDEST PUSH1 0x0 DUP1 PUSH2 0x1F48 PUSH1 0xC DUP5 PUSH2 0x3E19 JUMP JUMPDEST SWAP5 SWAP4 POP POP POP POP JUMP JUMPDEST PUSH1 0x0 PUSH2 0x1F5A PUSH2 0x38B3 JUMP JUMPDEST PUSH1 0x40 MLOAD PUSH4 0x24745215 PUSH1 0xE2 SHL DUP2 MSTORE PUSH10 0x676F7665726E616E6365 PUSH1 0xB0 SHL PUSH1 0x4 DUP3 ADD MSTORE CALLER PUSH1 0x24 DUP3 ADD MSTORE PUSH1 0x1 PUSH1 0x1 PUSH1 0xA0 SHL SUB SWAP2 SWAP1 SWAP2 AND SWAP1 PUSH4 0x91D14854 SWAP1 PUSH1 0x44 ADD PUSH1 0x20 PUSH1 0x40 MLOAD DUP1 DUP4 SUB DUP2 DUP7 DUP1 EXTCODESIZE ISZERO DUP1 ISZERO PUSH2 0x1FAE JUMPI PUSH1 0x0 DUP1 REVERT JUMPDEST POP GAS STATICCALL ISZERO DUP1 ISZERO PUSH2 0x1FC2 JUMPI RETURNDATASIZE PUSH1 0x0 DUP1 RETURNDATACOPY RETURNDATASIZE PUSH1 0x0 REVERT JUMPDEST POP POP POP POP PUSH1 0x40 MLOAD RETURNDATASIZE PUSH1 0x1F NOT PUSH1 0x1F DUP3 ADD AND DUP3 ADD DUP1 PUSH1 0x40 MSTORE POP DUP2 ADD SWAP1 PUSH2 0x1FE6 SWAP2 SWAP1 PUSH2 0x47D9 JUMP JUMPDEST PUSH1 0x40 MLOAD DUP1 PUSH1 0x40 ADD PUSH1 0x40 MSTORE DUP1 PUSH1 0x13 DUP2 MSTORE PUSH1 0x20 ADD PUSH1 0x0 DUP1 MLOAD PUSH1 0x20 PUSH2 0x4A79 DUP4 CODECOPY DUP2 MLOAD SWAP2 MSTORE DUP2 MSTORE POP SWAP1 PUSH2 0x2028 JUMPI PUSH1 0x40 MLOAD PUSH3 0x461BCD PUSH1 0xE5 SHL DUP2 MSTORE PUSH1 0x4 ADD PUSH2 0x793 SWAP2 SWAP1 PUSH2 0x47FB JUMP JUMPDEST POP PUSH1 0x40 MLOAD PUSH4 0xFA3F8F1B PUSH1 0xE0 SHL DUP2 MSTORE PUSH1 0x1 PUSH1 0x1 PUSH1 0xA0 SHL SUB DUP5 DUP2 AND PUSH1 0x4 DUP4 ADD MSTORE DUP4 AND SWAP1 PUSH4 0xFA3F8F1B SWAP1 PUSH1 0x24 ADD PUSH1 0x20 PUSH1 0x40 MLOAD DUP1 DUP4 SUB DUP2 DUP7 DUP1 EXTCODESIZE ISZERO DUP1 ISZERO PUSH2 0x206A JUMPI PUSH1 0x0 DUP1 REVERT JUMPDEST POP GAS STATICCALL ISZERO DUP1 ISZERO PUSH2 0x207E JUMPI RETURNDATASIZE PUSH1 0x0 DUP1 RETURNDATACOPY RETURNDATASIZE PUSH1 0x0 REVERT JUMPDEST POP POP POP POP PUSH1 0x40 MLOAD RETURNDATASIZE PUSH1 0x1F NOT PUSH1 0x1F DUP3 ADD AND DUP3 ADD DUP1 PUSH1 0x40 MSTORE POP DUP2 ADD SWAP1 PUSH2 0x20A2 SWAP2 SWAP1 PUSH2 0x47D9 JUMP JUMPDEST PUSH1 0x40 MLOAD DUP1 PUSH1 0x40 ADD PUSH1 0x40 MSTORE DUP1 PUSH1 0x17 DUP2 MSTORE PUSH1 0x20 ADD PUSH32 0x61646472657373206E6F742077686974656C6973746564000000000000000000 DUP2 MSTORE POP SWAP1 PUSH2 0x20F6 JUMPI PUSH1 0x40 MLOAD PUSH3 0x461BCD PUSH1 0xE5 SHL DUP2 MSTORE PUSH1 0x4 ADD PUSH2 0x793 SWAP2 SWAP1 PUSH2 0x47FB JUMP JUMPDEST POP PUSH1 0x0 PUSH2 0x2103 PUSH1 0xC PUSH2 0x3E40 JUMP JUMPDEST SWAP1 POP PUSH1 0x0 JUMPDEST DUP2 DUP2 LT ISZERO PUSH2 0x2151 JUMPI PUSH1 0x1 PUSH1 0x1 PUSH1 0xA0 SHL SUB DUP5 AND PUSH2 0x2125 PUSH1 0xC DUP4 PUSH2 0x3E4B JUMP JUMPDEST PUSH1 0x1 PUSH1 0x1 PUSH1 0xA0 SHL SUB AND EQ ISZERO PUSH2 0x213F JUMPI PUSH1 0x0 SWAP3 POP POP POP PUSH2 0x17AA JUMP JUMPDEST DUP1 PUSH2 0x2149 DUP2 PUSH2 0x4962 JUMP JUMPDEST SWAP2 POP POP PUSH2 0x2108 JUMP JUMPDEST POP PUSH2 0x215D PUSH1 0xC DUP6 PUSH2 0x39D1 JUMP JUMPDEST ISZERO PUSH2 0x225B JUMPI PUSH1 0x0 PUSH2 0x216F PUSH1 0xC DUP7 PUSH2 0x3E58 JUMP JUMPDEST SWAP1 POP DUP1 PUSH1 0x1 PUSH1 0x1 PUSH1 0xA0 SHL SUB AND PUSH4 0x5790A0C8 PUSH1 0x40 MLOAD DUP2 PUSH4 0xFFFFFFFF AND PUSH1 0xE0 SHL DUP2 MSTORE PUSH1 0x4 ADD PUSH1 0x20 PUSH1 0x40 MLOAD DUP1 DUP4 SUB DUP2 PUSH1 0x0 DUP8 DUP1 EXTCODESIZE ISZERO DUP1 ISZERO PUSH2 0x21AC JUMPI PUSH1 0x0 DUP1 REVERT JUMPDEST POP GAS CALL ISZERO DUP1 ISZERO PUSH2 0x21C0 JUMPI RETURNDATASIZE PUSH1 0x0 DUP1 RETURNDATACOPY RETURNDATASIZE PUSH1 0x0 REVERT JUMPDEST POP POP POP POP PUSH1 0x40 MLOAD RETURNDATASIZE PUSH1 0x1F NOT PUSH1 0x1F DUP3 ADD AND DUP3 ADD DUP1 PUSH1 0x40 MSTORE POP DUP2 ADD SWAP1 PUSH2 0x21E4 SWAP2 SWAP1 PUSH2 0x47D9 JUMP JUMPDEST POP DUP1 PUSH1 0x1 PUSH1 0x1 PUSH1 0xA0 SHL SUB AND PUSH4 0x41C0E1B5 PUSH1 0x40 MLOAD DUP2 PUSH4 0xFFFFFFFF AND PUSH1 0xE0 SHL DUP2 MSTORE PUSH1 0x4 ADD PUSH1 0x20 PUSH1 0x40 MLOAD DUP1 DUP4 SUB DUP2 PUSH1 0x0 DUP8 DUP1 EXTCODESIZE ISZERO DUP1 ISZERO PUSH2 0x2220 JUMPI PUSH1 0x0 DUP1 REVERT JUMPDEST POP GAS CALL ISZERO DUP1 ISZERO PUSH2 0x2234 JUMPI RETURNDATASIZE PUSH1 0x0 DUP1 RETURNDATACOPY RETURNDATASIZE PUSH1 0x0 REVERT JUMPDEST POP POP POP POP PUSH1 0x40 MLOAD RETURNDATASIZE PUSH1 0x1F NOT PUSH1 0x1F DUP3 ADD AND DUP3 ADD DUP1 PUSH1 0x40 MSTORE POP DUP2 ADD SWAP1 PUSH2 0x2258 SWAP2 SWAP1 PUSH2 0x47D9 JUMP JUMPDEST POP POP JUMPDEST PUSH2 0x2267 PUSH1 0xC DUP6 DUP6 PUSH2 0x3E6D JUMP JUMPDEST POP POP POP PUSH1 0x1 PUSH1 0x1 PUSH1 0xA0 SHL SUB AND PUSH1 0x0 SWAP1 DUP2 MSTORE PUSH1 0xF PUSH1 0x20 MSTORE PUSH1 0x40 SWAP1 KECCAK256 DUP1 SLOAD PUSH1 0xFF NOT AND PUSH1 0x1 SWAP1 DUP2 OR SWAP1 SWAP2 SSTORE SWAP2 SWAP1 POP JUMP JUMPDEST PUSH1 0x0 PUSH2 0x229E PUSH2 0x38B3 JUMP JUMPDEST PUSH1 0x40 MLOAD PUSH4 0x24745215 PUSH1 0xE2 SHL DUP2 MSTORE PUSH17 0x34B7333630BA34B7B72FB6B0B730B3B2B9 PUSH1 0x79 SHL PUSH1 0x4 DUP3 ADD MSTORE PUSH1 0x1 PUSH1 0x1 PUSH1 0xA0 SHL SUB DUP5 DUP2 AND PUSH1 0x24 DUP4 ADD MSTORE SWAP2 SWAP1 SWAP2 AND SWAP1 PUSH4 0x91D14854 SWAP1 PUSH1 0x44 ADD PUSH1 0x20 PUSH1 0x40 MLOAD DUP1 DUP4 SUB DUP2 DUP7 DUP1 EXTCODESIZE ISZERO DUP1 ISZERO PUSH2 0x22FB JUMPI PUSH1 0x0 DUP1 REVERT JUMPDEST POP GAS STATICCALL ISZERO DUP1 ISZERO PUSH2 0x230F JUMPI RETURNDATASIZE PUSH1 0x0 DUP1 RETURNDATACOPY RETURNDATASIZE PUSH1 0x0 REVERT JUMPDEST POP POP POP POP PUSH1 0x40 MLOAD RETURNDATASIZE PUSH1 0x1F NOT PUSH1 0x1F DUP3 ADD AND DUP3 ADD DUP1 PUSH1 0x40 MSTORE POP DUP2 ADD SWAP1 PUSH2 0x17AA SWAP2 SWAP1 PUSH2 0x47D9 JUMP JUMPDEST PUSH1 0x0 PUSH2 0x233D PUSH2 0x38B3 JUMP JUMPDEST PUSH1 0x40 MLOAD PUSH4 0x24745215 PUSH1 0xE2 SHL DUP2 MSTORE PUSH10 0x676F7665726E616E6365 PUSH1 0xB0 SHL PUSH1 0x4 DUP3 ADD MSTORE CALLER PUSH1 0x24 DUP3 ADD MSTORE PUSH1 0x1 PUSH1 0x1 PUSH1 0xA0 SHL SUB SWAP2 SWAP1 SWAP2 AND SWAP1 PUSH4 0x91D14854 SWAP1 PUSH1 0x44 ADD PUSH1 0x20 PUSH1 0x40 MLOAD DUP1 DUP4 SUB DUP2 DUP7 DUP1 EXTCODESIZE ISZERO DUP1 ISZERO PUSH2 0x2391 JUMPI PUSH1 0x0 DUP1 REVERT JUMPDEST POP GAS STATICCALL ISZERO DUP1 ISZERO PUSH2 0x23A5 JUMPI RETURNDATASIZE PUSH1 0x0 DUP1 RETURNDATACOPY RETURNDATASIZE PUSH1 0x0 REVERT JUMPDEST POP POP POP POP PUSH1 0x40 MLOAD RETURNDATASIZE PUSH1 0x1F NOT PUSH1 0x1F DUP3 ADD AND DUP3 ADD DUP1 PUSH1 0x40 MSTORE POP DUP2 ADD SWAP1 PUSH2 0x23C9 SWAP2 SWAP1 PUSH2 0x47D9 JUMP JUMPDEST PUSH1 0x40 MLOAD DUP1 PUSH1 0x40 ADD PUSH1 0x40 MSTORE DUP1 PUSH1 0x13 DUP2 MSTORE PUSH1 0x20 ADD PUSH1 0x0 DUP1 MLOAD PUSH1 0x20 PUSH2 0x4A79 DUP4 CODECOPY DUP2 MLOAD SWAP2 MSTORE DUP2 MSTORE POP SWAP1 PUSH2 0x240B JUMPI PUSH1 0x40 MLOAD PUSH3 0x461BCD PUSH1 0xE5 SHL DUP2 MSTORE PUSH1 0x4 ADD PUSH2 0x793 SWAP2 SWAP1 PUSH2 0x47FB JUMP JUMPDEST POP PUSH1 0x40 DUP1 MLOAD DUP1 DUP3 ADD SWAP1 SWAP2 MSTORE PUSH1 0x10 DUP2 MSTORE PUSH16 0x1A5B9D985B1A5908185C99DD5B595B9D PUSH1 0x82 SHL PUSH1 0x20 DUP3 ADD MSTORE DUP5 SWAP1 DUP4 DUP3 EQ PUSH2 0x2455 JUMPI PUSH1 0x40 MLOAD PUSH3 0x461BCD PUSH1 0xE5 SHL DUP2 MSTORE PUSH1 0x4 ADD PUSH2 0x793 SWAP2 SWAP1 PUSH2 0x47FB JUMP JUMPDEST POP PUSH1 0x0 DUP1 JUMPDEST DUP3 DUP2 LT ISZERO PUSH2 0xE12 JUMPI PUSH2 0x2494 DUP9 DUP9 DUP4 DUP2 DUP2 LT PUSH2 0x2477 JUMPI PUSH2 0x2477 PUSH2 0x4936 JUMP JUMPDEST SWAP1 POP PUSH1 0x20 MUL ADD PUSH1 0x20 DUP2 ADD SWAP1 PUSH2 0x248C SWAP2 SWAP1 PUSH2 0x4643 JUMP JUMPDEST PUSH1 0x9 SWAP1 PUSH2 0x39D1 JUMP JUMPDEST PUSH1 0x40 MLOAD DUP1 PUSH1 0x40 ADD PUSH1 0x40 MSTORE DUP1 PUSH1 0x10 DUP2 MSTORE PUSH1 0x20 ADD PUSH16 0x1A5B9D985B1A5908185C99DD5B595B9D PUSH1 0x82 SHL DUP2 MSTORE POP SWAP1 PUSH2 0x24DB JUMPI PUSH1 0x40 MLOAD PUSH3 0x461BCD PUSH1 0xE5 SHL DUP2 MSTORE PUSH1 0x4 ADD PUSH2 0x793 SWAP2 SWAP1 PUSH2 0x47FB JUMP JUMPDEST POP PUSH2 0x250B DUP9 DUP9 DUP4 DUP2 DUP2 LT PUSH2 0x24F1 JUMPI PUSH2 0x24F1 PUSH2 0x4936 JUMP JUMPDEST SWAP1 POP PUSH1 0x20 MUL ADD PUSH1 0x20 DUP2 ADD SWAP1 PUSH2 0x2506 SWAP2 SWAP1 PUSH2 0x4643 JUMP JUMPDEST PUSH2 0x3DF5 JUMP JUMPDEST SWAP2 POP PUSH2 0x2523 DUP3 DUP8 DUP8 DUP5 DUP2 DUP2 LT PUSH2 0x124D JUMPI PUSH2 0x124D PUSH2 0x4936 JUMP JUMPDEST POP DUP1 PUSH2 0x252E DUP2 PUSH2 0x4962 JUMP JUMPDEST SWAP2 POP POP PUSH2 0x245A JUMP JUMPDEST PUSH1 0x0 PUSH2 0x2540 PUSH2 0x38B3 JUMP JUMPDEST PUSH1 0x40 MLOAD PUSH4 0x24745215 PUSH1 0xE2 SHL DUP2 MSTORE PUSH10 0x676F7665726E616E6365 PUSH1 0xB0 SHL PUSH1 0x4 DUP3 ADD MSTORE CALLER PUSH1 0x24 DUP3 ADD MSTORE PUSH1 0x1 PUSH1 0x1 PUSH1 0xA0 SHL SUB SWAP2 SWAP1 SWAP2 AND SWAP1 PUSH4 0x91D14854 SWAP1 PUSH1 0x44 ADD PUSH1 0x20 PUSH1 0x40 MLOAD DUP1 DUP4 SUB DUP2 DUP7 DUP1 EXTCODESIZE ISZERO DUP1 ISZERO PUSH2 0x2594 JUMPI PUSH1 0x0 DUP1 REVERT JUMPDEST POP GAS STATICCALL ISZERO DUP1 ISZERO PUSH2 0x25A8 JUMPI RETURNDATASIZE PUSH1 0x0 DUP1 RETURNDATACOPY RETURNDATASIZE PUSH1 0x0 REVERT JUMPDEST POP POP POP POP PUSH1 0x40 MLOAD RETURNDATASIZE PUSH1 0x1F NOT PUSH1 0x1F DUP3 ADD AND DUP3 ADD DUP1 PUSH1 0x40 MSTORE POP DUP2 ADD SWAP1 PUSH2 0x25CC SWAP2 SWAP1 PUSH2 0x47D9 JUMP JUMPDEST PUSH1 0x40 MLOAD DUP1 PUSH1 0x40 ADD PUSH1 0x40 MSTORE DUP1 PUSH1 0x13 DUP2 MSTORE PUSH1 0x20 ADD PUSH1 0x0 DUP1 MLOAD PUSH1 0x20 PUSH2 0x4A79 DUP4 CODECOPY DUP2 MLOAD SWAP2 MSTORE DUP2 MSTORE POP SWAP1 PUSH2 0x260E JUMPI PUSH1 0x40 MLOAD PUSH3 0x461BCD PUSH1 0xE5 SHL DUP2 MSTORE PUSH1 0x4 ADD PUSH2 0x793 SWAP2 SWAP1 PUSH2 0x47FB JUMP JUMPDEST POP PUSH2 0x261A PUSH1 0x9 DUP4 PUSH2 0x3E58 JUMP JUMPDEST PUSH1 0x1 PUSH1 0x1 PUSH1 0xA0 SHL SUB AND PUSH4 0x3CF80E6C PUSH1 0x40 MLOAD DUP2 PUSH4 0xFFFFFFFF AND PUSH1 0xE0 SHL DUP2 MSTORE PUSH1 0x4 ADD PUSH1 0x20 PUSH1 0x40 MLOAD DUP1 DUP4 SUB DUP2 PUSH1 0x0 DUP8 DUP1 EXTCODESIZE ISZERO DUP1 ISZERO PUSH2 0x2654 JUMPI PUSH1 0x0 DUP1 REVERT JUMPDEST POP GAS CALL ISZERO DUP1 ISZERO PUSH2 0x2668 JUMPI RETURNDATASIZE PUSH1 0x0 DUP1 RETURNDATACOPY RETURNDATASIZE PUSH1 0x0 REVERT JUMPDEST POP POP POP POP PUSH1 0x40 MLOAD RETURNDATASIZE PUSH1 0x1F NOT PUSH1 0x1F DUP3 ADD AND DUP3 ADD DUP1 PUSH1 0x40 MSTORE POP DUP2 ADD SWAP1 PUSH2 0x268C SWAP2 SWAP1 PUSH2 0x47D9 JUMP JUMPDEST POP PUSH1 0x1 SWAP1 POP JUMPDEST SWAP2 SWAP1 POP JUMP JUMPDEST PUSH1 0x40 MLOAD PUSH4 0x59EADEB PUSH1 0xE4 SHL DUP2 MSTORE PUSH1 0x1 PUSH1 0x1 PUSH1 0xA0 SHL SUB DUP3 DUP2 AND PUSH1 0x4 DUP4 ADD MSTORE PUSH1 0x0 SWAP2 DUP3 SWAP2 PUSH32 0x0 AND SWAP1 PUSH4 0x59EADEB0 SWAP1 PUSH1 0x24 ADD PUSH1 0x20 PUSH1 0x40 MLOAD DUP1 DUP4 SUB DUP2 DUP7 DUP1 EXTCODESIZE ISZERO DUP1 ISZERO PUSH2 0x26FD JUMPI PUSH1 0x0 DUP1 REVERT JUMPDEST POP GAS STATICCALL ISZERO DUP1 ISZERO PUSH2 0x2711 JUMPI RETURNDATASIZE PUSH1 0x0 DUP1 RETURNDATACOPY RETURNDATASIZE PUSH1 0x0 REVERT JUMPDEST POP POP POP POP PUSH1 0x40 MLOAD RETURNDATASIZE PUSH1 0x1F NOT PUSH1 0x1F DUP3 ADD AND DUP3 ADD DUP1 PUSH1 0x40 MSTORE POP DUP2 ADD SWAP1 PUSH2 0x2735 SWAP2 SWAP1 PUSH2 0x499C JUMP JUMPDEST SWAP1 POP PUSH1 0x0 PUSH2 0x2742 DUP3 PUSH2 0x3C87 JUMP JUMPDEST PUSH1 0x0 SWAP1 DUP2 MSTORE PUSH1 0x3 PUSH1 0x20 MSTORE PUSH1 0x40 SWAP1 KECCAK256 SLOAD SWAP5 SWAP4 POP POP POP POP JUMP JUMPDEST PUSH1 0x0 PUSH2 0x2763 PUSH2 0x38B3 JUMP JUMPDEST PUSH1 0x40 MLOAD PUSH4 0x24745215 PUSH1 0xE2 SHL DUP2 MSTORE PUSH10 0x676F7665726E616E6365 PUSH1 0xB0 SHL PUSH1 0x4 DUP3 ADD MSTORE CALLER PUSH1 0x24 DUP3 ADD MSTORE PUSH1 0x1 PUSH1 0x1 PUSH1 0xA0 SHL SUB SWAP2 SWAP1 SWAP2 AND SWAP1 PUSH4 0x91D14854 SWAP1 PUSH1 0x44 ADD PUSH1 0x20 PUSH1 0x40 MLOAD DUP1 DUP4 SUB DUP2 DUP7 DUP1 EXTCODESIZE ISZERO DUP1 ISZERO PUSH2 0x27B7 JUMPI PUSH1 0x0 DUP1 REVERT JUMPDEST POP GAS STATICCALL ISZERO DUP1 ISZERO PUSH2 0x27CB JUMPI RETURNDATASIZE PUSH1 0x0 DUP1 RETURNDATACOPY RETURNDATASIZE PUSH1 0x0 REVERT JUMPDEST POP POP POP POP PUSH1 0x40 MLOAD RETURNDATASIZE PUSH1 0x1F NOT PUSH1 0x1F DUP3 ADD AND DUP3 ADD DUP1 PUSH1 0x40 MSTORE POP DUP2 ADD SWAP1 PUSH2 0x27EF SWAP2 SWAP1 PUSH2 0x47D9 JUMP JUMPDEST PUSH1 0x40 MLOAD DUP1 PUSH1 0x40 ADD PUSH1 0x40 MSTORE DUP1 PUSH1 0x13 DUP2 MSTORE PUSH1 0x20 ADD PUSH1 0x0 DUP1 MLOAD PUSH1 0x20 PUSH2 0x4A79 DUP4 CODECOPY DUP2 MLOAD SWAP2 MSTORE DUP2 MSTORE POP SWAP1 PUSH2 0x2831 JUMPI PUSH1 0x40 MLOAD PUSH3 0x461BCD PUSH1 0xE5 SHL DUP2 MSTORE PUSH1 0x4 ADD PUSH2 0x793 SWAP2 SWAP1 PUSH2 0x47FB JUMP JUMPDEST POP PUSH1 0x0 PUSH2 0x283E PUSH1 0x9 PUSH2 0x3E40 JUMP JUMPDEST SWAP1 POP PUSH1 0x0 DUP1 JUMPDEST DUP3 DUP2 LT ISZERO PUSH2 0x288B JUMPI PUSH1 0x1 PUSH1 0x1 PUSH1 0xA0 SHL SUB DUP6 AND PUSH2 0x2861 PUSH1 0x9 DUP4 PUSH2 0x3E4B JUMP JUMPDEST PUSH1 0x1 PUSH1 0x1 PUSH1 0xA0 SHL SUB AND EQ ISZERO PUSH2 0x2879 JUMPI PUSH1 0x1 SWAP2 POP PUSH2 0x288B JUMP JUMPDEST DUP1 PUSH2 0x2883 DUP2 PUSH2 0x4962 JUMP JUMPDEST SWAP2 POP POP PUSH2 0x2844 JUMP JUMPDEST POP DUP1 ISZERO DUP1 ISZERO PUSH2 0x28A3 JUMPI POP PUSH1 0x5 SLOAD PUSH1 0x1 PUSH1 0xA0 SHL SWAP1 DIV PUSH1 0xFF AND JUMPDEST DUP1 ISZERO PUSH2 0x28B0 JUMPI POP PUSH1 0x1 DUP3 LT ISZERO JUMPDEST ISZERO PUSH2 0x28C0 JUMPI PUSH1 0x0 SWAP3 POP POP POP PUSH2 0x17AA JUMP JUMPDEST PUSH1 0x0 DUP1 PUSH2 0x28CE PUSH1 0x9 DUP9 PUSH2 0x3E19 JUMP JUMPDEST SWAP2 POP SWAP2 POP DUP2 ISZERO DUP1 PUSH2 0x28F1 JUMPI POP DUP6 PUSH1 0x1 PUSH1 0x1 PUSH1 0xA0 SHL SUB AND DUP2 PUSH1 0x1 PUSH1 0x1 PUSH1 0xA0 SHL SUB AND EQ ISZERO JUMPDEST PUSH1 0x40 MLOAD DUP1 PUSH1 0x40 ADD PUSH1 0x40 MSTORE DUP1 PUSH1 0x10 DUP2 MSTORE PUSH1 0x20 ADD PUSH16 0x1A5B9D985B1A5908185C99DD5B595B9D PUSH1 0x82 SHL DUP2 MSTORE POP SWAP1 PUSH2 0x2938 JUMPI PUSH1 0x40 MLOAD PUSH3 0x461BCD PUSH1 0xE5 SHL DUP2 MSTORE PUSH1 0x4 ADD PUSH2 0x793 SWAP2 SWAP1 PUSH2 0x47FB JUMP JUMPDEST POP DUP2 DUP1 ISZERO PUSH2 0x29B4 JUMPI POP DUP1 PUSH1 0x1 PUSH1 0x1 PUSH1 0xA0 SHL SUB AND PUSH4 0x1F3A0E41 PUSH1 0x40 MLOAD DUP2 PUSH4 0xFFFFFFFF AND PUSH1 0xE0 SHL DUP2 MSTORE PUSH1 0x4 ADD PUSH1 0x20 PUSH1 0x40 MLOAD DUP1 DUP4 SUB DUP2 DUP7 DUP1 EXTCODESIZE ISZERO DUP1 ISZERO PUSH2 0x297A JUMPI PUSH1 0x0 DUP1 REVERT JUMPDEST POP GAS STATICCALL ISZERO DUP1 ISZERO PUSH2 0x298E JUMPI RETURNDATASIZE PUSH1 0x0 DUP1 RETURNDATACOPY RETURNDATASIZE PUSH1 0x0 REVERT JUMPDEST POP POP POP POP PUSH1 0x40 MLOAD RETURNDATASIZE PUSH1 0x1F NOT PUSH1 0x1F DUP3 ADD AND DUP3 ADD DUP1 PUSH1 0x40 MSTORE POP DUP2 ADD SWAP1 PUSH2 0x29B2 SWAP2 SWAP1 PUSH2 0x47D9 JUMP JUMPDEST ISZERO JUMPDEST ISZERO PUSH2 0x2AA2 JUMPI DUP1 PUSH1 0x1 PUSH1 0x1 PUSH1 0xA0 SHL SUB AND PUSH4 0x5790A0C8 PUSH1 0x40 MLOAD DUP2 PUSH4 0xFFFFFFFF AND PUSH1 0xE0 SHL DUP2 MSTORE PUSH1 0x4 ADD PUSH1 0x20 PUSH1 0x40 MLOAD DUP1 DUP4 SUB DUP2 PUSH1 0x0 DUP8 DUP1 EXTCODESIZE ISZERO DUP1 ISZERO PUSH2 0x29F4 JUMPI PUSH1 0x0 DUP1 REVERT JUMPDEST POP GAS CALL ISZERO DUP1 ISZERO PUSH2 0x2A08 JUMPI RETURNDATASIZE PUSH1 0x0 DUP1 RETURNDATACOPY RETURNDATASIZE PUSH1 0x0 REVERT JUMPDEST POP POP POP POP PUSH1 0x40 MLOAD RETURNDATASIZE PUSH1 0x1F NOT PUSH1 0x1F DUP3 ADD AND DUP3 ADD DUP1 PUSH1 0x40 MSTORE POP DUP2 ADD SWAP1 PUSH2 0x2A2C SWAP2 SWAP1 PUSH2 0x47D9 JUMP JUMPDEST POP DUP1 PUSH1 0x1 PUSH1 0x1 PUSH1 0xA0 SHL SUB AND PUSH4 0x41C0E1B5 PUSH1 0x40 MLOAD DUP2 PUSH4 0xFFFFFFFF AND PUSH1 0xE0 SHL DUP2 MSTORE PUSH1 0x4 ADD PUSH1 0x20 PUSH1 0x40 MLOAD DUP1 DUP4 SUB DUP2 PUSH1 0x0 DUP8 DUP1 EXTCODESIZE ISZERO DUP1 ISZERO PUSH2 0x2A68 JUMPI PUSH1 0x0 DUP1 REVERT JUMPDEST POP GAS CALL ISZERO DUP1 ISZERO PUSH2 0x2A7C JUMPI RETURNDATASIZE PUSH1 0x0 DUP1 RETURNDATACOPY RETURNDATASIZE PUSH1 0x0 REVERT JUMPDEST POP POP POP POP PUSH1 0x40 MLOAD RETURNDATASIZE PUSH1 0x1F NOT PUSH1 0x1F DUP3 ADD AND DUP3 ADD DUP1 PUSH1 0x40 MSTORE POP DUP2 ADD SWAP1 PUSH2 0x2AA0 SWAP2 SWAP1 PUSH2 0x47D9 JUMP JUMPDEST POP JUMPDEST PUSH2 0x2AAE PUSH1 0x9 DUP9 DUP9 PUSH2 0x3E6D JUMP JUMPDEST POP POP POP PUSH1 0x1 PUSH1 0x1 PUSH1 0xA0 SHL SUB DUP5 AND PUSH1 0x0 SWAP1 DUP2 MSTORE PUSH1 0xF PUSH1 0x20 MSTORE PUSH1 0x40 SWAP1 KECCAK256 DUP1 SLOAD PUSH1 0xFF NOT AND PUSH1 0x1 SWAP1 DUP2 OR SWAP1 SWAP2 SSTORE SWAP3 POP POP POP SWAP3 SWAP2 POP POP JUMP JUMPDEST PUSH1 0x5 SLOAD PUSH1 0x0 SWAP1 PUSH1 0x1 PUSH1 0x1 PUSH1 0xA0 SHL SUB AND PUSH2 0x2AFC JUMPI POP PUSH1 0x0 SWAP2 SWAP1 POP JUMP JUMPDEST PUSH1 0x5 SLOAD PUSH1 0x40 DUP1 MLOAD PUSH4 0x17E7EAB PUSH1 0xE7 SHL DUP2 MSTORE SWAP1 MLOAD PUSH1 0x0 SWAP3 PUSH1 0x1 PUSH1 0x1 PUSH1 0xA0 SHL SUB AND SWAP2 PUSH4 0xBF3F5580 SWAP2 PUSH1 0x4 DUP1 DUP4 ADD SWAP3 PUSH1 0x20 SWAP3 SWAP2 SWAP1 DUP3 SWAP1 SUB ADD DUP2 DUP7 DUP1 EXTCODESIZE ISZERO DUP1 ISZERO PUSH2 0x2B41 JUMPI PUSH1 0x0 DUP1 REVERT JUMPDEST POP GAS STATICCALL ISZERO DUP1 ISZERO PUSH2 0x2B55 JUMPI RETURNDATASIZE PUSH1 0x0 DUP1 RETURNDATACOPY RETURNDATASIZE PUSH1 0x0 REVERT JUMPDEST POP POP POP POP PUSH1 0x40 MLOAD RETURNDATASIZE PUSH1 0x1F NOT PUSH1 0x1F DUP3 ADD AND DUP3 ADD DUP1 PUSH1 0x40 MSTORE POP DUP2 ADD SWAP1 PUSH2 0x2B79 SWAP2 SWAP1 PUSH2 0x49B9 JUMP JUMPDEST PUSH1 0x5 SLOAD SWAP1 SWAP2 POP PUSH1 0x1 PUSH1 0xA0 SHL SWAP1 DIV PUSH1 0xFF AND ISZERO PUSH2 0x2B94 JUMPI SWAP3 SWAP2 POP POP JUMP JUMPDEST PUSH1 0x6 SLOAD PUSH2 0x2BA4 JUMPI POP PUSH1 0x0 SWAP3 SWAP2 POP POP JUMP JUMPDEST PUSH1 0x0 PUSH2 0x2BAF DUP5 PUSH2 0x3DF5 JUMP JUMPDEST PUSH1 0x6 SLOAD PUSH1 0x0 DUP3 DUP2 MSTORE PUSH1 0x3 PUSH1 0x20 MSTORE PUSH1 0x40 DUP2 KECCAK256 SLOAD SWAP3 SWAP4 POP SWAP2 PUSH2 0xEFE SWAP1 DUP6 SWAP1 PUSH2 0x49D2 JUMP JUMPDEST PUSH1 0x60 PUSH2 0x6B6 PUSH1 0xC PUSH2 0x3E86 JUMP JUMPDEST PUSH1 0x0 PUSH2 0x2BE6 PUSH2 0x38B3 JUMP JUMPDEST PUSH1 0x40 MLOAD PUSH4 0x24745215 PUSH1 0xE2 SHL DUP2 MSTORE PUSH10 0x676F7665726E616E6365 PUSH1 0xB0 SHL PUSH1 0x4 DUP3 ADD MSTORE CALLER PUSH1 0x24 DUP3 ADD MSTORE PUSH1 0x1 PUSH1 0x1 PUSH1 0xA0 SHL SUB SWAP2 SWAP1 SWAP2 AND SWAP1 PUSH4 0x91D14854 SWAP1 PUSH1 0x44 ADD PUSH1 0x20 PUSH1 0x40 MLOAD DUP1 DUP4 SUB DUP2 DUP7 DUP1 EXTCODESIZE ISZERO DUP1 ISZERO PUSH2 0x2C3A JUMPI PUSH1 0x0 DUP1 REVERT JUMPDEST POP GAS STATICCALL ISZERO DUP1 ISZERO PUSH2 0x2C4E JUMPI RETURNDATASIZE PUSH1 0x0 DUP1 RETURNDATACOPY RETURNDATASIZE PUSH1 0x0 REVERT JUMPDEST POP POP POP POP PUSH1 0x40 MLOAD RETURNDATASIZE PUSH1 0x1F NOT PUSH1 0x1F DUP3 ADD AND DUP3 ADD DUP1 PUSH1 0x40 MSTORE POP DUP2 ADD SWAP1 PUSH2 0x2C72 SWAP2 SWAP1 PUSH2 0x47D9 JUMP JUMPDEST PUSH1 0x40 MLOAD DUP1 PUSH1 0x40 ADD PUSH1 0x40 MSTORE DUP1 PUSH1 0x13 DUP2 MSTORE PUSH1 0x20 ADD PUSH1 0x0 DUP1 MLOAD PUSH1 0x20 PUSH2 0x4A79 DUP4 CODECOPY DUP2 MLOAD SWAP2 MSTORE DUP2 MSTORE POP SWAP1 PUSH2 0x2CB4 JUMPI PUSH1 0x40 MLOAD PUSH3 0x461BCD PUSH1 0xE5 SHL DUP2 MSTORE PUSH1 0x4 ADD PUSH2 0x793 SWAP2 SWAP1 PUSH2 0x47FB JUMP JUMPDEST POP PUSH2 0x2CC0 PUSH1 0x9 DUP5 PUSH2 0x39D1 JUMP JUMPDEST PUSH1 0x40 MLOAD DUP1 PUSH1 0x40 ADD PUSH1 0x40 MSTORE DUP1 PUSH1 0x10 DUP2 MSTORE PUSH1 0x20 ADD PUSH16 0x1A5B9D985B1A5908185C99DD5B595B9D PUSH1 0x82 SHL DUP2 MSTORE POP SWAP1 PUSH2 0x2D07 JUMPI PUSH1 0x40 MLOAD PUSH3 0x461BCD PUSH1 0xE5 SHL DUP2 MSTORE PUSH1 0x4 ADD PUSH2 0x793 SWAP2 SWAP1 PUSH2 0x47FB JUMP JUMPDEST POP PUSH1 0x0 PUSH2 0x2D13 DUP5 PUSH2 0x3DF5 JUMP JUMPDEST SWAP1 POP PUSH2 0x17A3 DUP2 DUP5 PUSH2 0x3A2B JUMP JUMPDEST PUSH1 0x0 DUP1 PUSH2 0x2D2C PUSH1 0x9 PUSH2 0x3E40 JUMP JUMPDEST SWAP1 POP PUSH1 0x0 JUMPDEST DUP2 DUP2 LT ISZERO PUSH2 0x2DC9 JUMPI PUSH2 0x2D44 PUSH1 0x9 DUP3 PUSH2 0x3E4B JUMP JUMPDEST PUSH1 0x1 PUSH1 0x1 PUSH1 0xA0 SHL SUB AND PUSH4 0x5790A0C8 PUSH1 0x40 MLOAD DUP2 PUSH4 0xFFFFFFFF AND PUSH1 0xE0 SHL DUP2 MSTORE PUSH1 0x4 ADD PUSH1 0x20 PUSH1 0x40 MLOAD DUP1 DUP4 SUB DUP2 PUSH1 0x0 DUP8 DUP1 EXTCODESIZE ISZERO DUP1 ISZERO PUSH2 0x2D7E JUMPI PUSH1 0x0 DUP1 REVERT JUMPDEST POP GAS CALL ISZERO DUP1 ISZERO PUSH2 0x2D92 JUMPI RETURNDATASIZE PUSH1 0x0 DUP1 RETURNDATACOPY RETURNDATASIZE PUSH1 0x0 REVERT JUMPDEST POP POP POP POP PUSH1 0x40 MLOAD RETURNDATASIZE PUSH1 0x1F NOT PUSH1 0x1F DUP3 ADD AND DUP3 ADD DUP1 PUSH1 0x40 MSTORE POP DUP2 ADD SWAP1 PUSH2 0x2DB6 SWAP2 SWAP1 PUSH2 0x47D9 JUMP JUMPDEST POP DUP1 PUSH2 0x2DC1 DUP2 PUSH2 0x4962 JUMP JUMPDEST SWAP2 POP POP PUSH2 0x2D31 JUMP JUMPDEST POP PUSH1 0x0 PUSH32 0x0 PUSH1 0x1 PUSH1 0x1 PUSH1 0xA0 SHL SUB AND PUSH4 0x75A8012B PUSH1 0x40 MLOAD DUP2 PUSH4 0xFFFFFFFF AND PUSH1 0xE0 SHL DUP2 MSTORE PUSH1 0x4 ADD PUSH1 0x0 PUSH1 0x40 MLOAD DUP1 DUP4 SUB DUP2 DUP7 DUP1 EXTCODESIZE ISZERO DUP1 ISZERO PUSH2 0x2E25 JUMPI PUSH1 0x0 DUP1 REVERT JUMPDEST POP GAS STATICCALL ISZERO DUP1 ISZERO PUSH2 0x2E39 JUMPI RETURNDATASIZE PUSH1 0x0 DUP1 RETURNDATACOPY RETURNDATASIZE PUSH1 0x0 REVERT JUMPDEST POP POP POP POP PUSH1 0x40 MLOAD RETURNDATASIZE PUSH1 0x0 DUP3 RETURNDATACOPY PUSH1 0x1F RETURNDATASIZE SWAP1 DUP2 ADD PUSH1 0x1F NOT AND DUP3 ADD PUSH1 0x40 MSTORE PUSH2 0x2E61 SWAP2 SWAP1 DUP2 ADD SWAP1 PUSH2 0x4871 JUMP JUMPDEST SWAP1 POP PUSH1 0x0 JUMPDEST DUP2 MLOAD DUP2 LT ISZERO PUSH2 0x2F0E JUMPI DUP2 DUP2 DUP2 MLOAD DUP2 LT PUSH2 0x2E81 JUMPI PUSH2 0x2E81 PUSH2 0x4936 JUMP JUMPDEST PUSH1 0x20 MUL PUSH1 0x20 ADD ADD MLOAD PUSH1 0x1 PUSH1 0x1 PUSH1 0xA0 SHL SUB AND PUSH4 0x5790A0C8 PUSH1 0x40 MLOAD DUP2 PUSH4 0xFFFFFFFF AND PUSH1 0xE0 SHL DUP2 MSTORE PUSH1 0x4 ADD PUSH1 0x20 PUSH1 0x40 MLOAD DUP1 DUP4 SUB DUP2 PUSH1 0x0 DUP8 DUP1 EXTCODESIZE ISZERO DUP1 ISZERO PUSH2 0x2EC3 JUMPI PUSH1 0x0 DUP1 REVERT JUMPDEST POP GAS CALL ISZERO DUP1 ISZERO PUSH2 0x2ED7 JUMPI RETURNDATASIZE PUSH1 0x0 DUP1 RETURNDATACOPY RETURNDATASIZE PUSH1 0x0 REVERT JUMPDEST POP POP POP POP PUSH1 0x40 MLOAD RETURNDATASIZE PUSH1 0x1F NOT PUSH1 0x1F DUP3 ADD AND DUP3 ADD DUP1 PUSH1 0x40 MSTORE POP DUP2 ADD SWAP1 PUSH2 0x2EFB SWAP2 SWAP1 PUSH2 0x47D9 JUMP JUMPDEST POP DUP1 PUSH2 0x2F06 DUP2 PUSH2 0x4962 JUMP JUMPDEST SWAP2 POP POP PUSH2 0x2E66 JUMP JUMPDEST POP PUSH2 0x2F19 PUSH1 0xC PUSH2 0x3E40 JUMP JUMPDEST SWAP2 POP PUSH1 0x0 JUMPDEST DUP3 DUP2 LT ISZERO PUSH2 0x2FB6 JUMPI PUSH2 0x2F31 PUSH1 0xC DUP3 PUSH2 0x3E4B JUMP JUMPDEST PUSH1 0x1 PUSH1 0x1 PUSH1 0xA0 SHL SUB AND PUSH4 0x5790A0C8 PUSH1 0x40 MLOAD DUP2 PUSH4 0xFFFFFFFF AND PUSH1 0xE0 SHL DUP2 MSTORE PUSH1 0x4 ADD PUSH1 0x20 PUSH1 0x40 MLOAD DUP1 DUP4 SUB DUP2 PUSH1 0x0 DUP8 DUP1 EXTCODESIZE ISZERO DUP1 ISZERO PUSH2 0x2F6B JUMPI PUSH1 0x0 DUP1 REVERT JUMPDEST POP GAS CALL ISZERO DUP1 ISZERO PUSH2 0x2F7F JUMPI RETURNDATASIZE PUSH1 0x0 DUP1 RETURNDATACOPY RETURNDATASIZE PUSH1 0x0 REVERT JUMPDEST POP POP POP POP PUSH1 0x40 MLOAD RETURNDATASIZE PUSH1 0x1F NOT PUSH1 0x1F DUP3 ADD AND DUP3 ADD DUP1 PUSH1 0x40 MSTORE POP DUP2 ADD SWAP1 PUSH2 0x2FA3 SWAP2 SWAP1 PUSH2 0x47D9 JUMP JUMPDEST POP DUP1 PUSH2 0x2FAE DUP2 PUSH2 0x4962 JUMP JUMPDEST SWAP2 POP POP PUSH2 0x2F1E JUMP JUMPDEST POP PUSH1 0x1 SWAP3 POP POP POP SWAP1 JUMP JUMPDEST PUSH1 0x0 DUP1 PUSH2 0x2FCC DUP4 PUSH2 0x3DF5 JUMP JUMPDEST SWAP1 POP PUSH2 0xB6E DUP2 DUP5 PUSH2 0x2FDC CALLER PUSH2 0x2294 JUMP JUMPDEST PUSH2 0x3F35 JUMP JUMPDEST PUSH10 0x31B7B73A3937B63632B9 PUSH1 0xB1 SHL PUSH2 0x2FF7 PUSH2 0x38B3 JUMP JUMPDEST PUSH1 0x40 MLOAD PUSH4 0x24745215 PUSH1 0xE2 SHL DUP2 MSTORE PUSH1 0x4 DUP2 ADD DUP4 SWAP1 MSTORE CALLER PUSH1 0x24 DUP3 ADD MSTORE PUSH1 0x1 PUSH1 0x1 PUSH1 0xA0 SHL SUB SWAP2 SWAP1 SWAP2 AND SWAP1 PUSH4 0x91D14854 SWAP1 PUSH1 0x44 ADD PUSH1 0x20 PUSH1 0x40 MLOAD DUP1 DUP4 SUB DUP2 DUP7 DUP1 EXTCODESIZE ISZERO DUP1 ISZERO PUSH2 0x303F JUMPI PUSH1 0x0 DUP1 REVERT JUMPDEST POP GAS STATICCALL ISZERO DUP1 ISZERO PUSH2 0x3053 JUMPI RETURNDATASIZE PUSH1 0x0 DUP1 RETURNDATACOPY RETURNDATASIZE PUSH1 0x0 REVERT JUMPDEST POP POP POP POP PUSH1 0x40 MLOAD RETURNDATASIZE PUSH1 0x1F NOT PUSH1 0x1F DUP3 ADD AND DUP3 ADD DUP1 PUSH1 0x40 MSTORE POP DUP2 ADD SWAP1 PUSH2 0x3077 SWAP2 SWAP1 PUSH2 0x47D9 JUMP JUMPDEST PUSH1 0x40 MLOAD DUP1 PUSH1 0x40 ADD PUSH1 0x40 MSTORE DUP1 PUSH1 0x13 DUP2 MSTORE PUSH1 0x20 ADD PUSH1 0x0 DUP1 MLOAD PUSH1 0x20 PUSH2 0x4A79 DUP4 CODECOPY DUP2 MLOAD SWAP2 MSTORE DUP2 MSTORE POP SWAP1 PUSH2 0x30B9 JUMPI PUSH1 0x40 MLOAD PUSH3 0x461BCD PUSH1 0xE5 SHL DUP2 MSTORE PUSH1 0x4 ADD PUSH2 0x793 SWAP2 SWAP1 PUSH2 0x47FB JUMP JUMPDEST POP PUSH1 0x0 PUSH2 0x30C5 DUP5 PUSH2 0x3C87 JUMP JUMPDEST SWAP1 POP PUSH2 0x30D2 DUP2 PUSH1 0x0 PUSH2 0x3A2B JUMP JUMPDEST POP PUSH2 0x30E0 DUP2 DUP5 DUP7 PUSH1 0x1 PUSH2 0x3CA7 JUMP JUMPDEST POP POP POP POP POP JUMP JUMPDEST PUSH1 0x0 DUP1 PUSH2 0x1F48 PUSH1 0x9 DUP5 PUSH2 0x3E19 JUMP JUMPDEST PUSH1 0x0 PUSH2 0x30FF PUSH2 0x38B3 JUMP JUMPDEST PUSH1 0x40 MLOAD PUSH4 0x24745215 PUSH1 0xE2 SHL DUP2 MSTORE PUSH10 0x676F7665726E616E6365 PUSH1 0xB0 SHL PUSH1 0x4 DUP3 ADD MSTORE CALLER PUSH1 0x24 DUP3 ADD MSTORE PUSH1 0x1 PUSH1 0x1 PUSH1 0xA0 SHL SUB SWAP2 SWAP1 SWAP2 AND SWAP1 PUSH4 0x91D14854 SWAP1 PUSH1 0x44 ADD PUSH1 0x20 PUSH1 0x40 MLOAD DUP1 DUP4 SUB DUP2 DUP7 DUP1 EXTCODESIZE ISZERO DUP1 ISZERO PUSH2 0x3153 JUMPI PUSH1 0x0 DUP1 REVERT JUMPDEST POP GAS STATICCALL ISZERO DUP1 ISZERO PUSH2 0x3167 JUMPI RETURNDATASIZE PUSH1 0x0 DUP1 RETURNDATACOPY RETURNDATASIZE PUSH1 0x0 REVERT JUMPDEST POP POP POP POP PUSH1 0x40 MLOAD RETURNDATASIZE PUSH1 0x1F NOT PUSH1 0x1F DUP3 ADD AND DUP3 ADD DUP1 PUSH1 0x40 MSTORE POP DUP2 ADD SWAP1 PUSH2 0x318B SWAP2 SWAP1 PUSH2 0x47D9 JUMP JUMPDEST PUSH1 0x40 MLOAD DUP1 PUSH1 0x40 ADD PUSH1 0x40 MSTORE DUP1 PUSH1 0x13 DUP2 MSTORE PUSH1 0x20 ADD PUSH1 0x0 DUP1 MLOAD PUSH1 0x20 PUSH2 0x4A79 DUP4 CODECOPY DUP2 MLOAD SWAP2 MSTORE DUP2 MSTORE POP SWAP1 PUSH2 0x31CD JUMPI PUSH1 0x40 MLOAD PUSH3 0x461BCD PUSH1 0xE5 SHL DUP2 MSTORE PUSH1 0x4 ADD PUSH2 0x793 SWAP2 SWAP1 PUSH2 0x47FB JUMP JUMPDEST POP PUSH2 0x31D7 DUP3 PUSH2 0x38D7 JUMP JUMPDEST POP PUSH1 0x1 SWAP2 SWAP1 POP JUMP JUMPDEST PUSH1 0x0 PUSH10 0x676F7665726E616E6365 PUSH1 0xB0 SHL PUSH17 0x34B7333630BA34B7B72FB6B0B730B3B2B9 PUSH1 0x79 SHL PUSH2 0x320C PUSH2 0x38B3 JUMP JUMPDEST PUSH1 0x1 PUSH1 0x1 PUSH1 0xA0 SHL SUB AND PUSH4 0xD756A422 DUP4 DUP4 CALLER PUSH1 0x40 MLOAD DUP5 PUSH4 0xFFFFFFFF AND PUSH1 0xE0 SHL DUP2 MSTORE PUSH1 0x4 ADD PUSH2 0x323B SWAP4 SWAP3 SWAP2 SWAP1 PUSH2 0x497D JUMP JUMPDEST PUSH1 0x20 PUSH1 0x40 MLOAD DUP1 DUP4 SUB DUP2 DUP7 DUP1 EXTCODESIZE ISZERO DUP1 ISZERO PUSH2 0x3253 JUMPI PUSH1 0x0 DUP1 REVERT JUMPDEST POP GAS STATICCALL ISZERO DUP1 ISZERO PUSH2 0x3267 JUMPI RETURNDATASIZE PUSH1 0x0 DUP1 RETURNDATACOPY RETURNDATASIZE PUSH1 0x0 REVERT JUMPDEST POP POP POP POP PUSH1 0x40 MLOAD RETURNDATASIZE PUSH1 0x1F NOT PUSH1 0x1F DUP3 ADD AND DUP3 ADD DUP1 PUSH1 0x40 MSTORE POP DUP2 ADD SWAP1 PUSH2 0x328B SWAP2 SWAP1 PUSH2 0x47D9 JUMP JUMPDEST PUSH1 0x40 MLOAD DUP1 PUSH1 0x40 ADD PUSH1 0x40 MSTORE DUP1 PUSH1 0x13 DUP2 MSTORE PUSH1 0x20 ADD PUSH1 0x0 DUP1 MLOAD PUSH1 0x20 PUSH2 0x4A79 DUP4 CODECOPY DUP2 MLOAD SWAP2 MSTORE DUP2 MSTORE POP SWAP1 PUSH2 0x32CD JUMPI PUSH1 0x40 MLOAD PUSH3 0x461BCD PUSH1 0xE5 SHL DUP2 MSTORE PUSH1 0x4 ADD PUSH2 0x793 SWAP2 SWAP1 PUSH2 0x47FB JUMP JUMPDEST POP DUP4 PUSH1 0x0 DUP1 JUMPDEST DUP3 DUP2 LT ISZERO PUSH2 0xE12 JUMPI PUSH2 0x32F0 DUP9 DUP9 DUP4 DUP2 DUP2 LT PUSH2 0x24F1 JUMPI PUSH2 0x24F1 PUSH2 0x4936 JUMP JUMPDEST SWAP2 POP PUSH2 0x3326 DUP3 DUP10 DUP10 DUP5 DUP2 DUP2 LT PUSH2 0x3308 JUMPI PUSH2 0x3308 PUSH2 0x4936 JUMP JUMPDEST SWAP1 POP PUSH1 0x20 MUL ADD PUSH1 0x20 DUP2 ADD SWAP1 PUSH2 0x331D SWAP2 SWAP1 PUSH2 0x4643 JUMP JUMPDEST PUSH2 0x2FDC CALLER PUSH2 0x2294 JUMP JUMPDEST POP DUP1 PUSH2 0x3331 DUP2 PUSH2 0x4962 JUMP JUMPDEST SWAP2 POP POP PUSH2 0x32D3 JUMP JUMPDEST PUSH1 0x0 PUSH10 0x676F7665726E616E6365 PUSH1 0xB0 SHL PUSH17 0x34B7333630BA34B7B72FB6B0B730B3B2B9 PUSH1 0x79 SHL PUSH2 0x3366 PUSH2 0x38B3 JUMP JUMPDEST PUSH1 0x1 PUSH1 0x1 PUSH1 0xA0 SHL SUB AND PUSH4 0xD756A422 DUP4 DUP4 CALLER PUSH1 0x40 MLOAD DUP5 PUSH4 0xFFFFFFFF AND PUSH1 0xE0 SHL DUP2 MSTORE PUSH1 0x4 ADD PUSH2 0x3395 SWAP4 SWAP3 SWAP2 SWAP1 PUSH2 0x497D JUMP JUMPDEST PUSH1 0x20 PUSH1 0x40 MLOAD DUP1 DUP4 SUB DUP2 DUP7 DUP1 EXTCODESIZE ISZERO DUP1 ISZERO PUSH2 0x33AD JUMPI PUSH1 0x0 DUP1 REVERT JUMPDEST POP GAS STATICCALL ISZERO DUP1 ISZERO PUSH2 0x33C1 JUMPI RETURNDATASIZE PUSH1 0x0 DUP1 RETURNDATACOPY RETURNDATASIZE PUSH1 0x0 REVERT JUMPDEST POP POP POP POP PUSH1 0x40 MLOAD RETURNDATASIZE PUSH1 0x1F NOT PUSH1 0x1F DUP3 ADD AND DUP3 ADD DUP1 PUSH1 0x40 MSTORE POP DUP2 ADD SWAP1 PUSH2 0x33E5 SWAP2 SWAP1 PUSH2 0x47D9 JUMP JUMPDEST PUSH1 0x40 MLOAD DUP1 PUSH1 0x40 ADD PUSH1 0x40 MSTORE DUP1 PUSH1 0x13 DUP2 MSTORE PUSH1 0x20 ADD PUSH1 0x0 DUP1 MLOAD PUSH1 0x20 PUSH2 0x4A79 DUP4 CODECOPY DUP2 MLOAD SWAP2 MSTORE DUP2 MSTORE POP SWAP1 PUSH2 0x3427 JUMPI PUSH1 0x40 MLOAD PUSH3 0x461BCD PUSH1 0xE5 SHL DUP2 MSTORE PUSH1 0x4 ADD PUSH2 0x793 SWAP2 SWAP1 PUSH2 0x47FB JUMP JUMPDEST POP DUP4 PUSH1 0x0 PUSH2 0x3434 CALLER PUSH2 0x2294 JUMP JUMPDEST SWAP1 POP PUSH1 0x0 DUP1 PUSH1 0x0 JUMPDEST DUP5 DUP2 LT ISZERO PUSH2 0x126E JUMPI DUP10 DUP10 DUP3 DUP2 DUP2 LT PUSH2 0x3456 JUMPI PUSH2 0x3456 PUSH2 0x4936 JUMP JUMPDEST SWAP1 POP PUSH1 0x20 MUL ADD PUSH1 0x20 DUP2 ADD SWAP1 PUSH2 0x346B SWAP2 SWAP1 PUSH2 0x4643 JUMP JUMPDEST SWAP2 POP PUSH2 0x3476 DUP3 PUSH2 0x39ED JUMP JUMPDEST SWAP3 POP PUSH2 0x3483 DUP3 DUP5 DUP7 PUSH2 0x3A3B JUMP JUMPDEST POP DUP1 PUSH2 0x348E DUP2 PUSH2 0x4962 JUMP JUMPDEST SWAP2 POP POP PUSH2 0x343C JUMP JUMPDEST PUSH1 0x0 PUSH2 0x34A0 PUSH2 0x38B3 JUMP JUMPDEST PUSH1 0x40 MLOAD PUSH4 0x24745215 PUSH1 0xE2 SHL DUP2 MSTORE PUSH10 0x676F7665726E616E6365 PUSH1 0xB0 SHL PUSH1 0x4 DUP3 ADD MSTORE CALLER PUSH1 0x24 DUP3 ADD MSTORE PUSH1 0x1 PUSH1 0x1 PUSH1 0xA0 SHL SUB SWAP2 SWAP1 SWAP2 AND SWAP1 PUSH4 0x91D14854 SWAP1 PUSH1 0x44 ADD PUSH1 0x20 PUSH1 0x40 MLOAD DUP1 DUP4 SUB DUP2 DUP7 DUP1 EXTCODESIZE ISZERO DUP1 ISZERO PUSH2 0x34F4 JUMPI PUSH1 0x0 DUP1 REVERT JUMPDEST POP GAS STATICCALL ISZERO DUP1 ISZERO PUSH2 0x3508 JUMPI RETURNDATASIZE PUSH1 0x0 DUP1 RETURNDATACOPY RETURNDATASIZE PUSH1 0x0 REVERT JUMPDEST POP POP POP POP PUSH1 0x40 MLOAD RETURNDATASIZE PUSH1 0x1F NOT PUSH1 0x1F DUP3 ADD AND DUP3 ADD DUP1 PUSH1 0x40 MSTORE POP DUP2 ADD SWAP1 PUSH2 0x352C SWAP2 SWAP1 PUSH2 0x47D9 JUMP JUMPDEST PUSH1 0x40 MLOAD DUP1 PUSH1 0x40 ADD PUSH1 0x40 MSTORE DUP1 PUSH1 0x13 DUP2 MSTORE PUSH1 0x20 ADD PUSH1 0x0 DUP1 MLOAD PUSH1 0x20 PUSH2 0x4A79 DUP4 CODECOPY DUP2 MLOAD SWAP2 MSTORE DUP2 MSTORE POP SWAP1 PUSH2 0x356E JUMPI PUSH1 0x40 MLOAD PUSH3 0x461BCD PUSH1 0xE5 SHL DUP2 MSTORE PUSH1 0x4 ADD PUSH2 0x793 SWAP2 SWAP1 PUSH2 0x47FB JUMP JUMPDEST POP PUSH1 0x5 SLOAD PUSH1 0x40 DUP1 MLOAD DUP1 DUP3 ADD SWAP1 SWAP2 MSTORE PUSH1 0x16 DUP2 MSTORE PUSH22 0x1059191C995CDCC81A5CC8185B1C9958591E481CD95D PUSH1 0x52 SHL PUSH1 0x20 DUP3 ADD MSTORE SWAP1 PUSH1 0x1 PUSH1 0x1 PUSH1 0xA0 SHL SUB AND ISZERO PUSH2 0x35C7 JUMPI PUSH1 0x40 MLOAD PUSH3 0x461BCD PUSH1 0xE5 SHL DUP2 MSTORE PUSH1 0x4 ADD PUSH2 0x793 SWAP2 SWAP1 PUSH2 0x47FB JUMP JUMPDEST POP PUSH1 0x0 PUSH1 0x1 PUSH1 0x1 PUSH1 0xA0 SHL SUB AND DUP3 PUSH1 0x1 PUSH1 0x1 PUSH1 0xA0 SHL SUB AND EQ ISZERO PUSH1 0x40 MLOAD DUP1 PUSH1 0x80 ADD PUSH1 0x40 MSTORE DUP1 PUSH1 0x44 DUP2 MSTORE PUSH1 0x20 ADD PUSH2 0x4ABA PUSH1 0x44 SWAP2 CODECOPY SWAP1 PUSH2 0x3616 JUMPI PUSH1 0x40 MLOAD PUSH3 0x461BCD PUSH1 0xE5 SHL DUP2 MSTORE PUSH1 0x4 ADD PUSH2 0x793 SWAP2 SWAP1 PUSH2 0x47FB JUMP JUMPDEST POP POP PUSH1 0x5 DUP1 SLOAD PUSH1 0x1 PUSH1 0x1 PUSH1 0xA0 SHL SUB DUP4 AND PUSH1 0x1 PUSH1 0x1 PUSH1 0xA0 SHL SUB NOT SWAP1 SWAP2 AND OR SWAP1 SSTORE PUSH1 0x1 SWAP2 SWAP1 POP JUMP JUMPDEST PUSH1 0x0 PUSH2 0x3646 PUSH2 0x38B3 JUMP JUMPDEST PUSH1 0x40 MLOAD PUSH4 0x24745215 PUSH1 0xE2 SHL DUP2 MSTORE PUSH10 0x676F7665726E616E6365 PUSH1 0xB0 SHL PUSH1 0x4 DUP3 ADD MSTORE CALLER PUSH1 0x24 DUP3 ADD MSTORE PUSH1 0x1 PUSH1 0x1 PUSH1 0xA0 SHL SUB SWAP2 SWAP1 SWAP2 AND SWAP1 PUSH4 0x91D14854 SWAP1 PUSH1 0x44 ADD PUSH1 0x20 PUSH1 0x40 MLOAD DUP1 DUP4 SUB DUP2 DUP7 DUP1 EXTCODESIZE ISZERO DUP1 ISZERO PUSH2 0x369A JUMPI PUSH1 0x0 DUP1 REVERT JUMPDEST POP GAS STATICCALL ISZERO DUP1 ISZERO PUSH2 0x36AE JUMPI RETURNDATASIZE PUSH1 0x0 DUP1 RETURNDATACOPY RETURNDATASIZE PUSH1 0x0 REVERT JUMPDEST POP POP POP POP PUSH1 0x40 MLOAD RETURNDATASIZE PUSH1 0x1F NOT PUSH1 0x1F DUP3 ADD AND DUP3 ADD DUP1 PUSH1 0x40 MSTORE POP DUP2 ADD SWAP1 PUSH2 0x36D2 SWAP2 SWAP1 PUSH2 0x47D9 JUMP JUMPDEST PUSH1 0x40 MLOAD DUP1 PUSH1 0x40 ADD PUSH1 0x40 MSTORE DUP1 PUSH1 0x13 DUP2 MSTORE PUSH1 0x20 ADD PUSH1 0x0 DUP1 MLOAD PUSH1 0x20 PUSH2 0x4A79 DUP4 CODECOPY DUP2 MLOAD SWAP2 MSTORE DUP2 MSTORE POP SWAP1 PUSH2 0x3714 JUMPI PUSH1 0x40 MLOAD PUSH3 0x461BCD PUSH1 0xE5 SHL DUP2 MSTORE PUSH1 0x4 ADD PUSH2 0x793 SWAP2 SWAP1 PUSH2 0x47FB JUMP JUMPDEST POP PUSH2 0x3720 PUSH1 0xC DUP4 PUSH2 0x39D1 JUMP JUMPDEST PUSH2 0x372C JUMPI POP PUSH1 0x0 SWAP2 SWAP1 POP JUMP JUMPDEST PUSH1 0x0 PUSH2 0x3739 PUSH1 0xC DUP5 PUSH2 0x3E58 JUMP JUMPDEST SWAP1 POP PUSH1 0x0 PUSH2 0x3746 DUP5 PUSH2 0x39ED JUMP JUMPDEST SWAP1 POP PUSH2 0x3753 DUP2 PUSH1 0x0 PUSH2 0x3A2B JUMP JUMPDEST POP PUSH2 0x3760 DUP5 DUP3 PUSH1 0x1 PUSH2 0x3A3B JUMP JUMPDEST POP DUP2 PUSH1 0x1 PUSH1 0x1 PUSH1 0xA0 SHL SUB AND PUSH4 0x41C0E1B5 PUSH1 0x40 MLOAD DUP2 PUSH4 0xFFFFFFFF AND PUSH1 0xE0 SHL DUP2 MSTORE PUSH1 0x4 ADD PUSH1 0x20 PUSH1 0x40 MLOAD DUP1 DUP4 SUB DUP2 PUSH1 0x0 DUP8 DUP1 EXTCODESIZE ISZERO DUP1 ISZERO PUSH2 0x379C JUMPI PUSH1 0x0 DUP1 REVERT JUMPDEST POP GAS CALL ISZERO DUP1 ISZERO PUSH2 0x37B0 JUMPI RETURNDATASIZE PUSH1 0x0 DUP1 RETURNDATACOPY RETURNDATASIZE PUSH1 0x0 REVERT JUMPDEST POP POP POP POP PUSH1 0x40 MLOAD RETURNDATASIZE PUSH1 0x1F NOT PUSH1 0x1F DUP3 ADD AND DUP3 ADD DUP1 PUSH1 0x40 MSTORE POP DUP2 ADD SWAP1 PUSH2 0x37D4 SWAP2 SWAP1 PUSH2 0x47D9 JUMP JUMPDEST POP PUSH2 0x37E0 PUSH1 0xC DUP6 PUSH2 0x407A JUMP JUMPDEST POP DUP2 PUSH1 0x1 PUSH1 0x1 PUSH1 0xA0 SHL SUB AND DUP5 PUSH1 0x1 PUSH1 0x1 PUSH1 0xA0 SHL SUB AND PUSH32 0xCC16C499CAEB153BA6505515FBA6EE59E03AE0B2D58E71B0BF2F5D6C1EDCE18A PUSH1 0x40 MLOAD PUSH1 0x40 MLOAD DUP1 SWAP2 SUB SWAP1 LOG3 POP PUSH1 0x1 SWAP4 SWAP3 POP POP POP JUMP JUMPDEST PUSH1 0x40 MLOAD PUSH4 0x21F8A721 PUSH1 0xE0 SHL DUP2 MSTORE PUSH11 0x3937B632A6B0B730B3B2B9 PUSH1 0xA9 SHL PUSH1 0x4 DUP3 ADD MSTORE PUSH1 0x0 SWAP1 PUSH1 0x1 PUSH1 0x1 PUSH1 0xA0 SHL SUB DUP4 AND SWAP1 PUSH4 0x21F8A721 SWAP1 PUSH1 0x24 ADD PUSH1 0x20 PUSH1 0x40 MLOAD DUP1 DUP4 SUB DUP2 DUP7 DUP1 EXTCODESIZE ISZERO DUP1 ISZERO PUSH2 0x387B JUMPI PUSH1 0x0 DUP1 REVERT JUMPDEST POP GAS STATICCALL ISZERO DUP1 ISZERO PUSH2 0x388F JUMPI RETURNDATASIZE PUSH1 0x0 DUP1 RETURNDATACOPY RETURNDATASIZE PUSH1 0x0 REVERT JUMPDEST POP POP POP POP PUSH1 0x40 MLOAD RETURNDATASIZE PUSH1 0x1F NOT PUSH1 0x1F DUP3 ADD AND DUP3 ADD DUP1 PUSH1 0x40 MSTORE POP DUP2 ADD SWAP1 PUSH2 0x17AA SWAP2 SWAP1 PUSH2 0x499C JUMP JUMPDEST PUSH32 0x0 SWAP1 JUMP JUMPDEST PUSH1 0x0 PUSH2 0x38E4 PUSH1 0x9 DUP4 PUSH2 0x3E58 JUMP JUMPDEST SWAP1 POP PUSH1 0x0 PUSH2 0x38F1 DUP4 PUSH2 0x3DF5 JUMP JUMPDEST SWAP1 POP PUSH2 0x38FE DUP2 PUSH1 0x0 PUSH2 0x3A2B JUMP JUMPDEST POP PUSH2 0x390B DUP2 DUP5 PUSH1 0x1 PUSH2 0x3F35 JUMP JUMPDEST POP PUSH2 0x3917 PUSH1 0x9 DUP5 PUSH2 0x407A JUMP JUMPDEST POP DUP2 PUSH1 0x1 PUSH1 0x1 PUSH1 0xA0 SHL SUB AND PUSH4 0x41C0E1B5 PUSH1 0x40 MLOAD DUP2 PUSH4 0xFFFFFFFF AND PUSH1 0xE0 SHL DUP2 MSTORE PUSH1 0x4 ADD PUSH1 0x20 PUSH1 0x40 MLOAD DUP1 DUP4 SUB DUP2 PUSH1 0x0 DUP8 DUP1 EXTCODESIZE ISZERO DUP1 ISZERO PUSH2 0x3953 JUMPI PUSH1 0x0 DUP1 REVERT JUMPDEST POP GAS CALL ISZERO DUP1 ISZERO PUSH2 0x3967 JUMPI RETURNDATASIZE PUSH1 0x0 DUP1 RETURNDATACOPY RETURNDATASIZE PUSH1 0x0 REVERT JUMPDEST POP POP POP POP PUSH1 0x40 MLOAD RETURNDATASIZE PUSH1 0x1F NOT PUSH1 0x1F DUP3 ADD AND DUP3 ADD DUP1 PUSH1 0x40 MSTORE POP DUP2 ADD SWAP1 PUSH2 0x398B SWAP2 SWAP1 PUSH2 0x47D9 JUMP JUMPDEST POP DUP2 PUSH1 0x1 PUSH1 0x1 PUSH1 0xA0 SHL SUB AND DUP4 PUSH1 0x1 PUSH1 0x1 PUSH1 0xA0 SHL SUB AND PUSH32 0x17F0F96AE429677EA4738E76673566DB1BD65621496EEE49C94173E289E24DC8 PUSH1 0x40 MLOAD PUSH1 0x40 MLOAD DUP1 SWAP2 SUB SWAP1 LOG3 POP POP POP JUMP JUMPDEST PUSH1 0x0 PUSH2 0x39E6 DUP4 PUSH1 0x1 PUSH1 0x1 PUSH1 0xA0 SHL SUB DUP5 AND PUSH2 0x408F JUMP JUMPDEST SWAP4 SWAP3 POP POP POP JUMP JUMPDEST PUSH1 0x0 PUSH9 0x185B5B55D95A59DA1D PUSH1 0xBA SHL DUP3 PUSH1 0x40 MLOAD PUSH1 0x20 ADD PUSH2 0x3A0E SWAP3 SWAP2 SWAP1 PUSH2 0x4A13 JUMP JUMPDEST PUSH1 0x40 MLOAD PUSH1 0x20 DUP2 DUP4 SUB SUB DUP2 MSTORE SWAP1 PUSH1 0x40 MSTORE DUP1 MLOAD SWAP1 PUSH1 0x20 ADD KECCAK256 SWAP1 POP SWAP2 SWAP1 POP JUMP JUMPDEST PUSH1 0x0 PUSH2 0x39E6 DUP4 DUP4 PUSH3 0x3F480 PUSH2 0x409B JUMP JUMPDEST PUSH1 0x0 PUSH2 0x3A48 PUSH1 0xC DUP6 PUSH2 0x3E58 JUMP JUMPDEST PUSH1 0x1 PUSH1 0x1 PUSH1 0xA0 SHL SUB AND PUSH4 0x5790A0C8 PUSH1 0x40 MLOAD DUP2 PUSH4 0xFFFFFFFF AND PUSH1 0xE0 SHL DUP2 MSTORE PUSH1 0x4 ADD PUSH1 0x20 PUSH1 0x40 MLOAD DUP1 DUP4 SUB DUP2 PUSH1 0x0 DUP8 DUP1 EXTCODESIZE ISZERO DUP1 ISZERO PUSH2 0x3A82 JUMPI PUSH1 0x0 DUP1 REVERT JUMPDEST POP GAS CALL ISZERO DUP1 ISZERO PUSH2 0x3A96 JUMPI RETURNDATASIZE PUSH1 0x0 DUP1 RETURNDATACOPY RETURNDATASIZE PUSH1 0x0 REVERT JUMPDEST POP POP POP POP PUSH1 0x40 MLOAD RETURNDATASIZE PUSH1 0x1F NOT PUSH1 0x1F DUP3 ADD AND DUP3 ADD DUP1 PUSH1 0x40 MSTORE POP DUP2 ADD SWAP1 PUSH2 0x3ABA SWAP2 SWAP1 PUSH2 0x47D9 JUMP JUMPDEST POP PUSH1 0x0 DUP4 DUP2 MSTORE PUSH1 0x1 PUSH1 0x20 SWAP1 DUP2 MSTORE PUSH1 0x40 DUP1 DUP4 KECCAK256 SLOAD PUSH1 0x3 SWAP1 SWAP3 MSTORE SWAP1 SWAP2 KECCAK256 SLOAD PUSH1 0x8 SLOAD PUSH2 0x3AE3 SWAP2 SWAP1 PUSH2 0x4A33 JUMP JUMPDEST PUSH2 0x3AED SWAP2 SWAP1 PUSH2 0x4A4A JUMP JUMPDEST PUSH1 0x8 DUP2 SWAP1 SSTORE PUSH2 0x3AFD JUMPI PUSH1 0x0 PUSH2 0x3B01 JUMP JUMPDEST PUSH1 0x8 SLOAD JUMPDEST PUSH1 0x8 SSTORE DUP2 PUSH2 0x3B17 JUMPI PUSH2 0x3B12 DUP4 PUSH2 0x40F1 JUMP JUMPDEST PUSH2 0x3B31 JUMP JUMPDEST PUSH1 0x0 DUP4 DUP2 MSTORE PUSH1 0x1 PUSH1 0x20 MSTORE PUSH1 0x40 SWAP1 KECCAK256 SLOAD PUSH2 0x3B31 SWAP1 DUP5 SWAP1 PUSH2 0x411C JUMP JUMPDEST POP DUP4 PUSH1 0x1 PUSH1 0x1 PUSH1 0xA0 SHL SUB AND PUSH32 0xAE184FBF7BFB224F97D6249D7FA54401F07985F32C0DC355869F2268EF3211F5 PUSH1 0x3 PUSH1 0x0 DUP7 DUP2 MSTORE PUSH1 0x20 ADD SWAP1 DUP2 MSTORE PUSH1 0x20 ADD PUSH1 0x0 KECCAK256 SLOAD PUSH1 0x40 MLOAD PUSH2 0x3B80 SWAP2 DUP2 MSTORE PUSH1 0x20 ADD SWAP1 JUMP JUMPDEST PUSH1 0x40 MLOAD DUP1 SWAP2 SUB SWAP1 LOG2 POP PUSH1 0x1 SWAP4 SWAP3 POP POP POP JUMP JUMPDEST PUSH1 0x40 MLOAD PUSH4 0x3DEA062F PUSH1 0xE2 SHL DUP2 MSTORE PUSH1 0x1 PUSH1 0x1 PUSH1 0xA0 SHL SUB DUP3 DUP2 AND PUSH1 0x4 DUP4 ADD MSTORE PUSH1 0x0 SWAP2 PUSH32 0x0 SWAP1 SWAP2 AND SWAP1 PUSH4 0xF7A818BC SWAP1 PUSH1 0x24 ADD PUSH1 0x20 PUSH1 0x40 MLOAD DUP1 DUP4 SUB DUP2 DUP7 DUP1 EXTCODESIZE ISZERO DUP1 ISZERO PUSH2 0x3BF8 JUMPI PUSH1 0x0 DUP1 REVERT JUMPDEST POP GAS STATICCALL ISZERO DUP1 ISZERO PUSH2 0x3C0C JUMPI RETURNDATASIZE PUSH1 0x0 DUP1 RETURNDATACOPY RETURNDATASIZE PUSH1 0x0 REVERT JUMPDEST POP POP POP POP PUSH1 0x40 MLOAD RETURNDATASIZE PUSH1 0x1F NOT PUSH1 0x1F DUP3 ADD AND DUP3 ADD DUP1 PUSH1 0x40 MSTORE POP DUP2 ADD SWAP1 PUSH2 0x3C30 SWAP2 SWAP1 PUSH2 0x499C JUMP JUMPDEST PUSH1 0x1 PUSH1 0x1 PUSH1 0xA0 SHL SUB AND EQ ISZERO PUSH1 0x40 MLOAD DUP1 PUSH1 0x40 ADD PUSH1 0x40 MSTORE DUP1 PUSH1 0x11 DUP2 MSTORE PUSH1 0x20 ADD PUSH17 0x1859191C995CDCC81B9BDD08199BDD5B99 PUSH1 0x7A SHL DUP2 MSTORE POP SWAP1 PUSH2 0x3C83 JUMPI PUSH1 0x40 MLOAD PUSH3 0x461BCD PUSH1 0xE5 SHL DUP2 MSTORE PUSH1 0x4 ADD PUSH2 0x793 SWAP2 SWAP1 PUSH2 0x47FB JUMP JUMPDEST POP POP JUMP JUMPDEST PUSH1 0x0 PUSH8 0x1B1C15D95A59DA1D PUSH1 0xC2 SHL DUP3 PUSH1 0x40 MLOAD PUSH1 0x20 ADD PUSH2 0x3A0E SWAP3 SWAP2 SWAP1 PUSH2 0x4A13 JUMP JUMPDEST PUSH1 0x0 DUP3 PUSH1 0x1 PUSH1 0x1 PUSH1 0xA0 SHL SUB AND PUSH4 0x5790A0C8 PUSH1 0x40 MLOAD DUP2 PUSH4 0xFFFFFFFF AND PUSH1 0xE0 SHL DUP2 MSTORE PUSH1 0x4 ADD PUSH1 0x20 PUSH1 0x40 MLOAD DUP1 DUP4 SUB DUP2 PUSH1 0x0 DUP8 DUP1 EXTCODESIZE ISZERO DUP1 ISZERO PUSH2 0x3CE4 JUMPI PUSH1 0x0 DUP1 REVERT JUMPDEST POP GAS CALL ISZERO DUP1 ISZERO PUSH2 0x3CF8 JUMPI RETURNDATASIZE PUSH1 0x0 DUP1 RETURNDATACOPY RETURNDATASIZE PUSH1 0x0 REVERT JUMPDEST POP POP POP POP PUSH1 0x40 MLOAD RETURNDATASIZE PUSH1 0x1F NOT PUSH1 0x1F DUP3 ADD AND DUP3 ADD DUP1 PUSH1 0x40 MSTORE POP DUP2 ADD SWAP1 PUSH2 0x3D1C SWAP2 SWAP1 PUSH2 0x47D9 JUMP JUMPDEST POP PUSH1 0x0 DUP6 DUP2 MSTORE PUSH1 0x1 PUSH1 0x20 SWAP1 DUP2 MSTORE PUSH1 0x40 DUP1 DUP4 KECCAK256 SLOAD PUSH1 0x3 SWAP1 SWAP3 MSTORE SWAP1 SWAP2 KECCAK256 SLOAD PUSH1 0x7 SLOAD PUSH2 0x3D45 SWAP2 SWAP1 PUSH2 0x4A33 JUMP JUMPDEST PUSH2 0x3D4F SWAP2 SWAP1 PUSH2 0x4A4A JUMP JUMPDEST PUSH1 0x7 DUP2 SWAP1 SSTORE PUSH2 0x3D5F JUMPI PUSH1 0x0 PUSH2 0x3D63 JUMP JUMPDEST PUSH1 0x7 SLOAD JUMPDEST PUSH1 0x7 SSTORE DUP2 PUSH2 0x3D79 JUMPI PUSH2 0x3D74 DUP6 PUSH2 0x40F1 JUMP JUMPDEST PUSH2 0x3D93 JUMP JUMPDEST PUSH1 0x0 DUP6 DUP2 MSTORE PUSH1 0x1 PUSH1 0x20 MSTORE PUSH1 0x40 SWAP1 KECCAK256 SLOAD PUSH2 0x3D93 SWAP1 DUP7 SWAP1 PUSH2 0x411C JUMP JUMPDEST POP DUP4 PUSH1 0x1 PUSH1 0x1 PUSH1 0xA0 SHL SUB AND PUSH32 0xED56E077A86640EDA727B81E991A174258C5356858AE761A377AFCCF9FAC283E PUSH1 0x3 PUSH1 0x0 DUP9 DUP2 MSTORE PUSH1 0x20 ADD SWAP1 DUP2 MSTORE PUSH1 0x20 ADD PUSH1 0x0 KECCAK256 SLOAD PUSH1 0x40 MLOAD PUSH2 0x3DE2 SWAP2 DUP2 MSTORE PUSH1 0x20 ADD SWAP1 JUMP JUMPDEST PUSH1 0x40 MLOAD DUP1 SWAP2 SUB SWAP1 LOG2 POP PUSH1 0x1 SWAP5 SWAP4 POP POP POP POP JUMP JUMPDEST PUSH1 0x0 PUSH12 0x1AD9595C195C95D95A59DA1D PUSH1 0xA2 SHL DUP3 PUSH1 0x40 MLOAD PUSH1 0x20 ADD PUSH2 0x3A0E SWAP3 SWAP2 SWAP1 PUSH2 0x4A13 JUMP JUMPDEST PUSH1 0x0 DUP1 DUP1 DUP1 PUSH2 0x3E31 DUP7 PUSH1 0x1 PUSH1 0x1 PUSH1 0xA0 SHL SUB DUP8 AND PUSH2 0x4188 JUMP JUMPDEST SWAP1 SWAP5 POP SWAP3 POP POP POP JUMPDEST SWAP3 POP SWAP3 SWAP1 POP JUMP JUMPDEST PUSH1 0x0 PUSH2 0x17AA DUP3 PUSH2 0x41C2 JUMP JUMPDEST PUSH1 0x0 DUP1 PUSH2 0xF08 DUP5 DUP5 PUSH2 0x41CD JUMP JUMPDEST PUSH1 0x0 PUSH2 0x39E6 DUP4 PUSH1 0x1 PUSH1 0x1 PUSH1 0xA0 SHL SUB DUP5 AND PUSH2 0x41DC JUMP JUMPDEST PUSH1 0x0 PUSH2 0x1F48 DUP5 PUSH1 0x1 PUSH1 0x1 PUSH1 0xA0 SHL SUB DUP1 DUP7 AND SWAP1 DUP6 AND PUSH2 0x424C JUMP JUMPDEST PUSH1 0x60 PUSH1 0x0 PUSH2 0x3E93 DUP4 PUSH2 0x3E40 JUMP JUMPDEST SWAP1 POP PUSH1 0x0 DUP2 PUSH8 0xFFFFFFFFFFFFFFFF DUP2 GT ISZERO PUSH2 0x3EB0 JUMPI PUSH2 0x3EB0 PUSH2 0x4850 JUMP JUMPDEST PUSH1 0x40 MLOAD SWAP1 DUP1 DUP3 MSTORE DUP1 PUSH1 0x20 MUL PUSH1 0x20 ADD DUP3 ADD PUSH1 0x40 MSTORE DUP1 ISZERO PUSH2 0x3ED9 JUMPI DUP2 PUSH1 0x20 ADD PUSH1 0x20 DUP3 MUL DUP1 CALLDATASIZE DUP4 CALLDATACOPY ADD SWAP1 POP JUMPDEST POP SWAP1 POP PUSH1 0x0 JUMPDEST DUP3 DUP2 LT ISZERO PUSH2 0x3F2D JUMPI PUSH2 0x3EF1 DUP6 DUP3 PUSH2 0x3E4B JUMP JUMPDEST DUP3 DUP3 DUP2 MLOAD DUP2 LT PUSH2 0x3F03 JUMPI PUSH2 0x3F03 PUSH2 0x4936 JUMP JUMPDEST PUSH1 0x1 PUSH1 0x1 PUSH1 0xA0 SHL SUB SWAP1 SWAP3 AND PUSH1 0x20 SWAP3 DUP4 MUL SWAP2 SWAP1 SWAP2 ADD SWAP1 SWAP2 ADD MSTORE DUP1 PUSH2 0x3F25 DUP2 PUSH2 0x4962 JUMP JUMPDEST SWAP2 POP POP PUSH2 0x3EDF JUMP JUMPDEST POP SWAP4 SWAP3 POP POP POP JUMP JUMPDEST PUSH1 0x0 PUSH2 0x3F42 PUSH1 0x9 DUP5 PUSH2 0x3E58 JUMP JUMPDEST PUSH1 0x1 PUSH1 0x1 PUSH1 0xA0 SHL SUB AND PUSH4 0x5790A0C8 PUSH1 0x40 MLOAD DUP2 PUSH4 0xFFFFFFFF AND PUSH1 0xE0 SHL DUP2 MSTORE PUSH1 0x4 ADD PUSH1 0x20 PUSH1 0x40 MLOAD DUP1 DUP4 SUB DUP2 PUSH1 0x0 DUP8 DUP1 EXTCODESIZE ISZERO DUP1 ISZERO PUSH2 0x3F7C JUMPI PUSH1 0x0 DUP1 REVERT JUMPDEST POP GAS CALL ISZERO DUP1 ISZERO PUSH2 0x3F90 JUMPI RETURNDATASIZE PUSH1 0x0 DUP1 RETURNDATACOPY RETURNDATASIZE PUSH1 0x0 REVERT JUMPDEST POP POP POP POP PUSH1 0x40 MLOAD RETURNDATASIZE PUSH1 0x1F NOT PUSH1 0x1F DUP3 ADD AND DUP3 ADD DUP1 PUSH1 0x40 MSTORE POP DUP2 ADD SWAP1 PUSH2 0x3FB4 SWAP2 SWAP1 PUSH2 0x47D9 JUMP JUMPDEST POP PUSH1 0x0 DUP5 DUP2 MSTORE PUSH1 0x1 PUSH1 0x20 SWAP1 DUP2 MSTORE PUSH1 0x40 DUP1 DUP4 KECCAK256 SLOAD PUSH1 0x3 SWAP1 SWAP3 MSTORE SWAP1 SWAP2 KECCAK256 SLOAD PUSH1 0x6 SLOAD PUSH2 0x3FDD SWAP2 SWAP1 PUSH2 0x4A33 JUMP JUMPDEST PUSH2 0x3FE7 SWAP2 SWAP1 PUSH2 0x4A4A JUMP JUMPDEST PUSH1 0x6 DUP2 SWAP1 SSTORE PUSH2 0x3FF7 JUMPI PUSH1 0x0 PUSH2 0x3FFB JUMP JUMPDEST PUSH1 0x6 SLOAD JUMPDEST PUSH1 0x6 SSTORE DUP2 PUSH2 0x4011 JUMPI PUSH2 0x400C DUP5 PUSH2 0x40F1 JUMP JUMPDEST PUSH2 0x402B JUMP JUMPDEST PUSH1 0x0 DUP5 DUP2 MSTORE PUSH1 0x1 PUSH1 0x20 MSTORE PUSH1 0x40 SWAP1 KECCAK256 SLOAD PUSH2 0x402B SWAP1 DUP6 SWAP1 PUSH2 0x411C JUMP JUMPDEST POP DUP3 PUSH1 0x1 PUSH1 0x1 PUSH1 0xA0 SHL SUB AND PUSH32 0xD4087C97381173C70BCC96DA898724A384DE03E9B747EEFE531406B538BABEAC PUSH1 0x3 PUSH1 0x0 DUP8 DUP2 MSTORE PUSH1 0x20 ADD SWAP1 DUP2 MSTORE PUSH1 0x20 ADD PUSH1 0x0 KECCAK256 SLOAD PUSH1 0x40 MLOAD PUSH2 0x3B80 SWAP2 DUP2 MSTORE PUSH1 0x20 ADD SWAP1 JUMP JUMPDEST PUSH1 0x0 PUSH2 0x39E6 DUP4 PUSH1 0x1 PUSH1 0x1 PUSH1 0xA0 SHL SUB DUP5 AND PUSH2 0x4269 JUMP JUMPDEST PUSH1 0x0 PUSH2 0x39E6 DUP4 DUP4 PUSH2 0x4286 JUMP JUMPDEST PUSH1 0x0 PUSH2 0x40A7 DUP5 DUP4 PUSH2 0x429E JUMP JUMPDEST PUSH1 0x0 DUP5 DUP2 MSTORE PUSH1 0x1 PUSH1 0x20 SWAP1 DUP2 MSTORE PUSH1 0x40 SWAP2 DUP3 SWAP1 KECCAK256 DUP6 SWAP1 SSTORE DUP2 MLOAD DUP6 DUP2 MSTORE SWAP1 DUP2 ADD DUP5 SWAP1 MSTORE DUP6 SWAP2 PUSH32 0xE6790002E78FB96FF1FDFE3A3BB2A86489D3F3923372C1FE5B6B1FED071EED4 SWAP2 ADD PUSH2 0x3B80 JUMP JUMPDEST PUSH1 0x0 PUSH2 0x40FC DUP3 PUSH2 0x4378 JUMP JUMPDEST PUSH1 0x0 DUP3 DUP2 MSTORE PUSH1 0x1 PUSH1 0x20 MSTORE PUSH1 0x40 SWAP1 KECCAK256 SLOAD PUSH2 0x4115 DUP4 DUP3 PUSH2 0x411C JUMP JUMPDEST POP SWAP3 SWAP2 POP POP JUMP JUMPDEST PUSH1 0x0 DUP3 DUP2 MSTORE PUSH1 0x3 PUSH1 0x20 SWAP1 DUP2 MSTORE PUSH1 0x40 DUP1 DUP4 KECCAK256 DUP1 SLOAD SWAP1 DUP6 SWAP1 SSTORE PUSH1 0x1 DUP4 MSTORE DUP2 DUP5 KECCAK256 DUP5 SWAP1 SSTORE PUSH1 0x4 DUP4 MSTORE DUP2 DUP5 KECCAK256 DUP5 SWAP1 SSTORE DUP2 MLOAD DUP2 DUP2 MSTORE SWAP3 DUP4 ADD DUP6 SWAP1 MSTORE SWAP2 DUP6 SWAP2 PUSH32 0xCC0BAFE2ACCB565EA70674BF4B2555E49A47D410FB9932DFAB3E5F41855D0A2F SWAP2 ADD PUSH1 0x40 MLOAD DUP1 SWAP2 SUB SWAP1 LOG2 POP SWAP1 SWAP3 SWAP2 POP POP JUMP JUMPDEST PUSH1 0x0 DUP2 DUP2 MSTORE PUSH1 0x2 DUP4 ADD PUSH1 0x20 MSTORE PUSH1 0x40 DUP2 KECCAK256 SLOAD DUP2 SWAP1 DUP1 PUSH2 0x41B7 JUMPI PUSH2 0x41AA DUP6 DUP6 PUSH2 0x408F JUMP JUMPDEST SWAP3 POP PUSH1 0x0 SWAP2 POP PUSH2 0x3E39 SWAP1 POP JUMP JUMPDEST PUSH1 0x1 SWAP3 POP SWAP1 POP PUSH2 0x3E39 JUMP JUMPDEST PUSH1 0x0 PUSH2 0x17AA DUP3 PUSH2 0x4421 JUMP JUMPDEST PUSH1 0x0 DUP1 DUP1 DUP1 PUSH2 0x3E31 DUP7 DUP7 PUSH2 0x442B JUMP JUMPDEST PUSH1 0x0 DUP2 DUP2 MSTORE PUSH1 0x2 DUP4 ADD PUSH1 0x20 MSTORE PUSH1 0x40 DUP2 KECCAK256 SLOAD DUP1 ISZERO ISZERO DUP1 PUSH2 0x4200 JUMPI POP PUSH2 0x4200 DUP5 DUP5 PUSH2 0x408F JUMP JUMPDEST PUSH2 0x39E6 JUMPI PUSH1 0x40 MLOAD PUSH3 0x461BCD PUSH1 0xE5 SHL DUP2 MSTORE PUSH1 0x20 PUSH1 0x4 DUP3 ADD MSTORE PUSH1 0x1E PUSH1 0x24 DUP3 ADD MSTORE PUSH32 0x456E756D657261626C654D61703A206E6F6E6578697374656E74206B65790000 PUSH1 0x44 DUP3 ADD MSTORE PUSH1 0x64 ADD PUSH2 0x793 JUMP JUMPDEST PUSH1 0x0 DUP3 DUP2 MSTORE PUSH1 0x2 DUP5 ADD PUSH1 0x20 MSTORE PUSH1 0x40 DUP2 KECCAK256 DUP3 SWAP1 SSTORE PUSH2 0x1F48 DUP5 DUP5 PUSH2 0x4456 JUMP JUMPDEST PUSH1 0x0 DUP2 DUP2 MSTORE PUSH1 0x2 DUP4 ADD PUSH1 0x20 MSTORE PUSH1 0x40 DUP2 KECCAK256 DUP2 SWAP1 SSTORE PUSH2 0x39E6 DUP4 DUP4 PUSH2 0x4462 JUMP JUMPDEST PUSH1 0x0 DUP2 DUP2 MSTORE PUSH1 0x1 DUP4 ADD PUSH1 0x20 MSTORE PUSH1 0x40 DUP2 KECCAK256 SLOAD ISZERO ISZERO PUSH2 0x39E6 JUMP JUMPDEST PUSH1 0x4 PUSH1 0x0 DUP4 DUP2 MSTORE PUSH1 0x20 ADD SWAP1 DUP2 MSTORE PUSH1 0x20 ADD PUSH1 0x0 KECCAK256 SLOAD PUSH1 0x0 EQ PUSH1 0x40 MLOAD DUP1 PUSH1 0x40 ADD PUSH1 0x40 MSTORE DUP1 PUSH1 0x12 DUP2 MSTORE PUSH1 0x20 ADD PUSH18 0x646561646C696E65206D757374206265203 PUSH1 0x74 SHL DUP2 MSTORE POP SWAP1 PUSH2 0x42FE JUMPI PUSH1 0x40 MLOAD PUSH3 0x461BCD PUSH1 0xE5 SHL DUP2 MSTORE PUSH1 0x4 ADD PUSH2 0x793 SWAP2 SWAP1 PUSH2 0x47FB JUMP JUMPDEST POP PUSH1 0x40 DUP1 MLOAD DUP1 DUP3 ADD SWAP1 SWAP2 MSTORE PUSH1 0x18 DUP2 MSTORE PUSH32 0x64656C6179206265206174206C65617374203320646179730000000000000000 PUSH1 0x20 DUP3 ADD MSTORE PUSH3 0x3F480 DUP3 LT ISZERO PUSH2 0x4357 JUMPI PUSH1 0x40 MLOAD PUSH3 0x461BCD PUSH1 0xE5 SHL DUP2 MSTORE PUSH1 0x4 ADD PUSH2 0x793 SWAP2 SWAP1 PUSH2 0x47FB JUMP JUMPDEST POP PUSH2 0x4362 DUP2 TIMESTAMP PUSH2 0x4A4A JUMP JUMPDEST PUSH1 0x0 SWAP3 DUP4 MSTORE PUSH1 0x4 PUSH1 0x20 MSTORE PUSH1 0x40 SWAP1 SWAP3 KECCAK256 SWAP2 SWAP1 SWAP2 SSTORE POP JUMP JUMPDEST PUSH1 0x0 PUSH1 0x4 PUSH1 0x0 DUP4 DUP2 MSTORE PUSH1 0x20 ADD SWAP1 DUP2 MSTORE PUSH1 0x20 ADD PUSH1 0x0 KECCAK256 SLOAD SWAP1 POP DUP1 TIMESTAMP LT ISZERO PUSH1 0x40 MLOAD DUP1 PUSH1 0x60 ADD PUSH1 0x40 MSTORE DUP1 PUSH1 0x21 DUP2 MSTORE PUSH1 0x20 ADD PUSH2 0x4A99 PUSH1 0x21 SWAP2 CODECOPY SWAP1 PUSH2 0x43CB JUMPI PUSH1 0x40 MLOAD PUSH3 0x461BCD PUSH1 0xE5 SHL DUP2 MSTORE PUSH1 0x4 ADD PUSH2 0x793 SWAP2 SWAP1 PUSH2 0x47FB JUMP JUMPDEST POP PUSH1 0x40 DUP1 MLOAD DUP1 DUP3 ADD SWAP1 SWAP2 MSTORE PUSH1 0xD DUP2 MSTORE PUSH13 0x646561646C696E65206973203 PUSH1 0x9C SHL PUSH1 0x20 DUP3 ADD MSTORE DUP2 PUSH2 0x440E JUMPI PUSH1 0x40 MLOAD PUSH3 0x461BCD PUSH1 0xE5 SHL DUP2 MSTORE PUSH1 0x4 ADD PUSH2 0x793 SWAP2 SWAP1 PUSH2 0x47FB JUMP JUMPDEST POP POP PUSH1 0x0 SWAP1 DUP2 MSTORE PUSH1 0x4 PUSH1 0x20 MSTORE PUSH1 0x40 DUP2 KECCAK256 SSTORE JUMP JUMPDEST PUSH1 0x0 PUSH2 0x17AA DUP3 SLOAD SWAP1 JUMP JUMPDEST PUSH1 0x0 DUP1 DUP1 PUSH2 0x4439 DUP6 DUP6 PUSH2 0x446E JUMP JUMPDEST PUSH1 0x0 DUP2 DUP2 MSTORE PUSH1 0x2 SWAP7 SWAP1 SWAP7 ADD PUSH1 0x20 MSTORE PUSH1 0x40 SWAP1 SWAP6 KECCAK256 SLOAD SWAP5 SWAP6 SWAP4 POP POP POP POP JUMP JUMPDEST PUSH1 0x0 PUSH2 0x39E6 DUP4 DUP4 PUSH2 0x447A JUMP JUMPDEST PUSH1 0x0 PUSH2 0x39E6 DUP4 DUP4 PUSH2 0x44C9 JUMP JUMPDEST PUSH1 0x0 PUSH2 0x39E6 DUP4 DUP4 PUSH2 0x45BC JUMP JUMPDEST PUSH1 0x0 DUP2 DUP2 MSTORE PUSH1 0x1 DUP4 ADD PUSH1 0x20 MSTORE PUSH1 0x40 DUP2 KECCAK256 SLOAD PUSH2 0x44C1 JUMPI POP DUP2 SLOAD PUSH1 0x1 DUP2 DUP2 ADD DUP5 SSTORE PUSH1 0x0 DUP5 DUP2 MSTORE PUSH1 0x20 DUP1 DUP3 KECCAK256 SWAP1 SWAP4 ADD DUP5 SWAP1 SSTORE DUP5 SLOAD DUP5 DUP3 MSTORE DUP3 DUP7 ADD SWAP1 SWAP4 MSTORE PUSH1 0x40 SWAP1 KECCAK256 SWAP2 SWAP1 SWAP2 SSTORE PUSH2 0x17AA JUMP JUMPDEST POP PUSH1 0x0 PUSH2 0x17AA JUMP JUMPDEST PUSH1 0x0 DUP2 DUP2 MSTORE PUSH1 0x1 DUP4 ADD PUSH1 0x20 MSTORE PUSH1 0x40 DUP2 KECCAK256 SLOAD DUP1 ISZERO PUSH2 0x45B2 JUMPI PUSH1 0x0 PUSH2 0x44ED PUSH1 0x1 DUP4 PUSH2 0x4A33 JUMP JUMPDEST DUP6 SLOAD SWAP1 SWAP2 POP PUSH1 0x0 SWAP1 PUSH2 0x4501 SWAP1 PUSH1 0x1 SWAP1 PUSH2 0x4A33 JUMP JUMPDEST SWAP1 POP DUP2 DUP2 EQ PUSH2 0x4566 JUMPI PUSH1 0x0 DUP7 PUSH1 0x0 ADD DUP3 DUP2 SLOAD DUP2 LT PUSH2 0x4521 JUMPI PUSH2 0x4521 PUSH2 0x4936 JUMP JUMPDEST SWAP1 PUSH1 0x0 MSTORE PUSH1 0x20 PUSH1 0x0 KECCAK256 ADD SLOAD SWAP1 POP DUP1 DUP8 PUSH1 0x0 ADD DUP5 DUP2 SLOAD DUP2 LT PUSH2 0x4544 JUMPI PUSH2 0x4544 PUSH2 0x4936 JUMP JUMPDEST PUSH1 0x0 SWAP2 DUP3 MSTORE PUSH1 0x20 DUP1 DUP4 KECCAK256 SWAP1 SWAP2 ADD SWAP3 SWAP1 SWAP3 SSTORE SWAP2 DUP3 MSTORE PUSH1 0x1 DUP9 ADD SWAP1 MSTORE PUSH1 0x40 SWAP1 KECCAK256 DUP4 SWAP1 SSTORE JUMPDEST DUP6 SLOAD DUP7 SWAP1 DUP1 PUSH2 0x4577 JUMPI PUSH2 0x4577 PUSH2 0x4A62 JUMP JUMPDEST PUSH1 0x1 SWAP1 SUB DUP2 DUP2 SWAP1 PUSH1 0x0 MSTORE PUSH1 0x20 PUSH1 0x0 KECCAK256 ADD PUSH1 0x0 SWAP1 SSTORE SWAP1 SSTORE DUP6 PUSH1 0x1 ADD PUSH1 0x0 DUP7 DUP2 MSTORE PUSH1 0x20 ADD SWAP1 DUP2 MSTORE PUSH1 0x20 ADD PUSH1 0x0 KECCAK256 PUSH1 0x0 SWAP1 SSTORE PUSH1 0x1 SWAP4 POP POP POP POP PUSH2 0x17AA JUMP JUMPDEST PUSH1 0x0 SWAP2 POP POP PUSH2 0x17AA JUMP JUMPDEST PUSH1 0x0 DUP3 PUSH1 0x0 ADD DUP3 DUP2 SLOAD DUP2 LT PUSH2 0x45D3 JUMPI PUSH2 0x45D3 PUSH2 0x4936 JUMP JUMPDEST SWAP1 PUSH1 0x0 MSTORE PUSH1 0x20 PUSH1 0x0 KECCAK256 ADD SLOAD SWAP1 POP SWAP3 SWAP2 POP POP JUMP JUMPDEST PUSH1 0x0 PUSH1 0x20 DUP3 DUP5 SUB SLT ISZERO PUSH2 0x45F8 JUMPI PUSH1 0x0 DUP1 REVERT JUMPDEST POP CALLDATALOAD SWAP2 SWAP1 POP JUMP JUMPDEST PUSH1 0x1 PUSH1 0x1 PUSH1 0xA0 SHL SUB DUP2 AND DUP2 EQ PUSH2 0x4614 JUMPI PUSH1 0x0 DUP1 REVERT JUMPDEST POP JUMP JUMPDEST PUSH1 0x0 DUP1 PUSH1 0x40 DUP4 DUP6 SUB SLT ISZERO PUSH2 0x462A JUMPI PUSH1 0x0 DUP1 REVERT JUMPDEST DUP3 CALLDATALOAD PUSH2 0x4635 DUP2 PUSH2 0x45FF JUMP JUMPDEST SWAP5 PUSH1 0x20 SWAP4 SWAP1 SWAP4 ADD CALLDATALOAD SWAP4 POP POP POP JUMP JUMPDEST PUSH1 0x0 PUSH1 0x20 DUP3 DUP5 SUB SLT ISZERO PUSH2 0x4655 JUMPI PUSH1 0x0 DUP1 REVERT JUMPDEST DUP2 CALLDATALOAD PUSH2 0x39E6 DUP2 PUSH2 0x45FF JUMP JUMPDEST PUSH1 0x0 DUP1 DUP4 PUSH1 0x1F DUP5 ADD SLT PUSH2 0x4672 JUMPI PUSH1 0x0 DUP1 REVERT JUMPDEST POP DUP2 CALLDATALOAD PUSH8 0xFFFFFFFFFFFFFFFF DUP2 GT ISZERO PUSH2 0x468A JUMPI PUSH1 0x0 DUP1 REVERT JUMPDEST PUSH1 0x20 DUP4 ADD SWAP2 POP DUP4 PUSH1 0x20 DUP3 PUSH1 0x5 SHL DUP6 ADD ADD GT ISZERO PUSH2 0x3E39 JUMPI PUSH1 0x0 DUP1 REVERT JUMPDEST PUSH1 0x0 DUP1 PUSH1 0x0 DUP1 PUSH1 0x40 DUP6 DUP8 SUB SLT ISZERO PUSH2 0x46BB JUMPI PUSH1 0x0 DUP1 REVERT JUMPDEST DUP5 CALLDATALOAD PUSH8 0xFFFFFFFFFFFFFFFF DUP1 DUP3 GT ISZERO PUSH2 0x46D3 JUMPI PUSH1 0x0 DUP1 REVERT JUMPDEST PUSH2 0x46DF DUP9 DUP4 DUP10 ADD PUSH2 0x4660 JUMP JUMPDEST SWAP1 SWAP7 POP SWAP5 POP PUSH1 0x20 DUP8 ADD CALLDATALOAD SWAP2 POP DUP1 DUP3 GT ISZERO PUSH2 0x46F8 JUMPI PUSH1 0x0 DUP1 REVERT JUMPDEST POP PUSH2 0x4705 DUP8 DUP3 DUP9 ADD PUSH2 0x4660 JUMP JUMPDEST SWAP6 SWAP9 SWAP5 SWAP8 POP SWAP6 POP POP POP POP JUMP JUMPDEST PUSH1 0x0 DUP1 PUSH1 0x40 DUP4 DUP6 SUB SLT ISZERO PUSH2 0x4724 JUMPI PUSH1 0x0 DUP1 REVERT JUMPDEST DUP3 CALLDATALOAD PUSH2 0x472F DUP2 PUSH2 0x45FF JUMP JUMPDEST SWAP2 POP PUSH1 0x20 DUP4 ADD CALLDATALOAD PUSH2 0x473F DUP2 PUSH2 0x45FF JUMP JUMPDEST DUP1 SWAP2 POP POP SWAP3 POP SWAP3 SWAP1 POP JUMP JUMPDEST PUSH1 0x0 DUP1 PUSH1 0x20 DUP4 DUP6 SUB SLT ISZERO PUSH2 0x475D JUMPI PUSH1 0x0 DUP1 REVERT JUMPDEST DUP3 CALLDATALOAD PUSH8 0xFFFFFFFFFFFFFFFF DUP2 GT ISZERO PUSH2 0x4774 JUMPI PUSH1 0x0 DUP1 REVERT JUMPDEST PUSH2 0x4780 DUP6 DUP3 DUP7 ADD PUSH2 0x4660 JUMP JUMPDEST SWAP1 SWAP7 SWAP1 SWAP6 POP SWAP4 POP POP POP POP JUMP JUMPDEST PUSH1 0x20 DUP1 DUP3 MSTORE DUP3 MLOAD DUP3 DUP3 ADD DUP2 SWAP1 MSTORE PUSH1 0x0 SWAP2 SWAP1 DUP5 DUP3 ADD SWAP1 PUSH1 0x40 DUP6 ADD SWAP1 DUP5 JUMPDEST DUP2 DUP2 LT ISZERO PUSH2 0x47CD JUMPI DUP4 MLOAD PUSH1 0x1 PUSH1 0x1 PUSH1 0xA0 SHL SUB AND DUP4 MSTORE SWAP3 DUP5 ADD SWAP3 SWAP2 DUP5 ADD SWAP2 PUSH1 0x1 ADD PUSH2 0x47A8 JUMP JUMPDEST POP SWAP1 SWAP7 SWAP6 POP POP POP POP POP POP JUMP JUMPDEST PUSH1 0x0 PUSH1 0x20 DUP3 DUP5 SUB SLT ISZERO PUSH2 0x47EB JUMPI PUSH1 0x0 DUP1 REVERT JUMPDEST DUP2 MLOAD DUP1 ISZERO ISZERO DUP2 EQ PUSH2 0x39E6 JUMPI PUSH1 0x0 DUP1 REVERT JUMPDEST PUSH1 0x0 PUSH1 0x20 DUP1 DUP4 MSTORE DUP4 MLOAD DUP1 DUP3 DUP6 ADD MSTORE PUSH1 0x0 JUMPDEST DUP2 DUP2 LT ISZERO PUSH2 0x4828 JUMPI DUP6 DUP2 ADD DUP4 ADD MLOAD DUP6 DUP3 ADD PUSH1 0x40 ADD MSTORE DUP3 ADD PUSH2 0x480C JUMP JUMPDEST DUP2 DUP2 GT ISZERO PUSH2 0x483A JUMPI PUSH1 0x0 PUSH1 0x40 DUP4 DUP8 ADD ADD MSTORE JUMPDEST POP PUSH1 0x1F ADD PUSH1 0x1F NOT AND SWAP3 SWAP1 SWAP3 ADD PUSH1 0x40 ADD SWAP4 SWAP3 POP POP POP JUMP JUMPDEST PUSH4 0x4E487B71 PUSH1 0xE0 SHL PUSH1 0x0 MSTORE PUSH1 0x41 PUSH1 0x4 MSTORE PUSH1 0x24 PUSH1 0x0 REVERT JUMPDEST DUP1 MLOAD PUSH2 0x2692 DUP2 PUSH2 0x45FF JUMP JUMPDEST PUSH1 0x0 PUSH1 0x20 DUP1 DUP4 DUP6 SUB SLT ISZERO PUSH2 0x4884 JUMPI PUSH1 0x0 DUP1 REVERT JUMPDEST DUP3 MLOAD PUSH8 0xFFFFFFFFFFFFFFFF DUP1 DUP3 GT ISZERO PUSH2 0x489C JUMPI PUSH1 0x0 DUP1 REVERT JUMPDEST DUP2 DUP6 ADD SWAP2 POP DUP6 PUSH1 0x1F DUP4 ADD SLT PUSH2 0x48B0 JUMPI PUSH1 0x0 DUP1 REVERT JUMPDEST DUP2 MLOAD DUP2 DUP2 GT ISZERO PUSH2 0x48C2 JUMPI PUSH2 0x48C2 PUSH2 0x4850 JUMP JUMPDEST DUP1 PUSH1 0x5 SHL PUSH1 0x40 MLOAD PUSH1 0x1F NOT PUSH1 0x3F DUP4 ADD AND DUP2 ADD DUP2 DUP2 LT DUP6 DUP3 GT OR ISZERO PUSH2 0x48E7 JUMPI PUSH2 0x48E7 PUSH2 0x4850 JUMP JUMPDEST PUSH1 0x40 MSTORE SWAP2 DUP3 MSTORE DUP5 DUP3 ADD SWAP3 POP DUP4 DUP2 ADD DUP6 ADD SWAP2 DUP9 DUP4 GT ISZERO PUSH2 0x4905 JUMPI PUSH1 0x0 DUP1 REVERT JUMPDEST SWAP4 DUP6 ADD SWAP4 JUMPDEST DUP3 DUP6 LT ISZERO PUSH2 0x492A JUMPI PUSH2 0x491B DUP6 PUSH2 0x4866 JUMP JUMPDEST DUP5 MSTORE SWAP4 DUP6 ADD SWAP4 SWAP3 DUP6 ADD SWAP3 PUSH2 0x490A JUMP JUMPDEST SWAP9 SWAP8 POP POP POP POP POP POP POP POP JUMP JUMPDEST PUSH4 0x4E487B71 PUSH1 0xE0 SHL PUSH1 0x0 MSTORE PUSH1 0x32 PUSH1 0x4 MSTORE PUSH1 0x24 PUSH1 0x0 REVERT JUMPDEST PUSH4 0x4E487B71 PUSH1 0xE0 SHL PUSH1 0x0 MSTORE PUSH1 0x11 PUSH1 0x4 MSTORE PUSH1 0x24 PUSH1 0x0 REVERT JUMPDEST PUSH1 0x0 PUSH1 0x0 NOT DUP3 EQ ISZERO PUSH2 0x4976 JUMPI PUSH2 0x4976 PUSH2 0x494C JUMP JUMPDEST POP PUSH1 0x1 ADD SWAP1 JUMP JUMPDEST SWAP3 DUP4 MSTORE PUSH1 0x20 DUP4 ADD SWAP2 SWAP1 SWAP2 MSTORE PUSH1 0x1 PUSH1 0x1 PUSH1 0xA0 SHL SUB AND PUSH1 0x40 DUP3 ADD MSTORE PUSH1 0x60 ADD SWAP1 JUMP JUMPDEST PUSH1 0x0 PUSH1 0x20 DUP3 DUP5 SUB SLT ISZERO PUSH2 0x49AE JUMPI PUSH1 0x0 DUP1 REVERT JUMPDEST DUP2 MLOAD PUSH2 0x39E6 DUP2 PUSH2 0x45FF JUMP JUMPDEST PUSH1 0x0 PUSH1 0x20 DUP3 DUP5 SUB SLT ISZERO PUSH2 0x49CB JUMPI PUSH1 0x0 DUP1 REVERT JUMPDEST POP MLOAD SWAP2 SWAP1 POP JUMP JUMPDEST PUSH1 0x0 DUP2 PUSH1 0x0 NOT DIV DUP4 GT DUP3 ISZERO ISZERO AND ISZERO PUSH2 0x49EC JUMPI PUSH2 0x49EC PUSH2 0x494C JUMP JUMPDEST POP MUL SWAP1 JUMP JUMPDEST PUSH1 0x0 DUP3 PUSH2 0x4A0E JUMPI PUSH4 0x4E487B71 PUSH1 0xE0 SHL PUSH1 0x0 MSTORE PUSH1 0x12 PUSH1 0x4 MSTORE PUSH1 0x24 PUSH1 0x0 REVERT JUMPDEST POP DIV SWAP1 JUMP JUMPDEST SWAP2 DUP3 MSTORE PUSH1 0x60 SHL PUSH12 0xFFFFFFFFFFFFFFFFFFFFFFFF NOT AND PUSH1 0x20 DUP3 ADD MSTORE PUSH1 0x34 ADD SWAP1 JUMP JUMPDEST PUSH1 0x0 DUP3 DUP3 LT ISZERO PUSH2 0x4A45 JUMPI PUSH2 0x4A45 PUSH2 0x494C JUMP JUMPDEST POP SUB SWAP1 JUMP JUMPDEST PUSH1 0x0 DUP3 NOT DUP3 GT ISZERO PUSH2 0x4A5D JUMPI PUSH2 0x4A5D PUSH2 0x494C JUMP JUMPDEST POP ADD SWAP1 JUMP JUMPDEST PUSH4 0x4E487B71 PUSH1 0xE0 SHL PUSH1 0x0 MSTORE PUSH1 0x31 PUSH1 0x4 MSTORE PUSH1 0x24 PUSH1 0x0 REVERT INVALID PUSH22 0x6E617574686F72697A65642061636365737300000000 STOP STOP STOP STOP STOP STOP STOP STOP STOP PUSH5 0x6561646C69 PUSH15 0x6520686173206E6F74206265656E20 PUSH19 0x65616368656420796574746865206D696E7465 PUSH19 0x2061646472657373206F6620746865204C5020 PUSH21 0x6F6B656E20616E642074686520706F6F6C20616464 PUSH19 0x65737320646F206E6F74206D61746368A26469 PUSH17 0x6673582212206684EC31EFAFE0EEB4A07D 0xB5 0x2E SWAP15 0x27 0xCE 0x1E 0xEB 0xB6 0xB1 SLOAD RETURNDATASIZE SWAP5 0xCB MSIZE 0xF8 0xD5 0xCF SWAP3 0xC5 0x4B SWAP15 PUSH5 0x736F6C6343 STOP ADDMOD MULMOD STOP CALLER ","sha1":"6d85226d5ee14c549a2e8426adc6074c7c71e056","source":"// SPDX-License-Identifier: GPL-3.0-or-later\npragma solidity 0.8.9;\n\nimport \"../../interfaces/IStakerVault.sol\";\nimport \"../../interfaces/tokenomics/IInflationManager.sol\";\nimport \"../../interfaces/tokenomics/IKeeperGauge.sol\";\nimport \"../../interfaces/tokenomics/IAmmGauge.sol\";\n\nimport \"../../libraries/EnumerableMapping.sol\";\nimport \"../../libraries/EnumerableExtensions.sol\";\nimport \"../../libraries/AddressProviderHelpers.sol\";\n\nimport \"./Minter.sol\";\nimport \"../utils/Preparable.sol\";\nimport \"../access/Authorization.sol\";\n\ncontract InflationManager is Authorization, IInflationManager, Preparable {\n    using EnumerableMapping for EnumerableMapping.AddressToAddressMap;\n    using EnumerableExtensions for EnumerableMapping.AddressToAddressMap;\n    using AddressProviderHelpers for IAddressProvider;\n\n    IAddressProvider public immutable addressProvider;\n\n    bytes32 internal constant _KEEPER_WEIGHT_KEY = \"keeperWeight\";\n    bytes32 internal constant _AMM_WEIGHT_KEY = \"ammWeight\";\n    bytes32 internal constant _LP_WEIGHT_KEY = \"lpWeight\";\n\n    address public minter;\n    bool public weightBasedKeeperDistributionDeactivated;\n    uint256 public totalKeeperPoolWeight;\n    uint256 public totalLpPoolWeight;\n    uint256 public totalAmmTokenWeight;\n\n    // Pool -> keeperGauge\n    EnumerableMapping.AddressToAddressMap private _keeperGauges;\n    // AMM token -> ammGauge\n    EnumerableMapping.AddressToAddressMap private _ammGauges;\n\n    mapping(address => bool) public gauges;\n\n    event NewKeeperWeight(address indexed pool, uint256 newWeight);\n    event NewLpWeight(address indexed pool, uint256 newWeight);\n    event NewAmmTokenWeight(address indexed token, uint256 newWeight);\n\n    modifier onlyGauge() {\n        require(gauges[msg.sender], Error.UNAUTHORIZED_ACCESS);\n        _;\n    }\n\n    constructor(IAddressProvider _addressProvider)\n        Authorization(_addressProvider.getRoleManager())\n    {\n        addressProvider = _addressProvider;\n    }\n\n    function setMinter(address _minter) external onlyGovernance returns (bool) {\n        require(minter == address(0), Error.ADDRESS_ALREADY_SET);\n        require(_minter != address(0), Error.INVALID_MINTER);\n        minter = _minter;\n        return true;\n    }\n\n    /**\n     * @notice Advance the keeper gauge for a pool by on epoch.\n     * @param pool Pool for which the keeper gauge is advanced.\n     * @return `true` if successful.\n     */\n    function advanceKeeperGaugeEpoch(address pool) external onlyGovernance returns (bool) {\n        IKeeperGauge(_keeperGauges.get(pool)).advanceEpoch();\n        return true;\n    }\n\n    /**\n     * @notice Mints BKD tokens.\n     * @param beneficiary Address to receive the tokens.\n     * @param amount Amount of tokens to mint.\n     */\n    function mintRewards(address beneficiary, uint256 amount) external override onlyGauge {\n        Minter(minter).mint(beneficiary, amount);\n    }\n\n    /**\n     * @notice Deactivates the weight-based distribution of keeper inflation.\n     * @dev This can only be done once, when the keeper inflation mechanism is altered.\n     * @return `true` if successful.\n     */\n    function deactivateWeightBasedKeeperDistribution() external onlyGovernance returns (bool) {\n        require(!weightBasedKeeperDistributionDeactivated, \"Weight-based dist. deactivated.\");\n        address[] memory liquidityPools = addressProvider.allPools();\n        uint256 length = liquidityPools.length;\n        for (uint256 i = 0; i < length; i++) {\n            _removeKeeperGauge(address(liquidityPools[i]));\n        }\n        weightBasedKeeperDistributionDeactivated = true;\n        return true;\n    }\n\n    /**\n     * @notice Checkpoints all gauges.\n     * @dev This is mostly used upon inflation rate updates.\n     * @return `true` if successful.\n     */\n    function checkpointAllGauges() external override returns (bool) {\n        uint256 length = _keeperGauges.length();\n        for (uint256 i = 0; i < length; i++) {\n            IKeeperGauge(_keeperGauges.valueAt(i)).poolCheckpoint();\n        }\n        address[] memory stakerVaults = addressProvider.allStakerVaults();\n        for (uint256 i = 0; i < stakerVaults.length; i++) {\n            IStakerVault(stakerVaults[i]).poolCheckpoint();\n        }\n\n        length = _ammGauges.length();\n        for (uint256 i = 0; i < length; i++) {\n            IAmmGauge(_ammGauges.valueAt(i)).poolCheckpoint();\n        }\n        return true;\n    }\n\n    /**\n     * @notice Prepare update of a keeper pool weight (with time delay enforced).\n     * @param pool Pool to update the keeper weight for.\n     * @param newPoolWeight New weight for the keeper inflation for the pool.\n     * @return `true` if successful.\n     */\n    function prepareKeeperPoolWeight(address pool, uint256 newPoolWeight)\n        external\n        override\n        onlyGovernance\n        returns (bool)\n    {\n        require(_keeperGauges.contains(pool), Error.INVALID_ARGUMENT);\n        bytes32 key = _getKeeperGaugeKey(pool);\n        _prepare(key, newPoolWeight);\n        return true;\n    }\n\n    /**\n     * @notice Execute update of keeper pool weight (with time delay enforced).\n     * @param pool Pool to execute the keeper weight update for.\n     * @dev Needs to be called after the update was prepraed. Fails if called before time delay is met.\n     * @return New keeper pool weight.\n     */\n    function executeKeeperPoolWeight(address pool) external override returns (uint256) {\n        bytes32 key = _getKeeperGaugeKey(pool);\n        _executeKeeperPoolWeight(key, pool, isInflationWeightManager(msg.sender));\n        return currentUInts256[key];\n    }\n\n    /**\n     * @notice Prepare update of a batch of keeperGauge weights (with time delay enforced).\n     * @dev Each entry in the pools array corresponds to an entry in the weights array.\n     * @param pools Pools to update the keeper weight for.\n     * @param weights New weights for the keeper inflation for the pools.\n     * @return `true` if successful.\n     */\n    function batchPrepareKeeperPoolWeights(address[] calldata pools, uint256[] calldata weights)\n        external\n        override\n        onlyGovernance\n        returns (bool)\n    {\n        uint256 length = pools.length;\n        require(length == weights.length, Error.INVALID_ARGUMENT);\n        bytes32 key;\n        for (uint256 i = 0; i < length; i++) {\n            require(_keeperGauges.contains(pools[i]), Error.INVALID_ARGUMENT);\n            key = _getKeeperGaugeKey(pools[i]);\n            _prepare(key, weights[i]);\n        }\n        return true;\n    }\n\n    function whitelistGauge(address gauge) external onlyRole(Roles.CONTROLLER) {\n        gauges[gauge] = true;\n    }\n\n    /**\n     * @notice Execute weight updates for a batch of _keeperGauges.\n     * @param pools Pools to execute the keeper weight updates for.\n     * @return `true` if successful.\n     */\n    function batchExecuteKeeperPoolWeights(address[] calldata pools)\n        external\n        override\n        onlyRoles2(Roles.GOVERNANCE, Roles.INFLATION_MANAGER)\n        returns (bool)\n    {\n        uint256 length = pools.length;\n        bytes32 key;\n        for (uint256 i = 0; i < length; i++) {\n            key = _getKeeperGaugeKey(pools[i]);\n            _executeKeeperPoolWeight(key, pools[i], isInflationWeightManager(msg.sender));\n        }\n        return true;\n    }\n\n    function removeStakerVaultFromInflation(address stakerVault, address lpToken)\n        external\n        onlyRole(Roles.CONTROLLER)\n    {\n        bytes32 key = _getLpStakerVaultKey(stakerVault);\n        _prepare(key, 0);\n        _executeLpPoolWeight(key, lpToken, stakerVault, true);\n    }\n\n    /**\n     * @notice Prepare update of a lp pool weight (with time delay enforced).\n     * @param lpToken LP token to update the weight for.\n     * @param newPoolWeight New LP inflation weight.\n     * @return `true` if successful.\n     */\n    function prepareLpPoolWeight(address lpToken, uint256 newPoolWeight)\n        external\n        override\n        onlyRoles2(Roles.GOVERNANCE, Roles.INFLATION_MANAGER)\n        returns (bool)\n    {\n        address stakerVault = addressProvider.getStakerVault(lpToken);\n        // Require both that gauge is registered and that pool is still in action\n        require(gauges[IStakerVault(stakerVault).getLpGauge()], Error.GAUGE_DOES_NOT_EXIST);\n        _ensurePoolExists(lpToken);\n        bytes32 key = _getLpStakerVaultKey(stakerVault);\n        _prepare(key, newPoolWeight);\n        return true;\n    }\n\n    /**\n     * @notice Execute update of lp pool weight (with time delay enforced).\n     * @dev Needs to be called after the update was prepared. Fails if called before time delay is met.\n     * @return New lp pool weight.\n     */\n    function executeLpPoolWeight(address lpToken) external override returns (uint256) {\n        address stakerVault = addressProvider.getStakerVault(lpToken);\n        // Require both that gauge is registered and that pool is still in action\n        require(IStakerVault(stakerVault).getLpGauge() != address(0), Error.ADDRESS_NOT_FOUND);\n        _ensurePoolExists(lpToken);\n        bytes32 key = _getLpStakerVaultKey(stakerVault);\n        _executeLpPoolWeight(key, lpToken, stakerVault, isInflationWeightManager(msg.sender));\n        return currentUInts256[key];\n    }\n\n    /**\n     * @notice Prepare update of a batch of LP token weights (with time delay enforced).\n     * @dev Each entry in the lpTokens array corresponds to an entry in the weights array.\n     * @param lpTokens LpTokens to update the inflation weight for.\n     * @param weights New weights for the inflation for the LpTokens.\n     * @return `true` if successful.\n     */\n    function batchPrepareLpPoolWeights(address[] calldata lpTokens, uint256[] calldata weights)\n        external\n        override\n        onlyRoles2(Roles.GOVERNANCE, Roles.INFLATION_MANAGER)\n        returns (bool)\n    {\n        uint256 length = lpTokens.length;\n        require(length == weights.length, \"Invalid length of arguments\");\n        bytes32 key;\n        for (uint256 i = 0; i < length; i++) {\n            address stakerVault = addressProvider.getStakerVault(lpTokens[i]);\n            // Require both that gauge is registered and that pool is still in action\n            require(IStakerVault(stakerVault).getLpGauge() != address(0), Error.ADDRESS_NOT_FOUND);\n            _ensurePoolExists(lpTokens[i]);\n            key = _getLpStakerVaultKey(stakerVault);\n            _prepare(key, weights[i]);\n        }\n        return true;\n    }\n\n    /**\n     * @notice Execute weight updates for a batch of LpTokens.\n     * @dev If this is called by the INFLATION_MANAGER role address, no time delay is enforced.\n     * @param lpTokens LpTokens to execute the weight updates for.\n     * @return `true` if successful.\n     */\n    function batchExecuteLpPoolWeights(address[] calldata lpTokens)\n        external\n        override\n        onlyRoles2(Roles.GOVERNANCE, Roles.INFLATION_MANAGER)\n        returns (bool)\n    {\n        uint256 length = lpTokens.length;\n        for (uint256 i = 0; i < length; i++) {\n            address lpToken = lpTokens[i];\n            address stakerVault = addressProvider.getStakerVault(lpToken);\n            // Require both that gauge is registered and that pool is still in action\n            require(IStakerVault(stakerVault).getLpGauge() != address(0), Error.ADDRESS_NOT_FOUND);\n            _ensurePoolExists(lpToken);\n            bytes32 key = _getLpStakerVaultKey(stakerVault);\n            _executeLpPoolWeight(key, lpToken, stakerVault, isInflationWeightManager(msg.sender));\n        }\n        return true;\n    }\n\n    /**\n     * @notice Prepare an inflation weight update for an AMM token (with time delay enforced).\n     * @param token AMM token to update the weight for.\n     * @param newTokenWeight New AMM token inflation weight.\n     * @return `true` if successful.\n     */\n    function prepareAmmTokenWeight(address token, uint256 newTokenWeight)\n        external\n        override\n        onlyRoles2(Roles.GOVERNANCE, Roles.INFLATION_MANAGER)\n        returns (bool)\n    {\n        require(_ammGauges.contains(token), \"amm gauge not found\");\n        bytes32 key = _getAmmGaugeKey(token);\n        _prepare(key, newTokenWeight);\n        return true;\n    }\n\n    /**\n     * @notice Execute update of lp pool weight (with time delay enforced).\n     * @dev Needs to be called after the update was prepraed. Fails if called before time delay is met.\n     * @return New lp pool weight.\n     */\n    function executeAmmTokenWeight(address token) external override returns (uint256) {\n        bytes32 key = _getAmmGaugeKey(token);\n        _executeAmmTokenWeight(token, key, isInflationWeightManager(msg.sender));\n        return currentUInts256[key];\n    }\n\n    /**\n     * @notice Registers a pool's strategy with the stakerVault of the pool where the strategy deposits.\n     * @dev This simply avoids the strategy accumulating tokens in the deposit pool.\n     * @param depositStakerVault StakerVault of the pool where the strategy deposits.\n     * @param strategyPool The pool of the strategy to register (avoids blacklisting other addresses).\n     * @return `true` if successful.\n     */\n    function addStrategyToDepositStakerVault(address depositStakerVault, address strategyPool)\n        external\n        onlyGovernance\n        returns (bool)\n    {\n        IVault _vault = ILiquidityPool(strategyPool).getVault();\n        IStakerVault(depositStakerVault).addStrategy(address(_vault.getStrategy()));\n        return true;\n    }\n\n    /**\n     * @notice Prepare update of a batch of AMM token weights (with time delay enforced).\n     * @dev Each entry in the tokens array corresponds to an entry in the weights array.\n     * @param tokens AMM tokens to update the inflation weight for.\n     * @param weights New weights for the inflation for the AMM tokens.\n     * @return `true` if successful.\n     */\n    function batchPrepareAmmTokenWeights(address[] calldata tokens, uint256[] calldata weights)\n        external\n        override\n        onlyRoles2(Roles.GOVERNANCE, Roles.INFLATION_MANAGER)\n        returns (bool)\n    {\n        uint256 length = tokens.length;\n        bytes32 key;\n        require(length == weights.length, \"Invalid length of arguments\");\n        for (uint256 i = 0; i < length; i++) {\n            require(_ammGauges.contains(tokens[i]), \"amm gauge not found\");\n            key = _getAmmGaugeKey(tokens[i]);\n            _prepare(key, weights[i]);\n        }\n        return true;\n    }\n\n    /**\n     * @notice Execute weight updates for a batch of AMM tokens.\n     * @dev If this is called by the INFLATION_MANAGER role address, no time delay is enforced.\n     * @param tokens AMM tokens to execute the weight updates for.\n     * @return `true` if successful.\n     */\n    function batchExecuteAmmTokenWeights(address[] calldata tokens)\n        external\n        override\n        onlyRoles2(Roles.GOVERNANCE, Roles.INFLATION_MANAGER)\n        returns (bool)\n    {\n        uint256 length = tokens.length;\n        bool isWeightManager = isInflationWeightManager(msg.sender);\n        bytes32 key;\n        address token;\n        for (uint256 i = 0; i < length; i++) {\n            token = tokens[i];\n            key = _getAmmGaugeKey(token);\n            _executeAmmTokenWeight(token, key, isWeightManager);\n        }\n        return true;\n    }\n\n    /**\n     * @notice Sets the KeeperGauge for a pool.\n     * @dev Multiple pools can have the same KeeperGauge.\n     * @param pool Address of pool to set the KeeperGauge for.\n     * @param _keeperGauge Address of KeeperGauge.\n     * @return `true` if successful.\n     */\n    function setKeeperGauge(address pool, address _keeperGauge)\n        external\n        override\n        onlyGovernance\n        returns (bool)\n    {\n        uint256 length = _keeperGauges.length();\n        bool keeperGaugeExists = false;\n        for (uint256 i = 0; i < length; i++) {\n            if (address(_keeperGauges.valueAt(i)) == _keeperGauge) {\n                keeperGaugeExists = true;\n                break;\n            }\n        }\n        // Check to make sure that once weight-based dist is deactivated, only one gauge can exist\n        if (!keeperGaugeExists && weightBasedKeeperDistributionDeactivated && length >= 1) {\n            return false;\n        }\n        (bool exists, address keeperGauge) = _keeperGauges.tryGet(pool);\n        require(!exists || keeperGauge != _keeperGauge, Error.INVALID_ARGUMENT);\n\n        if (exists && !IKeeperGauge(keeperGauge).killed()) {\n            IKeeperGauge(keeperGauge).poolCheckpoint();\n            IKeeperGauge(keeperGauge).kill();\n        }\n        _keeperGauges.set(pool, _keeperGauge);\n        gauges[_keeperGauge] = true;\n        return true;\n    }\n\n    function removeKeeperGauge(address pool) external onlyGovernance returns (bool) {\n        _removeKeeperGauge(pool);\n        return true;\n    }\n\n    /**\n     * @notice Sets the AmmGauge for a particular AMM token.\n     * @param token Address of the amm token.\n     * @param _ammGauge Address of AmmGauge.\n     * @return `true` if successful.\n     */\n    function setAmmGauge(address token, address _ammGauge)\n        external\n        override\n        onlyGovernance\n        returns (bool)\n    {\n        require(IAmmGauge(_ammGauge).isAmmToken(token), Error.ADDRESS_NOT_WHITELISTED);\n        uint256 length = _ammGauges.length();\n        for (uint256 i = 0; i < length; i++) {\n            if (address(_ammGauges.valueAt(i)) == _ammGauge) {\n                return false;\n            }\n        }\n        if (_ammGauges.contains(token)) {\n            address ammGauge = _ammGauges.get(token);\n            IAmmGauge(ammGauge).poolCheckpoint();\n            IAmmGauge(ammGauge).kill();\n        }\n        _ammGauges.set(token, _ammGauge);\n        gauges[_ammGauge] = true;\n        return true;\n    }\n\n    function removeAmmGauge(address token) external onlyGovernance returns (bool) {\n        if (!_ammGauges.contains(token)) return false;\n        address ammGauge = _ammGauges.get(token);\n        bytes32 key = _getAmmGaugeKey(token);\n        _prepare(key, 0);\n        _executeAmmTokenWeight(token, key, true);\n        IAmmGauge(ammGauge).kill();\n        _ammGauges.remove(token);\n        // Do not delete from the gauges map to allow claiming of remaining balances\n        emit AmmGaugeDelisted(token, ammGauge);\n        return true;\n    }\n\n    function addGaugeForVault(address lpToken) external override returns (bool) {\n        IStakerVault _stakerVault = IStakerVault(msg.sender);\n        require(addressProvider.isStakerVault(msg.sender, lpToken), Error.UNAUTHORIZED_ACCESS);\n        address lpGauge = _stakerVault.getLpGauge();\n        require(lpGauge != address(0), Error.GAUGE_DOES_NOT_EXIST);\n        gauges[lpGauge] = true;\n        return true;\n    }\n\n    function getAllAmmGauges() external view override returns (address[] memory) {\n        return _ammGauges.valuesArray();\n    }\n\n    function getLpRateForStakerVault(address stakerVault) external view override returns (uint256) {\n        if (minter == address(0) || totalLpPoolWeight == 0) {\n            return 0;\n        }\n\n        bytes32 key = _getLpStakerVaultKey(stakerVault);\n        uint256 lpInflationRate = Minter(minter).getLpInflationRate();\n        uint256 poolInflationRate = (currentUInts256[key] * lpInflationRate) / totalLpPoolWeight;\n\n        return poolInflationRate;\n    }\n\n    function getKeeperRateForPool(address pool) external view override returns (uint256) {\n        if (minter == address(0)) {\n            return 0;\n        }\n        uint256 keeperInflationRate = Minter(minter).getKeeperInflationRate();\n        // After deactivation of weight based dist, KeeperGauge handles the splitting\n        if (weightBasedKeeperDistributionDeactivated) return keeperInflationRate;\n        if (totalKeeperPoolWeight == 0) return 0;\n        bytes32 key = _getKeeperGaugeKey(pool);\n        uint256 poolInflationRate = (currentUInts256[key] * keeperInflationRate) /\n            totalKeeperPoolWeight;\n        return poolInflationRate;\n    }\n\n    function getAmmRateForToken(address token) external view override returns (uint256) {\n        if (minter == address(0) || totalAmmTokenWeight == 0) {\n            return 0;\n        }\n        bytes32 key = _getAmmGaugeKey(token);\n        uint256 ammInflationRate = Minter(minter).getAmmInflationRate();\n        uint256 ammTokenInflationRate = (currentUInts256[key] * ammInflationRate) /\n            totalAmmTokenWeight;\n        return ammTokenInflationRate;\n    }\n\n    //TOOD: See if this is still needed somewhere\n    function getKeeperWeightForPool(address pool) external view override returns (uint256) {\n        bytes32 key = _getKeeperGaugeKey(pool);\n        return currentUInts256[key];\n    }\n\n    function getAmmWeightForToken(address token) external view override returns (uint256) {\n        bytes32 key = _getAmmGaugeKey(token);\n        return currentUInts256[key];\n    }\n\n    function getLpPoolWeight(address lpToken) external view override returns (uint256) {\n        address stakerVault = addressProvider.getStakerVault(lpToken);\n        bytes32 key = _getLpStakerVaultKey(stakerVault);\n        return currentUInts256[key];\n    }\n\n    function getKeeperGaugeForPool(address pool) external view override returns (address) {\n        (, address keeperGauge) = _keeperGauges.tryGet(pool);\n        return keeperGauge;\n    }\n\n    function getAmmGaugeForToken(address token) external view override returns (address) {\n        (, address ammGauge) = _ammGauges.tryGet(token);\n        return ammGauge;\n    }\n\n    /**\n     * @notice Check if an account is governance proxy.\n     * @param account Address to check.\n     * @return `true` if account is governance proxy.\n     */\n    function isInflationWeightManager(address account) public view override returns (bool) {\n        return _roleManager().hasRole(Roles.INFLATION_MANAGER, account);\n    }\n\n    function _executeKeeperPoolWeight(\n        bytes32 key,\n        address pool,\n        bool isWeightManager\n    ) internal returns (bool) {\n        IKeeperGauge(_keeperGauges.get(pool)).poolCheckpoint();\n        totalKeeperPoolWeight = totalKeeperPoolWeight - currentUInts256[key] + pendingUInts256[key];\n        totalKeeperPoolWeight = totalKeeperPoolWeight > 0 ? totalKeeperPoolWeight : 0;\n        isWeightManager ? _setConfig(key, pendingUInts256[key]) : _executeUInt256(key);\n        emit NewKeeperWeight(pool, currentUInts256[key]);\n        return true;\n    }\n\n    function _executeLpPoolWeight(\n        bytes32 key,\n        address lpToken,\n        address stakerVault,\n        bool isWeightManager\n    ) internal returns (bool) {\n        IStakerVault(stakerVault).poolCheckpoint();\n        totalLpPoolWeight = totalLpPoolWeight - currentUInts256[key] + pendingUInts256[key];\n        totalLpPoolWeight = totalLpPoolWeight > 0 ? totalLpPoolWeight : 0;\n        isWeightManager ? _setConfig(key, pendingUInts256[key]) : _executeUInt256(key);\n        emit NewLpWeight(lpToken, currentUInts256[key]);\n        return true;\n    }\n\n    function _executeAmmTokenWeight(\n        address token,\n        bytes32 key,\n        bool isWeightManager\n    ) internal returns (bool) {\n        IAmmGauge(_ammGauges.get(token)).poolCheckpoint();\n        totalAmmTokenWeight = totalAmmTokenWeight - currentUInts256[key] + pendingUInts256[key];\n        totalAmmTokenWeight = totalAmmTokenWeight > 0 ? totalAmmTokenWeight : 0;\n        isWeightManager ? _setConfig(key, pendingUInts256[key]) : _executeUInt256(key);\n        // Do pool checkpoint to update the pool integrals\n        emit NewAmmTokenWeight(token, currentUInts256[key]);\n        return true;\n    }\n\n    function _removeKeeperGauge(address pool) internal {\n        address keeperGauge = _keeperGauges.get(pool);\n        bytes32 key = _getKeeperGaugeKey(pool);\n        _prepare(key, 0);\n        _executeKeeperPoolWeight(key, pool, true);\n        _keeperGauges.remove(pool);\n        IKeeperGauge(keeperGauge).kill();\n        // Do not delete from the gauges map to allow claiming of remaining balances\n        emit KeeperGaugeDelisted(pool, keeperGauge);\n    }\n\n    function _ensurePoolExists(address lpToken) internal view {\n        require(\n            address(addressProvider.safeGetPoolForToken(lpToken)) != address(0),\n            Error.ADDRESS_NOT_FOUND\n        );\n    }\n\n    function _getKeeperGaugeKey(address pool) internal pure returns (bytes32) {\n        return keccak256(abi.encodePacked(_KEEPER_WEIGHT_KEY, pool));\n    }\n\n    function _getAmmGaugeKey(address token) internal pure returns (bytes32) {\n        return keccak256(abi.encodePacked(_AMM_WEIGHT_KEY, token));\n    }\n\n    function _getLpStakerVaultKey(address vault) internal pure returns (bytes32) {\n        return keccak256(abi.encodePacked(_LP_WEIGHT_KEY, vault));\n    }\n}\n","sourcePath":"contracts/tokenomics/InflationManager.sol","type":"contract","deployment":{"address":"0x92B181F5e15CA1d294E077a9B99a156d15c9Ea67","chainid":"42","blockHeight":30414949}}