{"abi":[{"inputs":[{"internalType":"contract IController","name":"_controller","type":"address"},{"internalType":"address","name":"_pool","type":"address"}],"stateMutability":"nonpayable","type":"constructor","name":"constructor"},{"inputs":[],"name":"advanceEpoch","outputs":[{"internalType":"bool","name":"","type":"bool"}],"stateMutability":"nonpayable","type":"function"},{"inputs":[{"internalType":"address","name":"beneficiary","type":"address"},{"internalType":"uint256","name":"endEpoch","type":"uint256"}],"name":"claimRewards","outputs":[{"internalType":"uint256","name":"","type":"uint256"}],"stateMutability":"nonpayable","type":"function"},{"inputs":[{"internalType":"address","name":"beneficiary","type":"address"}],"name":"claimRewards","outputs":[{"internalType":"uint256","name":"","type":"uint256"}],"stateMutability":"nonpayable","type":"function"},{"inputs":[{"internalType":"address","name":"beneficiary","type":"address"}],"name":"claimableRewards","outputs":[{"internalType":"uint256","name":"","type":"uint256"}],"stateMutability":"view","type":"function"},{"inputs":[],"name":"controller","outputs":[{"internalType":"contract IController","name":"","type":"address"}],"stateMutability":"view","type":"function"},{"inputs":[],"name":"epoch","outputs":[{"internalType":"uint256","name":"","type":"uint256"}],"stateMutability":"view","type":"function"},{"inputs":[{"internalType":"address","name":"","type":"address"}],"name":"keeperRecords","outputs":[{"internalType":"uint256","name":"nextEpochToClaim","type":"uint256"},{"internalType":"bool","name":"firstEpochSet","type":"bool"}],"stateMutability":"view","type":"function"},{"inputs":[],"name":"kill","outputs":[{"internalType":"bool","name":"","type":"bool"}],"stateMutability":"nonpayable","type":"function"},{"inputs":[],"name":"killed","outputs":[{"internalType":"bool","name":"","type":"bool"}],"stateMutability":"view","type":"function"},{"inputs":[],"name":"lastUpdated","outputs":[{"internalType":"uint48","name":"","type":"uint48"}],"stateMutability":"view","type":"function"},{"inputs":[{"internalType":"uint256","name":"","type":"uint256"}],"name":"perPeriodTotalFees","outputs":[{"internalType":"uint256","name":"","type":"uint256"}],"stateMutability":"view","type":"function"},{"inputs":[{"internalType":"uint256","name":"","type":"uint256"}],"name":"perPeriodTotalInflation","outputs":[{"internalType":"uint256","name":"","type":"uint256"}],"stateMutability":"view","type":"function"},{"inputs":[],"name":"pool","outputs":[{"internalType":"address","name":"","type":"address"}],"stateMutability":"view","type":"function"},{"inputs":[],"name":"poolCheckpoint","outputs":[{"internalType":"bool","name":"","type":"bool"}],"stateMutability":"nonpayable","type":"function"},{"inputs":[{"internalType":"address","name":"beneficiary","type":"address"},{"internalType":"uint256","name":"amount","type":"uint256"},{"internalType":"address","name":"lpTokenAddress","type":"address"}],"name":"reportFees","outputs":[{"internalType":"bool","name":"","type":"bool"}],"stateMutability":"nonpayable","type":"function"},{"inputs":[],"name":"roleManager","outputs":[{"internalType":"contract IRoleManager","name":"","type":"address"}],"stateMutability":"view","type":"function"}],"bytecode":"60e06040523480156200001157600080fd5b506040516200122c3803806200122c8339810160408190526200003491620001a9565b620000c7826001600160a01b0316632954018c6040518163ffffffff1660e01b815260040160206040518083038186803b1580156200007257600080fd5b505afa15801562000087573d6000803e3d6000fd5b505050506040513d601f19601f82011682018060405250810190620000ad9190620001e8565b6001600160a01b0316620000fe60201b62000b3b1760201c565b6001600160a01b0390811660805291821660a0521660c0526003805465ffffffffffff19164265ffffffffffff161790556200020f565b6040516321f8a72160e01b81526a3937b632a6b0b730b3b2b960a91b60048201526000906001600160a01b038316906321f8a7219060240160206040518083038186803b1580156200014f57600080fd5b505afa15801562000164573d6000803e3d6000fd5b505050506040513d601f19601f820116820180604052508101906200018a9190620001e8565b92915050565b6001600160a01b0381168114620001a657600080fd5b50565b60008060408385031215620001bd57600080fd5b8251620001ca8162000190565b6020840151909250620001dd8162000190565b809150509250929050565b600060208284031215620001fb57600080fd5b8151620002088162000190565b9392505050565b60805160a05160c051610fbc6200027060003960008181610148015261085d0152600081816102b2015281816102d80152818161054d01528181610664015281816107b70152610c45015260008181610106015261094b0152610fbc6000f3fe608060405234801561001057600080fd5b50600436106100ff5760003560e01c806383c70f9711610097578063d0b06f5d11610066578063d0b06f5d1461025e578063dc01f60d14610287578063ef5cfb8c1461029a578063f77c4791146102ad57600080fd5b806383c70f97146101e057806385e4de1b14610200578063900cf0cf146102425780639a99b4f01461024b57600080fd5b80633cf80e6c116100d35780633cf80e6c1461019a57806341c0e1b5146101a25780634c56c559146101aa5780635790a0c8146101d857600080fd5b8062435da51461010457806316f0115b146101435780631ec360681461016a5780631f3a0e411461018d575b600080fd5b7f00000000000000000000000000000000000000000000000000000000000000005b6040516001600160a01b0390911681526020015b60405180910390f35b6101267f000000000000000000000000000000000000000000000000000000000000000081565b61017d610178366004610d94565b6102d4565b604051901515815260200161013a565b60055461017d9060ff1681565b61017d610549565b61017d610660565b6101ca6101b8366004610dd6565b60016020526000908152604090205481565b60405190815260200161013a565b61017d610785565b6101ca6101ee366004610dd6565b60046020526000908152604090205481565b61022d61020e366004610def565b6000602081905290815260409020600181015460029091015460ff1682565b6040805192835290151560208301520161013a565b6101ca60025481565b6101ca610259366004610e0c565b610935565b6003546102709065ffffffffffff1681565b60405165ffffffffffff909116815260200161013a565b6101ca610295366004610def565b610afd565b6101ca6102a8366004610def565b610b2d565b6101267f000000000000000000000000000000000000000000000000000000000000000081565b60007f00000000000000000000000000000000000000000000000000000000000000006001600160a01b0316632954018c6040518163ffffffff1660e01b815260040160206040518083038186803b15801561032f57600080fd5b505afa158015610343573d6000803e3d6000fd5b505050506040513d601f19601f820116820180604052508101906103679190610e38565b604051631fd4b62560e21b81523360048201526001600160a01b039190911690637f52d8949060240160206040518083038186803b1580156103a857600080fd5b505afa1580156103bc573d6000803e3d6000fd5b505050506040513d601f19601f820116820180604052508101906103e09190610e55565b6040518060400160405280601781526020017f61646472657373206e6f742077686974656c69737465640000000000000000008152509061043d5760405162461bcd60e51b81526004016104349190610e77565b60405180910390fd5b5060055460408051808201909152601281527118dbdb9d1c9858dd081a5cc81c185d5cd95960721b60208201529060ff161561048c5760405162461bcd60e51b81526004016104349190610e77565b506001600160a01b03841660009081526020819052604090206002015460ff166104e1576001600160a01b03841660009081526020819052604090206002808201805460ff1916600190811790915590549101555b6001600160a01b038416600090815260208181526040808320600254845290915281208054859290610514908490610ee2565b90915550506002546000908152600160205260408120805485929061053a908490610ee2565b90915550600195945050505050565b60007f00000000000000000000000000000000000000000000000000000000000000006001600160a01b031663dbcd89fa6040518163ffffffff1660e01b815260040160206040518083038186803b1580156105a457600080fd5b505afa1580156105b8573d6000803e3d6000fd5b505050506040513d601f19601f820116820180604052508101906105dc9190610e38565b6001600160a01b0316336001600160a01b03161460405180604001604052806013815260200172756e617574686f72697a65642061636365737360681b8152509061063a5760405162461bcd60e51b81526004016104349190610e77565b50610643610785565b506002805490600061065483610efa565b91905055506001905090565b60007f00000000000000000000000000000000000000000000000000000000000000006001600160a01b031663dbcd89fa6040518163ffffffff1660e01b815260040160206040518083038186803b1580156106bb57600080fd5b505afa1580156106cf573d6000803e3d6000fd5b505050506040513d601f19601f820116820180604052508101906106f39190610e38565b6001600160a01b0316336001600160a01b03161460405180604001604052806013815260200172756e617574686f72697a65642061636365737360681b815250906107515760405162461bcd60e51b81526004016104349190610e77565b5061075a610785565b506002805490600061076b83610efa565b90915550506005805460ff19166001908117909155905090565b60055460009060ff16156107995750600090565b6003546000906107b19065ffffffffffff1642610f15565b905060007f00000000000000000000000000000000000000000000000000000000000000006001600160a01b031663dbcd89fa6040518163ffffffff1660e01b815260040160206040518083038186803b15801561080e57600080fd5b505afa158015610822573d6000803e3d6000fd5b505050506040513d601f19601f820116820180604052508101906108469190610e38565b60405163271a15bf60e21b81526001600160a01b037f0000000000000000000000000000000000000000000000000000000000000000811660048301529190911690639c6856fc9060240160206040518083038186803b1580156108a957600080fd5b505afa1580156108bd573d6000803e3d6000fd5b505050506040513d601f19601f820116820180604052508101906108e19190610f2c565b90506108ed8282610f45565b6002546000908152600460205260408120805490919061090e908490610ee2565b90915550506003805465ffffffffffff19164265ffffffffffff1617905550600192915050565b6000336001600160a01b03841614806109f557507f0000000000000000000000000000000000000000000000000000000000000000604051632474521560e21b815268067617567655f7a61760bc1b60048201523360248201526001600160a01b0391909116906391d148549060440160206040518083038186803b1580156109bd57600080fd5b505afa1580156109d1573d6000803e3d6000fd5b505050506040513d601f19601f820116820180604052508101906109f59190610e55565b60405180604001604052806013815260200172756e617574686f72697a65642061636365737360681b81525090610a3f5760405162461bcd60e51b81526004016104349190610e77565b50600254821115610a505760025491505b6001600160a01b038316600090815260208190526040812060010154610a7890859085610bc3565b6001600160a01b038516600090815260208181526040918290206001018690558151808301909252601982527f7a65726f207472616e73666572206e6f7420616c6c6f776564000000000000009082015290915081610aea5760405162461bcd60e51b81526004016104349190610e77565b50610af58482610c41565b509392505050565b6001600160a01b038116600090815260208190526040812060010154600254610b27918491610bc3565b92915050565b6000610b2782600254610935565b6040516321f8a72160e01b81526a3937b632a6b0b730b3b2b960a91b60048201526000906001600160a01b038316906321f8a7219060240160206040518083038186803b158015610b8b57600080fd5b505afa158015610b9f573d6000803e3d6000fd5b505050506040513d601f19601f82011682018060405250810190610b279190610e38565b600080835b83811015610c385760008181526004602090815260408083205460018352818420546001600160a01b038b168552848452828520868652909352922054610c1a9291610c149190610d41565b90610d67565b610c249083610ee2565b915080610c3081610efa565b915050610bc8565b50949350505050565b60007f00000000000000000000000000000000000000000000000000000000000000006001600160a01b031663dbcd89fa6040518163ffffffff1660e01b815260040160206040518083038186803b158015610c9c57600080fd5b505afa158015610cb0573d6000803e3d6000fd5b505050506040513d601f19601f82011682018060405250810190610cd49190610e38565b6040516335106f4960e11b81526001600160a01b038581166004830152602482018590529190911690636a20de9290604401600060405180830381600087803b158015610d2057600080fd5b505af1158015610d34573d6000803e3d6000fd5b5060019695505050505050565b600081610d56670de0b6b3a764000085610f45565b610d609190610f64565b9392505050565b6000670de0b6b3a7640000610d568385610f45565b6001600160a01b0381168114610d9157600080fd5b50565b600080600060608486031215610da957600080fd5b8335610db481610d7c565b9250602084013591506040840135610dcb81610d7c565b809150509250925092565b600060208284031215610de857600080fd5b5035919050565b600060208284031215610e0157600080fd5b8135610d6081610d7c565b60008060408385031215610e1f57600080fd5b8235610e2a81610d7c565b946020939093013593505050565b600060208284031215610e4a57600080fd5b8151610d6081610d7c565b600060208284031215610e6757600080fd5b81518015158114610d6057600080fd5b600060208083528351808285015260005b81811015610ea457858101830151858201604001528201610e88565b81811115610eb6576000604083870101525b50601f01601f1916929092016040019392505050565b634e487b7160e01b600052601160045260246000fd5b60008219821115610ef557610ef5610ecc565b500190565b6000600019821415610f0e57610f0e610ecc565b5060010190565b600082821015610f2757610f27610ecc565b500390565b600060208284031215610f3e57600080fd5b5051919050565b6000816000190483118215151615610f5f57610f5f610ecc565b500290565b600082610f8157634e487b7160e01b600052601260045260246000fd5b50049056fea2646970667358221220680e4f57d8be3cfcbdb562ad358c85481a8687de02ed5da78645e521e1ca530d64736f6c63430008090033","bytecodeSha1":"d1d5c4b9e472935a6a029d9329e93661a9e85070","compiler":{"evm_version":"london","optimizer":{"enabled":true,"runs":200},"version":"0.8.9+commit.e5eed63a"},"contractName":"KeeperGauge","language":"Solidity","natspec":{"kind":"dev","methods":{"advanceEpoch()":{"notice":"Advance the inflation accrual epoch.","returns":{"_0":"`true` if successful."}},"claimRewards(address,uint256)":{"notice":"Claim rewards with an epoch up to which they should be claimed specified.","params":{"beneficiary":"Address to claim rewards for.","endEpoch":"Epoch up to which to claim rewards."},"returns":{"_0":"The amount of rewards claimed."}},"kill()":{"details":"Accrued inflation can still be claimed from the gauge after shutdown.","notice":"Shut down the gauge.","returns":{"_0":"`true` if successful."}},"reportFees(address,uint256,address)":{"details":"lpTokenAddress is included for forward compatibility with a single gauge solution.","notice":"Report fees generated by a keeper (this is the basis for inflation accrual).","params":{"amount":"Amount of fees (in lp tokens) earned.","beneficiary":"Address of the keeper who earned the fees.","lpTokenAddress":"Address of the lpToken in which the fees are paid."},"returns":{"_0":"`true` if successful."}}},"version":1},"opcodes":"PUSH1 0x80 PUSH1 0x40 MSTORE CALLVALUE DUP1 ISZERO PUSH2 0x10 JUMPI PUSH1 0x0 DUP1 REVERT JUMPDEST POP PUSH1 0x4 CALLDATASIZE LT PUSH2 0xFF JUMPI PUSH1 0x0 CALLDATALOAD PUSH1 0xE0 SHR DUP1 PUSH4 0x83C70F97 GT PUSH2 0x97 JUMPI DUP1 PUSH4 0xD0B06F5D GT PUSH2 0x66 JUMPI DUP1 PUSH4 0xD0B06F5D EQ PUSH2 0x25E JUMPI DUP1 PUSH4 0xDC01F60D EQ PUSH2 0x287 JUMPI DUP1 PUSH4 0xEF5CFB8C EQ PUSH2 0x29A JUMPI DUP1 PUSH4 0xF77C4791 EQ PUSH2 0x2AD JUMPI PUSH1 0x0 DUP1 REVERT JUMPDEST DUP1 PUSH4 0x83C70F97 EQ PUSH2 0x1E0 JUMPI DUP1 PUSH4 0x85E4DE1B EQ PUSH2 0x200 JUMPI DUP1 PUSH4 0x900CF0CF EQ PUSH2 0x242 JUMPI DUP1 PUSH4 0x9A99B4F0 EQ PUSH2 0x24B JUMPI PUSH1 0x0 DUP1 REVERT JUMPDEST DUP1 PUSH4 0x3CF80E6C GT PUSH2 0xD3 JUMPI DUP1 PUSH4 0x3CF80E6C EQ PUSH2 0x19A JUMPI DUP1 PUSH4 0x41C0E1B5 EQ PUSH2 0x1A2 JUMPI DUP1 PUSH4 0x4C56C559 EQ PUSH2 0x1AA JUMPI DUP1 PUSH4 0x5790A0C8 EQ PUSH2 0x1D8 JUMPI PUSH1 0x0 DUP1 REVERT JUMPDEST DUP1 PUSH3 0x435DA5 EQ PUSH2 0x104 JUMPI DUP1 PUSH4 0x16F0115B EQ PUSH2 0x143 JUMPI DUP1 PUSH4 0x1EC36068 EQ PUSH2 0x16A JUMPI DUP1 PUSH4 0x1F3A0E41 EQ PUSH2 0x18D JUMPI JUMPDEST PUSH1 0x0 DUP1 REVERT JUMPDEST PUSH32 0x0 JUMPDEST PUSH1 0x40 MLOAD PUSH1 0x1 PUSH1 0x1 PUSH1 0xA0 SHL SUB SWAP1 SWAP2 AND DUP2 MSTORE PUSH1 0x20 ADD JUMPDEST PUSH1 0x40 MLOAD DUP1 SWAP2 SUB SWAP1 RETURN JUMPDEST PUSH2 0x126 PUSH32 0x0 DUP2 JUMP JUMPDEST PUSH2 0x17D PUSH2 0x178 CALLDATASIZE PUSH1 0x4 PUSH2 0xD94 JUMP JUMPDEST PUSH2 0x2D4 JUMP JUMPDEST PUSH1 0x40 MLOAD SWAP1 ISZERO ISZERO DUP2 MSTORE PUSH1 0x20 ADD PUSH2 0x13A JUMP JUMPDEST PUSH1 0x5 SLOAD PUSH2 0x17D SWAP1 PUSH1 0xFF AND DUP2 JUMP JUMPDEST PUSH2 0x17D PUSH2 0x549 JUMP JUMPDEST PUSH2 0x17D PUSH2 0x660 JUMP JUMPDEST PUSH2 0x1CA PUSH2 0x1B8 CALLDATASIZE PUSH1 0x4 PUSH2 0xDD6 JUMP JUMPDEST PUSH1 0x1 PUSH1 0x20 MSTORE PUSH1 0x0 SWAP1 DUP2 MSTORE PUSH1 0x40 SWAP1 KECCAK256 SLOAD DUP2 JUMP JUMPDEST PUSH1 0x40 MLOAD SWAP1 DUP2 MSTORE PUSH1 0x20 ADD PUSH2 0x13A JUMP JUMPDEST PUSH2 0x17D PUSH2 0x785 JUMP JUMPDEST PUSH2 0x1CA PUSH2 0x1EE CALLDATASIZE PUSH1 0x4 PUSH2 0xDD6 JUMP JUMPDEST PUSH1 0x4 PUSH1 0x20 MSTORE PUSH1 0x0 SWAP1 DUP2 MSTORE PUSH1 0x40 SWAP1 KECCAK256 SLOAD DUP2 JUMP JUMPDEST PUSH2 0x22D PUSH2 0x20E CALLDATASIZE PUSH1 0x4 PUSH2 0xDEF JUMP JUMPDEST PUSH1 0x0 PUSH1 0x20 DUP2 SWAP1 MSTORE SWAP1 DUP2 MSTORE PUSH1 0x40 SWAP1 KECCAK256 PUSH1 0x1 DUP2 ADD SLOAD PUSH1 0x2 SWAP1 SWAP2 ADD SLOAD PUSH1 0xFF AND DUP3 JUMP JUMPDEST PUSH1 0x40 DUP1 MLOAD SWAP3 DUP4 MSTORE SWAP1 ISZERO ISZERO PUSH1 0x20 DUP4 ADD MSTORE ADD PUSH2 0x13A JUMP JUMPDEST PUSH2 0x1CA PUSH1 0x2 SLOAD DUP2 JUMP JUMPDEST PUSH2 0x1CA PUSH2 0x259 CALLDATASIZE PUSH1 0x4 PUSH2 0xE0C JUMP JUMPDEST PUSH2 0x935 JUMP JUMPDEST PUSH1 0x3 SLOAD PUSH2 0x270 SWAP1 PUSH6 0xFFFFFFFFFFFF AND DUP2 JUMP JUMPDEST PUSH1 0x40 MLOAD PUSH6 0xFFFFFFFFFFFF SWAP1 SWAP2 AND DUP2 MSTORE PUSH1 0x20 ADD PUSH2 0x13A JUMP JUMPDEST PUSH2 0x1CA PUSH2 0x295 CALLDATASIZE PUSH1 0x4 PUSH2 0xDEF JUMP JUMPDEST PUSH2 0xAFD JUMP JUMPDEST PUSH2 0x1CA PUSH2 0x2A8 CALLDATASIZE PUSH1 0x4 PUSH2 0xDEF JUMP JUMPDEST PUSH2 0xB2D JUMP JUMPDEST PUSH2 0x126 PUSH32 0x0 DUP2 JUMP JUMPDEST PUSH1 0x0 PUSH32 0x0 PUSH1 0x1 PUSH1 0x1 PUSH1 0xA0 SHL SUB AND PUSH4 0x2954018C PUSH1 0x40 MLOAD DUP2 PUSH4 0xFFFFFFFF AND PUSH1 0xE0 SHL DUP2 MSTORE PUSH1 0x4 ADD PUSH1 0x20 PUSH1 0x40 MLOAD DUP1 DUP4 SUB DUP2 DUP7 DUP1 EXTCODESIZE ISZERO DUP1 ISZERO PUSH2 0x32F JUMPI PUSH1 0x0 DUP1 REVERT JUMPDEST POP GAS STATICCALL ISZERO DUP1 ISZERO PUSH2 0x343 JUMPI RETURNDATASIZE PUSH1 0x0 DUP1 RETURNDATACOPY RETURNDATASIZE PUSH1 0x0 REVERT JUMPDEST POP POP POP POP PUSH1 0x40 MLOAD RETURNDATASIZE PUSH1 0x1F NOT PUSH1 0x1F DUP3 ADD AND DUP3 ADD DUP1 PUSH1 0x40 MSTORE POP DUP2 ADD SWAP1 PUSH2 0x367 SWAP2 SWAP1 PUSH2 0xE38 JUMP JUMPDEST PUSH1 0x40 MLOAD PUSH4 0x1FD4B625 PUSH1 0xE2 SHL DUP2 MSTORE CALLER PUSH1 0x4 DUP3 ADD MSTORE PUSH1 0x1 PUSH1 0x1 PUSH1 0xA0 SHL SUB SWAP2 SWAP1 SWAP2 AND SWAP1 PUSH4 0x7F52D894 SWAP1 PUSH1 0x24 ADD PUSH1 0x20 PUSH1 0x40 MLOAD DUP1 DUP4 SUB DUP2 DUP7 DUP1 EXTCODESIZE ISZERO DUP1 ISZERO PUSH2 0x3A8 JUMPI PUSH1 0x0 DUP1 REVERT JUMPDEST POP GAS STATICCALL ISZERO DUP1 ISZERO PUSH2 0x3BC JUMPI RETURNDATASIZE PUSH1 0x0 DUP1 RETURNDATACOPY RETURNDATASIZE PUSH1 0x0 REVERT JUMPDEST POP POP POP POP PUSH1 0x40 MLOAD RETURNDATASIZE PUSH1 0x1F NOT PUSH1 0x1F DUP3 ADD AND DUP3 ADD DUP1 PUSH1 0x40 MSTORE POP DUP2 ADD SWAP1 PUSH2 0x3E0 SWAP2 SWAP1 PUSH2 0xE55 JUMP JUMPDEST PUSH1 0x40 MLOAD DUP1 PUSH1 0x40 ADD PUSH1 0x40 MSTORE DUP1 PUSH1 0x17 DUP2 MSTORE PUSH1 0x20 ADD PUSH32 0x61646472657373206E6F742077686974656C6973746564000000000000000000 DUP2 MSTORE POP SWAP1 PUSH2 0x43D JUMPI PUSH1 0x40 MLOAD PUSH3 0x461BCD PUSH1 0xE5 SHL DUP2 MSTORE PUSH1 0x4 ADD PUSH2 0x434 SWAP2 SWAP1 PUSH2 0xE77 JUMP JUMPDEST PUSH1 0x40 MLOAD DUP1 SWAP2 SUB SWAP1 REVERT JUMPDEST POP PUSH1 0x5 SLOAD PUSH1 0x40 DUP1 MLOAD DUP1 DUP3 ADD SWAP1 SWAP2 MSTORE PUSH1 0x12 DUP2 MSTORE PUSH18 0x18DBDB9D1C9858DD081A5CC81C185D5CD959 PUSH1 0x72 SHL PUSH1 0x20 DUP3 ADD MSTORE SWAP1 PUSH1 0xFF AND ISZERO PUSH2 0x48C JUMPI PUSH1 0x40 MLOAD PUSH3 0x461BCD PUSH1 0xE5 SHL DUP2 MSTORE PUSH1 0x4 ADD PUSH2 0x434 SWAP2 SWAP1 PUSH2 0xE77 JUMP JUMPDEST POP PUSH1 0x1 PUSH1 0x1 PUSH1 0xA0 SHL SUB DUP5 AND PUSH1 0x0 SWAP1 DUP2 MSTORE PUSH1 0x20 DUP2 SWAP1 MSTORE PUSH1 0x40 SWAP1 KECCAK256 PUSH1 0x2 ADD SLOAD PUSH1 0xFF AND PUSH2 0x4E1 JUMPI PUSH1 0x1 PUSH1 0x1 PUSH1 0xA0 SHL SUB DUP5 AND PUSH1 0x0 SWAP1 DUP2 MSTORE PUSH1 0x20 DUP2 SWAP1 MSTORE PUSH1 0x40 SWAP1 KECCAK256 PUSH1 0x2 DUP1 DUP3 ADD DUP1 SLOAD PUSH1 0xFF NOT AND PUSH1 0x1 SWAP1 DUP2 OR SWAP1 SWAP2 SSTORE SWAP1 SLOAD SWAP2 ADD SSTORE JUMPDEST PUSH1 0x1 PUSH1 0x1 PUSH1 0xA0 SHL SUB DUP5 AND PUSH1 0x0 SWAP1 DUP2 MSTORE PUSH1 0x20 DUP2 DUP2 MSTORE PUSH1 0x40 DUP1 DUP4 KECCAK256 PUSH1 0x2 SLOAD DUP5 MSTORE SWAP1 SWAP2 MSTORE DUP2 KECCAK256 DUP1 SLOAD DUP6 SWAP3 SWAP1 PUSH2 0x514 SWAP1 DUP5 SWAP1 PUSH2 0xEE2 JUMP JUMPDEST SWAP1 SWAP2 SSTORE POP POP PUSH1 0x2 SLOAD PUSH1 0x0 SWAP1 DUP2 MSTORE PUSH1 0x1 PUSH1 0x20 MSTORE PUSH1 0x40 DUP2 KECCAK256 DUP1 SLOAD DUP6 SWAP3 SWAP1 PUSH2 0x53A SWAP1 DUP5 SWAP1 PUSH2 0xEE2 JUMP JUMPDEST SWAP1 SWAP2 SSTORE POP PUSH1 0x1 SWAP6 SWAP5 POP POP POP POP POP JUMP JUMPDEST PUSH1 0x0 PUSH32 0x0 PUSH1 0x1 PUSH1 0x1 PUSH1 0xA0 SHL SUB AND PUSH4 0xDBCD89FA PUSH1 0x40 MLOAD DUP2 PUSH4 0xFFFFFFFF AND PUSH1 0xE0 SHL DUP2 MSTORE PUSH1 0x4 ADD PUSH1 0x20 PUSH1 0x40 MLOAD DUP1 DUP4 SUB DUP2 DUP7 DUP1 EXTCODESIZE ISZERO DUP1 ISZERO PUSH2 0x5A4 JUMPI PUSH1 0x0 DUP1 REVERT JUMPDEST POP GAS STATICCALL ISZERO DUP1 ISZERO PUSH2 0x5B8 JUMPI RETURNDATASIZE PUSH1 0x0 DUP1 RETURNDATACOPY RETURNDATASIZE PUSH1 0x0 REVERT JUMPDEST POP POP POP POP PUSH1 0x40 MLOAD RETURNDATASIZE PUSH1 0x1F NOT PUSH1 0x1F DUP3 ADD AND DUP3 ADD DUP1 PUSH1 0x40 MSTORE POP DUP2 ADD SWAP1 PUSH2 0x5DC SWAP2 SWAP1 PUSH2 0xE38 JUMP JUMPDEST PUSH1 0x1 PUSH1 0x1 PUSH1 0xA0 SHL SUB AND CALLER PUSH1 0x1 PUSH1 0x1 PUSH1 0xA0 SHL SUB AND EQ PUSH1 0x40 MLOAD DUP1 PUSH1 0x40 ADD PUSH1 0x40 MSTORE DUP1 PUSH1 0x13 DUP2 MSTORE PUSH1 0x20 ADD PUSH19 0x756E617574686F72697A656420616363657373 PUSH1 0x68 SHL DUP2 MSTORE POP SWAP1 PUSH2 0x63A JUMPI PUSH1 0x40 MLOAD PUSH3 0x461BCD PUSH1 0xE5 SHL DUP2 MSTORE PUSH1 0x4 ADD PUSH2 0x434 SWAP2 SWAP1 PUSH2 0xE77 JUMP JUMPDEST POP PUSH2 0x643 PUSH2 0x785 JUMP JUMPDEST POP PUSH1 0x2 DUP1 SLOAD SWAP1 PUSH1 0x0 PUSH2 0x654 DUP4 PUSH2 0xEFA JUMP JUMPDEST SWAP2 SWAP1 POP SSTORE POP PUSH1 0x1 SWAP1 POP SWAP1 JUMP JUMPDEST PUSH1 0x0 PUSH32 0x0 PUSH1 0x1 PUSH1 0x1 PUSH1 0xA0 SHL SUB AND PUSH4 0xDBCD89FA PUSH1 0x40 MLOAD DUP2 PUSH4 0xFFFFFFFF AND PUSH1 0xE0 SHL DUP2 MSTORE PUSH1 0x4 ADD PUSH1 0x20 PUSH1 0x40 MLOAD DUP1 DUP4 SUB DUP2 DUP7 DUP1 EXTCODESIZE ISZERO DUP1 ISZERO PUSH2 0x6BB JUMPI PUSH1 0x0 DUP1 REVERT JUMPDEST POP GAS STATICCALL ISZERO DUP1 ISZERO PUSH2 0x6CF JUMPI RETURNDATASIZE PUSH1 0x0 DUP1 RETURNDATACOPY RETURNDATASIZE PUSH1 0x0 REVERT JUMPDEST POP POP POP POP PUSH1 0x40 MLOAD RETURNDATASIZE PUSH1 0x1F NOT PUSH1 0x1F DUP3 ADD AND DUP3 ADD DUP1 PUSH1 0x40 MSTORE POP DUP2 ADD SWAP1 PUSH2 0x6F3 SWAP2 SWAP1 PUSH2 0xE38 JUMP JUMPDEST PUSH1 0x1 PUSH1 0x1 PUSH1 0xA0 SHL SUB AND CALLER PUSH1 0x1 PUSH1 0x1 PUSH1 0xA0 SHL SUB AND EQ PUSH1 0x40 MLOAD DUP1 PUSH1 0x40 ADD PUSH1 0x40 MSTORE DUP1 PUSH1 0x13 DUP2 MSTORE PUSH1 0x20 ADD PUSH19 0x756E617574686F72697A656420616363657373 PUSH1 0x68 SHL DUP2 MSTORE POP SWAP1 PUSH2 0x751 JUMPI PUSH1 0x40 MLOAD PUSH3 0x461BCD PUSH1 0xE5 SHL DUP2 MSTORE PUSH1 0x4 ADD PUSH2 0x434 SWAP2 SWAP1 PUSH2 0xE77 JUMP JUMPDEST POP PUSH2 0x75A PUSH2 0x785 JUMP JUMPDEST POP PUSH1 0x2 DUP1 SLOAD SWAP1 PUSH1 0x0 PUSH2 0x76B DUP4 PUSH2 0xEFA JUMP JUMPDEST SWAP1 SWAP2 SSTORE POP POP PUSH1 0x5 DUP1 SLOAD PUSH1 0xFF NOT AND PUSH1 0x1 SWAP1 DUP2 OR SWAP1 SWAP2 SSTORE SWAP1 POP SWAP1 JUMP JUMPDEST PUSH1 0x5 SLOAD PUSH1 0x0 SWAP1 PUSH1 0xFF AND ISZERO PUSH2 0x799 JUMPI POP PUSH1 0x0 SWAP1 JUMP JUMPDEST PUSH1 0x3 SLOAD PUSH1 0x0 SWAP1 PUSH2 0x7B1 SWAP1 PUSH6 0xFFFFFFFFFFFF AND TIMESTAMP PUSH2 0xF15 JUMP JUMPDEST SWAP1 POP PUSH1 0x0 PUSH32 0x0 PUSH1 0x1 PUSH1 0x1 PUSH1 0xA0 SHL SUB AND PUSH4 0xDBCD89FA PUSH1 0x40 MLOAD DUP2 PUSH4 0xFFFFFFFF AND PUSH1 0xE0 SHL DUP2 MSTORE PUSH1 0x4 ADD PUSH1 0x20 PUSH1 0x40 MLOAD DUP1 DUP4 SUB DUP2 DUP7 DUP1 EXTCODESIZE ISZERO DUP1 ISZERO PUSH2 0x80E JUMPI PUSH1 0x0 DUP1 REVERT JUMPDEST POP GAS STATICCALL ISZERO DUP1 ISZERO PUSH2 0x822 JUMPI RETURNDATASIZE PUSH1 0x0 DUP1 RETURNDATACOPY RETURNDATASIZE PUSH1 0x0 REVERT JUMPDEST POP POP POP POP PUSH1 0x40 MLOAD RETURNDATASIZE PUSH1 0x1F NOT PUSH1 0x1F DUP3 ADD AND DUP3 ADD DUP1 PUSH1 0x40 MSTORE POP DUP2 ADD SWAP1 PUSH2 0x846 SWAP2 SWAP1 PUSH2 0xE38 JUMP JUMPDEST PUSH1 0x40 MLOAD PUSH4 0x271A15BF PUSH1 0xE2 SHL DUP2 MSTORE PUSH1 0x1 PUSH1 0x1 PUSH1 0xA0 SHL SUB PUSH32 0x0 DUP2 AND PUSH1 0x4 DUP4 ADD MSTORE SWAP2 SWAP1 SWAP2 AND SWAP1 PUSH4 0x9C6856FC SWAP1 PUSH1 0x24 ADD PUSH1 0x20 PUSH1 0x40 MLOAD DUP1 DUP4 SUB DUP2 DUP7 DUP1 EXTCODESIZE ISZERO DUP1 ISZERO PUSH2 0x8A9 JUMPI PUSH1 0x0 DUP1 REVERT JUMPDEST POP GAS STATICCALL ISZERO DUP1 ISZERO PUSH2 0x8BD JUMPI RETURNDATASIZE PUSH1 0x0 DUP1 RETURNDATACOPY RETURNDATASIZE PUSH1 0x0 REVERT JUMPDEST POP POP POP POP PUSH1 0x40 MLOAD RETURNDATASIZE PUSH1 0x1F NOT PUSH1 0x1F DUP3 ADD AND DUP3 ADD DUP1 PUSH1 0x40 MSTORE POP DUP2 ADD SWAP1 PUSH2 0x8E1 SWAP2 SWAP1 PUSH2 0xF2C JUMP JUMPDEST SWAP1 POP PUSH2 0x8ED DUP3 DUP3 PUSH2 0xF45 JUMP JUMPDEST PUSH1 0x2 SLOAD PUSH1 0x0 SWAP1 DUP2 MSTORE PUSH1 0x4 PUSH1 0x20 MSTORE PUSH1 0x40 DUP2 KECCAK256 DUP1 SLOAD SWAP1 SWAP2 SWAP1 PUSH2 0x90E SWAP1 DUP5 SWAP1 PUSH2 0xEE2 JUMP JUMPDEST SWAP1 SWAP2 SSTORE POP POP PUSH1 0x3 DUP1 SLOAD PUSH6 0xFFFFFFFFFFFF NOT AND TIMESTAMP PUSH6 0xFFFFFFFFFFFF AND OR SWAP1 SSTORE POP PUSH1 0x1 SWAP3 SWAP2 POP POP JUMP JUMPDEST PUSH1 0x0 CALLER PUSH1 0x1 PUSH1 0x1 PUSH1 0xA0 SHL SUB DUP5 AND EQ DUP1 PUSH2 0x9F5 JUMPI POP PUSH32 0x0 PUSH1 0x40 MLOAD PUSH4 0x24745215 PUSH1 0xE2 SHL DUP2 MSTORE PUSH9 0x67617567655F7A617 PUSH1 0xBC SHL PUSH1 0x4 DUP3 ADD MSTORE CALLER PUSH1 0x24 DUP3 ADD MSTORE PUSH1 0x1 PUSH1 0x1 PUSH1 0xA0 SHL SUB SWAP2 SWAP1 SWAP2 AND SWAP1 PUSH4 0x91D14854 SWAP1 PUSH1 0x44 ADD PUSH1 0x20 PUSH1 0x40 MLOAD DUP1 DUP4 SUB DUP2 DUP7 DUP1 EXTCODESIZE ISZERO DUP1 ISZERO PUSH2 0x9BD JUMPI PUSH1 0x0 DUP1 REVERT JUMPDEST POP GAS STATICCALL ISZERO DUP1 ISZERO PUSH2 0x9D1 JUMPI RETURNDATASIZE PUSH1 0x0 DUP1 RETURNDATACOPY RETURNDATASIZE PUSH1 0x0 REVERT JUMPDEST POP POP POP POP PUSH1 0x40 MLOAD RETURNDATASIZE PUSH1 0x1F NOT PUSH1 0x1F DUP3 ADD AND DUP3 ADD DUP1 PUSH1 0x40 MSTORE POP DUP2 ADD SWAP1 PUSH2 0x9F5 SWAP2 SWAP1 PUSH2 0xE55 JUMP JUMPDEST PUSH1 0x40 MLOAD DUP1 PUSH1 0x40 ADD PUSH1 0x40 MSTORE DUP1 PUSH1 0x13 DUP2 MSTORE PUSH1 0x20 ADD PUSH19 0x756E617574686F72697A656420616363657373 PUSH1 0x68 SHL DUP2 MSTORE POP SWAP1 PUSH2 0xA3F JUMPI PUSH1 0x40 MLOAD PUSH3 0x461BCD PUSH1 0xE5 SHL DUP2 MSTORE PUSH1 0x4 ADD PUSH2 0x434 SWAP2 SWAP1 PUSH2 0xE77 JUMP JUMPDEST POP PUSH1 0x2 SLOAD DUP3 GT ISZERO PUSH2 0xA50 JUMPI PUSH1 0x2 SLOAD SWAP2 POP JUMPDEST PUSH1 0x1 PUSH1 0x1 PUSH1 0xA0 SHL SUB DUP4 AND PUSH1 0x0 SWAP1 DUP2 MSTORE PUSH1 0x20 DUP2 SWAP1 MSTORE PUSH1 0x40 DUP2 KECCAK256 PUSH1 0x1 ADD SLOAD PUSH2 0xA78 SWAP1 DUP6 SWAP1 DUP6 PUSH2 0xBC3 JUMP JUMPDEST PUSH1 0x1 PUSH1 0x1 PUSH1 0xA0 SHL SUB DUP6 AND PUSH1 0x0 SWAP1 DUP2 MSTORE PUSH1 0x20 DUP2 DUP2 MSTORE PUSH1 0x40 SWAP2 DUP3 SWAP1 KECCAK256 PUSH1 0x1 ADD DUP7 SWAP1 SSTORE DUP2 MLOAD DUP1 DUP4 ADD SWAP1 SWAP3 MSTORE PUSH1 0x19 DUP3 MSTORE PUSH32 0x7A65726F207472616E73666572206E6F7420616C6C6F77656400000000000000 SWAP1 DUP3 ADD MSTORE SWAP1 SWAP2 POP DUP2 PUSH2 0xAEA JUMPI PUSH1 0x40 MLOAD PUSH3 0x461BCD PUSH1 0xE5 SHL DUP2 MSTORE PUSH1 0x4 ADD PUSH2 0x434 SWAP2 SWAP1 PUSH2 0xE77 JUMP JUMPDEST POP PUSH2 0xAF5 DUP5 DUP3 PUSH2 0xC41 JUMP JUMPDEST POP SWAP4 SWAP3 POP POP POP JUMP JUMPDEST PUSH1 0x1 PUSH1 0x1 PUSH1 0xA0 SHL SUB DUP2 AND PUSH1 0x0 SWAP1 DUP2 MSTORE PUSH1 0x20 DUP2 SWAP1 MSTORE PUSH1 0x40 DUP2 KECCAK256 PUSH1 0x1 ADD SLOAD PUSH1 0x2 SLOAD PUSH2 0xB27 SWAP2 DUP5 SWAP2 PUSH2 0xBC3 JUMP JUMPDEST SWAP3 SWAP2 POP POP JUMP JUMPDEST PUSH1 0x0 PUSH2 0xB27 DUP3 PUSH1 0x2 SLOAD PUSH2 0x935 JUMP JUMPDEST PUSH1 0x40 MLOAD PUSH4 0x21F8A721 PUSH1 0xE0 SHL DUP2 MSTORE PUSH11 0x3937B632A6B0B730B3B2B9 PUSH1 0xA9 SHL PUSH1 0x4 DUP3 ADD MSTORE PUSH1 0x0 SWAP1 PUSH1 0x1 PUSH1 0x1 PUSH1 0xA0 SHL SUB DUP4 AND SWAP1 PUSH4 0x21F8A721 SWAP1 PUSH1 0x24 ADD PUSH1 0x20 PUSH1 0x40 MLOAD DUP1 DUP4 SUB DUP2 DUP7 DUP1 EXTCODESIZE ISZERO DUP1 ISZERO PUSH2 0xB8B JUMPI PUSH1 0x0 DUP1 REVERT JUMPDEST POP GAS STATICCALL ISZERO DUP1 ISZERO PUSH2 0xB9F JUMPI RETURNDATASIZE PUSH1 0x0 DUP1 RETURNDATACOPY RETURNDATASIZE PUSH1 0x0 REVERT JUMPDEST POP POP POP POP PUSH1 0x40 MLOAD RETURNDATASIZE PUSH1 0x1F NOT PUSH1 0x1F DUP3 ADD AND DUP3 ADD DUP1 PUSH1 0x40 MSTORE POP DUP2 ADD SWAP1 PUSH2 0xB27 SWAP2 SWAP1 PUSH2 0xE38 JUMP JUMPDEST PUSH1 0x0 DUP1 DUP4 JUMPDEST DUP4 DUP2 LT ISZERO PUSH2 0xC38 JUMPI PUSH1 0x0 DUP2 DUP2 MSTORE PUSH1 0x4 PUSH1 0x20 SWAP1 DUP2 MSTORE PUSH1 0x40 DUP1 DUP4 KECCAK256 SLOAD PUSH1 0x1 DUP4 MSTORE DUP2 DUP5 KECCAK256 SLOAD PUSH1 0x1 PUSH1 0x1 PUSH1 0xA0 SHL SUB DUP12 AND DUP6 MSTORE DUP5 DUP5 MSTORE DUP3 DUP6 KECCAK256 DUP7 DUP7 MSTORE SWAP1 SWAP4 MSTORE SWAP3 KECCAK256 SLOAD PUSH2 0xC1A SWAP3 SWAP2 PUSH2 0xC14 SWAP2 SWAP1 PUSH2 0xD41 JUMP JUMPDEST SWAP1 PUSH2 0xD67 JUMP JUMPDEST PUSH2 0xC24 SWAP1 DUP4 PUSH2 0xEE2 JUMP JUMPDEST SWAP2 POP DUP1 PUSH2 0xC30 DUP2 PUSH2 0xEFA JUMP JUMPDEST SWAP2 POP POP PUSH2 0xBC8 JUMP JUMPDEST POP SWAP5 SWAP4 POP POP POP POP JUMP JUMPDEST PUSH1 0x0 PUSH32 0x0 PUSH1 0x1 PUSH1 0x1 PUSH1 0xA0 SHL SUB AND PUSH4 0xDBCD89FA PUSH1 0x40 MLOAD DUP2 PUSH4 0xFFFFFFFF AND PUSH1 0xE0 SHL DUP2 MSTORE PUSH1 0x4 ADD PUSH1 0x20 PUSH1 0x40 MLOAD DUP1 DUP4 SUB DUP2 DUP7 DUP1 EXTCODESIZE ISZERO DUP1 ISZERO PUSH2 0xC9C JUMPI PUSH1 0x0 DUP1 REVERT JUMPDEST POP GAS STATICCALL ISZERO DUP1 ISZERO PUSH2 0xCB0 JUMPI RETURNDATASIZE PUSH1 0x0 DUP1 RETURNDATACOPY RETURNDATASIZE PUSH1 0x0 REVERT JUMPDEST POP POP POP POP PUSH1 0x40 MLOAD RETURNDATASIZE PUSH1 0x1F NOT PUSH1 0x1F DUP3 ADD AND DUP3 ADD DUP1 PUSH1 0x40 MSTORE POP DUP2 ADD SWAP1 PUSH2 0xCD4 SWAP2 SWAP1 PUSH2 0xE38 JUMP JUMPDEST PUSH1 0x40 MLOAD PUSH4 0x35106F49 PUSH1 0xE1 SHL DUP2 MSTORE PUSH1 0x1 PUSH1 0x1 PUSH1 0xA0 SHL SUB DUP6 DUP2 AND PUSH1 0x4 DUP4 ADD MSTORE PUSH1 0x24 DUP3 ADD DUP6 SWAP1 MSTORE SWAP2 SWAP1 SWAP2 AND SWAP1 PUSH4 0x6A20DE92 SWAP1 PUSH1 0x44 ADD PUSH1 0x0 PUSH1 0x40 MLOAD DUP1 DUP4 SUB DUP2 PUSH1 0x0 DUP8 DUP1 EXTCODESIZE ISZERO DUP1 ISZERO PUSH2 0xD20 JUMPI PUSH1 0x0 DUP1 REVERT JUMPDEST POP GAS CALL ISZERO DUP1 ISZERO PUSH2 0xD34 JUMPI RETURNDATASIZE PUSH1 0x0 DUP1 RETURNDATACOPY RETURNDATASIZE PUSH1 0x0 REVERT JUMPDEST POP PUSH1 0x1 SWAP7 SWAP6 POP POP POP POP POP POP JUMP JUMPDEST PUSH1 0x0 DUP2 PUSH2 0xD56 PUSH8 0xDE0B6B3A7640000 DUP6 PUSH2 0xF45 JUMP JUMPDEST PUSH2 0xD60 SWAP2 SWAP1 PUSH2 0xF64 JUMP JUMPDEST SWAP4 SWAP3 POP POP POP JUMP JUMPDEST PUSH1 0x0 PUSH8 0xDE0B6B3A7640000 PUSH2 0xD56 DUP4 DUP6 PUSH2 0xF45 JUMP JUMPDEST PUSH1 0x1 PUSH1 0x1 PUSH1 0xA0 SHL SUB DUP2 AND DUP2 EQ PUSH2 0xD91 JUMPI PUSH1 0x0 DUP1 REVERT JUMPDEST POP JUMP JUMPDEST PUSH1 0x0 DUP1 PUSH1 0x0 PUSH1 0x60 DUP5 DUP7 SUB SLT ISZERO PUSH2 0xDA9 JUMPI PUSH1 0x0 DUP1 REVERT JUMPDEST DUP4 CALLDATALOAD PUSH2 0xDB4 DUP2 PUSH2 0xD7C JUMP JUMPDEST SWAP3 POP PUSH1 0x20 DUP5 ADD CALLDATALOAD SWAP2 POP PUSH1 0x40 DUP5 ADD CALLDATALOAD PUSH2 0xDCB DUP2 PUSH2 0xD7C JUMP JUMPDEST DUP1 SWAP2 POP POP SWAP3 POP SWAP3 POP SWAP3 JUMP JUMPDEST PUSH1 0x0 PUSH1 0x20 DUP3 DUP5 SUB SLT ISZERO PUSH2 0xDE8 JUMPI PUSH1 0x0 DUP1 REVERT JUMPDEST POP CALLDATALOAD SWAP2 SWAP1 POP JUMP JUMPDEST PUSH1 0x0 PUSH1 0x20 DUP3 DUP5 SUB SLT ISZERO PUSH2 0xE01 JUMPI PUSH1 0x0 DUP1 REVERT JUMPDEST DUP2 CALLDATALOAD PUSH2 0xD60 DUP2 PUSH2 0xD7C JUMP JUMPDEST PUSH1 0x0 DUP1 PUSH1 0x40 DUP4 DUP6 SUB SLT ISZERO PUSH2 0xE1F JUMPI PUSH1 0x0 DUP1 REVERT JUMPDEST DUP3 CALLDATALOAD PUSH2 0xE2A DUP2 PUSH2 0xD7C JUMP JUMPDEST SWAP5 PUSH1 0x20 SWAP4 SWAP1 SWAP4 ADD CALLDATALOAD SWAP4 POP POP POP JUMP JUMPDEST PUSH1 0x0 PUSH1 0x20 DUP3 DUP5 SUB SLT ISZERO PUSH2 0xE4A JUMPI PUSH1 0x0 DUP1 REVERT JUMPDEST DUP2 MLOAD PUSH2 0xD60 DUP2 PUSH2 0xD7C JUMP JUMPDEST PUSH1 0x0 PUSH1 0x20 DUP3 DUP5 SUB SLT ISZERO PUSH2 0xE67 JUMPI PUSH1 0x0 DUP1 REVERT JUMPDEST DUP2 MLOAD DUP1 ISZERO ISZERO DUP2 EQ PUSH2 0xD60 JUMPI PUSH1 0x0 DUP1 REVERT JUMPDEST PUSH1 0x0 PUSH1 0x20 DUP1 DUP4 MSTORE DUP4 MLOAD DUP1 DUP3 DUP6 ADD MSTORE PUSH1 0x0 JUMPDEST DUP2 DUP2 LT ISZERO PUSH2 0xEA4 JUMPI DUP6 DUP2 ADD DUP4 ADD MLOAD DUP6 DUP3 ADD PUSH1 0x40 ADD MSTORE DUP3 ADD PUSH2 0xE88 JUMP JUMPDEST DUP2 DUP2 GT ISZERO PUSH2 0xEB6 JUMPI PUSH1 0x0 PUSH1 0x40 DUP4 DUP8 ADD ADD MSTORE JUMPDEST POP PUSH1 0x1F ADD PUSH1 0x1F NOT AND SWAP3 SWAP1 SWAP3 ADD PUSH1 0x40 ADD SWAP4 SWAP3 POP POP POP JUMP JUMPDEST PUSH4 0x4E487B71 PUSH1 0xE0 SHL PUSH1 0x0 MSTORE PUSH1 0x11 PUSH1 0x4 MSTORE PUSH1 0x24 PUSH1 0x0 REVERT JUMPDEST PUSH1 0x0 DUP3 NOT DUP3 GT ISZERO PUSH2 0xEF5 JUMPI PUSH2 0xEF5 PUSH2 0xECC JUMP JUMPDEST POP ADD SWAP1 JUMP JUMPDEST PUSH1 0x0 PUSH1 0x0 NOT DUP3 EQ ISZERO PUSH2 0xF0E JUMPI PUSH2 0xF0E PUSH2 0xECC JUMP JUMPDEST POP PUSH1 0x1 ADD SWAP1 JUMP JUMPDEST PUSH1 0x0 DUP3 DUP3 LT ISZERO PUSH2 0xF27 JUMPI PUSH2 0xF27 PUSH2 0xECC JUMP JUMPDEST POP SUB SWAP1 JUMP JUMPDEST PUSH1 0x0 PUSH1 0x20 DUP3 DUP5 SUB SLT ISZERO PUSH2 0xF3E JUMPI PUSH1 0x0 DUP1 REVERT JUMPDEST POP MLOAD SWAP2 SWAP1 POP JUMP JUMPDEST PUSH1 0x0 DUP2 PUSH1 0x0 NOT DIV DUP4 GT DUP3 ISZERO ISZERO AND ISZERO PUSH2 0xF5F JUMPI PUSH2 0xF5F PUSH2 0xECC JUMP JUMPDEST POP MUL SWAP1 JUMP JUMPDEST PUSH1 0x0 DUP3 PUSH2 0xF81 JUMPI PUSH4 0x4E487B71 PUSH1 0xE0 SHL PUSH1 0x0 MSTORE PUSH1 0x12 PUSH1 0x4 MSTORE PUSH1 0x24 PUSH1 0x0 REVERT JUMPDEST POP DIV SWAP1 JUMP INVALID LOG2 PUSH5 0x6970667358 0x22 SLT KECCAK256 PUSH9 0xE4F57D8BE3CFCBDB5 PUSH3 0xAD358C DUP6 BASEFEE BYTE DUP7 DUP8 0xDE MUL 0xED 0x5D 0xA7 DUP7 GASLIMIT 0xE5 0x21 0xE1 0xCA MSTORE8 0xD PUSH5 0x736F6C6343 STOP ADDMOD MULMOD STOP CALLER ","sha1":"a13432d9c85860be7d94ab5e696d641b21042f01","source":"// SPDX-License-Identifier: GPL-3.0-or-later\npragma solidity 0.8.9;\n\nimport \"@openzeppelin/contracts/token/ERC20/utils/SafeERC20.sol\";\n\nimport \"../../interfaces/IController.sol\";\nimport \"../../interfaces/tokenomics/IKeeperGauge.sol\";\n\nimport \"../../libraries/ScaledMath.sol\";\nimport \"../../libraries/Errors.sol\";\nimport \"../../libraries/AddressProviderHelpers.sol\";\n\nimport \"../access/Authorization.sol\";\n\ncontract KeeperGauge is IKeeperGauge, Authorization {\n    using AddressProviderHelpers for IAddressProvider;\n    using ScaledMath for uint256;\n\n    struct KeeperRecord {\n        mapping(uint256 => uint256) feesInPeriod;\n        uint256 nextEpochToClaim;\n        bool firstEpochSet;\n    }\n\n    mapping(address => KeeperRecord) public keeperRecords;\n    mapping(uint256 => uint256) public perPeriodTotalFees;\n\n    IController public immutable controller;\n    address public immutable pool;\n    uint256 public epoch;\n\n    uint48 public lastUpdated;\n    mapping(uint256 => uint256) public perPeriodTotalInflation;\n\n    bool public override killed;\n\n    modifier onlyInflationManager() {\n        require(msg.sender == address(controller.inflationManager()), Error.UNAUTHORIZED_ACCESS);\n        _;\n    }\n\n    constructor(IController _controller, address _pool)\n        Authorization(_controller.addressProvider().getRoleManager())\n    {\n        controller = _controller;\n        pool = _pool;\n        lastUpdated = uint48(block.timestamp);\n    }\n\n    /**\n     * @notice Shut down the gauge.\n     * @dev Accrued inflation can still be claimed from the gauge after shutdown.\n     * @return `true` if successful.\n     */\n    function kill() external override onlyInflationManager returns (bool) {\n        poolCheckpoint();\n        epoch++;\n        killed = true;\n        return true;\n    }\n\n    /**\n     * @notice Report fees generated by a keeper (this is the basis for inflation accrual).\n     * @dev lpTokenAddress is included for forward compatibility with a single gauge solution.\n     * @param beneficiary Address of the keeper who earned the fees.\n     * @param amount Amount of fees (in lp tokens) earned.\n     * @param lpTokenAddress Address of the lpToken in which the fees are paid.\n     * @return `true` if successful.\n     */\n    function reportFees(\n        address beneficiary,\n        uint256 amount,\n        address lpTokenAddress\n    ) external override returns (bool) {\n        lpTokenAddress; // silencing compiler warning\n        require(\n            IController(controller).addressProvider().isWhiteListedFeeHandler(msg.sender),\n            Error.ADDRESS_NOT_WHITELISTED\n        );\n        require(!killed, Error.CONTRACT_PAUSED);\n        if (!keeperRecords[beneficiary].firstEpochSet) {\n            keeperRecords[beneficiary].firstEpochSet = true;\n            keeperRecords[beneficiary].nextEpochToClaim = epoch;\n        }\n        keeperRecords[beneficiary].feesInPeriod[epoch] += amount;\n        perPeriodTotalFees[epoch] += amount;\n        return true;\n    }\n\n    /**\n     * @notice Advance the inflation accrual epoch.\n     * @return `true` if successful.\n     */\n    function advanceEpoch() external virtual override onlyInflationManager returns (bool) {\n        poolCheckpoint();\n        epoch++;\n        return true;\n    }\n\n    function claimRewards(address beneficiary) external override returns (uint256) {\n        return claimRewards(beneficiary, epoch);\n    }\n\n    function claimableRewards(address beneficiary) external view override returns (uint256) {\n        return _calcTotalClaimable(beneficiary, keeperRecords[beneficiary].nextEpochToClaim, epoch);\n    }\n\n    function poolCheckpoint() public override returns (bool) {\n        if (killed) return false;\n        uint256 timeElapsed = block.timestamp - uint256(lastUpdated);\n        uint256 currentRate = IController(controller).inflationManager().getKeeperRateForPool(pool);\n        perPeriodTotalInflation[epoch] += currentRate * timeElapsed;\n        lastUpdated = uint48(block.timestamp);\n        return true;\n    }\n\n    /**\n     * @notice Claim rewards with an epoch up to which they should be claimed specified.\n     * @param beneficiary Address to claim rewards for.\n     * @param endEpoch Epoch up to which to claim rewards.\n     * @return The amount of rewards claimed.\n     */\n    function claimRewards(address beneficiary, uint256 endEpoch) public returns (uint256) {\n        require(\n            msg.sender == beneficiary || _roleManager().hasRole(Roles.GAUGE_ZAP, msg.sender),\n            Error.UNAUTHORIZED_ACCESS\n        );\n        if (endEpoch > epoch) {\n            endEpoch = epoch;\n        }\n\n        uint256 totalClaimable = _calcTotalClaimable(\n            beneficiary,\n            keeperRecords[beneficiary].nextEpochToClaim,\n            endEpoch\n        );\n        keeperRecords[beneficiary].nextEpochToClaim = endEpoch;\n        require(totalClaimable > 0, Error.ZERO_TRANSFER_NOT_ALLOWED);\n        _mintRewards(beneficiary, totalClaimable);\n\n        return totalClaimable;\n    }\n\n    function _mintRewards(address beneficiary, uint256 amount) internal returns (bool) {\n        IController(controller).inflationManager().mintRewards(beneficiary, amount);\n        return true;\n    }\n\n    function _calcTotalClaimable(\n        address beneficiary,\n        uint256 startEpoch,\n        uint256 endEpoch\n    ) internal view returns (uint256) {\n        uint256 totalClaimable = 0;\n        for (uint256 i = startEpoch; i < endEpoch; i++) {\n            totalClaimable += (\n                keeperRecords[beneficiary].feesInPeriod[i].scaledDiv(perPeriodTotalFees[i])\n            ).scaledMul(perPeriodTotalInflation[i]);\n        }\n        return totalClaimable;\n    }\n}\n","sourcePath":"contracts/tokenomics/KeeperGauge.sol","type":"contract","deployment":{"address":"0x990C5F5c2149d3D4b28FA1FB7f75484e735A833E","chainid":"42","blockHeight":30415012}}