{"abi":[{"inputs":[{"internalType":"address","name":"topupAction_","type":"address"}],"stateMutability":"nonpayable","type":"constructor","name":"constructor"},{"inputs":[{"components":[{"internalType":"address","name":"payer","type":"address"},{"internalType":"address","name":"account","type":"address"},{"internalType":"bytes32","name":"protocol","type":"bytes32"}],"internalType":"struct ITopUpAction.RecordKey[]","name":"keys","type":"tuple[]"}],"name":"batchCanExecute","outputs":[{"internalType":"bool[]","name":"","type":"bool[]"}],"stateMutability":"view","type":"function"},{"inputs":[{"components":[{"internalType":"address","name":"payer","type":"address"},{"internalType":"address","name":"account","type":"address"},{"internalType":"bytes32","name":"protocol","type":"bytes32"}],"internalType":"struct ITopUpAction.RecordKey","name":"key","type":"tuple"}],"name":"canExecute","outputs":[{"internalType":"bool","name":"","type":"bool"}],"stateMutability":"view","type":"function"},{"inputs":[{"internalType":"uint256","name":"cursor","type":"uint256"},{"internalType":"uint256","name":"howMany","type":"uint256"}],"name":"getExecutableTopups","outputs":[{"components":[{"internalType":"address","name":"payer","type":"address"},{"internalType":"address","name":"account","type":"address"},{"internalType":"bytes32","name":"protocol","type":"bytes32"},{"components":[{"internalType":"uint64","name":"threshold","type":"uint64"},{"internalType":"uint64","name":"priorityFee","type":"uint64"},{"internalType":"uint64","name":"maxFee","type":"uint64"},{"internalType":"address","name":"actionToken","type":"address"},{"internalType":"address","name":"depositToken","type":"address"},{"internalType":"uint128","name":"singleTopUpAmount","type":"uint128"},{"internalType":"uint128","name":"totalTopUpAmount","type":"uint128"},{"internalType":"uint128","name":"depositTokenBalance","type":"uint128"},{"internalType":"bool","name":"repayDebt","type":"bool"}],"internalType":"struct ITopUpAction.Record","name":"record","type":"tuple"}],"internalType":"struct ITopUpKeeperHelper.TopupData[]","name":"topups","type":"tuple[]"},{"internalType":"uint256","name":"nextCursor","type":"uint256"}],"stateMutability":"view","type":"function"},{"inputs":[{"internalType":"address","name":"payer","type":"address"}],"name":"listPositions","outputs":[{"components":[{"internalType":"address","name":"account","type":"address"},{"internalType":"bytes32","name":"protocol","type":"bytes32"},{"components":[{"internalType":"uint64","name":"threshold","type":"uint64"},{"internalType":"uint64","name":"priorityFee","type":"uint64"},{"internalType":"uint64","name":"maxFee","type":"uint64"},{"internalType":"address","name":"actionToken","type":"address"},{"internalType":"address","name":"depositToken","type":"address"},{"internalType":"uint128","name":"singleTopUpAmount","type":"uint128"},{"internalType":"uint128","name":"totalTopUpAmount","type":"uint128"},{"internalType":"uint128","name":"depositTokenBalance","type":"uint128"},{"internalType":"bool","name":"repayDebt","type":"bool"}],"internalType":"struct ITopUpAction.Record","name":"record","type":"tuple"}],"internalType":"struct ITopUpAction.RecordWithMeta[]","name":"","type":"tuple[]"}],"stateMutability":"view","type":"function"}],"bytecode":"60a060405234801561001057600080fd5b506040516111db3803806111db83398101604081905261002f91610040565b6001600160a01b0316608052610070565b60006020828403121561005257600080fd5b81516001600160a01b038116811461006957600080fd5b9392505050565b6080516111346100a7600039600081816101030152818161025f015281816103b8015281816105e601526106bd01526111346000f3fe608060405234801561001057600080fd5b506004361061004c5760003560e01c806312a07db014610051578063b1ac7d391461007a578063bec939471461009b578063faaf9121146100be575b600080fd5b61006461005f366004610a46565b6100de565b6040516100719190610b1f565b60405180910390f35b61008d610088366004610b8c565b61033c565b604051610071929190610bae565b6100ae6100a9366004610cc0565b6105a9565b6040519015158152602001610071565b6100d16100cc366004610d2a565b610768565b6040516100719190610d9e565b604051632a6bc2dd60e01b81526001600160a01b0382811660048301526060916000917f00000000000000000000000000000000000000000000000000000000000000001690632a6bc2dd9060240160006040518083038186803b15801561014557600080fd5b505afa158015610159573d6000803e3d6000fd5b505050506040513d6000823e601f3d908101601f191682016040526101819190810190610e17565b80519091506000816001600160401b038111156101a0576101a0610c2f565b6040519080825280602002602001820160405280156101d957816020015b6101c6610959565b8152602001906001900390816101be5790505b50905060005b828110156103335760008482815181106101fb576101fb610eda565b6020026020010151600001519050600085838151811061021d5761021d610eda565b602090810291909101810151015160405163cc0b400160e01b81526001600160a01b038a811660048301528481166024830152604482018390529192506000917f0000000000000000000000000000000000000000000000000000000000000000169063cc0b4001906064016101206040518083038186803b1580156102a257600080fd5b505afa1580156102b6573d6000803e3d6000fd5b505050506040513d601f19601f820116820180604052508101906102da9190610f2e565b90506040518060600160405280846001600160a01b031681526020018381526020018281525085858151811061031257610312610eda565b6020026020010181905250505050808061032b90610ffa565b9150506101df565b50949350505050565b6060600080836001600160401b0381111561035957610359610c2f565b60405190808252806020026020018201604052801561039257816020015b61037f6109c4565b8152602001906001900390816103775790505b50905060005b604051630c84ce0d60e41b815260048101879052602481018690526000907f00000000000000000000000000000000000000000000000000000000000000006001600160a01b03169063c84ce0d09060440160006040518083038186803b15801561040257600080fd5b505afa158015610416573d6000803e3d6000fd5b505050506040513d6000823e601f3d908101601f1916820160405261043e9190810190611015565b509050805160001415610463576104558383610827565b6000945094505050506105a2565b60005b815181101561058f57600082828151811061048357610483610eda565b602002602001015190506000610498826100de565b905060005b81518110156105795760008282815181106104ba576104ba610eda565b602002602001015190506104ce84826108d4565b6104d85750610567565b6104e2848261091a565b8888815181106104f4576104f4610eda565b6020026020010181905250868061050a90610ffa565b97505060006001845161051d91906110b6565b831461052a57600061052d565b60015b60ff1690508b881415610564578881878f61054891906110cd565b61055291906110cd565b9a509a505050505050505050506105a2565b50505b8061057181610ffa565b91505061049d565b505050808061058790610ffa565b915050610466565b5061059a86886110cd565b965050610398565b9250929050565b80516020820151604080840151905163cc0b400160e01b81526001600160a01b0393841660048201529183166024830152604482015260009182917f00000000000000000000000000000000000000000000000000000000000000009091169063cc0b4001906064016101206040518083038186803b15801561062b57600080fd5b505afa15801561063f573d6000803e3d6000fd5b505050506040513d601f19601f820116820180604052508101906106639190610f2e565b80519091506001600160401b03161580610688575060c08101516001600160801b0316155b156106965750600092915050565b60408084015160208501519151600162ec28e760e01b031981526000926001600160a01b037f0000000000000000000000000000000000000000000000000000000000000000169263ff13d7199261070392906004019182526001600160a01b0316602082015260400190565b60206040518083038186803b15801561071b57600080fd5b505afa15801561072f573d6000803e3d6000fd5b505050506040513d601f19601f8201168201806040525081019061075391906110e5565b91516001600160401b03169091109392505050565b60606000826001600160401b0381111561078457610784610c2f565b6040519080825280602002602001820160405280156107ad578160200160208202803683370190505b50905060005b8381101561081f57368585838181106107ce576107ce610eda565b90506060020190506107ea818036038101906100a99190610cc0565b8383815181106107fc576107fc610eda565b91151560209283029190910190910152508061081781610ffa565b9150506107b3565b509392505050565b60606000826001600160401b0381111561084357610843610c2f565b60405190808252806020026020018201604052801561087c57816020015b6108696109c4565b8152602001906001900390816108615790505b50905060005b8381101561081f5784818151811061089c5761089c610eda565b60200260200101518282815181106108b6576108b6610eda565b602002602001018190525080806108cc90610ffa565b915050610882565b60006109136040518060600160405280856001600160a01b0316815260200184600001516001600160a01b0316815260200184602001518152506105a9565b9392505050565b6109226109c4565b50604080516080810182526001600160a01b0393841681528251909316602080850191909152820151838201520151606082015290565b60408051606081018252600080825260208201529081016109bf6040805161012081018252600080825260208201819052918101829052606081018290526080810182905260a0810182905260c0810182905260e0810182905261010081019190915290565b905290565b604080516080808201835260008083526020808401829052838501829052845161012081018652828152908101829052938401819052606084810182905291840181905260a0840181905260c0840181905260e084018190526101008401529091908201906109bf565b6001600160a01b0381168114610a4357600080fd5b50565b600060208284031215610a5857600080fd5b813561091381610a2e565b6001600160401b03808251168352806020830151166020840152806040830151166040840152506060810151610aa460608401826001600160a01b03169052565b506080810151610abf60808401826001600160a01b03169052565b5060a0810151610ada60a08401826001600160801b03169052565b5060c0810151610af560c08401826001600160801b03169052565b5060e0810151610b1060e08401826001600160801b03169052565b50610100908101511515910152565b602080825282518282018190526000919060409081850190868401855b82811015610b7f57815180516001600160a01b031685528681015187860152850151610b6a86860182610a63565b50610160939093019290850190600101610b3c565b5091979650505050505050565b60008060408385031215610b9f57600080fd5b50508035926020909101359150565b6040808252835182820181905260009190606090818501906020808901865b83811015610c1b57815180516001600160a01b0390811687528482015116848701528781015188870152860151610c0687870182610a63565b50610180949094019390820190600101610bcd565b505095909501959095525092949350505050565b634e487b7160e01b600052604160045260246000fd5b604080519081016001600160401b0381118282101715610c6757610c67610c2f565b60405290565b60405161012081016001600160401b0381118282101715610c6757610c67610c2f565b604051601f8201601f191681016001600160401b0381118282101715610cb857610cb8610c2f565b604052919050565b600060608284031215610cd257600080fd5b604051606081018181106001600160401b0382111715610cf457610cf4610c2f565b6040528235610d0281610a2e565b81526020830135610d1281610a2e565b60208201526040928301359281019290925250919050565b60008060208385031215610d3d57600080fd5b82356001600160401b0380821115610d5457600080fd5b818501915085601f830112610d6857600080fd5b813581811115610d7757600080fd5b866020606083028501011115610d8c57600080fd5b60209290920196919550909350505050565b6020808252825182820181905260009190848201906040850190845b81811015610dd8578351151583529284019291840191600101610dba565b50909695505050505050565b60006001600160401b03821115610dfd57610dfd610c2f565b5060051b60200190565b8051610e1281610a2e565b919050565b60006020808385031215610e2a57600080fd5b82516001600160401b03811115610e4057600080fd5b8301601f81018513610e5157600080fd5b8051610e64610e5f82610de4565b610c90565b81815260069190911b82018301908381019087831115610e8357600080fd5b928401925b82841015610ecf5760408489031215610ea15760008081fd5b610ea9610c45565b8451610eb481610a2e565b81528486015186820152825260409093019290840190610e88565b979650505050505050565b634e487b7160e01b600052603260045260246000fd5b80516001600160401b0381168114610e1257600080fd5b80516001600160801b0381168114610e1257600080fd5b80518015158114610e1257600080fd5b60006101208284031215610f4157600080fd5b610f49610c6d565b610f5283610ef0565b8152610f6060208401610ef0565b6020820152610f7160408401610ef0565b6040820152610f8260608401610e07565b6060820152610f9360808401610e07565b6080820152610fa460a08401610f07565b60a0820152610fb560c08401610f07565b60c0820152610fc660e08401610f07565b60e0820152610100610fd9818501610f1e565b908201529392505050565b634e487b7160e01b600052601160045260246000fd5b600060001982141561100e5761100e610fe4565b5060010190565b6000806040838503121561102857600080fd5b82516001600160401b0381111561103e57600080fd5b8301601f8101851361104f57600080fd5b8051602061105f610e5f83610de4565b82815260059290921b8301810191818101908884111561107e57600080fd5b938201935b838510156110a557845161109681610a2e565b82529382019390820190611083565b969091015195979596505050505050565b6000828210156110c8576110c8610fe4565b500390565b600082198211156110e0576110e0610fe4565b500190565b6000602082840312156110f757600080fd5b505191905056fea264697066735822122035c779a0399ecf0f9dc229c8e4e5595fce8b2291f3d13ec2f54345c1ced1654f64736f6c63430008090033","bytecodeSha1":"0b2ef71c904935289e7874b0608d68c0537e01fd","compiler":{"evm_version":"london","optimizer":{"enabled":true,"runs":200},"version":"0.8.9+commit.e5eed63a"},"contractName":"TopUpKeeperHelper","language":"Solidity","natspec":{"kind":"dev","methods":{"batchCanExecute((address,address,bytes32)[])":{"notice":"Check if the action can be executed for the positions of the given `keys`","params":{"keys":"Unique keys to check for"},"returns":{"_0":"an array of boolean containing a result per input"}},"canExecute((address,address,bytes32))":{"notice":"Check if action can be executed.","params":{"key":"Unique key of the account to check for the key contains information about the payer, the account and the protocol"},"returns":{"_0":"`true` if action can be executed, else `false."}},"getExecutableTopups(uint256,uint256)":{"details":"Uses cursor pagination.","notice":"Gets a list of topup positions that can be executed.","params":{"cursor":"The cursor for pagination (should start at 0 for first call).","howMany":"Maximum number of topups to return in this pagination request."},"returns":{"nextCursor":"The cursor to use for the next pagination request.","topups":"List of topup positions that can be executed."}},"listPositions(address)":{"notice":"Get a list of all positions the `payer` has registered.","params":{"payer":"Address to list position for."},"returns":{"_0":"Records of all registered positions."}}},"notice":"This TopUp Keeper Helper. It is a utility contract to help create Backd TopUp Keepers. It exposes a view that allows the user to query a list of TopUp Positions that can be executed.","version":1},"opcodes":"PUSH1 0x80 PUSH1 0x40 MSTORE CALLVALUE DUP1 ISZERO PUSH2 0x10 JUMPI PUSH1 0x0 DUP1 REVERT JUMPDEST POP PUSH1 0x4 CALLDATASIZE LT PUSH2 0x4C JUMPI PUSH1 0x0 CALLDATALOAD PUSH1 0xE0 SHR DUP1 PUSH4 0x12A07DB0 EQ PUSH2 0x51 JUMPI DUP1 PUSH4 0xB1AC7D39 EQ PUSH2 0x7A JUMPI DUP1 PUSH4 0xBEC93947 EQ PUSH2 0x9B JUMPI DUP1 PUSH4 0xFAAF9121 EQ PUSH2 0xBE JUMPI JUMPDEST PUSH1 0x0 DUP1 REVERT JUMPDEST PUSH2 0x64 PUSH2 0x5F CALLDATASIZE PUSH1 0x4 PUSH2 0xA46 JUMP JUMPDEST PUSH2 0xDE JUMP JUMPDEST PUSH1 0x40 MLOAD PUSH2 0x71 SWAP2 SWAP1 PUSH2 0xB1F JUMP JUMPDEST PUSH1 0x40 MLOAD DUP1 SWAP2 SUB SWAP1 RETURN JUMPDEST PUSH2 0x8D PUSH2 0x88 CALLDATASIZE PUSH1 0x4 PUSH2 0xB8C JUMP JUMPDEST PUSH2 0x33C JUMP JUMPDEST PUSH1 0x40 MLOAD PUSH2 0x71 SWAP3 SWAP2 SWAP1 PUSH2 0xBAE JUMP JUMPDEST PUSH2 0xAE PUSH2 0xA9 CALLDATASIZE PUSH1 0x4 PUSH2 0xCC0 JUMP JUMPDEST PUSH2 0x5A9 JUMP JUMPDEST PUSH1 0x40 MLOAD SWAP1 ISZERO ISZERO DUP2 MSTORE PUSH1 0x20 ADD PUSH2 0x71 JUMP JUMPDEST PUSH2 0xD1 PUSH2 0xCC CALLDATASIZE PUSH1 0x4 PUSH2 0xD2A JUMP JUMPDEST PUSH2 0x768 JUMP JUMPDEST PUSH1 0x40 MLOAD PUSH2 0x71 SWAP2 SWAP1 PUSH2 0xD9E JUMP JUMPDEST PUSH1 0x40 MLOAD PUSH4 0x2A6BC2DD PUSH1 0xE0 SHL DUP2 MSTORE PUSH1 0x1 PUSH1 0x1 PUSH1 0xA0 SHL SUB DUP3 DUP2 AND PUSH1 0x4 DUP4 ADD MSTORE PUSH1 0x60 SWAP2 PUSH1 0x0 SWAP2 PUSH32 0x0 AND SWAP1 PUSH4 0x2A6BC2DD SWAP1 PUSH1 0x24 ADD PUSH1 0x0 PUSH1 0x40 MLOAD DUP1 DUP4 SUB DUP2 DUP7 DUP1 EXTCODESIZE ISZERO DUP1 ISZERO PUSH2 0x145 JUMPI PUSH1 0x0 DUP1 REVERT JUMPDEST POP GAS STATICCALL ISZERO DUP1 ISZERO PUSH2 0x159 JUMPI RETURNDATASIZE PUSH1 0x0 DUP1 RETURNDATACOPY RETURNDATASIZE PUSH1 0x0 REVERT JUMPDEST POP POP POP POP PUSH1 0x40 MLOAD RETURNDATASIZE PUSH1 0x0 DUP3 RETURNDATACOPY PUSH1 0x1F RETURNDATASIZE SWAP1 DUP2 ADD PUSH1 0x1F NOT AND DUP3 ADD PUSH1 0x40 MSTORE PUSH2 0x181 SWAP2 SWAP1 DUP2 ADD SWAP1 PUSH2 0xE17 JUMP JUMPDEST DUP1 MLOAD SWAP1 SWAP2 POP PUSH1 0x0 DUP2 PUSH1 0x1 PUSH1 0x1 PUSH1 0x40 SHL SUB DUP2 GT ISZERO PUSH2 0x1A0 JUMPI PUSH2 0x1A0 PUSH2 0xC2F JUMP JUMPDEST PUSH1 0x40 MLOAD SWAP1 DUP1 DUP3 MSTORE DUP1 PUSH1 0x20 MUL PUSH1 0x20 ADD DUP3 ADD PUSH1 0x40 MSTORE DUP1 ISZERO PUSH2 0x1D9 JUMPI DUP2 PUSH1 0x20 ADD JUMPDEST PUSH2 0x1C6 PUSH2 0x959 JUMP JUMPDEST DUP2 MSTORE PUSH1 0x20 ADD SWAP1 PUSH1 0x1 SWAP1 SUB SWAP1 DUP2 PUSH2 0x1BE JUMPI SWAP1 POP JUMPDEST POP SWAP1 POP PUSH1 0x0 JUMPDEST DUP3 DUP2 LT ISZERO PUSH2 0x333 JUMPI PUSH1 0x0 DUP5 DUP3 DUP2 MLOAD DUP2 LT PUSH2 0x1FB JUMPI PUSH2 0x1FB PUSH2 0xEDA JUMP JUMPDEST PUSH1 0x20 MUL PUSH1 0x20 ADD ADD MLOAD PUSH1 0x0 ADD MLOAD SWAP1 POP PUSH1 0x0 DUP6 DUP4 DUP2 MLOAD DUP2 LT PUSH2 0x21D JUMPI PUSH2 0x21D PUSH2 0xEDA JUMP JUMPDEST PUSH1 0x20 SWAP1 DUP2 MUL SWAP2 SWAP1 SWAP2 ADD DUP2 ADD MLOAD ADD MLOAD PUSH1 0x40 MLOAD PUSH4 0xCC0B4001 PUSH1 0xE0 SHL DUP2 MSTORE PUSH1 0x1 PUSH1 0x1 PUSH1 0xA0 SHL SUB DUP11 DUP2 AND PUSH1 0x4 DUP4 ADD MSTORE DUP5 DUP2 AND PUSH1 0x24 DUP4 ADD MSTORE PUSH1 0x44 DUP3 ADD DUP4 SWAP1 MSTORE SWAP2 SWAP3 POP PUSH1 0x0 SWAP2 PUSH32 0x0 AND SWAP1 PUSH4 0xCC0B4001 SWAP1 PUSH1 0x64 ADD PUSH2 0x120 PUSH1 0x40 MLOAD DUP1 DUP4 SUB DUP2 DUP7 DUP1 EXTCODESIZE ISZERO DUP1 ISZERO PUSH2 0x2A2 JUMPI PUSH1 0x0 DUP1 REVERT JUMPDEST POP GAS STATICCALL ISZERO DUP1 ISZERO PUSH2 0x2B6 JUMPI RETURNDATASIZE PUSH1 0x0 DUP1 RETURNDATACOPY RETURNDATASIZE PUSH1 0x0 REVERT JUMPDEST POP POP POP POP PUSH1 0x40 MLOAD RETURNDATASIZE PUSH1 0x1F NOT PUSH1 0x1F DUP3 ADD AND DUP3 ADD DUP1 PUSH1 0x40 MSTORE POP DUP2 ADD SWAP1 PUSH2 0x2DA SWAP2 SWAP1 PUSH2 0xF2E JUMP JUMPDEST SWAP1 POP PUSH1 0x40 MLOAD DUP1 PUSH1 0x60 ADD PUSH1 0x40 MSTORE DUP1 DUP5 PUSH1 0x1 PUSH1 0x1 PUSH1 0xA0 SHL SUB AND DUP2 MSTORE PUSH1 0x20 ADD DUP4 DUP2 MSTORE PUSH1 0x20 ADD DUP3 DUP2 MSTORE POP DUP6 DUP6 DUP2 MLOAD DUP2 LT PUSH2 0x312 JUMPI PUSH2 0x312 PUSH2 0xEDA JUMP JUMPDEST PUSH1 0x20 MUL PUSH1 0x20 ADD ADD DUP2 SWAP1 MSTORE POP POP POP POP DUP1 DUP1 PUSH2 0x32B SWAP1 PUSH2 0xFFA JUMP JUMPDEST SWAP2 POP POP PUSH2 0x1DF JUMP JUMPDEST POP SWAP5 SWAP4 POP POP POP POP JUMP JUMPDEST PUSH1 0x60 PUSH1 0x0 DUP1 DUP4 PUSH1 0x1 PUSH1 0x1 PUSH1 0x40 SHL SUB DUP2 GT ISZERO PUSH2 0x359 JUMPI PUSH2 0x359 PUSH2 0xC2F JUMP JUMPDEST PUSH1 0x40 MLOAD SWAP1 DUP1 DUP3 MSTORE DUP1 PUSH1 0x20 MUL PUSH1 0x20 ADD DUP3 ADD PUSH1 0x40 MSTORE DUP1 ISZERO PUSH2 0x392 JUMPI DUP2 PUSH1 0x20 ADD JUMPDEST PUSH2 0x37F PUSH2 0x9C4 JUMP JUMPDEST DUP2 MSTORE PUSH1 0x20 ADD SWAP1 PUSH1 0x1 SWAP1 SUB SWAP1 DUP2 PUSH2 0x377 JUMPI SWAP1 POP JUMPDEST POP SWAP1 POP PUSH1 0x0 JUMPDEST PUSH1 0x40 MLOAD PUSH4 0xC84CE0D PUSH1 0xE4 SHL DUP2 MSTORE PUSH1 0x4 DUP2 ADD DUP8 SWAP1 MSTORE PUSH1 0x24 DUP2 ADD DUP7 SWAP1 MSTORE PUSH1 0x0 SWAP1 PUSH32 0x0 PUSH1 0x1 PUSH1 0x1 PUSH1 0xA0 SHL SUB AND SWAP1 PUSH4 0xC84CE0D0 SWAP1 PUSH1 0x44 ADD PUSH1 0x0 PUSH1 0x40 MLOAD DUP1 DUP4 SUB DUP2 DUP7 DUP1 EXTCODESIZE ISZERO DUP1 ISZERO PUSH2 0x402 JUMPI PUSH1 0x0 DUP1 REVERT JUMPDEST POP GAS STATICCALL ISZERO DUP1 ISZERO PUSH2 0x416 JUMPI RETURNDATASIZE PUSH1 0x0 DUP1 RETURNDATACOPY RETURNDATASIZE PUSH1 0x0 REVERT JUMPDEST POP POP POP POP PUSH1 0x40 MLOAD RETURNDATASIZE PUSH1 0x0 DUP3 RETURNDATACOPY PUSH1 0x1F RETURNDATASIZE SWAP1 DUP2 ADD PUSH1 0x1F NOT AND DUP3 ADD PUSH1 0x40 MSTORE PUSH2 0x43E SWAP2 SWAP1 DUP2 ADD SWAP1 PUSH2 0x1015 JUMP JUMPDEST POP SWAP1 POP DUP1 MLOAD PUSH1 0x0 EQ ISZERO PUSH2 0x463 JUMPI PUSH2 0x455 DUP4 DUP4 PUSH2 0x827 JUMP JUMPDEST PUSH1 0x0 SWAP5 POP SWAP5 POP POP POP POP PUSH2 0x5A2 JUMP JUMPDEST PUSH1 0x0 JUMPDEST DUP2 MLOAD DUP2 LT ISZERO PUSH2 0x58F JUMPI PUSH1 0x0 DUP3 DUP3 DUP2 MLOAD DUP2 LT PUSH2 0x483 JUMPI PUSH2 0x483 PUSH2 0xEDA JUMP JUMPDEST PUSH1 0x20 MUL PUSH1 0x20 ADD ADD MLOAD SWAP1 POP PUSH1 0x0 PUSH2 0x498 DUP3 PUSH2 0xDE JUMP JUMPDEST SWAP1 POP PUSH1 0x0 JUMPDEST DUP2 MLOAD DUP2 LT ISZERO PUSH2 0x579 JUMPI PUSH1 0x0 DUP3 DUP3 DUP2 MLOAD DUP2 LT PUSH2 0x4BA JUMPI PUSH2 0x4BA PUSH2 0xEDA JUMP JUMPDEST PUSH1 0x20 MUL PUSH1 0x20 ADD ADD MLOAD SWAP1 POP PUSH2 0x4CE DUP5 DUP3 PUSH2 0x8D4 JUMP JUMPDEST PUSH2 0x4D8 JUMPI POP PUSH2 0x567 JUMP JUMPDEST PUSH2 0x4E2 DUP5 DUP3 PUSH2 0x91A JUMP JUMPDEST DUP9 DUP9 DUP2 MLOAD DUP2 LT PUSH2 0x4F4 JUMPI PUSH2 0x4F4 PUSH2 0xEDA JUMP JUMPDEST PUSH1 0x20 MUL PUSH1 0x20 ADD ADD DUP2 SWAP1 MSTORE POP DUP7 DUP1 PUSH2 0x50A SWAP1 PUSH2 0xFFA JUMP JUMPDEST SWAP8 POP POP PUSH1 0x0 PUSH1 0x1 DUP5 MLOAD PUSH2 0x51D SWAP2 SWAP1 PUSH2 0x10B6 JUMP JUMPDEST DUP4 EQ PUSH2 0x52A JUMPI PUSH1 0x0 PUSH2 0x52D JUMP JUMPDEST PUSH1 0x1 JUMPDEST PUSH1 0xFF AND SWAP1 POP DUP12 DUP9 EQ ISZERO PUSH2 0x564 JUMPI DUP9 DUP2 DUP8 DUP16 PUSH2 0x548 SWAP2 SWAP1 PUSH2 0x10CD JUMP JUMPDEST PUSH2 0x552 SWAP2 SWAP1 PUSH2 0x10CD JUMP JUMPDEST SWAP11 POP SWAP11 POP POP POP POP POP POP POP POP POP POP PUSH2 0x5A2 JUMP JUMPDEST POP POP JUMPDEST DUP1 PUSH2 0x571 DUP2 PUSH2 0xFFA JUMP JUMPDEST SWAP2 POP POP PUSH2 0x49D JUMP JUMPDEST POP POP POP DUP1 DUP1 PUSH2 0x587 SWAP1 PUSH2 0xFFA JUMP JUMPDEST SWAP2 POP POP PUSH2 0x466 JUMP JUMPDEST POP PUSH2 0x59A DUP7 DUP9 PUSH2 0x10CD JUMP JUMPDEST SWAP7 POP POP PUSH2 0x398 JUMP JUMPDEST SWAP3 POP SWAP3 SWAP1 POP JUMP JUMPDEST DUP1 MLOAD PUSH1 0x20 DUP3 ADD MLOAD PUSH1 0x40 DUP1 DUP5 ADD MLOAD SWAP1 MLOAD PUSH4 0xCC0B4001 PUSH1 0xE0 SHL DUP2 MSTORE PUSH1 0x1 PUSH1 0x1 PUSH1 0xA0 SHL SUB SWAP4 DUP5 AND PUSH1 0x4 DUP3 ADD MSTORE SWAP2 DUP4 AND PUSH1 0x24 DUP4 ADD MSTORE PUSH1 0x44 DUP3 ADD MSTORE PUSH1 0x0 SWAP2 DUP3 SWAP2 PUSH32 0x0 SWAP1 SWAP2 AND SWAP1 PUSH4 0xCC0B4001 SWAP1 PUSH1 0x64 ADD PUSH2 0x120 PUSH1 0x40 MLOAD DUP1 DUP4 SUB DUP2 DUP7 DUP1 EXTCODESIZE ISZERO DUP1 ISZERO PUSH2 0x62B JUMPI PUSH1 0x0 DUP1 REVERT JUMPDEST POP GAS STATICCALL ISZERO DUP1 ISZERO PUSH2 0x63F JUMPI RETURNDATASIZE PUSH1 0x0 DUP1 RETURNDATACOPY RETURNDATASIZE PUSH1 0x0 REVERT JUMPDEST POP POP POP POP PUSH1 0x40 MLOAD RETURNDATASIZE PUSH1 0x1F NOT PUSH1 0x1F DUP3 ADD AND DUP3 ADD DUP1 PUSH1 0x40 MSTORE POP DUP2 ADD SWAP1 PUSH2 0x663 SWAP2 SWAP1 PUSH2 0xF2E JUMP JUMPDEST DUP1 MLOAD SWAP1 SWAP2 POP PUSH1 0x1 PUSH1 0x1 PUSH1 0x40 SHL SUB AND ISZERO DUP1 PUSH2 0x688 JUMPI POP PUSH1 0xC0 DUP2 ADD MLOAD PUSH1 0x1 PUSH1 0x1 PUSH1 0x80 SHL SUB AND ISZERO JUMPDEST ISZERO PUSH2 0x696 JUMPI POP PUSH1 0x0 SWAP3 SWAP2 POP POP JUMP JUMPDEST PUSH1 0x40 DUP1 DUP5 ADD MLOAD PUSH1 0x20 DUP6 ADD MLOAD SWAP2 MLOAD PUSH1 0x1 PUSH3 0xEC28E7 PUSH1 0xE0 SHL SUB NOT DUP2 MSTORE PUSH1 0x0 SWAP3 PUSH1 0x1 PUSH1 0x1 PUSH1 0xA0 SHL SUB PUSH32 0x0 AND SWAP3 PUSH4 0xFF13D719 SWAP3 PUSH2 0x703 SWAP3 SWAP1 PUSH1 0x4 ADD SWAP2 DUP3 MSTORE PUSH1 0x1 PUSH1 0x1 PUSH1 0xA0 SHL SUB AND PUSH1 0x20 DUP3 ADD MSTORE PUSH1 0x40 ADD SWAP1 JUMP JUMPDEST PUSH1 0x20 PUSH1 0x40 MLOAD DUP1 DUP4 SUB DUP2 DUP7 DUP1 EXTCODESIZE ISZERO DUP1 ISZERO PUSH2 0x71B JUMPI PUSH1 0x0 DUP1 REVERT JUMPDEST POP GAS STATICCALL ISZERO DUP1 ISZERO PUSH2 0x72F JUMPI RETURNDATASIZE PUSH1 0x0 DUP1 RETURNDATACOPY RETURNDATASIZE PUSH1 0x0 REVERT JUMPDEST POP POP POP POP PUSH1 0x40 MLOAD RETURNDATASIZE PUSH1 0x1F NOT PUSH1 0x1F DUP3 ADD AND DUP3 ADD DUP1 PUSH1 0x40 MSTORE POP DUP2 ADD SWAP1 PUSH2 0x753 SWAP2 SWAP1 PUSH2 0x10E5 JUMP JUMPDEST SWAP2 MLOAD PUSH1 0x1 PUSH1 0x1 PUSH1 0x40 SHL SUB AND SWAP1 SWAP2 LT SWAP4 SWAP3 POP POP POP JUMP JUMPDEST PUSH1 0x60 PUSH1 0x0 DUP3 PUSH1 0x1 PUSH1 0x1 PUSH1 0x40 SHL SUB DUP2 GT ISZERO PUSH2 0x784 JUMPI PUSH2 0x784 PUSH2 0xC2F JUMP JUMPDEST PUSH1 0x40 MLOAD SWAP1 DUP1 DUP3 MSTORE DUP1 PUSH1 0x20 MUL PUSH1 0x20 ADD DUP3 ADD PUSH1 0x40 MSTORE DUP1 ISZERO PUSH2 0x7AD JUMPI DUP2 PUSH1 0x20 ADD PUSH1 0x20 DUP3 MUL DUP1 CALLDATASIZE DUP4 CALLDATACOPY ADD SWAP1 POP JUMPDEST POP SWAP1 POP PUSH1 0x0 JUMPDEST DUP4 DUP2 LT ISZERO PUSH2 0x81F JUMPI CALLDATASIZE DUP6 DUP6 DUP4 DUP2 DUP2 LT PUSH2 0x7CE JUMPI PUSH2 0x7CE PUSH2 0xEDA JUMP JUMPDEST SWAP1 POP PUSH1 0x60 MUL ADD SWAP1 POP PUSH2 0x7EA DUP2 DUP1 CALLDATASIZE SUB DUP2 ADD SWAP1 PUSH2 0xA9 SWAP2 SWAP1 PUSH2 0xCC0 JUMP JUMPDEST DUP4 DUP4 DUP2 MLOAD DUP2 LT PUSH2 0x7FC JUMPI PUSH2 0x7FC PUSH2 0xEDA JUMP JUMPDEST SWAP2 ISZERO ISZERO PUSH1 0x20 SWAP3 DUP4 MUL SWAP2 SWAP1 SWAP2 ADD SWAP1 SWAP2 ADD MSTORE POP DUP1 PUSH2 0x817 DUP2 PUSH2 0xFFA JUMP JUMPDEST SWAP2 POP POP PUSH2 0x7B3 JUMP JUMPDEST POP SWAP4 SWAP3 POP POP POP JUMP JUMPDEST PUSH1 0x60 PUSH1 0x0 DUP3 PUSH1 0x1 PUSH1 0x1 PUSH1 0x40 SHL SUB DUP2 GT ISZERO PUSH2 0x843 JUMPI PUSH2 0x843 PUSH2 0xC2F JUMP JUMPDEST PUSH1 0x40 MLOAD SWAP1 DUP1 DUP3 MSTORE DUP1 PUSH1 0x20 MUL PUSH1 0x20 ADD DUP3 ADD PUSH1 0x40 MSTORE DUP1 ISZERO PUSH2 0x87C JUMPI DUP2 PUSH1 0x20 ADD JUMPDEST PUSH2 0x869 PUSH2 0x9C4 JUMP JUMPDEST DUP2 MSTORE PUSH1 0x20 ADD SWAP1 PUSH1 0x1 SWAP1 SUB SWAP1 DUP2 PUSH2 0x861 JUMPI SWAP1 POP JUMPDEST POP SWAP1 POP PUSH1 0x0 JUMPDEST DUP4 DUP2 LT ISZERO PUSH2 0x81F JUMPI DUP5 DUP2 DUP2 MLOAD DUP2 LT PUSH2 0x89C JUMPI PUSH2 0x89C PUSH2 0xEDA JUMP JUMPDEST PUSH1 0x20 MUL PUSH1 0x20 ADD ADD MLOAD DUP3 DUP3 DUP2 MLOAD DUP2 LT PUSH2 0x8B6 JUMPI PUSH2 0x8B6 PUSH2 0xEDA JUMP JUMPDEST PUSH1 0x20 MUL PUSH1 0x20 ADD ADD DUP2 SWAP1 MSTORE POP DUP1 DUP1 PUSH2 0x8CC SWAP1 PUSH2 0xFFA JUMP JUMPDEST SWAP2 POP POP PUSH2 0x882 JUMP JUMPDEST PUSH1 0x0 PUSH2 0x913 PUSH1 0x40 MLOAD DUP1 PUSH1 0x60 ADD PUSH1 0x40 MSTORE DUP1 DUP6 PUSH1 0x1 PUSH1 0x1 PUSH1 0xA0 SHL SUB AND DUP2 MSTORE PUSH1 0x20 ADD DUP5 PUSH1 0x0 ADD MLOAD PUSH1 0x1 PUSH1 0x1 PUSH1 0xA0 SHL SUB AND DUP2 MSTORE PUSH1 0x20 ADD DUP5 PUSH1 0x20 ADD MLOAD DUP2 MSTORE POP PUSH2 0x5A9 JUMP JUMPDEST SWAP4 SWAP3 POP POP POP JUMP JUMPDEST PUSH2 0x922 PUSH2 0x9C4 JUMP JUMPDEST POP PUSH1 0x40 DUP1 MLOAD PUSH1 0x80 DUP2 ADD DUP3 MSTORE PUSH1 0x1 PUSH1 0x1 PUSH1 0xA0 SHL SUB SWAP4 DUP5 AND DUP2 MSTORE DUP3 MLOAD SWAP1 SWAP4 AND PUSH1 0x20 DUP1 DUP6 ADD SWAP2 SWAP1 SWAP2 MSTORE DUP3 ADD MLOAD DUP4 DUP3 ADD MSTORE ADD MLOAD PUSH1 0x60 DUP3 ADD MSTORE SWAP1 JUMP JUMPDEST PUSH1 0x40 DUP1 MLOAD PUSH1 0x60 DUP2 ADD DUP3 MSTORE PUSH1 0x0 DUP1 DUP3 MSTORE PUSH1 0x20 DUP3 ADD MSTORE SWAP1 DUP2 ADD PUSH2 0x9BF PUSH1 0x40 DUP1 MLOAD PUSH2 0x120 DUP2 ADD DUP3 MSTORE PUSH1 0x0 DUP1 DUP3 MSTORE PUSH1 0x20 DUP3 ADD DUP2 SWAP1 MSTORE SWAP2 DUP2 ADD DUP3 SWAP1 MSTORE PUSH1 0x60 DUP2 ADD DUP3 SWAP1 MSTORE PUSH1 0x80 DUP2 ADD DUP3 SWAP1 MSTORE PUSH1 0xA0 DUP2 ADD DUP3 SWAP1 MSTORE PUSH1 0xC0 DUP2 ADD DUP3 SWAP1 MSTORE PUSH1 0xE0 DUP2 ADD DUP3 SWAP1 MSTORE PUSH2 0x100 DUP2 ADD SWAP2 SWAP1 SWAP2 MSTORE SWAP1 JUMP JUMPDEST SWAP1 MSTORE SWAP1 JUMP JUMPDEST PUSH1 0x40 DUP1 MLOAD PUSH1 0x80 DUP1 DUP3 ADD DUP4 MSTORE PUSH1 0x0 DUP1 DUP4 MSTORE PUSH1 0x20 DUP1 DUP5 ADD DUP3 SWAP1 MSTORE DUP4 DUP6 ADD DUP3 SWAP1 MSTORE DUP5 MLOAD PUSH2 0x120 DUP2 ADD DUP7 MSTORE DUP3 DUP2 MSTORE SWAP1 DUP2 ADD DUP3 SWAP1 MSTORE SWAP4 DUP5 ADD DUP2 SWAP1 MSTORE PUSH1 0x60 DUP5 DUP2 ADD DUP3 SWAP1 MSTORE SWAP2 DUP5 ADD DUP2 SWAP1 MSTORE PUSH1 0xA0 DUP5 ADD DUP2 SWAP1 MSTORE PUSH1 0xC0 DUP5 ADD DUP2 SWAP1 MSTORE PUSH1 0xE0 DUP5 ADD DUP2 SWAP1 MSTORE PUSH2 0x100 DUP5 ADD MSTORE SWAP1 SWAP2 SWAP1 DUP3 ADD SWAP1 PUSH2 0x9BF JUMP JUMPDEST PUSH1 0x1 PUSH1 0x1 PUSH1 0xA0 SHL SUB DUP2 AND DUP2 EQ PUSH2 0xA43 JUMPI PUSH1 0x0 DUP1 REVERT JUMPDEST POP JUMP JUMPDEST PUSH1 0x0 PUSH1 0x20 DUP3 DUP5 SUB SLT ISZERO PUSH2 0xA58 JUMPI PUSH1 0x0 DUP1 REVERT JUMPDEST DUP2 CALLDATALOAD PUSH2 0x913 DUP2 PUSH2 0xA2E JUMP JUMPDEST PUSH1 0x1 PUSH1 0x1 PUSH1 0x40 SHL SUB DUP1 DUP3 MLOAD AND DUP4 MSTORE DUP1 PUSH1 0x20 DUP4 ADD MLOAD AND PUSH1 0x20 DUP5 ADD MSTORE DUP1 PUSH1 0x40 DUP4 ADD MLOAD AND PUSH1 0x40 DUP5 ADD MSTORE POP PUSH1 0x60 DUP2 ADD MLOAD PUSH2 0xAA4 PUSH1 0x60 DUP5 ADD DUP3 PUSH1 0x1 PUSH1 0x1 PUSH1 0xA0 SHL SUB AND SWAP1 MSTORE JUMP JUMPDEST POP PUSH1 0x80 DUP2 ADD MLOAD PUSH2 0xABF PUSH1 0x80 DUP5 ADD DUP3 PUSH1 0x1 PUSH1 0x1 PUSH1 0xA0 SHL SUB AND SWAP1 MSTORE JUMP JUMPDEST POP PUSH1 0xA0 DUP2 ADD MLOAD PUSH2 0xADA PUSH1 0xA0 DUP5 ADD DUP3 PUSH1 0x1 PUSH1 0x1 PUSH1 0x80 SHL SUB AND SWAP1 MSTORE JUMP JUMPDEST POP PUSH1 0xC0 DUP2 ADD MLOAD PUSH2 0xAF5 PUSH1 0xC0 DUP5 ADD DUP3 PUSH1 0x1 PUSH1 0x1 PUSH1 0x80 SHL SUB AND SWAP1 MSTORE JUMP JUMPDEST POP PUSH1 0xE0 DUP2 ADD MLOAD PUSH2 0xB10 PUSH1 0xE0 DUP5 ADD DUP3 PUSH1 0x1 PUSH1 0x1 PUSH1 0x80 SHL SUB AND SWAP1 MSTORE JUMP JUMPDEST POP PUSH2 0x100 SWAP1 DUP2 ADD MLOAD ISZERO ISZERO SWAP2 ADD MSTORE JUMP JUMPDEST PUSH1 0x20 DUP1 DUP3 MSTORE DUP3 MLOAD DUP3 DUP3 ADD DUP2 SWAP1 MSTORE PUSH1 0x0 SWAP2 SWAP1 PUSH1 0x40 SWAP1 DUP2 DUP6 ADD SWAP1 DUP7 DUP5 ADD DUP6 JUMPDEST DUP3 DUP2 LT ISZERO PUSH2 0xB7F JUMPI DUP2 MLOAD DUP1 MLOAD PUSH1 0x1 PUSH1 0x1 PUSH1 0xA0 SHL SUB AND DUP6 MSTORE DUP7 DUP2 ADD MLOAD DUP8 DUP7 ADD MSTORE DUP6 ADD MLOAD PUSH2 0xB6A DUP7 DUP7 ADD DUP3 PUSH2 0xA63 JUMP JUMPDEST POP PUSH2 0x160 SWAP4 SWAP1 SWAP4 ADD SWAP3 SWAP1 DUP6 ADD SWAP1 PUSH1 0x1 ADD PUSH2 0xB3C JUMP JUMPDEST POP SWAP2 SWAP8 SWAP7 POP POP POP POP POP POP POP JUMP JUMPDEST PUSH1 0x0 DUP1 PUSH1 0x40 DUP4 DUP6 SUB SLT ISZERO PUSH2 0xB9F JUMPI PUSH1 0x0 DUP1 REVERT JUMPDEST POP POP DUP1 CALLDATALOAD SWAP3 PUSH1 0x20 SWAP1 SWAP2 ADD CALLDATALOAD SWAP2 POP JUMP JUMPDEST PUSH1 0x40 DUP1 DUP3 MSTORE DUP4 MLOAD DUP3 DUP3 ADD DUP2 SWAP1 MSTORE PUSH1 0x0 SWAP2 SWAP1 PUSH1 0x60 SWAP1 DUP2 DUP6 ADD SWAP1 PUSH1 0x20 DUP1 DUP10 ADD DUP7 JUMPDEST DUP4 DUP2 LT ISZERO PUSH2 0xC1B JUMPI DUP2 MLOAD DUP1 MLOAD PUSH1 0x1 PUSH1 0x1 PUSH1 0xA0 SHL SUB SWAP1 DUP2 AND DUP8 MSTORE DUP5 DUP3 ADD MLOAD AND DUP5 DUP8 ADD MSTORE DUP8 DUP2 ADD MLOAD DUP9 DUP8 ADD MSTORE DUP7 ADD MLOAD PUSH2 0xC06 DUP8 DUP8 ADD DUP3 PUSH2 0xA63 JUMP JUMPDEST POP PUSH2 0x180 SWAP5 SWAP1 SWAP5 ADD SWAP4 SWAP1 DUP3 ADD SWAP1 PUSH1 0x1 ADD PUSH2 0xBCD JUMP JUMPDEST POP POP SWAP6 SWAP1 SWAP6 ADD SWAP6 SWAP1 SWAP6 MSTORE POP SWAP3 SWAP5 SWAP4 POP POP POP POP JUMP JUMPDEST PUSH4 0x4E487B71 PUSH1 0xE0 SHL PUSH1 0x0 MSTORE PUSH1 0x41 PUSH1 0x4 MSTORE PUSH1 0x24 PUSH1 0x0 REVERT JUMPDEST PUSH1 0x40 DUP1 MLOAD SWAP1 DUP2 ADD PUSH1 0x1 PUSH1 0x1 PUSH1 0x40 SHL SUB DUP2 GT DUP3 DUP3 LT OR ISZERO PUSH2 0xC67 JUMPI PUSH2 0xC67 PUSH2 0xC2F JUMP JUMPDEST PUSH1 0x40 MSTORE SWAP1 JUMP JUMPDEST PUSH1 0x40 MLOAD PUSH2 0x120 DUP2 ADD PUSH1 0x1 PUSH1 0x1 PUSH1 0x40 SHL SUB DUP2 GT DUP3 DUP3 LT OR ISZERO PUSH2 0xC67 JUMPI PUSH2 0xC67 PUSH2 0xC2F JUMP JUMPDEST PUSH1 0x40 MLOAD PUSH1 0x1F DUP3 ADD PUSH1 0x1F NOT AND DUP2 ADD PUSH1 0x1 PUSH1 0x1 PUSH1 0x40 SHL SUB DUP2 GT DUP3 DUP3 LT OR ISZERO PUSH2 0xCB8 JUMPI PUSH2 0xCB8 PUSH2 0xC2F JUMP JUMPDEST PUSH1 0x40 MSTORE SWAP2 SWAP1 POP JUMP JUMPDEST PUSH1 0x0 PUSH1 0x60 DUP3 DUP5 SUB SLT ISZERO PUSH2 0xCD2 JUMPI PUSH1 0x0 DUP1 REVERT JUMPDEST PUSH1 0x40 MLOAD PUSH1 0x60 DUP2 ADD DUP2 DUP2 LT PUSH1 0x1 PUSH1 0x1 PUSH1 0x40 SHL SUB DUP3 GT OR ISZERO PUSH2 0xCF4 JUMPI PUSH2 0xCF4 PUSH2 0xC2F JUMP JUMPDEST PUSH1 0x40 MSTORE DUP3 CALLDATALOAD PUSH2 0xD02 DUP2 PUSH2 0xA2E JUMP JUMPDEST DUP2 MSTORE PUSH1 0x20 DUP4 ADD CALLDATALOAD PUSH2 0xD12 DUP2 PUSH2 0xA2E JUMP JUMPDEST PUSH1 0x20 DUP3 ADD MSTORE PUSH1 0x40 SWAP3 DUP4 ADD CALLDATALOAD SWAP3 DUP2 ADD SWAP3 SWAP1 SWAP3 MSTORE POP SWAP2 SWAP1 POP JUMP JUMPDEST PUSH1 0x0 DUP1 PUSH1 0x20 DUP4 DUP6 SUB SLT ISZERO PUSH2 0xD3D JUMPI PUSH1 0x0 DUP1 REVERT JUMPDEST DUP3 CALLDATALOAD PUSH1 0x1 PUSH1 0x1 PUSH1 0x40 SHL SUB DUP1 DUP3 GT ISZERO PUSH2 0xD54 JUMPI PUSH1 0x0 DUP1 REVERT JUMPDEST DUP2 DUP6 ADD SWAP2 POP DUP6 PUSH1 0x1F DUP4 ADD SLT PUSH2 0xD68 JUMPI PUSH1 0x0 DUP1 REVERT JUMPDEST DUP2 CALLDATALOAD DUP2 DUP2 GT ISZERO PUSH2 0xD77 JUMPI PUSH1 0x0 DUP1 REVERT JUMPDEST DUP7 PUSH1 0x20 PUSH1 0x60 DUP4 MUL DUP6 ADD ADD GT ISZERO PUSH2 0xD8C JUMPI PUSH1 0x0 DUP1 REVERT JUMPDEST PUSH1 0x20 SWAP3 SWAP1 SWAP3 ADD SWAP7 SWAP2 SWAP6 POP SWAP1 SWAP4 POP POP POP POP JUMP JUMPDEST PUSH1 0x20 DUP1 DUP3 MSTORE DUP3 MLOAD DUP3 DUP3 ADD DUP2 SWAP1 MSTORE PUSH1 0x0 SWAP2 SWAP1 DUP5 DUP3 ADD SWAP1 PUSH1 0x40 DUP6 ADD SWAP1 DUP5 JUMPDEST DUP2 DUP2 LT ISZERO PUSH2 0xDD8 JUMPI DUP4 MLOAD ISZERO ISZERO DUP4 MSTORE SWAP3 DUP5 ADD SWAP3 SWAP2 DUP5 ADD SWAP2 PUSH1 0x1 ADD PUSH2 0xDBA JUMP JUMPDEST POP SWAP1 SWAP7 SWAP6 POP POP POP POP POP POP JUMP JUMPDEST PUSH1 0x0 PUSH1 0x1 PUSH1 0x1 PUSH1 0x40 SHL SUB DUP3 GT ISZERO PUSH2 0xDFD JUMPI PUSH2 0xDFD PUSH2 0xC2F JUMP JUMPDEST POP PUSH1 0x5 SHL PUSH1 0x20 ADD SWAP1 JUMP JUMPDEST DUP1 MLOAD PUSH2 0xE12 DUP2 PUSH2 0xA2E JUMP JUMPDEST SWAP2 SWAP1 POP JUMP JUMPDEST PUSH1 0x0 PUSH1 0x20 DUP1 DUP4 DUP6 SUB SLT ISZERO PUSH2 0xE2A JUMPI PUSH1 0x0 DUP1 REVERT JUMPDEST DUP3 MLOAD PUSH1 0x1 PUSH1 0x1 PUSH1 0x40 SHL SUB DUP2 GT ISZERO PUSH2 0xE40 JUMPI PUSH1 0x0 DUP1 REVERT JUMPDEST DUP4 ADD PUSH1 0x1F DUP2 ADD DUP6 SGT PUSH2 0xE51 JUMPI PUSH1 0x0 DUP1 REVERT JUMPDEST DUP1 MLOAD PUSH2 0xE64 PUSH2 0xE5F DUP3 PUSH2 0xDE4 JUMP JUMPDEST PUSH2 0xC90 JUMP JUMPDEST DUP2 DUP2 MSTORE PUSH1 0x6 SWAP2 SWAP1 SWAP2 SHL DUP3 ADD DUP4 ADD SWAP1 DUP4 DUP2 ADD SWAP1 DUP8 DUP4 GT ISZERO PUSH2 0xE83 JUMPI PUSH1 0x0 DUP1 REVERT JUMPDEST SWAP3 DUP5 ADD SWAP3 JUMPDEST DUP3 DUP5 LT ISZERO PUSH2 0xECF JUMPI PUSH1 0x40 DUP5 DUP10 SUB SLT ISZERO PUSH2 0xEA1 JUMPI PUSH1 0x0 DUP1 DUP2 REVERT JUMPDEST PUSH2 0xEA9 PUSH2 0xC45 JUMP JUMPDEST DUP5 MLOAD PUSH2 0xEB4 DUP2 PUSH2 0xA2E JUMP JUMPDEST DUP2 MSTORE DUP5 DUP7 ADD MLOAD DUP7 DUP3 ADD MSTORE DUP3 MSTORE PUSH1 0x40 SWAP1 SWAP4 ADD SWAP3 SWAP1 DUP5 ADD SWAP1 PUSH2 0xE88 JUMP JUMPDEST SWAP8 SWAP7 POP POP POP POP POP POP POP JUMP JUMPDEST PUSH4 0x4E487B71 PUSH1 0xE0 SHL PUSH1 0x0 MSTORE PUSH1 0x32 PUSH1 0x4 MSTORE PUSH1 0x24 PUSH1 0x0 REVERT JUMPDEST DUP1 MLOAD PUSH1 0x1 PUSH1 0x1 PUSH1 0x40 SHL SUB DUP2 AND DUP2 EQ PUSH2 0xE12 JUMPI PUSH1 0x0 DUP1 REVERT JUMPDEST DUP1 MLOAD PUSH1 0x1 PUSH1 0x1 PUSH1 0x80 SHL SUB DUP2 AND DUP2 EQ PUSH2 0xE12 JUMPI PUSH1 0x0 DUP1 REVERT JUMPDEST DUP1 MLOAD DUP1 ISZERO ISZERO DUP2 EQ PUSH2 0xE12 JUMPI PUSH1 0x0 DUP1 REVERT JUMPDEST PUSH1 0x0 PUSH2 0x120 DUP3 DUP5 SUB SLT ISZERO PUSH2 0xF41 JUMPI PUSH1 0x0 DUP1 REVERT JUMPDEST PUSH2 0xF49 PUSH2 0xC6D JUMP JUMPDEST PUSH2 0xF52 DUP4 PUSH2 0xEF0 JUMP JUMPDEST DUP2 MSTORE PUSH2 0xF60 PUSH1 0x20 DUP5 ADD PUSH2 0xEF0 JUMP JUMPDEST PUSH1 0x20 DUP3 ADD MSTORE PUSH2 0xF71 PUSH1 0x40 DUP5 ADD PUSH2 0xEF0 JUMP JUMPDEST PUSH1 0x40 DUP3 ADD MSTORE PUSH2 0xF82 PUSH1 0x60 DUP5 ADD PUSH2 0xE07 JUMP JUMPDEST PUSH1 0x60 DUP3 ADD MSTORE PUSH2 0xF93 PUSH1 0x80 DUP5 ADD PUSH2 0xE07 JUMP JUMPDEST PUSH1 0x80 DUP3 ADD MSTORE PUSH2 0xFA4 PUSH1 0xA0 DUP5 ADD PUSH2 0xF07 JUMP JUMPDEST PUSH1 0xA0 DUP3 ADD MSTORE PUSH2 0xFB5 PUSH1 0xC0 DUP5 ADD PUSH2 0xF07 JUMP JUMPDEST PUSH1 0xC0 DUP3 ADD MSTORE PUSH2 0xFC6 PUSH1 0xE0 DUP5 ADD PUSH2 0xF07 JUMP JUMPDEST PUSH1 0xE0 DUP3 ADD MSTORE PUSH2 0x100 PUSH2 0xFD9 DUP2 DUP6 ADD PUSH2 0xF1E JUMP JUMPDEST SWAP1 DUP3 ADD MSTORE SWAP4 SWAP3 POP POP POP JUMP JUMPDEST PUSH4 0x4E487B71 PUSH1 0xE0 SHL PUSH1 0x0 MSTORE PUSH1 0x11 PUSH1 0x4 MSTORE PUSH1 0x24 PUSH1 0x0 REVERT JUMPDEST PUSH1 0x0 PUSH1 0x0 NOT DUP3 EQ ISZERO PUSH2 0x100E JUMPI PUSH2 0x100E PUSH2 0xFE4 JUMP JUMPDEST POP PUSH1 0x1 ADD SWAP1 JUMP JUMPDEST PUSH1 0x0 DUP1 PUSH1 0x40 DUP4 DUP6 SUB SLT ISZERO PUSH2 0x1028 JUMPI PUSH1 0x0 DUP1 REVERT JUMPDEST DUP3 MLOAD PUSH1 0x1 PUSH1 0x1 PUSH1 0x40 SHL SUB DUP2 GT ISZERO PUSH2 0x103E JUMPI PUSH1 0x0 DUP1 REVERT JUMPDEST DUP4 ADD PUSH1 0x1F DUP2 ADD DUP6 SGT PUSH2 0x104F JUMPI PUSH1 0x0 DUP1 REVERT JUMPDEST DUP1 MLOAD PUSH1 0x20 PUSH2 0x105F PUSH2 0xE5F DUP4 PUSH2 0xDE4 JUMP JUMPDEST DUP3 DUP2 MSTORE PUSH1 0x5 SWAP3 SWAP1 SWAP3 SHL DUP4 ADD DUP2 ADD SWAP2 DUP2 DUP2 ADD SWAP1 DUP9 DUP5 GT ISZERO PUSH2 0x107E JUMPI PUSH1 0x0 DUP1 REVERT JUMPDEST SWAP4 DUP3 ADD SWAP4 JUMPDEST DUP4 DUP6 LT ISZERO PUSH2 0x10A5 JUMPI DUP5 MLOAD PUSH2 0x1096 DUP2 PUSH2 0xA2E JUMP JUMPDEST DUP3 MSTORE SWAP4 DUP3 ADD SWAP4 SWAP1 DUP3 ADD SWAP1 PUSH2 0x1083 JUMP JUMPDEST SWAP7 SWAP1 SWAP2 ADD MLOAD SWAP6 SWAP8 SWAP6 SWAP7 POP POP POP POP POP POP JUMP JUMPDEST PUSH1 0x0 DUP3 DUP3 LT ISZERO PUSH2 0x10C8 JUMPI PUSH2 0x10C8 PUSH2 0xFE4 JUMP JUMPDEST POP SUB SWAP1 JUMP JUMPDEST PUSH1 0x0 DUP3 NOT DUP3 GT ISZERO PUSH2 0x10E0 JUMPI PUSH2 0x10E0 PUSH2 0xFE4 JUMP JUMPDEST POP ADD SWAP1 JUMP JUMPDEST PUSH1 0x0 PUSH1 0x20 DUP3 DUP5 SUB SLT ISZERO PUSH2 0x10F7 JUMPI PUSH1 0x0 DUP1 REVERT JUMPDEST POP MLOAD SWAP2 SWAP1 POP JUMP INVALID LOG2 PUSH5 0x6970667358 0x22 SLT KECCAK256 CALLDATALOAD 0xC7 PUSH26 0xA0399ECF0F9DC229C8E4E5595FCE8B2291F3D13EC2F54345C1CE 0xD1 PUSH6 0x4F64736F6C63 NUMBER STOP ADDMOD MULMOD STOP CALLER ","sha1":"21fc2f1a9e2179b4791a6357b5d864e8b45fcd41","source":"// SPDX-License-Identifier: GPL-3.0-or-later\npragma solidity 0.8.9;\n\nimport \"@openzeppelin/contracts/utils/structs/EnumerableSet.sol\";\n\nimport \"../../../interfaces/actions/topup/ITopUpAction.sol\";\nimport \"../../../interfaces/actions/topup/ITopUpKeeperHelper.sol\";\nimport \"../../../interfaces/actions/topup/ITopUpHandler.sol\";\n\n/**\n * This TopUp Keeper Helper.\n * It is a utility contract to help create Backd TopUp Keepers.\n * It exposes a view that allows the user to query a list of TopUp Positions that can be executed.\n */\ncontract TopUpKeeperHelper is ITopUpKeeperHelper {\n    using EnumerableSet for EnumerableSet.AddressSet;\n\n    ITopUpAction private immutable _topupAction;\n\n    constructor(address topupAction_) {\n        _topupAction = ITopUpAction(topupAction_);\n    }\n\n    /**\n     * @notice Gets a list of topup positions that can be executed.\n     * @dev Uses cursor pagination.\n     * @param cursor The cursor for pagination (should start at 0 for first call).\n     * @param howMany Maximum number of topups to return in this pagination request.\n     * @return topups List of topup positions that can be executed.\n     * @return nextCursor The cursor to use for the next pagination request.\n     */\n    function getExecutableTopups(uint256 cursor, uint256 howMany)\n        external\n        view\n        override\n        returns (TopupData[] memory topups, uint256 nextCursor)\n    {\n        TopupData[] memory executableTopups = new TopupData[](howMany);\n        uint256 topupsAdded;\n        while (true) {\n            (address[] memory users, ) = _topupAction.usersWithPositions(cursor, howMany);\n            if (users.length == 0) return (_shortenTopups(executableTopups, topupsAdded), 0);\n            for (uint256 i = 0; i < users.length; i++) {\n                address user = users[i];\n                ITopUpAction.RecordWithMeta[] memory positions = listPositions(user);\n                for (uint256 j = 0; j < positions.length; j++) {\n                    ITopUpAction.RecordWithMeta memory position = positions[j];\n                    if (!_canExecute(user, position)) continue;\n                    executableTopups[topupsAdded] = _positionToTopup(user, position);\n                    topupsAdded++;\n                    uint256 offset = j == positions.length - 1 ? 1 : 0;\n                    if (topupsAdded == howMany) return (executableTopups, cursor + i + offset);\n                }\n            }\n            cursor += howMany;\n        }\n    }\n\n    /**\n     * @notice Check if the action can be executed for the positions\n     * of the given `keys`\n     * @param keys Unique keys to check for\n     * @return an array of boolean containing a result per input\n     */\n    function batchCanExecute(ITopUpAction.RecordKey[] calldata keys)\n        external\n        view\n        override\n        returns (bool[] memory)\n    {\n        bool[] memory results = new bool[](keys.length);\n        for (uint256 i = 0; i < keys.length; i++) {\n            ITopUpAction.RecordKey calldata key = keys[i];\n            results[i] = canExecute(key);\n        }\n        return results;\n    }\n\n    /**\n     * @notice Get a list of all positions the `payer` has registered.\n     * @param payer Address to list position for.\n     * @return Records of all registered positions.\n     */\n    function listPositions(address payer)\n        public\n        view\n        override\n        returns (ITopUpAction.RecordWithMeta[] memory)\n    {\n        ITopUpAction.RecordMeta[] memory userRecordsMeta = _topupAction.getUserPositions(payer);\n        uint256 length = userRecordsMeta.length;\n        ITopUpAction.RecordWithMeta[] memory result = new ITopUpAction.RecordWithMeta[](length);\n        for (uint256 i = 0; i < length; i++) {\n            address account = userRecordsMeta[i].account;\n            bytes32 protocol = userRecordsMeta[i].protocol;\n            ITopUpAction.Record memory record = _topupAction.getPosition(payer, account, protocol);\n            result[i] = ITopUpAction.RecordWithMeta(account, protocol, record);\n        }\n        return result;\n    }\n\n    /**\n     * @notice Check if action can be executed.\n     * @param key Unique key of the account to check for\n     * the key contains information about the payer, the account and the protocol\n     * @return `true` if action can be executed, else `false.\n     */\n    function canExecute(ITopUpAction.RecordKey memory key) public view override returns (bool) {\n        ITopUpAction.Record memory position = _topupAction.getPosition(\n            key.payer,\n            key.account,\n            key.protocol\n        );\n        if (position.threshold == 0 || position.totalTopUpAmount == 0) {\n            return false;\n        }\n        uint256 healthFactor = _topupAction.getHealthFactor(key.protocol, key.account);\n        return healthFactor < position.threshold;\n    }\n\n    /**\n     * @dev Returns if a position can be executed.\n     * @param user The user paying for the position.\n     * @param position The position record with metadata.\n     * @return 'true' if it can be executed, 'false' if not.\n     */\n    function _canExecute(address user, ITopUpAction.RecordWithMeta memory position)\n        private\n        view\n        returns (bool)\n    {\n        return canExecute(ITopUpAction.RecordKey(user, position.account, position.protocol));\n    }\n\n    /**\n     * @dev Converts from RecordWithMeta struct to TopupData struct.\n     * @param user The user paying for the position.\n     * @param position The position record with metadata.\n     * @return The topup positions as a TopupData struct.\n     */\n    function _positionToTopup(address user, ITopUpAction.RecordWithMeta memory position)\n        private\n        pure\n        returns (TopupData memory)\n    {\n        return TopupData(user, position.account, position.protocol, position.record);\n    }\n\n    /**\n     * @dev Shortens a list of topups by truncating it to a given length.\n     * @param topups The list of topups to shorten.\n     * @param length The length to trucate the list of topups to.\n     * @return The shortened list of topups.\n     */\n    function _shortenTopups(TopupData[] memory topups, uint256 length)\n        private\n        pure\n        returns (TopupData[] memory)\n    {\n        TopupData[] memory shortened = new TopupData[](length);\n        for (uint256 i = 0; i < length; i++) {\n            shortened[i] = topups[i];\n        }\n        return shortened;\n    }\n}\n","sourcePath":"contracts/actions/topup/TopUpKeeperHelper.sol","type":"contract","deployment":{"address":"0xaF5bCfd4d3695c886A78FBf7C6259963f7CAf9Dd","chainid":"42","blockHeight":30414901}}