{"abi":[{"inputs":[{"internalType":"contract IController","name":"_controller","type":"address"},{"internalType":"address","name":"_stakerVault","type":"address"}],"stateMutability":"nonpayable","type":"constructor","name":"constructor"},{"inputs":[{"internalType":"address","name":"beneficiary","type":"address"}],"name":"claimRewards","outputs":[{"internalType":"uint256","name":"","type":"uint256"}],"stateMutability":"nonpayable","type":"function"},{"inputs":[{"internalType":"address","name":"beneficiary","type":"address"}],"name":"claimableRewards","outputs":[{"internalType":"uint256","name":"","type":"uint256"}],"stateMutability":"view","type":"function"},{"inputs":[],"name":"controller","outputs":[{"internalType":"contract IController","name":"","type":"address"}],"stateMutability":"view","type":"function"},{"inputs":[],"name":"inflationManager","outputs":[{"internalType":"contract IInflationManager","name":"","type":"address"}],"stateMutability":"view","type":"function"},{"inputs":[{"internalType":"address","name":"","type":"address"}],"name":"perUserShare","outputs":[{"internalType":"uint256","name":"","type":"uint256"}],"stateMutability":"view","type":"function"},{"inputs":[{"internalType":"address","name":"","type":"address"}],"name":"perUserStakedIntegral","outputs":[{"internalType":"uint256","name":"","type":"uint256"}],"stateMutability":"view","type":"function"},{"inputs":[],"name":"poolCheckpoint","outputs":[{"internalType":"bool","name":"","type":"bool"}],"stateMutability":"nonpayable","type":"function"},{"inputs":[],"name":"poolLastUpdate","outputs":[{"internalType":"uint256","name":"","type":"uint256"}],"stateMutability":"view","type":"function"},{"inputs":[],"name":"poolStakedIntegral","outputs":[{"internalType":"uint256","name":"","type":"uint256"}],"stateMutability":"view","type":"function"},{"inputs":[],"name":"roleManager","outputs":[{"internalType":"contract IRoleManager","name":"","type":"address"}],"stateMutability":"view","type":"function"},{"inputs":[],"name":"stakerVault","outputs":[{"internalType":"contract IStakerVault","name":"","type":"address"}],"stateMutability":"view","type":"function"},{"inputs":[{"internalType":"address","name":"user","type":"address"}],"name":"userCheckpoint","outputs":[{"internalType":"bool","name":"","type":"bool"}],"stateMutability":"nonpayable","type":"function"}],"bytecode":"6101006040523480156200001257600080fd5b506040516200119a3803806200119a833981016040819052620000359162000310565b620000c8826001600160a01b0316632954018c6040518163ffffffff1660e01b815260040160206040518083038186803b1580156200007357600080fd5b505afa15801562000088573d6000803e3d6000fd5b505050506040513d601f19601f82011682018060405250810190620000ae91906200034f565b6001600160a01b03166200026560201b6200089e1760201c565b6001600160a01b0390811660805260408051808201909152601881526000805160206200117a8339815191526020820152908316620001255760405162461bcd60e51b81526004016200011c919062000376565b60405180910390fd5b5060408051808201909152601881526000805160206200117a83398151915260208201526001600160a01b038216620001735760405162461bcd60e51b81526004016200011c919062000376565b506001600160a01b0380831660a081905290821660c05260408051636de6c4fd60e11b815290516000929163dbcd89fa916004808301926020929190829003018186803b158015620001c457600080fd5b505afa158015620001d9573d6000803e3d6000fd5b505050506040513d601f19601f82011682018060405250810190620001ff91906200034f565b60408051808201909152601881526000805160206200117a83398151915260208201529091506001600160a01b0382166200024f5760405162461bcd60e51b81526004016200011c919062000376565b506001600160a01b031660e05250620003ce9050565b6040516321f8a72160e01b81526a3937b632a6b0b730b3b2b960a91b60048201526000906001600160a01b038316906321f8a7219060240160206040518083038186803b158015620002b657600080fd5b505afa158015620002cb573d6000803e3d6000fd5b505050506040513d601f19601f82011682018060405250810190620002f191906200034f565b92915050565b6001600160a01b03811681146200030d57600080fd5b50565b600080604083850312156200032457600080fd5b82516200033181620002f7565b60208401519092506200034481620002f7565b809150509250929050565b6000602082840312156200036257600080fd5b81516200036f81620002f7565b9392505050565b600060208083528351808285015260005b81811015620003a55785810183015185820160400152820162000387565b81811115620003b8576000604083870101525b50601f01601f1916929092016040019392505050565b60805160a05160c05160e051610d1f6200045b600039600081816101ae015281816105f90152818161096a0152610b2101526000818161018701528181610368015281816104370152818161050d015281816105d1015281816106d60152818161093d01526109ea0152600081816101fb015261023901526000818160ba01526107460152610d1f6000f3fe608060405234801561001057600080fd5b50600436106100b35760003560e01c8063b07b709b11610071578063b07b709b1461016f578063c4f5531a14610182578063dbcd89fa146101a9578063dc01f60d146101d0578063ef5cfb8c146101e3578063f77c4791146101f657600080fd5b8062435da5146100b8578063387a7f32146100f75780635790a0c81461010e578063676730841461012657806386d981aa14610146578063870cf99f1461014f575b600080fd5b7f00000000000000000000000000000000000000000000000000000000000000005b6040516001600160a01b0390911681526020015b60405180910390f35b61010060005481565b6040519081526020016100ee565b610116610222565b60405190151581526020016100ee565b610100610134366004610b99565b60026020526000908152604090205481565b61010060015481565b61010061015d366004610b99565b60036020526000908152604090205481565b61011661017d366004610b99565b61022c565b6100da7f000000000000000000000000000000000000000000000000000000000000000081565b6100da7f000000000000000000000000000000000000000000000000000000000000000081565b6101006101de366004610b99565b610508565b6101006101f1366004610b99565b610730565b6100da7f000000000000000000000000000000000000000000000000000000000000000081565b905090565b600061021d610926565b6000610236610926565b507f00000000000000000000000000000000000000000000000000000000000000006001600160a01b0316632954018c6040518163ffffffff1660e01b815260040160206040518083038186803b15801561029057600080fd5b505afa1580156102a4573d6000803e3d6000fd5b505050506040513d601f19601f820116820180604052508101906102c89190610bb6565b60405163622e68cb60e01b81526001600160a01b038481166004830152919091169063622e68cb9060240160206040518083038186803b15801561030b57600080fd5b505afa15801561031f573d6000803e3d6000fd5b505050506040513d601f19601f820116820180604052508101906103439190610bd3565b806103e257506040516317475d5760e11b81526001600160a01b0383811660048301527f00000000000000000000000000000000000000000000000000000000000000001690632e8ebaae9060240160206040518083038186803b1580156103aa57600080fd5b505afa1580156103be573d6000803e3d6000fd5b505050506040513d601f19601f820116820180604052508101906103e29190610bd3565b156103ef57506000919050565b600080546001600160a01b038416825260026020526040909120546104b8906104189083610c0b565b60405163a853ba2f60e01b81526001600160a01b0386811660048301527f0000000000000000000000000000000000000000000000000000000000000000169063a853ba2f906024015b60206040518083038186803b15801561047a57600080fd5b505afa15801561048e573d6000803e3d6000fd5b505050506040513d601f19601f820116820180604052508101906104b29190610c22565b90610ac0565b6001600160a01b038416600090815260036020526040812080549091906104e0908490610c3b565b90915550506001600160a01b0390921660009081526002602052604090209190915550600190565b6000807f00000000000000000000000000000000000000000000000000000000000000006001600160a01b0316638aa01ea96040518163ffffffff1660e01b815260040160206040518083038186803b15801561056457600080fd5b505afa158015610578573d6000803e3d6000fd5b505050506040513d601f19601f8201168201806040525081019061059c9190610c22565b60005490915081156106905761068382600154426105ba9190610c0b565b604051632897a55360e01b81526001600160a01b037f0000000000000000000000000000000000000000000000000000000000000000811660048301527f00000000000000000000000000000000000000000000000000000000000000001690632897a5539060240160206040518083038186803b15801561063b57600080fd5b505afa15801561064f573d6000803e3d6000fd5b505050506040513d601f19601f820116820180604052508101906106739190610c22565b61067d9190610c53565b90610ae6565b61068d9082610c3b565b90505b6001600160a01b038416600090815260026020526040902054610705906106b79083610c0b565b60405163a853ba2f60e01b81526001600160a01b0387811660048301527f0000000000000000000000000000000000000000000000000000000000000000169063a853ba2f90602401610462565b6001600160a01b0385166000908152600360205260409020546107289190610c3b565b949350505050565b6000336001600160a01b03831614806107f057507f0000000000000000000000000000000000000000000000000000000000000000604051632474521560e21b815268067617567655f7a61760bc1b60048201523360248201526001600160a01b0391909116906391d148549060440160206040518083038186803b1580156107b857600080fd5b505afa1580156107cc573d6000803e3d6000fd5b505050506040513d601f19601f820116820180604052508101906107f09190610bd3565b60405180604001604052806013815260200172756e617574686f72697a65642061636365737360681b815250906108435760405162461bcd60e51b815260040161083a9190610c72565b60405180910390fd5b5061084d8261022c565b506001600160a01b038216600090815260036020526040902054806108755750600092915050565b6001600160a01b0383166000908152600360205260408120556108988382610afb565b92915050565b6040516321f8a72160e01b81526a3937b632a6b0b730b3b2b960a91b60048201526000906001600160a01b038316906321f8a7219060240160206040518083038186803b1580156108ee57600080fd5b505afa158015610902573d6000803e3d6000fd5b505050506040513d601f19601f820116820180604052508101906108989190610bb6565b604051632897a55360e01b81526001600160a01b037f00000000000000000000000000000000000000000000000000000000000000008116600483015260009182917f00000000000000000000000000000000000000000000000000000000000000001690632897a5539060240160206040518083038186803b1580156109ac57600080fd5b505afa1580156109c0573d6000803e3d6000fd5b505050506040513d601f19601f820116820180604052508101906109e49190610c22565b905060007f00000000000000000000000000000000000000000000000000000000000000006001600160a01b0316638aa01ea96040518163ffffffff1660e01b815260040160206040518083038186803b158015610a4157600080fd5b505afa158015610a55573d6000803e3d6000fd5b505050506040513d601f19601f82011682018060405250810190610a799190610c22565b90508015610ab357610a9d8160015442610a939190610c0b565b61067d9085610c53565b600080828254610aad9190610c3b565b90915550505b5050426001908155919050565b6000670de0b6b3a7640000610ad58385610c53565b610adf9190610cc7565b9392505050565b600081610ad5670de0b6b3a764000085610c53565b6040516335106f4960e11b81526001600160a01b038381166004830152602482018390527f00000000000000000000000000000000000000000000000000000000000000001690636a20de9290604401600060405180830381600087803b158015610b6557600080fd5b505af1158015610b79573d6000803e3d6000fd5b505050505050565b6001600160a01b0381168114610b9657600080fd5b50565b600060208284031215610bab57600080fd5b8135610adf81610b81565b600060208284031215610bc857600080fd5b8151610adf81610b81565b600060208284031215610be557600080fd5b81518015158114610adf57600080fd5b634e487b7160e01b600052601160045260246000fd5b600082821015610c1d57610c1d610bf5565b500390565b600060208284031215610c3457600080fd5b5051919050565b60008219821115610c4e57610c4e610bf5565b500190565b6000816000190483118215151615610c6d57610c6d610bf5565b500290565b600060208083528351808285015260005b81811015610c9f57858101830151858201604001528201610c83565b81811115610cb1576000604083870101525b50601f01601f1916929092016040019392505050565b600082610ce457634e487b7160e01b600052601260045260246000fd5b50049056fea2646970667358221220c6485cd3fee01a86358ae63493880c08f39e08fcf6ee5e9ea8755c518b2a13e564736f6c634300080900337a65726f2061646472657373206e6f7420616c6c6f7765640000000000000000","bytecodeSha1":"adf7c93092852e685fb0b74eef7d6dbd098a9bdf","compiler":{"evm_version":"london","optimizer":{"enabled":true,"runs":200},"version":"0.8.9+commit.e5eed63a"},"contractName":"LpGauge","language":"Solidity","natspec":{"kind":"dev","methods":{"claimRewards(address)":{"notice":"Calculates the token rewards a user should receive and mints these.","params":{"beneficiary":"Address to claim rewards for."},"returns":{"_0":"`true` if success."}},"poolCheckpoint()":{"notice":"Checkpoint function for the pool statistics.","returns":{"_0":"`true` if successful."}},"userCheckpoint(address)":{"notice":"Checkpoint function for the statistics for a particular user.","params":{"user":"Address of the user to checkpoint."},"returns":{"_0":"`true` if successful."}}},"version":1},"opcodes":"PUSH1 0x80 PUSH1 0x40 MSTORE CALLVALUE DUP1 ISZERO PUSH2 0x10 JUMPI PUSH1 0x0 DUP1 REVERT JUMPDEST POP PUSH1 0x4 CALLDATASIZE LT PUSH2 0xB3 JUMPI PUSH1 0x0 CALLDATALOAD PUSH1 0xE0 SHR DUP1 PUSH4 0xB07B709B GT PUSH2 0x71 JUMPI DUP1 PUSH4 0xB07B709B EQ PUSH2 0x16F JUMPI DUP1 PUSH4 0xC4F5531A EQ PUSH2 0x182 JUMPI DUP1 PUSH4 0xDBCD89FA EQ PUSH2 0x1A9 JUMPI DUP1 PUSH4 0xDC01F60D EQ PUSH2 0x1D0 JUMPI DUP1 PUSH4 0xEF5CFB8C EQ PUSH2 0x1E3 JUMPI DUP1 PUSH4 0xF77C4791 EQ PUSH2 0x1F6 JUMPI PUSH1 0x0 DUP1 REVERT JUMPDEST DUP1 PUSH3 0x435DA5 EQ PUSH2 0xB8 JUMPI DUP1 PUSH4 0x387A7F32 EQ PUSH2 0xF7 JUMPI DUP1 PUSH4 0x5790A0C8 EQ PUSH2 0x10E JUMPI DUP1 PUSH4 0x67673084 EQ PUSH2 0x126 JUMPI DUP1 PUSH4 0x86D981AA EQ PUSH2 0x146 JUMPI DUP1 PUSH4 0x870CF99F EQ PUSH2 0x14F JUMPI JUMPDEST PUSH1 0x0 DUP1 REVERT JUMPDEST PUSH32 0x0 JUMPDEST PUSH1 0x40 MLOAD PUSH1 0x1 PUSH1 0x1 PUSH1 0xA0 SHL SUB SWAP1 SWAP2 AND DUP2 MSTORE PUSH1 0x20 ADD JUMPDEST PUSH1 0x40 MLOAD DUP1 SWAP2 SUB SWAP1 RETURN JUMPDEST PUSH2 0x100 PUSH1 0x0 SLOAD DUP2 JUMP JUMPDEST PUSH1 0x40 MLOAD SWAP1 DUP2 MSTORE PUSH1 0x20 ADD PUSH2 0xEE JUMP JUMPDEST PUSH2 0x116 PUSH2 0x222 JUMP JUMPDEST PUSH1 0x40 MLOAD SWAP1 ISZERO ISZERO DUP2 MSTORE PUSH1 0x20 ADD PUSH2 0xEE JUMP JUMPDEST PUSH2 0x100 PUSH2 0x134 CALLDATASIZE PUSH1 0x4 PUSH2 0xB99 JUMP JUMPDEST PUSH1 0x2 PUSH1 0x20 MSTORE PUSH1 0x0 SWAP1 DUP2 MSTORE PUSH1 0x40 SWAP1 KECCAK256 SLOAD DUP2 JUMP JUMPDEST PUSH2 0x100 PUSH1 0x1 SLOAD DUP2 JUMP JUMPDEST PUSH2 0x100 PUSH2 0x15D CALLDATASIZE PUSH1 0x4 PUSH2 0xB99 JUMP JUMPDEST PUSH1 0x3 PUSH1 0x20 MSTORE PUSH1 0x0 SWAP1 DUP2 MSTORE PUSH1 0x40 SWAP1 KECCAK256 SLOAD DUP2 JUMP JUMPDEST PUSH2 0x116 PUSH2 0x17D CALLDATASIZE PUSH1 0x4 PUSH2 0xB99 JUMP JUMPDEST PUSH2 0x22C JUMP JUMPDEST PUSH2 0xDA PUSH32 0x0 DUP2 JUMP JUMPDEST PUSH2 0xDA PUSH32 0x0 DUP2 JUMP JUMPDEST PUSH2 0x100 PUSH2 0x1DE CALLDATASIZE PUSH1 0x4 PUSH2 0xB99 JUMP JUMPDEST PUSH2 0x508 JUMP JUMPDEST PUSH2 0x100 PUSH2 0x1F1 CALLDATASIZE PUSH1 0x4 PUSH2 0xB99 JUMP JUMPDEST PUSH2 0x730 JUMP JUMPDEST PUSH2 0xDA PUSH32 0x0 DUP2 JUMP JUMPDEST SWAP1 POP SWAP1 JUMP JUMPDEST PUSH1 0x0 PUSH2 0x21D PUSH2 0x926 JUMP JUMPDEST PUSH1 0x0 PUSH2 0x236 PUSH2 0x926 JUMP JUMPDEST POP PUSH32 0x0 PUSH1 0x1 PUSH1 0x1 PUSH1 0xA0 SHL SUB AND PUSH4 0x2954018C PUSH1 0x40 MLOAD DUP2 PUSH4 0xFFFFFFFF AND PUSH1 0xE0 SHL DUP2 MSTORE PUSH1 0x4 ADD PUSH1 0x20 PUSH1 0x40 MLOAD DUP1 DUP4 SUB DUP2 DUP7 DUP1 EXTCODESIZE ISZERO DUP1 ISZERO PUSH2 0x290 JUMPI PUSH1 0x0 DUP1 REVERT JUMPDEST POP GAS STATICCALL ISZERO DUP1 ISZERO PUSH2 0x2A4 JUMPI RETURNDATASIZE PUSH1 0x0 DUP1 RETURNDATACOPY RETURNDATASIZE PUSH1 0x0 REVERT JUMPDEST POP POP POP POP PUSH1 0x40 MLOAD RETURNDATASIZE PUSH1 0x1F NOT PUSH1 0x1F DUP3 ADD AND DUP3 ADD DUP1 PUSH1 0x40 MSTORE POP DUP2 ADD SWAP1 PUSH2 0x2C8 SWAP2 SWAP1 PUSH2 0xBB6 JUMP JUMPDEST PUSH1 0x40 MLOAD PUSH4 0x622E68CB PUSH1 0xE0 SHL DUP2 MSTORE PUSH1 0x1 PUSH1 0x1 PUSH1 0xA0 SHL SUB DUP5 DUP2 AND PUSH1 0x4 DUP4 ADD MSTORE SWAP2 SWAP1 SWAP2 AND SWAP1 PUSH4 0x622E68CB SWAP1 PUSH1 0x24 ADD PUSH1 0x20 PUSH1 0x40 MLOAD DUP1 DUP4 SUB DUP2 DUP7 DUP1 EXTCODESIZE ISZERO DUP1 ISZERO PUSH2 0x30B JUMPI PUSH1 0x0 DUP1 REVERT JUMPDEST POP GAS STATICCALL ISZERO DUP1 ISZERO PUSH2 0x31F JUMPI RETURNDATASIZE PUSH1 0x0 DUP1 RETURNDATACOPY RETURNDATASIZE PUSH1 0x0 REVERT JUMPDEST POP POP POP POP PUSH1 0x40 MLOAD RETURNDATASIZE PUSH1 0x1F NOT PUSH1 0x1F DUP3 ADD AND DUP3 ADD DUP1 PUSH1 0x40 MSTORE POP DUP2 ADD SWAP1 PUSH2 0x343 SWAP2 SWAP1 PUSH2 0xBD3 JUMP JUMPDEST DUP1 PUSH2 0x3E2 JUMPI POP PUSH1 0x40 MLOAD PUSH4 0x17475D57 PUSH1 0xE1 SHL DUP2 MSTORE PUSH1 0x1 PUSH1 0x1 PUSH1 0xA0 SHL SUB DUP4 DUP2 AND PUSH1 0x4 DUP4 ADD MSTORE PUSH32 0x0 AND SWAP1 PUSH4 0x2E8EBAAE SWAP1 PUSH1 0x24 ADD PUSH1 0x20 PUSH1 0x40 MLOAD DUP1 DUP4 SUB DUP2 DUP7 DUP1 EXTCODESIZE ISZERO DUP1 ISZERO PUSH2 0x3AA JUMPI PUSH1 0x0 DUP1 REVERT JUMPDEST POP GAS STATICCALL ISZERO DUP1 ISZERO PUSH2 0x3BE JUMPI RETURNDATASIZE PUSH1 0x0 DUP1 RETURNDATACOPY RETURNDATASIZE PUSH1 0x0 REVERT JUMPDEST POP POP POP POP PUSH1 0x40 MLOAD RETURNDATASIZE PUSH1 0x1F NOT PUSH1 0x1F DUP3 ADD AND DUP3 ADD DUP1 PUSH1 0x40 MSTORE POP DUP2 ADD SWAP1 PUSH2 0x3E2 SWAP2 SWAP1 PUSH2 0xBD3 JUMP JUMPDEST ISZERO PUSH2 0x3EF JUMPI POP PUSH1 0x0 SWAP2 SWAP1 POP JUMP JUMPDEST PUSH1 0x0 DUP1 SLOAD PUSH1 0x1 PUSH1 0x1 PUSH1 0xA0 SHL SUB DUP5 AND DUP3 MSTORE PUSH1 0x2 PUSH1 0x20 MSTORE PUSH1 0x40 SWAP1 SWAP2 KECCAK256 SLOAD PUSH2 0x4B8 SWAP1 PUSH2 0x418 SWAP1 DUP4 PUSH2 0xC0B JUMP JUMPDEST PUSH1 0x40 MLOAD PUSH4 0xA853BA2F PUSH1 0xE0 SHL DUP2 MSTORE PUSH1 0x1 PUSH1 0x1 PUSH1 0xA0 SHL SUB DUP7 DUP2 AND PUSH1 0x4 DUP4 ADD MSTORE PUSH32 0x0 AND SWAP1 PUSH4 0xA853BA2F SWAP1 PUSH1 0x24 ADD JUMPDEST PUSH1 0x20 PUSH1 0x40 MLOAD DUP1 DUP4 SUB DUP2 DUP7 DUP1 EXTCODESIZE ISZERO DUP1 ISZERO PUSH2 0x47A JUMPI PUSH1 0x0 DUP1 REVERT JUMPDEST POP GAS STATICCALL ISZERO DUP1 ISZERO PUSH2 0x48E JUMPI RETURNDATASIZE PUSH1 0x0 DUP1 RETURNDATACOPY RETURNDATASIZE PUSH1 0x0 REVERT JUMPDEST POP POP POP POP PUSH1 0x40 MLOAD RETURNDATASIZE PUSH1 0x1F NOT PUSH1 0x1F DUP3 ADD AND DUP3 ADD DUP1 PUSH1 0x40 MSTORE POP DUP2 ADD SWAP1 PUSH2 0x4B2 SWAP2 SWAP1 PUSH2 0xC22 JUMP JUMPDEST SWAP1 PUSH2 0xAC0 JUMP JUMPDEST PUSH1 0x1 PUSH1 0x1 PUSH1 0xA0 SHL SUB DUP5 AND PUSH1 0x0 SWAP1 DUP2 MSTORE PUSH1 0x3 PUSH1 0x20 MSTORE PUSH1 0x40 DUP2 KECCAK256 DUP1 SLOAD SWAP1 SWAP2 SWAP1 PUSH2 0x4E0 SWAP1 DUP5 SWAP1 PUSH2 0xC3B JUMP JUMPDEST SWAP1 SWAP2 SSTORE POP POP PUSH1 0x1 PUSH1 0x1 PUSH1 0xA0 SHL SUB SWAP1 SWAP3 AND PUSH1 0x0 SWAP1 DUP2 MSTORE PUSH1 0x2 PUSH1 0x20 MSTORE PUSH1 0x40 SWAP1 KECCAK256 SWAP2 SWAP1 SWAP2 SSTORE POP PUSH1 0x1 SWAP1 JUMP JUMPDEST PUSH1 0x0 DUP1 PUSH32 0x0 PUSH1 0x1 PUSH1 0x1 PUSH1 0xA0 SHL SUB AND PUSH4 0x8AA01EA9 PUSH1 0x40 MLOAD DUP2 PUSH4 0xFFFFFFFF AND PUSH1 0xE0 SHL DUP2 MSTORE PUSH1 0x4 ADD PUSH1 0x20 PUSH1 0x40 MLOAD DUP1 DUP4 SUB DUP2 DUP7 DUP1 EXTCODESIZE ISZERO DUP1 ISZERO PUSH2 0x564 JUMPI PUSH1 0x0 DUP1 REVERT JUMPDEST POP GAS STATICCALL ISZERO DUP1 ISZERO PUSH2 0x578 JUMPI RETURNDATASIZE PUSH1 0x0 DUP1 RETURNDATACOPY RETURNDATASIZE PUSH1 0x0 REVERT JUMPDEST POP POP POP POP PUSH1 0x40 MLOAD RETURNDATASIZE PUSH1 0x1F NOT PUSH1 0x1F DUP3 ADD AND DUP3 ADD DUP1 PUSH1 0x40 MSTORE POP DUP2 ADD SWAP1 PUSH2 0x59C SWAP2 SWAP1 PUSH2 0xC22 JUMP JUMPDEST PUSH1 0x0 SLOAD SWAP1 SWAP2 POP DUP2 ISZERO PUSH2 0x690 JUMPI PUSH2 0x683 DUP3 PUSH1 0x1 SLOAD TIMESTAMP PUSH2 0x5BA SWAP2 SWAP1 PUSH2 0xC0B JUMP JUMPDEST PUSH1 0x40 MLOAD PUSH4 0x2897A553 PUSH1 0xE0 SHL DUP2 MSTORE PUSH1 0x1 PUSH1 0x1 PUSH1 0xA0 SHL SUB PUSH32 0x0 DUP2 AND PUSH1 0x4 DUP4 ADD MSTORE PUSH32 0x0 AND SWAP1 PUSH4 0x2897A553 SWAP1 PUSH1 0x24 ADD PUSH1 0x20 PUSH1 0x40 MLOAD DUP1 DUP4 SUB DUP2 DUP7 DUP1 EXTCODESIZE ISZERO DUP1 ISZERO PUSH2 0x63B JUMPI PUSH1 0x0 DUP1 REVERT JUMPDEST POP GAS STATICCALL ISZERO DUP1 ISZERO PUSH2 0x64F JUMPI RETURNDATASIZE PUSH1 0x0 DUP1 RETURNDATACOPY RETURNDATASIZE PUSH1 0x0 REVERT JUMPDEST POP POP POP POP PUSH1 0x40 MLOAD RETURNDATASIZE PUSH1 0x1F NOT PUSH1 0x1F DUP3 ADD AND DUP3 ADD DUP1 PUSH1 0x40 MSTORE POP DUP2 ADD SWAP1 PUSH2 0x673 SWAP2 SWAP1 PUSH2 0xC22 JUMP JUMPDEST PUSH2 0x67D SWAP2 SWAP1 PUSH2 0xC53 JUMP JUMPDEST SWAP1 PUSH2 0xAE6 JUMP JUMPDEST PUSH2 0x68D SWAP1 DUP3 PUSH2 0xC3B JUMP JUMPDEST SWAP1 POP JUMPDEST PUSH1 0x1 PUSH1 0x1 PUSH1 0xA0 SHL SUB DUP5 AND PUSH1 0x0 SWAP1 DUP2 MSTORE PUSH1 0x2 PUSH1 0x20 MSTORE PUSH1 0x40 SWAP1 KECCAK256 SLOAD PUSH2 0x705 SWAP1 PUSH2 0x6B7 SWAP1 DUP4 PUSH2 0xC0B JUMP JUMPDEST PUSH1 0x40 MLOAD PUSH4 0xA853BA2F PUSH1 0xE0 SHL DUP2 MSTORE PUSH1 0x1 PUSH1 0x1 PUSH1 0xA0 SHL SUB DUP8 DUP2 AND PUSH1 0x4 DUP4 ADD MSTORE PUSH32 0x0 AND SWAP1 PUSH4 0xA853BA2F SWAP1 PUSH1 0x24 ADD PUSH2 0x462 JUMP JUMPDEST PUSH1 0x1 PUSH1 0x1 PUSH1 0xA0 SHL SUB DUP6 AND PUSH1 0x0 SWAP1 DUP2 MSTORE PUSH1 0x3 PUSH1 0x20 MSTORE PUSH1 0x40 SWAP1 KECCAK256 SLOAD PUSH2 0x728 SWAP2 SWAP1 PUSH2 0xC3B JUMP JUMPDEST SWAP5 SWAP4 POP POP POP POP JUMP JUMPDEST PUSH1 0x0 CALLER PUSH1 0x1 PUSH1 0x1 PUSH1 0xA0 SHL SUB DUP4 AND EQ DUP1 PUSH2 0x7F0 JUMPI POP PUSH32 0x0 PUSH1 0x40 MLOAD PUSH4 0x24745215 PUSH1 0xE2 SHL DUP2 MSTORE PUSH9 0x67617567655F7A617 PUSH1 0xBC SHL PUSH1 0x4 DUP3 ADD MSTORE CALLER PUSH1 0x24 DUP3 ADD MSTORE PUSH1 0x1 PUSH1 0x1 PUSH1 0xA0 SHL SUB SWAP2 SWAP1 SWAP2 AND SWAP1 PUSH4 0x91D14854 SWAP1 PUSH1 0x44 ADD PUSH1 0x20 PUSH1 0x40 MLOAD DUP1 DUP4 SUB DUP2 DUP7 DUP1 EXTCODESIZE ISZERO DUP1 ISZERO PUSH2 0x7B8 JUMPI PUSH1 0x0 DUP1 REVERT JUMPDEST POP GAS STATICCALL ISZERO DUP1 ISZERO PUSH2 0x7CC JUMPI RETURNDATASIZE PUSH1 0x0 DUP1 RETURNDATACOPY RETURNDATASIZE PUSH1 0x0 REVERT JUMPDEST POP POP POP POP PUSH1 0x40 MLOAD RETURNDATASIZE PUSH1 0x1F NOT PUSH1 0x1F DUP3 ADD AND DUP3 ADD DUP1 PUSH1 0x40 MSTORE POP DUP2 ADD SWAP1 PUSH2 0x7F0 SWAP2 SWAP1 PUSH2 0xBD3 JUMP JUMPDEST PUSH1 0x40 MLOAD DUP1 PUSH1 0x40 ADD PUSH1 0x40 MSTORE DUP1 PUSH1 0x13 DUP2 MSTORE PUSH1 0x20 ADD PUSH19 0x756E617574686F72697A656420616363657373 PUSH1 0x68 SHL DUP2 MSTORE POP SWAP1 PUSH2 0x843 JUMPI PUSH1 0x40 MLOAD PUSH3 0x461BCD PUSH1 0xE5 SHL DUP2 MSTORE PUSH1 0x4 ADD PUSH2 0x83A SWAP2 SWAP1 PUSH2 0xC72 JUMP JUMPDEST PUSH1 0x40 MLOAD DUP1 SWAP2 SUB SWAP1 REVERT JUMPDEST POP PUSH2 0x84D DUP3 PUSH2 0x22C JUMP JUMPDEST POP PUSH1 0x1 PUSH1 0x1 PUSH1 0xA0 SHL SUB DUP3 AND PUSH1 0x0 SWAP1 DUP2 MSTORE PUSH1 0x3 PUSH1 0x20 MSTORE PUSH1 0x40 SWAP1 KECCAK256 SLOAD DUP1 PUSH2 0x875 JUMPI POP PUSH1 0x0 SWAP3 SWAP2 POP POP JUMP JUMPDEST PUSH1 0x1 PUSH1 0x1 PUSH1 0xA0 SHL SUB DUP4 AND PUSH1 0x0 SWAP1 DUP2 MSTORE PUSH1 0x3 PUSH1 0x20 MSTORE PUSH1 0x40 DUP2 KECCAK256 SSTORE PUSH2 0x898 DUP4 DUP3 PUSH2 0xAFB JUMP JUMPDEST SWAP3 SWAP2 POP POP JUMP JUMPDEST PUSH1 0x40 MLOAD PUSH4 0x21F8A721 PUSH1 0xE0 SHL DUP2 MSTORE PUSH11 0x3937B632A6B0B730B3B2B9 PUSH1 0xA9 SHL PUSH1 0x4 DUP3 ADD MSTORE PUSH1 0x0 SWAP1 PUSH1 0x1 PUSH1 0x1 PUSH1 0xA0 SHL SUB DUP4 AND SWAP1 PUSH4 0x21F8A721 SWAP1 PUSH1 0x24 ADD PUSH1 0x20 PUSH1 0x40 MLOAD DUP1 DUP4 SUB DUP2 DUP7 DUP1 EXTCODESIZE ISZERO DUP1 ISZERO PUSH2 0x8EE JUMPI PUSH1 0x0 DUP1 REVERT JUMPDEST POP GAS STATICCALL ISZERO DUP1 ISZERO PUSH2 0x902 JUMPI RETURNDATASIZE PUSH1 0x0 DUP1 RETURNDATACOPY RETURNDATASIZE PUSH1 0x0 REVERT JUMPDEST POP POP POP POP PUSH1 0x40 MLOAD RETURNDATASIZE PUSH1 0x1F NOT PUSH1 0x1F DUP3 ADD AND DUP3 ADD DUP1 PUSH1 0x40 MSTORE POP DUP2 ADD SWAP1 PUSH2 0x898 SWAP2 SWAP1 PUSH2 0xBB6 JUMP JUMPDEST PUSH1 0x40 MLOAD PUSH4 0x2897A553 PUSH1 0xE0 SHL DUP2 MSTORE PUSH1 0x1 PUSH1 0x1 PUSH1 0xA0 SHL SUB PUSH32 0x0 DUP2 AND PUSH1 0x4 DUP4 ADD MSTORE PUSH1 0x0 SWAP2 DUP3 SWAP2 PUSH32 0x0 AND SWAP1 PUSH4 0x2897A553 SWAP1 PUSH1 0x24 ADD PUSH1 0x20 PUSH1 0x40 MLOAD DUP1 DUP4 SUB DUP2 DUP7 DUP1 EXTCODESIZE ISZERO DUP1 ISZERO PUSH2 0x9AC JUMPI PUSH1 0x0 DUP1 REVERT JUMPDEST POP GAS STATICCALL ISZERO DUP1 ISZERO PUSH2 0x9C0 JUMPI RETURNDATASIZE PUSH1 0x0 DUP1 RETURNDATACOPY RETURNDATASIZE PUSH1 0x0 REVERT JUMPDEST POP POP POP POP PUSH1 0x40 MLOAD RETURNDATASIZE PUSH1 0x1F NOT PUSH1 0x1F DUP3 ADD AND DUP3 ADD DUP1 PUSH1 0x40 MSTORE POP DUP2 ADD SWAP1 PUSH2 0x9E4 SWAP2 SWAP1 PUSH2 0xC22 JUMP JUMPDEST SWAP1 POP PUSH1 0x0 PUSH32 0x0 PUSH1 0x1 PUSH1 0x1 PUSH1 0xA0 SHL SUB AND PUSH4 0x8AA01EA9 PUSH1 0x40 MLOAD DUP2 PUSH4 0xFFFFFFFF AND PUSH1 0xE0 SHL DUP2 MSTORE PUSH1 0x4 ADD PUSH1 0x20 PUSH1 0x40 MLOAD DUP1 DUP4 SUB DUP2 DUP7 DUP1 EXTCODESIZE ISZERO DUP1 ISZERO PUSH2 0xA41 JUMPI PUSH1 0x0 DUP1 REVERT JUMPDEST POP GAS STATICCALL ISZERO DUP1 ISZERO PUSH2 0xA55 JUMPI RETURNDATASIZE PUSH1 0x0 DUP1 RETURNDATACOPY RETURNDATASIZE PUSH1 0x0 REVERT JUMPDEST POP POP POP POP PUSH1 0x40 MLOAD RETURNDATASIZE PUSH1 0x1F NOT PUSH1 0x1F DUP3 ADD AND DUP3 ADD DUP1 PUSH1 0x40 MSTORE POP DUP2 ADD SWAP1 PUSH2 0xA79 SWAP2 SWAP1 PUSH2 0xC22 JUMP JUMPDEST SWAP1 POP DUP1 ISZERO PUSH2 0xAB3 JUMPI PUSH2 0xA9D DUP2 PUSH1 0x1 SLOAD TIMESTAMP PUSH2 0xA93 SWAP2 SWAP1 PUSH2 0xC0B JUMP JUMPDEST PUSH2 0x67D SWAP1 DUP6 PUSH2 0xC53 JUMP JUMPDEST PUSH1 0x0 DUP1 DUP3 DUP3 SLOAD PUSH2 0xAAD SWAP2 SWAP1 PUSH2 0xC3B JUMP JUMPDEST SWAP1 SWAP2 SSTORE POP POP JUMPDEST POP POP TIMESTAMP PUSH1 0x1 SWAP1 DUP2 SSTORE SWAP2 SWAP1 POP JUMP JUMPDEST PUSH1 0x0 PUSH8 0xDE0B6B3A7640000 PUSH2 0xAD5 DUP4 DUP6 PUSH2 0xC53 JUMP JUMPDEST PUSH2 0xADF SWAP2 SWAP1 PUSH2 0xCC7 JUMP JUMPDEST SWAP4 SWAP3 POP POP POP JUMP JUMPDEST PUSH1 0x0 DUP2 PUSH2 0xAD5 PUSH8 0xDE0B6B3A7640000 DUP6 PUSH2 0xC53 JUMP JUMPDEST PUSH1 0x40 MLOAD PUSH4 0x35106F49 PUSH1 0xE1 SHL DUP2 MSTORE PUSH1 0x1 PUSH1 0x1 PUSH1 0xA0 SHL SUB DUP4 DUP2 AND PUSH1 0x4 DUP4 ADD MSTORE PUSH1 0x24 DUP3 ADD DUP4 SWAP1 MSTORE PUSH32 0x0 AND SWAP1 PUSH4 0x6A20DE92 SWAP1 PUSH1 0x44 ADD PUSH1 0x0 PUSH1 0x40 MLOAD DUP1 DUP4 SUB DUP2 PUSH1 0x0 DUP8 DUP1 EXTCODESIZE ISZERO DUP1 ISZERO PUSH2 0xB65 JUMPI PUSH1 0x0 DUP1 REVERT JUMPDEST POP GAS CALL ISZERO DUP1 ISZERO PUSH2 0xB79 JUMPI RETURNDATASIZE PUSH1 0x0 DUP1 RETURNDATACOPY RETURNDATASIZE PUSH1 0x0 REVERT JUMPDEST POP POP POP POP POP POP JUMP JUMPDEST PUSH1 0x1 PUSH1 0x1 PUSH1 0xA0 SHL SUB DUP2 AND DUP2 EQ PUSH2 0xB96 JUMPI PUSH1 0x0 DUP1 REVERT JUMPDEST POP JUMP JUMPDEST PUSH1 0x0 PUSH1 0x20 DUP3 DUP5 SUB SLT ISZERO PUSH2 0xBAB JUMPI PUSH1 0x0 DUP1 REVERT JUMPDEST DUP2 CALLDATALOAD PUSH2 0xADF DUP2 PUSH2 0xB81 JUMP JUMPDEST PUSH1 0x0 PUSH1 0x20 DUP3 DUP5 SUB SLT ISZERO PUSH2 0xBC8 JUMPI PUSH1 0x0 DUP1 REVERT JUMPDEST DUP2 MLOAD PUSH2 0xADF DUP2 PUSH2 0xB81 JUMP JUMPDEST PUSH1 0x0 PUSH1 0x20 DUP3 DUP5 SUB SLT ISZERO PUSH2 0xBE5 JUMPI PUSH1 0x0 DUP1 REVERT JUMPDEST DUP2 MLOAD DUP1 ISZERO ISZERO DUP2 EQ PUSH2 0xADF JUMPI PUSH1 0x0 DUP1 REVERT JUMPDEST PUSH4 0x4E487B71 PUSH1 0xE0 SHL PUSH1 0x0 MSTORE PUSH1 0x11 PUSH1 0x4 MSTORE PUSH1 0x24 PUSH1 0x0 REVERT JUMPDEST PUSH1 0x0 DUP3 DUP3 LT ISZERO PUSH2 0xC1D JUMPI PUSH2 0xC1D PUSH2 0xBF5 JUMP JUMPDEST POP SUB SWAP1 JUMP JUMPDEST PUSH1 0x0 PUSH1 0x20 DUP3 DUP5 SUB SLT ISZERO PUSH2 0xC34 JUMPI PUSH1 0x0 DUP1 REVERT JUMPDEST POP MLOAD SWAP2 SWAP1 POP JUMP JUMPDEST PUSH1 0x0 DUP3 NOT DUP3 GT ISZERO PUSH2 0xC4E JUMPI PUSH2 0xC4E PUSH2 0xBF5 JUMP JUMPDEST POP ADD SWAP1 JUMP JUMPDEST PUSH1 0x0 DUP2 PUSH1 0x0 NOT DIV DUP4 GT DUP3 ISZERO ISZERO AND ISZERO PUSH2 0xC6D JUMPI PUSH2 0xC6D PUSH2 0xBF5 JUMP JUMPDEST POP MUL SWAP1 JUMP JUMPDEST PUSH1 0x0 PUSH1 0x20 DUP1 DUP4 MSTORE DUP4 MLOAD DUP1 DUP3 DUP6 ADD MSTORE PUSH1 0x0 JUMPDEST DUP2 DUP2 LT ISZERO PUSH2 0xC9F JUMPI DUP6 DUP2 ADD DUP4 ADD MLOAD DUP6 DUP3 ADD PUSH1 0x40 ADD MSTORE DUP3 ADD PUSH2 0xC83 JUMP JUMPDEST DUP2 DUP2 GT ISZERO PUSH2 0xCB1 JUMPI PUSH1 0x0 PUSH1 0x40 DUP4 DUP8 ADD ADD MSTORE JUMPDEST POP PUSH1 0x1F ADD PUSH1 0x1F NOT AND SWAP3 SWAP1 SWAP3 ADD PUSH1 0x40 ADD SWAP4 SWAP3 POP POP POP JUMP JUMPDEST PUSH1 0x0 DUP3 PUSH2 0xCE4 JUMPI PUSH4 0x4E487B71 PUSH1 0xE0 SHL PUSH1 0x0 MSTORE PUSH1 0x12 PUSH1 0x4 MSTORE PUSH1 0x24 PUSH1 0x0 REVERT JUMPDEST POP DIV SWAP1 JUMP INVALID LOG2 PUSH5 0x6970667358 0x22 SLT KECCAK256 0xC6 BASEFEE 0x5C 0xD3 INVALID 0xE0 BYTE DUP7 CALLDATALOAD DUP11 0xE6 CALLVALUE SWAP4 DUP9 0xC ADDMOD RETURN SWAP15 ADDMOD 0xFC 0xF6 0xEE 0x5E SWAP15 0xA8 PUSH22 0x5C518B2A13E564736F6C634300080900330000000000 ","sha1":"38ec4af615b8e465c1280680adb6e71200e7da00","source":"// SPDX-License-Identifier: GPL-3.0-or-later\npragma solidity 0.8.9;\n\nimport \"../../interfaces/IStakerVault.sol\";\nimport \"../../interfaces/IController.sol\";\nimport \"../../interfaces/tokenomics/ILpGauge.sol\";\nimport \"../../interfaces/tokenomics/IRewardsGauge.sol\";\n\nimport \"../../libraries/ScaledMath.sol\";\nimport \"../../libraries/Errors.sol\";\nimport \"../../libraries/AddressProviderHelpers.sol\";\n\nimport \"../access/Authorization.sol\";\n\ncontract LpGauge is ILpGauge, IRewardsGauge, Authorization {\n    using AddressProviderHelpers for IAddressProvider;\n    using ScaledMath for uint256;\n\n    IController public immutable controller;\n    IStakerVault public immutable stakerVault;\n    IInflationManager public immutable inflationManager;\n\n    uint256 public poolStakedIntegral;\n    uint256 public poolLastUpdate;\n    mapping(address => uint256) public perUserStakedIntegral;\n    mapping(address => uint256) public perUserShare;\n\n    constructor(IController _controller, address _stakerVault)\n        Authorization(_controller.addressProvider().getRoleManager())\n    {\n        require(address(_controller) != address(0), Error.ZERO_ADDRESS_NOT_ALLOWED);\n        require(_stakerVault != address(0), Error.ZERO_ADDRESS_NOT_ALLOWED);\n        controller = IController(_controller);\n        stakerVault = IStakerVault(_stakerVault);\n        IInflationManager _inflationManager = IController(_controller).inflationManager();\n        require(address(_inflationManager) != address(0), Error.ZERO_ADDRESS_NOT_ALLOWED);\n        inflationManager = _inflationManager;\n    }\n\n    /**\n     * @notice Checkpoint function for the pool statistics.\n     * @return `true` if successful.\n     */\n    function poolCheckpoint() external override returns (bool) {\n        return _poolCheckpoint();\n    }\n\n    /**\n     * @notice Calculates the token rewards a user should receive and mints these.\n     * @param beneficiary Address to claim rewards for.\n     * @return `true` if success.\n     */\n    function claimRewards(address beneficiary) external override returns (uint256) {\n        require(\n            msg.sender == beneficiary || _roleManager().hasRole(Roles.GAUGE_ZAP, msg.sender),\n            Error.UNAUTHORIZED_ACCESS\n        );\n        userCheckpoint(beneficiary);\n        uint256 amount = perUserShare[beneficiary];\n        if (amount <= 0) return 0;\n        perUserShare[beneficiary] = 0;\n        _mintRewards(beneficiary, amount);\n        return amount;\n    }\n\n    function claimableRewards(address beneficiary) external view override returns (uint256) {\n        uint256 poolTotalStaked = stakerVault.getPoolTotalStaked();\n        uint256 poolStakedIntegral_ = poolStakedIntegral;\n        if (poolTotalStaked > 0) {\n            poolStakedIntegral_ += (inflationManager.getLpRateForStakerVault(address(stakerVault)) *\n                (block.timestamp - poolLastUpdate)).scaledDiv(poolTotalStaked);\n        }\n\n        return\n            perUserShare[beneficiary] +\n            stakerVault.stakedAndActionLockedBalanceOf(beneficiary).scaledMul(\n                poolStakedIntegral_ - perUserStakedIntegral[beneficiary]\n            );\n    }\n\n    /**\n     * @notice Checkpoint function for the statistics for a particular user.\n     * @param user Address of the user to checkpoint.\n     * @return `true` if successful.\n     */\n    function userCheckpoint(address user) public override returns (bool) {\n        _poolCheckpoint();\n\n        // No checkpoint for the actions and strategies, since this does not accumulate tokens\n        if (\n            IController(controller).addressProvider().isAction(user) || stakerVault.isStrategy(user)\n        ) {\n            return false;\n        }\n        uint256 poolStakedIntegral_ = poolStakedIntegral;\n        perUserShare[user] += (\n            (stakerVault.stakedAndActionLockedBalanceOf(user)).scaledMul(\n                (poolStakedIntegral_ - perUserStakedIntegral[user])\n            )\n        );\n\n        perUserStakedIntegral[user] = poolStakedIntegral_;\n\n        return true;\n    }\n\n    function _mintRewards(address beneficiary, uint256 amount) internal {\n        inflationManager.mintRewards(beneficiary, amount);\n    }\n\n    function _poolCheckpoint() internal returns (bool) {\n        uint256 currentRate = inflationManager.getLpRateForStakerVault(address(stakerVault));\n        // Update the integral of total token supply for the pool\n        uint256 poolTotalStaked = stakerVault.getPoolTotalStaked();\n        if (poolTotalStaked > 0) {\n            poolStakedIntegral += (currentRate * (block.timestamp - poolLastUpdate)).scaledDiv(\n                poolTotalStaked\n            );\n        }\n        poolLastUpdate = block.timestamp;\n        return true;\n    }\n}\n","sourcePath":"contracts/tokenomics/LpGauge.sol","type":"contract","deployment":{"address":"0xb67a48c3E58498f65ED8D3622cACDE8e52645a20","chainid":"42","blockHeight":30414966}}