{
  "_format": "hh-sol-artifact-1",
  "contractName": "StablesConverter",
  "sourceName": "contracts/v3/converters/StablesConverter.sol",
  "abi": [
    {
      "inputs": [
        {
          "internalType": "contract IERC20",
          "name": "_tokenDAI",
          "type": "address"
        },
        {
          "internalType": "contract IERC20",
          "name": "_tokenUSDC",
          "type": "address"
        },
        {
          "internalType": "contract IERC20",
          "name": "_tokenUSDT",
          "type": "address"
        },
        {
          "internalType": "contract IERC20",
          "name": "_token3CRV",
          "type": "address"
        },
        {
          "internalType": "contract ICurve3Pool",
          "name": "_stableSwap3Pool",
          "type": "address"
        },
        {
          "internalType": "contract IManager",
          "name": "_manager",
          "type": "address"
        }
      ],
      "stateMutability": "nonpayable",
      "type": "constructor"
    },
    {
      "inputs": [
        {
          "internalType": "contract IERC20",
          "name": "_token",
          "type": "address"
        },
        {
          "internalType": "address",
          "name": "_spender",
          "type": "address"
        },
        {
          "internalType": "uint256",
          "name": "_amount",
          "type": "uint256"
        }
      ],
      "name": "approveForSpender",
      "outputs": [],
      "stateMutability": "nonpayable",
      "type": "function"
    },
    {
      "inputs": [
        {
          "internalType": "address",
          "name": "_input",
          "type": "address"
        },
        {
          "internalType": "address",
          "name": "_output",
          "type": "address"
        },
        {
          "internalType": "uint256",
          "name": "_inputAmount",
          "type": "uint256"
        },
        {
          "internalType": "uint256",
          "name": "_estimatedOutput",
          "type": "uint256"
        }
      ],
      "name": "convert",
      "outputs": [
        {
          "internalType": "uint256",
          "name": "_outputAmount",
          "type": "uint256"
        }
      ],
      "stateMutability": "nonpayable",
      "type": "function"
    },
    {
      "inputs": [
        {
          "internalType": "address",
          "name": "_input",
          "type": "address"
        },
        {
          "internalType": "address",
          "name": "_output",
          "type": "address"
        },
        {
          "internalType": "uint256",
          "name": "_inputAmount",
          "type": "uint256"
        }
      ],
      "name": "expected",
      "outputs": [
        {
          "internalType": "uint256",
          "name": "",
          "type": "uint256"
        }
      ],
      "stateMutability": "view",
      "type": "function"
    },
    {
      "inputs": [],
      "name": "manager",
      "outputs": [
        {
          "internalType": "contract IManager",
          "name": "",
          "type": "address"
        }
      ],
      "stateMutability": "view",
      "type": "function"
    },
    {
      "inputs": [
        {
          "internalType": "contract IERC20",
          "name": "_token",
          "type": "address"
        },
        {
          "internalType": "uint256",
          "name": "_amount",
          "type": "uint256"
        },
        {
          "internalType": "address",
          "name": "_to",
          "type": "address"
        }
      ],
      "name": "recoverUnsupported",
      "outputs": [],
      "stateMutability": "nonpayable",
      "type": "function"
    },
    {
      "inputs": [],
      "name": "stableSwap3Pool",
      "outputs": [
        {
          "internalType": "contract ICurve3Pool",
          "name": "",
          "type": "address"
        }
      ],
      "stateMutability": "view",
      "type": "function"
    },
    {
      "inputs": [],
      "name": "token3CRV",
      "outputs": [
        {
          "internalType": "contract IERC20",
          "name": "",
          "type": "address"
        }
      ],
      "stateMutability": "view",
      "type": "function"
    },
    {
      "inputs": [
        {
          "internalType": "uint256",
          "name": "",
          "type": "uint256"
        }
      ],
      "name": "tokens",
      "outputs": [
        {
          "internalType": "contract IERC20",
          "name": "",
          "type": "address"
        }
      ],
      "stateMutability": "view",
      "type": "function"
    }
  ],
  "bytecode": "0x60e06040523480156200001157600080fd5b5060405162001c0d38038062001c0d833981810160405260c08110156200003757600080fd5b508051602080830151604080850151606080870151608088015160a098890151600080546001600160a01b03808c166001600160a01b03199283168117845560018054838d169085168117825560028054909516938b1693841785559185526003909c5289842080546001600160801b031990811690915590845289842080548216909c17909b558252968120805490991690961790975581831b6001600160601b031990811660c0529281901b90921690975294959294909390916200011f90839060001990805b01546001600160a01b0316919062000186602090811b6200100017901c565b62000131826000196000600162000100565b62000143826000196000600262000100565b6200016a82600019856001600160a01b03166200018660201b62001000179092919060201c565b60601b6001600160601b03191660805250620005999350505050565b80158062000210575060408051636eb1769f60e11b81523060048201526001600160a01b03848116602483015291519185169163dd62ed3e91604480820192602092909190829003018186803b158015620001e057600080fd5b505afa158015620001f5573d6000803e3d6000fd5b505050506040513d60208110156200020c57600080fd5b5051155b6200024d5760405162461bcd60e51b815260040180806020018281038252603681526020018062001bd76036913960400191505060405180910390fd5b604080516001600160a01b038416602482015260448082018490528251808303909101815260649091019091526020810180516001600160e01b0390811663095ea7b360e01b17909152620002a5918591620002aa16565b505050565b606062000306826040518060400160405280602081526020017f5361666545524332303a206c6f772d6c6576656c2063616c6c206661696c6564815250856001600160a01b03166200036660201b62001113179092919060201c565b805190915015620002a5578080602001905160208110156200032757600080fd5b5051620002a55760405162461bcd60e51b815260040180806020018281038252602a81526020018062001bad602a913960400191505060405180910390fd5b606062000377848460008562000381565b90505b9392505050565b606082471015620003c45760405162461bcd60e51b815260040180806020018281038252602681526020018062001b876026913960400191505060405180910390fd5b620003cf85620004e9565b62000421576040805162461bcd60e51b815260206004820152601d60248201527f416464726573733a2063616c6c20746f206e6f6e2d636f6e7472616374000000604482015290519081900360640190fd5b60006060866001600160a01b031685876040518082805190602001908083835b60208310620004625780518252601f19909201916020918201910162000441565b6001836020036101000a03801982511681845116808217855250505050505090500191505060006040518083038185875af1925050503d8060008114620004c6576040519150601f19603f3d011682016040523d82523d6000602084013e620004cb565b606091505b509092509050620004de828286620004ef565b979650505050505050565b3b151590565b60608315620005005750816200037a565b825115620005115782518084602001fd5b8160405162461bcd60e51b81526004018080602001828103825283818151815260200191508051906020019080838360005b838110156200055d57818101518382015260200162000543565b50505050905090810190601f1680156200058b5780820380516001836020036101000a031916815260200191505b509250505060405180910390fd5b60805160601c60a05160601c60c05160601c61155e6200062960003980610239528061039c528061079f528061083052806109785280610a2a5280610a6b5280610eff52508061021352806102d9528061040a528061050e52806108e15280610b925280610d1d5250806101d25280610595528061065252806106eb5280610e175280610f23525061155e6000f3fe608060405234801561001057600080fd5b50600436106100885760003560e01c806375892cf11161005b57806375892cf11461011e578063a081ddbd1461015a578063a488680f14610192578063ef9e23791461019a57610088565b8063481c6a751461008d5780634f64b2be146100b15780635a3874ac146100ce578063717e7389146100d6575b600080fd5b6100956101d0565b604080516001600160a01b039092168252519081900360200190f35b610095600480360360208110156100c757600080fd5b50356101f4565b610095610211565b61010c600480360360608110156100ec57600080fd5b506001600160a01b03813581169160208101359091169060400135610235565b60408051918252519081900360200190f35b61010c6004803603608081101561013457600080fd5b506001600160a01b03813581169160208101359091169060408101359060600135610591565b6101906004803603606081101561017057600080fd5b506001600160a01b03813581169160208101359160409091013516610e15565b005b610095610efd565b610190600480360360608110156101b057600080fd5b506001600160a01b03813581169160208101359091169060400135610f21565b7f000000000000000000000000000000000000000000000000000000000000000081565b6000816003811061020157fe5b01546001600160a01b0316905081565b7f000000000000000000000000000000000000000000000000000000000000000081565b60007f00000000000000000000000000000000000000000000000000000000000000006001600160a01b0316836001600160a01b0316141561039a57610279611484565b60005b60038160ff1610156103935760008160ff166003811061029857fe5b01546001600160a01b038781169116141561038b5783828260ff16600381106102bd57fe5b6020020152604051633883e11960e01b81526001600160a01b037f00000000000000000000000000000000000000000000000000000000000000001690633883e1199084906001906004018083606080838360005b8381101561032a578181015183820152602001610312565b5050505090500182151581526020019250505060206040518083038186803b15801561035557600080fd5b505afa158015610369573d6000803e3d6000fd5b505050506040513d602081101561037f57600080fd5b5051925061058a915050565b60010161027c565b5050610586565b7f00000000000000000000000000000000000000000000000000000000000000006001600160a01b0316846001600160a01b031614156104ba5760005b60038160ff1610156104b45760008160ff16600381106103f357fe5b01546001600160a01b03858116911614156104ac577f00000000000000000000000000000000000000000000000000000000000000006001600160a01b031663cc2b27d784836040518363ffffffff1660e01b8152600401808381526020018260ff1681526020019250505060206040518083038186803b15801561047757600080fd5b505afa15801561048b573d6000803e3d6000fd5b505050506040513d60208110156104a157600080fd5b5051915061058a9050565b6001016103d7565b50610586565b6001600160a01b03848116600090815260036020908152604080832054878516845292819020548151635e0d443f60e01b8152600f94850b850b600482015290840b90930b602484015260448301869052517f000000000000000000000000000000000000000000000000000000000000000090931692635e0d443f926064808201939291829003018186803b15801561055357600080fd5b505afa158015610567573d6000803e3d6000fd5b505050506040513d602081101561057d57600080fd5b5051905061058a565b5060005b9392505050565b60007f00000000000000000000000000000000000000000000000000000000000000006001600160a01b031663e8d76bce336040518263ffffffff1660e01b815260040180826001600160a01b0316815260200191505060206040518083038186803b15801561060057600080fd5b505afa158015610614573d6000803e3d6000fd5b505050506040513d602081101561062a57600080fd5b5051806106c5575060408051633577910560e11b815233600482015290516001600160a01b037f00000000000000000000000000000000000000000000000000000000000000001691636aef220a916024808301926020929190829003018186803b15801561069857600080fd5b505afa1580156106ac573d6000803e3d6000fd5b505050506040513d60208110156106c257600080fd5b50515b8061075e575060408051631eb9b23560e21b815233600482015290516001600160a01b037f00000000000000000000000000000000000000000000000000000000000000001691637ae6c8d4916024808301926020929190829003018186803b15801561073157600080fd5b505afa158015610745573d6000803e3d6000fd5b505050506040513d602081101561075b57600080fd5b50515b61079d576040805162461bcd60e51b815260206004820152600b60248201526a08585d5d1a1bdc9a5e995960aa1b604482015290519081900360640190fd5b7f00000000000000000000000000000000000000000000000000000000000000006001600160a01b0316846001600160a01b03161415610a69576107df611484565b60005b60038160ff161015610a625760008160ff16600381106107fe57fe5b01546001600160a01b0388811691161415610a5a5784828260ff166003811061082357fe5b60200201818152505060007f00000000000000000000000000000000000000000000000000000000000000006001600160a01b03166370a08231306040518263ffffffff1660e01b815260040180826001600160a01b0316815260200191505060206040518083038186803b15801561089b57600080fd5b505afa1580156108af573d6000803e3d6000fd5b505050506040513d60208110156108c557600080fd5b5051604051634515cef360e01b81529091506001600160a01b037f00000000000000000000000000000000000000000000000000000000000000001690634515cef390859088906004018083606080838360005b83811015610931578181015183820152602001610919565b5050505090500182815260200192505050600060405180830381600087803b15801561095c57600080fd5b505af1158015610970573d6000803e3d6000fd5b5050505060007f00000000000000000000000000000000000000000000000000000000000000006001600160a01b03166370a08231306040518263ffffffff1660e01b815260040180826001600160a01b0316815260200191505060206040518083038186803b1580156109e357600080fd5b505afa1580156109f7573d6000803e3d6000fd5b505050506040513d6020811015610a0d57600080fd5b50519050610a1b8183611122565b9450610a516001600160a01b037f000000000000000000000000000000000000000000000000000000000000000016338761117f565b50505050610e0d565b6001016107e2565b5050610e09565b7f00000000000000000000000000000000000000000000000000000000000000006001600160a01b0316856001600160a01b03161415610cc45760005b60038160ff161015610cbe5760008160ff1660038110610ac257fe5b01546001600160a01b0386811691161415610cb6576000808260ff1660038110610ae857fe5b0154604080516370a0823160e01b815230600482015290516001600160a01b03909216916370a0823191602480820192602092909190829003018186803b158015610b3257600080fd5b505afa158015610b46573d6000803e3d6000fd5b505050506040513d6020811015610b5c57600080fd5b505160408051630d2680e960e11b81526004810188905260ff851660248201526044810187905290519192506001600160a01b037f00000000000000000000000000000000000000000000000000000000000000001691631a4d01d29160648082019260009290919082900301818387803b158015610bda57600080fd5b505af1158015610bee573d6000803e3d6000fd5b505050506000808360ff1660038110610c0357fe5b0154604080516370a0823160e01b815230600482015290516001600160a01b03909216916370a0823191602480820192602092909190829003018186803b158015610c4d57600080fd5b505afa158015610c61573d6000803e3d6000fd5b505050506040513d6020811015610c7757600080fd5b50519050610c858183611122565b9350610cae338560008660ff1660038110610c9c57fe5b01546001600160a01b0316919061117f565b505050610e0d565b600101610aa6565b50610e09565b6001600160a01b03858116600090815260036020526040808220548784168352818320548251630f7c084960e21b8152600f92830b830b600482015290820b90910b6024820152604481018790526064810186905290517f000000000000000000000000000000000000000000000000000000000000000090931692633df021249260848084019391929182900301818387803b158015610d6457600080fd5b505af1158015610d78573d6000803e3d6000fd5b5050604080516370a0823160e01b815230600482015290516001600160a01b03881693506370a0823192506024808301926020929190829003018186803b158015610dc257600080fd5b505afa158015610dd6573d6000803e3d6000fd5b505050506040513d6020811015610dec57600080fd5b50519050610e046001600160a01b038516338361117f565b610e0d565b5060005b949350505050565b7f00000000000000000000000000000000000000000000000000000000000000006001600160a01b0316631fe4a6866040518163ffffffff1660e01b815260040160206040518083038186803b158015610e6e57600080fd5b505afa158015610e82573d6000803e3d6000fd5b505050506040513d6020811015610e9857600080fd5b50516001600160a01b03163314610ee4576040805162461bcd60e51b815260206004820152600b60248201526a085cdd1c985d1959da5cdd60aa1b604482015290519081900360640190fd5b610ef86001600160a01b038416828461117f565b505050565b7f000000000000000000000000000000000000000000000000000000000000000081565b7f00000000000000000000000000000000000000000000000000000000000000006001600160a01b0316631fe4a6866040518163ffffffff1660e01b815260040160206040518083038186803b158015610f7a57600080fd5b505afa158015610f8e573d6000803e3d6000fd5b505050506040513d6020811015610fa457600080fd5b50516001600160a01b03163314610ff0576040805162461bcd60e51b815260206004820152600b60248201526a085cdd1c985d1959da5cdd60aa1b604482015290519081900360640190fd5b610ef86001600160a01b03841683835b801580611086575060408051636eb1769f60e11b81523060048201526001600160a01b03848116602483015291519185169163dd62ed3e91604480820192602092909190829003018186803b15801561105857600080fd5b505afa15801561106c573d6000803e3d6000fd5b505050506040513d602081101561108257600080fd5b5051155b6110c15760405162461bcd60e51b81526004018080602001828103825260368152602001806114f36036913960400191505060405180910390fd5b604080516001600160a01b038416602482015260448082018490528251808303909101815260649091019091526020810180516001600160e01b031663095ea7b360e01b179052610ef89084906111cd565b6060610e0d848460008561127e565b600082821115611179576040805162461bcd60e51b815260206004820152601e60248201527f536166654d6174683a207375627472616374696f6e206f766572666c6f770000604482015290519081900360640190fd5b50900390565b604080516001600160a01b038416602482015260448082018490528251808303909101815260649091019091526020810180516001600160e01b031663a9059cbb60e01b179052610ef89084905b6060611222826040518060400160405280602081526020017f5361666545524332303a206c6f772d6c6576656c2063616c6c206661696c6564815250856001600160a01b03166111139092919063ffffffff16565b805190915015610ef85780806020019051602081101561124157600080fd5b5051610ef85760405162461bcd60e51b815260040180806020018281038252602a8152602001806114c9602a913960400191505060405180910390fd5b6060824710156112bf5760405162461bcd60e51b81526004018080602001828103825260268152602001806114a36026913960400191505060405180910390fd5b6112c8856113da565b611319576040805162461bcd60e51b815260206004820152601d60248201527f416464726573733a2063616c6c20746f206e6f6e2d636f6e7472616374000000604482015290519081900360640190fd5b60006060866001600160a01b031685876040518082805190602001908083835b602083106113585780518252601f199092019160209182019101611339565b6001836020036101000a03801982511681845116808217855250505050505090500191505060006040518083038185875af1925050503d80600081146113ba576040519150601f19603f3d011682016040523d82523d6000602084013e6113bf565b606091505b50915091506113cf8282866113e0565b979650505050505050565b3b151590565b606083156113ef57508161058a565b8251156113ff5782518084602001fd5b8160405162461bcd60e51b81526004018080602001828103825283818151815260200191508051906020019080838360005b83811015611449578181015183820152602001611431565b50505050905090810190601f1680156114765780820380516001836020036101000a031916815260200191505b509250505060405180910390fd5b6040518060600160405280600390602082028036833750919291505056fe416464726573733a20696e73756666696369656e742062616c616e636520666f722063616c6c5361666545524332303a204552433230206f7065726174696f6e20646964206e6f7420737563636565645361666545524332303a20617070726f76652066726f6d206e6f6e2d7a65726f20746f206e6f6e2d7a65726f20616c6c6f77616e6365a2646970667358221220d9f71844b87d40fb3c94e5a58da20bb50db76e904568bd464acbba6f028171c664736f6c634300060c0033416464726573733a20696e73756666696369656e742062616c616e636520666f722063616c6c5361666545524332303a204552433230206f7065726174696f6e20646964206e6f7420737563636565645361666545524332303a20617070726f76652066726f6d206e6f6e2d7a65726f20746f206e6f6e2d7a65726f20616c6c6f77616e6365",
  "linkReferences": {},
  "deployedLinkReferences": {}
}