{
  "address": "0x16F0d1860538B15De8CCBF2A356067E4c1C35382",
  "abi": [
    {
      "anonymous": false,
      "inputs": [
        {
          "indexed": false,
          "internalType": "address",
          "name": "addr",
          "type": "address"
        },
        {
          "indexed": false,
          "internalType": "uint256",
          "name": "commitment",
          "type": "uint256"
        }
      ],
      "name": "AddedCommitment",
      "type": "event"
    },
    {
      "anonymous": false,
      "inputs": [
        {
          "indexed": true,
          "internalType": "address",
          "name": "beneficiary",
          "type": "address"
        },
        {
          "indexed": true,
          "internalType": "address",
          "name": "caller",
          "type": "address"
        }
      ],
      "name": "AdminRoleGranted",
      "type": "event"
    },
    {
      "anonymous": false,
      "inputs": [
        {
          "indexed": true,
          "internalType": "address",
          "name": "beneficiary",
          "type": "address"
        },
        {
          "indexed": true,
          "internalType": "address",
          "name": "caller",
          "type": "address"
        }
      ],
      "name": "AdminRoleRemoved",
      "type": "event"
    },
    {
      "anonymous": false,
      "inputs": [],
      "name": "AuctionCancelled",
      "type": "event"
    },
    {
      "anonymous": false,
      "inputs": [],
      "name": "AuctionFinalized",
      "type": "event"
    },
    {
      "anonymous": false,
      "inputs": [
        {
          "indexed": false,
          "internalType": "uint256",
          "name": "startPrice",
          "type": "uint256"
        },
        {
          "indexed": false,
          "internalType": "uint256",
          "name": "minimumPrice",
          "type": "uint256"
        }
      ],
      "name": "AuctionPriceUpdated",
      "type": "event"
    },
    {
      "anonymous": false,
      "inputs": [
        {
          "indexed": false,
          "internalType": "uint256",
          "name": "startTime",
          "type": "uint256"
        },
        {
          "indexed": false,
          "internalType": "uint256",
          "name": "endTime",
          "type": "uint256"
        }
      ],
      "name": "AuctionTimeUpdated",
      "type": "event"
    },
    {
      "anonymous": false,
      "inputs": [
        {
          "indexed": false,
          "internalType": "address",
          "name": "wallet",
          "type": "address"
        }
      ],
      "name": "AuctionWalletUpdated",
      "type": "event"
    },
    {
      "anonymous": false,
      "inputs": [
        {
          "indexed": true,
          "internalType": "string",
          "name": "_name",
          "type": "string"
        },
        {
          "indexed": false,
          "internalType": "string",
          "name": "_data",
          "type": "string"
        }
      ],
      "name": "DocumentRemoved",
      "type": "event"
    },
    {
      "anonymous": false,
      "inputs": [
        {
          "indexed": true,
          "internalType": "string",
          "name": "_name",
          "type": "string"
        },
        {
          "indexed": false,
          "internalType": "string",
          "name": "_data",
          "type": "string"
        }
      ],
      "name": "DocumentUpdated",
      "type": "event"
    },
    {
      "anonymous": false,
      "inputs": [
        {
          "indexed": true,
          "internalType": "address",
          "name": "beneficiary",
          "type": "address"
        },
        {
          "indexed": true,
          "internalType": "address",
          "name": "caller",
          "type": "address"
        }
      ],
      "name": "MinterRoleGranted",
      "type": "event"
    },
    {
      "anonymous": false,
      "inputs": [
        {
          "indexed": true,
          "internalType": "address",
          "name": "beneficiary",
          "type": "address"
        },
        {
          "indexed": true,
          "internalType": "address",
          "name": "caller",
          "type": "address"
        }
      ],
      "name": "MinterRoleRemoved",
      "type": "event"
    },
    {
      "anonymous": false,
      "inputs": [
        {
          "indexed": true,
          "internalType": "address",
          "name": "beneficiary",
          "type": "address"
        },
        {
          "indexed": true,
          "internalType": "address",
          "name": "caller",
          "type": "address"
        }
      ],
      "name": "OperatorRoleGranted",
      "type": "event"
    },
    {
      "anonymous": false,
      "inputs": [
        {
          "indexed": true,
          "internalType": "address",
          "name": "beneficiary",
          "type": "address"
        },
        {
          "indexed": true,
          "internalType": "address",
          "name": "caller",
          "type": "address"
        }
      ],
      "name": "OperatorRoleRemoved",
      "type": "event"
    },
    {
      "anonymous": false,
      "inputs": [
        {
          "indexed": true,
          "internalType": "bytes32",
          "name": "role",
          "type": "bytes32"
        },
        {
          "indexed": true,
          "internalType": "bytes32",
          "name": "previousAdminRole",
          "type": "bytes32"
        },
        {
          "indexed": true,
          "internalType": "bytes32",
          "name": "newAdminRole",
          "type": "bytes32"
        }
      ],
      "name": "RoleAdminChanged",
      "type": "event"
    },
    {
      "anonymous": false,
      "inputs": [
        {
          "indexed": true,
          "internalType": "bytes32",
          "name": "role",
          "type": "bytes32"
        },
        {
          "indexed": true,
          "internalType": "address",
          "name": "account",
          "type": "address"
        },
        {
          "indexed": true,
          "internalType": "address",
          "name": "sender",
          "type": "address"
        }
      ],
      "name": "RoleGranted",
      "type": "event"
    },
    {
      "anonymous": false,
      "inputs": [
        {
          "indexed": true,
          "internalType": "bytes32",
          "name": "role",
          "type": "bytes32"
        },
        {
          "indexed": true,
          "internalType": "address",
          "name": "account",
          "type": "address"
        },
        {
          "indexed": true,
          "internalType": "address",
          "name": "sender",
          "type": "address"
        }
      ],
      "name": "RoleRevoked",
      "type": "event"
    },
    {
      "anonymous": false,
      "inputs": [
        {
          "indexed": true,
          "internalType": "address",
          "name": "beneficiary",
          "type": "address"
        },
        {
          "indexed": true,
          "internalType": "address",
          "name": "caller",
          "type": "address"
        }
      ],
      "name": "SmartContractRoleGranted",
      "type": "event"
    },
    {
      "anonymous": false,
      "inputs": [
        {
          "indexed": true,
          "internalType": "address",
          "name": "beneficiary",
          "type": "address"
        },
        {
          "indexed": true,
          "internalType": "address",
          "name": "caller",
          "type": "address"
        }
      ],
      "name": "SmartContractRoleRemoved",
      "type": "event"
    },
    {
      "inputs": [],
      "name": "DEFAULT_ADMIN_ROLE",
      "outputs": [
        {
          "internalType": "bytes32",
          "name": "",
          "type": "bytes32"
        }
      ],
      "stateMutability": "view",
      "type": "function"
    },
    {
      "inputs": [],
      "name": "MINTER_ROLE",
      "outputs": [
        {
          "internalType": "bytes32",
          "name": "",
          "type": "bytes32"
        }
      ],
      "stateMutability": "view",
      "type": "function"
    },
    {
      "inputs": [],
      "name": "OPERATOR_ROLE",
      "outputs": [
        {
          "internalType": "bytes32",
          "name": "",
          "type": "bytes32"
        }
      ],
      "stateMutability": "view",
      "type": "function"
    },
    {
      "inputs": [],
      "name": "SMART_CONTRACT_ROLE",
      "outputs": [
        {
          "internalType": "bytes32",
          "name": "",
          "type": "bytes32"
        }
      ],
      "stateMutability": "view",
      "type": "function"
    },
    {
      "inputs": [
        {
          "internalType": "address",
          "name": "_address",
          "type": "address"
        }
      ],
      "name": "addAdminRole",
      "outputs": [],
      "stateMutability": "nonpayable",
      "type": "function"
    },
    {
      "inputs": [
        {
          "internalType": "address",
          "name": "_address",
          "type": "address"
        }
      ],
      "name": "addMinterRole",
      "outputs": [],
      "stateMutability": "nonpayable",
      "type": "function"
    },
    {
      "inputs": [
        {
          "internalType": "address",
          "name": "_address",
          "type": "address"
        }
      ],
      "name": "addOperatorRole",
      "outputs": [],
      "stateMutability": "nonpayable",
      "type": "function"
    },
    {
      "inputs": [
        {
          "internalType": "address",
          "name": "_address",
          "type": "address"
        }
      ],
      "name": "addSmartContractRole",
      "outputs": [],
      "stateMutability": "nonpayable",
      "type": "function"
    },
    {
      "inputs": [],
      "name": "auctionEnded",
      "outputs": [
        {
          "internalType": "bool",
          "name": "",
          "type": "bool"
        }
      ],
      "stateMutability": "view",
      "type": "function"
    },
    {
      "inputs": [],
      "name": "auctionSuccessful",
      "outputs": [
        {
          "internalType": "bool",
          "name": "",
          "type": "bool"
        }
      ],
      "stateMutability": "view",
      "type": "function"
    },
    {
      "inputs": [],
      "name": "auctionToken",
      "outputs": [
        {
          "internalType": "address",
          "name": "",
          "type": "address"
        }
      ],
      "stateMutability": "view",
      "type": "function"
    },
    {
      "inputs": [
        {
          "internalType": "bytes[]",
          "name": "calls",
          "type": "bytes[]"
        },
        {
          "internalType": "bool",
          "name": "revertOnFail",
          "type": "bool"
        }
      ],
      "name": "batch",
      "outputs": [
        {
          "internalType": "bool[]",
          "name": "successes",
          "type": "bool[]"
        },
        {
          "internalType": "bytes[]",
          "name": "results",
          "type": "bytes[]"
        }
      ],
      "stateMutability": "payable",
      "type": "function"
    },
    {
      "inputs": [
        {
          "internalType": "uint256",
          "name": "_commitment",
          "type": "uint256"
        }
      ],
      "name": "calculateCommitment",
      "outputs": [
        {
          "internalType": "uint256",
          "name": "committed",
          "type": "uint256"
        }
      ],
      "stateMutability": "view",
      "type": "function"
    },
    {
      "inputs": [],
      "name": "cancelAuction",
      "outputs": [],
      "stateMutability": "nonpayable",
      "type": "function"
    },
    {
      "inputs": [
        {
          "internalType": "address",
          "name": "",
          "type": "address"
        }
      ],
      "name": "claimed",
      "outputs": [
        {
          "internalType": "uint256",
          "name": "",
          "type": "uint256"
        }
      ],
      "stateMutability": "view",
      "type": "function"
    },
    {
      "inputs": [],
      "name": "clearingPrice",
      "outputs": [
        {
          "internalType": "uint256",
          "name": "",
          "type": "uint256"
        }
      ],
      "stateMutability": "view",
      "type": "function"
    },
    {
      "inputs": [
        {
          "internalType": "address payable",
          "name": "_beneficiary",
          "type": "address"
        },
        {
          "internalType": "bool",
          "name": "readAndAgreedToMarketParticipationAgreement",
          "type": "bool"
        }
      ],
      "name": "commitEth",
      "outputs": [],
      "stateMutability": "payable",
      "type": "function"
    },
    {
      "inputs": [
        {
          "internalType": "uint256",
          "name": "_amount",
          "type": "uint256"
        },
        {
          "internalType": "bool",
          "name": "readAndAgreedToMarketParticipationAgreement",
          "type": "bool"
        }
      ],
      "name": "commitTokens",
      "outputs": [],
      "stateMutability": "nonpayable",
      "type": "function"
    },
    {
      "inputs": [
        {
          "internalType": "address",
          "name": "_from",
          "type": "address"
        },
        {
          "internalType": "uint256",
          "name": "_amount",
          "type": "uint256"
        },
        {
          "internalType": "bool",
          "name": "readAndAgreedToMarketParticipationAgreement",
          "type": "bool"
        }
      ],
      "name": "commitTokensFrom",
      "outputs": [],
      "stateMutability": "nonpayable",
      "type": "function"
    },
    {
      "inputs": [
        {
          "internalType": "address",
          "name": "",
          "type": "address"
        }
      ],
      "name": "commitments",
      "outputs": [
        {
          "internalType": "uint256",
          "name": "",
          "type": "uint256"
        }
      ],
      "stateMutability": "view",
      "type": "function"
    },
    {
      "inputs": [
        {
          "internalType": "bool",
          "name": "_status",
          "type": "bool"
        }
      ],
      "name": "enableList",
      "outputs": [],
      "stateMutability": "nonpayable",
      "type": "function"
    },
    {
      "inputs": [],
      "name": "finalize",
      "outputs": [],
      "stateMutability": "nonpayable",
      "type": "function"
    },
    {
      "inputs": [],
      "name": "finalizeTimeExpired",
      "outputs": [
        {
          "internalType": "bool",
          "name": "",
          "type": "bool"
        }
      ],
      "stateMutability": "view",
      "type": "function"
    },
    {
      "inputs": [],
      "name": "finalized",
      "outputs": [
        {
          "internalType": "bool",
          "name": "",
          "type": "bool"
        }
      ],
      "stateMutability": "view",
      "type": "function"
    },
    {
      "inputs": [],
      "name": "getAllDocuments",
      "outputs": [
        {
          "internalType": "string[]",
          "name": "",
          "type": "string[]"
        }
      ],
      "stateMutability": "view",
      "type": "function"
    },
    {
      "inputs": [
        {
          "internalType": "address",
          "name": "_funder",
          "type": "address"
        },
        {
          "internalType": "address",
          "name": "_token",
          "type": "address"
        },
        {
          "internalType": "uint256",
          "name": "_totalTokens",
          "type": "uint256"
        },
        {
          "internalType": "uint256",
          "name": "_startTime",
          "type": "uint256"
        },
        {
          "internalType": "uint256",
          "name": "_endTime",
          "type": "uint256"
        },
        {
          "internalType": "address",
          "name": "_paymentCurrency",
          "type": "address"
        },
        {
          "internalType": "uint256",
          "name": "_startPrice",
          "type": "uint256"
        },
        {
          "internalType": "uint256",
          "name": "_minimumPrice",
          "type": "uint256"
        },
        {
          "internalType": "address",
          "name": "_admin",
          "type": "address"
        },
        {
          "internalType": "address",
          "name": "_pointList",
          "type": "address"
        },
        {
          "internalType": "address payable",
          "name": "_wallet",
          "type": "address"
        }
      ],
      "name": "getAuctionInitData",
      "outputs": [
        {
          "internalType": "bytes",
          "name": "_data",
          "type": "bytes"
        }
      ],
      "stateMutability": "pure",
      "type": "function"
    },
    {
      "inputs": [],
      "name": "getBaseInformation",
      "outputs": [
        {
          "internalType": "address",
          "name": "",
          "type": "address"
        },
        {
          "internalType": "uint64",
          "name": "",
          "type": "uint64"
        },
        {
          "internalType": "uint64",
          "name": "",
          "type": "uint64"
        },
        {
          "internalType": "bool",
          "name": "",
          "type": "bool"
        }
      ],
      "stateMutability": "view",
      "type": "function"
    },
    {
      "inputs": [
        {
          "internalType": "string",
          "name": "_name",
          "type": "string"
        }
      ],
      "name": "getDocument",
      "outputs": [
        {
          "internalType": "string",
          "name": "",
          "type": "string"
        },
        {
          "internalType": "uint256",
          "name": "",
          "type": "uint256"
        }
      ],
      "stateMutability": "view",
      "type": "function"
    },
    {
      "inputs": [],
      "name": "getDocumentCount",
      "outputs": [
        {
          "internalType": "uint256",
          "name": "",
          "type": "uint256"
        }
      ],
      "stateMutability": "view",
      "type": "function"
    },
    {
      "inputs": [
        {
          "internalType": "uint256",
          "name": "_index",
          "type": "uint256"
        }
      ],
      "name": "getDocumentName",
      "outputs": [
        {
          "internalType": "string",
          "name": "",
          "type": "string"
        }
      ],
      "stateMutability": "view",
      "type": "function"
    },
    {
      "inputs": [
        {
          "internalType": "bytes32",
          "name": "role",
          "type": "bytes32"
        }
      ],
      "name": "getRoleAdmin",
      "outputs": [
        {
          "internalType": "bytes32",
          "name": "",
          "type": "bytes32"
        }
      ],
      "stateMutability": "view",
      "type": "function"
    },
    {
      "inputs": [
        {
          "internalType": "bytes32",
          "name": "role",
          "type": "bytes32"
        },
        {
          "internalType": "uint256",
          "name": "index",
          "type": "uint256"
        }
      ],
      "name": "getRoleMember",
      "outputs": [
        {
          "internalType": "address",
          "name": "",
          "type": "address"
        }
      ],
      "stateMutability": "view",
      "type": "function"
    },
    {
      "inputs": [
        {
          "internalType": "bytes32",
          "name": "role",
          "type": "bytes32"
        }
      ],
      "name": "getRoleMemberCount",
      "outputs": [
        {
          "internalType": "uint256",
          "name": "",
          "type": "uint256"
        }
      ],
      "stateMutability": "view",
      "type": "function"
    },
    {
      "inputs": [],
      "name": "getTotalTokens",
      "outputs": [
        {
          "internalType": "uint256",
          "name": "",
          "type": "uint256"
        }
      ],
      "stateMutability": "view",
      "type": "function"
    },
    {
      "inputs": [
        {
          "internalType": "bytes32",
          "name": "role",
          "type": "bytes32"
        },
        {
          "internalType": "address",
          "name": "account",
          "type": "address"
        }
      ],
      "name": "grantRole",
      "outputs": [],
      "stateMutability": "nonpayable",
      "type": "function"
    },
    {
      "inputs": [
        {
          "internalType": "address",
          "name": "_address",
          "type": "address"
        }
      ],
      "name": "hasAdminRole",
      "outputs": [
        {
          "internalType": "bool",
          "name": "",
          "type": "bool"
        }
      ],
      "stateMutability": "view",
      "type": "function"
    },
    {
      "inputs": [
        {
          "internalType": "address",
          "name": "_address",
          "type": "address"
        }
      ],
      "name": "hasMinterRole",
      "outputs": [
        {
          "internalType": "bool",
          "name": "",
          "type": "bool"
        }
      ],
      "stateMutability": "view",
      "type": "function"
    },
    {
      "inputs": [
        {
          "internalType": "address",
          "name": "_address",
          "type": "address"
        }
      ],
      "name": "hasOperatorRole",
      "outputs": [
        {
          "internalType": "bool",
          "name": "",
          "type": "bool"
        }
      ],
      "stateMutability": "view",
      "type": "function"
    },
    {
      "inputs": [
        {
          "internalType": "bytes32",
          "name": "role",
          "type": "bytes32"
        },
        {
          "internalType": "address",
          "name": "account",
          "type": "address"
        }
      ],
      "name": "hasRole",
      "outputs": [
        {
          "internalType": "bool",
          "name": "",
          "type": "bool"
        }
      ],
      "stateMutability": "view",
      "type": "function"
    },
    {
      "inputs": [
        {
          "internalType": "address",
          "name": "_address",
          "type": "address"
        }
      ],
      "name": "hasSmartContractRole",
      "outputs": [
        {
          "internalType": "bool",
          "name": "",
          "type": "bool"
        }
      ],
      "stateMutability": "view",
      "type": "function"
    },
    {
      "inputs": [
        {
          "internalType": "bytes",
          "name": "_data",
          "type": "bytes"
        }
      ],
      "name": "init",
      "outputs": [],
      "stateMutability": "payable",
      "type": "function"
    },
    {
      "inputs": [
        {
          "internalType": "address",
          "name": "_admin",
          "type": "address"
        }
      ],
      "name": "initAccessControls",
      "outputs": [],
      "stateMutability": "nonpayable",
      "type": "function"
    },
    {
      "inputs": [
        {
          "internalType": "address",
          "name": "_funder",
          "type": "address"
        },
        {
          "internalType": "address",
          "name": "_token",
          "type": "address"
        },
        {
          "internalType": "uint256",
          "name": "_totalTokens",
          "type": "uint256"
        },
        {
          "internalType": "uint256",
          "name": "_startTime",
          "type": "uint256"
        },
        {
          "internalType": "uint256",
          "name": "_endTime",
          "type": "uint256"
        },
        {
          "internalType": "address",
          "name": "_paymentCurrency",
          "type": "address"
        },
        {
          "internalType": "uint256",
          "name": "_startPrice",
          "type": "uint256"
        },
        {
          "internalType": "uint256",
          "name": "_minimumPrice",
          "type": "uint256"
        },
        {
          "internalType": "address",
          "name": "_admin",
          "type": "address"
        },
        {
          "internalType": "address",
          "name": "_pointList",
          "type": "address"
        },
        {
          "internalType": "address payable",
          "name": "_wallet",
          "type": "address"
        }
      ],
      "name": "initAuction",
      "outputs": [],
      "stateMutability": "nonpayable",
      "type": "function"
    },
    {
      "inputs": [
        {
          "internalType": "bytes",
          "name": "_data",
          "type": "bytes"
        }
      ],
      "name": "initMarket",
      "outputs": [],
      "stateMutability": "nonpayable",
      "type": "function"
    },
    {
      "inputs": [],
      "name": "isOpen",
      "outputs": [
        {
          "internalType": "bool",
          "name": "",
          "type": "bool"
        }
      ],
      "stateMutability": "view",
      "type": "function"
    },
    {
      "inputs": [],
      "name": "marketInfo",
      "outputs": [
        {
          "internalType": "uint64",
          "name": "startTime",
          "type": "uint64"
        },
        {
          "internalType": "uint64",
          "name": "endTime",
          "type": "uint64"
        },
        {
          "internalType": "uint128",
          "name": "totalTokens",
          "type": "uint128"
        }
      ],
      "stateMutability": "view",
      "type": "function"
    },
    {
      "inputs": [],
      "name": "marketParticipationAgreement",
      "outputs": [
        {
          "internalType": "string",
          "name": "",
          "type": "string"
        }
      ],
      "stateMutability": "pure",
      "type": "function"
    },
    {
      "inputs": [],
      "name": "marketPrice",
      "outputs": [
        {
          "internalType": "uint128",
          "name": "startPrice",
          "type": "uint128"
        },
        {
          "internalType": "uint128",
          "name": "minimumPrice",
          "type": "uint128"
        }
      ],
      "stateMutability": "view",
      "type": "function"
    },
    {
      "inputs": [],
      "name": "marketStatus",
      "outputs": [
        {
          "internalType": "uint128",
          "name": "commitmentsTotal",
          "type": "uint128"
        },
        {
          "internalType": "bool",
          "name": "finalized",
          "type": "bool"
        },
        {
          "internalType": "bool",
          "name": "usePointList",
          "type": "bool"
        }
      ],
      "stateMutability": "view",
      "type": "function"
    },
    {
      "inputs": [],
      "name": "marketTemplate",
      "outputs": [
        {
          "internalType": "uint256",
          "name": "",
          "type": "uint256"
        }
      ],
      "stateMutability": "view",
      "type": "function"
    },
    {
      "inputs": [],
      "name": "paymentCurrency",
      "outputs": [
        {
          "internalType": "address",
          "name": "",
          "type": "address"
        }
      ],
      "stateMutability": "view",
      "type": "function"
    },
    {
      "inputs": [
        {
          "internalType": "contract IERC20",
          "name": "token",
          "type": "address"
        },
        {
          "internalType": "address",
          "name": "from",
          "type": "address"
        },
        {
          "internalType": "address",
          "name": "to",
          "type": "address"
        },
        {
          "internalType": "uint256",
          "name": "amount",
          "type": "uint256"
        },
        {
          "internalType": "uint256",
          "name": "deadline",
          "type": "uint256"
        },
        {
          "internalType": "uint8",
          "name": "v",
          "type": "uint8"
        },
        {
          "internalType": "bytes32",
          "name": "r",
          "type": "bytes32"
        },
        {
          "internalType": "bytes32",
          "name": "s",
          "type": "bytes32"
        }
      ],
      "name": "permitToken",
      "outputs": [],
      "stateMutability": "nonpayable",
      "type": "function"
    },
    {
      "inputs": [],
      "name": "pointList",
      "outputs": [
        {
          "internalType": "address",
          "name": "",
          "type": "address"
        }
      ],
      "stateMutability": "view",
      "type": "function"
    },
    {
      "inputs": [],
      "name": "priceDrop",
      "outputs": [
        {
          "internalType": "uint256",
          "name": "",
          "type": "uint256"
        }
      ],
      "stateMutability": "view",
      "type": "function"
    },
    {
      "inputs": [],
      "name": "priceFunction",
      "outputs": [
        {
          "internalType": "uint256",
          "name": "",
          "type": "uint256"
        }
      ],
      "stateMutability": "view",
      "type": "function"
    },
    {
      "inputs": [
        {
          "internalType": "address",
          "name": "_address",
          "type": "address"
        }
      ],
      "name": "removeAdminRole",
      "outputs": [],
      "stateMutability": "nonpayable",
      "type": "function"
    },
    {
      "inputs": [
        {
          "internalType": "string",
          "name": "_name",
          "type": "string"
        }
      ],
      "name": "removeDocument",
      "outputs": [],
      "stateMutability": "nonpayable",
      "type": "function"
    },
    {
      "inputs": [
        {
          "internalType": "address",
          "name": "_address",
          "type": "address"
        }
      ],
      "name": "removeMinterRole",
      "outputs": [],
      "stateMutability": "nonpayable",
      "type": "function"
    },
    {
      "inputs": [
        {
          "internalType": "address",
          "name": "_address",
          "type": "address"
        }
      ],
      "name": "removeOperatorRole",
      "outputs": [],
      "stateMutability": "nonpayable",
      "type": "function"
    },
    {
      "inputs": [
        {
          "internalType": "address",
          "name": "_address",
          "type": "address"
        }
      ],
      "name": "removeSmartContractRole",
      "outputs": [],
      "stateMutability": "nonpayable",
      "type": "function"
    },
    {
      "inputs": [
        {
          "internalType": "bytes32",
          "name": "role",
          "type": "bytes32"
        },
        {
          "internalType": "address",
          "name": "account",
          "type": "address"
        }
      ],
      "name": "renounceRole",
      "outputs": [],
      "stateMutability": "nonpayable",
      "type": "function"
    },
    {
      "inputs": [
        {
          "internalType": "bytes32",
          "name": "role",
          "type": "bytes32"
        },
        {
          "internalType": "address",
          "name": "account",
          "type": "address"
        }
      ],
      "name": "revokeRole",
      "outputs": [],
      "stateMutability": "nonpayable",
      "type": "function"
    },
    {
      "inputs": [
        {
          "internalType": "uint256",
          "name": "_startPrice",
          "type": "uint256"
        },
        {
          "internalType": "uint256",
          "name": "_minimumPrice",
          "type": "uint256"
        }
      ],
      "name": "setAuctionPrice",
      "outputs": [],
      "stateMutability": "nonpayable",
      "type": "function"
    },
    {
      "inputs": [
        {
          "internalType": "uint256",
          "name": "_startTime",
          "type": "uint256"
        },
        {
          "internalType": "uint256",
          "name": "_endTime",
          "type": "uint256"
        }
      ],
      "name": "setAuctionTime",
      "outputs": [],
      "stateMutability": "nonpayable",
      "type": "function"
    },
    {
      "inputs": [
        {
          "internalType": "address payable",
          "name": "_wallet",
          "type": "address"
        }
      ],
      "name": "setAuctionWallet",
      "outputs": [],
      "stateMutability": "nonpayable",
      "type": "function"
    },
    {
      "inputs": [
        {
          "internalType": "string",
          "name": "_name",
          "type": "string"
        },
        {
          "internalType": "string",
          "name": "_data",
          "type": "string"
        }
      ],
      "name": "setDocument",
      "outputs": [],
      "stateMutability": "nonpayable",
      "type": "function"
    },
    {
      "inputs": [
        {
          "internalType": "string[]",
          "name": "_name",
          "type": "string[]"
        },
        {
          "internalType": "string[]",
          "name": "_data",
          "type": "string[]"
        }
      ],
      "name": "setDocuments",
      "outputs": [],
      "stateMutability": "nonpayable",
      "type": "function"
    },
    {
      "inputs": [
        {
          "internalType": "address",
          "name": "_list",
          "type": "address"
        }
      ],
      "name": "setList",
      "outputs": [],
      "stateMutability": "nonpayable",
      "type": "function"
    },
    {
      "inputs": [],
      "name": "tokenPrice",
      "outputs": [
        {
          "internalType": "uint256",
          "name": "",
          "type": "uint256"
        }
      ],
      "stateMutability": "view",
      "type": "function"
    },
    {
      "inputs": [
        {
          "internalType": "address",
          "name": "_user",
          "type": "address"
        }
      ],
      "name": "tokensClaimable",
      "outputs": [
        {
          "internalType": "uint256",
          "name": "",
          "type": "uint256"
        }
      ],
      "stateMutability": "view",
      "type": "function"
    },
    {
      "inputs": [],
      "name": "totalTokensCommitted",
      "outputs": [
        {
          "internalType": "uint256",
          "name": "",
          "type": "uint256"
        }
      ],
      "stateMutability": "view",
      "type": "function"
    },
    {
      "inputs": [],
      "name": "wallet",
      "outputs": [
        {
          "internalType": "address payable",
          "name": "",
          "type": "address"
        }
      ],
      "stateMutability": "view",
      "type": "function"
    },
    {
      "inputs": [
        {
          "internalType": "address payable",
          "name": "beneficiary",
          "type": "address"
        }
      ],
      "name": "withdrawTokens",
      "outputs": [],
      "stateMutability": "nonpayable",
      "type": "function"
    },
    {
      "inputs": [],
      "name": "withdrawTokens",
      "outputs": [],
      "stateMutability": "nonpayable",
      "type": "function"
    },
    {
      "stateMutability": "payable",
      "type": "receive"
    }
  ],
  "transactionHash": "0xcb3765844b68d03c392c492bee3d7ac92182a65eb159cf49275f843b8c70d8af",
  "args": [],
  "solcInputHash": "d1b4fa5f316a6a8ee3524e1600e2925f",
  "bytecode": "0x608060405234801561001057600080fd5b506001600555614e02806100256000396000f3fe6080604052600436106104355760003560e01c80638a845fc011610229578063c6b547e61161012e578063dc97e082116100b6578063e8fcf7231161007a578063e8fcf72314610c3b578063f04899d314610c5b578063f08b82e614610c70578063f5b541a614610c85578063fc4e3e0a14610c9a57610444565b8063dc97e08214610b97578063dccfe31014610bb7578063dde51f6d14610bd7578063e0e081d714610bf7578063e6594abd14610c1b57610444565b8063d2423b51116100fd578063d2423b5114610b0c578063d539139314610b2d578063d547741f14610b42578063d69d3e6214610b62578063d7568b6e14610b8257610444565b8063c6b547e614610a8c578063c884ef8314610aac578063c92bce8714610acc578063ca15c87314610aec57610444565b80639c64d0ae116101b1578063adbf377611610180578063adbf3776146109f7578063b1f1621814610a17578063b3f05b9714610a37578063b7928b1d14610a4c578063c395fcb314610a6c57610444565b80639c64d0ae1461098b5780639fa5f50b146109ab578063a217fddf146109cd578063a9d87ee6146109e257610444565b8063919e93b5116101f8578063919e93b51461090157806391d14854146109165780639478941c1461093657806399fdb320146109565780639a87222c1461096b57610444565b80638a845fc0146108975780638d8f2adb146108b75780638fa8b790146108cc5780639010d07c146108e157610444565b806347535d7b1161033a5780636ae260c1116102c25780637ff9b596116102865780637ff9b5961461081857806381353c8e1461082d57806384720f161461084d578063857d26081461086d578063864333741461088257610444565b80636ae260c11461076857806373973fcb1461078857806374cf9fc5146107a85780637c516e94146107ca5780637ccb6a64146107ea57610444565b80634dc80e15116103095780634dc80e15146106e05780634ddf47d414610700578063521eb2731461071357806354f1e126146107285780636595171c1461074857610444565b806347535d7b1461067657806349df728c1461068b5780634b3e6abb146106ab5780634bb278f3146106cb57610444565b80632f2ff15d116103bd57806336d0054b1161038c57806336d0054b146105e75780633d15cc6d146105fc5780633d1c22731461061e5780633f16431a1461063357806345a153881461065357610444565b80632f2ff15d1461056d578063314148e21461058d57806332a0f2d7146105b257806336568abe146105c757610444565b80631b3e460e116104045780631b3e460e146104d8578063212f8a81146104fa578063248a9ca31461051a57806324e4025b1461053a578063297629601461055a57610444565b8063031bee0014610449578063099db01714610476578063113b0ab2146104a357806317026455146104c357610444565b3661044457610442610cba565b005b600080fd5b34801561045557600080fd5b5061045e610cdb565b60405161046d93929190614b42565b60405180910390f35b34801561048257600080fd5b506104966104913660046137d1565b610d08565b60405161046d9190613f5f565b3480156104af57600080fd5b506104966104be3660046137d1565b610d2a565b3480156104cf57600080fd5b50610496610d44565b3480156104e457600080fd5b506104ed610d63565b60405161046d9190613f6a565b34801561050657600080fd5b506104426105153660046138fc565b610d68565b34801561052657600080fd5b506104ed610535366004613a26565b610e1b565b34801561054657600080fd5b50610442610555366004613a62565b610e30565b6104426105683660046138a3565b610f37565b34801561057957600080fd5b50610442610588366004613a3e565b610ff1565b34801561059957600080fd5b506105a2611039565b60405161046d9493929190613e33565b3480156105be57600080fd5b506104ed611071565b3480156105d357600080fd5b506104426105e2366004613a3e565b6110a5565b3480156105f357600080fd5b506104966110e7565b34801561060857600080fd5b50610611611100565b60405161046d9190613d42565b34801561062a57600080fd5b506104ed61110f565b34801561063f57600080fd5b5061044261064e3660046137d1565b611115565b34801561065f57600080fd5b50610668611177565b60405161046d929190614b1a565b34801561068257600080fd5b50610496611191565b34801561069757600080fd5b506104426106a63660046137d1565b6111c4565b3480156106b757600080fd5b506104426106c63660046139ee565b61130e565b3480156106d757600080fd5b5061044261133e565b3480156106ec57600080fd5b506104ed6106fb3660046137d1565b6114c5565b61044261070e366004613a83565b611035565b34801561071f57600080fd5b50610611611532565b34801561073457600080fd5b506104426107433660046137d1565b611541565b34801561075457600080fd5b506104426107633660046137d1565b6115a3565b34801561077457600080fd5b50610442610783366004613a62565b6115f8565b34801561079457600080fd5b506104ed6107a3366004613a26565b61174b565b3480156107b457600080fd5b506107bd6117c5565b60405161046d9190613f73565b3480156107d657600080fd5b506104426107e5366004613ac2565b6117e8565b3480156107f657600080fd5b5061080a610805366004613a83565b61185c565b60405161046d929190613fb5565b34801561082457600080fd5b506104ed611949565b34801561083957600080fd5b50610442610848366004613a83565b61197c565b34801561085957600080fd5b506107bd6108683660046138db565b6119cc565b34801561087957600080fd5b506104ed611a13565b34801561088e57600080fd5b50610496611a25565b3480156108a357600080fd5b506104426108b23660046137d1565b611a4e565b3480156108c357600080fd5b50610442611ab0565b3480156108d857600080fd5b50610442611abb565b3480156108ed57600080fd5b506106116108fc366004613a62565b611bba565b34801561090d57600080fd5b506104ed611bdb565b34801561092257600080fd5b50610496610931366004613a3e565b611c06565b34801561094257600080fd5b506104426109513660046137d1565b611c1e565b34801561096257600080fd5b50610611611c80565b34801561097757600080fd5b506104426109863660046137d1565b611c8f565b34801561099757600080fd5b506104426109a6366004613b44565b611d1d565b3480156109b757600080fd5b506109c0611d3b565b60405161046d9190613eff565b3480156109d957600080fd5b506104ed611e13565b3480156109ee57600080fd5b506104ed611e18565b348015610a0357600080fd5b50610442610a123660046137d1565b611e79565b348015610a2357600080fd5b50610442610a323660046138db565b611edb565b348015610a4357600080fd5b50610496612292565b348015610a5857600080fd5b50610442610a673660046137d1565b6122a2565b348015610a7857600080fd5b50610496610a873660046137d1565b612304565b348015610a9857600080fd5b506107bd610aa7366004613a26565b612310565b348015610ab857600080fd5b506104ed610ac73660046137d1565b6123db565b348015610ad857600080fd5b50610442610ae7366004613986565b6123ed565b348015610af857600080fd5b506104ed610b07366004613a26565b61245f565b610b1f610b1a36600461393d565b612476565b60405161046d929190613e65565b348015610b3957600080fd5b506104ed612606565b348015610b4e57600080fd5b50610442610b5d366004613a3e565b612618565b348015610b6e57600080fd5b50610442610b7d3660046137d1565b612652565b348015610b8e57600080fd5b506104ed612670565b348015610ba357600080fd5b50610442610bb2366004613c3a565b612748565b348015610bc357600080fd5b50610442610bd23660046137d1565b612753565b348015610be357600080fd5b50610442610bf2366004613a83565b6127a8565b348015610c0357600080fd5b50610c0c6127c4565b60405161046d93929190614af7565b348015610c2757600080fd5b50610442610c363660046137d1565b6127e9565b348015610c4757600080fd5b506104ed610c563660046137d1565b612826565b348015610c6757600080fd5b50610611612838565b348015610c7c57600080fd5b506104ed612847565b348015610c9157600080fd5b506104ed61285d565b348015610ca657600080fd5b50610496610cb53660046137d1565b61286f565b60405162461bcd60e51b8152600401610cd2906143fe565b60405180910390fd5b6006546001600160401b0380821691600160401b810490911690600160801b90046001600160801b031683565b6000610d22600080516020614dad83398151915283611c06565b90505b919050565b6000610d22600080516020614c1d83398151915283611c06565b60065442600160401b9091046001600160401b031662093a8001105b90565b600281565b60026005541415610d8b5760405162461bcd60e51b8152600401610cd290614917565b6002600555600a546001600160a01b031673eeeeeeeeeeeeeeeeeeeeeeeeeeeeeeeeeeeeeeee1415610dcf5760405162461bcd60e51b8152600401610cd290614061565b80610ddc57610ddc610cba565b6000610de78361174b565b90508015610e1057600a54610e06906001600160a01b03163383612889565b610e10848261295f565b505060016005555050565b60009081526020819052604090206002015490565b610e3933612304565b610e4257600080fd5b808211610e615760405162461bcd60e51b8152600401610cd2906149d6565b60008111610e815760405162461bcd60e51b8152600401610cd2906142b7565b6008546001600160801b031615610eaa5760405162461bcd60e51b8152600401610cd29061494e565b610eb382612b02565b600780546001600160801b0319166001600160801b0392909216919091179055610edc81612b02565b600780546001600160801b03928316600160801b0292169190911790556040517f622a57040c34e45abc5fadeb22e4c3c687cf48a096c86694cd21a7be9e7851ee90610f2b9084908490614b34565b60405180910390a15050565b600a546001600160a01b031673eeeeeeeeeeeeeeeeeeeeeeeeeeeeeeeeeeeeeeee14610f755760405162461bcd60e51b8152600401610cd2906146b7565b80610f8257610f82610cba565b6000610f8d3461174b565b90506000610f9b3483612b2f565b90508115610fad57610fad848361295f565b8015610feb576040516001600160a01b0385169082156108fc029083906000818181858888f19350505050158015610fe9573d6000803e3d6000fd5b505b50505050565b60008281526020819052604090206002015461100f90610931612b52565b61102b5760405162461bcd60e51b8152600401610cd29061421d565b6110358282612b56565b5050565b6009546006546008546001600160a01b03909216926001600160401b0380831693600160401b9093041691600160801b900460ff1690565b600061107b611e18565b611083611949565b111561109857611091611949565b9050610d60565b6110a0611e18565b905090565b6110ad612b52565b6001600160a01b0316816001600160a01b0316146110dd5760405162461bcd60e51b8152600401610cd290614a7a565b6110358282612bbf565b60006110f1611071565b6110f9611949565b1015905090565b600a546001600160a01b031681565b60045490565b61112d600080516020614c1d83398151915282610ff1565b611135612b52565b6001600160a01b0316816001600160a01b03167f1d5f9ec24c6f91be922ea13ceaad919ad6554a41b5c26087f96289a9baf98ad260405160405180910390a350565b6007546001600160801b0380821691600160801b90041682565b6006546000906001600160401b031642108015906110a0575050600654600160401b90046001600160401b031642111590565b600260055414156111e75760405162461bcd60e51b8152600401610cd290614917565b60026005556111f46110e7565b156112a457600854600160801b900460ff166112225760405162461bcd60e51b8152600401610cd2906147a2565b600061122d826114c5565b90506000811161124f5760405162461bcd60e51b8152600401610cd290614131565b6001600160a01b0382166000908152600e60205260409020546112729082612c28565b6001600160a01b038084166000908152600e602052604090209190915560095461129e91168383612c4b565b50611306565b600654600160401b90046001600160401b031642116112d55760405162461bcd60e51b8152600401610cd290614880565b6001600160a01b038082166000908152600d602052604081208054919055600a54909161130491168383612c4b565b505b506001600555565b61131733612304565b61132057600080fd5b60088054911515600160881b0260ff60881b19909216919091179055565b600260055414156113615760405162461bcd60e51b8152600401610cd290614917565b600260055561136f33612304565b8061137e575061137e33610d2a565b806113935750600b546001600160a01b031633145b806113a157506113a1610d44565b6113bd5760405162461bcd60e51b8152600401610cd290614708565b60088054600160801b900460ff16156113e85760405162461bcd60e51b8152600401610cd290614309565b6113f06110e7565b1561142257600a54600b54825461141d926001600160a01b039081169216906001600160801b0316612c4b565b611483565b600654600160401b90046001600160401b031642116114535760405162461bcd60e51b8152600401610cd290614880565b600954600b54600654611483926001600160a01b03908116921690600160801b90046001600160801b0316612c4b565b805460ff60801b1916600160801b1781556040517f32bebcfd2d04dbae321298091d96d2cb1d07279f59718cd83bd98245b8b82b5a90600090a1506001600555565b6000806115046114d3611071565b6001600160a01b0385166000908152600d60205260409020546114fe90670de0b6b3a7640000612c8f565b90612cc6565b6001600160a01b0384166000908152600e602052604090205490915061152b908290612b2f565b9392505050565b600b546001600160a01b031681565b611559600080516020614dad83398151915282612618565b611561612b52565b6001600160a01b0316816001600160a01b03167f56692a161ffec953ddf9def93b958ea8d1ec95e21b80870c66be91a4374dc4e360405160405180910390a350565b6115ae600082610ff1565b6115b6612b52565b6001600160a01b0316816001600160a01b03167f2570ac42fd8b322dc453ada624dc2ed0e9bdd67f16f201a25bbd30468f2aa18760405160405180910390a350565b61160133612304565b61160a57600080fd5b6402540be400821061162e5760405162461bcd60e51b8152600401610cd290614350565b6402540be40081106116525760405162461bcd60e51b8152600401610cd290614350565b428210156116725760405162461bcd60e51b8152600401610cd290614476565b8181116116915760405162461bcd60e51b8152600401610cd2906140ae565b6008546001600160801b0316156116ba5760405162461bcd60e51b8152600401610cd29061494e565b6116c382612cf8565b6006805467ffffffffffffffff19166001600160401b03929092169190911790556116ed81612cf8565b600680546001600160401b0392909216600160401b0267ffffffffffffffff60401b199092169190911790556040517f5725d1e4352d6944889e54837ffaefde55cdc0b55796b831365d61cd4c87fdb890610f2b9084908490614b34565b60008061177e670de0b6b3a76400006114fe611765611071565b600654600160801b90046001600160801b031690612c8f565b6008549091508190611799906001600160801b031685612c28565b11156117be576008546117b69082906001600160801b0316612b2f565b915050610d25565b5090919050565b60606040518061018001604052806101508152602001614c3d6101509139905090565b60405163d505accf60e01b81526001600160a01b0389169063d505accf90611820908a908a908a908a908a908a908a90600401613dd9565b600060405180830381600087803b15801561183a57600080fd5b505af115801561184e573d6000803e3d6000fd5b505050505050505050505050565b6060600060028484604051611872929190613ca6565b908152602001604051809103902060010160028585604051611895929190613ca6565b908152604080516020928190038301812054845460026101006001831615026000190190911604601f810185900485028301850190935282825264010000000090046001600160401b031692909184918301828280156119365780601f1061190b57610100808354040283529160200191611936565b820191906000526020600020905b81548152906001019060200180831161191957829003601f168201915b50505050509150915091505b9250929050565b6006546008546000916110a0916001600160801b03600160801b9092048216916114fe9116670de0b6b3a7640000612c8f565b6000808080808080808080806119948c8e018e6137ed565b9a509a509a509a509a509a509a509a509a509a509a506119bd8b8b8b8b8b8b8b8b8b8b8b611edb565b50505050505050505050505050565b60608b8b8b8b8b8b8b8b8b8b8b6040516020016119f39b9a99989796959493929190613d7a565b60405160208183030381529060405290509b9a5050505050505050505050565b600080516020614c1d83398151915281565b6000611a2f6110e7565b806110a0575050600654600160401b90046001600160401b0316421190565b611a66600080516020614c1d83398151915282612618565b611a6e612b52565b6001600160a01b0316816001600160a01b03167fe5f1aa9e528307345194b88b24a32401c13926e0823060f1049d9b26c0bb62b260405160405180910390a350565b611ab9336111c4565b565b60026005541415611ade5760405162461bcd60e51b8152600401610cd290614917565b6002600555611aec33612304565b611af557600080fd5b60088054600160801b900460ff1615611b205760405162461bcd60e51b8152600401610cd290614309565b80546001600160801b031615611b485760405162461bcd60e51b8152600401610cd2906143b7565b600954600b54600654611b78926001600160a01b03908116921690600160801b90046001600160801b0316612c4b565b805460ff60801b1916600160801b1781556040517fa5fb31e47bd1eca58bf14a3312d5e6aeafdc4ee787c8ed348c15c2b092324d9390600090a1506001600555565b6000828152602081905260408120611bd29083612d21565b90505b92915050565b60006110a0611be8611071565b6008546114fe906001600160801b0316670de0b6b3a7640000612c8f565b6000828152602081905260408120611bd29083612d2d565b611c36600080516020614d8d83398151915282612618565b611c3e612b52565b6001600160a01b0316816001600160a01b03167f70b25138b6fadeb9992d18b9653564271823e34b3e3257515d12a6d4b15fcddf60405160405180910390a350565b6009546001600160a01b031681565b611c9833612304565b611ca157600080fd5b6001600160a01b038116611cc75760405162461bcd60e51b8152600401610cd290614166565b600b80546001600160a01b0319166001600160a01b0383161790556040517f34ae2bad9265f0212d4cf341708b8250949164bb54f9d0e4f442024f83bb2f9090611d12908390613d42565b60405180910390a150565b611d2633612304565b611d2f57600080fd5b610feb84848484612d42565b60606004805480602002602001604051908101604052809291908181526020016000905b82821015611e0a5760008481526020908190208301805460408051601f6002600019610100600187161502019094169390930492830185900485028101850190915281815292830182828015611df65780601f10611dcb57610100808354040283529160200191611df6565b820191906000526020600020905b815481529060010190602001808311611dd957829003601f168201915b505050505081526020019060010190611d5f565b50505050905090565b600081565b6006546000906001600160401b03164211611e3f57506007546001600160801b0316610d60565b600654600160401b90046001600160401b03164210611e715750600754600160801b90046001600160801b0316610d60565b6110a0612f94565b611e91600080516020614dad83398151915282610ff1565b611e99612b52565b6001600160a01b0316816001600160a01b03167f0be6ab9784c7401fafb73f7bc47bc67cc4ef8c47a60ad3cb66d1de0353a0784c60405160405180910390a350565b6402540be4008810611eff5760405162461bcd60e51b8152600401610cd290614350565b6402540be4008710611f235760405162461bcd60e51b8152600401610cd290614350565b42881015611f435760405162461bcd60e51b8152600401610cd290614476565b878711611f625760405162461bcd60e51b8152600401610cd29061474d565b60008911611f825760405162461bcd60e51b8152600401610cd2906144f4565b838511611fa15760405162461bcd60e51b8152600401610cd2906149d6565b60008411611fc15760405162461bcd60e51b8152600401610cd2906142b7565b6001600160a01b038316611fe75760405162461bcd60e51b8152600401610cd290614a33565b6001600160a01b03811661200d5760405162461bcd60e51b8152600401610cd290614166565b896001600160a01b031663313ce5676040518163ffffffff1660e01b815260040160206040518083038186803b15801561204657600080fd5b505afa15801561205a573d6000803e3d6000fd5b505050506040513d601f19601f8201168201806040525081019061207e9190613c5e565b60ff166012146120a05760405162461bcd60e51b8152600401610cd2906148ca565b6001600160a01b03861673eeeeeeeeeeeeeeeeeeeeeeeeeeeeeeeeeeeeeeee14612157576000866001600160a01b031663313ce5676040518163ffffffff1660e01b815260040160206040518083038186803b1580156120ff57600080fd5b505afa158015612113573d6000803e3d6000fd5b505050506040513d601f19601f820116820180604052508101906121379190613c5e565b60ff16116121575760405162461bcd60e51b8152600401610cd29061426c565b61216088612cf8565b6006805467ffffffffffffffff19166001600160401b039290921691909117905561218a87612cf8565b600680546001600160401b0392909216600160401b0267ffffffffffffffff60401b199092169190911790556121bf89612b02565b600680546001600160801b03928316600160801b0292169190911790556121e585612b02565b600780546001600160801b0319166001600160801b039290921691909117905561220e84612b02565b600780546001600160801b03928316600160801b029216919091179055600980546001600160a01b03808d166001600160a01b031992831617909255600a8054898416908316179055600b805492841692909116919091179055612271836127e9565b61227a82612fde565b6122858a8c8b612889565b5050505050505050505050565b600854600160801b900460ff1690565b6122ba600080516020614d8d83398151915282610ff1565b6122c2612b52565b6001600160a01b0316816001600160a01b03167f2d45ee102874989882745a26688d0b4fffee125a18df26536b12582c7fde4e1760405160405180910390a350565b6000610d228183611c06565b60045460609082106123345760405162461bcd60e51b8152600401610cd29061481c565b6004828154811061234157fe5b600091825260209182902001805460408051601f60026000196101006001871615020190941693909304928301859004850281018501909152818152928301828280156123cf5780601f106123a4576101008083540402835291602001916123cf565b820191906000526020600020905b8154815290600101906020018083116123b257829003601f168201915b50505050509050919050565b600e6020526000908152604090205481565b6123f633612304565b6123ff57600080fd5b8260005b818110156124575761244f86868381811061241a57fe5b905060200281019061242c9190614b6e565b86868581811061243857fe5b905060200281019061244a9190614b6e565b612d42565b600101612403565b505050505050565b6000818152602081905260408120610d2290613020565b606080836001600160401b038111801561248f57600080fd5b506040519080825280602002602001820160405280156124b9578160200160208202803683370190505b509150836001600160401b03811180156124d257600080fd5b5060405190808252806020026020018201604052801561250657816020015b60608152602001906001900390816124f15790505b50905060005b848110156125fd57600060603088888581811061252557fe5b90506020028101906125379190614b6e565b604051612545929190613ca6565b600060405180830381855af49150503d8060008114612580576040519150601f19603f3d011682016040523d82523d6000602084013e612585565b606091505b50915091508180612594575085155b61259d8261302b565b906125bb5760405162461bcd60e51b8152600401610cd29190613f73565b50818584815181106125c957fe5b602002602001019015159081151581525050808484815181106125e857fe5b6020908102919091010152505060010161250c565b50935093915050565b600080516020614dad83398151915281565b60008281526020819052604090206002015461263690610931612b52565b6110dd5760405162461bcd60e51b8152600401610cd29061457f565b61265b33612304565b61266457600080fd5b61266d81612fde565b50565b600061267a613568565b50604080516060810182526006546001600160401b038082168352600160401b8204166020830152600160801b90046001600160801b0316918101919091526126c1613588565b50604080518082019091526007546001600160801b03808216808452600160801b90920416602083018190526000916126f99161308b565b6001600160801b03169050600061272a846000015185602001516001600160401b03166130ba90919063ffffffff16565b6001600160401b0316905080828161273e57fe5b0494505050505090565b611035338383610d68565b61275e600082612618565b612766612b52565b6001600160a01b0316816001600160a01b03167f21ba1239795d4e22874e3dc55f0a9d7b65bfb23069d32965d7c23be9524ccf9560405160405180910390a350565b6127b133612304565b6127ba57600080fd5b61103582826130e9565b6008546001600160801b0381169060ff600160801b8204811691600160881b90041683565b60015460ff161561280c5760405162461bcd60e51b8152600401610cd2906141ae565b61281760008261102b565b506001805460ff191681179055565b600d6020526000908152604090205481565b600c546001600160a01b031681565b600654600160801b90046001600160801b031690565b600080516020614d8d83398151915281565b6000610d22600080516020614d8d83398151915283611c06565b60006060846001600160a01b03166323b872dd8530866040516024016128b193929190613d56565b6040516020818303038152906040529060e01b6020820180516001600160e01b0383818316178352505050506040516128ea9190613cb6565b6000604051808303816000865af19150503d8060008114612927576040519150601f19603f3d011682016040523d82523d6000602084013e61292c565b606091505b50915091508180156129565750805115806129565750808060200190518101906129569190613a0a565b610fe957600080fd5b6006546001600160401b0316421080159061298c5750600654600160401b90046001600160401b03164211155b6129a85760405162461bcd60e51b8152600401610cd29061463d565b6001600160a01b0382166000908152600d6020526040812054600891906129cf9084612c28565b8254909150600160881b900460ff1615612a6e57600c54604051631cd53d5560e01b81526001600160a01b0390911690631cd53d5590612a159087908590600401613e1a565b60206040518083038186803b158015612a2d57600080fd5b505afa158015612a41573d6000803e3d6000fd5b505050506040513d601f19601f82011682018060405250810190612a659190613a0a565b612a6e57600080fd5b6001600160a01b0384166000908152600d602052604090208190558154612aa790612aa2906001600160801b031685612c28565b612b02565b82546001600160801b0319166001600160801b03919091161782556040517f077511a636ba1f10551cc7b89c13ff66a6ac9344e8a917527817a9690b15af7a90612af49086908690613e1a565b60405180910390a150505050565b60006001600160801b03821115612b2b5760405162461bcd60e51b8152600401610cd290614548565b5090565b80820382811115611bd55760405162461bcd60e51b8152600401610cd290614102565b3390565b6000828152602081905260409020612b6e908261331a565b1561103557612b7b612b52565b6001600160a01b0316816001600160a01b0316837f2f8788117e7eff1d82e926ec794901d17c78024a50270940304540a733656f0d60405160405180910390a45050565b6000828152602081905260409020612bd7908261332f565b1561103557612be4612b52565b6001600160a01b0316816001600160a01b0316837ff6391f5c32d9c69d2a47ea670b442974b53935d1edc7fd64eb21e047a839171b60405160405180910390a45050565b81810181811015611bd55760405162461bcd60e51b8152600401610cd2906145cf565b6001600160a01b03831673eeeeeeeeeeeeeeeeeeeeeeeeeeeeeeeeeeeeeeee1415612c7f57612c7a8282613344565b612c8a565b612c8a8383836133d1565b505050565b6000811580612caa57505080820282828281612ca757fe5b04145b611bd55760405162461bcd60e51b8152600401610cd29061499f565b6000808211612ce75760405162461bcd60e51b8152600401610cd290614ac9565b818381612cf057fe5b049392505050565b60006001600160401b03821115612b2b5760405162461bcd60e51b8152600401610cd290614680565b6000611bd283836133f7565b6000611bd2836001600160a01b03841661343c565b82612d5f5760405162461bcd60e51b8152600401610cd290614606565b80612d7c5760405162461bcd60e51b8152600401610cd290614849565b60006001600160401b031660028585604051612d99929190613ca6565b908152604051908190036020019020546001600160401b03640100000000909104161415612e3f5760048054600181018255600091909152612dfe907f8a35acfbc15ff81a39ae7d344fd709f28e8600b4aa8c65c6b64bfe7fe36bd19b01858561359f565b50600454604051600290612e159087908790613ca6565b908152604051908190036020019020805463ffffffff9290921663ffffffff199092169190911790555b604051806060016040528060028686604051612e5c929190613ca6565b90815260408051602092819003830190205463ffffffff168352426001600160401b0316838301528051601f860183900483028101830182528581529201919085908590819084018382808284376000920191909152505050915250604051600290612ecb9087908790613ca6565b9081526040805191829003602090810190922083518154858501516001600160401b0316640100000000026bffffffffffffffff000000001963ffffffff90931663ffffffff1990921691909117919091161781559083015180519192612f3a92600185019290910190613619565b5050604051612f4d915085908590613ca6565b60405180910390207fbaa206e5ea800eb88bce099f453fee53295b793b9d5d1cfc4ce4b6db06a34f538383604051612f86929190613f86565b60405180910390a250505050565b600080612fbf612fa2612670565b600654612fb99042906001600160401b0316612b2f565b90612c8f565b600754909150612fd8906001600160801b031682612b2f565b91505090565b6001600160a01b0381161561266d57600c80546001600160a01b0383166001600160a01b03199091161790556008805460ff60881b1916600160881b17905550565b6000610d2282613454565b6060604482511015613071575060408051808201909152601d81527f5472616e73616374696f6e2072657665727465642073696c656e746c790000006020820152610d25565b60048201915081806020019051810190610d229190613ba0565b8082036001600160801b038084169082161115611bd55760405162461bcd60e51b8152600401610cd290614102565b8082036001600160401b038084169082161115611bd55760405162461bcd60e51b8152600401610cd290614102565b60006001600160401b031660028383604051613106929190613ca6565b908152604051908190036020019020546001600160401b036401000000009091041614156131465760405162461bcd60e51b8152600401610cd2906144c5565b600060016002848460405161315c929190613ca6565b9081526040519081900360200190205460045463ffffffff91821692909203925082166000199091011461323d5760048054600019810190811061319c57fe5b9060005260206000200160048263ffffffff16815481106131b957fe5b9060005260206000200190805460018160011615610100020316600290046131e2929190613687565b5080600101600260048363ffffffff16815481106131fc57fe5b906000526020600020016040516132139190613cd2565b908152604051908190036020019020805463ffffffff9290921663ffffffff199092169190911790555b600480548061324857fe5b60019003818190600052602060002001600061326491906136fc565b90558282604051613276929190613ca6565b60405180910390207f4b5338540b4d1c0f6dd0308a25f633b7ff60472f894d711cff9dd64e35c613b2600285856040516132b1929190613ca6565b90815260200160405180910390206001016040516132cf9190613fd7565b60405180910390a2600283836040516132e9929190613ca6565b90815260405190819003602001902080546bffffffffffffffffffffffff191681556000610fe960018301826136fc565b6000611bd2836001600160a01b038416613458565b6000611bd2836001600160a01b0384166134a2565b604080516000808252602082019092526001600160a01b03841690839060405161336e9190613cb6565b60006040518083038185875af1925050503d80600081146133ab576040519150601f19603f3d011682016040523d82523d6000602084013e6133b0565b606091505b5050905080612c8a5760405162461bcd60e51b8152600401610cd2906147d9565b60006060846001600160a01b031663a9059cbb85856040516024016128b1929190613e1a565b8154600090821061341a5760405162461bcd60e51b8152600401610cd2906141db565b82600001828154811061342957fe5b9060005260206000200154905092915050565b60009081526001919091016020526040902054151590565b5490565b6000613464838361343c565b61349a57508154600181810184556000848152602080822090930184905584548482528286019093526040902091909155611bd5565b506000611bd5565b6000818152600183016020526040812054801561355e57835460001980830191908101906000908790839081106134d557fe5b90600052602060002001549050808760000184815481106134f257fe5b60009182526020808320909101929092558281526001898101909252604090209084019055865487908061352257fe5b60019003818190600052602060002001600090559055866001016000878152602001908152602001600020600090556001945050505050611bd5565b6000915050611bd5565b604080516060810182526000808252602082018190529181019190915290565b604080518082019091526000808252602082015290565b828054600181600116156101000203166002900490600052602060002090601f016020900481019282601f106135e05782800160ff1982351617855561360d565b8280016001018555821561360d579182015b8281111561360d5782358255916020019190600101906135f2565b50612b2b92915061373c565b828054600181600116156101000203166002900490600052602060002090601f016020900481019282601f1061365a57805160ff191683800117855561360d565b8280016001018555821561360d579182015b8281111561360d57825182559160200191906001019061366c565b828054600181600116156101000203166002900490600052602060002090601f016020900481019282601f106136c0578054855561360d565b8280016001018555821561360d57600052602060002091601f016020900482015b8281111561360d5782548255916001019190600101906136e1565b50805460018160011615610100020316600290046000825580601f10613722575061266d565b601f01602090049060005260206000209081019061266d91905b5b80821115612b2b576000815560010161373d565b60008083601f840112613762578182fd5b5081356001600160401b03811115613778578182fd5b602083019150836020808302850101111561194257600080fd5b60008083601f8401126137a3578182fd5b5081356001600160401b038111156137b9578182fd5b60208301915083602082850101111561194257600080fd5b6000602082840312156137e2578081fd5b813561152b81614bea565b60008060008060008060008060008060006101608c8e03121561380e578687fd5b8b3561381981614bea565b9a5060208c013561382981614bea565b995060408c0135985060608c0135975060808c0135965060a08c013561384e81614bea565b955060c08c0135945060e08c013593506101008c013561386d81614bea565b92506101208c013561387e81614bea565b91506101408c013561388f81614bea565b809150509295989b509295989b9093969950565b600080604083850312156138b5578182fd5b82356138c081614bea565b915060208301356138d081614bff565b809150509250929050565b60008060008060008060008060008060006101608c8e03121561380e578081fd5b600080600060608486031215613910578283fd5b833561391b81614bea565b925060208401359150604084013561393281614bff565b809150509250925092565b600080600060408486031215613951578081fd5b83356001600160401b03811115613966578182fd5b61397286828701613751565b909450925050602084013561393281614bff565b6000806000806040858703121561399b578182fd5b84356001600160401b03808211156139b1578384fd5b6139bd88838901613751565b909650945060208701359150808211156139d5578384fd5b506139e287828801613751565b95989497509550505050565b6000602082840312156139ff578081fd5b813561152b81614bff565b600060208284031215613a1b578081fd5b815161152b81614bff565b600060208284031215613a37578081fd5b5035919050565b60008060408385031215613a50578182fd5b8235915060208301356138d081614bea565b60008060408385031215613a74578182fd5b50508035926020909101359150565b60008060208385031215613a95578182fd5b82356001600160401b03811115613aaa578283fd5b613ab685828601613792565b90969095509350505050565b600080600080600080600080610100898b031215613ade578182fd5b8835613ae981614bea565b97506020890135613af981614bea565b96506040890135613b0981614bea565b9550606089013594506080890135935060a0890135613b2781614c0d565b979a969950949793969295929450505060c08201359160e0013590565b60008060008060408587031215613b59578182fd5b84356001600160401b0380821115613b6f578384fd5b613b7b88838901613792565b90965094506020870135915080821115613b93578384fd5b506139e287828801613792565b600060208284031215613bb1578081fd5b81516001600160401b0380821115613bc7578283fd5b818401915084601f830112613bda578283fd5b815181811115613be8578384fd5b604051601f8201601f191681016020018381118282101715613c08578586fd5b604052818152838201602001871015613c1f578485fd5b613c30826020830160208701614bbe565b9695505050505050565b60008060408385031215613c4c578182fd5b8235915060208301356138d081614bff565b600060208284031215613c6f578081fd5b815161152b81614c0d565b60008151808452613c92816020860160208601614bbe565b601f01601f19169290920160200192915050565b6000828483379101908152919050565b60008251613cc8818460208701614bbe565b9190910192915050565b6000808354600180821660008114613cf15760018114613d0857613d37565b60ff198316865260028304607f1686019350613d37565b600283048786526020808720875b83811015613d2f5781548a820152908501908201613d16565b505050860193505b509195945050505050565b6001600160a01b0391909116815260200190565b6001600160a01b039384168152919092166020820152604081019190915260600190565b6001600160a01b039b8c168152998b1660208b015260408a01989098526060890196909652608088019490945291871660a087015260c086015260e0850152841661010084015283166101208301529091166101408201526101600190565b6001600160a01b0397881681529590961660208601526040850193909352606084019190915260ff16608083015260a082015260c081019190915260e00190565b6001600160a01b03929092168252602082015260400190565b6001600160a01b039490941684526001600160401b039283166020850152911660408301521515606082015260800190565b604080825283519082018190526000906020906060840190828701845b82811015613ea0578151151584529284019290840190600101613e82565b50505083810382850152808551613eb78184613f6a565b91508192508381028201848801865b83811015613ef0578583038552613ede838351613c7a565b94870194925090860190600101613ec6565b50909998505050505050505050565b6000602080830181845280855180835260408601915060408482028701019250838701855b82811015613f5257603f19888603018452613f40858351613c7a565b94509285019290850190600101613f24565b5092979650505050505050565b901515815260200190565b90815260200190565b600060208252611bd26020830184613c7a565b60006020825282602083015282846040840137818301604090810191909152601f909201601f19160101919050565b600060408252613fc86040830185613c7a565b90508260208301529392505050565b60006020808301818452828554600180821660008114613ffe576001811461401c57614054565b60028304607f16855260ff1983166040890152606088019350614054565b6002830480865261402c8a614bb2565b885b8281101561404a5781548b82016040015290840190880161402e565b8a01604001955050505b5091979650505050505050565b6020808252602d908201527f447574636841756374696f6e3a205061796d656e742063757272656e6379206960408201526c39903737ba1030903a37b5b2b760991b606082015260800190565b60208082526034908201527f447574636841756374696f6e3a20656e642074696d65206d757374206265206f6040820152736c646572207468616e2073746172742074696d6560601b606082015260800190565b602080825260159082015274426f72696e674d6174683a20556e646572666c6f7760581b604082015260600190565b6020808252818101527f447574636841756374696f6e3a204e6f20746f6b656e7320746f20636c61696d604082015260600190565b60208082526028908201527f447574636841756374696f6e3a2077616c6c657420697320746865207a65726f604082015267206164647265737360c01b606082015260800190565b602080825260139082015272105b1c9958591e481a5b9a5d1a585b1a5cd959606a1b604082015260600190565b60208082526022908201527f456e756d657261626c655365743a20696e646578206f7574206f6620626f756e604082015261647360f01b606082015260800190565b6020808252602f908201527f416363657373436f6e74726f6c3a2073656e646572206d75737420626520616e60408201526e0818591b5a5b881d1bc819dc985b9d608a1b606082015260800190565b6020808252602b908201527f447574636841756374696f6e3a205061796d656e742063757272656e6379206960408201526a073206e6f742045524332360ac1b606082015260800190565b60208082526032908201527f447574636841756374696f6e3a206d696e696d756d207072696365206d75737460408201527102062652067726561746572207468616e20360741b606082015260800190565b60208082526027908201527f447574636841756374696f6e3a2061756374696f6e20616c72656164792066696040820152661b985b1a5e995960ca1b606082015260800190565b60208082526041908201527f447574636841756374696f6e3a20656e74657220616e20756e69782074696d6560408201527f7374616d7020696e207365636f6e64732c206e6f74206d696c697365636f6e646060820152607360f81b608082015260a00190565b60208082526027908201527f447574636841756374696f6e3a2061756374696f6e20616c726561647920636f6040820152661b5b5a5d1d195960ca1b606082015260800190565b60208082526052908201527f4e6f2061677265656d656e742070726f76696465642c20706c6561736520726560408201527f766965772074686520736d61727420636f6e7472616374206265666f726520696060820152711b9d195c9858dd1a5b99c81dda5d1a081a5d60721b608082015260a00190565b6020808252602f908201527f447574636841756374696f6e3a2073746172742074696d65206973206265666f60408201526e72652063757272656e742074696d6560881b606082015260800190565b602080825260159082015274111bd8dd5b595b9d081cda1bdd5b1908195e1a5cdd605a1b604082015260600190565b60208082526034908201527f447574636841756374696f6e3a20746f74616c20746f6b656e73206d7573742060408201527362652067726561746572207468616e207a65726f60601b606082015260800190565b6020808252601c908201527f426f72696e674d6174683a2075696e74313238204f766572666c6f7700000000604082015260600190565b60208082526030908201527f416363657373436f6e74726f6c3a2073656e646572206d75737420626520616e60408201526f2061646d696e20746f207265766f6b6560801b606082015260800190565b60208082526018908201527f426f72696e674d6174683a20416464204f766572666c6f770000000000000000604082015260600190565b60208082526018908201527f5a65726f206e616d65206973206e6f7420616c6c6f7765640000000000000000604082015260600190565b60208082526023908201527f447574636841756374696f6e3a206f7574736964652061756374696f6e20686f60408201526275727360e81b606082015260800190565b6020808252601b908201527f426f72696e674d6174683a2075696e743634204f766572666c6f770000000000604082015260600190565b60208082526031908201527f447574636841756374696f6e3a207061796d656e742063757272656e6379206960408201527073206e6f7420455448206164647265737360781b606082015260800190565b60208082526025908201527f447574636841756374696f6e3a2073656e646572206d75737420626520616e2060408201526430b236b4b760d91b606082015260800190565b60208082526035908201527f447574636841756374696f6e3a20656e642074696d65206d757374206265206f6040820152746c646572207468616e20737461727420707269636560581b606082015260800190565b6020808252601b908201527f447574636841756374696f6e3a206e6f742066696e616c697a65640000000000604082015260600190565b60208082526023908201527f5472616e7366657248656c7065723a204554485f5452414e534645525f46414960408201526213115160ea1b606082015260800190565b602080825260139082015272496e646578206f7574206f6620626f756e647360681b604082015260600190565b6020808252601a908201527f53686f756c64206e6f74206265206120656d7074792064617461000000000000604082015260600190565b6020808252602a908201527f447574636841756374696f6e3a2061756374696f6e20686173206e6f742066696040820152691b9a5cda1959081e595d60b21b606082015260800190565b6020808252602d908201527f447574636841756374696f6e3a20546f6b656e20646f6573206e6f742068617660408201526c6520313820646563696d616c7360981b606082015260800190565b6020808252601f908201527f5265656e7472616e637947756172643a207265656e7472616e742063616c6c00604082015260600190565b60208082526031908201527f447574636841756374696f6e3a2061756374696f6e2063616e6e6f74206861766040820152701948185b1c9958591e481cdd185c9d1959607a1b606082015260800190565b60208082526018908201527f426f72696e674d6174683a204d756c204f766572666c6f770000000000000000604082015260600190565b6020808252603b908201527f447574636841756374696f6e3a207374617274207072696365206d757374206260408201527f6520686967686572207468616e206d696e696d756d2070726963650000000000606082015260800190565b60208082526027908201527f447574636841756374696f6e3a2061646d696e20697320746865207a65726f206040820152666164647265737360c81b606082015260800190565b6020808252602f908201527f416363657373436f6e74726f6c3a2063616e206f6e6c792072656e6f756e636560408201526e103937b632b9903337b91039b2b63360891b606082015260800190565b602080825260149082015273426f72696e674d6174683a20446976207a65726f60601b604082015260600190565b6001600160801b0393909316835290151560208301521515604082015260600190565b6001600160801b0392831681529116602082015260400190565b918252602082015260400190565b6001600160401b0393841681529190921660208201526001600160801b03909116604082015260600190565b6000808335601e19843603018112614b84578283fd5b8301803591506001600160401b03821115614b9d578283fd5b60200191503681900382131561194257600080fd5b60009081526020902090565b60005b83811015614bd9578181015183820152602001614bc1565b83811115610feb5750506000910152565b6001600160a01b038116811461266d57600080fd5b801515811461266d57600080fd5b60ff8116811461266d57600080fdfe9d49f397ae9ef1a834b569acb967799a367061e305932181a44f5773da873bfd4920756e6465727374616e6420746861742049276d20696e746572616374696e672077697468206120736d61727420636f6e74726163742e204920756e6465727374616e64207468617420746f6b656e7320636f6d6d6974656420617265207375626a65637420746f2074686520746f6b656e2069737375657220616e64206c6f63616c206c617773207768657265206170706c696361626c652e204920726576696577656420636f6465206f662074686520736d61727420636f6e747261637420616e6420756e6465727374616e642069742066756c6c792e204920616772656520746f206e6f7420686f6c6420646576656c6f70657273206f72206f746865722070656f706c65206173736f6369617465642077697468207468652070726f6a656374206c6961626c6520666f7220616e79206c6f73736573206f72206d6973756e6465727374616e64696e677397667070c54ef182b0f5858b034beac1b6f3089aa2d3188bb1e8929f4fa9b9299f2df0fed2c77648de5860a4cc508cd0818c85b8b8a1ab4ceeef8d981c8956a6a2646970667358221220ff2ea812caea5cdcbb5e77cfa7771301f22a19f484bac37d5d9e7f6a0fdff2bf64736f6c634300060c0033",
  "devdoc": {
    "kind": "dev",
    "methods": {
      "addAdminRole(address)": {
        "details": "The sender must have the admin role.",
        "params": {
          "_address": "EOA or contract receiving the new role."
        }
      },
      "addMinterRole(address)": {
        "details": "The sender must have the admin role",
        "params": {
          "_address": "EOA or contract receiving the new role"
        }
      },
      "addOperatorRole(address)": {
        "details": "The sender must have the admin role",
        "params": {
          "_address": "EOA or contract receiving the new role"
        }
      },
      "addSmartContractRole(address)": {
        "details": "The sender must have the admin role",
        "params": {
          "_address": "EOA or contract receiving the new role"
        }
      },
      "auctionEnded()": {
        "returns": {
          "_0": "True if auction is successful or time has ended."
        }
      },
      "auctionSuccessful()": {
        "returns": {
          "_0": "True if tokenPrice is bigger or equal clearingPrice."
        }
      },
      "batch(bytes[],bool)": {
        "params": {
          "calls": "An array of inputs for each call.",
          "revertOnFail": "If True then reverts after a failed call and stops doing further calls."
        },
        "returns": {
          "results": "An array with the returned data of each function call, mapped one-to-one to `calls`.",
          "successes": "An array indicating the success of a call, mapped one-to-one to `calls`."
        }
      },
      "calculateCommitment(uint256)": {
        "params": {
          "_commitment": "Commitment user would like to make."
        },
        "returns": {
          "committed": "Amount allowed to commit."
        }
      },
      "cancelAuction()": {
        "details": "Admin can cancel the auction before it starts"
      },
      "clearingPrice()": {
        "returns": {
          "_0": "The bigger from tokenPrice and priceFunction."
        }
      },
      "commitEth(address,bool)": {
        "params": {
          "_beneficiary": "Auction participant ETH address."
        }
      },
      "commitTokens(uint256,bool)": {
        "params": {
          "_amount": "Amount of tokens to commit."
        }
      },
      "commitTokensFrom(address,uint256,bool)": {
        "details": "Users must approve contract prior to committing tokens to auction.",
        "params": {
          "_amount": "Amount of approved ERC20 tokens.",
          "_from": "User ERC20 address."
        }
      },
      "finalize()": {
        "details": "Transfer contract funds to initialized wallet."
      },
      "finalizeTimeExpired()": {
        "returns": {
          "_0": "Returns true if 14 days have passed since the end of the auction"
        }
      },
      "finalized()": {
        "returns": {
          "_0": "Returns true if market has been finalized"
        }
      },
      "getAllDocuments()": {
        "returns": {
          "_0": "string List of all documents names present in the contract."
        }
      },
      "getAuctionInitData(address,address,uint256,uint256,uint256,address,uint256,uint256,address,address,address)": {
        "params": {
          "_admin": "Address that can finalize auction.",
          "_endTime": "Auction end time.",
          "_funder": "The address that funds the token for crowdsale.",
          "_minimumPrice": "The minimum auction price.",
          "_paymentCurrency": "The currency the crowdsale accepts for payment. Can be ETH or token address.",
          "_pointList": "Address that will manage auction approvals.",
          "_startPrice": "Starting price of the auction.",
          "_startTime": "Auction start time.",
          "_token": "Address of the token being sold.",
          "_totalTokens": "The total number of tokens to sell in auction.",
          "_wallet": "Address where collected funds will be forwarded to."
        },
        "returns": {
          "_data": "All the data in bytes format."
        }
      },
      "getDocument(string)": {
        "params": {
          "_name": "Name of the document"
        },
        "returns": {
          "_0": "string The data associated with the document.",
          "_1": "uint256 the timestamp at which the document was last modified."
        }
      },
      "getDocumentCount()": {
        "returns": {
          "_0": "uint256 Count of the document names present in the contract."
        }
      },
      "getDocumentName(uint256)": {
        "returns": {
          "_0": "string Name of the document name."
        }
      },
      "getRoleAdmin(bytes32)": {
        "details": "Returns the admin role that controls `role`. See {grantRole} and {revokeRole}. To change a role's admin, use {_setRoleAdmin}."
      },
      "getRoleMember(bytes32,uint256)": {
        "details": "Returns one of the accounts that have `role`. `index` must be a value between 0 and {getRoleMemberCount}, non-inclusive. Role bearers are not sorted in any particular way, and their ordering may change at any point. WARNING: When using {getRoleMember} and {getRoleMemberCount}, make sure you perform all queries on the same block. See the following https://forum.openzeppelin.com/t/iterating-over-elements-on-enumerableset-in-openzeppelin-contracts/2296[forum post] for more information."
      },
      "getRoleMemberCount(bytes32)": {
        "details": "Returns the number of accounts that have `role`. Can be used together with {getRoleMember} to enumerate all bearers of a role."
      },
      "grantRole(bytes32,address)": {
        "details": "Grants `role` to `account`. If `account` had not been already granted `role`, emits a {RoleGranted} event. Requirements: - the caller must have ``role``'s admin role."
      },
      "hasAdminRole(address)": {
        "params": {
          "_address": "EOA or contract being checked."
        },
        "returns": {
          "_0": "bool True if the account has the role or false if it does not."
        }
      },
      "hasMinterRole(address)": {
        "params": {
          "_address": "EOA or contract being checked"
        },
        "returns": {
          "_0": "bool True if the account has the role or false if it does not"
        }
      },
      "hasOperatorRole(address)": {
        "params": {
          "_address": "EOA or contract being checked"
        },
        "returns": {
          "_0": "bool True if the account has the role or false if it does not"
        }
      },
      "hasRole(bytes32,address)": {
        "details": "Returns `true` if `account` has been granted `role`."
      },
      "hasSmartContractRole(address)": {
        "params": {
          "_address": "EOA or contract being checked"
        },
        "returns": {
          "_0": "bool True if the account has the role or false if it does not"
        }
      },
      "init(bytes)": {
        "params": {
          "_data": "Encoded data for initialization."
        }
      },
      "initAccessControls(address)": {
        "params": {
          "_admin": "Admins address."
        }
      },
      "initAuction(address,address,uint256,uint256,uint256,address,uint256,uint256,address,address,address)": {
        "details": "Init function.",
        "params": {
          "_admin": "Address that can finalize auction.",
          "_endTime": "Auction end time.",
          "_funder": "The address that funds the token for crowdsale.",
          "_minimumPrice": "The minimum auction price.",
          "_paymentCurrency": "The currency the crowdsale accepts for payment. Can be ETH or token address.",
          "_pointList": "Address that will manage auction approvals.",
          "_startPrice": "Starting price of the auction.",
          "_startTime": "Auction start time.",
          "_token": "Address of the token being sold.",
          "_totalTokens": "The total number of tokens to sell in auction.",
          "_wallet": "Address where collected funds will be forwarded to."
        }
      },
      "isOpen()": {
        "returns": {
          "_0": "True if current time is greater than startTime and less than endTime."
        }
      },
      "marketParticipationAgreement()": {
        "details": "Attribution to the awesome delta.financial contracts"
      },
      "priceDrop()": {
        "returns": {
          "_0": "Value calculated from auction start and end price difference divided the auction duration."
        }
      },
      "priceFunction()": {
        "returns": {
          "_0": "Fixed start price or minimum price if outside of auction time, otherwise calculated current price."
        }
      },
      "removeAdminRole(address)": {
        "details": "The sender must have the admin role.",
        "params": {
          "_address": "EOA or contract affected."
        }
      },
      "removeMinterRole(address)": {
        "details": "The sender must have the admin role",
        "params": {
          "_address": "EOA or contract affected"
        }
      },
      "removeOperatorRole(address)": {
        "details": "The sender must have the admin role",
        "params": {
          "_address": "EOA or contract affected"
        }
      },
      "removeSmartContractRole(address)": {
        "details": "The sender must have the admin role",
        "params": {
          "_address": "EOA or contract affected"
        }
      },
      "renounceRole(bytes32,address)": {
        "details": "Revokes `role` from the calling account. Roles are often managed via {grantRole} and {revokeRole}: this function's purpose is to provide a mechanism for accounts to lose their privileges if they are compromised (such as when a trusted device is misplaced). If the calling account had been granted `role`, emits a {RoleRevoked} event. Requirements: - the caller must be `account`."
      },
      "revokeRole(bytes32,address)": {
        "details": "Revokes `role` from `account`. If `account` had been granted `role`, emits a {RoleRevoked} event. Requirements: - the caller must have ``role``'s admin role."
      },
      "setAuctionPrice(uint256,uint256)": {
        "params": {
          "_minimumPrice": "Auction minimum price.",
          "_startPrice": "Auction start price."
        }
      },
      "setAuctionTime(uint256,uint256)": {
        "params": {
          "_endTime": "Auction end time.",
          "_startTime": "Auction start time."
        }
      },
      "setAuctionWallet(address)": {
        "params": {
          "_wallet": "Auction wallet is where funds will be sent."
        }
      },
      "tokenPrice()": {
        "returns": {
          "_0": "Average token price."
        }
      },
      "tokensClaimable(address)": {
        "params": {
          "_user": "Auction participant address."
        },
        "returns": {
          "_0": "User commitments reduced by already claimed tokens."
        }
      },
      "totalTokensCommitted()": {
        "returns": {
          "_0": "Number of tokens commited."
        }
      },
      "withdrawTokens(address)": {
        "details": "Withdraw tokens only after auction ends.",
        "params": {
          "beneficiary": "Whose tokens will be withdrawn."
        }
      }
    },
    "stateVariables": {
      "ETH_ADDRESS": {
        "details": "The placeholder ETH address."
      },
      "marketTemplate": {
        "details": "For different marketplace types, this must be incremented."
      }
    },
    "version": 1
  },
  "userdoc": {
    "events": {
      "AddedCommitment(address,uint256)": {
        "notice": "Event for adding a commitment."
      },
      "AdminRoleGranted(address,address)": {
        "notice": "Events for adding and removing various roles."
      },
      "AuctionCancelled()": {
        "notice": "Event for cancellation of the auction."
      },
      "AuctionFinalized()": {
        "notice": "Event for finalization of the auction."
      },
      "AuctionPriceUpdated(uint256,uint256)": {
        "notice": "Event for updating auction prices. Needs to be before auction starts."
      },
      "AuctionTimeUpdated(uint256,uint256)": {
        "notice": "Event for updating auction times.  Needs to be before auction starts."
      },
      "AuctionWalletUpdated(address)": {
        "notice": "Event for updating auction wallet. Needs to be before auction starts."
      },
      "MinterRoleGranted(address,address)": {
        "notice": "Events for adding and removing various roles"
      }
    },
    "kind": "user",
    "methods": {
      "MINTER_ROLE()": {
        "notice": "Role definitions"
      },
      "addAdminRole(address)": {
        "notice": "Grants the admin role to an address."
      },
      "addMinterRole(address)": {
        "notice": "Grants the minter role to an address"
      },
      "addOperatorRole(address)": {
        "notice": "Grants the operator role to an address"
      },
      "addSmartContractRole(address)": {
        "notice": "Grants the smart contract role to an address"
      },
      "auctionEnded()": {
        "notice": "Checks if the auction has ended."
      },
      "auctionSuccessful()": {
        "notice": "Successful if tokens sold equals totalTokens."
      },
      "auctionToken()": {
        "notice": "The token being sold."
      },
      "batch(bytes[],bool)": {
        "notice": "Allows batched call to self (this contract)."
      },
      "calculateCommitment(uint256)": {
        "notice": "Calculates the amout able to be committed during an auction."
      },
      "cancelAuction()": {
        "notice": "Cancel Auction"
      },
      "claimed(address)": {
        "notice": "Amount of tokens to claim per address."
      },
      "clearingPrice()": {
        "notice": "The current clearing price of the Dutch auction."
      },
      "commitEth(address,bool)": {
        "notice": "Checks the amount of ETH to commit and adds the commitment. Refunds the buyer if commit is too high."
      },
      "commitTokens(uint256,bool)": {
        "notice": "Buy Tokens by commiting approved ERC20 tokens to this contract address."
      },
      "commitTokensFrom(address,uint256,bool)": {
        "notice": "Checks how much is user able to commit and processes that commitment."
      },
      "commitments(address)": {
        "notice": "The commited amount of accounts."
      },
      "finalize()": {
        "notice": "Auction finishes successfully above the reserve."
      },
      "getAllDocuments()": {
        "notice": "Used to retrieve a full list of documents attached to the smart contract."
      },
      "getAuctionInitData(address,address,uint256,uint256,uint256,address,uint256,uint256,address,address,address)": {
        "notice": "Collects data to initialize the auction and encodes them."
      },
      "getDocument(string)": {
        "notice": "Used to return the details of a document with a known name (`string`)."
      },
      "getDocumentCount()": {
        "notice": "Used to retrieve the total documents in the smart contract."
      },
      "getDocumentName(uint256)": {
        "notice": "Used to retrieve the document name from index in the smart contract."
      },
      "hasAdminRole(address)": {
        "notice": "Used to check whether an address has the admin role."
      },
      "hasMinterRole(address)": {
        "notice": "Used to check whether an address has the minter role"
      },
      "hasOperatorRole(address)": {
        "notice": "Used to check whether an address has the operator role"
      },
      "hasSmartContractRole(address)": {
        "notice": "Used to check whether an address has the smart contract role"
      },
      "init(bytes)": {
        "notice": "Decodes and hands auction data to the initAuction function."
      },
      "initAccessControls(address)": {
        "notice": "Initializes access controls."
      },
      "initAuction(address,address,uint256,uint256,uint256,address,uint256,uint256,address,address,address)": {
        "notice": "Initializes main contract variables and transfers funds for the auction."
      },
      "isOpen()": {
        "notice": "Checks if the auction is open."
      },
      "marketTemplate()": {
        "notice": "MISOMarket template id for the factory contract."
      },
      "paymentCurrency()": {
        "notice": "The currency the auction accepts for payment. Can be ETH or token address."
      },
      "permitToken(address,address,address,uint256,uint256,uint8,bytes32,bytes32)": {
        "notice": "Call wrapper that performs `ERC20.permit` on `token`. Lookup `IERC20.permit`."
      },
      "pointList()": {
        "notice": "Address that manages auction approvals."
      },
      "priceDrop()": {
        "notice": "Calculates the pricedrop factor."
      },
      "priceFunction()": {
        "notice": "Returns auction price in any time."
      },
      "removeAdminRole(address)": {
        "notice": "Removes the admin role from an address."
      },
      "removeMinterRole(address)": {
        "notice": "Removes the minter role from an address"
      },
      "removeOperatorRole(address)": {
        "notice": "Removes the operator role from an address"
      },
      "removeSmartContractRole(address)": {
        "notice": "Removes the smart contract role from an address"
      },
      "setAuctionPrice(uint256,uint256)": {
        "notice": "Admin can set start and min price through this function."
      },
      "setAuctionTime(uint256,uint256)": {
        "notice": "Admin can set start and end time through this function."
      },
      "setAuctionWallet(address)": {
        "notice": "Admin can set the auction wallet through this function."
      },
      "tokenPrice()": {
        "notice": "Calculates the average price of each token from all commitments."
      },
      "tokensClaimable(address)": {
        "notice": "How many tokens the user is able to claim."
      },
      "totalTokensCommitted()": {
        "notice": "Calculates total amount of tokens committed at current auction price."
      },
      "wallet()": {
        "notice": "Where the auction funds will get paid."
      },
      "withdrawTokens()": {
        "notice": "Withdraws bought tokens, or returns commitment if the sale is unsuccessful."
      },
      "withdrawTokens(address)": {
        "notice": "Withdraws bought tokens, or returns commitment if the sale is unsuccessful."
      }
    },
    "notice": "Attribution to delta.financialAttribution to dutchswap.com",
    "version": 1
  },
  "storageLayout": {
    "storage": [
      {
        "astId": 14933,
        "contract": "contracts/Auctions/DutchAuction.sol:DutchAuction",
        "label": "_roles",
        "offset": 0,
        "slot": "0",
        "type": "t_mapping(t_bytes32,t_struct(RoleData)14929_storage)"
      },
      {
        "astId": 859,
        "contract": "contracts/Auctions/DutchAuction.sol:DutchAuction",
        "label": "initAccess",
        "offset": 0,
        "slot": "1",
        "type": "t_bool"
      },
      {
        "astId": 23645,
        "contract": "contracts/Auctions/DutchAuction.sol:DutchAuction",
        "label": "_documents",
        "offset": 0,
        "slot": "2",
        "type": "t_mapping(t_string_memory_ptr,t_struct(Document)23641_storage)"
      },
      {
        "astId": 23649,
        "contract": "contracts/Auctions/DutchAuction.sol:DutchAuction",
        "label": "_docIndexes",
        "offset": 0,
        "slot": "3",
        "type": "t_mapping(t_string_memory_ptr,t_uint32)"
      },
      {
        "astId": 23652,
        "contract": "contracts/Auctions/DutchAuction.sol:DutchAuction",
        "label": "_docNames",
        "offset": 0,
        "slot": "4",
        "type": "t_array(t_string_storage)dyn_storage"
      },
      {
        "astId": 17715,
        "contract": "contracts/Auctions/DutchAuction.sol:DutchAuction",
        "label": "_status",
        "offset": 0,
        "slot": "5",
        "type": "t_uint256"
      },
      {
        "astId": 4126,
        "contract": "contracts/Auctions/DutchAuction.sol:DutchAuction",
        "label": "marketInfo",
        "offset": 0,
        "slot": "6",
        "type": "t_struct(MarketInfo)4124_storage"
      },
      {
        "astId": 4133,
        "contract": "contracts/Auctions/DutchAuction.sol:DutchAuction",
        "label": "marketPrice",
        "offset": 0,
        "slot": "7",
        "type": "t_struct(MarketPrice)4131_storage"
      },
      {
        "astId": 4142,
        "contract": "contracts/Auctions/DutchAuction.sol:DutchAuction",
        "label": "marketStatus",
        "offset": 0,
        "slot": "8",
        "type": "t_struct(MarketStatus)4140_storage"
      },
      {
        "astId": 4145,
        "contract": "contracts/Auctions/DutchAuction.sol:DutchAuction",
        "label": "auctionToken",
        "offset": 0,
        "slot": "9",
        "type": "t_address"
      },
      {
        "astId": 4148,
        "contract": "contracts/Auctions/DutchAuction.sol:DutchAuction",
        "label": "paymentCurrency",
        "offset": 0,
        "slot": "10",
        "type": "t_address"
      },
      {
        "astId": 4151,
        "contract": "contracts/Auctions/DutchAuction.sol:DutchAuction",
        "label": "wallet",
        "offset": 0,
        "slot": "11",
        "type": "t_address_payable"
      },
      {
        "astId": 4154,
        "contract": "contracts/Auctions/DutchAuction.sol:DutchAuction",
        "label": "pointList",
        "offset": 0,
        "slot": "12",
        "type": "t_address"
      },
      {
        "astId": 4159,
        "contract": "contracts/Auctions/DutchAuction.sol:DutchAuction",
        "label": "commitments",
        "offset": 0,
        "slot": "13",
        "type": "t_mapping(t_address,t_uint256)"
      },
      {
        "astId": 4164,
        "contract": "contracts/Auctions/DutchAuction.sol:DutchAuction",
        "label": "claimed",
        "offset": 0,
        "slot": "14",
        "type": "t_mapping(t_address,t_uint256)"
      }
    ],
    "types": {
      "t_address": {
        "encoding": "inplace",
        "label": "address",
        "numberOfBytes": "20"
      },
      "t_address_payable": {
        "encoding": "inplace",
        "label": "address payable",
        "numberOfBytes": "20"
      },
      "t_array(t_bytes32)dyn_storage": {
        "base": "t_bytes32",
        "encoding": "dynamic_array",
        "label": "bytes32[]",
        "numberOfBytes": "32"
      },
      "t_array(t_string_storage)dyn_storage": {
        "base": "t_string_storage",
        "encoding": "dynamic_array",
        "label": "string[]",
        "numberOfBytes": "32"
      },
      "t_bool": {
        "encoding": "inplace",
        "label": "bool",
        "numberOfBytes": "1"
      },
      "t_bytes32": {
        "encoding": "inplace",
        "label": "bytes32",
        "numberOfBytes": "32"
      },
      "t_mapping(t_address,t_uint256)": {
        "encoding": "mapping",
        "key": "t_address",
        "label": "mapping(address => uint256)",
        "numberOfBytes": "32",
        "value": "t_uint256"
      },
      "t_mapping(t_bytes32,t_struct(RoleData)14929_storage)": {
        "encoding": "mapping",
        "key": "t_bytes32",
        "label": "mapping(bytes32 => struct AccessControl.RoleData)",
        "numberOfBytes": "32",
        "value": "t_struct(RoleData)14929_storage"
      },
      "t_mapping(t_bytes32,t_uint256)": {
        "encoding": "mapping",
        "key": "t_bytes32",
        "label": "mapping(bytes32 => uint256)",
        "numberOfBytes": "32",
        "value": "t_uint256"
      },
      "t_mapping(t_string_memory_ptr,t_struct(Document)23641_storage)": {
        "encoding": "mapping",
        "key": "t_string_memory_ptr",
        "label": "mapping(string => struct Documents.Document)",
        "numberOfBytes": "32",
        "value": "t_struct(Document)23641_storage"
      },
      "t_mapping(t_string_memory_ptr,t_uint32)": {
        "encoding": "mapping",
        "key": "t_string_memory_ptr",
        "label": "mapping(string => uint32)",
        "numberOfBytes": "32",
        "value": "t_uint32"
      },
      "t_string_memory_ptr": {
        "encoding": "bytes",
        "label": "string",
        "numberOfBytes": "32"
      },
      "t_string_storage": {
        "encoding": "bytes",
        "label": "string",
        "numberOfBytes": "32"
      },
      "t_struct(AddressSet)17396_storage": {
        "encoding": "inplace",
        "label": "struct EnumerableSet.AddressSet",
        "members": [
          {
            "astId": 17395,
            "contract": "contracts/Auctions/DutchAuction.sol:DutchAuction",
            "label": "_inner",
            "offset": 0,
            "slot": "0",
            "type": "t_struct(Set)17131_storage"
          }
        ],
        "numberOfBytes": "64"
      },
      "t_struct(Document)23641_storage": {
        "encoding": "inplace",
        "label": "struct Documents.Document",
        "members": [
          {
            "astId": 23636,
            "contract": "contracts/Auctions/DutchAuction.sol:DutchAuction",
            "label": "docIndex",
            "offset": 0,
            "slot": "0",
            "type": "t_uint32"
          },
          {
            "astId": 23638,
            "contract": "contracts/Auctions/DutchAuction.sol:DutchAuction",
            "label": "lastModified",
            "offset": 4,
            "slot": "0",
            "type": "t_uint64"
          },
          {
            "astId": 23640,
            "contract": "contracts/Auctions/DutchAuction.sol:DutchAuction",
            "label": "data",
            "offset": 0,
            "slot": "1",
            "type": "t_string_storage"
          }
        ],
        "numberOfBytes": "64"
      },
      "t_struct(MarketInfo)4124_storage": {
        "encoding": "inplace",
        "label": "struct DutchAuction.MarketInfo",
        "members": [
          {
            "astId": 4119,
            "contract": "contracts/Auctions/DutchAuction.sol:DutchAuction",
            "label": "startTime",
            "offset": 0,
            "slot": "0",
            "type": "t_uint64"
          },
          {
            "astId": 4121,
            "contract": "contracts/Auctions/DutchAuction.sol:DutchAuction",
            "label": "endTime",
            "offset": 8,
            "slot": "0",
            "type": "t_uint64"
          },
          {
            "astId": 4123,
            "contract": "contracts/Auctions/DutchAuction.sol:DutchAuction",
            "label": "totalTokens",
            "offset": 16,
            "slot": "0",
            "type": "t_uint128"
          }
        ],
        "numberOfBytes": "32"
      },
      "t_struct(MarketPrice)4131_storage": {
        "encoding": "inplace",
        "label": "struct DutchAuction.MarketPrice",
        "members": [
          {
            "astId": 4128,
            "contract": "contracts/Auctions/DutchAuction.sol:DutchAuction",
            "label": "startPrice",
            "offset": 0,
            "slot": "0",
            "type": "t_uint128"
          },
          {
            "astId": 4130,
            "contract": "contracts/Auctions/DutchAuction.sol:DutchAuction",
            "label": "minimumPrice",
            "offset": 16,
            "slot": "0",
            "type": "t_uint128"
          }
        ],
        "numberOfBytes": "32"
      },
      "t_struct(MarketStatus)4140_storage": {
        "encoding": "inplace",
        "label": "struct DutchAuction.MarketStatus",
        "members": [
          {
            "astId": 4135,
            "contract": "contracts/Auctions/DutchAuction.sol:DutchAuction",
            "label": "commitmentsTotal",
            "offset": 0,
            "slot": "0",
            "type": "t_uint128"
          },
          {
            "astId": 4137,
            "contract": "contracts/Auctions/DutchAuction.sol:DutchAuction",
            "label": "finalized",
            "offset": 16,
            "slot": "0",
            "type": "t_bool"
          },
          {
            "astId": 4139,
            "contract": "contracts/Auctions/DutchAuction.sol:DutchAuction",
            "label": "usePointList",
            "offset": 17,
            "slot": "0",
            "type": "t_bool"
          }
        ],
        "numberOfBytes": "32"
      },
      "t_struct(RoleData)14929_storage": {
        "encoding": "inplace",
        "label": "struct AccessControl.RoleData",
        "members": [
          {
            "astId": 14926,
            "contract": "contracts/Auctions/DutchAuction.sol:DutchAuction",
            "label": "members",
            "offset": 0,
            "slot": "0",
            "type": "t_struct(AddressSet)17396_storage"
          },
          {
            "astId": 14928,
            "contract": "contracts/Auctions/DutchAuction.sol:DutchAuction",
            "label": "adminRole",
            "offset": 0,
            "slot": "2",
            "type": "t_bytes32"
          }
        ],
        "numberOfBytes": "96"
      },
      "t_struct(Set)17131_storage": {
        "encoding": "inplace",
        "label": "struct EnumerableSet.Set",
        "members": [
          {
            "astId": 17126,
            "contract": "contracts/Auctions/DutchAuction.sol:DutchAuction",
            "label": "_values",
            "offset": 0,
            "slot": "0",
            "type": "t_array(t_bytes32)dyn_storage"
          },
          {
            "astId": 17130,
            "contract": "contracts/Auctions/DutchAuction.sol:DutchAuction",
            "label": "_indexes",
            "offset": 0,
            "slot": "1",
            "type": "t_mapping(t_bytes32,t_uint256)"
          }
        ],
        "numberOfBytes": "64"
      },
      "t_uint128": {
        "encoding": "inplace",
        "label": "uint128",
        "numberOfBytes": "16"
      },
      "t_uint256": {
        "encoding": "inplace",
        "label": "uint256",
        "numberOfBytes": "32"
      },
      "t_uint32": {
        "encoding": "inplace",
        "label": "uint32",
        "numberOfBytes": "4"
      },
      "t_uint64": {
        "encoding": "inplace",
        "label": "uint64",
        "numberOfBytes": "8"
      }
    }
  }
}