{
  "address": "0xF66698695eC940078Ef6C102675F83608Ab693aA",
  "abi": [
    {
      "anonymous": false,
      "inputs": [
        {
          "indexed": false,
          "internalType": "address",
          "name": "newAddress",
          "type": "address"
        }
      ],
      "name": "FactoryDeprecated",
      "type": "event"
    },
    {
      "anonymous": false,
      "inputs": [
        {
          "indexed": false,
          "internalType": "uint256",
          "name": "oldFee",
          "type": "uint256"
        },
        {
          "indexed": false,
          "internalType": "uint256",
          "name": "newFee",
          "type": "uint256"
        }
      ],
      "name": "MinimumFeeUpdated",
      "type": "event"
    },
    {
      "anonymous": false,
      "inputs": [],
      "name": "MisoInitListFactory",
      "type": "event"
    },
    {
      "anonymous": false,
      "inputs": [
        {
          "indexed": true,
          "internalType": "address",
          "name": "operator",
          "type": "address"
        },
        {
          "indexed": true,
          "internalType": "address",
          "name": "addr",
          "type": "address"
        },
        {
          "indexed": false,
          "internalType": "address",
          "name": "pointList",
          "type": "address"
        },
        {
          "indexed": false,
          "internalType": "address",
          "name": "owner",
          "type": "address"
        }
      ],
      "name": "PointListDeployed",
      "type": "event"
    },
    {
      "inputs": [],
      "name": "accessControls",
      "outputs": [
        {
          "internalType": "contract MISOAccessControls",
          "name": "",
          "type": "address"
        }
      ],
      "stateMutability": "view",
      "type": "function"
    },
    {
      "inputs": [
        {
          "internalType": "address",
          "name": "_listOwner",
          "type": "address"
        },
        {
          "internalType": "address[]",
          "name": "_accounts",
          "type": "address[]"
        },
        {
          "internalType": "uint256[]",
          "name": "_amounts",
          "type": "uint256[]"
        }
      ],
      "name": "deployPointList",
      "outputs": [
        {
          "internalType": "address",
          "name": "pointList",
          "type": "address"
        }
      ],
      "stateMutability": "payable",
      "type": "function"
    },
    {
      "inputs": [
        {
          "internalType": "address",
          "name": "_newAddress",
          "type": "address"
        }
      ],
      "name": "deprecateFactory",
      "outputs": [],
      "stateMutability": "nonpayable",
      "type": "function"
    },
    {
      "inputs": [
        {
          "internalType": "address",
          "name": "_accessControls",
          "type": "address"
        },
        {
          "internalType": "address",
          "name": "_pointListTemplate",
          "type": "address"
        },
        {
          "internalType": "uint256",
          "name": "_minimumFee",
          "type": "uint256"
        }
      ],
      "name": "initListFactory",
      "outputs": [],
      "stateMutability": "nonpayable",
      "type": "function"
    },
    {
      "inputs": [
        {
          "internalType": "address",
          "name": "",
          "type": "address"
        }
      ],
      "name": "isChild",
      "outputs": [
        {
          "internalType": "bool",
          "name": "",
          "type": "bool"
        }
      ],
      "stateMutability": "view",
      "type": "function"
    },
    {
      "inputs": [
        {
          "internalType": "uint256",
          "name": "",
          "type": "uint256"
        }
      ],
      "name": "lists",
      "outputs": [
        {
          "internalType": "address",
          "name": "",
          "type": "address"
        }
      ],
      "stateMutability": "view",
      "type": "function"
    },
    {
      "inputs": [],
      "name": "minimumFee",
      "outputs": [
        {
          "internalType": "uint256",
          "name": "",
          "type": "uint256"
        }
      ],
      "stateMutability": "view",
      "type": "function"
    },
    {
      "inputs": [],
      "name": "misoDiv",
      "outputs": [
        {
          "internalType": "address payable",
          "name": "",
          "type": "address"
        }
      ],
      "stateMutability": "view",
      "type": "function"
    },
    {
      "inputs": [],
      "name": "newAddress",
      "outputs": [
        {
          "internalType": "address",
          "name": "",
          "type": "address"
        }
      ],
      "stateMutability": "view",
      "type": "function"
    },
    {
      "inputs": [],
      "name": "numberOfChildren",
      "outputs": [
        {
          "internalType": "uint256",
          "name": "",
          "type": "uint256"
        }
      ],
      "stateMutability": "view",
      "type": "function"
    },
    {
      "inputs": [],
      "name": "pointListTemplate",
      "outputs": [
        {
          "internalType": "address",
          "name": "",
          "type": "address"
        }
      ],
      "stateMutability": "view",
      "type": "function"
    },
    {
      "inputs": [
        {
          "internalType": "address payable",
          "name": "_divaddr",
          "type": "address"
        }
      ],
      "name": "setDividends",
      "outputs": [],
      "stateMutability": "nonpayable",
      "type": "function"
    },
    {
      "inputs": [
        {
          "internalType": "uint256",
          "name": "_minimumFee",
          "type": "uint256"
        }
      ],
      "name": "setMinimumFee",
      "outputs": [],
      "stateMutability": "nonpayable",
      "type": "function"
    },
    {
      "inputs": [
        {
          "internalType": "address",
          "name": "_tokenAddress",
          "type": "address"
        },
        {
          "internalType": "uint256",
          "name": "_tokens",
          "type": "uint256"
        }
      ],
      "name": "transferAnyERC20Token",
      "outputs": [
        {
          "internalType": "bool",
          "name": "success",
          "type": "bool"
        }
      ],
      "stateMutability": "nonpayable",
      "type": "function"
    },
    {
      "stateMutability": "payable",
      "type": "receive"
    }
  ],
  "transactionHash": "0xcee7eb5e2e7a8aea8f0b21efb92e4616368e0f14b38a9a81e61b37e68eb99110",
  "args": [],
  "solcInputHash": "d1b4fa5f316a6a8ee3524e1600e2925f",
  "bytecode": "0x608060405234801561001057600080fd5b50610ec6806100206000396000f3fe6080604052600436106100e15760003560e01c80639e9188ea1161007f578063dc39d06d11610059578063dc39d06d1461035c578063de0946af146103a9578063e9bb4b6b146103dc578063fc91a8971461041f576100eb565b80639e9188ea146102ff578063c9907b0814610332578063ccdb3f4514610347576100eb565b8063534349f5116100bb578063534349f514610296578063726aba7f146102ab578063748365ef146102c057806396102cf4146102d5576100eb565b8063182a7506146100f05780631a7626e71461011c578063424599a314610143576100eb565b366100eb57600080fd5b600080fd5b3480156100fc57600080fd5b5061011a6004803603602081101561011357600080fd5b5035610452565b005b34801561012857600080fd5b50610131610546565b60408051918252519081900360200190f35b61027a6004803603606081101561015957600080fd5b6001600160a01b03823516919081019060408101602082013564010000000081111561018457600080fd5b82018360208201111561019657600080fd5b803590602001918460208302840111640100000000831117156101b857600080fd5b919080806020026020016040519081016040528093929190818152602001838360200280828437600092019190915250929594936020810193503591505064010000000081111561020857600080fd5b82018360208201111561021a57600080fd5b8035906020019184602083028401116401000000008311171561023c57600080fd5b91908080602002602001604051908101604052809392919081815260200183836020028082843760009201919091525092955061054c945050505050565b604080516001600160a01b039092168252519081900360200190f35b3480156102a257600080fd5b506101316108e2565b3480156102b757600080fd5b5061027a6108e8565b3480156102cc57600080fd5b5061027a6108f7565b3480156102e157600080fd5b5061027a600480360360208110156102f857600080fd5b5035610906565b34801561030b57600080fd5b5061011a6004803603602081101561032257600080fd5b50356001600160a01b031661092d565b34801561033e57600080fd5b5061027a610a01565b34801561035357600080fd5b5061027a610a10565b34801561036857600080fd5b506103956004803603604081101561037f57600080fd5b506001600160a01b038135169060200135610a1f565b604080519115158252519081900360200190f35b3480156103b557600080fd5b5061011a600480360360208110156103cc57600080fd5b50356001600160a01b0316610af3565b3480156103e857600080fd5b5061011a600480360360608110156103ff57600080fd5b506001600160a01b03813581169160208101359091169060400135610c19565b34801561042b57600080fd5b506103956004803603602081101561044257600080fd5b50356001600160a01b0316610c9c565b6000546040805163c395fcb360e01b815233600482015290516001600160a01b039092169163c395fcb391602480820192602092909190829003018186803b15801561049d57600080fd5b505afa1580156104b1573d6000803e3d6000fd5b505050506040513d60208110156104c757600080fd5b50516105045760405162461bcd60e51b8152600401808060200182810382526021815260200180610e266021913960400191505060405180910390fd5b600354604080519182526020820183905280517fcc2f49c6214278ae5862935eff953448e8e69118d10abfafaf63ea6aa35255cb9281900390910190a1600355565b60035481565b600060035434101561055d57600080fd5b600154610572906001600160a01b0316610cb1565b835190915015610788576040805163283ba19b60e01b815230600482015290516001600160a01b0383169163283ba19b91602480830192600092919082900301818387803b1580156105c357600080fd5b505af11580156105d7573d6000803e3d6000fd5b50505050806001600160a01b0316639a80c4a184846040518363ffffffff1660e01b8152600401808060200180602001838103835285818151815260200191508051906020019060200280838360005b8381101561063f578181015183820152602001610627565b50505050905001838103825284818151815260200191508051906020019060200280838360005b8381101561067e578181015183820152602001610666565b50505050905001945050505050600060405180830381600087803b1580156106a557600080fd5b505af11580156106b9573d6000803e3d6000fd5b50505050806001600160a01b0316636595171c856040518263ffffffff1660e01b815260040180826001600160a01b03168152602001915050600060405180830381600087803b15801561070c57600080fd5b505af1158015610720573d6000803e3d6000fd5b505060408051630dccfe3160e41b815230600482015290516001600160a01b038516935063dccfe3109250602480830192600092919082900301818387803b15801561076b57600080fd5b505af115801561077f573d6000803e3d6000fd5b505050506107f0565b806001600160a01b031663283ba19b856040518263ffffffff1660e01b815260040180826001600160a01b03168152602001915050600060405180830381600087803b1580156107d757600080fd5b505af11580156107eb573d6000803e3d6000fd5b505050505b6001600160a01b038082166000818152600460209081526040808320805460ff1916600190811790915560058054808301825594527f036b6384b5eca791c62761152d0c79bb0604c104a5fb6f4eb0703f3154bb3db090930180546001600160a01b03191685179055915482519085168152938816908401528051919233927f8a13771d198709940307fb40397206144caf6dfef0f59c2951c91c72e9844454929181900390910190a334156108db576006546040516001600160a01b03909116903480156108fc02916000818181858888f193505050501580156108d9573d6000803e3d6000fd5b505b9392505050565b60055490565b6001546001600160a01b031681565b6000546001600160a01b031681565b6005818154811061091357fe5b6000918252602090912001546001600160a01b0316905081565b6000546040805163c395fcb360e01b815233600482015290516001600160a01b039092169163c395fcb391602480820192602092909190829003018186803b15801561097857600080fd5b505afa15801561098c573d6000803e3d6000fd5b505050506040513d60208110156109a257600080fd5b50516109df5760405162461bcd60e51b8152600401808060200182810382526026815260200180610e6b6026913960400191505060405180910390fd5b600680546001600160a01b0319166001600160a01b0392909216919091179055565b6006546001600160a01b031681565b6002546001600160a01b031681565b600080546040805163c395fcb360e01b815233600482015290516001600160a01b039092169163c395fcb391602480820192602092909190829003018186803b158015610a6b57600080fd5b505afa158015610a7f573d6000803e3d6000fd5b505050506040513d6020811015610a9557600080fd5b5051610ad25760405162461bcd60e51b8152600401808060200182810382526024815260200180610e476024913960400191505060405180910390fd5b600654610aea9084906001600160a01b031684610d03565b50600192915050565b6000546040805163c395fcb360e01b815233600482015290516001600160a01b039092169163c395fcb391602480820192602092909190829003018186803b158015610b3e57600080fd5b505afa158015610b52573d6000803e3d6000fd5b505050506040513d6020811015610b6857600080fd5b5051610ba55760405162461bcd60e51b8152600401808060200182810382526021815260200180610e266021913960400191505060405180910390fd5b6002546001600160a01b031615610bbb57600080fd5b604080516001600160a01b038316815290517f0ac885cfcac9d1450e80f787dbf9546001fb50414106435b10b1d27b448b86689181900360200190a1600280546001600160a01b0319166001600160a01b0392909216919091179055565b600054600160a01b900460ff1615610c3057600080fd5b60008054600180546001600160a01b038681166001600160a01b031992831617909255600385905560ff60a01b1991871692169190911716600160a01b1781556040517fe4bd612963220b47d4b6661bc82c559aaaf0350b0aad4dde4d90ce8b7ea154629190a1505050565b60046020526000908152604090205460ff1681565b6000808260601b9050604051733d602d80600a3d3981f3363d3d373d3d3d363d7360601b81528160148201526e5af43d82803e903d91602b57fd5bf360881b60288201526037816000f0949350505050565b604080516001600160a01b038481166024830152604480830185905283518084039091018152606490920183526020820180516001600160e01b031663a9059cbb60e01b178152925182516000946060949389169392918291908083835b60208310610d805780518252601f199092019160209182019101610d61565b6001836020036101000a0380198251168184511680821785525050505050509050019150506000604051808303816000865af19150503d8060008114610de2576040519150601f19603f3d011682016040523d82523d6000602084013e610de7565b606091505b5091509150818015610e15575080511580610e155750808060200190516020811015610e1257600080fd5b50515b610e1e57600080fd5b505050505056fe4c697374466163746f72793a2053656e646572206d7573742062652061646d696e4c697374466163746f72793a2053656e646572206d757374206265206f70657261746f724d49534f546f6b656e466163746f72793a2053656e646572206d7573742062652041646d696ea26469706673582212202d7806ce0ba5f9dba8df73f81f3189bbf0f6813adad0ccea845510119810dfcd64736f6c634300060c0033",
  "devdoc": {
    "kind": "dev",
    "methods": {
      "deployPointList(address,address[],uint256[])": {
        "params": {
          "_accounts": "An array of account addresses.",
          "_amounts": "An array of corresponding point amounts.",
          "_listOwner": "List owner address."
        },
        "returns": {
          "pointList": "Point list address."
        }
      },
      "deprecateFactory(address)": {
        "params": {
          "_newAddress": "Blank address."
        }
      },
      "initListFactory(address,address,uint256)": {
        "params": {
          "_accessControls": "Access control contract address.",
          "_minimumFee": "Minimum fee number.",
          "_pointListTemplate": "Point list template address."
        }
      },
      "numberOfChildren()": {
        "returns": {
          "_0": "uint Number of point lists."
        }
      },
      "setDividends(address)": {
        "params": {
          "_divaddr": "Dividend address."
        }
      },
      "setMinimumFee(uint256)": {
        "params": {
          "_minimumFee": "Minimum fee number."
        }
      },
      "transferAnyERC20Token(address,uint256)": {
        "params": {
          "_tokenAddress": "Address to send from.",
          "_tokens": "Number of tokens."
        },
        "returns": {
          "success": "True."
        }
      }
    },
    "version": 1
  },
  "userdoc": {
    "events": {
      "FactoryDeprecated(address)": {
        "notice": "Event emitted when factory is deprecated."
      },
      "MinimumFeeUpdated(uint256,uint256)": {
        "notice": "Event emitted when minimum fee is updated."
      },
      "MisoInitListFactory()": {
        "notice": "Event emitted when point list factory is initialised."
      },
      "PointListDeployed(address,address,address,address)": {
        "notice": "Event emitted when point list is deployed."
      }
    },
    "kind": "user",
    "methods": {
      "accessControls()": {
        "notice": "Responsible for access rights to the contract."
      },
      "deployPointList(address,address[],uint256[])": {
        "notice": "Deploys new point list."
      },
      "deprecateFactory(address)": {
        "notice": "Deprecates factory."
      },
      "initListFactory(address,address,uint256)": {
        "notice": "Initializes point list factory variables."
      },
      "isChild(address)": {
        "notice": "Tracks if list is made by the factory."
      },
      "lists(uint256)": {
        "notice": "An array of list addresses."
      },
      "minimumFee()": {
        "notice": "Minimum fee number."
      },
      "misoDiv()": {
        "notice": "Any MISO dividends collected are sent here."
      },
      "newAddress()": {
        "notice": "New point list address."
      },
      "numberOfChildren()": {
        "notice": "Gets the number of point lists created by factory."
      },
      "pointListTemplate()": {
        "notice": "Address of the point list template."
      },
      "setDividends(address)": {
        "notice": "Sets dividend address."
      },
      "setMinimumFee(uint256)": {
        "notice": "Sets minimum fee."
      },
      "transferAnyERC20Token(address,uint256)": {
        "notice": "Funtion for transfering any ERC20 token."
      }
    },
    "version": 1
  },
  "storageLayout": {
    "storage": [
      {
        "astId": 18,
        "contract": "contracts/Access/ListFactory.sol:ListFactory",
        "label": "accessControls",
        "offset": 0,
        "slot": "0",
        "type": "t_contract(MISOAccessControls)563"
      },
      {
        "astId": 21,
        "contract": "contracts/Access/ListFactory.sol:ListFactory",
        "label": "initialised",
        "offset": 20,
        "slot": "0",
        "type": "t_bool"
      },
      {
        "astId": 24,
        "contract": "contracts/Access/ListFactory.sol:ListFactory",
        "label": "pointListTemplate",
        "offset": 0,
        "slot": "1",
        "type": "t_address"
      },
      {
        "astId": 27,
        "contract": "contracts/Access/ListFactory.sol:ListFactory",
        "label": "newAddress",
        "offset": 0,
        "slot": "2",
        "type": "t_address"
      },
      {
        "astId": 30,
        "contract": "contracts/Access/ListFactory.sol:ListFactory",
        "label": "minimumFee",
        "offset": 0,
        "slot": "3",
        "type": "t_uint256"
      },
      {
        "astId": 35,
        "contract": "contracts/Access/ListFactory.sol:ListFactory",
        "label": "isChild",
        "offset": 0,
        "slot": "4",
        "type": "t_mapping(t_address,t_bool)"
      },
      {
        "astId": 39,
        "contract": "contracts/Access/ListFactory.sol:ListFactory",
        "label": "lists",
        "offset": 0,
        "slot": "5",
        "type": "t_array(t_address)dyn_storage"
      },
      {
        "astId": 42,
        "contract": "contracts/Access/ListFactory.sol:ListFactory",
        "label": "misoDiv",
        "offset": 0,
        "slot": "6",
        "type": "t_address_payable"
      }
    ],
    "types": {
      "t_address": {
        "encoding": "inplace",
        "label": "address",
        "numberOfBytes": "20"
      },
      "t_address_payable": {
        "encoding": "inplace",
        "label": "address payable",
        "numberOfBytes": "20"
      },
      "t_array(t_address)dyn_storage": {
        "base": "t_address",
        "encoding": "dynamic_array",
        "label": "address[]",
        "numberOfBytes": "32"
      },
      "t_bool": {
        "encoding": "inplace",
        "label": "bool",
        "numberOfBytes": "1"
      },
      "t_contract(MISOAccessControls)563": {
        "encoding": "inplace",
        "label": "contract MISOAccessControls",
        "numberOfBytes": "20"
      },
      "t_mapping(t_address,t_bool)": {
        "encoding": "mapping",
        "key": "t_address",
        "label": "mapping(address => bool)",
        "numberOfBytes": "32",
        "value": "t_bool"
      },
      "t_uint256": {
        "encoding": "inplace",
        "label": "uint256",
        "numberOfBytes": "32"
      }
    }
  }
}