{
  "address": "0xAea50fa0a2aB411807131ADC10016FE0FfB506b4",
  "abi": [
    {
      "inputs": [
        {
          "internalType": "address",
          "name": "_accessControls",
          "type": "address"
        },
        {
          "internalType": "address",
          "name": "_tokenFactory",
          "type": "address"
        },
        {
          "internalType": "address",
          "name": "_market",
          "type": "address"
        },
        {
          "internalType": "address",
          "name": "_launcher",
          "type": "address"
        },
        {
          "internalType": "address",
          "name": "_farmFactory",
          "type": "address"
        }
      ],
      "stateMutability": "nonpayable",
      "type": "constructor"
    },
    {
      "inputs": [],
      "name": "accessControls",
      "outputs": [
        {
          "internalType": "contract MISOAccessControls",
          "name": "",
          "type": "address"
        }
      ],
      "stateMutability": "view",
      "type": "function"
    },
    {
      "inputs": [
        {
          "internalType": "address",
          "name": "_token",
          "type": "address"
        },
        {
          "internalType": "address",
          "name": "_owner",
          "type": "address"
        },
        {
          "internalType": "address",
          "name": "_spender",
          "type": "address"
        }
      ],
      "name": "allowance",
      "outputs": [
        {
          "internalType": "uint256",
          "name": "",
          "type": "uint256"
        }
      ],
      "stateMutability": "view",
      "type": "function"
    },
    {
      "inputs": [],
      "name": "farmFactory",
      "outputs": [
        {
          "internalType": "contract IMisoFarmFactory",
          "name": "",
          "type": "address"
        }
      ],
      "stateMutability": "view",
      "type": "function"
    },
    {
      "inputs": [
        {
          "internalType": "address payable",
          "name": "_batchAuction",
          "type": "address"
        }
      ],
      "name": "getBatchAuctionInfo",
      "outputs": [
        {
          "components": [
            {
              "internalType": "address",
              "name": "addr",
              "type": "address"
            },
            {
              "internalType": "address",
              "name": "paymentCurrency",
              "type": "address"
            },
            {
              "internalType": "uint64",
              "name": "startTime",
              "type": "uint64"
            },
            {
              "internalType": "uint64",
              "name": "endTime",
              "type": "uint64"
            },
            {
              "internalType": "uint128",
              "name": "totalTokens",
              "type": "uint128"
            },
            {
              "internalType": "uint256",
              "name": "commitmentsTotal",
              "type": "uint256"
            },
            {
              "internalType": "uint256",
              "name": "minimumCommitmentAmount",
              "type": "uint256"
            },
            {
              "internalType": "bool",
              "name": "finalized",
              "type": "bool"
            },
            {
              "internalType": "bool",
              "name": "usePointList",
              "type": "bool"
            },
            {
              "internalType": "bool",
              "name": "auctionSuccessful",
              "type": "bool"
            },
            {
              "components": [
                {
                  "internalType": "address",
                  "name": "addr",
                  "type": "address"
                },
                {
                  "internalType": "uint256",
                  "name": "decimals",
                  "type": "uint256"
                },
                {
                  "internalType": "string",
                  "name": "name",
                  "type": "string"
                },
                {
                  "internalType": "string",
                  "name": "symbol",
                  "type": "string"
                }
              ],
              "internalType": "struct TokenHelper.TokenInfo",
              "name": "tokenInfo",
              "type": "tuple"
            },
            {
              "components": [
                {
                  "internalType": "address",
                  "name": "addr",
                  "type": "address"
                },
                {
                  "internalType": "uint256",
                  "name": "decimals",
                  "type": "uint256"
                },
                {
                  "internalType": "string",
                  "name": "name",
                  "type": "string"
                },
                {
                  "internalType": "string",
                  "name": "symbol",
                  "type": "string"
                }
              ],
              "internalType": "struct TokenHelper.TokenInfo",
              "name": "paymentCurrencyInfo",
              "type": "tuple"
            },
            {
              "components": [
                {
                  "internalType": "string",
                  "name": "name",
                  "type": "string"
                },
                {
                  "internalType": "string",
                  "name": "data",
                  "type": "string"
                },
                {
                  "internalType": "uint256",
                  "name": "lastModified",
                  "type": "uint256"
                }
              ],
              "internalType": "struct DocumentHepler.Document[]",
              "name": "documents",
              "type": "tuple[]"
            }
          ],
          "internalType": "struct MarketHelper.BatchAuctionInfo",
          "name": "",
          "type": "tuple"
        }
      ],
      "stateMutability": "view",
      "type": "function"
    },
    {
      "inputs": [
        {
          "internalType": "address",
          "name": "_crowdsale",
          "type": "address"
        }
      ],
      "name": "getCrowdsaleInfo",
      "outputs": [
        {
          "components": [
            {
              "internalType": "address",
              "name": "addr",
              "type": "address"
            },
            {
              "internalType": "address",
              "name": "paymentCurrency",
              "type": "address"
            },
            {
              "internalType": "uint128",
              "name": "commitmentsTotal",
              "type": "uint128"
            },
            {
              "internalType": "uint128",
              "name": "totalTokens",
              "type": "uint128"
            },
            {
              "internalType": "uint128",
              "name": "rate",
              "type": "uint128"
            },
            {
              "internalType": "uint128",
              "name": "goal",
              "type": "uint128"
            },
            {
              "internalType": "uint64",
              "name": "startTime",
              "type": "uint64"
            },
            {
              "internalType": "uint64",
              "name": "endTime",
              "type": "uint64"
            },
            {
              "internalType": "bool",
              "name": "finalized",
              "type": "bool"
            },
            {
              "internalType": "bool",
              "name": "usePointList",
              "type": "bool"
            },
            {
              "internalType": "bool",
              "name": "auctionSuccessful",
              "type": "bool"
            },
            {
              "components": [
                {
                  "internalType": "address",
                  "name": "addr",
                  "type": "address"
                },
                {
                  "internalType": "uint256",
                  "name": "decimals",
                  "type": "uint256"
                },
                {
                  "internalType": "string",
                  "name": "name",
                  "type": "string"
                },
                {
                  "internalType": "string",
                  "name": "symbol",
                  "type": "string"
                }
              ],
              "internalType": "struct TokenHelper.TokenInfo",
              "name": "tokenInfo",
              "type": "tuple"
            },
            {
              "components": [
                {
                  "internalType": "address",
                  "name": "addr",
                  "type": "address"
                },
                {
                  "internalType": "uint256",
                  "name": "decimals",
                  "type": "uint256"
                },
                {
                  "internalType": "string",
                  "name": "name",
                  "type": "string"
                },
                {
                  "internalType": "string",
                  "name": "symbol",
                  "type": "string"
                }
              ],
              "internalType": "struct TokenHelper.TokenInfo",
              "name": "paymentCurrencyInfo",
              "type": "tuple"
            },
            {
              "components": [
                {
                  "internalType": "string",
                  "name": "name",
                  "type": "string"
                },
                {
                  "internalType": "string",
                  "name": "data",
                  "type": "string"
                },
                {
                  "internalType": "uint256",
                  "name": "lastModified",
                  "type": "uint256"
                }
              ],
              "internalType": "struct DocumentHepler.Document[]",
              "name": "documents",
              "type": "tuple[]"
            }
          ],
          "internalType": "struct MarketHelper.CrowdsaleInfo",
          "name": "",
          "type": "tuple"
        }
      ],
      "stateMutability": "view",
      "type": "function"
    },
    {
      "inputs": [
        {
          "internalType": "address",
          "name": "_document",
          "type": "address"
        }
      ],
      "name": "getDocuments",
      "outputs": [
        {
          "components": [
            {
              "internalType": "string",
              "name": "name",
              "type": "string"
            },
            {
              "internalType": "string",
              "name": "data",
              "type": "string"
            },
            {
              "internalType": "uint256",
              "name": "lastModified",
              "type": "uint256"
            }
          ],
          "internalType": "struct DocumentHepler.Document[]",
          "name": "",
          "type": "tuple[]"
        }
      ],
      "stateMutability": "view",
      "type": "function"
    },
    {
      "inputs": [
        {
          "internalType": "address payable",
          "name": "_dutchAuction",
          "type": "address"
        }
      ],
      "name": "getDutchAuctionInfo",
      "outputs": [
        {
          "components": [
            {
              "internalType": "address",
              "name": "addr",
              "type": "address"
            },
            {
              "internalType": "address",
              "name": "paymentCurrency",
              "type": "address"
            },
            {
              "internalType": "uint64",
              "name": "startTime",
              "type": "uint64"
            },
            {
              "internalType": "uint64",
              "name": "endTime",
              "type": "uint64"
            },
            {
              "internalType": "uint128",
              "name": "totalTokens",
              "type": "uint128"
            },
            {
              "internalType": "uint128",
              "name": "startPrice",
              "type": "uint128"
            },
            {
              "internalType": "uint128",
              "name": "minimumPrice",
              "type": "uint128"
            },
            {
              "internalType": "uint128",
              "name": "commitmentsTotal",
              "type": "uint128"
            },
            {
              "internalType": "bool",
              "name": "finalized",
              "type": "bool"
            },
            {
              "internalType": "bool",
              "name": "usePointList",
              "type": "bool"
            },
            {
              "internalType": "bool",
              "name": "auctionSuccessful",
              "type": "bool"
            },
            {
              "components": [
                {
                  "internalType": "address",
                  "name": "addr",
                  "type": "address"
                },
                {
                  "internalType": "uint256",
                  "name": "decimals",
                  "type": "uint256"
                },
                {
                  "internalType": "string",
                  "name": "name",
                  "type": "string"
                },
                {
                  "internalType": "string",
                  "name": "symbol",
                  "type": "string"
                }
              ],
              "internalType": "struct TokenHelper.TokenInfo",
              "name": "tokenInfo",
              "type": "tuple"
            },
            {
              "components": [
                {
                  "internalType": "address",
                  "name": "addr",
                  "type": "address"
                },
                {
                  "internalType": "uint256",
                  "name": "decimals",
                  "type": "uint256"
                },
                {
                  "internalType": "string",
                  "name": "name",
                  "type": "string"
                },
                {
                  "internalType": "string",
                  "name": "symbol",
                  "type": "string"
                }
              ],
              "internalType": "struct TokenHelper.TokenInfo",
              "name": "paymentCurrencyInfo",
              "type": "tuple"
            },
            {
              "components": [
                {
                  "internalType": "string",
                  "name": "name",
                  "type": "string"
                },
                {
                  "internalType": "string",
                  "name": "data",
                  "type": "string"
                },
                {
                  "internalType": "uint256",
                  "name": "lastModified",
                  "type": "uint256"
                }
              ],
              "internalType": "struct DocumentHepler.Document[]",
              "name": "documents",
              "type": "tuple[]"
            }
          ],
          "internalType": "struct MarketHelper.DutchAuctionInfo",
          "name": "",
          "type": "tuple"
        }
      ],
      "stateMutability": "view",
      "type": "function"
    },
    {
      "inputs": [
        {
          "internalType": "address",
          "name": "_farm",
          "type": "address"
        },
        {
          "internalType": "address",
          "name": "_user",
          "type": "address"
        }
      ],
      "name": "getFarmDetail",
      "outputs": [
        {
          "components": [
            {
              "internalType": "address",
              "name": "addr",
              "type": "address"
            },
            {
              "internalType": "uint256",
              "name": "templateId",
              "type": "uint256"
            },
            {
              "internalType": "uint256",
              "name": "rewardsPerBlock",
              "type": "uint256"
            },
            {
              "internalType": "uint256",
              "name": "bonusMultiplier",
              "type": "uint256"
            },
            {
              "components": [
                {
                  "internalType": "address",
                  "name": "addr",
                  "type": "address"
                },
                {
                  "internalType": "uint256",
                  "name": "decimals",
                  "type": "uint256"
                },
                {
                  "internalType": "string",
                  "name": "name",
                  "type": "string"
                },
                {
                  "internalType": "string",
                  "name": "symbol",
                  "type": "string"
                }
              ],
              "internalType": "struct TokenHelper.TokenInfo",
              "name": "rewardToken",
              "type": "tuple"
            },
            {
              "components": [
                {
                  "internalType": "address",
                  "name": "lpToken",
                  "type": "address"
                },
                {
                  "internalType": "uint256",
                  "name": "allocPoint",
                  "type": "uint256"
                },
                {
                  "internalType": "uint256",
                  "name": "lastRewardBlock",
                  "type": "uint256"
                },
                {
                  "internalType": "uint256",
                  "name": "accRewardsPerShare",
                  "type": "uint256"
                },
                {
                  "internalType": "uint256",
                  "name": "totalStaked",
                  "type": "uint256"
                },
                {
                  "components": [
                    {
                      "internalType": "address",
                      "name": "addr",
                      "type": "address"
                    },
                    {
                      "internalType": "uint256",
                      "name": "decimals",
                      "type": "uint256"
                    },
                    {
                      "internalType": "string",
                      "name": "name",
                      "type": "string"
                    },
                    {
                      "internalType": "string",
                      "name": "symbol",
                      "type": "string"
                    }
                  ],
                  "internalType": "struct TokenHelper.TokenInfo",
                  "name": "stakingToken",
                  "type": "tuple"
                }
              ],
              "internalType": "struct FarmHelper.PoolInfo[]",
              "name": "pools",
              "type": "tuple[]"
            }
          ],
          "internalType": "struct FarmHelper.FarmInfo",
          "name": "farmInfo",
          "type": "tuple"
        },
        {
          "components": [
            {
              "internalType": "address",
              "name": "farm",
              "type": "address"
            },
            {
              "internalType": "uint256",
              "name": "pid",
              "type": "uint256"
            },
            {
              "internalType": "uint256",
              "name": "totalStaked",
              "type": "uint256"
            },
            {
              "internalType": "uint256",
              "name": "lpBalance",
              "type": "uint256"
            },
            {
              "internalType": "uint256",
              "name": "lpAllowance",
              "type": "uint256"
            },
            {
              "internalType": "uint256",
              "name": "rewardDebt",
              "type": "uint256"
            },
            {
              "internalType": "uint256",
              "name": "pendingRewards",
              "type": "uint256"
            }
          ],
          "internalType": "struct FarmHelper.UserPoolInfo[]",
          "name": "userInfos",
          "type": "tuple[]"
        }
      ],
      "stateMutability": "view",
      "type": "function"
    },
    {
      "inputs": [],
      "name": "getFarms",
      "outputs": [
        {
          "components": [
            {
              "internalType": "address",
              "name": "addr",
              "type": "address"
            },
            {
              "internalType": "uint256",
              "name": "templateId",
              "type": "uint256"
            },
            {
              "internalType": "uint256",
              "name": "rewardsPerBlock",
              "type": "uint256"
            },
            {
              "internalType": "uint256",
              "name": "bonusMultiplier",
              "type": "uint256"
            },
            {
              "components": [
                {
                  "internalType": "address",
                  "name": "addr",
                  "type": "address"
                },
                {
                  "internalType": "uint256",
                  "name": "decimals",
                  "type": "uint256"
                },
                {
                  "internalType": "string",
                  "name": "name",
                  "type": "string"
                },
                {
                  "internalType": "string",
                  "name": "symbol",
                  "type": "string"
                }
              ],
              "internalType": "struct TokenHelper.TokenInfo",
              "name": "rewardToken",
              "type": "tuple"
            },
            {
              "components": [
                {
                  "internalType": "address",
                  "name": "lpToken",
                  "type": "address"
                },
                {
                  "internalType": "uint256",
                  "name": "allocPoint",
                  "type": "uint256"
                },
                {
                  "internalType": "uint256",
                  "name": "lastRewardBlock",
                  "type": "uint256"
                },
                {
                  "internalType": "uint256",
                  "name": "accRewardsPerShare",
                  "type": "uint256"
                },
                {
                  "internalType": "uint256",
                  "name": "totalStaked",
                  "type": "uint256"
                },
                {
                  "components": [
                    {
                      "internalType": "address",
                      "name": "addr",
                      "type": "address"
                    },
                    {
                      "internalType": "uint256",
                      "name": "decimals",
                      "type": "uint256"
                    },
                    {
                      "internalType": "string",
                      "name": "name",
                      "type": "string"
                    },
                    {
                      "internalType": "string",
                      "name": "symbol",
                      "type": "string"
                    }
                  ],
                  "internalType": "struct TokenHelper.TokenInfo",
                  "name": "stakingToken",
                  "type": "tuple"
                }
              ],
              "internalType": "struct FarmHelper.PoolInfo[]",
              "name": "pools",
              "type": "tuple[]"
            }
          ],
          "internalType": "struct FarmHelper.FarmInfo[]",
          "name": "",
          "type": "tuple[]"
        }
      ],
      "stateMutability": "view",
      "type": "function"
    },
    {
      "inputs": [
        {
          "internalType": "address payable",
          "name": "_hyperbolicAuction",
          "type": "address"
        }
      ],
      "name": "getHyperbolicAuctionInfo",
      "outputs": [
        {
          "components": [
            {
              "internalType": "address",
              "name": "addr",
              "type": "address"
            },
            {
              "internalType": "address",
              "name": "paymentCurrency",
              "type": "address"
            },
            {
              "internalType": "uint64",
              "name": "startTime",
              "type": "uint64"
            },
            {
              "internalType": "uint64",
              "name": "endTime",
              "type": "uint64"
            },
            {
              "internalType": "uint128",
              "name": "totalTokens",
              "type": "uint128"
            },
            {
              "internalType": "uint128",
              "name": "minimumPrice",
              "type": "uint128"
            },
            {
              "internalType": "uint128",
              "name": "alpha",
              "type": "uint128"
            },
            {
              "internalType": "uint128",
              "name": "commitmentsTotal",
              "type": "uint128"
            },
            {
              "internalType": "bool",
              "name": "finalized",
              "type": "bool"
            },
            {
              "internalType": "bool",
              "name": "usePointList",
              "type": "bool"
            },
            {
              "internalType": "bool",
              "name": "auctionSuccessful",
              "type": "bool"
            },
            {
              "components": [
                {
                  "internalType": "address",
                  "name": "addr",
                  "type": "address"
                },
                {
                  "internalType": "uint256",
                  "name": "decimals",
                  "type": "uint256"
                },
                {
                  "internalType": "string",
                  "name": "name",
                  "type": "string"
                },
                {
                  "internalType": "string",
                  "name": "symbol",
                  "type": "string"
                }
              ],
              "internalType": "struct TokenHelper.TokenInfo",
              "name": "tokenInfo",
              "type": "tuple"
            },
            {
              "components": [
                {
                  "internalType": "address",
                  "name": "addr",
                  "type": "address"
                },
                {
                  "internalType": "uint256",
                  "name": "decimals",
                  "type": "uint256"
                },
                {
                  "internalType": "string",
                  "name": "name",
                  "type": "string"
                },
                {
                  "internalType": "string",
                  "name": "symbol",
                  "type": "string"
                }
              ],
              "internalType": "struct TokenHelper.TokenInfo",
              "name": "paymentCurrencyInfo",
              "type": "tuple"
            },
            {
              "components": [
                {
                  "internalType": "string",
                  "name": "name",
                  "type": "string"
                },
                {
                  "internalType": "string",
                  "name": "data",
                  "type": "string"
                },
                {
                  "internalType": "uint256",
                  "name": "lastModified",
                  "type": "uint256"
                }
              ],
              "internalType": "struct DocumentHepler.Document[]",
              "name": "documents",
              "type": "tuple[]"
            }
          ],
          "internalType": "struct MarketHelper.HyperbolicAuctionInfo",
          "name": "",
          "type": "tuple"
        }
      ],
      "stateMutability": "view",
      "type": "function"
    },
    {
      "inputs": [],
      "name": "getMarkets",
      "outputs": [
        {
          "components": [
            {
              "internalType": "address",
              "name": "addr",
              "type": "address"
            },
            {
              "internalType": "uint64",
              "name": "templateId",
              "type": "uint64"
            },
            {
              "internalType": "uint64",
              "name": "startTime",
              "type": "uint64"
            },
            {
              "internalType": "uint64",
              "name": "endTime",
              "type": "uint64"
            },
            {
              "internalType": "bool",
              "name": "finalized",
              "type": "bool"
            },
            {
              "components": [
                {
                  "internalType": "address",
                  "name": "addr",
                  "type": "address"
                },
                {
                  "internalType": "uint256",
                  "name": "decimals",
                  "type": "uint256"
                },
                {
                  "internalType": "string",
                  "name": "name",
                  "type": "string"
                },
                {
                  "internalType": "string",
                  "name": "symbol",
                  "type": "string"
                }
              ],
              "internalType": "struct TokenHelper.TokenInfo",
              "name": "tokenInfo",
              "type": "tuple"
            }
          ],
          "internalType": "struct MarketHelper.MarketBaseInfo[]",
          "name": "",
          "type": "tuple[]"
        }
      ],
      "stateMutability": "view",
      "type": "function"
    },
    {
      "inputs": [
        {
          "internalType": "address",
          "name": "_farm",
          "type": "address"
        }
      ],
      "name": "getPools",
      "outputs": [
        {
          "components": [
            {
              "internalType": "address",
              "name": "lpToken",
              "type": "address"
            },
            {
              "internalType": "uint256",
              "name": "allocPoint",
              "type": "uint256"
            },
            {
              "internalType": "uint256",
              "name": "lastRewardBlock",
              "type": "uint256"
            },
            {
              "internalType": "uint256",
              "name": "accRewardsPerShare",
              "type": "uint256"
            },
            {
              "internalType": "uint256",
              "name": "totalStaked",
              "type": "uint256"
            },
            {
              "components": [
                {
                  "internalType": "address",
                  "name": "addr",
                  "type": "address"
                },
                {
                  "internalType": "uint256",
                  "name": "decimals",
                  "type": "uint256"
                },
                {
                  "internalType": "string",
                  "name": "name",
                  "type": "string"
                },
                {
                  "internalType": "string",
                  "name": "symbol",
                  "type": "string"
                }
              ],
              "internalType": "struct TokenHelper.TokenInfo",
              "name": "stakingToken",
              "type": "tuple"
            }
          ],
          "internalType": "struct FarmHelper.PoolInfo[]",
          "name": "",
          "type": "tuple[]"
        }
      ],
      "stateMutability": "view",
      "type": "function"
    },
    {
      "inputs": [
        {
          "internalType": "address",
          "name": "_address",
          "type": "address"
        }
      ],
      "name": "getTokenInfo",
      "outputs": [
        {
          "components": [
            {
              "internalType": "address",
              "name": "addr",
              "type": "address"
            },
            {
              "internalType": "uint256",
              "name": "decimals",
              "type": "uint256"
            },
            {
              "internalType": "string",
              "name": "name",
              "type": "string"
            },
            {
              "internalType": "string",
              "name": "symbol",
              "type": "string"
            }
          ],
          "internalType": "struct TokenHelper.TokenInfo",
          "name": "",
          "type": "tuple"
        }
      ],
      "stateMutability": "view",
      "type": "function"
    },
    {
      "inputs": [],
      "name": "getTokens",
      "outputs": [
        {
          "components": [
            {
              "internalType": "address",
              "name": "addr",
              "type": "address"
            },
            {
              "internalType": "uint256",
              "name": "decimals",
              "type": "uint256"
            },
            {
              "internalType": "string",
              "name": "name",
              "type": "string"
            },
            {
              "internalType": "string",
              "name": "symbol",
              "type": "string"
            }
          ],
          "internalType": "struct TokenHelper.TokenInfo[]",
          "name": "",
          "type": "tuple[]"
        }
      ],
      "stateMutability": "view",
      "type": "function"
    },
    {
      "inputs": [
        {
          "internalType": "address[]",
          "name": "addresses",
          "type": "address[]"
        }
      ],
      "name": "getTokensInfo",
      "outputs": [
        {
          "components": [
            {
              "internalType": "address",
              "name": "addr",
              "type": "address"
            },
            {
              "internalType": "uint256",
              "name": "decimals",
              "type": "uint256"
            },
            {
              "internalType": "string",
              "name": "name",
              "type": "string"
            },
            {
              "internalType": "string",
              "name": "symbol",
              "type": "string"
            }
          ],
          "internalType": "struct TokenHelper.TokenInfo[]",
          "name": "",
          "type": "tuple[]"
        }
      ],
      "stateMutability": "view",
      "type": "function"
    },
    {
      "inputs": [
        {
          "internalType": "address",
          "name": "_action",
          "type": "address"
        },
        {
          "internalType": "address",
          "name": "_user",
          "type": "address"
        }
      ],
      "name": "getUserMarketInfo",
      "outputs": [
        {
          "components": [
            {
              "internalType": "uint256",
              "name": "commitments",
              "type": "uint256"
            },
            {
              "internalType": "uint256",
              "name": "tokensClaimable",
              "type": "uint256"
            },
            {
              "internalType": "uint256",
              "name": "claimed",
              "type": "uint256"
            },
            {
              "internalType": "bool",
              "name": "isAdmin",
              "type": "bool"
            }
          ],
          "internalType": "struct MarketHelper.UserMarketInfo",
          "name": "userInfo",
          "type": "tuple"
        }
      ],
      "stateMutability": "view",
      "type": "function"
    },
    {
      "inputs": [
        {
          "internalType": "address",
          "name": "_user",
          "type": "address"
        }
      ],
      "name": "getUserPoolsInfos",
      "outputs": [
        {
          "components": [
            {
              "internalType": "address",
              "name": "farm",
              "type": "address"
            },
            {
              "internalType": "uint256[]",
              "name": "pids",
              "type": "uint256[]"
            },
            {
              "internalType": "uint256[]",
              "name": "totalStaked",
              "type": "uint256[]"
            },
            {
              "internalType": "uint256[]",
              "name": "pendingRewards",
              "type": "uint256[]"
            }
          ],
          "internalType": "struct FarmHelper.UserPoolsInfo[]",
          "name": "",
          "type": "tuple[]"
        }
      ],
      "stateMutability": "view",
      "type": "function"
    },
    {
      "inputs": [],
      "name": "launcher",
      "outputs": [
        {
          "internalType": "address",
          "name": "",
          "type": "address"
        }
      ],
      "stateMutability": "view",
      "type": "function"
    },
    {
      "inputs": [],
      "name": "market",
      "outputs": [
        {
          "internalType": "contract IMisoMarketFactory",
          "name": "",
          "type": "address"
        }
      ],
      "stateMutability": "view",
      "type": "function"
    },
    {
      "inputs": [
        {
          "internalType": "address",
          "name": "_tokenFactory",
          "type": "address"
        },
        {
          "internalType": "address",
          "name": "_market",
          "type": "address"
        },
        {
          "internalType": "address",
          "name": "_launcher",
          "type": "address"
        },
        {
          "internalType": "address",
          "name": "_farmFactory",
          "type": "address"
        }
      ],
      "name": "setContracts",
      "outputs": [],
      "stateMutability": "nonpayable",
      "type": "function"
    },
    {
      "inputs": [],
      "name": "tokenFactory",
      "outputs": [
        {
          "internalType": "contract IMisoTokenFactory",
          "name": "",
          "type": "address"
        }
      ],
      "stateMutability": "view",
      "type": "function"
    }
  ],
  "transactionHash": "0xe2af58691ba9a87e58dc5df01263e9d6669b80805035c33b4540f33a5ac1ce22",
  "args": [
    "0xe5aa0215da6BDdA22127aF00A305d67bB06494d4",
    "0x1eC9e6f1aDF139A41B94d2590078103f7b8a09DD",
    "0x9d6c60d26B8f776B85d5731AD56b88973C3D370b",
    "0x77185e48DdC269B2d7D3b2938Df5862f8e601E0f",
    "0xC5cF1bdf2b4c03Ea53dbA6a529cbE7bF0bE65c0a"
  ],
  "solcInputHash": "d1b4fa5f316a6a8ee3524e1600e2925f",
  "bytecode": "0x60806040523480156200001157600080fd5b50604051620040a1380380620040a18339810160408190526200003491620000ab565b6001600160a01b0385166200004857600080fd5b600480546001600160a01b03199081166001600160a01b0397881617909155600180548216958716959095179094556000805485169386169390931790925560038054841691851691909117905560028054909216921691909117905562000143565b600080600080600060a08688031215620000c3578081fd5b8551620000d0816200012a565b6020870151909550620000e3816200012a565b6040870151909450620000f6816200012a565b606087015190935062000109816200012a565b60808701519092506200011c816200012a565b809150509295509295909350565b6001600160a01b03811681146200014057600080fd5b50565b613f4e80620001536000396000f3fe608060405234801561001057600080fd5b50600436106101375760003560e01c80635c39f467116100b8578063927da1051161007c578063927da105146102c65780639dc4ac8a146102e6578063aa6ca808146102fb578063bf989b6e14610303578063e77772fe14610318578063ec2c90161461032057610137565b80635c39f4671461027b5780636306377d1461029b5780636d25e175146102ae578063748365ef146102b657806380f55605146102be57610137565b806327f50a2d116100ff57806327f50a2d146101da578063372cfb93146101fa5780633c74720c1461021a57806346a0fe471461023a57806356468ddf1461025a57610137565b80630cbf4ba71461013c578063156ec6811461016557806316eebd1e14610185578063193d13621461019a5780631f69565f146101ba575b600080fd5b61014f61014a366004612fef565b610335565b60405161015c9190613a44565b60405180910390f35b610178610173366004612fef565b61085d565b60405161015c9190613d56565b61018d610ca1565b60405161015c9190613846565b6101ad6101a8366004612fef565b610cb0565b60405161015c9190613b32565b6101cd6101c8366004612fef565b61102d565b60405161015c9190613df7565b6101ed6101e8366004612fef565b6111c3565b60405161015c9190613874565b61020d61020836600461302e565b611407565b60405161015c9190613e0a565b61022d610228366004612fef565b61161d565b60405161015c9190613c3f565b61024d6102483660046131a1565b611940565b60405161015c91906139f1565b61026d61026836600461302e565b6119e5565b60405161015c929190613d69565b61028e610289366004612fef565b611f49565b60405161015c91906139de565b6101786102a9366004612fef565b61220c565b61018d61225f565b61018d61226e565b61018d61227d565b6102d96102d4366004613066565b61228c565b60405161015c9190613e37565b6102ee612315565b60405161015c91906138d4565b61024d612704565b6103166103113660046130b0565b6127b0565b005b61018d612906565b610328612915565b60405161015c9190613927565b60606000600260009054906101000a90046001600160a01b03166001600160a01b0316638f5185e86040518163ffffffff1660e01b815260040160206040518083038186803b15801561038757600080fd5b505afa15801561039b573d6000803e3d6000fd5b505050506040513d601f19601f820116820180604052508101906103bf91906133ca565b90506060816001600160401b03811180156103d957600080fd5b5060405190808252806020026020018201604052801561041357816020015b610400612cd3565b8152602001906001900390816103f85790505b50905060005b8281101561085557600254604051633ed2387560e11b81526000916001600160a01b031690637da470ea90610452908590600401613e37565b60206040518083038186803b15801561046a57600080fd5b505afa15801561047e573d6000803e3d6000fd5b505050506040513d601f19601f820116820180604052508101906104a29190613012565b905060008190506000816001600160a01b031663081e3eda6040518163ffffffff1660e01b815260040160206040518083038186803b1580156104e457600080fd5b505afa1580156104f8573d6000803e3d6000fd5b505050506040513d601f19601f8201168201806040525081019061051c91906133ca565b90506060816001600160401b038111801561053657600080fd5b50604051908082528060200260200182016040528015610560578160200160208202803683370190505b5090506060826001600160401b038111801561057b57600080fd5b506040519080825280602002602001820160405280156105a5578160200160208202803683370190505b5090506060836001600160401b03811180156105c057600080fd5b506040519080825280602002602001820160405280156105ea578160200160208202803683370190505b50905060005b848110156107c957604051631526fe2760e01b81526000906001600160a01b03881690631526fe2790610627908590600401613e37565b60806040518083038186803b15801561063f57600080fd5b505afa158015610653573d6000803e3d6000fd5b505050506040513d601f19601f82011682018060405250810190610677919061310b565b5050509050866001600160a01b03166393f1a40b838f6040518363ffffffff1660e01b81526004016106aa929190613e40565b604080518083038186803b1580156106c157600080fd5b505afa1580156106d5573d6000803e3d6000fd5b505050506040513d601f19601f820116820180604052508101906106f991906133e2565b5085838151811061070657fe5b602002602001018181525050866001600160a01b031663d18df53c838f6040518363ffffffff1660e01b8152600401610740929190613e40565b60206040518083038186803b15801561075857600080fd5b505afa15801561076c573d6000803e3d6000fd5b505050506040513d601f19601f8201168201806040525081019061079091906133ca565b84838151811061079c57fe5b602002602001018181525050818383815181106107b557fe5b6020908102919091010152506001016105f0565b50828888815181106107d757fe5b602002602001015160400181905250818888815181106107f357fe5b6020026020010151606001819052508088888151811061080f57fe5b6020026020010151602001819052508588888151811061082b57fe5b60209081029190910101516001600160a01b03909116905250506001909401935061041992505050565b509392505050565b610865612d04565b8161086e612d04565b6001600160a01b03821680825260408051633d15cc6d60e01b81529051633d15cc6d91600480820192602092909190829003018186803b1580156108b157600080fd5b505afa1580156108c5573d6000803e3d6000fd5b505050506040513d601f19601f820116820180604052508101906108e99190613012565b81602001906001600160a01b031690816001600160a01b031681525050816001600160a01b031663031bee006040518163ffffffff1660e01b815260040160606040518083038186803b15801561093f57600080fd5b505afa158015610953573d6000803e3d6000fd5b505050506040513d601f19601f82011682018060405250810190610977919061344d565b6001600160801b031660808401526001600160401b0390811660608401521660408083019190915280516308b42a7160e31b815281516001600160a01b038516926345a153889260048082019391829003018186803b1580156109d957600080fd5b505afa1580156109ed573d6000803e3d6000fd5b505050506040513d601f19601f82011682018060405250810190610a11919061339c565b6001600160801b0390811660c08401521660a0820152604080516336d0054b60e01b815290516001600160a01b038416916336d0054b916004808301926020929190829003018186803b158015610a6757600080fd5b505afa158015610a7b573d6000803e3d6000fd5b505050506040513d601f19601f82011682018060405250810190610a9f91906132c9565b15156101408201526040805163e0e081d760e01b815290516001600160a01b0384169163e0e081d7916004808301926060929190829003018186803b158015610ae757600080fd5b505afa158015610afb573d6000803e3d6000fd5b505050506040513d601f19601f82011682018060405250810190610b1f919061335b565b151561012084015215156101008301526001600160801b031660e0820152604080516304cfed9960e51b81529051610bba916001600160a01b038516916399fdb32091600480820192602092909190829003018186803b158015610b8257600080fd5b505afa158015610b96573d6000803e3d6000fd5b505050506040513d601f19601f820116820180604052508101906101c89190613012565b8161016001819052506000826001600160a01b0316633d15cc6d6040518163ffffffff1660e01b815260040160206040518083038186803b158015610bfe57600080fd5b505afa158015610c12573d6000803e3d6000fd5b505050506040513d601f19601f82011682018060405250810190610c369190613012565b9050610c40612d84565b6001600160a01b03821673eeeeeeeeeeeeeeeeeeeeeeeeeeeeeeeeeeeeeeee1415610c7457610c6d612c63565b9050610c80565b610c7d8261102d565b90505b6101808301819052610c91866111c3565b6101a08401525090949350505050565b6003546001600160a01b031681565b610cb8612db5565b81610cc1612db5565b6001600160a01b03821680825260408051633d15cc6d60e01b81529051633d15cc6d91600480820192602092909190829003018186803b158015610d0457600080fd5b505afa158015610d18573d6000803e3d6000fd5b505050506040513d601f19601f82011682018060405250810190610d3c9190613012565b81602001906001600160a01b031690816001600160a01b031681525050816001600160a01b031663031bee006040518163ffffffff1660e01b815260040160606040518083038186803b158015610d9257600080fd5b505afa158015610da6573d6000803e3d6000fd5b505050506040513d601f19601f82011682018060405250810190610dca919061344d565b6001600160801b031660808401526001600160401b0390811660608401521660408083019190915280516336d0054b60e01b815290516001600160a01b038416916336d0054b916004808301926020929190829003018186803b158015610e3057600080fd5b505afa158015610e44573d6000803e3d6000fd5b505050506040513d601f19601f82011682018060405250810190610e6891906132c9565b15156101208201526040805163e0e081d760e01b815290516001600160a01b0384169163e0e081d7916004808301926080929190829003018186803b158015610eb057600080fd5b505afa158015610ec4573d6000803e3d6000fd5b505050506040513d601f19601f82011682018060405250810190610ee89190613405565b1515610100850152151560e084015260c083015260a0820152604080516304cfed9960e51b81529051610f46916001600160a01b038516916399fdb32091600480820192602092909190829003018186803b158015610b8257600080fd5b8161014001819052506000826001600160a01b0316633d15cc6d6040518163ffffffff1660e01b815260040160206040518083038186803b158015610f8a57600080fd5b505afa158015610f9e573d6000803e3d6000fd5b505050506040513d601f19601f82011682018060405250810190610fc29190613012565b9050610fcc612d84565b6001600160a01b03821673eeeeeeeeeeeeeeeeeeeeeeeeeeeeeeeeeeeeeeee141561100057610ff9612c63565b905061100c565b6110098261102d565b90505b610160830181905261101d866111c3565b6101808401525090949350505050565b611035612d84565b61103d612d84565b6001600160a01b038316808252604080516306fdde0360e01b815290518592916306fdde03916004808301926000929190829003018186803b15801561108257600080fd5b505afa158015611096573d6000803e3d6000fd5b505050506040513d6000823e601f3d908101601f191682016040526110be91908101906132e5565b8260400181905250806001600160a01b03166395d89b416040518163ffffffff1660e01b815260040160006040518083038186803b1580156110ff57600080fd5b505afa158015611113573d6000803e3d6000fd5b505050506040513d6000823e601f3d908101601f1916820160405261113b91908101906132e5565b8260600181905250806001600160a01b031663313ce5676040518163ffffffff1660e01b815260040160206040518083038186803b15801561117c57600080fd5b505afa158015611190573d6000803e3d6000fd5b505050506040513d601f19601f820116820180604052508101906111b4919061348e565b60ff1660208301525092915050565b606060008290506000816001600160a01b0316633d1c22736040518163ffffffff1660e01b815260040160206040518083038186803b15801561120557600080fd5b505afa158015611219573d6000803e3d6000fd5b505050506040513d601f19601f8201168201806040525081019061123d91906133ca565b90506060816001600160401b038111801561125757600080fd5b5060405190808252806020026020018201604052801561129157816020015b61127e612e13565b8152602001906001900390816112765790505b50905060005b828110156113fe5760405163635aa3f360e11b81526060906001600160a01b0386169063c6b547e6906112ce908590600401613e37565b60006040518083038186803b1580156112e657600080fd5b505afa1580156112fa573d6000803e3d6000fd5b505050506040513d6000823e601f3d908101601f1916820160405261132291908101906132e5565b604051631f32da9960e21b81529091506001600160a01b03861690637ccb6a6490611351908490600401613aea565b60006040518083038186803b15801561136957600080fd5b505afa15801561137d573d6000803e3d6000fd5b505050506040513d6000823e601f3d908101601f191682016040526113a59190810190613317565b8484815181106113b157fe5b60200260200101516020018585815181106113c857fe5b6020026020010151604001828152508290525050808383815181106113e957fe5b60209081029190910101515250600101611297565b50949350505050565b61140f612e34565b60405163e8fcf72360e01b815283906001600160a01b0382169063e8fcf7239061143d908690600401613846565b60206040518083038186803b15801561145557600080fd5b505afa158015611469573d6000803e3d6000fd5b505050506040513d601f19601f8201168201806040525081019061148d91906133ca565b8252604051634dc80e1560e01b81526001600160a01b03821690634dc80e15906114bb908690600401613846565b60206040518083038186803b1580156114d357600080fd5b505afa1580156114e7573d6000803e3d6000fd5b505050506040513d601f19601f8201168201806040525081019061150b91906133ca565b602083015260405163c884ef8360e01b81526001600160a01b0382169063c884ef839061153c908690600401613846565b60206040518083038186803b15801561155457600080fd5b505afa158015611568573d6000803e3d6000fd5b505050506040513d601f19601f8201168201806040525081019061158c91906133ca565b6040808401919091525163c395fcb360e01b81526001600160a01b0382169063c395fcb3906115bf908690600401613846565b60206040518083038186803b1580156115d757600080fd5b505afa1580156115eb573d6000803e3d6000fd5b505050506040513d601f19601f8201168201806040525081019061160f91906132c9565b151560608301525092915050565b611625612d04565b8161162e612d04565b6001600160a01b03821680825260408051633d15cc6d60e01b81529051633d15cc6d91600480820192602092909190829003018186803b15801561167157600080fd5b505afa158015611685573d6000803e3d6000fd5b505050506040513d601f19601f820116820180604052508101906116a99190613012565b81602001906001600160a01b031690816001600160a01b031681525050816001600160a01b031663e0e081d76040518163ffffffff1660e01b815260040160606040518083038186803b1580156116ff57600080fd5b505afa158015611713573d6000803e3d6000fd5b505050506040513d601f19601f82011682018060405250810190611737919061335b565b151561012084015215156101008301526001600160801b0316604080830191909152805162018df760e91b815290516001600160a01b0384169163031bee00916004808301926060929190829003018186803b15801561179657600080fd5b505afa1580156117aa573d6000803e3d6000fd5b505050506040513d601f19601f820116820180604052508101906117ce919061344d565b6001600160801b031660608401526001600160401b0390811660e08401521660c0820152604080516308b42a7160e31b815281516001600160a01b038516926345a153889260048082019391829003018186803b15801561182e57600080fd5b505afa158015611842573d6000803e3d6000fd5b505050506040513d601f19601f82011682018060405250810190611866919061339c565b6001600160801b0390811660a0840152166080820152604080516336d0054b60e01b815290516001600160a01b038416916336d0054b916004808301926020929190829003018186803b1580156118bc57600080fd5b505afa1580156118d0573d6000803e3d6000fd5b505050506040513d601f19601f820116820180604052508101906118f491906132c9565b81610140019015159081151581525050610bba826001600160a01b03166399fdb3206040518163ffffffff1660e01b815260040160206040518083038186803b158015610b8257600080fd5b60608082516001600160401b038111801561195a57600080fd5b5060405190808252806020026020018201604052801561199457816020015b611981612d84565b8152602001906001900390816119795790505b50905060005b83518110156119de576119bf8482815181106119b257fe5b602002602001015161102d565b8282815181106119cb57fe5b602090810291909101015260010161199a565b5092915050565b6119ed612e5e565b6001600160a01b03808416825260025460405163699af5ed60e11b81526060928692169063d335ebda90611a25908490600401613846565b60206040518083038186803b158015611a3d57600080fd5b505afa158015611a51573d6000803e3d6000fd5b505050506040513d601f19601f82011682018060405250810190611a7591906133ca565b836020018181525050806001600160a01b0316635eeb67106040518163ffffffff1660e01b815260040160206040518083038186803b158015611ab757600080fd5b505afa158015611acb573d6000803e3d6000fd5b505050506040513d601f19601f82011682018060405250810190611aef91906133ca565b836040018181525050806001600160a01b031663a8b973a16040518163ffffffff1660e01b815260040160206040518083038186803b158015611b3157600080fd5b505afa158015611b45573d6000803e3d6000fd5b505050506040513d601f19601f82011682018060405250810190611b6991906133ca565b836060018181525050611bae816001600160a01b0316639ec5a8946040518163ffffffff1660e01b815260040160206040518083038186803b158015610b8257600080fd5b6080840152611bbc85611f49565b60a08401526001600160a01b03841615611f415760a083015180516001600160401b0381118015611bec57600080fd5b50604051908082528060200260200182016040528015611c2657816020015b611c13612e96565b815260200190600190039081611c0b5790505b50925060005b8151811015611f3e57611c3d612e96565b848281518110611c4957fe5b602002602001015190506000838381518110611c6157fe5b602002602001015160a00151600001519050846001600160a01b03166393f1a40b848a6040518363ffffffff1660e01b8152600401611ca1929190613e40565b604080518083038186803b158015611cb857600080fd5b505afa158015611ccc573d6000803e3d6000fd5b505050506040513d601f19601f82011682018060405250810190611cf091906133e2565b60a0840152604080840191909152516370a0823160e01b81526001600160a01b038216906370a0823190611d28908b90600401613846565b60206040518083038186803b158015611d4057600080fd5b505afa158015611d54573d6000803e3d6000fd5b505050506040513d601f19601f82011682018060405250810190611d7891906133ca565b6060830152604051636eb1769f60e11b81526001600160a01b0382169063dd62ed3e90611dab908b908d9060040161385a565b60206040518083038186803b158015611dc357600080fd5b505afa158015611dd7573d6000803e3d6000fd5b505050506040513d601f19601f82011682018060405250810190611dfb91906133ca565b60808301526040516334637d4f60e21b81526001600160a01b0386169063d18df53c90611e2e9086908c90600401613e40565b60206040518083038186803b158015611e4657600080fd5b505afa158015611e5a573d6000803e3d6000fd5b505050506040513d601f19601f82011682018060405250810190611e7e91906133ca565b60c08301526040516393f1a40b60e01b81526001600160a01b038616906393f1a40b90611eb19086908c90600401613e40565b604080518083038186803b158015611ec857600080fd5b505afa158015611edc573d6000803e3d6000fd5b505050506040513d601f19601f82011682018060405250810190611f0091906133e2565b5060408301526001600160a01b03891682526020820183905285518290879085908110611f2957fe5b60209081029190910101525050600101611c2c565b50505b509250929050565b606060008290506000816001600160a01b031663081e3eda6040518163ffffffff1660e01b815260040160206040518083038186803b158015611f8b57600080fd5b505afa158015611f9f573d6000803e3d6000fd5b505050506040513d601f19601f82011682018060405250810190611fc391906133ca565b90506060816001600160401b0381118015611fdd57600080fd5b5060405190808252806020026020018201604052801561201757816020015b612004612edc565b815260200190600190039081611ffc5790505b50905060005b828110156113fe57604051631526fe2760e01b81526001600160a01b03851690631526fe2790612051908490600401613e37565b60806040518083038186803b15801561206957600080fd5b505afa15801561207d573d6000803e3d6000fd5b505050506040513d601f19601f820116820180604052508101906120a1919061310b565b8585815181106120ad57fe5b60200260200101516000018686815181106120c457fe5b60200260200101516020018787815181106120db57fe5b60200260200101516040018888815181106120f257fe5b602090810291909101015160600193909352929091529190526001600160a01b039091169052815182908290811061212657fe5b6020026020010151600001516001600160a01b03166370a08231876040518263ffffffff1660e01b815260040161215d9190613846565b60206040518083038186803b15801561217557600080fd5b505afa158015612189573d6000803e3d6000fd5b505050506040513d601f19601f820116820180604052508101906121ad91906133ca565b8282815181106121b957fe5b602002602001015160800181815250506121e98282815181106121d857fe5b60200260200101516000015161102d565b8282815181106121f557fe5b602090810291909101015160a0015260010161201d565b612214612d04565b8161221d612d04565b6001600160a01b0382168082526040805162018df760e91b8152905163031bee0091600480820192606092909190829003018186803b15801561093f57600080fd5b6002546001600160a01b031681565b6004546001600160a01b031681565b6000546001600160a01b031681565b604051636eb1769f60e11b81526000906001600160a01b0385169063dd62ed3e906122bd908690869060040161385a565b60206040518083038186803b1580156122d557600080fd5b505afa1580156122e9573d6000803e3d6000fd5b505050506040513d601f19601f8201168201806040525081019061230d91906133ca565b949350505050565b60606000600260009054906101000a90046001600160a01b03166001600160a01b0316638f5185e86040518163ffffffff1660e01b815260040160206040518083038186803b15801561236757600080fd5b505afa15801561237b573d6000803e3d6000fd5b505050506040513d601f19601f8201168201806040525081019061239f91906133ca565b90506060816001600160401b03811180156123b957600080fd5b506040519080825280602002602001820160405280156123f357816020015b6123e0612e5e565b8152602001906001900390816123d85790505b50905060005b828110156126fd57600254604051633ed2387560e11b81526000916001600160a01b031690637da470ea90612432908590600401613e37565b60206040518083038186803b15801561244a57600080fd5b505afa15801561245e573d6000803e3d6000fd5b505050506040513d601f19601f820116820180604052508101906124829190613012565b60025460405163699af5ed60e11b81529192506000916001600160a01b039091169063d335ebda906124b8908590600401613846565b60206040518083038186803b1580156124d057600080fd5b505afa1580156124e4573d6000803e3d6000fd5b505050506040513d601f19601f8201168201806040525081019061250891906133ca565b905060008290508085858151811061251c57fe5b6020026020010151600001906001600160a01b031690816001600160a01b0316815250508185858151811061254d57fe5b60200260200101516020018181525050806001600160a01b0316635eeb67106040518163ffffffff1660e01b815260040160206040518083038186803b15801561259657600080fd5b505afa1580156125aa573d6000803e3d6000fd5b505050506040513d601f19601f820116820180604052508101906125ce91906133ca565b8585815181106125da57fe5b60200260200101516040018181525050806001600160a01b031663a8b973a16040518163ffffffff1660e01b815260040160206040518083038186803b15801561262357600080fd5b505afa158015612637573d6000803e3d6000fd5b505050506040513d601f19601f8201168201806040525081019061265b91906133ca565b85858151811061266757fe5b602002602001015160600181815250506126b3816001600160a01b0316639ec5a8946040518163ffffffff1660e01b815260040160206040518083038186803b158015610b8257600080fd5b8585815181106126bf57fe5b6020026020010151608001819052506126d783611f49565b8585815181106126e357fe5b602090810291909101015160a001525050506001016123f9565b5091505090565b606080600160009054906101000a90046001600160a01b03166001600160a01b031663aa6ca8086040518163ffffffff1660e01b815260040160006040518083038186803b15801561275557600080fd5b505afa158015612769573d6000803e3d6000fd5b505050506040513d6000823e601f3d908101601f19168201604052612791919081019061323d565b9050606061279e82611940565b90506127a982611940565b9250505090565b6004805460405163c395fcb360e01b81526001600160a01b039091169163c395fcb3916127df91339101613846565b60206040518083038186803b1580156127f757600080fd5b505afa15801561280b573d6000803e3d6000fd5b505050506040513d601f19601f8201168201806040525081019061282f91906132c9565b6128545760405162461bcd60e51b815260040161284b90613afd565b60405180910390fd5b6001600160a01b0383161561287f57600080546001600160a01b0319166001600160a01b0385161790555b6001600160a01b038416156128aa57600180546001600160a01b0319166001600160a01b0386161790555b6001600160a01b038216156128d557600380546001600160a01b0319166001600160a01b0384161790555b6001600160a01b0381161561290057600280546001600160a01b0319166001600160a01b0383161790555b50505050565b6001546001600160a01b031681565b6000805460408051637616480b60e11b8152905160609384936001600160a01b03169263ec2c90169260048083019392829003018186803b15801561295957600080fd5b505afa15801561296d573d6000803e3d6000fd5b505050506040513d6000823e601f3d908101601f19168201604052612995919081019061323d565b9050606081516001600160401b03811180156129b057600080fd5b506040519080825280602002602001820160405280156129ea57816020015b6129d7612f20565b8152602001906001900390816129cf5790505b50905060005b82518110156126fd576000805484516001600160a01b039091169063b034349390869085908110612a1d57fe5b60200260200101516040518263ffffffff1660e01b8152600401612a419190613846565b60206040518083038186803b158015612a5957600080fd5b505afa158015612a6d573d6000803e3d6000fd5b505050506040513d601f19601f82011682018060405250810190612a919190613432565b9050600080600080878681518110612aa557fe5b60200260200101516001600160a01b031663314148e26040518163ffffffff1660e01b815260040160806040518083038186803b158015612ae557600080fd5b505afa158015612af9573d6000803e3d6000fd5b505050506040513d601f19601f82011682018060405250810190612b1d9190613149565b92965090945092509050612b2f612d84565b612b388561102d565b9050888781518110612b4657fe5b6020026020010151888881518110612b5a57fe5b6020026020010151600001906001600160a01b031690816001600160a01b03168152505085888881518110612b8b57fe5b6020026020010151602001906001600160401b031690816001600160401b03168152505083888881518110612bbc57fe5b6020026020010151604001906001600160401b031690816001600160401b03168152505082888881518110612bed57fe5b6020026020010151606001906001600160401b031690816001600160401b03168152505081888881518110612c1e57fe5b6020026020010151608001901515908115158152505080888881518110612c4157fe5b602002602001015160a0018190525050505050505080806001019150506129f0565b612c6b612d84565b73eeeeeeeeeeeeeeeeeeeeeeeeeeeeeeeeeeeeeeee81526040805180820182526008815267455448455245554d60c01b602080830191909152828401919091528151808301909252600382526208aa8960eb1b82820152606083019190915260129082015290565b604051806080016040528060006001600160a01b031681526020016060815260200160608152602001606081525090565b604080516101c081018252600080825260208201819052918101829052606081018290526080810182905260a0810182905260c0810182905260e08101829052610100810182905261012081018290526101408101919091526101608101612d6a612d84565b8152602001612d77612d84565b8152602001606081525090565b604051806080016040528060006001600160a01b031681526020016000815260200160608152602001606081525090565b604080516101a081018252600080825260208201819052918101829052606081018290526080810182905260a0810182905260c0810182905260e0810182905261010081018290526101208101919091526101408101612d6a612d84565b60405180606001604052806060815260200160608152602001600081525090565b60405180608001604052806000815260200160008152602001600081526020016000151581525090565b6040518060c0016040528060006001600160a01b03168152602001600081526020016000815260200160008152602001612d77612d84565b6040518060e0016040528060006001600160a01b031681526020016000815260200160008152602001600081526020016000815260200160008152602001600081525090565b6040518060c0016040528060006001600160a01b0316815260200160008152602001600081526020016000815260200160008152602001612f1b612d84565b905290565b6040805160c08101825260008082526020820181905291810182905260608101829052608081019190915260a08101612f1b612d84565b8035612f6281613ec8565b92915050565b80518015158114612f6257600080fd5b600082601f830112612f88578081fd5b81516001600160401b03811115612f9d578182fd5b612fb0601f8201601f1916602001613e57565b9150808252836020828501011115612fc757600080fd5b6119de816020840160208601613e9c565b80516001600160401b0381168114612f6257600080fd5b600060208284031215613000578081fd5b813561300b81613ec8565b9392505050565b600060208284031215613023578081fd5b815161300b81613ec8565b60008060408385031215613040578081fd5b823561304b81613ec8565b9150602083013561305b81613ec8565b809150509250929050565b60008060006060848603121561307a578081fd5b833561308581613ec8565b9250602084013561309581613ec8565b915060408401356130a581613ec8565b809150509250925092565b600080600080608085870312156130c5578081fd5b84356130d081613ec8565b935060208501356130e081613ec8565b925060408501356130f081613ec8565b9150606085013561310081613ec8565b939692955090935050565b60008060008060808587031215613120578384fd5b845161312b81613ec8565b60208601516040870151606090970151919890975090945092505050565b6000806000806080858703121561315e578384fd5b845161316981613ec8565b93506131788660208701612fd8565b92506131878660408701612fd8565b91506131968660608701612f68565b905092959194509250565b600060208083850312156131b3578182fd5b82356001600160401b038111156131c8578283fd5b8301601f810185136131d8578283fd5b80356131eb6131e682613e7d565b613e57565b8181528381019083850185840285018601891015613207578687fd5b8694505b838510156132315761321d8982612f57565b83526001949094019391850191850161320b565b50979650505050505050565b6000602080838503121561324f578182fd5b82516001600160401b03811115613264578283fd5b8301601f81018513613274578283fd5b80516132826131e682613e7d565b818152838101908385018584028501860189101561329e578687fd5b8694505b838510156132315780516132b581613ec8565b8352600194909401939185019185016132a2565b6000602082840312156132da578081fd5b815161300b81613ee0565b6000602082840312156132f6578081fd5b81516001600160401b0381111561330b578182fd5b61230d84828501612f78565b60008060408385031215613329578182fd5b82516001600160401b0381111561333e578283fd5b61334a85828601612f78565b925050602083015190509250929050565b60008060006060848603121561336f578081fd5b835161337a81613eee565b602085015190935061338b81613ee0565b60408501519092506130a581613ee0565b600080604083850312156133ae578182fd5b82516133b981613eee565b602084015190925061305b81613eee565b6000602082840312156133db578081fd5b5051919050565b600080604083850312156133f4578182fd5b505080516020909101519092909150565b6000806000806080858703121561341a578182fd5b84519350602085015192506131878660408701612f68565b600060208284031215613443578081fd5b61300b8383612fd8565b600080600060608486031215613461578081fd5b835161346c81613f03565b602085015190935061347d81613f03565b60408501519092506130a581613eee565b60006020828403121561349f578081fd5b815160ff8116811461300b578182fd5b60008151606084526134c46060850182613621565b9050602083015184820360208601526134dd8282613621565b915050604083015160408501528091505092915050565b6001600160a01b03169052565b6000815180845260208085018081965082840281019150828601855b858110156135475782840389526135358483516134af565b9885019893509084019060010161351d565b5091979650505050505050565b6000815180845260208085018081965082840281019150828601855b85811015613547578284038952815180516001600160a01b03168552858101518686015260408082015190860152606080820151908601526080808201519086015260a09081015160c0918601829052906135cd818701836137e2565b9a87019a9550505090840190600101613570565b6000815180845260208085019450808401835b83811015613610578151875295820195908201906001016135f4565b509495945050505050565b15159052565b60008151808452613639816020860160208601613e9c565b601f01601f19169290920160200192915050565b60006101c061365d8484516134f4565b602083015161366f60208601826134f4565b5060408301516136826040860182613839565b5060608301516136956060860182613839565b5060808301516136a8608086018261382c565b5060a08301516136bb60a086018261382c565b5060c08301516136ce60c086018261382c565b5060e08301516136e160e086018261382c565b50610100808401516136f58287018261361b565b50506101208084015161370a8287018261361b565b50506101408084015161371f8287018261361b565b5050610160808401518282870152613739838701826137e2565b92505050610180808401518583038287015261375583826137e2565b925050506101a080840151858303828701526137718382613501565b9695505050505050565b600060018060a01b038251168352602082015160208401526040820151604084015260608201516060840152608082015160c060808501526137c060c08501826137e2565b905060a083015184820360a08601526137d98282613554565b95945050505050565b600060018060a01b038251168352602082015160208401526040820151608060408501526138136080850182613621565b9050606083015184820360608601526137d98282613621565b6001600160801b03169052565b6001600160401b03169052565b6001600160a01b0391909116815260200190565b6001600160a01b0392831681529116602082015260400190565b6000602080830181845280855180835260408601915060408482028701019250838701855b828110156138c757603f198886030184526138b58583516134af565b94509285019290850190600101613899565b5092979650505050505050565b6000602080830181845280855180835260408601915060408482028701019250838701855b828110156138c757603f1988860301845261391585835161377b565b945092850192908501906001016138f9565b60208082528251828201819052600091906040908185019080840286018301878501865b838110156139d057888303603f19018552815180516001600160a01b03168452878101516001600160401b0390811689860152878201518116888601526060808301519091169085015260808082015115159085015260a09081015160c0918501829052906139bc818601836137e2565b96890196945050509086019060010161394b565b509098975050505050505050565b60006020825261300b6020830184613554565b6000602080830181845280855180835260408601915060408482028701019250838701855b828110156138c757603f19888603018452613a328583516137e2565b94509285019290850190600101613a16565b60208082528251828201819052600091906040908185019080840286018301878501865b838110156139d057888303603f19018552815180516001600160a01b0316845287810151608089860181905290613aa1828701826135e1565b9150508782015185820389870152613ab982826135e1565b91505060608083015192508582038187015250613ad681836135e1565b968901969450505090860190600101613a68565b60006020825261300b6020830184613621565b6020808252818101527f4d49534f48656c7065723a2053656e646572206d7573742062652041646d696e604082015260600190565b600060208252613b466020830184516134f4565b6020830151613b5860408401826134f4565b506040830151613b6b6060840182613839565b506060830151613b7e6080840182613839565b506080830151613b9160a084018261382c565b5060a083015160c083015260c083015160e083015260e0830151610100613bba8185018361361b565b8401519050610120613bce8482018361361b565b8401519050610140613be28482018361361b565b808501519150506101a06101608181860152613c026101c08601846137e2565b9250808601519050601f19610180818786030181880152613c2385846137e2565b9088015187820390920184880152935090506137718382613501565b600060208252613c536020830184516134f4565b6020830151613c6560408401826134f4565b506040830151613c78606084018261382c565b506060830151613c8b608084018261382c565b506080830151613c9e60a084018261382c565b5060a0830151613cb160c084018261382c565b5060c0830151613cc460e0840182613839565b5060e0830151610100613cd981850183613839565b8401519050610120613ced8482018361361b565b8401519050610140613d018482018361361b565b8401519050610160613d158482018361361b565b808501519150506101c06101808181860152613d356101e08601846137e2565b9250808601519050601f196101a0818786030181880152613c2385846137e2565b60006020825261300b602083018461364d565b60006040808352613d7c8184018661377b565b838103602085810191909152855180835286820192820190855b818110156139d057845180516001600160a01b0316845284810151858501528681015187850152606080820151908501526080808201519085015260a0808201519085015260c090810151908401529383019360e090920191600101613d96565b60006020825261300b60208301846137e2565b81518152602080830151908201526040808301519082015260609182015115159181019190915260800190565b90815260200190565b9182526001600160a01b0316602082015260400190565b6040518181016001600160401b0381118282101715613e7557600080fd5b604052919050565b60006001600160401b03821115613e92578081fd5b5060209081020190565b60005b83811015613eb7578181015183820152602001613e9f565b838111156129005750506000910152565b6001600160a01b0381168114613edd57600080fd5b50565b8015158114613edd57600080fd5b6001600160801b0381168114613edd57600080fd5b6001600160401b0381168114613edd57600080fdfea2646970667358221220a2aa14b6aac232a4a54a745058e776274c17d78e8caf4f6047651adcf60642e464736f6c634300060c0033",
  "devdoc": {
    "kind": "dev",
    "methods": {},
    "version": 1
  },
  "userdoc": {
    "kind": "user",
    "methods": {
      "accessControls()": {
        "notice": "Responsible for access rights to the contract"
      }
    },
    "version": 1
  },
  "storageLayout": {
    "storage": [
      {
        "astId": 8704,
        "contract": "contracts/Helper/MISOHelper.sol:MISOHelper",
        "label": "market",
        "offset": 0,
        "slot": "0",
        "type": "t_contract(IMisoMarketFactory)9518"
      },
      {
        "astId": 8706,
        "contract": "contracts/Helper/MISOHelper.sol:MISOHelper",
        "label": "tokenFactory",
        "offset": 0,
        "slot": "1",
        "type": "t_contract(IMisoTokenFactory)8577"
      },
      {
        "astId": 8708,
        "contract": "contracts/Helper/MISOHelper.sol:MISOHelper",
        "label": "farmFactory",
        "offset": 0,
        "slot": "2",
        "type": "t_contract(IMisoFarmFactory)8809"
      },
      {
        "astId": 8710,
        "contract": "contracts/Helper/MISOHelper.sol:MISOHelper",
        "label": "launcher",
        "offset": 0,
        "slot": "3",
        "type": "t_address"
      },
      {
        "astId": 8713,
        "contract": "contracts/Helper/MISOHelper.sol:MISOHelper",
        "label": "accessControls",
        "offset": 0,
        "slot": "4",
        "type": "t_contract(MISOAccessControls)563"
      }
    ],
    "types": {
      "t_address": {
        "encoding": "inplace",
        "label": "address",
        "numberOfBytes": "20"
      },
      "t_contract(IMisoFarmFactory)8809": {
        "encoding": "inplace",
        "label": "contract IMisoFarmFactory",
        "numberOfBytes": "20"
      },
      "t_contract(IMisoMarketFactory)9518": {
        "encoding": "inplace",
        "label": "contract IMisoMarketFactory",
        "numberOfBytes": "20"
      },
      "t_contract(IMisoTokenFactory)8577": {
        "encoding": "inplace",
        "label": "contract IMisoTokenFactory",
        "numberOfBytes": "20"
      },
      "t_contract(MISOAccessControls)563": {
        "encoding": "inplace",
        "label": "contract MISOAccessControls",
        "numberOfBytes": "20"
      }
    }
  }
}