{
  "address": "0x31e789Eb325aB116997942f7809731197a3dc059",
  "abi": [
    {
      "inputs": [
        {
          "internalType": "contract ENS",
          "name": "_ens",
          "type": "address"
        }
      ],
      "stateMutability": "nonpayable",
      "type": "constructor"
    },
    {
      "anonymous": false,
      "inputs": [
        {
          "indexed": true,
          "internalType": "address",
          "name": "controller",
          "type": "address"
        },
        {
          "indexed": false,
          "internalType": "bool",
          "name": "enabled",
          "type": "bool"
        }
      ],
      "name": "ControllerChanged",
      "type": "event"
    },
    {
      "anonymous": false,
      "inputs": [
        {
          "indexed": true,
          "internalType": "address",
          "name": "previousOwner",
          "type": "address"
        },
        {
          "indexed": true,
          "internalType": "address",
          "name": "newOwner",
          "type": "address"
        }
      ],
      "name": "OwnershipTransferred",
      "type": "event"
    },
    {
      "anonymous": false,
      "inputs": [
        {
          "indexed": true,
          "internalType": "bytes32",
          "name": "label",
          "type": "bytes32"
        }
      ],
      "name": "TLDLocked",
      "type": "event"
    },
    {
      "inputs": [
        {
          "internalType": "address",
          "name": "",
          "type": "address"
        }
      ],
      "name": "controllers",
      "outputs": [
        {
          "internalType": "bool",
          "name": "",
          "type": "bool"
        }
      ],
      "stateMutability": "view",
      "type": "function"
    },
    {
      "inputs": [],
      "name": "ens",
      "outputs": [
        {
          "internalType": "contract ENS",
          "name": "",
          "type": "address"
        }
      ],
      "stateMutability": "view",
      "type": "function"
    },
    {
      "inputs": [
        {
          "internalType": "bytes32",
          "name": "label",
          "type": "bytes32"
        }
      ],
      "name": "lock",
      "outputs": [],
      "stateMutability": "nonpayable",
      "type": "function"
    },
    {
      "inputs": [
        {
          "internalType": "bytes32",
          "name": "",
          "type": "bytes32"
        }
      ],
      "name": "locked",
      "outputs": [
        {
          "internalType": "bool",
          "name": "",
          "type": "bool"
        }
      ],
      "stateMutability": "view",
      "type": "function"
    },
    {
      "inputs": [],
      "name": "owner",
      "outputs": [
        {
          "internalType": "address",
          "name": "",
          "type": "address"
        }
      ],
      "stateMutability": "view",
      "type": "function"
    },
    {
      "inputs": [],
      "name": "renounceOwnership",
      "outputs": [],
      "stateMutability": "nonpayable",
      "type": "function"
    },
    {
      "inputs": [
        {
          "internalType": "address",
          "name": "controller",
          "type": "address"
        },
        {
          "internalType": "bool",
          "name": "enabled",
          "type": "bool"
        }
      ],
      "name": "setController",
      "outputs": [],
      "stateMutability": "nonpayable",
      "type": "function"
    },
    {
      "inputs": [
        {
          "internalType": "address",
          "name": "resolver",
          "type": "address"
        }
      ],
      "name": "setResolver",
      "outputs": [],
      "stateMutability": "nonpayable",
      "type": "function"
    },
    {
      "inputs": [
        {
          "internalType": "bytes32",
          "name": "label",
          "type": "bytes32"
        },
        {
          "internalType": "address",
          "name": "owner",
          "type": "address"
        }
      ],
      "name": "setSubnodeOwner",
      "outputs": [],
      "stateMutability": "nonpayable",
      "type": "function"
    },
    {
      "inputs": [
        {
          "internalType": "bytes4",
          "name": "interfaceID",
          "type": "bytes4"
        }
      ],
      "name": "supportsInterface",
      "outputs": [
        {
          "internalType": "bool",
          "name": "",
          "type": "bool"
        }
      ],
      "stateMutability": "pure",
      "type": "function"
    },
    {
      "inputs": [
        {
          "internalType": "address",
          "name": "newOwner",
          "type": "address"
        }
      ],
      "name": "transferOwnership",
      "outputs": [],
      "stateMutability": "nonpayable",
      "type": "function"
    }
  ],
  "transactionHash": "0xc3437c766e475166db108bb1da1aa6b2763eaebb63c7d6e3cd26f98ef246d7c0",
  "args": [
    "0x00000000000C2E074eC69A0dFb2997BA6C7d2e1e"
  ],
  "solcInputHash": "a50cca78b1bed5d39e9ebe70f5371ee9",
  "bytecode": "0x60806040523480156200001157600080fd5b506040516200119b3803806200119b83398181016040528101906200003791906200014e565b6000620000496200012f60201b60201c565b9050806000806101000a81548173ffffffffffffffffffffffffffffffffffffffff021916908373ffffffffffffffffffffffffffffffffffffffff1602179055508073ffffffffffffffffffffffffffffffffffffffff16600073ffffffffffffffffffffffffffffffffffffffff167f8be0079c531659141344cd1fd0a4f28419497f9722a3daafe3b4186f6b6457e060405160405180910390a35080600260006101000a81548173ffffffffffffffffffffffffffffffffffffffff021916908373ffffffffffffffffffffffffffffffffffffffff16021790555050620001dc565b600033905090565b6000815190506200014881620001c2565b92915050565b6000602082840312156200016157600080fd5b6000620001718482850162000137565b91505092915050565b60006200018782620001a2565b9050919050565b60006200019b826200017a565b9050919050565b600073ffffffffffffffffffffffffffffffffffffffff82169050919050565b620001cd816200018e565b8114620001d957600080fd5b50565b610faf80620001ec6000396000f3fe608060405234801561001057600080fd5b50600436106100a95760003560e01c80638cb8ecec116100715780638cb8ecec1461013e5780638da5cb5b1461015a578063cbe9e76414610178578063da8c229e146101a8578063e0dba60f146101d8578063f2fde38b146101f4576100a9565b806301670ba9146100ae57806301ffc9a7146100ca5780633f15457f146100fa5780634e543b2614610118578063715018a614610134575b600080fd5b6100c860048036038101906100c39190610b40565b610210565b005b6100e460048036038101906100df9190610bce565b6102e8565b6040516100f19190610cb7565b60405180910390f35b610102610352565b60405161010f9190610d32565b60405180910390f35b610132600480360381019061012d9190610adb565b610378565b005b61013c610489565b005b61015860048036038101906101539190610b92565b6105c3565b005b610162610733565b60405161016f9190610c9c565b60405180910390f35b610192600480360381019061018d9190610b40565b61075c565b60405161019f9190610cb7565b60405180910390f35b6101c260048036038101906101bd9190610adb565b61077c565b6040516101cf9190610cb7565b60405180910390f35b6101f260048036038101906101ed9190610b04565b61079c565b005b61020e60048036038101906102099190610adb565b6108c1565b005b610218610a6a565b73ffffffffffffffffffffffffffffffffffffffff16610236610733565b73ffffffffffffffffffffffffffffffffffffffff161461028c576040517f08c379a000000000000000000000000000000000000000000000000000000000815260040161028390610d8d565b60405180910390fd5b807f1764176cfa565853ba1ded547a830a9f9bff95231ef6fd228b3ddd617577756960405160405180910390a260016003600083815260200190815260200160002060006101000a81548160ff02191690831515021790555050565b60007f01ffc9a7a5cef8baa21ed3c5c0d7e23accb804b619e9333b597f47a0d84076e27bffffffffffffffffffffffffffffffffffffffffffffffffffffffff1916827bffffffffffffffffffffffffffffffffffffffffffffffffffffffff1916149050919050565b600260009054906101000a900473ffffffffffffffffffffffffffffffffffffffff1681565b610380610a6a565b73ffffffffffffffffffffffffffffffffffffffff1661039e610733565b73ffffffffffffffffffffffffffffffffffffffff16146103f4576040517f08c379a00000000000000000000000000000000000000000000000000000000081526004016103eb90610d8d565b60405180910390fd5b600260009054906101000a900473ffffffffffffffffffffffffffffffffffffffff1673ffffffffffffffffffffffffffffffffffffffff16631896f70a6000801b836040518363ffffffff1660e01b8152600401610454929190610cd2565b600060405180830381600087803b15801561046e57600080fd5b505af1158015610482573d6000803e3d6000fd5b5050505050565b610491610a6a565b73ffffffffffffffffffffffffffffffffffffffff166104af610733565b73ffffffffffffffffffffffffffffffffffffffff1614610505576040517f08c379a00000000000000000000000000000000000000000000000000000000081526004016104fc90610d8d565b60405180910390fd5b600073ffffffffffffffffffffffffffffffffffffffff1660008054906101000a900473ffffffffffffffffffffffffffffffffffffffff1673ffffffffffffffffffffffffffffffffffffffff167f8be0079c531659141344cd1fd0a4f28419497f9722a3daafe3b4186f6b6457e060405160405180910390a360008060006101000a81548173ffffffffffffffffffffffffffffffffffffffff021916908373ffffffffffffffffffffffffffffffffffffffff160217905550565b600160003373ffffffffffffffffffffffffffffffffffffffff1673ffffffffffffffffffffffffffffffffffffffff16815260200190815260200160002060009054906101000a900460ff1661064f576040517f08c379a000000000000000000000000000000000000000000000000000000000815260040161064690610d6d565b60405180910390fd5b6003600083815260200190815260200160002060009054906101000a900460ff161561067a57600080fd5b600260009054906101000a900473ffffffffffffffffffffffffffffffffffffffff1673ffffffffffffffffffffffffffffffffffffffff166306ab59236000801b84846040518463ffffffff1660e01b81526004016106dc93929190610cfb565b602060405180830381600087803b1580156106f657600080fd5b505af115801561070a573d6000803e3d6000fd5b505050506040513d601f19601f8201168201806040525081019061072e9190610b69565b505050565b60008060009054906101000a900473ffffffffffffffffffffffffffffffffffffffff16905090565b60036020528060005260406000206000915054906101000a900460ff1681565b60016020528060005260406000206000915054906101000a900460ff1681565b6107a4610a6a565b73ffffffffffffffffffffffffffffffffffffffff166107c2610733565b73ffffffffffffffffffffffffffffffffffffffff1614610818576040517f08c379a000000000000000000000000000000000000000000000000000000000815260040161080f90610d8d565b60405180910390fd5b80600160008473ffffffffffffffffffffffffffffffffffffffff1673ffffffffffffffffffffffffffffffffffffffff16815260200190815260200160002060006101000a81548160ff0219169083151502179055508173ffffffffffffffffffffffffffffffffffffffff167f4c97694570a07277810af7e5669ffd5f6a2d6b74b6e9a274b8b870fd5114cf87826040516108b59190610cb7565b60405180910390a25050565b6108c9610a6a565b73ffffffffffffffffffffffffffffffffffffffff166108e7610733565b73ffffffffffffffffffffffffffffffffffffffff161461093d576040517f08c379a000000000000000000000000000000000000000000000000000000000815260040161093490610d8d565b60405180910390fd5b600073ffffffffffffffffffffffffffffffffffffffff168173ffffffffffffffffffffffffffffffffffffffff1614156109ad576040517f08c379a00000000000000000000000000000000000000000000000000000000081526004016109a490610d4d565b60405180910390fd5b8073ffffffffffffffffffffffffffffffffffffffff1660008054906101000a900473ffffffffffffffffffffffffffffffffffffffff1673ffffffffffffffffffffffffffffffffffffffff167f8be0079c531659141344cd1fd0a4f28419497f9722a3daafe3b4186f6b6457e060405160405180910390a3806000806101000a81548173ffffffffffffffffffffffffffffffffffffffff021916908373ffffffffffffffffffffffffffffffffffffffff16021790555050565b600033905090565b600081359050610a8181610f1d565b92915050565b600081359050610a9681610f34565b92915050565b600081359050610aab81610f4b565b92915050565b600081519050610ac081610f4b565b92915050565b600081359050610ad581610f62565b92915050565b600060208284031215610aed57600080fd5b6000610afb84828501610a72565b91505092915050565b60008060408385031215610b1757600080fd5b6000610b2585828601610a72565b9250506020610b3685828601610a87565b9150509250929050565b600060208284031215610b5257600080fd5b6000610b6084828501610a9c565b91505092915050565b600060208284031215610b7b57600080fd5b6000610b8984828501610ab1565b91505092915050565b60008060408385031215610ba557600080fd5b6000610bb385828601610a9c565b9250506020610bc485828601610a72565b9150509250929050565b600060208284031215610be057600080fd5b6000610bee84828501610ac6565b91505092915050565b610c0081610dbe565b82525050565b610c0f81610dd0565b82525050565b610c1e81610ddc565b82525050565b610c2d81610e32565b82525050565b6000610c40602683610dad565b9150610c4b82610e56565b604082019050919050565b6000610c63602883610dad565b9150610c6e82610ea5565b604082019050919050565b6000610c86602083610dad565b9150610c9182610ef4565b602082019050919050565b6000602082019050610cb16000830184610bf7565b92915050565b6000602082019050610ccc6000830184610c06565b92915050565b6000604082019050610ce76000830185610c15565b610cf46020830184610bf7565b9392505050565b6000606082019050610d106000830186610c15565b610d1d6020830185610c15565b610d2a6040830184610bf7565b949350505050565b6000602082019050610d476000830184610c24565b92915050565b60006020820190508181036000830152610d6681610c33565b9050919050565b60006020820190508181036000830152610d8681610c56565b9050919050565b60006020820190508181036000830152610da681610c79565b9050919050565b600082825260208201905092915050565b6000610dc982610e12565b9050919050565b60008115159050919050565b6000819050919050565b60007fffffffff0000000000000000000000000000000000000000000000000000000082169050919050565b600073ffffffffffffffffffffffffffffffffffffffff82169050919050565b6000610e3d82610e44565b9050919050565b6000610e4f82610e12565b9050919050565b7f4f776e61626c653a206e6577206f776e657220697320746865207a65726f206160008201527f6464726573730000000000000000000000000000000000000000000000000000602082015250565b7f436f6e74726f6c6c61626c653a2043616c6c6572206973206e6f74206120636f60008201527f6e74726f6c6c6572000000000000000000000000000000000000000000000000602082015250565b7f4f776e61626c653a2063616c6c6572206973206e6f7420746865206f776e6572600082015250565b610f2681610dbe565b8114610f3157600080fd5b50565b610f3d81610dd0565b8114610f4857600080fd5b50565b610f5481610ddc565b8114610f5f57600080fd5b50565b610f6b81610de6565b8114610f7657600080fd5b5056fea26469706673582212205e697f39b3f6ec0e2f53ccf2db1bb39804cfe7b19856f913dbb6b3a50b993e8264736f6c63430008040033",
  "devdoc": {
    "kind": "dev",
    "methods": {
      "owner()": {
        "details": "Returns the address of the current owner."
      },
      "renounceOwnership()": {
        "details": "Leaves the contract without owner. It will not be possible to call `onlyOwner` functions anymore. Can only be called by the current owner. NOTE: Renouncing ownership will leave the contract without an owner, thereby removing any functionality that is only available to the owner."
      },
      "transferOwnership(address)": {
        "details": "Transfers ownership of the contract to a new account (`newOwner`). Can only be called by the current owner."
      }
    },
    "version": 1
  },
  "userdoc": {
    "kind": "user",
    "methods": {},
    "version": 1
  },
  "storageLayout": {
    "storage": [
      {
        "astId": 545,
        "contract": "contracts/root/Root.sol:Root",
        "label": "_owner",
        "offset": 0,
        "slot": "0",
        "type": "t_address"
      },
      {
        "astId": 15162,
        "contract": "contracts/root/Root.sol:Root",
        "label": "controllers",
        "offset": 0,
        "slot": "1",
        "type": "t_mapping(t_address,t_bool)"
      },
      {
        "astId": 15292,
        "contract": "contracts/root/Root.sol:Root",
        "label": "ens",
        "offset": 0,
        "slot": "2",
        "type": "t_contract(ENS)11959"
      },
      {
        "astId": 15296,
        "contract": "contracts/root/Root.sol:Root",
        "label": "locked",
        "offset": 0,
        "slot": "3",
        "type": "t_mapping(t_bytes32,t_bool)"
      }
    ],
    "types": {
      "t_address": {
        "encoding": "inplace",
        "label": "address",
        "numberOfBytes": "20"
      },
      "t_bool": {
        "encoding": "inplace",
        "label": "bool",
        "numberOfBytes": "1"
      },
      "t_bytes32": {
        "encoding": "inplace",
        "label": "bytes32",
        "numberOfBytes": "32"
      },
      "t_contract(ENS)11959": {
        "encoding": "inplace",
        "label": "contract ENS",
        "numberOfBytes": "20"
      },
      "t_mapping(t_address,t_bool)": {
        "encoding": "mapping",
        "key": "t_address",
        "label": "mapping(address => bool)",
        "numberOfBytes": "32",
        "value": "t_bool"
      },
      "t_mapping(t_bytes32,t_bool)": {
        "encoding": "mapping",
        "key": "t_bytes32",
        "label": "mapping(bytes32 => bool)",
        "numberOfBytes": "32",
        "value": "t_bool"
      }
    }
  }
}