{
  "abi": [
    {
      "inputs": [
        {
          "internalType": "contract ComptrollerInterface",
          "name": "comptroller_",
          "type": "address"
        },
        {
          "internalType": "contract InterestRateModel",
          "name": "interestRateModel_",
          "type": "address"
        },
        {
          "internalType": "uint256",
          "name": "initialExchangeRateMantissa_",
          "type": "uint256"
        },
        {
          "internalType": "string",
          "name": "name_",
          "type": "string"
        },
        {
          "internalType": "string",
          "name": "symbol_",
          "type": "string"
        },
        {
          "internalType": "uint8",
          "name": "decimals_",
          "type": "uint8"
        },
        {
          "internalType": "address payable",
          "name": "admin_",
          "type": "address"
        }
      ],
      "payable": false,
      "stateMutability": "nonpayable",
      "type": "constructor"
    },
    {
      "anonymous": false,
      "inputs": [
        {
          "indexed": false,
          "internalType": "uint256",
          "name": "cashPrior",
          "type": "uint256"
        },
        {
          "indexed": false,
          "internalType": "uint256",
          "name": "interestAccumulated",
          "type": "uint256"
        },
        {
          "indexed": false,
          "internalType": "uint256",
          "name": "borrowIndex",
          "type": "uint256"
        },
        {
          "indexed": false,
          "internalType": "uint256",
          "name": "totalBorrows",
          "type": "uint256"
        }
      ],
      "name": "AccrueInterest",
      "type": "event"
    },
    {
      "anonymous": false,
      "inputs": [
        {
          "indexed": true,
          "internalType": "address",
          "name": "owner",
          "type": "address"
        },
        {
          "indexed": true,
          "internalType": "address",
          "name": "spender",
          "type": "address"
        },
        {
          "indexed": false,
          "internalType": "uint256",
          "name": "amount",
          "type": "uint256"
        }
      ],
      "name": "Approval",
      "type": "event"
    },
    {
      "anonymous": false,
      "inputs": [
        {
          "indexed": false,
          "internalType": "address",
          "name": "borrower",
          "type": "address"
        },
        {
          "indexed": false,
          "internalType": "uint256",
          "name": "borrowAmount",
          "type": "uint256"
        },
        {
          "indexed": false,
          "internalType": "uint256",
          "name": "accountBorrows",
          "type": "uint256"
        },
        {
          "indexed": false,
          "internalType": "uint256",
          "name": "totalBorrows",
          "type": "uint256"
        }
      ],
      "name": "Borrow",
      "type": "event"
    },
    {
      "anonymous": false,
      "inputs": [
        {
          "indexed": false,
          "internalType": "uint256",
          "name": "error",
          "type": "uint256"
        },
        {
          "indexed": false,
          "internalType": "uint256",
          "name": "info",
          "type": "uint256"
        },
        {
          "indexed": false,
          "internalType": "uint256",
          "name": "detail",
          "type": "uint256"
        }
      ],
      "name": "Failure",
      "type": "event"
    },
    {
      "anonymous": false,
      "inputs": [
        {
          "indexed": false,
          "internalType": "address",
          "name": "liquidator",
          "type": "address"
        },
        {
          "indexed": false,
          "internalType": "address",
          "name": "borrower",
          "type": "address"
        },
        {
          "indexed": false,
          "internalType": "uint256",
          "name": "repayAmount",
          "type": "uint256"
        },
        {
          "indexed": false,
          "internalType": "address",
          "name": "cTokenCollateral",
          "type": "address"
        },
        {
          "indexed": false,
          "internalType": "uint256",
          "name": "seizeTokens",
          "type": "uint256"
        }
      ],
      "name": "LiquidateBorrow",
      "type": "event"
    },
    {
      "anonymous": false,
      "inputs": [
        {
          "indexed": false,
          "internalType": "address",
          "name": "minter",
          "type": "address"
        },
        {
          "indexed": false,
          "internalType": "uint256",
          "name": "mintAmount",
          "type": "uint256"
        },
        {
          "indexed": false,
          "internalType": "uint256",
          "name": "mintTokens",
          "type": "uint256"
        }
      ],
      "name": "Mint",
      "type": "event"
    },
    {
      "anonymous": false,
      "inputs": [
        {
          "indexed": false,
          "internalType": "address",
          "name": "oldAdmin",
          "type": "address"
        },
        {
          "indexed": false,
          "internalType": "address",
          "name": "newAdmin",
          "type": "address"
        }
      ],
      "name": "NewAdmin",
      "type": "event"
    },
    {
      "anonymous": false,
      "inputs": [
        {
          "indexed": false,
          "internalType": "contract ComptrollerInterface",
          "name": "oldComptroller",
          "type": "address"
        },
        {
          "indexed": false,
          "internalType": "contract ComptrollerInterface",
          "name": "newComptroller",
          "type": "address"
        }
      ],
      "name": "NewComptroller",
      "type": "event"
    },
    {
      "anonymous": false,
      "inputs": [
        {
          "indexed": false,
          "internalType": "contract InterestRateModel",
          "name": "oldInterestRateModel",
          "type": "address"
        },
        {
          "indexed": false,
          "internalType": "contract InterestRateModel",
          "name": "newInterestRateModel",
          "type": "address"
        }
      ],
      "name": "NewMarketInterestRateModel",
      "type": "event"
    },
    {
      "anonymous": false,
      "inputs": [
        {
          "indexed": false,
          "internalType": "address",
          "name": "oldPendingAdmin",
          "type": "address"
        },
        {
          "indexed": false,
          "internalType": "address",
          "name": "newPendingAdmin",
          "type": "address"
        }
      ],
      "name": "NewPendingAdmin",
      "type": "event"
    },
    {
      "anonymous": false,
      "inputs": [
        {
          "indexed": false,
          "internalType": "uint256",
          "name": "oldReserveFactorMantissa",
          "type": "uint256"
        },
        {
          "indexed": false,
          "internalType": "uint256",
          "name": "newReserveFactorMantissa",
          "type": "uint256"
        }
      ],
      "name": "NewReserveFactor",
      "type": "event"
    },
    {
      "anonymous": false,
      "inputs": [
        {
          "indexed": false,
          "internalType": "address",
          "name": "redeemer",
          "type": "address"
        },
        {
          "indexed": false,
          "internalType": "uint256",
          "name": "redeemAmount",
          "type": "uint256"
        },
        {
          "indexed": false,
          "internalType": "uint256",
          "name": "redeemTokens",
          "type": "uint256"
        }
      ],
      "name": "Redeem",
      "type": "event"
    },
    {
      "anonymous": false,
      "inputs": [
        {
          "indexed": false,
          "internalType": "address",
          "name": "payer",
          "type": "address"
        },
        {
          "indexed": false,
          "internalType": "address",
          "name": "borrower",
          "type": "address"
        },
        {
          "indexed": false,
          "internalType": "uint256",
          "name": "repayAmount",
          "type": "uint256"
        },
        {
          "indexed": false,
          "internalType": "uint256",
          "name": "accountBorrows",
          "type": "uint256"
        },
        {
          "indexed": false,
          "internalType": "uint256",
          "name": "totalBorrows",
          "type": "uint256"
        }
      ],
      "name": "RepayBorrow",
      "type": "event"
    },
    {
      "anonymous": false,
      "inputs": [
        {
          "indexed": false,
          "internalType": "address",
          "name": "benefactor",
          "type": "address"
        },
        {
          "indexed": false,
          "internalType": "uint256",
          "name": "addAmount",
          "type": "uint256"
        },
        {
          "indexed": false,
          "internalType": "uint256",
          "name": "newTotalReserves",
          "type": "uint256"
        }
      ],
      "name": "ReservesAdded",
      "type": "event"
    },
    {
      "anonymous": false,
      "inputs": [
        {
          "indexed": false,
          "internalType": "address",
          "name": "admin",
          "type": "address"
        },
        {
          "indexed": false,
          "internalType": "uint256",
          "name": "reduceAmount",
          "type": "uint256"
        },
        {
          "indexed": false,
          "internalType": "uint256",
          "name": "newTotalReserves",
          "type": "uint256"
        }
      ],
      "name": "ReservesReduced",
      "type": "event"
    },
    {
      "anonymous": false,
      "inputs": [
        {
          "indexed": true,
          "internalType": "address",
          "name": "from",
          "type": "address"
        },
        {
          "indexed": true,
          "internalType": "address",
          "name": "to",
          "type": "address"
        },
        {
          "indexed": false,
          "internalType": "uint256",
          "name": "amount",
          "type": "uint256"
        }
      ],
      "name": "Transfer",
      "type": "event"
    },
    {
      "payable": true,
      "stateMutability": "payable",
      "type": "fallback"
    },
    {
      "constant": false,
      "inputs": [],
      "name": "_acceptAdmin",
      "outputs": [
        {
          "internalType": "uint256",
          "name": "",
          "type": "uint256"
        }
      ],
      "payable": false,
      "stateMutability": "nonpayable",
      "type": "function"
    },
    {
      "constant": false,
      "inputs": [
        {
          "internalType": "uint256",
          "name": "reduceAmount",
          "type": "uint256"
        }
      ],
      "name": "_reduceReserves",
      "outputs": [
        {
          "internalType": "uint256",
          "name": "",
          "type": "uint256"
        }
      ],
      "payable": false,
      "stateMutability": "nonpayable",
      "type": "function"
    },
    {
      "constant": false,
      "inputs": [
        {
          "internalType": "contract ComptrollerInterface",
          "name": "newComptroller",
          "type": "address"
        }
      ],
      "name": "_setComptroller",
      "outputs": [
        {
          "internalType": "uint256",
          "name": "",
          "type": "uint256"
        }
      ],
      "payable": false,
      "stateMutability": "nonpayable",
      "type": "function"
    },
    {
      "constant": false,
      "inputs": [
        {
          "internalType": "contract InterestRateModel",
          "name": "newInterestRateModel",
          "type": "address"
        }
      ],
      "name": "_setInterestRateModel",
      "outputs": [
        {
          "internalType": "uint256",
          "name": "",
          "type": "uint256"
        }
      ],
      "payable": false,
      "stateMutability": "nonpayable",
      "type": "function"
    },
    {
      "constant": false,
      "inputs": [
        {
          "internalType": "address payable",
          "name": "newPendingAdmin",
          "type": "address"
        }
      ],
      "name": "_setPendingAdmin",
      "outputs": [
        {
          "internalType": "uint256",
          "name": "",
          "type": "uint256"
        }
      ],
      "payable": false,
      "stateMutability": "nonpayable",
      "type": "function"
    },
    {
      "constant": false,
      "inputs": [
        {
          "internalType": "uint256",
          "name": "newReserveFactorMantissa",
          "type": "uint256"
        }
      ],
      "name": "_setReserveFactor",
      "outputs": [
        {
          "internalType": "uint256",
          "name": "",
          "type": "uint256"
        }
      ],
      "payable": false,
      "stateMutability": "nonpayable",
      "type": "function"
    },
    {
      "constant": true,
      "inputs": [],
      "name": "accrualBlockNumber",
      "outputs": [
        {
          "internalType": "uint256",
          "name": "",
          "type": "uint256"
        }
      ],
      "payable": false,
      "stateMutability": "view",
      "type": "function"
    },
    {
      "constant": false,
      "inputs": [],
      "name": "accrueInterest",
      "outputs": [
        {
          "internalType": "uint256",
          "name": "",
          "type": "uint256"
        }
      ],
      "payable": false,
      "stateMutability": "nonpayable",
      "type": "function"
    },
    {
      "constant": true,
      "inputs": [],
      "name": "admin",
      "outputs": [
        {
          "internalType": "address payable",
          "name": "",
          "type": "address"
        }
      ],
      "payable": false,
      "stateMutability": "view",
      "type": "function"
    },
    {
      "constant": true,
      "inputs": [
        {
          "internalType": "address",
          "name": "owner",
          "type": "address"
        },
        {
          "internalType": "address",
          "name": "spender",
          "type": "address"
        }
      ],
      "name": "allowance",
      "outputs": [
        {
          "internalType": "uint256",
          "name": "",
          "type": "uint256"
        }
      ],
      "payable": false,
      "stateMutability": "view",
      "type": "function"
    },
    {
      "constant": false,
      "inputs": [
        {
          "internalType": "address",
          "name": "spender",
          "type": "address"
        },
        {
          "internalType": "uint256",
          "name": "amount",
          "type": "uint256"
        }
      ],
      "name": "approve",
      "outputs": [
        {
          "internalType": "bool",
          "name": "",
          "type": "bool"
        }
      ],
      "payable": false,
      "stateMutability": "nonpayable",
      "type": "function"
    },
    {
      "constant": true,
      "inputs": [
        {
          "internalType": "address",
          "name": "owner",
          "type": "address"
        }
      ],
      "name": "balanceOf",
      "outputs": [
        {
          "internalType": "uint256",
          "name": "",
          "type": "uint256"
        }
      ],
      "payable": false,
      "stateMutability": "view",
      "type": "function"
    },
    {
      "constant": false,
      "inputs": [
        {
          "internalType": "address",
          "name": "owner",
          "type": "address"
        }
      ],
      "name": "balanceOfUnderlying",
      "outputs": [
        {
          "internalType": "uint256",
          "name": "",
          "type": "uint256"
        }
      ],
      "payable": false,
      "stateMutability": "nonpayable",
      "type": "function"
    },
    {
      "constant": false,
      "inputs": [
        {
          "internalType": "uint256",
          "name": "borrowAmount",
          "type": "uint256"
        }
      ],
      "name": "borrow",
      "outputs": [
        {
          "internalType": "uint256",
          "name": "",
          "type": "uint256"
        }
      ],
      "payable": false,
      "stateMutability": "nonpayable",
      "type": "function"
    },
    {
      "constant": false,
      "inputs": [
        {
          "internalType": "address",
          "name": "account",
          "type": "address"
        }
      ],
      "name": "borrowBalanceCurrent",
      "outputs": [
        {
          "internalType": "uint256",
          "name": "",
          "type": "uint256"
        }
      ],
      "payable": false,
      "stateMutability": "nonpayable",
      "type": "function"
    },
    {
      "constant": true,
      "inputs": [
        {
          "internalType": "address",
          "name": "account",
          "type": "address"
        }
      ],
      "name": "borrowBalanceStored",
      "outputs": [
        {
          "internalType": "uint256",
          "name": "",
          "type": "uint256"
        }
      ],
      "payable": false,
      "stateMutability": "view",
      "type": "function"
    },
    {
      "constant": true,
      "inputs": [],
      "name": "borrowIndex",
      "outputs": [
        {
          "internalType": "uint256",
          "name": "",
          "type": "uint256"
        }
      ],
      "payable": false,
      "stateMutability": "view",
      "type": "function"
    },
    {
      "constant": true,
      "inputs": [],
      "name": "borrowRatePerBlock",
      "outputs": [
        {
          "internalType": "uint256",
          "name": "",
          "type": "uint256"
        }
      ],
      "payable": false,
      "stateMutability": "view",
      "type": "function"
    },
    {
      "constant": true,
      "inputs": [],
      "name": "comptroller",
      "outputs": [
        {
          "internalType": "contract ComptrollerInterface",
          "name": "",
          "type": "address"
        }
      ],
      "payable": false,
      "stateMutability": "view",
      "type": "function"
    },
    {
      "constant": true,
      "inputs": [],
      "name": "decimals",
      "outputs": [
        {
          "internalType": "uint8",
          "name": "",
          "type": "uint8"
        }
      ],
      "payable": false,
      "stateMutability": "view",
      "type": "function"
    },
    {
      "constant": false,
      "inputs": [],
      "name": "exchangeRateCurrent",
      "outputs": [
        {
          "internalType": "uint256",
          "name": "",
          "type": "uint256"
        }
      ],
      "payable": false,
      "stateMutability": "nonpayable",
      "type": "function"
    },
    {
      "constant": true,
      "inputs": [],
      "name": "exchangeRateStored",
      "outputs": [
        {
          "internalType": "uint256",
          "name": "",
          "type": "uint256"
        }
      ],
      "payable": false,
      "stateMutability": "view",
      "type": "function"
    },
    {
      "constant": true,
      "inputs": [
        {
          "internalType": "address",
          "name": "account",
          "type": "address"
        }
      ],
      "name": "getAccountSnapshot",
      "outputs": [
        {
          "internalType": "uint256",
          "name": "",
          "type": "uint256"
        },
        {
          "internalType": "uint256",
          "name": "",
          "type": "uint256"
        },
        {
          "internalType": "uint256",
          "name": "",
          "type": "uint256"
        },
        {
          "internalType": "uint256",
          "name": "",
          "type": "uint256"
        }
      ],
      "payable": false,
      "stateMutability": "view",
      "type": "function"
    },
    {
      "constant": true,
      "inputs": [],
      "name": "getCash",
      "outputs": [
        {
          "internalType": "uint256",
          "name": "",
          "type": "uint256"
        }
      ],
      "payable": false,
      "stateMutability": "view",
      "type": "function"
    },
    {
      "constant": false,
      "inputs": [
        {
          "internalType": "contract ComptrollerInterface",
          "name": "comptroller_",
          "type": "address"
        },
        {
          "internalType": "contract InterestRateModel",
          "name": "interestRateModel_",
          "type": "address"
        },
        {
          "internalType": "uint256",
          "name": "initialExchangeRateMantissa_",
          "type": "uint256"
        },
        {
          "internalType": "string",
          "name": "name_",
          "type": "string"
        },
        {
          "internalType": "string",
          "name": "symbol_",
          "type": "string"
        },
        {
          "internalType": "uint8",
          "name": "decimals_",
          "type": "uint8"
        }
      ],
      "name": "initialize",
      "outputs": [],
      "payable": false,
      "stateMutability": "nonpayable",
      "type": "function"
    },
    {
      "constant": true,
      "inputs": [],
      "name": "interestRateModel",
      "outputs": [
        {
          "internalType": "contract InterestRateModel",
          "name": "",
          "type": "address"
        }
      ],
      "payable": false,
      "stateMutability": "view",
      "type": "function"
    },
    {
      "constant": true,
      "inputs": [],
      "name": "isCToken",
      "outputs": [
        {
          "internalType": "bool",
          "name": "",
          "type": "bool"
        }
      ],
      "payable": false,
      "stateMutability": "view",
      "type": "function"
    },
    {
      "constant": false,
      "inputs": [
        {
          "internalType": "address",
          "name": "borrower",
          "type": "address"
        },
        {
          "internalType": "contract CToken",
          "name": "cTokenCollateral",
          "type": "address"
        }
      ],
      "name": "liquidateBorrow",
      "outputs": [],
      "payable": true,
      "stateMutability": "payable",
      "type": "function"
    },
    {
      "constant": false,
      "inputs": [],
      "name": "mint",
      "outputs": [],
      "payable": true,
      "stateMutability": "payable",
      "type": "function"
    },
    {
      "constant": true,
      "inputs": [],
      "name": "name",
      "outputs": [
        {
          "internalType": "string",
          "name": "",
          "type": "string"
        }
      ],
      "payable": false,
      "stateMutability": "view",
      "type": "function"
    },
    {
      "constant": true,
      "inputs": [],
      "name": "pendingAdmin",
      "outputs": [
        {
          "internalType": "address payable",
          "name": "",
          "type": "address"
        }
      ],
      "payable": false,
      "stateMutability": "view",
      "type": "function"
    },
    {
      "constant": false,
      "inputs": [
        {
          "internalType": "uint256",
          "name": "redeemTokens",
          "type": "uint256"
        }
      ],
      "name": "redeem",
      "outputs": [
        {
          "internalType": "uint256",
          "name": "",
          "type": "uint256"
        }
      ],
      "payable": false,
      "stateMutability": "nonpayable",
      "type": "function"
    },
    {
      "constant": false,
      "inputs": [
        {
          "internalType": "uint256",
          "name": "redeemAmount",
          "type": "uint256"
        }
      ],
      "name": "redeemUnderlying",
      "outputs": [
        {
          "internalType": "uint256",
          "name": "",
          "type": "uint256"
        }
      ],
      "payable": false,
      "stateMutability": "nonpayable",
      "type": "function"
    },
    {
      "constant": false,
      "inputs": [],
      "name": "repayBorrow",
      "outputs": [],
      "payable": true,
      "stateMutability": "payable",
      "type": "function"
    },
    {
      "constant": false,
      "inputs": [
        {
          "internalType": "address",
          "name": "borrower",
          "type": "address"
        }
      ],
      "name": "repayBorrowBehalf",
      "outputs": [],
      "payable": true,
      "stateMutability": "payable",
      "type": "function"
    },
    {
      "constant": true,
      "inputs": [],
      "name": "reserveFactorMantissa",
      "outputs": [
        {
          "internalType": "uint256",
          "name": "",
          "type": "uint256"
        }
      ],
      "payable": false,
      "stateMutability": "view",
      "type": "function"
    },
    {
      "constant": false,
      "inputs": [
        {
          "internalType": "address",
          "name": "liquidator",
          "type": "address"
        },
        {
          "internalType": "address",
          "name": "borrower",
          "type": "address"
        },
        {
          "internalType": "uint256",
          "name": "seizeTokens",
          "type": "uint256"
        }
      ],
      "name": "seize",
      "outputs": [
        {
          "internalType": "uint256",
          "name": "",
          "type": "uint256"
        }
      ],
      "payable": false,
      "stateMutability": "nonpayable",
      "type": "function"
    },
    {
      "constant": true,
      "inputs": [],
      "name": "supplyRatePerBlock",
      "outputs": [
        {
          "internalType": "uint256",
          "name": "",
          "type": "uint256"
        }
      ],
      "payable": false,
      "stateMutability": "view",
      "type": "function"
    },
    {
      "constant": true,
      "inputs": [],
      "name": "symbol",
      "outputs": [
        {
          "internalType": "string",
          "name": "",
          "type": "string"
        }
      ],
      "payable": false,
      "stateMutability": "view",
      "type": "function"
    },
    {
      "constant": true,
      "inputs": [],
      "name": "totalBorrows",
      "outputs": [
        {
          "internalType": "uint256",
          "name": "",
          "type": "uint256"
        }
      ],
      "payable": false,
      "stateMutability": "view",
      "type": "function"
    },
    {
      "constant": false,
      "inputs": [],
      "name": "totalBorrowsCurrent",
      "outputs": [
        {
          "internalType": "uint256",
          "name": "",
          "type": "uint256"
        }
      ],
      "payable": false,
      "stateMutability": "nonpayable",
      "type": "function"
    },
    {
      "constant": true,
      "inputs": [],
      "name": "totalReserves",
      "outputs": [
        {
          "internalType": "uint256",
          "name": "",
          "type": "uint256"
        }
      ],
      "payable": false,
      "stateMutability": "view",
      "type": "function"
    },
    {
      "constant": true,
      "inputs": [],
      "name": "totalSupply",
      "outputs": [
        {
          "internalType": "uint256",
          "name": "",
          "type": "uint256"
        }
      ],
      "payable": false,
      "stateMutability": "view",
      "type": "function"
    },
    {
      "constant": false,
      "inputs": [
        {
          "internalType": "address",
          "name": "dst",
          "type": "address"
        },
        {
          "internalType": "uint256",
          "name": "amount",
          "type": "uint256"
        }
      ],
      "name": "transfer",
      "outputs": [
        {
          "internalType": "bool",
          "name": "",
          "type": "bool"
        }
      ],
      "payable": false,
      "stateMutability": "nonpayable",
      "type": "function"
    },
    {
      "constant": false,
      "inputs": [
        {
          "internalType": "address",
          "name": "src",
          "type": "address"
        },
        {
          "internalType": "address",
          "name": "dst",
          "type": "address"
        },
        {
          "internalType": "uint256",
          "name": "amount",
          "type": "uint256"
        }
      ],
      "name": "transferFrom",
      "outputs": [
        {
          "internalType": "bool",
          "name": "",
          "type": "bool"
        }
      ],
      "payable": false,
      "stateMutability": "nonpayable",
      "type": "function"
    }
  ],
  "bytecode": "60806040523480156200001157600080fd5b506040516200568c3803806200568c833981810160405260e08110156200003757600080fd5b8151602083015160408085015160608601805192519496939591949391820192846401000000008211156200006b57600080fd5b9083019060208201858111156200008157600080fd5b82516401000000008111828201881017156200009c57600080fd5b82525081516020918201929091019080838360005b83811015620000cb578181015183820152602001620000b1565b50505050905090810190601f168015620000f95780820380516001836020036101000a031916815260200191505b50604052602001805160405193929190846401000000008211156200011d57600080fd5b9083019060208201858111156200013357600080fd5b82516401000000008111828201881017156200014e57600080fd5b82525081516020918201929091019080838360005b838110156200017d57818101518382015260200162000163565b50505050905090810190601f168015620001ab5780820380516001836020036101000a031916815260200191505b506040908152602082015191015160038054610100600160a81b0319163361010002179055909250905086868686868686620001ec87878787878762000226565b600380546001600160a01b0390921661010002610100600160a81b031990921691909117905550620008619b505050505050505050505050565b60035461010090046001600160a01b03163314620002765760405162461bcd60e51b8152600401808060200182810382526024815260200180620055f36024913960400191505060405180910390fd5b600954158015620002875750600a54155b620002c45760405162461bcd60e51b8152600401808060200182810382526023815260200180620056176023913960400191505060405180910390fd5b600784905583620003075760405162461bcd60e51b81526004018080602001828103825260308152602001806200563a6030913960400191505060405180910390fd5b60006200031d876001600160e01b036200043c16565b9050801562000373576040805162461bcd60e51b815260206004820152601a60248201527f73657474696e6720636f6d7074726f6c6c6572206661696c6564000000000000604482015290519081900360640190fd5b620003866001600160e01b03620005a416565b600955670de0b6b3a7640000600a55620003a9866001600160e01b03620005a916565b90508015620003ea5760405162461bcd60e51b81526004018080602001828103825260228152602001806200566a6022913960400191505060405180910390fd5b8351620003ff906001906020870190620007bf565b50825162000415906002906020860190620007bf565b50506003805460ff90921660ff199283161790556000805490911660011790555050505050565b60035460009061010090046001600160a01b0316331462000476576200046e6001603f6001600160e01b036200074f16565b90506200059f565b60055460408051623f1ee960e11b815290516001600160a01b0392831692851691627e3dd2916004808301926020929190829003018186803b158015620004bc57600080fd5b505afa158015620004d1573d6000803e3d6000fd5b505050506040513d6020811015620004e857600080fd5b50516200053c576040805162461bcd60e51b815260206004820152601c60248201527f6d61726b6572206d6574686f642072657475726e65642066616c736500000000604482015290519081900360640190fd5b600580546001600160a01b0319166001600160a01b03858116918217909255604080519284168352602083019190915280517f7ac369dbd14fa5ea3f473ed67cc9d598964a77501540ba6751eb0b3decf5870d9281900390910190a160005b9150505b919050565b435b90565b600354600090819061010090046001600160a01b03163314620005e657620005dd600160426001600160e01b036200074f16565b9150506200059f565b620005f96001600160e01b03620005a416565b600954146200061957620005dd600a60416001600160e01b036200074f16565b600660009054906101000a90046001600160a01b03169050826001600160a01b0316632191f92a6040518163ffffffff1660e01b815260040160206040518083038186803b1580156200066b57600080fd5b505afa15801562000680573d6000803e3d6000fd5b505050506040513d60208110156200069757600080fd5b5051620006eb576040805162461bcd60e51b815260206004820152601c60248201527f6d61726b6572206d6574686f642072657475726e65642066616c736500000000604482015290519081900360640190fd5b600680546001600160a01b0319166001600160a01b03858116918217909255604080519284168352602083019190915280517fedffc32e068c7c95dfd4bdfd5c4d939a084d6b11c4199eac8436ed234d72f9269281900390910190a160006200059b565b60007f45b96fe442630264581b197e84bbada861235052c5a1aadfff9ea4e40a969aa08360108111156200077f57fe5b8360508111156200078c57fe5b604080519283526020830191909152600082820152519081900360600190a1826010811115620007b857fe5b9392505050565b828054600181600116156101000203166002900490600052602060002090601f016020900481019282601f106200080257805160ff191683800117855562000832565b8280016001018555821562000832579182015b828111156200083257825182559160200191906001019062000815565b506200084092915062000844565b5090565b620005a691905b808211156200084057600081556001016200084b565b614d8280620008716000396000f3fe6080604052600436106102725760003560e01c806395d89b411161014f578063c37f68e2116100c1578063f2b3abbd1161007a578063f2b3abbd14610a22578063f3fdb15a14610a55578063f851a44014610a6a578063f8f9da2814610a7f578063fca7820b14610a94578063fe9c44ae14610abe57610272565b8063c37f68e2146108ff578063c5ebeaec14610958578063db006a7514610982578063dd62ed3e146109ac578063e5974619146109e7578063e9c714f214610a0d57610272565b8063aa5af0fd11610113578063aa5af0fd1461081c578063aae40a2a14610831578063ae9d70b01461085f578063b2a02ff114610874578063b71d1a0c146108b7578063bd6d894d146108ea57610272565b806395d89b411461062757806395dd91931461063c57806399d8c1b41461066f578063a6afed95146107ce578063a9059cbb146107e357610272565b80633b1d21a2116101e8578063601a0bf1116101ac578063601a0bf1146105615780636c540baf1461058b57806370a08231146105a057806373acee98146105d3578063852a12e3146105e85780638f840ddd1461061257610272565b80633b1d21a2146104e75780634576b5db146104fc57806347bd37181461052f5780634e4d9fea146105445780635fe3b5671461054c57610272565b806318160ddd1161023a57806318160ddd146103eb578063182df0f51461040057806323b872dd146104155780632678224714610458578063313ce567146104895780633af9e669146104b457610272565b806306fdde03146102b0578063095ea7b31461033a5780631249c58b14610387578063173b99041461039157806317bfdfbc146103b8575b600061027d34610ad3565b5090506102ad816040518060400160405280600b81526020016a1b5a5b9d0819985a5b195960aa1b815250610b7b565b50005b3480156102bc57600080fd5b506102c5610d7b565b6040805160208082528351818301528351919283929083019185019080838360005b838110156102ff5781810151838201526020016102e7565b50505050905090810190601f16801561032c5780820380516001836020036101000a031916815260200191505b509250505060405180910390f35b34801561034657600080fd5b506103736004803603604081101561035d57600080fd5b506001600160a01b038135169060200135610e08565b604080519115158252519081900360200190f35b61038f610e75565b005b34801561039d57600080fd5b506103a6610eb3565b60408051918252519081900360200190f35b3480156103c457600080fd5b506103a6600480360360208110156103db57600080fd5b50356001600160a01b0316610eb9565b3480156103f757600080fd5b506103a6610f79565b34801561040c57600080fd5b506103a6610f7f565b34801561042157600080fd5b506103736004803603606081101561043857600080fd5b506001600160a01b03813581169160208101359091169060400135610fe2565b34801561046457600080fd5b5061046d611054565b604080516001600160a01b039092168252519081900360200190f35b34801561049557600080fd5b5061049e611063565b6040805160ff9092168252519081900360200190f35b3480156104c057600080fd5b506103a6600480360360208110156104d757600080fd5b50356001600160a01b031661106c565b3480156104f357600080fd5b506103a6611124565b34801561050857600080fd5b506103a66004803603602081101561051f57600080fd5b50356001600160a01b0316611133565b34801561053b57600080fd5b506103a6611288565b61038f61128e565b34801561055857600080fd5b5061046d6112d0565b34801561056d57600080fd5b506103a66004803603602081101561058457600080fd5b50356112df565b34801561059757600080fd5b506103a661137a565b3480156105ac57600080fd5b506103a6600480360360208110156105c357600080fd5b50356001600160a01b0316611380565b3480156105df57600080fd5b506103a661139b565b3480156105f457600080fd5b506103a66004803603602081101561060b57600080fd5b5035611451565b34801561061e57600080fd5b506103a661145c565b34801561063357600080fd5b506102c5611462565b34801561064857600080fd5b506103a66004803603602081101561065f57600080fd5b50356001600160a01b03166114ba565b34801561067b57600080fd5b5061038f600480360360c081101561069257600080fd5b6001600160a01b038235811692602081013590911691604082013591908101906080810160608201356401000000008111156106cd57600080fd5b8201836020820111156106df57600080fd5b8035906020019184600183028401116401000000008311171561070157600080fd5b91908080601f016020809104026020016040519081016040528093929190818152602001838380828437600092019190915250929594936020810193503591505064010000000081111561075457600080fd5b82018360208201111561076657600080fd5b8035906020019184600183028401116401000000008311171561078857600080fd5b91908080601f0160208091040260200160405190810160405280939291908181526020018383808284376000920191909152509295505050903560ff1691506115179050565b3480156107da57600080fd5b506103a66116fe565b3480156107ef57600080fd5b506103736004803603604081101561080657600080fd5b506001600160a01b038135169060200135611a56565b34801561082857600080fd5b506103a6611ac7565b61038f6004803603604081101561084757600080fd5b506001600160a01b0381358116916020013516611acd565b34801561086b57600080fd5b506103a6611b1a565b34801561088057600080fd5b506103a66004803603606081101561089757600080fd5b506001600160a01b03813581169160208101359091169060400135611bb9565b3480156108c357600080fd5b506103a6600480360360208110156108da57600080fd5b50356001600160a01b0316611c2a565b3480156108f657600080fd5b506103a6611cb6565b34801561090b57600080fd5b506109326004803603602081101561092257600080fd5b50356001600160a01b0316611d72565b604080519485526020850193909352838301919091526060830152519081900360800190f35b34801561096457600080fd5b506103a66004803603602081101561097b57600080fd5b5035611e07565b34801561098e57600080fd5b506103a6600480360360208110156109a557600080fd5b5035611e12565b3480156109b857600080fd5b506103a6600480360360408110156109cf57600080fd5b506001600160a01b0381358116916020013516611e1d565b61038f600480360360208110156109fd57600080fd5b50356001600160a01b0316611e48565b348015610a1957600080fd5b506103a6611e96565b348015610a2e57600080fd5b506103a660048036036020811015610a4557600080fd5b50356001600160a01b0316611f99565b348015610a6157600080fd5b5061046d611fd3565b348015610a7657600080fd5b5061046d611fe2565b348015610a8b57600080fd5b506103a6611ff6565b348015610aa057600080fd5b506103a660048036036020811015610ab757600080fd5b503561205a565b348015610aca57600080fd5b506103736120d8565b60008054819060ff16610b1a576040805162461bcd60e51b815260206004820152600a6024820152691c994b595b9d195c995960b21b604482015290519081900360640190fd5b6000805460ff19168155610b2c6116fe565b90508015610b5757610b4a816010811115610b4357fe5b601e6120dd565b925060009150610b679050565b610b613385612143565b92509250505b6000805460ff191660011790559092909150565b81610b8557610d77565b606081516005016040519080825280601f01601f191660200182016040528015610bb6576020820181803883390190505b50905060005b8251811015610c0757828181518110610bd157fe5b602001015160f81c60f81b828281518110610be857fe5b60200101906001600160f81b031916908160001a905350600101610bbc565b8151600160fd1b90839083908110610c1b57fe5b60200101906001600160f81b031916908160001a905350602860f81b828260010181518110610c4657fe5b60200101906001600160f81b031916908160001a905350600a840460300160f81b828260020181518110610c7657fe5b60200101906001600160f81b031916908160001a905350600a840660300160f81b828260030181518110610ca657fe5b60200101906001600160f81b031916908160001a905350602960f81b828260040181518110610cd157fe5b60200101906001600160f81b031916908160001a905350818415610d735760405162461bcd60e51b81526004018080602001828103825283818151815260200191508051906020019080838360005b83811015610d38578181015183820152602001610d20565b50505050905090810190601f168015610d655780820380516001836020036101000a031916815260200191505b509250505060405180910390fd5b5050505b5050565b60018054604080516020600284861615610100026000190190941693909304601f81018490048402820184019092528181529291830182828015610e005780601f10610dd557610100808354040283529160200191610e00565b820191906000526020600020905b815481529060010190602001808311610de357829003601f168201915b505050505081565b336000818152600f602090815260408083206001600160a01b03871680855290835281842086905581518681529151939493909284927f8c5be1e5ebec7d5bd14f71427d1e84f3dd0314c0f7b2291e5b200ac8c7c3b925929081900390910190a360019150505b92915050565b6000610e8034610ad3565b509050610eb0816040518060400160405280600b81526020016a1b5a5b9d0819985a5b195960aa1b815250610b7b565b50565b60085481565b6000805460ff16610efe576040805162461bcd60e51b815260206004820152600a6024820152691c994b595b9d195c995960b21b604482015290519081900360640190fd5b6000805460ff19168155610f106116fe565b14610f5b576040805162461bcd60e51b81526020600482015260166024820152751858d8dc9d59481a5b9d195c995cdd0819985a5b195960521b604482015290519081900360640190fd5b610f64826114ba565b90505b6000805460ff19166001179055919050565b600d5481565b6000806000610f8c6125a3565b90925090506000826003811115610f9f57fe5b14610fdb5760405162461bcd60e51b8152600401808060200182810382526035815260200180614c996035913960400191505060405180910390fd5b9150505b90565b6000805460ff16611027576040805162461bcd60e51b815260206004820152600a6024820152691c994b595b9d195c995960b21b604482015290519081900360640190fd5b6000805460ff1916815561103d33868686612652565b1490506000805460ff191660011790559392505050565b6004546001600160a01b031681565b60035460ff1681565b6000611076614987565b6040518060200160405280611089611cb6565b90526001600160a01b0384166000908152600e60205260408120549192509081906110b5908490612962565b909250905060008260038111156110c857fe5b1461111a576040805162461bcd60e51b815260206004820152601f60248201527f62616c616e636520636f756c64206e6f742062652063616c63756c6174656400604482015290519081900360640190fd5b925050505b919050565b600061112e6129b5565b905090565b60035460009061010090046001600160a01b03163314611160576111596001603f6120dd565b905061111f565b60055460408051623f1ee960e11b815290516001600160a01b0392831692851691627e3dd2916004808301926020929190829003018186803b1580156111a557600080fd5b505afa1580156111b9573d6000803e3d6000fd5b505050506040513d60208110156111cf57600080fd5b5051611222576040805162461bcd60e51b815260206004820152601c60248201527f6d61726b6572206d6574686f642072657475726e65642066616c736500000000604482015290519081900360640190fd5b600580546001600160a01b0319166001600160a01b03858116918217909255604080519284168352602083019190915280517f7ac369dbd14fa5ea3f473ed67cc9d598964a77501540ba6751eb0b3decf5870d9281900390910190a160005b9392505050565b600b5481565b6000611299346129e1565b509050610eb081604051806040016040528060128152602001711c995c185e509bdc9c9bddc819985a5b195960721b815250610b7b565b6005546001600160a01b031681565b6000805460ff16611324576040805162461bcd60e51b815260206004820152600a6024820152691c994b595b9d195c995960b21b604482015290519081900360640190fd5b6000805460ff191681556113366116fe565b9050801561135c5761135481601081111561134d57fe5b60306120dd565b915050610f67565b61136583612a63565b9150506000805460ff19166001179055919050565b60095481565b6001600160a01b03166000908152600e602052604090205490565b6000805460ff166113e0576040805162461bcd60e51b815260206004820152600a6024820152691c994b595b9d195c995960b21b604482015290519081900360640190fd5b6000805460ff191681556113f26116fe565b1461143d576040805162461bcd60e51b81526020600482015260166024820152751858d8dc9d59481a5b9d195c995cdd0819985a5b195960521b604482015290519081900360640190fd5b50600b546000805460ff1916600117905590565b6000610e6f82612b96565b600c5481565b6002805460408051602060018416156101000260001901909316849004601f81018490048402820184019092528181529291830182828015610e005780601f10610dd557610100808354040283529160200191610e00565b60008060006114c884612c17565b909250905060008260038111156114db57fe5b146112815760405162461bcd60e51b8152600401808060200182810382526037815260200180614ba46037913960400191505060405180910390fd5b60035461010090046001600160a01b031633146115655760405162461bcd60e51b8152600401808060200182810382526024815260200180614ae06024913960400191505060405180910390fd5b6009541580156115755750600a54155b6115b05760405162461bcd60e51b8152600401808060200182810382526023815260200180614b046023913960400191505060405180910390fd5b6007849055836115f15760405162461bcd60e51b8152600401808060200182810382526030815260200180614b276030913960400191505060405180910390fd5b60006115fc87611133565b90508015611651576040805162461bcd60e51b815260206004820152601a60248201527f73657474696e6720636f6d7074726f6c6c6572206661696c6564000000000000604482015290519081900360640190fd5b611659612ccb565b600955670de0b6b3a7640000600a5561167186612ccf565b905080156116b05760405162461bcd60e51b8152600401808060200182810382526022815260200180614b576022913960400191505060405180910390fd5b83516116c390600190602087019061499a565b5082516116d790600290602086019061499a565b50506003805460ff90921660ff199283161790556000805490911660011790555050505050565b600080611709612ccb565b6009549091508082141561172257600092505050610fdf565b600061172c6129b5565b600b54600c54600a54600654604080516315f2405360e01b815260048101879052602481018690526044810185905290519596509394929391926000926001600160a01b03909216916315f24053916064808301926020929190829003018186803b15801561179a57600080fd5b505afa1580156117ae573d6000803e3d6000fd5b505050506040513d60208110156117c457600080fd5b5051905065048c27395000811115611823576040805162461bcd60e51b815260206004820152601c60248201527f626f72726f772072617465206973206162737572646c79206869676800000000604482015290519081900360640190fd5b6000806118308989612e44565b9092509050600082600381111561184357fe5b14611895576040805162461bcd60e51b815260206004820152601f60248201527f636f756c64206e6f742063616c63756c61746520626c6f636b2064656c746100604482015290519081900360640190fd5b61189d614987565b6000806000806118bb60405180602001604052808a81525087612e67565b909750945060008760038111156118ce57fe5b14611900576118eb600960068960038111156118e657fe5b612ecf565b9e505050505050505050505050505050610fdf565b61190a858c612962565b9097509350600087600381111561191d57fe5b14611935576118eb600960018960038111156118e657fe5b61193f848c612f35565b9097509250600087600381111561195257fe5b1461196a576118eb600960048960038111156118e657fe5b6119856040518060200160405280600854815250858c612f5b565b9097509150600087600381111561199857fe5b146119b0576118eb600960058960038111156118e657fe5b6119bb858a8b612f5b565b909750905060008760038111156119ce57fe5b146119e6576118eb600960038960038111156118e657fe5b60098e9055600a819055600b839055600c829055604080518d8152602081018690528082018390526060810185905290517f4dec04e750ca11537cabcd8a9eab06494de08da3735bc8871cd41250e190bc049181900360800190a160009e50505050505050505050505050505090565b6000805460ff16611a9b576040805162461bcd60e51b815260206004820152600a6024820152691c994b595b9d195c995960b21b604482015290519081900360640190fd5b6000805460ff19168155611ab133338686612652565b1490506000805460ff1916600117905592915050565b600a5481565b6000611ada833484612fb7565b509050611b1581604051806040016040528060168152602001751b1a5c5d5a59185d19509bdc9c9bddc819985a5b195960521b815250610b7b565b505050565b6006546000906001600160a01b031663b8168816611b366129b5565b600b54600c546008546040518563ffffffff1660e01b81526004018085815260200184815260200183815260200182815260200194505050505060206040518083038186803b158015611b8857600080fd5b505afa158015611b9c573d6000803e3d6000fd5b505050506040513d6020811015611bb257600080fd5b5051905090565b6000805460ff16611bfe576040805162461bcd60e51b815260206004820152600a6024820152691c994b595b9d195c995960b21b604482015290519081900360640190fd5b6000805460ff19169055611c14338585856130e9565b90506000805460ff191660011790559392505050565b60035460009061010090046001600160a01b03163314611c5057611159600160456120dd565b600480546001600160a01b038481166001600160a01b0319831681179093556040805191909216808252602082019390935281517fca4f2f25d0898edd99413412fb94012f9e54ec8142f9b093e7720646a95b16a9929181900390910190a16000611281565b6000805460ff16611cfb576040805162461bcd60e51b815260206004820152600a6024820152691c994b595b9d195c995960b21b604482015290519081900360640190fd5b6000805460ff19168155611d0d6116fe565b14611d58576040805162461bcd60e51b81526020600482015260166024820152751858d8dc9d59481a5b9d195c995cdd0819985a5b195960521b604482015290519081900360640190fd5b611d60610f7f565b90506000805460ff1916600117905590565b6001600160a01b0381166000908152600e6020526040812054819081908190818080611d9d89612c17565b935090506000816003811115611daf57fe5b14611dcd5760095b975060009650869550859450611e009350505050565b611dd56125a3565b925090506000816003811115611de757fe5b14611df3576009611db7565b5060009650919450925090505b9193509193565b6000610e6f8261334f565b6000610e6f826133ce565b6001600160a01b039182166000908152600f6020908152604080832093909416825291909152205490565b6000611e548234613448565b509050610d77816040518060400160405280601881526020017f7265706179426f72726f77426568616c66206661696c65640000000000000000815250610b7b565b6004546000906001600160a01b031633141580611eb1575033155b15611ec957611ec2600160006120dd565b9050610fdf565b60038054600480546001600160a01b03818116610100818102610100600160a81b0319871617968790556001600160a01b031990931690935560408051948390048216808652929095041660208401528351909391927ff9ffabca9c8276e99321725bcb43fb076a6c66a54b7f21c4e8146d8519b417dc92908290030190a1600454604080516001600160a01b038085168252909216602083015280517fca4f2f25d0898edd99413412fb94012f9e54ec8142f9b093e7720646a95b16a99281900390910190a160009250505090565b600080611fa46116fe565b90508015611fca57611fc2816010811115611fbb57fe5b60406120dd565b91505061111f565b61128183612ccf565b6006546001600160a01b031681565b60035461010090046001600160a01b031681565b6006546000906001600160a01b03166315f240536120126129b5565b600b54600c546040518463ffffffff1660e01b815260040180848152602001838152602001828152602001935050505060206040518083038186803b158015611b8857600080fd5b6000805460ff1661209f576040805162461bcd60e51b815260206004820152600a6024820152691c994b595b9d195c995960b21b604482015290519081900360640190fd5b6000805460ff191681556120b16116fe565b905080156120cf576113548160108111156120c857fe5b60466120dd565b611365836134f3565b600181565b60007f45b96fe442630264581b197e84bbada861235052c5a1aadfff9ea4e40a969aa083601081111561210c57fe5b83605081111561211857fe5b604080519283526020830191909152600082820152519081900360600190a182601081111561128157fe5b60055460408051634ef4c3e160e01b81523060048201526001600160a01b03858116602483015260448201859052915160009384938493911691634ef4c3e19160648082019260209290919082900301818787803b1580156121a457600080fd5b505af11580156121b8573d6000803e3d6000fd5b505050506040513d60208110156121ce57600080fd5b5051905080156121f2576121e56003601f83612ecf565b92506000915061259c9050565b6121fa612ccb565b6009541461220e576121e5600a60226120dd565b612216614a18565b61221e6125a3565b604083018190526020830182600381111561223557fe5b600381111561224057fe5b905250600090508160200151600381111561225757fe5b146122815761227360096021836020015160038111156118e657fe5b93506000925061259c915050565b61228b868661359b565b60c08201819052604080516020810182529083015181526122ac9190613637565b60608301819052602083018260038111156122c357fe5b60038111156122ce57fe5b90525060009050816020015160038111156122e557fe5b14612337576040805162461bcd60e51b815260206004820181905260248201527f4d494e545f45584348414e47455f43414c43554c4154494f4e5f4641494c4544604482015290519081900360640190fd5b612347600d548260600151612f35565b608083018190526020830182600381111561235e57fe5b600381111561236957fe5b905250600090508160200151600381111561238057fe5b146123bc5760405162461bcd60e51b8152600401808060200182810382526028815260200180614cce6028913960400191505060405180910390fd5b6001600160a01b0386166000908152600e602052604090205460608201516123e49190612f35565b60a08301819052602083018260038111156123fb57fe5b600381111561240657fe5b905250600090508160200151600381111561241d57fe5b146124595760405162461bcd60e51b815260040180806020018281038252602b815260200180614b79602b913960400191505060405180910390fd5b6080810151600d5560a08101516001600160a01b0387166000818152600e60209081526040918290209390935560c084015160608086015183519485529484019190915282820193909352517f4c209b5fc8ad50758f13e2e1088ba56a560dff690a1c6fef26394f4c03821c4f929181900390910190a1606081015160408051918252516001600160a01b038816913091600080516020614c158339815191529181900360200190a360055460c08201516060830151604080516341c728b960e01b81523060048201526001600160a01b038b81166024830152604482019490945260648101929092525191909216916341c728b991608480830192600092919082900301818387803b15801561256f57600080fd5b505af1158015612583573d6000803e3d6000fd5b5060009250612590915050565b8160c001519350935050505b9250929050565b600d546000908190806125be5750506007546000915061264e565b60006125c86129b5565b905060006125d4614987565b60006125e584600b54600c5461364e565b9350905060008160038111156125f757fe5b1461260c5795506000945061264e9350505050565b612616838661368c565b92509050600081600381111561262857fe5b1461263d5795506000945061264e9350505050565b505160009550935061264e92505050565b9091565b600554604080516317b9b84b60e31b81523060048201526001600160a01b03868116602483015285811660448301526064820185905291516000938493169163bdcdc25891608480830192602092919082900301818787803b1580156126b757600080fd5b505af11580156126cb573d6000803e3d6000fd5b505050506040513d60208110156126e157600080fd5b505190508015612700576126f86003604a83612ecf565b91505061295a565b836001600160a01b0316856001600160a01b03161415612726576126f86002604b6120dd565b60006001600160a01b038781169087161415612745575060001961276d565b506001600160a01b038086166000908152600f60209081526040808320938a16835292905220545b60008060008061277d8589612e44565b9094509250600084600381111561279057fe5b146127ae576127a16009604b6120dd565b965050505050505061295a565b6001600160a01b038a166000908152600e60205260409020546127d19089612e44565b909450915060008460038111156127e457fe5b146127f5576127a16009604c6120dd565b6001600160a01b0389166000908152600e60205260409020546128189089612f35565b9094509050600084600381111561282b57fe5b1461283c576127a16009604d6120dd565b6001600160a01b03808b166000908152600e6020526040808220859055918b168152208190556000198514612894576001600160a01b03808b166000908152600f60209081526040808320938f168352929052208390555b886001600160a01b03168a6001600160a01b0316600080516020614c158339815191528a6040518082815260200191505060405180910390a36005546040805163352b4a3f60e11b81523060048201526001600160a01b038d811660248301528c81166044830152606482018c905291519190921691636a56947e91608480830192600092919082900301818387803b15801561293057600080fd5b505af1158015612944573d6000803e3d6000fd5b5060009250612951915050565b96505050505050505b949350505050565b600080600061296f614987565b6129798686612e67565b9092509050600082600381111561298c57fe5b1461299d575091506000905061259c565b60006129a88261373c565b9350935050509250929050565b60008060006129c44734612e44565b909250905060008260038111156129d757fe5b14610fdb57600080fd5b60008054819060ff16612a28576040805162461bcd60e51b815260206004820152600a6024820152691c994b595b9d195c995960b21b604482015290519081900360640190fd5b6000805460ff19168155612a3a6116fe565b90508015612a5857610b4a816010811115612a5157fe5b60366120dd565b610b6133338661374b565b600354600090819061010090046001600160a01b03163314612a8b57611fc2600160316120dd565b612a93612ccb565b60095414612aa757611fc2600a60336120dd565b82612ab06129b5565b1015612ac257611fc2600e60326120dd565b600c54831115612ad857611fc2600260346120dd565b50600c5482810390811115612b1e5760405162461bcd60e51b8152600401808060200182810382526024815260200180614d2a6024913960400191505060405180910390fd5b600c819055600354612b3e9061010090046001600160a01b031684613b30565b600354604080516101009092046001600160a01b0316825260208201859052818101839052517f3bad0c59cf2f06e7314077049f48a93578cd16f5ef92329f1dab1420a99c177e916060908290030190a16000611281565b6000805460ff16612bdb576040805162461bcd60e51b815260206004820152600a6024820152691c994b595b9d195c995960b21b604482015290519081900360640190fd5b6000805460ff19168155612bed6116fe565b90508015612c0b57611354816010811115612c0457fe5b60276120dd565b61136533600085613b66565b6001600160a01b038116600090815260106020526040812080548291829182918291612c4e575060009450849350612cc692505050565b612c5e8160000154600a5461402d565b90945092506000846003811115612c7157fe5b14612c86575091935060009250612cc6915050565b612c9483826001015461406c565b90945091506000846003811115612ca757fe5b14612cbc575091935060009250612cc6915050565b5060009450925050505b915091565b4390565b600354600090819061010090046001600160a01b03163314612cf757611fc2600160426120dd565b612cff612ccb565b60095414612d1357611fc2600a60416120dd565b600660009054906101000a90046001600160a01b03169050826001600160a01b0316632191f92a6040518163ffffffff1660e01b815260040160206040518083038186803b158015612d6457600080fd5b505afa158015612d78573d6000803e3d6000fd5b505050506040513d6020811015612d8e57600080fd5b5051612de1576040805162461bcd60e51b815260206004820152601c60248201527f6d61726b6572206d6574686f642072657475726e65642066616c736500000000604482015290519081900360640190fd5b600680546001600160a01b0319166001600160a01b03858116918217909255604080519284168352602083019190915280517fedffc32e068c7c95dfd4bdfd5c4d939a084d6b11c4199eac8436ed234d72f9269281900390910190a16000611281565b600080838311612e5b57506000905081830361259c565b5060039050600061259c565b6000612e71614987565b600080612e8286600001518661402d565b90925090506000826003811115612e9557fe5b14612eb45750604080516020810190915260008152909250905061259c565b60408051602081019091529081526000969095509350505050565b60007f45b96fe442630264581b197e84bbada861235052c5a1aadfff9ea4e40a969aa0846010811115612efe57fe5b846050811115612f0a57fe5b604080519283526020830191909152818101859052519081900360600190a183601081111561295a57fe5b600080838301848110612f4d5760009250905061259c565b50600291506000905061259c565b6000806000612f68614987565b612f728787612e67565b90925090506000826003811115612f8557fe5b14612f965750915060009050612faf565b612fa8612fa28261373c565b86612f35565b9350935050505b935093915050565b60008054819060ff16612ffe576040805162461bcd60e51b815260206004820152600a6024820152691c994b595b9d195c995960b21b604482015290519081900360640190fd5b6000805460ff191681556130106116fe565b9050801561303b5761302e81601081111561302757fe5b600f6120dd565b9250600091506130d29050565b836001600160a01b031663a6afed956040518163ffffffff1660e01b8152600401602060405180830381600087803b15801561307657600080fd5b505af115801561308a573d6000803e3d6000fd5b505050506040513d60208110156130a057600080fd5b5051905080156130c05761302e8160108111156130b957fe5b60106120dd565b6130cc33878787614097565b92509250505b6000805460ff191660011790559094909350915050565b6005546040805163d02f735160e01b81523060048201526001600160a01b038781166024830152868116604483015285811660648301526084820185905291516000938493169163d02f73519160a480830192602092919082900301818787803b15801561315657600080fd5b505af115801561316a573d6000803e3d6000fd5b505050506040513d602081101561318057600080fd5b505190508015613197576126f86003601b83612ecf565b846001600160a01b0316846001600160a01b031614156131bd576126f86006601c6120dd565b6001600160a01b0384166000908152600e6020526040812054819081906131e49087612e44565b909350915060008360038111156131f757fe5b1461321a5761320f6009601a8560038111156118e657fe5b94505050505061295a565b6001600160a01b0388166000908152600e602052604090205461323d9087612f35565b9093509050600083600381111561325057fe5b146132685761320f600960198560038111156118e657fe5b6001600160a01b038088166000818152600e60209081526040808320879055938c168083529184902085905583518a815293519193600080516020614c15833981519152929081900390910190a360055460408051636d35bf9160e01b81523060048201526001600160a01b038c811660248301528b811660448301528a81166064830152608482018a905291519190921691636d35bf919160a480830192600092919082900301818387803b15801561332157600080fd5b505af1158015613335573d6000803e3d6000fd5b5060009250613342915050565b9998505050505050505050565b6000805460ff16613394576040805162461bcd60e51b815260206004820152600a6024820152691c994b595b9d195c995960b21b604482015290519081900360640190fd5b6000805460ff191681556133a66116fe565b905080156133c4576113548160108111156133bd57fe5b60086120dd565b611365338461461a565b6000805460ff16613413576040805162461bcd60e51b815260206004820152600a6024820152691c994b595b9d195c995960b21b604482015290519081900360640190fd5b6000805460ff191681556134256116fe565b9050801561343c57611354816010811115612c0457fe5b61136533846000613b66565b60008054819060ff1661348f576040805162461bcd60e51b815260206004820152600a6024820152691c994b595b9d195c995960b21b604482015290519081900360640190fd5b6000805460ff191681556134a16116fe565b905080156134cc576134bf8160108111156134b857fe5b60356120dd565b9250600091506134dd9050565b6134d733868661374b565b92509250505b6000805460ff1916600117905590939092509050565b60035460009061010090046001600160a01b0316331461351957611159600160476120dd565b613521612ccb565b6009541461353557611159600a60486120dd565b670de0b6b3a764000082111561355157611159600260496120dd565b6008805490839055604080518281526020810185905281517faaa68312e2ea9d50e16af5068410ab56e1a1fd06037b1a35664812c30f821460929181900390910190a16000611281565b6000336001600160a01b038416146135ec576040805162461bcd60e51b815260206004820152600f60248201526e0e6cadcc8cae440dad2e6dac2e8c6d608b1b604482015290519081900360640190fd5b813414613631576040805162461bcd60e51b815260206004820152600e60248201526d0ecc2d8eaca40dad2e6dac2e8c6d60931b604482015290519081900360640190fd5b50919050565b6000806000613644614987565b6129798686614928565b60008060008061365e8787612f35565b9092509050600082600381111561367157fe5b146136825750915060009050612faf565b612fa88186612e44565b6000613696614987565b6000806136ab86670de0b6b3a764000061402d565b909250905060008260038111156136be57fe5b146136dd5750604080516020810190915260008152909250905061259c565b6000806136ea838861406c565b909250905060008260038111156136fd57fe5b1461371f5750604080516020810190915260008152909450925061259c915050565b604080516020810190915290815260009890975095505050505050565b51670de0b6b3a7640000900490565b60055460408051631200453160e11b81523060048201526001600160a01b0386811660248301528581166044830152606482018590529151600093849384939116916324008a629160848082019260209290919082900301818787803b1580156137b457600080fd5b505af11580156137c8573d6000803e3d6000fd5b505050506040513d60208110156137de57600080fd5b505190508015613802576137f56003603883612ecf565b925060009150612faf9050565b61380a612ccb565b6009541461381e576137f5600a60396120dd565b613826614a56565b6001600160a01b038616600090815260106020526040902060010154606082015261385086612c17565b608083018190526020830182600381111561386757fe5b600381111561387257fe5b905250600090508160200151600381111561388957fe5b146138b3576138a560096037836020015160038111156118e657fe5b935060009250612faf915050565b6000198514156138cc57608081015160408201526138d4565b604081018590525b6138e287826040015161359b565b60e0820181905260808201516138f791612e44565b60a083018190526020830182600381111561390e57fe5b600381111561391957fe5b905250600090508160200151600381111561393057fe5b1461396c5760405162461bcd60e51b815260040180806020018281038252603a815260200180614bdb603a913960400191505060405180910390fd5b61397c600b548260e00151612e44565b60c083018190526020830182600381111561399357fe5b600381111561399e57fe5b90525060009050816020015160038111156139b557fe5b146139f15760405162461bcd60e51b8152600401808060200182810382526031815260200180614c356031913960400191505060405180910390fd5b60a080820180516001600160a01b03808a16600081815260106020908152604091829020948555600a5460019095019490945560c0870151600b81905560e088015195518251948f16855294840192909252828101949094526060820192909252608081019190915290517f1a2a22cb034d26d1854bdc6666a5b91fe25efbbb5dcad3b0355478d6f5c362a1929181900390910190a160055460e0820151606083015160408051631ededc9160e01b81523060048201526001600160a01b038c811660248301528b8116604483015260648201949094526084810192909252519190921691631ededc919160a480830192600092919082900301818387803b158015613afc57600080fd5b505af1158015613b10573d6000803e3d6000fd5b5060009250613b1d915050565b8160e00151935093505050935093915050565b6040516001600160a01b0383169082156108fc029083906000818181858888f19350505050158015611b15573d6000803e3d6000fd5b6000821580613b73575081155b613bae5760405162461bcd60e51b8152600401808060200182810382526034815260200180614cf66034913960400191505060405180910390fd5b613bb6614a18565b613bbe6125a3565b6040830181905260208301826003811115613bd557fe5b6003811115613be057fe5b9052506000905081602001516003811115613bf757fe5b14613c1b57613c136009602b836020015160038111156118e657fe5b915050611281565b8315613c9c576060810184905260408051602081018252908201518152613c429085612962565b6080830181905260208301826003811115613c5957fe5b6003811115613c6457fe5b9052506000905081602001516003811115613c7b57fe5b14613c9757613c1360096029836020015160038111156118e657fe5b613d15565b613cb88360405180602001604052808460400151815250613637565b6060830181905260208301826003811115613ccf57fe5b6003811115613cda57fe5b9052506000905081602001516003811115613cf157fe5b14613d0d57613c136009602a836020015160038111156118e657fe5b608081018390525b60055460608201516040805163eabe7d9160e01b81523060048201526001600160a01b03898116602483015260448201939093529051600093929092169163eabe7d919160648082019260209290919082900301818787803b158015613d7a57600080fd5b505af1158015613d8e573d6000803e3d6000fd5b505050506040513d6020811015613da457600080fd5b505190508015613dc457613dbb6003602883612ecf565b92505050611281565b613dcc612ccb565b60095414613de057613dbb600a602c6120dd565b613df0600d548360600151612e44565b60a0840181905260208401826003811115613e0757fe5b6003811115613e1257fe5b9052506000905082602001516003811115613e2957fe5b14613e4557613dbb6009602e846020015160038111156118e657fe5b6001600160a01b0386166000908152600e60205260409020546060830151613e6d9190612e44565b60c0840181905260208401826003811115613e8457fe5b6003811115613e8f57fe5b9052506000905082602001516003811115613ea657fe5b14613ec257613dbb6009602d846020015160038111156118e657fe5b8160800151613ecf6129b5565b1015613ee157613dbb600e602f6120dd565b613eef868360800151613b30565b60a0820151600d5560c08201516001600160a01b0387166000818152600e6020908152604091829020939093556060850151815190815290513093600080516020614c15833981519152928290030190a36080820151606080840151604080516001600160a01b038b168152602081019490945283810191909152517fe5b754fb1abb7f01b499791d0b820ae3b6af3424ac1c59768edb53f4ec31a9299281900390910190a160055460808301516060840151604080516351dff98960e01b81523060048201526001600160a01b038b81166024830152604482019490945260648101929092525191909216916351dff98991608480830192600092919082900301818387803b15801561400257600080fd5b505af1158015614016573d6000803e3d6000fd5b5060009250614023915050565b9695505050505050565b600080836140405750600090508061259c565b8383028385828161404d57fe5b04146140615750600291506000905061259c565b60009250905061259c565b60008082614080575060019050600061259c565b600083858161408b57fe5b04915091509250929050565b60055460408051632fe3f38f60e11b81523060048201526001600160a01b0384811660248301528781166044830152868116606483015260848201869052915160009384938493911691635fc7e71e9160a48082019260209290919082900301818787803b15801561410857600080fd5b505af115801561411c573d6000803e3d6000fd5b505050506040513d602081101561413257600080fd5b505190508015614156576141496003601283612ecf565b9250600091506146119050565b61415e612ccb565b6009541461417257614149600a60166120dd565b61417a612ccb565b846001600160a01b0316636c540baf6040518163ffffffff1660e01b815260040160206040518083038186803b1580156141b357600080fd5b505afa1580156141c7573d6000803e3d6000fd5b505050506040513d60208110156141dd57600080fd5b5051146141f057614149600a60116120dd565b866001600160a01b0316866001600160a01b0316141561421657614149600660176120dd565b8461422757614149600760156120dd565b60001985141561423d57614149600760146120dd565b60008061424b89898961374b565b9092509050811561427b5761426c82601081111561426557fe5b60186120dd565b94506000935061461192505050565b6005546040805163c488847b60e01b81523060048201526001600160a01b038981166024830152604482018590528251600094859492169263c488847b926064808301939192829003018186803b1580156142d557600080fd5b505afa1580156142e9573d6000803e3d6000fd5b505050506040513d60408110156142ff57600080fd5b5080516020909101519092509050811561434a5760405162461bcd60e51b8152600401808060200182810382526033815260200180614c666033913960400191505060405180910390fd5b80886001600160a01b03166370a082318c6040518263ffffffff1660e01b815260040180826001600160a01b03166001600160a01b0316815260200191505060206040518083038186803b1580156143a157600080fd5b505afa1580156143b5573d6000803e3d6000fd5b505050506040513d60208110156143cb57600080fd5b50511015614420576040805162461bcd60e51b815260206004820152601860248201527f4c49515549444154455f5345495a455f544f4f5f4d5543480000000000000000604482015290519081900360640190fd5b60006001600160a01b0389163014156144465761443f308d8d856130e9565b90506144d0565b6040805163b2a02ff160e01b81526001600160a01b038e811660048301528d81166024830152604482018590529151918b169163b2a02ff1916064808201926020929091908290030181600087803b1580156144a157600080fd5b505af11580156144b5573d6000803e3d6000fd5b505050506040513d60208110156144cb57600080fd5b505190505b801561451a576040805162461bcd60e51b81526020600482015260146024820152731d1bdad95b881cd95a5e9d5c994819985a5b195960621b604482015290519081900360640190fd5b604080516001600160a01b03808f168252808e1660208301528183018790528b1660608201526080810184905290517f298637f684da70674f26509b10f07ec2fbc77a335ab1e7d6215a4b2484d8bb529181900360a00190a1600554604080516347ef3b3b60e01b81523060048201526001600160a01b038c811660248301528f811660448301528e811660648301526084820188905260a48201869052915191909216916347ef3b3b9160c480830192600092919082900301818387803b1580156145e557600080fd5b505af11580156145f9573d6000803e3d6000fd5b5060009250614606915050565b975092955050505050505b94509492505050565b6005546040805163368f515360e21b81523060048201526001600160a01b0385811660248301526044820185905291516000938493169163da3d454c91606480830192602092919082900301818787803b15801561467757600080fd5b505af115801561468b573d6000803e3d6000fd5b505050506040513d60208110156146a157600080fd5b5051905080156146c0576146b86003600e83612ecf565b915050610e6f565b6146c8612ccb565b600954146146db576146b8600a806120dd565b826146e46129b5565b10156146f6576146b8600e60096120dd565b6146fe614a9c565b61470785612c17565b602083018190528282600381111561471b57fe5b600381111561472657fe5b905250600090508151600381111561473a57fe5b1461475f5761475660096007836000015160038111156118e657fe5b92505050610e6f565b61476d816020015185612f35565b604083018190528282600381111561478157fe5b600381111561478c57fe5b90525060009050815160038111156147a057fe5b146147bc576147566009600c836000015160038111156118e657fe5b6147c8600b5485612f35565b60608301819052828260038111156147dc57fe5b60038111156147e757fe5b90525060009050815160038111156147fb57fe5b14614817576147566009600b836000015160038111156118e657fe5b6148218585613b30565b604080820180516001600160a01b03881660008181526010602090815290859020928355600a54600190930192909255606080860151600b81905593518551928352928201899052818501929092529081019190915290517f13ed6866d4e1ee6da46f845c46d7e54120883d75c5ea9a2dacc1c4ca8984ab809181900360800190a160055460408051635c77860560e01b81523060048201526001600160a01b0388811660248301526044820188905291519190921691635c77860591606480830192600092919082900301818387803b1580156148fe57600080fd5b505af1158015614912573d6000803e3d6000fd5b506000925061491f915050565b95945050505050565b6000614932614987565b600080614947670de0b6b3a76400008761402d565b9092509050600082600381111561495a57fe5b146149795750604080516020810190915260008152909250905061259c565b6129a881866000015161368c565b6040518060200160405280600081525090565b828054600181600116156101000203166002900490600052602060002090601f016020900481019282601f106149db57805160ff1916838001178555614a08565b82800160010185558215614a08579182015b82811115614a085782518255916020019190600101906149ed565b50614a14929150614ac5565b5090565b6040805160e0810190915280600081526020016000815260200160008152602001600081526020016000815260200160008152602001600081525090565b6040805161010081019091528060008152602001600081526020016000815260200160008152602001600081526020016000815260200160008152602001600081525090565b604080516080810190915280600081526020016000815260200160008152602001600081525090565b610fdf91905b80821115614a145760008155600101614acb56fe6f6e6c792061646d696e206d617920696e697469616c697a6520746865206d61726b65746d61726b6574206d6179206f6e6c7920626520696e697469616c697a6564206f6e6365696e697469616c2065786368616e67652072617465206d7573742062652067726561746572207468616e207a65726f2e73657474696e6720696e7465726573742072617465206d6f64656c206661696c65644d494e545f4e45575f4143434f554e545f42414c414e43455f43414c43554c4154494f4e5f4641494c4544626f72726f7742616c616e636553746f7265643a20626f72726f7742616c616e636553746f726564496e7465726e616c206661696c656452455041595f424f52524f575f4e45575f4143434f554e545f424f52524f575f42414c414e43455f43414c43554c4154494f4e5f4641494c4544ddf252ad1be2c89b69c2b068fc378daa952ba7f163c4a11628f55a4df523b3ef52455041595f424f52524f575f4e45575f544f54414c5f42414c414e43455f43414c43554c4154494f4e5f4641494c45444c49515549444154455f434f4d5054524f4c4c45525f43414c43554c4154455f414d4f554e545f5345495a455f4641494c454465786368616e67655261746553746f7265643a2065786368616e67655261746553746f726564496e7465726e616c206661696c65644d494e545f4e45575f544f54414c5f535550504c595f43414c43554c4154494f4e5f4641494c45446f6e65206f662072656465656d546f6b656e73496e206f722072656465656d416d6f756e74496e206d757374206265207a65726f72656475636520726573657276657320756e657870656374656420756e646572666c6f77a265627a7a72315820f92c7c0cbe5161aadb7a8ef6cd593dc9e8fea1cfa44171c682b27b603d818cfd64736f6c634300051100326f6e6c792061646d696e206d617920696e697469616c697a6520746865206d61726b65746d61726b6574206d6179206f6e6c7920626520696e697469616c697a6564206f6e6365696e697469616c2065786368616e67652072617465206d7573742062652067726561746572207468616e207a65726f2e73657474696e6720696e7465726573742072617465206d6f64656c206661696c6564",
  "bytecodeSha1": "da39a3ee5e6b4b0d3255bfef95601890afd80709",
  "compiler": {
    "evm_version": "istanbul",
    "optimizer": {
      "enabled": true,
      "runs": 200
    },
    "version": "0.5.17+commit.d19bba13"
  },
  "contractName": "nCEther",
  "language": "Solidity",
  "natspec": {
    "methods": {
      "_acceptAdmin()": {
        "details": "Admin function for pending admin to accept role and update admin",
        "notice": "Accepts transfer of admin rights. msg.sender must be pendingAdmin",
        "return": "uint 0=success, otherwise a failure (see ErrorReporter.sol for details)"
      },
      "_reduceReserves(uint256)": {
        "notice": "Accrues interest and reduces reserves by transferring to admin",
        "params": {
          "reduceAmount": "Amount of reduction to reserves"
        },
        "return": "uint 0=success, otherwise a failure (see ErrorReporter.sol for details)"
      },
      "_setComptroller(address)": {
        "details": "Admin function to set a new comptroller",
        "notice": "Sets a new comptroller for the market",
        "return": "uint 0=success, otherwise a failure (see ErrorReporter.sol for details)"
      },
      "_setInterestRateModel(address)": {
        "details": "Admin function to accrue interest and update the interest rate model",
        "notice": "accrues interest and updates the interest rate model using _setInterestRateModelFresh",
        "params": {
          "newInterestRateModel": "the new interest rate model to use"
        },
        "return": "uint 0=success, otherwise a failure (see ErrorReporter.sol for details)"
      },
      "_setPendingAdmin(address)": {
        "details": "Admin function to begin change of admin. The newPendingAdmin must call `_acceptAdmin` to finalize the transfer.",
        "notice": "Begins transfer of admin rights. The newPendingAdmin must call `_acceptAdmin` to finalize the transfer.",
        "params": {
          "newPendingAdmin": "New pending admin."
        },
        "return": "uint 0=success, otherwise a failure (see ErrorReporter.sol for details)"
      },
      "_setReserveFactor(uint256)": {
        "details": "Admin function to accrue interest and set a new reserve factor",
        "notice": "accrues interest and sets a new reserve factor for the protocol using _setReserveFactorFresh",
        "return": "uint 0=success, otherwise a failure (see ErrorReporter.sol for details)"
      },
      "accrueInterest()": {
        "details": "This calculates interest accrued from the last checkpointed block  up to the current block and writes new checkpoint to storage.",
        "notice": "Applies accrued interest to total borrows and reserves"
      },
      "allowance(address,address)": {
        "notice": "Get the current allowance from `owner` for `spender`",
        "params": {
          "owner": "The address of the account which owns the tokens to be spent",
          "spender": "The address of the account which may transfer tokens"
        },
        "return": "The number of tokens allowed to be spent (-1 means infinite)"
      },
      "approve(address,uint256)": {
        "details": "This will overwrite the approval amount for `spender` and is subject to issues noted [here](https://eips.ethereum.org/EIPS/eip-20#approve)",
        "notice": "Approve `spender` to transfer up to `amount` from `src`",
        "params": {
          "amount": "The number of tokens that are approved (-1 means infinite)",
          "spender": "The address of the account which may transfer tokens"
        },
        "return": "Whether or not the approval succeeded"
      },
      "balanceOf(address)": {
        "notice": "Get the token balance of the `owner`",
        "params": {
          "owner": "The address of the account to query"
        },
        "return": "The number of tokens owned by `owner`"
      },
      "balanceOfUnderlying(address)": {
        "details": "This also accrues interest in a transaction",
        "notice": "Get the underlying balance of the `owner`",
        "params": {
          "owner": "The address of the account to query"
        },
        "return": "The amount of underlying owned by `owner`"
      },
      "borrow(uint256)": {
        "notice": "Sender borrows assets from the protocol to their own address",
        "params": {
          "borrowAmount": "The amount of the underlying asset to borrow"
        },
        "return": "uint 0=success, otherwise a failure (see ErrorReporter.sol for details)"
      },
      "borrowBalanceCurrent(address)": {
        "notice": "Accrue interest to updated borrowIndex and then calculate account's borrow balance using the updated borrowIndex",
        "params": {
          "account": "The address whose balance should be calculated after updating borrowIndex"
        },
        "return": "The calculated balance"
      },
      "borrowBalanceStored(address)": {
        "notice": "Return the borrow balance of account based on stored data",
        "params": {
          "account": "The address whose balance should be calculated"
        },
        "return": "The calculated balance"
      },
      "borrowRatePerBlock()": {
        "notice": "Returns the current per-block borrow interest rate for this cToken",
        "return": "The borrow interest rate per block, scaled by 1e18"
      },
      "exchangeRateCurrent()": {
        "notice": "Accrue interest then return the up-to-date exchange rate",
        "return": "Calculated exchange rate scaled by 1e18"
      },
      "exchangeRateStored()": {
        "details": "This function does not accrue interest before calculating the exchange rate",
        "notice": "Calculates the exchange rate from the underlying to the CToken",
        "return": "Calculated exchange rate scaled by 1e18"
      },
      "getAccountSnapshot(address)": {
        "details": "This is used by comptroller to more efficiently perform liquidity checks.",
        "notice": "Get a snapshot of the account's balances, and the cached exchange rate",
        "params": {
          "account": "Address of the account to snapshot"
        },
        "return": "(possible error, token balance, borrow balance, exchange rate mantissa)"
      },
      "getCash()": {
        "notice": "Get cash balance of this cToken in the underlying asset",
        "return": "The quantity of underlying asset owned by this contract"
      },
      "initialize(address,address,uint256,string,string,uint8)": {
        "notice": "Initialize the money market",
        "params": {
          "comptroller_": "The address of the Comptroller",
          "decimals_": "EIP-20 decimal precision of this token",
          "initialExchangeRateMantissa_": "The initial exchange rate, scaled by 1e18",
          "interestRateModel_": "The address of the interest rate model",
          "name_": "EIP-20 name of this token",
          "symbol_": "EIP-20 symbol of this token"
        }
      },
      "liquidateBorrow(address,address)": {
        "details": "Reverts upon any failure",
        "notice": "The sender liquidates the borrowers collateral. The collateral seized is transferred to the liquidator.",
        "params": {
          "borrower": "The borrower of this cToken to be liquidated",
          "cTokenCollateral": "The market in which to seize collateral from the borrower"
        }
      },
      "mint()": {
        "details": "Reverts upon any failure",
        "notice": "Sender supplies assets into the market and receives cTokens in exchange"
      },
      "redeem(uint256)": {
        "details": "Accrues interest whether or not the operation succeeds, unless reverted",
        "notice": "Sender redeems cTokens in exchange for the underlying asset",
        "params": {
          "redeemTokens": "The number of cTokens to redeem into underlying"
        },
        "return": "uint 0=success, otherwise a failure (see ErrorReporter.sol for details)"
      },
      "redeemUnderlying(uint256)": {
        "details": "Accrues interest whether or not the operation succeeds, unless reverted",
        "notice": "Sender redeems cTokens in exchange for a specified amount of underlying asset",
        "params": {
          "redeemAmount": "The amount of underlying to redeem"
        },
        "return": "uint 0=success, otherwise a failure (see ErrorReporter.sol for details)"
      },
      "repayBorrow()": {
        "details": "Reverts upon any failure",
        "notice": "Sender repays their own borrow"
      },
      "repayBorrowBehalf(address)": {
        "details": "Reverts upon any failure",
        "notice": "Sender repays a borrow belonging to borrower",
        "params": {
          "borrower": "the account with the debt being payed off"
        }
      },
      "seize(address,address,uint256)": {
        "details": "Will fail unless called by another cToken during the process of liquidation. Its absolutely critical to use msg.sender as the borrowed cToken and not a parameter.",
        "notice": "Transfers collateral tokens (this market) to the liquidator.",
        "params": {
          "borrower": "The account having collateral seized",
          "liquidator": "The account receiving seized collateral",
          "seizeTokens": "The number of cTokens to seize"
        },
        "return": "uint 0=success, otherwise a failure (see ErrorReporter.sol for details)"
      },
      "supplyRatePerBlock()": {
        "notice": "Returns the current per-block supply interest rate for this cToken",
        "return": "The supply interest rate per block, scaled by 1e18"
      },
      "totalBorrowsCurrent()": {
        "notice": "Returns the current total borrows plus accrued interest",
        "return": "The total borrows with interest"
      },
      "transfer(address,uint256)": {
        "notice": "Transfer `amount` tokens from `msg.sender` to `dst`",
        "params": {
          "amount": "The number of tokens to transfer",
          "dst": "The address of the destination account"
        },
        "return": "Whether or not the transfer succeeded"
      },
      "transferFrom(address,address,uint256)": {
        "notice": "Transfer `amount` tokens from `src` to `dst`",
        "params": {
          "amount": "The number of tokens to transfer",
          "dst": "The address of the destination account",
          "src": "The address of the source account"
        },
        "return": "Whether or not the transfer succeeded"
      }
    }
  },
  "opcodes": "PUSH1 0x80 PUSH1 0x40 MSTORE PUSH1 0x4 CALLDATASIZE LT PUSH2 0x272 JUMPI PUSH1 0x0 CALLDATALOAD PUSH1 0xE0 SHR DUP1 PUSH4 0x95D89B41 GT PUSH2 0x14F JUMPI DUP1 PUSH4 0xC37F68E2 GT PUSH2 0xC1 JUMPI DUP1 PUSH4 0xF2B3ABBD GT PUSH2 0x7A JUMPI DUP1 PUSH4 0xF2B3ABBD EQ PUSH2 0xA22 JUMPI DUP1 PUSH4 0xF3FDB15A EQ PUSH2 0xA55 JUMPI DUP1 PUSH4 0xF851A440 EQ PUSH2 0xA6A JUMPI DUP1 PUSH4 0xF8F9DA28 EQ PUSH2 0xA7F JUMPI DUP1 PUSH4 0xFCA7820B EQ PUSH2 0xA94 JUMPI DUP1 PUSH4 0xFE9C44AE EQ PUSH2 0xABE JUMPI PUSH2 0x272 JUMP JUMPDEST DUP1 PUSH4 0xC37F68E2 EQ PUSH2 0x8FF JUMPI DUP1 PUSH4 0xC5EBEAEC EQ PUSH2 0x958 JUMPI DUP1 PUSH4 0xDB006A75 EQ PUSH2 0x982 JUMPI DUP1 PUSH4 0xDD62ED3E EQ PUSH2 0x9AC JUMPI DUP1 PUSH4 0xE5974619 EQ PUSH2 0x9E7 JUMPI DUP1 PUSH4 0xE9C714F2 EQ PUSH2 0xA0D JUMPI PUSH2 0x272 JUMP JUMPDEST DUP1 PUSH4 0xAA5AF0FD GT PUSH2 0x113 JUMPI DUP1 PUSH4 0xAA5AF0FD EQ PUSH2 0x81C JUMPI DUP1 PUSH4 0xAAE40A2A EQ PUSH2 0x831 JUMPI DUP1 PUSH4 0xAE9D70B0 EQ PUSH2 0x85F JUMPI DUP1 PUSH4 0xB2A02FF1 EQ PUSH2 0x874 JUMPI DUP1 PUSH4 0xB71D1A0C EQ PUSH2 0x8B7 JUMPI DUP1 PUSH4 0xBD6D894D EQ PUSH2 0x8EA JUMPI PUSH2 0x272 JUMP JUMPDEST DUP1 PUSH4 0x95D89B41 EQ PUSH2 0x627 JUMPI DUP1 PUSH4 0x95DD9193 EQ PUSH2 0x63C JUMPI DUP1 PUSH4 0x99D8C1B4 EQ PUSH2 0x66F JUMPI DUP1 PUSH4 0xA6AFED95 EQ PUSH2 0x7CE JUMPI DUP1 PUSH4 0xA9059CBB EQ PUSH2 0x7E3 JUMPI PUSH2 0x272 JUMP JUMPDEST DUP1 PUSH4 0x3B1D21A2 GT PUSH2 0x1E8 JUMPI DUP1 PUSH4 0x601A0BF1 GT PUSH2 0x1AC JUMPI DUP1 PUSH4 0x601A0BF1 EQ PUSH2 0x561 JUMPI DUP1 PUSH4 0x6C540BAF EQ PUSH2 0x58B JUMPI DUP1 PUSH4 0x70A08231 EQ PUSH2 0x5A0 JUMPI DUP1 PUSH4 0x73ACEE98 EQ PUSH2 0x5D3 JUMPI DUP1 PUSH4 0x852A12E3 EQ PUSH2 0x5E8 JUMPI DUP1 PUSH4 0x8F840DDD EQ PUSH2 0x612 JUMPI PUSH2 0x272 JUMP JUMPDEST DUP1 PUSH4 0x3B1D21A2 EQ PUSH2 0x4E7 JUMPI DUP1 PUSH4 0x4576B5DB EQ PUSH2 0x4FC JUMPI DUP1 PUSH4 0x47BD3718 EQ PUSH2 0x52F JUMPI DUP1 PUSH4 0x4E4D9FEA EQ PUSH2 0x544 JUMPI DUP1 PUSH4 0x5FE3B567 EQ PUSH2 0x54C JUMPI PUSH2 0x272 JUMP JUMPDEST DUP1 PUSH4 0x18160DDD GT PUSH2 0x23A JUMPI DUP1 PUSH4 0x18160DDD EQ PUSH2 0x3EB JUMPI DUP1 PUSH4 0x182DF0F5 EQ PUSH2 0x400 JUMPI DUP1 PUSH4 0x23B872DD EQ PUSH2 0x415 JUMPI DUP1 PUSH4 0x26782247 EQ PUSH2 0x458 JUMPI DUP1 PUSH4 0x313CE567 EQ PUSH2 0x489 JUMPI DUP1 PUSH4 0x3AF9E669 EQ PUSH2 0x4B4 JUMPI PUSH2 0x272 JUMP JUMPDEST DUP1 PUSH4 0x6FDDE03 EQ PUSH2 0x2B0 JUMPI DUP1 PUSH4 0x95EA7B3 EQ PUSH2 0x33A JUMPI DUP1 PUSH4 0x1249C58B EQ PUSH2 0x387 JUMPI DUP1 PUSH4 0x173B9904 EQ PUSH2 0x391 JUMPI DUP1 PUSH4 0x17BFDFBC EQ PUSH2 0x3B8 JUMPI JUMPDEST PUSH1 0x0 PUSH2 0x27D CALLVALUE PUSH2 0xAD3 JUMP JUMPDEST POP SWAP1 POP PUSH2 0x2AD DUP2 PUSH1 0x40 MLOAD DUP1 PUSH1 0x40 ADD PUSH1 0x40 MSTORE DUP1 PUSH1 0xB DUP2 MSTORE PUSH1 0x20 ADD PUSH11 0x1B5A5B9D0819985A5B1959 PUSH1 0xAA SHL DUP2 MSTORE POP PUSH2 0xB7B JUMP JUMPDEST POP STOP JUMPDEST CALLVALUE DUP1 ISZERO PUSH2 0x2BC JUMPI PUSH1 0x0 DUP1 REVERT JUMPDEST POP PUSH2 0x2C5 PUSH2 0xD7B JUMP JUMPDEST PUSH1 0x40 DUP1 MLOAD PUSH1 0x20 DUP1 DUP3 MSTORE DUP4 MLOAD DUP2 DUP4 ADD MSTORE DUP4 MLOAD SWAP2 SWAP3 DUP4 SWAP3 SWAP1 DUP4 ADD SWAP2 DUP6 ADD SWAP1 DUP1 DUP4 DUP4 PUSH1 0x0 JUMPDEST DUP4 DUP2 LT ISZERO PUSH2 0x2FF JUMPI DUP2 DUP2 ADD MLOAD DUP4 DUP3 ADD MSTORE PUSH1 0x20 ADD PUSH2 0x2E7 JUMP JUMPDEST POP POP POP POP SWAP1 POP SWAP1 DUP2 ADD SWAP1 PUSH1 0x1F AND DUP1 ISZERO PUSH2 0x32C JUMPI DUP1 DUP3 SUB DUP1 MLOAD PUSH1 0x1 DUP4 PUSH1 0x20 SUB PUSH2 0x100 EXP SUB NOT AND DUP2 MSTORE PUSH1 0x20 ADD SWAP2 POP JUMPDEST POP SWAP3 POP POP POP PUSH1 0x40 MLOAD DUP1 SWAP2 SUB SWAP1 RETURN JUMPDEST CALLVALUE DUP1 ISZERO PUSH2 0x346 JUMPI PUSH1 0x0 DUP1 REVERT JUMPDEST POP PUSH2 0x373 PUSH1 0x4 DUP1 CALLDATASIZE SUB PUSH1 0x40 DUP2 LT ISZERO PUSH2 0x35D JUMPI PUSH1 0x0 DUP1 REVERT JUMPDEST POP PUSH1 0x1 PUSH1 0x1 PUSH1 0xA0 SHL SUB DUP2 CALLDATALOAD AND SWAP1 PUSH1 0x20 ADD CALLDATALOAD PUSH2 0xE08 JUMP JUMPDEST PUSH1 0x40 DUP1 MLOAD SWAP2 ISZERO ISZERO DUP3 MSTORE MLOAD SWAP1 DUP2 SWAP1 SUB PUSH1 0x20 ADD SWAP1 RETURN JUMPDEST PUSH2 0x38F PUSH2 0xE75 JUMP JUMPDEST STOP JUMPDEST CALLVALUE DUP1 ISZERO PUSH2 0x39D JUMPI PUSH1 0x0 DUP1 REVERT JUMPDEST POP PUSH2 0x3A6 PUSH2 0xEB3 JUMP JUMPDEST PUSH1 0x40 DUP1 MLOAD SWAP2 DUP3 MSTORE MLOAD SWAP1 DUP2 SWAP1 SUB PUSH1 0x20 ADD SWAP1 RETURN JUMPDEST CALLVALUE DUP1 ISZERO PUSH2 0x3C4 JUMPI PUSH1 0x0 DUP1 REVERT JUMPDEST POP PUSH2 0x3A6 PUSH1 0x4 DUP1 CALLDATASIZE SUB PUSH1 0x20 DUP2 LT ISZERO PUSH2 0x3DB JUMPI PUSH1 0x0 DUP1 REVERT JUMPDEST POP CALLDATALOAD PUSH1 0x1 PUSH1 0x1 PUSH1 0xA0 SHL SUB AND PUSH2 0xEB9 JUMP JUMPDEST CALLVALUE DUP1 ISZERO PUSH2 0x3F7 JUMPI PUSH1 0x0 DUP1 REVERT JUMPDEST POP PUSH2 0x3A6 PUSH2 0xF79 JUMP JUMPDEST CALLVALUE DUP1 ISZERO PUSH2 0x40C JUMPI PUSH1 0x0 DUP1 REVERT JUMPDEST POP PUSH2 0x3A6 PUSH2 0xF7F JUMP JUMPDEST CALLVALUE DUP1 ISZERO PUSH2 0x421 JUMPI PUSH1 0x0 DUP1 REVERT JUMPDEST POP PUSH2 0x373 PUSH1 0x4 DUP1 CALLDATASIZE SUB PUSH1 0x60 DUP2 LT ISZERO PUSH2 0x438 JUMPI PUSH1 0x0 DUP1 REVERT JUMPDEST POP PUSH1 0x1 PUSH1 0x1 PUSH1 0xA0 SHL SUB DUP2 CALLDATALOAD DUP2 AND SWAP2 PUSH1 0x20 DUP2 ADD CALLDATALOAD SWAP1 SWAP2 AND SWAP1 PUSH1 0x40 ADD CALLDATALOAD PUSH2 0xFE2 JUMP JUMPDEST CALLVALUE DUP1 ISZERO PUSH2 0x464 JUMPI PUSH1 0x0 DUP1 REVERT JUMPDEST POP PUSH2 0x46D PUSH2 0x1054 JUMP JUMPDEST PUSH1 0x40 DUP1 MLOAD PUSH1 0x1 PUSH1 0x1 PUSH1 0xA0 SHL SUB SWAP1 SWAP3 AND DUP3 MSTORE MLOAD SWAP1 DUP2 SWAP1 SUB PUSH1 0x20 ADD SWAP1 RETURN JUMPDEST CALLVALUE DUP1 ISZERO PUSH2 0x495 JUMPI PUSH1 0x0 DUP1 REVERT JUMPDEST POP PUSH2 0x49E PUSH2 0x1063 JUMP JUMPDEST PUSH1 0x40 DUP1 MLOAD PUSH1 0xFF SWAP1 SWAP3 AND DUP3 MSTORE MLOAD SWAP1 DUP2 SWAP1 SUB PUSH1 0x20 ADD SWAP1 RETURN JUMPDEST CALLVALUE DUP1 ISZERO PUSH2 0x4C0 JUMPI PUSH1 0x0 DUP1 REVERT JUMPDEST POP PUSH2 0x3A6 PUSH1 0x4 DUP1 CALLDATASIZE SUB PUSH1 0x20 DUP2 LT ISZERO PUSH2 0x4D7 JUMPI PUSH1 0x0 DUP1 REVERT JUMPDEST POP CALLDATALOAD PUSH1 0x1 PUSH1 0x1 PUSH1 0xA0 SHL SUB AND PUSH2 0x106C JUMP JUMPDEST CALLVALUE DUP1 ISZERO PUSH2 0x4F3 JUMPI PUSH1 0x0 DUP1 REVERT JUMPDEST POP PUSH2 0x3A6 PUSH2 0x1124 JUMP JUMPDEST CALLVALUE DUP1 ISZERO PUSH2 0x508 JUMPI PUSH1 0x0 DUP1 REVERT JUMPDEST POP PUSH2 0x3A6 PUSH1 0x4 DUP1 CALLDATASIZE SUB PUSH1 0x20 DUP2 LT ISZERO PUSH2 0x51F JUMPI PUSH1 0x0 DUP1 REVERT JUMPDEST POP CALLDATALOAD PUSH1 0x1 PUSH1 0x1 PUSH1 0xA0 SHL SUB AND PUSH2 0x1133 JUMP JUMPDEST CALLVALUE DUP1 ISZERO PUSH2 0x53B JUMPI PUSH1 0x0 DUP1 REVERT JUMPDEST POP PUSH2 0x3A6 PUSH2 0x1288 JUMP JUMPDEST PUSH2 0x38F PUSH2 0x128E JUMP JUMPDEST CALLVALUE DUP1 ISZERO PUSH2 0x558 JUMPI PUSH1 0x0 DUP1 REVERT JUMPDEST POP PUSH2 0x46D PUSH2 0x12D0 JUMP JUMPDEST CALLVALUE DUP1 ISZERO PUSH2 0x56D JUMPI PUSH1 0x0 DUP1 REVERT JUMPDEST POP PUSH2 0x3A6 PUSH1 0x4 DUP1 CALLDATASIZE SUB PUSH1 0x20 DUP2 LT ISZERO PUSH2 0x584 JUMPI PUSH1 0x0 DUP1 REVERT JUMPDEST POP CALLDATALOAD PUSH2 0x12DF JUMP JUMPDEST CALLVALUE DUP1 ISZERO PUSH2 0x597 JUMPI PUSH1 0x0 DUP1 REVERT JUMPDEST POP PUSH2 0x3A6 PUSH2 0x137A JUMP JUMPDEST CALLVALUE DUP1 ISZERO PUSH2 0x5AC JUMPI PUSH1 0x0 DUP1 REVERT JUMPDEST POP PUSH2 0x3A6 PUSH1 0x4 DUP1 CALLDATASIZE SUB PUSH1 0x20 DUP2 LT ISZERO PUSH2 0x5C3 JUMPI PUSH1 0x0 DUP1 REVERT JUMPDEST POP CALLDATALOAD PUSH1 0x1 PUSH1 0x1 PUSH1 0xA0 SHL SUB AND PUSH2 0x1380 JUMP JUMPDEST CALLVALUE DUP1 ISZERO PUSH2 0x5DF JUMPI PUSH1 0x0 DUP1 REVERT JUMPDEST POP PUSH2 0x3A6 PUSH2 0x139B JUMP JUMPDEST CALLVALUE DUP1 ISZERO PUSH2 0x5F4 JUMPI PUSH1 0x0 DUP1 REVERT JUMPDEST POP PUSH2 0x3A6 PUSH1 0x4 DUP1 CALLDATASIZE SUB PUSH1 0x20 DUP2 LT ISZERO PUSH2 0x60B JUMPI PUSH1 0x0 DUP1 REVERT JUMPDEST POP CALLDATALOAD PUSH2 0x1451 JUMP JUMPDEST CALLVALUE DUP1 ISZERO PUSH2 0x61E JUMPI PUSH1 0x0 DUP1 REVERT JUMPDEST POP PUSH2 0x3A6 PUSH2 0x145C JUMP JUMPDEST CALLVALUE DUP1 ISZERO PUSH2 0x633 JUMPI PUSH1 0x0 DUP1 REVERT JUMPDEST POP PUSH2 0x2C5 PUSH2 0x1462 JUMP JUMPDEST CALLVALUE DUP1 ISZERO PUSH2 0x648 JUMPI PUSH1 0x0 DUP1 REVERT JUMPDEST POP PUSH2 0x3A6 PUSH1 0x4 DUP1 CALLDATASIZE SUB PUSH1 0x20 DUP2 LT ISZERO PUSH2 0x65F JUMPI PUSH1 0x0 DUP1 REVERT JUMPDEST POP CALLDATALOAD PUSH1 0x1 PUSH1 0x1 PUSH1 0xA0 SHL SUB AND PUSH2 0x14BA JUMP JUMPDEST CALLVALUE DUP1 ISZERO PUSH2 0x67B JUMPI PUSH1 0x0 DUP1 REVERT JUMPDEST POP PUSH2 0x38F PUSH1 0x4 DUP1 CALLDATASIZE SUB PUSH1 0xC0 DUP2 LT ISZERO PUSH2 0x692 JUMPI PUSH1 0x0 DUP1 REVERT JUMPDEST PUSH1 0x1 PUSH1 0x1 PUSH1 0xA0 SHL SUB DUP3 CALLDATALOAD DUP2 AND SWAP3 PUSH1 0x20 DUP2 ADD CALLDATALOAD SWAP1 SWAP2 AND SWAP2 PUSH1 0x40 DUP3 ADD CALLDATALOAD SWAP2 SWAP1 DUP2 ADD SWAP1 PUSH1 0x80 DUP2 ADD PUSH1 0x60 DUP3 ADD CALLDATALOAD PUSH5 0x100000000 DUP2 GT ISZERO PUSH2 0x6CD JUMPI PUSH1 0x0 DUP1 REVERT JUMPDEST DUP3 ADD DUP4 PUSH1 0x20 DUP3 ADD GT ISZERO PUSH2 0x6DF JUMPI PUSH1 0x0 DUP1 REVERT JUMPDEST DUP1 CALLDATALOAD SWAP1 PUSH1 0x20 ADD SWAP2 DUP5 PUSH1 0x1 DUP4 MUL DUP5 ADD GT PUSH5 0x100000000 DUP4 GT OR ISZERO PUSH2 0x701 JUMPI PUSH1 0x0 DUP1 REVERT JUMPDEST SWAP2 SWAP1 DUP1 DUP1 PUSH1 0x1F ADD PUSH1 0x20 DUP1 SWAP2 DIV MUL PUSH1 0x20 ADD PUSH1 0x40 MLOAD SWAP1 DUP2 ADD PUSH1 0x40 MSTORE DUP1 SWAP4 SWAP3 SWAP2 SWAP1 DUP2 DUP2 MSTORE PUSH1 0x20 ADD DUP4 DUP4 DUP1 DUP3 DUP5 CALLDATACOPY PUSH1 0x0 SWAP3 ADD SWAP2 SWAP1 SWAP2 MSTORE POP SWAP3 SWAP6 SWAP5 SWAP4 PUSH1 0x20 DUP2 ADD SWAP4 POP CALLDATALOAD SWAP2 POP POP PUSH5 0x100000000 DUP2 GT ISZERO PUSH2 0x754 JUMPI PUSH1 0x0 DUP1 REVERT JUMPDEST DUP3 ADD DUP4 PUSH1 0x20 DUP3 ADD GT ISZERO PUSH2 0x766 JUMPI PUSH1 0x0 DUP1 REVERT JUMPDEST DUP1 CALLDATALOAD SWAP1 PUSH1 0x20 ADD SWAP2 DUP5 PUSH1 0x1 DUP4 MUL DUP5 ADD GT PUSH5 0x100000000 DUP4 GT OR ISZERO PUSH2 0x788 JUMPI PUSH1 0x0 DUP1 REVERT JUMPDEST SWAP2 SWAP1 DUP1 DUP1 PUSH1 0x1F ADD PUSH1 0x20 DUP1 SWAP2 DIV MUL PUSH1 0x20 ADD PUSH1 0x40 MLOAD SWAP1 DUP2 ADD PUSH1 0x40 MSTORE DUP1 SWAP4 SWAP3 SWAP2 SWAP1 DUP2 DUP2 MSTORE PUSH1 0x20 ADD DUP4 DUP4 DUP1 DUP3 DUP5 CALLDATACOPY PUSH1 0x0 SWAP3 ADD SWAP2 SWAP1 SWAP2 MSTORE POP SWAP3 SWAP6 POP POP POP SWAP1 CALLDATALOAD PUSH1 0xFF AND SWAP2 POP PUSH2 0x1517 SWAP1 POP JUMP JUMPDEST CALLVALUE DUP1 ISZERO PUSH2 0x7DA JUMPI PUSH1 0x0 DUP1 REVERT JUMPDEST POP PUSH2 0x3A6 PUSH2 0x16FE JUMP JUMPDEST CALLVALUE DUP1 ISZERO PUSH2 0x7EF JUMPI PUSH1 0x0 DUP1 REVERT JUMPDEST POP PUSH2 0x373 PUSH1 0x4 DUP1 CALLDATASIZE SUB PUSH1 0x40 DUP2 LT ISZERO PUSH2 0x806 JUMPI PUSH1 0x0 DUP1 REVERT JUMPDEST POP PUSH1 0x1 PUSH1 0x1 PUSH1 0xA0 SHL SUB DUP2 CALLDATALOAD AND SWAP1 PUSH1 0x20 ADD CALLDATALOAD PUSH2 0x1A56 JUMP JUMPDEST CALLVALUE DUP1 ISZERO PUSH2 0x828 JUMPI PUSH1 0x0 DUP1 REVERT JUMPDEST POP PUSH2 0x3A6 PUSH2 0x1AC7 JUMP JUMPDEST PUSH2 0x38F PUSH1 0x4 DUP1 CALLDATASIZE SUB PUSH1 0x40 DUP2 LT ISZERO PUSH2 0x847 JUMPI PUSH1 0x0 DUP1 REVERT JUMPDEST POP PUSH1 0x1 PUSH1 0x1 PUSH1 0xA0 SHL SUB DUP2 CALLDATALOAD DUP2 AND SWAP2 PUSH1 0x20 ADD CALLDATALOAD AND PUSH2 0x1ACD JUMP JUMPDEST CALLVALUE DUP1 ISZERO PUSH2 0x86B JUMPI PUSH1 0x0 DUP1 REVERT JUMPDEST POP PUSH2 0x3A6 PUSH2 0x1B1A JUMP JUMPDEST CALLVALUE DUP1 ISZERO PUSH2 0x880 JUMPI PUSH1 0x0 DUP1 REVERT JUMPDEST POP PUSH2 0x3A6 PUSH1 0x4 DUP1 CALLDATASIZE SUB PUSH1 0x60 DUP2 LT ISZERO PUSH2 0x897 JUMPI PUSH1 0x0 DUP1 REVERT JUMPDEST POP PUSH1 0x1 PUSH1 0x1 PUSH1 0xA0 SHL SUB DUP2 CALLDATALOAD DUP2 AND SWAP2 PUSH1 0x20 DUP2 ADD CALLDATALOAD SWAP1 SWAP2 AND SWAP1 PUSH1 0x40 ADD CALLDATALOAD PUSH2 0x1BB9 JUMP JUMPDEST CALLVALUE DUP1 ISZERO PUSH2 0x8C3 JUMPI PUSH1 0x0 DUP1 REVERT JUMPDEST POP PUSH2 0x3A6 PUSH1 0x4 DUP1 CALLDATASIZE SUB PUSH1 0x20 DUP2 LT ISZERO PUSH2 0x8DA JUMPI PUSH1 0x0 DUP1 REVERT JUMPDEST POP CALLDATALOAD PUSH1 0x1 PUSH1 0x1 PUSH1 0xA0 SHL SUB AND PUSH2 0x1C2A JUMP JUMPDEST CALLVALUE DUP1 ISZERO PUSH2 0x8F6 JUMPI PUSH1 0x0 DUP1 REVERT JUMPDEST POP PUSH2 0x3A6 PUSH2 0x1CB6 JUMP JUMPDEST CALLVALUE DUP1 ISZERO PUSH2 0x90B JUMPI PUSH1 0x0 DUP1 REVERT JUMPDEST POP PUSH2 0x932 PUSH1 0x4 DUP1 CALLDATASIZE SUB PUSH1 0x20 DUP2 LT ISZERO PUSH2 0x922 JUMPI PUSH1 0x0 DUP1 REVERT JUMPDEST POP CALLDATALOAD PUSH1 0x1 PUSH1 0x1 PUSH1 0xA0 SHL SUB AND PUSH2 0x1D72 JUMP JUMPDEST PUSH1 0x40 DUP1 MLOAD SWAP5 DUP6 MSTORE PUSH1 0x20 DUP6 ADD SWAP4 SWAP1 SWAP4 MSTORE DUP4 DUP4 ADD SWAP2 SWAP1 SWAP2 MSTORE PUSH1 0x60 DUP4 ADD MSTORE MLOAD SWAP1 DUP2 SWAP1 SUB PUSH1 0x80 ADD SWAP1 RETURN JUMPDEST CALLVALUE DUP1 ISZERO PUSH2 0x964 JUMPI PUSH1 0x0 DUP1 REVERT JUMPDEST POP PUSH2 0x3A6 PUSH1 0x4 DUP1 CALLDATASIZE SUB PUSH1 0x20 DUP2 LT ISZERO PUSH2 0x97B JUMPI PUSH1 0x0 DUP1 REVERT JUMPDEST POP CALLDATALOAD PUSH2 0x1E07 JUMP JUMPDEST CALLVALUE DUP1 ISZERO PUSH2 0x98E JUMPI PUSH1 0x0 DUP1 REVERT JUMPDEST POP PUSH2 0x3A6 PUSH1 0x4 DUP1 CALLDATASIZE SUB PUSH1 0x20 DUP2 LT ISZERO PUSH2 0x9A5 JUMPI PUSH1 0x0 DUP1 REVERT JUMPDEST POP CALLDATALOAD PUSH2 0x1E12 JUMP JUMPDEST CALLVALUE DUP1 ISZERO PUSH2 0x9B8 JUMPI PUSH1 0x0 DUP1 REVERT JUMPDEST POP PUSH2 0x3A6 PUSH1 0x4 DUP1 CALLDATASIZE SUB PUSH1 0x40 DUP2 LT ISZERO PUSH2 0x9CF JUMPI PUSH1 0x0 DUP1 REVERT JUMPDEST POP PUSH1 0x1 PUSH1 0x1 PUSH1 0xA0 SHL SUB DUP2 CALLDATALOAD DUP2 AND SWAP2 PUSH1 0x20 ADD CALLDATALOAD AND PUSH2 0x1E1D JUMP JUMPDEST PUSH2 0x38F PUSH1 0x4 DUP1 CALLDATASIZE SUB PUSH1 0x20 DUP2 LT ISZERO PUSH2 0x9FD JUMPI PUSH1 0x0 DUP1 REVERT JUMPDEST POP CALLDATALOAD PUSH1 0x1 PUSH1 0x1 PUSH1 0xA0 SHL SUB AND PUSH2 0x1E48 JUMP JUMPDEST CALLVALUE DUP1 ISZERO PUSH2 0xA19 JUMPI PUSH1 0x0 DUP1 REVERT JUMPDEST POP PUSH2 0x3A6 PUSH2 0x1E96 JUMP JUMPDEST CALLVALUE DUP1 ISZERO PUSH2 0xA2E JUMPI PUSH1 0x0 DUP1 REVERT JUMPDEST POP PUSH2 0x3A6 PUSH1 0x4 DUP1 CALLDATASIZE SUB PUSH1 0x20 DUP2 LT ISZERO PUSH2 0xA45 JUMPI PUSH1 0x0 DUP1 REVERT JUMPDEST POP CALLDATALOAD PUSH1 0x1 PUSH1 0x1 PUSH1 0xA0 SHL SUB AND PUSH2 0x1F99 JUMP JUMPDEST CALLVALUE DUP1 ISZERO PUSH2 0xA61 JUMPI PUSH1 0x0 DUP1 REVERT JUMPDEST POP PUSH2 0x46D PUSH2 0x1FD3 JUMP JUMPDEST CALLVALUE DUP1 ISZERO PUSH2 0xA76 JUMPI PUSH1 0x0 DUP1 REVERT JUMPDEST POP PUSH2 0x46D PUSH2 0x1FE2 JUMP JUMPDEST CALLVALUE DUP1 ISZERO PUSH2 0xA8B JUMPI PUSH1 0x0 DUP1 REVERT JUMPDEST POP PUSH2 0x3A6 PUSH2 0x1FF6 JUMP JUMPDEST CALLVALUE DUP1 ISZERO PUSH2 0xAA0 JUMPI PUSH1 0x0 DUP1 REVERT JUMPDEST POP PUSH2 0x3A6 PUSH1 0x4 DUP1 CALLDATASIZE SUB PUSH1 0x20 DUP2 LT ISZERO PUSH2 0xAB7 JUMPI PUSH1 0x0 DUP1 REVERT JUMPDEST POP CALLDATALOAD PUSH2 0x205A JUMP JUMPDEST CALLVALUE DUP1 ISZERO PUSH2 0xACA JUMPI PUSH1 0x0 DUP1 REVERT JUMPDEST POP PUSH2 0x373 PUSH2 0x20D8 JUMP JUMPDEST PUSH1 0x0 DUP1 SLOAD DUP2 SWAP1 PUSH1 0xFF AND PUSH2 0xB1A JUMPI PUSH1 0x40 DUP1 MLOAD PUSH3 0x461BCD PUSH1 0xE5 SHL DUP2 MSTORE PUSH1 0x20 PUSH1 0x4 DUP3 ADD MSTORE PUSH1 0xA PUSH1 0x24 DUP3 ADD MSTORE PUSH10 0x1C994B595B9D195C9959 PUSH1 0xB2 SHL PUSH1 0x44 DUP3 ADD MSTORE SWAP1 MLOAD SWAP1 DUP2 SWAP1 SUB PUSH1 0x64 ADD SWAP1 REVERT JUMPDEST PUSH1 0x0 DUP1 SLOAD PUSH1 0xFF NOT AND DUP2 SSTORE PUSH2 0xB2C PUSH2 0x16FE JUMP JUMPDEST SWAP1 POP DUP1 ISZERO PUSH2 0xB57 JUMPI PUSH2 0xB4A DUP2 PUSH1 0x10 DUP2 GT ISZERO PUSH2 0xB43 JUMPI INVALID JUMPDEST PUSH1 0x1E PUSH2 0x20DD JUMP JUMPDEST SWAP3 POP PUSH1 0x0 SWAP2 POP PUSH2 0xB67 SWAP1 POP JUMP JUMPDEST PUSH2 0xB61 CALLER DUP6 PUSH2 0x2143 JUMP JUMPDEST SWAP3 POP SWAP3 POP POP JUMPDEST PUSH1 0x0 DUP1 SLOAD PUSH1 0xFF NOT AND PUSH1 0x1 OR SWAP1 SSTORE SWAP1 SWAP3 SWAP1 SWAP2 POP JUMP JUMPDEST DUP2 PUSH2 0xB85 JUMPI PUSH2 0xD77 JUMP JUMPDEST PUSH1 0x60 DUP2 MLOAD PUSH1 0x5 ADD PUSH1 0x40 MLOAD SWAP1 DUP1 DUP3 MSTORE DUP1 PUSH1 0x1F ADD PUSH1 0x1F NOT AND PUSH1 0x20 ADD DUP3 ADD PUSH1 0x40 MSTORE DUP1 ISZERO PUSH2 0xBB6 JUMPI PUSH1 0x20 DUP3 ADD DUP2 DUP1 CODESIZE DUP4 CODECOPY ADD SWAP1 POP JUMPDEST POP SWAP1 POP PUSH1 0x0 JUMPDEST DUP3 MLOAD DUP2 LT ISZERO PUSH2 0xC07 JUMPI DUP3 DUP2 DUP2 MLOAD DUP2 LT PUSH2 0xBD1 JUMPI INVALID JUMPDEST PUSH1 0x20 ADD ADD MLOAD PUSH1 0xF8 SHR PUSH1 0xF8 SHL DUP3 DUP3 DUP2 MLOAD DUP2 LT PUSH2 0xBE8 JUMPI INVALID JUMPDEST PUSH1 0x20 ADD ADD SWAP1 PUSH1 0x1 PUSH1 0x1 PUSH1 0xF8 SHL SUB NOT AND SWAP1 DUP2 PUSH1 0x0 BYTE SWAP1 MSTORE8 POP PUSH1 0x1 ADD PUSH2 0xBBC JUMP JUMPDEST DUP2 MLOAD PUSH1 0x1 PUSH1 0xFD SHL SWAP1 DUP4 SWAP1 DUP4 SWAP1 DUP2 LT PUSH2 0xC1B JUMPI INVALID JUMPDEST PUSH1 0x20 ADD ADD SWAP1 PUSH1 0x1 PUSH1 0x1 PUSH1 0xF8 SHL SUB NOT AND SWAP1 DUP2 PUSH1 0x0 BYTE SWAP1 MSTORE8 POP PUSH1 0x28 PUSH1 0xF8 SHL DUP3 DUP3 PUSH1 0x1 ADD DUP2 MLOAD DUP2 LT PUSH2 0xC46 JUMPI INVALID JUMPDEST PUSH1 0x20 ADD ADD SWAP1 PUSH1 0x1 PUSH1 0x1 PUSH1 0xF8 SHL SUB NOT AND SWAP1 DUP2 PUSH1 0x0 BYTE SWAP1 MSTORE8 POP PUSH1 0xA DUP5 DIV PUSH1 0x30 ADD PUSH1 0xF8 SHL DUP3 DUP3 PUSH1 0x2 ADD DUP2 MLOAD DUP2 LT PUSH2 0xC76 JUMPI INVALID JUMPDEST PUSH1 0x20 ADD ADD SWAP1 PUSH1 0x1 PUSH1 0x1 PUSH1 0xF8 SHL SUB NOT AND SWAP1 DUP2 PUSH1 0x0 BYTE SWAP1 MSTORE8 POP PUSH1 0xA DUP5 MOD PUSH1 0x30 ADD PUSH1 0xF8 SHL DUP3 DUP3 PUSH1 0x3 ADD DUP2 MLOAD DUP2 LT PUSH2 0xCA6 JUMPI INVALID JUMPDEST PUSH1 0x20 ADD ADD SWAP1 PUSH1 0x1 PUSH1 0x1 PUSH1 0xF8 SHL SUB NOT AND SWAP1 DUP2 PUSH1 0x0 BYTE SWAP1 MSTORE8 POP PUSH1 0x29 PUSH1 0xF8 SHL DUP3 DUP3 PUSH1 0x4 ADD DUP2 MLOAD DUP2 LT PUSH2 0xCD1 JUMPI INVALID JUMPDEST PUSH1 0x20 ADD ADD SWAP1 PUSH1 0x1 PUSH1 0x1 PUSH1 0xF8 SHL SUB NOT AND SWAP1 DUP2 PUSH1 0x0 BYTE SWAP1 MSTORE8 POP DUP2 DUP5 ISZERO PUSH2 0xD73 JUMPI PUSH1 0x40 MLOAD PUSH3 0x461BCD PUSH1 0xE5 SHL DUP2 MSTORE PUSH1 0x4 ADD DUP1 DUP1 PUSH1 0x20 ADD DUP3 DUP2 SUB DUP3 MSTORE DUP4 DUP2 DUP2 MLOAD DUP2 MSTORE PUSH1 0x20 ADD SWAP2 POP DUP1 MLOAD SWAP1 PUSH1 0x20 ADD SWAP1 DUP1 DUP4 DUP4 PUSH1 0x0 JUMPDEST DUP4 DUP2 LT ISZERO PUSH2 0xD38 JUMPI DUP2 DUP2 ADD MLOAD DUP4 DUP3 ADD MSTORE PUSH1 0x20 ADD PUSH2 0xD20 JUMP JUMPDEST POP POP POP POP SWAP1 POP SWAP1 DUP2 ADD SWAP1 PUSH1 0x1F AND DUP1 ISZERO PUSH2 0xD65 JUMPI DUP1 DUP3 SUB DUP1 MLOAD PUSH1 0x1 DUP4 PUSH1 0x20 SUB PUSH2 0x100 EXP SUB NOT AND DUP2 MSTORE PUSH1 0x20 ADD SWAP2 POP JUMPDEST POP SWAP3 POP POP POP PUSH1 0x40 MLOAD DUP1 SWAP2 SUB SWAP1 REVERT JUMPDEST POP POP POP JUMPDEST POP POP JUMP JUMPDEST PUSH1 0x1 DUP1 SLOAD PUSH1 0x40 DUP1 MLOAD PUSH1 0x20 PUSH1 0x2 DUP5 DUP7 AND ISZERO PUSH2 0x100 MUL PUSH1 0x0 NOT ADD SWAP1 SWAP5 AND SWAP4 SWAP1 SWAP4 DIV PUSH1 0x1F DUP2 ADD DUP5 SWAP1 DIV DUP5 MUL DUP3 ADD DUP5 ADD SWAP1 SWAP3 MSTORE DUP2 DUP2 MSTORE SWAP3 SWAP2 DUP4 ADD DUP3 DUP3 DUP1 ISZERO PUSH2 0xE00 JUMPI DUP1 PUSH1 0x1F LT PUSH2 0xDD5 JUMPI PUSH2 0x100 DUP1 DUP4 SLOAD DIV MUL DUP4 MSTORE SWAP2 PUSH1 0x20 ADD SWAP2 PUSH2 0xE00 JUMP JUMPDEST DUP3 ADD SWAP2 SWAP1 PUSH1 0x0 MSTORE PUSH1 0x20 PUSH1 0x0 KECCAK256 SWAP1 JUMPDEST DUP2 SLOAD DUP2 MSTORE SWAP1 PUSH1 0x1 ADD SWAP1 PUSH1 0x20 ADD DUP1 DUP4 GT PUSH2 0xDE3 JUMPI DUP3 SWAP1 SUB PUSH1 0x1F AND DUP3 ADD SWAP2 JUMPDEST POP POP POP POP POP DUP2 JUMP JUMPDEST CALLER PUSH1 0x0 DUP2 DUP2 MSTORE PUSH1 0xF PUSH1 0x20 SWAP1 DUP2 MSTORE PUSH1 0x40 DUP1 DUP4 KECCAK256 PUSH1 0x1 PUSH1 0x1 PUSH1 0xA0 SHL SUB DUP8 AND DUP1 DUP6 MSTORE SWAP1 DUP4 MSTORE DUP2 DUP5 KECCAK256 DUP7 SWAP1 SSTORE DUP2 MLOAD DUP7 DUP2 MSTORE SWAP2 MLOAD SWAP4 SWAP5 SWAP4 SWAP1 SWAP3 DUP5 SWAP3 PUSH32 0x8C5BE1E5EBEC7D5BD14F71427D1E84F3DD0314C0F7B2291E5B200AC8C7C3B925 SWAP3 SWAP1 DUP2 SWAP1 SUB SWAP1 SWAP2 ADD SWAP1 LOG3 PUSH1 0x1 SWAP2 POP POP JUMPDEST SWAP3 SWAP2 POP POP JUMP JUMPDEST PUSH1 0x0 PUSH2 0xE80 CALLVALUE PUSH2 0xAD3 JUMP JUMPDEST POP SWAP1 POP PUSH2 0xEB0 DUP2 PUSH1 0x40 MLOAD DUP1 PUSH1 0x40 ADD PUSH1 0x40 MSTORE DUP1 PUSH1 0xB DUP2 MSTORE PUSH1 0x20 ADD PUSH11 0x1B5A5B9D0819985A5B1959 PUSH1 0xAA SHL DUP2 MSTORE POP PUSH2 0xB7B JUMP JUMPDEST POP JUMP JUMPDEST PUSH1 0x8 SLOAD DUP2 JUMP JUMPDEST PUSH1 0x0 DUP1 SLOAD PUSH1 0xFF AND PUSH2 0xEFE JUMPI PUSH1 0x40 DUP1 MLOAD PUSH3 0x461BCD PUSH1 0xE5 SHL DUP2 MSTORE PUSH1 0x20 PUSH1 0x4 DUP3 ADD MSTORE PUSH1 0xA PUSH1 0x24 DUP3 ADD MSTORE PUSH10 0x1C994B595B9D195C9959 PUSH1 0xB2 SHL PUSH1 0x44 DUP3 ADD MSTORE SWAP1 MLOAD SWAP1 DUP2 SWAP1 SUB PUSH1 0x64 ADD SWAP1 REVERT JUMPDEST PUSH1 0x0 DUP1 SLOAD PUSH1 0xFF NOT AND DUP2 SSTORE PUSH2 0xF10 PUSH2 0x16FE JUMP JUMPDEST EQ PUSH2 0xF5B JUMPI PUSH1 0x40 DUP1 MLOAD PUSH3 0x461BCD PUSH1 0xE5 SHL DUP2 MSTORE PUSH1 0x20 PUSH1 0x4 DUP3 ADD MSTORE PUSH1 0x16 PUSH1 0x24 DUP3 ADD MSTORE PUSH22 0x1858D8DC9D59481A5B9D195C995CDD0819985A5B1959 PUSH1 0x52 SHL PUSH1 0x44 DUP3 ADD MSTORE SWAP1 MLOAD SWAP1 DUP2 SWAP1 SUB PUSH1 0x64 ADD SWAP1 REVERT JUMPDEST PUSH2 0xF64 DUP3 PUSH2 0x14BA JUMP JUMPDEST SWAP1 POP JUMPDEST PUSH1 0x0 DUP1 SLOAD PUSH1 0xFF NOT AND PUSH1 0x1 OR SWAP1 SSTORE SWAP2 SWAP1 POP JUMP JUMPDEST PUSH1 0xD SLOAD DUP2 JUMP JUMPDEST PUSH1 0x0 DUP1 PUSH1 0x0 PUSH2 0xF8C PUSH2 0x25A3 JUMP JUMPDEST SWAP1 SWAP3 POP SWAP1 POP PUSH1 0x0 DUP3 PUSH1 0x3 DUP2 GT ISZERO PUSH2 0xF9F JUMPI INVALID JUMPDEST EQ PUSH2 0xFDB JUMPI PUSH1 0x40 MLOAD PUSH3 0x461BCD PUSH1 0xE5 SHL DUP2 MSTORE PUSH1 0x4 ADD DUP1 DUP1 PUSH1 0x20 ADD DUP3 DUP2 SUB DUP3 MSTORE PUSH1 0x35 DUP2 MSTORE PUSH1 0x20 ADD DUP1 PUSH2 0x4C99 PUSH1 0x35 SWAP2 CODECOPY PUSH1 0x40 ADD SWAP2 POP POP PUSH1 0x40 MLOAD DUP1 SWAP2 SUB SWAP1 REVERT JUMPDEST SWAP2 POP POP JUMPDEST SWAP1 JUMP JUMPDEST PUSH1 0x0 DUP1 SLOAD PUSH1 0xFF AND PUSH2 0x1027 JUMPI PUSH1 0x40 DUP1 MLOAD PUSH3 0x461BCD PUSH1 0xE5 SHL DUP2 MSTORE PUSH1 0x20 PUSH1 0x4 DUP3 ADD MSTORE PUSH1 0xA PUSH1 0x24 DUP3 ADD MSTORE PUSH10 0x1C994B595B9D195C9959 PUSH1 0xB2 SHL PUSH1 0x44 DUP3 ADD MSTORE SWAP1 MLOAD SWAP1 DUP2 SWAP1 SUB PUSH1 0x64 ADD SWAP1 REVERT JUMPDEST PUSH1 0x0 DUP1 SLOAD PUSH1 0xFF NOT AND DUP2 SSTORE PUSH2 0x103D CALLER DUP7 DUP7 DUP7 PUSH2 0x2652 JUMP JUMPDEST EQ SWAP1 POP PUSH1 0x0 DUP1 SLOAD PUSH1 0xFF NOT AND PUSH1 0x1 OR SWAP1 SSTORE SWAP4 SWAP3 POP POP POP JUMP JUMPDEST PUSH1 0x4 SLOAD PUSH1 0x1 PUSH1 0x1 PUSH1 0xA0 SHL SUB AND DUP2 JUMP JUMPDEST PUSH1 0x3 SLOAD PUSH1 0xFF AND DUP2 JUMP JUMPDEST PUSH1 0x0 PUSH2 0x1076 PUSH2 0x4987 JUMP JUMPDEST PUSH1 0x40 MLOAD DUP1 PUSH1 0x20 ADD PUSH1 0x40 MSTORE DUP1 PUSH2 0x1089 PUSH2 0x1CB6 JUMP JUMPDEST SWAP1 MSTORE PUSH1 0x1 PUSH1 0x1 PUSH1 0xA0 SHL SUB DUP5 AND PUSH1 0x0 SWAP1 DUP2 MSTORE PUSH1 0xE PUSH1 0x20 MSTORE PUSH1 0x40 DUP2 KECCAK256 SLOAD SWAP2 SWAP3 POP SWAP1 DUP2 SWAP1 PUSH2 0x10B5 SWAP1 DUP5 SWAP1 PUSH2 0x2962 JUMP JUMPDEST SWAP1 SWAP3 POP SWAP1 POP PUSH1 0x0 DUP3 PUSH1 0x3 DUP2 GT ISZERO PUSH2 0x10C8 JUMPI INVALID JUMPDEST EQ PUSH2 0x111A JUMPI PUSH1 0x40 DUP1 MLOAD PUSH3 0x461BCD PUSH1 0xE5 SHL DUP2 MSTORE PUSH1 0x20 PUSH1 0x4 DUP3 ADD MSTORE PUSH1 0x1F PUSH1 0x24 DUP3 ADD MSTORE PUSH32 0x62616C616E636520636F756C64206E6F742062652063616C63756C6174656400 PUSH1 0x44 DUP3 ADD MSTORE SWAP1 MLOAD SWAP1 DUP2 SWAP1 SUB PUSH1 0x64 ADD SWAP1 REVERT JUMPDEST SWAP3 POP POP POP JUMPDEST SWAP2 SWAP1 POP JUMP JUMPDEST PUSH1 0x0 PUSH2 0x112E PUSH2 0x29B5 JUMP JUMPDEST SWAP1 POP SWAP1 JUMP JUMPDEST PUSH1 0x3 SLOAD PUSH1 0x0 SWAP1 PUSH2 0x100 SWAP1 DIV PUSH1 0x1 PUSH1 0x1 PUSH1 0xA0 SHL SUB AND CALLER EQ PUSH2 0x1160 JUMPI PUSH2 0x1159 PUSH1 0x1 PUSH1 0x3F PUSH2 0x20DD JUMP JUMPDEST SWAP1 POP PUSH2 0x111F JUMP JUMPDEST PUSH1 0x5 SLOAD PUSH1 0x40 DUP1 MLOAD PUSH3 0x3F1EE9 PUSH1 0xE1 SHL DUP2 MSTORE SWAP1 MLOAD PUSH1 0x1 PUSH1 0x1 PUSH1 0xA0 SHL SUB SWAP3 DUP4 AND SWAP3 DUP6 AND SWAP2 PUSH3 0x7E3DD2 SWAP2 PUSH1 0x4 DUP1 DUP4 ADD SWAP3 PUSH1 0x20 SWAP3 SWAP2 SWAP1 DUP3 SWAP1 SUB ADD DUP2 DUP7 DUP1 EXTCODESIZE ISZERO DUP1 ISZERO PUSH2 0x11A5 JUMPI PUSH1 0x0 DUP1 REVERT JUMPDEST POP GAS STATICCALL ISZERO DUP1 ISZERO PUSH2 0x11B9 JUMPI RETURNDATASIZE PUSH1 0x0 DUP1 RETURNDATACOPY RETURNDATASIZE PUSH1 0x0 REVERT JUMPDEST POP POP POP POP PUSH1 0x40 MLOAD RETURNDATASIZE PUSH1 0x20 DUP2 LT ISZERO PUSH2 0x11CF JUMPI PUSH1 0x0 DUP1 REVERT JUMPDEST POP MLOAD PUSH2 0x1222 JUMPI PUSH1 0x40 DUP1 MLOAD PUSH3 0x461BCD PUSH1 0xE5 SHL DUP2 MSTORE PUSH1 0x20 PUSH1 0x4 DUP3 ADD MSTORE PUSH1 0x1C PUSH1 0x24 DUP3 ADD MSTORE PUSH32 0x6D61726B6572206D6574686F642072657475726E65642066616C736500000000 PUSH1 0x44 DUP3 ADD MSTORE SWAP1 MLOAD SWAP1 DUP2 SWAP1 SUB PUSH1 0x64 ADD SWAP1 REVERT JUMPDEST PUSH1 0x5 DUP1 SLOAD PUSH1 0x1 PUSH1 0x1 PUSH1 0xA0 SHL SUB NOT AND PUSH1 0x1 PUSH1 0x1 PUSH1 0xA0 SHL SUB DUP6 DUP2 AND SWAP2 DUP3 OR SWAP1 SWAP3 SSTORE PUSH1 0x40 DUP1 MLOAD SWAP3 DUP5 AND DUP4 MSTORE PUSH1 0x20 DUP4 ADD SWAP2 SWAP1 SWAP2 MSTORE DUP1 MLOAD PUSH32 0x7AC369DBD14FA5EA3F473ED67CC9D598964A77501540BA6751EB0B3DECF5870D SWAP3 DUP2 SWAP1 SUB SWAP1 SWAP2 ADD SWAP1 LOG1 PUSH1 0x0 JUMPDEST SWAP4 SWAP3 POP POP POP JUMP JUMPDEST PUSH1 0xB SLOAD DUP2 JUMP JUMPDEST PUSH1 0x0 PUSH2 0x1299 CALLVALUE PUSH2 0x29E1 JUMP JUMPDEST POP SWAP1 POP PUSH2 0xEB0 DUP2 PUSH1 0x40 MLOAD DUP1 PUSH1 0x40 ADD PUSH1 0x40 MSTORE DUP1 PUSH1 0x12 DUP2 MSTORE PUSH1 0x20 ADD PUSH18 0x1C995C185E509BDC9C9BDDC819985A5B1959 PUSH1 0x72 SHL DUP2 MSTORE POP PUSH2 0xB7B JUMP JUMPDEST PUSH1 0x5 SLOAD PUSH1 0x1 PUSH1 0x1 PUSH1 0xA0 SHL SUB AND DUP2 JUMP JUMPDEST PUSH1 0x0 DUP1 SLOAD PUSH1 0xFF AND PUSH2 0x1324 JUMPI PUSH1 0x40 DUP1 MLOAD PUSH3 0x461BCD PUSH1 0xE5 SHL DUP2 MSTORE PUSH1 0x20 PUSH1 0x4 DUP3 ADD MSTORE PUSH1 0xA PUSH1 0x24 DUP3 ADD MSTORE PUSH10 0x1C994B595B9D195C9959 PUSH1 0xB2 SHL PUSH1 0x44 DUP3 ADD MSTORE SWAP1 MLOAD SWAP1 DUP2 SWAP1 SUB PUSH1 0x64 ADD SWAP1 REVERT JUMPDEST PUSH1 0x0 DUP1 SLOAD PUSH1 0xFF NOT AND DUP2 SSTORE PUSH2 0x1336 PUSH2 0x16FE JUMP JUMPDEST SWAP1 POP DUP1 ISZERO PUSH2 0x135C JUMPI PUSH2 0x1354 DUP2 PUSH1 0x10 DUP2 GT ISZERO PUSH2 0x134D JUMPI INVALID JUMPDEST PUSH1 0x30 PUSH2 0x20DD JUMP JUMPDEST SWAP2 POP POP PUSH2 0xF67 JUMP JUMPDEST PUSH2 0x1365 DUP4 PUSH2 0x2A63 JUMP JUMPDEST SWAP2 POP POP PUSH1 0x0 DUP1 SLOAD PUSH1 0xFF NOT AND PUSH1 0x1 OR SWAP1 SSTORE SWAP2 SWAP1 POP JUMP JUMPDEST PUSH1 0x9 SLOAD DUP2 JUMP JUMPDEST PUSH1 0x1 PUSH1 0x1 PUSH1 0xA0 SHL SUB AND PUSH1 0x0 SWAP1 DUP2 MSTORE PUSH1 0xE PUSH1 0x20 MSTORE PUSH1 0x40 SWAP1 KECCAK256 SLOAD SWAP1 JUMP JUMPDEST PUSH1 0x0 DUP1 SLOAD PUSH1 0xFF AND PUSH2 0x13E0 JUMPI PUSH1 0x40 DUP1 MLOAD PUSH3 0x461BCD PUSH1 0xE5 SHL DUP2 MSTORE PUSH1 0x20 PUSH1 0x4 DUP3 ADD MSTORE PUSH1 0xA PUSH1 0x24 DUP3 ADD MSTORE PUSH10 0x1C994B595B9D195C9959 PUSH1 0xB2 SHL PUSH1 0x44 DUP3 ADD MSTORE SWAP1 MLOAD SWAP1 DUP2 SWAP1 SUB PUSH1 0x64 ADD SWAP1 REVERT JUMPDEST PUSH1 0x0 DUP1 SLOAD PUSH1 0xFF NOT AND DUP2 SSTORE PUSH2 0x13F2 PUSH2 0x16FE JUMP JUMPDEST EQ PUSH2 0x143D JUMPI PUSH1 0x40 DUP1 MLOAD PUSH3 0x461BCD PUSH1 0xE5 SHL DUP2 MSTORE PUSH1 0x20 PUSH1 0x4 DUP3 ADD MSTORE PUSH1 0x16 PUSH1 0x24 DUP3 ADD MSTORE PUSH22 0x1858D8DC9D59481A5B9D195C995CDD0819985A5B1959 PUSH1 0x52 SHL PUSH1 0x44 DUP3 ADD MSTORE SWAP1 MLOAD SWAP1 DUP2 SWAP1 SUB PUSH1 0x64 ADD SWAP1 REVERT JUMPDEST POP PUSH1 0xB SLOAD PUSH1 0x0 DUP1 SLOAD PUSH1 0xFF NOT AND PUSH1 0x1 OR SWAP1 SSTORE SWAP1 JUMP JUMPDEST PUSH1 0x0 PUSH2 0xE6F DUP3 PUSH2 0x2B96 JUMP JUMPDEST PUSH1 0xC SLOAD DUP2 JUMP JUMPDEST PUSH1 0x2 DUP1 SLOAD PUSH1 0x40 DUP1 MLOAD PUSH1 0x20 PUSH1 0x1 DUP5 AND ISZERO PUSH2 0x100 MUL PUSH1 0x0 NOT ADD SWAP1 SWAP4 AND DUP5 SWAP1 DIV PUSH1 0x1F DUP2 ADD DUP5 SWAP1 DIV DUP5 MUL DUP3 ADD DUP5 ADD SWAP1 SWAP3 MSTORE DUP2 DUP2 MSTORE SWAP3 SWAP2 DUP4 ADD DUP3 DUP3 DUP1 ISZERO PUSH2 0xE00 JUMPI DUP1 PUSH1 0x1F LT PUSH2 0xDD5 JUMPI PUSH2 0x100 DUP1 DUP4 SLOAD DIV MUL DUP4 MSTORE SWAP2 PUSH1 0x20 ADD SWAP2 PUSH2 0xE00 JUMP JUMPDEST PUSH1 0x0 DUP1 PUSH1 0x0 PUSH2 0x14C8 DUP5 PUSH2 0x2C17 JUMP JUMPDEST SWAP1 SWAP3 POP SWAP1 POP PUSH1 0x0 DUP3 PUSH1 0x3 DUP2 GT ISZERO PUSH2 0x14DB JUMPI INVALID JUMPDEST EQ PUSH2 0x1281 JUMPI PUSH1 0x40 MLOAD PUSH3 0x461BCD PUSH1 0xE5 SHL DUP2 MSTORE PUSH1 0x4 ADD DUP1 DUP1 PUSH1 0x20 ADD DUP3 DUP2 SUB DUP3 MSTORE PUSH1 0x37 DUP2 MSTORE PUSH1 0x20 ADD DUP1 PUSH2 0x4BA4 PUSH1 0x37 SWAP2 CODECOPY PUSH1 0x40 ADD SWAP2 POP POP PUSH1 0x40 MLOAD DUP1 SWAP2 SUB SWAP1 REVERT JUMPDEST PUSH1 0x3 SLOAD PUSH2 0x100 SWAP1 DIV PUSH1 0x1 PUSH1 0x1 PUSH1 0xA0 SHL SUB AND CALLER EQ PUSH2 0x1565 JUMPI PUSH1 0x40 MLOAD PUSH3 0x461BCD PUSH1 0xE5 SHL DUP2 MSTORE PUSH1 0x4 ADD DUP1 DUP1 PUSH1 0x20 ADD DUP3 DUP2 SUB DUP3 MSTORE PUSH1 0x24 DUP2 MSTORE PUSH1 0x20 ADD DUP1 PUSH2 0x4AE0 PUSH1 0x24 SWAP2 CODECOPY PUSH1 0x40 ADD SWAP2 POP POP PUSH1 0x40 MLOAD DUP1 SWAP2 SUB SWAP1 REVERT JUMPDEST PUSH1 0x9 SLOAD ISZERO DUP1 ISZERO PUSH2 0x1575 JUMPI POP PUSH1 0xA SLOAD ISZERO JUMPDEST PUSH2 0x15B0 JUMPI PUSH1 0x40 MLOAD PUSH3 0x461BCD PUSH1 0xE5 SHL DUP2 MSTORE PUSH1 0x4 ADD DUP1 DUP1 PUSH1 0x20 ADD DUP3 DUP2 SUB DUP3 MSTORE PUSH1 0x23 DUP2 MSTORE PUSH1 0x20 ADD DUP1 PUSH2 0x4B04 PUSH1 0x23 SWAP2 CODECOPY PUSH1 0x40 ADD SWAP2 POP POP PUSH1 0x40 MLOAD DUP1 SWAP2 SUB SWAP1 REVERT JUMPDEST PUSH1 0x7 DUP5 SWAP1 SSTORE DUP4 PUSH2 0x15F1 JUMPI PUSH1 0x40 MLOAD PUSH3 0x461BCD PUSH1 0xE5 SHL DUP2 MSTORE PUSH1 0x4 ADD DUP1 DUP1 PUSH1 0x20 ADD DUP3 DUP2 SUB DUP3 MSTORE PUSH1 0x30 DUP2 MSTORE PUSH1 0x20 ADD DUP1 PUSH2 0x4B27 PUSH1 0x30 SWAP2 CODECOPY PUSH1 0x40 ADD SWAP2 POP POP PUSH1 0x40 MLOAD DUP1 SWAP2 SUB SWAP1 REVERT JUMPDEST PUSH1 0x0 PUSH2 0x15FC DUP8 PUSH2 0x1133 JUMP JUMPDEST SWAP1 POP DUP1 ISZERO PUSH2 0x1651 JUMPI PUSH1 0x40 DUP1 MLOAD PUSH3 0x461BCD PUSH1 0xE5 SHL DUP2 MSTORE PUSH1 0x20 PUSH1 0x4 DUP3 ADD MSTORE PUSH1 0x1A PUSH1 0x24 DUP3 ADD MSTORE PUSH32 0x73657474696E6720636F6D7074726F6C6C6572206661696C6564000000000000 PUSH1 0x44 DUP3 ADD MSTORE SWAP1 MLOAD SWAP1 DUP2 SWAP1 SUB PUSH1 0x64 ADD SWAP1 REVERT JUMPDEST PUSH2 0x1659 PUSH2 0x2CCB JUMP JUMPDEST PUSH1 0x9 SSTORE PUSH8 0xDE0B6B3A7640000 PUSH1 0xA SSTORE PUSH2 0x1671 DUP7 PUSH2 0x2CCF JUMP JUMPDEST SWAP1 POP DUP1 ISZERO PUSH2 0x16B0 JUMPI PUSH1 0x40 MLOAD PUSH3 0x461BCD PUSH1 0xE5 SHL DUP2 MSTORE PUSH1 0x4 ADD DUP1 DUP1 PUSH1 0x20 ADD DUP3 DUP2 SUB DUP3 MSTORE PUSH1 0x22 DUP2 MSTORE PUSH1 0x20 ADD DUP1 PUSH2 0x4B57 PUSH1 0x22 SWAP2 CODECOPY PUSH1 0x40 ADD SWAP2 POP POP PUSH1 0x40 MLOAD DUP1 SWAP2 SUB SWAP1 REVERT JUMPDEST DUP4 MLOAD PUSH2 0x16C3 SWAP1 PUSH1 0x1 SWAP1 PUSH1 0x20 DUP8 ADD SWAP1 PUSH2 0x499A JUMP JUMPDEST POP DUP3 MLOAD PUSH2 0x16D7 SWAP1 PUSH1 0x2 SWAP1 PUSH1 0x20 DUP7 ADD SWAP1 PUSH2 0x499A JUMP JUMPDEST POP POP PUSH1 0x3 DUP1 SLOAD PUSH1 0xFF SWAP1 SWAP3 AND PUSH1 0xFF NOT SWAP3 DUP4 AND OR SWAP1 SSTORE PUSH1 0x0 DUP1 SLOAD SWAP1 SWAP2 AND PUSH1 0x1 OR SWAP1 SSTORE POP POP POP POP POP JUMP JUMPDEST PUSH1 0x0 DUP1 PUSH2 0x1709 PUSH2 0x2CCB JUMP JUMPDEST PUSH1 0x9 SLOAD SWAP1 SWAP2 POP DUP1 DUP3 EQ ISZERO PUSH2 0x1722 JUMPI PUSH1 0x0 SWAP3 POP POP POP PUSH2 0xFDF JUMP JUMPDEST PUSH1 0x0 PUSH2 0x172C PUSH2 0x29B5 JUMP JUMPDEST PUSH1 0xB SLOAD PUSH1 0xC SLOAD PUSH1 0xA SLOAD PUSH1 0x6 SLOAD PUSH1 0x40 DUP1 MLOAD PUSH4 0x15F24053 PUSH1 0xE0 SHL DUP2 MSTORE PUSH1 0x4 DUP2 ADD DUP8 SWAP1 MSTORE PUSH1 0x24 DUP2 ADD DUP7 SWAP1 MSTORE PUSH1 0x44 DUP2 ADD DUP6 SWAP1 MSTORE SWAP1 MLOAD SWAP6 SWAP7 POP SWAP4 SWAP5 SWAP3 SWAP4 SWAP2 SWAP3 PUSH1 0x0 SWAP3 PUSH1 0x1 PUSH1 0x1 PUSH1 0xA0 SHL SUB SWAP1 SWAP3 AND SWAP2 PUSH4 0x15F24053 SWAP2 PUSH1 0x64 DUP1 DUP4 ADD SWAP3 PUSH1 0x20 SWAP3 SWAP2 SWAP1 DUP3 SWAP1 SUB ADD DUP2 DUP7 DUP1 EXTCODESIZE ISZERO DUP1 ISZERO PUSH2 0x179A JUMPI PUSH1 0x0 DUP1 REVERT JUMPDEST POP GAS STATICCALL ISZERO DUP1 ISZERO PUSH2 0x17AE JUMPI RETURNDATASIZE PUSH1 0x0 DUP1 RETURNDATACOPY RETURNDATASIZE PUSH1 0x0 REVERT JUMPDEST POP POP POP POP PUSH1 0x40 MLOAD RETURNDATASIZE PUSH1 0x20 DUP2 LT ISZERO PUSH2 0x17C4 JUMPI PUSH1 0x0 DUP1 REVERT JUMPDEST POP MLOAD SWAP1 POP PUSH6 0x48C27395000 DUP2 GT ISZERO PUSH2 0x1823 JUMPI PUSH1 0x40 DUP1 MLOAD PUSH3 0x461BCD PUSH1 0xE5 SHL DUP2 MSTORE PUSH1 0x20 PUSH1 0x4 DUP3 ADD MSTORE PUSH1 0x1C PUSH1 0x24 DUP3 ADD MSTORE PUSH32 0x626F72726F772072617465206973206162737572646C79206869676800000000 PUSH1 0x44 DUP3 ADD MSTORE SWAP1 MLOAD SWAP1 DUP2 SWAP1 SUB PUSH1 0x64 ADD SWAP1 REVERT JUMPDEST PUSH1 0x0 DUP1 PUSH2 0x1830 DUP10 DUP10 PUSH2 0x2E44 JUMP JUMPDEST SWAP1 SWAP3 POP SWAP1 POP PUSH1 0x0 DUP3 PUSH1 0x3 DUP2 GT ISZERO PUSH2 0x1843 JUMPI INVALID JUMPDEST EQ PUSH2 0x1895 JUMPI PUSH1 0x40 DUP1 MLOAD PUSH3 0x461BCD PUSH1 0xE5 SHL DUP2 MSTORE PUSH1 0x20 PUSH1 0x4 DUP3 ADD MSTORE PUSH1 0x1F PUSH1 0x24 DUP3 ADD MSTORE PUSH32 0x636F756C64206E6F742063616C63756C61746520626C6F636B2064656C746100 PUSH1 0x44 DUP3 ADD MSTORE SWAP1 MLOAD SWAP1 DUP2 SWAP1 SUB PUSH1 0x64 ADD SWAP1 REVERT JUMPDEST PUSH2 0x189D PUSH2 0x4987 JUMP JUMPDEST PUSH1 0x0 DUP1 PUSH1 0x0 DUP1 PUSH2 0x18BB PUSH1 0x40 MLOAD DUP1 PUSH1 0x20 ADD PUSH1 0x40 MSTORE DUP1 DUP11 DUP2 MSTORE POP DUP8 PUSH2 0x2E67 JUMP JUMPDEST SWAP1 SWAP8 POP SWAP5 POP PUSH1 0x0 DUP8 PUSH1 0x3 DUP2 GT ISZERO PUSH2 0x18CE JUMPI INVALID JUMPDEST EQ PUSH2 0x1900 JUMPI PUSH2 0x18EB PUSH1 0x9 PUSH1 0x6 DUP10 PUSH1 0x3 DUP2 GT ISZERO PUSH2 0x18E6 JUMPI INVALID JUMPDEST PUSH2 0x2ECF JUMP JUMPDEST SWAP15 POP POP POP POP POP POP POP POP POP POP POP POP POP POP POP PUSH2 0xFDF JUMP JUMPDEST PUSH2 0x190A DUP6 DUP13 PUSH2 0x2962 JUMP JUMPDEST SWAP1 SWAP8 POP SWAP4 POP PUSH1 0x0 DUP8 PUSH1 0x3 DUP2 GT ISZERO PUSH2 0x191D JUMPI INVALID JUMPDEST EQ PUSH2 0x1935 JUMPI PUSH2 0x18EB PUSH1 0x9 PUSH1 0x1 DUP10 PUSH1 0x3 DUP2 GT ISZERO PUSH2 0x18E6 JUMPI INVALID JUMPDEST PUSH2 0x193F DUP5 DUP13 PUSH2 0x2F35 JUMP JUMPDEST SWAP1 SWAP8 POP SWAP3 POP PUSH1 0x0 DUP8 PUSH1 0x3 DUP2 GT ISZERO PUSH2 0x1952 JUMPI INVALID JUMPDEST EQ PUSH2 0x196A JUMPI PUSH2 0x18EB PUSH1 0x9 PUSH1 0x4 DUP10 PUSH1 0x3 DUP2 GT ISZERO PUSH2 0x18E6 JUMPI INVALID JUMPDEST PUSH2 0x1985 PUSH1 0x40 MLOAD DUP1 PUSH1 0x20 ADD PUSH1 0x40 MSTORE DUP1 PUSH1 0x8 SLOAD DUP2 MSTORE POP DUP6 DUP13 PUSH2 0x2F5B JUMP JUMPDEST SWAP1 SWAP8 POP SWAP2 POP PUSH1 0x0 DUP8 PUSH1 0x3 DUP2 GT ISZERO PUSH2 0x1998 JUMPI INVALID JUMPDEST EQ PUSH2 0x19B0 JUMPI PUSH2 0x18EB PUSH1 0x9 PUSH1 0x5 DUP10 PUSH1 0x3 DUP2 GT ISZERO PUSH2 0x18E6 JUMPI INVALID JUMPDEST PUSH2 0x19BB DUP6 DUP11 DUP12 PUSH2 0x2F5B JUMP JUMPDEST SWAP1 SWAP8 POP SWAP1 POP PUSH1 0x0 DUP8 PUSH1 0x3 DUP2 GT ISZERO PUSH2 0x19CE JUMPI INVALID JUMPDEST EQ PUSH2 0x19E6 JUMPI PUSH2 0x18EB PUSH1 0x9 PUSH1 0x3 DUP10 PUSH1 0x3 DUP2 GT ISZERO PUSH2 0x18E6 JUMPI INVALID JUMPDEST PUSH1 0x9 DUP15 SWAP1 SSTORE PUSH1 0xA DUP2 SWAP1 SSTORE PUSH1 0xB DUP4 SWAP1 SSTORE PUSH1 0xC DUP3 SWAP1 SSTORE PUSH1 0x40 DUP1 MLOAD DUP14 DUP2 MSTORE PUSH1 0x20 DUP2 ADD DUP7 SWAP1 MSTORE DUP1 DUP3 ADD DUP4 SWAP1 MSTORE PUSH1 0x60 DUP2 ADD DUP6 SWAP1 MSTORE SWAP1 MLOAD PUSH32 0x4DEC04E750CA11537CABCD8A9EAB06494DE08DA3735BC8871CD41250E190BC04 SWAP2 DUP2 SWAP1 SUB PUSH1 0x80 ADD SWAP1 LOG1 PUSH1 0x0 SWAP15 POP POP POP POP POP POP POP POP POP POP POP POP POP POP POP SWAP1 JUMP JUMPDEST PUSH1 0x0 DUP1 SLOAD PUSH1 0xFF AND PUSH2 0x1A9B JUMPI PUSH1 0x40 DUP1 MLOAD PUSH3 0x461BCD PUSH1 0xE5 SHL DUP2 MSTORE PUSH1 0x20 PUSH1 0x4 DUP3 ADD MSTORE PUSH1 0xA PUSH1 0x24 DUP3 ADD MSTORE PUSH10 0x1C994B595B9D195C9959 PUSH1 0xB2 SHL PUSH1 0x44 DUP3 ADD MSTORE SWAP1 MLOAD SWAP1 DUP2 SWAP1 SUB PUSH1 0x64 ADD SWAP1 REVERT JUMPDEST PUSH1 0x0 DUP1 SLOAD PUSH1 0xFF NOT AND DUP2 SSTORE PUSH2 0x1AB1 CALLER CALLER DUP7 DUP7 PUSH2 0x2652 JUMP JUMPDEST EQ SWAP1 POP PUSH1 0x0 DUP1 SLOAD PUSH1 0xFF NOT AND PUSH1 0x1 OR SWAP1 SSTORE SWAP3 SWAP2 POP POP JUMP JUMPDEST PUSH1 0xA SLOAD DUP2 JUMP JUMPDEST PUSH1 0x0 PUSH2 0x1ADA DUP4 CALLVALUE DUP5 PUSH2 0x2FB7 JUMP JUMPDEST POP SWAP1 POP PUSH2 0x1B15 DUP2 PUSH1 0x40 MLOAD DUP1 PUSH1 0x40 ADD PUSH1 0x40 MSTORE DUP1 PUSH1 0x16 DUP2 MSTORE PUSH1 0x20 ADD PUSH22 0x1B1A5C5D5A59185D19509BDC9C9BDDC819985A5B1959 PUSH1 0x52 SHL DUP2 MSTORE POP PUSH2 0xB7B JUMP JUMPDEST POP POP POP JUMP JUMPDEST PUSH1 0x6 SLOAD PUSH1 0x0 SWAP1 PUSH1 0x1 PUSH1 0x1 PUSH1 0xA0 SHL SUB AND PUSH4 0xB8168816 PUSH2 0x1B36 PUSH2 0x29B5 JUMP JUMPDEST PUSH1 0xB SLOAD PUSH1 0xC SLOAD PUSH1 0x8 SLOAD PUSH1 0x40 MLOAD DUP6 PUSH4 0xFFFFFFFF AND PUSH1 0xE0 SHL DUP2 MSTORE PUSH1 0x4 ADD DUP1 DUP6 DUP2 MSTORE PUSH1 0x20 ADD DUP5 DUP2 MSTORE PUSH1 0x20 ADD DUP4 DUP2 MSTORE PUSH1 0x20 ADD DUP3 DUP2 MSTORE PUSH1 0x20 ADD SWAP5 POP POP POP POP POP PUSH1 0x20 PUSH1 0x40 MLOAD DUP1 DUP4 SUB DUP2 DUP7 DUP1 EXTCODESIZE ISZERO DUP1 ISZERO PUSH2 0x1B88 JUMPI PUSH1 0x0 DUP1 REVERT JUMPDEST POP GAS STATICCALL ISZERO DUP1 ISZERO PUSH2 0x1B9C JUMPI RETURNDATASIZE PUSH1 0x0 DUP1 RETURNDATACOPY RETURNDATASIZE PUSH1 0x0 REVERT JUMPDEST POP POP POP POP PUSH1 0x40 MLOAD RETURNDATASIZE PUSH1 0x20 DUP2 LT ISZERO PUSH2 0x1BB2 JUMPI PUSH1 0x0 DUP1 REVERT JUMPDEST POP MLOAD SWAP1 POP SWAP1 JUMP JUMPDEST PUSH1 0x0 DUP1 SLOAD PUSH1 0xFF AND PUSH2 0x1BFE JUMPI PUSH1 0x40 DUP1 MLOAD PUSH3 0x461BCD PUSH1 0xE5 SHL DUP2 MSTORE PUSH1 0x20 PUSH1 0x4 DUP3 ADD MSTORE PUSH1 0xA PUSH1 0x24 DUP3 ADD MSTORE PUSH10 0x1C994B595B9D195C9959 PUSH1 0xB2 SHL PUSH1 0x44 DUP3 ADD MSTORE SWAP1 MLOAD SWAP1 DUP2 SWAP1 SUB PUSH1 0x64 ADD SWAP1 REVERT JUMPDEST PUSH1 0x0 DUP1 SLOAD PUSH1 0xFF NOT AND SWAP1 SSTORE PUSH2 0x1C14 CALLER DUP6 DUP6 DUP6 PUSH2 0x30E9 JUMP JUMPDEST SWAP1 POP PUSH1 0x0 DUP1 SLOAD PUSH1 0xFF NOT AND PUSH1 0x1 OR SWAP1 SSTORE SWAP4 SWAP3 POP POP POP JUMP JUMPDEST PUSH1 0x3 SLOAD PUSH1 0x0 SWAP1 PUSH2 0x100 SWAP1 DIV PUSH1 0x1 PUSH1 0x1 PUSH1 0xA0 SHL SUB AND CALLER EQ PUSH2 0x1C50 JUMPI PUSH2 0x1159 PUSH1 0x1 PUSH1 0x45 PUSH2 0x20DD JUMP JUMPDEST PUSH1 0x4 DUP1 SLOAD PUSH1 0x1 PUSH1 0x1 PUSH1 0xA0 SHL SUB DUP5 DUP2 AND PUSH1 0x1 PUSH1 0x1 PUSH1 0xA0 SHL SUB NOT DUP4 AND DUP2 OR SWAP1 SWAP4 SSTORE PUSH1 0x40 DUP1 MLOAD SWAP2 SWAP1 SWAP3 AND DUP1 DUP3 MSTORE PUSH1 0x20 DUP3 ADD SWAP4 SWAP1 SWAP4 MSTORE DUP2 MLOAD PUSH32 0xCA4F2F25D0898EDD99413412FB94012F9E54EC8142F9B093E7720646A95B16A9 SWAP3 SWAP2 DUP2 SWAP1 SUB SWAP1 SWAP2 ADD SWAP1 LOG1 PUSH1 0x0 PUSH2 0x1281 JUMP JUMPDEST PUSH1 0x0 DUP1 SLOAD PUSH1 0xFF AND PUSH2 0x1CFB JUMPI PUSH1 0x40 DUP1 MLOAD PUSH3 0x461BCD PUSH1 0xE5 SHL DUP2 MSTORE PUSH1 0x20 PUSH1 0x4 DUP3 ADD MSTORE PUSH1 0xA PUSH1 0x24 DUP3 ADD MSTORE PUSH10 0x1C994B595B9D195C9959 PUSH1 0xB2 SHL PUSH1 0x44 DUP3 ADD MSTORE SWAP1 MLOAD SWAP1 DUP2 SWAP1 SUB PUSH1 0x64 ADD SWAP1 REVERT JUMPDEST PUSH1 0x0 DUP1 SLOAD PUSH1 0xFF NOT AND DUP2 SSTORE PUSH2 0x1D0D PUSH2 0x16FE JUMP JUMPDEST EQ PUSH2 0x1D58 JUMPI PUSH1 0x40 DUP1 MLOAD PUSH3 0x461BCD PUSH1 0xE5 SHL DUP2 MSTORE PUSH1 0x20 PUSH1 0x4 DUP3 ADD MSTORE PUSH1 0x16 PUSH1 0x24 DUP3 ADD MSTORE PUSH22 0x1858D8DC9D59481A5B9D195C995CDD0819985A5B1959 PUSH1 0x52 SHL PUSH1 0x44 DUP3 ADD MSTORE SWAP1 MLOAD SWAP1 DUP2 SWAP1 SUB PUSH1 0x64 ADD SWAP1 REVERT JUMPDEST PUSH2 0x1D60 PUSH2 0xF7F JUMP JUMPDEST SWAP1 POP PUSH1 0x0 DUP1 SLOAD PUSH1 0xFF NOT AND PUSH1 0x1 OR SWAP1 SSTORE SWAP1 JUMP JUMPDEST PUSH1 0x1 PUSH1 0x1 PUSH1 0xA0 SHL SUB DUP2 AND PUSH1 0x0 SWAP1 DUP2 MSTORE PUSH1 0xE PUSH1 0x20 MSTORE PUSH1 0x40 DUP2 KECCAK256 SLOAD DUP2 SWAP1 DUP2 SWAP1 DUP2 SWAP1 DUP2 DUP1 DUP1 PUSH2 0x1D9D DUP10 PUSH2 0x2C17 JUMP JUMPDEST SWAP4 POP SWAP1 POP PUSH1 0x0 DUP2 PUSH1 0x3 DUP2 GT ISZERO PUSH2 0x1DAF JUMPI INVALID JUMPDEST EQ PUSH2 0x1DCD JUMPI PUSH1 0x9 JUMPDEST SWAP8 POP PUSH1 0x0 SWAP7 POP DUP7 SWAP6 POP DUP6 SWAP5 POP PUSH2 0x1E00 SWAP4 POP POP POP POP JUMP JUMPDEST PUSH2 0x1DD5 PUSH2 0x25A3 JUMP JUMPDEST SWAP3 POP SWAP1 POP PUSH1 0x0 DUP2 PUSH1 0x3 DUP2 GT ISZERO PUSH2 0x1DE7 JUMPI INVALID JUMPDEST EQ PUSH2 0x1DF3 JUMPI PUSH1 0x9 PUSH2 0x1DB7 JUMP JUMPDEST POP PUSH1 0x0 SWAP7 POP SWAP2 SWAP5 POP SWAP3 POP SWAP1 POP JUMPDEST SWAP2 SWAP4 POP SWAP2 SWAP4 JUMP JUMPDEST PUSH1 0x0 PUSH2 0xE6F DUP3 PUSH2 0x334F JUMP JUMPDEST PUSH1 0x0 PUSH2 0xE6F DUP3 PUSH2 0x33CE JUMP JUMPDEST PUSH1 0x1 PUSH1 0x1 PUSH1 0xA0 SHL SUB SWAP2 DUP3 AND PUSH1 0x0 SWAP1 DUP2 MSTORE PUSH1 0xF PUSH1 0x20 SWAP1 DUP2 MSTORE PUSH1 0x40 DUP1 DUP4 KECCAK256 SWAP4 SWAP1 SWAP5 AND DUP3 MSTORE SWAP2 SWAP1 SWAP2 MSTORE KECCAK256 SLOAD SWAP1 JUMP JUMPDEST PUSH1 0x0 PUSH2 0x1E54 DUP3 CALLVALUE PUSH2 0x3448 JUMP JUMPDEST POP SWAP1 POP PUSH2 0xD77 DUP2 PUSH1 0x40 MLOAD DUP1 PUSH1 0x40 ADD PUSH1 0x40 MSTORE DUP1 PUSH1 0x18 DUP2 MSTORE PUSH1 0x20 ADD PUSH32 0x7265706179426F72726F77426568616C66206661696C65640000000000000000 DUP2 MSTORE POP PUSH2 0xB7B JUMP JUMPDEST PUSH1 0x4 SLOAD PUSH1 0x0 SWAP1 PUSH1 0x1 PUSH1 0x1 PUSH1 0xA0 SHL SUB AND CALLER EQ ISZERO DUP1 PUSH2 0x1EB1 JUMPI POP CALLER ISZERO JUMPDEST ISZERO PUSH2 0x1EC9 JUMPI PUSH2 0x1EC2 PUSH1 0x1 PUSH1 0x0 PUSH2 0x20DD JUMP JUMPDEST SWAP1 POP PUSH2 0xFDF JUMP JUMPDEST PUSH1 0x3 DUP1 SLOAD PUSH1 0x4 DUP1 SLOAD PUSH1 0x1 PUSH1 0x1 PUSH1 0xA0 SHL SUB DUP2 DUP2 AND PUSH2 0x100 DUP2 DUP2 MUL PUSH2 0x100 PUSH1 0x1 PUSH1 0xA8 SHL SUB NOT DUP8 AND OR SWAP7 DUP8 SWAP1 SSTORE PUSH1 0x1 PUSH1 0x1 PUSH1 0xA0 SHL SUB NOT SWAP1 SWAP4 AND SWAP1 SWAP4 SSTORE PUSH1 0x40 DUP1 MLOAD SWAP5 DUP4 SWAP1 DIV DUP3 AND DUP1 DUP7 MSTORE SWAP3 SWAP1 SWAP6 DIV AND PUSH1 0x20 DUP5 ADD MSTORE DUP4 MLOAD SWAP1 SWAP4 SWAP2 SWAP3 PUSH32 0xF9FFABCA9C8276E99321725BCB43FB076A6C66A54B7F21C4E8146D8519B417DC SWAP3 SWAP1 DUP3 SWAP1 SUB ADD SWAP1 LOG1 PUSH1 0x4 SLOAD PUSH1 0x40 DUP1 MLOAD PUSH1 0x1 PUSH1 0x1 PUSH1 0xA0 SHL SUB DUP1 DUP6 AND DUP3 MSTORE SWAP1 SWAP3 AND PUSH1 0x20 DUP4 ADD MSTORE DUP1 MLOAD PUSH32 0xCA4F2F25D0898EDD99413412FB94012F9E54EC8142F9B093E7720646A95B16A9 SWAP3 DUP2 SWAP1 SUB SWAP1 SWAP2 ADD SWAP1 LOG1 PUSH1 0x0 SWAP3 POP POP POP SWAP1 JUMP JUMPDEST PUSH1 0x0 DUP1 PUSH2 0x1FA4 PUSH2 0x16FE JUMP JUMPDEST SWAP1 POP DUP1 ISZERO PUSH2 0x1FCA JUMPI PUSH2 0x1FC2 DUP2 PUSH1 0x10 DUP2 GT ISZERO PUSH2 0x1FBB JUMPI INVALID JUMPDEST PUSH1 0x40 PUSH2 0x20DD JUMP JUMPDEST SWAP2 POP POP PUSH2 0x111F JUMP JUMPDEST PUSH2 0x1281 DUP4 PUSH2 0x2CCF JUMP JUMPDEST PUSH1 0x6 SLOAD PUSH1 0x1 PUSH1 0x1 PUSH1 0xA0 SHL SUB AND DUP2 JUMP JUMPDEST PUSH1 0x3 SLOAD PUSH2 0x100 SWAP1 DIV PUSH1 0x1 PUSH1 0x1 PUSH1 0xA0 SHL SUB AND DUP2 JUMP JUMPDEST PUSH1 0x6 SLOAD PUSH1 0x0 SWAP1 PUSH1 0x1 PUSH1 0x1 PUSH1 0xA0 SHL SUB AND PUSH4 0x15F24053 PUSH2 0x2012 PUSH2 0x29B5 JUMP JUMPDEST PUSH1 0xB SLOAD PUSH1 0xC SLOAD PUSH1 0x40 MLOAD DUP5 PUSH4 0xFFFFFFFF AND PUSH1 0xE0 SHL DUP2 MSTORE PUSH1 0x4 ADD DUP1 DUP5 DUP2 MSTORE PUSH1 0x20 ADD DUP4 DUP2 MSTORE PUSH1 0x20 ADD DUP3 DUP2 MSTORE PUSH1 0x20 ADD SWAP4 POP POP POP POP PUSH1 0x20 PUSH1 0x40 MLOAD DUP1 DUP4 SUB DUP2 DUP7 DUP1 EXTCODESIZE ISZERO DUP1 ISZERO PUSH2 0x1B88 JUMPI PUSH1 0x0 DUP1 REVERT JUMPDEST PUSH1 0x0 DUP1 SLOAD PUSH1 0xFF AND PUSH2 0x209F JUMPI PUSH1 0x40 DUP1 MLOAD PUSH3 0x461BCD PUSH1 0xE5 SHL DUP2 MSTORE PUSH1 0x20 PUSH1 0x4 DUP3 ADD MSTORE PUSH1 0xA PUSH1 0x24 DUP3 ADD MSTORE PUSH10 0x1C994B595B9D195C9959 PUSH1 0xB2 SHL PUSH1 0x44 DUP3 ADD MSTORE SWAP1 MLOAD SWAP1 DUP2 SWAP1 SUB PUSH1 0x64 ADD SWAP1 REVERT JUMPDEST PUSH1 0x0 DUP1 SLOAD PUSH1 0xFF NOT AND DUP2 SSTORE PUSH2 0x20B1 PUSH2 0x16FE JUMP JUMPDEST SWAP1 POP DUP1 ISZERO PUSH2 0x20CF JUMPI PUSH2 0x1354 DUP2 PUSH1 0x10 DUP2 GT ISZERO PUSH2 0x20C8 JUMPI INVALID JUMPDEST PUSH1 0x46 PUSH2 0x20DD JUMP JUMPDEST PUSH2 0x1365 DUP4 PUSH2 0x34F3 JUMP JUMPDEST PUSH1 0x1 DUP2 JUMP JUMPDEST PUSH1 0x0 PUSH32 0x45B96FE442630264581B197E84BBADA861235052C5A1AADFFF9EA4E40A969AA0 DUP4 PUSH1 0x10 DUP2 GT ISZERO PUSH2 0x210C JUMPI INVALID JUMPDEST DUP4 PUSH1 0x50 DUP2 GT ISZERO PUSH2 0x2118 JUMPI INVALID JUMPDEST PUSH1 0x40 DUP1 MLOAD SWAP3 DUP4 MSTORE PUSH1 0x20 DUP4 ADD SWAP2 SWAP1 SWAP2 MSTORE PUSH1 0x0 DUP3 DUP3 ADD MSTORE MLOAD SWAP1 DUP2 SWAP1 SUB PUSH1 0x60 ADD SWAP1 LOG1 DUP3 PUSH1 0x10 DUP2 GT ISZERO PUSH2 0x1281 JUMPI INVALID JUMPDEST PUSH1 0x5 SLOAD PUSH1 0x40 DUP1 MLOAD PUSH4 0x4EF4C3E1 PUSH1 0xE0 SHL DUP2 MSTORE ADDRESS PUSH1 0x4 DUP3 ADD MSTORE PUSH1 0x1 PUSH1 0x1 PUSH1 0xA0 SHL SUB DUP6 DUP2 AND PUSH1 0x24 DUP4 ADD MSTORE PUSH1 0x44 DUP3 ADD DUP6 SWAP1 MSTORE SWAP2 MLOAD PUSH1 0x0 SWAP4 DUP5 SWAP4 DUP5 SWAP4 SWAP2 AND SWAP2 PUSH4 0x4EF4C3E1 SWAP2 PUSH1 0x64 DUP1 DUP3 ADD SWAP3 PUSH1 0x20 SWAP3 SWAP1 SWAP2 SWAP1 DUP3 SWAP1 SUB ADD DUP2 DUP8 DUP8 DUP1 EXTCODESIZE ISZERO DUP1 ISZERO PUSH2 0x21A4 JUMPI PUSH1 0x0 DUP1 REVERT JUMPDEST POP GAS CALL ISZERO DUP1 ISZERO PUSH2 0x21B8 JUMPI RETURNDATASIZE PUSH1 0x0 DUP1 RETURNDATACOPY RETURNDATASIZE PUSH1 0x0 REVERT JUMPDEST POP POP POP POP PUSH1 0x40 MLOAD RETURNDATASIZE PUSH1 0x20 DUP2 LT ISZERO PUSH2 0x21CE JUMPI PUSH1 0x0 DUP1 REVERT JUMPDEST POP MLOAD SWAP1 POP DUP1 ISZERO PUSH2 0x21F2 JUMPI PUSH2 0x21E5 PUSH1 0x3 PUSH1 0x1F DUP4 PUSH2 0x2ECF JUMP JUMPDEST SWAP3 POP PUSH1 0x0 SWAP2 POP PUSH2 0x259C SWAP1 POP JUMP JUMPDEST PUSH2 0x21FA PUSH2 0x2CCB JUMP JUMPDEST PUSH1 0x9 SLOAD EQ PUSH2 0x220E JUMPI PUSH2 0x21E5 PUSH1 0xA PUSH1 0x22 PUSH2 0x20DD JUMP JUMPDEST PUSH2 0x2216 PUSH2 0x4A18 JUMP JUMPDEST PUSH2 0x221E PUSH2 0x25A3 JUMP JUMPDEST PUSH1 0x40 DUP4 ADD DUP2 SWAP1 MSTORE PUSH1 0x20 DUP4 ADD DUP3 PUSH1 0x3 DUP2 GT ISZERO PUSH2 0x2235 JUMPI INVALID JUMPDEST PUSH1 0x3 DUP2 GT ISZERO PUSH2 0x2240 JUMPI INVALID JUMPDEST SWAP1 MSTORE POP PUSH1 0x0 SWAP1 POP DUP2 PUSH1 0x20 ADD MLOAD PUSH1 0x3 DUP2 GT ISZERO PUSH2 0x2257 JUMPI INVALID JUMPDEST EQ PUSH2 0x2281 JUMPI PUSH2 0x2273 PUSH1 0x9 PUSH1 0x21 DUP4 PUSH1 0x20 ADD MLOAD PUSH1 0x3 DUP2 GT ISZERO PUSH2 0x18E6 JUMPI INVALID JUMPDEST SWAP4 POP PUSH1 0x0 SWAP3 POP PUSH2 0x259C SWAP2 POP POP JUMP JUMPDEST PUSH2 0x228B DUP7 DUP7 PUSH2 0x359B JUMP JUMPDEST PUSH1 0xC0 DUP3 ADD DUP2 SWAP1 MSTORE PUSH1 0x40 DUP1 MLOAD PUSH1 0x20 DUP2 ADD DUP3 MSTORE SWAP1 DUP4 ADD MLOAD DUP2 MSTORE PUSH2 0x22AC SWAP2 SWAP1 PUSH2 0x3637 JUMP JUMPDEST PUSH1 0x60 DUP4 ADD DUP2 SWAP1 MSTORE PUSH1 0x20 DUP4 ADD DUP3 PUSH1 0x3 DUP2 GT ISZERO PUSH2 0x22C3 JUMPI INVALID JUMPDEST PUSH1 0x3 DUP2 GT ISZERO PUSH2 0x22CE JUMPI INVALID JUMPDEST SWAP1 MSTORE POP PUSH1 0x0 SWAP1 POP DUP2 PUSH1 0x20 ADD MLOAD PUSH1 0x3 DUP2 GT ISZERO PUSH2 0x22E5 JUMPI INVALID JUMPDEST EQ PUSH2 0x2337 JUMPI PUSH1 0x40 DUP1 MLOAD PUSH3 0x461BCD PUSH1 0xE5 SHL DUP2 MSTORE PUSH1 0x20 PUSH1 0x4 DUP3 ADD DUP2 SWAP1 MSTORE PUSH1 0x24 DUP3 ADD MSTORE PUSH32 0x4D494E545F45584348414E47455F43414C43554C4154494F4E5F4641494C4544 PUSH1 0x44 DUP3 ADD MSTORE SWAP1 MLOAD SWAP1 DUP2 SWAP1 SUB PUSH1 0x64 ADD SWAP1 REVERT JUMPDEST PUSH2 0x2347 PUSH1 0xD SLOAD DUP3 PUSH1 0x60 ADD MLOAD PUSH2 0x2F35 JUMP JUMPDEST PUSH1 0x80 DUP4 ADD DUP2 SWAP1 MSTORE PUSH1 0x20 DUP4 ADD DUP3 PUSH1 0x3 DUP2 GT ISZERO PUSH2 0x235E JUMPI INVALID JUMPDEST PUSH1 0x3 DUP2 GT ISZERO PUSH2 0x2369 JUMPI INVALID JUMPDEST SWAP1 MSTORE POP PUSH1 0x0 SWAP1 POP DUP2 PUSH1 0x20 ADD MLOAD PUSH1 0x3 DUP2 GT ISZERO PUSH2 0x2380 JUMPI INVALID JUMPDEST EQ PUSH2 0x23BC JUMPI PUSH1 0x40 MLOAD PUSH3 0x461BCD PUSH1 0xE5 SHL DUP2 MSTORE PUSH1 0x4 ADD DUP1 DUP1 PUSH1 0x20 ADD DUP3 DUP2 SUB DUP3 MSTORE PUSH1 0x28 DUP2 MSTORE PUSH1 0x20 ADD DUP1 PUSH2 0x4CCE PUSH1 0x28 SWAP2 CODECOPY PUSH1 0x40 ADD SWAP2 POP POP PUSH1 0x40 MLOAD DUP1 SWAP2 SUB SWAP1 REVERT JUMPDEST PUSH1 0x1 PUSH1 0x1 PUSH1 0xA0 SHL SUB DUP7 AND PUSH1 0x0 SWAP1 DUP2 MSTORE PUSH1 0xE PUSH1 0x20 MSTORE PUSH1 0x40 SWAP1 KECCAK256 SLOAD PUSH1 0x60 DUP3 ADD MLOAD PUSH2 0x23E4 SWAP2 SWAP1 PUSH2 0x2F35 JUMP JUMPDEST PUSH1 0xA0 DUP4 ADD DUP2 SWAP1 MSTORE PUSH1 0x20 DUP4 ADD DUP3 PUSH1 0x3 DUP2 GT ISZERO PUSH2 0x23FB JUMPI INVALID JUMPDEST PUSH1 0x3 DUP2 GT ISZERO PUSH2 0x2406 JUMPI INVALID JUMPDEST SWAP1 MSTORE POP PUSH1 0x0 SWAP1 POP DUP2 PUSH1 0x20 ADD MLOAD PUSH1 0x3 DUP2 GT ISZERO PUSH2 0x241D JUMPI INVALID JUMPDEST EQ PUSH2 0x2459 JUMPI PUSH1 0x40 MLOAD PUSH3 0x461BCD PUSH1 0xE5 SHL DUP2 MSTORE PUSH1 0x4 ADD DUP1 DUP1 PUSH1 0x20 ADD DUP3 DUP2 SUB DUP3 MSTORE PUSH1 0x2B DUP2 MSTORE PUSH1 0x20 ADD DUP1 PUSH2 0x4B79 PUSH1 0x2B SWAP2 CODECOPY PUSH1 0x40 ADD SWAP2 POP POP PUSH1 0x40 MLOAD DUP1 SWAP2 SUB SWAP1 REVERT JUMPDEST PUSH1 0x80 DUP2 ADD MLOAD PUSH1 0xD SSTORE PUSH1 0xA0 DUP2 ADD MLOAD PUSH1 0x1 PUSH1 0x1 PUSH1 0xA0 SHL SUB DUP8 AND PUSH1 0x0 DUP2 DUP2 MSTORE PUSH1 0xE PUSH1 0x20 SWAP1 DUP2 MSTORE PUSH1 0x40 SWAP2 DUP3 SWAP1 KECCAK256 SWAP4 SWAP1 SWAP4 SSTORE PUSH1 0xC0 DUP5 ADD MLOAD PUSH1 0x60 DUP1 DUP7 ADD MLOAD DUP4 MLOAD SWAP5 DUP6 MSTORE SWAP5 DUP5 ADD SWAP2 SWAP1 SWAP2 MSTORE DUP3 DUP3 ADD SWAP4 SWAP1 SWAP4 MSTORE MLOAD PUSH32 0x4C209B5FC8AD50758F13E2E1088BA56A560DFF690A1C6FEF26394F4C03821C4F SWAP3 SWAP2 DUP2 SWAP1 SUB SWAP1 SWAP2 ADD SWAP1 LOG1 PUSH1 0x60 DUP2 ADD MLOAD PUSH1 0x40 DUP1 MLOAD SWAP2 DUP3 MSTORE MLOAD PUSH1 0x1 PUSH1 0x1 PUSH1 0xA0 SHL SUB DUP9 AND SWAP2 ADDRESS SWAP2 PUSH1 0x0 DUP1 MLOAD PUSH1 0x20 PUSH2 0x4C15 DUP4 CODECOPY DUP2 MLOAD SWAP2 MSTORE SWAP2 DUP2 SWAP1 SUB PUSH1 0x20 ADD SWAP1 LOG3 PUSH1 0x5 SLOAD PUSH1 0xC0 DUP3 ADD MLOAD PUSH1 0x60 DUP4 ADD MLOAD PUSH1 0x40 DUP1 MLOAD PUSH4 0x41C728B9 PUSH1 0xE0 SHL DUP2 MSTORE ADDRESS PUSH1 0x4 DUP3 ADD MSTORE PUSH1 0x1 PUSH1 0x1 PUSH1 0xA0 SHL SUB DUP12 DUP2 AND PUSH1 0x24 DUP4 ADD MSTORE PUSH1 0x44 DUP3 ADD SWAP5 SWAP1 SWAP5 MSTORE PUSH1 0x64 DUP2 ADD SWAP3 SWAP1 SWAP3 MSTORE MLOAD SWAP2 SWAP1 SWAP3 AND SWAP2 PUSH4 0x41C728B9 SWAP2 PUSH1 0x84 DUP1 DUP4 ADD SWAP3 PUSH1 0x0 SWAP3 SWAP2 SWAP1 DUP3 SWAP1 SUB ADD DUP2 DUP4 DUP8 DUP1 EXTCODESIZE ISZERO DUP1 ISZERO PUSH2 0x256F JUMPI PUSH1 0x0 DUP1 REVERT JUMPDEST POP GAS CALL ISZERO DUP1 ISZERO PUSH2 0x2583 JUMPI RETURNDATASIZE PUSH1 0x0 DUP1 RETURNDATACOPY RETURNDATASIZE PUSH1 0x0 REVERT JUMPDEST POP PUSH1 0x0 SWAP3 POP PUSH2 0x2590 SWAP2 POP POP JUMP JUMPDEST DUP2 PUSH1 0xC0 ADD MLOAD SWAP4 POP SWAP4 POP POP POP JUMPDEST SWAP3 POP SWAP3 SWAP1 POP JUMP JUMPDEST PUSH1 0xD SLOAD PUSH1 0x0 SWAP1 DUP2 SWAP1 DUP1 PUSH2 0x25BE JUMPI POP POP PUSH1 0x7 SLOAD PUSH1 0x0 SWAP2 POP PUSH2 0x264E JUMP JUMPDEST PUSH1 0x0 PUSH2 0x25C8 PUSH2 0x29B5 JUMP JUMPDEST SWAP1 POP PUSH1 0x0 PUSH2 0x25D4 PUSH2 0x4987 JUMP JUMPDEST PUSH1 0x0 PUSH2 0x25E5 DUP5 PUSH1 0xB SLOAD PUSH1 0xC SLOAD PUSH2 0x364E JUMP JUMPDEST SWAP4 POP SWAP1 POP PUSH1 0x0 DUP2 PUSH1 0x3 DUP2 GT ISZERO PUSH2 0x25F7 JUMPI INVALID JUMPDEST EQ PUSH2 0x260C JUMPI SWAP6 POP PUSH1 0x0 SWAP5 POP PUSH2 0x264E SWAP4 POP POP POP POP JUMP JUMPDEST PUSH2 0x2616 DUP4 DUP7 PUSH2 0x368C JUMP JUMPDEST SWAP3 POP SWAP1 POP PUSH1 0x0 DUP2 PUSH1 0x3 DUP2 GT ISZERO PUSH2 0x2628 JUMPI INVALID JUMPDEST EQ PUSH2 0x263D JUMPI SWAP6 POP PUSH1 0x0 SWAP5 POP PUSH2 0x264E SWAP4 POP POP POP POP JUMP JUMPDEST POP MLOAD PUSH1 0x0 SWAP6 POP SWAP4 POP PUSH2 0x264E SWAP3 POP POP POP JUMP JUMPDEST SWAP1 SWAP2 JUMP JUMPDEST PUSH1 0x5 SLOAD PUSH1 0x40 DUP1 MLOAD PUSH4 0x17B9B84B PUSH1 0xE3 SHL DUP2 MSTORE ADDRESS PUSH1 0x4 DUP3 ADD MSTORE PUSH1 0x1 PUSH1 0x1 PUSH1 0xA0 SHL SUB DUP7 DUP2 AND PUSH1 0x24 DUP4 ADD MSTORE DUP6 DUP2 AND PUSH1 0x44 DUP4 ADD MSTORE PUSH1 0x64 DUP3 ADD DUP6 SWAP1 MSTORE SWAP2 MLOAD PUSH1 0x0 SWAP4 DUP5 SWAP4 AND SWAP2 PUSH4 0xBDCDC258 SWAP2 PUSH1 0x84 DUP1 DUP4 ADD SWAP3 PUSH1 0x20 SWAP3 SWAP2 SWAP1 DUP3 SWAP1 SUB ADD DUP2 DUP8 DUP8 DUP1 EXTCODESIZE ISZERO DUP1 ISZERO PUSH2 0x26B7 JUMPI PUSH1 0x0 DUP1 REVERT JUMPDEST POP GAS CALL ISZERO DUP1 ISZERO PUSH2 0x26CB JUMPI RETURNDATASIZE PUSH1 0x0 DUP1 RETURNDATACOPY RETURNDATASIZE PUSH1 0x0 REVERT JUMPDEST POP POP POP POP PUSH1 0x40 MLOAD RETURNDATASIZE PUSH1 0x20 DUP2 LT ISZERO PUSH2 0x26E1 JUMPI PUSH1 0x0 DUP1 REVERT JUMPDEST POP MLOAD SWAP1 POP DUP1 ISZERO PUSH2 0x2700 JUMPI PUSH2 0x26F8 PUSH1 0x3 PUSH1 0x4A DUP4 PUSH2 0x2ECF JUMP JUMPDEST SWAP2 POP POP PUSH2 0x295A JUMP JUMPDEST DUP4 PUSH1 0x1 PUSH1 0x1 PUSH1 0xA0 SHL SUB AND DUP6 PUSH1 0x1 PUSH1 0x1 PUSH1 0xA0 SHL SUB AND EQ ISZERO PUSH2 0x2726 JUMPI PUSH2 0x26F8 PUSH1 0x2 PUSH1 0x4B PUSH2 0x20DD JUMP JUMPDEST PUSH1 0x0 PUSH1 0x1 PUSH1 0x1 PUSH1 0xA0 SHL SUB DUP8 DUP2 AND SWAP1 DUP8 AND EQ ISZERO PUSH2 0x2745 JUMPI POP PUSH1 0x0 NOT PUSH2 0x276D JUMP JUMPDEST POP PUSH1 0x1 PUSH1 0x1 PUSH1 0xA0 SHL SUB DUP1 DUP7 AND PUSH1 0x0 SWAP1 DUP2 MSTORE PUSH1 0xF PUSH1 0x20 SWAP1 DUP2 MSTORE PUSH1 0x40 DUP1 DUP4 KECCAK256 SWAP4 DUP11 AND DUP4 MSTORE SWAP3 SWAP1 MSTORE KECCAK256 SLOAD JUMPDEST PUSH1 0x0 DUP1 PUSH1 0x0 DUP1 PUSH2 0x277D DUP6 DUP10 PUSH2 0x2E44 JUMP JUMPDEST SWAP1 SWAP5 POP SWAP3 POP PUSH1 0x0 DUP5 PUSH1 0x3 DUP2 GT ISZERO PUSH2 0x2790 JUMPI INVALID JUMPDEST EQ PUSH2 0x27AE JUMPI PUSH2 0x27A1 PUSH1 0x9 PUSH1 0x4B PUSH2 0x20DD JUMP JUMPDEST SWAP7 POP POP POP POP POP POP POP PUSH2 0x295A JUMP JUMPDEST PUSH1 0x1 PUSH1 0x1 PUSH1 0xA0 SHL SUB DUP11 AND PUSH1 0x0 SWAP1 DUP2 MSTORE PUSH1 0xE PUSH1 0x20 MSTORE PUSH1 0x40 SWAP1 KECCAK256 SLOAD PUSH2 0x27D1 SWAP1 DUP10 PUSH2 0x2E44 JUMP JUMPDEST SWAP1 SWAP5 POP SWAP2 POP PUSH1 0x0 DUP5 PUSH1 0x3 DUP2 GT ISZERO PUSH2 0x27E4 JUMPI INVALID JUMPDEST EQ PUSH2 0x27F5 JUMPI PUSH2 0x27A1 PUSH1 0x9 PUSH1 0x4C PUSH2 0x20DD JUMP JUMPDEST PUSH1 0x1 PUSH1 0x1 PUSH1 0xA0 SHL SUB DUP10 AND PUSH1 0x0 SWAP1 DUP2 MSTORE PUSH1 0xE PUSH1 0x20 MSTORE PUSH1 0x40 SWAP1 KECCAK256 SLOAD PUSH2 0x2818 SWAP1 DUP10 PUSH2 0x2F35 JUMP JUMPDEST SWAP1 SWAP5 POP SWAP1 POP PUSH1 0x0 DUP5 PUSH1 0x3 DUP2 GT ISZERO PUSH2 0x282B JUMPI INVALID JUMPDEST EQ PUSH2 0x283C JUMPI PUSH2 0x27A1 PUSH1 0x9 PUSH1 0x4D PUSH2 0x20DD JUMP JUMPDEST PUSH1 0x1 PUSH1 0x1 PUSH1 0xA0 SHL SUB DUP1 DUP12 AND PUSH1 0x0 SWAP1 DUP2 MSTORE PUSH1 0xE PUSH1 0x20 MSTORE PUSH1 0x40 DUP1 DUP3 KECCAK256 DUP6 SWAP1 SSTORE SWAP2 DUP12 AND DUP2 MSTORE KECCAK256 DUP2 SWAP1 SSTORE PUSH1 0x0 NOT DUP6 EQ PUSH2 0x2894 JUMPI PUSH1 0x1 PUSH1 0x1 PUSH1 0xA0 SHL SUB DUP1 DUP12 AND PUSH1 0x0 SWAP1 DUP2 MSTORE PUSH1 0xF PUSH1 0x20 SWAP1 DUP2 MSTORE PUSH1 0x40 DUP1 DUP4 KECCAK256 SWAP4 DUP16 AND DUP4 MSTORE SWAP3 SWAP1 MSTORE KECCAK256 DUP4 SWAP1 SSTORE JUMPDEST DUP9 PUSH1 0x1 PUSH1 0x1 PUSH1 0xA0 SHL SUB AND DUP11 PUSH1 0x1 PUSH1 0x1 PUSH1 0xA0 SHL SUB AND PUSH1 0x0 DUP1 MLOAD PUSH1 0x20 PUSH2 0x4C15 DUP4 CODECOPY DUP2 MLOAD SWAP2 MSTORE DUP11 PUSH1 0x40 MLOAD DUP1 DUP3 DUP2 MSTORE PUSH1 0x20 ADD SWAP2 POP POP PUSH1 0x40 MLOAD DUP1 SWAP2 SUB SWAP1 LOG3 PUSH1 0x5 SLOAD PUSH1 0x40 DUP1 MLOAD PUSH4 0x352B4A3F PUSH1 0xE1 SHL DUP2 MSTORE ADDRESS PUSH1 0x4 DUP3 ADD MSTORE PUSH1 0x1 PUSH1 0x1 PUSH1 0xA0 SHL SUB DUP14 DUP2 AND PUSH1 0x24 DUP4 ADD MSTORE DUP13 DUP2 AND PUSH1 0x44 DUP4 ADD MSTORE PUSH1 0x64 DUP3 ADD DUP13 SWAP1 MSTORE SWAP2 MLOAD SWAP2 SWAP1 SWAP3 AND SWAP2 PUSH4 0x6A56947E SWAP2 PUSH1 0x84 DUP1 DUP4 ADD SWAP3 PUSH1 0x0 SWAP3 SWAP2 SWAP1 DUP3 SWAP1 SUB ADD DUP2 DUP4 DUP8 DUP1 EXTCODESIZE ISZERO DUP1 ISZERO PUSH2 0x2930 JUMPI PUSH1 0x0 DUP1 REVERT JUMPDEST POP GAS CALL ISZERO DUP1 ISZERO PUSH2 0x2944 JUMPI RETURNDATASIZE PUSH1 0x0 DUP1 RETURNDATACOPY RETURNDATASIZE PUSH1 0x0 REVERT JUMPDEST POP PUSH1 0x0 SWAP3 POP PUSH2 0x2951 SWAP2 POP POP JUMP JUMPDEST SWAP7 POP POP POP POP POP POP POP JUMPDEST SWAP5 SWAP4 POP POP POP POP JUMP JUMPDEST PUSH1 0x0 DUP1 PUSH1 0x0 PUSH2 0x296F PUSH2 0x4987 JUMP JUMPDEST PUSH2 0x2979 DUP7 DUP7 PUSH2 0x2E67 JUMP JUMPDEST SWAP1 SWAP3 POP SWAP1 POP PUSH1 0x0 DUP3 PUSH1 0x3 DUP2 GT ISZERO PUSH2 0x298C JUMPI INVALID JUMPDEST EQ PUSH2 0x299D JUMPI POP SWAP2 POP PUSH1 0x0 SWAP1 POP PUSH2 0x259C JUMP JUMPDEST PUSH1 0x0 PUSH2 0x29A8 DUP3 PUSH2 0x373C JUMP JUMPDEST SWAP4 POP SWAP4 POP POP POP SWAP3 POP SWAP3 SWAP1 POP JUMP JUMPDEST PUSH1 0x0 DUP1 PUSH1 0x0 PUSH2 0x29C4 SELFBALANCE CALLVALUE PUSH2 0x2E44 JUMP JUMPDEST SWAP1 SWAP3 POP SWAP1 POP PUSH1 0x0 DUP3 PUSH1 0x3 DUP2 GT ISZERO PUSH2 0x29D7 JUMPI INVALID JUMPDEST EQ PUSH2 0xFDB JUMPI PUSH1 0x0 DUP1 REVERT JUMPDEST PUSH1 0x0 DUP1 SLOAD DUP2 SWAP1 PUSH1 0xFF AND PUSH2 0x2A28 JUMPI PUSH1 0x40 DUP1 MLOAD PUSH3 0x461BCD PUSH1 0xE5 SHL DUP2 MSTORE PUSH1 0x20 PUSH1 0x4 DUP3 ADD MSTORE PUSH1 0xA PUSH1 0x24 DUP3 ADD MSTORE PUSH10 0x1C994B595B9D195C9959 PUSH1 0xB2 SHL PUSH1 0x44 DUP3 ADD MSTORE SWAP1 MLOAD SWAP1 DUP2 SWAP1 SUB PUSH1 0x64 ADD SWAP1 REVERT JUMPDEST PUSH1 0x0 DUP1 SLOAD PUSH1 0xFF NOT AND DUP2 SSTORE PUSH2 0x2A3A PUSH2 0x16FE JUMP JUMPDEST SWAP1 POP DUP1 ISZERO PUSH2 0x2A58 JUMPI PUSH2 0xB4A DUP2 PUSH1 0x10 DUP2 GT ISZERO PUSH2 0x2A51 JUMPI INVALID JUMPDEST PUSH1 0x36 PUSH2 0x20DD JUMP JUMPDEST PUSH2 0xB61 CALLER CALLER DUP7 PUSH2 0x374B JUMP JUMPDEST PUSH1 0x3 SLOAD PUSH1 0x0 SWAP1 DUP2 SWAP1 PUSH2 0x100 SWAP1 DIV PUSH1 0x1 PUSH1 0x1 PUSH1 0xA0 SHL SUB AND CALLER EQ PUSH2 0x2A8B JUMPI PUSH2 0x1FC2 PUSH1 0x1 PUSH1 0x31 PUSH2 0x20DD JUMP JUMPDEST PUSH2 0x2A93 PUSH2 0x2CCB JUMP JUMPDEST PUSH1 0x9 SLOAD EQ PUSH2 0x2AA7 JUMPI PUSH2 0x1FC2 PUSH1 0xA PUSH1 0x33 PUSH2 0x20DD JUMP JUMPDEST DUP3 PUSH2 0x2AB0 PUSH2 0x29B5 JUMP JUMPDEST LT ISZERO PUSH2 0x2AC2 JUMPI PUSH2 0x1FC2 PUSH1 0xE PUSH1 0x32 PUSH2 0x20DD JUMP JUMPDEST PUSH1 0xC SLOAD DUP4 GT ISZERO PUSH2 0x2AD8 JUMPI PUSH2 0x1FC2 PUSH1 0x2 PUSH1 0x34 PUSH2 0x20DD JUMP JUMPDEST POP PUSH1 0xC SLOAD DUP3 DUP2 SUB SWAP1 DUP2 GT ISZERO PUSH2 0x2B1E JUMPI PUSH1 0x40 MLOAD PUSH3 0x461BCD PUSH1 0xE5 SHL DUP2 MSTORE PUSH1 0x4 ADD DUP1 DUP1 PUSH1 0x20 ADD DUP3 DUP2 SUB DUP3 MSTORE PUSH1 0x24 DUP2 MSTORE PUSH1 0x20 ADD DUP1 PUSH2 0x4D2A PUSH1 0x24 SWAP2 CODECOPY PUSH1 0x40 ADD SWAP2 POP POP PUSH1 0x40 MLOAD DUP1 SWAP2 SUB SWAP1 REVERT JUMPDEST PUSH1 0xC DUP2 SWAP1 SSTORE PUSH1 0x3 SLOAD PUSH2 0x2B3E SWAP1 PUSH2 0x100 SWAP1 DIV PUSH1 0x1 PUSH1 0x1 PUSH1 0xA0 SHL SUB AND DUP5 PUSH2 0x3B30 JUMP JUMPDEST PUSH1 0x3 SLOAD PUSH1 0x40 DUP1 MLOAD PUSH2 0x100 SWAP1 SWAP3 DIV PUSH1 0x1 PUSH1 0x1 PUSH1 0xA0 SHL SUB AND DUP3 MSTORE PUSH1 0x20 DUP3 ADD DUP6 SWAP1 MSTORE DUP2 DUP2 ADD DUP4 SWAP1 MSTORE MLOAD PUSH32 0x3BAD0C59CF2F06E7314077049F48A93578CD16F5EF92329F1DAB1420A99C177E SWAP2 PUSH1 0x60 SWAP1 DUP3 SWAP1 SUB ADD SWAP1 LOG1 PUSH1 0x0 PUSH2 0x1281 JUMP JUMPDEST PUSH1 0x0 DUP1 SLOAD PUSH1 0xFF AND PUSH2 0x2BDB JUMPI PUSH1 0x40 DUP1 MLOAD PUSH3 0x461BCD PUSH1 0xE5 SHL DUP2 MSTORE PUSH1 0x20 PUSH1 0x4 DUP3 ADD MSTORE PUSH1 0xA PUSH1 0x24 DUP3 ADD MSTORE PUSH10 0x1C994B595B9D195C9959 PUSH1 0xB2 SHL PUSH1 0x44 DUP3 ADD MSTORE SWAP1 MLOAD SWAP1 DUP2 SWAP1 SUB PUSH1 0x64 ADD SWAP1 REVERT JUMPDEST PUSH1 0x0 DUP1 SLOAD PUSH1 0xFF NOT AND DUP2 SSTORE PUSH2 0x2BED PUSH2 0x16FE JUMP JUMPDEST SWAP1 POP DUP1 ISZERO PUSH2 0x2C0B JUMPI PUSH2 0x1354 DUP2 PUSH1 0x10 DUP2 GT ISZERO PUSH2 0x2C04 JUMPI INVALID JUMPDEST PUSH1 0x27 PUSH2 0x20DD JUMP JUMPDEST PUSH2 0x1365 CALLER PUSH1 0x0 DUP6 PUSH2 0x3B66 JUMP JUMPDEST PUSH1 0x1 PUSH1 0x1 PUSH1 0xA0 SHL SUB DUP2 AND PUSH1 0x0 SWAP1 DUP2 MSTORE PUSH1 0x10 PUSH1 0x20 MSTORE PUSH1 0x40 DUP2 KECCAK256 DUP1 SLOAD DUP3 SWAP2 DUP3 SWAP2 DUP3 SWAP2 DUP3 SWAP2 PUSH2 0x2C4E JUMPI POP PUSH1 0x0 SWAP5 POP DUP5 SWAP4 POP PUSH2 0x2CC6 SWAP3 POP POP POP JUMP JUMPDEST PUSH2 0x2C5E DUP2 PUSH1 0x0 ADD SLOAD PUSH1 0xA SLOAD PUSH2 0x402D JUMP JUMPDEST SWAP1 SWAP5 POP SWAP3 POP PUSH1 0x0 DUP5 PUSH1 0x3 DUP2 GT ISZERO PUSH2 0x2C71 JUMPI INVALID JUMPDEST EQ PUSH2 0x2C86 JUMPI POP SWAP2 SWAP4 POP PUSH1 0x0 SWAP3 POP PUSH2 0x2CC6 SWAP2 POP POP JUMP JUMPDEST PUSH2 0x2C94 DUP4 DUP3 PUSH1 0x1 ADD SLOAD PUSH2 0x406C JUMP JUMPDEST SWAP1 SWAP5 POP SWAP2 POP PUSH1 0x0 DUP5 PUSH1 0x3 DUP2 GT ISZERO PUSH2 0x2CA7 JUMPI INVALID JUMPDEST EQ PUSH2 0x2CBC JUMPI POP SWAP2 SWAP4 POP PUSH1 0x0 SWAP3 POP PUSH2 0x2CC6 SWAP2 POP POP JUMP JUMPDEST POP PUSH1 0x0 SWAP5 POP SWAP3 POP POP POP JUMPDEST SWAP2 POP SWAP2 JUMP JUMPDEST NUMBER SWAP1 JUMP JUMPDEST PUSH1 0x3 SLOAD PUSH1 0x0 SWAP1 DUP2 SWAP1 PUSH2 0x100 SWAP1 DIV PUSH1 0x1 PUSH1 0x1 PUSH1 0xA0 SHL SUB AND CALLER EQ PUSH2 0x2CF7 JUMPI PUSH2 0x1FC2 PUSH1 0x1 PUSH1 0x42 PUSH2 0x20DD JUMP JUMPDEST PUSH2 0x2CFF PUSH2 0x2CCB JUMP JUMPDEST PUSH1 0x9 SLOAD EQ PUSH2 0x2D13 JUMPI PUSH2 0x1FC2 PUSH1 0xA PUSH1 0x41 PUSH2 0x20DD JUMP JUMPDEST PUSH1 0x6 PUSH1 0x0 SWAP1 SLOAD SWAP1 PUSH2 0x100 EXP SWAP1 DIV PUSH1 0x1 PUSH1 0x1 PUSH1 0xA0 SHL SUB AND SWAP1 POP DUP3 PUSH1 0x1 PUSH1 0x1 PUSH1 0xA0 SHL SUB AND PUSH4 0x2191F92A PUSH1 0x40 MLOAD DUP2 PUSH4 0xFFFFFFFF AND PUSH1 0xE0 SHL DUP2 MSTORE PUSH1 0x4 ADD PUSH1 0x20 PUSH1 0x40 MLOAD DUP1 DUP4 SUB DUP2 DUP7 DUP1 EXTCODESIZE ISZERO DUP1 ISZERO PUSH2 0x2D64 JUMPI PUSH1 0x0 DUP1 REVERT JUMPDEST POP GAS STATICCALL ISZERO DUP1 ISZERO PUSH2 0x2D78 JUMPI RETURNDATASIZE PUSH1 0x0 DUP1 RETURNDATACOPY RETURNDATASIZE PUSH1 0x0 REVERT JUMPDEST POP POP POP POP PUSH1 0x40 MLOAD RETURNDATASIZE PUSH1 0x20 DUP2 LT ISZERO PUSH2 0x2D8E JUMPI PUSH1 0x0 DUP1 REVERT JUMPDEST POP MLOAD PUSH2 0x2DE1 JUMPI PUSH1 0x40 DUP1 MLOAD PUSH3 0x461BCD PUSH1 0xE5 SHL DUP2 MSTORE PUSH1 0x20 PUSH1 0x4 DUP3 ADD MSTORE PUSH1 0x1C PUSH1 0x24 DUP3 ADD MSTORE PUSH32 0x6D61726B6572206D6574686F642072657475726E65642066616C736500000000 PUSH1 0x44 DUP3 ADD MSTORE SWAP1 MLOAD SWAP1 DUP2 SWAP1 SUB PUSH1 0x64 ADD SWAP1 REVERT JUMPDEST PUSH1 0x6 DUP1 SLOAD PUSH1 0x1 PUSH1 0x1 PUSH1 0xA0 SHL SUB NOT AND PUSH1 0x1 PUSH1 0x1 PUSH1 0xA0 SHL SUB DUP6 DUP2 AND SWAP2 DUP3 OR SWAP1 SWAP3 SSTORE PUSH1 0x40 DUP1 MLOAD SWAP3 DUP5 AND DUP4 MSTORE PUSH1 0x20 DUP4 ADD SWAP2 SWAP1 SWAP2 MSTORE DUP1 MLOAD PUSH32 0xEDFFC32E068C7C95DFD4BDFD5C4D939A084D6B11C4199EAC8436ED234D72F926 SWAP3 DUP2 SWAP1 SUB SWAP1 SWAP2 ADD SWAP1 LOG1 PUSH1 0x0 PUSH2 0x1281 JUMP JUMPDEST PUSH1 0x0 DUP1 DUP4 DUP4 GT PUSH2 0x2E5B JUMPI POP PUSH1 0x0 SWAP1 POP DUP2 DUP4 SUB PUSH2 0x259C JUMP JUMPDEST POP PUSH1 0x3 SWAP1 POP PUSH1 0x0 PUSH2 0x259C JUMP JUMPDEST PUSH1 0x0 PUSH2 0x2E71 PUSH2 0x4987 JUMP JUMPDEST PUSH1 0x0 DUP1 PUSH2 0x2E82 DUP7 PUSH1 0x0 ADD MLOAD DUP7 PUSH2 0x402D JUMP JUMPDEST SWAP1 SWAP3 POP SWAP1 POP PUSH1 0x0 DUP3 PUSH1 0x3 DUP2 GT ISZERO PUSH2 0x2E95 JUMPI INVALID JUMPDEST EQ PUSH2 0x2EB4 JUMPI POP PUSH1 0x40 DUP1 MLOAD PUSH1 0x20 DUP2 ADD SWAP1 SWAP2 MSTORE PUSH1 0x0 DUP2 MSTORE SWAP1 SWAP3 POP SWAP1 POP PUSH2 0x259C JUMP JUMPDEST PUSH1 0x40 DUP1 MLOAD PUSH1 0x20 DUP2 ADD SWAP1 SWAP2 MSTORE SWAP1 DUP2 MSTORE PUSH1 0x0 SWAP7 SWAP1 SWAP6 POP SWAP4 POP POP POP POP JUMP JUMPDEST PUSH1 0x0 PUSH32 0x45B96FE442630264581B197E84BBADA861235052C5A1AADFFF9EA4E40A969AA0 DUP5 PUSH1 0x10 DUP2 GT ISZERO PUSH2 0x2EFE JUMPI INVALID JUMPDEST DUP5 PUSH1 0x50 DUP2 GT ISZERO PUSH2 0x2F0A JUMPI INVALID JUMPDEST PUSH1 0x40 DUP1 MLOAD SWAP3 DUP4 MSTORE PUSH1 0x20 DUP4 ADD SWAP2 SWAP1 SWAP2 MSTORE DUP2 DUP2 ADD DUP6 SWAP1 MSTORE MLOAD SWAP1 DUP2 SWAP1 SUB PUSH1 0x60 ADD SWAP1 LOG1 DUP4 PUSH1 0x10 DUP2 GT ISZERO PUSH2 0x295A JUMPI INVALID JUMPDEST PUSH1 0x0 DUP1 DUP4 DUP4 ADD DUP5 DUP2 LT PUSH2 0x2F4D JUMPI PUSH1 0x0 SWAP3 POP SWAP1 POP PUSH2 0x259C JUMP JUMPDEST POP PUSH1 0x2 SWAP2 POP PUSH1 0x0 SWAP1 POP PUSH2 0x259C JUMP JUMPDEST PUSH1 0x0 DUP1 PUSH1 0x0 PUSH2 0x2F68 PUSH2 0x4987 JUMP JUMPDEST PUSH2 0x2F72 DUP8 DUP8 PUSH2 0x2E67 JUMP JUMPDEST SWAP1 SWAP3 POP SWAP1 POP PUSH1 0x0 DUP3 PUSH1 0x3 DUP2 GT ISZERO PUSH2 0x2F85 JUMPI INVALID JUMPDEST EQ PUSH2 0x2F96 JUMPI POP SWAP2 POP PUSH1 0x0 SWAP1 POP PUSH2 0x2FAF JUMP JUMPDEST PUSH2 0x2FA8 PUSH2 0x2FA2 DUP3 PUSH2 0x373C JUMP JUMPDEST DUP7 PUSH2 0x2F35 JUMP JUMPDEST SWAP4 POP SWAP4 POP POP POP JUMPDEST SWAP4 POP SWAP4 SWAP2 POP POP JUMP JUMPDEST PUSH1 0x0 DUP1 SLOAD DUP2 SWAP1 PUSH1 0xFF AND PUSH2 0x2FFE JUMPI PUSH1 0x40 DUP1 MLOAD PUSH3 0x461BCD PUSH1 0xE5 SHL DUP2 MSTORE PUSH1 0x20 PUSH1 0x4 DUP3 ADD MSTORE PUSH1 0xA PUSH1 0x24 DUP3 ADD MSTORE PUSH10 0x1C994B595B9D195C9959 PUSH1 0xB2 SHL PUSH1 0x44 DUP3 ADD MSTORE SWAP1 MLOAD SWAP1 DUP2 SWAP1 SUB PUSH1 0x64 ADD SWAP1 REVERT JUMPDEST PUSH1 0x0 DUP1 SLOAD PUSH1 0xFF NOT AND DUP2 SSTORE PUSH2 0x3010 PUSH2 0x16FE JUMP JUMPDEST SWAP1 POP DUP1 ISZERO PUSH2 0x303B JUMPI PUSH2 0x302E DUP2 PUSH1 0x10 DUP2 GT ISZERO PUSH2 0x3027 JUMPI INVALID JUMPDEST PUSH1 0xF PUSH2 0x20DD JUMP JUMPDEST SWAP3 POP PUSH1 0x0 SWAP2 POP PUSH2 0x30D2 SWAP1 POP JUMP JUMPDEST DUP4 PUSH1 0x1 PUSH1 0x1 PUSH1 0xA0 SHL SUB AND PUSH4 0xA6AFED95 PUSH1 0x40 MLOAD DUP2 PUSH4 0xFFFFFFFF AND PUSH1 0xE0 SHL DUP2 MSTORE PUSH1 0x4 ADD PUSH1 0x20 PUSH1 0x40 MLOAD DUP1 DUP4 SUB DUP2 PUSH1 0x0 DUP8 DUP1 EXTCODESIZE ISZERO DUP1 ISZERO PUSH2 0x3076 JUMPI PUSH1 0x0 DUP1 REVERT JUMPDEST POP GAS CALL ISZERO DUP1 ISZERO PUSH2 0x308A JUMPI RETURNDATASIZE PUSH1 0x0 DUP1 RETURNDATACOPY RETURNDATASIZE PUSH1 0x0 REVERT JUMPDEST POP POP POP POP PUSH1 0x40 MLOAD RETURNDATASIZE PUSH1 0x20 DUP2 LT ISZERO PUSH2 0x30A0 JUMPI PUSH1 0x0 DUP1 REVERT JUMPDEST POP MLOAD SWAP1 POP DUP1 ISZERO PUSH2 0x30C0 JUMPI PUSH2 0x302E DUP2 PUSH1 0x10 DUP2 GT ISZERO PUSH2 0x30B9 JUMPI INVALID JUMPDEST PUSH1 0x10 PUSH2 0x20DD JUMP JUMPDEST PUSH2 0x30CC CALLER DUP8 DUP8 DUP8 PUSH2 0x4097 JUMP JUMPDEST SWAP3 POP SWAP3 POP POP JUMPDEST PUSH1 0x0 DUP1 SLOAD PUSH1 0xFF NOT AND PUSH1 0x1 OR SWAP1 SSTORE SWAP1 SWAP5 SWAP1 SWAP4 POP SWAP2 POP POP JUMP JUMPDEST PUSH1 0x5 SLOAD PUSH1 0x40 DUP1 MLOAD PUSH4 0xD02F7351 PUSH1 0xE0 SHL DUP2 MSTORE ADDRESS PUSH1 0x4 DUP3 ADD MSTORE PUSH1 0x1 PUSH1 0x1 PUSH1 0xA0 SHL SUB DUP8 DUP2 AND PUSH1 0x24 DUP4 ADD MSTORE DUP7 DUP2 AND PUSH1 0x44 DUP4 ADD MSTORE DUP6 DUP2 AND PUSH1 0x64 DUP4 ADD MSTORE PUSH1 0x84 DUP3 ADD DUP6 SWAP1 MSTORE SWAP2 MLOAD PUSH1 0x0 SWAP4 DUP5 SWAP4 AND SWAP2 PUSH4 0xD02F7351 SWAP2 PUSH1 0xA4 DUP1 DUP4 ADD SWAP3 PUSH1 0x20 SWAP3 SWAP2 SWAP1 DUP3 SWAP1 SUB ADD DUP2 DUP8 DUP8 DUP1 EXTCODESIZE ISZERO DUP1 ISZERO PUSH2 0x3156 JUMPI PUSH1 0x0 DUP1 REVERT JUMPDEST POP GAS CALL ISZERO DUP1 ISZERO PUSH2 0x316A JUMPI RETURNDATASIZE PUSH1 0x0 DUP1 RETURNDATACOPY RETURNDATASIZE PUSH1 0x0 REVERT JUMPDEST POP POP POP POP PUSH1 0x40 MLOAD RETURNDATASIZE PUSH1 0x20 DUP2 LT ISZERO PUSH2 0x3180 JUMPI PUSH1 0x0 DUP1 REVERT JUMPDEST POP MLOAD SWAP1 POP DUP1 ISZERO PUSH2 0x3197 JUMPI PUSH2 0x26F8 PUSH1 0x3 PUSH1 0x1B DUP4 PUSH2 0x2ECF JUMP JUMPDEST DUP5 PUSH1 0x1 PUSH1 0x1 PUSH1 0xA0 SHL SUB AND DUP5 PUSH1 0x1 PUSH1 0x1 PUSH1 0xA0 SHL SUB AND EQ ISZERO PUSH2 0x31BD JUMPI PUSH2 0x26F8 PUSH1 0x6 PUSH1 0x1C PUSH2 0x20DD JUMP JUMPDEST PUSH1 0x1 PUSH1 0x1 PUSH1 0xA0 SHL SUB DUP5 AND PUSH1 0x0 SWAP1 DUP2 MSTORE PUSH1 0xE PUSH1 0x20 MSTORE PUSH1 0x40 DUP2 KECCAK256 SLOAD DUP2 SWAP1 DUP2 SWAP1 PUSH2 0x31E4 SWAP1 DUP8 PUSH2 0x2E44 JUMP JUMPDEST SWAP1 SWAP4 POP SWAP2 POP PUSH1 0x0 DUP4 PUSH1 0x3 DUP2 GT ISZERO PUSH2 0x31F7 JUMPI INVALID JUMPDEST EQ PUSH2 0x321A JUMPI PUSH2 0x320F PUSH1 0x9 PUSH1 0x1A DUP6 PUSH1 0x3 DUP2 GT ISZERO PUSH2 0x18E6 JUMPI INVALID JUMPDEST SWAP5 POP POP POP POP POP PUSH2 0x295A JUMP JUMPDEST PUSH1 0x1 PUSH1 0x1 PUSH1 0xA0 SHL SUB DUP9 AND PUSH1 0x0 SWAP1 DUP2 MSTORE PUSH1 0xE PUSH1 0x20 MSTORE PUSH1 0x40 SWAP1 KECCAK256 SLOAD PUSH2 0x323D SWAP1 DUP8 PUSH2 0x2F35 JUMP JUMPDEST SWAP1 SWAP4 POP SWAP1 POP PUSH1 0x0 DUP4 PUSH1 0x3 DUP2 GT ISZERO PUSH2 0x3250 JUMPI INVALID JUMPDEST EQ PUSH2 0x3268 JUMPI PUSH2 0x320F PUSH1 0x9 PUSH1 0x19 DUP6 PUSH1 0x3 DUP2 GT ISZERO PUSH2 0x18E6 JUMPI INVALID JUMPDEST PUSH1 0x1 PUSH1 0x1 PUSH1 0xA0 SHL SUB DUP1 DUP9 AND PUSH1 0x0 DUP2 DUP2 MSTORE PUSH1 0xE PUSH1 0x20 SWAP1 DUP2 MSTORE PUSH1 0x40 DUP1 DUP4 KECCAK256 DUP8 SWAP1 SSTORE SWAP4 DUP13 AND DUP1 DUP4 MSTORE SWAP2 DUP5 SWAP1 KECCAK256 DUP6 SWAP1 SSTORE DUP4 MLOAD DUP11 DUP2 MSTORE SWAP4 MLOAD SWAP2 SWAP4 PUSH1 0x0 DUP1 MLOAD PUSH1 0x20 PUSH2 0x4C15 DUP4 CODECOPY DUP2 MLOAD SWAP2 MSTORE SWAP3 SWAP1 DUP2 SWAP1 SUB SWAP1 SWAP2 ADD SWAP1 LOG3 PUSH1 0x5 SLOAD PUSH1 0x40 DUP1 MLOAD PUSH4 0x6D35BF91 PUSH1 0xE0 SHL DUP2 MSTORE ADDRESS PUSH1 0x4 DUP3 ADD MSTORE PUSH1 0x1 PUSH1 0x1 PUSH1 0xA0 SHL SUB DUP13 DUP2 AND PUSH1 0x24 DUP4 ADD MSTORE DUP12 DUP2 AND PUSH1 0x44 DUP4 ADD MSTORE DUP11 DUP2 AND PUSH1 0x64 DUP4 ADD MSTORE PUSH1 0x84 DUP3 ADD DUP11 SWAP1 MSTORE SWAP2 MLOAD SWAP2 SWAP1 SWAP3 AND SWAP2 PUSH4 0x6D35BF91 SWAP2 PUSH1 0xA4 DUP1 DUP4 ADD SWAP3 PUSH1 0x0 SWAP3 SWAP2 SWAP1 DUP3 SWAP1 SUB ADD DUP2 DUP4 DUP8 DUP1 EXTCODESIZE ISZERO DUP1 ISZERO PUSH2 0x3321 JUMPI PUSH1 0x0 DUP1 REVERT JUMPDEST POP GAS CALL ISZERO DUP1 ISZERO PUSH2 0x3335 JUMPI RETURNDATASIZE PUSH1 0x0 DUP1 RETURNDATACOPY RETURNDATASIZE PUSH1 0x0 REVERT JUMPDEST POP PUSH1 0x0 SWAP3 POP PUSH2 0x3342 SWAP2 POP POP JUMP JUMPDEST SWAP10 SWAP9 POP POP POP POP POP POP POP POP POP JUMP JUMPDEST PUSH1 0x0 DUP1 SLOAD PUSH1 0xFF AND PUSH2 0x3394 JUMPI PUSH1 0x40 DUP1 MLOAD PUSH3 0x461BCD PUSH1 0xE5 SHL DUP2 MSTORE PUSH1 0x20 PUSH1 0x4 DUP3 ADD MSTORE PUSH1 0xA PUSH1 0x24 DUP3 ADD MSTORE PUSH10 0x1C994B595B9D195C9959 PUSH1 0xB2 SHL PUSH1 0x44 DUP3 ADD MSTORE SWAP1 MLOAD SWAP1 DUP2 SWAP1 SUB PUSH1 0x64 ADD SWAP1 REVERT JUMPDEST PUSH1 0x0 DUP1 SLOAD PUSH1 0xFF NOT AND DUP2 SSTORE PUSH2 0x33A6 PUSH2 0x16FE JUMP JUMPDEST SWAP1 POP DUP1 ISZERO PUSH2 0x33C4 JUMPI PUSH2 0x1354 DUP2 PUSH1 0x10 DUP2 GT ISZERO PUSH2 0x33BD JUMPI INVALID JUMPDEST PUSH1 0x8 PUSH2 0x20DD JUMP JUMPDEST PUSH2 0x1365 CALLER DUP5 PUSH2 0x461A JUMP JUMPDEST PUSH1 0x0 DUP1 SLOAD PUSH1 0xFF AND PUSH2 0x3413 JUMPI PUSH1 0x40 DUP1 MLOAD PUSH3 0x461BCD PUSH1 0xE5 SHL DUP2 MSTORE PUSH1 0x20 PUSH1 0x4 DUP3 ADD MSTORE PUSH1 0xA PUSH1 0x24 DUP3 ADD MSTORE PUSH10 0x1C994B595B9D195C9959 PUSH1 0xB2 SHL PUSH1 0x44 DUP3 ADD MSTORE SWAP1 MLOAD SWAP1 DUP2 SWAP1 SUB PUSH1 0x64 ADD SWAP1 REVERT JUMPDEST PUSH1 0x0 DUP1 SLOAD PUSH1 0xFF NOT AND DUP2 SSTORE PUSH2 0x3425 PUSH2 0x16FE JUMP JUMPDEST SWAP1 POP DUP1 ISZERO PUSH2 0x343C JUMPI PUSH2 0x1354 DUP2 PUSH1 0x10 DUP2 GT ISZERO PUSH2 0x2C04 JUMPI INVALID JUMPDEST PUSH2 0x1365 CALLER DUP5 PUSH1 0x0 PUSH2 0x3B66 JUMP JUMPDEST PUSH1 0x0 DUP1 SLOAD DUP2 SWAP1 PUSH1 0xFF AND PUSH2 0x348F JUMPI PUSH1 0x40 DUP1 MLOAD PUSH3 0x461BCD PUSH1 0xE5 SHL DUP2 MSTORE PUSH1 0x20 PUSH1 0x4 DUP3 ADD MSTORE PUSH1 0xA PUSH1 0x24 DUP3 ADD MSTORE PUSH10 0x1C994B595B9D195C9959 PUSH1 0xB2 SHL PUSH1 0x44 DUP3 ADD MSTORE SWAP1 MLOAD SWAP1 DUP2 SWAP1 SUB PUSH1 0x64 ADD SWAP1 REVERT JUMPDEST PUSH1 0x0 DUP1 SLOAD PUSH1 0xFF NOT AND DUP2 SSTORE PUSH2 0x34A1 PUSH2 0x16FE JUMP JUMPDEST SWAP1 POP DUP1 ISZERO PUSH2 0x34CC JUMPI PUSH2 0x34BF DUP2 PUSH1 0x10 DUP2 GT ISZERO PUSH2 0x34B8 JUMPI INVALID JUMPDEST PUSH1 0x35 PUSH2 0x20DD JUMP JUMPDEST SWAP3 POP PUSH1 0x0 SWAP2 POP PUSH2 0x34DD SWAP1 POP JUMP JUMPDEST PUSH2 0x34D7 CALLER DUP7 DUP7 PUSH2 0x374B JUMP JUMPDEST SWAP3 POP SWAP3 POP POP JUMPDEST PUSH1 0x0 DUP1 SLOAD PUSH1 0xFF NOT AND PUSH1 0x1 OR SWAP1 SSTORE SWAP1 SWAP4 SWAP1 SWAP3 POP SWAP1 POP JUMP JUMPDEST PUSH1 0x3 SLOAD PUSH1 0x0 SWAP1 PUSH2 0x100 SWAP1 DIV PUSH1 0x1 PUSH1 0x1 PUSH1 0xA0 SHL SUB AND CALLER EQ PUSH2 0x3519 JUMPI PUSH2 0x1159 PUSH1 0x1 PUSH1 0x47 PUSH2 0x20DD JUMP JUMPDEST PUSH2 0x3521 PUSH2 0x2CCB JUMP JUMPDEST PUSH1 0x9 SLOAD EQ PUSH2 0x3535 JUMPI PUSH2 0x1159 PUSH1 0xA PUSH1 0x48 PUSH2 0x20DD JUMP JUMPDEST PUSH8 0xDE0B6B3A7640000 DUP3 GT ISZERO PUSH2 0x3551 JUMPI PUSH2 0x1159 PUSH1 0x2 PUSH1 0x49 PUSH2 0x20DD JUMP JUMPDEST PUSH1 0x8 DUP1 SLOAD SWAP1 DUP4 SWAP1 SSTORE PUSH1 0x40 DUP1 MLOAD DUP3 DUP2 MSTORE PUSH1 0x20 DUP2 ADD DUP6 SWAP1 MSTORE DUP2 MLOAD PUSH32 0xAAA68312E2EA9D50E16AF5068410AB56E1A1FD06037B1A35664812C30F821460 SWAP3 SWAP2 DUP2 SWAP1 SUB SWAP1 SWAP2 ADD SWAP1 LOG1 PUSH1 0x0 PUSH2 0x1281 JUMP JUMPDEST PUSH1 0x0 CALLER PUSH1 0x1 PUSH1 0x1 PUSH1 0xA0 SHL SUB DUP5 AND EQ PUSH2 0x35EC JUMPI PUSH1 0x40 DUP1 MLOAD PUSH3 0x461BCD PUSH1 0xE5 SHL DUP2 MSTORE PUSH1 0x20 PUSH1 0x4 DUP3 ADD MSTORE PUSH1 0xF PUSH1 0x24 DUP3 ADD MSTORE PUSH15 0xE6CADCC8CAE440DAD2E6DAC2E8C6D PUSH1 0x8B SHL PUSH1 0x44 DUP3 ADD MSTORE SWAP1 MLOAD SWAP1 DUP2 SWAP1 SUB PUSH1 0x64 ADD SWAP1 REVERT JUMPDEST DUP2 CALLVALUE EQ PUSH2 0x3631 JUMPI PUSH1 0x40 DUP1 MLOAD PUSH3 0x461BCD PUSH1 0xE5 SHL DUP2 MSTORE PUSH1 0x20 PUSH1 0x4 DUP3 ADD MSTORE PUSH1 0xE PUSH1 0x24 DUP3 ADD MSTORE PUSH14 0xECC2D8EACA40DAD2E6DAC2E8C6D PUSH1 0x93 SHL PUSH1 0x44 DUP3 ADD MSTORE SWAP1 MLOAD SWAP1 DUP2 SWAP1 SUB PUSH1 0x64 ADD SWAP1 REVERT JUMPDEST POP SWAP2 SWAP1 POP JUMP JUMPDEST PUSH1 0x0 DUP1 PUSH1 0x0 PUSH2 0x3644 PUSH2 0x4987 JUMP JUMPDEST PUSH2 0x2979 DUP7 DUP7 PUSH2 0x4928 JUMP JUMPDEST PUSH1 0x0 DUP1 PUSH1 0x0 DUP1 PUSH2 0x365E DUP8 DUP8 PUSH2 0x2F35 JUMP JUMPDEST SWAP1 SWAP3 POP SWAP1 POP PUSH1 0x0 DUP3 PUSH1 0x3 DUP2 GT ISZERO PUSH2 0x3671 JUMPI INVALID JUMPDEST EQ PUSH2 0x3682 JUMPI POP SWAP2 POP PUSH1 0x0 SWAP1 POP PUSH2 0x2FAF JUMP JUMPDEST PUSH2 0x2FA8 DUP2 DUP7 PUSH2 0x2E44 JUMP JUMPDEST PUSH1 0x0 PUSH2 0x3696 PUSH2 0x4987 JUMP JUMPDEST PUSH1 0x0 DUP1 PUSH2 0x36AB DUP7 PUSH8 0xDE0B6B3A7640000 PUSH2 0x402D JUMP JUMPDEST SWAP1 SWAP3 POP SWAP1 POP PUSH1 0x0 DUP3 PUSH1 0x3 DUP2 GT ISZERO PUSH2 0x36BE JUMPI INVALID JUMPDEST EQ PUSH2 0x36DD JUMPI POP PUSH1 0x40 DUP1 MLOAD PUSH1 0x20 DUP2 ADD SWAP1 SWAP2 MSTORE PUSH1 0x0 DUP2 MSTORE SWAP1 SWAP3 POP SWAP1 POP PUSH2 0x259C JUMP JUMPDEST PUSH1 0x0 DUP1 PUSH2 0x36EA DUP4 DUP9 PUSH2 0x406C JUMP JUMPDEST SWAP1 SWAP3 POP SWAP1 POP PUSH1 0x0 DUP3 PUSH1 0x3 DUP2 GT ISZERO PUSH2 0x36FD JUMPI INVALID JUMPDEST EQ PUSH2 0x371F JUMPI POP PUSH1 0x40 DUP1 MLOAD PUSH1 0x20 DUP2 ADD SWAP1 SWAP2 MSTORE PUSH1 0x0 DUP2 MSTORE SWAP1 SWAP5 POP SWAP3 POP PUSH2 0x259C SWAP2 POP POP JUMP JUMPDEST PUSH1 0x40 DUP1 MLOAD PUSH1 0x20 DUP2 ADD SWAP1 SWAP2 MSTORE SWAP1 DUP2 MSTORE PUSH1 0x0 SWAP9 SWAP1 SWAP8 POP SWAP6 POP POP POP POP POP POP JUMP JUMPDEST MLOAD PUSH8 0xDE0B6B3A7640000 SWAP1 DIV SWAP1 JUMP JUMPDEST PUSH1 0x5 SLOAD PUSH1 0x40 DUP1 MLOAD PUSH4 0x12004531 PUSH1 0xE1 SHL DUP2 MSTORE ADDRESS PUSH1 0x4 DUP3 ADD MSTORE PUSH1 0x1 PUSH1 0x1 PUSH1 0xA0 SHL SUB DUP7 DUP2 AND PUSH1 0x24 DUP4 ADD MSTORE DUP6 DUP2 AND PUSH1 0x44 DUP4 ADD MSTORE PUSH1 0x64 DUP3 ADD DUP6 SWAP1 MSTORE SWAP2 MLOAD PUSH1 0x0 SWAP4 DUP5 SWAP4 DUP5 SWAP4 SWAP2 AND SWAP2 PUSH4 0x24008A62 SWAP2 PUSH1 0x84 DUP1 DUP3 ADD SWAP3 PUSH1 0x20 SWAP3 SWAP1 SWAP2 SWAP1 DUP3 SWAP1 SUB ADD DUP2 DUP8 DUP8 DUP1 EXTCODESIZE ISZERO DUP1 ISZERO PUSH2 0x37B4 JUMPI PUSH1 0x0 DUP1 REVERT JUMPDEST POP GAS CALL ISZERO DUP1 ISZERO PUSH2 0x37C8 JUMPI RETURNDATASIZE PUSH1 0x0 DUP1 RETURNDATACOPY RETURNDATASIZE PUSH1 0x0 REVERT JUMPDEST POP POP POP POP PUSH1 0x40 MLOAD RETURNDATASIZE PUSH1 0x20 DUP2 LT ISZERO PUSH2 0x37DE JUMPI PUSH1 0x0 DUP1 REVERT JUMPDEST POP MLOAD SWAP1 POP DUP1 ISZERO PUSH2 0x3802 JUMPI PUSH2 0x37F5 PUSH1 0x3 PUSH1 0x38 DUP4 PUSH2 0x2ECF JUMP JUMPDEST SWAP3 POP PUSH1 0x0 SWAP2 POP PUSH2 0x2FAF SWAP1 POP JUMP JUMPDEST PUSH2 0x380A PUSH2 0x2CCB JUMP JUMPDEST PUSH1 0x9 SLOAD EQ PUSH2 0x381E JUMPI PUSH2 0x37F5 PUSH1 0xA PUSH1 0x39 PUSH2 0x20DD JUMP JUMPDEST PUSH2 0x3826 PUSH2 0x4A56 JUMP JUMPDEST PUSH1 0x1 PUSH1 0x1 PUSH1 0xA0 SHL SUB DUP7 AND PUSH1 0x0 SWAP1 DUP2 MSTORE PUSH1 0x10 PUSH1 0x20 MSTORE PUSH1 0x40 SWAP1 KECCAK256 PUSH1 0x1 ADD SLOAD PUSH1 0x60 DUP3 ADD MSTORE PUSH2 0x3850 DUP7 PUSH2 0x2C17 JUMP JUMPDEST PUSH1 0x80 DUP4 ADD DUP2 SWAP1 MSTORE PUSH1 0x20 DUP4 ADD DUP3 PUSH1 0x3 DUP2 GT ISZERO PUSH2 0x3867 JUMPI INVALID JUMPDEST PUSH1 0x3 DUP2 GT ISZERO PUSH2 0x3872 JUMPI INVALID JUMPDEST SWAP1 MSTORE POP PUSH1 0x0 SWAP1 POP DUP2 PUSH1 0x20 ADD MLOAD PUSH1 0x3 DUP2 GT ISZERO PUSH2 0x3889 JUMPI INVALID JUMPDEST EQ PUSH2 0x38B3 JUMPI PUSH2 0x38A5 PUSH1 0x9 PUSH1 0x37 DUP4 PUSH1 0x20 ADD MLOAD PUSH1 0x3 DUP2 GT ISZERO PUSH2 0x18E6 JUMPI INVALID JUMPDEST SWAP4 POP PUSH1 0x0 SWAP3 POP PUSH2 0x2FAF SWAP2 POP POP JUMP JUMPDEST PUSH1 0x0 NOT DUP6 EQ ISZERO PUSH2 0x38CC JUMPI PUSH1 0x80 DUP2 ADD MLOAD PUSH1 0x40 DUP3 ADD MSTORE PUSH2 0x38D4 JUMP JUMPDEST PUSH1 0x40 DUP2 ADD DUP6 SWAP1 MSTORE JUMPDEST PUSH2 0x38E2 DUP8 DUP3 PUSH1 0x40 ADD MLOAD PUSH2 0x359B JUMP JUMPDEST PUSH1 0xE0 DUP3 ADD DUP2 SWAP1 MSTORE PUSH1 0x80 DUP3 ADD MLOAD PUSH2 0x38F7 SWAP2 PUSH2 0x2E44 JUMP JUMPDEST PUSH1 0xA0 DUP4 ADD DUP2 SWAP1 MSTORE PUSH1 0x20 DUP4 ADD DUP3 PUSH1 0x3 DUP2 GT ISZERO PUSH2 0x390E JUMPI INVALID JUMPDEST PUSH1 0x3 DUP2 GT ISZERO PUSH2 0x3919 JUMPI INVALID JUMPDEST SWAP1 MSTORE POP PUSH1 0x0 SWAP1 POP DUP2 PUSH1 0x20 ADD MLOAD PUSH1 0x3 DUP2 GT ISZERO PUSH2 0x3930 JUMPI INVALID JUMPDEST EQ PUSH2 0x396C JUMPI PUSH1 0x40 MLOAD PUSH3 0x461BCD PUSH1 0xE5 SHL DUP2 MSTORE PUSH1 0x4 ADD DUP1 DUP1 PUSH1 0x20 ADD DUP3 DUP2 SUB DUP3 MSTORE PUSH1 0x3A DUP2 MSTORE PUSH1 0x20 ADD DUP1 PUSH2 0x4BDB PUSH1 0x3A SWAP2 CODECOPY PUSH1 0x40 ADD SWAP2 POP POP PUSH1 0x40 MLOAD DUP1 SWAP2 SUB SWAP1 REVERT JUMPDEST PUSH2 0x397C PUSH1 0xB SLOAD DUP3 PUSH1 0xE0 ADD MLOAD PUSH2 0x2E44 JUMP JUMPDEST PUSH1 0xC0 DUP4 ADD DUP2 SWAP1 MSTORE PUSH1 0x20 DUP4 ADD DUP3 PUSH1 0x3 DUP2 GT ISZERO PUSH2 0x3993 JUMPI INVALID JUMPDEST PUSH1 0x3 DUP2 GT ISZERO PUSH2 0x399E JUMPI INVALID JUMPDEST SWAP1 MSTORE POP PUSH1 0x0 SWAP1 POP DUP2 PUSH1 0x20 ADD MLOAD PUSH1 0x3 DUP2 GT ISZERO PUSH2 0x39B5 JUMPI INVALID JUMPDEST EQ PUSH2 0x39F1 JUMPI PUSH1 0x40 MLOAD PUSH3 0x461BCD PUSH1 0xE5 SHL DUP2 MSTORE PUSH1 0x4 ADD DUP1 DUP1 PUSH1 0x20 ADD DUP3 DUP2 SUB DUP3 MSTORE PUSH1 0x31 DUP2 MSTORE PUSH1 0x20 ADD DUP1 PUSH2 0x4C35 PUSH1 0x31 SWAP2 CODECOPY PUSH1 0x40 ADD SWAP2 POP POP PUSH1 0x40 MLOAD DUP1 SWAP2 SUB SWAP1 REVERT JUMPDEST PUSH1 0xA0 DUP1 DUP3 ADD DUP1 MLOAD PUSH1 0x1 PUSH1 0x1 PUSH1 0xA0 SHL SUB DUP1 DUP11 AND PUSH1 0x0 DUP2 DUP2 MSTORE PUSH1 0x10 PUSH1 0x20 SWAP1 DUP2 MSTORE PUSH1 0x40 SWAP2 DUP3 SWAP1 KECCAK256 SWAP5 DUP6 SSTORE PUSH1 0xA SLOAD PUSH1 0x1 SWAP1 SWAP6 ADD SWAP5 SWAP1 SWAP5 SSTORE PUSH1 0xC0 DUP8 ADD MLOAD PUSH1 0xB DUP2 SWAP1 SSTORE PUSH1 0xE0 DUP9 ADD MLOAD SWAP6 MLOAD DUP3 MLOAD SWAP5 DUP16 AND DUP6 MSTORE SWAP5 DUP5 ADD SWAP3 SWAP1 SWAP3 MSTORE DUP3 DUP2 ADD SWAP5 SWAP1 SWAP5 MSTORE PUSH1 0x60 DUP3 ADD SWAP3 SWAP1 SWAP3 MSTORE PUSH1 0x80 DUP2 ADD SWAP2 SWAP1 SWAP2 MSTORE SWAP1 MLOAD PUSH32 0x1A2A22CB034D26D1854BDC6666A5B91FE25EFBBB5DCAD3B0355478D6F5C362A1 SWAP3 SWAP2 DUP2 SWAP1 SUB SWAP1 SWAP2 ADD SWAP1 LOG1 PUSH1 0x5 SLOAD PUSH1 0xE0 DUP3 ADD MLOAD PUSH1 0x60 DUP4 ADD MLOAD PUSH1 0x40 DUP1 MLOAD PUSH4 0x1EDEDC91 PUSH1 0xE0 SHL DUP2 MSTORE ADDRESS PUSH1 0x4 DUP3 ADD MSTORE PUSH1 0x1 PUSH1 0x1 PUSH1 0xA0 SHL SUB DUP13 DUP2 AND PUSH1 0x24 DUP4 ADD MSTORE DUP12 DUP2 AND PUSH1 0x44 DUP4 ADD MSTORE PUSH1 0x64 DUP3 ADD SWAP5 SWAP1 SWAP5 MSTORE PUSH1 0x84 DUP2 ADD SWAP3 SWAP1 SWAP3 MSTORE MLOAD SWAP2 SWAP1 SWAP3 AND SWAP2 PUSH4 0x1EDEDC91 SWAP2 PUSH1 0xA4 DUP1 DUP4 ADD SWAP3 PUSH1 0x0 SWAP3 SWAP2 SWAP1 DUP3 SWAP1 SUB ADD DUP2 DUP4 DUP8 DUP1 EXTCODESIZE ISZERO DUP1 ISZERO PUSH2 0x3AFC JUMPI PUSH1 0x0 DUP1 REVERT JUMPDEST POP GAS CALL ISZERO DUP1 ISZERO PUSH2 0x3B10 JUMPI RETURNDATASIZE PUSH1 0x0 DUP1 RETURNDATACOPY RETURNDATASIZE PUSH1 0x0 REVERT JUMPDEST POP PUSH1 0x0 SWAP3 POP PUSH2 0x3B1D SWAP2 POP POP JUMP JUMPDEST DUP2 PUSH1 0xE0 ADD MLOAD SWAP4 POP SWAP4 POP POP POP SWAP4 POP SWAP4 SWAP2 POP POP JUMP JUMPDEST PUSH1 0x40 MLOAD PUSH1 0x1 PUSH1 0x1 PUSH1 0xA0 SHL SUB DUP4 AND SWAP1 DUP3 ISZERO PUSH2 0x8FC MUL SWAP1 DUP4 SWAP1 PUSH1 0x0 DUP2 DUP2 DUP2 DUP6 DUP9 DUP9 CALL SWAP4 POP POP POP POP ISZERO DUP1 ISZERO PUSH2 0x1B15 JUMPI RETURNDATASIZE PUSH1 0x0 DUP1 RETURNDATACOPY RETURNDATASIZE PUSH1 0x0 REVERT JUMPDEST PUSH1 0x0 DUP3 ISZERO DUP1 PUSH2 0x3B73 JUMPI POP DUP2 ISZERO JUMPDEST PUSH2 0x3BAE JUMPI PUSH1 0x40 MLOAD PUSH3 0x461BCD PUSH1 0xE5 SHL DUP2 MSTORE PUSH1 0x4 ADD DUP1 DUP1 PUSH1 0x20 ADD DUP3 DUP2 SUB DUP3 MSTORE PUSH1 0x34 DUP2 MSTORE PUSH1 0x20 ADD DUP1 PUSH2 0x4CF6 PUSH1 0x34 SWAP2 CODECOPY PUSH1 0x40 ADD SWAP2 POP POP PUSH1 0x40 MLOAD DUP1 SWAP2 SUB SWAP1 REVERT JUMPDEST PUSH2 0x3BB6 PUSH2 0x4A18 JUMP JUMPDEST PUSH2 0x3BBE PUSH2 0x25A3 JUMP JUMPDEST PUSH1 0x40 DUP4 ADD DUP2 SWAP1 MSTORE PUSH1 0x20 DUP4 ADD DUP3 PUSH1 0x3 DUP2 GT ISZERO PUSH2 0x3BD5 JUMPI INVALID JUMPDEST PUSH1 0x3 DUP2 GT ISZERO PUSH2 0x3BE0 JUMPI INVALID JUMPDEST SWAP1 MSTORE POP PUSH1 0x0 SWAP1 POP DUP2 PUSH1 0x20 ADD MLOAD PUSH1 0x3 DUP2 GT ISZERO PUSH2 0x3BF7 JUMPI INVALID JUMPDEST EQ PUSH2 0x3C1B JUMPI PUSH2 0x3C13 PUSH1 0x9 PUSH1 0x2B DUP4 PUSH1 0x20 ADD MLOAD PUSH1 0x3 DUP2 GT ISZERO PUSH2 0x18E6 JUMPI INVALID JUMPDEST SWAP2 POP POP PUSH2 0x1281 JUMP JUMPDEST DUP4 ISZERO PUSH2 0x3C9C JUMPI PUSH1 0x60 DUP2 ADD DUP5 SWAP1 MSTORE PUSH1 0x40 DUP1 MLOAD PUSH1 0x20 DUP2 ADD DUP3 MSTORE SWAP1 DUP3 ADD MLOAD DUP2 MSTORE PUSH2 0x3C42 SWAP1 DUP6 PUSH2 0x2962 JUMP JUMPDEST PUSH1 0x80 DUP4 ADD DUP2 SWAP1 MSTORE PUSH1 0x20 DUP4 ADD DUP3 PUSH1 0x3 DUP2 GT ISZERO PUSH2 0x3C59 JUMPI INVALID JUMPDEST PUSH1 0x3 DUP2 GT ISZERO PUSH2 0x3C64 JUMPI INVALID JUMPDEST SWAP1 MSTORE POP PUSH1 0x0 SWAP1 POP DUP2 PUSH1 0x20 ADD MLOAD PUSH1 0x3 DUP2 GT ISZERO PUSH2 0x3C7B JUMPI INVALID JUMPDEST EQ PUSH2 0x3C97 JUMPI PUSH2 0x3C13 PUSH1 0x9 PUSH1 0x29 DUP4 PUSH1 0x20 ADD MLOAD PUSH1 0x3 DUP2 GT ISZERO PUSH2 0x18E6 JUMPI INVALID JUMPDEST PUSH2 0x3D15 JUMP JUMPDEST PUSH2 0x3CB8 DUP4 PUSH1 0x40 MLOAD DUP1 PUSH1 0x20 ADD PUSH1 0x40 MSTORE DUP1 DUP5 PUSH1 0x40 ADD MLOAD DUP2 MSTORE POP PUSH2 0x3637 JUMP JUMPDEST PUSH1 0x60 DUP4 ADD DUP2 SWAP1 MSTORE PUSH1 0x20 DUP4 ADD DUP3 PUSH1 0x3 DUP2 GT ISZERO PUSH2 0x3CCF JUMPI INVALID JUMPDEST PUSH1 0x3 DUP2 GT ISZERO PUSH2 0x3CDA JUMPI INVALID JUMPDEST SWAP1 MSTORE POP PUSH1 0x0 SWAP1 POP DUP2 PUSH1 0x20 ADD MLOAD PUSH1 0x3 DUP2 GT ISZERO PUSH2 0x3CF1 JUMPI INVALID JUMPDEST EQ PUSH2 0x3D0D JUMPI PUSH2 0x3C13 PUSH1 0x9 PUSH1 0x2A DUP4 PUSH1 0x20 ADD MLOAD PUSH1 0x3 DUP2 GT ISZERO PUSH2 0x18E6 JUMPI INVALID JUMPDEST PUSH1 0x80 DUP2 ADD DUP4 SWAP1 MSTORE JUMPDEST PUSH1 0x5 SLOAD PUSH1 0x60 DUP3 ADD MLOAD PUSH1 0x40 DUP1 MLOAD PUSH4 0xEABE7D91 PUSH1 0xE0 SHL DUP2 MSTORE ADDRESS PUSH1 0x4 DUP3 ADD MSTORE PUSH1 0x1 PUSH1 0x1 PUSH1 0xA0 SHL SUB DUP10 DUP2 AND PUSH1 0x24 DUP4 ADD MSTORE PUSH1 0x44 DUP3 ADD SWAP4 SWAP1 SWAP4 MSTORE SWAP1 MLOAD PUSH1 0x0 SWAP4 SWAP3 SWAP1 SWAP3 AND SWAP2 PUSH4 0xEABE7D91 SWAP2 PUSH1 0x64 DUP1 DUP3 ADD SWAP3 PUSH1 0x20 SWAP3 SWAP1 SWAP2 SWAP1 DUP3 SWAP1 SUB ADD DUP2 DUP8 DUP8 DUP1 EXTCODESIZE ISZERO DUP1 ISZERO PUSH2 0x3D7A JUMPI PUSH1 0x0 DUP1 REVERT JUMPDEST POP GAS CALL ISZERO DUP1 ISZERO PUSH2 0x3D8E JUMPI RETURNDATASIZE PUSH1 0x0 DUP1 RETURNDATACOPY RETURNDATASIZE PUSH1 0x0 REVERT JUMPDEST POP POP POP POP PUSH1 0x40 MLOAD RETURNDATASIZE PUSH1 0x20 DUP2 LT ISZERO PUSH2 0x3DA4 JUMPI PUSH1 0x0 DUP1 REVERT JUMPDEST POP MLOAD SWAP1 POP DUP1 ISZERO PUSH2 0x3DC4 JUMPI PUSH2 0x3DBB PUSH1 0x3 PUSH1 0x28 DUP4 PUSH2 0x2ECF JUMP JUMPDEST SWAP3 POP POP POP PUSH2 0x1281 JUMP JUMPDEST PUSH2 0x3DCC PUSH2 0x2CCB JUMP JUMPDEST PUSH1 0x9 SLOAD EQ PUSH2 0x3DE0 JUMPI PUSH2 0x3DBB PUSH1 0xA PUSH1 0x2C PUSH2 0x20DD JUMP JUMPDEST PUSH2 0x3DF0 PUSH1 0xD SLOAD DUP4 PUSH1 0x60 ADD MLOAD PUSH2 0x2E44 JUMP JUMPDEST PUSH1 0xA0 DUP5 ADD DUP2 SWAP1 MSTORE PUSH1 0x20 DUP5 ADD DUP3 PUSH1 0x3 DUP2 GT ISZERO PUSH2 0x3E07 JUMPI INVALID JUMPDEST PUSH1 0x3 DUP2 GT ISZERO PUSH2 0x3E12 JUMPI INVALID JUMPDEST SWAP1 MSTORE POP PUSH1 0x0 SWAP1 POP DUP3 PUSH1 0x20 ADD MLOAD PUSH1 0x3 DUP2 GT ISZERO PUSH2 0x3E29 JUMPI INVALID JUMPDEST EQ PUSH2 0x3E45 JUMPI PUSH2 0x3DBB PUSH1 0x9 PUSH1 0x2E DUP5 PUSH1 0x20 ADD MLOAD PUSH1 0x3 DUP2 GT ISZERO PUSH2 0x18E6 JUMPI INVALID JUMPDEST PUSH1 0x1 PUSH1 0x1 PUSH1 0xA0 SHL SUB DUP7 AND PUSH1 0x0 SWAP1 DUP2 MSTORE PUSH1 0xE PUSH1 0x20 MSTORE PUSH1 0x40 SWAP1 KECCAK256 SLOAD PUSH1 0x60 DUP4 ADD MLOAD PUSH2 0x3E6D SWAP2 SWAP1 PUSH2 0x2E44 JUMP JUMPDEST PUSH1 0xC0 DUP5 ADD DUP2 SWAP1 MSTORE PUSH1 0x20 DUP5 ADD DUP3 PUSH1 0x3 DUP2 GT ISZERO PUSH2 0x3E84 JUMPI INVALID JUMPDEST PUSH1 0x3 DUP2 GT ISZERO PUSH2 0x3E8F JUMPI INVALID JUMPDEST SWAP1 MSTORE POP PUSH1 0x0 SWAP1 POP DUP3 PUSH1 0x20 ADD MLOAD PUSH1 0x3 DUP2 GT ISZERO PUSH2 0x3EA6 JUMPI INVALID JUMPDEST EQ PUSH2 0x3EC2 JUMPI PUSH2 0x3DBB PUSH1 0x9 PUSH1 0x2D DUP5 PUSH1 0x20 ADD MLOAD PUSH1 0x3 DUP2 GT ISZERO PUSH2 0x18E6 JUMPI INVALID JUMPDEST DUP2 PUSH1 0x80 ADD MLOAD PUSH2 0x3ECF PUSH2 0x29B5 JUMP JUMPDEST LT ISZERO PUSH2 0x3EE1 JUMPI PUSH2 0x3DBB PUSH1 0xE PUSH1 0x2F PUSH2 0x20DD JUMP JUMPDEST PUSH2 0x3EEF DUP7 DUP4 PUSH1 0x80 ADD MLOAD PUSH2 0x3B30 JUMP JUMPDEST PUSH1 0xA0 DUP3 ADD MLOAD PUSH1 0xD SSTORE PUSH1 0xC0 DUP3 ADD MLOAD PUSH1 0x1 PUSH1 0x1 PUSH1 0xA0 SHL SUB DUP8 AND PUSH1 0x0 DUP2 DUP2 MSTORE PUSH1 0xE PUSH1 0x20 SWAP1 DUP2 MSTORE PUSH1 0x40 SWAP2 DUP3 SWAP1 KECCAK256 SWAP4 SWAP1 SWAP4 SSTORE PUSH1 0x60 DUP6 ADD MLOAD DUP2 MLOAD SWAP1 DUP2 MSTORE SWAP1 MLOAD ADDRESS SWAP4 PUSH1 0x0 DUP1 MLOAD PUSH1 0x20 PUSH2 0x4C15 DUP4 CODECOPY DUP2 MLOAD SWAP2 MSTORE SWAP3 DUP3 SWAP1 SUB ADD SWAP1 LOG3 PUSH1 0x80 DUP3 ADD MLOAD PUSH1 0x60 DUP1 DUP5 ADD MLOAD PUSH1 0x40 DUP1 MLOAD PUSH1 0x1 PUSH1 0x1 PUSH1 0xA0 SHL SUB DUP12 AND DUP2 MSTORE PUSH1 0x20 DUP2 ADD SWAP5 SWAP1 SWAP5 MSTORE DUP4 DUP2 ADD SWAP2 SWAP1 SWAP2 MSTORE MLOAD PUSH32 0xE5B754FB1ABB7F01B499791D0B820AE3B6AF3424AC1C59768EDB53F4EC31A929 SWAP3 DUP2 SWAP1 SUB SWAP1 SWAP2 ADD SWAP1 LOG1 PUSH1 0x5 SLOAD PUSH1 0x80 DUP4 ADD MLOAD PUSH1 0x60 DUP5 ADD MLOAD PUSH1 0x40 DUP1 MLOAD PUSH4 0x51DFF989 PUSH1 0xE0 SHL DUP2 MSTORE ADDRESS PUSH1 0x4 DUP3 ADD MSTORE PUSH1 0x1 PUSH1 0x1 PUSH1 0xA0 SHL SUB DUP12 DUP2 AND PUSH1 0x24 DUP4 ADD MSTORE PUSH1 0x44 DUP3 ADD SWAP5 SWAP1 SWAP5 MSTORE PUSH1 0x64 DUP2 ADD SWAP3 SWAP1 SWAP3 MSTORE MLOAD SWAP2 SWAP1 SWAP3 AND SWAP2 PUSH4 0x51DFF989 SWAP2 PUSH1 0x84 DUP1 DUP4 ADD SWAP3 PUSH1 0x0 SWAP3 SWAP2 SWAP1 DUP3 SWAP1 SUB ADD DUP2 DUP4 DUP8 DUP1 EXTCODESIZE ISZERO DUP1 ISZERO PUSH2 0x4002 JUMPI PUSH1 0x0 DUP1 REVERT JUMPDEST POP GAS CALL ISZERO DUP1 ISZERO PUSH2 0x4016 JUMPI RETURNDATASIZE PUSH1 0x0 DUP1 RETURNDATACOPY RETURNDATASIZE PUSH1 0x0 REVERT JUMPDEST POP PUSH1 0x0 SWAP3 POP PUSH2 0x4023 SWAP2 POP POP JUMP JUMPDEST SWAP7 SWAP6 POP POP POP POP POP POP JUMP JUMPDEST PUSH1 0x0 DUP1 DUP4 PUSH2 0x4040 JUMPI POP PUSH1 0x0 SWAP1 POP DUP1 PUSH2 0x259C JUMP JUMPDEST DUP4 DUP4 MUL DUP4 DUP6 DUP3 DUP2 PUSH2 0x404D JUMPI INVALID JUMPDEST DIV EQ PUSH2 0x4061 JUMPI POP PUSH1 0x2 SWAP2 POP PUSH1 0x0 SWAP1 POP PUSH2 0x259C JUMP JUMPDEST PUSH1 0x0 SWAP3 POP SWAP1 POP PUSH2 0x259C JUMP JUMPDEST PUSH1 0x0 DUP1 DUP3 PUSH2 0x4080 JUMPI POP PUSH1 0x1 SWAP1 POP PUSH1 0x0 PUSH2 0x259C JUMP JUMPDEST PUSH1 0x0 DUP4 DUP6 DUP2 PUSH2 0x408B JUMPI INVALID JUMPDEST DIV SWAP2 POP SWAP2 POP SWAP3 POP SWAP3 SWAP1 POP JUMP JUMPDEST PUSH1 0x5 SLOAD PUSH1 0x40 DUP1 MLOAD PUSH4 0x2FE3F38F PUSH1 0xE1 SHL DUP2 MSTORE ADDRESS PUSH1 0x4 DUP3 ADD MSTORE PUSH1 0x1 PUSH1 0x1 PUSH1 0xA0 SHL SUB DUP5 DUP2 AND PUSH1 0x24 DUP4 ADD MSTORE DUP8 DUP2 AND PUSH1 0x44 DUP4 ADD MSTORE DUP7 DUP2 AND PUSH1 0x64 DUP4 ADD MSTORE PUSH1 0x84 DUP3 ADD DUP7 SWAP1 MSTORE SWAP2 MLOAD PUSH1 0x0 SWAP4 DUP5 SWAP4 DUP5 SWAP4 SWAP2 AND SWAP2 PUSH4 0x5FC7E71E SWAP2 PUSH1 0xA4 DUP1 DUP3 ADD SWAP3 PUSH1 0x20 SWAP3 SWAP1 SWAP2 SWAP1 DUP3 SWAP1 SUB ADD DUP2 DUP8 DUP8 DUP1 EXTCODESIZE ISZERO DUP1 ISZERO PUSH2 0x4108 JUMPI PUSH1 0x0 DUP1 REVERT JUMPDEST POP GAS CALL ISZERO DUP1 ISZERO PUSH2 0x411C JUMPI RETURNDATASIZE PUSH1 0x0 DUP1 RETURNDATACOPY RETURNDATASIZE PUSH1 0x0 REVERT JUMPDEST POP POP POP POP PUSH1 0x40 MLOAD RETURNDATASIZE PUSH1 0x20 DUP2 LT ISZERO PUSH2 0x4132 JUMPI PUSH1 0x0 DUP1 REVERT JUMPDEST POP MLOAD SWAP1 POP DUP1 ISZERO PUSH2 0x4156 JUMPI PUSH2 0x4149 PUSH1 0x3 PUSH1 0x12 DUP4 PUSH2 0x2ECF JUMP JUMPDEST SWAP3 POP PUSH1 0x0 SWAP2 POP PUSH2 0x4611 SWAP1 POP JUMP JUMPDEST PUSH2 0x415E PUSH2 0x2CCB JUMP JUMPDEST PUSH1 0x9 SLOAD EQ PUSH2 0x4172 JUMPI PUSH2 0x4149 PUSH1 0xA PUSH1 0x16 PUSH2 0x20DD JUMP JUMPDEST PUSH2 0x417A PUSH2 0x2CCB JUMP JUMPDEST DUP5 PUSH1 0x1 PUSH1 0x1 PUSH1 0xA0 SHL SUB AND PUSH4 0x6C540BAF PUSH1 0x40 MLOAD DUP2 PUSH4 0xFFFFFFFF AND PUSH1 0xE0 SHL DUP2 MSTORE PUSH1 0x4 ADD PUSH1 0x20 PUSH1 0x40 MLOAD DUP1 DUP4 SUB DUP2 DUP7 DUP1 EXTCODESIZE ISZERO DUP1 ISZERO PUSH2 0x41B3 JUMPI PUSH1 0x0 DUP1 REVERT JUMPDEST POP GAS STATICCALL ISZERO DUP1 ISZERO PUSH2 0x41C7 JUMPI RETURNDATASIZE PUSH1 0x0 DUP1 RETURNDATACOPY RETURNDATASIZE PUSH1 0x0 REVERT JUMPDEST POP POP POP POP PUSH1 0x40 MLOAD RETURNDATASIZE PUSH1 0x20 DUP2 LT ISZERO PUSH2 0x41DD JUMPI PUSH1 0x0 DUP1 REVERT JUMPDEST POP MLOAD EQ PUSH2 0x41F0 JUMPI PUSH2 0x4149 PUSH1 0xA PUSH1 0x11 PUSH2 0x20DD JUMP JUMPDEST DUP7 PUSH1 0x1 PUSH1 0x1 PUSH1 0xA0 SHL SUB AND DUP7 PUSH1 0x1 PUSH1 0x1 PUSH1 0xA0 SHL SUB AND EQ ISZERO PUSH2 0x4216 JUMPI PUSH2 0x4149 PUSH1 0x6 PUSH1 0x17 PUSH2 0x20DD JUMP JUMPDEST DUP5 PUSH2 0x4227 JUMPI PUSH2 0x4149 PUSH1 0x7 PUSH1 0x15 PUSH2 0x20DD JUMP JUMPDEST PUSH1 0x0 NOT DUP6 EQ ISZERO PUSH2 0x423D JUMPI PUSH2 0x4149 PUSH1 0x7 PUSH1 0x14 PUSH2 0x20DD JUMP JUMPDEST PUSH1 0x0 DUP1 PUSH2 0x424B DUP10 DUP10 DUP10 PUSH2 0x374B JUMP JUMPDEST SWAP1 SWAP3 POP SWAP1 POP DUP2 ISZERO PUSH2 0x427B JUMPI PUSH2 0x426C DUP3 PUSH1 0x10 DUP2 GT ISZERO PUSH2 0x4265 JUMPI INVALID JUMPDEST PUSH1 0x18 PUSH2 0x20DD JUMP JUMPDEST SWAP5 POP PUSH1 0x0 SWAP4 POP PUSH2 0x4611 SWAP3 POP POP POP JUMP JUMPDEST PUSH1 0x5 SLOAD PUSH1 0x40 DUP1 MLOAD PUSH4 0xC488847B PUSH1 0xE0 SHL DUP2 MSTORE ADDRESS PUSH1 0x4 DUP3 ADD MSTORE PUSH1 0x1 PUSH1 0x1 PUSH1 0xA0 SHL SUB DUP10 DUP2 AND PUSH1 0x24 DUP4 ADD MSTORE PUSH1 0x44 DUP3 ADD DUP6 SWAP1 MSTORE DUP3 MLOAD PUSH1 0x0 SWAP5 DUP6 SWAP5 SWAP3 AND SWAP3 PUSH4 0xC488847B SWAP3 PUSH1 0x64 DUP1 DUP4 ADD SWAP4 SWAP2 SWAP3 DUP3 SWAP1 SUB ADD DUP2 DUP7 DUP1 EXTCODESIZE ISZERO DUP1 ISZERO PUSH2 0x42D5 JUMPI PUSH1 0x0 DUP1 REVERT JUMPDEST POP GAS STATICCALL ISZERO DUP1 ISZERO PUSH2 0x42E9 JUMPI RETURNDATASIZE PUSH1 0x0 DUP1 RETURNDATACOPY RETURNDATASIZE PUSH1 0x0 REVERT JUMPDEST POP POP POP POP PUSH1 0x40 MLOAD RETURNDATASIZE PUSH1 0x40 DUP2 LT ISZERO PUSH2 0x42FF JUMPI PUSH1 0x0 DUP1 REVERT JUMPDEST POP DUP1 MLOAD PUSH1 0x20 SWAP1 SWAP2 ADD MLOAD SWAP1 SWAP3 POP SWAP1 POP DUP2 ISZERO PUSH2 0x434A JUMPI PUSH1 0x40 MLOAD PUSH3 0x461BCD PUSH1 0xE5 SHL DUP2 MSTORE PUSH1 0x4 ADD DUP1 DUP1 PUSH1 0x20 ADD DUP3 DUP2 SUB DUP3 MSTORE PUSH1 0x33 DUP2 MSTORE PUSH1 0x20 ADD DUP1 PUSH2 0x4C66 PUSH1 0x33 SWAP2 CODECOPY PUSH1 0x40 ADD SWAP2 POP POP PUSH1 0x40 MLOAD DUP1 SWAP2 SUB SWAP1 REVERT JUMPDEST DUP1 DUP9 PUSH1 0x1 PUSH1 0x1 PUSH1 0xA0 SHL SUB AND PUSH4 0x70A08231 DUP13 PUSH1 0x40 MLOAD DUP3 PUSH4 0xFFFFFFFF AND PUSH1 0xE0 SHL DUP2 MSTORE PUSH1 0x4 ADD DUP1 DUP3 PUSH1 0x1 PUSH1 0x1 PUSH1 0xA0 SHL SUB AND PUSH1 0x1 PUSH1 0x1 PUSH1 0xA0 SHL SUB AND DUP2 MSTORE PUSH1 0x20 ADD SWAP2 POP POP PUSH1 0x20 PUSH1 0x40 MLOAD DUP1 DUP4 SUB DUP2 DUP7 DUP1 EXTCODESIZE ISZERO DUP1 ISZERO PUSH2 0x43A1 JUMPI PUSH1 0x0 DUP1 REVERT JUMPDEST POP GAS STATICCALL ISZERO DUP1 ISZERO PUSH2 0x43B5 JUMPI RETURNDATASIZE PUSH1 0x0 DUP1 RETURNDATACOPY RETURNDATASIZE PUSH1 0x0 REVERT JUMPDEST POP POP POP POP PUSH1 0x40 MLOAD RETURNDATASIZE PUSH1 0x20 DUP2 LT ISZERO PUSH2 0x43CB JUMPI PUSH1 0x0 DUP1 REVERT JUMPDEST POP MLOAD LT ISZERO PUSH2 0x4420 JUMPI PUSH1 0x40 DUP1 MLOAD PUSH3 0x461BCD PUSH1 0xE5 SHL DUP2 MSTORE PUSH1 0x20 PUSH1 0x4 DUP3 ADD MSTORE PUSH1 0x18 PUSH1 0x24 DUP3 ADD MSTORE PUSH32 0x4C49515549444154455F5345495A455F544F4F5F4D5543480000000000000000 PUSH1 0x44 DUP3 ADD MSTORE SWAP1 MLOAD SWAP1 DUP2 SWAP1 SUB PUSH1 0x64 ADD SWAP1 REVERT JUMPDEST PUSH1 0x0 PUSH1 0x1 PUSH1 0x1 PUSH1 0xA0 SHL SUB DUP10 AND ADDRESS EQ ISZERO PUSH2 0x4446 JUMPI PUSH2 0x443F ADDRESS DUP14 DUP14 DUP6 PUSH2 0x30E9 JUMP JUMPDEST SWAP1 POP PUSH2 0x44D0 JUMP JUMPDEST PUSH1 0x40 DUP1 MLOAD PUSH4 0xB2A02FF1 PUSH1 0xE0 SHL DUP2 MSTORE PUSH1 0x1 PUSH1 0x1 PUSH1 0xA0 SHL SUB DUP15 DUP2 AND PUSH1 0x4 DUP4 ADD MSTORE DUP14 DUP2 AND PUSH1 0x24 DUP4 ADD MSTORE PUSH1 0x44 DUP3 ADD DUP6 SWAP1 MSTORE SWAP2 MLOAD SWAP2 DUP12 AND SWAP2 PUSH4 0xB2A02FF1 SWAP2 PUSH1 0x64 DUP1 DUP3 ADD SWAP3 PUSH1 0x20 SWAP3 SWAP1 SWAP2 SWAP1 DUP3 SWAP1 SUB ADD DUP2 PUSH1 0x0 DUP8 DUP1 EXTCODESIZE ISZERO DUP1 ISZERO PUSH2 0x44A1 JUMPI PUSH1 0x0 DUP1 REVERT JUMPDEST POP GAS CALL ISZERO DUP1 ISZERO PUSH2 0x44B5 JUMPI RETURNDATASIZE PUSH1 0x0 DUP1 RETURNDATACOPY RETURNDATASIZE PUSH1 0x0 REVERT JUMPDEST POP POP POP POP PUSH1 0x40 MLOAD RETURNDATASIZE PUSH1 0x20 DUP2 LT ISZERO PUSH2 0x44CB JUMPI PUSH1 0x0 DUP1 REVERT JUMPDEST POP MLOAD SWAP1 POP JUMPDEST DUP1 ISZERO PUSH2 0x451A JUMPI PUSH1 0x40 DUP1 MLOAD PUSH3 0x461BCD PUSH1 0xE5 SHL DUP2 MSTORE PUSH1 0x20 PUSH1 0x4 DUP3 ADD MSTORE PUSH1 0x14 PUSH1 0x24 DUP3 ADD MSTORE PUSH20 0x1D1BDAD95B881CD95A5E9D5C994819985A5B1959 PUSH1 0x62 SHL PUSH1 0x44 DUP3 ADD MSTORE SWAP1 MLOAD SWAP1 DUP2 SWAP1 SUB PUSH1 0x64 ADD SWAP1 REVERT JUMPDEST PUSH1 0x40 DUP1 MLOAD PUSH1 0x1 PUSH1 0x1 PUSH1 0xA0 SHL SUB DUP1 DUP16 AND DUP3 MSTORE DUP1 DUP15 AND PUSH1 0x20 DUP4 ADD MSTORE DUP2 DUP4 ADD DUP8 SWAP1 MSTORE DUP12 AND PUSH1 0x60 DUP3 ADD MSTORE PUSH1 0x80 DUP2 ADD DUP5 SWAP1 MSTORE SWAP1 MLOAD PUSH32 0x298637F684DA70674F26509B10F07EC2FBC77A335AB1E7D6215A4B2484D8BB52 SWAP2 DUP2 SWAP1 SUB PUSH1 0xA0 ADD SWAP1 LOG1 PUSH1 0x5 SLOAD PUSH1 0x40 DUP1 MLOAD PUSH4 0x47EF3B3B PUSH1 0xE0 SHL DUP2 MSTORE ADDRESS PUSH1 0x4 DUP3 ADD MSTORE PUSH1 0x1 PUSH1 0x1 PUSH1 0xA0 SHL SUB DUP13 DUP2 AND PUSH1 0x24 DUP4 ADD MSTORE DUP16 DUP2 AND PUSH1 0x44 DUP4 ADD MSTORE DUP15 DUP2 AND PUSH1 0x64 DUP4 ADD MSTORE PUSH1 0x84 DUP3 ADD DUP9 SWAP1 MSTORE PUSH1 0xA4 DUP3 ADD DUP7 SWAP1 MSTORE SWAP2 MLOAD SWAP2 SWAP1 SWAP3 AND SWAP2 PUSH4 0x47EF3B3B SWAP2 PUSH1 0xC4 DUP1 DUP4 ADD SWAP3 PUSH1 0x0 SWAP3 SWAP2 SWAP1 DUP3 SWAP1 SUB ADD DUP2 DUP4 DUP8 DUP1 EXTCODESIZE ISZERO DUP1 ISZERO PUSH2 0x45E5 JUMPI PUSH1 0x0 DUP1 REVERT JUMPDEST POP GAS CALL ISZERO DUP1 ISZERO PUSH2 0x45F9 JUMPI RETURNDATASIZE PUSH1 0x0 DUP1 RETURNDATACOPY RETURNDATASIZE PUSH1 0x0 REVERT JUMPDEST POP PUSH1 0x0 SWAP3 POP PUSH2 0x4606 SWAP2 POP POP JUMP JUMPDEST SWAP8 POP SWAP3 SWAP6 POP POP POP POP POP POP JUMPDEST SWAP5 POP SWAP5 SWAP3 POP POP POP JUMP JUMPDEST PUSH1 0x5 SLOAD PUSH1 0x40 DUP1 MLOAD PUSH4 0x368F5153 PUSH1 0xE2 SHL DUP2 MSTORE ADDRESS PUSH1 0x4 DUP3 ADD MSTORE PUSH1 0x1 PUSH1 0x1 PUSH1 0xA0 SHL SUB DUP6 DUP2 AND PUSH1 0x24 DUP4 ADD MSTORE PUSH1 0x44 DUP3 ADD DUP6 SWAP1 MSTORE SWAP2 MLOAD PUSH1 0x0 SWAP4 DUP5 SWAP4 AND SWAP2 PUSH4 0xDA3D454C SWAP2 PUSH1 0x64 DUP1 DUP4 ADD SWAP3 PUSH1 0x20 SWAP3 SWAP2 SWAP1 DUP3 SWAP1 SUB ADD DUP2 DUP8 DUP8 DUP1 EXTCODESIZE ISZERO DUP1 ISZERO PUSH2 0x4677 JUMPI PUSH1 0x0 DUP1 REVERT JUMPDEST POP GAS CALL ISZERO DUP1 ISZERO PUSH2 0x468B JUMPI RETURNDATASIZE PUSH1 0x0 DUP1 RETURNDATACOPY RETURNDATASIZE PUSH1 0x0 REVERT JUMPDEST POP POP POP POP PUSH1 0x40 MLOAD RETURNDATASIZE PUSH1 0x20 DUP2 LT ISZERO PUSH2 0x46A1 JUMPI PUSH1 0x0 DUP1 REVERT JUMPDEST POP MLOAD SWAP1 POP DUP1 ISZERO PUSH2 0x46C0 JUMPI PUSH2 0x46B8 PUSH1 0x3 PUSH1 0xE DUP4 PUSH2 0x2ECF JUMP JUMPDEST SWAP2 POP POP PUSH2 0xE6F JUMP JUMPDEST PUSH2 0x46C8 PUSH2 0x2CCB JUMP JUMPDEST PUSH1 0x9 SLOAD EQ PUSH2 0x46DB JUMPI PUSH2 0x46B8 PUSH1 0xA DUP1 PUSH2 0x20DD JUMP JUMPDEST DUP3 PUSH2 0x46E4 PUSH2 0x29B5 JUMP JUMPDEST LT ISZERO PUSH2 0x46F6 JUMPI PUSH2 0x46B8 PUSH1 0xE PUSH1 0x9 PUSH2 0x20DD JUMP JUMPDEST PUSH2 0x46FE PUSH2 0x4A9C JUMP JUMPDEST PUSH2 0x4707 DUP6 PUSH2 0x2C17 JUMP JUMPDEST PUSH1 0x20 DUP4 ADD DUP2 SWAP1 MSTORE DUP3 DUP3 PUSH1 0x3 DUP2 GT ISZERO PUSH2 0x471B JUMPI INVALID JUMPDEST PUSH1 0x3 DUP2 GT ISZERO PUSH2 0x4726 JUMPI INVALID JUMPDEST SWAP1 MSTORE POP PUSH1 0x0 SWAP1 POP DUP2 MLOAD PUSH1 0x3 DUP2 GT ISZERO PUSH2 0x473A JUMPI INVALID JUMPDEST EQ PUSH2 0x475F JUMPI PUSH2 0x4756 PUSH1 0x9 PUSH1 0x7 DUP4 PUSH1 0x0 ADD MLOAD PUSH1 0x3 DUP2 GT ISZERO PUSH2 0x18E6 JUMPI INVALID JUMPDEST SWAP3 POP POP POP PUSH2 0xE6F JUMP JUMPDEST PUSH2 0x476D DUP2 PUSH1 0x20 ADD MLOAD DUP6 PUSH2 0x2F35 JUMP JUMPDEST PUSH1 0x40 DUP4 ADD DUP2 SWAP1 MSTORE DUP3 DUP3 PUSH1 0x3 DUP2 GT ISZERO PUSH2 0x4781 JUMPI INVALID JUMPDEST PUSH1 0x3 DUP2 GT ISZERO PUSH2 0x478C JUMPI INVALID JUMPDEST SWAP1 MSTORE POP PUSH1 0x0 SWAP1 POP DUP2 MLOAD PUSH1 0x3 DUP2 GT ISZERO PUSH2 0x47A0 JUMPI INVALID JUMPDEST EQ PUSH2 0x47BC JUMPI PUSH2 0x4756 PUSH1 0x9 PUSH1 0xC DUP4 PUSH1 0x0 ADD MLOAD PUSH1 0x3 DUP2 GT ISZERO PUSH2 0x18E6 JUMPI INVALID JUMPDEST PUSH2 0x47C8 PUSH1 0xB SLOAD DUP6 PUSH2 0x2F35 JUMP JUMPDEST PUSH1 0x60 DUP4 ADD DUP2 SWAP1 MSTORE DUP3 DUP3 PUSH1 0x3 DUP2 GT ISZERO PUSH2 0x47DC JUMPI INVALID JUMPDEST PUSH1 0x3 DUP2 GT ISZERO PUSH2 0x47E7 JUMPI INVALID JUMPDEST SWAP1 MSTORE POP PUSH1 0x0 SWAP1 POP DUP2 MLOAD PUSH1 0x3 DUP2 GT ISZERO PUSH2 0x47FB JUMPI INVALID JUMPDEST EQ PUSH2 0x4817 JUMPI PUSH2 0x4756 PUSH1 0x9 PUSH1 0xB DUP4 PUSH1 0x0 ADD MLOAD PUSH1 0x3 DUP2 GT ISZERO PUSH2 0x18E6 JUMPI INVALID JUMPDEST PUSH2 0x4821 DUP6 DUP6 PUSH2 0x3B30 JUMP JUMPDEST PUSH1 0x40 DUP1 DUP3 ADD DUP1 MLOAD PUSH1 0x1 PUSH1 0x1 PUSH1 0xA0 SHL SUB DUP9 AND PUSH1 0x0 DUP2 DUP2 MSTORE PUSH1 0x10 PUSH1 0x20 SWAP1 DUP2 MSTORE SWAP1 DUP6 SWAP1 KECCAK256 SWAP3 DUP4 SSTORE PUSH1 0xA SLOAD PUSH1 0x1 SWAP1 SWAP4 ADD SWAP3 SWAP1 SWAP3 SSTORE PUSH1 0x60 DUP1 DUP7 ADD MLOAD PUSH1 0xB DUP2 SWAP1 SSTORE SWAP4 MLOAD DUP6 MLOAD SWAP3 DUP4 MSTORE SWAP3 DUP3 ADD DUP10 SWAP1 MSTORE DUP2 DUP6 ADD SWAP3 SWAP1 SWAP3 MSTORE SWAP1 DUP2 ADD SWAP2 SWAP1 SWAP2 MSTORE SWAP1 MLOAD PUSH32 0x13ED6866D4E1EE6DA46F845C46D7E54120883D75C5EA9A2DACC1C4CA8984AB80 SWAP2 DUP2 SWAP1 SUB PUSH1 0x80 ADD SWAP1 LOG1 PUSH1 0x5 SLOAD PUSH1 0x40 DUP1 MLOAD PUSH4 0x5C778605 PUSH1 0xE0 SHL DUP2 MSTORE ADDRESS PUSH1 0x4 DUP3 ADD MSTORE PUSH1 0x1 PUSH1 0x1 PUSH1 0xA0 SHL SUB DUP9 DUP2 AND PUSH1 0x24 DUP4 ADD MSTORE PUSH1 0x44 DUP3 ADD DUP9 SWAP1 MSTORE SWAP2 MLOAD SWAP2 SWAP1 SWAP3 AND SWAP2 PUSH4 0x5C778605 SWAP2 PUSH1 0x64 DUP1 DUP4 ADD SWAP3 PUSH1 0x0 SWAP3 SWAP2 SWAP1 DUP3 SWAP1 SUB ADD DUP2 DUP4 DUP8 DUP1 EXTCODESIZE ISZERO DUP1 ISZERO PUSH2 0x48FE JUMPI PUSH1 0x0 DUP1 REVERT JUMPDEST POP GAS CALL ISZERO DUP1 ISZERO PUSH2 0x4912 JUMPI RETURNDATASIZE PUSH1 0x0 DUP1 RETURNDATACOPY RETURNDATASIZE PUSH1 0x0 REVERT JUMPDEST POP PUSH1 0x0 SWAP3 POP PUSH2 0x491F SWAP2 POP POP JUMP JUMPDEST SWAP6 SWAP5 POP POP POP POP POP JUMP JUMPDEST PUSH1 0x0 PUSH2 0x4932 PUSH2 0x4987 JUMP JUMPDEST PUSH1 0x0 DUP1 PUSH2 0x4947 PUSH8 0xDE0B6B3A7640000 DUP8 PUSH2 0x402D JUMP JUMPDEST SWAP1 SWAP3 POP SWAP1 POP PUSH1 0x0 DUP3 PUSH1 0x3 DUP2 GT ISZERO PUSH2 0x495A JUMPI INVALID JUMPDEST EQ PUSH2 0x4979 JUMPI POP PUSH1 0x40 DUP1 MLOAD PUSH1 0x20 DUP2 ADD SWAP1 SWAP2 MSTORE PUSH1 0x0 DUP2 MSTORE SWAP1 SWAP3 POP SWAP1 POP PUSH2 0x259C JUMP JUMPDEST PUSH2 0x29A8 DUP2 DUP7 PUSH1 0x0 ADD MLOAD PUSH2 0x368C JUMP JUMPDEST PUSH1 0x40 MLOAD DUP1 PUSH1 0x20 ADD PUSH1 0x40 MSTORE DUP1 PUSH1 0x0 DUP2 MSTORE POP SWAP1 JUMP JUMPDEST DUP3 DUP1 SLOAD PUSH1 0x1 DUP2 PUSH1 0x1 AND ISZERO PUSH2 0x100 MUL SUB AND PUSH1 0x2 SWAP1 DIV SWAP1 PUSH1 0x0 MSTORE PUSH1 0x20 PUSH1 0x0 KECCAK256 SWAP1 PUSH1 0x1F ADD PUSH1 0x20 SWAP1 DIV DUP2 ADD SWAP3 DUP3 PUSH1 0x1F LT PUSH2 0x49DB JUMPI DUP1 MLOAD PUSH1 0xFF NOT AND DUP4 DUP1 ADD OR DUP6 SSTORE PUSH2 0x4A08 JUMP JUMPDEST DUP3 DUP1 ADD PUSH1 0x1 ADD DUP6 SSTORE DUP3 ISZERO PUSH2 0x4A08 JUMPI SWAP2 DUP3 ADD JUMPDEST DUP3 DUP2 GT ISZERO PUSH2 0x4A08 JUMPI DUP3 MLOAD DUP3 SSTORE SWAP2 PUSH1 0x20 ADD SWAP2 SWAP1 PUSH1 0x1 ADD SWAP1 PUSH2 0x49ED JUMP JUMPDEST POP PUSH2 0x4A14 SWAP3 SWAP2 POP PUSH2 0x4AC5 JUMP JUMPDEST POP SWAP1 JUMP JUMPDEST PUSH1 0x40 DUP1 MLOAD PUSH1 0xE0 DUP2 ADD SWAP1 SWAP2 MSTORE DUP1 PUSH1 0x0 DUP2 MSTORE PUSH1 0x20 ADD PUSH1 0x0 DUP2 MSTORE PUSH1 0x20 ADD PUSH1 0x0 DUP2 MSTORE PUSH1 0x20 ADD PUSH1 0x0 DUP2 MSTORE PUSH1 0x20 ADD PUSH1 0x0 DUP2 MSTORE PUSH1 0x20 ADD PUSH1 0x0 DUP2 MSTORE PUSH1 0x20 ADD PUSH1 0x0 DUP2 MSTORE POP SWAP1 JUMP JUMPDEST PUSH1 0x40 DUP1 MLOAD PUSH2 0x100 DUP2 ADD SWAP1 SWAP2 MSTORE DUP1 PUSH1 0x0 DUP2 MSTORE PUSH1 0x20 ADD PUSH1 0x0 DUP2 MSTORE PUSH1 0x20 ADD PUSH1 0x0 DUP2 MSTORE PUSH1 0x20 ADD PUSH1 0x0 DUP2 MSTORE PUSH1 0x20 ADD PUSH1 0x0 DUP2 MSTORE PUSH1 0x20 ADD PUSH1 0x0 DUP2 MSTORE PUSH1 0x20 ADD PUSH1 0x0 DUP2 MSTORE PUSH1 0x20 ADD PUSH1 0x0 DUP2 MSTORE POP SWAP1 JUMP JUMPDEST PUSH1 0x40 DUP1 MLOAD PUSH1 0x80 DUP2 ADD SWAP1 SWAP2 MSTORE DUP1 PUSH1 0x0 DUP2 MSTORE PUSH1 0x20 ADD PUSH1 0x0 DUP2 MSTORE PUSH1 0x20 ADD PUSH1 0x0 DUP2 MSTORE PUSH1 0x20 ADD PUSH1 0x0 DUP2 MSTORE POP SWAP1 JUMP JUMPDEST PUSH2 0xFDF SWAP2 SWAP1 JUMPDEST DUP1 DUP3 GT ISZERO PUSH2 0x4A14 JUMPI PUSH1 0x0 DUP2 SSTORE PUSH1 0x1 ADD PUSH2 0x4ACB JUMP INVALID PUSH16 0x6E6C792061646D696E206D617920696E PUSH10 0x7469616C697A65207468 PUSH6 0x206D61726B65 PUSH21 0x6D61726B6574206D6179206F6E6C7920626520696E PUSH10 0x7469616C697A6564206F PUSH15 0x6365696E697469616C206578636861 PUSH15 0x67652072617465206D757374206265 KECCAK256 PUSH8 0x7265617465722074 PUSH9 0x616E207A65726F2E73 PUSH6 0x7474696E6720 PUSH10 0x6E746572657374207261 PUSH21 0x65206D6F64656C206661696C65644D494E545F4E45 JUMPI 0x5F COINBASE NUMBER NUMBER 0x4F SSTORE 0x4E SLOAD 0x5F TIMESTAMP COINBASE 0x4C COINBASE 0x4E NUMBER GASLIMIT 0x5F NUMBER COINBASE 0x4C NUMBER SSTORE 0x4C COINBASE SLOAD 0x49 0x4F 0x4E 0x5F CHAINID COINBASE 0x49 0x4C GASLIMIT DIFFICULTY PUSH3 0x6F7272 PUSH16 0x7742616C616E636553746F7265643A20 PUSH3 0x6F7272 PUSH16 0x7742616C616E636553746F726564496E PUSH21 0x65726E616C206661696C656452455041595F424F52 MSTORE 0x4F JUMPI 0x5F 0x4E GASLIMIT JUMPI 0x5F COINBASE NUMBER NUMBER 0x4F SSTORE 0x4E SLOAD 0x5F TIMESTAMP 0x4F MSTORE MSTORE 0x4F JUMPI 0x5F TIMESTAMP COINBASE 0x4C COINBASE 0x4E NUMBER GASLIMIT 0x5F NUMBER COINBASE 0x4C NUMBER SSTORE 0x4C COINBASE SLOAD 0x49 0x4F 0x4E 0x5F CHAINID COINBASE 0x49 0x4C GASLIMIT DIFFICULTY 0xDD CALLCODE MSTORE 0xAD SHL 0xE2 0xC8 SWAP12 PUSH10 0xC2B068FC378DAA952BA7 CALL PUSH4 0xC4A11628 CREATE2 GAS 0x4D CREATE2 0x23 0xB3 0xEF MSTORE GASLIMIT POP COINBASE MSIZE 0x5F TIMESTAMP 0x4F MSTORE MSTORE 0x4F JUMPI 0x5F 0x4E GASLIMIT JUMPI 0x5F SLOAD 0x4F SLOAD COINBASE 0x4C 0x5F TIMESTAMP COINBASE 0x4C COINBASE 0x4E NUMBER GASLIMIT 0x5F NUMBER COINBASE 0x4C NUMBER SSTORE 0x4C COINBASE SLOAD 0x49 0x4F 0x4E 0x5F CHAINID COINBASE 0x49 0x4C GASLIMIT DIFFICULTY 0x4C 0x49 MLOAD SSTORE 0x49 DIFFICULTY COINBASE SLOAD GASLIMIT 0x5F NUMBER 0x4F 0x4D POP SLOAD MSTORE 0x4F 0x4C 0x4C GASLIMIT MSTORE 0x5F NUMBER COINBASE 0x4C NUMBER SSTORE 0x4C COINBASE SLOAD GASLIMIT 0x5F COINBASE 0x4D 0x4F SSTORE 0x4E SLOAD 0x5F MSTORE8 GASLIMIT 0x49 GAS GASLIMIT 0x5F CHAINID COINBASE 0x49 0x4C GASLIMIT DIFFICULTY PUSH6 0x786368616E67 PUSH6 0x526174655374 PUSH16 0x7265643A2065786368616E6765526174 PUSH6 0x53746F726564 0x49 PUSH15 0x7465726E616C206661696C65644D49 0x4E SLOAD 0x5F 0x4E GASLIMIT JUMPI 0x5F SLOAD 0x4F SLOAD COINBASE 0x4C 0x5F MSTORE8 SSTORE POP POP 0x4C MSIZE 0x5F NUMBER COINBASE 0x4C NUMBER SSTORE 0x4C COINBASE SLOAD 0x49 0x4F 0x4E 0x5F CHAINID COINBASE 0x49 0x4C GASLIMIT DIFFICULTY PUSH16 0x6E65206F662072656465656D546F6B65 PUSH15 0x73496E206F722072656465656D416D PUSH16 0x756E74496E206D757374206265207A65 PUSH19 0x6F72656475636520726573657276657320756E PUSH6 0x787065637465 PUSH5 0x20756E6465 PUSH19 0x666C6F77A265627A7A72315820F92C7C0CBE51 PUSH2 0xAADB PUSH27 0x8EF6CD593DC9E8FEA1CFA44171C682B27B603D818CFD64736F6C63 NUMBER STOP SDIV GT STOP ORIGIN ",
  "sha1": "3e0a6058b405997034e1efacda8bc7c11b7212e8",
  "source": "pragma solidity ^0.5.16;\n\nimport \"compound-finance/compound-protocol@2.8.1/contracts/Comptroller.sol\";\nimport \"compound-finance/compound-protocol@2.8.1/contracts/CErc20Immutable.sol\";\nimport \"compound-finance/compound-protocol@2.8.1/contracts/CEther.sol\";\nimport \"compound-finance/compound-protocol@2.8.1/contracts/WhitePaperInterestRateModel.sol\";\nimport \"compound-finance/compound-protocol@2.8.1/contracts/JumpRateModel.sol\";\nimport \"compound-finance/compound-protocol@2.8.1/contracts/SimplePriceOracle.sol\";\n\ncontract nComptroller is Comptroller {\n    constructor() public Comptroller() {}\n}\n\ncontract nPriceOracle is SimplePriceOracle { }\n\ncontract nCErc20 is CErc20Immutable { \n    constructor(address underlying_,\n            ComptrollerInterface comptroller_,\n            InterestRateModel interestRateModel_,\n            uint initialExchangeRateMantissa_,\n            string memory name_,\n            string memory symbol_,\n            uint8 decimals_,\n            address payable admin_) public\n        CErc20Immutable(underlying_, comptroller_, interestRateModel_, initialExchangeRateMantissa_, name_, symbol_, decimals_, admin_) { }\n}\n\ncontract nCEther is CEther { \n    constructor(ComptrollerInterface comptroller_,\n                InterestRateModel interestRateModel_,\n                uint initialExchangeRateMantissa_,\n                string memory name_,\n                string memory symbol_,\n                uint8 decimals_,\n                address payable admin_) public\n        CEther(comptroller_, interestRateModel_, initialExchangeRateMantissa_, name_, symbol_, decimals_, admin_) { }\n}\n\ncontract nJumpRateModel is JumpRateModel {\n    constructor(uint baseRatePerYear, uint multiplierPerYear, uint jumpMultiplierPerYear, uint kink_) public \n        JumpRateModel(baseRatePerYear, multiplierPerYear, jumpMultiplierPerYear, kink_) { }\n}\n\ncontract nWhitePaperInterestRateModel is WhitePaperInterestRateModel {\n    constructor(uint baseRatePerYear, uint multiplierPerYear) public\n        WhitePaperInterestRateModel(baseRatePerYear, multiplierPerYear) {}\n}",
  "sourcePath": "contracts/mocks/CompoundImports.sol",
  "type": "contract"
}