{
  "address": "0x503aef858e26C136C29e40483EA0297160d2BDC0",
  "abi": [
    {
      "anonymous": false,
      "inputs": [
        {
          "indexed": false,
          "internalType": "uint256",
          "name": "price",
          "type": "uint256"
        }
      ],
      "name": "FixedPriceChange",
      "type": "event"
    },
    {
      "anonymous": false,
      "inputs": [
        {
          "indexed": true,
          "internalType": "address",
          "name": "previousNominee",
          "type": "address"
        },
        {
          "indexed": true,
          "internalType": "address",
          "name": "newNominee",
          "type": "address"
        }
      ],
      "name": "NomineeUpdate",
      "type": "event"
    },
    {
      "anonymous": false,
      "inputs": [
        {
          "indexed": true,
          "internalType": "address",
          "name": "previousOwner",
          "type": "address"
        },
        {
          "indexed": true,
          "internalType": "address",
          "name": "newOwner",
          "type": "address"
        }
      ],
      "name": "OwnershipTransferred",
      "type": "event"
    },
    {
      "inputs": [],
      "name": "acceptOwnership",
      "outputs": [],
      "stateMutability": "nonpayable",
      "type": "function"
    },
    {
      "inputs": [],
      "name": "getFixedPrice",
      "outputs": [
        {
          "internalType": "uint256",
          "name": "",
          "type": "uint256"
        }
      ],
      "stateMutability": "view",
      "type": "function"
    },
    {
      "inputs": [],
      "name": "getNominee",
      "outputs": [
        {
          "internalType": "address",
          "name": "",
          "type": "address"
        }
      ],
      "stateMutability": "view",
      "type": "function"
    },
    {
      "inputs": [],
      "name": "owner",
      "outputs": [
        {
          "internalType": "address",
          "name": "",
          "type": "address"
        }
      ],
      "stateMutability": "view",
      "type": "function"
    },
    {
      "inputs": [],
      "name": "renounceOwnership",
      "outputs": [],
      "stateMutability": "nonpayable",
      "type": "function"
    },
    {
      "inputs": [
        {
          "internalType": "uint256",
          "name": "_newFixedPrice",
          "type": "uint256"
        }
      ],
      "name": "setFixedPrice",
      "outputs": [],
      "stateMutability": "nonpayable",
      "type": "function"
    },
    {
      "inputs": [
        {
          "internalType": "address",
          "name": "_newNominee",
          "type": "address"
        }
      ],
      "name": "transferOwnership",
      "outputs": [],
      "stateMutability": "nonpayable",
      "type": "function"
    }
  ],
  "transactionHash": "0xcae19182f61bc33349eb26dc3e3f82fa148d96cb181a38f332088f5595d376c8",
  "args": [],
  "numDeployments": 1,
  "solcInputHash": "44fe0b2f55a64f069e5a6631752f93ec",
  "bytecode": "0x608060405234801561001057600080fd5b5061001a3361001f565b61006f565b600080546001600160a01b038381166001600160a01b0319831681178455604051919092169283917f8be0079c531659141344cd1fd0a4f28419497f9722a3daafe3b4186f6b6457e09190a35050565b6104698061007e6000396000f3fe608060405234801561001057600080fd5b506004361061007d5760003560e01c806379ba50971161005b57806379ba5097146100b55780638da5cb5b146100bd578063b6ca0b63146100fc578063f2fde38b1461011a57600080fd5b806368af313c14610082578063715018a61461009857806373c8c883146100a2575b600080fd5b6002546040519081526020015b60405180910390f35b6100a061012d565b005b6100a06100b036600461041a565b610149565b6100a061018c565b60005473ffffffffffffffffffffffffffffffffffffffff165b60405173ffffffffffffffffffffffffffffffffffffffff909116815260200161008f565b60015473ffffffffffffffffffffffffffffffffffffffff166100d7565b6100a06101283660046103dd565b61024a565b61013561025e565b61013d6102df565b61014760006102f1565b565b61015161025e565b60028190556040518181527fe941b3ab603d54dfe9e2999fe2ea09a3454e39018db5b372f594a0d0d698388d9060200160405180910390a150565b60015473ffffffffffffffffffffffffffffffffffffffff163373ffffffffffffffffffffffffffffffffffffffff1614610228576040517f08c379a000000000000000000000000000000000000000000000000000000000815260206004820152601560248201527f6d73672e73656e64657220213d206e6f6d696e6565000000000000000000000060448201526064015b60405180910390fd5b60015461013d9073ffffffffffffffffffffffffffffffffffffffff16610368565b61025261025e565b61025b816102f1565b50565b60005473ffffffffffffffffffffffffffffffffffffffff163314610147576040517f08c379a000000000000000000000000000000000000000000000000000000000815260206004820181905260248201527f4f776e61626c653a2063616c6c6572206973206e6f7420746865206f776e6572604482015260640161021f565b6102e761025e565b6101476000610368565b6001805473ffffffffffffffffffffffffffffffffffffffff8381167fffffffffffffffffffffffff0000000000000000000000000000000000000000831681179093556040519116919082907fe7624d724357e317f51579affee5050a97c60b060e513e69aa8a1a35fb3315a790600090a35050565b6000805473ffffffffffffffffffffffffffffffffffffffff8381167fffffffffffffffffffffffff0000000000000000000000000000000000000000831681178455604051919092169283917f8be0079c531659141344cd1fd0a4f28419497f9722a3daafe3b4186f6b6457e09190a35050565b6000602082840312156103ef57600080fd5b813573ffffffffffffffffffffffffffffffffffffffff8116811461041357600080fd5b9392505050565b60006020828403121561042c57600080fd5b503591905056fea26469706673582212204cf1a3070b878811e5543c6143526ca258f4df8d4cc6660a1e1333e19d739a6564736f6c63430008070033",
  "devdoc": {
    "kind": "dev",
    "methods": {
      "acceptOwnership()": {
        "details": "Only callable by the current nominee. Sets nominee back to zero address."
      },
      "getNominee()": {
        "returns": {
          "_0": "The current nominee"
        }
      },
      "owner()": {
        "details": "Returns the address of the current owner."
      }
    },
    "version": 1
  },
  "userdoc": {
    "kind": "user",
    "methods": {
      "acceptOwnership()": {
        "notice": "Accepts ownership nomination."
      }
    },
    "version": 1
  },
  "storageLayout": {
    "storage": [
      {
        "astId": 2582,
        "contract": "contracts/FixedPriceOracle.sol:FixedPriceOracle",
        "label": "_owner",
        "offset": 0,
        "slot": "0",
        "type": "t_address"
      },
      {
        "astId": 8110,
        "contract": "contracts/FixedPriceOracle.sol:FixedPriceOracle",
        "label": "_nominee",
        "offset": 0,
        "slot": "1",
        "type": "t_address"
      },
      {
        "astId": 7456,
        "contract": "contracts/FixedPriceOracle.sol:FixedPriceOracle",
        "label": "_fixedPrice",
        "offset": 0,
        "slot": "2",
        "type": "t_uint256"
      }
    ],
    "types": {
      "t_address": {
        "encoding": "inplace",
        "label": "address",
        "numberOfBytes": "20"
      },
      "t_uint256": {
        "encoding": "inplace",
        "label": "uint256",
        "numberOfBytes": "32"
      }
    }
  }
}