{
  "_format": "hh-sol-artifact-1",
  "contractName": "MockCurveMinter",
  "sourceName": "contracts/mock/MockCurveMinter.sol",
  "abi": [
    {
      "inputs": [
        {
          "internalType": "contract IERC20",
          "name": "_crv",
          "type": "address"
        }
      ],
      "stateMutability": "nonpayable",
      "type": "constructor"
    },
    {
      "inputs": [
        {
          "internalType": "address",
          "name": "",
          "type": "address"
        }
      ],
      "name": "mint",
      "outputs": [],
      "stateMutability": "nonpayable",
      "type": "function"
    }
  ],
  "bytecode": "0x608060405234801561001057600080fd5b506040516105713803806105718339818101604052602081101561003357600080fd5b5051600080546001600160a01b039092166001600160a01b031990921691909117905561050c806100656000396000f3fe608060405234801561001057600080fd5b506004361061002b5760003560e01c80636a62784214610030575b600080fd5b6100566004803603602081101561004657600080fd5b50356001600160a01b0316610058565b005b60008054604080516370a0823160e01b815230600482015290516001600160a01b03909216916370a0823191602480820192602092909190829003018186803b1580156100a457600080fd5b505afa1580156100b8573d6000803e3d6000fd5b505050506040513d60208110156100ce57600080fd5b505190506100f4336100e183600a6100f8565b6000546001600160a01b0316919061015f565b5050565b600080821161014e576040805162461bcd60e51b815260206004820152601a60248201527f536166654d6174683a206469766973696f6e206279207a65726f000000000000604482015290519081900360640190fd5b81838161015757fe5b049392505050565b604080516001600160a01b038416602482015260448082018490528251808303909101815260649091019091526020810180516001600160e01b031663a9059cbb60e01b1790526101b19084906101b6565b505050565b606061020b826040518060400160405280602081526020017f5361666545524332303a206c6f772d6c6576656c2063616c6c206661696c6564815250856001600160a01b03166102679092919063ffffffff16565b8051909150156101b15780806020019051602081101561022a57600080fd5b50516101b15760405162461bcd60e51b815260040180806020018281038252602a8152602001806104ad602a913960400191505060405180910390fd5b60606102768484600085610280565b90505b9392505050565b6060824710156102c15760405162461bcd60e51b81526004018080602001828103825260268152602001806104876026913960400191505060405180910390fd5b6102ca856103dc565b61031b576040805162461bcd60e51b815260206004820152601d60248201527f416464726573733a2063616c6c20746f206e6f6e2d636f6e7472616374000000604482015290519081900360640190fd5b60006060866001600160a01b031685876040518082805190602001908083835b6020831061035a5780518252601f19909201916020918201910161033b565b6001836020036101000a03801982511681845116808217855250505050505090500191505060006040518083038185875af1925050503d80600081146103bc576040519150601f19603f3d011682016040523d82523d6000602084013e6103c1565b606091505b50915091506103d18282866103e2565b979650505050505050565b3b151590565b606083156103f1575081610279565b8251156104015782518084602001fd5b8160405162461bcd60e51b81526004018080602001828103825283818151815260200191508051906020019080838360005b8381101561044b578181015183820152602001610433565b50505050905090810190601f1680156104785780820380516001836020036101000a031916815260200191505b509250505060405180910390fdfe416464726573733a20696e73756666696369656e742062616c616e636520666f722063616c6c5361666545524332303a204552433230206f7065726174696f6e20646964206e6f742073756363656564a26469706673582212206ba12bcdb036890d1aeebf16e90f98a940a44fd6b3deedc881bc69b219b3b08464736f6c634300060c0033",
  "linkReferences": {},
  "deployedLinkReferences": {}
}