{
  "address": "0xC5cF1bdf2b4c03Ea53dbA6a529cbE7bF0bE65c0a",
  "abi": [
    {
      "anonymous": false,
      "inputs": [
        {
          "indexed": true,
          "internalType": "address",
          "name": "owner",
          "type": "address"
        },
        {
          "indexed": true,
          "internalType": "address",
          "name": "addr",
          "type": "address"
        },
        {
          "indexed": false,
          "internalType": "address",
          "name": "farmTemplate",
          "type": "address"
        }
      ],
      "name": "FarmCreated",
      "type": "event"
    },
    {
      "anonymous": false,
      "inputs": [
        {
          "indexed": false,
          "internalType": "address",
          "name": "newFarm",
          "type": "address"
        },
        {
          "indexed": false,
          "internalType": "uint256",
          "name": "templateId",
          "type": "uint256"
        }
      ],
      "name": "FarmTemplateAdded",
      "type": "event"
    },
    {
      "anonymous": false,
      "inputs": [
        {
          "indexed": false,
          "internalType": "address",
          "name": "farm",
          "type": "address"
        },
        {
          "indexed": false,
          "internalType": "uint256",
          "name": "templateId",
          "type": "uint256"
        }
      ],
      "name": "FarmTemplateRemoved",
      "type": "event"
    },
    {
      "anonymous": false,
      "inputs": [
        {
          "indexed": false,
          "internalType": "address",
          "name": "sender",
          "type": "address"
        }
      ],
      "name": "MisoInitFarmFactory",
      "type": "event"
    },
    {
      "inputs": [],
      "name": "FARM_MINTER_ROLE",
      "outputs": [
        {
          "internalType": "bytes32",
          "name": "",
          "type": "bytes32"
        }
      ],
      "stateMutability": "view",
      "type": "function"
    },
    {
      "inputs": [],
      "name": "accessControls",
      "outputs": [
        {
          "internalType": "contract MISOAccessControls",
          "name": "",
          "type": "address"
        }
      ],
      "stateMutability": "view",
      "type": "function"
    },
    {
      "inputs": [
        {
          "internalType": "address",
          "name": "_template",
          "type": "address"
        }
      ],
      "name": "addFarmTemplate",
      "outputs": [],
      "stateMutability": "nonpayable",
      "type": "function"
    },
    {
      "inputs": [
        {
          "internalType": "uint256",
          "name": "_templateId",
          "type": "uint256"
        },
        {
          "internalType": "address payable",
          "name": "_integratorFeeAccount",
          "type": "address"
        },
        {
          "internalType": "bytes",
          "name": "_data",
          "type": "bytes"
        }
      ],
      "name": "createFarm",
      "outputs": [
        {
          "internalType": "address",
          "name": "farm",
          "type": "address"
        }
      ],
      "stateMutability": "payable",
      "type": "function"
    },
    {
      "inputs": [
        {
          "internalType": "uint256",
          "name": "",
          "type": "uint256"
        }
      ],
      "name": "currentTemplateId",
      "outputs": [
        {
          "internalType": "uint256",
          "name": "",
          "type": "uint256"
        }
      ],
      "stateMutability": "view",
      "type": "function"
    },
    {
      "inputs": [
        {
          "internalType": "uint256",
          "name": "_templateId",
          "type": "uint256"
        },
        {
          "internalType": "address payable",
          "name": "_integratorFeeAccount",
          "type": "address"
        }
      ],
      "name": "deployFarm",
      "outputs": [
        {
          "internalType": "address",
          "name": "farm",
          "type": "address"
        }
      ],
      "stateMutability": "payable",
      "type": "function"
    },
    {
      "inputs": [
        {
          "internalType": "address",
          "name": "",
          "type": "address"
        }
      ],
      "name": "farmInfo",
      "outputs": [
        {
          "internalType": "bool",
          "name": "exists",
          "type": "bool"
        },
        {
          "internalType": "uint256",
          "name": "templateId",
          "type": "uint256"
        },
        {
          "internalType": "uint256",
          "name": "index",
          "type": "uint256"
        }
      ],
      "stateMutability": "view",
      "type": "function"
    },
    {
      "inputs": [],
      "name": "farmTemplateId",
      "outputs": [
        {
          "internalType": "uint256",
          "name": "",
          "type": "uint256"
        }
      ],
      "stateMutability": "view",
      "type": "function"
    },
    {
      "inputs": [
        {
          "internalType": "uint256",
          "name": "",
          "type": "uint256"
        }
      ],
      "name": "farms",
      "outputs": [
        {
          "internalType": "address",
          "name": "",
          "type": "address"
        }
      ],
      "stateMutability": "view",
      "type": "function"
    },
    {
      "inputs": [
        {
          "internalType": "uint256",
          "name": "_farmTemplate",
          "type": "uint256"
        }
      ],
      "name": "getFarmTemplate",
      "outputs": [
        {
          "internalType": "address",
          "name": "",
          "type": "address"
        }
      ],
      "stateMutability": "view",
      "type": "function"
    },
    {
      "inputs": [],
      "name": "getFarms",
      "outputs": [
        {
          "internalType": "address[]",
          "name": "",
          "type": "address[]"
        }
      ],
      "stateMutability": "view",
      "type": "function"
    },
    {
      "inputs": [
        {
          "internalType": "address",
          "name": "_farmTemplate",
          "type": "address"
        }
      ],
      "name": "getTemplateId",
      "outputs": [
        {
          "internalType": "uint256",
          "name": "",
          "type": "uint256"
        }
      ],
      "stateMutability": "view",
      "type": "function"
    },
    {
      "inputs": [
        {
          "internalType": "address",
          "name": "_address",
          "type": "address"
        }
      ],
      "name": "hasFarmMinterRole",
      "outputs": [
        {
          "internalType": "bool",
          "name": "",
          "type": "bool"
        }
      ],
      "stateMutability": "view",
      "type": "function"
    },
    {
      "inputs": [
        {
          "internalType": "address",
          "name": "_accessControls",
          "type": "address"
        },
        {
          "internalType": "address payable",
          "name": "_misoDiv",
          "type": "address"
        },
        {
          "internalType": "uint256",
          "name": "_minimumFee",
          "type": "uint256"
        },
        {
          "internalType": "uint256",
          "name": "_integratorFeePct",
          "type": "uint256"
        }
      ],
      "name": "initMISOFarmFactory",
      "outputs": [],
      "stateMutability": "nonpayable",
      "type": "function"
    },
    {
      "inputs": [],
      "name": "integratorFeePct",
      "outputs": [
        {
          "internalType": "uint256",
          "name": "",
          "type": "uint256"
        }
      ],
      "stateMutability": "view",
      "type": "function"
    },
    {
      "inputs": [],
      "name": "locked",
      "outputs": [
        {
          "internalType": "bool",
          "name": "",
          "type": "bool"
        }
      ],
      "stateMutability": "view",
      "type": "function"
    },
    {
      "inputs": [],
      "name": "minimumFee",
      "outputs": [
        {
          "internalType": "uint256",
          "name": "",
          "type": "uint256"
        }
      ],
      "stateMutability": "view",
      "type": "function"
    },
    {
      "inputs": [],
      "name": "misoDiv",
      "outputs": [
        {
          "internalType": "address payable",
          "name": "",
          "type": "address"
        }
      ],
      "stateMutability": "view",
      "type": "function"
    },
    {
      "inputs": [],
      "name": "numberOfFarms",
      "outputs": [
        {
          "internalType": "uint256",
          "name": "",
          "type": "uint256"
        }
      ],
      "stateMutability": "view",
      "type": "function"
    },
    {
      "inputs": [
        {
          "internalType": "uint256",
          "name": "_templateId",
          "type": "uint256"
        }
      ],
      "name": "removeFarmTemplate",
      "outputs": [],
      "stateMutability": "nonpayable",
      "type": "function"
    },
    {
      "inputs": [
        {
          "internalType": "uint256",
          "name": "_templateType",
          "type": "uint256"
        },
        {
          "internalType": "uint256",
          "name": "_templateId",
          "type": "uint256"
        }
      ],
      "name": "setCurrentTemplateId",
      "outputs": [],
      "stateMutability": "nonpayable",
      "type": "function"
    },
    {
      "inputs": [
        {
          "internalType": "address payable",
          "name": "_divaddr",
          "type": "address"
        }
      ],
      "name": "setDividends",
      "outputs": [],
      "stateMutability": "nonpayable",
      "type": "function"
    },
    {
      "inputs": [
        {
          "internalType": "uint256",
          "name": "_amount",
          "type": "uint256"
        }
      ],
      "name": "setIntegratorFeePct",
      "outputs": [],
      "stateMutability": "nonpayable",
      "type": "function"
    },
    {
      "inputs": [
        {
          "internalType": "bool",
          "name": "_locked",
          "type": "bool"
        }
      ],
      "name": "setLocked",
      "outputs": [],
      "stateMutability": "nonpayable",
      "type": "function"
    },
    {
      "inputs": [
        {
          "internalType": "uint256",
          "name": "_amount",
          "type": "uint256"
        }
      ],
      "name": "setMinimumFee",
      "outputs": [],
      "stateMutability": "nonpayable",
      "type": "function"
    }
  ],
  "transactionHash": "0x3dba1503a82bead6810f4c27a0585b1924726f3e06076c21b7e5e9b2ab11154d",
  "args": [],
  "solcInputHash": "d1b4fa5f316a6a8ee3524e1600e2925f",
  "bytecode": "0x608060405234801561001057600080fd5b506117cf806100206000396000f3fe6080604052600436106101665760003560e01c80637da470ea116100d1578063cf3090121161008a578063e6d176b511610064578063e6d176b514610534578063eabcd0a4146105b9578063ed88fd0d146105ce578063f54a9bca1461060157610166565b8063cf309012146104a5578063d0c73d26146104ce578063d335ebda1461050157610166565b80637da470ea146103895780638f5185e8146103b35780639dc4ac8a146103c85780639e5940cc1461042d5780639e9188ea1461045d578063c9907b081461049057610166565b80633f1f44b0116101235780633f1f44b01461027c5780634520ca75146102a657806351cc21ac146102bb57806362f11797146102e55780636cbfd71f1461032e578063748365ef1461037457610166565b8063182a75061461016b5780631a7626e7146101975780631f2570c5146101be578063211e28b6146101d35780632915cbec146101ff5780632ed4f57814610252575b600080fd5b34801561017757600080fd5b506101956004803603602081101561018e57600080fd5b503561062d565b005b3480156101a357600080fd5b506101ac6106e4565b60408051918252519081900360200190f35b3480156101ca57600080fd5b506101ac6106ea565b3480156101df57600080fd5b50610195600480360360208110156101f657600080fd5b503515156106f0565b34801561020b57600080fd5b506102326004803603602081101561022257600080fd5b50356001600160a01b03166107c0565b604080519315158452602084019290925282820152519081900360600190f35b34801561025e57600080fd5b506101ac6004803603602081101561027557600080fd5b50356107e6565b34801561028857600080fd5b506101956004803603602081101561029f57600080fd5b50356107f8565b3480156102b257600080fd5b506101ac6108f0565b3480156102c757600080fd5b50610195600480360360208110156102de57600080fd5b50356108f6565b3480156102f157600080fd5b506101956004803603608081101561030857600080fd5b506001600160a01b03813581169160208101359091169060408101359060600135610aba565b34801561033a57600080fd5b506103586004803603602081101561035157600080fd5b5035610b70565b604080516001600160a01b039092168252519081900360200190f35b34801561038057600080fd5b50610358610b8b565b34801561039557600080fd5b50610358600480360360208110156103ac57600080fd5b5035610b9a565b3480156103bf57600080fd5b506101ac610bc1565b3480156103d457600080fd5b506103dd610bc7565b60408051602080825283518183015283519192839290830191858101910280838360005b83811015610419578181015183820152602001610401565b505050509050019250505060405180910390f35b34801561043957600080fd5b506101956004803603604081101561045057600080fd5b5080359060200135610c29565b34801561046957600080fd5b506101956004803603602081101561048057600080fd5b50356001600160a01b0316610d6b565b34801561049c57600080fd5b50610358610e52565b3480156104b157600080fd5b506104ba610e61565b604080519115158252519081900360200190f35b3480156104da57600080fd5b50610195600480360360208110156104f157600080fd5b50356001600160a01b0316610e71565b34801561050d57600080fd5b506101ac6004803603602081101561052457600080fd5b50356001600160a01b031661112b565b6103586004803603606081101561054a57600080fd5b8135916001600160a01b036020820135169181019060608101604082013564010000000081111561057a57600080fd5b82018360208201111561058c57600080fd5b803590602001918460018302840111640100000000831117156105ae57600080fd5b509092509050611146565b3480156105c557600080fd5b506101ac6111e8565b3480156105da57600080fd5b506104ba600480360360208110156105f157600080fd5b50356001600160a01b031661120c565b6103586004803603604081101561061757600080fd5b50803590602001356001600160a01b03166112b2565b6000546040805163c395fcb360e01b815233600482015290516001600160a01b039092169163c395fcb391602480820192602092909190829003018186803b15801561067857600080fd5b505afa15801561068c573d6000803e3d6000fd5b505050506040513d60208110156106a257600080fd5b50516106df5760405162461bcd60e51b81526004018080602001828103825260288152602001806117726028913960400191505060405180910390fd5b600755565b60075481565b60035481565b6000546040805163c395fcb360e01b815233600482015290516001600160a01b039092169163c395fcb391602480820192602092909190829003018186803b15801561073b57600080fd5b505afa15801561074f573d6000803e3d6000fd5b505050506040513d602081101561076557600080fd5b50516107a25760405162461bcd60e51b815260040180806020018281038252602581526020018061174d6025913960400191505060405180910390fd5b60008054911515600160a81b0260ff60a81b19909216919091179055565b600160208190526000918252604090912080549181015460029091015460ff9092169183565b60066020526000908152604090205481565b6000546040805163c395fcb360e01b815233600482015290516001600160a01b039092169163c395fcb391602480820192602092909190829003018186803b15801561084357600080fd5b505afa158015610857573d6000803e3d6000fd5b505050506040513d602081101561086d57600080fd5b50516108aa5760405162461bcd60e51b81526004018080602001828103825260288152602001806117726028913960400191505060405180910390fd5b6103e88111156108eb5760405162461bcd60e51b81526004018080602001828103825260288152602001806117256028913960400191505060405180910390fd5b600855565b60085481565b6000546040805163c395fcb360e01b815233600482015290516001600160a01b039092169163c395fcb391602480820192602092909190829003018186803b15801561094157600080fd5b505afa158015610955573d6000803e3d6000fd5b505050506040513d602081101561096b57600080fd5b5051806109eb575060005460408051637e271f0560e11b815233600482015290516001600160a01b039092169163fc4e3e0a91602480820192602092909190829003018186803b1580156109be57600080fd5b505afa1580156109d2573d6000803e3d6000fd5b505050506040513d60208110156109e857600080fd5b50515b610a265760405162461bcd60e51b81526004018080602001828103825260288152602001806117726028913960400191505060405180910390fd5b6000818152600460205260409020546001600160a01b0316610a4757600080fd5b600081815260046020908152604080832080546001600160a01b031981169091556001600160a01b03168084526005835281842093909355805183815291820184905280517f628bd92bbb6002112d3590cfe31c722f97503016b138490288be605a074d91e49281900390910190a15050565b600054600160a01b900460ff1615610ad157600080fd5b6001600160a01b038316610ae457600080fd5b60008054600980546001600160a01b038088166001600160a01b0319928316179092556007869055600885905590871660ff60a01b1960ff60a81b19909316600160a81b1792909216600160a01b17161790556040805133815290517f3f4578db4b3ac464602aae2d3348528a51ef25128a09f4860119a11dc301ec459181900360200190a150505050565b6000908152600460205260409020546001600160a01b031690565b6000546001600160a01b031681565b60028181548110610ba757fe5b6000918252602090912001546001600160a01b0316905081565b60025490565b60606002805480602002602001604051908101604052809291908181526020018280548015610c1f57602002820191906000526020600020905b81546001600160a01b03168152600190910190602001808311610c01575b5050505050905090565b6000546040805163c395fcb360e01b815233600482015290516001600160a01b039092169163c395fcb391602480820192602092909190829003018186803b158015610c7457600080fd5b505afa158015610c88573d6000803e3d6000fd5b505050506040513d6020811015610c9e57600080fd5b505180610d1e575060005460408051637e271f0560e11b815233600482015290516001600160a01b039092169163fc4e3e0a91602480820192602092909190829003018186803b158015610cf157600080fd5b505afa158015610d05573d6000803e3d6000fd5b505050506040513d6020811015610d1b57600080fd5b50515b610d595760405162461bcd60e51b815260040180806020018281038252602581526020018061174d6025913960400191505060405180910390fd5b60009182526006602052604090912055565b6000546040805163c395fcb360e01b815233600482015290516001600160a01b039092169163c395fcb391602480820192602092909190829003018186803b158015610db657600080fd5b505afa158015610dca573d6000803e3d6000fd5b505050506040513d6020811015610de057600080fd5b5051610e1d5760405162461bcd60e51b81526004018080602001828103825260288152602001806117726028913960400191505060405180910390fd5b6001600160a01b038116610e3057600080fd5b600980546001600160a01b0319166001600160a01b0392909216919091179055565b6009546001600160a01b031681565b600054600160a81b900460ff1681565b6000546040805163c395fcb360e01b815233600482015290516001600160a01b039092169163c395fcb391602480820192602092909190829003018186803b158015610ebc57600080fd5b505afa158015610ed0573d6000803e3d6000fd5b505050506040513d6020811015610ee657600080fd5b505180610f66575060005460408051637e271f0560e11b815233600482015290516001600160a01b039092169163fc4e3e0a91602480820192602092909190829003018186803b158015610f3957600080fd5b505afa158015610f4d573d6000803e3d6000fd5b505050506040513d6020811015610f6357600080fd5b50515b610fa15760405162461bcd60e51b81526004018080602001828103825260288152602001806117726028913960400191505060405180910390fd5b6001600160a01b03811660009081526005602052604090205415610ff65760405162461bcd60e51b81526004018080602001828103825260278152602001806116fe6027913960400191505060405180910390fd5b6000816001600160a01b0316632c77f6566040518163ffffffff1660e01b815260040160206040518083038186803b15801561103157600080fd5b505afa158015611045573d6000803e3d6000fd5b505050506040513d602081101561105b57600080fd5b505190508061109b5760405162461bcd60e51b81526004018080602001828103825260298152602001806116776029913960400191505060405180910390fd5b60038054600101808255600090815260046020908152604080832080546001600160a01b0319166001600160a01b038816908117909155935484845260058352818420819055858452600683529281902083905580519384529083019190915280517fb397ea829c3dad5af04b9f5976e06a3a011d99ca1caa5b41515196c894a0be5b9281900390910190a15050565b6001600160a01b031660009081526005602052604090205490565b600061115285856112b2565b60405163824fa82160e01b8152602060048201908152602482018590529192506001600160a01b0383169163824fa82191869186918190604401848480828437600081840152601f19601f8201169050808301925050509350505050600060405180830381600087803b1580156111c857600080fd5b505af11580156111dc573d6000803e3d6000fd5b50505050949350505050565b7f53570b66c9642abfc1b1b74ee3dff9b6aeb7638291a5983f7881f58149d86cd781565b6000805460408051632474521560e21b81527f53570b66c9642abfc1b1b74ee3dff9b6aeb7638291a5983f7881f58149d86cd760048201526001600160a01b038581166024830152915191909216916391d14854916044808301926020929190829003018186803b15801561128057600080fd5b505afa158015611294573d6000803e3d6000fd5b505050506040513d60208110156112aa57600080fd5b505192915050565b60008054600160a81b900460ff1615611404576000546040805163c395fcb360e01b815233600482015290516001600160a01b039092169163c395fcb391602480820192602092909190829003018186803b15801561131057600080fd5b505afa158015611324573d6000803e3d6000fd5b505050506040513d602081101561133a57600080fd5b5051806113ba57506000546040805163099db01760e01b815233600482015290516001600160a01b039092169163099db01791602480820192602092909190829003018186803b15801561138d57600080fd5b505afa1580156113a1573d6000803e3d6000fd5b505050506040513d60208110156113b757600080fd5b50515b806113c957506113c93361120c565b6114045760405162461bcd60e51b81526004018080602001828103825260308152602001806116ce6030913960400191505060405180910390fd5b6007543410156114455760405162461bcd60e51b815260040180806020018281038252602e8152602001806116a0602e913960400191505060405180910390fd5b6000838152600460205260409020546001600160a01b031661146657600080fd5b6000346001600160a01b0384161580159061148f57506009546001600160a01b03858116911614155b156114aa576103e86008548202816114a357fe5b0491508190035b6000858152600460205260409020546114cb906001600160a01b0316611624565b60408051606081018252600180825260208083018a8152600280548587019081526001600160a01b0388811660008181528787528981209851895460ff191690151517895594518888015591519683019690965581549485019091557f405787fa12a823e0f2b7631cc41b3ba8828b3321ca811111fa75cd3aa3bb5ace90930180546001600160a01b031916841790558a8152600482528490205484519316835292519396509233927f6e766a2e8ac6e7ecbc0956ba73fdf9e546312daf00a15a6817b8ca66159bd7ab928290030190a380156115de576009546040516001600160a01b039091169082156108fc029083906000818181858888f193505050501580156115dc573d6000803e3d6000fd5b505b811561161c576040516001600160a01b0385169083156108fc029084906000818181858888f1935050505015801561161a573d6000803e3d6000fd5b505b505092915050565b6000808260601b9050604051733d602d80600a3d3981f3363d3d373d3d3d363d7360601b81528160148201526e5af43d82803e903d91602b57fd5bf360881b60288201526037816000f094935050505056fe4d49534f4661726d466163746f72793a20496e636f72726563742074656d706c61746520636f6465204d49534f4661726d466163746f72793a204661696c656420746f207472616e73666572206d696e696d756d4665654d49534f4661726d466163746f72793a2053656e646572206d757374206265206d696e746572206966206c6f636b65644d49534f4661726d466163746f72793a2054656d706c61746520616c72656164792061646465644d49534f4661726d466163746f72793a2052616e67652069732066726f6d203020746f20313030304d49534f4661726d466163746f72793a2053656e646572206d7573742062652061646d696e4d49534f4661726d466163746f72793a2053656e646572206d757374206265206f70657261746f72a264697066735822122065c4ccec1ccde2df7e6e4101180645289981ec73d2548d7884d69febaa1da93d64736f6c634300060c0033",
  "devdoc": {
    "kind": "dev",
    "methods": {
      "addFarmTemplate(address)": {
        "details": "Should have operator access.",
        "params": {
          "_template": "Farm template address to create a farm."
        }
      },
      "createFarm(uint256,address,bytes)": {
        "details": "Initializes farm with the parameters passed.",
        "params": {
          "_data": "Data to be passed to the farm contract for init.",
          "_integratorFeeAccount": "Address to pay the fee to.",
          "_templateId": "Template id of the farm to create."
        },
        "returns": {
          "farm": "address."
        }
      },
      "deployFarm(uint256,address)": {
        "params": {
          "_integratorFeeAccount": "Address to pay the fee to.",
          "_templateId": "Template id of the farm to create."
        },
        "returns": {
          "farm": "address."
        }
      },
      "getFarmTemplate(uint256)": {
        "params": {
          "_farmTemplate": "Farm template ID."
        },
        "returns": {
          "_0": "Address of the required template ID."
        }
      },
      "getFarms()": {
        "returns": {
          "_0": "created farms."
        }
      },
      "getTemplateId(address)": {
        "params": {
          "_farmTemplate": "Farm template address."
        },
        "returns": {
          "_0": "ID of the required template address."
        }
      },
      "hasFarmMinterRole(address)": {
        "params": {
          "_address": "EOA or contract being checked"
        },
        "returns": {
          "_0": "bool True if the account has the role or false if it does not"
        }
      },
      "initMISOFarmFactory(address,address,uint256,uint256)": {
        "details": "Can only be initialized once",
        "params": {
          "_accessControls": "Sets address to get the access controls from.",
          "_integratorFeePct": "Fee to UI integration",
          "_minimumFee": "Sets a minimum fee for creating farm in the factory.",
          "_misoDiv": "Sets address to send the dividends."
        }
      },
      "numberOfFarms()": {
        "returns": {
          "_0": "Farms count."
        }
      },
      "removeFarmTemplate(uint256)": {
        "details": "Should have operator access.",
        "params": {
          "_templateId": "Refers to template ID that is to be deleted."
        }
      },
      "setCurrentTemplateId(uint256,uint256)": {
        "params": {
          "_templateId": "The ID of the current template for that type",
          "_templateType": "Type of template."
        }
      },
      "setDividends(address)": {
        "params": {
          "_divaddr": "Dividend address."
        }
      },
      "setIntegratorFeePct(uint256)": {
        "params": {
          "_amount": "Percentage amount."
        }
      },
      "setLocked(bool)": {
        "params": {
          "_locked": "bool."
        }
      },
      "setMinimumFee(uint256)": {
        "params": {
          "_amount": "Fee amount."
        }
      }
    },
    "version": 1
  },
  "userdoc": {
    "events": {
      "FarmCreated(address,address,address)": {
        "notice": "Event emitted when a farm is created using template id."
      },
      "FarmTemplateAdded(address,uint256)": {
        "notice": "Event emitted when farm template is added to factory."
      },
      "FarmTemplateRemoved(address,uint256)": {
        "notice": "Event emitted when farm template is removed."
      },
      "MisoInitFarmFactory(address)": {
        "notice": "Event emitted when first initializing the Miso Farm Factory."
      }
    },
    "kind": "user",
    "methods": {
      "accessControls()": {
        "notice": "Responsible for access rights to the contract."
      },
      "addFarmTemplate(address)": {
        "notice": "Function to add a farm template to create through factory."
      },
      "createFarm(uint256,address,bytes)": {
        "notice": "Creates a farm corresponding to the _templateId."
      },
      "deployFarm(uint256,address)": {
        "notice": "Deploys a farm corresponding to the _templateId and transfers fees."
      },
      "farmInfo(address)": {
        "notice": "Mapping from auction created through this contract to Auction struct."
      },
      "farmTemplateId()": {
        "notice": "Template id to track respective farm template."
      },
      "farms(uint256)": {
        "notice": "Farms created using the factory."
      },
      "getFarmTemplate(uint256)": {
        "notice": "Get the address based on template ID."
      },
      "getFarms()": {
        "notice": "Get all farm created in the factory."
      },
      "getTemplateId(address)": {
        "notice": "Get the ID based on template address."
      },
      "hasFarmMinterRole(address)": {
        "notice": "Used to check whether an address has the minter role"
      },
      "initMISOFarmFactory(address,address,uint256,uint256)": {
        "notice": "Single gateway to initialize the MISO Farm factory with proper address."
      },
      "locked()": {
        "notice": "Contract locked status. If locked, only minters can deploy"
      },
      "minimumFee()": {
        "notice": "Minimum fee to create a farm through the factory."
      },
      "misoDiv()": {
        "notice": "Any MISO dividends collected are sent here."
      },
      "numberOfFarms()": {
        "notice": "Get the total number of farms in the factory."
      },
      "removeFarmTemplate(uint256)": {
        "notice": "Function to remove a farm template."
      },
      "setCurrentTemplateId(uint256,uint256)": {
        "notice": "Sets the current template ID for any type."
      },
      "setDividends(address)": {
        "notice": "Sets dividend address."
      },
      "setIntegratorFeePct(uint256)": {
        "notice": "Sets integrator fee percentage."
      },
      "setLocked(bool)": {
        "notice": "Sets the factory to be locked or unlocked."
      },
      "setMinimumFee(uint256)": {
        "notice": "Sets the minimum fee."
      }
    },
    "version": 1
  },
  "storageLayout": {
    "storage": [
      {
        "astId": 11644,
        "contract": "contracts/MISOFarmFactory.sol:MISOFarmFactory",
        "label": "accessControls",
        "offset": 0,
        "slot": "0",
        "type": "t_contract(MISOAccessControls)563"
      },
      {
        "astId": 11652,
        "contract": "contracts/MISOFarmFactory.sol:MISOFarmFactory",
        "label": "initialised",
        "offset": 20,
        "slot": "0",
        "type": "t_bool"
      },
      {
        "astId": 11655,
        "contract": "contracts/MISOFarmFactory.sol:MISOFarmFactory",
        "label": "locked",
        "offset": 21,
        "slot": "0",
        "type": "t_bool"
      },
      {
        "astId": 11667,
        "contract": "contracts/MISOFarmFactory.sol:MISOFarmFactory",
        "label": "farmInfo",
        "offset": 0,
        "slot": "1",
        "type": "t_mapping(t_address,t_struct(Farm)11662_storage)"
      },
      {
        "astId": 11671,
        "contract": "contracts/MISOFarmFactory.sol:MISOFarmFactory",
        "label": "farms",
        "offset": 0,
        "slot": "2",
        "type": "t_array(t_address)dyn_storage"
      },
      {
        "astId": 11674,
        "contract": "contracts/MISOFarmFactory.sol:MISOFarmFactory",
        "label": "farmTemplateId",
        "offset": 0,
        "slot": "3",
        "type": "t_uint256"
      },
      {
        "astId": 11679,
        "contract": "contracts/MISOFarmFactory.sol:MISOFarmFactory",
        "label": "farmTemplates",
        "offset": 0,
        "slot": "4",
        "type": "t_mapping(t_uint256,t_address)"
      },
      {
        "astId": 11684,
        "contract": "contracts/MISOFarmFactory.sol:MISOFarmFactory",
        "label": "farmTemplateToId",
        "offset": 0,
        "slot": "5",
        "type": "t_mapping(t_address,t_uint256)"
      },
      {
        "astId": 11688,
        "contract": "contracts/MISOFarmFactory.sol:MISOFarmFactory",
        "label": "currentTemplateId",
        "offset": 0,
        "slot": "6",
        "type": "t_mapping(t_uint256,t_uint256)"
      },
      {
        "astId": 11691,
        "contract": "contracts/MISOFarmFactory.sol:MISOFarmFactory",
        "label": "minimumFee",
        "offset": 0,
        "slot": "7",
        "type": "t_uint256"
      },
      {
        "astId": 11693,
        "contract": "contracts/MISOFarmFactory.sol:MISOFarmFactory",
        "label": "integratorFeePct",
        "offset": 0,
        "slot": "8",
        "type": "t_uint256"
      },
      {
        "astId": 11696,
        "contract": "contracts/MISOFarmFactory.sol:MISOFarmFactory",
        "label": "misoDiv",
        "offset": 0,
        "slot": "9",
        "type": "t_address_payable"
      }
    ],
    "types": {
      "t_address": {
        "encoding": "inplace",
        "label": "address",
        "numberOfBytes": "20"
      },
      "t_address_payable": {
        "encoding": "inplace",
        "label": "address payable",
        "numberOfBytes": "20"
      },
      "t_array(t_address)dyn_storage": {
        "base": "t_address",
        "encoding": "dynamic_array",
        "label": "address[]",
        "numberOfBytes": "32"
      },
      "t_bool": {
        "encoding": "inplace",
        "label": "bool",
        "numberOfBytes": "1"
      },
      "t_contract(MISOAccessControls)563": {
        "encoding": "inplace",
        "label": "contract MISOAccessControls",
        "numberOfBytes": "20"
      },
      "t_mapping(t_address,t_struct(Farm)11662_storage)": {
        "encoding": "mapping",
        "key": "t_address",
        "label": "mapping(address => struct MISOFarmFactory.Farm)",
        "numberOfBytes": "32",
        "value": "t_struct(Farm)11662_storage"
      },
      "t_mapping(t_address,t_uint256)": {
        "encoding": "mapping",
        "key": "t_address",
        "label": "mapping(address => uint256)",
        "numberOfBytes": "32",
        "value": "t_uint256"
      },
      "t_mapping(t_uint256,t_address)": {
        "encoding": "mapping",
        "key": "t_uint256",
        "label": "mapping(uint256 => address)",
        "numberOfBytes": "32",
        "value": "t_address"
      },
      "t_mapping(t_uint256,t_uint256)": {
        "encoding": "mapping",
        "key": "t_uint256",
        "label": "mapping(uint256 => uint256)",
        "numberOfBytes": "32",
        "value": "t_uint256"
      },
      "t_struct(Farm)11662_storage": {
        "encoding": "inplace",
        "label": "struct MISOFarmFactory.Farm",
        "members": [
          {
            "astId": 11657,
            "contract": "contracts/MISOFarmFactory.sol:MISOFarmFactory",
            "label": "exists",
            "offset": 0,
            "slot": "0",
            "type": "t_bool"
          },
          {
            "astId": 11659,
            "contract": "contracts/MISOFarmFactory.sol:MISOFarmFactory",
            "label": "templateId",
            "offset": 0,
            "slot": "1",
            "type": "t_uint256"
          },
          {
            "astId": 11661,
            "contract": "contracts/MISOFarmFactory.sol:MISOFarmFactory",
            "label": "index",
            "offset": 0,
            "slot": "2",
            "type": "t_uint256"
          }
        ],
        "numberOfBytes": "96"
      },
      "t_uint256": {
        "encoding": "inplace",
        "label": "uint256",
        "numberOfBytes": "32"
      }
    }
  }
}