{
  "address": "0x1eC9e6f1aDF139A41B94d2590078103f7b8a09DD",
  "abi": [
    {
      "inputs": [],
      "stateMutability": "nonpayable",
      "type": "constructor"
    },
    {
      "anonymous": false,
      "inputs": [
        {
          "indexed": false,
          "internalType": "address",
          "name": "sender",
          "type": "address"
        }
      ],
      "name": "MisoInitTokenFactory",
      "type": "event"
    },
    {
      "anonymous": false,
      "inputs": [
        {
          "indexed": true,
          "internalType": "address",
          "name": "owner",
          "type": "address"
        },
        {
          "indexed": true,
          "internalType": "address",
          "name": "addr",
          "type": "address"
        },
        {
          "indexed": false,
          "internalType": "address",
          "name": "tokenTemplate",
          "type": "address"
        }
      ],
      "name": "TokenCreated",
      "type": "event"
    },
    {
      "anonymous": false,
      "inputs": [
        {
          "indexed": true,
          "internalType": "address",
          "name": "addr",
          "type": "address"
        },
        {
          "indexed": false,
          "internalType": "uint256",
          "name": "templateId",
          "type": "uint256"
        },
        {
          "indexed": false,
          "internalType": "bytes",
          "name": "data",
          "type": "bytes"
        }
      ],
      "name": "TokenInitialized",
      "type": "event"
    },
    {
      "anonymous": false,
      "inputs": [
        {
          "indexed": false,
          "internalType": "address",
          "name": "newToken",
          "type": "address"
        },
        {
          "indexed": false,
          "internalType": "uint256",
          "name": "templateId",
          "type": "uint256"
        }
      ],
      "name": "TokenTemplateAdded",
      "type": "event"
    },
    {
      "anonymous": false,
      "inputs": [
        {
          "indexed": false,
          "internalType": "address",
          "name": "token",
          "type": "address"
        },
        {
          "indexed": false,
          "internalType": "uint256",
          "name": "templateId",
          "type": "uint256"
        }
      ],
      "name": "TokenTemplateRemoved",
      "type": "event"
    },
    {
      "inputs": [],
      "name": "TOKEN_MINTER_ROLE",
      "outputs": [
        {
          "internalType": "bytes32",
          "name": "",
          "type": "bytes32"
        }
      ],
      "stateMutability": "view",
      "type": "function"
    },
    {
      "inputs": [],
      "name": "accessControls",
      "outputs": [
        {
          "internalType": "contract MISOAccessControls",
          "name": "",
          "type": "address"
        }
      ],
      "stateMutability": "view",
      "type": "function"
    },
    {
      "inputs": [
        {
          "internalType": "address",
          "name": "_template",
          "type": "address"
        }
      ],
      "name": "addTokenTemplate",
      "outputs": [],
      "stateMutability": "nonpayable",
      "type": "function"
    },
    {
      "inputs": [
        {
          "internalType": "uint256",
          "name": "_templateId",
          "type": "uint256"
        },
        {
          "internalType": "address payable",
          "name": "_integratorFeeAccount",
          "type": "address"
        },
        {
          "internalType": "bytes",
          "name": "_data",
          "type": "bytes"
        }
      ],
      "name": "createToken",
      "outputs": [
        {
          "internalType": "address",
          "name": "token",
          "type": "address"
        }
      ],
      "stateMutability": "payable",
      "type": "function"
    },
    {
      "inputs": [
        {
          "internalType": "uint256",
          "name": "",
          "type": "uint256"
        }
      ],
      "name": "currentTemplateId",
      "outputs": [
        {
          "internalType": "uint256",
          "name": "",
          "type": "uint256"
        }
      ],
      "stateMutability": "view",
      "type": "function"
    },
    {
      "inputs": [
        {
          "internalType": "uint256",
          "name": "_templateId",
          "type": "uint256"
        },
        {
          "internalType": "address payable",
          "name": "_integratorFeeAccount",
          "type": "address"
        }
      ],
      "name": "deployToken",
      "outputs": [
        {
          "internalType": "address",
          "name": "token",
          "type": "address"
        }
      ],
      "stateMutability": "payable",
      "type": "function"
    },
    {
      "inputs": [
        {
          "internalType": "address",
          "name": "_tokenTemplate",
          "type": "address"
        }
      ],
      "name": "getTemplateId",
      "outputs": [
        {
          "internalType": "uint256",
          "name": "",
          "type": "uint256"
        }
      ],
      "stateMutability": "view",
      "type": "function"
    },
    {
      "inputs": [
        {
          "internalType": "uint256",
          "name": "_templateId",
          "type": "uint256"
        }
      ],
      "name": "getTokenTemplate",
      "outputs": [
        {
          "internalType": "address",
          "name": "",
          "type": "address"
        }
      ],
      "stateMutability": "view",
      "type": "function"
    },
    {
      "inputs": [],
      "name": "getTokens",
      "outputs": [
        {
          "internalType": "address[]",
          "name": "",
          "type": "address[]"
        }
      ],
      "stateMutability": "view",
      "type": "function"
    },
    {
      "inputs": [
        {
          "internalType": "address",
          "name": "_address",
          "type": "address"
        }
      ],
      "name": "hasTokenMinterRole",
      "outputs": [
        {
          "internalType": "bool",
          "name": "",
          "type": "bool"
        }
      ],
      "stateMutability": "view",
      "type": "function"
    },
    {
      "inputs": [
        {
          "internalType": "address",
          "name": "_accessControls",
          "type": "address"
        }
      ],
      "name": "initMISOTokenFactory",
      "outputs": [],
      "stateMutability": "nonpayable",
      "type": "function"
    },
    {
      "inputs": [],
      "name": "integratorFeePct",
      "outputs": [
        {
          "internalType": "uint256",
          "name": "",
          "type": "uint256"
        }
      ],
      "stateMutability": "view",
      "type": "function"
    },
    {
      "inputs": [],
      "name": "locked",
      "outputs": [
        {
          "internalType": "bool",
          "name": "",
          "type": "bool"
        }
      ],
      "stateMutability": "view",
      "type": "function"
    },
    {
      "inputs": [],
      "name": "minimumFee",
      "outputs": [
        {
          "internalType": "uint256",
          "name": "",
          "type": "uint256"
        }
      ],
      "stateMutability": "view",
      "type": "function"
    },
    {
      "inputs": [],
      "name": "misoDiv",
      "outputs": [
        {
          "internalType": "address payable",
          "name": "",
          "type": "address"
        }
      ],
      "stateMutability": "view",
      "type": "function"
    },
    {
      "inputs": [],
      "name": "numberOfTokens",
      "outputs": [
        {
          "internalType": "uint256",
          "name": "",
          "type": "uint256"
        }
      ],
      "stateMutability": "view",
      "type": "function"
    },
    {
      "inputs": [
        {
          "internalType": "uint256",
          "name": "_templateId",
          "type": "uint256"
        }
      ],
      "name": "removeTokenTemplate",
      "outputs": [],
      "stateMutability": "nonpayable",
      "type": "function"
    },
    {
      "inputs": [
        {
          "internalType": "uint256",
          "name": "_templateType",
          "type": "uint256"
        },
        {
          "internalType": "uint256",
          "name": "_templateId",
          "type": "uint256"
        }
      ],
      "name": "setCurrentTemplateId",
      "outputs": [],
      "stateMutability": "nonpayable",
      "type": "function"
    },
    {
      "inputs": [
        {
          "internalType": "address payable",
          "name": "_divaddr",
          "type": "address"
        }
      ],
      "name": "setDividends",
      "outputs": [],
      "stateMutability": "nonpayable",
      "type": "function"
    },
    {
      "inputs": [
        {
          "internalType": "uint256",
          "name": "_amount",
          "type": "uint256"
        }
      ],
      "name": "setIntegratorFeePct",
      "outputs": [],
      "stateMutability": "nonpayable",
      "type": "function"
    },
    {
      "inputs": [
        {
          "internalType": "bool",
          "name": "_locked",
          "type": "bool"
        }
      ],
      "name": "setLocked",
      "outputs": [],
      "stateMutability": "nonpayable",
      "type": "function"
    },
    {
      "inputs": [
        {
          "internalType": "uint256",
          "name": "_amount",
          "type": "uint256"
        }
      ],
      "name": "setMinimumFee",
      "outputs": [],
      "stateMutability": "nonpayable",
      "type": "function"
    },
    {
      "inputs": [
        {
          "internalType": "address",
          "name": "",
          "type": "address"
        }
      ],
      "name": "tokenInfo",
      "outputs": [
        {
          "internalType": "bool",
          "name": "exists",
          "type": "bool"
        },
        {
          "internalType": "uint256",
          "name": "templateId",
          "type": "uint256"
        },
        {
          "internalType": "uint256",
          "name": "index",
          "type": "uint256"
        }
      ],
      "stateMutability": "view",
      "type": "function"
    },
    {
      "inputs": [],
      "name": "tokenTemplateId",
      "outputs": [
        {
          "internalType": "uint256",
          "name": "",
          "type": "uint256"
        }
      ],
      "stateMutability": "view",
      "type": "function"
    },
    {
      "inputs": [
        {
          "internalType": "uint256",
          "name": "",
          "type": "uint256"
        }
      ],
      "name": "tokens",
      "outputs": [
        {
          "internalType": "address",
          "name": "",
          "type": "address"
        }
      ],
      "stateMutability": "view",
      "type": "function"
    }
  ],
  "transactionHash": "0x9156d12b4fa137d9243ab3785471fcbd93bed19aa07ba678d767f6a22368a3ba",
  "args": [],
  "solcInputHash": "d1b4fa5f316a6a8ee3524e1600e2925f",
  "bytecode": "0x608060405234801561001057600080fd5b50611952806100206000396000f3fe6080604052600436106101665760003560e01c8063748365ef116100d1578063ad8ff6691161008a578063cf30901211610064578063cf30901214610567578063d335ebda1461057c578063f5dab711146105af578063f9f16ef21461060257610166565b8063ad8ff669146104f5578063b3c9315114610528578063c9907b081461055257610166565b8063748365ef146103605780637b20bccf14610375578063870837d7146103a85780639e5940cc1461042d5780639e9188ea1461045d578063aa6ca8081461049057610166565b8063361dbb4a11610123578063361dbb4a146102865780633f1f44b0146102cd57806343efca82146102f75780634520ca751461030c5780634f64b2be14610321578063512b336d1461034b57610166565b8063042ab9b31461016b5780630bf18f85146101b1578063182a7506146101dd5780631a7626e714610209578063211e28b6146102305780632ed4f5781461025c575b600080fd5b34801561017757600080fd5b506101956004803603602081101561018e57600080fd5b5035610617565b604080516001600160a01b039092168252519081900360200190f35b610195600480360360408110156101c757600080fd5b50803590602001356001600160a01b0316610632565b3480156101e957600080fd5b506102076004803603602081101561020057600080fd5b50356109a8565b005b34801561021557600080fd5b5061021e610a5f565b60408051918252519081900360200190f35b34801561023c57600080fd5b506102076004803603602081101561025357600080fd5b50351515610a65565b34801561026857600080fd5b5061021e6004803603602081101561027f57600080fd5b5035610b2a565b34801561029257600080fd5b506102b9600480360360208110156102a957600080fd5b50356001600160a01b0316610b3c565b604080519115158252519081900360200190f35b3480156102d957600080fd5b50610207600480360360208110156102f057600080fd5b5035610be2565b34801561030357600080fd5b5061021e610cda565b34801561031857600080fd5b5061021e610ce0565b34801561032d57600080fd5b506101956004803603602081101561034457600080fd5b5035610ce6565b34801561035757600080fd5b5061021e610d0d565b34801561036c57600080fd5b50610195610d31565b34801561038157600080fd5b506102076004803603602081101561039857600080fd5b50356001600160a01b0316610d40565b610195600480360360608110156103be57600080fd5b8135916001600160a01b03602082013516918101906060810160408201356401000000008111156103ee57600080fd5b82018360208201111561040057600080fd5b8035906020019184600183028401116401000000008311171561042257600080fd5b509092509050610fc8565b34801561043957600080fd5b506102076004803603604081101561045057600080fd5b508035906020013561116a565b34801561046957600080fd5b506102076004803603602081101561048057600080fd5b50356001600160a01b03166112ac565b34801561049c57600080fd5b506104a5611399565b60408051602080825283518183015283519192839290830191858101910280838360005b838110156104e15781810151838201526020016104c9565b505050509050019250505060405180910390f35b34801561050157600080fd5b506102076004803603602081101561051857600080fd5b50356001600160a01b03166113fb565b34801561053457600080fd5b506102076004803603602081101561054b57600080fd5b5035611482565b34801561055e57600080fd5b50610195611646565b34801561057357600080fd5b506102b961165a565b34801561058857600080fd5b5061021e6004803603602081101561059f57600080fd5b50356001600160a01b0316611663565b3480156105bb57600080fd5b506105e2600480360360208110156105d257600080fd5b50356001600160a01b031661167e565b604080519315158452602084019290925282820152519081900360600190f35b34801561060e57600080fd5b5061021e6116a4565b6000908152600460205260409020546001600160a01b031690565b60095460009060ff161561077f576000546040805163c395fcb360e01b815233600482015290516001600160a01b039092169163c395fcb391602480820192602092909190829003018186803b15801561068b57600080fd5b505afa15801561069f573d6000803e3d6000fd5b505050506040513d60208110156106b557600080fd5b50518061073557506000546040805163099db01760e01b815233600482015290516001600160a01b039092169163099db01791602480820192602092909190829003018186803b15801561070857600080fd5b505afa15801561071c573d6000803e3d6000fd5b505050506040513d602081101561073257600080fd5b50515b80610744575061074433610b3c565b61077f5760405162461bcd60e51b81526004018080602001828103825260318152602001806118ec6031913960400191505060405180910390fd5b6007543410156107c05760405162461bcd60e51b815260040180806020018281038252602f81526020018061186e602f913960400191505060405180910390fd5b6000838152600460205260409020546001600160a01b03166107e157600080fd5b6000346001600160a01b0384161580159061080f57506009546001600160a01b038581166101009092041614155b1561082a576103e860085482028161082357fe5b0491508190035b60008581526004602052604090205461084b906001600160a01b03166116aa565b60408051606081018252600180825260208083018a8152600280548587019081526001600160a01b0388811660008181528787528981209851895460ff191690151517895594518888015591519683019690965581549485019091557f405787fa12a823e0f2b7631cc41b3ba8828b3321ca811111fa75cd3aa3bb5ace90930180546001600160a01b031916841790558a8152600482528490205484519316835292519396509233927fb5a149b73151b44553ff737ca050c61de65038e2ae67ec044215d3261cc6fa00928290030190a38015610962576009546040516101009091046001600160a01b0316906108fc8315029083906000818181858888f19350505050158015610960573d6000803e3d6000fd5b505b81156109a0576040516001600160a01b0385169083156108fc029084906000818181858888f1935050505015801561099e573d6000803e3d6000fd5b505b505092915050565b6000546040805163c395fcb360e01b815233600482015290516001600160a01b039092169163c395fcb391602480820192602092909190829003018186803b1580156109f357600080fd5b505afa158015610a07573d6000803e3d6000fd5b505050506040513d6020811015610a1d57600080fd5b5051610a5a5760405162461bcd60e51b815260040180806020018281038252602981526020018061181f6029913960400191505060405180910390fd5b600755565b60075481565b6000546040805163c395fcb360e01b815233600482015290516001600160a01b039092169163c395fcb391602480820192602092909190829003018186803b158015610ab057600080fd5b505afa158015610ac4573d6000803e3d6000fd5b505050506040513d6020811015610ada57600080fd5b5051610b175760405162461bcd60e51b81526004018080602001828103825260268152602001806118486026913960400191505060405180910390fd5b6009805460ff1916911515919091179055565b60066020526000908152604090205481565b6000805460408051632474521560e21b81527fb3bb6029312d1001076133d40b75b7eca92ba54e4963b3ce24e1486a3d5a038b60048201526001600160a01b038581166024830152915191909216916391d14854916044808301926020929190829003018186803b158015610bb057600080fd5b505afa158015610bc4573d6000803e3d6000fd5b505050506040513d6020811015610bda57600080fd5b505192915050565b6000546040805163c395fcb360e01b815233600482015290516001600160a01b039092169163c395fcb391602480820192602092909190829003018186803b158015610c2d57600080fd5b505afa158015610c41573d6000803e3d6000fd5b505050506040513d6020811015610c5757600080fd5b5051610c945760405162461bcd60e51b815260040180806020018281038252602981526020018061181f6029913960400191505060405180910390fd5b6103e8811115610cd55760405162461bcd60e51b81526004018080602001828103825260298152602001806118c36029913960400191505060405180910390fd5b600855565b60035481565b60085481565b60028181548110610cf357fe5b6000918252602090912001546001600160a01b0316905081565b7fb3bb6029312d1001076133d40b75b7eca92ba54e4963b3ce24e1486a3d5a038b81565b6000546001600160a01b031681565b6000546040805163c395fcb360e01b815233600482015290516001600160a01b039092169163c395fcb391602480820192602092909190829003018186803b158015610d8b57600080fd5b505afa158015610d9f573d6000803e3d6000fd5b505050506040513d6020811015610db557600080fd5b505180610e35575060005460408051637e271f0560e11b815233600482015290516001600160a01b039092169163fc4e3e0a91602480820192602092909190829003018186803b158015610e0857600080fd5b505afa158015610e1c573d6000803e3d6000fd5b505050506040513d6020811015610e3257600080fd5b50515b610e705760405162461bcd60e51b815260040180806020018281038252602981526020018061181f6029913960400191505060405180910390fd5b6000816001600160a01b0316630814d3dd6040518163ffffffff1660e01b815260040160206040518083038186803b158015610eab57600080fd5b505afa158015610ebf573d6000803e3d6000fd5b505050506040513d6020811015610ed557600080fd5b5051905080610f155760405162461bcd60e51b815260040180806020018281038252602681526020018061189d6026913960400191505060405180910390fd5b6001600160a01b03821660009081526005602052604090205415610f3857600080fd5b60038054600101808255600090815260046020908152604080832080546001600160a01b0319166001600160a01b038816908117909155935484845260058352818420819055858452600683529281902083905580519384529083019190915280517f95595b6ea45697235ed18194d52346c97420d7edf2aa7fc902cb37e25f81962e9281900390910190a15050565b6000806001600160a01b03167fb16d4375f452e77e87811cc8f3549effd92a08a60c760f79ba9e2de067c95e3086858560405180848152602001806020018281038252848482818152602001925080828437600083820152604051601f909101601f1916909201829003965090945050505050a26110468585610632565b60405162c1639960e71b8152602060048201908152602482018590529192506001600160a01b038316916360b1cc8091869186918190604401848480828437600081840152601f19601f8201169050808301925050509350505050600060405180830381600087803b1580156110bb57600080fd5b505af11580156110cf573d6000803e3d6000fd5b505050506000816001600160a01b03166370a08231306040518263ffffffff1660e01b815260040180826001600160a01b0316815260200191505060206040518083038186803b15801561112257600080fd5b505afa158015611136573d6000803e3d6000fd5b505050506040513d602081101561114c57600080fd5b505190508015611161576111618233836116fc565b50949350505050565b6000546040805163c395fcb360e01b815233600482015290516001600160a01b039092169163c395fcb391602480820192602092909190829003018186803b1580156111b557600080fd5b505afa1580156111c9573d6000803e3d6000fd5b505050506040513d60208110156111df57600080fd5b50518061125f575060005460408051637e271f0560e11b815233600482015290516001600160a01b039092169163fc4e3e0a91602480820192602092909190829003018186803b15801561123257600080fd5b505afa158015611246573d6000803e3d6000fd5b505050506040513d602081101561125c57600080fd5b50515b61129a5760405162461bcd60e51b81526004018080602001828103825260268152602001806118486026913960400191505060405180910390fd5b60009182526006602052604090912055565b6000546040805163c395fcb360e01b815233600482015290516001600160a01b039092169163c395fcb391602480820192602092909190829003018186803b1580156112f757600080fd5b505afa15801561130b573d6000803e3d6000fd5b505050506040513d602081101561132157600080fd5b505161135e5760405162461bcd60e51b815260040180806020018281038252602981526020018061181f6029913960400191505060405180910390fd5b6001600160a01b03811661137157600080fd5b600980546001600160a01b0390921661010002610100600160a81b0319909216919091179055565b606060028054806020026020016040519081016040528092919081815260200182805480156113f157602002820191906000526020600020905b81546001600160a01b031681526001909101906020018083116113d3575b5050505050905090565b600054600160a01b900460ff161561141257600080fd5b600080546009805460ff191660011790556001600160a01b0383166001600160a01b031960ff60a01b19909216600160a01b17919091161790556040805133815290517f7baa9936e30f7ec15b3fe4357a0256402fa7ea6780f82e39784f1f27382bd15e9181900360200190a150565b6000546040805163c395fcb360e01b815233600482015290516001600160a01b039092169163c395fcb391602480820192602092909190829003018186803b1580156114cd57600080fd5b505afa1580156114e1573d6000803e3d6000fd5b505050506040513d60208110156114f757600080fd5b505180611577575060005460408051637e271f0560e11b815233600482015290516001600160a01b039092169163fc4e3e0a91602480820192602092909190829003018186803b15801561154a57600080fd5b505afa15801561155e573d6000803e3d6000fd5b505050506040513d602081101561157457600080fd5b50515b6115b25760405162461bcd60e51b815260040180806020018281038252602981526020018061181f6029913960400191505060405180910390fd5b6000818152600460205260409020546001600160a01b03166115d357600080fd5b600081815260046020908152604080832080546001600160a01b031981169091556001600160a01b03168084526005835281842093909355805183815291820184905280517f11eaf16c318162956db9f4f1fc5f7696fabbbf409382c1ddcebfe74b20a92a839281900390910190a15050565b60095461010090046001600160a01b031681565b60095460ff1681565b6001600160a01b031660009081526005602052604090205490565b600160208190526000918252604090912080549181015460029091015460ff9092169183565b60025490565b6000808260601b9050604051733d602d80600a3d3981f3363d3d373d3d3d363d7360601b81528160148201526e5af43d82803e903d91602b57fd5bf360881b60288201526037816000f0949350505050565b604080516001600160a01b038481166024830152604480830185905283518084039091018152606490920183526020820180516001600160e01b031663a9059cbb60e01b178152925182516000946060949389169392918291908083835b602083106117795780518252601f19909201916020918201910161175a565b6001836020036101000a0380198251168184511680821785525050505050509050019150506000604051808303816000865af19150503d80600081146117db576040519150601f19603f3d011682016040523d82523d6000602084013e6117e0565b606091505b509150915081801561180e57508051158061180e575080806020019051602081101561180b57600080fd5b50515b61181757600080fd5b505050505056fe4d49534f546f6b656e466163746f72793a2053656e646572206d757374206265206f70657261746f724d49534f546f6b656e466163746f72793a2053656e646572206d7573742062652061646d696e4d49534f546f6b656e466163746f72793a204661696c656420746f207472616e73666572206d696e696d756d4665654d49534f4c61756e636865723a20496e636f72726563742074656d706c61746520636f6465204d49534f546f6b656e466163746f72793a2052616e67652069732066726f6d203020746f20313030304d49534f546f6b656e466163746f72793a2053656e646572206d757374206265206d696e746572206966206c6f636b6564a2646970667358221220074b6b3d493e90fce0434a4fadb5d82ae2a123dee1a0eb0f5fb1af5690dcfcc064736f6c634300060c0033",
  "devdoc": {
    "kind": "dev",
    "methods": {
      "addTokenTemplate(address)": {
        "details": "Should have operator access.",
        "params": {
          "_template": "Token template to create a token."
        }
      },
      "createToken(uint256,address,bytes)": {
        "details": "Initializes token with parameters passed.",
        "params": {
          "_data": "Data to be passed to the token contract for init.",
          "_integratorFeeAccount": "Address to pay the fee to.",
          "_templateId": "Template id of token to create."
        },
        "returns": {
          "token": "Token address."
        }
      },
      "deployToken(uint256,address)": {
        "details": "Initializes token with parameters passed",
        "params": {
          "_integratorFeeAccount": "Address to pay the fee to.",
          "_templateId": "Template id of token to create."
        },
        "returns": {
          "token": "Token address."
        }
      },
      "getTemplateId(address)": {
        "params": {
          "_tokenTemplate": "Token template address."
        },
        "returns": {
          "_0": "ID of the required template address."
        }
      },
      "getTokenTemplate(uint256)": {
        "params": {
          "_templateId": "Token template ID."
        },
        "returns": {
          "_0": "Address of the required template ID."
        }
      },
      "hasTokenMinterRole(address)": {
        "params": {
          "_address": "EOA or contract being checked"
        },
        "returns": {
          "_0": "bool True if the account has the role or false if it does not"
        }
      },
      "initMISOTokenFactory(address)": {
        "details": "GP: Migrate to the BentoBox."
      },
      "numberOfTokens()": {
        "returns": {
          "_0": "Token count."
        }
      },
      "removeTokenTemplate(uint256)": {
        "details": "Should have operator access.",
        "params": {
          "_templateId": "Refers to template that is to be deleted."
        }
      },
      "setCurrentTemplateId(uint256,uint256)": {
        "params": {
          "_templateId": "The ID of the current template for that type",
          "_templateType": "Type of template."
        }
      },
      "setDividends(address)": {
        "params": {
          "_divaddr": "Dividend address."
        }
      },
      "setIntegratorFeePct(uint256)": {
        "params": {
          "_amount": "Percentage amount."
        }
      },
      "setLocked(bool)": {
        "params": {
          "_locked": "bool."
        }
      },
      "setMinimumFee(uint256)": {
        "params": {
          "_amount": "Fee amount."
        }
      }
    },
    "version": 1
  },
  "userdoc": {
    "events": {
      "MisoInitTokenFactory(address)": {
        "notice": "Event emitted when first initializing Miso Token Factory."
      },
      "TokenCreated(address,address,address)": {
        "notice": "Event emitted when a token is created using template id."
      },
      "TokenInitialized(address,uint256,bytes)": {
        "notice": "event emitted when a token is initialized using template id"
      },
      "TokenTemplateAdded(address,uint256)": {
        "notice": "Event emitted when a token template is added."
      },
      "TokenTemplateRemoved(address,uint256)": {
        "notice": "Event emitted when a token template is removed."
      }
    },
    "kind": "user",
    "methods": {
      "accessControls()": {
        "notice": "Responsible for access rights to the contract"
      },
      "addTokenTemplate(address)": {
        "notice": "Function to add a token template to create through factory."
      },
      "createToken(uint256,address,bytes)": {
        "notice": "Creates a token corresponding to template id."
      },
      "currentTemplateId(uint256)": {
        "notice": "mapping from template type to template id"
      },
      "deployToken(uint256,address)": {
        "notice": "Creates a token corresponding to template id and transfers fees."
      },
      "getTemplateId(address)": {
        "notice": "Get the ID based on template address."
      },
      "getTokenTemplate(uint256)": {
        "notice": "Get the address based on template ID."
      },
      "hasTokenMinterRole(address)": {
        "notice": "Used to check whether an address has the minter role"
      },
      "locked()": {
        "notice": "Contract locked status. If locked, only minters can deploy"
      },
      "minimumFee()": {
        "notice": "Minimum fee to create a token through the factory."
      },
      "misoDiv()": {
        "notice": "Any MISO dividends collected are sent here."
      },
      "numberOfTokens()": {
        "notice": "Get the total number of tokens in the factory."
      },
      "removeTokenTemplate(uint256)": {
        "notice": "Function to remove a token template."
      },
      "setCurrentTemplateId(uint256,uint256)": {
        "notice": "Sets the current template ID for any type."
      },
      "setDividends(address)": {
        "notice": "Sets dividend address."
      },
      "setIntegratorFeePct(uint256)": {
        "notice": "Sets integrator fee percentage."
      },
      "setLocked(bool)": {
        "notice": "Sets the factory to be locked or unlocked."
      },
      "setMinimumFee(uint256)": {
        "notice": "Sets the minimum fee."
      },
      "tokenInfo(address)": {
        "notice": "Mapping from auction address created through this contract to Auction struct."
      },
      "tokenTemplateId()": {
        "notice": "Template id to track respective token template."
      },
      "tokens(uint256)": {
        "notice": "Array of tokens created using the factory."
      }
    },
    "version": 1
  },
  "storageLayout": {
    "storage": [
      {
        "astId": 14253,
        "contract": "contracts/MISOTokenFactory.sol:MISOTokenFactory",
        "label": "accessControls",
        "offset": 0,
        "slot": "0",
        "type": "t_contract(MISOAccessControls)563"
      },
      {
        "astId": 14261,
        "contract": "contracts/MISOTokenFactory.sol:MISOTokenFactory",
        "label": "initialised",
        "offset": 20,
        "slot": "0",
        "type": "t_bool"
      },
      {
        "astId": 14273,
        "contract": "contracts/MISOTokenFactory.sol:MISOTokenFactory",
        "label": "tokenInfo",
        "offset": 0,
        "slot": "1",
        "type": "t_mapping(t_address,t_struct(Token)14268_storage)"
      },
      {
        "astId": 14277,
        "contract": "contracts/MISOTokenFactory.sol:MISOTokenFactory",
        "label": "tokens",
        "offset": 0,
        "slot": "2",
        "type": "t_array(t_address)dyn_storage"
      },
      {
        "astId": 14280,
        "contract": "contracts/MISOTokenFactory.sol:MISOTokenFactory",
        "label": "tokenTemplateId",
        "offset": 0,
        "slot": "3",
        "type": "t_uint256"
      },
      {
        "astId": 14285,
        "contract": "contracts/MISOTokenFactory.sol:MISOTokenFactory",
        "label": "tokenTemplates",
        "offset": 0,
        "slot": "4",
        "type": "t_mapping(t_uint256,t_address)"
      },
      {
        "astId": 14290,
        "contract": "contracts/MISOTokenFactory.sol:MISOTokenFactory",
        "label": "tokenTemplateToId",
        "offset": 0,
        "slot": "5",
        "type": "t_mapping(t_address,t_uint256)"
      },
      {
        "astId": 14295,
        "contract": "contracts/MISOTokenFactory.sol:MISOTokenFactory",
        "label": "currentTemplateId",
        "offset": 0,
        "slot": "6",
        "type": "t_mapping(t_uint256,t_uint256)"
      },
      {
        "astId": 14298,
        "contract": "contracts/MISOTokenFactory.sol:MISOTokenFactory",
        "label": "minimumFee",
        "offset": 0,
        "slot": "7",
        "type": "t_uint256"
      },
      {
        "astId": 14300,
        "contract": "contracts/MISOTokenFactory.sol:MISOTokenFactory",
        "label": "integratorFeePct",
        "offset": 0,
        "slot": "8",
        "type": "t_uint256"
      },
      {
        "astId": 14303,
        "contract": "contracts/MISOTokenFactory.sol:MISOTokenFactory",
        "label": "locked",
        "offset": 0,
        "slot": "9",
        "type": "t_bool"
      },
      {
        "astId": 14306,
        "contract": "contracts/MISOTokenFactory.sol:MISOTokenFactory",
        "label": "misoDiv",
        "offset": 1,
        "slot": "9",
        "type": "t_address_payable"
      }
    ],
    "types": {
      "t_address": {
        "encoding": "inplace",
        "label": "address",
        "numberOfBytes": "20"
      },
      "t_address_payable": {
        "encoding": "inplace",
        "label": "address payable",
        "numberOfBytes": "20"
      },
      "t_array(t_address)dyn_storage": {
        "base": "t_address",
        "encoding": "dynamic_array",
        "label": "address[]",
        "numberOfBytes": "32"
      },
      "t_bool": {
        "encoding": "inplace",
        "label": "bool",
        "numberOfBytes": "1"
      },
      "t_contract(MISOAccessControls)563": {
        "encoding": "inplace",
        "label": "contract MISOAccessControls",
        "numberOfBytes": "20"
      },
      "t_mapping(t_address,t_struct(Token)14268_storage)": {
        "encoding": "mapping",
        "key": "t_address",
        "label": "mapping(address => struct MISOTokenFactory.Token)",
        "numberOfBytes": "32",
        "value": "t_struct(Token)14268_storage"
      },
      "t_mapping(t_address,t_uint256)": {
        "encoding": "mapping",
        "key": "t_address",
        "label": "mapping(address => uint256)",
        "numberOfBytes": "32",
        "value": "t_uint256"
      },
      "t_mapping(t_uint256,t_address)": {
        "encoding": "mapping",
        "key": "t_uint256",
        "label": "mapping(uint256 => address)",
        "numberOfBytes": "32",
        "value": "t_address"
      },
      "t_mapping(t_uint256,t_uint256)": {
        "encoding": "mapping",
        "key": "t_uint256",
        "label": "mapping(uint256 => uint256)",
        "numberOfBytes": "32",
        "value": "t_uint256"
      },
      "t_struct(Token)14268_storage": {
        "encoding": "inplace",
        "label": "struct MISOTokenFactory.Token",
        "members": [
          {
            "astId": 14263,
            "contract": "contracts/MISOTokenFactory.sol:MISOTokenFactory",
            "label": "exists",
            "offset": 0,
            "slot": "0",
            "type": "t_bool"
          },
          {
            "astId": 14265,
            "contract": "contracts/MISOTokenFactory.sol:MISOTokenFactory",
            "label": "templateId",
            "offset": 0,
            "slot": "1",
            "type": "t_uint256"
          },
          {
            "astId": 14267,
            "contract": "contracts/MISOTokenFactory.sol:MISOTokenFactory",
            "label": "index",
            "offset": 0,
            "slot": "2",
            "type": "t_uint256"
          }
        ],
        "numberOfBytes": "96"
      },
      "t_uint256": {
        "encoding": "inplace",
        "label": "uint256",
        "numberOfBytes": "32"
      }
    }
  }
}