{
  "address": "0x54AEf07Ade960BaC28198F1B2135468E45788ac3",
  "abi": [
    {
      "anonymous": false,
      "inputs": [
        {
          "indexed": true,
          "internalType": "address",
          "name": "owner",
          "type": "address"
        },
        {
          "indexed": true,
          "internalType": "address",
          "name": "spender",
          "type": "address"
        },
        {
          "indexed": false,
          "internalType": "uint256",
          "name": "value",
          "type": "uint256"
        }
      ],
      "name": "Approval",
      "type": "event"
    },
    {
      "anonymous": false,
      "inputs": [
        {
          "indexed": true,
          "internalType": "address",
          "name": "delegator",
          "type": "address"
        },
        {
          "indexed": true,
          "internalType": "address",
          "name": "fromDelegate",
          "type": "address"
        },
        {
          "indexed": true,
          "internalType": "address",
          "name": "toDelegate",
          "type": "address"
        }
      ],
      "name": "DelegateChanged",
      "type": "event"
    },
    {
      "anonymous": false,
      "inputs": [
        {
          "indexed": true,
          "internalType": "address",
          "name": "delegate",
          "type": "address"
        },
        {
          "indexed": false,
          "internalType": "uint256",
          "name": "previousBalance",
          "type": "uint256"
        },
        {
          "indexed": false,
          "internalType": "uint256",
          "name": "newBalance",
          "type": "uint256"
        }
      ],
      "name": "DelegateVotesChanged",
      "type": "event"
    },
    {
      "anonymous": false,
      "inputs": [
        {
          "indexed": true,
          "internalType": "bytes32",
          "name": "role",
          "type": "bytes32"
        },
        {
          "indexed": true,
          "internalType": "bytes32",
          "name": "previousAdminRole",
          "type": "bytes32"
        },
        {
          "indexed": true,
          "internalType": "bytes32",
          "name": "newAdminRole",
          "type": "bytes32"
        }
      ],
      "name": "RoleAdminChanged",
      "type": "event"
    },
    {
      "anonymous": false,
      "inputs": [
        {
          "indexed": true,
          "internalType": "bytes32",
          "name": "role",
          "type": "bytes32"
        },
        {
          "indexed": true,
          "internalType": "address",
          "name": "account",
          "type": "address"
        },
        {
          "indexed": true,
          "internalType": "address",
          "name": "sender",
          "type": "address"
        }
      ],
      "name": "RoleGranted",
      "type": "event"
    },
    {
      "anonymous": false,
      "inputs": [
        {
          "indexed": true,
          "internalType": "bytes32",
          "name": "role",
          "type": "bytes32"
        },
        {
          "indexed": true,
          "internalType": "address",
          "name": "account",
          "type": "address"
        },
        {
          "indexed": true,
          "internalType": "address",
          "name": "sender",
          "type": "address"
        }
      ],
      "name": "RoleRevoked",
      "type": "event"
    },
    {
      "anonymous": false,
      "inputs": [
        {
          "indexed": true,
          "internalType": "address",
          "name": "from",
          "type": "address"
        },
        {
          "indexed": true,
          "internalType": "address",
          "name": "to",
          "type": "address"
        },
        {
          "indexed": false,
          "internalType": "uint256",
          "name": "value",
          "type": "uint256"
        }
      ],
      "name": "Transfer",
      "type": "event"
    },
    {
      "inputs": [],
      "name": "DEFAULT_ADMIN_ROLE",
      "outputs": [
        {
          "internalType": "bytes32",
          "name": "",
          "type": "bytes32"
        }
      ],
      "stateMutability": "view",
      "type": "function"
    },
    {
      "inputs": [],
      "name": "DELEGATION_TYPEHASH",
      "outputs": [
        {
          "internalType": "bytes32",
          "name": "",
          "type": "bytes32"
        }
      ],
      "stateMutability": "view",
      "type": "function"
    },
    {
      "inputs": [],
      "name": "DOMAIN_SEPARATOR",
      "outputs": [
        {
          "internalType": "bytes32",
          "name": "",
          "type": "bytes32"
        }
      ],
      "stateMutability": "view",
      "type": "function"
    },
    {
      "inputs": [],
      "name": "DOMAIN_TYPEHASH",
      "outputs": [
        {
          "internalType": "bytes32",
          "name": "",
          "type": "bytes32"
        }
      ],
      "stateMutability": "view",
      "type": "function"
    },
    {
      "inputs": [],
      "name": "MINTER_ROLE",
      "outputs": [
        {
          "internalType": "bytes32",
          "name": "",
          "type": "bytes32"
        }
      ],
      "stateMutability": "view",
      "type": "function"
    },
    {
      "inputs": [
        {
          "internalType": "address",
          "name": "owner",
          "type": "address"
        },
        {
          "internalType": "address",
          "name": "spender",
          "type": "address"
        }
      ],
      "name": "allowance",
      "outputs": [
        {
          "internalType": "uint256",
          "name": "",
          "type": "uint256"
        }
      ],
      "stateMutability": "view",
      "type": "function"
    },
    {
      "inputs": [
        {
          "internalType": "address",
          "name": "spender",
          "type": "address"
        },
        {
          "internalType": "uint256",
          "name": "amount",
          "type": "uint256"
        }
      ],
      "name": "approve",
      "outputs": [
        {
          "internalType": "bool",
          "name": "",
          "type": "bool"
        }
      ],
      "stateMutability": "nonpayable",
      "type": "function"
    },
    {
      "inputs": [
        {
          "internalType": "address",
          "name": "account",
          "type": "address"
        }
      ],
      "name": "balanceOf",
      "outputs": [
        {
          "internalType": "uint256",
          "name": "",
          "type": "uint256"
        }
      ],
      "stateMutability": "view",
      "type": "function"
    },
    {
      "inputs": [
        {
          "internalType": "address",
          "name": "",
          "type": "address"
        },
        {
          "internalType": "uint32",
          "name": "",
          "type": "uint32"
        }
      ],
      "name": "checkpoints",
      "outputs": [
        {
          "internalType": "uint32",
          "name": "fromBlock",
          "type": "uint32"
        },
        {
          "internalType": "uint256",
          "name": "votes",
          "type": "uint256"
        }
      ],
      "stateMutability": "view",
      "type": "function"
    },
    {
      "inputs": [],
      "name": "decimals",
      "outputs": [
        {
          "internalType": "uint8",
          "name": "",
          "type": "uint8"
        }
      ],
      "stateMutability": "view",
      "type": "function"
    },
    {
      "inputs": [
        {
          "internalType": "address",
          "name": "spender",
          "type": "address"
        },
        {
          "internalType": "uint256",
          "name": "subtractedValue",
          "type": "uint256"
        }
      ],
      "name": "decreaseAllowance",
      "outputs": [
        {
          "internalType": "bool",
          "name": "",
          "type": "bool"
        }
      ],
      "stateMutability": "nonpayable",
      "type": "function"
    },
    {
      "inputs": [
        {
          "internalType": "address",
          "name": "delegatee",
          "type": "address"
        }
      ],
      "name": "delegate",
      "outputs": [],
      "stateMutability": "nonpayable",
      "type": "function"
    },
    {
      "inputs": [
        {
          "internalType": "address",
          "name": "delegatee",
          "type": "address"
        },
        {
          "internalType": "uint256",
          "name": "nonce",
          "type": "uint256"
        },
        {
          "internalType": "uint256",
          "name": "expiry",
          "type": "uint256"
        },
        {
          "internalType": "uint8",
          "name": "v",
          "type": "uint8"
        },
        {
          "internalType": "bytes32",
          "name": "r",
          "type": "bytes32"
        },
        {
          "internalType": "bytes32",
          "name": "s",
          "type": "bytes32"
        }
      ],
      "name": "delegateBySig",
      "outputs": [],
      "stateMutability": "nonpayable",
      "type": "function"
    },
    {
      "inputs": [
        {
          "internalType": "address",
          "name": "delegator",
          "type": "address"
        }
      ],
      "name": "delegates",
      "outputs": [
        {
          "internalType": "address",
          "name": "",
          "type": "address"
        }
      ],
      "stateMutability": "view",
      "type": "function"
    },
    {
      "inputs": [
        {
          "internalType": "address",
          "name": "account",
          "type": "address"
        }
      ],
      "name": "getCurrentVotes",
      "outputs": [
        {
          "internalType": "uint256",
          "name": "",
          "type": "uint256"
        }
      ],
      "stateMutability": "view",
      "type": "function"
    },
    {
      "inputs": [
        {
          "internalType": "string",
          "name": "_name",
          "type": "string"
        },
        {
          "internalType": "string",
          "name": "_symbol",
          "type": "string"
        },
        {
          "internalType": "address",
          "name": "_owner",
          "type": "address"
        },
        {
          "internalType": "uint256",
          "name": "_initialSupply",
          "type": "uint256"
        }
      ],
      "name": "getInitData",
      "outputs": [
        {
          "internalType": "bytes",
          "name": "_data",
          "type": "bytes"
        }
      ],
      "stateMutability": "pure",
      "type": "function"
    },
    {
      "inputs": [
        {
          "internalType": "address",
          "name": "account",
          "type": "address"
        },
        {
          "internalType": "uint256",
          "name": "blockNumber",
          "type": "uint256"
        }
      ],
      "name": "getPriorVotes",
      "outputs": [
        {
          "internalType": "uint256",
          "name": "",
          "type": "uint256"
        }
      ],
      "stateMutability": "view",
      "type": "function"
    },
    {
      "inputs": [
        {
          "internalType": "bytes32",
          "name": "role",
          "type": "bytes32"
        }
      ],
      "name": "getRoleAdmin",
      "outputs": [
        {
          "internalType": "bytes32",
          "name": "",
          "type": "bytes32"
        }
      ],
      "stateMutability": "view",
      "type": "function"
    },
    {
      "inputs": [
        {
          "internalType": "bytes32",
          "name": "role",
          "type": "bytes32"
        },
        {
          "internalType": "uint256",
          "name": "index",
          "type": "uint256"
        }
      ],
      "name": "getRoleMember",
      "outputs": [
        {
          "internalType": "address",
          "name": "",
          "type": "address"
        }
      ],
      "stateMutability": "view",
      "type": "function"
    },
    {
      "inputs": [
        {
          "internalType": "bytes32",
          "name": "role",
          "type": "bytes32"
        }
      ],
      "name": "getRoleMemberCount",
      "outputs": [
        {
          "internalType": "uint256",
          "name": "",
          "type": "uint256"
        }
      ],
      "stateMutability": "view",
      "type": "function"
    },
    {
      "inputs": [
        {
          "internalType": "bytes32",
          "name": "role",
          "type": "bytes32"
        },
        {
          "internalType": "address",
          "name": "account",
          "type": "address"
        }
      ],
      "name": "grantRole",
      "outputs": [],
      "stateMutability": "nonpayable",
      "type": "function"
    },
    {
      "inputs": [
        {
          "internalType": "bytes32",
          "name": "role",
          "type": "bytes32"
        },
        {
          "internalType": "address",
          "name": "account",
          "type": "address"
        }
      ],
      "name": "hasRole",
      "outputs": [
        {
          "internalType": "bool",
          "name": "",
          "type": "bool"
        }
      ],
      "stateMutability": "view",
      "type": "function"
    },
    {
      "inputs": [
        {
          "internalType": "address",
          "name": "spender",
          "type": "address"
        },
        {
          "internalType": "uint256",
          "name": "addedValue",
          "type": "uint256"
        }
      ],
      "name": "increaseAllowance",
      "outputs": [
        {
          "internalType": "bool",
          "name": "",
          "type": "bool"
        }
      ],
      "stateMutability": "nonpayable",
      "type": "function"
    },
    {
      "inputs": [
        {
          "internalType": "bytes",
          "name": "_data",
          "type": "bytes"
        }
      ],
      "name": "init",
      "outputs": [],
      "stateMutability": "payable",
      "type": "function"
    },
    {
      "inputs": [
        {
          "internalType": "bytes",
          "name": "_data",
          "type": "bytes"
        }
      ],
      "name": "initToken",
      "outputs": [],
      "stateMutability": "nonpayable",
      "type": "function"
    },
    {
      "inputs": [
        {
          "internalType": "string",
          "name": "_name",
          "type": "string"
        },
        {
          "internalType": "string",
          "name": "_symbol",
          "type": "string"
        },
        {
          "internalType": "address",
          "name": "_owner",
          "type": "address"
        },
        {
          "internalType": "uint256",
          "name": "_initialSupply",
          "type": "uint256"
        }
      ],
      "name": "initToken",
      "outputs": [],
      "stateMutability": "nonpayable",
      "type": "function"
    },
    {
      "inputs": [
        {
          "internalType": "address",
          "name": "_to",
          "type": "address"
        },
        {
          "internalType": "uint256",
          "name": "_amount",
          "type": "uint256"
        }
      ],
      "name": "mint",
      "outputs": [],
      "stateMutability": "nonpayable",
      "type": "function"
    },
    {
      "inputs": [],
      "name": "name",
      "outputs": [
        {
          "internalType": "string",
          "name": "",
          "type": "string"
        }
      ],
      "stateMutability": "view",
      "type": "function"
    },
    {
      "inputs": [
        {
          "internalType": "address",
          "name": "",
          "type": "address"
        }
      ],
      "name": "nonces",
      "outputs": [
        {
          "internalType": "uint256",
          "name": "",
          "type": "uint256"
        }
      ],
      "stateMutability": "view",
      "type": "function"
    },
    {
      "inputs": [
        {
          "internalType": "address",
          "name": "",
          "type": "address"
        }
      ],
      "name": "numCheckpoints",
      "outputs": [
        {
          "internalType": "uint32",
          "name": "",
          "type": "uint32"
        }
      ],
      "stateMutability": "view",
      "type": "function"
    },
    {
      "inputs": [
        {
          "internalType": "address",
          "name": "owner_",
          "type": "address"
        },
        {
          "internalType": "address",
          "name": "spender",
          "type": "address"
        },
        {
          "internalType": "uint256",
          "name": "value",
          "type": "uint256"
        },
        {
          "internalType": "uint256",
          "name": "deadline",
          "type": "uint256"
        },
        {
          "internalType": "uint8",
          "name": "v",
          "type": "uint8"
        },
        {
          "internalType": "bytes32",
          "name": "r",
          "type": "bytes32"
        },
        {
          "internalType": "bytes32",
          "name": "s",
          "type": "bytes32"
        }
      ],
      "name": "permit",
      "outputs": [],
      "stateMutability": "nonpayable",
      "type": "function"
    },
    {
      "inputs": [
        {
          "internalType": "bytes32",
          "name": "role",
          "type": "bytes32"
        },
        {
          "internalType": "address",
          "name": "account",
          "type": "address"
        }
      ],
      "name": "renounceRole",
      "outputs": [],
      "stateMutability": "nonpayable",
      "type": "function"
    },
    {
      "inputs": [
        {
          "internalType": "bytes32",
          "name": "role",
          "type": "bytes32"
        },
        {
          "internalType": "address",
          "name": "account",
          "type": "address"
        }
      ],
      "name": "revokeRole",
      "outputs": [],
      "stateMutability": "nonpayable",
      "type": "function"
    },
    {
      "inputs": [
        {
          "internalType": "address",
          "name": "",
          "type": "address"
        }
      ],
      "name": "sigNonces",
      "outputs": [
        {
          "internalType": "uint256",
          "name": "",
          "type": "uint256"
        }
      ],
      "stateMutability": "view",
      "type": "function"
    },
    {
      "inputs": [],
      "name": "symbol",
      "outputs": [
        {
          "internalType": "string",
          "name": "",
          "type": "string"
        }
      ],
      "stateMutability": "view",
      "type": "function"
    },
    {
      "inputs": [],
      "name": "tokenTemplate",
      "outputs": [
        {
          "internalType": "uint256",
          "name": "",
          "type": "uint256"
        }
      ],
      "stateMutability": "view",
      "type": "function"
    },
    {
      "inputs": [],
      "name": "totalSupply",
      "outputs": [
        {
          "internalType": "uint256",
          "name": "",
          "type": "uint256"
        }
      ],
      "stateMutability": "view",
      "type": "function"
    },
    {
      "inputs": [
        {
          "internalType": "address",
          "name": "recipient",
          "type": "address"
        },
        {
          "internalType": "uint256",
          "name": "amount",
          "type": "uint256"
        }
      ],
      "name": "transfer",
      "outputs": [
        {
          "internalType": "bool",
          "name": "",
          "type": "bool"
        }
      ],
      "stateMutability": "nonpayable",
      "type": "function"
    },
    {
      "inputs": [
        {
          "internalType": "address",
          "name": "sender",
          "type": "address"
        },
        {
          "internalType": "address",
          "name": "recipient",
          "type": "address"
        },
        {
          "internalType": "uint256",
          "name": "amount",
          "type": "uint256"
        }
      ],
      "name": "transferFrom",
      "outputs": [
        {
          "internalType": "bool",
          "name": "",
          "type": "bool"
        }
      ],
      "stateMutability": "nonpayable",
      "type": "function"
    }
  ],
  "transactionHash": "0xfba2958d31381ef4d2a6e2931f153bdc7fdcb9431fdc266fe682581ce626a2ab",
  "args": [],
  "solcInputHash": "d1b4fa5f316a6a8ee3524e1600e2925f",
  "bytecode": "0x608060405234801561001057600080fd5b50612bbe806100206000396000f3fe6080604052600436106102305760003560e01c8063782d6fe11161012e578063c3cda520116100ab578063dd62ed3e1161006f578063dd62ed3e14610aec578063e7a324dc14610b27578063f1127ed814610b3c578063f21f007c14610b9b578063f990ccd714610c7557610230565b8063c3cda520146109c2578063ca15c87314610a16578063d505accf14610a40578063d539139314610a9e578063d547741f14610ab357610230565b806395d89b41116100f257806395d89b41146108f3578063a217fddf14610908578063a457c2d71461091d578063a9059cbb14610956578063b4b5ea571461098f57610230565b8063782d6fe1146106da5780637ecebe00146107135780638dc7df72146107465780639010d07c1461088a57806391d14854146108ba57610230565b80633644e515116101bc578063587cde1e11610180578063587cde1e1461055e5780635c19a95c146105ad57806360b1cc80146105e05780636fcfff451461065b57806370a08231146106a757610230565b80633644e5151461043057806336568abe14610445578063395093511461047e57806340c10f19146104b75780634ddf47d4146104f057610230565b806320606b701161020357806320606b701461034857806323b872dd1461035d578063248a9ca3146103a05780632f2ff15d146103ca578063313ce5671461040557610230565b806306fdde03146102355780630814d3dd146102bf578063095ea7b3146102e657806318160ddd14610333575b600080fd5b34801561024157600080fd5b5061024a610ca8565b6040805160208082528351818301528351919283929083019185019080838360005b8381101561028457818101518382015260200161026c565b50505050905090810190601f1680156102b15780820380516001836020036101000a031916815260200191505b509250505060405180910390f35b3480156102cb57600080fd5b506102d4610d3e565b60408051918252519081900360200190f35b3480156102f257600080fd5b5061031f6004803603604081101561030957600080fd5b506001600160a01b038135169060200135610d43565b604080519115158252519081900360200190f35b34801561033f57600080fd5b506102d4610d61565b34801561035457600080fd5b506102d4610d67565b34801561036957600080fd5b5061031f6004803603606081101561038057600080fd5b506001600160a01b03813581169160208101359091169060400135610d8b565b3480156103ac57600080fd5b506102d4600480360360208110156103c357600080fd5b5035610e12565b3480156103d657600080fd5b50610403600480360360408110156103ed57600080fd5b50803590602001356001600160a01b0316610e27565b005b34801561041157600080fd5b5061041a610e93565b6040805160ff9092168252519081900360200190f35b34801561043c57600080fd5b506102d4610e9c565b34801561045157600080fd5b506104036004803603604081101561046857600080fd5b50803590602001356001600160a01b0316610ea2565b34801561048a57600080fd5b5061031f600480360360408110156104a157600080fd5b506001600160a01b038135169060200135610f03565b3480156104c357600080fd5b50610403600480360360408110156104da57600080fd5b506001600160a01b038135169060200135610f51565b6104036004803603602081101561050657600080fd5b810190602081018135600160201b81111561052057600080fd5b82018360208201111561053257600080fd5b803590602001918460018302840111600160201b8311171561055357600080fd5b509092509050610e8f565b34801561056a57600080fd5b506105916004803603602081101561058157600080fd5b50356001600160a01b0316610fe7565b604080516001600160a01b039092168252519081900360200190f35b3480156105b957600080fd5b50610403600480360360208110156105d057600080fd5b50356001600160a01b0316611005565b3480156105ec57600080fd5b506104036004803603602081101561060357600080fd5b810190602081018135600160201b81111561061d57600080fd5b82018360208201111561062f57600080fd5b803590602001918460018302840111600160201b8311171561065057600080fd5b509092509050611012565b34801561066757600080fd5b5061068e6004803603602081101561067e57600080fd5b50356001600160a01b0316611162565b6040805163ffffffff9092168252519081900360200190f35b3480156106b357600080fd5b506102d4600480360360208110156106ca57600080fd5b50356001600160a01b031661117a565b3480156106e657600080fd5b506102d4600480360360408110156106fd57600080fd5b506001600160a01b038135169060200135611195565b34801561071f57600080fd5b506102d46004803603602081101561073657600080fd5b50356001600160a01b031661139d565b34801561075257600080fd5b506104036004803603608081101561076957600080fd5b810190602081018135600160201b81111561078357600080fd5b82018360208201111561079557600080fd5b803590602001918460018302840111600160201b831117156107b657600080fd5b91908080601f0160208091040260200160405190810160405280939291908181526020018383808284376000920191909152509295949360208101935035915050600160201b81111561080857600080fd5b82018360208201111561081a57600080fd5b803590602001918460018302840111600160201b8311171561083b57600080fd5b91908080601f016020809104026020016040519081016040528093929190818152602001838380828437600092019190915250929550506001600160a01b0383351693505050602001356113af565b34801561089657600080fd5b50610591600480360360408110156108ad57600080fd5b50803590602001356113fe565b3480156108c657600080fd5b5061031f600480360360408110156108dd57600080fd5b50803590602001356001600160a01b031661141d565b3480156108ff57600080fd5b5061024a611435565b34801561091457600080fd5b506102d4611496565b34801561092957600080fd5b5061031f6004803603604081101561094057600080fd5b506001600160a01b03813516906020013561149b565b34801561096257600080fd5b5061031f6004803603604081101561097957600080fd5b506001600160a01b038135169060200135611503565b34801561099b57600080fd5b506102d4600480360360208110156109b257600080fd5b50356001600160a01b0316611517565b3480156109ce57600080fd5b50610403600480360360c08110156109e557600080fd5b506001600160a01b038135169060208101359060408101359060ff6060820135169060808101359060a0013561157a565b348015610a2257600080fd5b506102d460048036036020811015610a3957600080fd5b50356117ec565b348015610a4c57600080fd5b50610403600480360360e0811015610a6357600080fd5b506001600160a01b03813581169160208101359091169060408101359060608101359060ff6080820135169060a08101359060c00135611803565b348015610aaa57600080fd5b506102d4611aa6565b348015610abf57600080fd5b5061040360048036036040811015610ad657600080fd5b50803590602001356001600160a01b0316611aca565b348015610af857600080fd5b506102d460048036036040811015610b0f57600080fd5b506001600160a01b0381358116916020013516611b23565b348015610b3357600080fd5b506102d4611b4e565b348015610b4857600080fd5b50610b7b60048036036040811015610b5f57600080fd5b5080356001600160a01b0316906020013563ffffffff16611b72565b6040805163ffffffff909316835260208301919091528051918290030190f35b348015610ba757600080fd5b5061024a60048036036080811015610bbe57600080fd5b810190602081018135600160201b811115610bd857600080fd5b820183602082011115610bea57600080fd5b803590602001918460018302840111600160201b83111715610c0b57600080fd5b919390929091602081019035600160201b811115610c2857600080fd5b820183602082011115610c3a57600080fd5b803590602001918460018302840111600160201b83111715610c5b57600080fd5b91935091506001600160a01b038135169060200135611b9f565b348015610c8157600080fd5b506102d460048036036020811015610c9857600080fd5b50356001600160a01b0316611c3c565b60068054604080516020601f6002600019610100600188161502019095169490940493840181900481028201810190925282815260609390929091830182828015610d345780601f10610d0957610100808354040283529160200191610d34565b820191906000526020600020905b815481529060010190602001808311610d1757829003601f168201915b5050505050905090565b600381565b6000610d57610d50611c4e565b8484611c52565b5060015b92915050565b60055490565b7f8cad95687ba82c2ce50e74f7b754645e5117c3a5bec8151c0726d5857980a86681565b6000610d98848484611d3e565b610e0884610da4611c4e565b610e0385604051806060016040528060288152602001612a7a602891396001600160a01b038a16600090815260046020526040812090610de2611c4e565b6001600160a01b031681526020810191909152604001600020549190611e9b565b611c52565b5060019392505050565b60009081526020819052604090206002015490565b600082815260208190526040902060020154610e4a90610e45611c4e565b61141d565b610e855760405162461bcd60e51b815260040180806020018281038252602f8152602001806128fc602f913960400191505060405180910390fd5b610e8f8282611f32565b5050565b60085460ff1690565b60015481565b610eaa611c4e565b6001600160a01b0316816001600160a01b031614610ef95760405162461bcd60e51b815260040180806020018281038252602f815260200180612b5a602f913960400191505060405180910390fd5b610e8f8282611f9b565b6000610d57610f10611c4e565b84610e038560046000610f21611c4e565b6001600160a01b03908116825260208083019390935260409182016000908120918c168152925290205490612004565b610f7d7f9f2df0fed2c77648de5860a4cc508cd0818c85b8b8a1ab4ceeef8d981c8956a6610e45611c4e565b610fb85760405162461bcd60e51b815260040180806020018281038252602981526020018061292b6029913960400191505060405180910390fd5b610fc2828261205e565b6001600160a01b03808316600090815260096020526040812054610e8f921683612150565b6001600160a01b039081166000908152600960205260409020541690565b61100f3382612292565b50565b6060806000808585608081101561102857600080fd5b810190602081018135600160201b81111561104257600080fd5b82018360208201111561105457600080fd5b803590602001918460018302840111600160201b8311171561107557600080fd5b91908080601f0160208091040260200160405190810160405280939291908181526020018383808284376000920191909152509295949360208101935035915050600160201b8111156110c757600080fd5b8201836020820111156110d957600080fd5b803590602001918460018302840111600160201b831117156110fa57600080fd5b91908080601f016020809104026020016040519081016040528093929190818152602001838380828437600092019190915250969a50919850506001600160a01b0382351696505060200135935061115a925086915085905084846113af565b505050505050565b600b6020526000908152604090205463ffffffff1681565b6001600160a01b031660009081526002602052604090205490565b60004382106111d55760405162461bcd60e51b8152600401808060200182810382526028815260200180612a526028913960400191505060405180910390fd5b6001600160a01b0383166000908152600b602052604090205463ffffffff1680611203576000915050610d5b565b6001600160a01b0384166000908152600a6020908152604080832063ffffffff600019860181168552925290912054168310611272576001600160a01b0384166000908152600a602090815260408083206000199490940163ffffffff16835292905220600101549050610d5b565b6001600160a01b0384166000908152600a6020908152604080832083805290915290205463ffffffff168310156112ad576000915050610d5b565b600060001982015b8163ffffffff168163ffffffff16111561136657600282820363ffffffff160481036112df61280c565b506001600160a01b0387166000908152600a6020908152604080832063ffffffff80861685529083529281902081518083019092528054909316808252600190930154918101919091529087141561134157602001519450610d5b9350505050565b805163ffffffff168711156113585781935061135f565b6001820392505b50506112b5565b506001600160a01b0385166000908152600a6020908152604080832063ffffffff9094168352929052206001015491505092915050565b60036020526000908152604090205481565b6113b98484612321565b6113c4600083610e85565b6113ee7f9f2df0fed2c77648de5860a4cc508cd0818c85b8b8a1ab4ceeef8d981c8956a683610e85565b6113f8338261205e565b50505050565b60008281526020819052604081206114169083612403565b9392505050565b6000828152602081905260408120611416908361240f565b60078054604080516020601f6002600019610100600188161502019095169490940493840181900481028201810190925282815260609390929091830182828015610d345780601f10610d0957610100808354040283529160200191610d34565b600081565b6000610d576114a8611c4e565b84610e0385604051806060016040528060258152602001612b3560259139600460006114d2611c4e565b6001600160a01b03908116825260208083019390935260409182016000908120918d16815292529020549190611e9b565b6000610d57611510611c4e565b8484611d3e565b6001600160a01b0381166000908152600b602052604081205463ffffffff1680611542576000611416565b6001600160a01b0383166000908152600a6020908152604080832063ffffffff60001986011684529091529020600101549392505050565b60007f8cad95687ba82c2ce50e74f7b754645e5117c3a5bec8151c0726d5857980a8666115a5610ca8565b805190602001206115b4612424565b60408051602080820195909552808201939093526060830191909152306080808401919091528151808403909101815260a0830182528051908401207fe48329057bfd03d55e49b547132e39cffd9c1820ad7b9d4c5307691425d15adf60c08401526001600160a01b038b1660e084015261010083018a90526101208084018a9052825180850390910181526101408401835280519085012061190160f01b6101608501526101628401829052610182808501829052835180860390910181526101a285018085528151918701919091206000918290526101c2860180865281905260ff8b166101e287015261020286018a90526102228601899052935192965090949293909260019261024280840193601f198301929081900390910190855afa1580156116e7573d6000803e3d6000fd5b5050604051601f1901519150506001600160a01b0381166117395760405162461bcd60e51b8152600401808060200182810382526027815260200180612ac56027913960400191505060405180910390fd5b6001600160a01b0381166000908152600c6020526040902080546001810190915589146117975760405162461bcd60e51b8152600401808060200182810382526023815260200180612aa26023913960400191505060405180910390fd5b874211156117d65760405162461bcd60e51b81526004018080602001828103825260278152602001806129546027913960400191505060405180910390fd5b6117e0818b612292565b50505050505050505050565b6000818152602081905260408120610d5b90612428565b6001600160a01b03871661185e576040805162461bcd60e51b815260206004820152601860248201527f45524332303a204f776e65722063616e6e6f7420626520300000000000000000604482015290519081900360640190fd5b8342106118a3576040805162461bcd60e51b815260206004820152600e60248201526d115490cc8c0e88115e1c1a5c995960921b604482015290519081900360640190fd5b6040805180820182526002815261190160f01b6020808301918252600180546001600160a01b03808e166000818152600386528881208054958601905588517f6e71edae12b1b97f4d1f60370fef10105fa2faae0126114a169c64845d6126c981880152808a0192909252918e166060820152608081018d905260a081019390935260c08084018c90528751808503909101815260e084019097528651969093019590952084519295939092610100909201918291908083835b6020831061197c5780518252601f19909201916020918201910161195d565b51815160209384036101000a6000190180199092169116179052920194855250838101929092525060408051808403830181528184018083528151918401919091206000918290526060850180845281905260ff8a16608086015260a0850189905260c085018890529151919550935060019260e08082019392601f1981019281900390910190855afa158015611a17573d6000803e3d6000fd5b505050602060405103519050886001600160a01b0316816001600160a01b031614611a89576040805162461bcd60e51b815260206004820152601860248201527f45524332303a20496e76616c6964205369676e61747572650000000000000000604482015290519081900360640190fd5b611a9b611a94611c4e565b8989611c52565b505050505050505050565b7f9f2df0fed2c77648de5860a4cc508cd0818c85b8b8a1ab4ceeef8d981c8956a681565b600082815260208190526040902060020154611ae890610e45611c4e565b610ef95760405162461bcd60e51b81526004018080602001828103825260308152602001806129ed6030913960400191505060405180910390fd5b6001600160a01b03918216600090815260046020908152604080832093909416825291909152205490565b7fe48329057bfd03d55e49b547132e39cffd9c1820ad7b9d4c5307691425d15adf81565b600a6020908152600092835260408084209091529082529020805460019091015463ffffffff9091169082565b6060868686868686604051602001808060200180602001856001600160a01b031681526020018481526020018381038352898982818152602001925080828437600083820152601f01601f19169091018481038352878152602001905087878082843760008382015260408051601f909201601f199081169094018281039094018252929092525099505050505050505050509695505050505050565b600c6020526000908152604090205481565b3390565b6001600160a01b038316611c975760405162461bcd60e51b8152600401808060200182810382526024815260200180612b116024913960400191505060405180910390fd5b6001600160a01b038216611cdc5760405162461bcd60e51b815260040180806020018281038252602281526020018061297b6022913960400191505060405180910390fd5b6001600160a01b03808416600081815260046020908152604080832094871680845294825291829020859055815185815291517f8c5be1e5ebec7d5bd14f71427d1e84f3dd0314c0f7b2291e5b200ac8c7c3b9259281900390910190a3505050565b6001600160a01b038316611d835760405162461bcd60e51b8152600401808060200182810382526025815260200180612aec6025913960400191505060405180910390fd5b6001600160a01b038216611dc85760405162461bcd60e51b81526004018080602001828103825260238152602001806128d96023913960400191505060405180910390fd5b611dd383838361228d565b611e108160405180606001604052806026815260200161299d602691396001600160a01b0386166000908152600260205260409020549190611e9b565b6001600160a01b038085166000908152600260205260408082209390935590841681522054611e3f9082612004565b6001600160a01b0380841660008181526002602090815260409182902094909455805185815290519193928716927fddf252ad1be2c89b69c2b068fc378daa952ba7f163c4a11628f55a4df523b3ef92918290030190a3505050565b60008184841115611f2a5760405162461bcd60e51b81526004018080602001828103825283818151815260200191508051906020019080838360005b83811015611eef578181015183820152602001611ed7565b50505050905090810190601f168015611f1c5780820380516001836020036101000a031916815260200191505b509250505060405180910390fd5b505050900390565b6000828152602081905260409020611f4a9082612433565b15610e8f57611f57611c4e565b6001600160a01b0316816001600160a01b0316837f2f8788117e7eff1d82e926ec794901d17c78024a50270940304540a733656f0d60405160405180910390a45050565b6000828152602081905260409020611fb39082612448565b15610e8f57611fc0611c4e565b6001600160a01b0316816001600160a01b0316837ff6391f5c32d9c69d2a47ea670b442974b53935d1edc7fd64eb21e047a839171b60405160405180910390a45050565b600082820183811015611416576040805162461bcd60e51b815260206004820152601b60248201527f536166654d6174683a206164646974696f6e206f766572666c6f770000000000604482015290519081900360640190fd5b6001600160a01b0382166120b9576040805162461bcd60e51b815260206004820152601f60248201527f45524332303a206d696e7420746f20746865207a65726f206164647265737300604482015290519081900360640190fd5b6120c56000838361228d565b6005546120d29082612004565b6005556001600160a01b0382166000908152600260205260409020546120f89082612004565b6001600160a01b03831660008181526002602090815260408083209490945583518581529351929391927fddf252ad1be2c89b69c2b068fc378daa952ba7f163c4a11628f55a4df523b3ef9281900390910190a35050565b816001600160a01b0316836001600160a01b0316141580156121725750600081115b1561228d576001600160a01b03831615612204576001600160a01b0383166000908152600b602052604081205463ffffffff1690816121b25760006121e4565b6001600160a01b0385166000908152600a6020908152604080832063ffffffff60001987011684529091529020600101545b905060006121f2828561245d565b9050612200868484846124ba565b5050505b6001600160a01b0382161561228d576001600160a01b0382166000908152600b602052604081205463ffffffff16908161223f576000612271565b6001600160a01b0384166000908152600a6020908152604080832063ffffffff60001987011684529091529020600101545b9050600061227f8285612004565b905061115a858484846124ba565b505050565b6001600160a01b03808316600090815260096020526040812054909116906122b98461117a565b6001600160a01b0385811660008181526009602052604080822080546001600160a01b031916898616908117909155905194955093928616927f3134e8a2e6d97e929a7e54011ea5485d7d196dd5f0ba4d4ef95803e8e3fc257f9190a46113f8828483612150565b600854610100900460ff16156123685760405162461bcd60e51b815260040180806020018281038252602a8152602001806129c3602a913960400191505060405180910390fd5b815161237b906006906020850190612823565b50805161238f906007906020840190612823565b505060088054604080517f47e79534a245952e8b16893a336b85a3d9ea9fa8c573f3d803afb92a79469218602080830191909152468284015230606080840191909152835180840390910181526080909201909252805191012060015561ff001960ff199091166012171661010017905550565b6000611416838361261f565b6000611416836001600160a01b038416612683565b4690565b6000610d5b8261269b565b6000611416836001600160a01b03841661269f565b6000611416836001600160a01b0384166126e9565b6000828211156124b4576040805162461bcd60e51b815260206004820152601e60248201527f536166654d6174683a207375627472616374696f6e206f766572666c6f770000604482015290519081900360640190fd5b50900390565b60006124de43604051806060016040528060358152602001612a1d603591396127af565b905060008463ffffffff1611801561252757506001600160a01b0385166000908152600a6020908152604080832063ffffffff6000198901811685529252909120548282169116145b15612564576001600160a01b0385166000908152600a6020908152604080832063ffffffff600019890116845290915290206001018290556125d5565b60408051808201825263ffffffff808416825260208083018681526001600160a01b038a166000818152600a84528681208b8616825284528681209551865490861663ffffffff199182161787559251600196870155908152600b9092529390208054928801909116919092161790555b604080518481526020810184905281516001600160a01b038816927fdec2bacdd2f05b59de34da9b523dff8be42e5e38e818c82fdb0bae774387a724928290030190a25050505050565b815460009082106126615760405162461bcd60e51b81526004018080602001828103825260228152602001806128b76022913960400191505060405180910390fd5b82600001828154811061267057fe5b9060005260206000200154905092915050565b60009081526001919091016020526040902054151590565b5490565b60006126ab8383612683565b6126e157508154600181810184556000848152602080822090930184905584548482528286019093526040902091909155610d5b565b506000610d5b565b600081815260018301602052604081205480156127a5578354600019808301919081019060009087908390811061271c57fe5b906000526020600020015490508087600001848154811061273957fe5b60009182526020808320909101929092558281526001898101909252604090209084019055865487908061276957fe5b60019003818190600052602060002001600090559055866001016000878152602001908152602001600020600090556001945050505050610d5b565b6000915050610d5b565b600081600160201b84106128045760405162461bcd60e51b8152602060048201818152835160248401528351909283926044909101919085019080838360008315611eef578181015183820152602001611ed7565b509192915050565b604080518082019091526000808252602082015290565b828054600181600116156101000203166002900490600052602060002090601f016020900481019282601f1061286457805160ff1916838001178555612891565b82800160010185558215612891579182015b82811115612891578251825591602001919060010190612876565b5061289d9291506128a1565b5090565b5b8082111561289d57600081556001016128a256fe456e756d657261626c655365743a20696e646578206f7574206f6620626f756e647345524332303a207472616e7366657220746f20746865207a65726f2061646472657373416363657373436f6e74726f6c3a2073656e646572206d75737420626520616e2061646d696e20746f206772616e745375736869546f6b656e3a206d7573742068617665206d696e74657220726f6c6520746f206d696e7453555348493a3a64656c656761746542795369673a207369676e6174757265206578706972656445524332303a20617070726f766520746f20746865207a65726f206164647265737345524332303a207472616e7366657220616d6f756e7420657863656564732062616c616e636545524332303a20746f6b656e2068617320616c7265616479206265656e20696e697469616c697a656421416363657373436f6e74726f6c3a2073656e646572206d75737420626520616e2061646d696e20746f207265766f6b6553555348493a3a5f7772697465436865636b706f696e743a20626c6f636b206e756d6265722065786365656473203332206269747353555348493a3a6765745072696f72566f7465733a206e6f74207965742064657465726d696e656445524332303a207472616e7366657220616d6f756e74206578636565647320616c6c6f77616e636553555348493a3a64656c656761746542795369673a20696e76616c6964206e6f6e636553555348493a3a64656c656761746542795369673a20696e76616c6964207369676e617475726545524332303a207472616e736665722066726f6d20746865207a65726f206164647265737345524332303a20617070726f76652066726f6d20746865207a65726f206164647265737345524332303a2064656372656173656420616c6c6f77616e63652062656c6f77207a65726f416363657373436f6e74726f6c3a2063616e206f6e6c792072656e6f756e636520726f6c657320666f722073656c66a264697066735822122066bd8c20a4651be806f081360c6aef00b87fb48e270d73c6ca1f8b6457686d8964736f6c634300060c0033",
  "devdoc": {
    "kind": "dev",
    "methods": {
      "allowance(address,address)": {
        "details": "See {IERC20-allowance}."
      },
      "approve(address,uint256)": {
        "details": "See {IERC20-approve}. Requirements: - `spender` cannot be the zero address."
      },
      "balanceOf(address)": {
        "details": "See {IERC20-balanceOf}."
      },
      "decimals()": {
        "details": "Returns the number of decimals used to get its user representation. For example, if `decimals` equals `2`, a balance of `505` tokens should be displayed to a user as `5,05` (`505 / 10 ** 2`). Tokens usually opt for a value of 18, imitating the relationship between Ether and Wei. This is the value {ERC20} uses, unless {_setupDecimals} is called. NOTE: This information is only used for _display_ purposes: it in no way affects any of the arithmetic of the contract, including {IERC20-balanceOf} and {IERC20-transfer}."
      },
      "decreaseAllowance(address,uint256)": {
        "details": "Atomically decreases the allowance granted to `spender` by the caller. This is an alternative to {approve} that can be used as a mitigation for problems described in {IERC20-approve}. Emits an {Approval} event indicating the updated allowance. Requirements: - `spender` cannot be the zero address. - `spender` must have allowance for the caller of at least `subtractedValue`."
      },
      "delegate(address)": {
        "params": {
          "delegatee": "The address to delegate votes to"
        }
      },
      "delegateBySig(address,uint256,uint256,uint8,bytes32,bytes32)": {
        "params": {
          "delegatee": "The address to delegate votes to",
          "expiry": "The time at which to expire the signature",
          "nonce": "The contract state required to match the signature",
          "r": "Half of the ECDSA signature pair",
          "s": "Half of the ECDSA signature pair",
          "v": "The recovery byte of the signature"
        }
      },
      "delegates(address)": {
        "params": {
          "delegator": "The address to get delegatee for"
        }
      },
      "getCurrentVotes(address)": {
        "params": {
          "account": "The address to get votes balance"
        },
        "returns": {
          "_0": "The number of current votes for `account`"
        }
      },
      "getInitData(string,string,address,uint256)": {
        "details": "Generates init data for Token Factory",
        "params": {
          "_initialSupply": "Amount of tokens minted on creation",
          "_name": "- Token name",
          "_owner": "- Contract owner",
          "_symbol": "- Token symbol"
        }
      },
      "getPriorVotes(address,uint256)": {
        "details": "Block number must be a finalized block or else this function will revert to prevent misinformation.",
        "params": {
          "account": "The address of the account to check",
          "blockNumber": "The block number to get the vote balance at"
        },
        "returns": {
          "_0": "The number of votes the account had as of the given block"
        }
      },
      "getRoleAdmin(bytes32)": {
        "details": "Returns the admin role that controls `role`. See {grantRole} and {revokeRole}. To change a role's admin, use {_setRoleAdmin}."
      },
      "getRoleMember(bytes32,uint256)": {
        "details": "Returns one of the accounts that have `role`. `index` must be a value between 0 and {getRoleMemberCount}, non-inclusive. Role bearers are not sorted in any particular way, and their ordering may change at any point. WARNING: When using {getRoleMember} and {getRoleMemberCount}, make sure you perform all queries on the same block. See the following https://forum.openzeppelin.com/t/iterating-over-elements-on-enumerableset-in-openzeppelin-contracts/2296[forum post] for more information."
      },
      "getRoleMemberCount(bytes32)": {
        "details": "Returns the number of accounts that have `role`. Can be used together with {getRoleMember} to enumerate all bearers of a role."
      },
      "grantRole(bytes32,address)": {
        "details": "Grants `role` to `account`. If `account` had not been already granted `role`, emits a {RoleGranted} event. Requirements: - the caller must have ``role``'s admin role."
      },
      "hasRole(bytes32,address)": {
        "details": "Returns `true` if `account` has been granted `role`."
      },
      "increaseAllowance(address,uint256)": {
        "details": "Atomically increases the allowance granted to `spender` by the caller. This is an alternative to {approve} that can be used as a mitigation for problems described in {IERC20-approve}. Emits an {Approval} event indicating the updated allowance. Requirements: - `spender` cannot be the zero address."
      },
      "name()": {
        "details": "Returns the name of the token."
      },
      "permit(address,address,uint256,uint256,uint8,bytes32,bytes32)": {
        "params": {
          "deadline": "This permit must be redeemed before this deadline (UTC timestamp in seconds).",
          "owner_": "Address of the owner.",
          "spender": "The address of the spender that gets approved to draw from `owner_`.",
          "value": "The maximum collective amount that `spender` can draw."
        }
      },
      "renounceRole(bytes32,address)": {
        "details": "Revokes `role` from the calling account. Roles are often managed via {grantRole} and {revokeRole}: this function's purpose is to provide a mechanism for accounts to lose their privileges if they are compromised (such as when a trusted device is misplaced). If the calling account had been granted `role`, emits a {RoleRevoked} event. Requirements: - the caller must be `account`."
      },
      "revokeRole(bytes32,address)": {
        "details": "Revokes `role` from `account`. If `account` had been granted `role`, emits a {RoleRevoked} event. Requirements: - the caller must have ``role``'s admin role."
      },
      "symbol()": {
        "details": "Returns the symbol of the token, usually a shorter version of the name."
      },
      "totalSupply()": {
        "details": "See {IERC20-totalSupply}."
      },
      "transfer(address,uint256)": {
        "details": "See {IERC20-transfer}. Requirements: - `recipient` cannot be the zero address. - the caller must have a balance of at least `amount`."
      },
      "transferFrom(address,address,uint256)": {
        "details": "See {IERC20-transferFrom}. Emits an {Approval} event indicating the updated allowance. This is not required by the EIP. See the note at the beginning of {ERC20}; Requirements: - `sender` and `recipient` cannot be the zero address. - `sender` must have a balance of at least `amount`. - the caller must have allowance for ``sender``'s tokens of at least `amount`."
      }
    },
    "stateVariables": {
      "tokenTemplate": {
        "details": "For different token types, this must be incremented."
      }
    },
    "version": 1
  },
  "userdoc": {
    "events": {
      "DelegateChanged(address,address,address)": {
        "notice": "An event thats emitted when an account changes its delegate"
      },
      "DelegateVotesChanged(address,uint256,uint256)": {
        "notice": "An event thats emitted when a delegate account's vote balance changes"
      }
    },
    "kind": "user",
    "methods": {
      "DELEGATION_TYPEHASH()": {
        "notice": "The EIP-712 typehash for the delegation struct used by the contract"
      },
      "DOMAIN_TYPEHASH()": {
        "notice": "The EIP-712 typehash for the contract's domain"
      },
      "checkpoints(address,uint32)": {
        "notice": "A record of votes checkpoints for each account, by index"
      },
      "delegate(address)": {
        "notice": "Delegate votes from `msg.sender` to `delegatee`"
      },
      "delegateBySig(address,uint256,uint256,uint8,bytes32,bytes32)": {
        "notice": "Delegates votes from signatory to `delegatee`"
      },
      "delegates(address)": {
        "notice": "Delegate votes from `msg.sender` to `delegatee`"
      },
      "getCurrentVotes(address)": {
        "notice": "Gets the current votes balance for `account`"
      },
      "getPriorVotes(address,uint256)": {
        "notice": "Determine the prior number of votes for an account as of a block number"
      },
      "mint(address,uint256)": {
        "notice": "Creates `_amount` token to `_to`. Must only be called by the owner (MasterChef)."
      },
      "numCheckpoints(address)": {
        "notice": "The number of checkpoints for each account"
      },
      "permit(address,address,uint256,uint256,uint8,bytes32,bytes32)": {
        "notice": "Approves `value` from `owner_` to be spend by `spender`."
      },
      "sigNonces(address)": {
        "notice": "A record of states for signing / validating signatures"
      },
      "tokenTemplate()": {
        "notice": "Miso template id for the token factory."
      }
    },
    "version": 1
  },
  "storageLayout": {
    "storage": [
      {
        "astId": 14933,
        "contract": "contracts/Tokens/SushiToken.sol:SushiToken",
        "label": "_roles",
        "offset": 0,
        "slot": "0",
        "type": "t_mapping(t_bytes32,t_struct(RoleData)14929_storage)"
      },
      {
        "astId": 18193,
        "contract": "contracts/Tokens/SushiToken.sol:SushiToken",
        "label": "DOMAIN_SEPARATOR",
        "offset": 0,
        "slot": "1",
        "type": "t_bytes32"
      },
      {
        "astId": 18197,
        "contract": "contracts/Tokens/SushiToken.sol:SushiToken",
        "label": "_balances",
        "offset": 0,
        "slot": "2",
        "type": "t_mapping(t_address,t_uint256)"
      },
      {
        "astId": 18201,
        "contract": "contracts/Tokens/SushiToken.sol:SushiToken",
        "label": "nonces",
        "offset": 0,
        "slot": "3",
        "type": "t_mapping(t_address,t_uint256)"
      },
      {
        "astId": 18207,
        "contract": "contracts/Tokens/SushiToken.sol:SushiToken",
        "label": "_allowances",
        "offset": 0,
        "slot": "4",
        "type": "t_mapping(t_address,t_mapping(t_address,t_uint256))"
      },
      {
        "astId": 18209,
        "contract": "contracts/Tokens/SushiToken.sol:SushiToken",
        "label": "_totalSupply",
        "offset": 0,
        "slot": "5",
        "type": "t_uint256"
      },
      {
        "astId": 18211,
        "contract": "contracts/Tokens/SushiToken.sol:SushiToken",
        "label": "_name",
        "offset": 0,
        "slot": "6",
        "type": "t_string_storage"
      },
      {
        "astId": 18213,
        "contract": "contracts/Tokens/SushiToken.sol:SushiToken",
        "label": "_symbol",
        "offset": 0,
        "slot": "7",
        "type": "t_string_storage"
      },
      {
        "astId": 18215,
        "contract": "contracts/Tokens/SushiToken.sol:SushiToken",
        "label": "_decimals",
        "offset": 0,
        "slot": "8",
        "type": "t_uint8"
      },
      {
        "astId": 18217,
        "contract": "contracts/Tokens/SushiToken.sol:SushiToken",
        "label": "_initialized",
        "offset": 1,
        "slot": "8",
        "type": "t_bool"
      },
      {
        "astId": 19376,
        "contract": "contracts/Tokens/SushiToken.sol:SushiToken",
        "label": "_delegates",
        "offset": 0,
        "slot": "9",
        "type": "t_mapping(t_address,t_address)"
      },
      {
        "astId": 19388,
        "contract": "contracts/Tokens/SushiToken.sol:SushiToken",
        "label": "checkpoints",
        "offset": 0,
        "slot": "10",
        "type": "t_mapping(t_address,t_mapping(t_uint32,t_struct(Checkpoint)19381_storage))"
      },
      {
        "astId": 19393,
        "contract": "contracts/Tokens/SushiToken.sol:SushiToken",
        "label": "numCheckpoints",
        "offset": 0,
        "slot": "11",
        "type": "t_mapping(t_address,t_uint32)"
      },
      {
        "astId": 19410,
        "contract": "contracts/Tokens/SushiToken.sol:SushiToken",
        "label": "sigNonces",
        "offset": 0,
        "slot": "12",
        "type": "t_mapping(t_address,t_uint256)"
      }
    ],
    "types": {
      "t_address": {
        "encoding": "inplace",
        "label": "address",
        "numberOfBytes": "20"
      },
      "t_array(t_bytes32)dyn_storage": {
        "base": "t_bytes32",
        "encoding": "dynamic_array",
        "label": "bytes32[]",
        "numberOfBytes": "32"
      },
      "t_bool": {
        "encoding": "inplace",
        "label": "bool",
        "numberOfBytes": "1"
      },
      "t_bytes32": {
        "encoding": "inplace",
        "label": "bytes32",
        "numberOfBytes": "32"
      },
      "t_mapping(t_address,t_address)": {
        "encoding": "mapping",
        "key": "t_address",
        "label": "mapping(address => address)",
        "numberOfBytes": "32",
        "value": "t_address"
      },
      "t_mapping(t_address,t_mapping(t_address,t_uint256))": {
        "encoding": "mapping",
        "key": "t_address",
        "label": "mapping(address => mapping(address => uint256))",
        "numberOfBytes": "32",
        "value": "t_mapping(t_address,t_uint256)"
      },
      "t_mapping(t_address,t_mapping(t_uint32,t_struct(Checkpoint)19381_storage))": {
        "encoding": "mapping",
        "key": "t_address",
        "label": "mapping(address => mapping(uint32 => struct SushiToken.Checkpoint))",
        "numberOfBytes": "32",
        "value": "t_mapping(t_uint32,t_struct(Checkpoint)19381_storage)"
      },
      "t_mapping(t_address,t_uint256)": {
        "encoding": "mapping",
        "key": "t_address",
        "label": "mapping(address => uint256)",
        "numberOfBytes": "32",
        "value": "t_uint256"
      },
      "t_mapping(t_address,t_uint32)": {
        "encoding": "mapping",
        "key": "t_address",
        "label": "mapping(address => uint32)",
        "numberOfBytes": "32",
        "value": "t_uint32"
      },
      "t_mapping(t_bytes32,t_struct(RoleData)14929_storage)": {
        "encoding": "mapping",
        "key": "t_bytes32",
        "label": "mapping(bytes32 => struct AccessControl.RoleData)",
        "numberOfBytes": "32",
        "value": "t_struct(RoleData)14929_storage"
      },
      "t_mapping(t_bytes32,t_uint256)": {
        "encoding": "mapping",
        "key": "t_bytes32",
        "label": "mapping(bytes32 => uint256)",
        "numberOfBytes": "32",
        "value": "t_uint256"
      },
      "t_mapping(t_uint32,t_struct(Checkpoint)19381_storage)": {
        "encoding": "mapping",
        "key": "t_uint32",
        "label": "mapping(uint32 => struct SushiToken.Checkpoint)",
        "numberOfBytes": "32",
        "value": "t_struct(Checkpoint)19381_storage"
      },
      "t_string_storage": {
        "encoding": "bytes",
        "label": "string",
        "numberOfBytes": "32"
      },
      "t_struct(AddressSet)17396_storage": {
        "encoding": "inplace",
        "label": "struct EnumerableSet.AddressSet",
        "members": [
          {
            "astId": 17395,
            "contract": "contracts/Tokens/SushiToken.sol:SushiToken",
            "label": "_inner",
            "offset": 0,
            "slot": "0",
            "type": "t_struct(Set)17131_storage"
          }
        ],
        "numberOfBytes": "64"
      },
      "t_struct(Checkpoint)19381_storage": {
        "encoding": "inplace",
        "label": "struct SushiToken.Checkpoint",
        "members": [
          {
            "astId": 19378,
            "contract": "contracts/Tokens/SushiToken.sol:SushiToken",
            "label": "fromBlock",
            "offset": 0,
            "slot": "0",
            "type": "t_uint32"
          },
          {
            "astId": 19380,
            "contract": "contracts/Tokens/SushiToken.sol:SushiToken",
            "label": "votes",
            "offset": 0,
            "slot": "1",
            "type": "t_uint256"
          }
        ],
        "numberOfBytes": "64"
      },
      "t_struct(RoleData)14929_storage": {
        "encoding": "inplace",
        "label": "struct AccessControl.RoleData",
        "members": [
          {
            "astId": 14926,
            "contract": "contracts/Tokens/SushiToken.sol:SushiToken",
            "label": "members",
            "offset": 0,
            "slot": "0",
            "type": "t_struct(AddressSet)17396_storage"
          },
          {
            "astId": 14928,
            "contract": "contracts/Tokens/SushiToken.sol:SushiToken",
            "label": "adminRole",
            "offset": 0,
            "slot": "2",
            "type": "t_bytes32"
          }
        ],
        "numberOfBytes": "96"
      },
      "t_struct(Set)17131_storage": {
        "encoding": "inplace",
        "label": "struct EnumerableSet.Set",
        "members": [
          {
            "astId": 17126,
            "contract": "contracts/Tokens/SushiToken.sol:SushiToken",
            "label": "_values",
            "offset": 0,
            "slot": "0",
            "type": "t_array(t_bytes32)dyn_storage"
          },
          {
            "astId": 17130,
            "contract": "contracts/Tokens/SushiToken.sol:SushiToken",
            "label": "_indexes",
            "offset": 0,
            "slot": "1",
            "type": "t_mapping(t_bytes32,t_uint256)"
          }
        ],
        "numberOfBytes": "64"
      },
      "t_uint256": {
        "encoding": "inplace",
        "label": "uint256",
        "numberOfBytes": "32"
      },
      "t_uint32": {
        "encoding": "inplace",
        "label": "uint32",
        "numberOfBytes": "4"
      },
      "t_uint8": {
        "encoding": "inplace",
        "label": "uint8",
        "numberOfBytes": "1"
      }
    }
  }
}