{
  "address": "0x77185e48DdC269B2d7D3b2938Df5862f8e601E0f",
  "abi": [
    {
      "inputs": [],
      "stateMutability": "nonpayable",
      "type": "constructor"
    },
    {
      "anonymous": false,
      "inputs": [
        {
          "indexed": true,
          "internalType": "address",
          "name": "owner",
          "type": "address"
        },
        {
          "indexed": true,
          "internalType": "address",
          "name": "addr",
          "type": "address"
        },
        {
          "indexed": false,
          "internalType": "address",
          "name": "launcherTemplate",
          "type": "address"
        }
      ],
      "name": "LauncherCreated",
      "type": "event"
    },
    {
      "anonymous": false,
      "inputs": [
        {
          "indexed": false,
          "internalType": "address",
          "name": "newLauncher",
          "type": "address"
        },
        {
          "indexed": false,
          "internalType": "uint256",
          "name": "templateId",
          "type": "uint256"
        }
      ],
      "name": "LauncherTemplateAdded",
      "type": "event"
    },
    {
      "anonymous": false,
      "inputs": [
        {
          "indexed": false,
          "internalType": "address",
          "name": "launcher",
          "type": "address"
        },
        {
          "indexed": false,
          "internalType": "uint256",
          "name": "templateId",
          "type": "uint256"
        }
      ],
      "name": "LauncherTemplateRemoved",
      "type": "event"
    },
    {
      "anonymous": false,
      "inputs": [
        {
          "indexed": false,
          "internalType": "address",
          "name": "sender",
          "type": "address"
        }
      ],
      "name": "MisoInitLauncher",
      "type": "event"
    },
    {
      "inputs": [],
      "name": "LAUNCHER_MINTER_ROLE",
      "outputs": [
        {
          "internalType": "bytes32",
          "name": "",
          "type": "bytes32"
        }
      ],
      "stateMutability": "view",
      "type": "function"
    },
    {
      "inputs": [],
      "name": "WETH",
      "outputs": [
        {
          "internalType": "address",
          "name": "",
          "type": "address"
        }
      ],
      "stateMutability": "view",
      "type": "function"
    },
    {
      "inputs": [],
      "name": "accessControls",
      "outputs": [
        {
          "internalType": "contract MISOAccessControls",
          "name": "",
          "type": "address"
        }
      ],
      "stateMutability": "view",
      "type": "function"
    },
    {
      "inputs": [
        {
          "internalType": "address",
          "name": "_template",
          "type": "address"
        }
      ],
      "name": "addLiquidityLauncherTemplate",
      "outputs": [],
      "stateMutability": "nonpayable",
      "type": "function"
    },
    {
      "inputs": [],
      "name": "bentoBox",
      "outputs": [
        {
          "internalType": "contract IBentoBoxFactory",
          "name": "",
          "type": "address"
        }
      ],
      "stateMutability": "view",
      "type": "function"
    },
    {
      "inputs": [
        {
          "internalType": "uint256",
          "name": "_templateId",
          "type": "uint256"
        },
        {
          "internalType": "address",
          "name": "_token",
          "type": "address"
        },
        {
          "internalType": "uint256",
          "name": "_tokenSupply",
          "type": "uint256"
        },
        {
          "internalType": "address payable",
          "name": "_integratorFeeAccount",
          "type": "address"
        },
        {
          "internalType": "bytes",
          "name": "_data",
          "type": "bytes"
        }
      ],
      "name": "createLauncher",
      "outputs": [
        {
          "internalType": "address",
          "name": "newLauncher",
          "type": "address"
        }
      ],
      "stateMutability": "payable",
      "type": "function"
    },
    {
      "inputs": [
        {
          "internalType": "uint256",
          "name": "",
          "type": "uint256"
        }
      ],
      "name": "currentTemplateId",
      "outputs": [
        {
          "internalType": "uint256",
          "name": "",
          "type": "uint256"
        }
      ],
      "stateMutability": "view",
      "type": "function"
    },
    {
      "inputs": [
        {
          "internalType": "uint256",
          "name": "_templateId",
          "type": "uint256"
        },
        {
          "internalType": "address payable",
          "name": "_integratorFeeAccount",
          "type": "address"
        }
      ],
      "name": "deployLauncher",
      "outputs": [
        {
          "internalType": "address",
          "name": "launcher",
          "type": "address"
        }
      ],
      "stateMutability": "payable",
      "type": "function"
    },
    {
      "inputs": [
        {
          "internalType": "address",
          "name": "_launcher",
          "type": "address"
        }
      ],
      "name": "getLauncherTemplateId",
      "outputs": [
        {
          "internalType": "uint64",
          "name": "",
          "type": "uint64"
        }
      ],
      "stateMutability": "view",
      "type": "function"
    },
    {
      "inputs": [],
      "name": "getLaunchers",
      "outputs": [
        {
          "internalType": "address[]",
          "name": "",
          "type": "address[]"
        }
      ],
      "stateMutability": "view",
      "type": "function"
    },
    {
      "inputs": [
        {
          "internalType": "uint256",
          "name": "_templateId",
          "type": "uint256"
        }
      ],
      "name": "getLiquidityLauncherTemplate",
      "outputs": [
        {
          "internalType": "address",
          "name": "",
          "type": "address"
        }
      ],
      "stateMutability": "view",
      "type": "function"
    },
    {
      "inputs": [
        {
          "internalType": "address",
          "name": "_launcherTemplate",
          "type": "address"
        }
      ],
      "name": "getTemplateId",
      "outputs": [
        {
          "internalType": "uint256",
          "name": "",
          "type": "uint256"
        }
      ],
      "stateMutability": "view",
      "type": "function"
    },
    {
      "inputs": [
        {
          "internalType": "address",
          "name": "_address",
          "type": "address"
        }
      ],
      "name": "hasLauncherMinterRole",
      "outputs": [
        {
          "internalType": "bool",
          "name": "",
          "type": "bool"
        }
      ],
      "stateMutability": "view",
      "type": "function"
    },
    {
      "inputs": [
        {
          "internalType": "address",
          "name": "_accessControls",
          "type": "address"
        },
        {
          "internalType": "address",
          "name": "_WETH",
          "type": "address"
        },
        {
          "internalType": "address",
          "name": "_bentoBox",
          "type": "address"
        }
      ],
      "name": "initMISOLauncher",
      "outputs": [],
      "stateMutability": "nonpayable",
      "type": "function"
    },
    {
      "inputs": [],
      "name": "launcherFees",
      "outputs": [
        {
          "internalType": "uint128",
          "name": "minimumFee",
          "type": "uint128"
        },
        {
          "internalType": "uint32",
          "name": "integratorFeePct",
          "type": "uint32"
        }
      ],
      "stateMutability": "view",
      "type": "function"
    },
    {
      "inputs": [
        {
          "internalType": "address",
          "name": "",
          "type": "address"
        }
      ],
      "name": "launcherInfo",
      "outputs": [
        {
          "internalType": "bool",
          "name": "exists",
          "type": "bool"
        },
        {
          "internalType": "uint64",
          "name": "templateId",
          "type": "uint64"
        },
        {
          "internalType": "uint128",
          "name": "index",
          "type": "uint128"
        }
      ],
      "stateMutability": "view",
      "type": "function"
    },
    {
      "inputs": [],
      "name": "launcherTemplateId",
      "outputs": [
        {
          "internalType": "uint256",
          "name": "",
          "type": "uint256"
        }
      ],
      "stateMutability": "view",
      "type": "function"
    },
    {
      "inputs": [
        {
          "internalType": "uint256",
          "name": "",
          "type": "uint256"
        }
      ],
      "name": "launchers",
      "outputs": [
        {
          "internalType": "address",
          "name": "",
          "type": "address"
        }
      ],
      "stateMutability": "view",
      "type": "function"
    },
    {
      "inputs": [],
      "name": "locked",
      "outputs": [
        {
          "internalType": "bool",
          "name": "",
          "type": "bool"
        }
      ],
      "stateMutability": "view",
      "type": "function"
    },
    {
      "inputs": [],
      "name": "minimumFee",
      "outputs": [
        {
          "internalType": "uint128",
          "name": "",
          "type": "uint128"
        }
      ],
      "stateMutability": "view",
      "type": "function"
    },
    {
      "inputs": [],
      "name": "misoDiv",
      "outputs": [
        {
          "internalType": "address payable",
          "name": "",
          "type": "address"
        }
      ],
      "stateMutability": "view",
      "type": "function"
    },
    {
      "inputs": [],
      "name": "numberOfLiquidityLauncherContracts",
      "outputs": [
        {
          "internalType": "uint256",
          "name": "",
          "type": "uint256"
        }
      ],
      "stateMutability": "view",
      "type": "function"
    },
    {
      "inputs": [
        {
          "internalType": "uint256",
          "name": "_templateId",
          "type": "uint256"
        }
      ],
      "name": "removeLiquidityLauncherTemplate",
      "outputs": [],
      "stateMutability": "nonpayable",
      "type": "function"
    },
    {
      "inputs": [
        {
          "internalType": "uint256",
          "name": "_templateType",
          "type": "uint256"
        },
        {
          "internalType": "uint256",
          "name": "_templateId",
          "type": "uint256"
        }
      ],
      "name": "setCurrentTemplateId",
      "outputs": [],
      "stateMutability": "nonpayable",
      "type": "function"
    },
    {
      "inputs": [
        {
          "internalType": "address payable",
          "name": "_divaddr",
          "type": "address"
        }
      ],
      "name": "setDividends",
      "outputs": [],
      "stateMutability": "nonpayable",
      "type": "function"
    },
    {
      "inputs": [
        {
          "internalType": "uint256",
          "name": "_amount",
          "type": "uint256"
        }
      ],
      "name": "setIntegratorFeePct",
      "outputs": [],
      "stateMutability": "nonpayable",
      "type": "function"
    },
    {
      "inputs": [
        {
          "internalType": "bool",
          "name": "_locked",
          "type": "bool"
        }
      ],
      "name": "setLocked",
      "outputs": [],
      "stateMutability": "nonpayable",
      "type": "function"
    },
    {
      "inputs": [
        {
          "internalType": "uint256",
          "name": "_amount",
          "type": "uint256"
        }
      ],
      "name": "setMinimumFee",
      "outputs": [],
      "stateMutability": "nonpayable",
      "type": "function"
    }
  ],
  "transactionHash": "0xfc9e1fa130b97b8277368f8bbf02901dcd2a8084c40e263623cdeb8f8f4fb667",
  "args": [],
  "solcInputHash": "d1b4fa5f316a6a8ee3524e1600e2925f",
  "bytecode": "0x608060405234801561001057600080fd5b5061204b806100206000396000f3fe6080604052600436106101b75760003560e01c806386adc322116100ec578063ad5c46481161008a578063cd70f73411610064578063cd70f734146106aa578063cf309012146106d6578063d335ebda146106eb578063fcb62f901461071e576101b7565b8063ad5c464814610630578063bc79913b14610645578063c9907b0814610695576101b7565b806396f1266e116100c657806396f1266e146105735780639e5940cc146105885780639e9188ea146105b8578063a5f4d70f146105eb576101b7565b806386adc322146104ed5780638c363a0b1461050257806392787b4814610549576101b7565b80636b2ace871161015957806370433d031161013357806370433d031461042b578063748365ef146104905780637b7fb153146104a55780638637e041146104d8576101b7565b80636b2ace87146103875780636c4ceb361461039c5780636de88d9714610401576101b7565b80632ed4f578116101955780632ed4f578146102455780633eb63aa0146102815780633f1f44b0146102c7578063632cef90146102f1576101b7565b8063182a7506146101bc5780631a7626e7146101e8578063211e28b614610219575b600080fd5b3480156101c857600080fd5b506101e6600480360360208110156101df57600080fd5b503561075b565b005b3480156101f457600080fd5b506101fd610842565b604080516001600160801b039092168252519081900360200190f35b34801561022557600080fd5b506101e66004803603602081101561023c57600080fd5b50351515610851565b34801561025157600080fd5b5061026f6004803603602081101561026857600080fd5b5035610916565b60408051918252519081900360200190f35b34801561028d57600080fd5b506102ab600480360360208110156102a457600080fd5b5035610928565b604080516001600160a01b039092168252519081900360200190f35b3480156102d357600080fd5b506101e6600480360360208110156102ea57600080fd5b503561094f565b6102ab600480360360a081101561030757600080fd5b8135916001600160a01b0360208201358116926040830135926060810135909216919081019060a08101608082013564010000000081111561034857600080fd5b82018360208201111561035a57600080fd5b8035906020019184600183028401116401000000008311171561037c57600080fd5b509092509050610a73565b34801561039357600080fd5b506102ab610c79565b3480156103a857600080fd5b506103cf600480360360208110156103bf57600080fd5b50356001600160a01b0316610c88565b60408051931515845267ffffffffffffffff90921660208401526001600160801b031682820152519081900360600190f35b34801561040d57600080fd5b506102ab6004803603602081101561042457600080fd5b5035610cbf565b34801561043757600080fd5b50610440610cda565b60408051602080825283518183015283519192839290830191858101910280838360005b8381101561047c578181015183820152602001610464565b505050509050019250505060405180910390f35b34801561049c57600080fd5b506102ab610d3c565b3480156104b157600080fd5b506101e6600480360360208110156104c857600080fd5b50356001600160a01b0316610d4b565b3480156104e457600080fd5b5061026f610fb0565b3480156104f957600080fd5b5061026f610fd4565b34801561050e57600080fd5b506105356004803603602081101561052557600080fd5b50356001600160a01b0316610fda565b604080519115158252519081900360200190f35b34801561055557600080fd5b506101e66004803603602081101561056c57600080fd5b5035611080565b34801561057f57600080fd5b5061026f611244565b34801561059457600080fd5b506101e6600480360360408110156105ab57600080fd5b508035906020013561124a565b3480156105c457600080fd5b506101e6600480360360208110156105db57600080fd5b50356001600160a01b031661138c565b3480156105f757600080fd5b506101e66004803603606081101561060e57600080fd5b506001600160a01b038135811691602081013582169160409091013516611479565b34801561063c57600080fd5b506102ab6115ec565b34801561065157600080fd5b506106786004803603602081101561066857600080fd5b50356001600160a01b03166115fb565b6040805167ffffffffffffffff9092168252519081900360200190f35b3480156106a157600080fd5b506102ab611625565b6102ab600480360360408110156106c057600080fd5b50803590602001356001600160a01b0316611639565b3480156106e257600080fd5b50610535611b25565b3480156106f757600080fd5b5061026f6004803603602081101561070e57600080fd5b50356001600160a01b0316611b2e565b34801561072a57600080fd5b50610733611b49565b604080516001600160801b03909316835263ffffffff90911660208301528051918290030190f35b6000546040805163c395fcb360e01b815233600482015290516001600160a01b039092169163c395fcb391602480820192602092909190829003018186803b1580156107a657600080fd5b505afa1580156107ba573d6000803e3d6000fd5b505050506040513d60208110156107d057600080fd5b505161080d5760405162461bcd60e51b8152600401808060200182810382526025815260200180611e6c6025913960400191505060405180910390fd5b61081681611b67565b600980546fffffffffffffffffffffffffffffffff19166001600160801b039290921691909117905550565b6009546001600160801b031690565b6000546040805163c395fcb360e01b815233600482015290516001600160a01b039092169163c395fcb391602480820192602092909190829003018186803b15801561089c57600080fd5b505afa1580156108b0573d6000803e3d6000fd5b505050506040513d60208110156108c657600080fd5b50516109035760405162461bcd60e51b8152600401808060200182810382526022815260200180611f096022913960400191505060405180910390fd5b600a805460ff1916911515919091179055565b60076020526000908152604090205481565b6001818154811061093557fe5b6000918252602090912001546001600160a01b0316905081565b6000546040805163c395fcb360e01b815233600482015290516001600160a01b039092169163c395fcb391602480820192602092909190829003018186803b15801561099a57600080fd5b505afa1580156109ae573d6000803e3d6000fd5b505050506040513d60208110156109c457600080fd5b5051610a015760405162461bcd60e51b8152600401808060200182810382526025815260200180611e6c6025913960400191505060405180910390fd5b6103e8811115610a425760405162461bcd60e51b8152600401808060200182810382526027815260200180611e916027913960400191505060405180910390fd5b610a4b81611bc9565b6009805463ffffffff92909216600160801b0263ffffffff60801b1990921691909117905550565b6000610a7f8785611639565b90508415610b4a57610a92863387611c24565b856001600160a01b031663095ea7b382876040518363ffffffff1660e01b815260040180836001600160a01b0316815260200182815260200192505050602060405180830381600087803b158015610ae957600080fd5b505af1158015610afd573d6000803e3d6000fd5b505050506040513d6020811015610b1357600080fd5b5051610b4a576040805162461bcd60e51b81526020600482015260016024820152603160f81b604482015290519081900360640190fd5b604051637c17e46760e11b8152602060048201908152602482018490526001600160a01b0383169163f82fc8ce9186918691908190604401848480828437600081840152601f19601f8201169050808301925050509350505050600060405180830381600087803b158015610bbe57600080fd5b505af1158015610bd2573d6000803e3d6000fd5b505050506000851115610c6f576000866001600160a01b03166370a08231306040518263ffffffff1660e01b815260040180826001600160a01b0316815260200191505060206040518083038186803b158015610c2e57600080fd5b505afa158015610c42573d6000803e3d6000fd5b505050506040513d6020811015610c5857600080fd5b505190508015610c6d57610c6d873383611d4c565b505b9695505050505050565b6004546001600160a01b031681565b60086020526000908152604090205460ff811690610100810467ffffffffffffffff1690600160481b90046001600160801b031683565b6000908152600560205260409020546001600160a01b031690565b60606001805480602002602001604051908101604052809291908181526020018280548015610d3257602002820191906000526020600020905b81546001600160a01b03168152600190910190602001808311610d14575b5050505050905090565b6000546001600160a01b031681565b6000546040805163c395fcb360e01b815233600482015290516001600160a01b039092169163c395fcb391602480820192602092909190829003018186803b158015610d9657600080fd5b505afa158015610daa573d6000803e3d6000fd5b505050506040513d6020811015610dc057600080fd5b505180610e40575060005460408051637e271f0560e11b815233600482015290516001600160a01b039092169163fc4e3e0a91602480820192602092909190829003018186803b158015610e1357600080fd5b505afa158015610e27573d6000803e3d6000fd5b505050506040513d6020811015610e3d57600080fd5b50515b610e7b5760405162461bcd60e51b8152600401808060200182810382526025815260200180611e6c6025913960400191505060405180910390fd5b6000816001600160a01b0316638566de4b6040518163ffffffff1660e01b815260040160206040518083038186803b158015610eb657600080fd5b505afa158015610eca573d6000803e3d6000fd5b505050506040513d6020811015610ee057600080fd5b5051905080610f205760405162461bcd60e51b8152600401808060200182810382526026815260200180611eb86026913960400191505060405180910390fd5b60028054600101808255600090815260056020908152604080832080546001600160a01b0319166001600160a01b038816908117909155935484845260068352818420819055858452600783529281902083905580519384529083019190915280517f6c52e34db307a16709b387d61b2de0b4dd4a2ef6fd68b04b5515ef00a533b18f9281900390910190a15050565b7fceb69df9dd42f6c115645ad1e6ac8c9f124a39546dd50de2e04024128b14698081565b60015490565b6000805460408051632474521560e21b81527fceb69df9dd42f6c115645ad1e6ac8c9f124a39546dd50de2e04024128b14698060048201526001600160a01b038581166024830152915191909216916391d14854916044808301926020929190829003018186803b15801561104e57600080fd5b505afa158015611062573d6000803e3d6000fd5b505050506040513d602081101561107857600080fd5b505192915050565b6000546040805163c395fcb360e01b815233600482015290516001600160a01b039092169163c395fcb391602480820192602092909190829003018186803b1580156110cb57600080fd5b505afa1580156110df573d6000803e3d6000fd5b505050506040513d60208110156110f557600080fd5b505180611175575060005460408051637e271f0560e11b815233600482015290516001600160a01b039092169163fc4e3e0a91602480820192602092909190829003018186803b15801561114857600080fd5b505afa15801561115c573d6000803e3d6000fd5b505050506040513d602081101561117257600080fd5b50515b6111b05760405162461bcd60e51b8152600401808060200182810382526025815260200180611e6c6025913960400191505060405180910390fd5b6000818152600560205260409020546001600160a01b03166111d157600080fd5b600081815260056020908152604080832080546001600160a01b031981169091556001600160a01b03168084526006835281842093909355805183815291820184905280517f9c4b27a4ee95cde6444d871111211ff603accbdff0b4e96e07af9f4eba52be579281900390910190a15050565b60025481565b6000546040805163c395fcb360e01b815233600482015290516001600160a01b039092169163c395fcb391602480820192602092909190829003018186803b15801561129557600080fd5b505afa1580156112a9573d6000803e3d6000fd5b505050506040513d60208110156112bf57600080fd5b50518061133f575060005460408051637e271f0560e11b815233600482015290516001600160a01b039092169163fc4e3e0a91602480820192602092909190829003018186803b15801561131257600080fd5b505afa158015611326573d6000803e3d6000fd5b505050506040513d602081101561133c57600080fd5b50515b61137a5760405162461bcd60e51b8152600401808060200182810382526022815260200180611f096022913960400191505060405180910390fd5b60009182526007602052604090912055565b6000546040805163c395fcb360e01b815233600482015290516001600160a01b039092169163c395fcb391602480820192602092909190829003018186803b1580156113d757600080fd5b505afa1580156113eb573d6000803e3d6000fd5b505050506040513d602081101561140157600080fd5b505161143e5760405162461bcd60e51b815260040180806020018281038252602c815260200180611f58602c913960400191505060405180910390fd5b6001600160a01b03811661145157600080fd5b600a80546001600160a01b0390921661010002610100600160a81b0319909216919091179055565b600054600160a01b900460ff161561149057600080fd5b6001600160a01b0382166114d55760405162461bcd60e51b815260040180806020018281038252602c815260200180611fea602c913960400191505060405180910390fd5b6001600160a01b03831661151a5760405162461bcd60e51b8152600401808060200182810382526036815260200180611f846036913960400191505060405180910390fd5b6001600160a01b03811661155f5760405162461bcd60e51b8152600401808060200182810382526030815260200180611fba6030913960400191505060405180910390fd5b60008054600480546001600160a01b038581166001600160a01b03199283161790925560038054878416908316179055600a805460ff1916600117905560ff60a01b1991871692169190911716600160a01b1790556040805133815290517f273553a2db9d9c7afb53120e2c4a60f274686bbe8e64b350d64aaa9d6289397e9181900360200190a1505050565b6003546001600160a01b031681565b6001600160a01b0316600090815260086020526040902054610100900467ffffffffffffffff1690565b600a5461010090046001600160a01b031681565b600a5460009060ff1615611786576000546040805163c395fcb360e01b815233600482015290516001600160a01b039092169163c395fcb391602480820192602092909190829003018186803b15801561169257600080fd5b505afa1580156116a6573d6000803e3d6000fd5b505050506040513d60208110156116bc57600080fd5b50518061173c57506000546040805163099db01760e01b815233600482015290516001600160a01b039092169163099db01791602480820192602092909190829003018186803b15801561170f57600080fd5b505afa158015611723573d6000803e3d6000fd5b505050506040513d602081101561173957600080fd5b50515b8061174b575061174b33610fda565b6117865760405162461bcd60e51b815260040180806020018281038252602d815260200180611f2b602d913960400191505060405180910390fd5b61178e611e27565b506040805180820182526009546001600160801b038082168352600160801b90910463ffffffff16602080840191909152600087815260059091529290922054815191926001600160a01b03909116911634101561181d5760405162461bcd60e51b815260040180806020018281038252602b815260200180611ede602b913960400191505060405180910390fd5b6001600160a01b0381166118625760405162461bcd60e51b815260040180806020018281038252602d815260200180611e3f602d913960400191505060405180910390fd5b6000346001600160a01b038616158015906118905750600a546001600160a01b038781166101009092041614155b156118b3576103e8846020015163ffffffff168202816118ac57fe5b0491508190035b6004805460408051631f54245b60e01b81526001600160a01b0387811694820194909452600060448201819052606060248301526064820181905291519390921692631f54245b9260a4808201936020939283900390910190829087803b15801561191d57600080fd5b505af1158015611931573d6000803e3d6000fd5b505050506040513d602081101561194757600080fd5b50516040805160608101909152600181529095506020810161196889611dc8565b67ffffffffffffffff168152602001611985600180549050611b67565b6001600160801b039081169091526001600160a01b038088166000818152600860209081526040808320875181548985015199840151909816600160481b0278ffffffffffffffffffffffffffffffff0000000000000000001967ffffffffffffffff909a166101000268ffffffffffffffff001992151560ff19909a169990991791909116979097179790971695909517909555600180548082019091557fb10e2d527612073b26eecdfd717e6a320cf44b4afac2b0732d9fcbe2b7fa0cf60180546001600160a01b031916831790558b815260058552839020548351921682529151919233927f3ba8b254094e662ed7500a3ad77fd9f4f041f221a7b9f0714e3fdbf324c5d8639281900390910190a38015611add57600a546040516101009091046001600160a01b0316906108fc8315029083906000818181858888f19350505050158015611adb573d6000803e3d6000fd5b505b8115611b1b576040516001600160a01b0387169083156108fc029084906000818181858888f19350505050158015611b19573d6000803e3d6000fd5b505b5050505092915050565b600a5460ff1681565b6001600160a01b031660009081526006602052604090205490565b6009546001600160801b03811690600160801b900463ffffffff1682565b60006001600160801b03821115611bc5576040805162461bcd60e51b815260206004820152601c60248201527f426f72696e674d6174683a2075696e74313238204f766572666c6f7700000000604482015290519081900360640190fd5b5090565b600063ffffffff821115611bc5576040805162461bcd60e51b815260206004820152601b60248201527f426f72696e674d6174683a2075696e743332204f766572666c6f770000000000604482015290519081900360640190fd5b604080516001600160a01b038481166024830152306044830152606480830185905283518084039091018152608490920183526020820180516001600160e01b03166323b872dd60e01b178152925182516000946060949389169392918291908083835b60208310611ca75780518252601f199092019160209182019101611c88565b6001836020036101000a0380198251168184511680821785525050505050509050019150506000604051808303816000865af19150503d8060008114611d09576040519150601f19603f3d011682016040523d82523d6000602084013e611d0e565b606091505b5091509150818015611d3c575080511580611d3c5750808060200190516020811015611d3957600080fd5b50515b611d4557600080fd5b5050505050565b604080516001600160a01b038481166024830152604480830185905283518084039091018152606490920183526020820180516001600160e01b031663a9059cbb60e01b1781529251825160009460609493891693929182919080838360208310611ca75780518252601f199092019160209182019101611c88565b600067ffffffffffffffff821115611bc5576040805162461bcd60e51b815260206004820152601b60248201527f426f72696e674d6174683a2075696e743634204f766572666c6f770000000000604482015290519081900360640190fd5b60408051808201909152600080825260208201529056fe4d49534f4c61756e636865723a204c61756e636865722074656d706c61746520646f65736e27742065786973744d49534f4c61756e636865723a2053656e646572206d757374206265206f70657261746f724d49534f4c61756e636865723a2050657263656e74616765206973206f7574206f6620313030304d49534f4c61756e636865723a20496e636f72726563742074656d706c61746520636f6465204d49534f4c61756e636865723a204661696c656420746f207472616e73666572206d696e696d756d4665654d49534f4c61756e636865723a2053656e646572206d7573742062652061646d696e4d49534f4c61756e636865723a2053656e646572206d757374206265206d696e746572206966206c6f636b65644d49534f4c61756e636865722e7365744465763a2053656e646572206d757374206265206f70657261746f72696e69744d49534f4c61756e636865723a20616363657373436f6e74726f6c732063616e6e6f742062652073657420746f207a65726f696e69744d49534f4c61756e636865723a2062656e746f426f782063616e6e6f742062652073657420746f207a65726f696e69744d49534f4c61756e636865723a20574554482063616e6e6f742062652073657420746f207a65726fa26469706673582212200df6b1aa6bb715d5b2e0155b7b554a4a461133216579029bc9e92d63b2b7909c64736f6c634300060c0033",
  "devdoc": {
    "kind": "dev",
    "methods": {
      "addLiquidityLauncherTemplate(address)": {
        "details": "Should have operator access",
        "params": {
          "_template": "Launcher template address."
        }
      },
      "createLauncher(uint256,address,uint256,address,bytes)": {
        "details": "Initializes auction with the parameters passed.",
        "params": {
          "_data": "Data to be sent to template on Init.",
          "_integratorFeeAccount": "Address to send refferal bonus, if set.",
          "_templateId": "Id of the auction template to create.",
          "_token": "The token address to be sold.",
          "_tokenSupply": "Amount of tokens to be sold at market."
        },
        "returns": {
          "newLauncher": "Launcher address."
        }
      },
      "deployLauncher(uint256,address)": {
        "params": {
          "_integratorFeeAccount": "Address to pay the fee to.",
          "_templateId": "Template id of the launcher to create."
        },
        "returns": {
          "launcher": " Launcher address."
        }
      },
      "getLiquidityLauncherTemplate(uint256)": {
        "params": {
          "_templateId": "Launcher template ID."
        },
        "returns": {
          "_0": "address of the required template ID."
        }
      },
      "hasLauncherMinterRole(address)": {
        "params": {
          "_address": "EOA or contract being checked"
        },
        "returns": {
          "_0": "bool True if the account has the role or false if it does not"
        }
      },
      "initMISOLauncher(address,address,address)": {
        "details": "Can only be initialized once.",
        "params": {
          "_accessControls": "Sets address to get the access controls from."
        }
      },
      "numberOfLiquidityLauncherContracts()": {
        "returns": {
          "_0": "uint256 Launcher count."
        }
      },
      "removeLiquidityLauncherTemplate(uint256)": {
        "details": "Function to remove a launcher template from factory.Should have operator access.",
        "params": {
          "_templateId": "Id of the template to be deleted."
        }
      },
      "setCurrentTemplateId(uint256,uint256)": {
        "params": {
          "_templateId": "The ID of the current template for that type",
          "_templateType": "Type of template."
        }
      },
      "setDividends(address)": {
        "params": {
          "_divaddr": "Dividend address."
        }
      },
      "setIntegratorFeePct(uint256)": {
        "params": {
          "_amount": "Percentage amount."
        }
      },
      "setLocked(bool)": {
        "params": {
          "_locked": "bool."
        }
      },
      "setMinimumFee(uint256)": {
        "params": {
          "_amount": "Fee amount."
        }
      }
    },
    "version": 1
  },
  "userdoc": {
    "events": {
      "LauncherCreated(address,address,address)": {
        "notice": "Event emitted when launcher is created using template id."
      },
      "LauncherTemplateAdded(address,uint256)": {
        "notice": "Event emitted when launcher template is added to factory."
      },
      "LauncherTemplateRemoved(address,uint256)": {
        "notice": "Event emitted when launcher template is removed."
      },
      "MisoInitLauncher(address)": {
        "notice": "Event emitted when first intializing the liquidity launcher."
      }
    },
    "kind": "user",
    "methods": {
      "WETH()": {
        "notice": "Address for Wrapped Ether."
      },
      "accessControls()": {
        "notice": "Responsible for access rights to the contract."
      },
      "addLiquidityLauncherTemplate(address)": {
        "notice": "Function to add a launcher template to create through factory."
      },
      "createLauncher(uint256,address,uint256,address,bytes)": {
        "notice": "Creates a new MISOLauncher using _templateId."
      },
      "deployLauncher(uint256,address)": {
        "notice": "Creates a launcher corresponding to _templateId."
      },
      "getLiquidityLauncherTemplate(uint256)": {
        "notice": "Get the address based on launcher template ID."
      },
      "hasLauncherMinterRole(address)": {
        "notice": "Used to check whether an address has the minter role"
      },
      "initMISOLauncher(address,address,address)": {
        "notice": "Single gateway to initialize the MISO Launcher with proper address."
      },
      "launcherFees()": {
        "notice": "Minimum fee to create a launcher through the factory."
      },
      "launcherInfo(address)": {
        "notice": "Mapping from auction created through this contract to Auction struct."
      },
      "launcherTemplateId()": {
        "notice": "Template id to track respective auction template."
      },
      "launchers(uint256)": {
        "notice": "All the launchers created using factory."
      },
      "locked()": {
        "notice": "Contract locked status. If locked, only minters can deploy"
      },
      "misoDiv()": {
        "notice": "Any donations if set are sent here."
      },
      "numberOfLiquidityLauncherContracts()": {
        "notice": "Get the total number of launchers in the contract."
      },
      "setCurrentTemplateId(uint256,uint256)": {
        "notice": "Sets the current template ID for any type."
      },
      "setDividends(address)": {
        "notice": "Sets dividend address."
      },
      "setIntegratorFeePct(uint256)": {
        "notice": "Sets integrator fee percentage."
      },
      "setLocked(bool)": {
        "notice": "Sets the factory to be locked or unlocked."
      },
      "setMinimumFee(uint256)": {
        "notice": "Sets the minimum fee."
      }
    },
    "version": 1
  },
  "storageLayout": {
    "storage": [
      {
        "astId": 12656,
        "contract": "contracts/MISOLauncher.sol:MISOLauncher",
        "label": "accessControls",
        "offset": 0,
        "slot": "0",
        "type": "t_contract(MISOAccessControls)563"
      },
      {
        "astId": 12664,
        "contract": "contracts/MISOLauncher.sol:MISOLauncher",
        "label": "initialised",
        "offset": 20,
        "slot": "0",
        "type": "t_bool"
      },
      {
        "astId": 12675,
        "contract": "contracts/MISOLauncher.sol:MISOLauncher",
        "label": "launchers",
        "offset": 0,
        "slot": "1",
        "type": "t_array(t_address)dyn_storage"
      },
      {
        "astId": 12678,
        "contract": "contracts/MISOLauncher.sol:MISOLauncher",
        "label": "launcherTemplateId",
        "offset": 0,
        "slot": "2",
        "type": "t_uint256"
      },
      {
        "astId": 12681,
        "contract": "contracts/MISOLauncher.sol:MISOLauncher",
        "label": "WETH",
        "offset": 0,
        "slot": "3",
        "type": "t_address"
      },
      {
        "astId": 12683,
        "contract": "contracts/MISOLauncher.sol:MISOLauncher",
        "label": "bentoBox",
        "offset": 0,
        "slot": "4",
        "type": "t_contract(IBentoBoxFactory)25743"
      },
      {
        "astId": 12688,
        "contract": "contracts/MISOLauncher.sol:MISOLauncher",
        "label": "launcherTemplates",
        "offset": 0,
        "slot": "5",
        "type": "t_mapping(t_uint256,t_address)"
      },
      {
        "astId": 12693,
        "contract": "contracts/MISOLauncher.sol:MISOLauncher",
        "label": "launcherTemplateToId",
        "offset": 0,
        "slot": "6",
        "type": "t_mapping(t_address,t_uint256)"
      },
      {
        "astId": 12697,
        "contract": "contracts/MISOLauncher.sol:MISOLauncher",
        "label": "currentTemplateId",
        "offset": 0,
        "slot": "7",
        "type": "t_mapping(t_uint256,t_uint256)"
      },
      {
        "astId": 12702,
        "contract": "contracts/MISOLauncher.sol:MISOLauncher",
        "label": "launcherInfo",
        "offset": 0,
        "slot": "8",
        "type": "t_mapping(t_address,t_struct(Launcher)12671_storage)"
      },
      {
        "astId": 12710,
        "contract": "contracts/MISOLauncher.sol:MISOLauncher",
        "label": "launcherFees",
        "offset": 0,
        "slot": "9",
        "type": "t_struct(LauncherFees)12707_storage"
      },
      {
        "astId": 12713,
        "contract": "contracts/MISOLauncher.sol:MISOLauncher",
        "label": "locked",
        "offset": 0,
        "slot": "10",
        "type": "t_bool"
      },
      {
        "astId": 12716,
        "contract": "contracts/MISOLauncher.sol:MISOLauncher",
        "label": "misoDiv",
        "offset": 1,
        "slot": "10",
        "type": "t_address_payable"
      }
    ],
    "types": {
      "t_address": {
        "encoding": "inplace",
        "label": "address",
        "numberOfBytes": "20"
      },
      "t_address_payable": {
        "encoding": "inplace",
        "label": "address payable",
        "numberOfBytes": "20"
      },
      "t_array(t_address)dyn_storage": {
        "base": "t_address",
        "encoding": "dynamic_array",
        "label": "address[]",
        "numberOfBytes": "32"
      },
      "t_bool": {
        "encoding": "inplace",
        "label": "bool",
        "numberOfBytes": "1"
      },
      "t_contract(IBentoBoxFactory)25743": {
        "encoding": "inplace",
        "label": "contract IBentoBoxFactory",
        "numberOfBytes": "20"
      },
      "t_contract(MISOAccessControls)563": {
        "encoding": "inplace",
        "label": "contract MISOAccessControls",
        "numberOfBytes": "20"
      },
      "t_mapping(t_address,t_struct(Launcher)12671_storage)": {
        "encoding": "mapping",
        "key": "t_address",
        "label": "mapping(address => struct MISOLauncher.Launcher)",
        "numberOfBytes": "32",
        "value": "t_struct(Launcher)12671_storage"
      },
      "t_mapping(t_address,t_uint256)": {
        "encoding": "mapping",
        "key": "t_address",
        "label": "mapping(address => uint256)",
        "numberOfBytes": "32",
        "value": "t_uint256"
      },
      "t_mapping(t_uint256,t_address)": {
        "encoding": "mapping",
        "key": "t_uint256",
        "label": "mapping(uint256 => address)",
        "numberOfBytes": "32",
        "value": "t_address"
      },
      "t_mapping(t_uint256,t_uint256)": {
        "encoding": "mapping",
        "key": "t_uint256",
        "label": "mapping(uint256 => uint256)",
        "numberOfBytes": "32",
        "value": "t_uint256"
      },
      "t_struct(Launcher)12671_storage": {
        "encoding": "inplace",
        "label": "struct MISOLauncher.Launcher",
        "members": [
          {
            "astId": 12666,
            "contract": "contracts/MISOLauncher.sol:MISOLauncher",
            "label": "exists",
            "offset": 0,
            "slot": "0",
            "type": "t_bool"
          },
          {
            "astId": 12668,
            "contract": "contracts/MISOLauncher.sol:MISOLauncher",
            "label": "templateId",
            "offset": 1,
            "slot": "0",
            "type": "t_uint64"
          },
          {
            "astId": 12670,
            "contract": "contracts/MISOLauncher.sol:MISOLauncher",
            "label": "index",
            "offset": 9,
            "slot": "0",
            "type": "t_uint128"
          }
        ],
        "numberOfBytes": "32"
      },
      "t_struct(LauncherFees)12707_storage": {
        "encoding": "inplace",
        "label": "struct MISOLauncher.LauncherFees",
        "members": [
          {
            "astId": 12704,
            "contract": "contracts/MISOLauncher.sol:MISOLauncher",
            "label": "minimumFee",
            "offset": 0,
            "slot": "0",
            "type": "t_uint128"
          },
          {
            "astId": 12706,
            "contract": "contracts/MISOLauncher.sol:MISOLauncher",
            "label": "integratorFeePct",
            "offset": 16,
            "slot": "0",
            "type": "t_uint32"
          }
        ],
        "numberOfBytes": "32"
      },
      "t_uint128": {
        "encoding": "inplace",
        "label": "uint128",
        "numberOfBytes": "16"
      },
      "t_uint256": {
        "encoding": "inplace",
        "label": "uint256",
        "numberOfBytes": "32"
      },
      "t_uint32": {
        "encoding": "inplace",
        "label": "uint32",
        "numberOfBytes": "4"
      },
      "t_uint64": {
        "encoding": "inplace",
        "label": "uint64",
        "numberOfBytes": "8"
      }
    }
  }
}