{
  "address": "0xF63901498C1ab9ABc5E4B4A5B64c6bDfe9E6BB63",
  "abi": [
    {
      "inputs": [
        {
          "internalType": "address",
          "name": "_weth",
          "type": "address"
        }
      ],
      "stateMutability": "nonpayable",
      "type": "constructor"
    },
    {
      "anonymous": false,
      "inputs": [
        {
          "indexed": true,
          "internalType": "address",
          "name": "beneficiary",
          "type": "address"
        },
        {
          "indexed": true,
          "internalType": "address",
          "name": "caller",
          "type": "address"
        }
      ],
      "name": "AdminRoleGranted",
      "type": "event"
    },
    {
      "anonymous": false,
      "inputs": [
        {
          "indexed": true,
          "internalType": "address",
          "name": "beneficiary",
          "type": "address"
        },
        {
          "indexed": true,
          "internalType": "address",
          "name": "caller",
          "type": "address"
        }
      ],
      "name": "AdminRoleRemoved",
      "type": "event"
    },
    {
      "anonymous": false,
      "inputs": [
        {
          "indexed": true,
          "internalType": "address",
          "name": "token1",
          "type": "address"
        },
        {
          "indexed": true,
          "internalType": "address",
          "name": "token2",
          "type": "address"
        },
        {
          "indexed": false,
          "internalType": "address",
          "name": "factory",
          "type": "address"
        },
        {
          "indexed": false,
          "internalType": "address",
          "name": "sender",
          "type": "address"
        }
      ],
      "name": "InitLiquidityLauncher",
      "type": "event"
    },
    {
      "anonymous": false,
      "inputs": [
        {
          "indexed": false,
          "internalType": "uint256",
          "name": "liquidity",
          "type": "uint256"
        }
      ],
      "name": "LiquidityAdded",
      "type": "event"
    },
    {
      "anonymous": false,
      "inputs": [
        {
          "indexed": true,
          "internalType": "address",
          "name": "beneficiary",
          "type": "address"
        },
        {
          "indexed": true,
          "internalType": "address",
          "name": "caller",
          "type": "address"
        }
      ],
      "name": "MinterRoleGranted",
      "type": "event"
    },
    {
      "anonymous": false,
      "inputs": [
        {
          "indexed": true,
          "internalType": "address",
          "name": "beneficiary",
          "type": "address"
        },
        {
          "indexed": true,
          "internalType": "address",
          "name": "caller",
          "type": "address"
        }
      ],
      "name": "MinterRoleRemoved",
      "type": "event"
    },
    {
      "anonymous": false,
      "inputs": [
        {
          "indexed": true,
          "internalType": "address",
          "name": "beneficiary",
          "type": "address"
        },
        {
          "indexed": true,
          "internalType": "address",
          "name": "caller",
          "type": "address"
        }
      ],
      "name": "OperatorRoleGranted",
      "type": "event"
    },
    {
      "anonymous": false,
      "inputs": [
        {
          "indexed": true,
          "internalType": "address",
          "name": "beneficiary",
          "type": "address"
        },
        {
          "indexed": true,
          "internalType": "address",
          "name": "caller",
          "type": "address"
        }
      ],
      "name": "OperatorRoleRemoved",
      "type": "event"
    },
    {
      "anonymous": false,
      "inputs": [
        {
          "indexed": true,
          "internalType": "bytes32",
          "name": "role",
          "type": "bytes32"
        },
        {
          "indexed": true,
          "internalType": "bytes32",
          "name": "previousAdminRole",
          "type": "bytes32"
        },
        {
          "indexed": true,
          "internalType": "bytes32",
          "name": "newAdminRole",
          "type": "bytes32"
        }
      ],
      "name": "RoleAdminChanged",
      "type": "event"
    },
    {
      "anonymous": false,
      "inputs": [
        {
          "indexed": true,
          "internalType": "bytes32",
          "name": "role",
          "type": "bytes32"
        },
        {
          "indexed": true,
          "internalType": "address",
          "name": "account",
          "type": "address"
        },
        {
          "indexed": true,
          "internalType": "address",
          "name": "sender",
          "type": "address"
        }
      ],
      "name": "RoleGranted",
      "type": "event"
    },
    {
      "anonymous": false,
      "inputs": [
        {
          "indexed": true,
          "internalType": "bytes32",
          "name": "role",
          "type": "bytes32"
        },
        {
          "indexed": true,
          "internalType": "address",
          "name": "account",
          "type": "address"
        },
        {
          "indexed": true,
          "internalType": "address",
          "name": "sender",
          "type": "address"
        }
      ],
      "name": "RoleRevoked",
      "type": "event"
    },
    {
      "anonymous": false,
      "inputs": [
        {
          "indexed": true,
          "internalType": "address",
          "name": "beneficiary",
          "type": "address"
        },
        {
          "indexed": true,
          "internalType": "address",
          "name": "caller",
          "type": "address"
        }
      ],
      "name": "SmartContractRoleGranted",
      "type": "event"
    },
    {
      "anonymous": false,
      "inputs": [
        {
          "indexed": true,
          "internalType": "address",
          "name": "beneficiary",
          "type": "address"
        },
        {
          "indexed": true,
          "internalType": "address",
          "name": "caller",
          "type": "address"
        }
      ],
      "name": "SmartContractRoleRemoved",
      "type": "event"
    },
    {
      "anonymous": false,
      "inputs": [
        {
          "indexed": true,
          "internalType": "address",
          "name": "wallet",
          "type": "address"
        }
      ],
      "name": "WalletUpdated",
      "type": "event"
    },
    {
      "inputs": [],
      "name": "DEFAULT_ADMIN_ROLE",
      "outputs": [
        {
          "internalType": "bytes32",
          "name": "",
          "type": "bytes32"
        }
      ],
      "stateMutability": "view",
      "type": "function"
    },
    {
      "inputs": [],
      "name": "MINTER_ROLE",
      "outputs": [
        {
          "internalType": "bytes32",
          "name": "",
          "type": "bytes32"
        }
      ],
      "stateMutability": "view",
      "type": "function"
    },
    {
      "inputs": [],
      "name": "OPERATOR_ROLE",
      "outputs": [
        {
          "internalType": "bytes32",
          "name": "",
          "type": "bytes32"
        }
      ],
      "stateMutability": "view",
      "type": "function"
    },
    {
      "inputs": [],
      "name": "SMART_CONTRACT_ROLE",
      "outputs": [
        {
          "internalType": "bytes32",
          "name": "",
          "type": "bytes32"
        }
      ],
      "stateMutability": "view",
      "type": "function"
    },
    {
      "inputs": [
        {
          "internalType": "address",
          "name": "_address",
          "type": "address"
        }
      ],
      "name": "addAdminRole",
      "outputs": [],
      "stateMutability": "nonpayable",
      "type": "function"
    },
    {
      "inputs": [
        {
          "internalType": "address",
          "name": "_address",
          "type": "address"
        }
      ],
      "name": "addMinterRole",
      "outputs": [],
      "stateMutability": "nonpayable",
      "type": "function"
    },
    {
      "inputs": [
        {
          "internalType": "address",
          "name": "_address",
          "type": "address"
        }
      ],
      "name": "addOperatorRole",
      "outputs": [],
      "stateMutability": "nonpayable",
      "type": "function"
    },
    {
      "inputs": [
        {
          "internalType": "address",
          "name": "_address",
          "type": "address"
        }
      ],
      "name": "addSmartContractRole",
      "outputs": [],
      "stateMutability": "nonpayable",
      "type": "function"
    },
    {
      "inputs": [],
      "name": "createPool",
      "outputs": [],
      "stateMutability": "nonpayable",
      "type": "function"
    },
    {
      "inputs": [],
      "name": "depositETH",
      "outputs": [],
      "stateMutability": "payable",
      "type": "function"
    },
    {
      "inputs": [
        {
          "internalType": "uint256",
          "name": "_amount",
          "type": "uint256"
        }
      ],
      "name": "depositToken1",
      "outputs": [
        {
          "internalType": "bool",
          "name": "success",
          "type": "bool"
        }
      ],
      "stateMutability": "nonpayable",
      "type": "function"
    },
    {
      "inputs": [
        {
          "internalType": "uint256",
          "name": "_amount",
          "type": "uint256"
        }
      ],
      "name": "depositToken2",
      "outputs": [
        {
          "internalType": "bool",
          "name": "success",
          "type": "bool"
        }
      ],
      "stateMutability": "nonpayable",
      "type": "function"
    },
    {
      "inputs": [],
      "name": "factory",
      "outputs": [
        {
          "internalType": "contract IUniswapV2Factory",
          "name": "",
          "type": "address"
        }
      ],
      "stateMutability": "view",
      "type": "function"
    },
    {
      "inputs": [],
      "name": "finalize",
      "outputs": [
        {
          "internalType": "uint256",
          "name": "liquidity",
          "type": "uint256"
        }
      ],
      "stateMutability": "nonpayable",
      "type": "function"
    },
    {
      "inputs": [],
      "name": "getLPBalance",
      "outputs": [
        {
          "internalType": "uint256",
          "name": "",
          "type": "uint256"
        }
      ],
      "stateMutability": "view",
      "type": "function"
    },
    {
      "inputs": [],
      "name": "getLPTokenAddress",
      "outputs": [
        {
          "internalType": "address",
          "name": "",
          "type": "address"
        }
      ],
      "stateMutability": "view",
      "type": "function"
    },
    {
      "inputs": [
        {
          "internalType": "address",
          "name": "_market",
          "type": "address"
        },
        {
          "internalType": "address",
          "name": "_factory",
          "type": "address"
        },
        {
          "internalType": "address",
          "name": "_admin",
          "type": "address"
        },
        {
          "internalType": "address",
          "name": "_wallet",
          "type": "address"
        },
        {
          "internalType": "uint256",
          "name": "_liquidityPercent",
          "type": "uint256"
        },
        {
          "internalType": "uint256",
          "name": "_locktime",
          "type": "uint256"
        }
      ],
      "name": "getLauncherInitData",
      "outputs": [
        {
          "internalType": "bytes",
          "name": "_data",
          "type": "bytes"
        }
      ],
      "stateMutability": "pure",
      "type": "function"
    },
    {
      "inputs": [
        {
          "internalType": "bytes32",
          "name": "role",
          "type": "bytes32"
        }
      ],
      "name": "getRoleAdmin",
      "outputs": [
        {
          "internalType": "bytes32",
          "name": "",
          "type": "bytes32"
        }
      ],
      "stateMutability": "view",
      "type": "function"
    },
    {
      "inputs": [
        {
          "internalType": "bytes32",
          "name": "role",
          "type": "bytes32"
        },
        {
          "internalType": "uint256",
          "name": "index",
          "type": "uint256"
        }
      ],
      "name": "getRoleMember",
      "outputs": [
        {
          "internalType": "address",
          "name": "",
          "type": "address"
        }
      ],
      "stateMutability": "view",
      "type": "function"
    },
    {
      "inputs": [
        {
          "internalType": "bytes32",
          "name": "role",
          "type": "bytes32"
        }
      ],
      "name": "getRoleMemberCount",
      "outputs": [
        {
          "internalType": "uint256",
          "name": "",
          "type": "uint256"
        }
      ],
      "stateMutability": "view",
      "type": "function"
    },
    {
      "inputs": [],
      "name": "getToken1Balance",
      "outputs": [
        {
          "internalType": "uint256",
          "name": "",
          "type": "uint256"
        }
      ],
      "stateMutability": "view",
      "type": "function"
    },
    {
      "inputs": [],
      "name": "getToken2Balance",
      "outputs": [
        {
          "internalType": "uint256",
          "name": "",
          "type": "uint256"
        }
      ],
      "stateMutability": "view",
      "type": "function"
    },
    {
      "inputs": [],
      "name": "getTokenAmounts",
      "outputs": [
        {
          "internalType": "uint256",
          "name": "token1Amount",
          "type": "uint256"
        },
        {
          "internalType": "uint256",
          "name": "token2Amount",
          "type": "uint256"
        }
      ],
      "stateMutability": "view",
      "type": "function"
    },
    {
      "inputs": [
        {
          "internalType": "bytes32",
          "name": "role",
          "type": "bytes32"
        },
        {
          "internalType": "address",
          "name": "account",
          "type": "address"
        }
      ],
      "name": "grantRole",
      "outputs": [],
      "stateMutability": "nonpayable",
      "type": "function"
    },
    {
      "inputs": [
        {
          "internalType": "address",
          "name": "_address",
          "type": "address"
        }
      ],
      "name": "hasAdminRole",
      "outputs": [
        {
          "internalType": "bool",
          "name": "",
          "type": "bool"
        }
      ],
      "stateMutability": "view",
      "type": "function"
    },
    {
      "inputs": [
        {
          "internalType": "address",
          "name": "_address",
          "type": "address"
        }
      ],
      "name": "hasMinterRole",
      "outputs": [
        {
          "internalType": "bool",
          "name": "",
          "type": "bool"
        }
      ],
      "stateMutability": "view",
      "type": "function"
    },
    {
      "inputs": [
        {
          "internalType": "address",
          "name": "_address",
          "type": "address"
        }
      ],
      "name": "hasOperatorRole",
      "outputs": [
        {
          "internalType": "bool",
          "name": "",
          "type": "bool"
        }
      ],
      "stateMutability": "view",
      "type": "function"
    },
    {
      "inputs": [
        {
          "internalType": "bytes32",
          "name": "role",
          "type": "bytes32"
        },
        {
          "internalType": "address",
          "name": "account",
          "type": "address"
        }
      ],
      "name": "hasRole",
      "outputs": [
        {
          "internalType": "bool",
          "name": "",
          "type": "bool"
        }
      ],
      "stateMutability": "view",
      "type": "function"
    },
    {
      "inputs": [
        {
          "internalType": "address",
          "name": "_address",
          "type": "address"
        }
      ],
      "name": "hasSmartContractRole",
      "outputs": [
        {
          "internalType": "bool",
          "name": "",
          "type": "bool"
        }
      ],
      "stateMutability": "view",
      "type": "function"
    },
    {
      "inputs": [
        {
          "internalType": "bytes",
          "name": "_data",
          "type": "bytes"
        }
      ],
      "name": "init",
      "outputs": [],
      "stateMutability": "payable",
      "type": "function"
    },
    {
      "inputs": [
        {
          "internalType": "address",
          "name": "_admin",
          "type": "address"
        }
      ],
      "name": "initAccessControls",
      "outputs": [],
      "stateMutability": "nonpayable",
      "type": "function"
    },
    {
      "inputs": [
        {
          "internalType": "address",
          "name": "_market",
          "type": "address"
        },
        {
          "internalType": "address",
          "name": "_factory",
          "type": "address"
        },
        {
          "internalType": "address",
          "name": "_admin",
          "type": "address"
        },
        {
          "internalType": "address",
          "name": "_wallet",
          "type": "address"
        },
        {
          "internalType": "uint256",
          "name": "_liquidityPercent",
          "type": "uint256"
        },
        {
          "internalType": "uint256",
          "name": "_locktime",
          "type": "uint256"
        }
      ],
      "name": "initAuctionLauncher",
      "outputs": [],
      "stateMutability": "nonpayable",
      "type": "function"
    },
    {
      "inputs": [
        {
          "internalType": "bytes",
          "name": "_data",
          "type": "bytes"
        }
      ],
      "name": "initLauncher",
      "outputs": [],
      "stateMutability": "nonpayable",
      "type": "function"
    },
    {
      "inputs": [],
      "name": "launcherInfo",
      "outputs": [
        {
          "internalType": "uint32",
          "name": "locktime",
          "type": "uint32"
        },
        {
          "internalType": "uint64",
          "name": "unlock",
          "type": "uint64"
        },
        {
          "internalType": "uint16",
          "name": "liquidityPercent",
          "type": "uint16"
        },
        {
          "internalType": "bool",
          "name": "launched",
          "type": "bool"
        },
        {
          "internalType": "uint128",
          "name": "liquidityAdded",
          "type": "uint128"
        }
      ],
      "stateMutability": "view",
      "type": "function"
    },
    {
      "inputs": [],
      "name": "liquidityTemplate",
      "outputs": [
        {
          "internalType": "uint256",
          "name": "",
          "type": "uint256"
        }
      ],
      "stateMutability": "view",
      "type": "function"
    },
    {
      "inputs": [],
      "name": "market",
      "outputs": [
        {
          "internalType": "contract IMisoAuction",
          "name": "",
          "type": "address"
        }
      ],
      "stateMutability": "view",
      "type": "function"
    },
    {
      "inputs": [],
      "name": "marketConnected",
      "outputs": [
        {
          "internalType": "bool",
          "name": "",
          "type": "bool"
        }
      ],
      "stateMutability": "view",
      "type": "function"
    },
    {
      "inputs": [
        {
          "internalType": "address",
          "name": "_address",
          "type": "address"
        }
      ],
      "name": "removeAdminRole",
      "outputs": [],
      "stateMutability": "nonpayable",
      "type": "function"
    },
    {
      "inputs": [
        {
          "internalType": "address",
          "name": "_address",
          "type": "address"
        }
      ],
      "name": "removeMinterRole",
      "outputs": [],
      "stateMutability": "nonpayable",
      "type": "function"
    },
    {
      "inputs": [
        {
          "internalType": "address",
          "name": "_address",
          "type": "address"
        }
      ],
      "name": "removeOperatorRole",
      "outputs": [],
      "stateMutability": "nonpayable",
      "type": "function"
    },
    {
      "inputs": [
        {
          "internalType": "address",
          "name": "_address",
          "type": "address"
        }
      ],
      "name": "removeSmartContractRole",
      "outputs": [],
      "stateMutability": "nonpayable",
      "type": "function"
    },
    {
      "inputs": [
        {
          "internalType": "bytes32",
          "name": "role",
          "type": "bytes32"
        },
        {
          "internalType": "address",
          "name": "account",
          "type": "address"
        }
      ],
      "name": "renounceRole",
      "outputs": [],
      "stateMutability": "nonpayable",
      "type": "function"
    },
    {
      "inputs": [
        {
          "internalType": "bytes32",
          "name": "role",
          "type": "bytes32"
        },
        {
          "internalType": "address",
          "name": "account",
          "type": "address"
        }
      ],
      "name": "revokeRole",
      "outputs": [],
      "stateMutability": "nonpayable",
      "type": "function"
    },
    {
      "inputs": [
        {
          "internalType": "address payable",
          "name": "_wallet",
          "type": "address"
        }
      ],
      "name": "setWallet",
      "outputs": [],
      "stateMutability": "nonpayable",
      "type": "function"
    },
    {
      "inputs": [],
      "name": "token1",
      "outputs": [
        {
          "internalType": "contract IERC20",
          "name": "",
          "type": "address"
        }
      ],
      "stateMutability": "view",
      "type": "function"
    },
    {
      "inputs": [],
      "name": "token2",
      "outputs": [
        {
          "internalType": "contract IERC20",
          "name": "",
          "type": "address"
        }
      ],
      "stateMutability": "view",
      "type": "function"
    },
    {
      "inputs": [],
      "name": "tokenPair",
      "outputs": [
        {
          "internalType": "address",
          "name": "",
          "type": "address"
        }
      ],
      "stateMutability": "view",
      "type": "function"
    },
    {
      "inputs": [],
      "name": "wallet",
      "outputs": [
        {
          "internalType": "address",
          "name": "",
          "type": "address"
        }
      ],
      "stateMutability": "view",
      "type": "function"
    },
    {
      "inputs": [],
      "name": "withdrawDeposits",
      "outputs": [],
      "stateMutability": "nonpayable",
      "type": "function"
    },
    {
      "inputs": [],
      "name": "withdrawLPTokens",
      "outputs": [
        {
          "internalType": "uint256",
          "name": "liquidity",
          "type": "uint256"
        }
      ],
      "stateMutability": "nonpayable",
      "type": "function"
    },
    {
      "stateMutability": "payable",
      "type": "receive"
    }
  ],
  "transactionHash": "0x8e9c0700b2556a7814424212df3b723f71d34e5a3ccdc51111b26fa2b506cf57",
  "args": [
    "0x5B67676a984807a212b1c59eBFc9B3568a474F0a"
  ],
  "solcInputHash": "d1b4fa5f316a6a8ee3524e1600e2925f",
  "bytecode": "0x60a060405234801561001057600080fd5b5060405161336f38038061336f8339818101604052602081101561003357600080fd5b50516001600255606081901b6001600160601b0319166080526001600160a01b03166132ea610085600039806102dd5280610c265280610c5e5280610ccf528061105152806116ea52506132ea6000f3fe6080604052600436106102cd5760003560e01c80639010d07c11610175578063d5391393116100dc578063edf8bc1311610095578063f6326fb31161006f578063f6326fb314610b56578063f82fc8ce14610b5e578063fc4e3e0a14610bd9578063fc62485a14610c0c5761030c565b8063edf8bc1314610b17578063ee16c16014610b2c578063f5b541a614610b415761030c565b8063d539139314610a02578063d547741f14610a17578063d73cc4df14610a50578063dccfe31014610a7e578063deaa59df14610ab1578063e6594abd14610ae45761030c565b8063b7928b1d1161012e578063b7928b1d14610933578063c395fcb314610966578063c45a015514610999578063c9e57aa6146109ae578063ca15c873146109c3578063d21220a7146109ed5761030c565b80639010d07c1461083a57806391d148541461086a5780639478941c146108a35780639a06b113146108d6578063a217fddf146108eb578063adbf3776146109005761030c565b8063521eb273116102345780637cf2ed22116101ed57806380f55605116101c757806380f55605146107c85780638566de4b146107dd578063857d2608146107f25780638a845fc0146108075761030c565b80637cf2ed22146107405780637f4f577d14610755578063801ea6ec146107b35761030c565b8063521eb2731461065c57806354f1e126146106715780636595171c146106a457806368b84b72146106d75780636f43f17b1461070157806371210a0d146107165761030c565b806336568abe1161028657806336568abe1461048a5780633f16431a146104c35780634422c3a1146104f65780634bb278f3146105c45780634ddf47d4146105d95780635153786b146106475761030c565b8063099db01714610311578063113b0ab214610358578063248a9ca31461038b57806325be124e146103c75780632dd7131a146103f85780632f2ff15d146104515761030c565b3661030c57336001600160a01b037f0000000000000000000000000000000000000000000000000000000000000000161461030a5761030a610c21565b005b600080fd5b34801561031d57600080fd5b506103446004803603602081101561033457600080fd5b50356001600160a01b0316610d44565b604080519115158252519081900360200190f35b34801561036457600080fd5b506103446004803603602081101561037b57600080fd5b50356001600160a01b0316610d64565b34801561039757600080fd5b506103b5600480360360208110156103ae57600080fd5b5035610d7e565b60408051918252519081900360200190f35b3480156103d357600080fd5b506103dc610d93565b604080516001600160a01b039092168252519081900360200190f35b34801561040457600080fd5b5061030a600480360360c081101561041b57600080fd5b506001600160a01b0381358116916020810135821691604082013581169160608101359091169060808101359060a00135610da2565b34801561045d57600080fd5b5061030a6004803603604081101561047457600080fd5b50803590602001356001600160a01b03166112b0565b34801561049657600080fd5b5061030a600480360360408110156104ad57600080fd5b50803590602001356001600160a01b031661131c565b3480156104cf57600080fd5b5061030a600480360360208110156104e657600080fd5b50356001600160a01b031661137d565b34801561050257600080fd5b5061054f600480360360c081101561051957600080fd5b506001600160a01b0381358116916020810135821691604082013581169160608101359091169060808101359060a001356113df565b6040805160208082528351818301528351919283929083019185019080838360005b83811015610589578181015183820152602001610571565b50505050905090810190601f1680156105b65780820380516001836020036101000a031916815260200191505b509250505060405180910390f35b3480156105d057600080fd5b506103b5611430565b61030a600480360360208110156105ef57600080fd5b810190602081018135600160201b81111561060957600080fd5b82018360208201111561061b57600080fd5b803590602001918460018302840111600160201b8311171561063c57600080fd5b509092509050611318565b34801561065357600080fd5b506103b56119da565b34801561066857600080fd5b506103dc611a57565b34801561067d57600080fd5b5061030a6004803603602081101561069457600080fd5b50356001600160a01b0316611a66565b3480156106b057600080fd5b5061030a600480360360208110156106c757600080fd5b50356001600160a01b0316611ac8565b3480156106e357600080fd5b50610344600480360360208110156106fa57600080fd5b5035611b1d565b34801561070d57600080fd5b506103b5611b37565b34801561072257600080fd5b506103446004803603602081101561073957600080fd5b5035611b82565b34801561074c57600080fd5b5061030a611b9c565b34801561076157600080fd5b5061076a611c95565b6040805163ffffffff909616865267ffffffffffffffff909416602086015261ffff90921684840152151560608401526001600160801b03166080830152519081900360a00190f35b3480156107bf57600080fd5b506103b5611cdc565b3480156107d457600080fd5b506103dc611d2b565b3480156107e957600080fd5b506103b5611d3a565b3480156107fe57600080fd5b506103b5611d3f565b34801561081357600080fd5b5061030a6004803603602081101561082a57600080fd5b50356001600160a01b0316611d51565b34801561084657600080fd5b506103dc6004803603604081101561085d57600080fd5b5080359060200135611db3565b34801561087657600080fd5b506103446004803603604081101561088d57600080fd5b50803590602001356001600160a01b0316611dd2565b3480156108af57600080fd5b5061030a600480360360208110156108c657600080fd5b50356001600160a01b0316611dea565b3480156108e257600080fd5b5061030a611e4c565b3480156108f757600080fd5b506103b5611ed5565b34801561090c57600080fd5b5061030a6004803603602081101561092357600080fd5b50356001600160a01b0316611eda565b34801561093f57600080fd5b5061030a6004803603602081101561095657600080fd5b50356001600160a01b0316611f3c565b34801561097257600080fd5b506103446004803603602081101561098957600080fd5b50356001600160a01b0316611f9e565b3480156109a557600080fd5b506103dc611faa565b3480156109ba57600080fd5b506103dc611fb9565b3480156109cf57600080fd5b506103b5600480360360208110156109e657600080fd5b5035611fc8565b3480156109f957600080fd5b506103dc611fdf565b348015610a0e57600080fd5b506103b5611fee565b348015610a2357600080fd5b5061030a60048036036040811015610a3a57600080fd5b50803590602001356001600160a01b0316612000565b348015610a5c57600080fd5b50610a65612059565b6040805192835260208301919091528051918290030190f35b348015610a8a57600080fd5b5061030a60048036036020811015610aa157600080fd5b50356001600160a01b0316612163565b348015610abd57600080fd5b5061030a60048036036020811015610ad457600080fd5b50356001600160a01b03166121b8565b348015610af057600080fd5b5061030a60048036036020811015610b0757600080fd5b50356001600160a01b031661226f565b348015610b2357600080fd5b506103b56122d7565b348015610b3857600080fd5b506103dc6124ae565b348015610b4d57600080fd5b506103b56124bd565b61030a610c21565b348015610b6a57600080fd5b5061030a60048036036020811015610b8157600080fd5b810190602081018135600160201b811115610b9b57600080fd5b820183602082011115610bad57600080fd5b803590602001918460018302840111600160201b83111715610bce57600080fd5b5090925090506124cf565b348015610be557600080fd5b5061034460048036036020811015610bfc57600080fd5b50356001600160a01b0316612536565b348015610c1857600080fd5b50610344612550565b6003547f00000000000000000000000000000000000000000000000000000000000000006001600160a01b0390811691161480610c8c57506004547f00000000000000000000000000000000000000000000000000000000000000006001600160a01b039081169116145b610cc75760405162461bcd60e51b81526004018080602001828103825260278152602001806132326027913960400191505060405180910390fd5b3415610d42577f00000000000000000000000000000000000000000000000000000000000000006001600160a01b031663d0e30db0346040518263ffffffff1660e01b81526004016000604051808303818588803b158015610d2857600080fd5b505af1158015610d3c573d6000803e3d6000fd5b50505050505b565b6000610d5e6000805160206131c183398151915283611dd2565b92915050565b6000610d5e600080516020612fd183398151915283611dd2565b60009081526020819052604090206002015490565b6004546001600160a01b031681565b6402540be4008110610de55760405162461bcd60e51b81526004018080602001828103825260408152602001806131816040913960400191505060405180910390fd5b612710821115610e265760405162461bcd60e51b815260040180806020018281038252603f815260200180612f92603f913960400191505060405180910390fd5b60008211610e655760405162461bcd60e51b815260040180806020018281038252602d815260200180613205602d913960400191505060405180910390fd5b6001600160a01b038416610eaa5760405162461bcd60e51b81526004018080602001828103825260268152602001806131176026913960400191505060405180910390fd5b6001600160a01b038316610eef5760405162461bcd60e51b8152600401808060200182810382526027815260200180612ff16027913960400191505060405180910390fd5b610ef88461226f565b600880546001600160a01b0319166001600160a01b03888116919091179182905560408051633d15cc6d60e01b815290519290911691633d15cc6d91600480820192602092909190829003018186803b158015610f5457600080fd5b505afa158015610f68573d6000803e3d6000fd5b505050506040513d6020811015610f7e57600080fd5b5051600380546001600160a01b0319166001600160a01b03928316179055600854604080516304cfed9960e51b8152905191909216916399fdb320916004808301926020929190829003018186803b158015610fd957600080fd5b505afa158015610fed573d6000803e3d6000fd5b505050506040513d602081101561100357600080fd5b5051600480546001600160a01b0319166001600160a01b0392831617905560035473eeeeeeeeeeeeeeeeeeeeeeeeeeeeeeeeeeeeeeee9116141561107d57600380546001600160a01b0319167f00000000000000000000000000000000000000000000000000000000000000006001600160a01b03161790555b600580546001600160a01b0319166001600160a01b03871690811790915560408051631355724960e31b8152905160009291639aab9248916004808301926020929190829003018186803b1580156110d457600080fd5b505afa1580156110e8573d6000803e3d6000fd5b505050506040513d60208110156110fe57600080fd5b50516003546004549192506111229188916001600160a01b039081169116846125e5565b600680546001600160a01b03199081166001600160a01b03938416179091556007805490911691861691909117905561115a83612683565b6009805461ffff92909216600160601b0261ffff60601b19909216919091179055611184826126e0565b600960000160006101000a81548163ffffffff021916908363ffffffff160217905550600061123961271061123386600860009054906101000a90046001600160a01b03166001600160a01b031663f08b82e66040518163ffffffff1660e01b815260040160206040518083038186803b15801561120157600080fd5b505afa158015611215573d6000803e3d6000fd5b505050506040513d602081101561122b57600080fd5b50519061273b565b906127a7565b600454909150611253906001600160a01b03163383612805565b600454600354604080516001600160a01b038b811682528a811660208301528251948116949316927f347f9def0950a93749244d7a0cfde1e52dcb48c303a538fda3ceb25c2576d656929181900390910190a35050505050505050565b6000828152602081905260409020600201546112d3906112ce612926565b611dd2565b61130e5760405162461bcd60e51b815260040180806020018281038252602f815260200180612f63602f913960400191505060405180910390fd5b611318828261292a565b5050565b611324612926565b6001600160a01b0316816001600160a01b0316146113735760405162461bcd60e51b815260040180806020018281038252602f815260200180613286602f913960400191505060405180910390fd5b6113188282612993565b611395600080516020612fd1833981519152826112b0565b61139d612926565b6001600160a01b0316816001600160a01b03167f1d5f9ec24c6f91be922ea13ceaad919ad6554a41b5c26087f96289a9baf98ad260405160405180910390a350565b604080516001600160a01b03978816602082015295871686820152938616606086015291909416608084015260a083019390935260c0808301939093528051808303909301835260e0909101905290565b6000600280541415611489576040805162461bcd60e51b815260206004820152601f60248201527f5265656e7472616e637947756172643a207265656e7472616e742063616c6c00604482015290519081900360640190fd5b60028055611495612550565b6114d05760405162461bcd60e51b81526004018080602001828103825260528152602001806130c56052913960600191505060405180910390fd5b600954600160701b900460ff16156114e757600080fd5b600860009054906101000a90046001600160a01b03166001600160a01b031663b3f05b976040518163ffffffff1660e01b815260040160206040518083038186803b15801561153557600080fd5b505afa158015611549573d6000803e3d6000fd5b505050506040513d602081101561155f57600080fd5b50516115ce57600860009054906101000a90046001600160a01b03166001600160a01b0316634bb278f36040518163ffffffff1660e01b8152600401600060405180830381600087803b1580156115b557600080fd5b505af11580156115c9573d6000803e3d6000fd5b505050505b600860009054906101000a90046001600160a01b03166001600160a01b031663b3f05b976040518163ffffffff1660e01b815260040160206040518083038186803b15801561161c57600080fd5b505afa158015611630573d6000803e3d6000fd5b505050506040513d602081101561164657600080fd5b505161165157600080fd5b6009805460ff60701b1916600160701b179055600854604080516336d0054b60e01b815290516001600160a01b03909216916336d0054b91600480820192602092909190829003018186803b1580156116a957600080fd5b505afa1580156116bd573d6000803e3d6000fd5b505050506040513d60208110156116d357600080fd5b50516116e1575060006119d2565b47801561175d577f00000000000000000000000000000000000000000000000000000000000000006001600160a01b031663d0e30db0826040518263ffffffff1660e01b81526004016000604051808303818588803b15801561174357600080fd5b505af1158015611757573d6000803e3d6000fd5b50505050505b600080611768612059565b915091508160001480611779575080155b1561178a57600093505050506119d2565b600554600354600480546040805163e6a4390560e01b81526001600160a01b0394851693810193909352908316602483015251600093929092169163e6a4390591604480820192602092909190829003018186803b1580156117eb57600080fd5b505afa1580156117ff573d6000803e3d6000fd5b505050506040513d602081101561181557600080fd5b505190506001600160a01b03811661182f5761182f611e4c565b60035460065461184c916001600160a01b039081169116856129fc565b600454600654611869916001600160a01b039081169116846129fc565b600654604080516335313c2160e11b815230600482015290516001600160a01b0390921691636a627842916024808201926020929091908290030181600087803b1580156118b657600080fd5b505af11580156118ca573d6000803e3d6000fd5b505050506040513d60208110156118e057600080fd5b505160095490955061190b9061190690600160781b90046001600160801b031687612a78565b612ad0565b600980546001600160801b0392909216600160781b026fffffffffffffffffffffffffffffffff60781b19909216919091179081905567ffffffffffffffff600160201b9091041661199a5760095461196b9063ffffffff164201612b2e565b6009805467ffffffffffffffff92909216600160201b026bffffffffffffffff00000000199092169190911790555b6040805186815290517ffdb748c915e4e67b4bb23287bf4295a4595ce48b50343214369f72ccfb974cfa9181900360200190a1505050505b600160025590565b600354604080516370a0823160e01b815230600482015290516000926001600160a01b0316916370a08231916024808301926020929190829003018186803b158015611a2557600080fd5b505afa158015611a39573d6000803e3d6000fd5b505050506040513d6020811015611a4f57600080fd5b505190505b90565b6007546001600160a01b031681565b611a7e6000805160206131c183398151915282612000565b611a86612926565b6001600160a01b0316816001600160a01b03167f56692a161ffec953ddf9def93b958ea8d1ec95e21b80870c66be91a4374dc4e360405160405180910390a350565b611ad36000826112b0565b611adb612926565b6001600160a01b0316816001600160a01b03167f2570ac42fd8b322dc453ada624dc2ed0e9bdd67f16f201a25bbd30468f2aa18760405160405180910390a350565b600454600090610d5e906001600160a01b03163384612b8d565b600654604080516370a0823160e01b815230600482015290516000926001600160a01b0316916370a08231916024808301926020929190829003018186803b158015611a2557600080fd5b600354600090610d5e906001600160a01b03163384612b8d565b611ba533611f9e565b80611bb45750611bb433612536565b611bef5760405162461bcd60e51b815260040180806020018281038252602481526020018061313d6024913960400191505060405180910390fd5b600954600160701b900460ff16611c375760405162461bcd60e51b81526004018080602001828103825260288152602001806130186028913960400191505060405180910390fd5b6000611c416119da565b90508015611c6657600354600754611c66916001600160a01b039081169116836129fc565b6000611c70611cdc565b9050801561131857600454600754611318916001600160a01b039081169116836129fc565b60095463ffffffff811690600160201b810467ffffffffffffffff1690600160601b810461ffff1690600160701b810460ff1690600160781b90046001600160801b031685565b60048054604080516370a0823160e01b81523093810193909352516000926001600160a01b03909216916370a08231916024808301926020929190829003018186803b158015611a2557600080fd5b6008546001600160a01b031681565b600381565b600080516020612fd183398151915281565b611d69600080516020612fd183398151915282612000565b611d71612926565b6001600160a01b0316816001600160a01b03167fe5f1aa9e528307345194b88b24a32401c13926e0823060f1049d9b26c0bb62b260405160405180910390a350565b6000828152602081905260408120611dcb9083612c7c565b9392505050565b6000828152602081905260408120611dcb9083612c88565b611e0260008051602061316183398151915282612000565b611e0a612926565b6001600160a01b0316816001600160a01b03167f70b25138b6fadeb9992d18b9653564271823e34b3e3257515d12a6d4b15fcddf60405160405180910390a350565b60055460035460048054604080516364e329cb60e11b81526001600160a01b0394851693810193909352908316602483015251919092169163c9c653969160448083019260209291908290030181600087803b158015611eab57600080fd5b505af1158015611ebf573d6000803e3d6000fd5b505050506040513d602081101561131857600080fd5b600081565b611ef26000805160206131c1833981519152826112b0565b611efa612926565b6001600160a01b0316816001600160a01b03167f0be6ab9784c7401fafb73f7bc47bc67cc4ef8c47a60ad3cb66d1de0353a0784c60405160405180910390a350565b611f54600080516020613161833981519152826112b0565b611f5c612926565b6001600160a01b0316816001600160a01b03167f2d45ee102874989882745a26688d0b4fffee125a18df26536b12582c7fde4e1760405160405180910390a350565b6000610d5e8183611dd2565b6005546001600160a01b031681565b6006546001600160a01b031690565b6000818152602081905260408120610d5e90612c9d565b6003546001600160a01b031681565b6000805160206131c183398151915281565b60008281526020819052604090206002015461201e906112ce612926565b6113735760405162461bcd60e51b81526004018080602001828103825260308152602001806130656030913960400191505060405180910390fd5b6009546000908190612086906127109061123390600160601b900461ffff166120806119da565b9061273b565b9150612090611cdc565b90506000600860009054906101000a90046001600160a01b03166001600160a01b0316637ff9b5966040518163ffffffff1660e01b815260040160206040518083038186803b1580156120e257600080fd5b505afa1580156120f6573d6000803e3d6000fd5b505050506040513d602081101561210c57600080fd5b505190506000612128670de0b6b3a7640000611233858561273b565b905060006121428361123387670de0b6b3a764000061273b565b905080841115612150578093505b8185111561215c578194505b5050509091565b61216e600082612000565b612176612926565b6001600160a01b0316816001600160a01b03167f21ba1239795d4e22874e3dc55f0a9d7b65bfb23069d32965d7c23be9524ccf9560405160405180910390a350565b6121c133611f9e565b6121ca57600080fd5b6001600160a01b038116612225576040805162461bcd60e51b815260206004820152601a60248201527f57616c6c657420697320746865207a65726f2061646472657373000000000000604482015290519081900360640190fd5b600780546001600160a01b0319166001600160a01b0383169081179091556040517f4edbfac5b40fe46ac1af1fd222b224b38cfeeb9e21bd4fc6344526c245f7549b90600090a250565b60015460ff16156122bd576040805162461bcd60e51b8152602060048201526013602482015272105b1c9958591e481a5b9a5d1a585b1a5cd959606a1b604482015290519081900360640190fd5b6122c860008261130e565b506001805460ff191681179055565b60006122e233611f9e565b806122f157506122f133612536565b61232c5760405162461bcd60e51b815260040180806020018281038252602481526020018061313d6024913960400191505060405180910390fd5b600954600160701b900460ff166123745760405162461bcd60e51b81526004018080602001828103825260288152602001806130186028913960400191505060405180910390fd5b600954600160201b900467ffffffffffffffff164210156123dc576040805162461bcd60e51b815260206004820181905260248201527f506f737441756374696f6e3a204c6971756964697479206973206c6f636b6564604482015290519081900360640190fd5b600654604080516370a0823160e01b815230600482015290516001600160a01b03909216916370a0823191602480820192602092909190829003018186803b15801561242757600080fd5b505afa15801561243b573d6000803e3d6000fd5b505050506040513d602081101561245157600080fd5b50519050806124915760405162461bcd60e51b815260040180806020018281038252602d815260200180613259602d913960400191505060405180910390fd5b600654600754611a54916001600160a01b039081169116836129fc565b6006546001600160a01b031681565b60008051602061316183398151915281565b600080600080600080878760c08110156124e857600080fd5b506001600160a01b0381358116975060208201358116965060408201358116955060608201351693506080810135925060a00135905061252c868686868686610da2565b5050505050505050565b6000610d5e60008051602061316183398151915283611dd2565b6000306001600160a01b0316600860009054906101000a90046001600160a01b03166001600160a01b031663521eb2736040518163ffffffff1660e01b815260040160206040518083038186803b1580156125aa57600080fd5b505afa1580156125be573d6000803e3d6000fd5b505050506040513d60208110156125d457600080fd5b50516001600160a01b031614905090565b60008060006125f48686612ca8565b604080516bffffffffffffffffffffffff19606094851b811660208084019190915293851b81166034830152825160288184030181526048830184528051908501206001600160f81b031960688401529b90941b9093166069840152607d830199909952609d808301969096528851808303909601865260bd9091019097525050815191909401209392505050565b600061ffff8211156126dc576040805162461bcd60e51b815260206004820152601b60248201527f426f72696e674d6174683a2075696e743136204f766572666c6f770000000000604482015290519081900360640190fd5b5090565b600063ffffffff8211156126dc576040805162461bcd60e51b815260206004820152601b60248201527f426f72696e674d6174683a2075696e743332204f766572666c6f770000000000604482015290519081900360640190fd5b60008115806127565750508082028282828161275357fe5b04145b610d5e576040805162461bcd60e51b815260206004820152601860248201527f426f72696e674d6174683a204d756c204f766572666c6f770000000000000000604482015290519081900360640190fd5b60008082116127f4576040805162461bcd60e51b8152602060048201526014602482015273426f72696e674d6174683a20446976207a65726f60601b604482015290519081900360640190fd5b8183816127fd57fe5b049392505050565b604080516001600160a01b038481166024830152306044830152606480830185905283518084039091018152608490920183526020820180516001600160e01b03166323b872dd60e01b178152925182516000946060949389169392918291908083835b602083106128885780518252601f199092019160209182019101612869565b6001836020036101000a0380198251168184511680821785525050505050509050019150506000604051808303816000865af19150503d80600081146128ea576040519150601f19603f3d011682016040523d82523d6000602084013e6128ef565b606091505b509150915081801561291d57508051158061291d575080806020019051602081101561291a57600080fd5b50515b610d3c57600080fd5b3390565b60008281526020819052604090206129429082612d86565b156113185761294f612926565b6001600160a01b0316816001600160a01b0316837f2f8788117e7eff1d82e926ec794901d17c78024a50270940304540a733656f0d60405160405180910390a45050565b60008281526020819052604090206129ab9082612d9b565b15611318576129b8612926565b6001600160a01b0316816001600160a01b0316837ff6391f5c32d9c69d2a47ea670b442974b53935d1edc7fd64eb21e047a839171b60405160405180910390a45050565b604080516001600160a01b038481166024830152604480830185905283518084039091018152606490920183526020820180516001600160e01b031663a9059cbb60e01b17815292518251600094606094938916939291829190808383602083106128885780518252601f199092019160209182019101612869565b81810181811015610d5e576040805162461bcd60e51b815260206004820152601860248201527f426f72696e674d6174683a20416464204f766572666c6f770000000000000000604482015290519081900360640190fd5b60006001600160801b038211156126dc576040805162461bcd60e51b815260206004820152601c60248201527f426f72696e674d6174683a2075696e74313238204f766572666c6f7700000000604482015290519081900360640190fd5b600067ffffffffffffffff8211156126dc576040805162461bcd60e51b815260206004820152601b60248201527f426f72696e674d6174683a2075696e743634204f766572666c6f770000000000604482015290519081900360640190fd5b600954600090600160701b900460ff1615612bd95760405162461bcd60e51b81526004018080602001828103825260288152602001806130186028913960400191505060405180910390fd5b600954600160781b90046001600160801b031615612c285760405162461bcd60e51b81526004018080602001828103825260248152602001806131e16024913960400191505060405180910390fd5b60008211612c675760405162461bcd60e51b81526004018080602001828103825260308152602001806130956030913960400191505060405180910390fd5b612c72848484612805565b5060019392505050565b6000611dcb8383612db0565b6000611dcb836001600160a01b038416612e14565b6000610d5e82612e2c565b600080826001600160a01b0316846001600160a01b03161415612cfc5760405162461bcd60e51b81526004018080602001828103825260258152602001806130406025913960400191505060405180910390fd5b826001600160a01b0316846001600160a01b031610612d1c578284612d1f565b83835b90925090506001600160a01b038216612d7f576040805162461bcd60e51b815260206004820152601e60248201527f556e697377617056324c6962726172793a205a45524f5f414444524553530000604482015290519081900360640190fd5b9250929050565b6000611dcb836001600160a01b038416612e30565b6000611dcb836001600160a01b038416612e7a565b81546000908210612df25760405162461bcd60e51b8152600401808060200182810382526022815260200180612f416022913960400191505060405180910390fd5b826000018281548110612e0157fe5b9060005260206000200154905092915050565b60009081526001919091016020526040902054151590565b5490565b6000612e3c8383612e14565b612e7257508154600181810184556000848152602080822090930184905584548482528286019093526040902091909155610d5e565b506000610d5e565b60008181526001830160205260408120548015612f365783546000198083019190810190600090879083908110612ead57fe5b9060005260206000200154905080876000018481548110612eca57fe5b600091825260208083209091019290925582815260018981019092526040902090840190558654879080612efa57fe5b60019003818190600052602060002001600090559055866001016000878152602001908152602001600020600090556001945050505050610d5e565b6000915050610d5e56fe456e756d657261626c655365743a20696e646578206f7574206f6620626f756e6473416363657373436f6e74726f6c3a2073656e646572206d75737420626520616e2061646d696e20746f206772616e74506f737441756374696f6e3a204c69717569646974792070657263656e746167652067726561746572207468616e203130302e30302520283e3130303030299d49f397ae9ef1a834b569acb967799a367061e305932181a44f5773da873bfd506f737441756374696f6e3a2077616c6c657420697320746865207a65726f2061646472657373506f737441756374696f6e3a204d757374206669727374206c61756e6368206c6971756964697479556e697377617056324c6962726172793a204944454e544943414c5f414444524553534553416363657373436f6e74726f6c3a2073656e646572206d75737420626520616e2061646d696e20746f207265766f6b65506f737441756374696f6e3a20546f6b656e20616d6f756e74206d7573742062652067726561746572207468616e2030506f737441756374696f6e3a2041756374696f6e206d75737420686176652074686973206c61756e63686572206164647265737320736574206173207468652064657374696e6174696f6e2077616c6c6574506f737441756374696f6e3a2061646d696e20697320746865207a65726f2061646472657373506f737441756374696f6e3a2053656e646572206d757374206265206f70657261746f7297667070c54ef182b0f5858b034beac1b6f3089aa2d3188bb1e8929f4fa9b929506f737441756374696f6e3a20456e74657220616e20756e69782074696d657374616d7020696e207365636f6e64732c206e6f74206d696c697365636f6e64739f2df0fed2c77648de5860a4cc508cd0818c85b8b8a1ab4ceeef8d981c8956a6506f737441756374696f6e3a204c697175696469747920616c7265616479206164646564506f737441756374696f6e3a204c69717569646974792070657263656e7461676520657175616c73207a65726f506f737441756374696f6e3a204c61756e63686572206e6f7420616363657074696e6720455448506f737441756374696f6e3a204c6971756964697479206d7573742062652067726561746572207468616e2030416363657373436f6e74726f6c3a2063616e206f6e6c792072656e6f756e636520726f6c657320666f722073656c66a2646970667358221220237302f9dc7f7e49b8c54ed64dfba7dd5db86b355e886708c428bcf1e2bc215264736f6c634300060c0033",
  "devdoc": {
    "kind": "dev",
    "methods": {
      "addAdminRole(address)": {
        "details": "The sender must have the admin role.",
        "params": {
          "_address": "EOA or contract receiving the new role."
        }
      },
      "addMinterRole(address)": {
        "details": "The sender must have the admin role",
        "params": {
          "_address": "EOA or contract receiving the new role"
        }
      },
      "addOperatorRole(address)": {
        "details": "The sender must have the admin role",
        "params": {
          "_address": "EOA or contract receiving the new role"
        }
      },
      "addSmartContractRole(address)": {
        "details": "The sender must have the admin role",
        "params": {
          "_address": "EOA or contract receiving the new role"
        }
      },
      "depositToken1(uint256)": {
        "params": {
          "_amount": "Number of tokens to deposit."
        }
      },
      "depositToken2(uint256)": {
        "params": {
          "_amount": "Number of tokens to deposit."
        }
      },
      "finalize()": {
        "returns": {
          "liquidity": "Number of LPs."
        }
      },
      "getLPBalance()": {
        "returns": {
          "_0": "uint256 LP Token balance."
        }
      },
      "getLPTokenAddress()": {
        "returns": {
          "_0": "address LP address."
        }
      },
      "getLauncherInitData(address,address,address,address,uint256,uint256)": {
        "params": {
          "_admin": "Contract owner address.",
          "_factory": "Uniswap V2 factory address.",
          "_liquidityPercent": "Percentage of payment currency sent to liquidity pool.",
          "_locktime": "How long the liquidity will be locked. Number of seconds.",
          "_market": "Auction address for launcher.",
          "_wallet": "Withdraw wallet address."
        },
        "returns": {
          "_data": "All the data in bytes format."
        }
      },
      "getRoleAdmin(bytes32)": {
        "details": "Returns the admin role that controls `role`. See {grantRole} and {revokeRole}. To change a role's admin, use {_setRoleAdmin}."
      },
      "getRoleMember(bytes32,uint256)": {
        "details": "Returns one of the accounts that have `role`. `index` must be a value between 0 and {getRoleMemberCount}, non-inclusive. Role bearers are not sorted in any particular way, and their ordering may change at any point. WARNING: When using {getRoleMember} and {getRoleMemberCount}, make sure you perform all queries on the same block. See the following https://forum.openzeppelin.com/t/iterating-over-elements-on-enumerableset-in-openzeppelin-contracts/2296[forum post] for more information."
      },
      "getRoleMemberCount(bytes32)": {
        "details": "Returns the number of accounts that have `role`. Can be used together with {getRoleMember} to enumerate all bearers of a role."
      },
      "getToken1Balance()": {
        "returns": {
          "_0": "uint256 Number of WETH."
        }
      },
      "getToken2Balance()": {
        "returns": {
          "_0": "uint256 Number of WETH."
        }
      },
      "grantRole(bytes32,address)": {
        "details": "Grants `role` to `account`. If `account` had not been already granted `role`, emits a {RoleGranted} event. Requirements: - the caller must have ``role``'s admin role."
      },
      "hasAdminRole(address)": {
        "params": {
          "_address": "EOA or contract being checked."
        },
        "returns": {
          "_0": "bool True if the account has the role or false if it does not."
        }
      },
      "hasMinterRole(address)": {
        "params": {
          "_address": "EOA or contract being checked"
        },
        "returns": {
          "_0": "bool True if the account has the role or false if it does not"
        }
      },
      "hasOperatorRole(address)": {
        "params": {
          "_address": "EOA or contract being checked"
        },
        "returns": {
          "_0": "bool True if the account has the role or false if it does not"
        }
      },
      "hasRole(bytes32,address)": {
        "details": "Returns `true` if `account` has been granted `role`."
      },
      "hasSmartContractRole(address)": {
        "params": {
          "_address": "EOA or contract being checked"
        },
        "returns": {
          "_0": "bool True if the account has the role or false if it does not"
        }
      },
      "init(bytes)": {
        "params": {
          "_data": "Encoded data for initialization."
        }
      },
      "initAccessControls(address)": {
        "params": {
          "_admin": "Admins address."
        }
      },
      "initAuctionLauncher(address,address,address,address,uint256,uint256)": {
        "params": {
          "_admin": "Contract owner address.",
          "_factory": "Uniswap V2 factory address.",
          "_liquidityPercent": "Percentage of payment currency sent to liquidity pool.",
          "_locktime": "How long the liquidity will be locked. Number of seconds.",
          "_market": "Auction address for launcher.",
          "_wallet": "Withdraw wallet address."
        }
      },
      "removeAdminRole(address)": {
        "details": "The sender must have the admin role.",
        "params": {
          "_address": "EOA or contract affected."
        }
      },
      "removeMinterRole(address)": {
        "details": "The sender must have the admin role",
        "params": {
          "_address": "EOA or contract affected"
        }
      },
      "removeOperatorRole(address)": {
        "details": "The sender must have the admin role",
        "params": {
          "_address": "EOA or contract affected"
        }
      },
      "removeSmartContractRole(address)": {
        "details": "The sender must have the admin role",
        "params": {
          "_address": "EOA or contract affected"
        }
      },
      "renounceRole(bytes32,address)": {
        "details": "Revokes `role` from the calling account. Roles are often managed via {grantRole} and {revokeRole}: this function's purpose is to provide a mechanism for accounts to lose their privileges if they are compromised (such as when a trusted device is misplaced). If the calling account had been granted `role`, emits a {RoleRevoked} event. Requirements: - the caller must be `account`."
      },
      "revokeRole(bytes32,address)": {
        "details": "Revokes `role` from `account`. If `account` had been granted `role`, emits a {RoleRevoked} event. Requirements: - the caller must have ``role``'s admin role."
      },
      "setWallet(address)": {
        "params": {
          "_wallet": "Wallet is where funds will be sent."
        }
      },
      "withdrawLPTokens()": {
        "returns": {
          "liquidity": "Number of LPs."
        }
      }
    },
    "version": 1
  },
  "userdoc": {
    "events": {
      "AdminRoleGranted(address,address)": {
        "notice": "Events for adding and removing various roles."
      },
      "InitLiquidityLauncher(address,address,address,address)": {
        "notice": "Emitted when LP contract is initialised."
      },
      "LiquidityAdded(uint256)": {
        "notice": "Emitted when LP is launched."
      },
      "MinterRoleGranted(address,address)": {
        "notice": "Events for adding and removing various roles"
      },
      "WalletUpdated(address)": {
        "notice": "Emitted when wallet is updated."
      }
    },
    "kind": "user",
    "methods": {
      "MINTER_ROLE()": {
        "notice": "Role definitions"
      },
      "addAdminRole(address)": {
        "notice": "Grants the admin role to an address."
      },
      "addMinterRole(address)": {
        "notice": "Grants the minter role to an address"
      },
      "addOperatorRole(address)": {
        "notice": "Grants the operator role to an address"
      },
      "addSmartContractRole(address)": {
        "notice": "Grants the smart contract role to an address"
      },
      "createPool()": {
        "notice": "Creates new SLP pair through SushiSwap."
      },
      "depositETH()": {
        "notice": "Deposits ETH to the contract."
      },
      "depositToken1(uint256)": {
        "notice": "Deposits first Token to the contract."
      },
      "depositToken2(uint256)": {
        "notice": "Deposits second Token to the contract."
      },
      "factory()": {
        "notice": "Uniswap V2 factory address."
      },
      "finalize()": {
        "notice": "Finalizes Token sale and launches LP."
      },
      "getLPBalance()": {
        "notice": "Returns LP Token balance."
      },
      "getLPTokenAddress()": {
        "notice": "Returns LP token address.."
      },
      "getLauncherInitData(address,address,address,address,uint256,uint256)": {
        "notice": "Collects data to initialize the auction and encodes them."
      },
      "getToken1Balance()": {
        "notice": "Gets the number of first token deposited into this contract."
      },
      "getToken2Balance()": {
        "notice": "Gets the number of second token deposited into this contract."
      },
      "hasAdminRole(address)": {
        "notice": "Used to check whether an address has the admin role."
      },
      "hasMinterRole(address)": {
        "notice": "Used to check whether an address has the minter role"
      },
      "hasOperatorRole(address)": {
        "notice": "Used to check whether an address has the operator role"
      },
      "hasSmartContractRole(address)": {
        "notice": "Used to check whether an address has the smart contract role"
      },
      "init(bytes)": {
        "notice": "Decodes and hands auction data to the initAuction function."
      },
      "initAccessControls(address)": {
        "notice": "Initializes access controls."
      },
      "initAuctionLauncher(address,address,address,address,uint256,uint256)": {
        "notice": "Initializes main contract variables (requires launchwindow to be more than 2 days.)"
      },
      "liquidityTemplate()": {
        "notice": "MISOLiquidity template id."
      },
      "market()": {
        "notice": "Token market contract address."
      },
      "marketConnected()": {
        "notice": "Checks if market wallet is set to this launcher"
      },
      "removeAdminRole(address)": {
        "notice": "Removes the admin role from an address."
      },
      "removeMinterRole(address)": {
        "notice": "Removes the minter role from an address"
      },
      "removeOperatorRole(address)": {
        "notice": "Removes the operator role from an address"
      },
      "removeSmartContractRole(address)": {
        "notice": "Removes the smart contract role from an address"
      },
      "setWallet(address)": {
        "notice": "Admin can set the wallet through this function."
      },
      "token1()": {
        "notice": "First Token address."
      },
      "token2()": {
        "notice": "Second Token address."
      },
      "tokenPair()": {
        "notice": "LP pair address."
      },
      "wallet()": {
        "notice": "Withdraw wallet address."
      },
      "withdrawDeposits()": {
        "notice": "Withraws deposited tokens and ETH from the contract to wallet."
      },
      "withdrawLPTokens()": {
        "notice": "Withdraws LPs from the contract."
      }
    },
    "version": 1
  },
  "storageLayout": {
    "storage": [
      {
        "astId": 14933,
        "contract": "contracts/Liquidity/PostAuctionLauncher.sol:PostAuctionLauncher",
        "label": "_roles",
        "offset": 0,
        "slot": "0",
        "type": "t_mapping(t_bytes32,t_struct(RoleData)14929_storage)"
      },
      {
        "astId": 859,
        "contract": "contracts/Liquidity/PostAuctionLauncher.sol:PostAuctionLauncher",
        "label": "initAccess",
        "offset": 0,
        "slot": "1",
        "type": "t_bool"
      },
      {
        "astId": 17715,
        "contract": "contracts/Liquidity/PostAuctionLauncher.sol:PostAuctionLauncher",
        "label": "_status",
        "offset": 0,
        "slot": "2",
        "type": "t_uint256"
      },
      {
        "astId": 10663,
        "contract": "contracts/Liquidity/PostAuctionLauncher.sol:PostAuctionLauncher",
        "label": "token1",
        "offset": 0,
        "slot": "3",
        "type": "t_contract(IERC20)25824"
      },
      {
        "astId": 10666,
        "contract": "contracts/Liquidity/PostAuctionLauncher.sol:PostAuctionLauncher",
        "label": "token2",
        "offset": 0,
        "slot": "4",
        "type": "t_contract(IERC20)25824"
      },
      {
        "astId": 10669,
        "contract": "contracts/Liquidity/PostAuctionLauncher.sol:PostAuctionLauncher",
        "label": "factory",
        "offset": 0,
        "slot": "5",
        "type": "t_contract(IUniswapV2Factory)22384"
      },
      {
        "astId": 10675,
        "contract": "contracts/Liquidity/PostAuctionLauncher.sol:PostAuctionLauncher",
        "label": "tokenPair",
        "offset": 0,
        "slot": "6",
        "type": "t_address"
      },
      {
        "astId": 10678,
        "contract": "contracts/Liquidity/PostAuctionLauncher.sol:PostAuctionLauncher",
        "label": "wallet",
        "offset": 0,
        "slot": "7",
        "type": "t_address"
      },
      {
        "astId": 10681,
        "contract": "contracts/Liquidity/PostAuctionLauncher.sol:PostAuctionLauncher",
        "label": "market",
        "offset": 0,
        "slot": "8",
        "type": "t_contract(IMisoAuction)25944"
      },
      {
        "astId": 10694,
        "contract": "contracts/Liquidity/PostAuctionLauncher.sol:PostAuctionLauncher",
        "label": "launcherInfo",
        "offset": 0,
        "slot": "9",
        "type": "t_struct(LauncherInfo)10692_storage"
      }
    ],
    "types": {
      "t_address": {
        "encoding": "inplace",
        "label": "address",
        "numberOfBytes": "20"
      },
      "t_array(t_bytes32)dyn_storage": {
        "base": "t_bytes32",
        "encoding": "dynamic_array",
        "label": "bytes32[]",
        "numberOfBytes": "32"
      },
      "t_bool": {
        "encoding": "inplace",
        "label": "bool",
        "numberOfBytes": "1"
      },
      "t_bytes32": {
        "encoding": "inplace",
        "label": "bytes32",
        "numberOfBytes": "32"
      },
      "t_contract(IERC20)25824": {
        "encoding": "inplace",
        "label": "contract IERC20",
        "numberOfBytes": "20"
      },
      "t_contract(IMisoAuction)25944": {
        "encoding": "inplace",
        "label": "contract IMisoAuction",
        "numberOfBytes": "20"
      },
      "t_contract(IUniswapV2Factory)22384": {
        "encoding": "inplace",
        "label": "contract IUniswapV2Factory",
        "numberOfBytes": "20"
      },
      "t_mapping(t_bytes32,t_struct(RoleData)14929_storage)": {
        "encoding": "mapping",
        "key": "t_bytes32",
        "label": "mapping(bytes32 => struct AccessControl.RoleData)",
        "numberOfBytes": "32",
        "value": "t_struct(RoleData)14929_storage"
      },
      "t_mapping(t_bytes32,t_uint256)": {
        "encoding": "mapping",
        "key": "t_bytes32",
        "label": "mapping(bytes32 => uint256)",
        "numberOfBytes": "32",
        "value": "t_uint256"
      },
      "t_struct(AddressSet)17396_storage": {
        "encoding": "inplace",
        "label": "struct EnumerableSet.AddressSet",
        "members": [
          {
            "astId": 17395,
            "contract": "contracts/Liquidity/PostAuctionLauncher.sol:PostAuctionLauncher",
            "label": "_inner",
            "offset": 0,
            "slot": "0",
            "type": "t_struct(Set)17131_storage"
          }
        ],
        "numberOfBytes": "64"
      },
      "t_struct(LauncherInfo)10692_storage": {
        "encoding": "inplace",
        "label": "struct PostAuctionLauncher.LauncherInfo",
        "members": [
          {
            "astId": 10683,
            "contract": "contracts/Liquidity/PostAuctionLauncher.sol:PostAuctionLauncher",
            "label": "locktime",
            "offset": 0,
            "slot": "0",
            "type": "t_uint32"
          },
          {
            "astId": 10685,
            "contract": "contracts/Liquidity/PostAuctionLauncher.sol:PostAuctionLauncher",
            "label": "unlock",
            "offset": 4,
            "slot": "0",
            "type": "t_uint64"
          },
          {
            "astId": 10687,
            "contract": "contracts/Liquidity/PostAuctionLauncher.sol:PostAuctionLauncher",
            "label": "liquidityPercent",
            "offset": 12,
            "slot": "0",
            "type": "t_uint16"
          },
          {
            "astId": 10689,
            "contract": "contracts/Liquidity/PostAuctionLauncher.sol:PostAuctionLauncher",
            "label": "launched",
            "offset": 14,
            "slot": "0",
            "type": "t_bool"
          },
          {
            "astId": 10691,
            "contract": "contracts/Liquidity/PostAuctionLauncher.sol:PostAuctionLauncher",
            "label": "liquidityAdded",
            "offset": 15,
            "slot": "0",
            "type": "t_uint128"
          }
        ],
        "numberOfBytes": "32"
      },
      "t_struct(RoleData)14929_storage": {
        "encoding": "inplace",
        "label": "struct AccessControl.RoleData",
        "members": [
          {
            "astId": 14926,
            "contract": "contracts/Liquidity/PostAuctionLauncher.sol:PostAuctionLauncher",
            "label": "members",
            "offset": 0,
            "slot": "0",
            "type": "t_struct(AddressSet)17396_storage"
          },
          {
            "astId": 14928,
            "contract": "contracts/Liquidity/PostAuctionLauncher.sol:PostAuctionLauncher",
            "label": "adminRole",
            "offset": 0,
            "slot": "2",
            "type": "t_bytes32"
          }
        ],
        "numberOfBytes": "96"
      },
      "t_struct(Set)17131_storage": {
        "encoding": "inplace",
        "label": "struct EnumerableSet.Set",
        "members": [
          {
            "astId": 17126,
            "contract": "contracts/Liquidity/PostAuctionLauncher.sol:PostAuctionLauncher",
            "label": "_values",
            "offset": 0,
            "slot": "0",
            "type": "t_array(t_bytes32)dyn_storage"
          },
          {
            "astId": 17130,
            "contract": "contracts/Liquidity/PostAuctionLauncher.sol:PostAuctionLauncher",
            "label": "_indexes",
            "offset": 0,
            "slot": "1",
            "type": "t_mapping(t_bytes32,t_uint256)"
          }
        ],
        "numberOfBytes": "64"
      },
      "t_uint128": {
        "encoding": "inplace",
        "label": "uint128",
        "numberOfBytes": "16"
      },
      "t_uint16": {
        "encoding": "inplace",
        "label": "uint16",
        "numberOfBytes": "2"
      },
      "t_uint256": {
        "encoding": "inplace",
        "label": "uint256",
        "numberOfBytes": "32"
      },
      "t_uint32": {
        "encoding": "inplace",
        "label": "uint32",
        "numberOfBytes": "4"
      },
      "t_uint64": {
        "encoding": "inplace",
        "label": "uint64",
        "numberOfBytes": "8"
      }
    }
  }
}