{"abi":[{"inputs":[{"internalType":"address","name":"account","type":"address"},{"components":[{"internalType":"enum DepositActionType","name":"actionType","type":"uint8"},{"internalType":"uint16","name":"currencyId","type":"uint16"},{"internalType":"uint256","name":"depositActionAmount","type":"uint256"},{"internalType":"uint256","name":"withdrawAmountInternalPrecision","type":"uint256"},{"internalType":"bool","name":"withdrawEntireCashBalance","type":"bool"},{"internalType":"bool","name":"redeemToUnderlying","type":"bool"}],"internalType":"struct BalanceAction[]","name":"actions","type":"tuple[]"}],"name":"batchBalanceAction","outputs":[],"stateMutability":"payable","type":"function"},{"inputs":[{"internalType":"address","name":"account","type":"address"},{"components":[{"internalType":"enum DepositActionType","name":"actionType","type":"uint8"},{"internalType":"uint16","name":"currencyId","type":"uint16"},{"internalType":"uint256","name":"depositActionAmount","type":"uint256"},{"internalType":"uint256","name":"withdrawAmountInternalPrecision","type":"uint256"},{"internalType":"bool","name":"withdrawEntireCashBalance","type":"bool"},{"internalType":"bool","name":"redeemToUnderlying","type":"bool"},{"internalType":"bytes32[]","name":"trades","type":"bytes32[]"}],"internalType":"struct BalanceActionWithTrades[]","name":"actions","type":"tuple[]"}],"name":"batchBalanceAndTradeAction","outputs":[],"stateMutability":"payable","type":"function"},{"inputs":[{"internalType":"address","name":"account","type":"address"},{"components":[{"internalType":"enum DepositActionType","name":"actionType","type":"uint8"},{"internalType":"uint16","name":"currencyId","type":"uint16"},{"internalType":"uint256","name":"depositActionAmount","type":"uint256"},{"internalType":"uint256","name":"withdrawAmountInternalPrecision","type":"uint256"},{"internalType":"bool","name":"withdrawEntireCashBalance","type":"bool"},{"internalType":"bool","name":"redeemToUnderlying","type":"bool"},{"internalType":"bytes32[]","name":"trades","type":"bytes32[]"}],"internalType":"struct BalanceActionWithTrades[]","name":"actions","type":"tuple[]"},{"internalType":"bytes","name":"callbackData","type":"bytes"}],"name":"batchBalanceAndTradeActionWithCallback","outputs":[],"stateMutability":"payable","type":"function"},{"inputs":[{"internalType":"address","name":"account","type":"address"},{"components":[{"internalType":"uint16","name":"currencyId","type":"uint16"},{"internalType":"bool","name":"depositUnderlying","type":"bool"},{"internalType":"bytes32[]","name":"trades","type":"bytes32[]"}],"internalType":"struct BatchLend[]","name":"actions","type":"tuple[]"}],"name":"batchLend","outputs":[],"stateMutability":"nonpayable","type":"function"},{"inputs":[],"name":"getLibInfo","outputs":[{"internalType":"address","name":"","type":"address"},{"internalType":"address","name":"","type":"address"},{"internalType":"address","name":"","type":"address"},{"internalType":"address","name":"","type":"address"},{"internalType":"address","name":"","type":"address"},{"internalType":"address","name":"","type":"address"}],"stateMutability":"view","type":"function"},{"inputs":[],"name":"owner","outputs":[{"internalType":"address","name":"","type":"address"}],"stateMutability":"view","type":"function"},{"inputs":[],"name":"pauseGuardian","outputs":[{"internalType":"address","name":"","type":"address"}],"stateMutability":"view","type":"function"},{"inputs":[],"name":"pauseRouter","outputs":[{"internalType":"address","name":"","type":"address"}],"stateMutability":"view","type":"function"}],"bytecode":"608060405234801561001057600080fd5b50614c35806100206000396000f3fe60806040526004361061007b5760003560e01c80636e6a32a61161004e5780636e6a32a6146100f357806382463367146101065780638da5cb5b1461011b578063c4c96dae146101305761007b565b80630276b64b1461008057806324a3d62214610095578063541f5270146100c05780635950d8e9146100e0575b600080fd5b61009361008e366004614232565b610157565b005b3480156100a157600080fd5b506100aa6101e7565b6040516100b79190614681565b60405180910390f35b3480156100cc57600080fd5b506100936100db3660046143a6565b6101f6565b6100936100ee366004614282565b610567565b610093610101366004614326565b610697565b34801561011257600080fd5b506100aa61081d565b34801561012757600080fd5b506100aa61082c565b34801561013c57600080fd5b50610145610843565b6040516100b7969594939291906146de565b6002600a5414156101835760405162461bcd60e51b815260040161017a90614a0e565b60405180910390fd5b6002600a556001600160a01b03831633148061019e57503330145b6101ba5760405162461bcd60e51b815260040161017a906148fd565b6101c3836108c9565b60006101d0848484610918565b90506101dc8482610ad3565b50506001600a555050565b6002546001600160a01b031681565b6002600a5414156102195760405162461bcd60e51b815260040161017a90614a0e565b6002600a556001600160a01b03831633148061023457503330145b6102505760405162461bcd60e51b815260040161017a906148fd565b610259836108c9565b600061026484610b54565b905060006102788583604001516000610c10565b9050610282613f52565b60005b84811015610535573686868381811061029a57fe5b90506020028101906102ac9190614b85565b90508115610315578686600184038181106102c357fe5b90506020028101906102d59190614b85565b6102e39060208101906145b9565b61ffff166102f460208301836145b9565b61ffff16116103155760405162461bcd60e51b815260040161017a906149ad565b60006103246040830183614b20565b9150508061033157600080fd5b60005b8181101561037457600061034b6040850185614b20565b8381811061035557fe5b9050602002013560f81c60ff161461036c57600080fd5b600101610334565b5061038f8961038660208501856145b9565b86919089610ca2565b6103b4896103a060208501856145b9565b6103ad6040860186614b20565b8a8a610d48565b606086018290529550600012156103ca57600080fd5b60006103ef6103ea86606001518760200151610eee90919063ffffffff16565b610f0a565b905060008113156105185761040a60408401602085016143dd565b156104e057600061042a61042160208601866145b9565b61ffff16610f18565b9050600061044761043e60208701876145b9565b61ffff16610f64565b905060006104558385610f77565b905060006305f5e100836040015112156104855761047e60016104788585610fb0565b90610eee565b905061049d565b61049a610493836001610eee565b8490610fb0565b90505b60006104b48f838c610fe89092919063ffffffff16565b9050858112156104d65760405162461bcd60e51b815260040161017a90614ade565b5050505050610518565b60006104fb6104f260208601866145b9565b61ffff166110cd565b90506105158b61050b8385610fb0565b88919060006110e0565b50505b610525858b8960006111ba565b5050600190920191506102859050565b5061053f83611435565b610550576105508387846000611442565b61055a8684610ad3565b50506001600a5550505050565b3360009081526008602052604090205460ff166105965760405162461bcd60e51b815260040161017a906148fd565b61059f856108c9565b60006105ac868686610918565b90506105b88187611524565b60405163550d065760e11b8152339063aa1a0cae906105e19083908a9088908890600401614695565b600060405180830381600087803b1580156105fb57600080fd5b505af115801561060f573d6000803e3d6000fd5b5050505060208101516001600160f81b0319161561068f57604051636ccc642f60e01b8152734763672dEa3bF087929d5537B6BAfeB8e6938F4690636ccc642f9061065e908990600401614681565b60006040518083038186803b15801561067657600080fd5b505af415801561068a573d6000803e3d6000fd5b505050505b505050505050565b6002600a5414156106ba5760405162461bcd60e51b815260040161017a90614a0e565b6002600a556001600160a01b0383163314806106d557503330145b6106f15760405162461bcd60e51b815260040161017a906148fd565b6106fa836108c9565b600061070584610b54565b905061070f613f52565b60005b83811015610806573685858381811061072757fe5b905060c00201905060008211156107945785856001840381811061074757fe5b905060c00201602001602081019061075f91906145b9565b61ffff1661077360408301602084016145b9565b61ffff16116107945760405162461bcd60e51b815260040161017a906149ad565b6107b1876107a860408401602085016145b9565b85919087610ca2565b6107cd87846107c360208501856143f9565b8460400135611628565b6107fd87858560608501356107e860a08701608088016143dd565b6107f860c0880160a089016143dd565b6116fb565b50600101610712565b506108118583610ad3565b50506001600a55505050565b6001546001600160a01b031681565b60005464010000000090046001600160a01b031681565b734763672dEa3bF087929d5537B6BAfeB8e6938F4673244321a0C5eE55DF1F4D31c71570Cbe0236c18647301713633a1b85a4a3d2f9430C68Bd4392c4a90eA734b167f50F4EDe5d4CC6cAAACac19263f9f9F5F16735d0Df02534ab3c805c59f9cC98E282DC929821e173EaeEe76b4c060d90062610bF7F8b4b465F1b01e0909192939495565b6001600160a01b0381166108dc57600080fd5b6001600160a01b0381163014156108f257600080fd5b60006108fd82611778565b5050505061ffff1690508060001461091457600080fd5b5050565b610920613fa2565b600061092b85610b54565b9050610935613f52565b60006109478784604001516000610c10565b905060005b85811015610aab573687878381811061096157fe5b90506020028101906109739190614b66565b905081156109e25787876001840381811061098a57fe5b905060200281019061099c9190614b66565b6109ad9060408101906020016145b9565b61ffff166109c160408301602084016145b9565b61ffff16116109e25760405162461bcd60e51b815260040161017a906149ad565b6109ff896109f660408401602085016145b9565b86919088610ca2565b610a1189856107c360208501856143f9565b6000610a2060c0830183614b20565b90501115610a87576000610a528a610a3e60408501602086016145b9565b610a4b60c0860186614b20565b8a89610d48565b945090506000811215610a7157610a7185610a6c83610f0a565b6117e1565b6060850151610a809082610eee565b6060860152505b610aa289868660608501356107e860a08701608088016143dd565b5060010161094c565b50610ab583611435565b610ac657610ac68388836000611442565b50909150505b9392505050565b610add8183611524565b60208101516001600160f81b0319161561091457604051636ccc642f60e01b8152734763672dEa3bF087929d5537B6BAfeB8e6938F4690636ccc642f90610b28908590600401614681565b60006040518083038186803b158015610b4057600080fd5b505af415801561068f573d6000803e3d6000fd5b610b5c613fa2565b6000610b6783611830565b9050610b72816118d1565b15610c08576040516337b5fc2160e11b81527301713633a1b85a4a3d2f9430C68Bd4392c4a90eA90636f6bf84290610bb09086908590600401614718565b60a06040518083038186803b158015610bc857600080fd5b505af4158015610bdc573d6000803e3d6000fd5b505050506040513d601f19601f82011682018060405250810190610c00919061445f565b915050610c0b565b90505b919050565b610c18613fd0565b610c20613fd0565b60ff8416610c2f579050610acc565b610c398585611922565b815260ff84166060820152826001600160401b0381118015610c5a57600080fd5b50604051908082528060200260200182016040528015610c9457816020015b610c81613ff8565b815260200190600190039081610c795790505b506020820152949350505050565b8161ffff166000108015610cbc5750613fff61ffff831611155b610cc557600080fd5b61ffff8216808552610cd890829061194b565b15610d0557610ceb838361ffff166119d5565b61010088015260e087015260408601526020850152610d23565b6000602085018190526040850181905260e085018190526101008501525b50506000606083018190526080830181905260a0830181905260c09092019190915250565b6000610d52613fd0565b610d5b84611435565b15610e4b578661ffff16846060015161ffff1614610d8b5760405162461bcd60e51b815260040161017a90614a58565b60608401518451604051633643f39b60e01b8152600092734b167f50F4EDe5d4CC6cAAACac19263f9f9F5F1692633643f39b92610dd2928e9290918d908d90600401614842565b604080518083038186803b158015610de957600080fd5b505af4158015610dfd573d6000803e3d6000fd5b505050506040513d601f19601f82011682018060405250810190610e219190614430565b90935090508015610e4557602085018051600160f81b176001600160f81b03191690525b50610ee3565b60405163b58f83ed60e01b8152734b167f50F4EDe5d4CC6cAAACac19263f9f9F5F169063b58f83ed90610e8a908b908b9088908c908c90600401614784565b60006040518083038186803b158015610ea257600080fd5b505af4158015610eb6573d6000803e3d6000fd5b505050506040513d6000823e601f3d908101601f19168201604052610ede91908101906144fe565b925090505b965096945050505050565b81810182811215600083121514610f0457600080fd5b92915050565b6000610c0860001983611a81565b610f20614038565b6000806000610f2e85611acf565b604080516060810182526001600160a01b039093168352602083019390935260ff16600a0a918101919091529350505050919050565b610f6c614062565b610c08826001611b92565b600080610fa88460400151610fa26402540be400610fa2878960200151611a8190919063ffffffff16565b90611c40565b949350505050565b60006305f5e10083604001511415610fc9575080610f04565b610acc6305f5e100610fa2856040015185611a8190919063ffffffff16565b600081610ff757506000610acc565b6000821361100457600080fd5b6000611017856000015161ffff16610f64565b905060038160600151600581111561102b57fe5b1415611055573483146110505760405162461bcd60e51b815260040161017a90614941565b61106c565b8451611069908290869061ffff1686611c71565b92505b600061107f866000015161ffff166110cd565b9050600061109c876000015161109487611d19565b849190611d2c565b905060006110aa8383611e1d565b60608901519091506110bc9082610eee565b606089015293505050509392505050565b6110d5614062565b610c08826000611b92565b6000826110ef57506000610fa8565b600083136110fc57600080fd5b600061110f866000015161ffff166110cd565b905060058160600151600581111561112357fe5b141561113c5785516111399061ffff1685611e4d565b93505b8060200151806111495750825b15611190578551600090611165908390889061ffff1688611c71565b90506111718282611e1d565b60608801519093506111839084610eee565b606088015250610fa89050565b61119a8185611e1d565b60808701519092506111ac9083610eee565b608087015250949350505050565b60008060008660a00151121561120d5760006111ef8760a001516104788960c001518a60400151610eee90919063ffffffff16565b121561120d5760405162461bcd60e51b815260040161017a90614a8f565b60008660800151121561125d57600061123f876080015161047889606001518a60200151610eee90919063ffffffff16565b121561125d5760405162461bcd60e51b815260040161017a90614a36565b611268868685611ed4565b60808801819052606088015191935060009161128391610eee565b905080156112f057602087015161129a9082610eee565b602088015286516040516001935061ffff909116906001600160a01b038816907f5441e4a5fac93a951d782e6f1cdb82e95c8fc58561a013953d17e395c5e69b4b906112e79085906148f4565b60405180910390a35b60a0870151151580611305575060c087015115155b156113ab57600061132f8860c001516104788a60a001518b60400151610eee90919063ffffffff16565b9050611344888861133f84611d19565b611f8a565b506040880181905260c0880151156113a557876000015161ffff16876001600160a01b03167f412bc13d202a2ea5119e55fec9c5e420dddb18faf186373ad9795ad4f4545aa98a60c0015160405161139c91906148f4565b60405180910390a35b60019250505b81156113d8576113d886886000015161ffff1689602001518a604001518b60e001518c6101000151612077565b865160208801516114059161ffff16901515806113f85750604089015115155b879190600160fe1b6121c7565b60008760200151121561142b57602085018051600160f91b176001600160f81b03191690525b5050949350505050565b6060015161ffff16151590565b600080808061145186886123c6565b64ffffffffff81168c529296509094509250905061146e886118d1565b1561147857600080fd5b60ff821660408901528461149757600760ff8316111561149757600080fd5b83156114ba57602088018051600160f81b176001600160f81b03191690526114c9565b602088018051607f60f91b1690525b6114d68860800151612605565b6001600160701b031916608089015260005b83156115195760f084901c81811461150b5761150b8a826001600160ff1b6121c7565b60109490941b9390506114e8565b505050505050505050565b600061152e612680565b6001600160a01b03831660008181526020838152604080832088518154938a0151838b015160608c015160808d015160701c600160481b027affffffffffffffffffffffffffffffffffff0000000000000000001961ffff909216600160381b0268ffff000000000000001960ff94909416600160301b0266ff0000000000001960f89690961c650100000000000265ff00000000001964ffffffffff90981664ffffffffff19909b169a909a1796909616989098179390931693909317169490941716929092179091555192935090917f6bd4b121bca854a191536a2ca891155c42ee2fb23f307fb34e8bc65cfcb5412e9190a2505050565b60006116338261268d565b905060008082121561164457600080fd5b600084600681111561165257fe5b141561165f5750506116f5565b600184600681111561166d57fe5b14806116845750600384600681111561168257fe5b145b1561169d5761169685878460006110e0565b90506116e9565b60028460068111156116ab57fe5b14806116c2575060048460068111156116c057fe5b145b156116d257611696858784610fe8565b60068460068111156116e057fe5b14156116e95750805b61068f858584846126a3565b50505050565b60006117068461268d565b9050600081121561171657600080fd5b821561174e5761173f856080015161047887606001518860200151610eee90919063ffffffff16565b9050600081121561174e575060005b608085015161175d90826128be565b608086015261176e858888856111ba565b5050505050505050565b6000806000806000806117896128d4565b6001600160a01b039097166000908152602097909752505060409094205461ffff81169563ffffffff62010000830481169650600160301b830416945060ff600160501b8304169350600160581b90910460d81b9150565b60008112158015611814575080611811836080015161047885606001518660200151610eee90919063ffffffff16565b12155b6109145760405162461bcd60e51b815260040161017a90614ab3565b611838613fa2565b6000611842612680565b6001600160a01b039390931660009081526020938452604090819020815160a081018352905464ffffffffff8116825265010000000000810460f81b6001600160f81b03191695820195909552600160301b850460ff1691810191909152600160381b840461ffff166060820152600160481b90930460701b6001600160701b03191660808401525090919050565b6000426118dd83611435565b156118fe576118eb816128e1565b835164ffffffffff16109150610c0b9050565b825164ffffffffff1615801590610c005750825164ffffffffff1611159050610c0b565b6060600061193084846128ff565b90506001815111611942579050610f04565b610acc81612a20565b6000811580159061195e5750613fff8211155b61196757600080fd5b6080830151606084015161ffff16831415611986576001915050610f04565b6001600160701b03198116156119cb5760f081901c613fff16838114156119b85750600160fe1b908116149050610f04565b5060101b6001600160801b031916611986565b5060009392505050565b60008060008060006119e5612bd8565b6001600160a01b0388166000908152602082815260408083208a84529091529020805469ffffffffffffffffffff81169650600160501b900463ffffffff1694509091508315611a51578054611a4a90600160701b900466ffffffffffffff16612be5565b9250611a66565b8054600160701b900466ffffffffffffff1692505b54600160a81b9004600a90810b900b97939650919450925050565b818102600019831415611ab157811580611aa3575082828281611aa057fe5b05145b611aac57600080fd5b610f04565b821580611ac6575081838281611ac357fe5b05145b610f0457600080fd5b6000806000806000611ae086612bf3565b909250905060006001600160a01b038316611b055750600090506402540be400611b87565b826001600160a01b0316631ee108336040518163ffffffff1660e01b8152600401602060405180830381600087803b158015611b4057600080fd5b505af1158015611b54573d6000803e3d6000fd5b505050506040513d601f19601f82011682018060405250810190611b789190614418565b905060008113611b8757600080fd5b969195509350915050565b611b9a614062565b6000611ba4612c2a565b6000858152602082815260408083208715158452825291829020825160a08101845281546001600160a01b038116825260ff600160a01b82048116151594830194909452600160b01b81048416600a0a9482019490945293945092916060830191600160a81b909104166005811115611c1957fe5b81529154600160b81b900468ffffffffffffffffff16602090920191909152949350505050565b600081600019148015611c565750600160ff1b83145b15611c6057600080fd5b818381611c6957fe5b059392505050565b80600585606001516005811115611c8457fe5b1415611ca9576000611c9584610f64565b9050611ca5816000015184612c37565b9250505b6000821315611cd5576000611cbf868685612cc9565b9050856020015115611ccf578091505b50610fa8565b600385606001516005811115611ce757fe5b1415611d0457611cff84611cfa84610f0a565b612dbc565b610fa8565b8451610fa89085611d1485610f0a565b612df7565b600080821215611d2857600080fd5b5090565b600080600585606001516005811115611d4157fe5b14611d53576370a0823160e01b611d5c565b630ed1279f60e11b5b90506000611d6f86600001513084612e6e565b9050600586606001516005811115611d8357fe5b1415611daa576000611d988661ffff16610f64565b9050611da48186612f80565b50611ded565b600186606001516005811115611dbc57fe5b1415611dcc57611da48685612feb565b600286606001516005811115611dde57fe5b141561007b57611ded86613097565b6000611dfe87600001513085612e6e565b9050611e12611e0d82846130d6565b61268d565b979650505050505050565b60006305f5e10083604001511415611e36575080610f04565b6040830151610acc90610fa2846305f5e100611a81565b600081611e5c57506000610f04565b60008213611e6957600080fd5b6000611e7484610f64565b90506000611e858260000151613133565b9050600281056b033b2e3c9fd0803ce80000006001600160ff1b0382900305851315611eb057600080fd5b81816b033b2e3c9fd0803ce800000087020181611ec957fe5b059695505050505050565b6000806000611eea866000015161ffff166110cd565b90506000611f05876080015183610fb090919063ffffffff16565b905080611f1a57600080935093505050611f82565b848015611f275750600081125b15611f5c578651611f499061ffff1687611f4084610f0a565b859291906131be565b9350611f558282611e1d565b9250611f7f565b8651611f70908390889061ffff1684611c71565b9350611f7c8285611e1d565b92505b50505b935093915050565b825160009042908290611fa09061ffff16613254565b90506000611fb3828860c001518561327a565b9050611fc18783838861335d565b93506000611fce8361348a565b90506001600160a01b0381161561205c57806001600160a01b0316631d684dd2888a600001516120018c60400151611d19565b8a8d60c001518b6040518763ffffffff1660e01b81526004016120299695949392919061480b565b600060405180830381600087803b15801561204357600080fd5b505af1158015612057573d6000803e3d6000fd5b505050505b841561206c5761206c87866134fc565b505050509392505050565b6000612081612bd8565b6001600160a01b0388166000908152602082815260408083208a845290915290209091506a7fffffffffffffffffffff1986128015906120cc57506a7fffffffffffffffffffff8613155b6120d557600080fd5b600085121580156120f0575069ffffffffffffffffffff8513155b6120f957600080fd5b836121395766ffffffffffffff83111561211257600080fd5b805466ffffffffffffff60701b1916600160701b66ffffffffffffff851602178155612153565b8054600160501b900463ffffffff16841461215357600080fd5b8054600a9690960b6affffffffffffffffffffff16600160a81b026001600160a81b0369ffffffffffffffffffff90961669ffffffffffffffffffff1963ffffffff909616600160501b0263ffffffff60501b19909816979097179490941695909517939093169190911790925550505050565b8260001080156121d95750613fff8311155b6121e257600080fd5b8180156121f6575082846060015161ffff16145b15612200576116f5565b6080840151600090815b6001600160701b031982161561237b5760f082901c613fff16868114801561222f5750855b1561226757506080870180516001600160f01b0319861660109093029290921c919091176001600160701b0319169052506116f59050565b8681148015612274575085155b156122c9576001600160f01b03198516199290921691600360fe1b83166122a7576010836001600160701b031916901b92505b506001600160701b031991821660109091021c919091171660808501526116f5565b86811180156122d55750855b1561232f576080888101516001600160f01b031960f08a901b88178116601086021c9690961795911b161561230957600080fd5b506001600160701b03199182166001919091016010021c919091171660808501526116f5565b868111801561233c575085155b1561234a57505050506116f5565b506001600160f01b0319821660108281029190911c93909317929190911b6001600160801b0319169060010161220a565b84612388575050506116f5565b6009811061239557600080fd5b6001600160f01b031960f087901b85171660109091021c919091176001600160701b03191660808601525050505050565b6000808080808080805b8951518110156124575760008a6000015182815181106123ec57fe5b6020026020010151905060038081111561240257fe5b8160a00151600381111561241257fe5b141561241d57600080fd5b60028160a00151600381111561242f57fe5b1415801561243f57506060810151155b1561244e5761244e8b8361351b565b506001016123d0565b5060005b8951518110156124fa5760008a60000151828151811061247757fe5b602002602001015190506002600381111561248e57fe5b8160a00151600381111561249e57fe5b14156124b2576080810151600090556124f1565b60018160a0015160038111156124c457fe5b14156124dd576080810151806124da838261366a565b50505b6124e98186868661379b565b919650945092505b5060010161245b565b506060890151600061250a6137fe565b6001600160a01b038b1660009081526020829052604081209192505b8c60200151518110156125d45760008d60200151828151811061254557fe5b6020026020010151905080606001516000141561256257506125cc565b60028160a00151600381111561257457fe5b14158015612592575060038160a00151600381111561258f57fe5b14155b61259b57600080fd5b6125a78189898961379b565b919950975095506125c4818487601081106125be57fe5b0161366a565b600185019450505b600101612526565b50601083111580156125eb575064ffffffffff8411155b6125f457600080fd5b50939a929950975095509350505050565b6000807f7fff7fff7fff7fff7fff7fff7fff7fff7fff00000000000000000000000000008316815b6001600160701b031982161561267757600160fe1b8281161415612661576001600160f01b03198216811c92909217916010015b6010826001600160701b031916901b915061262d565b50909392505050565b600080610f046001613807565b60006001600160ff1b03821115611d2857600080fd5b60038360068111156126b157fe5b14806126c8575060048360068111156126c657fe5b145b806126de575060068360068111156126dc57fe5b145b156127aa576126ed84826117e1565b60608401516126fc90826128be565b60608501528351604051632128561360e11b8152600091735d0Df02534ab3c805c59f9cC98E282DC929821e191634250ac269161273d918690600401614b0c565b60206040518083038186803b15801561275557600080fd5b505af4158015612769573d6000803e3d6000fd5b505050506040513d601f19601f8201168201806040525081019061278d9190614418565b60c086015190915061279f9082610eee565b60c0860152506116f5565b60058360068111156127b857fe5b14156116f557816127e28560c001516104788760a001518860400151610eee90919063ffffffff16565b12156128005760405162461bcd60e51b815260040161017a906149d7565b60c084015161280f90836128be565b60c085015283516040516352e73f7760e01b815260009173EaeEe76b4c060d90062610bF7F8b4b465F1b01e0916352e73f7791612850918790600401614b0c565b60206040518083038186803b15801561286857600080fd5b505af415801561287c573d6000803e3d6000fd5b505050506040513d601f19601f820116820180604052508101906128a09190614418565b60608601519091506128b29082610eee565b60608601525050505050565b80820382811315600083121514610f0457600080fd5b600080610f046002613807565b6000620151808210156128f357600080fd5b50620151808106900390565b606060108260ff16111561291257600080fd5b600061291c6137fe565b6001600160a01b038516600090815260208290526040812091925060ff85166001600160401b038111801561295057600080fd5b5060405190808252806020026020018201604052801561298a57816020015b612977613ff8565b81526020019060019003908161296f5790505b50905060005b8560ff16811015612a165760008382601081106129a957fe5b01905060008383815181106129ba57fe5b602090810291909101810151835461ffff8116825264ffffffffff620100008204169282019290925260ff600160381b8304166040820152600160401b909104600a90810b900b60608201526080019190915250600101612990565b5095945050505050565b80516000816001600160401b0381118015612a3a57600080fd5b50604051908082528060200260200182016040528015612a64578160200160208202803683370190505b50905060005b82811015612ac1576000848281518110612a8057fe5b60200260200101519050612aa1816000015182602001518360400151613820565b838381518110612aad57fe5b602090810291909101015250600101612a6a565b5060015b828110156116f557805b600081118015612b075750828181518110612ae657fe5b6020026020010151836001830381518110612afd57fe5b6020026020010151115b15612bcf57828181518110612b1857fe5b6020026020010151836001830381518110612b2f57fe5b6020026020010151846001840381518110612b4657fe5b60200260200101858481518110612b5957fe5b6020026020010182815250828152505050848181518110612b7657fe5b6020026020010151856001830381518110612b8d57fe5b6020026020010151866001840381518110612ba457fe5b60200260200101878481518110612bb757fe5b60209081029190910101919091525260001901612acf565b50600101612ac5565b600080610f046006613807565b600881901c60ff9091161b90565b6000806000612c0061387b565b600094855260205250506040909120546001600160a01b03811692600160a01b90910460ff169150565b600080610f046007613807565b600081612c4657506000610f04565b6000612c5184613133565b90506000612c5e84613888565b9050816b019d971e4fe8401e74000001600160ff1b0381612c7b57fe5b05811315612c8857600080fd5b6b033b2e3c9fd0803ce80000006b019d971e4fe8401e74000000838302010560008513612cbd57612cb881610f0a565b612cbf565b805b9695505050505050565b6000808080600587606001516005811115612ce057fe5b14612cf2576370a0823160e01b612cfb565b630ed1279f60e11b5b9050866020015115612d17578651612d14903083612e6e565b92505b8651612d249087876138a9565b866020015180612d38575060008760800151115b15612d4d578651612d4a903083612e6e565b91505b608087015115612d88576000612d6b88612d668561268d565b611e1d565b9050612d7a886080015161268d565b811315612d8657600080fd5b505b866020015115612da957612d9f611e0d83856130d6565b9350505050610acc565b612d9f8561268d565b5050509392505050565b6040516001600160a01b0383169082156108fc029083906000818181858888f19350505050158015612df2573d6000803e3d6000fd5b505050565b826001600160a01b031663a9059cbb83836040518363ffffffff1660e01b815260040180836001600160a01b0316815260200182815260200192505050600060405180830381600087803b158015612e4e57600080fd5b505af1158015612e62573d6000803e3d6000fd5b50505050612df2613901565b604080516001600160a01b0384811660248084019190915283518084039091018152604490920183526020820180516001600160e01b03166001600160e01b0319861617815292518251600094859485948a16939092909182918083835b60208310612eeb5780518252601f199092019160209182019101612ecc565b6001836020036101000a038019825116818451168082178552505050505050905001915050600060405180830381855afa9150503d8060008114612f4b576040519150601f19603f3d011682016040523d82523d6000602084013e612f50565b606091505b509150915081612f5f57600080fd5b808060200190516020811015612f7457600080fd5b50519695505050505050565b612f8861396e565b54825160405163e8eda9df60e01b81526001600160a01b039092169163e8eda9df91612fbd91859030906000906004016148a1565b600060405180830381600087803b158015612fd757600080fd5b505af115801561068f573d6000803e3d6000fd5b60008083600001516001600160a01b031663a0712d68846040518263ffffffff1660e01b815260040161301e91906148f4565b602060405180830381600087803b15801561303857600080fd5b505af115801561304c573d6000803e3d6000fd5b505050506040513d601f19601f820116820180604052508101906130709190614418565b905080156130905760405162461bcd60e51b815260040161017a90614923565b5092915050565b80600001516001600160a01b0316631249c58b346040518263ffffffff1660e01b81526004016000604051808303818588803b158015612fd757600080fd5b60008282111561312d576040805162461bcd60e51b815260206004820152601e60248201527f536166654d6174683a207375627472616374696f6e206f766572666c6f770000604482015290519081900360640190fd5b50900390565b6000610c0861314061396e565b5460405163d15e005360e01b81526001600160a01b039091169063d15e00539061316e908690600401614681565b60206040518083038186803b15801561318657600080fd5b505afa15801561319a573d6000803e3d6000fd5b505050506040513d601f19601f82011682018060405250810190611e0d9190614418565b6000806002866060015160058111156131d357fe5b14156131eb576131e486858561397b565b9050613248565b60006131f686610f64565b905060058760600151600581111561320a57fe5b14156132225761321b818686613a38565b9150613246565b60018760600151600581111561323457fe5b141561007b5761321b87828787613aee565b505b612cbf6103ea8261268d565b60008061325f613bec565b6000938452602052505060409020546001600160a01b031690565b60008060006132898685613bf9565b50915091506000613298613c8f565b6001600160a01b03881660009081526020829052604081209192506132bd8589610eee565b9050806000131580156132d657506001600160601b0381105b6132df57600080fd5b81546bffffffffffffffffffffffff19166001600160601b038216176fffffffffffffffffffffffffffffffff60601b1916600160601b6001600160801b0386160217825563ffffffff871061333457600080fd5b50805463ffffffff8716600160e01b026001600160e01b03909116179055509150509392505050565b60e08401516000901561341e5773244321a0C5eE55DF1F4D31c71570Cbe0236c186463e0c01a72856133928860400151611d19565b8860e001518961010001516040518563ffffffff1660e01b81526004016133bc94939291906148ce565b60206040518083038186803b1580156133d457600080fd5b505af41580156133e8573d6000803e3d6000fd5b505050506040513d601f19601f8201168201806040525081019061340c9190614418565b600060e0870181905261010087015290505b613460613459866101000151613453670de0b6b3a764000061344d886134478c60400151611d19565b90613c9c565b90613cf5565b906130d6565b8290613d5c565b9050613478670de0b6b3a764000061344d8486613c9c565b85610100018181525050949350505050565b6000806134956128d4565b6001600160a01b0384166000908152602082905260409020805491925090600160f81b900460ff16156134f1576134ca613db6565b6001600160a01b038086166000908152602092909252604090912054169250610c0b915050565b600092505050610c0b565b61091473cfeaead4947f0705a14ec42ac3d44129e1ef3ed58383612df7565b815151811061352957600080fd5b600082606001511161353a57600080fd5b60008260000151828151811061354c57fe5b602002602001015190506002600381111561356357fe5b8160a00151600381111561357357fe5b14158015613591575060038160a00151600381111561358e57fe5b14155b61359a57600080fd5b606083018051600019019052600080805b85515181101561360d576000866000015182815181106135c757fe5b602002602001015190508281608001511180156135f4575060028160a0015160038111156135f157fe5b14155b1561360457806080015192508193505b506001016135ab565b5081841415613626575050600260a09190910152610914565b60008560000151838151811061363857fe5b602090810291909101015160808581018051918301805190915252600160a09182015260029401939093525050505050565b81511580159061367d57508151613fff10155b61368657600080fd5b816020015160001080156136a35750602082015164ffffffffff10155b6136ac57600080fd5b816040015160001080156136c557506040820151600810155b6136ce57600080fd5b60608201516a7fffffffffffffffffffff19138015906136fd575060608201516a7fffffffffffffffffffff12155b61370657600080fd5b8151815460208401516040850151606090950151600a0b6affffffffffffffffffffff16600160401b0272ffffffffffffffffffffff00000000000000001960ff909616600160381b0267ff000000000000001964ffffffffff909316620100000266ffffffffff00001961ffff90961661ffff19909516949094179490941692909217169190911792909216919091179055565b6000806000806137aa88613dc3565b90508415806137b857508085115b156137c1578094505b86806137d1575060008860600151125b965061ffff8616156137e257600080fd5b50509451939560109390931c60f09490941b9390931793509150565b600080610f04600d5b6000620f424082601381111561381957fe5b0192915050565b6000613fff84111561383157600080fd5b64ffffffffff83111561384357600080fd5b600882111561385157600080fd5b5067ffff000000000000603084901b1665ffffffffff00600884901b161760ff8216179392505050565b600080610f04600f613807565b6000808212156138a25761389b82610f0a565b9050610c0b565b5080610c0b565b604080516323b872dd60e01b81526001600160a01b038481166004830152306024830152604482018490529151918516916323b872dd9160648082019260009290919082900301818387803b158015612e4e57600080fd5b600061390b614091565b3d801561391f576020811461392857600080fd5b60019250613933565b60206000833e815192505b5081610914576040805162461bcd60e51b8152602060048201526005602482015264045524332360dc1b604482015290519081900360640190fd5b600080610f046013613807565b825160405163db006a7560e01b8152600091479183916001600160a01b03169063db006a75906139af9087906004016148f4565b602060405180830381600087803b1580156139c957600080fd5b505af11580156139dd573d6000803e3d6000fd5b505050506040513d601f19601f82011682018060405250810190613a019190614418565b90508015613a215760405162461bcd60e51b815260040161017a90614966565b47613a2c81846130d6565b9350612db28685612dbc565b6000613a58613a538560000151613a4e8561268d565b612c37565b611d19565b9050613a6261396e565b548451604051631a4ca37b60e21b81526001600160a01b03909216916369328dec91613a94918590889060040161487e565b602060405180830381600087803b158015613aae57600080fd5b505af1158015613ac2573d6000803e3d6000fd5b505050506040513d601f19601f82011682018060405250810190613ae69190614418565b509392505050565b82516000908190613b0790306370a0823160e01b612e6e565b9050600086600001516001600160a01b031663db006a75856040518263ffffffff1660e01b8152600401613b3b91906148f4565b602060405180830381600087803b158015613b5557600080fd5b505af1158015613b69573d6000803e3d6000fd5b505050506040513d601f19601f82011682018060405250810190613b8d9190614418565b90508015613bad5760405162461bcd60e51b815260040161017a90614966565b8551600090613bc490306370a0823160e01b612e6e565b9050613bd081846130d6565b9350613be187600001518786612df7565b505050949350505050565b600080610f046003613807565b6000806000613c0785613e30565b919450925090508084118015613c1d5750600081115b8015613c295750600083115b15613c88576000613c3986611778565b5050509150506000613c64613c5b6305f5e10084613c9c90919063ffffffff16565b84880387613e8c565b9050613c708482613d5c565b93506001600160801b038410613c8557600080fd5b50505b9250925092565b600080610f046011613807565b600082613cab57506000610f04565b82820282848281613cb857fe5b0414610acc5760405162461bcd60e51b8152600401808060200182810382526021815260200180614bdf6021913960400191505060405180910390fd5b6000808211613d4b576040805162461bcd60e51b815260206004820152601a60248201527f536166654d6174683a206469766973696f6e206279207a65726f000000000000604482015290519081900360640190fd5b818381613d5457fe5b049392505050565b600082820183811015610acc576040805162461bcd60e51b815260206004820152601b60248201527f536166654d6174683a206164646974696f6e206f766572666c6f770000000000604482015290519081900360640190fd5b600080610f046012613807565b6000808260400151118015613ddd57506040820151600810155b613de657600080fd5b6040820151600210613dfd57506020810151610c0b565b6000613e0f6001846040015103613eae565b6020840151909150610acc906276a70090613e2a90846130d6565b90613d5c565b600080600080613e3e613c8f565b6001600160a01b0395909516600090815260209590955250506040909220546001600160601b03811693600160601b82046001600160801b03169350600160e01b90910463ffffffff169150565b6000610fa88261344d6301da9c00818861344789670de0b6b3a7640000613c9c565b60008160011415613ec357506276a700610c0b565b8160021415613ed6575062ed4e00610c0b565b8160031415613eea57506301da9c00610c0b565b8160041415613efe57506303b53800610c0b565b8160051415613f1257506309450c00610c0b565b8160061415613f26575063128a1800610c0b565b8160071415613f3a57506325143000610c0b565b60405162461bcd60e51b815260040161017a90614986565b604051806101200160405280600061ffff16815260200160008152602001600081526020016000815260200160008152602001600081526020016000815260200160008152602001600081525090565b6040805160a08101825260008082526020820181905291810182905260608101829052608081019190915290565b6040518060800160405280606081526020016060815260200160008152602001600081525090565b6040518060c0016040528060008152602001600081526020016000815260200160008152602001600081526020016000600381111561403357fe5b905290565b604051806060016040528060006001600160a01b0316815260200160008152602001600081525090565b6040805160a0810182526000808252602082018190529181018290529060608201908152602001600081525090565b60405180602001604052806001906020820280368337509192915050565b80356001600160a01b0381168114610c0b57600080fd5b60008083601f8401126140d7578081fd5b5081356001600160401b038111156140ed578182fd5b602083019150836020808302850101111561410757600080fd5b9250929050565b600082601f83011261411e578081fd5b815160206001600160401b038083111561413457fe5b6141418283850201614b9a565b8381528281019086840160c0808702890186018a101561415f578788fd5b875b878110156141e05781838c031215614177578889fd5b60408051838101818110898211171561418c57fe5b82528451815288850151898201528482015191810191909152606080850151908201526080808501519082015260a0906141c7828601614207565b9181019190915285529386019391810191600101614161565b50919998505050505050505050565b80516001600160701b031981168114610c0b57600080fd5b805160048110610c0b57600080fd5b8051610c0b81614bce565b805160ff81168114610c0b57600080fd5b600080600060408486031215614246578283fd5b61424f846140af565b925060208401356001600160401b03811115614269578283fd5b614275868287016140c6565b9497909650939450505050565b600080600080600060608688031215614299578081fd5b6142a2866140af565b945060208601356001600160401b03808211156142bd578283fd5b6142c989838a016140c6565b909650945060408801359150808211156142e1578283fd5b818801915088601f8301126142f4578283fd5b813581811115614302578384fd5b896020828501011115614313578384fd5b9699959850939650602001949392505050565b60008060006040848603121561433a578283fd5b614343846140af565b925060208401356001600160401b038082111561435e578384fd5b818601915086601f830112614371578384fd5b81358181111561437f578485fd5b87602060c083028501011115614393578485fd5b6020830194508093505050509250925092565b6000806000604084860312156143ba578081fd5b6143c3846140af565b925060208401356001600160401b03811115614269578182fd5b6000602082840312156143ee578081fd5b8135610acc81614bbd565b60006020828403121561440a578081fd5b813560078110610acc578182fd5b600060208284031215614429578081fd5b5051919050565b60008060408385031215614442578182fd5b82519150602083015161445481614bbd565b809150509250929050565b600060a08284031215614470578081fd5b60405160a081018181106001600160401b038211171561448c57fe5b604052825164ffffffffff811681146144a3578283fd5b815260208301516001600160f81b0319811681146144bf578283fd5b60208201526144d060408401614221565b60408201526144e160608401614216565b60608201526144f2608084016141ef565b60808201529392505050565b60008060408385031215614510578182fd5b82516001600160401b0380821115614526578384fd5b9084019060808287031215614539578384fd5b60405160808101818110838211171561454e57fe5b60405282518281111561455f578586fd5b61456b8882860161410e565b82525060208301518281111561457f578586fd5b61458b8882860161410e565b6020830152506040830151604082015260608301516060820152809450505050602083015190509250929050565b6000602082840312156145ca578081fd5b8135610acc81614bce565b81835260006001600160fb1b038311156145ed578081fd5b6020830280836020870137939093016020019283525090919050565b6000815180845260208085019450808401835b8381101561467657815180518852838101518489015260408082015190890152606080820151908901526080808201519089015260a090810151906004821061466157fe5b88015260c0909601959082019060010161461c565b509495945050505050565b6001600160a01b0391909116815260200190565b6001600160a01b038581168252841660208201526060604082018190528101829052600082846080840137818301608090810191909152601f909201601f191601019392505050565b6001600160a01b0396871681529486166020860152928516604085015290841660608401528316608083015290911660a082015260c00190565b6001600160a01b03929092168252805164ffffffffff166020808401919091528101516001600160f81b03191660408084019190915281015160ff1660608084019190915281015161ffff1660808084019190915201516001600160701b03191660a082015260c00190565b600060018060a01b038716825261ffff861660208301526080604083015284516080808401526147b8610100840182614609565b90506020860151607f198483030160a08501526147d58282614609565b915050604086015160c0840152606086015160e084015282810360608401526147ff8185876145d5565b98975050505050505050565b6001600160a01b0396909616865261ffff94909416602086015260408501929092526060840152608083015260a082015260c00190565b6001600160a01b038616815261ffff8516602082015264ffffffffff84166040820152608060608201819052600090611e1290830184866145d5565b6001600160a01b0393841681526020810192909252909116604082015260600190565b6001600160a01b03948516815260208101939093529216604082015261ffff909116606082015260800190565b6001600160a01b0394909416845260208401929092526040830152606082015260800190565b90815260200190565b6020808252600c908201526b155b985d5d1a1bdc9a5e995960a21b604082015260600190565b602080825260049082015263135a5b9d60e21b604082015260600190565b6020808252600b908201526a4554482042616c616e636560a81b604082015260600190565b60208082526006908201526552656465656d60d01b604082015260600190565b6020808252600d908201526c092dcecc2d8d2c840d2dcc8caf609b1b604082015260600190565b60208082526010908201526f556e736f7274656420616374696f6e7360801b604082015260600190565b6020808252601a908201527f496e73756666696369656e7420746f6b656e2062616c616e6365000000000000604082015260600190565b6020808252600e908201526d1499595b9d1c985b9d0818d85b1b60921b604082015260600190565b60208082526008908201526709ccace4086c2e6d60c31b604082015260600190565b6020808252601a908201527f496e76616c69642074726164657320666f72206163636f756e74000000000000604082015260600190565b6020808252600a90820152692732b390372a37b5b2b760b11b604082015260600190565b602080825260119082015270092dce6eaccccd2c6d2cadce840c6c2e6d607b1b604082015260600190565b602080825260149082015273125b9cdd59999a58da595b9d0819195c1bdcda5d60621b604082015260600190565b61ffff929092168252602082015260400190565b6000808335601e19843603018112614b36578283fd5b8301803591506001600160401b03821115614b4f578283fd5b602090810192508102360382131561410757600080fd5b6000823560de19833603018112614b7b578182fd5b9190910192915050565b60008235605e19833603018112614b7b578182fd5b6040518181016001600160401b0381118282101715614bb557fe5b604052919050565b8015158114614bcb57600080fd5b50565b61ffff81168114614bcb57600080fdfe536166654d6174683a206d756c7469706c69636174696f6e206f766572666c6f77a26469706673582212209bd29b5891303174061353c8aa58b2b4e4610e9c4816784b642d9bd89aae5aca64736f6c63430007060033","bytecodeSha1":"d5eb9853740b24e7c8aa2301d5ef74e768ee2bb1","compiler":{"evm_version":"istanbul","optimizer":{"enabled":true,"runs":200},"version":"0.7.6+commit.7338295f"},"contractName":"BatchAction","deployedBytecode":"60806040526004361061007b5760003560e01c80636e6a32a61161004e5780636e6a32a6146100f357806382463367146101065780638da5cb5b1461011b578063c4c96dae146101305761007b565b80630276b64b1461008057806324a3d62214610095578063541f5270146100c05780635950d8e9146100e0575b600080fd5b61009361008e3660046141f2565b610157565b005b3480156100a157600080fd5b506100aa6101e7565b6040516100b79190614641565b60405180910390f35b3480156100cc57600080fd5b506100936100db366004614366565b6101f6565b6100936100ee366004614242565b61053e565b6100936101013660046142e6565b61066e565b34801561011257600080fd5b506100aa6107f4565b34801561012757600080fd5b506100aa610803565b34801561013c57600080fd5b5061014561081a565b6040516100b79695949392919061469e565b6002600a5414156101835760405162461bcd60e51b815260040161017a906149c5565b60405180910390fd5b6002600a556001600160a01b03831633148061019e57503330145b6101ba5760405162461bcd60e51b815260040161017a906148b4565b6101c3836108a0565b60006101d08484846108ef565b90506101dc8482610aaa565b50506001600a555050565b6002546001600160a01b031681565b6002600a5414156102195760405162461bcd60e51b815260040161017a906149c5565b6002600a556001600160a01b03831633148061023457503330145b6102505760405162461bcd60e51b815260040161017a906148b4565b610259836108a0565b600061026484610b2b565b905060006102788583604001516000610be7565b9050610282613f12565b60005b8481101561050c573686868381811061029a57fe5b90506020028101906102ac9190614b3c565b90508115610315578686600184038181106102c357fe5b90506020028101906102d59190614b3c565b6102e3906020810190614579565b61ffff166102f46020830183614579565b61ffff16116103155760405162461bcd60e51b815260040161017a90614964565b60006103246040830183614ad7565b9150508061033157600080fd5b60005b8181101561037457600061034b6040850185614ad7565b8381811061035557fe5b9050602002013560f81c60ff161461036c57600080fd5b600101610334565b5061038f896103866020850185614579565b86919089610c79565b6103b4896103a06020850185614579565b6103ad6040860186614ad7565b8a8a610d1f565b606086018290529550600012156103ca57600080fd5b60006103ef6103ea86606001518760200151610ec590919063ffffffff16565b610ee1565b905060008113156104ef5761040a604084016020850161439d565b156104b757600061042a6104216020860186614579565b61ffff16610eef565b9050600061044761043e6020870187614579565b61ffff16610f3b565b9050600061045f6104588486610f4e565b8390610f87565b90506305f5e1008260400151121561047f5761047c816001610ec5565b90505b600061048c898f84610fbf565b9050848112156104ae5760405162461bcd60e51b815260040161017a90614a95565b505050506104ef565b60006104d26104c96020860186614579565b61ffff166110a4565b90506104ec8b6104e28385610f87565b88919060006110b7565b50505b6104fc858b896000611191565b5050600190920191506102859050565b5061051683611412565b61052757610527838784600061141f565b6105318684610aaa565b50506001600a5550505050565b3360009081526008602052604090205460ff1661056d5760405162461bcd60e51b815260040161017a906148b4565b610576856108a0565b60006105838686866108ef565b905061058f8187611501565b60405163550d065760e11b8152339063aa1a0cae906105b89083908a9088908890600401614655565b600060405180830381600087803b1580156105d257600080fd5b505af11580156105e6573d6000803e3d6000fd5b5050505060208101516001600160f81b0319161561066657604051636ccc642f60e01b815273__$841fddfe32830bb6dbc3a02d7f16c53722$__90636ccc642f90610635908990600401614641565b60006040518083038186803b15801561064d57600080fd5b505af4158015610661573d6000803e3d6000fd5b505050505b505050505050565b6002600a5414156106915760405162461bcd60e51b815260040161017a906149c5565b6002600a556001600160a01b0383163314806106ac57503330145b6106c85760405162461bcd60e51b815260040161017a906148b4565b6106d1836108a0565b60006106dc84610b2b565b90506106e6613f12565b60005b838110156107dd57368585838181106106fe57fe5b905060c002019050600082111561076b5785856001840381811061071e57fe5b905060c0020160200160208101906107369190614579565b61ffff1661074a6040830160208401614579565b61ffff161161076b5760405162461bcd60e51b815260040161017a90614964565b6107888761077f6040840160208501614579565b85919087610c79565b6107a4878461079a60208501856143b9565b8460400135611605565b6107d487858560608501356107bf60a087016080880161439d565b6107cf60c0880160a0890161439d565b6116d8565b506001016106e9565b506107e88583610aaa565b50506001600a55505050565b6001546001600160a01b031681565b60005464010000000090046001600160a01b031681565b73__$841fddfe32830bb6dbc3a02d7f16c53722$__73__$b21a4dc043b77aa57922ad9143a3cb040e$__73__$f6541b0d362a0c7d99a2a29cd3d373d61b$__73__$7ac922d04bd7a1b42c7f6e5f1dd89a70af$__73__$892f367d396be2b92d3b049e6e62920984$__73__$43fd92ea4ea9b72ca0014644dbfd757564$__909192939495565b6001600160a01b0381166108b357600080fd5b6001600160a01b0381163014156108c957600080fd5b60006108d482611755565b5050505061ffff169050806000146108eb57600080fd5b5050565b6108f7613f62565b600061090285610b2b565b905061090c613f12565b600061091e8784604001516000610be7565b905060005b85811015610a82573687878381811061093857fe5b905060200281019061094a9190614b1d565b905081156109b95787876001840381811061096157fe5b90506020028101906109739190614b1d565b610984906040810190602001614579565b61ffff166109986040830160208401614579565b61ffff16116109b95760405162461bcd60e51b815260040161017a90614964565b6109d6896109cd6040840160208501614579565b86919088610c79565b6109e8898561079a60208501856143b9565b60006109f760c0830183614ad7565b90501115610a5e576000610a298a610a156040850160208601614579565b610a2260c0860186614ad7565b8a89610d1f565b945090506000811215610a4857610a4885610a4383610ee1565b6117be565b6060850151610a579082610ec5565b6060860152505b610a7989868660608501356107bf60a087016080880161439d565b50600101610923565b50610a8c83611412565b610a9d57610a9d838883600061141f565b50909150505b9392505050565b610ab48183611501565b60208101516001600160f81b031916156108eb57604051636ccc642f60e01b815273__$841fddfe32830bb6dbc3a02d7f16c53722$__90636ccc642f90610aff908590600401614641565b60006040518083038186803b158015610b1757600080fd5b505af4158015610666573d6000803e3d6000fd5b610b33613f62565b6000610b3e8361180d565b9050610b49816118ae565b15610bdf576040516337b5fc2160e11b815273__$f6541b0d362a0c7d99a2a29cd3d373d61b$__90636f6bf84290610b8790869085906004016146d8565b60a06040518083038186803b158015610b9f57600080fd5b505af4158015610bb3573d6000803e3d6000fd5b505050506040513d601f19601f82011682018060405250810190610bd7919061441f565b915050610be2565b90505b919050565b610bef613f90565b610bf7613f90565b60ff8416610c06579050610aa3565b610c1085856118ff565b815260ff84166060820152826001600160401b0381118015610c3157600080fd5b50604051908082528060200260200182016040528015610c6b57816020015b610c58613fb8565b815260200190600190039081610c505790505b506020820152949350505050565b8161ffff166000108015610c935750613fff61ffff831611155b610c9c57600080fd5b61ffff8216808552610caf908290611928565b15610cdc57610cc2838361ffff166119b2565b61010088015260e087015260408601526020850152610cfa565b6000602085018190526040850181905260e085018190526101008501525b50506000606083018190526080830181905260a0830181905260c09092019190915250565b6000610d29613f90565b610d3284611412565b15610e22578661ffff16846060015161ffff1614610d625760405162461bcd60e51b815260040161017a90614a0f565b60608401518451604051633643f39b60e01b815260009273__$7ac922d04bd7a1b42c7f6e5f1dd89a70af$__92633643f39b92610da9928e9290918d908d906004016147cb565b604080518083038186803b158015610dc057600080fd5b505af4158015610dd4573d6000803e3d6000fd5b505050506040513d601f19601f82011682018060405250810190610df891906143f0565b90935090508015610e1c57602085018051600160f81b176001600160f81b03191690525b50610eba565b60405163b58f83ed60e01b815273__$7ac922d04bd7a1b42c7f6e5f1dd89a70af$__9063b58f83ed90610e61908b908b9088908c908c90600401614744565b60006040518083038186803b158015610e7957600080fd5b505af4158015610e8d573d6000803e3d6000fd5b505050506040513d6000823e601f3d908101601f19168201604052610eb591908101906144be565b925090505b965096945050505050565b81810182811215600083121514610edb57600080fd5b92915050565b6000610bdf60001983611a5e565b610ef7613ff8565b6000806000610f0585611aac565b604080516060810182526001600160a01b039093168352602083019390935260ff16600a0a918101919091529350505050919050565b610f43614022565b610bdf826001611b6f565b600080610f7f8460400151610f796402540be400610f79878960200151611a5e90919063ffffffff16565b90611c1d565b949350505050565b60006305f5e10083604001511415610fa0575080610edb565b610aa36305f5e100610f79856040015185611a5e90919063ffffffff16565b600081610fce57506000610aa3565b60008213610fdb57600080fd5b6000610fee856000015161ffff16610f3b565b905060038160600151600581111561100257fe5b141561102c573483146110275760405162461bcd60e51b815260040161017a906148f8565b611043565b8451611040908290869061ffff1686611c4e565b92505b6000611056866000015161ffff166110a4565b90506000611073876000015161106b87611cf6565b849190611d09565b905060006110818383611dfa565b60608901519091506110939082610ec5565b606089015293505050509392505050565b6110ac614022565b610bdf826000611b6f565b6000826110c657506000610f7f565b600083136110d357600080fd5b60006110e6866000015161ffff166110a4565b90506005816060015160058111156110fa57fe5b14156111135785516111109061ffff1685611e2a565b93505b8060200151806111205750825b1561116757855160009061113c908390889061ffff1688611c4e565b90506111488282611dfa565b606088015190935061115a9084610ec5565b606088015250610f7f9050565b6111718185611dfa565b60808701519092506111839083610ec5565b608087015250949350505050565b60008060008660a0015112156111ea5760006111cc8760a001516111c68960c001518a60400151610ec590919063ffffffff16565b90610ec5565b12156111ea5760405162461bcd60e51b815260040161017a90614a46565b60008660800151121561123a57600061121c87608001516111c689606001518a60200151610ec590919063ffffffff16565b121561123a5760405162461bcd60e51b815260040161017a906149ed565b611245868685611eb1565b60808801819052606088015191935060009161126091610ec5565b905080156112cd5760208701516112779082610ec5565b602088015286516040516001935061ffff909116906001600160a01b038816907f5441e4a5fac93a951d782e6f1cdb82e95c8fc58561a013953d17e395c5e69b4b906112c49085906148ab565b60405180910390a35b60a08701511515806112e2575060c087015115155b1561138857600061130c8860c001516111c68a60a001518b60400151610ec590919063ffffffff16565b9050611321888861131c84611cf6565b611f67565b506040880181905260c08801511561138257876000015161ffff16876001600160a01b03167f412bc13d202a2ea5119e55fec9c5e420dddb18faf186373ad9795ad4f4545aa98a60c0015160405161137991906148ab565b60405180910390a35b60019250505b81156113b5576113b586886000015161ffff1689602001518a604001518b60e001518c610100015161204e565b865160208801516113e29161ffff16901515806113d55750604089015115155b879190600160fe1b612187565b60008760200151121561140857602085018051600160f91b176001600160f81b03191690525b5050949350505050565b6060015161ffff16151590565b600080808061142e8688612386565b64ffffffffff81168c529296509094509250905061144b886118ae565b1561145557600080fd5b60ff821660408901528461147457600760ff8316111561147457600080fd5b831561149757602088018051600160f81b176001600160f81b03191690526114a6565b602088018051607f60f91b1690525b6114b388608001516125c5565b6001600160701b031916608089015260005b83156114f65760f084901c8181146114e8576114e88a826001600160ff1b612187565b60109490941b9390506114c5565b505050505050505050565b600061150b612640565b6001600160a01b03831660008181526020838152604080832088518154938a0151838b015160608c015160808d015160701c600160481b027affffffffffffffffffffffffffffffffffff0000000000000000001961ffff909216600160381b0268ffff000000000000001960ff94909416600160301b0266ff0000000000001960f89690961c650100000000000265ff00000000001964ffffffffff90981664ffffffffff19909b169a909a1796909616989098179390931693909317169490941716929092179091555192935090917f6bd4b121bca854a191536a2ca891155c42ee2fb23f307fb34e8bc65cfcb5412e9190a2505050565b60006116108261264d565b905060008082121561162157600080fd5b600084600681111561162f57fe5b141561163c5750506116d2565b600184600681111561164a57fe5b14806116615750600384600681111561165f57fe5b145b1561167a5761167385878460006110b7565b90506116c6565b600284600681111561168857fe5b148061169f5750600484600681111561169d57fe5b145b156116af57611673858784610fbf565b60068460068111156116bd57fe5b14156116c65750805b61066685858484612663565b50505050565b60006116e38461264d565b905060008112156116f357600080fd5b821561172b5761171c85608001516111c687606001518860200151610ec590919063ffffffff16565b9050600081121561172b575060005b608085015161173a908261287e565b608086015261174b85888885611191565b5050505050505050565b600080600080600080611766612894565b6001600160a01b039097166000908152602097909752505060409094205461ffff81169563ffffffff62010000830481169650600160301b830416945060ff600160501b8304169350600160581b90910460d81b9150565b600081121580156117f15750806117ee83608001516111c685606001518660200151610ec590919063ffffffff16565b12155b6108eb5760405162461bcd60e51b815260040161017a90614a6a565b611815613f62565b600061181f612640565b6001600160a01b039390931660009081526020938452604090819020815160a081018352905464ffffffffff8116825265010000000000810460f81b6001600160f81b03191695820195909552600160301b850460ff1691810191909152600160381b840461ffff166060820152600160481b90930460701b6001600160701b03191660808401525090919050565b6000426118ba83611412565b156118db576118c8816128a1565b835164ffffffffff16109150610be29050565b825164ffffffffff1615801590610bd75750825164ffffffffff1611159050610be2565b6060600061190d84846128bf565b9050600181511161191f579050610edb565b610aa3816129e0565b6000811580159061193b5750613fff8211155b61194457600080fd5b6080830151606084015161ffff16831415611963576001915050610edb565b6001600160701b03198116156119a85760f081901c613fff16838114156119955750600160fe1b908116149050610edb565b5060101b6001600160801b031916611963565b5060009392505050565b60008060008060006119c2612b98565b6001600160a01b0388166000908152602082815260408083208a84529091529020805469ffffffffffffffffffff81169650600160501b900463ffffffff1694509091508315611a2e578054611a2790600160701b900466ffffffffffffff16612ba5565b9250611a43565b8054600160701b900466ffffffffffffff1692505b54600160a81b9004600a90810b900b97939650919450925050565b818102600019831415611a8e57811580611a80575082828281611a7d57fe5b05145b611a8957600080fd5b610edb565b821580611aa3575081838281611aa057fe5b05145b610edb57600080fd5b6000806000806000611abd86612bb3565b909250905060006001600160a01b038316611ae25750600090506402540be400611b64565b826001600160a01b0316631ee108336040518163ffffffff1660e01b8152600401602060405180830381600087803b158015611b1d57600080fd5b505af1158015611b31573d6000803e3d6000fd5b505050506040513d601f19601f82011682018060405250810190611b5591906143d8565b905060008113611b6457600080fd5b969195509350915050565b611b77614022565b6000611b81612bea565b6000858152602082815260408083208715158452825291829020825160a08101845281546001600160a01b038116825260ff600160a01b82048116151594830194909452600160b01b81048416600a0a9482019490945293945092916060830191600160a81b909104166005811115611bf657fe5b81529154600160b81b900468ffffffffffffffffff16602090920191909152949350505050565b600081600019148015611c335750600160ff1b83145b15611c3d57600080fd5b818381611c4657fe5b059392505050565b80600585606001516005811115611c6157fe5b1415611c86576000611c7284610f3b565b9050611c82816000015184612bf7565b9250505b6000821315611cb2576000611c9c868685612c89565b9050856020015115611cac578091505b50610f7f565b600385606001516005811115611cc457fe5b1415611ce157611cdc84611cd784610ee1565b612d7c565b610f7f565b8451610f7f9085611cf185610ee1565b612db7565b600080821215611d0557600080fd5b5090565b600080600585606001516005811115611d1e57fe5b14611d30576370a0823160e01b611d39565b630ed1279f60e11b5b90506000611d4c86600001513084612e2e565b9050600586606001516005811115611d6057fe5b1415611d87576000611d758661ffff16610f3b565b9050611d818186612f40565b50611dca565b600186606001516005811115611d9957fe5b1415611da957611d818685612fab565b600286606001516005811115611dbb57fe5b141561007b57611dca86613057565b6000611ddb87600001513085612e2e565b9050611def611dea8284613096565b61264d565b979650505050505050565b60006305f5e10083604001511415611e13575080610edb565b6040830151610aa390610f79846305f5e100611a5e565b600081611e3957506000610edb565b60008213611e4657600080fd5b6000611e5184610f3b565b90506000611e6282600001516130f3565b9050600281056b033b2e3c9fd0803ce80000006001600160ff1b0382900305851315611e8d57600080fd5b81816b033b2e3c9fd0803ce800000087020181611ea657fe5b059695505050505050565b6000806000611ec7866000015161ffff166110a4565b90506000611ee2876080015183610f8790919063ffffffff16565b905080611ef757600080935093505050611f5f565b848015611f045750600081125b15611f39578651611f269061ffff1687611f1d84610ee1565b8592919061317e565b9350611f328282611dfa565b9250611f5c565b8651611f4d908390889061ffff1684611c4e565b9350611f598285611dfa565b92505b50505b935093915050565b825160009042908290611f7d9061ffff16613214565b90506000611f90828860c001518561323a565b9050611f9e8783838861331d565b93506000611fab8361344a565b90506001600160a01b0381161561203357806001600160a01b0316639fc27b9288611fd98b60400151611cf6565b898c60c001518a6040518663ffffffff1660e01b8152600401612000959493929190614857565b600060405180830381600087803b15801561201a57600080fd5b505af115801561202e573d6000803e3d6000fd5b505050505b84156120435761204387866134bc565b505050509392505050565b6000612058612b98565b6001600160a01b0388166000908152602082815260408083208a845290915290209091506a7fffffffffffffffffffff1986128015906120a357506a7fffffffffffffffffffff8613155b6120ac57600080fd5b600085121580156120c7575069ffffffffffffffffffff8513155b6120d057600080fd5b83156120db57600080fd5b66ffffffffffffff8311156120ef57600080fd5b805466ffffffffffffff909316600160701b0266ffffffffffffff60701b19600a9790970b6affffffffffffffffffffff16600160a81b026001600160a81b0363ffffffff909616600160501b0263ffffffff60501b1969ffffffffffffffffffff90981669ffffffffffffffffffff1990961695909517969096169390931793909316939093179390931692909217909155505050565b8260001080156121995750613fff8311155b6121a257600080fd5b8180156121b6575082846060015161ffff16145b156121c0576116d2565b6080840151600090815b6001600160701b031982161561233b5760f082901c613fff1686811480156121ef5750855b1561222757506080870180516001600160f01b0319861660109093029290921c919091176001600160701b0319169052506116d29050565b8681148015612234575085155b15612289576001600160f01b03198516199290921691600360fe1b8316612267576010836001600160701b031916901b92505b506001600160701b031991821660109091021c919091171660808501526116d2565b86811180156122955750855b156122ef576080888101516001600160f01b031960f08a901b88178116601086021c9690961795911b16156122c957600080fd5b506001600160701b03199182166001919091016010021c919091171660808501526116d2565b86811180156122fc575085155b1561230a57505050506116d2565b506001600160f01b0319821660108281029190911c93909317929190911b6001600160801b031916906001016121ca565b84612348575050506116d2565b6009811061235557600080fd5b6001600160f01b031960f087901b85171660109091021c919091176001600160701b03191660808601525050505050565b6000808080808080805b8951518110156124175760008a6000015182815181106123ac57fe5b602002602001015190506003808111156123c257fe5b8160a0015160038111156123d257fe5b14156123dd57600080fd5b60028160a0015160038111156123ef57fe5b141580156123ff57506060810151155b1561240e5761240e8b836134db565b50600101612390565b5060005b8951518110156124ba5760008a60000151828151811061243757fe5b602002602001015190506002600381111561244e57fe5b8160a00151600381111561245e57fe5b1415612472576080810151600090556124b1565b60018160a00151600381111561248457fe5b141561249d5760808101518061249a838261362a565b50505b6124a98186868661375b565b919650945092505b5060010161241b565b50606089015160006124ca6137be565b6001600160a01b038b1660009081526020829052604081209192505b8c60200151518110156125945760008d60200151828151811061250557fe5b60200260200101519050806060015160001415612522575061258c565b60028160a00151600381111561253457fe5b14158015612552575060038160a00151600381111561254f57fe5b14155b61255b57600080fd5b6125678189898961375b565b919950975095506125848184876010811061257e57fe5b0161362a565b600185019450505b6001016124e6565b50601083111580156125ab575064ffffffffff8411155b6125b457600080fd5b50939a929950975095509350505050565b6000807f7fff7fff7fff7fff7fff7fff7fff7fff7fff00000000000000000000000000008316815b6001600160701b031982161561263757600160fe1b8281161415612621576001600160f01b03198216811c92909217916010015b6010826001600160701b031916901b91506125ed565b50909392505050565b600080610edb60016137c7565b60006001600160ff1b03821115611d0557600080fd5b600383600681111561267157fe5b14806126885750600483600681111561268657fe5b145b8061269e5750600683600681111561269c57fe5b145b1561276a576126ad84826117be565b60608401516126bc908261287e565b60608501528351604051632128561360e11b815260009173__$892f367d396be2b92d3b049e6e62920984$__91634250ac26916126fd918690600401614ac3565b60206040518083038186803b15801561271557600080fd5b505af4158015612729573d6000803e3d6000fd5b505050506040513d601f19601f8201168201806040525081019061274d91906143d8565b60c086015190915061275f9082610ec5565b60c0860152506116d2565b600583600681111561277857fe5b14156116d257816127a28560c001516111c68760a001518860400151610ec590919063ffffffff16565b12156127c05760405162461bcd60e51b815260040161017a9061498e565b60c08401516127cf908361287e565b60c085015283516040516352e73f7760e01b815260009173__$43fd92ea4ea9b72ca0014644dbfd757564$__916352e73f7791612810918790600401614ac3565b60206040518083038186803b15801561282857600080fd5b505af415801561283c573d6000803e3d6000fd5b505050506040513d601f19601f8201168201806040525081019061286091906143d8565b60608601519091506128729082610ec5565b60608601525050505050565b80820382811315600083121514610edb57600080fd5b600080610edb60026137c7565b6000620151808210156128b357600080fd5b50620151808106900390565b606060108260ff1611156128d257600080fd5b60006128dc6137be565b6001600160a01b038516600090815260208290526040812091925060ff85166001600160401b038111801561291057600080fd5b5060405190808252806020026020018201604052801561294a57816020015b612937613fb8565b81526020019060019003908161292f5790505b50905060005b8560ff168110156129d657600083826010811061296957fe5b019050600083838151811061297a57fe5b602090810291909101810151835461ffff8116825264ffffffffff620100008204169282019290925260ff600160381b8304166040820152600160401b909104600a90810b900b60608201526080019190915250600101612950565b5095945050505050565b80516000816001600160401b03811180156129fa57600080fd5b50604051908082528060200260200182016040528015612a24578160200160208202803683370190505b50905060005b82811015612a81576000848281518110612a4057fe5b60200260200101519050612a618160000151826020015183604001516137e0565b838381518110612a6d57fe5b602090810291909101015250600101612a2a565b5060015b828110156116d257805b600081118015612ac75750828181518110612aa657fe5b6020026020010151836001830381518110612abd57fe5b6020026020010151115b15612b8f57828181518110612ad857fe5b6020026020010151836001830381518110612aef57fe5b6020026020010151846001840381518110612b0657fe5b60200260200101858481518110612b1957fe5b6020026020010182815250828152505050848181518110612b3657fe5b6020026020010151856001830381518110612b4d57fe5b6020026020010151866001840381518110612b6457fe5b60200260200101878481518110612b7757fe5b60209081029190910101919091525260001901612a8f565b50600101612a85565b600080610edb60066137c7565b600881901c60ff9091161b90565b6000806000612bc061383b565b600094855260205250506040909120546001600160a01b03811692600160a01b90910460ff169150565b600080610edb60076137c7565b600081612c0657506000610edb565b6000612c11846130f3565b90506000612c1e84613848565b9050816b019d971e4fe8401e74000001600160ff1b0381612c3b57fe5b05811315612c4857600080fd5b6b033b2e3c9fd0803ce80000006b019d971e4fe8401e74000000838302010560008513612c7d57612c7881610ee1565b612c7f565b805b9695505050505050565b6000808080600587606001516005811115612ca057fe5b14612cb2576370a0823160e01b612cbb565b630ed1279f60e11b5b9050866020015115612cd7578651612cd4903083612e2e565b92505b8651612ce4908787613869565b866020015180612cf8575060008760800151115b15612d0d578651612d0a903083612e2e565b91505b608087015115612d48576000612d2b88612d268561264d565b611dfa565b9050612d3a886080015161264d565b811315612d4657600080fd5b505b866020015115612d6957612d5f611dea8385613096565b9350505050610aa3565b612d5f8561264d565b5050509392505050565b6040516001600160a01b0383169082156108fc029083906000818181858888f19350505050158015612db2573d6000803e3d6000fd5b505050565b826001600160a01b031663a9059cbb83836040518363ffffffff1660e01b815260040180836001600160a01b0316815260200182815260200192505050600060405180830381600087803b158015612e0e57600080fd5b505af1158015612e22573d6000803e3d6000fd5b50505050612db26138c1565b604080516001600160a01b0384811660248084019190915283518084039091018152604490920183526020820180516001600160e01b03166001600160e01b0319861617815292518251600094859485948a16939092909182918083835b60208310612eab5780518252601f199092019160209182019101612e8c565b6001836020036101000a038019825116818451168082178552505050505050905001915050600060405180830381855afa9150503d8060008114612f0b576040519150601f19603f3d011682016040523d82523d6000602084013e612f10565b606091505b509150915081612f1f57600080fd5b808060200190516020811015612f3457600080fd5b50519695505050505050565b612f4861392e565b54825160405163e8eda9df60e01b81526001600160a01b039092169163e8eda9df91612f7d918590309060009060040161482a565b600060405180830381600087803b158015612f9757600080fd5b505af1158015610666573d6000803e3d6000fd5b60008083600001516001600160a01b031663a0712d68846040518263ffffffff1660e01b8152600401612fde91906148ab565b602060405180830381600087803b158015612ff857600080fd5b505af115801561300c573d6000803e3d6000fd5b505050506040513d601f19601f8201168201806040525081019061303091906143d8565b905080156130505760405162461bcd60e51b815260040161017a906148da565b5092915050565b80600001516001600160a01b0316631249c58b346040518263ffffffff1660e01b81526004016000604051808303818588803b158015612f9757600080fd5b6000828211156130ed576040805162461bcd60e51b815260206004820152601e60248201527f536166654d6174683a207375627472616374696f6e206f766572666c6f770000604482015290519081900360640190fd5b50900390565b6000610bdf61310061392e565b5460405163d15e005360e01b81526001600160a01b039091169063d15e00539061312e908690600401614641565b60206040518083038186803b15801561314657600080fd5b505afa15801561315a573d6000803e3d6000fd5b505050506040513d601f19601f82011682018060405250810190611dea91906143d8565b60008060028660600151600581111561319357fe5b14156131ab576131a486858561393b565b9050613208565b60006131b686610f3b565b90506005876060015160058111156131ca57fe5b14156131e2576131db8186866139f8565b9150613206565b6001876060015160058111156131f457fe5b141561007b576131db87828787613aae565b505b612c7f6103ea8261264d565b60008061321f613bac565b6000938452602052505060409020546001600160a01b031690565b60008060006132498685613bb9565b50915091506000613258613c4f565b6001600160a01b038816600090815260208290526040812091925061327d8589610ec5565b90508060001315801561329657506001600160601b0381105b61329f57600080fd5b81546bffffffffffffffffffffffff19166001600160601b038216176fffffffffffffffffffffffffffffffff60601b1916600160601b6001600160801b0386160217825563ffffffff87106132f457600080fd5b50805463ffffffff8716600160e01b026001600160e01b03909116179055509150509392505050565b60e0840151600090156133de5773__$b21a4dc043b77aa57922ad9143a3cb040e$__63e0c01a72856133528860400151611cf6565b8860e001518961010001516040518563ffffffff1660e01b815260040161337c9493929190614885565b60206040518083038186803b15801561339457600080fd5b505af41580156133a8573d6000803e3d6000fd5b505050506040513d601f19601f820116820180604052508101906133cc91906143d8565b600060e0870181905261010087015290505b613420613419866101000151613413670de0b6b3a764000061340d886134078c60400151611cf6565b90613c5c565b90613cb5565b90613096565b8290613d1c565b9050613438670de0b6b3a764000061340d8486613c5c565b85610100018181525050949350505050565b600080613455612894565b6001600160a01b0384166000908152602082905260409020805491925090600160f81b900460ff16156134b15761348a613d76565b6001600160a01b038086166000908152602092909252604090912054169250610be2915050565b600092505050610be2565b6108eb73cfeaead4947f0705a14ec42ac3d44129e1ef3ed58383612db7565b81515181106134e957600080fd5b60008260600151116134fa57600080fd5b60008260000151828151811061350c57fe5b602002602001015190506002600381111561352357fe5b8160a00151600381111561353357fe5b14158015613551575060038160a00151600381111561354e57fe5b14155b61355a57600080fd5b606083018051600019019052600080805b8551518110156135cd5760008660000151828151811061358757fe5b602002602001015190508281608001511180156135b4575060028160a0015160038111156135b157fe5b14155b156135c457806080015192508193505b5060010161356b565b50818414156135e6575050600260a091909101526108eb565b6000856000015183815181106135f857fe5b602090810291909101015160808581018051918301805190915252600160a09182015260029401939093525050505050565b81511580159061363d57508151613fff10155b61364657600080fd5b816020015160001080156136635750602082015164ffffffffff10155b61366c57600080fd5b8160400151600010801561368557506040820151600810155b61368e57600080fd5b60608201516a7fffffffffffffffffffff19138015906136bd575060608201516a7fffffffffffffffffffff12155b6136c657600080fd5b8151815460208401516040850151606090950151600a0b6affffffffffffffffffffff16600160401b0272ffffffffffffffffffffff00000000000000001960ff909616600160381b0267ff000000000000001964ffffffffff909316620100000266ffffffffff00001961ffff90961661ffff19909516949094179490941692909217169190911792909216919091179055565b60008060008061376a88613d83565b905084158061377857508085115b15613781578094505b8680613791575060008860600151125b965061ffff8616156137a257600080fd5b50509451939560109390931c60f09490941b9390931793509150565b600080610edb600d5b6000620f42408260138111156137d957fe5b0192915050565b6000613fff8411156137f157600080fd5b64ffffffffff83111561380357600080fd5b600882111561381157600080fd5b5067ffff000000000000603084901b1665ffffffffff00600884901b161760ff8216179392505050565b600080610edb600f6137c7565b6000808212156138625761385b82610ee1565b9050610be2565b5080610be2565b604080516323b872dd60e01b81526001600160a01b038481166004830152306024830152604482018490529151918516916323b872dd9160648082019260009290919082900301818387803b158015612e0e57600080fd5b60006138cb614051565b3d80156138df57602081146138e857600080fd5b600192506138f3565b60206000833e815192505b50816108eb576040805162461bcd60e51b8152602060048201526005602482015264045524332360dc1b604482015290519081900360640190fd5b600080610edb60136137c7565b825160405163db006a7560e01b8152600091479183916001600160a01b03169063db006a759061396f9087906004016148ab565b602060405180830381600087803b15801561398957600080fd5b505af115801561399d573d6000803e3d6000fd5b505050506040513d601f19601f820116820180604052508101906139c191906143d8565b905080156139e15760405162461bcd60e51b815260040161017a9061491d565b476139ec8184613096565b9350612d728685612d7c565b6000613a18613a138560000151613a0e8561264d565b612bf7565b611cf6565b9050613a2261392e565b548451604051631a4ca37b60e21b81526001600160a01b03909216916369328dec91613a549185908890600401614807565b602060405180830381600087803b158015613a6e57600080fd5b505af1158015613a82573d6000803e3d6000fd5b505050506040513d601f19601f82011682018060405250810190613aa691906143d8565b509392505050565b82516000908190613ac790306370a0823160e01b612e2e565b9050600086600001516001600160a01b031663db006a75856040518263ffffffff1660e01b8152600401613afb91906148ab565b602060405180830381600087803b158015613b1557600080fd5b505af1158015613b29573d6000803e3d6000fd5b505050506040513d601f19601f82011682018060405250810190613b4d91906143d8565b90508015613b6d5760405162461bcd60e51b815260040161017a9061491d565b8551600090613b8490306370a0823160e01b612e2e565b9050613b908184613096565b9350613ba187600001518786612db7565b505050949350505050565b600080610edb60036137c7565b6000806000613bc785613df0565b919450925090508084118015613bdd5750600081115b8015613be95750600083115b15613c48576000613bf986611755565b5050509150506000613c24613c1b6305f5e10084613c5c90919063ffffffff16565b84880387613e4c565b9050613c308482613d1c565b93506001600160801b038410613c4557600080fd5b50505b9250925092565b600080610edb60116137c7565b600082613c6b57506000610edb565b82820282848281613c7857fe5b0414610aa35760405162461bcd60e51b8152600401808060200182810382526021815260200180614b966021913960400191505060405180910390fd5b6000808211613d0b576040805162461bcd60e51b815260206004820152601a60248201527f536166654d6174683a206469766973696f6e206279207a65726f000000000000604482015290519081900360640190fd5b818381613d1457fe5b049392505050565b600082820183811015610aa3576040805162461bcd60e51b815260206004820152601b60248201527f536166654d6174683a206164646974696f6e206f766572666c6f770000000000604482015290519081900360640190fd5b600080610edb60126137c7565b6000808260400151118015613d9d57506040820151600810155b613da657600080fd5b6040820151600210613dbd57506020810151610be2565b6000613dcf6001846040015103613e6e565b6020840151909150610aa3906276a70090613dea9084613096565b90613d1c565b600080600080613dfe613c4f565b6001600160a01b0395909516600090815260209590955250506040909220546001600160601b03811693600160601b82046001600160801b03169350600160e01b90910463ffffffff169150565b6000610f7f8261340d6301da9c00818861340789670de0b6b3a7640000613c5c565b60008160011415613e8357506276a700610be2565b8160021415613e96575062ed4e00610be2565b8160031415613eaa57506301da9c00610be2565b8160041415613ebe57506303b53800610be2565b8160051415613ed257506309450c00610be2565b8160061415613ee6575063128a1800610be2565b8160071415613efa57506325143000610be2565b60405162461bcd60e51b815260040161017a9061493d565b604051806101200160405280600061ffff16815260200160008152602001600081526020016000815260200160008152602001600081526020016000815260200160008152602001600081525090565b6040805160a08101825260008082526020820181905291810182905260608101829052608081019190915290565b6040518060800160405280606081526020016060815260200160008152602001600081525090565b6040518060c00160405280600081526020016000815260200160008152602001600081526020016000815260200160006003811115613ff357fe5b905290565b604051806060016040528060006001600160a01b0316815260200160008152602001600081525090565b6040805160a0810182526000808252602082018190529181018290529060608201908152602001600081525090565b60405180602001604052806001906020820280368337509192915050565b80356001600160a01b0381168114610be257600080fd5b60008083601f840112614097578081fd5b5081356001600160401b038111156140ad578182fd5b60208301915083602080830285010111156140c757600080fd5b9250929050565b600082601f8301126140de578081fd5b815160206001600160401b03808311156140f457fe5b6141018283850201614b51565b8381528281019086840160c0808702890186018a101561411f578788fd5b875b878110156141a05781838c031215614137578889fd5b60408051838101818110898211171561414c57fe5b82528451815288850151898201528482015191810191909152606080850151908201526080808501519082015260a0906141878286016141c7565b9181019190915285529386019391810191600101614121565b50919998505050505050505050565b80516001600160701b031981168114610be257600080fd5b805160048110610be257600080fd5b8051610be281614b85565b805160ff81168114610be257600080fd5b600080600060408486031215614206578283fd5b61420f8461406f565b925060208401356001600160401b03811115614229578283fd5b61423586828701614086565b9497909650939450505050565b600080600080600060608688031215614259578081fd5b6142628661406f565b945060208601356001600160401b038082111561427d578283fd5b61428989838a01614086565b909650945060408801359150808211156142a1578283fd5b818801915088601f8301126142b4578283fd5b8135818111156142c2578384fd5b8960208285010111156142d3578384fd5b9699959850939650602001949392505050565b6000806000604084860312156142fa578283fd5b6143038461406f565b925060208401356001600160401b038082111561431e578384fd5b818601915086601f830112614331578384fd5b81358181111561433f578485fd5b87602060c083028501011115614353578485fd5b6020830194508093505050509250925092565b60008060006040848603121561437a578081fd5b6143838461406f565b925060208401356001600160401b03811115614229578182fd5b6000602082840312156143ae578081fd5b8135610aa381614b74565b6000602082840312156143ca578081fd5b813560078110610aa3578182fd5b6000602082840312156143e9578081fd5b5051919050565b60008060408385031215614402578182fd5b82519150602083015161441481614b74565b809150509250929050565b600060a08284031215614430578081fd5b60405160a081018181106001600160401b038211171561444c57fe5b604052825164ffffffffff81168114614463578283fd5b815260208301516001600160f81b03198116811461447f578283fd5b6020820152614490604084016141e1565b60408201526144a1606084016141d6565b60608201526144b2608084016141af565b60808201529392505050565b600080604083850312156144d0578182fd5b82516001600160401b03808211156144e6578384fd5b90840190608082870312156144f9578384fd5b60405160808101818110838211171561450e57fe5b60405282518281111561451f578586fd5b61452b888286016140ce565b82525060208301518281111561453f578586fd5b61454b888286016140ce565b6020830152506040830151604082015260608301516060820152809450505050602083015190509250929050565b60006020828403121561458a578081fd5b8135610aa381614b85565b81835260006001600160fb1b038311156145ad578081fd5b6020830280836020870137939093016020019283525090919050565b6000815180845260208085019450808401835b8381101561463657815180518852838101518489015260408082015190890152606080820151908901526080808201519089015260a090810151906004821061462157fe5b88015260c090960195908201906001016145dc565b509495945050505050565b6001600160a01b0391909116815260200190565b6001600160a01b038581168252841660208201526060604082018190528101829052600082846080840137818301608090810191909152601f909201601f191601019392505050565b6001600160a01b0396871681529486166020860152928516604085015290841660608401528316608083015290911660a082015260c00190565b6001600160a01b03929092168252805164ffffffffff166020808401919091528101516001600160f81b03191660408084019190915281015160ff1660608084019190915281015161ffff1660808084019190915201516001600160701b03191660a082015260c00190565b600060018060a01b038716825261ffff861660208301526080604083015284516080808401526147786101008401826145c9565b90506020860151607f198483030160a085015261479582826145c9565b915050604086015160c0840152606086015160e084015282810360608401526147bf818587614595565b98975050505050505050565b6001600160a01b038616815261ffff8516602082015264ffffffffff84166040820152608060608201819052600090611def9083018486614595565b6001600160a01b0393841681526020810192909252909116604082015260600190565b6001600160a01b03948516815260208101939093529216604082015261ffff909116606082015260800190565b6001600160a01b03959095168552602085019390935260408401919091526060830152608082015260a00190565b6001600160a01b0394909416845260208401929092526040830152606082015260800190565b90815260200190565b6020808252600c908201526b155b985d5d1a1bdc9a5e995960a21b604082015260600190565b602080825260049082015263135a5b9d60e21b604082015260600190565b6020808252600b908201526a4554482042616c616e636560a81b604082015260600190565b60208082526006908201526552656465656d60d01b604082015260600190565b6020808252600d908201526c092dcecc2d8d2c840d2dcc8caf609b1b604082015260600190565b60208082526010908201526f556e736f7274656420616374696f6e7360801b604082015260600190565b6020808252601a908201527f496e73756666696369656e7420746f6b656e2062616c616e6365000000000000604082015260600190565b6020808252600e908201526d1499595b9d1c985b9d0818d85b1b60921b604082015260600190565b60208082526008908201526709ccace4086c2e6d60c31b604082015260600190565b6020808252601a908201527f496e76616c69642074726164657320666f72206163636f756e74000000000000604082015260600190565b6020808252600a90820152692732b390372a37b5b2b760b11b604082015260600190565b602080825260119082015270092dce6eaccccd2c6d2cadce840c6c2e6d607b1b604082015260600190565b602080825260149082015273125b9cdd59999a58da595b9d0819195c1bdcda5d60621b604082015260600190565b61ffff929092168252602082015260400190565b6000808335601e19843603018112614aed578283fd5b8301803591506001600160401b03821115614b06578283fd5b60209081019250810236038213156140c757600080fd5b6000823560de19833603018112614b32578182fd5b9190910192915050565b60008235605e19833603018112614b32578182fd5b6040518181016001600160401b0381118282101715614b6c57fe5b604052919050565b8015158114614b8257600080fd5b50565b61ffff81168114614b8257600080fdfe536166654d6174683a206d756c7469706c69636174696f6e206f766572666c6f77a264697066735822122032811f7f2dfaed6ae73f5ee82dde37e34e8a29d87704373d06746e0114bf0ee664736f6c63430007060033","language":"Solidity","natspec":{"kind":"dev","methods":{"batchBalanceAction(address,(uint8,uint16,uint256,uint256,bool,bool)[])":{"details":"emit:CashBalanceChange, emit:nTokenSupplyChangeauth:msg.sender auth:ERC1155","notice":"Executes a batch of balance transfers including minting and redeeming nTokens.","params":{"account":"the account for the action","actions":"array of balance actions to take, must be sorted by currency id"}},"batchBalanceAndTradeAction(address,(uint8,uint16,uint256,uint256,bool,bool,bytes32[])[])":{"details":"emit:CashBalanceChange, emit:nTokenSupplyChange, emit:LendBorrowTrade, emit:AddRemoveLiquidity,emit:SettledCashDebt, emit:nTokenResidualPurchase, emit:ReserveFeeAccruedauth:msg.sender auth:ERC1155","notice":"Executes a batch of balance transfers and trading actions","params":{"account":"the account for the action","actions":"array of balance actions with trades to take, must be sorted by currency id"}},"batchBalanceAndTradeActionWithCallback(address,(uint8,uint16,uint256,uint256,bool,bool,bytes32[])[],bytes)":{"details":"emit:CashBalanceChange, emit:nTokenSupplyChange, emit:LendBorrowTrade, emit:AddRemoveLiquidity,emit:SettledCashDebt, emit:nTokenResidualPurchase, emit:ReserveFeeAccruedauth:authorizedCallbackContract","notice":"Executes a batch of balance transfers and trading actions via an authorized callback contract. This can be used as a \"flash loan\" facility for special contracts that migrate assets between protocols or perform other actions on behalf of the user. Contracts can borrow from Notional and receive a callback prior to an FC check, this can be useful if the contract needs to perform a trade or repay a debt on a different protocol before depositing collateral. Since Notional's AMM will never be as capital efficient or gas efficient as other flash loan facilities, this method requires whitelisting and will mainly be used for contracts that make migrating assets a better user experience.","params":{"account":"the account that will take all the actions","actions":"array of balance actions with trades to take, must be sorted by currency id","callbackData":"arbitrary bytes to be passed backed to the caller in the callback"}},"batchLend(address,(uint16,bool,bytes32[])[])":{"details":"Note that this method does not work with native ETH because it requires the ability to pull payment from an ERC20 token. Therefore, this method is marked as nonpayable. It will still worth with cETH or aETH.emit:CashBalanceChange, emit:LendBorrowTrade emit:SettledCashDebtauth:msg.sender auth:ERC1155","notice":"Executes a batch of lending actions. This is different from batchBalanceAndTrade because it always pulls the required amount of tokens to get an account to a cash balance of zero. It reduces the gas costs for lending because there is no second token transfer where residual balances are sent back to the account.","params":{"account":"the account for the action","actions":"array of batch lending actions"}},"getLibInfo()":{"notice":"Get a list of deployed library addresses (sorted by library name)"}},"version":1},"opcodes":"PUSH1 0x80 PUSH1 0x40 MSTORE PUSH1 0x4 CALLDATASIZE LT PUSH2 0x7B JUMPI PUSH1 0x0 CALLDATALOAD PUSH1 0xE0 SHR DUP1 PUSH4 0x6E6A32A6 GT PUSH2 0x4E JUMPI DUP1 PUSH4 0x6E6A32A6 EQ PUSH2 0xF3 JUMPI DUP1 PUSH4 0x82463367 EQ PUSH2 0x106 JUMPI DUP1 PUSH4 0x8DA5CB5B EQ PUSH2 0x11B JUMPI DUP1 PUSH4 0xC4C96DAE EQ PUSH2 0x130 JUMPI PUSH2 0x7B JUMP JUMPDEST DUP1 PUSH4 0x276B64B EQ PUSH2 0x80 JUMPI DUP1 PUSH4 0x24A3D622 EQ PUSH2 0x95 JUMPI DUP1 PUSH4 0x541F5270 EQ PUSH2 0xC0 JUMPI DUP1 PUSH4 0x5950D8E9 EQ PUSH2 0xE0 JUMPI JUMPDEST PUSH1 0x0 DUP1 REVERT JUMPDEST PUSH2 0x93 PUSH2 0x8E CALLDATASIZE PUSH1 0x4 PUSH2 0x41F2 JUMP JUMPDEST PUSH2 0x157 JUMP JUMPDEST STOP JUMPDEST CALLVALUE DUP1 ISZERO PUSH2 0xA1 JUMPI PUSH1 0x0 DUP1 REVERT JUMPDEST POP PUSH2 0xAA PUSH2 0x1E7 JUMP JUMPDEST PUSH1 0x40 MLOAD PUSH2 0xB7 SWAP2 SWAP1 PUSH2 0x4641 JUMP JUMPDEST PUSH1 0x40 MLOAD DUP1 SWAP2 SUB SWAP1 RETURN JUMPDEST CALLVALUE DUP1 ISZERO PUSH2 0xCC JUMPI PUSH1 0x0 DUP1 REVERT JUMPDEST POP PUSH2 0x93 PUSH2 0xDB CALLDATASIZE PUSH1 0x4 PUSH2 0x4366 JUMP JUMPDEST PUSH2 0x1F6 JUMP JUMPDEST PUSH2 0x93 PUSH2 0xEE CALLDATASIZE PUSH1 0x4 PUSH2 0x4242 JUMP JUMPDEST PUSH2 0x53E JUMP JUMPDEST PUSH2 0x93 PUSH2 0x101 CALLDATASIZE PUSH1 0x4 PUSH2 0x42E6 JUMP JUMPDEST PUSH2 0x66E JUMP JUMPDEST CALLVALUE DUP1 ISZERO PUSH2 0x112 JUMPI PUSH1 0x0 DUP1 REVERT JUMPDEST POP PUSH2 0xAA PUSH2 0x7F4 JUMP JUMPDEST CALLVALUE DUP1 ISZERO PUSH2 0x127 JUMPI PUSH1 0x0 DUP1 REVERT JUMPDEST POP PUSH2 0xAA PUSH2 0x803 JUMP JUMPDEST CALLVALUE DUP1 ISZERO PUSH2 0x13C JUMPI PUSH1 0x0 DUP1 REVERT JUMPDEST POP PUSH2 0x145 PUSH2 0x81A JUMP JUMPDEST PUSH1 0x40 MLOAD PUSH2 0xB7 SWAP7 SWAP6 SWAP5 SWAP4 SWAP3 SWAP2 SWAP1 PUSH2 0x469E JUMP JUMPDEST PUSH1 0x2 PUSH1 0xA SLOAD EQ ISZERO PUSH2 0x183 JUMPI PUSH1 0x40 MLOAD PUSH3 0x461BCD PUSH1 0xE5 SHL DUP2 MSTORE PUSH1 0x4 ADD PUSH2 0x17A SWAP1 PUSH2 0x49C5 JUMP JUMPDEST PUSH1 0x40 MLOAD DUP1 SWAP2 SUB SWAP1 REVERT JUMPDEST PUSH1 0x2 PUSH1 0xA SSTORE PUSH1 0x1 PUSH1 0x1 PUSH1 0xA0 SHL SUB DUP4 AND CALLER EQ DUP1 PUSH2 0x19E JUMPI POP CALLER ADDRESS EQ JUMPDEST PUSH2 0x1BA JUMPI PUSH1 0x40 MLOAD PUSH3 0x461BCD PUSH1 0xE5 SHL DUP2 MSTORE PUSH1 0x4 ADD PUSH2 0x17A SWAP1 PUSH2 0x48B4 JUMP JUMPDEST PUSH2 0x1C3 DUP4 PUSH2 0x8A0 JUMP JUMPDEST PUSH1 0x0 PUSH2 0x1D0 DUP5 DUP5 DUP5 PUSH2 0x8EF JUMP JUMPDEST SWAP1 POP PUSH2 0x1DC DUP5 DUP3 PUSH2 0xAAA JUMP JUMPDEST POP POP PUSH1 0x1 PUSH1 0xA SSTORE POP POP JUMP JUMPDEST PUSH1 0x2 SLOAD PUSH1 0x1 PUSH1 0x1 PUSH1 0xA0 SHL SUB AND DUP2 JUMP JUMPDEST PUSH1 0x2 PUSH1 0xA SLOAD EQ ISZERO PUSH2 0x219 JUMPI PUSH1 0x40 MLOAD PUSH3 0x461BCD PUSH1 0xE5 SHL DUP2 MSTORE PUSH1 0x4 ADD PUSH2 0x17A SWAP1 PUSH2 0x49C5 JUMP JUMPDEST PUSH1 0x2 PUSH1 0xA SSTORE PUSH1 0x1 PUSH1 0x1 PUSH1 0xA0 SHL SUB DUP4 AND CALLER EQ DUP1 PUSH2 0x234 JUMPI POP CALLER ADDRESS EQ JUMPDEST PUSH2 0x250 JUMPI PUSH1 0x40 MLOAD PUSH3 0x461BCD PUSH1 0xE5 SHL DUP2 MSTORE PUSH1 0x4 ADD PUSH2 0x17A SWAP1 PUSH2 0x48B4 JUMP JUMPDEST PUSH2 0x259 DUP4 PUSH2 0x8A0 JUMP JUMPDEST PUSH1 0x0 PUSH2 0x264 DUP5 PUSH2 0xB2B JUMP JUMPDEST SWAP1 POP PUSH1 0x0 PUSH2 0x278 DUP6 DUP4 PUSH1 0x40 ADD MLOAD PUSH1 0x0 PUSH2 0xBE7 JUMP JUMPDEST SWAP1 POP PUSH2 0x282 PUSH2 0x3F12 JUMP JUMPDEST PUSH1 0x0 JUMPDEST DUP5 DUP2 LT ISZERO PUSH2 0x50C JUMPI CALLDATASIZE DUP7 DUP7 DUP4 DUP2 DUP2 LT PUSH2 0x29A JUMPI INVALID JUMPDEST SWAP1 POP PUSH1 0x20 MUL DUP2 ADD SWAP1 PUSH2 0x2AC SWAP2 SWAP1 PUSH2 0x4B3C JUMP JUMPDEST SWAP1 POP DUP2 ISZERO PUSH2 0x315 JUMPI DUP7 DUP7 PUSH1 0x1 DUP5 SUB DUP2 DUP2 LT PUSH2 0x2C3 JUMPI INVALID JUMPDEST SWAP1 POP PUSH1 0x20 MUL DUP2 ADD SWAP1 PUSH2 0x2D5 SWAP2 SWAP1 PUSH2 0x4B3C JUMP JUMPDEST PUSH2 0x2E3 SWAP1 PUSH1 0x20 DUP2 ADD SWAP1 PUSH2 0x4579 JUMP JUMPDEST PUSH2 0xFFFF AND PUSH2 0x2F4 PUSH1 0x20 DUP4 ADD DUP4 PUSH2 0x4579 JUMP JUMPDEST PUSH2 0xFFFF AND GT PUSH2 0x315 JUMPI PUSH1 0x40 MLOAD PUSH3 0x461BCD PUSH1 0xE5 SHL DUP2 MSTORE PUSH1 0x4 ADD PUSH2 0x17A SWAP1 PUSH2 0x4964 JUMP JUMPDEST PUSH1 0x0 PUSH2 0x324 PUSH1 0x40 DUP4 ADD DUP4 PUSH2 0x4AD7 JUMP JUMPDEST SWAP2 POP POP DUP1 PUSH2 0x331 JUMPI PUSH1 0x0 DUP1 REVERT JUMPDEST PUSH1 0x0 JUMPDEST DUP2 DUP2 LT ISZERO PUSH2 0x374 JUMPI PUSH1 0x0 PUSH2 0x34B PUSH1 0x40 DUP6 ADD DUP6 PUSH2 0x4AD7 JUMP JUMPDEST DUP4 DUP2 DUP2 LT PUSH2 0x355 JUMPI INVALID JUMPDEST SWAP1 POP PUSH1 0x20 MUL ADD CALLDATALOAD PUSH1 0xF8 SHR PUSH1 0xFF AND EQ PUSH2 0x36C JUMPI PUSH1 0x0 DUP1 REVERT JUMPDEST PUSH1 0x1 ADD PUSH2 0x334 JUMP JUMPDEST POP PUSH2 0x38F DUP10 PUSH2 0x386 PUSH1 0x20 DUP6 ADD DUP6 PUSH2 0x4579 JUMP JUMPDEST DUP7 SWAP2 SWAP1 DUP10 PUSH2 0xC79 JUMP JUMPDEST PUSH2 0x3B4 DUP10 PUSH2 0x3A0 PUSH1 0x20 DUP6 ADD DUP6 PUSH2 0x4579 JUMP JUMPDEST PUSH2 0x3AD PUSH1 0x40 DUP7 ADD DUP7 PUSH2 0x4AD7 JUMP JUMPDEST DUP11 DUP11 PUSH2 0xD1F JUMP JUMPDEST PUSH1 0x60 DUP7 ADD DUP3 SWAP1 MSTORE SWAP6 POP PUSH1 0x0 SLT ISZERO PUSH2 0x3CA JUMPI PUSH1 0x0 DUP1 REVERT JUMPDEST PUSH1 0x0 PUSH2 0x3EF PUSH2 0x3EA DUP7 PUSH1 0x60 ADD MLOAD DUP8 PUSH1 0x20 ADD MLOAD PUSH2 0xEC5 SWAP1 SWAP2 SWAP1 PUSH4 0xFFFFFFFF AND JUMP JUMPDEST PUSH2 0xEE1 JUMP JUMPDEST SWAP1 POP PUSH1 0x0 DUP2 SGT ISZERO PUSH2 0x4EF JUMPI PUSH2 0x40A PUSH1 0x40 DUP5 ADD PUSH1 0x20 DUP6 ADD PUSH2 0x439D JUMP JUMPDEST ISZERO PUSH2 0x4B7 JUMPI PUSH1 0x0 PUSH2 0x42A PUSH2 0x421 PUSH1 0x20 DUP7 ADD DUP7 PUSH2 0x4579 JUMP JUMPDEST PUSH2 0xFFFF AND PUSH2 0xEEF JUMP JUMPDEST SWAP1 POP PUSH1 0x0 PUSH2 0x447 PUSH2 0x43E PUSH1 0x20 DUP8 ADD DUP8 PUSH2 0x4579 JUMP JUMPDEST PUSH2 0xFFFF AND PUSH2 0xF3B JUMP JUMPDEST SWAP1 POP PUSH1 0x0 PUSH2 0x45F PUSH2 0x458 DUP5 DUP7 PUSH2 0xF4E JUMP JUMPDEST DUP4 SWAP1 PUSH2 0xF87 JUMP JUMPDEST SWAP1 POP PUSH4 0x5F5E100 DUP3 PUSH1 0x40 ADD MLOAD SLT ISZERO PUSH2 0x47F JUMPI PUSH2 0x47C DUP2 PUSH1 0x1 PUSH2 0xEC5 JUMP JUMPDEST SWAP1 POP JUMPDEST PUSH1 0x0 PUSH2 0x48C DUP10 DUP16 DUP5 PUSH2 0xFBF JUMP JUMPDEST SWAP1 POP DUP5 DUP2 SLT ISZERO PUSH2 0x4AE JUMPI PUSH1 0x40 MLOAD PUSH3 0x461BCD PUSH1 0xE5 SHL DUP2 MSTORE PUSH1 0x4 ADD PUSH2 0x17A SWAP1 PUSH2 0x4A95 JUMP JUMPDEST POP POP POP POP PUSH2 0x4EF JUMP JUMPDEST PUSH1 0x0 PUSH2 0x4D2 PUSH2 0x4C9 PUSH1 0x20 DUP7 ADD DUP7 PUSH2 0x4579 JUMP JUMPDEST PUSH2 0xFFFF AND PUSH2 0x10A4 JUMP JUMPDEST SWAP1 POP PUSH2 0x4EC DUP12 PUSH2 0x4E2 DUP4 DUP6 PUSH2 0xF87 JUMP JUMPDEST DUP9 SWAP2 SWAP1 PUSH1 0x0 PUSH2 0x10B7 JUMP JUMPDEST POP POP JUMPDEST PUSH2 0x4FC DUP6 DUP12 DUP10 PUSH1 0x0 PUSH2 0x1191 JUMP JUMPDEST POP POP PUSH1 0x1 SWAP1 SWAP3 ADD SWAP2 POP PUSH2 0x285 SWAP1 POP JUMP JUMPDEST POP PUSH2 0x516 DUP4 PUSH2 0x1412 JUMP JUMPDEST PUSH2 0x527 JUMPI PUSH2 0x527 DUP4 DUP8 DUP5 PUSH1 0x0 PUSH2 0x141F JUMP JUMPDEST PUSH2 0x531 DUP7 DUP5 PUSH2 0xAAA JUMP JUMPDEST POP POP PUSH1 0x1 PUSH1 0xA SSTORE POP POP POP POP JUMP JUMPDEST CALLER PUSH1 0x0 SWAP1 DUP2 MSTORE PUSH1 0x8 PUSH1 0x20 MSTORE PUSH1 0x40 SWAP1 KECCAK256 SLOAD PUSH1 0xFF AND PUSH2 0x56D JUMPI PUSH1 0x40 MLOAD PUSH3 0x461BCD PUSH1 0xE5 SHL DUP2 MSTORE PUSH1 0x4 ADD PUSH2 0x17A SWAP1 PUSH2 0x48B4 JUMP JUMPDEST PUSH2 0x576 DUP6 PUSH2 0x8A0 JUMP JUMPDEST PUSH1 0x0 PUSH2 0x583 DUP7 DUP7 DUP7 PUSH2 0x8EF JUMP JUMPDEST SWAP1 POP PUSH2 0x58F DUP2 DUP8 PUSH2 0x1501 JUMP JUMPDEST PUSH1 0x40 MLOAD PUSH4 0x550D0657 PUSH1 0xE1 SHL DUP2 MSTORE CALLER SWAP1 PUSH4 0xAA1A0CAE SWAP1 PUSH2 0x5B8 SWAP1 DUP4 SWAP1 DUP11 SWAP1 DUP9 SWAP1 DUP9 SWAP1 PUSH1 0x4 ADD PUSH2 0x4655 JUMP JUMPDEST PUSH1 0x0 PUSH1 0x40 MLOAD DUP1 DUP4 SUB DUP2 PUSH1 0x0 DUP8 DUP1 EXTCODESIZE ISZERO DUP1 ISZERO PUSH2 0x5D2 JUMPI PUSH1 0x0 DUP1 REVERT JUMPDEST POP GAS CALL ISZERO DUP1 ISZERO PUSH2 0x5E6 JUMPI RETURNDATASIZE PUSH1 0x0 DUP1 RETURNDATACOPY RETURNDATASIZE PUSH1 0x0 REVERT JUMPDEST POP POP POP POP PUSH1 0x20 DUP2 ADD MLOAD PUSH1 0x1 PUSH1 0x1 PUSH1 0xF8 SHL SUB NOT AND ISZERO PUSH2 0x666 JUMPI PUSH1 0x40 MLOAD PUSH4 0x6CCC642F PUSH1 0xE0 SHL DUP2 MSTORE PUSH20 0x0 SWAP1 PUSH4 0x6CCC642F SWAP1 PUSH2 0x635 SWAP1 DUP10 SWAP1 PUSH1 0x4 ADD PUSH2 0x4641 JUMP JUMPDEST PUSH1 0x0 PUSH1 0x40 MLOAD DUP1 DUP4 SUB DUP2 DUP7 DUP1 EXTCODESIZE ISZERO DUP1 ISZERO PUSH2 0x64D JUMPI PUSH1 0x0 DUP1 REVERT JUMPDEST POP GAS DELEGATECALL ISZERO DUP1 ISZERO PUSH2 0x661 JUMPI RETURNDATASIZE PUSH1 0x0 DUP1 RETURNDATACOPY RETURNDATASIZE PUSH1 0x0 REVERT JUMPDEST POP POP POP POP JUMPDEST POP POP POP POP POP POP JUMP JUMPDEST PUSH1 0x2 PUSH1 0xA SLOAD EQ ISZERO PUSH2 0x691 JUMPI PUSH1 0x40 MLOAD PUSH3 0x461BCD PUSH1 0xE5 SHL DUP2 MSTORE PUSH1 0x4 ADD PUSH2 0x17A SWAP1 PUSH2 0x49C5 JUMP JUMPDEST PUSH1 0x2 PUSH1 0xA SSTORE PUSH1 0x1 PUSH1 0x1 PUSH1 0xA0 SHL SUB DUP4 AND CALLER EQ DUP1 PUSH2 0x6AC JUMPI POP CALLER ADDRESS EQ JUMPDEST PUSH2 0x6C8 JUMPI PUSH1 0x40 MLOAD PUSH3 0x461BCD PUSH1 0xE5 SHL DUP2 MSTORE PUSH1 0x4 ADD PUSH2 0x17A SWAP1 PUSH2 0x48B4 JUMP JUMPDEST PUSH2 0x6D1 DUP4 PUSH2 0x8A0 JUMP JUMPDEST PUSH1 0x0 PUSH2 0x6DC DUP5 PUSH2 0xB2B JUMP JUMPDEST SWAP1 POP PUSH2 0x6E6 PUSH2 0x3F12 JUMP JUMPDEST PUSH1 0x0 JUMPDEST DUP4 DUP2 LT ISZERO PUSH2 0x7DD JUMPI CALLDATASIZE DUP6 DUP6 DUP4 DUP2 DUP2 LT PUSH2 0x6FE JUMPI INVALID JUMPDEST SWAP1 POP PUSH1 0xC0 MUL ADD SWAP1 POP PUSH1 0x0 DUP3 GT ISZERO PUSH2 0x76B JUMPI DUP6 DUP6 PUSH1 0x1 DUP5 SUB DUP2 DUP2 LT PUSH2 0x71E JUMPI INVALID JUMPDEST SWAP1 POP PUSH1 0xC0 MUL ADD PUSH1 0x20 ADD PUSH1 0x20 DUP2 ADD SWAP1 PUSH2 0x736 SWAP2 SWAP1 PUSH2 0x4579 JUMP JUMPDEST PUSH2 0xFFFF AND PUSH2 0x74A PUSH1 0x40 DUP4 ADD PUSH1 0x20 DUP5 ADD PUSH2 0x4579 JUMP JUMPDEST PUSH2 0xFFFF AND GT PUSH2 0x76B JUMPI PUSH1 0x40 MLOAD PUSH3 0x461BCD PUSH1 0xE5 SHL DUP2 MSTORE PUSH1 0x4 ADD PUSH2 0x17A SWAP1 PUSH2 0x4964 JUMP JUMPDEST PUSH2 0x788 DUP8 PUSH2 0x77F PUSH1 0x40 DUP5 ADD PUSH1 0x20 DUP6 ADD PUSH2 0x4579 JUMP JUMPDEST DUP6 SWAP2 SWAP1 DUP8 PUSH2 0xC79 JUMP JUMPDEST PUSH2 0x7A4 DUP8 DUP5 PUSH2 0x79A PUSH1 0x20 DUP6 ADD DUP6 PUSH2 0x43B9 JUMP JUMPDEST DUP5 PUSH1 0x40 ADD CALLDATALOAD PUSH2 0x1605 JUMP JUMPDEST PUSH2 0x7D4 DUP8 DUP6 DUP6 PUSH1 0x60 DUP6 ADD CALLDATALOAD PUSH2 0x7BF PUSH1 0xA0 DUP8 ADD PUSH1 0x80 DUP9 ADD PUSH2 0x439D JUMP JUMPDEST PUSH2 0x7CF PUSH1 0xC0 DUP9 ADD PUSH1 0xA0 DUP10 ADD PUSH2 0x439D JUMP JUMPDEST PUSH2 0x16D8 JUMP JUMPDEST POP PUSH1 0x1 ADD PUSH2 0x6E9 JUMP JUMPDEST POP PUSH2 0x7E8 DUP6 DUP4 PUSH2 0xAAA JUMP JUMPDEST POP POP PUSH1 0x1 PUSH1 0xA SSTORE POP POP POP JUMP JUMPDEST PUSH1 0x1 SLOAD PUSH1 0x1 PUSH1 0x1 PUSH1 0xA0 SHL SUB AND DUP2 JUMP JUMPDEST PUSH1 0x0 SLOAD PUSH5 0x100000000 SWAP1 DIV PUSH1 0x1 PUSH1 0x1 PUSH1 0xA0 SHL SUB AND DUP2 JUMP JUMPDEST PUSH20 0x0 PUSH20 0x0 PUSH20 0x0 PUSH20 0x0 PUSH20 0x0 PUSH20 0x0 SWAP1 SWAP2 SWAP3 SWAP4 SWAP5 SWAP6 JUMP JUMPDEST PUSH1 0x1 PUSH1 0x1 PUSH1 0xA0 SHL SUB DUP2 AND PUSH2 0x8B3 JUMPI PUSH1 0x0 DUP1 REVERT JUMPDEST PUSH1 0x1 PUSH1 0x1 PUSH1 0xA0 SHL SUB DUP2 AND ADDRESS EQ ISZERO PUSH2 0x8C9 JUMPI PUSH1 0x0 DUP1 REVERT JUMPDEST PUSH1 0x0 PUSH2 0x8D4 DUP3 PUSH2 0x1755 JUMP JUMPDEST POP POP POP POP PUSH2 0xFFFF AND SWAP1 POP DUP1 PUSH1 0x0 EQ PUSH2 0x8EB JUMPI PUSH1 0x0 DUP1 REVERT JUMPDEST POP POP JUMP JUMPDEST PUSH2 0x8F7 PUSH2 0x3F62 JUMP JUMPDEST PUSH1 0x0 PUSH2 0x902 DUP6 PUSH2 0xB2B JUMP JUMPDEST SWAP1 POP PUSH2 0x90C PUSH2 0x3F12 JUMP JUMPDEST PUSH1 0x0 PUSH2 0x91E DUP8 DUP5 PUSH1 0x40 ADD MLOAD PUSH1 0x0 PUSH2 0xBE7 JUMP JUMPDEST SWAP1 POP PUSH1 0x0 JUMPDEST DUP6 DUP2 LT ISZERO PUSH2 0xA82 JUMPI CALLDATASIZE DUP8 DUP8 DUP4 DUP2 DUP2 LT PUSH2 0x938 JUMPI INVALID JUMPDEST SWAP1 POP PUSH1 0x20 MUL DUP2 ADD SWAP1 PUSH2 0x94A SWAP2 SWAP1 PUSH2 0x4B1D JUMP JUMPDEST SWAP1 POP DUP2 ISZERO PUSH2 0x9B9 JUMPI DUP8 DUP8 PUSH1 0x1 DUP5 SUB DUP2 DUP2 LT PUSH2 0x961 JUMPI INVALID JUMPDEST SWAP1 POP PUSH1 0x20 MUL DUP2 ADD SWAP1 PUSH2 0x973 SWAP2 SWAP1 PUSH2 0x4B1D JUMP JUMPDEST PUSH2 0x984 SWAP1 PUSH1 0x40 DUP2 ADD SWAP1 PUSH1 0x20 ADD PUSH2 0x4579 JUMP JUMPDEST PUSH2 0xFFFF AND PUSH2 0x998 PUSH1 0x40 DUP4 ADD PUSH1 0x20 DUP5 ADD PUSH2 0x4579 JUMP JUMPDEST PUSH2 0xFFFF AND GT PUSH2 0x9B9 JUMPI PUSH1 0x40 MLOAD PUSH3 0x461BCD PUSH1 0xE5 SHL DUP2 MSTORE PUSH1 0x4 ADD PUSH2 0x17A SWAP1 PUSH2 0x4964 JUMP JUMPDEST PUSH2 0x9D6 DUP10 PUSH2 0x9CD PUSH1 0x40 DUP5 ADD PUSH1 0x20 DUP6 ADD PUSH2 0x4579 JUMP JUMPDEST DUP7 SWAP2 SWAP1 DUP9 PUSH2 0xC79 JUMP JUMPDEST PUSH2 0x9E8 DUP10 DUP6 PUSH2 0x79A PUSH1 0x20 DUP6 ADD DUP6 PUSH2 0x43B9 JUMP JUMPDEST PUSH1 0x0 PUSH2 0x9F7 PUSH1 0xC0 DUP4 ADD DUP4 PUSH2 0x4AD7 JUMP JUMPDEST SWAP1 POP GT ISZERO PUSH2 0xA5E JUMPI PUSH1 0x0 PUSH2 0xA29 DUP11 PUSH2 0xA15 PUSH1 0x40 DUP6 ADD PUSH1 0x20 DUP7 ADD PUSH2 0x4579 JUMP JUMPDEST PUSH2 0xA22 PUSH1 0xC0 DUP7 ADD DUP7 PUSH2 0x4AD7 JUMP JUMPDEST DUP11 DUP10 PUSH2 0xD1F JUMP JUMPDEST SWAP5 POP SWAP1 POP PUSH1 0x0 DUP2 SLT ISZERO PUSH2 0xA48 JUMPI PUSH2 0xA48 DUP6 PUSH2 0xA43 DUP4 PUSH2 0xEE1 JUMP JUMPDEST PUSH2 0x17BE JUMP JUMPDEST PUSH1 0x60 DUP6 ADD MLOAD PUSH2 0xA57 SWAP1 DUP3 PUSH2 0xEC5 JUMP JUMPDEST PUSH1 0x60 DUP7 ADD MSTORE POP JUMPDEST PUSH2 0xA79 DUP10 DUP7 DUP7 PUSH1 0x60 DUP6 ADD CALLDATALOAD PUSH2 0x7BF PUSH1 0xA0 DUP8 ADD PUSH1 0x80 DUP9 ADD PUSH2 0x439D JUMP JUMPDEST POP PUSH1 0x1 ADD PUSH2 0x923 JUMP JUMPDEST POP PUSH2 0xA8C DUP4 PUSH2 0x1412 JUMP JUMPDEST PUSH2 0xA9D JUMPI PUSH2 0xA9D DUP4 DUP9 DUP4 PUSH1 0x0 PUSH2 0x141F JUMP JUMPDEST POP SWAP1 SWAP2 POP POP JUMPDEST SWAP4 SWAP3 POP POP POP JUMP JUMPDEST PUSH2 0xAB4 DUP2 DUP4 PUSH2 0x1501 JUMP JUMPDEST PUSH1 0x20 DUP2 ADD MLOAD PUSH1 0x1 PUSH1 0x1 PUSH1 0xF8 SHL SUB NOT AND ISZERO PUSH2 0x8EB JUMPI PUSH1 0x40 MLOAD PUSH4 0x6CCC642F PUSH1 0xE0 SHL DUP2 MSTORE PUSH20 0x0 SWAP1 PUSH4 0x6CCC642F SWAP1 PUSH2 0xAFF SWAP1 DUP6 SWAP1 PUSH1 0x4 ADD PUSH2 0x4641 JUMP JUMPDEST PUSH1 0x0 PUSH1 0x40 MLOAD DUP1 DUP4 SUB DUP2 DUP7 DUP1 EXTCODESIZE ISZERO DUP1 ISZERO PUSH2 0xB17 JUMPI PUSH1 0x0 DUP1 REVERT JUMPDEST POP GAS DELEGATECALL ISZERO DUP1 ISZERO PUSH2 0x666 JUMPI RETURNDATASIZE PUSH1 0x0 DUP1 RETURNDATACOPY RETURNDATASIZE PUSH1 0x0 REVERT JUMPDEST PUSH2 0xB33 PUSH2 0x3F62 JUMP JUMPDEST PUSH1 0x0 PUSH2 0xB3E DUP4 PUSH2 0x180D JUMP JUMPDEST SWAP1 POP PUSH2 0xB49 DUP2 PUSH2 0x18AE JUMP JUMPDEST ISZERO PUSH2 0xBDF JUMPI PUSH1 0x40 MLOAD PUSH4 0x37B5FC21 PUSH1 0xE1 SHL DUP2 MSTORE PUSH20 0x0 SWAP1 PUSH4 0x6F6BF842 SWAP1 PUSH2 0xB87 SWAP1 DUP7 SWAP1 DUP6 SWAP1 PUSH1 0x4 ADD PUSH2 0x46D8 JUMP JUMPDEST PUSH1 0xA0 PUSH1 0x40 MLOAD DUP1 DUP4 SUB DUP2 DUP7 DUP1 EXTCODESIZE ISZERO DUP1 ISZERO PUSH2 0xB9F JUMPI PUSH1 0x0 DUP1 REVERT JUMPDEST POP GAS DELEGATECALL ISZERO DUP1 ISZERO PUSH2 0xBB3 JUMPI RETURNDATASIZE PUSH1 0x0 DUP1 RETURNDATACOPY RETURNDATASIZE PUSH1 0x0 REVERT JUMPDEST POP POP POP POP PUSH1 0x40 MLOAD RETURNDATASIZE PUSH1 0x1F NOT PUSH1 0x1F DUP3 ADD AND DUP3 ADD DUP1 PUSH1 0x40 MSTORE POP DUP2 ADD SWAP1 PUSH2 0xBD7 SWAP2 SWAP1 PUSH2 0x441F JUMP JUMPDEST SWAP2 POP POP PUSH2 0xBE2 JUMP JUMPDEST SWAP1 POP JUMPDEST SWAP2 SWAP1 POP JUMP JUMPDEST PUSH2 0xBEF PUSH2 0x3F90 JUMP JUMPDEST PUSH2 0xBF7 PUSH2 0x3F90 JUMP JUMPDEST PUSH1 0xFF DUP5 AND PUSH2 0xC06 JUMPI SWAP1 POP PUSH2 0xAA3 JUMP JUMPDEST PUSH2 0xC10 DUP6 DUP6 PUSH2 0x18FF JUMP JUMPDEST DUP2 MSTORE PUSH1 0xFF DUP5 AND PUSH1 0x60 DUP3 ADD MSTORE DUP3 PUSH1 0x1 PUSH1 0x1 PUSH1 0x40 SHL SUB DUP2 GT DUP1 ISZERO PUSH2 0xC31 JUMPI PUSH1 0x0 DUP1 REVERT JUMPDEST POP PUSH1 0x40 MLOAD SWAP1 DUP1 DUP3 MSTORE DUP1 PUSH1 0x20 MUL PUSH1 0x20 ADD DUP3 ADD PUSH1 0x40 MSTORE DUP1 ISZERO PUSH2 0xC6B JUMPI DUP2 PUSH1 0x20 ADD JUMPDEST PUSH2 0xC58 PUSH2 0x3FB8 JUMP JUMPDEST DUP2 MSTORE PUSH1 0x20 ADD SWAP1 PUSH1 0x1 SWAP1 SUB SWAP1 DUP2 PUSH2 0xC50 JUMPI SWAP1 POP JUMPDEST POP PUSH1 0x20 DUP3 ADD MSTORE SWAP5 SWAP4 POP POP POP POP JUMP JUMPDEST DUP2 PUSH2 0xFFFF AND PUSH1 0x0 LT DUP1 ISZERO PUSH2 0xC93 JUMPI POP PUSH2 0x3FFF PUSH2 0xFFFF DUP4 AND GT ISZERO JUMPDEST PUSH2 0xC9C JUMPI PUSH1 0x0 DUP1 REVERT JUMPDEST PUSH2 0xFFFF DUP3 AND DUP1 DUP6 MSTORE PUSH2 0xCAF SWAP1 DUP3 SWAP1 PUSH2 0x1928 JUMP JUMPDEST ISZERO PUSH2 0xCDC JUMPI PUSH2 0xCC2 DUP4 DUP4 PUSH2 0xFFFF AND PUSH2 0x19B2 JUMP JUMPDEST PUSH2 0x100 DUP9 ADD MSTORE PUSH1 0xE0 DUP8 ADD MSTORE PUSH1 0x40 DUP7 ADD MSTORE PUSH1 0x20 DUP6 ADD MSTORE PUSH2 0xCFA JUMP JUMPDEST PUSH1 0x0 PUSH1 0x20 DUP6 ADD DUP2 SWAP1 MSTORE PUSH1 0x40 DUP6 ADD DUP2 SWAP1 MSTORE PUSH1 0xE0 DUP6 ADD DUP2 SWAP1 MSTORE PUSH2 0x100 DUP6 ADD MSTORE JUMPDEST POP POP PUSH1 0x0 PUSH1 0x60 DUP4 ADD DUP2 SWAP1 MSTORE PUSH1 0x80 DUP4 ADD DUP2 SWAP1 MSTORE PUSH1 0xA0 DUP4 ADD DUP2 SWAP1 MSTORE PUSH1 0xC0 SWAP1 SWAP3 ADD SWAP2 SWAP1 SWAP2 MSTORE POP JUMP JUMPDEST PUSH1 0x0 PUSH2 0xD29 PUSH2 0x3F90 JUMP JUMPDEST PUSH2 0xD32 DUP5 PUSH2 0x1412 JUMP JUMPDEST ISZERO PUSH2 0xE22 JUMPI DUP7 PUSH2 0xFFFF AND DUP5 PUSH1 0x60 ADD MLOAD PUSH2 0xFFFF AND EQ PUSH2 0xD62 JUMPI PUSH1 0x40 MLOAD PUSH3 0x461BCD PUSH1 0xE5 SHL DUP2 MSTORE PUSH1 0x4 ADD PUSH2 0x17A SWAP1 PUSH2 0x4A0F JUMP JUMPDEST PUSH1 0x60 DUP5 ADD MLOAD DUP5 MLOAD PUSH1 0x40 MLOAD PUSH4 0x3643F39B PUSH1 0xE0 SHL DUP2 MSTORE PUSH1 0x0 SWAP3 PUSH20 0x0 SWAP3 PUSH4 0x3643F39B SWAP3 PUSH2 0xDA9 SWAP3 DUP15 SWAP3 SWAP1 SWAP2 DUP14 SWAP1 DUP14 SWAP1 PUSH1 0x4 ADD PUSH2 0x47CB JUMP JUMPDEST PUSH1 0x40 DUP1 MLOAD DUP1 DUP4 SUB DUP2 DUP7 DUP1 EXTCODESIZE ISZERO DUP1 ISZERO PUSH2 0xDC0 JUMPI PUSH1 0x0 DUP1 REVERT JUMPDEST POP GAS DELEGATECALL ISZERO DUP1 ISZERO PUSH2 0xDD4 JUMPI RETURNDATASIZE PUSH1 0x0 DUP1 RETURNDATACOPY RETURNDATASIZE PUSH1 0x0 REVERT JUMPDEST POP POP POP POP PUSH1 0x40 MLOAD RETURNDATASIZE PUSH1 0x1F NOT PUSH1 0x1F DUP3 ADD AND DUP3 ADD DUP1 PUSH1 0x40 MSTORE POP DUP2 ADD SWAP1 PUSH2 0xDF8 SWAP2 SWAP1 PUSH2 0x43F0 JUMP JUMPDEST SWAP1 SWAP4 POP SWAP1 POP DUP1 ISZERO PUSH2 0xE1C JUMPI PUSH1 0x20 DUP6 ADD DUP1 MLOAD PUSH1 0x1 PUSH1 0xF8 SHL OR PUSH1 0x1 PUSH1 0x1 PUSH1 0xF8 SHL SUB NOT AND SWAP1 MSTORE JUMPDEST POP PUSH2 0xEBA JUMP JUMPDEST PUSH1 0x40 MLOAD PUSH4 0xB58F83ED PUSH1 0xE0 SHL DUP2 MSTORE PUSH20 0x0 SWAP1 PUSH4 0xB58F83ED SWAP1 PUSH2 0xE61 SWAP1 DUP12 SWAP1 DUP12 SWAP1 DUP9 SWAP1 DUP13 SWAP1 DUP13 SWAP1 PUSH1 0x4 ADD PUSH2 0x4744 JUMP JUMPDEST PUSH1 0x0 PUSH1 0x40 MLOAD DUP1 DUP4 SUB DUP2 DUP7 DUP1 EXTCODESIZE ISZERO DUP1 ISZERO PUSH2 0xE79 JUMPI PUSH1 0x0 DUP1 REVERT JUMPDEST POP GAS DELEGATECALL ISZERO DUP1 ISZERO PUSH2 0xE8D JUMPI RETURNDATASIZE PUSH1 0x0 DUP1 RETURNDATACOPY RETURNDATASIZE PUSH1 0x0 REVERT JUMPDEST POP POP POP POP PUSH1 0x40 MLOAD RETURNDATASIZE PUSH1 0x0 DUP3 RETURNDATACOPY PUSH1 0x1F RETURNDATASIZE SWAP1 DUP2 ADD PUSH1 0x1F NOT AND DUP3 ADD PUSH1 0x40 MSTORE PUSH2 0xEB5 SWAP2 SWAP1 DUP2 ADD SWAP1 PUSH2 0x44BE JUMP JUMPDEST SWAP3 POP SWAP1 POP JUMPDEST SWAP7 POP SWAP7 SWAP5 POP POP POP POP POP JUMP JUMPDEST DUP2 DUP2 ADD DUP3 DUP2 SLT ISZERO PUSH1 0x0 DUP4 SLT ISZERO EQ PUSH2 0xEDB JUMPI PUSH1 0x0 DUP1 REVERT JUMPDEST SWAP3 SWAP2 POP POP JUMP JUMPDEST PUSH1 0x0 PUSH2 0xBDF PUSH1 0x0 NOT DUP4 PUSH2 0x1A5E JUMP JUMPDEST PUSH2 0xEF7 PUSH2 0x3FF8 JUMP JUMPDEST PUSH1 0x0 DUP1 PUSH1 0x0 PUSH2 0xF05 DUP6 PUSH2 0x1AAC JUMP JUMPDEST PUSH1 0x40 DUP1 MLOAD PUSH1 0x60 DUP2 ADD DUP3 MSTORE PUSH1 0x1 PUSH1 0x1 PUSH1 0xA0 SHL SUB SWAP1 SWAP4 AND DUP4 MSTORE PUSH1 0x20 DUP4 ADD SWAP4 SWAP1 SWAP4 MSTORE PUSH1 0xFF AND PUSH1 0xA EXP SWAP2 DUP2 ADD SWAP2 SWAP1 SWAP2 MSTORE SWAP4 POP POP POP POP SWAP2 SWAP1 POP JUMP JUMPDEST PUSH2 0xF43 PUSH2 0x4022 JUMP JUMPDEST PUSH2 0xBDF DUP3 PUSH1 0x1 PUSH2 0x1B6F JUMP JUMPDEST PUSH1 0x0 DUP1 PUSH2 0xF7F DUP5 PUSH1 0x40 ADD MLOAD PUSH2 0xF79 PUSH5 0x2540BE400 PUSH2 0xF79 DUP8 DUP10 PUSH1 0x20 ADD MLOAD PUSH2 0x1A5E SWAP1 SWAP2 SWAP1 PUSH4 0xFFFFFFFF AND JUMP JUMPDEST SWAP1 PUSH2 0x1C1D JUMP JUMPDEST SWAP5 SWAP4 POP POP POP POP JUMP JUMPDEST PUSH1 0x0 PUSH4 0x5F5E100 DUP4 PUSH1 0x40 ADD MLOAD EQ ISZERO PUSH2 0xFA0 JUMPI POP DUP1 PUSH2 0xEDB JUMP JUMPDEST PUSH2 0xAA3 PUSH4 0x5F5E100 PUSH2 0xF79 DUP6 PUSH1 0x40 ADD MLOAD DUP6 PUSH2 0x1A5E SWAP1 SWAP2 SWAP1 PUSH4 0xFFFFFFFF AND JUMP JUMPDEST PUSH1 0x0 DUP2 PUSH2 0xFCE JUMPI POP PUSH1 0x0 PUSH2 0xAA3 JUMP JUMPDEST PUSH1 0x0 DUP3 SGT PUSH2 0xFDB JUMPI PUSH1 0x0 DUP1 REVERT JUMPDEST PUSH1 0x0 PUSH2 0xFEE DUP6 PUSH1 0x0 ADD MLOAD PUSH2 0xFFFF AND PUSH2 0xF3B JUMP JUMPDEST SWAP1 POP PUSH1 0x3 DUP2 PUSH1 0x60 ADD MLOAD PUSH1 0x5 DUP2 GT ISZERO PUSH2 0x1002 JUMPI INVALID JUMPDEST EQ ISZERO PUSH2 0x102C JUMPI CALLVALUE DUP4 EQ PUSH2 0x1027 JUMPI PUSH1 0x40 MLOAD PUSH3 0x461BCD PUSH1 0xE5 SHL DUP2 MSTORE PUSH1 0x4 ADD PUSH2 0x17A SWAP1 PUSH2 0x48F8 JUMP JUMPDEST PUSH2 0x1043 JUMP JUMPDEST DUP5 MLOAD PUSH2 0x1040 SWAP1 DUP3 SWAP1 DUP7 SWAP1 PUSH2 0xFFFF AND DUP7 PUSH2 0x1C4E JUMP JUMPDEST SWAP3 POP JUMPDEST PUSH1 0x0 PUSH2 0x1056 DUP7 PUSH1 0x0 ADD MLOAD PUSH2 0xFFFF AND PUSH2 0x10A4 JUMP JUMPDEST SWAP1 POP PUSH1 0x0 PUSH2 0x1073 DUP8 PUSH1 0x0 ADD MLOAD PUSH2 0x106B DUP8 PUSH2 0x1CF6 JUMP JUMPDEST DUP5 SWAP2 SWAP1 PUSH2 0x1D09 JUMP JUMPDEST SWAP1 POP PUSH1 0x0 PUSH2 0x1081 DUP4 DUP4 PUSH2 0x1DFA JUMP JUMPDEST PUSH1 0x60 DUP10 ADD MLOAD SWAP1 SWAP2 POP PUSH2 0x1093 SWAP1 DUP3 PUSH2 0xEC5 JUMP JUMPDEST PUSH1 0x60 DUP10 ADD MSTORE SWAP4 POP POP POP POP SWAP4 SWAP3 POP POP POP JUMP JUMPDEST PUSH2 0x10AC PUSH2 0x4022 JUMP JUMPDEST PUSH2 0xBDF DUP3 PUSH1 0x0 PUSH2 0x1B6F JUMP JUMPDEST PUSH1 0x0 DUP3 PUSH2 0x10C6 JUMPI POP PUSH1 0x0 PUSH2 0xF7F JUMP JUMPDEST PUSH1 0x0 DUP4 SGT PUSH2 0x10D3 JUMPI PUSH1 0x0 DUP1 REVERT JUMPDEST PUSH1 0x0 PUSH2 0x10E6 DUP7 PUSH1 0x0 ADD MLOAD PUSH2 0xFFFF AND PUSH2 0x10A4 JUMP JUMPDEST SWAP1 POP PUSH1 0x5 DUP2 PUSH1 0x60 ADD MLOAD PUSH1 0x5 DUP2 GT ISZERO PUSH2 0x10FA JUMPI INVALID JUMPDEST EQ ISZERO PUSH2 0x1113 JUMPI DUP6 MLOAD PUSH2 0x1110 SWAP1 PUSH2 0xFFFF AND DUP6 PUSH2 0x1E2A JUMP JUMPDEST SWAP4 POP JUMPDEST DUP1 PUSH1 0x20 ADD MLOAD DUP1 PUSH2 0x1120 JUMPI POP DUP3 JUMPDEST ISZERO PUSH2 0x1167 JUMPI DUP6 MLOAD PUSH1 0x0 SWAP1 PUSH2 0x113C SWAP1 DUP4 SWAP1 DUP9 SWAP1 PUSH2 0xFFFF AND DUP9 PUSH2 0x1C4E JUMP JUMPDEST SWAP1 POP PUSH2 0x1148 DUP3 DUP3 PUSH2 0x1DFA JUMP JUMPDEST PUSH1 0x60 DUP9 ADD MLOAD SWAP1 SWAP4 POP PUSH2 0x115A SWAP1 DUP5 PUSH2 0xEC5 JUMP JUMPDEST PUSH1 0x60 DUP9 ADD MSTORE POP PUSH2 0xF7F SWAP1 POP JUMP JUMPDEST PUSH2 0x1171 DUP2 DUP6 PUSH2 0x1DFA JUMP JUMPDEST PUSH1 0x80 DUP8 ADD MLOAD SWAP1 SWAP3 POP PUSH2 0x1183 SWAP1 DUP4 PUSH2 0xEC5 JUMP JUMPDEST PUSH1 0x80 DUP8 ADD MSTORE POP SWAP5 SWAP4 POP POP POP POP JUMP JUMPDEST PUSH1 0x0 DUP1 PUSH1 0x0 DUP7 PUSH1 0xA0 ADD MLOAD SLT ISZERO PUSH2 0x11EA JUMPI PUSH1 0x0 PUSH2 0x11CC DUP8 PUSH1 0xA0 ADD MLOAD PUSH2 0x11C6 DUP10 PUSH1 0xC0 ADD MLOAD DUP11 PUSH1 0x40 ADD MLOAD PUSH2 0xEC5 SWAP1 SWAP2 SWAP1 PUSH4 0xFFFFFFFF AND JUMP JUMPDEST SWAP1 PUSH2 0xEC5 JUMP JUMPDEST SLT ISZERO PUSH2 0x11EA JUMPI PUSH1 0x40 MLOAD PUSH3 0x461BCD PUSH1 0xE5 SHL DUP2 MSTORE PUSH1 0x4 ADD PUSH2 0x17A SWAP1 PUSH2 0x4A46 JUMP JUMPDEST PUSH1 0x0 DUP7 PUSH1 0x80 ADD MLOAD SLT ISZERO PUSH2 0x123A JUMPI PUSH1 0x0 PUSH2 0x121C DUP8 PUSH1 0x80 ADD MLOAD PUSH2 0x11C6 DUP10 PUSH1 0x60 ADD MLOAD DUP11 PUSH1 0x20 ADD MLOAD PUSH2 0xEC5 SWAP1 SWAP2 SWAP1 PUSH4 0xFFFFFFFF AND JUMP JUMPDEST SLT ISZERO PUSH2 0x123A JUMPI PUSH1 0x40 MLOAD PUSH3 0x461BCD PUSH1 0xE5 SHL DUP2 MSTORE PUSH1 0x4 ADD PUSH2 0x17A SWAP1 PUSH2 0x49ED JUMP JUMPDEST PUSH2 0x1245 DUP7 DUP7 DUP6 PUSH2 0x1EB1 JUMP JUMPDEST PUSH1 0x80 DUP9 ADD DUP2 SWAP1 MSTORE PUSH1 0x60 DUP9 ADD MLOAD SWAP2 SWAP4 POP PUSH1 0x0 SWAP2 PUSH2 0x1260 SWAP2 PUSH2 0xEC5 JUMP JUMPDEST SWAP1 POP DUP1 ISZERO PUSH2 0x12CD JUMPI PUSH1 0x20 DUP8 ADD MLOAD PUSH2 0x1277 SWAP1 DUP3 PUSH2 0xEC5 JUMP JUMPDEST PUSH1 0x20 DUP9 ADD MSTORE DUP7 MLOAD PUSH1 0x40 MLOAD PUSH1 0x1 SWAP4 POP PUSH2 0xFFFF SWAP1 SWAP2 AND SWAP1 PUSH1 0x1 PUSH1 0x1 PUSH1 0xA0 SHL SUB DUP9 AND SWAP1 PUSH32 0x5441E4A5FAC93A951D782E6F1CDB82E95C8FC58561A013953D17E395C5E69B4B SWAP1 PUSH2 0x12C4 SWAP1 DUP6 SWAP1 PUSH2 0x48AB JUMP JUMPDEST PUSH1 0x40 MLOAD DUP1 SWAP2 SUB SWAP1 LOG3 JUMPDEST PUSH1 0xA0 DUP8 ADD MLOAD ISZERO ISZERO DUP1 PUSH2 0x12E2 JUMPI POP PUSH1 0xC0 DUP8 ADD MLOAD ISZERO ISZERO JUMPDEST ISZERO PUSH2 0x1388 JUMPI PUSH1 0x0 PUSH2 0x130C DUP9 PUSH1 0xC0 ADD MLOAD PUSH2 0x11C6 DUP11 PUSH1 0xA0 ADD MLOAD DUP12 PUSH1 0x40 ADD MLOAD PUSH2 0xEC5 SWAP1 SWAP2 SWAP1 PUSH4 0xFFFFFFFF AND JUMP JUMPDEST SWAP1 POP PUSH2 0x1321 DUP9 DUP9 PUSH2 0x131C DUP5 PUSH2 0x1CF6 JUMP JUMPDEST PUSH2 0x1F67 JUMP JUMPDEST POP PUSH1 0x40 DUP9 ADD DUP2 SWAP1 MSTORE PUSH1 0xC0 DUP9 ADD MLOAD ISZERO PUSH2 0x1382 JUMPI DUP8 PUSH1 0x0 ADD MLOAD PUSH2 0xFFFF AND DUP8 PUSH1 0x1 PUSH1 0x1 PUSH1 0xA0 SHL SUB AND PUSH32 0x412BC13D202A2EA5119E55FEC9C5E420DDDB18FAF186373AD9795AD4F4545AA9 DUP11 PUSH1 0xC0 ADD MLOAD PUSH1 0x40 MLOAD PUSH2 0x1379 SWAP2 SWAP1 PUSH2 0x48AB JUMP JUMPDEST PUSH1 0x40 MLOAD DUP1 SWAP2 SUB SWAP1 LOG3 JUMPDEST PUSH1 0x1 SWAP3 POP POP JUMPDEST DUP2 ISZERO PUSH2 0x13B5 JUMPI PUSH2 0x13B5 DUP7 DUP9 PUSH1 0x0 ADD MLOAD PUSH2 0xFFFF AND DUP10 PUSH1 0x20 ADD MLOAD DUP11 PUSH1 0x40 ADD MLOAD DUP12 PUSH1 0xE0 ADD MLOAD DUP13 PUSH2 0x100 ADD MLOAD PUSH2 0x204E JUMP JUMPDEST DUP7 MLOAD PUSH1 0x20 DUP9 ADD MLOAD PUSH2 0x13E2 SWAP2 PUSH2 0xFFFF AND SWAP1 ISZERO ISZERO DUP1 PUSH2 0x13D5 JUMPI POP PUSH1 0x40 DUP10 ADD MLOAD ISZERO ISZERO JUMPDEST DUP8 SWAP2 SWAP1 PUSH1 0x1 PUSH1 0xFE SHL PUSH2 0x2187 JUMP JUMPDEST PUSH1 0x0 DUP8 PUSH1 0x20 ADD MLOAD SLT ISZERO PUSH2 0x1408 JUMPI PUSH1 0x20 DUP6 ADD DUP1 MLOAD PUSH1 0x1 PUSH1 0xF9 SHL OR PUSH1 0x1 PUSH1 0x1 PUSH1 0xF8 SHL SUB NOT AND SWAP1 MSTORE JUMPDEST POP POP SWAP5 SWAP4 POP POP POP POP JUMP JUMPDEST PUSH1 0x60 ADD MLOAD PUSH2 0xFFFF AND ISZERO ISZERO SWAP1 JUMP JUMPDEST PUSH1 0x0 DUP1 DUP1 DUP1 PUSH2 0x142E DUP7 DUP9 PUSH2 0x2386 JUMP JUMPDEST PUSH5 0xFFFFFFFFFF DUP2 AND DUP13 MSTORE SWAP3 SWAP7 POP SWAP1 SWAP5 POP SWAP3 POP SWAP1 POP PUSH2 0x144B DUP9 PUSH2 0x18AE JUMP JUMPDEST ISZERO PUSH2 0x1455 JUMPI PUSH1 0x0 DUP1 REVERT JUMPDEST PUSH1 0xFF DUP3 AND PUSH1 0x40 DUP10 ADD MSTORE DUP5 PUSH2 0x1474 JUMPI PUSH1 0x7 PUSH1 0xFF DUP4 AND GT ISZERO PUSH2 0x1474 JUMPI PUSH1 0x0 DUP1 REVERT JUMPDEST DUP4 ISZERO PUSH2 0x1497 JUMPI PUSH1 0x20 DUP9 ADD DUP1 MLOAD PUSH1 0x1 PUSH1 0xF8 SHL OR PUSH1 0x1 PUSH1 0x1 PUSH1 0xF8 SHL SUB NOT AND SWAP1 MSTORE PUSH2 0x14A6 JUMP JUMPDEST PUSH1 0x20 DUP9 ADD DUP1 MLOAD PUSH1 0x7F PUSH1 0xF9 SHL AND SWAP1 MSTORE JUMPDEST PUSH2 0x14B3 DUP9 PUSH1 0x80 ADD MLOAD PUSH2 0x25C5 JUMP JUMPDEST PUSH1 0x1 PUSH1 0x1 PUSH1 0x70 SHL SUB NOT AND PUSH1 0x80 DUP10 ADD MSTORE PUSH1 0x0 JUMPDEST DUP4 ISZERO PUSH2 0x14F6 JUMPI PUSH1 0xF0 DUP5 SWAP1 SHR DUP2 DUP2 EQ PUSH2 0x14E8 JUMPI PUSH2 0x14E8 DUP11 DUP3 PUSH1 0x1 PUSH1 0x1 PUSH1 0xFF SHL PUSH2 0x2187 JUMP JUMPDEST PUSH1 0x10 SWAP5 SWAP1 SWAP5 SHL SWAP4 SWAP1 POP PUSH2 0x14C5 JUMP JUMPDEST POP POP POP POP POP POP POP POP POP JUMP JUMPDEST PUSH1 0x0 PUSH2 0x150B PUSH2 0x2640 JUMP JUMPDEST PUSH1 0x1 PUSH1 0x1 PUSH1 0xA0 SHL SUB DUP4 AND PUSH1 0x0 DUP2 DUP2 MSTORE PUSH1 0x20 DUP4 DUP2 MSTORE PUSH1 0x40 DUP1 DUP4 KECCAK256 DUP9 MLOAD DUP2 SLOAD SWAP4 DUP11 ADD MLOAD DUP4 DUP12 ADD MLOAD PUSH1 0x60 DUP13 ADD MLOAD PUSH1 0x80 DUP14 ADD MLOAD PUSH1 0x70 SHR PUSH1 0x1 PUSH1 0x48 SHL MUL PUSH27 0xFFFFFFFFFFFFFFFFFFFFFFFFFFFFFFFFFFFF000000000000000000 NOT PUSH2 0xFFFF SWAP1 SWAP3 AND PUSH1 0x1 PUSH1 0x38 SHL MUL PUSH9 0xFFFF00000000000000 NOT PUSH1 0xFF SWAP5 SWAP1 SWAP5 AND PUSH1 0x1 PUSH1 0x30 SHL MUL PUSH7 0xFF000000000000 NOT PUSH1 0xF8 SWAP7 SWAP1 SWAP7 SHR PUSH6 0x10000000000 MUL PUSH6 0xFF0000000000 NOT PUSH5 0xFFFFFFFFFF SWAP1 SWAP9 AND PUSH5 0xFFFFFFFFFF NOT SWAP1 SWAP12 AND SWAP11 SWAP1 SWAP11 OR SWAP7 SWAP1 SWAP7 AND SWAP9 SWAP1 SWAP9 OR SWAP4 SWAP1 SWAP4 AND SWAP4 SWAP1 SWAP4 OR AND SWAP5 SWAP1 SWAP5 OR AND SWAP3 SWAP1 SWAP3 OR SWAP1 SWAP2 SSTORE MLOAD SWAP3 SWAP4 POP SWAP1 SWAP2 PUSH32 0x6BD4B121BCA854A191536A2CA891155C42EE2FB23F307FB34E8BC65CFCB5412E SWAP2 SWAP1 LOG2 POP POP POP JUMP JUMPDEST PUSH1 0x0 PUSH2 0x1610 DUP3 PUSH2 0x264D JUMP JUMPDEST SWAP1 POP PUSH1 0x0 DUP1 DUP3 SLT ISZERO PUSH2 0x1621 JUMPI PUSH1 0x0 DUP1 REVERT JUMPDEST PUSH1 0x0 DUP5 PUSH1 0x6 DUP2 GT ISZERO PUSH2 0x162F JUMPI INVALID JUMPDEST EQ ISZERO PUSH2 0x163C JUMPI POP POP PUSH2 0x16D2 JUMP JUMPDEST PUSH1 0x1 DUP5 PUSH1 0x6 DUP2 GT ISZERO PUSH2 0x164A JUMPI INVALID JUMPDEST EQ DUP1 PUSH2 0x1661 JUMPI POP PUSH1 0x3 DUP5 PUSH1 0x6 DUP2 GT ISZERO PUSH2 0x165F JUMPI INVALID JUMPDEST EQ JUMPDEST ISZERO PUSH2 0x167A JUMPI PUSH2 0x1673 DUP6 DUP8 DUP5 PUSH1 0x0 PUSH2 0x10B7 JUMP JUMPDEST SWAP1 POP PUSH2 0x16C6 JUMP JUMPDEST PUSH1 0x2 DUP5 PUSH1 0x6 DUP2 GT ISZERO PUSH2 0x1688 JUMPI INVALID JUMPDEST EQ DUP1 PUSH2 0x169F JUMPI POP PUSH1 0x4 DUP5 PUSH1 0x6 DUP2 GT ISZERO PUSH2 0x169D JUMPI INVALID JUMPDEST EQ JUMPDEST ISZERO PUSH2 0x16AF JUMPI PUSH2 0x1673 DUP6 DUP8 DUP5 PUSH2 0xFBF JUMP JUMPDEST PUSH1 0x6 DUP5 PUSH1 0x6 DUP2 GT ISZERO PUSH2 0x16BD JUMPI INVALID JUMPDEST EQ ISZERO PUSH2 0x16C6 JUMPI POP DUP1 JUMPDEST PUSH2 0x666 DUP6 DUP6 DUP5 DUP5 PUSH2 0x2663 JUMP JUMPDEST POP POP POP POP JUMP JUMPDEST PUSH1 0x0 PUSH2 0x16E3 DUP5 PUSH2 0x264D JUMP JUMPDEST SWAP1 POP PUSH1 0x0 DUP2 SLT ISZERO PUSH2 0x16F3 JUMPI PUSH1 0x0 DUP1 REVERT JUMPDEST DUP3 ISZERO PUSH2 0x172B JUMPI PUSH2 0x171C DUP6 PUSH1 0x80 ADD MLOAD PUSH2 0x11C6 DUP8 PUSH1 0x60 ADD MLOAD DUP9 PUSH1 0x20 ADD MLOAD PUSH2 0xEC5 SWAP1 SWAP2 SWAP1 PUSH4 0xFFFFFFFF AND JUMP JUMPDEST SWAP1 POP PUSH1 0x0 DUP2 SLT ISZERO PUSH2 0x172B JUMPI POP PUSH1 0x0 JUMPDEST PUSH1 0x80 DUP6 ADD MLOAD PUSH2 0x173A SWAP1 DUP3 PUSH2 0x287E JUMP JUMPDEST PUSH1 0x80 DUP7 ADD MSTORE PUSH2 0x174B DUP6 DUP9 DUP9 DUP6 PUSH2 0x1191 JUMP JUMPDEST POP POP POP POP POP POP POP POP JUMP JUMPDEST PUSH1 0x0 DUP1 PUSH1 0x0 DUP1 PUSH1 0x0 DUP1 PUSH2 0x1766 PUSH2 0x2894 JUMP JUMPDEST PUSH1 0x1 PUSH1 0x1 PUSH1 0xA0 SHL SUB SWAP1 SWAP8 AND PUSH1 0x0 SWAP1 DUP2 MSTORE PUSH1 0x20 SWAP8 SWAP1 SWAP8 MSTORE POP POP PUSH1 0x40 SWAP1 SWAP5 KECCAK256 SLOAD PUSH2 0xFFFF DUP2 AND SWAP6 PUSH4 0xFFFFFFFF PUSH3 0x10000 DUP4 DIV DUP2 AND SWAP7 POP PUSH1 0x1 PUSH1 0x30 SHL DUP4 DIV AND SWAP5 POP PUSH1 0xFF PUSH1 0x1 PUSH1 0x50 SHL DUP4 DIV AND SWAP4 POP PUSH1 0x1 PUSH1 0x58 SHL SWAP1 SWAP2 DIV PUSH1 0xD8 SHL SWAP2 POP JUMP JUMPDEST PUSH1 0x0 DUP2 SLT ISZERO DUP1 ISZERO PUSH2 0x17F1 JUMPI POP DUP1 PUSH2 0x17EE DUP4 PUSH1 0x80 ADD MLOAD PUSH2 0x11C6 DUP6 PUSH1 0x60 ADD MLOAD DUP7 PUSH1 0x20 ADD MLOAD PUSH2 0xEC5 SWAP1 SWAP2 SWAP1 PUSH4 0xFFFFFFFF AND JUMP JUMPDEST SLT ISZERO JUMPDEST PUSH2 0x8EB JUMPI PUSH1 0x40 MLOAD PUSH3 0x461BCD PUSH1 0xE5 SHL DUP2 MSTORE PUSH1 0x4 ADD PUSH2 0x17A SWAP1 PUSH2 0x4A6A JUMP JUMPDEST PUSH2 0x1815 PUSH2 0x3F62 JUMP JUMPDEST PUSH1 0x0 PUSH2 0x181F PUSH2 0x2640 JUMP JUMPDEST PUSH1 0x1 PUSH1 0x1 PUSH1 0xA0 SHL SUB SWAP4 SWAP1 SWAP4 AND PUSH1 0x0 SWAP1 DUP2 MSTORE PUSH1 0x20 SWAP4 DUP5 MSTORE PUSH1 0x40 SWAP1 DUP2 SWAP1 KECCAK256 DUP2 MLOAD PUSH1 0xA0 DUP2 ADD DUP4 MSTORE SWAP1 SLOAD PUSH5 0xFFFFFFFFFF DUP2 AND DUP3 MSTORE PUSH6 0x10000000000 DUP2 DIV PUSH1 0xF8 SHL PUSH1 0x1 PUSH1 0x1 PUSH1 0xF8 SHL SUB NOT AND SWAP6 DUP3 ADD SWAP6 SWAP1 SWAP6 MSTORE PUSH1 0x1 PUSH1 0x30 SHL DUP6 DIV PUSH1 0xFF AND SWAP2 DUP2 ADD SWAP2 SWAP1 SWAP2 MSTORE PUSH1 0x1 PUSH1 0x38 SHL DUP5 DIV PUSH2 0xFFFF AND PUSH1 0x60 DUP3 ADD MSTORE PUSH1 0x1 PUSH1 0x48 SHL SWAP1 SWAP4 DIV PUSH1 0x70 SHL PUSH1 0x1 PUSH1 0x1 PUSH1 0x70 SHL SUB NOT AND PUSH1 0x80 DUP5 ADD MSTORE POP SWAP1 SWAP2 SWAP1 POP JUMP JUMPDEST PUSH1 0x0 TIMESTAMP PUSH2 0x18BA DUP4 PUSH2 0x1412 JUMP JUMPDEST ISZERO PUSH2 0x18DB JUMPI PUSH2 0x18C8 DUP2 PUSH2 0x28A1 JUMP JUMPDEST DUP4 MLOAD PUSH5 0xFFFFFFFFFF AND LT SWAP2 POP PUSH2 0xBE2 SWAP1 POP JUMP JUMPDEST DUP3 MLOAD PUSH5 0xFFFFFFFFFF AND ISZERO DUP1 ISZERO SWAP1 PUSH2 0xBD7 JUMPI POP DUP3 MLOAD PUSH5 0xFFFFFFFFFF AND GT ISZERO SWAP1 POP PUSH2 0xBE2 JUMP JUMPDEST PUSH1 0x60 PUSH1 0x0 PUSH2 0x190D DUP5 DUP5 PUSH2 0x28BF JUMP JUMPDEST SWAP1 POP PUSH1 0x1 DUP2 MLOAD GT PUSH2 0x191F JUMPI SWAP1 POP PUSH2 0xEDB JUMP JUMPDEST PUSH2 0xAA3 DUP2 PUSH2 0x29E0 JUMP JUMPDEST PUSH1 0x0 DUP2 ISZERO DUP1 ISZERO SWAP1 PUSH2 0x193B JUMPI POP PUSH2 0x3FFF DUP3 GT ISZERO JUMPDEST PUSH2 0x1944 JUMPI PUSH1 0x0 DUP1 REVERT JUMPDEST PUSH1 0x80 DUP4 ADD MLOAD PUSH1 0x60 DUP5 ADD MLOAD PUSH2 0xFFFF AND DUP4 EQ ISZERO PUSH2 0x1963 JUMPI PUSH1 0x1 SWAP2 POP POP PUSH2 0xEDB JUMP JUMPDEST PUSH1 0x1 PUSH1 0x1 PUSH1 0x70 SHL SUB NOT DUP2 AND ISZERO PUSH2 0x19A8 JUMPI PUSH1 0xF0 DUP2 SWAP1 SHR PUSH2 0x3FFF AND DUP4 DUP2 EQ ISZERO PUSH2 0x1995 JUMPI POP PUSH1 0x1 PUSH1 0xFE SHL SWAP1 DUP2 AND EQ SWAP1 POP PUSH2 0xEDB JUMP JUMPDEST POP PUSH1 0x10 SHL PUSH1 0x1 PUSH1 0x1 PUSH1 0x80 SHL SUB NOT AND PUSH2 0x1963 JUMP JUMPDEST POP PUSH1 0x0 SWAP4 SWAP3 POP POP POP JUMP JUMPDEST PUSH1 0x0 DUP1 PUSH1 0x0 DUP1 PUSH1 0x0 PUSH2 0x19C2 PUSH2 0x2B98 JUMP JUMPDEST PUSH1 0x1 PUSH1 0x1 PUSH1 0xA0 SHL SUB DUP9 AND PUSH1 0x0 SWAP1 DUP2 MSTORE PUSH1 0x20 DUP3 DUP2 MSTORE PUSH1 0x40 DUP1 DUP4 KECCAK256 DUP11 DUP5 MSTORE SWAP1 SWAP2 MSTORE SWAP1 KECCAK256 DUP1 SLOAD PUSH10 0xFFFFFFFFFFFFFFFFFFFF DUP2 AND SWAP7 POP PUSH1 0x1 PUSH1 0x50 SHL SWAP1 DIV PUSH4 0xFFFFFFFF AND SWAP5 POP SWAP1 SWAP2 POP DUP4 ISZERO PUSH2 0x1A2E JUMPI DUP1 SLOAD PUSH2 0x1A27 SWAP1 PUSH1 0x1 PUSH1 0x70 SHL SWAP1 DIV PUSH7 0xFFFFFFFFFFFFFF AND PUSH2 0x2BA5 JUMP JUMPDEST SWAP3 POP PUSH2 0x1A43 JUMP JUMPDEST DUP1 SLOAD PUSH1 0x1 PUSH1 0x70 SHL SWAP1 DIV PUSH7 0xFFFFFFFFFFFFFF AND SWAP3 POP JUMPDEST SLOAD PUSH1 0x1 PUSH1 0xA8 SHL SWAP1 DIV PUSH1 0xA SWAP1 DUP2 SIGNEXTEND SWAP1 SIGNEXTEND SWAP8 SWAP4 SWAP7 POP SWAP2 SWAP5 POP SWAP3 POP POP JUMP JUMPDEST DUP2 DUP2 MUL PUSH1 0x0 NOT DUP4 EQ ISZERO PUSH2 0x1A8E JUMPI DUP2 ISZERO DUP1 PUSH2 0x1A80 JUMPI POP DUP3 DUP3 DUP3 DUP2 PUSH2 0x1A7D JUMPI INVALID JUMPDEST SDIV EQ JUMPDEST PUSH2 0x1A89 JUMPI PUSH1 0x0 DUP1 REVERT JUMPDEST PUSH2 0xEDB JUMP JUMPDEST DUP3 ISZERO DUP1 PUSH2 0x1AA3 JUMPI POP DUP2 DUP4 DUP3 DUP2 PUSH2 0x1AA0 JUMPI INVALID JUMPDEST SDIV EQ JUMPDEST PUSH2 0xEDB JUMPI PUSH1 0x0 DUP1 REVERT JUMPDEST PUSH1 0x0 DUP1 PUSH1 0x0 DUP1 PUSH1 0x0 PUSH2 0x1ABD DUP7 PUSH2 0x2BB3 JUMP JUMPDEST SWAP1 SWAP3 POP SWAP1 POP PUSH1 0x0 PUSH1 0x1 PUSH1 0x1 PUSH1 0xA0 SHL SUB DUP4 AND PUSH2 0x1AE2 JUMPI POP PUSH1 0x0 SWAP1 POP PUSH5 0x2540BE400 PUSH2 0x1B64 JUMP JUMPDEST DUP3 PUSH1 0x1 PUSH1 0x1 PUSH1 0xA0 SHL SUB AND PUSH4 0x1EE10833 PUSH1 0x40 MLOAD DUP2 PUSH4 0xFFFFFFFF AND PUSH1 0xE0 SHL DUP2 MSTORE PUSH1 0x4 ADD PUSH1 0x20 PUSH1 0x40 MLOAD DUP1 DUP4 SUB DUP2 PUSH1 0x0 DUP8 DUP1 EXTCODESIZE ISZERO DUP1 ISZERO PUSH2 0x1B1D JUMPI PUSH1 0x0 DUP1 REVERT JUMPDEST POP GAS CALL ISZERO DUP1 ISZERO PUSH2 0x1B31 JUMPI RETURNDATASIZE PUSH1 0x0 DUP1 RETURNDATACOPY RETURNDATASIZE PUSH1 0x0 REVERT JUMPDEST POP POP POP POP PUSH1 0x40 MLOAD RETURNDATASIZE PUSH1 0x1F NOT PUSH1 0x1F DUP3 ADD AND DUP3 ADD DUP1 PUSH1 0x40 MSTORE POP DUP2 ADD SWAP1 PUSH2 0x1B55 SWAP2 SWAP1 PUSH2 0x43D8 JUMP JUMPDEST SWAP1 POP PUSH1 0x0 DUP2 SGT PUSH2 0x1B64 JUMPI PUSH1 0x0 DUP1 REVERT JUMPDEST SWAP7 SWAP2 SWAP6 POP SWAP4 POP SWAP2 POP POP JUMP JUMPDEST PUSH2 0x1B77 PUSH2 0x4022 JUMP JUMPDEST PUSH1 0x0 PUSH2 0x1B81 PUSH2 0x2BEA JUMP JUMPDEST PUSH1 0x0 DUP6 DUP2 MSTORE PUSH1 0x20 DUP3 DUP2 MSTORE PUSH1 0x40 DUP1 DUP4 KECCAK256 DUP8 ISZERO ISZERO DUP5 MSTORE DUP3 MSTORE SWAP2 DUP3 SWAP1 KECCAK256 DUP3 MLOAD PUSH1 0xA0 DUP2 ADD DUP5 MSTORE DUP2 SLOAD PUSH1 0x1 PUSH1 0x1 PUSH1 0xA0 SHL SUB DUP2 AND DUP3 MSTORE PUSH1 0xFF PUSH1 0x1 PUSH1 0xA0 SHL DUP3 DIV DUP2 AND ISZERO ISZERO SWAP5 DUP4 ADD SWAP5 SWAP1 SWAP5 MSTORE PUSH1 0x1 PUSH1 0xB0 SHL DUP2 DIV DUP5 AND PUSH1 0xA EXP SWAP5 DUP3 ADD SWAP5 SWAP1 SWAP5 MSTORE SWAP4 SWAP5 POP SWAP3 SWAP2 PUSH1 0x60 DUP4 ADD SWAP2 PUSH1 0x1 PUSH1 0xA8 SHL SWAP1 SWAP2 DIV AND PUSH1 0x5 DUP2 GT ISZERO PUSH2 0x1BF6 JUMPI INVALID JUMPDEST DUP2 MSTORE SWAP2 SLOAD PUSH1 0x1 PUSH1 0xB8 SHL SWAP1 DIV PUSH9 0xFFFFFFFFFFFFFFFFFF AND PUSH1 0x20 SWAP1 SWAP3 ADD SWAP2 SWAP1 SWAP2 MSTORE SWAP5 SWAP4 POP POP POP POP JUMP JUMPDEST PUSH1 0x0 DUP2 PUSH1 0x0 NOT EQ DUP1 ISZERO PUSH2 0x1C33 JUMPI POP PUSH1 0x1 PUSH1 0xFF SHL DUP4 EQ JUMPDEST ISZERO PUSH2 0x1C3D JUMPI PUSH1 0x0 DUP1 REVERT JUMPDEST DUP2 DUP4 DUP2 PUSH2 0x1C46 JUMPI INVALID JUMPDEST SDIV SWAP4 SWAP3 POP POP POP JUMP JUMPDEST DUP1 PUSH1 0x5 DUP6 PUSH1 0x60 ADD MLOAD PUSH1 0x5 DUP2 GT ISZERO PUSH2 0x1C61 JUMPI INVALID JUMPDEST EQ ISZERO PUSH2 0x1C86 JUMPI PUSH1 0x0 PUSH2 0x1C72 DUP5 PUSH2 0xF3B JUMP JUMPDEST SWAP1 POP PUSH2 0x1C82 DUP2 PUSH1 0x0 ADD MLOAD DUP5 PUSH2 0x2BF7 JUMP JUMPDEST SWAP3 POP POP JUMPDEST PUSH1 0x0 DUP3 SGT ISZERO PUSH2 0x1CB2 JUMPI PUSH1 0x0 PUSH2 0x1C9C DUP7 DUP7 DUP6 PUSH2 0x2C89 JUMP JUMPDEST SWAP1 POP DUP6 PUSH1 0x20 ADD MLOAD ISZERO PUSH2 0x1CAC JUMPI DUP1 SWAP2 POP JUMPDEST POP PUSH2 0xF7F JUMP JUMPDEST PUSH1 0x3 DUP6 PUSH1 0x60 ADD MLOAD PUSH1 0x5 DUP2 GT ISZERO PUSH2 0x1CC4 JUMPI INVALID JUMPDEST EQ ISZERO PUSH2 0x1CE1 JUMPI PUSH2 0x1CDC DUP5 PUSH2 0x1CD7 DUP5 PUSH2 0xEE1 JUMP JUMPDEST PUSH2 0x2D7C JUMP JUMPDEST PUSH2 0xF7F JUMP JUMPDEST DUP5 MLOAD PUSH2 0xF7F SWAP1 DUP6 PUSH2 0x1CF1 DUP6 PUSH2 0xEE1 JUMP JUMPDEST PUSH2 0x2DB7 JUMP JUMPDEST PUSH1 0x0 DUP1 DUP3 SLT ISZERO PUSH2 0x1D05 JUMPI PUSH1 0x0 DUP1 REVERT JUMPDEST POP SWAP1 JUMP JUMPDEST PUSH1 0x0 DUP1 PUSH1 0x5 DUP6 PUSH1 0x60 ADD MLOAD PUSH1 0x5 DUP2 GT ISZERO PUSH2 0x1D1E JUMPI INVALID JUMPDEST EQ PUSH2 0x1D30 JUMPI PUSH4 0x70A08231 PUSH1 0xE0 SHL PUSH2 0x1D39 JUMP JUMPDEST PUSH4 0xED1279F PUSH1 0xE1 SHL JUMPDEST SWAP1 POP PUSH1 0x0 PUSH2 0x1D4C DUP7 PUSH1 0x0 ADD MLOAD ADDRESS DUP5 PUSH2 0x2E2E JUMP JUMPDEST SWAP1 POP PUSH1 0x5 DUP7 PUSH1 0x60 ADD MLOAD PUSH1 0x5 DUP2 GT ISZERO PUSH2 0x1D60 JUMPI INVALID JUMPDEST EQ ISZERO PUSH2 0x1D87 JUMPI PUSH1 0x0 PUSH2 0x1D75 DUP7 PUSH2 0xFFFF AND PUSH2 0xF3B JUMP JUMPDEST SWAP1 POP PUSH2 0x1D81 DUP2 DUP7 PUSH2 0x2F40 JUMP JUMPDEST POP PUSH2 0x1DCA JUMP JUMPDEST PUSH1 0x1 DUP7 PUSH1 0x60 ADD MLOAD PUSH1 0x5 DUP2 GT ISZERO PUSH2 0x1D99 JUMPI INVALID JUMPDEST EQ ISZERO PUSH2 0x1DA9 JUMPI PUSH2 0x1D81 DUP7 DUP6 PUSH2 0x2FAB JUMP JUMPDEST PUSH1 0x2 DUP7 PUSH1 0x60 ADD MLOAD PUSH1 0x5 DUP2 GT ISZERO PUSH2 0x1DBB JUMPI INVALID JUMPDEST EQ ISZERO PUSH2 0x7B JUMPI PUSH2 0x1DCA DUP7 PUSH2 0x3057 JUMP JUMPDEST PUSH1 0x0 PUSH2 0x1DDB DUP8 PUSH1 0x0 ADD MLOAD ADDRESS DUP6 PUSH2 0x2E2E JUMP JUMPDEST SWAP1 POP PUSH2 0x1DEF PUSH2 0x1DEA DUP3 DUP5 PUSH2 0x3096 JUMP JUMPDEST PUSH2 0x264D JUMP JUMPDEST SWAP8 SWAP7 POP POP POP POP POP POP POP JUMP JUMPDEST PUSH1 0x0 PUSH4 0x5F5E100 DUP4 PUSH1 0x40 ADD MLOAD EQ ISZERO PUSH2 0x1E13 JUMPI POP DUP1 PUSH2 0xEDB JUMP JUMPDEST PUSH1 0x40 DUP4 ADD MLOAD PUSH2 0xAA3 SWAP1 PUSH2 0xF79 DUP5 PUSH4 0x5F5E100 PUSH2 0x1A5E JUMP JUMPDEST PUSH1 0x0 DUP2 PUSH2 0x1E39 JUMPI POP PUSH1 0x0 PUSH2 0xEDB JUMP JUMPDEST PUSH1 0x0 DUP3 SGT PUSH2 0x1E46 JUMPI PUSH1 0x0 DUP1 REVERT JUMPDEST PUSH1 0x0 PUSH2 0x1E51 DUP5 PUSH2 0xF3B JUMP JUMPDEST SWAP1 POP PUSH1 0x0 PUSH2 0x1E62 DUP3 PUSH1 0x0 ADD MLOAD PUSH2 0x30F3 JUMP JUMPDEST SWAP1 POP PUSH1 0x2 DUP2 SDIV PUSH12 0x33B2E3C9FD0803CE8000000 PUSH1 0x1 PUSH1 0x1 PUSH1 0xFF SHL SUB DUP3 SWAP1 SUB SDIV DUP6 SGT ISZERO PUSH2 0x1E8D JUMPI PUSH1 0x0 DUP1 REVERT JUMPDEST DUP2 DUP2 PUSH12 0x33B2E3C9FD0803CE8000000 DUP8 MUL ADD DUP2 PUSH2 0x1EA6 JUMPI INVALID JUMPDEST SDIV SWAP7 SWAP6 POP POP POP POP POP POP JUMP JUMPDEST PUSH1 0x0 DUP1 PUSH1 0x0 PUSH2 0x1EC7 DUP7 PUSH1 0x0 ADD MLOAD PUSH2 0xFFFF AND PUSH2 0x10A4 JUMP JUMPDEST SWAP1 POP PUSH1 0x0 PUSH2 0x1EE2 DUP8 PUSH1 0x80 ADD MLOAD DUP4 PUSH2 0xF87 SWAP1 SWAP2 SWAP1 PUSH4 0xFFFFFFFF AND JUMP JUMPDEST SWAP1 POP DUP1 PUSH2 0x1EF7 JUMPI PUSH1 0x0 DUP1 SWAP4 POP SWAP4 POP POP POP PUSH2 0x1F5F JUMP JUMPDEST DUP5 DUP1 ISZERO PUSH2 0x1F04 JUMPI POP PUSH1 0x0 DUP2 SLT JUMPDEST ISZERO PUSH2 0x1F39 JUMPI DUP7 MLOAD PUSH2 0x1F26 SWAP1 PUSH2 0xFFFF AND DUP8 PUSH2 0x1F1D DUP5 PUSH2 0xEE1 JUMP JUMPDEST DUP6 SWAP3 SWAP2 SWAP1 PUSH2 0x317E JUMP JUMPDEST SWAP4 POP PUSH2 0x1F32 DUP3 DUP3 PUSH2 0x1DFA JUMP JUMPDEST SWAP3 POP PUSH2 0x1F5C JUMP JUMPDEST DUP7 MLOAD PUSH2 0x1F4D SWAP1 DUP4 SWAP1 DUP9 SWAP1 PUSH2 0xFFFF AND DUP5 PUSH2 0x1C4E JUMP JUMPDEST SWAP4 POP PUSH2 0x1F59 DUP3 DUP6 PUSH2 0x1DFA JUMP JUMPDEST SWAP3 POP JUMPDEST POP POP JUMPDEST SWAP4 POP SWAP4 SWAP2 POP POP JUMP JUMPDEST DUP3 MLOAD PUSH1 0x0 SWAP1 TIMESTAMP SWAP1 DUP3 SWAP1 PUSH2 0x1F7D SWAP1 PUSH2 0xFFFF AND PUSH2 0x3214 JUMP JUMPDEST SWAP1 POP PUSH1 0x0 PUSH2 0x1F90 DUP3 DUP9 PUSH1 0xC0 ADD MLOAD DUP6 PUSH2 0x323A JUMP JUMPDEST SWAP1 POP PUSH2 0x1F9E DUP8 DUP4 DUP4 DUP9 PUSH2 0x331D JUMP JUMPDEST SWAP4 POP PUSH1 0x0 PUSH2 0x1FAB DUP4 PUSH2 0x344A JUMP JUMPDEST SWAP1 POP PUSH1 0x1 PUSH1 0x1 PUSH1 0xA0 SHL SUB DUP2 AND ISZERO PUSH2 0x2033 JUMPI DUP1 PUSH1 0x1 PUSH1 0x1 PUSH1 0xA0 SHL SUB AND PUSH4 0x9FC27B92 DUP9 PUSH2 0x1FD9 DUP12 PUSH1 0x40 ADD MLOAD PUSH2 0x1CF6 JUMP JUMPDEST DUP10 DUP13 PUSH1 0xC0 ADD MLOAD DUP11 PUSH1 0x40 MLOAD DUP7 PUSH4 0xFFFFFFFF AND PUSH1 0xE0 SHL DUP2 MSTORE PUSH1 0x4 ADD PUSH2 0x2000 SWAP6 SWAP5 SWAP4 SWAP3 SWAP2 SWAP1 PUSH2 0x4857 JUMP JUMPDEST PUSH1 0x0 PUSH1 0x40 MLOAD DUP1 DUP4 SUB DUP2 PUSH1 0x0 DUP8 DUP1 EXTCODESIZE ISZERO DUP1 ISZERO PUSH2 0x201A JUMPI PUSH1 0x0 DUP1 REVERT JUMPDEST POP GAS CALL ISZERO DUP1 ISZERO PUSH2 0x202E JUMPI RETURNDATASIZE PUSH1 0x0 DUP1 RETURNDATACOPY RETURNDATASIZE PUSH1 0x0 REVERT JUMPDEST POP POP POP POP JUMPDEST DUP5 ISZERO PUSH2 0x2043 JUMPI PUSH2 0x2043 DUP8 DUP7 PUSH2 0x34BC JUMP JUMPDEST POP POP POP POP SWAP4 SWAP3 POP POP POP JUMP JUMPDEST PUSH1 0x0 PUSH2 0x2058 PUSH2 0x2B98 JUMP JUMPDEST PUSH1 0x1 PUSH1 0x1 PUSH1 0xA0 SHL SUB DUP9 AND PUSH1 0x0 SWAP1 DUP2 MSTORE PUSH1 0x20 DUP3 DUP2 MSTORE PUSH1 0x40 DUP1 DUP4 KECCAK256 DUP11 DUP5 MSTORE SWAP1 SWAP2 MSTORE SWAP1 KECCAK256 SWAP1 SWAP2 POP PUSH11 0x7FFFFFFFFFFFFFFFFFFFFF NOT DUP7 SLT DUP1 ISZERO SWAP1 PUSH2 0x20A3 JUMPI POP PUSH11 0x7FFFFFFFFFFFFFFFFFFFFF DUP7 SGT ISZERO JUMPDEST PUSH2 0x20AC JUMPI PUSH1 0x0 DUP1 REVERT JUMPDEST PUSH1 0x0 DUP6 SLT ISZERO DUP1 ISZERO PUSH2 0x20C7 JUMPI POP PUSH10 0xFFFFFFFFFFFFFFFFFFFF DUP6 SGT ISZERO JUMPDEST PUSH2 0x20D0 JUMPI PUSH1 0x0 DUP1 REVERT JUMPDEST DUP4 ISZERO PUSH2 0x20DB JUMPI PUSH1 0x0 DUP1 REVERT JUMPDEST PUSH7 0xFFFFFFFFFFFFFF DUP4 GT ISZERO PUSH2 0x20EF JUMPI PUSH1 0x0 DUP1 REVERT JUMPDEST DUP1 SLOAD PUSH7 0xFFFFFFFFFFFFFF SWAP1 SWAP4 AND PUSH1 0x1 PUSH1 0x70 SHL MUL PUSH7 0xFFFFFFFFFFFFFF PUSH1 0x70 SHL NOT PUSH1 0xA SWAP8 SWAP1 SWAP8 SIGNEXTEND PUSH11 0xFFFFFFFFFFFFFFFFFFFFFF AND PUSH1 0x1 PUSH1 0xA8 SHL MUL PUSH1 0x1 PUSH1 0x1 PUSH1 0xA8 SHL SUB PUSH4 0xFFFFFFFF SWAP1 SWAP7 AND PUSH1 0x1 PUSH1 0x50 SHL MUL PUSH4 0xFFFFFFFF PUSH1 0x50 SHL NOT PUSH10 0xFFFFFFFFFFFFFFFFFFFF SWAP1 SWAP9 AND PUSH10 0xFFFFFFFFFFFFFFFFFFFF NOT SWAP1 SWAP7 AND SWAP6 SWAP1 SWAP6 OR SWAP7 SWAP1 SWAP7 AND SWAP4 SWAP1 SWAP4 OR SWAP4 SWAP1 SWAP4 AND SWAP4 SWAP1 SWAP4 OR SWAP4 SWAP1 SWAP4 AND SWAP3 SWAP1 SWAP3 OR SWAP1 SWAP2 SSTORE POP POP POP JUMP JUMPDEST DUP3 PUSH1 0x0 LT DUP1 ISZERO PUSH2 0x2199 JUMPI POP PUSH2 0x3FFF DUP4 GT ISZERO JUMPDEST PUSH2 0x21A2 JUMPI PUSH1 0x0 DUP1 REVERT JUMPDEST DUP2 DUP1 ISZERO PUSH2 0x21B6 JUMPI POP DUP3 DUP5 PUSH1 0x60 ADD MLOAD PUSH2 0xFFFF AND EQ JUMPDEST ISZERO PUSH2 0x21C0 JUMPI PUSH2 0x16D2 JUMP JUMPDEST PUSH1 0x80 DUP5 ADD MLOAD PUSH1 0x0 SWAP1 DUP2 JUMPDEST PUSH1 0x1 PUSH1 0x1 PUSH1 0x70 SHL SUB NOT DUP3 AND ISZERO PUSH2 0x233B JUMPI PUSH1 0xF0 DUP3 SWAP1 SHR PUSH2 0x3FFF AND DUP7 DUP2 EQ DUP1 ISZERO PUSH2 0x21EF JUMPI POP DUP6 JUMPDEST ISZERO PUSH2 0x2227 JUMPI POP PUSH1 0x80 DUP8 ADD DUP1 MLOAD PUSH1 0x1 PUSH1 0x1 PUSH1 0xF0 SHL SUB NOT DUP7 AND PUSH1 0x10 SWAP1 SWAP4 MUL SWAP3 SWAP1 SWAP3 SHR SWAP2 SWAP1 SWAP2 OR PUSH1 0x1 PUSH1 0x1 PUSH1 0x70 SHL SUB NOT AND SWAP1 MSTORE POP PUSH2 0x16D2 SWAP1 POP JUMP JUMPDEST DUP7 DUP2 EQ DUP1 ISZERO PUSH2 0x2234 JUMPI POP DUP6 ISZERO JUMPDEST ISZERO PUSH2 0x2289 JUMPI PUSH1 0x1 PUSH1 0x1 PUSH1 0xF0 SHL SUB NOT DUP6 AND NOT SWAP3 SWAP1 SWAP3 AND SWAP2 PUSH1 0x3 PUSH1 0xFE SHL DUP4 AND PUSH2 0x2267 JUMPI PUSH1 0x10 DUP4 PUSH1 0x1 PUSH1 0x1 PUSH1 0x70 SHL SUB NOT AND SWAP1 SHL SWAP3 POP JUMPDEST POP PUSH1 0x1 PUSH1 0x1 PUSH1 0x70 SHL SUB NOT SWAP2 DUP3 AND PUSH1 0x10 SWAP1 SWAP2 MUL SHR SWAP2 SWAP1 SWAP2 OR AND PUSH1 0x80 DUP6 ADD MSTORE PUSH2 0x16D2 JUMP JUMPDEST DUP7 DUP2 GT DUP1 ISZERO PUSH2 0x2295 JUMPI POP DUP6 JUMPDEST ISZERO PUSH2 0x22EF JUMPI PUSH1 0x80 DUP9 DUP2 ADD MLOAD PUSH1 0x1 PUSH1 0x1 PUSH1 0xF0 SHL SUB NOT PUSH1 0xF0 DUP11 SWAP1 SHL DUP9 OR DUP2 AND PUSH1 0x10 DUP7 MUL SHR SWAP7 SWAP1 SWAP7 OR SWAP6 SWAP2 SHL AND ISZERO PUSH2 0x22C9 JUMPI PUSH1 0x0 DUP1 REVERT JUMPDEST POP PUSH1 0x1 PUSH1 0x1 PUSH1 0x70 SHL SUB NOT SWAP2 DUP3 AND PUSH1 0x1 SWAP2 SWAP1 SWAP2 ADD PUSH1 0x10 MUL SHR SWAP2 SWAP1 SWAP2 OR AND PUSH1 0x80 DUP6 ADD MSTORE PUSH2 0x16D2 JUMP JUMPDEST DUP7 DUP2 GT DUP1 ISZERO PUSH2 0x22FC JUMPI POP DUP6 ISZERO JUMPDEST ISZERO PUSH2 0x230A JUMPI POP POP POP POP PUSH2 0x16D2 JUMP JUMPDEST POP PUSH1 0x1 PUSH1 0x1 PUSH1 0xF0 SHL SUB NOT DUP3 AND PUSH1 0x10 DUP3 DUP2 MUL SWAP2 SWAP1 SWAP2 SHR SWAP4 SWAP1 SWAP4 OR SWAP3 SWAP2 SWAP1 SWAP2 SHL PUSH1 0x1 PUSH1 0x1 PUSH1 0x80 SHL SUB NOT AND SWAP1 PUSH1 0x1 ADD PUSH2 0x21CA JUMP JUMPDEST DUP5 PUSH2 0x2348 JUMPI POP POP POP PUSH2 0x16D2 JUMP JUMPDEST PUSH1 0x9 DUP2 LT PUSH2 0x2355 JUMPI PUSH1 0x0 DUP1 REVERT JUMPDEST PUSH1 0x1 PUSH1 0x1 PUSH1 0xF0 SHL SUB NOT PUSH1 0xF0 DUP8 SWAP1 SHL DUP6 OR AND PUSH1 0x10 SWAP1 SWAP2 MUL SHR SWAP2 SWAP1 SWAP2 OR PUSH1 0x1 PUSH1 0x1 PUSH1 0x70 SHL SUB NOT AND PUSH1 0x80 DUP7 ADD MSTORE POP POP POP POP POP JUMP JUMPDEST PUSH1 0x0 DUP1 DUP1 DUP1 DUP1 DUP1 DUP1 DUP1 JUMPDEST DUP10 MLOAD MLOAD DUP2 LT ISZERO PUSH2 0x2417 JUMPI PUSH1 0x0 DUP11 PUSH1 0x0 ADD MLOAD DUP3 DUP2 MLOAD DUP2 LT PUSH2 0x23AC JUMPI INVALID JUMPDEST PUSH1 0x20 MUL PUSH1 0x20 ADD ADD MLOAD SWAP1 POP PUSH1 0x3 DUP1 DUP2 GT ISZERO PUSH2 0x23C2 JUMPI INVALID JUMPDEST DUP2 PUSH1 0xA0 ADD MLOAD PUSH1 0x3 DUP2 GT ISZERO PUSH2 0x23D2 JUMPI INVALID JUMPDEST EQ ISZERO PUSH2 0x23DD JUMPI PUSH1 0x0 DUP1 REVERT JUMPDEST PUSH1 0x2 DUP2 PUSH1 0xA0 ADD MLOAD PUSH1 0x3 DUP2 GT ISZERO PUSH2 0x23EF JUMPI INVALID JUMPDEST EQ ISZERO DUP1 ISZERO PUSH2 0x23FF JUMPI POP PUSH1 0x60 DUP2 ADD MLOAD ISZERO JUMPDEST ISZERO PUSH2 0x240E JUMPI PUSH2 0x240E DUP12 DUP4 PUSH2 0x34DB JUMP JUMPDEST POP PUSH1 0x1 ADD PUSH2 0x2390 JUMP JUMPDEST POP PUSH1 0x0 JUMPDEST DUP10 MLOAD MLOAD DUP2 LT ISZERO PUSH2 0x24BA JUMPI PUSH1 0x0 DUP11 PUSH1 0x0 ADD MLOAD DUP3 DUP2 MLOAD DUP2 LT PUSH2 0x2437 JUMPI INVALID JUMPDEST PUSH1 0x20 MUL PUSH1 0x20 ADD ADD MLOAD SWAP1 POP PUSH1 0x2 PUSH1 0x3 DUP2 GT ISZERO PUSH2 0x244E JUMPI INVALID JUMPDEST DUP2 PUSH1 0xA0 ADD MLOAD PUSH1 0x3 DUP2 GT ISZERO PUSH2 0x245E JUMPI INVALID JUMPDEST EQ ISZERO PUSH2 0x2472 JUMPI PUSH1 0x80 DUP2 ADD MLOAD PUSH1 0x0 SWAP1 SSTORE PUSH2 0x24B1 JUMP JUMPDEST PUSH1 0x1 DUP2 PUSH1 0xA0 ADD MLOAD PUSH1 0x3 DUP2 GT ISZERO PUSH2 0x2484 JUMPI INVALID JUMPDEST EQ ISZERO PUSH2 0x249D JUMPI PUSH1 0x80 DUP2 ADD MLOAD DUP1 PUSH2 0x249A DUP4 DUP3 PUSH2 0x362A JUMP JUMPDEST POP POP JUMPDEST PUSH2 0x24A9 DUP2 DUP7 DUP7 DUP7 PUSH2 0x375B JUMP JUMPDEST SWAP2 SWAP7 POP SWAP5 POP SWAP3 POP JUMPDEST POP PUSH1 0x1 ADD PUSH2 0x241B JUMP JUMPDEST POP PUSH1 0x60 DUP10 ADD MLOAD PUSH1 0x0 PUSH2 0x24CA PUSH2 0x37BE JUMP JUMPDEST PUSH1 0x1 PUSH1 0x1 PUSH1 0xA0 SHL SUB DUP12 AND PUSH1 0x0 SWAP1 DUP2 MSTORE PUSH1 0x20 DUP3 SWAP1 MSTORE PUSH1 0x40 DUP2 KECCAK256 SWAP2 SWAP3 POP JUMPDEST DUP13 PUSH1 0x20 ADD MLOAD MLOAD DUP2 LT ISZERO PUSH2 0x2594 JUMPI PUSH1 0x0 DUP14 PUSH1 0x20 ADD MLOAD DUP3 DUP2 MLOAD DUP2 LT PUSH2 0x2505 JUMPI INVALID JUMPDEST PUSH1 0x20 MUL PUSH1 0x20 ADD ADD MLOAD SWAP1 POP DUP1 PUSH1 0x60 ADD MLOAD PUSH1 0x0 EQ ISZERO PUSH2 0x2522 JUMPI POP PUSH2 0x258C JUMP JUMPDEST PUSH1 0x2 DUP2 PUSH1 0xA0 ADD MLOAD PUSH1 0x3 DUP2 GT ISZERO PUSH2 0x2534 JUMPI INVALID JUMPDEST EQ ISZERO DUP1 ISZERO PUSH2 0x2552 JUMPI POP PUSH1 0x3 DUP2 PUSH1 0xA0 ADD MLOAD PUSH1 0x3 DUP2 GT ISZERO PUSH2 0x254F JUMPI INVALID JUMPDEST EQ ISZERO JUMPDEST PUSH2 0x255B JUMPI PUSH1 0x0 DUP1 REVERT JUMPDEST PUSH2 0x2567 DUP2 DUP10 DUP10 DUP10 PUSH2 0x375B JUMP JUMPDEST SWAP2 SWAP10 POP SWAP8 POP SWAP6 POP PUSH2 0x2584 DUP2 DUP5 DUP8 PUSH1 0x10 DUP2 LT PUSH2 0x257E JUMPI INVALID JUMPDEST ADD PUSH2 0x362A JUMP JUMPDEST PUSH1 0x1 DUP6 ADD SWAP5 POP POP JUMPDEST PUSH1 0x1 ADD PUSH2 0x24E6 JUMP JUMPDEST POP PUSH1 0x10 DUP4 GT ISZERO DUP1 ISZERO PUSH2 0x25AB JUMPI POP PUSH5 0xFFFFFFFFFF DUP5 GT ISZERO JUMPDEST PUSH2 0x25B4 JUMPI PUSH1 0x0 DUP1 REVERT JUMPDEST POP SWAP4 SWAP11 SWAP3 SWAP10 POP SWAP8 POP SWAP6 POP SWAP4 POP POP POP POP JUMP JUMPDEST PUSH1 0x0 DUP1 PUSH32 0x7FFF7FFF7FFF7FFF7FFF7FFF7FFF7FFF7FFF0000000000000000000000000000 DUP4 AND DUP2 JUMPDEST PUSH1 0x1 PUSH1 0x1 PUSH1 0x70 SHL SUB NOT DUP3 AND ISZERO PUSH2 0x2637 JUMPI PUSH1 0x1 PUSH1 0xFE SHL DUP3 DUP2 AND EQ ISZERO PUSH2 0x2621 JUMPI PUSH1 0x1 PUSH1 0x1 PUSH1 0xF0 SHL SUB NOT DUP3 AND DUP2 SHR SWAP3 SWAP1 SWAP3 OR SWAP2 PUSH1 0x10 ADD JUMPDEST PUSH1 0x10 DUP3 PUSH1 0x1 PUSH1 0x1 PUSH1 0x70 SHL SUB NOT AND SWAP1 SHL SWAP2 POP PUSH2 0x25ED JUMP JUMPDEST POP SWAP1 SWAP4 SWAP3 POP POP POP JUMP JUMPDEST PUSH1 0x0 DUP1 PUSH2 0xEDB PUSH1 0x1 PUSH2 0x37C7 JUMP JUMPDEST PUSH1 0x0 PUSH1 0x1 PUSH1 0x1 PUSH1 0xFF SHL SUB DUP3 GT ISZERO PUSH2 0x1D05 JUMPI PUSH1 0x0 DUP1 REVERT JUMPDEST PUSH1 0x3 DUP4 PUSH1 0x6 DUP2 GT ISZERO PUSH2 0x2671 JUMPI INVALID JUMPDEST EQ DUP1 PUSH2 0x2688 JUMPI POP PUSH1 0x4 DUP4 PUSH1 0x6 DUP2 GT ISZERO PUSH2 0x2686 JUMPI INVALID JUMPDEST EQ JUMPDEST DUP1 PUSH2 0x269E JUMPI POP PUSH1 0x6 DUP4 PUSH1 0x6 DUP2 GT ISZERO PUSH2 0x269C JUMPI INVALID JUMPDEST EQ JUMPDEST ISZERO PUSH2 0x276A JUMPI PUSH2 0x26AD DUP5 DUP3 PUSH2 0x17BE JUMP JUMPDEST PUSH1 0x60 DUP5 ADD MLOAD PUSH2 0x26BC SWAP1 DUP3 PUSH2 0x287E JUMP JUMPDEST PUSH1 0x60 DUP6 ADD MSTORE DUP4 MLOAD PUSH1 0x40 MLOAD PUSH4 0x21285613 PUSH1 0xE1 SHL DUP2 MSTORE PUSH1 0x0 SWAP2 PUSH20 0x0 SWAP2 PUSH4 0x4250AC26 SWAP2 PUSH2 0x26FD SWAP2 DUP7 SWAP1 PUSH1 0x4 ADD PUSH2 0x4AC3 JUMP JUMPDEST PUSH1 0x20 PUSH1 0x40 MLOAD DUP1 DUP4 SUB DUP2 DUP7 DUP1 EXTCODESIZE ISZERO DUP1 ISZERO PUSH2 0x2715 JUMPI PUSH1 0x0 DUP1 REVERT JUMPDEST POP GAS DELEGATECALL ISZERO DUP1 ISZERO PUSH2 0x2729 JUMPI RETURNDATASIZE PUSH1 0x0 DUP1 RETURNDATACOPY RETURNDATASIZE PUSH1 0x0 REVERT JUMPDEST POP POP POP POP PUSH1 0x40 MLOAD RETURNDATASIZE PUSH1 0x1F NOT PUSH1 0x1F DUP3 ADD AND DUP3 ADD DUP1 PUSH1 0x40 MSTORE POP DUP2 ADD SWAP1 PUSH2 0x274D SWAP2 SWAP1 PUSH2 0x43D8 JUMP JUMPDEST PUSH1 0xC0 DUP7 ADD MLOAD SWAP1 SWAP2 POP PUSH2 0x275F SWAP1 DUP3 PUSH2 0xEC5 JUMP JUMPDEST PUSH1 0xC0 DUP7 ADD MSTORE POP PUSH2 0x16D2 JUMP JUMPDEST PUSH1 0x5 DUP4 PUSH1 0x6 DUP2 GT ISZERO PUSH2 0x2778 JUMPI INVALID JUMPDEST EQ ISZERO PUSH2 0x16D2 JUMPI DUP2 PUSH2 0x27A2 DUP6 PUSH1 0xC0 ADD MLOAD PUSH2 0x11C6 DUP8 PUSH1 0xA0 ADD MLOAD DUP9 PUSH1 0x40 ADD MLOAD PUSH2 0xEC5 SWAP1 SWAP2 SWAP1 PUSH4 0xFFFFFFFF AND JUMP JUMPDEST SLT ISZERO PUSH2 0x27C0 JUMPI PUSH1 0x40 MLOAD PUSH3 0x461BCD PUSH1 0xE5 SHL DUP2 MSTORE PUSH1 0x4 ADD PUSH2 0x17A SWAP1 PUSH2 0x498E JUMP JUMPDEST PUSH1 0xC0 DUP5 ADD MLOAD PUSH2 0x27CF SWAP1 DUP4 PUSH2 0x287E JUMP JUMPDEST PUSH1 0xC0 DUP6 ADD MSTORE DUP4 MLOAD PUSH1 0x40 MLOAD PUSH4 0x52E73F77 PUSH1 0xE0 SHL DUP2 MSTORE PUSH1 0x0 SWAP2 PUSH20 0x0 SWAP2 PUSH4 0x52E73F77 SWAP2 PUSH2 0x2810 SWAP2 DUP8 SWAP1 PUSH1 0x4 ADD PUSH2 0x4AC3 JUMP JUMPDEST PUSH1 0x20 PUSH1 0x40 MLOAD DUP1 DUP4 SUB DUP2 DUP7 DUP1 EXTCODESIZE ISZERO DUP1 ISZERO PUSH2 0x2828 JUMPI PUSH1 0x0 DUP1 REVERT JUMPDEST POP GAS DELEGATECALL ISZERO DUP1 ISZERO PUSH2 0x283C JUMPI RETURNDATASIZE PUSH1 0x0 DUP1 RETURNDATACOPY RETURNDATASIZE PUSH1 0x0 REVERT JUMPDEST POP POP POP POP PUSH1 0x40 MLOAD RETURNDATASIZE PUSH1 0x1F NOT PUSH1 0x1F DUP3 ADD AND DUP3 ADD DUP1 PUSH1 0x40 MSTORE POP DUP2 ADD SWAP1 PUSH2 0x2860 SWAP2 SWAP1 PUSH2 0x43D8 JUMP JUMPDEST PUSH1 0x60 DUP7 ADD MLOAD SWAP1 SWAP2 POP PUSH2 0x2872 SWAP1 DUP3 PUSH2 0xEC5 JUMP JUMPDEST PUSH1 0x60 DUP7 ADD MSTORE POP POP POP POP POP JUMP JUMPDEST DUP1 DUP3 SUB DUP3 DUP2 SGT ISZERO PUSH1 0x0 DUP4 SLT ISZERO EQ PUSH2 0xEDB JUMPI PUSH1 0x0 DUP1 REVERT JUMPDEST PUSH1 0x0 DUP1 PUSH2 0xEDB PUSH1 0x2 PUSH2 0x37C7 JUMP JUMPDEST PUSH1 0x0 PUSH3 0x15180 DUP3 LT ISZERO PUSH2 0x28B3 JUMPI PUSH1 0x0 DUP1 REVERT JUMPDEST POP PUSH3 0x15180 DUP2 MOD SWAP1 SUB SWAP1 JUMP JUMPDEST PUSH1 0x60 PUSH1 0x10 DUP3 PUSH1 0xFF AND GT ISZERO PUSH2 0x28D2 JUMPI PUSH1 0x0 DUP1 REVERT JUMPDEST PUSH1 0x0 PUSH2 0x28DC PUSH2 0x37BE JUMP JUMPDEST PUSH1 0x1 PUSH1 0x1 PUSH1 0xA0 SHL SUB DUP6 AND PUSH1 0x0 SWAP1 DUP2 MSTORE PUSH1 0x20 DUP3 SWAP1 MSTORE PUSH1 0x40 DUP2 KECCAK256 SWAP2 SWAP3 POP PUSH1 0xFF DUP6 AND PUSH1 0x1 PUSH1 0x1 PUSH1 0x40 SHL SUB DUP2 GT DUP1 ISZERO PUSH2 0x2910 JUMPI PUSH1 0x0 DUP1 REVERT JUMPDEST POP PUSH1 0x40 MLOAD SWAP1 DUP1 DUP3 MSTORE DUP1 PUSH1 0x20 MUL PUSH1 0x20 ADD DUP3 ADD PUSH1 0x40 MSTORE DUP1 ISZERO PUSH2 0x294A JUMPI DUP2 PUSH1 0x20 ADD JUMPDEST PUSH2 0x2937 PUSH2 0x3FB8 JUMP JUMPDEST DUP2 MSTORE PUSH1 0x20 ADD SWAP1 PUSH1 0x1 SWAP1 SUB SWAP1 DUP2 PUSH2 0x292F JUMPI SWAP1 POP JUMPDEST POP SWAP1 POP PUSH1 0x0 JUMPDEST DUP6 PUSH1 0xFF AND DUP2 LT ISZERO PUSH2 0x29D6 JUMPI PUSH1 0x0 DUP4 DUP3 PUSH1 0x10 DUP2 LT PUSH2 0x2969 JUMPI INVALID JUMPDEST ADD SWAP1 POP PUSH1 0x0 DUP4 DUP4 DUP2 MLOAD DUP2 LT PUSH2 0x297A JUMPI INVALID JUMPDEST PUSH1 0x20 SWAP1 DUP2 MUL SWAP2 SWAP1 SWAP2 ADD DUP2 ADD MLOAD DUP4 SLOAD PUSH2 0xFFFF DUP2 AND DUP3 MSTORE PUSH5 0xFFFFFFFFFF PUSH3 0x10000 DUP3 DIV AND SWAP3 DUP3 ADD SWAP3 SWAP1 SWAP3 MSTORE PUSH1 0xFF PUSH1 0x1 PUSH1 0x38 SHL DUP4 DIV AND PUSH1 0x40 DUP3 ADD MSTORE PUSH1 0x1 PUSH1 0x40 SHL SWAP1 SWAP2 DIV PUSH1 0xA SWAP1 DUP2 SIGNEXTEND SWAP1 SIGNEXTEND PUSH1 0x60 DUP3 ADD MSTORE PUSH1 0x80 ADD SWAP2 SWAP1 SWAP2 MSTORE POP PUSH1 0x1 ADD PUSH2 0x2950 JUMP JUMPDEST POP SWAP6 SWAP5 POP POP POP POP POP JUMP JUMPDEST DUP1 MLOAD PUSH1 0x0 DUP2 PUSH1 0x1 PUSH1 0x1 PUSH1 0x40 SHL SUB DUP2 GT DUP1 ISZERO PUSH2 0x29FA JUMPI PUSH1 0x0 DUP1 REVERT JUMPDEST POP PUSH1 0x40 MLOAD SWAP1 DUP1 DUP3 MSTORE DUP1 PUSH1 0x20 MUL PUSH1 0x20 ADD DUP3 ADD PUSH1 0x40 MSTORE DUP1 ISZERO PUSH2 0x2A24 JUMPI DUP2 PUSH1 0x20 ADD PUSH1 0x20 DUP3 MUL DUP1 CALLDATASIZE DUP4 CALLDATACOPY ADD SWAP1 POP JUMPDEST POP SWAP1 POP PUSH1 0x0 JUMPDEST DUP3 DUP2 LT ISZERO PUSH2 0x2A81 JUMPI PUSH1 0x0 DUP5 DUP3 DUP2 MLOAD DUP2 LT PUSH2 0x2A40 JUMPI INVALID JUMPDEST PUSH1 0x20 MUL PUSH1 0x20 ADD ADD MLOAD SWAP1 POP PUSH2 0x2A61 DUP2 PUSH1 0x0 ADD MLOAD DUP3 PUSH1 0x20 ADD MLOAD DUP4 PUSH1 0x40 ADD MLOAD PUSH2 0x37E0 JUMP JUMPDEST DUP4 DUP4 DUP2 MLOAD DUP2 LT PUSH2 0x2A6D JUMPI INVALID JUMPDEST PUSH1 0x20 SWAP1 DUP2 MUL SWAP2 SWAP1 SWAP2 ADD ADD MSTORE POP PUSH1 0x1 ADD PUSH2 0x2A2A JUMP JUMPDEST POP PUSH1 0x1 JUMPDEST DUP3 DUP2 LT ISZERO PUSH2 0x16D2 JUMPI DUP1 JUMPDEST PUSH1 0x0 DUP2 GT DUP1 ISZERO PUSH2 0x2AC7 JUMPI POP DUP3 DUP2 DUP2 MLOAD DUP2 LT PUSH2 0x2AA6 JUMPI INVALID JUMPDEST PUSH1 0x20 MUL PUSH1 0x20 ADD ADD MLOAD DUP4 PUSH1 0x1 DUP4 SUB DUP2 MLOAD DUP2 LT PUSH2 0x2ABD JUMPI INVALID JUMPDEST PUSH1 0x20 MUL PUSH1 0x20 ADD ADD MLOAD GT JUMPDEST ISZERO PUSH2 0x2B8F JUMPI DUP3 DUP2 DUP2 MLOAD DUP2 LT PUSH2 0x2AD8 JUMPI INVALID JUMPDEST PUSH1 0x20 MUL PUSH1 0x20 ADD ADD MLOAD DUP4 PUSH1 0x1 DUP4 SUB DUP2 MLOAD DUP2 LT PUSH2 0x2AEF JUMPI INVALID JUMPDEST PUSH1 0x20 MUL PUSH1 0x20 ADD ADD MLOAD DUP5 PUSH1 0x1 DUP5 SUB DUP2 MLOAD DUP2 LT PUSH2 0x2B06 JUMPI INVALID JUMPDEST PUSH1 0x20 MUL PUSH1 0x20 ADD ADD DUP6 DUP5 DUP2 MLOAD DUP2 LT PUSH2 0x2B19 JUMPI INVALID JUMPDEST PUSH1 0x20 MUL PUSH1 0x20 ADD ADD DUP3 DUP2 MSTORE POP DUP3 DUP2 MSTORE POP POP POP DUP5 DUP2 DUP2 MLOAD DUP2 LT PUSH2 0x2B36 JUMPI INVALID JUMPDEST PUSH1 0x20 MUL PUSH1 0x20 ADD ADD MLOAD DUP6 PUSH1 0x1 DUP4 SUB DUP2 MLOAD DUP2 LT PUSH2 0x2B4D JUMPI INVALID JUMPDEST PUSH1 0x20 MUL PUSH1 0x20 ADD ADD MLOAD DUP7 PUSH1 0x1 DUP5 SUB DUP2 MLOAD DUP2 LT PUSH2 0x2B64 JUMPI INVALID JUMPDEST PUSH1 0x20 MUL PUSH1 0x20 ADD ADD DUP8 DUP5 DUP2 MLOAD DUP2 LT PUSH2 0x2B77 JUMPI INVALID JUMPDEST PUSH1 0x20 SWAP1 DUP2 MUL SWAP2 SWAP1 SWAP2 ADD ADD SWAP2 SWAP1 SWAP2 MSTORE MSTORE PUSH1 0x0 NOT ADD PUSH2 0x2A8F JUMP JUMPDEST POP PUSH1 0x1 ADD PUSH2 0x2A85 JUMP JUMPDEST PUSH1 0x0 DUP1 PUSH2 0xEDB PUSH1 0x6 PUSH2 0x37C7 JUMP JUMPDEST PUSH1 0x8 DUP2 SWAP1 SHR PUSH1 0xFF SWAP1 SWAP2 AND SHL SWAP1 JUMP JUMPDEST PUSH1 0x0 DUP1 PUSH1 0x0 PUSH2 0x2BC0 PUSH2 0x383B JUMP JUMPDEST PUSH1 0x0 SWAP5 DUP6 MSTORE PUSH1 0x20 MSTORE POP POP PUSH1 0x40 SWAP1 SWAP2 KECCAK256 SLOAD PUSH1 0x1 PUSH1 0x1 PUSH1 0xA0 SHL SUB DUP2 AND SWAP3 PUSH1 0x1 PUSH1 0xA0 SHL SWAP1 SWAP2 DIV PUSH1 0xFF AND SWAP2 POP JUMP JUMPDEST PUSH1 0x0 DUP1 PUSH2 0xEDB PUSH1 0x7 PUSH2 0x37C7 JUMP JUMPDEST PUSH1 0x0 DUP2 PUSH2 0x2C06 JUMPI POP PUSH1 0x0 PUSH2 0xEDB JUMP JUMPDEST PUSH1 0x0 PUSH2 0x2C11 DUP5 PUSH2 0x30F3 JUMP JUMPDEST SWAP1 POP PUSH1 0x0 PUSH2 0x2C1E DUP5 PUSH2 0x3848 JUMP JUMPDEST SWAP1 POP DUP2 PUSH12 0x19D971E4FE8401E74000001 PUSH1 0x1 PUSH1 0xFF SHL SUB DUP2 PUSH2 0x2C3B JUMPI INVALID JUMPDEST SDIV DUP2 SGT ISZERO PUSH2 0x2C48 JUMPI PUSH1 0x0 DUP1 REVERT JUMPDEST PUSH12 0x33B2E3C9FD0803CE8000000 PUSH12 0x19D971E4FE8401E74000000 DUP4 DUP4 MUL ADD SDIV PUSH1 0x0 DUP6 SGT PUSH2 0x2C7D JUMPI PUSH2 0x2C78 DUP2 PUSH2 0xEE1 JUMP JUMPDEST PUSH2 0x2C7F JUMP JUMPDEST DUP1 JUMPDEST SWAP7 SWAP6 POP POP POP POP POP POP JUMP JUMPDEST PUSH1 0x0 DUP1 DUP1 DUP1 PUSH1 0x5 DUP8 PUSH1 0x60 ADD MLOAD PUSH1 0x5 DUP2 GT ISZERO PUSH2 0x2CA0 JUMPI INVALID JUMPDEST EQ PUSH2 0x2CB2 JUMPI PUSH4 0x70A08231 PUSH1 0xE0 SHL PUSH2 0x2CBB JUMP JUMPDEST PUSH4 0xED1279F PUSH1 0xE1 SHL JUMPDEST SWAP1 POP DUP7 PUSH1 0x20 ADD MLOAD ISZERO PUSH2 0x2CD7 JUMPI DUP7 MLOAD PUSH2 0x2CD4 SWAP1 ADDRESS DUP4 PUSH2 0x2E2E JUMP JUMPDEST SWAP3 POP JUMPDEST DUP7 MLOAD PUSH2 0x2CE4 SWAP1 DUP8 DUP8 PUSH2 0x3869 JUMP JUMPDEST DUP7 PUSH1 0x20 ADD MLOAD DUP1 PUSH2 0x2CF8 JUMPI POP PUSH1 0x0 DUP8 PUSH1 0x80 ADD MLOAD GT JUMPDEST ISZERO PUSH2 0x2D0D JUMPI DUP7 MLOAD PUSH2 0x2D0A SWAP1 ADDRESS DUP4 PUSH2 0x2E2E JUMP JUMPDEST SWAP2 POP JUMPDEST PUSH1 0x80 DUP8 ADD MLOAD ISZERO PUSH2 0x2D48 JUMPI PUSH1 0x0 PUSH2 0x2D2B DUP9 PUSH2 0x2D26 DUP6 PUSH2 0x264D JUMP JUMPDEST PUSH2 0x1DFA JUMP JUMPDEST SWAP1 POP PUSH2 0x2D3A DUP9 PUSH1 0x80 ADD MLOAD PUSH2 0x264D JUMP JUMPDEST DUP2 SGT ISZERO PUSH2 0x2D46 JUMPI PUSH1 0x0 DUP1 REVERT JUMPDEST POP JUMPDEST DUP7 PUSH1 0x20 ADD MLOAD ISZERO PUSH2 0x2D69 JUMPI PUSH2 0x2D5F PUSH2 0x1DEA DUP4 DUP6 PUSH2 0x3096 JUMP JUMPDEST SWAP4 POP POP POP POP PUSH2 0xAA3 JUMP JUMPDEST PUSH2 0x2D5F DUP6 PUSH2 0x264D JUMP JUMPDEST POP POP POP SWAP4 SWAP3 POP POP POP JUMP JUMPDEST PUSH1 0x40 MLOAD PUSH1 0x1 PUSH1 0x1 PUSH1 0xA0 SHL SUB DUP4 AND SWAP1 DUP3 ISZERO PUSH2 0x8FC MUL SWAP1 DUP4 SWAP1 PUSH1 0x0 DUP2 DUP2 DUP2 DUP6 DUP9 DUP9 CALL SWAP4 POP POP POP POP ISZERO DUP1 ISZERO PUSH2 0x2DB2 JUMPI RETURNDATASIZE PUSH1 0x0 DUP1 RETURNDATACOPY RETURNDATASIZE PUSH1 0x0 REVERT JUMPDEST POP POP POP JUMP JUMPDEST DUP3 PUSH1 0x1 PUSH1 0x1 PUSH1 0xA0 SHL SUB AND PUSH4 0xA9059CBB DUP4 DUP4 PUSH1 0x40 MLOAD DUP4 PUSH4 0xFFFFFFFF AND PUSH1 0xE0 SHL DUP2 MSTORE PUSH1 0x4 ADD DUP1 DUP4 PUSH1 0x1 PUSH1 0x1 PUSH1 0xA0 SHL SUB AND DUP2 MSTORE PUSH1 0x20 ADD DUP3 DUP2 MSTORE PUSH1 0x20 ADD SWAP3 POP POP POP PUSH1 0x0 PUSH1 0x40 MLOAD DUP1 DUP4 SUB DUP2 PUSH1 0x0 DUP8 DUP1 EXTCODESIZE ISZERO DUP1 ISZERO PUSH2 0x2E0E JUMPI PUSH1 0x0 DUP1 REVERT JUMPDEST POP GAS CALL ISZERO DUP1 ISZERO PUSH2 0x2E22 JUMPI RETURNDATASIZE PUSH1 0x0 DUP1 RETURNDATACOPY RETURNDATASIZE PUSH1 0x0 REVERT JUMPDEST POP POP POP POP PUSH2 0x2DB2 PUSH2 0x38C1 JUMP JUMPDEST PUSH1 0x40 DUP1 MLOAD PUSH1 0x1 PUSH1 0x1 PUSH1 0xA0 SHL SUB DUP5 DUP2 AND PUSH1 0x24 DUP1 DUP5 ADD SWAP2 SWAP1 SWAP2 MSTORE DUP4 MLOAD DUP1 DUP5 SUB SWAP1 SWAP2 ADD DUP2 MSTORE PUSH1 0x44 SWAP1 SWAP3 ADD DUP4 MSTORE PUSH1 0x20 DUP3 ADD DUP1 MLOAD PUSH1 0x1 PUSH1 0x1 PUSH1 0xE0 SHL SUB AND PUSH1 0x1 PUSH1 0x1 PUSH1 0xE0 SHL SUB NOT DUP7 AND OR DUP2 MSTORE SWAP3 MLOAD DUP3 MLOAD PUSH1 0x0 SWAP5 DUP6 SWAP5 DUP6 SWAP5 DUP11 AND SWAP4 SWAP1 SWAP3 SWAP1 SWAP2 DUP3 SWAP2 DUP1 DUP4 DUP4 JUMPDEST PUSH1 0x20 DUP4 LT PUSH2 0x2EAB JUMPI DUP1 MLOAD DUP3 MSTORE PUSH1 0x1F NOT SWAP1 SWAP3 ADD SWAP2 PUSH1 0x20 SWAP2 DUP3 ADD SWAP2 ADD PUSH2 0x2E8C JUMP JUMPDEST PUSH1 0x1 DUP4 PUSH1 0x20 SUB PUSH2 0x100 EXP SUB DUP1 NOT DUP3 MLOAD AND DUP2 DUP5 MLOAD AND DUP1 DUP3 OR DUP6 MSTORE POP POP POP POP POP POP SWAP1 POP ADD SWAP2 POP POP PUSH1 0x0 PUSH1 0x40 MLOAD DUP1 DUP4 SUB DUP2 DUP6 GAS STATICCALL SWAP2 POP POP RETURNDATASIZE DUP1 PUSH1 0x0 DUP2 EQ PUSH2 0x2F0B JUMPI PUSH1 0x40 MLOAD SWAP2 POP PUSH1 0x1F NOT PUSH1 0x3F RETURNDATASIZE ADD AND DUP3 ADD PUSH1 0x40 MSTORE RETURNDATASIZE DUP3 MSTORE RETURNDATASIZE PUSH1 0x0 PUSH1 0x20 DUP5 ADD RETURNDATACOPY PUSH2 0x2F10 JUMP JUMPDEST PUSH1 0x60 SWAP2 POP JUMPDEST POP SWAP2 POP SWAP2 POP DUP2 PUSH2 0x2F1F JUMPI PUSH1 0x0 DUP1 REVERT JUMPDEST DUP1 DUP1 PUSH1 0x20 ADD SWAP1 MLOAD PUSH1 0x20 DUP2 LT ISZERO PUSH2 0x2F34 JUMPI PUSH1 0x0 DUP1 REVERT JUMPDEST POP MLOAD SWAP7 SWAP6 POP POP POP POP POP POP JUMP JUMPDEST PUSH2 0x2F48 PUSH2 0x392E JUMP JUMPDEST SLOAD DUP3 MLOAD PUSH1 0x40 MLOAD PUSH4 0xE8EDA9DF PUSH1 0xE0 SHL DUP2 MSTORE PUSH1 0x1 PUSH1 0x1 PUSH1 0xA0 SHL SUB SWAP1 SWAP3 AND SWAP2 PUSH4 0xE8EDA9DF SWAP2 PUSH2 0x2F7D SWAP2 DUP6 SWAP1 ADDRESS SWAP1 PUSH1 0x0 SWAP1 PUSH1 0x4 ADD PUSH2 0x482A JUMP JUMPDEST PUSH1 0x0 PUSH1 0x40 MLOAD DUP1 DUP4 SUB DUP2 PUSH1 0x0 DUP8 DUP1 EXTCODESIZE ISZERO DUP1 ISZERO PUSH2 0x2F97 JUMPI PUSH1 0x0 DUP1 REVERT JUMPDEST POP GAS CALL ISZERO DUP1 ISZERO PUSH2 0x666 JUMPI RETURNDATASIZE PUSH1 0x0 DUP1 RETURNDATACOPY RETURNDATASIZE PUSH1 0x0 REVERT JUMPDEST PUSH1 0x0 DUP1 DUP4 PUSH1 0x0 ADD MLOAD PUSH1 0x1 PUSH1 0x1 PUSH1 0xA0 SHL SUB AND PUSH4 0xA0712D68 DUP5 PUSH1 0x40 MLOAD DUP3 PUSH4 0xFFFFFFFF AND PUSH1 0xE0 SHL DUP2 MSTORE PUSH1 0x4 ADD PUSH2 0x2FDE SWAP2 SWAP1 PUSH2 0x48AB JUMP JUMPDEST PUSH1 0x20 PUSH1 0x40 MLOAD DUP1 DUP4 SUB DUP2 PUSH1 0x0 DUP8 DUP1 EXTCODESIZE ISZERO DUP1 ISZERO PUSH2 0x2FF8 JUMPI PUSH1 0x0 DUP1 REVERT JUMPDEST POP GAS CALL ISZERO DUP1 ISZERO PUSH2 0x300C JUMPI RETURNDATASIZE PUSH1 0x0 DUP1 RETURNDATACOPY RETURNDATASIZE PUSH1 0x0 REVERT JUMPDEST POP POP POP POP PUSH1 0x40 MLOAD RETURNDATASIZE PUSH1 0x1F NOT PUSH1 0x1F DUP3 ADD AND DUP3 ADD DUP1 PUSH1 0x40 MSTORE POP DUP2 ADD SWAP1 PUSH2 0x3030 SWAP2 SWAP1 PUSH2 0x43D8 JUMP JUMPDEST SWAP1 POP DUP1 ISZERO PUSH2 0x3050 JUMPI PUSH1 0x40 MLOAD PUSH3 0x461BCD PUSH1 0xE5 SHL DUP2 MSTORE PUSH1 0x4 ADD PUSH2 0x17A SWAP1 PUSH2 0x48DA JUMP JUMPDEST POP SWAP3 SWAP2 POP POP JUMP JUMPDEST DUP1 PUSH1 0x0 ADD MLOAD PUSH1 0x1 PUSH1 0x1 PUSH1 0xA0 SHL SUB AND PUSH4 0x1249C58B CALLVALUE PUSH1 0x40 MLOAD DUP3 PUSH4 0xFFFFFFFF AND PUSH1 0xE0 SHL DUP2 MSTORE PUSH1 0x4 ADD PUSH1 0x0 PUSH1 0x40 MLOAD DUP1 DUP4 SUB DUP2 DUP6 DUP9 DUP1 EXTCODESIZE ISZERO DUP1 ISZERO PUSH2 0x2F97 JUMPI PUSH1 0x0 DUP1 REVERT JUMPDEST PUSH1 0x0 DUP3 DUP3 GT ISZERO PUSH2 0x30ED JUMPI PUSH1 0x40 DUP1 MLOAD PUSH3 0x461BCD PUSH1 0xE5 SHL DUP2 MSTORE PUSH1 0x20 PUSH1 0x4 DUP3 ADD MSTORE PUSH1 0x1E PUSH1 0x24 DUP3 ADD MSTORE PUSH32 0x536166654D6174683A207375627472616374696F6E206F766572666C6F770000 PUSH1 0x44 DUP3 ADD MSTORE SWAP1 MLOAD SWAP1 DUP2 SWAP1 SUB PUSH1 0x64 ADD SWAP1 REVERT JUMPDEST POP SWAP1 SUB SWAP1 JUMP JUMPDEST PUSH1 0x0 PUSH2 0xBDF PUSH2 0x3100 PUSH2 0x392E JUMP JUMPDEST SLOAD PUSH1 0x40 MLOAD PUSH4 0xD15E0053 PUSH1 0xE0 SHL DUP2 MSTORE PUSH1 0x1 PUSH1 0x1 PUSH1 0xA0 SHL SUB SWAP1 SWAP2 AND SWAP1 PUSH4 0xD15E0053 SWAP1 PUSH2 0x312E SWAP1 DUP7 SWAP1 PUSH1 0x4 ADD PUSH2 0x4641 JUMP JUMPDEST PUSH1 0x20 PUSH1 0x40 MLOAD DUP1 DUP4 SUB DUP2 DUP7 DUP1 EXTCODESIZE ISZERO DUP1 ISZERO PUSH2 0x3146 JUMPI PUSH1 0x0 DUP1 REVERT JUMPDEST POP GAS STATICCALL ISZERO DUP1 ISZERO PUSH2 0x315A JUMPI RETURNDATASIZE PUSH1 0x0 DUP1 RETURNDATACOPY RETURNDATASIZE PUSH1 0x0 REVERT JUMPDEST POP POP POP POP PUSH1 0x40 MLOAD RETURNDATASIZE PUSH1 0x1F NOT PUSH1 0x1F DUP3 ADD AND DUP3 ADD DUP1 PUSH1 0x40 MSTORE POP DUP2 ADD SWAP1 PUSH2 0x1DEA SWAP2 SWAP1 PUSH2 0x43D8 JUMP JUMPDEST PUSH1 0x0 DUP1 PUSH1 0x2 DUP7 PUSH1 0x60 ADD MLOAD PUSH1 0x5 DUP2 GT ISZERO PUSH2 0x3193 JUMPI INVALID JUMPDEST EQ ISZERO PUSH2 0x31AB JUMPI PUSH2 0x31A4 DUP7 DUP6 DUP6 PUSH2 0x393B JUMP JUMPDEST SWAP1 POP PUSH2 0x3208 JUMP JUMPDEST PUSH1 0x0 PUSH2 0x31B6 DUP7 PUSH2 0xF3B JUMP JUMPDEST SWAP1 POP PUSH1 0x5 DUP8 PUSH1 0x60 ADD MLOAD PUSH1 0x5 DUP2 GT ISZERO PUSH2 0x31CA JUMPI INVALID JUMPDEST EQ ISZERO PUSH2 0x31E2 JUMPI PUSH2 0x31DB DUP2 DUP7 DUP7 PUSH2 0x39F8 JUMP JUMPDEST SWAP2 POP PUSH2 0x3206 JUMP JUMPDEST PUSH1 0x1 DUP8 PUSH1 0x60 ADD MLOAD PUSH1 0x5 DUP2 GT ISZERO PUSH2 0x31F4 JUMPI INVALID JUMPDEST EQ ISZERO PUSH2 0x7B JUMPI PUSH2 0x31DB DUP8 DUP3 DUP8 DUP8 PUSH2 0x3AAE JUMP JUMPDEST POP JUMPDEST PUSH2 0x2C7F PUSH2 0x3EA DUP3 PUSH2 0x264D JUMP JUMPDEST PUSH1 0x0 DUP1 PUSH2 0x321F PUSH2 0x3BAC JUMP JUMPDEST PUSH1 0x0 SWAP4 DUP5 MSTORE PUSH1 0x20 MSTORE POP POP PUSH1 0x40 SWAP1 KECCAK256 SLOAD PUSH1 0x1 PUSH1 0x1 PUSH1 0xA0 SHL SUB AND SWAP1 JUMP JUMPDEST PUSH1 0x0 DUP1 PUSH1 0x0 PUSH2 0x3249 DUP7 DUP6 PUSH2 0x3BB9 JUMP JUMPDEST POP SWAP2 POP SWAP2 POP PUSH1 0x0 PUSH2 0x3258 PUSH2 0x3C4F JUMP JUMPDEST PUSH1 0x1 PUSH1 0x1 PUSH1 0xA0 SHL SUB DUP9 AND PUSH1 0x0 SWAP1 DUP2 MSTORE PUSH1 0x20 DUP3 SWAP1 MSTORE PUSH1 0x40 DUP2 KECCAK256 SWAP2 SWAP3 POP PUSH2 0x327D DUP6 DUP10 PUSH2 0xEC5 JUMP JUMPDEST SWAP1 POP DUP1 PUSH1 0x0 SGT ISZERO DUP1 ISZERO PUSH2 0x3296 JUMPI POP PUSH1 0x1 PUSH1 0x1 PUSH1 0x60 SHL SUB DUP2 LT JUMPDEST PUSH2 0x329F JUMPI PUSH1 0x0 DUP1 REVERT JUMPDEST DUP2 SLOAD PUSH12 0xFFFFFFFFFFFFFFFFFFFFFFFF NOT AND PUSH1 0x1 PUSH1 0x1 PUSH1 0x60 SHL SUB DUP3 AND OR PUSH16 0xFFFFFFFFFFFFFFFFFFFFFFFFFFFFFFFF PUSH1 0x60 SHL NOT AND PUSH1 0x1 PUSH1 0x60 SHL PUSH1 0x1 PUSH1 0x1 PUSH1 0x80 SHL SUB DUP7 AND MUL OR DUP3 SSTORE PUSH4 0xFFFFFFFF DUP8 LT PUSH2 0x32F4 JUMPI PUSH1 0x0 DUP1 REVERT JUMPDEST POP DUP1 SLOAD PUSH4 0xFFFFFFFF DUP8 AND PUSH1 0x1 PUSH1 0xE0 SHL MUL PUSH1 0x1 PUSH1 0x1 PUSH1 0xE0 SHL SUB SWAP1 SWAP2 AND OR SWAP1 SSTORE POP SWAP2 POP POP SWAP4 SWAP3 POP POP POP JUMP JUMPDEST PUSH1 0xE0 DUP5 ADD MLOAD PUSH1 0x0 SWAP1 ISZERO PUSH2 0x33DE JUMPI PUSH20 0x0 PUSH4 0xE0C01A72 DUP6 PUSH2 0x3352 DUP9 PUSH1 0x40 ADD MLOAD PUSH2 0x1CF6 JUMP JUMPDEST DUP9 PUSH1 0xE0 ADD MLOAD DUP10 PUSH2 0x100 ADD MLOAD PUSH1 0x40 MLOAD DUP6 PUSH4 0xFFFFFFFF AND PUSH1 0xE0 SHL DUP2 MSTORE PUSH1 0x4 ADD PUSH2 0x337C SWAP5 SWAP4 SWAP3 SWAP2 SWAP1 PUSH2 0x4885 JUMP JUMPDEST PUSH1 0x20 PUSH1 0x40 MLOAD DUP1 DUP4 SUB DUP2 DUP7 DUP1 EXTCODESIZE ISZERO DUP1 ISZERO PUSH2 0x3394 JUMPI PUSH1 0x0 DUP1 REVERT JUMPDEST POP GAS DELEGATECALL ISZERO DUP1 ISZERO PUSH2 0x33A8 JUMPI RETURNDATASIZE PUSH1 0x0 DUP1 RETURNDATACOPY RETURNDATASIZE PUSH1 0x0 REVERT JUMPDEST POP POP POP POP PUSH1 0x40 MLOAD RETURNDATASIZE PUSH1 0x1F NOT PUSH1 0x1F DUP3 ADD AND DUP3 ADD DUP1 PUSH1 0x40 MSTORE POP DUP2 ADD SWAP1 PUSH2 0x33CC SWAP2 SWAP1 PUSH2 0x43D8 JUMP JUMPDEST PUSH1 0x0 PUSH1 0xE0 DUP8 ADD DUP2 SWAP1 MSTORE PUSH2 0x100 DUP8 ADD MSTORE SWAP1 POP JUMPDEST PUSH2 0x3420 PUSH2 0x3419 DUP7 PUSH2 0x100 ADD MLOAD PUSH2 0x3413 PUSH8 0xDE0B6B3A7640000 PUSH2 0x340D DUP9 PUSH2 0x3407 DUP13 PUSH1 0x40 ADD MLOAD PUSH2 0x1CF6 JUMP JUMPDEST SWAP1 PUSH2 0x3C5C JUMP JUMPDEST SWAP1 PUSH2 0x3CB5 JUMP JUMPDEST SWAP1 PUSH2 0x3096 JUMP JUMPDEST DUP3 SWAP1 PUSH2 0x3D1C JUMP JUMPDEST SWAP1 POP PUSH2 0x3438 PUSH8 0xDE0B6B3A7640000 PUSH2 0x340D DUP5 DUP7 PUSH2 0x3C5C JUMP JUMPDEST DUP6 PUSH2 0x100 ADD DUP2 DUP2 MSTORE POP POP SWAP5 SWAP4 POP POP POP POP JUMP JUMPDEST PUSH1 0x0 DUP1 PUSH2 0x3455 PUSH2 0x2894 JUMP JUMPDEST PUSH1 0x1 PUSH1 0x1 PUSH1 0xA0 SHL SUB DUP5 AND PUSH1 0x0 SWAP1 DUP2 MSTORE PUSH1 0x20 DUP3 SWAP1 MSTORE PUSH1 0x40 SWAP1 KECCAK256 DUP1 SLOAD SWAP2 SWAP3 POP SWAP1 PUSH1 0x1 PUSH1 0xF8 SHL SWAP1 DIV PUSH1 0xFF AND ISZERO PUSH2 0x34B1 JUMPI PUSH2 0x348A PUSH2 0x3D76 JUMP JUMPDEST PUSH1 0x1 PUSH1 0x1 PUSH1 0xA0 SHL SUB DUP1 DUP7 AND PUSH1 0x0 SWAP1 DUP2 MSTORE PUSH1 0x20 SWAP3 SWAP1 SWAP3 MSTORE PUSH1 0x40 SWAP1 SWAP2 KECCAK256 SLOAD AND SWAP3 POP PUSH2 0xBE2 SWAP2 POP POP JUMP JUMPDEST PUSH1 0x0 SWAP3 POP POP POP PUSH2 0xBE2 JUMP JUMPDEST PUSH2 0x8EB PUSH20 0xCFEAEAD4947F0705A14EC42AC3D44129E1EF3ED5 DUP4 DUP4 PUSH2 0x2DB7 JUMP JUMPDEST DUP2 MLOAD MLOAD DUP2 LT PUSH2 0x34E9 JUMPI PUSH1 0x0 DUP1 REVERT JUMPDEST PUSH1 0x0 DUP3 PUSH1 0x60 ADD MLOAD GT PUSH2 0x34FA JUMPI PUSH1 0x0 DUP1 REVERT JUMPDEST PUSH1 0x0 DUP3 PUSH1 0x0 ADD MLOAD DUP3 DUP2 MLOAD DUP2 LT PUSH2 0x350C JUMPI INVALID JUMPDEST PUSH1 0x20 MUL PUSH1 0x20 ADD ADD MLOAD SWAP1 POP PUSH1 0x2 PUSH1 0x3 DUP2 GT ISZERO PUSH2 0x3523 JUMPI INVALID JUMPDEST DUP2 PUSH1 0xA0 ADD MLOAD PUSH1 0x3 DUP2 GT ISZERO PUSH2 0x3533 JUMPI INVALID JUMPDEST EQ ISZERO DUP1 ISZERO PUSH2 0x3551 JUMPI POP PUSH1 0x3 DUP2 PUSH1 0xA0 ADD MLOAD PUSH1 0x3 DUP2 GT ISZERO PUSH2 0x354E JUMPI INVALID JUMPDEST EQ ISZERO JUMPDEST PUSH2 0x355A JUMPI PUSH1 0x0 DUP1 REVERT JUMPDEST PUSH1 0x60 DUP4 ADD DUP1 MLOAD PUSH1 0x0 NOT ADD SWAP1 MSTORE PUSH1 0x0 DUP1 DUP1 JUMPDEST DUP6 MLOAD MLOAD DUP2 LT ISZERO PUSH2 0x35CD JUMPI PUSH1 0x0 DUP7 PUSH1 0x0 ADD MLOAD DUP3 DUP2 MLOAD DUP2 LT PUSH2 0x3587 JUMPI INVALID JUMPDEST PUSH1 0x20 MUL PUSH1 0x20 ADD ADD MLOAD SWAP1 POP DUP3 DUP2 PUSH1 0x80 ADD MLOAD GT DUP1 ISZERO PUSH2 0x35B4 JUMPI POP PUSH1 0x2 DUP2 PUSH1 0xA0 ADD MLOAD PUSH1 0x3 DUP2 GT ISZERO PUSH2 0x35B1 JUMPI INVALID JUMPDEST EQ ISZERO JUMPDEST ISZERO PUSH2 0x35C4 JUMPI DUP1 PUSH1 0x80 ADD MLOAD SWAP3 POP DUP2 SWAP4 POP JUMPDEST POP PUSH1 0x1 ADD PUSH2 0x356B JUMP JUMPDEST POP DUP2 DUP5 EQ ISZERO PUSH2 0x35E6 JUMPI POP POP PUSH1 0x2 PUSH1 0xA0 SWAP2 SWAP1 SWAP2 ADD MSTORE PUSH2 0x8EB JUMP JUMPDEST PUSH1 0x0 DUP6 PUSH1 0x0 ADD MLOAD DUP4 DUP2 MLOAD DUP2 LT PUSH2 0x35F8 JUMPI INVALID JUMPDEST PUSH1 0x20 SWAP1 DUP2 MUL SWAP2 SWAP1 SWAP2 ADD ADD MLOAD PUSH1 0x80 DUP6 DUP2 ADD DUP1 MLOAD SWAP2 DUP4 ADD DUP1 MLOAD SWAP1 SWAP2 MSTORE MSTORE PUSH1 0x1 PUSH1 0xA0 SWAP2 DUP3 ADD MSTORE PUSH1 0x2 SWAP5 ADD SWAP4 SWAP1 SWAP4 MSTORE POP POP POP POP POP JUMP JUMPDEST DUP2 MLOAD ISZERO DUP1 ISZERO SWAP1 PUSH2 0x363D JUMPI POP DUP2 MLOAD PUSH2 0x3FFF LT ISZERO JUMPDEST PUSH2 0x3646 JUMPI PUSH1 0x0 DUP1 REVERT JUMPDEST DUP2 PUSH1 0x20 ADD MLOAD PUSH1 0x0 LT DUP1 ISZERO PUSH2 0x3663 JUMPI POP PUSH1 0x20 DUP3 ADD MLOAD PUSH5 0xFFFFFFFFFF LT ISZERO JUMPDEST PUSH2 0x366C JUMPI PUSH1 0x0 DUP1 REVERT JUMPDEST DUP2 PUSH1 0x40 ADD MLOAD PUSH1 0x0 LT DUP1 ISZERO PUSH2 0x3685 JUMPI POP PUSH1 0x40 DUP3 ADD MLOAD PUSH1 0x8 LT ISZERO JUMPDEST PUSH2 0x368E JUMPI PUSH1 0x0 DUP1 REVERT JUMPDEST PUSH1 0x60 DUP3 ADD MLOAD PUSH11 0x7FFFFFFFFFFFFFFFFFFFFF NOT SGT DUP1 ISZERO SWAP1 PUSH2 0x36BD JUMPI POP PUSH1 0x60 DUP3 ADD MLOAD PUSH11 0x7FFFFFFFFFFFFFFFFFFFFF SLT ISZERO JUMPDEST PUSH2 0x36C6 JUMPI PUSH1 0x0 DUP1 REVERT JUMPDEST DUP2 MLOAD DUP2 SLOAD PUSH1 0x20 DUP5 ADD MLOAD PUSH1 0x40 DUP6 ADD MLOAD PUSH1 0x60 SWAP1 SWAP6 ADD MLOAD PUSH1 0xA SIGNEXTEND PUSH11 0xFFFFFFFFFFFFFFFFFFFFFF AND PUSH1 0x1 PUSH1 0x40 SHL MUL PUSH19 0xFFFFFFFFFFFFFFFFFFFFFF0000000000000000 NOT PUSH1 0xFF SWAP1 SWAP7 AND PUSH1 0x1 PUSH1 0x38 SHL MUL PUSH8 0xFF00000000000000 NOT PUSH5 0xFFFFFFFFFF SWAP1 SWAP4 AND PUSH3 0x10000 MUL PUSH7 0xFFFFFFFFFF0000 NOT PUSH2 0xFFFF SWAP1 SWAP7 AND PUSH2 0xFFFF NOT SWAP1 SWAP6 AND SWAP5 SWAP1 SWAP5 OR SWAP5 SWAP1 SWAP5 AND SWAP3 SWAP1 SWAP3 OR AND SWAP2 SWAP1 SWAP2 OR SWAP3 SWAP1 SWAP3 AND SWAP2 SWAP1 SWAP2 OR SWAP1 SSTORE JUMP JUMPDEST PUSH1 0x0 DUP1 PUSH1 0x0 DUP1 PUSH2 0x376A DUP9 PUSH2 0x3D83 JUMP JUMPDEST SWAP1 POP DUP5 ISZERO DUP1 PUSH2 0x3778 JUMPI POP DUP1 DUP6 GT JUMPDEST ISZERO PUSH2 0x3781 JUMPI DUP1 SWAP5 POP JUMPDEST DUP7 DUP1 PUSH2 0x3791 JUMPI POP PUSH1 0x0 DUP9 PUSH1 0x60 ADD MLOAD SLT JUMPDEST SWAP7 POP PUSH2 0xFFFF DUP7 AND ISZERO PUSH2 0x37A2 JUMPI PUSH1 0x0 DUP1 REVERT JUMPDEST POP POP SWAP5 MLOAD SWAP4 SWAP6 PUSH1 0x10 SWAP4 SWAP1 SWAP4 SHR PUSH1 0xF0 SWAP5 SWAP1 SWAP5 SHL SWAP4 SWAP1 SWAP4 OR SWAP4 POP SWAP2 POP JUMP JUMPDEST PUSH1 0x0 DUP1 PUSH2 0xEDB PUSH1 0xD JUMPDEST PUSH1 0x0 PUSH3 0xF4240 DUP3 PUSH1 0x13 DUP2 GT ISZERO PUSH2 0x37D9 JUMPI INVALID JUMPDEST ADD SWAP3 SWAP2 POP POP JUMP JUMPDEST PUSH1 0x0 PUSH2 0x3FFF DUP5 GT ISZERO PUSH2 0x37F1 JUMPI PUSH1 0x0 DUP1 REVERT JUMPDEST PUSH5 0xFFFFFFFFFF DUP4 GT ISZERO PUSH2 0x3803 JUMPI PUSH1 0x0 DUP1 REVERT JUMPDEST PUSH1 0x8 DUP3 GT ISZERO PUSH2 0x3811 JUMPI PUSH1 0x0 DUP1 REVERT JUMPDEST POP PUSH8 0xFFFF000000000000 PUSH1 0x30 DUP5 SWAP1 SHL AND PUSH6 0xFFFFFFFFFF00 PUSH1 0x8 DUP5 SWAP1 SHL AND OR PUSH1 0xFF DUP3 AND OR SWAP4 SWAP3 POP POP POP JUMP JUMPDEST PUSH1 0x0 DUP1 PUSH2 0xEDB PUSH1 0xF PUSH2 0x37C7 JUMP JUMPDEST PUSH1 0x0 DUP1 DUP3 SLT ISZERO PUSH2 0x3862 JUMPI PUSH2 0x385B DUP3 PUSH2 0xEE1 JUMP JUMPDEST SWAP1 POP PUSH2 0xBE2 JUMP JUMPDEST POP DUP1 PUSH2 0xBE2 JUMP JUMPDEST PUSH1 0x40 DUP1 MLOAD PUSH4 0x23B872DD PUSH1 0xE0 SHL DUP2 MSTORE PUSH1 0x1 PUSH1 0x1 PUSH1 0xA0 SHL SUB DUP5 DUP2 AND PUSH1 0x4 DUP4 ADD MSTORE ADDRESS PUSH1 0x24 DUP4 ADD MSTORE PUSH1 0x44 DUP3 ADD DUP5 SWAP1 MSTORE SWAP2 MLOAD SWAP2 DUP6 AND SWAP2 PUSH4 0x23B872DD SWAP2 PUSH1 0x64 DUP1 DUP3 ADD SWAP3 PUSH1 0x0 SWAP3 SWAP1 SWAP2 SWAP1 DUP3 SWAP1 SUB ADD DUP2 DUP4 DUP8 DUP1 EXTCODESIZE ISZERO DUP1 ISZERO PUSH2 0x2E0E JUMPI PUSH1 0x0 DUP1 REVERT JUMPDEST PUSH1 0x0 PUSH2 0x38CB PUSH2 0x4051 JUMP JUMPDEST RETURNDATASIZE DUP1 ISZERO PUSH2 0x38DF JUMPI PUSH1 0x20 DUP2 EQ PUSH2 0x38E8 JUMPI PUSH1 0x0 DUP1 REVERT JUMPDEST PUSH1 0x1 SWAP3 POP PUSH2 0x38F3 JUMP JUMPDEST PUSH1 0x20 PUSH1 0x0 DUP4 RETURNDATACOPY DUP2 MLOAD SWAP3 POP JUMPDEST POP DUP2 PUSH2 0x8EB JUMPI PUSH1 0x40 DUP1 MLOAD PUSH3 0x461BCD PUSH1 0xE5 SHL DUP2 MSTORE PUSH1 0x20 PUSH1 0x4 DUP3 ADD MSTORE PUSH1 0x5 PUSH1 0x24 DUP3 ADD MSTORE PUSH5 0x455243323 PUSH1 0xDC SHL PUSH1 0x44 DUP3 ADD MSTORE SWAP1 MLOAD SWAP1 DUP2 SWAP1 SUB PUSH1 0x64 ADD SWAP1 REVERT JUMPDEST PUSH1 0x0 DUP1 PUSH2 0xEDB PUSH1 0x13 PUSH2 0x37C7 JUMP JUMPDEST DUP3 MLOAD PUSH1 0x40 MLOAD PUSH4 0xDB006A75 PUSH1 0xE0 SHL DUP2 MSTORE PUSH1 0x0 SWAP2 SELFBALANCE SWAP2 DUP4 SWAP2 PUSH1 0x1 PUSH1 0x1 PUSH1 0xA0 SHL SUB AND SWAP1 PUSH4 0xDB006A75 SWAP1 PUSH2 0x396F SWAP1 DUP8 SWAP1 PUSH1 0x4 ADD PUSH2 0x48AB JUMP JUMPDEST PUSH1 0x20 PUSH1 0x40 MLOAD DUP1 DUP4 SUB DUP2 PUSH1 0x0 DUP8 DUP1 EXTCODESIZE ISZERO DUP1 ISZERO PUSH2 0x3989 JUMPI PUSH1 0x0 DUP1 REVERT JUMPDEST POP GAS CALL ISZERO DUP1 ISZERO PUSH2 0x399D JUMPI RETURNDATASIZE PUSH1 0x0 DUP1 RETURNDATACOPY RETURNDATASIZE PUSH1 0x0 REVERT JUMPDEST POP POP POP POP PUSH1 0x40 MLOAD RETURNDATASIZE PUSH1 0x1F NOT PUSH1 0x1F DUP3 ADD AND DUP3 ADD DUP1 PUSH1 0x40 MSTORE POP DUP2 ADD SWAP1 PUSH2 0x39C1 SWAP2 SWAP1 PUSH2 0x43D8 JUMP JUMPDEST SWAP1 POP DUP1 ISZERO PUSH2 0x39E1 JUMPI PUSH1 0x40 MLOAD PUSH3 0x461BCD PUSH1 0xE5 SHL DUP2 MSTORE PUSH1 0x4 ADD PUSH2 0x17A SWAP1 PUSH2 0x491D JUMP JUMPDEST SELFBALANCE PUSH2 0x39EC DUP2 DUP5 PUSH2 0x3096 JUMP JUMPDEST SWAP4 POP PUSH2 0x2D72 DUP7 DUP6 PUSH2 0x2D7C JUMP JUMPDEST PUSH1 0x0 PUSH2 0x3A18 PUSH2 0x3A13 DUP6 PUSH1 0x0 ADD MLOAD PUSH2 0x3A0E DUP6 PUSH2 0x264D JUMP JUMPDEST PUSH2 0x2BF7 JUMP JUMPDEST PUSH2 0x1CF6 JUMP JUMPDEST SWAP1 POP PUSH2 0x3A22 PUSH2 0x392E JUMP JUMPDEST SLOAD DUP5 MLOAD PUSH1 0x40 MLOAD PUSH4 0x1A4CA37B PUSH1 0xE2 SHL DUP2 MSTORE PUSH1 0x1 PUSH1 0x1 PUSH1 0xA0 SHL SUB SWAP1 SWAP3 AND SWAP2 PUSH4 0x69328DEC SWAP2 PUSH2 0x3A54 SWAP2 DUP6 SWAP1 DUP9 SWAP1 PUSH1 0x4 ADD PUSH2 0x4807 JUMP JUMPDEST PUSH1 0x20 PUSH1 0x40 MLOAD DUP1 DUP4 SUB DUP2 PUSH1 0x0 DUP8 DUP1 EXTCODESIZE ISZERO DUP1 ISZERO PUSH2 0x3A6E JUMPI PUSH1 0x0 DUP1 REVERT JUMPDEST POP GAS CALL ISZERO DUP1 ISZERO PUSH2 0x3A82 JUMPI RETURNDATASIZE PUSH1 0x0 DUP1 RETURNDATACOPY RETURNDATASIZE PUSH1 0x0 REVERT JUMPDEST POP POP POP POP PUSH1 0x40 MLOAD RETURNDATASIZE PUSH1 0x1F NOT PUSH1 0x1F DUP3 ADD AND DUP3 ADD DUP1 PUSH1 0x40 MSTORE POP DUP2 ADD SWAP1 PUSH2 0x3AA6 SWAP2 SWAP1 PUSH2 0x43D8 JUMP JUMPDEST POP SWAP4 SWAP3 POP POP POP JUMP JUMPDEST DUP3 MLOAD PUSH1 0x0 SWAP1 DUP2 SWAP1 PUSH2 0x3AC7 SWAP1 ADDRESS PUSH4 0x70A08231 PUSH1 0xE0 SHL PUSH2 0x2E2E JUMP JUMPDEST SWAP1 POP PUSH1 0x0 DUP7 PUSH1 0x0 ADD MLOAD PUSH1 0x1 PUSH1 0x1 PUSH1 0xA0 SHL SUB AND PUSH4 0xDB006A75 DUP6 PUSH1 0x40 MLOAD DUP3 PUSH4 0xFFFFFFFF AND PUSH1 0xE0 SHL DUP2 MSTORE PUSH1 0x4 ADD PUSH2 0x3AFB SWAP2 SWAP1 PUSH2 0x48AB JUMP JUMPDEST PUSH1 0x20 PUSH1 0x40 MLOAD DUP1 DUP4 SUB DUP2 PUSH1 0x0 DUP8 DUP1 EXTCODESIZE ISZERO DUP1 ISZERO PUSH2 0x3B15 JUMPI PUSH1 0x0 DUP1 REVERT JUMPDEST POP GAS CALL ISZERO DUP1 ISZERO PUSH2 0x3B29 JUMPI RETURNDATASIZE PUSH1 0x0 DUP1 RETURNDATACOPY RETURNDATASIZE PUSH1 0x0 REVERT JUMPDEST POP POP POP POP PUSH1 0x40 MLOAD RETURNDATASIZE PUSH1 0x1F NOT PUSH1 0x1F DUP3 ADD AND DUP3 ADD DUP1 PUSH1 0x40 MSTORE POP DUP2 ADD SWAP1 PUSH2 0x3B4D SWAP2 SWAP1 PUSH2 0x43D8 JUMP JUMPDEST SWAP1 POP DUP1 ISZERO PUSH2 0x3B6D JUMPI PUSH1 0x40 MLOAD PUSH3 0x461BCD PUSH1 0xE5 SHL DUP2 MSTORE PUSH1 0x4 ADD PUSH2 0x17A SWAP1 PUSH2 0x491D JUMP JUMPDEST DUP6 MLOAD PUSH1 0x0 SWAP1 PUSH2 0x3B84 SWAP1 ADDRESS PUSH4 0x70A08231 PUSH1 0xE0 SHL PUSH2 0x2E2E JUMP JUMPDEST SWAP1 POP PUSH2 0x3B90 DUP2 DUP5 PUSH2 0x3096 JUMP JUMPDEST SWAP4 POP PUSH2 0x3BA1 DUP8 PUSH1 0x0 ADD MLOAD DUP8 DUP7 PUSH2 0x2DB7 JUMP JUMPDEST POP POP POP SWAP5 SWAP4 POP POP POP POP JUMP JUMPDEST PUSH1 0x0 DUP1 PUSH2 0xEDB PUSH1 0x3 PUSH2 0x37C7 JUMP JUMPDEST PUSH1 0x0 DUP1 PUSH1 0x0 PUSH2 0x3BC7 DUP6 PUSH2 0x3DF0 JUMP JUMPDEST SWAP2 SWAP5 POP SWAP3 POP SWAP1 POP DUP1 DUP5 GT DUP1 ISZERO PUSH2 0x3BDD JUMPI POP PUSH1 0x0 DUP2 GT JUMPDEST DUP1 ISZERO PUSH2 0x3BE9 JUMPI POP PUSH1 0x0 DUP4 GT JUMPDEST ISZERO PUSH2 0x3C48 JUMPI PUSH1 0x0 PUSH2 0x3BF9 DUP7 PUSH2 0x1755 JUMP JUMPDEST POP POP POP SWAP2 POP POP PUSH1 0x0 PUSH2 0x3C24 PUSH2 0x3C1B PUSH4 0x5F5E100 DUP5 PUSH2 0x3C5C SWAP1 SWAP2 SWAP1 PUSH4 0xFFFFFFFF AND JUMP JUMPDEST DUP5 DUP9 SUB DUP8 PUSH2 0x3E4C JUMP JUMPDEST SWAP1 POP PUSH2 0x3C30 DUP5 DUP3 PUSH2 0x3D1C JUMP JUMPDEST SWAP4 POP PUSH1 0x1 PUSH1 0x1 PUSH1 0x80 SHL SUB DUP5 LT PUSH2 0x3C45 JUMPI PUSH1 0x0 DUP1 REVERT JUMPDEST POP POP JUMPDEST SWAP3 POP SWAP3 POP SWAP3 JUMP JUMPDEST PUSH1 0x0 DUP1 PUSH2 0xEDB PUSH1 0x11 PUSH2 0x37C7 JUMP JUMPDEST PUSH1 0x0 DUP3 PUSH2 0x3C6B JUMPI POP PUSH1 0x0 PUSH2 0xEDB JUMP JUMPDEST DUP3 DUP3 MUL DUP3 DUP5 DUP3 DUP2 PUSH2 0x3C78 JUMPI INVALID JUMPDEST DIV EQ PUSH2 0xAA3 JUMPI PUSH1 0x40 MLOAD PUSH3 0x461BCD PUSH1 0xE5 SHL DUP2 MSTORE PUSH1 0x4 ADD DUP1 DUP1 PUSH1 0x20 ADD DUP3 DUP2 SUB DUP3 MSTORE PUSH1 0x21 DUP2 MSTORE PUSH1 0x20 ADD DUP1 PUSH2 0x4B96 PUSH1 0x21 SWAP2 CODECOPY PUSH1 0x40 ADD SWAP2 POP POP PUSH1 0x40 MLOAD DUP1 SWAP2 SUB SWAP1 REVERT JUMPDEST PUSH1 0x0 DUP1 DUP3 GT PUSH2 0x3D0B JUMPI PUSH1 0x40 DUP1 MLOAD PUSH3 0x461BCD PUSH1 0xE5 SHL DUP2 MSTORE PUSH1 0x20 PUSH1 0x4 DUP3 ADD MSTORE PUSH1 0x1A PUSH1 0x24 DUP3 ADD MSTORE PUSH32 0x536166654D6174683A206469766973696F6E206279207A65726F000000000000 PUSH1 0x44 DUP3 ADD MSTORE SWAP1 MLOAD SWAP1 DUP2 SWAP1 SUB PUSH1 0x64 ADD SWAP1 REVERT JUMPDEST DUP2 DUP4 DUP2 PUSH2 0x3D14 JUMPI INVALID JUMPDEST DIV SWAP4 SWAP3 POP POP POP JUMP JUMPDEST PUSH1 0x0 DUP3 DUP3 ADD DUP4 DUP2 LT ISZERO PUSH2 0xAA3 JUMPI PUSH1 0x40 DUP1 MLOAD PUSH3 0x461BCD PUSH1 0xE5 SHL DUP2 MSTORE PUSH1 0x20 PUSH1 0x4 DUP3 ADD MSTORE PUSH1 0x1B PUSH1 0x24 DUP3 ADD MSTORE PUSH32 0x536166654D6174683A206164646974696F6E206F766572666C6F770000000000 PUSH1 0x44 DUP3 ADD MSTORE SWAP1 MLOAD SWAP1 DUP2 SWAP1 SUB PUSH1 0x64 ADD SWAP1 REVERT JUMPDEST PUSH1 0x0 DUP1 PUSH2 0xEDB PUSH1 0x12 PUSH2 0x37C7 JUMP JUMPDEST PUSH1 0x0 DUP1 DUP3 PUSH1 0x40 ADD MLOAD GT DUP1 ISZERO PUSH2 0x3D9D JUMPI POP PUSH1 0x40 DUP3 ADD MLOAD PUSH1 0x8 LT ISZERO JUMPDEST PUSH2 0x3DA6 JUMPI PUSH1 0x0 DUP1 REVERT JUMPDEST PUSH1 0x40 DUP3 ADD MLOAD PUSH1 0x2 LT PUSH2 0x3DBD JUMPI POP PUSH1 0x20 DUP2 ADD MLOAD PUSH2 0xBE2 JUMP JUMPDEST PUSH1 0x0 PUSH2 0x3DCF PUSH1 0x1 DUP5 PUSH1 0x40 ADD MLOAD SUB PUSH2 0x3E6E JUMP JUMPDEST PUSH1 0x20 DUP5 ADD MLOAD SWAP1 SWAP2 POP PUSH2 0xAA3 SWAP1 PUSH3 0x76A700 SWAP1 PUSH2 0x3DEA SWAP1 DUP5 PUSH2 0x3096 JUMP JUMPDEST SWAP1 PUSH2 0x3D1C JUMP JUMPDEST PUSH1 0x0 DUP1 PUSH1 0x0 DUP1 PUSH2 0x3DFE PUSH2 0x3C4F JUMP JUMPDEST PUSH1 0x1 PUSH1 0x1 PUSH1 0xA0 SHL SUB SWAP6 SWAP1 SWAP6 AND PUSH1 0x0 SWAP1 DUP2 MSTORE PUSH1 0x20 SWAP6 SWAP1 SWAP6 MSTORE POP POP PUSH1 0x40 SWAP1 SWAP3 KECCAK256 SLOAD PUSH1 0x1 PUSH1 0x1 PUSH1 0x60 SHL SUB DUP2 AND SWAP4 PUSH1 0x1 PUSH1 0x60 SHL DUP3 DIV PUSH1 0x1 PUSH1 0x1 PUSH1 0x80 SHL SUB AND SWAP4 POP PUSH1 0x1 PUSH1 0xE0 SHL SWAP1 SWAP2 DIV PUSH4 0xFFFFFFFF AND SWAP2 POP JUMP JUMPDEST PUSH1 0x0 PUSH2 0xF7F DUP3 PUSH2 0x340D PUSH4 0x1DA9C00 DUP2 DUP9 PUSH2 0x3407 DUP10 PUSH8 0xDE0B6B3A7640000 PUSH2 0x3C5C JUMP JUMPDEST PUSH1 0x0 DUP2 PUSH1 0x1 EQ ISZERO PUSH2 0x3E83 JUMPI POP PUSH3 0x76A700 PUSH2 0xBE2 JUMP JUMPDEST DUP2 PUSH1 0x2 EQ ISZERO PUSH2 0x3E96 JUMPI POP PUSH3 0xED4E00 PUSH2 0xBE2 JUMP JUMPDEST DUP2 PUSH1 0x3 EQ ISZERO PUSH2 0x3EAA JUMPI POP PUSH4 0x1DA9C00 PUSH2 0xBE2 JUMP JUMPDEST DUP2 PUSH1 0x4 EQ ISZERO PUSH2 0x3EBE JUMPI POP PUSH4 0x3B53800 PUSH2 0xBE2 JUMP JUMPDEST DUP2 PUSH1 0x5 EQ ISZERO PUSH2 0x3ED2 JUMPI POP PUSH4 0x9450C00 PUSH2 0xBE2 JUMP JUMPDEST DUP2 PUSH1 0x6 EQ ISZERO PUSH2 0x3EE6 JUMPI POP PUSH4 0x128A1800 PUSH2 0xBE2 JUMP JUMPDEST DUP2 PUSH1 0x7 EQ ISZERO PUSH2 0x3EFA JUMPI POP PUSH4 0x25143000 PUSH2 0xBE2 JUMP JUMPDEST PUSH1 0x40 MLOAD PUSH3 0x461BCD PUSH1 0xE5 SHL DUP2 MSTORE PUSH1 0x4 ADD PUSH2 0x17A SWAP1 PUSH2 0x493D JUMP JUMPDEST PUSH1 0x40 MLOAD DUP1 PUSH2 0x120 ADD PUSH1 0x40 MSTORE DUP1 PUSH1 0x0 PUSH2 0xFFFF AND DUP2 MSTORE PUSH1 0x20 ADD PUSH1 0x0 DUP2 MSTORE PUSH1 0x20 ADD PUSH1 0x0 DUP2 MSTORE PUSH1 0x20 ADD PUSH1 0x0 DUP2 MSTORE PUSH1 0x20 ADD PUSH1 0x0 DUP2 MSTORE PUSH1 0x20 ADD PUSH1 0x0 DUP2 MSTORE PUSH1 0x20 ADD PUSH1 0x0 DUP2 MSTORE PUSH1 0x20 ADD PUSH1 0x0 DUP2 MSTORE PUSH1 0x20 ADD PUSH1 0x0 DUP2 MSTORE POP SWAP1 JUMP JUMPDEST PUSH1 0x40 DUP1 MLOAD PUSH1 0xA0 DUP2 ADD DUP3 MSTORE PUSH1 0x0 DUP1 DUP3 MSTORE PUSH1 0x20 DUP3 ADD DUP2 SWAP1 MSTORE SWAP2 DUP2 ADD DUP3 SWAP1 MSTORE PUSH1 0x60 DUP2 ADD DUP3 SWAP1 MSTORE PUSH1 0x80 DUP2 ADD SWAP2 SWAP1 SWAP2 MSTORE SWAP1 JUMP JUMPDEST PUSH1 0x40 MLOAD DUP1 PUSH1 0x80 ADD PUSH1 0x40 MSTORE DUP1 PUSH1 0x60 DUP2 MSTORE PUSH1 0x20 ADD PUSH1 0x60 DUP2 MSTORE PUSH1 0x20 ADD PUSH1 0x0 DUP2 MSTORE PUSH1 0x20 ADD PUSH1 0x0 DUP2 MSTORE POP SWAP1 JUMP JUMPDEST PUSH1 0x40 MLOAD DUP1 PUSH1 0xC0 ADD PUSH1 0x40 MSTORE DUP1 PUSH1 0x0 DUP2 MSTORE PUSH1 0x20 ADD PUSH1 0x0 DUP2 MSTORE PUSH1 0x20 ADD PUSH1 0x0 DUP2 MSTORE PUSH1 0x20 ADD PUSH1 0x0 DUP2 MSTORE PUSH1 0x20 ADD PUSH1 0x0 DUP2 MSTORE PUSH1 0x20 ADD PUSH1 0x0 PUSH1 0x3 DUP2 GT ISZERO PUSH2 0x3FF3 JUMPI INVALID JUMPDEST SWAP1 MSTORE SWAP1 JUMP JUMPDEST PUSH1 0x40 MLOAD DUP1 PUSH1 0x60 ADD PUSH1 0x40 MSTORE DUP1 PUSH1 0x0 PUSH1 0x1 PUSH1 0x1 PUSH1 0xA0 SHL SUB AND DUP2 MSTORE PUSH1 0x20 ADD PUSH1 0x0 DUP2 MSTORE PUSH1 0x20 ADD PUSH1 0x0 DUP2 MSTORE POP SWAP1 JUMP JUMPDEST PUSH1 0x40 DUP1 MLOAD PUSH1 0xA0 DUP2 ADD DUP3 MSTORE PUSH1 0x0 DUP1 DUP3 MSTORE PUSH1 0x20 DUP3 ADD DUP2 SWAP1 MSTORE SWAP2 DUP2 ADD DUP3 SWAP1 MSTORE SWAP1 PUSH1 0x60 DUP3 ADD SWAP1 DUP2 MSTORE PUSH1 0x20 ADD PUSH1 0x0 DUP2 MSTORE POP SWAP1 JUMP JUMPDEST PUSH1 0x40 MLOAD DUP1 PUSH1 0x20 ADD PUSH1 0x40 MSTORE DUP1 PUSH1 0x1 SWAP1 PUSH1 0x20 DUP3 MUL DUP1 CALLDATASIZE DUP4 CALLDATACOPY POP SWAP2 SWAP3 SWAP2 POP POP JUMP JUMPDEST DUP1 CALLDATALOAD PUSH1 0x1 PUSH1 0x1 PUSH1 0xA0 SHL SUB DUP2 AND DUP2 EQ PUSH2 0xBE2 JUMPI PUSH1 0x0 DUP1 REVERT JUMPDEST PUSH1 0x0 DUP1 DUP4 PUSH1 0x1F DUP5 ADD SLT PUSH2 0x4097 JUMPI DUP1 DUP2 REVERT JUMPDEST POP DUP2 CALLDATALOAD PUSH1 0x1 PUSH1 0x1 PUSH1 0x40 SHL SUB DUP2 GT ISZERO PUSH2 0x40AD JUMPI DUP2 DUP3 REVERT JUMPDEST PUSH1 0x20 DUP4 ADD SWAP2 POP DUP4 PUSH1 0x20 DUP1 DUP4 MUL DUP6 ADD ADD GT ISZERO PUSH2 0x40C7 JUMPI PUSH1 0x0 DUP1 REVERT JUMPDEST SWAP3 POP SWAP3 SWAP1 POP JUMP JUMPDEST PUSH1 0x0 DUP3 PUSH1 0x1F DUP4 ADD SLT PUSH2 0x40DE JUMPI DUP1 DUP2 REVERT JUMPDEST DUP2 MLOAD PUSH1 0x20 PUSH1 0x1 PUSH1 0x1 PUSH1 0x40 SHL SUB DUP1 DUP4 GT ISZERO PUSH2 0x40F4 JUMPI INVALID JUMPDEST PUSH2 0x4101 DUP3 DUP4 DUP6 MUL ADD PUSH2 0x4B51 JUMP JUMPDEST DUP4 DUP2 MSTORE DUP3 DUP2 ADD SWAP1 DUP7 DUP5 ADD PUSH1 0xC0 DUP1 DUP8 MUL DUP10 ADD DUP7 ADD DUP11 LT ISZERO PUSH2 0x411F JUMPI DUP8 DUP9 REVERT JUMPDEST DUP8 JUMPDEST DUP8 DUP2 LT ISZERO PUSH2 0x41A0 JUMPI DUP2 DUP4 DUP13 SUB SLT ISZERO PUSH2 0x4137 JUMPI DUP9 DUP10 REVERT JUMPDEST PUSH1 0x40 DUP1 MLOAD DUP4 DUP2 ADD DUP2 DUP2 LT DUP10 DUP3 GT OR ISZERO PUSH2 0x414C JUMPI INVALID JUMPDEST DUP3 MSTORE DUP5 MLOAD DUP2 MSTORE DUP9 DUP6 ADD MLOAD DUP10 DUP3 ADD MSTORE DUP5 DUP3 ADD MLOAD SWAP2 DUP2 ADD SWAP2 SWAP1 SWAP2 MSTORE PUSH1 0x60 DUP1 DUP6 ADD MLOAD SWAP1 DUP3 ADD MSTORE PUSH1 0x80 DUP1 DUP6 ADD MLOAD SWAP1 DUP3 ADD MSTORE PUSH1 0xA0 SWAP1 PUSH2 0x4187 DUP3 DUP7 ADD PUSH2 0x41C7 JUMP JUMPDEST SWAP2 DUP2 ADD SWAP2 SWAP1 SWAP2 MSTORE DUP6 MSTORE SWAP4 DUP7 ADD SWAP4 SWAP2 DUP2 ADD SWAP2 PUSH1 0x1 ADD PUSH2 0x4121 JUMP JUMPDEST POP SWAP2 SWAP10 SWAP9 POP POP POP POP POP POP POP POP POP JUMP JUMPDEST DUP1 MLOAD PUSH1 0x1 PUSH1 0x1 PUSH1 0x70 SHL SUB NOT DUP2 AND DUP2 EQ PUSH2 0xBE2 JUMPI PUSH1 0x0 DUP1 REVERT JUMPDEST DUP1 MLOAD PUSH1 0x4 DUP2 LT PUSH2 0xBE2 JUMPI PUSH1 0x0 DUP1 REVERT JUMPDEST DUP1 MLOAD PUSH2 0xBE2 DUP2 PUSH2 0x4B85 JUMP JUMPDEST DUP1 MLOAD PUSH1 0xFF DUP2 AND DUP2 EQ PUSH2 0xBE2 JUMPI PUSH1 0x0 DUP1 REVERT JUMPDEST PUSH1 0x0 DUP1 PUSH1 0x0 PUSH1 0x40 DUP5 DUP7 SUB SLT ISZERO PUSH2 0x4206 JUMPI DUP3 DUP4 REVERT JUMPDEST PUSH2 0x420F DUP5 PUSH2 0x406F JUMP JUMPDEST SWAP3 POP PUSH1 0x20 DUP5 ADD CALLDATALOAD PUSH1 0x1 PUSH1 0x1 PUSH1 0x40 SHL SUB DUP2 GT ISZERO PUSH2 0x4229 JUMPI DUP3 DUP4 REVERT JUMPDEST PUSH2 0x4235 DUP7 DUP3 DUP8 ADD PUSH2 0x4086 JUMP JUMPDEST SWAP5 SWAP8 SWAP1 SWAP7 POP SWAP4 SWAP5 POP POP POP POP JUMP JUMPDEST PUSH1 0x0 DUP1 PUSH1 0x0 DUP1 PUSH1 0x0 PUSH1 0x60 DUP7 DUP9 SUB SLT ISZERO PUSH2 0x4259 JUMPI DUP1 DUP2 REVERT JUMPDEST PUSH2 0x4262 DUP7 PUSH2 0x406F JUMP JUMPDEST SWAP5 POP PUSH1 0x20 DUP7 ADD CALLDATALOAD PUSH1 0x1 PUSH1 0x1 PUSH1 0x40 SHL SUB DUP1 DUP3 GT ISZERO PUSH2 0x427D JUMPI DUP3 DUP4 REVERT JUMPDEST PUSH2 0x4289 DUP10 DUP4 DUP11 ADD PUSH2 0x4086 JUMP JUMPDEST SWAP1 SWAP7 POP SWAP5 POP PUSH1 0x40 DUP9 ADD CALLDATALOAD SWAP2 POP DUP1 DUP3 GT ISZERO PUSH2 0x42A1 JUMPI DUP3 DUP4 REVERT JUMPDEST DUP2 DUP9 ADD SWAP2 POP DUP9 PUSH1 0x1F DUP4 ADD SLT PUSH2 0x42B4 JUMPI DUP3 DUP4 REVERT JUMPDEST DUP2 CALLDATALOAD DUP2 DUP2 GT ISZERO PUSH2 0x42C2 JUMPI DUP4 DUP5 REVERT JUMPDEST DUP10 PUSH1 0x20 DUP3 DUP6 ADD ADD GT ISZERO PUSH2 0x42D3 JUMPI DUP4 DUP5 REVERT JUMPDEST SWAP7 SWAP10 SWAP6 SWAP9 POP SWAP4 SWAP7 POP PUSH1 0x20 ADD SWAP5 SWAP4 SWAP3 POP POP POP JUMP JUMPDEST PUSH1 0x0 DUP1 PUSH1 0x0 PUSH1 0x40 DUP5 DUP7 SUB SLT ISZERO PUSH2 0x42FA JUMPI DUP3 DUP4 REVERT JUMPDEST PUSH2 0x4303 DUP5 PUSH2 0x406F JUMP JUMPDEST SWAP3 POP PUSH1 0x20 DUP5 ADD CALLDATALOAD PUSH1 0x1 PUSH1 0x1 PUSH1 0x40 SHL SUB DUP1 DUP3 GT ISZERO PUSH2 0x431E JUMPI DUP4 DUP5 REVERT JUMPDEST DUP2 DUP7 ADD SWAP2 POP DUP7 PUSH1 0x1F DUP4 ADD SLT PUSH2 0x4331 JUMPI DUP4 DUP5 REVERT JUMPDEST DUP2 CALLDATALOAD DUP2 DUP2 GT ISZERO PUSH2 0x433F JUMPI DUP5 DUP6 REVERT JUMPDEST DUP8 PUSH1 0x20 PUSH1 0xC0 DUP4 MUL DUP6 ADD ADD GT ISZERO PUSH2 0x4353 JUMPI DUP5 DUP6 REVERT JUMPDEST PUSH1 0x20 DUP4 ADD SWAP5 POP DUP1 SWAP4 POP POP POP POP SWAP3 POP SWAP3 POP SWAP3 JUMP JUMPDEST PUSH1 0x0 DUP1 PUSH1 0x0 PUSH1 0x40 DUP5 DUP7 SUB SLT ISZERO PUSH2 0x437A JUMPI DUP1 DUP2 REVERT JUMPDEST PUSH2 0x4383 DUP5 PUSH2 0x406F JUMP JUMPDEST SWAP3 POP PUSH1 0x20 DUP5 ADD CALLDATALOAD PUSH1 0x1 PUSH1 0x1 PUSH1 0x40 SHL SUB DUP2 GT ISZERO PUSH2 0x4229 JUMPI DUP2 DUP3 REVERT JUMPDEST PUSH1 0x0 PUSH1 0x20 DUP3 DUP5 SUB SLT ISZERO PUSH2 0x43AE JUMPI DUP1 DUP2 REVERT JUMPDEST DUP2 CALLDATALOAD PUSH2 0xAA3 DUP2 PUSH2 0x4B74 JUMP JUMPDEST PUSH1 0x0 PUSH1 0x20 DUP3 DUP5 SUB SLT ISZERO PUSH2 0x43CA JUMPI DUP1 DUP2 REVERT JUMPDEST DUP2 CALLDATALOAD PUSH1 0x7 DUP2 LT PUSH2 0xAA3 JUMPI DUP2 DUP3 REVERT JUMPDEST PUSH1 0x0 PUSH1 0x20 DUP3 DUP5 SUB SLT ISZERO PUSH2 0x43E9 JUMPI DUP1 DUP2 REVERT JUMPDEST POP MLOAD SWAP2 SWAP1 POP JUMP JUMPDEST PUSH1 0x0 DUP1 PUSH1 0x40 DUP4 DUP6 SUB SLT ISZERO PUSH2 0x4402 JUMPI DUP2 DUP3 REVERT JUMPDEST DUP3 MLOAD SWAP2 POP PUSH1 0x20 DUP4 ADD MLOAD PUSH2 0x4414 DUP2 PUSH2 0x4B74 JUMP JUMPDEST DUP1 SWAP2 POP POP SWAP3 POP SWAP3 SWAP1 POP JUMP JUMPDEST PUSH1 0x0 PUSH1 0xA0 DUP3 DUP5 SUB SLT ISZERO PUSH2 0x4430 JUMPI DUP1 DUP2 REVERT JUMPDEST PUSH1 0x40 MLOAD PUSH1 0xA0 DUP2 ADD DUP2 DUP2 LT PUSH1 0x1 PUSH1 0x1 PUSH1 0x40 SHL SUB DUP3 GT OR ISZERO PUSH2 0x444C JUMPI INVALID JUMPDEST PUSH1 0x40 MSTORE DUP3 MLOAD PUSH5 0xFFFFFFFFFF DUP2 AND DUP2 EQ PUSH2 0x4463 JUMPI DUP3 DUP4 REVERT JUMPDEST DUP2 MSTORE PUSH1 0x20 DUP4 ADD MLOAD PUSH1 0x1 PUSH1 0x1 PUSH1 0xF8 SHL SUB NOT DUP2 AND DUP2 EQ PUSH2 0x447F JUMPI DUP3 DUP4 REVERT JUMPDEST PUSH1 0x20 DUP3 ADD MSTORE PUSH2 0x4490 PUSH1 0x40 DUP5 ADD PUSH2 0x41E1 JUMP JUMPDEST PUSH1 0x40 DUP3 ADD MSTORE PUSH2 0x44A1 PUSH1 0x60 DUP5 ADD PUSH2 0x41D6 JUMP JUMPDEST PUSH1 0x60 DUP3 ADD MSTORE PUSH2 0x44B2 PUSH1 0x80 DUP5 ADD PUSH2 0x41AF JUMP JUMPDEST PUSH1 0x80 DUP3 ADD MSTORE SWAP4 SWAP3 POP POP POP JUMP JUMPDEST PUSH1 0x0 DUP1 PUSH1 0x40 DUP4 DUP6 SUB SLT ISZERO PUSH2 0x44D0 JUMPI DUP2 DUP3 REVERT JUMPDEST DUP3 MLOAD PUSH1 0x1 PUSH1 0x1 PUSH1 0x40 SHL SUB DUP1 DUP3 GT ISZERO PUSH2 0x44E6 JUMPI DUP4 DUP5 REVERT JUMPDEST SWAP1 DUP5 ADD SWAP1 PUSH1 0x80 DUP3 DUP8 SUB SLT ISZERO PUSH2 0x44F9 JUMPI DUP4 DUP5 REVERT JUMPDEST PUSH1 0x40 MLOAD PUSH1 0x80 DUP2 ADD DUP2 DUP2 LT DUP4 DUP3 GT OR ISZERO PUSH2 0x450E JUMPI INVALID JUMPDEST PUSH1 0x40 MSTORE DUP3 MLOAD DUP3 DUP2 GT ISZERO PUSH2 0x451F JUMPI DUP6 DUP7 REVERT JUMPDEST PUSH2 0x452B DUP9 DUP3 DUP7 ADD PUSH2 0x40CE JUMP JUMPDEST DUP3 MSTORE POP PUSH1 0x20 DUP4 ADD MLOAD DUP3 DUP2 GT ISZERO PUSH2 0x453F JUMPI DUP6 DUP7 REVERT JUMPDEST PUSH2 0x454B DUP9 DUP3 DUP7 ADD PUSH2 0x40CE JUMP JUMPDEST PUSH1 0x20 DUP4 ADD MSTORE POP PUSH1 0x40 DUP4 ADD MLOAD PUSH1 0x40 DUP3 ADD MSTORE PUSH1 0x60 DUP4 ADD MLOAD PUSH1 0x60 DUP3 ADD MSTORE DUP1 SWAP5 POP POP POP POP PUSH1 0x20 DUP4 ADD MLOAD SWAP1 POP SWAP3 POP SWAP3 SWAP1 POP JUMP JUMPDEST PUSH1 0x0 PUSH1 0x20 DUP3 DUP5 SUB SLT ISZERO PUSH2 0x458A JUMPI DUP1 DUP2 REVERT JUMPDEST DUP2 CALLDATALOAD PUSH2 0xAA3 DUP2 PUSH2 0x4B85 JUMP JUMPDEST DUP2 DUP4 MSTORE PUSH1 0x0 PUSH1 0x1 PUSH1 0x1 PUSH1 0xFB SHL SUB DUP4 GT ISZERO PUSH2 0x45AD JUMPI DUP1 DUP2 REVERT JUMPDEST PUSH1 0x20 DUP4 MUL DUP1 DUP4 PUSH1 0x20 DUP8 ADD CALLDATACOPY SWAP4 SWAP1 SWAP4 ADD PUSH1 0x20 ADD SWAP3 DUP4 MSTORE POP SWAP1 SWAP2 SWAP1 POP JUMP JUMPDEST PUSH1 0x0 DUP2 MLOAD DUP1 DUP5 MSTORE PUSH1 0x20 DUP1 DUP6 ADD SWAP5 POP DUP1 DUP5 ADD DUP4 JUMPDEST DUP4 DUP2 LT ISZERO PUSH2 0x4636 JUMPI DUP2 MLOAD DUP1 MLOAD DUP9 MSTORE DUP4 DUP2 ADD MLOAD DUP5 DUP10 ADD MSTORE PUSH1 0x40 DUP1 DUP3 ADD MLOAD SWAP1 DUP10 ADD MSTORE PUSH1 0x60 DUP1 DUP3 ADD MLOAD SWAP1 DUP10 ADD MSTORE PUSH1 0x80 DUP1 DUP3 ADD MLOAD SWAP1 DUP10 ADD MSTORE PUSH1 0xA0 SWAP1 DUP2 ADD MLOAD SWAP1 PUSH1 0x4 DUP3 LT PUSH2 0x4621 JUMPI INVALID JUMPDEST DUP9 ADD MSTORE PUSH1 0xC0 SWAP1 SWAP7 ADD SWAP6 SWAP1 DUP3 ADD SWAP1 PUSH1 0x1 ADD PUSH2 0x45DC JUMP JUMPDEST POP SWAP5 SWAP6 SWAP5 POP POP POP POP POP JUMP JUMPDEST PUSH1 0x1 PUSH1 0x1 PUSH1 0xA0 SHL SUB SWAP2 SWAP1 SWAP2 AND DUP2 MSTORE PUSH1 0x20 ADD SWAP1 JUMP JUMPDEST PUSH1 0x1 PUSH1 0x1 PUSH1 0xA0 SHL SUB DUP6 DUP2 AND DUP3 MSTORE DUP5 AND PUSH1 0x20 DUP3 ADD MSTORE PUSH1 0x60 PUSH1 0x40 DUP3 ADD DUP2 SWAP1 MSTORE DUP2 ADD DUP3 SWAP1 MSTORE PUSH1 0x0 DUP3 DUP5 PUSH1 0x80 DUP5 ADD CALLDATACOPY DUP2 DUP4 ADD PUSH1 0x80 SWAP1 DUP2 ADD SWAP2 SWAP1 SWAP2 MSTORE PUSH1 0x1F SWAP1 SWAP3 ADD PUSH1 0x1F NOT AND ADD ADD SWAP4 SWAP3 POP POP POP JUMP JUMPDEST PUSH1 0x1 PUSH1 0x1 PUSH1 0xA0 SHL SUB SWAP7 DUP8 AND DUP2 MSTORE SWAP5 DUP7 AND PUSH1 0x20 DUP7 ADD MSTORE SWAP3 DUP6 AND PUSH1 0x40 DUP6 ADD MSTORE SWAP1 DUP5 AND PUSH1 0x60 DUP5 ADD MSTORE DUP4 AND PUSH1 0x80 DUP4 ADD MSTORE SWAP1 SWAP2 AND PUSH1 0xA0 DUP3 ADD MSTORE PUSH1 0xC0 ADD SWAP1 JUMP JUMPDEST PUSH1 0x1 PUSH1 0x1 PUSH1 0xA0 SHL SUB SWAP3 SWAP1 SWAP3 AND DUP3 MSTORE DUP1 MLOAD PUSH5 0xFFFFFFFFFF AND PUSH1 0x20 DUP1 DUP5 ADD SWAP2 SWAP1 SWAP2 MSTORE DUP2 ADD MLOAD PUSH1 0x1 PUSH1 0x1 PUSH1 0xF8 SHL SUB NOT AND PUSH1 0x40 DUP1 DUP5 ADD SWAP2 SWAP1 SWAP2 MSTORE DUP2 ADD MLOAD PUSH1 0xFF AND PUSH1 0x60 DUP1 DUP5 ADD SWAP2 SWAP1 SWAP2 MSTORE DUP2 ADD MLOAD PUSH2 0xFFFF AND PUSH1 0x80 DUP1 DUP5 ADD SWAP2 SWAP1 SWAP2 MSTORE ADD MLOAD PUSH1 0x1 PUSH1 0x1 PUSH1 0x70 SHL SUB NOT AND PUSH1 0xA0 DUP3 ADD MSTORE PUSH1 0xC0 ADD SWAP1 JUMP JUMPDEST PUSH1 0x0 PUSH1 0x1 DUP1 PUSH1 0xA0 SHL SUB DUP8 AND DUP3 MSTORE PUSH2 0xFFFF DUP7 AND PUSH1 0x20 DUP4 ADD MSTORE PUSH1 0x80 PUSH1 0x40 DUP4 ADD MSTORE DUP5 MLOAD PUSH1 0x80 DUP1 DUP5 ADD MSTORE PUSH2 0x4778 PUSH2 0x100 DUP5 ADD DUP3 PUSH2 0x45C9 JUMP JUMPDEST SWAP1 POP PUSH1 0x20 DUP7 ADD MLOAD PUSH1 0x7F NOT DUP5 DUP4 SUB ADD PUSH1 0xA0 DUP6 ADD MSTORE PUSH2 0x4795 DUP3 DUP3 PUSH2 0x45C9 JUMP JUMPDEST SWAP2 POP POP PUSH1 0x40 DUP7 ADD MLOAD PUSH1 0xC0 DUP5 ADD MSTORE PUSH1 0x60 DUP7 ADD MLOAD PUSH1 0xE0 DUP5 ADD MSTORE DUP3 DUP2 SUB PUSH1 0x60 DUP5 ADD MSTORE PUSH2 0x47BF DUP2 DUP6 DUP8 PUSH2 0x4595 JUMP JUMPDEST SWAP9 SWAP8 POP POP POP POP POP POP POP POP JUMP JUMPDEST PUSH1 0x1 PUSH1 0x1 PUSH1 0xA0 SHL SUB DUP7 AND DUP2 MSTORE PUSH2 0xFFFF DUP6 AND PUSH1 0x20 DUP3 ADD MSTORE PUSH5 0xFFFFFFFFFF DUP5 AND PUSH1 0x40 DUP3 ADD MSTORE PUSH1 0x80 PUSH1 0x60 DUP3 ADD DUP2 SWAP1 MSTORE PUSH1 0x0 SWAP1 PUSH2 0x1DEF SWAP1 DUP4 ADD DUP5 DUP7 PUSH2 0x4595 JUMP JUMPDEST PUSH1 0x1 PUSH1 0x1 PUSH1 0xA0 SHL SUB SWAP4 DUP5 AND DUP2 MSTORE PUSH1 0x20 DUP2 ADD SWAP3 SWAP1 SWAP3 MSTORE SWAP1 SWAP2 AND PUSH1 0x40 DUP3 ADD MSTORE PUSH1 0x60 ADD SWAP1 JUMP JUMPDEST PUSH1 0x1 PUSH1 0x1 PUSH1 0xA0 SHL SUB SWAP5 DUP6 AND DUP2 MSTORE PUSH1 0x20 DUP2 ADD SWAP4 SWAP1 SWAP4 MSTORE SWAP3 AND PUSH1 0x40 DUP3 ADD MSTORE PUSH2 0xFFFF SWAP1 SWAP2 AND PUSH1 0x60 DUP3 ADD MSTORE PUSH1 0x80 ADD SWAP1 JUMP JUMPDEST PUSH1 0x1 PUSH1 0x1 PUSH1 0xA0 SHL SUB SWAP6 SWAP1 SWAP6 AND DUP6 MSTORE PUSH1 0x20 DUP6 ADD SWAP4 SWAP1 SWAP4 MSTORE PUSH1 0x40 DUP5 ADD SWAP2 SWAP1 SWAP2 MSTORE PUSH1 0x60 DUP4 ADD MSTORE PUSH1 0x80 DUP3 ADD MSTORE PUSH1 0xA0 ADD SWAP1 JUMP JUMPDEST PUSH1 0x1 PUSH1 0x1 PUSH1 0xA0 SHL SUB SWAP5 SWAP1 SWAP5 AND DUP5 MSTORE PUSH1 0x20 DUP5 ADD SWAP3 SWAP1 SWAP3 MSTORE PUSH1 0x40 DUP4 ADD MSTORE PUSH1 0x60 DUP3 ADD MSTORE PUSH1 0x80 ADD SWAP1 JUMP JUMPDEST SWAP1 DUP2 MSTORE PUSH1 0x20 ADD SWAP1 JUMP JUMPDEST PUSH1 0x20 DUP1 DUP3 MSTORE PUSH1 0xC SWAP1 DUP3 ADD MSTORE PUSH12 0x155B985D5D1A1BDC9A5E9959 PUSH1 0xA2 SHL PUSH1 0x40 DUP3 ADD MSTORE PUSH1 0x60 ADD SWAP1 JUMP JUMPDEST PUSH1 0x20 DUP1 DUP3 MSTORE PUSH1 0x4 SWAP1 DUP3 ADD MSTORE PUSH4 0x135A5B9D PUSH1 0xE2 SHL PUSH1 0x40 DUP3 ADD MSTORE PUSH1 0x60 ADD SWAP1 JUMP JUMPDEST PUSH1 0x20 DUP1 DUP3 MSTORE PUSH1 0xB SWAP1 DUP3 ADD MSTORE PUSH11 0x4554482042616C616E6365 PUSH1 0xA8 SHL PUSH1 0x40 DUP3 ADD MSTORE PUSH1 0x60 ADD SWAP1 JUMP JUMPDEST PUSH1 0x20 DUP1 DUP3 MSTORE PUSH1 0x6 SWAP1 DUP3 ADD MSTORE PUSH6 0x52656465656D PUSH1 0xD0 SHL PUSH1 0x40 DUP3 ADD MSTORE PUSH1 0x60 ADD SWAP1 JUMP JUMPDEST PUSH1 0x20 DUP1 DUP3 MSTORE PUSH1 0xD SWAP1 DUP3 ADD MSTORE PUSH13 0x92DCECC2D8D2C840D2DCC8CAF PUSH1 0x9B SHL PUSH1 0x40 DUP3 ADD MSTORE PUSH1 0x60 ADD SWAP1 JUMP JUMPDEST PUSH1 0x20 DUP1 DUP3 MSTORE PUSH1 0x10 SWAP1 DUP3 ADD MSTORE PUSH16 0x556E736F7274656420616374696F6E73 PUSH1 0x80 SHL PUSH1 0x40 DUP3 ADD MSTORE PUSH1 0x60 ADD SWAP1 JUMP JUMPDEST PUSH1 0x20 DUP1 DUP3 MSTORE PUSH1 0x1A SWAP1 DUP3 ADD MSTORE PUSH32 0x496E73756666696369656E7420746F6B656E2062616C616E6365000000000000 PUSH1 0x40 DUP3 ADD MSTORE PUSH1 0x60 ADD SWAP1 JUMP JUMPDEST PUSH1 0x20 DUP1 DUP3 MSTORE PUSH1 0xE SWAP1 DUP3 ADD MSTORE PUSH14 0x1499595B9D1C985B9D0818D85B1B PUSH1 0x92 SHL PUSH1 0x40 DUP3 ADD MSTORE PUSH1 0x60 ADD SWAP1 JUMP JUMPDEST PUSH1 0x20 DUP1 DUP3 MSTORE PUSH1 0x8 SWAP1 DUP3 ADD MSTORE PUSH8 0x9CCACE4086C2E6D PUSH1 0xC3 SHL PUSH1 0x40 DUP3 ADD MSTORE PUSH1 0x60 ADD SWAP1 JUMP JUMPDEST PUSH1 0x20 DUP1 DUP3 MSTORE PUSH1 0x1A SWAP1 DUP3 ADD MSTORE PUSH32 0x496E76616C69642074726164657320666F72206163636F756E74000000000000 PUSH1 0x40 DUP3 ADD MSTORE PUSH1 0x60 ADD SWAP1 JUMP JUMPDEST PUSH1 0x20 DUP1 DUP3 MSTORE PUSH1 0xA SWAP1 DUP3 ADD MSTORE PUSH10 0x2732B390372A37B5B2B7 PUSH1 0xB1 SHL PUSH1 0x40 DUP3 ADD MSTORE PUSH1 0x60 ADD SWAP1 JUMP JUMPDEST PUSH1 0x20 DUP1 DUP3 MSTORE PUSH1 0x11 SWAP1 DUP3 ADD MSTORE PUSH17 0x92DCE6EACCCCD2C6D2CADCE840C6C2E6D PUSH1 0x7B SHL PUSH1 0x40 DUP3 ADD MSTORE PUSH1 0x60 ADD SWAP1 JUMP JUMPDEST PUSH1 0x20 DUP1 DUP3 MSTORE PUSH1 0x14 SWAP1 DUP3 ADD MSTORE PUSH20 0x125B9CDD59999A58DA595B9D0819195C1BDCDA5D PUSH1 0x62 SHL PUSH1 0x40 DUP3 ADD MSTORE PUSH1 0x60 ADD SWAP1 JUMP JUMPDEST PUSH2 0xFFFF SWAP3 SWAP1 SWAP3 AND DUP3 MSTORE PUSH1 0x20 DUP3 ADD MSTORE PUSH1 0x40 ADD SWAP1 JUMP JUMPDEST PUSH1 0x0 DUP1 DUP4 CALLDATALOAD PUSH1 0x1E NOT DUP5 CALLDATASIZE SUB ADD DUP2 SLT PUSH2 0x4AED JUMPI DUP3 DUP4 REVERT JUMPDEST DUP4 ADD DUP1 CALLDATALOAD SWAP2 POP PUSH1 0x1 PUSH1 0x1 PUSH1 0x40 SHL SUB DUP3 GT ISZERO PUSH2 0x4B06 JUMPI DUP3 DUP4 REVERT JUMPDEST PUSH1 0x20 SWAP1 DUP2 ADD SWAP3 POP DUP2 MUL CALLDATASIZE SUB DUP3 SGT ISZERO PUSH2 0x40C7 JUMPI PUSH1 0x0 DUP1 REVERT JUMPDEST PUSH1 0x0 DUP3 CALLDATALOAD PUSH1 0xDE NOT DUP4 CALLDATASIZE SUB ADD DUP2 SLT PUSH2 0x4B32 JUMPI DUP2 DUP3 REVERT JUMPDEST SWAP2 SWAP1 SWAP2 ADD SWAP3 SWAP2 POP POP JUMP JUMPDEST PUSH1 0x0 DUP3 CALLDATALOAD PUSH1 0x5E NOT DUP4 CALLDATASIZE SUB ADD DUP2 SLT PUSH2 0x4B32 JUMPI DUP2 DUP3 REVERT JUMPDEST PUSH1 0x40 MLOAD DUP2 DUP2 ADD PUSH1 0x1 PUSH1 0x1 PUSH1 0x40 SHL SUB DUP2 GT DUP3 DUP3 LT OR ISZERO PUSH2 0x4B6C JUMPI INVALID JUMPDEST PUSH1 0x40 MSTORE SWAP2 SWAP1 POP JUMP JUMPDEST DUP1 ISZERO ISZERO DUP2 EQ PUSH2 0x4B82 JUMPI PUSH1 0x0 DUP1 REVERT JUMPDEST POP JUMP JUMPDEST PUSH2 0xFFFF DUP2 AND DUP2 EQ PUSH2 0x4B82 JUMPI PUSH1 0x0 DUP1 REVERT INVALID MSTORE8 PUSH2 0x6665 0x4D PUSH2 0x7468 GASPRICE KECCAK256 PUSH14 0x756C7469706C69636174696F6E20 PUSH16 0x766572666C6F77A26469706673582212 KECCAK256 ORIGIN DUP2 0x1F PUSH32 0x2DFAED6AE73F5EE82DDE37E34E8A29D87704373D06746E0114BF0EE664736F6C PUSH4 0x43000706 STOP CALLER ","sha1":"6f2bae8e08cdffbb9523a8af153338729873fb66","source":"// SPDX-License-Identifier: GPL-3.0-only\npragma solidity ^0.7.0;\npragma abicoder v2;\n\nimport \"./TradingAction.sol\";\nimport \"./ActionGuards.sol\";\nimport \"./nTokenMintAction.sol\";\nimport \"./nTokenRedeemAction.sol\";\nimport \"../SettleAssetsExternal.sol\";\nimport \"../FreeCollateralExternal.sol\";\nimport \"../../math/SafeInt256.sol\";\nimport \"../../global/StorageLayoutV1.sol\";\nimport \"../../internal/balances/BalanceHandler.sol\";\nimport \"../../internal/portfolio/PortfolioHandler.sol\";\nimport \"../../internal/AccountContextHandler.sol\";\nimport \"../../../interfaces/notional/NotionalCallback.sol\";\n\ncontract BatchAction is StorageLayoutV1, ActionGuards {\n    using BalanceHandler for BalanceState;\n    using PortfolioHandler for PortfolioState;\n    using AccountContextHandler for AccountContext;\n    using AssetRate for AssetRateParameters;\n    using TokenHandler for Token;\n    using SafeInt256 for int256;\n\n    /// @notice Executes a batch of balance transfers including minting and redeeming nTokens.\n    /// @param account the account for the action\n    /// @param actions array of balance actions to take, must be sorted by currency id\n    /// @dev emit:CashBalanceChange, emit:nTokenSupplyChange\n    /// @dev auth:msg.sender auth:ERC1155\n    function batchBalanceAction(address account, BalanceAction[] calldata actions)\n        external\n        payable\n        nonReentrant\n    {\n        require(account == msg.sender || msg.sender == address(this), \"Unauthorized\");\n        requireValidAccount(account);\n\n        AccountContext memory accountContext = _settleAccountIfRequired(account);\n        BalanceState memory balanceState;\n\n        for (uint256 i = 0; i < actions.length; i++) {\n            BalanceAction calldata action = actions[i];\n            // msg.value will only be used when currency id == 1, referencing ETH. The requirement\n            // to sort actions by increasing id enforces that msg.value will only be used once.\n            if (i > 0) {\n                require(action.currencyId > actions[i - 1].currencyId, \"Unsorted actions\");\n            }\n            // Loads the currencyId into balance state\n            balanceState.loadBalanceState(account, action.currencyId, accountContext);\n\n            _executeDepositAction(\n                account,\n                balanceState,\n                action.actionType,\n                action.depositActionAmount\n            );\n\n            _calculateWithdrawActionAndFinalize(\n                account,\n                accountContext,\n                balanceState,\n                action.withdrawAmountInternalPrecision,\n                action.withdrawEntireCashBalance,\n                action.redeemToUnderlying\n            );\n        }\n\n        _finalizeAccountContext(account, accountContext);\n    }\n\n    /// @notice Executes a batch of balance transfers and trading actions\n    /// @param account the account for the action\n    /// @param actions array of balance actions with trades to take, must be sorted by currency id\n    /// @dev emit:CashBalanceChange, emit:nTokenSupplyChange, emit:LendBorrowTrade, emit:AddRemoveLiquidity,\n    /// @dev emit:SettledCashDebt, emit:nTokenResidualPurchase, emit:ReserveFeeAccrued\n    /// @dev auth:msg.sender auth:ERC1155\n    function batchBalanceAndTradeAction(address account, BalanceActionWithTrades[] calldata actions)\n        external\n        payable\n        nonReentrant\n    {\n        require(account == msg.sender || msg.sender == address(this), \"Unauthorized\");\n        requireValidAccount(account);\n        AccountContext memory accountContext = _batchBalanceAndTradeAction(account, actions);\n        _finalizeAccountContext(account, accountContext);\n    }\n\n    /// @notice Executes a batch of lending actions. This is different from batchBalanceAndTrade because\n    /// it always pulls the required amount of tokens to get an account to a cash balance of zero. It reduces\n    /// the gas costs for lending because there is no second token transfer where residual balances are sent\n    /// back to the account.\n    /// @dev Note that this method does not work with native ETH because it requires the ability to pull payment\n    /// from an ERC20 token. Therefore, this method is marked as nonpayable. It will still worth with cETH or aETH.\n    /// @param account the account for the action\n    /// @param actions array of batch lending actions\n    /// @dev emit:CashBalanceChange, emit:LendBorrowTrade emit:SettledCashDebt\n    /// @dev auth:msg.sender auth:ERC1155\n    function batchLend(address account, BatchLend[] calldata actions)\n        external\n        nonReentrant\n    {\n        require(account == msg.sender || msg.sender == address(this), \"Unauthorized\");\n        requireValidAccount(account);\n\n        AccountContext memory accountContext = _settleAccountIfRequired(account);\n        // NOTE: loading the portfolio state must happen after settle account to get the\n        // correct portfolio, it will have changed if the account is settled.\n        PortfolioState memory portfolioState = PortfolioHandler.buildPortfolioState(\n            account,\n            accountContext.assetArrayLength,\n            0\n        );\n        BalanceState memory balanceState;\n\n        for (uint256 i = 0; i < actions.length; i++) {\n            BatchLend calldata action = actions[i];\n            // msg.value will only be used when currency id == 1, referencing ETH. The requirement\n            // to sort actions by increasing id enforces that msg.value will only be used once.\n            if (i > 0) {\n                require(action.currencyId > actions[i - 1].currencyId, \"Unsorted actions\");\n            }\n\n            // Require that each action have at least 1 trade and all trades are lending trades\n            uint256 numTrades = action.trades.length;\n            require(numTrades > 0); // dev: no actions\n            for (uint256 j = 0; j < numTrades; j++) {\n                require(uint8(bytes1(action.trades[j])) == uint8(TradeActionType.Lend)); // dev: only lend trades\n            }\n\n            // Loads the currencyId into balance state\n            balanceState.loadBalanceState(account, action.currencyId, accountContext);\n            (balanceState.netCashChange, portfolioState) = _executeTrades(\n                account,\n                action.currencyId,\n                action.trades,\n                accountContext,\n                portfolioState\n            );\n            // This must be negative as a result of requiring only lending\n            require(balanceState.netCashChange <= 0);\n\n            // Deposit sufficient cash to get the balance up to zero. If required cash is negative (i.e. there\n            // is sufficient cash) then we don't need to do anything. The account's cash balance will be net off\n            // and there will be no token transfer.\n            // NOTE: it is possible that free collateral decreases as a result of lending a cash balance, will\n            // check FC at the end of the method.\n            int256 requiredCash = balanceState.storedCashBalance.add(balanceState.netCashChange).neg();\n            if (requiredCash > 0) {\n                if (action.depositUnderlying) {\n                    // If depositing underlying, get the current asset rate and convert the required cash\n                    // back to underlying.\n                    AssetRateParameters memory ar = AssetRate.buildAssetRateStateful(action.currencyId);\n                    Token memory underlyingToken = TokenHandler.getUnderlyingToken(action.currencyId);\n                    int256 underlyingExternalAmount = underlyingToken.convertToExternal(ar.convertToUnderlying(requiredCash));\n\n                    if (underlyingToken.decimals < Constants.INTERNAL_TOKEN_PRECISION) {\n                        // If external < 8, we could truncate down and cause an off by one error, for example we need\n                        // 1.00000011 cash and we deposit only 1.000000, missing 11 units. Therefore, we add a unit here\n                        // to account for potential rounding issues when tokens are less than 8 decimals (primarily USDC).\n                        underlyingExternalAmount = underlyingExternalAmount.add(1);\n                    }\n\n                    // This returns the cToken / aToken amount as a result of transfer and mint. It must be sufficient to\n                    // cover the required cash.\n                    int256 assetAmountInternal = balanceState.depositUnderlyingToken(account, underlyingExternalAmount);\n                    require(assetAmountInternal >= requiredCash, \"Insufficient deposit\");\n                } else {\n                    // If depositing asset tokens, then we just convert to the external precision. Need to\n                    // use the depositAssetToken here to handle aToken balances\n                    Token memory assetToken = TokenHandler.getAssetToken(action.currencyId);\n                    balanceState.depositAssetToken(\n                        account,\n                        assetToken.convertToExternal(requiredCash),\n                        false // Do not force a transfer here, will be done in finalize if required.\n                    );\n                }\n            }\n\n            // Will write all the balance changes to storage and transfer asset tokens if required.\n            balanceState.finalize(account, accountContext, false);\n        }\n\n        // Update the portfolio state if bitmap is not enabled. If bitmap is already enabled\n        // then all the assets have already been updated in in storage.\n        if (!accountContext.isBitmapEnabled()) {\n            // NOTE: account context is updated in memory inside this method call.\n            accountContext.storeAssetsAndUpdateContext(account, portfolioState, false);\n        }\n\n        // This will save the account context and check free collateral\n        _finalizeAccountContext(account, accountContext);\n    }\n\n    /// @notice Executes a batch of balance transfers and trading actions via an authorized callback contract. This\n    /// can be used as a \"flash loan\" facility for special contracts that migrate assets between protocols or perform\n    /// other actions on behalf of the user.\n    /// Contracts can borrow from Notional and receive a callback prior to an FC check, this can be useful if the contract\n    /// needs to perform a trade or repay a debt on a different protocol before depositing collateral. Since Notional's AMM\n    /// will never be as capital efficient or gas efficient as other flash loan facilities, this method requires whitelisting\n    /// and will mainly be used for contracts that make migrating assets a better user experience.\n    /// @param account the account that will take all the actions\n    /// @param actions array of balance actions with trades to take, must be sorted by currency id\n    /// @param callbackData arbitrary bytes to be passed backed to the caller in the callback\n    /// @dev emit:CashBalanceChange, emit:nTokenSupplyChange, emit:LendBorrowTrade, emit:AddRemoveLiquidity,\n    /// @dev emit:SettledCashDebt, emit:nTokenResidualPurchase, emit:ReserveFeeAccrued\n    /// @dev auth:authorizedCallbackContract\n    function batchBalanceAndTradeActionWithCallback(\n        address account,\n        BalanceActionWithTrades[] calldata actions,\n        bytes calldata callbackData\n    ) external payable {\n        // NOTE: Re-entrancy is allowed for authorized callback functions.\n        require(authorizedCallbackContract[msg.sender], \"Unauthorized\");\n        requireValidAccount(account);\n\n        AccountContext memory accountContext = _batchBalanceAndTradeAction(account, actions);\n        accountContext.setAccountContext(account);\n\n        // Be sure to set the account context before initiating the callback, all stateful updates\n        // have been finalized at this point so we are safe to issue a callback. This callback may\n        // re-enter Notional safely to deposit or take other actions.\n        NotionalCallback(msg.sender).notionalCallback(msg.sender, account, callbackData);\n\n        if (accountContext.hasDebt != 0x00) {\n            // NOTE: this method may update the account context to turn off the hasDebt flag, this\n            // is ok because the worst case would be causing an extra free collateral check when it\n            // is not required. This check will be entered if the account hasDebt prior to the callback\n            // being triggered above, so it will happen regardless of what the callback function does.\n            FreeCollateralExternal.checkFreeCollateralAndRevert(account);\n        }\n    }\n\n    function _batchBalanceAndTradeAction(\n        address account,\n        BalanceActionWithTrades[] calldata actions\n    ) internal returns (AccountContext memory) {\n        AccountContext memory accountContext = _settleAccountIfRequired(account);\n        BalanceState memory balanceState;\n        // NOTE: loading the portfolio state must happen after settle account to get the\n        // correct portfolio, it will have changed if the account is settled.\n        PortfolioState memory portfolioState = PortfolioHandler.buildPortfolioState(\n            account,\n            accountContext.assetArrayLength,\n            0\n        );\n\n        for (uint256 i = 0; i < actions.length; i++) {\n            BalanceActionWithTrades calldata action = actions[i];\n            // msg.value will only be used when currency id == 1, referencing ETH. The requirement\n            // to sort actions by increasing id enforces that msg.value will only be used once.\n            if (i > 0) {\n                require(action.currencyId > actions[i - 1].currencyId, \"Unsorted actions\");\n            }\n            // Loads the currencyId into balance state\n            balanceState.loadBalanceState(account, action.currencyId, accountContext);\n\n            // Does not revert on invalid action types here, they also have no effect.\n            _executeDepositAction(\n                account,\n                balanceState,\n                action.actionType,\n                action.depositActionAmount\n            );\n\n            if (action.trades.length > 0) {\n                int256 netCash;\n                (netCash, portfolioState) = _executeTrades(\n                    account,\n                    action.currencyId,\n                    action.trades,\n                    accountContext,\n                    portfolioState\n                );\n\n                // If the account owes cash after trading, ensure that it has enough\n                if (netCash < 0) _checkSufficientCash(balanceState, netCash.neg());\n                balanceState.netCashChange = balanceState.netCashChange.add(netCash);\n            }\n\n            _calculateWithdrawActionAndFinalize(\n                account,\n                accountContext,\n                balanceState,\n                action.withdrawAmountInternalPrecision,\n                action.withdrawEntireCashBalance,\n                action.redeemToUnderlying\n            );\n        }\n\n        // Update the portfolio state if bitmap is not enabled. If bitmap is already enabled\n        // then all the assets have already been updated in in storage.\n        if (!accountContext.isBitmapEnabled()) {\n            // NOTE: account context is updated in memory inside this method call.\n            accountContext.storeAssetsAndUpdateContext(account, portfolioState, false);\n        }\n\n        // NOTE: free collateral and account context will be set outside of this method call.\n        return accountContext;\n    }\n\n    /// @dev Executes deposits\n    function _executeDepositAction(\n        address account,\n        BalanceState memory balanceState,\n        DepositActionType depositType,\n        uint256 depositActionAmount_\n    ) private {\n        int256 depositActionAmount = SafeInt256.toInt(depositActionAmount_);\n        int256 assetInternalAmount;\n        require(depositActionAmount >= 0);\n\n        if (depositType == DepositActionType.None) {\n            return;\n        } else if (\n            depositType == DepositActionType.DepositAsset ||\n            depositType == DepositActionType.DepositAssetAndMintNToken\n        ) {\n            // NOTE: this deposit will NOT revert on a failed transfer unless there is a\n            // transfer fee. The actual transfer will take effect later in balanceState.finalize\n            assetInternalAmount = balanceState.depositAssetToken(\n                account,\n                depositActionAmount,\n                false // no force transfer\n            );\n        } else if (\n            depositType == DepositActionType.DepositUnderlying ||\n            depositType == DepositActionType.DepositUnderlyingAndMintNToken\n        ) {\n            // NOTE: this deposit will revert on a failed transfer immediately\n            assetInternalAmount = balanceState.depositUnderlyingToken(account, depositActionAmount);\n        } else if (depositType == DepositActionType.ConvertCashToNToken) {\n            // _executeNTokenAction will check if the account has sufficient cash\n            assetInternalAmount = depositActionAmount;\n        }\n\n        _executeNTokenAction(\n            balanceState,\n            depositType,\n            depositActionAmount,\n            assetInternalAmount\n        );\n    }\n\n    /// @dev Executes nToken actions\n    function _executeNTokenAction(\n        BalanceState memory balanceState,\n        DepositActionType depositType,\n        int256 depositActionAmount,\n        int256 assetInternalAmount\n    ) private {\n        // After deposits have occurred, check if we are minting nTokens\n        if (\n            depositType == DepositActionType.DepositAssetAndMintNToken ||\n            depositType == DepositActionType.DepositUnderlyingAndMintNToken ||\n            depositType == DepositActionType.ConvertCashToNToken\n        ) {\n            // Will revert if trying to mint ntokens and results in a negative cash balance\n            _checkSufficientCash(balanceState, assetInternalAmount);\n            balanceState.netCashChange = balanceState.netCashChange.sub(assetInternalAmount);\n\n            // Converts a given amount of cash (denominated in internal precision) into nTokens\n            int256 tokensMinted = nTokenMintAction.nTokenMint(\n                balanceState.currencyId,\n                assetInternalAmount\n            );\n\n            balanceState.netNTokenSupplyChange = balanceState.netNTokenSupplyChange.add(\n                tokensMinted\n            );\n        } else if (depositType == DepositActionType.RedeemNToken) {\n            require(\n                // prettier-ignore\n                balanceState\n                    .storedNTokenBalance\n                    .add(balanceState.netNTokenTransfer) // transfers would not occur at this point\n                    .add(balanceState.netNTokenSupplyChange) >= depositActionAmount,\n                \"Insufficient token balance\"\n            );\n\n            balanceState.netNTokenSupplyChange = balanceState.netNTokenSupplyChange.sub(\n                depositActionAmount\n            );\n\n            int256 assetCash = nTokenRedeemAction.nTokenRedeemViaBatch(\n                balanceState.currencyId,\n                depositActionAmount\n            );\n\n            balanceState.netCashChange = balanceState.netCashChange.add(assetCash);\n        }\n    }\n\n    /// @dev Calculations any withdraws and finalizes balances\n    function _calculateWithdrawActionAndFinalize(\n        address account,\n        AccountContext memory accountContext,\n        BalanceState memory balanceState,\n        uint256 withdrawAmountInternalPrecision,\n        bool withdrawEntireCashBalance,\n        bool redeemToUnderlying\n    ) private {\n        int256 withdrawAmount = SafeInt256.toInt(withdrawAmountInternalPrecision);\n        require(withdrawAmount >= 0); // dev: withdraw action overflow\n\n        // NOTE: if withdrawEntireCashBalance is set it will override the withdrawAmountInternalPrecision input\n        if (withdrawEntireCashBalance) {\n            // This option is here so that accounts do not end up with dust after lending since we generally\n            // cannot calculate exact cash amounts from the liquidity curve.\n            withdrawAmount = balanceState.storedCashBalance\n                .add(balanceState.netCashChange)\n                .add(balanceState.netAssetTransferInternalPrecision);\n\n            // If the account has a negative cash balance then cannot withdraw\n            if (withdrawAmount < 0) withdrawAmount = 0;\n        }\n\n        // prettier-ignore\n        balanceState.netAssetTransferInternalPrecision = balanceState\n            .netAssetTransferInternalPrecision\n            .sub(withdrawAmount);\n\n        balanceState.finalize(account, accountContext, redeemToUnderlying);\n    }\n\n    function _finalizeAccountContext(address account, AccountContext memory accountContext)\n        private\n    {\n        // At this point all balances, market states and portfolio states should be finalized. Just need to check free\n        // collateral if required.\n        accountContext.setAccountContext(account);\n        if (accountContext.hasDebt != 0x00) {\n            FreeCollateralExternal.checkFreeCollateralAndRevert(account);\n        }\n    }\n\n    function _executeTrades(\n        address account,\n        uint16 currencyId,\n        bytes32[] calldata trades,\n        AccountContext memory accountContext,\n        PortfolioState memory portfolioState\n    ) private returns (int256 netCash, PortfolioState memory postTradeState) {\n        if (accountContext.isBitmapEnabled()) {\n            require(\n                accountContext.bitmapCurrencyId == currencyId,\n                \"Invalid trades for account\"\n            );\n            bool didIncurDebt;\n            (netCash, didIncurDebt) = TradingAction.executeTradesBitmapBatch(\n                account,\n                accountContext.bitmapCurrencyId,\n                accountContext.nextSettleTime,\n                trades\n            );\n            if (didIncurDebt) {\n                accountContext.hasDebt = Constants.HAS_ASSET_DEBT | accountContext.hasDebt;\n            }\n        } else {\n            // NOTE: we return portfolio state here instead of setting it inside executeTradesArrayBatch\n            // because we want to only write to storage once after all trades are completed\n            (postTradeState, netCash) = TradingAction.executeTradesArrayBatch(\n                account,\n                currencyId,\n                portfolioState,\n                trades\n            );\n        }\n    }\n\n    /// @notice When lending, adding liquidity or minting nTokens the account must have a sufficient cash balance\n    /// to do so.\n    function _checkSufficientCash(BalanceState memory balanceState, int256 amountInternalPrecision)\n        private\n        pure\n    {\n        // The total cash position at this point is: storedCashBalance + netCashChange + netAssetTransferInternalPrecision\n        require(\n            amountInternalPrecision >= 0 &&\n                balanceState.storedCashBalance\n                .add(balanceState.netCashChange)\n                .add(balanceState.netAssetTransferInternalPrecision) >= amountInternalPrecision,\n            \"Insufficient cash\"\n        );\n    }\n\n    function _settleAccountIfRequired(address account)\n        private\n        returns (AccountContext memory)\n    {\n        AccountContext memory accountContext = AccountContextHandler.getAccountContext(account);\n        if (accountContext.mustSettleAssets()) {\n            // Returns a new memory reference to account context\n            return SettleAssetsExternal.settleAccount(account, accountContext);\n        } else {\n            return accountContext;\n        }\n    }\n\n    /// @notice Get a list of deployed library addresses (sorted by library name)\n    function getLibInfo() external view returns (address, address, address, address, address, address) {\n        return (\n            address(FreeCollateralExternal), \n            address(MigrateIncentives), \n            address(SettleAssetsExternal), \n            address(TradingAction),\n            address(nTokenMintAction), \n            address(nTokenRedeemAction)\n        );\n    }\n}\n","sourcePath":"contracts/external/actions/BatchAction.sol","type":"contract"}