{"abi":[{"anonymous":false,"inputs":[{"indexed":true,"internalType":"address","name":"account","type":"address"},{"indexed":true,"internalType":"address","name":"operator","type":"address"},{"indexed":false,"internalType":"bool","name":"approved","type":"bool"}],"name":"ApprovalForAll","type":"event"},{"anonymous":false,"inputs":[{"indexed":true,"internalType":"address","name":"operator","type":"address"},{"indexed":true,"internalType":"address","name":"from","type":"address"},{"indexed":true,"internalType":"address","name":"to","type":"address"},{"indexed":false,"internalType":"uint256[]","name":"ids","type":"uint256[]"},{"indexed":false,"internalType":"uint256[]","name":"values","type":"uint256[]"}],"name":"TransferBatch","type":"event"},{"anonymous":false,"inputs":[{"indexed":true,"internalType":"address","name":"operator","type":"address"},{"indexed":true,"internalType":"address","name":"from","type":"address"},{"indexed":true,"internalType":"address","name":"to","type":"address"},{"indexed":false,"internalType":"uint256","name":"id","type":"uint256"},{"indexed":false,"internalType":"uint256","name":"value","type":"uint256"}],"name":"TransferSingle","type":"event"},{"anonymous":false,"inputs":[{"indexed":false,"internalType":"string","name":"value","type":"string"},{"indexed":true,"internalType":"uint256","name":"id","type":"uint256"}],"name":"URI","type":"event"},{"inputs":[{"internalType":"address","name":"account","type":"address"},{"internalType":"uint256","name":"id","type":"uint256"}],"name":"balanceOf","outputs":[{"internalType":"uint256","name":"","type":"uint256"}],"stateMutability":"view","type":"function"},{"inputs":[{"internalType":"address[]","name":"accounts","type":"address[]"},{"internalType":"uint256[]","name":"ids","type":"uint256[]"}],"name":"balanceOfBatch","outputs":[{"internalType":"uint256[]","name":"","type":"uint256[]"}],"stateMutability":"view","type":"function"},{"inputs":[{"internalType":"uint256[]","name":"ids","type":"uint256[]"},{"internalType":"uint256[]","name":"amounts","type":"uint256[]"}],"name":"decodeToAssets","outputs":[{"components":[{"internalType":"uint256","name":"currencyId","type":"uint256"},{"internalType":"uint256","name":"maturity","type":"uint256"},{"internalType":"uint256","name":"assetType","type":"uint256"},{"internalType":"int256","name":"notional","type":"int256"},{"internalType":"uint256","name":"storageSlot","type":"uint256"},{"internalType":"enum AssetStorageState","name":"storageState","type":"uint8"}],"internalType":"struct PortfolioAsset[]","name":"","type":"tuple[]"}],"stateMutability":"view","type":"function"},{"inputs":[{"internalType":"uint16","name":"currencyId","type":"uint16"},{"internalType":"uint40","name":"maturity","type":"uint40"},{"internalType":"uint8","name":"assetType","type":"uint8"}],"name":"encodeToId","outputs":[{"internalType":"uint256","name":"","type":"uint256"}],"stateMutability":"pure","type":"function"},{"inputs":[],"name":"getLibInfo","outputs":[{"internalType":"address","name":"","type":"address"},{"internalType":"address","name":"","type":"address"}],"stateMutability":"view","type":"function"},{"inputs":[{"internalType":"address","name":"account","type":"address"},{"internalType":"address","name":"operator","type":"address"}],"name":"isApprovedForAll","outputs":[{"internalType":"bool","name":"","type":"bool"}],"stateMutability":"view","type":"function"},{"inputs":[],"name":"owner","outputs":[{"internalType":"address","name":"","type":"address"}],"stateMutability":"view","type":"function"},{"inputs":[],"name":"pauseGuardian","outputs":[{"internalType":"address","name":"","type":"address"}],"stateMutability":"view","type":"function"},{"inputs":[],"name":"pauseRouter","outputs":[{"internalType":"address","name":"","type":"address"}],"stateMutability":"view","type":"function"},{"inputs":[{"internalType":"address","name":"from","type":"address"},{"internalType":"address","name":"to","type":"address"},{"internalType":"uint256[]","name":"ids","type":"uint256[]"},{"internalType":"uint256[]","name":"amounts","type":"uint256[]"},{"internalType":"bytes","name":"data","type":"bytes"}],"name":"safeBatchTransferFrom","outputs":[],"stateMutability":"payable","type":"function"},{"inputs":[{"internalType":"address","name":"from","type":"address"},{"internalType":"address","name":"to","type":"address"},{"internalType":"uint256","name":"id","type":"uint256"},{"internalType":"uint256","name":"amount","type":"uint256"},{"internalType":"bytes","name":"data","type":"bytes"}],"name":"safeTransferFrom","outputs":[],"stateMutability":"payable","type":"function"},{"inputs":[{"internalType":"address","name":"operator","type":"address"},{"internalType":"bool","name":"approved","type":"bool"}],"name":"setApprovalForAll","outputs":[],"stateMutability":"nonpayable","type":"function"},{"inputs":[{"internalType":"address","name":"account","type":"address"},{"internalType":"uint256","name":"id","type":"uint256"}],"name":"signedBalanceOf","outputs":[{"internalType":"int256","name":"notional","type":"int256"}],"stateMutability":"view","type":"function"},{"inputs":[{"internalType":"address[]","name":"accounts","type":"address[]"},{"internalType":"uint256[]","name":"ids","type":"uint256[]"}],"name":"signedBalanceOfBatch","outputs":[{"internalType":"int256[]","name":"","type":"int256[]"}],"stateMutability":"view","type":"function"},{"inputs":[{"internalType":"bytes4","name":"interfaceId","type":"bytes4"}],"name":"supportsInterface","outputs":[{"internalType":"bool","name":"","type":"bool"}],"stateMutability":"pure","type":"function"}],"bytecode":"608060405234801561001057600080fd5b506138d7806100206000396000f3fe6080604052600436106100e75760003560e01c8063735a1dc81161008a578063a22cb46511610059578063a22cb4651461026a578063c4c96dae1461028a578063e985e9c5146102ad578063f242432a146102cd576100e7565b8063735a1dc81461020057806381a868551461022057806382463367146102405780638da5cb5b14610255576100e7565b806324a3d622116100c657806324a3d6221461016f5780632eb2c2d6146101915780633fa6b808146101a65780634e1273f4146101d3576100e7565b8062fdd58e146100ec57806301ffc9a7146101225780630fac8f091461014f575b600080fd5b3480156100f857600080fd5b5061010c61010736600461312d565b6102e0565b6040516101199190613630565b60405180910390f35b34801561012e57600080fd5b5061014261013d3660046131d8565b610312565b6040516101199190613625565b34801561015b57600080fd5b5061010c61016a36600461312d565b61032c565b34801561017b57600080fd5b50610184610380565b60405161011991906133f4565b6101a461019f366004612fc9565b61038f565b005b3480156101b257600080fd5b506101c66101c1366004613158565b610557565b6040516101199190613571565b3480156101df57600080fd5b506101f36101ee366004613158565b610572565b604051610119919061352d565b34801561020c57600080fd5b5061010c61021b36600461333c565b610635565b34801561022c57600080fd5b506101f361023b366004613158565b61065a565b34801561024c57600080fd5b50610184610713565b34801561026157600080fd5b50610184610722565b34801561027657600080fd5b506101a46102853660046130fc565b610739565b34801561029657600080fd5b5061029f6107a8565b6040516101199291906134a7565b3480156102b957600080fd5b506101426102c8366004612f91565b6107d6565b6101a46102db366004613083565b61082e565b6000806102ed848461032c565b9050600081126103055761030081610a23565b610308565b60005b9150505b92915050565b6001600160e01b03198116636cdb3d1360e11b145b919050565b60008061033884610a36565b905061034381610ad7565b156103625761035b84826060015161ffff1685610ae4565b9150610379565b610308610373858360400151610b2f565b84610b58565b5092915050565b6002546001600160a01b031681565b6103998888610bde565b6000806103a888888888610c7e565b9150915080156103e1576103bc89336107d6565b6103e15760405162461bcd60e51b81526004016103d8906136c0565b60405180910390fd5b6000806103ef8c8c86610dc8565b915091506104028c8c84848a8a89610f68565b8a6001600160a01b03168c6001600160a01b0316336001600160a01b03167f4a39dc06d4c0dbc64b70af90fd698a233a518aa5d07e595d983b8c0526c8f7fb8d8d8d8d60405161045594939291906135f3565b60405180910390a46104668b611246565b15610549577fbc197c819b3e337a6f9652dd10becd7eef83032af3b9d958d3d42f66941466216001600160e01b0319168b6001600160a01b031663bc197c81338f8e8e8e8e8e8e6040518963ffffffff1660e01b81526004016104d0989796959493929190613408565b602060405180830381600087803b1580156104ea57600080fd5b505af11580156104fe573d6000803e3d6000fd5b505050506040513d601f19601f8201168201806040525081019061052291906131f4565b6001600160e01b031916146105495760405162461bcd60e51b81526004016103d8906137b9565b505050505050505050505050565b6060600061056786868686610c7e565b509695505050505050565b606083821461058057600080fd5b6000846001600160401b038111801561059857600080fd5b506040519080825280602002602001820160405280156105c2578160200160208202803683370190505b50905060005b8581101561062b5761060c8787838181106105df57fe5b90506020020160208101906105f49190612f75565b86868481811061060057fe5b905060200201356102e0565b82828151811061061857fe5b60209081029190910101526001016105c8565b5095945050505050565b60006106508461ffff168464ffffffffff168460ff1661124c565b90505b9392505050565b606083821461066857600080fd5b6000846001600160401b038111801561068057600080fd5b506040519080825280602002602001820160405280156106aa578160200160208202803683370190505b50905060005b8581101561062b576106f48787838181106106c757fe5b90506020020160208101906106dc9190612f75565b8686848181106106e857fe5b9050602002013561032c565b82828151811061070057fe5b60209081029190910101526001016106b0565b6001546001600160a01b031681565b60005464010000000090046001600160a01b031681565b3360008181526007602090815260408083206001600160a01b038716808552925291829020805460ff191685151517905590519091907f17307eab39ab6107e8899845ad3d59bd9653f200f220920489ca2b5937696c319061079c908590613625565b60405180910390a35050565b734763672dEa3bF087929d5537B6BAfeB8e6938F467301713633a1b85a4a3d2f9430C68Bd4392c4a90eA9091565b6001600160a01b03811660009081526006602052604081205460ff16156107ff5750600161030c565b506001600160a01b03918216600090815260076020908152604080832093909416825291909152205460ff1690565b6108388686610bde565b610840612e31565b831561093657604080516001808252818301909252600091816020015b610865612e5f565b81526020019060019003908161085d57905050905060008160008151811061088957fe5b6020026020010151905061089c876112a7565b6040840152602083015281526108b1866112c4565b6060820152805160208201516108c89190426112da565b6108d3898984610dc8565b5080935050876001600160a01b0316896001600160a01b0316336001600160a01b03167fc3d58168c5ae7397731d063d5bbf3d657854427343f4c083240f7aacaa2d0f628a8a6040516109279291906137df565b60405180910390a45050610942565b61093f87610a36565b90505b61094a612e31565b61095a8888848488886000610f68565b61096387611246565b15610a195760405163f23a6e6160e01b808252906001600160a01b0389169063f23a6e61906109a09033908d908c908c908c908c9060040161346c565b602060405180830381600087803b1580156109ba57600080fd5b505af11580156109ce573d6000803e3d6000fd5b505050506040513d601f19601f820116820180604052508101906109f291906131f4565b6001600160e01b03191614610a195760405162461bcd60e51b81526004016103d8906137b9565b5050505050505050565b600080821215610a3257600080fd5b5090565b610a3e612e31565b6000610a48611311565b6001600160a01b039390931660009081526020938452604090819020815160a081018352905464ffffffffff8116825265010000000000810460f81b6001600160f81b03191695820195909552600160301b850460ff1691810191909152600160381b840461ffff166060820152600160481b90930460701b6001600160701b03191660808401525090919050565b6060015161ffff16151590565b600080600080610af3856112a7565b9250925092508583141580610b09575060018114155b15610b1a5760009350505050610653565b610b2587848461131e565b9350505050610653565b60606000610b3d8484611363565b90506001815111610b4f57905061030c565b6106538161147a565b600080600080610b67856112a7565b92509250925060005b8651811015610bd4576000878281518110610b8757fe5b60200260200101519050848160000151148015610ba75750838160200151145b8015610bb65750828160400151145b15610bcb5760600151945061030c9350505050565b50600101610b70565b5050505092915050565b806001600160a01b0316826001600160a01b031614158015610c0857506001600160a01b03811615155b8015610c1d57506001600160a01b0381163014155b610c395760405162461bcd60e51b81526004016103d89061366c565b336001600160a01b0383161480610c555750610c5582336107d6565b610c715760405162461bcd60e51b81526004016103d8906136c0565b610c7a82611638565b5050565b60606000848314610c8e57600080fd5b600080866001600160401b0381118015610ca757600080fd5b50604051908082528060200260200182016040528015610ce157816020015b610cce612e5f565b815260200190600190039081610cc65790505b50905060005b87811015610dbb578015610d3b57888860018303818110610d0457fe5b90506020020135898983818110610d1757fe5b9050602002013511610d3b5760405162461bcd60e51b81526004016103d89061378d565b6000828281518110610d4957fe5b60200260200101519050610d6e8a8a84818110610d6257fe5b905060200201356112a7565b604084015260208301819052818352610d889190426112da565b878783818110610d9457fe5b602002919091013560608301819052600013159050610db257600193505b50600101610ce7565b5097909650945050505050565b610dd0612e31565b610dd8612e31565b6000610de385610a36565b9050610dee81611683565b15610e7f576040516337b5fc2160e11b81527301713633a1b85a4a3d2f9430C68Bd4392c4a90eA90636f6bf84290610e2c90889085906004016134c1565b60a06040518083038186803b158015610e4457600080fd5b505af4158015610e58573d6000803e3d6000fd5b505050506040513d601f19601f82011682018060405250810190610e7c91906132a6565b90505b610e8a8582866116d7565b9050610e968186611758565b610e9f8461185c565b6000610eaa87610a36565b9050610eb581611683565b15610f46576040516337b5fc2160e11b81527301713633a1b85a4a3d2f9430C68Bd4392c4a90eA90636f6bf84290610ef3908a9085906004016134c1565b60a06040518083038186803b158015610f0b57600080fd5b505af4158015610f1f573d6000803e3d6000fd5b505050506040513d601f19601f82011682018060405250810190610f4391906132a6565b90505b610f518782876116d7565b9050610f5d8188611758565b969095509350505050565b60008060208410610f85576000610f81858701876131c0565b9250505b6001600160e01b03198216636689064360e01b1480610fb457506001600160e01b03198216630541f52760e41b145b80610fcf57506001600160e01b03198216633735195360e11b145b80610fea57506001600160e01b03198216630276b64b60e01b145b156110fa57610ffd6024600486886137ed565b81019061100a9190612f75565b9050886001600160a01b0316816001600160a01b0316148061104d5750876001600160a01b0316816001600160a01b031614801561104d575061104d88336107d6565b6110695760405162461bcd60e51b81526004016103d890613695565b600080306001600160a01b03163488886040516110879291906133e4565b60006040518083038185875af1925050503d80600081146110c4576040519150601f19603f3d011682016040523d82523d6000602084013e6110c9565b606091505b5091509150816110d8826118ab565b906110f65760405162461bcd60e51b81526004016103d89190613639565b5050505b886001600160a01b0316816001600160a01b031614158015611129575060208701516001600160f81b03191615155b1561119657604051636ccc642f60e01b8152734763672dEa3bF087929d5537B6BAfeB8e6938F4690636ccc642f90611165908c906004016133f4565b60006040518083038186803b15801561117d57600080fd5b505af4158015611191573d6000803e3d6000fd5b505050505b8280156111b55750876001600160a01b0316816001600160a01b031614155b80156111ce575060208601516001600160f81b03191615155b1561123b57604051636ccc642f60e01b8152734763672dEa3bF087929d5537B6BAfeB8e6938F4690636ccc642f9061120a908b906004016133f4565b60006040518083038186803b15801561122257600080fd5b505af4158015611236573d6000803e3d6000fd5b505050505b505050505050505050565b3b151590565b6000613fff84111561125d57600080fd5b64ffffffffff83111561126f57600080fd5b600882111561127d57600080fd5b5067ffff000000000000603084901b1665ffffffffff00600884901b161760ff8216179392505050565b61ffff603082901c169164ffffffffff600883901c169160ff1690565b60006001600160ff1b03821115610a3257600080fd5b6112f06112e68461190b565b60ff168383611921565b61130c5760405162461bcd60e51b81526004016103d890613763565b505050565b60008061030c6001611971565b60008061132961198a565b6001600160a01b03861660009081526020918252604080822087835283528082208683529092522054600f90810b900b9150509392505050565b606060108260ff16111561137657600080fd5b6000611380611997565b6001600160a01b038516600090815260208290526040812091925060ff85166001600160401b03811180156113b457600080fd5b506040519080825280602002602001820160405280156113ee57816020015b6113db612e5f565b8152602001906001900390816113d35790505b50905060005b8560ff1681101561062b57600083826010811061140d57fe5b019050600083838151811061141e57fe5b602090810291909101810151835461ffff8116825264ffffffffff620100008204169282019290925260ff600160381b8304166040820152600160401b909104600a90810b900b606082015260800191909152506001016113f4565b80516000816001600160401b038111801561149457600080fd5b506040519080825280602002602001820160405280156114be578160200160208202803683370190505b50905060005b8281101561151b5760008482815181106114da57fe5b602002602001015190506114fb81600001518260200151836040015161124c565b83838151811061150757fe5b6020908102919091010152506001016114c4565b5060015b8281101561163257805b600081118015611561575082818151811061154057fe5b602002602001015183600183038151811061155757fe5b6020026020010151115b156116295782818151811061157257fe5b602002602001015183600183038151811061158957fe5b60200260200101518460018403815181106115a057fe5b602002602001018584815181106115b357fe5b60200260200101828152508281525050508481815181106115d057fe5b60200260200101518560018303815181106115e757fe5b60200260200101518660018403815181106115fe57fe5b6020026020010187848151811061161157fe5b60209081029190910101919091525260001901611529565b5060010161151f565b50505050565b6001600160a01b03811661164b57600080fd5b6001600160a01b03811630141561166157600080fd5b600061166c826119a4565b5050505061ffff16905080600014610c7a57600080fd5b60004261168f83610ad7565b156116b05761169d81611a0d565b835164ffffffffff161091506103279050565b825164ffffffffff16158015906116cf5750825164ffffffffff168110155b915050610327565b6116df612e31565b6116e883611683565b156117055760405162461bcd60e51b81526004016103d89061370d565b61170e83610ad7565b156117235761171e848484611a2e565b611750565b60006117358585604001518551611af6565b90506117418184611b88565b61174e8486836000611be6565b505b509092915050565b6000611762611311565b6001600160a01b03831660008181526020838152604080832088518154938a0151838b015160608c015160808d015160701c600160481b027affffffffffffffffffffffffffffffffffff0000000000000000001961ffff909216600160381b0268ffff000000000000001960ff94909416600160301b0266ff0000000000001960f89690961c650100000000000265ff00000000001964ffffffffff90981664ffffffffff19909b169a909a1796909616989098179390931693909317169490941716929092179091555192935090917f6bd4b121bca854a191536a2ca891155c42ee2fb23f307fb34e8bc65cfcb5412e9190a2505050565b60005b8151811015610c7a5761188882828151811061187757fe5b602002602001015160600151611cbd565b82828151811061189457fe5b60209081029190910101516060015260010161185f565b60606044825110156118f1575060408051808201909152601d81527f5472616e73616374696f6e2072657665727465642073696c656e746c790000006020820152610327565b6004820191508180602001905181019061030c9190613210565b60008061191783611ccb565b60ff169392505050565b60008061192d83611ce8565b9050600061194461193d87611d04565b8390611da8565b90508085111561195957600092505050610653565b60006119658587611e02565b98975050505050505050565b6000620f424082601381111561198357fe5b0192915050565b60008061030c600c611971565b60008061030c600d611971565b6000806000806000806119b5611f0d565b6001600160a01b039097166000908152602097909752505060409094205461ffff81169563ffffffff62010000830481169650600160301b830416945060ff600160501b8304169350600160581b90910460d81b9150565b600062015180821015611a1f57600080fd5b62015180825b06909103919050565b611a3782610ad7565b611a4057600080fd5b606082015161ffff1660005b8251811015611aef576000838281518110611a6357fe5b60200260200101519050806060015160001415611a805750611ae7565b80518314611a8d57600080fd5b6040810151600114611a9e57600080fd5b6000611ac087858460200151896000015164ffffffffff168660600151611f1a565b90506000811215611ae457602086018051600160f81b176001600160f81b03191690525b50505b600101611a4c565b5050505050565b611afe612e9f565b611b06612e9f565b60ff8416611b15579050610653565b611b1f8585610b2f565b815260ff84166060820152826001600160401b0381118015611b4057600080fd5b50604051908082528060200260200182016040528015611b7a57816020015b611b67612e5f565b815260200190600190039081611b5f5790505b506020820152949350505050565b60005b815181101561130c576000828281518110611ba257fe5b60200260200101519050806060015160001415611bbf5750611bde565b611bdc848260000151836020015184604001518560600151612087565b505b600101611b8b565b6000808080611bf5868861218c565b64ffffffffff81168c5292965090945092509050611c1288611683565b15611c1c57600080fd5b60ff8216604089015284611c3b57600760ff83161115611c3b57600080fd5b8315611c5e57602088018051600160f81b176001600160f81b0319169052611c6d565b602088018051607f60f91b1690525b611c7a88608001516123cb565b6001600160701b031916608089015260005b831561123b5760f084901c818114611caf57611caf8a826001600160ff1b612446565b60109490941b939050611c8c565b600061030c60001983612645565b600080611cd6612693565b60009384526020525050604090205490565b60006276a700821015611cfa57600080fd5b6276a70082611a25565b60008160011415611d1957506276a700610327565b8160021415611d2c575062ed4e00610327565b8160031415611d4057506301da9c00610327565b8160041415611d5457506303b53800610327565b8160051415611d6857506309450c00610327565b8160061415611d7c575063128a1800610327565b8160071415611d9057506325143000610327565b60405162461bcd60e51b81526004016103d8906136e6565b600082820183811015610653576040805162461bcd60e51b815260206004820152601b60248201527f536166654d6174683a206164646974696f6e206f766572666c6f770000000000604482015290519081900360640190fd5b6000806000611e1085611a0d565b905062015180840615611e2a576000809250925050611f06565b838110611e3e576000809250925050611f06565b6201518081850304605a8111611e5b57925060019150611f069050565b6101688111611e9a576000620151806207e900840604820160591901905060068104605a0160068281611e8a57fe5b0660001494509450505050611f06565b6108708111611eca5760006201518062278d00840604820161016719019050601e8104608701601e8281611e8a57fe5b611de28111611efa576000620151806276a700840604820161086f19019050605a810460c301605a8281611e8a57fe5b61010060009350935050505b9250929050565b60008061030c6002611971565b600080611f2787876126a0565b90506000611f3361198a565b6001600160a01b0389166000908152602082815260408083208b845282528083208a8452909152812091925080611f6a888a611e02565b9150915080611f7857600080fd5b611f8285836126d5565b15612011578254600090611f9e908990600f90810b900b612705565b905060016001607f1b03198112801590611fbf575060016001607f1b038113155b611fc857600080fd5b83546001600160801b0319166001600160801b03600f83900b1617845580611ff957611ff68684600061271b565b95505b6120048c8c88612766565b955061207e945050505050565b86156120755760016001607f1b03198712801590612036575060016001607f1b038713155b61203f57600080fd5b82546001600160801b0319166001600160801b03600f89900b161783556120688583600161271b565b94506120758b8b87612766565b86955050505050505b95945050505050565b845161209690858585856127c0565b156120a057611aef565b6040850151156120cd5760006120bd8660200151868686866127c0565b905080156120cb5750611aef565b505b6120d6826128d9565b156120e95760008112156120e957600080fd5b6a7fffffffffffffffffffff19811280159061211057506a7fffffffffffffffffffff8113155b61211957600080fd5b8460200151518560400151141561213d5761213785602001516128ef565b60208601525b6000856020015186604001518151811061215357fe5b6020908102919091018101519586528501939093526040808501929092526060840152600060a090930192909252500180516001019052565b6000808080808080805b89515181101561221d5760008a6000015182815181106121b257fe5b602002602001015190506003808111156121c857fe5b8160a0015160038111156121d857fe5b14156121e357600080fd5b60028160a0015160038111156121f557fe5b1415801561220557506060810151155b15612214576122148b836129a7565b50600101612196565b5060005b8951518110156122c05760008a60000151828151811061223d57fe5b602002602001015190506002600381111561225457fe5b8160a00151600381111561226457fe5b1415612278576080810151600090556122b7565b60018160a00151600381111561228a57fe5b14156122a3576080810151806122a08382612af6565b50505b6122af81868686612c27565b919650945092505b50600101612221565b50606089015160006122d0611997565b6001600160a01b038b1660009081526020829052604081209192505b8c602001515181101561239a5760008d60200151828151811061230b57fe5b602002602001015190508060600151600014156123285750612392565b60028160a00151600381111561233a57fe5b14158015612358575060038160a00151600381111561235557fe5b14155b61236157600080fd5b61236d81898989612c27565b9199509750955061238a8184876010811061238457fe5b01612af6565b600185019450505b6001016122ec565b50601083111580156123b1575064ffffffffff8411155b6123ba57600080fd5b50939a929950975095509350505050565b6000807f7fff7fff7fff7fff7fff7fff7fff7fff7fff00000000000000000000000000008316815b6001600160701b031982161561243d57600160fe1b8281161415612427576001600160f01b03198216811c92909217916010015b6010826001600160701b031916901b91506123f3565b50909392505050565b8260001080156124585750613fff8311155b61246157600080fd5b818015612475575082846060015161ffff16145b1561247f57611632565b6080840151600090815b6001600160701b03198216156125fa5760f082901c613fff1686811480156124ae5750855b156124e657506080870180516001600160f01b0319861660109093029290921c919091176001600160701b0319169052506116329050565b86811480156124f3575085155b15612548576001600160f01b03198516199290921691600360fe1b8316612526576010836001600160701b031916901b92505b506001600160701b031991821660109091021c91909117166080850152611632565b86811180156125545750855b156125ae576080888101516001600160f01b031960f08a901b88178116601086021c9690961795911b161561258857600080fd5b506001600160701b03199182166001919091016010021c91909117166080850152611632565b86811180156125bb575085155b156125c95750505050611632565b506001600160f01b0319821660108281029190911c93909317929190911b6001600160801b03191690600101612489565b8461260757505050611632565b6009811061261457600080fd5b6001600160f01b031960f087901b85171660109091021c919091176001600160701b03191660808601525050505050565b8181026000198314156126755781158061266757508282828161266457fe5b05145b61267057600080fd5b61030c565b82158061268a57508183828161268757fe5b05145b61030c57600080fd5b60008061030c6009611971565b6000806126ab612c8a565b6001600160a01b038516600090815260209182526040808220868352909252205491505092915050565b6000600182101580156126ea57506101008211155b6126f357600080fd5b50600019011b600160ff1b9081161490565b8181018281121560008312151461030c57600080fd5b60006001831015801561273057506101008311155b61273957600080fd5b81156127525750600160ff1b60001983011c8317610653565b50600160ff1b60001983011c198316610653565b601461277182612c97565b111561278f5760405162461bcd60e51b81526004016103d89061373a565b6000612799612c8a565b6001600160a01b039094166000908152602094855260408082209482529390945250912055565b6000805b86518110156128cc5760008782815181106127db57fe5b602002602001015190508481604001511415806127f9575080518714155b80612808575085816020015114155b1561281357506128c4565b60028160a00151600381111561282557fe5b14158015612843575060038160a00151600381111561284057fe5b14155b61284c57600080fd5b606081015160009061285e9086612705565b9050612869866128d9565b1561287c57600081121561287c57600080fd5b6a7fffffffffffffffffffff1981128015906128a357506a7fffffffffffffffffffff8113155b6128ac57600080fd5b6060820152600160a0909101819052915061207e9050565b6001016127c4565b5060009695505050505050565b60006002821080159061030c5750506008101590565b606060008251600014612906578251600202612909565b60015b90506000816001600160401b038111801561292357600080fd5b5060405190808252806020026020018201604052801561295d57816020015b61294a612e5f565b8152602001906001900390816129425790505b50905060005b845181101561299f5784818151811061297857fe5b602002602001015182828151811061298c57fe5b6020908102919091010152600101612963565b509392505050565b81515181106129b557600080fd5b60008260600151116129c657600080fd5b6000826000015182815181106129d857fe5b60200260200101519050600260038111156129ef57fe5b8160a0015160038111156129ff57fe5b14158015612a1d575060038160a001516003811115612a1a57fe5b14155b612a2657600080fd5b606083018051600019019052600080805b855151811015612a9957600086600001518281518110612a5357fe5b60200260200101519050828160800151118015612a80575060028160a001516003811115612a7d57fe5b14155b15612a9057806080015192508193505b50600101612a37565b5081841415612ab2575050600260a09190910152610c7a565b600085600001518381518110612ac457fe5b602090810291909101015160808581018051918301805190915252600160a09182015260029401939093525050505050565b815115801590612b0957508151613fff10155b612b1257600080fd5b81602001516000108015612b2f5750602082015164ffffffffff10155b612b3857600080fd5b81604001516000108015612b5157506040820151600810155b612b5a57600080fd5b60608201516a7fffffffffffffffffffff1913801590612b89575060608201516a7fffffffffffffffffffff12155b612b9257600080fd5b8151815460208401516040850151606090950151600a0b6affffffffffffffffffffff16600160401b0272ffffffffffffffffffffff00000000000000001960ff909616600160381b0267ff000000000000001964ffffffffff909316620100000266ffffffffff00001961ffff90961661ffff19909516949094179490941692909217169190911792909216919091179055565b600080600080612c3688612d67565b9050841580612c4457508085115b15612c4d578094505b8680612c5d575060008860600151125b965061ffff861615612c6e57600080fd5b50509451939560109390931c60f09490941b9390931793509150565b60008061030c600b611971565b600181901c7f5555555555555555555555555555555555555555555555555555555555555555908116911601600281901c7f3333333333333333333333333333333333333333333333333333333333333333908116911601600481901c7f07070707070707070707070707070707070707070707070707070707070707079190911601600881901c7e0f000f000f000f000f000f000f000f000f000f000f000f000f000f000f000f908116911601601081901c01602081901c01604081901c01608081901c60ff90811691160190565b6000808260400151118015612d8157506040820151600810155b612d8a57600080fd5b6040820151600210612da157506020810151610327565b6000612db36001846040015103611d04565b6020840151909150610653906276a70090612dce9084612dd4565b90611da8565b600082821115612e2b576040805162461bcd60e51b815260206004820152601e60248201527f536166654d6174683a207375627472616374696f6e206f766572666c6f770000604482015290519081900360640190fd5b50900390565b6040805160a08101825260008082526020820181905291810182905260608101829052608081019190915290565b6040518060c00160405280600081526020016000815260200160008152602001600081526020016000815260200160006003811115612e9a57fe5b905290565b6040518060800160405280606081526020016060815260200160008152602001600081525090565b60008083601f840112612ed8578081fd5b5081356001600160401b03811115612eee578182fd5b6020830191508360208083028501011115611f0657600080fd5b80516001600160701b03198116811461032757600080fd5b60008083601f840112612f31578182fd5b5081356001600160401b03811115612f47578182fd5b602083019150836020828501011115611f0657600080fd5b80516103278161386f565b805161032781613892565b600060208284031215612f86578081fd5b813561065381613841565b60008060408385031215612fa3578081fd5b8235612fae81613841565b91506020830135612fbe81613841565b809150509250929050565b60008060008060008060008060a0898b031215612fe4578384fd5b8835612fef81613841565b97506020890135612fff81613841565b965060408901356001600160401b038082111561301a578586fd5b6130268c838d01612ec7565b909850965060608b013591508082111561303e578586fd5b61304a8c838d01612ec7565b909650945060808b0135915080821115613062578384fd5b5061306f8b828c01612f20565b999c989b5096995094979396929594505050565b60008060008060008060a0878903121561309b578182fd5b86356130a681613841565b955060208701356130b681613841565b9450604087013593506060870135925060808701356001600160401b038111156130de578283fd5b6130ea89828a01612f20565b979a9699509497509295939492505050565b6000806040838503121561310e578182fd5b823561311981613841565b915060208301358015158114612fbe578182fd5b6000806040838503121561313f578182fd5b823561314a81613841565b946020939093013593505050565b6000806000806040858703121561316d578182fd5b84356001600160401b0380821115613183578384fd5b61318f88838901612ec7565b909650945060208701359150808211156131a7578384fd5b506131b487828801612ec7565b95989497509550505050565b6000602082840312156131d1578081fd5b5035919050565b6000602082840312156131e9578081fd5b813561065381613859565b600060208284031215613205578081fd5b815161065381613859565b600060208284031215613221578081fd5b81516001600160401b0380821115613237578283fd5b818401915084601f83011261324a578283fd5b81518181111561325657fe5b604051601f8201601f19168101602001838111828210171561327457fe5b60405281815283820160200187101561328b578485fd5b61329c826020830160208701613815565b9695505050505050565b600060a082840312156132b7578081fd5b60405160a081018181106001600160401b03821117156132d357fe5b60405282516132e18161387f565b815260208301516001600160f81b0319811681146132fd578283fd5b602082015261330e60408401612f6a565b604082015261331f60608401612f5f565b606082015261333060808401612f08565b60808201529392505050565b600080600060608486031215613350578081fd5b833561335b8161386f565b9250602084013561336b8161387f565b9150604084013561337b81613892565b809150509250925092565b81835260006001600160fb1b0383111561339e578081fd5b6020830280836020870137939093016020019283525090919050565b60008284528282602086013780602084860101526020601f19601f85011685010190509392505050565b6000828483379101908152919050565b6001600160a01b0391909116815260200190565b6001600160a01b0389811682528816602082015260a060408201819052600090613435908301888a613386565b8281036060840152613448818789613386565b9050828103608084015261345d8185876133ba565b9b9a5050505050505050505050565b6001600160a01b03878116825286166020820152604081018590526060810184905260a06080820181905260009061196590830184866133ba565b6001600160a01b0392831681529116602082015260400190565b6001600160a01b03929092168252805164ffffffffff166020808401919091528101516001600160f81b03191660408084019190915281015160ff1660608084019190915281015161ffff1660808084019190915201516001600160701b03191660a082015260c00190565b6020808252825182820181905260009190848201906040850190845b8181101561356557835183529284019291840191600101613549565b50909695505050505050565b602080825282518282018190526000919060409081850190868401855b828110156135e65781518051855286810151878601528581015186860152606080820151908601526080808201519086015260a09081015190600482106135d157fe5b85015260c0909301929085019060010161358e565b5091979650505050505050565b600060408252613607604083018688613386565b828103602084015261361a818587613386565b979650505050505050565b901515815260200190565b90815260200190565b6000602082528251806020840152613658816040850160208701613815565b601f01601f19169190910160400192915050565b6020808252600f908201526e496e76616c6964206164647265737360881b604082015260600190565b602080825260119082015270155b985d5d1a1bdc9a5e99590818d85b1b607a1b604082015260600190565b6020808252600c908201526b155b985d5d1a1bdc9a5e995960a21b604082015260600190565b6020808252600d908201526c092dcecc2d8d2c840d2dcc8caf609b1b604082015260600190565b6020808252601390820152724163636f756e74206d75737420736574746c6560681b604082015260600190565b6020808252600f908201526e4f766572206d61782061737365747360881b604082015260600190565b60208082526010908201526f496e76616c6964206d6174757269747960801b604082015260600190565b60208082526012908201527112511cc81b5d5cdd081899481cdbdc9d195960721b604082015260600190565b6020808252600c908201526b139bdd081858d8d95c1d195960a21b604082015260600190565b918252602082015260400190565b600080858511156137fc578182fd5b83861115613808578182fd5b5050820193919092039150565b60005b83811015613830578181015183820152602001613818565b838111156116325750506000910152565b6001600160a01b038116811461385657600080fd5b50565b6001600160e01b03198116811461385657600080fd5b61ffff8116811461385657600080fd5b64ffffffffff8116811461385657600080fd5b60ff8116811461385657600080fdfea264697066735822122004fb3323a9552ead7044be41b2d326c7c87d5f575bc1c147a7aba924aad314b464736f6c63430007060033","bytecodeSha1":"ad542a50fd9521f9faf16216c20b79ea94d56047","compiler":{"evm_version":"istanbul","optimizer":{"enabled":true,"runs":200},"version":"0.7.6+commit.7338295f"},"contractName":"ERC1155Action","deployedBytecode":"6080604052600436106100e75760003560e01c8063735a1dc81161008a578063a22cb46511610059578063a22cb4651461026a578063c4c96dae1461028a578063e985e9c5146102ad578063f242432a146102cd576100e7565b8063735a1dc81461020057806381a868551461022057806382463367146102405780638da5cb5b14610255576100e7565b806324a3d622116100c657806324a3d6221461016f5780632eb2c2d6146101915780633fa6b808146101a65780634e1273f4146101d3576100e7565b8062fdd58e146100ec57806301ffc9a7146101225780630fac8f091461014f575b600080fd5b3480156100f857600080fd5b5061010c61010736600461312d565b6102e0565b6040516101199190613630565b60405180910390f35b34801561012e57600080fd5b5061014261013d3660046131d8565b610312565b6040516101199190613625565b34801561015b57600080fd5b5061010c61016a36600461312d565b61032c565b34801561017b57600080fd5b50610184610380565b60405161011991906133f4565b6101a461019f366004612fc9565b61038f565b005b3480156101b257600080fd5b506101c66101c1366004613158565b610557565b6040516101199190613571565b3480156101df57600080fd5b506101f36101ee366004613158565b610572565b604051610119919061352d565b34801561020c57600080fd5b5061010c61021b36600461333c565b610635565b34801561022c57600080fd5b506101f361023b366004613158565b61065a565b34801561024c57600080fd5b50610184610713565b34801561026157600080fd5b50610184610722565b34801561027657600080fd5b506101a46102853660046130fc565b610739565b34801561029657600080fd5b5061029f6107a8565b6040516101199291906134a7565b3480156102b957600080fd5b506101426102c8366004612f91565b6107d6565b6101a46102db366004613083565b61082e565b6000806102ed848461032c565b9050600081126103055761030081610a23565b610308565b60005b9150505b92915050565b6001600160e01b03198116636cdb3d1360e11b145b919050565b60008061033884610a36565b905061034381610ad7565b156103625761035b84826060015161ffff1685610ae4565b9150610379565b610308610373858360400151610b2f565b84610b58565b5092915050565b6002546001600160a01b031681565b6103998888610bde565b6000806103a888888888610c7e565b9150915080156103e1576103bc89336107d6565b6103e15760405162461bcd60e51b81526004016103d8906136c0565b60405180910390fd5b6000806103ef8c8c86610dc8565b915091506104028c8c84848a8a89610f68565b8a6001600160a01b03168c6001600160a01b0316336001600160a01b03167f4a39dc06d4c0dbc64b70af90fd698a233a518aa5d07e595d983b8c0526c8f7fb8d8d8d8d60405161045594939291906135f3565b60405180910390a46104668b611246565b15610549577fbc197c819b3e337a6f9652dd10becd7eef83032af3b9d958d3d42f66941466216001600160e01b0319168b6001600160a01b031663bc197c81338f8e8e8e8e8e8e6040518963ffffffff1660e01b81526004016104d0989796959493929190613408565b602060405180830381600087803b1580156104ea57600080fd5b505af11580156104fe573d6000803e3d6000fd5b505050506040513d601f19601f8201168201806040525081019061052291906131f4565b6001600160e01b031916146105495760405162461bcd60e51b81526004016103d8906137b9565b505050505050505050505050565b6060600061056786868686610c7e565b509695505050505050565b606083821461058057600080fd5b6000846001600160401b038111801561059857600080fd5b506040519080825280602002602001820160405280156105c2578160200160208202803683370190505b50905060005b8581101561062b5761060c8787838181106105df57fe5b90506020020160208101906105f49190612f75565b86868481811061060057fe5b905060200201356102e0565b82828151811061061857fe5b60209081029190910101526001016105c8565b5095945050505050565b60006106508461ffff168464ffffffffff168460ff1661124c565b90505b9392505050565b606083821461066857600080fd5b6000846001600160401b038111801561068057600080fd5b506040519080825280602002602001820160405280156106aa578160200160208202803683370190505b50905060005b8581101561062b576106f48787838181106106c757fe5b90506020020160208101906106dc9190612f75565b8686848181106106e857fe5b9050602002013561032c565b82828151811061070057fe5b60209081029190910101526001016106b0565b6001546001600160a01b031681565b60005464010000000090046001600160a01b031681565b3360008181526007602090815260408083206001600160a01b038716808552925291829020805460ff191685151517905590519091907f17307eab39ab6107e8899845ad3d59bd9653f200f220920489ca2b5937696c319061079c908590613625565b60405180910390a35050565b73__$841fddfe32830bb6dbc3a02d7f16c53722$__73__$f6541b0d362a0c7d99a2a29cd3d373d61b$__9091565b6001600160a01b03811660009081526006602052604081205460ff16156107ff5750600161030c565b506001600160a01b03918216600090815260076020908152604080832093909416825291909152205460ff1690565b6108388686610bde565b610840612e31565b831561093657604080516001808252818301909252600091816020015b610865612e5f565b81526020019060019003908161085d57905050905060008160008151811061088957fe5b6020026020010151905061089c876112a7565b6040840152602083015281526108b1866112c4565b6060820152805160208201516108c89190426112da565b6108d3898984610dc8565b5080935050876001600160a01b0316896001600160a01b0316336001600160a01b03167fc3d58168c5ae7397731d063d5bbf3d657854427343f4c083240f7aacaa2d0f628a8a6040516109279291906137df565b60405180910390a45050610942565b61093f87610a36565b90505b61094a612e31565b61095a8888848488886000610f68565b61096387611246565b15610a195760405163f23a6e6160e01b808252906001600160a01b0389169063f23a6e61906109a09033908d908c908c908c908c9060040161346c565b602060405180830381600087803b1580156109ba57600080fd5b505af11580156109ce573d6000803e3d6000fd5b505050506040513d601f19601f820116820180604052508101906109f291906131f4565b6001600160e01b03191614610a195760405162461bcd60e51b81526004016103d8906137b9565b5050505050505050565b600080821215610a3257600080fd5b5090565b610a3e612e31565b6000610a48611311565b6001600160a01b039390931660009081526020938452604090819020815160a081018352905464ffffffffff8116825265010000000000810460f81b6001600160f81b03191695820195909552600160301b850460ff1691810191909152600160381b840461ffff166060820152600160481b90930460701b6001600160701b03191660808401525090919050565b6060015161ffff16151590565b600080600080610af3856112a7565b9250925092508583141580610b09575060018114155b15610b1a5760009350505050610653565b610b2587848461131e565b9350505050610653565b60606000610b3d8484611363565b90506001815111610b4f57905061030c565b6106538161147a565b600080600080610b67856112a7565b92509250925060005b8651811015610bd4576000878281518110610b8757fe5b60200260200101519050848160000151148015610ba75750838160200151145b8015610bb65750828160400151145b15610bcb5760600151945061030c9350505050565b50600101610b70565b5050505092915050565b806001600160a01b0316826001600160a01b031614158015610c0857506001600160a01b03811615155b8015610c1d57506001600160a01b0381163014155b610c395760405162461bcd60e51b81526004016103d89061366c565b336001600160a01b0383161480610c555750610c5582336107d6565b610c715760405162461bcd60e51b81526004016103d8906136c0565b610c7a82611638565b5050565b60606000848314610c8e57600080fd5b600080866001600160401b0381118015610ca757600080fd5b50604051908082528060200260200182016040528015610ce157816020015b610cce612e5f565b815260200190600190039081610cc65790505b50905060005b87811015610dbb578015610d3b57888860018303818110610d0457fe5b90506020020135898983818110610d1757fe5b9050602002013511610d3b5760405162461bcd60e51b81526004016103d89061378d565b6000828281518110610d4957fe5b60200260200101519050610d6e8a8a84818110610d6257fe5b905060200201356112a7565b604084015260208301819052818352610d889190426112da565b878783818110610d9457fe5b602002919091013560608301819052600013159050610db257600193505b50600101610ce7565b5097909650945050505050565b610dd0612e31565b610dd8612e31565b6000610de385610a36565b9050610dee81611683565b15610e7f576040516337b5fc2160e11b815273__$f6541b0d362a0c7d99a2a29cd3d373d61b$__90636f6bf84290610e2c90889085906004016134c1565b60a06040518083038186803b158015610e4457600080fd5b505af4158015610e58573d6000803e3d6000fd5b505050506040513d601f19601f82011682018060405250810190610e7c91906132a6565b90505b610e8a8582866116d7565b9050610e968186611758565b610e9f8461185c565b6000610eaa87610a36565b9050610eb581611683565b15610f46576040516337b5fc2160e11b815273__$f6541b0d362a0c7d99a2a29cd3d373d61b$__90636f6bf84290610ef3908a9085906004016134c1565b60a06040518083038186803b158015610f0b57600080fd5b505af4158015610f1f573d6000803e3d6000fd5b505050506040513d601f19601f82011682018060405250810190610f4391906132a6565b90505b610f518782876116d7565b9050610f5d8188611758565b969095509350505050565b60008060208410610f85576000610f81858701876131c0565b9250505b6001600160e01b03198216636689064360e01b1480610fb457506001600160e01b03198216630541f52760e41b145b80610fcf57506001600160e01b03198216633735195360e11b145b80610fea57506001600160e01b03198216630276b64b60e01b145b156110fa57610ffd6024600486886137ed565b81019061100a9190612f75565b9050886001600160a01b0316816001600160a01b0316148061104d5750876001600160a01b0316816001600160a01b031614801561104d575061104d88336107d6565b6110695760405162461bcd60e51b81526004016103d890613695565b600080306001600160a01b03163488886040516110879291906133e4565b60006040518083038185875af1925050503d80600081146110c4576040519150601f19603f3d011682016040523d82523d6000602084013e6110c9565b606091505b5091509150816110d8826118ab565b906110f65760405162461bcd60e51b81526004016103d89190613639565b5050505b886001600160a01b0316816001600160a01b031614158015611129575060208701516001600160f81b03191615155b1561119657604051636ccc642f60e01b815273__$841fddfe32830bb6dbc3a02d7f16c53722$__90636ccc642f90611165908c906004016133f4565b60006040518083038186803b15801561117d57600080fd5b505af4158015611191573d6000803e3d6000fd5b505050505b8280156111b55750876001600160a01b0316816001600160a01b031614155b80156111ce575060208601516001600160f81b03191615155b1561123b57604051636ccc642f60e01b815273__$841fddfe32830bb6dbc3a02d7f16c53722$__90636ccc642f9061120a908b906004016133f4565b60006040518083038186803b15801561122257600080fd5b505af4158015611236573d6000803e3d6000fd5b505050505b505050505050505050565b3b151590565b6000613fff84111561125d57600080fd5b64ffffffffff83111561126f57600080fd5b600882111561127d57600080fd5b5067ffff000000000000603084901b1665ffffffffff00600884901b161760ff8216179392505050565b61ffff603082901c169164ffffffffff600883901c169160ff1690565b60006001600160ff1b03821115610a3257600080fd5b6112f06112e68461190b565b60ff168383611921565b61130c5760405162461bcd60e51b81526004016103d890613763565b505050565b60008061030c6001611971565b60008061132961198a565b6001600160a01b03861660009081526020918252604080822087835283528082208683529092522054600f90810b900b9150509392505050565b606060108260ff16111561137657600080fd5b6000611380611997565b6001600160a01b038516600090815260208290526040812091925060ff85166001600160401b03811180156113b457600080fd5b506040519080825280602002602001820160405280156113ee57816020015b6113db612e5f565b8152602001906001900390816113d35790505b50905060005b8560ff1681101561062b57600083826010811061140d57fe5b019050600083838151811061141e57fe5b602090810291909101810151835461ffff8116825264ffffffffff620100008204169282019290925260ff600160381b8304166040820152600160401b909104600a90810b900b606082015260800191909152506001016113f4565b80516000816001600160401b038111801561149457600080fd5b506040519080825280602002602001820160405280156114be578160200160208202803683370190505b50905060005b8281101561151b5760008482815181106114da57fe5b602002602001015190506114fb81600001518260200151836040015161124c565b83838151811061150757fe5b6020908102919091010152506001016114c4565b5060015b8281101561163257805b600081118015611561575082818151811061154057fe5b602002602001015183600183038151811061155757fe5b6020026020010151115b156116295782818151811061157257fe5b602002602001015183600183038151811061158957fe5b60200260200101518460018403815181106115a057fe5b602002602001018584815181106115b357fe5b60200260200101828152508281525050508481815181106115d057fe5b60200260200101518560018303815181106115e757fe5b60200260200101518660018403815181106115fe57fe5b6020026020010187848151811061161157fe5b60209081029190910101919091525260001901611529565b5060010161151f565b50505050565b6001600160a01b03811661164b57600080fd5b6001600160a01b03811630141561166157600080fd5b600061166c826119a4565b5050505061ffff16905080600014610c7a57600080fd5b60004261168f83610ad7565b156116b05761169d81611a0d565b835164ffffffffff161091506103279050565b825164ffffffffff16158015906116cf5750825164ffffffffff168110155b915050610327565b6116df612e31565b6116e883611683565b156117055760405162461bcd60e51b81526004016103d89061370d565b61170e83610ad7565b156117235761171e848484611a2e565b611750565b60006117358585604001518551611af6565b90506117418184611b88565b61174e8486836000611be6565b505b509092915050565b6000611762611311565b6001600160a01b03831660008181526020838152604080832088518154938a0151838b015160608c015160808d015160701c600160481b027affffffffffffffffffffffffffffffffffff0000000000000000001961ffff909216600160381b0268ffff000000000000001960ff94909416600160301b0266ff0000000000001960f89690961c650100000000000265ff00000000001964ffffffffff90981664ffffffffff19909b169a909a1796909616989098179390931693909317169490941716929092179091555192935090917f6bd4b121bca854a191536a2ca891155c42ee2fb23f307fb34e8bc65cfcb5412e9190a2505050565b60005b8151811015610c7a5761188882828151811061187757fe5b602002602001015160600151611cbd565b82828151811061189457fe5b60209081029190910101516060015260010161185f565b60606044825110156118f1575060408051808201909152601d81527f5472616e73616374696f6e2072657665727465642073696c656e746c790000006020820152610327565b6004820191508180602001905181019061030c9190613210565b60008061191783611ccb565b60ff169392505050565b60008061192d83611ce8565b9050600061194461193d87611d04565b8390611da8565b90508085111561195957600092505050610653565b60006119658587611e02565b98975050505050505050565b6000620f424082601381111561198357fe5b0192915050565b60008061030c600c611971565b60008061030c600d611971565b6000806000806000806119b5611f0d565b6001600160a01b039097166000908152602097909752505060409094205461ffff81169563ffffffff62010000830481169650600160301b830416945060ff600160501b8304169350600160581b90910460d81b9150565b600062015180821015611a1f57600080fd5b62015180825b06909103919050565b611a3782610ad7565b611a4057600080fd5b606082015161ffff1660005b8251811015611aef576000838281518110611a6357fe5b60200260200101519050806060015160001415611a805750611ae7565b80518314611a8d57600080fd5b6040810151600114611a9e57600080fd5b6000611ac087858460200151896000015164ffffffffff168660600151611f1a565b90506000811215611ae457602086018051600160f81b176001600160f81b03191690525b50505b600101611a4c565b5050505050565b611afe612e9f565b611b06612e9f565b60ff8416611b15579050610653565b611b1f8585610b2f565b815260ff84166060820152826001600160401b0381118015611b4057600080fd5b50604051908082528060200260200182016040528015611b7a57816020015b611b67612e5f565b815260200190600190039081611b5f5790505b506020820152949350505050565b60005b815181101561130c576000828281518110611ba257fe5b60200260200101519050806060015160001415611bbf5750611bde565b611bdc848260000151836020015184604001518560600151612087565b505b600101611b8b565b6000808080611bf5868861218c565b64ffffffffff81168c5292965090945092509050611c1288611683565b15611c1c57600080fd5b60ff8216604089015284611c3b57600760ff83161115611c3b57600080fd5b8315611c5e57602088018051600160f81b176001600160f81b0319169052611c6d565b602088018051607f60f91b1690525b611c7a88608001516123cb565b6001600160701b031916608089015260005b831561123b5760f084901c818114611caf57611caf8a826001600160ff1b612446565b60109490941b939050611c8c565b600061030c60001983612645565b600080611cd6612693565b60009384526020525050604090205490565b60006276a700821015611cfa57600080fd5b6276a70082611a25565b60008160011415611d1957506276a700610327565b8160021415611d2c575062ed4e00610327565b8160031415611d4057506301da9c00610327565b8160041415611d5457506303b53800610327565b8160051415611d6857506309450c00610327565b8160061415611d7c575063128a1800610327565b8160071415611d9057506325143000610327565b60405162461bcd60e51b81526004016103d8906136e6565b600082820183811015610653576040805162461bcd60e51b815260206004820152601b60248201527f536166654d6174683a206164646974696f6e206f766572666c6f770000000000604482015290519081900360640190fd5b6000806000611e1085611a0d565b905062015180840615611e2a576000809250925050611f06565b838110611e3e576000809250925050611f06565b6201518081850304605a8111611e5b57925060019150611f069050565b6101688111611e9a576000620151806207e900840604820160591901905060068104605a0160068281611e8a57fe5b0660001494509450505050611f06565b6108708111611eca5760006201518062278d00840604820161016719019050601e8104608701601e8281611e8a57fe5b611de28111611efa576000620151806276a700840604820161086f19019050605a810460c301605a8281611e8a57fe5b61010060009350935050505b9250929050565b60008061030c6002611971565b600080611f2787876126a0565b90506000611f3361198a565b6001600160a01b0389166000908152602082815260408083208b845282528083208a8452909152812091925080611f6a888a611e02565b9150915080611f7857600080fd5b611f8285836126d5565b15612011578254600090611f9e908990600f90810b900b612705565b905060016001607f1b03198112801590611fbf575060016001607f1b038113155b611fc857600080fd5b83546001600160801b0319166001600160801b03600f83900b1617845580611ff957611ff68684600061271b565b95505b6120048c8c88612766565b955061207e945050505050565b86156120755760016001607f1b03198712801590612036575060016001607f1b038713155b61203f57600080fd5b82546001600160801b0319166001600160801b03600f89900b161783556120688583600161271b565b94506120758b8b87612766565b86955050505050505b95945050505050565b845161209690858585856127c0565b156120a057611aef565b6040850151156120cd5760006120bd8660200151868686866127c0565b905080156120cb5750611aef565b505b6120d6826128d9565b156120e95760008112156120e957600080fd5b6a7fffffffffffffffffffff19811280159061211057506a7fffffffffffffffffffff8113155b61211957600080fd5b8460200151518560400151141561213d5761213785602001516128ef565b60208601525b6000856020015186604001518151811061215357fe5b6020908102919091018101519586528501939093526040808501929092526060840152600060a090930192909252500180516001019052565b6000808080808080805b89515181101561221d5760008a6000015182815181106121b257fe5b602002602001015190506003808111156121c857fe5b8160a0015160038111156121d857fe5b14156121e357600080fd5b60028160a0015160038111156121f557fe5b1415801561220557506060810151155b15612214576122148b836129a7565b50600101612196565b5060005b8951518110156122c05760008a60000151828151811061223d57fe5b602002602001015190506002600381111561225457fe5b8160a00151600381111561226457fe5b1415612278576080810151600090556122b7565b60018160a00151600381111561228a57fe5b14156122a3576080810151806122a08382612af6565b50505b6122af81868686612c27565b919650945092505b50600101612221565b50606089015160006122d0611997565b6001600160a01b038b1660009081526020829052604081209192505b8c602001515181101561239a5760008d60200151828151811061230b57fe5b602002602001015190508060600151600014156123285750612392565b60028160a00151600381111561233a57fe5b14158015612358575060038160a00151600381111561235557fe5b14155b61236157600080fd5b61236d81898989612c27565b9199509750955061238a8184876010811061238457fe5b01612af6565b600185019450505b6001016122ec565b50601083111580156123b1575064ffffffffff8411155b6123ba57600080fd5b50939a929950975095509350505050565b6000807f7fff7fff7fff7fff7fff7fff7fff7fff7fff00000000000000000000000000008316815b6001600160701b031982161561243d57600160fe1b8281161415612427576001600160f01b03198216811c92909217916010015b6010826001600160701b031916901b91506123f3565b50909392505050565b8260001080156124585750613fff8311155b61246157600080fd5b818015612475575082846060015161ffff16145b1561247f57611632565b6080840151600090815b6001600160701b03198216156125fa5760f082901c613fff1686811480156124ae5750855b156124e657506080870180516001600160f01b0319861660109093029290921c919091176001600160701b0319169052506116329050565b86811480156124f3575085155b15612548576001600160f01b03198516199290921691600360fe1b8316612526576010836001600160701b031916901b92505b506001600160701b031991821660109091021c91909117166080850152611632565b86811180156125545750855b156125ae576080888101516001600160f01b031960f08a901b88178116601086021c9690961795911b161561258857600080fd5b506001600160701b03199182166001919091016010021c91909117166080850152611632565b86811180156125bb575085155b156125c95750505050611632565b506001600160f01b0319821660108281029190911c93909317929190911b6001600160801b03191690600101612489565b8461260757505050611632565b6009811061261457600080fd5b6001600160f01b031960f087901b85171660109091021c919091176001600160701b03191660808601525050505050565b8181026000198314156126755781158061266757508282828161266457fe5b05145b61267057600080fd5b61030c565b82158061268a57508183828161268757fe5b05145b61030c57600080fd5b60008061030c6009611971565b6000806126ab612c8a565b6001600160a01b038516600090815260209182526040808220868352909252205491505092915050565b6000600182101580156126ea57506101008211155b6126f357600080fd5b50600019011b600160ff1b9081161490565b8181018281121560008312151461030c57600080fd5b60006001831015801561273057506101008311155b61273957600080fd5b81156127525750600160ff1b60001983011c8317610653565b50600160ff1b60001983011c198316610653565b601461277182612c97565b111561278f5760405162461bcd60e51b81526004016103d89061373a565b6000612799612c8a565b6001600160a01b039094166000908152602094855260408082209482529390945250912055565b6000805b86518110156128cc5760008782815181106127db57fe5b602002602001015190508481604001511415806127f9575080518714155b80612808575085816020015114155b1561281357506128c4565b60028160a00151600381111561282557fe5b14158015612843575060038160a00151600381111561284057fe5b14155b61284c57600080fd5b606081015160009061285e9086612705565b9050612869866128d9565b1561287c57600081121561287c57600080fd5b6a7fffffffffffffffffffff1981128015906128a357506a7fffffffffffffffffffff8113155b6128ac57600080fd5b6060820152600160a0909101819052915061207e9050565b6001016127c4565b5060009695505050505050565b60006002821080159061030c5750506008101590565b606060008251600014612906578251600202612909565b60015b90506000816001600160401b038111801561292357600080fd5b5060405190808252806020026020018201604052801561295d57816020015b61294a612e5f565b8152602001906001900390816129425790505b50905060005b845181101561299f5784818151811061297857fe5b602002602001015182828151811061298c57fe5b6020908102919091010152600101612963565b509392505050565b81515181106129b557600080fd5b60008260600151116129c657600080fd5b6000826000015182815181106129d857fe5b60200260200101519050600260038111156129ef57fe5b8160a0015160038111156129ff57fe5b14158015612a1d575060038160a001516003811115612a1a57fe5b14155b612a2657600080fd5b606083018051600019019052600080805b855151811015612a9957600086600001518281518110612a5357fe5b60200260200101519050828160800151118015612a80575060028160a001516003811115612a7d57fe5b14155b15612a9057806080015192508193505b50600101612a37565b5081841415612ab2575050600260a09190910152610c7a565b600085600001518381518110612ac457fe5b602090810291909101015160808581018051918301805190915252600160a09182015260029401939093525050505050565b815115801590612b0957508151613fff10155b612b1257600080fd5b81602001516000108015612b2f5750602082015164ffffffffff10155b612b3857600080fd5b81604001516000108015612b5157506040820151600810155b612b5a57600080fd5b60608201516a7fffffffffffffffffffff1913801590612b89575060608201516a7fffffffffffffffffffff12155b612b9257600080fd5b8151815460208401516040850151606090950151600a0b6affffffffffffffffffffff16600160401b0272ffffffffffffffffffffff00000000000000001960ff909616600160381b0267ff000000000000001964ffffffffff909316620100000266ffffffffff00001961ffff90961661ffff19909516949094179490941692909217169190911792909216919091179055565b600080600080612c3688612d67565b9050841580612c4457508085115b15612c4d578094505b8680612c5d575060008860600151125b965061ffff861615612c6e57600080fd5b50509451939560109390931c60f09490941b9390931793509150565b60008061030c600b611971565b600181901c7f5555555555555555555555555555555555555555555555555555555555555555908116911601600281901c7f3333333333333333333333333333333333333333333333333333333333333333908116911601600481901c7f07070707070707070707070707070707070707070707070707070707070707079190911601600881901c7e0f000f000f000f000f000f000f000f000f000f000f000f000f000f000f000f908116911601601081901c01602081901c01604081901c01608081901c60ff90811691160190565b6000808260400151118015612d8157506040820151600810155b612d8a57600080fd5b6040820151600210612da157506020810151610327565b6000612db36001846040015103611d04565b6020840151909150610653906276a70090612dce9084612dd4565b90611da8565b600082821115612e2b576040805162461bcd60e51b815260206004820152601e60248201527f536166654d6174683a207375627472616374696f6e206f766572666c6f770000604482015290519081900360640190fd5b50900390565b6040805160a08101825260008082526020820181905291810182905260608101829052608081019190915290565b6040518060c00160405280600081526020016000815260200160008152602001600081526020016000815260200160006003811115612e9a57fe5b905290565b6040518060800160405280606081526020016060815260200160008152602001600081525090565b60008083601f840112612ed8578081fd5b5081356001600160401b03811115612eee578182fd5b6020830191508360208083028501011115611f0657600080fd5b80516001600160701b03198116811461032757600080fd5b60008083601f840112612f31578182fd5b5081356001600160401b03811115612f47578182fd5b602083019150836020828501011115611f0657600080fd5b80516103278161386f565b805161032781613892565b600060208284031215612f86578081fd5b813561065381613841565b60008060408385031215612fa3578081fd5b8235612fae81613841565b91506020830135612fbe81613841565b809150509250929050565b60008060008060008060008060a0898b031215612fe4578384fd5b8835612fef81613841565b97506020890135612fff81613841565b965060408901356001600160401b038082111561301a578586fd5b6130268c838d01612ec7565b909850965060608b013591508082111561303e578586fd5b61304a8c838d01612ec7565b909650945060808b0135915080821115613062578384fd5b5061306f8b828c01612f20565b999c989b5096995094979396929594505050565b60008060008060008060a0878903121561309b578182fd5b86356130a681613841565b955060208701356130b681613841565b9450604087013593506060870135925060808701356001600160401b038111156130de578283fd5b6130ea89828a01612f20565b979a9699509497509295939492505050565b6000806040838503121561310e578182fd5b823561311981613841565b915060208301358015158114612fbe578182fd5b6000806040838503121561313f578182fd5b823561314a81613841565b946020939093013593505050565b6000806000806040858703121561316d578182fd5b84356001600160401b0380821115613183578384fd5b61318f88838901612ec7565b909650945060208701359150808211156131a7578384fd5b506131b487828801612ec7565b95989497509550505050565b6000602082840312156131d1578081fd5b5035919050565b6000602082840312156131e9578081fd5b813561065381613859565b600060208284031215613205578081fd5b815161065381613859565b600060208284031215613221578081fd5b81516001600160401b0380821115613237578283fd5b818401915084601f83011261324a578283fd5b81518181111561325657fe5b604051601f8201601f19168101602001838111828210171561327457fe5b60405281815283820160200187101561328b578485fd5b61329c826020830160208701613815565b9695505050505050565b600060a082840312156132b7578081fd5b60405160a081018181106001600160401b03821117156132d357fe5b60405282516132e18161387f565b815260208301516001600160f81b0319811681146132fd578283fd5b602082015261330e60408401612f6a565b604082015261331f60608401612f5f565b606082015261333060808401612f08565b60808201529392505050565b600080600060608486031215613350578081fd5b833561335b8161386f565b9250602084013561336b8161387f565b9150604084013561337b81613892565b809150509250925092565b81835260006001600160fb1b0383111561339e578081fd5b6020830280836020870137939093016020019283525090919050565b60008284528282602086013780602084860101526020601f19601f85011685010190509392505050565b6000828483379101908152919050565b6001600160a01b0391909116815260200190565b6001600160a01b0389811682528816602082015260a060408201819052600090613435908301888a613386565b8281036060840152613448818789613386565b9050828103608084015261345d8185876133ba565b9b9a5050505050505050505050565b6001600160a01b03878116825286166020820152604081018590526060810184905260a06080820181905260009061196590830184866133ba565b6001600160a01b0392831681529116602082015260400190565b6001600160a01b03929092168252805164ffffffffff166020808401919091528101516001600160f81b03191660408084019190915281015160ff1660608084019190915281015161ffff1660808084019190915201516001600160701b03191660a082015260c00190565b6020808252825182820181905260009190848201906040850190845b8181101561356557835183529284019291840191600101613549565b50909695505050505050565b602080825282518282018190526000919060409081850190868401855b828110156135e65781518051855286810151878601528581015186860152606080820151908601526080808201519086015260a09081015190600482106135d157fe5b85015260c0909301929085019060010161358e565b5091979650505050505050565b600060408252613607604083018688613386565b828103602084015261361a818587613386565b979650505050505050565b901515815260200190565b90815260200190565b6000602082528251806020840152613658816040850160208701613815565b601f01601f19169190910160400192915050565b6020808252600f908201526e496e76616c6964206164647265737360881b604082015260600190565b602080825260119082015270155b985d5d1a1bdc9a5e99590818d85b1b607a1b604082015260600190565b6020808252600c908201526b155b985d5d1a1bdc9a5e995960a21b604082015260600190565b6020808252600d908201526c092dcecc2d8d2c840d2dcc8caf609b1b604082015260600190565b6020808252601390820152724163636f756e74206d75737420736574746c6560681b604082015260600190565b6020808252600f908201526e4f766572206d61782061737365747360881b604082015260600190565b60208082526010908201526f496e76616c6964206d6174757269747960801b604082015260600190565b60208082526012908201527112511cc81b5d5cdd081899481cdbdc9d195960721b604082015260600190565b6020808252600c908201526b139bdd081858d8d95c1d195960a21b604082015260600190565b918252602082015260400190565b600080858511156137fc578182fd5b83861115613808578182fd5b5050820193919092039150565b60005b83811015613830578181015183820152602001613818565b838111156116325750506000910152565b6001600160a01b038116811461385657600080fd5b50565b6001600160e01b03198116811461385657600080fd5b61ffff8116811461385657600080fd5b64ffffffffff8116811461385657600080fd5b60ff8116811461385657600080fdfea26469706673582212201311160102a416b51764ab1c80f32cd638f4dde8c31d4ed5c592629d5fb648eb64736f6c63430007060033","language":"Solidity","natspec":{"kind":"dev","methods":{"balanceOf(address,uint256)":{"notice":"Returns the balance of an ERC1155 id on an account. WARNING: the balances returned by this method do not show negative fCash balances because only unsigned integers are returned. They are represented by zero here. Use `signedBalanceOf` to get a signed return value.","params":{"account":"account to get the id for","id":"the ERC1155 id"},"returns":{"_0":"Balance of the ERC1155 id as an unsigned integer (negative fCash balances return zero)"}},"balanceOfBatch(address[],uint256[])":{"notice":"Returns the balance of a batch of accounts and ids. WARNING: negative fCash balances are represented as zero balances in the array. ","params":{"accounts":"array of accounts to get balances for","ids":"array of ids to get balances for"},"returns":{"_0":"Returns an array of unsigned balances"}},"decodeToAssets(uint256[],uint256[])":{"notice":"Decodes ids and amounts to PortfolioAsset objects","params":{"amounts":"amounts to transfer","ids":"array of ERC1155 ids"},"returns":{"_0":"array of portfolio asset objects"}},"encodeToId(uint16,uint40,uint8)":{"notice":"Encodes parameters into an ERC1155 id","params":{"assetType":"id of the asset type","currencyId":"currency id of the asset","maturity":"timestamp of the maturity"},"returns":{"_0":"ERC1155 id"}},"getLibInfo()":{"notice":"Get a list of deployed library addresses (sorted by library name)"},"isApprovedForAll(address,address)":{"notice":"Checks approval state for an account, will first check if global transfer operator is enabled before falling through to an account specific transfer operator.","params":{"account":"address of the account","operator":"address of the operator"},"returns":{"_0":"true for approved"}},"safeBatchTransferFrom(address,address,uint256[],uint256[],bytes)":{"details":"emit:TransferBatch, emit:AccountContextUpdate, emit:AccountSettled","notice":"Transfer of a batch of fCash or liquidity token assets between accounts. Allows `from` account to transfer more fCash than they have as long as they pass a subsequent free collateral check. This enables OTC trading of fCash assets.","params":{"amounts":"amounts to transfer","data":"arbitrary data passed to ERC1155Receiver (if contract) and if properly specified can be used to initiate a trading action on Notional for the `from` address","from":"account to transfer from","ids":"ERC1155 ids of the assets","to":"account to transfer to"}},"safeTransferFrom(address,address,uint256,uint256,bytes)":{"details":"emit:TransferSingle, emit:AccountContextUpdate, emit:AccountSettled","notice":"Transfer of a single fCash or liquidity token asset between accounts. Allows `from` account to transfer more fCash than they have as long as they pass a subsequent free collateral check. This enables OTC trading of fCash assets.","params":{"amount":"amount to transfer","data":"arbitrary data passed to ERC1155Receiver (if contract) and if properly specified can be used to initiate a trading action on Notional for the `from` address","from":"account to transfer from","id":"ERC1155 id of the asset","to":"account to transfer to"}},"setApprovalForAll(address,bool)":{"details":"emit:ApprovalForAll","notice":"Allows an account to set approval for an operator","params":{"approved":"state of the approval","operator":"address of the operator"}},"signedBalanceOf(address,uint256)":{"notice":"Returns the balance of an ERC1155 id on an account.","params":{"account":"account to get the id for","id":"the ERC1155 id"},"returns":{"notional":"balance of the ERC1155 id as a signed integer"}},"signedBalanceOfBatch(address[],uint256[])":{"notice":"Returns the balance of a batch of accounts and ids.","params":{"accounts":"array of accounts to get balances for","ids":"array of ids to get balances for"},"returns":{"_0":"Returns an array of signed balances"}}},"version":1},"opcodes":"PUSH1 0x80 PUSH1 0x40 MSTORE PUSH1 0x4 CALLDATASIZE LT PUSH2 0xE7 JUMPI PUSH1 0x0 CALLDATALOAD PUSH1 0xE0 SHR DUP1 PUSH4 0x735A1DC8 GT PUSH2 0x8A JUMPI DUP1 PUSH4 0xA22CB465 GT PUSH2 0x59 JUMPI DUP1 PUSH4 0xA22CB465 EQ PUSH2 0x26A JUMPI DUP1 PUSH4 0xC4C96DAE EQ PUSH2 0x28A JUMPI DUP1 PUSH4 0xE985E9C5 EQ PUSH2 0x2AD JUMPI DUP1 PUSH4 0xF242432A EQ PUSH2 0x2CD JUMPI PUSH2 0xE7 JUMP JUMPDEST DUP1 PUSH4 0x735A1DC8 EQ PUSH2 0x200 JUMPI DUP1 PUSH4 0x81A86855 EQ PUSH2 0x220 JUMPI DUP1 PUSH4 0x82463367 EQ PUSH2 0x240 JUMPI DUP1 PUSH4 0x8DA5CB5B EQ PUSH2 0x255 JUMPI PUSH2 0xE7 JUMP JUMPDEST DUP1 PUSH4 0x24A3D622 GT PUSH2 0xC6 JUMPI DUP1 PUSH4 0x24A3D622 EQ PUSH2 0x16F JUMPI DUP1 PUSH4 0x2EB2C2D6 EQ PUSH2 0x191 JUMPI DUP1 PUSH4 0x3FA6B808 EQ PUSH2 0x1A6 JUMPI DUP1 PUSH4 0x4E1273F4 EQ PUSH2 0x1D3 JUMPI PUSH2 0xE7 JUMP JUMPDEST DUP1 PUSH3 0xFDD58E EQ PUSH2 0xEC JUMPI DUP1 PUSH4 0x1FFC9A7 EQ PUSH2 0x122 JUMPI DUP1 PUSH4 0xFAC8F09 EQ PUSH2 0x14F JUMPI JUMPDEST PUSH1 0x0 DUP1 REVERT JUMPDEST CALLVALUE DUP1 ISZERO PUSH2 0xF8 JUMPI PUSH1 0x0 DUP1 REVERT JUMPDEST POP PUSH2 0x10C PUSH2 0x107 CALLDATASIZE PUSH1 0x4 PUSH2 0x312D JUMP JUMPDEST PUSH2 0x2E0 JUMP JUMPDEST PUSH1 0x40 MLOAD PUSH2 0x119 SWAP2 SWAP1 PUSH2 0x3630 JUMP JUMPDEST PUSH1 0x40 MLOAD DUP1 SWAP2 SUB SWAP1 RETURN JUMPDEST CALLVALUE DUP1 ISZERO PUSH2 0x12E JUMPI PUSH1 0x0 DUP1 REVERT JUMPDEST POP PUSH2 0x142 PUSH2 0x13D CALLDATASIZE PUSH1 0x4 PUSH2 0x31D8 JUMP JUMPDEST PUSH2 0x312 JUMP JUMPDEST PUSH1 0x40 MLOAD PUSH2 0x119 SWAP2 SWAP1 PUSH2 0x3625 JUMP JUMPDEST CALLVALUE DUP1 ISZERO PUSH2 0x15B JUMPI PUSH1 0x0 DUP1 REVERT JUMPDEST POP PUSH2 0x10C PUSH2 0x16A CALLDATASIZE PUSH1 0x4 PUSH2 0x312D JUMP JUMPDEST PUSH2 0x32C JUMP JUMPDEST CALLVALUE DUP1 ISZERO PUSH2 0x17B JUMPI PUSH1 0x0 DUP1 REVERT JUMPDEST POP PUSH2 0x184 PUSH2 0x380 JUMP JUMPDEST PUSH1 0x40 MLOAD PUSH2 0x119 SWAP2 SWAP1 PUSH2 0x33F4 JUMP JUMPDEST PUSH2 0x1A4 PUSH2 0x19F CALLDATASIZE PUSH1 0x4 PUSH2 0x2FC9 JUMP JUMPDEST PUSH2 0x38F JUMP JUMPDEST STOP JUMPDEST CALLVALUE DUP1 ISZERO PUSH2 0x1B2 JUMPI PUSH1 0x0 DUP1 REVERT JUMPDEST POP PUSH2 0x1C6 PUSH2 0x1C1 CALLDATASIZE PUSH1 0x4 PUSH2 0x3158 JUMP JUMPDEST PUSH2 0x557 JUMP JUMPDEST PUSH1 0x40 MLOAD PUSH2 0x119 SWAP2 SWAP1 PUSH2 0x3571 JUMP JUMPDEST CALLVALUE DUP1 ISZERO PUSH2 0x1DF JUMPI PUSH1 0x0 DUP1 REVERT JUMPDEST POP PUSH2 0x1F3 PUSH2 0x1EE CALLDATASIZE PUSH1 0x4 PUSH2 0x3158 JUMP JUMPDEST PUSH2 0x572 JUMP JUMPDEST PUSH1 0x40 MLOAD PUSH2 0x119 SWAP2 SWAP1 PUSH2 0x352D JUMP JUMPDEST CALLVALUE DUP1 ISZERO PUSH2 0x20C JUMPI PUSH1 0x0 DUP1 REVERT JUMPDEST POP PUSH2 0x10C PUSH2 0x21B CALLDATASIZE PUSH1 0x4 PUSH2 0x333C JUMP JUMPDEST PUSH2 0x635 JUMP JUMPDEST CALLVALUE DUP1 ISZERO PUSH2 0x22C JUMPI PUSH1 0x0 DUP1 REVERT JUMPDEST POP PUSH2 0x1F3 PUSH2 0x23B CALLDATASIZE PUSH1 0x4 PUSH2 0x3158 JUMP JUMPDEST PUSH2 0x65A JUMP JUMPDEST CALLVALUE DUP1 ISZERO PUSH2 0x24C JUMPI PUSH1 0x0 DUP1 REVERT JUMPDEST POP PUSH2 0x184 PUSH2 0x713 JUMP JUMPDEST CALLVALUE DUP1 ISZERO PUSH2 0x261 JUMPI PUSH1 0x0 DUP1 REVERT JUMPDEST POP PUSH2 0x184 PUSH2 0x722 JUMP JUMPDEST CALLVALUE DUP1 ISZERO PUSH2 0x276 JUMPI PUSH1 0x0 DUP1 REVERT JUMPDEST POP PUSH2 0x1A4 PUSH2 0x285 CALLDATASIZE PUSH1 0x4 PUSH2 0x30FC JUMP JUMPDEST PUSH2 0x739 JUMP JUMPDEST CALLVALUE DUP1 ISZERO PUSH2 0x296 JUMPI PUSH1 0x0 DUP1 REVERT JUMPDEST POP PUSH2 0x29F PUSH2 0x7A8 JUMP JUMPDEST PUSH1 0x40 MLOAD PUSH2 0x119 SWAP3 SWAP2 SWAP1 PUSH2 0x34A7 JUMP JUMPDEST CALLVALUE DUP1 ISZERO PUSH2 0x2B9 JUMPI PUSH1 0x0 DUP1 REVERT JUMPDEST POP PUSH2 0x142 PUSH2 0x2C8 CALLDATASIZE PUSH1 0x4 PUSH2 0x2F91 JUMP JUMPDEST PUSH2 0x7D6 JUMP JUMPDEST PUSH2 0x1A4 PUSH2 0x2DB CALLDATASIZE PUSH1 0x4 PUSH2 0x3083 JUMP JUMPDEST PUSH2 0x82E JUMP JUMPDEST PUSH1 0x0 DUP1 PUSH2 0x2ED DUP5 DUP5 PUSH2 0x32C JUMP JUMPDEST SWAP1 POP PUSH1 0x0 DUP2 SLT PUSH2 0x305 JUMPI PUSH2 0x300 DUP2 PUSH2 0xA23 JUMP JUMPDEST PUSH2 0x308 JUMP JUMPDEST PUSH1 0x0 JUMPDEST SWAP2 POP POP JUMPDEST SWAP3 SWAP2 POP POP JUMP JUMPDEST PUSH1 0x1 PUSH1 0x1 PUSH1 0xE0 SHL SUB NOT DUP2 AND PUSH4 0x6CDB3D13 PUSH1 0xE1 SHL EQ JUMPDEST SWAP2 SWAP1 POP JUMP JUMPDEST PUSH1 0x0 DUP1 PUSH2 0x338 DUP5 PUSH2 0xA36 JUMP JUMPDEST SWAP1 POP PUSH2 0x343 DUP2 PUSH2 0xAD7 JUMP JUMPDEST ISZERO PUSH2 0x362 JUMPI PUSH2 0x35B DUP5 DUP3 PUSH1 0x60 ADD MLOAD PUSH2 0xFFFF AND DUP6 PUSH2 0xAE4 JUMP JUMPDEST SWAP2 POP PUSH2 0x379 JUMP JUMPDEST PUSH2 0x308 PUSH2 0x373 DUP6 DUP4 PUSH1 0x40 ADD MLOAD PUSH2 0xB2F JUMP JUMPDEST DUP5 PUSH2 0xB58 JUMP JUMPDEST POP SWAP3 SWAP2 POP POP JUMP JUMPDEST PUSH1 0x2 SLOAD PUSH1 0x1 PUSH1 0x1 PUSH1 0xA0 SHL SUB AND DUP2 JUMP JUMPDEST PUSH2 0x399 DUP9 DUP9 PUSH2 0xBDE JUMP JUMPDEST PUSH1 0x0 DUP1 PUSH2 0x3A8 DUP9 DUP9 DUP9 DUP9 PUSH2 0xC7E JUMP JUMPDEST SWAP2 POP SWAP2 POP DUP1 ISZERO PUSH2 0x3E1 JUMPI PUSH2 0x3BC DUP10 CALLER PUSH2 0x7D6 JUMP JUMPDEST PUSH2 0x3E1 JUMPI PUSH1 0x40 MLOAD PUSH3 0x461BCD PUSH1 0xE5 SHL DUP2 MSTORE PUSH1 0x4 ADD PUSH2 0x3D8 SWAP1 PUSH2 0x36C0 JUMP JUMPDEST PUSH1 0x40 MLOAD DUP1 SWAP2 SUB SWAP1 REVERT JUMPDEST PUSH1 0x0 DUP1 PUSH2 0x3EF DUP13 DUP13 DUP7 PUSH2 0xDC8 JUMP JUMPDEST SWAP2 POP SWAP2 POP PUSH2 0x402 DUP13 DUP13 DUP5 DUP5 DUP11 DUP11 DUP10 PUSH2 0xF68 JUMP JUMPDEST DUP11 PUSH1 0x1 PUSH1 0x1 PUSH1 0xA0 SHL SUB AND DUP13 PUSH1 0x1 PUSH1 0x1 PUSH1 0xA0 SHL SUB AND CALLER PUSH1 0x1 PUSH1 0x1 PUSH1 0xA0 SHL SUB AND PUSH32 0x4A39DC06D4C0DBC64B70AF90FD698A233A518AA5D07E595D983B8C0526C8F7FB DUP14 DUP14 DUP14 DUP14 PUSH1 0x40 MLOAD PUSH2 0x455 SWAP5 SWAP4 SWAP3 SWAP2 SWAP1 PUSH2 0x35F3 JUMP JUMPDEST PUSH1 0x40 MLOAD DUP1 SWAP2 SUB SWAP1 LOG4 PUSH2 0x466 DUP12 PUSH2 0x1246 JUMP JUMPDEST ISZERO PUSH2 0x549 JUMPI PUSH32 0xBC197C819B3E337A6F9652DD10BECD7EEF83032AF3B9D958D3D42F6694146621 PUSH1 0x1 PUSH1 0x1 PUSH1 0xE0 SHL SUB NOT AND DUP12 PUSH1 0x1 PUSH1 0x1 PUSH1 0xA0 SHL SUB AND PUSH4 0xBC197C81 CALLER DUP16 DUP15 DUP15 DUP15 DUP15 DUP15 DUP15 PUSH1 0x40 MLOAD DUP10 PUSH4 0xFFFFFFFF AND PUSH1 0xE0 SHL DUP2 MSTORE PUSH1 0x4 ADD PUSH2 0x4D0 SWAP9 SWAP8 SWAP7 SWAP6 SWAP5 SWAP4 SWAP3 SWAP2 SWAP1 PUSH2 0x3408 JUMP JUMPDEST PUSH1 0x20 PUSH1 0x40 MLOAD DUP1 DUP4 SUB DUP2 PUSH1 0x0 DUP8 DUP1 EXTCODESIZE ISZERO DUP1 ISZERO PUSH2 0x4EA JUMPI PUSH1 0x0 DUP1 REVERT JUMPDEST POP GAS CALL ISZERO DUP1 ISZERO PUSH2 0x4FE JUMPI RETURNDATASIZE PUSH1 0x0 DUP1 RETURNDATACOPY RETURNDATASIZE PUSH1 0x0 REVERT JUMPDEST POP POP POP POP PUSH1 0x40 MLOAD RETURNDATASIZE PUSH1 0x1F NOT PUSH1 0x1F DUP3 ADD AND DUP3 ADD DUP1 PUSH1 0x40 MSTORE POP DUP2 ADD SWAP1 PUSH2 0x522 SWAP2 SWAP1 PUSH2 0x31F4 JUMP JUMPDEST PUSH1 0x1 PUSH1 0x1 PUSH1 0xE0 SHL SUB NOT AND EQ PUSH2 0x549 JUMPI PUSH1 0x40 MLOAD PUSH3 0x461BCD PUSH1 0xE5 SHL DUP2 MSTORE PUSH1 0x4 ADD PUSH2 0x3D8 SWAP1 PUSH2 0x37B9 JUMP JUMPDEST POP POP POP POP POP POP POP POP POP POP POP POP JUMP JUMPDEST PUSH1 0x60 PUSH1 0x0 PUSH2 0x567 DUP7 DUP7 DUP7 DUP7 PUSH2 0xC7E JUMP JUMPDEST POP SWAP7 SWAP6 POP POP POP POP POP POP JUMP JUMPDEST PUSH1 0x60 DUP4 DUP3 EQ PUSH2 0x580 JUMPI PUSH1 0x0 DUP1 REVERT JUMPDEST PUSH1 0x0 DUP5 PUSH1 0x1 PUSH1 0x1 PUSH1 0x40 SHL SUB DUP2 GT DUP1 ISZERO PUSH2 0x598 JUMPI PUSH1 0x0 DUP1 REVERT JUMPDEST POP PUSH1 0x40 MLOAD SWAP1 DUP1 DUP3 MSTORE DUP1 PUSH1 0x20 MUL PUSH1 0x20 ADD DUP3 ADD PUSH1 0x40 MSTORE DUP1 ISZERO PUSH2 0x5C2 JUMPI DUP2 PUSH1 0x20 ADD PUSH1 0x20 DUP3 MUL DUP1 CALLDATASIZE DUP4 CALLDATACOPY ADD SWAP1 POP JUMPDEST POP SWAP1 POP PUSH1 0x0 JUMPDEST DUP6 DUP2 LT ISZERO PUSH2 0x62B JUMPI PUSH2 0x60C DUP8 DUP8 DUP4 DUP2 DUP2 LT PUSH2 0x5DF JUMPI INVALID JUMPDEST SWAP1 POP PUSH1 0x20 MUL ADD PUSH1 0x20 DUP2 ADD SWAP1 PUSH2 0x5F4 SWAP2 SWAP1 PUSH2 0x2F75 JUMP JUMPDEST DUP7 DUP7 DUP5 DUP2 DUP2 LT PUSH2 0x600 JUMPI INVALID JUMPDEST SWAP1 POP PUSH1 0x20 MUL ADD CALLDATALOAD PUSH2 0x2E0 JUMP JUMPDEST DUP3 DUP3 DUP2 MLOAD DUP2 LT PUSH2 0x618 JUMPI INVALID JUMPDEST PUSH1 0x20 SWAP1 DUP2 MUL SWAP2 SWAP1 SWAP2 ADD ADD MSTORE PUSH1 0x1 ADD PUSH2 0x5C8 JUMP JUMPDEST POP SWAP6 SWAP5 POP POP POP POP POP JUMP JUMPDEST PUSH1 0x0 PUSH2 0x650 DUP5 PUSH2 0xFFFF AND DUP5 PUSH5 0xFFFFFFFFFF AND DUP5 PUSH1 0xFF AND PUSH2 0x124C JUMP JUMPDEST SWAP1 POP JUMPDEST SWAP4 SWAP3 POP POP POP JUMP JUMPDEST PUSH1 0x60 DUP4 DUP3 EQ PUSH2 0x668 JUMPI PUSH1 0x0 DUP1 REVERT JUMPDEST PUSH1 0x0 DUP5 PUSH1 0x1 PUSH1 0x1 PUSH1 0x40 SHL SUB DUP2 GT DUP1 ISZERO PUSH2 0x680 JUMPI PUSH1 0x0 DUP1 REVERT JUMPDEST POP PUSH1 0x40 MLOAD SWAP1 DUP1 DUP3 MSTORE DUP1 PUSH1 0x20 MUL PUSH1 0x20 ADD DUP3 ADD PUSH1 0x40 MSTORE DUP1 ISZERO PUSH2 0x6AA JUMPI DUP2 PUSH1 0x20 ADD PUSH1 0x20 DUP3 MUL DUP1 CALLDATASIZE DUP4 CALLDATACOPY ADD SWAP1 POP JUMPDEST POP SWAP1 POP PUSH1 0x0 JUMPDEST DUP6 DUP2 LT ISZERO PUSH2 0x62B JUMPI PUSH2 0x6F4 DUP8 DUP8 DUP4 DUP2 DUP2 LT PUSH2 0x6C7 JUMPI INVALID JUMPDEST SWAP1 POP PUSH1 0x20 MUL ADD PUSH1 0x20 DUP2 ADD SWAP1 PUSH2 0x6DC SWAP2 SWAP1 PUSH2 0x2F75 JUMP JUMPDEST DUP7 DUP7 DUP5 DUP2 DUP2 LT PUSH2 0x6E8 JUMPI INVALID JUMPDEST SWAP1 POP PUSH1 0x20 MUL ADD CALLDATALOAD PUSH2 0x32C JUMP JUMPDEST DUP3 DUP3 DUP2 MLOAD DUP2 LT PUSH2 0x700 JUMPI INVALID JUMPDEST PUSH1 0x20 SWAP1 DUP2 MUL SWAP2 SWAP1 SWAP2 ADD ADD MSTORE PUSH1 0x1 ADD PUSH2 0x6B0 JUMP JUMPDEST PUSH1 0x1 SLOAD PUSH1 0x1 PUSH1 0x1 PUSH1 0xA0 SHL SUB AND DUP2 JUMP JUMPDEST PUSH1 0x0 SLOAD PUSH5 0x100000000 SWAP1 DIV PUSH1 0x1 PUSH1 0x1 PUSH1 0xA0 SHL SUB AND DUP2 JUMP JUMPDEST CALLER PUSH1 0x0 DUP2 DUP2 MSTORE PUSH1 0x7 PUSH1 0x20 SWAP1 DUP2 MSTORE PUSH1 0x40 DUP1 DUP4 KECCAK256 PUSH1 0x1 PUSH1 0x1 PUSH1 0xA0 SHL SUB DUP8 AND DUP1 DUP6 MSTORE SWAP3 MSTORE SWAP2 DUP3 SWAP1 KECCAK256 DUP1 SLOAD PUSH1 0xFF NOT AND DUP6 ISZERO ISZERO OR SWAP1 SSTORE SWAP1 MLOAD SWAP1 SWAP2 SWAP1 PUSH32 0x17307EAB39AB6107E8899845AD3D59BD9653F200F220920489CA2B5937696C31 SWAP1 PUSH2 0x79C SWAP1 DUP6 SWAP1 PUSH2 0x3625 JUMP JUMPDEST PUSH1 0x40 MLOAD DUP1 SWAP2 SUB SWAP1 LOG3 POP POP JUMP JUMPDEST PUSH20 0x0 PUSH20 0x0 SWAP1 SWAP2 JUMP JUMPDEST PUSH1 0x1 PUSH1 0x1 PUSH1 0xA0 SHL SUB DUP2 AND PUSH1 0x0 SWAP1 DUP2 MSTORE PUSH1 0x6 PUSH1 0x20 MSTORE PUSH1 0x40 DUP2 KECCAK256 SLOAD PUSH1 0xFF AND ISZERO PUSH2 0x7FF JUMPI POP PUSH1 0x1 PUSH2 0x30C JUMP JUMPDEST POP PUSH1 0x1 PUSH1 0x1 PUSH1 0xA0 SHL SUB SWAP2 DUP3 AND PUSH1 0x0 SWAP1 DUP2 MSTORE PUSH1 0x7 PUSH1 0x20 SWAP1 DUP2 MSTORE PUSH1 0x40 DUP1 DUP4 KECCAK256 SWAP4 SWAP1 SWAP5 AND DUP3 MSTORE SWAP2 SWAP1 SWAP2 MSTORE KECCAK256 SLOAD PUSH1 0xFF AND SWAP1 JUMP JUMPDEST PUSH2 0x838 DUP7 DUP7 PUSH2 0xBDE JUMP JUMPDEST PUSH2 0x840 PUSH2 0x2E31 JUMP JUMPDEST DUP4 ISZERO PUSH2 0x936 JUMPI PUSH1 0x40 DUP1 MLOAD PUSH1 0x1 DUP1 DUP3 MSTORE DUP2 DUP4 ADD SWAP1 SWAP3 MSTORE PUSH1 0x0 SWAP2 DUP2 PUSH1 0x20 ADD JUMPDEST PUSH2 0x865 PUSH2 0x2E5F JUMP JUMPDEST DUP2 MSTORE PUSH1 0x20 ADD SWAP1 PUSH1 0x1 SWAP1 SUB SWAP1 DUP2 PUSH2 0x85D JUMPI SWAP1 POP POP SWAP1 POP PUSH1 0x0 DUP2 PUSH1 0x0 DUP2 MLOAD DUP2 LT PUSH2 0x889 JUMPI INVALID JUMPDEST PUSH1 0x20 MUL PUSH1 0x20 ADD ADD MLOAD SWAP1 POP PUSH2 0x89C DUP8 PUSH2 0x12A7 JUMP JUMPDEST PUSH1 0x40 DUP5 ADD MSTORE PUSH1 0x20 DUP4 ADD MSTORE DUP2 MSTORE PUSH2 0x8B1 DUP7 PUSH2 0x12C4 JUMP JUMPDEST PUSH1 0x60 DUP3 ADD MSTORE DUP1 MLOAD PUSH1 0x20 DUP3 ADD MLOAD PUSH2 0x8C8 SWAP2 SWAP1 TIMESTAMP PUSH2 0x12DA JUMP JUMPDEST PUSH2 0x8D3 DUP10 DUP10 DUP5 PUSH2 0xDC8 JUMP JUMPDEST POP DUP1 SWAP4 POP POP DUP8 PUSH1 0x1 PUSH1 0x1 PUSH1 0xA0 SHL SUB AND DUP10 PUSH1 0x1 PUSH1 0x1 PUSH1 0xA0 SHL SUB AND CALLER PUSH1 0x1 PUSH1 0x1 PUSH1 0xA0 SHL SUB AND PUSH32 0xC3D58168C5AE7397731D063D5BBF3D657854427343F4C083240F7AACAA2D0F62 DUP11 DUP11 PUSH1 0x40 MLOAD PUSH2 0x927 SWAP3 SWAP2 SWAP1 PUSH2 0x37DF JUMP JUMPDEST PUSH1 0x40 MLOAD DUP1 SWAP2 SUB SWAP1 LOG4 POP POP PUSH2 0x942 JUMP JUMPDEST PUSH2 0x93F DUP8 PUSH2 0xA36 JUMP JUMPDEST SWAP1 POP JUMPDEST PUSH2 0x94A PUSH2 0x2E31 JUMP JUMPDEST PUSH2 0x95A DUP9 DUP9 DUP5 DUP5 DUP9 DUP9 PUSH1 0x0 PUSH2 0xF68 JUMP JUMPDEST PUSH2 0x963 DUP8 PUSH2 0x1246 JUMP JUMPDEST ISZERO PUSH2 0xA19 JUMPI PUSH1 0x40 MLOAD PUSH4 0xF23A6E61 PUSH1 0xE0 SHL DUP1 DUP3 MSTORE SWAP1 PUSH1 0x1 PUSH1 0x1 PUSH1 0xA0 SHL SUB DUP10 AND SWAP1 PUSH4 0xF23A6E61 SWAP1 PUSH2 0x9A0 SWAP1 CALLER SWAP1 DUP14 SWAP1 DUP13 SWAP1 DUP13 SWAP1 DUP13 SWAP1 DUP13 SWAP1 PUSH1 0x4 ADD PUSH2 0x346C JUMP JUMPDEST PUSH1 0x20 PUSH1 0x40 MLOAD DUP1 DUP4 SUB DUP2 PUSH1 0x0 DUP8 DUP1 EXTCODESIZE ISZERO DUP1 ISZERO PUSH2 0x9BA JUMPI PUSH1 0x0 DUP1 REVERT JUMPDEST POP GAS CALL ISZERO DUP1 ISZERO PUSH2 0x9CE JUMPI RETURNDATASIZE PUSH1 0x0 DUP1 RETURNDATACOPY RETURNDATASIZE PUSH1 0x0 REVERT JUMPDEST POP POP POP POP PUSH1 0x40 MLOAD RETURNDATASIZE PUSH1 0x1F NOT PUSH1 0x1F DUP3 ADD AND DUP3 ADD DUP1 PUSH1 0x40 MSTORE POP DUP2 ADD SWAP1 PUSH2 0x9F2 SWAP2 SWAP1 PUSH2 0x31F4 JUMP JUMPDEST PUSH1 0x1 PUSH1 0x1 PUSH1 0xE0 SHL SUB NOT AND EQ PUSH2 0xA19 JUMPI PUSH1 0x40 MLOAD PUSH3 0x461BCD PUSH1 0xE5 SHL DUP2 MSTORE PUSH1 0x4 ADD PUSH2 0x3D8 SWAP1 PUSH2 0x37B9 JUMP JUMPDEST POP POP POP POP POP POP POP POP JUMP JUMPDEST PUSH1 0x0 DUP1 DUP3 SLT ISZERO PUSH2 0xA32 JUMPI PUSH1 0x0 DUP1 REVERT JUMPDEST POP SWAP1 JUMP JUMPDEST PUSH2 0xA3E PUSH2 0x2E31 JUMP JUMPDEST PUSH1 0x0 PUSH2 0xA48 PUSH2 0x1311 JUMP JUMPDEST PUSH1 0x1 PUSH1 0x1 PUSH1 0xA0 SHL SUB SWAP4 SWAP1 SWAP4 AND PUSH1 0x0 SWAP1 DUP2 MSTORE PUSH1 0x20 SWAP4 DUP5 MSTORE PUSH1 0x40 SWAP1 DUP2 SWAP1 KECCAK256 DUP2 MLOAD PUSH1 0xA0 DUP2 ADD DUP4 MSTORE SWAP1 SLOAD PUSH5 0xFFFFFFFFFF DUP2 AND DUP3 MSTORE PUSH6 0x10000000000 DUP2 DIV PUSH1 0xF8 SHL PUSH1 0x1 PUSH1 0x1 PUSH1 0xF8 SHL SUB NOT AND SWAP6 DUP3 ADD SWAP6 SWAP1 SWAP6 MSTORE PUSH1 0x1 PUSH1 0x30 SHL DUP6 DIV PUSH1 0xFF AND SWAP2 DUP2 ADD SWAP2 SWAP1 SWAP2 MSTORE PUSH1 0x1 PUSH1 0x38 SHL DUP5 DIV PUSH2 0xFFFF AND PUSH1 0x60 DUP3 ADD MSTORE PUSH1 0x1 PUSH1 0x48 SHL SWAP1 SWAP4 DIV PUSH1 0x70 SHL PUSH1 0x1 PUSH1 0x1 PUSH1 0x70 SHL SUB NOT AND PUSH1 0x80 DUP5 ADD MSTORE POP SWAP1 SWAP2 SWAP1 POP JUMP JUMPDEST PUSH1 0x60 ADD MLOAD PUSH2 0xFFFF AND ISZERO ISZERO SWAP1 JUMP JUMPDEST PUSH1 0x0 DUP1 PUSH1 0x0 DUP1 PUSH2 0xAF3 DUP6 PUSH2 0x12A7 JUMP JUMPDEST SWAP3 POP SWAP3 POP SWAP3 POP DUP6 DUP4 EQ ISZERO DUP1 PUSH2 0xB09 JUMPI POP PUSH1 0x1 DUP2 EQ ISZERO JUMPDEST ISZERO PUSH2 0xB1A JUMPI PUSH1 0x0 SWAP4 POP POP POP POP PUSH2 0x653 JUMP JUMPDEST PUSH2 0xB25 DUP8 DUP5 DUP5 PUSH2 0x131E JUMP JUMPDEST SWAP4 POP POP POP POP PUSH2 0x653 JUMP JUMPDEST PUSH1 0x60 PUSH1 0x0 PUSH2 0xB3D DUP5 DUP5 PUSH2 0x1363 JUMP JUMPDEST SWAP1 POP PUSH1 0x1 DUP2 MLOAD GT PUSH2 0xB4F JUMPI SWAP1 POP PUSH2 0x30C JUMP JUMPDEST PUSH2 0x653 DUP2 PUSH2 0x147A JUMP JUMPDEST PUSH1 0x0 DUP1 PUSH1 0x0 DUP1 PUSH2 0xB67 DUP6 PUSH2 0x12A7 JUMP JUMPDEST SWAP3 POP SWAP3 POP SWAP3 POP PUSH1 0x0 JUMPDEST DUP7 MLOAD DUP2 LT ISZERO PUSH2 0xBD4 JUMPI PUSH1 0x0 DUP8 DUP3 DUP2 MLOAD DUP2 LT PUSH2 0xB87 JUMPI INVALID JUMPDEST PUSH1 0x20 MUL PUSH1 0x20 ADD ADD MLOAD SWAP1 POP DUP5 DUP2 PUSH1 0x0 ADD MLOAD EQ DUP1 ISZERO PUSH2 0xBA7 JUMPI POP DUP4 DUP2 PUSH1 0x20 ADD MLOAD EQ JUMPDEST DUP1 ISZERO PUSH2 0xBB6 JUMPI POP DUP3 DUP2 PUSH1 0x40 ADD MLOAD EQ JUMPDEST ISZERO PUSH2 0xBCB JUMPI PUSH1 0x60 ADD MLOAD SWAP5 POP PUSH2 0x30C SWAP4 POP POP POP POP JUMP JUMPDEST POP PUSH1 0x1 ADD PUSH2 0xB70 JUMP JUMPDEST POP POP POP POP SWAP3 SWAP2 POP POP JUMP JUMPDEST DUP1 PUSH1 0x1 PUSH1 0x1 PUSH1 0xA0 SHL SUB AND DUP3 PUSH1 0x1 PUSH1 0x1 PUSH1 0xA0 SHL SUB AND EQ ISZERO DUP1 ISZERO PUSH2 0xC08 JUMPI POP PUSH1 0x1 PUSH1 0x1 PUSH1 0xA0 SHL SUB DUP2 AND ISZERO ISZERO JUMPDEST DUP1 ISZERO PUSH2 0xC1D JUMPI POP PUSH1 0x1 PUSH1 0x1 PUSH1 0xA0 SHL SUB DUP2 AND ADDRESS EQ ISZERO JUMPDEST PUSH2 0xC39 JUMPI PUSH1 0x40 MLOAD PUSH3 0x461BCD PUSH1 0xE5 SHL DUP2 MSTORE PUSH1 0x4 ADD PUSH2 0x3D8 SWAP1 PUSH2 0x366C JUMP JUMPDEST CALLER PUSH1 0x1 PUSH1 0x1 PUSH1 0xA0 SHL SUB DUP4 AND EQ DUP1 PUSH2 0xC55 JUMPI POP PUSH2 0xC55 DUP3 CALLER PUSH2 0x7D6 JUMP JUMPDEST PUSH2 0xC71 JUMPI PUSH1 0x40 MLOAD PUSH3 0x461BCD PUSH1 0xE5 SHL DUP2 MSTORE PUSH1 0x4 ADD PUSH2 0x3D8 SWAP1 PUSH2 0x36C0 JUMP JUMPDEST PUSH2 0xC7A DUP3 PUSH2 0x1638 JUMP JUMPDEST POP POP JUMP JUMPDEST PUSH1 0x60 PUSH1 0x0 DUP5 DUP4 EQ PUSH2 0xC8E JUMPI PUSH1 0x0 DUP1 REVERT JUMPDEST PUSH1 0x0 DUP1 DUP7 PUSH1 0x1 PUSH1 0x1 PUSH1 0x40 SHL SUB DUP2 GT DUP1 ISZERO PUSH2 0xCA7 JUMPI PUSH1 0x0 DUP1 REVERT JUMPDEST POP PUSH1 0x40 MLOAD SWAP1 DUP1 DUP3 MSTORE DUP1 PUSH1 0x20 MUL PUSH1 0x20 ADD DUP3 ADD PUSH1 0x40 MSTORE DUP1 ISZERO PUSH2 0xCE1 JUMPI DUP2 PUSH1 0x20 ADD JUMPDEST PUSH2 0xCCE PUSH2 0x2E5F JUMP JUMPDEST DUP2 MSTORE PUSH1 0x20 ADD SWAP1 PUSH1 0x1 SWAP1 SUB SWAP1 DUP2 PUSH2 0xCC6 JUMPI SWAP1 POP JUMPDEST POP SWAP1 POP PUSH1 0x0 JUMPDEST DUP8 DUP2 LT ISZERO PUSH2 0xDBB JUMPI DUP1 ISZERO PUSH2 0xD3B JUMPI DUP9 DUP9 PUSH1 0x1 DUP4 SUB DUP2 DUP2 LT PUSH2 0xD04 JUMPI INVALID JUMPDEST SWAP1 POP PUSH1 0x20 MUL ADD CALLDATALOAD DUP10 DUP10 DUP4 DUP2 DUP2 LT PUSH2 0xD17 JUMPI INVALID JUMPDEST SWAP1 POP PUSH1 0x20 MUL ADD CALLDATALOAD GT PUSH2 0xD3B JUMPI PUSH1 0x40 MLOAD PUSH3 0x461BCD PUSH1 0xE5 SHL DUP2 MSTORE PUSH1 0x4 ADD PUSH2 0x3D8 SWAP1 PUSH2 0x378D JUMP JUMPDEST PUSH1 0x0 DUP3 DUP3 DUP2 MLOAD DUP2 LT PUSH2 0xD49 JUMPI INVALID JUMPDEST PUSH1 0x20 MUL PUSH1 0x20 ADD ADD MLOAD SWAP1 POP PUSH2 0xD6E DUP11 DUP11 DUP5 DUP2 DUP2 LT PUSH2 0xD62 JUMPI INVALID JUMPDEST SWAP1 POP PUSH1 0x20 MUL ADD CALLDATALOAD PUSH2 0x12A7 JUMP JUMPDEST PUSH1 0x40 DUP5 ADD MSTORE PUSH1 0x20 DUP4 ADD DUP2 SWAP1 MSTORE DUP2 DUP4 MSTORE PUSH2 0xD88 SWAP2 SWAP1 TIMESTAMP PUSH2 0x12DA JUMP JUMPDEST DUP8 DUP8 DUP4 DUP2 DUP2 LT PUSH2 0xD94 JUMPI INVALID JUMPDEST PUSH1 0x20 MUL SWAP2 SWAP1 SWAP2 ADD CALLDATALOAD PUSH1 0x60 DUP4 ADD DUP2 SWAP1 MSTORE PUSH1 0x0 SGT ISZERO SWAP1 POP PUSH2 0xDB2 JUMPI PUSH1 0x1 SWAP4 POP JUMPDEST POP PUSH1 0x1 ADD PUSH2 0xCE7 JUMP JUMPDEST POP SWAP8 SWAP1 SWAP7 POP SWAP5 POP POP POP POP POP JUMP JUMPDEST PUSH2 0xDD0 PUSH2 0x2E31 JUMP JUMPDEST PUSH2 0xDD8 PUSH2 0x2E31 JUMP JUMPDEST PUSH1 0x0 PUSH2 0xDE3 DUP6 PUSH2 0xA36 JUMP JUMPDEST SWAP1 POP PUSH2 0xDEE DUP2 PUSH2 0x1683 JUMP JUMPDEST ISZERO PUSH2 0xE7F JUMPI PUSH1 0x40 MLOAD PUSH4 0x37B5FC21 PUSH1 0xE1 SHL DUP2 MSTORE PUSH20 0x0 SWAP1 PUSH4 0x6F6BF842 SWAP1 PUSH2 0xE2C SWAP1 DUP9 SWAP1 DUP6 SWAP1 PUSH1 0x4 ADD PUSH2 0x34C1 JUMP JUMPDEST PUSH1 0xA0 PUSH1 0x40 MLOAD DUP1 DUP4 SUB DUP2 DUP7 DUP1 EXTCODESIZE ISZERO DUP1 ISZERO PUSH2 0xE44 JUMPI PUSH1 0x0 DUP1 REVERT JUMPDEST POP GAS DELEGATECALL ISZERO DUP1 ISZERO PUSH2 0xE58 JUMPI RETURNDATASIZE PUSH1 0x0 DUP1 RETURNDATACOPY RETURNDATASIZE PUSH1 0x0 REVERT JUMPDEST POP POP POP POP PUSH1 0x40 MLOAD RETURNDATASIZE PUSH1 0x1F NOT PUSH1 0x1F DUP3 ADD AND DUP3 ADD DUP1 PUSH1 0x40 MSTORE POP DUP2 ADD SWAP1 PUSH2 0xE7C SWAP2 SWAP1 PUSH2 0x32A6 JUMP JUMPDEST SWAP1 POP JUMPDEST PUSH2 0xE8A DUP6 DUP3 DUP7 PUSH2 0x16D7 JUMP JUMPDEST SWAP1 POP PUSH2 0xE96 DUP2 DUP7 PUSH2 0x1758 JUMP JUMPDEST PUSH2 0xE9F DUP5 PUSH2 0x185C JUMP JUMPDEST PUSH1 0x0 PUSH2 0xEAA DUP8 PUSH2 0xA36 JUMP JUMPDEST SWAP1 POP PUSH2 0xEB5 DUP2 PUSH2 0x1683 JUMP JUMPDEST ISZERO PUSH2 0xF46 JUMPI PUSH1 0x40 MLOAD PUSH4 0x37B5FC21 PUSH1 0xE1 SHL DUP2 MSTORE PUSH20 0x0 SWAP1 PUSH4 0x6F6BF842 SWAP1 PUSH2 0xEF3 SWAP1 DUP11 SWAP1 DUP6 SWAP1 PUSH1 0x4 ADD PUSH2 0x34C1 JUMP JUMPDEST PUSH1 0xA0 PUSH1 0x40 MLOAD DUP1 DUP4 SUB DUP2 DUP7 DUP1 EXTCODESIZE ISZERO DUP1 ISZERO PUSH2 0xF0B JUMPI PUSH1 0x0 DUP1 REVERT JUMPDEST POP GAS DELEGATECALL ISZERO DUP1 ISZERO PUSH2 0xF1F JUMPI RETURNDATASIZE PUSH1 0x0 DUP1 RETURNDATACOPY RETURNDATASIZE PUSH1 0x0 REVERT JUMPDEST POP POP POP POP PUSH1 0x40 MLOAD RETURNDATASIZE PUSH1 0x1F NOT PUSH1 0x1F DUP3 ADD AND DUP3 ADD DUP1 PUSH1 0x40 MSTORE POP DUP2 ADD SWAP1 PUSH2 0xF43 SWAP2 SWAP1 PUSH2 0x32A6 JUMP JUMPDEST SWAP1 POP JUMPDEST PUSH2 0xF51 DUP8 DUP3 DUP8 PUSH2 0x16D7 JUMP JUMPDEST SWAP1 POP PUSH2 0xF5D DUP2 DUP9 PUSH2 0x1758 JUMP JUMPDEST SWAP7 SWAP1 SWAP6 POP SWAP4 POP POP POP POP JUMP JUMPDEST PUSH1 0x0 DUP1 PUSH1 0x20 DUP5 LT PUSH2 0xF85 JUMPI PUSH1 0x0 PUSH2 0xF81 DUP6 DUP8 ADD DUP8 PUSH2 0x31C0 JUMP JUMPDEST SWAP3 POP POP JUMPDEST PUSH1 0x1 PUSH1 0x1 PUSH1 0xE0 SHL SUB NOT DUP3 AND PUSH4 0x66890643 PUSH1 0xE0 SHL EQ DUP1 PUSH2 0xFB4 JUMPI POP PUSH1 0x1 PUSH1 0x1 PUSH1 0xE0 SHL SUB NOT DUP3 AND PUSH4 0x541F527 PUSH1 0xE4 SHL EQ JUMPDEST DUP1 PUSH2 0xFCF JUMPI POP PUSH1 0x1 PUSH1 0x1 PUSH1 0xE0 SHL SUB NOT DUP3 AND PUSH4 0x37351953 PUSH1 0xE1 SHL EQ JUMPDEST DUP1 PUSH2 0xFEA JUMPI POP PUSH1 0x1 PUSH1 0x1 PUSH1 0xE0 SHL SUB NOT DUP3 AND PUSH4 0x276B64B PUSH1 0xE0 SHL EQ JUMPDEST ISZERO PUSH2 0x10FA JUMPI PUSH2 0xFFD PUSH1 0x24 PUSH1 0x4 DUP7 DUP9 PUSH2 0x37ED JUMP JUMPDEST DUP2 ADD SWAP1 PUSH2 0x100A SWAP2 SWAP1 PUSH2 0x2F75 JUMP JUMPDEST SWAP1 POP DUP9 PUSH1 0x1 PUSH1 0x1 PUSH1 0xA0 SHL SUB AND DUP2 PUSH1 0x1 PUSH1 0x1 PUSH1 0xA0 SHL SUB AND EQ DUP1 PUSH2 0x104D JUMPI POP DUP8 PUSH1 0x1 PUSH1 0x1 PUSH1 0xA0 SHL SUB AND DUP2 PUSH1 0x1 PUSH1 0x1 PUSH1 0xA0 SHL SUB AND EQ DUP1 ISZERO PUSH2 0x104D JUMPI POP PUSH2 0x104D DUP9 CALLER PUSH2 0x7D6 JUMP JUMPDEST PUSH2 0x1069 JUMPI PUSH1 0x40 MLOAD PUSH3 0x461BCD PUSH1 0xE5 SHL DUP2 MSTORE PUSH1 0x4 ADD PUSH2 0x3D8 SWAP1 PUSH2 0x3695 JUMP JUMPDEST PUSH1 0x0 DUP1 ADDRESS PUSH1 0x1 PUSH1 0x1 PUSH1 0xA0 SHL SUB AND CALLVALUE DUP9 DUP9 PUSH1 0x40 MLOAD PUSH2 0x1087 SWAP3 SWAP2 SWAP1 PUSH2 0x33E4 JUMP JUMPDEST PUSH1 0x0 PUSH1 0x40 MLOAD DUP1 DUP4 SUB DUP2 DUP6 DUP8 GAS CALL SWAP3 POP POP POP RETURNDATASIZE DUP1 PUSH1 0x0 DUP2 EQ PUSH2 0x10C4 JUMPI PUSH1 0x40 MLOAD SWAP2 POP PUSH1 0x1F NOT PUSH1 0x3F RETURNDATASIZE ADD AND DUP3 ADD PUSH1 0x40 MSTORE RETURNDATASIZE DUP3 MSTORE RETURNDATASIZE PUSH1 0x0 PUSH1 0x20 DUP5 ADD RETURNDATACOPY PUSH2 0x10C9 JUMP JUMPDEST PUSH1 0x60 SWAP2 POP JUMPDEST POP SWAP2 POP SWAP2 POP DUP2 PUSH2 0x10D8 DUP3 PUSH2 0x18AB JUMP JUMPDEST SWAP1 PUSH2 0x10F6 JUMPI PUSH1 0x40 MLOAD PUSH3 0x461BCD PUSH1 0xE5 SHL DUP2 MSTORE PUSH1 0x4 ADD PUSH2 0x3D8 SWAP2 SWAP1 PUSH2 0x3639 JUMP JUMPDEST POP POP POP JUMPDEST DUP9 PUSH1 0x1 PUSH1 0x1 PUSH1 0xA0 SHL SUB AND DUP2 PUSH1 0x1 PUSH1 0x1 PUSH1 0xA0 SHL SUB AND EQ ISZERO DUP1 ISZERO PUSH2 0x1129 JUMPI POP PUSH1 0x20 DUP8 ADD MLOAD PUSH1 0x1 PUSH1 0x1 PUSH1 0xF8 SHL SUB NOT AND ISZERO ISZERO JUMPDEST ISZERO PUSH2 0x1196 JUMPI PUSH1 0x40 MLOAD PUSH4 0x6CCC642F PUSH1 0xE0 SHL DUP2 MSTORE PUSH20 0x0 SWAP1 PUSH4 0x6CCC642F SWAP1 PUSH2 0x1165 SWAP1 DUP13 SWAP1 PUSH1 0x4 ADD PUSH2 0x33F4 JUMP JUMPDEST PUSH1 0x0 PUSH1 0x40 MLOAD DUP1 DUP4 SUB DUP2 DUP7 DUP1 EXTCODESIZE ISZERO DUP1 ISZERO PUSH2 0x117D JUMPI PUSH1 0x0 DUP1 REVERT JUMPDEST POP GAS DELEGATECALL ISZERO DUP1 ISZERO PUSH2 0x1191 JUMPI RETURNDATASIZE PUSH1 0x0 DUP1 RETURNDATACOPY RETURNDATASIZE PUSH1 0x0 REVERT JUMPDEST POP POP POP POP JUMPDEST DUP3 DUP1 ISZERO PUSH2 0x11B5 JUMPI POP DUP8 PUSH1 0x1 PUSH1 0x1 PUSH1 0xA0 SHL SUB AND DUP2 PUSH1 0x1 PUSH1 0x1 PUSH1 0xA0 SHL SUB AND EQ ISZERO JUMPDEST DUP1 ISZERO PUSH2 0x11CE JUMPI POP PUSH1 0x20 DUP7 ADD MLOAD PUSH1 0x1 PUSH1 0x1 PUSH1 0xF8 SHL SUB NOT AND ISZERO ISZERO JUMPDEST ISZERO PUSH2 0x123B JUMPI PUSH1 0x40 MLOAD PUSH4 0x6CCC642F PUSH1 0xE0 SHL DUP2 MSTORE PUSH20 0x0 SWAP1 PUSH4 0x6CCC642F SWAP1 PUSH2 0x120A SWAP1 DUP12 SWAP1 PUSH1 0x4 ADD PUSH2 0x33F4 JUMP JUMPDEST PUSH1 0x0 PUSH1 0x40 MLOAD DUP1 DUP4 SUB DUP2 DUP7 DUP1 EXTCODESIZE ISZERO DUP1 ISZERO PUSH2 0x1222 JUMPI PUSH1 0x0 DUP1 REVERT JUMPDEST POP GAS DELEGATECALL ISZERO DUP1 ISZERO PUSH2 0x1236 JUMPI RETURNDATASIZE PUSH1 0x0 DUP1 RETURNDATACOPY RETURNDATASIZE PUSH1 0x0 REVERT JUMPDEST POP POP POP POP JUMPDEST POP POP POP POP POP POP POP POP POP JUMP JUMPDEST EXTCODESIZE ISZERO ISZERO SWAP1 JUMP JUMPDEST PUSH1 0x0 PUSH2 0x3FFF DUP5 GT ISZERO PUSH2 0x125D JUMPI PUSH1 0x0 DUP1 REVERT JUMPDEST PUSH5 0xFFFFFFFFFF DUP4 GT ISZERO PUSH2 0x126F JUMPI PUSH1 0x0 DUP1 REVERT JUMPDEST PUSH1 0x8 DUP3 GT ISZERO PUSH2 0x127D JUMPI PUSH1 0x0 DUP1 REVERT JUMPDEST POP PUSH8 0xFFFF000000000000 PUSH1 0x30 DUP5 SWAP1 SHL AND PUSH6 0xFFFFFFFFFF00 PUSH1 0x8 DUP5 SWAP1 SHL AND OR PUSH1 0xFF DUP3 AND OR SWAP4 SWAP3 POP POP POP JUMP JUMPDEST PUSH2 0xFFFF PUSH1 0x30 DUP3 SWAP1 SHR AND SWAP2 PUSH5 0xFFFFFFFFFF PUSH1 0x8 DUP4 SWAP1 SHR AND SWAP2 PUSH1 0xFF AND SWAP1 JUMP JUMPDEST PUSH1 0x0 PUSH1 0x1 PUSH1 0x1 PUSH1 0xFF SHL SUB DUP3 GT ISZERO PUSH2 0xA32 JUMPI PUSH1 0x0 DUP1 REVERT JUMPDEST PUSH2 0x12F0 PUSH2 0x12E6 DUP5 PUSH2 0x190B JUMP JUMPDEST PUSH1 0xFF AND DUP4 DUP4 PUSH2 0x1921 JUMP JUMPDEST PUSH2 0x130C JUMPI PUSH1 0x40 MLOAD PUSH3 0x461BCD PUSH1 0xE5 SHL DUP2 MSTORE PUSH1 0x4 ADD PUSH2 0x3D8 SWAP1 PUSH2 0x3763 JUMP JUMPDEST POP POP POP JUMP JUMPDEST PUSH1 0x0 DUP1 PUSH2 0x30C PUSH1 0x1 PUSH2 0x1971 JUMP JUMPDEST PUSH1 0x0 DUP1 PUSH2 0x1329 PUSH2 0x198A JUMP JUMPDEST PUSH1 0x1 PUSH1 0x1 PUSH1 0xA0 SHL SUB DUP7 AND PUSH1 0x0 SWAP1 DUP2 MSTORE PUSH1 0x20 SWAP2 DUP3 MSTORE PUSH1 0x40 DUP1 DUP3 KECCAK256 DUP8 DUP4 MSTORE DUP4 MSTORE DUP1 DUP3 KECCAK256 DUP7 DUP4 MSTORE SWAP1 SWAP3 MSTORE KECCAK256 SLOAD PUSH1 0xF SWAP1 DUP2 SIGNEXTEND SWAP1 SIGNEXTEND SWAP2 POP POP SWAP4 SWAP3 POP POP POP JUMP JUMPDEST PUSH1 0x60 PUSH1 0x10 DUP3 PUSH1 0xFF AND GT ISZERO PUSH2 0x1376 JUMPI PUSH1 0x0 DUP1 REVERT JUMPDEST PUSH1 0x0 PUSH2 0x1380 PUSH2 0x1997 JUMP JUMPDEST PUSH1 0x1 PUSH1 0x1 PUSH1 0xA0 SHL SUB DUP6 AND PUSH1 0x0 SWAP1 DUP2 MSTORE PUSH1 0x20 DUP3 SWAP1 MSTORE PUSH1 0x40 DUP2 KECCAK256 SWAP2 SWAP3 POP PUSH1 0xFF DUP6 AND PUSH1 0x1 PUSH1 0x1 PUSH1 0x40 SHL SUB DUP2 GT DUP1 ISZERO PUSH2 0x13B4 JUMPI PUSH1 0x0 DUP1 REVERT JUMPDEST POP PUSH1 0x40 MLOAD SWAP1 DUP1 DUP3 MSTORE DUP1 PUSH1 0x20 MUL PUSH1 0x20 ADD DUP3 ADD PUSH1 0x40 MSTORE DUP1 ISZERO PUSH2 0x13EE JUMPI DUP2 PUSH1 0x20 ADD JUMPDEST PUSH2 0x13DB PUSH2 0x2E5F JUMP JUMPDEST DUP2 MSTORE PUSH1 0x20 ADD SWAP1 PUSH1 0x1 SWAP1 SUB SWAP1 DUP2 PUSH2 0x13D3 JUMPI SWAP1 POP JUMPDEST POP SWAP1 POP PUSH1 0x0 JUMPDEST DUP6 PUSH1 0xFF AND DUP2 LT ISZERO PUSH2 0x62B JUMPI PUSH1 0x0 DUP4 DUP3 PUSH1 0x10 DUP2 LT PUSH2 0x140D JUMPI INVALID JUMPDEST ADD SWAP1 POP PUSH1 0x0 DUP4 DUP4 DUP2 MLOAD DUP2 LT PUSH2 0x141E JUMPI INVALID JUMPDEST PUSH1 0x20 SWAP1 DUP2 MUL SWAP2 SWAP1 SWAP2 ADD DUP2 ADD MLOAD DUP4 SLOAD PUSH2 0xFFFF DUP2 AND DUP3 MSTORE PUSH5 0xFFFFFFFFFF PUSH3 0x10000 DUP3 DIV AND SWAP3 DUP3 ADD SWAP3 SWAP1 SWAP3 MSTORE PUSH1 0xFF PUSH1 0x1 PUSH1 0x38 SHL DUP4 DIV AND PUSH1 0x40 DUP3 ADD MSTORE PUSH1 0x1 PUSH1 0x40 SHL SWAP1 SWAP2 DIV PUSH1 0xA SWAP1 DUP2 SIGNEXTEND SWAP1 SIGNEXTEND PUSH1 0x60 DUP3 ADD MSTORE PUSH1 0x80 ADD SWAP2 SWAP1 SWAP2 MSTORE POP PUSH1 0x1 ADD PUSH2 0x13F4 JUMP JUMPDEST DUP1 MLOAD PUSH1 0x0 DUP2 PUSH1 0x1 PUSH1 0x1 PUSH1 0x40 SHL SUB DUP2 GT DUP1 ISZERO PUSH2 0x1494 JUMPI PUSH1 0x0 DUP1 REVERT JUMPDEST POP PUSH1 0x40 MLOAD SWAP1 DUP1 DUP3 MSTORE DUP1 PUSH1 0x20 MUL PUSH1 0x20 ADD DUP3 ADD PUSH1 0x40 MSTORE DUP1 ISZERO PUSH2 0x14BE JUMPI DUP2 PUSH1 0x20 ADD PUSH1 0x20 DUP3 MUL DUP1 CALLDATASIZE DUP4 CALLDATACOPY ADD SWAP1 POP JUMPDEST POP SWAP1 POP PUSH1 0x0 JUMPDEST DUP3 DUP2 LT ISZERO PUSH2 0x151B JUMPI PUSH1 0x0 DUP5 DUP3 DUP2 MLOAD DUP2 LT PUSH2 0x14DA JUMPI INVALID JUMPDEST PUSH1 0x20 MUL PUSH1 0x20 ADD ADD MLOAD SWAP1 POP PUSH2 0x14FB DUP2 PUSH1 0x0 ADD MLOAD DUP3 PUSH1 0x20 ADD MLOAD DUP4 PUSH1 0x40 ADD MLOAD PUSH2 0x124C JUMP JUMPDEST DUP4 DUP4 DUP2 MLOAD DUP2 LT PUSH2 0x1507 JUMPI INVALID JUMPDEST PUSH1 0x20 SWAP1 DUP2 MUL SWAP2 SWAP1 SWAP2 ADD ADD MSTORE POP PUSH1 0x1 ADD PUSH2 0x14C4 JUMP JUMPDEST POP PUSH1 0x1 JUMPDEST DUP3 DUP2 LT ISZERO PUSH2 0x1632 JUMPI DUP1 JUMPDEST PUSH1 0x0 DUP2 GT DUP1 ISZERO PUSH2 0x1561 JUMPI POP DUP3 DUP2 DUP2 MLOAD DUP2 LT PUSH2 0x1540 JUMPI INVALID JUMPDEST PUSH1 0x20 MUL PUSH1 0x20 ADD ADD MLOAD DUP4 PUSH1 0x1 DUP4 SUB DUP2 MLOAD DUP2 LT PUSH2 0x1557 JUMPI INVALID JUMPDEST PUSH1 0x20 MUL PUSH1 0x20 ADD ADD MLOAD GT JUMPDEST ISZERO PUSH2 0x1629 JUMPI DUP3 DUP2 DUP2 MLOAD DUP2 LT PUSH2 0x1572 JUMPI INVALID JUMPDEST PUSH1 0x20 MUL PUSH1 0x20 ADD ADD MLOAD DUP4 PUSH1 0x1 DUP4 SUB DUP2 MLOAD DUP2 LT PUSH2 0x1589 JUMPI INVALID JUMPDEST PUSH1 0x20 MUL PUSH1 0x20 ADD ADD MLOAD DUP5 PUSH1 0x1 DUP5 SUB DUP2 MLOAD DUP2 LT PUSH2 0x15A0 JUMPI INVALID JUMPDEST PUSH1 0x20 MUL PUSH1 0x20 ADD ADD DUP6 DUP5 DUP2 MLOAD DUP2 LT PUSH2 0x15B3 JUMPI INVALID JUMPDEST PUSH1 0x20 MUL PUSH1 0x20 ADD ADD DUP3 DUP2 MSTORE POP DUP3 DUP2 MSTORE POP POP POP DUP5 DUP2 DUP2 MLOAD DUP2 LT PUSH2 0x15D0 JUMPI INVALID JUMPDEST PUSH1 0x20 MUL PUSH1 0x20 ADD ADD MLOAD DUP6 PUSH1 0x1 DUP4 SUB DUP2 MLOAD DUP2 LT PUSH2 0x15E7 JUMPI INVALID JUMPDEST PUSH1 0x20 MUL PUSH1 0x20 ADD ADD MLOAD DUP7 PUSH1 0x1 DUP5 SUB DUP2 MLOAD DUP2 LT PUSH2 0x15FE JUMPI INVALID JUMPDEST PUSH1 0x20 MUL PUSH1 0x20 ADD ADD DUP8 DUP5 DUP2 MLOAD DUP2 LT PUSH2 0x1611 JUMPI INVALID JUMPDEST PUSH1 0x20 SWAP1 DUP2 MUL SWAP2 SWAP1 SWAP2 ADD ADD SWAP2 SWAP1 SWAP2 MSTORE MSTORE PUSH1 0x0 NOT ADD PUSH2 0x1529 JUMP JUMPDEST POP PUSH1 0x1 ADD PUSH2 0x151F JUMP JUMPDEST POP POP POP POP JUMP JUMPDEST PUSH1 0x1 PUSH1 0x1 PUSH1 0xA0 SHL SUB DUP2 AND PUSH2 0x164B JUMPI PUSH1 0x0 DUP1 REVERT JUMPDEST PUSH1 0x1 PUSH1 0x1 PUSH1 0xA0 SHL SUB DUP2 AND ADDRESS EQ ISZERO PUSH2 0x1661 JUMPI PUSH1 0x0 DUP1 REVERT JUMPDEST PUSH1 0x0 PUSH2 0x166C DUP3 PUSH2 0x19A4 JUMP JUMPDEST POP POP POP POP PUSH2 0xFFFF AND SWAP1 POP DUP1 PUSH1 0x0 EQ PUSH2 0xC7A JUMPI PUSH1 0x0 DUP1 REVERT JUMPDEST PUSH1 0x0 TIMESTAMP PUSH2 0x168F DUP4 PUSH2 0xAD7 JUMP JUMPDEST ISZERO PUSH2 0x16B0 JUMPI PUSH2 0x169D DUP2 PUSH2 0x1A0D JUMP JUMPDEST DUP4 MLOAD PUSH5 0xFFFFFFFFFF AND LT SWAP2 POP PUSH2 0x327 SWAP1 POP JUMP JUMPDEST DUP3 MLOAD PUSH5 0xFFFFFFFFFF AND ISZERO DUP1 ISZERO SWAP1 PUSH2 0x16CF JUMPI POP DUP3 MLOAD PUSH5 0xFFFFFFFFFF AND DUP2 LT ISZERO JUMPDEST SWAP2 POP POP PUSH2 0x327 JUMP JUMPDEST PUSH2 0x16DF PUSH2 0x2E31 JUMP JUMPDEST PUSH2 0x16E8 DUP4 PUSH2 0x1683 JUMP JUMPDEST ISZERO PUSH2 0x1705 JUMPI PUSH1 0x40 MLOAD PUSH3 0x461BCD PUSH1 0xE5 SHL DUP2 MSTORE PUSH1 0x4 ADD PUSH2 0x3D8 SWAP1 PUSH2 0x370D JUMP JUMPDEST PUSH2 0x170E DUP4 PUSH2 0xAD7 JUMP JUMPDEST ISZERO PUSH2 0x1723 JUMPI PUSH2 0x171E DUP5 DUP5 DUP5 PUSH2 0x1A2E JUMP JUMPDEST PUSH2 0x1750 JUMP JUMPDEST PUSH1 0x0 PUSH2 0x1735 DUP6 DUP6 PUSH1 0x40 ADD MLOAD DUP6 MLOAD PUSH2 0x1AF6 JUMP JUMPDEST SWAP1 POP PUSH2 0x1741 DUP2 DUP5 PUSH2 0x1B88 JUMP JUMPDEST PUSH2 0x174E DUP5 DUP7 DUP4 PUSH1 0x0 PUSH2 0x1BE6 JUMP JUMPDEST POP JUMPDEST POP SWAP1 SWAP3 SWAP2 POP POP JUMP JUMPDEST PUSH1 0x0 PUSH2 0x1762 PUSH2 0x1311 JUMP JUMPDEST PUSH1 0x1 PUSH1 0x1 PUSH1 0xA0 SHL SUB DUP4 AND PUSH1 0x0 DUP2 DUP2 MSTORE PUSH1 0x20 DUP4 DUP2 MSTORE PUSH1 0x40 DUP1 DUP4 KECCAK256 DUP9 MLOAD DUP2 SLOAD SWAP4 DUP11 ADD MLOAD DUP4 DUP12 ADD MLOAD PUSH1 0x60 DUP13 ADD MLOAD PUSH1 0x80 DUP14 ADD MLOAD PUSH1 0x70 SHR PUSH1 0x1 PUSH1 0x48 SHL MUL PUSH27 0xFFFFFFFFFFFFFFFFFFFFFFFFFFFFFFFFFFFF000000000000000000 NOT PUSH2 0xFFFF SWAP1 SWAP3 AND PUSH1 0x1 PUSH1 0x38 SHL MUL PUSH9 0xFFFF00000000000000 NOT PUSH1 0xFF SWAP5 SWAP1 SWAP5 AND PUSH1 0x1 PUSH1 0x30 SHL MUL PUSH7 0xFF000000000000 NOT PUSH1 0xF8 SWAP7 SWAP1 SWAP7 SHR PUSH6 0x10000000000 MUL PUSH6 0xFF0000000000 NOT PUSH5 0xFFFFFFFFFF SWAP1 SWAP9 AND PUSH5 0xFFFFFFFFFF NOT SWAP1 SWAP12 AND SWAP11 SWAP1 SWAP11 OR SWAP7 SWAP1 SWAP7 AND SWAP9 SWAP1 SWAP9 OR SWAP4 SWAP1 SWAP4 AND SWAP4 SWAP1 SWAP4 OR AND SWAP5 SWAP1 SWAP5 OR AND SWAP3 SWAP1 SWAP3 OR SWAP1 SWAP2 SSTORE MLOAD SWAP3 SWAP4 POP SWAP1 SWAP2 PUSH32 0x6BD4B121BCA854A191536A2CA891155C42EE2FB23F307FB34E8BC65CFCB5412E SWAP2 SWAP1 LOG2 POP POP POP JUMP JUMPDEST PUSH1 0x0 JUMPDEST DUP2 MLOAD DUP2 LT ISZERO PUSH2 0xC7A JUMPI PUSH2 0x1888 DUP3 DUP3 DUP2 MLOAD DUP2 LT PUSH2 0x1877 JUMPI INVALID JUMPDEST PUSH1 0x20 MUL PUSH1 0x20 ADD ADD MLOAD PUSH1 0x60 ADD MLOAD PUSH2 0x1CBD JUMP JUMPDEST DUP3 DUP3 DUP2 MLOAD DUP2 LT PUSH2 0x1894 JUMPI INVALID JUMPDEST PUSH1 0x20 SWAP1 DUP2 MUL SWAP2 SWAP1 SWAP2 ADD ADD MLOAD PUSH1 0x60 ADD MSTORE PUSH1 0x1 ADD PUSH2 0x185F JUMP JUMPDEST PUSH1 0x60 PUSH1 0x44 DUP3 MLOAD LT ISZERO PUSH2 0x18F1 JUMPI POP PUSH1 0x40 DUP1 MLOAD DUP1 DUP3 ADD SWAP1 SWAP2 MSTORE PUSH1 0x1D DUP2 MSTORE PUSH32 0x5472616E73616374696F6E2072657665727465642073696C656E746C79000000 PUSH1 0x20 DUP3 ADD MSTORE PUSH2 0x327 JUMP JUMPDEST PUSH1 0x4 DUP3 ADD SWAP2 POP DUP2 DUP1 PUSH1 0x20 ADD SWAP1 MLOAD DUP2 ADD SWAP1 PUSH2 0x30C SWAP2 SWAP1 PUSH2 0x3210 JUMP JUMPDEST PUSH1 0x0 DUP1 PUSH2 0x1917 DUP4 PUSH2 0x1CCB JUMP JUMPDEST PUSH1 0xFF AND SWAP4 SWAP3 POP POP POP JUMP JUMPDEST PUSH1 0x0 DUP1 PUSH2 0x192D DUP4 PUSH2 0x1CE8 JUMP JUMPDEST SWAP1 POP PUSH1 0x0 PUSH2 0x1944 PUSH2 0x193D DUP8 PUSH2 0x1D04 JUMP JUMPDEST DUP4 SWAP1 PUSH2 0x1DA8 JUMP JUMPDEST SWAP1 POP DUP1 DUP6 GT ISZERO PUSH2 0x1959 JUMPI PUSH1 0x0 SWAP3 POP POP POP PUSH2 0x653 JUMP JUMPDEST PUSH1 0x0 PUSH2 0x1965 DUP6 DUP8 PUSH2 0x1E02 JUMP JUMPDEST SWAP9 SWAP8 POP POP POP POP POP POP POP POP JUMP JUMPDEST PUSH1 0x0 PUSH3 0xF4240 DUP3 PUSH1 0x13 DUP2 GT ISZERO PUSH2 0x1983 JUMPI INVALID JUMPDEST ADD SWAP3 SWAP2 POP POP JUMP JUMPDEST PUSH1 0x0 DUP1 PUSH2 0x30C PUSH1 0xC PUSH2 0x1971 JUMP JUMPDEST PUSH1 0x0 DUP1 PUSH2 0x30C PUSH1 0xD PUSH2 0x1971 JUMP JUMPDEST PUSH1 0x0 DUP1 PUSH1 0x0 DUP1 PUSH1 0x0 DUP1 PUSH2 0x19B5 PUSH2 0x1F0D JUMP JUMPDEST PUSH1 0x1 PUSH1 0x1 PUSH1 0xA0 SHL SUB SWAP1 SWAP8 AND PUSH1 0x0 SWAP1 DUP2 MSTORE PUSH1 0x20 SWAP8 SWAP1 SWAP8 MSTORE POP POP PUSH1 0x40 SWAP1 SWAP5 KECCAK256 SLOAD PUSH2 0xFFFF DUP2 AND SWAP6 PUSH4 0xFFFFFFFF PUSH3 0x10000 DUP4 DIV DUP2 AND SWAP7 POP PUSH1 0x1 PUSH1 0x30 SHL DUP4 DIV AND SWAP5 POP PUSH1 0xFF PUSH1 0x1 PUSH1 0x50 SHL DUP4 DIV AND SWAP4 POP PUSH1 0x1 PUSH1 0x58 SHL SWAP1 SWAP2 DIV PUSH1 0xD8 SHL SWAP2 POP JUMP JUMPDEST PUSH1 0x0 PUSH3 0x15180 DUP3 LT ISZERO PUSH2 0x1A1F JUMPI PUSH1 0x0 DUP1 REVERT JUMPDEST PUSH3 0x15180 DUP3 JUMPDEST MOD SWAP1 SWAP2 SUB SWAP2 SWAP1 POP JUMP JUMPDEST PUSH2 0x1A37 DUP3 PUSH2 0xAD7 JUMP JUMPDEST PUSH2 0x1A40 JUMPI PUSH1 0x0 DUP1 REVERT JUMPDEST PUSH1 0x60 DUP3 ADD MLOAD PUSH2 0xFFFF AND PUSH1 0x0 JUMPDEST DUP3 MLOAD DUP2 LT ISZERO PUSH2 0x1AEF JUMPI PUSH1 0x0 DUP4 DUP3 DUP2 MLOAD DUP2 LT PUSH2 0x1A63 JUMPI INVALID JUMPDEST PUSH1 0x20 MUL PUSH1 0x20 ADD ADD MLOAD SWAP1 POP DUP1 PUSH1 0x60 ADD MLOAD PUSH1 0x0 EQ ISZERO PUSH2 0x1A80 JUMPI POP PUSH2 0x1AE7 JUMP JUMPDEST DUP1 MLOAD DUP4 EQ PUSH2 0x1A8D JUMPI PUSH1 0x0 DUP1 REVERT JUMPDEST PUSH1 0x40 DUP2 ADD MLOAD PUSH1 0x1 EQ PUSH2 0x1A9E JUMPI PUSH1 0x0 DUP1 REVERT JUMPDEST PUSH1 0x0 PUSH2 0x1AC0 DUP8 DUP6 DUP5 PUSH1 0x20 ADD MLOAD DUP10 PUSH1 0x0 ADD MLOAD PUSH5 0xFFFFFFFFFF AND DUP7 PUSH1 0x60 ADD MLOAD PUSH2 0x1F1A JUMP JUMPDEST SWAP1 POP PUSH1 0x0 DUP2 SLT ISZERO PUSH2 0x1AE4 JUMPI PUSH1 0x20 DUP7 ADD DUP1 MLOAD PUSH1 0x1 PUSH1 0xF8 SHL OR PUSH1 0x1 PUSH1 0x1 PUSH1 0xF8 SHL SUB NOT AND SWAP1 MSTORE JUMPDEST POP POP JUMPDEST PUSH1 0x1 ADD PUSH2 0x1A4C JUMP JUMPDEST POP POP POP POP POP JUMP JUMPDEST PUSH2 0x1AFE PUSH2 0x2E9F JUMP JUMPDEST PUSH2 0x1B06 PUSH2 0x2E9F JUMP JUMPDEST PUSH1 0xFF DUP5 AND PUSH2 0x1B15 JUMPI SWAP1 POP PUSH2 0x653 JUMP JUMPDEST PUSH2 0x1B1F DUP6 DUP6 PUSH2 0xB2F JUMP JUMPDEST DUP2 MSTORE PUSH1 0xFF DUP5 AND PUSH1 0x60 DUP3 ADD MSTORE DUP3 PUSH1 0x1 PUSH1 0x1 PUSH1 0x40 SHL SUB DUP2 GT DUP1 ISZERO PUSH2 0x1B40 JUMPI PUSH1 0x0 DUP1 REVERT JUMPDEST POP PUSH1 0x40 MLOAD SWAP1 DUP1 DUP3 MSTORE DUP1 PUSH1 0x20 MUL PUSH1 0x20 ADD DUP3 ADD PUSH1 0x40 MSTORE DUP1 ISZERO PUSH2 0x1B7A JUMPI DUP2 PUSH1 0x20 ADD JUMPDEST PUSH2 0x1B67 PUSH2 0x2E5F JUMP JUMPDEST DUP2 MSTORE PUSH1 0x20 ADD SWAP1 PUSH1 0x1 SWAP1 SUB SWAP1 DUP2 PUSH2 0x1B5F JUMPI SWAP1 POP JUMPDEST POP PUSH1 0x20 DUP3 ADD MSTORE SWAP5 SWAP4 POP POP POP POP JUMP JUMPDEST PUSH1 0x0 JUMPDEST DUP2 MLOAD DUP2 LT ISZERO PUSH2 0x130C JUMPI PUSH1 0x0 DUP3 DUP3 DUP2 MLOAD DUP2 LT PUSH2 0x1BA2 JUMPI INVALID JUMPDEST PUSH1 0x20 MUL PUSH1 0x20 ADD ADD MLOAD SWAP1 POP DUP1 PUSH1 0x60 ADD MLOAD PUSH1 0x0 EQ ISZERO PUSH2 0x1BBF JUMPI POP PUSH2 0x1BDE JUMP JUMPDEST PUSH2 0x1BDC DUP5 DUP3 PUSH1 0x0 ADD MLOAD DUP4 PUSH1 0x20 ADD MLOAD DUP5 PUSH1 0x40 ADD MLOAD DUP6 PUSH1 0x60 ADD MLOAD PUSH2 0x2087 JUMP JUMPDEST POP JUMPDEST PUSH1 0x1 ADD PUSH2 0x1B8B JUMP JUMPDEST PUSH1 0x0 DUP1 DUP1 DUP1 PUSH2 0x1BF5 DUP7 DUP9 PUSH2 0x218C JUMP JUMPDEST PUSH5 0xFFFFFFFFFF DUP2 AND DUP13 MSTORE SWAP3 SWAP7 POP SWAP1 SWAP5 POP SWAP3 POP SWAP1 POP PUSH2 0x1C12 DUP9 PUSH2 0x1683 JUMP JUMPDEST ISZERO PUSH2 0x1C1C JUMPI PUSH1 0x0 DUP1 REVERT JUMPDEST PUSH1 0xFF DUP3 AND PUSH1 0x40 DUP10 ADD MSTORE DUP5 PUSH2 0x1C3B JUMPI PUSH1 0x7 PUSH1 0xFF DUP4 AND GT ISZERO PUSH2 0x1C3B JUMPI PUSH1 0x0 DUP1 REVERT JUMPDEST DUP4 ISZERO PUSH2 0x1C5E JUMPI PUSH1 0x20 DUP9 ADD DUP1 MLOAD PUSH1 0x1 PUSH1 0xF8 SHL OR PUSH1 0x1 PUSH1 0x1 PUSH1 0xF8 SHL SUB NOT AND SWAP1 MSTORE PUSH2 0x1C6D JUMP JUMPDEST PUSH1 0x20 DUP9 ADD DUP1 MLOAD PUSH1 0x7F PUSH1 0xF9 SHL AND SWAP1 MSTORE JUMPDEST PUSH2 0x1C7A DUP9 PUSH1 0x80 ADD MLOAD PUSH2 0x23CB JUMP JUMPDEST PUSH1 0x1 PUSH1 0x1 PUSH1 0x70 SHL SUB NOT AND PUSH1 0x80 DUP10 ADD MSTORE PUSH1 0x0 JUMPDEST DUP4 ISZERO PUSH2 0x123B JUMPI PUSH1 0xF0 DUP5 SWAP1 SHR DUP2 DUP2 EQ PUSH2 0x1CAF JUMPI PUSH2 0x1CAF DUP11 DUP3 PUSH1 0x1 PUSH1 0x1 PUSH1 0xFF SHL PUSH2 0x2446 JUMP JUMPDEST PUSH1 0x10 SWAP5 SWAP1 SWAP5 SHL SWAP4 SWAP1 POP PUSH2 0x1C8C JUMP JUMPDEST PUSH1 0x0 PUSH2 0x30C PUSH1 0x0 NOT DUP4 PUSH2 0x2645 JUMP JUMPDEST PUSH1 0x0 DUP1 PUSH2 0x1CD6 PUSH2 0x2693 JUMP JUMPDEST PUSH1 0x0 SWAP4 DUP5 MSTORE PUSH1 0x20 MSTORE POP POP PUSH1 0x40 SWAP1 KECCAK256 SLOAD SWAP1 JUMP JUMPDEST PUSH1 0x0 PUSH3 0x76A700 DUP3 LT ISZERO PUSH2 0x1CFA JUMPI PUSH1 0x0 DUP1 REVERT JUMPDEST PUSH3 0x76A700 DUP3 PUSH2 0x1A25 JUMP JUMPDEST PUSH1 0x0 DUP2 PUSH1 0x1 EQ ISZERO PUSH2 0x1D19 JUMPI POP PUSH3 0x76A700 PUSH2 0x327 JUMP JUMPDEST DUP2 PUSH1 0x2 EQ ISZERO PUSH2 0x1D2C JUMPI POP PUSH3 0xED4E00 PUSH2 0x327 JUMP JUMPDEST DUP2 PUSH1 0x3 EQ ISZERO PUSH2 0x1D40 JUMPI POP PUSH4 0x1DA9C00 PUSH2 0x327 JUMP JUMPDEST DUP2 PUSH1 0x4 EQ ISZERO PUSH2 0x1D54 JUMPI POP PUSH4 0x3B53800 PUSH2 0x327 JUMP JUMPDEST DUP2 PUSH1 0x5 EQ ISZERO PUSH2 0x1D68 JUMPI POP PUSH4 0x9450C00 PUSH2 0x327 JUMP JUMPDEST DUP2 PUSH1 0x6 EQ ISZERO PUSH2 0x1D7C JUMPI POP PUSH4 0x128A1800 PUSH2 0x327 JUMP JUMPDEST DUP2 PUSH1 0x7 EQ ISZERO PUSH2 0x1D90 JUMPI POP PUSH4 0x25143000 PUSH2 0x327 JUMP JUMPDEST PUSH1 0x40 MLOAD PUSH3 0x461BCD PUSH1 0xE5 SHL DUP2 MSTORE PUSH1 0x4 ADD PUSH2 0x3D8 SWAP1 PUSH2 0x36E6 JUMP JUMPDEST PUSH1 0x0 DUP3 DUP3 ADD DUP4 DUP2 LT ISZERO PUSH2 0x653 JUMPI PUSH1 0x40 DUP1 MLOAD PUSH3 0x461BCD PUSH1 0xE5 SHL DUP2 MSTORE PUSH1 0x20 PUSH1 0x4 DUP3 ADD MSTORE PUSH1 0x1B PUSH1 0x24 DUP3 ADD MSTORE PUSH32 0x536166654D6174683A206164646974696F6E206F766572666C6F770000000000 PUSH1 0x44 DUP3 ADD MSTORE SWAP1 MLOAD SWAP1 DUP2 SWAP1 SUB PUSH1 0x64 ADD SWAP1 REVERT JUMPDEST PUSH1 0x0 DUP1 PUSH1 0x0 PUSH2 0x1E10 DUP6 PUSH2 0x1A0D JUMP JUMPDEST SWAP1 POP PUSH3 0x15180 DUP5 MOD ISZERO PUSH2 0x1E2A JUMPI PUSH1 0x0 DUP1 SWAP3 POP SWAP3 POP POP PUSH2 0x1F06 JUMP JUMPDEST DUP4 DUP2 LT PUSH2 0x1E3E JUMPI PUSH1 0x0 DUP1 SWAP3 POP SWAP3 POP POP PUSH2 0x1F06 JUMP JUMPDEST PUSH3 0x15180 DUP2 DUP6 SUB DIV PUSH1 0x5A DUP2 GT PUSH2 0x1E5B JUMPI SWAP3 POP PUSH1 0x1 SWAP2 POP PUSH2 0x1F06 SWAP1 POP JUMP JUMPDEST PUSH2 0x168 DUP2 GT PUSH2 0x1E9A JUMPI PUSH1 0x0 PUSH3 0x15180 PUSH3 0x7E900 DUP5 MOD DIV DUP3 ADD PUSH1 0x59 NOT ADD SWAP1 POP PUSH1 0x6 DUP2 DIV PUSH1 0x5A ADD PUSH1 0x6 DUP3 DUP2 PUSH2 0x1E8A JUMPI INVALID JUMPDEST MOD PUSH1 0x0 EQ SWAP5 POP SWAP5 POP POP POP POP PUSH2 0x1F06 JUMP JUMPDEST PUSH2 0x870 DUP2 GT PUSH2 0x1ECA JUMPI PUSH1 0x0 PUSH3 0x15180 PUSH3 0x278D00 DUP5 MOD DIV DUP3 ADD PUSH2 0x167 NOT ADD SWAP1 POP PUSH1 0x1E DUP2 DIV PUSH1 0x87 ADD PUSH1 0x1E DUP3 DUP2 PUSH2 0x1E8A JUMPI INVALID JUMPDEST PUSH2 0x1DE2 DUP2 GT PUSH2 0x1EFA JUMPI PUSH1 0x0 PUSH3 0x15180 PUSH3 0x76A700 DUP5 MOD DIV DUP3 ADD PUSH2 0x86F NOT ADD SWAP1 POP PUSH1 0x5A DUP2 DIV PUSH1 0xC3 ADD PUSH1 0x5A DUP3 DUP2 PUSH2 0x1E8A JUMPI INVALID JUMPDEST PUSH2 0x100 PUSH1 0x0 SWAP4 POP SWAP4 POP POP POP JUMPDEST SWAP3 POP SWAP3 SWAP1 POP JUMP JUMPDEST PUSH1 0x0 DUP1 PUSH2 0x30C PUSH1 0x2 PUSH2 0x1971 JUMP JUMPDEST PUSH1 0x0 DUP1 PUSH2 0x1F27 DUP8 DUP8 PUSH2 0x26A0 JUMP JUMPDEST SWAP1 POP PUSH1 0x0 PUSH2 0x1F33 PUSH2 0x198A JUMP JUMPDEST PUSH1 0x1 PUSH1 0x1 PUSH1 0xA0 SHL SUB DUP10 AND PUSH1 0x0 SWAP1 DUP2 MSTORE PUSH1 0x20 DUP3 DUP2 MSTORE PUSH1 0x40 DUP1 DUP4 KECCAK256 DUP12 DUP5 MSTORE DUP3 MSTORE DUP1 DUP4 KECCAK256 DUP11 DUP5 MSTORE SWAP1 SWAP2 MSTORE DUP2 KECCAK256 SWAP2 SWAP3 POP DUP1 PUSH2 0x1F6A DUP9 DUP11 PUSH2 0x1E02 JUMP JUMPDEST SWAP2 POP SWAP2 POP DUP1 PUSH2 0x1F78 JUMPI PUSH1 0x0 DUP1 REVERT JUMPDEST PUSH2 0x1F82 DUP6 DUP4 PUSH2 0x26D5 JUMP JUMPDEST ISZERO PUSH2 0x2011 JUMPI DUP3 SLOAD PUSH1 0x0 SWAP1 PUSH2 0x1F9E SWAP1 DUP10 SWAP1 PUSH1 0xF SWAP1 DUP2 SIGNEXTEND SWAP1 SIGNEXTEND PUSH2 0x2705 JUMP JUMPDEST SWAP1 POP PUSH1 0x1 PUSH1 0x1 PUSH1 0x7F SHL SUB NOT DUP2 SLT DUP1 ISZERO SWAP1 PUSH2 0x1FBF JUMPI POP PUSH1 0x1 PUSH1 0x1 PUSH1 0x7F SHL SUB DUP2 SGT ISZERO JUMPDEST PUSH2 0x1FC8 JUMPI PUSH1 0x0 DUP1 REVERT JUMPDEST DUP4 SLOAD PUSH1 0x1 PUSH1 0x1 PUSH1 0x80 SHL SUB NOT AND PUSH1 0x1 PUSH1 0x1 PUSH1 0x80 SHL SUB PUSH1 0xF DUP4 SWAP1 SIGNEXTEND AND OR DUP5 SSTORE DUP1 PUSH2 0x1FF9 JUMPI PUSH2 0x1FF6 DUP7 DUP5 PUSH1 0x0 PUSH2 0x271B JUMP JUMPDEST SWAP6 POP JUMPDEST PUSH2 0x2004 DUP13 DUP13 DUP9 PUSH2 0x2766 JUMP JUMPDEST SWAP6 POP PUSH2 0x207E SWAP5 POP POP POP POP POP JUMP JUMPDEST DUP7 ISZERO PUSH2 0x2075 JUMPI PUSH1 0x1 PUSH1 0x1 PUSH1 0x7F SHL SUB NOT DUP8 SLT DUP1 ISZERO SWAP1 PUSH2 0x2036 JUMPI POP PUSH1 0x1 PUSH1 0x1 PUSH1 0x7F SHL SUB DUP8 SGT ISZERO JUMPDEST PUSH2 0x203F JUMPI PUSH1 0x0 DUP1 REVERT JUMPDEST DUP3 SLOAD PUSH1 0x1 PUSH1 0x1 PUSH1 0x80 SHL SUB NOT AND PUSH1 0x1 PUSH1 0x1 PUSH1 0x80 SHL SUB PUSH1 0xF DUP10 SWAP1 SIGNEXTEND AND OR DUP4 SSTORE PUSH2 0x2068 DUP6 DUP4 PUSH1 0x1 PUSH2 0x271B JUMP JUMPDEST SWAP5 POP PUSH2 0x2075 DUP12 DUP12 DUP8 PUSH2 0x2766 JUMP JUMPDEST DUP7 SWAP6 POP POP POP POP POP POP JUMPDEST SWAP6 SWAP5 POP POP POP POP POP JUMP JUMPDEST DUP5 MLOAD PUSH2 0x2096 SWAP1 DUP6 DUP6 DUP6 DUP6 PUSH2 0x27C0 JUMP JUMPDEST ISZERO PUSH2 0x20A0 JUMPI PUSH2 0x1AEF JUMP JUMPDEST PUSH1 0x40 DUP6 ADD MLOAD ISZERO PUSH2 0x20CD JUMPI PUSH1 0x0 PUSH2 0x20BD DUP7 PUSH1 0x20 ADD MLOAD DUP7 DUP7 DUP7 DUP7 PUSH2 0x27C0 JUMP JUMPDEST SWAP1 POP DUP1 ISZERO PUSH2 0x20CB JUMPI POP PUSH2 0x1AEF JUMP JUMPDEST POP JUMPDEST PUSH2 0x20D6 DUP3 PUSH2 0x28D9 JUMP JUMPDEST ISZERO PUSH2 0x20E9 JUMPI PUSH1 0x0 DUP2 SLT ISZERO PUSH2 0x20E9 JUMPI PUSH1 0x0 DUP1 REVERT JUMPDEST PUSH11 0x7FFFFFFFFFFFFFFFFFFFFF NOT DUP2 SLT DUP1 ISZERO SWAP1 PUSH2 0x2110 JUMPI POP PUSH11 0x7FFFFFFFFFFFFFFFFFFFFF DUP2 SGT ISZERO JUMPDEST PUSH2 0x2119 JUMPI PUSH1 0x0 DUP1 REVERT JUMPDEST DUP5 PUSH1 0x20 ADD MLOAD MLOAD DUP6 PUSH1 0x40 ADD MLOAD EQ ISZERO PUSH2 0x213D JUMPI PUSH2 0x2137 DUP6 PUSH1 0x20 ADD MLOAD PUSH2 0x28EF JUMP JUMPDEST PUSH1 0x20 DUP7 ADD MSTORE JUMPDEST PUSH1 0x0 DUP6 PUSH1 0x20 ADD MLOAD DUP7 PUSH1 0x40 ADD MLOAD DUP2 MLOAD DUP2 LT PUSH2 0x2153 JUMPI INVALID JUMPDEST PUSH1 0x20 SWAP1 DUP2 MUL SWAP2 SWAP1 SWAP2 ADD DUP2 ADD MLOAD SWAP6 DUP7 MSTORE DUP6 ADD SWAP4 SWAP1 SWAP4 MSTORE PUSH1 0x40 DUP1 DUP6 ADD SWAP3 SWAP1 SWAP3 MSTORE PUSH1 0x60 DUP5 ADD MSTORE PUSH1 0x0 PUSH1 0xA0 SWAP1 SWAP4 ADD SWAP3 SWAP1 SWAP3 MSTORE POP ADD DUP1 MLOAD PUSH1 0x1 ADD SWAP1 MSTORE JUMP JUMPDEST PUSH1 0x0 DUP1 DUP1 DUP1 DUP1 DUP1 DUP1 DUP1 JUMPDEST DUP10 MLOAD MLOAD DUP2 LT ISZERO PUSH2 0x221D JUMPI PUSH1 0x0 DUP11 PUSH1 0x0 ADD MLOAD DUP3 DUP2 MLOAD DUP2 LT PUSH2 0x21B2 JUMPI INVALID JUMPDEST PUSH1 0x20 MUL PUSH1 0x20 ADD ADD MLOAD SWAP1 POP PUSH1 0x3 DUP1 DUP2 GT ISZERO PUSH2 0x21C8 JUMPI INVALID JUMPDEST DUP2 PUSH1 0xA0 ADD MLOAD PUSH1 0x3 DUP2 GT ISZERO PUSH2 0x21D8 JUMPI INVALID JUMPDEST EQ ISZERO PUSH2 0x21E3 JUMPI PUSH1 0x0 DUP1 REVERT JUMPDEST PUSH1 0x2 DUP2 PUSH1 0xA0 ADD MLOAD PUSH1 0x3 DUP2 GT ISZERO PUSH2 0x21F5 JUMPI INVALID JUMPDEST EQ ISZERO DUP1 ISZERO PUSH2 0x2205 JUMPI POP PUSH1 0x60 DUP2 ADD MLOAD ISZERO JUMPDEST ISZERO PUSH2 0x2214 JUMPI PUSH2 0x2214 DUP12 DUP4 PUSH2 0x29A7 JUMP JUMPDEST POP PUSH1 0x1 ADD PUSH2 0x2196 JUMP JUMPDEST POP PUSH1 0x0 JUMPDEST DUP10 MLOAD MLOAD DUP2 LT ISZERO PUSH2 0x22C0 JUMPI PUSH1 0x0 DUP11 PUSH1 0x0 ADD MLOAD DUP3 DUP2 MLOAD DUP2 LT PUSH2 0x223D JUMPI INVALID JUMPDEST PUSH1 0x20 MUL PUSH1 0x20 ADD ADD MLOAD SWAP1 POP PUSH1 0x2 PUSH1 0x3 DUP2 GT ISZERO PUSH2 0x2254 JUMPI INVALID JUMPDEST DUP2 PUSH1 0xA0 ADD MLOAD PUSH1 0x3 DUP2 GT ISZERO PUSH2 0x2264 JUMPI INVALID JUMPDEST EQ ISZERO PUSH2 0x2278 JUMPI PUSH1 0x80 DUP2 ADD MLOAD PUSH1 0x0 SWAP1 SSTORE PUSH2 0x22B7 JUMP JUMPDEST PUSH1 0x1 DUP2 PUSH1 0xA0 ADD MLOAD PUSH1 0x3 DUP2 GT ISZERO PUSH2 0x228A JUMPI INVALID JUMPDEST EQ ISZERO PUSH2 0x22A3 JUMPI PUSH1 0x80 DUP2 ADD MLOAD DUP1 PUSH2 0x22A0 DUP4 DUP3 PUSH2 0x2AF6 JUMP JUMPDEST POP POP JUMPDEST PUSH2 0x22AF DUP2 DUP7 DUP7 DUP7 PUSH2 0x2C27 JUMP JUMPDEST SWAP2 SWAP7 POP SWAP5 POP SWAP3 POP JUMPDEST POP PUSH1 0x1 ADD PUSH2 0x2221 JUMP JUMPDEST POP PUSH1 0x60 DUP10 ADD MLOAD PUSH1 0x0 PUSH2 0x22D0 PUSH2 0x1997 JUMP JUMPDEST PUSH1 0x1 PUSH1 0x1 PUSH1 0xA0 SHL SUB DUP12 AND PUSH1 0x0 SWAP1 DUP2 MSTORE PUSH1 0x20 DUP3 SWAP1 MSTORE PUSH1 0x40 DUP2 KECCAK256 SWAP2 SWAP3 POP JUMPDEST DUP13 PUSH1 0x20 ADD MLOAD MLOAD DUP2 LT ISZERO PUSH2 0x239A JUMPI PUSH1 0x0 DUP14 PUSH1 0x20 ADD MLOAD DUP3 DUP2 MLOAD DUP2 LT PUSH2 0x230B JUMPI INVALID JUMPDEST PUSH1 0x20 MUL PUSH1 0x20 ADD ADD MLOAD SWAP1 POP DUP1 PUSH1 0x60 ADD MLOAD PUSH1 0x0 EQ ISZERO PUSH2 0x2328 JUMPI POP PUSH2 0x2392 JUMP JUMPDEST PUSH1 0x2 DUP2 PUSH1 0xA0 ADD MLOAD PUSH1 0x3 DUP2 GT ISZERO PUSH2 0x233A JUMPI INVALID JUMPDEST EQ ISZERO DUP1 ISZERO PUSH2 0x2358 JUMPI POP PUSH1 0x3 DUP2 PUSH1 0xA0 ADD MLOAD PUSH1 0x3 DUP2 GT ISZERO PUSH2 0x2355 JUMPI INVALID JUMPDEST EQ ISZERO JUMPDEST PUSH2 0x2361 JUMPI PUSH1 0x0 DUP1 REVERT JUMPDEST PUSH2 0x236D DUP2 DUP10 DUP10 DUP10 PUSH2 0x2C27 JUMP JUMPDEST SWAP2 SWAP10 POP SWAP8 POP SWAP6 POP PUSH2 0x238A DUP2 DUP5 DUP8 PUSH1 0x10 DUP2 LT PUSH2 0x2384 JUMPI INVALID JUMPDEST ADD PUSH2 0x2AF6 JUMP JUMPDEST PUSH1 0x1 DUP6 ADD SWAP5 POP POP JUMPDEST PUSH1 0x1 ADD PUSH2 0x22EC JUMP JUMPDEST POP PUSH1 0x10 DUP4 GT ISZERO DUP1 ISZERO PUSH2 0x23B1 JUMPI POP PUSH5 0xFFFFFFFFFF DUP5 GT ISZERO JUMPDEST PUSH2 0x23BA JUMPI PUSH1 0x0 DUP1 REVERT JUMPDEST POP SWAP4 SWAP11 SWAP3 SWAP10 POP SWAP8 POP SWAP6 POP SWAP4 POP POP POP POP JUMP JUMPDEST PUSH1 0x0 DUP1 PUSH32 0x7FFF7FFF7FFF7FFF7FFF7FFF7FFF7FFF7FFF0000000000000000000000000000 DUP4 AND DUP2 JUMPDEST PUSH1 0x1 PUSH1 0x1 PUSH1 0x70 SHL SUB NOT DUP3 AND ISZERO PUSH2 0x243D JUMPI PUSH1 0x1 PUSH1 0xFE SHL DUP3 DUP2 AND EQ ISZERO PUSH2 0x2427 JUMPI PUSH1 0x1 PUSH1 0x1 PUSH1 0xF0 SHL SUB NOT DUP3 AND DUP2 SHR SWAP3 SWAP1 SWAP3 OR SWAP2 PUSH1 0x10 ADD JUMPDEST PUSH1 0x10 DUP3 PUSH1 0x1 PUSH1 0x1 PUSH1 0x70 SHL SUB NOT AND SWAP1 SHL SWAP2 POP PUSH2 0x23F3 JUMP JUMPDEST POP SWAP1 SWAP4 SWAP3 POP POP POP JUMP JUMPDEST DUP3 PUSH1 0x0 LT DUP1 ISZERO PUSH2 0x2458 JUMPI POP PUSH2 0x3FFF DUP4 GT ISZERO JUMPDEST PUSH2 0x2461 JUMPI PUSH1 0x0 DUP1 REVERT JUMPDEST DUP2 DUP1 ISZERO PUSH2 0x2475 JUMPI POP DUP3 DUP5 PUSH1 0x60 ADD MLOAD PUSH2 0xFFFF AND EQ JUMPDEST ISZERO PUSH2 0x247F JUMPI PUSH2 0x1632 JUMP JUMPDEST PUSH1 0x80 DUP5 ADD MLOAD PUSH1 0x0 SWAP1 DUP2 JUMPDEST PUSH1 0x1 PUSH1 0x1 PUSH1 0x70 SHL SUB NOT DUP3 AND ISZERO PUSH2 0x25FA JUMPI PUSH1 0xF0 DUP3 SWAP1 SHR PUSH2 0x3FFF AND DUP7 DUP2 EQ DUP1 ISZERO PUSH2 0x24AE JUMPI POP DUP6 JUMPDEST ISZERO PUSH2 0x24E6 JUMPI POP PUSH1 0x80 DUP8 ADD DUP1 MLOAD PUSH1 0x1 PUSH1 0x1 PUSH1 0xF0 SHL SUB NOT DUP7 AND PUSH1 0x10 SWAP1 SWAP4 MUL SWAP3 SWAP1 SWAP3 SHR SWAP2 SWAP1 SWAP2 OR PUSH1 0x1 PUSH1 0x1 PUSH1 0x70 SHL SUB NOT AND SWAP1 MSTORE POP PUSH2 0x1632 SWAP1 POP JUMP JUMPDEST DUP7 DUP2 EQ DUP1 ISZERO PUSH2 0x24F3 JUMPI POP DUP6 ISZERO JUMPDEST ISZERO PUSH2 0x2548 JUMPI PUSH1 0x1 PUSH1 0x1 PUSH1 0xF0 SHL SUB NOT DUP6 AND NOT SWAP3 SWAP1 SWAP3 AND SWAP2 PUSH1 0x3 PUSH1 0xFE SHL DUP4 AND PUSH2 0x2526 JUMPI PUSH1 0x10 DUP4 PUSH1 0x1 PUSH1 0x1 PUSH1 0x70 SHL SUB NOT AND SWAP1 SHL SWAP3 POP JUMPDEST POP PUSH1 0x1 PUSH1 0x1 PUSH1 0x70 SHL SUB NOT SWAP2 DUP3 AND PUSH1 0x10 SWAP1 SWAP2 MUL SHR SWAP2 SWAP1 SWAP2 OR AND PUSH1 0x80 DUP6 ADD MSTORE PUSH2 0x1632 JUMP JUMPDEST DUP7 DUP2 GT DUP1 ISZERO PUSH2 0x2554 JUMPI POP DUP6 JUMPDEST ISZERO PUSH2 0x25AE JUMPI PUSH1 0x80 DUP9 DUP2 ADD MLOAD PUSH1 0x1 PUSH1 0x1 PUSH1 0xF0 SHL SUB NOT PUSH1 0xF0 DUP11 SWAP1 SHL DUP9 OR DUP2 AND PUSH1 0x10 DUP7 MUL SHR SWAP7 SWAP1 SWAP7 OR SWAP6 SWAP2 SHL AND ISZERO PUSH2 0x2588 JUMPI PUSH1 0x0 DUP1 REVERT JUMPDEST POP PUSH1 0x1 PUSH1 0x1 PUSH1 0x70 SHL SUB NOT SWAP2 DUP3 AND PUSH1 0x1 SWAP2 SWAP1 SWAP2 ADD PUSH1 0x10 MUL SHR SWAP2 SWAP1 SWAP2 OR AND PUSH1 0x80 DUP6 ADD MSTORE PUSH2 0x1632 JUMP JUMPDEST DUP7 DUP2 GT DUP1 ISZERO PUSH2 0x25BB JUMPI POP DUP6 ISZERO JUMPDEST ISZERO PUSH2 0x25C9 JUMPI POP POP POP POP PUSH2 0x1632 JUMP JUMPDEST POP PUSH1 0x1 PUSH1 0x1 PUSH1 0xF0 SHL SUB NOT DUP3 AND PUSH1 0x10 DUP3 DUP2 MUL SWAP2 SWAP1 SWAP2 SHR SWAP4 SWAP1 SWAP4 OR SWAP3 SWAP2 SWAP1 SWAP2 SHL PUSH1 0x1 PUSH1 0x1 PUSH1 0x80 SHL SUB NOT AND SWAP1 PUSH1 0x1 ADD PUSH2 0x2489 JUMP JUMPDEST DUP5 PUSH2 0x2607 JUMPI POP POP POP PUSH2 0x1632 JUMP JUMPDEST PUSH1 0x9 DUP2 LT PUSH2 0x2614 JUMPI PUSH1 0x0 DUP1 REVERT JUMPDEST PUSH1 0x1 PUSH1 0x1 PUSH1 0xF0 SHL SUB NOT PUSH1 0xF0 DUP8 SWAP1 SHL DUP6 OR AND PUSH1 0x10 SWAP1 SWAP2 MUL SHR SWAP2 SWAP1 SWAP2 OR PUSH1 0x1 PUSH1 0x1 PUSH1 0x70 SHL SUB NOT AND PUSH1 0x80 DUP7 ADD MSTORE POP POP POP POP POP JUMP JUMPDEST DUP2 DUP2 MUL PUSH1 0x0 NOT DUP4 EQ ISZERO PUSH2 0x2675 JUMPI DUP2 ISZERO DUP1 PUSH2 0x2667 JUMPI POP DUP3 DUP3 DUP3 DUP2 PUSH2 0x2664 JUMPI INVALID JUMPDEST SDIV EQ JUMPDEST PUSH2 0x2670 JUMPI PUSH1 0x0 DUP1 REVERT JUMPDEST PUSH2 0x30C JUMP JUMPDEST DUP3 ISZERO DUP1 PUSH2 0x268A JUMPI POP DUP2 DUP4 DUP3 DUP2 PUSH2 0x2687 JUMPI INVALID JUMPDEST SDIV EQ JUMPDEST PUSH2 0x30C JUMPI PUSH1 0x0 DUP1 REVERT JUMPDEST PUSH1 0x0 DUP1 PUSH2 0x30C PUSH1 0x9 PUSH2 0x1971 JUMP JUMPDEST PUSH1 0x0 DUP1 PUSH2 0x26AB PUSH2 0x2C8A JUMP JUMPDEST PUSH1 0x1 PUSH1 0x1 PUSH1 0xA0 SHL SUB DUP6 AND PUSH1 0x0 SWAP1 DUP2 MSTORE PUSH1 0x20 SWAP2 DUP3 MSTORE PUSH1 0x40 DUP1 DUP3 KECCAK256 DUP7 DUP4 MSTORE SWAP1 SWAP3 MSTORE KECCAK256 SLOAD SWAP2 POP POP SWAP3 SWAP2 POP POP JUMP JUMPDEST PUSH1 0x0 PUSH1 0x1 DUP3 LT ISZERO DUP1 ISZERO PUSH2 0x26EA JUMPI POP PUSH2 0x100 DUP3 GT ISZERO JUMPDEST PUSH2 0x26F3 JUMPI PUSH1 0x0 DUP1 REVERT JUMPDEST POP PUSH1 0x0 NOT ADD SHL PUSH1 0x1 PUSH1 0xFF SHL SWAP1 DUP2 AND EQ SWAP1 JUMP JUMPDEST DUP2 DUP2 ADD DUP3 DUP2 SLT ISZERO PUSH1 0x0 DUP4 SLT ISZERO EQ PUSH2 0x30C JUMPI PUSH1 0x0 DUP1 REVERT JUMPDEST PUSH1 0x0 PUSH1 0x1 DUP4 LT ISZERO DUP1 ISZERO PUSH2 0x2730 JUMPI POP PUSH2 0x100 DUP4 GT ISZERO JUMPDEST PUSH2 0x2739 JUMPI PUSH1 0x0 DUP1 REVERT JUMPDEST DUP2 ISZERO PUSH2 0x2752 JUMPI POP PUSH1 0x1 PUSH1 0xFF SHL PUSH1 0x0 NOT DUP4 ADD SHR DUP4 OR PUSH2 0x653 JUMP JUMPDEST POP PUSH1 0x1 PUSH1 0xFF SHL PUSH1 0x0 NOT DUP4 ADD SHR NOT DUP4 AND PUSH2 0x653 JUMP JUMPDEST PUSH1 0x14 PUSH2 0x2771 DUP3 PUSH2 0x2C97 JUMP JUMPDEST GT ISZERO PUSH2 0x278F JUMPI PUSH1 0x40 MLOAD PUSH3 0x461BCD PUSH1 0xE5 SHL DUP2 MSTORE PUSH1 0x4 ADD PUSH2 0x3D8 SWAP1 PUSH2 0x373A JUMP JUMPDEST PUSH1 0x0 PUSH2 0x2799 PUSH2 0x2C8A JUMP JUMPDEST PUSH1 0x1 PUSH1 0x1 PUSH1 0xA0 SHL SUB SWAP1 SWAP5 AND PUSH1 0x0 SWAP1 DUP2 MSTORE PUSH1 0x20 SWAP5 DUP6 MSTORE PUSH1 0x40 DUP1 DUP3 KECCAK256 SWAP5 DUP3 MSTORE SWAP4 SWAP1 SWAP5 MSTORE POP SWAP2 KECCAK256 SSTORE JUMP JUMPDEST PUSH1 0x0 DUP1 JUMPDEST DUP7 MLOAD DUP2 LT ISZERO PUSH2 0x28CC JUMPI PUSH1 0x0 DUP8 DUP3 DUP2 MLOAD DUP2 LT PUSH2 0x27DB JUMPI INVALID JUMPDEST PUSH1 0x20 MUL PUSH1 0x20 ADD ADD MLOAD SWAP1 POP DUP5 DUP2 PUSH1 0x40 ADD MLOAD EQ ISZERO DUP1 PUSH2 0x27F9 JUMPI POP DUP1 MLOAD DUP8 EQ ISZERO JUMPDEST DUP1 PUSH2 0x2808 JUMPI POP DUP6 DUP2 PUSH1 0x20 ADD MLOAD EQ ISZERO JUMPDEST ISZERO PUSH2 0x2813 JUMPI POP PUSH2 0x28C4 JUMP JUMPDEST PUSH1 0x2 DUP2 PUSH1 0xA0 ADD MLOAD PUSH1 0x3 DUP2 GT ISZERO PUSH2 0x2825 JUMPI INVALID JUMPDEST EQ ISZERO DUP1 ISZERO PUSH2 0x2843 JUMPI POP PUSH1 0x3 DUP2 PUSH1 0xA0 ADD MLOAD PUSH1 0x3 DUP2 GT ISZERO PUSH2 0x2840 JUMPI INVALID JUMPDEST EQ ISZERO JUMPDEST PUSH2 0x284C JUMPI PUSH1 0x0 DUP1 REVERT JUMPDEST PUSH1 0x60 DUP2 ADD MLOAD PUSH1 0x0 SWAP1 PUSH2 0x285E SWAP1 DUP7 PUSH2 0x2705 JUMP JUMPDEST SWAP1 POP PUSH2 0x2869 DUP7 PUSH2 0x28D9 JUMP JUMPDEST ISZERO PUSH2 0x287C JUMPI PUSH1 0x0 DUP2 SLT ISZERO PUSH2 0x287C JUMPI PUSH1 0x0 DUP1 REVERT JUMPDEST PUSH11 0x7FFFFFFFFFFFFFFFFFFFFF NOT DUP2 SLT DUP1 ISZERO SWAP1 PUSH2 0x28A3 JUMPI POP PUSH11 0x7FFFFFFFFFFFFFFFFFFFFF DUP2 SGT ISZERO JUMPDEST PUSH2 0x28AC JUMPI PUSH1 0x0 DUP1 REVERT JUMPDEST PUSH1 0x60 DUP3 ADD MSTORE PUSH1 0x1 PUSH1 0xA0 SWAP1 SWAP2 ADD DUP2 SWAP1 MSTORE SWAP2 POP PUSH2 0x207E SWAP1 POP JUMP JUMPDEST PUSH1 0x1 ADD PUSH2 0x27C4 JUMP JUMPDEST POP PUSH1 0x0 SWAP7 SWAP6 POP POP POP POP POP POP JUMP JUMPDEST PUSH1 0x0 PUSH1 0x2 DUP3 LT DUP1 ISZERO SWAP1 PUSH2 0x30C JUMPI POP POP PUSH1 0x8 LT ISZERO SWAP1 JUMP JUMPDEST PUSH1 0x60 PUSH1 0x0 DUP3 MLOAD PUSH1 0x0 EQ PUSH2 0x2906 JUMPI DUP3 MLOAD PUSH1 0x2 MUL PUSH2 0x2909 JUMP JUMPDEST PUSH1 0x1 JUMPDEST SWAP1 POP PUSH1 0x0 DUP2 PUSH1 0x1 PUSH1 0x1 PUSH1 0x40 SHL SUB DUP2 GT DUP1 ISZERO PUSH2 0x2923 JUMPI PUSH1 0x0 DUP1 REVERT JUMPDEST POP PUSH1 0x40 MLOAD SWAP1 DUP1 DUP3 MSTORE DUP1 PUSH1 0x20 MUL PUSH1 0x20 ADD DUP3 ADD PUSH1 0x40 MSTORE DUP1 ISZERO PUSH2 0x295D JUMPI DUP2 PUSH1 0x20 ADD JUMPDEST PUSH2 0x294A PUSH2 0x2E5F JUMP JUMPDEST DUP2 MSTORE PUSH1 0x20 ADD SWAP1 PUSH1 0x1 SWAP1 SUB SWAP1 DUP2 PUSH2 0x2942 JUMPI SWAP1 POP JUMPDEST POP SWAP1 POP PUSH1 0x0 JUMPDEST DUP5 MLOAD DUP2 LT ISZERO PUSH2 0x299F JUMPI DUP5 DUP2 DUP2 MLOAD DUP2 LT PUSH2 0x2978 JUMPI INVALID JUMPDEST PUSH1 0x20 MUL PUSH1 0x20 ADD ADD MLOAD DUP3 DUP3 DUP2 MLOAD DUP2 LT PUSH2 0x298C JUMPI INVALID JUMPDEST PUSH1 0x20 SWAP1 DUP2 MUL SWAP2 SWAP1 SWAP2 ADD ADD MSTORE PUSH1 0x1 ADD PUSH2 0x2963 JUMP JUMPDEST POP SWAP4 SWAP3 POP POP POP JUMP JUMPDEST DUP2 MLOAD MLOAD DUP2 LT PUSH2 0x29B5 JUMPI PUSH1 0x0 DUP1 REVERT JUMPDEST PUSH1 0x0 DUP3 PUSH1 0x60 ADD MLOAD GT PUSH2 0x29C6 JUMPI PUSH1 0x0 DUP1 REVERT JUMPDEST PUSH1 0x0 DUP3 PUSH1 0x0 ADD MLOAD DUP3 DUP2 MLOAD DUP2 LT PUSH2 0x29D8 JUMPI INVALID JUMPDEST PUSH1 0x20 MUL PUSH1 0x20 ADD ADD MLOAD SWAP1 POP PUSH1 0x2 PUSH1 0x3 DUP2 GT ISZERO PUSH2 0x29EF JUMPI INVALID JUMPDEST DUP2 PUSH1 0xA0 ADD MLOAD PUSH1 0x3 DUP2 GT ISZERO PUSH2 0x29FF JUMPI INVALID JUMPDEST EQ ISZERO DUP1 ISZERO PUSH2 0x2A1D JUMPI POP PUSH1 0x3 DUP2 PUSH1 0xA0 ADD MLOAD PUSH1 0x3 DUP2 GT ISZERO PUSH2 0x2A1A JUMPI INVALID JUMPDEST EQ ISZERO JUMPDEST PUSH2 0x2A26 JUMPI PUSH1 0x0 DUP1 REVERT JUMPDEST PUSH1 0x60 DUP4 ADD DUP1 MLOAD PUSH1 0x0 NOT ADD SWAP1 MSTORE PUSH1 0x0 DUP1 DUP1 JUMPDEST DUP6 MLOAD MLOAD DUP2 LT ISZERO PUSH2 0x2A99 JUMPI PUSH1 0x0 DUP7 PUSH1 0x0 ADD MLOAD DUP3 DUP2 MLOAD DUP2 LT PUSH2 0x2A53 JUMPI INVALID JUMPDEST PUSH1 0x20 MUL PUSH1 0x20 ADD ADD MLOAD SWAP1 POP DUP3 DUP2 PUSH1 0x80 ADD MLOAD GT DUP1 ISZERO PUSH2 0x2A80 JUMPI POP PUSH1 0x2 DUP2 PUSH1 0xA0 ADD MLOAD PUSH1 0x3 DUP2 GT ISZERO PUSH2 0x2A7D JUMPI INVALID JUMPDEST EQ ISZERO JUMPDEST ISZERO PUSH2 0x2A90 JUMPI DUP1 PUSH1 0x80 ADD MLOAD SWAP3 POP DUP2 SWAP4 POP JUMPDEST POP PUSH1 0x1 ADD PUSH2 0x2A37 JUMP JUMPDEST POP DUP2 DUP5 EQ ISZERO PUSH2 0x2AB2 JUMPI POP POP PUSH1 0x2 PUSH1 0xA0 SWAP2 SWAP1 SWAP2 ADD MSTORE PUSH2 0xC7A JUMP JUMPDEST PUSH1 0x0 DUP6 PUSH1 0x0 ADD MLOAD DUP4 DUP2 MLOAD DUP2 LT PUSH2 0x2AC4 JUMPI INVALID JUMPDEST PUSH1 0x20 SWAP1 DUP2 MUL SWAP2 SWAP1 SWAP2 ADD ADD MLOAD PUSH1 0x80 DUP6 DUP2 ADD DUP1 MLOAD SWAP2 DUP4 ADD DUP1 MLOAD SWAP1 SWAP2 MSTORE MSTORE PUSH1 0x1 PUSH1 0xA0 SWAP2 DUP3 ADD MSTORE PUSH1 0x2 SWAP5 ADD SWAP4 SWAP1 SWAP4 MSTORE POP POP POP POP POP JUMP JUMPDEST DUP2 MLOAD ISZERO DUP1 ISZERO SWAP1 PUSH2 0x2B09 JUMPI POP DUP2 MLOAD PUSH2 0x3FFF LT ISZERO JUMPDEST PUSH2 0x2B12 JUMPI PUSH1 0x0 DUP1 REVERT JUMPDEST DUP2 PUSH1 0x20 ADD MLOAD PUSH1 0x0 LT DUP1 ISZERO PUSH2 0x2B2F JUMPI POP PUSH1 0x20 DUP3 ADD MLOAD PUSH5 0xFFFFFFFFFF LT ISZERO JUMPDEST PUSH2 0x2B38 JUMPI PUSH1 0x0 DUP1 REVERT JUMPDEST DUP2 PUSH1 0x40 ADD MLOAD PUSH1 0x0 LT DUP1 ISZERO PUSH2 0x2B51 JUMPI POP PUSH1 0x40 DUP3 ADD MLOAD PUSH1 0x8 LT ISZERO JUMPDEST PUSH2 0x2B5A JUMPI PUSH1 0x0 DUP1 REVERT JUMPDEST PUSH1 0x60 DUP3 ADD MLOAD PUSH11 0x7FFFFFFFFFFFFFFFFFFFFF NOT SGT DUP1 ISZERO SWAP1 PUSH2 0x2B89 JUMPI POP PUSH1 0x60 DUP3 ADD MLOAD PUSH11 0x7FFFFFFFFFFFFFFFFFFFFF SLT ISZERO JUMPDEST PUSH2 0x2B92 JUMPI PUSH1 0x0 DUP1 REVERT JUMPDEST DUP2 MLOAD DUP2 SLOAD PUSH1 0x20 DUP5 ADD MLOAD PUSH1 0x40 DUP6 ADD MLOAD PUSH1 0x60 SWAP1 SWAP6 ADD MLOAD PUSH1 0xA SIGNEXTEND PUSH11 0xFFFFFFFFFFFFFFFFFFFFFF AND PUSH1 0x1 PUSH1 0x40 SHL MUL PUSH19 0xFFFFFFFFFFFFFFFFFFFFFF0000000000000000 NOT PUSH1 0xFF SWAP1 SWAP7 AND PUSH1 0x1 PUSH1 0x38 SHL MUL PUSH8 0xFF00000000000000 NOT PUSH5 0xFFFFFFFFFF SWAP1 SWAP4 AND PUSH3 0x10000 MUL PUSH7 0xFFFFFFFFFF0000 NOT PUSH2 0xFFFF SWAP1 SWAP7 AND PUSH2 0xFFFF NOT SWAP1 SWAP6 AND SWAP5 SWAP1 SWAP5 OR SWAP5 SWAP1 SWAP5 AND SWAP3 SWAP1 SWAP3 OR AND SWAP2 SWAP1 SWAP2 OR SWAP3 SWAP1 SWAP3 AND SWAP2 SWAP1 SWAP2 OR SWAP1 SSTORE JUMP JUMPDEST PUSH1 0x0 DUP1 PUSH1 0x0 DUP1 PUSH2 0x2C36 DUP9 PUSH2 0x2D67 JUMP JUMPDEST SWAP1 POP DUP5 ISZERO DUP1 PUSH2 0x2C44 JUMPI POP DUP1 DUP6 GT JUMPDEST ISZERO PUSH2 0x2C4D JUMPI DUP1 SWAP5 POP JUMPDEST DUP7 DUP1 PUSH2 0x2C5D JUMPI POP PUSH1 0x0 DUP9 PUSH1 0x60 ADD MLOAD SLT JUMPDEST SWAP7 POP PUSH2 0xFFFF DUP7 AND ISZERO PUSH2 0x2C6E JUMPI PUSH1 0x0 DUP1 REVERT JUMPDEST POP POP SWAP5 MLOAD SWAP4 SWAP6 PUSH1 0x10 SWAP4 SWAP1 SWAP4 SHR PUSH1 0xF0 SWAP5 SWAP1 SWAP5 SHL SWAP4 SWAP1 SWAP4 OR SWAP4 POP SWAP2 POP JUMP JUMPDEST PUSH1 0x0 DUP1 PUSH2 0x30C PUSH1 0xB PUSH2 0x1971 JUMP JUMPDEST PUSH1 0x1 DUP2 SWAP1 SHR PUSH32 0x5555555555555555555555555555555555555555555555555555555555555555 SWAP1 DUP2 AND SWAP2 AND ADD PUSH1 0x2 DUP2 SWAP1 SHR PUSH32 0x3333333333333333333333333333333333333333333333333333333333333333 SWAP1 DUP2 AND SWAP2 AND ADD PUSH1 0x4 DUP2 SWAP1 SHR PUSH32 0x707070707070707070707070707070707070707070707070707070707070707 SWAP2 SWAP1 SWAP2 AND ADD PUSH1 0x8 DUP2 SWAP1 SHR PUSH31 0xF000F000F000F000F000F000F000F000F000F000F000F000F000F000F000F SWAP1 DUP2 AND SWAP2 AND ADD PUSH1 0x10 DUP2 SWAP1 SHR ADD PUSH1 0x20 DUP2 SWAP1 SHR ADD PUSH1 0x40 DUP2 SWAP1 SHR ADD PUSH1 0x80 DUP2 SWAP1 SHR PUSH1 0xFF SWAP1 DUP2 AND SWAP2 AND ADD SWAP1 JUMP JUMPDEST PUSH1 0x0 DUP1 DUP3 PUSH1 0x40 ADD MLOAD GT DUP1 ISZERO PUSH2 0x2D81 JUMPI POP PUSH1 0x40 DUP3 ADD MLOAD PUSH1 0x8 LT ISZERO JUMPDEST PUSH2 0x2D8A JUMPI PUSH1 0x0 DUP1 REVERT JUMPDEST PUSH1 0x40 DUP3 ADD MLOAD PUSH1 0x2 LT PUSH2 0x2DA1 JUMPI POP PUSH1 0x20 DUP2 ADD MLOAD PUSH2 0x327 JUMP JUMPDEST PUSH1 0x0 PUSH2 0x2DB3 PUSH1 0x1 DUP5 PUSH1 0x40 ADD MLOAD SUB PUSH2 0x1D04 JUMP JUMPDEST PUSH1 0x20 DUP5 ADD MLOAD SWAP1 SWAP2 POP PUSH2 0x653 SWAP1 PUSH3 0x76A700 SWAP1 PUSH2 0x2DCE SWAP1 DUP5 PUSH2 0x2DD4 JUMP JUMPDEST SWAP1 PUSH2 0x1DA8 JUMP JUMPDEST PUSH1 0x0 DUP3 DUP3 GT ISZERO PUSH2 0x2E2B JUMPI PUSH1 0x40 DUP1 MLOAD PUSH3 0x461BCD PUSH1 0xE5 SHL DUP2 MSTORE PUSH1 0x20 PUSH1 0x4 DUP3 ADD MSTORE PUSH1 0x1E PUSH1 0x24 DUP3 ADD MSTORE PUSH32 0x536166654D6174683A207375627472616374696F6E206F766572666C6F770000 PUSH1 0x44 DUP3 ADD MSTORE SWAP1 MLOAD SWAP1 DUP2 SWAP1 SUB PUSH1 0x64 ADD SWAP1 REVERT JUMPDEST POP SWAP1 SUB SWAP1 JUMP JUMPDEST PUSH1 0x40 DUP1 MLOAD PUSH1 0xA0 DUP2 ADD DUP3 MSTORE PUSH1 0x0 DUP1 DUP3 MSTORE PUSH1 0x20 DUP3 ADD DUP2 SWAP1 MSTORE SWAP2 DUP2 ADD DUP3 SWAP1 MSTORE PUSH1 0x60 DUP2 ADD DUP3 SWAP1 MSTORE PUSH1 0x80 DUP2 ADD SWAP2 SWAP1 SWAP2 MSTORE SWAP1 JUMP JUMPDEST PUSH1 0x40 MLOAD DUP1 PUSH1 0xC0 ADD PUSH1 0x40 MSTORE DUP1 PUSH1 0x0 DUP2 MSTORE PUSH1 0x20 ADD PUSH1 0x0 DUP2 MSTORE PUSH1 0x20 ADD PUSH1 0x0 DUP2 MSTORE PUSH1 0x20 ADD PUSH1 0x0 DUP2 MSTORE PUSH1 0x20 ADD PUSH1 0x0 DUP2 MSTORE PUSH1 0x20 ADD PUSH1 0x0 PUSH1 0x3 DUP2 GT ISZERO PUSH2 0x2E9A JUMPI INVALID JUMPDEST SWAP1 MSTORE SWAP1 JUMP JUMPDEST PUSH1 0x40 MLOAD DUP1 PUSH1 0x80 ADD PUSH1 0x40 MSTORE DUP1 PUSH1 0x60 DUP2 MSTORE PUSH1 0x20 ADD PUSH1 0x60 DUP2 MSTORE PUSH1 0x20 ADD PUSH1 0x0 DUP2 MSTORE PUSH1 0x20 ADD PUSH1 0x0 DUP2 MSTORE POP SWAP1 JUMP JUMPDEST PUSH1 0x0 DUP1 DUP4 PUSH1 0x1F DUP5 ADD SLT PUSH2 0x2ED8 JUMPI DUP1 DUP2 REVERT JUMPDEST POP DUP2 CALLDATALOAD PUSH1 0x1 PUSH1 0x1 PUSH1 0x40 SHL SUB DUP2 GT ISZERO PUSH2 0x2EEE JUMPI DUP2 DUP3 REVERT JUMPDEST PUSH1 0x20 DUP4 ADD SWAP2 POP DUP4 PUSH1 0x20 DUP1 DUP4 MUL DUP6 ADD ADD GT ISZERO PUSH2 0x1F06 JUMPI PUSH1 0x0 DUP1 REVERT JUMPDEST DUP1 MLOAD PUSH1 0x1 PUSH1 0x1 PUSH1 0x70 SHL SUB NOT DUP2 AND DUP2 EQ PUSH2 0x327 JUMPI PUSH1 0x0 DUP1 REVERT JUMPDEST PUSH1 0x0 DUP1 DUP4 PUSH1 0x1F DUP5 ADD SLT PUSH2 0x2F31 JUMPI DUP2 DUP3 REVERT JUMPDEST POP DUP2 CALLDATALOAD PUSH1 0x1 PUSH1 0x1 PUSH1 0x40 SHL SUB DUP2 GT ISZERO PUSH2 0x2F47 JUMPI DUP2 DUP3 REVERT JUMPDEST PUSH1 0x20 DUP4 ADD SWAP2 POP DUP4 PUSH1 0x20 DUP3 DUP6 ADD ADD GT ISZERO PUSH2 0x1F06 JUMPI PUSH1 0x0 DUP1 REVERT JUMPDEST DUP1 MLOAD PUSH2 0x327 DUP2 PUSH2 0x386F JUMP JUMPDEST DUP1 MLOAD PUSH2 0x327 DUP2 PUSH2 0x3892 JUMP JUMPDEST PUSH1 0x0 PUSH1 0x20 DUP3 DUP5 SUB SLT ISZERO PUSH2 0x2F86 JUMPI DUP1 DUP2 REVERT JUMPDEST DUP2 CALLDATALOAD PUSH2 0x653 DUP2 PUSH2 0x3841 JUMP JUMPDEST PUSH1 0x0 DUP1 PUSH1 0x40 DUP4 DUP6 SUB SLT ISZERO PUSH2 0x2FA3 JUMPI DUP1 DUP2 REVERT JUMPDEST DUP3 CALLDATALOAD PUSH2 0x2FAE DUP2 PUSH2 0x3841 JUMP JUMPDEST SWAP2 POP PUSH1 0x20 DUP4 ADD CALLDATALOAD PUSH2 0x2FBE DUP2 PUSH2 0x3841 JUMP JUMPDEST DUP1 SWAP2 POP POP SWAP3 POP SWAP3 SWAP1 POP JUMP JUMPDEST PUSH1 0x0 DUP1 PUSH1 0x0 DUP1 PUSH1 0x0 DUP1 PUSH1 0x0 DUP1 PUSH1 0xA0 DUP10 DUP12 SUB SLT ISZERO PUSH2 0x2FE4 JUMPI DUP4 DUP5 REVERT JUMPDEST DUP9 CALLDATALOAD PUSH2 0x2FEF DUP2 PUSH2 0x3841 JUMP JUMPDEST SWAP8 POP PUSH1 0x20 DUP10 ADD CALLDATALOAD PUSH2 0x2FFF DUP2 PUSH2 0x3841 JUMP JUMPDEST SWAP7 POP PUSH1 0x40 DUP10 ADD CALLDATALOAD PUSH1 0x1 PUSH1 0x1 PUSH1 0x40 SHL SUB DUP1 DUP3 GT ISZERO PUSH2 0x301A JUMPI DUP6 DUP7 REVERT JUMPDEST PUSH2 0x3026 DUP13 DUP4 DUP14 ADD PUSH2 0x2EC7 JUMP JUMPDEST SWAP1 SWAP9 POP SWAP7 POP PUSH1 0x60 DUP12 ADD CALLDATALOAD SWAP2 POP DUP1 DUP3 GT ISZERO PUSH2 0x303E JUMPI DUP6 DUP7 REVERT JUMPDEST PUSH2 0x304A DUP13 DUP4 DUP14 ADD PUSH2 0x2EC7 JUMP JUMPDEST SWAP1 SWAP7 POP SWAP5 POP PUSH1 0x80 DUP12 ADD CALLDATALOAD SWAP2 POP DUP1 DUP3 GT ISZERO PUSH2 0x3062 JUMPI DUP4 DUP5 REVERT JUMPDEST POP PUSH2 0x306F DUP12 DUP3 DUP13 ADD PUSH2 0x2F20 JUMP JUMPDEST SWAP10 SWAP13 SWAP9 SWAP12 POP SWAP7 SWAP10 POP SWAP5 SWAP8 SWAP4 SWAP7 SWAP3 SWAP6 SWAP5 POP POP POP JUMP JUMPDEST PUSH1 0x0 DUP1 PUSH1 0x0 DUP1 PUSH1 0x0 DUP1 PUSH1 0xA0 DUP8 DUP10 SUB SLT ISZERO PUSH2 0x309B JUMPI DUP2 DUP3 REVERT JUMPDEST DUP7 CALLDATALOAD PUSH2 0x30A6 DUP2 PUSH2 0x3841 JUMP JUMPDEST SWAP6 POP PUSH1 0x20 DUP8 ADD CALLDATALOAD PUSH2 0x30B6 DUP2 PUSH2 0x3841 JUMP JUMPDEST SWAP5 POP PUSH1 0x40 DUP8 ADD CALLDATALOAD SWAP4 POP PUSH1 0x60 DUP8 ADD CALLDATALOAD SWAP3 POP PUSH1 0x80 DUP8 ADD CALLDATALOAD PUSH1 0x1 PUSH1 0x1 PUSH1 0x40 SHL SUB DUP2 GT ISZERO PUSH2 0x30DE JUMPI DUP3 DUP4 REVERT JUMPDEST PUSH2 0x30EA DUP10 DUP3 DUP11 ADD PUSH2 0x2F20 JUMP JUMPDEST SWAP8 SWAP11 SWAP7 SWAP10 POP SWAP5 SWAP8 POP SWAP3 SWAP6 SWAP4 SWAP5 SWAP3 POP POP POP JUMP JUMPDEST PUSH1 0x0 DUP1 PUSH1 0x40 DUP4 DUP6 SUB SLT ISZERO PUSH2 0x310E JUMPI DUP2 DUP3 REVERT JUMPDEST DUP3 CALLDATALOAD PUSH2 0x3119 DUP2 PUSH2 0x3841 JUMP JUMPDEST SWAP2 POP PUSH1 0x20 DUP4 ADD CALLDATALOAD DUP1 ISZERO ISZERO DUP2 EQ PUSH2 0x2FBE JUMPI DUP2 DUP3 REVERT JUMPDEST PUSH1 0x0 DUP1 PUSH1 0x40 DUP4 DUP6 SUB SLT ISZERO PUSH2 0x313F JUMPI DUP2 DUP3 REVERT JUMPDEST DUP3 CALLDATALOAD PUSH2 0x314A DUP2 PUSH2 0x3841 JUMP JUMPDEST SWAP5 PUSH1 0x20 SWAP4 SWAP1 SWAP4 ADD CALLDATALOAD SWAP4 POP POP POP JUMP JUMPDEST PUSH1 0x0 DUP1 PUSH1 0x0 DUP1 PUSH1 0x40 DUP6 DUP8 SUB SLT ISZERO PUSH2 0x316D JUMPI DUP2 DUP3 REVERT JUMPDEST DUP5 CALLDATALOAD PUSH1 0x1 PUSH1 0x1 PUSH1 0x40 SHL SUB DUP1 DUP3 GT ISZERO PUSH2 0x3183 JUMPI DUP4 DUP5 REVERT JUMPDEST PUSH2 0x318F DUP9 DUP4 DUP10 ADD PUSH2 0x2EC7 JUMP JUMPDEST SWAP1 SWAP7 POP SWAP5 POP PUSH1 0x20 DUP8 ADD CALLDATALOAD SWAP2 POP DUP1 DUP3 GT ISZERO PUSH2 0x31A7 JUMPI DUP4 DUP5 REVERT JUMPDEST POP PUSH2 0x31B4 DUP8 DUP3 DUP9 ADD PUSH2 0x2EC7 JUMP JUMPDEST SWAP6 SWAP9 SWAP5 SWAP8 POP SWAP6 POP POP POP POP JUMP JUMPDEST PUSH1 0x0 PUSH1 0x20 DUP3 DUP5 SUB SLT ISZERO PUSH2 0x31D1 JUMPI DUP1 DUP2 REVERT JUMPDEST POP CALLDATALOAD SWAP2 SWAP1 POP JUMP JUMPDEST PUSH1 0x0 PUSH1 0x20 DUP3 DUP5 SUB SLT ISZERO PUSH2 0x31E9 JUMPI DUP1 DUP2 REVERT JUMPDEST DUP2 CALLDATALOAD PUSH2 0x653 DUP2 PUSH2 0x3859 JUMP JUMPDEST PUSH1 0x0 PUSH1 0x20 DUP3 DUP5 SUB SLT ISZERO PUSH2 0x3205 JUMPI DUP1 DUP2 REVERT JUMPDEST DUP2 MLOAD PUSH2 0x653 DUP2 PUSH2 0x3859 JUMP JUMPDEST PUSH1 0x0 PUSH1 0x20 DUP3 DUP5 SUB SLT ISZERO PUSH2 0x3221 JUMPI DUP1 DUP2 REVERT JUMPDEST DUP2 MLOAD PUSH1 0x1 PUSH1 0x1 PUSH1 0x40 SHL SUB DUP1 DUP3 GT ISZERO PUSH2 0x3237 JUMPI DUP3 DUP4 REVERT JUMPDEST DUP2 DUP5 ADD SWAP2 POP DUP5 PUSH1 0x1F DUP4 ADD SLT PUSH2 0x324A JUMPI DUP3 DUP4 REVERT JUMPDEST DUP2 MLOAD DUP2 DUP2 GT ISZERO PUSH2 0x3256 JUMPI INVALID JUMPDEST PUSH1 0x40 MLOAD PUSH1 0x1F DUP3 ADD PUSH1 0x1F NOT AND DUP2 ADD PUSH1 0x20 ADD DUP4 DUP2 GT DUP3 DUP3 LT OR ISZERO PUSH2 0x3274 JUMPI INVALID JUMPDEST PUSH1 0x40 MSTORE DUP2 DUP2 MSTORE DUP4 DUP3 ADD PUSH1 0x20 ADD DUP8 LT ISZERO PUSH2 0x328B JUMPI DUP5 DUP6 REVERT JUMPDEST PUSH2 0x329C DUP3 PUSH1 0x20 DUP4 ADD PUSH1 0x20 DUP8 ADD PUSH2 0x3815 JUMP JUMPDEST SWAP7 SWAP6 POP POP POP POP POP POP JUMP JUMPDEST PUSH1 0x0 PUSH1 0xA0 DUP3 DUP5 SUB SLT ISZERO PUSH2 0x32B7 JUMPI DUP1 DUP2 REVERT JUMPDEST PUSH1 0x40 MLOAD PUSH1 0xA0 DUP2 ADD DUP2 DUP2 LT PUSH1 0x1 PUSH1 0x1 PUSH1 0x40 SHL SUB DUP3 GT OR ISZERO PUSH2 0x32D3 JUMPI INVALID JUMPDEST PUSH1 0x40 MSTORE DUP3 MLOAD PUSH2 0x32E1 DUP2 PUSH2 0x387F JUMP JUMPDEST DUP2 MSTORE PUSH1 0x20 DUP4 ADD MLOAD PUSH1 0x1 PUSH1 0x1 PUSH1 0xF8 SHL SUB NOT DUP2 AND DUP2 EQ PUSH2 0x32FD JUMPI DUP3 DUP4 REVERT JUMPDEST PUSH1 0x20 DUP3 ADD MSTORE PUSH2 0x330E PUSH1 0x40 DUP5 ADD PUSH2 0x2F6A JUMP JUMPDEST PUSH1 0x40 DUP3 ADD MSTORE PUSH2 0x331F PUSH1 0x60 DUP5 ADD PUSH2 0x2F5F JUMP JUMPDEST PUSH1 0x60 DUP3 ADD MSTORE PUSH2 0x3330 PUSH1 0x80 DUP5 ADD PUSH2 0x2F08 JUMP JUMPDEST PUSH1 0x80 DUP3 ADD MSTORE SWAP4 SWAP3 POP POP POP JUMP JUMPDEST PUSH1 0x0 DUP1 PUSH1 0x0 PUSH1 0x60 DUP5 DUP7 SUB SLT ISZERO PUSH2 0x3350 JUMPI DUP1 DUP2 REVERT JUMPDEST DUP4 CALLDATALOAD PUSH2 0x335B DUP2 PUSH2 0x386F JUMP JUMPDEST SWAP3 POP PUSH1 0x20 DUP5 ADD CALLDATALOAD PUSH2 0x336B DUP2 PUSH2 0x387F JUMP JUMPDEST SWAP2 POP PUSH1 0x40 DUP5 ADD CALLDATALOAD PUSH2 0x337B DUP2 PUSH2 0x3892 JUMP JUMPDEST DUP1 SWAP2 POP POP SWAP3 POP SWAP3 POP SWAP3 JUMP JUMPDEST DUP2 DUP4 MSTORE PUSH1 0x0 PUSH1 0x1 PUSH1 0x1 PUSH1 0xFB SHL SUB DUP4 GT ISZERO PUSH2 0x339E JUMPI DUP1 DUP2 REVERT JUMPDEST PUSH1 0x20 DUP4 MUL DUP1 DUP4 PUSH1 0x20 DUP8 ADD CALLDATACOPY SWAP4 SWAP1 SWAP4 ADD PUSH1 0x20 ADD SWAP3 DUP4 MSTORE POP SWAP1 SWAP2 SWAP1 POP JUMP JUMPDEST PUSH1 0x0 DUP3 DUP5 MSTORE DUP3 DUP3 PUSH1 0x20 DUP7 ADD CALLDATACOPY DUP1 PUSH1 0x20 DUP5 DUP7 ADD ADD MSTORE PUSH1 0x20 PUSH1 0x1F NOT PUSH1 0x1F DUP6 ADD AND DUP6 ADD ADD SWAP1 POP SWAP4 SWAP3 POP POP POP JUMP JUMPDEST PUSH1 0x0 DUP3 DUP5 DUP4 CALLDATACOPY SWAP2 ADD SWAP1 DUP2 MSTORE SWAP2 SWAP1 POP JUMP JUMPDEST PUSH1 0x1 PUSH1 0x1 PUSH1 0xA0 SHL SUB SWAP2 SWAP1 SWAP2 AND DUP2 MSTORE PUSH1 0x20 ADD SWAP1 JUMP JUMPDEST PUSH1 0x1 PUSH1 0x1 PUSH1 0xA0 SHL SUB DUP10 DUP2 AND DUP3 MSTORE DUP9 AND PUSH1 0x20 DUP3 ADD MSTORE PUSH1 0xA0 PUSH1 0x40 DUP3 ADD DUP2 SWAP1 MSTORE PUSH1 0x0 SWAP1 PUSH2 0x3435 SWAP1 DUP4 ADD DUP9 DUP11 PUSH2 0x3386 JUMP JUMPDEST DUP3 DUP2 SUB PUSH1 0x60 DUP5 ADD MSTORE PUSH2 0x3448 DUP2 DUP8 DUP10 PUSH2 0x3386 JUMP JUMPDEST SWAP1 POP DUP3 DUP2 SUB PUSH1 0x80 DUP5 ADD MSTORE PUSH2 0x345D DUP2 DUP6 DUP8 PUSH2 0x33BA JUMP JUMPDEST SWAP12 SWAP11 POP POP POP POP POP POP POP POP POP POP POP JUMP JUMPDEST PUSH1 0x1 PUSH1 0x1 PUSH1 0xA0 SHL SUB DUP8 DUP2 AND DUP3 MSTORE DUP7 AND PUSH1 0x20 DUP3 ADD MSTORE PUSH1 0x40 DUP2 ADD DUP6 SWAP1 MSTORE PUSH1 0x60 DUP2 ADD DUP5 SWAP1 MSTORE PUSH1 0xA0 PUSH1 0x80 DUP3 ADD DUP2 SWAP1 MSTORE PUSH1 0x0 SWAP1 PUSH2 0x1965 SWAP1 DUP4 ADD DUP5 DUP7 PUSH2 0x33BA JUMP JUMPDEST PUSH1 0x1 PUSH1 0x1 PUSH1 0xA0 SHL SUB SWAP3 DUP4 AND DUP2 MSTORE SWAP2 AND PUSH1 0x20 DUP3 ADD MSTORE PUSH1 0x40 ADD SWAP1 JUMP JUMPDEST PUSH1 0x1 PUSH1 0x1 PUSH1 0xA0 SHL SUB SWAP3 SWAP1 SWAP3 AND DUP3 MSTORE DUP1 MLOAD PUSH5 0xFFFFFFFFFF AND PUSH1 0x20 DUP1 DUP5 ADD SWAP2 SWAP1 SWAP2 MSTORE DUP2 ADD MLOAD PUSH1 0x1 PUSH1 0x1 PUSH1 0xF8 SHL SUB NOT AND PUSH1 0x40 DUP1 DUP5 ADD SWAP2 SWAP1 SWAP2 MSTORE DUP2 ADD MLOAD PUSH1 0xFF AND PUSH1 0x60 DUP1 DUP5 ADD SWAP2 SWAP1 SWAP2 MSTORE DUP2 ADD MLOAD PUSH2 0xFFFF AND PUSH1 0x80 DUP1 DUP5 ADD SWAP2 SWAP1 SWAP2 MSTORE ADD MLOAD PUSH1 0x1 PUSH1 0x1 PUSH1 0x70 SHL SUB NOT AND PUSH1 0xA0 DUP3 ADD MSTORE PUSH1 0xC0 ADD SWAP1 JUMP JUMPDEST PUSH1 0x20 DUP1 DUP3 MSTORE DUP3 MLOAD DUP3 DUP3 ADD DUP2 SWAP1 MSTORE PUSH1 0x0 SWAP2 SWAP1 DUP5 DUP3 ADD SWAP1 PUSH1 0x40 DUP6 ADD SWAP1 DUP5 JUMPDEST DUP2 DUP2 LT ISZERO PUSH2 0x3565 JUMPI DUP4 MLOAD DUP4 MSTORE SWAP3 DUP5 ADD SWAP3 SWAP2 DUP5 ADD SWAP2 PUSH1 0x1 ADD PUSH2 0x3549 JUMP JUMPDEST POP SWAP1 SWAP7 SWAP6 POP POP POP POP POP POP JUMP JUMPDEST PUSH1 0x20 DUP1 DUP3 MSTORE DUP3 MLOAD DUP3 DUP3 ADD DUP2 SWAP1 MSTORE PUSH1 0x0 SWAP2 SWAP1 PUSH1 0x40 SWAP1 DUP2 DUP6 ADD SWAP1 DUP7 DUP5 ADD DUP6 JUMPDEST DUP3 DUP2 LT ISZERO PUSH2 0x35E6 JUMPI DUP2 MLOAD DUP1 MLOAD DUP6 MSTORE DUP7 DUP2 ADD MLOAD DUP8 DUP7 ADD MSTORE DUP6 DUP2 ADD MLOAD DUP7 DUP7 ADD MSTORE PUSH1 0x60 DUP1 DUP3 ADD MLOAD SWAP1 DUP7 ADD MSTORE PUSH1 0x80 DUP1 DUP3 ADD MLOAD SWAP1 DUP7 ADD MSTORE PUSH1 0xA0 SWAP1 DUP2 ADD MLOAD SWAP1 PUSH1 0x4 DUP3 LT PUSH2 0x35D1 JUMPI INVALID JUMPDEST DUP6 ADD MSTORE PUSH1 0xC0 SWAP1 SWAP4 ADD SWAP3 SWAP1 DUP6 ADD SWAP1 PUSH1 0x1 ADD PUSH2 0x358E JUMP JUMPDEST POP SWAP2 SWAP8 SWAP7 POP POP POP POP POP POP POP JUMP JUMPDEST PUSH1 0x0 PUSH1 0x40 DUP3 MSTORE PUSH2 0x3607 PUSH1 0x40 DUP4 ADD DUP7 DUP9 PUSH2 0x3386 JUMP JUMPDEST DUP3 DUP2 SUB PUSH1 0x20 DUP5 ADD MSTORE PUSH2 0x361A DUP2 DUP6 DUP8 PUSH2 0x3386 JUMP JUMPDEST SWAP8 SWAP7 POP POP POP POP POP POP POP JUMP JUMPDEST SWAP1 ISZERO ISZERO DUP2 MSTORE PUSH1 0x20 ADD SWAP1 JUMP JUMPDEST SWAP1 DUP2 MSTORE PUSH1 0x20 ADD SWAP1 JUMP JUMPDEST PUSH1 0x0 PUSH1 0x20 DUP3 MSTORE DUP3 MLOAD DUP1 PUSH1 0x20 DUP5 ADD MSTORE PUSH2 0x3658 DUP2 PUSH1 0x40 DUP6 ADD PUSH1 0x20 DUP8 ADD PUSH2 0x3815 JUMP JUMPDEST PUSH1 0x1F ADD PUSH1 0x1F NOT AND SWAP2 SWAP1 SWAP2 ADD PUSH1 0x40 ADD SWAP3 SWAP2 POP POP JUMP JUMPDEST PUSH1 0x20 DUP1 DUP3 MSTORE PUSH1 0xF SWAP1 DUP3 ADD MSTORE PUSH15 0x496E76616C69642061646472657373 PUSH1 0x88 SHL PUSH1 0x40 DUP3 ADD MSTORE PUSH1 0x60 ADD SWAP1 JUMP JUMPDEST PUSH1 0x20 DUP1 DUP3 MSTORE PUSH1 0x11 SWAP1 DUP3 ADD MSTORE PUSH17 0x155B985D5D1A1BDC9A5E99590818D85B1B PUSH1 0x7A SHL PUSH1 0x40 DUP3 ADD MSTORE PUSH1 0x60 ADD SWAP1 JUMP JUMPDEST PUSH1 0x20 DUP1 DUP3 MSTORE PUSH1 0xC SWAP1 DUP3 ADD MSTORE PUSH12 0x155B985D5D1A1BDC9A5E9959 PUSH1 0xA2 SHL PUSH1 0x40 DUP3 ADD MSTORE PUSH1 0x60 ADD SWAP1 JUMP JUMPDEST PUSH1 0x20 DUP1 DUP3 MSTORE PUSH1 0xD SWAP1 DUP3 ADD MSTORE PUSH13 0x92DCECC2D8D2C840D2DCC8CAF PUSH1 0x9B SHL PUSH1 0x40 DUP3 ADD MSTORE PUSH1 0x60 ADD SWAP1 JUMP JUMPDEST PUSH1 0x20 DUP1 DUP3 MSTORE PUSH1 0x13 SWAP1 DUP3 ADD MSTORE PUSH19 0x4163636F756E74206D75737420736574746C65 PUSH1 0x68 SHL PUSH1 0x40 DUP3 ADD MSTORE PUSH1 0x60 ADD SWAP1 JUMP JUMPDEST PUSH1 0x20 DUP1 DUP3 MSTORE PUSH1 0xF SWAP1 DUP3 ADD MSTORE PUSH15 0x4F766572206D617820617373657473 PUSH1 0x88 SHL PUSH1 0x40 DUP3 ADD MSTORE PUSH1 0x60 ADD SWAP1 JUMP JUMPDEST PUSH1 0x20 DUP1 DUP3 MSTORE PUSH1 0x10 SWAP1 DUP3 ADD MSTORE PUSH16 0x496E76616C6964206D61747572697479 PUSH1 0x80 SHL PUSH1 0x40 DUP3 ADD MSTORE PUSH1 0x60 ADD SWAP1 JUMP JUMPDEST PUSH1 0x20 DUP1 DUP3 MSTORE PUSH1 0x12 SWAP1 DUP3 ADD MSTORE PUSH18 0x12511CC81B5D5CDD081899481CDBDC9D1959 PUSH1 0x72 SHL PUSH1 0x40 DUP3 ADD MSTORE PUSH1 0x60 ADD SWAP1 JUMP JUMPDEST PUSH1 0x20 DUP1 DUP3 MSTORE PUSH1 0xC SWAP1 DUP3 ADD MSTORE PUSH12 0x139BDD081858D8D95C1D1959 PUSH1 0xA2 SHL PUSH1 0x40 DUP3 ADD MSTORE PUSH1 0x60 ADD SWAP1 JUMP JUMPDEST SWAP2 DUP3 MSTORE PUSH1 0x20 DUP3 ADD MSTORE PUSH1 0x40 ADD SWAP1 JUMP JUMPDEST PUSH1 0x0 DUP1 DUP6 DUP6 GT ISZERO PUSH2 0x37FC JUMPI DUP2 DUP3 REVERT JUMPDEST DUP4 DUP7 GT ISZERO PUSH2 0x3808 JUMPI DUP2 DUP3 REVERT JUMPDEST POP POP DUP3 ADD SWAP4 SWAP2 SWAP1 SWAP3 SUB SWAP2 POP JUMP JUMPDEST PUSH1 0x0 JUMPDEST DUP4 DUP2 LT ISZERO PUSH2 0x3830 JUMPI DUP2 DUP2 ADD MLOAD DUP4 DUP3 ADD MSTORE PUSH1 0x20 ADD PUSH2 0x3818 JUMP JUMPDEST DUP4 DUP2 GT ISZERO PUSH2 0x1632 JUMPI POP POP PUSH1 0x0 SWAP2 ADD MSTORE JUMP JUMPDEST PUSH1 0x1 PUSH1 0x1 PUSH1 0xA0 SHL SUB DUP2 AND DUP2 EQ PUSH2 0x3856 JUMPI PUSH1 0x0 DUP1 REVERT JUMPDEST POP JUMP JUMPDEST PUSH1 0x1 PUSH1 0x1 PUSH1 0xE0 SHL SUB NOT DUP2 AND DUP2 EQ PUSH2 0x3856 JUMPI PUSH1 0x0 DUP1 REVERT JUMPDEST PUSH2 0xFFFF DUP2 AND DUP2 EQ PUSH2 0x3856 JUMPI PUSH1 0x0 DUP1 REVERT JUMPDEST PUSH5 0xFFFFFFFFFF DUP2 AND DUP2 EQ PUSH2 0x3856 JUMPI PUSH1 0x0 DUP1 REVERT JUMPDEST PUSH1 0xFF DUP2 AND DUP2 EQ PUSH2 0x3856 JUMPI PUSH1 0x0 DUP1 REVERT INVALID LOG2 PUSH5 0x6970667358 0x22 SLT KECCAK256 SGT GT AND ADD MUL LOG4 AND 0xB5 OR PUSH5 0xAB1C80F32C 0xD6 CODESIZE DELEGATECALL 0xDD 0xE8 0xC3 SAR 0x4E 0xD5 0xC5 SWAP3 PUSH3 0x9D5FB6 0x48 0xEB PUSH5 0x736F6C6343 STOP SMOD MOD STOP CALLER ","sha1":"9990855d2421ebb03f25cd2269aa560a54cf9b05","source":"// SPDX-License-Identifier: GPL-3.0-only\npragma solidity ^0.7.0;\npragma abicoder v2;\n\nimport \"./ActionGuards.sol\";\nimport \"../FreeCollateralExternal.sol\";\nimport \"../../global/StorageLayoutV1.sol\";\nimport \"../../math/SafeInt256.sol\";\nimport \"../../internal/AccountContextHandler.sol\";\nimport \"../../internal/portfolio/TransferAssets.sol\";\nimport \"../../internal/portfolio/PortfolioHandler.sol\";\nimport \"../../../interfaces/notional/NotionalProxy.sol\";\nimport \"../../../interfaces/IERC1155TokenReceiver.sol\";\nimport \"../../../interfaces/notional/nERC1155Interface.sol\";\nimport \"@openzeppelin/contracts/token/ERC1155/IERC1155.sol\";\nimport \"@openzeppelin/contracts/utils/Address.sol\";\n\ncontract ERC1155Action is nERC1155Interface, ActionGuards {\n    using SafeInt256 for int256;\n    using AccountContextHandler for AccountContext;\n\n    bytes4 internal constant ERC1155_ACCEPTED = bytes4(keccak256(\"onERC1155Received(address,address,uint256,uint256,bytes)\"));\n    bytes4 internal constant ERC1155_BATCH_ACCEPTED = bytes4(keccak256(\"onERC1155BatchReceived(address,address,uint256[],uint256[],bytes)\"));\n\n    function supportsInterface(bytes4 interfaceId) external pure override returns (bool) {\n        return interfaceId == type(IERC1155).interfaceId;\n    }\n\n    /// @notice Returns the balance of an ERC1155 id on an account. WARNING: the balances returned by\n    /// this method do not show negative fCash balances because only unsigned integers are returned. They\n    /// are represented by zero here. Use `signedBalanceOf` to get a signed return value.\n    /// @param account account to get the id for\n    /// @param id the ERC1155 id\n    /// @return Balance of the ERC1155 id as an unsigned integer (negative fCash balances return zero)\n    function balanceOf(address account, uint256 id) public view override returns (uint256) {\n        int256 notional = signedBalanceOf(account, id);\n        return notional < 0 ? 0 : notional.toUint();\n    }\n\n    /// @notice Returns the balance of an ERC1155 id on an account.\n    /// @param account account to get the id for\n    /// @param id the ERC1155 id\n    /// @return notional balance of the ERC1155 id as a signed integer\n    function signedBalanceOf(address account, uint256 id) public view override returns (int256 notional) {\n        AccountContext memory accountContext = AccountContextHandler.getAccountContext(account);\n\n        if (accountContext.isBitmapEnabled()) {\n            notional = _balanceInBitmap(account, accountContext.bitmapCurrencyId, id);\n        } else {\n            notional = _balanceInArray(\n                PortfolioHandler.getSortedPortfolio(account, accountContext.assetArrayLength),\n                id\n            );\n        }\n    }\n\n    /// @notice Returns the balance of a batch of accounts and ids.\n    /// @param accounts array of accounts to get balances for\n    /// @param ids array of ids to get balances for\n    /// @return Returns an array of signed balances\n    function signedBalanceOfBatch(address[] calldata accounts, uint256[] calldata ids)\n        external\n        view\n        override\n        returns (int256[] memory)\n    {\n        require(accounts.length == ids.length);\n        int256[] memory amounts = new int256[](accounts.length);\n\n        for (uint256 i; i < accounts.length; i++) {\n            // This is pretty inefficient but gets the job done\n            amounts[i] = signedBalanceOf(accounts[i], ids[i]);\n        }\n\n        return amounts;\n    }\n\n    /// @notice Returns the balance of a batch of accounts and ids. WARNING: negative fCash balances are represented\n    /// as zero balances in the array. \n    /// @param accounts array of accounts to get balances for\n    /// @param ids array of ids to get balances for\n    /// @return Returns an array of unsigned balances\n    function balanceOfBatch(address[] calldata accounts, uint256[] calldata ids)\n        external\n        view\n        override\n        returns (uint256[] memory)\n    {\n        require(accounts.length == ids.length);\n        uint256[] memory amounts = new uint256[](accounts.length);\n\n        for (uint256 i; i < accounts.length; i++) {\n            // This is pretty inefficient but gets the job done\n            amounts[i] = balanceOf(accounts[i], ids[i]);\n        }\n\n        return amounts;\n    }\n\n    /// @dev Returns the balance from a bitmap given the id\n    function _balanceInBitmap(\n        address account,\n        uint256 bitmapCurrencyId,\n        uint256 id\n    ) internal view returns (int256) {\n        (uint256 currencyId, uint256 maturity, uint256 assetType) = TransferAssets.decodeAssetId(id);\n\n        if (\n            currencyId != bitmapCurrencyId ||\n            assetType != Constants.FCASH_ASSET_TYPE\n        ) {\n            // Neither of these are possible for a bitmap group\n            return 0;\n        } else {\n            return BitmapAssetsHandler.getifCashNotional(account, currencyId, maturity);\n        }\n    }\n\n    /// @dev Searches an array for the matching asset\n    function _balanceInArray(PortfolioAsset[] memory portfolio, uint256 id)\n        internal\n        pure\n        returns (int256)\n    {\n        (uint256 currencyId, uint256 maturity, uint256 assetType) = TransferAssets.decodeAssetId(id);\n\n        for (uint256 i; i < portfolio.length; i++) {\n            PortfolioAsset memory asset = portfolio[i];\n            if (\n                asset.currencyId == currencyId &&\n                asset.maturity == maturity &&\n                asset.assetType == assetType\n            ) return asset.notional;\n        }\n    }\n\n    /// @notice Transfer of a single fCash or liquidity token asset between accounts. Allows `from` account to transfer more fCash\n    /// than they have as long as they pass a subsequent free collateral check. This enables OTC trading of fCash assets.\n    /// @param from account to transfer from\n    /// @param to account to transfer to\n    /// @param id ERC1155 id of the asset\n    /// @param amount amount to transfer\n    /// @param data arbitrary data passed to ERC1155Receiver (if contract) and if properly specified can be used to initiate\n    /// a trading action on Notional for the `from` address\n    /// @dev emit:TransferSingle, emit:AccountContextUpdate, emit:AccountSettled\n    function safeTransferFrom(\n        address from,\n        address to,\n        uint256 id,\n        uint256 amount,\n        bytes calldata data\n    ) external payable override {\n        // NOTE: there is no re-entrancy guard on this method because that would prevent a callback in \n        // _checkPostTransferEvent. The external call to the receiver is done at the very end after all stateful\n        // updates have occurred.\n        _validateAccounts(from, to);\n\n        // When amount is set to zero this method can be used as a way to execute trades via a transfer operator\n        AccountContext memory fromContext;\n        if (amount > 0) {\n            PortfolioAsset[] memory assets = new PortfolioAsset[](1);\n            PortfolioAsset memory asset = assets[0];\n\n            (asset.currencyId, asset.maturity, asset.assetType) = TransferAssets.decodeAssetId(id);\n            // This ensures that asset.notional is always a positive amount\n            asset.notional = SafeInt256.toInt(amount);\n            _requireValidMaturity(asset.currencyId, asset.maturity, block.timestamp);\n\n            // prettier-ignore\n            (fromContext, /* toContext */) = _transfer(from, to, assets);\n\n            emit TransferSingle(msg.sender, from, to, id, amount);\n        } else {\n            fromContext = AccountContextHandler.getAccountContext(from);\n        }\n\n        // toContext is always empty here because we cannot have bidirectional transfers in `safeTransferFrom`\n        AccountContext memory toContext;\n        _checkPostTransferEvent(from, to, fromContext, toContext, data, false);\n\n        // Do this external call at the end to prevent re-entrancy\n        if (Address.isContract(to)) {\n            require(\n                IERC1155TokenReceiver(to).onERC1155Received(msg.sender, from, id, amount, data) ==\n                    ERC1155_ACCEPTED,\n                \"Not accepted\"\n            );\n        }\n    }\n\n    /// @notice Transfer of a batch of fCash or liquidity token assets between accounts. Allows `from` account to transfer more fCash\n    /// than they have as long as they pass a subsequent free collateral check. This enables OTC trading of fCash assets.\n    /// @param from account to transfer from\n    /// @param to account to transfer to\n    /// @param ids ERC1155 ids of the assets\n    /// @param amounts amounts to transfer\n    /// @param data arbitrary data passed to ERC1155Receiver (if contract) and if properly specified can be used to initiate\n    /// a trading action on Notional for the `from` address\n    /// @dev emit:TransferBatch, emit:AccountContextUpdate, emit:AccountSettled\n    function safeBatchTransferFrom(\n        address from,\n        address to,\n        uint256[] calldata ids,\n        uint256[] calldata amounts,\n        bytes calldata data\n    ) external payable override {\n        // NOTE: there is no re-entrancy guard on this method because that would prevent a callback in \n        // _checkPostTransferEvent. The external call to the receiver is done at the very end.\n        _validateAccounts(from, to);\n\n        (PortfolioAsset[] memory assets, bool toTransferNegative) = _decodeToAssets(ids, amounts);\n        // When doing a bidirectional transfer must ensure that the `to` account has given approval\n        // to msg.sender as well.\n        if (toTransferNegative) require(isApprovedForAll(to, msg.sender), \"Unauthorized\");\n\n        (AccountContext memory fromContext, AccountContext memory toContext) = _transfer(\n            from,\n            to,\n            assets\n        );\n\n        _checkPostTransferEvent(from, to, fromContext, toContext, data, toTransferNegative);\n        emit TransferBatch(msg.sender, from, to, ids, amounts);\n\n        // Do this at the end to prevent re-entrancy\n        if (Address.isContract(to)) {\n            require(\n                IERC1155TokenReceiver(to).onERC1155BatchReceived(\n                    msg.sender,\n                    from,\n                    ids,\n                    amounts,\n                    data\n                ) == ERC1155_BATCH_ACCEPTED,\n                \"Not accepted\"\n            );\n        }\n    }\n\n    /// @dev Validates accounts on transfer\n    function _validateAccounts(address from, address to) private view {\n        // Cannot transfer to self, cannot transfer to zero address\n        require(from != to && to != address(0) && to != address(this), \"Invalid address\");\n        // Authentication is valid\n        require(msg.sender == from || isApprovedForAll(from, msg.sender), \"Unauthorized\");\n        // nTokens will not accept transfers because they do not implement the ERC1155\n        // receive method\n\n        // Defensive check to ensure that an authorized operator does not call these methods\n        // with an invalid `from` account\n        requireValidAccount(from);\n    }\n\n    /// @notice Decodes ids and amounts to PortfolioAsset objects\n    /// @param ids array of ERC1155 ids\n    /// @param amounts amounts to transfer\n    /// @return array of portfolio asset objects\n    function decodeToAssets(uint256[] calldata ids, uint256[] calldata amounts)\n        external\n        view\n        override\n        returns (PortfolioAsset[] memory)\n    {\n        // prettier-ignore\n        (PortfolioAsset[] memory assets, /* */) = _decodeToAssets(ids, amounts);\n        return assets;\n    }\n\n    function _decodeToAssets(uint256[] calldata ids, uint256[] calldata amounts)\n        internal\n        view\n        returns (PortfolioAsset[] memory, bool)\n    {\n        require(ids.length == amounts.length);\n        bool toTransferNegative = false;\n        PortfolioAsset[] memory assets = new PortfolioAsset[](ids.length);\n\n        for (uint256 i; i < ids.length; i++) {\n            // Require that ids are not duplicated, there is no valid reason to have duplicate ids\n            if (i > 0) require(ids[i] > ids[i - 1], \"IDs must be sorted\");\n\n            PortfolioAsset memory asset = assets[i];\n            (asset.currencyId, asset.maturity, asset.assetType) = TransferAssets.decodeAssetId(ids[i]);\n\n            _requireValidMaturity(asset.currencyId, asset.maturity, block.timestamp);\n            // Although amounts is encoded as uint256 we allow it to be negative here. This will\n            // allow for bidirectional transfers of fCash. Internally fCash assets are always stored\n            // as int128 (for bitmap portfolio) or int88 (for array portfolio) so there is no potential\n            // that a uint256 value that is greater than type(int256).max would actually valid.\n            asset.notional = int256(amounts[i]);\n            // If there is a negative transfer we mark it as such, this will force us to do a free collateral\n            // check on the `to` address as well.\n            if (asset.notional < 0) toTransferNegative = true;\n        }\n\n        return (assets, toTransferNegative);\n    }\n\n    /// @notice Encodes parameters into an ERC1155 id\n    /// @param currencyId currency id of the asset\n    /// @param maturity timestamp of the maturity\n    /// @param assetType id of the asset type\n    /// @return ERC1155 id\n    function encodeToId(\n        uint16 currencyId,\n        uint40 maturity,\n        uint8 assetType\n    ) external pure override returns (uint256) {\n        return TransferAssets.encodeAssetId(currencyId, maturity, assetType);\n    }\n\n    /// @dev Ensures that all maturities specified are valid for the currency id (i.e. they do not\n    /// go past the max maturity date)\n    function _requireValidMaturity(\n        uint256 currencyId,\n        uint256 maturity,\n        uint256 blockTime\n    ) private view {\n        require(\n            DateTime.isValidMaturity(CashGroup.getMaxMarketIndex(currencyId), maturity, blockTime),\n            \"Invalid maturity\"\n        );\n    }\n\n    /// @dev Internal asset transfer event between accounts\n    function _transfer(\n        address from,\n        address to,\n        PortfolioAsset[] memory assets\n    ) internal returns (AccountContext memory, AccountContext memory) {\n        // Finalize all parts of a transfer for each account separately. Settlement must happen\n        // before the call to placeAssetsInAccount so that we load the proper portfolio state.\n        AccountContext memory toContext = AccountContextHandler.getAccountContext(to);\n        if (toContext.mustSettleAssets()) {\n            toContext = SettleAssetsExternal.settleAccount(to, toContext);\n        }\n        toContext = TransferAssets.placeAssetsInAccount(to, toContext, assets);\n        toContext.setAccountContext(to);\n\n        // Will flip the sign of notional in the assets array in memory\n        TransferAssets.invertNotionalAmountsInPlace(assets);\n\n        // Now finalize the from account\n        AccountContext memory fromContext = AccountContextHandler.getAccountContext(from);\n        if (fromContext.mustSettleAssets()) {\n            fromContext = SettleAssetsExternal.settleAccount(from, fromContext);\n        }\n        fromContext = TransferAssets.placeAssetsInAccount(from, fromContext, assets);\n        fromContext.setAccountContext(from);\n\n        return (fromContext, toContext);\n    }\n\n    /// @dev Checks post transfer events which will either be initiating one of the batch trading events or a free collateral\n    /// check if required.\n    function _checkPostTransferEvent(\n        address from,\n        address to,\n        AccountContext memory fromContext,\n        AccountContext memory toContext,\n        bytes calldata data,\n        bool toTransferNegative\n    ) internal {\n        bytes4 sig = 0;\n        address transactedAccount = address(0);\n        if (data.length >= 32) {\n            // Method signature is not abi encoded so decode to bytes32 first and take the first 4 bytes. This works\n            // because all the methods we want to call below require more than 32 bytes in the calldata\n            bytes32 tmp = abi.decode(data, (bytes32));\n            sig = bytes4(tmp);\n        }\n\n        // These are the only four methods allowed to occur in a post transfer event. These actions allow `from`\n        // accounts to take any sort of trading action as a result of their transfer. All of these actions will\n        // handle checking free collateral so no additional check is necessary here.\n        if (\n            sig == NotionalProxy.nTokenRedeem.selector ||\n            sig == NotionalProxy.batchLend.selector ||\n            sig == NotionalProxy.batchBalanceAction.selector ||\n            sig == NotionalProxy.batchBalanceAndTradeAction.selector\n        ) {\n            transactedAccount = abi.decode(data[4:36], (address));\n            // Ensure that the \"transactedAccount\" parameter of the call is set to the from address or the\n            // to address. If it is the \"to\" address then ensure that the msg.sender has approval to\n            // execute operations\n            require(\n                transactedAccount == from ||\n                    (transactedAccount == to && isApprovedForAll(to, msg.sender)),\n                \"Unauthorized call\"\n            );\n\n            // We can only call back to Notional itself at this point, account context is already\n            // stored and all three of the whitelisted methods above will check free collateral.\n            (bool status, bytes memory result) = address(this).call{value: msg.value}(data);\n            require(status, _getRevertMsg(result));\n        }\n\n        // The transacted account will have its free collateral checked above so there is\n        // no need to recheck here.\n        // If transactedAccount == 0 then will check fc\n        // If transactedAccount == to then will check fc\n        // If transactedAccount == from then will skip, prefer call above\n        if (transactedAccount != from && fromContext.hasDebt != 0x00) {\n            FreeCollateralExternal.checkFreeCollateralAndRevert(from);\n        }\n\n        // Check free collateral if the `to` account has taken on a negative fCash amount\n        // If toTransferNegative is false then will not check\n        // If transactedAccount == 0 then will check fc\n        // If transactedAccount == from then will check fc\n        // If transactedAccount == to then will skip, prefer call above\n        if (toTransferNegative && transactedAccount != to && toContext.hasDebt != 0x00) {\n            FreeCollateralExternal.checkFreeCollateralAndRevert(to);\n        }\n    }\n\n    function _getRevertMsg(bytes memory _returnData) internal pure returns (string memory) {\n        // If the _res length is less than 68, then the transaction failed silently (without a revert message)\n        if (_returnData.length < 68) return \"Transaction reverted silently\";\n\n        assembly {\n            // Slice the sighash.\n            _returnData := add(_returnData, 0x04)\n        }\n        return abi.decode(_returnData, (string)); // All that remains is the revert string\n    }\n\n    /// @notice Allows an account to set approval for an operator\n    /// @param operator address of the operator\n    /// @param approved state of the approval\n    /// @dev emit:ApprovalForAll\n    function setApprovalForAll(address operator, bool approved) external override {\n        accountAuthorizedTransferOperator[msg.sender][operator] = approved;\n        emit ApprovalForAll(msg.sender, operator, approved);\n    }\n\n    /// @notice Checks approval state for an account, will first check if global transfer operator is enabled\n    /// before falling through to an account specific transfer operator.\n    /// @param account address of the account\n    /// @param operator address of the operator\n    /// @return true for approved\n    function isApprovedForAll(address account, address operator)\n        public\n        view\n        override\n        returns (bool)\n    {\n        if (globalTransferOperator[operator]) return true;\n\n        return accountAuthorizedTransferOperator[account][operator];\n    }\n\n    /// @notice Get a list of deployed library addresses (sorted by library name)\n    function getLibInfo() external view returns (address, address) {\n        return (address(FreeCollateralExternal), address(SettleAssetsExternal));\n    }\n}\n","sourcePath":"contracts/external/actions/ERC1155Action.sol","type":"contract"}