{
  "address": "0x5DF98AA475D8815df7cd4fC4549B5c150e8505Be",
  "abi": [
    {
      "inputs": [
        {
          "internalType": "address",
          "name": "_endpoint",
          "type": "address"
        },
        {
          "internalType": "string",
          "name": "_setBaseURI",
          "type": "string"
        },
        {
          "internalType": "string",
          "name": "_name",
          "type": "string"
        },
        {
          "internalType": "string",
          "name": "_symbol",
          "type": "string"
        }
      ],
      "stateMutability": "nonpayable",
      "type": "constructor"
    },
    {
      "anonymous": false,
      "inputs": [
        {
          "indexed": true,
          "internalType": "address",
          "name": "owner",
          "type": "address"
        },
        {
          "indexed": true,
          "internalType": "address",
          "name": "approved",
          "type": "address"
        },
        {
          "indexed": true,
          "internalType": "uint256",
          "name": "tokenId",
          "type": "uint256"
        }
      ],
      "name": "Approval",
      "type": "event"
    },
    {
      "anonymous": false,
      "inputs": [
        {
          "indexed": true,
          "internalType": "address",
          "name": "owner",
          "type": "address"
        },
        {
          "indexed": true,
          "internalType": "address",
          "name": "operator",
          "type": "address"
        },
        {
          "indexed": false,
          "internalType": "bool",
          "name": "approved",
          "type": "bool"
        }
      ],
      "name": "ApprovalForAll",
      "type": "event"
    },
    {
      "anonymous": false,
      "inputs": [
        {
          "indexed": true,
          "internalType": "address",
          "name": "previousOwner",
          "type": "address"
        },
        {
          "indexed": true,
          "internalType": "address",
          "name": "newOwner",
          "type": "address"
        }
      ],
      "name": "OwnershipTransferred",
      "type": "event"
    },
    {
      "anonymous": false,
      "inputs": [
        {
          "indexed": false,
          "internalType": "uint16",
          "name": "_srcChainId",
          "type": "uint16"
        },
        {
          "indexed": false,
          "internalType": "address",
          "name": "_from",
          "type": "address"
        },
        {
          "indexed": false,
          "internalType": "uint256",
          "name": "_tokenId",
          "type": "uint256"
        }
      ],
      "name": "ReceiveNFT",
      "type": "event"
    },
    {
      "anonymous": false,
      "inputs": [
        {
          "indexed": true,
          "internalType": "address",
          "name": "from",
          "type": "address"
        },
        {
          "indexed": true,
          "internalType": "address",
          "name": "to",
          "type": "address"
        },
        {
          "indexed": true,
          "internalType": "uint256",
          "name": "tokenId",
          "type": "uint256"
        }
      ],
      "name": "Transfer",
      "type": "event"
    },
    {
      "inputs": [
        {
          "internalType": "address",
          "name": "to",
          "type": "address"
        },
        {
          "internalType": "uint256",
          "name": "tokenId",
          "type": "uint256"
        }
      ],
      "name": "_bridgeMint",
      "outputs": [],
      "stateMutability": "nonpayable",
      "type": "function"
    },
    {
      "inputs": [
        {
          "internalType": "address",
          "name": "_asset",
          "type": "address"
        }
      ],
      "name": "addAsset",
      "outputs": [],
      "stateMutability": "nonpayable",
      "type": "function"
    },
    {
      "inputs": [
        {
          "internalType": "address",
          "name": "_asset",
          "type": "address"
        }
      ],
      "name": "allowedAsset",
      "outputs": [
        {
          "internalType": "bool",
          "name": "",
          "type": "bool"
        }
      ],
      "stateMutability": "view",
      "type": "function"
    },
    {
      "inputs": [
        {
          "internalType": "address",
          "name": "to",
          "type": "address"
        },
        {
          "internalType": "uint256",
          "name": "tokenId",
          "type": "uint256"
        }
      ],
      "name": "approve",
      "outputs": [],
      "stateMutability": "nonpayable",
      "type": "function"
    },
    {
      "inputs": [
        {
          "internalType": "address",
          "name": "_to",
          "type": "address"
        },
        {
          "internalType": "uint256[]",
          "name": "_ids",
          "type": "uint256[]"
        }
      ],
      "name": "approveMany",
      "outputs": [],
      "stateMutability": "nonpayable",
      "type": "function"
    },
    {
      "inputs": [
        {
          "internalType": "uint256",
          "name": "",
          "type": "uint256"
        }
      ],
      "name": "assets",
      "outputs": [
        {
          "internalType": "address",
          "name": "",
          "type": "address"
        }
      ],
      "stateMutability": "view",
      "type": "function"
    },
    {
      "inputs": [],
      "name": "assetsLength",
      "outputs": [
        {
          "internalType": "uint256",
          "name": "",
          "type": "uint256"
        }
      ],
      "stateMutability": "view",
      "type": "function"
    },
    {
      "inputs": [
        {
          "internalType": "address",
          "name": "owner",
          "type": "address"
        }
      ],
      "name": "balanceOf",
      "outputs": [
        {
          "internalType": "uint256",
          "name": "",
          "type": "uint256"
        }
      ],
      "stateMutability": "view",
      "type": "function"
    },
    {
      "inputs": [],
      "name": "baseURI",
      "outputs": [
        {
          "internalType": "string",
          "name": "",
          "type": "string"
        }
      ],
      "stateMutability": "view",
      "type": "function"
    },
    {
      "inputs": [
        {
          "internalType": "address",
          "name": "_tigAsset",
          "type": "address"
        }
      ],
      "name": "claim",
      "outputs": [],
      "stateMutability": "nonpayable",
      "type": "function"
    },
    {
      "inputs": [
        {
          "internalType": "uint16",
          "name": "_dstChainId",
          "type": "uint16"
        },
        {
          "internalType": "bytes",
          "name": "_destination",
          "type": "bytes"
        },
        {
          "internalType": "address",
          "name": "_to",
          "type": "address"
        },
        {
          "internalType": "uint256[]",
          "name": "tokenId",
          "type": "uint256[]"
        }
      ],
      "name": "crossChain",
      "outputs": [],
      "stateMutability": "payable",
      "type": "function"
    },
    {
      "inputs": [
        {
          "internalType": "address",
          "name": "_tigAsset",
          "type": "address"
        },
        {
          "internalType": "uint256",
          "name": "_amount",
          "type": "uint256"
        }
      ],
      "name": "distribute",
      "outputs": [],
      "stateMutability": "nonpayable",
      "type": "function"
    },
    {
      "inputs": [],
      "name": "endpoint",
      "outputs": [
        {
          "internalType": "contract ILayerZeroEndpoint",
          "name": "",
          "type": "address"
        }
      ],
      "stateMutability": "view",
      "type": "function"
    },
    {
      "inputs": [
        {
          "internalType": "uint16",
          "name": "_dstChainId",
          "type": "uint16"
        },
        {
          "internalType": "address",
          "name": "_userApplication",
          "type": "address"
        },
        {
          "internalType": "bytes",
          "name": "_payload",
          "type": "bytes"
        },
        {
          "internalType": "bool",
          "name": "_payInZRO",
          "type": "bool"
        },
        {
          "internalType": "bytes",
          "name": "_adapterParams",
          "type": "bytes"
        }
      ],
      "name": "estimateFees",
      "outputs": [
        {
          "internalType": "uint256",
          "name": "nativeFee",
          "type": "uint256"
        },
        {
          "internalType": "uint256",
          "name": "zroFee",
          "type": "uint256"
        }
      ],
      "stateMutability": "view",
      "type": "function"
    },
    {
      "inputs": [],
      "name": "gas",
      "outputs": [
        {
          "internalType": "uint256",
          "name": "",
          "type": "uint256"
        }
      ],
      "stateMutability": "view",
      "type": "function"
    },
    {
      "inputs": [
        {
          "internalType": "uint256",
          "name": "tokenId",
          "type": "uint256"
        }
      ],
      "name": "getApproved",
      "outputs": [
        {
          "internalType": "address",
          "name": "",
          "type": "address"
        }
      ],
      "stateMutability": "view",
      "type": "function"
    },
    {
      "inputs": [
        {
          "internalType": "address",
          "name": "owner",
          "type": "address"
        },
        {
          "internalType": "address",
          "name": "operator",
          "type": "address"
        }
      ],
      "name": "isApprovedForAll",
      "outputs": [
        {
          "internalType": "bool",
          "name": "",
          "type": "bool"
        }
      ],
      "stateMutability": "view",
      "type": "function"
    },
    {
      "inputs": [
        {
          "internalType": "address",
          "name": "_forwarder",
          "type": "address"
        }
      ],
      "name": "isTrustedForwarder",
      "outputs": [
        {
          "internalType": "bool",
          "name": "",
          "type": "bool"
        }
      ],
      "stateMutability": "view",
      "type": "function"
    },
    {
      "inputs": [
        {
          "internalType": "uint16",
          "name": "_srcChainId",
          "type": "uint16"
        },
        {
          "internalType": "bytes",
          "name": "_srcAddress",
          "type": "bytes"
        },
        {
          "internalType": "uint64",
          "name": "",
          "type": "uint64"
        },
        {
          "internalType": "bytes",
          "name": "_payload",
          "type": "bytes"
        }
      ],
      "name": "lzReceive",
      "outputs": [],
      "stateMutability": "nonpayable",
      "type": "function"
    },
    {
      "inputs": [],
      "name": "mint",
      "outputs": [],
      "stateMutability": "nonpayable",
      "type": "function"
    },
    {
      "inputs": [
        {
          "internalType": "uint256",
          "name": "_amount",
          "type": "uint256"
        }
      ],
      "name": "mintMany",
      "outputs": [],
      "stateMutability": "nonpayable",
      "type": "function"
    },
    {
      "inputs": [],
      "name": "name",
      "outputs": [
        {
          "internalType": "string",
          "name": "",
          "type": "string"
        }
      ],
      "stateMutability": "view",
      "type": "function"
    },
    {
      "inputs": [],
      "name": "owner",
      "outputs": [
        {
          "internalType": "address",
          "name": "",
          "type": "address"
        }
      ],
      "stateMutability": "view",
      "type": "function"
    },
    {
      "inputs": [
        {
          "internalType": "uint256",
          "name": "tokenId",
          "type": "uint256"
        }
      ],
      "name": "ownerOf",
      "outputs": [
        {
          "internalType": "address",
          "name": "",
          "type": "address"
        }
      ],
      "stateMutability": "view",
      "type": "function"
    },
    {
      "inputs": [
        {
          "internalType": "address",
          "name": "user",
          "type": "address"
        },
        {
          "internalType": "address",
          "name": "_tigAsset",
          "type": "address"
        }
      ],
      "name": "pending",
      "outputs": [
        {
          "internalType": "uint256",
          "name": "",
          "type": "uint256"
        }
      ],
      "stateMutability": "view",
      "type": "function"
    },
    {
      "inputs": [],
      "name": "renounceOwnership",
      "outputs": [],
      "stateMutability": "nonpayable",
      "type": "function"
    },
    {
      "inputs": [
        {
          "internalType": "address",
          "name": "from",
          "type": "address"
        },
        {
          "internalType": "address",
          "name": "to",
          "type": "address"
        },
        {
          "internalType": "uint256",
          "name": "tokenId",
          "type": "uint256"
        }
      ],
      "name": "safeTransferFrom",
      "outputs": [],
      "stateMutability": "nonpayable",
      "type": "function"
    },
    {
      "inputs": [
        {
          "internalType": "address",
          "name": "from",
          "type": "address"
        },
        {
          "internalType": "address",
          "name": "to",
          "type": "address"
        },
        {
          "internalType": "uint256",
          "name": "tokenId",
          "type": "uint256"
        },
        {
          "internalType": "bytes",
          "name": "data",
          "type": "bytes"
        }
      ],
      "name": "safeTransferFrom",
      "outputs": [],
      "stateMutability": "nonpayable",
      "type": "function"
    },
    {
      "inputs": [
        {
          "internalType": "address",
          "name": "_from",
          "type": "address"
        },
        {
          "internalType": "address",
          "name": "_to",
          "type": "address"
        },
        {
          "internalType": "uint256[]",
          "name": "_ids",
          "type": "uint256[]"
        }
      ],
      "name": "safeTransferFromMany",
      "outputs": [],
      "stateMutability": "nonpayable",
      "type": "function"
    },
    {
      "inputs": [
        {
          "internalType": "address",
          "name": "_to",
          "type": "address"
        },
        {
          "internalType": "uint256[]",
          "name": "_ids",
          "type": "uint256[]"
        }
      ],
      "name": "safeTransferMany",
      "outputs": [],
      "stateMutability": "nonpayable",
      "type": "function"
    },
    {
      "inputs": [
        {
          "internalType": "address",
          "name": "_asset",
          "type": "address"
        },
        {
          "internalType": "bool",
          "name": "_bool",
          "type": "bool"
        }
      ],
      "name": "setAllowedAsset",
      "outputs": [],
      "stateMutability": "nonpayable",
      "type": "function"
    },
    {
      "inputs": [
        {
          "internalType": "address",
          "name": "operator",
          "type": "address"
        },
        {
          "internalType": "bool",
          "name": "approved",
          "type": "bool"
        }
      ],
      "name": "setApprovalForAll",
      "outputs": [],
      "stateMutability": "nonpayable",
      "type": "function"
    },
    {
      "inputs": [
        {
          "internalType": "string",
          "name": "_newBaseURI",
          "type": "string"
        }
      ],
      "name": "setBaseURI",
      "outputs": [],
      "stateMutability": "nonpayable",
      "type": "function"
    },
    {
      "inputs": [
        {
          "internalType": "contract ILayerZeroEndpoint",
          "name": "_endpoint",
          "type": "address"
        }
      ],
      "name": "setEndpoint",
      "outputs": [],
      "stateMutability": "nonpayable",
      "type": "function"
    },
    {
      "inputs": [
        {
          "internalType": "uint256",
          "name": "_gas",
          "type": "uint256"
        }
      ],
      "name": "setGas",
      "outputs": [],
      "stateMutability": "nonpayable",
      "type": "function"
    },
    {
      "inputs": [
        {
          "internalType": "address",
          "name": "_contract",
          "type": "address"
        },
        {
          "internalType": "bool",
          "name": "_bool",
          "type": "bool"
        }
      ],
      "name": "setTrustedAddress",
      "outputs": [],
      "stateMutability": "nonpayable",
      "type": "function"
    },
    {
      "inputs": [
        {
          "internalType": "address",
          "name": "_forwarder",
          "type": "address"
        },
        {
          "internalType": "bool",
          "name": "_bool",
          "type": "bool"
        }
      ],
      "name": "setTrustedForwarder",
      "outputs": [],
      "stateMutability": "nonpayable",
      "type": "function"
    },
    {
      "inputs": [
        {
          "internalType": "bytes4",
          "name": "interfaceId",
          "type": "bytes4"
        }
      ],
      "name": "supportsInterface",
      "outputs": [
        {
          "internalType": "bool",
          "name": "",
          "type": "bool"
        }
      ],
      "stateMutability": "view",
      "type": "function"
    },
    {
      "inputs": [],
      "name": "symbol",
      "outputs": [
        {
          "internalType": "string",
          "name": "",
          "type": "string"
        }
      ],
      "stateMutability": "view",
      "type": "function"
    },
    {
      "inputs": [
        {
          "internalType": "uint256",
          "name": "tokenId",
          "type": "uint256"
        }
      ],
      "name": "tokenURI",
      "outputs": [
        {
          "internalType": "string",
          "name": "",
          "type": "string"
        }
      ],
      "stateMutability": "view",
      "type": "function"
    },
    {
      "inputs": [],
      "name": "totalSupply",
      "outputs": [
        {
          "internalType": "uint256",
          "name": "",
          "type": "uint256"
        }
      ],
      "stateMutability": "view",
      "type": "function"
    },
    {
      "inputs": [
        {
          "internalType": "address",
          "name": "from",
          "type": "address"
        },
        {
          "internalType": "address",
          "name": "to",
          "type": "address"
        },
        {
          "internalType": "uint256",
          "name": "tokenId",
          "type": "uint256"
        }
      ],
      "name": "transferFrom",
      "outputs": [],
      "stateMutability": "nonpayable",
      "type": "function"
    },
    {
      "inputs": [
        {
          "internalType": "address",
          "name": "newOwner",
          "type": "address"
        }
      ],
      "name": "transferOwnership",
      "outputs": [],
      "stateMutability": "nonpayable",
      "type": "function"
    }
  ],
  "transactionHash": "0x025b164a6146c0763dd461fbfc5b784c1bed048cd18a89fe12d08f68dddc6a55",
  "args": [
    "0x3c2269811836af69497E5F486A85D7316753cf62",
    "",
    "Tigris Governance NFT",
    "Tigris Gov NFT"
  ],
  "numDeployments": 1,
  "solcInputHash": "f1a26774f44043eb13543b4553083334",
  "bytecode": "0x6080604052600160085562055730600a553480156200001d57600080fd5b5060405162004a3e38038062004a3e83398101604081905262000040916200022a565b818160006200005083826200036b565b5060016200005f82826200036b565b5050506200007c62000076620000b060201b60201c565b620000cc565b600c80546001600160a01b0319166001600160a01b038616179055600b620000a584826200036b565b505050505062000437565b6000620000c76200011e60201b620021cf1760201c565b905090565b600680546001600160a01b038381166001600160a01b0319831681179093556040519116919082907f8be0079c531659141344cd1fd0a4f28419497f9722a3daafe3b4186f6b6457e090600090a35050565b3360009081526007602052604081205460ff161562000144575060131936013560601c90565b620000c76200015960201b6200221c1760201c565b3390565b634e487b7160e01b600052604160045260246000fd5b600082601f8301126200018557600080fd5b81516001600160401b0380821115620001a257620001a26200015d565b604051601f8301601f19908116603f01168101908282118183101715620001cd57620001cd6200015d565b81604052838152602092508683858801011115620001ea57600080fd5b600091505b838210156200020e5785820183015181830184015290820190620001ef565b83821115620002205760008385830101525b9695505050505050565b600080600080608085870312156200024157600080fd5b84516001600160a01b03811681146200025957600080fd5b60208601519094506001600160401b03808211156200027757600080fd5b620002858883890162000173565b945060408701519150808211156200029c57600080fd5b620002aa8883890162000173565b93506060870151915080821115620002c157600080fd5b50620002d08782880162000173565b91505092959194509250565b600181811c90821680620002f157607f821691505b6020821081036200031257634e487b7160e01b600052602260045260246000fd5b50919050565b601f8211156200036657600081815260208120601f850160051c81016020861015620003415750805b601f850160051c820191505b8181101562000362578281556001016200034d565b5050505b505050565b81516001600160401b038111156200038757620003876200015d565b6200039f81620003988454620002dc565b8462000318565b602080601f831160018114620003d75760008415620003be5750858301515b600019600386901b1c1916600185901b17855562000362565b600085815260208120601f198616915b828110156200040857888601518255948401946001909101908401620003e7565b5085821015620004275787850151600019600388901b60f8161c191681555b5050505050600190811b01905550565b6145f780620004476000396000f3fe6080604052600436106102db5760003560e01c80636c0360eb11610184578063cf35bdd0116100d6578063e691d03b1161008a578063f35da34c11610064578063f35da34c14610868578063f50477a2146108ae578063fb932108146108c357600080fd5b8063e691d03b146107d2578063e985e9c5146107f2578063f2fde38b1461084857600080fd5b8063d9a3aa3c116100bb578063d9a3aa3c14610772578063dbbb415514610792578063dd51faa2146107b257600080fd5b8063cf35bdd014610732578063d6651c701461075257600080fd5b80638da5cb5b11610138578063a22cb46511610112578063a22cb465146106d2578063b88d4fde146106f2578063c87b56dd1461071257600080fd5b80638da5cb5b1461067257806395d89b411461069d57806399bb8134146106b257600080fd5b806370a082311161016957806370a082311461061d578063715018a61461063d578063806c3ca91461065257600080fd5b80636c0360eb146105f25780636ca7c2161461060757600080fd5b80631e83409a1161023d57806342842e0e116101f15780635deccd72116101cb5780635deccd72146105925780635e280f11146105a55780636352211e146105d257600080fd5b806342842e0e1461050c57806355f804b31461052c578063572b6c051461054c57600080fd5b8063298410e511610222578063298410e5146104975780633206e3e7146104b757806340a7bb10146104d757600080fd5b80631e83409a1461045757806323b872dd1461047757600080fd5b8063081812fc116102945780631249c58b116102795780631249c58b146103fe57806318160ddd1461041357806319bc9ae81461043757600080fd5b8063081812fc14610399578063095ea7b3146103de57600080fd5b806304e538fd116102c557806304e538fd14610337578063059513a61461035757806306fdde031461037757600080fd5b80621d3567146102e057806301ffc9a714610302575b600080fd5b3480156102ec57600080fd5b506103006102fb36600461391c565b6108e3565b005b34801561030e57600080fd5b5061032261031d3660046139d8565b610b01565b60405190151581526020015b60405180910390f35b34801561034357600080fd5b50610300610352366004613a17565b610be6565b34801561036357600080fd5b50610300610372366004613a43565b610e2e565b34801561038357600080fd5b5061038c610e66565b60405161032e9190613ad2565b3480156103a557600080fd5b506103b96103b4366004613a43565b610ef8565b60405173ffffffffffffffffffffffffffffffffffffffff909116815260200161032e565b3480156103ea57600080fd5b506103006103f9366004613a17565b610f2c565b34801561040a57600080fd5b506103006110d7565b34801561041f57600080fd5b5061042960095481565b60405190815260200161032e565b34801561044357600080fd5b50610429610452366004613ae5565b6110ec565b34801561046357600080fd5b50610300610472366004613b1e565b61118e565b34801561048357600080fd5b50610300610492366004613b3b565b611293565b3480156104a357600080fd5b506103006104b2366004613b1e565b61133b565b3480156104c357600080fd5b506103006104d2366004613bc8565b6114ce565b3480156104e357600080fd5b506104f76104f2366004613c7d565b611515565b6040805192835260208301919091520161032e565b34801561051857600080fd5b50610300610527366004613b3b565b6115cc565b34801561053857600080fd5b50610300610547366004613d25565b6115e7565b34801561055857600080fd5b50610322610567366004613b1e565b73ffffffffffffffffffffffffffffffffffffffff1660009081526007602052604090205460ff1690565b6103006105a0366004613d8b565b6115fc565b3480156105b157600080fd5b50600c546103b99073ffffffffffffffffffffffffffffffffffffffff1681565b3480156105de57600080fd5b506103b96105ed366004613a43565b611966565b3480156105fe57600080fd5b5061038c6119f2565b34801561061357600080fd5b50610429600a5481565b34801561062957600080fd5b50610429610638366004613b1e565b611a80565b34801561064957600080fd5b50610300611b4e565b34801561065e57600080fd5b5061030061066d366004613e75565b611b60565b34801561067e57600080fd5b5060065473ffffffffffffffffffffffffffffffffffffffff166103b9565b3480156106a957600080fd5b5061038c611bbe565b3480156106be57600080fd5b506103006106cd366004613ea3565b611bcd565b3480156106de57600080fd5b506103006106ed366004613e75565b611c0c565b3480156106fe57600080fd5b5061030061070d366004613ef8565b611c1e565b34801561071e57600080fd5b5061038c61072d366004613a43565b611cc7565b34801561073e57600080fd5b506103b961074d366004613a43565b611d2d565b34801561075e57600080fd5b5061030061076d366004613ea3565b611d64565b34801561077e57600080fd5b5061030061078d366004613e75565b611dab565b34801561079e57600080fd5b506103006107ad366004613b1e565b611e09565b3480156107be57600080fd5b506103006107cd366004613a43565b611ed5565b3480156107de57600080fd5b506103006107ed366004613e75565b611ee2565b3480156107fe57600080fd5b5061032261080d366004613ae5565b73ffffffffffffffffffffffffffffffffffffffff918216600090815260056020908152604080832093909416825291909152205460ff1690565b34801561085457600080fd5b50610300610863366004613b1e565b611f40565b34801561087457600080fd5b50610322610883366004613b1e565b73ffffffffffffffffffffffffffffffffffffffff166000908152600f602052604090205460ff1690565b3480156108ba57600080fd5b50600e54610429565b3480156108cf57600080fd5b506103006108de366004613a17565b611ff7565b600c5473ffffffffffffffffffffffffffffffffffffffff16610904612220565b73ffffffffffffffffffffffffffffffffffffffff1614610986576040517f08c379a000000000000000000000000000000000000000000000000000000000815260206004820152600960248201527f21456e64706f696e74000000000000000000000000000000000000000000000060448201526064015b60405180910390fd5b601483015173ffffffffffffffffffffffffffffffffffffffff81166000908152600d602052604090205460ff16610a1a576040517f08c379a000000000000000000000000000000000000000000000000000000000815260206004820152600f60248201527f2154727573746564416464726573730000000000000000000000000000000000604482015260640161097d565b60008083806020019051810190610a319190613f58565b9150915060005b8151811015610af757610a6483838381518110610a5757610a57614000565b6020026020010151610be6565b7f1046a24c098e44fbda12f8600bd37cb06b6f2e48354350ae51621d09b3b5a9058884848481518110610a9957610a99614000565b6020026020010151604051610add9392919061ffff93909316835273ffffffffffffffffffffffffffffffffffffffff919091166020830152604082015260600190565b60405180910390a180610aef8161405e565b915050610a38565b5050505050505050565b60007fffffffff0000000000000000000000000000000000000000000000000000000082167f80ac58cd000000000000000000000000000000000000000000000000000000001480610b9457507fffffffff0000000000000000000000000000000000000000000000000000000082167f5b5e139f00000000000000000000000000000000000000000000000000000000145b80610be057507f01ffc9a7000000000000000000000000000000000000000000000000000000007fffffffff000000000000000000000000000000000000000000000000000000008316145b92915050565b600c5473ffffffffffffffffffffffffffffffffffffffff16610c07612220565b73ffffffffffffffffffffffffffffffffffffffff161480610c5d575060065473ffffffffffffffffffffffffffffffffffffffff16610c45612220565b73ffffffffffffffffffffffffffffffffffffffff16145b610cc3576040517f08c379a000000000000000000000000000000000000000000000000000000000815260206004820152600960248201527f4e6f744272696467650000000000000000000000000000000000000000000000604482015260640161097d565b612710811115610d2f576040517f08c379a000000000000000000000000000000000000000000000000000000000815260206004820152600560248201527f4261644944000000000000000000000000000000000000000000000000000000604482015260640161097d565b600160096000828254610d429190614096565b90915550600090505b600e54811015610e1f5760136000600e8381548110610d6c57610d6c614000565b600091825260208083209091015473ffffffffffffffffffffffffffffffffffffffff9081168452838201949094526040928301822054938716825260119052908120600e805491929185908110610dc657610dc6614000565b600091825260208083209091015473ffffffffffffffffffffffffffffffffffffffff16835282019290925260400181208054909190610e07908490614096565b90915550819050610e178161405e565b915050610d4b565b50610e2a828261222a565b5050565b610e366123ec565b60005b81811015610e2a57610e54610e4c612220565b6008546124a6565b80610e5e8161405e565b915050610e39565b606060008054610e75906140ae565b80601f0160208091040260200160405190810160405280929190818152602001828054610ea1906140ae565b8015610eee5780601f10610ec357610100808354040283529160200191610eee565b820191906000526020600020905b815481529060010190602001808311610ed157829003601f168201915b5050505050905090565b6000610f038261261e565b5060009081526004602052604090205473ffffffffffffffffffffffffffffffffffffffff1690565b6000610f3782611966565b90508073ffffffffffffffffffffffffffffffffffffffff168373ffffffffffffffffffffffffffffffffffffffff1603610ff4576040517f08c379a000000000000000000000000000000000000000000000000000000000815260206004820152602160248201527f4552433732313a20617070726f76616c20746f2063757272656e74206f776e6560448201527f7200000000000000000000000000000000000000000000000000000000000000606482015260840161097d565b8073ffffffffffffffffffffffffffffffffffffffff16611013612220565b73ffffffffffffffffffffffffffffffffffffffff16148061103c575061103c8161080d612220565b6110c8576040517f08c379a000000000000000000000000000000000000000000000000000000000815260206004820152603e60248201527f4552433732313a20617070726f76652063616c6c6572206973206e6f7420746f60448201527f6b656e206f776e6572206e6f7220617070726f76656420666f7220616c6c0000606482015260840161097d565b6110d283836126a9565b505050565b6110df6123ec565b6110ea610e4c612220565b565b73ffffffffffffffffffffffffffffffffffffffff808316600090815260116020908152604080832093851683529281528282205460139091529181205490919061113685611a80565b6111409190614101565b73ffffffffffffffffffffffffffffffffffffffff80861660009081526012602090815260408083209388168352929052205461117d9190614096565b611187919061413e565b9392505050565b6000611198612220565b905060006111a682846110ec565b73ffffffffffffffffffffffffffffffffffffffff80841660009081526011602090815260408083209388168352929052908120805492935083929091906111ef908490614096565b90915550506040517fa9059cbb00000000000000000000000000000000000000000000000000000000815273ffffffffffffffffffffffffffffffffffffffff83811660048301526024820183905284169063a9059cbb906044016020604051808303816000875af1158015611269573d6000803e3d6000fd5b505050506040513d601f19601f8201168201806040525081019061128d9190614155565b50505050565b6112a461129e612220565b82612749565b611330576040517f08c379a000000000000000000000000000000000000000000000000000000000815260206004820152602e60248201527f4552433732313a2063616c6c6572206973206e6f7420746f6b656e206f776e6560448201527f72206e6f7220617070726f766564000000000000000000000000000000000000606482015260840161097d565b6110d2838383612809565b6113436123ec565b600e5415806113ad575073ffffffffffffffffffffffffffffffffffffffff8116600081815260106020526040902054600e8054909190811061138857611388614000565b60009182526020909120015473ffffffffffffffffffffffffffffffffffffffff1614155b611413576040517f08c379a000000000000000000000000000000000000000000000000000000000815260206004820152600d60248201527f416c726561647920616464656400000000000000000000000000000000000000604482015260640161097d565b600e805473ffffffffffffffffffffffffffffffffffffffff909216600081815260106020908152604080832086905560018087019095557fbb7b4a454dc3493923482f07822329ed19e8244eff582cc204f8554c3620c3fd90950180547fffffffffffffffffffffffff00000000000000000000000000000000000000001684179055918152600f9091529190912080547fffffffffffffffffffffffffffffffffffffffffffffffffffffffffffffff00169091179055565b60005b8181101561150e576114fc85858585858181106114f0576114f0614000565b905060200201356115cc565b806115068161405e565b9150506114d1565b5050505050565b600c546040517f40a7bb10000000000000000000000000000000000000000000000000000000008152600091829173ffffffffffffffffffffffffffffffffffffffff909116906340a7bb109061157c908c908c908c908c908c908c908c906004016141bb565b6040805180830381865afa158015611598573d6000803e3d6000fd5b505050506040513d601f19601f820116820180604052508101906115bc919061421e565b9150915097509795505050505050565b6110d283838360405180602001604052806000815250611c1e565b6115ef6123ec565b600b6110d2828483614290565b60005b81518110156116f95761162a82828151811061161d5761161d614000565b6020026020010151611966565b73ffffffffffffffffffffffffffffffffffffffff16611648612220565b73ffffffffffffffffffffffffffffffffffffffff16146116c5576040517f08c379a000000000000000000000000000000000000000000000000000000000815260206004820152600d60248201527f4e6f7420746865206f776e657200000000000000000000000000000000000000604482015260640161097d565b6116e78282815181106116da576116da614000565b6020026020010151612c4a565b806116f18161405e565b9150506115ff565b506000828260405160200161170f9291906143aa565b604080517fffffffffffffffffffffffffffffffffffffffffffffffffffffffffffffffe081840301815290829052600a547e01000000000000000000000000000000000000000000000000000000000000602084015260228301529150600190600090604201604080517fffffffffffffffffffffffffffffffffffffffffffffffffffffffffffffffe081840301815290829052600c547f40a7bb1000000000000000000000000000000000000000000000000000000000835290925060009173ffffffffffffffffffffffffffffffffffffffff909116906340a7bb1090611806908c90309089908790899060040161440e565b6040805180830381865afa158015611822573d6000803e3d6000fd5b505050506040513d601f19601f82011682018060405250810190611846919061421e565b509050803410156118d9576040517f08c379a000000000000000000000000000000000000000000000000000000000815260206004820152602a60248201527f4d7573742073656e6420656e6f7567682076616c756520746f20636f7665722060448201527f6d65737361676546656500000000000000000000000000000000000000000000606482015260840161097d565b600c5473ffffffffffffffffffffffffffffffffffffffff1663c5803100348b8b8b89611904612220565b60008a6040518963ffffffff1660e01b8152600401611929979695949392919061446d565b6000604051808303818588803b15801561194257600080fd5b505af1158015611956573d6000803e3d6000fd5b5050505050505050505050505050565b60008181526002602052604081205473ffffffffffffffffffffffffffffffffffffffff1680610be0576040517f08c379a000000000000000000000000000000000000000000000000000000000815260206004820152601860248201527f4552433732313a20696e76616c696420746f6b656e2049440000000000000000604482015260640161097d565b600b80546119ff906140ae565b80601f0160208091040260200160405190810160405280929190818152602001828054611a2b906140ae565b8015611a785780601f10611a4d57610100808354040283529160200191611a78565b820191906000526020600020905b815481529060010190602001808311611a5b57829003601f168201915b505050505081565b600073ffffffffffffffffffffffffffffffffffffffff8216611b25576040517f08c379a000000000000000000000000000000000000000000000000000000000815260206004820152602960248201527f4552433732313a2061646472657373207a65726f206973206e6f74206120766160448201527f6c6964206f776e65720000000000000000000000000000000000000000000000606482015260840161097d565b5073ffffffffffffffffffffffffffffffffffffffff1660009081526003602052604090205490565b611b566123ec565b6110ea6000612f59565b611b686123ec565b73ffffffffffffffffffffffffffffffffffffffff919091166000908152600d6020526040902080547fffffffffffffffffffffffffffffffffffffffffffffffffffffffffffffff0016911515919091179055565b606060018054610e75906140ae565b60005b8181101561128d57611bfa84848484818110611bee57611bee614000565b90506020020135610f2c565b80611c048161405e565b915050611bd0565b610e2a611c17612220565b8383612fd0565b611c2f611c29612220565b83612749565b611cbb576040517f08c379a000000000000000000000000000000000000000000000000000000000815260206004820152602e60248201527f4552433732313a2063616c6c6572206973206e6f7420746f6b656e206f776e6560448201527f72206e6f7220617070726f766564000000000000000000000000000000000000606482015260840161097d565b61128d848484846130fd565b6060611cd28261261e565b6000611cdc6131a0565b90506000815111611cfc5760405180602001604052806000815250611187565b80611d06846131af565b604051602001611d179291906144d5565b6040516020818303038152906040529392505050565b600e8181548110611d3d57600080fd5b60009182526020909120015473ffffffffffffffffffffffffffffffffffffffff16905081565b60005b8181101561128d57611d99611d7a612220565b85858585818110611d8d57611d8d614000565b90506020020135612809565b80611da38161405e565b915050611d67565b611db36123ec565b73ffffffffffffffffffffffffffffffffffffffff919091166000908152600f6020526040902080547fffffffffffffffffffffffffffffffffffffffffffffffffffffffffffffff0016911515919091179055565b611e116123ec565b73ffffffffffffffffffffffffffffffffffffffff8116611e8e576040517f08c379a000000000000000000000000000000000000000000000000000000000815260206004820152600b60248201527f5a65726f41646472657373000000000000000000000000000000000000000000604482015260640161097d565b600c80547fffffffffffffffffffffffff00000000000000000000000000000000000000001673ffffffffffffffffffffffffffffffffffffffff92909216919091179055565b611edd6123ec565b600a55565b611eea6123ec565b73ffffffffffffffffffffffffffffffffffffffff91909116600090815260076020526040902080547fffffffffffffffffffffffffffffffffffffffffffffffffffffffffffffff0016911515919091179055565b611f486123ec565b73ffffffffffffffffffffffffffffffffffffffff8116611feb576040517f08c379a000000000000000000000000000000000000000000000000000000000815260206004820152602660248201527f4f776e61626c653a206e6577206f776e657220697320746865207a65726f206160448201527f6464726573730000000000000000000000000000000000000000000000000000606482015260840161097d565b611ff481612f59565b50565b600e541580612060575073ffffffffffffffffffffffffffffffffffffffff8216600090815260106020526040812054600e8054909190811061203c5761203c614000565b60009182526020909120015473ffffffffffffffffffffffffffffffffffffffff16145b8061206b5750600954155b8061209c575073ffffffffffffffffffffffffffffffffffffffff82166000908152600f602052604090205460ff16155b156120a5575050565b8173ffffffffffffffffffffffffffffffffffffffff166323b872dd6120c9612220565b6040517fffffffff0000000000000000000000000000000000000000000000000000000060e084901b16815273ffffffffffffffffffffffffffffffffffffffff9091166004820152306024820152604481018490526064016020604051808303816000875af192505050801561217b575060408051601f3d9081017fffffffffffffffffffffffffffffffffffffffffffffffffffffffffffffffe016820190925261217891810190614155565b60015b612183575050565b506009546121919082614533565b73ffffffffffffffffffffffffffffffffffffffff8316600090815260136020526040812080549091906121c6908490614096565b90915550505050565b3360009081526007602052604081205460ff161561221257507fffffffffffffffffffffffffffffffffffffffffffffffffffffffffffffffec36013560601c90565b503390565b905090565b3390565b60006122176121cf565b73ffffffffffffffffffffffffffffffffffffffff82166122a7576040517f08c379a000000000000000000000000000000000000000000000000000000000815260206004820181905260248201527f4552433732313a206d696e7420746f20746865207a65726f2061646472657373604482015260640161097d565b60008181526002602052604090205473ffffffffffffffffffffffffffffffffffffffff1615612333576040517f08c379a000000000000000000000000000000000000000000000000000000000815260206004820152601c60248201527f4552433732313a20746f6b656e20616c7265616479206d696e74656400000000604482015260640161097d565b73ffffffffffffffffffffffffffffffffffffffff82166000908152600360205260408120805460019290612369908490614096565b909155505060008181526002602052604080822080547fffffffffffffffffffffffff00000000000000000000000000000000000000001673ffffffffffffffffffffffffffffffffffffffff861690811790915590518392907fddf252ad1be2c89b69c2b068fc378daa952ba7f163c4a11628f55a4df523b3ef908290a45050565b6123f4612220565b73ffffffffffffffffffffffffffffffffffffffff1661242960065473ffffffffffffffffffffffffffffffffffffffff1690565b73ffffffffffffffffffffffffffffffffffffffff16146110ea576040517f08c379a000000000000000000000000000000000000000000000000000000000815260206004820181905260248201527f4f776e61626c653a2063616c6c6572206973206e6f7420746865206f776e6572604482015260640161097d565b6127106008541115612514576040517f08c379a000000000000000000000000000000000000000000000000000000000815260206004820152600e60248201527f4578636565647320737570706c79000000000000000000000000000000000000604482015260640161097d565b6001600860008282546125279190614096565b925050819055506001600960008282546125419190614096565b90915550600090505b600e54811015610e1f5760136000600e838154811061256b5761256b614000565b600091825260208083209091015473ffffffffffffffffffffffffffffffffffffffff9081168452838201949094526040928301822054938716825260119052908120600e8054919291859081106125c5576125c5614000565b600091825260208083209091015473ffffffffffffffffffffffffffffffffffffffff16835282019290925260400181208054909190612606908490614096565b909155508190506126168161405e565b91505061254a565b60008181526002602052604090205473ffffffffffffffffffffffffffffffffffffffff16611ff4576040517f08c379a000000000000000000000000000000000000000000000000000000000815260206004820152601860248201527f4552433732313a20696e76616c696420746f6b656e2049440000000000000000604482015260640161097d565b600081815260046020526040902080547fffffffffffffffffffffffff00000000000000000000000000000000000000001673ffffffffffffffffffffffffffffffffffffffff8416908117909155819061270382611966565b73ffffffffffffffffffffffffffffffffffffffff167f8c5be1e5ebec7d5bd14f71427d1e84f3dd0314c0f7b2291e5b200ac8c7c3b92560405160405180910390a45050565b60008061275583611966565b90508073ffffffffffffffffffffffffffffffffffffffff168473ffffffffffffffffffffffffffffffffffffffff1614806127c3575073ffffffffffffffffffffffffffffffffffffffff80821660009081526005602090815260408083209388168352929052205460ff165b8061280157508373ffffffffffffffffffffffffffffffffffffffff166127e984610ef8565b73ffffffffffffffffffffffffffffffffffffffff16145b949350505050565b8273ffffffffffffffffffffffffffffffffffffffff1661282982611966565b73ffffffffffffffffffffffffffffffffffffffff16146128a6576040517f08c379a000000000000000000000000000000000000000000000000000000000815260206004820152600660248201527f214f776e65720000000000000000000000000000000000000000000000000000604482015260640161097d565b60005b600e54811015612c3e5760136000600e83815481106128ca576128ca614000565b600091825260208083209091015473ffffffffffffffffffffffffffffffffffffffff9081168452838201949094526040928301822054938816825260129052908120600e80549192918590811061292457612924614000565b600091825260208083209091015473ffffffffffffffffffffffffffffffffffffffff16835282019290925260400181208054909190612965908490614096565b90915550612974905084611a80565b73ffffffffffffffffffffffffffffffffffffffff85166000908152601160205260408120600e8054919291859081106129b0576129b0614000565b600091825260208083209091015473ffffffffffffffffffffffffffffffffffffffff1683528201929092526040019020546129ec9190614533565b73ffffffffffffffffffffffffffffffffffffffff85166000908152601260205260408120600e805491929185908110612a2857612a28614000565b600091825260208083209091015473ffffffffffffffffffffffffffffffffffffffff16835282019290925260400181208054909190612a6990849061413e565b90915550612a78905084611a80565b73ffffffffffffffffffffffffffffffffffffffff85166000908152601160205260408120600e805491929185908110612ab457612ab4614000565b600091825260208083209091015473ffffffffffffffffffffffffffffffffffffffff168352820192909252604001902054612af09190614533565b73ffffffffffffffffffffffffffffffffffffffff85166000908152601160205260408120600e805491929185908110612b2c57612b2c614000565b600091825260208083209091015473ffffffffffffffffffffffffffffffffffffffff16835282019290925260400181208054909190612b6d90849061413e565b9250508190555060136000600e8381548110612b8b57612b8b614000565b600091825260208083209091015473ffffffffffffffffffffffffffffffffffffffff9081168452838201949094526040928301822054938716825260119052908120600e805491929185908110612be557612be5614000565b600091825260208083209091015473ffffffffffffffffffffffffffffffffffffffff16835282019290925260400181208054909190612c26908490614096565b90915550819050612c368161405e565b9150506128a9565b506110d28383836132e4565b6000612c5582611966565b905060005b600e54811015612f365760136000600e8381548110612c7b57612c7b614000565b600091825260208083209091015473ffffffffffffffffffffffffffffffffffffffff9081168452838201949094526040928301822054938616825260129052908120600e805491929185908110612cd557612cd5614000565b600091825260208083209091015473ffffffffffffffffffffffffffffffffffffffff16835282019290925260400181208054909190612d16908490614096565b90915550612d25905082611a80565b73ffffffffffffffffffffffffffffffffffffffff83166000908152601160205260408120600e805491929185908110612d6157612d61614000565b600091825260208083209091015473ffffffffffffffffffffffffffffffffffffffff168352820192909252604001902054612d9d9190614533565b73ffffffffffffffffffffffffffffffffffffffff83166000908152601260205260408120600e805491929185908110612dd957612dd9614000565b600091825260208083209091015473ffffffffffffffffffffffffffffffffffffffff16835282019290925260400181208054909190612e1a90849061413e565b90915550612e29905082611a80565b73ffffffffffffffffffffffffffffffffffffffff83166000908152601160205260408120600e805491929185908110612e6557612e65614000565b600091825260208083209091015473ffffffffffffffffffffffffffffffffffffffff168352820192909252604001902054612ea19190614533565b73ffffffffffffffffffffffffffffffffffffffff83166000908152601160205260408120600e805491929185908110612edd57612edd614000565b600091825260208083209091015473ffffffffffffffffffffffffffffffffffffffff16835282019290925260400181208054909190612f1e90849061413e565b90915550819050612f2e8161405e565b915050612c5a565b50600160096000828254612f4a919061413e565b90915550610e2a90508261354b565b6006805473ffffffffffffffffffffffffffffffffffffffff8381167fffffffffffffffffffffffff0000000000000000000000000000000000000000831681179093556040519116919082907f8be0079c531659141344cd1fd0a4f28419497f9722a3daafe3b4186f6b6457e090600090a35050565b8173ffffffffffffffffffffffffffffffffffffffff168373ffffffffffffffffffffffffffffffffffffffff1603613065576040517f08c379a000000000000000000000000000000000000000000000000000000000815260206004820152601960248201527f4552433732313a20617070726f766520746f2063616c6c657200000000000000604482015260640161097d565b73ffffffffffffffffffffffffffffffffffffffff83811660008181526005602090815260408083209487168084529482529182902080547fffffffffffffffffffffffffffffffffffffffffffffffffffffffffffffff001686151590811790915591519182527f17307eab39ab6107e8899845ad3d59bd9653f200f220920489ca2b5937696c31910160405180910390a3505050565b613108848484612809565b61311484848484613618565b61128d576040517f08c379a000000000000000000000000000000000000000000000000000000000815260206004820152603260248201527f4552433732313a207472616e7366657220746f206e6f6e20455243373231526560448201527f63656976657220696d706c656d656e7465720000000000000000000000000000606482015260840161097d565b6060600b8054610e75906140ae565b6060816000036131f257505060408051808201909152600181527f3000000000000000000000000000000000000000000000000000000000000000602082015290565b8160005b811561321c57806132068161405e565b91506132159050600a83614533565b91506131f6565b60008167ffffffffffffffff81111561323757613237613810565b6040519080825280601f01601f191660200182016040528015613261576020820181803683370190505b5090505b84156128015761327660018361413e565b9150613283600a86614547565b61328e906030614096565b60f81b8183815181106132a3576132a3614000565b60200101907effffffffffffffffffffffffffffffffffffffffffffffffffffffffffffff1916908160001a9053506132dd600a86614533565b9450613265565b8273ffffffffffffffffffffffffffffffffffffffff1661330482611966565b73ffffffffffffffffffffffffffffffffffffffff16146133a7576040517f08c379a000000000000000000000000000000000000000000000000000000000815260206004820152602560248201527f4552433732313a207472616e736665722066726f6d20696e636f72726563742060448201527f6f776e6572000000000000000000000000000000000000000000000000000000606482015260840161097d565b73ffffffffffffffffffffffffffffffffffffffff8216613449576040517f08c379a0000000000000000000000000000000000000000000000000000000008152602060048201526024808201527f4552433732313a207472616e7366657220746f20746865207a65726f2061646460448201527f7265737300000000000000000000000000000000000000000000000000000000606482015260840161097d565b6134546000826126a9565b73ffffffffffffffffffffffffffffffffffffffff8316600090815260036020526040812080546001929061348a90849061413e565b909155505073ffffffffffffffffffffffffffffffffffffffff821660009081526003602052604081208054600192906134c5908490614096565b909155505060008181526002602052604080822080547fffffffffffffffffffffffff00000000000000000000000000000000000000001673ffffffffffffffffffffffffffffffffffffffff86811691821790925591518493918716917fddf252ad1be2c89b69c2b068fc378daa952ba7f163c4a11628f55a4df523b3ef91a4505050565b600061355682611966565b90506135636000836126a9565b73ffffffffffffffffffffffffffffffffffffffff8116600090815260036020526040812080546001929061359990849061413e565b909155505060008281526002602052604080822080547fffffffffffffffffffffffff00000000000000000000000000000000000000001690555183919073ffffffffffffffffffffffffffffffffffffffff8416907fddf252ad1be2c89b69c2b068fc378daa952ba7f163c4a11628f55a4df523b3ef908390a45050565b600073ffffffffffffffffffffffffffffffffffffffff84163b156137ee578373ffffffffffffffffffffffffffffffffffffffff1663150b7a0261365b612220565b8786866040518563ffffffff1660e01b815260040161367d949392919061455b565b6020604051808303816000875af19250505080156136d6575060408051601f3d9081017fffffffffffffffffffffffffffffffffffffffffffffffffffffffffffffffe01682019092526136d3918101906145a4565b60015b6137a3573d808015613704576040519150601f19603f3d011682016040523d82523d6000602084013e613709565b606091505b50805160000361379b576040517f08c379a000000000000000000000000000000000000000000000000000000000815260206004820152603260248201527f4552433732313a207472616e7366657220746f206e6f6e20455243373231526560448201527f63656976657220696d706c656d656e7465720000000000000000000000000000606482015260840161097d565b805181602001fd5b7fffffffff00000000000000000000000000000000000000000000000000000000167f150b7a0200000000000000000000000000000000000000000000000000000000149050612801565b506001949350505050565b803561ffff8116811461380b57600080fd5b919050565b7f4e487b7100000000000000000000000000000000000000000000000000000000600052604160045260246000fd5b604051601f82017fffffffffffffffffffffffffffffffffffffffffffffffffffffffffffffffe016810167ffffffffffffffff8111828210171561388657613886613810565b604052919050565b600082601f83011261389f57600080fd5b813567ffffffffffffffff8111156138b9576138b9613810565b6138ea60207fffffffffffffffffffffffffffffffffffffffffffffffffffffffffffffffe0601f8401160161383f565b8181528460208386010111156138ff57600080fd5b816020850160208301376000918101602001919091529392505050565b6000806000806080858703121561393257600080fd5b61393b856137f9565b9350602085013567ffffffffffffffff8082111561395857600080fd5b6139648883890161388e565b945060408701359150808216821461397b57600080fd5b9092506060860135908082111561399157600080fd5b5061399e8782880161388e565b91505092959194509250565b7fffffffff0000000000000000000000000000000000000000000000000000000081168114611ff457600080fd5b6000602082840312156139ea57600080fd5b8135611187816139aa565b73ffffffffffffffffffffffffffffffffffffffff81168114611ff457600080fd5b60008060408385031215613a2a57600080fd5b8235613a35816139f5565b946020939093013593505050565b600060208284031215613a5557600080fd5b5035919050565b60005b83811015613a77578181015183820152602001613a5f565b8381111561128d5750506000910152565b60008151808452613aa0816020860160208601613a5c565b601f017fffffffffffffffffffffffffffffffffffffffffffffffffffffffffffffffe0169290920160200192915050565b6020815260006111876020830184613a88565b60008060408385031215613af857600080fd5b8235613b03816139f5565b91506020830135613b13816139f5565b809150509250929050565b600060208284031215613b3057600080fd5b8135611187816139f5565b600080600060608486031215613b5057600080fd5b8335613b5b816139f5565b92506020840135613b6b816139f5565b929592945050506040919091013590565b60008083601f840112613b8e57600080fd5b50813567ffffffffffffffff811115613ba657600080fd5b6020830191508360208260051b8501011115613bc157600080fd5b9250929050565b60008060008060608587031215613bde57600080fd5b8435613be9816139f5565b93506020850135613bf9816139f5565b9250604085013567ffffffffffffffff811115613c1557600080fd5b613c2187828801613b7c565b95989497509550505050565b60008083601f840112613c3f57600080fd5b50813567ffffffffffffffff811115613c5757600080fd5b602083019150836020828501011115613bc157600080fd5b8015158114611ff457600080fd5b600080600080600080600060a0888a031215613c9857600080fd5b613ca1886137f9565b96506020880135613cb1816139f5565b9550604088013567ffffffffffffffff80821115613cce57600080fd5b613cda8b838c01613c2d565b909750955060608a01359150613cef82613c6f565b90935060808901359080821115613d0557600080fd5b50613d128a828b01613c2d565b989b979a50959850939692959293505050565b60008060208385031215613d3857600080fd5b823567ffffffffffffffff811115613d4f57600080fd5b613d5b85828601613c2d565b90969095509350505050565b600067ffffffffffffffff821115613d8157613d81613810565b5060051b60200190565b600080600080600060808688031215613da357600080fd5b613dac866137f9565b945060208087013567ffffffffffffffff80821115613dca57600080fd5b613dd68a838b01613c2d565b909750955060408901359150613deb826139f5565b90935060608801359080821115613e0157600080fd5b508701601f81018913613e1357600080fd5b8035613e26613e2182613d67565b61383f565b81815260059190911b8201830190838101908b831115613e4557600080fd5b928401925b82841015613e6357833582529284019290840190613e4a565b80955050505050509295509295909350565b60008060408385031215613e8857600080fd5b8235613e93816139f5565b91506020830135613b1381613c6f565b600080600060408486031215613eb857600080fd5b8335613ec3816139f5565b9250602084013567ffffffffffffffff811115613edf57600080fd5b613eeb86828701613b7c565b9497909650939450505050565b60008060008060808587031215613f0e57600080fd5b8435613f19816139f5565b93506020850135613f29816139f5565b925060408501359150606085013567ffffffffffffffff811115613f4c57600080fd5b61399e8782880161388e565b60008060408385031215613f6b57600080fd5b8251613f76816139f5565b8092505060208084015167ffffffffffffffff811115613f9557600080fd5b8401601f81018613613fa657600080fd5b8051613fb4613e2182613d67565b81815260059190911b82018301908381019088831115613fd357600080fd5b928401925b82841015613ff157835182529284019290840190613fd8565b80955050505050509250929050565b7f4e487b7100000000000000000000000000000000000000000000000000000000600052603260045260246000fd5b7f4e487b7100000000000000000000000000000000000000000000000000000000600052601160045260246000fd5b60007fffffffffffffffffffffffffffffffffffffffffffffffffffffffffffffffff820361408f5761408f61402f565b5060010190565b600082198211156140a9576140a961402f565b500190565b600181811c908216806140c257607f821691505b6020821081036140fb577f4e487b7100000000000000000000000000000000000000000000000000000000600052602260045260246000fd5b50919050565b6000817fffffffffffffffffffffffffffffffffffffffffffffffffffffffffffffffff04831182151516156141395761413961402f565b500290565b6000828210156141505761415061402f565b500390565b60006020828403121561416757600080fd5b815161118781613c6f565b8183528181602085013750600060208284010152600060207fffffffffffffffffffffffffffffffffffffffffffffffffffffffffffffffe0601f840116840101905092915050565b61ffff8816815273ffffffffffffffffffffffffffffffffffffffff8716602082015260a0604082015260006141f560a083018789614172565b85151560608401528281036080840152614210818587614172565b9a9950505050505050505050565b6000806040838503121561423157600080fd5b505080516020909101519092909150565b601f8211156110d257600081815260208120601f850160051c810160208610156142695750805b601f850160051c820191505b8181101561428857828155600101614275565b505050505050565b67ffffffffffffffff8311156142a8576142a8613810565b6142bc836142b683546140ae565b83614242565b6000601f84116001811461430e57600085156142d85750838201355b7fffffffffffffffffffffffffffffffffffffffffffffffffffffffffffffffff600387901b1c1916600186901b17835561150e565b6000838152602090207fffffffffffffffffffffffffffffffffffffffffffffffffffffffffffffffe0861690835b8281101561435d578685013582556020948501946001909201910161433d565b5086821015614398577fffffffffffffffffffffffffffffffffffffffffffffffffffffffffffffffff60f88860031b161c19848701351681555b505060018560011b0183555050505050565b60006040820173ffffffffffffffffffffffffffffffffffffffff851683526020604081850152818551808452606086019150828701935060005b81811015614401578451835293830193918301916001016143e5565b5090979650505050505050565b61ffff8616815273ffffffffffffffffffffffffffffffffffffffff8516602082015260a06040820152600061444760a0830186613a88565b841515606084015282810360808401526144618185613a88565b98975050505050505050565b61ffff8816815260c06020820152600061448b60c08301888a614172565b828103604084015261449d8188613a88565b73ffffffffffffffffffffffffffffffffffffffff87811660608601528616608085015283810360a085015290506142108185613a88565b600083516144e7818460208801613a5c565b8351908301906144fb818360208801613a5c565b01949350505050565b7f4e487b7100000000000000000000000000000000000000000000000000000000600052601260045260246000fd5b60008261454257614542614504565b500490565b60008261455657614556614504565b500690565b600073ffffffffffffffffffffffffffffffffffffffff80871683528086166020840152508360408301526080606083015261459a6080830184613a88565b9695505050505050565b6000602082840312156145b657600080fd5b8151611187816139aa56fea2646970667358221220fa36ead923669d71e789a9d8af97fbabb6dd0f812108741acce4c9edbaf25a0f64736f6c634300080f0033",
  "devdoc": {
    "kind": "dev",
    "methods": {
      "approve(address,uint256)": {
        "details": "See {IERC721-approve}."
      },
      "balanceOf(address)": {
        "details": "See {IERC721-balanceOf}."
      },
      "getApproved(uint256)": {
        "details": "See {IERC721-getApproved}."
      },
      "isApprovedForAll(address,address)": {
        "details": "See {IERC721-isApprovedForAll}."
      },
      "name()": {
        "details": "See {IERC721Metadata-name}."
      },
      "owner()": {
        "details": "Returns the address of the current owner."
      },
      "ownerOf(uint256)": {
        "details": "See {IERC721-ownerOf}."
      },
      "renounceOwnership()": {
        "details": "Leaves the contract without owner. It will not be possible to call `onlyOwner` functions anymore. Can only be called by the current owner. NOTE: Renouncing ownership will leave the contract without an owner, thereby removing any functionality that is only available to the owner."
      },
      "safeTransferFrom(address,address,uint256)": {
        "details": "See {IERC721-safeTransferFrom}."
      },
      "safeTransferFrom(address,address,uint256,bytes)": {
        "details": "See {IERC721-safeTransferFrom}."
      },
      "setApprovalForAll(address,bool)": {
        "details": "See {IERC721-setApprovalForAll}."
      },
      "supportsInterface(bytes4)": {
        "details": "See {IERC165-supportsInterface}."
      },
      "symbol()": {
        "details": "See {IERC721Metadata-symbol}."
      },
      "tokenURI(uint256)": {
        "details": "See {IERC721Metadata-tokenURI}."
      },
      "transferFrom(address,address,uint256)": {
        "details": "See {IERC721-transferFrom}."
      },
      "transferOwnership(address)": {
        "details": "Transfers ownership of the contract to a new account (`newOwner`). Can only be called by the current owner."
      }
    },
    "version": 1
  },
  "userdoc": {
    "kind": "user",
    "methods": {},
    "version": 1
  },
  "storageLayout": {
    "storage": [
      {
        "astId": 2585,
        "contract": "contracts/GovNFT.sol:GovNFT",
        "label": "_name",
        "offset": 0,
        "slot": "0",
        "type": "t_string_storage"
      },
      {
        "astId": 2587,
        "contract": "contracts/GovNFT.sol:GovNFT",
        "label": "_symbol",
        "offset": 0,
        "slot": "1",
        "type": "t_string_storage"
      },
      {
        "astId": 2591,
        "contract": "contracts/GovNFT.sol:GovNFT",
        "label": "_owners",
        "offset": 0,
        "slot": "2",
        "type": "t_mapping(t_uint256,t_address)"
      },
      {
        "astId": 2595,
        "contract": "contracts/GovNFT.sol:GovNFT",
        "label": "_balances",
        "offset": 0,
        "slot": "3",
        "type": "t_mapping(t_address,t_uint256)"
      },
      {
        "astId": 2599,
        "contract": "contracts/GovNFT.sol:GovNFT",
        "label": "_tokenApprovals",
        "offset": 0,
        "slot": "4",
        "type": "t_mapping(t_uint256,t_address)"
      },
      {
        "astId": 2605,
        "contract": "contracts/GovNFT.sol:GovNFT",
        "label": "_operatorApprovals",
        "offset": 0,
        "slot": "5",
        "type": "t_mapping(t_address,t_mapping(t_address,t_bool))"
      },
      {
        "astId": 400,
        "contract": "contracts/GovNFT.sol:GovNFT",
        "label": "_owner",
        "offset": 0,
        "slot": "6",
        "type": "t_address"
      },
      {
        "astId": 10963,
        "contract": "contracts/GovNFT.sol:GovNFT",
        "label": "_isTrustedForwarder",
        "offset": 0,
        "slot": "7",
        "type": "t_mapping(t_address,t_bool)"
      },
      {
        "astId": 5195,
        "contract": "contracts/GovNFT.sol:GovNFT",
        "label": "counter",
        "offset": 0,
        "slot": "8",
        "type": "t_uint256"
      },
      {
        "astId": 5197,
        "contract": "contracts/GovNFT.sol:GovNFT",
        "label": "totalSupply",
        "offset": 0,
        "slot": "9",
        "type": "t_uint256"
      },
      {
        "astId": 5203,
        "contract": "contracts/GovNFT.sol:GovNFT",
        "label": "gas",
        "offset": 0,
        "slot": "10",
        "type": "t_uint256"
      },
      {
        "astId": 5205,
        "contract": "contracts/GovNFT.sol:GovNFT",
        "label": "baseURI",
        "offset": 0,
        "slot": "11",
        "type": "t_string_storage"
      },
      {
        "astId": 5208,
        "contract": "contracts/GovNFT.sol:GovNFT",
        "label": "endpoint",
        "offset": 0,
        "slot": "12",
        "type": "t_contract(ILayerZeroEndpoint)9266"
      },
      {
        "astId": 5212,
        "contract": "contracts/GovNFT.sol:GovNFT",
        "label": "isTrustedAddress",
        "offset": 0,
        "slot": "13",
        "type": "t_mapping(t_address,t_bool)"
      },
      {
        "astId": 5994,
        "contract": "contracts/GovNFT.sol:GovNFT",
        "label": "assets",
        "offset": 0,
        "slot": "14",
        "type": "t_array(t_address)dyn_storage"
      },
      {
        "astId": 5998,
        "contract": "contracts/GovNFT.sol:GovNFT",
        "label": "_allowedAsset",
        "offset": 0,
        "slot": "15",
        "type": "t_mapping(t_address,t_bool)"
      },
      {
        "astId": 6002,
        "contract": "contracts/GovNFT.sol:GovNFT",
        "label": "assetsIndex",
        "offset": 0,
        "slot": "16",
        "type": "t_mapping(t_address,t_uint256)"
      },
      {
        "astId": 6008,
        "contract": "contracts/GovNFT.sol:GovNFT",
        "label": "userPaid",
        "offset": 0,
        "slot": "17",
        "type": "t_mapping(t_address,t_mapping(t_address,t_uint256))"
      },
      {
        "astId": 6014,
        "contract": "contracts/GovNFT.sol:GovNFT",
        "label": "userDebt",
        "offset": 0,
        "slot": "18",
        "type": "t_mapping(t_address,t_mapping(t_address,t_uint256))"
      },
      {
        "astId": 6018,
        "contract": "contracts/GovNFT.sol:GovNFT",
        "label": "accRewardsPerNFT",
        "offset": 0,
        "slot": "19",
        "type": "t_mapping(t_address,t_uint256)"
      }
    ],
    "types": {
      "t_address": {
        "encoding": "inplace",
        "label": "address",
        "numberOfBytes": "20"
      },
      "t_array(t_address)dyn_storage": {
        "base": "t_address",
        "encoding": "dynamic_array",
        "label": "address[]",
        "numberOfBytes": "32"
      },
      "t_bool": {
        "encoding": "inplace",
        "label": "bool",
        "numberOfBytes": "1"
      },
      "t_contract(ILayerZeroEndpoint)9266": {
        "encoding": "inplace",
        "label": "contract ILayerZeroEndpoint",
        "numberOfBytes": "20"
      },
      "t_mapping(t_address,t_bool)": {
        "encoding": "mapping",
        "key": "t_address",
        "label": "mapping(address => bool)",
        "numberOfBytes": "32",
        "value": "t_bool"
      },
      "t_mapping(t_address,t_mapping(t_address,t_bool))": {
        "encoding": "mapping",
        "key": "t_address",
        "label": "mapping(address => mapping(address => bool))",
        "numberOfBytes": "32",
        "value": "t_mapping(t_address,t_bool)"
      },
      "t_mapping(t_address,t_mapping(t_address,t_uint256))": {
        "encoding": "mapping",
        "key": "t_address",
        "label": "mapping(address => mapping(address => uint256))",
        "numberOfBytes": "32",
        "value": "t_mapping(t_address,t_uint256)"
      },
      "t_mapping(t_address,t_uint256)": {
        "encoding": "mapping",
        "key": "t_address",
        "label": "mapping(address => uint256)",
        "numberOfBytes": "32",
        "value": "t_uint256"
      },
      "t_mapping(t_uint256,t_address)": {
        "encoding": "mapping",
        "key": "t_uint256",
        "label": "mapping(uint256 => address)",
        "numberOfBytes": "32",
        "value": "t_address"
      },
      "t_string_storage": {
        "encoding": "bytes",
        "label": "string",
        "numberOfBytes": "32"
      },
      "t_uint256": {
        "encoding": "inplace",
        "label": "uint256",
        "numberOfBytes": "32"
      }
    }
  }
}