{
  "address": "0x1727FC1d930912FA075ff82741d9f50362350589",
  "abi": [
    {
      "inputs": [
        {
          "internalType": "contract IERC721",
          "name": "_nft",
          "type": "address"
        },
        {
          "internalType": "contract IERC20",
          "name": "_dai",
          "type": "address"
        }
      ],
      "stateMutability": "nonpayable",
      "type": "constructor"
    },
    {
      "anonymous": false,
      "inputs": [
        {
          "indexed": true,
          "internalType": "address",
          "name": "previousOwner",
          "type": "address"
        },
        {
          "indexed": true,
          "internalType": "address",
          "name": "newOwner",
          "type": "address"
        }
      ],
      "name": "OwnershipTransferred",
      "type": "event"
    },
    {
      "inputs": [],
      "name": "available",
      "outputs": [
        {
          "internalType": "uint256",
          "name": "",
          "type": "uint256"
        }
      ],
      "stateMutability": "view",
      "type": "function"
    },
    {
      "inputs": [
        {
          "internalType": "uint256",
          "name": "",
          "type": "uint256"
        }
      ],
      "name": "availableIds",
      "outputs": [
        {
          "internalType": "uint256",
          "name": "",
          "type": "uint256"
        }
      ],
      "stateMutability": "view",
      "type": "function"
    },
    {
      "inputs": [
        {
          "internalType": "uint256",
          "name": "_amount",
          "type": "uint256"
        }
      ],
      "name": "buy",
      "outputs": [],
      "stateMutability": "nonpayable",
      "type": "function"
    },
    {
      "inputs": [
        {
          "internalType": "address",
          "name": "_tigAsset",
          "type": "address"
        }
      ],
      "name": "claimPendingRev",
      "outputs": [],
      "stateMutability": "nonpayable",
      "type": "function"
    },
    {
      "inputs": [],
      "name": "dai",
      "outputs": [
        {
          "internalType": "contract IERC20",
          "name": "",
          "type": "address"
        }
      ],
      "stateMutability": "view",
      "type": "function"
    },
    {
      "inputs": [],
      "name": "nft",
      "outputs": [
        {
          "internalType": "contract IERC721",
          "name": "",
          "type": "address"
        }
      ],
      "stateMutability": "view",
      "type": "function"
    },
    {
      "inputs": [],
      "name": "owner",
      "outputs": [
        {
          "internalType": "address",
          "name": "",
          "type": "address"
        }
      ],
      "stateMutability": "view",
      "type": "function"
    },
    {
      "inputs": [],
      "name": "price",
      "outputs": [
        {
          "internalType": "uint256",
          "name": "",
          "type": "uint256"
        }
      ],
      "stateMutability": "view",
      "type": "function"
    },
    {
      "inputs": [],
      "name": "recoverDai",
      "outputs": [],
      "stateMutability": "nonpayable",
      "type": "function"
    },
    {
      "inputs": [],
      "name": "recoverNft",
      "outputs": [],
      "stateMutability": "nonpayable",
      "type": "function"
    },
    {
      "inputs": [],
      "name": "renounceOwnership",
      "outputs": [],
      "stateMutability": "nonpayable",
      "type": "function"
    },
    {
      "inputs": [
        {
          "internalType": "uint256[]",
          "name": "_ids",
          "type": "uint256[]"
        }
      ],
      "name": "setIds",
      "outputs": [],
      "stateMutability": "nonpayable",
      "type": "function"
    },
    {
      "inputs": [
        {
          "internalType": "uint256",
          "name": "_price",
          "type": "uint256"
        }
      ],
      "name": "setPrice",
      "outputs": [],
      "stateMutability": "nonpayable",
      "type": "function"
    },
    {
      "inputs": [
        {
          "internalType": "address",
          "name": "newOwner",
          "type": "address"
        }
      ],
      "name": "transferOwnership",
      "outputs": [],
      "stateMutability": "nonpayable",
      "type": "function"
    }
  ],
  "transactionHash": "0x4c0640381c67ffdd5ee532769a7cd6e2ba68ff2f1c5b54548318a35cf95b4280",
  "args": [
    "0x5DF98AA475D8815df7cd4fC4549B5c150e8505Be",
    "0x8f3Cf7ad23Cd3CaDbD9735AFf958023239c6A063"
  ],
  "numDeployments": 1,
  "solcInputHash": "f1a26774f44043eb13543b4553083334",
  "bytecode": "0x608060405234801561001057600080fd5b5060405161107a38038061107a83398101604081905261002f916100d1565b61003833610069565b600280546001600160a01b039384166001600160a01b0319918216179091556003805492909316911617905561010b565b600080546001600160a01b038381166001600160a01b0319831681178455604051919092169283917f8be0079c531659141344cd1fd0a4f28419497f9722a3daafe3b4186f6b6457e09190a35050565b6001600160a01b03811681146100ce57600080fd5b50565b600080604083850312156100e457600080fd5b82516100ef816100b9565b6020840151909250610100816100b9565b809150509250929050565b610f608061011a6000396000f3fe608060405234801561001057600080fd5b50600436106100ea5760003560e01c8063b45f900d1161008c578063d96a094a11610066578063d96a094a146101c9578063e2735fd1146101dc578063f2fde38b146101ef578063f4b9fa751461020257600080fd5b8063b45f900d146101a6578063c9b9ebb1146101ae578063d528d118146101b657600080fd5b80638da5cb5b116100c85780638da5cb5b1461015957806391b7f5ed14610177578063a035b1fe1461018a578063a80203761461019357600080fd5b806347ccca02146100ef57806348a0d75414610139578063715018a61461014f575b600080fd5b60025461010f9073ffffffffffffffffffffffffffffffffffffffff1681565b60405173ffffffffffffffffffffffffffffffffffffffff90911681526020015b60405180910390f35b610141610222565b604051908152602001610130565b6101576102ba565b005b60005473ffffffffffffffffffffffffffffffffffffffff1661010f565b610157610185366004610c3e565b6102ce565b61014160015481565b6101576101a1366004610c57565b6102db565b6101576104af565b61015761058f565b6101416101c4366004610c3e565b6106e3565b6101576101d7366004610c3e565b610704565b6101576101ea366004610c94565b6109e0565b6101576101fd366004610c57565b6109f9565b60035461010f9073ffffffffffffffffffffffffffffffffffffffff1681565b6002546040517f70a0823100000000000000000000000000000000000000000000000000000000815230600482015260009173ffffffffffffffffffffffffffffffffffffffff16906370a0823190602401602060405180830381865afa158015610291573d6000803e3d6000fd5b505050506040513d601f19601f820116820180604052508101906102b59190610d09565b905090565b6102c2610aad565b6102cc6000610b2e565b565b6102d6610aad565b600155565b6002546040517f1e83409a00000000000000000000000000000000000000000000000000000000815273ffffffffffffffffffffffffffffffffffffffff838116600483015290911690631e83409a90602401600060405180830381600087803b15801561034857600080fd5b505af115801561035c573d6000803e3d6000fd5b505050508073ffffffffffffffffffffffffffffffffffffffff1663a9059cbb61039b60005473ffffffffffffffffffffffffffffffffffffffff1690565b6040517f70a0823100000000000000000000000000000000000000000000000000000000815230600482015273ffffffffffffffffffffffffffffffffffffffff8516906370a0823190602401602060405180830381865afa158015610405573d6000803e3d6000fd5b505050506040513d601f19601f820116820180604052508101906104299190610d09565b6040517fffffffff0000000000000000000000000000000000000000000000000000000060e085901b16815273ffffffffffffffffffffffffffffffffffffffff90921660048301526024820152604401600060405180830381600087803b15801561049457600080fd5b505af11580156104a8573d6000803e3d6000fd5b5050505050565b6104b7610aad565b60025473ffffffffffffffffffffffffffffffffffffffff1663d6651c706104f460005473ffffffffffffffffffffffffffffffffffffffff1690565b60046040518363ffffffff1660e01b8152600401610513929190610d22565b600060405180830381600087803b15801561052d57600080fd5b505af1158015610541573d6000803e3d6000fd5b506000925061054e915050565b604051908082528060200260200182016040528015610577578160200160208202803683370190505b50805161058c91600491602090910190610ba3565b50565b60035473ffffffffffffffffffffffffffffffffffffffff1663a9059cbb6105cc60005473ffffffffffffffffffffffffffffffffffffffff1690565b6003546040517f70a0823100000000000000000000000000000000000000000000000000000000815230600482015273ffffffffffffffffffffffffffffffffffffffff909116906370a0823190602401602060405180830381865afa15801561063a573d6000803e3d6000fd5b505050506040513d601f19601f8201168201806040525081019061065e9190610d09565b6040517fffffffff0000000000000000000000000000000000000000000000000000000060e085901b16815273ffffffffffffffffffffffffffffffffffffffff90921660048301526024820152604401600060405180830381600087803b1580156106c957600080fd5b505af11580156106dd573d6000803e3d6000fd5b50505050565b600481815481106106f357600080fd5b600091825260209091200154905081565b600454811115610775576040517f08c379a000000000000000000000000000000000000000000000000000000000815260206004820152601360248201527f4e6f7420656e6f75676820666f722073616c650000000000000000000000000060448201526064015b60405180910390fd5b6000600154826107859190610de9565b60035490915073ffffffffffffffffffffffffffffffffffffffff166323b872dd336107c660005473ffffffffffffffffffffffffffffffffffffffff1690565b6040517fffffffff0000000000000000000000000000000000000000000000000000000060e085901b16815273ffffffffffffffffffffffffffffffffffffffff92831660048201529116602482015260448101849052606401600060405180830381600087803b15801561083a57600080fd5b505af115801561084e573d6000803e3d6000fd5b5050505060008267ffffffffffffffff81111561086d5761086d610d8b565b604051908082528060200260200182016040528015610896578160200160208202803683370190505b50905060005b8381101561090a57600480546001906108b6908490610e26565b6108c09190610e26565b815481106108d0576108d0610e3d565b90600052602060002001548282815181106108ed576108ed610e3d565b60209081029190910101528061090281610e6c565b91505061089c565b5060005b8381101561095057600480548061092757610927610ea4565b60019003818190600052602060002001600090559055808061094890610e6c565b91505061090e565b506002546040517fd6651c7000000000000000000000000000000000000000000000000000000000815273ffffffffffffffffffffffffffffffffffffffff9091169063d6651c70906109a99033908590600401610ed3565b600060405180830381600087803b1580156109c357600080fd5b505af11580156109d7573d6000803e3d6000fd5b50505050505050565b6109e8610aad565b6109f460048383610bee565b505050565b610a01610aad565b73ffffffffffffffffffffffffffffffffffffffff8116610aa4576040517f08c379a000000000000000000000000000000000000000000000000000000000815260206004820152602660248201527f4f776e61626c653a206e6577206f776e657220697320746865207a65726f206160448201527f6464726573730000000000000000000000000000000000000000000000000000606482015260840161076c565b61058c81610b2e565b60005473ffffffffffffffffffffffffffffffffffffffff1633146102cc576040517f08c379a000000000000000000000000000000000000000000000000000000000815260206004820181905260248201527f4f776e61626c653a2063616c6c6572206973206e6f7420746865206f776e6572604482015260640161076c565b6000805473ffffffffffffffffffffffffffffffffffffffff8381167fffffffffffffffffffffffff0000000000000000000000000000000000000000831681178455604051919092169283917f8be0079c531659141344cd1fd0a4f28419497f9722a3daafe3b4186f6b6457e09190a35050565b828054828255906000526020600020908101928215610bde579160200282015b82811115610bde578251825591602001919060010190610bc3565b50610bea929150610c29565b5090565b828054828255906000526020600020908101928215610bde579160200282015b82811115610bde578235825591602001919060010190610c0e565b5b80821115610bea5760008155600101610c2a565b600060208284031215610c5057600080fd5b5035919050565b600060208284031215610c6957600080fd5b813573ffffffffffffffffffffffffffffffffffffffff81168114610c8d57600080fd5b9392505050565b60008060208385031215610ca757600080fd5b823567ffffffffffffffff80821115610cbf57600080fd5b818501915085601f830112610cd357600080fd5b813581811115610ce257600080fd5b8660208260051b8501011115610cf757600080fd5b60209290920196919550909350505050565b600060208284031215610d1b57600080fd5b5051919050565b60006040820173ffffffffffffffffffffffffffffffffffffffff8516835260206040818501528185548084526060860191508660005282600020935060005b81811015610d7e57845483526001948501949284019201610d62565b5090979650505050505050565b7f4e487b7100000000000000000000000000000000000000000000000000000000600052604160045260246000fd5b7f4e487b7100000000000000000000000000000000000000000000000000000000600052601160045260246000fd5b6000817fffffffffffffffffffffffffffffffffffffffffffffffffffffffffffffffff0483118215151615610e2157610e21610dba565b500290565b600082821015610e3857610e38610dba565b500390565b7f4e487b7100000000000000000000000000000000000000000000000000000000600052603260045260246000fd5b60007fffffffffffffffffffffffffffffffffffffffffffffffffffffffffffffffff8203610e9d57610e9d610dba565b5060010190565b7f4e487b7100000000000000000000000000000000000000000000000000000000600052603160045260246000fd5b60006040820173ffffffffffffffffffffffffffffffffffffffff851683526020604081850152818551808452606086019150828701935060005b81811015610d7e57845183529383019391830191600101610f0e56fea2646970667358221220083e40f2b1dda69c1bf3b5cb08012ca82c391f91ebf30ecc810d7b7ac616034664736f6c634300080f0033",
  "devdoc": {
    "kind": "dev",
    "methods": {
      "owner()": {
        "details": "Returns the address of the current owner."
      },
      "renounceOwnership()": {
        "details": "Leaves the contract without owner. It will not be possible to call `onlyOwner` functions anymore. Can only be called by the current owner. NOTE: Renouncing ownership will leave the contract without an owner, thereby removing any functionality that is only available to the owner."
      },
      "transferOwnership(address)": {
        "details": "Transfers ownership of the contract to a new account (`newOwner`). Can only be called by the current owner."
      }
    },
    "version": 1
  },
  "userdoc": {
    "kind": "user",
    "methods": {},
    "version": 1
  },
  "storageLayout": {
    "storage": [
      {
        "astId": 400,
        "contract": "contracts/NFTSale.sol:NFTSale",
        "label": "_owner",
        "offset": 0,
        "slot": "0",
        "type": "t_address"
      },
      {
        "astId": 6301,
        "contract": "contracts/NFTSale.sol:NFTSale",
        "label": "price",
        "offset": 0,
        "slot": "1",
        "type": "t_uint256"
      },
      {
        "astId": 6304,
        "contract": "contracts/NFTSale.sol:NFTSale",
        "label": "nft",
        "offset": 0,
        "slot": "2",
        "type": "t_contract(IERC721)6273"
      },
      {
        "astId": 6307,
        "contract": "contracts/NFTSale.sol:NFTSale",
        "label": "dai",
        "offset": 0,
        "slot": "3",
        "type": "t_contract(IERC20)6297"
      },
      {
        "astId": 6310,
        "contract": "contracts/NFTSale.sol:NFTSale",
        "label": "availableIds",
        "offset": 0,
        "slot": "4",
        "type": "t_array(t_uint256)dyn_storage"
      }
    ],
    "types": {
      "t_address": {
        "encoding": "inplace",
        "label": "address",
        "numberOfBytes": "20"
      },
      "t_array(t_uint256)dyn_storage": {
        "base": "t_uint256",
        "encoding": "dynamic_array",
        "label": "uint256[]",
        "numberOfBytes": "32"
      },
      "t_contract(IERC20)6297": {
        "encoding": "inplace",
        "label": "contract IERC20",
        "numberOfBytes": "20"
      },
      "t_contract(IERC721)6273": {
        "encoding": "inplace",
        "label": "contract IERC721",
        "numberOfBytes": "20"
      },
      "t_uint256": {
        "encoding": "inplace",
        "label": "uint256",
        "numberOfBytes": "32"
      }
    }
  }
}