{
  "address": "0xBB323fE012BFA1728AF14941D09E479612b64281",
  "abi": [
    {
      "inputs": [
        {
          "internalType": "string",
          "name": "_setBaseURI",
          "type": "string"
        },
        {
          "internalType": "string",
          "name": "_name",
          "type": "string"
        },
        {
          "internalType": "string",
          "name": "_symbol",
          "type": "string"
        }
      ],
      "stateMutability": "nonpayable",
      "type": "constructor"
    },
    {
      "anonymous": false,
      "inputs": [
        {
          "indexed": true,
          "internalType": "address",
          "name": "owner",
          "type": "address"
        },
        {
          "indexed": true,
          "internalType": "address",
          "name": "approved",
          "type": "address"
        },
        {
          "indexed": true,
          "internalType": "uint256",
          "name": "tokenId",
          "type": "uint256"
        }
      ],
      "name": "Approval",
      "type": "event"
    },
    {
      "anonymous": false,
      "inputs": [
        {
          "indexed": true,
          "internalType": "address",
          "name": "owner",
          "type": "address"
        },
        {
          "indexed": true,
          "internalType": "address",
          "name": "operator",
          "type": "address"
        },
        {
          "indexed": false,
          "internalType": "bool",
          "name": "approved",
          "type": "bool"
        }
      ],
      "name": "ApprovalForAll",
      "type": "event"
    },
    {
      "anonymous": false,
      "inputs": [
        {
          "indexed": true,
          "internalType": "address",
          "name": "previousOwner",
          "type": "address"
        },
        {
          "indexed": true,
          "internalType": "address",
          "name": "newOwner",
          "type": "address"
        }
      ],
      "name": "OwnershipTransferred",
      "type": "event"
    },
    {
      "anonymous": false,
      "inputs": [
        {
          "indexed": true,
          "internalType": "address",
          "name": "from",
          "type": "address"
        },
        {
          "indexed": true,
          "internalType": "address",
          "name": "to",
          "type": "address"
        },
        {
          "indexed": true,
          "internalType": "uint256",
          "name": "tokenId",
          "type": "uint256"
        }
      ],
      "name": "Transfer",
      "type": "event"
    },
    {
      "inputs": [],
      "name": "DIVISION_CONSTANT",
      "outputs": [
        {
          "internalType": "uint256",
          "name": "",
          "type": "uint256"
        }
      ],
      "stateMutability": "view",
      "type": "function"
    },
    {
      "inputs": [
        {
          "internalType": "uint256",
          "name": "_id",
          "type": "uint256"
        },
        {
          "internalType": "uint256",
          "name": "_newMargin",
          "type": "uint256"
        },
        {
          "internalType": "uint256",
          "name": "_newPrice",
          "type": "uint256"
        }
      ],
      "name": "addToPosition",
      "outputs": [],
      "stateMutability": "nonpayable",
      "type": "function"
    },
    {
      "inputs": [
        {
          "internalType": "address",
          "name": "to",
          "type": "address"
        },
        {
          "internalType": "uint256",
          "name": "tokenId",
          "type": "uint256"
        }
      ],
      "name": "approve",
      "outputs": [],
      "stateMutability": "nonpayable",
      "type": "function"
    },
    {
      "inputs": [
        {
          "internalType": "uint256",
          "name": "_asset",
          "type": "uint256"
        }
      ],
      "name": "assetOpenPositions",
      "outputs": [
        {
          "internalType": "uint256[]",
          "name": "",
          "type": "uint256[]"
        }
      ],
      "stateMutability": "view",
      "type": "function"
    },
    {
      "inputs": [
        {
          "internalType": "uint256",
          "name": "_asset",
          "type": "uint256"
        },
        {
          "internalType": "uint256",
          "name": "_id",
          "type": "uint256"
        }
      ],
      "name": "assetOpenPositionsIndexes",
      "outputs": [
        {
          "internalType": "uint256",
          "name": "",
          "type": "uint256"
        }
      ],
      "stateMutability": "view",
      "type": "function"
    },
    {
      "inputs": [
        {
          "internalType": "uint256",
          "name": "_asset",
          "type": "uint256"
        }
      ],
      "name": "assetOpenPositionsLength",
      "outputs": [
        {
          "internalType": "uint256",
          "name": "",
          "type": "uint256"
        }
      ],
      "stateMutability": "view",
      "type": "function"
    },
    {
      "inputs": [
        {
          "internalType": "address",
          "name": "owner",
          "type": "address"
        }
      ],
      "name": "balanceOf",
      "outputs": [
        {
          "internalType": "uint256",
          "name": "",
          "type": "uint256"
        }
      ],
      "stateMutability": "view",
      "type": "function"
    },
    {
      "inputs": [],
      "name": "baseURI",
      "outputs": [
        {
          "internalType": "string",
          "name": "",
          "type": "string"
        }
      ],
      "stateMutability": "view",
      "type": "function"
    },
    {
      "inputs": [
        {
          "internalType": "uint256",
          "name": "_id",
          "type": "uint256"
        }
      ],
      "name": "burn",
      "outputs": [],
      "stateMutability": "nonpayable",
      "type": "function"
    },
    {
      "inputs": [
        {
          "internalType": "uint256",
          "name": "_id",
          "type": "uint256"
        },
        {
          "internalType": "uint256",
          "name": "_price",
          "type": "uint256"
        },
        {
          "internalType": "uint256",
          "name": "_newMargin",
          "type": "uint256"
        }
      ],
      "name": "executeLimitOrder",
      "outputs": [],
      "stateMutability": "nonpayable",
      "type": "function"
    },
    {
      "inputs": [
        {
          "internalType": "uint256",
          "name": "",
          "type": "uint256"
        },
        {
          "internalType": "address",
          "name": "",
          "type": "address"
        }
      ],
      "name": "fundingDeltaPerSec",
      "outputs": [
        {
          "internalType": "int256",
          "name": "",
          "type": "int256"
        }
      ],
      "stateMutability": "view",
      "type": "function"
    },
    {
      "inputs": [
        {
          "internalType": "uint256",
          "name": "tokenId",
          "type": "uint256"
        }
      ],
      "name": "getApproved",
      "outputs": [
        {
          "internalType": "address",
          "name": "",
          "type": "address"
        }
      ],
      "stateMutability": "view",
      "type": "function"
    },
    {
      "inputs": [],
      "name": "getCount",
      "outputs": [
        {
          "internalType": "uint256",
          "name": "",
          "type": "uint256"
        }
      ],
      "stateMutability": "view",
      "type": "function"
    },
    {
      "inputs": [
        {
          "internalType": "address",
          "name": "owner",
          "type": "address"
        },
        {
          "internalType": "address",
          "name": "operator",
          "type": "address"
        }
      ],
      "name": "isApprovedForAll",
      "outputs": [
        {
          "internalType": "bool",
          "name": "",
          "type": "bool"
        }
      ],
      "stateMutability": "view",
      "type": "function"
    },
    {
      "inputs": [
        {
          "internalType": "address",
          "name": "_address",
          "type": "address"
        }
      ],
      "name": "isMinter",
      "outputs": [
        {
          "internalType": "bool",
          "name": "",
          "type": "bool"
        }
      ],
      "stateMutability": "view",
      "type": "function"
    },
    {
      "inputs": [
        {
          "internalType": "address",
          "name": "_forwarder",
          "type": "address"
        }
      ],
      "name": "isTrustedForwarder",
      "outputs": [
        {
          "internalType": "bool",
          "name": "",
          "type": "bool"
        }
      ],
      "stateMutability": "view",
      "type": "function"
    },
    {
      "inputs": [
        {
          "internalType": "uint256",
          "name": "_asset",
          "type": "uint256"
        },
        {
          "internalType": "uint256",
          "name": "_id",
          "type": "uint256"
        }
      ],
      "name": "limitOrderIndexes",
      "outputs": [
        {
          "internalType": "uint256",
          "name": "",
          "type": "uint256"
        }
      ],
      "stateMutability": "view",
      "type": "function"
    },
    {
      "inputs": [
        {
          "internalType": "uint256",
          "name": "_asset",
          "type": "uint256"
        }
      ],
      "name": "limitOrders",
      "outputs": [
        {
          "internalType": "uint256[]",
          "name": "",
          "type": "uint256[]"
        }
      ],
      "stateMutability": "view",
      "type": "function"
    },
    {
      "inputs": [
        {
          "internalType": "uint256",
          "name": "_asset",
          "type": "uint256"
        }
      ],
      "name": "limitOrdersLength",
      "outputs": [
        {
          "internalType": "uint256",
          "name": "",
          "type": "uint256"
        }
      ],
      "stateMutability": "view",
      "type": "function"
    },
    {
      "inputs": [
        {
          "components": [
            {
              "internalType": "address",
              "name": "account",
              "type": "address"
            },
            {
              "internalType": "uint256",
              "name": "margin",
              "type": "uint256"
            },
            {
              "internalType": "uint256",
              "name": "leverage",
              "type": "uint256"
            },
            {
              "internalType": "uint256",
              "name": "asset",
              "type": "uint256"
            },
            {
              "internalType": "bool",
              "name": "direction",
              "type": "bool"
            },
            {
              "internalType": "uint256",
              "name": "price",
              "type": "uint256"
            },
            {
              "internalType": "uint256",
              "name": "tp",
              "type": "uint256"
            },
            {
              "internalType": "uint256",
              "name": "sl",
              "type": "uint256"
            },
            {
              "internalType": "uint256",
              "name": "orderType",
              "type": "uint256"
            },
            {
              "internalType": "address",
              "name": "tigAsset",
              "type": "address"
            }
          ],
          "internalType": "struct IPosition.MintTrade",
          "name": "_mintTrade",
          "type": "tuple"
        }
      ],
      "name": "mint",
      "outputs": [],
      "stateMutability": "nonpayable",
      "type": "function"
    },
    {
      "inputs": [
        {
          "internalType": "uint256",
          "name": "_id",
          "type": "uint256"
        },
        {
          "internalType": "uint256",
          "name": "_newMargin",
          "type": "uint256"
        },
        {
          "internalType": "uint256",
          "name": "_newLeverage",
          "type": "uint256"
        }
      ],
      "name": "modifyMargin",
      "outputs": [],
      "stateMutability": "nonpayable",
      "type": "function"
    },
    {
      "inputs": [
        {
          "internalType": "uint256",
          "name": "_id",
          "type": "uint256"
        },
        {
          "internalType": "uint256",
          "name": "_slPrice",
          "type": "uint256"
        }
      ],
      "name": "modifySl",
      "outputs": [],
      "stateMutability": "nonpayable",
      "type": "function"
    },
    {
      "inputs": [
        {
          "internalType": "uint256",
          "name": "_id",
          "type": "uint256"
        },
        {
          "internalType": "uint256",
          "name": "_tpPrice",
          "type": "uint256"
        }
      ],
      "name": "modifyTp",
      "outputs": [],
      "stateMutability": "nonpayable",
      "type": "function"
    },
    {
      "inputs": [],
      "name": "name",
      "outputs": [
        {
          "internalType": "string",
          "name": "",
          "type": "string"
        }
      ],
      "stateMutability": "view",
      "type": "function"
    },
    {
      "inputs": [],
      "name": "openPositions",
      "outputs": [
        {
          "internalType": "uint256[]",
          "name": "",
          "type": "uint256[]"
        }
      ],
      "stateMutability": "view",
      "type": "function"
    },
    {
      "inputs": [
        {
          "internalType": "uint256",
          "name": "_id",
          "type": "uint256"
        }
      ],
      "name": "openPositionsIndexes",
      "outputs": [
        {
          "internalType": "uint256",
          "name": "",
          "type": "uint256"
        }
      ],
      "stateMutability": "view",
      "type": "function"
    },
    {
      "inputs": [
        {
          "internalType": "uint256",
          "name": "_from",
          "type": "uint256"
        },
        {
          "internalType": "uint256",
          "name": "_to",
          "type": "uint256"
        }
      ],
      "name": "openPositionsSelection",
      "outputs": [
        {
          "internalType": "uint256[]",
          "name": "",
          "type": "uint256[]"
        }
      ],
      "stateMutability": "view",
      "type": "function"
    },
    {
      "inputs": [],
      "name": "owner",
      "outputs": [
        {
          "internalType": "address",
          "name": "",
          "type": "address"
        }
      ],
      "stateMutability": "view",
      "type": "function"
    },
    {
      "inputs": [
        {
          "internalType": "uint256",
          "name": "_id",
          "type": "uint256"
        }
      ],
      "name": "ownerOf",
      "outputs": [
        {
          "internalType": "address",
          "name": "",
          "type": "address"
        }
      ],
      "stateMutability": "view",
      "type": "function"
    },
    {
      "inputs": [
        {
          "internalType": "uint256",
          "name": "_id",
          "type": "uint256"
        },
        {
          "internalType": "uint256",
          "name": "_percent",
          "type": "uint256"
        }
      ],
      "name": "reducePosition",
      "outputs": [],
      "stateMutability": "nonpayable",
      "type": "function"
    },
    {
      "inputs": [],
      "name": "renounceOwnership",
      "outputs": [],
      "stateMutability": "nonpayable",
      "type": "function"
    },
    {
      "inputs": [
        {
          "internalType": "address",
          "name": "from",
          "type": "address"
        },
        {
          "internalType": "address",
          "name": "to",
          "type": "address"
        },
        {
          "internalType": "uint256",
          "name": "tokenId",
          "type": "uint256"
        }
      ],
      "name": "safeTransferFrom",
      "outputs": [],
      "stateMutability": "nonpayable",
      "type": "function"
    },
    {
      "inputs": [
        {
          "internalType": "address",
          "name": "from",
          "type": "address"
        },
        {
          "internalType": "address",
          "name": "to",
          "type": "address"
        },
        {
          "internalType": "uint256",
          "name": "tokenId",
          "type": "uint256"
        },
        {
          "internalType": "bytes",
          "name": "data",
          "type": "bytes"
        }
      ],
      "name": "safeTransferFrom",
      "outputs": [],
      "stateMutability": "nonpayable",
      "type": "function"
    },
    {
      "inputs": [
        {
          "internalType": "uint256",
          "name": "_id",
          "type": "uint256"
        }
      ],
      "name": "setAccInterest",
      "outputs": [],
      "stateMutability": "nonpayable",
      "type": "function"
    },
    {
      "inputs": [
        {
          "internalType": "address",
          "name": "operator",
          "type": "address"
        },
        {
          "internalType": "bool",
          "name": "approved",
          "type": "bool"
        }
      ],
      "name": "setApprovalForAll",
      "outputs": [],
      "stateMutability": "nonpayable",
      "type": "function"
    },
    {
      "inputs": [
        {
          "internalType": "string",
          "name": "_newBaseURI",
          "type": "string"
        }
      ],
      "name": "setBaseURI",
      "outputs": [],
      "stateMutability": "nonpayable",
      "type": "function"
    },
    {
      "inputs": [
        {
          "internalType": "address",
          "name": "_minter",
          "type": "address"
        },
        {
          "internalType": "bool",
          "name": "_bool",
          "type": "bool"
        }
      ],
      "name": "setMinter",
      "outputs": [],
      "stateMutability": "nonpayable",
      "type": "function"
    },
    {
      "inputs": [
        {
          "internalType": "address",
          "name": "_forwarder",
          "type": "address"
        },
        {
          "internalType": "bool",
          "name": "_bool",
          "type": "bool"
        }
      ],
      "name": "setTrustedForwarder",
      "outputs": [],
      "stateMutability": "nonpayable",
      "type": "function"
    },
    {
      "inputs": [
        {
          "internalType": "bytes4",
          "name": "interfaceId",
          "type": "bytes4"
        }
      ],
      "name": "supportsInterface",
      "outputs": [
        {
          "internalType": "bool",
          "name": "",
          "type": "bool"
        }
      ],
      "stateMutability": "view",
      "type": "function"
    },
    {
      "inputs": [],
      "name": "symbol",
      "outputs": [
        {
          "internalType": "string",
          "name": "",
          "type": "string"
        }
      ],
      "stateMutability": "view",
      "type": "function"
    },
    {
      "inputs": [
        {
          "internalType": "uint256",
          "name": "index",
          "type": "uint256"
        }
      ],
      "name": "tokenByIndex",
      "outputs": [
        {
          "internalType": "uint256",
          "name": "",
          "type": "uint256"
        }
      ],
      "stateMutability": "view",
      "type": "function"
    },
    {
      "inputs": [
        {
          "internalType": "address",
          "name": "owner",
          "type": "address"
        },
        {
          "internalType": "uint256",
          "name": "index",
          "type": "uint256"
        }
      ],
      "name": "tokenOfOwnerByIndex",
      "outputs": [
        {
          "internalType": "uint256",
          "name": "",
          "type": "uint256"
        }
      ],
      "stateMutability": "view",
      "type": "function"
    },
    {
      "inputs": [
        {
          "internalType": "uint256",
          "name": "tokenId",
          "type": "uint256"
        }
      ],
      "name": "tokenURI",
      "outputs": [
        {
          "internalType": "string",
          "name": "",
          "type": "string"
        }
      ],
      "stateMutability": "view",
      "type": "function"
    },
    {
      "inputs": [],
      "name": "totalSupply",
      "outputs": [
        {
          "internalType": "uint256",
          "name": "",
          "type": "uint256"
        }
      ],
      "stateMutability": "view",
      "type": "function"
    },
    {
      "inputs": [
        {
          "internalType": "uint256",
          "name": "_id",
          "type": "uint256"
        }
      ],
      "name": "trades",
      "outputs": [
        {
          "components": [
            {
              "internalType": "uint256",
              "name": "margin",
              "type": "uint256"
            },
            {
              "internalType": "uint256",
              "name": "leverage",
              "type": "uint256"
            },
            {
              "internalType": "uint256",
              "name": "asset",
              "type": "uint256"
            },
            {
              "internalType": "bool",
              "name": "direction",
              "type": "bool"
            },
            {
              "internalType": "uint256",
              "name": "price",
              "type": "uint256"
            },
            {
              "internalType": "uint256",
              "name": "tpPrice",
              "type": "uint256"
            },
            {
              "internalType": "uint256",
              "name": "slPrice",
              "type": "uint256"
            },
            {
              "internalType": "uint256",
              "name": "orderType",
              "type": "uint256"
            },
            {
              "internalType": "address",
              "name": "trader",
              "type": "address"
            },
            {
              "internalType": "uint256",
              "name": "id",
              "type": "uint256"
            },
            {
              "internalType": "address",
              "name": "tigAsset",
              "type": "address"
            },
            {
              "internalType": "int256",
              "name": "accInterest",
              "type": "int256"
            }
          ],
          "internalType": "struct IPosition.Trade",
          "name": "",
          "type": "tuple"
        }
      ],
      "stateMutability": "view",
      "type": "function"
    },
    {
      "inputs": [
        {
          "internalType": "address",
          "name": "from",
          "type": "address"
        },
        {
          "internalType": "address",
          "name": "to",
          "type": "address"
        },
        {
          "internalType": "uint256",
          "name": "tokenId",
          "type": "uint256"
        }
      ],
      "name": "transferFrom",
      "outputs": [],
      "stateMutability": "nonpayable",
      "type": "function"
    },
    {
      "inputs": [
        {
          "internalType": "address",
          "name": "newOwner",
          "type": "address"
        }
      ],
      "name": "transferOwnership",
      "outputs": [],
      "stateMutability": "nonpayable",
      "type": "function"
    },
    {
      "inputs": [
        {
          "internalType": "uint256",
          "name": "_asset",
          "type": "uint256"
        },
        {
          "internalType": "address",
          "name": "_tigAsset",
          "type": "address"
        },
        {
          "internalType": "uint256",
          "name": "_longOi",
          "type": "uint256"
        },
        {
          "internalType": "uint256",
          "name": "_shortOi",
          "type": "uint256"
        },
        {
          "internalType": "uint256",
          "name": "_baseFundingRate",
          "type": "uint256"
        },
        {
          "internalType": "uint256",
          "name": "_vaultFundingPercent",
          "type": "uint256"
        }
      ],
      "name": "updateFunding",
      "outputs": [],
      "stateMutability": "nonpayable",
      "type": "function"
    },
    {
      "inputs": [
        {
          "internalType": "address",
          "name": "_user",
          "type": "address"
        }
      ],
      "name": "userTrades",
      "outputs": [
        {
          "internalType": "uint256[]",
          "name": "",
          "type": "uint256[]"
        }
      ],
      "stateMutability": "view",
      "type": "function"
    },
    {
      "inputs": [
        {
          "internalType": "uint256",
          "name": "",
          "type": "uint256"
        },
        {
          "internalType": "address",
          "name": "",
          "type": "address"
        }
      ],
      "name": "vaultFundingPercent",
      "outputs": [
        {
          "internalType": "uint256",
          "name": "",
          "type": "uint256"
        }
      ],
      "stateMutability": "view",
      "type": "function"
    }
  ],
  "transactionHash": "0x33049f5a3a6c357bd71fd3b04ab93ed5b8d8218873c8698bd3cd9be9ce3e9725",
  "args": [
    "",
    "Tigris Position NFT",
    "Tigris Position NFT"
  ],
  "numDeployments": 1,
  "solcInputHash": "710bcf1bfa15842ad8333fd2e3fedacf",
  "bytecode": "0x60806040523480156200001157600080fd5b50604051620053513803806200535183398101604081905262000034916200021a565b818160006200004483826200033a565b5060016200005382826200033a565b505050620000706200006a6200009f60201b60201c565b620000bb565b601c6200007e84826200033a565b5062000096601b6200010d60201b620031a81760201c565b50505062000406565b6000620000b66200011660201b620031b11760201c565b905090565b600a80546001600160a01b038381166001600160a01b0319831681179093556040519116919082907f8be0079c531659141344cd1fd0a4f28419497f9722a3daafe3b4186f6b6457e090600090a35050565b80546001019055565b336000908152600b602052604081205460ff16156200013c575060131936013560601c90565b620000b66200015160201b620031f91760201c565b3390565b634e487b7160e01b600052604160045260246000fd5b600082601f8301126200017d57600080fd5b81516001600160401b03808211156200019a576200019a62000155565b604051601f8301601f19908116603f01168101908282118183101715620001c557620001c562000155565b81604052838152602092508683858801011115620001e257600080fd5b600091505b83821015620002065785820183015181830184015290820190620001e7565b600093810190920192909252949350505050565b6000806000606084860312156200023057600080fd5b83516001600160401b03808211156200024857600080fd5b62000256878388016200016b565b945060208601519150808211156200026d57600080fd5b6200027b878388016200016b565b935060408601519150808211156200029257600080fd5b50620002a1868287016200016b565b9150509250925092565b600181811c90821680620002c057607f821691505b602082108103620002e157634e487b7160e01b600052602260045260246000fd5b50919050565b601f8211156200033557600081815260208120601f850160051c81016020861015620003105750805b601f850160051c820191505b8181101562000331578281556001016200031c565b5050505b505050565b81516001600160401b0381111562000356576200035662000155565b6200036e81620003678454620002ab565b84620002e7565b602080601f831160018114620003a657600084156200038d5750858301515b600019600386901b1c1916600185901b17855562000331565b600085815260208120601f198616915b82811015620003d757888601518255948401946001909101908401620003b6565b5085821015620003f65787850151600019600388901b60f8161c191681555b5050505050600190811b01905550565b614f3b80620004166000396000f3fe608060405234801561001057600080fd5b50600436106103365760003560e01c8063715018a6116101b2578063aa271e1a116100f9578063cd19210b116100a2578063db3ab0ba1161007c578063db3ab0ba1461079c578063e691d03b146107af578063e985e9c5146107c2578063f2fde38b1461080b57600080fd5b8063cd19210b1461074b578063cf456ae714610776578063d19a8a4a1461078957600080fd5b8063c42e74ae116100d3578063c42e74ae14610705578063c87b56dd14610730578063cc35b4901461074357600080fd5b8063aa271e1a146106a6578063b88d4fde146106df578063be3fef46146106f257600080fd5b8063a22cb4651161015b578063a550a8be11610135578063a550a8be1461066b578063a87d942c1461067e578063a933574a1461068657600080fd5b8063a22cb46514610639578063a3e2b4951461064c578063a48134881461065f57600080fd5b80638da5cb5b1161018c5780638da5cb5b146105f357806395d89b41146106115780639add4e5f1461061957600080fd5b8063715018a6146105c557806375a0b6dd146105cd5780637d720f8f146105e057600080fd5b806342842e0e11610281578063572b6c051161022a5780636a1f47bc116102045780636a1f47bc146105845780636a6ae606146105975780636c0360eb146105aa57806370a08231146105b257600080fd5b8063572b6c05146105255780635fdb05f31461055e5780636352211e1461057157600080fd5b80634a6907e91161025b5780634a6907e9146104ec5780634f6ccce7146104ff57806355f804b31461051257600080fd5b806342842e0e146104a657806342966c68146104b957806344d61f38146104cc57600080fd5b80631e6c598e116102e35780632f745c59116102bd5780632f745c591461045557806336d9ebf9146104685780633bf6f3af1461047b57600080fd5b80631e6c598e1461040257806323b872dd146104225780632a1190201461043557600080fd5b8063095ea7b311610314578063095ea7b3146103b057806318160ddd146103c55780631df3d4a3146103d757600080fd5b806301ffc9a71461033b57806306fdde0314610363578063081812fc14610378575b600080fd5b61034e610349366004614448565b61081e565b60405190151581526020015b60405180910390f35b61036b61087a565b60405161035a91906144d3565b61038b6103863660046144e6565b61090c565b60405173ffffffffffffffffffffffffffffffffffffffff909116815260200161035a565b6103c36103be366004614528565b610940565b005b6008545b60405190815260200161035a565b6103c96103e5366004614552565b600091825260126020908152604080842092845291905290205490565b6104156104103660046144e6565b610af0565b60405161035a9190614574565b6103c3610430366004614639565b61108a565b6104486104433660046144e6565b611132565b60405161035a9190614675565b6103c9610463366004614528565b611194565b6103c36104763660046146b9565b611263565b6103c96104893660046146e5565b600c60209081526000928352604080842090915290825290205481565b6103c36104b4366004614639565b6113ba565b6103c36104c73660046144e6565b6113d5565b6103c96104da3660046144e6565b60009081526013602052604090205490565b6103c36104fa3660046146b9565b61187d565b6103c961050d3660046144e6565b611931565b6103c36105203660046147fe565b6119ef565b61034e610533366004614847565b73ffffffffffffffffffffffffffffffffffffffff166000908152600b602052604090205460ff1690565b6103c361056c366004614552565b611a07565b61038b61057f3660046144e6565b611ab8565b6103c36105923660046144e6565b611ac3565b6104486105a5366004614847565b611b82565b61036b611c1f565b6103c96105c0366004614847565b611cad565b6103c3611d7b565b6103c36105db366004614552565b611d8f565b6103c36105ee366004614872565b611f80565b600a5473ffffffffffffffffffffffffffffffffffffffff1661038b565b61036b6122ce565b6103c96106273660046144e6565b60009081526011602052604090205490565b6103c361064736600461490a565b6122dd565b61044861065a3660046144e6565b6122ef565b6103c96402540be40081565b610448610679366004614552565b61234f565b6103c961240b565b6103c96106943660046144e6565b60009081526010602052604090205490565b61034e6106b4366004614847565b73ffffffffffffffffffffffffffffffffffffffff166000908152600d602052604090205460ff1690565b6103c36106ed366004614934565b61241b565b6103c36107003660046149b0565b6124ca565b6103c9610713366004614552565b600091825260146020908152604080842092845291905290205490565b61036b61073e3660046144e6565b612b77565b610448612bde565b6103c96107593660046146e5565b601560209081526000928352604080842090915290825290205481565b6103c361078436600461490a565b612c35565b6103c36107973660046146b9565b612c93565b6103c36107aa366004614552565b612fe2565b6103c36107bd36600461490a565b613093565b61034e6107d03660046149fe565b73ffffffffffffffffffffffffffffffffffffffff918216600090815260056020908152604080832093909416825291909152205460ff1690565b6103c3610819366004614847565b6130f1565b60007fffffffff0000000000000000000000000000000000000000000000000000000082167f780e9d630000000000000000000000000000000000000000000000000000000014806108745750610874826131fd565b92915050565b60606000805461088990614a28565b80601f01602080910402602001604051908101604052809291908181526020018280546108b590614a28565b80156109025780601f106108d757610100808354040283529160200191610902565b820191906000526020600020905b8154815290600101906020018083116108e557829003601f168201915b5050505050905090565b6000610917826132e0565b5060009081526004602052604090205473ffffffffffffffffffffffffffffffffffffffff1690565b600061094b8261336b565b90508073ffffffffffffffffffffffffffffffffffffffff168373ffffffffffffffffffffffffffffffffffffffff1603610a0d576040517f08c379a000000000000000000000000000000000000000000000000000000000815260206004820152602160248201527f4552433732313a20617070726f76616c20746f2063757272656e74206f776e6560448201527f720000000000000000000000000000000000000000000000000000000000000060648201526084015b60405180910390fd5b8073ffffffffffffffffffffffffffffffffffffffff16610a2c6133f7565b73ffffffffffffffffffffffffffffffffffffffff161480610a555750610a55816107d06133f7565b610ae1576040517f08c379a000000000000000000000000000000000000000000000000000000000815260206004820152603e60248201527f4552433732313a20617070726f76652063616c6c6572206973206e6f7420746f60448201527f6b656e206f776e6572206e6f7220617070726f76656420666f7220616c6c00006064820152608401610a04565b610aeb8383613401565b505050565b610b8260405180610180016040528060008152602001600081526020016000815260200160001515815260200160008152602001600081526020016000815260200160008152602001600073ffffffffffffffffffffffffffffffffffffffff16815260200160008152602001600073ffffffffffffffffffffffffffffffffffffffff168152602001600081525090565b6000828152600e602090815260409182902082516101808101845281548152600182015492810192909252600281015492820192909252600382015460ff161515606082015260048201546080820152600582015460a0820152600682015460c0820152600782015460e0820152600882015473ffffffffffffffffffffffffffffffffffffffff9081166101008301526009830154610120830152600a83015416610140820152600b90910154610160820152610c3f83611ab8565b73ffffffffffffffffffffffffffffffffffffffff1661010082015260e081015115610c6b5792915050565b600081606001518015610cb3575060408083015160009081526019602090815282822061014086015173ffffffffffffffffffffffffffffffffffffffff1683529052205415155b15610e2257604080830180516000908152601960209081528382206101408701805173ffffffffffffffffffffffffffffffffffffffff908116855291835285842054855185526015845286852082518416865284528685205495518552601784528685209151909216845290915292902054610d309042614aaa565b610d3a9190614abd565b610d4c90670de0b6b3a7640000614abd565b610d569190614b38565b604080840180516000908152601a60209081528382206101408801805173ffffffffffffffffffffffffffffffffffffffff908116855291835285842054945184526019835285842090519091168352905291909120549192501015610dc657610dbf81614ba0565b9050610fc4565b6040808301516000908152600c602090815282822061014086015173ffffffffffffffffffffffffffffffffffffffff168352905220546402540be40090610e0e9082614aaa565b610e189083614abd565b610dbf9190614b38565b6040808301516000908152601a602090815282822061014086015173ffffffffffffffffffffffffffffffffffffffff1683529052205415610fc457604080830180516000908152601a60209081528382206101408701805173ffffffffffffffffffffffffffffffffffffffff908116855291835285842054855185526015845286852082518416865284528685205495518552601784528685209151909216845290915292902054610ed69042614aaa565b610ee09190614abd565b610ef290670de0b6b3a7640000614abd565b610efc9190614b38565b604080840180516000908152601960209081528382206101408801805173ffffffffffffffffffffffffffffffffffffffff90811685529183528584205494518452601a835285842090519091168352905291909120549192501015610f6557610dbf81614ba0565b6040808301516000908152600c602090815282822061014086015173ffffffffffffffffffffffffffffffffffffffff168352905220546402540be40090610fad9082614aaa565b610fb79083614abd565b610fc19190614b38565b90505b6000848152601860209081526040808320548582015184526016835281842061014087015173ffffffffffffffffffffffffffffffffffffffff168552835281842060608701511515855290925290912054670de0b6b3a76400009061102b908490614bd8565b60208501518551670de0b6b3a76400009161104591614c00565b61104f9190614c17565b6110599190614abd565b6110639190614b38565b61106d9190614c2b565b826101600181815161107f9190614bd8565b905250909392505050565b61109b6110956133f7565b826134a1565b611127576040517f08c379a000000000000000000000000000000000000000000000000000000000815260206004820152602e60248201527f4552433732313a2063616c6c6572206973206e6f7420746f6b656e206f776e6560448201527f72206e6f7220617070726f7665640000000000000000000000000000000000006064820152608401610a04565b610aeb838383613561565b60008181526011602090815260409182902080548351818402810184019094528084526060939283018282801561118857602002820191906000526020600020905b815481526020019060010190808311611174575b50505050509050919050565b600061119f83611cad565b821061122d576040517f08c379a000000000000000000000000000000000000000000000000000000000815260206004820152602b60248201527f455243373231456e756d657261626c653a206f776e657220696e646578206f7560448201527f74206f6620626f756e64730000000000000000000000000000000000000000006064820152608401610a04565b5073ffffffffffffffffffffffffffffffffffffffff919091166000908152600660209081526040808320938352929052205490565b600d600061126f6133f7565b73ffffffffffffffffffffffffffffffffffffffff16815260208101919091526040016000205460ff166112ff576040517f08c379a000000000000000000000000000000000000000000000000000000000815260206004820152600760248201527f214d696e746572000000000000000000000000000000000000000000000000006044820152606401610a04565b6000838152600e602052604090208281556004810182905560010154670de0b6b3a76400009081906113319085614c00565b61133b9190614c17565b6000858152600e602090815260408083206002810154845260168352818420600a82015473ffffffffffffffffffffffffffffffffffffffff168552835281842060039091015460ff16151584529091529020546113999190614abd565b6113a39190614b38565b600093845260186020526040909320929092555050565b610aeb8383836040518060200160405280600081525061241b565b600d60006113e16133f7565b73ffffffffffffffffffffffffffffffffffffffff16815260208101919091526040016000205460ff16611471576040517f08c379a000000000000000000000000000000000000000000000000000000000815260206004820152600760248201527f214d696e746572000000000000000000000000000000000000000000000000006044820152606401610a04565b61147a816137d3565b6000818152600e602052604090206002810154600790910154156115c05760008181526014602090815260408083208584528083528184205485855260139093529083208054929391926114d090600190614aaa565b815481106114e0576114e0614c4b565b6000918252602080832090910154835282810193909352604091820181209390935583835260139091529020805461151a90600190614aaa565b8154811061152a5761152a614c4b565b600091825260208083209091015483835260138252604080842060148452818520878652909352909220548154811061156557611565614c4b565b600091825260208083209091019290925582815260148252604080822085835283528082208290558382526013909252208054806115a5576115a5614c7a565b600190038181906000526020600020016000905590556117d2565b60008181526012602090815260408083208584528083528184205485855260119093529083208054929391926115f890600190614aaa565b8154811061160857611608614c4b565b6000918252602080832090910154835282810193909352604091820181209390935583835260119091529020805461164290600190614aaa565b8154811061165257611652614c4b565b600091825260208083209091015483835260118252604080842060128452818520878652909352909220548154811061168d5761168d614c4b565b600091825260208083209091019290925582815260128252604080822085835283528082208290558382526011909252208054806116cd576116cd614c7a565b60019003818190600052602060002001600090559055601060008381526020019081526020016000205460106000600f6001600f8054905061170f9190614aaa565b8154811061171f5761171f614c4b565b60009182526020808320909101548352820192909252604001902055600f805461174b90600190614aaa565b8154811061175b5761175b614c4b565b9060005260206000200154600f60106000858152602001908152602001600020548154811061178c5761178c614c4b565b600091825260208083209091019290925583815260109091526040812055600f8054806117bb576117bb614c7a565b600190038181906000526020600020016000905590555b506000908152600e6020526040812081815560018101829055600281018290556003810180547fffffffffffffffffffffffffffffffffffffffffffffffffffffffffffffff00169055600481018290556005810182905560068101829055600781018290556008810180547fffffffffffffffffffffffff000000000000000000000000000000000000000090811690915560098201839055600a820180549091169055600b0155565b600d60006118896133f7565b73ffffffffffffffffffffffffffffffffffffffff16815260208101919091526040016000205460ff16611919576040517f08c379a000000000000000000000000000000000000000000000000000000000815260206004820152600760248201527f214d696e746572000000000000000000000000000000000000000000000000006044820152606401610a04565b6000928352600e602052604090922090815560010155565b600061193c60085490565b82106119ca576040517f08c379a000000000000000000000000000000000000000000000000000000000815260206004820152602c60248201527f455243373231456e756d657261626c653a20676c6f62616c20696e646578206f60448201527f7574206f6620626f756e647300000000000000000000000000000000000000006064820152608401610a04565b600882815481106119dd576119dd614c4b565b90600052602060002001549050919050565b6119f76138ac565b601c611a038282614cf7565b5050565b600d6000611a136133f7565b73ffffffffffffffffffffffffffffffffffffffff16815260208101919091526040016000205460ff16611aa3576040517f08c379a000000000000000000000000000000000000000000000000000000000815260206004820152600760248201527f214d696e746572000000000000000000000000000000000000000000000000006044820152606401610a04565b6000918252600e602052604090912060050155565b60006108748261336b565b600d6000611acf6133f7565b73ffffffffffffffffffffffffffffffffffffffff16815260208101919091526040016000205460ff16611b5f576040517f08c379a000000000000000000000000000000000000000000000000000000000815260206004820152600760248201527f214d696e746572000000000000000000000000000000000000000000000000006044820152606401610a04565b611b6881610af0565b61016001516000918252600e6020526040909120600b0155565b60606000611b8f83611cad565b67ffffffffffffffff811115611ba757611ba7614711565b604051908082528060200260200182016040528015611bd0578160200160208202803683370190505b50905060005b8151811015611c1857611be98482611194565b828281518110611bfb57611bfb614c4b565b602090810291909101015280611c1081614e11565b915050611bd6565b5092915050565b601c8054611c2c90614a28565b80601f0160208091040260200160405190810160405280929190818152602001828054611c5890614a28565b8015611ca55780601f10611c7a57610100808354040283529160200191611ca5565b820191906000526020600020905b815481529060010190602001808311611c8857829003601f168201915b505050505081565b600073ffffffffffffffffffffffffffffffffffffffff8216611d52576040517f08c379a000000000000000000000000000000000000000000000000000000000815260206004820152602960248201527f4552433732313a2061646472657373207a65726f206973206e6f74206120766160448201527f6c6964206f776e657200000000000000000000000000000000000000000000006064820152608401610a04565b5073ffffffffffffffffffffffffffffffffffffffff1660009081526003602052604090205490565b611d836138ac565b611d8d6000613966565b565b600d6000611d9b6133f7565b73ffffffffffffffffffffffffffffffffffffffff16815260208101919091526040016000205460ff16611e2b576040517f08c379a000000000000000000000000000000000000000000000000000000000815260206004820152600760248201527f214d696e746572000000000000000000000000000000000000000000000000006044820152606401610a04565b6000828152600e60205260409020600b01546402540be40090611e4f908390614abd565b611e599190614b38565b6000838152600e60205260408120600b018054909190611e7a908490614c2b565b90915550506000828152600e60205260409020546402540be40090611ea0908390614c00565b611eaa9190614c17565b6000838152600e602052604081208054909190611ec8908490614aaa565b90915550506000828152600e6020526040902060018101549054670de0b6b3a7640000918291611ef89190614c00565b611f029190614c17565b6000848152600e602090815260408083206002810154845260168352818420600a82015473ffffffffffffffffffffffffffffffffffffffff168552835281842060039091015460ff1615158452909152902054611f609190614abd565b611f6a9190614b38565b6000928352601860205260409092209190915550565b600d6000611f8c6133f7565b73ffffffffffffffffffffffffffffffffffffffff16815260208101919091526040016000205460ff1661201c576040517f08c379a000000000000000000000000000000000000000000000000000000000815260206004820152600760248201527f214d696e746572000000000000000000000000000000000000000000000000006044820152606401610a04565b6000612027601b5490565b6000818152600e60209081526040918290209085015181559084015160018201556060840151600282015560808401516003820180547fffffffffffffffffffffffffffffffffffffffffffffffffffffffffffffff001691151591909117905560a0840151600482015560c0840151600582015560e08401516006820155610100840151600782015560098101829055610120840151600a820180547fffffffffffffffffffffffff00000000000000000000000000000000000000001673ffffffffffffffffffffffffffffffffffffffff90921691909117905583519192509061211490836139dd565b61010083015115612181576060830180516000908152601360209081526040808320805460018181018355918552928420909201869055925182529190205461215d9190614aaa565b606084015160009081526014602090815260408083208684529091529020556122c0565b670de0b6b3a7640000808460400151856020015161219f9190614c00565b6121a99190614c17565b6060850151600090815260166020908152604080832061012089015173ffffffffffffffffffffffffffffffffffffffff16845282528083206080890151151584529091529020546121fb9190614abd565b6122059190614b38565b600083815260186020526040812091909155600f805460018181018355928290527f8d1108e10bcb7c27dddfc02ed9d693a074039d026cf4ea4240b40f7d581ac80201849055546122569190614aaa565b600083815260106020908152604080832093909355606086018051835260118252838320805460018181018355918552928420909201869055518252919020546122a09190614aaa565b606084015160009081526012602090815260408083208684529091529020555b610aeb601b80546001019055565b60606001805461088990614a28565b611a036122e86133f7565b83836139f7565b60008181526013602090815260409182902080548351818402810184019094528084526060939283018282801561118857602002820191906000526020600020908154815260200190600101908083116111745750505050509050919050565b6060600061235d8484614aaa565b67ffffffffffffffff81111561237557612375614711565b60405190808252806020026020018201604052801561239e578160200160208202803683370190505b50905060005b815181101561240357600f6123b98683614e49565b815481106123c9576123c9614c4b565b90600052602060002001548282815181106123e6576123e6614c4b565b6020908102919091010152806123fb81614e11565b9150506123a4565b509392505050565b6000612416601b5490565b905090565b61242c6124266133f7565b836134a1565b6124b8576040517f08c379a000000000000000000000000000000000000000000000000000000000815260206004820152602e60248201527f4552433732313a2063616c6c6572206973206e6f7420746f6b656e206f776e6560448201527f72206e6f7220617070726f7665640000000000000000000000000000000000006064820152608401610a04565b6124c484848484613b24565b50505050565b600d60006124d66133f7565b73ffffffffffffffffffffffffffffffffffffffff16815260208101919091526040016000205460ff16612566576040517f08c379a000000000000000000000000000000000000000000000000000000000815260206004820152600760248201527f214d696e746572000000000000000000000000000000000000000000000000006044820152606401610a04565b6000868152601a6020908152604080832073ffffffffffffffffffffffffffffffffffffffff8916808552908352818420548a85526019845282852091855292529091205410156127f357600086815260196020908152604080832073ffffffffffffffffffffffffffffffffffffffff8916845290915290205415612715576000868152600c6020908152604080832073ffffffffffffffffffffffffffffffffffffffff891684529091529020546402540be400906126279082614aaa565b600088815260196020908152604080832073ffffffffffffffffffffffffffffffffffffffff8b16808552908352818420548c8552601584528285208286528452828520548d8652601785528386209286529190935292205490919061268d9042614aaa565b6126979190614abd565b6126a990670de0b6b3a7640000614abd565b6126b39190614b38565b6126bd9190614abd565b6126c79190614b38565b600087815260166020908152604080832073ffffffffffffffffffffffffffffffffffffffff8a1684528252808320600184529091528120805490919061270f908490614bd8565b90915550505b6000868152601a6020908152604080832073ffffffffffffffffffffffffffffffffffffffff8916808552908352818420548a8552601584528285208286528452828520548b8652601785528386209286529190935292205490919061277b9042614aaa565b6127859190614abd565b61279790670de0b6b3a7640000614abd565b6127a19190614b38565b600087815260166020908152604080832073ffffffffffffffffffffffffffffffffffffffff8a1684528252808320838052909152812080549091906127e8908490614c2b565b90915550612a7a9050565b6000868152601a6020908152604080832073ffffffffffffffffffffffffffffffffffffffff8916808552908352818420548a8552601984528285209185529252909120541115612a7a57600086815260196020908152604080832073ffffffffffffffffffffffffffffffffffffffff8916808552908352818420548a8552601584528285208286528452828520548b865260178552838620928652919093529220549091906128a49042614aaa565b6128ae9190614abd565b6128c090670de0b6b3a7640000614abd565b6128ca9190614b38565b600087815260166020908152604080832073ffffffffffffffffffffffffffffffffffffffff8a16845282528083206001845290915281208054909190612912908490614c2b565b90915550506000868152601a6020908152604080832073ffffffffffffffffffffffffffffffffffffffff8916845290915290205415612a7a576000868152600c6020908152604080832073ffffffffffffffffffffffffffffffffffffffff891684529091529020546402540be4009061298d9082614aaa565b6000888152601a6020908152604080832073ffffffffffffffffffffffffffffffffffffffff8b16808552908352818420548c8552601584528285208286528452828520548d865260178552838620928652919093529220549091906129f39042614aaa565b6129fd9190614abd565b612a0f90670de0b6b3a7640000614abd565b612a199190614b38565b612a239190614abd565b612a2d9190614b38565b600087815260166020908152604080832073ffffffffffffffffffffffffffffffffffffffff8a168452825280832083805290915281208054909190612a74908490614bd8565b90915550505b600086815260176020908152604080832073ffffffffffffffffffffffffffffffffffffffff89168452909152812042905583851115612ac557612abe8486614c2b565b9050612ad2565b612acf8585614c2b565b90505b6301e133806402540be400612ae78584614abd565b612af19190614b38565b612afb9190614b38565b600088815260156020908152604080832073ffffffffffffffffffffffffffffffffffffffff909a168084529982528083209390935589825260198152828220898352815282822097909755888152601a875281812088825287528181209590955596845250600c845285832094835293909252929092205550565b6060612b82826132e0565b6000612b8c613bc7565b90506000815111612bac5760405180602001604052806000815250612bd7565b80612bb684613bd6565b604051602001612bc7929190614e5c565b6040516020818303038152906040525b9392505050565b6060600f80548060200260200160405190810160405280929190818152602001828054801561090257602002820191906000526020600020905b815481526020019060010190808311612c18575050505050905090565b612c3d6138ac565b73ffffffffffffffffffffffffffffffffffffffff919091166000908152600d6020526040902080547fffffffffffffffffffffffffffffffffffffffffffffffffffffffffffffff0016911515919091179055565b600d6000612c9f6133f7565b73ffffffffffffffffffffffffffffffffffffffff16815260208101919091526040016000205460ff16612d2f576040517f08c379a000000000000000000000000000000000000000000000000000000000815260206004820152600760248201527f214d696e746572000000000000000000000000000000000000000000000000006044820152606401610a04565b6000838152600e602052604081206007810154909103612d4f5750505050565b600060078201819055600482018490558282556002820154808252601460209081526040808420888552808352818520548486526013909352908420805493949293919291612da090600190614aaa565b81548110612db057612db0614c4b565b60009182526020808320909101548352828101939093526040918201812093909355838352601390915290208054612dea90600190614aaa565b81548110612dfa57612dfa614c4b565b6000918252602080832090910154838352601382526040808420601484528185208a86529093529092205481548110612e3557612e35614c4b565b60009182526020808320909101929092558281526014825260408082208883528352808220829055838252601390925220805480612e7557612e75614c7a565b60008281526020812082017fffffffffffffffffffffffffffffffffffffffffffffffffffffffffffffffff908101829055909101909155600f805460018181018355928290527f8d1108e10bcb7c27dddfc02ed9d693a074039d026cf4ea4240b40f7d581ac8020187905554612eec9190614aaa565b60008681526010602090815260408083209390935583825260118152918120805460018181018355828452938320018890559083905254612f2d9190614aaa565b600082815260126020908152604080832089845290915290205560018201548254670de0b6b3a7640000918291612f649190614c00565b612f6e9190614c17565b60028401546000908152601660209081526040808320600a88015473ffffffffffffffffffffffffffffffffffffffff1684528252808320600388015460ff1615158452909152902054612fc29190614abd565b612fcc9190614b38565b6000868152601860205260409020555050505050565b600d6000612fee6133f7565b73ffffffffffffffffffffffffffffffffffffffff16815260208101919091526040016000205460ff1661307e576040517f08c379a000000000000000000000000000000000000000000000000000000000815260206004820152600760248201527f214d696e746572000000000000000000000000000000000000000000000000006044820152606401610a04565b6000918252600e602052604090912060060155565b61309b6138ac565b73ffffffffffffffffffffffffffffffffffffffff919091166000908152600b6020526040902080547fffffffffffffffffffffffffffffffffffffffffffffffffffffffffffffff0016911515919091179055565b6130f96138ac565b73ffffffffffffffffffffffffffffffffffffffff811661319c576040517f08c379a000000000000000000000000000000000000000000000000000000000815260206004820152602660248201527f4f776e61626c653a206e6577206f776e657220697320746865207a65726f206160448201527f64647265737300000000000000000000000000000000000000000000000000006064820152608401610a04565b6131a581613966565b50565b80546001019055565b336000908152600b602052604081205460ff16156131f457507fffffffffffffffffffffffffffffffffffffffffffffffffffffffffffffffec36013560601c90565b503390565b3390565b60007fffffffff0000000000000000000000000000000000000000000000000000000082167f80ac58cd00000000000000000000000000000000000000000000000000000000148061329057507fffffffff0000000000000000000000000000000000000000000000000000000082167f5b5e139f00000000000000000000000000000000000000000000000000000000145b8061087457507f01ffc9a7000000000000000000000000000000000000000000000000000000007fffffffff00000000000000000000000000000000000000000000000000000000831614610874565b60008181526002602052604090205473ffffffffffffffffffffffffffffffffffffffff166131a5576040517f08c379a000000000000000000000000000000000000000000000000000000000815260206004820152601860248201527f4552433732313a20696e76616c696420746f6b656e20494400000000000000006044820152606401610a04565b60008181526002602052604081205473ffffffffffffffffffffffffffffffffffffffff1680610874576040517f08c379a000000000000000000000000000000000000000000000000000000000815260206004820152601860248201527f4552433732313a20696e76616c696420746f6b656e20494400000000000000006044820152606401610a04565b60006124166131b1565b600081815260046020526040902080547fffffffffffffffffffffffff00000000000000000000000000000000000000001673ffffffffffffffffffffffffffffffffffffffff8416908117909155819061345b8261336b565b73ffffffffffffffffffffffffffffffffffffffff167f8c5be1e5ebec7d5bd14f71427d1e84f3dd0314c0f7b2291e5b200ac8c7c3b92560405160405180910390a45050565b6000806134ad8361336b565b90508073ffffffffffffffffffffffffffffffffffffffff168473ffffffffffffffffffffffffffffffffffffffff16148061351b575073ffffffffffffffffffffffffffffffffffffffff80821660009081526005602090815260408083209388168352929052205460ff165b8061355957508373ffffffffffffffffffffffffffffffffffffffff166135418461090c565b73ffffffffffffffffffffffffffffffffffffffff16145b949350505050565b8273ffffffffffffffffffffffffffffffffffffffff166135818261336b565b73ffffffffffffffffffffffffffffffffffffffff1614613624576040517f08c379a000000000000000000000000000000000000000000000000000000000815260206004820152602560248201527f4552433732313a207472616e736665722066726f6d20696e636f72726563742060448201527f6f776e65720000000000000000000000000000000000000000000000000000006064820152608401610a04565b73ffffffffffffffffffffffffffffffffffffffff82166136c6576040517f08c379a0000000000000000000000000000000000000000000000000000000008152602060048201526024808201527f4552433732313a207472616e7366657220746f20746865207a65726f2061646460448201527f72657373000000000000000000000000000000000000000000000000000000006064820152608401610a04565b6136d1838383613d0b565b6136dc600082613401565b73ffffffffffffffffffffffffffffffffffffffff83166000908152600360205260408120805460019290613712908490614aaa565b909155505073ffffffffffffffffffffffffffffffffffffffff8216600090815260036020526040812080546001929061374d908490614e49565b909155505060008181526002602052604080822080547fffffffffffffffffffffffff00000000000000000000000000000000000000001673ffffffffffffffffffffffffffffffffffffffff86811691821790925591518493918716917fddf252ad1be2c89b69c2b068fc378daa952ba7f163c4a11628f55a4df523b3ef91a4505050565b60006137de8261336b565b90506137ec81600084613d0b565b6137f7600083613401565b73ffffffffffffffffffffffffffffffffffffffff8116600090815260036020526040812080546001929061382d908490614aaa565b909155505060008281526002602052604080822080547fffffffffffffffffffffffff00000000000000000000000000000000000000001690555183919073ffffffffffffffffffffffffffffffffffffffff8416907fddf252ad1be2c89b69c2b068fc378daa952ba7f163c4a11628f55a4df523b3ef908390a45050565b6138b46133f7565b73ffffffffffffffffffffffffffffffffffffffff166138e9600a5473ffffffffffffffffffffffffffffffffffffffff1690565b73ffffffffffffffffffffffffffffffffffffffff1614611d8d576040517f08c379a000000000000000000000000000000000000000000000000000000000815260206004820181905260248201527f4f776e61626c653a2063616c6c6572206973206e6f7420746865206f776e65726044820152606401610a04565b600a805473ffffffffffffffffffffffffffffffffffffffff8381167fffffffffffffffffffffffff0000000000000000000000000000000000000000831681179093556040519116919082907f8be0079c531659141344cd1fd0a4f28419497f9722a3daafe3b4186f6b6457e090600090a35050565b611a03828260405180602001604052806000815250613e11565b8173ffffffffffffffffffffffffffffffffffffffff168373ffffffffffffffffffffffffffffffffffffffff1603613a8c576040517f08c379a000000000000000000000000000000000000000000000000000000000815260206004820152601960248201527f4552433732313a20617070726f766520746f2063616c6c6572000000000000006044820152606401610a04565b73ffffffffffffffffffffffffffffffffffffffff83811660008181526005602090815260408083209487168084529482529182902080547fffffffffffffffffffffffffffffffffffffffffffffffffffffffffffffff001686151590811790915591519182527f17307eab39ab6107e8899845ad3d59bd9653f200f220920489ca2b5937696c31910160405180910390a3505050565b613b2f848484613561565b613b3b84848484613eb4565b6124c4576040517f08c379a000000000000000000000000000000000000000000000000000000000815260206004820152603260248201527f4552433732313a207472616e7366657220746f206e6f6e20455243373231526560448201527f63656976657220696d706c656d656e74657200000000000000000000000000006064820152608401610a04565b6060601c805461088990614a28565b606081600003613c1957505060408051808201909152600181527f3000000000000000000000000000000000000000000000000000000000000000602082015290565b8160005b8115613c435780613c2d81614e11565b9150613c3c9050600a83614c17565b9150613c1d565b60008167ffffffffffffffff811115613c5e57613c5e614711565b6040519080825280601f01601f191660200182016040528015613c88576020820181803683370190505b5090505b841561355957613c9d600183614aaa565b9150613caa600a86614e8b565b613cb5906030614e49565b60f81b818381518110613cca57613cca614c4b565b60200101907effffffffffffffffffffffffffffffffffffffffffffffffffffffffffffff1916908160001a905350613d04600a86614c17565b9450613c8c565b73ffffffffffffffffffffffffffffffffffffffff8316613d7357613d6e81600880546000838152600960205260408120829055600182018355919091527ff3f7a9fe364faab93b216da50a3214154f22a0a2b415b23a84c8169e8b636ee30155565b613db0565b8173ffffffffffffffffffffffffffffffffffffffff168373ffffffffffffffffffffffffffffffffffffffff1614613db057613db08382614095565b73ffffffffffffffffffffffffffffffffffffffff8216613dd457610aeb8161414c565b8273ffffffffffffffffffffffffffffffffffffffff168273ffffffffffffffffffffffffffffffffffffffff1614610aeb57610aeb82826141fb565b613e1b838361424c565b613e286000848484613eb4565b610aeb576040517f08c379a000000000000000000000000000000000000000000000000000000000815260206004820152603260248201527f4552433732313a207472616e7366657220746f206e6f6e20455243373231526560448201527f63656976657220696d706c656d656e74657200000000000000000000000000006064820152608401610a04565b600073ffffffffffffffffffffffffffffffffffffffff84163b1561408a578373ffffffffffffffffffffffffffffffffffffffff1663150b7a02613ef76133f7565b8786866040518563ffffffff1660e01b8152600401613f199493929190614e9f565b6020604051808303816000875af1925050508015613f72575060408051601f3d9081017fffffffffffffffffffffffffffffffffffffffffffffffffffffffffffffffe0168201909252613f6f91810190614ee8565b60015b61403f573d808015613fa0576040519150601f19603f3d011682016040523d82523d6000602084013e613fa5565b606091505b508051600003614037576040517f08c379a000000000000000000000000000000000000000000000000000000000815260206004820152603260248201527f4552433732313a207472616e7366657220746f206e6f6e20455243373231526560448201527f63656976657220696d706c656d656e74657200000000000000000000000000006064820152608401610a04565b805181602001fd5b7fffffffff00000000000000000000000000000000000000000000000000000000167f150b7a0200000000000000000000000000000000000000000000000000000000149050613559565b506001949350505050565b600060016140a284611cad565b6140ac9190614aaa565b60008381526007602052604090205490915080821461410c5773ffffffffffffffffffffffffffffffffffffffff841660009081526006602090815260408083208584528252808320548484528184208190558352600790915290208190555b50600091825260076020908152604080842084905573ffffffffffffffffffffffffffffffffffffffff9094168352600681528383209183525290812055565b60085460009061415e90600190614aaa565b6000838152600960205260408120546008805493945090928490811061418657614186614c4b565b9060005260206000200154905080600883815481106141a7576141a7614c4b565b60009182526020808320909101929092558281526009909152604080822084905585825281205560088054806141df576141df614c7a565b6001900381819060005260206000200160009055905550505050565b600061420683611cad565b73ffffffffffffffffffffffffffffffffffffffff9093166000908152600660209081526040808320868452825280832085905593825260079052919091209190915550565b73ffffffffffffffffffffffffffffffffffffffff82166142c9576040517f08c379a000000000000000000000000000000000000000000000000000000000815260206004820181905260248201527f4552433732313a206d696e7420746f20746865207a65726f20616464726573736044820152606401610a04565b60008181526002602052604090205473ffffffffffffffffffffffffffffffffffffffff1615614355576040517f08c379a000000000000000000000000000000000000000000000000000000000815260206004820152601c60248201527f4552433732313a20746f6b656e20616c7265616479206d696e746564000000006044820152606401610a04565b61436160008383613d0b565b73ffffffffffffffffffffffffffffffffffffffff82166000908152600360205260408120805460019290614397908490614e49565b909155505060008181526002602052604080822080547fffffffffffffffffffffffff00000000000000000000000000000000000000001673ffffffffffffffffffffffffffffffffffffffff861690811790915590518392907fddf252ad1be2c89b69c2b068fc378daa952ba7f163c4a11628f55a4df523b3ef908290a45050565b7fffffffff00000000000000000000000000000000000000000000000000000000811681146131a557600080fd5b60006020828403121561445a57600080fd5b8135612bd78161441a565b60005b83811015614480578181015183820152602001614468565b50506000910152565b600081518084526144a1816020860160208601614465565b601f017fffffffffffffffffffffffffffffffffffffffffffffffffffffffffffffffe0169290920160200192915050565b602081526000612bd76020830184614489565b6000602082840312156144f857600080fd5b5035919050565b803573ffffffffffffffffffffffffffffffffffffffff8116811461452357600080fd5b919050565b6000806040838503121561453b57600080fd5b614544836144ff565b946020939093013593505050565b6000806040838503121561456557600080fd5b50508035926020909101359150565b60006101808201905082518252602083015160208301526040830151604083015260608301516145a8606084018215159052565b506080830151608083015260a083015160a083015260c083015160c083015260e083015160e0830152610100808401516145f98285018273ffffffffffffffffffffffffffffffffffffffff169052565b505061012083810151908301526101408084015173ffffffffffffffffffffffffffffffffffffffff811682850152505061016092830151919092015290565b60008060006060848603121561464e57600080fd5b614657846144ff565b9250614665602085016144ff565b9150604084013590509250925092565b6020808252825182820181905260009190848201906040850190845b818110156146ad57835183529284019291840191600101614691565b50909695505050505050565b6000806000606084860312156146ce57600080fd5b505081359360208301359350604090920135919050565b600080604083850312156146f857600080fd5b82359150614708602084016144ff565b90509250929050565b7f4e487b7100000000000000000000000000000000000000000000000000000000600052604160045260246000fd5b604051610140810167ffffffffffffffff8111828210171561476457614764614711565b60405290565b600067ffffffffffffffff8084111561478557614785614711565b604051601f85017fffffffffffffffffffffffffffffffffffffffffffffffffffffffffffffffe0908116603f011681019082821181831017156147cb576147cb614711565b816040528093508581528686860111156147e457600080fd5b858560208301376000602087830101525050509392505050565b60006020828403121561481057600080fd5b813567ffffffffffffffff81111561482757600080fd5b8201601f8101841361483857600080fd5b6135598482356020840161476a565b60006020828403121561485957600080fd5b612bd7826144ff565b8035801515811461452357600080fd5b6000610140828403121561488557600080fd5b61488d614740565b614896836144ff565b81526020830135602082015260408301356040820152606083013560608201526148c260808401614862565b608082015260a083013560a082015260c083013560c082015260e083013560e08201526101008084013581830152506101206148ff8185016144ff565b908201529392505050565b6000806040838503121561491d57600080fd5b614926836144ff565b915061470860208401614862565b6000806000806080858703121561494a57600080fd5b614953856144ff565b9350614961602086016144ff565b925060408501359150606085013567ffffffffffffffff81111561498457600080fd5b8501601f8101871361499557600080fd5b6149a48782356020840161476a565b91505092959194509250565b60008060008060008060c087890312156149c957600080fd5b863595506149d9602088016144ff565b95989597505050506040840135936060810135936080820135935060a0909101359150565b60008060408385031215614a1157600080fd5b614a1a836144ff565b9150614708602084016144ff565b600181811c90821680614a3c57607f821691505b602082108103614a75577f4e487b7100000000000000000000000000000000000000000000000000000000600052602260045260246000fd5b50919050565b7f4e487b7100000000000000000000000000000000000000000000000000000000600052601160045260246000fd5b8181038181111561087457610874614a7b565b808202600082127f800000000000000000000000000000000000000000000000000000000000000084141615614af557614af5614a7b565b818105831482151761087457610874614a7b565b7f4e487b7100000000000000000000000000000000000000000000000000000000600052601260045260246000fd5b600082614b4757614b47614b09565b7fffffffffffffffffffffffffffffffffffffffffffffffffffffffffffffffff83147f800000000000000000000000000000000000000000000000000000000000000083141615614b9b57614b9b614a7b565b500590565b60007f80000000000000000000000000000000000000000000000000000000000000008203614bd157614bd1614a7b565b5060000390565b8082018281126000831280158216821582161715614bf857614bf8614a7b565b505092915050565b808202811582820484141761087457610874614a7b565b600082614c2657614c26614b09565b500490565b8181036000831280158383131683831282161715611c1857611c18614a7b565b7f4e487b7100000000000000000000000000000000000000000000000000000000600052603260045260246000fd5b7f4e487b7100000000000000000000000000000000000000000000000000000000600052603160045260246000fd5b601f821115610aeb57600081815260208120601f850160051c81016020861015614cd05750805b601f850160051c820191505b81811015614cef57828155600101614cdc565b505050505050565b815167ffffffffffffffff811115614d1157614d11614711565b614d2581614d1f8454614a28565b84614ca9565b602080601f831160018114614d785760008415614d425750858301515b7fffffffffffffffffffffffffffffffffffffffffffffffffffffffffffffffff600386901b1c1916600185901b178555614cef565b6000858152602081207fffffffffffffffffffffffffffffffffffffffffffffffffffffffffffffffe08616915b82811015614dc557888601518255948401946001909101908401614da6565b5085821015614e0157878501517fffffffffffffffffffffffffffffffffffffffffffffffffffffffffffffffff600388901b60f8161c191681555b5050505050600190811b01905550565b60007fffffffffffffffffffffffffffffffffffffffffffffffffffffffffffffffff8203614e4257614e42614a7b565b5060010190565b8082018082111561087457610874614a7b565b60008351614e6e818460208801614465565b835190830190614e82818360208801614465565b01949350505050565b600082614e9a57614e9a614b09565b500690565b600073ffffffffffffffffffffffffffffffffffffffff808716835280861660208401525083604083015260806060830152614ede6080830184614489565b9695505050505050565b600060208284031215614efa57600080fd5b8151612bd78161441a56fea2646970667358221220f9ea249419c5057e70b8b71edbaf20e43c779ef9e1eca5a7ecd48f68f47b037964736f6c63430008110033",
  "devdoc": {
    "kind": "dev",
    "methods": {
      "approve(address,uint256)": {
        "details": "See {IERC721-approve}."
      },
      "balanceOf(address)": {
        "details": "See {IERC721-balanceOf}."
      },
      "burn(uint256)": {
        "details": "Burns an NFT and it's data",
        "params": {
          "_id": "ID of the trade"
        }
      },
      "executeLimitOrder(uint256,uint256,uint256)": {
        "params": {
          "_id": "id of the position NFT",
          "_newMargin": "margin after fees",
          "_price": "price used for execution"
        }
      },
      "getApproved(uint256)": {
        "details": "See {IERC721-getApproved}."
      },
      "isApprovedForAll(address,address)": {
        "details": "See {IERC721-isApprovedForAll}."
      },
      "mint((address,uint256,uint256,uint256,bool,uint256,uint256,uint256,uint256,address))": {
        "params": {
          "_mintTrade": "New trade params in struct"
        }
      },
      "name()": {
        "details": "See {IERC721Metadata-name}."
      },
      "owner()": {
        "details": "Returns the address of the current owner."
      },
      "renounceOwnership()": {
        "details": "Leaves the contract without owner. It will not be possible to call `onlyOwner` functions anymore. Can only be called by the current owner. NOTE: Renouncing ownership will leave the contract without an owner, thereby removing any functionality that is only available to the owner."
      },
      "safeTransferFrom(address,address,uint256)": {
        "details": "See {IERC721-safeTransferFrom}."
      },
      "safeTransferFrom(address,address,uint256,bytes)": {
        "details": "See {IERC721-safeTransferFrom}."
      },
      "setApprovalForAll(address,bool)": {
        "details": "See {IERC721-setApprovalForAll}."
      },
      "supportsInterface(bytes4)": {
        "details": "See {IERC165-supportsInterface}."
      },
      "symbol()": {
        "details": "See {IERC721Metadata-symbol}."
      },
      "tokenByIndex(uint256)": {
        "details": "See {IERC721Enumerable-tokenByIndex}."
      },
      "tokenOfOwnerByIndex(address,uint256)": {
        "details": "See {IERC721Enumerable-tokenOfOwnerByIndex}."
      },
      "tokenURI(uint256)": {
        "details": "See {IERC721Metadata-tokenURI}."
      },
      "totalSupply()": {
        "details": "See {IERC721Enumerable-totalSupply}."
      },
      "transferFrom(address,address,uint256)": {
        "details": "See {IERC721-transferFrom}."
      },
      "transferOwnership(address)": {
        "details": "Transfers ownership of the contract to a new account (`newOwner`). Can only be called by the current owner."
      }
    },
    "version": 1
  },
  "userdoc": {
    "kind": "user",
    "methods": {},
    "version": 1
  },
  "storageLayout": {
    "storage": [
      {
        "astId": 2585,
        "contract": "contracts/Position.sol:Position",
        "label": "_name",
        "offset": 0,
        "slot": "0",
        "type": "t_string_storage"
      },
      {
        "astId": 2587,
        "contract": "contracts/Position.sol:Position",
        "label": "_symbol",
        "offset": 0,
        "slot": "1",
        "type": "t_string_storage"
      },
      {
        "astId": 2591,
        "contract": "contracts/Position.sol:Position",
        "label": "_owners",
        "offset": 0,
        "slot": "2",
        "type": "t_mapping(t_uint256,t_address)"
      },
      {
        "astId": 2595,
        "contract": "contracts/Position.sol:Position",
        "label": "_balances",
        "offset": 0,
        "slot": "3",
        "type": "t_mapping(t_address,t_uint256)"
      },
      {
        "astId": 2599,
        "contract": "contracts/Position.sol:Position",
        "label": "_tokenApprovals",
        "offset": 0,
        "slot": "4",
        "type": "t_mapping(t_uint256,t_address)"
      },
      {
        "astId": 2605,
        "contract": "contracts/Position.sol:Position",
        "label": "_operatorApprovals",
        "offset": 0,
        "slot": "5",
        "type": "t_mapping(t_address,t_mapping(t_address,t_bool))"
      },
      {
        "astId": 3575,
        "contract": "contracts/Position.sol:Position",
        "label": "_ownedTokens",
        "offset": 0,
        "slot": "6",
        "type": "t_mapping(t_address,t_mapping(t_uint256,t_uint256))"
      },
      {
        "astId": 3579,
        "contract": "contracts/Position.sol:Position",
        "label": "_ownedTokensIndex",
        "offset": 0,
        "slot": "7",
        "type": "t_mapping(t_uint256,t_uint256)"
      },
      {
        "astId": 3582,
        "contract": "contracts/Position.sol:Position",
        "label": "_allTokens",
        "offset": 0,
        "slot": "8",
        "type": "t_array(t_uint256)dyn_storage"
      },
      {
        "astId": 3586,
        "contract": "contracts/Position.sol:Position",
        "label": "_allTokensIndex",
        "offset": 0,
        "slot": "9",
        "type": "t_mapping(t_uint256,t_uint256)"
      },
      {
        "astId": 400,
        "contract": "contracts/Position.sol:Position",
        "label": "_owner",
        "offset": 0,
        "slot": "10",
        "type": "t_address"
      },
      {
        "astId": 14491,
        "contract": "contracts/Position.sol:Position",
        "label": "_isTrustedForwarder",
        "offset": 0,
        "slot": "11",
        "type": "t_mapping(t_address,t_bool)"
      },
      {
        "astId": 8549,
        "contract": "contracts/Position.sol:Position",
        "label": "vaultFundingPercent",
        "offset": 0,
        "slot": "12",
        "type": "t_mapping(t_uint256,t_mapping(t_address,t_uint256))"
      },
      {
        "astId": 8553,
        "contract": "contracts/Position.sol:Position",
        "label": "_isMinter",
        "offset": 0,
        "slot": "13",
        "type": "t_mapping(t_address,t_bool)"
      },
      {
        "astId": 8558,
        "contract": "contracts/Position.sol:Position",
        "label": "_trades",
        "offset": 0,
        "slot": "14",
        "type": "t_mapping(t_uint256,t_struct(Trade)11687_storage)"
      },
      {
        "astId": 8561,
        "contract": "contracts/Position.sol:Position",
        "label": "_openPositions",
        "offset": 0,
        "slot": "15",
        "type": "t_array(t_uint256)dyn_storage"
      },
      {
        "astId": 8565,
        "contract": "contracts/Position.sol:Position",
        "label": "_openPositionsIndexes",
        "offset": 0,
        "slot": "16",
        "type": "t_mapping(t_uint256,t_uint256)"
      },
      {
        "astId": 8570,
        "contract": "contracts/Position.sol:Position",
        "label": "_assetOpenPositions",
        "offset": 0,
        "slot": "17",
        "type": "t_mapping(t_uint256,t_array(t_uint256)dyn_storage)"
      },
      {
        "astId": 8576,
        "contract": "contracts/Position.sol:Position",
        "label": "_assetOpenPositionsIndexes",
        "offset": 0,
        "slot": "18",
        "type": "t_mapping(t_uint256,t_mapping(t_uint256,t_uint256))"
      },
      {
        "astId": 8581,
        "contract": "contracts/Position.sol:Position",
        "label": "_limitOrders",
        "offset": 0,
        "slot": "19",
        "type": "t_mapping(t_uint256,t_array(t_uint256)dyn_storage)"
      },
      {
        "astId": 8587,
        "contract": "contracts/Position.sol:Position",
        "label": "_limitOrderIndexes",
        "offset": 0,
        "slot": "20",
        "type": "t_mapping(t_uint256,t_mapping(t_uint256,t_uint256))"
      },
      {
        "astId": 8593,
        "contract": "contracts/Position.sol:Position",
        "label": "fundingDeltaPerSec",
        "offset": 0,
        "slot": "21",
        "type": "t_mapping(t_uint256,t_mapping(t_address,t_int256))"
      },
      {
        "astId": 8601,
        "contract": "contracts/Position.sol:Position",
        "label": "accInterestPerOi",
        "offset": 0,
        "slot": "22",
        "type": "t_mapping(t_uint256,t_mapping(t_address,t_mapping(t_bool,t_int256)))"
      },
      {
        "astId": 8607,
        "contract": "contracts/Position.sol:Position",
        "label": "lastUpdate",
        "offset": 0,
        "slot": "23",
        "type": "t_mapping(t_uint256,t_mapping(t_address,t_uint256))"
      },
      {
        "astId": 8611,
        "contract": "contracts/Position.sol:Position",
        "label": "initId",
        "offset": 0,
        "slot": "24",
        "type": "t_mapping(t_uint256,t_int256)"
      },
      {
        "astId": 8617,
        "contract": "contracts/Position.sol:Position",
        "label": "longOi",
        "offset": 0,
        "slot": "25",
        "type": "t_mapping(t_uint256,t_mapping(t_address,t_uint256))"
      },
      {
        "astId": 8623,
        "contract": "contracts/Position.sol:Position",
        "label": "shortOi",
        "offset": 0,
        "slot": "26",
        "type": "t_mapping(t_uint256,t_mapping(t_address,t_uint256))"
      },
      {
        "astId": 8974,
        "contract": "contracts/Position.sol:Position",
        "label": "_tokenIds",
        "offset": 0,
        "slot": "27",
        "type": "t_struct(Counter)4279_storage"
      },
      {
        "astId": 8976,
        "contract": "contracts/Position.sol:Position",
        "label": "baseURI",
        "offset": 0,
        "slot": "28",
        "type": "t_string_storage"
      }
    ],
    "types": {
      "t_address": {
        "encoding": "inplace",
        "label": "address",
        "numberOfBytes": "20"
      },
      "t_array(t_uint256)dyn_storage": {
        "base": "t_uint256",
        "encoding": "dynamic_array",
        "label": "uint256[]",
        "numberOfBytes": "32"
      },
      "t_bool": {
        "encoding": "inplace",
        "label": "bool",
        "numberOfBytes": "1"
      },
      "t_int256": {
        "encoding": "inplace",
        "label": "int256",
        "numberOfBytes": "32"
      },
      "t_mapping(t_address,t_bool)": {
        "encoding": "mapping",
        "key": "t_address",
        "label": "mapping(address => bool)",
        "numberOfBytes": "32",
        "value": "t_bool"
      },
      "t_mapping(t_address,t_int256)": {
        "encoding": "mapping",
        "key": "t_address",
        "label": "mapping(address => int256)",
        "numberOfBytes": "32",
        "value": "t_int256"
      },
      "t_mapping(t_address,t_mapping(t_address,t_bool))": {
        "encoding": "mapping",
        "key": "t_address",
        "label": "mapping(address => mapping(address => bool))",
        "numberOfBytes": "32",
        "value": "t_mapping(t_address,t_bool)"
      },
      "t_mapping(t_address,t_mapping(t_bool,t_int256))": {
        "encoding": "mapping",
        "key": "t_address",
        "label": "mapping(address => mapping(bool => int256))",
        "numberOfBytes": "32",
        "value": "t_mapping(t_bool,t_int256)"
      },
      "t_mapping(t_address,t_mapping(t_uint256,t_uint256))": {
        "encoding": "mapping",
        "key": "t_address",
        "label": "mapping(address => mapping(uint256 => uint256))",
        "numberOfBytes": "32",
        "value": "t_mapping(t_uint256,t_uint256)"
      },
      "t_mapping(t_address,t_uint256)": {
        "encoding": "mapping",
        "key": "t_address",
        "label": "mapping(address => uint256)",
        "numberOfBytes": "32",
        "value": "t_uint256"
      },
      "t_mapping(t_bool,t_int256)": {
        "encoding": "mapping",
        "key": "t_bool",
        "label": "mapping(bool => int256)",
        "numberOfBytes": "32",
        "value": "t_int256"
      },
      "t_mapping(t_uint256,t_address)": {
        "encoding": "mapping",
        "key": "t_uint256",
        "label": "mapping(uint256 => address)",
        "numberOfBytes": "32",
        "value": "t_address"
      },
      "t_mapping(t_uint256,t_array(t_uint256)dyn_storage)": {
        "encoding": "mapping",
        "key": "t_uint256",
        "label": "mapping(uint256 => uint256[])",
        "numberOfBytes": "32",
        "value": "t_array(t_uint256)dyn_storage"
      },
      "t_mapping(t_uint256,t_int256)": {
        "encoding": "mapping",
        "key": "t_uint256",
        "label": "mapping(uint256 => int256)",
        "numberOfBytes": "32",
        "value": "t_int256"
      },
      "t_mapping(t_uint256,t_mapping(t_address,t_int256))": {
        "encoding": "mapping",
        "key": "t_uint256",
        "label": "mapping(uint256 => mapping(address => int256))",
        "numberOfBytes": "32",
        "value": "t_mapping(t_address,t_int256)"
      },
      "t_mapping(t_uint256,t_mapping(t_address,t_mapping(t_bool,t_int256)))": {
        "encoding": "mapping",
        "key": "t_uint256",
        "label": "mapping(uint256 => mapping(address => mapping(bool => int256)))",
        "numberOfBytes": "32",
        "value": "t_mapping(t_address,t_mapping(t_bool,t_int256))"
      },
      "t_mapping(t_uint256,t_mapping(t_address,t_uint256))": {
        "encoding": "mapping",
        "key": "t_uint256",
        "label": "mapping(uint256 => mapping(address => uint256))",
        "numberOfBytes": "32",
        "value": "t_mapping(t_address,t_uint256)"
      },
      "t_mapping(t_uint256,t_mapping(t_uint256,t_uint256))": {
        "encoding": "mapping",
        "key": "t_uint256",
        "label": "mapping(uint256 => mapping(uint256 => uint256))",
        "numberOfBytes": "32",
        "value": "t_mapping(t_uint256,t_uint256)"
      },
      "t_mapping(t_uint256,t_struct(Trade)11687_storage)": {
        "encoding": "mapping",
        "key": "t_uint256",
        "label": "mapping(uint256 => struct IPosition.Trade)",
        "numberOfBytes": "32",
        "value": "t_struct(Trade)11687_storage"
      },
      "t_mapping(t_uint256,t_uint256)": {
        "encoding": "mapping",
        "key": "t_uint256",
        "label": "mapping(uint256 => uint256)",
        "numberOfBytes": "32",
        "value": "t_uint256"
      },
      "t_string_storage": {
        "encoding": "bytes",
        "label": "string",
        "numberOfBytes": "32"
      },
      "t_struct(Counter)4279_storage": {
        "encoding": "inplace",
        "label": "struct Counters.Counter",
        "members": [
          {
            "astId": 4278,
            "contract": "contracts/Position.sol:Position",
            "label": "_value",
            "offset": 0,
            "slot": "0",
            "type": "t_uint256"
          }
        ],
        "numberOfBytes": "32"
      },
      "t_struct(Trade)11687_storage": {
        "encoding": "inplace",
        "label": "struct IPosition.Trade",
        "members": [
          {
            "astId": 11664,
            "contract": "contracts/Position.sol:Position",
            "label": "margin",
            "offset": 0,
            "slot": "0",
            "type": "t_uint256"
          },
          {
            "astId": 11666,
            "contract": "contracts/Position.sol:Position",
            "label": "leverage",
            "offset": 0,
            "slot": "1",
            "type": "t_uint256"
          },
          {
            "astId": 11668,
            "contract": "contracts/Position.sol:Position",
            "label": "asset",
            "offset": 0,
            "slot": "2",
            "type": "t_uint256"
          },
          {
            "astId": 11670,
            "contract": "contracts/Position.sol:Position",
            "label": "direction",
            "offset": 0,
            "slot": "3",
            "type": "t_bool"
          },
          {
            "astId": 11672,
            "contract": "contracts/Position.sol:Position",
            "label": "price",
            "offset": 0,
            "slot": "4",
            "type": "t_uint256"
          },
          {
            "astId": 11674,
            "contract": "contracts/Position.sol:Position",
            "label": "tpPrice",
            "offset": 0,
            "slot": "5",
            "type": "t_uint256"
          },
          {
            "astId": 11676,
            "contract": "contracts/Position.sol:Position",
            "label": "slPrice",
            "offset": 0,
            "slot": "6",
            "type": "t_uint256"
          },
          {
            "astId": 11678,
            "contract": "contracts/Position.sol:Position",
            "label": "orderType",
            "offset": 0,
            "slot": "7",
            "type": "t_uint256"
          },
          {
            "astId": 11680,
            "contract": "contracts/Position.sol:Position",
            "label": "trader",
            "offset": 0,
            "slot": "8",
            "type": "t_address"
          },
          {
            "astId": 11682,
            "contract": "contracts/Position.sol:Position",
            "label": "id",
            "offset": 0,
            "slot": "9",
            "type": "t_uint256"
          },
          {
            "astId": 11684,
            "contract": "contracts/Position.sol:Position",
            "label": "tigAsset",
            "offset": 0,
            "slot": "10",
            "type": "t_address"
          },
          {
            "astId": 11686,
            "contract": "contracts/Position.sol:Position",
            "label": "accInterest",
            "offset": 0,
            "slot": "11",
            "type": "t_int256"
          }
        ],
        "numberOfBytes": "384"
      },
      "t_uint256": {
        "encoding": "inplace",
        "label": "uint256",
        "numberOfBytes": "32"
      }
    }
  }
}