{
  "address": "0x5EbA69d5572F583b631E0E4F5608E167467c4BB3",
  "abi": [
    {
      "inputs": [
        {
          "internalType": "contract IERC721",
          "name": "_nft",
          "type": "address"
        },
        {
          "internalType": "contract IERC20",
          "name": "_tigusd",
          "type": "address"
        },
        {
          "internalType": "address",
          "name": "_treasury",
          "type": "address"
        }
      ],
      "stateMutability": "nonpayable",
      "type": "constructor"
    },
    {
      "inputs": [],
      "name": "accRewardsPerToken",
      "outputs": [
        {
          "internalType": "uint256",
          "name": "",
          "type": "uint256"
        }
      ],
      "stateMutability": "view",
      "type": "function"
    },
    {
      "inputs": [],
      "name": "claim",
      "outputs": [],
      "stateMutability": "nonpayable",
      "type": "function"
    },
    {
      "inputs": [],
      "name": "deployer",
      "outputs": [
        {
          "internalType": "address",
          "name": "",
          "type": "address"
        }
      ],
      "stateMutability": "view",
      "type": "function"
    },
    {
      "inputs": [
        {
          "internalType": "uint256",
          "name": "_amount",
          "type": "uint256"
        }
      ],
      "name": "deposit",
      "outputs": [],
      "stateMutability": "nonpayable",
      "type": "function"
    },
    {
      "inputs": [],
      "name": "nft",
      "outputs": [
        {
          "internalType": "contract IERC721",
          "name": "",
          "type": "address"
        }
      ],
      "stateMutability": "view",
      "type": "function"
    },
    {
      "inputs": [
        {
          "internalType": "address",
          "name": "_user",
          "type": "address"
        }
      ],
      "name": "pending",
      "outputs": [
        {
          "internalType": "uint256",
          "name": "",
          "type": "uint256"
        }
      ],
      "stateMutability": "view",
      "type": "function"
    },
    {
      "inputs": [
        {
          "internalType": "uint256[]",
          "name": "_ids",
          "type": "uint256[]"
        }
      ],
      "name": "recoverNft",
      "outputs": [],
      "stateMutability": "nonpayable",
      "type": "function"
    },
    {
      "inputs": [],
      "name": "tigusd",
      "outputs": [
        {
          "internalType": "contract IERC20",
          "name": "",
          "type": "address"
        }
      ],
      "stateMutability": "view",
      "type": "function"
    },
    {
      "inputs": [],
      "name": "totalStaked",
      "outputs": [
        {
          "internalType": "uint256",
          "name": "",
          "type": "uint256"
        }
      ],
      "stateMutability": "view",
      "type": "function"
    },
    {
      "inputs": [],
      "name": "treasury",
      "outputs": [
        {
          "internalType": "address",
          "name": "",
          "type": "address"
        }
      ],
      "stateMutability": "view",
      "type": "function"
    },
    {
      "inputs": [
        {
          "internalType": "address",
          "name": "",
          "type": "address"
        }
      ],
      "name": "userPaid",
      "outputs": [
        {
          "internalType": "uint256",
          "name": "",
          "type": "uint256"
        }
      ],
      "stateMutability": "view",
      "type": "function"
    },
    {
      "inputs": [
        {
          "internalType": "address",
          "name": "",
          "type": "address"
        }
      ],
      "name": "userStaked",
      "outputs": [
        {
          "internalType": "uint256",
          "name": "",
          "type": "uint256"
        }
      ],
      "stateMutability": "view",
      "type": "function"
    },
    {
      "inputs": [
        {
          "internalType": "uint256",
          "name": "_amount",
          "type": "uint256"
        }
      ],
      "name": "withdraw",
      "outputs": [],
      "stateMutability": "nonpayable",
      "type": "function"
    },
    {
      "inputs": [],
      "name": "withdrawAll",
      "outputs": [],
      "stateMutability": "nonpayable",
      "type": "function"
    }
  ],
  "transactionHash": "0x253cde66b550d64cd5a503acb436e30b546249544d7323f7b238119f20b76ceb",
  "args": [
    "0x5DF98AA475D8815df7cd4fC4549B5c150e8505Be",
    "0x76973Ba2AFF24F87fFE41FDBfD15308dEBB8f7E8",
    "0x4f7046f36B5D5282A94cB448eAdB3cdf9Ff2b051"
  ],
  "numDeployments": 1,
  "solcInputHash": "f5948d3e0c116fa42f6bf202b811641e",
  "bytecode": "0x61010060405234801561001157600080fd5b5060405161106838038061106883398101604081905261003091610069565b6001600160a01b0392831660805290821660a0521660c0523360e0526100b6565b6001600160a01b038116811461006657600080fd5b50565b60008060006060848603121561007e57600080fd5b835161008981610051565b602085015190935061009a81610051565b60408501519092506100ab81610051565b809150509250925092565b60805160a05160c05160e051610f1e61014a600039600081816102510152610618015260008181610183015281816105d9015261070a0152600081816101d70152818161036b01528181610494015281816108250152818161095101528181610a5e0152610b19015260008181610109015281816104c8015281816106dd0152818161097c0152610a860152610f1e6000f3fe608060405234801561001057600080fd5b50600436106100ea5760003560e01c8063853828b61161008c578063a6aed07611610066578063a6aed076146101f9578063acc3a93914610219578063b6b55f2514610239578063d5f394881461024c57600080fd5b8063853828b6146101b7578063997c1c75146101bf5780639f72f6ad146101d257600080fd5b80635eebea20116100c85780635eebea201461015d57806361d027b31461017e5780637fcff2af146101a5578063817b1cd2146101ae57600080fd5b80632e1a7d4d146100ef57806347ccca02146101045780634e71d92d14610155575b600080fd5b6101026100fd366004610c63565b610273565b005b61012b7f000000000000000000000000000000000000000000000000000000000000000081565b60405173ffffffffffffffffffffffffffffffffffffffff90911681526020015b60405180910390f35b61010261041f565b61017061016b366004610c7c565b61042a565b60405190815260200161014c565b61012b7f000000000000000000000000000000000000000000000000000000000000000081565b61017060015481565b61017060005481565b6101026105a8565b6101026101cd366004610ce8565b6105c1565b61012b7f000000000000000000000000000000000000000000000000000000000000000081565b610170610207366004610c7c565b60036020526000908152604090205481565b610170610227366004610c7c565b60026020526000908152604090205481565b610102610247366004610c63565b610769565b61012b7f000000000000000000000000000000000000000000000000000000000000000081565b336000908152600260205260409020548111156102f1576040517f08c379a000000000000000000000000000000000000000000000000000000000815260206004820152600b60248201527f426164576974686472617700000000000000000000000000000000000000000060448201526064015b60405180910390fd5b6102fa33610901565b3360009081526002602052604081208054839290610319908490610df3565b92505081905550806000808282546103319190610df3565b90915550506040517fa9059cbb000000000000000000000000000000000000000000000000000000008152336004820152602481018290527f000000000000000000000000000000000000000000000000000000000000000073ffffffffffffffffffffffffffffffffffffffff169063a9059cbb90604401600060405180830381600087803b1580156103c457600080fd5b505af11580156103d8573d6000803e3d6000fd5b505033600090815260026020526040902054600154670de0b6b3a764000093506104029250610e06565b61040c9190610e1d565b3360009081526003602052604090205550565b61042833610901565b565b6000805460000361043d57506000919050565b73ffffffffffffffffffffffffffffffffffffffff82811660009081526003602052604080822054915490517f19bc9ae80000000000000000000000000000000000000000000000000000000081523060048201527f0000000000000000000000000000000000000000000000000000000000000000841660248201529192670de0b6b3a7640000927f0000000000000000000000000000000000000000000000000000000000000000909116906319bc9ae890604401602060405180830381865afa158015610511573d6000803e3d6000fd5b505050506040513d601f19601f820116820180604052508101906105359190610e58565b61054790670de0b6b3a7640000610e06565b6105519190610e1d565b60015461055e9190610e71565b73ffffffffffffffffffffffffffffffffffffffff851660009081526002602052604090205461058e9190610e06565b6105989190610e1d565b6105a29190610df3565b92915050565b3360009081526002602052604090205461042890610273565b3373ffffffffffffffffffffffffffffffffffffffff7f000000000000000000000000000000000000000000000000000000000000000016148061063a57503373ffffffffffffffffffffffffffffffffffffffff7f000000000000000000000000000000000000000000000000000000000000000016145b6106a0576040517f08c379a000000000000000000000000000000000000000000000000000000000815260206004820152600b60248201527f215065726d697373696f6e00000000000000000000000000000000000000000060448201526064016102e8565b6040517fd6651c7000000000000000000000000000000000000000000000000000000000815273ffffffffffffffffffffffffffffffffffffffff7f0000000000000000000000000000000000000000000000000000000000000000169063d6651c7090610734907f0000000000000000000000000000000000000000000000000000000000000000908590600401610e84565b600060405180830381600087803b15801561074e57600080fd5b505af1158015610762573d6000803e3d6000fd5b5050505050565b692a5a058fc295ed000000600054826107829190610e71565b11156107ea576040517f08c379a000000000000000000000000000000000000000000000000000000000815260206004820152600660248201527f436170706564000000000000000000000000000000000000000000000000000060448201526064016102e8565b6040517f23b872dd000000000000000000000000000000000000000000000000000000008152336004820152306024820152604481018290527f000000000000000000000000000000000000000000000000000000000000000073ffffffffffffffffffffffffffffffffffffffff16906323b872dd90606401600060405180830381600087803b15801561087e57600080fd5b505af1158015610892573d6000803e3d6000fd5b5050505061089f33610901565b33600090815260026020526040812080548392906108be908490610e71565b92505081905550806000808282546108d69190610e71565b909155505033600090815260026020526040902054600154670de0b6b3a76400009161040291610e06565b60005460000361090e5750565b6040517f19bc9ae800000000000000000000000000000000000000000000000000000000815230600482015273ffffffffffffffffffffffffffffffffffffffff7f0000000000000000000000000000000000000000000000000000000000000000811660248301526000917f0000000000000000000000000000000000000000000000000000000000000000909116906319bc9ae890604401602060405180830381865afa1580156109c5573d6000803e3d6000fd5b505050506040513d601f19601f820116820180604052508101906109e99190610e58565b600054909150610a0182670de0b6b3a7640000610e06565b610a0b9190610e1d565b60016000828254610a1c9190610e71565b90915550506040517f1e83409a00000000000000000000000000000000000000000000000000000000815273ffffffffffffffffffffffffffffffffffffffff7f0000000000000000000000000000000000000000000000000000000000000000811660048301527f00000000000000000000000000000000000000000000000000000000000000001690631e83409a90602401600060405180830381600087803b158015610aca57600080fd5b505af1158015610ade573d6000803e3d6000fd5b5050505073ffffffffffffffffffffffffffffffffffffffff82811660009081526003602090815260408083205460015460029093529220547f00000000000000000000000000000000000000000000000000000000000000009093169263a9059cbb9286929091670de0b6b3a764000091610b5991610e06565b610b639190610e1d565b610b6d9190610df3565b6040517fffffffff0000000000000000000000000000000000000000000000000000000060e085901b16815273ffffffffffffffffffffffffffffffffffffffff90921660048301526024820152604401600060405180830381600087803b158015610bd857600080fd5b505af1158015610bec573d6000803e3d6000fd5b5050505073ffffffffffffffffffffffffffffffffffffffff8216600090815260026020526040902054600154670de0b6b3a764000091610c2c91610e06565b610c369190610e1d565b73ffffffffffffffffffffffffffffffffffffffff90921660009081526003602052604090209190915550565b600060208284031215610c7557600080fd5b5035919050565b600060208284031215610c8e57600080fd5b813573ffffffffffffffffffffffffffffffffffffffff81168114610cb257600080fd5b9392505050565b7f4e487b7100000000000000000000000000000000000000000000000000000000600052604160045260246000fd5b60006020808385031215610cfb57600080fd5b823567ffffffffffffffff80821115610d1357600080fd5b818501915085601f830112610d2757600080fd5b813581811115610d3957610d39610cb9565b8060051b6040517fffffffffffffffffffffffffffffffffffffffffffffffffffffffffffffffe0603f83011681018181108582111715610d7c57610d7c610cb9565b604052918252848201925083810185019188831115610d9a57600080fd5b938501935b82851015610db857843584529385019392850192610d9f565b98975050505050505050565b7f4e487b7100000000000000000000000000000000000000000000000000000000600052601160045260246000fd5b818103818111156105a2576105a2610dc4565b80820281158282048414176105a2576105a2610dc4565b600082610e53577f4e487b7100000000000000000000000000000000000000000000000000000000600052601260045260246000fd5b500490565b600060208284031215610e6a57600080fd5b5051919050565b808201808211156105a2576105a2610dc4565b60006040820173ffffffffffffffffffffffffffffffffffffffff851683526020604081850152818551808452606086019150828701935060005b81811015610edb57845183529383019391830191600101610ebf565b509097965050505050505056fea2646970667358221220fb587695bf88e6156b194a9a09857213132de2b181909238c91aac91c6388c6764736f6c63430008110033",
  "devdoc": {
    "kind": "dev",
    "methods": {},
    "version": 1
  },
  "userdoc": {
    "kind": "user",
    "methods": {},
    "version": 1
  },
  "storageLayout": {
    "storage": [
      {
        "astId": 10496,
        "contract": "contracts/Staking.sol:Staking",
        "label": "totalStaked",
        "offset": 0,
        "slot": "0",
        "type": "t_uint256"
      },
      {
        "astId": 10498,
        "contract": "contracts/Staking.sol:Staking",
        "label": "accRewardsPerToken",
        "offset": 0,
        "slot": "1",
        "type": "t_uint256"
      },
      {
        "astId": 10502,
        "contract": "contracts/Staking.sol:Staking",
        "label": "userStaked",
        "offset": 0,
        "slot": "2",
        "type": "t_mapping(t_address,t_uint256)"
      },
      {
        "astId": 10506,
        "contract": "contracts/Staking.sol:Staking",
        "label": "userPaid",
        "offset": 0,
        "slot": "3",
        "type": "t_mapping(t_address,t_uint256)"
      }
    ],
    "types": {
      "t_address": {
        "encoding": "inplace",
        "label": "address",
        "numberOfBytes": "20"
      },
      "t_mapping(t_address,t_uint256)": {
        "encoding": "mapping",
        "key": "t_address",
        "label": "mapping(address => uint256)",
        "numberOfBytes": "32",
        "value": "t_uint256"
      },
      "t_uint256": {
        "encoding": "inplace",
        "label": "uint256",
        "numberOfBytes": "32"
      }
    }
  }
}