{
  "address": "0x4eeEf5073d7602fad64F93762BbC1fdDA725C404",
  "abi": [
    {
      "inputs": [
        {
          "internalType": "address",
          "name": "_positions",
          "type": "address"
        },
        {
          "internalType": "uint256",
          "name": "_id",
          "type": "uint256"
        },
        {
          "internalType": "uint256",
          "name": "_liqPercent",
          "type": "uint256"
        }
      ],
      "name": "getLiqPrice",
      "outputs": [
        {
          "internalType": "uint256",
          "name": "",
          "type": "uint256"
        }
      ],
      "stateMutability": "view",
      "type": "function"
    },
    {
      "inputs": [
        {
          "internalType": "bool",
          "name": "_direction",
          "type": "bool"
        },
        {
          "internalType": "uint256",
          "name": "_tradePrice",
          "type": "uint256"
        },
        {
          "internalType": "uint256",
          "name": "_leverage",
          "type": "uint256"
        },
        {
          "internalType": "uint256",
          "name": "_margin",
          "type": "uint256"
        },
        {
          "internalType": "int256",
          "name": "_accInterest",
          "type": "int256"
        },
        {
          "internalType": "uint256",
          "name": "_liqPercent",
          "type": "uint256"
        }
      ],
      "name": "liqPrice",
      "outputs": [
        {
          "internalType": "uint256",
          "name": "_liqPrice",
          "type": "uint256"
        }
      ],
      "stateMutability": "pure",
      "type": "function"
    },
    {
      "inputs": [
        {
          "internalType": "bool",
          "name": "_direction",
          "type": "bool"
        },
        {
          "internalType": "uint256",
          "name": "_currentPrice",
          "type": "uint256"
        },
        {
          "internalType": "uint256",
          "name": "_price",
          "type": "uint256"
        },
        {
          "internalType": "uint256",
          "name": "_margin",
          "type": "uint256"
        },
        {
          "internalType": "uint256",
          "name": "_leverage",
          "type": "uint256"
        },
        {
          "internalType": "int256",
          "name": "accInterest",
          "type": "int256"
        }
      ],
      "name": "pnl",
      "outputs": [
        {
          "internalType": "uint256",
          "name": "_positionSize",
          "type": "uint256"
        },
        {
          "internalType": "int256",
          "name": "_payout",
          "type": "int256"
        }
      ],
      "stateMutability": "pure",
      "type": "function"
    }
  ],
  "transactionHash": "0xb8ced474ae427a26bd02c2973d40ae6882a6ceabfb2484768577ed2c4f837db2",
  "args": [],
  "numDeployments": 2,
  "solcInputHash": "7b1ca2c078e5196f2ac66a3b3c2e2fb9",
  "bytecode": "0x611ab261003a600b82828239805160001a60731461002d57634e487b7160e01b600052600060045260246000fd5b30600052607381538281f3fe73000000000000000000000000000000000000000030146080604052600436106100565760003560e01c806326d4e7751461005b578063360e804314610081578063d63b3c7b146100a9578063dc14457f146100bc575b600080fd5b61006e610069366004611364565b6100dc565b6040519081526020015b60405180910390f35b61009461008f3660046113a7565b61019f565b60408051928352602083019190915201610078565b61006e6100b73660046113a7565b610306565b8180156100c857600080fd5b5061006e6100d736600461147d565b6103e4565b6040517f1e6c598e00000000000000000000000000000000000000000000000000000000815260048101839052600090819073ffffffffffffffffffffffffffffffffffffffff861690631e6c598e9060240161018060405180830381865afa15801561014d573d6000803e3d6000fd5b505050506040513d601f19601f8201168201806040525081019061017191906115ea565b9050610196816060015182608001518360200151846000015185610160015188610306565b95945050505050565b600080670de0b6b3a7640000848602048880156101bc5750868810155b156102015783670de0b6b3a764000080898b670de0b6b3a764000002816101e5576101e5611699565b04038302816101f6576101f6611699565b0487010191506102e6565b88801561020d57508688105b1561025a5783670de0b6b3a7640000888a670de0b6b3a7640000028161023557610235611699565b04670de0b6b3a76400000383028161024f5761024f611699565b0487030191506102e6565b881580156102685750868811155b156102aa5783670de0b6b3a7640000888a670de0b6b3a7640000028161029057610290611699565b04670de0b6b3a7640000038302816101f6576101f6611699565b83670de0b6b3a764000080898b670de0b6b3a764000002816102ce576102ce611699565b04038302816102df576102df611699565b0487030191505b86888202816102f7576102f7611699565b04925050965096945050505050565b60008615610376576402540be400828561032086826116f7565b886103338b670de0b6b3a764000061171f565b61033d9190611736565b610347919061171f565b6103519190611736565b61035b919061171f565b6103659190611736565b61036f9087611771565b90506103da565b6402540be400828561038886826116f7565b8861039b8b670de0b6b3a764000061171f565b6103a59190611736565b6103af919061171f565b6103b99190611736565b6103c3919061171f565b6103cd9190611736565b6103d79087611784565b90505b9695505050505050565b600083868114610455576040517f08c379a000000000000000000000000000000000000000000000000000000000815260206004820152600660248201527f6c656e677468000000000000000000000000000000000000000000000000000060448201526064015b60405180910390fd5b8c8110156104bf576040517f08c379a000000000000000000000000000000000000000000000000000000000815260206004820152600760248201527f6d696e4e6f646500000000000000000000000000000000000000000000000000604482015260640161044c565b60008167ffffffffffffffff8111156104da576104da61154f565b604051908082528060200260200182016040528015610503578160200160208202803683370190505b50905060008267ffffffffffffffff8111156105215761052161154f565b60405190808252806020026020018201604052801561054a578160200160208202803683370190505b50905060005b83811015610bbe578a8a8281811061056a5761056a611797565b905060a00201602001358e146105dc576040517f08c379a000000000000000000000000000000000000000000000000000000000815260206004820152600660248201527f2141737365740000000000000000000000000000000000000000000000000000604482015260640161044c565b60006106f78a8a848181106105f3576105f3611797565b905060200281019061060591906117c6565b8080601f016020809104026020016040519081016040528093929190818152602001838380828437600081840152601f19601f820116905080830192505050505050506106f18e8e8681811061065d5761065d611797565b905060a00201604051602001610673919061182b565b604080517fffffffffffffffffffffffffffffffffffffffffffffffffffffffffffffffe081840301815282825280516020918201207f19457468657265756d205369676e6564204d6573736167653a0a33320000000084830152603c8085019190915282518085039091018152605c909301909152815191012090565b90610e53565b90508b8b8381811061070b5761070b611797565b61072192602060a090920201908101915061188f565b73ffffffffffffffffffffffffffffffffffffffff168173ffffffffffffffffffffffffffffffffffffffff16146107b5576040517f08c379a000000000000000000000000000000000000000000000000000000000815260206004820152600660248201527f4261645369670000000000000000000000000000000000000000000000000000604482015260640161044c565b73ffffffffffffffffffffffffffffffffffffffff811660009081526020889052604090205460ff16610844576040517f08c379a000000000000000000000000000000000000000000000000000000000815260206004820152600560248201527f214e6f6465000000000000000000000000000000000000000000000000000000604482015260640161044c565b8084838151811061085757610857611797565b73ffffffffffffffffffffffffffffffffffffffff928316602091820292909201810191909152908216600090815290899052604090205460ff16156108f9576040517f08c379a000000000000000000000000000000000000000000000000000000000815260206004820152600560248201527f4e6f646550000000000000000000000000000000000000000000000000000000604482015260640161044c565b73ffffffffffffffffffffffffffffffffffffffff8116600090815260208990526040902080547fffffffffffffffffffffffffffffffffffffffffffffffffffffffffffffff001660011790558b8b8381811061095957610959611797565b905060a00201608001602081019061097191906118b3565b156109d8576040517f08c379a000000000000000000000000000000000000000000000000000000000815260206004820152600660248201527f436c6f7365640000000000000000000000000000000000000000000000000000604482015260640161044c565b8b8b838181106109ea576109ea611797565b905060a0020160600135421015610a5d576040517f08c379a000000000000000000000000000000000000000000000000000000000815260206004820152600660248201527f4675745369670000000000000000000000000000000000000000000000000000604482015260640161044c565b8f8c8c84818110610a7057610a70611797565b905060a0020160600135610a849190611784565b421115610aed576040517f08c379a000000000000000000000000000000000000000000000000000000000815260206004820152600660248201527f4578705369670000000000000000000000000000000000000000000000000000604482015260640161044c565b60008c8c84818110610b0157610b01611797565b905060a002016040013511610b72576040517f08c379a000000000000000000000000000000000000000000000000000000000815260206004820152600760248201527f4e6f507269636500000000000000000000000000000000000000000000000000604482015260640161044c565b8b8b83818110610b8457610b84611797565b905060a0020160400135838381518110610ba057610ba0611797565b60209081029190910101525080610bb6816118d0565b915050610550565b506000610bca82610e79565b90508c8015610bee575073ffffffffffffffffffffffffffffffffffffffff8c1615155b15610db75760008c73ffffffffffffffffffffffffffffffffffffffff166350d25bcd6040518163ffffffff1660e01b8152600401602060405180830381865afa158015610c40573d6000803e3d6000fd5b505050506040513d601f19601f82011682018060405250810190610c649190611908565b90508015610db55760008d73ffffffffffffffffffffffffffffffffffffffff1663313ce5676040518163ffffffff1660e01b8152600401602060405180830381865afa158015610cb9573d6000803e3d6000fd5b505050506040513d601f19601f82011682018060405250810190610cdd9190611908565b610ce8906012611771565b610cf390600a611a41565b610cfd908361171f565b90506064610d0c82600261171f565b610d169190611736565b610d209082611784565b83108015610d4d57506064610d3682600261171f565b610d409190611736565b610d4a9082611771565b83115b610db3576040517f08c379a000000000000000000000000000000000000000000000000000000000815260206004820152600f60248201527f21636861696e6c696e6b50726963650000000000000000000000000000000000604482015260640161044c565b505b505b60005b84811015610e3f57876000858381518110610dd757610dd7611797565b60209081029190910181015173ffffffffffffffffffffffffffffffffffffffff16825281019190915260400160002080547fffffffffffffffffffffffffffffffffffffffffffffffffffffffffffffff0016905580610e37816118d0565b915050610dba565b509f9e505050505050505050505050505050565b6000806000610e628585610f3f565b91509150610e6f81610f84565b5090505b92915050565b6000610e88826000845161113a565b6002825181610e9957610e99611699565b0615610ecf57816002835181610eb157610eb1611699565b0481518110610ec257610ec2611797565b6020026020010151610e73565b6002826002845181610ee357610ee3611699565b0481518110610ef457610ef4611797565b60200260200101518360016002865181610f1057610f10611699565b040381518110610f2257610f22611797565b60200260200101510181610f3857610f38611699565b0492915050565b6000808251604103610f755760208301516040840151606085015160001a610f69878285856111e0565b94509450505050610f7d565b506000905060025b9250929050565b6000816004811115610f9857610f98611a4d565b03610fa05750565b6001816004811115610fb457610fb4611a4d565b0361101b576040517f08c379a000000000000000000000000000000000000000000000000000000000815260206004820152601860248201527f45434453413a20696e76616c6964207369676e61747572650000000000000000604482015260640161044c565b600281600481111561102f5761102f611a4d565b03611096576040517f08c379a000000000000000000000000000000000000000000000000000000000815260206004820152601f60248201527f45434453413a20696e76616c6964207369676e6174757265206c656e67746800604482015260640161044c565b60038160048111156110aa576110aa611a4d565b03611137576040517f08c379a000000000000000000000000000000000000000000000000000000000815260206004820152602260248201527f45434453413a20696e76616c6964207369676e6174757265202773272076616c60448201527f7565000000000000000000000000000000000000000000000000000000000000606482015260840161044c565b50565b80821061114657505050565b6000829050600084828151811061115f5761115f611797565b6020026020010151905060008460010190505b838110156111b4578186828151811061118d5761118d611797565b602002602001015110156111ac576111ac8682856001019550856112cf565b600101611172565b506111c08585846112cf565b6111cb85858461113a565b6111d985836001018561113a565b5050505050565b6000807f7fffffffffffffffffffffffffffffff5d576e7357a4501ddfe92f46681b20a083111561121757506000905060036112c6565b6040805160008082526020820180845289905260ff881692820192909252606081018690526080810185905260019060a0016020604051602081039080840390855afa15801561126b573d6000803e3d6000fd5b50506040517fffffffffffffffffffffffffffffffffffffffffffffffffffffffffffffffe0015191505073ffffffffffffffffffffffffffffffffffffffff81166112bf576000600192509250506112c6565b9150600090505b94509492505050565b8281815181106112e1576112e1611797565b60200260200101518383815181106112fb576112fb611797565b602002602001015184848151811061131557611315611797565b6020026020010185848151811061132e5761132e611797565b602090810291909101019190915252505050565b73ffffffffffffffffffffffffffffffffffffffff8116811461113757600080fd5b60008060006060848603121561137957600080fd5b833561138481611342565b95602085013595506040909401359392505050565b801515811461113757600080fd5b60008060008060008060c087890312156113c057600080fd5b86356113cb81611399565b9860208801359850604088013597606081013597506080810135965060a00135945092505050565b60008083601f84011261140557600080fd5b50813567ffffffffffffffff81111561141d57600080fd5b60208301915083602060a083028501011115610f7d57600080fd5b60008083601f84011261144a57600080fd5b50813567ffffffffffffffff81111561146257600080fd5b6020830191508360208260051b8501011115610f7d57600080fd5b60008060008060008060008060008060006101208c8e03121561149f57600080fd5b8b359a5060208c0135995060408c013598506114be60608d0135611399565b60608c013597506114d260808d0135611342565b60808c0135965067ffffffffffffffff8060a08e013511156114f357600080fd5b6115038e60a08f01358f016113f3565b909750955060c08d013581101561151957600080fd5b5061152a8d60c08e01358e01611438565b9b9e9a9d50989b979a96999598949794969560e0860135956101000135945092505050565b7f4e487b7100000000000000000000000000000000000000000000000000000000600052604160045260246000fd5b604051610180810167ffffffffffffffff811182821017156115c9577f4e487b7100000000000000000000000000000000000000000000000000000000600052604160045260246000fd5b60405290565b80516115da81611399565b919050565b80516115da81611342565b600061018082840312156115fd57600080fd5b61160561157e565b825181526020830151602082015260408301516040820152611629606084016115cf565b60608201526080830151608082015260a083015160a082015260c083015160c082015260e083015160e08201526101006116648185016115df565b9082015261012083810151908201526101406116818185016115df565b90820152610160928301519281019290925250919050565b7f4e487b7100000000000000000000000000000000000000000000000000000000600052601260045260246000fd5b7f4e487b7100000000000000000000000000000000000000000000000000000000600052601160045260246000fd5b8082018281126000831280158216821582161715611717576117176116c8565b505092915050565b8082028115828204841417610e7357610e736116c8565b60008261176c577f4e487b7100000000000000000000000000000000000000000000000000000000600052601260045260246000fd5b500490565b81810381811115610e7357610e736116c8565b80820180821115610e7357610e736116c8565b7f4e487b7100000000000000000000000000000000000000000000000000000000600052603260045260246000fd5b60008083357fffffffffffffffffffffffffffffffffffffffffffffffffffffffffffffffe18436030181126117fb57600080fd5b83018035915067ffffffffffffffff82111561181657600080fd5b602001915036819003821315610f7d57600080fd5b60a08101823561183a81611342565b73ffffffffffffffffffffffffffffffffffffffff8116835250602083013560208301526040830135604083015260608301356060830152608083013561188081611399565b80151560808401525092915050565b6000602082840312156118a157600080fd5b81356118ac81611342565b9392505050565b6000602082840312156118c557600080fd5b81356118ac81611399565b60007fffffffffffffffffffffffffffffffffffffffffffffffffffffffffffffffff8203611901576119016116c8565b5060010190565b60006020828403121561191a57600080fd5b5051919050565b600181815b8085111561197a57817fffffffffffffffffffffffffffffffffffffffffffffffffffffffffffffffff04821115611960576119606116c8565b8085161561196d57918102915b93841c9390800290611926565b509250929050565b60008261199157506001610e73565b8161199e57506000610e73565b81600181146119b457600281146119be576119da565b6001915050610e73565b60ff8411156119cf576119cf6116c8565b50506001821b610e73565b5060208310610133831016604e8410600b84101617156119fd575081810a610e73565b611a078383611921565b807fffffffffffffffffffffffffffffffffffffffffffffffffffffffffffffffff04821115611a3957611a396116c8565b029392505050565b60006118ac8383611982565b7f4e487b7100000000000000000000000000000000000000000000000000000000600052602160045260246000fdfea2646970667358221220139a511c2ba6d1288b157d10df69d4a934629f439eb6771c50e3e04b1ba519f964736f6c63430008110033",
  "devdoc": {
    "kind": "dev",
    "methods": {},
    "version": 1
  },
  "userdoc": {
    "kind": "user",
    "methods": {},
    "version": 1
  },
  "storageLayout": {
    "storage": [],
    "types": null
  }
}