{
  "address": "0x3Dfa012662eAa65102acC320D55c6314d75BaDA8",
  "abi": [
    {
      "inputs": [
        {
          "internalType": "address",
          "name": "_trading",
          "type": "address"
        },
        {
          "internalType": "address",
          "name": "_pairsContract",
          "type": "address"
        },
        {
          "internalType": "address",
          "name": "_ref",
          "type": "address"
        },
        {
          "internalType": "address",
          "name": "_position",
          "type": "address"
        }
      ],
      "stateMutability": "nonpayable",
      "type": "constructor"
    },
    {
      "anonymous": false,
      "inputs": [
        {
          "indexed": true,
          "internalType": "address",
          "name": "previousOwner",
          "type": "address"
        },
        {
          "indexed": true,
          "internalType": "address",
          "name": "newOwner",
          "type": "address"
        }
      ],
      "name": "OwnershipTransferred",
      "type": "event"
    },
    {
      "inputs": [],
      "name": "_checkGas",
      "outputs": [],
      "stateMutability": "view",
      "type": "function"
    },
    {
      "inputs": [
        {
          "internalType": "uint256",
          "name": "_id",
          "type": "uint256"
        },
        {
          "internalType": "uint256",
          "name": "_price",
          "type": "uint256"
        },
        {
          "internalType": "uint256",
          "name": "_percent",
          "type": "uint256"
        }
      ],
      "name": "_closePosition",
      "outputs": [
        {
          "components": [
            {
              "internalType": "uint256",
              "name": "margin",
              "type": "uint256"
            },
            {
              "internalType": "uint256",
              "name": "leverage",
              "type": "uint256"
            },
            {
              "internalType": "uint256",
              "name": "asset",
              "type": "uint256"
            },
            {
              "internalType": "bool",
              "name": "direction",
              "type": "bool"
            },
            {
              "internalType": "uint256",
              "name": "price",
              "type": "uint256"
            },
            {
              "internalType": "uint256",
              "name": "tpPrice",
              "type": "uint256"
            },
            {
              "internalType": "uint256",
              "name": "slPrice",
              "type": "uint256"
            },
            {
              "internalType": "uint256",
              "name": "orderType",
              "type": "uint256"
            },
            {
              "internalType": "address",
              "name": "trader",
              "type": "address"
            },
            {
              "internalType": "uint256",
              "name": "id",
              "type": "uint256"
            },
            {
              "internalType": "address",
              "name": "tigAsset",
              "type": "address"
            },
            {
              "internalType": "int256",
              "name": "accInterest",
              "type": "int256"
            }
          ],
          "internalType": "struct IPosition.Trade",
          "name": "_trade",
          "type": "tuple"
        },
        {
          "internalType": "uint256",
          "name": "_positionSize",
          "type": "uint256"
        },
        {
          "internalType": "int256",
          "name": "_payout",
          "type": "int256"
        }
      ],
      "stateMutability": "nonpayable",
      "type": "function"
    },
    {
      "inputs": [
        {
          "internalType": "uint256",
          "name": "_id",
          "type": "uint256"
        },
        {
          "internalType": "bool",
          "name": "_tp",
          "type": "bool"
        },
        {
          "components": [
            {
              "internalType": "address",
              "name": "provider",
              "type": "address"
            },
            {
              "internalType": "uint256",
              "name": "asset",
              "type": "uint256"
            },
            {
              "internalType": "uint256",
              "name": "price",
              "type": "uint256"
            },
            {
              "internalType": "uint256",
              "name": "timestamp",
              "type": "uint256"
            },
            {
              "internalType": "bool",
              "name": "isClosed",
              "type": "bool"
            }
          ],
          "internalType": "struct PriceData[]",
          "name": "_priceData",
          "type": "tuple[]"
        },
        {
          "internalType": "bytes[]",
          "name": "_signature",
          "type": "bytes[]"
        }
      ],
      "name": "_limitClose",
      "outputs": [
        {
          "internalType": "uint256",
          "name": "_limitPrice",
          "type": "uint256"
        },
        {
          "internalType": "address",
          "name": "_tigAsset",
          "type": "address"
        }
      ],
      "stateMutability": "nonpayable",
      "type": "function"
    },
    {
      "inputs": [
        {
          "internalType": "bytes32",
          "name": "_referral",
          "type": "bytes32"
        },
        {
          "internalType": "address",
          "name": "_trader",
          "type": "address"
        }
      ],
      "name": "_setReferral",
      "outputs": [],
      "stateMutability": "nonpayable",
      "type": "function"
    },
    {
      "inputs": [
        {
          "internalType": "address",
          "name": "",
          "type": "address"
        }
      ],
      "name": "allowedMargin",
      "outputs": [
        {
          "internalType": "bool",
          "name": "",
          "type": "bool"
        }
      ],
      "stateMutability": "view",
      "type": "function"
    },
    {
      "inputs": [],
      "name": "chainlinkEnabled",
      "outputs": [
        {
          "internalType": "bool",
          "name": "",
          "type": "bool"
        }
      ],
      "stateMutability": "view",
      "type": "function"
    },
    {
      "inputs": [
        {
          "internalType": "address",
          "name": "_trader",
          "type": "address"
        }
      ],
      "name": "getRef",
      "outputs": [
        {
          "internalType": "address",
          "name": "",
          "type": "address"
        }
      ],
      "stateMutability": "view",
      "type": "function"
    },
    {
      "inputs": [
        {
          "internalType": "uint256",
          "name": "_asset",
          "type": "uint256"
        },
        {
          "components": [
            {
              "internalType": "address",
              "name": "provider",
              "type": "address"
            },
            {
              "internalType": "uint256",
              "name": "asset",
              "type": "uint256"
            },
            {
              "internalType": "uint256",
              "name": "price",
              "type": "uint256"
            },
            {
              "internalType": "uint256",
              "name": "timestamp",
              "type": "uint256"
            },
            {
              "internalType": "bool",
              "name": "isClosed",
              "type": "bool"
            }
          ],
          "internalType": "struct PriceData[]",
          "name": "_priceData",
          "type": "tuple[]"
        },
        {
          "internalType": "bytes[]",
          "name": "_signature",
          "type": "bytes[]"
        },
        {
          "internalType": "bool",
          "name": "_isTrade",
          "type": "bool"
        },
        {
          "internalType": "uint256",
          "name": "_withSpreadIsLong",
          "type": "uint256"
        }
      ],
      "name": "getVerifiedPrice",
      "outputs": [
        {
          "internalType": "uint256",
          "name": "_price",
          "type": "uint256"
        }
      ],
      "stateMutability": "nonpayable",
      "type": "function"
    },
    {
      "inputs": [],
      "name": "maxGasPrice",
      "outputs": [
        {
          "internalType": "uint256",
          "name": "",
          "type": "uint256"
        }
      ],
      "stateMutability": "view",
      "type": "function"
    },
    {
      "inputs": [],
      "name": "minNodeCount",
      "outputs": [
        {
          "internalType": "uint256",
          "name": "",
          "type": "uint256"
        }
      ],
      "stateMutability": "view",
      "type": "function"
    },
    {
      "inputs": [
        {
          "internalType": "address",
          "name": "_asset",
          "type": "address"
        }
      ],
      "name": "minPos",
      "outputs": [
        {
          "internalType": "uint256",
          "name": "",
          "type": "uint256"
        }
      ],
      "stateMutability": "view",
      "type": "function"
    },
    {
      "inputs": [
        {
          "internalType": "address",
          "name": "",
          "type": "address"
        }
      ],
      "name": "minPositionSize",
      "outputs": [
        {
          "internalType": "uint256",
          "name": "",
          "type": "uint256"
        }
      ],
      "stateMutability": "view",
      "type": "function"
    },
    {
      "inputs": [
        {
          "internalType": "uint256",
          "name": "_asset",
          "type": "uint256"
        },
        {
          "internalType": "address",
          "name": "_tigAsset",
          "type": "address"
        },
        {
          "internalType": "bool",
          "name": "_onOpen",
          "type": "bool"
        },
        {
          "internalType": "uint256",
          "name": "_size",
          "type": "uint256"
        }
      ],
      "name": "modifyLongOi",
      "outputs": [],
      "stateMutability": "nonpayable",
      "type": "function"
    },
    {
      "inputs": [
        {
          "internalType": "uint256",
          "name": "_asset",
          "type": "uint256"
        },
        {
          "internalType": "address",
          "name": "_tigAsset",
          "type": "address"
        },
        {
          "internalType": "bool",
          "name": "_onOpen",
          "type": "bool"
        },
        {
          "internalType": "uint256",
          "name": "_size",
          "type": "uint256"
        }
      ],
      "name": "modifyShortOi",
      "outputs": [],
      "stateMutability": "nonpayable",
      "type": "function"
    },
    {
      "inputs": [],
      "name": "owner",
      "outputs": [
        {
          "internalType": "address",
          "name": "",
          "type": "address"
        }
      ],
      "stateMutability": "view",
      "type": "function"
    },
    {
      "inputs": [],
      "name": "paused",
      "outputs": [
        {
          "internalType": "bool",
          "name": "",
          "type": "bool"
        }
      ],
      "stateMutability": "view",
      "type": "function"
    },
    {
      "inputs": [],
      "name": "renounceOwnership",
      "outputs": [],
      "stateMutability": "nonpayable",
      "type": "function"
    },
    {
      "inputs": [
        {
          "internalType": "address",
          "name": "_tigAsset",
          "type": "address"
        },
        {
          "internalType": "bool",
          "name": "_bool",
          "type": "bool"
        }
      ],
      "name": "setAllowedMargin",
      "outputs": [],
      "stateMutability": "nonpayable",
      "type": "function"
    },
    {
      "inputs": [
        {
          "internalType": "address",
          "name": "_node",
          "type": "address"
        },
        {
          "internalType": "bool",
          "name": "_bool",
          "type": "bool"
        }
      ],
      "name": "setBotNode",
      "outputs": [],
      "stateMutability": "nonpayable",
      "type": "function"
    },
    {
      "inputs": [
        {
          "internalType": "bool",
          "name": "_bool",
          "type": "bool"
        }
      ],
      "name": "setChainlinkEnabled",
      "outputs": [],
      "stateMutability": "nonpayable",
      "type": "function"
    },
    {
      "inputs": [
        {
          "internalType": "uint256",
          "name": "_maxGasPrice",
          "type": "uint256"
        }
      ],
      "name": "setMaxGasPrice",
      "outputs": [],
      "stateMutability": "nonpayable",
      "type": "function"
    },
    {
      "inputs": [
        {
          "internalType": "uint256",
          "name": "_minNodeCount",
          "type": "uint256"
        }
      ],
      "name": "setMinNodeCount",
      "outputs": [],
      "stateMutability": "nonpayable",
      "type": "function"
    },
    {
      "inputs": [
        {
          "internalType": "address",
          "name": "_tigAsset",
          "type": "address"
        },
        {
          "internalType": "uint256",
          "name": "_min",
          "type": "uint256"
        }
      ],
      "name": "setMinPositionSize",
      "outputs": [],
      "stateMutability": "nonpayable",
      "type": "function"
    },
    {
      "inputs": [
        {
          "internalType": "bool",
          "name": "_paused",
          "type": "bool"
        }
      ],
      "name": "setPaused",
      "outputs": [],
      "stateMutability": "nonpayable",
      "type": "function"
    },
    {
      "inputs": [
        {
          "internalType": "uint256",
          "name": "_asset",
          "type": "uint256"
        },
        {
          "internalType": "uint256",
          "name": "_spread",
          "type": "uint256"
        }
      ],
      "name": "setSpread",
      "outputs": [],
      "stateMutability": "nonpayable",
      "type": "function"
    },
    {
      "inputs": [
        {
          "internalType": "address",
          "name": "_node",
          "type": "address"
        },
        {
          "internalType": "bool",
          "name": "_bool",
          "type": "bool"
        }
      ],
      "name": "setTradeNode",
      "outputs": [],
      "stateMutability": "nonpayable",
      "type": "function"
    },
    {
      "inputs": [
        {
          "internalType": "uint256",
          "name": "_validSignatureTimer",
          "type": "uint256"
        }
      ],
      "name": "setValidSignatureTimer",
      "outputs": [],
      "stateMutability": "nonpayable",
      "type": "function"
    },
    {
      "inputs": [
        {
          "internalType": "uint256",
          "name": "",
          "type": "uint256"
        }
      ],
      "name": "spread",
      "outputs": [
        {
          "internalType": "uint256",
          "name": "",
          "type": "uint256"
        }
      ],
      "stateMutability": "view",
      "type": "function"
    },
    {
      "inputs": [],
      "name": "trading",
      "outputs": [
        {
          "internalType": "address",
          "name": "",
          "type": "address"
        }
      ],
      "stateMutability": "view",
      "type": "function"
    },
    {
      "inputs": [
        {
          "internalType": "address",
          "name": "newOwner",
          "type": "address"
        }
      ],
      "name": "transferOwnership",
      "outputs": [],
      "stateMutability": "nonpayable",
      "type": "function"
    },
    {
      "inputs": [],
      "name": "validSignatureTimer",
      "outputs": [
        {
          "internalType": "uint256",
          "name": "",
          "type": "uint256"
        }
      ],
      "stateMutability": "view",
      "type": "function"
    },
    {
      "inputs": [
        {
          "internalType": "uint256",
          "name": "_asset",
          "type": "uint256"
        },
        {
          "internalType": "address",
          "name": "_tigAsset",
          "type": "address"
        },
        {
          "internalType": "uint256",
          "name": "_margin",
          "type": "uint256"
        },
        {
          "internalType": "uint256",
          "name": "_leverage",
          "type": "uint256"
        }
      ],
      "name": "validateTrade",
      "outputs": [],
      "stateMutability": "view",
      "type": "function"
    }
  ],
  "transactionHash": "0xad51b679359fd17ae9ea2a9bae56d3e2580e0a0af06dcaee47a11fb1d57d36ee",
  "args": [
    "0x28c5d4416f6cf0FC5F557067b54BD67a43fcC98F",
    "0x64c96eE480ab084D01dC682DB0197a68C664D724",
    "0xfE4AF289b1a3fA6ac8902031eAD94ff4D57D01f8",
    "0xBB323fE012BFA1728AF14941D09E479612b64281"
  ],
  "numDeployments": 1,
  "solcInputHash": "7b1ca2c078e5196f2ac66a3b3c2e2fb9",
  "bytecode": "0x608060405264e8d4a51000600e553480156200001a57600080fd5b50604051620027bc380380620027bc8339810160408190526200003d9162000117565b6200004833620000aa565b600180546001600160a01b039586166001600160a01b031991821617909155600b805494861661010002610100600160a81b031990951694909417909355600c805492851692841692909217909155600d805491909316911617905562000174565b600080546001600160a01b038381166001600160a01b0319831681178455604051919092169283917f8be0079c531659141344cd1fd0a4f28419497f9722a3daafe3b4186f6b6457e09190a35050565b80516001600160a01b03811681146200011257600080fd5b919050565b600080600080608085870312156200012e57600080fd5b6200013985620000fa565b93506200014960208601620000fa565b92506200015960408601620000fa565b91506200016960608601620000fa565b905092959194509250565b61263880620001846000396000f3fe608060405234801561001057600080fd5b50600436106101f05760003560e01c80638485b6241161010f578063bf5d598d116100a2578063e9726abf11610071578063e9726abf1461049f578063ec44acf2146104a8578063ef37d94b146104c8578063f2fde38b146104ea57600080fd5b8063bf5d598d1461045d578063c435233f14610466578063d2fa635e14610479578063e6793a541461048c57600080fd5b8063a73dce15116100de578063a73dce15146103ed578063a893cf9014610400578063ae86da641461040d578063b4bb03fc1461042057600080fd5b80638485b62414610373578063879bafb11461038657806387a64cfa146103bc5780638da5cb5b146103cf57600080fd5b8063620b95841161018757806378157a901161015657806378157a9014610327578063797b371e1461033a5780637f407edf1461034d57806380a1c4f51461036057600080fd5b8063620b9584146102e4578063638769f5146102f757806366b481e814610317578063715018a61461031f57600080fd5b80632b355e01116101c35780632b355e01146102635780633de39c11146102965780635a7db5331461029f5780635c975abb146102d757600080fd5b8063058f3bc8146101f557806316c38b3c1461020a5780631b6cc2971461021d57806325f2f47914610250575b600080fd5b610208610203366004611bb8565b6104fd565b005b610208610218366004611bb8565b610536565b61023d61022b366004611bfe565b60086020526000908152604090205481565b6040519081526020015b60405180910390f35b61020861025e366004611c1b565b61056f565b610286610271366004611bfe565b60096020526000908152604090205460ff1681565b6040519015158152602001610247565b61023d600e5481565b6102b26102ad366004611bfe565b6105a0565b60405173ffffffffffffffffffffffffffffffffffffffff9091168152602001610247565b600b546102869060ff1681565b6102086102f2366004611c47565b6106a2565b61023d610305366004611c8f565b600a6020526000908152604090205481565b6102086107d0565b61020861083e565b610208610335366004611ca8565b610850565b610208610348366004611c8f565b610c27565b61020861035b366004611ce5565b610c34565b61020861036e366004611d07565b610cbd565b610208610381366004611d40565b610d1b565b61023d610394366004611bfe565b73ffffffffffffffffffffffffffffffffffffffff1660009081526008602052604090205490565b6102086103ca366004611c47565b610f7c565b60005473ffffffffffffffffffffffffffffffffffffffff166102b2565b6102086103fb366004611d07565b611071565b6004546102869060ff1681565b61020861041b366004611d07565b6110cf565b61043361042e366004611df6565b61112d565b6040805192835273ffffffffffffffffffffffffffffffffffffffff909116602083015201610247565b61023d60035481565b61023d610474366004611e82565b611537565b610208610487366004611c8f565b611739565b61020861049a366004611c8f565b611746565b61023d60025481565b6001546102b29073ffffffffffffffffffffffffffffffffffffffff1681565b6104db6104d6366004611f19565b611753565b60405161024793929190611f45565b6102086104f8366004611bfe565b6119fd565b610505611ab4565b600480547fffffffffffffffffffffffffffffffffffffffffffffffffffffffffffffff0016911515919091179055565b61053e611ab4565b600b80547fffffffffffffffffffffffffffffffffffffffffffffffffffffffffffffff0016911515919091179055565b610577611ab4565b73ffffffffffffffffffffffffffffffffffffffff909116600090815260086020526040902055565b600c546040517fd113f04c00000000000000000000000000000000000000000000000000000000815273ffffffffffffffffffffffffffffffffffffffff838116600483015260009216906382e58d5190829063d113f04c90602401602060405180830381865afa158015610619573d6000803e3d6000fd5b505050506040513d601f19601f8201168201806040525081019061063d9190612019565b6040518263ffffffff1660e01b815260040161065b91815260200190565b602060405180830381865afa158015610678573d6000803e3d6000fd5b505050506040513d601f19601f8201168201806040525081019061069c9190612042565b92915050565b60015473ffffffffffffffffffffffffffffffffffffffff163314610728576040517f08c379a000000000000000000000000000000000000000000000000000000000815260206004820152600960248201527f2170726f746f636f6c000000000000000000000000000000000000000000000060448201526064015b60405180910390fd5b600b546040517f620b95840000000000000000000000000000000000000000000000000000000081526004810186905273ffffffffffffffffffffffffffffffffffffffff85811660248301528415156044830152606482018490526101009092049091169063620b9584906084015b600060405180830381600087803b1580156107b257600080fd5b505af11580156107c6573d6000803e3d6000fd5b5050505050505050565b600e543a111561083c576040517f08c379a000000000000000000000000000000000000000000000000000000000815260206004820152600160248201527f3100000000000000000000000000000000000000000000000000000000000000604482015260640161071f565b565b610846611ab4565b61083c6000611b35565b600b546040517fc688fca700000000000000000000000000000000000000000000000000000000815260048101869052600091610100900473ffffffffffffffffffffffffffffffffffffffff169063c688fca790602401600060405180830381865afa1580156108c5573d6000803e3d6000fd5b505050506040513d6000823e601f3d9081017fffffffffffffffffffffffffffffffffffffffffffffffffffffffffffffffe016820160405261090b919081019061212a565b73ffffffffffffffffffffffffffffffffffffffff851660009081526009602052604090205490915060ff1661099d576040517f08c379a000000000000000000000000000000000000000000000000000000000815260206004820152600760248201527f216d617267696e00000000000000000000000000000000000000000000000000604482015260640161071f565b600b5460ff1615610a0a576040517f08c379a000000000000000000000000000000000000000000000000000000000815260206004820152600660248201527f7061757365640000000000000000000000000000000000000000000000000000604482015260640161071f565b600b546040517fd8a5f72f0000000000000000000000000000000000000000000000000000000081526004810187905261010090910473ffffffffffffffffffffffffffffffffffffffff169063d8a5f72f90602401602060405180830381865afa158015610a7d573d6000803e3d6000fd5b505050506040513d601f19601f82011682018060405250810190610aa19190612263565b610b07576040517f08c379a000000000000000000000000000000000000000000000000000000000815260206004820152600860248201527f21616c6c6f776564000000000000000000000000000000000000000000000000604482015260640161071f565b8060400151821080610b1c5750806060015182115b15610b85576040517f08c379a000000000000000000000000000000000000000000000000000000000815260040161071f9060208082526004908201527f216c657600000000000000000000000000000000000000000000000000000000604082015260600190565b73ffffffffffffffffffffffffffffffffffffffff8416600090815260086020526040902054670de0b6b3a7640000848402041015610c20576040517f08c379a000000000000000000000000000000000000000000000000000000000815260206004820152600560248201527f2173697a65000000000000000000000000000000000000000000000000000000604482015260640161071f565b5050505050565b610c2f611ab4565b600355565b610c3c611ab4565b6402540be400811115610cab576040517f08c379a000000000000000000000000000000000000000000000000000000000815260206004820152600760248201527f2173707265616400000000000000000000000000000000000000000000000000604482015260640161071f565b6000918252600a602052604090912055565b610cc5611ab4565b73ffffffffffffffffffffffffffffffffffffffff91909116600090815260096020526040902080547fffffffffffffffffffffffffffffffffffffffffffffffffffffffffffffff0016911515919091179055565b60015473ffffffffffffffffffffffffffffffffffffffff163314610d9c576040517f08c379a000000000000000000000000000000000000000000000000000000000815260206004820152600960248201527f2170726f746f636f6c0000000000000000000000000000000000000000000000604482015260640161071f565b8115610f7857600c546040517f82e58d510000000000000000000000000000000000000000000000000000000081526004810184905260009173ffffffffffffffffffffffffffffffffffffffff16906382e58d5190602401602060405180830381865afa158015610e12573d6000803e3d6000fd5b505050506040513d601f19601f82011682018060405250810190610e369190612042565b73ffffffffffffffffffffffffffffffffffffffff1614610f7857600c546040517fd113f04c00000000000000000000000000000000000000000000000000000000815273ffffffffffffffffffffffffffffffffffffffff8381166004830152600092169063d113f04c90602401602060405180830381865afa158015610ec2573d6000803e3d6000fd5b505050506040513d601f19601f82011682018060405250810190610ee69190612019565b03610f7857600c546040517fe20c854800000000000000000000000000000000000000000000000000000000815273ffffffffffffffffffffffffffffffffffffffff8381166004830152602482018590529091169063e20c854890604401600060405180830381600087803b158015610f5f57600080fd5b505af1158015610f73573d6000803e3d6000fd5b505050505b5050565b60015473ffffffffffffffffffffffffffffffffffffffff163314610ffd576040517f08c379a000000000000000000000000000000000000000000000000000000000815260206004820152600960248201527f2170726f746f636f6c0000000000000000000000000000000000000000000000604482015260640161071f565b600b546040517f87a64cfa0000000000000000000000000000000000000000000000000000000081526004810186905273ffffffffffffffffffffffffffffffffffffffff8581166024830152841515604483015260648201849052610100909204909116906387a64cfa90608401610798565b611079611ab4565b73ffffffffffffffffffffffffffffffffffffffff91909116600090815260066020526040902080547fffffffffffffffffffffffffffffffffffffffffffffffffffffffffffffff0016911515919091179055565b6110d7611ab4565b73ffffffffffffffffffffffffffffffffffffffff91909116600090815260076020526040902080547fffffffffffffffffffffffffffffffffffffffffffffffffffffffffffffff0016911515919091179055565b6000806111386107d0565b600d546040517f1e6c598e000000000000000000000000000000000000000000000000000000008152600481018a905260009173ffffffffffffffffffffffffffffffffffffffff1690631e6c598e9060240161018060405180830381865afa1580156111a9573d6000803e3d6000fd5b505050506040513d601f19601f820116820180604052508101906111cd91906122af565b9050806101400151915060006111ee82604001518989898960006002611537565b90508160e0015160001461125e576040517f08c379a000000000000000000000000000000000000000000000000000000000815260206004820152600160248201527f3400000000000000000000000000000000000000000000000000000000000000604482015260640161071f565b88156113c9578160a001516000036112d2576040517f08c379a000000000000000000000000000000000000000000000000000000000815260206004820152600160248201527f3700000000000000000000000000000000000000000000000000000000000000604482015260640161071f565b81606001511561134f57808260a00151111561134a576040517f08c379a000000000000000000000000000000000000000000000000000000000815260206004820152600160248201527f3600000000000000000000000000000000000000000000000000000000000000604482015260640161071f565b6113bd565b808260a0015110156113bd576040517f08c379a000000000000000000000000000000000000000000000000000000000815260206004820152600160248201527f3600000000000000000000000000000000000000000000000000000000000000604482015260640161071f565b8160a00151935061152a565b8160c00151600003611437576040517f08c379a000000000000000000000000000000000000000000000000000000000815260206004820152600160248201527f3700000000000000000000000000000000000000000000000000000000000000604482015260640161071f565b8160600151156114b457808260c0015110156114af576040517f08c379a000000000000000000000000000000000000000000000000000000000815260206004820152600160248201527f3600000000000000000000000000000000000000000000000000000000000000604482015260640161071f565b611522565b808260c001511115611522576040517f08c379a000000000000000000000000000000000000000000000000000000000815260206004820152600160248201527f3600000000000000000000000000000000000000000000000000000000000000604482015260640161071f565b8160c0015193505b5050965096945050505050565b6000734eeEf5073d7602fad64F93762BbC1fdDA725C40463dc14457f6002546003548b600460009054906101000a900460ff16600b60019054906101000a900473ffffffffffffffffffffffffffffffffffffffff1673ffffffffffffffffffffffffffffffffffffffff1663c688fca78f6040518263ffffffff1660e01b81526004016115c791815260200190565b600060405180830381865afa1580156115e4573d6000803e3d6000fd5b505050506040513d6000823e601f3d9081017fffffffffffffffffffffffffffffffffffffffffffffffffffffffffffffffe016820160405261162a919081019061212a565b602001518d8d8d8d60058e611640576006611643565b60075b6040518c63ffffffff1660e01b81526004016116699b9a99989796959493929190612454565b602060405180830381865af4158015611686573d6000803e3d6000fd5b505050506040513d601f19601f820116820180604052508101906116aa9190612019565b9050816001036116ef576000888152600a60205260409020546402540be400906116d49083612566565b6116de919061257d565b6116e890826125b8565b905061172e565b8160020361172e576000888152600a60205260409020546402540be400906117179083612566565b611721919061257d565b61172b90826125cb565b90505b979650505050505050565b611741611ab4565b600e55565b61174e611ab4565b600255565b6117e560405180610180016040528060008152602001600081526020016000815260200160001515815260200160008152602001600081526020016000815260200160008152602001600073ffffffffffffffffffffffffffffffffffffffff16815260200160008152602001600073ffffffffffffffffffffffffffffffffffffffff168152602001600081525090565b600d546040517f1e6c598e00000000000000000000000000000000000000000000000000000000815260048101869052600091829173ffffffffffffffffffffffffffffffffffffffff90911690631e6c598e9060240161018060405180830381865afa15801561185a573d6000803e3d6000fd5b505050506040513d601f19601f8201168201806040525081019061187e91906122af565b60608101516080820151825160208401516101608501516040517f360e80430000000000000000000000000000000000000000000000000000000081529415156004860152602485018b905260448501939093526064840191909152608483015260a4820152909350734eeEf5073d7602fad64F93762BbC1fdDA725C4049063360e80439060c4016040805180830381865af4158015611922573d6000803e3d6000fd5b505050506040513d601f19601f8201168201806040525081019061194691906125de565b60608501519193509150156119a7576119a2836040015184610140015160006402540be40088670de0b6b3a764000089602001518a60000151028161198d5761198d612280565b04028161199c5761199c612280565b04610f7c565b6119f4565b6119f4836040015184610140015160006402540be40088670de0b6b3a764000089602001518a6000015102816119df576119df612280565b0402816119ee576119ee612280565b046106a2565b93509350939050565b611a05611ab4565b73ffffffffffffffffffffffffffffffffffffffff8116611aa8576040517f08c379a000000000000000000000000000000000000000000000000000000000815260206004820152602660248201527f4f776e61626c653a206e6577206f776e657220697320746865207a65726f206160448201527f6464726573730000000000000000000000000000000000000000000000000000606482015260840161071f565b611ab181611b35565b50565b60005473ffffffffffffffffffffffffffffffffffffffff16331461083c576040517f08c379a000000000000000000000000000000000000000000000000000000000815260206004820181905260248201527f4f776e61626c653a2063616c6c6572206973206e6f7420746865206f776e6572604482015260640161071f565b6000805473ffffffffffffffffffffffffffffffffffffffff8381167fffffffffffffffffffffffff0000000000000000000000000000000000000000831681178455604051919092169283917f8be0079c531659141344cd1fd0a4f28419497f9722a3daafe3b4186f6b6457e09190a35050565b8015158114611ab157600080fd5b600060208284031215611bca57600080fd5b8135611bd581611baa565b9392505050565b73ffffffffffffffffffffffffffffffffffffffff81168114611ab157600080fd5b600060208284031215611c1057600080fd5b8135611bd581611bdc565b60008060408385031215611c2e57600080fd5b8235611c3981611bdc565b946020939093013593505050565b60008060008060808587031215611c5d57600080fd5b843593506020850135611c6f81611bdc565b92506040850135611c7f81611baa565b9396929550929360600135925050565b600060208284031215611ca157600080fd5b5035919050565b60008060008060808587031215611cbe57600080fd5b843593506020850135611cd081611bdc565b93969395505050506040820135916060013590565b60008060408385031215611cf857600080fd5b50508035926020909101359150565b60008060408385031215611d1a57600080fd5b8235611d2581611bdc565b91506020830135611d3581611baa565b809150509250929050565b60008060408385031215611d5357600080fd5b823591506020830135611d3581611bdc565b60008083601f840112611d7757600080fd5b50813567ffffffffffffffff811115611d8f57600080fd5b60208301915083602060a083028501011115611daa57600080fd5b9250929050565b60008083601f840112611dc357600080fd5b50813567ffffffffffffffff811115611ddb57600080fd5b6020830191508360208260051b8501011115611daa57600080fd5b60008060008060008060808789031215611e0f57600080fd5b863595506020870135611e2181611baa565b9450604087013567ffffffffffffffff80821115611e3e57600080fd5b611e4a8a838b01611d65565b90965094506060890135915080821115611e6357600080fd5b50611e7089828a01611db1565b979a9699509497509295939492505050565b600080600080600080600060a0888a031215611e9d57600080fd5b87359650602088013567ffffffffffffffff80821115611ebc57600080fd5b611ec88b838c01611d65565b909850965060408a0135915080821115611ee157600080fd5b50611eee8a828b01611db1565b9095509350506060880135611f0281611baa565b809250506080880135905092959891949750929550565b600080600060608486031215611f2e57600080fd5b505081359360208301359350604090920135919050565b60006101c0820190508451825260208501516020830152604085015160408301526060850151611f79606084018215159052565b506080850151608083015260a085015160a083015260c085015160c083015260e085015160e083015261010080860151611fca8285018273ffffffffffffffffffffffffffffffffffffffff169052565b505061012085810151908301526101408086015173ffffffffffffffffffffffffffffffffffffffff169083015261016094850151948201949094526101808101929092526101a09091015290565b60006020828403121561202b57600080fd5b5051919050565b805161203d81611bdc565b919050565b60006020828403121561205457600080fd5b8151611bd581611bdc565b7f4e487b7100000000000000000000000000000000000000000000000000000000600052604160045260246000fd5b60405160c0810167ffffffffffffffff811182821017156120b1576120b161205f565b60405290565b604051610180810167ffffffffffffffff811182821017156120b1576120b161205f565b604051601f82017fffffffffffffffffffffffffffffffffffffffffffffffffffffffffffffffe016810167ffffffffffffffff811182821017156121225761212261205f565b604052919050565b6000602080838503121561213d57600080fd5b825167ffffffffffffffff8082111561215557600080fd5b9084019060c0828703121561216957600080fd5b61217161208e565b82518281111561218057600080fd5b8301601f8101881361219157600080fd5b8051838111156121a3576121a361205f565b6121d3867fffffffffffffffffffffffffffffffffffffffffffffffffffffffffffffffe0601f840116016120db565b935080845288868284010111156121e957600080fd5b60005b818110156122075782810187015185820188015286016121ec565b5060009084018601525081815261221f838501612032565b8482015260408301516040820152606083015160608201526080830151608082015260a083015160a08201528094505050505092915050565b805161203d81611baa565b60006020828403121561227557600080fd5b8151611bd581611baa565b7f4e487b7100000000000000000000000000000000000000000000000000000000600052601260045260246000fd5b600061018082840312156122c257600080fd5b6122ca6120b7565b8251815260208301516020820152604083015160408201526122ee60608401612258565b60608201526080830151608082015260a083015160a082015260c083015160c082015260e083015160e0820152610100612329818501612032565b908201526101208381015190820152610140612346818501612032565b90820152610160928301519281019290925250919050565b8183528181602085013750600060208284010152600060207fffffffffffffffffffffffffffffffffffffffffffffffffffffffffffffffe0601f840116840101905092915050565b818352600060208085019450848460051b86018460005b8781101561244757838303895281357fffffffffffffffffffffffffffffffffffffffffffffffffffffffffffffffe18836030181126123fd57600080fd5b8701858101903567ffffffffffffffff81111561241957600080fd5b80360382131561242857600080fd5b61243385828461235e565b9a87019a94505050908401906001016123be565b5090979650505050505050565b60006101208083018e84528d602085015260408d8186015260608d151581870152608073ffffffffffffffffffffffffffffffffffffffff808f168289015260a086818a01528596508d8652610140890196508e955060005b8e8110156125015786356124c081611bdc565b831688526020878101359089015285870135868901528487013585890152838701356124eb81611baa565b15158885015296810196958101956001016124ad565b5050505050505082810360c084015261251b8187896123a7565b60e0840195909552505061010001529998505050505050505050565b7f4e487b7100000000000000000000000000000000000000000000000000000000600052601160045260246000fd5b808202811582820484141761069c5761069c612537565b6000826125b3577f4e487b7100000000000000000000000000000000000000000000000000000000600052601260045260246000fd5b500490565b8082018082111561069c5761069c612537565b8181038181111561069c5761069c612537565b600080604083850312156125f157600080fd5b50508051602090910151909290915056fea2646970667358221220fd37d3138a56b667e81091765dd803c1a9b386e829af17e7cc561ea88a51a9af64736f6c63430008110033",
  "deployedBytecode": "0x608060405234801561001057600080fd5b50600436106101f05760003560e01c80638485b6241161010f578063bf5d598d116100a2578063e9726abf11610071578063e9726abf1461049f578063ec44acf2146104a8578063ef37d94b146104c8578063f2fde38b146104ea57600080fd5b8063bf5d598d1461045d578063c435233f14610466578063d2fa635e14610479578063e6793a541461048c57600080fd5b8063a73dce15116100de578063a73dce15146103ed578063a893cf9014610400578063ae86da641461040d578063b4bb03fc1461042057600080fd5b80638485b62414610373578063879bafb11461038657806387a64cfa146103bc5780638da5cb5b146103cf57600080fd5b8063620b95841161018757806378157a901161015657806378157a9014610327578063797b371e1461033a5780637f407edf1461034d57806380a1c4f51461036057600080fd5b8063620b9584146102e4578063638769f5146102f757806366b481e814610317578063715018a61461031f57600080fd5b80632b355e01116101c35780632b355e01146102635780633de39c11146102965780635a7db5331461029f5780635c975abb146102d757600080fd5b8063058f3bc8146101f557806316c38b3c1461020a5780631b6cc2971461021d57806325f2f47914610250575b600080fd5b610208610203366004611bb8565b6104fd565b005b610208610218366004611bb8565b610536565b61023d61022b366004611bfe565b60086020526000908152604090205481565b6040519081526020015b60405180910390f35b61020861025e366004611c1b565b61056f565b610286610271366004611bfe565b60096020526000908152604090205460ff1681565b6040519015158152602001610247565b61023d600e5481565b6102b26102ad366004611bfe565b6105a0565b60405173ffffffffffffffffffffffffffffffffffffffff9091168152602001610247565b600b546102869060ff1681565b6102086102f2366004611c47565b6106a2565b61023d610305366004611c8f565b600a6020526000908152604090205481565b6102086107d0565b61020861083e565b610208610335366004611ca8565b610850565b610208610348366004611c8f565b610c27565b61020861035b366004611ce5565b610c34565b61020861036e366004611d07565b610cbd565b610208610381366004611d40565b610d1b565b61023d610394366004611bfe565b73ffffffffffffffffffffffffffffffffffffffff1660009081526008602052604090205490565b6102086103ca366004611c47565b610f7c565b60005473ffffffffffffffffffffffffffffffffffffffff166102b2565b6102086103fb366004611d07565b611071565b6004546102869060ff1681565b61020861041b366004611d07565b6110cf565b61043361042e366004611df6565b61112d565b6040805192835273ffffffffffffffffffffffffffffffffffffffff909116602083015201610247565b61023d60035481565b61023d610474366004611e82565b611537565b610208610487366004611c8f565b611739565b61020861049a366004611c8f565b611746565b61023d60025481565b6001546102b29073ffffffffffffffffffffffffffffffffffffffff1681565b6104db6104d6366004611f19565b611753565b60405161024793929190611f45565b6102086104f8366004611bfe565b6119fd565b610505611ab4565b600480547fffffffffffffffffffffffffffffffffffffffffffffffffffffffffffffff0016911515919091179055565b61053e611ab4565b600b80547fffffffffffffffffffffffffffffffffffffffffffffffffffffffffffffff0016911515919091179055565b610577611ab4565b73ffffffffffffffffffffffffffffffffffffffff909116600090815260086020526040902055565b600c546040517fd113f04c00000000000000000000000000000000000000000000000000000000815273ffffffffffffffffffffffffffffffffffffffff838116600483015260009216906382e58d5190829063d113f04c90602401602060405180830381865afa158015610619573d6000803e3d6000fd5b505050506040513d601f19601f8201168201806040525081019061063d9190612019565b6040518263ffffffff1660e01b815260040161065b91815260200190565b602060405180830381865afa158015610678573d6000803e3d6000fd5b505050506040513d601f19601f8201168201806040525081019061069c9190612042565b92915050565b60015473ffffffffffffffffffffffffffffffffffffffff163314610728576040517f08c379a000000000000000000000000000000000000000000000000000000000815260206004820152600960248201527f2170726f746f636f6c000000000000000000000000000000000000000000000060448201526064015b60405180910390fd5b600b546040517f620b95840000000000000000000000000000000000000000000000000000000081526004810186905273ffffffffffffffffffffffffffffffffffffffff85811660248301528415156044830152606482018490526101009092049091169063620b9584906084015b600060405180830381600087803b1580156107b257600080fd5b505af11580156107c6573d6000803e3d6000fd5b5050505050505050565b600e543a111561083c576040517f08c379a000000000000000000000000000000000000000000000000000000000815260206004820152600160248201527f3100000000000000000000000000000000000000000000000000000000000000604482015260640161071f565b565b610846611ab4565b61083c6000611b35565b600b546040517fc688fca700000000000000000000000000000000000000000000000000000000815260048101869052600091610100900473ffffffffffffffffffffffffffffffffffffffff169063c688fca790602401600060405180830381865afa1580156108c5573d6000803e3d6000fd5b505050506040513d6000823e601f3d9081017fffffffffffffffffffffffffffffffffffffffffffffffffffffffffffffffe016820160405261090b919081019061212a565b73ffffffffffffffffffffffffffffffffffffffff851660009081526009602052604090205490915060ff1661099d576040517f08c379a000000000000000000000000000000000000000000000000000000000815260206004820152600760248201527f216d617267696e00000000000000000000000000000000000000000000000000604482015260640161071f565b600b5460ff1615610a0a576040517f08c379a000000000000000000000000000000000000000000000000000000000815260206004820152600660248201527f7061757365640000000000000000000000000000000000000000000000000000604482015260640161071f565b600b546040517fd8a5f72f0000000000000000000000000000000000000000000000000000000081526004810187905261010090910473ffffffffffffffffffffffffffffffffffffffff169063d8a5f72f90602401602060405180830381865afa158015610a7d573d6000803e3d6000fd5b505050506040513d601f19601f82011682018060405250810190610aa19190612263565b610b07576040517f08c379a000000000000000000000000000000000000000000000000000000000815260206004820152600860248201527f21616c6c6f776564000000000000000000000000000000000000000000000000604482015260640161071f565b8060400151821080610b1c5750806060015182115b15610b85576040517f08c379a000000000000000000000000000000000000000000000000000000000815260040161071f9060208082526004908201527f216c657600000000000000000000000000000000000000000000000000000000604082015260600190565b73ffffffffffffffffffffffffffffffffffffffff8416600090815260086020526040902054670de0b6b3a7640000848402041015610c20576040517f08c379a000000000000000000000000000000000000000000000000000000000815260206004820152600560248201527f2173697a65000000000000000000000000000000000000000000000000000000604482015260640161071f565b5050505050565b610c2f611ab4565b600355565b610c3c611ab4565b6402540be400811115610cab576040517f08c379a000000000000000000000000000000000000000000000000000000000815260206004820152600760248201527f2173707265616400000000000000000000000000000000000000000000000000604482015260640161071f565b6000918252600a602052604090912055565b610cc5611ab4565b73ffffffffffffffffffffffffffffffffffffffff91909116600090815260096020526040902080547fffffffffffffffffffffffffffffffffffffffffffffffffffffffffffffff0016911515919091179055565b60015473ffffffffffffffffffffffffffffffffffffffff163314610d9c576040517f08c379a000000000000000000000000000000000000000000000000000000000815260206004820152600960248201527f2170726f746f636f6c0000000000000000000000000000000000000000000000604482015260640161071f565b8115610f7857600c546040517f82e58d510000000000000000000000000000000000000000000000000000000081526004810184905260009173ffffffffffffffffffffffffffffffffffffffff16906382e58d5190602401602060405180830381865afa158015610e12573d6000803e3d6000fd5b505050506040513d601f19601f82011682018060405250810190610e369190612042565b73ffffffffffffffffffffffffffffffffffffffff1614610f7857600c546040517fd113f04c00000000000000000000000000000000000000000000000000000000815273ffffffffffffffffffffffffffffffffffffffff8381166004830152600092169063d113f04c90602401602060405180830381865afa158015610ec2573d6000803e3d6000fd5b505050506040513d601f19601f82011682018060405250810190610ee69190612019565b03610f7857600c546040517fe20c854800000000000000000000000000000000000000000000000000000000815273ffffffffffffffffffffffffffffffffffffffff8381166004830152602482018590529091169063e20c854890604401600060405180830381600087803b158015610f5f57600080fd5b505af1158015610f73573d6000803e3d6000fd5b505050505b5050565b60015473ffffffffffffffffffffffffffffffffffffffff163314610ffd576040517f08c379a000000000000000000000000000000000000000000000000000000000815260206004820152600960248201527f2170726f746f636f6c0000000000000000000000000000000000000000000000604482015260640161071f565b600b546040517f87a64cfa0000000000000000000000000000000000000000000000000000000081526004810186905273ffffffffffffffffffffffffffffffffffffffff8581166024830152841515604483015260648201849052610100909204909116906387a64cfa90608401610798565b611079611ab4565b73ffffffffffffffffffffffffffffffffffffffff91909116600090815260066020526040902080547fffffffffffffffffffffffffffffffffffffffffffffffffffffffffffffff0016911515919091179055565b6110d7611ab4565b73ffffffffffffffffffffffffffffffffffffffff91909116600090815260076020526040902080547fffffffffffffffffffffffffffffffffffffffffffffffffffffffffffffff0016911515919091179055565b6000806111386107d0565b600d546040517f1e6c598e000000000000000000000000000000000000000000000000000000008152600481018a905260009173ffffffffffffffffffffffffffffffffffffffff1690631e6c598e9060240161018060405180830381865afa1580156111a9573d6000803e3d6000fd5b505050506040513d601f19601f820116820180604052508101906111cd91906122af565b9050806101400151915060006111ee82604001518989898960006002611537565b90508160e0015160001461125e576040517f08c379a000000000000000000000000000000000000000000000000000000000815260206004820152600160248201527f3400000000000000000000000000000000000000000000000000000000000000604482015260640161071f565b88156113c9578160a001516000036112d2576040517f08c379a000000000000000000000000000000000000000000000000000000000815260206004820152600160248201527f3700000000000000000000000000000000000000000000000000000000000000604482015260640161071f565b81606001511561134f57808260a00151111561134a576040517f08c379a000000000000000000000000000000000000000000000000000000000815260206004820152600160248201527f3600000000000000000000000000000000000000000000000000000000000000604482015260640161071f565b6113bd565b808260a0015110156113bd576040517f08c379a000000000000000000000000000000000000000000000000000000000815260206004820152600160248201527f3600000000000000000000000000000000000000000000000000000000000000604482015260640161071f565b8160a00151935061152a565b8160c00151600003611437576040517f08c379a000000000000000000000000000000000000000000000000000000000815260206004820152600160248201527f3700000000000000000000000000000000000000000000000000000000000000604482015260640161071f565b8160600151156114b457808260c0015110156114af576040517f08c379a000000000000000000000000000000000000000000000000000000000815260206004820152600160248201527f3600000000000000000000000000000000000000000000000000000000000000604482015260640161071f565b611522565b808260c001511115611522576040517f08c379a000000000000000000000000000000000000000000000000000000000815260206004820152600160248201527f3600000000000000000000000000000000000000000000000000000000000000604482015260640161071f565b8160c0015193505b5050965096945050505050565b600073__$34d91051683fc282c906c8d068cc59eb11$__63dc14457f6002546003548b600460009054906101000a900460ff16600b60019054906101000a900473ffffffffffffffffffffffffffffffffffffffff1673ffffffffffffffffffffffffffffffffffffffff1663c688fca78f6040518263ffffffff1660e01b81526004016115c791815260200190565b600060405180830381865afa1580156115e4573d6000803e3d6000fd5b505050506040513d6000823e601f3d9081017fffffffffffffffffffffffffffffffffffffffffffffffffffffffffffffffe016820160405261162a919081019061212a565b602001518d8d8d8d60058e611640576006611643565b60075b6040518c63ffffffff1660e01b81526004016116699b9a99989796959493929190612454565b602060405180830381865af4158015611686573d6000803e3d6000fd5b505050506040513d601f19601f820116820180604052508101906116aa9190612019565b9050816001036116ef576000888152600a60205260409020546402540be400906116d49083612566565b6116de919061257d565b6116e890826125b8565b905061172e565b8160020361172e576000888152600a60205260409020546402540be400906117179083612566565b611721919061257d565b61172b90826125cb565b90505b979650505050505050565b611741611ab4565b600e55565b61174e611ab4565b600255565b6117e560405180610180016040528060008152602001600081526020016000815260200160001515815260200160008152602001600081526020016000815260200160008152602001600073ffffffffffffffffffffffffffffffffffffffff16815260200160008152602001600073ffffffffffffffffffffffffffffffffffffffff168152602001600081525090565b600d546040517f1e6c598e00000000000000000000000000000000000000000000000000000000815260048101869052600091829173ffffffffffffffffffffffffffffffffffffffff90911690631e6c598e9060240161018060405180830381865afa15801561185a573d6000803e3d6000fd5b505050506040513d601f19601f8201168201806040525081019061187e91906122af565b60608101516080820151825160208401516101608501516040517f360e80430000000000000000000000000000000000000000000000000000000081529415156004860152602485018b905260448501939093526064840191909152608483015260a482015290935073__$34d91051683fc282c906c8d068cc59eb11$__9063360e80439060c4016040805180830381865af4158015611922573d6000803e3d6000fd5b505050506040513d601f19601f8201168201806040525081019061194691906125de565b60608501519193509150156119a7576119a2836040015184610140015160006402540be40088670de0b6b3a764000089602001518a60000151028161198d5761198d612280565b04028161199c5761199c612280565b04610f7c565b6119f4565b6119f4836040015184610140015160006402540be40088670de0b6b3a764000089602001518a6000015102816119df576119df612280565b0402816119ee576119ee612280565b046106a2565b93509350939050565b611a05611ab4565b73ffffffffffffffffffffffffffffffffffffffff8116611aa8576040517f08c379a000000000000000000000000000000000000000000000000000000000815260206004820152602660248201527f4f776e61626c653a206e6577206f776e657220697320746865207a65726f206160448201527f6464726573730000000000000000000000000000000000000000000000000000606482015260840161071f565b611ab181611b35565b50565b60005473ffffffffffffffffffffffffffffffffffffffff16331461083c576040517f08c379a000000000000000000000000000000000000000000000000000000000815260206004820181905260248201527f4f776e61626c653a2063616c6c6572206973206e6f7420746865206f776e6572604482015260640161071f565b6000805473ffffffffffffffffffffffffffffffffffffffff8381167fffffffffffffffffffffffff0000000000000000000000000000000000000000831681178455604051919092169283917f8be0079c531659141344cd1fd0a4f28419497f9722a3daafe3b4186f6b6457e09190a35050565b8015158114611ab157600080fd5b600060208284031215611bca57600080fd5b8135611bd581611baa565b9392505050565b73ffffffffffffffffffffffffffffffffffffffff81168114611ab157600080fd5b600060208284031215611c1057600080fd5b8135611bd581611bdc565b60008060408385031215611c2e57600080fd5b8235611c3981611bdc565b946020939093013593505050565b60008060008060808587031215611c5d57600080fd5b843593506020850135611c6f81611bdc565b92506040850135611c7f81611baa565b9396929550929360600135925050565b600060208284031215611ca157600080fd5b5035919050565b60008060008060808587031215611cbe57600080fd5b843593506020850135611cd081611bdc565b93969395505050506040820135916060013590565b60008060408385031215611cf857600080fd5b50508035926020909101359150565b60008060408385031215611d1a57600080fd5b8235611d2581611bdc565b91506020830135611d3581611baa565b809150509250929050565b60008060408385031215611d5357600080fd5b823591506020830135611d3581611bdc565b60008083601f840112611d7757600080fd5b50813567ffffffffffffffff811115611d8f57600080fd5b60208301915083602060a083028501011115611daa57600080fd5b9250929050565b60008083601f840112611dc357600080fd5b50813567ffffffffffffffff811115611ddb57600080fd5b6020830191508360208260051b8501011115611daa57600080fd5b60008060008060008060808789031215611e0f57600080fd5b863595506020870135611e2181611baa565b9450604087013567ffffffffffffffff80821115611e3e57600080fd5b611e4a8a838b01611d65565b90965094506060890135915080821115611e6357600080fd5b50611e7089828a01611db1565b979a9699509497509295939492505050565b600080600080600080600060a0888a031215611e9d57600080fd5b87359650602088013567ffffffffffffffff80821115611ebc57600080fd5b611ec88b838c01611d65565b909850965060408a0135915080821115611ee157600080fd5b50611eee8a828b01611db1565b9095509350506060880135611f0281611baa565b809250506080880135905092959891949750929550565b600080600060608486031215611f2e57600080fd5b505081359360208301359350604090920135919050565b60006101c0820190508451825260208501516020830152604085015160408301526060850151611f79606084018215159052565b506080850151608083015260a085015160a083015260c085015160c083015260e085015160e083015261010080860151611fca8285018273ffffffffffffffffffffffffffffffffffffffff169052565b505061012085810151908301526101408086015173ffffffffffffffffffffffffffffffffffffffff169083015261016094850151948201949094526101808101929092526101a09091015290565b60006020828403121561202b57600080fd5b5051919050565b805161203d81611bdc565b919050565b60006020828403121561205457600080fd5b8151611bd581611bdc565b7f4e487b7100000000000000000000000000000000000000000000000000000000600052604160045260246000fd5b60405160c0810167ffffffffffffffff811182821017156120b1576120b161205f565b60405290565b604051610180810167ffffffffffffffff811182821017156120b1576120b161205f565b604051601f82017fffffffffffffffffffffffffffffffffffffffffffffffffffffffffffffffe016810167ffffffffffffffff811182821017156121225761212261205f565b604052919050565b6000602080838503121561213d57600080fd5b825167ffffffffffffffff8082111561215557600080fd5b9084019060c0828703121561216957600080fd5b61217161208e565b82518281111561218057600080fd5b8301601f8101881361219157600080fd5b8051838111156121a3576121a361205f565b6121d3867fffffffffffffffffffffffffffffffffffffffffffffffffffffffffffffffe0601f840116016120db565b935080845288868284010111156121e957600080fd5b60005b818110156122075782810187015185820188015286016121ec565b5060009084018601525081815261221f838501612032565b8482015260408301516040820152606083015160608201526080830151608082015260a083015160a08201528094505050505092915050565b805161203d81611baa565b60006020828403121561227557600080fd5b8151611bd581611baa565b7f4e487b7100000000000000000000000000000000000000000000000000000000600052601260045260246000fd5b600061018082840312156122c257600080fd5b6122ca6120b7565b8251815260208301516020820152604083015160408201526122ee60608401612258565b60608201526080830151608082015260a083015160a082015260c083015160c082015260e083015160e0820152610100612329818501612032565b908201526101208381015190820152610140612346818501612032565b90820152610160928301519281019290925250919050565b8183528181602085013750600060208284010152600060207fffffffffffffffffffffffffffffffffffffffffffffffffffffffffffffffe0601f840116840101905092915050565b818352600060208085019450848460051b86018460005b8781101561244757838303895281357fffffffffffffffffffffffffffffffffffffffffffffffffffffffffffffffe18836030181126123fd57600080fd5b8701858101903567ffffffffffffffff81111561241957600080fd5b80360382131561242857600080fd5b61243385828461235e565b9a87019a94505050908401906001016123be565b5090979650505050505050565b60006101208083018e84528d602085015260408d8186015260608d151581870152608073ffffffffffffffffffffffffffffffffffffffff808f168289015260a086818a01528596508d8652610140890196508e955060005b8e8110156125015786356124c081611bdc565b831688526020878101359089015285870135868901528487013585890152838701356124eb81611baa565b15158885015296810196958101956001016124ad565b5050505050505082810360c084015261251b8187896123a7565b60e0840195909552505061010001529998505050505050505050565b7f4e487b7100000000000000000000000000000000000000000000000000000000600052601160045260246000fd5b808202811582820484141761069c5761069c612537565b6000826125b3577f4e487b7100000000000000000000000000000000000000000000000000000000600052601260045260246000fd5b500490565b8082018082111561069c5761069c612537565b8181038181111561069c5761069c612537565b600080604083850312156125f157600080fd5b50508051602090910151909290915056fea2646970667358221220fd37d3138a56b667e81091765dd803c1a9b386e829af17e7cc561ea88a51a9af64736f6c63430008110033",
  "libraries": {
    "TradingLibrary": "0x4eeEf5073d7602fad64F93762BbC1fdDA725C404"
  },
  "devdoc": {
    "kind": "dev",
    "methods": {
      "owner()": {
        "details": "Returns the address of the current owner."
      },
      "renounceOwnership()": {
        "details": "Leaves the contract without owner. It will not be possible to call `onlyOwner` functions anymore. Can only be called by the current owner. NOTE: Renouncing ownership will leave the contract without an owner, thereby removing any functionality that is only available to the owner."
      },
      "setAllowedMargin(address,bool)": {
        "details": "Allows a tigAsset to be used",
        "params": {
          "_bool": "bool",
          "_tigAsset": "tigAsset"
        }
      },
      "setBotNode(address,bool)": {
        "details": "whitelists a node",
        "params": {
          "_bool": "bool",
          "_node": "node address"
        }
      },
      "setMinPositionSize(address,uint256)": {
        "details": "changes the minimum position size",
        "params": {
          "_min": "minimum position size 18 decimals",
          "_tigAsset": "tigAsset"
        }
      },
      "setTradeNode(address,bool)": {
        "details": "whitelists a node",
        "params": {
          "_bool": "bool",
          "_node": "node address"
        }
      },
      "transferOwnership(address)": {
        "details": "Transfers ownership of the contract to a new account (`newOwner`). Can only be called by the current owner."
      },
      "validateTrade(uint256,address,uint256,uint256)": {
        "details": "validates the inputs of trades",
        "params": {
          "_asset": "asset id",
          "_leverage": "leverage",
          "_margin": "margin",
          "_tigAsset": "margin asset"
        }
      }
    },
    "version": 1
  },
  "userdoc": {
    "kind": "user",
    "methods": {},
    "version": 1
  },
  "storageLayout": {
    "storage": [
      {
        "astId": 396,
        "contract": "contracts/TradingExtension.sol:TradingExtension",
        "label": "_owner",
        "offset": 0,
        "slot": "0",
        "type": "t_address"
      },
      {
        "astId": 14450,
        "contract": "contracts/TradingExtension.sol:TradingExtension",
        "label": "trading",
        "offset": 0,
        "slot": "1",
        "type": "t_address"
      },
      {
        "astId": 14452,
        "contract": "contracts/TradingExtension.sol:TradingExtension",
        "label": "minNodeCount",
        "offset": 0,
        "slot": "2",
        "type": "t_uint256"
      },
      {
        "astId": 14454,
        "contract": "contracts/TradingExtension.sol:TradingExtension",
        "label": "validSignatureTimer",
        "offset": 0,
        "slot": "3",
        "type": "t_uint256"
      },
      {
        "astId": 14456,
        "contract": "contracts/TradingExtension.sol:TradingExtension",
        "label": "chainlinkEnabled",
        "offset": 0,
        "slot": "4",
        "type": "t_bool"
      },
      {
        "astId": 14460,
        "contract": "contracts/TradingExtension.sol:TradingExtension",
        "label": "nodeProvided",
        "offset": 0,
        "slot": "5",
        "type": "t_mapping(t_address,t_bool)"
      },
      {
        "astId": 14464,
        "contract": "contracts/TradingExtension.sol:TradingExtension",
        "label": "isBotNode",
        "offset": 0,
        "slot": "6",
        "type": "t_mapping(t_address,t_bool)"
      },
      {
        "astId": 14468,
        "contract": "contracts/TradingExtension.sol:TradingExtension",
        "label": "isTradeNode",
        "offset": 0,
        "slot": "7",
        "type": "t_mapping(t_address,t_bool)"
      },
      {
        "astId": 14472,
        "contract": "contracts/TradingExtension.sol:TradingExtension",
        "label": "minPositionSize",
        "offset": 0,
        "slot": "8",
        "type": "t_mapping(t_address,t_uint256)"
      },
      {
        "astId": 14476,
        "contract": "contracts/TradingExtension.sol:TradingExtension",
        "label": "allowedMargin",
        "offset": 0,
        "slot": "9",
        "type": "t_mapping(t_address,t_bool)"
      },
      {
        "astId": 14480,
        "contract": "contracts/TradingExtension.sol:TradingExtension",
        "label": "spread",
        "offset": 0,
        "slot": "10",
        "type": "t_mapping(t_uint256,t_uint256)"
      },
      {
        "astId": 14482,
        "contract": "contracts/TradingExtension.sol:TradingExtension",
        "label": "paused",
        "offset": 0,
        "slot": "11",
        "type": "t_bool"
      },
      {
        "astId": 14485,
        "contract": "contracts/TradingExtension.sol:TradingExtension",
        "label": "pairsContract",
        "offset": 1,
        "slot": "11",
        "type": "t_contract(IPairsContract)15595"
      },
      {
        "astId": 14488,
        "contract": "contracts/TradingExtension.sol:TradingExtension",
        "label": "referrals",
        "offset": 0,
        "slot": "12",
        "type": "t_contract(IReferrals)15820"
      },
      {
        "astId": 14491,
        "contract": "contracts/TradingExtension.sol:TradingExtension",
        "label": "position",
        "offset": 0,
        "slot": "13",
        "type": "t_contract(IPosition)15791"
      },
      {
        "astId": 14494,
        "contract": "contracts/TradingExtension.sol:TradingExtension",
        "label": "maxGasPrice",
        "offset": 0,
        "slot": "14",
        "type": "t_uint256"
      }
    ],
    "types": {
      "t_address": {
        "encoding": "inplace",
        "label": "address",
        "numberOfBytes": "20"
      },
      "t_bool": {
        "encoding": "inplace",
        "label": "bool",
        "numberOfBytes": "1"
      },
      "t_contract(IPairsContract)15595": {
        "encoding": "inplace",
        "label": "contract IPairsContract",
        "numberOfBytes": "20"
      },
      "t_contract(IPosition)15791": {
        "encoding": "inplace",
        "label": "contract IPosition",
        "numberOfBytes": "20"
      },
      "t_contract(IReferrals)15820": {
        "encoding": "inplace",
        "label": "contract IReferrals",
        "numberOfBytes": "20"
      },
      "t_mapping(t_address,t_bool)": {
        "encoding": "mapping",
        "key": "t_address",
        "label": "mapping(address => bool)",
        "numberOfBytes": "32",
        "value": "t_bool"
      },
      "t_mapping(t_address,t_uint256)": {
        "encoding": "mapping",
        "key": "t_address",
        "label": "mapping(address => uint256)",
        "numberOfBytes": "32",
        "value": "t_uint256"
      },
      "t_mapping(t_uint256,t_uint256)": {
        "encoding": "mapping",
        "key": "t_uint256",
        "label": "mapping(uint256 => uint256)",
        "numberOfBytes": "32",
        "value": "t_uint256"
      },
      "t_uint256": {
        "encoding": "inplace",
        "label": "uint256",
        "numberOfBytes": "32"
      }
    }
  }
}