{
  "address": "0x7dD121eA83aFfc19457A12fcCbd3B49dcCF9f128",
  "abi": [
    {
      "inputs": [
        {
          "internalType": "address",
          "name": "_newSaleToken",
          "type": "address"
        },
        {
          "internalType": "address",
          "name": "_newPaymentToken",
          "type": "address"
        },
        {
          "internalType": "uint256",
          "name": "_newSaleTokenDecimals",
          "type": "uint256"
        }
      ],
      "stateMutability": "nonpayable",
      "type": "constructor"
    },
    {
      "anonymous": false,
      "inputs": [
        {
          "indexed": true,
          "internalType": "address",
          "name": "previousNominee",
          "type": "address"
        },
        {
          "indexed": true,
          "internalType": "address",
          "name": "newNominee",
          "type": "address"
        }
      ],
      "name": "NomineeUpdate",
      "type": "event"
    },
    {
      "anonymous": false,
      "inputs": [
        {
          "indexed": true,
          "internalType": "address",
          "name": "previousOwner",
          "type": "address"
        },
        {
          "indexed": true,
          "internalType": "address",
          "name": "newOwner",
          "type": "address"
        }
      ],
      "name": "OwnershipTransferred",
      "type": "event"
    },
    {
      "anonymous": false,
      "inputs": [
        {
          "indexed": false,
          "internalType": "uint256",
          "name": "newPrice",
          "type": "uint256"
        }
      ],
      "name": "PriceChange",
      "type": "event"
    },
    {
      "anonymous": false,
      "inputs": [
        {
          "indexed": true,
          "internalType": "address",
          "name": "purchaser",
          "type": "address"
        },
        {
          "indexed": true,
          "internalType": "address",
          "name": "recipient",
          "type": "address"
        },
        {
          "indexed": false,
          "internalType": "uint256",
          "name": "amount",
          "type": "uint256"
        },
        {
          "indexed": false,
          "internalType": "uint256",
          "name": "price",
          "type": "uint256"
        }
      ],
      "name": "Purchase",
      "type": "event"
    },
    {
      "anonymous": false,
      "inputs": [
        {
          "indexed": false,
          "internalType": "contract IPurchaseHook",
          "name": "newPurchaseHook",
          "type": "address"
        }
      ],
      "name": "PurchaseHookChange",
      "type": "event"
    },
    {
      "inputs": [],
      "name": "acceptOwnership",
      "outputs": [],
      "stateMutability": "nonpayable",
      "type": "function"
    },
    {
      "inputs": [],
      "name": "getNominee",
      "outputs": [
        {
          "internalType": "address",
          "name": "",
          "type": "address"
        }
      ],
      "stateMutability": "view",
      "type": "function"
    },
    {
      "inputs": [],
      "name": "getPaymentToken",
      "outputs": [
        {
          "internalType": "contract IERC20Metadata",
          "name": "",
          "type": "address"
        }
      ],
      "stateMutability": "view",
      "type": "function"
    },
    {
      "inputs": [],
      "name": "getPrice",
      "outputs": [
        {
          "internalType": "uint256",
          "name": "",
          "type": "uint256"
        }
      ],
      "stateMutability": "view",
      "type": "function"
    },
    {
      "inputs": [],
      "name": "getPurchaseHook",
      "outputs": [
        {
          "internalType": "contract IPurchaseHook",
          "name": "",
          "type": "address"
        }
      ],
      "stateMutability": "view",
      "type": "function"
    },
    {
      "inputs": [],
      "name": "getSaleToken",
      "outputs": [
        {
          "internalType": "contract IERC20Metadata",
          "name": "",
          "type": "address"
        }
      ],
      "stateMutability": "view",
      "type": "function"
    },
    {
      "inputs": [],
      "name": "owner",
      "outputs": [
        {
          "internalType": "address",
          "name": "",
          "type": "address"
        }
      ],
      "stateMutability": "view",
      "type": "function"
    },
    {
      "inputs": [
        {
          "internalType": "address",
          "name": "_recipient",
          "type": "address"
        },
        {
          "internalType": "uint256",
          "name": "_saleTokenAmount",
          "type": "uint256"
        },
        {
          "internalType": "uint256",
          "name": "_purchasePrice",
          "type": "uint256"
        },
        {
          "internalType": "bytes",
          "name": "_data",
          "type": "bytes"
        }
      ],
      "name": "purchase",
      "outputs": [],
      "stateMutability": "nonpayable",
      "type": "function"
    },
    {
      "inputs": [],
      "name": "renounceOwnership",
      "outputs": [],
      "stateMutability": "nonpayable",
      "type": "function"
    },
    {
      "inputs": [
        {
          "internalType": "uint256",
          "name": "_newPrice",
          "type": "uint256"
        }
      ],
      "name": "setPrice",
      "outputs": [],
      "stateMutability": "nonpayable",
      "type": "function"
    },
    {
      "inputs": [
        {
          "internalType": "contract IPurchaseHook",
          "name": "_newPurchaseHook",
          "type": "address"
        }
      ],
      "name": "setPurchaseHook",
      "outputs": [],
      "stateMutability": "nonpayable",
      "type": "function"
    },
    {
      "inputs": [
        {
          "internalType": "address",
          "name": "_newNominee",
          "type": "address"
        }
      ],
      "name": "transferOwnership",
      "outputs": [],
      "stateMutability": "nonpayable",
      "type": "function"
    },
    {
      "inputs": [
        {
          "internalType": "address[]",
          "name": "_erc20Tokens",
          "type": "address[]"
        },
        {
          "internalType": "uint256[]",
          "name": "_amounts",
          "type": "uint256[]"
        }
      ],
      "name": "withdrawERC20",
      "outputs": [],
      "stateMutability": "nonpayable",
      "type": "function"
    },
    {
      "inputs": [
        {
          "internalType": "address[]",
          "name": "_erc20Tokens",
          "type": "address[]"
        }
      ],
      "name": "withdrawERC20",
      "outputs": [],
      "stateMutability": "nonpayable",
      "type": "function"
    }
  ],
  "transactionHash": "0x9ebe0fd5b9906824a7b447658d4228118a3d525d450c9fe02688564143f39871",
  "args": [
    "0xB40DBBb7931Cfef8Be73AEEC6c67d3809bD4600B",
    "0xFF970A61A04b1cA14834A43f5dE4533eBDDB5CC8",
    18
  ],
  "numDeployments": 1,
  "solcInputHash": "dfc4a7f9932e3f48d1d20a196ced614e",
  "bytecode": "0x60e06040523480156200001157600080fd5b50604051620016db380380620016db8339810160408190526200003491620000e5565b6200003f3362000078565b60016002556001600160601b0319606084811b821660805283901b1660a0526200006b81600a6200016f565b60c0525062000250915050565b600080546001600160a01b038381166001600160a01b0319831681178455604051919092169283917f8be0079c531659141344cd1fd0a4f28419497f9722a3daafe3b4186f6b6457e09190a35050565b80516001600160a01b0381168114620000e057600080fd5b919050565b600080600060608486031215620000fb57600080fd5b6200010684620000c8565b92506200011660208501620000c8565b9150604084015190509250925092565b600181815b80851115620001675781600019048211156200014b576200014b6200023a565b808516156200015957918102915b93841c93908002906200012b565b509250929050565b60006200017d838362000184565b9392505050565b600082620001955750600162000234565b81620001a45750600062000234565b8160018114620001bd5760028114620001c857620001e8565b600191505062000234565b60ff841115620001dc57620001dc6200023a565b50506001821b62000234565b5060208310610133831016604e8410600b84101617156200020d575081810a62000234565b62000219838362000126565b80600019048211156200023057620002306200023a565b0290505b92915050565b634e487b7160e01b600052601160045260246000fd5b60805160601c60a05160601c60c0516114476200029460003960006108820152600081816101e001526108ce01526000818161020601526109ec01526114476000f3fe608060405234801561001057600080fd5b50600436106100ea5760003560e01c8063b45acd2f1161008c578063d41c3a6511610066578063d41c3a65146101de578063ec3dd11614610204578063eea3ea3f1461022a578063f2fde38b1461023d57600080fd5b8063b45acd2f1461018f578063b6ca0b63146101a2578063c1867b4e146101c057600080fd5b80638da5cb5b116100c85780638da5cb5b1461011457806390e89bb81461015857806391b7f5ed1461016b57806398d5fdca1461017e57600080fd5b806318819022146100ef578063715018a61461010457806379ba50971461010c575b600080fd5b6101026100fd36600461113e565b610250565b005b6101026103d3565b6101026103ef565b60005473ffffffffffffffffffffffffffffffffffffffff165b60405173ffffffffffffffffffffffffffffffffffffffff90911681526020015b60405180910390f35b6101026101663660046110fc565b6104a8565b6101026101793660046111cc565b610636565b60035460405190815260200161014f565b61010261019d366004611049565b61067a565b60015473ffffffffffffffffffffffffffffffffffffffff1661012e565b60045473ffffffffffffffffffffffffffffffffffffffff1661012e565b7f000000000000000000000000000000000000000000000000000000000000000061012e565b7f000000000000000000000000000000000000000000000000000000000000000061012e565b610102610238366004611066565b6106f5565b61010261024b366004611049565b610aca565b610258610ade565b6002805414156102c9576040517f08c379a000000000000000000000000000000000000000000000000000000000815260206004820152601f60248201527f5265656e7472616e637947756172643a207265656e7472616e742063616c6c0060448201526064015b60405180910390fd5b60028055828114610336576040517f08c379a000000000000000000000000000000000000000000000000000000000815260206004820152601560248201527f4172726179206c656e677468206d69736d61746368000000000000000000000060448201526064016102c0565b6000805473ffffffffffffffffffffffffffffffffffffffff169084905b818110156103c5576103bd83868684818110610372576103726113c0565b9050602002013589898581811061038b5761038b6113c0565b90506020020160208101906103a09190611049565b73ffffffffffffffffffffffffffffffffffffffff169190610b5f565b600101610354565b505060016002555050505050565b6103db610ade565b6103e3610bf1565b6103ed6000610c03565b565b60015473ffffffffffffffffffffffffffffffffffffffff163373ffffffffffffffffffffffffffffffffffffffff1614610486576040517f08c379a000000000000000000000000000000000000000000000000000000000815260206004820152601560248201527f6d73672e73656e64657220213d206e6f6d696e6565000000000000000000000060448201526064016102c0565b6001546103e39073ffffffffffffffffffffffffffffffffffffffff16610c7a565b6104b0610ade565b60028054141561051c576040517f08c379a000000000000000000000000000000000000000000000000000000000815260206004820152601f60248201527f5265656e7472616e637947756172643a207265656e7472616e742063616c6c0060448201526064016102c0565b600280556000805473ffffffffffffffffffffffffffffffffffffffff169082905b8181101561062a576106228386868481811061055c5761055c6113c0565b90506020020160208101906105719190611049565b6040517f70a0823100000000000000000000000000000000000000000000000000000000815230600482015273ffffffffffffffffffffffffffffffffffffffff91909116906370a082319060240160206040518083038186803b1580156105d857600080fd5b505afa1580156105ec573d6000803e3d6000fd5b505050506040513d601f19601f8201168201806040525081019061061091906111e5565b87878581811061038b5761038b6113c0565b60010161053e565b50506001600255505050565b61063e610ade565b60038190556040518181527ff347ee99503bf19c028bd6b18f3c676e82a9bb5b2bb5225aebe0fd62fd6a0d19906020015b60405180910390a150565b610682610ade565b600480547fffffffffffffffffffffffff00000000000000000000000000000000000000001673ffffffffffffffffffffffffffffffffffffffff83169081179091556040519081527f53d4d39686c76b484b85af8483df1f79dc1f95a60ea908543e5ef4c3a6d0bdaa9060200161066f565b600280541415610761576040517f08c379a000000000000000000000000000000000000000000000000000000000815260206004820152601f60248201527f5265656e7472616e637947756172643a207265656e7472616e742063616c6c0060448201526064016102c0565b6002805560035483146107d0576040517f08c379a000000000000000000000000000000000000000000000000000000000815260206004820152600e60248201527f5072696365206d69736d6174636800000000000000000000000000000000000060448201526064016102c0565b60045473ffffffffffffffffffffffffffffffffffffffff16801561087e576040517f6813ced400000000000000000000000000000000000000000000000000000000815273ffffffffffffffffffffffffffffffffffffffff821690636813ced49061084b9033908a908a908a908a908a9060040161121a565b600060405180830381600087803b15801561086557600080fd5b505af1158015610879573d6000803e3d6000fd5b505050505b60007f00000000000000000000000000000000000000000000000000000000000000006108ab868861132c565b6108b591906112f1565b905073ffffffffffffffffffffffffffffffffffffffff7f0000000000000000000000000000000000000000000000000000000000000000166323b872dd336040517fffffffff0000000000000000000000000000000000000000000000000000000060e084901b16815273ffffffffffffffffffffffffffffffffffffffff909116600482015230602482015260448101849052606401602060405180830381600087803b15801561096757600080fd5b505af115801561097b573d6000803e3d6000fd5b505050506040513d601f19601f8201168201806040525081019061099f91906111aa565b506040517fa9059cbb00000000000000000000000000000000000000000000000000000000815273ffffffffffffffffffffffffffffffffffffffff8881166004830152602482018890527f0000000000000000000000000000000000000000000000000000000000000000169063a9059cbb90604401602060405180830381600087803b158015610a3057600080fd5b505af1158015610a44573d6000803e3d6000fd5b505050506040513d601f19601f82011682018060405250810190610a6891906111aa565b50604080518781526020810187905273ffffffffffffffffffffffffffffffffffffffff89169133917f46661dab58311a6838247afecbee792192b4f27fc8b3e7168c66bc55ec2e404e910160405180910390a3505060016002555050505050565b610ad2610ade565b610adb81610c03565b50565b60005473ffffffffffffffffffffffffffffffffffffffff1633146103ed576040517f08c379a000000000000000000000000000000000000000000000000000000000815260206004820181905260248201527f4f776e61626c653a2063616c6c6572206973206e6f7420746865206f776e657260448201526064016102c0565b6040805173ffffffffffffffffffffffffffffffffffffffff8416602482015260448082018490528251808303909101815260649091019091526020810180517bffffffffffffffffffffffffffffffffffffffffffffffffffffffff167fa9059cbb00000000000000000000000000000000000000000000000000000000179052610bec908490610cef565b505050565b610bf9610ade565b6103ed6000610c7a565b6001805473ffffffffffffffffffffffffffffffffffffffff8381167fffffffffffffffffffffffff0000000000000000000000000000000000000000831681179093556040519116919082907fe7624d724357e317f51579affee5050a97c60b060e513e69aa8a1a35fb3315a790600090a35050565b6000805473ffffffffffffffffffffffffffffffffffffffff8381167fffffffffffffffffffffffff0000000000000000000000000000000000000000831681178455604051919092169283917f8be0079c531659141344cd1fd0a4f28419497f9722a3daafe3b4186f6b6457e09190a35050565b6000610d51826040518060400160405280602081526020017f5361666545524332303a206c6f772d6c6576656c2063616c6c206661696c65648152508573ffffffffffffffffffffffffffffffffffffffff16610dfb9092919063ffffffff16565b805190915015610bec5780806020019051810190610d6f91906111aa565b610bec576040517f08c379a000000000000000000000000000000000000000000000000000000000815260206004820152602a60248201527f5361666545524332303a204552433230206f7065726174696f6e20646964206e60448201527f6f7420737563636565640000000000000000000000000000000000000000000060648201526084016102c0565b6060610e0a8484600085610e14565b90505b9392505050565b606082471015610ea6576040517f08c379a000000000000000000000000000000000000000000000000000000000815260206004820152602660248201527f416464726573733a20696e73756666696369656e742062616c616e636520666f60448201527f722063616c6c000000000000000000000000000000000000000000000000000060648201526084016102c0565b73ffffffffffffffffffffffffffffffffffffffff85163b610f24576040517f08c379a000000000000000000000000000000000000000000000000000000000815260206004820152601d60248201527f416464726573733a2063616c6c20746f206e6f6e2d636f6e747261637400000060448201526064016102c0565b6000808673ffffffffffffffffffffffffffffffffffffffff168587604051610f4d91906111fe565b60006040518083038185875af1925050503d8060008114610f8a576040519150601f19603f3d011682016040523d82523d6000602084013e610f8f565b606091505b5091509150610f9f828286610faa565b979650505050505050565b60608315610fb9575081610e0d565b825115610fc95782518084602001fd5b816040517f08c379a00000000000000000000000000000000000000000000000000000000081526004016102c091906112a0565b60008083601f84011261100f57600080fd5b50813567ffffffffffffffff81111561102757600080fd5b6020830191508360208260051b850101111561104257600080fd5b9250929050565b60006020828403121561105b57600080fd5b8135610e0d816113ef565b60008060008060006080868803121561107e57600080fd5b8535611089816113ef565b94506020860135935060408601359250606086013567ffffffffffffffff808211156110b457600080fd5b818801915088601f8301126110c857600080fd5b8135818111156110d757600080fd5b8960208285010111156110e957600080fd5b9699959850939650602001949392505050565b6000806020838503121561110f57600080fd5b823567ffffffffffffffff81111561112657600080fd5b61113285828601610ffd565b90969095509350505050565b6000806000806040858703121561115457600080fd5b843567ffffffffffffffff8082111561116c57600080fd5b61117888838901610ffd565b9096509450602087013591508082111561119157600080fd5b5061119e87828801610ffd565b95989497509550505050565b6000602082840312156111bc57600080fd5b81518015158114610e0d57600080fd5b6000602082840312156111de57600080fd5b5035919050565b6000602082840312156111f757600080fd5b5051919050565b60008251611210818460208701611390565b9190910192915050565b600073ffffffffffffffffffffffffffffffffffffffff808916835280881660208401525085604083015284606083015260a060808301528260a0830152828460c0840137600060c0848401015260c07fffffffffffffffffffffffffffffffffffffffffffffffffffffffffffffffe0601f8501168301019050979650505050505050565b60208152600082518060208401526112bf816040850160208701611390565b601f017fffffffffffffffffffffffffffffffffffffffffffffffffffffffffffffffe0169190910160400192915050565b600082611327577f4e487b7100000000000000000000000000000000000000000000000000000000600052601260045260246000fd5b500490565b6000817fffffffffffffffffffffffffffffffffffffffffffffffffffffffffffffffff048311821515161561138b577f4e487b7100000000000000000000000000000000000000000000000000000000600052601160045260246000fd5b500290565b60005b838110156113ab578181015183820152602001611393565b838111156113ba576000848401525b50505050565b7f4e487b7100000000000000000000000000000000000000000000000000000000600052603260045260246000fd5b73ffffffffffffffffffffffffffffffffffffffff81168114610adb57600080fdfea264697066735822122052c744af29d0441602e1e00c8134941fd38d39114f6acc590d1ed2c09cc8fe8b64736f6c63430008070033",
  "devdoc": {
    "kind": "dev",
    "methods": {
      "acceptOwnership()": {
        "details": "Only callable by the current nominee. Sets nominee back to zero address."
      },
      "getNominee()": {
        "returns": {
          "_0": "The current nominee"
        }
      },
      "getPaymentToken()": {
        "returns": {
          "_0": "The ERC20 token used for payment"
        }
      },
      "getPrice()": {
        "returns": {
          "_0": "The fixed price of sale token in terms of payment token"
        }
      },
      "getPurchaseHook()": {
        "returns": {
          "_0": "The purchase hook contract"
        }
      },
      "getSaleToken()": {
        "returns": {
          "_0": "The ERC20 token being sold"
        }
      },
      "owner()": {
        "details": "Returns the address of the current owner."
      }
    },
    "version": 1
  },
  "userdoc": {
    "kind": "user",
    "methods": {
      "acceptOwnership()": {
        "notice": "Accepts ownership nomination."
      }
    },
    "version": 1
  },
  "storageLayout": {
    "storage": [
      {
        "astId": 3315,
        "contract": "contracts/mini-sales/MiniSales.sol:MiniSales",
        "label": "_owner",
        "offset": 0,
        "slot": "0",
        "type": "t_address"
      },
      {
        "astId": 47123,
        "contract": "contracts/mini-sales/MiniSales.sol:MiniSales",
        "label": "_nominee",
        "offset": 0,
        "slot": "1",
        "type": "t_address"
      },
      {
        "astId": 4293,
        "contract": "contracts/mini-sales/MiniSales.sol:MiniSales",
        "label": "_status",
        "offset": 0,
        "slot": "2",
        "type": "t_uint256"
      },
      {
        "astId": 11248,
        "contract": "contracts/mini-sales/MiniSales.sol:MiniSales",
        "label": "_price",
        "offset": 0,
        "slot": "3",
        "type": "t_uint256"
      },
      {
        "astId": 11251,
        "contract": "contracts/mini-sales/MiniSales.sol:MiniSales",
        "label": "_purchaseHook",
        "offset": 0,
        "slot": "4",
        "type": "t_contract(IPurchaseHook)11611"
      }
    ],
    "types": {
      "t_address": {
        "encoding": "inplace",
        "label": "address",
        "numberOfBytes": "20"
      },
      "t_contract(IPurchaseHook)11611": {
        "encoding": "inplace",
        "label": "contract IPurchaseHook",
        "numberOfBytes": "20"
      },
      "t_uint256": {
        "encoding": "inplace",
        "label": "uint256",
        "numberOfBytes": "32"
      }
    }
  }
}