{
  "address": "0xC1c2e69b607D3A64DA9a9112d37020fC32254543",
  "abi": [
    {
      "inputs": [],
      "stateMutability": "nonpayable",
      "type": "constructor"
    },
    {
      "anonymous": false,
      "inputs": [
        {
          "indexed": false,
          "internalType": "contract IAccountList",
          "name": "newBlocklist",
          "type": "address"
        }
      ],
      "name": "BlocklistChange",
      "type": "event"
    },
    {
      "anonymous": false,
      "inputs": [
        {
          "indexed": false,
          "internalType": "contract IAccountList",
          "name": "newDestinationAllowlist",
          "type": "address"
        }
      ],
      "name": "DestinationAllowlistChange",
      "type": "event"
    },
    {
      "anonymous": false,
      "inputs": [
        {
          "indexed": true,
          "internalType": "address",
          "name": "previousNominee",
          "type": "address"
        },
        {
          "indexed": true,
          "internalType": "address",
          "name": "newNominee",
          "type": "address"
        }
      ],
      "name": "NomineeUpdate",
      "type": "event"
    },
    {
      "anonymous": false,
      "inputs": [
        {
          "indexed": true,
          "internalType": "address",
          "name": "previousOwner",
          "type": "address"
        },
        {
          "indexed": true,
          "internalType": "address",
          "name": "newOwner",
          "type": "address"
        }
      ],
      "name": "OwnershipTransferred",
      "type": "event"
    },
    {
      "anonymous": false,
      "inputs": [
        {
          "indexed": false,
          "internalType": "contract IAccountList",
          "name": "newSourceAllowlist",
          "type": "address"
        }
      ],
      "name": "SourceAllowlistChange",
      "type": "event"
    },
    {
      "inputs": [],
      "name": "acceptOwnership",
      "outputs": [],
      "stateMutability": "nonpayable",
      "type": "function"
    },
    {
      "inputs": [],
      "name": "getBlocklist",
      "outputs": [
        {
          "internalType": "contract IAccountList",
          "name": "",
          "type": "address"
        }
      ],
      "stateMutability": "view",
      "type": "function"
    },
    {
      "inputs": [],
      "name": "getDestinationAllowlist",
      "outputs": [
        {
          "internalType": "contract IAccountList",
          "name": "",
          "type": "address"
        }
      ],
      "stateMutability": "view",
      "type": "function"
    },
    {
      "inputs": [],
      "name": "getNominee",
      "outputs": [
        {
          "internalType": "address",
          "name": "",
          "type": "address"
        }
      ],
      "stateMutability": "view",
      "type": "function"
    },
    {
      "inputs": [],
      "name": "getSourceAllowlist",
      "outputs": [
        {
          "internalType": "contract IAccountList",
          "name": "",
          "type": "address"
        }
      ],
      "stateMutability": "view",
      "type": "function"
    },
    {
      "inputs": [
        {
          "internalType": "address",
          "name": "_from",
          "type": "address"
        },
        {
          "internalType": "address",
          "name": "_to",
          "type": "address"
        },
        {
          "internalType": "uint256",
          "name": "_amount",
          "type": "uint256"
        }
      ],
      "name": "hook",
      "outputs": [],
      "stateMutability": "nonpayable",
      "type": "function"
    },
    {
      "inputs": [],
      "name": "owner",
      "outputs": [
        {
          "internalType": "address",
          "name": "",
          "type": "address"
        }
      ],
      "stateMutability": "view",
      "type": "function"
    },
    {
      "inputs": [],
      "name": "renounceOwnership",
      "outputs": [],
      "stateMutability": "nonpayable",
      "type": "function"
    },
    {
      "inputs": [
        {
          "internalType": "contract IAccountList",
          "name": "_newBlocklist",
          "type": "address"
        }
      ],
      "name": "setBlocklist",
      "outputs": [],
      "stateMutability": "nonpayable",
      "type": "function"
    },
    {
      "inputs": [
        {
          "internalType": "contract IAccountList",
          "name": "_newDestinationAllowlist",
          "type": "address"
        }
      ],
      "name": "setDestinationAllowlist",
      "outputs": [],
      "stateMutability": "nonpayable",
      "type": "function"
    },
    {
      "inputs": [
        {
          "internalType": "contract IAccountList",
          "name": "_newSourceAllowlist",
          "type": "address"
        }
      ],
      "name": "setSourceAllowlist",
      "outputs": [],
      "stateMutability": "nonpayable",
      "type": "function"
    },
    {
      "inputs": [
        {
          "internalType": "address",
          "name": "_newNominee",
          "type": "address"
        }
      ],
      "name": "transferOwnership",
      "outputs": [],
      "stateMutability": "nonpayable",
      "type": "function"
    }
  ],
  "transactionHash": "0x1c207c79602771f8118c2f9246c980acc4f9c223b1442479a1b45dccfd269363",
  "args": [],
  "numDeployments": 1,
  "solcInputHash": "92797c126852f255b62c4db0ee32d1ba",
  "bytecode": "0x608060405234801561001057600080fd5b5061001a3361001f565b61006f565b600080546001600160a01b038381166001600160a01b0319831681178455604051919092169283917f8be0079c531659141344cd1fd0a4f28419497f9722a3daafe3b4186f6b6457e09190a35050565b610aa98061007e6000396000f3fe608060405234801561001057600080fd5b50600436106100d45760003560e01c8063b6ca0b6311610081578063c76bc9f51161005b578063c76bc9f5146101c1578063c7a93937146101d4578063f2fde38b146101f257600080fd5b8063b6ca0b6314610172578063c3456cf414610190578063c380b80a146101ae57600080fd5b806379ba5097116100b257806379ba5097146101395780638da5cb5b14610141578063aef18ae71461015f57600080fd5b80631631682d146100d95780631bcfb97c146100ee578063715018a614610131575b600080fd5b6100ec6100e73660046109ee565b610205565b005b60025473ffffffffffffffffffffffffffffffffffffffff165b60405173ffffffffffffffffffffffffffffffffffffffff909116815260200160405180910390f35b6100ec6103d2565b6100ec6103ee565b60005473ffffffffffffffffffffffffffffffffffffffff16610108565b6100ec61016d3660046109ca565b6104a7565b60015473ffffffffffffffffffffffffffffffffffffffff16610108565b60035473ffffffffffffffffffffffffffffffffffffffff16610108565b6100ec6101bc3660046109ca565b610529565b6100ec6101cf3660046109ca565b6105a4565b60045473ffffffffffffffffffffffffffffffffffffffff16610108565b6100ec6102003660046109ca565b61061f565b610210838383610633565b6003546040517f26c9ffa800000000000000000000000000000000000000000000000000000000815273ffffffffffffffffffffffffffffffffffffffff8581166004830152909116906326c9ffa89060240160206040518083038186803b15801561027b57600080fd5b505afa15801561028f573d6000803e3d6000fd5b505050506040513d601f19601f820116820180604052508101906102b39190610a2f565b156102bd57505050565b600480546040517f26c9ffa800000000000000000000000000000000000000000000000000000000815273ffffffffffffffffffffffffffffffffffffffff858116938201939093529116906326c9ffa89060240160206040518083038186803b15801561032a57600080fd5b505afa15801561033e573d6000803e3d6000fd5b505050506040513d601f19601f820116820180604052508101906103629190610a2f565b6103cd576040517f08c379a000000000000000000000000000000000000000000000000000000000815260206004820152601760248201527f44657374696e6174696f6e206e6f7420616c6c6f77656400000000000000000060448201526064015b60405180910390fd5b505050565b6103da61084b565b6103e26108cc565b6103ec60006108de565b565b60015473ffffffffffffffffffffffffffffffffffffffff163373ffffffffffffffffffffffffffffffffffffffff1614610485576040517f08c379a000000000000000000000000000000000000000000000000000000000815260206004820152601560248201527f6d73672e73656e64657220213d206e6f6d696e6565000000000000000000000060448201526064016103c4565b6001546103e29073ffffffffffffffffffffffffffffffffffffffff16610955565b6104af61084b565b600280547fffffffffffffffffffffffff00000000000000000000000000000000000000001673ffffffffffffffffffffffffffffffffffffffff83169081179091556040519081527f3b47e749f0b9eec111f9d121bf0a3604a10d5d43fc4e220ea3149651c3aa3b68906020015b60405180910390a150565b61053161084b565b600480547fffffffffffffffffffffffff00000000000000000000000000000000000000001673ffffffffffffffffffffffffffffffffffffffff83169081179091556040519081527f3bedf5a62a52b85cc3f37cc733805604a5afcc30edf8a354169344b19bd33cef9060200161051e565b6105ac61084b565b600380547fffffffffffffffffffffffff00000000000000000000000000000000000000001673ffffffffffffffffffffffffffffffffffffffff83169081179091556040519081527fd6b9905ff91c1b8648c68049dd3b211d795b4757aebe72a013bd8703e43bb8859060200161051e565b61062761084b565b610630816108de565b50565b6002546040517f26c9ffa800000000000000000000000000000000000000000000000000000000815273ffffffffffffffffffffffffffffffffffffffff85811660048301529091169081906326c9ffa89060240160206040518083038186803b1580156106a057600080fd5b505afa1580156106b4573d6000803e3d6000fd5b505050506040513d601f19601f820116820180604052508101906106d89190610a2f565b1561073f576040517f08c379a000000000000000000000000000000000000000000000000000000000815260206004820152600e60248201527f53656e64657220626c6f636b656400000000000000000000000000000000000060448201526064016103c4565b6040517f26c9ffa800000000000000000000000000000000000000000000000000000000815273ffffffffffffffffffffffffffffffffffffffff84811660048301528216906326c9ffa89060240160206040518083038186803b1580156107a657600080fd5b505afa1580156107ba573d6000803e3d6000fd5b505050506040513d601f19601f820116820180604052508101906107de9190610a2f565b15610845576040517f08c379a000000000000000000000000000000000000000000000000000000000815260206004820152601160248201527f526563697069656e7420626c6f636b656400000000000000000000000000000060448201526064016103c4565b50505050565b60005473ffffffffffffffffffffffffffffffffffffffff1633146103ec576040517f08c379a000000000000000000000000000000000000000000000000000000000815260206004820181905260248201527f4f776e61626c653a2063616c6c6572206973206e6f7420746865206f776e657260448201526064016103c4565b6108d461084b565b6103ec6000610955565b6001805473ffffffffffffffffffffffffffffffffffffffff8381167fffffffffffffffffffffffff0000000000000000000000000000000000000000831681179093556040519116919082907fe7624d724357e317f51579affee5050a97c60b060e513e69aa8a1a35fb3315a790600090a35050565b6000805473ffffffffffffffffffffffffffffffffffffffff8381167fffffffffffffffffffffffff0000000000000000000000000000000000000000831681178455604051919092169283917f8be0079c531659141344cd1fd0a4f28419497f9722a3daafe3b4186f6b6457e09190a35050565b6000602082840312156109dc57600080fd5b81356109e781610a51565b9392505050565b600080600060608486031215610a0357600080fd5b8335610a0e81610a51565b92506020840135610a1e81610a51565b929592945050506040919091013590565b600060208284031215610a4157600080fd5b815180151581146109e757600080fd5b73ffffffffffffffffffffffffffffffffffffffff8116811461063057600080fdfea2646970667358221220cf4dd485893c9ab29d0166c0601f1e4a68e7b08d8335990d782a94874729120464736f6c63430008070033",
  "devdoc": {
    "kind": "dev",
    "methods": {
      "acceptOwnership()": {
        "details": "Only callable by the current nominee. Sets nominee back to zero address."
      },
      "getBlocklist()": {
        "returns": {
          "_0": "The blocklist contract"
        }
      },
      "getDestinationAllowlist()": {
        "returns": {
          "_0": "The destination allowlist contract"
        }
      },
      "getNominee()": {
        "returns": {
          "_0": "The current nominee"
        }
      },
      "getSourceAllowlist()": {
        "returns": {
          "_0": "The source allowlist contract"
        }
      },
      "owner()": {
        "details": "Returns the address of the current owner."
      }
    },
    "version": 1
  },
  "userdoc": {
    "kind": "user",
    "methods": {
      "acceptOwnership()": {
        "notice": "Accepts ownership nomination."
      }
    },
    "version": 1
  },
  "storageLayout": {
    "storage": [
      {
        "astId": 3315,
        "contract": "contracts/ppo/RestrictedTransferHook.sol:RestrictedTransferHook",
        "label": "_owner",
        "offset": 0,
        "slot": "0",
        "type": "t_address"
      },
      {
        "astId": 47123,
        "contract": "contracts/ppo/RestrictedTransferHook.sol:RestrictedTransferHook",
        "label": "_nominee",
        "offset": 0,
        "slot": "1",
        "type": "t_address"
      },
      {
        "astId": 44550,
        "contract": "contracts/ppo/RestrictedTransferHook.sol:RestrictedTransferHook",
        "label": "_blocklist",
        "offset": 0,
        "slot": "2",
        "type": "t_contract(IAccountList)44946"
      },
      {
        "astId": 44818,
        "contract": "contracts/ppo/RestrictedTransferHook.sol:RestrictedTransferHook",
        "label": "_sourceAllowlist",
        "offset": 0,
        "slot": "3",
        "type": "t_contract(IAccountList)44946"
      },
      {
        "astId": 44821,
        "contract": "contracts/ppo/RestrictedTransferHook.sol:RestrictedTransferHook",
        "label": "_destinationAllowlist",
        "offset": 0,
        "slot": "4",
        "type": "t_contract(IAccountList)44946"
      }
    ],
    "types": {
      "t_address": {
        "encoding": "inplace",
        "label": "address",
        "numberOfBytes": "20"
      },
      "t_contract(IAccountList)44946": {
        "encoding": "inplace",
        "label": "contract IAccountList",
        "numberOfBytes": "20"
      }
    }
  }
}