{
  "address": "0x0629dC29Af57cCd8B33aF5dA3c1BdB37E6FbAd9b",
  "abi": [
    {
      "inputs": [],
      "stateMutability": "nonpayable",
      "type": "constructor"
    },
    {
      "anonymous": false,
      "inputs": [
        {
          "indexed": true,
          "internalType": "address",
          "name": "previousNominee",
          "type": "address"
        },
        {
          "indexed": true,
          "internalType": "address",
          "name": "newNominee",
          "type": "address"
        }
      ],
      "name": "NomineeUpdate",
      "type": "event"
    },
    {
      "anonymous": false,
      "inputs": [
        {
          "indexed": true,
          "internalType": "address",
          "name": "previousOwner",
          "type": "address"
        },
        {
          "indexed": true,
          "internalType": "address",
          "name": "newOwner",
          "type": "address"
        }
      ],
      "name": "OwnershipTransferred",
      "type": "event"
    },
    {
      "inputs": [],
      "name": "acceptOwnership",
      "outputs": [],
      "stateMutability": "nonpayable",
      "type": "function"
    },
    {
      "inputs": [],
      "name": "getNominee",
      "outputs": [
        {
          "internalType": "address",
          "name": "",
          "type": "address"
        }
      ],
      "stateMutability": "view",
      "type": "function"
    },
    {
      "inputs": [
        {
          "internalType": "address",
          "name": "_account",
          "type": "address"
        }
      ],
      "name": "isIncluded",
      "outputs": [
        {
          "internalType": "bool",
          "name": "",
          "type": "bool"
        }
      ],
      "stateMutability": "view",
      "type": "function"
    },
    {
      "inputs": [],
      "name": "owner",
      "outputs": [
        {
          "internalType": "address",
          "name": "",
          "type": "address"
        }
      ],
      "stateMutability": "view",
      "type": "function"
    },
    {
      "inputs": [],
      "name": "renounceOwnership",
      "outputs": [],
      "stateMutability": "nonpayable",
      "type": "function"
    },
    {
      "inputs": [
        {
          "internalType": "address[]",
          "name": "_newIncludedAccounts",
          "type": "address[]"
        }
      ],
      "name": "reset",
      "outputs": [],
      "stateMutability": "nonpayable",
      "type": "function"
    },
    {
      "inputs": [
        {
          "internalType": "address[]",
          "name": "_accounts",
          "type": "address[]"
        },
        {
          "internalType": "bool[]",
          "name": "_included",
          "type": "bool[]"
        }
      ],
      "name": "set",
      "outputs": [],
      "stateMutability": "nonpayable",
      "type": "function"
    },
    {
      "inputs": [
        {
          "internalType": "address",
          "name": "_newNominee",
          "type": "address"
        }
      ],
      "name": "transferOwnership",
      "outputs": [],
      "stateMutability": "nonpayable",
      "type": "function"
    }
  ],
  "transactionHash": "0xdc4645c241b3066c6c57e2cf2b854759b00a55daac513f6b559e84f9f129a496",
  "args": [],
  "numDeployments": 1,
  "solcInputHash": "92797c126852f255b62c4db0ee32d1ba",
  "bytecode": "0x608060405234801561001057600080fd5b5061001a3361001f565b61006f565b600080546001600160a01b038381166001600160a01b0319831681178455604051919092169283917f8be0079c531659141344cd1fd0a4f28419497f9722a3daafe3b4186f6b6457e09190a35050565b6108228061007e6000396000f3fe608060405234801561001057600080fd5b50600436106100885760003560e01c8063b6ca0b631161005b578063b6ca0b631461013a578063b916de5914610158578063bfec52e71461016b578063f2fde38b1461017e57600080fd5b806326c9ffa81461008d578063715018a6146100e957806379ba5097146100f35780638da5cb5b146100fb575b600080fd5b6100d461009b366004610650565b600254600090815260036020908152604080832073ffffffffffffffffffffffffffffffffffffffff9094168352929052205460ff1690565b60405190151581526020015b60405180910390f35b6100f1610191565b005b6100f16101ad565b60005473ffffffffffffffffffffffffffffffffffffffff165b60405173ffffffffffffffffffffffffffffffffffffffff90911681526020016100e0565b60015473ffffffffffffffffffffffffffffffffffffffff16610115565b6100f161016636600461068d565b61026b565b6100f16101793660046106cf565b610331565b6100f161018c366004610650565b610471565b610199610485565b6101a1610506565b6101ab6000610518565b565b60015473ffffffffffffffffffffffffffffffffffffffff163373ffffffffffffffffffffffffffffffffffffffff1614610249576040517f08c379a000000000000000000000000000000000000000000000000000000000815260206004820152601560248201527f6d73672e73656e64657220213d206e6f6d696e6565000000000000000000000060448201526064015b60405180910390fd5b6001546101a19073ffffffffffffffffffffffffffffffffffffffff1661058f565b610273610485565b600280549060006102838361075d565b9091555081905060005b8181101561032b5760025460009081526003602052604081206001918686858181106102bb576102bb6107bd565b90506020020160208101906102d09190610650565b73ffffffffffffffffffffffffffffffffffffffff168152602081019190915260400160002080547fffffffffffffffffffffffffffffffffffffffffffffffffffffffffffffff001691151591909117905560010161028d565b50505050565b610339610485565b8281146103a2576040517f08c379a000000000000000000000000000000000000000000000000000000000815260206004820152601560248201527f4172726179206c656e677468206d69736d6174636800000000000000000000006044820152606401610240565b8260005b81811015610469578383828181106103c0576103c06107bd565b90506020020160208101906103d5919061073b565b6002546000908152600360205260408120908888858181106103f9576103f96107bd565b905060200201602081019061040e9190610650565b73ffffffffffffffffffffffffffffffffffffffff168152602081019190915260400160002080547fffffffffffffffffffffffffffffffffffffffffffffffffffffffffffffff00169115159190911790556001016103a6565b505050505050565b610479610485565b61048281610518565b50565b60005473ffffffffffffffffffffffffffffffffffffffff1633146101ab576040517f08c379a000000000000000000000000000000000000000000000000000000000815260206004820181905260248201527f4f776e61626c653a2063616c6c6572206973206e6f7420746865206f776e65726044820152606401610240565b61050e610485565b6101ab600061058f565b6001805473ffffffffffffffffffffffffffffffffffffffff8381167fffffffffffffffffffffffff0000000000000000000000000000000000000000831681179093556040519116919082907fe7624d724357e317f51579affee5050a97c60b060e513e69aa8a1a35fb3315a790600090a35050565b6000805473ffffffffffffffffffffffffffffffffffffffff8381167fffffffffffffffffffffffff0000000000000000000000000000000000000000831681178455604051919092169283917f8be0079c531659141344cd1fd0a4f28419497f9722a3daafe3b4186f6b6457e09190a35050565b60008083601f84011261061657600080fd5b50813567ffffffffffffffff81111561062e57600080fd5b6020830191508360208260051b850101111561064957600080fd5b9250929050565b60006020828403121561066257600080fd5b813573ffffffffffffffffffffffffffffffffffffffff8116811461068657600080fd5b9392505050565b600080602083850312156106a057600080fd5b823567ffffffffffffffff8111156106b757600080fd5b6106c385828601610604565b90969095509350505050565b600080600080604085870312156106e557600080fd5b843567ffffffffffffffff808211156106fd57600080fd5b61070988838901610604565b9096509450602087013591508082111561072257600080fd5b5061072f87828801610604565b95989497509550505050565b60006020828403121561074d57600080fd5b8135801515811461068657600080fd5b60007fffffffffffffffffffffffffffffffffffffffffffffffffffffffffffffffff8214156107b6577f4e487b7100000000000000000000000000000000000000000000000000000000600052601160045260246000fd5b5060010190565b7f4e487b7100000000000000000000000000000000000000000000000000000000600052603260045260246000fdfea2646970667358221220dadadeb904242686ca13a8064b079c0269854e21f8966dd7445fc39fd0fe657464736f6c63430008070033",
  "devdoc": {
    "kind": "dev",
    "methods": {
      "acceptOwnership()": {
        "details": "Only callable by the current nominee. Sets nominee back to zero address."
      },
      "getNominee()": {
        "returns": {
          "_0": "The current nominee"
        }
      },
      "owner()": {
        "details": "Returns the address of the current owner."
      }
    },
    "version": 1
  },
  "userdoc": {
    "kind": "user",
    "methods": {
      "acceptOwnership()": {
        "notice": "Accepts ownership nomination."
      }
    },
    "version": 1
  },
  "storageLayout": {
    "storage": [
      {
        "astId": 3315,
        "contract": "contracts/ppo/AccountList.sol:AccountList",
        "label": "_owner",
        "offset": 0,
        "slot": "0",
        "type": "t_address"
      },
      {
        "astId": 47123,
        "contract": "contracts/ppo/AccountList.sol:AccountList",
        "label": "_nominee",
        "offset": 0,
        "slot": "1",
        "type": "t_address"
      },
      {
        "astId": 44421,
        "contract": "contracts/ppo/AccountList.sol:AccountList",
        "label": "_resetIndex",
        "offset": 0,
        "slot": "2",
        "type": "t_uint256"
      },
      {
        "astId": 44427,
        "contract": "contracts/ppo/AccountList.sol:AccountList",
        "label": "_resetIndexToAccountToIncluded",
        "offset": 0,
        "slot": "3",
        "type": "t_mapping(t_uint256,t_mapping(t_address,t_bool))"
      }
    ],
    "types": {
      "t_address": {
        "encoding": "inplace",
        "label": "address",
        "numberOfBytes": "20"
      },
      "t_bool": {
        "encoding": "inplace",
        "label": "bool",
        "numberOfBytes": "1"
      },
      "t_mapping(t_address,t_bool)": {
        "encoding": "mapping",
        "key": "t_address",
        "label": "mapping(address => bool)",
        "numberOfBytes": "32",
        "value": "t_bool"
      },
      "t_mapping(t_uint256,t_mapping(t_address,t_bool))": {
        "encoding": "mapping",
        "key": "t_uint256",
        "label": "mapping(uint256 => mapping(address => bool))",
        "numberOfBytes": "32",
        "value": "t_mapping(t_address,t_bool)"
      },
      "t_uint256": {
        "encoding": "inplace",
        "label": "uint256",
        "numberOfBytes": "32"
      }
    }
  }
}