{
  "address": "0x2713582D9ABe29C9Df2dac8785f2a43b8985BE8a",
  "abi": [
    {
      "inputs": [],
      "stateMutability": "nonpayable",
      "type": "constructor"
    },
    {
      "anonymous": false,
      "inputs": [
        {
          "indexed": false,
          "internalType": "address",
          "name": "recipient",
          "type": "address"
        },
        {
          "indexed": false,
          "internalType": "uint256",
          "name": "amount",
          "type": "uint256"
        }
      ],
      "name": "Allocation",
      "type": "event"
    },
    {
      "anonymous": false,
      "inputs": [
        {
          "indexed": false,
          "internalType": "address",
          "name": "recipient",
          "type": "address"
        },
        {
          "indexed": false,
          "internalType": "uint256",
          "name": "amount",
          "type": "uint256"
        }
      ],
      "name": "Claim",
      "type": "event"
    },
    {
      "anonymous": false,
      "inputs": [
        {
          "indexed": true,
          "internalType": "address",
          "name": "previousNominee",
          "type": "address"
        },
        {
          "indexed": true,
          "internalType": "address",
          "name": "newNominee",
          "type": "address"
        }
      ],
      "name": "NomineeUpdate",
      "type": "event"
    },
    {
      "anonymous": false,
      "inputs": [
        {
          "indexed": true,
          "internalType": "address",
          "name": "previousOwner",
          "type": "address"
        },
        {
          "indexed": true,
          "internalType": "address",
          "name": "newOwner",
          "type": "address"
        }
      ],
      "name": "OwnershipTransferred",
      "type": "event"
    },
    {
      "anonymous": false,
      "inputs": [
        {
          "indexed": false,
          "internalType": "bool",
          "name": "newPaused",
          "type": "bool"
        }
      ],
      "name": "PausedChange",
      "type": "event"
    },
    {
      "inputs": [],
      "name": "acceptOwnership",
      "outputs": [],
      "stateMutability": "nonpayable",
      "type": "function"
    },
    {
      "inputs": [],
      "name": "claim",
      "outputs": [],
      "stateMutability": "nonpayable",
      "type": "function"
    },
    {
      "inputs": [
        {
          "internalType": "address",
          "name": "_recipient",
          "type": "address"
        }
      ],
      "name": "getAmountAllocated",
      "outputs": [
        {
          "internalType": "uint256",
          "name": "",
          "type": "uint256"
        }
      ],
      "stateMutability": "view",
      "type": "function"
    },
    {
      "inputs": [
        {
          "internalType": "address",
          "name": "_recipient",
          "type": "address"
        }
      ],
      "name": "getClaimableAmount",
      "outputs": [
        {
          "internalType": "uint256",
          "name": "",
          "type": "uint256"
        }
      ],
      "stateMutability": "view",
      "type": "function"
    },
    {
      "inputs": [
        {
          "internalType": "address",
          "name": "_recipient",
          "type": "address"
        }
      ],
      "name": "getClaimedAmount",
      "outputs": [
        {
          "internalType": "uint256",
          "name": "",
          "type": "uint256"
        }
      ],
      "stateMutability": "view",
      "type": "function"
    },
    {
      "inputs": [],
      "name": "getNominee",
      "outputs": [
        {
          "internalType": "address",
          "name": "",
          "type": "address"
        }
      ],
      "stateMutability": "view",
      "type": "function"
    },
    {
      "inputs": [],
      "name": "getToken",
      "outputs": [
        {
          "internalType": "address",
          "name": "",
          "type": "address"
        }
      ],
      "stateMutability": "view",
      "type": "function"
    },
    {
      "inputs": [],
      "name": "getTotalAllocatedSupply",
      "outputs": [
        {
          "internalType": "uint256",
          "name": "",
          "type": "uint256"
        }
      ],
      "stateMutability": "view",
      "type": "function"
    },
    {
      "inputs": [
        {
          "internalType": "address",
          "name": "_recipient",
          "type": "address"
        }
      ],
      "name": "getVestedAmount",
      "outputs": [
        {
          "internalType": "uint256",
          "name": "",
          "type": "uint256"
        }
      ],
      "stateMutability": "view",
      "type": "function"
    },
    {
      "inputs": [],
      "name": "getVestingEndTime",
      "outputs": [
        {
          "internalType": "uint256",
          "name": "",
          "type": "uint256"
        }
      ],
      "stateMutability": "view",
      "type": "function"
    },
    {
      "inputs": [],
      "name": "getVestingStartTime",
      "outputs": [
        {
          "internalType": "uint256",
          "name": "",
          "type": "uint256"
        }
      ],
      "stateMutability": "view",
      "type": "function"
    },
    {
      "inputs": [],
      "name": "isPaused",
      "outputs": [
        {
          "internalType": "bool",
          "name": "",
          "type": "bool"
        }
      ],
      "stateMutability": "view",
      "type": "function"
    },
    {
      "inputs": [],
      "name": "owner",
      "outputs": [
        {
          "internalType": "address",
          "name": "",
          "type": "address"
        }
      ],
      "stateMutability": "view",
      "type": "function"
    },
    {
      "inputs": [],
      "name": "renounceOwnership",
      "outputs": [],
      "stateMutability": "nonpayable",
      "type": "function"
    },
    {
      "inputs": [
        {
          "internalType": "address[]",
          "name": "_recipients",
          "type": "address[]"
        },
        {
          "internalType": "uint256[]",
          "name": "_amounts",
          "type": "uint256[]"
        }
      ],
      "name": "setAllocations",
      "outputs": [],
      "stateMutability": "nonpayable",
      "type": "function"
    },
    {
      "inputs": [
        {
          "internalType": "bool",
          "name": "_newPaused",
          "type": "bool"
        }
      ],
      "name": "setPaused",
      "outputs": [],
      "stateMutability": "nonpayable",
      "type": "function"
    },
    {
      "inputs": [
        {
          "internalType": "address",
          "name": "_newToken",
          "type": "address"
        }
      ],
      "name": "setToken",
      "outputs": [],
      "stateMutability": "nonpayable",
      "type": "function"
    },
    {
      "inputs": [
        {
          "internalType": "uint256",
          "name": "_newVestingEndTime",
          "type": "uint256"
        }
      ],
      "name": "setVestingEndTime",
      "outputs": [],
      "stateMutability": "nonpayable",
      "type": "function"
    },
    {
      "inputs": [
        {
          "internalType": "uint256",
          "name": "_newVestingStartTime",
          "type": "uint256"
        }
      ],
      "name": "setVestingStartTime",
      "outputs": [],
      "stateMutability": "nonpayable",
      "type": "function"
    },
    {
      "inputs": [
        {
          "internalType": "address",
          "name": "_newNominee",
          "type": "address"
        }
      ],
      "name": "transferOwnership",
      "outputs": [],
      "stateMutability": "nonpayable",
      "type": "function"
    },
    {
      "inputs": [
        {
          "internalType": "address[]",
          "name": "_erc20Tokens",
          "type": "address[]"
        },
        {
          "internalType": "uint256[]",
          "name": "_amounts",
          "type": "uint256[]"
        }
      ],
      "name": "withdrawERC20",
      "outputs": [],
      "stateMutability": "nonpayable",
      "type": "function"
    }
  ],
  "transactionHash": "0x0be3d44b2e0f5233a9322410d9882154f623a11c190cabc9339215c59a838669",
  "args": [],
  "numDeployments": 1,
  "solcInputHash": "92797c126852f255b62c4db0ee32d1ba",
  "bytecode": "0x608060405234801561001057600080fd5b5061001a33610024565b6001600255610074565b600080546001600160a01b038381166001600160a01b0319831681178455604051919092169283917f8be0079c531659141344cd1fd0a4f28419497f9722a3daafe3b4186f6b6457e09190a35050565b611610806100836000396000f3fe608060405234801561001057600080fd5b50600436106101775760003560e01c80637fa97e0a116100d8578063b6ca0b631161008c578063d7f7402811610066578063d7f7402814610321578063e12f3a6114610357578063f2fde38b1461036a57600080fd5b8063b6ca0b63146102e8578063d46e4bcd14610306578063d5a73fdd1461030e57600080fd5b80638da5cb5b116100bd5780638da5cb5b146102665780638df40be814610284578063b187bd26146102ba57600080fd5b80637fa97e0a1461024b5780638307dc981461025e57600080fd5b806321df0da71161012f5780634e71d92d116101145780634e71d92d14610233578063715018a61461023b57806379ba50971461024357600080fd5b806321df0da7146101dd5780633113076a1461022157600080fd5b8063188190221161016057806318819022146101a45780631c722a5b146101b75780631ff64acd146101ca57600080fd5b8063144fa6d71461017c57806316c38b3c14610191575b600080fd5b61018f61018a36600461131c565b61037d565b005b61018f61019f3660046113be565b6103cc565b61018f6101b2366004611352565b610458565b61018f6101c53660046113f8565b6105db565b61018f6101d8366004611352565b610653565b60035473ffffffffffffffffffffffffffffffffffffffff165b60405173ffffffffffffffffffffffffffffffffffffffff90911681526020015b60405180910390f35b6005545b604051908152602001610218565b61018f6107d8565b61018f610b6f565b61018f610b8b565b61018f6102593660046113f8565b610c44565b600454610225565b60005473ffffffffffffffffffffffffffffffffffffffff166101f7565b61022561029236600461131c565b73ffffffffffffffffffffffffffffffffffffffff1660009081526007602052604090205490565b60015474010000000000000000000000000000000000000000900460ff166040519015158152602001610218565b60015473ffffffffffffffffffffffffffffffffffffffff166101f7565b600854610225565b61022561031c36600461131c565b610cbc565b61022561032f36600461131c565b73ffffffffffffffffffffffffffffffffffffffff1660009081526006602052604090205490565b61022561036536600461131c565b610d44565b61018f61037836600461131c565b610d9d565b610385610db1565b600380547fffffffffffffffffffffffff00000000000000000000000000000000000000001673ffffffffffffffffffffffffffffffffffffffff92909216919091179055565b6103d4610db1565b6001805482151574010000000000000000000000000000000000000000027fffffffffffffffffffffff00ffffffffffffffffffffffffffffffffffffffff9091161790556040517f9f0feb12ec37d0bafce34391846a3029957f297df0cdab56f163ad02591b87f39061044d90831515815260200190565b60405180910390a150565b610460610db1565b6002805414156104d1576040517f08c379a000000000000000000000000000000000000000000000000000000000815260206004820152601f60248201527f5265656e7472616e637947756172643a207265656e7472616e742063616c6c0060448201526064015b60405180910390fd5b6002805582811461053e576040517f08c379a000000000000000000000000000000000000000000000000000000000815260206004820152601560248201527f4172726179206c656e677468206d69736d61746368000000000000000000000060448201526064016104c8565b6000805473ffffffffffffffffffffffffffffffffffffffff169084905b818110156105cd576105c58386868481811061057a5761057a61159d565b905060200201358989858181106105935761059361159d565b90506020020160208101906105a8919061131c565b73ffffffffffffffffffffffffffffffffffffffff169190610e32565b60010161055c565b505060016002555050505050565b6105e3610db1565b600554811061064e576040517f08c379a000000000000000000000000000000000000000000000000000000000815260206004820152601e60248201527f56657374696e672073746172742074696d65203e3d20656e642074696d65000060448201526064016104c8565b600455565b61065b610db1565b8281146106c4576040517f08c379a000000000000000000000000000000000000000000000000000000000815260206004820152601560248201527f4172726179206c656e677468206d69736d61746368000000000000000000000060448201526064016104c8565b6008548360005b818110156107cd5760008585838181106106e7576106e761159d565b90506020020135905060008888848181106107045761070461159d565b9050602002016020810190610719919061131c565b73ffffffffffffffffffffffffffffffffffffffff811660009081526006602052604090205490915080831115610756578083038601955061075e565b828103860395505b73ffffffffffffffffffffffffffffffffffffffff8216600081815260066020908152604091829020869055815192835282018590527f7a994e2e422225102fed915394da80aeeea86e2c0ca3f41d6d48421252f83b92910160405180910390a18360010193505050506106cb565b505060085550505050565b600280541415610844576040517f08c379a000000000000000000000000000000000000000000000000000000000815260206004820152601f60248201527f5265656e7472616e637947756172643a207265656e7472616e742063616c6c0060448201526064016104c8565b6002805560015474010000000000000000000000000000000000000000900460ff16156108cd576040517f08c379a000000000000000000000000000000000000000000000000000000000815260206004820152600660248201527f506175736564000000000000000000000000000000000000000000000000000060448201526064016104c8565b60006108d833610d44565b60035490915073ffffffffffffffffffffffffffffffffffffffff168161095b576040517f08c379a000000000000000000000000000000000000000000000000000000000815260206004820152601460248201527f436c61696d61626c6520616d6f756e74203d203000000000000000000000000060448201526064016104c8565b6040517f70a08231000000000000000000000000000000000000000000000000000000008152306004820152829073ffffffffffffffffffffffffffffffffffffffff8316906370a082319060240160206040518083038186803b1580156109c257600080fd5b505afa1580156109d6573d6000803e3d6000fd5b505050506040513d601f19601f820116820180604052508101906109fa9190611411565b1015610a62576040517f08c379a000000000000000000000000000000000000000000000000000000000815260206004820181905260248201527f496e73756666696369656e742062616c616e636520696e20636f6e747261637460448201526064016104c8565b3360009081526007602052604081208054849290610a81908490611497565b90915550506040517fa9059cbb0000000000000000000000000000000000000000000000000000000081523360048201526024810183905273ffffffffffffffffffffffffffffffffffffffff82169063a9059cbb90604401602060405180830381600087803b158015610af457600080fd5b505af1158015610b08573d6000803e3d6000fd5b505050506040513d601f19601f82011682018060405250810190610b2c91906113db565b5060408051338152602081018490527f47cee97cb7acd717b3c0aa1435d004cd5b3c8c57d70dbceb4e4458bbd60e39d4910160405180910390a150506001600255565b610b77610db1565b610b7f610ec4565b610b896000610ed6565b565b60015473ffffffffffffffffffffffffffffffffffffffff163373ffffffffffffffffffffffffffffffffffffffff1614610c22576040517f08c379a000000000000000000000000000000000000000000000000000000000815260206004820152601560248201527f6d73672e73656e64657220213d206e6f6d696e6565000000000000000000000060448201526064016104c8565b600154610b7f9073ffffffffffffffffffffffffffffffffffffffff16610f4d565b610c4c610db1565b6004548111610cb7576040517f08c379a000000000000000000000000000000000000000000000000000000000815260206004820152601e60248201527f56657374696e6720656e642074696d65203c3d2073746172742074696d65000060448201526064016104c8565b600555565b60045460055473ffffffffffffffffffffffffffffffffffffffff83166000908152600660205260408120549092919042831115610cff57506000949350505050565b6000610d0b8484611527565b610d158542611527565b610d1f90846114ea565b610d2991906114af565b9050818110610d385781610d3a565b805b9695505050505050565b600080610d5083610cbc565b73ffffffffffffffffffffffffffffffffffffffff841660009081526007602052604090205490915080821115610d9357610d8b8183611527565b949350505050565b5060009392505050565b610da5610db1565b610dae81610ed6565b50565b60005473ffffffffffffffffffffffffffffffffffffffff163314610b89576040517f08c379a000000000000000000000000000000000000000000000000000000000815260206004820181905260248201527f4f776e61626c653a2063616c6c6572206973206e6f7420746865206f776e657260448201526064016104c8565b6040805173ffffffffffffffffffffffffffffffffffffffff8416602482015260448082018490528251808303909101815260649091019091526020810180517bffffffffffffffffffffffffffffffffffffffffffffffffffffffff167fa9059cbb00000000000000000000000000000000000000000000000000000000179052610ebf908490610fc2565b505050565b610ecc610db1565b610b896000610f4d565b6001805473ffffffffffffffffffffffffffffffffffffffff8381167fffffffffffffffffffffffff0000000000000000000000000000000000000000831681179093556040519116919082907fe7624d724357e317f51579affee5050a97c60b060e513e69aa8a1a35fb3315a790600090a35050565b6000805473ffffffffffffffffffffffffffffffffffffffff8381167fffffffffffffffffffffffff0000000000000000000000000000000000000000831681178455604051919092169283917f8be0079c531659141344cd1fd0a4f28419497f9722a3daafe3b4186f6b6457e09190a35050565b6000611024826040518060400160405280602081526020017f5361666545524332303a206c6f772d6c6576656c2063616c6c206661696c65648152508573ffffffffffffffffffffffffffffffffffffffff166110ce9092919063ffffffff16565b805190915015610ebf578080602001905181019061104291906113db565b610ebf576040517f08c379a000000000000000000000000000000000000000000000000000000000815260206004820152602a60248201527f5361666545524332303a204552433230206f7065726174696f6e20646964206e60448201527f6f7420737563636565640000000000000000000000000000000000000000000060648201526084016104c8565b60606110dd84846000856110e7565b90505b9392505050565b606082471015611179576040517f08c379a000000000000000000000000000000000000000000000000000000000815260206004820152602660248201527f416464726573733a20696e73756666696369656e742062616c616e636520666f60448201527f722063616c6c000000000000000000000000000000000000000000000000000060648201526084016104c8565b73ffffffffffffffffffffffffffffffffffffffff85163b6111f7576040517f08c379a000000000000000000000000000000000000000000000000000000000815260206004820152601d60248201527f416464726573733a2063616c6c20746f206e6f6e2d636f6e747261637400000060448201526064016104c8565b6000808673ffffffffffffffffffffffffffffffffffffffff168587604051611220919061142a565b60006040518083038185875af1925050503d806000811461125d576040519150601f19603f3d011682016040523d82523d6000602084013e611262565b606091505b509150915061127282828661127d565b979650505050505050565b6060831561128c5750816110e0565b82511561129c5782518084602001fd5b816040517f08c379a00000000000000000000000000000000000000000000000000000000081526004016104c89190611446565b60008083601f8401126112e257600080fd5b50813567ffffffffffffffff8111156112fa57600080fd5b6020830191508360208260051b850101111561131557600080fd5b9250929050565b60006020828403121561132e57600080fd5b813573ffffffffffffffffffffffffffffffffffffffff811681146110e057600080fd5b6000806000806040858703121561136857600080fd5b843567ffffffffffffffff8082111561138057600080fd5b61138c888389016112d0565b909650945060208701359150808211156113a557600080fd5b506113b2878288016112d0565b95989497509550505050565b6000602082840312156113d057600080fd5b81356110e0816115cc565b6000602082840312156113ed57600080fd5b81516110e0816115cc565b60006020828403121561140a57600080fd5b5035919050565b60006020828403121561142357600080fd5b5051919050565b6000825161143c81846020870161153e565b9190910192915050565b602081526000825180602084015261146581604085016020870161153e565b601f017fffffffffffffffffffffffffffffffffffffffffffffffffffffffffffffffe0169190910160400192915050565b600082198211156114aa576114aa61156e565b500190565b6000826114e5577f4e487b7100000000000000000000000000000000000000000000000000000000600052601260045260246000fd5b500490565b6000817fffffffffffffffffffffffffffffffffffffffffffffffffffffffffffffffff04831182151516156115225761152261156e565b500290565b6000828210156115395761153961156e565b500390565b60005b83811015611559578181015183820152602001611541565b83811115611568576000848401525b50505050565b7f4e487b7100000000000000000000000000000000000000000000000000000000600052601160045260246000fd5b7f4e487b7100000000000000000000000000000000000000000000000000000000600052603260045260246000fd5b8015158114610dae57600080fdfea2646970667358221220e450035e410ad679ea4607a20947a0989f334c0aa4c35aea29c466b4c53c4f1d64736f6c63430008070033",
  "devdoc": {
    "kind": "dev",
    "methods": {
      "acceptOwnership()": {
        "details": "Only callable by the current nominee. Sets nominee back to zero address."
      },
      "claim()": {
        "details": "Only claimable when not paused.Claimable amount will be 0 if the vested amount is less than the total claimed amount. This is possible if the recipient's allocation was adjusted to be lower."
      },
      "getNominee()": {
        "returns": {
          "_0": "The current nominee"
        }
      },
      "getToken()": {
        "returns": {
          "_0": "Address of the vested tokens"
        }
      },
      "getTotalAllocatedSupply()": {
        "returns": {
          "_0": "Total amount of tokens allocated to all recipients"
        }
      },
      "getVestingEndTime()": {
        "returns": {
          "_0": "Unix timestamp for when the vesting ends"
        }
      },
      "getVestingStartTime()": {
        "returns": {
          "_0": "Unix timestamp for when the vesting starts"
        }
      },
      "isPaused()": {
        "returns": {
          "_0": "Whether the contract is currently paused"
        }
      },
      "owner()": {
        "details": "Returns the address of the current owner."
      }
    },
    "version": 1
  },
  "userdoc": {
    "kind": "user",
    "methods": {
      "acceptOwnership()": {
        "notice": "Accepts ownership nomination."
      },
      "claim()": {
        "notice": "Transfers vested amount of tokens to the caller."
      }
    },
    "version": 1
  },
  "storageLayout": {
    "storage": [
      {
        "astId": 3315,
        "contract": "contracts/vesting/Vesting.sol:Vesting",
        "label": "_owner",
        "offset": 0,
        "slot": "0",
        "type": "t_address"
      },
      {
        "astId": 47123,
        "contract": "contracts/vesting/Vesting.sol:Vesting",
        "label": "_nominee",
        "offset": 0,
        "slot": "1",
        "type": "t_address"
      },
      {
        "astId": 47072,
        "contract": "contracts/vesting/Vesting.sol:Vesting",
        "label": "_paused",
        "offset": 20,
        "slot": "1",
        "type": "t_bool"
      },
      {
        "astId": 4293,
        "contract": "contracts/vesting/Vesting.sol:Vesting",
        "label": "_status",
        "offset": 0,
        "slot": "2",
        "type": "t_uint256"
      },
      {
        "astId": 46544,
        "contract": "contracts/vesting/Vesting.sol:Vesting",
        "label": "_token",
        "offset": 0,
        "slot": "3",
        "type": "t_contract(IERC20)6387"
      },
      {
        "astId": 46546,
        "contract": "contracts/vesting/Vesting.sol:Vesting",
        "label": "_vestingStartTime",
        "offset": 0,
        "slot": "4",
        "type": "t_uint256"
      },
      {
        "astId": 46548,
        "contract": "contracts/vesting/Vesting.sol:Vesting",
        "label": "_vestingEndTime",
        "offset": 0,
        "slot": "5",
        "type": "t_uint256"
      },
      {
        "astId": 46552,
        "contract": "contracts/vesting/Vesting.sol:Vesting",
        "label": "_recipientToAllocatedAmount",
        "offset": 0,
        "slot": "6",
        "type": "t_mapping(t_address,t_uint256)"
      },
      {
        "astId": 46556,
        "contract": "contracts/vesting/Vesting.sol:Vesting",
        "label": "_recipientToClaimedAmount",
        "offset": 0,
        "slot": "7",
        "type": "t_mapping(t_address,t_uint256)"
      },
      {
        "astId": 46558,
        "contract": "contracts/vesting/Vesting.sol:Vesting",
        "label": "_totalAllocatedSupply",
        "offset": 0,
        "slot": "8",
        "type": "t_uint256"
      }
    ],
    "types": {
      "t_address": {
        "encoding": "inplace",
        "label": "address",
        "numberOfBytes": "20"
      },
      "t_bool": {
        "encoding": "inplace",
        "label": "bool",
        "numberOfBytes": "1"
      },
      "t_contract(IERC20)6387": {
        "encoding": "inplace",
        "label": "contract IERC20",
        "numberOfBytes": "20"
      },
      "t_mapping(t_address,t_uint256)": {
        "encoding": "mapping",
        "key": "t_address",
        "label": "mapping(address => uint256)",
        "numberOfBytes": "32",
        "value": "t_uint256"
      },
      "t_uint256": {
        "encoding": "inplace",
        "label": "uint256",
        "numberOfBytes": "32"
      }
    }
  }
}