{
  "_format": "hh-sol-artifact-1",
  "contractName": "MockDErc20",
  "sourceName": "contracts/mock/MockDErc20.sol",
  "abi": [
    {
      "inputs": [
        {
          "internalType": "string",
          "name": "name",
          "type": "string"
        },
        {
          "internalType": "string",
          "name": "symbol",
          "type": "string"
        },
        {
          "internalType": "contract IERC20",
          "name": "_underlying",
          "type": "address"
        }
      ],
      "stateMutability": "nonpayable",
      "type": "constructor"
    },
    {
      "anonymous": false,
      "inputs": [
        {
          "indexed": true,
          "internalType": "address",
          "name": "owner",
          "type": "address"
        },
        {
          "indexed": true,
          "internalType": "address",
          "name": "spender",
          "type": "address"
        },
        {
          "indexed": false,
          "internalType": "uint256",
          "name": "value",
          "type": "uint256"
        }
      ],
      "name": "Approval",
      "type": "event"
    },
    {
      "anonymous": false,
      "inputs": [
        {
          "indexed": true,
          "internalType": "address",
          "name": "from",
          "type": "address"
        },
        {
          "indexed": true,
          "internalType": "address",
          "name": "to",
          "type": "address"
        },
        {
          "indexed": false,
          "internalType": "uint256",
          "name": "value",
          "type": "uint256"
        }
      ],
      "name": "Transfer",
      "type": "event"
    },
    {
      "inputs": [
        {
          "internalType": "address",
          "name": "owner",
          "type": "address"
        },
        {
          "internalType": "address",
          "name": "spender",
          "type": "address"
        }
      ],
      "name": "allowance",
      "outputs": [
        {
          "internalType": "uint256",
          "name": "",
          "type": "uint256"
        }
      ],
      "stateMutability": "view",
      "type": "function"
    },
    {
      "inputs": [
        {
          "internalType": "address",
          "name": "spender",
          "type": "address"
        },
        {
          "internalType": "uint256",
          "name": "amount",
          "type": "uint256"
        }
      ],
      "name": "approve",
      "outputs": [
        {
          "internalType": "bool",
          "name": "",
          "type": "bool"
        }
      ],
      "stateMutability": "nonpayable",
      "type": "function"
    },
    {
      "inputs": [
        {
          "internalType": "address",
          "name": "account",
          "type": "address"
        }
      ],
      "name": "balanceOf",
      "outputs": [
        {
          "internalType": "uint256",
          "name": "",
          "type": "uint256"
        }
      ],
      "stateMutability": "view",
      "type": "function"
    },
    {
      "inputs": [],
      "name": "decimals",
      "outputs": [
        {
          "internalType": "uint8",
          "name": "",
          "type": "uint8"
        }
      ],
      "stateMutability": "view",
      "type": "function"
    },
    {
      "inputs": [
        {
          "internalType": "address",
          "name": "spender",
          "type": "address"
        },
        {
          "internalType": "uint256",
          "name": "subtractedValue",
          "type": "uint256"
        }
      ],
      "name": "decreaseAllowance",
      "outputs": [
        {
          "internalType": "bool",
          "name": "",
          "type": "bool"
        }
      ],
      "stateMutability": "nonpayable",
      "type": "function"
    },
    {
      "inputs": [],
      "name": "getExchangeRate",
      "outputs": [
        {
          "internalType": "uint256",
          "name": "",
          "type": "uint256"
        }
      ],
      "stateMutability": "pure",
      "type": "function"
    },
    {
      "inputs": [
        {
          "internalType": "address",
          "name": "_account",
          "type": "address"
        }
      ],
      "name": "getTokenBalance",
      "outputs": [
        {
          "internalType": "uint256",
          "name": "",
          "type": "uint256"
        }
      ],
      "stateMutability": "view",
      "type": "function"
    },
    {
      "inputs": [
        {
          "internalType": "address",
          "name": "spender",
          "type": "address"
        },
        {
          "internalType": "uint256",
          "name": "addedValue",
          "type": "uint256"
        }
      ],
      "name": "increaseAllowance",
      "outputs": [
        {
          "internalType": "bool",
          "name": "",
          "type": "bool"
        }
      ],
      "stateMutability": "nonpayable",
      "type": "function"
    },
    {
      "inputs": [
        {
          "internalType": "address",
          "name": "_account",
          "type": "address"
        },
        {
          "internalType": "uint256",
          "name": "_amount",
          "type": "uint256"
        }
      ],
      "name": "mint",
      "outputs": [],
      "stateMutability": "nonpayable",
      "type": "function"
    },
    {
      "inputs": [],
      "name": "name",
      "outputs": [
        {
          "internalType": "string",
          "name": "",
          "type": "string"
        }
      ],
      "stateMutability": "view",
      "type": "function"
    },
    {
      "inputs": [
        {
          "internalType": "address",
          "name": "_account",
          "type": "address"
        },
        {
          "internalType": "uint256",
          "name": "_amount",
          "type": "uint256"
        }
      ],
      "name": "redeem",
      "outputs": [],
      "stateMutability": "nonpayable",
      "type": "function"
    },
    {
      "inputs": [],
      "name": "symbol",
      "outputs": [
        {
          "internalType": "string",
          "name": "",
          "type": "string"
        }
      ],
      "stateMutability": "view",
      "type": "function"
    },
    {
      "inputs": [],
      "name": "totalSupply",
      "outputs": [
        {
          "internalType": "uint256",
          "name": "",
          "type": "uint256"
        }
      ],
      "stateMutability": "view",
      "type": "function"
    },
    {
      "inputs": [
        {
          "internalType": "address",
          "name": "recipient",
          "type": "address"
        },
        {
          "internalType": "uint256",
          "name": "amount",
          "type": "uint256"
        }
      ],
      "name": "transfer",
      "outputs": [
        {
          "internalType": "bool",
          "name": "",
          "type": "bool"
        }
      ],
      "stateMutability": "nonpayable",
      "type": "function"
    },
    {
      "inputs": [
        {
          "internalType": "address",
          "name": "sender",
          "type": "address"
        },
        {
          "internalType": "address",
          "name": "recipient",
          "type": "address"
        },
        {
          "internalType": "uint256",
          "name": "amount",
          "type": "uint256"
        }
      ],
      "name": "transferFrom",
      "outputs": [
        {
          "internalType": "bool",
          "name": "",
          "type": "bool"
        }
      ],
      "stateMutability": "nonpayable",
      "type": "function"
    },
    {
      "inputs": [],
      "name": "underlying",
      "outputs": [
        {
          "internalType": "contract IERC20",
          "name": "",
          "type": "address"
        }
      ],
      "stateMutability": "view",
      "type": "function"
    }
  ],
  "bytecode": "0x60806040523480156200001157600080fd5b506040516200158a3803806200158a833981810160405260608110156200003757600080fd5b81019080805160405193929190846401000000008211156200005857600080fd5b9083019060208201858111156200006e57600080fd5b82516401000000008111828201881017156200008957600080fd5b82525081516020918201929091019080838360005b83811015620000b85781810151838201526020016200009e565b50505050905090810190601f168015620000e65780820380516001836020036101000a031916815260200191505b50604052602001805160405193929190846401000000008211156200010a57600080fd5b9083019060208201858111156200012057600080fd5b82516401000000008111828201881017156200013b57600080fd5b82525081516020918201929091019080838360005b838110156200016a57818101518382015260200162000150565b50505050905090810190601f168015620001985780820380516001836020036101000a031916815260200191505b5060405260209081015185519093508592508491620001bd9160039185019062000210565b508051620001d390600490602084019062000210565b5050600580546001600160a01b0390931661010002610100600160a81b031960ff19909416601217939093169290921790915550620002ac915050565b828054600181600116156101000203166002900490600052602060002090601f016020900481019282601f106200025357805160ff191683800117855562000283565b8280016001018555821562000283579182015b828111156200028357825182559160200191906001019062000266565b506200029192915062000295565b5090565b5b8082111562000291576000815560010162000296565b6112ce80620002bc6000396000f3fe608060405234801561001057600080fd5b50600436106101005760003560e01c806340c10f1911610097578063a457c2d711610066578063a457c2d71461032e578063a9059cbb1461035a578063dd62ed3e14610386578063e6aa216c146103b457610100565b806340c10f19146102b05780636f307dc3146102dc57806370a082311461030057806395d89b411461032657610100565b806323b872dd116100d357806323b872dd1461020a578063313ce56714610240578063395093511461025e5780633aecd0e31461028a57610100565b806306fdde0314610105578063095ea7b31461018257806318160ddd146101c25780631e9a6950146101dc575b600080fd5b61010d6103bc565b6040805160208082528351818301528351919283929083019185019080838360005b8381101561014757818101518382015260200161012f565b50505050905090810190601f1680156101745780820380516001836020036101000a031916815260200191505b509250505060405180910390f35b6101ae6004803603604081101561019857600080fd5b506001600160a01b038135169060200135610452565b604080519115158252519081900360200190f35b6101ca610470565b60408051918252519081900360200190f35b610208600480360360408110156101f257600080fd5b506001600160a01b038135169060200135610476565b005b6101ae6004803603606081101561022057600080fd5b506001600160a01b038135811691602081013590911690604001356104c9565b610248610551565b6040805160ff9092168252519081900360200190f35b6101ae6004803603604081101561027457600080fd5b506001600160a01b03813516906020013561055a565b6101ca600480360360208110156102a057600080fd5b50356001600160a01b03166105a8565b610208600480360360408110156102c657600080fd5b506001600160a01b0381351690602001356105d0565b6102e4610619565b604080516001600160a01b039092168252519081900360200190f35b6101ca6004803603602081101561031657600080fd5b50356001600160a01b031661062d565b61010d610648565b6101ae6004803603604081101561034457600080fd5b506001600160a01b0381351690602001356106a9565b6101ae6004803603604081101561037057600080fd5b506001600160a01b038135169060200135610711565b6101ca6004803603604081101561039c57600080fd5b506001600160a01b0381358116916020013516610725565b6101ca610750565b60038054604080516020601f60026000196101006001881615020190951694909404938401819004810282018101909252828152606093909290918301828280156104485780601f1061041d57610100808354040283529160200191610448565b820191906000526020600020905b81548152906001019060200180831161042b57829003601f168201915b5050505050905090565b600061046661045f61075c565b8484610760565b5060015b92915050565b60025490565b600061049c670de0b6b3a764000061049661048f610750565b859061084c565b906108a5565b90506104a8838361090c565b6005546104c49061010090046001600160a01b03163383610a08565b505050565b60006104d6848484610a5a565b610546846104e261075c565b610541856040518060600160405280602881526020016111b8602891396001600160a01b038a1660009081526001602052604081209061052061075c565b6001600160a01b031681526020810191909152604001600020549190610bb5565b610760565b5060015b9392505050565b60055460ff1690565b600061046661056761075c565b84610541856001600061057861075c565b6001600160a01b03908116825260208083019390935260409182016000908120918c168152925290205490610c4c565b600061046a670de0b6b3a76400006104966105c1610750565b6105ca8661062d565b9061084c565b60006105ef6105dd610750565b61049684670de0b6b3a764000061084c565b60055490915061060f9061010090046001600160a01b0316333085610ca6565b6104c48382610d06565b60055461010090046001600160a01b031681565b6001600160a01b031660009081526020819052604090205490565b60048054604080516020601f60026000196101006001881615020190951694909404938401819004810282018101909252828152606093909290918301828280156104485780601f1061041d57610100808354040283529160200191610448565b60006104666106b661075c565b846105418560405180606001604052806025815260200161127460259139600160006106e061075c565b6001600160a01b03908116825260208083019390935260409182016000908120918d16815292529020549190610bb5565b600061046661071e61075c565b8484610a5a565b6001600160a01b03918216600090815260016020908152604080832093909416825291909152205490565b671bc16d674ec8000090565b3390565b6001600160a01b0383166107a55760405162461bcd60e51b81526004018080602001828103825260248152602001806112266024913960400191505060405180910390fd5b6001600160a01b0382166107ea5760405162461bcd60e51b81526004018080602001828103825260228152602001806111296022913960400191505060405180910390fd5b6001600160a01b03808416600081815260016020908152604080832094871680845294825291829020859055815185815291517f8c5be1e5ebec7d5bd14f71427d1e84f3dd0314c0f7b2291e5b200ac8c7c3b9259281900390910190a3505050565b60008261085b5750600061046a565b8282028284828161086857fe5b041461054a5760405162461bcd60e51b81526004018080602001828103825260218152602001806111976021913960400191505060405180910390fd5b60008082116108fb576040805162461bcd60e51b815260206004820152601a60248201527f536166654d6174683a206469766973696f6e206279207a65726f000000000000604482015290519081900360640190fd5b81838161090457fe5b049392505050565b6001600160a01b0382166109515760405162461bcd60e51b81526004018080602001828103825260218152602001806111e06021913960400191505060405180910390fd5b61095d826000836104c4565b61099a81604051806060016040528060228152602001611107602291396001600160a01b0385166000908152602081905260409020549190610bb5565b6001600160a01b0383166000908152602081905260409020556002546109c09082610df6565b6002556040805182815290516000916001600160a01b038516917fddf252ad1be2c89b69c2b068fc378daa952ba7f163c4a11628f55a4df523b3ef9181900360200190a35050565b604080516001600160a01b038416602482015260448082018490528251808303909101815260649091019091526020810180516001600160e01b031663a9059cbb60e01b1790526104c4908490610e53565b6001600160a01b038316610a9f5760405162461bcd60e51b81526004018080602001828103825260258152602001806112016025913960400191505060405180910390fd5b6001600160a01b038216610ae45760405162461bcd60e51b81526004018080602001828103825260238152602001806110e46023913960400191505060405180910390fd5b610aef8383836104c4565b610b2c8160405180606001604052806026815260200161114b602691396001600160a01b0386166000908152602081905260409020549190610bb5565b6001600160a01b038085166000908152602081905260408082209390935590841681522054610b5b9082610c4c565b6001600160a01b038084166000818152602081815260409182902094909455805185815290519193928716927fddf252ad1be2c89b69c2b068fc378daa952ba7f163c4a11628f55a4df523b3ef92918290030190a3505050565b60008184841115610c445760405162461bcd60e51b81526004018080602001828103825283818151815260200191508051906020019080838360005b83811015610c09578181015183820152602001610bf1565b50505050905090810190601f168015610c365780820380516001836020036101000a031916815260200191505b509250505060405180910390fd5b505050900390565b60008282018381101561054a576040805162461bcd60e51b815260206004820152601b60248201527f536166654d6174683a206164646974696f6e206f766572666c6f770000000000604482015290519081900360640190fd5b604080516001600160a01b0380861660248301528416604482015260648082018490528251808303909101815260849091019091526020810180516001600160e01b03166323b872dd60e01b179052610d00908590610e53565b50505050565b6001600160a01b038216610d61576040805162461bcd60e51b815260206004820152601f60248201527f45524332303a206d696e7420746f20746865207a65726f206164647265737300604482015290519081900360640190fd5b610d6d600083836104c4565b600254610d7a9082610c4c565b6002556001600160a01b038216600090815260208190526040902054610da09082610c4c565b6001600160a01b0383166000818152602081815260408083209490945583518581529351929391927fddf252ad1be2c89b69c2b068fc378daa952ba7f163c4a11628f55a4df523b3ef9281900390910190a35050565b600082821115610e4d576040805162461bcd60e51b815260206004820152601e60248201527f536166654d6174683a207375627472616374696f6e206f766572666c6f770000604482015290519081900360640190fd5b50900390565b6060610ea8826040518060400160405280602081526020017f5361666545524332303a206c6f772d6c6576656c2063616c6c206661696c6564815250856001600160a01b0316610f049092919063ffffffff16565b8051909150156104c457808060200190516020811015610ec757600080fd5b50516104c45760405162461bcd60e51b815260040180806020018281038252602a81526020018061124a602a913960400191505060405180910390fd5b6060610f138484600085610f1b565b949350505050565b606082471015610f5c5760405162461bcd60e51b81526004018080602001828103825260268152602001806111716026913960400191505060405180910390fd5b610f6585611077565b610fb6576040805162461bcd60e51b815260206004820152601d60248201527f416464726573733a2063616c6c20746f206e6f6e2d636f6e7472616374000000604482015290519081900360640190fd5b60006060866001600160a01b031685876040518082805190602001908083835b60208310610ff55780518252601f199092019160209182019101610fd6565b6001836020036101000a03801982511681845116808217855250505050505090500191505060006040518083038185875af1925050503d8060008114611057576040519150601f19603f3d011682016040523d82523d6000602084013e61105c565b606091505b509150915061106c82828661107d565b979650505050505050565b3b151590565b6060831561108c57508161054a565b82511561109c5782518084602001fd5b60405162461bcd60e51b8152602060048201818152845160248401528451859391928392604401919085019080838360008315610c09578181015183820152602001610bf156fe45524332303a207472616e7366657220746f20746865207a65726f206164647265737345524332303a206275726e20616d6f756e7420657863656564732062616c616e636545524332303a20617070726f766520746f20746865207a65726f206164647265737345524332303a207472616e7366657220616d6f756e7420657863656564732062616c616e6365416464726573733a20696e73756666696369656e742062616c616e636520666f722063616c6c536166654d6174683a206d756c7469706c69636174696f6e206f766572666c6f7745524332303a207472616e7366657220616d6f756e74206578636565647320616c6c6f77616e636545524332303a206275726e2066726f6d20746865207a65726f206164647265737345524332303a207472616e736665722066726f6d20746865207a65726f206164647265737345524332303a20617070726f76652066726f6d20746865207a65726f20616464726573735361666545524332303a204552433230206f7065726174696f6e20646964206e6f74207375636365656445524332303a2064656372656173656420616c6c6f77616e63652062656c6f77207a65726fa26469706673582212206c2597d37907c20d4eec9d6c79e0c8696c565e8e877506fc80f79346b6b1908064736f6c634300060c0033",
  "linkReferences": {},
  "deployedLinkReferences": {}
}