{
  "_format": "hh-sol-artifact-1",
  "contractName": "LPTokenWrapper",
  "sourceName": "contracts/token/Rewards.sol",
  "abi": [
    {
      "inputs": [
        {
          "internalType": "address",
          "name": "_stakingToken",
          "type": "address"
        }
      ],
      "stateMutability": "nonpayable",
      "type": "constructor"
    },
    {
      "inputs": [
        {
          "internalType": "address",
          "name": "account",
          "type": "address"
        }
      ],
      "name": "balanceOf",
      "outputs": [
        {
          "internalType": "uint256",
          "name": "",
          "type": "uint256"
        }
      ],
      "stateMutability": "view",
      "type": "function"
    },
    {
      "inputs": [
        {
          "internalType": "uint256",
          "name": "amount",
          "type": "uint256"
        }
      ],
      "name": "stake",
      "outputs": [],
      "stateMutability": "nonpayable",
      "type": "function"
    },
    {
      "inputs": [],
      "name": "stakingToken",
      "outputs": [
        {
          "internalType": "contract IERC20",
          "name": "",
          "type": "address"
        }
      ],
      "stateMutability": "view",
      "type": "function"
    },
    {
      "inputs": [],
      "name": "totalSupply",
      "outputs": [
        {
          "internalType": "uint256",
          "name": "",
          "type": "uint256"
        }
      ],
      "stateMutability": "view",
      "type": "function"
    },
    {
      "inputs": [
        {
          "internalType": "uint256",
          "name": "amount",
          "type": "uint256"
        }
      ],
      "name": "withdraw",
      "outputs": [],
      "stateMutability": "nonpayable",
      "type": "function"
    }
  ],
  "bytecode": "0x60a060405234801561001057600080fd5b506040516107613803806107618339818101604052602081101561003357600080fd5b5051606081901b6001600160601b0319166080526001600160a01b03166106f061007160003980610144528061019352806101f752506106f06000f3fe608060405234801561001057600080fd5b50600436106100575760003560e01c806318160ddd1461005c5780632e1a7d4d1461007657806370a082311461009557806372f702f3146100bb578063a694fc3a146100df575b600080fd5b6100646100fc565b60408051918252519081900360200190f35b6100936004803603602081101561008c57600080fd5b5035610102565b005b610064600480360360208110156100ab57600080fd5b50356001600160a01b0316610176565b6100c3610191565b604080516001600160a01b039092168252519081900360200190f35b610093600480360360208110156100f557600080fd5b50356101b5565b60005490565b60005461010f9082610227565b60009081553381526001602052604090205461012b9082610227565b33600081815260016020526040902091909155610173907f00000000000000000000000000000000000000000000000000000000000000006001600160a01b03169083610284565b50565b6001600160a01b031660009081526001602052604090205490565b7f000000000000000000000000000000000000000000000000000000000000000081565b6000546101c290826102db565b6000908155338152600160205260409020546101de90826102db565b33600081815260016020526040902091909155610173907f00000000000000000000000000000000000000000000000000000000000000006001600160a01b031690308461033c565b60008282111561027e576040805162461bcd60e51b815260206004820152601e60248201527f536166654d6174683a207375627472616374696f6e206f766572666c6f770000604482015290519081900360640190fd5b50900390565b604080516001600160a01b038416602482015260448082018490528251808303909101815260649091019091526020810180516001600160e01b031663a9059cbb60e01b1790526102d690849061039c565b505050565b600082820183811015610335576040805162461bcd60e51b815260206004820152601b60248201527f536166654d6174683a206164646974696f6e206f766572666c6f770000000000604482015290519081900360640190fd5b9392505050565b604080516001600160a01b0380861660248301528416604482015260648082018490528251808303909101815260849091019091526020810180516001600160e01b03166323b872dd60e01b17905261039690859061039c565b50505050565b60606103f1826040518060400160405280602081526020017f5361666545524332303a206c6f772d6c6576656c2063616c6c206661696c6564815250856001600160a01b031661044d9092919063ffffffff16565b8051909150156102d65780806020019051602081101561041057600080fd5b50516102d65760405162461bcd60e51b815260040180806020018281038252602a815260200180610691602a913960400191505060405180910390fd5b606061045c8484600085610464565b949350505050565b6060824710156104a55760405162461bcd60e51b815260040180806020018281038252602681526020018061066b6026913960400191505060405180910390fd5b6104ae856105c0565b6104ff576040805162461bcd60e51b815260206004820152601d60248201527f416464726573733a2063616c6c20746f206e6f6e2d636f6e7472616374000000604482015290519081900360640190fd5b60006060866001600160a01b031685876040518082805190602001908083835b6020831061053e5780518252601f19909201916020918201910161051f565b6001836020036101000a03801982511681845116808217855250505050505090500191505060006040518083038185875af1925050503d80600081146105a0576040519150601f19603f3d011682016040523d82523d6000602084013e6105a5565b606091505b50915091506105b58282866105c6565b979650505050505050565b3b151590565b606083156105d5575081610335565b8251156105e55782518084602001fd5b8160405162461bcd60e51b81526004018080602001828103825283818151815260200191508051906020019080838360005b8381101561062f578181015183820152602001610617565b50505050905090810190601f16801561065c5780820380516001836020036101000a031916815260200191505b509250505060405180910390fdfe416464726573733a20696e73756666696369656e742062616c616e636520666f722063616c6c5361666545524332303a204552433230206f7065726174696f6e20646964206e6f742073756363656564a2646970667358221220c480c2043158276a5c5ff9a6a0df68cdccfe930ba5f52b49a2b06598668f78ae64736f6c634300060c0033",
  "linkReferences": {},
  "deployedLinkReferences": {}
}