{
  "_format": "hh-sol-artifact-1",
  "contractName": "Rewards",
  "sourceName": "contracts/token/Rewards.sol",
  "abi": [
    {
      "inputs": [
        {
          "internalType": "address",
          "name": "_rewardToken",
          "type": "address"
        },
        {
          "internalType": "address",
          "name": "_stakingToken",
          "type": "address"
        },
        {
          "internalType": "uint256",
          "name": "_duration",
          "type": "uint256"
        }
      ],
      "stateMutability": "nonpayable",
      "type": "constructor"
    },
    {
      "anonymous": false,
      "inputs": [
        {
          "indexed": true,
          "internalType": "address",
          "name": "previousOwner",
          "type": "address"
        },
        {
          "indexed": true,
          "internalType": "address",
          "name": "newOwner",
          "type": "address"
        }
      ],
      "name": "OwnershipTransferred",
      "type": "event"
    },
    {
      "anonymous": false,
      "inputs": [
        {
          "indexed": false,
          "internalType": "uint256",
          "name": "reward",
          "type": "uint256"
        }
      ],
      "name": "RewardAdded",
      "type": "event"
    },
    {
      "anonymous": false,
      "inputs": [
        {
          "indexed": true,
          "internalType": "address",
          "name": "user",
          "type": "address"
        },
        {
          "indexed": false,
          "internalType": "uint256",
          "name": "reward",
          "type": "uint256"
        }
      ],
      "name": "RewardPaid",
      "type": "event"
    },
    {
      "anonymous": false,
      "inputs": [
        {
          "indexed": true,
          "internalType": "address",
          "name": "user",
          "type": "address"
        },
        {
          "indexed": false,
          "internalType": "uint256",
          "name": "amount",
          "type": "uint256"
        }
      ],
      "name": "Staked",
      "type": "event"
    },
    {
      "anonymous": false,
      "inputs": [
        {
          "indexed": true,
          "internalType": "address",
          "name": "user",
          "type": "address"
        },
        {
          "indexed": false,
          "internalType": "uint256",
          "name": "amount",
          "type": "uint256"
        }
      ],
      "name": "Withdrawn",
      "type": "event"
    },
    {
      "inputs": [
        {
          "internalType": "address",
          "name": "account",
          "type": "address"
        }
      ],
      "name": "balanceOf",
      "outputs": [
        {
          "internalType": "uint256",
          "name": "",
          "type": "uint256"
        }
      ],
      "stateMutability": "view",
      "type": "function"
    },
    {
      "inputs": [],
      "name": "duration",
      "outputs": [
        {
          "internalType": "uint256",
          "name": "",
          "type": "uint256"
        }
      ],
      "stateMutability": "view",
      "type": "function"
    },
    {
      "inputs": [
        {
          "internalType": "address",
          "name": "account",
          "type": "address"
        }
      ],
      "name": "earned",
      "outputs": [
        {
          "internalType": "uint256",
          "name": "",
          "type": "uint256"
        }
      ],
      "stateMutability": "view",
      "type": "function"
    },
    {
      "inputs": [],
      "name": "exit",
      "outputs": [],
      "stateMutability": "nonpayable",
      "type": "function"
    },
    {
      "inputs": [],
      "name": "getReward",
      "outputs": [],
      "stateMutability": "nonpayable",
      "type": "function"
    },
    {
      "inputs": [],
      "name": "lastTimeRewardApplicable",
      "outputs": [
        {
          "internalType": "uint256",
          "name": "",
          "type": "uint256"
        }
      ],
      "stateMutability": "view",
      "type": "function"
    },
    {
      "inputs": [],
      "name": "lastUpdateTime",
      "outputs": [
        {
          "internalType": "uint256",
          "name": "",
          "type": "uint256"
        }
      ],
      "stateMutability": "view",
      "type": "function"
    },
    {
      "inputs": [
        {
          "internalType": "uint256",
          "name": "reward",
          "type": "uint256"
        }
      ],
      "name": "notifyRewardAmount",
      "outputs": [],
      "stateMutability": "nonpayable",
      "type": "function"
    },
    {
      "inputs": [
        {
          "internalType": "address",
          "name": "sender",
          "type": "address"
        },
        {
          "internalType": "uint256",
          "name": "amount",
          "type": "uint256"
        },
        {
          "internalType": "bytes",
          "name": "",
          "type": "bytes"
        }
      ],
      "name": "onTokenTransfer",
      "outputs": [],
      "stateMutability": "nonpayable",
      "type": "function"
    },
    {
      "inputs": [],
      "name": "owner",
      "outputs": [
        {
          "internalType": "address",
          "name": "",
          "type": "address"
        }
      ],
      "stateMutability": "view",
      "type": "function"
    },
    {
      "inputs": [],
      "name": "periodFinish",
      "outputs": [
        {
          "internalType": "uint256",
          "name": "",
          "type": "uint256"
        }
      ],
      "stateMutability": "view",
      "type": "function"
    },
    {
      "inputs": [],
      "name": "renounceOwnership",
      "outputs": [],
      "stateMutability": "nonpayable",
      "type": "function"
    },
    {
      "inputs": [],
      "name": "rewardDistribution",
      "outputs": [
        {
          "internalType": "address",
          "name": "",
          "type": "address"
        }
      ],
      "stateMutability": "view",
      "type": "function"
    },
    {
      "inputs": [],
      "name": "rewardPerToken",
      "outputs": [
        {
          "internalType": "uint256",
          "name": "",
          "type": "uint256"
        }
      ],
      "stateMutability": "view",
      "type": "function"
    },
    {
      "inputs": [],
      "name": "rewardPerTokenStored",
      "outputs": [
        {
          "internalType": "uint256",
          "name": "",
          "type": "uint256"
        }
      ],
      "stateMutability": "view",
      "type": "function"
    },
    {
      "inputs": [],
      "name": "rewardRate",
      "outputs": [
        {
          "internalType": "uint256",
          "name": "",
          "type": "uint256"
        }
      ],
      "stateMutability": "view",
      "type": "function"
    },
    {
      "inputs": [],
      "name": "rewardToken",
      "outputs": [
        {
          "internalType": "contract IERC20",
          "name": "",
          "type": "address"
        }
      ],
      "stateMutability": "view",
      "type": "function"
    },
    {
      "inputs": [
        {
          "internalType": "address",
          "name": "",
          "type": "address"
        }
      ],
      "name": "rewards",
      "outputs": [
        {
          "internalType": "uint256",
          "name": "",
          "type": "uint256"
        }
      ],
      "stateMutability": "view",
      "type": "function"
    },
    {
      "inputs": [
        {
          "internalType": "address",
          "name": "_rewardDistribution",
          "type": "address"
        }
      ],
      "name": "setRewardDistribution",
      "outputs": [],
      "stateMutability": "nonpayable",
      "type": "function"
    },
    {
      "inputs": [
        {
          "internalType": "uint256",
          "name": "amount",
          "type": "uint256"
        }
      ],
      "name": "stake",
      "outputs": [],
      "stateMutability": "nonpayable",
      "type": "function"
    },
    {
      "inputs": [],
      "name": "stakingToken",
      "outputs": [
        {
          "internalType": "contract IERC20",
          "name": "",
          "type": "address"
        }
      ],
      "stateMutability": "view",
      "type": "function"
    },
    {
      "inputs": [],
      "name": "totalSupply",
      "outputs": [
        {
          "internalType": "uint256",
          "name": "",
          "type": "uint256"
        }
      ],
      "stateMutability": "view",
      "type": "function"
    },
    {
      "inputs": [
        {
          "internalType": "address",
          "name": "newOwner",
          "type": "address"
        }
      ],
      "name": "transferOwnership",
      "outputs": [],
      "stateMutability": "nonpayable",
      "type": "function"
    },
    {
      "inputs": [
        {
          "internalType": "address",
          "name": "",
          "type": "address"
        }
      ],
      "name": "userRewardPerTokenPaid",
      "outputs": [
        {
          "internalType": "uint256",
          "name": "",
          "type": "uint256"
        }
      ],
      "stateMutability": "view",
      "type": "function"
    },
    {
      "inputs": [
        {
          "internalType": "uint256",
          "name": "amount",
          "type": "uint256"
        }
      ],
      "name": "withdraw",
      "outputs": [],
      "stateMutability": "nonpayable",
      "type": "function"
    }
  ],
  "bytecode": "0x60e06040526000600455600060055534801561001a57600080fd5b506040516116493803806116498339818101604052606081101561003d57600080fd5b50805160208201516040909201516001600160601b0319606084901b16608052909190600061006a6100d4565b600280546001600160a01b0319166001600160a01b038316908117909155604051919250906000907f8be0079c531659141344cd1fd0a4f28419497f9722a3daafe3b4186f6b6457e0908290a35060609290921b6001600160601b03191660a0525060c0526100d8565b3390565b60805160601c60a05160601c60c05161151c61012d6000398061052d5280610710528061076c52806107a75250806108895280610db75250806109ce5280610a905280610f9d52806110d0525061151c6000f3fe608060405234801561001057600080fd5b50600436106101725760003560e01c80637b0a47ee116100de578063c8f33c9111610097578063e9fad8ee11610071578063e9fad8ee146103d7578063ebe2b12b146103df578063f2fde38b146103e7578063f7c618c11461040d57610172565b8063c8f33c91146103bf578063cd3daf9d146103c7578063df136d65146103cf57610172565b80637b0a47ee146102a957806380faa57d146102b15780638b876347146102b95780638da5cb5b146102df578063a4c0ed36146102e7578063a694fc3a146103a257610172565b80632e1a7d4d116101305780632e1a7d4d146102315780633c6b16ab1461024e5780633d18b9121461026b57806370a0823114610273578063715018a61461029957806372f702f3146102a157610172565b80628cc262146101775780630700037d146101af5780630d68b761146101d55780630fb5a6b4146101fd578063101114cf1461020557806318160ddd14610229575b600080fd5b61019d6004803603602081101561018d57600080fd5b50356001600160a01b0316610415565b60408051918252519081900360200190f35b61019d600480360360208110156101c557600080fd5b50356001600160a01b0316610483565b6101fb600480360360208110156101eb57600080fd5b50356001600160a01b0316610495565b005b61019d61052b565b61020d61054f565b604080516001600160a01b039092168252519081900360200190f35b61019d61055e565b6101fb6004803603602081101561024757600080fd5b5035610565565b6101fb6004803603602081101561026457600080fd5b503561064c565b6101fb610805565b61019d6004803603602081101561028957600080fd5b50356001600160a01b03166108f3565b6101fb61090e565b61020d6109cc565b61019d6109f0565b61019d6109f6565b61019d600480360360208110156102cf57600080fd5b50356001600160a01b0316610a09565b61020d610a1b565b6101fb600480360360608110156102fd57600080fd5b6001600160a01b038235169160208101359181019060608101604082013564010000000081111561032d57600080fd5b82018360208201111561033f57600080fd5b8035906020019184600183028401116401000000008311171561036157600080fd5b91908080601f016020809104026020016040519081016040528093929190818152602001838380828437600092019190915250929550610a2a945050505050565b6101fb600480360360208110156103b857600080fd5b5035610b41565b61019d610c25565b61019d610c2b565b61019d610c79565b6101fb610c7f565b61019d610c9a565b6101fb600480360360208110156103fd57600080fd5b50356001600160a01b0316610ca0565b61020d610db5565b6001600160a01b038116600090815260096020908152604080832054600890925282205461047d919061047790670de0b6b3a764000090610471906104629061045c610c2b565b90610dd9565b61046b886108f3565b90610e36565b90610e96565b90610efd565b92915050565b60096020526000908152604090205481565b61049d610f57565b6001600160a01b03166104ae610a1b565b6001600160a01b031614610509576040805162461bcd60e51b815260206004820181905260248201527f4f776e61626c653a2063616c6c6572206973206e6f7420746865206f776e6572604482015290519081900360640190fd5b600380546001600160a01b0319166001600160a01b0392909216919091179055565b7f000000000000000000000000000000000000000000000000000000000000000081565b6003546001600160a01b031681565b6000545b90565b3361056e610c2b565b6007556105796109f6565b6006556001600160a01b038116156105c05761059481610415565b6001600160a01b0382166000908152600960209081526040808320939093556007546008909152919020555b60008211610609576040805162461bcd60e51b8152602060048201526011602482015270043616e6e6f74207769746864726177203607c1b604482015290519081900360640190fd5b61061282610f5b565b60408051838152905133917f7084f5476618d8e60b11ef0d7d3f06914655adb8793e28ff7f018d4c76d505d5919081900360200190a25050565b6003546001600160a01b0316610660610f57565b6001600160a01b0316146106a55760405162461bcd60e51b815260040180806020018281038252602181526020018061149c6021913960400191505060405180910390fd5b60006106af610c2b565b6007556106ba6109f6565b6006556001600160a01b03811615610701576106d581610415565b6001600160a01b0382166000908152600960209081526040808320939093556007546008909152919020555b600454421061073c57610734827f0000000000000000000000000000000000000000000000000000000000000000610e96565b60055561079b565b60045460009061074c9042610dd9565b9050600061076560055483610e3690919063ffffffff16565b90506107957f00000000000000000000000000000000000000000000000000000000000000006104718684610efd565b60055550505b4260068190556107cb907f0000000000000000000000000000000000000000000000000000000000000000610efd565b6004556040805183815290517fde88a922e0d3b88b24e9623efeb464919c6bf9f66857a65e2bfcf2ce87a9433d9181900360200190a15050565b3361080e610c2b565b6007556108196109f6565b6006556001600160a01b038116156108605761083481610415565b6001600160a01b0382166000908152600960209081526040808320939093556007546008909152919020555b600061086b33610415565b905080156108ef57336000818152600960205260408120556108b8907f00000000000000000000000000000000000000000000000000000000000000006001600160a01b03169083610fcf565b60408051828152905133917fe2403640ba68fed3a2f88b7557551d1993f84b99bb10ff833f0cf8db0c5e0486919081900360200190a25b5050565b6001600160a01b031660009081526001602052604090205490565b610916610f57565b6001600160a01b0316610927610a1b565b6001600160a01b031614610982576040805162461bcd60e51b815260206004820181905260248201527f4f776e61626c653a2063616c6c6572206973206e6f7420746865206f776e6572604482015290519081900360640190fd5b6002546040516000916001600160a01b0316907f8be0079c531659141344cd1fd0a4f28419497f9722a3daafe3b4186f6b6457e0908390a3600280546001600160a01b0319169055565b7f000000000000000000000000000000000000000000000000000000000000000081565b60055481565b6000610a0442600454611026565b905090565b60086020526000908152604090205481565b6002546001600160a01b031690565b82610a33610c2b565b600755610a3e6109f6565b6006556001600160a01b03811615610a8557610a5981610415565b6001600160a01b0382166000908152600960209081526040808320939093556007546008909152919020555b336001600160a01b037f00000000000000000000000000000000000000000000000000000000000000001614610af2576040805162461bcd60e51b815260206004820152600d60248201526c10b9ba30b5b4b733aa37b5b2b760991b604482015290519081900360640190fd5b610afc848461103c565b6040805184815290516001600160a01b038616917f9e71bc8eea02a63969f509818f2dafb9254532904319f9dbda79b67bd34a5f3d919081900360200190a250505050565b33610b4a610c2b565b600755610b556109f6565b6006556001600160a01b03811615610b9c57610b7081610415565b6001600160a01b0382166000908152600960209081526040808320939093556007546008909152919020555b60008211610be2576040805162461bcd60e51b815260206004820152600e60248201526d043616e6e6f74207374616b6520360941b604482015290519081900360640190fd5b610beb8261108e565b60408051838152905133917f9e71bc8eea02a63969f509818f2dafb9254532904319f9dbda79b67bd34a5f3d919081900360200190a25050565b60065481565b6000610c3561055e565b610c425750600754610562565b610a04610c70610c5061055e565b610471670de0b6b3a764000061046b60055461046b60065461045c6109f6565b60075490610efd565b60075481565b610c90610c8b336108f3565b610565565b610c98610805565b565b60045481565b610ca8610f57565b6001600160a01b0316610cb9610a1b565b6001600160a01b031614610d14576040805162461bcd60e51b815260206004820181905260248201527f4f776e61626c653a2063616c6c6572206973206e6f7420746865206f776e6572604482015290519081900360640190fd5b6001600160a01b038116610d595760405162461bcd60e51b815260040180806020018281038252602681526020018061142f6026913960400191505060405180910390fd5b6002546040516001600160a01b038084169216907f8be0079c531659141344cd1fd0a4f28419497f9722a3daafe3b4186f6b6457e090600090a3600280546001600160a01b0319166001600160a01b0392909216919091179055565b7f000000000000000000000000000000000000000000000000000000000000000081565b600082821115610e30576040805162461bcd60e51b815260206004820152601e60248201527f536166654d6174683a207375627472616374696f6e206f766572666c6f770000604482015290519081900360640190fd5b50900390565b600082610e455750600061047d565b82820282848281610e5257fe5b0414610e8f5760405162461bcd60e51b815260040180806020018281038252602181526020018061147b6021913960400191505060405180910390fd5b9392505050565b6000808211610eec576040805162461bcd60e51b815260206004820152601a60248201527f536166654d6174683a206469766973696f6e206279207a65726f000000000000604482015290519081900360640190fd5b818381610ef557fe5b049392505050565b600082820183811015610e8f576040805162461bcd60e51b815260206004820152601b60248201527f536166654d6174683a206164646974696f6e206f766572666c6f770000000000604482015290519081900360640190fd5b3390565b600054610f689082610dd9565b600090815533815260016020526040902054610f849082610dd9565b33600081815260016020526040902091909155610fcc907f00000000000000000000000000000000000000000000000000000000000000006001600160a01b03169083610fcf565b50565b604080516001600160a01b038416602482015260448082018490528251808303909101815260649091019091526020810180516001600160e01b031663a9059cbb60e01b179052611021908490611100565b505050565b60008183106110355781610e8f565b5090919050565b6000546110499082610efd565b60009081556001600160a01b03831681526001602052604090205461106e9082610efd565b6001600160a01b0390921660009081526001602052604090209190915550565b60005461109b9082610efd565b6000908155338152600160205260409020546110b79082610efd565b33600081815260016020526040902091909155610fcc907f00000000000000000000000000000000000000000000000000000000000000006001600160a01b03169030846111b1565b6060611155826040518060400160405280602081526020017f5361666545524332303a206c6f772d6c6576656c2063616c6c206661696c6564815250856001600160a01b03166112119092919063ffffffff16565b8051909150156110215780806020019051602081101561117457600080fd5b50516110215760405162461bcd60e51b815260040180806020018281038252602a8152602001806114bd602a913960400191505060405180910390fd5b604080516001600160a01b0380861660248301528416604482015260648082018490528251808303909101815260849091019091526020810180516001600160e01b03166323b872dd60e01b17905261120b908590611100565b50505050565b60606112208484600085611228565b949350505050565b6060824710156112695760405162461bcd60e51b81526004018080602001828103825260268152602001806114556026913960400191505060405180910390fd5b61127285611384565b6112c3576040805162461bcd60e51b815260206004820152601d60248201527f416464726573733a2063616c6c20746f206e6f6e2d636f6e7472616374000000604482015290519081900360640190fd5b60006060866001600160a01b031685876040518082805190602001908083835b602083106113025780518252601f1990920191602091820191016112e3565b6001836020036101000a03801982511681845116808217855250505050505090500191505060006040518083038185875af1925050503d8060008114611364576040519150601f19603f3d011682016040523d82523d6000602084013e611369565b606091505b509150915061137982828661138a565b979650505050505050565b3b151590565b60608315611399575081610e8f565b8251156113a95782518084602001fd5b8160405162461bcd60e51b81526004018080602001828103825283818151815260200191508051906020019080838360005b838110156113f35781810151838201526020016113db565b50505050905090810190601f1680156114205780820380516001836020036101000a031916815260200191505b509250505060405180910390fdfe4f776e61626c653a206e6577206f776e657220697320746865207a65726f2061646472657373416464726573733a20696e73756666696369656e742062616c616e636520666f722063616c6c536166654d6174683a206d756c7469706c69636174696f6e206f766572666c6f7743616c6c6572206973206e6f742072657761726420646973747269627574696f6e5361666545524332303a204552433230206f7065726174696f6e20646964206e6f742073756363656564a2646970667358221220095997a248d7e8713adf4e5c21b87537fc15db96b622b2a3cfc09ea78ded4f8864736f6c634300060c0033",
  "linkReferences": {},
  "deployedLinkReferences": {}
}