{
  "address": "0x5FbDB2315678afecb367f032d93F642f64180aa3",
  "abi": [
    {
      "inputs": [
        {
          "internalType": "address",
          "name": "_owner",
          "type": "address"
        },
        {
          "internalType": "uint16",
          "name": "_fee",
          "type": "uint16"
        },
        {
          "internalType": "uint16",
          "name": "_protocolFee",
          "type": "uint16"
        }
      ],
      "stateMutability": "nonpayable",
      "type": "constructor"
    },
    {
      "anonymous": false,
      "inputs": [
        {
          "indexed": true,
          "internalType": "address",
          "name": "owner",
          "type": "address"
        }
      ],
      "name": "AcceptOwner",
      "type": "event"
    },
    {
      "anonymous": false,
      "inputs": [
        {
          "indexed": true,
          "internalType": "contract IERC20",
          "name": "asset",
          "type": "address"
        },
        {
          "indexed": true,
          "internalType": "contract IERC20",
          "name": "collateral",
          "type": "address"
        },
        {
          "indexed": false,
          "internalType": "contract IPair",
          "name": "pair",
          "type": "address"
        }
      ],
      "name": "CreatePair",
      "type": "event"
    },
    {
      "anonymous": false,
      "inputs": [
        {
          "indexed": true,
          "internalType": "address",
          "name": "pendingOwner",
          "type": "address"
        }
      ],
      "name": "SetOwner",
      "type": "event"
    },
    {
      "inputs": [],
      "name": "acceptOwner",
      "outputs": [],
      "stateMutability": "nonpayable",
      "type": "function"
    },
    {
      "inputs": [
        {
          "internalType": "contract IERC20",
          "name": "asset",
          "type": "address"
        },
        {
          "internalType": "contract IERC20",
          "name": "collateral",
          "type": "address"
        }
      ],
      "name": "createPair",
      "outputs": [
        {
          "internalType": "contract IPair",
          "name": "pair",
          "type": "address"
        }
      ],
      "stateMutability": "nonpayable",
      "type": "function"
    },
    {
      "inputs": [],
      "name": "fee",
      "outputs": [
        {
          "internalType": "uint16",
          "name": "",
          "type": "uint16"
        }
      ],
      "stateMutability": "view",
      "type": "function"
    },
    {
      "inputs": [
        {
          "internalType": "contract IERC20",
          "name": "",
          "type": "address"
        },
        {
          "internalType": "contract IERC20",
          "name": "",
          "type": "address"
        }
      ],
      "name": "getPair",
      "outputs": [
        {
          "internalType": "contract IPair",
          "name": "",
          "type": "address"
        }
      ],
      "stateMutability": "view",
      "type": "function"
    },
    {
      "inputs": [],
      "name": "owner",
      "outputs": [
        {
          "internalType": "address",
          "name": "",
          "type": "address"
        }
      ],
      "stateMutability": "view",
      "type": "function"
    },
    {
      "inputs": [],
      "name": "pendingOwner",
      "outputs": [
        {
          "internalType": "address",
          "name": "",
          "type": "address"
        }
      ],
      "stateMutability": "view",
      "type": "function"
    },
    {
      "inputs": [],
      "name": "protocolFee",
      "outputs": [
        {
          "internalType": "uint16",
          "name": "",
          "type": "uint16"
        }
      ],
      "stateMutability": "view",
      "type": "function"
    },
    {
      "inputs": [
        {
          "internalType": "address",
          "name": "_pendingOwner",
          "type": "address"
        }
      ],
      "name": "setOwner",
      "outputs": [],
      "stateMutability": "nonpayable",
      "type": "function"
    }
  ],
  "transactionHash": "0xef6f20f69c24e77d9ef199735d2c2931c4b7375034a4b4242be88683f7b94bc9",
  "args": [
    "0xf39Fd6e51aad88F6F4ce6aB8827279cffFb92266",
    30,
    30
  ],
  "solcInputHash": "afaf255e2326c5325b2dfd6204710b4c",
  "bytecode": "0x60c060405234801561001057600080fd5b5060405161539138038061539183398101604081905261002f916100cf565b6001600160a01b0383166100775760405162461bcd60e51b815260040161006e906020808252600490820152634531303160e01b604082015260600190565b60405180910390fd5b600080546001600160a01b039094166001600160a01b0319909416939093179092556001600160f01b031960f091821b811660805291901b1660a05261011e565b805161ffff811681146100ca57600080fd5b919050565b6000806000606084860312156100e3578283fd5b83516001600160a01b03811681146100f9578384fd5b9250610107602085016100b8565b9150610115604085016100b8565b90509250925092565b60805160f01c60a05160f01c61523b6101566000396000818160d701526103c501526000818161012401526103a4015261523b6000f3fe608060405234801561001057600080fd5b50600436106100885760003560e01c8063ddca3f431161005b578063ddca3f431461011f578063e30c397814610146578063e6a4390514610159578063ebbc49651461018d57600080fd5b806313af40351461008d5780638da5cb5b146100a2578063b0e21e8a146100d2578063c9c653961461010c575b600080fd5b6100a061009b366004610541565b610195565b005b6000546100b5906001600160a01b031681565b6040516001600160a01b0390911681526020015b60405180910390f35b6100f97f000000000000000000000000000000000000000000000000000000000000000081565b60405161ffff90911681526020016100c9565b6100b561011a366004610564565b61026a565b6100f97f000000000000000000000000000000000000000000000000000000000000000081565b6001546100b5906001600160a01b031681565b6100b5610167366004610564565b60026020908152600092835260408084209091529082529020546001600160a01b031681565b6100a06104b3565b6000546001600160a01b031633146101e15760405162461bcd60e51b81526004016101d8906020808252600490820152632298981960e11b604082015260600190565b60405180910390fd5b6001600160a01b0381166102205760405162461bcd60e51b81526004016101d8906020808252600490820152634531303160e01b604082015260600190565b600180546001600160a01b0319166001600160a01b0383169081179091556040517f167d3e9c1016ab80e58802ca9da10ce5c6a0f4debc46a2e7a2cd9e56899a4fb590600090a250565b6000816001600160a01b0316836001600160a01b031614156102b75760405162461bcd60e51b81526004016101d8906020808252600490820152634531303360e01b604082015260600190565b6001600160a01b038316158015906102d757506001600160a01b03821615155b61030c5760405162461bcd60e51b81526004016101d8906020808252600490820152634531303160e01b604082015260600190565b6001600160a01b0383811660009081526002602090815260408083208685168452909152902054161561036a5760405162461bcd60e51b81526004016101d890602080825260049082015263114c4c0d60e21b604082015260600190565b604080516001600160a01b0380861660208301528416918101919091526060016040516020818303038152906040528051906020012083837f00000000000000000000000000000000000000000000000000000000000000007f00000000000000000000000000000000000000000000000000000000000000006040516103f090610534565b6001600160a01b03948516815293909216602084015261ffff90811660408401521660608201526080018190604051809103906000f590508015801561043a573d6000803e3d6000fd5b506001600160a01b0384811660008181526002602090815260408083208886168085529083529281902080546001600160a01b0319169587169586179055519384529394509290917f58e59580cc0153b14c553b340b7d7ae6ab3df9747aa39f82941816c5db3869f2910160405180910390a392915050565b6001546001600160a01b031633146104f65760405162461bcd60e51b81526004016101d8906020808252600490820152632298981960e11b604082015260600190565b600080546001600160a01b03191633908117825560405190917f31775a018194f26a792a0203e972faf15303e08a913cdc54497278e48de6690991a2565b614c51806105b583390190565b600060208284031215610552578081fd5b813561055d8161059c565b9392505050565b60008060408385031215610576578081fd5b82356105818161059c565b915060208301356105918161059c565b809150509250929050565b6001600160a01b03811681146105b157600080fd5b5056fe6101206040523480156200001257600080fd5b5060405162004c5138038062004c518339810160408190526200003591620000a9565b33606090811b6080526001600160601b031994811b851660a0529290921b90921660c0526001600160f01b031960f092831b811660e052911b166101005262000105565b80516001600160a01b03811681146200009157600080fd5b919050565b805161ffff811681146200009157600080fd5b60008060008060808587031215620000bf578384fd5b620000ca8562000079565b9350620000da6020860162000079565b9250620000ea6040860162000096565b9150620000fa6060860162000096565b905092959194509250565b60805160601c60a05160601c60c05160601c60e05160f01c6101005160f01c614a81620001d0600039600081816102c601528181610cf50152610ed401526000818161056901528181611bfd015261226a01526000818161052101528181610a8f015281816110c5015281816118b5015281816123800152612aae0152600081816101ce01528181610a38015281816110a3015281816117f101528181611cfc015281816125ba0152612a570152600081816104fa01528181610d4a0152610f290152614a816000f3fe608060405234801561001057600080fd5b50600436106101215760003560e01c8063b3466a68116100ad578063c45a015511610071578063c45a0155146104f5578063d8dfeb451461051c578063dccda5b814610543578063ddca3f4314610564578063ebdc8e731461058b57600080fd5b8063b3466a68146102fb578063b5e60c3c1461030e578063b77ee83914610331578063baadc6fe1461039d578063bbc538fb1461049957600080fd5b806360553a09116100f457806360553a09146102085780636761f92c1461024c5780639ee33ef21461026e578063aae6fcb4146102a1578063b0e21e8a146102c157600080fd5b80630967ba45146101265780630f79fca51461014f5780631eb9cd431461017057806338d52e0f146101c9575b600080fd5b6101396101343660046141c3565b61059e565b6040516101469190614519565b60405180910390f35b61016261015d3660046140bb565b610b28565b604051908152602001610146565b61013961017e36600461408b565b604080518082019091526000808252602082015250600090815260208181526040918290208251808401909352546001600160801b038082168452600160801b909104169082015290565b6101f07f000000000000000000000000000000000000000000000000000000000000000081565b6040516001600160a01b039091168152602001610146565b61023461021636600461408b565b6000908152602081905260409020600301546001600160781b031690565b6040516001600160781b039091168152602001610146565b61025f61025a36600461425f565b610b53565b60405161014693929190614743565b61028161027c3660046140ea565b6113c5565b604080516001600160801b03938416815292909116602083015201610146565b6102b46102af366004614334565b61195a565b604051610146919061453d565b6102e87f000000000000000000000000000000000000000000000000000000000000000081565b60405161ffff9091168152602001610146565b61013961030936600461425f565b611a0a565b61016261031c36600461408b565b60009081526020819052604090206001015490565b61013961033f3660046140bb565b604080518082018252600080825260209182018190529384528381528184206001600160a01b0393909316845260069092018252918290208251808401909352546001600160801b038082168452600160801b909104169082015290565b61046f6103ab36600461408b565b6000818152602081815260409182902082516101208101845281546001600160801b0380821660e08401908152600160801b928390048216610100850152835260018401548386015285518087018752600285015480831682529290920416938101939093529283019190915260038101546001600160781b03811660608401526001600160701b03600160781b90910481166080840181905260049092015480821660a08501819052600160701b90910490911660c09093018390529093909250565b604080516001600160701b0394851681529284166020840152921691810191909152606001610146565b6101396104a736600461408b565b604080518082019091526000808252602082015250600090815260208181526040918290208251808401909352600201546001600160801b038082168452600160801b909104169082015290565b6101f07f000000000000000000000000000000000000000000000000000000000000000081565b6101f07f000000000000000000000000000000000000000000000000000000000000000081565b61055661055136600461425f565b61206f565b60405161014692919061469b565b6102e87f000000000000000000000000000000000000000000000000000000000000000081565b6101396105993660046142ed565b6126ca565b6040805180820190915260008082526020820152600154156105db5760405162461bcd60e51b81526004016105d2906144bf565b60405180910390fd5b60018055428511156106185760405162461bcd60e51b81526004016105d2906020808252600490820152634532303360e01b604082015260600190565b6001600160a01b0384161580159061063857506001600160a01b03831615155b6106545760405162461bcd60e51b81526004016105d2906144fb565b6001600160a01b038416301480159061067657506001600160a01b0383163014155b6106925760405162461bcd60e51b81526004016105d2906144dd565b81516001600160801b03161515806106b75750600082602001516001600160801b0316115b6106d35760405162461bcd60e51b81526004016105d290614483565b6000858152602081815260409182902082516101208101845281546001600160801b0380821660e08401908152600160801b928390048216610100850152835260018401548386015285518087018752600285015480831682529290920416938101939093529283019190915260038101546001600160781b03811660608401526001600160701b03600160781b90910481166080840152600482015480821660a0850152600160701b90041660c08301528351909161079291612b46565b6001600160801b0390811683526040805161012081018252835480841660e08301908152600160801b91829004851661010084015282526001850154602080840191909152835180850185526002870154808716825292909204909416818501529181019190915260038301546001600160781b03811660608301526001600160701b03600160781b90910481166080830152600484015480821660a0840152600160701b90041660c08201529084015161084d9190612bb4565b6001600160801b03908116602084015283516002830180549192909160009161087891859116614912565b92506101000a8154816001600160801b0302191690836001600160801b0316021790555082602001518160000160020160000160108282829054906101000a90046001600160801b03166108cc9190614912565b82546101009290920a6001600160801b038181021990931691831602179091553360009081526006840160205260408120865181549194509284929161091491859116614912565b92506101000a8154816001600160801b0302191690836001600160801b0316021790555083602001518160000160108282829054906101000a90046001600160801b03166109629190614912565b82546101009290920a6001600160801b0381810219909316918316021790915584518454909250849160009161099a91859116614912565b92506101000a8154816001600160801b0302191690836001600160801b0316021790555082602001518260000160000160000160108282829054906101000a90046001600160801b03166109ee9190614912565b92506101000a8154816001600160801b0302191690836001600160801b03160217905550600083600001516001600160801b03161115610a69578251610a69906001600160a01b037f0000000000000000000000000000000000000000000000000000000000000000169088906001600160801b0316612cd2565b60208301516001600160801b031615610ac0576020830151610ac0906001600160a01b037f0000000000000000000000000000000000000000000000000000000000000000169087906001600160801b0316612cd2565b846001600160a01b0316866001600160a01b0316336001600160a01b03167fb1781228918ad6271826e772c0a688b2c4f86fe3258aa373c06a49cc49a4215a8a8888604051610b119392919061464f565b60405180910390a450506000600155949350505050565b6000828152602081815260408083206001600160a01b03851684526005019091529020545b92915050565b60408051606081018252600080825260208201819052918101829052819060015415610b915760405162461bcd60e51b81526004016105d2906144bf565b60018055428b11610bb45760405162461bcd60e51b81526004016105d2906144a1565b640100000000610bc4428d61494e565b10610bfa5760405162461bcd60e51b81526004016105d29060208082526004908201526308a6460760e31b604082015260600190565b6001600160a01b038a1615801590610c1a57506001600160a01b03891615155b610c365760405162461bcd60e51b81526004016105d2906144fb565b6001600160a01b038a163014801590610c5857506001600160a01b0389163014155b610c745760405162461bcd60e51b81526004016105d2906144dd565b6000886001600160701b0316118015610c9657506000876001600160701b0316115b8015610cab57506000866001600160701b0316115b610cc75760405162461bcd60e51b81526004016105d290614483565b60008b81526020819052604090206001810154610e145762010000600160801b0360108a901b16610d198d827f0000000000000000000000000000000000000000000000000000000000000000612ceb565b945080826000016001016000828254610d329190614870565b90915550610d429050858261494e565b8260050160007f00000000000000000000000000000000000000000000000000000000000000006001600160a01b0316638da5cb5b6040518163ffffffff1660e01b815260040160206040518083038186803b158015610da157600080fd5b505afa158015610db5573d6000803e3d6000fd5b505050506040513d601f19601f82011682018060405250810190610dd9919061404f565b6001600160a01b03166001600160a01b031681526020019081526020016000206000828254610e089190614870565b90915550610fee915050565b604080516101208101825282546001600160801b0380821660e08401908152600160801b92839004821661010085015283526001850154602080850191909152845180860186526002870154808416825293909304909116908201529181019190915260038201546001600160781b03811660608301526001600160701b03600160781b90910481166080830152600483015480821660a0840152600160701b90041660c0820152600090610ecb908b8b8b612d2d565b9050610ef88d827f0000000000000000000000000000000000000000000000000000000000000000612ceb565b945080826000016001016000828254610f119190614870565b90915550610f219050858261494e565b8260050160007f00000000000000000000000000000000000000000000000000000000000000006001600160a01b0316638da5cb5b6040518163ffffffff1660e01b815260040160206040518083038186803b158015610f8057600080fd5b505afa158015610f94573d6000803e3d6000fd5b505050506040513d601f19601f82011682018060405250810190610fb8919061404f565b6001600160a01b03166001600160a01b031681526020019081526020016000206000828254610fe79190614870565b9091555050505b600084116110275760405162461bcd60e51b81526004016105d2906020808252600490820152632299189960e11b604082015260600190565b6001600160a01b038b16600090815260058201602052604081208054869290611051908490614870565b9091555061106290508c8a8a612da6565b6001600160701b031682526110778c88612df5565b6001600160701b0316602083015261108d612e44565b63ffffffff16604083015260208201516110ee907f0000000000000000000000000000000000000000000000000000000000000000907f0000000000000000000000000000000000000000000000000000000000000000908c908a8a612e54565b6001600160a01b038a16600090815260078201602052604090206111129083612faa565b81549093506001600160701b038a1690829060009061113b9084906001600160801b0316614830565b92506101000a8154816001600160801b0302191690836001600160801b0316021790555081602001516001600160701b03168160000160000160000160108282829054906101000a90046001600160801b03166111989190614830565b82546001600160801b039182166101009390930a92830291909202199091161790555081516003820180546001600160701b03909216916000906111e69084906001600160781b031661480e565b92506101000a8154816001600160781b0302191690836001600160781b031602179055508881600001600301600f8282829054906101000a90046001600160701b031661123391906147e3565b92506101000a8154816001600160701b0302191690836001600160701b03160217905550878160000160040160008282829054906101000a90046001600160701b031661128091906147e3565b92506101000a8154816001600160701b0302191690836001600160701b031602179055508681600001600401600e8282829054906101000a90046001600160701b03166112cd91906147e3565b82546101009290920a6001600160701b038181021990931691831602179091556003830154600484015460408051600160781b909304841683528184166020840152600160701b909104909216918101919091528d91507f1147bcb0e71ebff15e66fd21a23234fe9acc1891f46595062d71501b0cacbdaa9060600160405180910390a2896001600160a01b03168b6001600160a01b0316336001600160a01b03167f9c05d261a45407efeed5f9c9a8beeebc34bb15e93578bdeb7caf5a808b5488028f8d8989896040516113a6959493929190614712565b60405180910390a4506000600181905550985098509895505050505050565b6000806001546000146113ea5760405162461bcd60e51b81526004016105d2906144bf565b60018055428a1161140d5760405162461bcd60e51b81526004016105d2906144a1565b8551875114801561141f575084518751145b61143b5760405162461bcd60e51b81526004016105d290614483565b6001600160a01b0389166114615760405162461bcd60e51b81526004016105d2906144fb565b6001600160a01b03891630141561148a5760405162461bcd60e51b81526004016105d2906144dd565b60008a8152602081815260408083206001600160a01b038c16845260078101909252822090915b89518110156117dc576000828b83815181106114dd57634e487b7160e01b600052603260045260246000fd5b60200260200101518154811061150357634e487b7160e01b600052603260045260246000fd5b906000526020600020019050611517612e44565b8154600160e01b900463ffffffff908116911614156115615760405162461bcd60e51b81526004016105d2906020808252600490820152634532303760e01b604082015260600190565b6001600160a01b038c1633146115da5788828151811061159157634e487b7160e01b600052603260045260246000fd5b60200260200101516001600160701b03166000146115da5760405162461bcd60e51b81526004016105d2906020808252600490820152634532313360e01b604082015260600190565b6116718a83815181106115fd57634e487b7160e01b600052603260045260246000fd5b60200260200101518a848151811061162557634e487b7160e01b600052603260045260246000fd5b6020908102919091018101516040805160608101825286546001600160701b038082168352600160701b82041694820194909452600160e01b90930463ffffffff169083015290613016565b89828151811061169157634e487b7160e01b600052603260045260246000fd5b6020908102919091010151815482906000906116b79084906001600160701b03166148ea565b92506101000a8154816001600160701b0302191690836001600160701b031602179055508882815181106116fb57634e487b7160e01b600052603260045260246000fd5b602002602001015181600001600e8282829054906101000a90046001600160701b031661172891906148ea565b92506101000a8154816001600160701b0302191690836001600160701b0316021790555089828151811061176c57634e487b7160e01b600052603260045260246000fd5b60200260200101516001600160701b0316866117889190614830565b95508882815181106117aa57634e487b7160e01b600052603260045260246000fd5b60200260200101516001600160701b0316856117c69190614830565b94505080806117d490614995565b9150506114b1565b506001600160801b03841615611818576118187f0000000000000000000000000000000000000000000000000000000000000000858888613088565b8154849083906000906118359084906001600160801b0316614830565b82546101009290920a6001600160801b0381810219909316918316021790915583548592508491601091611872918591600160801b900416614912565b92506101000a8154816001600160801b0302191690836001600160801b031602179055506000836001600160801b031611156118e5576118e56001600160a01b037f0000000000000000000000000000000000000000000000000000000000000000168c6001600160801b038616612cd2565b896001600160a01b03168b6001600160a01b0316336001600160a01b03167f5a01dee47555c7f01c7780ac1365c62953080831de57e9f8c683842a8f05103c8f8d8d8d8b8b60405161193c969594939291906145be565b60405180910390a45050600060015590999098509650505050505050565b60408051606081018252600080825260208083018290528284018290528682528181528382206001600160a01b03871683526007019052919091208054839081106119b557634e487b7160e01b600052603260045260246000fd5b60009182526020918290206040805160608101825291909201546001600160701b038082168352600160701b8204169382019390935263ffffffff600160e01b909304929092169082015290505b9392505050565b604080518082019091526000808252602082015260015415611a3e5760405162461bcd60e51b81526004016105d2906144bf565b60018055428911611a615760405162461bcd60e51b81526004016105d2906144a1565b6001600160a01b03881615801590611a8157506001600160a01b03871615155b611a9d5760405162461bcd60e51b81526004016105d2906144fb565b6001600160a01b0388163014801590611abf57506001600160a01b0387163014155b611adb5760405162461bcd60e51b81526004016105d2906144dd565b6000866001600160701b031611611b045760405162461bcd60e51b81526004016105d290614483565b60008981526020819052604090206001810154611b4c5760405162461bcd60e51b81526004016105d2906020808252600490820152632299181b60e11b604082015260600190565b604080516101208101825282546001600160801b0380821660e08401908152600160801b92839004821661010085015283526001850154602080850191909152845180860186526002870154808416825293909304909116908201529181019190915260038201546001600160781b03811660608301526001600160701b03600160781b90910481166080830152600483015480821660a0840152600160701b90041660c0820152611c21908888887f0000000000000000000000000000000000000000000000000000000000000000613161565b611c2c8a888861325c565b6001600160801b0390811683526040805161012081018252835480841660e08301908152600160801b91829004851661010084015282526001850154602080840191909152835180850185526002870154808716825292909204909416938101939093529081019190915260038201546001600160781b03811660608301526001600160701b03600160781b90910481166080830152600483015480821660a0840152600160701b90041660c0820152611ce9908b908988613296565b6001600160801b03166020830152611d237f000000000000000000000000000000000000000000000000000000000000000088868661332c565b8151600282018054600090611d429084906001600160801b0316614830565b92506101000a8154816001600160801b0302191690836001600160801b0316021790555081602001518160000160020160000160108282829054906101000a90046001600160801b0316611d969190614830565b82546101009290920a6001600160801b0381810219909316918316021790915583516001600160a01b038c16600090815260068501602052604081208054929450929091611de691859116614830565b92506101000a8154816001600160801b0302191690836001600160801b0316021790555081602001518160060160008a6001600160a01b03166001600160a01b0316815260200190815260200160002060000160108282829054906101000a90046001600160801b0316611e5a9190614830565b82546101009290920a6001600160801b0381810219909316918316021790915582546001600160701b038a1692508391600091611e9991859116614830565b92506101000a8154816001600160801b0302191690836001600160801b031602179055508681600001600301600f8282829054906101000a90046001600160701b0316611ee691906147e3565b92506101000a8154816001600160701b0302191690836001600160701b03160217905550858160000160040160008282829054906101000a90046001600160701b0316611f3391906148ea565b92506101000a8154816001600160701b0302191690836001600160701b031602179055508481600001600401600e8282829054906101000a90046001600160701b0316611f8091906148ea565b82546101009290920a6001600160701b038181021990931691831602179091556003830154600484015460408051600160781b909304841683528184166020840152600160701b909104909216918101919091528b91507f1147bcb0e71ebff15e66fd21a23234fe9acc1891f46595062d71501b0cacbdaa9060600160405180910390a2876001600160a01b0316896001600160a01b0316336001600160a01b03167fa22eb0c7b0eeea07be907f0202c88c497e4e748da09f590c90e48285b03a18068d8b87604051612055939291906146af565b60405180910390a450600060015598975050505050505050565b60408051606081018252600080825260208201819052918101829052600154156120ab5760405162461bcd60e51b81526004016105d2906144bf565b60018055428a116120ce5760405162461bcd60e51b81526004016105d2906144a1565b6001600160a01b038916158015906120ee57506001600160a01b03881615155b61210a5760405162461bcd60e51b81526004016105d2906144fb565b6001600160a01b038916301480159061212c57506001600160a01b0388163014155b6121485760405162461bcd60e51b81526004016105d2906144dd565b6000876001600160701b0316116121715760405162461bcd60e51b81526004016105d290614483565b60008a815260208190526040902060018101546121b95760405162461bcd60e51b81526004016105d2906020808252600490820152632299181b60e11b604082015260600190565b604080516101208101825282546001600160801b0380821660e08401908152600160801b92839004821661010085015283526001850154602080850191909152845180860186526002870154808416825293909304909116908201529181019190915260038201546001600160781b03811660608301526001600160701b03600160781b90910481166080830152600483015480821660a0840152600160701b90041660c082015261228e908989897f00000000000000000000000000000000000000000000000000000000000000006133c5565b6122998b8989612da6565b6001600160701b039081168352604080516101208101825283546001600160801b0380821660e08401908152600160801b92839004821661010085015283526001860154602080850191909152845180860186526002880154808416825293909304909116908201529181019190915260038301546001600160781b0381166060830152600160781b900482166080820152600483015480831660a0830152600160701b900490911660c0820152612354908c908a896134d9565b6001600160701b0316602083015261236a612e44565b63ffffffff16604083015260208201516123a7907f000000000000000000000000000000000000000000000000000000000000000090878761356b565b6001600160a01b038916600090815260078201602052604090206123cb9083612faa565b81549093506001600160701b0389169082906000906123f49084906001600160801b0316614912565b92506101000a8154816001600160801b0302191690836001600160801b0316021790555081602001516001600160701b03168160000160000160000160108282829054906101000a90046001600160801b03166124519190614830565b82546001600160801b039182166101009390930a92830291909202199091161790555081516003820180546001600160701b039092169160009061249f9084906001600160781b031661480e565b92506101000a8154816001600160781b0302191690836001600160781b031602179055508781600001600301600f8282829054906101000a90046001600160701b03166124ec91906148ea565b92506101000a8154816001600160701b0302191690836001600160701b03160217905550868160000160040160008282829054906101000a90046001600160701b031661253991906147e3565b92506101000a8154816001600160701b0302191690836001600160701b031602179055508581600001600401600e8282829054906101000a90046001600160701b031661258691906147e3565b92506101000a8154816001600160701b0302191690836001600160701b031602179055506125f18a896001600160701b03167f00000000000000000000000000000000000000000000000000000000000000006001600160a01b0316612cd29092919063ffffffff16565b6003810154600482015460408051600160781b9093046001600160701b0390811684528083166020850152600160701b909204909116908201528b907f1147bcb0e71ebff15e66fd21a23234fe9acc1891f46595062d71501b0cacbdaa9060600160405180910390a2886001600160a01b03168a6001600160a01b0316336001600160a01b03167fbc61adf62707a5898cf28ab52863bc46cc701d19377ce160f51628cc066e713a8e8c88886040516126ad94939291906146e8565b60405180910390a450600060015590999098509650505050505050565b6040805180820190915260008082526020820152600154156126fe5760405162461bcd60e51b81526004016105d2906144bf565b600180554285111561273b5760405162461bcd60e51b81526004016105d2906020808252600490820152634532303360e01b604082015260600190565b6001600160a01b0384161580159061275b57506001600160a01b03831615155b6127775760405162461bcd60e51b81526004016105d2906144fb565b6001600160a01b038416301480159061279957506001600160a01b0383163014155b6127b55760405162461bcd60e51b81526004016105d2906144dd565b600082116127d55760405162461bcd60e51b81526004016105d290614483565b6000858152602081815260409182902082516101208101845281546001600160801b0380821660e08401908152600160801b928390048216610100850152835260018401548386015285518087018752600285015480831682529290920416938101939093529283019190915260038101546001600160781b03811660608401526001600160701b03600160781b90910481166080840152600482015480821660a0850152600160701b90041660c083015290612892908461363c565b6001600160801b0390811683526040805161012081018252835480841660e08301908152600160801b91829004851661010084015282526001850154602080840191909152835180850185526002870154808716825292909204909416938101939093529081019190915260038201546001600160781b03811660608301526001600160701b03600160781b90910481166080830152600483015480821660a0840152600160701b90041660c082015261294c908461369a565b6001600160801b0316602083015260018101805484919060009061297190849061494e565b90915550503360009081526005820160205260408120805485929061299790849061494e565b90915550508151815482906000906129b99084906001600160801b0316614912565b92506101000a8154816001600160801b0302191690836001600160801b0316021790555081602001518160000160000160000160108282829054906101000a90046001600160801b0316612a0d9190614912565b92506101000a8154816001600160801b0302191690836001600160801b03160217905550600082600001516001600160801b03161115612a88578151612a88906001600160a01b037f0000000000000000000000000000000000000000000000000000000000000000169087906001600160801b0316612cd2565b60208201516001600160801b031615612adf576020820151612adf906001600160a01b037f0000000000000000000000000000000000000000000000000000000000000000169086906001600160801b0316612cd2565b836001600160a01b0316856001600160a01b0316336001600160a01b03167f6b18578fcaee867974e1ea7cc70575906dab2b1739d695d6250bd77733009eb8898787604051612b309392919061475e565b60405180910390a4506000600155949350505050565b6040820151518251516000916001600160801b03908116911610612b6b575080610b4d565b8251516001600160801b0380841691612b859116826148cb565b604085015151909150612ba1906001600160801b031682614888565b9050612bac816137cb565b949350505050565b6040820151518251516000916001600160801b03908116911610612bd757610b4d565b6040830151518351516001600160801b0391821691612bf791168261494e565b90508360400151602001516001600160801b031681612c1691906148cb565b604085015151855160200151612c38916001600160801b0390811691166148cb565b10612c815780612c516001600160801b038516826148cb565b604086015151909150612c6d906001600160801b031682614888565b9050612c78816137cb565b92505050610b4d565b8351602001516001600160801b0390811690612c9f908516826148cb565b90508460400151602001516001600160801b031681612cbe9190614888565b9050612cc9816137cb565b95945050505050565b612ce66001600160a01b03841683836137e6565b505050565b600083612cf8428261494e565b9050612d0861ffff8416826148cb565b9050612d1a6501000000000082614870565b9050612cc9846501000000000083613838565b6000612cc9612d61856001600160701b031687608001516001600160701b031688602001516138389092919063ffffffff16565b60a08701516020880151612d81916001600160701b038089169116613838565b60c08801516020890151612da1916001600160701b038089169116613838565b6138e5565b600083612db3428261494e565b9050612dc86001600160701b038416826148cb565b9050612dd5816020613926565b9050612dea6001600160701b03851682614870565b9050612cc981613941565b600082612e02428261494e565b9050612e176001600160701b038416826148cb565b9050612e24816019613926565b9050612e396001600160701b03841682614870565b9050612bac81613941565b6000612e4f43613957565b905090565b6000612e68876001600160a01b0316613968565b90506000612e7e876001600160a01b0316613968565b60405163eeda4c9f60e01b8152909150339063eeda4c9f90612eaa90899089908990899060040161456e565b600060405180830381600087803b158015612ec457600080fd5b505af1158015612ed8573d6000803e3d6000fd5b505050506000612ef0896001600160a01b0316613968565b90506000612f06896001600160a01b0316613968565b9050612f1b6001600160701b03891685614870565b821015612f535760405162461bcd60e51b81526004016105d290602080825260049082015263114ccc0d60e21b604082015260600190565b612f666001600160701b03881684614870565b811015612f9e5760405162461bcd60e51b81526004016105d2906020808252600490820152634533303560e01b604082015260600190565b50505050505050505050565b81546001810183556000928352602092839020825190820180549484015160409094015163ffffffff16600160e01b026001600160e01b036001600160701b03958616600160701b026001600160e01b0319909716959093169490941794909417169190911790915590565b805161302f906001600160701b039081169084166148cb565b81602001516001600160701b0316846001600160701b031661305191906148cb565b1015612ce65760405162461bcd60e51b81526004016105d2906020808252600490820152634533303360e01b604082015260600190565b600061309c856001600160a01b0316613968565b60405163c70449bf60e01b8152909150339063c70449bf906130c69087908790879060040161459b565b600060405180830381600087803b1580156130e057600080fd5b505af11580156130f4573d6000803e3d6000fd5b50505050600061310c866001600160a01b0316613968565b90506131216001600160801b03861683614870565b8110156131595760405162461bcd60e51b81526004016105d290602080825260049082015263114ccc0d60e21b604082015260600190565b505050505050565b600061317461ffff831662010000614852565b62ffffff169050600085876080015161318d91906147e3565b905060006131a08860a0015187856139ea565b905060006131b38960c0015187866139ea565b90506131c189848484613a17565b60a08901516001600160701b03808a16916131dd9116826148cb565b600c1b90506001600160701b0384166131ff6001600160801b038716826148cb565b905061320b8183614888565b915081896001600160701b0316101561324f5760405162461bcd60e51b81526004016105d2906020808252600490820152632299981960e11b604082015260600190565b5050505050505050505050565b600083613269428261494e565b905061327e6001600160701b038416826148cb565b60201c9050612cbe6001600160701b03851682614870565b6000846132a3428261494e565b90506132b86001600160701b038416826148cb565b60c086015160199190911c91506001600160701b03908116906132dd908616826148cb565b60808701519091506001600160701b03908116906132fd90871682614870565b90506133098183614888565b91506133158284614870565b9250613320836137cb565b98975050505050505050565b6000613340856001600160a01b0316613968565b604051630886fef960e31b81529091503390634437f7c89061336a9087908790879060040161454b565b600060405180830381600087803b15801561338457600080fd5b505af1158015613398573d6000803e3d6000fd5b5050505060006133b0866001600160a01b0316613968565b90506131216001600160701b03861683614870565b60006133d861ffff831662010000614932565b62ffffff169050613415604051806040016040528060078152602001660a6a882a88a5cb60cb1b81525087608001516001600160701b0316613b13565b6134496040518060400160405280600981526020016878444543524541534560b81b815250866001600160701b0316613b13565b600085876080015161345b91906148ea565b9050600061346e8860a001518785613b5c565b905060006134818960c001518786613b5c565b905061348f89848484613a17565b60a08901516001600160701b03808a16916134ab9116826148cb565b600c1b90506001600160701b0384166134cd6001600160801b038716826148cb565b905061320b8282613b89565b6000846134e6428261494e565b90506134fb6001600160701b038416826148cb565b9050613508816019613926565b60c08601519091506001600160701b0390811690613528908616826148cb565b60808701519091506001600160701b03908116906135489087168261494e565b90506135548282613b89565b91506135608284614870565b925061332083613941565b600061357f856001600160a01b0316613968565b6040516390e4d0b160e01b815290915033906390e4d0b1906135a99087908790879060040161454b565b600060405180830381600087803b1580156135c357600080fd5b505af11580156135d7573d6000803e3d6000fd5b5050505060006135ef866001600160a01b0316613968565b90506136046001600160701b03861683614870565b8110156131595760405162461bcd60e51b81526004016105d2906020808252600490820152634533303560e01b604082015260600190565b6040820151518251516000916001600160801b0390811691161161365f57610b4d565b8251516040840151516001600160801b039182169161367f91168261494e565b9050612ba1838560200151836138389092919063ffffffff16565b8151602081015160408401515191516000926001600160801b03928316929081169116106136e75760208401516136d49082908590613838565b90506136df816137cb565b915050610b4d565b6040840151518451516001600160801b039182169161370791168261494e565b90508460400151602001516001600160801b03168161372691906148cb565b604086015151865160200151613748916001600160801b0390811691166148cb565b11613754575050610b4d565b6040850151602001518190613772906001600160801b0316826148cb565b60408701515190915061378f9082906001600160801b0316613b89565b905061379b818461494e565b92506137b6858760200151856138389092919063ffffffff16565b92506137c1836137cb565b9695505050505050565b806001600160801b03811681146137e157600080fd5b919050565b604080516001600160a01b038416602482015260448082018490528251808303909101815260649091019091526020810180516001600160e01b031663a9059cbb60e01b179052612ce6908490613bb3565b60008060006138478686613c85565b91509150806000141561386c576000841161386157600080fd5b508290049050611a03565b80841161387857600080fd5b6000848688096000868103871696879004966002600389028118808a02820302808a02820302808a02820302808a02820302808a02820302808a02909103029181900381900460010186841190950394909402919094039290920491909117919091029150509392505050565b60008284111580156138f75750818411155b15613903575082611a03565b8383111580156139135750818311155b1561391f575081611a03565b5092915050565b60ff811682811c9081901b8314610b4d5780612bac81614995565b806001600160701b03811681146137e157600080fd5b6000610b4d640100000000836149b0565b60408051306024808301919091528251808303909101815260449091018252602080820180516001600160e01b03166370a0823160e01b179052825160608101909352602d80845260009384936139d493909290614a1f908301396001600160a01b0386169190613ca4565b905080806020019051810190611a0391906140a3565b62010000600160801b03601084901b16613a0d6001600160701b0384168361489c565b612bac9082614912565b600080613a436001600160701b038616613a3d6001600160801b038087169088166148cb565b90613c85565b91509150600080613a8b88608001516001600160701b031660208a60c001516001600160701b03168b60a001516001600160701b0316613a8391906148cb565b901b90613c85565b9150915080831015613ac85760405162461bcd60e51b81526004016105d2906020808252600490820152634533303160e01b604082015260600190565b80831415613b095781841015613b095760405162461bcd60e51b81526004016105d2906020808252600490820152634533303160e01b604082015260600190565b5050505050505050565b613b588282604051602401613b29929190614461565b60408051601f198184030181529190526020810180516001600160e01b03166309710a9d60e41b179052613d6b565b5050565b62010000600160801b03601084901b16613b7f6001600160701b0384168361489c565b612bac9082614830565b6000613b958284614888565b90506000613ba383856149b0565b1115610b4d5780612bac81614995565b6000613c08826040518060400160405280602081526020017f5361666545524332303a206c6f772d6c6576656c2063616c6c206661696c6564815250856001600160a01b0316613d8c9092919063ffffffff16565b805190915015612ce65780806020019051810190613c26919061406b565b612ce65760405162461bcd60e51b815260206004820152602a60248201527f5361666545524332303a204552433230206f7065726174696f6e20646964206e6044820152691bdd081cdd58d8d9595960b21b60648201526084016105d2565b6000806000198385098385029250828110838203039150509250929050565b6060833b613d005760405162461bcd60e51b8152602060048201526024808201527f416464726573733a207374617469632063616c6c20746f206e6f6e2d636f6e746044820152631c9858dd60e21b60648201526084016105d2565b600080856001600160a01b031685604051613d1b9190614432565b600060405180830381855afa9150503d8060008114613d56576040519150601f19603f3d011682016040523d82523d6000602084013e613d5b565b606091505b50915091506137c1828286613d9b565b80516a636f6e736f6c652e6c6f67602083016000808483855afa5050505050565b6060612bac8484600085613dd4565b60608315613daa575081611a03565b825115613dba5782518084602001fd5b8160405162461bcd60e51b81526004016105d2919061444e565b606082471015613e355760405162461bcd60e51b815260206004820152602660248201527f416464726573733a20696e73756666696369656e742062616c616e636520666f6044820152651c8818d85b1b60d21b60648201526084016105d2565b843b613e835760405162461bcd60e51b815260206004820152601d60248201527f416464726573733a2063616c6c20746f206e6f6e2d636f6e747261637400000060448201526064016105d2565b600080866001600160a01b03168587604051613e9f9190614432565b60006040518083038185875af1925050503d8060008114613edc576040519150601f19603f3d011682016040523d82523d6000602084013e613ee1565b606091505b5091509150613ef1828286613d9b565b979650505050505050565b80356137e181614a06565b600082601f830112613f17578081fd5b81356020613f2c613f27836147bf565b61478e565b80838252828201915082860187848660051b8901011115613f4b578586fd5b855b85811015613f7057613f5e82614021565b84529284019290840190600101613f4d565b5090979650505050505050565b600082601f830112613f8d578081fd5b81356020613f9d613f27836147bf565b80838252828201915082860187848660051b8901011115613fbc578586fd5b855b85811015613f7057813584529284019290840190600101613fbe565b60008083601f840112613feb578182fd5b50813567ffffffffffffffff811115614002578182fd5b60208301915083602082850101111561401a57600080fd5b9250929050565b80356001600160701b03811681146137e157600080fd5b80356001600160801b03811681146137e157600080fd5b600060208284031215614060578081fd5b8151611a0381614a06565b60006020828403121561407c578081fd5b81518015158114611a03578182fd5b60006020828403121561409c578081fd5b5035919050565b6000602082840312156140b4578081fd5b5051919050565b600080604083850312156140cd578081fd5b8235915060208301356140df81614a06565b809150509250929050565b60008060008060008060008060e0898b031215614105578384fd5b8835975061411560208a01613efc565b965061412360408a01613efc565b9550606089013567ffffffffffffffff8082111561413f578586fd5b61414b8c838d01613f7d565b965060808b0135915080821115614160578586fd5b61416c8c838d01613f07565b955060a08b0135915080821115614181578485fd5b61418d8c838d01613f07565b945060c08b01359150808211156141a2578384fd5b506141af8b828c01613fda565b999c989b5096995094979396929594505050565b60008060008084860360a08112156141d9578485fd5b8535945060208601356141eb81614a06565b935060408601356141fb81614a06565b92506040605f198201121561420e578182fd5b506040516040810181811067ffffffffffffffff82111715614232576142326149f0565b60405261424160608701614038565b815261424f60808701614038565b6020820152939692955090935050565b60008060008060008060008060e0898b03121561427a578384fd5b88359750602089013561428c81614a06565b9650604089013561429c81614a06565b95506142aa60608a01614021565b94506142b860808a01614021565b93506142c660a08a01614021565b925060c089013567ffffffffffffffff8111156142e1578283fd5b6141af8b828c01613fda565b60008060008060808587031215614302578182fd5b84359350602085013561431481614a06565b9250604085013561432481614a06565b9396929550929360600135925050565b600080600060608486031215614348578081fd5b83359250602084013561435a81614a06565b929592945050506040919091013590565b6000815180845260208085019450808401835b838110156143a35781516001600160701b03168752958201959082019060010161437e565b509495945050505050565b81835281816020850137506000828201602090810191909152601f909101601f19169091010190565b600081518084526143ef816020860160208601614965565b601f01601f19169290920160200192915050565b6001600160701b038082511683528060208301511660208401525063ffffffff60408201511660408301525050565b60008251614444818460208701614965565b9190910192915050565b602081526000611a0360208301846143d7565b60408152600061447460408301856143d7565b90508260208301529392505050565b6020808252600490820152634532303560e01b604082015260600190565b6020808252600490820152632299181960e11b604082015260600190565b6020808252600490820152634532313160e01b604082015260600190565b602080825260049082015263114c8c0d60e21b604082015260600190565b6020808252600490820152634532303160e01b604082015260600190565b60408101610b4d828480516001600160801b03908116835260209182015116910152565b60608101610b4d8284614403565b6001600160701b0384168152604060208201526000612cc96040830184866143ae565b60006001600160701b038087168352808616602084015250606060408301526137c16060830184866143ae565b6001600160801b0384168152604060208201526000612cc96040830184866143ae565b600060c08201888352602060c08185015281895180845260e086019150828b019350845b818110156145fe578451835293830193918301916001016145e2565b50508481036040860152614612818a61436b565b925050508281036060840152614628818761436b565b9150506001600160801b03808516608084015280841660a084015250979650505050505050565b83815260a08101614679602083018580516001600160801b03908116835260209182015116910152565b82516001600160801b0390811660608401526020840151166080830152612bac565b82815260808101611a036020830184614403565b8381526001600160701b038316602082015260808101612bac604083018480516001600160801b03908116835260209182015116910152565b8481526001600160701b03841660208201526040810183905260c08101612cc96060830184614403565b8581526001600160701b0385166020820152604081018490526060810183905260e081016137c16080830184614403565b8381526020810183905260a08101612bac6040830184614403565b838152602080820184905282516001600160801b0390811660408401529083015116606082015260808101612bac565b604051601f8201601f1916810167ffffffffffffffff811182821017156147b7576147b76149f0565b604052919050565b600067ffffffffffffffff8211156147d9576147d96149f0565b5060051b60200190565b60006001600160701b03808316818516808303821115614805576148056149c4565b01949350505050565b60006001600160781b03808316818516808303821115614805576148056149c4565b60006001600160801b03808316818516808303821115614805576148056149c4565b600062ffffff808316818516808303821115614805576148056149c4565b60008219821115614883576148836149c4565b500190565b600082614897576148976149da565b500490565b60006001600160801b03808316818516818304811182151516156148c2576148c26149c4565b02949350505050565b60008160001904831182151516156148e5576148e56149c4565b500290565b60006001600160701b038381169083168181101561490a5761490a6149c4565b039392505050565b60006001600160801b038381169083168181101561490a5761490a6149c4565b600062ffffff8381169083168181101561490a5761490a6149c4565b600082821015614960576149606149c4565b500390565b60005b83811015614980578181015183820152602001614968565b8381111561498f576000848401525b50505050565b60006000198214156149a9576149a96149c4565b5060010190565b6000826149bf576149bf6149da565b500690565b634e487b7160e01b600052601160045260246000fd5b634e487b7160e01b600052601260045260246000fd5b634e487b7160e01b600052604160045260246000fd5b6001600160a01b0381168114614a1b57600080fd5b5056fe62616c616e63654f662043616c6c20746f2049455243323020746f6b656e206e6f74207375636365737366756ca264697066735822122016d1031df2e7ae2a428d2ef50c7edaad4528427ce7a69259c50a2d75e749c05564736f6c63430008040033a26469706673582212208f8400998066a105d909d34449f1d392da501d70a9e9b1f99f90f0d685423fd464736f6c63430008040033",
  "devdoc": {
    "author": "Timeswap Labs",
    "kind": "dev",
    "methods": {
      "acceptOwner()": {
        "details": "Set the pending owner as the owner of the factory.Can only be called by the pending owner."
      },
      "constructor": {
        "params": {
          "_fee": "The chosen fee rate.",
          "_owner": "The chosen owner address.",
          "_protocolFee": "The chosen protocol fee rate."
        }
      },
      "createPair(address,address)": {
        "details": "Creates a Timeswap Pool based on ERC20 pair parameters.Cannot create a Timeswap Pool with the same pair parameters.",
        "params": {
          "asset": "The address of the ERC20 being lent and borrowed.",
          "collateral": "The address of the ERC20 as the collateral."
        },
        "returns": {
          "pair": "The address of the Timeswap Pair contract."
        }
      },
      "setOwner(address)": {
        "details": "Set the pending owner of the factory.Can only be called by the current owner.",
        "params": {
          "_pendingOwner": "the chosen pending owner."
        }
      }
    },
    "stateVariables": {
      "fee": {
        "details": "Return the fee earned by liquidity providers.",
        "return": "The fee following UQ0.16 format.",
        "returns": {
          "_0": "The fee following UQ0.16 format."
        }
      },
      "getPair": {
        "details": "Returns the address of a deployed pair.",
        "params": {
          "asset": "The address of the ERC20 being lent and borrowed.",
          "collateral": "The address of the ERC20 used as collateral."
        },
        "return": "pair The address of the Timeswap Pair contract.",
        "returns": {
          "_0": "pair The address of the Timeswap Pair contract."
        }
      },
      "owner": {
        "details": "Return the address that receives the protocol fee.",
        "return": "The address of the owner.",
        "returns": {
          "_0": "The address of the owner."
        }
      },
      "pendingOwner": {
        "details": "Return the new pending address to replace the owner.",
        "return": "The address of the pending owner.",
        "returns": {
          "_0": "The address of the pending owner."
        }
      },
      "protocolFee": {
        "details": "Return the protocol fee per second earned by the owner.",
        "return": "The protocol fee per seconde following UQ0.40 format.",
        "returns": {
          "_0": "The protocol fee per seconde following UQ0.40 format."
        }
      }
    },
    "title": "Timeswap Factory",
    "version": 1
  },
  "userdoc": {
    "kind": "user",
    "methods": {},
    "notice": "It is recommnded to use Timeswap Convenience to interact with this contract.All error messages are coded and can be found in the documentation.",
    "version": 1
  },
  "storageLayout": {
    "storage": [
      {
        "astId": 1208,
        "contract": "contracts/TimeswapFactory.sol:TimeswapFactory",
        "label": "owner",
        "offset": 0,
        "slot": "0",
        "type": "t_address"
      },
      {
        "astId": 1212,
        "contract": "contracts/TimeswapFactory.sol:TimeswapFactory",
        "label": "pendingOwner",
        "offset": 0,
        "slot": "1",
        "type": "t_address"
      },
      {
        "astId": 1231,
        "contract": "contracts/TimeswapFactory.sol:TimeswapFactory",
        "label": "getPair",
        "offset": 0,
        "slot": "2",
        "type": "t_mapping(t_contract(IERC20)623,t_mapping(t_contract(IERC20)623,t_contract(IPair)3626))"
      }
    ],
    "types": {
      "t_address": {
        "encoding": "inplace",
        "label": "address",
        "numberOfBytes": "20"
      },
      "t_contract(IERC20)623": {
        "encoding": "inplace",
        "label": "contract IERC20",
        "numberOfBytes": "20"
      },
      "t_contract(IPair)3626": {
        "encoding": "inplace",
        "label": "contract IPair",
        "numberOfBytes": "20"
      },
      "t_mapping(t_contract(IERC20)623,t_contract(IPair)3626)": {
        "encoding": "mapping",
        "key": "t_contract(IERC20)623",
        "label": "mapping(contract IERC20 => contract IPair)",
        "numberOfBytes": "32",
        "value": "t_contract(IPair)3626"
      },
      "t_mapping(t_contract(IERC20)623,t_mapping(t_contract(IERC20)623,t_contract(IPair)3626))": {
        "encoding": "mapping",
        "key": "t_contract(IERC20)623",
        "label": "mapping(contract IERC20 => mapping(contract IERC20 => contract IPair))",
        "numberOfBytes": "32",
        "value": "t_mapping(t_contract(IERC20)623,t_contract(IPair)3626)"
      }
    }
  }
}