{"abi":[{"inputs":[{"internalType":"contract IController","name":"controller","type":"address"}],"stateMutability":"nonpayable","type":"constructor","name":"constructor"},{"anonymous":false,"inputs":[{"indexed":true,"internalType":"bytes32","name":"key","type":"bytes32"},{"indexed":false,"internalType":"address","name":"value","type":"address"},{"indexed":false,"internalType":"uint256","name":"delay","type":"uint256"}],"name":"ConfigPreparedAddress","type":"event"},{"anonymous":false,"inputs":[{"indexed":true,"internalType":"bytes32","name":"key","type":"bytes32"},{"indexed":false,"internalType":"uint256","name":"value","type":"uint256"},{"indexed":false,"internalType":"uint256","name":"delay","type":"uint256"}],"name":"ConfigPreparedNumber","type":"event"},{"anonymous":false,"inputs":[{"indexed":true,"internalType":"bytes32","name":"key","type":"bytes32"}],"name":"ConfigReset","type":"event"},{"anonymous":false,"inputs":[{"indexed":true,"internalType":"bytes32","name":"key","type":"bytes32"},{"indexed":false,"internalType":"address","name":"oldValue","type":"address"},{"indexed":false,"internalType":"address","name":"newValue","type":"address"}],"name":"ConfigUpdatedAddress","type":"event"},{"anonymous":false,"inputs":[{"indexed":true,"internalType":"bytes32","name":"key","type":"bytes32"},{"indexed":false,"internalType":"uint256","name":"oldValue","type":"uint256"},{"indexed":false,"internalType":"uint256","name":"newValue","type":"uint256"}],"name":"ConfigUpdatedNumber","type":"event"},{"anonymous":false,"inputs":[{"indexed":true,"internalType":"uint256","name":"netProfit","type":"uint256"},{"indexed":true,"internalType":"uint256","name":"loss","type":"uint256"}],"name":"Harvest","type":"event"},{"anonymous":false,"inputs":[{"indexed":true,"internalType":"address","name":"strategy","type":"address"}],"name":"StrategyActivated","type":"event"},{"anonymous":false,"inputs":[{"indexed":true,"internalType":"address","name":"strategy","type":"address"}],"name":"StrategyDeactivated","type":"event"},{"inputs":[],"name":"MAX_DEVIATION_BOUND","outputs":[{"internalType":"uint256","name":"","type":"uint256"}],"stateMutability":"view","type":"function"},{"inputs":[],"name":"MAX_PERFORMANCE_FEE","outputs":[{"internalType":"uint256","name":"","type":"uint256"}],"stateMutability":"view","type":"function"},{"inputs":[],"name":"STRATEGY_DELAY","outputs":[{"internalType":"uint256","name":"","type":"uint256"}],"stateMutability":"view","type":"function"},{"inputs":[],"name":"activateStrategy","outputs":[{"internalType":"bool","name":"","type":"bool"}],"stateMutability":"nonpayable","type":"function"},{"inputs":[],"name":"addressProvider","outputs":[{"internalType":"contract IAddressProvider","name":"","type":"address"}],"stateMutability":"view","type":"function"},{"inputs":[],"name":"controller","outputs":[{"internalType":"contract IController","name":"","type":"address"}],"stateMutability":"view","type":"function"},{"inputs":[{"internalType":"bytes32","name":"","type":"bytes32"}],"name":"currentAddresses","outputs":[{"internalType":"address","name":"","type":"address"}],"stateMutability":"view","type":"function"},{"inputs":[],"name":"currentAllocated","outputs":[{"internalType":"uint256","name":"","type":"uint256"}],"stateMutability":"view","type":"function"},{"inputs":[{"internalType":"bytes32","name":"","type":"bytes32"}],"name":"currentUInts256","outputs":[{"internalType":"uint256","name":"","type":"uint256"}],"stateMutability":"view","type":"function"},{"inputs":[],"name":"deactivateStrategy","outputs":[{"internalType":"bool","name":"","type":"bool"}],"stateMutability":"nonpayable","type":"function"},{"inputs":[{"internalType":"bytes32","name":"","type":"bytes32"}],"name":"deadlines","outputs":[{"internalType":"uint256","name":"","type":"uint256"}],"stateMutability":"view","type":"function"},{"inputs":[],"name":"deposit","outputs":[],"stateMutability":"payable","type":"function"},{"inputs":[],"name":"executeBound","outputs":[{"internalType":"uint256","name":"","type":"uint256"}],"stateMutability":"nonpayable","type":"function"},{"inputs":[],"name":"executeDebtLimit","outputs":[{"internalType":"uint256","name":"","type":"uint256"}],"stateMutability":"nonpayable","type":"function"},{"inputs":[],"name":"executeNewStrategy","outputs":[{"internalType":"address","name":"","type":"address"}],"stateMutability":"nonpayable","type":"function"},{"inputs":[],"name":"executePerformanceFee","outputs":[{"internalType":"uint256","name":"","type":"uint256"}],"stateMutability":"nonpayable","type":"function"},{"inputs":[],"name":"executeReserveFee","outputs":[{"internalType":"uint256","name":"","type":"uint256"}],"stateMutability":"nonpayable","type":"function"},{"inputs":[],"name":"executeStrategistFee","outputs":[{"internalType":"uint256","name":"","type":"uint256"}],"stateMutability":"nonpayable","type":"function"},{"inputs":[],"name":"executeTargetAllocation","outputs":[{"internalType":"uint256","name":"","type":"uint256"}],"stateMutability":"nonpayable","type":"function"},{"inputs":[{"internalType":"address","name":"strategy","type":"address"}],"name":"getAllocatedToStrategyWaitingForRemoval","outputs":[{"internalType":"uint256","name":"","type":"uint256"}],"stateMutability":"view","type":"function"},{"inputs":[],"name":"getBound","outputs":[{"internalType":"uint256","name":"","type":"uint256"}],"stateMutability":"view","type":"function"},{"inputs":[],"name":"getDebtLimit","outputs":[{"internalType":"uint256","name":"","type":"uint256"}],"stateMutability":"view","type":"function"},{"inputs":[],"name":"getPerformanceFee","outputs":[{"internalType":"uint256","name":"","type":"uint256"}],"stateMutability":"view","type":"function"},{"inputs":[],"name":"getReserveFee","outputs":[{"internalType":"uint256","name":"","type":"uint256"}],"stateMutability":"view","type":"function"},{"inputs":[],"name":"getStrategiesWaitingForRemoval","outputs":[{"internalType":"address[]","name":"","type":"address[]"}],"stateMutability":"view","type":"function"},{"inputs":[],"name":"getStrategistFee","outputs":[{"internalType":"uint256","name":"","type":"uint256"}],"stateMutability":"view","type":"function"},{"inputs":[],"name":"getStrategy","outputs":[{"internalType":"contract IStrategy","name":"","type":"address"}],"stateMutability":"view","type":"function"},{"inputs":[],"name":"getTargetAllocation","outputs":[{"internalType":"uint256","name":"","type":"uint256"}],"stateMutability":"view","type":"function"},{"inputs":[],"name":"getTotalUnderlying","outputs":[{"internalType":"uint256","name":"","type":"uint256"}],"stateMutability":"view","type":"function"},{"inputs":[],"name":"getUnderlying","outputs":[{"internalType":"address","name":"","type":"address"}],"stateMutability":"pure","type":"function"},{"inputs":[],"name":"harvest","outputs":[{"internalType":"bool","name":"","type":"bool"}],"stateMutability":"nonpayable","type":"function"},{"inputs":[{"internalType":"address","name":"_pool","type":"address"},{"internalType":"uint256","name":"_debtLimit","type":"uint256"},{"internalType":"uint256","name":"_targetAllocation","type":"uint256"},{"internalType":"uint256","name":"_bound","type":"uint256"}],"name":"initialize","outputs":[],"stateMutability":"nonpayable","type":"function"},{"inputs":[{"internalType":"address","name":"strategy_","type":"address"}],"name":"initializeStrategy","outputs":[{"internalType":"bool","name":"","type":"bool"}],"stateMutability":"nonpayable","type":"function"},{"inputs":[{"internalType":"bytes32","name":"","type":"bytes32"}],"name":"pendingAddresses","outputs":[{"internalType":"address","name":"","type":"address"}],"stateMutability":"view","type":"function"},{"inputs":[{"internalType":"bytes32","name":"","type":"bytes32"}],"name":"pendingUInts256","outputs":[{"internalType":"uint256","name":"","type":"uint256"}],"stateMutability":"view","type":"function"},{"inputs":[],"name":"pool","outputs":[{"internalType":"address","name":"","type":"address"}],"stateMutability":"view","type":"function"},{"inputs":[{"internalType":"uint256","name":"newBound","type":"uint256"}],"name":"prepareBound","outputs":[{"internalType":"bool","name":"","type":"bool"}],"stateMutability":"nonpayable","type":"function"},{"inputs":[{"internalType":"uint256","name":"newDebtLimit","type":"uint256"}],"name":"prepareDebtLimit","outputs":[{"internalType":"bool","name":"","type":"bool"}],"stateMutability":"nonpayable","type":"function"},{"inputs":[{"internalType":"address","name":"newStrategy","type":"address"}],"name":"prepareNewStrategy","outputs":[{"internalType":"bool","name":"","type":"bool"}],"stateMutability":"nonpayable","type":"function"},{"inputs":[{"internalType":"uint256","name":"newPerformanceFee","type":"uint256"}],"name":"preparePerformanceFee","outputs":[{"internalType":"bool","name":"","type":"bool"}],"stateMutability":"nonpayable","type":"function"},{"inputs":[{"internalType":"uint256","name":"newReserveFee","type":"uint256"}],"name":"prepareReserveFee","outputs":[{"internalType":"bool","name":"","type":"bool"}],"stateMutability":"nonpayable","type":"function"},{"inputs":[{"internalType":"uint256","name":"newStrategistFee","type":"uint256"}],"name":"prepareStrategistFee","outputs":[{"internalType":"bool","name":"","type":"bool"}],"stateMutability":"nonpayable","type":"function"},{"inputs":[{"internalType":"uint256","name":"newTargetAllocation","type":"uint256"}],"name":"prepareTargetAllocation","outputs":[{"internalType":"bool","name":"","type":"bool"}],"stateMutability":"nonpayable","type":"function"},{"inputs":[],"name":"reserve","outputs":[{"internalType":"contract IVaultReserve","name":"","type":"address"}],"stateMutability":"view","type":"function"},{"inputs":[],"name":"resetBound","outputs":[{"internalType":"bool","name":"","type":"bool"}],"stateMutability":"nonpayable","type":"function"},{"inputs":[],"name":"resetDebtLimit","outputs":[{"internalType":"bool","name":"","type":"bool"}],"stateMutability":"nonpayable","type":"function"},{"inputs":[],"name":"resetNewStrategy","outputs":[{"internalType":"bool","name":"","type":"bool"}],"stateMutability":"nonpayable","type":"function"},{"inputs":[],"name":"resetPerformanceFee","outputs":[{"internalType":"bool","name":"","type":"bool"}],"stateMutability":"nonpayable","type":"function"},{"inputs":[],"name":"resetReserveFee","outputs":[{"internalType":"bool","name":"","type":"bool"}],"stateMutability":"nonpayable","type":"function"},{"inputs":[],"name":"resetStrategistFee","outputs":[{"internalType":"bool","name":"","type":"bool"}],"stateMutability":"nonpayable","type":"function"},{"inputs":[],"name":"resetTargetAllocation","outputs":[{"internalType":"bool","name":"","type":"bool"}],"stateMutability":"nonpayable","type":"function"},{"inputs":[],"name":"roleManager","outputs":[{"internalType":"contract IRoleManager","name":"","type":"address"}],"stateMutability":"view","type":"function"},{"inputs":[],"name":"strategyActive","outputs":[{"internalType":"bool","name":"","type":"bool"}],"stateMutability":"view","type":"function"},{"inputs":[],"name":"totalDebt","outputs":[{"internalType":"uint256","name":"","type":"uint256"}],"stateMutability":"view","type":"function"},{"inputs":[],"name":"waitingForRemovalAllocated","outputs":[{"internalType":"uint256","name":"","type":"uint256"}],"stateMutability":"view","type":"function"},{"inputs":[{"internalType":"uint256","name":"amount","type":"uint256"}],"name":"withdraw","outputs":[{"internalType":"bool","name":"","type":"bool"}],"stateMutability":"nonpayable","type":"function"},{"inputs":[],"name":"withdrawAll","outputs":[],"stateMutability":"nonpayable","type":"function"},{"inputs":[],"name":"withdrawAllFromStrategy","outputs":[{"internalType":"bool","name":"","type":"bool"}],"stateMutability":"nonpayable","type":"function"},{"inputs":[{"internalType":"uint256","name":"amount","type":"uint256"}],"name":"withdrawFromReserve","outputs":[],"stateMutability":"nonpayable","type":"function"},{"inputs":[{"internalType":"uint256","name":"amount","type":"uint256"}],"name":"withdrawFromStrategy","outputs":[{"internalType":"bool","name":"","type":"bool"}],"stateMutability":"nonpayable","type":"function"},{"inputs":[{"internalType":"address","name":"strategy","type":"address"}],"name":"withdrawFromStrategyWaitingForRemoval","outputs":[{"internalType":"uint256","name":"","type":"uint256"}],"stateMutability":"nonpayable","type":"function"},{"stateMutability":"payable","type":"receive"}],"bytecode":"6101006040523480156200001257600080fd5b506040516200556a3803806200556a83398101604081905262000035916200028f565b80620000c9816001600160a01b0316632954018c6040518163ffffffff1660e01b815260040160206040518083038186803b1580156200007457600080fd5b505afa15801562000089573d6000803e3d6000fd5b505050506040513d601f19601f82011682018060405250810190620000af91906200028f565b6001600160a01b0316620001a460201b620033071760201c565b6001600160a01b03908116608052811660a081905260408051630a55006360e21b8152905160009291632954018c916004808301926020929190829003018186803b1580156200011857600080fd5b505afa1580156200012d573d6000803e3d6000fd5b505050506040513d601f19601f820116820180604052508101906200015391906200028f565b9050806001600160a01b031660c0816001600160a01b0316815250506200018e816001600160a01b03166200023760201b620033901760201c565b6001600160a01b031660e05250620002b6915050565b6040516321f8a72160e01b81526a3937b632a6b0b730b3b2b960a91b60048201526000906001600160a01b038316906321f8a721906024015b60206040518083038186803b158015620001f657600080fd5b505afa1580156200020b573d6000803e3d6000fd5b505050506040513d601f19601f820116820180604052508101906200023191906200028f565b92915050565b6040516321f8a72160e01b81526b7661756c745265736572766560a01b60048201526000906001600160a01b038316906321f8a72190602401620001dd565b6001600160a01b03811681146200028c57600080fd5b50565b600060208284031215620002a257600080fd5b8151620002af8162000276565b9392505050565b60805160a05160c05160e05161523462000336600039600081816108e201528181610cb301528181610db4015281816144de015281816145b0015281816146410152818161492201528181614ad301528181614b6b0152614c2801526000818161053601526149ad01526000610a28015260006133d001526152346000f3fe6080604052600436106103a55760003560e01c80638e6ac89b116101e7578063c4baed931161010d578063e3976edf116100a0578063f76c33991161006f578063f76c3399146109e0578063f77c479114610a16578063f95d943814610a4a578063fc7b9c1814610a6057600080fd5b8063e3976edf14610960578063f09b8fb114610996578063f1eeb9e6146109ab578063f3e7fc80146109cb57600080fd5b8063d46a8478116100dc578063d46a84781461090c578063d583e65914610921578063d698e2bb14610936578063d8ae7bf81461094b57600080fd5b8063c4baed931461089b578063c9fd9227146108bb578063cd3293de146108d0578063d0e30db01461090457600080fd5b8063a852d3e011610185578063aff1b7e411610154578063aff1b7e41461083f578063b40494e51461086c578063bd2a8b0714610881578063bdca91651461075957600080fd5b8063a852d3e0146107d5578063a966bc09146107f5578063ade109601461080a578063af2a8fff1461081f57600080fd5b80639816f473116101c15780639816f473146107755780639cf7fcc9146107895780639d711f3b146107ab578063a50ec876146107c057600080fd5b80638e6ac89b1461072f57806390f38918146107445780639407d08f1461075957600080fd5b80634278a673116102cc5780636f21cac31161026a5780637fef50da116102395780637fef50da146106da578063853828b6146106ef578063890f5f831461070457806389efcaac1461071957600080fd5b80636f21cac31461067b578063779ce5a41461069b578063798cf01d146106b05780637cd32a12146106c557600080fd5b80634ec81af1116102a65780634ec81af11461060f5780636741c1b91461062f578063678cbcb5146106445780636d785cf31461066457600080fd5b80634278a673146105ba5780634641257d146105da57806348b19335146105ef57600080fd5b806316f0115b116103445780632954018c116103135780632954018c146105245780632e1a7d4d1461055857806332a894c114610578578063346a4a511461058d57600080fd5b806316f0115b146104ba57806321401dd1146104da5780632182a5c4146104ef578063235c36031461050f57600080fd5b80630ee43c20116103805780630ee43c201461041a5780630fe6cbcf1461043f578063102a91261461045f57806315dbfe621461047f57600080fd5b8062435da5146103b157806307da0603146103e35780630a8bcdb9146103f857600080fd5b366103ac57005b600080fd5b3480156103bd57600080fd5b506103c6610a76565b6040516001600160a01b0390911681526020015b60405180910390f35b3480156103ef57600080fd5b506103c6610a85565b34801561040457600080fd5b50610418610413366004614f17565b610ac7565b005b34801561042657600080fd5b5061042f610e60565b60405190151581526020016103da565b34801561044b57600080fd5b5061042f61045a366004614f17565b610f53565b34801561046b57600080fd5b5061042f61047a366004614f17565b61105b565b34801561048b57600080fd5b506104ac61049a366004614f17565b603b6020526000908152604090205481565b6040519081526020016103da565b3480156104c657600080fd5b506002546103c6906001600160a01b031681565b3480156104e657600080fd5b5061042f61115a565b3480156104fb57600080fd5b5061042f61050a366004614f17565b611239565b34801561051b57600080fd5b506104ac611326565b34801561053057600080fd5b506103c67f000000000000000000000000000000000000000000000000000000000000000081565b34801561056457600080fd5b5061042f610573366004614f17565b611365565b34801561058457600080fd5b506104ac6116b5565b34801561059957600080fd5b506104ac6105a8366004614f17565b603e6020526000908152604090205481565b3480156105c657600080fd5b5061042f6105d5366004614f17565b6116d8565b3480156105e657600080fd5b5061042f611810565b3480156105fb57600080fd5b5061042f61060a366004614f17565b611905565b34801561061b57600080fd5b5061041861062a366004614f45565b611b2c565b34801561063b57600080fd5b5061042f611bf5565b34801561065057600080fd5b5061042f61065f366004614f80565b611cd4565b34801561067057600080fd5b506104ac6206978081565b34801561068757600080fd5b506104ac610696366004614f80565b611f8f565b3480156106a757600080fd5b506104ac611f9c565b3480156106bc57600080fd5b506104ac611fdd565b3480156106d157600080fd5b506104ac61201b565b3480156106e657600080fd5b506104ac612055565b3480156106fb57600080fd5b5061041861208b565b34801561071057600080fd5b5061042f612195565b34801561072557600080fd5b506104ac60015481565b34801561073b57600080fd5b5061042f612282565b34801561075057600080fd5b506104ac612372565b34801561076557600080fd5b506104ac6706f05b59d3b2000081565b34801561078157600080fd5b5060006103c6565b34801561079557600080fd5b5061079e6123a1565b6040516103da9190614f9d565b3480156107b757600080fd5b5061042f6123ad565b3480156107cc57600080fd5b506103c6612498565b3480156107e157600080fd5b5061042f6107f0366004614f17565b6126d9565b34801561080157600080fd5b5061042f6127cd565b34801561081657600080fd5b5061042f6128b5565b34801561082b57600080fd5b5061042f61083a366004614f80565b6129a9565b34801561084b57600080fd5b506104ac61085a366004614f17565b603d6020526000908152604090205481565b34801561087857600080fd5b506104ac612a99565b34801561088d57600080fd5b5060045461042f9060ff1681565b3480156108a757600080fd5b5061042f6108b6366004614f17565b612afe565b3480156108c757600080fd5b506104ac612c3f565b3480156108dc57600080fd5b506103c67f000000000000000000000000000000000000000000000000000000000000000081565b610418612c5e565b34801561091857600080fd5b506104ac612d50565b34801561092d57600080fd5b506104ac612d77565b34801561094257600080fd5b5061042f612dc1565b34801561095757600080fd5b5061042f612eb2565b34801561096c57600080fd5b506103c661097b366004614f17565b603a602052600090815260409020546001600160a01b031681565b3480156109a257600080fd5b506104ac612f9e565b3480156109b757600080fd5b506104ac6109c6366004614f80565b612fba565b3480156109d757600080fd5b506104ac6132cc565b3480156109ec57600080fd5b506103c66109fb366004614f17565b603c602052600090815260409020546001600160a01b031681565b348015610a2257600080fd5b506103c67f000000000000000000000000000000000000000000000000000000000000000081565b348015610a5657600080fd5b506104ac60005481565b348015610a6c57600080fd5b506104ac60035481565b6000610a806133ce565b905090565b67537472617465677960c01b600052603c6020527f15bdd40257915f753934b43755984618aeb2ae4fff096845769c2bb729e989be546001600160a01b031690565b610acf6133ce565b6001600160a01b03166391d1485469676f7665726e616e636560b01b336040518363ffffffff1660e01b8152600401610b09929190614fea565b60206040518083038186803b158015610b2157600080fd5b505afa158015610b35573d6000803e3d6000fd5b505050506040513d601f19601f82011682018060405250810190610b599190615001565b6040518060400160405280601381526020016000805160206151be83398151915281525090610ba45760405162461bcd60e51b8152600401610b9b9190615023565b60405180910390fd5b5060408051808201909152600e81526d1a5b9d985b1a5908185b5bdd5b9d60921b602082015281610be85760405162461bcd60e51b8152600401610b9b9190615023565b50600260009054906101000a90046001600160a01b03166001600160a01b031663b187bd266040518163ffffffff1660e01b815260040160206040518083038186803b158015610c3757600080fd5b505afa158015610c4b573d6000803e3d6000fd5b505050506040513d601f19601f82011682018060405250810190610c6f9190615001565b6040518060600160405280602c8152602001615192602c913990610ca65760405162461bcd60e51b8152600401610b9b9190615023565b5060006001600160a01b037f00000000000000000000000000000000000000000000000000000000000000001663d4fac45d30836040516001600160e01b031960e085901b1681526001600160a01b0392831660048201529116602482015260440160206040518083038186803b158015610d2057600080fd5b505afa158015610d34573d6000803e3d6000fd5b505050506040513d601f19601f82011682018060405250810190610d589190615078565b90508082111560405180604001604052806014815260200173696e73756666696369656e742062616c616e636560601b81525090610da95760405162461bcd60e51b8152600401610b9b9190615023565b506001600160a01b037f00000000000000000000000000000000000000000000000000000000000000001663f3fef3a360006040516001600160e01b031960e084901b1681526001600160a01b03909116600482015260248101859052604401602060405180830381600087803b158015610e2357600080fd5b505af1158015610e37573d6000803e3d6000fd5b505050506040513d601f19601f82011682018060405250810190610e5b9190615001565b505050565b6000610e6a6133ce565b6001600160a01b03166391d1485469676f7665726e616e636560b01b336040518363ffffffff1660e01b8152600401610ea4929190614fea565b60206040518083038186803b158015610ebc57600080fd5b505afa158015610ed0573d6000803e3d6000fd5b505050506040513d601f19601f82011682018060405250810190610ef49190615001565b6040518060400160405280601381526020016000805160206151be83398151915281525090610f365760405162461bcd60e51b8152600401610b9b9190615023565b50610a806f2a30b933b2ba20b63637b1b0ba34b7b760811b6133f2565b6000610f5d6133ce565b6001600160a01b03166391d1485469676f7665726e616e636560b01b336040518363ffffffff1660e01b8152600401610f97929190614fea565b60206040518083038186803b158015610faf57600080fd5b505afa158015610fc3573d6000803e3d6000fd5b505050506040513d601f19601f82011682018060405250810190610fe79190615001565b6040518060400160405280601381526020016000805160206151be833981519152815250906110295760405162461bcd60e51b8152600401610b9b9190615023565b5061103b6110356132cc565b83613499565b6110556c5374726174656769737446656560981b83613524565b92915050565b60006110656133ce565b6001600160a01b03166391d1485469676f7665726e616e636560b01b336040518363ffffffff1660e01b815260040161109f929190614fea565b60206040518083038186803b1580156110b757600080fd5b505afa1580156110cb573d6000803e3d6000fd5b505050506040513d601f19601f820116820180604052508101906110ef9190615001565b6040518060400160405280601381526020016000805160206151be833981519152815250906111315760405162461bcd60e51b8152600401610b9b9190615023565b506111438261113e611fdd565b613499565b611055695265736572766546656560b01b83613524565b60006111646133ce565b6001600160a01b03166391d1485469676f7665726e616e636560b01b336040518363ffffffff1660e01b815260040161119e929190614fea565b60206040518083038186803b1580156111b657600080fd5b505afa1580156111ca573d6000803e3d6000fd5b505050506040513d601f19601f820116820180604052508101906111ee9190615001565b6040518060400160405280601381526020016000805160206151be833981519152815250906112305760405162461bcd60e51b8152600401610b9b9190615023565b50610a8061353b565b60006112436133ce565b6001600160a01b03166391d1485469676f7665726e616e636560b01b336040518363ffffffff1660e01b815260040161127d929190614fea565b60206040518083038186803b15801561129557600080fd5b505afa1580156112a9573d6000803e3d6000fd5b505050506040513d601f19601f820116820180604052508101906112cd9190615001565b6040518060400160405280601381526020016000805160206151be8339815191528152509061130f5760405162461bcd60e51b8152600401610b9b9190615023565b50611055681119589d131a5b5a5d60ba1b83613524565b6d506572666f726d616e636546656560901b600052603d6020527fbadb955f4a57baa7811abc9bcd6809eb9d3b80456cae1a7ea27f30fddfd0c0a65490565b6002546000906001600160a01b031633148061140e57506113846133ce565b6001600160a01b03166391d1485469676f7665726e616e636560b01b336040518363ffffffff1660e01b81526004016113be929190614fea565b60206040518083038186803b1580156113d657600080fd5b505afa1580156113ea573d6000803e3d6000fd5b505050506040513d601f19601f8201168201806040525081019061140e9190615001565b6040518060400160405280601381526020016000805160206151be833981519152815250906114505760405162461bcd60e51b8152600401610b9b9190615023565b50600061145b610a85565b905047838110156115d7576001600160a01b03821661147e575060009392505050565b6000826001600160a01b031663b69ef8a86040518163ffffffff1660e01b815260040160206040518083038186803b1580156114b957600080fd5b505afa1580156114cd573d6000803e3d6000fd5b505050506040513d601f19601f820116820180604052508101906114f19190615078565b905060006114ff83876150a7565b9050818111156115155750600095945050505050565b6000611532611522611f9c565b61152c84866150a7565b9061359b565b9050600061154082856150a7565b604051632e1a7d4d60e01b8152600481018290529091506001600160a01b03871690632e1a7d4d90602401602060405180830381600087803b15801561158557600080fd5b505af1158015611599573d6000803e3d6000fd5b505050506040513d601f19601f820116820180604052508101906115bd9190615001565b506115ca600054826135ba565b6000555061169592505050565b60006001600160a01b0383161561165c57826001600160a01b031663b69ef8a86040518163ffffffff1660e01b815260040160206040518083038186803b15801561162157600080fd5b505afa158015611635573d6000803e3d6000fd5b505050506040513d601f19601f820116820180604052508101906116599190615078565b90505b60015460009061166c83856150be565b61167691906150be565b9050600061168487836150a7565b905061169081846135de565b505050505b6002546116ab906001600160a01b0316856137f5565b5060019392505050565b6000806116c964109bdd5b9960da1b61382b565b90506116d361384f565b919050565b60006116e26133ce565b6001600160a01b03166391d1485469676f7665726e616e636560b01b336040518363ffffffff1660e01b815260040161171c929190614fea565b60206040518083038186803b15801561173457600080fd5b505afa158015611748573d6000803e3d6000fd5b505050506040513d601f19601f8201168201806040525081019061176c9190615001565b6040518060400160405280601381526020016000805160206151be833981519152815250906117ae5760405162461bcd60e51b8152600401610b9b9190615023565b5060408051808201909152600e81526d1a5b9d985b1a5908185b5bdd5b9d60921b60208201526706f05b59d3b200008311156117fd5760405162461bcd60e51b8152600401610b9b9190615023565b5061105564109bdd5b9960da1b83613524565b6002546000906001600160a01b03163314806118ba575061182f6133ce565b6001600160a01b03166391d148546a6d61696e74656e616e636560a81b336040518363ffffffff1660e01b815260040161186a929190614fea565b60206040518083038186803b15801561188257600080fd5b505afa158015611896573d6000803e3d6000fd5b505050506040513d601f19601f820116820180604052508101906118ba9190615001565b6040518060400160405280601381526020016000805160206151be833981519152815250906118fc5760405162461bcd60e51b8152600401610b9b9190615023565b50610a8061390d565b600061190f6133ce565b6001600160a01b03166391d1485469676f7665726e616e636560b01b336040518363ffffffff1660e01b8152600401611949929190614fea565b60206040518083038186803b15801561196157600080fd5b505afa158015611975573d6000803e3d6000fd5b505050506040513d601f19601f820116820180604052508101906119999190615001565b6040518060400160405280601381526020016000805160206151be833981519152815250906119db5760405162461bcd60e51b8152600401610b9b9190615023565b5060006119e6610a85565b90506001600160a01b0381166119ff5750600092915050565b82816001600160a01b031663b69ef8a86040518163ffffffff1660e01b815260040160206040518083038186803b158015611a3957600080fd5b505afa158015611a4d573d6000803e3d6000fd5b505050506040513d601f19601f82011682018060405250810190611a719190615078565b1015611a805750600092915050565b600047604051632e1a7d4d60e01b8152600481018690529091506001600160a01b03831690632e1a7d4d90602401602060405180830381600087803b158015611ac857600080fd5b505af1158015611adc573d6000803e3d6000fd5b505050506040513d601f19601f82011682018060405250810190611b009190615001565b5047611b0c82826150a7565b600080828254611b1c91906150a7565b9091555060019695505050505050565b603f54610100900460ff16611b4757603f5460ff1615611b4b565b303b155b611bae5760405162461bcd60e51b815260206004820152602e60248201527f496e697469616c697a61626c653a20636f6e747261637420697320616c72656160448201526d191e481a5b9a5d1a585b1a5e995960921b6064820152608401610b9b565b603f54610100900460ff16158015611bd057603f805461ffff19166101011790555b611bdc85858585613bc4565b8015611bee57603f805461ff00191690555b5050505050565b6000611bff6133ce565b6001600160a01b03166391d1485469676f7665726e616e636560b01b336040518363ffffffff1660e01b8152600401611c39929190614fea565b60206040518083038186803b158015611c5157600080fd5b505afa158015611c65573d6000803e3d6000fd5b505050506040513d601f19601f82011682018060405250810190611c899190615001565b6040518060400160405280601381526020016000805160206151be83398151915281525090611ccb5760405162461bcd60e51b8152600401610b9b9190615023565b50610a80613d72565b6000611cde6133ce565b6001600160a01b03166391d1485469676f7665726e616e636560b01b336040518363ffffffff1660e01b8152600401611d18929190614fea565b60206040518083038186803b158015611d3057600080fd5b505afa158015611d44573d6000803e3d6000fd5b505050506040513d601f19601f82011682018060405250810190611d689190615001565b6040518060400160405280601381526020016000805160206151be83398151915281525090611daa5760405162461bcd60e51b8152600401610b9b9190615023565b5067537472617465677960c01b600052603c60209081527f15bdd40257915f753934b43755984618aeb2ae4fff096845769c2bb729e989be546040805180820190915260168152751059191c995cdcc81a5cc8185b1c9958591e481cd95d60521b928101929092526001600160a01b031615611e395760405162461bcd60e51b8152600401610b9b9190615023565b506040805180820190915260188152771e995c9bc81859191c995cdcc81b9bdd08185b1b1bddd95960421b60208201526001600160a01b038316611e905760405162461bcd60e51b8152600401610b9b9190615023565b50611ea667537472617465677960c01b83613de6565b50611eaf613d72565b5060006001600160a01b0316826001600160a01b0316631fe4a6866040518163ffffffff1660e01b815260040160206040518083038186803b158015611ef457600080fd5b505afa158015611f08573d6000803e3d6000fd5b505050506040513d601f19601f82011682018060405250810190611f2c91906150d6565b6001600160a01b03161415604051806040016040528060188152602001771e995c9bc81859191c995cdcc81b9bdd08185b1b1bddd95960421b81525090611f865760405162461bcd60e51b8152600401610b9b9190615023565b50600192915050565b6000611055600583613e72565b6f2a30b933b2ba20b63637b1b0ba34b7b760811b600052603d6020527f0a3006de449e2f6da78c92d58370b3dd2ef3b1e1963fc373ed67d46ced02eb8f5490565b6c5374726174656769737446656560981b600052603d6020527f9991a201724620367b875943d3f1e2d8a65d067f05ccd6a37af85ae33cf679e95490565b681119589d131a5b5a5d60ba1b600052603d6020527fed35bbff007ae1d09677de3676c3cb1b0411569c4ab270913b3fb2a177a703195490565b64109bdd5b9960da1b600052603d6020527fcba6df5081839cab6ded1888d57f2772386c9d156438bb2faa7b07ec10c244705490565b6002546001600160a01b031633148061213157506120a76133ce565b6001600160a01b03166391d1485469676f7665726e616e636560b01b336040518363ffffffff1660e01b81526004016120e1929190614fea565b60206040518083038186803b1580156120f957600080fd5b505afa15801561210d573d6000803e3d6000fd5b505050506040513d601f19601f820116820180604052508101906121319190615001565b6040518060400160405280601381526020016000805160206151be833981519152815250906121735760405162461bcd60e51b8152600401610b9b9190615023565b5061217c613e87565b50600254612193906001600160a01b0316476137f5565b565b600061219f6133ce565b6001600160a01b03166391d1485469676f7665726e616e636560b01b336040518363ffffffff1660e01b81526004016121d9929190614fea565b60206040518083038186803b1580156121f157600080fd5b505afa158015612205573d6000803e3d6000fd5b505050506040513d601f19601f820116820180604052508101906122299190615001565b6040518060400160405280601381526020016000805160206151be8339815191528152509061226b5760405162461bcd60e51b8152600401610b9b9190615023565b50610a80695265736572766546656560b01b6133f2565b600061228c6133ce565b6001600160a01b03166391d1485469676f7665726e616e636560b01b336040518363ffffffff1660e01b81526004016122c6929190614fea565b60206040518083038186803b1580156122de57600080fd5b505afa1580156122f2573d6000803e3d6000fd5b505050506040513d601f19601f820116820180604052508101906123169190615001565b6040518060400160405280601381526020016000805160206151be833981519152815250906123585760405162461bcd60e51b8152600401610b9b9190615023565b50610a806c5374726174656769737446656560981b6133f2565b60008061238e6c5374726174656769737446656560981b61382b565b90506116d361239b6132cc565b82613499565b6060610a806005613f5e565b60006123b76133ce565b6001600160a01b03166391d1485469676f7665726e616e636560b01b336040518363ffffffff1660e01b81526004016123f1929190614fea565b60206040518083038186803b15801561240957600080fd5b505afa15801561241d573d6000803e3d6000fd5b505050506040513d601f19601f820116820180604052508101906124419190615001565b6040518060400160405280601381526020016000805160206151be833981519152815250906124835760405162461bcd60e51b8152600401610b9b9190615023565b50610a8067537472617465677960c01b61400d565b60006124ae67537472617465677960c01b6140bf565b60006124b8610a85565b90506001600160a01b0381161561265c576124d161390d565b50806001600160a01b031663fc0e74d16040518163ffffffff1660e01b8152600401602060405180830381600087803b15801561250d57600080fd5b505af1158015612521573d6000803e3d6000fd5b505050506040513d601f19601f820116820180604052508101906125459190615001565b50806001600160a01b031663853828b66040518163ffffffff1660e01b8152600401602060405180830381600087803b15801561258157600080fd5b505af1158015612595573d6000803e3d6000fd5b505050506040513d601f19601f820116820180604052508101906125b99190615078565b506000816001600160a01b031663b69ef8a86040518163ffffffff1660e01b815260040160206040518083038186803b1580156125f557600080fd5b505afa158015612609573d6000803e3d6000fd5b505050506040513d601f19601f8201168201806040525081019061262d9190615078565b9050801561265a5761264160058383614168565b50806001600082825461265491906150be565b90915550505b505b61266461353b565b506000808055600381905567537472617465677960c01b90819052603a6020527fa4caf68bc3013a9a5274c5d8968485ae05b8c28e9f50493f41acc96b22818c23546001600160a01b0316906126ba9082613de6565b506001600160a01b03811615611055576126d2613d72565b5092915050565b60006126e36133ce565b6001600160a01b03166391d1485469676f7665726e616e636560b01b336040518363ffffffff1660e01b815260040161271d929190614fea565b60206040518083038186803b15801561273557600080fd5b505afa158015612749573d6000803e3d6000fd5b505050506040513d601f19601f8201168201806040525081019061276d9190615001565b6040518060400160405280601381526020016000805160206151be833981519152815250906127af5760405162461bcd60e51b8152600401610b9b9190615023565b506110556f2a30b933b2ba20b63637b1b0ba34b7b760811b83613524565b60006127d76133ce565b6001600160a01b03166391d1485469676f7665726e616e636560b01b336040518363ffffffff1660e01b8152600401612811929190614fea565b60206040518083038186803b15801561282957600080fd5b505afa15801561283d573d6000803e3d6000fd5b505050506040513d601f19601f820116820180604052508101906128619190615001565b6040518060400160405280601381526020016000805160206151be833981519152815250906128a35760405162461bcd60e51b8152600401610b9b9190615023565b50610a8064109bdd5b9960da1b6133f2565b6002546000906001600160a01b031633148061295e57506128d46133ce565b6001600160a01b03166391d1485469676f7665726e616e636560b01b336040518363ffffffff1660e01b815260040161290e929190614fea565b60206040518083038186803b15801561292657600080fd5b505afa15801561293a573d6000803e3d6000fd5b505050506040513d601f19601f8201168201806040525081019061295e9190615001565b6040518060400160405280601381526020016000805160206151be833981519152815250906129a05760405162461bcd60e51b8152600401610b9b9190615023565b50610a80613e87565b60006129b36133ce565b6001600160a01b03166391d1485469676f7665726e616e636560b01b336040518363ffffffff1660e01b81526004016129ed929190614fea565b60206040518083038186803b158015612a0557600080fd5b505afa158015612a19573d6000803e3d6000fd5b505050506040513d601f19601f82011682018060405250810190612a3d9190615001565b6040518060400160405280601381526020016000805160206151be83398151915281525090612a7f5760405162461bcd60e51b8152600401610b9b9190615023565b5061105567537472617465677960c01b8362069780614186565b60004781612aa5610a85565b6001600160a01b03161415612ab957919050565b600060015460005483612acc91906150be565b612ad691906150be565b90508060035411612af557600354612aee90826150a7565b9250505090565b60009250505090565b6000612b086133ce565b6001600160a01b03166391d1485469676f7665726e616e636560b01b336040518363ffffffff1660e01b8152600401612b42929190614fea565b60206040518083038186803b158015612b5a57600080fd5b505afa158015612b6e573d6000803e3d6000fd5b505050506040513d601f19601f82011682018060405250810190612b929190615001565b6040518060400160405280601381526020016000805160206151be83398151915281525090612bd45760405162461bcd60e51b8152600401610b9b9190615023565b5060408051808201909152600e81526d1a5b9d985b1a5908185b5bdd5b9d60921b60208201526706f05b59d3b20000831115612c235760405162461bcd60e51b8152600401610b9b9190615023565b506110556d506572666f726d616e636546656560901b83613524565b6000806116c96f2a30b933b2ba20b63637b1b0ba34b7b760811b61382b565b6002546001600160a01b0316331480612d055750612c7a6133ce565b6001600160a01b03166391d148546a6d61696e74656e616e636560a81b336040518363ffffffff1660e01b8152600401612cb5929190614fea565b60206040518083038186803b158015612ccd57600080fd5b505afa158015612ce1573d6000803e3d6000fd5b505050506040513d601f19601f82011682018060405250810190612d059190615001565b6040518060400160405280601381526020016000805160206151be83398151915281525090612d475760405162461bcd60e51b8152600401610b9b9190615023565b5061219361384f565b600080612d69695265736572766546656560b01b61382b565b90506116d38161113e611fdd565b600080612d8f681119589d131a5b5a5d60ba1b61382b565b90506000612da88260005461359b90919063ffffffff16565b90508060035410612dbb57612dbb614203565b50919050565b6000612dcb6133ce565b6001600160a01b03166391d1485469676f7665726e616e636560b01b336040518363ffffffff1660e01b8152600401612e05929190614fea565b60206040518083038186803b158015612e1d57600080fd5b505afa158015612e31573d6000803e3d6000fd5b505050506040513d601f19601f82011682018060405250810190612e559190615001565b6040518060400160405280601381526020016000805160206151be83398151915281525090612e975760405162461bcd60e51b8152600401610b9b9190615023565b50610a806d506572666f726d616e636546656560901b6133f2565b6000612ebc6133ce565b6001600160a01b03166391d1485469676f7665726e616e636560b01b336040518363ffffffff1660e01b8152600401612ef6929190614fea565b60206040518083038186803b158015612f0e57600080fd5b505afa158015612f22573d6000803e3d6000fd5b505050506040513d601f19601f82011682018060405250810190612f469190615001565b6040518060400160405280601381526020016000805160206151be83398151915281525090612f885760405162461bcd60e51b8152600401610b9b9190615023565b50610a80681119589d131a5b5a5d60ba1b6133f2565b6000610a806d506572666f726d616e636546656560901b61382b565b60008080612fc9600585614220565b91509150816040518060400160405280601781526020017f537472617465677920646f6573206e6f74206578697374000000000000000000815250906130225760405162461bcd60e51b8152600401610b9b9190615023565b506000849050806001600160a01b0316634641257d6040518163ffffffff1660e01b8152600401602060405180830381600087803b15801561306357600080fd5b505af1158015613077573d6000803e3d6000fd5b505050506040513d601f19601f8201168201806040525081019061309b9190615078565b506000816001600160a01b031663853828b66040518163ffffffff1660e01b8152600401602060405180830381600087803b1580156130d957600080fd5b505af11580156130ed573d6000803e3d6000fd5b505050506040513d601f19601f820116820180604052508101906131119190615078565b600154909150808210613128576000600155613136565b61313282826150a7565b6001555b8382111561322157600061314a85846150a7565b9050600061316861316361315c611326565b849061359b565b614247565b905080156131ea576131ea81866001600160a01b0316631fe4a6866040518163ffffffff1660e01b815260040160206040518083038186803b1580156131ad57600080fd5b505afa1580156131c1573d6000803e3d6000fd5b505050506040513d601f19601f820116820180604052508101906131e591906150d6565b6142a7565b60405160009650869083907f6c8433a8e155f0af04dba058d4e4695f7da554578963d876bdf4a6d8d6399d9c908390a3505061322e565b61322b82856150a7565b93505b826001600160a01b031663b69ef8a86040518163ffffffff1660e01b815260040160206040518083038186803b15801561326757600080fd5b505afa15801561327b573d6000803e3d6000fd5b505050506040513d601f19601f8201168201806040525081019061329f9190615078565b6132b4576132ae600584614341565b506132c2565b6132c060058486614168565b505b5095945050505050565b695265736572766546656560b01b600052603d6020527fa61f8e25cb35ba15fc70bbd3ba789d53bf34a4deddb38a43a213af3182d35aae5490565b6040516321f8a72160e01b81526a3937b632a6b0b730b3b2b960a91b60048201526000906001600160a01b038316906321f8a721906024015b60206040518083038186803b15801561335857600080fd5b505afa15801561336c573d6000803e3d6000fd5b505050506040513d601f19601f8201168201806040525081019061105591906150d6565b6040516321f8a72160e01b81526b7661756c745265736572766560a01b60048201526000906001600160a01b038316906321f8a72190602401613340565b7f000000000000000000000000000000000000000000000000000000000000000090565b6000818152603e6020908152604080832054815180830190925260128252710646561646c696e65206d75737420626520360741b928201929092529061344b5760405162461bcd60e51b8152600401610b9b9190615023565b506000828152603e60209081526040808320839055603b9091528082208290555183917f90fb84ad67dd037c388289337bb80b61b8605d38ba9a875dc38b5600909d172f91a2506001919050565b670de0b6b3a76400006134ac82846150be565b11156135205760405162461bcd60e51b815260206004820152603760248201527f73756d206f6620737472617465676973742066656520616e642072657365727660448201527f65206665652073686f756c642062652062656c6f7720310000000000000000006064820152608401610b9b565b5050565b600061353483836203f480614356565b9392505050565b60045460009060ff1661354e5750600090565b6004805460ff19169055613560610a85565b6001600160a01b03167f274ec28d31430170ad5dd350f8e7505ffab078c309300878c710383ae4cbed4960405160405180910390a250600190565b6000670de0b6b3a76400006135b083856150f3565b6135349190615112565b6000818311156135d5576135ce82846150a7565b9050611055565b50600092915050565b60045460009060ff166135f357506000611055565b60006135fd611f9c565b90506000613609610a85565b90506000613615612055565b90506000613623878561359b565b90506000841561363c5761363783866150be565b61363f565b60005b9050670de0b6b3a764000081116136565780613660565b670de0b6b3a76400005b9050600085841161367a5761367584876150a7565b61367d565b60005b9050613689898361359b565b88111561372f57600061369c848a6150a7565b604051632e1a7d4d60e01b8152600481018290529091506001600160a01b03871690632e1a7d4d90602401602060405180830381600087803b1580156136e157600080fd5b505af11580156136f5573d6000803e3d6000fd5b505050506040513d601f19601f820116820180604052508101906137199190615001565b50613726600054826135ba565b600055506137e6565b613739898261359b565b8810156137e657600061374c89856150a7565b905061375886826137f5565b8060008082825461376991906150be565b92505081905550856001600160a01b031663d0e30db06040518163ffffffff1660e01b8152600401602060405180830381600087803b1580156137ab57600080fd5b505af11580156137bf573d6000803e3d6000fd5b505050506040513d601f19601f820116820180604052508101906137e39190615001565b50505b50600198975050505050505050565b6040516001600160a01b0383169082156108fc029083906000818181858888f19350505050158015610e5b573d6000803e3d6000fd5b6000613836826140bf565b6000828152603b60205260409020546126d283826143ac565b60045460ff1661385b57565b6000613865610a85565b6001600160a01b031663b69ef8a86040518163ffffffff1660e01b815260040160206040518083038186803b15801561389d57600080fd5b505afa1580156138b1573d6000803e3d6000fd5b505050506040513d601f19601f820116820180604052508101906138d59190615078565b90506000600154826138e44790565b6138ee91906150be565b6138f891906150be565b905080613903575050565b610e5b81836135de565b600080613918610a85565b90506001600160a01b03811661393057600091505090565b806001600160a01b0316634641257d6040518163ffffffff1660e01b8152600401602060405180830381600087803b15801561396b57600080fd5b505af115801561397f573d6000803e3d6000fd5b505050506040513d601f19601f820116820180604052508101906139a39190615078565b50600080826001600160a01b031663b69ef8a86040518163ffffffff1660e01b815260040160206040518083038186803b1580156139e057600080fd5b505afa1580156139f4573d6000803e3d6000fd5b505050506040513d601f19601f82011682018060405250810190613a189190615078565b6000546003549192509081831115613aa9576000613a3683856150a7565b905081811115613a69578115613a5757613a5082826150a7565b9050600091505b613a608161440d565b95509050613a76565b613a7381836150a7565b91505b60405160009082907f6c8433a8e155f0af04dba058d4e4695f7da554578963d876bdf4a6d8d6399d9c908390a350613b3a565b81831015613b2e576000613abd84846150a7565b9050613ac981836150be565b91506000613ad561201b565b90506000613ae3858361359b565b905080841115613af957613af6846144d1565b93505b60405183906000907f6c8433a8e155f0af04dba058d4e4695f7da554578963d876bdf4a6d8d6399d9c908290a3505050613b3a565b60019550505050505090565b80600381905550846001600160a01b031663b69ef8a86040518163ffffffff1660e01b815260040160206040518083038186803b158015613b7a57600080fd5b505afa158015613b8e573d6000803e3d6000fd5b505050506040513d601f19601f82011682018060405250810190613bb29190615078565b6000558315613b2e57613b2e846146fc565b60408051808201909152600e81526d1a5b9d985b1a5908185b5bdd5b9d60921b6020820152670de0b6b3a7640000841115613c125760405162461bcd60e51b8152600401610b9b9190615023565b5060408051808201909152600e81526d1a5b9d985b1a5908185b5bdd5b9d60921b6020820152670de0b6b3a7640000831115613c615760405162461bcd60e51b8152600401610b9b9190615023565b5060408051808201909152600e81526d1a5b9d985b1a5908185b5bdd5b9d60921b60208201526706f05b59d3b20000821115613cb05760405162461bcd60e51b8152600401610b9b9190615023565b50600280546001600160a01b0319166001600160a01b038616179055613ce2681119589d131a5b5a5d60ba1b846143ac565b50613d006f2a30b933b2ba20b63637b1b0ba34b7b760811b836143ac565b50613d1364109bdd5b9960da1b826143ac565b50613d32695265736572766546656560b01b662386f26fc100006143ac565b50613d556c5374726174656769737446656560981b67016345785d8a00006143ac565b50611bee6d506572666f726d616e636546656560901b60006143ac565b600080613d7d610a85565b90506001600160a01b038116613d9557600091505090565b6004805460ff191660011790556040516001600160a01b038216907f652f053fc39779b70b29678135ade972fcb79966fc68fcb77c996b1aa4fd9afb90600090a2613dde61384f565b600191505090565b6000828152603c6020908152604080832080546001600160a01b03198082166001600160a01b03888116918217909455603a86528487208054909216909155603e85528386208690558351929091168083529382015285917fc4a957706c639829ad54381b04930c464db6c7ffdc09d2b4b1acc9ee34fb926191015b60405180910390a2509092915050565b6000613534836001600160a01b038416614743565b600080613e92610a85565b90506001600160a01b038116613eaa57600091505090565b613eb261390d565b506000479050816001600160a01b031663853828b66040518163ffffffff1660e01b8152600401602060405180830381600087803b158015613ef357600080fd5b505af1158015613f07573d6000803e3d6000fd5b505050506040513d601f19601f82011682018060405250810190613f2b9190615078565b50476000613f3983836150a7565b9050613f47600054826135ba565b600055613f5261353b565b50600194505050505090565b60606000613f6b836147b3565b905060008167ffffffffffffffff811115613f8857613f88615134565b604051908082528060200260200182016040528015613fb1578160200160208202803683370190505b50905060005b8281101561400557613fc985826147be565b828281518110613fdb57613fdb61514a565b6001600160a01b039092166020928302919091019091015280613ffd81615160565b915050613fb7565b509392505050565b6000818152603e6020908152604080832054815180830190925260128252710646561646c696e65206d75737420626520360741b92820192909252906140665760405162461bcd60e51b8152600401610b9b9190615023565b506000828152603e60209081526040808320839055603a90915280822080546001600160a01b03191690555183917f90fb84ad67dd037c388289337bb80b61b8605d38ba9a875dc38b5600909d172f91a2506001919050565b6000603e6000838152602001908152602001600020549050804210156040518060600160405280602181526020016151de60219139906141125760405162461bcd60e51b8152600401610b9b9190615023565b5060408051808201909152600d81526c0646561646c696e65206973203609c1b6020820152816141555760405162461bcd60e51b8152600401610b9b9190615023565b50506000908152603e6020526040812055565b600061417e846001600160a01b038516846147d4565b949350505050565b600061419284836147f1565b6000848152603a602090815260409182902080546001600160a01b0319166001600160a01b038716908117909155825190815290810184905285917fd46e58ee9dc1ae703349f8c09c19f23213a531b4d57f00cfd4a5a6cb6519668d91015b60405180910390a25060019392505050565b6003546000614211826144d1565b90508082146135205760035550565b6000808080614238866001600160a01b0387166148cb565b909450925050505b9250929050565b60008061425561315c611fdd565b9050600061426b6142646132cc565b859061359b565b905060008161427a84876150a7565b61428491906150a7565b905061428f82614905565b801561429e5761429e816149a8565b50909392505050565b6001600160a01b0381166142b9575050565b6002546040516317a790f160e11b81526001600160a01b0383811660048301526024820185905290911690632f4f21e29084906044016020604051808303818588803b15801561430857600080fd5b505af115801561431c573d6000803e3d6000fd5b50505050506040513d601f19601f82011682018060405250810190610e5b9190615078565b6000613534836001600160a01b038416614a12565b600061436284836147f1565b6000848152603b6020908152604091829020859055815185815290810184905285917f0e6790002e78fb96ff1fdfe3a3bb2a86489d3f3923372c1fe5b6b1fed071eed491016141f1565b6000828152603d60209081526040808320805490859055603b8352818420849055603e835281842084905581518181529283018590529185917fcc0bafe2accb565ea70674bf4b2555e49a47d410fb9932dfab3e5f41855d0a2f9101613e62565b600080600061441d614264611326565b9050804710156144b05761442f610a85565b6001600160a01b0316632e1a7d4d826040518263ffffffff1660e01b815260040161445c91815260200190565b602060405180830381600087803b15801561447657600080fd5b505af115801561448a573d6000803e3d6000fd5b505050506040513d601f19601f820116820180604052508101906144ae9190615001565b505b60006144bb82614247565b90506144c782866150a7565b9590945092505050565b6000806001600160a01b037f00000000000000000000000000000000000000000000000000000000000000001663d4fac45d30836040516001600160e01b031960e085901b1681526001600160a01b0392831660048201529116602482015260440160206040518083038186803b15801561454b57600080fd5b505afa15801561455f573d6000803e3d6000fd5b505050506040513d601f19601f820116820180604052508101906145839190615078565b90508083111561459b5761459681614a2f565b6146f5565b60405163019262d360e41b81523060048201527f00000000000000000000000000000000000000000000000000000000000000006001600160a01b0316906319262d309060240160206040518083038186803b1580156145fa57600080fd5b505afa15801561460e573d6000803e3d6000fd5b505050506040513d601f19601f820116820180604052508101906146329190615001565b156146f5576001600160a01b037f00000000000000000000000000000000000000000000000000000000000000001663f3fef3a360006040516001600160e01b031960e084901b1681526001600160a01b03909116600482015260248101869052604401602060405180830381600087803b1580156146b057600080fd5b505af11580156146c4573d6000803e3d6000fd5b505050506040513d601f19601f820116820180604052508101906146e89190615001565b50600092506146f561384f565b5090919050565b61474081614708610a85565b6001600160a01b0316631fe4a6866040518163ffffffff1660e01b815260040160206040518083038186803b1580156131ad57600080fd5b50565b60008181526002830160205260408120548015158061476757506147678484614cdf565b6135345760405162461bcd60e51b815260206004820152601e60248201527f456e756d657261626c654d61703a206e6f6e6578697374656e74206b657900006044820152606401610b9b565b600061105582614ceb565b6000806147cb8484614cf6565b50949350505050565b6000828152600284016020526040812082905561417e8484614d05565b603e600083815260200190815260200160002054600014604051806040016040528060128152602001710646561646c696e65206d75737420626520360741b815250906148515760405162461bcd60e51b8152600401610b9b9190615023565b5060408051808201909152601881527f64656c6179206265206174206c6561737420332064617973000000000000000060208201526203f4808210156148aa5760405162461bcd60e51b8152600401610b9b9190615023565b506148b581426150be565b6000928352603e60205260409092209190915550565b60008181526002830160205260408120548190806148fa576148ed8585614cdf565b9250600091506142409050565b600192509050614240565b6040516311f9fbc960e21b815260006004820152602481018290527f00000000000000000000000000000000000000000000000000000000000000006001600160a01b0316906347e7ef249083906044016020604051808303818588803b15801561496f57600080fd5b505af1158015614983573d6000803e3d6000fd5b50505050506040513d601f19601f820116820180604052508101906135209190615001565b6149da7f00000000000000000000000000000000000000000000000000000000000000006001600160a01b0316614d11565b6001600160a01b03166108fc829081150290604051600060405180830381858888f19350505050158015613520573d6000803e3d6000fd5b600081815260028301602052604081208190556135348383614d4b565b6000614a39610a85565b6001600160a01b031663853828b66040518163ffffffff1660e01b8152600401602060405180830381600087803b158015614a7357600080fd5b505af1158015614a87573d6000803e3d6000fd5b505050506040513d601f19601f82011682018060405250810190614aab9190615078565b90506000614abb600054836135ba565b60405163019262d360e41b81523060048201529091507f00000000000000000000000000000000000000000000000000000000000000006001600160a01b0316906319262d309060240160206040518083038186803b158015614b1d57600080fd5b505afa158015614b31573d6000803e3d6000fd5b505050506040513d601f19601f82011682018060405250810190614b559190615001565b15614cd157808310614c18576001600160a01b037f00000000000000000000000000000000000000000000000000000000000000001663f3fef3a360006040516001600160e01b031960e084901b1681526001600160a01b03909116600482015260248101849052604401602060405180830381600087803b158015614bda57600080fd5b505af1158015614bee573d6000803e3d6000fd5b505050506040513d601f19601f82011682018060405250810190614c129190615001565b50614cd1565b8215614cd1576001600160a01b037f00000000000000000000000000000000000000000000000000000000000000001663f3fef3a360006040516001600160e01b031960e084901b1681526001600160a01b03909116600482015260248101869052604401602060405180830381600087803b158015614c9757600080fd5b505af1158015614cab573d6000803e3d6000fd5b505050506040513d601f19601f82011682018060405250810190614ccf9190615001565b505b614cd961353b565b50505050565b60006135348383614d57565b600061105582614d6f565b60008080806142388686614d79565b60006135348383614da4565b6040516321f8a72160e01b815267747265617375727960c01b60048201526000906001600160a01b038316906321f8a72190602401613340565b60006135348383614df3565b60008181526001830160205260408120541515613534565b6000611055825490565b60008080614d878585614ee6565b600081815260029690960160205260409095205494959350505050565b6000818152600183016020526040812054614deb57508154600181810184556000848152602080822090930184905584548482528286019093526040902091909155611055565b506000611055565b60008181526001830160205260408120548015614edc576000614e176001836150a7565b8554909150600090614e2b906001906150a7565b9050818114614e90576000866000018281548110614e4b57614e4b61514a565b9060005260206000200154905080876000018481548110614e6e57614e6e61514a565b6000918252602080832090910192909255918252600188019052604090208390555b8554869080614ea157614ea161517b565b600190038181906000526020600020016000905590558560010160008681526020019081526020016000206000905560019350505050611055565b6000915050611055565b600061353483836000826000018281548110614f0457614f0461514a565b9060005260206000200154905092915050565b600060208284031215614f2957600080fd5b5035919050565b6001600160a01b038116811461474057600080fd5b60008060008060808587031215614f5b57600080fd5b8435614f6681614f30565b966020860135965060408601359560600135945092505050565b600060208284031215614f9257600080fd5b813561353481614f30565b6020808252825182820181905260009190848201906040850190845b81811015614fde5783516001600160a01b031683529284019291840191600101614fb9565b50909695505050505050565b9182526001600160a01b0316602082015260400190565b60006020828403121561501357600080fd5b8151801515811461353457600080fd5b600060208083528351808285015260005b8181101561505057858101830151858201604001528201615034565b81811115615062576000604083870101525b50601f01601f1916929092016040019392505050565b60006020828403121561508a57600080fd5b5051919050565b634e487b7160e01b600052601160045260246000fd5b6000828210156150b9576150b9615091565b500390565b600082198211156150d1576150d1615091565b500190565b6000602082840312156150e857600080fd5b815161353481614f30565b600081600019048311821515161561510d5761510d615091565b500290565b60008261512f57634e487b7160e01b600052601260045260246000fd5b500490565b634e487b7160e01b600052604160045260246000fd5b634e487b7160e01b600052603260045260246000fd5b600060001982141561517457615174615091565b5060010190565b634e487b7160e01b600052603160045260246000fdfe506f6f6c206d7573742062652070617573656420746f2077697468647261772066726f6d2072657365727665756e617574686f72697a65642061636365737300000000000000000000000000646561646c696e6520686173206e6f74206265656e207265616368656420796574a2646970667358221220fc706e7436a7324f36c875278d8608814f2e5d3165c906971dbf304d8b43a28e64736f6c63430008090033","bytecodeSha1":"6f044583ac50091a846dff0da202c5053b1b39f8","compiler":{"evm_version":"london","optimizer":{"enabled":true,"runs":200},"version":"0.8.9+commit.e5eed63a"},"contractName":"EthVault","language":"Solidity","natspec":{"kind":"dev","methods":{"activateStrategy()":{"notice":"Activate the current strategy set for the vault.","returns":{"_0":"`true` if strategy has been activated"}},"deactivateStrategy()":{"notice":"Deactivates a strategy.","returns":{"_0":"`true` if strategy has been deactivated"}},"deposit()":{"notice":"Handles deposits from the liquidity pool"},"executeBound()":{"details":"Needs to be called after the update was prepraed. Fails if called before time delay is met.","notice":"Execute update of deviation bound for strategy allocation (with time delay enforced).","returns":{"_0":"New deviation bound."}},"executeDebtLimit()":{"details":"Needs to be called after the update was prepraed. Fails if called before time delay is met.","notice":"Execute update of debt limit (with time delay enforced).","returns":{"_0":"New debt limit."}},"executeNewStrategy()":{"details":"Needs to be called after the update was prepraed. Fails if called before time delay is met.","notice":"Execute strategy update (with time delay enforced).","returns":{"_0":"New strategy address."}},"executePerformanceFee()":{"details":"Needs to be called after the update was prepraed. Fails if called before time delay is met.","notice":"Execute update of performance fee (with time delay enforced).","returns":{"_0":"New performance fee."}},"executeReserveFee()":{"details":"Needs to be called after the update was prepraed. Fails if called before time delay is met.","notice":"Execute update of reserve fee (with time delay enforced).","returns":{"_0":"New reserve fee."}},"executeStrategistFee()":{"details":"Needs to be called after the update was prepraed. Fails if called before time delay is met.","notice":"Execute update of strategist fee (with time delay enforced).","returns":{"_0":"New strategist fee."}},"executeTargetAllocation()":{"details":"Needs to be called after the update was prepraed. Fails if called before time delay is met.","notice":"Execute update of target allocation (with time delay enforced).","returns":{"_0":"New target allocation."}},"getBound()":{"notice":"Returns the allowed symmetric bound for target allocation (e.g. +- 5%)"},"getDebtLimit()":{"notice":"The debt limit that the total debt of a strategy may not exceed."},"getPerformanceFee()":{"details":"The strategist is paid in LP tokens, while the remainder of the profit stays in the vault.      Default performance fee is set to 5% of harvested profits.","notice":"Returns the fee charged on a strategy's generated profits."},"getReserveFee()":{"notice":"Returns the percentage of the performance fee which is allocated to the vault reserve"},"getStrategistFee()":{"notice":"Returns the percentage of the performance fee that goes to the strategist."},"getTargetAllocation()":{"details":"this is to reduce gas costs. Withdrawals first come from idle funds and can therefore      avoid unnecessary gas costs.","notice":"The target percentage of total underlying funds to be allocated towards a strategy."},"getTotalUnderlying()":{"notice":"Computes the total underlying of the vault: idle funds + allocated funds - debt","returns":{"_0":"Total amount of underlying."}},"harvest()":{"details":"Harvesting adds profits to the vault's balance and deducts fees.  No performance fees are charged on profit used to repay debt.","notice":"Harvest profits from the vault's strategy.","returns":{"_0":"`true` if successful."}},"initializeStrategy(address)":{"details":"Bypasses the time delay, but can only be called if strategy is not set already.","notice":"Initializes the vault's strategy.","params":{"strategy_":"Address of the strategy."},"returns":{"_0":"`true` if successful."}},"prepareBound(uint256)":{"notice":"Prepare update of deviation bound for strategy allocation (with time delay enforced).","params":{"newBound":"New deviation bound for target allocation."},"returns":{"_0":"`true` if successful."}},"prepareDebtLimit(uint256)":{"notice":"Prepare update of debt limit (with time delay enforced).","params":{"newDebtLimit":"New debt limit."},"returns":{"_0":"`true` if successful."}},"prepareNewStrategy(address)":{"notice":"Prepare update of the vault's strategy (with time delay enforced).","params":{"newStrategy":"Address of the new strategy."},"returns":{"_0":"`true` if successful."}},"preparePerformanceFee(uint256)":{"notice":"Prepare update of performance fee (with time delay enforced).","params":{"newPerformanceFee":"New performance fee value."},"returns":{"_0":"`true` if successful."}},"prepareReserveFee(uint256)":{"notice":"Prepare update of reserve fee (with time delay enforced).","params":{"newReserveFee":"New reserve fee."},"returns":{"_0":"`true` if successful."}},"prepareStrategistFee(uint256)":{"notice":"Prepare update of strategist fee (with time delay enforced).","params":{"newStrategistFee":"New strategist fee value."},"returns":{"_0":"`true` if successful."}},"prepareTargetAllocation(uint256)":{"notice":"Prepare update of target allocation (with time delay enforced).","params":{"newTargetAllocation":"New target allocation."},"returns":{"_0":"`true` if successful."}},"withdraw(uint256)":{"details":"If the specified amount exceeds idle funds, an amount of funds is withdrawn      from the strategy such that it will achieve a target allocation for after the      amount has been withdrawn.","notice":"Withdraws specified amount of underlying from vault.","params":{"amount":"Amount to withdraw."},"returns":{"_0":"`true` if successful."}},"withdrawAll()":{"notice":"Withdraws all funds from vault and strategy and transfer them to the pool."},"withdrawAllFromStrategy()":{"details":"Harvests profits before withdrawing. Deactivates strategy after withdrawing.","notice":"Withdraws all funds from strategy to vault.","returns":{"_0":"`true` if successful."}},"withdrawFromReserve(uint256)":{"details":"Withdraws from reserve will cause a spike in pool exchange rate.  Pool deposits should be paused during this to prevent front running","notice":"Withdraws specified amount of underlying from reserve to vault.","params":{"amount":"Amount to withdraw."}},"withdrawFromStrategy(uint256)":{"notice":"Withdraws an amount of underlying from the strategy to the vault.","params":{"amount":"Amount of underlying to withdraw."},"returns":{"_0":"True if successful withdrawal."}}},"version":1},"opcodes":"PUSH1 0x80 PUSH1 0x40 MSTORE PUSH1 0x4 CALLDATASIZE LT PUSH2 0x3A5 JUMPI PUSH1 0x0 CALLDATALOAD PUSH1 0xE0 SHR DUP1 PUSH4 0x8E6AC89B GT PUSH2 0x1E7 JUMPI DUP1 PUSH4 0xC4BAED93 GT PUSH2 0x10D JUMPI DUP1 PUSH4 0xE3976EDF GT PUSH2 0xA0 JUMPI DUP1 PUSH4 0xF76C3399 GT PUSH2 0x6F JUMPI DUP1 PUSH4 0xF76C3399 EQ PUSH2 0x9E0 JUMPI DUP1 PUSH4 0xF77C4791 EQ PUSH2 0xA16 JUMPI DUP1 PUSH4 0xF95D9438 EQ PUSH2 0xA4A JUMPI DUP1 PUSH4 0xFC7B9C18 EQ PUSH2 0xA60 JUMPI PUSH1 0x0 DUP1 REVERT JUMPDEST DUP1 PUSH4 0xE3976EDF EQ PUSH2 0x960 JUMPI DUP1 PUSH4 0xF09B8FB1 EQ PUSH2 0x996 JUMPI DUP1 PUSH4 0xF1EEB9E6 EQ PUSH2 0x9AB JUMPI DUP1 PUSH4 0xF3E7FC80 EQ PUSH2 0x9CB JUMPI PUSH1 0x0 DUP1 REVERT JUMPDEST DUP1 PUSH4 0xD46A8478 GT PUSH2 0xDC JUMPI DUP1 PUSH4 0xD46A8478 EQ PUSH2 0x90C JUMPI DUP1 PUSH4 0xD583E659 EQ PUSH2 0x921 JUMPI DUP1 PUSH4 0xD698E2BB EQ PUSH2 0x936 JUMPI DUP1 PUSH4 0xD8AE7BF8 EQ PUSH2 0x94B JUMPI PUSH1 0x0 DUP1 REVERT JUMPDEST DUP1 PUSH4 0xC4BAED93 EQ PUSH2 0x89B JUMPI DUP1 PUSH4 0xC9FD9227 EQ PUSH2 0x8BB JUMPI DUP1 PUSH4 0xCD3293DE EQ PUSH2 0x8D0 JUMPI DUP1 PUSH4 0xD0E30DB0 EQ PUSH2 0x904 JUMPI PUSH1 0x0 DUP1 REVERT JUMPDEST DUP1 PUSH4 0xA852D3E0 GT PUSH2 0x185 JUMPI DUP1 PUSH4 0xAFF1B7E4 GT PUSH2 0x154 JUMPI DUP1 PUSH4 0xAFF1B7E4 EQ PUSH2 0x83F JUMPI DUP1 PUSH4 0xB40494E5 EQ PUSH2 0x86C JUMPI DUP1 PUSH4 0xBD2A8B07 EQ PUSH2 0x881 JUMPI DUP1 PUSH4 0xBDCA9165 EQ PUSH2 0x759 JUMPI PUSH1 0x0 DUP1 REVERT JUMPDEST DUP1 PUSH4 0xA852D3E0 EQ PUSH2 0x7D5 JUMPI DUP1 PUSH4 0xA966BC09 EQ PUSH2 0x7F5 JUMPI DUP1 PUSH4 0xADE10960 EQ PUSH2 0x80A JUMPI DUP1 PUSH4 0xAF2A8FFF EQ PUSH2 0x81F JUMPI PUSH1 0x0 DUP1 REVERT JUMPDEST DUP1 PUSH4 0x9816F473 GT PUSH2 0x1C1 JUMPI DUP1 PUSH4 0x9816F473 EQ PUSH2 0x775 JUMPI DUP1 PUSH4 0x9CF7FCC9 EQ PUSH2 0x789 JUMPI DUP1 PUSH4 0x9D711F3B EQ PUSH2 0x7AB JUMPI DUP1 PUSH4 0xA50EC876 EQ PUSH2 0x7C0 JUMPI PUSH1 0x0 DUP1 REVERT JUMPDEST DUP1 PUSH4 0x8E6AC89B EQ PUSH2 0x72F JUMPI DUP1 PUSH4 0x90F38918 EQ PUSH2 0x744 JUMPI DUP1 PUSH4 0x9407D08F EQ PUSH2 0x759 JUMPI PUSH1 0x0 DUP1 REVERT JUMPDEST DUP1 PUSH4 0x4278A673 GT PUSH2 0x2CC JUMPI DUP1 PUSH4 0x6F21CAC3 GT PUSH2 0x26A JUMPI DUP1 PUSH4 0x7FEF50DA GT PUSH2 0x239 JUMPI DUP1 PUSH4 0x7FEF50DA EQ PUSH2 0x6DA JUMPI DUP1 PUSH4 0x853828B6 EQ PUSH2 0x6EF JUMPI DUP1 PUSH4 0x890F5F83 EQ PUSH2 0x704 JUMPI DUP1 PUSH4 0x89EFCAAC EQ PUSH2 0x719 JUMPI PUSH1 0x0 DUP1 REVERT JUMPDEST DUP1 PUSH4 0x6F21CAC3 EQ PUSH2 0x67B JUMPI DUP1 PUSH4 0x779CE5A4 EQ PUSH2 0x69B JUMPI DUP1 PUSH4 0x798CF01D EQ PUSH2 0x6B0 JUMPI DUP1 PUSH4 0x7CD32A12 EQ PUSH2 0x6C5 JUMPI PUSH1 0x0 DUP1 REVERT JUMPDEST DUP1 PUSH4 0x4EC81AF1 GT PUSH2 0x2A6 JUMPI DUP1 PUSH4 0x4EC81AF1 EQ PUSH2 0x60F JUMPI DUP1 PUSH4 0x6741C1B9 EQ PUSH2 0x62F JUMPI DUP1 PUSH4 0x678CBCB5 EQ PUSH2 0x644 JUMPI DUP1 PUSH4 0x6D785CF3 EQ PUSH2 0x664 JUMPI PUSH1 0x0 DUP1 REVERT JUMPDEST DUP1 PUSH4 0x4278A673 EQ PUSH2 0x5BA JUMPI DUP1 PUSH4 0x4641257D EQ PUSH2 0x5DA JUMPI DUP1 PUSH4 0x48B19335 EQ PUSH2 0x5EF JUMPI PUSH1 0x0 DUP1 REVERT JUMPDEST DUP1 PUSH4 0x16F0115B GT PUSH2 0x344 JUMPI DUP1 PUSH4 0x2954018C GT PUSH2 0x313 JUMPI DUP1 PUSH4 0x2954018C EQ PUSH2 0x524 JUMPI DUP1 PUSH4 0x2E1A7D4D EQ PUSH2 0x558 JUMPI DUP1 PUSH4 0x32A894C1 EQ PUSH2 0x578 JUMPI DUP1 PUSH4 0x346A4A51 EQ PUSH2 0x58D JUMPI PUSH1 0x0 DUP1 REVERT JUMPDEST DUP1 PUSH4 0x16F0115B EQ PUSH2 0x4BA JUMPI DUP1 PUSH4 0x21401DD1 EQ PUSH2 0x4DA JUMPI DUP1 PUSH4 0x2182A5C4 EQ PUSH2 0x4EF JUMPI DUP1 PUSH4 0x235C3603 EQ PUSH2 0x50F JUMPI PUSH1 0x0 DUP1 REVERT JUMPDEST DUP1 PUSH4 0xEE43C20 GT PUSH2 0x380 JUMPI DUP1 PUSH4 0xEE43C20 EQ PUSH2 0x41A JUMPI DUP1 PUSH4 0xFE6CBCF EQ PUSH2 0x43F JUMPI DUP1 PUSH4 0x102A9126 EQ PUSH2 0x45F JUMPI DUP1 PUSH4 0x15DBFE62 EQ PUSH2 0x47F JUMPI PUSH1 0x0 DUP1 REVERT JUMPDEST DUP1 PUSH3 0x435DA5 EQ PUSH2 0x3B1 JUMPI DUP1 PUSH4 0x7DA0603 EQ PUSH2 0x3E3 JUMPI DUP1 PUSH4 0xA8BCDB9 EQ PUSH2 0x3F8 JUMPI PUSH1 0x0 DUP1 REVERT JUMPDEST CALLDATASIZE PUSH2 0x3AC JUMPI STOP JUMPDEST PUSH1 0x0 DUP1 REVERT JUMPDEST CALLVALUE DUP1 ISZERO PUSH2 0x3BD JUMPI PUSH1 0x0 DUP1 REVERT JUMPDEST POP PUSH2 0x3C6 PUSH2 0xA76 JUMP JUMPDEST PUSH1 0x40 MLOAD PUSH1 0x1 PUSH1 0x1 PUSH1 0xA0 SHL SUB SWAP1 SWAP2 AND DUP2 MSTORE PUSH1 0x20 ADD JUMPDEST PUSH1 0x40 MLOAD DUP1 SWAP2 SUB SWAP1 RETURN JUMPDEST CALLVALUE DUP1 ISZERO PUSH2 0x3EF JUMPI PUSH1 0x0 DUP1 REVERT JUMPDEST POP PUSH2 0x3C6 PUSH2 0xA85 JUMP JUMPDEST CALLVALUE DUP1 ISZERO PUSH2 0x404 JUMPI PUSH1 0x0 DUP1 REVERT JUMPDEST POP PUSH2 0x418 PUSH2 0x413 CALLDATASIZE PUSH1 0x4 PUSH2 0x4F17 JUMP JUMPDEST PUSH2 0xAC7 JUMP JUMPDEST STOP JUMPDEST CALLVALUE DUP1 ISZERO PUSH2 0x426 JUMPI PUSH1 0x0 DUP1 REVERT JUMPDEST POP PUSH2 0x42F PUSH2 0xE60 JUMP JUMPDEST PUSH1 0x40 MLOAD SWAP1 ISZERO ISZERO DUP2 MSTORE PUSH1 0x20 ADD PUSH2 0x3DA JUMP JUMPDEST CALLVALUE DUP1 ISZERO PUSH2 0x44B JUMPI PUSH1 0x0 DUP1 REVERT JUMPDEST POP PUSH2 0x42F PUSH2 0x45A CALLDATASIZE PUSH1 0x4 PUSH2 0x4F17 JUMP JUMPDEST PUSH2 0xF53 JUMP JUMPDEST CALLVALUE DUP1 ISZERO PUSH2 0x46B JUMPI PUSH1 0x0 DUP1 REVERT JUMPDEST POP PUSH2 0x42F PUSH2 0x47A CALLDATASIZE PUSH1 0x4 PUSH2 0x4F17 JUMP JUMPDEST PUSH2 0x105B JUMP JUMPDEST CALLVALUE DUP1 ISZERO PUSH2 0x48B JUMPI PUSH1 0x0 DUP1 REVERT JUMPDEST POP PUSH2 0x4AC PUSH2 0x49A CALLDATASIZE PUSH1 0x4 PUSH2 0x4F17 JUMP JUMPDEST PUSH1 0x3B PUSH1 0x20 MSTORE PUSH1 0x0 SWAP1 DUP2 MSTORE PUSH1 0x40 SWAP1 KECCAK256 SLOAD DUP2 JUMP JUMPDEST PUSH1 0x40 MLOAD SWAP1 DUP2 MSTORE PUSH1 0x20 ADD PUSH2 0x3DA JUMP JUMPDEST CALLVALUE DUP1 ISZERO PUSH2 0x4C6 JUMPI PUSH1 0x0 DUP1 REVERT JUMPDEST POP PUSH1 0x2 SLOAD PUSH2 0x3C6 SWAP1 PUSH1 0x1 PUSH1 0x1 PUSH1 0xA0 SHL SUB AND DUP2 JUMP JUMPDEST CALLVALUE DUP1 ISZERO PUSH2 0x4E6 JUMPI PUSH1 0x0 DUP1 REVERT JUMPDEST POP PUSH2 0x42F PUSH2 0x115A JUMP JUMPDEST CALLVALUE DUP1 ISZERO PUSH2 0x4FB JUMPI PUSH1 0x0 DUP1 REVERT JUMPDEST POP PUSH2 0x42F PUSH2 0x50A CALLDATASIZE PUSH1 0x4 PUSH2 0x4F17 JUMP JUMPDEST PUSH2 0x1239 JUMP JUMPDEST CALLVALUE DUP1 ISZERO PUSH2 0x51B JUMPI PUSH1 0x0 DUP1 REVERT JUMPDEST POP PUSH2 0x4AC PUSH2 0x1326 JUMP JUMPDEST CALLVALUE DUP1 ISZERO PUSH2 0x530 JUMPI PUSH1 0x0 DUP1 REVERT JUMPDEST POP PUSH2 0x3C6 PUSH32 0x0 DUP2 JUMP JUMPDEST CALLVALUE DUP1 ISZERO PUSH2 0x564 JUMPI PUSH1 0x0 DUP1 REVERT JUMPDEST POP PUSH2 0x42F PUSH2 0x573 CALLDATASIZE PUSH1 0x4 PUSH2 0x4F17 JUMP JUMPDEST PUSH2 0x1365 JUMP JUMPDEST CALLVALUE DUP1 ISZERO PUSH2 0x584 JUMPI PUSH1 0x0 DUP1 REVERT JUMPDEST POP PUSH2 0x4AC PUSH2 0x16B5 JUMP JUMPDEST CALLVALUE DUP1 ISZERO PUSH2 0x599 JUMPI PUSH1 0x0 DUP1 REVERT JUMPDEST POP PUSH2 0x4AC PUSH2 0x5A8 CALLDATASIZE PUSH1 0x4 PUSH2 0x4F17 JUMP JUMPDEST PUSH1 0x3E PUSH1 0x20 MSTORE PUSH1 0x0 SWAP1 DUP2 MSTORE PUSH1 0x40 SWAP1 KECCAK256 SLOAD DUP2 JUMP JUMPDEST CALLVALUE DUP1 ISZERO PUSH2 0x5C6 JUMPI PUSH1 0x0 DUP1 REVERT JUMPDEST POP PUSH2 0x42F PUSH2 0x5D5 CALLDATASIZE PUSH1 0x4 PUSH2 0x4F17 JUMP JUMPDEST PUSH2 0x16D8 JUMP JUMPDEST CALLVALUE DUP1 ISZERO PUSH2 0x5E6 JUMPI PUSH1 0x0 DUP1 REVERT JUMPDEST POP PUSH2 0x42F PUSH2 0x1810 JUMP JUMPDEST CALLVALUE DUP1 ISZERO PUSH2 0x5FB JUMPI PUSH1 0x0 DUP1 REVERT JUMPDEST POP PUSH2 0x42F PUSH2 0x60A CALLDATASIZE PUSH1 0x4 PUSH2 0x4F17 JUMP JUMPDEST PUSH2 0x1905 JUMP JUMPDEST CALLVALUE DUP1 ISZERO PUSH2 0x61B JUMPI PUSH1 0x0 DUP1 REVERT JUMPDEST POP PUSH2 0x418 PUSH2 0x62A CALLDATASIZE PUSH1 0x4 PUSH2 0x4F45 JUMP JUMPDEST PUSH2 0x1B2C JUMP JUMPDEST CALLVALUE DUP1 ISZERO PUSH2 0x63B JUMPI PUSH1 0x0 DUP1 REVERT JUMPDEST POP PUSH2 0x42F PUSH2 0x1BF5 JUMP JUMPDEST CALLVALUE DUP1 ISZERO PUSH2 0x650 JUMPI PUSH1 0x0 DUP1 REVERT JUMPDEST POP PUSH2 0x42F PUSH2 0x65F CALLDATASIZE PUSH1 0x4 PUSH2 0x4F80 JUMP JUMPDEST PUSH2 0x1CD4 JUMP JUMPDEST CALLVALUE DUP1 ISZERO PUSH2 0x670 JUMPI PUSH1 0x0 DUP1 REVERT JUMPDEST POP PUSH2 0x4AC PUSH3 0x69780 DUP2 JUMP JUMPDEST CALLVALUE DUP1 ISZERO PUSH2 0x687 JUMPI PUSH1 0x0 DUP1 REVERT JUMPDEST POP PUSH2 0x4AC PUSH2 0x696 CALLDATASIZE PUSH1 0x4 PUSH2 0x4F80 JUMP JUMPDEST PUSH2 0x1F8F JUMP JUMPDEST CALLVALUE DUP1 ISZERO PUSH2 0x6A7 JUMPI PUSH1 0x0 DUP1 REVERT JUMPDEST POP PUSH2 0x4AC PUSH2 0x1F9C JUMP JUMPDEST CALLVALUE DUP1 ISZERO PUSH2 0x6BC JUMPI PUSH1 0x0 DUP1 REVERT JUMPDEST POP PUSH2 0x4AC PUSH2 0x1FDD JUMP JUMPDEST CALLVALUE DUP1 ISZERO PUSH2 0x6D1 JUMPI PUSH1 0x0 DUP1 REVERT JUMPDEST POP PUSH2 0x4AC PUSH2 0x201B JUMP JUMPDEST CALLVALUE DUP1 ISZERO PUSH2 0x6E6 JUMPI PUSH1 0x0 DUP1 REVERT JUMPDEST POP PUSH2 0x4AC PUSH2 0x2055 JUMP JUMPDEST CALLVALUE DUP1 ISZERO PUSH2 0x6FB JUMPI PUSH1 0x0 DUP1 REVERT JUMPDEST POP PUSH2 0x418 PUSH2 0x208B JUMP JUMPDEST CALLVALUE DUP1 ISZERO PUSH2 0x710 JUMPI PUSH1 0x0 DUP1 REVERT JUMPDEST POP PUSH2 0x42F PUSH2 0x2195 JUMP JUMPDEST CALLVALUE DUP1 ISZERO PUSH2 0x725 JUMPI PUSH1 0x0 DUP1 REVERT JUMPDEST POP PUSH2 0x4AC PUSH1 0x1 SLOAD DUP2 JUMP JUMPDEST CALLVALUE DUP1 ISZERO PUSH2 0x73B JUMPI PUSH1 0x0 DUP1 REVERT JUMPDEST POP PUSH2 0x42F PUSH2 0x2282 JUMP JUMPDEST CALLVALUE DUP1 ISZERO PUSH2 0x750 JUMPI PUSH1 0x0 DUP1 REVERT JUMPDEST POP PUSH2 0x4AC PUSH2 0x2372 JUMP JUMPDEST CALLVALUE DUP1 ISZERO PUSH2 0x765 JUMPI PUSH1 0x0 DUP1 REVERT JUMPDEST POP PUSH2 0x4AC PUSH8 0x6F05B59D3B20000 DUP2 JUMP JUMPDEST CALLVALUE DUP1 ISZERO PUSH2 0x781 JUMPI PUSH1 0x0 DUP1 REVERT JUMPDEST POP PUSH1 0x0 PUSH2 0x3C6 JUMP JUMPDEST CALLVALUE DUP1 ISZERO PUSH2 0x795 JUMPI PUSH1 0x0 DUP1 REVERT JUMPDEST POP PUSH2 0x79E PUSH2 0x23A1 JUMP JUMPDEST PUSH1 0x40 MLOAD PUSH2 0x3DA SWAP2 SWAP1 PUSH2 0x4F9D JUMP JUMPDEST CALLVALUE DUP1 ISZERO PUSH2 0x7B7 JUMPI PUSH1 0x0 DUP1 REVERT JUMPDEST POP PUSH2 0x42F PUSH2 0x23AD JUMP JUMPDEST CALLVALUE DUP1 ISZERO PUSH2 0x7CC JUMPI PUSH1 0x0 DUP1 REVERT JUMPDEST POP PUSH2 0x3C6 PUSH2 0x2498 JUMP JUMPDEST CALLVALUE DUP1 ISZERO PUSH2 0x7E1 JUMPI PUSH1 0x0 DUP1 REVERT JUMPDEST POP PUSH2 0x42F PUSH2 0x7F0 CALLDATASIZE PUSH1 0x4 PUSH2 0x4F17 JUMP JUMPDEST PUSH2 0x26D9 JUMP JUMPDEST CALLVALUE DUP1 ISZERO PUSH2 0x801 JUMPI PUSH1 0x0 DUP1 REVERT JUMPDEST POP PUSH2 0x42F PUSH2 0x27CD JUMP JUMPDEST CALLVALUE DUP1 ISZERO PUSH2 0x816 JUMPI PUSH1 0x0 DUP1 REVERT JUMPDEST POP PUSH2 0x42F PUSH2 0x28B5 JUMP JUMPDEST CALLVALUE DUP1 ISZERO PUSH2 0x82B JUMPI PUSH1 0x0 DUP1 REVERT JUMPDEST POP PUSH2 0x42F PUSH2 0x83A CALLDATASIZE PUSH1 0x4 PUSH2 0x4F80 JUMP JUMPDEST PUSH2 0x29A9 JUMP JUMPDEST CALLVALUE DUP1 ISZERO PUSH2 0x84B JUMPI PUSH1 0x0 DUP1 REVERT JUMPDEST POP PUSH2 0x4AC PUSH2 0x85A CALLDATASIZE PUSH1 0x4 PUSH2 0x4F17 JUMP JUMPDEST PUSH1 0x3D PUSH1 0x20 MSTORE PUSH1 0x0 SWAP1 DUP2 MSTORE PUSH1 0x40 SWAP1 KECCAK256 SLOAD DUP2 JUMP JUMPDEST CALLVALUE DUP1 ISZERO PUSH2 0x878 JUMPI PUSH1 0x0 DUP1 REVERT JUMPDEST POP PUSH2 0x4AC PUSH2 0x2A99 JUMP JUMPDEST CALLVALUE DUP1 ISZERO PUSH2 0x88D JUMPI PUSH1 0x0 DUP1 REVERT JUMPDEST POP PUSH1 0x4 SLOAD PUSH2 0x42F SWAP1 PUSH1 0xFF AND DUP2 JUMP JUMPDEST CALLVALUE DUP1 ISZERO PUSH2 0x8A7 JUMPI PUSH1 0x0 DUP1 REVERT JUMPDEST POP PUSH2 0x42F PUSH2 0x8B6 CALLDATASIZE PUSH1 0x4 PUSH2 0x4F17 JUMP JUMPDEST PUSH2 0x2AFE JUMP JUMPDEST CALLVALUE DUP1 ISZERO PUSH2 0x8C7 JUMPI PUSH1 0x0 DUP1 REVERT JUMPDEST POP PUSH2 0x4AC PUSH2 0x2C3F JUMP JUMPDEST CALLVALUE DUP1 ISZERO PUSH2 0x8DC JUMPI PUSH1 0x0 DUP1 REVERT JUMPDEST POP PUSH2 0x3C6 PUSH32 0x0 DUP2 JUMP JUMPDEST PUSH2 0x418 PUSH2 0x2C5E JUMP JUMPDEST CALLVALUE DUP1 ISZERO PUSH2 0x918 JUMPI PUSH1 0x0 DUP1 REVERT JUMPDEST POP PUSH2 0x4AC PUSH2 0x2D50 JUMP JUMPDEST CALLVALUE DUP1 ISZERO PUSH2 0x92D JUMPI PUSH1 0x0 DUP1 REVERT JUMPDEST POP PUSH2 0x4AC PUSH2 0x2D77 JUMP JUMPDEST CALLVALUE DUP1 ISZERO PUSH2 0x942 JUMPI PUSH1 0x0 DUP1 REVERT JUMPDEST POP PUSH2 0x42F PUSH2 0x2DC1 JUMP JUMPDEST CALLVALUE DUP1 ISZERO PUSH2 0x957 JUMPI PUSH1 0x0 DUP1 REVERT JUMPDEST POP PUSH2 0x42F PUSH2 0x2EB2 JUMP JUMPDEST CALLVALUE DUP1 ISZERO PUSH2 0x96C JUMPI PUSH1 0x0 DUP1 REVERT JUMPDEST POP PUSH2 0x3C6 PUSH2 0x97B CALLDATASIZE PUSH1 0x4 PUSH2 0x4F17 JUMP JUMPDEST PUSH1 0x3A PUSH1 0x20 MSTORE PUSH1 0x0 SWAP1 DUP2 MSTORE PUSH1 0x40 SWAP1 KECCAK256 SLOAD PUSH1 0x1 PUSH1 0x1 PUSH1 0xA0 SHL SUB AND DUP2 JUMP JUMPDEST CALLVALUE DUP1 ISZERO PUSH2 0x9A2 JUMPI PUSH1 0x0 DUP1 REVERT JUMPDEST POP PUSH2 0x4AC PUSH2 0x2F9E JUMP JUMPDEST CALLVALUE DUP1 ISZERO PUSH2 0x9B7 JUMPI PUSH1 0x0 DUP1 REVERT JUMPDEST POP PUSH2 0x4AC PUSH2 0x9C6 CALLDATASIZE PUSH1 0x4 PUSH2 0x4F80 JUMP JUMPDEST PUSH2 0x2FBA JUMP JUMPDEST CALLVALUE DUP1 ISZERO PUSH2 0x9D7 JUMPI PUSH1 0x0 DUP1 REVERT JUMPDEST POP PUSH2 0x4AC PUSH2 0x32CC JUMP JUMPDEST CALLVALUE DUP1 ISZERO PUSH2 0x9EC JUMPI PUSH1 0x0 DUP1 REVERT JUMPDEST POP PUSH2 0x3C6 PUSH2 0x9FB CALLDATASIZE PUSH1 0x4 PUSH2 0x4F17 JUMP JUMPDEST PUSH1 0x3C PUSH1 0x20 MSTORE PUSH1 0x0 SWAP1 DUP2 MSTORE PUSH1 0x40 SWAP1 KECCAK256 SLOAD PUSH1 0x1 PUSH1 0x1 PUSH1 0xA0 SHL SUB AND DUP2 JUMP JUMPDEST CALLVALUE DUP1 ISZERO PUSH2 0xA22 JUMPI PUSH1 0x0 DUP1 REVERT JUMPDEST POP PUSH2 0x3C6 PUSH32 0x0 DUP2 JUMP JUMPDEST CALLVALUE DUP1 ISZERO PUSH2 0xA56 JUMPI PUSH1 0x0 DUP1 REVERT JUMPDEST POP PUSH2 0x4AC PUSH1 0x0 SLOAD DUP2 JUMP JUMPDEST CALLVALUE DUP1 ISZERO PUSH2 0xA6C JUMPI PUSH1 0x0 DUP1 REVERT JUMPDEST POP PUSH2 0x4AC PUSH1 0x3 SLOAD DUP2 JUMP JUMPDEST PUSH1 0x0 PUSH2 0xA80 PUSH2 0x33CE JUMP JUMPDEST SWAP1 POP SWAP1 JUMP JUMPDEST PUSH8 0x5374726174656779 PUSH1 0xC0 SHL PUSH1 0x0 MSTORE PUSH1 0x3C PUSH1 0x20 MSTORE PUSH32 0x15BDD40257915F753934B43755984618AEB2AE4FFF096845769C2BB729E989BE SLOAD PUSH1 0x1 PUSH1 0x1 PUSH1 0xA0 SHL SUB AND SWAP1 JUMP JUMPDEST PUSH2 0xACF PUSH2 0x33CE JUMP JUMPDEST PUSH1 0x1 PUSH1 0x1 PUSH1 0xA0 SHL SUB AND PUSH4 0x91D14854 PUSH10 0x676F7665726E616E6365 PUSH1 0xB0 SHL CALLER PUSH1 0x40 MLOAD DUP4 PUSH4 0xFFFFFFFF AND PUSH1 0xE0 SHL DUP2 MSTORE PUSH1 0x4 ADD PUSH2 0xB09 SWAP3 SWAP2 SWAP1 PUSH2 0x4FEA JUMP JUMPDEST PUSH1 0x20 PUSH1 0x40 MLOAD DUP1 DUP4 SUB DUP2 DUP7 DUP1 EXTCODESIZE ISZERO DUP1 ISZERO PUSH2 0xB21 JUMPI PUSH1 0x0 DUP1 REVERT JUMPDEST POP GAS STATICCALL ISZERO DUP1 ISZERO PUSH2 0xB35 JUMPI RETURNDATASIZE PUSH1 0x0 DUP1 RETURNDATACOPY RETURNDATASIZE PUSH1 0x0 REVERT JUMPDEST POP POP POP POP PUSH1 0x40 MLOAD RETURNDATASIZE PUSH1 0x1F NOT PUSH1 0x1F DUP3 ADD AND DUP3 ADD DUP1 PUSH1 0x40 MSTORE POP DUP2 ADD SWAP1 PUSH2 0xB59 SWAP2 SWAP1 PUSH2 0x5001 JUMP JUMPDEST PUSH1 0x40 MLOAD DUP1 PUSH1 0x40 ADD PUSH1 0x40 MSTORE DUP1 PUSH1 0x13 DUP2 MSTORE PUSH1 0x20 ADD PUSH1 0x0 DUP1 MLOAD PUSH1 0x20 PUSH2 0x51BE DUP4 CODECOPY DUP2 MLOAD SWAP2 MSTORE DUP2 MSTORE POP SWAP1 PUSH2 0xBA4 JUMPI PUSH1 0x40 MLOAD PUSH3 0x461BCD PUSH1 0xE5 SHL DUP2 MSTORE PUSH1 0x4 ADD PUSH2 0xB9B SWAP2 SWAP1 PUSH2 0x5023 JUMP JUMPDEST PUSH1 0x40 MLOAD DUP1 SWAP2 SUB SWAP1 REVERT JUMPDEST POP PUSH1 0x40 DUP1 MLOAD DUP1 DUP3 ADD SWAP1 SWAP2 MSTORE PUSH1 0xE DUP2 MSTORE PUSH14 0x1A5B9D985B1A5908185B5BDD5B9D PUSH1 0x92 SHL PUSH1 0x20 DUP3 ADD MSTORE DUP2 PUSH2 0xBE8 JUMPI PUSH1 0x40 MLOAD PUSH3 0x461BCD PUSH1 0xE5 SHL DUP2 MSTORE PUSH1 0x4 ADD PUSH2 0xB9B SWAP2 SWAP1 PUSH2 0x5023 JUMP JUMPDEST POP PUSH1 0x2 PUSH1 0x0 SWAP1 SLOAD SWAP1 PUSH2 0x100 EXP SWAP1 DIV PUSH1 0x1 PUSH1 0x1 PUSH1 0xA0 SHL SUB AND PUSH1 0x1 PUSH1 0x1 PUSH1 0xA0 SHL SUB AND PUSH4 0xB187BD26 PUSH1 0x40 MLOAD DUP2 PUSH4 0xFFFFFFFF AND PUSH1 0xE0 SHL DUP2 MSTORE PUSH1 0x4 ADD PUSH1 0x20 PUSH1 0x40 MLOAD DUP1 DUP4 SUB DUP2 DUP7 DUP1 EXTCODESIZE ISZERO DUP1 ISZERO PUSH2 0xC37 JUMPI PUSH1 0x0 DUP1 REVERT JUMPDEST POP GAS STATICCALL ISZERO DUP1 ISZERO PUSH2 0xC4B JUMPI RETURNDATASIZE PUSH1 0x0 DUP1 RETURNDATACOPY RETURNDATASIZE PUSH1 0x0 REVERT JUMPDEST POP POP POP POP PUSH1 0x40 MLOAD RETURNDATASIZE PUSH1 0x1F NOT PUSH1 0x1F DUP3 ADD AND DUP3 ADD DUP1 PUSH1 0x40 MSTORE POP DUP2 ADD SWAP1 PUSH2 0xC6F SWAP2 SWAP1 PUSH2 0x5001 JUMP JUMPDEST PUSH1 0x40 MLOAD DUP1 PUSH1 0x60 ADD PUSH1 0x40 MSTORE DUP1 PUSH1 0x2C DUP2 MSTORE PUSH1 0x20 ADD PUSH2 0x5192 PUSH1 0x2C SWAP2 CODECOPY SWAP1 PUSH2 0xCA6 JUMPI PUSH1 0x40 MLOAD PUSH3 0x461BCD PUSH1 0xE5 SHL DUP2 MSTORE PUSH1 0x4 ADD PUSH2 0xB9B SWAP2 SWAP1 PUSH2 0x5023 JUMP JUMPDEST POP PUSH1 0x0 PUSH1 0x1 PUSH1 0x1 PUSH1 0xA0 SHL SUB PUSH32 0x0 AND PUSH4 0xD4FAC45D ADDRESS DUP4 PUSH1 0x40 MLOAD PUSH1 0x1 PUSH1 0x1 PUSH1 0xE0 SHL SUB NOT PUSH1 0xE0 DUP6 SWAP1 SHL AND DUP2 MSTORE PUSH1 0x1 PUSH1 0x1 PUSH1 0xA0 SHL SUB SWAP3 DUP4 AND PUSH1 0x4 DUP3 ADD MSTORE SWAP2 AND PUSH1 0x24 DUP3 ADD MSTORE PUSH1 0x44 ADD PUSH1 0x20 PUSH1 0x40 MLOAD DUP1 DUP4 SUB DUP2 DUP7 DUP1 EXTCODESIZE ISZERO DUP1 ISZERO PUSH2 0xD20 JUMPI PUSH1 0x0 DUP1 REVERT JUMPDEST POP GAS STATICCALL ISZERO DUP1 ISZERO PUSH2 0xD34 JUMPI RETURNDATASIZE PUSH1 0x0 DUP1 RETURNDATACOPY RETURNDATASIZE PUSH1 0x0 REVERT JUMPDEST POP POP POP POP PUSH1 0x40 MLOAD RETURNDATASIZE PUSH1 0x1F NOT PUSH1 0x1F DUP3 ADD AND DUP3 ADD DUP1 PUSH1 0x40 MSTORE POP DUP2 ADD SWAP1 PUSH2 0xD58 SWAP2 SWAP1 PUSH2 0x5078 JUMP JUMPDEST SWAP1 POP DUP1 DUP3 GT ISZERO PUSH1 0x40 MLOAD DUP1 PUSH1 0x40 ADD PUSH1 0x40 MSTORE DUP1 PUSH1 0x14 DUP2 MSTORE PUSH1 0x20 ADD PUSH20 0x696E73756666696369656E742062616C616E6365 PUSH1 0x60 SHL DUP2 MSTORE POP SWAP1 PUSH2 0xDA9 JUMPI PUSH1 0x40 MLOAD PUSH3 0x461BCD PUSH1 0xE5 SHL DUP2 MSTORE PUSH1 0x4 ADD PUSH2 0xB9B SWAP2 SWAP1 PUSH2 0x5023 JUMP JUMPDEST POP PUSH1 0x1 PUSH1 0x1 PUSH1 0xA0 SHL SUB PUSH32 0x0 AND PUSH4 0xF3FEF3A3 PUSH1 0x0 PUSH1 0x40 MLOAD PUSH1 0x1 PUSH1 0x1 PUSH1 0xE0 SHL SUB NOT PUSH1 0xE0 DUP5 SWAP1 SHL AND DUP2 MSTORE PUSH1 0x1 PUSH1 0x1 PUSH1 0xA0 SHL SUB SWAP1 SWAP2 AND PUSH1 0x4 DUP3 ADD MSTORE PUSH1 0x24 DUP2 ADD DUP6 SWAP1 MSTORE PUSH1 0x44 ADD PUSH1 0x20 PUSH1 0x40 MLOAD DUP1 DUP4 SUB DUP2 PUSH1 0x0 DUP8 DUP1 EXTCODESIZE ISZERO DUP1 ISZERO PUSH2 0xE23 JUMPI PUSH1 0x0 DUP1 REVERT JUMPDEST POP GAS CALL ISZERO DUP1 ISZERO PUSH2 0xE37 JUMPI RETURNDATASIZE PUSH1 0x0 DUP1 RETURNDATACOPY RETURNDATASIZE PUSH1 0x0 REVERT JUMPDEST POP POP POP POP PUSH1 0x40 MLOAD RETURNDATASIZE PUSH1 0x1F NOT PUSH1 0x1F DUP3 ADD AND DUP3 ADD DUP1 PUSH1 0x40 MSTORE POP DUP2 ADD SWAP1 PUSH2 0xE5B SWAP2 SWAP1 PUSH2 0x5001 JUMP JUMPDEST POP POP POP JUMP JUMPDEST PUSH1 0x0 PUSH2 0xE6A PUSH2 0x33CE JUMP JUMPDEST PUSH1 0x1 PUSH1 0x1 PUSH1 0xA0 SHL SUB AND PUSH4 0x91D14854 PUSH10 0x676F7665726E616E6365 PUSH1 0xB0 SHL CALLER PUSH1 0x40 MLOAD DUP4 PUSH4 0xFFFFFFFF AND PUSH1 0xE0 SHL DUP2 MSTORE PUSH1 0x4 ADD PUSH2 0xEA4 SWAP3 SWAP2 SWAP1 PUSH2 0x4FEA JUMP JUMPDEST PUSH1 0x20 PUSH1 0x40 MLOAD DUP1 DUP4 SUB DUP2 DUP7 DUP1 EXTCODESIZE ISZERO DUP1 ISZERO PUSH2 0xEBC JUMPI PUSH1 0x0 DUP1 REVERT JUMPDEST POP GAS STATICCALL ISZERO DUP1 ISZERO PUSH2 0xED0 JUMPI RETURNDATASIZE PUSH1 0x0 DUP1 RETURNDATACOPY RETURNDATASIZE PUSH1 0x0 REVERT JUMPDEST POP POP POP POP PUSH1 0x40 MLOAD RETURNDATASIZE PUSH1 0x1F NOT PUSH1 0x1F DUP3 ADD AND DUP3 ADD DUP1 PUSH1 0x40 MSTORE POP DUP2 ADD SWAP1 PUSH2 0xEF4 SWAP2 SWAP1 PUSH2 0x5001 JUMP JUMPDEST PUSH1 0x40 MLOAD DUP1 PUSH1 0x40 ADD PUSH1 0x40 MSTORE DUP1 PUSH1 0x13 DUP2 MSTORE PUSH1 0x20 ADD PUSH1 0x0 DUP1 MLOAD PUSH1 0x20 PUSH2 0x51BE DUP4 CODECOPY DUP2 MLOAD SWAP2 MSTORE DUP2 MSTORE POP SWAP1 PUSH2 0xF36 JUMPI PUSH1 0x40 MLOAD PUSH3 0x461BCD PUSH1 0xE5 SHL DUP2 MSTORE PUSH1 0x4 ADD PUSH2 0xB9B SWAP2 SWAP1 PUSH2 0x5023 JUMP JUMPDEST POP PUSH2 0xA80 PUSH16 0x2A30B933B2BA20B63637B1B0BA34B7B7 PUSH1 0x81 SHL PUSH2 0x33F2 JUMP JUMPDEST PUSH1 0x0 PUSH2 0xF5D PUSH2 0x33CE JUMP JUMPDEST PUSH1 0x1 PUSH1 0x1 PUSH1 0xA0 SHL SUB AND PUSH4 0x91D14854 PUSH10 0x676F7665726E616E6365 PUSH1 0xB0 SHL CALLER PUSH1 0x40 MLOAD DUP4 PUSH4 0xFFFFFFFF AND PUSH1 0xE0 SHL DUP2 MSTORE PUSH1 0x4 ADD PUSH2 0xF97 SWAP3 SWAP2 SWAP1 PUSH2 0x4FEA JUMP JUMPDEST PUSH1 0x20 PUSH1 0x40 MLOAD DUP1 DUP4 SUB DUP2 DUP7 DUP1 EXTCODESIZE ISZERO DUP1 ISZERO PUSH2 0xFAF JUMPI PUSH1 0x0 DUP1 REVERT JUMPDEST POP GAS STATICCALL ISZERO DUP1 ISZERO PUSH2 0xFC3 JUMPI RETURNDATASIZE PUSH1 0x0 DUP1 RETURNDATACOPY RETURNDATASIZE PUSH1 0x0 REVERT JUMPDEST POP POP POP POP PUSH1 0x40 MLOAD RETURNDATASIZE PUSH1 0x1F NOT PUSH1 0x1F DUP3 ADD AND DUP3 ADD DUP1 PUSH1 0x40 MSTORE POP DUP2 ADD SWAP1 PUSH2 0xFE7 SWAP2 SWAP1 PUSH2 0x5001 JUMP JUMPDEST PUSH1 0x40 MLOAD DUP1 PUSH1 0x40 ADD PUSH1 0x40 MSTORE DUP1 PUSH1 0x13 DUP2 MSTORE PUSH1 0x20 ADD PUSH1 0x0 DUP1 MLOAD PUSH1 0x20 PUSH2 0x51BE DUP4 CODECOPY DUP2 MLOAD SWAP2 MSTORE DUP2 MSTORE POP SWAP1 PUSH2 0x1029 JUMPI PUSH1 0x40 MLOAD PUSH3 0x461BCD PUSH1 0xE5 SHL DUP2 MSTORE PUSH1 0x4 ADD PUSH2 0xB9B SWAP2 SWAP1 PUSH2 0x5023 JUMP JUMPDEST POP PUSH2 0x103B PUSH2 0x1035 PUSH2 0x32CC JUMP JUMPDEST DUP4 PUSH2 0x3499 JUMP JUMPDEST PUSH2 0x1055 PUSH13 0x53747261746567697374466565 PUSH1 0x98 SHL DUP4 PUSH2 0x3524 JUMP JUMPDEST SWAP3 SWAP2 POP POP JUMP JUMPDEST PUSH1 0x0 PUSH2 0x1065 PUSH2 0x33CE JUMP JUMPDEST PUSH1 0x1 PUSH1 0x1 PUSH1 0xA0 SHL SUB AND PUSH4 0x91D14854 PUSH10 0x676F7665726E616E6365 PUSH1 0xB0 SHL CALLER PUSH1 0x40 MLOAD DUP4 PUSH4 0xFFFFFFFF AND PUSH1 0xE0 SHL DUP2 MSTORE PUSH1 0x4 ADD PUSH2 0x109F SWAP3 SWAP2 SWAP1 PUSH2 0x4FEA JUMP JUMPDEST PUSH1 0x20 PUSH1 0x40 MLOAD DUP1 DUP4 SUB DUP2 DUP7 DUP1 EXTCODESIZE ISZERO DUP1 ISZERO PUSH2 0x10B7 JUMPI PUSH1 0x0 DUP1 REVERT JUMPDEST POP GAS STATICCALL ISZERO DUP1 ISZERO PUSH2 0x10CB JUMPI RETURNDATASIZE PUSH1 0x0 DUP1 RETURNDATACOPY RETURNDATASIZE PUSH1 0x0 REVERT JUMPDEST POP POP POP POP PUSH1 0x40 MLOAD RETURNDATASIZE PUSH1 0x1F NOT PUSH1 0x1F DUP3 ADD AND DUP3 ADD DUP1 PUSH1 0x40 MSTORE POP DUP2 ADD SWAP1 PUSH2 0x10EF SWAP2 SWAP1 PUSH2 0x5001 JUMP JUMPDEST PUSH1 0x40 MLOAD DUP1 PUSH1 0x40 ADD PUSH1 0x40 MSTORE DUP1 PUSH1 0x13 DUP2 MSTORE PUSH1 0x20 ADD PUSH1 0x0 DUP1 MLOAD PUSH1 0x20 PUSH2 0x51BE DUP4 CODECOPY DUP2 MLOAD SWAP2 MSTORE DUP2 MSTORE POP SWAP1 PUSH2 0x1131 JUMPI PUSH1 0x40 MLOAD PUSH3 0x461BCD PUSH1 0xE5 SHL DUP2 MSTORE PUSH1 0x4 ADD PUSH2 0xB9B SWAP2 SWAP1 PUSH2 0x5023 JUMP JUMPDEST POP PUSH2 0x1143 DUP3 PUSH2 0x113E PUSH2 0x1FDD JUMP JUMPDEST PUSH2 0x3499 JUMP JUMPDEST PUSH2 0x1055 PUSH10 0x52657365727665466565 PUSH1 0xB0 SHL DUP4 PUSH2 0x3524 JUMP JUMPDEST PUSH1 0x0 PUSH2 0x1164 PUSH2 0x33CE JUMP JUMPDEST PUSH1 0x1 PUSH1 0x1 PUSH1 0xA0 SHL SUB AND PUSH4 0x91D14854 PUSH10 0x676F7665726E616E6365 PUSH1 0xB0 SHL CALLER PUSH1 0x40 MLOAD DUP4 PUSH4 0xFFFFFFFF AND PUSH1 0xE0 SHL DUP2 MSTORE PUSH1 0x4 ADD PUSH2 0x119E SWAP3 SWAP2 SWAP1 PUSH2 0x4FEA JUMP JUMPDEST PUSH1 0x20 PUSH1 0x40 MLOAD DUP1 DUP4 SUB DUP2 DUP7 DUP1 EXTCODESIZE ISZERO DUP1 ISZERO PUSH2 0x11B6 JUMPI PUSH1 0x0 DUP1 REVERT JUMPDEST POP GAS STATICCALL ISZERO DUP1 ISZERO PUSH2 0x11CA JUMPI RETURNDATASIZE PUSH1 0x0 DUP1 RETURNDATACOPY RETURNDATASIZE PUSH1 0x0 REVERT JUMPDEST POP POP POP POP PUSH1 0x40 MLOAD RETURNDATASIZE PUSH1 0x1F NOT PUSH1 0x1F DUP3 ADD AND DUP3 ADD DUP1 PUSH1 0x40 MSTORE POP DUP2 ADD SWAP1 PUSH2 0x11EE SWAP2 SWAP1 PUSH2 0x5001 JUMP JUMPDEST PUSH1 0x40 MLOAD DUP1 PUSH1 0x40 ADD PUSH1 0x40 MSTORE DUP1 PUSH1 0x13 DUP2 MSTORE PUSH1 0x20 ADD PUSH1 0x0 DUP1 MLOAD PUSH1 0x20 PUSH2 0x51BE DUP4 CODECOPY DUP2 MLOAD SWAP2 MSTORE DUP2 MSTORE POP SWAP1 PUSH2 0x1230 JUMPI PUSH1 0x40 MLOAD PUSH3 0x461BCD PUSH1 0xE5 SHL DUP2 MSTORE PUSH1 0x4 ADD PUSH2 0xB9B SWAP2 SWAP1 PUSH2 0x5023 JUMP JUMPDEST POP PUSH2 0xA80 PUSH2 0x353B JUMP JUMPDEST PUSH1 0x0 PUSH2 0x1243 PUSH2 0x33CE JUMP JUMPDEST PUSH1 0x1 PUSH1 0x1 PUSH1 0xA0 SHL SUB AND PUSH4 0x91D14854 PUSH10 0x676F7665726E616E6365 PUSH1 0xB0 SHL CALLER PUSH1 0x40 MLOAD DUP4 PUSH4 0xFFFFFFFF AND PUSH1 0xE0 SHL DUP2 MSTORE PUSH1 0x4 ADD PUSH2 0x127D SWAP3 SWAP2 SWAP1 PUSH2 0x4FEA JUMP JUMPDEST PUSH1 0x20 PUSH1 0x40 MLOAD DUP1 DUP4 SUB DUP2 DUP7 DUP1 EXTCODESIZE ISZERO DUP1 ISZERO PUSH2 0x1295 JUMPI PUSH1 0x0 DUP1 REVERT JUMPDEST POP GAS STATICCALL ISZERO DUP1 ISZERO PUSH2 0x12A9 JUMPI RETURNDATASIZE PUSH1 0x0 DUP1 RETURNDATACOPY RETURNDATASIZE PUSH1 0x0 REVERT JUMPDEST POP POP POP POP PUSH1 0x40 MLOAD RETURNDATASIZE PUSH1 0x1F NOT PUSH1 0x1F DUP3 ADD AND DUP3 ADD DUP1 PUSH1 0x40 MSTORE POP DUP2 ADD SWAP1 PUSH2 0x12CD SWAP2 SWAP1 PUSH2 0x5001 JUMP JUMPDEST PUSH1 0x40 MLOAD DUP1 PUSH1 0x40 ADD PUSH1 0x40 MSTORE DUP1 PUSH1 0x13 DUP2 MSTORE PUSH1 0x20 ADD PUSH1 0x0 DUP1 MLOAD PUSH1 0x20 PUSH2 0x51BE DUP4 CODECOPY DUP2 MLOAD SWAP2 MSTORE DUP2 MSTORE POP SWAP1 PUSH2 0x130F JUMPI PUSH1 0x40 MLOAD PUSH3 0x461BCD PUSH1 0xE5 SHL DUP2 MSTORE PUSH1 0x4 ADD PUSH2 0xB9B SWAP2 SWAP1 PUSH2 0x5023 JUMP JUMPDEST POP PUSH2 0x1055 PUSH9 0x1119589D131A5B5A5D PUSH1 0xBA SHL DUP4 PUSH2 0x3524 JUMP JUMPDEST PUSH14 0x506572666F726D616E6365466565 PUSH1 0x90 SHL PUSH1 0x0 MSTORE PUSH1 0x3D PUSH1 0x20 MSTORE PUSH32 0xBADB955F4A57BAA7811ABC9BCD6809EB9D3B80456CAE1A7EA27F30FDDFD0C0A6 SLOAD SWAP1 JUMP JUMPDEST PUSH1 0x2 SLOAD PUSH1 0x0 SWAP1 PUSH1 0x1 PUSH1 0x1 PUSH1 0xA0 SHL SUB AND CALLER EQ DUP1 PUSH2 0x140E JUMPI POP PUSH2 0x1384 PUSH2 0x33CE JUMP JUMPDEST PUSH1 0x1 PUSH1 0x1 PUSH1 0xA0 SHL SUB AND PUSH4 0x91D14854 PUSH10 0x676F7665726E616E6365 PUSH1 0xB0 SHL CALLER PUSH1 0x40 MLOAD DUP4 PUSH4 0xFFFFFFFF AND PUSH1 0xE0 SHL DUP2 MSTORE PUSH1 0x4 ADD PUSH2 0x13BE SWAP3 SWAP2 SWAP1 PUSH2 0x4FEA JUMP JUMPDEST PUSH1 0x20 PUSH1 0x40 MLOAD DUP1 DUP4 SUB DUP2 DUP7 DUP1 EXTCODESIZE ISZERO DUP1 ISZERO PUSH2 0x13D6 JUMPI PUSH1 0x0 DUP1 REVERT JUMPDEST POP GAS STATICCALL ISZERO DUP1 ISZERO PUSH2 0x13EA JUMPI RETURNDATASIZE PUSH1 0x0 DUP1 RETURNDATACOPY RETURNDATASIZE PUSH1 0x0 REVERT JUMPDEST POP POP POP POP PUSH1 0x40 MLOAD RETURNDATASIZE PUSH1 0x1F NOT PUSH1 0x1F DUP3 ADD AND DUP3 ADD DUP1 PUSH1 0x40 MSTORE POP DUP2 ADD SWAP1 PUSH2 0x140E SWAP2 SWAP1 PUSH2 0x5001 JUMP JUMPDEST PUSH1 0x40 MLOAD DUP1 PUSH1 0x40 ADD PUSH1 0x40 MSTORE DUP1 PUSH1 0x13 DUP2 MSTORE PUSH1 0x20 ADD PUSH1 0x0 DUP1 MLOAD PUSH1 0x20 PUSH2 0x51BE DUP4 CODECOPY DUP2 MLOAD SWAP2 MSTORE DUP2 MSTORE POP SWAP1 PUSH2 0x1450 JUMPI PUSH1 0x40 MLOAD PUSH3 0x461BCD PUSH1 0xE5 SHL DUP2 MSTORE PUSH1 0x4 ADD PUSH2 0xB9B SWAP2 SWAP1 PUSH2 0x5023 JUMP JUMPDEST POP PUSH1 0x0 PUSH2 0x145B PUSH2 0xA85 JUMP JUMPDEST SWAP1 POP SELFBALANCE DUP4 DUP2 LT ISZERO PUSH2 0x15D7 JUMPI PUSH1 0x1 PUSH1 0x1 PUSH1 0xA0 SHL SUB DUP3 AND PUSH2 0x147E JUMPI POP PUSH1 0x0 SWAP4 SWAP3 POP POP POP JUMP JUMPDEST PUSH1 0x0 DUP3 PUSH1 0x1 PUSH1 0x1 PUSH1 0xA0 SHL SUB AND PUSH4 0xB69EF8A8 PUSH1 0x40 MLOAD DUP2 PUSH4 0xFFFFFFFF AND PUSH1 0xE0 SHL DUP2 MSTORE PUSH1 0x4 ADD PUSH1 0x20 PUSH1 0x40 MLOAD DUP1 DUP4 SUB DUP2 DUP7 DUP1 EXTCODESIZE ISZERO DUP1 ISZERO PUSH2 0x14B9 JUMPI PUSH1 0x0 DUP1 REVERT JUMPDEST POP GAS STATICCALL ISZERO DUP1 ISZERO PUSH2 0x14CD JUMPI RETURNDATASIZE PUSH1 0x0 DUP1 RETURNDATACOPY RETURNDATASIZE PUSH1 0x0 REVERT JUMPDEST POP POP POP POP PUSH1 0x40 MLOAD RETURNDATASIZE PUSH1 0x1F NOT PUSH1 0x1F DUP3 ADD AND DUP3 ADD DUP1 PUSH1 0x40 MSTORE POP DUP2 ADD SWAP1 PUSH2 0x14F1 SWAP2 SWAP1 PUSH2 0x5078 JUMP JUMPDEST SWAP1 POP PUSH1 0x0 PUSH2 0x14FF DUP4 DUP8 PUSH2 0x50A7 JUMP JUMPDEST SWAP1 POP DUP2 DUP2 GT ISZERO PUSH2 0x1515 JUMPI POP PUSH1 0x0 SWAP6 SWAP5 POP POP POP POP POP JUMP JUMPDEST PUSH1 0x0 PUSH2 0x1532 PUSH2 0x1522 PUSH2 0x1F9C JUMP JUMPDEST PUSH2 0x152C DUP5 DUP7 PUSH2 0x50A7 JUMP JUMPDEST SWAP1 PUSH2 0x359B JUMP JUMPDEST SWAP1 POP PUSH1 0x0 PUSH2 0x1540 DUP3 DUP6 PUSH2 0x50A7 JUMP JUMPDEST PUSH1 0x40 MLOAD PUSH4 0x2E1A7D4D PUSH1 0xE0 SHL DUP2 MSTORE PUSH1 0x4 DUP2 ADD DUP3 SWAP1 MSTORE SWAP1 SWAP2 POP PUSH1 0x1 PUSH1 0x1 PUSH1 0xA0 SHL SUB DUP8 AND SWAP1 PUSH4 0x2E1A7D4D SWAP1 PUSH1 0x24 ADD PUSH1 0x20 PUSH1 0x40 MLOAD DUP1 DUP4 SUB DUP2 PUSH1 0x0 DUP8 DUP1 EXTCODESIZE ISZERO DUP1 ISZERO PUSH2 0x1585 JUMPI PUSH1 0x0 DUP1 REVERT JUMPDEST POP GAS CALL ISZERO DUP1 ISZERO PUSH2 0x1599 JUMPI RETURNDATASIZE PUSH1 0x0 DUP1 RETURNDATACOPY RETURNDATASIZE PUSH1 0x0 REVERT JUMPDEST POP POP POP POP PUSH1 0x40 MLOAD RETURNDATASIZE PUSH1 0x1F NOT PUSH1 0x1F DUP3 ADD AND DUP3 ADD DUP1 PUSH1 0x40 MSTORE POP DUP2 ADD SWAP1 PUSH2 0x15BD SWAP2 SWAP1 PUSH2 0x5001 JUMP JUMPDEST POP PUSH2 0x15CA PUSH1 0x0 SLOAD DUP3 PUSH2 0x35BA JUMP JUMPDEST PUSH1 0x0 SSTORE POP PUSH2 0x1695 SWAP3 POP POP POP JUMP JUMPDEST PUSH1 0x0 PUSH1 0x1 PUSH1 0x1 PUSH1 0xA0 SHL SUB DUP4 AND ISZERO PUSH2 0x165C JUMPI DUP3 PUSH1 0x1 PUSH1 0x1 PUSH1 0xA0 SHL SUB AND PUSH4 0xB69EF8A8 PUSH1 0x40 MLOAD DUP2 PUSH4 0xFFFFFFFF AND PUSH1 0xE0 SHL DUP2 MSTORE PUSH1 0x4 ADD PUSH1 0x20 PUSH1 0x40 MLOAD DUP1 DUP4 SUB DUP2 DUP7 DUP1 EXTCODESIZE ISZERO DUP1 ISZERO PUSH2 0x1621 JUMPI PUSH1 0x0 DUP1 REVERT JUMPDEST POP GAS STATICCALL ISZERO DUP1 ISZERO PUSH2 0x1635 JUMPI RETURNDATASIZE PUSH1 0x0 DUP1 RETURNDATACOPY RETURNDATASIZE PUSH1 0x0 REVERT JUMPDEST POP POP POP POP PUSH1 0x40 MLOAD RETURNDATASIZE PUSH1 0x1F NOT PUSH1 0x1F DUP3 ADD AND DUP3 ADD DUP1 PUSH1 0x40 MSTORE POP DUP2 ADD SWAP1 PUSH2 0x1659 SWAP2 SWAP1 PUSH2 0x5078 JUMP JUMPDEST SWAP1 POP JUMPDEST PUSH1 0x1 SLOAD PUSH1 0x0 SWAP1 PUSH2 0x166C DUP4 DUP6 PUSH2 0x50BE JUMP JUMPDEST PUSH2 0x1676 SWAP2 SWAP1 PUSH2 0x50BE JUMP JUMPDEST SWAP1 POP PUSH1 0x0 PUSH2 0x1684 DUP8 DUP4 PUSH2 0x50A7 JUMP JUMPDEST SWAP1 POP PUSH2 0x1690 DUP2 DUP5 PUSH2 0x35DE JUMP JUMPDEST POP POP POP POP JUMPDEST PUSH1 0x2 SLOAD PUSH2 0x16AB SWAP1 PUSH1 0x1 PUSH1 0x1 PUSH1 0xA0 SHL SUB AND DUP6 PUSH2 0x37F5 JUMP JUMPDEST POP PUSH1 0x1 SWAP4 SWAP3 POP POP POP JUMP JUMPDEST PUSH1 0x0 DUP1 PUSH2 0x16C9 PUSH5 0x109BDD5B99 PUSH1 0xDA SHL PUSH2 0x382B JUMP JUMPDEST SWAP1 POP PUSH2 0x16D3 PUSH2 0x384F JUMP JUMPDEST SWAP2 SWAP1 POP JUMP JUMPDEST PUSH1 0x0 PUSH2 0x16E2 PUSH2 0x33CE JUMP JUMPDEST PUSH1 0x1 PUSH1 0x1 PUSH1 0xA0 SHL SUB AND PUSH4 0x91D14854 PUSH10 0x676F7665726E616E6365 PUSH1 0xB0 SHL CALLER PUSH1 0x40 MLOAD DUP4 PUSH4 0xFFFFFFFF AND PUSH1 0xE0 SHL DUP2 MSTORE PUSH1 0x4 ADD PUSH2 0x171C SWAP3 SWAP2 SWAP1 PUSH2 0x4FEA JUMP JUMPDEST PUSH1 0x20 PUSH1 0x40 MLOAD DUP1 DUP4 SUB DUP2 DUP7 DUP1 EXTCODESIZE ISZERO DUP1 ISZERO PUSH2 0x1734 JUMPI PUSH1 0x0 DUP1 REVERT JUMPDEST POP GAS STATICCALL ISZERO DUP1 ISZERO PUSH2 0x1748 JUMPI RETURNDATASIZE PUSH1 0x0 DUP1 RETURNDATACOPY RETURNDATASIZE PUSH1 0x0 REVERT JUMPDEST POP POP POP POP PUSH1 0x40 MLOAD RETURNDATASIZE PUSH1 0x1F NOT PUSH1 0x1F DUP3 ADD AND DUP3 ADD DUP1 PUSH1 0x40 MSTORE POP DUP2 ADD SWAP1 PUSH2 0x176C SWAP2 SWAP1 PUSH2 0x5001 JUMP JUMPDEST PUSH1 0x40 MLOAD DUP1 PUSH1 0x40 ADD PUSH1 0x40 MSTORE DUP1 PUSH1 0x13 DUP2 MSTORE PUSH1 0x20 ADD PUSH1 0x0 DUP1 MLOAD PUSH1 0x20 PUSH2 0x51BE DUP4 CODECOPY DUP2 MLOAD SWAP2 MSTORE DUP2 MSTORE POP SWAP1 PUSH2 0x17AE JUMPI PUSH1 0x40 MLOAD PUSH3 0x461BCD PUSH1 0xE5 SHL DUP2 MSTORE PUSH1 0x4 ADD PUSH2 0xB9B SWAP2 SWAP1 PUSH2 0x5023 JUMP JUMPDEST POP PUSH1 0x40 DUP1 MLOAD DUP1 DUP3 ADD SWAP1 SWAP2 MSTORE PUSH1 0xE DUP2 MSTORE PUSH14 0x1A5B9D985B1A5908185B5BDD5B9D PUSH1 0x92 SHL PUSH1 0x20 DUP3 ADD MSTORE PUSH8 0x6F05B59D3B20000 DUP4 GT ISZERO PUSH2 0x17FD JUMPI PUSH1 0x40 MLOAD PUSH3 0x461BCD PUSH1 0xE5 SHL DUP2 MSTORE PUSH1 0x4 ADD PUSH2 0xB9B SWAP2 SWAP1 PUSH2 0x5023 JUMP JUMPDEST POP PUSH2 0x1055 PUSH5 0x109BDD5B99 PUSH1 0xDA SHL DUP4 PUSH2 0x3524 JUMP JUMPDEST PUSH1 0x2 SLOAD PUSH1 0x0 SWAP1 PUSH1 0x1 PUSH1 0x1 PUSH1 0xA0 SHL SUB AND CALLER EQ DUP1 PUSH2 0x18BA JUMPI POP PUSH2 0x182F PUSH2 0x33CE JUMP JUMPDEST PUSH1 0x1 PUSH1 0x1 PUSH1 0xA0 SHL SUB AND PUSH4 0x91D14854 PUSH11 0x6D61696E74656E616E6365 PUSH1 0xA8 SHL CALLER PUSH1 0x40 MLOAD DUP4 PUSH4 0xFFFFFFFF AND PUSH1 0xE0 SHL DUP2 MSTORE PUSH1 0x4 ADD PUSH2 0x186A SWAP3 SWAP2 SWAP1 PUSH2 0x4FEA JUMP JUMPDEST PUSH1 0x20 PUSH1 0x40 MLOAD DUP1 DUP4 SUB DUP2 DUP7 DUP1 EXTCODESIZE ISZERO DUP1 ISZERO PUSH2 0x1882 JUMPI PUSH1 0x0 DUP1 REVERT JUMPDEST POP GAS STATICCALL ISZERO DUP1 ISZERO PUSH2 0x1896 JUMPI RETURNDATASIZE PUSH1 0x0 DUP1 RETURNDATACOPY RETURNDATASIZE PUSH1 0x0 REVERT JUMPDEST POP POP POP POP PUSH1 0x40 MLOAD RETURNDATASIZE PUSH1 0x1F NOT PUSH1 0x1F DUP3 ADD AND DUP3 ADD DUP1 PUSH1 0x40 MSTORE POP DUP2 ADD SWAP1 PUSH2 0x18BA SWAP2 SWAP1 PUSH2 0x5001 JUMP JUMPDEST PUSH1 0x40 MLOAD DUP1 PUSH1 0x40 ADD PUSH1 0x40 MSTORE DUP1 PUSH1 0x13 DUP2 MSTORE PUSH1 0x20 ADD PUSH1 0x0 DUP1 MLOAD PUSH1 0x20 PUSH2 0x51BE DUP4 CODECOPY DUP2 MLOAD SWAP2 MSTORE DUP2 MSTORE POP SWAP1 PUSH2 0x18FC JUMPI PUSH1 0x40 MLOAD PUSH3 0x461BCD PUSH1 0xE5 SHL DUP2 MSTORE PUSH1 0x4 ADD PUSH2 0xB9B SWAP2 SWAP1 PUSH2 0x5023 JUMP JUMPDEST POP PUSH2 0xA80 PUSH2 0x390D JUMP JUMPDEST PUSH1 0x0 PUSH2 0x190F PUSH2 0x33CE JUMP JUMPDEST PUSH1 0x1 PUSH1 0x1 PUSH1 0xA0 SHL SUB AND PUSH4 0x91D14854 PUSH10 0x676F7665726E616E6365 PUSH1 0xB0 SHL CALLER PUSH1 0x40 MLOAD DUP4 PUSH4 0xFFFFFFFF AND PUSH1 0xE0 SHL DUP2 MSTORE PUSH1 0x4 ADD PUSH2 0x1949 SWAP3 SWAP2 SWAP1 PUSH2 0x4FEA JUMP JUMPDEST PUSH1 0x20 PUSH1 0x40 MLOAD DUP1 DUP4 SUB DUP2 DUP7 DUP1 EXTCODESIZE ISZERO DUP1 ISZERO PUSH2 0x1961 JUMPI PUSH1 0x0 DUP1 REVERT JUMPDEST POP GAS STATICCALL ISZERO DUP1 ISZERO PUSH2 0x1975 JUMPI RETURNDATASIZE PUSH1 0x0 DUP1 RETURNDATACOPY RETURNDATASIZE PUSH1 0x0 REVERT JUMPDEST POP POP POP POP PUSH1 0x40 MLOAD RETURNDATASIZE PUSH1 0x1F NOT PUSH1 0x1F DUP3 ADD AND DUP3 ADD DUP1 PUSH1 0x40 MSTORE POP DUP2 ADD SWAP1 PUSH2 0x1999 SWAP2 SWAP1 PUSH2 0x5001 JUMP JUMPDEST PUSH1 0x40 MLOAD DUP1 PUSH1 0x40 ADD PUSH1 0x40 MSTORE DUP1 PUSH1 0x13 DUP2 MSTORE PUSH1 0x20 ADD PUSH1 0x0 DUP1 MLOAD PUSH1 0x20 PUSH2 0x51BE DUP4 CODECOPY DUP2 MLOAD SWAP2 MSTORE DUP2 MSTORE POP SWAP1 PUSH2 0x19DB JUMPI PUSH1 0x40 MLOAD PUSH3 0x461BCD PUSH1 0xE5 SHL DUP2 MSTORE PUSH1 0x4 ADD PUSH2 0xB9B SWAP2 SWAP1 PUSH2 0x5023 JUMP JUMPDEST POP PUSH1 0x0 PUSH2 0x19E6 PUSH2 0xA85 JUMP JUMPDEST SWAP1 POP PUSH1 0x1 PUSH1 0x1 PUSH1 0xA0 SHL SUB DUP2 AND PUSH2 0x19FF JUMPI POP PUSH1 0x0 SWAP3 SWAP2 POP POP JUMP JUMPDEST DUP3 DUP2 PUSH1 0x1 PUSH1 0x1 PUSH1 0xA0 SHL SUB AND PUSH4 0xB69EF8A8 PUSH1 0x40 MLOAD DUP2 PUSH4 0xFFFFFFFF AND PUSH1 0xE0 SHL DUP2 MSTORE PUSH1 0x4 ADD PUSH1 0x20 PUSH1 0x40 MLOAD DUP1 DUP4 SUB DUP2 DUP7 DUP1 EXTCODESIZE ISZERO DUP1 ISZERO PUSH2 0x1A39 JUMPI PUSH1 0x0 DUP1 REVERT JUMPDEST POP GAS STATICCALL ISZERO DUP1 ISZERO PUSH2 0x1A4D JUMPI RETURNDATASIZE PUSH1 0x0 DUP1 RETURNDATACOPY RETURNDATASIZE PUSH1 0x0 REVERT JUMPDEST POP POP POP POP PUSH1 0x40 MLOAD RETURNDATASIZE PUSH1 0x1F NOT PUSH1 0x1F DUP3 ADD AND DUP3 ADD DUP1 PUSH1 0x40 MSTORE POP DUP2 ADD SWAP1 PUSH2 0x1A71 SWAP2 SWAP1 PUSH2 0x5078 JUMP JUMPDEST LT ISZERO PUSH2 0x1A80 JUMPI POP PUSH1 0x0 SWAP3 SWAP2 POP POP JUMP JUMPDEST PUSH1 0x0 SELFBALANCE PUSH1 0x40 MLOAD PUSH4 0x2E1A7D4D PUSH1 0xE0 SHL DUP2 MSTORE PUSH1 0x4 DUP2 ADD DUP7 SWAP1 MSTORE SWAP1 SWAP2 POP PUSH1 0x1 PUSH1 0x1 PUSH1 0xA0 SHL SUB DUP4 AND SWAP1 PUSH4 0x2E1A7D4D SWAP1 PUSH1 0x24 ADD PUSH1 0x20 PUSH1 0x40 MLOAD DUP1 DUP4 SUB DUP2 PUSH1 0x0 DUP8 DUP1 EXTCODESIZE ISZERO DUP1 ISZERO PUSH2 0x1AC8 JUMPI PUSH1 0x0 DUP1 REVERT JUMPDEST POP GAS CALL ISZERO DUP1 ISZERO PUSH2 0x1ADC JUMPI RETURNDATASIZE PUSH1 0x0 DUP1 RETURNDATACOPY RETURNDATASIZE PUSH1 0x0 REVERT JUMPDEST POP POP POP POP PUSH1 0x40 MLOAD RETURNDATASIZE PUSH1 0x1F NOT PUSH1 0x1F DUP3 ADD AND DUP3 ADD DUP1 PUSH1 0x40 MSTORE POP DUP2 ADD SWAP1 PUSH2 0x1B00 SWAP2 SWAP1 PUSH2 0x5001 JUMP JUMPDEST POP SELFBALANCE PUSH2 0x1B0C DUP3 DUP3 PUSH2 0x50A7 JUMP JUMPDEST PUSH1 0x0 DUP1 DUP3 DUP3 SLOAD PUSH2 0x1B1C SWAP2 SWAP1 PUSH2 0x50A7 JUMP JUMPDEST SWAP1 SWAP2 SSTORE POP PUSH1 0x1 SWAP7 SWAP6 POP POP POP POP POP POP JUMP JUMPDEST PUSH1 0x3F SLOAD PUSH2 0x100 SWAP1 DIV PUSH1 0xFF AND PUSH2 0x1B47 JUMPI PUSH1 0x3F SLOAD PUSH1 0xFF AND ISZERO PUSH2 0x1B4B JUMP JUMPDEST ADDRESS EXTCODESIZE ISZERO JUMPDEST PUSH2 0x1BAE JUMPI PUSH1 0x40 MLOAD PUSH3 0x461BCD PUSH1 0xE5 SHL DUP2 MSTORE PUSH1 0x20 PUSH1 0x4 DUP3 ADD MSTORE PUSH1 0x2E PUSH1 0x24 DUP3 ADD MSTORE PUSH32 0x496E697469616C697A61626C653A20636F6E747261637420697320616C726561 PUSH1 0x44 DUP3 ADD MSTORE PUSH14 0x191E481A5B9A5D1A585B1A5E9959 PUSH1 0x92 SHL PUSH1 0x64 DUP3 ADD MSTORE PUSH1 0x84 ADD PUSH2 0xB9B JUMP JUMPDEST PUSH1 0x3F SLOAD PUSH2 0x100 SWAP1 DIV PUSH1 0xFF AND ISZERO DUP1 ISZERO PUSH2 0x1BD0 JUMPI PUSH1 0x3F DUP1 SLOAD PUSH2 0xFFFF NOT AND PUSH2 0x101 OR SWAP1 SSTORE JUMPDEST PUSH2 0x1BDC DUP6 DUP6 DUP6 DUP6 PUSH2 0x3BC4 JUMP JUMPDEST DUP1 ISZERO PUSH2 0x1BEE JUMPI PUSH1 0x3F DUP1 SLOAD PUSH2 0xFF00 NOT AND SWAP1 SSTORE JUMPDEST POP POP POP POP POP JUMP JUMPDEST PUSH1 0x0 PUSH2 0x1BFF PUSH2 0x33CE JUMP JUMPDEST PUSH1 0x1 PUSH1 0x1 PUSH1 0xA0 SHL SUB AND PUSH4 0x91D14854 PUSH10 0x676F7665726E616E6365 PUSH1 0xB0 SHL CALLER PUSH1 0x40 MLOAD DUP4 PUSH4 0xFFFFFFFF AND PUSH1 0xE0 SHL DUP2 MSTORE PUSH1 0x4 ADD PUSH2 0x1C39 SWAP3 SWAP2 SWAP1 PUSH2 0x4FEA JUMP JUMPDEST PUSH1 0x20 PUSH1 0x40 MLOAD DUP1 DUP4 SUB DUP2 DUP7 DUP1 EXTCODESIZE ISZERO DUP1 ISZERO PUSH2 0x1C51 JUMPI PUSH1 0x0 DUP1 REVERT JUMPDEST POP GAS STATICCALL ISZERO DUP1 ISZERO PUSH2 0x1C65 JUMPI RETURNDATASIZE PUSH1 0x0 DUP1 RETURNDATACOPY RETURNDATASIZE PUSH1 0x0 REVERT JUMPDEST POP POP POP POP PUSH1 0x40 MLOAD RETURNDATASIZE PUSH1 0x1F NOT PUSH1 0x1F DUP3 ADD AND DUP3 ADD DUP1 PUSH1 0x40 MSTORE POP DUP2 ADD SWAP1 PUSH2 0x1C89 SWAP2 SWAP1 PUSH2 0x5001 JUMP JUMPDEST PUSH1 0x40 MLOAD DUP1 PUSH1 0x40 ADD PUSH1 0x40 MSTORE DUP1 PUSH1 0x13 DUP2 MSTORE PUSH1 0x20 ADD PUSH1 0x0 DUP1 MLOAD PUSH1 0x20 PUSH2 0x51BE DUP4 CODECOPY DUP2 MLOAD SWAP2 MSTORE DUP2 MSTORE POP SWAP1 PUSH2 0x1CCB JUMPI PUSH1 0x40 MLOAD PUSH3 0x461BCD PUSH1 0xE5 SHL DUP2 MSTORE PUSH1 0x4 ADD PUSH2 0xB9B SWAP2 SWAP1 PUSH2 0x5023 JUMP JUMPDEST POP PUSH2 0xA80 PUSH2 0x3D72 JUMP JUMPDEST PUSH1 0x0 PUSH2 0x1CDE PUSH2 0x33CE JUMP JUMPDEST PUSH1 0x1 PUSH1 0x1 PUSH1 0xA0 SHL SUB AND PUSH4 0x91D14854 PUSH10 0x676F7665726E616E6365 PUSH1 0xB0 SHL CALLER PUSH1 0x40 MLOAD DUP4 PUSH4 0xFFFFFFFF AND PUSH1 0xE0 SHL DUP2 MSTORE PUSH1 0x4 ADD PUSH2 0x1D18 SWAP3 SWAP2 SWAP1 PUSH2 0x4FEA JUMP JUMPDEST PUSH1 0x20 PUSH1 0x40 MLOAD DUP1 DUP4 SUB DUP2 DUP7 DUP1 EXTCODESIZE ISZERO DUP1 ISZERO PUSH2 0x1D30 JUMPI PUSH1 0x0 DUP1 REVERT JUMPDEST POP GAS STATICCALL ISZERO DUP1 ISZERO PUSH2 0x1D44 JUMPI RETURNDATASIZE PUSH1 0x0 DUP1 RETURNDATACOPY RETURNDATASIZE PUSH1 0x0 REVERT JUMPDEST POP POP POP POP PUSH1 0x40 MLOAD RETURNDATASIZE PUSH1 0x1F NOT PUSH1 0x1F DUP3 ADD AND DUP3 ADD DUP1 PUSH1 0x40 MSTORE POP DUP2 ADD SWAP1 PUSH2 0x1D68 SWAP2 SWAP1 PUSH2 0x5001 JUMP JUMPDEST PUSH1 0x40 MLOAD DUP1 PUSH1 0x40 ADD PUSH1 0x40 MSTORE DUP1 PUSH1 0x13 DUP2 MSTORE PUSH1 0x20 ADD PUSH1 0x0 DUP1 MLOAD PUSH1 0x20 PUSH2 0x51BE DUP4 CODECOPY DUP2 MLOAD SWAP2 MSTORE DUP2 MSTORE POP SWAP1 PUSH2 0x1DAA JUMPI PUSH1 0x40 MLOAD PUSH3 0x461BCD PUSH1 0xE5 SHL DUP2 MSTORE PUSH1 0x4 ADD PUSH2 0xB9B SWAP2 SWAP1 PUSH2 0x5023 JUMP JUMPDEST POP PUSH8 0x5374726174656779 PUSH1 0xC0 SHL PUSH1 0x0 MSTORE PUSH1 0x3C PUSH1 0x20 SWAP1 DUP2 MSTORE PUSH32 0x15BDD40257915F753934B43755984618AEB2AE4FFF096845769C2BB729E989BE SLOAD PUSH1 0x40 DUP1 MLOAD DUP1 DUP3 ADD SWAP1 SWAP2 MSTORE PUSH1 0x16 DUP2 MSTORE PUSH22 0x1059191C995CDCC81A5CC8185B1C9958591E481CD95D PUSH1 0x52 SHL SWAP3 DUP2 ADD SWAP3 SWAP1 SWAP3 MSTORE PUSH1 0x1 PUSH1 0x1 PUSH1 0xA0 SHL SUB AND ISZERO PUSH2 0x1E39 JUMPI PUSH1 0x40 MLOAD PUSH3 0x461BCD PUSH1 0xE5 SHL DUP2 MSTORE PUSH1 0x4 ADD PUSH2 0xB9B SWAP2 SWAP1 PUSH2 0x5023 JUMP JUMPDEST POP PUSH1 0x40 DUP1 MLOAD DUP1 DUP3 ADD SWAP1 SWAP2 MSTORE PUSH1 0x18 DUP2 MSTORE PUSH24 0x1E995C9BC81859191C995CDCC81B9BDD08185B1B1BDDD959 PUSH1 0x42 SHL PUSH1 0x20 DUP3 ADD MSTORE PUSH1 0x1 PUSH1 0x1 PUSH1 0xA0 SHL SUB DUP4 AND PUSH2 0x1E90 JUMPI PUSH1 0x40 MLOAD PUSH3 0x461BCD PUSH1 0xE5 SHL DUP2 MSTORE PUSH1 0x4 ADD PUSH2 0xB9B SWAP2 SWAP1 PUSH2 0x5023 JUMP JUMPDEST POP PUSH2 0x1EA6 PUSH8 0x5374726174656779 PUSH1 0xC0 SHL DUP4 PUSH2 0x3DE6 JUMP JUMPDEST POP PUSH2 0x1EAF PUSH2 0x3D72 JUMP JUMPDEST POP PUSH1 0x0 PUSH1 0x1 PUSH1 0x1 PUSH1 0xA0 SHL SUB AND DUP3 PUSH1 0x1 PUSH1 0x1 PUSH1 0xA0 SHL SUB AND PUSH4 0x1FE4A686 PUSH1 0x40 MLOAD DUP2 PUSH4 0xFFFFFFFF AND PUSH1 0xE0 SHL DUP2 MSTORE PUSH1 0x4 ADD PUSH1 0x20 PUSH1 0x40 MLOAD DUP1 DUP4 SUB DUP2 DUP7 DUP1 EXTCODESIZE ISZERO DUP1 ISZERO PUSH2 0x1EF4 JUMPI PUSH1 0x0 DUP1 REVERT JUMPDEST POP GAS STATICCALL ISZERO DUP1 ISZERO PUSH2 0x1F08 JUMPI RETURNDATASIZE PUSH1 0x0 DUP1 RETURNDATACOPY RETURNDATASIZE PUSH1 0x0 REVERT JUMPDEST POP POP POP POP PUSH1 0x40 MLOAD RETURNDATASIZE PUSH1 0x1F NOT PUSH1 0x1F DUP3 ADD AND DUP3 ADD DUP1 PUSH1 0x40 MSTORE POP DUP2 ADD SWAP1 PUSH2 0x1F2C SWAP2 SWAP1 PUSH2 0x50D6 JUMP JUMPDEST PUSH1 0x1 PUSH1 0x1 PUSH1 0xA0 SHL SUB AND EQ ISZERO PUSH1 0x40 MLOAD DUP1 PUSH1 0x40 ADD PUSH1 0x40 MSTORE DUP1 PUSH1 0x18 DUP2 MSTORE PUSH1 0x20 ADD PUSH24 0x1E995C9BC81859191C995CDCC81B9BDD08185B1B1BDDD959 PUSH1 0x42 SHL DUP2 MSTORE POP SWAP1 PUSH2 0x1F86 JUMPI PUSH1 0x40 MLOAD PUSH3 0x461BCD PUSH1 0xE5 SHL DUP2 MSTORE PUSH1 0x4 ADD PUSH2 0xB9B SWAP2 SWAP1 PUSH2 0x5023 JUMP JUMPDEST POP PUSH1 0x1 SWAP3 SWAP2 POP POP JUMP JUMPDEST PUSH1 0x0 PUSH2 0x1055 PUSH1 0x5 DUP4 PUSH2 0x3E72 JUMP JUMPDEST PUSH16 0x2A30B933B2BA20B63637B1B0BA34B7B7 PUSH1 0x81 SHL PUSH1 0x0 MSTORE PUSH1 0x3D PUSH1 0x20 MSTORE PUSH32 0xA3006DE449E2F6DA78C92D58370B3DD2EF3B1E1963FC373ED67D46CED02EB8F SLOAD SWAP1 JUMP JUMPDEST PUSH13 0x53747261746567697374466565 PUSH1 0x98 SHL PUSH1 0x0 MSTORE PUSH1 0x3D PUSH1 0x20 MSTORE PUSH32 0x9991A201724620367B875943D3F1E2D8A65D067F05CCD6A37AF85AE33CF679E9 SLOAD SWAP1 JUMP JUMPDEST PUSH9 0x1119589D131A5B5A5D PUSH1 0xBA SHL PUSH1 0x0 MSTORE PUSH1 0x3D PUSH1 0x20 MSTORE PUSH32 0xED35BBFF007AE1D09677DE3676C3CB1B0411569C4AB270913B3FB2A177A70319 SLOAD SWAP1 JUMP JUMPDEST PUSH5 0x109BDD5B99 PUSH1 0xDA SHL PUSH1 0x0 MSTORE PUSH1 0x3D PUSH1 0x20 MSTORE PUSH32 0xCBA6DF5081839CAB6DED1888D57F2772386C9D156438BB2FAA7B07EC10C24470 SLOAD SWAP1 JUMP JUMPDEST PUSH1 0x2 SLOAD PUSH1 0x1 PUSH1 0x1 PUSH1 0xA0 SHL SUB AND CALLER EQ DUP1 PUSH2 0x2131 JUMPI POP PUSH2 0x20A7 PUSH2 0x33CE JUMP JUMPDEST PUSH1 0x1 PUSH1 0x1 PUSH1 0xA0 SHL SUB AND PUSH4 0x91D14854 PUSH10 0x676F7665726E616E6365 PUSH1 0xB0 SHL CALLER PUSH1 0x40 MLOAD DUP4 PUSH4 0xFFFFFFFF AND PUSH1 0xE0 SHL DUP2 MSTORE PUSH1 0x4 ADD PUSH2 0x20E1 SWAP3 SWAP2 SWAP1 PUSH2 0x4FEA JUMP JUMPDEST PUSH1 0x20 PUSH1 0x40 MLOAD DUP1 DUP4 SUB DUP2 DUP7 DUP1 EXTCODESIZE ISZERO DUP1 ISZERO PUSH2 0x20F9 JUMPI PUSH1 0x0 DUP1 REVERT JUMPDEST POP GAS STATICCALL ISZERO DUP1 ISZERO PUSH2 0x210D JUMPI RETURNDATASIZE PUSH1 0x0 DUP1 RETURNDATACOPY RETURNDATASIZE PUSH1 0x0 REVERT JUMPDEST POP POP POP POP PUSH1 0x40 MLOAD RETURNDATASIZE PUSH1 0x1F NOT PUSH1 0x1F DUP3 ADD AND DUP3 ADD DUP1 PUSH1 0x40 MSTORE POP DUP2 ADD SWAP1 PUSH2 0x2131 SWAP2 SWAP1 PUSH2 0x5001 JUMP JUMPDEST PUSH1 0x40 MLOAD DUP1 PUSH1 0x40 ADD PUSH1 0x40 MSTORE DUP1 PUSH1 0x13 DUP2 MSTORE PUSH1 0x20 ADD PUSH1 0x0 DUP1 MLOAD PUSH1 0x20 PUSH2 0x51BE DUP4 CODECOPY DUP2 MLOAD SWAP2 MSTORE DUP2 MSTORE POP SWAP1 PUSH2 0x2173 JUMPI PUSH1 0x40 MLOAD PUSH3 0x461BCD PUSH1 0xE5 SHL DUP2 MSTORE PUSH1 0x4 ADD PUSH2 0xB9B SWAP2 SWAP1 PUSH2 0x5023 JUMP JUMPDEST POP PUSH2 0x217C PUSH2 0x3E87 JUMP JUMPDEST POP PUSH1 0x2 SLOAD PUSH2 0x2193 SWAP1 PUSH1 0x1 PUSH1 0x1 PUSH1 0xA0 SHL SUB AND SELFBALANCE PUSH2 0x37F5 JUMP JUMPDEST JUMP JUMPDEST PUSH1 0x0 PUSH2 0x219F PUSH2 0x33CE JUMP JUMPDEST PUSH1 0x1 PUSH1 0x1 PUSH1 0xA0 SHL SUB AND PUSH4 0x91D14854 PUSH10 0x676F7665726E616E6365 PUSH1 0xB0 SHL CALLER PUSH1 0x40 MLOAD DUP4 PUSH4 0xFFFFFFFF AND PUSH1 0xE0 SHL DUP2 MSTORE PUSH1 0x4 ADD PUSH2 0x21D9 SWAP3 SWAP2 SWAP1 PUSH2 0x4FEA JUMP JUMPDEST PUSH1 0x20 PUSH1 0x40 MLOAD DUP1 DUP4 SUB DUP2 DUP7 DUP1 EXTCODESIZE ISZERO DUP1 ISZERO PUSH2 0x21F1 JUMPI PUSH1 0x0 DUP1 REVERT JUMPDEST POP GAS STATICCALL ISZERO DUP1 ISZERO PUSH2 0x2205 JUMPI RETURNDATASIZE PUSH1 0x0 DUP1 RETURNDATACOPY RETURNDATASIZE PUSH1 0x0 REVERT JUMPDEST POP POP POP POP PUSH1 0x40 MLOAD RETURNDATASIZE PUSH1 0x1F NOT PUSH1 0x1F DUP3 ADD AND DUP3 ADD DUP1 PUSH1 0x40 MSTORE POP DUP2 ADD SWAP1 PUSH2 0x2229 SWAP2 SWAP1 PUSH2 0x5001 JUMP JUMPDEST PUSH1 0x40 MLOAD DUP1 PUSH1 0x40 ADD PUSH1 0x40 MSTORE DUP1 PUSH1 0x13 DUP2 MSTORE PUSH1 0x20 ADD PUSH1 0x0 DUP1 MLOAD PUSH1 0x20 PUSH2 0x51BE DUP4 CODECOPY DUP2 MLOAD SWAP2 MSTORE DUP2 MSTORE POP SWAP1 PUSH2 0x226B JUMPI PUSH1 0x40 MLOAD PUSH3 0x461BCD PUSH1 0xE5 SHL DUP2 MSTORE PUSH1 0x4 ADD PUSH2 0xB9B SWAP2 SWAP1 PUSH2 0x5023 JUMP JUMPDEST POP PUSH2 0xA80 PUSH10 0x52657365727665466565 PUSH1 0xB0 SHL PUSH2 0x33F2 JUMP JUMPDEST PUSH1 0x0 PUSH2 0x228C PUSH2 0x33CE JUMP JUMPDEST PUSH1 0x1 PUSH1 0x1 PUSH1 0xA0 SHL SUB AND PUSH4 0x91D14854 PUSH10 0x676F7665726E616E6365 PUSH1 0xB0 SHL CALLER PUSH1 0x40 MLOAD DUP4 PUSH4 0xFFFFFFFF AND PUSH1 0xE0 SHL DUP2 MSTORE PUSH1 0x4 ADD PUSH2 0x22C6 SWAP3 SWAP2 SWAP1 PUSH2 0x4FEA JUMP JUMPDEST PUSH1 0x20 PUSH1 0x40 MLOAD DUP1 DUP4 SUB DUP2 DUP7 DUP1 EXTCODESIZE ISZERO DUP1 ISZERO PUSH2 0x22DE JUMPI PUSH1 0x0 DUP1 REVERT JUMPDEST POP GAS STATICCALL ISZERO DUP1 ISZERO PUSH2 0x22F2 JUMPI RETURNDATASIZE PUSH1 0x0 DUP1 RETURNDATACOPY RETURNDATASIZE PUSH1 0x0 REVERT JUMPDEST POP POP POP POP PUSH1 0x40 MLOAD RETURNDATASIZE PUSH1 0x1F NOT PUSH1 0x1F DUP3 ADD AND DUP3 ADD DUP1 PUSH1 0x40 MSTORE POP DUP2 ADD SWAP1 PUSH2 0x2316 SWAP2 SWAP1 PUSH2 0x5001 JUMP JUMPDEST PUSH1 0x40 MLOAD DUP1 PUSH1 0x40 ADD PUSH1 0x40 MSTORE DUP1 PUSH1 0x13 DUP2 MSTORE PUSH1 0x20 ADD PUSH1 0x0 DUP1 MLOAD PUSH1 0x20 PUSH2 0x51BE DUP4 CODECOPY DUP2 MLOAD SWAP2 MSTORE DUP2 MSTORE POP SWAP1 PUSH2 0x2358 JUMPI PUSH1 0x40 MLOAD PUSH3 0x461BCD PUSH1 0xE5 SHL DUP2 MSTORE PUSH1 0x4 ADD PUSH2 0xB9B SWAP2 SWAP1 PUSH2 0x5023 JUMP JUMPDEST POP PUSH2 0xA80 PUSH13 0x53747261746567697374466565 PUSH1 0x98 SHL PUSH2 0x33F2 JUMP JUMPDEST PUSH1 0x0 DUP1 PUSH2 0x238E PUSH13 0x53747261746567697374466565 PUSH1 0x98 SHL PUSH2 0x382B JUMP JUMPDEST SWAP1 POP PUSH2 0x16D3 PUSH2 0x239B PUSH2 0x32CC JUMP JUMPDEST DUP3 PUSH2 0x3499 JUMP JUMPDEST PUSH1 0x60 PUSH2 0xA80 PUSH1 0x5 PUSH2 0x3F5E JUMP JUMPDEST PUSH1 0x0 PUSH2 0x23B7 PUSH2 0x33CE JUMP JUMPDEST PUSH1 0x1 PUSH1 0x1 PUSH1 0xA0 SHL SUB AND PUSH4 0x91D14854 PUSH10 0x676F7665726E616E6365 PUSH1 0xB0 SHL CALLER PUSH1 0x40 MLOAD DUP4 PUSH4 0xFFFFFFFF AND PUSH1 0xE0 SHL DUP2 MSTORE PUSH1 0x4 ADD PUSH2 0x23F1 SWAP3 SWAP2 SWAP1 PUSH2 0x4FEA JUMP JUMPDEST PUSH1 0x20 PUSH1 0x40 MLOAD DUP1 DUP4 SUB DUP2 DUP7 DUP1 EXTCODESIZE ISZERO DUP1 ISZERO PUSH2 0x2409 JUMPI PUSH1 0x0 DUP1 REVERT JUMPDEST POP GAS STATICCALL ISZERO DUP1 ISZERO PUSH2 0x241D JUMPI RETURNDATASIZE PUSH1 0x0 DUP1 RETURNDATACOPY RETURNDATASIZE PUSH1 0x0 REVERT JUMPDEST POP POP POP POP PUSH1 0x40 MLOAD RETURNDATASIZE PUSH1 0x1F NOT PUSH1 0x1F DUP3 ADD AND DUP3 ADD DUP1 PUSH1 0x40 MSTORE POP DUP2 ADD SWAP1 PUSH2 0x2441 SWAP2 SWAP1 PUSH2 0x5001 JUMP JUMPDEST PUSH1 0x40 MLOAD DUP1 PUSH1 0x40 ADD PUSH1 0x40 MSTORE DUP1 PUSH1 0x13 DUP2 MSTORE PUSH1 0x20 ADD PUSH1 0x0 DUP1 MLOAD PUSH1 0x20 PUSH2 0x51BE DUP4 CODECOPY DUP2 MLOAD SWAP2 MSTORE DUP2 MSTORE POP SWAP1 PUSH2 0x2483 JUMPI PUSH1 0x40 MLOAD PUSH3 0x461BCD PUSH1 0xE5 SHL DUP2 MSTORE PUSH1 0x4 ADD PUSH2 0xB9B SWAP2 SWAP1 PUSH2 0x5023 JUMP JUMPDEST POP PUSH2 0xA80 PUSH8 0x5374726174656779 PUSH1 0xC0 SHL PUSH2 0x400D JUMP JUMPDEST PUSH1 0x0 PUSH2 0x24AE PUSH8 0x5374726174656779 PUSH1 0xC0 SHL PUSH2 0x40BF JUMP JUMPDEST PUSH1 0x0 PUSH2 0x24B8 PUSH2 0xA85 JUMP JUMPDEST SWAP1 POP PUSH1 0x1 PUSH1 0x1 PUSH1 0xA0 SHL SUB DUP2 AND ISZERO PUSH2 0x265C JUMPI PUSH2 0x24D1 PUSH2 0x390D JUMP JUMPDEST POP DUP1 PUSH1 0x1 PUSH1 0x1 PUSH1 0xA0 SHL SUB AND PUSH4 0xFC0E74D1 PUSH1 0x40 MLOAD DUP2 PUSH4 0xFFFFFFFF AND PUSH1 0xE0 SHL DUP2 MSTORE PUSH1 0x4 ADD PUSH1 0x20 PUSH1 0x40 MLOAD DUP1 DUP4 SUB DUP2 PUSH1 0x0 DUP8 DUP1 EXTCODESIZE ISZERO DUP1 ISZERO PUSH2 0x250D JUMPI PUSH1 0x0 DUP1 REVERT JUMPDEST POP GAS CALL ISZERO DUP1 ISZERO PUSH2 0x2521 JUMPI RETURNDATASIZE PUSH1 0x0 DUP1 RETURNDATACOPY RETURNDATASIZE PUSH1 0x0 REVERT JUMPDEST POP POP POP POP PUSH1 0x40 MLOAD RETURNDATASIZE PUSH1 0x1F NOT PUSH1 0x1F DUP3 ADD AND DUP3 ADD DUP1 PUSH1 0x40 MSTORE POP DUP2 ADD SWAP1 PUSH2 0x2545 SWAP2 SWAP1 PUSH2 0x5001 JUMP JUMPDEST POP DUP1 PUSH1 0x1 PUSH1 0x1 PUSH1 0xA0 SHL SUB AND PUSH4 0x853828B6 PUSH1 0x40 MLOAD DUP2 PUSH4 0xFFFFFFFF AND PUSH1 0xE0 SHL DUP2 MSTORE PUSH1 0x4 ADD PUSH1 0x20 PUSH1 0x40 MLOAD DUP1 DUP4 SUB DUP2 PUSH1 0x0 DUP8 DUP1 EXTCODESIZE ISZERO DUP1 ISZERO PUSH2 0x2581 JUMPI PUSH1 0x0 DUP1 REVERT JUMPDEST POP GAS CALL ISZERO DUP1 ISZERO PUSH2 0x2595 JUMPI RETURNDATASIZE PUSH1 0x0 DUP1 RETURNDATACOPY RETURNDATASIZE PUSH1 0x0 REVERT JUMPDEST POP POP POP POP PUSH1 0x40 MLOAD RETURNDATASIZE PUSH1 0x1F NOT PUSH1 0x1F DUP3 ADD AND DUP3 ADD DUP1 PUSH1 0x40 MSTORE POP DUP2 ADD SWAP1 PUSH2 0x25B9 SWAP2 SWAP1 PUSH2 0x5078 JUMP JUMPDEST POP PUSH1 0x0 DUP2 PUSH1 0x1 PUSH1 0x1 PUSH1 0xA0 SHL SUB AND PUSH4 0xB69EF8A8 PUSH1 0x40 MLOAD DUP2 PUSH4 0xFFFFFFFF AND PUSH1 0xE0 SHL DUP2 MSTORE PUSH1 0x4 ADD PUSH1 0x20 PUSH1 0x40 MLOAD DUP1 DUP4 SUB DUP2 DUP7 DUP1 EXTCODESIZE ISZERO DUP1 ISZERO PUSH2 0x25F5 JUMPI PUSH1 0x0 DUP1 REVERT JUMPDEST POP GAS STATICCALL ISZERO DUP1 ISZERO PUSH2 0x2609 JUMPI RETURNDATASIZE PUSH1 0x0 DUP1 RETURNDATACOPY RETURNDATASIZE PUSH1 0x0 REVERT JUMPDEST POP POP POP POP PUSH1 0x40 MLOAD RETURNDATASIZE PUSH1 0x1F NOT PUSH1 0x1F DUP3 ADD AND DUP3 ADD DUP1 PUSH1 0x40 MSTORE POP DUP2 ADD SWAP1 PUSH2 0x262D SWAP2 SWAP1 PUSH2 0x5078 JUMP JUMPDEST SWAP1 POP DUP1 ISZERO PUSH2 0x265A JUMPI PUSH2 0x2641 PUSH1 0x5 DUP4 DUP4 PUSH2 0x4168 JUMP JUMPDEST POP DUP1 PUSH1 0x1 PUSH1 0x0 DUP3 DUP3 SLOAD PUSH2 0x2654 SWAP2 SWAP1 PUSH2 0x50BE JUMP JUMPDEST SWAP1 SWAP2 SSTORE POP POP JUMPDEST POP JUMPDEST PUSH2 0x2664 PUSH2 0x353B JUMP JUMPDEST POP PUSH1 0x0 DUP1 DUP1 SSTORE PUSH1 0x3 DUP2 SWAP1 SSTORE PUSH8 0x5374726174656779 PUSH1 0xC0 SHL SWAP1 DUP2 SWAP1 MSTORE PUSH1 0x3A PUSH1 0x20 MSTORE PUSH32 0xA4CAF68BC3013A9A5274C5D8968485AE05B8C28E9F50493F41ACC96B22818C23 SLOAD PUSH1 0x1 PUSH1 0x1 PUSH1 0xA0 SHL SUB AND SWAP1 PUSH2 0x26BA SWAP1 DUP3 PUSH2 0x3DE6 JUMP JUMPDEST POP PUSH1 0x1 PUSH1 0x1 PUSH1 0xA0 SHL SUB DUP2 AND ISZERO PUSH2 0x1055 JUMPI PUSH2 0x26D2 PUSH2 0x3D72 JUMP JUMPDEST POP SWAP3 SWAP2 POP POP JUMP JUMPDEST PUSH1 0x0 PUSH2 0x26E3 PUSH2 0x33CE JUMP JUMPDEST PUSH1 0x1 PUSH1 0x1 PUSH1 0xA0 SHL SUB AND PUSH4 0x91D14854 PUSH10 0x676F7665726E616E6365 PUSH1 0xB0 SHL CALLER PUSH1 0x40 MLOAD DUP4 PUSH4 0xFFFFFFFF AND PUSH1 0xE0 SHL DUP2 MSTORE PUSH1 0x4 ADD PUSH2 0x271D SWAP3 SWAP2 SWAP1 PUSH2 0x4FEA JUMP JUMPDEST PUSH1 0x20 PUSH1 0x40 MLOAD DUP1 DUP4 SUB DUP2 DUP7 DUP1 EXTCODESIZE ISZERO DUP1 ISZERO PUSH2 0x2735 JUMPI PUSH1 0x0 DUP1 REVERT JUMPDEST POP GAS STATICCALL ISZERO DUP1 ISZERO PUSH2 0x2749 JUMPI RETURNDATASIZE PUSH1 0x0 DUP1 RETURNDATACOPY RETURNDATASIZE PUSH1 0x0 REVERT JUMPDEST POP POP POP POP PUSH1 0x40 MLOAD RETURNDATASIZE PUSH1 0x1F NOT PUSH1 0x1F DUP3 ADD AND DUP3 ADD DUP1 PUSH1 0x40 MSTORE POP DUP2 ADD SWAP1 PUSH2 0x276D SWAP2 SWAP1 PUSH2 0x5001 JUMP JUMPDEST PUSH1 0x40 MLOAD DUP1 PUSH1 0x40 ADD PUSH1 0x40 MSTORE DUP1 PUSH1 0x13 DUP2 MSTORE PUSH1 0x20 ADD PUSH1 0x0 DUP1 MLOAD PUSH1 0x20 PUSH2 0x51BE DUP4 CODECOPY DUP2 MLOAD SWAP2 MSTORE DUP2 MSTORE POP SWAP1 PUSH2 0x27AF JUMPI PUSH1 0x40 MLOAD PUSH3 0x461BCD PUSH1 0xE5 SHL DUP2 MSTORE PUSH1 0x4 ADD PUSH2 0xB9B SWAP2 SWAP1 PUSH2 0x5023 JUMP JUMPDEST POP PUSH2 0x1055 PUSH16 0x2A30B933B2BA20B63637B1B0BA34B7B7 PUSH1 0x81 SHL DUP4 PUSH2 0x3524 JUMP JUMPDEST PUSH1 0x0 PUSH2 0x27D7 PUSH2 0x33CE JUMP JUMPDEST PUSH1 0x1 PUSH1 0x1 PUSH1 0xA0 SHL SUB AND PUSH4 0x91D14854 PUSH10 0x676F7665726E616E6365 PUSH1 0xB0 SHL CALLER PUSH1 0x40 MLOAD DUP4 PUSH4 0xFFFFFFFF AND PUSH1 0xE0 SHL DUP2 MSTORE PUSH1 0x4 ADD PUSH2 0x2811 SWAP3 SWAP2 SWAP1 PUSH2 0x4FEA JUMP JUMPDEST PUSH1 0x20 PUSH1 0x40 MLOAD DUP1 DUP4 SUB DUP2 DUP7 DUP1 EXTCODESIZE ISZERO DUP1 ISZERO PUSH2 0x2829 JUMPI PUSH1 0x0 DUP1 REVERT JUMPDEST POP GAS STATICCALL ISZERO DUP1 ISZERO PUSH2 0x283D JUMPI RETURNDATASIZE PUSH1 0x0 DUP1 RETURNDATACOPY RETURNDATASIZE PUSH1 0x0 REVERT JUMPDEST POP POP POP POP PUSH1 0x40 MLOAD RETURNDATASIZE PUSH1 0x1F NOT PUSH1 0x1F DUP3 ADD AND DUP3 ADD DUP1 PUSH1 0x40 MSTORE POP DUP2 ADD SWAP1 PUSH2 0x2861 SWAP2 SWAP1 PUSH2 0x5001 JUMP JUMPDEST PUSH1 0x40 MLOAD DUP1 PUSH1 0x40 ADD PUSH1 0x40 MSTORE DUP1 PUSH1 0x13 DUP2 MSTORE PUSH1 0x20 ADD PUSH1 0x0 DUP1 MLOAD PUSH1 0x20 PUSH2 0x51BE DUP4 CODECOPY DUP2 MLOAD SWAP2 MSTORE DUP2 MSTORE POP SWAP1 PUSH2 0x28A3 JUMPI PUSH1 0x40 MLOAD PUSH3 0x461BCD PUSH1 0xE5 SHL DUP2 MSTORE PUSH1 0x4 ADD PUSH2 0xB9B SWAP2 SWAP1 PUSH2 0x5023 JUMP JUMPDEST POP PUSH2 0xA80 PUSH5 0x109BDD5B99 PUSH1 0xDA SHL PUSH2 0x33F2 JUMP JUMPDEST PUSH1 0x2 SLOAD PUSH1 0x0 SWAP1 PUSH1 0x1 PUSH1 0x1 PUSH1 0xA0 SHL SUB AND CALLER EQ DUP1 PUSH2 0x295E JUMPI POP PUSH2 0x28D4 PUSH2 0x33CE JUMP JUMPDEST PUSH1 0x1 PUSH1 0x1 PUSH1 0xA0 SHL SUB AND PUSH4 0x91D14854 PUSH10 0x676F7665726E616E6365 PUSH1 0xB0 SHL CALLER PUSH1 0x40 MLOAD DUP4 PUSH4 0xFFFFFFFF AND PUSH1 0xE0 SHL DUP2 MSTORE PUSH1 0x4 ADD PUSH2 0x290E SWAP3 SWAP2 SWAP1 PUSH2 0x4FEA JUMP JUMPDEST PUSH1 0x20 PUSH1 0x40 MLOAD DUP1 DUP4 SUB DUP2 DUP7 DUP1 EXTCODESIZE ISZERO DUP1 ISZERO PUSH2 0x2926 JUMPI PUSH1 0x0 DUP1 REVERT JUMPDEST POP GAS STATICCALL ISZERO DUP1 ISZERO PUSH2 0x293A JUMPI RETURNDATASIZE PUSH1 0x0 DUP1 RETURNDATACOPY RETURNDATASIZE PUSH1 0x0 REVERT JUMPDEST POP POP POP POP PUSH1 0x40 MLOAD RETURNDATASIZE PUSH1 0x1F NOT PUSH1 0x1F DUP3 ADD AND DUP3 ADD DUP1 PUSH1 0x40 MSTORE POP DUP2 ADD SWAP1 PUSH2 0x295E SWAP2 SWAP1 PUSH2 0x5001 JUMP JUMPDEST PUSH1 0x40 MLOAD DUP1 PUSH1 0x40 ADD PUSH1 0x40 MSTORE DUP1 PUSH1 0x13 DUP2 MSTORE PUSH1 0x20 ADD PUSH1 0x0 DUP1 MLOAD PUSH1 0x20 PUSH2 0x51BE DUP4 CODECOPY DUP2 MLOAD SWAP2 MSTORE DUP2 MSTORE POP SWAP1 PUSH2 0x29A0 JUMPI PUSH1 0x40 MLOAD PUSH3 0x461BCD PUSH1 0xE5 SHL DUP2 MSTORE PUSH1 0x4 ADD PUSH2 0xB9B SWAP2 SWAP1 PUSH2 0x5023 JUMP JUMPDEST POP PUSH2 0xA80 PUSH2 0x3E87 JUMP JUMPDEST PUSH1 0x0 PUSH2 0x29B3 PUSH2 0x33CE JUMP JUMPDEST PUSH1 0x1 PUSH1 0x1 PUSH1 0xA0 SHL SUB AND PUSH4 0x91D14854 PUSH10 0x676F7665726E616E6365 PUSH1 0xB0 SHL CALLER PUSH1 0x40 MLOAD DUP4 PUSH4 0xFFFFFFFF AND PUSH1 0xE0 SHL DUP2 MSTORE PUSH1 0x4 ADD PUSH2 0x29ED SWAP3 SWAP2 SWAP1 PUSH2 0x4FEA JUMP JUMPDEST PUSH1 0x20 PUSH1 0x40 MLOAD DUP1 DUP4 SUB DUP2 DUP7 DUP1 EXTCODESIZE ISZERO DUP1 ISZERO PUSH2 0x2A05 JUMPI PUSH1 0x0 DUP1 REVERT JUMPDEST POP GAS STATICCALL ISZERO DUP1 ISZERO PUSH2 0x2A19 JUMPI RETURNDATASIZE PUSH1 0x0 DUP1 RETURNDATACOPY RETURNDATASIZE PUSH1 0x0 REVERT JUMPDEST POP POP POP POP PUSH1 0x40 MLOAD RETURNDATASIZE PUSH1 0x1F NOT PUSH1 0x1F DUP3 ADD AND DUP3 ADD DUP1 PUSH1 0x40 MSTORE POP DUP2 ADD SWAP1 PUSH2 0x2A3D SWAP2 SWAP1 PUSH2 0x5001 JUMP JUMPDEST PUSH1 0x40 MLOAD DUP1 PUSH1 0x40 ADD PUSH1 0x40 MSTORE DUP1 PUSH1 0x13 DUP2 MSTORE PUSH1 0x20 ADD PUSH1 0x0 DUP1 MLOAD PUSH1 0x20 PUSH2 0x51BE DUP4 CODECOPY DUP2 MLOAD SWAP2 MSTORE DUP2 MSTORE POP SWAP1 PUSH2 0x2A7F JUMPI PUSH1 0x40 MLOAD PUSH3 0x461BCD PUSH1 0xE5 SHL DUP2 MSTORE PUSH1 0x4 ADD PUSH2 0xB9B SWAP2 SWAP1 PUSH2 0x5023 JUMP JUMPDEST POP PUSH2 0x1055 PUSH8 0x5374726174656779 PUSH1 0xC0 SHL DUP4 PUSH3 0x69780 PUSH2 0x4186 JUMP JUMPDEST PUSH1 0x0 SELFBALANCE DUP2 PUSH2 0x2AA5 PUSH2 0xA85 JUMP JUMPDEST PUSH1 0x1 PUSH1 0x1 PUSH1 0xA0 SHL SUB AND EQ ISZERO PUSH2 0x2AB9 JUMPI SWAP2 SWAP1 POP JUMP JUMPDEST PUSH1 0x0 PUSH1 0x1 SLOAD PUSH1 0x0 SLOAD DUP4 PUSH2 0x2ACC SWAP2 SWAP1 PUSH2 0x50BE JUMP JUMPDEST PUSH2 0x2AD6 SWAP2 SWAP1 PUSH2 0x50BE JUMP JUMPDEST SWAP1 POP DUP1 PUSH1 0x3 SLOAD GT PUSH2 0x2AF5 JUMPI PUSH1 0x3 SLOAD PUSH2 0x2AEE SWAP1 DUP3 PUSH2 0x50A7 JUMP JUMPDEST SWAP3 POP POP POP SWAP1 JUMP JUMPDEST PUSH1 0x0 SWAP3 POP POP POP SWAP1 JUMP JUMPDEST PUSH1 0x0 PUSH2 0x2B08 PUSH2 0x33CE JUMP JUMPDEST PUSH1 0x1 PUSH1 0x1 PUSH1 0xA0 SHL SUB AND PUSH4 0x91D14854 PUSH10 0x676F7665726E616E6365 PUSH1 0xB0 SHL CALLER PUSH1 0x40 MLOAD DUP4 PUSH4 0xFFFFFFFF AND PUSH1 0xE0 SHL DUP2 MSTORE PUSH1 0x4 ADD PUSH2 0x2B42 SWAP3 SWAP2 SWAP1 PUSH2 0x4FEA JUMP JUMPDEST PUSH1 0x20 PUSH1 0x40 MLOAD DUP1 DUP4 SUB DUP2 DUP7 DUP1 EXTCODESIZE ISZERO DUP1 ISZERO PUSH2 0x2B5A JUMPI PUSH1 0x0 DUP1 REVERT JUMPDEST POP GAS STATICCALL ISZERO DUP1 ISZERO PUSH2 0x2B6E JUMPI RETURNDATASIZE PUSH1 0x0 DUP1 RETURNDATACOPY RETURNDATASIZE PUSH1 0x0 REVERT JUMPDEST POP POP POP POP PUSH1 0x40 MLOAD RETURNDATASIZE PUSH1 0x1F NOT PUSH1 0x1F DUP3 ADD AND DUP3 ADD DUP1 PUSH1 0x40 MSTORE POP DUP2 ADD SWAP1 PUSH2 0x2B92 SWAP2 SWAP1 PUSH2 0x5001 JUMP JUMPDEST PUSH1 0x40 MLOAD DUP1 PUSH1 0x40 ADD PUSH1 0x40 MSTORE DUP1 PUSH1 0x13 DUP2 MSTORE PUSH1 0x20 ADD PUSH1 0x0 DUP1 MLOAD PUSH1 0x20 PUSH2 0x51BE DUP4 CODECOPY DUP2 MLOAD SWAP2 MSTORE DUP2 MSTORE POP SWAP1 PUSH2 0x2BD4 JUMPI PUSH1 0x40 MLOAD PUSH3 0x461BCD PUSH1 0xE5 SHL DUP2 MSTORE PUSH1 0x4 ADD PUSH2 0xB9B SWAP2 SWAP1 PUSH2 0x5023 JUMP JUMPDEST POP PUSH1 0x40 DUP1 MLOAD DUP1 DUP3 ADD SWAP1 SWAP2 MSTORE PUSH1 0xE DUP2 MSTORE PUSH14 0x1A5B9D985B1A5908185B5BDD5B9D PUSH1 0x92 SHL PUSH1 0x20 DUP3 ADD MSTORE PUSH8 0x6F05B59D3B20000 DUP4 GT ISZERO PUSH2 0x2C23 JUMPI PUSH1 0x40 MLOAD PUSH3 0x461BCD PUSH1 0xE5 SHL DUP2 MSTORE PUSH1 0x4 ADD PUSH2 0xB9B SWAP2 SWAP1 PUSH2 0x5023 JUMP JUMPDEST POP PUSH2 0x1055 PUSH14 0x506572666F726D616E6365466565 PUSH1 0x90 SHL DUP4 PUSH2 0x3524 JUMP JUMPDEST PUSH1 0x0 DUP1 PUSH2 0x16C9 PUSH16 0x2A30B933B2BA20B63637B1B0BA34B7B7 PUSH1 0x81 SHL PUSH2 0x382B JUMP JUMPDEST PUSH1 0x2 SLOAD PUSH1 0x1 PUSH1 0x1 PUSH1 0xA0 SHL SUB AND CALLER EQ DUP1 PUSH2 0x2D05 JUMPI POP PUSH2 0x2C7A PUSH2 0x33CE JUMP JUMPDEST PUSH1 0x1 PUSH1 0x1 PUSH1 0xA0 SHL SUB AND PUSH4 0x91D14854 PUSH11 0x6D61696E74656E616E6365 PUSH1 0xA8 SHL CALLER PUSH1 0x40 MLOAD DUP4 PUSH4 0xFFFFFFFF AND PUSH1 0xE0 SHL DUP2 MSTORE PUSH1 0x4 ADD PUSH2 0x2CB5 SWAP3 SWAP2 SWAP1 PUSH2 0x4FEA JUMP JUMPDEST PUSH1 0x20 PUSH1 0x40 MLOAD DUP1 DUP4 SUB DUP2 DUP7 DUP1 EXTCODESIZE ISZERO DUP1 ISZERO PUSH2 0x2CCD JUMPI PUSH1 0x0 DUP1 REVERT JUMPDEST POP GAS STATICCALL ISZERO DUP1 ISZERO PUSH2 0x2CE1 JUMPI RETURNDATASIZE PUSH1 0x0 DUP1 RETURNDATACOPY RETURNDATASIZE PUSH1 0x0 REVERT JUMPDEST POP POP POP POP PUSH1 0x40 MLOAD RETURNDATASIZE PUSH1 0x1F NOT PUSH1 0x1F DUP3 ADD AND DUP3 ADD DUP1 PUSH1 0x40 MSTORE POP DUP2 ADD SWAP1 PUSH2 0x2D05 SWAP2 SWAP1 PUSH2 0x5001 JUMP JUMPDEST PUSH1 0x40 MLOAD DUP1 PUSH1 0x40 ADD PUSH1 0x40 MSTORE DUP1 PUSH1 0x13 DUP2 MSTORE PUSH1 0x20 ADD PUSH1 0x0 DUP1 MLOAD PUSH1 0x20 PUSH2 0x51BE DUP4 CODECOPY DUP2 MLOAD SWAP2 MSTORE DUP2 MSTORE POP SWAP1 PUSH2 0x2D47 JUMPI PUSH1 0x40 MLOAD PUSH3 0x461BCD PUSH1 0xE5 SHL DUP2 MSTORE PUSH1 0x4 ADD PUSH2 0xB9B SWAP2 SWAP1 PUSH2 0x5023 JUMP JUMPDEST POP PUSH2 0x2193 PUSH2 0x384F JUMP JUMPDEST PUSH1 0x0 DUP1 PUSH2 0x2D69 PUSH10 0x52657365727665466565 PUSH1 0xB0 SHL PUSH2 0x382B JUMP JUMPDEST SWAP1 POP PUSH2 0x16D3 DUP2 PUSH2 0x113E PUSH2 0x1FDD JUMP JUMPDEST PUSH1 0x0 DUP1 PUSH2 0x2D8F PUSH9 0x1119589D131A5B5A5D PUSH1 0xBA SHL PUSH2 0x382B JUMP JUMPDEST SWAP1 POP PUSH1 0x0 PUSH2 0x2DA8 DUP3 PUSH1 0x0 SLOAD PUSH2 0x359B SWAP1 SWAP2 SWAP1 PUSH4 0xFFFFFFFF AND JUMP JUMPDEST SWAP1 POP DUP1 PUSH1 0x3 SLOAD LT PUSH2 0x2DBB JUMPI PUSH2 0x2DBB PUSH2 0x4203 JUMP JUMPDEST POP SWAP2 SWAP1 POP JUMP JUMPDEST PUSH1 0x0 PUSH2 0x2DCB PUSH2 0x33CE JUMP JUMPDEST PUSH1 0x1 PUSH1 0x1 PUSH1 0xA0 SHL SUB AND PUSH4 0x91D14854 PUSH10 0x676F7665726E616E6365 PUSH1 0xB0 SHL CALLER PUSH1 0x40 MLOAD DUP4 PUSH4 0xFFFFFFFF AND PUSH1 0xE0 SHL DUP2 MSTORE PUSH1 0x4 ADD PUSH2 0x2E05 SWAP3 SWAP2 SWAP1 PUSH2 0x4FEA JUMP JUMPDEST PUSH1 0x20 PUSH1 0x40 MLOAD DUP1 DUP4 SUB DUP2 DUP7 DUP1 EXTCODESIZE ISZERO DUP1 ISZERO PUSH2 0x2E1D JUMPI PUSH1 0x0 DUP1 REVERT JUMPDEST POP GAS STATICCALL ISZERO DUP1 ISZERO PUSH2 0x2E31 JUMPI RETURNDATASIZE PUSH1 0x0 DUP1 RETURNDATACOPY RETURNDATASIZE PUSH1 0x0 REVERT JUMPDEST POP POP POP POP PUSH1 0x40 MLOAD RETURNDATASIZE PUSH1 0x1F NOT PUSH1 0x1F DUP3 ADD AND DUP3 ADD DUP1 PUSH1 0x40 MSTORE POP DUP2 ADD SWAP1 PUSH2 0x2E55 SWAP2 SWAP1 PUSH2 0x5001 JUMP JUMPDEST PUSH1 0x40 MLOAD DUP1 PUSH1 0x40 ADD PUSH1 0x40 MSTORE DUP1 PUSH1 0x13 DUP2 MSTORE PUSH1 0x20 ADD PUSH1 0x0 DUP1 MLOAD PUSH1 0x20 PUSH2 0x51BE DUP4 CODECOPY DUP2 MLOAD SWAP2 MSTORE DUP2 MSTORE POP SWAP1 PUSH2 0x2E97 JUMPI PUSH1 0x40 MLOAD PUSH3 0x461BCD PUSH1 0xE5 SHL DUP2 MSTORE PUSH1 0x4 ADD PUSH2 0xB9B SWAP2 SWAP1 PUSH2 0x5023 JUMP JUMPDEST POP PUSH2 0xA80 PUSH14 0x506572666F726D616E6365466565 PUSH1 0x90 SHL PUSH2 0x33F2 JUMP JUMPDEST PUSH1 0x0 PUSH2 0x2EBC PUSH2 0x33CE JUMP JUMPDEST PUSH1 0x1 PUSH1 0x1 PUSH1 0xA0 SHL SUB AND PUSH4 0x91D14854 PUSH10 0x676F7665726E616E6365 PUSH1 0xB0 SHL CALLER PUSH1 0x40 MLOAD DUP4 PUSH4 0xFFFFFFFF AND PUSH1 0xE0 SHL DUP2 MSTORE PUSH1 0x4 ADD PUSH2 0x2EF6 SWAP3 SWAP2 SWAP1 PUSH2 0x4FEA JUMP JUMPDEST PUSH1 0x20 PUSH1 0x40 MLOAD DUP1 DUP4 SUB DUP2 DUP7 DUP1 EXTCODESIZE ISZERO DUP1 ISZERO PUSH2 0x2F0E JUMPI PUSH1 0x0 DUP1 REVERT JUMPDEST POP GAS STATICCALL ISZERO DUP1 ISZERO PUSH2 0x2F22 JUMPI RETURNDATASIZE PUSH1 0x0 DUP1 RETURNDATACOPY RETURNDATASIZE PUSH1 0x0 REVERT JUMPDEST POP POP POP POP PUSH1 0x40 MLOAD RETURNDATASIZE PUSH1 0x1F NOT PUSH1 0x1F DUP3 ADD AND DUP3 ADD DUP1 PUSH1 0x40 MSTORE POP DUP2 ADD SWAP1 PUSH2 0x2F46 SWAP2 SWAP1 PUSH2 0x5001 JUMP JUMPDEST PUSH1 0x40 MLOAD DUP1 PUSH1 0x40 ADD PUSH1 0x40 MSTORE DUP1 PUSH1 0x13 DUP2 MSTORE PUSH1 0x20 ADD PUSH1 0x0 DUP1 MLOAD PUSH1 0x20 PUSH2 0x51BE DUP4 CODECOPY DUP2 MLOAD SWAP2 MSTORE DUP2 MSTORE POP SWAP1 PUSH2 0x2F88 JUMPI PUSH1 0x40 MLOAD PUSH3 0x461BCD PUSH1 0xE5 SHL DUP2 MSTORE PUSH1 0x4 ADD PUSH2 0xB9B SWAP2 SWAP1 PUSH2 0x5023 JUMP JUMPDEST POP PUSH2 0xA80 PUSH9 0x1119589D131A5B5A5D PUSH1 0xBA SHL PUSH2 0x33F2 JUMP JUMPDEST PUSH1 0x0 PUSH2 0xA80 PUSH14 0x506572666F726D616E6365466565 PUSH1 0x90 SHL PUSH2 0x382B JUMP JUMPDEST PUSH1 0x0 DUP1 DUP1 PUSH2 0x2FC9 PUSH1 0x5 DUP6 PUSH2 0x4220 JUMP JUMPDEST SWAP2 POP SWAP2 POP DUP2 PUSH1 0x40 MLOAD DUP1 PUSH1 0x40 ADD PUSH1 0x40 MSTORE DUP1 PUSH1 0x17 DUP2 MSTORE PUSH1 0x20 ADD PUSH32 0x537472617465677920646F6573206E6F74206578697374000000000000000000 DUP2 MSTORE POP SWAP1 PUSH2 0x3022 JUMPI PUSH1 0x40 MLOAD PUSH3 0x461BCD PUSH1 0xE5 SHL DUP2 MSTORE PUSH1 0x4 ADD PUSH2 0xB9B SWAP2 SWAP1 PUSH2 0x5023 JUMP JUMPDEST POP PUSH1 0x0 DUP5 SWAP1 POP DUP1 PUSH1 0x1 PUSH1 0x1 PUSH1 0xA0 SHL SUB AND PUSH4 0x4641257D PUSH1 0x40 MLOAD DUP2 PUSH4 0xFFFFFFFF AND PUSH1 0xE0 SHL DUP2 MSTORE PUSH1 0x4 ADD PUSH1 0x20 PUSH1 0x40 MLOAD DUP1 DUP4 SUB DUP2 PUSH1 0x0 DUP8 DUP1 EXTCODESIZE ISZERO DUP1 ISZERO PUSH2 0x3063 JUMPI PUSH1 0x0 DUP1 REVERT JUMPDEST POP GAS CALL ISZERO DUP1 ISZERO PUSH2 0x3077 JUMPI RETURNDATASIZE PUSH1 0x0 DUP1 RETURNDATACOPY RETURNDATASIZE PUSH1 0x0 REVERT JUMPDEST POP POP POP POP PUSH1 0x40 MLOAD RETURNDATASIZE PUSH1 0x1F NOT PUSH1 0x1F DUP3 ADD AND DUP3 ADD DUP1 PUSH1 0x40 MSTORE POP DUP2 ADD SWAP1 PUSH2 0x309B SWAP2 SWAP1 PUSH2 0x5078 JUMP JUMPDEST POP PUSH1 0x0 DUP2 PUSH1 0x1 PUSH1 0x1 PUSH1 0xA0 SHL SUB AND PUSH4 0x853828B6 PUSH1 0x40 MLOAD DUP2 PUSH4 0xFFFFFFFF AND PUSH1 0xE0 SHL DUP2 MSTORE PUSH1 0x4 ADD PUSH1 0x20 PUSH1 0x40 MLOAD DUP1 DUP4 SUB DUP2 PUSH1 0x0 DUP8 DUP1 EXTCODESIZE ISZERO DUP1 ISZERO PUSH2 0x30D9 JUMPI PUSH1 0x0 DUP1 REVERT JUMPDEST POP GAS CALL ISZERO DUP1 ISZERO PUSH2 0x30ED JUMPI RETURNDATASIZE PUSH1 0x0 DUP1 RETURNDATACOPY RETURNDATASIZE PUSH1 0x0 REVERT JUMPDEST POP POP POP POP PUSH1 0x40 MLOAD RETURNDATASIZE PUSH1 0x1F NOT PUSH1 0x1F DUP3 ADD AND DUP3 ADD DUP1 PUSH1 0x40 MSTORE POP DUP2 ADD SWAP1 PUSH2 0x3111 SWAP2 SWAP1 PUSH2 0x5078 JUMP JUMPDEST PUSH1 0x1 SLOAD SWAP1 SWAP2 POP DUP1 DUP3 LT PUSH2 0x3128 JUMPI PUSH1 0x0 PUSH1 0x1 SSTORE PUSH2 0x3136 JUMP JUMPDEST PUSH2 0x3132 DUP3 DUP3 PUSH2 0x50A7 JUMP JUMPDEST PUSH1 0x1 SSTORE JUMPDEST DUP4 DUP3 GT ISZERO PUSH2 0x3221 JUMPI PUSH1 0x0 PUSH2 0x314A DUP6 DUP5 PUSH2 0x50A7 JUMP JUMPDEST SWAP1 POP PUSH1 0x0 PUSH2 0x3168 PUSH2 0x3163 PUSH2 0x315C PUSH2 0x1326 JUMP JUMPDEST DUP5 SWAP1 PUSH2 0x359B JUMP JUMPDEST PUSH2 0x4247 JUMP JUMPDEST SWAP1 POP DUP1 ISZERO PUSH2 0x31EA JUMPI PUSH2 0x31EA DUP2 DUP7 PUSH1 0x1 PUSH1 0x1 PUSH1 0xA0 SHL SUB AND PUSH4 0x1FE4A686 PUSH1 0x40 MLOAD DUP2 PUSH4 0xFFFFFFFF AND PUSH1 0xE0 SHL DUP2 MSTORE PUSH1 0x4 ADD PUSH1 0x20 PUSH1 0x40 MLOAD DUP1 DUP4 SUB DUP2 DUP7 DUP1 EXTCODESIZE ISZERO DUP1 ISZERO PUSH2 0x31AD JUMPI PUSH1 0x0 DUP1 REVERT JUMPDEST POP GAS STATICCALL ISZERO DUP1 ISZERO PUSH2 0x31C1 JUMPI RETURNDATASIZE PUSH1 0x0 DUP1 RETURNDATACOPY RETURNDATASIZE PUSH1 0x0 REVERT JUMPDEST POP POP POP POP PUSH1 0x40 MLOAD RETURNDATASIZE PUSH1 0x1F NOT PUSH1 0x1F DUP3 ADD AND DUP3 ADD DUP1 PUSH1 0x40 MSTORE POP DUP2 ADD SWAP1 PUSH2 0x31E5 SWAP2 SWAP1 PUSH2 0x50D6 JUMP JUMPDEST PUSH2 0x42A7 JUMP JUMPDEST PUSH1 0x40 MLOAD PUSH1 0x0 SWAP7 POP DUP7 SWAP1 DUP4 SWAP1 PUSH32 0x6C8433A8E155F0AF04DBA058D4E4695F7DA554578963D876BDF4A6D8D6399D9C SWAP1 DUP4 SWAP1 LOG3 POP POP PUSH2 0x322E JUMP JUMPDEST PUSH2 0x322B DUP3 DUP6 PUSH2 0x50A7 JUMP JUMPDEST SWAP4 POP JUMPDEST DUP3 PUSH1 0x1 PUSH1 0x1 PUSH1 0xA0 SHL SUB AND PUSH4 0xB69EF8A8 PUSH1 0x40 MLOAD DUP2 PUSH4 0xFFFFFFFF AND PUSH1 0xE0 SHL DUP2 MSTORE PUSH1 0x4 ADD PUSH1 0x20 PUSH1 0x40 MLOAD DUP1 DUP4 SUB DUP2 DUP7 DUP1 EXTCODESIZE ISZERO DUP1 ISZERO PUSH2 0x3267 JUMPI PUSH1 0x0 DUP1 REVERT JUMPDEST POP GAS STATICCALL ISZERO DUP1 ISZERO PUSH2 0x327B JUMPI RETURNDATASIZE PUSH1 0x0 DUP1 RETURNDATACOPY RETURNDATASIZE PUSH1 0x0 REVERT JUMPDEST POP POP POP POP PUSH1 0x40 MLOAD RETURNDATASIZE PUSH1 0x1F NOT PUSH1 0x1F DUP3 ADD AND DUP3 ADD DUP1 PUSH1 0x40 MSTORE POP DUP2 ADD SWAP1 PUSH2 0x329F SWAP2 SWAP1 PUSH2 0x5078 JUMP JUMPDEST PUSH2 0x32B4 JUMPI PUSH2 0x32AE PUSH1 0x5 DUP5 PUSH2 0x4341 JUMP JUMPDEST POP PUSH2 0x32C2 JUMP JUMPDEST PUSH2 0x32C0 PUSH1 0x5 DUP5 DUP7 PUSH2 0x4168 JUMP JUMPDEST POP JUMPDEST POP SWAP6 SWAP5 POP POP POP POP POP JUMP JUMPDEST PUSH10 0x52657365727665466565 PUSH1 0xB0 SHL PUSH1 0x0 MSTORE PUSH1 0x3D PUSH1 0x20 MSTORE PUSH32 0xA61F8E25CB35BA15FC70BBD3BA789D53BF34A4DEDDB38A43A213AF3182D35AAE SLOAD SWAP1 JUMP JUMPDEST PUSH1 0x40 MLOAD PUSH4 0x21F8A721 PUSH1 0xE0 SHL DUP2 MSTORE PUSH11 0x3937B632A6B0B730B3B2B9 PUSH1 0xA9 SHL PUSH1 0x4 DUP3 ADD MSTORE PUSH1 0x0 SWAP1 PUSH1 0x1 PUSH1 0x1 PUSH1 0xA0 SHL SUB DUP4 AND SWAP1 PUSH4 0x21F8A721 SWAP1 PUSH1 0x24 ADD JUMPDEST PUSH1 0x20 PUSH1 0x40 MLOAD DUP1 DUP4 SUB DUP2 DUP7 DUP1 EXTCODESIZE ISZERO DUP1 ISZERO PUSH2 0x3358 JUMPI PUSH1 0x0 DUP1 REVERT JUMPDEST POP GAS STATICCALL ISZERO DUP1 ISZERO PUSH2 0x336C JUMPI RETURNDATASIZE PUSH1 0x0 DUP1 RETURNDATACOPY RETURNDATASIZE PUSH1 0x0 REVERT JUMPDEST POP POP POP POP PUSH1 0x40 MLOAD RETURNDATASIZE PUSH1 0x1F NOT PUSH1 0x1F DUP3 ADD AND DUP3 ADD DUP1 PUSH1 0x40 MSTORE POP DUP2 ADD SWAP1 PUSH2 0x1055 SWAP2 SWAP1 PUSH2 0x50D6 JUMP JUMPDEST PUSH1 0x40 MLOAD PUSH4 0x21F8A721 PUSH1 0xE0 SHL DUP2 MSTORE PUSH12 0x7661756C7452657365727665 PUSH1 0xA0 SHL PUSH1 0x4 DUP3 ADD MSTORE PUSH1 0x0 SWAP1 PUSH1 0x1 PUSH1 0x1 PUSH1 0xA0 SHL SUB DUP4 AND SWAP1 PUSH4 0x21F8A721 SWAP1 PUSH1 0x24 ADD PUSH2 0x3340 JUMP JUMPDEST PUSH32 0x0 SWAP1 JUMP JUMPDEST PUSH1 0x0 DUP2 DUP2 MSTORE PUSH1 0x3E PUSH1 0x20 SWAP1 DUP2 MSTORE PUSH1 0x40 DUP1 DUP4 KECCAK256 SLOAD DUP2 MLOAD DUP1 DUP4 ADD SWAP1 SWAP3 MSTORE PUSH1 0x12 DUP3 MSTORE PUSH18 0x646561646C696E65206D757374206265203 PUSH1 0x74 SHL SWAP3 DUP3 ADD SWAP3 SWAP1 SWAP3 MSTORE SWAP1 PUSH2 0x344B JUMPI PUSH1 0x40 MLOAD PUSH3 0x461BCD PUSH1 0xE5 SHL DUP2 MSTORE PUSH1 0x4 ADD PUSH2 0xB9B SWAP2 SWAP1 PUSH2 0x5023 JUMP JUMPDEST POP PUSH1 0x0 DUP3 DUP2 MSTORE PUSH1 0x3E PUSH1 0x20 SWAP1 DUP2 MSTORE PUSH1 0x40 DUP1 DUP4 KECCAK256 DUP4 SWAP1 SSTORE PUSH1 0x3B SWAP1 SWAP2 MSTORE DUP1 DUP3 KECCAK256 DUP3 SWAP1 SSTORE MLOAD DUP4 SWAP2 PUSH32 0x90FB84AD67DD037C388289337BB80B61B8605D38BA9A875DC38B5600909D172F SWAP2 LOG2 POP PUSH1 0x1 SWAP2 SWAP1 POP JUMP JUMPDEST PUSH8 0xDE0B6B3A7640000 PUSH2 0x34AC DUP3 DUP5 PUSH2 0x50BE JUMP JUMPDEST GT ISZERO PUSH2 0x3520 JUMPI PUSH1 0x40 MLOAD PUSH3 0x461BCD PUSH1 0xE5 SHL DUP2 MSTORE PUSH1 0x20 PUSH1 0x4 DUP3 ADD MSTORE PUSH1 0x37 PUSH1 0x24 DUP3 ADD MSTORE PUSH32 0x73756D206F6620737472617465676973742066656520616E6420726573657276 PUSH1 0x44 DUP3 ADD MSTORE PUSH32 0x65206665652073686F756C642062652062656C6F772031000000000000000000 PUSH1 0x64 DUP3 ADD MSTORE PUSH1 0x84 ADD PUSH2 0xB9B JUMP JUMPDEST POP POP JUMP JUMPDEST PUSH1 0x0 PUSH2 0x3534 DUP4 DUP4 PUSH3 0x3F480 PUSH2 0x4356 JUMP JUMPDEST SWAP4 SWAP3 POP POP POP JUMP JUMPDEST PUSH1 0x4 SLOAD PUSH1 0x0 SWAP1 PUSH1 0xFF AND PUSH2 0x354E JUMPI POP PUSH1 0x0 SWAP1 JUMP JUMPDEST PUSH1 0x4 DUP1 SLOAD PUSH1 0xFF NOT AND SWAP1 SSTORE PUSH2 0x3560 PUSH2 0xA85 JUMP JUMPDEST PUSH1 0x1 PUSH1 0x1 PUSH1 0xA0 SHL SUB AND PUSH32 0x274EC28D31430170AD5DD350F8E7505FFAB078C309300878C710383AE4CBED49 PUSH1 0x40 MLOAD PUSH1 0x40 MLOAD DUP1 SWAP2 SUB SWAP1 LOG2 POP PUSH1 0x1 SWAP1 JUMP JUMPDEST PUSH1 0x0 PUSH8 0xDE0B6B3A7640000 PUSH2 0x35B0 DUP4 DUP6 PUSH2 0x50F3 JUMP JUMPDEST PUSH2 0x3534 SWAP2 SWAP1 PUSH2 0x5112 JUMP JUMPDEST PUSH1 0x0 DUP2 DUP4 GT ISZERO PUSH2 0x35D5 JUMPI PUSH2 0x35CE DUP3 DUP5 PUSH2 0x50A7 JUMP JUMPDEST SWAP1 POP PUSH2 0x1055 JUMP JUMPDEST POP PUSH1 0x0 SWAP3 SWAP2 POP POP JUMP JUMPDEST PUSH1 0x4 SLOAD PUSH1 0x0 SWAP1 PUSH1 0xFF AND PUSH2 0x35F3 JUMPI POP PUSH1 0x0 PUSH2 0x1055 JUMP JUMPDEST PUSH1 0x0 PUSH2 0x35FD PUSH2 0x1F9C JUMP JUMPDEST SWAP1 POP PUSH1 0x0 PUSH2 0x3609 PUSH2 0xA85 JUMP JUMPDEST SWAP1 POP PUSH1 0x0 PUSH2 0x3615 PUSH2 0x2055 JUMP JUMPDEST SWAP1 POP PUSH1 0x0 PUSH2 0x3623 DUP8 DUP6 PUSH2 0x359B JUMP JUMPDEST SWAP1 POP PUSH1 0x0 DUP5 ISZERO PUSH2 0x363C JUMPI PUSH2 0x3637 DUP4 DUP7 PUSH2 0x50BE JUMP JUMPDEST PUSH2 0x363F JUMP JUMPDEST PUSH1 0x0 JUMPDEST SWAP1 POP PUSH8 0xDE0B6B3A7640000 DUP2 GT PUSH2 0x3656 JUMPI DUP1 PUSH2 0x3660 JUMP JUMPDEST PUSH8 0xDE0B6B3A7640000 JUMPDEST SWAP1 POP PUSH1 0x0 DUP6 DUP5 GT PUSH2 0x367A JUMPI PUSH2 0x3675 DUP5 DUP8 PUSH2 0x50A7 JUMP JUMPDEST PUSH2 0x367D JUMP JUMPDEST PUSH1 0x0 JUMPDEST SWAP1 POP PUSH2 0x3689 DUP10 DUP4 PUSH2 0x359B JUMP JUMPDEST DUP9 GT ISZERO PUSH2 0x372F JUMPI PUSH1 0x0 PUSH2 0x369C DUP5 DUP11 PUSH2 0x50A7 JUMP JUMPDEST PUSH1 0x40 MLOAD PUSH4 0x2E1A7D4D PUSH1 0xE0 SHL DUP2 MSTORE PUSH1 0x4 DUP2 ADD DUP3 SWAP1 MSTORE SWAP1 SWAP2 POP PUSH1 0x1 PUSH1 0x1 PUSH1 0xA0 SHL SUB DUP8 AND SWAP1 PUSH4 0x2E1A7D4D SWAP1 PUSH1 0x24 ADD PUSH1 0x20 PUSH1 0x40 MLOAD DUP1 DUP4 SUB DUP2 PUSH1 0x0 DUP8 DUP1 EXTCODESIZE ISZERO DUP1 ISZERO PUSH2 0x36E1 JUMPI PUSH1 0x0 DUP1 REVERT JUMPDEST POP GAS CALL ISZERO DUP1 ISZERO PUSH2 0x36F5 JUMPI RETURNDATASIZE PUSH1 0x0 DUP1 RETURNDATACOPY RETURNDATASIZE PUSH1 0x0 REVERT JUMPDEST POP POP POP POP PUSH1 0x40 MLOAD RETURNDATASIZE PUSH1 0x1F NOT PUSH1 0x1F DUP3 ADD AND DUP3 ADD DUP1 PUSH1 0x40 MSTORE POP DUP2 ADD SWAP1 PUSH2 0x3719 SWAP2 SWAP1 PUSH2 0x5001 JUMP JUMPDEST POP PUSH2 0x3726 PUSH1 0x0 SLOAD DUP3 PUSH2 0x35BA JUMP JUMPDEST PUSH1 0x0 SSTORE POP PUSH2 0x37E6 JUMP JUMPDEST PUSH2 0x3739 DUP10 DUP3 PUSH2 0x359B JUMP JUMPDEST DUP9 LT ISZERO PUSH2 0x37E6 JUMPI PUSH1 0x0 PUSH2 0x374C DUP10 DUP6 PUSH2 0x50A7 JUMP JUMPDEST SWAP1 POP PUSH2 0x3758 DUP7 DUP3 PUSH2 0x37F5 JUMP JUMPDEST DUP1 PUSH1 0x0 DUP1 DUP3 DUP3 SLOAD PUSH2 0x3769 SWAP2 SWAP1 PUSH2 0x50BE JUMP JUMPDEST SWAP3 POP POP DUP2 SWAP1 SSTORE POP DUP6 PUSH1 0x1 PUSH1 0x1 PUSH1 0xA0 SHL SUB AND PUSH4 0xD0E30DB0 PUSH1 0x40 MLOAD DUP2 PUSH4 0xFFFFFFFF AND PUSH1 0xE0 SHL DUP2 MSTORE PUSH1 0x4 ADD PUSH1 0x20 PUSH1 0x40 MLOAD DUP1 DUP4 SUB DUP2 PUSH1 0x0 DUP8 DUP1 EXTCODESIZE ISZERO DUP1 ISZERO PUSH2 0x37AB JUMPI PUSH1 0x0 DUP1 REVERT JUMPDEST POP GAS CALL ISZERO DUP1 ISZERO PUSH2 0x37BF JUMPI RETURNDATASIZE PUSH1 0x0 DUP1 RETURNDATACOPY RETURNDATASIZE PUSH1 0x0 REVERT JUMPDEST POP POP POP POP PUSH1 0x40 MLOAD RETURNDATASIZE PUSH1 0x1F NOT PUSH1 0x1F DUP3 ADD AND DUP3 ADD DUP1 PUSH1 0x40 MSTORE POP DUP2 ADD SWAP1 PUSH2 0x37E3 SWAP2 SWAP1 PUSH2 0x5001 JUMP JUMPDEST POP POP JUMPDEST POP PUSH1 0x1 SWAP9 SWAP8 POP POP POP POP POP POP POP POP JUMP JUMPDEST PUSH1 0x40 MLOAD PUSH1 0x1 PUSH1 0x1 PUSH1 0xA0 SHL SUB DUP4 AND SWAP1 DUP3 ISZERO PUSH2 0x8FC MUL SWAP1 DUP4 SWAP1 PUSH1 0x0 DUP2 DUP2 DUP2 DUP6 DUP9 DUP9 CALL SWAP4 POP POP POP POP ISZERO DUP1 ISZERO PUSH2 0xE5B JUMPI RETURNDATASIZE PUSH1 0x0 DUP1 RETURNDATACOPY RETURNDATASIZE PUSH1 0x0 REVERT JUMPDEST PUSH1 0x0 PUSH2 0x3836 DUP3 PUSH2 0x40BF JUMP JUMPDEST PUSH1 0x0 DUP3 DUP2 MSTORE PUSH1 0x3B PUSH1 0x20 MSTORE PUSH1 0x40 SWAP1 KECCAK256 SLOAD PUSH2 0x26D2 DUP4 DUP3 PUSH2 0x43AC JUMP JUMPDEST PUSH1 0x4 SLOAD PUSH1 0xFF AND PUSH2 0x385B JUMPI JUMP JUMPDEST PUSH1 0x0 PUSH2 0x3865 PUSH2 0xA85 JUMP JUMPDEST PUSH1 0x1 PUSH1 0x1 PUSH1 0xA0 SHL SUB AND PUSH4 0xB69EF8A8 PUSH1 0x40 MLOAD DUP2 PUSH4 0xFFFFFFFF AND PUSH1 0xE0 SHL DUP2 MSTORE PUSH1 0x4 ADD PUSH1 0x20 PUSH1 0x40 MLOAD DUP1 DUP4 SUB DUP2 DUP7 DUP1 EXTCODESIZE ISZERO DUP1 ISZERO PUSH2 0x389D JUMPI PUSH1 0x0 DUP1 REVERT JUMPDEST POP GAS STATICCALL ISZERO DUP1 ISZERO PUSH2 0x38B1 JUMPI RETURNDATASIZE PUSH1 0x0 DUP1 RETURNDATACOPY RETURNDATASIZE PUSH1 0x0 REVERT JUMPDEST POP POP POP POP PUSH1 0x40 MLOAD RETURNDATASIZE PUSH1 0x1F NOT PUSH1 0x1F DUP3 ADD AND DUP3 ADD DUP1 PUSH1 0x40 MSTORE POP DUP2 ADD SWAP1 PUSH2 0x38D5 SWAP2 SWAP1 PUSH2 0x5078 JUMP JUMPDEST SWAP1 POP PUSH1 0x0 PUSH1 0x1 SLOAD DUP3 PUSH2 0x38E4 SELFBALANCE SWAP1 JUMP JUMPDEST PUSH2 0x38EE SWAP2 SWAP1 PUSH2 0x50BE JUMP JUMPDEST PUSH2 0x38F8 SWAP2 SWAP1 PUSH2 0x50BE JUMP JUMPDEST SWAP1 POP DUP1 PUSH2 0x3903 JUMPI POP POP JUMP JUMPDEST PUSH2 0xE5B DUP2 DUP4 PUSH2 0x35DE JUMP JUMPDEST PUSH1 0x0 DUP1 PUSH2 0x3918 PUSH2 0xA85 JUMP JUMPDEST SWAP1 POP PUSH1 0x1 PUSH1 0x1 PUSH1 0xA0 SHL SUB DUP2 AND PUSH2 0x3930 JUMPI PUSH1 0x0 SWAP2 POP POP SWAP1 JUMP JUMPDEST DUP1 PUSH1 0x1 PUSH1 0x1 PUSH1 0xA0 SHL SUB AND PUSH4 0x4641257D PUSH1 0x40 MLOAD DUP2 PUSH4 0xFFFFFFFF AND PUSH1 0xE0 SHL DUP2 MSTORE PUSH1 0x4 ADD PUSH1 0x20 PUSH1 0x40 MLOAD DUP1 DUP4 SUB DUP2 PUSH1 0x0 DUP8 DUP1 EXTCODESIZE ISZERO DUP1 ISZERO PUSH2 0x396B JUMPI PUSH1 0x0 DUP1 REVERT JUMPDEST POP GAS CALL ISZERO DUP1 ISZERO PUSH2 0x397F JUMPI RETURNDATASIZE PUSH1 0x0 DUP1 RETURNDATACOPY RETURNDATASIZE PUSH1 0x0 REVERT JUMPDEST POP POP POP POP PUSH1 0x40 MLOAD RETURNDATASIZE PUSH1 0x1F NOT PUSH1 0x1F DUP3 ADD AND DUP3 ADD DUP1 PUSH1 0x40 MSTORE POP DUP2 ADD SWAP1 PUSH2 0x39A3 SWAP2 SWAP1 PUSH2 0x5078 JUMP JUMPDEST POP PUSH1 0x0 DUP1 DUP3 PUSH1 0x1 PUSH1 0x1 PUSH1 0xA0 SHL SUB AND PUSH4 0xB69EF8A8 PUSH1 0x40 MLOAD DUP2 PUSH4 0xFFFFFFFF AND PUSH1 0xE0 SHL DUP2 MSTORE PUSH1 0x4 ADD PUSH1 0x20 PUSH1 0x40 MLOAD DUP1 DUP4 SUB DUP2 DUP7 DUP1 EXTCODESIZE ISZERO DUP1 ISZERO PUSH2 0x39E0 JUMPI PUSH1 0x0 DUP1 REVERT JUMPDEST POP GAS STATICCALL ISZERO DUP1 ISZERO PUSH2 0x39F4 JUMPI RETURNDATASIZE PUSH1 0x0 DUP1 RETURNDATACOPY RETURNDATASIZE PUSH1 0x0 REVERT JUMPDEST POP POP POP POP PUSH1 0x40 MLOAD RETURNDATASIZE PUSH1 0x1F NOT PUSH1 0x1F DUP3 ADD AND DUP3 ADD DUP1 PUSH1 0x40 MSTORE POP DUP2 ADD SWAP1 PUSH2 0x3A18 SWAP2 SWAP1 PUSH2 0x5078 JUMP JUMPDEST PUSH1 0x0 SLOAD PUSH1 0x3 SLOAD SWAP2 SWAP3 POP SWAP1 DUP2 DUP4 GT ISZERO PUSH2 0x3AA9 JUMPI PUSH1 0x0 PUSH2 0x3A36 DUP4 DUP6 PUSH2 0x50A7 JUMP JUMPDEST SWAP1 POP DUP2 DUP2 GT ISZERO PUSH2 0x3A69 JUMPI DUP2 ISZERO PUSH2 0x3A57 JUMPI PUSH2 0x3A50 DUP3 DUP3 PUSH2 0x50A7 JUMP JUMPDEST SWAP1 POP PUSH1 0x0 SWAP2 POP JUMPDEST PUSH2 0x3A60 DUP2 PUSH2 0x440D JUMP JUMPDEST SWAP6 POP SWAP1 POP PUSH2 0x3A76 JUMP JUMPDEST PUSH2 0x3A73 DUP2 DUP4 PUSH2 0x50A7 JUMP JUMPDEST SWAP2 POP JUMPDEST PUSH1 0x40 MLOAD PUSH1 0x0 SWAP1 DUP3 SWAP1 PUSH32 0x6C8433A8E155F0AF04DBA058D4E4695F7DA554578963D876BDF4A6D8D6399D9C SWAP1 DUP4 SWAP1 LOG3 POP PUSH2 0x3B3A JUMP JUMPDEST DUP2 DUP4 LT ISZERO PUSH2 0x3B2E JUMPI PUSH1 0x0 PUSH2 0x3ABD DUP5 DUP5 PUSH2 0x50A7 JUMP JUMPDEST SWAP1 POP PUSH2 0x3AC9 DUP2 DUP4 PUSH2 0x50BE JUMP JUMPDEST SWAP2 POP PUSH1 0x0 PUSH2 0x3AD5 PUSH2 0x201B JUMP JUMPDEST SWAP1 POP PUSH1 0x0 PUSH2 0x3AE3 DUP6 DUP4 PUSH2 0x359B JUMP JUMPDEST SWAP1 POP DUP1 DUP5 GT ISZERO PUSH2 0x3AF9 JUMPI PUSH2 0x3AF6 DUP5 PUSH2 0x44D1 JUMP JUMPDEST SWAP4 POP JUMPDEST PUSH1 0x40 MLOAD DUP4 SWAP1 PUSH1 0x0 SWAP1 PUSH32 0x6C8433A8E155F0AF04DBA058D4E4695F7DA554578963D876BDF4A6D8D6399D9C SWAP1 DUP3 SWAP1 LOG3 POP POP POP PUSH2 0x3B3A JUMP JUMPDEST PUSH1 0x1 SWAP6 POP POP POP POP POP POP SWAP1 JUMP JUMPDEST DUP1 PUSH1 0x3 DUP2 SWAP1 SSTORE POP DUP5 PUSH1 0x1 PUSH1 0x1 PUSH1 0xA0 SHL SUB AND PUSH4 0xB69EF8A8 PUSH1 0x40 MLOAD DUP2 PUSH4 0xFFFFFFFF AND PUSH1 0xE0 SHL DUP2 MSTORE PUSH1 0x4 ADD PUSH1 0x20 PUSH1 0x40 MLOAD DUP1 DUP4 SUB DUP2 DUP7 DUP1 EXTCODESIZE ISZERO DUP1 ISZERO PUSH2 0x3B7A JUMPI PUSH1 0x0 DUP1 REVERT JUMPDEST POP GAS STATICCALL ISZERO DUP1 ISZERO PUSH2 0x3B8E JUMPI RETURNDATASIZE PUSH1 0x0 DUP1 RETURNDATACOPY RETURNDATASIZE PUSH1 0x0 REVERT JUMPDEST POP POP POP POP PUSH1 0x40 MLOAD RETURNDATASIZE PUSH1 0x1F NOT PUSH1 0x1F DUP3 ADD AND DUP3 ADD DUP1 PUSH1 0x40 MSTORE POP DUP2 ADD SWAP1 PUSH2 0x3BB2 SWAP2 SWAP1 PUSH2 0x5078 JUMP JUMPDEST PUSH1 0x0 SSTORE DUP4 ISZERO PUSH2 0x3B2E JUMPI PUSH2 0x3B2E DUP5 PUSH2 0x46FC JUMP JUMPDEST PUSH1 0x40 DUP1 MLOAD DUP1 DUP3 ADD SWAP1 SWAP2 MSTORE PUSH1 0xE DUP2 MSTORE PUSH14 0x1A5B9D985B1A5908185B5BDD5B9D PUSH1 0x92 SHL PUSH1 0x20 DUP3 ADD MSTORE PUSH8 0xDE0B6B3A7640000 DUP5 GT ISZERO PUSH2 0x3C12 JUMPI PUSH1 0x40 MLOAD PUSH3 0x461BCD PUSH1 0xE5 SHL DUP2 MSTORE PUSH1 0x4 ADD PUSH2 0xB9B SWAP2 SWAP1 PUSH2 0x5023 JUMP JUMPDEST POP PUSH1 0x40 DUP1 MLOAD DUP1 DUP3 ADD SWAP1 SWAP2 MSTORE PUSH1 0xE DUP2 MSTORE PUSH14 0x1A5B9D985B1A5908185B5BDD5B9D PUSH1 0x92 SHL PUSH1 0x20 DUP3 ADD MSTORE PUSH8 0xDE0B6B3A7640000 DUP4 GT ISZERO PUSH2 0x3C61 JUMPI PUSH1 0x40 MLOAD PUSH3 0x461BCD PUSH1 0xE5 SHL DUP2 MSTORE PUSH1 0x4 ADD PUSH2 0xB9B SWAP2 SWAP1 PUSH2 0x5023 JUMP JUMPDEST POP PUSH1 0x40 DUP1 MLOAD DUP1 DUP3 ADD SWAP1 SWAP2 MSTORE PUSH1 0xE DUP2 MSTORE PUSH14 0x1A5B9D985B1A5908185B5BDD5B9D PUSH1 0x92 SHL PUSH1 0x20 DUP3 ADD MSTORE PUSH8 0x6F05B59D3B20000 DUP3 GT ISZERO PUSH2 0x3CB0 JUMPI PUSH1 0x40 MLOAD PUSH3 0x461BCD PUSH1 0xE5 SHL DUP2 MSTORE PUSH1 0x4 ADD PUSH2 0xB9B SWAP2 SWAP1 PUSH2 0x5023 JUMP JUMPDEST POP PUSH1 0x2 DUP1 SLOAD PUSH1 0x1 PUSH1 0x1 PUSH1 0xA0 SHL SUB NOT AND PUSH1 0x1 PUSH1 0x1 PUSH1 0xA0 SHL SUB DUP7 AND OR SWAP1 SSTORE PUSH2 0x3CE2 PUSH9 0x1119589D131A5B5A5D PUSH1 0xBA SHL DUP5 PUSH2 0x43AC JUMP JUMPDEST POP PUSH2 0x3D00 PUSH16 0x2A30B933B2BA20B63637B1B0BA34B7B7 PUSH1 0x81 SHL DUP4 PUSH2 0x43AC JUMP JUMPDEST POP PUSH2 0x3D13 PUSH5 0x109BDD5B99 PUSH1 0xDA SHL DUP3 PUSH2 0x43AC JUMP JUMPDEST POP PUSH2 0x3D32 PUSH10 0x52657365727665466565 PUSH1 0xB0 SHL PUSH7 0x2386F26FC10000 PUSH2 0x43AC JUMP JUMPDEST POP PUSH2 0x3D55 PUSH13 0x53747261746567697374466565 PUSH1 0x98 SHL PUSH8 0x16345785D8A0000 PUSH2 0x43AC JUMP JUMPDEST POP PUSH2 0x1BEE PUSH14 0x506572666F726D616E6365466565 PUSH1 0x90 SHL PUSH1 0x0 PUSH2 0x43AC JUMP JUMPDEST PUSH1 0x0 DUP1 PUSH2 0x3D7D PUSH2 0xA85 JUMP JUMPDEST SWAP1 POP PUSH1 0x1 PUSH1 0x1 PUSH1 0xA0 SHL SUB DUP2 AND PUSH2 0x3D95 JUMPI PUSH1 0x0 SWAP2 POP POP SWAP1 JUMP JUMPDEST PUSH1 0x4 DUP1 SLOAD PUSH1 0xFF NOT AND PUSH1 0x1 OR SWAP1 SSTORE PUSH1 0x40 MLOAD PUSH1 0x1 PUSH1 0x1 PUSH1 0xA0 SHL SUB DUP3 AND SWAP1 PUSH32 0x652F053FC39779B70B29678135ADE972FCB79966FC68FCB77C996B1AA4FD9AFB SWAP1 PUSH1 0x0 SWAP1 LOG2 PUSH2 0x3DDE PUSH2 0x384F JUMP JUMPDEST PUSH1 0x1 SWAP2 POP POP SWAP1 JUMP JUMPDEST PUSH1 0x0 DUP3 DUP2 MSTORE PUSH1 0x3C PUSH1 0x20 SWAP1 DUP2 MSTORE PUSH1 0x40 DUP1 DUP4 KECCAK256 DUP1 SLOAD PUSH1 0x1 PUSH1 0x1 PUSH1 0xA0 SHL SUB NOT DUP1 DUP3 AND PUSH1 0x1 PUSH1 0x1 PUSH1 0xA0 SHL SUB DUP9 DUP2 AND SWAP2 DUP3 OR SWAP1 SWAP5 SSTORE PUSH1 0x3A DUP7 MSTORE DUP5 DUP8 KECCAK256 DUP1 SLOAD SWAP1 SWAP3 AND SWAP1 SWAP2 SSTORE PUSH1 0x3E DUP6 MSTORE DUP4 DUP7 KECCAK256 DUP7 SWAP1 SSTORE DUP4 MLOAD SWAP3 SWAP1 SWAP2 AND DUP1 DUP4 MSTORE SWAP4 DUP3 ADD MSTORE DUP6 SWAP2 PUSH32 0xC4A957706C639829AD54381B04930C464DB6C7FFDC09D2B4B1ACC9EE34FB9261 SWAP2 ADD JUMPDEST PUSH1 0x40 MLOAD DUP1 SWAP2 SUB SWAP1 LOG2 POP SWAP1 SWAP3 SWAP2 POP POP JUMP JUMPDEST PUSH1 0x0 PUSH2 0x3534 DUP4 PUSH1 0x1 PUSH1 0x1 PUSH1 0xA0 SHL SUB DUP5 AND PUSH2 0x4743 JUMP JUMPDEST PUSH1 0x0 DUP1 PUSH2 0x3E92 PUSH2 0xA85 JUMP JUMPDEST SWAP1 POP PUSH1 0x1 PUSH1 0x1 PUSH1 0xA0 SHL SUB DUP2 AND PUSH2 0x3EAA JUMPI PUSH1 0x0 SWAP2 POP POP SWAP1 JUMP JUMPDEST PUSH2 0x3EB2 PUSH2 0x390D JUMP JUMPDEST POP PUSH1 0x0 SELFBALANCE SWAP1 POP DUP2 PUSH1 0x1 PUSH1 0x1 PUSH1 0xA0 SHL SUB AND PUSH4 0x853828B6 PUSH1 0x40 MLOAD DUP2 PUSH4 0xFFFFFFFF AND PUSH1 0xE0 SHL DUP2 MSTORE PUSH1 0x4 ADD PUSH1 0x20 PUSH1 0x40 MLOAD DUP1 DUP4 SUB DUP2 PUSH1 0x0 DUP8 DUP1 EXTCODESIZE ISZERO DUP1 ISZERO PUSH2 0x3EF3 JUMPI PUSH1 0x0 DUP1 REVERT JUMPDEST POP GAS CALL ISZERO DUP1 ISZERO PUSH2 0x3F07 JUMPI RETURNDATASIZE PUSH1 0x0 DUP1 RETURNDATACOPY RETURNDATASIZE PUSH1 0x0 REVERT JUMPDEST POP POP POP POP PUSH1 0x40 MLOAD RETURNDATASIZE PUSH1 0x1F NOT PUSH1 0x1F DUP3 ADD AND DUP3 ADD DUP1 PUSH1 0x40 MSTORE POP DUP2 ADD SWAP1 PUSH2 0x3F2B SWAP2 SWAP1 PUSH2 0x5078 JUMP JUMPDEST POP SELFBALANCE PUSH1 0x0 PUSH2 0x3F39 DUP4 DUP4 PUSH2 0x50A7 JUMP JUMPDEST SWAP1 POP PUSH2 0x3F47 PUSH1 0x0 SLOAD DUP3 PUSH2 0x35BA JUMP JUMPDEST PUSH1 0x0 SSTORE PUSH2 0x3F52 PUSH2 0x353B JUMP JUMPDEST POP PUSH1 0x1 SWAP5 POP POP POP POP POP SWAP1 JUMP JUMPDEST PUSH1 0x60 PUSH1 0x0 PUSH2 0x3F6B DUP4 PUSH2 0x47B3 JUMP JUMPDEST SWAP1 POP PUSH1 0x0 DUP2 PUSH8 0xFFFFFFFFFFFFFFFF DUP2 GT ISZERO PUSH2 0x3F88 JUMPI PUSH2 0x3F88 PUSH2 0x5134 JUMP JUMPDEST PUSH1 0x40 MLOAD SWAP1 DUP1 DUP3 MSTORE DUP1 PUSH1 0x20 MUL PUSH1 0x20 ADD DUP3 ADD PUSH1 0x40 MSTORE DUP1 ISZERO PUSH2 0x3FB1 JUMPI DUP2 PUSH1 0x20 ADD PUSH1 0x20 DUP3 MUL DUP1 CALLDATASIZE DUP4 CALLDATACOPY ADD SWAP1 POP JUMPDEST POP SWAP1 POP PUSH1 0x0 JUMPDEST DUP3 DUP2 LT ISZERO PUSH2 0x4005 JUMPI PUSH2 0x3FC9 DUP6 DUP3 PUSH2 0x47BE JUMP JUMPDEST DUP3 DUP3 DUP2 MLOAD DUP2 LT PUSH2 0x3FDB JUMPI PUSH2 0x3FDB PUSH2 0x514A JUMP JUMPDEST PUSH1 0x1 PUSH1 0x1 PUSH1 0xA0 SHL SUB SWAP1 SWAP3 AND PUSH1 0x20 SWAP3 DUP4 MUL SWAP2 SWAP1 SWAP2 ADD SWAP1 SWAP2 ADD MSTORE DUP1 PUSH2 0x3FFD DUP2 PUSH2 0x5160 JUMP JUMPDEST SWAP2 POP POP PUSH2 0x3FB7 JUMP JUMPDEST POP SWAP4 SWAP3 POP POP POP JUMP JUMPDEST PUSH1 0x0 DUP2 DUP2 MSTORE PUSH1 0x3E PUSH1 0x20 SWAP1 DUP2 MSTORE PUSH1 0x40 DUP1 DUP4 KECCAK256 SLOAD DUP2 MLOAD DUP1 DUP4 ADD SWAP1 SWAP3 MSTORE PUSH1 0x12 DUP3 MSTORE PUSH18 0x646561646C696E65206D757374206265203 PUSH1 0x74 SHL SWAP3 DUP3 ADD SWAP3 SWAP1 SWAP3 MSTORE SWAP1 PUSH2 0x4066 JUMPI PUSH1 0x40 MLOAD PUSH3 0x461BCD PUSH1 0xE5 SHL DUP2 MSTORE PUSH1 0x4 ADD PUSH2 0xB9B SWAP2 SWAP1 PUSH2 0x5023 JUMP JUMPDEST POP PUSH1 0x0 DUP3 DUP2 MSTORE PUSH1 0x3E PUSH1 0x20 SWAP1 DUP2 MSTORE PUSH1 0x40 DUP1 DUP4 KECCAK256 DUP4 SWAP1 SSTORE PUSH1 0x3A SWAP1 SWAP2 MSTORE DUP1 DUP3 KECCAK256 DUP1 SLOAD PUSH1 0x1 PUSH1 0x1 PUSH1 0xA0 SHL SUB NOT AND SWAP1 SSTORE MLOAD DUP4 SWAP2 PUSH32 0x90FB84AD67DD037C388289337BB80B61B8605D38BA9A875DC38B5600909D172F SWAP2 LOG2 POP PUSH1 0x1 SWAP2 SWAP1 POP JUMP JUMPDEST PUSH1 0x0 PUSH1 0x3E PUSH1 0x0 DUP4 DUP2 MSTORE PUSH1 0x20 ADD SWAP1 DUP2 MSTORE PUSH1 0x20 ADD PUSH1 0x0 KECCAK256 SLOAD SWAP1 POP DUP1 TIMESTAMP LT ISZERO PUSH1 0x40 MLOAD DUP1 PUSH1 0x60 ADD PUSH1 0x40 MSTORE DUP1 PUSH1 0x21 DUP2 MSTORE PUSH1 0x20 ADD PUSH2 0x51DE PUSH1 0x21 SWAP2 CODECOPY SWAP1 PUSH2 0x4112 JUMPI PUSH1 0x40 MLOAD PUSH3 0x461BCD PUSH1 0xE5 SHL DUP2 MSTORE PUSH1 0x4 ADD PUSH2 0xB9B SWAP2 SWAP1 PUSH2 0x5023 JUMP JUMPDEST POP PUSH1 0x40 DUP1 MLOAD DUP1 DUP3 ADD SWAP1 SWAP2 MSTORE PUSH1 0xD DUP2 MSTORE PUSH13 0x646561646C696E65206973203 PUSH1 0x9C SHL PUSH1 0x20 DUP3 ADD MSTORE DUP2 PUSH2 0x4155 JUMPI PUSH1 0x40 MLOAD PUSH3 0x461BCD PUSH1 0xE5 SHL DUP2 MSTORE PUSH1 0x4 ADD PUSH2 0xB9B SWAP2 SWAP1 PUSH2 0x5023 JUMP JUMPDEST POP POP PUSH1 0x0 SWAP1 DUP2 MSTORE PUSH1 0x3E PUSH1 0x20 MSTORE PUSH1 0x40 DUP2 KECCAK256 SSTORE JUMP JUMPDEST PUSH1 0x0 PUSH2 0x417E DUP5 PUSH1 0x1 PUSH1 0x1 PUSH1 0xA0 SHL SUB DUP6 AND DUP5 PUSH2 0x47D4 JUMP JUMPDEST SWAP5 SWAP4 POP POP POP POP JUMP JUMPDEST PUSH1 0x0 PUSH2 0x4192 DUP5 DUP4 PUSH2 0x47F1 JUMP JUMPDEST PUSH1 0x0 DUP5 DUP2 MSTORE PUSH1 0x3A PUSH1 0x20 SWAP1 DUP2 MSTORE PUSH1 0x40 SWAP2 DUP3 SWAP1 KECCAK256 DUP1 SLOAD PUSH1 0x1 PUSH1 0x1 PUSH1 0xA0 SHL SUB NOT AND PUSH1 0x1 PUSH1 0x1 PUSH1 0xA0 SHL SUB DUP8 AND SWAP1 DUP2 OR SWAP1 SWAP2 SSTORE DUP3 MLOAD SWAP1 DUP2 MSTORE SWAP1 DUP2 ADD DUP5 SWAP1 MSTORE DUP6 SWAP2 PUSH32 0xD46E58EE9DC1AE703349F8C09C19F23213A531B4D57F00CFD4A5A6CB6519668D SWAP2 ADD JUMPDEST PUSH1 0x40 MLOAD DUP1 SWAP2 SUB SWAP1 LOG2 POP PUSH1 0x1 SWAP4 SWAP3 POP POP POP JUMP JUMPDEST PUSH1 0x3 SLOAD PUSH1 0x0 PUSH2 0x4211 DUP3 PUSH2 0x44D1 JUMP JUMPDEST SWAP1 POP DUP1 DUP3 EQ PUSH2 0x3520 JUMPI PUSH1 0x3 SSTORE POP JUMP JUMPDEST PUSH1 0x0 DUP1 DUP1 DUP1 PUSH2 0x4238 DUP7 PUSH1 0x1 PUSH1 0x1 PUSH1 0xA0 SHL SUB DUP8 AND PUSH2 0x48CB JUMP JUMPDEST SWAP1 SWAP5 POP SWAP3 POP POP POP JUMPDEST SWAP3 POP SWAP3 SWAP1 POP JUMP JUMPDEST PUSH1 0x0 DUP1 PUSH2 0x4255 PUSH2 0x315C PUSH2 0x1FDD JUMP JUMPDEST SWAP1 POP PUSH1 0x0 PUSH2 0x426B PUSH2 0x4264 PUSH2 0x32CC JUMP JUMPDEST DUP6 SWAP1 PUSH2 0x359B JUMP JUMPDEST SWAP1 POP PUSH1 0x0 DUP2 PUSH2 0x427A DUP5 DUP8 PUSH2 0x50A7 JUMP JUMPDEST PUSH2 0x4284 SWAP2 SWAP1 PUSH2 0x50A7 JUMP JUMPDEST SWAP1 POP PUSH2 0x428F DUP3 PUSH2 0x4905 JUMP JUMPDEST DUP1 ISZERO PUSH2 0x429E JUMPI PUSH2 0x429E DUP2 PUSH2 0x49A8 JUMP JUMPDEST POP SWAP1 SWAP4 SWAP3 POP POP POP JUMP JUMPDEST PUSH1 0x1 PUSH1 0x1 PUSH1 0xA0 SHL SUB DUP2 AND PUSH2 0x42B9 JUMPI POP POP JUMP JUMPDEST PUSH1 0x2 SLOAD PUSH1 0x40 MLOAD PUSH4 0x17A790F1 PUSH1 0xE1 SHL DUP2 MSTORE PUSH1 0x1 PUSH1 0x1 PUSH1 0xA0 SHL SUB DUP4 DUP2 AND PUSH1 0x4 DUP4 ADD MSTORE PUSH1 0x24 DUP3 ADD DUP6 SWAP1 MSTORE SWAP1 SWAP2 AND SWAP1 PUSH4 0x2F4F21E2 SWAP1 DUP5 SWAP1 PUSH1 0x44 ADD PUSH1 0x20 PUSH1 0x40 MLOAD DUP1 DUP4 SUB DUP2 DUP6 DUP9 DUP1 EXTCODESIZE ISZERO DUP1 ISZERO PUSH2 0x4308 JUMPI PUSH1 0x0 DUP1 REVERT JUMPDEST POP GAS CALL ISZERO DUP1 ISZERO PUSH2 0x431C JUMPI RETURNDATASIZE PUSH1 0x0 DUP1 RETURNDATACOPY RETURNDATASIZE PUSH1 0x0 REVERT JUMPDEST POP POP POP POP POP PUSH1 0x40 MLOAD RETURNDATASIZE PUSH1 0x1F NOT PUSH1 0x1F DUP3 ADD AND DUP3 ADD DUP1 PUSH1 0x40 MSTORE POP DUP2 ADD SWAP1 PUSH2 0xE5B SWAP2 SWAP1 PUSH2 0x5078 JUMP JUMPDEST PUSH1 0x0 PUSH2 0x3534 DUP4 PUSH1 0x1 PUSH1 0x1 PUSH1 0xA0 SHL SUB DUP5 AND PUSH2 0x4A12 JUMP JUMPDEST PUSH1 0x0 PUSH2 0x4362 DUP5 DUP4 PUSH2 0x47F1 JUMP JUMPDEST PUSH1 0x0 DUP5 DUP2 MSTORE PUSH1 0x3B PUSH1 0x20 SWAP1 DUP2 MSTORE PUSH1 0x40 SWAP2 DUP3 SWAP1 KECCAK256 DUP6 SWAP1 SSTORE DUP2 MLOAD DUP6 DUP2 MSTORE SWAP1 DUP2 ADD DUP5 SWAP1 MSTORE DUP6 SWAP2 PUSH32 0xE6790002E78FB96FF1FDFE3A3BB2A86489D3F3923372C1FE5B6B1FED071EED4 SWAP2 ADD PUSH2 0x41F1 JUMP JUMPDEST PUSH1 0x0 DUP3 DUP2 MSTORE PUSH1 0x3D PUSH1 0x20 SWAP1 DUP2 MSTORE PUSH1 0x40 DUP1 DUP4 KECCAK256 DUP1 SLOAD SWAP1 DUP6 SWAP1 SSTORE PUSH1 0x3B DUP4 MSTORE DUP2 DUP5 KECCAK256 DUP5 SWAP1 SSTORE PUSH1 0x3E DUP4 MSTORE DUP2 DUP5 KECCAK256 DUP5 SWAP1 SSTORE DUP2 MLOAD DUP2 DUP2 MSTORE SWAP3 DUP4 ADD DUP6 SWAP1 MSTORE SWAP2 DUP6 SWAP2 PUSH32 0xCC0BAFE2ACCB565EA70674BF4B2555E49A47D410FB9932DFAB3E5F41855D0A2F SWAP2 ADD PUSH2 0x3E62 JUMP JUMPDEST PUSH1 0x0 DUP1 PUSH1 0x0 PUSH2 0x441D PUSH2 0x4264 PUSH2 0x1326 JUMP JUMPDEST SWAP1 POP DUP1 SELFBALANCE LT ISZERO PUSH2 0x44B0 JUMPI PUSH2 0x442F PUSH2 0xA85 JUMP JUMPDEST PUSH1 0x1 PUSH1 0x1 PUSH1 0xA0 SHL SUB AND PUSH4 0x2E1A7D4D DUP3 PUSH1 0x40 MLOAD DUP3 PUSH4 0xFFFFFFFF AND PUSH1 0xE0 SHL DUP2 MSTORE PUSH1 0x4 ADD PUSH2 0x445C SWAP2 DUP2 MSTORE PUSH1 0x20 ADD SWAP1 JUMP JUMPDEST PUSH1 0x20 PUSH1 0x40 MLOAD DUP1 DUP4 SUB DUP2 PUSH1 0x0 DUP8 DUP1 EXTCODESIZE ISZERO DUP1 ISZERO PUSH2 0x4476 JUMPI PUSH1 0x0 DUP1 REVERT JUMPDEST POP GAS CALL ISZERO DUP1 ISZERO PUSH2 0x448A JUMPI RETURNDATASIZE PUSH1 0x0 DUP1 RETURNDATACOPY RETURNDATASIZE PUSH1 0x0 REVERT JUMPDEST POP POP POP POP PUSH1 0x40 MLOAD RETURNDATASIZE PUSH1 0x1F NOT PUSH1 0x1F DUP3 ADD AND DUP3 ADD DUP1 PUSH1 0x40 MSTORE POP DUP2 ADD SWAP1 PUSH2 0x44AE SWAP2 SWAP1 PUSH2 0x5001 JUMP JUMPDEST POP JUMPDEST PUSH1 0x0 PUSH2 0x44BB DUP3 PUSH2 0x4247 JUMP JUMPDEST SWAP1 POP PUSH2 0x44C7 DUP3 DUP7 PUSH2 0x50A7 JUMP JUMPDEST SWAP6 SWAP1 SWAP5 POP SWAP3 POP POP POP JUMP JUMPDEST PUSH1 0x0 DUP1 PUSH1 0x1 PUSH1 0x1 PUSH1 0xA0 SHL SUB PUSH32 0x0 AND PUSH4 0xD4FAC45D ADDRESS DUP4 PUSH1 0x40 MLOAD PUSH1 0x1 PUSH1 0x1 PUSH1 0xE0 SHL SUB NOT PUSH1 0xE0 DUP6 SWAP1 SHL AND DUP2 MSTORE PUSH1 0x1 PUSH1 0x1 PUSH1 0xA0 SHL SUB SWAP3 DUP4 AND PUSH1 0x4 DUP3 ADD MSTORE SWAP2 AND PUSH1 0x24 DUP3 ADD MSTORE PUSH1 0x44 ADD PUSH1 0x20 PUSH1 0x40 MLOAD DUP1 DUP4 SUB DUP2 DUP7 DUP1 EXTCODESIZE ISZERO DUP1 ISZERO PUSH2 0x454B JUMPI PUSH1 0x0 DUP1 REVERT JUMPDEST POP GAS STATICCALL ISZERO DUP1 ISZERO PUSH2 0x455F JUMPI RETURNDATASIZE PUSH1 0x0 DUP1 RETURNDATACOPY RETURNDATASIZE PUSH1 0x0 REVERT JUMPDEST POP POP POP POP PUSH1 0x40 MLOAD RETURNDATASIZE PUSH1 0x1F NOT PUSH1 0x1F DUP3 ADD AND DUP3 ADD DUP1 PUSH1 0x40 MSTORE POP DUP2 ADD SWAP1 PUSH2 0x4583 SWAP2 SWAP1 PUSH2 0x5078 JUMP JUMPDEST SWAP1 POP DUP1 DUP4 GT ISZERO PUSH2 0x459B JUMPI PUSH2 0x4596 DUP2 PUSH2 0x4A2F JUMP JUMPDEST PUSH2 0x46F5 JUMP JUMPDEST PUSH1 0x40 MLOAD PUSH4 0x19262D3 PUSH1 0xE4 SHL DUP2 MSTORE ADDRESS PUSH1 0x4 DUP3 ADD MSTORE PUSH32 0x0 PUSH1 0x1 PUSH1 0x1 PUSH1 0xA0 SHL SUB AND SWAP1 PUSH4 0x19262D30 SWAP1 PUSH1 0x24 ADD PUSH1 0x20 PUSH1 0x40 MLOAD DUP1 DUP4 SUB DUP2 DUP7 DUP1 EXTCODESIZE ISZERO DUP1 ISZERO PUSH2 0x45FA JUMPI PUSH1 0x0 DUP1 REVERT JUMPDEST POP GAS STATICCALL ISZERO DUP1 ISZERO PUSH2 0x460E JUMPI RETURNDATASIZE PUSH1 0x0 DUP1 RETURNDATACOPY RETURNDATASIZE PUSH1 0x0 REVERT JUMPDEST POP POP POP POP PUSH1 0x40 MLOAD RETURNDATASIZE PUSH1 0x1F NOT PUSH1 0x1F DUP3 ADD AND DUP3 ADD DUP1 PUSH1 0x40 MSTORE POP DUP2 ADD SWAP1 PUSH2 0x4632 SWAP2 SWAP1 PUSH2 0x5001 JUMP JUMPDEST ISZERO PUSH2 0x46F5 JUMPI PUSH1 0x1 PUSH1 0x1 PUSH1 0xA0 SHL SUB PUSH32 0x0 AND PUSH4 0xF3FEF3A3 PUSH1 0x0 PUSH1 0x40 MLOAD PUSH1 0x1 PUSH1 0x1 PUSH1 0xE0 SHL SUB NOT PUSH1 0xE0 DUP5 SWAP1 SHL AND DUP2 MSTORE PUSH1 0x1 PUSH1 0x1 PUSH1 0xA0 SHL SUB SWAP1 SWAP2 AND PUSH1 0x4 DUP3 ADD MSTORE PUSH1 0x24 DUP2 ADD DUP7 SWAP1 MSTORE PUSH1 0x44 ADD PUSH1 0x20 PUSH1 0x40 MLOAD DUP1 DUP4 SUB DUP2 PUSH1 0x0 DUP8 DUP1 EXTCODESIZE ISZERO DUP1 ISZERO PUSH2 0x46B0 JUMPI PUSH1 0x0 DUP1 REVERT JUMPDEST POP GAS CALL ISZERO DUP1 ISZERO PUSH2 0x46C4 JUMPI RETURNDATASIZE PUSH1 0x0 DUP1 RETURNDATACOPY RETURNDATASIZE PUSH1 0x0 REVERT JUMPDEST POP POP POP POP PUSH1 0x40 MLOAD RETURNDATASIZE PUSH1 0x1F NOT PUSH1 0x1F DUP3 ADD AND DUP3 ADD DUP1 PUSH1 0x40 MSTORE POP DUP2 ADD SWAP1 PUSH2 0x46E8 SWAP2 SWAP1 PUSH2 0x5001 JUMP JUMPDEST POP PUSH1 0x0 SWAP3 POP PUSH2 0x46F5 PUSH2 0x384F JUMP JUMPDEST POP SWAP1 SWAP2 SWAP1 POP JUMP JUMPDEST PUSH2 0x4740 DUP2 PUSH2 0x4708 PUSH2 0xA85 JUMP JUMPDEST PUSH1 0x1 PUSH1 0x1 PUSH1 0xA0 SHL SUB AND PUSH4 0x1FE4A686 PUSH1 0x40 MLOAD DUP2 PUSH4 0xFFFFFFFF AND PUSH1 0xE0 SHL DUP2 MSTORE PUSH1 0x4 ADD PUSH1 0x20 PUSH1 0x40 MLOAD DUP1 DUP4 SUB DUP2 DUP7 DUP1 EXTCODESIZE ISZERO DUP1 ISZERO PUSH2 0x31AD JUMPI PUSH1 0x0 DUP1 REVERT JUMPDEST POP JUMP JUMPDEST PUSH1 0x0 DUP2 DUP2 MSTORE PUSH1 0x2 DUP4 ADD PUSH1 0x20 MSTORE PUSH1 0x40 DUP2 KECCAK256 SLOAD DUP1 ISZERO ISZERO DUP1 PUSH2 0x4767 JUMPI POP PUSH2 0x4767 DUP5 DUP5 PUSH2 0x4CDF JUMP JUMPDEST PUSH2 0x3534 JUMPI PUSH1 0x40 MLOAD PUSH3 0x461BCD PUSH1 0xE5 SHL DUP2 MSTORE PUSH1 0x20 PUSH1 0x4 DUP3 ADD MSTORE PUSH1 0x1E PUSH1 0x24 DUP3 ADD MSTORE PUSH32 0x456E756D657261626C654D61703A206E6F6E6578697374656E74206B65790000 PUSH1 0x44 DUP3 ADD MSTORE PUSH1 0x64 ADD PUSH2 0xB9B JUMP JUMPDEST PUSH1 0x0 PUSH2 0x1055 DUP3 PUSH2 0x4CEB JUMP JUMPDEST PUSH1 0x0 DUP1 PUSH2 0x47CB DUP5 DUP5 PUSH2 0x4CF6 JUMP JUMPDEST POP SWAP5 SWAP4 POP POP POP POP JUMP JUMPDEST PUSH1 0x0 DUP3 DUP2 MSTORE PUSH1 0x2 DUP5 ADD PUSH1 0x20 MSTORE PUSH1 0x40 DUP2 KECCAK256 DUP3 SWAP1 SSTORE PUSH2 0x417E DUP5 DUP5 PUSH2 0x4D05 JUMP JUMPDEST PUSH1 0x3E PUSH1 0x0 DUP4 DUP2 MSTORE PUSH1 0x20 ADD SWAP1 DUP2 MSTORE PUSH1 0x20 ADD PUSH1 0x0 KECCAK256 SLOAD PUSH1 0x0 EQ PUSH1 0x40 MLOAD DUP1 PUSH1 0x40 ADD PUSH1 0x40 MSTORE DUP1 PUSH1 0x12 DUP2 MSTORE PUSH1 0x20 ADD PUSH18 0x646561646C696E65206D757374206265203 PUSH1 0x74 SHL DUP2 MSTORE POP SWAP1 PUSH2 0x4851 JUMPI PUSH1 0x40 MLOAD PUSH3 0x461BCD PUSH1 0xE5 SHL DUP2 MSTORE PUSH1 0x4 ADD PUSH2 0xB9B SWAP2 SWAP1 PUSH2 0x5023 JUMP JUMPDEST POP PUSH1 0x40 DUP1 MLOAD DUP1 DUP3 ADD SWAP1 SWAP2 MSTORE PUSH1 0x18 DUP2 MSTORE PUSH32 0x64656C6179206265206174206C65617374203320646179730000000000000000 PUSH1 0x20 DUP3 ADD MSTORE PUSH3 0x3F480 DUP3 LT ISZERO PUSH2 0x48AA JUMPI PUSH1 0x40 MLOAD PUSH3 0x461BCD PUSH1 0xE5 SHL DUP2 MSTORE PUSH1 0x4 ADD PUSH2 0xB9B SWAP2 SWAP1 PUSH2 0x5023 JUMP JUMPDEST POP PUSH2 0x48B5 DUP2 TIMESTAMP PUSH2 0x50BE JUMP JUMPDEST PUSH1 0x0 SWAP3 DUP4 MSTORE PUSH1 0x3E PUSH1 0x20 MSTORE PUSH1 0x40 SWAP1 SWAP3 KECCAK256 SWAP2 SWAP1 SWAP2 SSTORE POP JUMP JUMPDEST PUSH1 0x0 DUP2 DUP2 MSTORE PUSH1 0x2 DUP4 ADD PUSH1 0x20 MSTORE PUSH1 0x40 DUP2 KECCAK256 SLOAD DUP2 SWAP1 DUP1 PUSH2 0x48FA JUMPI PUSH2 0x48ED DUP6 DUP6 PUSH2 0x4CDF JUMP JUMPDEST SWAP3 POP PUSH1 0x0 SWAP2 POP PUSH2 0x4240 SWAP1 POP JUMP JUMPDEST PUSH1 0x1 SWAP3 POP SWAP1 POP PUSH2 0x4240 JUMP JUMPDEST PUSH1 0x40 MLOAD PUSH4 0x11F9FBC9 PUSH1 0xE2 SHL DUP2 MSTORE PUSH1 0x0 PUSH1 0x4 DUP3 ADD MSTORE PUSH1 0x24 DUP2 ADD DUP3 SWAP1 MSTORE PUSH32 0x0 PUSH1 0x1 PUSH1 0x1 PUSH1 0xA0 SHL SUB AND SWAP1 PUSH4 0x47E7EF24 SWAP1 DUP4 SWAP1 PUSH1 0x44 ADD PUSH1 0x20 PUSH1 0x40 MLOAD DUP1 DUP4 SUB DUP2 DUP6 DUP9 DUP1 EXTCODESIZE ISZERO DUP1 ISZERO PUSH2 0x496F JUMPI PUSH1 0x0 DUP1 REVERT JUMPDEST POP GAS CALL ISZERO DUP1 ISZERO PUSH2 0x4983 JUMPI RETURNDATASIZE PUSH1 0x0 DUP1 RETURNDATACOPY RETURNDATASIZE PUSH1 0x0 REVERT JUMPDEST POP POP POP POP POP PUSH1 0x40 MLOAD RETURNDATASIZE PUSH1 0x1F NOT PUSH1 0x1F DUP3 ADD AND DUP3 ADD DUP1 PUSH1 0x40 MSTORE POP DUP2 ADD SWAP1 PUSH2 0x3520 SWAP2 SWAP1 PUSH2 0x5001 JUMP JUMPDEST PUSH2 0x49DA PUSH32 0x0 PUSH1 0x1 PUSH1 0x1 PUSH1 0xA0 SHL SUB AND PUSH2 0x4D11 JUMP JUMPDEST PUSH1 0x1 PUSH1 0x1 PUSH1 0xA0 SHL SUB AND PUSH2 0x8FC DUP3 SWAP1 DUP2 ISZERO MUL SWAP1 PUSH1 0x40 MLOAD PUSH1 0x0 PUSH1 0x40 MLOAD DUP1 DUP4 SUB DUP2 DUP6 DUP9 DUP9 CALL SWAP4 POP POP POP POP ISZERO DUP1 ISZERO PUSH2 0x3520 JUMPI RETURNDATASIZE PUSH1 0x0 DUP1 RETURNDATACOPY RETURNDATASIZE PUSH1 0x0 REVERT JUMPDEST PUSH1 0x0 DUP2 DUP2 MSTORE PUSH1 0x2 DUP4 ADD PUSH1 0x20 MSTORE PUSH1 0x40 DUP2 KECCAK256 DUP2 SWAP1 SSTORE PUSH2 0x3534 DUP4 DUP4 PUSH2 0x4D4B JUMP JUMPDEST PUSH1 0x0 PUSH2 0x4A39 PUSH2 0xA85 JUMP JUMPDEST PUSH1 0x1 PUSH1 0x1 PUSH1 0xA0 SHL SUB AND PUSH4 0x853828B6 PUSH1 0x40 MLOAD DUP2 PUSH4 0xFFFFFFFF AND PUSH1 0xE0 SHL DUP2 MSTORE PUSH1 0x4 ADD PUSH1 0x20 PUSH1 0x40 MLOAD DUP1 DUP4 SUB DUP2 PUSH1 0x0 DUP8 DUP1 EXTCODESIZE ISZERO DUP1 ISZERO PUSH2 0x4A73 JUMPI PUSH1 0x0 DUP1 REVERT JUMPDEST POP GAS CALL ISZERO DUP1 ISZERO PUSH2 0x4A87 JUMPI RETURNDATASIZE PUSH1 0x0 DUP1 RETURNDATACOPY RETURNDATASIZE PUSH1 0x0 REVERT JUMPDEST POP POP POP POP PUSH1 0x40 MLOAD RETURNDATASIZE PUSH1 0x1F NOT PUSH1 0x1F DUP3 ADD AND DUP3 ADD DUP1 PUSH1 0x40 MSTORE POP DUP2 ADD SWAP1 PUSH2 0x4AAB SWAP2 SWAP1 PUSH2 0x5078 JUMP JUMPDEST SWAP1 POP PUSH1 0x0 PUSH2 0x4ABB PUSH1 0x0 SLOAD DUP4 PUSH2 0x35BA JUMP JUMPDEST PUSH1 0x40 MLOAD PUSH4 0x19262D3 PUSH1 0xE4 SHL DUP2 MSTORE ADDRESS PUSH1 0x4 DUP3 ADD MSTORE SWAP1 SWAP2 POP PUSH32 0x0 PUSH1 0x1 PUSH1 0x1 PUSH1 0xA0 SHL SUB AND SWAP1 PUSH4 0x19262D30 SWAP1 PUSH1 0x24 ADD PUSH1 0x20 PUSH1 0x40 MLOAD DUP1 DUP4 SUB DUP2 DUP7 DUP1 EXTCODESIZE ISZERO DUP1 ISZERO PUSH2 0x4B1D JUMPI PUSH1 0x0 DUP1 REVERT JUMPDEST POP GAS STATICCALL ISZERO DUP1 ISZERO PUSH2 0x4B31 JUMPI RETURNDATASIZE PUSH1 0x0 DUP1 RETURNDATACOPY RETURNDATASIZE PUSH1 0x0 REVERT JUMPDEST POP POP POP POP PUSH1 0x40 MLOAD RETURNDATASIZE PUSH1 0x1F NOT PUSH1 0x1F DUP3 ADD AND DUP3 ADD DUP1 PUSH1 0x40 MSTORE POP DUP2 ADD SWAP1 PUSH2 0x4B55 SWAP2 SWAP1 PUSH2 0x5001 JUMP JUMPDEST ISZERO PUSH2 0x4CD1 JUMPI DUP1 DUP4 LT PUSH2 0x4C18 JUMPI PUSH1 0x1 PUSH1 0x1 PUSH1 0xA0 SHL SUB PUSH32 0x0 AND PUSH4 0xF3FEF3A3 PUSH1 0x0 PUSH1 0x40 MLOAD PUSH1 0x1 PUSH1 0x1 PUSH1 0xE0 SHL SUB NOT PUSH1 0xE0 DUP5 SWAP1 SHL AND DUP2 MSTORE PUSH1 0x1 PUSH1 0x1 PUSH1 0xA0 SHL SUB SWAP1 SWAP2 AND PUSH1 0x4 DUP3 ADD MSTORE PUSH1 0x24 DUP2 ADD DUP5 SWAP1 MSTORE PUSH1 0x44 ADD PUSH1 0x20 PUSH1 0x40 MLOAD DUP1 DUP4 SUB DUP2 PUSH1 0x0 DUP8 DUP1 EXTCODESIZE ISZERO DUP1 ISZERO PUSH2 0x4BDA JUMPI PUSH1 0x0 DUP1 REVERT JUMPDEST POP GAS CALL ISZERO DUP1 ISZERO PUSH2 0x4BEE JUMPI RETURNDATASIZE PUSH1 0x0 DUP1 RETURNDATACOPY RETURNDATASIZE PUSH1 0x0 REVERT JUMPDEST POP POP POP POP PUSH1 0x40 MLOAD RETURNDATASIZE PUSH1 0x1F NOT PUSH1 0x1F DUP3 ADD AND DUP3 ADD DUP1 PUSH1 0x40 MSTORE POP DUP2 ADD SWAP1 PUSH2 0x4C12 SWAP2 SWAP1 PUSH2 0x5001 JUMP JUMPDEST POP PUSH2 0x4CD1 JUMP JUMPDEST DUP3 ISZERO PUSH2 0x4CD1 JUMPI PUSH1 0x1 PUSH1 0x1 PUSH1 0xA0 SHL SUB PUSH32 0x0 AND PUSH4 0xF3FEF3A3 PUSH1 0x0 PUSH1 0x40 MLOAD PUSH1 0x1 PUSH1 0x1 PUSH1 0xE0 SHL SUB NOT PUSH1 0xE0 DUP5 SWAP1 SHL AND DUP2 MSTORE PUSH1 0x1 PUSH1 0x1 PUSH1 0xA0 SHL SUB SWAP1 SWAP2 AND PUSH1 0x4 DUP3 ADD MSTORE PUSH1 0x24 DUP2 ADD DUP7 SWAP1 MSTORE PUSH1 0x44 ADD PUSH1 0x20 PUSH1 0x40 MLOAD DUP1 DUP4 SUB DUP2 PUSH1 0x0 DUP8 DUP1 EXTCODESIZE ISZERO DUP1 ISZERO PUSH2 0x4C97 JUMPI PUSH1 0x0 DUP1 REVERT JUMPDEST POP GAS CALL ISZERO DUP1 ISZERO PUSH2 0x4CAB JUMPI RETURNDATASIZE PUSH1 0x0 DUP1 RETURNDATACOPY RETURNDATASIZE PUSH1 0x0 REVERT JUMPDEST POP POP POP POP PUSH1 0x40 MLOAD RETURNDATASIZE PUSH1 0x1F NOT PUSH1 0x1F DUP3 ADD AND DUP3 ADD DUP1 PUSH1 0x40 MSTORE POP DUP2 ADD SWAP1 PUSH2 0x4CCF SWAP2 SWAP1 PUSH2 0x5001 JUMP JUMPDEST POP JUMPDEST PUSH2 0x4CD9 PUSH2 0x353B JUMP JUMPDEST POP POP POP POP JUMP JUMPDEST PUSH1 0x0 PUSH2 0x3534 DUP4 DUP4 PUSH2 0x4D57 JUMP JUMPDEST PUSH1 0x0 PUSH2 0x1055 DUP3 PUSH2 0x4D6F JUMP JUMPDEST PUSH1 0x0 DUP1 DUP1 DUP1 PUSH2 0x4238 DUP7 DUP7 PUSH2 0x4D79 JUMP JUMPDEST PUSH1 0x0 PUSH2 0x3534 DUP4 DUP4 PUSH2 0x4DA4 JUMP JUMPDEST PUSH1 0x40 MLOAD PUSH4 0x21F8A721 PUSH1 0xE0 SHL DUP2 MSTORE PUSH8 0x7472656173757279 PUSH1 0xC0 SHL PUSH1 0x4 DUP3 ADD MSTORE PUSH1 0x0 SWAP1 PUSH1 0x1 PUSH1 0x1 PUSH1 0xA0 SHL SUB DUP4 AND SWAP1 PUSH4 0x21F8A721 SWAP1 PUSH1 0x24 ADD PUSH2 0x3340 JUMP JUMPDEST PUSH1 0x0 PUSH2 0x3534 DUP4 DUP4 PUSH2 0x4DF3 JUMP JUMPDEST PUSH1 0x0 DUP2 DUP2 MSTORE PUSH1 0x1 DUP4 ADD PUSH1 0x20 MSTORE PUSH1 0x40 DUP2 KECCAK256 SLOAD ISZERO ISZERO PUSH2 0x3534 JUMP JUMPDEST PUSH1 0x0 PUSH2 0x1055 DUP3 SLOAD SWAP1 JUMP JUMPDEST PUSH1 0x0 DUP1 DUP1 PUSH2 0x4D87 DUP6 DUP6 PUSH2 0x4EE6 JUMP JUMPDEST PUSH1 0x0 DUP2 DUP2 MSTORE PUSH1 0x2 SWAP7 SWAP1 SWAP7 ADD PUSH1 0x20 MSTORE PUSH1 0x40 SWAP1 SWAP6 KECCAK256 SLOAD SWAP5 SWAP6 SWAP4 POP POP POP POP JUMP JUMPDEST PUSH1 0x0 DUP2 DUP2 MSTORE PUSH1 0x1 DUP4 ADD PUSH1 0x20 MSTORE PUSH1 0x40 DUP2 KECCAK256 SLOAD PUSH2 0x4DEB JUMPI POP DUP2 SLOAD PUSH1 0x1 DUP2 DUP2 ADD DUP5 SSTORE PUSH1 0x0 DUP5 DUP2 MSTORE PUSH1 0x20 DUP1 DUP3 KECCAK256 SWAP1 SWAP4 ADD DUP5 SWAP1 SSTORE DUP5 SLOAD DUP5 DUP3 MSTORE DUP3 DUP7 ADD SWAP1 SWAP4 MSTORE PUSH1 0x40 SWAP1 KECCAK256 SWAP2 SWAP1 SWAP2 SSTORE PUSH2 0x1055 JUMP JUMPDEST POP PUSH1 0x0 PUSH2 0x1055 JUMP JUMPDEST PUSH1 0x0 DUP2 DUP2 MSTORE PUSH1 0x1 DUP4 ADD PUSH1 0x20 MSTORE PUSH1 0x40 DUP2 KECCAK256 SLOAD DUP1 ISZERO PUSH2 0x4EDC JUMPI PUSH1 0x0 PUSH2 0x4E17 PUSH1 0x1 DUP4 PUSH2 0x50A7 JUMP JUMPDEST DUP6 SLOAD SWAP1 SWAP2 POP PUSH1 0x0 SWAP1 PUSH2 0x4E2B SWAP1 PUSH1 0x1 SWAP1 PUSH2 0x50A7 JUMP JUMPDEST SWAP1 POP DUP2 DUP2 EQ PUSH2 0x4E90 JUMPI PUSH1 0x0 DUP7 PUSH1 0x0 ADD DUP3 DUP2 SLOAD DUP2 LT PUSH2 0x4E4B JUMPI PUSH2 0x4E4B PUSH2 0x514A JUMP JUMPDEST SWAP1 PUSH1 0x0 MSTORE PUSH1 0x20 PUSH1 0x0 KECCAK256 ADD SLOAD SWAP1 POP DUP1 DUP8 PUSH1 0x0 ADD DUP5 DUP2 SLOAD DUP2 LT PUSH2 0x4E6E JUMPI PUSH2 0x4E6E PUSH2 0x514A JUMP JUMPDEST PUSH1 0x0 SWAP2 DUP3 MSTORE PUSH1 0x20 DUP1 DUP4 KECCAK256 SWAP1 SWAP2 ADD SWAP3 SWAP1 SWAP3 SSTORE SWAP2 DUP3 MSTORE PUSH1 0x1 DUP9 ADD SWAP1 MSTORE PUSH1 0x40 SWAP1 KECCAK256 DUP4 SWAP1 SSTORE JUMPDEST DUP6 SLOAD DUP7 SWAP1 DUP1 PUSH2 0x4EA1 JUMPI PUSH2 0x4EA1 PUSH2 0x517B JUMP JUMPDEST PUSH1 0x1 SWAP1 SUB DUP2 DUP2 SWAP1 PUSH1 0x0 MSTORE PUSH1 0x20 PUSH1 0x0 KECCAK256 ADD PUSH1 0x0 SWAP1 SSTORE SWAP1 SSTORE DUP6 PUSH1 0x1 ADD PUSH1 0x0 DUP7 DUP2 MSTORE PUSH1 0x20 ADD SWAP1 DUP2 MSTORE PUSH1 0x20 ADD PUSH1 0x0 KECCAK256 PUSH1 0x0 SWAP1 SSTORE PUSH1 0x1 SWAP4 POP POP POP POP PUSH2 0x1055 JUMP JUMPDEST PUSH1 0x0 SWAP2 POP POP PUSH2 0x1055 JUMP JUMPDEST PUSH1 0x0 PUSH2 0x3534 DUP4 DUP4 PUSH1 0x0 DUP3 PUSH1 0x0 ADD DUP3 DUP2 SLOAD DUP2 LT PUSH2 0x4F04 JUMPI PUSH2 0x4F04 PUSH2 0x514A JUMP JUMPDEST SWAP1 PUSH1 0x0 MSTORE PUSH1 0x20 PUSH1 0x0 KECCAK256 ADD SLOAD SWAP1 POP SWAP3 SWAP2 POP POP JUMP JUMPDEST PUSH1 0x0 PUSH1 0x20 DUP3 DUP5 SUB SLT ISZERO PUSH2 0x4F29 JUMPI PUSH1 0x0 DUP1 REVERT JUMPDEST POP CALLDATALOAD SWAP2 SWAP1 POP JUMP JUMPDEST PUSH1 0x1 PUSH1 0x1 PUSH1 0xA0 SHL SUB DUP2 AND DUP2 EQ PUSH2 0x4740 JUMPI PUSH1 0x0 DUP1 REVERT JUMPDEST PUSH1 0x0 DUP1 PUSH1 0x0 DUP1 PUSH1 0x80 DUP6 DUP8 SUB SLT ISZERO PUSH2 0x4F5B JUMPI PUSH1 0x0 DUP1 REVERT JUMPDEST DUP5 CALLDATALOAD PUSH2 0x4F66 DUP2 PUSH2 0x4F30 JUMP JUMPDEST SWAP7 PUSH1 0x20 DUP7 ADD CALLDATALOAD SWAP7 POP PUSH1 0x40 DUP7 ADD CALLDATALOAD SWAP6 PUSH1 0x60 ADD CALLDATALOAD SWAP5 POP SWAP3 POP POP POP JUMP JUMPDEST PUSH1 0x0 PUSH1 0x20 DUP3 DUP5 SUB SLT ISZERO PUSH2 0x4F92 JUMPI PUSH1 0x0 DUP1 REVERT JUMPDEST DUP2 CALLDATALOAD PUSH2 0x3534 DUP2 PUSH2 0x4F30 JUMP JUMPDEST PUSH1 0x20 DUP1 DUP3 MSTORE DUP3 MLOAD DUP3 DUP3 ADD DUP2 SWAP1 MSTORE PUSH1 0x0 SWAP2 SWAP1 DUP5 DUP3 ADD SWAP1 PUSH1 0x40 DUP6 ADD SWAP1 DUP5 JUMPDEST DUP2 DUP2 LT ISZERO PUSH2 0x4FDE JUMPI DUP4 MLOAD PUSH1 0x1 PUSH1 0x1 PUSH1 0xA0 SHL SUB AND DUP4 MSTORE SWAP3 DUP5 ADD SWAP3 SWAP2 DUP5 ADD SWAP2 PUSH1 0x1 ADD PUSH2 0x4FB9 JUMP JUMPDEST POP SWAP1 SWAP7 SWAP6 POP POP POP POP POP POP JUMP JUMPDEST SWAP2 DUP3 MSTORE PUSH1 0x1 PUSH1 0x1 PUSH1 0xA0 SHL SUB AND PUSH1 0x20 DUP3 ADD MSTORE PUSH1 0x40 ADD SWAP1 JUMP JUMPDEST PUSH1 0x0 PUSH1 0x20 DUP3 DUP5 SUB SLT ISZERO PUSH2 0x5013 JUMPI PUSH1 0x0 DUP1 REVERT JUMPDEST DUP2 MLOAD DUP1 ISZERO ISZERO DUP2 EQ PUSH2 0x3534 JUMPI PUSH1 0x0 DUP1 REVERT JUMPDEST PUSH1 0x0 PUSH1 0x20 DUP1 DUP4 MSTORE DUP4 MLOAD DUP1 DUP3 DUP6 ADD MSTORE PUSH1 0x0 JUMPDEST DUP2 DUP2 LT ISZERO PUSH2 0x5050 JUMPI DUP6 DUP2 ADD DUP4 ADD MLOAD DUP6 DUP3 ADD PUSH1 0x40 ADD MSTORE DUP3 ADD PUSH2 0x5034 JUMP JUMPDEST DUP2 DUP2 GT ISZERO PUSH2 0x5062 JUMPI PUSH1 0x0 PUSH1 0x40 DUP4 DUP8 ADD ADD MSTORE JUMPDEST POP PUSH1 0x1F ADD PUSH1 0x1F NOT AND SWAP3 SWAP1 SWAP3 ADD PUSH1 0x40 ADD SWAP4 SWAP3 POP POP POP JUMP JUMPDEST PUSH1 0x0 PUSH1 0x20 DUP3 DUP5 SUB SLT ISZERO PUSH2 0x508A JUMPI PUSH1 0x0 DUP1 REVERT JUMPDEST POP MLOAD SWAP2 SWAP1 POP JUMP JUMPDEST PUSH4 0x4E487B71 PUSH1 0xE0 SHL PUSH1 0x0 MSTORE PUSH1 0x11 PUSH1 0x4 MSTORE PUSH1 0x24 PUSH1 0x0 REVERT JUMPDEST PUSH1 0x0 DUP3 DUP3 LT ISZERO PUSH2 0x50B9 JUMPI PUSH2 0x50B9 PUSH2 0x5091 JUMP JUMPDEST POP SUB SWAP1 JUMP JUMPDEST PUSH1 0x0 DUP3 NOT DUP3 GT ISZERO PUSH2 0x50D1 JUMPI PUSH2 0x50D1 PUSH2 0x5091 JUMP JUMPDEST POP ADD SWAP1 JUMP JUMPDEST PUSH1 0x0 PUSH1 0x20 DUP3 DUP5 SUB SLT ISZERO PUSH2 0x50E8 JUMPI PUSH1 0x0 DUP1 REVERT JUMPDEST DUP2 MLOAD PUSH2 0x3534 DUP2 PUSH2 0x4F30 JUMP JUMPDEST PUSH1 0x0 DUP2 PUSH1 0x0 NOT DIV DUP4 GT DUP3 ISZERO ISZERO AND ISZERO PUSH2 0x510D JUMPI PUSH2 0x510D PUSH2 0x5091 JUMP JUMPDEST POP MUL SWAP1 JUMP JUMPDEST PUSH1 0x0 DUP3 PUSH2 0x512F JUMPI PUSH4 0x4E487B71 PUSH1 0xE0 SHL PUSH1 0x0 MSTORE PUSH1 0x12 PUSH1 0x4 MSTORE PUSH1 0x24 PUSH1 0x0 REVERT JUMPDEST POP DIV SWAP1 JUMP JUMPDEST PUSH4 0x4E487B71 PUSH1 0xE0 SHL PUSH1 0x0 MSTORE PUSH1 0x41 PUSH1 0x4 MSTORE PUSH1 0x24 PUSH1 0x0 REVERT JUMPDEST PUSH4 0x4E487B71 PUSH1 0xE0 SHL PUSH1 0x0 MSTORE PUSH1 0x32 PUSH1 0x4 MSTORE PUSH1 0x24 PUSH1 0x0 REVERT JUMPDEST PUSH1 0x0 PUSH1 0x0 NOT DUP3 EQ ISZERO PUSH2 0x5174 JUMPI PUSH2 0x5174 PUSH2 0x5091 JUMP JUMPDEST POP PUSH1 0x1 ADD SWAP1 JUMP JUMPDEST PUSH4 0x4E487B71 PUSH1 0xE0 SHL PUSH1 0x0 MSTORE PUSH1 0x31 PUSH1 0x4 MSTORE PUSH1 0x24 PUSH1 0x0 REVERT INVALID POP PUSH16 0x6F6C206D757374206265207061757365 PUSH5 0x20746F2077 PUSH10 0x7468647261772066726F PUSH14 0x2072657365727665756E61757468 PUSH16 0x72697A65642061636365737300000000 STOP STOP STOP STOP STOP STOP STOP STOP STOP PUSH5 0x6561646C69 PUSH15 0x6520686173206E6F74206265656E20 PUSH19 0x65616368656420796574A26469706673582212 KECCAK256 0xFC PUSH17 0x6E7436A7324F36C875278D8608814F2E5D BALANCE PUSH6 0xC906971DBF30 0x4D DUP12 NUMBER LOG2 DUP15 PUSH5 0x736F6C6343 STOP ADDMOD MULMOD STOP CALLER ","sha1":"dea116be5743e02a92adcd7676a1832f6fa463d8","source":"// SPDX-License-Identifier: GPL-3.0-or-later\npragma solidity 0.8.9;\n\nimport \"./Vault.sol\";\n\ncontract EthVault is Vault {\n    using AddressProviderHelpers for IAddressProvider;\n\n    address private constant _UNDERLYING = address(0);\n\n    constructor(IController controller) Vault(controller) {}\n\n    receive() external payable {}\n\n    function initialize(\n        address _pool,\n        uint256 _debtLimit,\n        uint256 _targetAllocation,\n        uint256 _bound\n    ) external virtual override initializer {\n        _initialize(_pool, _debtLimit, _targetAllocation, _bound);\n    }\n\n    function getUnderlying() public pure override returns (address) {\n        return _UNDERLYING;\n    }\n\n    function _transfer(address to, uint256 amount) internal override {\n        payable(to).transfer(amount);\n    }\n\n    function _depositToReserve(uint256 amount) internal override {\n        reserve.deposit{value: amount}(_UNDERLYING, amount);\n    }\n\n    function _depositToTreasury(uint256 amount) internal override {\n        payable(addressProvider.getTreasury()).transfer(amount);\n    }\n\n    function _payStrategist(uint256 amount, address strategist) internal override {\n        if (strategist == address(0)) return;\n        ILiquidityPool(pool).depositFor{value: amount}(strategist, amount);\n    }\n\n    function _availableUnderlying() internal view override returns (uint256) {\n        return address(this).balance;\n    }\n}\n","sourcePath":"contracts/vault/EthVault.sol","type":"contract","deployment":{"address":"0x76676E63C53f81938D5dD8FaFA8540Ca860aE926","chainid":"1","blockHeight":14391460}}