{"abi":[{"inputs":[{"internalType":"contract IAddressProvider","name":"_addressProvider","type":"address"}],"stateMutability":"nonpayable","type":"constructor","name":"constructor"},{"anonymous":false,"inputs":[{"indexed":true,"internalType":"bytes32","name":"role","type":"bytes32"},{"indexed":true,"internalType":"address","name":"account","type":"address"},{"indexed":true,"internalType":"address","name":"sender","type":"address"}],"name":"RoleGranted","type":"event"},{"anonymous":false,"inputs":[{"indexed":true,"internalType":"bytes32","name":"role","type":"bytes32"},{"indexed":true,"internalType":"address","name":"account","type":"address"},{"indexed":true,"internalType":"address","name":"sender","type":"address"}],"name":"RoleRevoked","type":"event"},{"inputs":[{"internalType":"address","name":"zap","type":"address"}],"name":"addGaugeZap","outputs":[],"stateMutability":"nonpayable","type":"function"},{"inputs":[{"internalType":"address","name":"newGovernor","type":"address"}],"name":"addGovernor","outputs":[],"stateMutability":"nonpayable","type":"function"},{"inputs":[],"name":"addressProvider","outputs":[{"internalType":"contract IAddressProvider","name":"","type":"address"}],"stateMutability":"view","type":"function"},{"inputs":[{"internalType":"bytes32","name":"role","type":"bytes32"},{"internalType":"uint256","name":"index","type":"uint256"}],"name":"getRoleMember","outputs":[{"internalType":"address","name":"","type":"address"}],"stateMutability":"view","type":"function"},{"inputs":[{"internalType":"bytes32","name":"role","type":"bytes32"}],"name":"getRoleMemberCount","outputs":[{"internalType":"uint256","name":"","type":"uint256"}],"stateMutability":"view","type":"function"},{"inputs":[{"internalType":"bytes32","name":"role","type":"bytes32"},{"internalType":"address","name":"account","type":"address"}],"name":"grantRole","outputs":[],"stateMutability":"nonpayable","type":"function"},{"inputs":[{"internalType":"bytes32","name":"role1","type":"bytes32"},{"internalType":"bytes32","name":"role2","type":"bytes32"},{"internalType":"bytes32","name":"role3","type":"bytes32"},{"internalType":"address","name":"account","type":"address"}],"name":"hasAnyRole","outputs":[{"internalType":"bool","name":"","type":"bool"}],"stateMutability":"view","type":"function"},{"inputs":[{"internalType":"bytes32[]","name":"roles","type":"bytes32[]"},{"internalType":"address","name":"account","type":"address"}],"name":"hasAnyRole","outputs":[{"internalType":"bool","name":"","type":"bool"}],"stateMutability":"view","type":"function"},{"inputs":[{"internalType":"bytes32","name":"role1","type":"bytes32"},{"internalType":"bytes32","name":"role2","type":"bytes32"},{"internalType":"address","name":"account","type":"address"}],"name":"hasAnyRole","outputs":[{"internalType":"bool","name":"","type":"bool"}],"stateMutability":"view","type":"function"},{"inputs":[{"internalType":"bytes32","name":"role","type":"bytes32"},{"internalType":"address","name":"account","type":"address"}],"name":"hasRole","outputs":[{"internalType":"bool","name":"","type":"bool"}],"stateMutability":"view","type":"function"},{"inputs":[{"internalType":"address","name":"zap","type":"address"}],"name":"removeGaugeZap","outputs":[],"stateMutability":"nonpayable","type":"function"},{"inputs":[],"name":"renounceGovernance","outputs":[],"stateMutability":"nonpayable","type":"function"},{"inputs":[{"internalType":"bytes32","name":"role","type":"bytes32"},{"internalType":"address","name":"account","type":"address"}],"name":"revokeRole","outputs":[],"stateMutability":"nonpayable","type":"function"}],"bytecode":"60a06040523480156200001157600080fd5b50604051620014283803806200142883398101604081905262000034916200015c565b6001600160a01b0381166080526200005a69676f7665726e616e636560b01b3362000061565b506200018e565b6000828152602081815260408083206001600160a01b03851684528252808320805460ff191660019081179091558584528252909120620000ad91839062000d7e620000ea821b17901c565b5060405133906001600160a01b0383169084907f2f8788117e7eff1d82e926ec794901d17c78024a50270940304540a733656f0d90600090a45050565b600062000101836001600160a01b0384166200010a565b90505b92915050565b6000818152600183016020526040812054620001535750815460018181018455600084815260208082209093018490558454848252828601909352604090209190915562000104565b50600062000104565b6000602082840312156200016f57600080fd5b81516001600160a01b03811681146200018757600080fd5b9392505050565b60805161122b620001fd6000396000818160d9015281816104240152818161048c01528181610557015281816105b3015281816106100152818161068701528181610702015281816107de015281816108c40152818161096e01528181610b350152610bd6015261122b6000f3fe608060405234801561001057600080fd5b50600436106100cf5760003560e01c806391d148541161008c578063b1c11a6d11610066578063b1c11a6d146101b7578063ca15c873146101ca578063d547741f146101eb578063d756a422146101fe57600080fd5b806391d148541461016e578063955c4c9914610191578063a613cc3d146101a457600080fd5b80632954018c146100d45780632f2ff15d146101185780633c4a25d01461012d578063616bf2d114610140578063758904b8146101535780639010d07c1461015b575b600080fd5b6100fb7f000000000000000000000000000000000000000000000000000000000000000081565b6040516001600160a01b0390911681526020015b60405180910390f35b61012b610126366004610f1a565b610211565b005b61012b61013b366004610f4a565b61028a565b61012b61014e366004610f4a565b610306565b61012b61031c565b6100fb610169366004610f6e565b6103fa565b61018161017c366004610f1a565b610668565b604051901515815260200161010f565b61018161019f366004610f90565b6109c7565b6101816101b2366004610fe7565b6109fc565b61012b6101c5366004610f4a565b610a57565b6101dd6101d83660046110b7565b610acf565b60405190815260200161010f565b61012b6101f9366004610f1a565b610c44565b61018161020c3660046110d0565b610d5a565b61022869676f7665726e616e636560b01b33610668565b60405180604001604052806013815260200172756e617574686f72697a65642061636365737360681b8152509061027b5760405162461bcd60e51b81526004016102729190611109565b60405180910390fd5b506102868282610d93565b5050565b6102a169676f7665726e616e636560b01b33610668565b60405180604001604052806013815260200172756e617574686f72697a65642061636365737360681b815250906102eb5760405162461bcd60e51b81526004016102729190611109565b5061030369676f7665726e616e636560b01b82610d93565b50565b61030368067617567655f7a61760bc1b82610c44565b61033369676f7665726e616e636560b01b33610668565b60405180604001604052806013815260200172756e617574686f72697a65642061636365737360681b8152509061037d5760405162461bcd60e51b81526004016102729190611109565b50600161039669676f7665726e616e636560b01b610acf565b116040518060400160405280601281526020017163616e6e6f74207265766f6b6520726f6c6560701b815250906103e05760405162461bcd60e51b81526004016102729190611109565b506103f869676f7665726e616e636560b01b33610e10565b565b60006f30b2323932b9b9afb83937bb34b232b960811b8314801561041c575081155b1561044857507f0000000000000000000000000000000000000000000000000000000000000000610662565b6b706f6f6c5f666163746f727960a01b83148015610464575081155b15610516576040516321f8a72160e01b81526a706f6f6c466163746f727960a81b60048201527f00000000000000000000000000000000000000000000000000000000000000006001600160a01b0316906321f8a721906024015b60206040518083038186803b1580156104d757600080fd5b505afa1580156104eb573d6000803e3d6000fd5b505050506040513d601f19601f8201168201806040525081019061050f919061115e565b9050610662565b6931b7b73a3937b63632b960b11b83148015610530575081155b1561058e576040516321f8a72160e01b81526931b7b73a3937b63632b960b11b60048201527f00000000000000000000000000000000000000000000000000000000000000006001600160a01b0316906321f8a721906024016104bf565b631c1bdbdb60e21b8314156105ea576040516304042d6360e21b8152600481018390527f00000000000000000000000000000000000000000000000000000000000000006001600160a01b031690631010b58c906024016104bf565b641d985d5b1d60da1b83141561064757604051630672271d60e11b8152600481018390527f00000000000000000000000000000000000000000000000000000000000000006001600160a01b031690630ce44e3a906024016104bf565b600083815260016020526040902061065f9083610e66565b90505b92915050565b60006f30b2323932b9b9afb83937bb34b232b960811b8314156106c1577f00000000000000000000000000000000000000000000000000000000000000006001600160a01b0316826001600160a01b0316149050610662565b6b706f6f6c5f666163746f727960a01b8314156107a05760405163e6dc9e2b60e01b81526a706f6f6c466163746f727960a81b6004820152600060248201527f00000000000000000000000000000000000000000000000000000000000000006001600160a01b03169063e6dc9e2b906044015b60206040518083038186803b15801561074d57600080fd5b505afa158015610761573d6000803e3d6000fd5b505050506040513d601f19601f82011682018060405250810190610785919061115e565b6001600160a01b0316826001600160a01b0316149050610662565b6931b7b73a3937b63632b960b11b8314156108155760405163e6dc9e2b60e01b81526931b7b73a3937b63632b960b11b6004820152600060248201527f00000000000000000000000000000000000000000000000000000000000000006001600160a01b03169063e6dc9e2b90604401610735565b6a6d61696e74656e616e636560a81b831415610896576000838152602081815260408083206001600160a01b038616845290915290205460ff168061050f5750506001600160a01b03811660009081527fc3cf2dc2d928647ef9c1d0954e35884e3e3511cef6652c491e0546f1f9307153602052604090205460ff16610662565b631c1bdbdb60e21b83141561093f57604051635b16ebb760e01b81526001600160a01b0383811660048301527f00000000000000000000000000000000000000000000000000000000000000001690635b16ebb7906024015b60206040518083038186803b15801561090757600080fd5b505afa15801561091b573d6000803e3d6000fd5b505050506040513d601f19601f8201168201806040525081019061050f919061117b565b641d985d5b1d60da1b83141561099d5760405163652b9b4160e01b81526001600160a01b0383811660048301527f0000000000000000000000000000000000000000000000000000000000000000169063652b9b41906024016108ef565b506000918252602082815260408084206001600160a01b0393909316845291905290205460ff1690565b60006109d38583610668565b806109e357506109e38483610668565b806109f357506109f38383610668565b95945050505050565b6000805b8351811015610a4d57610a2c848281518110610a1e57610a1e61119d565b602002602001015184610668565b15610a3b576001915050610662565b80610a45816111b3565b915050610a00565b5060009392505050565b610a6e69676f7665726e616e636560b01b33610668565b60405180604001604052806013815260200172756e617574686f72697a65642061636365737360681b81525090610ab85760405162461bcd60e51b81526004016102729190611109565b5061030368067617567655f7a61760bc1b82610d93565b60006f30b2323932b9b9afb83937bb34b232b960811b821480610b0057506b706f6f6c5f666163746f727960a01b82145b80610b1757506931b7b73a3937b63632b960b11b82145b15610b2457506001919050565b631c1bdbdb60e21b821415610bc4577f00000000000000000000000000000000000000000000000000000000000000006001600160a01b0316638c788de06040518163ffffffff1660e01b815260040160206040518083038186803b158015610b8c57600080fd5b505afa158015610ba0573d6000803e3d6000fd5b505050506040513d601f19601f8201168201806040525081019061066291906111dc565b641d985d5b1d60da1b821415610c2d577f00000000000000000000000000000000000000000000000000000000000000006001600160a01b031663889777386040518163ffffffff1660e01b815260040160206040518083038186803b158015610b8c57600080fd5b600082815260016020526040902061066290610e72565b610c5b69676f7665726e616e636560b01b33610668565b60405180604001604052806013815260200172756e617574686f72697a65642061636365737360681b81525090610ca55760405162461bcd60e51b81526004016102729190611109565b5060408051808201909152601281527163616e6e6f74207265766f6b6520726f6c6560701b602082015269676f7665726e616e636560b01b831415610cfd5760405162461bcd60e51b81526004016102729190611109565b50610d088282610668565b6040518060400160405280601081526020016f1a5b9d985b1a5908185c99dd5b595b9d60821b81525090610d4f5760405162461bcd60e51b81526004016102729190611109565b506102868282610e10565b6000610d668483610668565b80610d765750610d768383610668565b949350505050565b600061065f836001600160a01b038416610e7c565b6000828152602081815260408083206001600160a01b03851684528252808320805460ff191660019081179091558584529091529020610dd39082610d7e565b5060405133906001600160a01b0383169084907f2f8788117e7eff1d82e926ec794901d17c78024a50270940304540a733656f0d90600090a45050565b6000828152602081815260408083206001600160a01b0385168085529252808320805460ff1916905551339285917ff6391f5c32d9c69d2a47ea670b442974b53935d1edc7fd64eb21e047a839171b9190a45050565b600061065f8383610ecb565b6000610662825490565b6000818152600183016020526040812054610ec357508154600181810184556000848152602080822090930184905584548482528286019093526040902091909155610662565b506000610662565b6000826000018281548110610ee257610ee261119d565b9060005260206000200154905092915050565b6001600160a01b038116811461030357600080fd5b8035610f1581610ef5565b919050565b60008060408385031215610f2d57600080fd5b823591506020830135610f3f81610ef5565b809150509250929050565b600060208284031215610f5c57600080fd5b8135610f6781610ef5565b9392505050565b60008060408385031215610f8157600080fd5b50508035926020909101359150565b60008060008060808587031215610fa657600080fd5b8435935060208501359250604085013591506060850135610fc681610ef5565b939692955090935050565b634e487b7160e01b600052604160045260246000fd5b60008060408385031215610ffa57600080fd5b823567ffffffffffffffff8082111561101257600080fd5b818501915085601f83011261102657600080fd5b813560208282111561103a5761103a610fd1565b8160051b604051601f19603f8301168101818110868211171561105f5761105f610fd1565b60405292835281830193508481018201928984111561107d57600080fd5b948201945b8386101561109b57853585529482019493820193611082565b96506110aa9050878201610f0a565b9450505050509250929050565b6000602082840312156110c957600080fd5b5035919050565b6000806000606084860312156110e557600080fd5b833592506020840135915060408401356110fe81610ef5565b809150509250925092565b600060208083528351808285015260005b818110156111365785810183015185820160400152820161111a565b81811115611148576000604083870101525b50601f01601f1916929092016040019392505050565b60006020828403121561117057600080fd5b8151610f6781610ef5565b60006020828403121561118d57600080fd5b81518015158114610f6757600080fd5b634e487b7160e01b600052603260045260246000fd5b60006000198214156111d557634e487b7160e01b600052601160045260246000fd5b5060010190565b6000602082840312156111ee57600080fd5b505191905056fea26469706673582212207475fff6265359a219c63f2b1cdc997d28fa311bc121b2305051123b4fffffb464736f6c63430008090033","bytecodeSha1":"e5e08bd72d8ae133d608028f81a5854097e6d2e5","compiler":{"evm_version":"london","optimizer":{"enabled":true,"runs":200},"version":"0.8.9+commit.e5eed63a"},"contractName":"RoleManager","language":"Solidity","natspec":{"kind":"dev","methods":{},"version":1},"opcodes":"PUSH1 0x80 PUSH1 0x40 MSTORE CALLVALUE DUP1 ISZERO PUSH2 0x10 JUMPI PUSH1 0x0 DUP1 REVERT JUMPDEST POP PUSH1 0x4 CALLDATASIZE LT PUSH2 0xCF JUMPI PUSH1 0x0 CALLDATALOAD PUSH1 0xE0 SHR DUP1 PUSH4 0x91D14854 GT PUSH2 0x8C JUMPI DUP1 PUSH4 0xB1C11A6D GT PUSH2 0x66 JUMPI DUP1 PUSH4 0xB1C11A6D EQ PUSH2 0x1B7 JUMPI DUP1 PUSH4 0xCA15C873 EQ PUSH2 0x1CA JUMPI DUP1 PUSH4 0xD547741F EQ PUSH2 0x1EB JUMPI DUP1 PUSH4 0xD756A422 EQ PUSH2 0x1FE JUMPI PUSH1 0x0 DUP1 REVERT JUMPDEST DUP1 PUSH4 0x91D14854 EQ PUSH2 0x16E JUMPI DUP1 PUSH4 0x955C4C99 EQ PUSH2 0x191 JUMPI DUP1 PUSH4 0xA613CC3D EQ PUSH2 0x1A4 JUMPI PUSH1 0x0 DUP1 REVERT JUMPDEST DUP1 PUSH4 0x2954018C EQ PUSH2 0xD4 JUMPI DUP1 PUSH4 0x2F2FF15D EQ PUSH2 0x118 JUMPI DUP1 PUSH4 0x3C4A25D0 EQ PUSH2 0x12D JUMPI DUP1 PUSH4 0x616BF2D1 EQ PUSH2 0x140 JUMPI DUP1 PUSH4 0x758904B8 EQ PUSH2 0x153 JUMPI DUP1 PUSH4 0x9010D07C EQ PUSH2 0x15B JUMPI JUMPDEST PUSH1 0x0 DUP1 REVERT JUMPDEST PUSH2 0xFB PUSH32 0x0 DUP2 JUMP JUMPDEST PUSH1 0x40 MLOAD PUSH1 0x1 PUSH1 0x1 PUSH1 0xA0 SHL SUB SWAP1 SWAP2 AND DUP2 MSTORE PUSH1 0x20 ADD JUMPDEST PUSH1 0x40 MLOAD DUP1 SWAP2 SUB SWAP1 RETURN JUMPDEST PUSH2 0x12B PUSH2 0x126 CALLDATASIZE PUSH1 0x4 PUSH2 0xF1A JUMP JUMPDEST PUSH2 0x211 JUMP JUMPDEST STOP JUMPDEST PUSH2 0x12B PUSH2 0x13B CALLDATASIZE PUSH1 0x4 PUSH2 0xF4A JUMP JUMPDEST PUSH2 0x28A JUMP JUMPDEST PUSH2 0x12B PUSH2 0x14E CALLDATASIZE PUSH1 0x4 PUSH2 0xF4A JUMP JUMPDEST PUSH2 0x306 JUMP JUMPDEST PUSH2 0x12B PUSH2 0x31C JUMP JUMPDEST PUSH2 0xFB PUSH2 0x169 CALLDATASIZE PUSH1 0x4 PUSH2 0xF6E JUMP JUMPDEST PUSH2 0x3FA JUMP JUMPDEST PUSH2 0x181 PUSH2 0x17C CALLDATASIZE PUSH1 0x4 PUSH2 0xF1A JUMP JUMPDEST PUSH2 0x668 JUMP JUMPDEST PUSH1 0x40 MLOAD SWAP1 ISZERO ISZERO DUP2 MSTORE PUSH1 0x20 ADD PUSH2 0x10F JUMP JUMPDEST PUSH2 0x181 PUSH2 0x19F CALLDATASIZE PUSH1 0x4 PUSH2 0xF90 JUMP JUMPDEST PUSH2 0x9C7 JUMP JUMPDEST PUSH2 0x181 PUSH2 0x1B2 CALLDATASIZE PUSH1 0x4 PUSH2 0xFE7 JUMP JUMPDEST PUSH2 0x9FC JUMP JUMPDEST PUSH2 0x12B PUSH2 0x1C5 CALLDATASIZE PUSH1 0x4 PUSH2 0xF4A JUMP JUMPDEST PUSH2 0xA57 JUMP JUMPDEST PUSH2 0x1DD PUSH2 0x1D8 CALLDATASIZE PUSH1 0x4 PUSH2 0x10B7 JUMP JUMPDEST PUSH2 0xACF JUMP JUMPDEST PUSH1 0x40 MLOAD SWAP1 DUP2 MSTORE PUSH1 0x20 ADD PUSH2 0x10F JUMP JUMPDEST PUSH2 0x12B PUSH2 0x1F9 CALLDATASIZE PUSH1 0x4 PUSH2 0xF1A JUMP JUMPDEST PUSH2 0xC44 JUMP JUMPDEST PUSH2 0x181 PUSH2 0x20C CALLDATASIZE PUSH1 0x4 PUSH2 0x10D0 JUMP JUMPDEST PUSH2 0xD5A JUMP JUMPDEST PUSH2 0x228 PUSH10 0x676F7665726E616E6365 PUSH1 0xB0 SHL CALLER PUSH2 0x668 JUMP JUMPDEST PUSH1 0x40 MLOAD DUP1 PUSH1 0x40 ADD PUSH1 0x40 MSTORE DUP1 PUSH1 0x13 DUP2 MSTORE PUSH1 0x20 ADD PUSH19 0x756E617574686F72697A656420616363657373 PUSH1 0x68 SHL DUP2 MSTORE POP SWAP1 PUSH2 0x27B JUMPI PUSH1 0x40 MLOAD PUSH3 0x461BCD PUSH1 0xE5 SHL DUP2 MSTORE PUSH1 0x4 ADD PUSH2 0x272 SWAP2 SWAP1 PUSH2 0x1109 JUMP JUMPDEST PUSH1 0x40 MLOAD DUP1 SWAP2 SUB SWAP1 REVERT JUMPDEST POP PUSH2 0x286 DUP3 DUP3 PUSH2 0xD93 JUMP JUMPDEST POP POP JUMP JUMPDEST PUSH2 0x2A1 PUSH10 0x676F7665726E616E6365 PUSH1 0xB0 SHL CALLER PUSH2 0x668 JUMP JUMPDEST PUSH1 0x40 MLOAD DUP1 PUSH1 0x40 ADD PUSH1 0x40 MSTORE DUP1 PUSH1 0x13 DUP2 MSTORE PUSH1 0x20 ADD PUSH19 0x756E617574686F72697A656420616363657373 PUSH1 0x68 SHL DUP2 MSTORE POP SWAP1 PUSH2 0x2EB JUMPI PUSH1 0x40 MLOAD PUSH3 0x461BCD PUSH1 0xE5 SHL DUP2 MSTORE PUSH1 0x4 ADD PUSH2 0x272 SWAP2 SWAP1 PUSH2 0x1109 JUMP JUMPDEST POP PUSH2 0x303 PUSH10 0x676F7665726E616E6365 PUSH1 0xB0 SHL DUP3 PUSH2 0xD93 JUMP JUMPDEST POP JUMP JUMPDEST PUSH2 0x303 PUSH9 0x67617567655F7A617 PUSH1 0xBC SHL DUP3 PUSH2 0xC44 JUMP JUMPDEST PUSH2 0x333 PUSH10 0x676F7665726E616E6365 PUSH1 0xB0 SHL CALLER PUSH2 0x668 JUMP JUMPDEST PUSH1 0x40 MLOAD DUP1 PUSH1 0x40 ADD PUSH1 0x40 MSTORE DUP1 PUSH1 0x13 DUP2 MSTORE PUSH1 0x20 ADD PUSH19 0x756E617574686F72697A656420616363657373 PUSH1 0x68 SHL DUP2 MSTORE POP SWAP1 PUSH2 0x37D JUMPI PUSH1 0x40 MLOAD PUSH3 0x461BCD PUSH1 0xE5 SHL DUP2 MSTORE PUSH1 0x4 ADD PUSH2 0x272 SWAP2 SWAP1 PUSH2 0x1109 JUMP JUMPDEST POP PUSH1 0x1 PUSH2 0x396 PUSH10 0x676F7665726E616E6365 PUSH1 0xB0 SHL PUSH2 0xACF JUMP JUMPDEST GT PUSH1 0x40 MLOAD DUP1 PUSH1 0x40 ADD PUSH1 0x40 MSTORE DUP1 PUSH1 0x12 DUP2 MSTORE PUSH1 0x20 ADD PUSH18 0x63616E6E6F74207265766F6B6520726F6C65 PUSH1 0x70 SHL DUP2 MSTORE POP SWAP1 PUSH2 0x3E0 JUMPI PUSH1 0x40 MLOAD PUSH3 0x461BCD PUSH1 0xE5 SHL DUP2 MSTORE PUSH1 0x4 ADD PUSH2 0x272 SWAP2 SWAP1 PUSH2 0x1109 JUMP JUMPDEST POP PUSH2 0x3F8 PUSH10 0x676F7665726E616E6365 PUSH1 0xB0 SHL CALLER PUSH2 0xE10 JUMP JUMPDEST JUMP JUMPDEST PUSH1 0x0 PUSH16 0x30B2323932B9B9AFB83937BB34B232B9 PUSH1 0x81 SHL DUP4 EQ DUP1 ISZERO PUSH2 0x41C JUMPI POP DUP2 ISZERO JUMPDEST ISZERO PUSH2 0x448 JUMPI POP PUSH32 0x0 PUSH2 0x662 JUMP JUMPDEST PUSH12 0x706F6F6C5F666163746F7279 PUSH1 0xA0 SHL DUP4 EQ DUP1 ISZERO PUSH2 0x464 JUMPI POP DUP2 ISZERO JUMPDEST ISZERO PUSH2 0x516 JUMPI PUSH1 0x40 MLOAD PUSH4 0x21F8A721 PUSH1 0xE0 SHL DUP2 MSTORE PUSH11 0x706F6F6C466163746F7279 PUSH1 0xA8 SHL PUSH1 0x4 DUP3 ADD MSTORE PUSH32 0x0 PUSH1 0x1 PUSH1 0x1 PUSH1 0xA0 SHL SUB AND SWAP1 PUSH4 0x21F8A721 SWAP1 PUSH1 0x24 ADD JUMPDEST PUSH1 0x20 PUSH1 0x40 MLOAD DUP1 DUP4 SUB DUP2 DUP7 DUP1 EXTCODESIZE ISZERO DUP1 ISZERO PUSH2 0x4D7 JUMPI PUSH1 0x0 DUP1 REVERT JUMPDEST POP GAS STATICCALL ISZERO DUP1 ISZERO PUSH2 0x4EB JUMPI RETURNDATASIZE PUSH1 0x0 DUP1 RETURNDATACOPY RETURNDATASIZE PUSH1 0x0 REVERT JUMPDEST POP POP POP POP PUSH1 0x40 MLOAD RETURNDATASIZE PUSH1 0x1F NOT PUSH1 0x1F DUP3 ADD AND DUP3 ADD DUP1 PUSH1 0x40 MSTORE POP DUP2 ADD SWAP1 PUSH2 0x50F SWAP2 SWAP1 PUSH2 0x115E JUMP JUMPDEST SWAP1 POP PUSH2 0x662 JUMP JUMPDEST PUSH10 0x31B7B73A3937B63632B9 PUSH1 0xB1 SHL DUP4 EQ DUP1 ISZERO PUSH2 0x530 JUMPI POP DUP2 ISZERO JUMPDEST ISZERO PUSH2 0x58E JUMPI PUSH1 0x40 MLOAD PUSH4 0x21F8A721 PUSH1 0xE0 SHL DUP2 MSTORE PUSH10 0x31B7B73A3937B63632B9 PUSH1 0xB1 SHL PUSH1 0x4 DUP3 ADD MSTORE PUSH32 0x0 PUSH1 0x1 PUSH1 0x1 PUSH1 0xA0 SHL SUB AND SWAP1 PUSH4 0x21F8A721 SWAP1 PUSH1 0x24 ADD PUSH2 0x4BF JUMP JUMPDEST PUSH4 0x1C1BDBDB PUSH1 0xE2 SHL DUP4 EQ ISZERO PUSH2 0x5EA JUMPI PUSH1 0x40 MLOAD PUSH4 0x4042D63 PUSH1 0xE2 SHL DUP2 MSTORE PUSH1 0x4 DUP2 ADD DUP4 SWAP1 MSTORE PUSH32 0x0 PUSH1 0x1 PUSH1 0x1 PUSH1 0xA0 SHL SUB AND SWAP1 PUSH4 0x1010B58C SWAP1 PUSH1 0x24 ADD PUSH2 0x4BF JUMP JUMPDEST PUSH5 0x1D985D5B1D PUSH1 0xDA SHL DUP4 EQ ISZERO PUSH2 0x647 JUMPI PUSH1 0x40 MLOAD PUSH4 0x672271D PUSH1 0xE1 SHL DUP2 MSTORE PUSH1 0x4 DUP2 ADD DUP4 SWAP1 MSTORE PUSH32 0x0 PUSH1 0x1 PUSH1 0x1 PUSH1 0xA0 SHL SUB AND SWAP1 PUSH4 0xCE44E3A SWAP1 PUSH1 0x24 ADD PUSH2 0x4BF JUMP JUMPDEST PUSH1 0x0 DUP4 DUP2 MSTORE PUSH1 0x1 PUSH1 0x20 MSTORE PUSH1 0x40 SWAP1 KECCAK256 PUSH2 0x65F SWAP1 DUP4 PUSH2 0xE66 JUMP JUMPDEST SWAP1 POP JUMPDEST SWAP3 SWAP2 POP POP JUMP JUMPDEST PUSH1 0x0 PUSH16 0x30B2323932B9B9AFB83937BB34B232B9 PUSH1 0x81 SHL DUP4 EQ ISZERO PUSH2 0x6C1 JUMPI PUSH32 0x0 PUSH1 0x1 PUSH1 0x1 PUSH1 0xA0 SHL SUB AND DUP3 PUSH1 0x1 PUSH1 0x1 PUSH1 0xA0 SHL SUB AND EQ SWAP1 POP PUSH2 0x662 JUMP JUMPDEST PUSH12 0x706F6F6C5F666163746F7279 PUSH1 0xA0 SHL DUP4 EQ ISZERO PUSH2 0x7A0 JUMPI PUSH1 0x40 MLOAD PUSH4 0xE6DC9E2B PUSH1 0xE0 SHL DUP2 MSTORE PUSH11 0x706F6F6C466163746F7279 PUSH1 0xA8 SHL PUSH1 0x4 DUP3 ADD MSTORE PUSH1 0x0 PUSH1 0x24 DUP3 ADD MSTORE PUSH32 0x0 PUSH1 0x1 PUSH1 0x1 PUSH1 0xA0 SHL SUB AND SWAP1 PUSH4 0xE6DC9E2B SWAP1 PUSH1 0x44 ADD JUMPDEST PUSH1 0x20 PUSH1 0x40 MLOAD DUP1 DUP4 SUB DUP2 DUP7 DUP1 EXTCODESIZE ISZERO DUP1 ISZERO PUSH2 0x74D JUMPI PUSH1 0x0 DUP1 REVERT JUMPDEST POP GAS STATICCALL ISZERO DUP1 ISZERO PUSH2 0x761 JUMPI RETURNDATASIZE PUSH1 0x0 DUP1 RETURNDATACOPY RETURNDATASIZE PUSH1 0x0 REVERT JUMPDEST POP POP POP POP PUSH1 0x40 MLOAD RETURNDATASIZE PUSH1 0x1F NOT PUSH1 0x1F DUP3 ADD AND DUP3 ADD DUP1 PUSH1 0x40 MSTORE POP DUP2 ADD SWAP1 PUSH2 0x785 SWAP2 SWAP1 PUSH2 0x115E JUMP JUMPDEST PUSH1 0x1 PUSH1 0x1 PUSH1 0xA0 SHL SUB AND DUP3 PUSH1 0x1 PUSH1 0x1 PUSH1 0xA0 SHL SUB AND EQ SWAP1 POP PUSH2 0x662 JUMP JUMPDEST PUSH10 0x31B7B73A3937B63632B9 PUSH1 0xB1 SHL DUP4 EQ ISZERO PUSH2 0x815 JUMPI PUSH1 0x40 MLOAD PUSH4 0xE6DC9E2B PUSH1 0xE0 SHL DUP2 MSTORE PUSH10 0x31B7B73A3937B63632B9 PUSH1 0xB1 SHL PUSH1 0x4 DUP3 ADD MSTORE PUSH1 0x0 PUSH1 0x24 DUP3 ADD MSTORE PUSH32 0x0 PUSH1 0x1 PUSH1 0x1 PUSH1 0xA0 SHL SUB AND SWAP1 PUSH4 0xE6DC9E2B SWAP1 PUSH1 0x44 ADD PUSH2 0x735 JUMP JUMPDEST PUSH11 0x6D61696E74656E616E6365 PUSH1 0xA8 SHL DUP4 EQ ISZERO PUSH2 0x896 JUMPI PUSH1 0x0 DUP4 DUP2 MSTORE PUSH1 0x20 DUP2 DUP2 MSTORE PUSH1 0x40 DUP1 DUP4 KECCAK256 PUSH1 0x1 PUSH1 0x1 PUSH1 0xA0 SHL SUB DUP7 AND DUP5 MSTORE SWAP1 SWAP2 MSTORE SWAP1 KECCAK256 SLOAD PUSH1 0xFF AND DUP1 PUSH2 0x50F JUMPI POP POP PUSH1 0x1 PUSH1 0x1 PUSH1 0xA0 SHL SUB DUP2 AND PUSH1 0x0 SWAP1 DUP2 MSTORE PUSH32 0xC3CF2DC2D928647EF9C1D0954E35884E3E3511CEF6652C491E0546F1F9307153 PUSH1 0x20 MSTORE PUSH1 0x40 SWAP1 KECCAK256 SLOAD PUSH1 0xFF AND PUSH2 0x662 JUMP JUMPDEST PUSH4 0x1C1BDBDB PUSH1 0xE2 SHL DUP4 EQ ISZERO PUSH2 0x93F JUMPI PUSH1 0x40 MLOAD PUSH4 0x5B16EBB7 PUSH1 0xE0 SHL DUP2 MSTORE PUSH1 0x1 PUSH1 0x1 PUSH1 0xA0 SHL SUB DUP4 DUP2 AND PUSH1 0x4 DUP4 ADD MSTORE PUSH32 0x0 AND SWAP1 PUSH4 0x5B16EBB7 SWAP1 PUSH1 0x24 ADD JUMPDEST PUSH1 0x20 PUSH1 0x40 MLOAD DUP1 DUP4 SUB DUP2 DUP7 DUP1 EXTCODESIZE ISZERO DUP1 ISZERO PUSH2 0x907 JUMPI PUSH1 0x0 DUP1 REVERT JUMPDEST POP GAS STATICCALL ISZERO DUP1 ISZERO PUSH2 0x91B JUMPI RETURNDATASIZE PUSH1 0x0 DUP1 RETURNDATACOPY RETURNDATASIZE PUSH1 0x0 REVERT JUMPDEST POP POP POP POP PUSH1 0x40 MLOAD RETURNDATASIZE PUSH1 0x1F NOT PUSH1 0x1F DUP3 ADD AND DUP3 ADD DUP1 PUSH1 0x40 MSTORE POP DUP2 ADD SWAP1 PUSH2 0x50F SWAP2 SWAP1 PUSH2 0x117B JUMP JUMPDEST PUSH5 0x1D985D5B1D PUSH1 0xDA SHL DUP4 EQ ISZERO PUSH2 0x99D JUMPI PUSH1 0x40 MLOAD PUSH4 0x652B9B41 PUSH1 0xE0 SHL DUP2 MSTORE PUSH1 0x1 PUSH1 0x1 PUSH1 0xA0 SHL SUB DUP4 DUP2 AND PUSH1 0x4 DUP4 ADD MSTORE PUSH32 0x0 AND SWAP1 PUSH4 0x652B9B41 SWAP1 PUSH1 0x24 ADD PUSH2 0x8EF JUMP JUMPDEST POP PUSH1 0x0 SWAP2 DUP3 MSTORE PUSH1 0x20 DUP3 DUP2 MSTORE PUSH1 0x40 DUP1 DUP5 KECCAK256 PUSH1 0x1 PUSH1 0x1 PUSH1 0xA0 SHL SUB SWAP4 SWAP1 SWAP4 AND DUP5 MSTORE SWAP2 SWAP1 MSTORE SWAP1 KECCAK256 SLOAD PUSH1 0xFF AND SWAP1 JUMP JUMPDEST PUSH1 0x0 PUSH2 0x9D3 DUP6 DUP4 PUSH2 0x668 JUMP JUMPDEST DUP1 PUSH2 0x9E3 JUMPI POP PUSH2 0x9E3 DUP5 DUP4 PUSH2 0x668 JUMP JUMPDEST DUP1 PUSH2 0x9F3 JUMPI POP PUSH2 0x9F3 DUP4 DUP4 PUSH2 0x668 JUMP JUMPDEST SWAP6 SWAP5 POP POP POP POP POP JUMP JUMPDEST PUSH1 0x0 DUP1 JUMPDEST DUP4 MLOAD DUP2 LT ISZERO PUSH2 0xA4D JUMPI PUSH2 0xA2C DUP5 DUP3 DUP2 MLOAD DUP2 LT PUSH2 0xA1E JUMPI PUSH2 0xA1E PUSH2 0x119D JUMP JUMPDEST PUSH1 0x20 MUL PUSH1 0x20 ADD ADD MLOAD DUP5 PUSH2 0x668 JUMP JUMPDEST ISZERO PUSH2 0xA3B JUMPI PUSH1 0x1 SWAP2 POP POP PUSH2 0x662 JUMP JUMPDEST DUP1 PUSH2 0xA45 DUP2 PUSH2 0x11B3 JUMP JUMPDEST SWAP2 POP POP PUSH2 0xA00 JUMP JUMPDEST POP PUSH1 0x0 SWAP4 SWAP3 POP POP POP JUMP JUMPDEST PUSH2 0xA6E PUSH10 0x676F7665726E616E6365 PUSH1 0xB0 SHL CALLER PUSH2 0x668 JUMP JUMPDEST PUSH1 0x40 MLOAD DUP1 PUSH1 0x40 ADD PUSH1 0x40 MSTORE DUP1 PUSH1 0x13 DUP2 MSTORE PUSH1 0x20 ADD PUSH19 0x756E617574686F72697A656420616363657373 PUSH1 0x68 SHL DUP2 MSTORE POP SWAP1 PUSH2 0xAB8 JUMPI PUSH1 0x40 MLOAD PUSH3 0x461BCD PUSH1 0xE5 SHL DUP2 MSTORE PUSH1 0x4 ADD PUSH2 0x272 SWAP2 SWAP1 PUSH2 0x1109 JUMP JUMPDEST POP PUSH2 0x303 PUSH9 0x67617567655F7A617 PUSH1 0xBC SHL DUP3 PUSH2 0xD93 JUMP JUMPDEST PUSH1 0x0 PUSH16 0x30B2323932B9B9AFB83937BB34B232B9 PUSH1 0x81 SHL DUP3 EQ DUP1 PUSH2 0xB00 JUMPI POP PUSH12 0x706F6F6C5F666163746F7279 PUSH1 0xA0 SHL DUP3 EQ JUMPDEST DUP1 PUSH2 0xB17 JUMPI POP PUSH10 0x31B7B73A3937B63632B9 PUSH1 0xB1 SHL DUP3 EQ JUMPDEST ISZERO PUSH2 0xB24 JUMPI POP PUSH1 0x1 SWAP2 SWAP1 POP JUMP JUMPDEST PUSH4 0x1C1BDBDB PUSH1 0xE2 SHL DUP3 EQ ISZERO PUSH2 0xBC4 JUMPI PUSH32 0x0 PUSH1 0x1 PUSH1 0x1 PUSH1 0xA0 SHL SUB AND PUSH4 0x8C788DE0 PUSH1 0x40 MLOAD DUP2 PUSH4 0xFFFFFFFF AND PUSH1 0xE0 SHL DUP2 MSTORE PUSH1 0x4 ADD PUSH1 0x20 PUSH1 0x40 MLOAD DUP1 DUP4 SUB DUP2 DUP7 DUP1 EXTCODESIZE ISZERO DUP1 ISZERO PUSH2 0xB8C JUMPI PUSH1 0x0 DUP1 REVERT JUMPDEST POP GAS STATICCALL ISZERO DUP1 ISZERO PUSH2 0xBA0 JUMPI RETURNDATASIZE PUSH1 0x0 DUP1 RETURNDATACOPY RETURNDATASIZE PUSH1 0x0 REVERT JUMPDEST POP POP POP POP PUSH1 0x40 MLOAD RETURNDATASIZE PUSH1 0x1F NOT PUSH1 0x1F DUP3 ADD AND DUP3 ADD DUP1 PUSH1 0x40 MSTORE POP DUP2 ADD SWAP1 PUSH2 0x662 SWAP2 SWAP1 PUSH2 0x11DC JUMP JUMPDEST PUSH5 0x1D985D5B1D PUSH1 0xDA SHL DUP3 EQ ISZERO PUSH2 0xC2D JUMPI PUSH32 0x0 PUSH1 0x1 PUSH1 0x1 PUSH1 0xA0 SHL SUB AND PUSH4 0x88977738 PUSH1 0x40 MLOAD DUP2 PUSH4 0xFFFFFFFF AND PUSH1 0xE0 SHL DUP2 MSTORE PUSH1 0x4 ADD PUSH1 0x20 PUSH1 0x40 MLOAD DUP1 DUP4 SUB DUP2 DUP7 DUP1 EXTCODESIZE ISZERO DUP1 ISZERO PUSH2 0xB8C JUMPI PUSH1 0x0 DUP1 REVERT JUMPDEST PUSH1 0x0 DUP3 DUP2 MSTORE PUSH1 0x1 PUSH1 0x20 MSTORE PUSH1 0x40 SWAP1 KECCAK256 PUSH2 0x662 SWAP1 PUSH2 0xE72 JUMP JUMPDEST PUSH2 0xC5B PUSH10 0x676F7665726E616E6365 PUSH1 0xB0 SHL CALLER PUSH2 0x668 JUMP JUMPDEST PUSH1 0x40 MLOAD DUP1 PUSH1 0x40 ADD PUSH1 0x40 MSTORE DUP1 PUSH1 0x13 DUP2 MSTORE PUSH1 0x20 ADD PUSH19 0x756E617574686F72697A656420616363657373 PUSH1 0x68 SHL DUP2 MSTORE POP SWAP1 PUSH2 0xCA5 JUMPI PUSH1 0x40 MLOAD PUSH3 0x461BCD PUSH1 0xE5 SHL DUP2 MSTORE PUSH1 0x4 ADD PUSH2 0x272 SWAP2 SWAP1 PUSH2 0x1109 JUMP JUMPDEST POP PUSH1 0x40 DUP1 MLOAD DUP1 DUP3 ADD SWAP1 SWAP2 MSTORE PUSH1 0x12 DUP2 MSTORE PUSH18 0x63616E6E6F74207265766F6B6520726F6C65 PUSH1 0x70 SHL PUSH1 0x20 DUP3 ADD MSTORE PUSH10 0x676F7665726E616E6365 PUSH1 0xB0 SHL DUP4 EQ ISZERO PUSH2 0xCFD JUMPI PUSH1 0x40 MLOAD PUSH3 0x461BCD PUSH1 0xE5 SHL DUP2 MSTORE PUSH1 0x4 ADD PUSH2 0x272 SWAP2 SWAP1 PUSH2 0x1109 JUMP JUMPDEST POP PUSH2 0xD08 DUP3 DUP3 PUSH2 0x668 JUMP JUMPDEST PUSH1 0x40 MLOAD DUP1 PUSH1 0x40 ADD PUSH1 0x40 MSTORE DUP1 PUSH1 0x10 DUP2 MSTORE PUSH1 0x20 ADD PUSH16 0x1A5B9D985B1A5908185C99DD5B595B9D PUSH1 0x82 SHL DUP2 MSTORE POP SWAP1 PUSH2 0xD4F JUMPI PUSH1 0x40 MLOAD PUSH3 0x461BCD PUSH1 0xE5 SHL DUP2 MSTORE PUSH1 0x4 ADD PUSH2 0x272 SWAP2 SWAP1 PUSH2 0x1109 JUMP JUMPDEST POP PUSH2 0x286 DUP3 DUP3 PUSH2 0xE10 JUMP JUMPDEST PUSH1 0x0 PUSH2 0xD66 DUP5 DUP4 PUSH2 0x668 JUMP JUMPDEST DUP1 PUSH2 0xD76 JUMPI POP PUSH2 0xD76 DUP4 DUP4 PUSH2 0x668 JUMP JUMPDEST SWAP5 SWAP4 POP POP POP POP JUMP JUMPDEST PUSH1 0x0 PUSH2 0x65F DUP4 PUSH1 0x1 PUSH1 0x1 PUSH1 0xA0 SHL SUB DUP5 AND PUSH2 0xE7C JUMP JUMPDEST PUSH1 0x0 DUP3 DUP2 MSTORE PUSH1 0x20 DUP2 DUP2 MSTORE PUSH1 0x40 DUP1 DUP4 KECCAK256 PUSH1 0x1 PUSH1 0x1 PUSH1 0xA0 SHL SUB DUP6 AND DUP5 MSTORE DUP3 MSTORE DUP1 DUP4 KECCAK256 DUP1 SLOAD PUSH1 0xFF NOT AND PUSH1 0x1 SWAP1 DUP2 OR SWAP1 SWAP2 SSTORE DUP6 DUP5 MSTORE SWAP1 SWAP2 MSTORE SWAP1 KECCAK256 PUSH2 0xDD3 SWAP1 DUP3 PUSH2 0xD7E JUMP JUMPDEST POP PUSH1 0x40 MLOAD CALLER SWAP1 PUSH1 0x1 PUSH1 0x1 PUSH1 0xA0 SHL SUB DUP4 AND SWAP1 DUP5 SWAP1 PUSH32 0x2F8788117E7EFF1D82E926EC794901D17C78024A50270940304540A733656F0D SWAP1 PUSH1 0x0 SWAP1 LOG4 POP POP JUMP JUMPDEST PUSH1 0x0 DUP3 DUP2 MSTORE PUSH1 0x20 DUP2 DUP2 MSTORE PUSH1 0x40 DUP1 DUP4 KECCAK256 PUSH1 0x1 PUSH1 0x1 PUSH1 0xA0 SHL SUB DUP6 AND DUP1 DUP6 MSTORE SWAP3 MSTORE DUP1 DUP4 KECCAK256 DUP1 SLOAD PUSH1 0xFF NOT AND SWAP1 SSTORE MLOAD CALLER SWAP3 DUP6 SWAP2 PUSH32 0xF6391F5C32D9C69D2A47EA670B442974B53935D1EDC7FD64EB21E047A839171B SWAP2 SWAP1 LOG4 POP POP JUMP JUMPDEST PUSH1 0x0 PUSH2 0x65F DUP4 DUP4 PUSH2 0xECB JUMP JUMPDEST PUSH1 0x0 PUSH2 0x662 DUP3 SLOAD SWAP1 JUMP JUMPDEST PUSH1 0x0 DUP2 DUP2 MSTORE PUSH1 0x1 DUP4 ADD PUSH1 0x20 MSTORE PUSH1 0x40 DUP2 KECCAK256 SLOAD PUSH2 0xEC3 JUMPI POP DUP2 SLOAD PUSH1 0x1 DUP2 DUP2 ADD DUP5 SSTORE PUSH1 0x0 DUP5 DUP2 MSTORE PUSH1 0x20 DUP1 DUP3 KECCAK256 SWAP1 SWAP4 ADD DUP5 SWAP1 SSTORE DUP5 SLOAD DUP5 DUP3 MSTORE DUP3 DUP7 ADD SWAP1 SWAP4 MSTORE PUSH1 0x40 SWAP1 KECCAK256 SWAP2 SWAP1 SWAP2 SSTORE PUSH2 0x662 JUMP JUMPDEST POP PUSH1 0x0 PUSH2 0x662 JUMP JUMPDEST PUSH1 0x0 DUP3 PUSH1 0x0 ADD DUP3 DUP2 SLOAD DUP2 LT PUSH2 0xEE2 JUMPI PUSH2 0xEE2 PUSH2 0x119D JUMP JUMPDEST SWAP1 PUSH1 0x0 MSTORE PUSH1 0x20 PUSH1 0x0 KECCAK256 ADD SLOAD SWAP1 POP SWAP3 SWAP2 POP POP JUMP JUMPDEST PUSH1 0x1 PUSH1 0x1 PUSH1 0xA0 SHL SUB DUP2 AND DUP2 EQ PUSH2 0x303 JUMPI PUSH1 0x0 DUP1 REVERT JUMPDEST DUP1 CALLDATALOAD PUSH2 0xF15 DUP2 PUSH2 0xEF5 JUMP JUMPDEST SWAP2 SWAP1 POP JUMP JUMPDEST PUSH1 0x0 DUP1 PUSH1 0x40 DUP4 DUP6 SUB SLT ISZERO PUSH2 0xF2D JUMPI PUSH1 0x0 DUP1 REVERT JUMPDEST DUP3 CALLDATALOAD SWAP2 POP PUSH1 0x20 DUP4 ADD CALLDATALOAD PUSH2 0xF3F DUP2 PUSH2 0xEF5 JUMP JUMPDEST DUP1 SWAP2 POP POP SWAP3 POP SWAP3 SWAP1 POP JUMP JUMPDEST PUSH1 0x0 PUSH1 0x20 DUP3 DUP5 SUB SLT ISZERO PUSH2 0xF5C JUMPI PUSH1 0x0 DUP1 REVERT JUMPDEST DUP2 CALLDATALOAD PUSH2 0xF67 DUP2 PUSH2 0xEF5 JUMP JUMPDEST SWAP4 SWAP3 POP POP POP JUMP JUMPDEST PUSH1 0x0 DUP1 PUSH1 0x40 DUP4 DUP6 SUB SLT ISZERO PUSH2 0xF81 JUMPI PUSH1 0x0 DUP1 REVERT JUMPDEST POP POP DUP1 CALLDATALOAD SWAP3 PUSH1 0x20 SWAP1 SWAP2 ADD CALLDATALOAD SWAP2 POP JUMP JUMPDEST PUSH1 0x0 DUP1 PUSH1 0x0 DUP1 PUSH1 0x80 DUP6 DUP8 SUB SLT ISZERO PUSH2 0xFA6 JUMPI PUSH1 0x0 DUP1 REVERT JUMPDEST DUP5 CALLDATALOAD SWAP4 POP PUSH1 0x20 DUP6 ADD CALLDATALOAD SWAP3 POP PUSH1 0x40 DUP6 ADD CALLDATALOAD SWAP2 POP PUSH1 0x60 DUP6 ADD CALLDATALOAD PUSH2 0xFC6 DUP2 PUSH2 0xEF5 JUMP JUMPDEST SWAP4 SWAP7 SWAP3 SWAP6 POP SWAP1 SWAP4 POP POP JUMP JUMPDEST PUSH4 0x4E487B71 PUSH1 0xE0 SHL PUSH1 0x0 MSTORE PUSH1 0x41 PUSH1 0x4 MSTORE PUSH1 0x24 PUSH1 0x0 REVERT JUMPDEST PUSH1 0x0 DUP1 PUSH1 0x40 DUP4 DUP6 SUB SLT ISZERO PUSH2 0xFFA JUMPI PUSH1 0x0 DUP1 REVERT JUMPDEST DUP3 CALLDATALOAD PUSH8 0xFFFFFFFFFFFFFFFF DUP1 DUP3 GT ISZERO PUSH2 0x1012 JUMPI PUSH1 0x0 DUP1 REVERT JUMPDEST DUP2 DUP6 ADD SWAP2 POP DUP6 PUSH1 0x1F DUP4 ADD SLT PUSH2 0x1026 JUMPI PUSH1 0x0 DUP1 REVERT JUMPDEST DUP2 CALLDATALOAD PUSH1 0x20 DUP3 DUP3 GT ISZERO PUSH2 0x103A JUMPI PUSH2 0x103A PUSH2 0xFD1 JUMP JUMPDEST DUP2 PUSH1 0x5 SHL PUSH1 0x40 MLOAD PUSH1 0x1F NOT PUSH1 0x3F DUP4 ADD AND DUP2 ADD DUP2 DUP2 LT DUP7 DUP3 GT OR ISZERO PUSH2 0x105F JUMPI PUSH2 0x105F PUSH2 0xFD1 JUMP JUMPDEST PUSH1 0x40 MSTORE SWAP3 DUP4 MSTORE DUP2 DUP4 ADD SWAP4 POP DUP5 DUP2 ADD DUP3 ADD SWAP3 DUP10 DUP5 GT ISZERO PUSH2 0x107D JUMPI PUSH1 0x0 DUP1 REVERT JUMPDEST SWAP5 DUP3 ADD SWAP5 JUMPDEST DUP4 DUP7 LT ISZERO PUSH2 0x109B JUMPI DUP6 CALLDATALOAD DUP6 MSTORE SWAP5 DUP3 ADD SWAP5 SWAP4 DUP3 ADD SWAP4 PUSH2 0x1082 JUMP JUMPDEST SWAP7 POP PUSH2 0x10AA SWAP1 POP DUP8 DUP3 ADD PUSH2 0xF0A JUMP JUMPDEST SWAP5 POP POP POP POP POP SWAP3 POP SWAP3 SWAP1 POP JUMP JUMPDEST PUSH1 0x0 PUSH1 0x20 DUP3 DUP5 SUB SLT ISZERO PUSH2 0x10C9 JUMPI PUSH1 0x0 DUP1 REVERT JUMPDEST POP CALLDATALOAD SWAP2 SWAP1 POP JUMP JUMPDEST PUSH1 0x0 DUP1 PUSH1 0x0 PUSH1 0x60 DUP5 DUP7 SUB SLT ISZERO PUSH2 0x10E5 JUMPI PUSH1 0x0 DUP1 REVERT JUMPDEST DUP4 CALLDATALOAD SWAP3 POP PUSH1 0x20 DUP5 ADD CALLDATALOAD SWAP2 POP PUSH1 0x40 DUP5 ADD CALLDATALOAD PUSH2 0x10FE DUP2 PUSH2 0xEF5 JUMP JUMPDEST DUP1 SWAP2 POP POP SWAP3 POP SWAP3 POP SWAP3 JUMP JUMPDEST PUSH1 0x0 PUSH1 0x20 DUP1 DUP4 MSTORE DUP4 MLOAD DUP1 DUP3 DUP6 ADD MSTORE PUSH1 0x0 JUMPDEST DUP2 DUP2 LT ISZERO PUSH2 0x1136 JUMPI DUP6 DUP2 ADD DUP4 ADD MLOAD DUP6 DUP3 ADD PUSH1 0x40 ADD MSTORE DUP3 ADD PUSH2 0x111A JUMP JUMPDEST DUP2 DUP2 GT ISZERO PUSH2 0x1148 JUMPI PUSH1 0x0 PUSH1 0x40 DUP4 DUP8 ADD ADD MSTORE JUMPDEST POP PUSH1 0x1F ADD PUSH1 0x1F NOT AND SWAP3 SWAP1 SWAP3 ADD PUSH1 0x40 ADD SWAP4 SWAP3 POP POP POP JUMP JUMPDEST PUSH1 0x0 PUSH1 0x20 DUP3 DUP5 SUB SLT ISZERO PUSH2 0x1170 JUMPI PUSH1 0x0 DUP1 REVERT JUMPDEST DUP2 MLOAD PUSH2 0xF67 DUP2 PUSH2 0xEF5 JUMP JUMPDEST PUSH1 0x0 PUSH1 0x20 DUP3 DUP5 SUB SLT ISZERO PUSH2 0x118D JUMPI PUSH1 0x0 DUP1 REVERT JUMPDEST DUP2 MLOAD DUP1 ISZERO ISZERO DUP2 EQ PUSH2 0xF67 JUMPI PUSH1 0x0 DUP1 REVERT JUMPDEST PUSH4 0x4E487B71 PUSH1 0xE0 SHL PUSH1 0x0 MSTORE PUSH1 0x32 PUSH1 0x4 MSTORE PUSH1 0x24 PUSH1 0x0 REVERT JUMPDEST PUSH1 0x0 PUSH1 0x0 NOT DUP3 EQ ISZERO PUSH2 0x11D5 JUMPI PUSH4 0x4E487B71 PUSH1 0xE0 SHL PUSH1 0x0 MSTORE PUSH1 0x11 PUSH1 0x4 MSTORE PUSH1 0x24 PUSH1 0x0 REVERT JUMPDEST POP PUSH1 0x1 ADD SWAP1 JUMP JUMPDEST PUSH1 0x0 PUSH1 0x20 DUP3 DUP5 SUB SLT ISZERO PUSH2 0x11EE JUMPI PUSH1 0x0 DUP1 REVERT JUMPDEST POP MLOAD SWAP2 SWAP1 POP JUMP INVALID LOG2 PUSH5 0x6970667358 0x22 SLT KECCAK256 PUSH21 0x75FFF6265359A219C63F2B1CDC997D28FA311BC121 0xB2 ADDRESS POP MLOAD SLT EXTCODESIZE 0x4F SELFDESTRUCT SELFDESTRUCT 0xB4 PUSH5 0x736F6C6343 STOP ADDMOD MULMOD STOP CALLER ","sha1":"b0415f61497677a4e3fe44cf5e9b83bd7b6a7fb5","source":"// SPDX-License-Identifier: GPL-3.0-or-later\npragma solidity 0.8.9;\n\nimport \"@openzeppelin/contracts/utils/structs/EnumerableSet.sol\";\n\nimport \"../../interfaces/IAddressProvider.sol\";\nimport \"../../interfaces/IRoleManager.sol\";\n\nimport \"../../libraries/Roles.sol\";\nimport \"../../libraries/Errors.sol\";\nimport \"../../libraries/AddressProviderKeys.sol\";\n\ncontract RoleManager is IRoleManager {\n    using EnumerableSet for EnumerableSet.AddressSet;\n\n    struct RoleData {\n        mapping(address => bool) members;\n        bytes32 adminRole;\n    }\n    mapping(bytes32 => RoleData) private _roles;\n    mapping(bytes32 => EnumerableSet.AddressSet) private _roleMembers;\n\n    IAddressProvider public immutable addressProvider;\n\n    modifier onlyGovernance() {\n        require(hasRole(Roles.GOVERNANCE, msg.sender), Error.UNAUTHORIZED_ACCESS);\n        _;\n    }\n\n    constructor(IAddressProvider _addressProvider) {\n        addressProvider = _addressProvider;\n        _grantRole(Roles.GOVERNANCE, msg.sender);\n    }\n\n    function grantRole(bytes32 role, address account) external onlyGovernance {\n        _grantRole(role, account);\n    }\n\n    function addGovernor(address newGovernor) external onlyGovernance {\n        _grantRole(Roles.GOVERNANCE, newGovernor);\n    }\n\n    function renounceGovernance() external onlyGovernance {\n        require(getRoleMemberCount(Roles.GOVERNANCE) > 1, Error.CANNOT_REVOKE_ROLE);\n        _revokeRole(Roles.GOVERNANCE, msg.sender);\n    }\n\n    function addGaugeZap(address zap) external onlyGovernance {\n        _grantRole(Roles.GAUGE_ZAP, zap);\n    }\n\n    function removeGaugeZap(address zap) external {\n        revokeRole(Roles.GAUGE_ZAP, zap);\n    }\n\n    function hasAnyRole(\n        bytes32 role1,\n        bytes32 role2,\n        address account\n    ) external view returns (bool) {\n        return hasRole(role1, account) || hasRole(role2, account);\n    }\n\n    function hasAnyRole(\n        bytes32 role1,\n        bytes32 role2,\n        bytes32 role3,\n        address account\n    ) external view returns (bool) {\n        return hasRole(role1, account) || hasRole(role2, account) || hasRole(role3, account);\n    }\n\n    function hasAnyRole(bytes32[] memory roles, address account)\n        external\n        view\n        virtual\n        override\n        returns (bool)\n    {\n        for (uint256 i = 0; i < roles.length; i++) {\n            if (hasRole(roles[i], account)) {\n                return true;\n            }\n        }\n        return false;\n    }\n\n    function getRoleMember(bytes32 role, uint256 index)\n        external\n        view\n        virtual\n        override\n        returns (address)\n    {\n        if (role == Roles.ADDRESS_PROVIDER && index == 0) {\n            return address(addressProvider);\n        } else if (role == Roles.POOL_FACTORY && index == 0) {\n            return addressProvider.getAddress(AddressProviderKeys._POOL_FACTORY_KEY);\n        } else if (role == Roles.CONTROLLER && index == 0) {\n            return addressProvider.getAddress(AddressProviderKeys._CONTROLLER_KEY);\n        } else if (role == Roles.POOL) {\n            return addressProvider.getPoolAtIndex(index);\n        } else if (role == Roles.VAULT) {\n            return addressProvider.getVaultAtIndex(index);\n        }\n        return _roleMembers[role].at(index);\n    }\n\n    function revokeRole(bytes32 role, address account) public onlyGovernance {\n        require(role != Roles.GOVERNANCE, Error.CANNOT_REVOKE_ROLE);\n        require(hasRole(role, account), Error.INVALID_ARGUMENT);\n        _revokeRole(role, account);\n    }\n\n    function getRoleMemberCount(bytes32 role) public view virtual override returns (uint256) {\n        if (\n            role == Roles.ADDRESS_PROVIDER || role == Roles.POOL_FACTORY || role == Roles.CONTROLLER\n        ) {\n            return 1;\n        }\n        if (role == Roles.POOL) {\n            return addressProvider.poolsCount();\n        }\n        if (role == Roles.VAULT) {\n            return addressProvider.vaultsCount();\n        }\n        return _roleMembers[role].length();\n    }\n\n    function hasRole(bytes32 role, address account) public view virtual override returns (bool) {\n        if (role == Roles.ADDRESS_PROVIDER) {\n            return account == address(addressProvider);\n        } else if (role == Roles.POOL_FACTORY) {\n            return\n                account == addressProvider.getAddress(AddressProviderKeys._POOL_FACTORY_KEY, false);\n        } else if (role == Roles.CONTROLLER) {\n            return\n                account == addressProvider.getAddress(AddressProviderKeys._CONTROLLER_KEY, false);\n        } else if (role == Roles.MAINTENANCE) {\n            return _roles[role].members[account] || _roles[Roles.GOVERNANCE].members[account];\n        } else if (role == Roles.POOL) {\n            return addressProvider.isPool(account);\n        } else if (role == Roles.VAULT) {\n            return addressProvider.isVault(account);\n        }\n        return _roles[role].members[account];\n    }\n\n    function _grantRole(bytes32 role, address account) internal {\n        _roles[role].members[account] = true;\n        _roleMembers[role].add(account);\n        emit RoleGranted(role, account, msg.sender);\n    }\n\n    function _revokeRole(bytes32 role, address account) internal {\n        _roles[role].members[account] = false;\n        emit RoleRevoked(role, account, msg.sender);\n    }\n}\n","sourcePath":"contracts/access/RoleManager.sol","type":"contract","deployment":{"address":"0x83174c049116271f64a661b8371658792F62e363","chainid":"1","blockHeight":14391202}}