{"abi":[{"inputs":[{"internalType":"address","name":"vault_","type":"address"},{"internalType":"address","name":"strategist_","type":"address"},{"internalType":"address","name":"curvePool_","type":"address"},{"internalType":"uint256","name":"convexPid_","type":"uint256"},{"internalType":"uint256","name":"curveIndex_","type":"uint256"},{"internalType":"contract IAddressProvider","name":"addressProvider_","type":"address"}],"stateMutability":"nonpayable","type":"constructor","name":"constructor"},{"anonymous":false,"inputs":[{"indexed":false,"internalType":"address","name":"token","type":"address"}],"name":"AddRewardToken","type":"event"},{"anonymous":false,"inputs":[{"indexed":false,"internalType":"uint256","name":"amount","type":"uint256"}],"name":"Deposit","type":"event"},{"anonymous":false,"inputs":[{"indexed":false,"internalType":"uint256","name":"amount","type":"uint256"}],"name":"Harvest","type":"event"},{"anonymous":false,"inputs":[{"indexed":false,"internalType":"address","name":"token","type":"address"}],"name":"RemoveRewardToken","type":"event"},{"anonymous":false,"inputs":[{"indexed":false,"internalType":"address","name":"reserve","type":"address"}],"name":"SetCommunityReserve","type":"event"},{"anonymous":false,"inputs":[{"indexed":false,"internalType":"uint256","name":"value","type":"uint256"}],"name":"SetCrvCommunityReserveShare","type":"event"},{"anonymous":false,"inputs":[{"indexed":false,"internalType":"uint256","name":"value","type":"uint256"}],"name":"SetCvxCommunityReserveShare","type":"event"},{"anonymous":false,"inputs":[{"indexed":false,"internalType":"uint256","name":"value","type":"uint256"}],"name":"SetImbalanceToleranceIn","type":"event"},{"anonymous":false,"inputs":[{"indexed":false,"internalType":"uint256","name":"value","type":"uint256"}],"name":"SetImbalanceToleranceOut","type":"event"},{"anonymous":false,"inputs":[{"indexed":false,"internalType":"uint256","name":"value","type":"uint256"}],"name":"SetSlippageTolerance","type":"event"},{"anonymous":false,"inputs":[{"indexed":false,"internalType":"address","name":"strategist","type":"address"}],"name":"SetStrategist","type":"event"},{"anonymous":false,"inputs":[],"name":"Shutdown","type":"event"},{"anonymous":false,"inputs":[{"indexed":false,"internalType":"address","name":"token","type":"address"},{"indexed":false,"internalType":"address","name":"newDex","type":"address"}],"name":"SwapDex","type":"event"},{"anonymous":false,"inputs":[{"indexed":false,"internalType":"uint256","name":"amount","type":"uint256"}],"name":"Withdraw","type":"event"},{"anonymous":false,"inputs":[{"indexed":false,"internalType":"uint256","name":"amount","type":"uint256"}],"name":"WithdrawAll","type":"event"},{"inputs":[{"internalType":"address","name":"token","type":"address"}],"name":"addRewardToken","outputs":[{"internalType":"bool","name":"","type":"bool"}],"stateMutability":"nonpayable","type":"function"},{"inputs":[],"name":"balance","outputs":[{"internalType":"uint256","name":"","type":"uint256"}],"stateMutability":"view","type":"function"},{"inputs":[],"name":"communityReserve","outputs":[{"internalType":"address","name":"","type":"address"}],"stateMutability":"view","type":"function"},{"inputs":[],"name":"convexPid","outputs":[{"internalType":"uint256","name":"","type":"uint256"}],"stateMutability":"view","type":"function"},{"inputs":[],"name":"crvCommunityReserveShare","outputs":[{"internalType":"uint256","name":"","type":"uint256"}],"stateMutability":"view","type":"function"},{"inputs":[],"name":"curveIndex","outputs":[{"internalType":"uint256","name":"","type":"uint256"}],"stateMutability":"view","type":"function"},{"inputs":[],"name":"curvePool","outputs":[{"internalType":"contract ICurveSwapEth","name":"","type":"address"}],"stateMutability":"view","type":"function"},{"inputs":[],"name":"cvxCommunityReserveShare","outputs":[{"internalType":"uint256","name":"","type":"uint256"}],"stateMutability":"view","type":"function"},{"inputs":[],"name":"deposit","outputs":[{"internalType":"bool","name":"","type":"bool"}],"stateMutability":"payable","type":"function"},{"inputs":[{"internalType":"uint256","name":"crvEarned","type":"uint256"}],"name":"getCvxMintAmount","outputs":[{"internalType":"uint256","name":"","type":"uint256"}],"stateMutability":"view","type":"function"},{"inputs":[],"name":"harvest","outputs":[{"internalType":"uint256","name":"","type":"uint256"}],"stateMutability":"nonpayable","type":"function"},{"inputs":[],"name":"harvestable","outputs":[{"internalType":"uint256","name":"","type":"uint256"}],"stateMutability":"view","type":"function"},{"inputs":[],"name":"hasPendingFunds","outputs":[{"internalType":"bool","name":"","type":"bool"}],"stateMutability":"pure","type":"function"},{"inputs":[],"name":"imbalanceToleranceIn","outputs":[{"internalType":"uint256","name":"","type":"uint256"}],"stateMutability":"view","type":"function"},{"inputs":[],"name":"imbalanceToleranceOut","outputs":[{"internalType":"uint256","name":"","type":"uint256"}],"stateMutability":"view","type":"function"},{"inputs":[],"name":"isShutdown","outputs":[{"internalType":"bool","name":"","type":"bool"}],"stateMutability":"view","type":"function"},{"inputs":[],"name":"lp","outputs":[{"internalType":"contract IERC20","name":"","type":"address"}],"stateMutability":"view","type":"function"},{"inputs":[],"name":"name","outputs":[{"internalType":"string","name":"","type":"string"}],"stateMutability":"view","type":"function"},{"inputs":[{"internalType":"address","name":"token","type":"address"}],"name":"removeRewardToken","outputs":[{"internalType":"bool","name":"","type":"bool"}],"stateMutability":"nonpayable","type":"function"},{"inputs":[],"name":"rewards","outputs":[{"internalType":"contract IRewardStaking","name":"","type":"address"}],"stateMutability":"view","type":"function"},{"inputs":[],"name":"roleManager","outputs":[{"internalType":"contract IRoleManager","name":"","type":"address"}],"stateMutability":"view","type":"function"},{"inputs":[{"internalType":"address","name":"_communityReserve","type":"address"}],"name":"setCommunityReserve","outputs":[{"internalType":"bool","name":"","type":"bool"}],"stateMutability":"nonpayable","type":"function"},{"inputs":[{"internalType":"uint256","name":"crvCommunityReserveShare_","type":"uint256"}],"name":"setCrvCommunityReserveShare","outputs":[{"internalType":"bool","name":"","type":"bool"}],"stateMutability":"nonpayable","type":"function"},{"inputs":[{"internalType":"uint256","name":"cvxCommunityReserveShare_","type":"uint256"}],"name":"setCvxCommunityReserveShare","outputs":[{"internalType":"bool","name":"","type":"bool"}],"stateMutability":"nonpayable","type":"function"},{"inputs":[{"internalType":"uint256","name":"_imbalanceToleranceIn","type":"uint256"}],"name":"setImbalanceToleranceIn","outputs":[{"internalType":"bool","name":"","type":"bool"}],"stateMutability":"nonpayable","type":"function"},{"inputs":[{"internalType":"uint256","name":"_imbalanceToleranceOut","type":"uint256"}],"name":"setImbalanceToleranceOut","outputs":[{"internalType":"bool","name":"","type":"bool"}],"stateMutability":"nonpayable","type":"function"},{"inputs":[{"internalType":"uint256","name":"_slippageTolerance","type":"uint256"}],"name":"setSlippageTolerance","outputs":[{"internalType":"bool","name":"","type":"bool"}],"stateMutability":"nonpayable","type":"function"},{"inputs":[{"internalType":"address","name":"_strategist","type":"address"}],"name":"setStrategist","outputs":[{"internalType":"bool","name":"","type":"bool"}],"stateMutability":"nonpayable","type":"function"},{"inputs":[],"name":"shutdown","outputs":[{"internalType":"bool","name":"","type":"bool"}],"stateMutability":"nonpayable","type":"function"},{"inputs":[],"name":"slippageTolerance","outputs":[{"internalType":"uint256","name":"","type":"uint256"}],"stateMutability":"view","type":"function"},{"inputs":[],"name":"strategist","outputs":[{"internalType":"address","name":"","type":"address"}],"stateMutability":"view","type":"function"},{"inputs":[{"internalType":"address","name":"token","type":"address"}],"name":"swapDex","outputs":[{"internalType":"bool","name":"","type":"bool"}],"stateMutability":"nonpayable","type":"function"},{"inputs":[{"internalType":"address","name":"","type":"address"}],"name":"tokenDex","outputs":[{"internalType":"contract UniswapRouter02","name":"","type":"address"}],"stateMutability":"view","type":"function"},{"inputs":[],"name":"vault","outputs":[{"internalType":"address payable","name":"","type":"address"}],"stateMutability":"view","type":"function"},{"inputs":[{"internalType":"uint256","name":"amount","type":"uint256"}],"name":"withdraw","outputs":[{"internalType":"bool","name":"","type":"bool"}],"stateMutability":"nonpayable","type":"function"},{"inputs":[],"name":"withdrawAll","outputs":[{"internalType":"uint256","name":"","type":"uint256"}],"stateMutability":"nonpayable","type":"function"},{"stateMutability":"payable","type":"receive"}],"bytecode":"6101806040523480156200001257600080fd5b50604051620045eb380380620045eb83398101604081905262000035916200077d565b62000054816001600160a01b0316620002fc60201b620025301760201c565b6001600160a01b03908116608052670d7621dc58210000600090815587821660c052600680546001600160a01b03191688841617905585821660e05261014085905261016084905290821660a052604051631526fe2760e01b815260048101859052819073f403c135812408bfbe8713b5a23a04b3d48aae3190631526fe279060240160c060405180830381600087803b158015620000f257600080fd5b505af115801562000107573d6000803e3d6000fd5b505050506040513d601f19601f820116820180604052508101906200012d919062000810565b50506001600160a01b038481166101005281166101205266027ca57357c0006001556624f2beb1aa000060025573d533a949740bb3306d119cc777fa900ba034cd5260005260076020527fed4c9b3ad13d2bf45175455fec325ef1713cf4b0f709952687da6d7332a081ba80546001600160a01b03191673d9e1ce17f2641f24ae83637ab66a2cca9c378b9f179055929450919250620001cb915050565b734e3fbd56cd56c3e72c1403e103b45db9da5b9d2b60005260076020527ff3af3b9da6ac33569932110b27324f490cadff82974ce0ccd88561c89e289b4a80546001600160a01b03191673d9e1ce17f2641f24ae83637ab66a2cca9c378b9f1790556200026873f403c135812408bfbe8713b5a23a04b3d48aae31600019846001600160a01b03166200038e60201b620025bf179092919060201c565b620002ab734e3fbd56cd56c3e72c1403e103b45db9da5b9d2b73b576491f1e6e5e62f1d8f26062ee822b40b0e0d46000196200038e602090811b620025bf17901c565b620002ee73d533a949740bb3306d119cc777fa900ba034cd5273d9e1ce17f2641f24ae83637ab66a2cca9c378b9f6000196200038e602090811b620025bf17901c565b50505050505050506200097d565b6040516321f8a72160e01b81526a3937b632a6b0b730b3b2b960a91b60048201526000906001600160a01b038316906321f8a7219060240160206040518083038186803b1580156200034d57600080fd5b505afa15801562000362573d6000803e3d6000fd5b505050506040513d601f19601f820116820180604052508101906200038891906200089f565b92915050565b8015806200041c5750604051636eb1769f60e11b81523060048201526001600160a01b03838116602483015284169063dd62ed3e9060440160206040518083038186803b158015620003df57600080fd5b505afa158015620003f4573d6000803e3d6000fd5b505050506040513d601f19601f820116820180604052508101906200041a9190620008bf565b155b620004945760405162461bcd60e51b815260206004820152603660248201527f5361666545524332303a20617070726f76652066726f6d206e6f6e2d7a65726f60448201527f20746f206e6f6e2d7a65726f20616c6c6f77616e63650000000000000000000060648201526084015b60405180910390fd5b604080516001600160a01b038416602482015260448082018490528251808303909101815260649091019091526020810180516001600160e01b0390811663095ea7b360e01b17909152620004ec918591620004f116565b505050565b60006200054d826040518060400160405280602081526020017f5361666545524332303a206c6f772d6c6576656c2063616c6c206661696c6564815250856001600160a01b0316620005cf60201b6200271b179092919060201c565b805190915015620004ec57808060200190518101906200056e9190620008d9565b620004ec5760405162461bcd60e51b815260206004820152602a60248201527f5361666545524332303a204552433230206f7065726174696f6e20646964206e6044820152691bdd081cdd58d8d9595960b21b60648201526084016200048b565b6060620005e08484600085620005ea565b90505b9392505050565b6060824710156200064d5760405162461bcd60e51b815260206004820152602660248201527f416464726573733a20696e73756666696369656e742062616c616e636520666f6044820152651c8818d85b1b60d21b60648201526084016200048b565b6001600160a01b0385163b620006a65760405162461bcd60e51b815260206004820152601d60248201527f416464726573733a2063616c6c20746f206e6f6e2d636f6e747261637400000060448201526064016200048b565b600080866001600160a01b03168587604051620006c491906200092a565b60006040518083038185875af1925050503d806000811462000703576040519150601f19603f3d011682016040523d82523d6000602084013e62000708565b606091505b5090925090506200071b82828662000726565b979650505050505050565b6060831562000737575081620005e3565b825115620007485782518084602001fd5b8160405162461bcd60e51b81526004016200048b919062000948565b6001600160a01b03811681146200077a57600080fd5b50565b60008060008060008060c087890312156200079757600080fd5b8651620007a48162000764565b6020880151909650620007b78162000764565b6040880151909550620007ca8162000764565b80945050606087015192506080870151915060a0870151620007ec8162000764565b809150509295509295509295565b805180151581146200080b57600080fd5b919050565b60008060008060008060c087890312156200082a57600080fd5b8651620008378162000764565b60208801519096506200084a8162000764565b60408801519095506200085d8162000764565b6060880151909450620008708162000764565b6080880151909350620008838162000764565b91506200089360a08801620007fa565b90509295509295509295565b600060208284031215620008b257600080fd5b8151620005e38162000764565b600060208284031215620008d257600080fd5b5051919050565b600060208284031215620008ec57600080fd5b620005e382620007fa565b60005b8381101562000914578181015183820152602001620008fa565b8381111562000924576000848401525b50505050565b600082516200093e818460208701620008f7565b9190910192915050565b602081526000825180602084015262000969816040850160208701620008f7565b601f01601f19169190910160400192915050565b60805160a05160c05160e05161010051610120516101405161016051613b1a62000ad1600039600081816104cf01528181610d8c01528181611a700152611e8a0152600081816105180152611f5301526000818161059801528181610cec015281816111de0152818161199c0152818161205d0152612b9601526000818161039c01526127b301526000818161034801528181610dd701528181611a4001528181611ec801528181612bf401526131300152600081816106b501528181610bbb01528181610c1c01528181610e4b0152818161117d0152818161185601528181611b1701528181611dd8015261249701526000818161334d015261353b01526000818161022d0152818161070b0152818161090201528181610fea01528181611317015281816115580152818161167f0152818161187f01528181611bcd01528181612176015261229d0152613b1a6000f3fe6080604052600436106102125760003560e01c80637bdcdaff11610118578063c7b9d530116100a0578063e9eb50881161006f578063e9eb508814610663578063ecf8db0a14610683578063fbfa77cf146106a3578063fc0e74d1146106d7578063ff0af85b146106ec57600080fd5b8063c7b9d53014610610578063d03153aa14610630578063d0e30db014610646578063dbbd47d41461064e57600080fd5b80639b61a924116100e75780639b61a924146105705780639ec5a89414610586578063b69ef8a8146105ba578063bf86d690146105cf578063c2bddf31146105f057600080fd5b80637bdcdaff146104bd578063853828b6146104f157806386993bef146105065780639851bf381461053a57600080fd5b80633778851e1161019b57806349cabcdf1161016a57806349cabcdf1461043357806356be5f711461045357806361240eea14610469578063621e8fe11461047d57806370aa17261461049d57600080fd5b80633778851e146103be5780633d509c97146103de5780634641257d146103fe578063469656a21461041357600080fd5b80631c03e6cc116101e25780631c03e6cc146102f65780631fe4a68614610316578063218751b2146103365780632e1a7d4d1461036a578063313c06a01461038a57600080fd5b8062435da51461021e57806306fdde031461026a578063117da1ee146102a25780631a55820d146102d257600080fd5b3661021957005b600080fd5b34801561022a57600080fd5b507f00000000000000000000000000000000000000000000000000000000000000005b6040516001600160a01b0390911681526020015b60405180910390f35b34801561027657600080fd5b506040805180820182526009815268084d6c88ae8d086ecf60bb1b60208201529051610261919061375d565b3480156102ae57600080fd5b506102c26102bd366004613790565b610707565b6040519015158152602001610261565b3480156102de57600080fd5b506102e860025481565b604051908152602001610261565b34801561030257600080fd5b506102c26103113660046137c1565b6108fe565b34801561032257600080fd5b5060065461024d906001600160a01b031681565b34801561034257600080fd5b5061024d7f000000000000000000000000000000000000000000000000000000000000000081565b34801561037657600080fd5b506102c2610385366004613790565b610b8b565b34801561039657600080fd5b5061024d7f000000000000000000000000000000000000000000000000000000000000000081565b3480156103ca57600080fd5b506102e86103d9366004613790565b610ed7565b3480156103ea57600080fd5b506102c26103f93660046137c1565b610fe6565b34801561040a57600080fd5b506102e861114d565b34801561041f57600080fd5b506102c261042e3660046137c1565b611313565b34801561043f57600080fd5b506102c261044e366004613790565b611554565b34801561045f57600080fd5b506102e860015481565b34801561047557600080fd5b5060006102c2565b34801561048957600080fd5b5060035461024d906001600160a01b031681565b3480156104a957600080fd5b506102c26104b8366004613790565b61167b565b3480156104c957600080fd5b506102e87f000000000000000000000000000000000000000000000000000000000000000081565b3480156104fd57600080fd5b506102e8611849565b34801561051257600080fd5b506102e87f000000000000000000000000000000000000000000000000000000000000000081565b34801561054657600080fd5b5061024d6105553660046137c1565b6007602052600090815260409020546001600160a01b031681565b34801561057c57600080fd5b506102e860045481565b34801561059257600080fd5b5061024d7f000000000000000000000000000000000000000000000000000000000000000081565b3480156105c657600080fd5b506102e8611b9b565b3480156105db57600080fd5b506006546102c290600160a01b900460ff1681565b3480156105fc57600080fd5b506102c261060b3660046137c1565b611bc9565b34801561061c57600080fd5b506102c261062b3660046137c1565b611d09565b34801561063c57600080fd5b506102e860005481565b6102c2611da8565b34801561065a57600080fd5b506102e861203c565b34801561066f57600080fd5b506102c261067e366004613790565b612172565b34801561068f57600080fd5b506102c261069e366004613790565b612299565b3480156106af57600080fd5b5061024d7f000000000000000000000000000000000000000000000000000000000000000081565b3480156106e357600080fd5b506102c2612467565b3480156106f857600080fd5b506102e860055481565b905090565b60007f0000000000000000000000000000000000000000000000000000000000000000604051632474521560e21b815269676f7665726e616e636560b01b60048201523360248201526001600160a01b0391909116906391d148549060440160206040518083038186803b15801561077e57600080fd5b505afa158015610792573d6000803e3d6000fd5b505050506040513d601f19601f820116820180604052508101906107b691906137de565b604051806040016040528060138152602001600080516020613ac5833981519152815250906108015760405162461bcd60e51b81526004016107f8919061375d565b60405180910390fd5b5060408051808201909152601a81527f496e76616c696420736c69707061676520746f6c6572616e63650000000000006020820152670de0b6b3a764000083111561085f5760405162461bcd60e51b81526004016107f8919061375d565b5060408051808201909152601a81527f496e76616c696420736c69707061676520746f6c6572616e63650000000000006020820152670b1a2bc2ec50000083116108bc5760405162461bcd60e51b81526004016107f8919061375d565b5060008290556040518281527fe4a7fd2711237e77309a9a16ff636a748dbf956fd91f6e6da800d9302f441a79906020015b60405180910390a1506001919050565b60007f0000000000000000000000000000000000000000000000000000000000000000604051632474521560e21b815269676f7665726e616e636560b01b60048201523360248201526001600160a01b0391909116906391d148549060440160206040518083038186803b15801561097557600080fd5b505afa158015610989573d6000803e3d6000fd5b505050506040513d601f19601f820116820180604052508101906109ad91906137de565b604051806040016040528060138152602001600080516020613ac5833981519152815250906109ef5760405162461bcd60e51b81526004016107f8919061375d565b506001600160a01b038216734e3fbd56cd56c3e72c1403e103b45db9da5b9d2b14801590610a3a57506001600160a01b03821673d533a949740bb3306d119cc777fa900ba034cd5214155b8015610a6357506001600160a01b03821673c02aaa39b223fe8d0a0e5c4f27ead9083c756cc214155b60405180604001604052806014815260200173125b9d985b1a59081d1bdad95b881d1bc818591960621b81525090610aae5760405162461bcd60e51b81526004016107f8919061375d565b506001600160a01b03821660009081526009602052604090205415610ad557506000919050565b610ae0600883612734565b50610aff8273d9e1ce17f2641f24ae83637ab66a2cca9c378b9f612749565b610b286001600160a01b03831673d9e1ce17f2641f24ae83637ab66a2cca9c378b9f60006125bf565b610b526001600160a01b03831673d9e1ce17f2641f24ae83637ab66a2cca9c378b9f6000196125bf565b6040516001600160a01b03831681527f851bbb4304bf0768ed98b97e429b5bd1dcc1f194b36cd1650f40293e951ae393906020016108ee565b6040805180820190915260138152600080516020613ac58339815191526020820152600090336001600160a01b037f00000000000000000000000000000000000000000000000000000000000000001614610bf95760405162461bcd60e51b81526004016107f8919061375d565b5081610c0757506000919050565b47828110610c9d576040516001600160a01b037f0000000000000000000000000000000000000000000000000000000000000000169084156108fc029085906000818181858888f19350505050610c615750600092915050565b6040518381527f5b6b431d4476a211bb7d41c20d1aab9ae2321deee0d20be3d9fc9b1093fa6e3d9060200160405180910390a150600192915050565b6000610ca98285613816565b90506000610cb682612777565b90506000610cc261279b565b610ccc9083613816565b604051636197390160e11b815260048101829052600060248201529091507f00000000000000000000000000000000000000000000000000000000000000006001600160a01b03169063c32e720290604401602060405180830381600087803b158015610d3857600080fd5b505af1158015610d4c573d6000803e3d6000fd5b505050506040513d601f19601f82011682018060405250810190610d7091906137de565b610d805750600095945050505050565b610d88613713565b83817f000000000000000000000000000000000000000000000000000000000000000060028110610dbb57610dbb61382d565b602002015260405163e310327360e01b81526001600160a01b037f0000000000000000000000000000000000000000000000000000000000000000169063e310327390610e0e9084908790600401613843565b600060405180830381600087803b158015610e2857600080fd5b505af1158015610e3c573d6000803e3d6000fd5b50506040516001600160a01b037f000000000000000000000000000000000000000000000000000000000000000016925089156108fc02915089906000818181858888f19350505050158015610e96573d6000803e3d6000fd5b506040518781527f5b6b431d4476a211bb7d41c20d1aab9ae2321deee0d20be3d9fc9b1093fa6e3d9060200160405180910390a15060019695505050505050565b600080734e3fbd56cd56c3e72c1403e103b45db9da5b9d2b6001600160a01b03166318160ddd6040518163ffffffff1660e01b815260040160206040518083038186803b158015610f2757600080fd5b505afa158015610f3b573d6000803e3d6000fd5b505050506040513d601f19601f82011682018060405250810190610f5f919061387b565b90506000610f7769152d02c7e14af680000083613894565b90506103e88110610f8c575060009392505050565b6000610f9a826103e8613816565b905060006103e8610fab83886138b6565b610fb59190613894565b90506000610fce856a52b7d2dcc80cd2e4000000613816565b905080821115610fdc578091505b5095945050505050565b60007f0000000000000000000000000000000000000000000000000000000000000000604051632474521560e21b815269676f7665726e616e636560b01b60048201523360248201526001600160a01b0391909116906391d148549060440160206040518083038186803b15801561105d57600080fd5b505afa158015611071573d6000803e3d6000fd5b505050506040513d601f19601f8201168201806040525081019061109591906137de565b604051806040016040528060138152602001600080516020613ac5833981519152815250906110d75760405162461bcd60e51b81526004016107f8919061375d565b506001600160a01b0382166000908152600960205260409020546110fd57506000919050565b611108600883612836565b61111457506000919050565b6040516001600160a01b03831681527f36bd04094fa067bb9471a8fbdb0a6e8a43424a2566ad3a740c88973fa40a3118906020016108ee565b6040805180820190915260138152600080516020613ac58339815191526020820152600090336001600160a01b037f000000000000000000000000000000000000000000000000000000000000000016146111bb5760405162461bcd60e51b81526004016107f8919061375d565b50600047604051637050ccd960e01b8152306004820152600060248201529091507f00000000000000000000000000000000000000000000000000000000000000006001600160a01b031690637050ccd990604401600060405180830381600087803b15801561122a57600080fd5b505af115801561123e573d6000803e3d6000fd5b5050505061124a61284b565b611267734e3fbd56cd56c3e72c1403e103b45db9da5b9d2b6129e7565b61128473d533a949740bb3306d119cc777fa900ba034cd526129e7565b60005b6112916008612a71565b8110156112bd576112ab6112a6600883612a7b565b6129e7565b806112b5816138d5565b915050611287565b506112c6612a87565b60006112d28247613816565b90507f80f97f878e16410266694f134ddf012f2be424f54f8b5cafa107eccc51d00d588160405161130591815260200190565b60405180910390a191505090565b60007f0000000000000000000000000000000000000000000000000000000000000000604051632474521560e21b815269676f7665726e616e636560b01b60048201523360248201526001600160a01b0391909116906391d148549060440160206040518083038186803b15801561138a57600080fd5b505afa15801561139e573d6000803e3d6000fd5b505050506040513d601f19601f820116820180604052508101906113c291906137de565b604051806040016040528060138152602001600080516020613ac5833981519152815250906114045760405162461bcd60e51b81526004016107f8919061375d565b506001600160a01b03808316600090815260076020908152604091829020548251808401909352601d83527f6e6f2064657820686173206265656e2073657420666f7220746f6b656e0000009183019190915290911690816114795760405162461bcd60e51b81526004016107f8919061375d565b5060006001600160a01b03821673d9e1ce17f2641f24ae83637ab66a2cca9c378b9f146114ba5773d9e1ce17f2641f24ae83637ab66a2cca9c378b9f6114d0565b737a250d5630b4cf539739df2c5dacb4c659f2488d5b90506114dc8482612749565b6114f16001600160a01b0385168260006125bf565b6115076001600160a01b038516826000196125bf565b604080516001600160a01b038087168252831660208201527fcac2ded52b5e76b519f6013bcd694b2426f57750994e28325ae931943a49ead2910160405180910390a15060019392505050565b60007f0000000000000000000000000000000000000000000000000000000000000000604051632474521560e21b815269676f7665726e616e636560b01b60048201523360248201526001600160a01b0391909116906391d148549060440160206040518083038186803b1580156115cb57600080fd5b505afa1580156115df573d6000803e3d6000fd5b505050506040513d601f19601f8201168201806040525081019061160391906137de565b604051806040016040528060138152602001600080516020613ac5833981519152815250906116455760405162461bcd60e51b81526004016107f8919061375d565b5060018290556040518281527f4ede3e4e9f7997fda6ff4a12d6c43d5c9e1e2055065cbc15f902f504f72dc8c0906020016108ee565b60007f0000000000000000000000000000000000000000000000000000000000000000604051632474521560e21b815269676f7665726e616e636560b01b60048201523360248201526001600160a01b0391909116906391d148549060440160206040518083038186803b1580156116f257600080fd5b505afa158015611706573d6000803e3d6000fd5b505050506040513d601f19601f8201168201806040525081019061172a91906137de565b604051806040016040528060138152602001600080516020613ac58339815191528152509061176c5760405162461bcd60e51b81526004016107f8919061375d565b5060408051808201909152600e81526d1a5b9d985b1a5908185b5bdd5b9d60921b6020820152670de0b6b3a76400008311156117bb5760405162461bcd60e51b81526004016107f8919061375d565b506003546001600160a01b03166118145760405162461bcd60e51b815260206004820152601d60248201527f436f6d6d756e6974792072657365727665206d7573742062652073657400000060448201526064016107f8565b60058290556040518281527f1a8542dffa4956932e66916113e6a123e123956172fbc0e2e59df92b8a87d8e6906020016108ee565b6000336001600160a01b037f000000000000000000000000000000000000000000000000000000000000000016148061192a57507f0000000000000000000000000000000000000000000000000000000000000000604051632474521560e21b815269676f7665726e616e636560b01b60048201523360248201526001600160a01b0391909116906391d148549060440160206040518083038186803b1580156118f257600080fd5b505afa158015611906573d6000803e3d6000fd5b505050506040513d601f19601f8201168201806040525081019061192a91906137de565b604051806040016040528060138152602001600080516020613ac58339815191528152509061196c5760405162461bcd60e51b81526004016107f8919061375d565b506000611977612b7e565b90508015611a2c57604051636197390160e11b815260048101829052600060248201527f00000000000000000000000000000000000000000000000000000000000000006001600160a01b03169063c32e720290604401602060405180830381600087803b1580156119e857600080fd5b505af11580156119fc573d6000803e3d6000fd5b505050506040513d601f19601f82011682018060405250810190611a2091906137de565b611a2c57600091505090565b6000611a3661279b565b90508015611afa577f00000000000000000000000000000000000000000000000000000000000000006001600160a01b0316631a4d01d2827f0000000000000000000000000000000000000000000000000000000000000000611a9885612bcd565b6040516001600160e01b031960e086901b1681526004810193909352600f9190910b60248301526044820152606401600060405180830381600087803b158015611ae157600080fd5b505af1158015611af5573d6000803e3d6000fd5b505050505b4780611b0a576000935050505090565b6040516001600160a01b037f0000000000000000000000000000000000000000000000000000000000000000169082156108fc029083906000818181858888f19350505050158015611b60573d6000803e3d6000fd5b506040518181527f3d5a341dc6a12221fcf31279cef3771f8fad757b2d9261f97605ccc17c2574249060200160405180910390a19392505050565b6000611bbf611ba861279b565b611bb0612b7e565b611bba91906138f0565b612bed565b61070290476138f0565b60007f0000000000000000000000000000000000000000000000000000000000000000604051632474521560e21b815269676f7665726e616e636560b01b60048201523360248201526001600160a01b0391909116906391d148549060440160206040518083038186803b158015611c4057600080fd5b505afa158015611c54573d6000803e3d6000fd5b505050506040513d601f19601f82011682018060405250810190611c7891906137de565b604051806040016040528060138152602001600080516020613ac583398151915281525090611cba5760405162461bcd60e51b81526004016107f8919061375d565b50600380546001600160a01b0319166001600160a01b0384169081179091556040519081527f17d7ba6682f162782054b119192f8e5b98fe7090b4bec7a55fc7075d9cd859ee906020016108ee565b6006546040805180820190915260138152600080516020613ac583398151915260208201526000916001600160a01b03163314611d595760405162461bcd60e51b81526004016107f8919061375d565b50600680546001600160a01b0319166001600160a01b0384169081179091556040519081527f46d58e3fa07bf19b1d27240f0e286b27e9f7c1b0d88933333fe833b60eec5412906020016108ee565b6040805180820190915260138152600080516020613ac58339815191526020820152600090336001600160a01b037f00000000000000000000000000000000000000000000000000000000000000001614611e165760405162461bcd60e51b81526004016107f8919061375d565b5060065460408051808201909152601581527429ba3930ba32b3bc9034b99039b43aba103237bbb760591b602082015290600160a01b900460ff1615611e6f5760405162461bcd60e51b81526004016107f8919061375d565b504780611e7e57600091505090565b611e86613713565b81817f000000000000000000000000000000000000000000000000000000000000000060028110611eb957611eb961382d565b60200201526001600160a01b037f000000000000000000000000000000000000000000000000000000000000000016630b4c7e4d8383611ef882612c8a565b6040518463ffffffff1660e01b8152600401611f15929190613843565b6000604051808303818588803b158015611f2e57600080fd5b505af1158015611f42573d6000803e3d6000fd5b505060405163303acfe760e11b81527f000000000000000000000000000000000000000000000000000000000000000060048201526001602482015273f403c135812408bfbe8713b5a23a04b3d48aae3193506360759fce92506044019050602060405180830381600087803b158015611fbb57600080fd5b505af1158015611fcf573d6000803e3d6000fd5b505050506040513d601f19601f82011682018060405250810190611ff391906137de565b6120005760009250505090565b6040518281527f4d6ce1e535dbade1c23defba91e23b8f791ce5edc0cc320257a2b364e4e384269060200160405180910390a160019250505090565b6040516246613160e11b815230600482015260009081906001600160a01b037f00000000000000000000000000000000000000000000000000000000000000001690628cc2629060240160206040518083038186803b15801561209e57600080fd5b505afa1580156120b2573d6000803e3d6000fd5b505050506040513d601f19601f820116820180604052508101906120d6919061387b565b9050806120e557600091505090565b61212a734e3fbd56cd56c3e72c1403e103b45db9da5b9d2b612125600454670de0b6b3a76400006121169190613816565b61211f85610ed7565b90612ca5565b612cc4565b61216273d533a949740bb3306d119cc777fa900ba034cd52612125600554670de0b6b3a764000061215b9190613816565b8590612ca5565b61216c91906138f0565b91505090565b60007f0000000000000000000000000000000000000000000000000000000000000000604051632474521560e21b815269676f7665726e616e636560b01b60048201523360248201526001600160a01b0391909116906391d148549060440160206040518083038186803b1580156121e957600080fd5b505afa1580156121fd573d6000803e3d6000fd5b505050506040513d601f19601f8201168201806040525081019061222191906137de565b604051806040016040528060138152602001600080516020613ac5833981519152815250906122635760405162461bcd60e51b81526004016107f8919061375d565b5060028290556040518281527fb2861fed34a4613f8f25f46553a23408a3364ee9ddc4ef6714f0a81d856e41a7906020016108ee565b60007f0000000000000000000000000000000000000000000000000000000000000000604051632474521560e21b815269676f7665726e616e636560b01b60048201523360248201526001600160a01b0391909116906391d148549060440160206040518083038186803b15801561231057600080fd5b505afa158015612324573d6000803e3d6000fd5b505050506040513d601f19601f8201168201806040525081019061234891906137de565b604051806040016040528060138152602001600080516020613ac58339815191528152509061238a5760405162461bcd60e51b81526004016107f8919061375d565b5060408051808201909152600e81526d1a5b9d985b1a5908185b5bdd5b9d60921b6020820152670de0b6b3a76400008311156123d95760405162461bcd60e51b81526004016107f8919061375d565b506003546001600160a01b03166124325760405162461bcd60e51b815260206004820152601d60248201527f436f6d6d756e6974792072657365727665206d7573742062652073657400000060448201526064016107f8565b60048290556040518281527f2c3c7d70a1dfbfaf74447753b8a73e1323aa10b32b9209742db563671e14b13c906020016108ee565b6040805180820190915260138152600080516020613ac58339815191526020820152600090336001600160a01b037f000000000000000000000000000000000000000000000000000000000000000016146124d55760405162461bcd60e51b81526004016107f8919061375d565b50600654600160a01b900460ff16156124ee5750600090565b6006805460ff60a01b1916600160a01b1790556040517f4426aa1fb73e391071491fcfe21a88b5c38a0a0333a1f6e77161470439704cf890600090a150600190565b6040516321f8a72160e01b81526a3937b632a6b0b730b3b2b960a91b60048201526000906001600160a01b038316906321f8a721906024015b60206040518083038186803b15801561258157600080fd5b505afa158015612595573d6000803e3d6000fd5b505050506040513d601f19601f820116820180604052508101906125b99190613908565b92915050565b8015806126485750604051636eb1769f60e11b81523060048201526001600160a01b03838116602483015284169063dd62ed3e9060440160206040518083038186803b15801561260e57600080fd5b505afa158015612622573d6000803e3d6000fd5b505050506040513d601f19601f82011682018060405250810190612646919061387b565b155b6126b35760405162461bcd60e51b815260206004820152603660248201527f5361666545524332303a20617070726f76652066726f6d206e6f6e2d7a65726f60448201527520746f206e6f6e2d7a65726f20616c6c6f77616e636560501b60648201526084016107f8565b6040516001600160a01b03831660248201526044810182905261271690849063095ea7b360e01b906064015b60408051601f198184030181529190526020810180516001600160e01b03166001600160e01b031990931692909217909152612ed7565b505050565b606061272a8484600085612fa9565b90505b9392505050565b600061272d836001600160a01b0384166130da565b6001600160a01b03918216600090815260076020526040902080546001600160a01b03191691909216179055565b60006125b9600254670de0b6b3a764000061279291906138f0565b61211f84613129565b6040516370a0823160e01b81523060048201526000907f00000000000000000000000000000000000000000000000000000000000000006001600160a01b0316906370a08231906024015b60206040518083038186803b1580156127fe57600080fd5b505afa158015612812573d6000803e3d6000fd5b505050506040513d601f19601f82011682018060405250810190610702919061387b565b600061272d836001600160a01b0384166131c6565b6003546001600160a01b03168061285f5750565b6004548015612921576040516370a0823160e01b8152306004820152600090734e3fbd56cd56c3e72c1403e103b45db9da5b9d2b906370a082319060240160206040518083038186803b1580156128b557600080fd5b505afa1580156128c9573d6000803e3d6000fd5b505050506040513d601f19601f820116820180604052508101906128ed919061387b565b9050801561291f5761291f836129038385612ca5565b734e3fbd56cd56c3e72c1403e103b45db9da5b9d2b91906132b9565b505b6005548015612716576040516370a0823160e01b815230600482015260009073d533a949740bb3306d119cc777fa900ba034cd52906370a082319060240160206040518083038186803b15801561297757600080fd5b505afa15801561298b573d6000803e3d6000fd5b505050506040513d601f19601f820116820180604052508101906129af919061387b565b905080156129e1576129e1846129c58385612ca5565b73d533a949740bb3306d119cc777fa900ba034cd5291906132b9565b50505050565b6040516370a0823160e01b81523060048201526000906001600160a01b038316906370a082319060240160206040518083038186803b158015612a2957600080fd5b505afa158015612a3d573d6000803e3d6000fd5b505050506040513d601f19601f82011682018060405250810190612a61919061387b565b9050612a6d82826132e9565b5050565b60006125b9825490565b600061272d838361365b565b6040516370a0823160e01b815230600482015260009073c02aaa39b223fe8d0a0e5c4f27ead9083c756cc2906370a082319060240160206040518083038186803b158015612ad457600080fd5b505afa158015612ae8573d6000803e3d6000fd5b505050506040513d601f19601f82011682018060405250810190612b0c919061387b565b905080612b165750565b604051632e1a7d4d60e01b81526004810182905273c02aaa39b223fe8d0a0e5c4f27ead9083c756cc290632e1a7d4d90602401600060405180830381600087803b158015612b6357600080fd5b505af1158015612b77573d6000803e3d6000fd5b5050505050565b6040516370a0823160e01b81523060048201526000907f00000000000000000000000000000000000000000000000000000000000000006001600160a01b0316906370a08231906024016127e6565b60006125b9600254670de0b6b3a7640000612be89190613816565b61211f845b60006125b97f00000000000000000000000000000000000000000000000000000000000000006001600160a01b031663bb7b8b806040518163ffffffff1660e01b815260040160206040518083038186803b158015612c4b57600080fd5b505afa158015612c5f573d6000803e3d6000fd5b505050506040513d601f19601f82011682018060405250810190612c83919061387b565b8390612ca5565b60006125b9600154670de0b6b3a76400006127929190613816565b6000670de0b6b3a7640000612cba83856138b6565b61272d9190613894565b600081612cd3575060006125b9565b6001600160a01b038316734e3fbd56cd56c3e72c1403e103b45db9da5b9d2b1415612d905760405163556d6e9f60e01b815260016004820152600060248201526044810183905273b576491f1e6e5e62f1d8f26062ee822b40b0e0d49063556d6e9f9060640160206040518083038186803b158015612d5157600080fd5b505afa158015612d65573d6000803e3d6000fd5b505050506040513d601f19601f82011682018060405250810190612d89919061387b565b90506125b9565b6040805160028082526060820183526000926020830190803683370190505090508381600081518110612dc557612dc561382d565b60200260200101906001600160a01b031690816001600160a01b03168152505073c02aaa39b223fe8d0a0e5c4f27ead9083c756cc281600181518110612e0d57612e0d61382d565b6001600160a01b039283166020918202929092018101919091528582166000908152600790915260409081902054905163d06ca61f60e01b815291169063d06ca61f90612e60908690859060040161397f565b60006040518083038186803b158015612e7857600080fd5b505afa158015612e8c573d6000803e3d6000fd5b505050506040513d6000823e601f3d908101601f19168201604052612eb49190810190613998565b600181518110612ec657612ec661382d565b602002602001015191505092915050565b6000612f2c826040518060400160405280602081526020017f5361666545524332303a206c6f772d6c6576656c2063616c6c206661696c6564815250856001600160a01b031661271b9092919063ffffffff16565b8051909150156127165780806020019051810190612f4a91906137de565b6127165760405162461bcd60e51b815260206004820152602a60248201527f5361666545524332303a204552433230206f7065726174696f6e20646964206e6044820152691bdd081cdd58d8d9595960b21b60648201526084016107f8565b60608247101561300a5760405162461bcd60e51b815260206004820152602660248201527f416464726573733a20696e73756666696369656e742062616c616e636520666f6044820152651c8818d85b1b60d21b60648201526084016107f8565b6001600160a01b0385163b6130615760405162461bcd60e51b815260206004820152601d60248201527f416464726573733a2063616c6c20746f206e6f6e2d636f6e747261637400000060448201526064016107f8565b600080866001600160a01b0316858760405161307d9190613a56565b60006040518083038185875af1925050503d80600081146130ba576040519150601f19603f3d011682016040523d82523d6000602084013e6130bf565b606091505b50915091506130cf828286613685565b979650505050505050565b6000818152600183016020526040812054613121575081546001818101845560008481526020808220909301849055845484825282860190935260409020919091556125b9565b5060006125b9565b60006125b97f00000000000000000000000000000000000000000000000000000000000000006001600160a01b031663bb7b8b806040518163ffffffff1660e01b815260040160206040518083038186803b15801561318757600080fd5b505afa15801561319b573d6000803e3d6000fd5b505050506040513d601f19601f820116820180604052508101906131bf919061387b565b83906136be565b600081815260018301602052604081205480156132af5760006131ea600183613816565b85549091506000906131fe90600190613816565b905081811461326357600086600001828154811061321e5761321e61382d565b90600052602060002001549050808760000184815481106132415761324161382d565b6000918252602080832090910192909255918252600188019052604090208390555b855486908061327457613274613a72565b6001900381819060005260206000200160009055905585600101600086815260200190815260200160002060009055600193505050506125b9565b60009150506125b9565b6040516001600160a01b03831660248201526044810182905261271690849063a9059cbb60e01b906064016126df565b806132f2575050565b6001600160a01b038216734e3fbd56cd56c3e72c1403e103b45db9da5b9d2b14156134755773b576491f1e6e5e62f1d8f26062ee822b40b0e0d46001600160a01b0316635b41b908600160008461340e60005461211f61337a7f00000000000000000000000000000000000000000000000000000000000000006001600160a01b03166136d3565b60405163e5ec9db960e01b8152734e3fbd56cd56c3e72c1403e103b45db9da5b9d2b60048201526001600160a01b03919091169063e5ec9db99060240160206040518083038186803b1580156133cf57600080fd5b505afa1580156133e3573d6000803e3d6000fd5b505050506040513d601f19601f82011682018060405250810190613407919061387b565b8990612ca5565b6040516001600160e01b031960e087901b1681526004810194909452602484019290925260448301526064820152608401600060405180830381600087803b15801561345957600080fd5b505af115801561346d573d6000803e3d6000fd5b505050505050565b60408051600280825260608201835260009260208301908036833701905050905082816000815181106134aa576134aa61382d565b60200260200101906001600160a01b031690816001600160a01b03168152505073c02aaa39b223fe8d0a0e5c4f27ead9083c756cc2816001815181106134f2576134f261382d565b6001600160a01b039283166020918202929092018101919091528482166000908152600790915260408120549054908216916338ed17399185916135e2919061211f90613560907f0000000000000000000000000000000000000000000000000000000000000000166136d3565b60405163e5ec9db960e01b81526001600160a01b038b81166004830152919091169063e5ec9db99060240160206040518083038186803b1580156135a357600080fd5b505afa1580156135b7573d6000803e3d6000fd5b505050506040513d601f19601f820116820180604052508101906135db919061387b565b8890612ca5565b8430426040518663ffffffff1660e01b8152600401613605959493929190613a88565b600060405180830381600087803b15801561361f57600080fd5b505af1158015613633573d6000803e3d6000fd5b505050506040513d6000823e601f3d908101601f191682016040526129e19190810190613998565b60008260000182815481106136725761367261382d565b9060005260206000200154905092915050565b6060831561369457508161272d565b8251156136a45782518084602001fd5b8160405162461bcd60e51b81526004016107f8919061375d565b600081612cba670de0b6b3a7640000856138b6565b6040516321f8a72160e01b81526d37b930b1b632a83937bb34b232b960911b60048201526000906001600160a01b038316906321f8a72190602401612569565b60405180604001604052806002906020820280368337509192915050565b60005b8381101561374c578181015183820152602001613734565b838111156129e15750506000910152565b602081526000825180602084015261377c816040850160208701613731565b601f01601f19169190910160400192915050565b6000602082840312156137a257600080fd5b5035919050565b6001600160a01b03811681146137be57600080fd5b50565b6000602082840312156137d357600080fd5b813561272d816137a9565b6000602082840312156137f057600080fd5b8151801515811461272d57600080fd5b634e487b7160e01b600052601160045260246000fd5b60008282101561382857613828613800565b500390565b634e487b7160e01b600052603260045260246000fd5b60608101818460005b600281101561386b57815183526020928301929091019060010161384c565b5050508260408301529392505050565b60006020828403121561388d57600080fd5b5051919050565b6000826138b157634e487b7160e01b600052601260045260246000fd5b500490565b60008160001904831182151516156138d0576138d0613800565b500290565b60006000198214156138e9576138e9613800565b5060010190565b6000821982111561390357613903613800565b500190565b60006020828403121561391a57600080fd5b815161272d816137a9565b634e487b7160e01b600052604160045260246000fd5b600081518084526020808501945080840160005b838110156139745781516001600160a01b03168752958201959082019060010161394f565b509495945050505050565b82815260406020820152600061272a604083018461393b565b600060208083850312156139ab57600080fd5b825167ffffffffffffffff808211156139c357600080fd5b818501915085601f8301126139d757600080fd5b8151818111156139e9576139e9613925565b8060051b604051601f19603f83011681018181108582111715613a0e57613a0e613925565b604052918252848201925083810185019188831115613a2c57600080fd5b938501935b82851015613a4a57845184529385019392850192613a31565b98975050505050505050565b60008251613a68818460208701613731565b9190910192915050565b634e487b7160e01b600052603160045260246000fd5b85815284602082015260a060408201526000613aa760a083018661393b565b6001600160a01b039490941660608301525060800152939250505056fe756e617574686f72697a65642061636365737300000000000000000000000000a2646970667358221220ec5f479a0eb5308519f8caa4a9b569b9dd6afb321e14c0a704a6d683e9aef64964736f6c63430008090033","bytecodeSha1":"1156f5b267b2c97514de99496b87b3f6912756dd","compiler":{"evm_version":"london","optimizer":{"enabled":true,"runs":200},"version":"0.8.9+commit.e5eed63a"},"contractName":"BkdEthCvx","language":"Solidity","natspec":{"kind":"dev","methods":{"addRewardToken(address)":{"details":"These are tokens that are not the main assets of the strategy. For instance, temporary incentives.","notice":"Add a reward token to list of extra reward tokens.","params":{"token":"Address of token to add to reward token list."},"returns":{"_0":"True if successfully added."}},"balance()":{"details":"This includes idle underlying, idle LP and LP deposited on Convex.","notice":"Get the total underlying balance of the strategy.","returns":{"_0":"Underlying balance of strategy."}},"deposit()":{"details":"Liquidity is added to Curve Pool then Curve LP tokens are deposited \t\tinto Convex and Convex LP tokens are staked for rewards by default.","notice":"Deposit all available underlying into Convex pool.","returns":{"_0":"True if successful deposit."}},"harvest()":{"details":"Any underlying harvested is not redeposited by this method.","notice":"Harvests reward tokens and sells these for the underlying.","returns":{"_0":"Amount of underlying harvested."}},"harvestable()":{"details":"Includes rewards for CRV & CVX.","notice":"Amount of rewards that can be harvested in the underlying.","returns":{"_0":"Estimated amount of underlying available to harvest."}},"hasPendingFunds()":{"details":"Contract does not stash tokens."},"name()":{"notice":"Returns the name of the strategy.","returns":{"_0":"The name of the strategy."}},"removeRewardToken(address)":{"notice":"Remove a reward token.","params":{"token":"Address of token to remove from reward token list."},"returns":{"_0":"True if successfully removed."}},"setCommunityReserve(address)":{"details":"CRV & CVX will be taxed and allocated to the reserve,      such that Backd can participate in governance.","notice":"Set the address of the communit reserve.","params":{"_communityReserve":"Address of the community reserve."},"returns":{"_0":"True if successfully set."}},"setCrvCommunityReserveShare(uint256)":{"notice":"Set the share of CRV to send to the Community Reserve.","params":{"crvCommunityReserveShare_":"New fee charged on CRV rewards for governance."},"returns":{"_0":"True if successfully set."}},"setCvxCommunityReserveShare(uint256)":{"notice":"Set the share of CVX to send to the Community Reserve.","params":{"cvxCommunityReserveShare_":"New fee charged on CVX rewards for governance."},"returns":{"_0":"True if successfully set."}},"setImbalanceToleranceIn(uint256)":{"details":"Stored as a percent, e.g. 1% would be set as 0.01","notice":"Set imbalance tolerance for Curve Pool deposits.","params":{"_imbalanceToleranceIn":"New imbalance tolarance in."},"returns":{"_0":"True if successfully set."}},"setImbalanceToleranceOut(uint256)":{"details":"Stored as a percent, e.g. 1% would be set as 0.01","notice":"Set imbalance tolerance for Curve Pool withdrawals.","params":{"_imbalanceToleranceOut":"New imbalance tolarance out."},"returns":{"_0":"True if successfully set."}},"setSlippageTolerance(uint256)":{"details":"Stored as a multiplier, e.g. 2% would be set as 0.98.","notice":"Set slippage tolerance for reward token swaps.","params":{"_slippageTolerance":"New imbalance tolarance out."},"returns":{"_0":"True if successfully set."}},"setStrategist(address)":{"details":"Can only be set by current strategist.","notice":"Set strategist.","params":{"_strategist":"Address of new strategist."},"returns":{"_0":"True if successfully set."}},"shutdown()":{"notice":"Shuts down the strategy, disabling deposits.","returns":{"_0":"True if the strategy was succesfully shutdown"}},"swapDex(address)":{"details":"Only SushiSwap and Uniswap are supported.","notice":"Set the DEX that should be used for swapping for a specific coin.         If Uniswap is active, it will switch to SushiSwap and vice versa.","params":{"token":"Address of token for which the DEX should be updated."}},"withdraw(uint256)":{"details":"This can only be called by the vault.      If the amount is not available, it will be made liquid.","notice":"Withdraw an amount of underlying to the vault.","params":{"amount":"Amount of underlying to withdraw."},"returns":{"_0":"True if successful withdrawal."}},"withdrawAll()":{"details":"This does not liquidate reward tokens and only considers      idle underlying, idle lp tokens and staked lp tokens.","notice":"Withdraw all underlying to vault.","returns":{"_0":"Amount of underlying withdrawn"}}},"notice":"This is the BkdEthCvx strategy, which is designed to be used by a Backd ETH Vault. The strategy holds ETH as it's underlying and allocates liquidity to Convex via given Curve Pool with 2 underlying tokens. Rewards received on Convex (CVX, CRV), are sold in part for the underlying. A share of earned CVX & CRV are retained on behalf of the Backd community to participate in governance.","version":1},"opcodes":"PUSH1 0x80 PUSH1 0x40 MSTORE PUSH1 0x4 CALLDATASIZE LT PUSH2 0x212 JUMPI PUSH1 0x0 CALLDATALOAD PUSH1 0xE0 SHR DUP1 PUSH4 0x7BDCDAFF GT PUSH2 0x118 JUMPI DUP1 PUSH4 0xC7B9D530 GT PUSH2 0xA0 JUMPI DUP1 PUSH4 0xE9EB5088 GT PUSH2 0x6F JUMPI DUP1 PUSH4 0xE9EB5088 EQ PUSH2 0x663 JUMPI DUP1 PUSH4 0xECF8DB0A EQ PUSH2 0x683 JUMPI DUP1 PUSH4 0xFBFA77CF EQ PUSH2 0x6A3 JUMPI DUP1 PUSH4 0xFC0E74D1 EQ PUSH2 0x6D7 JUMPI DUP1 PUSH4 0xFF0AF85B EQ PUSH2 0x6EC JUMPI PUSH1 0x0 DUP1 REVERT JUMPDEST DUP1 PUSH4 0xC7B9D530 EQ PUSH2 0x610 JUMPI DUP1 PUSH4 0xD03153AA EQ PUSH2 0x630 JUMPI DUP1 PUSH4 0xD0E30DB0 EQ PUSH2 0x646 JUMPI DUP1 PUSH4 0xDBBD47D4 EQ PUSH2 0x64E JUMPI PUSH1 0x0 DUP1 REVERT JUMPDEST DUP1 PUSH4 0x9B61A924 GT PUSH2 0xE7 JUMPI DUP1 PUSH4 0x9B61A924 EQ PUSH2 0x570 JUMPI DUP1 PUSH4 0x9EC5A894 EQ PUSH2 0x586 JUMPI DUP1 PUSH4 0xB69EF8A8 EQ PUSH2 0x5BA JUMPI DUP1 PUSH4 0xBF86D690 EQ PUSH2 0x5CF JUMPI DUP1 PUSH4 0xC2BDDF31 EQ PUSH2 0x5F0 JUMPI PUSH1 0x0 DUP1 REVERT JUMPDEST DUP1 PUSH4 0x7BDCDAFF EQ PUSH2 0x4BD JUMPI DUP1 PUSH4 0x853828B6 EQ PUSH2 0x4F1 JUMPI DUP1 PUSH4 0x86993BEF EQ PUSH2 0x506 JUMPI DUP1 PUSH4 0x9851BF38 EQ PUSH2 0x53A JUMPI PUSH1 0x0 DUP1 REVERT JUMPDEST DUP1 PUSH4 0x3778851E GT PUSH2 0x19B JUMPI DUP1 PUSH4 0x49CABCDF GT PUSH2 0x16A JUMPI DUP1 PUSH4 0x49CABCDF EQ PUSH2 0x433 JUMPI DUP1 PUSH4 0x56BE5F71 EQ PUSH2 0x453 JUMPI DUP1 PUSH4 0x61240EEA EQ PUSH2 0x469 JUMPI DUP1 PUSH4 0x621E8FE1 EQ PUSH2 0x47D JUMPI DUP1 PUSH4 0x70AA1726 EQ PUSH2 0x49D JUMPI PUSH1 0x0 DUP1 REVERT JUMPDEST DUP1 PUSH4 0x3778851E EQ PUSH2 0x3BE JUMPI DUP1 PUSH4 0x3D509C97 EQ PUSH2 0x3DE JUMPI DUP1 PUSH4 0x4641257D EQ PUSH2 0x3FE JUMPI DUP1 PUSH4 0x469656A2 EQ PUSH2 0x413 JUMPI PUSH1 0x0 DUP1 REVERT JUMPDEST DUP1 PUSH4 0x1C03E6CC GT PUSH2 0x1E2 JUMPI DUP1 PUSH4 0x1C03E6CC EQ PUSH2 0x2F6 JUMPI DUP1 PUSH4 0x1FE4A686 EQ PUSH2 0x316 JUMPI DUP1 PUSH4 0x218751B2 EQ PUSH2 0x336 JUMPI DUP1 PUSH4 0x2E1A7D4D EQ PUSH2 0x36A JUMPI DUP1 PUSH4 0x313C06A0 EQ PUSH2 0x38A JUMPI PUSH1 0x0 DUP1 REVERT JUMPDEST DUP1 PUSH3 0x435DA5 EQ PUSH2 0x21E JUMPI DUP1 PUSH4 0x6FDDE03 EQ PUSH2 0x26A JUMPI DUP1 PUSH4 0x117DA1EE EQ PUSH2 0x2A2 JUMPI DUP1 PUSH4 0x1A55820D EQ PUSH2 0x2D2 JUMPI PUSH1 0x0 DUP1 REVERT JUMPDEST CALLDATASIZE PUSH2 0x219 JUMPI STOP JUMPDEST PUSH1 0x0 DUP1 REVERT JUMPDEST CALLVALUE DUP1 ISZERO PUSH2 0x22A JUMPI PUSH1 0x0 DUP1 REVERT JUMPDEST POP PUSH32 0x0 JUMPDEST PUSH1 0x40 MLOAD PUSH1 0x1 PUSH1 0x1 PUSH1 0xA0 SHL SUB SWAP1 SWAP2 AND DUP2 MSTORE PUSH1 0x20 ADD JUMPDEST PUSH1 0x40 MLOAD DUP1 SWAP2 SUB SWAP1 RETURN JUMPDEST CALLVALUE DUP1 ISZERO PUSH2 0x276 JUMPI PUSH1 0x0 DUP1 REVERT JUMPDEST POP PUSH1 0x40 DUP1 MLOAD DUP1 DUP3 ADD DUP3 MSTORE PUSH1 0x9 DUP2 MSTORE PUSH9 0x84D6C88AE8D086ECF PUSH1 0xBB SHL PUSH1 0x20 DUP3 ADD MSTORE SWAP1 MLOAD PUSH2 0x261 SWAP2 SWAP1 PUSH2 0x375D JUMP JUMPDEST CALLVALUE DUP1 ISZERO PUSH2 0x2AE JUMPI PUSH1 0x0 DUP1 REVERT JUMPDEST POP PUSH2 0x2C2 PUSH2 0x2BD CALLDATASIZE PUSH1 0x4 PUSH2 0x3790 JUMP JUMPDEST PUSH2 0x707 JUMP JUMPDEST PUSH1 0x40 MLOAD SWAP1 ISZERO ISZERO DUP2 MSTORE PUSH1 0x20 ADD PUSH2 0x261 JUMP JUMPDEST CALLVALUE DUP1 ISZERO PUSH2 0x2DE JUMPI PUSH1 0x0 DUP1 REVERT JUMPDEST POP PUSH2 0x2E8 PUSH1 0x2 SLOAD DUP2 JUMP JUMPDEST PUSH1 0x40 MLOAD SWAP1 DUP2 MSTORE PUSH1 0x20 ADD PUSH2 0x261 JUMP JUMPDEST CALLVALUE DUP1 ISZERO PUSH2 0x302 JUMPI PUSH1 0x0 DUP1 REVERT JUMPDEST POP PUSH2 0x2C2 PUSH2 0x311 CALLDATASIZE PUSH1 0x4 PUSH2 0x37C1 JUMP JUMPDEST PUSH2 0x8FE JUMP JUMPDEST CALLVALUE DUP1 ISZERO PUSH2 0x322 JUMPI PUSH1 0x0 DUP1 REVERT JUMPDEST POP PUSH1 0x6 SLOAD PUSH2 0x24D SWAP1 PUSH1 0x1 PUSH1 0x1 PUSH1 0xA0 SHL SUB AND DUP2 JUMP JUMPDEST CALLVALUE DUP1 ISZERO PUSH2 0x342 JUMPI PUSH1 0x0 DUP1 REVERT JUMPDEST POP PUSH2 0x24D PUSH32 0x0 DUP2 JUMP JUMPDEST CALLVALUE DUP1 ISZERO PUSH2 0x376 JUMPI PUSH1 0x0 DUP1 REVERT JUMPDEST POP PUSH2 0x2C2 PUSH2 0x385 CALLDATASIZE PUSH1 0x4 PUSH2 0x3790 JUMP JUMPDEST PUSH2 0xB8B JUMP JUMPDEST CALLVALUE DUP1 ISZERO PUSH2 0x396 JUMPI PUSH1 0x0 DUP1 REVERT JUMPDEST POP PUSH2 0x24D PUSH32 0x0 DUP2 JUMP JUMPDEST CALLVALUE DUP1 ISZERO PUSH2 0x3CA JUMPI PUSH1 0x0 DUP1 REVERT JUMPDEST POP PUSH2 0x2E8 PUSH2 0x3D9 CALLDATASIZE PUSH1 0x4 PUSH2 0x3790 JUMP JUMPDEST PUSH2 0xED7 JUMP JUMPDEST CALLVALUE DUP1 ISZERO PUSH2 0x3EA JUMPI PUSH1 0x0 DUP1 REVERT JUMPDEST POP PUSH2 0x2C2 PUSH2 0x3F9 CALLDATASIZE PUSH1 0x4 PUSH2 0x37C1 JUMP JUMPDEST PUSH2 0xFE6 JUMP JUMPDEST CALLVALUE DUP1 ISZERO PUSH2 0x40A JUMPI PUSH1 0x0 DUP1 REVERT JUMPDEST POP PUSH2 0x2E8 PUSH2 0x114D JUMP JUMPDEST CALLVALUE DUP1 ISZERO PUSH2 0x41F JUMPI PUSH1 0x0 DUP1 REVERT JUMPDEST POP PUSH2 0x2C2 PUSH2 0x42E CALLDATASIZE PUSH1 0x4 PUSH2 0x37C1 JUMP JUMPDEST PUSH2 0x1313 JUMP JUMPDEST CALLVALUE DUP1 ISZERO PUSH2 0x43F JUMPI PUSH1 0x0 DUP1 REVERT JUMPDEST POP PUSH2 0x2C2 PUSH2 0x44E CALLDATASIZE PUSH1 0x4 PUSH2 0x3790 JUMP JUMPDEST PUSH2 0x1554 JUMP JUMPDEST CALLVALUE DUP1 ISZERO PUSH2 0x45F JUMPI PUSH1 0x0 DUP1 REVERT JUMPDEST POP PUSH2 0x2E8 PUSH1 0x1 SLOAD DUP2 JUMP JUMPDEST CALLVALUE DUP1 ISZERO PUSH2 0x475 JUMPI PUSH1 0x0 DUP1 REVERT JUMPDEST POP PUSH1 0x0 PUSH2 0x2C2 JUMP JUMPDEST CALLVALUE DUP1 ISZERO PUSH2 0x489 JUMPI PUSH1 0x0 DUP1 REVERT JUMPDEST POP PUSH1 0x3 SLOAD PUSH2 0x24D SWAP1 PUSH1 0x1 PUSH1 0x1 PUSH1 0xA0 SHL SUB AND DUP2 JUMP JUMPDEST CALLVALUE DUP1 ISZERO PUSH2 0x4A9 JUMPI PUSH1 0x0 DUP1 REVERT JUMPDEST POP PUSH2 0x2C2 PUSH2 0x4B8 CALLDATASIZE PUSH1 0x4 PUSH2 0x3790 JUMP JUMPDEST PUSH2 0x167B JUMP JUMPDEST CALLVALUE DUP1 ISZERO PUSH2 0x4C9 JUMPI PUSH1 0x0 DUP1 REVERT JUMPDEST POP PUSH2 0x2E8 PUSH32 0x0 DUP2 JUMP JUMPDEST CALLVALUE DUP1 ISZERO PUSH2 0x4FD JUMPI PUSH1 0x0 DUP1 REVERT JUMPDEST POP PUSH2 0x2E8 PUSH2 0x1849 JUMP JUMPDEST CALLVALUE DUP1 ISZERO PUSH2 0x512 JUMPI PUSH1 0x0 DUP1 REVERT JUMPDEST POP PUSH2 0x2E8 PUSH32 0x0 DUP2 JUMP JUMPDEST CALLVALUE DUP1 ISZERO PUSH2 0x546 JUMPI PUSH1 0x0 DUP1 REVERT JUMPDEST POP PUSH2 0x24D PUSH2 0x555 CALLDATASIZE PUSH1 0x4 PUSH2 0x37C1 JUMP JUMPDEST PUSH1 0x7 PUSH1 0x20 MSTORE PUSH1 0x0 SWAP1 DUP2 MSTORE PUSH1 0x40 SWAP1 KECCAK256 SLOAD PUSH1 0x1 PUSH1 0x1 PUSH1 0xA0 SHL SUB AND DUP2 JUMP JUMPDEST CALLVALUE DUP1 ISZERO PUSH2 0x57C JUMPI PUSH1 0x0 DUP1 REVERT JUMPDEST POP PUSH2 0x2E8 PUSH1 0x4 SLOAD DUP2 JUMP JUMPDEST CALLVALUE DUP1 ISZERO PUSH2 0x592 JUMPI PUSH1 0x0 DUP1 REVERT JUMPDEST POP PUSH2 0x24D PUSH32 0x0 DUP2 JUMP JUMPDEST CALLVALUE DUP1 ISZERO PUSH2 0x5C6 JUMPI PUSH1 0x0 DUP1 REVERT JUMPDEST POP PUSH2 0x2E8 PUSH2 0x1B9B JUMP JUMPDEST CALLVALUE DUP1 ISZERO PUSH2 0x5DB JUMPI PUSH1 0x0 DUP1 REVERT JUMPDEST POP PUSH1 0x6 SLOAD PUSH2 0x2C2 SWAP1 PUSH1 0x1 PUSH1 0xA0 SHL SWAP1 DIV PUSH1 0xFF AND DUP2 JUMP JUMPDEST CALLVALUE DUP1 ISZERO PUSH2 0x5FC JUMPI PUSH1 0x0 DUP1 REVERT JUMPDEST POP PUSH2 0x2C2 PUSH2 0x60B CALLDATASIZE PUSH1 0x4 PUSH2 0x37C1 JUMP JUMPDEST PUSH2 0x1BC9 JUMP JUMPDEST CALLVALUE DUP1 ISZERO PUSH2 0x61C JUMPI PUSH1 0x0 DUP1 REVERT JUMPDEST POP PUSH2 0x2C2 PUSH2 0x62B CALLDATASIZE PUSH1 0x4 PUSH2 0x37C1 JUMP JUMPDEST PUSH2 0x1D09 JUMP JUMPDEST CALLVALUE DUP1 ISZERO PUSH2 0x63C JUMPI PUSH1 0x0 DUP1 REVERT JUMPDEST POP PUSH2 0x2E8 PUSH1 0x0 SLOAD DUP2 JUMP JUMPDEST PUSH2 0x2C2 PUSH2 0x1DA8 JUMP JUMPDEST CALLVALUE DUP1 ISZERO PUSH2 0x65A JUMPI PUSH1 0x0 DUP1 REVERT JUMPDEST POP PUSH2 0x2E8 PUSH2 0x203C JUMP JUMPDEST CALLVALUE DUP1 ISZERO PUSH2 0x66F JUMPI PUSH1 0x0 DUP1 REVERT JUMPDEST POP PUSH2 0x2C2 PUSH2 0x67E CALLDATASIZE PUSH1 0x4 PUSH2 0x3790 JUMP JUMPDEST PUSH2 0x2172 JUMP JUMPDEST CALLVALUE DUP1 ISZERO PUSH2 0x68F JUMPI PUSH1 0x0 DUP1 REVERT JUMPDEST POP PUSH2 0x2C2 PUSH2 0x69E CALLDATASIZE PUSH1 0x4 PUSH2 0x3790 JUMP JUMPDEST PUSH2 0x2299 JUMP JUMPDEST CALLVALUE DUP1 ISZERO PUSH2 0x6AF JUMPI PUSH1 0x0 DUP1 REVERT JUMPDEST POP PUSH2 0x24D PUSH32 0x0 DUP2 JUMP JUMPDEST CALLVALUE DUP1 ISZERO PUSH2 0x6E3 JUMPI PUSH1 0x0 DUP1 REVERT JUMPDEST POP PUSH2 0x2C2 PUSH2 0x2467 JUMP JUMPDEST CALLVALUE DUP1 ISZERO PUSH2 0x6F8 JUMPI PUSH1 0x0 DUP1 REVERT JUMPDEST POP PUSH2 0x2E8 PUSH1 0x5 SLOAD DUP2 JUMP JUMPDEST SWAP1 POP SWAP1 JUMP JUMPDEST PUSH1 0x0 PUSH32 0x0 PUSH1 0x40 MLOAD PUSH4 0x24745215 PUSH1 0xE2 SHL DUP2 MSTORE PUSH10 0x676F7665726E616E6365 PUSH1 0xB0 SHL PUSH1 0x4 DUP3 ADD MSTORE CALLER PUSH1 0x24 DUP3 ADD MSTORE PUSH1 0x1 PUSH1 0x1 PUSH1 0xA0 SHL SUB SWAP2 SWAP1 SWAP2 AND SWAP1 PUSH4 0x91D14854 SWAP1 PUSH1 0x44 ADD PUSH1 0x20 PUSH1 0x40 MLOAD DUP1 DUP4 SUB DUP2 DUP7 DUP1 EXTCODESIZE ISZERO DUP1 ISZERO PUSH2 0x77E JUMPI PUSH1 0x0 DUP1 REVERT JUMPDEST POP GAS STATICCALL ISZERO DUP1 ISZERO PUSH2 0x792 JUMPI RETURNDATASIZE PUSH1 0x0 DUP1 RETURNDATACOPY RETURNDATASIZE PUSH1 0x0 REVERT JUMPDEST POP POP POP POP PUSH1 0x40 MLOAD RETURNDATASIZE PUSH1 0x1F NOT PUSH1 0x1F DUP3 ADD AND DUP3 ADD DUP1 PUSH1 0x40 MSTORE POP DUP2 ADD SWAP1 PUSH2 0x7B6 SWAP2 SWAP1 PUSH2 0x37DE JUMP JUMPDEST PUSH1 0x40 MLOAD DUP1 PUSH1 0x40 ADD PUSH1 0x40 MSTORE DUP1 PUSH1 0x13 DUP2 MSTORE PUSH1 0x20 ADD PUSH1 0x0 DUP1 MLOAD PUSH1 0x20 PUSH2 0x3AC5 DUP4 CODECOPY DUP2 MLOAD SWAP2 MSTORE DUP2 MSTORE POP SWAP1 PUSH2 0x801 JUMPI PUSH1 0x40 MLOAD PUSH3 0x461BCD PUSH1 0xE5 SHL DUP2 MSTORE PUSH1 0x4 ADD PUSH2 0x7F8 SWAP2 SWAP1 PUSH2 0x375D JUMP JUMPDEST PUSH1 0x40 MLOAD DUP1 SWAP2 SUB SWAP1 REVERT JUMPDEST POP PUSH1 0x40 DUP1 MLOAD DUP1 DUP3 ADD SWAP1 SWAP2 MSTORE PUSH1 0x1A DUP2 MSTORE PUSH32 0x496E76616C696420736C69707061676520746F6C6572616E6365000000000000 PUSH1 0x20 DUP3 ADD MSTORE PUSH8 0xDE0B6B3A7640000 DUP4 GT ISZERO PUSH2 0x85F JUMPI PUSH1 0x40 MLOAD PUSH3 0x461BCD PUSH1 0xE5 SHL DUP2 MSTORE PUSH1 0x4 ADD PUSH2 0x7F8 SWAP2 SWAP1 PUSH2 0x375D JUMP JUMPDEST POP PUSH1 0x40 DUP1 MLOAD DUP1 DUP3 ADD SWAP1 SWAP2 MSTORE PUSH1 0x1A DUP2 MSTORE PUSH32 0x496E76616C696420736C69707061676520746F6C6572616E6365000000000000 PUSH1 0x20 DUP3 ADD MSTORE PUSH8 0xB1A2BC2EC500000 DUP4 GT PUSH2 0x8BC JUMPI PUSH1 0x40 MLOAD PUSH3 0x461BCD PUSH1 0xE5 SHL DUP2 MSTORE PUSH1 0x4 ADD PUSH2 0x7F8 SWAP2 SWAP1 PUSH2 0x375D JUMP JUMPDEST POP PUSH1 0x0 DUP3 SWAP1 SSTORE PUSH1 0x40 MLOAD DUP3 DUP2 MSTORE PUSH32 0xE4A7FD2711237E77309A9A16FF636A748DBF956FD91F6E6DA800D9302F441A79 SWAP1 PUSH1 0x20 ADD JUMPDEST PUSH1 0x40 MLOAD DUP1 SWAP2 SUB SWAP1 LOG1 POP PUSH1 0x1 SWAP2 SWAP1 POP JUMP JUMPDEST PUSH1 0x0 PUSH32 0x0 PUSH1 0x40 MLOAD PUSH4 0x24745215 PUSH1 0xE2 SHL DUP2 MSTORE PUSH10 0x676F7665726E616E6365 PUSH1 0xB0 SHL PUSH1 0x4 DUP3 ADD MSTORE CALLER PUSH1 0x24 DUP3 ADD MSTORE PUSH1 0x1 PUSH1 0x1 PUSH1 0xA0 SHL SUB SWAP2 SWAP1 SWAP2 AND SWAP1 PUSH4 0x91D14854 SWAP1 PUSH1 0x44 ADD PUSH1 0x20 PUSH1 0x40 MLOAD DUP1 DUP4 SUB DUP2 DUP7 DUP1 EXTCODESIZE ISZERO DUP1 ISZERO PUSH2 0x975 JUMPI PUSH1 0x0 DUP1 REVERT JUMPDEST POP GAS STATICCALL ISZERO DUP1 ISZERO PUSH2 0x989 JUMPI RETURNDATASIZE PUSH1 0x0 DUP1 RETURNDATACOPY RETURNDATASIZE PUSH1 0x0 REVERT JUMPDEST POP POP POP POP PUSH1 0x40 MLOAD RETURNDATASIZE PUSH1 0x1F NOT PUSH1 0x1F DUP3 ADD AND DUP3 ADD DUP1 PUSH1 0x40 MSTORE POP DUP2 ADD SWAP1 PUSH2 0x9AD SWAP2 SWAP1 PUSH2 0x37DE JUMP JUMPDEST PUSH1 0x40 MLOAD DUP1 PUSH1 0x40 ADD PUSH1 0x40 MSTORE DUP1 PUSH1 0x13 DUP2 MSTORE PUSH1 0x20 ADD PUSH1 0x0 DUP1 MLOAD PUSH1 0x20 PUSH2 0x3AC5 DUP4 CODECOPY DUP2 MLOAD SWAP2 MSTORE DUP2 MSTORE POP SWAP1 PUSH2 0x9EF JUMPI PUSH1 0x40 MLOAD PUSH3 0x461BCD PUSH1 0xE5 SHL DUP2 MSTORE PUSH1 0x4 ADD PUSH2 0x7F8 SWAP2 SWAP1 PUSH2 0x375D JUMP JUMPDEST POP PUSH1 0x1 PUSH1 0x1 PUSH1 0xA0 SHL SUB DUP3 AND PUSH20 0x4E3FBD56CD56C3E72C1403E103B45DB9DA5B9D2B EQ DUP1 ISZERO SWAP1 PUSH2 0xA3A JUMPI POP PUSH1 0x1 PUSH1 0x1 PUSH1 0xA0 SHL SUB DUP3 AND PUSH20 0xD533A949740BB3306D119CC777FA900BA034CD52 EQ ISZERO JUMPDEST DUP1 ISZERO PUSH2 0xA63 JUMPI POP PUSH1 0x1 PUSH1 0x1 PUSH1 0xA0 SHL SUB DUP3 AND PUSH20 0xC02AAA39B223FE8D0A0E5C4F27EAD9083C756CC2 EQ ISZERO JUMPDEST PUSH1 0x40 MLOAD DUP1 PUSH1 0x40 ADD PUSH1 0x40 MSTORE DUP1 PUSH1 0x14 DUP2 MSTORE PUSH1 0x20 ADD PUSH20 0x125B9D985B1A59081D1BDAD95B881D1BC8185919 PUSH1 0x62 SHL DUP2 MSTORE POP SWAP1 PUSH2 0xAAE JUMPI PUSH1 0x40 MLOAD PUSH3 0x461BCD PUSH1 0xE5 SHL DUP2 MSTORE PUSH1 0x4 ADD PUSH2 0x7F8 SWAP2 SWAP1 PUSH2 0x375D JUMP JUMPDEST POP PUSH1 0x1 PUSH1 0x1 PUSH1 0xA0 SHL SUB DUP3 AND PUSH1 0x0 SWAP1 DUP2 MSTORE PUSH1 0x9 PUSH1 0x20 MSTORE PUSH1 0x40 SWAP1 KECCAK256 SLOAD ISZERO PUSH2 0xAD5 JUMPI POP PUSH1 0x0 SWAP2 SWAP1 POP JUMP JUMPDEST PUSH2 0xAE0 PUSH1 0x8 DUP4 PUSH2 0x2734 JUMP JUMPDEST POP PUSH2 0xAFF DUP3 PUSH20 0xD9E1CE17F2641F24AE83637AB66A2CCA9C378B9F PUSH2 0x2749 JUMP JUMPDEST PUSH2 0xB28 PUSH1 0x1 PUSH1 0x1 PUSH1 0xA0 SHL SUB DUP4 AND PUSH20 0xD9E1CE17F2641F24AE83637AB66A2CCA9C378B9F PUSH1 0x0 PUSH2 0x25BF JUMP JUMPDEST PUSH2 0xB52 PUSH1 0x1 PUSH1 0x1 PUSH1 0xA0 SHL SUB DUP4 AND PUSH20 0xD9E1CE17F2641F24AE83637AB66A2CCA9C378B9F PUSH1 0x0 NOT PUSH2 0x25BF JUMP JUMPDEST PUSH1 0x40 MLOAD PUSH1 0x1 PUSH1 0x1 PUSH1 0xA0 SHL SUB DUP4 AND DUP2 MSTORE PUSH32 0x851BBB4304BF0768ED98B97E429B5BD1DCC1F194B36CD1650F40293E951AE393 SWAP1 PUSH1 0x20 ADD PUSH2 0x8EE JUMP JUMPDEST PUSH1 0x40 DUP1 MLOAD DUP1 DUP3 ADD SWAP1 SWAP2 MSTORE PUSH1 0x13 DUP2 MSTORE PUSH1 0x0 DUP1 MLOAD PUSH1 0x20 PUSH2 0x3AC5 DUP4 CODECOPY DUP2 MLOAD SWAP2 MSTORE PUSH1 0x20 DUP3 ADD MSTORE PUSH1 0x0 SWAP1 CALLER PUSH1 0x1 PUSH1 0x1 PUSH1 0xA0 SHL SUB PUSH32 0x0 AND EQ PUSH2 0xBF9 JUMPI PUSH1 0x40 MLOAD PUSH3 0x461BCD PUSH1 0xE5 SHL DUP2 MSTORE PUSH1 0x4 ADD PUSH2 0x7F8 SWAP2 SWAP1 PUSH2 0x375D JUMP JUMPDEST POP DUP2 PUSH2 0xC07 JUMPI POP PUSH1 0x0 SWAP2 SWAP1 POP JUMP JUMPDEST SELFBALANCE DUP3 DUP2 LT PUSH2 0xC9D JUMPI PUSH1 0x40 MLOAD PUSH1 0x1 PUSH1 0x1 PUSH1 0xA0 SHL SUB PUSH32 0x0 AND SWAP1 DUP5 ISZERO PUSH2 0x8FC MUL SWAP1 DUP6 SWAP1 PUSH1 0x0 DUP2 DUP2 DUP2 DUP6 DUP9 DUP9 CALL SWAP4 POP POP POP POP PUSH2 0xC61 JUMPI POP PUSH1 0x0 SWAP3 SWAP2 POP POP JUMP JUMPDEST PUSH1 0x40 MLOAD DUP4 DUP2 MSTORE PUSH32 0x5B6B431D4476A211BB7D41C20D1AAB9AE2321DEEE0D20BE3D9FC9B1093FA6E3D SWAP1 PUSH1 0x20 ADD PUSH1 0x40 MLOAD DUP1 SWAP2 SUB SWAP1 LOG1 POP PUSH1 0x1 SWAP3 SWAP2 POP POP JUMP JUMPDEST PUSH1 0x0 PUSH2 0xCA9 DUP3 DUP6 PUSH2 0x3816 JUMP JUMPDEST SWAP1 POP PUSH1 0x0 PUSH2 0xCB6 DUP3 PUSH2 0x2777 JUMP JUMPDEST SWAP1 POP PUSH1 0x0 PUSH2 0xCC2 PUSH2 0x279B JUMP JUMPDEST PUSH2 0xCCC SWAP1 DUP4 PUSH2 0x3816 JUMP JUMPDEST PUSH1 0x40 MLOAD PUSH4 0x61973901 PUSH1 0xE1 SHL DUP2 MSTORE PUSH1 0x4 DUP2 ADD DUP3 SWAP1 MSTORE PUSH1 0x0 PUSH1 0x24 DUP3 ADD MSTORE SWAP1 SWAP2 POP PUSH32 0x0 PUSH1 0x1 PUSH1 0x1 PUSH1 0xA0 SHL SUB AND SWAP1 PUSH4 0xC32E7202 SWAP1 PUSH1 0x44 ADD PUSH1 0x20 PUSH1 0x40 MLOAD DUP1 DUP4 SUB DUP2 PUSH1 0x0 DUP8 DUP1 EXTCODESIZE ISZERO DUP1 ISZERO PUSH2 0xD38 JUMPI PUSH1 0x0 DUP1 REVERT JUMPDEST POP GAS CALL ISZERO DUP1 ISZERO PUSH2 0xD4C JUMPI RETURNDATASIZE PUSH1 0x0 DUP1 RETURNDATACOPY RETURNDATASIZE PUSH1 0x0 REVERT JUMPDEST POP POP POP POP PUSH1 0x40 MLOAD RETURNDATASIZE PUSH1 0x1F NOT PUSH1 0x1F DUP3 ADD AND DUP3 ADD DUP1 PUSH1 0x40 MSTORE POP DUP2 ADD SWAP1 PUSH2 0xD70 SWAP2 SWAP1 PUSH2 0x37DE JUMP JUMPDEST PUSH2 0xD80 JUMPI POP PUSH1 0x0 SWAP6 SWAP5 POP POP POP POP POP JUMP JUMPDEST PUSH2 0xD88 PUSH2 0x3713 JUMP JUMPDEST DUP4 DUP2 PUSH32 0x0 PUSH1 0x2 DUP2 LT PUSH2 0xDBB JUMPI PUSH2 0xDBB PUSH2 0x382D JUMP JUMPDEST PUSH1 0x20 MUL ADD MSTORE PUSH1 0x40 MLOAD PUSH4 0xE3103273 PUSH1 0xE0 SHL DUP2 MSTORE PUSH1 0x1 PUSH1 0x1 PUSH1 0xA0 SHL SUB PUSH32 0x0 AND SWAP1 PUSH4 0xE3103273 SWAP1 PUSH2 0xE0E SWAP1 DUP5 SWAP1 DUP8 SWAP1 PUSH1 0x4 ADD PUSH2 0x3843 JUMP JUMPDEST PUSH1 0x0 PUSH1 0x40 MLOAD DUP1 DUP4 SUB DUP2 PUSH1 0x0 DUP8 DUP1 EXTCODESIZE ISZERO DUP1 ISZERO PUSH2 0xE28 JUMPI PUSH1 0x0 DUP1 REVERT JUMPDEST POP GAS CALL ISZERO DUP1 ISZERO PUSH2 0xE3C JUMPI RETURNDATASIZE PUSH1 0x0 DUP1 RETURNDATACOPY RETURNDATASIZE PUSH1 0x0 REVERT JUMPDEST POP POP PUSH1 0x40 MLOAD PUSH1 0x1 PUSH1 0x1 PUSH1 0xA0 SHL SUB PUSH32 0x0 AND SWAP3 POP DUP10 ISZERO PUSH2 0x8FC MUL SWAP2 POP DUP10 SWAP1 PUSH1 0x0 DUP2 DUP2 DUP2 DUP6 DUP9 DUP9 CALL SWAP4 POP POP POP POP ISZERO DUP1 ISZERO PUSH2 0xE96 JUMPI RETURNDATASIZE PUSH1 0x0 DUP1 RETURNDATACOPY RETURNDATASIZE PUSH1 0x0 REVERT JUMPDEST POP PUSH1 0x40 MLOAD DUP8 DUP2 MSTORE PUSH32 0x5B6B431D4476A211BB7D41C20D1AAB9AE2321DEEE0D20BE3D9FC9B1093FA6E3D SWAP1 PUSH1 0x20 ADD PUSH1 0x40 MLOAD DUP1 SWAP2 SUB SWAP1 LOG1 POP PUSH1 0x1 SWAP7 SWAP6 POP POP POP POP POP POP JUMP JUMPDEST PUSH1 0x0 DUP1 PUSH20 0x4E3FBD56CD56C3E72C1403E103B45DB9DA5B9D2B PUSH1 0x1 PUSH1 0x1 PUSH1 0xA0 SHL SUB AND PUSH4 0x18160DDD PUSH1 0x40 MLOAD DUP2 PUSH4 0xFFFFFFFF AND PUSH1 0xE0 SHL DUP2 MSTORE PUSH1 0x4 ADD PUSH1 0x20 PUSH1 0x40 MLOAD DUP1 DUP4 SUB DUP2 DUP7 DUP1 EXTCODESIZE ISZERO DUP1 ISZERO PUSH2 0xF27 JUMPI PUSH1 0x0 DUP1 REVERT JUMPDEST POP GAS STATICCALL ISZERO DUP1 ISZERO PUSH2 0xF3B JUMPI RETURNDATASIZE PUSH1 0x0 DUP1 RETURNDATACOPY RETURNDATASIZE PUSH1 0x0 REVERT JUMPDEST POP POP POP POP PUSH1 0x40 MLOAD RETURNDATASIZE PUSH1 0x1F NOT PUSH1 0x1F DUP3 ADD AND DUP3 ADD DUP1 PUSH1 0x40 MSTORE POP DUP2 ADD SWAP1 PUSH2 0xF5F SWAP2 SWAP1 PUSH2 0x387B JUMP JUMPDEST SWAP1 POP PUSH1 0x0 PUSH2 0xF77 PUSH10 0x152D02C7E14AF6800000 DUP4 PUSH2 0x3894 JUMP JUMPDEST SWAP1 POP PUSH2 0x3E8 DUP2 LT PUSH2 0xF8C JUMPI POP PUSH1 0x0 SWAP4 SWAP3 POP POP POP JUMP JUMPDEST PUSH1 0x0 PUSH2 0xF9A DUP3 PUSH2 0x3E8 PUSH2 0x3816 JUMP JUMPDEST SWAP1 POP PUSH1 0x0 PUSH2 0x3E8 PUSH2 0xFAB DUP4 DUP9 PUSH2 0x38B6 JUMP JUMPDEST PUSH2 0xFB5 SWAP2 SWAP1 PUSH2 0x3894 JUMP JUMPDEST SWAP1 POP PUSH1 0x0 PUSH2 0xFCE DUP6 PUSH11 0x52B7D2DCC80CD2E4000000 PUSH2 0x3816 JUMP JUMPDEST SWAP1 POP DUP1 DUP3 GT ISZERO PUSH2 0xFDC JUMPI DUP1 SWAP2 POP JUMPDEST POP SWAP6 SWAP5 POP POP POP POP POP JUMP JUMPDEST PUSH1 0x0 PUSH32 0x0 PUSH1 0x40 MLOAD PUSH4 0x24745215 PUSH1 0xE2 SHL DUP2 MSTORE PUSH10 0x676F7665726E616E6365 PUSH1 0xB0 SHL PUSH1 0x4 DUP3 ADD MSTORE CALLER PUSH1 0x24 DUP3 ADD MSTORE PUSH1 0x1 PUSH1 0x1 PUSH1 0xA0 SHL SUB SWAP2 SWAP1 SWAP2 AND SWAP1 PUSH4 0x91D14854 SWAP1 PUSH1 0x44 ADD PUSH1 0x20 PUSH1 0x40 MLOAD DUP1 DUP4 SUB DUP2 DUP7 DUP1 EXTCODESIZE ISZERO DUP1 ISZERO PUSH2 0x105D JUMPI PUSH1 0x0 DUP1 REVERT JUMPDEST POP GAS STATICCALL ISZERO DUP1 ISZERO PUSH2 0x1071 JUMPI RETURNDATASIZE PUSH1 0x0 DUP1 RETURNDATACOPY RETURNDATASIZE PUSH1 0x0 REVERT JUMPDEST POP POP POP POP PUSH1 0x40 MLOAD RETURNDATASIZE PUSH1 0x1F NOT PUSH1 0x1F DUP3 ADD AND DUP3 ADD DUP1 PUSH1 0x40 MSTORE POP DUP2 ADD SWAP1 PUSH2 0x1095 SWAP2 SWAP1 PUSH2 0x37DE JUMP JUMPDEST PUSH1 0x40 MLOAD DUP1 PUSH1 0x40 ADD PUSH1 0x40 MSTORE DUP1 PUSH1 0x13 DUP2 MSTORE PUSH1 0x20 ADD PUSH1 0x0 DUP1 MLOAD PUSH1 0x20 PUSH2 0x3AC5 DUP4 CODECOPY DUP2 MLOAD SWAP2 MSTORE DUP2 MSTORE POP SWAP1 PUSH2 0x10D7 JUMPI PUSH1 0x40 MLOAD PUSH3 0x461BCD PUSH1 0xE5 SHL DUP2 MSTORE PUSH1 0x4 ADD PUSH2 0x7F8 SWAP2 SWAP1 PUSH2 0x375D JUMP JUMPDEST POP PUSH1 0x1 PUSH1 0x1 PUSH1 0xA0 SHL SUB DUP3 AND PUSH1 0x0 SWAP1 DUP2 MSTORE PUSH1 0x9 PUSH1 0x20 MSTORE PUSH1 0x40 SWAP1 KECCAK256 SLOAD PUSH2 0x10FD JUMPI POP PUSH1 0x0 SWAP2 SWAP1 POP JUMP JUMPDEST PUSH2 0x1108 PUSH1 0x8 DUP4 PUSH2 0x2836 JUMP JUMPDEST PUSH2 0x1114 JUMPI POP PUSH1 0x0 SWAP2 SWAP1 POP JUMP JUMPDEST PUSH1 0x40 MLOAD PUSH1 0x1 PUSH1 0x1 PUSH1 0xA0 SHL SUB DUP4 AND DUP2 MSTORE PUSH32 0x36BD04094FA067BB9471A8FBDB0A6E8A43424A2566AD3A740C88973FA40A3118 SWAP1 PUSH1 0x20 ADD PUSH2 0x8EE JUMP JUMPDEST PUSH1 0x40 DUP1 MLOAD DUP1 DUP3 ADD SWAP1 SWAP2 MSTORE PUSH1 0x13 DUP2 MSTORE PUSH1 0x0 DUP1 MLOAD PUSH1 0x20 PUSH2 0x3AC5 DUP4 CODECOPY DUP2 MLOAD SWAP2 MSTORE PUSH1 0x20 DUP3 ADD MSTORE PUSH1 0x0 SWAP1 CALLER PUSH1 0x1 PUSH1 0x1 PUSH1 0xA0 SHL SUB PUSH32 0x0 AND EQ PUSH2 0x11BB JUMPI PUSH1 0x40 MLOAD PUSH3 0x461BCD PUSH1 0xE5 SHL DUP2 MSTORE PUSH1 0x4 ADD PUSH2 0x7F8 SWAP2 SWAP1 PUSH2 0x375D JUMP JUMPDEST POP PUSH1 0x0 SELFBALANCE PUSH1 0x40 MLOAD PUSH4 0x7050CCD9 PUSH1 0xE0 SHL DUP2 MSTORE ADDRESS PUSH1 0x4 DUP3 ADD MSTORE PUSH1 0x0 PUSH1 0x24 DUP3 ADD MSTORE SWAP1 SWAP2 POP PUSH32 0x0 PUSH1 0x1 PUSH1 0x1 PUSH1 0xA0 SHL SUB AND SWAP1 PUSH4 0x7050CCD9 SWAP1 PUSH1 0x44 ADD PUSH1 0x0 PUSH1 0x40 MLOAD DUP1 DUP4 SUB DUP2 PUSH1 0x0 DUP8 DUP1 EXTCODESIZE ISZERO DUP1 ISZERO PUSH2 0x122A JUMPI PUSH1 0x0 DUP1 REVERT JUMPDEST POP GAS CALL ISZERO DUP1 ISZERO PUSH2 0x123E JUMPI RETURNDATASIZE PUSH1 0x0 DUP1 RETURNDATACOPY RETURNDATASIZE PUSH1 0x0 REVERT JUMPDEST POP POP POP POP PUSH2 0x124A PUSH2 0x284B JUMP JUMPDEST PUSH2 0x1267 PUSH20 0x4E3FBD56CD56C3E72C1403E103B45DB9DA5B9D2B PUSH2 0x29E7 JUMP JUMPDEST PUSH2 0x1284 PUSH20 0xD533A949740BB3306D119CC777FA900BA034CD52 PUSH2 0x29E7 JUMP JUMPDEST PUSH1 0x0 JUMPDEST PUSH2 0x1291 PUSH1 0x8 PUSH2 0x2A71 JUMP JUMPDEST DUP2 LT ISZERO PUSH2 0x12BD JUMPI PUSH2 0x12AB PUSH2 0x12A6 PUSH1 0x8 DUP4 PUSH2 0x2A7B JUMP JUMPDEST PUSH2 0x29E7 JUMP JUMPDEST DUP1 PUSH2 0x12B5 DUP2 PUSH2 0x38D5 JUMP JUMPDEST SWAP2 POP POP PUSH2 0x1287 JUMP JUMPDEST POP PUSH2 0x12C6 PUSH2 0x2A87 JUMP JUMPDEST PUSH1 0x0 PUSH2 0x12D2 DUP3 SELFBALANCE PUSH2 0x3816 JUMP JUMPDEST SWAP1 POP PUSH32 0x80F97F878E16410266694F134DDF012F2BE424F54F8B5CAFA107ECCC51D00D58 DUP2 PUSH1 0x40 MLOAD PUSH2 0x1305 SWAP2 DUP2 MSTORE PUSH1 0x20 ADD SWAP1 JUMP JUMPDEST PUSH1 0x40 MLOAD DUP1 SWAP2 SUB SWAP1 LOG1 SWAP2 POP POP SWAP1 JUMP JUMPDEST PUSH1 0x0 PUSH32 0x0 PUSH1 0x40 MLOAD PUSH4 0x24745215 PUSH1 0xE2 SHL DUP2 MSTORE PUSH10 0x676F7665726E616E6365 PUSH1 0xB0 SHL PUSH1 0x4 DUP3 ADD MSTORE CALLER PUSH1 0x24 DUP3 ADD MSTORE PUSH1 0x1 PUSH1 0x1 PUSH1 0xA0 SHL SUB SWAP2 SWAP1 SWAP2 AND SWAP1 PUSH4 0x91D14854 SWAP1 PUSH1 0x44 ADD PUSH1 0x20 PUSH1 0x40 MLOAD DUP1 DUP4 SUB DUP2 DUP7 DUP1 EXTCODESIZE ISZERO DUP1 ISZERO PUSH2 0x138A JUMPI PUSH1 0x0 DUP1 REVERT JUMPDEST POP GAS STATICCALL ISZERO DUP1 ISZERO PUSH2 0x139E JUMPI RETURNDATASIZE PUSH1 0x0 DUP1 RETURNDATACOPY RETURNDATASIZE PUSH1 0x0 REVERT JUMPDEST POP POP POP POP PUSH1 0x40 MLOAD RETURNDATASIZE PUSH1 0x1F NOT PUSH1 0x1F DUP3 ADD AND DUP3 ADD DUP1 PUSH1 0x40 MSTORE POP DUP2 ADD SWAP1 PUSH2 0x13C2 SWAP2 SWAP1 PUSH2 0x37DE JUMP JUMPDEST PUSH1 0x40 MLOAD DUP1 PUSH1 0x40 ADD PUSH1 0x40 MSTORE DUP1 PUSH1 0x13 DUP2 MSTORE PUSH1 0x20 ADD PUSH1 0x0 DUP1 MLOAD PUSH1 0x20 PUSH2 0x3AC5 DUP4 CODECOPY DUP2 MLOAD SWAP2 MSTORE DUP2 MSTORE POP SWAP1 PUSH2 0x1404 JUMPI PUSH1 0x40 MLOAD PUSH3 0x461BCD PUSH1 0xE5 SHL DUP2 MSTORE PUSH1 0x4 ADD PUSH2 0x7F8 SWAP2 SWAP1 PUSH2 0x375D JUMP JUMPDEST POP PUSH1 0x1 PUSH1 0x1 PUSH1 0xA0 SHL SUB DUP1 DUP4 AND PUSH1 0x0 SWAP1 DUP2 MSTORE PUSH1 0x7 PUSH1 0x20 SWAP1 DUP2 MSTORE PUSH1 0x40 SWAP2 DUP3 SWAP1 KECCAK256 SLOAD DUP3 MLOAD DUP1 DUP5 ADD SWAP1 SWAP4 MSTORE PUSH1 0x1D DUP4 MSTORE PUSH32 0x6E6F2064657820686173206265656E2073657420666F7220746F6B656E000000 SWAP2 DUP4 ADD SWAP2 SWAP1 SWAP2 MSTORE SWAP1 SWAP2 AND SWAP1 DUP2 PUSH2 0x1479 JUMPI PUSH1 0x40 MLOAD PUSH3 0x461BCD PUSH1 0xE5 SHL DUP2 MSTORE PUSH1 0x4 ADD PUSH2 0x7F8 SWAP2 SWAP1 PUSH2 0x375D JUMP JUMPDEST POP PUSH1 0x0 PUSH1 0x1 PUSH1 0x1 PUSH1 0xA0 SHL SUB DUP3 AND PUSH20 0xD9E1CE17F2641F24AE83637AB66A2CCA9C378B9F EQ PUSH2 0x14BA JUMPI PUSH20 0xD9E1CE17F2641F24AE83637AB66A2CCA9C378B9F PUSH2 0x14D0 JUMP JUMPDEST PUSH20 0x7A250D5630B4CF539739DF2C5DACB4C659F2488D JUMPDEST SWAP1 POP PUSH2 0x14DC DUP5 DUP3 PUSH2 0x2749 JUMP JUMPDEST PUSH2 0x14F1 PUSH1 0x1 PUSH1 0x1 PUSH1 0xA0 SHL SUB DUP6 AND DUP3 PUSH1 0x0 PUSH2 0x25BF JUMP JUMPDEST PUSH2 0x1507 PUSH1 0x1 PUSH1 0x1 PUSH1 0xA0 SHL SUB DUP6 AND DUP3 PUSH1 0x0 NOT PUSH2 0x25BF JUMP JUMPDEST PUSH1 0x40 DUP1 MLOAD PUSH1 0x1 PUSH1 0x1 PUSH1 0xA0 SHL SUB DUP1 DUP8 AND DUP3 MSTORE DUP4 AND PUSH1 0x20 DUP3 ADD MSTORE PUSH32 0xCAC2DED52B5E76B519F6013BCD694B2426F57750994E28325AE931943A49EAD2 SWAP2 ADD PUSH1 0x40 MLOAD DUP1 SWAP2 SUB SWAP1 LOG1 POP PUSH1 0x1 SWAP4 SWAP3 POP POP POP JUMP JUMPDEST PUSH1 0x0 PUSH32 0x0 PUSH1 0x40 MLOAD PUSH4 0x24745215 PUSH1 0xE2 SHL DUP2 MSTORE PUSH10 0x676F7665726E616E6365 PUSH1 0xB0 SHL PUSH1 0x4 DUP3 ADD MSTORE CALLER PUSH1 0x24 DUP3 ADD MSTORE PUSH1 0x1 PUSH1 0x1 PUSH1 0xA0 SHL SUB SWAP2 SWAP1 SWAP2 AND SWAP1 PUSH4 0x91D14854 SWAP1 PUSH1 0x44 ADD PUSH1 0x20 PUSH1 0x40 MLOAD DUP1 DUP4 SUB DUP2 DUP7 DUP1 EXTCODESIZE ISZERO DUP1 ISZERO PUSH2 0x15CB JUMPI PUSH1 0x0 DUP1 REVERT JUMPDEST POP GAS STATICCALL ISZERO DUP1 ISZERO PUSH2 0x15DF JUMPI RETURNDATASIZE PUSH1 0x0 DUP1 RETURNDATACOPY RETURNDATASIZE PUSH1 0x0 REVERT JUMPDEST POP POP POP POP PUSH1 0x40 MLOAD RETURNDATASIZE PUSH1 0x1F NOT PUSH1 0x1F DUP3 ADD AND DUP3 ADD DUP1 PUSH1 0x40 MSTORE POP DUP2 ADD SWAP1 PUSH2 0x1603 SWAP2 SWAP1 PUSH2 0x37DE JUMP JUMPDEST PUSH1 0x40 MLOAD DUP1 PUSH1 0x40 ADD PUSH1 0x40 MSTORE DUP1 PUSH1 0x13 DUP2 MSTORE PUSH1 0x20 ADD PUSH1 0x0 DUP1 MLOAD PUSH1 0x20 PUSH2 0x3AC5 DUP4 CODECOPY DUP2 MLOAD SWAP2 MSTORE DUP2 MSTORE POP SWAP1 PUSH2 0x1645 JUMPI PUSH1 0x40 MLOAD PUSH3 0x461BCD PUSH1 0xE5 SHL DUP2 MSTORE PUSH1 0x4 ADD PUSH2 0x7F8 SWAP2 SWAP1 PUSH2 0x375D JUMP JUMPDEST POP PUSH1 0x1 DUP3 SWAP1 SSTORE PUSH1 0x40 MLOAD DUP3 DUP2 MSTORE PUSH32 0x4EDE3E4E9F7997FDA6FF4A12D6C43D5C9E1E2055065CBC15F902F504F72DC8C0 SWAP1 PUSH1 0x20 ADD PUSH2 0x8EE JUMP JUMPDEST PUSH1 0x0 PUSH32 0x0 PUSH1 0x40 MLOAD PUSH4 0x24745215 PUSH1 0xE2 SHL DUP2 MSTORE PUSH10 0x676F7665726E616E6365 PUSH1 0xB0 SHL PUSH1 0x4 DUP3 ADD MSTORE CALLER PUSH1 0x24 DUP3 ADD MSTORE PUSH1 0x1 PUSH1 0x1 PUSH1 0xA0 SHL SUB SWAP2 SWAP1 SWAP2 AND SWAP1 PUSH4 0x91D14854 SWAP1 PUSH1 0x44 ADD PUSH1 0x20 PUSH1 0x40 MLOAD DUP1 DUP4 SUB DUP2 DUP7 DUP1 EXTCODESIZE ISZERO DUP1 ISZERO PUSH2 0x16F2 JUMPI PUSH1 0x0 DUP1 REVERT JUMPDEST POP GAS STATICCALL ISZERO DUP1 ISZERO PUSH2 0x1706 JUMPI RETURNDATASIZE PUSH1 0x0 DUP1 RETURNDATACOPY RETURNDATASIZE PUSH1 0x0 REVERT JUMPDEST POP POP POP POP PUSH1 0x40 MLOAD RETURNDATASIZE PUSH1 0x1F NOT PUSH1 0x1F DUP3 ADD AND DUP3 ADD DUP1 PUSH1 0x40 MSTORE POP DUP2 ADD SWAP1 PUSH2 0x172A SWAP2 SWAP1 PUSH2 0x37DE JUMP JUMPDEST PUSH1 0x40 MLOAD DUP1 PUSH1 0x40 ADD PUSH1 0x40 MSTORE DUP1 PUSH1 0x13 DUP2 MSTORE PUSH1 0x20 ADD PUSH1 0x0 DUP1 MLOAD PUSH1 0x20 PUSH2 0x3AC5 DUP4 CODECOPY DUP2 MLOAD SWAP2 MSTORE DUP2 MSTORE POP SWAP1 PUSH2 0x176C JUMPI PUSH1 0x40 MLOAD PUSH3 0x461BCD PUSH1 0xE5 SHL DUP2 MSTORE PUSH1 0x4 ADD PUSH2 0x7F8 SWAP2 SWAP1 PUSH2 0x375D JUMP JUMPDEST POP PUSH1 0x40 DUP1 MLOAD DUP1 DUP3 ADD SWAP1 SWAP2 MSTORE PUSH1 0xE DUP2 MSTORE PUSH14 0x1A5B9D985B1A5908185B5BDD5B9D PUSH1 0x92 SHL PUSH1 0x20 DUP3 ADD MSTORE PUSH8 0xDE0B6B3A7640000 DUP4 GT ISZERO PUSH2 0x17BB JUMPI PUSH1 0x40 MLOAD PUSH3 0x461BCD PUSH1 0xE5 SHL DUP2 MSTORE PUSH1 0x4 ADD PUSH2 0x7F8 SWAP2 SWAP1 PUSH2 0x375D JUMP JUMPDEST POP PUSH1 0x3 SLOAD PUSH1 0x1 PUSH1 0x1 PUSH1 0xA0 SHL SUB AND PUSH2 0x1814 JUMPI PUSH1 0x40 MLOAD PUSH3 0x461BCD PUSH1 0xE5 SHL DUP2 MSTORE PUSH1 0x20 PUSH1 0x4 DUP3 ADD MSTORE PUSH1 0x1D PUSH1 0x24 DUP3 ADD MSTORE PUSH32 0x436F6D6D756E6974792072657365727665206D75737420626520736574000000 PUSH1 0x44 DUP3 ADD MSTORE PUSH1 0x64 ADD PUSH2 0x7F8 JUMP JUMPDEST PUSH1 0x5 DUP3 SWAP1 SSTORE PUSH1 0x40 MLOAD DUP3 DUP2 MSTORE PUSH32 0x1A8542DFFA4956932E66916113E6A123E123956172FBC0E2E59DF92B8A87D8E6 SWAP1 PUSH1 0x20 ADD PUSH2 0x8EE JUMP JUMPDEST PUSH1 0x0 CALLER PUSH1 0x1 PUSH1 0x1 PUSH1 0xA0 SHL SUB PUSH32 0x0 AND EQ DUP1 PUSH2 0x192A JUMPI POP PUSH32 0x0 PUSH1 0x40 MLOAD PUSH4 0x24745215 PUSH1 0xE2 SHL DUP2 MSTORE PUSH10 0x676F7665726E616E6365 PUSH1 0xB0 SHL PUSH1 0x4 DUP3 ADD MSTORE CALLER PUSH1 0x24 DUP3 ADD MSTORE PUSH1 0x1 PUSH1 0x1 PUSH1 0xA0 SHL SUB SWAP2 SWAP1 SWAP2 AND SWAP1 PUSH4 0x91D14854 SWAP1 PUSH1 0x44 ADD PUSH1 0x20 PUSH1 0x40 MLOAD DUP1 DUP4 SUB DUP2 DUP7 DUP1 EXTCODESIZE ISZERO DUP1 ISZERO PUSH2 0x18F2 JUMPI PUSH1 0x0 DUP1 REVERT JUMPDEST POP GAS STATICCALL ISZERO DUP1 ISZERO PUSH2 0x1906 JUMPI RETURNDATASIZE PUSH1 0x0 DUP1 RETURNDATACOPY RETURNDATASIZE PUSH1 0x0 REVERT JUMPDEST POP POP POP POP PUSH1 0x40 MLOAD RETURNDATASIZE PUSH1 0x1F NOT PUSH1 0x1F DUP3 ADD AND DUP3 ADD DUP1 PUSH1 0x40 MSTORE POP DUP2 ADD SWAP1 PUSH2 0x192A SWAP2 SWAP1 PUSH2 0x37DE JUMP JUMPDEST PUSH1 0x40 MLOAD DUP1 PUSH1 0x40 ADD PUSH1 0x40 MSTORE DUP1 PUSH1 0x13 DUP2 MSTORE PUSH1 0x20 ADD PUSH1 0x0 DUP1 MLOAD PUSH1 0x20 PUSH2 0x3AC5 DUP4 CODECOPY DUP2 MLOAD SWAP2 MSTORE DUP2 MSTORE POP SWAP1 PUSH2 0x196C JUMPI PUSH1 0x40 MLOAD PUSH3 0x461BCD PUSH1 0xE5 SHL DUP2 MSTORE PUSH1 0x4 ADD PUSH2 0x7F8 SWAP2 SWAP1 PUSH2 0x375D JUMP JUMPDEST POP PUSH1 0x0 PUSH2 0x1977 PUSH2 0x2B7E JUMP JUMPDEST SWAP1 POP DUP1 ISZERO PUSH2 0x1A2C JUMPI PUSH1 0x40 MLOAD PUSH4 0x61973901 PUSH1 0xE1 SHL DUP2 MSTORE PUSH1 0x4 DUP2 ADD DUP3 SWAP1 MSTORE PUSH1 0x0 PUSH1 0x24 DUP3 ADD MSTORE PUSH32 0x0 PUSH1 0x1 PUSH1 0x1 PUSH1 0xA0 SHL SUB AND SWAP1 PUSH4 0xC32E7202 SWAP1 PUSH1 0x44 ADD PUSH1 0x20 PUSH1 0x40 MLOAD DUP1 DUP4 SUB DUP2 PUSH1 0x0 DUP8 DUP1 EXTCODESIZE ISZERO DUP1 ISZERO PUSH2 0x19E8 JUMPI PUSH1 0x0 DUP1 REVERT JUMPDEST POP GAS CALL ISZERO DUP1 ISZERO PUSH2 0x19FC JUMPI RETURNDATASIZE PUSH1 0x0 DUP1 RETURNDATACOPY RETURNDATASIZE PUSH1 0x0 REVERT JUMPDEST POP POP POP POP PUSH1 0x40 MLOAD RETURNDATASIZE PUSH1 0x1F NOT PUSH1 0x1F DUP3 ADD AND DUP3 ADD DUP1 PUSH1 0x40 MSTORE POP DUP2 ADD SWAP1 PUSH2 0x1A20 SWAP2 SWAP1 PUSH2 0x37DE JUMP JUMPDEST PUSH2 0x1A2C JUMPI PUSH1 0x0 SWAP2 POP POP SWAP1 JUMP JUMPDEST PUSH1 0x0 PUSH2 0x1A36 PUSH2 0x279B JUMP JUMPDEST SWAP1 POP DUP1 ISZERO PUSH2 0x1AFA JUMPI PUSH32 0x0 PUSH1 0x1 PUSH1 0x1 PUSH1 0xA0 SHL SUB AND PUSH4 0x1A4D01D2 DUP3 PUSH32 0x0 PUSH2 0x1A98 DUP6 PUSH2 0x2BCD JUMP JUMPDEST PUSH1 0x40 MLOAD PUSH1 0x1 PUSH1 0x1 PUSH1 0xE0 SHL SUB NOT PUSH1 0xE0 DUP7 SWAP1 SHL AND DUP2 MSTORE PUSH1 0x4 DUP2 ADD SWAP4 SWAP1 SWAP4 MSTORE PUSH1 0xF SWAP2 SWAP1 SWAP2 SIGNEXTEND PUSH1 0x24 DUP4 ADD MSTORE PUSH1 0x44 DUP3 ADD MSTORE PUSH1 0x64 ADD PUSH1 0x0 PUSH1 0x40 MLOAD DUP1 DUP4 SUB DUP2 PUSH1 0x0 DUP8 DUP1 EXTCODESIZE ISZERO DUP1 ISZERO PUSH2 0x1AE1 JUMPI PUSH1 0x0 DUP1 REVERT JUMPDEST POP GAS CALL ISZERO DUP1 ISZERO PUSH2 0x1AF5 JUMPI RETURNDATASIZE PUSH1 0x0 DUP1 RETURNDATACOPY RETURNDATASIZE PUSH1 0x0 REVERT JUMPDEST POP POP POP POP JUMPDEST SELFBALANCE DUP1 PUSH2 0x1B0A JUMPI PUSH1 0x0 SWAP4 POP POP POP POP SWAP1 JUMP JUMPDEST PUSH1 0x40 MLOAD PUSH1 0x1 PUSH1 0x1 PUSH1 0xA0 SHL SUB PUSH32 0x0 AND SWAP1 DUP3 ISZERO PUSH2 0x8FC MUL SWAP1 DUP4 SWAP1 PUSH1 0x0 DUP2 DUP2 DUP2 DUP6 DUP9 DUP9 CALL SWAP4 POP POP POP POP ISZERO DUP1 ISZERO PUSH2 0x1B60 JUMPI RETURNDATASIZE PUSH1 0x0 DUP1 RETURNDATACOPY RETURNDATASIZE PUSH1 0x0 REVERT JUMPDEST POP PUSH1 0x40 MLOAD DUP2 DUP2 MSTORE PUSH32 0x3D5A341DC6A12221FCF31279CEF3771F8FAD757B2D9261F97605CCC17C257424 SWAP1 PUSH1 0x20 ADD PUSH1 0x40 MLOAD DUP1 SWAP2 SUB SWAP1 LOG1 SWAP4 SWAP3 POP POP POP JUMP JUMPDEST PUSH1 0x0 PUSH2 0x1BBF PUSH2 0x1BA8 PUSH2 0x279B JUMP JUMPDEST PUSH2 0x1BB0 PUSH2 0x2B7E JUMP JUMPDEST PUSH2 0x1BBA SWAP2 SWAP1 PUSH2 0x38F0 JUMP JUMPDEST PUSH2 0x2BED JUMP JUMPDEST PUSH2 0x702 SWAP1 SELFBALANCE PUSH2 0x38F0 JUMP JUMPDEST PUSH1 0x0 PUSH32 0x0 PUSH1 0x40 MLOAD PUSH4 0x24745215 PUSH1 0xE2 SHL DUP2 MSTORE PUSH10 0x676F7665726E616E6365 PUSH1 0xB0 SHL PUSH1 0x4 DUP3 ADD MSTORE CALLER PUSH1 0x24 DUP3 ADD MSTORE PUSH1 0x1 PUSH1 0x1 PUSH1 0xA0 SHL SUB SWAP2 SWAP1 SWAP2 AND SWAP1 PUSH4 0x91D14854 SWAP1 PUSH1 0x44 ADD PUSH1 0x20 PUSH1 0x40 MLOAD DUP1 DUP4 SUB DUP2 DUP7 DUP1 EXTCODESIZE ISZERO DUP1 ISZERO PUSH2 0x1C40 JUMPI PUSH1 0x0 DUP1 REVERT JUMPDEST POP GAS STATICCALL ISZERO DUP1 ISZERO PUSH2 0x1C54 JUMPI RETURNDATASIZE PUSH1 0x0 DUP1 RETURNDATACOPY RETURNDATASIZE PUSH1 0x0 REVERT JUMPDEST POP POP POP POP PUSH1 0x40 MLOAD RETURNDATASIZE PUSH1 0x1F NOT PUSH1 0x1F DUP3 ADD AND DUP3 ADD DUP1 PUSH1 0x40 MSTORE POP DUP2 ADD SWAP1 PUSH2 0x1C78 SWAP2 SWAP1 PUSH2 0x37DE JUMP JUMPDEST PUSH1 0x40 MLOAD DUP1 PUSH1 0x40 ADD PUSH1 0x40 MSTORE DUP1 PUSH1 0x13 DUP2 MSTORE PUSH1 0x20 ADD PUSH1 0x0 DUP1 MLOAD PUSH1 0x20 PUSH2 0x3AC5 DUP4 CODECOPY DUP2 MLOAD SWAP2 MSTORE DUP2 MSTORE POP SWAP1 PUSH2 0x1CBA JUMPI PUSH1 0x40 MLOAD PUSH3 0x461BCD PUSH1 0xE5 SHL DUP2 MSTORE PUSH1 0x4 ADD PUSH2 0x7F8 SWAP2 SWAP1 PUSH2 0x375D JUMP JUMPDEST POP PUSH1 0x3 DUP1 SLOAD PUSH1 0x1 PUSH1 0x1 PUSH1 0xA0 SHL SUB NOT AND PUSH1 0x1 PUSH1 0x1 PUSH1 0xA0 SHL SUB DUP5 AND SWAP1 DUP2 OR SWAP1 SWAP2 SSTORE PUSH1 0x40 MLOAD SWAP1 DUP2 MSTORE PUSH32 0x17D7BA6682F162782054B119192F8E5B98FE7090B4BEC7A55FC7075D9CD859EE SWAP1 PUSH1 0x20 ADD PUSH2 0x8EE JUMP JUMPDEST PUSH1 0x6 SLOAD PUSH1 0x40 DUP1 MLOAD DUP1 DUP3 ADD SWAP1 SWAP2 MSTORE PUSH1 0x13 DUP2 MSTORE PUSH1 0x0 DUP1 MLOAD PUSH1 0x20 PUSH2 0x3AC5 DUP4 CODECOPY DUP2 MLOAD SWAP2 MSTORE PUSH1 0x20 DUP3 ADD MSTORE PUSH1 0x0 SWAP2 PUSH1 0x1 PUSH1 0x1 PUSH1 0xA0 SHL SUB AND CALLER EQ PUSH2 0x1D59 JUMPI PUSH1 0x40 MLOAD PUSH3 0x461BCD PUSH1 0xE5 SHL DUP2 MSTORE PUSH1 0x4 ADD PUSH2 0x7F8 SWAP2 SWAP1 PUSH2 0x375D JUMP JUMPDEST POP PUSH1 0x6 DUP1 SLOAD PUSH1 0x1 PUSH1 0x1 PUSH1 0xA0 SHL SUB NOT AND PUSH1 0x1 PUSH1 0x1 PUSH1 0xA0 SHL SUB DUP5 AND SWAP1 DUP2 OR SWAP1 SWAP2 SSTORE PUSH1 0x40 MLOAD SWAP1 DUP2 MSTORE PUSH32 0x46D58E3FA07BF19B1D27240F0E286B27E9F7C1B0D88933333FE833B60EEC5412 SWAP1 PUSH1 0x20 ADD PUSH2 0x8EE JUMP JUMPDEST PUSH1 0x40 DUP1 MLOAD DUP1 DUP3 ADD SWAP1 SWAP2 MSTORE PUSH1 0x13 DUP2 MSTORE PUSH1 0x0 DUP1 MLOAD PUSH1 0x20 PUSH2 0x3AC5 DUP4 CODECOPY DUP2 MLOAD SWAP2 MSTORE PUSH1 0x20 DUP3 ADD MSTORE PUSH1 0x0 SWAP1 CALLER PUSH1 0x1 PUSH1 0x1 PUSH1 0xA0 SHL SUB PUSH32 0x0 AND EQ PUSH2 0x1E16 JUMPI PUSH1 0x40 MLOAD PUSH3 0x461BCD PUSH1 0xE5 SHL DUP2 MSTORE PUSH1 0x4 ADD PUSH2 0x7F8 SWAP2 SWAP1 PUSH2 0x375D JUMP JUMPDEST POP PUSH1 0x6 SLOAD PUSH1 0x40 DUP1 MLOAD DUP1 DUP3 ADD SWAP1 SWAP2 MSTORE PUSH1 0x15 DUP2 MSTORE PUSH21 0x29BA3930BA32B3BC9034B99039B43ABA103237BBB7 PUSH1 0x59 SHL PUSH1 0x20 DUP3 ADD MSTORE SWAP1 PUSH1 0x1 PUSH1 0xA0 SHL SWAP1 DIV PUSH1 0xFF AND ISZERO PUSH2 0x1E6F JUMPI PUSH1 0x40 MLOAD PUSH3 0x461BCD PUSH1 0xE5 SHL DUP2 MSTORE PUSH1 0x4 ADD PUSH2 0x7F8 SWAP2 SWAP1 PUSH2 0x375D JUMP JUMPDEST POP SELFBALANCE DUP1 PUSH2 0x1E7E JUMPI PUSH1 0x0 SWAP2 POP POP SWAP1 JUMP JUMPDEST PUSH2 0x1E86 PUSH2 0x3713 JUMP JUMPDEST DUP2 DUP2 PUSH32 0x0 PUSH1 0x2 DUP2 LT PUSH2 0x1EB9 JUMPI PUSH2 0x1EB9 PUSH2 0x382D JUMP JUMPDEST PUSH1 0x20 MUL ADD MSTORE PUSH1 0x1 PUSH1 0x1 PUSH1 0xA0 SHL SUB PUSH32 0x0 AND PUSH4 0xB4C7E4D DUP4 DUP4 PUSH2 0x1EF8 DUP3 PUSH2 0x2C8A JUMP JUMPDEST PUSH1 0x40 MLOAD DUP5 PUSH4 0xFFFFFFFF AND PUSH1 0xE0 SHL DUP2 MSTORE PUSH1 0x4 ADD PUSH2 0x1F15 SWAP3 SWAP2 SWAP1 PUSH2 0x3843 JUMP JUMPDEST PUSH1 0x0 PUSH1 0x40 MLOAD DUP1 DUP4 SUB DUP2 DUP6 DUP9 DUP1 EXTCODESIZE ISZERO DUP1 ISZERO PUSH2 0x1F2E JUMPI PUSH1 0x0 DUP1 REVERT JUMPDEST POP GAS CALL ISZERO DUP1 ISZERO PUSH2 0x1F42 JUMPI RETURNDATASIZE PUSH1 0x0 DUP1 RETURNDATACOPY RETURNDATASIZE PUSH1 0x0 REVERT JUMPDEST POP POP PUSH1 0x40 MLOAD PUSH4 0x303ACFE7 PUSH1 0xE1 SHL DUP2 MSTORE PUSH32 0x0 PUSH1 0x4 DUP3 ADD MSTORE PUSH1 0x1 PUSH1 0x24 DUP3 ADD MSTORE PUSH20 0xF403C135812408BFBE8713B5A23A04B3D48AAE31 SWAP4 POP PUSH4 0x60759FCE SWAP3 POP PUSH1 0x44 ADD SWAP1 POP PUSH1 0x20 PUSH1 0x40 MLOAD DUP1 DUP4 SUB DUP2 PUSH1 0x0 DUP8 DUP1 EXTCODESIZE ISZERO DUP1 ISZERO PUSH2 0x1FBB JUMPI PUSH1 0x0 DUP1 REVERT JUMPDEST POP GAS CALL ISZERO DUP1 ISZERO PUSH2 0x1FCF JUMPI RETURNDATASIZE PUSH1 0x0 DUP1 RETURNDATACOPY RETURNDATASIZE PUSH1 0x0 REVERT JUMPDEST POP POP POP POP PUSH1 0x40 MLOAD RETURNDATASIZE PUSH1 0x1F NOT PUSH1 0x1F DUP3 ADD AND DUP3 ADD DUP1 PUSH1 0x40 MSTORE POP DUP2 ADD SWAP1 PUSH2 0x1FF3 SWAP2 SWAP1 PUSH2 0x37DE JUMP JUMPDEST PUSH2 0x2000 JUMPI PUSH1 0x0 SWAP3 POP POP POP SWAP1 JUMP JUMPDEST PUSH1 0x40 MLOAD DUP3 DUP2 MSTORE PUSH32 0x4D6CE1E535DBADE1C23DEFBA91E23B8F791CE5EDC0CC320257A2B364E4E38426 SWAP1 PUSH1 0x20 ADD PUSH1 0x40 MLOAD DUP1 SWAP2 SUB SWAP1 LOG1 PUSH1 0x1 SWAP3 POP POP POP SWAP1 JUMP JUMPDEST PUSH1 0x40 MLOAD PUSH3 0x466131 PUSH1 0xE1 SHL DUP2 MSTORE ADDRESS PUSH1 0x4 DUP3 ADD MSTORE PUSH1 0x0 SWAP1 DUP2 SWAP1 PUSH1 0x1 PUSH1 0x1 PUSH1 0xA0 SHL SUB PUSH32 0x0 AND SWAP1 PUSH3 0x8CC262 SWAP1 PUSH1 0x24 ADD PUSH1 0x20 PUSH1 0x40 MLOAD DUP1 DUP4 SUB DUP2 DUP7 DUP1 EXTCODESIZE ISZERO DUP1 ISZERO PUSH2 0x209E JUMPI PUSH1 0x0 DUP1 REVERT JUMPDEST POP GAS STATICCALL ISZERO DUP1 ISZERO PUSH2 0x20B2 JUMPI RETURNDATASIZE PUSH1 0x0 DUP1 RETURNDATACOPY RETURNDATASIZE PUSH1 0x0 REVERT JUMPDEST POP POP POP POP PUSH1 0x40 MLOAD RETURNDATASIZE PUSH1 0x1F NOT PUSH1 0x1F DUP3 ADD AND DUP3 ADD DUP1 PUSH1 0x40 MSTORE POP DUP2 ADD SWAP1 PUSH2 0x20D6 SWAP2 SWAP1 PUSH2 0x387B JUMP JUMPDEST SWAP1 POP DUP1 PUSH2 0x20E5 JUMPI PUSH1 0x0 SWAP2 POP POP SWAP1 JUMP JUMPDEST PUSH2 0x212A PUSH20 0x4E3FBD56CD56C3E72C1403E103B45DB9DA5B9D2B PUSH2 0x2125 PUSH1 0x4 SLOAD PUSH8 0xDE0B6B3A7640000 PUSH2 0x2116 SWAP2 SWAP1 PUSH2 0x3816 JUMP JUMPDEST PUSH2 0x211F DUP6 PUSH2 0xED7 JUMP JUMPDEST SWAP1 PUSH2 0x2CA5 JUMP JUMPDEST PUSH2 0x2CC4 JUMP JUMPDEST PUSH2 0x2162 PUSH20 0xD533A949740BB3306D119CC777FA900BA034CD52 PUSH2 0x2125 PUSH1 0x5 SLOAD PUSH8 0xDE0B6B3A7640000 PUSH2 0x215B SWAP2 SWAP1 PUSH2 0x3816 JUMP JUMPDEST DUP6 SWAP1 PUSH2 0x2CA5 JUMP JUMPDEST PUSH2 0x216C SWAP2 SWAP1 PUSH2 0x38F0 JUMP JUMPDEST SWAP2 POP POP SWAP1 JUMP JUMPDEST PUSH1 0x0 PUSH32 0x0 PUSH1 0x40 MLOAD PUSH4 0x24745215 PUSH1 0xE2 SHL DUP2 MSTORE PUSH10 0x676F7665726E616E6365 PUSH1 0xB0 SHL PUSH1 0x4 DUP3 ADD MSTORE CALLER PUSH1 0x24 DUP3 ADD MSTORE PUSH1 0x1 PUSH1 0x1 PUSH1 0xA0 SHL SUB SWAP2 SWAP1 SWAP2 AND SWAP1 PUSH4 0x91D14854 SWAP1 PUSH1 0x44 ADD PUSH1 0x20 PUSH1 0x40 MLOAD DUP1 DUP4 SUB DUP2 DUP7 DUP1 EXTCODESIZE ISZERO DUP1 ISZERO PUSH2 0x21E9 JUMPI PUSH1 0x0 DUP1 REVERT JUMPDEST POP GAS STATICCALL ISZERO DUP1 ISZERO PUSH2 0x21FD JUMPI RETURNDATASIZE PUSH1 0x0 DUP1 RETURNDATACOPY RETURNDATASIZE PUSH1 0x0 REVERT JUMPDEST POP POP POP POP PUSH1 0x40 MLOAD RETURNDATASIZE PUSH1 0x1F NOT PUSH1 0x1F DUP3 ADD AND DUP3 ADD DUP1 PUSH1 0x40 MSTORE POP DUP2 ADD SWAP1 PUSH2 0x2221 SWAP2 SWAP1 PUSH2 0x37DE JUMP JUMPDEST PUSH1 0x40 MLOAD DUP1 PUSH1 0x40 ADD PUSH1 0x40 MSTORE DUP1 PUSH1 0x13 DUP2 MSTORE PUSH1 0x20 ADD PUSH1 0x0 DUP1 MLOAD PUSH1 0x20 PUSH2 0x3AC5 DUP4 CODECOPY DUP2 MLOAD SWAP2 MSTORE DUP2 MSTORE POP SWAP1 PUSH2 0x2263 JUMPI PUSH1 0x40 MLOAD PUSH3 0x461BCD PUSH1 0xE5 SHL DUP2 MSTORE PUSH1 0x4 ADD PUSH2 0x7F8 SWAP2 SWAP1 PUSH2 0x375D JUMP JUMPDEST POP PUSH1 0x2 DUP3 SWAP1 SSTORE PUSH1 0x40 MLOAD DUP3 DUP2 MSTORE PUSH32 0xB2861FED34A4613F8F25F46553A23408A3364EE9DDC4EF6714F0A81D856E41A7 SWAP1 PUSH1 0x20 ADD PUSH2 0x8EE JUMP JUMPDEST PUSH1 0x0 PUSH32 0x0 PUSH1 0x40 MLOAD PUSH4 0x24745215 PUSH1 0xE2 SHL DUP2 MSTORE PUSH10 0x676F7665726E616E6365 PUSH1 0xB0 SHL PUSH1 0x4 DUP3 ADD MSTORE CALLER PUSH1 0x24 DUP3 ADD MSTORE PUSH1 0x1 PUSH1 0x1 PUSH1 0xA0 SHL SUB SWAP2 SWAP1 SWAP2 AND SWAP1 PUSH4 0x91D14854 SWAP1 PUSH1 0x44 ADD PUSH1 0x20 PUSH1 0x40 MLOAD DUP1 DUP4 SUB DUP2 DUP7 DUP1 EXTCODESIZE ISZERO DUP1 ISZERO PUSH2 0x2310 JUMPI PUSH1 0x0 DUP1 REVERT JUMPDEST POP GAS STATICCALL ISZERO DUP1 ISZERO PUSH2 0x2324 JUMPI RETURNDATASIZE PUSH1 0x0 DUP1 RETURNDATACOPY RETURNDATASIZE PUSH1 0x0 REVERT JUMPDEST POP POP POP POP PUSH1 0x40 MLOAD RETURNDATASIZE PUSH1 0x1F NOT PUSH1 0x1F DUP3 ADD AND DUP3 ADD DUP1 PUSH1 0x40 MSTORE POP DUP2 ADD SWAP1 PUSH2 0x2348 SWAP2 SWAP1 PUSH2 0x37DE JUMP JUMPDEST PUSH1 0x40 MLOAD DUP1 PUSH1 0x40 ADD PUSH1 0x40 MSTORE DUP1 PUSH1 0x13 DUP2 MSTORE PUSH1 0x20 ADD PUSH1 0x0 DUP1 MLOAD PUSH1 0x20 PUSH2 0x3AC5 DUP4 CODECOPY DUP2 MLOAD SWAP2 MSTORE DUP2 MSTORE POP SWAP1 PUSH2 0x238A JUMPI PUSH1 0x40 MLOAD PUSH3 0x461BCD PUSH1 0xE5 SHL DUP2 MSTORE PUSH1 0x4 ADD PUSH2 0x7F8 SWAP2 SWAP1 PUSH2 0x375D JUMP JUMPDEST POP PUSH1 0x40 DUP1 MLOAD DUP1 DUP3 ADD SWAP1 SWAP2 MSTORE PUSH1 0xE DUP2 MSTORE PUSH14 0x1A5B9D985B1A5908185B5BDD5B9D PUSH1 0x92 SHL PUSH1 0x20 DUP3 ADD MSTORE PUSH8 0xDE0B6B3A7640000 DUP4 GT ISZERO PUSH2 0x23D9 JUMPI PUSH1 0x40 MLOAD PUSH3 0x461BCD PUSH1 0xE5 SHL DUP2 MSTORE PUSH1 0x4 ADD PUSH2 0x7F8 SWAP2 SWAP1 PUSH2 0x375D JUMP JUMPDEST POP PUSH1 0x3 SLOAD PUSH1 0x1 PUSH1 0x1 PUSH1 0xA0 SHL SUB AND PUSH2 0x2432 JUMPI PUSH1 0x40 MLOAD PUSH3 0x461BCD PUSH1 0xE5 SHL DUP2 MSTORE PUSH1 0x20 PUSH1 0x4 DUP3 ADD MSTORE PUSH1 0x1D PUSH1 0x24 DUP3 ADD MSTORE PUSH32 0x436F6D6D756E6974792072657365727665206D75737420626520736574000000 PUSH1 0x44 DUP3 ADD MSTORE PUSH1 0x64 ADD PUSH2 0x7F8 JUMP JUMPDEST PUSH1 0x4 DUP3 SWAP1 SSTORE PUSH1 0x40 MLOAD DUP3 DUP2 MSTORE PUSH32 0x2C3C7D70A1DFBFAF74447753B8A73E1323AA10B32B9209742DB563671E14B13C SWAP1 PUSH1 0x20 ADD PUSH2 0x8EE JUMP JUMPDEST PUSH1 0x40 DUP1 MLOAD DUP1 DUP3 ADD SWAP1 SWAP2 MSTORE PUSH1 0x13 DUP2 MSTORE PUSH1 0x0 DUP1 MLOAD PUSH1 0x20 PUSH2 0x3AC5 DUP4 CODECOPY DUP2 MLOAD SWAP2 MSTORE PUSH1 0x20 DUP3 ADD MSTORE PUSH1 0x0 SWAP1 CALLER PUSH1 0x1 PUSH1 0x1 PUSH1 0xA0 SHL SUB PUSH32 0x0 AND EQ PUSH2 0x24D5 JUMPI PUSH1 0x40 MLOAD PUSH3 0x461BCD PUSH1 0xE5 SHL DUP2 MSTORE PUSH1 0x4 ADD PUSH2 0x7F8 SWAP2 SWAP1 PUSH2 0x375D JUMP JUMPDEST POP PUSH1 0x6 SLOAD PUSH1 0x1 PUSH1 0xA0 SHL SWAP1 DIV PUSH1 0xFF AND ISZERO PUSH2 0x24EE JUMPI POP PUSH1 0x0 SWAP1 JUMP JUMPDEST PUSH1 0x6 DUP1 SLOAD PUSH1 0xFF PUSH1 0xA0 SHL NOT AND PUSH1 0x1 PUSH1 0xA0 SHL OR SWAP1 SSTORE PUSH1 0x40 MLOAD PUSH32 0x4426AA1FB73E391071491FCFE21A88B5C38A0A0333A1F6E77161470439704CF8 SWAP1 PUSH1 0x0 SWAP1 LOG1 POP PUSH1 0x1 SWAP1 JUMP JUMPDEST PUSH1 0x40 MLOAD PUSH4 0x21F8A721 PUSH1 0xE0 SHL DUP2 MSTORE PUSH11 0x3937B632A6B0B730B3B2B9 PUSH1 0xA9 SHL PUSH1 0x4 DUP3 ADD MSTORE PUSH1 0x0 SWAP1 PUSH1 0x1 PUSH1 0x1 PUSH1 0xA0 SHL SUB DUP4 AND SWAP1 PUSH4 0x21F8A721 SWAP1 PUSH1 0x24 ADD JUMPDEST PUSH1 0x20 PUSH1 0x40 MLOAD DUP1 DUP4 SUB DUP2 DUP7 DUP1 EXTCODESIZE ISZERO DUP1 ISZERO PUSH2 0x2581 JUMPI PUSH1 0x0 DUP1 REVERT JUMPDEST POP GAS STATICCALL ISZERO DUP1 ISZERO PUSH2 0x2595 JUMPI RETURNDATASIZE PUSH1 0x0 DUP1 RETURNDATACOPY RETURNDATASIZE PUSH1 0x0 REVERT JUMPDEST POP POP POP POP PUSH1 0x40 MLOAD RETURNDATASIZE PUSH1 0x1F NOT PUSH1 0x1F DUP3 ADD AND DUP3 ADD DUP1 PUSH1 0x40 MSTORE POP DUP2 ADD SWAP1 PUSH2 0x25B9 SWAP2 SWAP1 PUSH2 0x3908 JUMP JUMPDEST SWAP3 SWAP2 POP POP JUMP JUMPDEST DUP1 ISZERO DUP1 PUSH2 0x2648 JUMPI POP PUSH1 0x40 MLOAD PUSH4 0x6EB1769F PUSH1 0xE1 SHL DUP2 MSTORE ADDRESS PUSH1 0x4 DUP3 ADD MSTORE PUSH1 0x1 PUSH1 0x1 PUSH1 0xA0 SHL SUB DUP4 DUP2 AND PUSH1 0x24 DUP4 ADD MSTORE DUP5 AND SWAP1 PUSH4 0xDD62ED3E SWAP1 PUSH1 0x44 ADD PUSH1 0x20 PUSH1 0x40 MLOAD DUP1 DUP4 SUB DUP2 DUP7 DUP1 EXTCODESIZE ISZERO DUP1 ISZERO PUSH2 0x260E JUMPI PUSH1 0x0 DUP1 REVERT JUMPDEST POP GAS STATICCALL ISZERO DUP1 ISZERO PUSH2 0x2622 JUMPI RETURNDATASIZE PUSH1 0x0 DUP1 RETURNDATACOPY RETURNDATASIZE PUSH1 0x0 REVERT JUMPDEST POP POP POP POP PUSH1 0x40 MLOAD RETURNDATASIZE PUSH1 0x1F NOT PUSH1 0x1F DUP3 ADD AND DUP3 ADD DUP1 PUSH1 0x40 MSTORE POP DUP2 ADD SWAP1 PUSH2 0x2646 SWAP2 SWAP1 PUSH2 0x387B JUMP JUMPDEST ISZERO JUMPDEST PUSH2 0x26B3 JUMPI PUSH1 0x40 MLOAD PUSH3 0x461BCD PUSH1 0xE5 SHL DUP2 MSTORE PUSH1 0x20 PUSH1 0x4 DUP3 ADD MSTORE PUSH1 0x36 PUSH1 0x24 DUP3 ADD MSTORE PUSH32 0x5361666545524332303A20617070726F76652066726F6D206E6F6E2D7A65726F PUSH1 0x44 DUP3 ADD MSTORE PUSH22 0x20746F206E6F6E2D7A65726F20616C6C6F77616E6365 PUSH1 0x50 SHL PUSH1 0x64 DUP3 ADD MSTORE PUSH1 0x84 ADD PUSH2 0x7F8 JUMP JUMPDEST PUSH1 0x40 MLOAD PUSH1 0x1 PUSH1 0x1 PUSH1 0xA0 SHL SUB DUP4 AND PUSH1 0x24 DUP3 ADD MSTORE PUSH1 0x44 DUP2 ADD DUP3 SWAP1 MSTORE PUSH2 0x2716 SWAP1 DUP5 SWAP1 PUSH4 0x95EA7B3 PUSH1 0xE0 SHL SWAP1 PUSH1 0x64 ADD JUMPDEST PUSH1 0x40 DUP1 MLOAD PUSH1 0x1F NOT DUP2 DUP5 SUB ADD DUP2 MSTORE SWAP2 SWAP1 MSTORE PUSH1 0x20 DUP2 ADD DUP1 MLOAD PUSH1 0x1 PUSH1 0x1 PUSH1 0xE0 SHL SUB AND PUSH1 0x1 PUSH1 0x1 PUSH1 0xE0 SHL SUB NOT SWAP1 SWAP4 AND SWAP3 SWAP1 SWAP3 OR SWAP1 SWAP2 MSTORE PUSH2 0x2ED7 JUMP JUMPDEST POP POP POP JUMP JUMPDEST PUSH1 0x60 PUSH2 0x272A DUP5 DUP5 PUSH1 0x0 DUP6 PUSH2 0x2FA9 JUMP JUMPDEST SWAP1 POP JUMPDEST SWAP4 SWAP3 POP POP POP JUMP JUMPDEST PUSH1 0x0 PUSH2 0x272D DUP4 PUSH1 0x1 PUSH1 0x1 PUSH1 0xA0 SHL SUB DUP5 AND PUSH2 0x30DA JUMP JUMPDEST PUSH1 0x1 PUSH1 0x1 PUSH1 0xA0 SHL SUB SWAP2 DUP3 AND PUSH1 0x0 SWAP1 DUP2 MSTORE PUSH1 0x7 PUSH1 0x20 MSTORE PUSH1 0x40 SWAP1 KECCAK256 DUP1 SLOAD PUSH1 0x1 PUSH1 0x1 PUSH1 0xA0 SHL SUB NOT AND SWAP2 SWAP1 SWAP3 AND OR SWAP1 SSTORE JUMP JUMPDEST PUSH1 0x0 PUSH2 0x25B9 PUSH1 0x2 SLOAD PUSH8 0xDE0B6B3A7640000 PUSH2 0x2792 SWAP2 SWAP1 PUSH2 0x38F0 JUMP JUMPDEST PUSH2 0x211F DUP5 PUSH2 0x3129 JUMP JUMPDEST PUSH1 0x40 MLOAD PUSH4 0x70A08231 PUSH1 0xE0 SHL DUP2 MSTORE ADDRESS PUSH1 0x4 DUP3 ADD MSTORE PUSH1 0x0 SWAP1 PUSH32 0x0 PUSH1 0x1 PUSH1 0x1 PUSH1 0xA0 SHL SUB AND SWAP1 PUSH4 0x70A08231 SWAP1 PUSH1 0x24 ADD JUMPDEST PUSH1 0x20 PUSH1 0x40 MLOAD DUP1 DUP4 SUB DUP2 DUP7 DUP1 EXTCODESIZE ISZERO DUP1 ISZERO PUSH2 0x27FE JUMPI PUSH1 0x0 DUP1 REVERT JUMPDEST POP GAS STATICCALL ISZERO DUP1 ISZERO PUSH2 0x2812 JUMPI RETURNDATASIZE PUSH1 0x0 DUP1 RETURNDATACOPY RETURNDATASIZE PUSH1 0x0 REVERT JUMPDEST POP POP POP POP PUSH1 0x40 MLOAD RETURNDATASIZE PUSH1 0x1F NOT PUSH1 0x1F DUP3 ADD AND DUP3 ADD DUP1 PUSH1 0x40 MSTORE POP DUP2 ADD SWAP1 PUSH2 0x702 SWAP2 SWAP1 PUSH2 0x387B JUMP JUMPDEST PUSH1 0x0 PUSH2 0x272D DUP4 PUSH1 0x1 PUSH1 0x1 PUSH1 0xA0 SHL SUB DUP5 AND PUSH2 0x31C6 JUMP JUMPDEST PUSH1 0x3 SLOAD PUSH1 0x1 PUSH1 0x1 PUSH1 0xA0 SHL SUB AND DUP1 PUSH2 0x285F JUMPI POP JUMP JUMPDEST PUSH1 0x4 SLOAD DUP1 ISZERO PUSH2 0x2921 JUMPI PUSH1 0x40 MLOAD PUSH4 0x70A08231 PUSH1 0xE0 SHL DUP2 MSTORE ADDRESS PUSH1 0x4 DUP3 ADD MSTORE PUSH1 0x0 SWAP1 PUSH20 0x4E3FBD56CD56C3E72C1403E103B45DB9DA5B9D2B SWAP1 PUSH4 0x70A08231 SWAP1 PUSH1 0x24 ADD PUSH1 0x20 PUSH1 0x40 MLOAD DUP1 DUP4 SUB DUP2 DUP7 DUP1 EXTCODESIZE ISZERO DUP1 ISZERO PUSH2 0x28B5 JUMPI PUSH1 0x0 DUP1 REVERT JUMPDEST POP GAS STATICCALL ISZERO DUP1 ISZERO PUSH2 0x28C9 JUMPI RETURNDATASIZE PUSH1 0x0 DUP1 RETURNDATACOPY RETURNDATASIZE PUSH1 0x0 REVERT JUMPDEST POP POP POP POP PUSH1 0x40 MLOAD RETURNDATASIZE PUSH1 0x1F NOT PUSH1 0x1F DUP3 ADD AND DUP3 ADD DUP1 PUSH1 0x40 MSTORE POP DUP2 ADD SWAP1 PUSH2 0x28ED SWAP2 SWAP1 PUSH2 0x387B JUMP JUMPDEST SWAP1 POP DUP1 ISZERO PUSH2 0x291F JUMPI PUSH2 0x291F DUP4 PUSH2 0x2903 DUP4 DUP6 PUSH2 0x2CA5 JUMP JUMPDEST PUSH20 0x4E3FBD56CD56C3E72C1403E103B45DB9DA5B9D2B SWAP2 SWAP1 PUSH2 0x32B9 JUMP JUMPDEST POP JUMPDEST PUSH1 0x5 SLOAD DUP1 ISZERO PUSH2 0x2716 JUMPI PUSH1 0x40 MLOAD PUSH4 0x70A08231 PUSH1 0xE0 SHL DUP2 MSTORE ADDRESS PUSH1 0x4 DUP3 ADD MSTORE PUSH1 0x0 SWAP1 PUSH20 0xD533A949740BB3306D119CC777FA900BA034CD52 SWAP1 PUSH4 0x70A08231 SWAP1 PUSH1 0x24 ADD PUSH1 0x20 PUSH1 0x40 MLOAD DUP1 DUP4 SUB DUP2 DUP7 DUP1 EXTCODESIZE ISZERO DUP1 ISZERO PUSH2 0x2977 JUMPI PUSH1 0x0 DUP1 REVERT JUMPDEST POP GAS STATICCALL ISZERO DUP1 ISZERO PUSH2 0x298B JUMPI RETURNDATASIZE PUSH1 0x0 DUP1 RETURNDATACOPY RETURNDATASIZE PUSH1 0x0 REVERT JUMPDEST POP POP POP POP PUSH1 0x40 MLOAD RETURNDATASIZE PUSH1 0x1F NOT PUSH1 0x1F DUP3 ADD AND DUP3 ADD DUP1 PUSH1 0x40 MSTORE POP DUP2 ADD SWAP1 PUSH2 0x29AF SWAP2 SWAP1 PUSH2 0x387B JUMP JUMPDEST SWAP1 POP DUP1 ISZERO PUSH2 0x29E1 JUMPI PUSH2 0x29E1 DUP5 PUSH2 0x29C5 DUP4 DUP6 PUSH2 0x2CA5 JUMP JUMPDEST PUSH20 0xD533A949740BB3306D119CC777FA900BA034CD52 SWAP2 SWAP1 PUSH2 0x32B9 JUMP JUMPDEST POP POP POP POP JUMP JUMPDEST PUSH1 0x40 MLOAD PUSH4 0x70A08231 PUSH1 0xE0 SHL DUP2 MSTORE ADDRESS PUSH1 0x4 DUP3 ADD MSTORE PUSH1 0x0 SWAP1 PUSH1 0x1 PUSH1 0x1 PUSH1 0xA0 SHL SUB DUP4 AND SWAP1 PUSH4 0x70A08231 SWAP1 PUSH1 0x24 ADD PUSH1 0x20 PUSH1 0x40 MLOAD DUP1 DUP4 SUB DUP2 DUP7 DUP1 EXTCODESIZE ISZERO DUP1 ISZERO PUSH2 0x2A29 JUMPI PUSH1 0x0 DUP1 REVERT JUMPDEST POP GAS STATICCALL ISZERO DUP1 ISZERO PUSH2 0x2A3D JUMPI RETURNDATASIZE PUSH1 0x0 DUP1 RETURNDATACOPY RETURNDATASIZE PUSH1 0x0 REVERT JUMPDEST POP POP POP POP PUSH1 0x40 MLOAD RETURNDATASIZE PUSH1 0x1F NOT PUSH1 0x1F DUP3 ADD AND DUP3 ADD DUP1 PUSH1 0x40 MSTORE POP DUP2 ADD SWAP1 PUSH2 0x2A61 SWAP2 SWAP1 PUSH2 0x387B JUMP JUMPDEST SWAP1 POP PUSH2 0x2A6D DUP3 DUP3 PUSH2 0x32E9 JUMP JUMPDEST POP POP JUMP JUMPDEST PUSH1 0x0 PUSH2 0x25B9 DUP3 SLOAD SWAP1 JUMP JUMPDEST PUSH1 0x0 PUSH2 0x272D DUP4 DUP4 PUSH2 0x365B JUMP JUMPDEST PUSH1 0x40 MLOAD PUSH4 0x70A08231 PUSH1 0xE0 SHL DUP2 MSTORE ADDRESS PUSH1 0x4 DUP3 ADD MSTORE PUSH1 0x0 SWAP1 PUSH20 0xC02AAA39B223FE8D0A0E5C4F27EAD9083C756CC2 SWAP1 PUSH4 0x70A08231 SWAP1 PUSH1 0x24 ADD PUSH1 0x20 PUSH1 0x40 MLOAD DUP1 DUP4 SUB DUP2 DUP7 DUP1 EXTCODESIZE ISZERO DUP1 ISZERO PUSH2 0x2AD4 JUMPI PUSH1 0x0 DUP1 REVERT JUMPDEST POP GAS STATICCALL ISZERO DUP1 ISZERO PUSH2 0x2AE8 JUMPI RETURNDATASIZE PUSH1 0x0 DUP1 RETURNDATACOPY RETURNDATASIZE PUSH1 0x0 REVERT JUMPDEST POP POP POP POP PUSH1 0x40 MLOAD RETURNDATASIZE PUSH1 0x1F NOT PUSH1 0x1F DUP3 ADD AND DUP3 ADD DUP1 PUSH1 0x40 MSTORE POP DUP2 ADD SWAP1 PUSH2 0x2B0C SWAP2 SWAP1 PUSH2 0x387B JUMP JUMPDEST SWAP1 POP DUP1 PUSH2 0x2B16 JUMPI POP JUMP JUMPDEST PUSH1 0x40 MLOAD PUSH4 0x2E1A7D4D PUSH1 0xE0 SHL DUP2 MSTORE PUSH1 0x4 DUP2 ADD DUP3 SWAP1 MSTORE PUSH20 0xC02AAA39B223FE8D0A0E5C4F27EAD9083C756CC2 SWAP1 PUSH4 0x2E1A7D4D SWAP1 PUSH1 0x24 ADD PUSH1 0x0 PUSH1 0x40 MLOAD DUP1 DUP4 SUB DUP2 PUSH1 0x0 DUP8 DUP1 EXTCODESIZE ISZERO DUP1 ISZERO PUSH2 0x2B63 JUMPI PUSH1 0x0 DUP1 REVERT JUMPDEST POP GAS CALL ISZERO DUP1 ISZERO PUSH2 0x2B77 JUMPI RETURNDATASIZE PUSH1 0x0 DUP1 RETURNDATACOPY RETURNDATASIZE PUSH1 0x0 REVERT JUMPDEST POP POP POP POP POP JUMP JUMPDEST PUSH1 0x40 MLOAD PUSH4 0x70A08231 PUSH1 0xE0 SHL DUP2 MSTORE ADDRESS PUSH1 0x4 DUP3 ADD MSTORE PUSH1 0x0 SWAP1 PUSH32 0x0 PUSH1 0x1 PUSH1 0x1 PUSH1 0xA0 SHL SUB AND SWAP1 PUSH4 0x70A08231 SWAP1 PUSH1 0x24 ADD PUSH2 0x27E6 JUMP JUMPDEST PUSH1 0x0 PUSH2 0x25B9 PUSH1 0x2 SLOAD PUSH8 0xDE0B6B3A7640000 PUSH2 0x2BE8 SWAP2 SWAP1 PUSH2 0x3816 JUMP JUMPDEST PUSH2 0x211F DUP5 JUMPDEST PUSH1 0x0 PUSH2 0x25B9 PUSH32 0x0 PUSH1 0x1 PUSH1 0x1 PUSH1 0xA0 SHL SUB AND PUSH4 0xBB7B8B80 PUSH1 0x40 MLOAD DUP2 PUSH4 0xFFFFFFFF AND PUSH1 0xE0 SHL DUP2 MSTORE PUSH1 0x4 ADD PUSH1 0x20 PUSH1 0x40 MLOAD DUP1 DUP4 SUB DUP2 DUP7 DUP1 EXTCODESIZE ISZERO DUP1 ISZERO PUSH2 0x2C4B JUMPI PUSH1 0x0 DUP1 REVERT JUMPDEST POP GAS STATICCALL ISZERO DUP1 ISZERO PUSH2 0x2C5F JUMPI RETURNDATASIZE PUSH1 0x0 DUP1 RETURNDATACOPY RETURNDATASIZE PUSH1 0x0 REVERT JUMPDEST POP POP POP POP PUSH1 0x40 MLOAD RETURNDATASIZE PUSH1 0x1F NOT PUSH1 0x1F DUP3 ADD AND DUP3 ADD DUP1 PUSH1 0x40 MSTORE POP DUP2 ADD SWAP1 PUSH2 0x2C83 SWAP2 SWAP1 PUSH2 0x387B JUMP JUMPDEST DUP4 SWAP1 PUSH2 0x2CA5 JUMP JUMPDEST PUSH1 0x0 PUSH2 0x25B9 PUSH1 0x1 SLOAD PUSH8 0xDE0B6B3A7640000 PUSH2 0x2792 SWAP2 SWAP1 PUSH2 0x3816 JUMP JUMPDEST PUSH1 0x0 PUSH8 0xDE0B6B3A7640000 PUSH2 0x2CBA DUP4 DUP6 PUSH2 0x38B6 JUMP JUMPDEST PUSH2 0x272D SWAP2 SWAP1 PUSH2 0x3894 JUMP JUMPDEST PUSH1 0x0 DUP2 PUSH2 0x2CD3 JUMPI POP PUSH1 0x0 PUSH2 0x25B9 JUMP JUMPDEST PUSH1 0x1 PUSH1 0x1 PUSH1 0xA0 SHL SUB DUP4 AND PUSH20 0x4E3FBD56CD56C3E72C1403E103B45DB9DA5B9D2B EQ ISZERO PUSH2 0x2D90 JUMPI PUSH1 0x40 MLOAD PUSH4 0x556D6E9F PUSH1 0xE0 SHL DUP2 MSTORE PUSH1 0x1 PUSH1 0x4 DUP3 ADD MSTORE PUSH1 0x0 PUSH1 0x24 DUP3 ADD MSTORE PUSH1 0x44 DUP2 ADD DUP4 SWAP1 MSTORE PUSH20 0xB576491F1E6E5E62F1D8F26062EE822B40B0E0D4 SWAP1 PUSH4 0x556D6E9F SWAP1 PUSH1 0x64 ADD PUSH1 0x20 PUSH1 0x40 MLOAD DUP1 DUP4 SUB DUP2 DUP7 DUP1 EXTCODESIZE ISZERO DUP1 ISZERO PUSH2 0x2D51 JUMPI PUSH1 0x0 DUP1 REVERT JUMPDEST POP GAS STATICCALL ISZERO DUP1 ISZERO PUSH2 0x2D65 JUMPI RETURNDATASIZE PUSH1 0x0 DUP1 RETURNDATACOPY RETURNDATASIZE PUSH1 0x0 REVERT JUMPDEST POP POP POP POP PUSH1 0x40 MLOAD RETURNDATASIZE PUSH1 0x1F NOT PUSH1 0x1F DUP3 ADD AND DUP3 ADD DUP1 PUSH1 0x40 MSTORE POP DUP2 ADD SWAP1 PUSH2 0x2D89 SWAP2 SWAP1 PUSH2 0x387B JUMP JUMPDEST SWAP1 POP PUSH2 0x25B9 JUMP JUMPDEST PUSH1 0x40 DUP1 MLOAD PUSH1 0x2 DUP1 DUP3 MSTORE PUSH1 0x60 DUP3 ADD DUP4 MSTORE PUSH1 0x0 SWAP3 PUSH1 0x20 DUP4 ADD SWAP1 DUP1 CALLDATASIZE DUP4 CALLDATACOPY ADD SWAP1 POP POP SWAP1 POP DUP4 DUP2 PUSH1 0x0 DUP2 MLOAD DUP2 LT PUSH2 0x2DC5 JUMPI PUSH2 0x2DC5 PUSH2 0x382D JUMP JUMPDEST PUSH1 0x20 MUL PUSH1 0x20 ADD ADD SWAP1 PUSH1 0x1 PUSH1 0x1 PUSH1 0xA0 SHL SUB AND SWAP1 DUP2 PUSH1 0x1 PUSH1 0x1 PUSH1 0xA0 SHL SUB AND DUP2 MSTORE POP POP PUSH20 0xC02AAA39B223FE8D0A0E5C4F27EAD9083C756CC2 DUP2 PUSH1 0x1 DUP2 MLOAD DUP2 LT PUSH2 0x2E0D JUMPI PUSH2 0x2E0D PUSH2 0x382D JUMP JUMPDEST PUSH1 0x1 PUSH1 0x1 PUSH1 0xA0 SHL SUB SWAP3 DUP4 AND PUSH1 0x20 SWAP2 DUP3 MUL SWAP3 SWAP1 SWAP3 ADD DUP2 ADD SWAP2 SWAP1 SWAP2 MSTORE DUP6 DUP3 AND PUSH1 0x0 SWAP1 DUP2 MSTORE PUSH1 0x7 SWAP1 SWAP2 MSTORE PUSH1 0x40 SWAP1 DUP2 SWAP1 KECCAK256 SLOAD SWAP1 MLOAD PUSH4 0xD06CA61F PUSH1 0xE0 SHL DUP2 MSTORE SWAP2 AND SWAP1 PUSH4 0xD06CA61F SWAP1 PUSH2 0x2E60 SWAP1 DUP7 SWAP1 DUP6 SWAP1 PUSH1 0x4 ADD PUSH2 0x397F JUMP JUMPDEST PUSH1 0x0 PUSH1 0x40 MLOAD DUP1 DUP4 SUB DUP2 DUP7 DUP1 EXTCODESIZE ISZERO DUP1 ISZERO PUSH2 0x2E78 JUMPI PUSH1 0x0 DUP1 REVERT JUMPDEST POP GAS STATICCALL ISZERO DUP1 ISZERO PUSH2 0x2E8C JUMPI RETURNDATASIZE PUSH1 0x0 DUP1 RETURNDATACOPY RETURNDATASIZE PUSH1 0x0 REVERT JUMPDEST POP POP POP POP PUSH1 0x40 MLOAD RETURNDATASIZE PUSH1 0x0 DUP3 RETURNDATACOPY PUSH1 0x1F RETURNDATASIZE SWAP1 DUP2 ADD PUSH1 0x1F NOT AND DUP3 ADD PUSH1 0x40 MSTORE PUSH2 0x2EB4 SWAP2 SWAP1 DUP2 ADD SWAP1 PUSH2 0x3998 JUMP JUMPDEST PUSH1 0x1 DUP2 MLOAD DUP2 LT PUSH2 0x2EC6 JUMPI PUSH2 0x2EC6 PUSH2 0x382D JUMP JUMPDEST PUSH1 0x20 MUL PUSH1 0x20 ADD ADD MLOAD SWAP2 POP POP SWAP3 SWAP2 POP POP JUMP JUMPDEST PUSH1 0x0 PUSH2 0x2F2C DUP3 PUSH1 0x40 MLOAD DUP1 PUSH1 0x40 ADD PUSH1 0x40 MSTORE DUP1 PUSH1 0x20 DUP2 MSTORE PUSH1 0x20 ADD PUSH32 0x5361666545524332303A206C6F772D6C6576656C2063616C6C206661696C6564 DUP2 MSTORE POP DUP6 PUSH1 0x1 PUSH1 0x1 PUSH1 0xA0 SHL SUB AND PUSH2 0x271B SWAP1 SWAP3 SWAP2 SWAP1 PUSH4 0xFFFFFFFF AND JUMP JUMPDEST DUP1 MLOAD SWAP1 SWAP2 POP ISZERO PUSH2 0x2716 JUMPI DUP1 DUP1 PUSH1 0x20 ADD SWAP1 MLOAD DUP2 ADD SWAP1 PUSH2 0x2F4A SWAP2 SWAP1 PUSH2 0x37DE JUMP JUMPDEST PUSH2 0x2716 JUMPI PUSH1 0x40 MLOAD PUSH3 0x461BCD PUSH1 0xE5 SHL DUP2 MSTORE PUSH1 0x20 PUSH1 0x4 DUP3 ADD MSTORE PUSH1 0x2A PUSH1 0x24 DUP3 ADD MSTORE PUSH32 0x5361666545524332303A204552433230206F7065726174696F6E20646964206E PUSH1 0x44 DUP3 ADD MSTORE PUSH10 0x1BDD081CDD58D8D95959 PUSH1 0xB2 SHL PUSH1 0x64 DUP3 ADD MSTORE PUSH1 0x84 ADD PUSH2 0x7F8 JUMP JUMPDEST PUSH1 0x60 DUP3 SELFBALANCE LT ISZERO PUSH2 0x300A JUMPI PUSH1 0x40 MLOAD PUSH3 0x461BCD PUSH1 0xE5 SHL DUP2 MSTORE PUSH1 0x20 PUSH1 0x4 DUP3 ADD MSTORE PUSH1 0x26 PUSH1 0x24 DUP3 ADD MSTORE PUSH32 0x416464726573733A20696E73756666696369656E742062616C616E636520666F PUSH1 0x44 DUP3 ADD MSTORE PUSH6 0x1C8818D85B1B PUSH1 0xD2 SHL PUSH1 0x64 DUP3 ADD MSTORE PUSH1 0x84 ADD PUSH2 0x7F8 JUMP JUMPDEST PUSH1 0x1 PUSH1 0x1 PUSH1 0xA0 SHL SUB DUP6 AND EXTCODESIZE PUSH2 0x3061 JUMPI PUSH1 0x40 MLOAD PUSH3 0x461BCD PUSH1 0xE5 SHL DUP2 MSTORE PUSH1 0x20 PUSH1 0x4 DUP3 ADD MSTORE PUSH1 0x1D PUSH1 0x24 DUP3 ADD MSTORE PUSH32 0x416464726573733A2063616C6C20746F206E6F6E2D636F6E7472616374000000 PUSH1 0x44 DUP3 ADD MSTORE PUSH1 0x64 ADD PUSH2 0x7F8 JUMP JUMPDEST PUSH1 0x0 DUP1 DUP7 PUSH1 0x1 PUSH1 0x1 PUSH1 0xA0 SHL SUB AND DUP6 DUP8 PUSH1 0x40 MLOAD PUSH2 0x307D SWAP2 SWAP1 PUSH2 0x3A56 JUMP JUMPDEST PUSH1 0x0 PUSH1 0x40 MLOAD DUP1 DUP4 SUB DUP2 DUP6 DUP8 GAS CALL SWAP3 POP POP POP RETURNDATASIZE DUP1 PUSH1 0x0 DUP2 EQ PUSH2 0x30BA JUMPI PUSH1 0x40 MLOAD SWAP2 POP PUSH1 0x1F NOT PUSH1 0x3F RETURNDATASIZE ADD AND DUP3 ADD PUSH1 0x40 MSTORE RETURNDATASIZE DUP3 MSTORE RETURNDATASIZE PUSH1 0x0 PUSH1 0x20 DUP5 ADD RETURNDATACOPY PUSH2 0x30BF JUMP JUMPDEST PUSH1 0x60 SWAP2 POP JUMPDEST POP SWAP2 POP SWAP2 POP PUSH2 0x30CF DUP3 DUP3 DUP7 PUSH2 0x3685 JUMP JUMPDEST SWAP8 SWAP7 POP POP POP POP POP POP POP JUMP JUMPDEST PUSH1 0x0 DUP2 DUP2 MSTORE PUSH1 0x1 DUP4 ADD PUSH1 0x20 MSTORE PUSH1 0x40 DUP2 KECCAK256 SLOAD PUSH2 0x3121 JUMPI POP DUP2 SLOAD PUSH1 0x1 DUP2 DUP2 ADD DUP5 SSTORE PUSH1 0x0 DUP5 DUP2 MSTORE PUSH1 0x20 DUP1 DUP3 KECCAK256 SWAP1 SWAP4 ADD DUP5 SWAP1 SSTORE DUP5 SLOAD DUP5 DUP3 MSTORE DUP3 DUP7 ADD SWAP1 SWAP4 MSTORE PUSH1 0x40 SWAP1 KECCAK256 SWAP2 SWAP1 SWAP2 SSTORE PUSH2 0x25B9 JUMP JUMPDEST POP PUSH1 0x0 PUSH2 0x25B9 JUMP JUMPDEST PUSH1 0x0 PUSH2 0x25B9 PUSH32 0x0 PUSH1 0x1 PUSH1 0x1 PUSH1 0xA0 SHL SUB AND PUSH4 0xBB7B8B80 PUSH1 0x40 MLOAD DUP2 PUSH4 0xFFFFFFFF AND PUSH1 0xE0 SHL DUP2 MSTORE PUSH1 0x4 ADD PUSH1 0x20 PUSH1 0x40 MLOAD DUP1 DUP4 SUB DUP2 DUP7 DUP1 EXTCODESIZE ISZERO DUP1 ISZERO PUSH2 0x3187 JUMPI PUSH1 0x0 DUP1 REVERT JUMPDEST POP GAS STATICCALL ISZERO DUP1 ISZERO PUSH2 0x319B JUMPI RETURNDATASIZE PUSH1 0x0 DUP1 RETURNDATACOPY RETURNDATASIZE PUSH1 0x0 REVERT JUMPDEST POP POP POP POP PUSH1 0x40 MLOAD RETURNDATASIZE PUSH1 0x1F NOT PUSH1 0x1F DUP3 ADD AND DUP3 ADD DUP1 PUSH1 0x40 MSTORE POP DUP2 ADD SWAP1 PUSH2 0x31BF SWAP2 SWAP1 PUSH2 0x387B JUMP JUMPDEST DUP4 SWAP1 PUSH2 0x36BE JUMP JUMPDEST PUSH1 0x0 DUP2 DUP2 MSTORE PUSH1 0x1 DUP4 ADD PUSH1 0x20 MSTORE PUSH1 0x40 DUP2 KECCAK256 SLOAD DUP1 ISZERO PUSH2 0x32AF JUMPI PUSH1 0x0 PUSH2 0x31EA PUSH1 0x1 DUP4 PUSH2 0x3816 JUMP JUMPDEST DUP6 SLOAD SWAP1 SWAP2 POP PUSH1 0x0 SWAP1 PUSH2 0x31FE SWAP1 PUSH1 0x1 SWAP1 PUSH2 0x3816 JUMP JUMPDEST SWAP1 POP DUP2 DUP2 EQ PUSH2 0x3263 JUMPI PUSH1 0x0 DUP7 PUSH1 0x0 ADD DUP3 DUP2 SLOAD DUP2 LT PUSH2 0x321E JUMPI PUSH2 0x321E PUSH2 0x382D JUMP JUMPDEST SWAP1 PUSH1 0x0 MSTORE PUSH1 0x20 PUSH1 0x0 KECCAK256 ADD SLOAD SWAP1 POP DUP1 DUP8 PUSH1 0x0 ADD DUP5 DUP2 SLOAD DUP2 LT PUSH2 0x3241 JUMPI PUSH2 0x3241 PUSH2 0x382D JUMP JUMPDEST PUSH1 0x0 SWAP2 DUP3 MSTORE PUSH1 0x20 DUP1 DUP4 KECCAK256 SWAP1 SWAP2 ADD SWAP3 SWAP1 SWAP3 SSTORE SWAP2 DUP3 MSTORE PUSH1 0x1 DUP9 ADD SWAP1 MSTORE PUSH1 0x40 SWAP1 KECCAK256 DUP4 SWAP1 SSTORE JUMPDEST DUP6 SLOAD DUP7 SWAP1 DUP1 PUSH2 0x3274 JUMPI PUSH2 0x3274 PUSH2 0x3A72 JUMP JUMPDEST PUSH1 0x1 SWAP1 SUB DUP2 DUP2 SWAP1 PUSH1 0x0 MSTORE PUSH1 0x20 PUSH1 0x0 KECCAK256 ADD PUSH1 0x0 SWAP1 SSTORE SWAP1 SSTORE DUP6 PUSH1 0x1 ADD PUSH1 0x0 DUP7 DUP2 MSTORE PUSH1 0x20 ADD SWAP1 DUP2 MSTORE PUSH1 0x20 ADD PUSH1 0x0 KECCAK256 PUSH1 0x0 SWAP1 SSTORE PUSH1 0x1 SWAP4 POP POP POP POP PUSH2 0x25B9 JUMP JUMPDEST PUSH1 0x0 SWAP2 POP POP PUSH2 0x25B9 JUMP JUMPDEST PUSH1 0x40 MLOAD PUSH1 0x1 PUSH1 0x1 PUSH1 0xA0 SHL SUB DUP4 AND PUSH1 0x24 DUP3 ADD MSTORE PUSH1 0x44 DUP2 ADD DUP3 SWAP1 MSTORE PUSH2 0x2716 SWAP1 DUP5 SWAP1 PUSH4 0xA9059CBB PUSH1 0xE0 SHL SWAP1 PUSH1 0x64 ADD PUSH2 0x26DF JUMP JUMPDEST DUP1 PUSH2 0x32F2 JUMPI POP POP JUMP JUMPDEST PUSH1 0x1 PUSH1 0x1 PUSH1 0xA0 SHL SUB DUP3 AND PUSH20 0x4E3FBD56CD56C3E72C1403E103B45DB9DA5B9D2B EQ ISZERO PUSH2 0x3475 JUMPI PUSH20 0xB576491F1E6E5E62F1D8F26062EE822B40B0E0D4 PUSH1 0x1 PUSH1 0x1 PUSH1 0xA0 SHL SUB AND PUSH4 0x5B41B908 PUSH1 0x1 PUSH1 0x0 DUP5 PUSH2 0x340E PUSH1 0x0 SLOAD PUSH2 0x211F PUSH2 0x337A PUSH32 0x0 PUSH1 0x1 PUSH1 0x1 PUSH1 0xA0 SHL SUB AND PUSH2 0x36D3 JUMP JUMPDEST PUSH1 0x40 MLOAD PUSH4 0xE5EC9DB9 PUSH1 0xE0 SHL DUP2 MSTORE PUSH20 0x4E3FBD56CD56C3E72C1403E103B45DB9DA5B9D2B PUSH1 0x4 DUP3 ADD MSTORE PUSH1 0x1 PUSH1 0x1 PUSH1 0xA0 SHL SUB SWAP2 SWAP1 SWAP2 AND SWAP1 PUSH4 0xE5EC9DB9 SWAP1 PUSH1 0x24 ADD PUSH1 0x20 PUSH1 0x40 MLOAD DUP1 DUP4 SUB DUP2 DUP7 DUP1 EXTCODESIZE ISZERO DUP1 ISZERO PUSH2 0x33CF JUMPI PUSH1 0x0 DUP1 REVERT JUMPDEST POP GAS STATICCALL ISZERO DUP1 ISZERO PUSH2 0x33E3 JUMPI RETURNDATASIZE PUSH1 0x0 DUP1 RETURNDATACOPY RETURNDATASIZE PUSH1 0x0 REVERT JUMPDEST POP POP POP POP PUSH1 0x40 MLOAD RETURNDATASIZE PUSH1 0x1F NOT PUSH1 0x1F DUP3 ADD AND DUP3 ADD DUP1 PUSH1 0x40 MSTORE POP DUP2 ADD SWAP1 PUSH2 0x3407 SWAP2 SWAP1 PUSH2 0x387B JUMP JUMPDEST DUP10 SWAP1 PUSH2 0x2CA5 JUMP JUMPDEST PUSH1 0x40 MLOAD PUSH1 0x1 PUSH1 0x1 PUSH1 0xE0 SHL SUB NOT PUSH1 0xE0 DUP8 SWAP1 SHL AND DUP2 MSTORE PUSH1 0x4 DUP2 ADD SWAP5 SWAP1 SWAP5 MSTORE PUSH1 0x24 DUP5 ADD SWAP3 SWAP1 SWAP3 MSTORE PUSH1 0x44 DUP4 ADD MSTORE PUSH1 0x64 DUP3 ADD MSTORE PUSH1 0x84 ADD PUSH1 0x0 PUSH1 0x40 MLOAD DUP1 DUP4 SUB DUP2 PUSH1 0x0 DUP8 DUP1 EXTCODESIZE ISZERO DUP1 ISZERO PUSH2 0x3459 JUMPI PUSH1 0x0 DUP1 REVERT JUMPDEST POP GAS CALL ISZERO DUP1 ISZERO PUSH2 0x346D JUMPI RETURNDATASIZE PUSH1 0x0 DUP1 RETURNDATACOPY RETURNDATASIZE PUSH1 0x0 REVERT JUMPDEST POP POP POP POP POP POP JUMP JUMPDEST PUSH1 0x40 DUP1 MLOAD PUSH1 0x2 DUP1 DUP3 MSTORE PUSH1 0x60 DUP3 ADD DUP4 MSTORE PUSH1 0x0 SWAP3 PUSH1 0x20 DUP4 ADD SWAP1 DUP1 CALLDATASIZE DUP4 CALLDATACOPY ADD SWAP1 POP POP SWAP1 POP DUP3 DUP2 PUSH1 0x0 DUP2 MLOAD DUP2 LT PUSH2 0x34AA JUMPI PUSH2 0x34AA PUSH2 0x382D JUMP JUMPDEST PUSH1 0x20 MUL PUSH1 0x20 ADD ADD SWAP1 PUSH1 0x1 PUSH1 0x1 PUSH1 0xA0 SHL SUB AND SWAP1 DUP2 PUSH1 0x1 PUSH1 0x1 PUSH1 0xA0 SHL SUB AND DUP2 MSTORE POP POP PUSH20 0xC02AAA39B223FE8D0A0E5C4F27EAD9083C756CC2 DUP2 PUSH1 0x1 DUP2 MLOAD DUP2 LT PUSH2 0x34F2 JUMPI PUSH2 0x34F2 PUSH2 0x382D JUMP JUMPDEST PUSH1 0x1 PUSH1 0x1 PUSH1 0xA0 SHL SUB SWAP3 DUP4 AND PUSH1 0x20 SWAP2 DUP3 MUL SWAP3 SWAP1 SWAP3 ADD DUP2 ADD SWAP2 SWAP1 SWAP2 MSTORE DUP5 DUP3 AND PUSH1 0x0 SWAP1 DUP2 MSTORE PUSH1 0x7 SWAP1 SWAP2 MSTORE PUSH1 0x40 DUP2 KECCAK256 SLOAD SWAP1 SLOAD SWAP1 DUP3 AND SWAP2 PUSH4 0x38ED1739 SWAP2 DUP6 SWAP2 PUSH2 0x35E2 SWAP2 SWAP1 PUSH2 0x211F SWAP1 PUSH2 0x3560 SWAP1 PUSH32 0x0 AND PUSH2 0x36D3 JUMP JUMPDEST PUSH1 0x40 MLOAD PUSH4 0xE5EC9DB9 PUSH1 0xE0 SHL DUP2 MSTORE PUSH1 0x1 PUSH1 0x1 PUSH1 0xA0 SHL SUB DUP12 DUP2 AND PUSH1 0x4 DUP4 ADD MSTORE SWAP2 SWAP1 SWAP2 AND SWAP1 PUSH4 0xE5EC9DB9 SWAP1 PUSH1 0x24 ADD PUSH1 0x20 PUSH1 0x40 MLOAD DUP1 DUP4 SUB DUP2 DUP7 DUP1 EXTCODESIZE ISZERO DUP1 ISZERO PUSH2 0x35A3 JUMPI PUSH1 0x0 DUP1 REVERT JUMPDEST POP GAS STATICCALL ISZERO DUP1 ISZERO PUSH2 0x35B7 JUMPI RETURNDATASIZE PUSH1 0x0 DUP1 RETURNDATACOPY RETURNDATASIZE PUSH1 0x0 REVERT JUMPDEST POP POP POP POP PUSH1 0x40 MLOAD RETURNDATASIZE PUSH1 0x1F NOT PUSH1 0x1F DUP3 ADD AND DUP3 ADD DUP1 PUSH1 0x40 MSTORE POP DUP2 ADD SWAP1 PUSH2 0x35DB SWAP2 SWAP1 PUSH2 0x387B JUMP JUMPDEST DUP9 SWAP1 PUSH2 0x2CA5 JUMP JUMPDEST DUP5 ADDRESS TIMESTAMP PUSH1 0x40 MLOAD DUP7 PUSH4 0xFFFFFFFF AND PUSH1 0xE0 SHL DUP2 MSTORE PUSH1 0x4 ADD PUSH2 0x3605 SWAP6 SWAP5 SWAP4 SWAP3 SWAP2 SWAP1 PUSH2 0x3A88 JUMP JUMPDEST PUSH1 0x0 PUSH1 0x40 MLOAD DUP1 DUP4 SUB DUP2 PUSH1 0x0 DUP8 DUP1 EXTCODESIZE ISZERO DUP1 ISZERO PUSH2 0x361F JUMPI PUSH1 0x0 DUP1 REVERT JUMPDEST POP GAS CALL ISZERO DUP1 ISZERO PUSH2 0x3633 JUMPI RETURNDATASIZE PUSH1 0x0 DUP1 RETURNDATACOPY RETURNDATASIZE PUSH1 0x0 REVERT JUMPDEST POP POP POP POP PUSH1 0x40 MLOAD RETURNDATASIZE PUSH1 0x0 DUP3 RETURNDATACOPY PUSH1 0x1F RETURNDATASIZE SWAP1 DUP2 ADD PUSH1 0x1F NOT AND DUP3 ADD PUSH1 0x40 MSTORE PUSH2 0x29E1 SWAP2 SWAP1 DUP2 ADD SWAP1 PUSH2 0x3998 JUMP JUMPDEST PUSH1 0x0 DUP3 PUSH1 0x0 ADD DUP3 DUP2 SLOAD DUP2 LT PUSH2 0x3672 JUMPI PUSH2 0x3672 PUSH2 0x382D JUMP JUMPDEST SWAP1 PUSH1 0x0 MSTORE PUSH1 0x20 PUSH1 0x0 KECCAK256 ADD SLOAD SWAP1 POP SWAP3 SWAP2 POP POP JUMP JUMPDEST PUSH1 0x60 DUP4 ISZERO PUSH2 0x3694 JUMPI POP DUP2 PUSH2 0x272D JUMP JUMPDEST DUP3 MLOAD ISZERO PUSH2 0x36A4 JUMPI DUP3 MLOAD DUP1 DUP5 PUSH1 0x20 ADD REVERT JUMPDEST DUP2 PUSH1 0x40 MLOAD PUSH3 0x461BCD PUSH1 0xE5 SHL DUP2 MSTORE PUSH1 0x4 ADD PUSH2 0x7F8 SWAP2 SWAP1 PUSH2 0x375D JUMP JUMPDEST PUSH1 0x0 DUP2 PUSH2 0x2CBA PUSH8 0xDE0B6B3A7640000 DUP6 PUSH2 0x38B6 JUMP JUMPDEST PUSH1 0x40 MLOAD PUSH4 0x21F8A721 PUSH1 0xE0 SHL DUP2 MSTORE PUSH14 0x37B930B1B632A83937BB34B232B9 PUSH1 0x91 SHL PUSH1 0x4 DUP3 ADD MSTORE PUSH1 0x0 SWAP1 PUSH1 0x1 PUSH1 0x1 PUSH1 0xA0 SHL SUB DUP4 AND SWAP1 PUSH4 0x21F8A721 SWAP1 PUSH1 0x24 ADD PUSH2 0x2569 JUMP JUMPDEST PUSH1 0x40 MLOAD DUP1 PUSH1 0x40 ADD PUSH1 0x40 MSTORE DUP1 PUSH1 0x2 SWAP1 PUSH1 0x20 DUP3 MUL DUP1 CALLDATASIZE DUP4 CALLDATACOPY POP SWAP2 SWAP3 SWAP2 POP POP JUMP JUMPDEST PUSH1 0x0 JUMPDEST DUP4 DUP2 LT ISZERO PUSH2 0x374C JUMPI DUP2 DUP2 ADD MLOAD DUP4 DUP3 ADD MSTORE PUSH1 0x20 ADD PUSH2 0x3734 JUMP JUMPDEST DUP4 DUP2 GT ISZERO PUSH2 0x29E1 JUMPI POP POP PUSH1 0x0 SWAP2 ADD MSTORE JUMP JUMPDEST PUSH1 0x20 DUP2 MSTORE PUSH1 0x0 DUP3 MLOAD DUP1 PUSH1 0x20 DUP5 ADD MSTORE PUSH2 0x377C DUP2 PUSH1 0x40 DUP6 ADD PUSH1 0x20 DUP8 ADD PUSH2 0x3731 JUMP JUMPDEST PUSH1 0x1F ADD PUSH1 0x1F NOT AND SWAP2 SWAP1 SWAP2 ADD PUSH1 0x40 ADD SWAP3 SWAP2 POP POP JUMP JUMPDEST PUSH1 0x0 PUSH1 0x20 DUP3 DUP5 SUB SLT ISZERO PUSH2 0x37A2 JUMPI PUSH1 0x0 DUP1 REVERT JUMPDEST POP CALLDATALOAD SWAP2 SWAP1 POP JUMP JUMPDEST PUSH1 0x1 PUSH1 0x1 PUSH1 0xA0 SHL SUB DUP2 AND DUP2 EQ PUSH2 0x37BE JUMPI PUSH1 0x0 DUP1 REVERT JUMPDEST POP JUMP JUMPDEST PUSH1 0x0 PUSH1 0x20 DUP3 DUP5 SUB SLT ISZERO PUSH2 0x37D3 JUMPI PUSH1 0x0 DUP1 REVERT JUMPDEST DUP2 CALLDATALOAD PUSH2 0x272D DUP2 PUSH2 0x37A9 JUMP JUMPDEST PUSH1 0x0 PUSH1 0x20 DUP3 DUP5 SUB SLT ISZERO PUSH2 0x37F0 JUMPI PUSH1 0x0 DUP1 REVERT JUMPDEST DUP2 MLOAD DUP1 ISZERO ISZERO DUP2 EQ PUSH2 0x272D JUMPI PUSH1 0x0 DUP1 REVERT JUMPDEST PUSH4 0x4E487B71 PUSH1 0xE0 SHL PUSH1 0x0 MSTORE PUSH1 0x11 PUSH1 0x4 MSTORE PUSH1 0x24 PUSH1 0x0 REVERT JUMPDEST PUSH1 0x0 DUP3 DUP3 LT ISZERO PUSH2 0x3828 JUMPI PUSH2 0x3828 PUSH2 0x3800 JUMP JUMPDEST POP SUB SWAP1 JUMP JUMPDEST PUSH4 0x4E487B71 PUSH1 0xE0 SHL PUSH1 0x0 MSTORE PUSH1 0x32 PUSH1 0x4 MSTORE PUSH1 0x24 PUSH1 0x0 REVERT JUMPDEST PUSH1 0x60 DUP2 ADD DUP2 DUP5 PUSH1 0x0 JUMPDEST PUSH1 0x2 DUP2 LT ISZERO PUSH2 0x386B JUMPI DUP2 MLOAD DUP4 MSTORE PUSH1 0x20 SWAP3 DUP4 ADD SWAP3 SWAP1 SWAP2 ADD SWAP1 PUSH1 0x1 ADD PUSH2 0x384C JUMP JUMPDEST POP POP POP DUP3 PUSH1 0x40 DUP4 ADD MSTORE SWAP4 SWAP3 POP POP POP JUMP JUMPDEST PUSH1 0x0 PUSH1 0x20 DUP3 DUP5 SUB SLT ISZERO PUSH2 0x388D JUMPI PUSH1 0x0 DUP1 REVERT JUMPDEST POP MLOAD SWAP2 SWAP1 POP JUMP JUMPDEST PUSH1 0x0 DUP3 PUSH2 0x38B1 JUMPI PUSH4 0x4E487B71 PUSH1 0xE0 SHL PUSH1 0x0 MSTORE PUSH1 0x12 PUSH1 0x4 MSTORE PUSH1 0x24 PUSH1 0x0 REVERT JUMPDEST POP DIV SWAP1 JUMP JUMPDEST PUSH1 0x0 DUP2 PUSH1 0x0 NOT DIV DUP4 GT DUP3 ISZERO ISZERO AND ISZERO PUSH2 0x38D0 JUMPI PUSH2 0x38D0 PUSH2 0x3800 JUMP JUMPDEST POP MUL SWAP1 JUMP JUMPDEST PUSH1 0x0 PUSH1 0x0 NOT DUP3 EQ ISZERO PUSH2 0x38E9 JUMPI PUSH2 0x38E9 PUSH2 0x3800 JUMP JUMPDEST POP PUSH1 0x1 ADD SWAP1 JUMP JUMPDEST PUSH1 0x0 DUP3 NOT DUP3 GT ISZERO PUSH2 0x3903 JUMPI PUSH2 0x3903 PUSH2 0x3800 JUMP JUMPDEST POP ADD SWAP1 JUMP JUMPDEST PUSH1 0x0 PUSH1 0x20 DUP3 DUP5 SUB SLT ISZERO PUSH2 0x391A JUMPI PUSH1 0x0 DUP1 REVERT JUMPDEST DUP2 MLOAD PUSH2 0x272D DUP2 PUSH2 0x37A9 JUMP JUMPDEST PUSH4 0x4E487B71 PUSH1 0xE0 SHL PUSH1 0x0 MSTORE PUSH1 0x41 PUSH1 0x4 MSTORE PUSH1 0x24 PUSH1 0x0 REVERT JUMPDEST PUSH1 0x0 DUP2 MLOAD DUP1 DUP5 MSTORE PUSH1 0x20 DUP1 DUP6 ADD SWAP5 POP DUP1 DUP5 ADD PUSH1 0x0 JUMPDEST DUP4 DUP2 LT ISZERO PUSH2 0x3974 JUMPI DUP2 MLOAD PUSH1 0x1 PUSH1 0x1 PUSH1 0xA0 SHL SUB AND DUP8 MSTORE SWAP6 DUP3 ADD SWAP6 SWAP1 DUP3 ADD SWAP1 PUSH1 0x1 ADD PUSH2 0x394F JUMP JUMPDEST POP SWAP5 SWAP6 SWAP5 POP POP POP POP POP JUMP JUMPDEST DUP3 DUP2 MSTORE PUSH1 0x40 PUSH1 0x20 DUP3 ADD MSTORE PUSH1 0x0 PUSH2 0x272A PUSH1 0x40 DUP4 ADD DUP5 PUSH2 0x393B JUMP JUMPDEST PUSH1 0x0 PUSH1 0x20 DUP1 DUP4 DUP6 SUB SLT ISZERO PUSH2 0x39AB JUMPI PUSH1 0x0 DUP1 REVERT JUMPDEST DUP3 MLOAD PUSH8 0xFFFFFFFFFFFFFFFF DUP1 DUP3 GT ISZERO PUSH2 0x39C3 JUMPI PUSH1 0x0 DUP1 REVERT JUMPDEST DUP2 DUP6 ADD SWAP2 POP DUP6 PUSH1 0x1F DUP4 ADD SLT PUSH2 0x39D7 JUMPI PUSH1 0x0 DUP1 REVERT JUMPDEST DUP2 MLOAD DUP2 DUP2 GT ISZERO PUSH2 0x39E9 JUMPI PUSH2 0x39E9 PUSH2 0x3925 JUMP JUMPDEST DUP1 PUSH1 0x5 SHL PUSH1 0x40 MLOAD PUSH1 0x1F NOT PUSH1 0x3F DUP4 ADD AND DUP2 ADD DUP2 DUP2 LT DUP6 DUP3 GT OR ISZERO PUSH2 0x3A0E JUMPI PUSH2 0x3A0E PUSH2 0x3925 JUMP JUMPDEST PUSH1 0x40 MSTORE SWAP2 DUP3 MSTORE DUP5 DUP3 ADD SWAP3 POP DUP4 DUP2 ADD DUP6 ADD SWAP2 DUP9 DUP4 GT ISZERO PUSH2 0x3A2C JUMPI PUSH1 0x0 DUP1 REVERT JUMPDEST SWAP4 DUP6 ADD SWAP4 JUMPDEST DUP3 DUP6 LT ISZERO PUSH2 0x3A4A JUMPI DUP5 MLOAD DUP5 MSTORE SWAP4 DUP6 ADD SWAP4 SWAP3 DUP6 ADD SWAP3 PUSH2 0x3A31 JUMP JUMPDEST SWAP9 SWAP8 POP POP POP POP POP POP POP POP JUMP JUMPDEST PUSH1 0x0 DUP3 MLOAD PUSH2 0x3A68 DUP2 DUP5 PUSH1 0x20 DUP8 ADD PUSH2 0x3731 JUMP JUMPDEST SWAP2 SWAP1 SWAP2 ADD SWAP3 SWAP2 POP POP JUMP JUMPDEST PUSH4 0x4E487B71 PUSH1 0xE0 SHL PUSH1 0x0 MSTORE PUSH1 0x31 PUSH1 0x4 MSTORE PUSH1 0x24 PUSH1 0x0 REVERT JUMPDEST DUP6 DUP2 MSTORE DUP5 PUSH1 0x20 DUP3 ADD MSTORE PUSH1 0xA0 PUSH1 0x40 DUP3 ADD MSTORE PUSH1 0x0 PUSH2 0x3AA7 PUSH1 0xA0 DUP4 ADD DUP7 PUSH2 0x393B JUMP JUMPDEST PUSH1 0x1 PUSH1 0x1 PUSH1 0xA0 SHL SUB SWAP5 SWAP1 SWAP5 AND PUSH1 0x60 DUP4 ADD MSTORE POP PUSH1 0x80 ADD MSTORE SWAP4 SWAP3 POP POP POP JUMP INVALID PUSH22 0x6E617574686F72697A65642061636365737300000000 STOP STOP STOP STOP STOP STOP STOP STOP STOP LOG2 PUSH5 0x6970667358 0x22 SLT KECCAK256 0xEC 0x5F SELFBALANCE SWAP11 0xE 0xB5 ADDRESS DUP6 NOT 0xF8 0xCA LOG4 0xA9 0xB5 PUSH10 0xB9DD6AFB321E14C0A704 0xA6 0xD6 DUP4 0xE9 0xAE 0xF6 0x49 PUSH5 0x736F6C6343 STOP ADDMOD MULMOD STOP CALLER ","sha1":"9d983145881ee25471bc69a4d408498615c8168d","source":"// SPDX-License-Identifier: GPL-3.0-or-later\npragma solidity 0.8.9;\n\nimport \"@openzeppelin/contracts/token/ERC20/IERC20.sol\";\nimport \"@openzeppelin/contracts/token/ERC20/utils/SafeERC20.sol\";\nimport \"@openzeppelin/contracts/utils/structs/EnumerableSet.sol\";\n\nimport \"../../libraries/AddressProviderHelpers.sol\";\nimport \"../../libraries/ScaledMath.sol\";\nimport \"../utils/CvxMintAmount.sol\";\nimport \"../utils/SlippageTolerance.sol\";\nimport \"../../interfaces/IStrategy.sol\";\nimport \"../../interfaces/IAddressProvider.sol\";\nimport \"../../interfaces/vendor/IBooster.sol\";\nimport \"../../interfaces/vendor/ICurveSwapEth.sol\";\nimport \"../../interfaces/vendor/IRewardStaking.sol\";\nimport \"../../interfaces/vendor/UniswapRouter02.sol\";\nimport \"../../interfaces/vendor/IWETH.sol\";\n\n/**\n * This is the BkdEthCvx strategy, which is designed to be used by a Backd ETH Vault.\n * The strategy holds ETH as it's underlying and allocates liquidity to Convex via given Curve Pool with 2 underlying tokens.\n * Rewards received on Convex (CVX, CRV), are sold in part for the underlying.\n * A share of earned CVX & CRV are retained on behalf of the Backd community to participate in governance.\n */\ncontract BkdEthCvx is IStrategy, CvxMintAmount, SlippageTolerance {\n    using ScaledMath for uint256;\n    using SafeERC20 for IERC20;\n    using EnumerableSet for EnumerableSet.AddressSet;\n    using AddressProviderHelpers for IAddressProvider;\n\n    uint256 private constant _CURVE_CVX_INDEX = 1;\n    uint256 private constant _CURVE_ETH_INDEX = 0;\n\n    IBooster private constant _BOOSTER = IBooster(0xF403C135812408BFbE8713b5A23a04b3D48AAE31); // Convex Booster Contract\n    IERC20 private constant _CVX = IERC20(0x4e3FBD56CD56c3e72c1403e103b45Db9da5B9D2B); // CVX\n    IWETH private constant _WETH = IWETH(0xC02aaA39b223FE8D0A0e5C4F27eAD9083C756Cc2); // WETH\n    IERC20 private constant _CRV = IERC20(0xD533a949740bb3306d119CC777fa900bA034cd52); // CRV\n    UniswapRouter02 private constant _SUSHISWAP =\n        UniswapRouter02(0xd9e1cE17f2641f24aE83637ab66a2cca9C378B9F); // Sushiswap Router for swaps\n    UniswapRouter02 private constant _UNISWAP =\n        UniswapRouter02(0x7a250d5630B4cF539739dF2C5dAcb4c659F2488D); // Uniswap Router for swaps\n    ICurveSwapEth internal constant _CVX_ETH_CURVE_POOL =\n        ICurveSwapEth(0xB576491F1E6e5E62f1d8F26062Ee822B40B0E0d4); // CVX/ETH Curve Pool\n\n    IAddressProvider internal immutable _addressProvider; // Address provider used for getting oracle provider\n    address payable public immutable vault; // Backd Vault\n    ICurveSwapEth public immutable curvePool; // Curve Pool\n    IERC20 public immutable lp; // Curve Pool LP Token\n    IRewardStaking public immutable rewards; // Rewards Contract for claiming Convex Rewards\n    uint256 public immutable convexPid; // Index of Convex Pool in Booster Contract\n    uint256 public immutable curveIndex; // Underlying index in Curve Pool\n\n    uint256 public imbalanceToleranceIn; // Maximum allowed slippage from Curve Pool Imbalance for depositing\n    uint256 public imbalanceToleranceOut; // Maximum allowed slippage from Curve Pool Imbalance for withdrawing\n    address public communityReserve; // Address for sending CVX & CRV Community Reserve share\n    uint256 public cvxCommunityReserveShare; // Share of CVX sent to Community Reserve\n    uint256 public crvCommunityReserveShare; // Share of CRV sent to Community Reserve\n    address public override strategist; // The strategist for the strategy\n    bool public isShutdown; // If the strategy is shutdown, stops all deposits\n    mapping(address => UniswapRouter02) public tokenDex; // Dex to use for swapping for a given token\n\n    EnumerableSet.AddressSet private _rewardTokens; // List of additional reward tokens when claiming rewards on Convex\n\n    event Deposit(uint256 amount); // Emitted after a successfull deposit\n    event Withdraw(uint256 amount); // Emitted after a successful withdrawal\n    event WithdrawAll(uint256 amount); // Emitted after successfully withdrwaing all\n    event Harvest(uint256 amount); // Emitted after a successful harvest\n    event Shutdown(); // Emitted after a successful shutdown\n    event SetCommunityReserve(address reserve); // Emitted after a succuessful setting of reserve\n    event SetCrvCommunityReserveShare(uint256 value); // Emitted after a succuessful setting of CRV Community Reserve Share\n    event SetCvxCommunityReserveShare(uint256 value); // Emitted after a succuessful setting of CVX Community Reserve Share\n    event SetImbalanceToleranceIn(uint256 value); // Emitted after a succuessful setting of imbalance tolerance in\n    event SetImbalanceToleranceOut(uint256 value); // Emitted after a succuessful setting of imbalance tolerance out\n    event SetStrategist(address strategist); // Emitted after a succuessful setting of strategist\n    event AddRewardToken(address token); // Emitted after successfully adding a new reward token\n    event RemoveRewardToken(address token); // Emitted after successfully removing a reward token\n    event SwapDex(address token, address newDex); // Emitted after successfully swapping a tokens dex\n\n    modifier onlyVault() {\n        require(msg.sender == vault, Error.UNAUTHORIZED_ACCESS);\n        _;\n    }\n\n    constructor(\n        address vault_,\n        address strategist_,\n        address curvePool_,\n        uint256 convexPid_,\n        uint256 curveIndex_,\n        IAddressProvider addressProvider_\n    ) SlippageTolerance(addressProvider_.getRoleManager()) {\n        // Setting inputs\n        vault = payable(vault_);\n        strategist = strategist_;\n        curvePool = ICurveSwapEth(curvePool_);\n        convexPid = convexPid_;\n        curveIndex = curveIndex_;\n        _addressProvider = addressProvider_;\n\n        // Setting LP and Rewards contracts\n        (address lp_, , , address rewards_, , ) = _BOOSTER.poolInfo(convexPid_);\n        lp = IERC20(lp_);\n        rewards = IRewardStaking(rewards_);\n\n        // Setting default values\n        imbalanceToleranceIn = 0.0007e18;\n        imbalanceToleranceOut = 0.0104e18;\n\n        // Setting dexes\n        _setDex(address(_CRV), _SUSHISWAP);\n        _setDex(address(_CVX), _SUSHISWAP);\n\n        // Approvals\n        IERC20(lp_).safeApprove(address(_BOOSTER), type(uint256).max);\n        _CVX.safeApprove(address(_CVX_ETH_CURVE_POOL), type(uint256).max);\n        _CRV.safeApprove(address(_SUSHISWAP), type(uint256).max);\n    }\n\n    receive() external payable {}\n\n    /**\n     * @notice Deposit all available underlying into Convex pool.\n     * @dev Liquidity is added to Curve Pool then Curve LP tokens are deposited\n     * \t\tinto Convex and Convex LP tokens are staked for rewards by default.\n     * @return True if successful deposit.\n     */\n    function deposit() external payable override onlyVault returns (bool) {\n        require(!isShutdown, Error.STRATEGY_SHUT_DOWN);\n\n        // Depositing into Curve Pool\n        uint256 underlyingBalance = _underlyingBalance();\n        if (underlyingBalance == 0) return false;\n        uint256[2] memory amounts;\n        amounts[curveIndex] = underlyingBalance;\n        curvePool.add_liquidity{value: underlyingBalance}(\n            amounts,\n            _minLpAccepted(underlyingBalance)\n        );\n\n        // Depositing into Convex and Staking\n        if (!_BOOSTER.depositAll(convexPid, true)) return false;\n        emit Deposit(underlyingBalance);\n        return true;\n    }\n\n    /**\n     * @notice Withdraw an amount of underlying to the vault.\n     * @dev This can only be called by the vault.\n     *      If the amount is not available, it will be made liquid.\n     * @param amount Amount of underlying to withdraw.\n     * @return True if successful withdrawal.\n     */\n    function withdraw(uint256 amount) external override onlyVault returns (bool) {\n        if (amount == 0) return false;\n        uint256 underlyingBalance = _underlyingBalance();\n\n        // Transferring from idle balance if enough\n        if (underlyingBalance >= amount) {\n            if (!vault.send(amount)) return false;\n            emit Withdraw(amount);\n            return true;\n        }\n\n        // Unstaking needed LP Tokens from Convex\n        uint256 requiredUnderlyingAmount = amount - underlyingBalance;\n        uint256 maxLpBurned = _maxLpBurned(requiredUnderlyingAmount);\n        uint256 requiredLpAmount = maxLpBurned - _lpBalance();\n        if (!rewards.withdrawAndUnwrap(requiredLpAmount, false)) return false;\n\n        // Removing needed liquidity from Curve\n        uint256[2] memory amounts;\n        // solhint-disable-next-line reentrancy\n        amounts[curveIndex] = requiredUnderlyingAmount;\n        curvePool.remove_liquidity_imbalance(amounts, maxLpBurned);\n        vault.transfer(amount);\n        emit Withdraw(amount);\n        return true;\n    }\n\n    /**\n     * @notice Withdraw all underlying to vault.\n     * @dev This does not liquidate reward tokens and only considers\n     *      idle underlying, idle lp tokens and staked lp tokens.\n     * @return Amount of underlying withdrawn\n     */\n    function withdrawAll() external override returns (uint256) {\n        require(\n            msg.sender == vault || _roleManager().hasRole(Roles.GOVERNANCE, msg.sender),\n            Error.UNAUTHORIZED_ACCESS\n        );\n        // Unstaking and withdrawing from Convex pool\n        uint256 stakedBalance = _stakedBalance();\n        if (stakedBalance > 0) {\n            if (!rewards.withdrawAndUnwrap(stakedBalance, false)) return 0;\n        }\n\n        // Removing liquidity from Curve\n        uint256 lpBalance = _lpBalance();\n        if (lpBalance > 0) {\n            curvePool.remove_liquidity_one_coin(\n                lpBalance,\n                int128(uint128(curveIndex)),\n                _minUnderlyingAccepted(lpBalance)\n            );\n        }\n\n        // Transferring underlying to vault\n        uint256 underlyingBalance = _underlyingBalance();\n        if (underlyingBalance == 0) return 0;\n        vault.transfer(underlyingBalance);\n        emit WithdrawAll(underlyingBalance);\n        return underlyingBalance;\n    }\n\n    /**\n     * @notice Harvests reward tokens and sells these for the underlying.\n     * @dev Any underlying harvested is not redeposited by this method.\n     * @return Amount of underlying harvested.\n     */\n    function harvest() external override onlyVault returns (uint256) {\n        uint256 underlyingBalance = _underlyingBalance();\n\n        // Claim Convex rewards\n        rewards.getReward(address(this), false);\n\n        // Sending share to Community Reserve\n        _sendCommunityReserveShare();\n\n        // Swap CVX for WETH\n        _swapAllForWeth(_CVX);\n\n        // Swap CRV for WETH\n        _swapAllForWeth(_CRV);\n\n        // Swap Extra Rewards for WETH\n        for (uint256 i = 0; i < _rewardTokens.length(); i++) {\n            _swapAllForWeth(IERC20(_rewardTokens.at(i)));\n        }\n\n        // Swap WETH for underlying\n        _swapWethForUnderlying();\n\n        uint256 harvested = _underlyingBalance() - underlyingBalance;\n        emit Harvest(harvested);\n        return harvested;\n    }\n\n    /**\n     * @notice Shuts down the strategy, disabling deposits.\n     * @return True if the strategy was succesfully shutdown\n     */\n    function shutdown() external override onlyVault returns (bool) {\n        if (isShutdown) return false;\n        isShutdown = true;\n        emit Shutdown();\n        return true;\n    }\n\n    /**\n     * @notice Set the address of the communit reserve.\n     * @dev CRV & CVX will be taxed and allocated to the reserve,\n     *      such that Backd can participate in governance.\n     * @param _communityReserve Address of the community reserve.\n     * @return True if successfully set.\n     */\n    function setCommunityReserve(address _communityReserve) external onlyGovernance returns (bool) {\n        communityReserve = _communityReserve;\n        emit SetCommunityReserve(_communityReserve);\n        return true;\n    }\n\n    /**\n     * @notice Set the share of CRV to send to the Community Reserve.\n     * @param crvCommunityReserveShare_ New fee charged on CRV rewards for governance.\n     * @return True if successfully set.\n     */\n    function setCrvCommunityReserveShare(uint256 crvCommunityReserveShare_)\n        external\n        onlyGovernance\n        returns (bool)\n    {\n        require(crvCommunityReserveShare_ <= ScaledMath.ONE, Error.INVALID_AMOUNT);\n        require(communityReserve != address(0), \"Community reserve must be set\");\n        crvCommunityReserveShare = crvCommunityReserveShare_;\n        emit SetCrvCommunityReserveShare(crvCommunityReserveShare_);\n        return true;\n    }\n\n    /**\n     * @notice Set the share of CVX to send to the Community Reserve.\n     * @param cvxCommunityReserveShare_ New fee charged on CVX rewards for governance.\n     * @return True if successfully set.\n     */\n    function setCvxCommunityReserveShare(uint256 cvxCommunityReserveShare_)\n        external\n        onlyGovernance\n        returns (bool)\n    {\n        require(cvxCommunityReserveShare_ <= ScaledMath.ONE, Error.INVALID_AMOUNT);\n        require(communityReserve != address(0), \"Community reserve must be set\");\n        cvxCommunityReserveShare = cvxCommunityReserveShare_;\n        emit SetCvxCommunityReserveShare(cvxCommunityReserveShare_);\n        return true;\n    }\n\n    /**\n     * @notice Set imbalance tolerance for Curve Pool deposits.\n     * @dev Stored as a percent, e.g. 1% would be set as 0.01\n     * @param _imbalanceToleranceIn New imbalance tolarance in.\n     * @return True if successfully set.\n     */\n    function setImbalanceToleranceIn(uint256 _imbalanceToleranceIn)\n        external\n        onlyGovernance\n        returns (bool)\n    {\n        imbalanceToleranceIn = _imbalanceToleranceIn;\n        emit SetImbalanceToleranceIn(_imbalanceToleranceIn);\n        return true;\n    }\n\n    /**\n     * @notice Set imbalance tolerance for Curve Pool withdrawals.\n     * @dev Stored as a percent, e.g. 1% would be set as 0.01\n     * @param _imbalanceToleranceOut New imbalance tolarance out.\n     * @return True if successfully set.\n     */\n    function setImbalanceToleranceOut(uint256 _imbalanceToleranceOut)\n        external\n        onlyGovernance\n        returns (bool)\n    {\n        imbalanceToleranceOut = _imbalanceToleranceOut;\n        emit SetImbalanceToleranceOut(_imbalanceToleranceOut);\n        return true;\n    }\n\n    /**\n     * @notice Set strategist.\n     * @dev Can only be set by current strategist.\n     * @param _strategist Address of new strategist.\n     * @return True if successfully set.\n     */\n    function setStrategist(address _strategist) external returns (bool) {\n        require(msg.sender == strategist, Error.UNAUTHORIZED_ACCESS);\n        strategist = _strategist;\n        emit SetStrategist(_strategist);\n        return true;\n    }\n\n    /**\n     * @notice Add a reward token to list of extra reward tokens.\n     * @dev These are tokens that are not the main assets of the strategy. For instance, temporary incentives.\n     * @param token Address of token to add to reward token list.\n     * @return True if successfully added.\n     */\n    function addRewardToken(address token) external onlyGovernance returns (bool) {\n        require(\n            token != address(_CVX) && token != address(_CRV) && token != address(_WETH),\n            Error.INVALID_TOKEN_TO_ADD\n        );\n        if (_rewardTokens.contains(token)) return false;\n        _rewardTokens.add(token);\n        _setDex(token, _SUSHISWAP);\n        IERC20(token).safeApprove(address(_SUSHISWAP), 0);\n        IERC20(token).safeApprove(address(_SUSHISWAP), type(uint256).max);\n        emit AddRewardToken(token);\n        return true;\n    }\n\n    /**\n     * @notice Remove a reward token.\n     * @param token Address of token to remove from reward token list.\n     * @return True if successfully removed.\n     */\n    function removeRewardToken(address token) external onlyGovernance returns (bool) {\n        if (!_rewardTokens.contains(token)) return false;\n        if (!_rewardTokens.remove(token)) return false;\n        emit RemoveRewardToken(token);\n        return true;\n    }\n\n    /**\n     * @notice Set the DEX that should be used for swapping for a specific coin.\n     *         If Uniswap is active, it will switch to SushiSwap and vice versa.\n     * @dev Only SushiSwap and Uniswap are supported.\n     * @param token Address of token for which the DEX should be updated.\n     */\n    function swapDex(address token) external onlyGovernance returns (bool) {\n        UniswapRouter02 currentDex = tokenDex[token];\n        require(address(currentDex) != address(0), Error.NO_DEX_SET);\n        UniswapRouter02 newDex = currentDex == _SUSHISWAP ? _UNISWAP : _SUSHISWAP;\n        _setDex(token, newDex);\n        IERC20(token).safeApprove(address(newDex), 0);\n        IERC20(token).safeApprove(address(newDex), type(uint256).max);\n        emit SwapDex(token, address(newDex));\n        return true;\n    }\n\n    /**\n     * @notice Returns the name of the strategy.\n     * @return The name of the strategy.\n     */\n    function name() external view override returns (string memory) {\n        return \"BkdEthCvx\";\n    }\n\n    /**\n     * @notice Amount of rewards that can be harvested in the underlying.\n     * @dev Includes rewards for CRV & CVX.\n     * @return Estimated amount of underlying available to harvest.\n     */\n    function harvestable() external view override returns (uint256) {\n        uint256 crvAmount_ = rewards.earned(address(this));\n        if (crvAmount_ == 0) return 0;\n        return\n            _underlyingAmountOut(\n                _CRV,\n                crvAmount_.scaledMul(ScaledMath.ONE - crvCommunityReserveShare)\n            ) +\n            _underlyingAmountOut(\n                _CVX,\n                getCvxMintAmount(crvAmount_).scaledMul(ScaledMath.ONE - cvxCommunityReserveShare)\n            );\n    }\n\n    /**\n     * @dev Contract does not stash tokens.\n     */\n    function hasPendingFunds() external pure override returns (bool) {\n        return false;\n    }\n\n    /**\n     * @notice Get the total underlying balance of the strategy.\n     * @dev This includes idle underlying, idle LP and LP deposited on Convex.\n     * @return Underlying balance of strategy.\n     */\n    function balance() public view override returns (uint256) {\n        return _underlyingBalance() + _lpToUnderlying(_stakedBalance() + _lpBalance());\n    }\n\n    /**\n     * @dev Set the dex to use for a token.\n     * @param token Address of token to set the dex for.\n     * @param dex Dex to use for swaps with that token.\n     */\n    function _setDex(address token, UniswapRouter02 dex) internal {\n        tokenDex[token] = dex;\n    }\n\n    /**\n     * @notice Swaps all balance of a token for WETH.\n     * @param token Address of the token to swap for WETH.\n     */\n    function _swapAllForWeth(IERC20 token) internal {\n        uint256 amount = token.balanceOf(address(this));\n        return _swapForWeth(token, amount);\n    }\n\n    /**\n     * @notice Swaps a token for WETH.\n     * @param token Address of the token to swap for WETH.\n     * @param amount Amount of the token to swap for WETH.\n     */\n    function _swapForWeth(IERC20 token, uint256 amount) internal {\n        if (amount == 0) return;\n\n        // Handling CVX Swaps\n        if (token == _CVX) {\n            _CVX_ETH_CURVE_POOL.exchange(\n                _CURVE_CVX_INDEX,\n                _CURVE_ETH_INDEX,\n                amount,\n                amount\n                    .scaledMul(_addressProvider.getOracleProvider().getPriceETH(address(_CVX)))\n                    .scaledMul(slippageTolerance)\n            );\n            return;\n        }\n\n        // Handling other swaps\n        address[] memory path = new address[](2);\n        path[0] = address(token);\n        path[1] = address(_WETH);\n        tokenDex[address(token)].swapExactTokensForTokens(\n            amount,\n            amount\n                .scaledMul(_addressProvider.getOracleProvider().getPriceETH(address(token)))\n                .scaledMul(slippageTolerance),\n            path,\n            address(this),\n            block.timestamp\n        );\n    }\n\n    /**\n     * @notice Swaps all available WETH for underlying.\n     */\n    function _swapWethForUnderlying() internal {\n        uint256 wethBalance = _WETH.balanceOf(address(this));\n        if (wethBalance == 0) return;\n        _WETH.withdraw(wethBalance);\n    }\n\n    /**\n     * @notice Sends a share of the current balance of CRV and CVX to the Community Reserve.\n     */\n    function _sendCommunityReserveShare() internal {\n        address communityReserve_ = communityReserve;\n        if (communityReserve_ == address(0)) return;\n        uint256 cvxCommunityReserveShare_ = cvxCommunityReserveShare;\n        if (cvxCommunityReserveShare_ > 0) {\n            uint256 cvxBalance_ = _CVX.balanceOf(address(this));\n            if (cvxBalance_ > 0) {\n                _CVX.safeTransfer(\n                    communityReserve_,\n                    cvxBalance_.scaledMul(cvxCommunityReserveShare_)\n                );\n            }\n        }\n        uint256 crvCommunityReserveShare_ = crvCommunityReserveShare;\n        if (crvCommunityReserveShare_ > 0) {\n            uint256 crvBalance_ = _CRV.balanceOf(address(this));\n            if (crvBalance_ > 0) {\n                _CRV.safeTransfer(\n                    communityReserve_,\n                    crvBalance_.scaledMul(crvCommunityReserveShare_)\n                );\n            }\n        }\n    }\n\n    /**\n     * @dev Get the balance of the underlying.\n     */\n    function _underlyingBalance() internal view returns (uint256) {\n        return address(this).balance;\n    }\n\n    /**\n     * @dev Get the balance of the lp.\n     */\n    function _lpBalance() internal view returns (uint256) {\n        return lp.balanceOf(address(this));\n    }\n\n    /**\n     * @dev Get the balance of the underlying staked in the Curve pool.\n     */\n    function _stakedBalance() internal view returns (uint256) {\n        return rewards.balanceOf(address(this));\n    }\n\n    /**\n     * @notice Gets the amount of underlying that would be received by selling the token.\n     * @return Underlying amount that would be received.\n     */\n    function _underlyingAmountOut(IERC20 token, uint256 amountIn) internal view returns (uint256) {\n        if (amountIn == 0) return 0;\n        if (token == _CVX) {\n            return _CVX_ETH_CURVE_POOL.get_dy(_CURVE_CVX_INDEX, _CURVE_ETH_INDEX, amountIn);\n        }\n        address[] memory path = new address[](2);\n        path[0] = address(token);\n        path[1] = address(_WETH);\n        return tokenDex[address(token)].getAmountsOut(amountIn, path)[1];\n    }\n\n    /**\n     * @notice Calculates the minimum LP to accept when depositing underlying into Curve Pool.\n     * @param _underlyingAmount Amount of underlying that is being deposited into Curve Pool.\n     * @return The minimum LP balance to accept.\n     */\n    function _minLpAccepted(uint256 _underlyingAmount) internal view returns (uint256) {\n        return _underlyingToLp(_underlyingAmount).scaledMul(ScaledMath.ONE - imbalanceToleranceIn);\n    }\n\n    /**\n     * @notice Calculates the maximum LP to accept burning when withdrawing amount from Curve Pool.\n     * @param _underlyingAmount Amount of underlying that is being widthdrawn from Curve Pool.\n     * @return The maximum LP balance to accept burning.\n     */\n    function _maxLpBurned(uint256 _underlyingAmount) internal view returns (uint256) {\n        return _underlyingToLp(_underlyingAmount).scaledMul(ScaledMath.ONE + imbalanceToleranceOut);\n    }\n\n    /**\n     * @notice Calculates the minimum underlying to accept when burning LP tokens to withdraw from Curve Pool.\n     * @param _lpAmount Amount of LP tokens being burned to withdraw from Curve Pool.\n     * @return The minimum underlying balance to accept.\n     */\n    function _minUnderlyingAccepted(uint256 _lpAmount) internal view returns (uint256) {\n        return _lpToUnderlying(_lpAmount).scaledMul(ScaledMath.ONE - imbalanceToleranceOut);\n    }\n\n    /**\n     * @notice Converts an amount of underlying into their estimated LP value.\n     * @dev Uses get_virtual_price which is less suceptible to manipulation.\n     *  But is also less accurate to how much could be withdrawn.\n     * @param _underlyingAmount Amount of underlying to convert.\n     * @return The estimated value in the LP.\n     */\n    function _underlyingToLp(uint256 _underlyingAmount) internal view returns (uint256) {\n        return _underlyingAmount.scaledDiv(curvePool.get_virtual_price());\n    }\n\n    /**\n     * @notice Converts an amount of LP into their estimated underlying value.\n     * @dev Uses get_virtual_price which is less suceptible to manipulation.\n     *  But is also less accurate to how much could be withdrawn.\n     * @param _lpAmount Amount of LP to convert.\n     * @return The estimated value in the underlying.\n     */\n    function _lpToUnderlying(uint256 _lpAmount) internal view returns (uint256) {\n        return _lpAmount.scaledMul(curvePool.get_virtual_price());\n    }\n}\n","sourcePath":"contracts/strategies/BkdEthCvx.sol","type":"contract","deployment":{"address":"0xD6c08A65669Bf0b6f826521C08Dc8C215730223c","chainid":"1","blockHeight":14391517}}