{
  "address": "0x747B531D31b36c3E2fea1b0adb27e3e5f3136fE8",
  "abi": [
    {
      "inputs": [
        {
          "internalType": "address",
          "name": "_l2Router",
          "type": "address"
        },
        {
          "internalType": "address",
          "name": "_l1Lpt",
          "type": "address"
        },
        {
          "internalType": "address",
          "name": "_l2Lpt",
          "type": "address"
        }
      ],
      "stateMutability": "nonpayable",
      "type": "constructor"
    },
    {
      "anonymous": false,
      "inputs": [
        {
          "indexed": true,
          "internalType": "address",
          "name": "_l1Token",
          "type": "address"
        },
        {
          "indexed": true,
          "internalType": "address",
          "name": "_from",
          "type": "address"
        },
        {
          "indexed": true,
          "internalType": "address",
          "name": "_to",
          "type": "address"
        },
        {
          "indexed": false,
          "internalType": "uint256",
          "name": "_amount",
          "type": "uint256"
        }
      ],
      "name": "DepositFinalized",
      "type": "event"
    },
    {
      "anonymous": false,
      "inputs": [
        {
          "indexed": false,
          "internalType": "address",
          "name": "account",
          "type": "address"
        }
      ],
      "name": "Paused",
      "type": "event"
    },
    {
      "anonymous": false,
      "inputs": [
        {
          "indexed": true,
          "internalType": "bytes32",
          "name": "role",
          "type": "bytes32"
        },
        {
          "indexed": true,
          "internalType": "bytes32",
          "name": "previousAdminRole",
          "type": "bytes32"
        },
        {
          "indexed": true,
          "internalType": "bytes32",
          "name": "newAdminRole",
          "type": "bytes32"
        }
      ],
      "name": "RoleAdminChanged",
      "type": "event"
    },
    {
      "anonymous": false,
      "inputs": [
        {
          "indexed": true,
          "internalType": "bytes32",
          "name": "role",
          "type": "bytes32"
        },
        {
          "indexed": true,
          "internalType": "address",
          "name": "account",
          "type": "address"
        },
        {
          "indexed": true,
          "internalType": "address",
          "name": "sender",
          "type": "address"
        }
      ],
      "name": "RoleGranted",
      "type": "event"
    },
    {
      "anonymous": false,
      "inputs": [
        {
          "indexed": true,
          "internalType": "bytes32",
          "name": "role",
          "type": "bytes32"
        },
        {
          "indexed": true,
          "internalType": "address",
          "name": "account",
          "type": "address"
        },
        {
          "indexed": true,
          "internalType": "address",
          "name": "sender",
          "type": "address"
        }
      ],
      "name": "RoleRevoked",
      "type": "event"
    },
    {
      "anonymous": false,
      "inputs": [
        {
          "indexed": true,
          "internalType": "address",
          "name": "_from",
          "type": "address"
        },
        {
          "indexed": true,
          "internalType": "address",
          "name": "_to",
          "type": "address"
        },
        {
          "indexed": true,
          "internalType": "uint256",
          "name": "_id",
          "type": "uint256"
        },
        {
          "indexed": false,
          "internalType": "bytes",
          "name": "_data",
          "type": "bytes"
        }
      ],
      "name": "TxToL1",
      "type": "event"
    },
    {
      "anonymous": false,
      "inputs": [
        {
          "indexed": false,
          "internalType": "address",
          "name": "account",
          "type": "address"
        }
      ],
      "name": "Unpaused",
      "type": "event"
    },
    {
      "anonymous": false,
      "inputs": [
        {
          "indexed": false,
          "internalType": "address",
          "name": "_l1Token",
          "type": "address"
        },
        {
          "indexed": true,
          "internalType": "address",
          "name": "_from",
          "type": "address"
        },
        {
          "indexed": true,
          "internalType": "address",
          "name": "_to",
          "type": "address"
        },
        {
          "indexed": true,
          "internalType": "uint256",
          "name": "_l2ToL1Id",
          "type": "uint256"
        },
        {
          "indexed": false,
          "internalType": "uint256",
          "name": "_exitNum",
          "type": "uint256"
        },
        {
          "indexed": false,
          "internalType": "uint256",
          "name": "_amount",
          "type": "uint256"
        }
      ],
      "name": "WithdrawalInitiated",
      "type": "event"
    },
    {
      "inputs": [],
      "name": "DEFAULT_ADMIN_ROLE",
      "outputs": [
        {
          "internalType": "bytes32",
          "name": "",
          "type": "bytes32"
        }
      ],
      "stateMutability": "view",
      "type": "function"
    },
    {
      "inputs": [],
      "name": "GOVERNOR_ROLE",
      "outputs": [
        {
          "internalType": "bytes32",
          "name": "",
          "type": "bytes32"
        }
      ],
      "stateMutability": "view",
      "type": "function"
    },
    {
      "inputs": [
        {
          "internalType": "address",
          "name": "l1Token",
          "type": "address"
        }
      ],
      "name": "calculateL2TokenAddress",
      "outputs": [
        {
          "internalType": "address",
          "name": "",
          "type": "address"
        }
      ],
      "stateMutability": "view",
      "type": "function"
    },
    {
      "inputs": [],
      "name": "counterpartGateway",
      "outputs": [
        {
          "internalType": "address",
          "name": "",
          "type": "address"
        }
      ],
      "stateMutability": "view",
      "type": "function"
    },
    {
      "inputs": [
        {
          "internalType": "address",
          "name": "_l1Token",
          "type": "address"
        },
        {
          "internalType": "address",
          "name": "_from",
          "type": "address"
        },
        {
          "internalType": "address",
          "name": "_to",
          "type": "address"
        },
        {
          "internalType": "uint256",
          "name": "_amount",
          "type": "uint256"
        },
        {
          "internalType": "bytes",
          "name": "",
          "type": "bytes"
        }
      ],
      "name": "finalizeInboundTransfer",
      "outputs": [],
      "stateMutability": "nonpayable",
      "type": "function"
    },
    {
      "inputs": [
        {
          "internalType": "address",
          "name": "token",
          "type": "address"
        },
        {
          "internalType": "address",
          "name": "from",
          "type": "address"
        },
        {
          "internalType": "address",
          "name": "to",
          "type": "address"
        },
        {
          "internalType": "uint256",
          "name": "amount",
          "type": "uint256"
        },
        {
          "internalType": "bytes",
          "name": "data",
          "type": "bytes"
        }
      ],
      "name": "getOutboundCalldata",
      "outputs": [
        {
          "internalType": "bytes",
          "name": "outboundCalldata",
          "type": "bytes"
        }
      ],
      "stateMutability": "pure",
      "type": "function"
    },
    {
      "inputs": [
        {
          "internalType": "bytes32",
          "name": "role",
          "type": "bytes32"
        }
      ],
      "name": "getRoleAdmin",
      "outputs": [
        {
          "internalType": "bytes32",
          "name": "",
          "type": "bytes32"
        }
      ],
      "stateMutability": "view",
      "type": "function"
    },
    {
      "inputs": [
        {
          "internalType": "bytes32",
          "name": "role",
          "type": "bytes32"
        },
        {
          "internalType": "address",
          "name": "account",
          "type": "address"
        }
      ],
      "name": "grantRole",
      "outputs": [],
      "stateMutability": "nonpayable",
      "type": "function"
    },
    {
      "inputs": [
        {
          "internalType": "bytes32",
          "name": "role",
          "type": "bytes32"
        },
        {
          "internalType": "address",
          "name": "account",
          "type": "address"
        }
      ],
      "name": "hasRole",
      "outputs": [
        {
          "internalType": "bool",
          "name": "",
          "type": "bool"
        }
      ],
      "stateMutability": "view",
      "type": "function"
    },
    {
      "inputs": [],
      "name": "l1Counterpart",
      "outputs": [
        {
          "internalType": "address",
          "name": "",
          "type": "address"
        }
      ],
      "stateMutability": "view",
      "type": "function"
    },
    {
      "inputs": [],
      "name": "l1Lpt",
      "outputs": [
        {
          "internalType": "address",
          "name": "",
          "type": "address"
        }
      ],
      "stateMutability": "view",
      "type": "function"
    },
    {
      "inputs": [],
      "name": "l2Lpt",
      "outputs": [
        {
          "internalType": "address",
          "name": "",
          "type": "address"
        }
      ],
      "stateMutability": "view",
      "type": "function"
    },
    {
      "inputs": [],
      "name": "l2Router",
      "outputs": [
        {
          "internalType": "address",
          "name": "",
          "type": "address"
        }
      ],
      "stateMutability": "view",
      "type": "function"
    },
    {
      "inputs": [
        {
          "internalType": "address",
          "name": "_l1Token",
          "type": "address"
        },
        {
          "internalType": "address",
          "name": "_to",
          "type": "address"
        },
        {
          "internalType": "uint256",
          "name": "_amount",
          "type": "uint256"
        },
        {
          "internalType": "bytes",
          "name": "_data",
          "type": "bytes"
        }
      ],
      "name": "outboundTransfer",
      "outputs": [
        {
          "internalType": "bytes",
          "name": "res",
          "type": "bytes"
        }
      ],
      "stateMutability": "nonpayable",
      "type": "function"
    },
    {
      "inputs": [],
      "name": "pause",
      "outputs": [],
      "stateMutability": "nonpayable",
      "type": "function"
    },
    {
      "inputs": [],
      "name": "paused",
      "outputs": [
        {
          "internalType": "bool",
          "name": "",
          "type": "bool"
        }
      ],
      "stateMutability": "view",
      "type": "function"
    },
    {
      "inputs": [
        {
          "internalType": "bytes32",
          "name": "role",
          "type": "bytes32"
        },
        {
          "internalType": "address",
          "name": "account",
          "type": "address"
        }
      ],
      "name": "renounceRole",
      "outputs": [],
      "stateMutability": "nonpayable",
      "type": "function"
    },
    {
      "inputs": [
        {
          "internalType": "bytes32",
          "name": "role",
          "type": "bytes32"
        },
        {
          "internalType": "address",
          "name": "account",
          "type": "address"
        }
      ],
      "name": "revokeRole",
      "outputs": [],
      "stateMutability": "nonpayable",
      "type": "function"
    },
    {
      "inputs": [
        {
          "internalType": "address",
          "name": "_l1Counterpart",
          "type": "address"
        }
      ],
      "name": "setCounterpart",
      "outputs": [],
      "stateMutability": "nonpayable",
      "type": "function"
    },
    {
      "inputs": [
        {
          "internalType": "bytes4",
          "name": "interfaceId",
          "type": "bytes4"
        }
      ],
      "name": "supportsInterface",
      "outputs": [
        {
          "internalType": "bool",
          "name": "",
          "type": "bool"
        }
      ],
      "stateMutability": "view",
      "type": "function"
    },
    {
      "inputs": [],
      "name": "unpause",
      "outputs": [],
      "stateMutability": "nonpayable",
      "type": "function"
    }
  ],
  "transactionHash": "0x93d5612bf165dd10da982bff033ea4d3a647dd53a91dfb32239d2f7c1c4241cc",
  "args": [
    "0x9413AD42910c1eA60c737dB5f58d1C504498a3cD",
    "0x148D9a919977B392E3a3c309Aa23481e68D2e502",
    "0x663D000d6d6B61580fc23ef9d23Ea43D2850af40"
  ],
  "solcInputHash": "32fd9971ac458e296f813f74fd73c046",
  "bytecode": "0x60e06040523480156200001157600080fd5b5060405162002a5038038062002a5083398181016040528101906200003791906200036f565b81816000600160006101000a81548160ff021916908315150217905550620000786000801b6200006c6200015d60201b60201c565b6200016560201b60201c565b620000ad7f7935bd0ae54bc31f548c14dba4d37c5c64b3f8ca900cb468fb8abd54d5894f556000801b6200017b60201b60201c565b8173ffffffffffffffffffffffffffffffffffffffff1660808173ffffffffffffffffffffffffffffffffffffffff1660601b815250508073ffffffffffffffffffffffffffffffffffffffff1660a08173ffffffffffffffffffffffffffffffffffffffff1660601b8152505050508273ffffffffffffffffffffffffffffffffffffffff1660c08173ffffffffffffffffffffffffffffffffffffffff1660601b8152505050505062000413565b600033905090565b620001778282620001de60201b60201c565b5050565b60006200018e83620002cf60201b60201c565b905081600080858152602001908152602001600020600101819055508181847fbd79b86ffe0ab8e8776151514217cd7cacd52c909f66475c3af44e129f0b00ff60405160405180910390a4505050565b620001f08282620002ee60201b60201c565b620002cb57600160008084815260200190815260200160002060000160008373ffffffffffffffffffffffffffffffffffffffff1673ffffffffffffffffffffffffffffffffffffffff16815260200190815260200160002060006101000a81548160ff021916908315150217905550620002706200015d60201b60201c565b73ffffffffffffffffffffffffffffffffffffffff168173ffffffffffffffffffffffffffffffffffffffff16837f2f8788117e7eff1d82e926ec794901d17c78024a50270940304540a733656f0d60405160405180910390a45b5050565b6000806000838152602001908152602001600020600101549050919050565b600080600084815260200190815260200160002060000160008373ffffffffffffffffffffffffffffffffffffffff1673ffffffffffffffffffffffffffffffffffffffff16815260200190815260200160002060009054906101000a900460ff16905092915050565b6000815190506200036981620003f9565b92915050565b6000806000606084860312156200038557600080fd5b6000620003958682870162000358565b9350506020620003a88682870162000358565b9250506040620003bb8682870162000358565b9150509250925092565b6000620003d282620003d9565b9050919050565b600073ffffffffffffffffffffffffffffffffffffffff82169050919050565b6200040481620003c5565b81146200041057600080fd5b50565b60805160601c60a05160601c60c05160601c6125d36200047d600039600081816107f3015261118b0152600081816105f801528181610a1401528181610c1c0152610d520152600081816104680152818161056a015281816108ee0152610cf601526125d36000f3fe608060405234801561001057600080fd5b50600436106101375760003560e01c806377061e4d116100b8578063a0c76a961161007c578063a0c76a9614610316578063a217fddf14610346578063a7e28d4814610364578063c4c0087c14610394578063ccc57490146103b2578063d547741f146103d057610137565b806377061e4d146102725780637b3a3c8b1461028e5780638456cb59146102be57806391d14854146102c85780639d79bdb5146102f857610137565b80632f2ff15d116100ff5780632f2ff15d146101f457806336568abe146102105780633f4ba83a1461022c5780634adc698a146102365780635c975abb1461025457610137565b806301ffc9a71461013c578063072566771461016c578063248a9ca31461018a5780632db09c1c146101ba5780632e567b36146101d8575b600080fd5b61015660048036038101906101519190611ac5565b6103ec565b6040516101639190611e8e565b60405180910390f35b610174610466565b6040516101819190611d89565b60405180910390f35b6101a4600480360381019061019f9190611a60565b61048a565b6040516101b19190611ea9565b60405180910390f35b6101c26104a9565b6040516101cf9190611d89565b60405180910390f35b6101f260048036038101906101ed91906118bf565b6104d1565b005b61020e60048036038101906102099190611a89565b610708565b005b61022a60048036038101906102259190611a89565b610731565b005b6102346107b4565b005b61023e6107f1565b60405161024b9190611d89565b60405180910390f35b61025c610815565b6040516102699190611e8e565b60405180910390f35b61028c60048036038101906102879190611842565b61082c565b005b6102a860048036038101906102a391906119e0565b6108a2565b6040516102b59190611ec4565b60405180910390f35b6102c6610b73565b005b6102e260048036038101906102dd9190611a89565b610bb0565b6040516102ef9190611e8e565b60405180910390f35b610300610c1a565b60405161030d9190611d89565b60405180910390f35b610330600480360381019061032b9190611951565b610c3e565b60405161033d9190611ec4565b60405180910390f35b61034e610ceb565b60405161035b9190611ea9565b60405180910390f35b61037e60048036038101906103799190611842565b610cf2565b60405161038b9190611d89565b60405180910390f35b61039c610d79565b6040516103a99190611d89565b60405180910390f35b6103ba610d9d565b6040516103c79190611ea9565b60405180910390f35b6103ea60048036038101906103e59190611a89565b610dc1565b005b60007f7965db0b000000000000000000000000000000000000000000000000000000007bffffffffffffffffffffffffffffffffffffffffffffffffffffffff1916827bffffffffffffffffffffffffffffffffffffffffffffffffffffffff1916148061045f575061045e82610dea565b5b9050919050565b7f000000000000000000000000000000000000000000000000000000000000000081565b6000806000838152602001908152602001600020600101549050919050565b600060018054906101000a900473ffffffffffffffffffffffffffffffffffffffff16905090565b60018054906101000a900473ffffffffffffffffffffffffffffffffffffffff166104fb81610e54565b73ffffffffffffffffffffffffffffffffffffffff163373ffffffffffffffffffffffffffffffffffffffff1614610568576040517f08c379a000000000000000000000000000000000000000000000000000000000815260040161055f90611fd8565b60405180910390fd5b7f000000000000000000000000000000000000000000000000000000000000000073ffffffffffffffffffffffffffffffffffffffff168773ffffffffffffffffffffffffffffffffffffffff16146105f6576040517f08c379a00000000000000000000000000000000000000000000000000000000081526004016105ed90611f78565b60405180910390fd5b7f000000000000000000000000000000000000000000000000000000000000000073ffffffffffffffffffffffffffffffffffffffff166340c10f1986866040518363ffffffff1660e01b8152600401610651929190611e65565b600060405180830381600087803b15801561066b57600080fd5b505af115801561067f573d6000803e3d6000fd5b505050508473ffffffffffffffffffffffffffffffffffffffff168673ffffffffffffffffffffffffffffffffffffffff168873ffffffffffffffffffffffffffffffffffffffff167fc7f2e9c55c40a50fbc217dfc70cd39a222940dfa62145aa0ca49eb9535d4fcb2876040516106f79190612018565b60405180910390a450505050505050565b6107118261048a565b6107228161071d610e7d565b610e85565b61072c8383610f22565b505050565b610739610e7d565b73ffffffffffffffffffffffffffffffffffffffff168173ffffffffffffffffffffffffffffffffffffffff16146107a6576040517f08c379a000000000000000000000000000000000000000000000000000000000815260040161079d90611ff8565b60405180910390fd5b6107b08282611002565b5050565b7f7935bd0ae54bc31f548c14dba4d37c5c64b3f8ca900cb468fb8abd54d5894f556107e6816107e1610e7d565b610e85565b6107ee6110e3565b50565b7f000000000000000000000000000000000000000000000000000000000000000081565b6000600160009054906101000a900460ff16905090565b7f7935bd0ae54bc31f548c14dba4d37c5c64b3f8ca900cb468fb8abd54d5894f5561085e81610859610e7d565b610e85565b816001806101000a81548173ffffffffffffffffffffffffffffffffffffffff021916908373ffffffffffffffffffffffffffffffffffffffff1602179055505050565b60606108ac610815565b156108ec576040517f08c379a00000000000000000000000000000000000000000000000000000000081526004016108e390611f98565b60405180910390fd5b7f000000000000000000000000000000000000000000000000000000000000000073ffffffffffffffffffffffffffffffffffffffff168673ffffffffffffffffffffffffffffffffffffffff161461097a576040517f08c379a000000000000000000000000000000000000000000000000000000000815260040161097190611f78565b60405180910390fd5b6000806109ca85858080601f016020809104026020016040519081016040528093929190818152602001838380828437600081840152601f19601f82011690508083019250505050505050611185565b915091506000815114610a12576040517f08c379a0000000000000000000000000000000000000000000000000000000008152600401610a0990611fb8565b60405180910390fd5b7f000000000000000000000000000000000000000000000000000000000000000073ffffffffffffffffffffffffffffffffffffffff16639dc29fac83886040518363ffffffff1660e01b8152600401610a6d929190611e65565b600060405180830381600087803b158015610a8757600080fd5b505af1158015610a9b573d6000803e3d6000fd5b505050506000610ad88360018054906101000a900473ffffffffffffffffffffffffffffffffffffffff16610ad38c878d8d89610c3e565b61120a565b9050808873ffffffffffffffffffffffffffffffffffffffff168473ffffffffffffffffffffffffffffffffffffffff167f3073a74ecb728d10be779fe19a74a1428e20468f5b4d167bf9c73d9067847d738c60008c604051610b3d93929190611e2e565b60405180910390a480604051602001610b569190612018565b604051602081830303815290604052935050505095945050505050565b7f7935bd0ae54bc31f548c14dba4d37c5c64b3f8ca900cb468fb8abd54d5894f55610ba581610ba0610e7d565b610e85565b610bad61130e565b50565b600080600084815260200190815260200160002060000160008373ffffffffffffffffffffffffffffffffffffffff1673ffffffffffffffffffffffffffffffffffffffff16815260200190815260200160002060009054906101000a900460ff16905092915050565b7f000000000000000000000000000000000000000000000000000000000000000081565b6060632e567b3660e01b86868686600087604051602001610c60929190611ee6565b604051602081830303815290604052604051602401610c83959493929190611da4565b604051602081830303815290604052907bffffffffffffffffffffffffffffffffffffffffffffffffffffffff19166020820180517bffffffffffffffffffffffffffffffffffffffffffffffffffffffff8381831617835250505050905095945050505050565b6000801b81565b60007f000000000000000000000000000000000000000000000000000000000000000073ffffffffffffffffffffffffffffffffffffffff168273ffffffffffffffffffffffffffffffffffffffff1614610d505760009050610d74565b7f000000000000000000000000000000000000000000000000000000000000000090505b919050565b60018054906101000a900473ffffffffffffffffffffffffffffffffffffffff1681565b7f7935bd0ae54bc31f548c14dba4d37c5c64b3f8ca900cb468fb8abd54d5894f5581565b610dca8261048a565b610ddb81610dd6610e7d565b610e85565b610de58383611002565b505050565b60007f01ffc9a7000000000000000000000000000000000000000000000000000000007bffffffffffffffffffffffffffffffffffffffffffffffffffffffff1916827bffffffffffffffffffffffffffffffffffffffffffffffffffffffff1916149050919050565b600073111100000000000000000000000000000000111182610e7691906120cc565b9050919050565b600033905090565b610e8f8282610bb0565b610f1e57610eb48173ffffffffffffffffffffffffffffffffffffffff1660146113b0565b610ec28360001c60206113b0565b604051602001610ed3929190611d4f565b6040516020818303038152906040526040517f08c379a0000000000000000000000000000000000000000000000000000000008152600401610f159190611f16565b60405180910390fd5b5050565b610f2c8282610bb0565b610ffe57600160008084815260200190815260200160002060000160008373ffffffffffffffffffffffffffffffffffffffff1673ffffffffffffffffffffffffffffffffffffffff16815260200190815260200160002060006101000a81548160ff021916908315150217905550610fa3610e7d565b73ffffffffffffffffffffffffffffffffffffffff168173ffffffffffffffffffffffffffffffffffffffff16837f2f8788117e7eff1d82e926ec794901d17c78024a50270940304540a733656f0d60405160405180910390a45b5050565b61100c8282610bb0565b156110df57600080600084815260200190815260200160002060000160008373ffffffffffffffffffffffffffffffffffffffff1673ffffffffffffffffffffffffffffffffffffffff16815260200190815260200160002060006101000a81548160ff021916908315150217905550611084610e7d565b73ffffffffffffffffffffffffffffffffffffffff168173ffffffffffffffffffffffffffffffffffffffff16837ff6391f5c32d9c69d2a47ea670b442974b53935d1edc7fd64eb21e047a839171b60405160405180910390a45b5050565b6110eb610815565b61112a576040517f08c379a000000000000000000000000000000000000000000000000000000000815260040161112190611f58565b60405180910390fd5b6000600160006101000a81548160ff0219169083151502179055507f5db9ee0a495bf2e6ff9c91a7834c1ba4fdd244a5e8aa4e537bd38aeae4b073aa61116e610e7d565b60405161117b9190611d89565b60405180910390a1565b600060607f000000000000000000000000000000000000000000000000000000000000000073ffffffffffffffffffffffffffffffffffffffff163373ffffffffffffffffffffffffffffffffffffffff1614156111fe57828060200190518101906111f1919061186b565b8092508193505050611205565b3391508290505b915091565b600080606473ffffffffffffffffffffffffffffffffffffffff1663928c169a85856040518363ffffffff1660e01b8152600401611249929190611dfe565b602060405180830381600087803b15801561126357600080fd5b505af1158015611277573d6000803e3d6000fd5b505050506040513d601f19601f8201168201806040525081019061129b9190611aee565b9050808473ffffffffffffffffffffffffffffffffffffffff168673ffffffffffffffffffffffffffffffffffffffff167f2b986d32a0536b7e19baa48ab949fec7b903b7fad7730820b20632d100cc3a68866040516112fb9190611ec4565b60405180910390a4809150509392505050565b611316610815565b15611356576040517f08c379a000000000000000000000000000000000000000000000000000000000815260040161134d90611f98565b60405180910390fd5b60018060006101000a81548160ff0219169083151502179055507f62e78cea01bee320cd4e420270b5ea74000d11b0c9f74754ebdbfc544b05a258611399610e7d565b6040516113a69190611d89565b60405180910390a1565b6060600060028360026113c3919061216c565b6113cd9190612116565b67ffffffffffffffff81111561140c577f4e487b7100000000000000000000000000000000000000000000000000000000600052604160045260246000fd5b6040519080825280601f01601f19166020018201604052801561143e5781602001600182028036833780820191505090505b5090507f30000000000000000000000000000000000000000000000000000000000000008160008151811061149c577f4e487b7100000000000000000000000000000000000000000000000000000000600052603260045260246000fd5b60200101907effffffffffffffffffffffffffffffffffffffffffffffffffffffffffffff1916908160001a9053507f780000000000000000000000000000000000000000000000000000000000000081600181518110611526577f4e487b7100000000000000000000000000000000000000000000000000000000600052603260045260246000fd5b60200101907effffffffffffffffffffffffffffffffffffffffffffffffffffffffffffff1916908160001a90535060006001846002611566919061216c565b6115709190612116565b90505b600181111561165c577f3031323334353637383961626364656600000000000000000000000000000000600f8616601081106115d8577f4e487b7100000000000000000000000000000000000000000000000000000000600052603260045260246000fd5b1a60f81b828281518110611615577f4e487b7100000000000000000000000000000000000000000000000000000000600052603260045260246000fd5b60200101907effffffffffffffffffffffffffffffffffffffffffffffffffffffffffffff1916908160001a905350600485901c945080611655906122c9565b9050611573565b50600084146116a0576040517f08c379a000000000000000000000000000000000000000000000000000000000815260040161169790611f38565b60405180910390fd5b8091505092915050565b60006116bd6116b884612058565b612033565b9050828152602081018484840111156116d557600080fd5b6116e0848285612287565b509392505050565b60006116fb6116f684612058565b612033565b90508281526020810184848401111561171357600080fd5b61171e848285612296565b509392505050565b6000813590506117358161252a565b92915050565b60008151905061174a81612541565b92915050565b60008135905061175f81612558565b92915050565b6000813590506117748161256f565b92915050565b60008083601f84011261178c57600080fd5b8235905067ffffffffffffffff8111156117a557600080fd5b6020830191508360018202830111156117bd57600080fd5b9250929050565b600082601f8301126117d557600080fd5b81356117e58482602086016116aa565b91505092915050565b600082601f8301126117ff57600080fd5b815161180f8482602086016116e8565b91505092915050565b60008135905061182781612586565b92915050565b60008151905061183c81612586565b92915050565b60006020828403121561185457600080fd5b600061186284828501611726565b91505092915050565b6000806040838503121561187e57600080fd5b600061188c8582860161173b565b925050602083015167ffffffffffffffff8111156118a957600080fd5b6118b5858286016117ee565b9150509250929050565b60008060008060008060a087890312156118d857600080fd5b60006118e689828a01611726565b96505060206118f789828a01611726565b955050604061190889828a01611726565b945050606061191989828a01611818565b935050608087013567ffffffffffffffff81111561193657600080fd5b61194289828a0161177a565b92509250509295509295509295565b600080600080600060a0868803121561196957600080fd5b600061197788828901611726565b955050602061198888828901611726565b945050604061199988828901611726565b93505060606119aa88828901611818565b925050608086013567ffffffffffffffff8111156119c757600080fd5b6119d3888289016117c4565b9150509295509295909350565b6000806000806000608086880312156119f857600080fd5b6000611a0688828901611726565b9550506020611a1788828901611726565b9450506040611a2888828901611818565b935050606086013567ffffffffffffffff811115611a4557600080fd5b611a518882890161177a565b92509250509295509295909350565b600060208284031215611a7257600080fd5b6000611a8084828501611750565b91505092915050565b60008060408385031215611a9c57600080fd5b6000611aaa85828601611750565b9250506020611abb85828601611726565b9150509250929050565b600060208284031215611ad757600080fd5b6000611ae584828501611765565b91505092915050565b600060208284031215611b0057600080fd5b6000611b0e8482850161182d565b91505092915050565b611b20816121c6565b82525050565b611b2f816121ea565b82525050565b611b3e816121f6565b82525050565b6000611b4f82612089565b611b59818561209f565b9350611b69818560208601612296565b611b7281612382565b840191505092915050565b611b8681612263565b82525050565b611b9581612275565b82525050565b6000611ba682612094565b611bb081856120b0565b9350611bc0818560208601612296565b611bc981612382565b840191505092915050565b6000611bdf82612094565b611be981856120c1565b9350611bf9818560208601612296565b80840191505092915050565b6000611c126020836120b0565b9150611c1d82612393565b602082019050919050565b6000611c356014836120b0565b9150611c40826123bc565b602082019050919050565b6000611c58600d836120b0565b9150611c63826123e5565b602082019050919050565b6000611c7b6010836120b0565b9150611c868261240e565b602082019050919050565b6000611c9e601a836120b0565b9150611ca982612437565b602082019050919050565b6000611cc16017836120c1565b9150611ccc82612460565b601782019050919050565b6000611ce46018836120b0565b9150611cef82612489565b602082019050919050565b6000611d076011836120c1565b9150611d12826124b2565b601182019050919050565b6000611d2a602f836120b0565b9150611d35826124db565b604082019050919050565b611d498161224c565b82525050565b6000611d5a82611cb4565b9150611d668285611bd4565b9150611d7182611cfa565b9150611d7d8284611bd4565b91508190509392505050565b6000602082019050611d9e6000830184611b17565b92915050565b600060a082019050611db96000830188611b17565b611dc66020830187611b17565b611dd36040830186611b17565b611de06060830185611d40565b8181036080830152611df28184611b44565b90509695505050505050565b6000604082019050611e136000830185611b17565b8181036020830152611e258184611b44565b90509392505050565b6000606082019050611e436000830186611b17565b611e506020830185611b7d565b611e5d6040830184611d40565b949350505050565b6000604082019050611e7a6000830185611b17565b611e876020830184611d40565b9392505050565b6000602082019050611ea36000830184611b26565b92915050565b6000602082019050611ebe6000830184611b35565b92915050565b60006020820190508181036000830152611ede8184611b44565b905092915050565b6000604082019050611efb6000830185611b8c565b8181036020830152611f0d8184611b44565b90509392505050565b60006020820190508181036000830152611f308184611b9b565b905092915050565b60006020820190508181036000830152611f5181611c05565b9050919050565b60006020820190508181036000830152611f7181611c28565b9050919050565b60006020820190508181036000830152611f9181611c4b565b9050919050565b60006020820190508181036000830152611fb181611c6e565b9050919050565b60006020820190508181036000830152611fd181611c91565b9050919050565b60006020820190508181036000830152611ff181611cd7565b9050919050565b6000602082019050818103600083015261201181611d1d565b9050919050565b600060208201905061202d6000830184611d40565b92915050565b600061203d61204e565b905061204982826122f3565b919050565b6000604051905090565b600067ffffffffffffffff82111561207357612072612353565b5b61207c82612382565b9050602081019050919050565b600081519050919050565b600081519050919050565b600082825260208201905092915050565b600082825260208201905092915050565b600081905092915050565b60006120d78261222c565b91506120e28361222c565b92508273ffffffffffffffffffffffffffffffffffffffff0382111561210b5761210a612324565b5b828201905092915050565b60006121218261224c565b915061212c8361224c565b9250827fffffffffffffffffffffffffffffffffffffffffffffffffffffffffffffffff0382111561216157612160612324565b5b828201905092915050565b60006121778261224c565b91506121828361224c565b9250817fffffffffffffffffffffffffffffffffffffffffffffffffffffffffffffffff04831182151516156121bb576121ba612324565b5b828202905092915050565b60006121d18261222c565b9050919050565b60006121e38261222c565b9050919050565b60008115159050919050565b6000819050919050565b60007fffffffff0000000000000000000000000000000000000000000000000000000082169050919050565b600073ffffffffffffffffffffffffffffffffffffffff82169050919050565b6000819050919050565b600060ff82169050919050565b600061226e8261224c565b9050919050565b600061228082612256565b9050919050565b82818337600083830152505050565b60005b838110156122b4578082015181840152602081019050612299565b838111156122c3576000848401525b50505050565b60006122d48261224c565b915060008214156122e8576122e7612324565b5b600182039050919050565b6122fc82612382565b810181811067ffffffffffffffff8211171561231b5761231a612353565b5b80604052505050565b7f4e487b7100000000000000000000000000000000000000000000000000000000600052601160045260246000fd5b7f4e487b7100000000000000000000000000000000000000000000000000000000600052604160045260246000fd5b6000601f19601f8301169050919050565b7f537472696e67733a20686578206c656e67746820696e73756666696369656e74600082015250565b7f5061757361626c653a206e6f7420706175736564000000000000000000000000600082015250565b7f544f4b454e5f4e4f545f4c505400000000000000000000000000000000000000600082015250565b7f5061757361626c653a2070617573656400000000000000000000000000000000600082015250565b7f43414c4c5f484f4f4b5f444154415f4e4f545f414c4c4f574544000000000000600082015250565b7f416363657373436f6e74726f6c3a206163636f756e7420000000000000000000600082015250565b7f4f4e4c595f434f554e544552504152545f474154455741590000000000000000600082015250565b7f206973206d697373696e6720726f6c6520000000000000000000000000000000600082015250565b7f416363657373436f6e74726f6c3a2063616e206f6e6c792072656e6f756e636560008201527f20726f6c657320666f722073656c660000000000000000000000000000000000602082015250565b612533816121c6565b811461253e57600080fd5b50565b61254a816121d8565b811461255557600080fd5b50565b612561816121f6565b811461256c57600080fd5b50565b61257881612200565b811461258357600080fd5b50565b61258f8161224c565b811461259a57600080fd5b5056fea2646970667358221220a7514eff325aede423e16e52d8dd8e4738d6a25dc4bbcedc53e6327b9e2530d164736f6c63430008040033",
  "devdoc": {
    "kind": "dev",
    "methods": {
      "getRoleAdmin(bytes32)": {
        "details": "Returns the admin role that controls `role`. See {grantRole} and {revokeRole}. To change a role's admin, use {_setRoleAdmin}."
      },
      "grantRole(bytes32,address)": {
        "details": "Grants `role` to `account`. If `account` had not been already granted `role`, emits a {RoleGranted} event. Requirements: - the caller must have ``role``'s admin role."
      },
      "hasRole(bytes32,address)": {
        "details": "Returns `true` if `account` has been granted `role`."
      },
      "paused()": {
        "details": "Returns true if the contract is paused, and false otherwise."
      },
      "renounceRole(bytes32,address)": {
        "details": "Revokes `role` from the calling account. Roles are often managed via {grantRole} and {revokeRole}: this function's purpose is to provide a mechanism for accounts to lose their privileges if they are compromised (such as when a trusted device is misplaced). If the calling account had been granted `role`, emits a {RoleRevoked} event. Requirements: - the caller must be `account`."
      },
      "revokeRole(bytes32,address)": {
        "details": "Revokes `role` from `account`. If `account` had been granted `role`, emits a {RoleRevoked} event. Requirements: - the caller must have ``role``'s admin role."
      },
      "supportsInterface(bytes4)": {
        "details": "See {IERC165-supportsInterface}."
      }
    },
    "version": 1
  },
  "userdoc": {
    "kind": "user",
    "methods": {},
    "version": 1
  },
  "storageLayout": {
    "storage": [
      {
        "astId": 24,
        "contract": "contracts/L2/gateway/L2LPTGateway.sol:L2LPTGateway",
        "label": "_roles",
        "offset": 0,
        "slot": "0",
        "type": "t_mapping(t_bytes32,t_struct(RoleData)19_storage)"
      },
      {
        "astId": 397,
        "contract": "contracts/L2/gateway/L2LPTGateway.sol:L2LPTGateway",
        "label": "_paused",
        "offset": 0,
        "slot": "1",
        "type": "t_bool"
      },
      {
        "astId": 3657,
        "contract": "contracts/L2/gateway/L2LPTGateway.sol:L2LPTGateway",
        "label": "l1Counterpart",
        "offset": 1,
        "slot": "1",
        "type": "t_address"
      }
    ],
    "types": {
      "t_address": {
        "encoding": "inplace",
        "label": "address",
        "numberOfBytes": "20"
      },
      "t_bool": {
        "encoding": "inplace",
        "label": "bool",
        "numberOfBytes": "1"
      },
      "t_bytes32": {
        "encoding": "inplace",
        "label": "bytes32",
        "numberOfBytes": "32"
      },
      "t_mapping(t_address,t_bool)": {
        "encoding": "mapping",
        "key": "t_address",
        "label": "mapping(address => bool)",
        "numberOfBytes": "32",
        "value": "t_bool"
      },
      "t_mapping(t_bytes32,t_struct(RoleData)19_storage)": {
        "encoding": "mapping",
        "key": "t_bytes32",
        "label": "mapping(bytes32 => struct AccessControl.RoleData)",
        "numberOfBytes": "32",
        "value": "t_struct(RoleData)19_storage"
      },
      "t_struct(RoleData)19_storage": {
        "encoding": "inplace",
        "label": "struct AccessControl.RoleData",
        "members": [
          {
            "astId": 16,
            "contract": "contracts/L2/gateway/L2LPTGateway.sol:L2LPTGateway",
            "label": "members",
            "offset": 0,
            "slot": "0",
            "type": "t_mapping(t_address,t_bool)"
          },
          {
            "astId": 18,
            "contract": "contracts/L2/gateway/L2LPTGateway.sol:L2LPTGateway",
            "label": "adminRole",
            "offset": 0,
            "slot": "1",
            "type": "t_bytes32"
          }
        ],
        "numberOfBytes": "64"
      }
    }
  }
}