{
  "address": "0x663D000d6d6B61580fc23ef9d23Ea43D2850af40",
  "abi": [
    {
      "inputs": [],
      "stateMutability": "nonpayable",
      "type": "constructor"
    },
    {
      "anonymous": false,
      "inputs": [
        {
          "indexed": true,
          "internalType": "address",
          "name": "owner",
          "type": "address"
        },
        {
          "indexed": true,
          "internalType": "address",
          "name": "spender",
          "type": "address"
        },
        {
          "indexed": false,
          "internalType": "uint256",
          "name": "value",
          "type": "uint256"
        }
      ],
      "name": "Approval",
      "type": "event"
    },
    {
      "anonymous": false,
      "inputs": [
        {
          "indexed": true,
          "internalType": "address",
          "name": "burner",
          "type": "address"
        },
        {
          "indexed": false,
          "internalType": "uint256",
          "name": "amount",
          "type": "uint256"
        }
      ],
      "name": "Burn",
      "type": "event"
    },
    {
      "anonymous": false,
      "inputs": [
        {
          "indexed": true,
          "internalType": "address",
          "name": "to",
          "type": "address"
        },
        {
          "indexed": false,
          "internalType": "uint256",
          "name": "amount",
          "type": "uint256"
        }
      ],
      "name": "Mint",
      "type": "event"
    },
    {
      "anonymous": false,
      "inputs": [
        {
          "indexed": true,
          "internalType": "bytes32",
          "name": "role",
          "type": "bytes32"
        },
        {
          "indexed": true,
          "internalType": "bytes32",
          "name": "previousAdminRole",
          "type": "bytes32"
        },
        {
          "indexed": true,
          "internalType": "bytes32",
          "name": "newAdminRole",
          "type": "bytes32"
        }
      ],
      "name": "RoleAdminChanged",
      "type": "event"
    },
    {
      "anonymous": false,
      "inputs": [
        {
          "indexed": true,
          "internalType": "bytes32",
          "name": "role",
          "type": "bytes32"
        },
        {
          "indexed": true,
          "internalType": "address",
          "name": "account",
          "type": "address"
        },
        {
          "indexed": true,
          "internalType": "address",
          "name": "sender",
          "type": "address"
        }
      ],
      "name": "RoleGranted",
      "type": "event"
    },
    {
      "anonymous": false,
      "inputs": [
        {
          "indexed": true,
          "internalType": "bytes32",
          "name": "role",
          "type": "bytes32"
        },
        {
          "indexed": true,
          "internalType": "address",
          "name": "account",
          "type": "address"
        },
        {
          "indexed": true,
          "internalType": "address",
          "name": "sender",
          "type": "address"
        }
      ],
      "name": "RoleRevoked",
      "type": "event"
    },
    {
      "anonymous": false,
      "inputs": [
        {
          "indexed": true,
          "internalType": "address",
          "name": "from",
          "type": "address"
        },
        {
          "indexed": true,
          "internalType": "address",
          "name": "to",
          "type": "address"
        },
        {
          "indexed": false,
          "internalType": "uint256",
          "name": "value",
          "type": "uint256"
        }
      ],
      "name": "Transfer",
      "type": "event"
    },
    {
      "inputs": [],
      "name": "DEFAULT_ADMIN_ROLE",
      "outputs": [
        {
          "internalType": "bytes32",
          "name": "",
          "type": "bytes32"
        }
      ],
      "stateMutability": "view",
      "type": "function"
    },
    {
      "inputs": [],
      "name": "DOMAIN_SEPARATOR",
      "outputs": [
        {
          "internalType": "bytes32",
          "name": "",
          "type": "bytes32"
        }
      ],
      "stateMutability": "view",
      "type": "function"
    },
    {
      "inputs": [],
      "name": "MINTER_ROLE",
      "outputs": [
        {
          "internalType": "bytes32",
          "name": "",
          "type": "bytes32"
        }
      ],
      "stateMutability": "view",
      "type": "function"
    },
    {
      "inputs": [
        {
          "internalType": "address",
          "name": "owner",
          "type": "address"
        },
        {
          "internalType": "address",
          "name": "spender",
          "type": "address"
        }
      ],
      "name": "allowance",
      "outputs": [
        {
          "internalType": "uint256",
          "name": "",
          "type": "uint256"
        }
      ],
      "stateMutability": "view",
      "type": "function"
    },
    {
      "inputs": [
        {
          "internalType": "address",
          "name": "spender",
          "type": "address"
        },
        {
          "internalType": "uint256",
          "name": "amount",
          "type": "uint256"
        }
      ],
      "name": "approve",
      "outputs": [
        {
          "internalType": "bool",
          "name": "",
          "type": "bool"
        }
      ],
      "stateMutability": "nonpayable",
      "type": "function"
    },
    {
      "inputs": [
        {
          "internalType": "address",
          "name": "account",
          "type": "address"
        }
      ],
      "name": "balanceOf",
      "outputs": [
        {
          "internalType": "uint256",
          "name": "",
          "type": "uint256"
        }
      ],
      "stateMutability": "view",
      "type": "function"
    },
    {
      "inputs": [
        {
          "internalType": "uint256",
          "name": "_amount",
          "type": "uint256"
        }
      ],
      "name": "burn",
      "outputs": [],
      "stateMutability": "nonpayable",
      "type": "function"
    },
    {
      "inputs": [],
      "name": "decimals",
      "outputs": [
        {
          "internalType": "uint8",
          "name": "",
          "type": "uint8"
        }
      ],
      "stateMutability": "view",
      "type": "function"
    },
    {
      "inputs": [
        {
          "internalType": "address",
          "name": "spender",
          "type": "address"
        },
        {
          "internalType": "uint256",
          "name": "subtractedValue",
          "type": "uint256"
        }
      ],
      "name": "decreaseAllowance",
      "outputs": [
        {
          "internalType": "bool",
          "name": "",
          "type": "bool"
        }
      ],
      "stateMutability": "nonpayable",
      "type": "function"
    },
    {
      "inputs": [
        {
          "internalType": "address",
          "name": "_from",
          "type": "address"
        },
        {
          "internalType": "uint256",
          "name": "_amount",
          "type": "uint256"
        }
      ],
      "name": "gatewayBurn",
      "outputs": [],
      "stateMutability": "nonpayable",
      "type": "function"
    },
    {
      "inputs": [
        {
          "internalType": "bytes32",
          "name": "role",
          "type": "bytes32"
        }
      ],
      "name": "getRoleAdmin",
      "outputs": [
        {
          "internalType": "bytes32",
          "name": "",
          "type": "bytes32"
        }
      ],
      "stateMutability": "view",
      "type": "function"
    },
    {
      "inputs": [
        {
          "internalType": "bytes32",
          "name": "role",
          "type": "bytes32"
        },
        {
          "internalType": "address",
          "name": "account",
          "type": "address"
        }
      ],
      "name": "grantRole",
      "outputs": [],
      "stateMutability": "nonpayable",
      "type": "function"
    },
    {
      "inputs": [
        {
          "internalType": "bytes32",
          "name": "role",
          "type": "bytes32"
        },
        {
          "internalType": "address",
          "name": "account",
          "type": "address"
        }
      ],
      "name": "hasRole",
      "outputs": [
        {
          "internalType": "bool",
          "name": "",
          "type": "bool"
        }
      ],
      "stateMutability": "view",
      "type": "function"
    },
    {
      "inputs": [
        {
          "internalType": "address",
          "name": "spender",
          "type": "address"
        },
        {
          "internalType": "uint256",
          "name": "addedValue",
          "type": "uint256"
        }
      ],
      "name": "increaseAllowance",
      "outputs": [
        {
          "internalType": "bool",
          "name": "",
          "type": "bool"
        }
      ],
      "stateMutability": "nonpayable",
      "type": "function"
    },
    {
      "inputs": [
        {
          "internalType": "address",
          "name": "_to",
          "type": "address"
        },
        {
          "internalType": "uint256",
          "name": "_amount",
          "type": "uint256"
        }
      ],
      "name": "mint",
      "outputs": [],
      "stateMutability": "nonpayable",
      "type": "function"
    },
    {
      "inputs": [],
      "name": "name",
      "outputs": [
        {
          "internalType": "string",
          "name": "",
          "type": "string"
        }
      ],
      "stateMutability": "view",
      "type": "function"
    },
    {
      "inputs": [
        {
          "internalType": "address",
          "name": "owner",
          "type": "address"
        }
      ],
      "name": "nonces",
      "outputs": [
        {
          "internalType": "uint256",
          "name": "",
          "type": "uint256"
        }
      ],
      "stateMutability": "view",
      "type": "function"
    },
    {
      "inputs": [
        {
          "internalType": "address",
          "name": "owner",
          "type": "address"
        },
        {
          "internalType": "address",
          "name": "spender",
          "type": "address"
        },
        {
          "internalType": "uint256",
          "name": "value",
          "type": "uint256"
        },
        {
          "internalType": "uint256",
          "name": "deadline",
          "type": "uint256"
        },
        {
          "internalType": "uint8",
          "name": "v",
          "type": "uint8"
        },
        {
          "internalType": "bytes32",
          "name": "r",
          "type": "bytes32"
        },
        {
          "internalType": "bytes32",
          "name": "s",
          "type": "bytes32"
        }
      ],
      "name": "permit",
      "outputs": [],
      "stateMutability": "nonpayable",
      "type": "function"
    },
    {
      "inputs": [
        {
          "internalType": "bytes32",
          "name": "role",
          "type": "bytes32"
        },
        {
          "internalType": "address",
          "name": "account",
          "type": "address"
        }
      ],
      "name": "renounceRole",
      "outputs": [],
      "stateMutability": "nonpayable",
      "type": "function"
    },
    {
      "inputs": [
        {
          "internalType": "bytes32",
          "name": "role",
          "type": "bytes32"
        },
        {
          "internalType": "address",
          "name": "account",
          "type": "address"
        }
      ],
      "name": "revokeRole",
      "outputs": [],
      "stateMutability": "nonpayable",
      "type": "function"
    },
    {
      "inputs": [
        {
          "internalType": "bytes4",
          "name": "interfaceId",
          "type": "bytes4"
        }
      ],
      "name": "supportsInterface",
      "outputs": [
        {
          "internalType": "bool",
          "name": "",
          "type": "bool"
        }
      ],
      "stateMutability": "view",
      "type": "function"
    },
    {
      "inputs": [],
      "name": "symbol",
      "outputs": [
        {
          "internalType": "string",
          "name": "",
          "type": "string"
        }
      ],
      "stateMutability": "view",
      "type": "function"
    },
    {
      "inputs": [],
      "name": "totalSupply",
      "outputs": [
        {
          "internalType": "uint256",
          "name": "",
          "type": "uint256"
        }
      ],
      "stateMutability": "view",
      "type": "function"
    },
    {
      "inputs": [
        {
          "internalType": "address",
          "name": "recipient",
          "type": "address"
        },
        {
          "internalType": "uint256",
          "name": "amount",
          "type": "uint256"
        }
      ],
      "name": "transfer",
      "outputs": [
        {
          "internalType": "bool",
          "name": "",
          "type": "bool"
        }
      ],
      "stateMutability": "nonpayable",
      "type": "function"
    },
    {
      "inputs": [
        {
          "internalType": "address",
          "name": "sender",
          "type": "address"
        },
        {
          "internalType": "address",
          "name": "recipient",
          "type": "address"
        },
        {
          "internalType": "uint256",
          "name": "amount",
          "type": "uint256"
        }
      ],
      "name": "transferFrom",
      "outputs": [
        {
          "internalType": "bool",
          "name": "",
          "type": "bool"
        }
      ],
      "stateMutability": "nonpayable",
      "type": "function"
    }
  ],
  "transactionHash": "0xe02d57f03e94c2a1854775643e97da4d73a3dead649021a37325e83f91494505",
  "args": [],
  "solcInputHash": "745567fe26c6599e3de280e2ec214387",
  "bytecode": "0x6101406040527f6e71edae12b1b97f4d1f60370fef10105fa2faae0126114a169c64845d6126c9610120908152503480156200003a57600080fd5b506040518060400160405280600e81526020017f4c6976657065657220546f6b656e000000000000000000000000000000000000815250806040518060400160405280600181526020017f31000000000000000000000000000000000000000000000000000000000000008152506040518060400160405280600e81526020017f4c6976657065657220546f6b656e0000000000000000000000000000000000008152506040518060400160405280600381526020017f4c5054000000000000000000000000000000000000000000000000000000000081525081600490805190602001906200012c9291906200045c565b508060059080519060200190620001459291906200045c565b50505060008280519060200120905060008280519060200120905060007f8b73c3c69bb8fe3d512ecc4cf759cc79239f7b179b0ffacaa9a75d522b39400f90508260c081815250508160e081815250504660a08181525050620001b08184846200022560201b60201c565b60808181525050806101008181525050505050505050620001ea6000801b620001de6200026160201b60201c565b6200026960201b60201c565b6200021f7f9f2df0fed2c77648de5860a4cc508cd0818c85b8b8a1ab4ceeef8d981c8956a66000801b6200027f60201b60201c565b62000649565b60008383834630604051602001620002429594939291906200053f565b6040516020818303038152906040528051906020012090509392505050565b600033905090565b6200027b8282620002e260201b60201c565b5050565b60006200029283620003d360201b60201c565b905081600080858152602001908152602001600020600101819055508181847fbd79b86ffe0ab8e8776151514217cd7cacd52c909f66475c3af44e129f0b00ff60405160405180910390a4505050565b620002f48282620003f260201b60201c565b620003cf57600160008084815260200190815260200160002060000160008373ffffffffffffffffffffffffffffffffffffffff1673ffffffffffffffffffffffffffffffffffffffff16815260200190815260200160002060006101000a81548160ff021916908315150217905550620003746200026160201b60201c565b73ffffffffffffffffffffffffffffffffffffffff168173ffffffffffffffffffffffffffffffffffffffff16837f2f8788117e7eff1d82e926ec794901d17c78024a50270940304540a733656f0d60405160405180910390a45b5050565b6000806000838152602001908152602001600020600101549050919050565b600080600084815260200190815260200160002060000160008373ffffffffffffffffffffffffffffffffffffffff1673ffffffffffffffffffffffffffffffffffffffff16815260200190815260200160002060009054906101000a900460ff16905092915050565b8280546200046a90620005e4565b90600052602060002090601f0160209004810192826200048e5760008555620004da565b82601f10620004a957805160ff1916838001178555620004da565b82800160010185558215620004da579182015b82811115620004d9578251825591602001919060010190620004bc565b5b509050620004e99190620004ed565b5090565b5b8082111562000508576000816000905550600101620004ee565b5090565b62000517816200059c565b82525050565b6200052881620005b0565b82525050565b6200053981620005da565b82525050565b600060a0820190506200055660008301886200051d565b6200056560208301876200051d565b6200057460408301866200051d565b6200058360608301856200052e565b6200059260808301846200050c565b9695505050505050565b6000620005a982620005ba565b9050919050565b6000819050919050565b600073ffffffffffffffffffffffffffffffffffffffff82169050919050565b6000819050919050565b60006002820490506001821680620005fd57607f821691505b602082108114156200061457620006136200061a565b5b50919050565b7f4e487b7100000000000000000000000000000000000000000000000000000000600052602260045260246000fd5b60805160a05160c05160e05161010051610120516135ca620006996000396000610d4c015260006115b0015260006115f2015260006115d10152600061155d0152600061158501526135ca6000f3fe608060405234801561001057600080fd5b50600436106101735760003560e01c806342966c68116100de578063a217fddf11610097578063d505accf11610071578063d505accf14610498578063d5391393146104b4578063d547741f146104d2578063dd62ed3e146104ee57610173565b8063a217fddf1461041a578063a457c2d714610438578063a9059cbb1461046857610173565b806342966c6814610334578063585ce8fd1461035057806370a082311461036c5780637ecebe001461039c57806391d14854146103cc57806395d89b41146103fc57610173565b80632f2ff15d116101305780632f2ff15d14610274578063313ce567146102905780633644e515146102ae57806336568abe146102cc57806339509351146102e857806340c10f191461031857610173565b806301ffc9a71461017857806306fdde03146101a8578063095ea7b3146101c657806318160ddd146101f657806323b872dd14610214578063248a9ca314610244575b600080fd5b610192600480360381019061018d9190612529565b61051e565b60405161019f9190612997565b60405180910390f35b6101b0610598565b6040516101bd9190612ac6565b60405180910390f35b6101e060048036038101906101db9190612488565b61062a565b6040516101ed9190612997565b60405180910390f35b6101fe610648565b60405161020b9190612d28565b60405180910390f35b61022e6004803603810190610229919061239b565b610652565b60405161023b9190612997565b60405180910390f35b61025e600480360381019061025991906124c4565b61074a565b60405161026b91906129b2565b60405180910390f35b61028e600480360381019061028991906124ed565b610769565b005b610298610792565b6040516102a59190612d43565b60405180910390f35b6102b661079b565b6040516102c391906129b2565b60405180910390f35b6102e660048036038101906102e191906124ed565b6107aa565b005b61030260048036038101906102fd9190612488565b61082d565b60405161030f9190612997565b60405180910390f35b610332600480360381019061032d9190612488565b6108d9565b005b61034e60048036038101906103499190612552565b610968565b005b61036a60048036038101906103659190612488565b6109d1565b005b61038660048036038101906103819190612336565b610a60565b6040516103939190612d28565b60405180910390f35b6103b660048036038101906103b19190612336565b610aa9565b6040516103c39190612d28565b60405180910390f35b6103e660048036038101906103e191906124ed565b610af9565b6040516103f39190612997565b60405180910390f35b610404610b63565b6040516104119190612ac6565b60405180910390f35b610422610bf5565b60405161042f91906129b2565b60405180910390f35b610452600480360381019061044d9190612488565b610bfc565b60405161045f9190612997565b60405180910390f35b610482600480360381019061047d9190612488565b610ce7565b60405161048f9190612997565b60405180910390f35b6104b260048036038101906104ad91906123ea565b610d05565b005b6104bc610e47565b6040516104c991906129b2565b60405180910390f35b6104ec60048036038101906104e791906124ed565b610e6b565b005b6105086004803603810190610503919061235f565b610e94565b6040516105159190612d28565b60405180910390f35b60007f7965db0b000000000000000000000000000000000000000000000000000000007bffffffffffffffffffffffffffffffffffffffffffffffffffffffff1916827bffffffffffffffffffffffffffffffffffffffffffffffffffffffff19161480610591575061059082610f1b565b5b9050919050565b6060600480546105a790612f51565b80601f01602080910402602001604051908101604052809291908181526020018280546105d390612f51565b80156106205780601f106105f557610100808354040283529160200191610620565b820191906000526020600020905b81548152906001019060200180831161060357829003601f168201915b5050505050905090565b600061063e610637610f85565b8484610f8d565b6001905092915050565b6000600354905090565b600061065f848484611158565b6000600260008673ffffffffffffffffffffffffffffffffffffffff1673ffffffffffffffffffffffffffffffffffffffff16815260200190815260200160002060006106aa610f85565b73ffffffffffffffffffffffffffffffffffffffff1673ffffffffffffffffffffffffffffffffffffffff1681526020019081526020016000205490508281101561072a576040517f08c379a000000000000000000000000000000000000000000000000000000000815260040161072190612c48565b60405180910390fd5b61073e85610736610f85565b858403610f8d565b60019150509392505050565b6000806000838152602001908152602001600020600101549050919050565b6107728261074a565b6107838161077e610f85565b6113dc565b61078d8383611479565b505050565b60006012905090565b60006107a5611559565b905090565b6107b2610f85565b73ffffffffffffffffffffffffffffffffffffffff168173ffffffffffffffffffffffffffffffffffffffff161461081f576040517f08c379a000000000000000000000000000000000000000000000000000000000815260040161081690612ce8565b60405180910390fd5b610829828261161c565b5050565b60006108cf61083a610f85565b848460026000610848610f85565b73ffffffffffffffffffffffffffffffffffffffff1673ffffffffffffffffffffffffffffffffffffffff16815260200190815260200160002060008873ffffffffffffffffffffffffffffffffffffffff1673ffffffffffffffffffffffffffffffffffffffff168152602001908152602001600020546108ca9190612d85565b610f8d565b6001905092915050565b7f9f2df0fed2c77648de5860a4cc508cd0818c85b8b8a1ab4ceeef8d981c8956a661090b81610906610f85565b6113dc565b61091583836116fd565b8273ffffffffffffffffffffffffffffffffffffffff167f0f6798a560793a54c3bcfe86a93cde1e73087d944c0ea20544137d41213968858360405161095b9190612d28565b60405180910390a2505050565b610979610973610f85565b8261185e565b610981610f85565b73ffffffffffffffffffffffffffffffffffffffff167fcc16f5dbb4873280815c1ee09dbd06736cffcc184412cf7a71a0fdb75d397ca5826040516109c69190612d28565b60405180910390a250565b7f9f2df0fed2c77648de5860a4cc508cd0818c85b8b8a1ab4ceeef8d981c8956a6610a03816109fe610f85565b6113dc565b610a0d838361185e565b8273ffffffffffffffffffffffffffffffffffffffff167fcc16f5dbb4873280815c1ee09dbd06736cffcc184412cf7a71a0fdb75d397ca583604051610a539190612d28565b60405180910390a2505050565b6000600160008373ffffffffffffffffffffffffffffffffffffffff1673ffffffffffffffffffffffffffffffffffffffff168152602001908152602001600020549050919050565b6000610af2600660008473ffffffffffffffffffffffffffffffffffffffff1673ffffffffffffffffffffffffffffffffffffffff168152602001908152602001600020611a37565b9050919050565b600080600084815260200190815260200160002060000160008373ffffffffffffffffffffffffffffffffffffffff1673ffffffffffffffffffffffffffffffffffffffff16815260200190815260200160002060009054906101000a900460ff16905092915050565b606060058054610b7290612f51565b80601f0160208091040260200160405190810160405280929190818152602001828054610b9e90612f51565b8015610beb5780601f10610bc057610100808354040283529160200191610beb565b820191906000526020600020905b815481529060010190602001808311610bce57829003601f168201915b5050505050905090565b6000801b81565b60008060026000610c0b610f85565b73ffffffffffffffffffffffffffffffffffffffff1673ffffffffffffffffffffffffffffffffffffffff16815260200190815260200160002060008573ffffffffffffffffffffffffffffffffffffffff1673ffffffffffffffffffffffffffffffffffffffff16815260200190815260200160002054905082811015610cc8576040517f08c379a0000000000000000000000000000000000000000000000000000000008152600401610cbf90612cc8565b60405180910390fd5b610cdc610cd3610f85565b85858403610f8d565b600191505092915050565b6000610cfb610cf4610f85565b8484611158565b6001905092915050565b83421115610d48576040517f08c379a0000000000000000000000000000000000000000000000000000000008152600401610d3f90612ba8565b60405180910390fd5b60007f0000000000000000000000000000000000000000000000000000000000000000888888610d778c611a45565b89604051602001610d8d969594939291906129cd565b6040516020818303038152906040528051906020012090506000610db082611aa3565b90506000610dc082878787611abd565b90508973ffffffffffffffffffffffffffffffffffffffff168173ffffffffffffffffffffffffffffffffffffffff1614610e30576040517f08c379a0000000000000000000000000000000000000000000000000000000008152600401610e2790612c28565b60405180910390fd5b610e3b8a8a8a610f8d565b50505050505050505050565b7f9f2df0fed2c77648de5860a4cc508cd0818c85b8b8a1ab4ceeef8d981c8956a681565b610e748261074a565b610e8581610e80610f85565b6113dc565b610e8f838361161c565b505050565b6000600260008473ffffffffffffffffffffffffffffffffffffffff1673ffffffffffffffffffffffffffffffffffffffff16815260200190815260200160002060008373ffffffffffffffffffffffffffffffffffffffff1673ffffffffffffffffffffffffffffffffffffffff16815260200190815260200160002054905092915050565b60007f01ffc9a7000000000000000000000000000000000000000000000000000000007bffffffffffffffffffffffffffffffffffffffffffffffffffffffff1916827bffffffffffffffffffffffffffffffffffffffffffffffffffffffff1916149050919050565b600033905090565b600073ffffffffffffffffffffffffffffffffffffffff168373ffffffffffffffffffffffffffffffffffffffff161415610ffd576040517f08c379a0000000000000000000000000000000000000000000000000000000008152600401610ff490612ca8565b60405180910390fd5b600073ffffffffffffffffffffffffffffffffffffffff168273ffffffffffffffffffffffffffffffffffffffff16141561106d576040517f08c379a000000000000000000000000000000000000000000000000000000000815260040161106490612b88565b60405180910390fd5b80600260008573ffffffffffffffffffffffffffffffffffffffff1673ffffffffffffffffffffffffffffffffffffffff16815260200190815260200160002060008473ffffffffffffffffffffffffffffffffffffffff1673ffffffffffffffffffffffffffffffffffffffff168152602001908152602001600020819055508173ffffffffffffffffffffffffffffffffffffffff168373ffffffffffffffffffffffffffffffffffffffff167f8c5be1e5ebec7d5bd14f71427d1e84f3dd0314c0f7b2291e5b200ac8c7c3b9258360405161114b9190612d28565b60405180910390a3505050565b600073ffffffffffffffffffffffffffffffffffffffff168373ffffffffffffffffffffffffffffffffffffffff1614156111c8576040517f08c379a00000000000000000000000000000000000000000000000000000000081526004016111bf90612c88565b60405180910390fd5b600073ffffffffffffffffffffffffffffffffffffffff168273ffffffffffffffffffffffffffffffffffffffff161415611238576040517f08c379a000000000000000000000000000000000000000000000000000000000815260040161122f90612b28565b60405180910390fd5b611243838383611ae8565b6000600160008573ffffffffffffffffffffffffffffffffffffffff1673ffffffffffffffffffffffffffffffffffffffff168152602001908152602001600020549050818110156112ca576040517f08c379a00000000000000000000000000000000000000000000000000000000081526004016112c190612bc8565b60405180910390fd5b818103600160008673ffffffffffffffffffffffffffffffffffffffff1673ffffffffffffffffffffffffffffffffffffffff1681526020019081526020016000208190555081600160008573ffffffffffffffffffffffffffffffffffffffff1673ffffffffffffffffffffffffffffffffffffffff168152602001908152602001600020600082825461135f9190612d85565b925050819055508273ffffffffffffffffffffffffffffffffffffffff168473ffffffffffffffffffffffffffffffffffffffff167fddf252ad1be2c89b69c2b068fc378daa952ba7f163c4a11628f55a4df523b3ef846040516113c39190612d28565b60405180910390a36113d6848484611aed565b50505050565b6113e68282610af9565b6114755761140b8173ffffffffffffffffffffffffffffffffffffffff166014611af2565b6114198360001c6020611af2565b60405160200161142a92919061295d565b6040516020818303038152906040526040517f08c379a000000000000000000000000000000000000000000000000000000000815260040161146c9190612ac6565b60405180910390fd5b5050565b6114838282610af9565b61155557600160008084815260200190815260200160002060000160008373ffffffffffffffffffffffffffffffffffffffff1673ffffffffffffffffffffffffffffffffffffffff16815260200190815260200160002060006101000a81548160ff0219169083151502179055506114fa610f85565b73ffffffffffffffffffffffffffffffffffffffff168173ffffffffffffffffffffffffffffffffffffffff16837f2f8788117e7eff1d82e926ec794901d17c78024a50270940304540a733656f0d60405160405180910390a45b5050565b60007f00000000000000000000000000000000000000000000000000000000000000004614156115ab577f00000000000000000000000000000000000000000000000000000000000000009050611619565b6116167f00000000000000000000000000000000000000000000000000000000000000007f00000000000000000000000000000000000000000000000000000000000000007f0000000000000000000000000000000000000000000000000000000000000000611dec565b90505b90565b6116268282610af9565b156116f957600080600084815260200190815260200160002060000160008373ffffffffffffffffffffffffffffffffffffffff1673ffffffffffffffffffffffffffffffffffffffff16815260200190815260200160002060006101000a81548160ff02191690831515021790555061169e610f85565b73ffffffffffffffffffffffffffffffffffffffff168173ffffffffffffffffffffffffffffffffffffffff16837ff6391f5c32d9c69d2a47ea670b442974b53935d1edc7fd64eb21e047a839171b60405160405180910390a45b5050565b600073ffffffffffffffffffffffffffffffffffffffff168273ffffffffffffffffffffffffffffffffffffffff16141561176d576040517f08c379a000000000000000000000000000000000000000000000000000000000815260040161176490612d08565b60405180910390fd5b61177960008383611ae8565b806003600082825461178b9190612d85565b9250508190555080600160008473ffffffffffffffffffffffffffffffffffffffff1673ffffffffffffffffffffffffffffffffffffffff16815260200190815260200160002060008282546117e19190612d85565b925050819055508173ffffffffffffffffffffffffffffffffffffffff16600073ffffffffffffffffffffffffffffffffffffffff167fddf252ad1be2c89b69c2b068fc378daa952ba7f163c4a11628f55a4df523b3ef836040516118469190612d28565b60405180910390a361185a60008383611aed565b5050565b600073ffffffffffffffffffffffffffffffffffffffff168273ffffffffffffffffffffffffffffffffffffffff1614156118ce576040517f08c379a00000000000000000000000000000000000000000000000000000000081526004016118c590612c68565b60405180910390fd5b6118da82600083611ae8565b6000600160008473ffffffffffffffffffffffffffffffffffffffff1673ffffffffffffffffffffffffffffffffffffffff16815260200190815260200160002054905081811015611961576040517f08c379a000000000000000000000000000000000000000000000000000000000815260040161195890612b48565b60405180910390fd5b818103600160008573ffffffffffffffffffffffffffffffffffffffff1673ffffffffffffffffffffffffffffffffffffffff1681526020019081526020016000208190555081600360008282546119b99190612e35565b92505081905550600073ffffffffffffffffffffffffffffffffffffffff168373ffffffffffffffffffffffffffffffffffffffff167fddf252ad1be2c89b69c2b068fc378daa952ba7f163c4a11628f55a4df523b3ef84604051611a1e9190612d28565b60405180910390a3611a3283600084611aed565b505050565b600081600001549050919050565b600080600660008473ffffffffffffffffffffffffffffffffffffffff1673ffffffffffffffffffffffffffffffffffffffff1681526020019081526020016000209050611a9281611a37565b9150611a9d81611e26565b50919050565b6000611ab6611ab0611559565b83611e3c565b9050919050565b6000806000611ace87878787611e6f565b91509150611adb81611f7c565b8192505050949350505050565b505050565b505050565b606060006002836002611b059190612ddb565b611b0f9190612d85565b67ffffffffffffffff811115611b4e577f4e487b7100000000000000000000000000000000000000000000000000000000600052604160045260246000fd5b6040519080825280601f01601f191660200182016040528015611b805781602001600182028036833780820191505090505b5090507f300000000000000000000000000000000000000000000000000000000000000081600081518110611bde577f4e487b7100000000000000000000000000000000000000000000000000000000600052603260045260246000fd5b60200101907effffffffffffffffffffffffffffffffffffffffffffffffffffffffffffff1916908160001a9053507f780000000000000000000000000000000000000000000000000000000000000081600181518110611c68577f4e487b7100000000000000000000000000000000000000000000000000000000600052603260045260246000fd5b60200101907effffffffffffffffffffffffffffffffffffffffffffffffffffffffffffff1916908160001a90535060006001846002611ca89190612ddb565b611cb29190612d85565b90505b6001811115611d9e577f3031323334353637383961626364656600000000000000000000000000000000600f861660108110611d1a577f4e487b7100000000000000000000000000000000000000000000000000000000600052603260045260246000fd5b1a60f81b828281518110611d57577f4e487b7100000000000000000000000000000000000000000000000000000000600052603260045260246000fd5b60200101907effffffffffffffffffffffffffffffffffffffffffffffffffffffffffffff1916908160001a905350600485901c945080611d9790612f27565b9050611cb5565b5060008414611de2576040517f08c379a0000000000000000000000000000000000000000000000000000000008152600401611dd990612b08565b60405180910390fd5b8091505092915050565b60008383834630604051602001611e07959493929190612a2e565b6040516020818303038152906040528051906020012090509392505050565b6001816000016000828254019250508190555050565b60008282604051602001611e51929190612926565b60405160208183030381529060405280519060200120905092915050565b6000807f7fffffffffffffffffffffffffffffff5d576e7357a4501ddfe92f46681b20a08360001c1115611eaa576000600391509150611f73565b601b8560ff1614158015611ec25750601c8560ff1614155b15611ed4576000600491509150611f73565b600060018787878760405160008152602001604052604051611ef99493929190612a81565b6020604051602081039080840390855afa158015611f1b573d6000803e3d6000fd5b505050602060405103519050600073ffffffffffffffffffffffffffffffffffffffff168173ffffffffffffffffffffffffffffffffffffffff161415611f6a57600060019250925050611f73565b80600092509250505b94509492505050565b60006004811115611fb6577f4e487b7100000000000000000000000000000000000000000000000000000000600052602160045260246000fd5b816004811115611fef577f4e487b7100000000000000000000000000000000000000000000000000000000600052602160045260246000fd5b1415611ffa576122ca565b60016004811115612034577f4e487b7100000000000000000000000000000000000000000000000000000000600052602160045260246000fd5b81600481111561206d577f4e487b7100000000000000000000000000000000000000000000000000000000600052602160045260246000fd5b14156120ae576040517f08c379a00000000000000000000000000000000000000000000000000000000081526004016120a590612ae8565b60405180910390fd5b600260048111156120e8577f4e487b7100000000000000000000000000000000000000000000000000000000600052602160045260246000fd5b816004811115612121577f4e487b7100000000000000000000000000000000000000000000000000000000600052602160045260246000fd5b1415612162576040517f08c379a000000000000000000000000000000000000000000000000000000000815260040161215990612b68565b60405180910390fd5b6003600481111561219c577f4e487b7100000000000000000000000000000000000000000000000000000000600052602160045260246000fd5b8160048111156121d5577f4e487b7100000000000000000000000000000000000000000000000000000000600052602160045260246000fd5b1415612216576040517f08c379a000000000000000000000000000000000000000000000000000000000815260040161220d90612be8565b60405180910390fd5b60048081111561224f577f4e487b7100000000000000000000000000000000000000000000000000000000600052602160045260246000fd5b816004811115612288577f4e487b7100000000000000000000000000000000000000000000000000000000600052602160045260246000fd5b14156122c9576040517f08c379a00000000000000000000000000000000000000000000000000000000081526004016122c090612c08565b60405180910390fd5b5b50565b6000813590506122dc81613521565b92915050565b6000813590506122f181613538565b92915050565b6000813590506123068161354f565b92915050565b60008135905061231b81613566565b92915050565b6000813590506123308161357d565b92915050565b60006020828403121561234857600080fd5b6000612356848285016122cd565b91505092915050565b6000806040838503121561237257600080fd5b6000612380858286016122cd565b9250506020612391858286016122cd565b9150509250929050565b6000806000606084860312156123b057600080fd5b60006123be868287016122cd565b93505060206123cf868287016122cd565b92505060406123e08682870161230c565b9150509250925092565b600080600080600080600060e0888a03121561240557600080fd5b60006124138a828b016122cd565b97505060206124248a828b016122cd565b96505060406124358a828b0161230c565b95505060606124468a828b0161230c565b94505060806124578a828b01612321565b93505060a06124688a828b016122e2565b92505060c06124798a828b016122e2565b91505092959891949750929550565b6000806040838503121561249b57600080fd5b60006124a9858286016122cd565b92505060206124ba8582860161230c565b9150509250929050565b6000602082840312156124d657600080fd5b60006124e4848285016122e2565b91505092915050565b6000806040838503121561250057600080fd5b600061250e858286016122e2565b925050602061251f858286016122cd565b9150509250929050565b60006020828403121561253b57600080fd5b6000612549848285016122f7565b91505092915050565b60006020828403121561256457600080fd5b60006125728482850161230c565b91505092915050565b61258481612e69565b82525050565b61259381612e7b565b82525050565b6125a281612e87565b82525050565b6125b96125b482612e87565b612f83565b82525050565b60006125ca82612d5e565b6125d48185612d69565b93506125e4818560208601612ef4565b6125ed81612feb565b840191505092915050565b600061260382612d5e565b61260d8185612d7a565b935061261d818560208601612ef4565b80840191505092915050565b6000612636601883612d69565b915061264182612ffc565b602082019050919050565b6000612659602083612d69565b915061266482613025565b602082019050919050565b600061267c602383612d69565b91506126878261304e565b604082019050919050565b600061269f602283612d69565b91506126aa8261309d565b604082019050919050565b60006126c2601f83612d69565b91506126cd826130ec565b602082019050919050565b60006126e5602283612d69565b91506126f082613115565b604082019050919050565b6000612708600283612d7a565b915061271382613164565b600282019050919050565b600061272b601d83612d69565b91506127368261318d565b602082019050919050565b600061274e602683612d69565b9150612759826131b6565b604082019050919050565b6000612771602283612d69565b915061277c82613205565b604082019050919050565b6000612794602283612d69565b915061279f82613254565b604082019050919050565b60006127b7601e83612d69565b91506127c2826132a3565b602082019050919050565b60006127da602883612d69565b91506127e5826132cc565b604082019050919050565b60006127fd602183612d69565b91506128088261331b565b604082019050919050565b6000612820602583612d69565b915061282b8261336a565b604082019050919050565b6000612843602483612d69565b915061284e826133b9565b604082019050919050565b6000612866601783612d7a565b915061287182613408565b601782019050919050565b6000612889602583612d69565b915061289482613431565b604082019050919050565b60006128ac601183612d7a565b91506128b782613480565b601182019050919050565b60006128cf602f83612d69565b91506128da826134a9565b604082019050919050565b60006128f2601f83612d69565b91506128fd826134f8565b602082019050919050565b61291181612edd565b82525050565b61292081612ee7565b82525050565b6000612931826126fb565b915061293d82856125a8565b60208201915061294d82846125a8565b6020820191508190509392505050565b600061296882612859565b915061297482856125f8565b915061297f8261289f565b915061298b82846125f8565b91508190509392505050565b60006020820190506129ac600083018461258a565b92915050565b60006020820190506129c76000830184612599565b92915050565b600060c0820190506129e26000830189612599565b6129ef602083018861257b565b6129fc604083018761257b565b612a096060830186612908565b612a166080830185612908565b612a2360a0830184612908565b979650505050505050565b600060a082019050612a436000830188612599565b612a506020830187612599565b612a5d6040830186612599565b612a6a6060830185612908565b612a77608083018461257b565b9695505050505050565b6000608082019050612a966000830187612599565b612aa36020830186612917565b612ab06040830185612599565b612abd6060830184612599565b95945050505050565b60006020820190508181036000830152612ae081846125bf565b905092915050565b60006020820190508181036000830152612b0181612629565b9050919050565b60006020820190508181036000830152612b218161264c565b9050919050565b60006020820190508181036000830152612b418161266f565b9050919050565b60006020820190508181036000830152612b6181612692565b9050919050565b60006020820190508181036000830152612b81816126b5565b9050919050565b60006020820190508181036000830152612ba1816126d8565b9050919050565b60006020820190508181036000830152612bc18161271e565b9050919050565b60006020820190508181036000830152612be181612741565b9050919050565b60006020820190508181036000830152612c0181612764565b9050919050565b60006020820190508181036000830152612c2181612787565b9050919050565b60006020820190508181036000830152612c41816127aa565b9050919050565b60006020820190508181036000830152612c61816127cd565b9050919050565b60006020820190508181036000830152612c81816127f0565b9050919050565b60006020820190508181036000830152612ca181612813565b9050919050565b60006020820190508181036000830152612cc181612836565b9050919050565b60006020820190508181036000830152612ce18161287c565b9050919050565b60006020820190508181036000830152612d01816128c2565b9050919050565b60006020820190508181036000830152612d21816128e5565b9050919050565b6000602082019050612d3d6000830184612908565b92915050565b6000602082019050612d586000830184612917565b92915050565b600081519050919050565b600082825260208201905092915050565b600081905092915050565b6000612d9082612edd565b9150612d9b83612edd565b9250827fffffffffffffffffffffffffffffffffffffffffffffffffffffffffffffffff03821115612dd057612dcf612f8d565b5b828201905092915050565b6000612de682612edd565b9150612df183612edd565b9250817fffffffffffffffffffffffffffffffffffffffffffffffffffffffffffffffff0483118215151615612e2a57612e29612f8d565b5b828202905092915050565b6000612e4082612edd565b9150612e4b83612edd565b925082821015612e5e57612e5d612f8d565b5b828203905092915050565b6000612e7482612ebd565b9050919050565b60008115159050919050565b6000819050919050565b60007fffffffff0000000000000000000000000000000000000000000000000000000082169050919050565b600073ffffffffffffffffffffffffffffffffffffffff82169050919050565b6000819050919050565b600060ff82169050919050565b60005b83811015612f12578082015181840152602081019050612ef7565b83811115612f21576000848401525b50505050565b6000612f3282612edd565b91506000821415612f4657612f45612f8d565b5b600182039050919050565b60006002820490506001821680612f6957607f821691505b60208210811415612f7d57612f7c612fbc565b5b50919050565b6000819050919050565b7f4e487b7100000000000000000000000000000000000000000000000000000000600052601160045260246000fd5b7f4e487b7100000000000000000000000000000000000000000000000000000000600052602260045260246000fd5b6000601f19601f8301169050919050565b7f45434453413a20696e76616c6964207369676e61747572650000000000000000600082015250565b7f537472696e67733a20686578206c656e67746820696e73756666696369656e74600082015250565b7f45524332303a207472616e7366657220746f20746865207a65726f206164647260008201527f6573730000000000000000000000000000000000000000000000000000000000602082015250565b7f45524332303a206275726e20616d6f756e7420657863656564732062616c616e60008201527f6365000000000000000000000000000000000000000000000000000000000000602082015250565b7f45434453413a20696e76616c6964207369676e6174757265206c656e67746800600082015250565b7f45524332303a20617070726f766520746f20746865207a65726f20616464726560008201527f7373000000000000000000000000000000000000000000000000000000000000602082015250565b7f1901000000000000000000000000000000000000000000000000000000000000600082015250565b7f45524332305065726d69743a206578706972656420646561646c696e65000000600082015250565b7f45524332303a207472616e7366657220616d6f756e742065786365656473206260008201527f616c616e63650000000000000000000000000000000000000000000000000000602082015250565b7f45434453413a20696e76616c6964207369676e6174757265202773272076616c60008201527f7565000000000000000000000000000000000000000000000000000000000000602082015250565b7f45434453413a20696e76616c6964207369676e6174757265202776272076616c60008201527f7565000000000000000000000000000000000000000000000000000000000000602082015250565b7f45524332305065726d69743a20696e76616c6964207369676e61747572650000600082015250565b7f45524332303a207472616e7366657220616d6f756e742065786365656473206160008201527f6c6c6f77616e6365000000000000000000000000000000000000000000000000602082015250565b7f45524332303a206275726e2066726f6d20746865207a65726f2061646472657360008201527f7300000000000000000000000000000000000000000000000000000000000000602082015250565b7f45524332303a207472616e736665722066726f6d20746865207a65726f20616460008201527f6472657373000000000000000000000000000000000000000000000000000000602082015250565b7f45524332303a20617070726f76652066726f6d20746865207a65726f2061646460008201527f7265737300000000000000000000000000000000000000000000000000000000602082015250565b7f416363657373436f6e74726f6c3a206163636f756e7420000000000000000000600082015250565b7f45524332303a2064656372656173656420616c6c6f77616e63652062656c6f7760008201527f207a65726f000000000000000000000000000000000000000000000000000000602082015250565b7f206973206d697373696e6720726f6c6520000000000000000000000000000000600082015250565b7f416363657373436f6e74726f6c3a2063616e206f6e6c792072656e6f756e636560008201527f20726f6c657320666f722073656c660000000000000000000000000000000000602082015250565b7f45524332303a206d696e7420746f20746865207a65726f206164647265737300600082015250565b61352a81612e69565b811461353557600080fd5b50565b61354181612e87565b811461354c57600080fd5b50565b61355881612e91565b811461356357600080fd5b50565b61356f81612edd565b811461357a57600080fd5b50565b61358681612ee7565b811461359157600080fd5b5056fea26469706673582212207461cdb39734f9e8d66f45c26f4fbd8ddc685cd280283510f8ad99da8b7feaeb64736f6c63430008040033",
  "devdoc": {
    "kind": "dev",
    "methods": {
      "DOMAIN_SEPARATOR()": {
        "details": "See {IERC20Permit-DOMAIN_SEPARATOR}."
      },
      "allowance(address,address)": {
        "details": "See {IERC20-allowance}."
      },
      "approve(address,uint256)": {
        "details": "See {IERC20-approve}. Requirements: - `spender` cannot be the zero address."
      },
      "balanceOf(address)": {
        "details": "See {IERC20-balanceOf}."
      },
      "burn(uint256)": {
        "details": "Burns a specific amount of the sender's tokens",
        "params": {
          "_amount": "The amount of tokens to be burned"
        }
      },
      "decimals()": {
        "details": "Returns the number of decimals used to get its user representation. For example, if `decimals` equals `2`, a balance of `505` tokens should be displayed to a user as `5.05` (`505 / 10 ** 2`). Tokens usually opt for a value of 18, imitating the relationship between Ether and Wei. This is the value {ERC20} uses, unless this function is overridden; NOTE: This information is only used for _display_ purposes: it in no way affects any of the arithmetic of the contract, including {IERC20-balanceOf} and {IERC20-transfer}."
      },
      "decreaseAllowance(address,uint256)": {
        "details": "Atomically decreases the allowance granted to `spender` by the caller. This is an alternative to {approve} that can be used as a mitigation for problems described in {IERC20-approve}. Emits an {Approval} event indicating the updated allowance. Requirements: - `spender` cannot be the zero address. - `spender` must have allowance for the caller of at least `subtractedValue`."
      },
      "getRoleAdmin(bytes32)": {
        "details": "Returns the admin role that controls `role`. See {grantRole} and {revokeRole}. To change a role's admin, use {_setRoleAdmin}."
      },
      "grantRole(bytes32,address)": {
        "details": "Grants `role` to `account`. If `account` had not been already granted `role`, emits a {RoleGranted} event. Requirements: - the caller must have ``role``'s admin role."
      },
      "hasRole(bytes32,address)": {
        "details": "Returns `true` if `account` has been granted `role`."
      },
      "increaseAllowance(address,uint256)": {
        "details": "Atomically increases the allowance granted to `spender` by the caller. This is an alternative to {approve} that can be used as a mitigation for problems described in {IERC20-approve}. Emits an {Approval} event indicating the updated allowance. Requirements: - `spender` cannot be the zero address."
      },
      "mint(address,uint256)": {
        "details": "Function to mint tokens",
        "params": {
          "_amount": "The amount of tokens to mint.",
          "_to": "The address that will receive the minted tokens."
        }
      },
      "name()": {
        "details": "Returns the name of the token."
      },
      "nonces(address)": {
        "details": "See {IERC20Permit-nonces}."
      },
      "permit(address,address,uint256,uint256,uint8,bytes32,bytes32)": {
        "details": "See {IERC20Permit-permit}."
      },
      "renounceRole(bytes32,address)": {
        "details": "Revokes `role` from the calling account. Roles are often managed via {grantRole} and {revokeRole}: this function's purpose is to provide a mechanism for accounts to lose their privileges if they are compromised (such as when a trusted device is misplaced). If the calling account had been granted `role`, emits a {RoleRevoked} event. Requirements: - the caller must be `account`."
      },
      "revokeRole(bytes32,address)": {
        "details": "Revokes `role` from `account`. If `account` had been granted `role`, emits a {RoleRevoked} event. Requirements: - the caller must have ``role``'s admin role."
      },
      "supportsInterface(bytes4)": {
        "details": "See {IERC165-supportsInterface}."
      },
      "symbol()": {
        "details": "Returns the symbol of the token, usually a shorter version of the name."
      },
      "totalSupply()": {
        "details": "See {IERC20-totalSupply}."
      },
      "transfer(address,uint256)": {
        "details": "See {IERC20-transfer}. Requirements: - `recipient` cannot be the zero address. - the caller must have a balance of at least `amount`."
      },
      "transferFrom(address,address,uint256)": {
        "details": "See {IERC20-transferFrom}. Emits an {Approval} event indicating the updated allowance. This is not required by the EIP. See the note at the beginning of {ERC20}. Requirements: - `sender` and `recipient` cannot be the zero address. - `sender` must have a balance of at least `amount`. - the caller must have allowance for ``sender``'s tokens of at least `amount`."
      }
    },
    "version": 1
  },
  "userdoc": {
    "kind": "user",
    "methods": {},
    "version": 1
  },
  "storageLayout": {
    "storage": [
      {
        "astId": 24,
        "contract": "contracts/L2/token/LivepeerToken.sol:LivepeerToken",
        "label": "_roles",
        "offset": 0,
        "slot": "0",
        "type": "t_mapping(t_bytes32,t_struct(RoleData)19_storage)"
      },
      {
        "astId": 487,
        "contract": "contracts/L2/token/LivepeerToken.sol:LivepeerToken",
        "label": "_balances",
        "offset": 0,
        "slot": "1",
        "type": "t_mapping(t_address,t_uint256)"
      },
      {
        "astId": 493,
        "contract": "contracts/L2/token/LivepeerToken.sol:LivepeerToken",
        "label": "_allowances",
        "offset": 0,
        "slot": "2",
        "type": "t_mapping(t_address,t_mapping(t_address,t_uint256))"
      },
      {
        "astId": 495,
        "contract": "contracts/L2/token/LivepeerToken.sol:LivepeerToken",
        "label": "_totalSupply",
        "offset": 0,
        "slot": "3",
        "type": "t_uint256"
      },
      {
        "astId": 497,
        "contract": "contracts/L2/token/LivepeerToken.sol:LivepeerToken",
        "label": "_name",
        "offset": 0,
        "slot": "4",
        "type": "t_string_storage"
      },
      {
        "astId": 499,
        "contract": "contracts/L2/token/LivepeerToken.sol:LivepeerToken",
        "label": "_symbol",
        "offset": 0,
        "slot": "5",
        "type": "t_string_storage"
      },
      {
        "astId": 1143,
        "contract": "contracts/L2/token/LivepeerToken.sol:LivepeerToken",
        "label": "_nonces",
        "offset": 0,
        "slot": "6",
        "type": "t_mapping(t_address,t_struct(Counter)1353_storage)"
      }
    ],
    "types": {
      "t_address": {
        "encoding": "inplace",
        "label": "address",
        "numberOfBytes": "20"
      },
      "t_bool": {
        "encoding": "inplace",
        "label": "bool",
        "numberOfBytes": "1"
      },
      "t_bytes32": {
        "encoding": "inplace",
        "label": "bytes32",
        "numberOfBytes": "32"
      },
      "t_mapping(t_address,t_bool)": {
        "encoding": "mapping",
        "key": "t_address",
        "label": "mapping(address => bool)",
        "numberOfBytes": "32",
        "value": "t_bool"
      },
      "t_mapping(t_address,t_mapping(t_address,t_uint256))": {
        "encoding": "mapping",
        "key": "t_address",
        "label": "mapping(address => mapping(address => uint256))",
        "numberOfBytes": "32",
        "value": "t_mapping(t_address,t_uint256)"
      },
      "t_mapping(t_address,t_struct(Counter)1353_storage)": {
        "encoding": "mapping",
        "key": "t_address",
        "label": "mapping(address => struct Counters.Counter)",
        "numberOfBytes": "32",
        "value": "t_struct(Counter)1353_storage"
      },
      "t_mapping(t_address,t_uint256)": {
        "encoding": "mapping",
        "key": "t_address",
        "label": "mapping(address => uint256)",
        "numberOfBytes": "32",
        "value": "t_uint256"
      },
      "t_mapping(t_bytes32,t_struct(RoleData)19_storage)": {
        "encoding": "mapping",
        "key": "t_bytes32",
        "label": "mapping(bytes32 => struct AccessControl.RoleData)",
        "numberOfBytes": "32",
        "value": "t_struct(RoleData)19_storage"
      },
      "t_string_storage": {
        "encoding": "bytes",
        "label": "string",
        "numberOfBytes": "32"
      },
      "t_struct(Counter)1353_storage": {
        "encoding": "inplace",
        "label": "struct Counters.Counter",
        "members": [
          {
            "astId": 1352,
            "contract": "contracts/L2/token/LivepeerToken.sol:LivepeerToken",
            "label": "_value",
            "offset": 0,
            "slot": "0",
            "type": "t_uint256"
          }
        ],
        "numberOfBytes": "32"
      },
      "t_struct(RoleData)19_storage": {
        "encoding": "inplace",
        "label": "struct AccessControl.RoleData",
        "members": [
          {
            "astId": 16,
            "contract": "contracts/L2/token/LivepeerToken.sol:LivepeerToken",
            "label": "members",
            "offset": 0,
            "slot": "0",
            "type": "t_mapping(t_address,t_bool)"
          },
          {
            "astId": 18,
            "contract": "contracts/L2/token/LivepeerToken.sol:LivepeerToken",
            "label": "adminRole",
            "offset": 0,
            "slot": "1",
            "type": "t_bytes32"
          }
        ],
        "numberOfBytes": "64"
      },
      "t_uint256": {
        "encoding": "inplace",
        "label": "uint256",
        "numberOfBytes": "32"
      }
    }
  }
}