{
  "_format": "hh-sol-artifact-1",
  "contractName": "MockCurveGauge",
  "sourceName": "contracts/mock/MockCurveGauge.sol",
  "abi": [
    {
      "inputs": [
        {
          "internalType": "contract IERC20",
          "name": "_want",
          "type": "address"
        }
      ],
      "stateMutability": "nonpayable",
      "type": "constructor"
    },
    {
      "inputs": [
        {
          "internalType": "address",
          "name": "",
          "type": "address"
        }
      ],
      "name": "amounts",
      "outputs": [
        {
          "internalType": "uint256",
          "name": "",
          "type": "uint256"
        }
      ],
      "stateMutability": "view",
      "type": "function"
    },
    {
      "inputs": [
        {
          "internalType": "address",
          "name": "_account",
          "type": "address"
        }
      ],
      "name": "balanceOf",
      "outputs": [
        {
          "internalType": "uint256",
          "name": "",
          "type": "uint256"
        }
      ],
      "stateMutability": "view",
      "type": "function"
    },
    {
      "inputs": [
        {
          "internalType": "address",
          "name": "_account",
          "type": "address"
        }
      ],
      "name": "claimable_tokens",
      "outputs": [
        {
          "internalType": "uint256",
          "name": "",
          "type": "uint256"
        }
      ],
      "stateMutability": "view",
      "type": "function"
    },
    {
      "inputs": [
        {
          "internalType": "uint256",
          "name": "_amount",
          "type": "uint256"
        }
      ],
      "name": "deposit",
      "outputs": [],
      "stateMutability": "nonpayable",
      "type": "function"
    },
    {
      "inputs": [
        {
          "internalType": "uint256",
          "name": "_amount",
          "type": "uint256"
        }
      ],
      "name": "withdraw",
      "outputs": [],
      "stateMutability": "nonpayable",
      "type": "function"
    }
  ],
  "bytecode": "0x608060405234801561001057600080fd5b5060405161077e38038061077e8339818101604052602081101561003357600080fd5b5051600080546001600160a01b039092166001600160a01b0319909216919091179055610719806100656000396000f3fe608060405234801561001057600080fd5b50600436106100575760003560e01c80632e1a7d4d1461005c578063331345831461007b57806355a3b2c1146100b357806370a08231146100d9578063b6b55f25146100ff575b600080fd5b6100796004803603602081101561007257600080fd5b503561011c565b005b6100a16004803603602081101561009157600080fd5b50356001600160a01b0316610160565b60408051918252519081900360200190f35b6100a1600480360360208110156100c957600080fd5b50356001600160a01b031661018a565b6100a1600480360360208110156100ef57600080fd5b50356001600160a01b031661019c565b6100796004803603602081101561011557600080fd5b50356101b7565b600054610133906001600160a01b031633836101e9565b3360009081526001602052604090205461014d9082610240565b3360009081526001602052604090205550565b6001600160a01b03811660009081526001602052604081205461018490600a61029d565b92915050565b60016020526000908152604090205481565b6001600160a01b031660009081526001602052604090205490565b6000546101cf906001600160a01b0316333084610304565b3360009081526001602052604090205461014d9082610364565b604080516001600160a01b038416602482015260448082018490528251808303909101815260649091019091526020810180516001600160e01b031663a9059cbb60e01b17905261023b9084906103c5565b505050565b600082821115610297576040805162461bcd60e51b815260206004820152601e60248201527f536166654d6174683a207375627472616374696f6e206f766572666c6f770000604482015290519081900360640190fd5b50900390565b60008082116102f3576040805162461bcd60e51b815260206004820152601a60248201527f536166654d6174683a206469766973696f6e206279207a65726f000000000000604482015290519081900360640190fd5b8183816102fc57fe5b049392505050565b604080516001600160a01b0380861660248301528416604482015260648082018490528251808303909101815260849091019091526020810180516001600160e01b03166323b872dd60e01b17905261035e9085906103c5565b50505050565b6000828201838110156103be576040805162461bcd60e51b815260206004820152601b60248201527f536166654d6174683a206164646974696f6e206f766572666c6f770000000000604482015290519081900360640190fd5b9392505050565b606061041a826040518060400160405280602081526020017f5361666545524332303a206c6f772d6c6576656c2063616c6c206661696c6564815250856001600160a01b03166104769092919063ffffffff16565b80519091501561023b5780806020019051602081101561043957600080fd5b505161023b5760405162461bcd60e51b815260040180806020018281038252602a8152602001806106ba602a913960400191505060405180910390fd5b6060610485848460008561048d565b949350505050565b6060824710156104ce5760405162461bcd60e51b81526004018080602001828103825260268152602001806106946026913960400191505060405180910390fd5b6104d7856105e9565b610528576040805162461bcd60e51b815260206004820152601d60248201527f416464726573733a2063616c6c20746f206e6f6e2d636f6e7472616374000000604482015290519081900360640190fd5b60006060866001600160a01b031685876040518082805190602001908083835b602083106105675780518252601f199092019160209182019101610548565b6001836020036101000a03801982511681845116808217855250505050505090500191505060006040518083038185875af1925050503d80600081146105c9576040519150601f19603f3d011682016040523d82523d6000602084013e6105ce565b606091505b50915091506105de8282866105ef565b979650505050505050565b3b151590565b606083156105fe5750816103be565b82511561060e5782518084602001fd5b8160405162461bcd60e51b81526004018080602001828103825283818151815260200191508051906020019080838360005b83811015610658578181015183820152602001610640565b50505050905090810190601f1680156106855780820380516001836020036101000a031916815260200191505b509250505060405180910390fdfe416464726573733a20696e73756666696369656e742062616c616e636520666f722063616c6c5361666545524332303a204552433230206f7065726174696f6e20646964206e6f742073756363656564a2646970667358221220db134bdc5f7a85aab5b133dc797be652e60a05db5db924f2e6e0846346f12be164736f6c634300060c0033",
  "linkReferences": {},
  "deployedLinkReferences": {}
}