{
  "address": "0xbe9532432f05eb849f159F2b410829C36C95c5ec",
  "abi": [
    {
      "anonymous": false,
      "inputs": [
        {
          "indexed": true,
          "internalType": "address",
          "name": "owner",
          "type": "address"
        },
        {
          "indexed": true,
          "internalType": "address",
          "name": "spender",
          "type": "address"
        },
        {
          "indexed": false,
          "internalType": "uint256",
          "name": "value",
          "type": "uint256"
        }
      ],
      "name": "Approval",
      "type": "event"
    },
    {
      "anonymous": false,
      "inputs": [
        {
          "indexed": true,
          "internalType": "address",
          "name": "from",
          "type": "address"
        },
        {
          "indexed": true,
          "internalType": "address",
          "name": "to",
          "type": "address"
        },
        {
          "indexed": false,
          "internalType": "uint256",
          "name": "value",
          "type": "uint256"
        }
      ],
      "name": "Transfer",
      "type": "event"
    },
    {
      "inputs": [],
      "name": "DOMAIN_SEPARATOR",
      "outputs": [
        {
          "internalType": "bytes32",
          "name": "",
          "type": "bytes32"
        }
      ],
      "stateMutability": "view",
      "type": "function"
    },
    {
      "inputs": [
        {
          "internalType": "address",
          "name": "owner",
          "type": "address"
        },
        {
          "internalType": "address",
          "name": "spender",
          "type": "address"
        }
      ],
      "name": "allowance",
      "outputs": [
        {
          "internalType": "uint256",
          "name": "",
          "type": "uint256"
        }
      ],
      "stateMutability": "view",
      "type": "function"
    },
    {
      "inputs": [
        {
          "internalType": "address",
          "name": "spender",
          "type": "address"
        },
        {
          "internalType": "uint256",
          "name": "amount",
          "type": "uint256"
        }
      ],
      "name": "approve",
      "outputs": [
        {
          "internalType": "bool",
          "name": "",
          "type": "bool"
        }
      ],
      "stateMutability": "nonpayable",
      "type": "function"
    },
    {
      "inputs": [
        {
          "internalType": "address",
          "name": "account",
          "type": "address"
        }
      ],
      "name": "balanceOf",
      "outputs": [
        {
          "internalType": "uint256",
          "name": "",
          "type": "uint256"
        }
      ],
      "stateMutability": "view",
      "type": "function"
    },
    {
      "inputs": [],
      "name": "decimals",
      "outputs": [
        {
          "internalType": "uint8",
          "name": "",
          "type": "uint8"
        }
      ],
      "stateMutability": "view",
      "type": "function"
    },
    {
      "inputs": [
        {
          "internalType": "address",
          "name": "spender",
          "type": "address"
        },
        {
          "internalType": "uint256",
          "name": "subtractedValue",
          "type": "uint256"
        }
      ],
      "name": "decreaseAllowance",
      "outputs": [
        {
          "internalType": "bool",
          "name": "",
          "type": "bool"
        }
      ],
      "stateMutability": "nonpayable",
      "type": "function"
    },
    {
      "inputs": [
        {
          "internalType": "string",
          "name": "_name",
          "type": "string"
        },
        {
          "internalType": "string",
          "name": "_symbol",
          "type": "string"
        },
        {
          "internalType": "address",
          "name": "_owner",
          "type": "address"
        },
        {
          "internalType": "uint256",
          "name": "_initialSupply",
          "type": "uint256"
        }
      ],
      "name": "getInitData",
      "outputs": [
        {
          "internalType": "bytes",
          "name": "_data",
          "type": "bytes"
        }
      ],
      "stateMutability": "pure",
      "type": "function"
    },
    {
      "inputs": [
        {
          "internalType": "address",
          "name": "spender",
          "type": "address"
        },
        {
          "internalType": "uint256",
          "name": "addedValue",
          "type": "uint256"
        }
      ],
      "name": "increaseAllowance",
      "outputs": [
        {
          "internalType": "bool",
          "name": "",
          "type": "bool"
        }
      ],
      "stateMutability": "nonpayable",
      "type": "function"
    },
    {
      "inputs": [
        {
          "internalType": "bytes",
          "name": "_data",
          "type": "bytes"
        }
      ],
      "name": "init",
      "outputs": [],
      "stateMutability": "payable",
      "type": "function"
    },
    {
      "inputs": [
        {
          "internalType": "bytes",
          "name": "_data",
          "type": "bytes"
        }
      ],
      "name": "initToken",
      "outputs": [],
      "stateMutability": "nonpayable",
      "type": "function"
    },
    {
      "inputs": [
        {
          "internalType": "string",
          "name": "_name",
          "type": "string"
        },
        {
          "internalType": "string",
          "name": "_symbol",
          "type": "string"
        },
        {
          "internalType": "address",
          "name": "_owner",
          "type": "address"
        },
        {
          "internalType": "uint256",
          "name": "_initialSupply",
          "type": "uint256"
        }
      ],
      "name": "initToken",
      "outputs": [],
      "stateMutability": "nonpayable",
      "type": "function"
    },
    {
      "inputs": [],
      "name": "name",
      "outputs": [
        {
          "internalType": "string",
          "name": "",
          "type": "string"
        }
      ],
      "stateMutability": "view",
      "type": "function"
    },
    {
      "inputs": [
        {
          "internalType": "address",
          "name": "",
          "type": "address"
        }
      ],
      "name": "nonces",
      "outputs": [
        {
          "internalType": "uint256",
          "name": "",
          "type": "uint256"
        }
      ],
      "stateMutability": "view",
      "type": "function"
    },
    {
      "inputs": [
        {
          "internalType": "address",
          "name": "owner_",
          "type": "address"
        },
        {
          "internalType": "address",
          "name": "spender",
          "type": "address"
        },
        {
          "internalType": "uint256",
          "name": "value",
          "type": "uint256"
        },
        {
          "internalType": "uint256",
          "name": "deadline",
          "type": "uint256"
        },
        {
          "internalType": "uint8",
          "name": "v",
          "type": "uint8"
        },
        {
          "internalType": "bytes32",
          "name": "r",
          "type": "bytes32"
        },
        {
          "internalType": "bytes32",
          "name": "s",
          "type": "bytes32"
        }
      ],
      "name": "permit",
      "outputs": [],
      "stateMutability": "nonpayable",
      "type": "function"
    },
    {
      "inputs": [],
      "name": "symbol",
      "outputs": [
        {
          "internalType": "string",
          "name": "",
          "type": "string"
        }
      ],
      "stateMutability": "view",
      "type": "function"
    },
    {
      "inputs": [],
      "name": "tokenTemplate",
      "outputs": [
        {
          "internalType": "uint256",
          "name": "",
          "type": "uint256"
        }
      ],
      "stateMutability": "view",
      "type": "function"
    },
    {
      "inputs": [],
      "name": "totalSupply",
      "outputs": [
        {
          "internalType": "uint256",
          "name": "",
          "type": "uint256"
        }
      ],
      "stateMutability": "view",
      "type": "function"
    },
    {
      "inputs": [
        {
          "internalType": "address",
          "name": "recipient",
          "type": "address"
        },
        {
          "internalType": "uint256",
          "name": "amount",
          "type": "uint256"
        }
      ],
      "name": "transfer",
      "outputs": [
        {
          "internalType": "bool",
          "name": "",
          "type": "bool"
        }
      ],
      "stateMutability": "nonpayable",
      "type": "function"
    },
    {
      "inputs": [
        {
          "internalType": "address",
          "name": "sender",
          "type": "address"
        },
        {
          "internalType": "address",
          "name": "recipient",
          "type": "address"
        },
        {
          "internalType": "uint256",
          "name": "amount",
          "type": "uint256"
        }
      ],
      "name": "transferFrom",
      "outputs": [
        {
          "internalType": "bool",
          "name": "",
          "type": "bool"
        }
      ],
      "stateMutability": "nonpayable",
      "type": "function"
    }
  ],
  "transactionHash": "0x1d0e93315c2cf05657aa7db5df9eef9adeeabf649452a9ac2ceb281998b6eee1",
  "args": [],
  "solcInputHash": "d1b4fa5f316a6a8ee3524e1600e2925f",
  "bytecode": "0x608060405234801561001057600080fd5b5061160a806100206000396000f3fe6080604052600436106101145760003560e01c806360b1cc80116100a0578063a457c2d711610064578063a457c2d714610592578063a9059cbb146105cb578063d505accf14610604578063dd62ed3e14610662578063f21f007c1461069d57610114565b806360b1cc801461035857806370a08231146103d35780637ecebe00146104065780638dc7df721461043957806395d89b411461057d57610114565b806323b872dd116100e757806323b872dd1461022c578063313ce5671461026f5780633644e5151461029a57806339509351146102af5780634ddf47d4146102e857610114565b806306fdde03146101195780630814d3dd146101a3578063095ea7b3146101ca57806318160ddd14610217575b600080fd5b34801561012557600080fd5b5061012e610777565b6040805160208082528351818301528351919283929083019185019080838360005b83811015610168578181015183820152602001610150565b50505050905090810190601f1680156101955780820380516001836020036101000a031916815260200191505b509250505060405180910390f35b3480156101af57600080fd5b506101b861080d565b60408051918252519081900360200190f35b3480156101d657600080fd5b50610203600480360360408110156101ed57600080fd5b506001600160a01b038135169060200135610812565b604080519115158252519081900360200190f35b34801561022357600080fd5b506101b861082f565b34801561023857600080fd5b506102036004803603606081101561024f57600080fd5b506001600160a01b03813581169160208101359091169060400135610835565b34801561027b57600080fd5b506102846108bc565b6040805160ff9092168252519081900360200190f35b3480156102a657600080fd5b506101b86108c5565b3480156102bb57600080fd5b50610203600480360360408110156102d257600080fd5b506001600160a01b0381351690602001356108cb565b610356600480360360208110156102fe57600080fd5b810190602081018135600160201b81111561031857600080fd5b82018360208201111561032a57600080fd5b803590602001918460018302840111600160201b8311171561034b57600080fd5b509092509050610919565b005b34801561036457600080fd5b506103566004803603602081101561037b57600080fd5b810190602081018135600160201b81111561039557600080fd5b8201836020820111156103a757600080fd5b803590602001918460018302840111600160201b831117156103c857600080fd5b50909250905061091d565b3480156103df57600080fd5b506101b8600480360360208110156103f657600080fd5b50356001600160a01b0316610a6d565b34801561041257600080fd5b506101b86004803603602081101561042957600080fd5b50356001600160a01b0316610a88565b34801561044557600080fd5b506103566004803603608081101561045c57600080fd5b810190602081018135600160201b81111561047657600080fd5b82018360208201111561048857600080fd5b803590602001918460018302840111600160201b831117156104a957600080fd5b91908080601f0160208091040260200160405190810160405280939291908181526020018383808284376000920191909152509295949360208101935035915050600160201b8111156104fb57600080fd5b82018360208201111561050d57600080fd5b803590602001918460018302840111600160201b8311171561052e57600080fd5b91908080601f016020809104026020016040519081016040528093929190818152602001838380828437600092019190915250929550506001600160a01b038335169350505060200135610a9a565b34801561058957600080fd5b5061012e610ab4565b34801561059e57600080fd5b50610203600480360360408110156105b557600080fd5b506001600160a01b038135169060200135610b15565b3480156105d757600080fd5b50610203600480360360408110156105ee57600080fd5b506001600160a01b038135169060200135610b7d565b34801561061057600080fd5b50610356600480360360e081101561062757600080fd5b506001600160a01b03813581169160208101359091169060408101359060608101359060ff6080820135169060a08101359060c00135610b91565b34801561066e57600080fd5b506101b86004803603604081101561068557600080fd5b506001600160a01b0381358116916020013516610e30565b3480156106a957600080fd5b5061012e600480360360808110156106c057600080fd5b810190602081018135600160201b8111156106da57600080fd5b8201836020820111156106ec57600080fd5b803590602001918460018302840111600160201b8311171561070d57600080fd5b919390929091602081019035600160201b81111561072a57600080fd5b82018360208201111561073c57600080fd5b803590602001918460018302840111600160201b8311171561075d57600080fd5b91935091506001600160a01b038135169060200135610e5b565b60058054604080516020601f60026000196101006001881615020190951694909404938401819004810282018101909252828152606093909290918301828280156108035780601f106107d857610100808354040283529160200191610803565b820191906000526020600020905b8154815290600101906020018083116107e657829003601f168201915b5050505050905090565b600181565b600061082661081f610ef8565b8484610efc565b50600192915050565b60045490565b6000610842848484610fe8565b6108b28461084e610ef8565b6108ad8560405180606001604052806028815260200161153f602891396001600160a01b038a1660009081526003602052604081209061088c610ef8565b6001600160a01b031681526020810191909152604001600020549190611145565b610efc565b5060019392505050565b60075460ff1690565b60005481565b60006108266108d8610ef8565b846108ad85600360006108e9610ef8565b6001600160a01b03908116825260208083019390935260409182016000908120918c1681529252902054906111dc565b5050565b6060806000808585608081101561093357600080fd5b810190602081018135600160201b81111561094d57600080fd5b82018360208201111561095f57600080fd5b803590602001918460018302840111600160201b8311171561098057600080fd5b91908080601f0160208091040260200160405190810160405280939291908181526020018383808284376000920191909152509295949360208101935035915050600160201b8111156109d257600080fd5b8201836020820111156109e457600080fd5b803590602001918460018302840111600160201b83111715610a0557600080fd5b91908080601f016020809104026020016040519081016040528093929190818152602001838380828437600092019190915250969a50919850506001600160a01b03823516965050602001359350610a6592508691508590508484610a9a565b505050505050565b6001600160a01b031660009081526001602052604090205490565b60026020526000908152604090205481565b610aa4848461123d565b610aae338261131f565b50505050565b60068054604080516020601f60026000196101006001881615020190951694909404938401819004810282018101909252828152606093909290918301828280156108035780601f106107d857610100808354040283529160200191610803565b6000610826610b22610ef8565b846108ad856040518060600160405280602581526020016115b06025913960036000610b4c610ef8565b6001600160a01b03908116825260208083019390935260409182016000908120918d16815292529020549190611145565b6000610826610b8a610ef8565b8484610fe8565b6001600160a01b038716610bec576040805162461bcd60e51b815260206004820152601860248201527f45524332303a204f776e65722063616e6e6f7420626520300000000000000000604482015290519081900360640190fd5b834210610c31576040805162461bcd60e51b815260206004820152600e60248201526d115490cc8c0e88115e1c1a5c995960921b604482015290519081900360640190fd5b604080518082018252600280825261190160f01b6020808401918252600080546001600160a01b03808f1680845295845287832080546001810190915588517f6e71edae12b1b97f4d1f60370fef10105fa2faae0126114a169c64845d6126c981870152808a0197909752908e166060870152608086018d905260a086015260c08086018c90528751808703909101815260e0860190975286519690920195909520845191939092610100909101918291908083835b60208310610d065780518252601f199092019160209182019101610ce7565b51815160209384036101000a6000190180199092169116179052920194855250838101929092525060408051808403830181528184018083528151918401919091206000918290526060850180845281905260ff8a16608086015260a0850189905260c085018890529151919550935060019260e08082019392601f1981019281900390910190855afa158015610da1573d6000803e3d6000fd5b505050602060405103519050886001600160a01b0316816001600160a01b031614610e13576040805162461bcd60e51b815260206004820152601860248201527f45524332303a20496e76616c6964205369676e61747572650000000000000000604482015290519081900360640190fd5b610e25610e1e610ef8565b8989610efc565b505050505050505050565b6001600160a01b03918216600090815260036020908152604080832093909416825291909152205490565b6060868686868686604051602001808060200180602001856001600160a01b031681526020018481526020018381038352898982818152602001925080828437600083820152601f01601f19169091018481038352878152602001905087878082843760008382015260408051601f909201601f199081169094018281039094018252929092525099505050505050505050509695505050505050565b3390565b6001600160a01b038316610f415760405162461bcd60e51b815260040180806020018281038252602481526020018061158c6024913960400191505060405180910390fd5b6001600160a01b038216610f865760405162461bcd60e51b81526004018080602001828103825260228152602001806114cd6022913960400191505060405180910390fd5b6001600160a01b03808416600081815260036020908152604080832094871680845294825291829020859055815185815291517f8c5be1e5ebec7d5bd14f71427d1e84f3dd0314c0f7b2291e5b200ac8c7c3b9259281900390910190a3505050565b6001600160a01b03831661102d5760405162461bcd60e51b81526004018080602001828103825260258152602001806115676025913960400191505060405180910390fd5b6001600160a01b0382166110725760405162461bcd60e51b81526004018080602001828103825260238152602001806114aa6023913960400191505060405180910390fd5b61107d838383611411565b6110ba816040518060600160405280602681526020016114ef602691396001600160a01b0386166000908152600160205260409020549190611145565b6001600160a01b0380851660009081526001602052604080822093909355908416815220546110e990826111dc565b6001600160a01b0380841660008181526001602090815260409182902094909455805185815290519193928716927fddf252ad1be2c89b69c2b068fc378daa952ba7f163c4a11628f55a4df523b3ef92918290030190a3505050565b600081848411156111d45760405162461bcd60e51b81526004018080602001828103825283818151815260200191508051906020019080838360005b83811015611199578181015183820152602001611181565b50505050905090810190601f1680156111c65780820380516001836020036101000a031916815260200191505b509250505060405180910390fd5b505050900390565b600082820183811015611236576040805162461bcd60e51b815260206004820152601b60248201527f536166654d6174683a206164646974696f6e206f766572666c6f770000000000604482015290519081900360640190fd5b9392505050565b600754610100900460ff16156112845760405162461bcd60e51b815260040180806020018281038252602a815260200180611515602a913960400191505060405180910390fd5b8151611297906005906020850190611416565b5080516112ab906006906020840190611416565b505060078054604080517f47e79534a245952e8b16893a336b85a3d9ea9fa8c573f3d803afb92a79469218602080830191909152468284015230606080840191909152835180840390910181526080909201909252805191012060005561ff001960ff199091166012171661010017905550565b6001600160a01b03821661137a576040805162461bcd60e51b815260206004820152601f60248201527f45524332303a206d696e7420746f20746865207a65726f206164647265737300604482015290519081900360640190fd5b61138660008383611411565b60045461139390826111dc565b6004556001600160a01b0382166000908152600160205260409020546113b990826111dc565b6001600160a01b03831660008181526001602090815260408083209490945583518581529351929391927fddf252ad1be2c89b69c2b068fc378daa952ba7f163c4a11628f55a4df523b3ef9281900390910190a35050565b505050565b828054600181600116156101000203166002900490600052602060002090601f016020900481019282601f1061145757805160ff1916838001178555611484565b82800160010185558215611484579182015b82811115611484578251825591602001919060010190611469565b50611490929150611494565b5090565b5b80821115611490576000815560010161149556fe45524332303a207472616e7366657220746f20746865207a65726f206164647265737345524332303a20617070726f766520746f20746865207a65726f206164647265737345524332303a207472616e7366657220616d6f756e7420657863656564732062616c616e636545524332303a20746f6b656e2068617320616c7265616479206265656e20696e697469616c697a65642145524332303a207472616e7366657220616d6f756e74206578636565647320616c6c6f77616e636545524332303a207472616e736665722066726f6d20746865207a65726f206164647265737345524332303a20617070726f76652066726f6d20746865207a65726f206164647265737345524332303a2064656372656173656420616c6c6f77616e63652062656c6f77207a65726fa26469706673582212200d302b19684c310621c6a2c3b08dda4f534f6f41b37fe29762005dcf779f6ad364736f6c634300060c0033",
  "devdoc": {
    "kind": "dev",
    "methods": {
      "allowance(address,address)": {
        "details": "See {IERC20-allowance}."
      },
      "approve(address,uint256)": {
        "details": "See {IERC20-approve}. Requirements: - `spender` cannot be the zero address."
      },
      "balanceOf(address)": {
        "details": "See {IERC20-balanceOf}."
      },
      "decimals()": {
        "details": "Returns the number of decimals used to get its user representation. For example, if `decimals` equals `2`, a balance of `505` tokens should be displayed to a user as `5,05` (`505 / 10 ** 2`). Tokens usually opt for a value of 18, imitating the relationship between Ether and Wei. This is the value {ERC20} uses, unless {_setupDecimals} is called. NOTE: This information is only used for _display_ purposes: it in no way affects any of the arithmetic of the contract, including {IERC20-balanceOf} and {IERC20-transfer}."
      },
      "decreaseAllowance(address,uint256)": {
        "details": "Atomically decreases the allowance granted to `spender` by the caller. This is an alternative to {approve} that can be used as a mitigation for problems described in {IERC20-approve}. Emits an {Approval} event indicating the updated allowance. Requirements: - `spender` cannot be the zero address. - `spender` must have allowance for the caller of at least `subtractedValue`."
      },
      "getInitData(string,string,address,uint256)": {
        "details": "Generates init data for Farm Factory",
        "params": {
          "_initialSupply": "Amount of tokens minted on creation",
          "_name": "- Token name",
          "_owner": "- Contract owner",
          "_symbol": "- Token symbol"
        }
      },
      "increaseAllowance(address,uint256)": {
        "details": "Atomically increases the allowance granted to `spender` by the caller. This is an alternative to {approve} that can be used as a mitigation for problems described in {IERC20-approve}. Emits an {Approval} event indicating the updated allowance. Requirements: - `spender` cannot be the zero address."
      },
      "initToken(string,string,address,uint256)": {
        "details": "First set the token variables. This can only be done once"
      },
      "name()": {
        "details": "Returns the name of the token."
      },
      "permit(address,address,uint256,uint256,uint8,bytes32,bytes32)": {
        "params": {
          "deadline": "This permit must be redeemed before this deadline (UTC timestamp in seconds).",
          "owner_": "Address of the owner.",
          "spender": "The address of the spender that gets approved to draw from `owner_`.",
          "value": "The maximum collective amount that `spender` can draw."
        }
      },
      "symbol()": {
        "details": "Returns the symbol of the token, usually a shorter version of the name."
      },
      "totalSupply()": {
        "details": "See {IERC20-totalSupply}."
      },
      "transfer(address,uint256)": {
        "details": "See {IERC20-transfer}. Requirements: - `recipient` cannot be the zero address. - the caller must have a balance of at least `amount`."
      },
      "transferFrom(address,address,uint256)": {
        "details": "See {IERC20-transferFrom}. Emits an {Approval} event indicating the updated allowance. This is not required by the EIP. See the note at the beginning of {ERC20}; Requirements: - `sender` and `recipient` cannot be the zero address. - `sender` must have a balance of at least `amount`. - the caller must have allowance for ``sender``'s tokens of at least `amount`."
      }
    },
    "stateVariables": {
      "tokenTemplate": {
        "details": "For different token types, this must be incremented."
      }
    },
    "version": 1
  },
  "userdoc": {
    "kind": "user",
    "methods": {
      "permit(address,address,uint256,uint256,uint8,bytes32,bytes32)": {
        "notice": "Approves `value` from `owner_` to be spend by `spender`."
      },
      "tokenTemplate()": {
        "notice": "Miso template id for the token factory."
      }
    },
    "version": 1
  },
  "storageLayout": {
    "storage": [
      {
        "astId": 18193,
        "contract": "contracts/Tokens/FixedToken.sol:FixedToken",
        "label": "DOMAIN_SEPARATOR",
        "offset": 0,
        "slot": "0",
        "type": "t_bytes32"
      },
      {
        "astId": 18197,
        "contract": "contracts/Tokens/FixedToken.sol:FixedToken",
        "label": "_balances",
        "offset": 0,
        "slot": "1",
        "type": "t_mapping(t_address,t_uint256)"
      },
      {
        "astId": 18201,
        "contract": "contracts/Tokens/FixedToken.sol:FixedToken",
        "label": "nonces",
        "offset": 0,
        "slot": "2",
        "type": "t_mapping(t_address,t_uint256)"
      },
      {
        "astId": 18207,
        "contract": "contracts/Tokens/FixedToken.sol:FixedToken",
        "label": "_allowances",
        "offset": 0,
        "slot": "3",
        "type": "t_mapping(t_address,t_mapping(t_address,t_uint256))"
      },
      {
        "astId": 18209,
        "contract": "contracts/Tokens/FixedToken.sol:FixedToken",
        "label": "_totalSupply",
        "offset": 0,
        "slot": "4",
        "type": "t_uint256"
      },
      {
        "astId": 18211,
        "contract": "contracts/Tokens/FixedToken.sol:FixedToken",
        "label": "_name",
        "offset": 0,
        "slot": "5",
        "type": "t_string_storage"
      },
      {
        "astId": 18213,
        "contract": "contracts/Tokens/FixedToken.sol:FixedToken",
        "label": "_symbol",
        "offset": 0,
        "slot": "6",
        "type": "t_string_storage"
      },
      {
        "astId": 18215,
        "contract": "contracts/Tokens/FixedToken.sol:FixedToken",
        "label": "_decimals",
        "offset": 0,
        "slot": "7",
        "type": "t_uint8"
      },
      {
        "astId": 18217,
        "contract": "contracts/Tokens/FixedToken.sol:FixedToken",
        "label": "_initialized",
        "offset": 1,
        "slot": "7",
        "type": "t_bool"
      }
    ],
    "types": {
      "t_address": {
        "encoding": "inplace",
        "label": "address",
        "numberOfBytes": "20"
      },
      "t_bool": {
        "encoding": "inplace",
        "label": "bool",
        "numberOfBytes": "1"
      },
      "t_bytes32": {
        "encoding": "inplace",
        "label": "bytes32",
        "numberOfBytes": "32"
      },
      "t_mapping(t_address,t_mapping(t_address,t_uint256))": {
        "encoding": "mapping",
        "key": "t_address",
        "label": "mapping(address => mapping(address => uint256))",
        "numberOfBytes": "32",
        "value": "t_mapping(t_address,t_uint256)"
      },
      "t_mapping(t_address,t_uint256)": {
        "encoding": "mapping",
        "key": "t_address",
        "label": "mapping(address => uint256)",
        "numberOfBytes": "32",
        "value": "t_uint256"
      },
      "t_string_storage": {
        "encoding": "bytes",
        "label": "string",
        "numberOfBytes": "32"
      },
      "t_uint256": {
        "encoding": "inplace",
        "label": "uint256",
        "numberOfBytes": "32"
      },
      "t_uint8": {
        "encoding": "inplace",
        "label": "uint8",
        "numberOfBytes": "1"
      }
    }
  }
}