{
  "address": "0xe5aa0215da6BDdA22127aF00A305d67bB06494d4",
  "abi": [
    {
      "inputs": [],
      "stateMutability": "nonpayable",
      "type": "constructor"
    },
    {
      "anonymous": false,
      "inputs": [
        {
          "indexed": true,
          "internalType": "address",
          "name": "beneficiary",
          "type": "address"
        },
        {
          "indexed": true,
          "internalType": "address",
          "name": "caller",
          "type": "address"
        }
      ],
      "name": "AdminRoleGranted",
      "type": "event"
    },
    {
      "anonymous": false,
      "inputs": [
        {
          "indexed": true,
          "internalType": "address",
          "name": "beneficiary",
          "type": "address"
        },
        {
          "indexed": true,
          "internalType": "address",
          "name": "caller",
          "type": "address"
        }
      ],
      "name": "AdminRoleRemoved",
      "type": "event"
    },
    {
      "anonymous": false,
      "inputs": [
        {
          "indexed": true,
          "internalType": "address",
          "name": "beneficiary",
          "type": "address"
        },
        {
          "indexed": true,
          "internalType": "address",
          "name": "caller",
          "type": "address"
        }
      ],
      "name": "MinterRoleGranted",
      "type": "event"
    },
    {
      "anonymous": false,
      "inputs": [
        {
          "indexed": true,
          "internalType": "address",
          "name": "beneficiary",
          "type": "address"
        },
        {
          "indexed": true,
          "internalType": "address",
          "name": "caller",
          "type": "address"
        }
      ],
      "name": "MinterRoleRemoved",
      "type": "event"
    },
    {
      "anonymous": false,
      "inputs": [
        {
          "indexed": true,
          "internalType": "address",
          "name": "beneficiary",
          "type": "address"
        },
        {
          "indexed": true,
          "internalType": "address",
          "name": "caller",
          "type": "address"
        }
      ],
      "name": "OperatorRoleGranted",
      "type": "event"
    },
    {
      "anonymous": false,
      "inputs": [
        {
          "indexed": true,
          "internalType": "address",
          "name": "beneficiary",
          "type": "address"
        },
        {
          "indexed": true,
          "internalType": "address",
          "name": "caller",
          "type": "address"
        }
      ],
      "name": "OperatorRoleRemoved",
      "type": "event"
    },
    {
      "anonymous": false,
      "inputs": [
        {
          "indexed": true,
          "internalType": "bytes32",
          "name": "role",
          "type": "bytes32"
        },
        {
          "indexed": true,
          "internalType": "bytes32",
          "name": "previousAdminRole",
          "type": "bytes32"
        },
        {
          "indexed": true,
          "internalType": "bytes32",
          "name": "newAdminRole",
          "type": "bytes32"
        }
      ],
      "name": "RoleAdminChanged",
      "type": "event"
    },
    {
      "anonymous": false,
      "inputs": [
        {
          "indexed": true,
          "internalType": "bytes32",
          "name": "role",
          "type": "bytes32"
        },
        {
          "indexed": true,
          "internalType": "address",
          "name": "account",
          "type": "address"
        },
        {
          "indexed": true,
          "internalType": "address",
          "name": "sender",
          "type": "address"
        }
      ],
      "name": "RoleGranted",
      "type": "event"
    },
    {
      "anonymous": false,
      "inputs": [
        {
          "indexed": true,
          "internalType": "bytes32",
          "name": "role",
          "type": "bytes32"
        },
        {
          "indexed": true,
          "internalType": "address",
          "name": "account",
          "type": "address"
        },
        {
          "indexed": true,
          "internalType": "address",
          "name": "sender",
          "type": "address"
        }
      ],
      "name": "RoleRevoked",
      "type": "event"
    },
    {
      "anonymous": false,
      "inputs": [
        {
          "indexed": true,
          "internalType": "address",
          "name": "beneficiary",
          "type": "address"
        },
        {
          "indexed": true,
          "internalType": "address",
          "name": "caller",
          "type": "address"
        }
      ],
      "name": "SmartContractRoleGranted",
      "type": "event"
    },
    {
      "anonymous": false,
      "inputs": [
        {
          "indexed": true,
          "internalType": "address",
          "name": "beneficiary",
          "type": "address"
        },
        {
          "indexed": true,
          "internalType": "address",
          "name": "caller",
          "type": "address"
        }
      ],
      "name": "SmartContractRoleRemoved",
      "type": "event"
    },
    {
      "inputs": [],
      "name": "DEFAULT_ADMIN_ROLE",
      "outputs": [
        {
          "internalType": "bytes32",
          "name": "",
          "type": "bytes32"
        }
      ],
      "stateMutability": "view",
      "type": "function"
    },
    {
      "inputs": [],
      "name": "MINTER_ROLE",
      "outputs": [
        {
          "internalType": "bytes32",
          "name": "",
          "type": "bytes32"
        }
      ],
      "stateMutability": "view",
      "type": "function"
    },
    {
      "inputs": [],
      "name": "OPERATOR_ROLE",
      "outputs": [
        {
          "internalType": "bytes32",
          "name": "",
          "type": "bytes32"
        }
      ],
      "stateMutability": "view",
      "type": "function"
    },
    {
      "inputs": [],
      "name": "SMART_CONTRACT_ROLE",
      "outputs": [
        {
          "internalType": "bytes32",
          "name": "",
          "type": "bytes32"
        }
      ],
      "stateMutability": "view",
      "type": "function"
    },
    {
      "inputs": [
        {
          "internalType": "address",
          "name": "_address",
          "type": "address"
        }
      ],
      "name": "addAdminRole",
      "outputs": [],
      "stateMutability": "nonpayable",
      "type": "function"
    },
    {
      "inputs": [
        {
          "internalType": "address",
          "name": "_address",
          "type": "address"
        }
      ],
      "name": "addMinterRole",
      "outputs": [],
      "stateMutability": "nonpayable",
      "type": "function"
    },
    {
      "inputs": [
        {
          "internalType": "address",
          "name": "_address",
          "type": "address"
        }
      ],
      "name": "addOperatorRole",
      "outputs": [],
      "stateMutability": "nonpayable",
      "type": "function"
    },
    {
      "inputs": [
        {
          "internalType": "address",
          "name": "_address",
          "type": "address"
        }
      ],
      "name": "addSmartContractRole",
      "outputs": [],
      "stateMutability": "nonpayable",
      "type": "function"
    },
    {
      "inputs": [
        {
          "internalType": "bytes32",
          "name": "role",
          "type": "bytes32"
        }
      ],
      "name": "getRoleAdmin",
      "outputs": [
        {
          "internalType": "bytes32",
          "name": "",
          "type": "bytes32"
        }
      ],
      "stateMutability": "view",
      "type": "function"
    },
    {
      "inputs": [
        {
          "internalType": "bytes32",
          "name": "role",
          "type": "bytes32"
        },
        {
          "internalType": "uint256",
          "name": "index",
          "type": "uint256"
        }
      ],
      "name": "getRoleMember",
      "outputs": [
        {
          "internalType": "address",
          "name": "",
          "type": "address"
        }
      ],
      "stateMutability": "view",
      "type": "function"
    },
    {
      "inputs": [
        {
          "internalType": "bytes32",
          "name": "role",
          "type": "bytes32"
        }
      ],
      "name": "getRoleMemberCount",
      "outputs": [
        {
          "internalType": "uint256",
          "name": "",
          "type": "uint256"
        }
      ],
      "stateMutability": "view",
      "type": "function"
    },
    {
      "inputs": [
        {
          "internalType": "bytes32",
          "name": "role",
          "type": "bytes32"
        },
        {
          "internalType": "address",
          "name": "account",
          "type": "address"
        }
      ],
      "name": "grantRole",
      "outputs": [],
      "stateMutability": "nonpayable",
      "type": "function"
    },
    {
      "inputs": [
        {
          "internalType": "address",
          "name": "_address",
          "type": "address"
        }
      ],
      "name": "hasAdminRole",
      "outputs": [
        {
          "internalType": "bool",
          "name": "",
          "type": "bool"
        }
      ],
      "stateMutability": "view",
      "type": "function"
    },
    {
      "inputs": [
        {
          "internalType": "address",
          "name": "_address",
          "type": "address"
        }
      ],
      "name": "hasMinterRole",
      "outputs": [
        {
          "internalType": "bool",
          "name": "",
          "type": "bool"
        }
      ],
      "stateMutability": "view",
      "type": "function"
    },
    {
      "inputs": [
        {
          "internalType": "address",
          "name": "_address",
          "type": "address"
        }
      ],
      "name": "hasOperatorRole",
      "outputs": [
        {
          "internalType": "bool",
          "name": "",
          "type": "bool"
        }
      ],
      "stateMutability": "view",
      "type": "function"
    },
    {
      "inputs": [
        {
          "internalType": "bytes32",
          "name": "role",
          "type": "bytes32"
        },
        {
          "internalType": "address",
          "name": "account",
          "type": "address"
        }
      ],
      "name": "hasRole",
      "outputs": [
        {
          "internalType": "bool",
          "name": "",
          "type": "bool"
        }
      ],
      "stateMutability": "view",
      "type": "function"
    },
    {
      "inputs": [
        {
          "internalType": "address",
          "name": "_address",
          "type": "address"
        }
      ],
      "name": "hasSmartContractRole",
      "outputs": [
        {
          "internalType": "bool",
          "name": "",
          "type": "bool"
        }
      ],
      "stateMutability": "view",
      "type": "function"
    },
    {
      "inputs": [
        {
          "internalType": "address",
          "name": "_admin",
          "type": "address"
        }
      ],
      "name": "initAccessControls",
      "outputs": [],
      "stateMutability": "nonpayable",
      "type": "function"
    },
    {
      "inputs": [
        {
          "internalType": "address",
          "name": "_address",
          "type": "address"
        }
      ],
      "name": "removeAdminRole",
      "outputs": [],
      "stateMutability": "nonpayable",
      "type": "function"
    },
    {
      "inputs": [
        {
          "internalType": "address",
          "name": "_address",
          "type": "address"
        }
      ],
      "name": "removeMinterRole",
      "outputs": [],
      "stateMutability": "nonpayable",
      "type": "function"
    },
    {
      "inputs": [
        {
          "internalType": "address",
          "name": "_address",
          "type": "address"
        }
      ],
      "name": "removeOperatorRole",
      "outputs": [],
      "stateMutability": "nonpayable",
      "type": "function"
    },
    {
      "inputs": [
        {
          "internalType": "address",
          "name": "_address",
          "type": "address"
        }
      ],
      "name": "removeSmartContractRole",
      "outputs": [],
      "stateMutability": "nonpayable",
      "type": "function"
    },
    {
      "inputs": [
        {
          "internalType": "bytes32",
          "name": "role",
          "type": "bytes32"
        },
        {
          "internalType": "address",
          "name": "account",
          "type": "address"
        }
      ],
      "name": "renounceRole",
      "outputs": [],
      "stateMutability": "nonpayable",
      "type": "function"
    },
    {
      "inputs": [
        {
          "internalType": "bytes32",
          "name": "role",
          "type": "bytes32"
        },
        {
          "internalType": "address",
          "name": "account",
          "type": "address"
        }
      ],
      "name": "revokeRole",
      "outputs": [],
      "stateMutability": "nonpayable",
      "type": "function"
    }
  ],
  "transactionHash": "0x035d0316ed0704b5307cda52e17d047799468a12be88d382e3abdafe0de38d87",
  "args": [],
  "solcInputHash": "d1b4fa5f316a6a8ee3524e1600e2925f",
  "bytecode": "0x608060405234801561001057600080fd5b50610e40806100206000396000f3fe608060405234801561001057600080fd5b50600436106101585760003560e01c80639478941c116100c3578063d53913931161007c578063d53913931461040e578063d547741f14610416578063dccfe31014610442578063e6594abd14610468578063f5b541a61461048e578063fc4e3e0a1461049657610158565b80639478941c14610351578063a217fddf14610377578063adbf37761461037f578063b7928b1d146103a5578063c395fcb3146103cb578063ca15c873146103f157610158565b806354f1e1261161011557806354f1e1261461026c5780636595171c14610292578063857d2608146102b85780638a845fc0146102c05780639010d07c146102e657806391d148541461032557610158565b8063099db0171461015d578063113b0ab214610197578063248a9ca3146101bd5780632f2ff15d146101ec57806336568abe1461021a5780633f16431a14610246575b600080fd5b6101836004803603602081101561017357600080fd5b50356001600160a01b03166104bc565b604080519115158252519081900360200190f35b610183600480360360208110156101ad57600080fd5b50356001600160a01b03166104dc565b6101da600480360360208110156101d357600080fd5b50356104f6565b60408051918252519081900360200190f35b6102186004803603604081101561020257600080fd5b50803590602001356001600160a01b031661050b565b005b6102186004803603604081101561023057600080fd5b50803590602001356001600160a01b0316610577565b6102186004803603602081101561025c57600080fd5b50356001600160a01b03166105d8565b6102186004803603602081101561028257600080fd5b50356001600160a01b031661063a565b610218600480360360208110156102a857600080fd5b50356001600160a01b031661069c565b6101da6106f1565b610218600480360360208110156102d657600080fd5b50356001600160a01b0316610703565b610309600480360360408110156102fc57600080fd5b5080359060200135610765565b604080516001600160a01b039092168252519081900360200190f35b6101836004803603604081101561033b57600080fd5b50803590602001356001600160a01b0316610784565b6102186004803603602081101561036757600080fd5b50356001600160a01b031661079c565b6101da6107fe565b6102186004803603602081101561039557600080fd5b50356001600160a01b0316610803565b610218600480360360208110156103bb57600080fd5b50356001600160a01b0316610865565b610183600480360360208110156103e157600080fd5b50356001600160a01b03166108c7565b6101da6004803603602081101561040757600080fd5b50356108d3565b6101da6108ea565b6102186004803603604081101561042c57600080fd5b50803590602001356001600160a01b03166108fc565b6102186004803603602081101561045857600080fd5b50356001600160a01b0316610955565b6102186004803603602081101561047e57600080fd5b50356001600160a01b03166109aa565b6101da610a12565b610183600480360360208110156104ac57600080fd5b50356001600160a01b0316610a24565b60006104d6600080516020610dbc83398151915283610784565b92915050565b60006104d6600080516020610d4c83398151915283610784565b60009081526020819052604090206002015490565b60008281526020819052604090206002015461052e90610529610a3e565b610784565b6105695760405162461bcd60e51b815260040180806020018281038252602f815260200180610d1d602f913960400191505060405180910390fd5b6105738282610a42565b5050565b61057f610a3e565b6001600160a01b0316816001600160a01b0316146105ce5760405162461bcd60e51b815260040180806020018281038252602f815260200180610ddc602f913960400191505060405180910390fd5b6105738282610aab565b6105f0600080516020610d4c8339815191528261050b565b6105f8610a3e565b6001600160a01b0316816001600160a01b03167f1d5f9ec24c6f91be922ea13ceaad919ad6554a41b5c26087f96289a9baf98ad260405160405180910390a350565b610652600080516020610dbc833981519152826108fc565b61065a610a3e565b6001600160a01b0316816001600160a01b03167f56692a161ffec953ddf9def93b958ea8d1ec95e21b80870c66be91a4374dc4e360405160405180910390a350565b6106a760008261050b565b6106af610a3e565b6001600160a01b0316816001600160a01b03167f2570ac42fd8b322dc453ada624dc2ed0e9bdd67f16f201a25bbd30468f2aa18760405160405180910390a350565b600080516020610d4c83398151915281565b61071b600080516020610d4c833981519152826108fc565b610723610a3e565b6001600160a01b0316816001600160a01b03167fe5f1aa9e528307345194b88b24a32401c13926e0823060f1049d9b26c0bb62b260405160405180910390a350565b600082815260208190526040812061077d9083610b14565b9392505050565b600082815260208190526040812061077d9083610b20565b6107b4600080516020610d9c833981519152826108fc565b6107bc610a3e565b6001600160a01b0316816001600160a01b03167f70b25138b6fadeb9992d18b9653564271823e34b3e3257515d12a6d4b15fcddf60405160405180910390a350565b600081565b61081b600080516020610dbc8339815191528261050b565b610823610a3e565b6001600160a01b0316816001600160a01b03167f0be6ab9784c7401fafb73f7bc47bc67cc4ef8c47a60ad3cb66d1de0353a0784c60405160405180910390a350565b61087d600080516020610d9c8339815191528261050b565b610885610a3e565b6001600160a01b0316816001600160a01b03167f2d45ee102874989882745a26688d0b4fffee125a18df26536b12582c7fde4e1760405160405180910390a350565b60006104d68183610784565b60008181526020819052604081206104d690610b35565b600080516020610dbc83398151915281565b60008281526020819052604090206002015461091a90610529610a3e565b6105ce5760405162461bcd60e51b8152600401808060200182810382526030815260200180610d6c6030913960400191505060405180910390fd5b6109606000826108fc565b610968610a3e565b6001600160a01b0316816001600160a01b03167f21ba1239795d4e22874e3dc55f0a9d7b65bfb23069d32965d7c23be9524ccf9560405160405180910390a350565b60015460ff16156109f8576040805162461bcd60e51b8152602060048201526013602482015272105b1c9958591e481a5b9a5d1a585b1a5cd959606a1b604482015290519081900360640190fd5b610a03600082610569565b506001805460ff191681179055565b600080516020610d9c83398151915281565b60006104d6600080516020610d9c83398151915283610784565b3390565b6000828152602081905260409020610a5a9082610b40565b1561057357610a67610a3e565b6001600160a01b0316816001600160a01b0316837f2f8788117e7eff1d82e926ec794901d17c78024a50270940304540a733656f0d60405160405180910390a45050565b6000828152602081905260409020610ac39082610b55565b1561057357610ad0610a3e565b6001600160a01b0316816001600160a01b0316837ff6391f5c32d9c69d2a47ea670b442974b53935d1edc7fd64eb21e047a839171b60405160405180910390a45050565b600061077d8383610b6a565b600061077d836001600160a01b038416610bce565b60006104d682610be6565b600061077d836001600160a01b038416610bea565b600061077d836001600160a01b038416610c34565b81546000908210610bac5760405162461bcd60e51b8152600401808060200182810382526022815260200180610cfb6022913960400191505060405180910390fd5b826000018281548110610bbb57fe5b9060005260206000200154905092915050565b60009081526001919091016020526040902054151590565b5490565b6000610bf68383610bce565b610c2c575081546001818101845560008481526020808220909301849055845484825282860190935260409020919091556104d6565b5060006104d6565b60008181526001830160205260408120548015610cf05783546000198083019190810190600090879083908110610c6757fe5b9060005260206000200154905080876000018481548110610c8457fe5b600091825260208083209091019290925582815260018981019092526040902090840190558654879080610cb457fe5b600190038181906000526020600020016000905590558660010160008781526020019081526020016000206000905560019450505050506104d6565b60009150506104d656fe456e756d657261626c655365743a20696e646578206f7574206f6620626f756e6473416363657373436f6e74726f6c3a2073656e646572206d75737420626520616e2061646d696e20746f206772616e749d49f397ae9ef1a834b569acb967799a367061e305932181a44f5773da873bfd416363657373436f6e74726f6c3a2073656e646572206d75737420626520616e2061646d696e20746f207265766f6b6597667070c54ef182b0f5858b034beac1b6f3089aa2d3188bb1e8929f4fa9b9299f2df0fed2c77648de5860a4cc508cd0818c85b8b8a1ab4ceeef8d981c8956a6416363657373436f6e74726f6c3a2063616e206f6e6c792072656e6f756e636520726f6c657320666f722073656c66a2646970667358221220e270ba8569b386ebc26d9863095cd62f3bb8c4c9538f337c01e01d6c53baad8e64736f6c634300060c0033",
  "devdoc": {
    "author": "Attr: BlockRocket.tech",
    "kind": "dev",
    "methods": {
      "addAdminRole(address)": {
        "details": "The sender must have the admin role.",
        "params": {
          "_address": "EOA or contract receiving the new role."
        }
      },
      "addMinterRole(address)": {
        "details": "The sender must have the admin role",
        "params": {
          "_address": "EOA or contract receiving the new role"
        }
      },
      "addOperatorRole(address)": {
        "details": "The sender must have the admin role",
        "params": {
          "_address": "EOA or contract receiving the new role"
        }
      },
      "addSmartContractRole(address)": {
        "details": "The sender must have the admin role",
        "params": {
          "_address": "EOA or contract receiving the new role"
        }
      },
      "getRoleAdmin(bytes32)": {
        "details": "Returns the admin role that controls `role`. See {grantRole} and {revokeRole}. To change a role's admin, use {_setRoleAdmin}."
      },
      "getRoleMember(bytes32,uint256)": {
        "details": "Returns one of the accounts that have `role`. `index` must be a value between 0 and {getRoleMemberCount}, non-inclusive. Role bearers are not sorted in any particular way, and their ordering may change at any point. WARNING: When using {getRoleMember} and {getRoleMemberCount}, make sure you perform all queries on the same block. See the following https://forum.openzeppelin.com/t/iterating-over-elements-on-enumerableset-in-openzeppelin-contracts/2296[forum post] for more information."
      },
      "getRoleMemberCount(bytes32)": {
        "details": "Returns the number of accounts that have `role`. Can be used together with {getRoleMember} to enumerate all bearers of a role."
      },
      "grantRole(bytes32,address)": {
        "details": "Grants `role` to `account`. If `account` had not been already granted `role`, emits a {RoleGranted} event. Requirements: - the caller must have ``role``'s admin role."
      },
      "hasAdminRole(address)": {
        "params": {
          "_address": "EOA or contract being checked."
        },
        "returns": {
          "_0": "bool True if the account has the role or false if it does not."
        }
      },
      "hasMinterRole(address)": {
        "params": {
          "_address": "EOA or contract being checked"
        },
        "returns": {
          "_0": "bool True if the account has the role or false if it does not"
        }
      },
      "hasOperatorRole(address)": {
        "params": {
          "_address": "EOA or contract being checked"
        },
        "returns": {
          "_0": "bool True if the account has the role or false if it does not"
        }
      },
      "hasRole(bytes32,address)": {
        "details": "Returns `true` if `account` has been granted `role`."
      },
      "hasSmartContractRole(address)": {
        "params": {
          "_address": "EOA or contract being checked"
        },
        "returns": {
          "_0": "bool True if the account has the role or false if it does not"
        }
      },
      "initAccessControls(address)": {
        "params": {
          "_admin": "Admins address."
        }
      },
      "removeAdminRole(address)": {
        "details": "The sender must have the admin role.",
        "params": {
          "_address": "EOA or contract affected."
        }
      },
      "removeMinterRole(address)": {
        "details": "The sender must have the admin role",
        "params": {
          "_address": "EOA or contract affected"
        }
      },
      "removeOperatorRole(address)": {
        "details": "The sender must have the admin role",
        "params": {
          "_address": "EOA or contract affected"
        }
      },
      "removeSmartContractRole(address)": {
        "details": "The sender must have the admin role",
        "params": {
          "_address": "EOA or contract affected"
        }
      },
      "renounceRole(bytes32,address)": {
        "details": "Revokes `role` from the calling account. Roles are often managed via {grantRole} and {revokeRole}: this function's purpose is to provide a mechanism for accounts to lose their privileges if they are compromised (such as when a trusted device is misplaced). If the calling account had been granted `role`, emits a {RoleRevoked} event. Requirements: - the caller must be `account`."
      },
      "revokeRole(bytes32,address)": {
        "details": "Revokes `role` from `account`. If `account` had been granted `role`, emits a {RoleRevoked} event. Requirements: - the caller must have ``role``'s admin role."
      }
    },
    "version": 1
  },
  "userdoc": {
    "events": {
      "AdminRoleGranted(address,address)": {
        "notice": "Events for adding and removing various roles."
      },
      "MinterRoleGranted(address,address)": {
        "notice": "Events for adding and removing various roles"
      }
    },
    "kind": "user",
    "methods": {
      "MINTER_ROLE()": {
        "notice": "Role definitions"
      },
      "addAdminRole(address)": {
        "notice": "Grants the admin role to an address."
      },
      "addMinterRole(address)": {
        "notice": "Grants the minter role to an address"
      },
      "addOperatorRole(address)": {
        "notice": "Grants the operator role to an address"
      },
      "addSmartContractRole(address)": {
        "notice": "Grants the smart contract role to an address"
      },
      "constructor": "The deployer is automatically given the admin role which will allow them to then grant roles to other addresses",
      "hasAdminRole(address)": {
        "notice": "Used to check whether an address has the admin role."
      },
      "hasMinterRole(address)": {
        "notice": "Used to check whether an address has the minter role"
      },
      "hasOperatorRole(address)": {
        "notice": "Used to check whether an address has the operator role"
      },
      "hasSmartContractRole(address)": {
        "notice": "Used to check whether an address has the smart contract role"
      },
      "initAccessControls(address)": {
        "notice": "Initializes access controls."
      },
      "removeAdminRole(address)": {
        "notice": "Removes the admin role from an address."
      },
      "removeMinterRole(address)": {
        "notice": "Removes the minter role from an address"
      },
      "removeOperatorRole(address)": {
        "notice": "Removes the operator role from an address"
      },
      "removeSmartContractRole(address)": {
        "notice": "Removes the smart contract role from an address"
      }
    },
    "notice": "Access Controls",
    "version": 1
  },
  "storageLayout": {
    "storage": [
      {
        "astId": 14933,
        "contract": "contracts/Access/MISOAccessControls.sol:MISOAccessControls",
        "label": "_roles",
        "offset": 0,
        "slot": "0",
        "type": "t_mapping(t_bytes32,t_struct(RoleData)14929_storage)"
      },
      {
        "astId": 859,
        "contract": "contracts/Access/MISOAccessControls.sol:MISOAccessControls",
        "label": "initAccess",
        "offset": 0,
        "slot": "1",
        "type": "t_bool"
      }
    ],
    "types": {
      "t_array(t_bytes32)dyn_storage": {
        "base": "t_bytes32",
        "encoding": "dynamic_array",
        "label": "bytes32[]",
        "numberOfBytes": "32"
      },
      "t_bool": {
        "encoding": "inplace",
        "label": "bool",
        "numberOfBytes": "1"
      },
      "t_bytes32": {
        "encoding": "inplace",
        "label": "bytes32",
        "numberOfBytes": "32"
      },
      "t_mapping(t_bytes32,t_struct(RoleData)14929_storage)": {
        "encoding": "mapping",
        "key": "t_bytes32",
        "label": "mapping(bytes32 => struct AccessControl.RoleData)",
        "numberOfBytes": "32",
        "value": "t_struct(RoleData)14929_storage"
      },
      "t_mapping(t_bytes32,t_uint256)": {
        "encoding": "mapping",
        "key": "t_bytes32",
        "label": "mapping(bytes32 => uint256)",
        "numberOfBytes": "32",
        "value": "t_uint256"
      },
      "t_struct(AddressSet)17396_storage": {
        "encoding": "inplace",
        "label": "struct EnumerableSet.AddressSet",
        "members": [
          {
            "astId": 17395,
            "contract": "contracts/Access/MISOAccessControls.sol:MISOAccessControls",
            "label": "_inner",
            "offset": 0,
            "slot": "0",
            "type": "t_struct(Set)17131_storage"
          }
        ],
        "numberOfBytes": "64"
      },
      "t_struct(RoleData)14929_storage": {
        "encoding": "inplace",
        "label": "struct AccessControl.RoleData",
        "members": [
          {
            "astId": 14926,
            "contract": "contracts/Access/MISOAccessControls.sol:MISOAccessControls",
            "label": "members",
            "offset": 0,
            "slot": "0",
            "type": "t_struct(AddressSet)17396_storage"
          },
          {
            "astId": 14928,
            "contract": "contracts/Access/MISOAccessControls.sol:MISOAccessControls",
            "label": "adminRole",
            "offset": 0,
            "slot": "2",
            "type": "t_bytes32"
          }
        ],
        "numberOfBytes": "96"
      },
      "t_struct(Set)17131_storage": {
        "encoding": "inplace",
        "label": "struct EnumerableSet.Set",
        "members": [
          {
            "astId": 17126,
            "contract": "contracts/Access/MISOAccessControls.sol:MISOAccessControls",
            "label": "_values",
            "offset": 0,
            "slot": "0",
            "type": "t_array(t_bytes32)dyn_storage"
          },
          {
            "astId": 17130,
            "contract": "contracts/Access/MISOAccessControls.sol:MISOAccessControls",
            "label": "_indexes",
            "offset": 0,
            "slot": "1",
            "type": "t_mapping(t_bytes32,t_uint256)"
          }
        ],
        "numberOfBytes": "64"
      },
      "t_uint256": {
        "encoding": "inplace",
        "label": "uint256",
        "numberOfBytes": "32"
      }
    }
  }
}