{
  "address": "0xC3989E0E00401D371DC44aEaA1b35564DaC001ad",
  "abi": [
    {
      "anonymous": false,
      "inputs": [
        {
          "indexed": true,
          "internalType": "address",
          "name": "beneficiary",
          "type": "address"
        },
        {
          "indexed": true,
          "internalType": "address",
          "name": "caller",
          "type": "address"
        }
      ],
      "name": "AdminRoleGranted",
      "type": "event"
    },
    {
      "anonymous": false,
      "inputs": [
        {
          "indexed": true,
          "internalType": "address",
          "name": "beneficiary",
          "type": "address"
        },
        {
          "indexed": true,
          "internalType": "address",
          "name": "caller",
          "type": "address"
        }
      ],
      "name": "AdminRoleRemoved",
      "type": "event"
    },
    {
      "anonymous": false,
      "inputs": [
        {
          "indexed": true,
          "internalType": "address",
          "name": "user",
          "type": "address"
        },
        {
          "indexed": true,
          "internalType": "uint256",
          "name": "pid",
          "type": "uint256"
        },
        {
          "indexed": false,
          "internalType": "uint256",
          "name": "amount",
          "type": "uint256"
        }
      ],
      "name": "Deposit",
      "type": "event"
    },
    {
      "anonymous": false,
      "inputs": [
        {
          "indexed": true,
          "internalType": "address",
          "name": "user",
          "type": "address"
        },
        {
          "indexed": true,
          "internalType": "uint256",
          "name": "pid",
          "type": "uint256"
        },
        {
          "indexed": false,
          "internalType": "uint256",
          "name": "amount",
          "type": "uint256"
        }
      ],
      "name": "EmergencyWithdraw",
      "type": "event"
    },
    {
      "anonymous": false,
      "inputs": [
        {
          "indexed": true,
          "internalType": "address",
          "name": "beneficiary",
          "type": "address"
        },
        {
          "indexed": true,
          "internalType": "address",
          "name": "caller",
          "type": "address"
        }
      ],
      "name": "MinterRoleGranted",
      "type": "event"
    },
    {
      "anonymous": false,
      "inputs": [
        {
          "indexed": true,
          "internalType": "address",
          "name": "beneficiary",
          "type": "address"
        },
        {
          "indexed": true,
          "internalType": "address",
          "name": "caller",
          "type": "address"
        }
      ],
      "name": "MinterRoleRemoved",
      "type": "event"
    },
    {
      "anonymous": false,
      "inputs": [
        {
          "indexed": true,
          "internalType": "address",
          "name": "beneficiary",
          "type": "address"
        },
        {
          "indexed": true,
          "internalType": "address",
          "name": "caller",
          "type": "address"
        }
      ],
      "name": "OperatorRoleGranted",
      "type": "event"
    },
    {
      "anonymous": false,
      "inputs": [
        {
          "indexed": true,
          "internalType": "address",
          "name": "beneficiary",
          "type": "address"
        },
        {
          "indexed": true,
          "internalType": "address",
          "name": "caller",
          "type": "address"
        }
      ],
      "name": "OperatorRoleRemoved",
      "type": "event"
    },
    {
      "anonymous": false,
      "inputs": [
        {
          "indexed": true,
          "internalType": "bytes32",
          "name": "role",
          "type": "bytes32"
        },
        {
          "indexed": true,
          "internalType": "bytes32",
          "name": "previousAdminRole",
          "type": "bytes32"
        },
        {
          "indexed": true,
          "internalType": "bytes32",
          "name": "newAdminRole",
          "type": "bytes32"
        }
      ],
      "name": "RoleAdminChanged",
      "type": "event"
    },
    {
      "anonymous": false,
      "inputs": [
        {
          "indexed": true,
          "internalType": "bytes32",
          "name": "role",
          "type": "bytes32"
        },
        {
          "indexed": true,
          "internalType": "address",
          "name": "account",
          "type": "address"
        },
        {
          "indexed": true,
          "internalType": "address",
          "name": "sender",
          "type": "address"
        }
      ],
      "name": "RoleGranted",
      "type": "event"
    },
    {
      "anonymous": false,
      "inputs": [
        {
          "indexed": true,
          "internalType": "bytes32",
          "name": "role",
          "type": "bytes32"
        },
        {
          "indexed": true,
          "internalType": "address",
          "name": "account",
          "type": "address"
        },
        {
          "indexed": true,
          "internalType": "address",
          "name": "sender",
          "type": "address"
        }
      ],
      "name": "RoleRevoked",
      "type": "event"
    },
    {
      "anonymous": false,
      "inputs": [
        {
          "indexed": true,
          "internalType": "address",
          "name": "beneficiary",
          "type": "address"
        },
        {
          "indexed": true,
          "internalType": "address",
          "name": "caller",
          "type": "address"
        }
      ],
      "name": "SmartContractRoleGranted",
      "type": "event"
    },
    {
      "anonymous": false,
      "inputs": [
        {
          "indexed": true,
          "internalType": "address",
          "name": "beneficiary",
          "type": "address"
        },
        {
          "indexed": true,
          "internalType": "address",
          "name": "caller",
          "type": "address"
        }
      ],
      "name": "SmartContractRoleRemoved",
      "type": "event"
    },
    {
      "anonymous": false,
      "inputs": [
        {
          "indexed": true,
          "internalType": "address",
          "name": "user",
          "type": "address"
        },
        {
          "indexed": true,
          "internalType": "uint256",
          "name": "pid",
          "type": "uint256"
        },
        {
          "indexed": false,
          "internalType": "uint256",
          "name": "amount",
          "type": "uint256"
        }
      ],
      "name": "Withdraw",
      "type": "event"
    },
    {
      "inputs": [],
      "name": "DEFAULT_ADMIN_ROLE",
      "outputs": [
        {
          "internalType": "bytes32",
          "name": "",
          "type": "bytes32"
        }
      ],
      "stateMutability": "view",
      "type": "function"
    },
    {
      "inputs": [],
      "name": "MINTER_ROLE",
      "outputs": [
        {
          "internalType": "bytes32",
          "name": "",
          "type": "bytes32"
        }
      ],
      "stateMutability": "view",
      "type": "function"
    },
    {
      "inputs": [],
      "name": "OPERATOR_ROLE",
      "outputs": [
        {
          "internalType": "bytes32",
          "name": "",
          "type": "bytes32"
        }
      ],
      "stateMutability": "view",
      "type": "function"
    },
    {
      "inputs": [],
      "name": "SMART_CONTRACT_ROLE",
      "outputs": [
        {
          "internalType": "bytes32",
          "name": "",
          "type": "bytes32"
        }
      ],
      "stateMutability": "view",
      "type": "function"
    },
    {
      "inputs": [
        {
          "internalType": "address",
          "name": "_address",
          "type": "address"
        }
      ],
      "name": "addAdminRole",
      "outputs": [],
      "stateMutability": "nonpayable",
      "type": "function"
    },
    {
      "inputs": [
        {
          "internalType": "address",
          "name": "_address",
          "type": "address"
        }
      ],
      "name": "addMinterRole",
      "outputs": [],
      "stateMutability": "nonpayable",
      "type": "function"
    },
    {
      "inputs": [
        {
          "internalType": "address",
          "name": "_address",
          "type": "address"
        }
      ],
      "name": "addOperatorRole",
      "outputs": [],
      "stateMutability": "nonpayable",
      "type": "function"
    },
    {
      "inputs": [
        {
          "internalType": "address",
          "name": "_address",
          "type": "address"
        }
      ],
      "name": "addSmartContractRole",
      "outputs": [],
      "stateMutability": "nonpayable",
      "type": "function"
    },
    {
      "inputs": [
        {
          "internalType": "uint256",
          "name": "_allocPoint",
          "type": "uint256"
        },
        {
          "internalType": "contract IERC20",
          "name": "_lpToken",
          "type": "address"
        },
        {
          "internalType": "bool",
          "name": "_withUpdate",
          "type": "bool"
        }
      ],
      "name": "addToken",
      "outputs": [],
      "stateMutability": "nonpayable",
      "type": "function"
    },
    {
      "inputs": [],
      "name": "blocksRemaining",
      "outputs": [
        {
          "internalType": "uint256",
          "name": "",
          "type": "uint256"
        }
      ],
      "stateMutability": "view",
      "type": "function"
    },
    {
      "inputs": [],
      "name": "bonusEndBlock",
      "outputs": [
        {
          "internalType": "uint256",
          "name": "",
          "type": "uint256"
        }
      ],
      "stateMutability": "view",
      "type": "function"
    },
    {
      "inputs": [],
      "name": "bonusMultiplier",
      "outputs": [
        {
          "internalType": "uint256",
          "name": "",
          "type": "uint256"
        }
      ],
      "stateMutability": "view",
      "type": "function"
    },
    {
      "inputs": [],
      "name": "claimTips",
      "outputs": [],
      "stateMutability": "nonpayable",
      "type": "function"
    },
    {
      "inputs": [
        {
          "internalType": "uint256",
          "name": "_pid",
          "type": "uint256"
        },
        {
          "internalType": "uint256",
          "name": "_amount",
          "type": "uint256"
        }
      ],
      "name": "deposit",
      "outputs": [],
      "stateMutability": "nonpayable",
      "type": "function"
    },
    {
      "inputs": [
        {
          "internalType": "address",
          "name": "_devaddr",
          "type": "address"
        }
      ],
      "name": "dev",
      "outputs": [],
      "stateMutability": "nonpayable",
      "type": "function"
    },
    {
      "inputs": [],
      "name": "devPercentage",
      "outputs": [
        {
          "internalType": "uint256",
          "name": "",
          "type": "uint256"
        }
      ],
      "stateMutability": "view",
      "type": "function"
    },
    {
      "inputs": [],
      "name": "devaddr",
      "outputs": [
        {
          "internalType": "address",
          "name": "",
          "type": "address"
        }
      ],
      "stateMutability": "view",
      "type": "function"
    },
    {
      "inputs": [
        {
          "internalType": "uint256",
          "name": "_pid",
          "type": "uint256"
        }
      ],
      "name": "emergencyWithdraw",
      "outputs": [],
      "stateMutability": "nonpayable",
      "type": "function"
    },
    {
      "inputs": [],
      "name": "farmTemplate",
      "outputs": [
        {
          "internalType": "uint256",
          "name": "",
          "type": "uint256"
        }
      ],
      "stateMutability": "view",
      "type": "function"
    },
    {
      "inputs": [
        {
          "internalType": "address",
          "name": "_rewards",
          "type": "address"
        },
        {
          "internalType": "uint256",
          "name": "_rewardsPerBlock",
          "type": "uint256"
        },
        {
          "internalType": "uint256",
          "name": "_startBlock",
          "type": "uint256"
        },
        {
          "internalType": "address",
          "name": "_divaddr",
          "type": "address"
        },
        {
          "internalType": "address",
          "name": "_accessControls",
          "type": "address"
        }
      ],
      "name": "getInitData",
      "outputs": [
        {
          "internalType": "bytes",
          "name": "_data",
          "type": "bytes"
        }
      ],
      "stateMutability": "pure",
      "type": "function"
    },
    {
      "inputs": [
        {
          "internalType": "uint256",
          "name": "_from",
          "type": "uint256"
        },
        {
          "internalType": "uint256",
          "name": "_to",
          "type": "uint256"
        }
      ],
      "name": "getMultiplier",
      "outputs": [
        {
          "internalType": "uint256",
          "name": "",
          "type": "uint256"
        }
      ],
      "stateMutability": "view",
      "type": "function"
    },
    {
      "inputs": [
        {
          "internalType": "bytes32",
          "name": "role",
          "type": "bytes32"
        }
      ],
      "name": "getRoleAdmin",
      "outputs": [
        {
          "internalType": "bytes32",
          "name": "",
          "type": "bytes32"
        }
      ],
      "stateMutability": "view",
      "type": "function"
    },
    {
      "inputs": [
        {
          "internalType": "bytes32",
          "name": "role",
          "type": "bytes32"
        },
        {
          "internalType": "uint256",
          "name": "index",
          "type": "uint256"
        }
      ],
      "name": "getRoleMember",
      "outputs": [
        {
          "internalType": "address",
          "name": "",
          "type": "address"
        }
      ],
      "stateMutability": "view",
      "type": "function"
    },
    {
      "inputs": [
        {
          "internalType": "bytes32",
          "name": "role",
          "type": "bytes32"
        }
      ],
      "name": "getRoleMemberCount",
      "outputs": [
        {
          "internalType": "uint256",
          "name": "",
          "type": "uint256"
        }
      ],
      "stateMutability": "view",
      "type": "function"
    },
    {
      "inputs": [
        {
          "internalType": "bytes32",
          "name": "role",
          "type": "bytes32"
        },
        {
          "internalType": "address",
          "name": "account",
          "type": "address"
        }
      ],
      "name": "grantRole",
      "outputs": [],
      "stateMutability": "nonpayable",
      "type": "function"
    },
    {
      "inputs": [
        {
          "internalType": "address",
          "name": "_address",
          "type": "address"
        }
      ],
      "name": "hasAdminRole",
      "outputs": [
        {
          "internalType": "bool",
          "name": "",
          "type": "bool"
        }
      ],
      "stateMutability": "view",
      "type": "function"
    },
    {
      "inputs": [
        {
          "internalType": "address",
          "name": "_address",
          "type": "address"
        }
      ],
      "name": "hasMinterRole",
      "outputs": [
        {
          "internalType": "bool",
          "name": "",
          "type": "bool"
        }
      ],
      "stateMutability": "view",
      "type": "function"
    },
    {
      "inputs": [
        {
          "internalType": "address",
          "name": "_address",
          "type": "address"
        }
      ],
      "name": "hasOperatorRole",
      "outputs": [
        {
          "internalType": "bool",
          "name": "",
          "type": "bool"
        }
      ],
      "stateMutability": "view",
      "type": "function"
    },
    {
      "inputs": [
        {
          "internalType": "bytes32",
          "name": "role",
          "type": "bytes32"
        },
        {
          "internalType": "address",
          "name": "account",
          "type": "address"
        }
      ],
      "name": "hasRole",
      "outputs": [
        {
          "internalType": "bool",
          "name": "",
          "type": "bool"
        }
      ],
      "stateMutability": "view",
      "type": "function"
    },
    {
      "inputs": [
        {
          "internalType": "address",
          "name": "_address",
          "type": "address"
        }
      ],
      "name": "hasSmartContractRole",
      "outputs": [
        {
          "internalType": "bool",
          "name": "",
          "type": "bool"
        }
      ],
      "stateMutability": "view",
      "type": "function"
    },
    {
      "inputs": [
        {
          "internalType": "address",
          "name": "_admin",
          "type": "address"
        }
      ],
      "name": "initAccessControls",
      "outputs": [],
      "stateMutability": "nonpayable",
      "type": "function"
    },
    {
      "inputs": [
        {
          "internalType": "address",
          "name": "_rewards",
          "type": "address"
        },
        {
          "internalType": "uint256",
          "name": "_rewardsPerBlock",
          "type": "uint256"
        },
        {
          "internalType": "uint256",
          "name": "_startBlock",
          "type": "uint256"
        },
        {
          "internalType": "address",
          "name": "_devaddr",
          "type": "address"
        },
        {
          "internalType": "address",
          "name": "_admin",
          "type": "address"
        }
      ],
      "name": "initFarm",
      "outputs": [],
      "stateMutability": "nonpayable",
      "type": "function"
    },
    {
      "inputs": [
        {
          "internalType": "bytes",
          "name": "_data",
          "type": "bytes"
        }
      ],
      "name": "initFarm",
      "outputs": [],
      "stateMutability": "nonpayable",
      "type": "function"
    },
    {
      "inputs": [],
      "name": "massUpdatePools",
      "outputs": [],
      "stateMutability": "nonpayable",
      "type": "function"
    },
    {
      "inputs": [
        {
          "internalType": "uint256",
          "name": "_pid",
          "type": "uint256"
        },
        {
          "internalType": "address",
          "name": "_user",
          "type": "address"
        }
      ],
      "name": "pendingRewards",
      "outputs": [
        {
          "internalType": "uint256",
          "name": "",
          "type": "uint256"
        }
      ],
      "stateMutability": "view",
      "type": "function"
    },
    {
      "inputs": [
        {
          "internalType": "uint256",
          "name": "",
          "type": "uint256"
        }
      ],
      "name": "poolInfo",
      "outputs": [
        {
          "internalType": "contract IERC20",
          "name": "lpToken",
          "type": "address"
        },
        {
          "internalType": "uint256",
          "name": "allocPoint",
          "type": "uint256"
        },
        {
          "internalType": "uint256",
          "name": "lastRewardBlock",
          "type": "uint256"
        },
        {
          "internalType": "uint256",
          "name": "accRewardsPerShare",
          "type": "uint256"
        }
      ],
      "stateMutability": "view",
      "type": "function"
    },
    {
      "inputs": [],
      "name": "poolLength",
      "outputs": [
        {
          "internalType": "uint256",
          "name": "",
          "type": "uint256"
        }
      ],
      "stateMutability": "view",
      "type": "function"
    },
    {
      "inputs": [
        {
          "internalType": "address",
          "name": "_address",
          "type": "address"
        }
      ],
      "name": "removeAdminRole",
      "outputs": [],
      "stateMutability": "nonpayable",
      "type": "function"
    },
    {
      "inputs": [
        {
          "internalType": "address",
          "name": "_address",
          "type": "address"
        }
      ],
      "name": "removeMinterRole",
      "outputs": [],
      "stateMutability": "nonpayable",
      "type": "function"
    },
    {
      "inputs": [
        {
          "internalType": "address",
          "name": "_address",
          "type": "address"
        }
      ],
      "name": "removeOperatorRole",
      "outputs": [],
      "stateMutability": "nonpayable",
      "type": "function"
    },
    {
      "inputs": [
        {
          "internalType": "address",
          "name": "_address",
          "type": "address"
        }
      ],
      "name": "removeSmartContractRole",
      "outputs": [],
      "stateMutability": "nonpayable",
      "type": "function"
    },
    {
      "inputs": [
        {
          "internalType": "bytes32",
          "name": "role",
          "type": "bytes32"
        },
        {
          "internalType": "address",
          "name": "account",
          "type": "address"
        }
      ],
      "name": "renounceRole",
      "outputs": [],
      "stateMutability": "nonpayable",
      "type": "function"
    },
    {
      "inputs": [
        {
          "internalType": "bytes32",
          "name": "role",
          "type": "bytes32"
        },
        {
          "internalType": "address",
          "name": "account",
          "type": "address"
        }
      ],
      "name": "revokeRole",
      "outputs": [],
      "stateMutability": "nonpayable",
      "type": "function"
    },
    {
      "inputs": [],
      "name": "rewards",
      "outputs": [
        {
          "internalType": "contract IERC20",
          "name": "",
          "type": "address"
        }
      ],
      "stateMutability": "view",
      "type": "function"
    },
    {
      "inputs": [],
      "name": "rewardsPerBlock",
      "outputs": [
        {
          "internalType": "uint256",
          "name": "",
          "type": "uint256"
        }
      ],
      "stateMutability": "view",
      "type": "function"
    },
    {
      "inputs": [
        {
          "internalType": "uint256",
          "name": "_pid",
          "type": "uint256"
        },
        {
          "internalType": "uint256",
          "name": "_allocPoint",
          "type": "uint256"
        },
        {
          "internalType": "bool",
          "name": "_withUpdate",
          "type": "bool"
        }
      ],
      "name": "set",
      "outputs": [],
      "stateMutability": "nonpayable",
      "type": "function"
    },
    {
      "inputs": [
        {
          "internalType": "uint256",
          "name": "_bonusEndBlock",
          "type": "uint256"
        },
        {
          "internalType": "uint256",
          "name": "_bonusMultiplier",
          "type": "uint256"
        }
      ],
      "name": "setBonus",
      "outputs": [],
      "stateMutability": "nonpayable",
      "type": "function"
    },
    {
      "inputs": [
        {
          "internalType": "uint256",
          "name": "_devPercentage",
          "type": "uint256"
        }
      ],
      "name": "setDevPercentage",
      "outputs": [],
      "stateMutability": "nonpayable",
      "type": "function"
    },
    {
      "inputs": [],
      "name": "startBlock",
      "outputs": [
        {
          "internalType": "uint256",
          "name": "",
          "type": "uint256"
        }
      ],
      "stateMutability": "view",
      "type": "function"
    },
    {
      "inputs": [],
      "name": "tips",
      "outputs": [
        {
          "internalType": "uint256",
          "name": "",
          "type": "uint256"
        }
      ],
      "stateMutability": "view",
      "type": "function"
    },
    {
      "inputs": [],
      "name": "tokenDebt",
      "outputs": [
        {
          "internalType": "uint256",
          "name": "",
          "type": "uint256"
        }
      ],
      "stateMutability": "view",
      "type": "function"
    },
    {
      "inputs": [],
      "name": "tokensRemaining",
      "outputs": [
        {
          "internalType": "uint256",
          "name": "",
          "type": "uint256"
        }
      ],
      "stateMutability": "view",
      "type": "function"
    },
    {
      "inputs": [],
      "name": "totalAllocPoint",
      "outputs": [
        {
          "internalType": "uint256",
          "name": "",
          "type": "uint256"
        }
      ],
      "stateMutability": "view",
      "type": "function"
    },
    {
      "inputs": [],
      "name": "totalRewardDebt",
      "outputs": [
        {
          "internalType": "uint256",
          "name": "",
          "type": "uint256"
        }
      ],
      "stateMutability": "view",
      "type": "function"
    },
    {
      "inputs": [
        {
          "internalType": "uint256",
          "name": "_pid",
          "type": "uint256"
        }
      ],
      "name": "updatePool",
      "outputs": [],
      "stateMutability": "nonpayable",
      "type": "function"
    },
    {
      "inputs": [
        {
          "internalType": "uint256",
          "name": "",
          "type": "uint256"
        },
        {
          "internalType": "address",
          "name": "",
          "type": "address"
        }
      ],
      "name": "userInfo",
      "outputs": [
        {
          "internalType": "uint256",
          "name": "amount",
          "type": "uint256"
        },
        {
          "internalType": "uint256",
          "name": "rewardDebt",
          "type": "uint256"
        }
      ],
      "stateMutability": "view",
      "type": "function"
    },
    {
      "inputs": [
        {
          "internalType": "uint256",
          "name": "_pid",
          "type": "uint256"
        },
        {
          "internalType": "uint256",
          "name": "_amount",
          "type": "uint256"
        }
      ],
      "name": "withdraw",
      "outputs": [],
      "stateMutability": "nonpayable",
      "type": "function"
    }
  ],
  "transactionHash": "0xe6ad3f07619af3e64548a7a30b8aa8c668014f9f1f5e251cbb3443834277c4fc",
  "args": [],
  "solcInputHash": "d1b4fa5f316a6a8ee3524e1600e2925f",
  "bytecode": "0x608060405234801561001057600080fd5b5061297c806100206000396000f3fe608060405234801561001057600080fd5b50600436106103835760003560e01c8063857d2608116101de578063c395fcb31161010f578063d5391393116100ad578063e2bbb1581161007c578063e2bbb15814610a8b578063e6594abd14610aae578063f5b541a614610ad4578063fc4e3e0a14610adc57610383565b8063d5391393146109fd578063d547741f14610a05578063d69de7e714610a31578063dccfe31014610a6557610383565b8063ca15c873116100e9578063ca15c873146109a4578063d0863580146109c1578063d18df53c146109c9578063d49e77cd146109f557610383565b8063c395fcb31461096e578063c3a4382414610994578063c8b081251461099c57610383565b80639478941c1161017c578063a8b973a111610156578063a8b973a114610861578063adbf377614610869578063b7928b1d1461088f578063bd7aef24146108b557610383565b80639478941c1461082b5780639ec5a89414610851578063a217fddf1461085957610383565b80638dbb1e3a116101b85780638dbb1e3a146107585780639010d07c1461077b57806391d14854146107ba57806393f1a40b146107e657610383565b8063857d2608146107045780638a845fc01461070c5780638d88a90e1461073257610383565b806336568abe116102b85780635befdbca1161025657806364482f791161023057806364482f791461063b5780636595171c14610666578063824fa8211461068c57806383bb3877146106fc57610383565b80635befdbca146105e75780635eeb67101461062b578063630b5ba11461063357610383565b806348cd4cb11161029257806348cd4cb11461057f57806351eb05a6146105875780635312ea8e146105a457806354f1e126146105c157610383565b806336568abe1461050a5780633f16431a14610536578063441a3e701461055c57610383565b806317caf6f111610325578063248a9ca3116102ff578063248a9ca31461049c5780632c77f656146104b95780632f2ff15d146104c15780632f4a7e51146104ed57610383565b806317caf6f1146104845780631a4e1e781461048c5780631aed65531461049457610383565b8063099db01711610361578063099db017146103cf578063113b0ab2146104095780631526fe271461042f578063158cb2741461047c57610383565b8063037c99b01461038857806306af3dfd146103ad578063081e3eda146103b5575b600080fd5b6103ab6004803603604081101561039e57600080fd5b5080359060200135610b02565b005b6103ab610b51565b6103bd610c02565b60408051918252519081900360200190f35b6103f5600480360360208110156103e557600080fd5b50356001600160a01b0316610c09565b604080519115158252519081900360200190f35b6103f56004803603602081101561041f57600080fd5b50356001600160a01b0316610c29565b61044c6004803603602081101561044557600080fd5b5035610c43565b604080516001600160a01b0390951685526020850193909352838301919091526060830152519081900360800190f35b6103bd610c84565b6103bd610ca2565b6103bd610ca8565b6103bd610cae565b6103bd600480360360208110156104b257600080fd5b5035610cb4565b6103bd610cc9565b6103ab600480360360408110156104d757600080fd5b50803590602001356001600160a01b0316610cce565b6103ab6004803603602081101561050357600080fd5b5035610d3a565b6103ab6004803603604081101561052057600080fd5b50803590602001356001600160a01b0316610d8a565b6103ab6004803603602081101561054c57600080fd5b50356001600160a01b0316610deb565b6103ab6004803603604081101561057257600080fd5b5080359060200135610e4d565b6103bd610fbc565b6103ab6004803603602081101561059d57600080fd5b5035610fc2565b6103ab600480360360208110156105ba57600080fd5b5035611135565b6103ab600480360360208110156105d757600080fd5b50356001600160a01b03166111d1565b6103ab600480360360a08110156105fd57600080fd5b506001600160a01b038135811691602081013591604082013591606081013582169160809091013516611233565b6103bd6112ae565b6103ab6112b4565b6103ab6004803603606081101561065157600080fd5b508035906020810135906040013515156112d3565b6103ab6004803603602081101561067c57600080fd5b50356001600160a01b0316611390565b6103ab600480360360208110156106a257600080fd5b8101906020810181356401000000008111156106bd57600080fd5b8201836020820111156106cf57600080fd5b803590602001918460018302840111640100000000831117156106f157600080fd5b5090925090506113e5565b6103bd611442565b6103bd611448565b6103ab6004803603602081101561072257600080fd5b50356001600160a01b031661145a565b6103ab6004803603602081101561074857600080fd5b50356001600160a01b03166114bc565b6103bd6004803603604081101561076e57600080fd5b5080359060200135611529565b61079e6004803603604081101561079157600080fd5b50803590602001356115c5565b604080516001600160a01b039092168252519081900360200190f35b6103f5600480360360408110156107d057600080fd5b50803590602001356001600160a01b03166115e4565b610812600480360360408110156107fc57600080fd5b50803590602001356001600160a01b03166115fc565b6040805192835260208301919091528051918290030190f35b6103ab6004803603602081101561084157600080fd5b50356001600160a01b0316611620565b61079e611682565b6103bd611696565b6103bd61169b565b6103ab6004803603602081101561087f57600080fd5b50356001600160a01b03166116a1565b6103ab600480360360208110156108a557600080fd5b50356001600160a01b0316611703565b6108f9600480360360a08110156108cb57600080fd5b506001600160a01b038135811691602081013591604082013591606081013582169160809091013516611765565b6040805160208082528351818301528351919283929083019185019080838360005b8381101561093357818101518382015260200161091b565b50505050905090810190601f1680156109605780820380516001836020036101000a031916815260200191505b509250505060405180910390f35b6103f56004803603602081101561098457600080fd5b50356001600160a01b03166117b1565b6103bd6117bd565b6103bd6117c3565b6103bd600480360360208110156109ba57600080fd5b5035611844565b6103bd61185b565b6103bd600480360360408110156109df57600080fd5b50803590602001356001600160a01b03166118e2565b61079e611a44565b6103bd611a53565b6103ab60048036036040811015610a1b57600080fd5b50803590602001356001600160a01b0316611a65565b6103ab60048036036060811015610a4757600080fd5b508035906001600160a01b0360208201351690604001351515611abe565b6103ab60048036036020811015610a7b57600080fd5b50356001600160a01b0316611c25565b6103ab60048036036040811015610aa157600080fd5b5080359060200135611c7a565b6103ab60048036036020811015610ac457600080fd5b50356001600160a01b0316611d9c565b6103bd611e04565b6103f560048036036020811015610af257600080fd5b50356001600160a01b0316611e16565b610b0b336117b1565b610b465760405162461bcd60e51b81526004018080602001828103825260298152602001806128c56029913960400191505060405180910390fd5b600591909155600755565b6002546001600160a01b03163314610b9c576040805162461bcd60e51b81526020600482015260096024820152686465763a207775743f60b81b604482015290519081900360640190fd5b600060045411610be0576040805162461bcd60e51b815260206004820152600a6024820152696465763a2062726f6b6560b01b604482015290519081900360640190fd5b600480546000909155600254610bff906001600160a01b031682611e30565b50565b600a545b90565b6000610c23600080516020612881833981519152836115e4565b92915050565b6000610c236000805160206127c7833981519152836115e4565b600a8181548110610c5057fe5b600091825260209091206004909102018054600182015460028301546003909301546001600160a01b039092169350919084565b6000610c9d600454600854611ef890919063ffffffff16565b905090565b600c5481565b60045481565b60055481565b60009081526020819052604090206002015490565b600181565b600082815260208190526040902060020154610cf190610cec611f52565b6115e4565b610d2c5760405162461bcd60e51b815260040180806020018281038252602f815260200180612798602f913960400191505060405180910390fd5b610d368282611f56565b5050565b6002546001600160a01b03163314610d85576040805162461bcd60e51b81526020600482015260096024820152686465763a207775743f60b81b604482015290519081900360640190fd5b600355565b610d92611f52565b6001600160a01b0316816001600160a01b031614610de15760405162461bcd60e51b815260040180806020018281038252602f815260200180612918602f913960400191505060405180910390fd5b610d368282611fbf565b610e036000805160206127c783398151915282610cce565b610e0b611f52565b6001600160a01b0316816001600160a01b03167f1d5f9ec24c6f91be922ea13ceaad919ad6554a41b5c26087f96289a9baf98ad260405160405180910390a350565b6000600a8381548110610e5c57fe5b60009182526020808320868452600b825260408085203386529092529220805460049092029092019250831115610ecf576040805162461bcd60e51b81526020600482015260126024820152711dda5d1a191c985dce881b9bdd0819dbdbd960721b604482015290519081900360640190fd5b610ed884610fc2565b6000610f128260010154610f0c64e8d4a51000610f068760030154876000015461202890919063ffffffff16565b90612081565b906120e8565b90508015610f3457600854610f2790826120e8565b600855610f343382611e30565b8315610f5e578154610f4690856120e8565b82558254610f5e906001600160a01b03163386612145565b60038301548254610f799164e8d4a5100091610f0691612028565b6001830155604080518581529051869133917ff279e6a1f5e320cca91135676d9cb6e44ca8a08c0b88342bcdb1144f6511b5689181900360200190a35050505050565b600d5481565b6000600a8281548110610fd157fe5b9060005260206000209060040201905080600201544311610ff25750610bff565b8054604080516370a0823160e01b815230600482015290516000926001600160a01b0316916370a08231916024808301926020929190829003018186803b15801561103c57600080fd5b505afa158015611050573d6000803e3d6000fd5b505050506040513d602081101561106657600080fd5b505190508061107c575043600290910155610bff565b600061108c836002015443611529565b905060006110b9600c54610f0686600101546110b36006548761202890919063ffffffff16565b90612028565b600354909150156110ef576110eb6110e26103e8610f066003548561202890919063ffffffff16565b60045490611ef8565b6004555b6008546110fc9082611ef8565b60085561112061111584610f068464e8d4a51000612028565b600386015490611ef8565b60038501555050436002909201919091555050565b6000600a828154811061114457fe5b60009182526020808320858452600b825260408085203380875293528420805485825560018201959095556004909302018054909450919291611194916001600160a01b03919091169083612145565b604080518281529051859133917fbb757047c2b5f3974fe26b7c10f732e7bce710b0952a71082702781e62ae05959181900360200190a350505050565b6111e960008051602061288183398151915282611a65565b6111f1611f52565b6001600160a01b0316816001600160a01b03167f56692a161ffec953ddf9def93b958ea8d1ec95e21b80870c66be91a4374dc4e360405160405180910390a350565b60095460ff161561124357600080fd5b60018054610100600160a81b0319166101006001600160a01b0388811691909102919091179091556000600c556006859055600d849055600280546001600160a01b03191691841691909117905561129a81611d9c565b50506009805460ff19166001179055505050565b60065481565b600a5460005b81811015610d36576112cb81610fc2565b6001016112ba565b6112dc33611e16565b6113175760405162461bcd60e51b81526004018080602001828103825260248152602001806128a16024913960400191505060405180910390fd5b8015611325576113256112b4565b6113628261135c600a868154811061133957fe5b906000526020600020906004020160010154600c546120e890919063ffffffff16565b90611ef8565b600c8190555081600a848154811061137657fe5b906000526020600020906004020160010181905550505050565b61139b600082610cce565b6113a3611f52565b6001600160a01b0316816001600160a01b03167f2570ac42fd8b322dc453ada624dc2ed0e9bdd67f16f201a25bbd30468f2aa18760405160405180910390a350565b6000806000806000868660a08110156113fd57600080fd5b506001600160a01b0381358116965060208201359550604082013594506060820135811693506080909101351690506114398585858585611233565b50505050505050565b60085481565b6000805160206127c783398151915281565b6114726000805160206127c783398151915282611a65565b61147a611f52565b6001600160a01b0316816001600160a01b03167fe5f1aa9e528307345194b88b24a32401c13926e0823060f1049d9b26c0bb62b260405160405180910390a350565b6002546001600160a01b03163314611507576040805162461bcd60e51b81526020600482015260096024820152686465763a207775743f60b81b604482015290519081900360640190fd5b600280546001600160a01b0319166001600160a01b0392909216919091179055565b60008061153461185b565b905060008161154857600092505050610c23565b600554841161156957600754611562906110b386886120e8565b90506115b2565b600554851061157c5761156284866120e8565b6115af611594600554866120e890919063ffffffff16565b61135c6007546110b3896005546120e890919063ffffffff16565b90505b818111156115bd5750805b949350505050565b60008281526020819052604081206115dd9083612197565b9392505050565b60008281526020819052604081206115dd90836121a3565b600b6020908152600092835260408084209091529082529020805460019091015482565b61163860008051602061286183398151915282611a65565b611640611f52565b6001600160a01b0316816001600160a01b03167f70b25138b6fadeb9992d18b9653564271823e34b3e3257515d12a6d4b15fcddf60405160405180910390a350565b60015461010090046001600160a01b031681565b600081565b60075481565b6116b960008051602061288183398151915282610cce565b6116c1611f52565b6001600160a01b0316816001600160a01b03167f0be6ab9784c7401fafb73f7bc47bc67cc4ef8c47a60ad3cb66d1de0353a0784c60405160405180910390a350565b61171b60008051602061286183398151915282610cce565b611723611f52565b6001600160a01b0316816001600160a01b03167f2d45ee102874989882745a26688d0b4fffee125a18df26536b12582c7fde4e1760405160405180910390a350565b604080516001600160a01b039687166020820152808201959095526060850193909352908416608084015290921660a0808301919091528251808303909101815260c090910190915290565b6000610c2381836115e4565b60035481565b600154604080516370a0823160e01b8152306004820152905160009261010090046001600160a01b0316916370a08231916024808301926020929190829003018186803b15801561181357600080fd5b505afa158015611827573d6000803e3d6000fd5b505050506040513d602081101561183d57600080fd5b5051905090565b6000818152602081905260408120610c23906121b8565b6000611865610c84565b61186d6117c3565b1161187a57506000610c06565b600061188f611887610c84565b610f0c6117c3565b600654909150156118d857600354156118c4576003546118c1906118b5906103e8611ef8565b610f06836103e8612028565b90505b60065481816118cf57fe5b04915050610c06565b6000915050610c06565b600080600a84815481106118f257fe5b60009182526020808320878452600b825260408085206001600160a01b03898116875290845281862060049586029093016003810154815484516370a0823160e01b81523098810198909852935191985093969395939492909116926370a08231926024808301939192829003018186803b15801561197057600080fd5b505afa158015611984573d6000803e3d6000fd5b505050506040513d602081101561199a57600080fd5b50516002850154909150431180156119b157508015155b15611a115760006119c6856002015443611529565b905060006119ed600c54610f0688600101546110b36006548761202890919063ffffffff16565b9050611a0c611a0584610f068464e8d4a51000612028565b8590611ef8565b935050505b611a398360010154610f0c64e8d4a51000610f0686886000015461202890919063ffffffff16565b979650505050505050565b6002546001600160a01b031681565b60008051602061288183398151915281565b600082815260208190526040902060020154611a8390610cec611f52565b610de15760405162461bcd60e51b81526004018080602001828103825260308152602001806128106030913960400191505060405180910390fd5b611ac7336117b1565b611b025760405162461bcd60e51b81526004018080602001828103825260298152602001806127e76029913960400191505060405180910390fd5b8015611b1057611b106112b4565b6000600d544311611b2357600d54611b25565b435b600c54909150611b359085611ef8565b600c55604080516080810182526001600160a01b03948516815260208101958652908101918252600060608201818152600a8054600181018255925291517fc65a7bb8d6351c1cf70c95a316cc6a92839c986682d98bc35f958f4883f9d2a8600490920291820180546001600160a01b031916919096161790945593517fc65a7bb8d6351c1cf70c95a316cc6a92839c986682d98bc35f958f4883f9d2a9840155517fc65a7bb8d6351c1cf70c95a316cc6a92839c986682d98bc35f958f4883f9d2aa8301555090517fc65a7bb8d6351c1cf70c95a316cc6a92839c986682d98bc35f958f4883f9d2ab90910155565b611c30600082611a65565b611c38611f52565b6001600160a01b0316816001600160a01b03167f21ba1239795d4e22874e3dc55f0a9d7b65bfb23069d32965d7c23be9524ccf9560405160405180910390a350565b6000600a8381548110611c8957fe5b60009182526020808320868452600b82526040808520338652909252922060049091029091019150611cba84610fc2565b805415611d13576000611cef8260010154610f0c64e8d4a51000610f068760030154876000015461202890919063ffffffff16565b90508015611d1157600854611d0490826120e8565b600855611d113382611e30565b505b8215611d3f578154611d30906001600160a01b03163330866121c3565b8054611d3c9084611ef8565b81555b60038201548154611d5a9164e8d4a5100091610f0691612028565b6001820155604080518481529051859133917f90890809c654f11d6e72a28fa60149770a0d11ec6c92319d6ceb2bb0a4ea1a159181900360200190a350505050565b60015460ff1615611dea576040805162461bcd60e51b8152602060048201526013602482015272105b1c9958591e481a5b9a5d1a585b1a5cd959606a1b604482015290519081900360640190fd5b611df5600082610d2c565b506001805460ff191681179055565b60008051602061286183398151915281565b6000610c23600080516020612861833981519152836115e4565b600154604080516370a0823160e01b8152306004820152905160009261010090046001600160a01b0316916370a08231916024808301926020929190829003018186803b158015611e8057600080fd5b505afa158015611e94573d6000803e3d6000fd5b505050506040513d6020811015611eaa57600080fd5b5051905080821115611ed757600154611ed29061010090046001600160a01b03168483612223565b611ef3565b600154611ef39061010090046001600160a01b03168484612223565b505050565b6000828201838110156115dd576040805162461bcd60e51b815260206004820152601b60248201527f536166654d6174683a206164646974696f6e206f766572666c6f770000000000604482015290519081900360640190fd5b3390565b6000828152602081905260409020611f6e9082612345565b15610d3657611f7b611f52565b6001600160a01b0316816001600160a01b0316837f2f8788117e7eff1d82e926ec794901d17c78024a50270940304540a733656f0d60405160405180910390a45050565b6000828152602081905260409020611fd7908261235a565b15610d3657611fe4611f52565b6001600160a01b0316816001600160a01b0316837ff6391f5c32d9c69d2a47ea670b442974b53935d1edc7fd64eb21e047a839171b60405160405180910390a45050565b60008261203757506000610c23565b8282028284828161204457fe5b04146115dd5760405162461bcd60e51b81526004018080602001828103825260218152602001806128406021913960400191505060405180910390fd5b60008082116120d7576040805162461bcd60e51b815260206004820152601a60248201527f536166654d6174683a206469766973696f6e206279207a65726f000000000000604482015290519081900360640190fd5b8183816120e057fe5b049392505050565b60008282111561213f576040805162461bcd60e51b815260206004820152601e60248201527f536166654d6174683a207375627472616374696f6e206f766572666c6f770000604482015290519081900360640190fd5b50900390565b604080516001600160a01b038416602482015260448082018490528251808303909101815260649091019091526020810180516001600160e01b031663a9059cbb60e01b179052611ef390849061236f565b60006115dd8383612420565b60006115dd836001600160a01b038416612484565b6000610c238261249c565b604080516001600160a01b0380861660248301528416604482015260648082018490528251808303909101815260849091019091526020810180516001600160e01b03166323b872dd60e01b17905261221d90859061236f565b50505050565b604080516001600160a01b038481166024830152604480830185905283518084039091018152606490920183526020820180516001600160e01b031663a9059cbb60e01b178152925182516000946060949389169392918291908083835b602083106122a05780518252601f199092019160209182019101612281565b6001836020036101000a0380198251168184511680821785525050505050509050019150506000604051808303816000865af19150503d8060008114612302576040519150601f19603f3d011682016040523d82523d6000602084013e612307565b606091505b5091509150818015612335575080511580612335575080806020019051602081101561233257600080fd5b50515b61233e57600080fd5b5050505050565b60006115dd836001600160a01b0384166124a0565b60006115dd836001600160a01b0384166124ea565b60606123c4826040518060400160405280602081526020017f5361666545524332303a206c6f772d6c6576656c2063616c6c206661696c6564815250856001600160a01b03166125b09092919063ffffffff16565b805190915015611ef3578080602001905160208110156123e357600080fd5b5051611ef35760405162461bcd60e51b815260040180806020018281038252602a8152602001806128ee602a913960400191505060405180910390fd5b815460009082106124625760405162461bcd60e51b81526004018080602001828103825260228152602001806127766022913960400191505060405180910390fd5b82600001828154811061247157fe5b9060005260206000200154905092915050565b60009081526001919091016020526040902054151590565b5490565b60006124ac8383612484565b6124e257508154600181810184556000848152602080822090930184905584548482528286019093526040902091909155610c23565b506000610c23565b600081815260018301602052604081205480156125a6578354600019808301919081019060009087908390811061251d57fe5b906000526020600020015490508087600001848154811061253a57fe5b60009182526020808320909101929092558281526001898101909252604090209084019055865487908061256a57fe5b60019003818190600052602060002001600090559055866001016000878152602001908152602001600020600090556001945050505050610c23565b6000915050610c23565b60606115bd8484600085856125c4856126cb565b612615576040805162461bcd60e51b815260206004820152601d60248201527f416464726573733a2063616c6c20746f206e6f6e2d636f6e7472616374000000604482015290519081900360640190fd5b60006060866001600160a01b031685876040518082805190602001908083835b602083106126545780518252601f199092019160209182019101612635565b6001836020036101000a03801982511681845116808217855250505050505090500191505060006040518083038185875af1925050503d80600081146126b6576040519150601f19603f3d011682016040523d82523d6000602084013e6126bb565b606091505b5091509150611a398282866126d1565b3b151590565b606083156126e05750816115dd565b8251156126f05782518084602001fd5b8160405162461bcd60e51b81526004018080602001828103825283818151815260200191508051906020019080838360005b8381101561273a578181015183820152602001612722565b50505050905090810190601f1680156127675780820380516001836020036101000a031916815260200191505b509250505060405180910390fdfe456e756d657261626c655365743a20696e646578206f7574206f6620626f756e6473416363657373436f6e74726f6c3a2073656e646572206d75737420626520616e2061646d696e20746f206772616e749d49f397ae9ef1a834b569acb967799a367061e305932181a44f5773da873bfd4d6173746572436865662e616464546f6b656e3a2053656e646572206d7573742062652061646d696e416363657373436f6e74726f6c3a2073656e646572206d75737420626520616e2061646d696e20746f207265766f6b65536166654d6174683a206d756c7469706c69636174696f6e206f766572666c6f7797667070c54ef182b0f5858b034beac1b6f3089aa2d3188bb1e8929f4fa9b9299f2df0fed2c77648de5860a4cc508cd0818c85b8b8a1ab4ceeef8d981c8956a64d6173746572436865662e7365743a2053656e646572206d7573742062652061646d696e4d6173746572436865662e736574426f6e75733a2053656e646572206d7573742062652061646d696e5361666545524332303a204552433230206f7065726174696f6e20646964206e6f742073756363656564416363657373436f6e74726f6c3a2063616e206f6e6c792072656e6f756e636520726f6c657320666f722073656c66a2646970667358221220cc9411390197eadc60dfa0019fcf4a3c5b02d140d09dded1e58cf80093ba89d564736f6c634300060c0033",
  "devdoc": {
    "kind": "dev",
    "methods": {
      "addAdminRole(address)": {
        "details": "The sender must have the admin role.",
        "params": {
          "_address": "EOA or contract receiving the new role."
        }
      },
      "addMinterRole(address)": {
        "details": "The sender must have the admin role",
        "params": {
          "_address": "EOA or contract receiving the new role"
        }
      },
      "addOperatorRole(address)": {
        "details": "The sender must have the admin role",
        "params": {
          "_address": "EOA or contract receiving the new role"
        }
      },
      "addSmartContractRole(address)": {
        "details": "The sender must have the admin role",
        "params": {
          "_address": "EOA or contract receiving the new role"
        }
      },
      "getInitData(address,uint256,uint256,address,address)": {
        "details": "Generates init data for Farm Factory",
        "params": {
          "_accessControls": "Gives right to access",
          "_divaddr": "Any donations if set are sent here",
          "_rewards": "Rewards token address",
          "_rewardsPerBlock": "- Rewards per block for the whole farm",
          "_startBlock": "- Starting block"
        }
      },
      "getRoleAdmin(bytes32)": {
        "details": "Returns the admin role that controls `role`. See {grantRole} and {revokeRole}. To change a role's admin, use {_setRoleAdmin}."
      },
      "getRoleMember(bytes32,uint256)": {
        "details": "Returns one of the accounts that have `role`. `index` must be a value between 0 and {getRoleMemberCount}, non-inclusive. Role bearers are not sorted in any particular way, and their ordering may change at any point. WARNING: When using {getRoleMember} and {getRoleMemberCount}, make sure you perform all queries on the same block. See the following https://forum.openzeppelin.com/t/iterating-over-elements-on-enumerableset-in-openzeppelin-contracts/2296[forum post] for more information."
      },
      "getRoleMemberCount(bytes32)": {
        "details": "Returns the number of accounts that have `role`. Can be used together with {getRoleMember} to enumerate all bearers of a role."
      },
      "grantRole(bytes32,address)": {
        "details": "Grants `role` to `account`. If `account` had not been already granted `role`, emits a {RoleGranted} event. Requirements: - the caller must have ``role``'s admin role."
      },
      "hasAdminRole(address)": {
        "params": {
          "_address": "EOA or contract being checked."
        },
        "returns": {
          "_0": "bool True if the account has the role or false if it does not."
        }
      },
      "hasMinterRole(address)": {
        "params": {
          "_address": "EOA or contract being checked"
        },
        "returns": {
          "_0": "bool True if the account has the role or false if it does not"
        }
      },
      "hasOperatorRole(address)": {
        "params": {
          "_address": "EOA or contract being checked"
        },
        "returns": {
          "_0": "bool True if the account has the role or false if it does not"
        }
      },
      "hasRole(bytes32,address)": {
        "details": "Returns `true` if `account` has been granted `role`."
      },
      "hasSmartContractRole(address)": {
        "params": {
          "_address": "EOA or contract being checked"
        },
        "returns": {
          "_0": "bool True if the account has the role or false if it does not"
        }
      },
      "initAccessControls(address)": {
        "params": {
          "_admin": "Admins address."
        }
      },
      "removeAdminRole(address)": {
        "details": "The sender must have the admin role.",
        "params": {
          "_address": "EOA or contract affected."
        }
      },
      "removeMinterRole(address)": {
        "details": "The sender must have the admin role",
        "params": {
          "_address": "EOA or contract affected"
        }
      },
      "removeOperatorRole(address)": {
        "details": "The sender must have the admin role",
        "params": {
          "_address": "EOA or contract affected"
        }
      },
      "removeSmartContractRole(address)": {
        "details": "The sender must have the admin role",
        "params": {
          "_address": "EOA or contract affected"
        }
      },
      "renounceRole(bytes32,address)": {
        "details": "Revokes `role` from the calling account. Roles are often managed via {grantRole} and {revokeRole}: this function's purpose is to provide a mechanism for accounts to lose their privileges if they are compromised (such as when a trusted device is misplaced). If the calling account had been granted `role`, emits a {RoleRevoked} event. Requirements: - the caller must be `account`."
      },
      "revokeRole(bytes32,address)": {
        "details": "Revokes `role` from `account`. If `account` had been granted `role`, emits a {RoleRevoked} event. Requirements: - the caller must have ``role``'s admin role."
      }
    },
    "version": 1
  },
  "userdoc": {
    "events": {
      "AdminRoleGranted(address,address)": {
        "notice": "Events for adding and removing various roles."
      },
      "MinterRoleGranted(address,address)": {
        "notice": "Events for adding and removing various roles"
      }
    },
    "kind": "user",
    "methods": {
      "MINTER_ROLE()": {
        "notice": "Role definitions"
      },
      "addAdminRole(address)": {
        "notice": "Grants the admin role to an address."
      },
      "addMinterRole(address)": {
        "notice": "Grants the minter role to an address"
      },
      "addOperatorRole(address)": {
        "notice": "Grants the operator role to an address"
      },
      "addSmartContractRole(address)": {
        "notice": "Grants the smart contract role to an address"
      },
      "hasAdminRole(address)": {
        "notice": "Used to check whether an address has the admin role."
      },
      "hasMinterRole(address)": {
        "notice": "Used to check whether an address has the minter role"
      },
      "hasOperatorRole(address)": {
        "notice": "Used to check whether an address has the operator role"
      },
      "hasSmartContractRole(address)": {
        "notice": "Used to check whether an address has the smart contract role"
      },
      "initAccessControls(address)": {
        "notice": "Initializes access controls."
      },
      "removeAdminRole(address)": {
        "notice": "Removes the admin role from an address."
      },
      "removeMinterRole(address)": {
        "notice": "Removes the minter role from an address"
      },
      "removeOperatorRole(address)": {
        "notice": "Removes the operator role from an address"
      },
      "removeSmartContractRole(address)": {
        "notice": "Removes the smart contract role from an address"
      }
    },
    "version": 1
  },
  "storageLayout": {
    "storage": [
      {
        "astId": 14933,
        "contract": "contracts/Farms/MISOMasterChef.sol:MISOMasterChef",
        "label": "_roles",
        "offset": 0,
        "slot": "0",
        "type": "t_mapping(t_bytes32,t_struct(RoleData)14929_storage)"
      },
      {
        "astId": 859,
        "contract": "contracts/Farms/MISOMasterChef.sol:MISOMasterChef",
        "label": "initAccess",
        "offset": 0,
        "slot": "1",
        "type": "t_bool"
      },
      {
        "astId": 7256,
        "contract": "contracts/Farms/MISOMasterChef.sol:MISOMasterChef",
        "label": "rewards",
        "offset": 1,
        "slot": "1",
        "type": "t_contract(IERC20)25824"
      },
      {
        "astId": 7258,
        "contract": "contracts/Farms/MISOMasterChef.sol:MISOMasterChef",
        "label": "devaddr",
        "offset": 0,
        "slot": "2",
        "type": "t_address"
      },
      {
        "astId": 7260,
        "contract": "contracts/Farms/MISOMasterChef.sol:MISOMasterChef",
        "label": "devPercentage",
        "offset": 0,
        "slot": "3",
        "type": "t_uint256"
      },
      {
        "astId": 7262,
        "contract": "contracts/Farms/MISOMasterChef.sol:MISOMasterChef",
        "label": "tips",
        "offset": 0,
        "slot": "4",
        "type": "t_uint256"
      },
      {
        "astId": 7264,
        "contract": "contracts/Farms/MISOMasterChef.sol:MISOMasterChef",
        "label": "bonusEndBlock",
        "offset": 0,
        "slot": "5",
        "type": "t_uint256"
      },
      {
        "astId": 7266,
        "contract": "contracts/Farms/MISOMasterChef.sol:MISOMasterChef",
        "label": "rewardsPerBlock",
        "offset": 0,
        "slot": "6",
        "type": "t_uint256"
      },
      {
        "astId": 7268,
        "contract": "contracts/Farms/MISOMasterChef.sol:MISOMasterChef",
        "label": "bonusMultiplier",
        "offset": 0,
        "slot": "7",
        "type": "t_uint256"
      },
      {
        "astId": 7270,
        "contract": "contracts/Farms/MISOMasterChef.sol:MISOMasterChef",
        "label": "totalRewardDebt",
        "offset": 0,
        "slot": "8",
        "type": "t_uint256"
      },
      {
        "astId": 7276,
        "contract": "contracts/Farms/MISOMasterChef.sol:MISOMasterChef",
        "label": "initialised",
        "offset": 0,
        "slot": "9",
        "type": "t_bool"
      },
      {
        "astId": 7279,
        "contract": "contracts/Farms/MISOMasterChef.sol:MISOMasterChef",
        "label": "poolInfo",
        "offset": 0,
        "slot": "10",
        "type": "t_array(t_struct(PoolInfo)7254_storage)dyn_storage"
      },
      {
        "astId": 7285,
        "contract": "contracts/Farms/MISOMasterChef.sol:MISOMasterChef",
        "label": "userInfo",
        "offset": 0,
        "slot": "11",
        "type": "t_mapping(t_uint256,t_mapping(t_address,t_struct(UserInfo)7245_storage))"
      },
      {
        "astId": 7287,
        "contract": "contracts/Farms/MISOMasterChef.sol:MISOMasterChef",
        "label": "totalAllocPoint",
        "offset": 0,
        "slot": "12",
        "type": "t_uint256"
      },
      {
        "astId": 7289,
        "contract": "contracts/Farms/MISOMasterChef.sol:MISOMasterChef",
        "label": "startBlock",
        "offset": 0,
        "slot": "13",
        "type": "t_uint256"
      }
    ],
    "types": {
      "t_address": {
        "encoding": "inplace",
        "label": "address",
        "numberOfBytes": "20"
      },
      "t_array(t_bytes32)dyn_storage": {
        "base": "t_bytes32",
        "encoding": "dynamic_array",
        "label": "bytes32[]",
        "numberOfBytes": "32"
      },
      "t_array(t_struct(PoolInfo)7254_storage)dyn_storage": {
        "base": "t_struct(PoolInfo)7254_storage",
        "encoding": "dynamic_array",
        "label": "struct MISOMasterChef.PoolInfo[]",
        "numberOfBytes": "32"
      },
      "t_bool": {
        "encoding": "inplace",
        "label": "bool",
        "numberOfBytes": "1"
      },
      "t_bytes32": {
        "encoding": "inplace",
        "label": "bytes32",
        "numberOfBytes": "32"
      },
      "t_contract(IERC20)25824": {
        "encoding": "inplace",
        "label": "contract IERC20",
        "numberOfBytes": "20"
      },
      "t_mapping(t_address,t_struct(UserInfo)7245_storage)": {
        "encoding": "mapping",
        "key": "t_address",
        "label": "mapping(address => struct MISOMasterChef.UserInfo)",
        "numberOfBytes": "32",
        "value": "t_struct(UserInfo)7245_storage"
      },
      "t_mapping(t_bytes32,t_struct(RoleData)14929_storage)": {
        "encoding": "mapping",
        "key": "t_bytes32",
        "label": "mapping(bytes32 => struct AccessControl.RoleData)",
        "numberOfBytes": "32",
        "value": "t_struct(RoleData)14929_storage"
      },
      "t_mapping(t_bytes32,t_uint256)": {
        "encoding": "mapping",
        "key": "t_bytes32",
        "label": "mapping(bytes32 => uint256)",
        "numberOfBytes": "32",
        "value": "t_uint256"
      },
      "t_mapping(t_uint256,t_mapping(t_address,t_struct(UserInfo)7245_storage))": {
        "encoding": "mapping",
        "key": "t_uint256",
        "label": "mapping(uint256 => mapping(address => struct MISOMasterChef.UserInfo))",
        "numberOfBytes": "32",
        "value": "t_mapping(t_address,t_struct(UserInfo)7245_storage)"
      },
      "t_struct(AddressSet)17396_storage": {
        "encoding": "inplace",
        "label": "struct EnumerableSet.AddressSet",
        "members": [
          {
            "astId": 17395,
            "contract": "contracts/Farms/MISOMasterChef.sol:MISOMasterChef",
            "label": "_inner",
            "offset": 0,
            "slot": "0",
            "type": "t_struct(Set)17131_storage"
          }
        ],
        "numberOfBytes": "64"
      },
      "t_struct(PoolInfo)7254_storage": {
        "encoding": "inplace",
        "label": "struct MISOMasterChef.PoolInfo",
        "members": [
          {
            "astId": 7247,
            "contract": "contracts/Farms/MISOMasterChef.sol:MISOMasterChef",
            "label": "lpToken",
            "offset": 0,
            "slot": "0",
            "type": "t_contract(IERC20)25824"
          },
          {
            "astId": 7249,
            "contract": "contracts/Farms/MISOMasterChef.sol:MISOMasterChef",
            "label": "allocPoint",
            "offset": 0,
            "slot": "1",
            "type": "t_uint256"
          },
          {
            "astId": 7251,
            "contract": "contracts/Farms/MISOMasterChef.sol:MISOMasterChef",
            "label": "lastRewardBlock",
            "offset": 0,
            "slot": "2",
            "type": "t_uint256"
          },
          {
            "astId": 7253,
            "contract": "contracts/Farms/MISOMasterChef.sol:MISOMasterChef",
            "label": "accRewardsPerShare",
            "offset": 0,
            "slot": "3",
            "type": "t_uint256"
          }
        ],
        "numberOfBytes": "128"
      },
      "t_struct(RoleData)14929_storage": {
        "encoding": "inplace",
        "label": "struct AccessControl.RoleData",
        "members": [
          {
            "astId": 14926,
            "contract": "contracts/Farms/MISOMasterChef.sol:MISOMasterChef",
            "label": "members",
            "offset": 0,
            "slot": "0",
            "type": "t_struct(AddressSet)17396_storage"
          },
          {
            "astId": 14928,
            "contract": "contracts/Farms/MISOMasterChef.sol:MISOMasterChef",
            "label": "adminRole",
            "offset": 0,
            "slot": "2",
            "type": "t_bytes32"
          }
        ],
        "numberOfBytes": "96"
      },
      "t_struct(Set)17131_storage": {
        "encoding": "inplace",
        "label": "struct EnumerableSet.Set",
        "members": [
          {
            "astId": 17126,
            "contract": "contracts/Farms/MISOMasterChef.sol:MISOMasterChef",
            "label": "_values",
            "offset": 0,
            "slot": "0",
            "type": "t_array(t_bytes32)dyn_storage"
          },
          {
            "astId": 17130,
            "contract": "contracts/Farms/MISOMasterChef.sol:MISOMasterChef",
            "label": "_indexes",
            "offset": 0,
            "slot": "1",
            "type": "t_mapping(t_bytes32,t_uint256)"
          }
        ],
        "numberOfBytes": "64"
      },
      "t_struct(UserInfo)7245_storage": {
        "encoding": "inplace",
        "label": "struct MISOMasterChef.UserInfo",
        "members": [
          {
            "astId": 7242,
            "contract": "contracts/Farms/MISOMasterChef.sol:MISOMasterChef",
            "label": "amount",
            "offset": 0,
            "slot": "0",
            "type": "t_uint256"
          },
          {
            "astId": 7244,
            "contract": "contracts/Farms/MISOMasterChef.sol:MISOMasterChef",
            "label": "rewardDebt",
            "offset": 0,
            "slot": "1",
            "type": "t_uint256"
          }
        ],
        "numberOfBytes": "64"
      },
      "t_uint256": {
        "encoding": "inplace",
        "label": "uint256",
        "numberOfBytes": "32"
      }
    }
  }
}