{
  "abi": [
    {
      "anonymous": false,
      "inputs": [
        {
          "indexed": true,
          "internalType": "address",
          "name": "_user",
          "type": "address"
        },
        {
          "indexed": true,
          "internalType": "address",
          "name": "_kicked",
          "type": "address"
        },
        {
          "indexed": false,
          "internalType": "uint256",
          "name": "_reward",
          "type": "uint256"
        }
      ],
      "name": "KickReward",
      "type": "event"
    },
    {
      "anonymous": false,
      "inputs": [
        {
          "indexed": true,
          "internalType": "address",
          "name": "previousOwner",
          "type": "address"
        },
        {
          "indexed": true,
          "internalType": "address",
          "name": "newOwner",
          "type": "address"
        }
      ],
      "name": "OwnershipTransferred",
      "type": "event"
    },
    {
      "anonymous": false,
      "inputs": [
        {
          "indexed": false,
          "internalType": "address",
          "name": "_token",
          "type": "address"
        },
        {
          "indexed": false,
          "internalType": "uint256",
          "name": "_amount",
          "type": "uint256"
        }
      ],
      "name": "Recovered",
      "type": "event"
    },
    {
      "anonymous": false,
      "inputs": [
        {
          "indexed": true,
          "internalType": "address",
          "name": "_token",
          "type": "address"
        },
        {
          "indexed": false,
          "internalType": "uint256",
          "name": "_reward",
          "type": "uint256"
        }
      ],
      "name": "RewardAdded",
      "type": "event"
    },
    {
      "anonymous": false,
      "inputs": [
        {
          "indexed": true,
          "internalType": "address",
          "name": "_user",
          "type": "address"
        },
        {
          "indexed": true,
          "internalType": "address",
          "name": "_rewardsToken",
          "type": "address"
        },
        {
          "indexed": false,
          "internalType": "uint256",
          "name": "_reward",
          "type": "uint256"
        }
      ],
      "name": "RewardPaid",
      "type": "event"
    },
    {
      "anonymous": false,
      "inputs": [
        {
          "indexed": true,
          "internalType": "address",
          "name": "_user",
          "type": "address"
        },
        {
          "indexed": true,
          "internalType": "uint256",
          "name": "_epoch",
          "type": "uint256"
        },
        {
          "indexed": false,
          "internalType": "uint256",
          "name": "_paidAmount",
          "type": "uint256"
        },
        {
          "indexed": false,
          "internalType": "uint256",
          "name": "_lockedAmount",
          "type": "uint256"
        },
        {
          "indexed": false,
          "internalType": "uint256",
          "name": "_boostedAmount",
          "type": "uint256"
        }
      ],
      "name": "Staked",
      "type": "event"
    },
    {
      "anonymous": false,
      "inputs": [
        {
          "indexed": true,
          "internalType": "address",
          "name": "_user",
          "type": "address"
        },
        {
          "indexed": false,
          "internalType": "uint256",
          "name": "_amount",
          "type": "uint256"
        },
        {
          "indexed": false,
          "internalType": "bool",
          "name": "_relocked",
          "type": "bool"
        }
      ],
      "name": "Withdrawn",
      "type": "event"
    },
    {
      "inputs": [
        {
          "internalType": "address",
          "name": "_rewardsToken",
          "type": "address"
        },
        {
          "internalType": "address",
          "name": "_distributor",
          "type": "address"
        },
        {
          "internalType": "bool",
          "name": "_useBoost",
          "type": "bool"
        }
      ],
      "name": "addReward",
      "outputs": [],
      "stateMutability": "nonpayable",
      "type": "function"
    },
    {
      "inputs": [
        {
          "internalType": "address",
          "name": "_rewardsToken",
          "type": "address"
        },
        {
          "internalType": "address",
          "name": "_distributor",
          "type": "address"
        },
        {
          "internalType": "bool",
          "name": "_approved",
          "type": "bool"
        }
      ],
      "name": "approveRewardDistributor",
      "outputs": [],
      "stateMutability": "nonpayable",
      "type": "function"
    },
    {
      "inputs": [
        {
          "internalType": "uint256",
          "name": "_epoch",
          "type": "uint256"
        },
        {
          "internalType": "address",
          "name": "_user",
          "type": "address"
        }
      ],
      "name": "balanceAtEpochOf",
      "outputs": [
        {
          "internalType": "uint256",
          "name": "amount",
          "type": "uint256"
        }
      ],
      "stateMutability": "view",
      "type": "function"
    },
    {
      "inputs": [
        {
          "internalType": "address",
          "name": "_user",
          "type": "address"
        }
      ],
      "name": "balanceOf",
      "outputs": [
        {
          "internalType": "uint256",
          "name": "amount",
          "type": "uint256"
        }
      ],
      "stateMutability": "view",
      "type": "function"
    },
    {
      "inputs": [
        {
          "internalType": "address",
          "name": "",
          "type": "address"
        }
      ],
      "name": "balances",
      "outputs": [
        {
          "internalType": "uint112",
          "name": "locked",
          "type": "uint112"
        },
        {
          "internalType": "uint112",
          "name": "boosted",
          "type": "uint112"
        },
        {
          "internalType": "uint32",
          "name": "nextUnlockIndex",
          "type": "uint32"
        }
      ],
      "stateMutability": "view",
      "type": "function"
    },
    {
      "inputs": [],
      "name": "boostPayment",
      "outputs": [
        {
          "internalType": "address",
          "name": "",
          "type": "address"
        }
      ],
      "stateMutability": "view",
      "type": "function"
    },
    {
      "inputs": [],
      "name": "boostRate",
      "outputs": [
        {
          "internalType": "uint256",
          "name": "",
          "type": "uint256"
        }
      ],
      "stateMutability": "view",
      "type": "function"
    },
    {
      "inputs": [],
      "name": "boostedSupply",
      "outputs": [
        {
          "internalType": "uint256",
          "name": "",
          "type": "uint256"
        }
      ],
      "stateMutability": "view",
      "type": "function"
    },
    {
      "inputs": [],
      "name": "checkpointEpoch",
      "outputs": [],
      "stateMutability": "nonpayable",
      "type": "function"
    },
    {
      "inputs": [
        {
          "internalType": "address",
          "name": "_account",
          "type": "address"
        }
      ],
      "name": "claimableRewards",
      "outputs": [
        {
          "components": [
            {
              "internalType": "address",
              "name": "token",
              "type": "address"
            },
            {
              "internalType": "uint256",
              "name": "amount",
              "type": "uint256"
            }
          ],
          "internalType": "struct StakedCitadelLocker.EarnedData[]",
          "name": "userRewards",
          "type": "tuple[]"
        }
      ],
      "stateMutability": "view",
      "type": "function"
    },
    {
      "inputs": [],
      "name": "decimals",
      "outputs": [
        {
          "internalType": "uint8",
          "name": "",
          "type": "uint8"
        }
      ],
      "stateMutability": "view",
      "type": "function"
    },
    {
      "inputs": [],
      "name": "denominator",
      "outputs": [
        {
          "internalType": "uint256",
          "name": "",
          "type": "uint256"
        }
      ],
      "stateMutability": "view",
      "type": "function"
    },
    {
      "inputs": [],
      "name": "epochCount",
      "outputs": [
        {
          "internalType": "uint256",
          "name": "",
          "type": "uint256"
        }
      ],
      "stateMutability": "view",
      "type": "function"
    },
    {
      "inputs": [
        {
          "internalType": "uint256",
          "name": "",
          "type": "uint256"
        }
      ],
      "name": "epochs",
      "outputs": [
        {
          "internalType": "uint224",
          "name": "supply",
          "type": "uint224"
        },
        {
          "internalType": "uint32",
          "name": "date",
          "type": "uint32"
        }
      ],
      "stateMutability": "view",
      "type": "function"
    },
    {
      "inputs": [
        {
          "internalType": "uint256",
          "name": "_time",
          "type": "uint256"
        }
      ],
      "name": "findEpochId",
      "outputs": [
        {
          "internalType": "uint256",
          "name": "epoch",
          "type": "uint256"
        }
      ],
      "stateMutability": "view",
      "type": "function"
    },
    {
      "inputs": [
        {
          "internalType": "address",
          "name": "_account",
          "type": "address"
        },
        {
          "internalType": "bool",
          "name": "_stake",
          "type": "bool"
        }
      ],
      "name": "getReward",
      "outputs": [],
      "stateMutability": "nonpayable",
      "type": "function"
    },
    {
      "inputs": [
        {
          "internalType": "address",
          "name": "_account",
          "type": "address"
        }
      ],
      "name": "getReward",
      "outputs": [],
      "stateMutability": "nonpayable",
      "type": "function"
    },
    {
      "inputs": [
        {
          "internalType": "address",
          "name": "_rewardsToken",
          "type": "address"
        }
      ],
      "name": "getRewardForDuration",
      "outputs": [
        {
          "internalType": "uint256",
          "name": "",
          "type": "uint256"
        }
      ],
      "stateMutability": "view",
      "type": "function"
    },
    {
      "inputs": [
        {
          "internalType": "address",
          "name": "_stakingToken",
          "type": "address"
        },
        {
          "internalType": "string",
          "name": "name",
          "type": "string"
        },
        {
          "internalType": "string",
          "name": "symbol",
          "type": "string"
        }
      ],
      "name": "initialize",
      "outputs": [],
      "stateMutability": "nonpayable",
      "type": "function"
    },
    {
      "inputs": [],
      "name": "isShutdown",
      "outputs": [
        {
          "internalType": "bool",
          "name": "",
          "type": "bool"
        }
      ],
      "stateMutability": "view",
      "type": "function"
    },
    {
      "inputs": [
        {
          "internalType": "address",
          "name": "_account",
          "type": "address"
        }
      ],
      "name": "kickExpiredLocks",
      "outputs": [],
      "stateMutability": "nonpayable",
      "type": "function"
    },
    {
      "inputs": [],
      "name": "kickRewardEpochDelay",
      "outputs": [
        {
          "internalType": "uint256",
          "name": "",
          "type": "uint256"
        }
      ],
      "stateMutability": "view",
      "type": "function"
    },
    {
      "inputs": [],
      "name": "kickRewardPerEpoch",
      "outputs": [
        {
          "internalType": "uint256",
          "name": "",
          "type": "uint256"
        }
      ],
      "stateMutability": "view",
      "type": "function"
    },
    {
      "inputs": [
        {
          "internalType": "address",
          "name": "_rewardsToken",
          "type": "address"
        }
      ],
      "name": "lastTimeRewardApplicable",
      "outputs": [
        {
          "internalType": "uint256",
          "name": "",
          "type": "uint256"
        }
      ],
      "stateMutability": "view",
      "type": "function"
    },
    {
      "inputs": [
        {
          "internalType": "address",
          "name": "_account",
          "type": "address"
        },
        {
          "internalType": "uint256",
          "name": "_amount",
          "type": "uint256"
        },
        {
          "internalType": "uint256",
          "name": "_spendRatio",
          "type": "uint256"
        }
      ],
      "name": "lock",
      "outputs": [],
      "stateMutability": "nonpayable",
      "type": "function"
    },
    {
      "inputs": [],
      "name": "lockDuration",
      "outputs": [
        {
          "internalType": "uint256",
          "name": "",
          "type": "uint256"
        }
      ],
      "stateMutability": "view",
      "type": "function"
    },
    {
      "inputs": [
        {
          "internalType": "address",
          "name": "_user",
          "type": "address"
        }
      ],
      "name": "lockedBalanceOf",
      "outputs": [
        {
          "internalType": "uint256",
          "name": "amount",
          "type": "uint256"
        }
      ],
      "stateMutability": "view",
      "type": "function"
    },
    {
      "inputs": [
        {
          "internalType": "address",
          "name": "_user",
          "type": "address"
        }
      ],
      "name": "lockedBalances",
      "outputs": [
        {
          "internalType": "uint256",
          "name": "total",
          "type": "uint256"
        },
        {
          "internalType": "uint256",
          "name": "unlockable",
          "type": "uint256"
        },
        {
          "internalType": "uint256",
          "name": "locked",
          "type": "uint256"
        },
        {
          "components": [
            {
              "internalType": "uint112",
              "name": "amount",
              "type": "uint112"
            },
            {
              "internalType": "uint112",
              "name": "boosted",
              "type": "uint112"
            },
            {
              "internalType": "uint32",
              "name": "unlockTime",
              "type": "uint32"
            }
          ],
          "internalType": "struct StakedCitadelLocker.LockedBalance[]",
          "name": "lockData",
          "type": "tuple[]"
        }
      ],
      "stateMutability": "view",
      "type": "function"
    },
    {
      "inputs": [],
      "name": "lockedSupply",
      "outputs": [
        {
          "internalType": "uint256",
          "name": "",
          "type": "uint256"
        }
      ],
      "stateMutability": "view",
      "type": "function"
    },
    {
      "inputs": [],
      "name": "maximumBoostPayment",
      "outputs": [
        {
          "internalType": "uint256",
          "name": "",
          "type": "uint256"
        }
      ],
      "stateMutability": "view",
      "type": "function"
    },
    {
      "inputs": [],
      "name": "maximumStake",
      "outputs": [
        {
          "internalType": "uint256",
          "name": "",
          "type": "uint256"
        }
      ],
      "stateMutability": "view",
      "type": "function"
    },
    {
      "inputs": [],
      "name": "minimumStake",
      "outputs": [
        {
          "internalType": "uint256",
          "name": "",
          "type": "uint256"
        }
      ],
      "stateMutability": "view",
      "type": "function"
    },
    {
      "inputs": [],
      "name": "name",
      "outputs": [
        {
          "internalType": "string",
          "name": "",
          "type": "string"
        }
      ],
      "stateMutability": "view",
      "type": "function"
    },
    {
      "inputs": [],
      "name": "nextBoostRate",
      "outputs": [
        {
          "internalType": "uint256",
          "name": "",
          "type": "uint256"
        }
      ],
      "stateMutability": "view",
      "type": "function"
    },
    {
      "inputs": [],
      "name": "nextMaximumBoostPayment",
      "outputs": [
        {
          "internalType": "uint256",
          "name": "",
          "type": "uint256"
        }
      ],
      "stateMutability": "view",
      "type": "function"
    },
    {
      "inputs": [
        {
          "internalType": "address",
          "name": "_rewardsToken",
          "type": "address"
        },
        {
          "internalType": "uint256",
          "name": "_reward",
          "type": "uint256"
        }
      ],
      "name": "notifyRewardAmount",
      "outputs": [],
      "stateMutability": "nonpayable",
      "type": "function"
    },
    {
      "inputs": [],
      "name": "owner",
      "outputs": [
        {
          "internalType": "address",
          "name": "",
          "type": "address"
        }
      ],
      "stateMutability": "view",
      "type": "function"
    },
    {
      "inputs": [
        {
          "internalType": "uint256",
          "name": "_epoch",
          "type": "uint256"
        },
        {
          "internalType": "address",
          "name": "_user",
          "type": "address"
        }
      ],
      "name": "pendingLockAtEpochOf",
      "outputs": [
        {
          "internalType": "uint256",
          "name": "amount",
          "type": "uint256"
        }
      ],
      "stateMutability": "view",
      "type": "function"
    },
    {
      "inputs": [
        {
          "internalType": "address",
          "name": "_user",
          "type": "address"
        }
      ],
      "name": "pendingLockOf",
      "outputs": [
        {
          "internalType": "uint256",
          "name": "amount",
          "type": "uint256"
        }
      ],
      "stateMutability": "view",
      "type": "function"
    },
    {
      "inputs": [
        {
          "internalType": "bool",
          "name": "_relock",
          "type": "bool"
        }
      ],
      "name": "processExpiredLocks",
      "outputs": [],
      "stateMutability": "nonpayable",
      "type": "function"
    },
    {
      "inputs": [
        {
          "internalType": "address",
          "name": "_tokenAddress",
          "type": "address"
        },
        {
          "internalType": "uint256",
          "name": "_tokenAmount",
          "type": "uint256"
        }
      ],
      "name": "recoverERC20",
      "outputs": [],
      "stateMutability": "nonpayable",
      "type": "function"
    },
    {
      "inputs": [],
      "name": "renounceOwnership",
      "outputs": [],
      "stateMutability": "nonpayable",
      "type": "function"
    },
    {
      "inputs": [
        {
          "internalType": "address",
          "name": "",
          "type": "address"
        }
      ],
      "name": "rewardData",
      "outputs": [
        {
          "internalType": "bool",
          "name": "useBoost",
          "type": "bool"
        },
        {
          "internalType": "uint40",
          "name": "periodFinish",
          "type": "uint40"
        },
        {
          "internalType": "uint208",
          "name": "rewardRate",
          "type": "uint208"
        },
        {
          "internalType": "uint40",
          "name": "lastUpdateTime",
          "type": "uint40"
        },
        {
          "internalType": "uint208",
          "name": "rewardPerTokenStored",
          "type": "uint208"
        }
      ],
      "stateMutability": "view",
      "type": "function"
    },
    {
      "inputs": [
        {
          "internalType": "address",
          "name": "",
          "type": "address"
        },
        {
          "internalType": "address",
          "name": "",
          "type": "address"
        }
      ],
      "name": "rewardDistributors",
      "outputs": [
        {
          "internalType": "bool",
          "name": "",
          "type": "bool"
        }
      ],
      "stateMutability": "view",
      "type": "function"
    },
    {
      "inputs": [
        {
          "internalType": "address",
          "name": "_rewardsToken",
          "type": "address"
        }
      ],
      "name": "rewardPerToken",
      "outputs": [
        {
          "internalType": "uint256",
          "name": "",
          "type": "uint256"
        }
      ],
      "stateMutability": "view",
      "type": "function"
    },
    {
      "inputs": [
        {
          "internalType": "uint256",
          "name": "",
          "type": "uint256"
        }
      ],
      "name": "rewardTokens",
      "outputs": [
        {
          "internalType": "address",
          "name": "",
          "type": "address"
        }
      ],
      "stateMutability": "view",
      "type": "function"
    },
    {
      "inputs": [
        {
          "internalType": "address",
          "name": "_user",
          "type": "address"
        }
      ],
      "name": "rewardWeightOf",
      "outputs": [
        {
          "internalType": "uint256",
          "name": "amount",
          "type": "uint256"
        }
      ],
      "stateMutability": "view",
      "type": "function"
    },
    {
      "inputs": [
        {
          "internalType": "address",
          "name": "",
          "type": "address"
        },
        {
          "internalType": "address",
          "name": "",
          "type": "address"
        }
      ],
      "name": "rewards",
      "outputs": [
        {
          "internalType": "uint256",
          "name": "",
          "type": "uint256"
        }
      ],
      "stateMutability": "view",
      "type": "function"
    },
    {
      "inputs": [],
      "name": "rewardsDuration",
      "outputs": [
        {
          "internalType": "uint256",
          "name": "",
          "type": "uint256"
        }
      ],
      "stateMutability": "view",
      "type": "function"
    },
    {
      "inputs": [
        {
          "internalType": "uint256",
          "name": "_max",
          "type": "uint256"
        },
        {
          "internalType": "uint256",
          "name": "_rate",
          "type": "uint256"
        },
        {
          "internalType": "address",
          "name": "_receivingAddress",
          "type": "address"
        }
      ],
      "name": "setBoost",
      "outputs": [],
      "stateMutability": "nonpayable",
      "type": "function"
    },
    {
      "inputs": [
        {
          "internalType": "uint256",
          "name": "_rate",
          "type": "uint256"
        },
        {
          "internalType": "uint256",
          "name": "_delay",
          "type": "uint256"
        }
      ],
      "name": "setKickIncentive",
      "outputs": [],
      "stateMutability": "nonpayable",
      "type": "function"
    },
    {
      "inputs": [
        {
          "internalType": "uint256",
          "name": "_minimum",
          "type": "uint256"
        },
        {
          "internalType": "uint256",
          "name": "_maximum",
          "type": "uint256"
        }
      ],
      "name": "setStakeLimits",
      "outputs": [],
      "stateMutability": "nonpayable",
      "type": "function"
    },
    {
      "inputs": [
        {
          "internalType": "address",
          "name": "_staking",
          "type": "address"
        }
      ],
      "name": "setStakingContract",
      "outputs": [],
      "stateMutability": "nonpayable",
      "type": "function"
    },
    {
      "inputs": [],
      "name": "shutdown",
      "outputs": [],
      "stateMutability": "nonpayable",
      "type": "function"
    },
    {
      "inputs": [],
      "name": "stakeOffsetOnLock",
      "outputs": [
        {
          "internalType": "uint256",
          "name": "",
          "type": "uint256"
        }
      ],
      "stateMutability": "view",
      "type": "function"
    },
    {
      "inputs": [],
      "name": "stakingProxy",
      "outputs": [
        {
          "internalType": "address",
          "name": "",
          "type": "address"
        }
      ],
      "stateMutability": "view",
      "type": "function"
    },
    {
      "inputs": [],
      "name": "stakingToken",
      "outputs": [
        {
          "internalType": "contract IERC20Upgradeable",
          "name": "",
          "type": "address"
        }
      ],
      "stateMutability": "view",
      "type": "function"
    },
    {
      "inputs": [],
      "name": "symbol",
      "outputs": [
        {
          "internalType": "string",
          "name": "",
          "type": "string"
        }
      ],
      "stateMutability": "view",
      "type": "function"
    },
    {
      "inputs": [],
      "name": "totalSupply",
      "outputs": [
        {
          "internalType": "uint256",
          "name": "supply",
          "type": "uint256"
        }
      ],
      "stateMutability": "view",
      "type": "function"
    },
    {
      "inputs": [
        {
          "internalType": "uint256",
          "name": "_epoch",
          "type": "uint256"
        }
      ],
      "name": "totalSupplyAtEpoch",
      "outputs": [
        {
          "internalType": "uint256",
          "name": "supply",
          "type": "uint256"
        }
      ],
      "stateMutability": "view",
      "type": "function"
    },
    {
      "inputs": [
        {
          "internalType": "address",
          "name": "newOwner",
          "type": "address"
        }
      ],
      "name": "transferOwnership",
      "outputs": [],
      "stateMutability": "nonpayable",
      "type": "function"
    },
    {
      "inputs": [
        {
          "internalType": "address",
          "name": "",
          "type": "address"
        },
        {
          "internalType": "uint256",
          "name": "",
          "type": "uint256"
        }
      ],
      "name": "userLocks",
      "outputs": [
        {
          "internalType": "uint112",
          "name": "amount",
          "type": "uint112"
        },
        {
          "internalType": "uint112",
          "name": "boosted",
          "type": "uint112"
        },
        {
          "internalType": "uint32",
          "name": "unlockTime",
          "type": "uint32"
        }
      ],
      "stateMutability": "view",
      "type": "function"
    },
    {
      "inputs": [
        {
          "internalType": "address",
          "name": "",
          "type": "address"
        },
        {
          "internalType": "address",
          "name": "",
          "type": "address"
        }
      ],
      "name": "userRewardPerTokenPaid",
      "outputs": [
        {
          "internalType": "uint256",
          "name": "",
          "type": "uint256"
        }
      ],
      "stateMutability": "view",
      "type": "function"
    },
    {
      "inputs": [],
      "name": "version",
      "outputs": [
        {
          "internalType": "uint256",
          "name": "",
          "type": "uint256"
        }
      ],
      "stateMutability": "view",
      "type": "function"
    },
    {
      "inputs": [
        {
          "internalType": "address",
          "name": "_withdrawTo",
          "type": "address"
        }
      ],
      "name": "withdrawExpiredLocksTo",
      "outputs": [],
      "stateMutability": "nonpayable",
      "type": "function"
    }
  ],
  "bytecode": {
    "object": "0x608060405260a280546001600160a01b0319908116909155600060a381905561271060a481905560a59190915560a681905560a781905560a85560a980549091169055606460aa55600460ab5560ac805460ff1916905534801561006257600080fd5b50614d8c806100726000396000f3fe608060405234801561001057600080fd5b50600436106103db5760003560e01c80638980f11f1161020a578063bf86d69011610125578063dc01f60d116100b8578063ec5ffac211610087578063ec5ffac2146107cd578063f1229777146107d5578063f2fde38b146107e8578063f8261597146107fb578063fc0e74d11461080e576103db565b8063dc01f60d1461077f578063e2ab691d1461079f578063e432488d146107b2578063e70b9e27146107ba576103db565b8063ca5c7b91116100f4578063ca5c7b911461073e578063cb1b9a7414610746578063d36f12fb14610759578063d3c45c761461076c576103db565b8063bf86d690146106fa578063c00007b014610702578063c1009f4b14610715578063c6b61e4c1461071d576103db565b8063a81653c91161019d578063b5c6b4531161016c578063b5c6b453146106c4578063b5ed7a66146106cc578063b66503cf146106d4578063bcd11014146106e7576103db565b8063a81653c91461068e578063a98e05bb146106a1578063aa33fedb146106a9578063b187bc22146106bc576103db565b806395d89b41116101d957806395d89b411461066357806396ce07951461066b5780639bdc7467146106735780639dd373b91461067b576103db565b80638980f11f146106225780638c9bd1b5146106355780638da5cb5b146106485780639065714714610650576103db565b8063638634ee116102fa57806370b36d791161028d5780637bb7bed11161025c5780637bb7bed1146105ec5780637bd48c7c146105ff578063829965cc14610607578063887c7dc51461060f576103db565b806370b36d79146105c1578063715018a6146105d457806372f702f3146105dc57806375aadf61146105e4576103db565b806368edd2bb116102c957806368edd2bb146105755780637035ab98146105885780637050ccd91461059b57806370a08231146105ae576103db565b8063638634ee1461053457806363f1c8e214610547578063648bb8ad1461055a5780636724c91014610562576103db565b80632fe871081161037257806339fc97131161034157806339fc9713146104d557806348e5d9f8146104f557806354fd4d50146105195780635935573614610521576103db565b80632fe8710814610490578063312ff839146104a3578063313ce567146104b8578063386a9525146104cd576103db565b80631c607395116103ae5780631c6073951461043e57806322f80d111461045157806327e235e3146104665780632e9564e414610488576103db565b806304554443146103e05780630483a7f6146103fe57806306fdde031461042157806318160ddd14610436575b600080fd5b6103e8610816565b6040516103f59190614c4f565b60405180910390f35b61041161040c3660046142cf565b61081d565b6040516103f59493929190614c77565b6104296109e3565b6040516103f5919061465b565b6103e8610a79565b6103e861044c3660046144e4565b610b4f565b610459610c5b565b6040516103f59190614571565b6104796104743660046142cf565b610c6a565b6040516103f593929190614c07565b6103e8610ca0565b6103e861049e3660046142cf565b610ca6565b6104b66104b136600461447c565b610cd5565b005b6104c0610d1c565b6040516103f59190614cf9565b6103e8610d25565b6104e86104e33660046142ea565b610d2c565b6040516103f5919061461a565b6105086105033660046142cf565b610d4c565b6040516103f5959493929190614625565b6103e8610d98565b6103e861052f3660046142cf565b610d9d565b6103e86105423660046142cf565b610dc1565b6104b6610555366004614507565b610def565b6103e8610e7c565b6104b661057036600461431e565b610e82565b6103e86105833660046142cf565b610f27565b6103e86105963660046142ea565b610fc5565b6104b66105a9366004614368565b610fe2565b6103e86105bc3660046142cf565b6112b2565b6103e86105cf3660046144b4565b6113d9565b6104b66114b0565b610459611539565b6103e8611548565b6104596105fa3660046144b4565b61154e565b6103e8611575565b6103e861157b565b6104b661061d3660046142cf565b611581565b6104b661063036600461441f565b6115d2565b6104b6610643366004614507565b6116d8565b610459611793565b6104b661065e36600461439f565b6117a2565b610429611926565b6103e8611987565b6103e861198d565b6104b66106893660046142cf565b611993565b6104b661069c366004614528565b611a1d565b610459611aee565b6104796106b736600461441f565b611afd565b6103e8611b49565b6103e8611b4f565b6103e8611b55565b6104b66106e236600461441f565b611b5b565b6103e86106f53660046142cf565b611dcd565b6104e8611e03565b6104b66107103660046142cf565b611e0c565b6104b6611e1a565b61073061072b3660046144b4565b611e24565b6040516103f5929190614c30565b6103e8611e59565b6103e86107543660046144e4565b611e5f565b6104b66107673660046142cf565b611f44565b6104b661077a36600461431e565b611f7b565b61079261078d3660046142cf565b6120a0565b6040516103f591906145c2565b6104b66107ad366004614449565b6121d9565b6103e86123d3565b6103e86107c83660046142ea565b6123d9565b6103e86123f6565b6103e86107e33660046142cf565b6123fc565b6104b66107f63660046142cf565b612407565b6103e86108093660046144b4565b6124c8565b6104b6612572565b62c1cc8081565b6001600160a01b038116600090815260a16020908152604080832060a09092528220805483928392606092600160e01b900463ffffffff1684815b84548110156109cb574285828154811061086e57fe5b600091825260209091200154600160e01b900463ffffffff16111561099557816108eb57845481900367ffffffffffffffff811180156108ad57600080fd5b506040519080825280602002602001820160405280156108e757816020015b6108d46141ab565b8152602001906001900390816108cc5790505b5095505b8481815481106108f757fe5b60009182526020918290206040805160608101825291909201546001600160701b038082168352600160701b8204169382019390935263ffffffff600160e01b9093049290921690820152865187908490811061095057fe5b6020026020010181905250818060010192505061098e85828154811061097257fe5b60009182526020909120015488906001600160701b03166125c0565b96506109c3565b6109c08582815481106109a457fe5b60009182526020909120015489906001600160701b03166125c0565b97505b600101610858565b505090546001600160701b0316955050509193509193565b60ad8054604080516020601f6002600019610100600188161502019095169490940493840181900481028201810190925282815260609390929091830182828015610a6f5780601f10610a4457610100808354040283529160200191610a6f565b820191906000526020600020905b815481529060010190602001808311610a5257829003601f168201915b5050505050905090565b600080610a9362015180610a8d42826125e3565b90612615565b90506000610aa48262c1cc8061264c565b609f805491925083906000198301838110610abb57fe5b600091825260209091200154600160e01b900463ffffffff161115610adf57600019015b60001981015b6001810115610b48576000609f8281548110610afd57fe5b60009182526020909120018054909150600160e01b900463ffffffff168410610b265750610b48565b8054610b3c9087906001600160e01b03166125c0565b95505060001901610ae5565b5050505090565b6001600160a01b038116600090815260a160205260408120609f805483919086908110610b7857fe5b600091825260208220015463ffffffff600160e01b90910481169250610ba590839062c1cc809061264c16565b8354909150600019015b6001810115610c50576000610bf662015180600702601502868481548110610bd357fe5b60009182526020909120015463ffffffff600160e01b9091048116919061264c16565b9050838111610c465782811115610c4057610c39858381548110610c1657fe5b6000918252602090912001548790600160701b90046001600160701b03166125c0565b9550610c46565b50610c50565b5060001901610baf565b505050505b92915050565b60a9546001600160a01b031681565b60a0602052600090815260409020546001600160701b0380821691600160701b810490911690600160e01b900463ffffffff1683565b60a45481565b6001600160a01b038116600090815260a06020526040902054600160701b90046001600160701b03165b919050565b60026001541415610d015760405162461bcd60e51b8152600401610cf890614b24565b60405180910390fd5b6002600155610d153382600082808261266f565b5060018055565b60af5460ff1690565b6201518081565b609a60209081526000928352604080842090915290825290205460ff1681565b6099602052600090815260409020805460019091015460ff82169164ffffffffff61010082048116926001600160d01b03600160301b90930483169291811691600160281b9091041685565b600290565b6001600160a01b0316600090815260a060205260409020546001600160701b031690565b6001600160a01b038116600090815260996020526040812054610c5590610100900464ffffffffff16612d08565b610df7612d14565b6001600160a01b0316610e08611793565b6001600160a01b031614610e2e5760405162461bcd60e51b8152600401610cf890614961565b6101f4821115610e505760405162461bcd60e51b8152600401610cf8906147eb565b6002811015610e715760405162461bcd60e51b8152600401610cf8906149cd565b60aa9190915560ab55565b6101f481565b610e8a612d14565b6001600160a01b0316610e9b611793565b6001600160a01b031614610ec15760405162461bcd60e51b8152600401610cf890614961565b6001600160a01b03831660009081526099602052604090206001015464ffffffffff16610eed57600080fd5b6001600160a01b039283166000908152609a6020908152604080832094909516825292909252919020805460ff1916911515919091179055565b6001600160a01b038116600090815260a160205260408120805482610f5362015180610a8d42826125e3565b9050600082118015610f7f575080610f7d62015180600702601502856001860381548110610bd357fe5b115b15610fba57826001830381548110610f9357fe5b600091825260209091200154600160701b90046001600160701b03169350610cd092505050565b506000949350505050565b609b60209081526000928352604080842090915290825290205481565b600260015414156110055760405162461bcd60e51b8152600401610cf890614b24565b60026001556001600160a01b038216600090815260a06020526040812080548492600160701b9091046001600160701b0316905b6098548110156111c55760006098828154811061105257fe5b6000918252602090912001546001600160a01b0316905061107a61107582612d18565b612e21565b6001600160a01b03821660009081526099602052604090206001810180546001600160d01b0393909316600160281b02600160281b600160f81b031990931692909217909155546110e0906110db9064ffffffffff61010090910416612d08565b612e4e565b6001600160a01b038281166000908152609960205260409020600101805464ffffffffff191664ffffffffff93909316929092179091558516156111bc576001600160a01b03811660009081526099602052604090205461115d908690839060ff166111565786546001600160701b0316611158565b855b612e75565b6001600160a01b038681166000818152609c60209081526040808320948716808452948252808320959095556099815284822060010154928252609b815284822093825292909252919020600160281b9091046001600160d01b031690555b50600101611039565b50505060005b6098548110156112a8576000609882815481106111e457fe5b60009182526020808320909101546001600160a01b038881168452609c8352604080852091909216808552925290912054909150801561129e576001600160a01b038087166000908152609c6020908152604080832093861680845293909152812055611252908783612eed565b816001600160a01b0316866001600160a01b03167f540798df468d7b23d11f156fdb954cb19ad414d150722a7b6d55ba369dea792e836040516112959190614c4f565b60405180910390a35b50506001016111cb565b5050600180555050565b6001600160a01b038116600090815260a16020908152604080832060a090925290912080548254600160701b82046001600160701b0316939291600160e01b900463ffffffff1690815b81811015611375574285828154811061131157fe5b600091825260209091200154600160e01b900463ffffffff16116113685761136185828154811061133e57fe5b6000918252602090912001548790600160701b90046001600160701b031661264c565b955061136d565b611375565b6001016112fc565b50600061138962015180610a8d42826125e3565b90506000821180156113b55750806113b362015180600702601502876001860381548110610bd357fe5b115b156113cf576113cc85600184038154811061133e57fe5b95505b5050505050919050565b60008061141a62015180610a8d62015180609f87815481106113f757fe5b60009182526020909120015463ffffffff600160e01b909104811691906125e316565b9050600061142b8262c1cc8061264c565b9050835b60018101156114a8576000609f828154811061144757fe5b60009182526020909120018054909150600160e01b900463ffffffff16831061147057506114a8565b61149c609f838154811061148057fe5b60009182526020909120015486906001600160e01b03166125c0565b9450506000190161142f565b505050919050565b6114b8612d14565b6001600160a01b03166114c9611793565b6001600160a01b0316146114ef5760405162461bcd60e51b8152600401610cf890614961565b6065546040516000916001600160a01b0316907f8be0079c531659141344cd1fd0a4f28419497f9722a3daafe3b4186f6b6457e0908390a3606580546001600160a01b0319169055565b6097546001600160a01b031681565b609e5481565b6098818154811061155b57fe5b6000918252602090912001546001600160a01b0316905081565b60a55481565b609f5490565b600260015414156115a45760405162461bcd60e51b8152600401610cf890614b24565b6002600181905550610d158160008084336115cd60ab546201518061261590919063ffffffff16565b61266f565b6115da612d14565b6001600160a01b03166115eb611793565b6001600160a01b0316146116115760405162461bcd60e51b8152600401610cf890614961565b6097546001600160a01b038381169116141561163f5760405162461bcd60e51b8152600401610cf890614996565b6001600160a01b03821660009081526099602052604090206001015464ffffffffff161561167f5760405162461bcd60e51b8152600401610cf890614aed565b61169b61168a611793565b6001600160a01b0384169083612eed565b7f8c1256b8896378cd5044f80c202f9772b9d77dc85c8a6eb51967210b09bfaa2882826040516116cc9291906145a9565b60405180910390a15050565b6116e0612d14565b6001600160a01b03166116f1611793565b6001600160a01b0316146117175760405162461bcd60e51b8152600401610cf890614961565b6127108211156117395760405162461bcd60e51b8152600401610cf890614a49565b61271081111561175b5760405162461bcd60e51b8152600401610cf890614b5b565b8082111561177b5760405162461bcd60e51b8152600401610cf890614a49565b60a782905560a881905561178f6000612f48565b5050565b6065546001600160a01b031690565b600054610100900460ff16806117bb57506117bb61321a565b806117c9575060005460ff16155b6117e55760405162461bcd60e51b8152600401610cf890614898565b600054610100900460ff16158015611810576000805460ff1961ff0019909116610100171660011790555b6001600160a01b03861661182357600080fd5b609780546001600160a01b0319166001600160a01b03881617905561184a60ad86866141cb565b5061185760ae84846141cb565b5060af805460ff19166012179055600061187862015180610a8d42826125e3565b60408051808201909152600080825263ffffffff80841660208401908152609f8054600181018255935292517f0bc14066c33013fe88f66e314e4cf150b0b2d4d6451a1a51dbbd1c27cd11de2890920180549351909116600160e01b026001600160e01b039283166001600160e01b031990941693909317909116919091179055905061190361322b565b61190b6132bd565b50801561191e576000805461ff00191690555b505050505050565b60ae8054604080516020601f6002600019610100600188161502019095169490940493840181900481028201810190925282815260609390929091830182828015610a6f5780601f10610a4457610100808354040283529160200191610a6f565b61271081565b60aa5481565b61199b612d14565b6001600160a01b03166119ac611793565b6001600160a01b0316146119d25760405162461bcd60e51b8152600401610cf890614961565b60a9546001600160a01b0316156119fb5760405162461bcd60e51b8152600401610cf890614940565b60a980546001600160a01b0319166001600160a01b0392909216919091179055565b611a25612d14565b6001600160a01b0316611a36611793565b6001600160a01b031614611a5c5760405162461bcd60e51b8152600401610cf890614961565b6105dc8310611a7d5760405162461bcd60e51b8152600401610cf8906147c1565b6175308210611a9e5760405162461bcd60e51b8152600401610cf8906147eb565b6001600160a01b038116611ac45760405162461bcd60e51b8152600401610cf890614838565b60a59290925560a65560a280546001600160a01b0319166001600160a01b03909216919091179055565b60a2546001600160a01b031681565b60a16020528160005260406000208181548110611b1657fe5b6000918252602090912001546001600160701b038082169350600160701b8204169150600160e01b900463ffffffff1683565b60a35481565b60a85481565b60a65481565b600080805260a06020527fb84a74ec6ef4d0e83b6006dfaa014ab4026f9f3b97d186e604d29998a4e808ea8054600160701b90046001600160701b0316825b609854811015611d1557600060988281548110611bb357fe5b6000918252602090912001546001600160a01b03169050611bd661107582612d18565b6001600160a01b03821660009081526099602052604090206001810180546001600160d01b0393909316600160281b02600160281b600160f81b03199093169290921790915554611c37906110db9064ffffffffff61010090910416612d08565b6001600160a01b038281166000908152609960205260409020600101805464ffffffffff191664ffffffffff9390931692909217909155851615611d0c576001600160a01b038116600090815260996020526040902054611cad908690839060ff166111565786546001600160701b0316611158565b6001600160a01b038681166000818152609c60209081526040808320948716808452948252808320959095556099815284822060010154928252609b815284822093825292909252919020600160281b9091046001600160d01b031690555b50600101611b9a565b5050506001600160a01b0383166000908152609a6020908152604080832033845290915290205460ff16611d4857600080fd5b60008211611d685760405162461bcd60e51b8152600401610cf89061491d565b611d728383613333565b611d876001600160a01b038416333085613466565b826001600160a01b03167fac24935fd910bc682b5ccb1a07b718cadf8cf2f6d1404c4f3ddc3662dae40e2983604051611dc09190614c4f565b60405180910390a2505050565b6001600160a01b038116600090815260996020526040812054610c5590600160301b90046001600160d01b031662015180612615565b60ac5460ff1681565b611e17816000610fe2565b50565b611e2261348d565b565b609f8181548110611e3157fe5b6000918252602090912001546001600160e01b0381169150600160e01b900463ffffffff1682565b609d5481565b6001600160a01b038116600090815260a160205260408120609f80548391611eb49162015180919088908110611e9157fe5b60009182526020909120015463ffffffff600160e01b909104811691906125c016565b8254909150600019015b6001810115611f38576000611ee262015180600702601502858481548110610bd357fe5b905082811415611f2057838281548110611ef857fe5b600091825260209091200154600160701b90046001600160701b03169450610c559350505050565b82811015611f2e5750611f38565b5060001901611ebe565b50600095945050505050565b60026001541415611f675760405162461bcd60e51b8152600401610cf890614b24565b6002600155610d153360008084838261266f565b611f83612d14565b6001600160a01b0316611f94611793565b6001600160a01b031614611fba5760405162461bcd60e51b8152600401610cf890614961565b6001600160a01b03831660009081526099602052604090206001015464ffffffffff1615611fe757600080fd5b6098805460018082019092557f2237a976fa961f5921fd19f2b03c925c725d77b20ce8f790c19709c03de4d8140180546001600160a01b0319166001600160a01b039586169081179091556000908152609960209081526040808320808501805464ffffffffff19164264ffffffffff16908117909155815465ffffffffff0019166101009091021760ff19908116961515969096179055609a8252808320959096168252939093529290912080549091169091179055565b60985460609067ffffffffffffffff811180156120bc57600080fd5b506040519080825280602002602001820160405280156120f657816020015b6120e3614245565b8152602001906001900390816120db5790505b506001600160a01b038316600090815260a060205260408120805492935091600160701b90046001600160701b0316905b83518110156114a85760006098828154811061213f57fe5b9060005260206000200160009054906101000a90046001600160a01b031690508085838151811061216c57fe5b6020908102919091018101516001600160a01b0392831690529082166000908152609990915260409020546121b6908790839060ff166111565786546001600160701b0316611158565b8583815181106121c257fe5b602090810291909101810151015250600101612127565b600260015414156121fc5760405162461bcd60e51b8152600401610cf890614b24565b60026001556001600160a01b038316600090815260a06020526040812080548592600160701b9091046001600160701b0316905b6098548110156123ab5760006098828154811061224957fe5b6000918252602090912001546001600160a01b0316905061226c61107582612d18565b6001600160a01b03821660009081526099602052604090206001810180546001600160d01b0393909316600160281b02600160281b600160f81b031990931692909217909155546122cd906110db9064ffffffffff61010090910416612d08565b6001600160a01b038281166000908152609960205260409020600101805464ffffffffff191664ffffffffff93909316929092179091558516156123a2576001600160a01b038116600090815260996020526040902054612343908690839060ff166111565786546001600160701b0316611158565b6001600160a01b038681166000818152609c60209081526040808320948716808452948252808320959095556099815284822060010154928252609b815284822093825292909252919020600160281b9091046001600160d01b031690555b50600101612230565b50506097546123c691506001600160a01b0316333086613466565b6112a884848460006135d5565b60ab5481565b609c60209081526000928352604080842090915290825290205481565b60a75481565b6000610c5582612d18565b61240f612d14565b6001600160a01b0316612420611793565b6001600160a01b0316146124465760405162461bcd60e51b8152600401610cf890614961565b6001600160a01b03811661246c5760405162461bcd60e51b8152600401610cf89061472b565b6065546040516001600160a01b038084169216907f8be0079c531659141344cd1fd0a4f28419497f9722a3daafe3b4186f6b6457e090600090a3606580546001600160a01b0319166001600160a01b0392909216919091179055565b609f5460009060001901816124e462015180610a8d86826125e3565b935060005b608081101561256a578282106124fe5761256a565b600060026001848601010490506000609f828154811061251a57fe5b600091825260209091200154600160e01b900463ffffffff1690508681141561254957509350610cd092505050565b8681101561255957819350612560565b6001820394505b50506001016124e9565b509392505050565b61257a612d14565b6001600160a01b031661258b611793565b6001600160a01b0316146125b15760405162461bcd60e51b8152600401610cf890614961565b60ac805460ff19166001179055565b81810181811015610c555760405162461bcd60e51b8152600401610cf890614861565b60008082116126045760405162461bcd60e51b8152600401610cf8906146f4565b81838161260d57fe5b049392505050565b60008115806126305750508082028282828161262d57fe5b04145b610c555760405162461bcd60e51b8152600401610cf890614b7e565b80820382811115610c555760405162461bcd60e51b8152600401610cf89061468e565b6001600160a01b038616600090815260a06020526040812080548892600160701b9091046001600160701b0316905b609854811015612819576000609882815481106126b757fe5b6000918252602090912001546001600160a01b031690506126da61107582612d18565b6001600160a01b03821660009081526099602052604090206001810180546001600160d01b0393909316600160281b02600160281b600160f81b0319909316929092179091555461273b906110db9064ffffffffff61010090910416612d08565b6001600160a01b038281166000908152609960205260409020600101805464ffffffffff191664ffffffffff9390931692909217909155851615612810576001600160a01b0381166000908152609960205260409020546127b1908690839060ff166111565786546001600160701b0316611158565b6001600160a01b038681166000818152609c60209081526040808320948716808452948252808320959095556099815284822060010154928252609b815284822093825292909252919020600160281b9091046001600160d01b031690555b5060010161269e565b5050506001600160a01b038716600090815260a16020908152604080832060a09092528220815460ac5492939192829190829060ff168061288a575061285f428961264c565b86600184038154811061286e57fe5b600091825260209091200154600160e01b900463ffffffff1611155b1561299d5784546001600160701b038082169550600160701b9091041692506128b282613cbf565b855463ffffffff91909116600160e01b026001600160e01b0390911617855587156129985760006128f462015180610a8d816128ee428e61264c565b906125e3565b90506000612935620151806128ee8a600188038154811061291157fe5b600091825260209091200154859063ffffffff600160e01b90910481169061264c16565b9050600061295c6129548360010160aa5461261590919063ffffffff16565b612710613ce5565b90506129926127106128ee838c60018a038154811061297757fe5b6000918252602090912001546001600160701b031690612615565b93505050505b612b0b565b8454600160e01b900463ffffffff16805b83811015612aeb576129c0428b61264c565b8882815481106129cc57fe5b600091825260209091200154600160e01b900463ffffffff1611156129f057612aeb565b612a1d8882815481106129ff57fe5b6000918252602090912001546001600160701b038881169116613cfb565b9550612a53888281548110612a2e57fe5b6000918252602090912001546001600160701b0387811691600160701b900416613cfb565b94508915612adf576000612a7e62015180610a8d620151806128ee8f4261264c90919063ffffffff16565b90506000612a98620151806128ee8c868154811061291157fe5b90506000612ab76129548360010160aa5461261590919063ffffffff16565b9050612ad9612ad26127106128ee848f898154811061297757fe5b87906125c0565b95505050505b600191820191016129ae565b50855463ffffffff909116600160e01b026001600160e01b039091161785555b6000846001600160701b031611612b345760405162461bcd60e51b8152600401610cf890614812565b8454612b49906001600160701b031685613d2a565b85546001600160701b0319166001600160701b0391821617808755612b7791600160701b9091041684613d2a565b8554600160701b600160e01b031916600160701b6001600160701b0392831602178655609d54612ba891861661264c565b609d55609e54612bc1906001600160701b03851661264c565b609e819055508c6001600160a01b03167f2fd83d5e9f5d240bed47a97a24cf354e4047e25edc2da27b01fd95e5e8a0c9a5858e604051612c02929190614bec565b60405180910390a28015612c9c57612c22846001600160701b0316613d59565b612c3e612c2e82613dda565b6001600160701b03861690613d2a565b9350612c4c89826000613e03565b8c6001600160a01b0316896001600160a01b03167f7e7ff29ed04cfb223bc9b02606f69520517c117ee82c9158ed2d96323c1ef38583604051612c8f9190614c4f565b60405180910390a3612cc3565b8a15612cc357612cc3612cbe6127106128ee6001600160701b0388168f612615565b613d59565b8b15612ce457612cdf8a856001600160701b03168d60016135d5565b612cf9565b612cf98a856001600160701b03166001613e03565b50505050505050505050505050565b6000610c554283613ce5565b3390565b6000609e5460001415612d5757506001600160a01b038116600090815260996020526040902060010154600160281b90046001600160d01b0316610cd0565b6001600160a01b038216600090815260996020526040902054610c5590612def9060ff16612d8757609d54612d8b565b609e545b6001600160a01b038516600090815260996020526040902080546001909101546128ee91670de0b6b3a764000091610a8d916001600160d01b03600160301b82041691839164ffffffffff91821691612de991610100900416612d08565b9061264c565b6001600160a01b038416600090815260996020526040902060010154600160281b90046001600160d01b0316906125c0565b60006001600160d01b03821115612e4a5760405162461bcd60e51b8152600401610cf8906146bd565b5090565b600064ffffffffff821115612e4a5760405162461bcd60e51b8152600401610cf890614bb5565b6001600160a01b038084166000818152609c6020908152604080832094871680845294825280832054938352609b825280832094835293905291822054612ee39190612edd90670de0b6b3a7640000906128ee90612ed690612de98a612d18565b8790612615565b906125c0565b90505b9392505050565b612f438363a9059cbb60e01b8484604051602401612f0c9291906145a9565b60408051601f198184030181529190526020810180516001600160e01b03166001600160e01b031990931692909217909152613e23565b505050565b60ac5460ff1615612f5857611e17565b6097546040516370a0823160e01b81526000916001600160a01b0316906370a0823190612f89903090600401614571565b60206040518083038186803b158015612fa157600080fd5b505afa158015612fb5573d6000803e3d6000fd5b505050506040513d601f19601f82011682018060405250810190612fd991906144cc565b9050600060a960009054906101000a90046001600160a01b03166001600160a01b03166312065fe06040518163ffffffff1660e01b815260040160206040518083038186803b15801561302b57600080fd5b505afa15801561303f573d6000803e3d6000fd5b505050506040513d601f19601f8201168201806040525081019061306391906144cc565b9050600061307183836125c0565b90508061308057505050611e17565b6000613092826128ee85612710612615565b905060006130b260026128ee60a75460a8546125c090919063ffffffff16565b905060006130cb8760a8546125c090919063ffffffff16565b905060006130df60a7548960a75403613ce5565b90508184111561316e5760006131056130fe6127106128ee8988612615565b889061264c565b60a954604051632e1a7d4d60e01b81529192506001600160a01b031690632e1a7d4d90613136908490600401614c4f565b600060405180830381600087803b15801561315057600080fd5b505af1158015613164573d6000803e3d6000fd5b5050505050613210565b8084101561321057600061318c87612de96127106128ee8a89612615565b60a9546097549192506131ac916001600160a01b03908116911683612eed565b60a960009054906101000a90046001600160a01b03166001600160a01b0316633a4b66f16040518163ffffffff1660e01b8152600401600060405180830381600087803b1580156131fc57600080fd5b505af1158015612cf9573d6000803e3d6000fd5b5050505050505050565b600061322530613eb2565b15905090565b600054610100900460ff1680613244575061324461321a565b80613252575060005460ff16155b61326e5760405162461bcd60e51b8152600401610cf890614898565b600054610100900460ff16158015613299576000805460ff1961ff0019909116610100171660011790555b6132a1613eb8565b6132a9613f39565b8015611e17576000805461ff001916905550565b600054610100900460ff16806132d657506132d661321a565b806132e4575060005460ff16155b6133005760405162461bcd60e51b8152600401610cf890614898565b600054610100900460ff1615801561332b576000805460ff1961ff0019909116610100171660011790555b6132a9614013565b6001600160a01b03821660009081526099602052604090208054610100900464ffffffffff1642106133955761336f61107583620151806125e3565b81546001600160d01b0391909116600160301b0265ffffffffffff90911617815561340d565b80546000906133b090610100900464ffffffffff164261264c565b82549091506000906133d3908390600160301b90046001600160d01b0316612615565b90506133e9611075620151806128ee87856125c0565b83546001600160d01b0391909116600160301b0265ffffffffffff90911617835550505b61341642612e4e565b60018201805464ffffffffff191664ffffffffff929092169190911790556134446110db42620151806125c0565b815464ffffffffff919091166101000265ffffffffff00199091161790555050565b613487846323b872dd60e01b858585604051602401612f0c93929190614585565b50505050565b60006134a462015180612edd81610a8d42826125e3565b609f8054919250829060001983018381106134bb57fe5b600091825260209091200154600160e01b900463ffffffff16101561178f575b609f805483919060001981019081106134f057fe5b600091825260209091200154600160e01b900463ffffffff16146135ae57600061352c62015180609f6001609f805490500381548110611e9157fe5b60408051808201909152600080825263ffffffff92831660208301908152609f8054600181018255925291517f0bc14066c33013fe88f66e314e4cf150b0b2d4d6451a1a51dbbd1c27cd11de2890910180549251909316600160e01b026001600160e01b039182166001600160e01b03199093169290921716179055506134db565b60a65460a454146135c05760a65460a4555b60a55460a3541461178f5760a55460a3555050565b600083116135f55760405162461bcd60e51b8152600401610cf890614771565b60a3548211156136175760405162461bcd60e51b8152600401610cf890614799565b60ac5460ff161561363a5760405162461bcd60e51b8152600401610cf8906149f0565b6001600160a01b038416600090815260a06020526040902061365a61348d565b600061366c6127106128ee8787612615565b9050600061369560a3546000146136855760a354613688565b60015b60a4546128ee9088612615565b905060006136ab6136a6888561264c565b613dda565b905060006136cc6136a66136c56127106128ee8c88612615565b8a906125c0565b85549091506136e4906001600160701b031683613cfb565b85546001600160701b0319166001600160701b039182161780875561371291600160701b9091041682613cfb565b8554600160701b600160e01b031916600160701b6001600160701b0392831602178655609d546137439184166125c0565b609d55609e5461375c906001600160701b0383166125c0565b609e55600061377262015180610a8d42826125e3565b9050866137895761378681620151806125c0565b90505b60006137988262c1cc806125c0565b6001600160a01b038c16600090815260a1602052604090205490915080158061380257506001600160a01b038c16600090815260a160205260409020805483919060001984019081106137e757fe5b600091825260209091200154600160e01b900463ffffffff16105b156138b1576001600160a01b038c16600090815260a16020908152604080832081516060810183526001600160701b03808b16825289811682860190815263ffffffff808a16958401958652845460018101865594885295909620915191909201805495519351909416600160e01b026001600160e01b03938316600160701b02600160701b600160e01b0319929093166001600160701b031990961695909517161716919091179055613bde565b6001600160a01b038c16600090815260a160205260409020805483919060001984019081106138dc57fe5b600091825260209091200154600160e01b900463ffffffff16111561390057600019015b6001600160a01b038c16600090815260a1602052604090208054839190600019840190811061392b57fe5b600091825260209091200154600160e01b900463ffffffff1614156139ee576001600160a01b038c16600090815260a1602052604081208054600019840190811061397257fe5b60009182526020909120018054909150613995906001600160701b031687613cfb565b81546001600160701b0319166001600160701b03918216178083556139c391600160701b9091041686613cfb565b81546001600160701b0391909116600160701b02600160701b600160e01b0319909116179055613bde565b506001600160a01b038b16600090815260a160205260408120805491906000198301838110613a1957fe5b90600052602060002001905060a160008e6001600160a01b03166001600160a01b0316815260200190815260200160002060405180606001604052808360000160009054906101000a90046001600160701b03166001600160701b0316815260200183600001600e9054906101000a90046001600160701b03166001600160701b0316815260200183600001601c9054906101000a900463ffffffff1663ffffffff168152509080600181540180825580915050600190039060005260206000200160009091909190915060008201518160000160006101000a8154816001600160701b0302191690836001600160701b03160217905550602082015181600001600e6101000a8154816001600160701b0302191690836001600160701b03160217905550604082015181600001601c6101000a81548163ffffffff021916908363ffffffff1602179055505050858160000160006101000a8154816001600160701b0302191690836001600160701b031602179055508481600001600e6101000a8154816001600160701b0302191690836001600160701b031602179055508281600001601c6101000a81548163ffffffff021916908363ffffffff160217905550505b609f54600019018915613bf057600019015b6000609f8281548110613bff57fe5b60009182526020909120018054909150613c2b906001600160e01b03166001600160701b038816614099565b81546001600160e01b0319166001600160e01b03919091161781558815613c695760a254609754613c69916001600160a01b0391821691168b612eed565b848e6001600160a01b03167f9cfd25589d1eb8ad71e342a86a8524e83522e3936c0803048c08f6d9ad974f408f8a8a604051613ca793929190614c58565b60405180910390a35050505050505050505050505050565b600063ffffffff821115612e4a5760405162461bcd60e51b8152600401610cf890614a6c565b6000818310613cf45781612ee6565b5090919050565b8181016001600160701b038083169082161015610c555760405162461bcd60e51b8152600401610cf890614861565b8082036001600160701b038084169082161115610c555760405162461bcd60e51b8152600401610cf89061468e565b6097546040516370a0823160e01b81526000916001600160a01b0316906370a0823190613d8a903090600401614571565b60206040518083038186803b158015613da257600080fd5b505afa158015613db6573d6000803e3d6000fd5b505050506040513d601f19601f82011682018060405250810190612f4391906144cc565b60006001600160701b03821115612e4a5760405162461bcd60e51b8152600401610cf8906148e6565b613e0c82613d59565b609754612f43906001600160a01b03168484612eed565b6060613e78826040518060400160405280602081526020017f5361666545524332303a206c6f772d6c6576656c2063616c6c206661696c6564815250856001600160a01b03166140c89092919063ffffffff16565b805190915015612f435780806020019051810190613e969190614498565b612f435760405162461bcd60e51b8152600401610cf890614aa3565b3b151590565b600054610100900460ff1680613ed15750613ed161321a565b80613edf575060005460ff16155b613efb5760405162461bcd60e51b8152600401610cf890614898565b600054610100900460ff161580156132a9576000805460ff1961ff0019909116610100171660011790558015611e17576000805461ff001916905550565b600054610100900460ff1680613f525750613f5261321a565b80613f60575060005460ff16155b613f7c5760405162461bcd60e51b8152600401610cf890614898565b600054610100900460ff16158015613fa7576000805460ff1961ff0019909116610100171660011790555b6000613fb1612d14565b606580546001600160a01b0319166001600160a01b038316908117909155604051919250906000907f8be0079c531659141344cd1fd0a4f28419497f9722a3daafe3b4186f6b6457e0908290a3508015611e17576000805461ff001916905550565b600054610100900460ff168061402c575061402c61321a565b8061403a575060005460ff16155b6140565760405162461bcd60e51b8152600401610cf890614898565b600054610100900460ff16158015614081576000805460ff1961ff0019909116610100171660011790555b600180558015611e17576000805461ff001916905550565b8181016001600160e01b038083169082161015610c555760405162461bcd60e51b8152600401610cf890614861565b6060612ee38484600085856140dc85613eb2565b6140f85760405162461bcd60e51b8152600401610cf890614a12565b60006060866001600160a01b031685876040516141159190614555565b60006040518083038185875af1925050503d8060008114614152576040519150601f19603f3d011682016040523d82523d6000602084013e614157565b606091505b5091509150614167828286614172565b979650505050505050565b60608315614181575081612ee6565b8251156141915782518084602001fd5b8160405162461bcd60e51b8152600401610cf8919061465b565b604080516060810182526000808252602082018190529181019190915290565b828054600181600116156101000203166002900490600052602060002090601f016020900481019282601f1061420c5782800160ff19823516178555614239565b82800160010185558215614239579182015b8281111561423957823582559160200191906001019061421e565b50612e4a92915061425c565b604080518082019091526000808252602082015290565b5b80821115612e4a576000815560010161425d565b80356001600160a01b0381168114610c5557600080fd5b60008083601f840112614299578182fd5b50813567ffffffffffffffff8111156142b0578182fd5b6020830191508360208285010111156142c857600080fd5b9250929050565b6000602082840312156142e0578081fd5b612ee68383614271565b600080604083850312156142fc578081fd5b6143068484614271565b91506143158460208501614271565b90509250929050565b600080600060608486031215614332578081fd5b833561433d81614d33565b9250602084013561434d81614d33565b9150604084013561435d81614d48565b809150509250925092565b6000806040838503121561437a578182fd5b6143848484614271565b9150602083013561439481614d48565b809150509250929050565b6000806000806000606086880312156143b6578081fd5b85356143c181614d33565b9450602086013567ffffffffffffffff808211156143dd578283fd5b6143e989838a01614288565b90965094506040880135915080821115614401578283fd5b5061440e88828901614288565b969995985093965092949392505050565b60008060408385031215614431578182fd5b61443b8484614271565b946020939093013593505050565b60008060006060848603121561445d578283fd5b6144678585614271565b95602085013595506040909401359392505050565b60006020828403121561448d578081fd5b8135612ee681614d48565b6000602082840312156144a9578081fd5b8151612ee681614d48565b6000602082840312156144c5578081fd5b5035919050565b6000602082840312156144dd578081fd5b5051919050565b600080604083850312156144f6578182fd5b823591506143158460208501614271565b60008060408385031215614519578182fd5b50508035926020909101359150565b60008060006060848603121561453c578283fd5b8335925060208401359150604084013561435d81614d33565b60008251614567818460208701614d07565b9190910192915050565b6001600160a01b0391909116815260200190565b6001600160a01b039384168152919092166020820152604081019190915260600190565b6001600160a01b03929092168252602082015260400190565b602080825282518282018190526000919060409081850190868401855b8281101561460d57815180516001600160a01b031685528601518685015292840192908501906001016145df565b5091979650505050505050565b901515815260200190565b941515855264ffffffffff93841660208601526001600160d01b0392831660408601529216606084015216608082015260a00190565b600060208252825180602084015261467a816040850160208701614d07565b601f01601f19169190910160400192915050565b602080825260159082015274426f72696e674d6174683a20556e646572666c6f7760581b604082015260600190565b6020808252601c908201527f426f72696e674d6174683a2075696e74323038204f766572666c6f7700000000604082015260600190565b6020808252601c908201527f426f72696e674d6174683a206469766973696f6e206279207a65726f00000000604082015260600190565b60208082526026908201527f4f776e61626c653a206e6577206f776e657220697320746865207a65726f206160408201526564647265737360d01b606082015260800190565b6020808252600e908201526d043616e6e6f74207374616b6520360941b604082015260600190565b6020808252600e908201526d1bdd995c881b585e081cdc195b9960921b604082015260600190565b60208082526010908201526f1bdd995c881b585e081c185e5b595b9d60821b604082015260600190565b6020808252600d908201526c6f766572206d6178207261746560981b604082015260600190565b6020808252600c908201526b6e6f20657870206c6f636b7360a01b604082015260600190565b6020808252600f908201526e696e76616c6964206164647265737360881b604082015260600190565b60208082526018908201527f426f72696e674d6174683a20416464204f766572666c6f770000000000000000604082015260600190565b6020808252602e908201527f496e697469616c697a61626c653a20636f6e747261637420697320616c72656160408201526d191e481a5b9a5d1a585b1a5e995960921b606082015260800190565b6020808252601c908201527f426f72696e674d6174683a2075696e74313132204f766572666c6f7700000000604082015260600190565b602080825260099082015268139bc81c995dd85c9960ba1b604082015260600190565b60208082526007908201526610b0b9b9b4b3b760c91b604082015260600190565b6020808252818101527f4f776e61626c653a2063616c6c6572206973206e6f7420746865206f776e6572604082015260600190565b6020808252601d908201527f43616e6e6f74207769746864726177207374616b696e6720746f6b656e000000604082015260600190565b6020808252600990820152686d696e2064656c617960b81b604082015260600190565b60208082526008908201526739b43aba3237bbb760c11b604082015260600190565b6020808252601d908201527f416464726573733a2063616c6c20746f206e6f6e2d636f6e7472616374000000604082015260600190565b6020808252600990820152686d696e2072616e676560b81b604082015260600190565b6020808252601b908201527f426f72696e674d6174683a2075696e743332204f766572666c6f770000000000604082015260600190565b6020808252602a908201527f5361666545524332303a204552433230206f7065726174696f6e20646964206e6040820152691bdd081cdd58d8d9595960b21b606082015260800190565b6020808252601c908201527f43616e6e6f742077697468647261772072657761726420746f6b656e00000000604082015260600190565b6020808252601f908201527f5265656e7472616e637947756172643a207265656e7472616e742063616c6c00604082015260600190565b6020808252600990820152686d61782072616e676560b81b604082015260600190565b60208082526018908201527f426f72696e674d6174683a204d756c204f766572666c6f770000000000000000604082015260600190565b6020808252601b908201527f426f72696e674d6174683a2075696e743430204f766572666c6f770000000000604082015260600190565b6001600160701b039290921682521515602082015260400190565b6001600160701b03938416815291909216602082015263ffffffff909116604082015260600190565b6001600160e01b0392909216825263ffffffff16602082015260400190565b90815260200190565b9283526001600160701b03918216602084015216604082015260600190565b6000608082018683526020868185015260408681860152606060808187015283875180865260a0880191508489019550865b81811015614ce857865180516001600160701b03908116855287820151168785015285015163ffffffff16858401529585019591830191600101614ca9565b50909b9a5050505050505050505050565b60ff91909116815260200190565b60005b83811015614d22578181015183820152602001614d0a565b838111156134875750506000910152565b6001600160a01b0381168114611e1757600080fd5b8015158114611e1757600080fdfea26469706673582212200968f6aeb859f4b8c0c3e9ab470f7fbf6757fecb93412ccd6ca39ad3550e3dd964736f6c634300060c0033",
    "linkReferences": {}
  }
}