{
  "address": "0xCc8f7a89d89c2AB3559f484E0C656423E979ac9C",
  "abi": [
    {
      "inputs": [
        {
          "internalType": "contract IJBOperatorStore",
          "name": "_operatorStore",
          "type": "address"
        },
        {
          "internalType": "contract IJBProjects",
          "name": "_projects",
          "type": "address"
        },
        {
          "internalType": "contract IJBFundingCycleStore",
          "name": "_fundingCycleStore",
          "type": "address"
        },
        {
          "internalType": "address",
          "name": "_owner",
          "type": "address"
        }
      ],
      "stateMutability": "nonpayable",
      "type": "constructor"
    },
    {
      "inputs": [],
      "name": "DUPLICATE_TERMINALS",
      "type": "error"
    },
    {
      "inputs": [],
      "name": "INVALID_PROJECT_ID_IN_DIRECTORY",
      "type": "error"
    },
    {
      "inputs": [],
      "name": "SET_CONTROLLER_NOT_ALLOWED",
      "type": "error"
    },
    {
      "inputs": [],
      "name": "SET_TERMINALS_NOT_ALLOWED",
      "type": "error"
    },
    {
      "inputs": [],
      "name": "TOKEN_NOT_ACCEPTED",
      "type": "error"
    },
    {
      "inputs": [],
      "name": "UNAUTHORIZED",
      "type": "error"
    },
    {
      "anonymous": false,
      "inputs": [
        {
          "indexed": true,
          "internalType": "uint256",
          "name": "projectId",
          "type": "uint256"
        },
        {
          "indexed": true,
          "internalType": "contract IJBPaymentTerminal",
          "name": "terminal",
          "type": "address"
        },
        {
          "indexed": false,
          "internalType": "address",
          "name": "caller",
          "type": "address"
        }
      ],
      "name": "AddTerminal",
      "type": "event"
    },
    {
      "anonymous": false,
      "inputs": [
        {
          "indexed": true,
          "internalType": "address",
          "name": "previousOwner",
          "type": "address"
        },
        {
          "indexed": true,
          "internalType": "address",
          "name": "newOwner",
          "type": "address"
        }
      ],
      "name": "OwnershipTransferred",
      "type": "event"
    },
    {
      "anonymous": false,
      "inputs": [
        {
          "indexed": true,
          "internalType": "uint256",
          "name": "projectId",
          "type": "uint256"
        },
        {
          "indexed": true,
          "internalType": "address",
          "name": "controller",
          "type": "address"
        },
        {
          "indexed": false,
          "internalType": "address",
          "name": "caller",
          "type": "address"
        }
      ],
      "name": "SetController",
      "type": "event"
    },
    {
      "anonymous": false,
      "inputs": [
        {
          "indexed": true,
          "internalType": "address",
          "name": "addr",
          "type": "address"
        },
        {
          "indexed": true,
          "internalType": "bool",
          "name": "flag",
          "type": "bool"
        },
        {
          "indexed": false,
          "internalType": "address",
          "name": "caller",
          "type": "address"
        }
      ],
      "name": "SetIsAllowedToSetFirstController",
      "type": "event"
    },
    {
      "anonymous": false,
      "inputs": [
        {
          "indexed": true,
          "internalType": "uint256",
          "name": "projectId",
          "type": "uint256"
        },
        {
          "indexed": true,
          "internalType": "address",
          "name": "token",
          "type": "address"
        },
        {
          "indexed": true,
          "internalType": "contract IJBPaymentTerminal",
          "name": "terminal",
          "type": "address"
        },
        {
          "indexed": false,
          "internalType": "address",
          "name": "caller",
          "type": "address"
        }
      ],
      "name": "SetPrimaryTerminal",
      "type": "event"
    },
    {
      "anonymous": false,
      "inputs": [
        {
          "indexed": true,
          "internalType": "uint256",
          "name": "projectId",
          "type": "uint256"
        },
        {
          "indexed": false,
          "internalType": "contract IJBPaymentTerminal[]",
          "name": "terminals",
          "type": "address[]"
        },
        {
          "indexed": false,
          "internalType": "address",
          "name": "caller",
          "type": "address"
        }
      ],
      "name": "SetTerminals",
      "type": "event"
    },
    {
      "inputs": [
        {
          "internalType": "uint256",
          "name": "",
          "type": "uint256"
        }
      ],
      "name": "controllerOf",
      "outputs": [
        {
          "internalType": "address",
          "name": "",
          "type": "address"
        }
      ],
      "stateMutability": "view",
      "type": "function"
    },
    {
      "inputs": [],
      "name": "fundingCycleStore",
      "outputs": [
        {
          "internalType": "contract IJBFundingCycleStore",
          "name": "",
          "type": "address"
        }
      ],
      "stateMutability": "view",
      "type": "function"
    },
    {
      "inputs": [
        {
          "internalType": "address",
          "name": "",
          "type": "address"
        }
      ],
      "name": "isAllowedToSetFirstController",
      "outputs": [
        {
          "internalType": "bool",
          "name": "",
          "type": "bool"
        }
      ],
      "stateMutability": "view",
      "type": "function"
    },
    {
      "inputs": [
        {
          "internalType": "uint256",
          "name": "_projectId",
          "type": "uint256"
        },
        {
          "internalType": "contract IJBPaymentTerminal",
          "name": "_terminal",
          "type": "address"
        }
      ],
      "name": "isTerminalOf",
      "outputs": [
        {
          "internalType": "bool",
          "name": "",
          "type": "bool"
        }
      ],
      "stateMutability": "view",
      "type": "function"
    },
    {
      "inputs": [],
      "name": "operatorStore",
      "outputs": [
        {
          "internalType": "contract IJBOperatorStore",
          "name": "",
          "type": "address"
        }
      ],
      "stateMutability": "view",
      "type": "function"
    },
    {
      "inputs": [],
      "name": "owner",
      "outputs": [
        {
          "internalType": "address",
          "name": "",
          "type": "address"
        }
      ],
      "stateMutability": "view",
      "type": "function"
    },
    {
      "inputs": [
        {
          "internalType": "uint256",
          "name": "_projectId",
          "type": "uint256"
        },
        {
          "internalType": "address",
          "name": "_token",
          "type": "address"
        }
      ],
      "name": "primaryTerminalOf",
      "outputs": [
        {
          "internalType": "contract IJBPaymentTerminal",
          "name": "",
          "type": "address"
        }
      ],
      "stateMutability": "view",
      "type": "function"
    },
    {
      "inputs": [],
      "name": "projects",
      "outputs": [
        {
          "internalType": "contract IJBProjects",
          "name": "",
          "type": "address"
        }
      ],
      "stateMutability": "view",
      "type": "function"
    },
    {
      "inputs": [],
      "name": "renounceOwnership",
      "outputs": [],
      "stateMutability": "nonpayable",
      "type": "function"
    },
    {
      "inputs": [
        {
          "internalType": "uint256",
          "name": "_projectId",
          "type": "uint256"
        },
        {
          "internalType": "address",
          "name": "_controller",
          "type": "address"
        }
      ],
      "name": "setControllerOf",
      "outputs": [],
      "stateMutability": "nonpayable",
      "type": "function"
    },
    {
      "inputs": [
        {
          "internalType": "address",
          "name": "_address",
          "type": "address"
        },
        {
          "internalType": "bool",
          "name": "_flag",
          "type": "bool"
        }
      ],
      "name": "setIsAllowedToSetFirstController",
      "outputs": [],
      "stateMutability": "nonpayable",
      "type": "function"
    },
    {
      "inputs": [
        {
          "internalType": "uint256",
          "name": "_projectId",
          "type": "uint256"
        },
        {
          "internalType": "address",
          "name": "_token",
          "type": "address"
        },
        {
          "internalType": "contract IJBPaymentTerminal",
          "name": "_terminal",
          "type": "address"
        }
      ],
      "name": "setPrimaryTerminalOf",
      "outputs": [],
      "stateMutability": "nonpayable",
      "type": "function"
    },
    {
      "inputs": [
        {
          "internalType": "uint256",
          "name": "_projectId",
          "type": "uint256"
        },
        {
          "internalType": "contract IJBPaymentTerminal[]",
          "name": "_terminals",
          "type": "address[]"
        }
      ],
      "name": "setTerminalsOf",
      "outputs": [],
      "stateMutability": "nonpayable",
      "type": "function"
    },
    {
      "inputs": [
        {
          "internalType": "uint256",
          "name": "_projectId",
          "type": "uint256"
        }
      ],
      "name": "terminalsOf",
      "outputs": [
        {
          "internalType": "contract IJBPaymentTerminal[]",
          "name": "",
          "type": "address[]"
        }
      ],
      "stateMutability": "view",
      "type": "function"
    },
    {
      "inputs": [
        {
          "internalType": "address",
          "name": "newOwner",
          "type": "address"
        }
      ],
      "name": "transferOwnership",
      "outputs": [],
      "stateMutability": "nonpayable",
      "type": "function"
    }
  ],
  "transactionHash": "0x527bd10e3208de8dba70824b3a2f4bc57dfca93169c61448b84a79474265bc06",
  "args": [
    "0x6F3C5afCa0c9eDf3926eF2dDF17c8ae6391afEfb",
    "0xD8B4359143eda5B2d763E127Ed27c77addBc47d3",
    "0x6B8e01DAA8A61b544F96d2738893E05D04BF1D12",
    "0xE9bE6df23C7f9CaBa3005DA2fa2d8714d340D0aF"
  ],
  "numDeployments": 3,
  "solcInputHash": "a1f674e02c4866a16e5bde886a31b82e",
  "bytecode": "0x60e06040523480156200001157600080fd5b5060405162001d7d38038062001d7d8339810160408190526200003491620000d0565b606084901b6001600160601b031916608052620000513362000080565b6001600160601b0319606084811b821660a05283901b1660c052620000768162000080565b5050505062000151565b600080546001600160a01b038381166001600160a01b0319831681178455604051919092169283917f8be0079c531659141344cd1fd0a4f28419497f9722a3daafe3b4186f6b6457e09190a35050565b60008060008060808587031215620000e757600080fd5b8451620000f48162000138565b6020860151909450620001078162000138565b60408601519093506200011a8162000138565b60608601519092506200012d8162000138565b939692955090935050565b6001600160a01b03811681146200014e57600080fd5b50565b60805160601c60a05160601c60c05160601c611ba7620001d66000396000818160ff0152818161076901528181610a8f01526112fc0152600081816101e5015281816102d7015281816105860152818161067001526109b001526000818161023001528181611130015281816111ff015281816114e201526115b10152611ba76000f3fe608060405234801561001057600080fd5b50600436106100f55760003560e01c80638620265011610097578063ad007d6311610066578063ad007d631461022b578063c5664e2114610252578063d175415314610275578063f2fde38b1461029557600080fd5b806386202650146101cd5780638b79543c146101e05780638da5cb5b14610207578063a1ed31751461021857600080fd5b80636e49181f116100d35780636e49181f1461017c578063714e7f321461019f578063715018a6146101b2578063821b9fd8146101ba57600080fd5b8063557e7155146100fa5780635dd8f6aa1461013e57806363d0850a14610167575b600080fd5b6101217f000000000000000000000000000000000000000000000000000000000000000081565b6040516001600160a01b0390911681526020015b60405180910390f35b61012161014c366004611889565b6003602052600090815260409020546001600160a01b031681565b61017a6101753660046118e0565b6102a8565b005b61018f61018a3660046118bb565b6104ce565b6040519015158152602001610135565b61017a6101ad3660046118bb565b610557565b61017a6108fc565b61017a6101c8366004611922565b610981565b6101216101db3660046118bb565b610cca565b6101217f000000000000000000000000000000000000000000000000000000000000000081565b6000546001600160a01b0316610121565b61017a6102263660046117b3565b610e5a565b6101217f000000000000000000000000000000000000000000000000000000000000000081565b61018f610260366004611772565b60046020526000908152604090205460ff1681565b610288610283366004611889565b610f4e565b6040516101359190611a01565b61017a6102a3366004611772565b610fba565b6040517f6352211e000000000000000000000000000000000000000000000000000000008152600481018490527f00000000000000000000000000000000000000000000000000000000000000006001600160a01b031690636352211e9060240160206040518083038186803b15801561032157600080fd5b505afa158015610335573d6000803e3d6000fd5b505050506040513d601f19601f820116820180604052508101906103599190611796565b8360106103678383836110d0565b6040517fdf21a7dd0000000000000000000000000000000000000000000000000000000081526001600160a01b0386811660048301526024820188905285169063df21a7dd9060440160206040518083038186803b1580156103c857600080fd5b505afa1580156103dc573d6000803e3d6000fd5b505050506040513d601f19601f8201168201806040525081019061040091906117ec565b610436576040517f1f5522f600000000000000000000000000000000000000000000000000000000815260040160405180910390fd5b61044086856112b7565b60008681526002602090815260408083206001600160a01b038981168086529184529382902080547fffffffffffffffffffffffff00000000000000000000000000000000000000001694891694851790559051338152909189917fc670a502bbb9f8a4315f95eca901a9f99b65f89a2eb5705a58050e5c00f9d672910160405180910390a4505050505050565b6000805b60008481526001602052604090205481101561054b57600084815260016020526040902080546001600160a01b03851691908390811061051457610514611b1f565b6000918252602090912001546001600160a01b03161415610539576001915050610551565b8061054381611ab7565b9150506104d2565b50600090505b92915050565b6040517f6352211e000000000000000000000000000000000000000000000000000000008152600481018390527f00000000000000000000000000000000000000000000000000000000000000006001600160a01b031690636352211e9060240160206040518083038186803b1580156105d057600080fd5b505afa1580156105e4573d6000803e3d6000fd5b505050506040513d601f19601f820116820180604052508101906106089190611796565b6000838152600360205260409020548390600e906001600160a01b031633148061066157503360009081526004602052604090205460ff16801561066157506000858152600360205260409020546001600160a01b0316155b61066d84848484611478565b857f00000000000000000000000000000000000000000000000000000000000000006001600160a01b03166306661abd6040518163ffffffff1660e01b815260040160206040518083038186803b1580156106c757600080fd5b505afa1580156106db573d6000803e3d6000fd5b505050506040513d601f19601f820116820180604052508101906106ff91906118a2565b1015610737576040517f945074a600000000000000000000000000000000000000000000000000000000815260040160405180910390fd5b6040517f43a266c2000000000000000000000000000000000000000000000000000000008152600481018790526000907f00000000000000000000000000000000000000000000000000000000000000006001600160a01b0316906343a266c2906024016101206040518083038186803b1580156107b457600080fd5b505afa1580156107c8573d6000803e3d6000fd5b505050506040513d601f19601f820116820180604052508101906107ec9190611809565b6000888152600360205260409020549091506001600160a01b0316331480159061082c57506000878152600360205260409020546001600160a01b031615155b8015610844575061010081015160091c600190811614155b1561087b576040517fa33db4cb00000000000000000000000000000000000000000000000000000000815260040160405180910390fd5b60008781526003602090815260409182902080547fffffffffffffffffffffffff0000000000000000000000000000000000000000166001600160a01b038a16908117909155915133815289917f7f9a7dcb234c909a09de2f344661ad9e5b24067adb97c908647c2edcbb121c30910160405180910390a350505050505050565b6000546001600160a01b03163314610975576040517f08c379a000000000000000000000000000000000000000000000000000000000815260206004820181905260248201527f4f776e61626c653a2063616c6c6572206973206e6f7420746865206f776e657260448201526064015b60405180910390fd5b61097f600061166a565b565b6040517f6352211e000000000000000000000000000000000000000000000000000000008152600481018490527f00000000000000000000000000000000000000000000000000000000000000006001600160a01b031690636352211e9060240160206040518083038186803b1580156109fa57600080fd5b505afa158015610a0e573d6000803e3d6000fd5b505050506040513d601f19601f82011682018060405250810190610a329190611796565b6000848152600360205260409020548490600f906001600160a01b03163314610a5d84848484611478565b6040517f43a266c2000000000000000000000000000000000000000000000000000000008152600481018890526000907f00000000000000000000000000000000000000000000000000000000000000006001600160a01b0316906343a266c2906024016101206040518083038186803b158015610ada57600080fd5b505afa158015610aee573d6000803e3d6000fd5b505050506040513d601f19601f82011682018060405250810190610b129190611809565b6000898152600360205260409020549091506001600160a01b03163314801590610b48575061010081015160081c600190811614155b15610b7f576040517febfde6be00000000000000000000000000000000000000000000000000000000815260040160405180910390fd5b6000888152600160205260409020610b989088886116d2565b506001861115610c845760005b86811015610c82576000610bba826001611a9f565b90505b87811015610c6f57888882818110610bd757610bd7611b1f565b9050602002016020810190610bec9190611772565b6001600160a01b0316898984818110610c0757610c07611b1f565b9050602002016020810190610c1c9190611772565b6001600160a01b03161415610c5d576040517f7c70615600000000000000000000000000000000000000000000000000000000815260040160405180910390fd5b80610c6781611ab7565b915050610bbd565b5080610c7a81611ab7565b915050610ba5565b505b877fb648241d83df6540fc10f2acc641e4bf80a1e84e7ae2f1f6b0ad204b8fee635b888833604051610cb8939291906119a1565b60405180910390a25050505050505050565b60008281526002602090815260408083206001600160a01b03858116855292528220541615801590610d27575060008381526002602090815260408083206001600160a01b038087168552925290912054610d27918591166104ce565b15610d57575060008281526002602090815260408083206001600160a01b03808616855292529091205416610551565b60005b60008481526001602052604090205481101561054b576000848152600160205260408120805483908110610d9057610d90611b1f565b6000918252602090912001546040517fdf21a7dd0000000000000000000000000000000000000000000000000000000081526001600160a01b038681166004830152602482018890529091169150819063df21a7dd9060440160206040518083038186803b158015610e0157600080fd5b505afa158015610e15573d6000803e3d6000fd5b505050506040513d601f19601f82011682018060405250810190610e3991906117ec565b15610e475791506105519050565b5080610e5281611ab7565b915050610d5a565b6000546001600160a01b03163314610ece576040517f08c379a000000000000000000000000000000000000000000000000000000000815260206004820181905260248201527f4f776e61626c653a2063616c6c6572206973206e6f7420746865206f776e6572604482015260640161096c565b6001600160a01b03821660008181526004602090815260409182902080547fffffffffffffffffffffffffffffffffffffffffffffffffffffffffffffff001685151590811790915591513381529192917f11207664cc48b0fa81c8674795f1d8f642960f38d5d2d305ad813093bed85fab910160405180910390a35050565b600081815260016020908152604091829020805483518184028101840190945280845260609392830182828015610fae57602002820191906000526020600020905b81546001600160a01b03168152600190910190602001808311610f90575b50505050509050919050565b6000546001600160a01b0316331461102e576040517f08c379a000000000000000000000000000000000000000000000000000000000815260206004820181905260248201527f4f776e61626c653a2063616c6c6572206973206e6f7420746865206f776e6572604482015260640161096c565b6001600160a01b0381166110c4576040517f08c379a000000000000000000000000000000000000000000000000000000000815260206004820152602660248201527f4f776e61626c653a206e6577206f776e657220697320746865207a65726f206160448201527f6464726573730000000000000000000000000000000000000000000000000000606482015260840161096c565b6110cd8161166a565b50565b336001600160a01b038416148015906111ac57506040517fc161c93f0000000000000000000000000000000000000000000000000000000081523360048201526001600160a01b03848116602483015260448201849052606482018390527f0000000000000000000000000000000000000000000000000000000000000000169063c161c93f9060840160206040518083038186803b15801561117257600080fd5b505afa158015611186573d6000803e3d6000fd5b505050506040513d601f19601f820116820180604052508101906111aa91906117ec565b155b801561127b57506040517fc161c93f0000000000000000000000000000000000000000000000000000000081523360048201526001600160a01b03848116602483015260006044830152606482018390527f0000000000000000000000000000000000000000000000000000000000000000169063c161c93f9060840160206040518083038186803b15801561124157600080fd5b505afa158015611255573d6000803e3d6000fd5b505050506040513d601f19601f8201168201806040525081019061127991906117ec565b155b156112b2576040517f075fd2b100000000000000000000000000000000000000000000000000000000815260040160405180910390fd5b505050565b6112c182826104ce565b156112ca575050565b6040517f43a266c2000000000000000000000000000000000000000000000000000000008152600481018390526000907f00000000000000000000000000000000000000000000000000000000000000006001600160a01b0316906343a266c2906024016101206040518083038186803b15801561134757600080fd5b505afa15801561135b573d6000803e3d6000fd5b505050506040513d601f19601f8201168201806040525081019061137f9190611809565b6000848152600360205260409020549091506001600160a01b031633148015906113b5575061010081015160081c600190811614155b156113ec576040517febfde6be00000000000000000000000000000000000000000000000000000000815260040160405180910390fd5b60008381526001602081815260408084208054938401815584529281902090910180547fffffffffffffffffffffffff0000000000000000000000000000000000000000166001600160a01b038616908117909155915133815285917f409bccc07b7cf7807930526a24318212d614c59f2dde05a017a41efee144e7c8910160405180910390a3505050565b8015801561148f5750336001600160a01b03851614155b801561155e57506040517fc161c93f0000000000000000000000000000000000000000000000000000000081523360048201526001600160a01b03858116602483015260448201859052606482018490527f0000000000000000000000000000000000000000000000000000000000000000169063c161c93f9060840160206040518083038186803b15801561152457600080fd5b505afa158015611538573d6000803e3d6000fd5b505050506040513d601f19601f8201168201806040525081019061155c91906117ec565b155b801561162d57506040517fc161c93f0000000000000000000000000000000000000000000000000000000081523360048201526001600160a01b03858116602483015260006044830152606482018490527f0000000000000000000000000000000000000000000000000000000000000000169063c161c93f9060840160206040518083038186803b1580156115f357600080fd5b505afa158015611607573d6000803e3d6000fd5b505050506040513d601f19601f8201168201806040525081019061162b91906117ec565b155b15611664576040517f075fd2b100000000000000000000000000000000000000000000000000000000815260040160405180910390fd5b50505050565b600080546001600160a01b038381167fffffffffffffffffffffffff0000000000000000000000000000000000000000831681178455604051919092169283917f8be0079c531659141344cd1fd0a4f28419497f9722a3daafe3b4186f6b6457e09190a35050565b82805482825590600052602060002090810192821561173d579160200282015b8281111561173d5781547fffffffffffffffffffffffff0000000000000000000000000000000000000000166001600160a01b038435161782556020909201916001909101906116f2565b5061174992915061174d565b5090565b5b80821115611749576000815560010161174e565b805161176d81611b4e565b919050565b60006020828403121561178457600080fd5b813561178f81611b4e565b9392505050565b6000602082840312156117a857600080fd5b815161178f81611b4e565b600080604083850312156117c657600080fd5b82356117d181611b4e565b915060208301356117e181611b63565b809150509250929050565b6000602082840312156117fe57600080fd5b815161178f81611b63565b6000610120828403121561181c57600080fd5b611824611a4e565b825181526020830151602082015260408301516040820152606083015160608201526080830151608082015260a083015160a082015260c083015160c082015261187060e08401611762565b60e0820152610100928301519281019290925250919050565b60006020828403121561189b57600080fd5b5035919050565b6000602082840312156118b457600080fd5b5051919050565b600080604083850312156118ce57600080fd5b8235915060208301356117e181611b4e565b6000806000606084860312156118f557600080fd5b83359250602084013561190781611b4e565b9150604084013561191781611b4e565b809150509250925092565b60008060006040848603121561193757600080fd5b83359250602084013567ffffffffffffffff8082111561195657600080fd5b818601915086601f83011261196a57600080fd5b81358181111561197957600080fd5b8760208260051b850101111561198e57600080fd5b6020830194508093505050509250925092565b6040808252810183905260008460608301825b868110156119e45782356119c781611b4e565b6001600160a01b03168252602092830192909101906001016119b4565b5080925050506001600160a01b0383166020830152949350505050565b6020808252825182820181905260009190848201906040850190845b81811015611a425783516001600160a01b031683529284019291840191600101611a1d565b50909695505050505050565b604051610120810167ffffffffffffffff81118282101715611a99577f4e487b7100000000000000000000000000000000000000000000000000000000600052604160045260246000fd5b60405290565b60008219821115611ab257611ab2611af0565b500190565b60007fffffffffffffffffffffffffffffffffffffffffffffffffffffffffffffffff821415611ae957611ae9611af0565b5060010190565b7f4e487b7100000000000000000000000000000000000000000000000000000000600052601160045260246000fd5b7f4e487b7100000000000000000000000000000000000000000000000000000000600052603260045260246000fd5b6001600160a01b03811681146110cd57600080fd5b80151581146110cd57600080fdfea2646970667358221220e659311b9e0657c63bfc127887130f451e3dc9bf21b2b68d659e379523d1d81464736f6c63430008060033",
  "devdoc": {
    "details": "Adheres to - IJBDirectory: General interface for the methods in this contract that interact with the blockchain's state according to the protocol's rules.Inherits from - JBOperatable: Includes convenience functionality for checking a message sender's permissions before executing certain transactions. Ownable: Includes convenience functionality for checking a message sender's permissions before executing certain transactions.",
    "kind": "dev",
    "methods": {
      "constructor": {
        "params": {
          "_fundingCycleStore": "A contract storing all funding cycle configurations.",
          "_operatorStore": "A contract storing operator assignments.",
          "_owner": "The address that will own the contract.",
          "_projects": "A contract which mints ERC-721's that represent project ownership and transfers."
        }
      },
      "isTerminalOf(uint256,address)": {
        "params": {
          "_projectId": "The ID of the project to check within.",
          "_terminal": "The address of the terminal to check for."
        },
        "returns": {
          "_0": "A flag indicating whether or not the specified terminal is a terminal of the specified project."
        }
      },
      "owner()": {
        "details": "Returns the address of the current owner."
      },
      "primaryTerminalOf(uint256,address)": {
        "details": "The zero address is returned if a terminal isn't found for the specified token.",
        "params": {
          "_projectId": "The ID of the project to get a terminal for.",
          "_token": "The token the terminal accepts."
        },
        "returns": {
          "_0": "The primary terminal for the project for the specified token."
        }
      },
      "renounceOwnership()": {
        "details": "Leaves the contract without owner. It will not be possible to call `onlyOwner` functions anymore. Can only be called by the current owner. NOTE: Renouncing ownership will leave the contract without an owner, thereby removing any functionality that is only available to the owner."
      },
      "setControllerOf(uint256,address)": {
        "details": "A controller can be set if: - the message sender is the project owner or an operator having the correct authorization. - the message sender is the project's current controller. - or, an allowedlisted address is setting a controller for a project that doesn't already have a controller.",
        "params": {
          "_controller": "The new controller to set.",
          "_projectId": "The ID of the project to set a new controller for."
        }
      },
      "setIsAllowedToSetFirstController(address,bool)": {
        "details": "The owner can add addresses which are allowed to change projects' first controllers.  These addresses are known and vetted controllers as well as contracts designed to launch new projects.  A project can set its own controller without it being on the allow list.If you would like an address/contract allowlisted, please reach out to the contract owner.",
        "params": {
          "_address": "The address to allow or revoke allowance from.",
          "_flag": "Whether allowance is being added or revoked."
        }
      },
      "setPrimaryTerminalOf(uint256,address,address)": {
        "details": "The terminal will be set as the primary terminal where ecosystem contracts should route tokens.If setting a newly added terminal and the funding cycle doesn't allow new terminals, the caller must be the current controller.",
        "params": {
          "_projectId": "The ID of the project for which a primary token is being set.",
          "_terminal": "The terminal to make primary.",
          "_token": "The token to set the primary terminal of."
        }
      },
      "setTerminalsOf(uint256,address[])": {
        "details": "Only a project owner, an operator, or its controller can set its terminals.",
        "params": {
          "_projectId": "The ID of the project having terminals set.",
          "_terminals": "The terminal to set."
        }
      },
      "terminalsOf(uint256)": {
        "params": {
          "_projectId": "The ID of the project to get terminals of."
        },
        "returns": {
          "_0": "An array of terminal addresses."
        }
      },
      "transferOwnership(address)": {
        "details": "Transfers ownership of the contract to a new account (`newOwner`). Can only be called by the current owner."
      }
    },
    "version": 1
  },
  "userdoc": {
    "kind": "user",
    "methods": {
      "controllerOf(uint256)": {
        "notice": " For each project ID, the controller that manages how terminals interact with tokens and funding cycles. _projectId The ID of the project to get the controller of."
      },
      "fundingCycleStore()": {
        "notice": "The contract storing all funding cycle configurations."
      },
      "isAllowedToSetFirstController(address)": {
        "notice": "Addresses that can set a project's first controller on their behalf. These addresses/contracts have been vetted and verified by this contract's owner. _address The address that is either allowed or not."
      },
      "isTerminalOf(uint256,address)": {
        "notice": "Whether or not a specified terminal is a terminal of the specified project."
      },
      "operatorStore()": {
        "notice": " A contract storing operator assignments."
      },
      "primaryTerminalOf(uint256,address)": {
        "notice": "The primary terminal that is managing funds for a project for a specified token."
      },
      "projects()": {
        "notice": "Mints ERC-721's that represent project ownership and transfers."
      },
      "setControllerOf(uint256,address)": {
        "notice": "Update the controller that manages how terminals interact with the ecosystem."
      },
      "setIsAllowedToSetFirstController(address,bool)": {
        "notice": " Set a contract to the list of trusted addresses that can set a first controller for any project.\t"
      },
      "setPrimaryTerminalOf(uint256,address,address)": {
        "notice": "Project's can set which terminal should be their primary for a particular token. This is useful in case a project has several terminals connected for a particular token."
      },
      "setTerminalsOf(uint256,address[])": {
        "notice": " Set a project's terminals."
      },
      "terminalsOf(uint256)": {
        "notice": "For each project ID, the terminals that are currently managing its funds."
      }
    },
    "notice": "Keeps a reference of which terminal contracts each project is currently accepting funds through, and which controller contract is managing each project's tokens and funding cycles.",
    "version": 1
  },
  "storageLayout": {
    "storage": [
      {
        "astId": 53,
        "contract": "contracts/JBDirectory.sol:JBDirectory",
        "label": "_owner",
        "offset": 0,
        "slot": "0",
        "type": "t_address"
      },
      {
        "astId": 6399,
        "contract": "contracts/JBDirectory.sol:JBDirectory",
        "label": "_terminalsOf",
        "offset": 0,
        "slot": "1",
        "type": "t_mapping(t_uint256,t_array(t_contract(IJBPaymentTerminal)17954)dyn_storage)"
      },
      {
        "astId": 6407,
        "contract": "contracts/JBDirectory.sol:JBDirectory",
        "label": "_primaryTerminalOf",
        "offset": 0,
        "slot": "2",
        "type": "t_mapping(t_uint256,t_mapping(t_address,t_contract(IJBPaymentTerminal)17954))"
      },
      {
        "astId": 6423,
        "contract": "contracts/JBDirectory.sol:JBDirectory",
        "label": "controllerOf",
        "offset": 0,
        "slot": "3",
        "type": "t_mapping(t_uint256,t_address)"
      },
      {
        "astId": 6429,
        "contract": "contracts/JBDirectory.sol:JBDirectory",
        "label": "isAllowedToSetFirstController",
        "offset": 0,
        "slot": "4",
        "type": "t_mapping(t_address,t_bool)"
      }
    ],
    "types": {
      "t_address": {
        "encoding": "inplace",
        "label": "address",
        "numberOfBytes": "20"
      },
      "t_array(t_contract(IJBPaymentTerminal)17954)dyn_storage": {
        "base": "t_contract(IJBPaymentTerminal)17954",
        "encoding": "dynamic_array",
        "label": "contract IJBPaymentTerminal[]",
        "numberOfBytes": "32"
      },
      "t_bool": {
        "encoding": "inplace",
        "label": "bool",
        "numberOfBytes": "1"
      },
      "t_contract(IJBPaymentTerminal)17954": {
        "encoding": "inplace",
        "label": "contract IJBPaymentTerminal",
        "numberOfBytes": "20"
      },
      "t_mapping(t_address,t_bool)": {
        "encoding": "mapping",
        "key": "t_address",
        "label": "mapping(address => bool)",
        "numberOfBytes": "32",
        "value": "t_bool"
      },
      "t_mapping(t_address,t_contract(IJBPaymentTerminal)17954)": {
        "encoding": "mapping",
        "key": "t_address",
        "label": "mapping(address => contract IJBPaymentTerminal)",
        "numberOfBytes": "32",
        "value": "t_contract(IJBPaymentTerminal)17954"
      },
      "t_mapping(t_uint256,t_address)": {
        "encoding": "mapping",
        "key": "t_uint256",
        "label": "mapping(uint256 => address)",
        "numberOfBytes": "32",
        "value": "t_address"
      },
      "t_mapping(t_uint256,t_array(t_contract(IJBPaymentTerminal)17954)dyn_storage)": {
        "encoding": "mapping",
        "key": "t_uint256",
        "label": "mapping(uint256 => contract IJBPaymentTerminal[])",
        "numberOfBytes": "32",
        "value": "t_array(t_contract(IJBPaymentTerminal)17954)dyn_storage"
      },
      "t_mapping(t_uint256,t_mapping(t_address,t_contract(IJBPaymentTerminal)17954))": {
        "encoding": "mapping",
        "key": "t_uint256",
        "label": "mapping(uint256 => mapping(address => contract IJBPaymentTerminal))",
        "numberOfBytes": "32",
        "value": "t_mapping(t_address,t_contract(IJBPaymentTerminal)17954)"
      },
      "t_uint256": {
        "encoding": "inplace",
        "label": "uint256",
        "numberOfBytes": "32"
      }
    }
  }
}