{
  "address": "0x9E84bEcA3E4d3cfE5C3b5E1b534363E8D7468ABc",
  "abi": [
    {
      "anonymous": false,
      "inputs": [
        {
          "indexed": true,
          "internalType": "contract IJBProjectPayer",
          "name": "projectPayer",
          "type": "address"
        },
        {
          "indexed": false,
          "internalType": "uint256",
          "name": "defaultProjectId",
          "type": "uint256"
        },
        {
          "indexed": false,
          "internalType": "address",
          "name": "defaultBeneficiary",
          "type": "address"
        },
        {
          "indexed": false,
          "internalType": "bool",
          "name": "defaultPreferClaimedTokens",
          "type": "bool"
        },
        {
          "indexed": false,
          "internalType": "string",
          "name": "defaultMemo",
          "type": "string"
        },
        {
          "indexed": false,
          "internalType": "bytes",
          "name": "defaultMetadata",
          "type": "bytes"
        },
        {
          "indexed": false,
          "internalType": "bool",
          "name": "preferAddToBalance",
          "type": "bool"
        },
        {
          "indexed": false,
          "internalType": "contract IJBDirectory",
          "name": "directory",
          "type": "address"
        },
        {
          "indexed": false,
          "internalType": "address",
          "name": "owner",
          "type": "address"
        },
        {
          "indexed": false,
          "internalType": "address",
          "name": "caller",
          "type": "address"
        }
      ],
      "name": "DeployProjectPayer",
      "type": "event"
    },
    {
      "inputs": [
        {
          "internalType": "uint256",
          "name": "_defaultProjectId",
          "type": "uint256"
        },
        {
          "internalType": "address payable",
          "name": "_defaultBeneficiary",
          "type": "address"
        },
        {
          "internalType": "bool",
          "name": "_defaultPreferClaimedTokens",
          "type": "bool"
        },
        {
          "internalType": "string",
          "name": "_defaultMemo",
          "type": "string"
        },
        {
          "internalType": "bytes",
          "name": "_defaultMetadata",
          "type": "bytes"
        },
        {
          "internalType": "bool",
          "name": "_defaultPreferAddToBalance",
          "type": "bool"
        },
        {
          "internalType": "contract IJBDirectory",
          "name": "_directory",
          "type": "address"
        },
        {
          "internalType": "address",
          "name": "_owner",
          "type": "address"
        }
      ],
      "name": "deployProjectPayer",
      "outputs": [
        {
          "internalType": "contract IJBProjectPayer",
          "name": "projectPayer",
          "type": "address"
        }
      ],
      "stateMutability": "nonpayable",
      "type": "function"
    }
  ],
  "transactionHash": "0x112ed1ce8fd17c74aaca08e191955067c407cc3aff4e46d93637f7717344e946",
  "args": [],
  "numDeployments": 1,
  "solcInputHash": "87acdcf5deeaa43ae3ecf62f45455645",
  "bytecode": "0x608060405234801561001057600080fd5b506126af806100206000396000f3fe608060405234801561001057600080fd5b506004361061002b5760003560e01c8063281a9f4414610030575b600080fd5b61004361003e3660046101e9565b61006c565b60405173ffffffffffffffffffffffffffffffffffffffff909116815260200160405180910390f35b600088888888888888886040516100829061011c565b61009398979695949392919061031d565b604051809103906000f0801580156100af573d6000803e3d6000fd5b5090508073ffffffffffffffffffffffffffffffffffffffff167f727d4d4c40bee220af4fdbae0c157cb7a5e5f2ce9c3e9676e8f615cd88bc85df8a8a8a8a8a8a8a8a3360405161010899989796959493929190610393565b60405180910390a298975050505050505050565b6122128061046883390190565b8035801515811461013957600080fd5b919050565b600082601f83011261014f57600080fd5b813567ffffffffffffffff8082111561016a5761016a610413565b604051601f83017fffffffffffffffffffffffffffffffffffffffffffffffffffffffffffffffe0908116603f011681019082821181831017156101b0576101b0610413565b816040528381528660208588010111156101c957600080fd5b836020870160208301376000602085830101528094505050505092915050565b600080600080600080600080610100898b03121561020657600080fd5b88359750602089013561021881610442565b965061022660408a01610129565b9550606089013567ffffffffffffffff8082111561024357600080fd5b61024f8c838d0161013e565b965060808b013591508082111561026557600080fd5b506102728b828c0161013e565b94505061028160a08a01610129565b925060c089013561029181610442565b915060e08901356102a181610442565b809150509295985092959890939650565b6000815180845260005b818110156102d8576020818501810151868301820152016102bc565b818111156102ea576000602083870101525b50601f017fffffffffffffffffffffffffffffffffffffffffffffffffffffffffffffffe0169290920160200192915050565b60006101008a835273ffffffffffffffffffffffffffffffffffffffff808b166020850152891515604085015281606085015261035c8285018a6102b2565b9150838203608085015261037082896102b2565b96151560a085015294851660c08401525050911660e09091015295945050505050565b60006101208b835273ffffffffffffffffffffffffffffffffffffffff808c1660208501528a151560408501528160608501526103d28285018b6102b2565b915083820360808501526103e6828a6102b2565b97151560a085015295861660c0840152505091831660e08301529091166101009091015295945050505050565b7f4e487b7100000000000000000000000000000000000000000000000000000000600052604160045260246000fd5b73ffffffffffffffffffffffffffffffffffffffff8116811461046457600080fd5b5056fe60a06040523480156200001157600080fd5b506040516200221238038062002212833981016040819052620000349162000293565b6200003f33620000d0565b600188905560028054871515600160a01b026001600160a81b03199091166001600160a01b038a161717905584516200008090600390602088019062000120565b5083516200009690600490602087019062000120565b506005805460ff1916841515179055606082901b6001600160601b031916608052620000c281620000d0565b5050505050505050620003da565b600080546001600160a01b038381166001600160a01b0319831681178455604051919092169283917f8be0079c531659141344cd1fd0a4f28419497f9722a3daafe3b4186f6b6457e09190a35050565b8280546200012e906200036e565b90600052602060002090601f0160209004810192826200015257600085556200019d565b82601f106200016d57805160ff19168380011785556200019d565b828001600101855582156200019d579182015b828111156200019d57825182559160200191906001019062000180565b50620001ab929150620001af565b5090565b5b80821115620001ab5760008155600101620001b0565b80518015158114620001d757600080fd5b919050565b600082601f830112620001ee57600080fd5b81516001600160401b03808211156200020b576200020b620003ab565b604051601f8301601f19908116603f01168101908282118183101715620002365762000236620003ab565b816040528381526020925086838588010111156200025357600080fd5b600091505b8382101562000277578582018301518183018401529082019062000258565b83821115620002895760008385830101525b9695505050505050565b600080600080600080600080610100898b031215620002b157600080fd5b885197506020890151620002c581620003c1565b9650620002d560408a01620001c6565b60608a01519096506001600160401b0380821115620002f357600080fd5b620003018c838d01620001dc565b965060808b01519150808211156200031857600080fd5b50620003278b828c01620001dc565b9450506200033860a08a01620001c6565b925060c08901516200034a81620003c1565b60e08a01519092506200035d81620003c1565b809150509295985092959890939650565b600181811c908216806200038357607f821691505b60208210811415620003a557634e487b7160e01b600052602260045260246000fd5b50919050565b634e487b7160e01b600052604160045260246000fd5b6001600160a01b0381168114620003d757600080fd5b50565b60805160601c611e0b6200040760003960008181610561015281816105f201526109580152611e0b6000f3fe6080604052600436106100e15760003560e01c80638293fee61161007f578063a4919eb111610059578063a4919eb114610508578063b96053df1461053a578063c41c2f241461054f578063f2fde38b1461058357600080fd5b80638293fee6146104b05780638da5cb5b146104c357806393b7f154146104ee57600080fd5b80633ce9830b116100bb5780633ce9830b1461040357806354ab58af14610427578063715018a6146104795780637e6465491461048e57600080fd5b806301ffc9a71461039b57806309a6b7e5146103d05780630e45f78e146103e357600080fd5b366103965760055460ff161561021a5761021860015461eeee4760126003805461010a90611d22565b80601f016020809104026020016040519081016040528092919081815260200182805461013690611d22565b80156101835780601f1061015857610100808354040283529160200191610183565b820191906000526020600020905b81548152906001019060200180831161016657829003601f168201915b50505050506004805461019590611d22565b80601f01602080910402602001604051908101604052809291908181526020018280546101c190611d22565b801561020e5780601f106101e35761010080835404028352916020019161020e565b820191906000526020600020905b8154815290600101906020018083116101f157829003601f168201915b50505050506105a3565b005b600154600254610218919061eeee90479060129073ffffffffffffffffffffffffffffffffffffffff16156102675760025473ffffffffffffffffffffffffffffffffffffffff16610269565b335b6000600260149054906101000a900460ff166003805461028890611d22565b80601f01602080910402602001604051908101604052809291908181526020018280546102b490611d22565b80156103015780601f106102d657610100808354040283529160200191610301565b820191906000526020600020905b8154815290600101906020018083116102e457829003601f168201915b50505050506004805461031390611d22565b80601f016020809104026020016040519081016040528092919081815260200182805461033f90611d22565b801561038c5780601f106103615761010080835404028352916020019161038c565b820191906000526020600020905b81548152906001019060200180831161036f57829003601f168201915b5050505050610909565b600080fd5b3480156103a757600080fd5b506103bb6103b6366004611810565b610cd5565b60405190151581526020015b60405180910390f35b6102186103de366004611a1d565b610d6e565b3480156103ef57600080fd5b506102186103fe366004611888565b610f00565b34801561040f57600080fd5b5061041960015481565b6040519081526020016103c7565b34801561043357600080fd5b506002546104549073ffffffffffffffffffffffffffffffffffffffff1681565b60405173ffffffffffffffffffffffffffffffffffffffff90911681526020016103c7565b34801561048557600080fd5b506102186111c4565b34801561049a57600080fd5b506104a3611251565b6040516103c79190611c0f565b6102186104be366004611941565b6112df565b3480156104cf57600080fd5b5060005473ffffffffffffffffffffffffffffffffffffffff16610454565b3480156104fa57600080fd5b506005546103bb9060ff1681565b34801561051457600080fd5b506002546103bb9074010000000000000000000000000000000000000000900460ff1681565b34801561054657600080fd5b506104a3611477565b34801561055b57600080fd5b506104547f000000000000000000000000000000000000000000000000000000000000000081565b34801561058f57600080fd5b5061021861059e3660046117d6565b611484565b6040517f862026500000000000000000000000000000000000000000000000000000000081526004810187905273ffffffffffffffffffffffffffffffffffffffff86811660248301526000917f00000000000000000000000000000000000000000000000000000000000000009091169063862026509060440160206040518083038186803b15801561063657600080fd5b505afa15801561064a573d6000803e3d6000fd5b505050506040513d601f19601f8201168201806040525081019061066e9190611852565b905073ffffffffffffffffffffffffffffffffffffffff81166106bd576040517ffba10dd600000000000000000000000000000000000000000000000000000000815260040160405180910390fd5b6040517fb7bad1b100000000000000000000000000000000000000000000000000000000815273ffffffffffffffffffffffffffffffffffffffff878116600483015285919083169063b7bad1b19060240160206040518083038186803b15801561072757600080fd5b505afa15801561073b573d6000803e3d6000fd5b505050506040513d601f19601f8201168201806040525081019061075f919061186f565b14610796576040517fb972592400000000000000000000000000000000000000000000000000000000815260040160405180910390fd5b73ffffffffffffffffffffffffffffffffffffffff861661eeee1461085f576040517f095ea7b300000000000000000000000000000000000000000000000000000000815273ffffffffffffffffffffffffffffffffffffffff82811660048301526024820187905287169063095ea7b390604401602060405180830381600087803b15801561082557600080fd5b505af1158015610839573d6000803e3d6000fd5b505050506040513d601f19601f8201168201806040525081019061085d91906117f3565b505b600073ffffffffffffffffffffffffffffffffffffffff871661eeee14610887576000610889565b855b90508173ffffffffffffffffffffffffffffffffffffffff16630cf8e858828a898b89896040518763ffffffff1660e01b81526004016108cd959493929190611c99565b6000604051808303818588803b1580156108e657600080fd5b505af11580156108fa573d6000803e3d6000fd5b50505050505050505050505050565b6040517f86202650000000000000000000000000000000000000000000000000000000008152600481018a905273ffffffffffffffffffffffffffffffffffffffff89811660248301526000917f00000000000000000000000000000000000000000000000000000000000000009091169063862026509060440160206040518083038186803b15801561099c57600080fd5b505afa1580156109b0573d6000803e3d6000fd5b505050506040513d601f19601f820116820180604052508101906109d49190611852565b905073ffffffffffffffffffffffffffffffffffffffff8116610a23576040517ffba10dd600000000000000000000000000000000000000000000000000000000815260040160405180910390fd5b6040517fb7bad1b100000000000000000000000000000000000000000000000000000000815273ffffffffffffffffffffffffffffffffffffffff8a8116600483015288919083169063b7bad1b19060240160206040518083038186803b158015610a8d57600080fd5b505afa158015610aa1573d6000803e3d6000fd5b505050506040513d601f19601f82011682018060405250810190610ac5919061186f565b14610afc576040517fb972592400000000000000000000000000000000000000000000000000000000815260040160405180910390fd5b73ffffffffffffffffffffffffffffffffffffffff891661eeee14610bc5576040517f095ea7b300000000000000000000000000000000000000000000000000000000815273ffffffffffffffffffffffffffffffffffffffff8281166004830152602482018a90528a169063095ea7b390604401602060405180830381600087803b158015610b8b57600080fd5b505af1158015610b9f573d6000803e3d6000fd5b505050506040513d601f19601f82011682018060405250810190610bc391906117f3565b505b600073ffffffffffffffffffffffffffffffffffffffff8a1661eeee14610bed576000610bef565b885b90508173ffffffffffffffffffffffffffffffffffffffff16631ebc263f828d8c8e600073ffffffffffffffffffffffffffffffffffffffff168d73ffffffffffffffffffffffffffffffffffffffff161415610c4c5733610c4e565b8c5b8c8c8c8c6040518a63ffffffff1660e01b8152600401610c75989796959493929190611c22565b6020604051808303818588803b158015610c8e57600080fd5b505af1158015610ca2573d6000803e3d6000fd5b50505050506040513d601f19601f82011682018060405250810190610cc7919061186f565b505050505050505050505050565b60007fffffffff0000000000000000000000000000000000000000000000000000000082167fd90c137e000000000000000000000000000000000000000000000000000000001480610d6857507f01ffc9a7000000000000000000000000000000000000000000000000000000007fffffffff000000000000000000000000000000000000000000000000000000008316145b92915050565b73ffffffffffffffffffffffffffffffffffffffff871661eeee14610e77573415610dc5576040517fbcfd35be00000000000000000000000000000000000000000000000000000000815260040160405180910390fd5b6040517f23b872dd0000000000000000000000000000000000000000000000000000000081523360048201523060248201526044810187905273ffffffffffffffffffffffffffffffffffffffff8816906323b872dd90606401602060405180830381600087803b158015610e3957600080fd5b505af1158015610e4d573d6000803e3d6000fd5b505050506040513d601f19601f82011682018060405250810190610e7191906117f3565b50610e7f565b349550601294505b610ef68888888888888080601f01602080910402602001604051908101604052809392919081815260200183838082843760009201919091525050604080516020601f8c018190048102820181019092528a815292508a91508990819084018382808284376000920191909152506105a392505050565b5050505050505050565b60005473ffffffffffffffffffffffffffffffffffffffff163314610f86576040517f08c379a000000000000000000000000000000000000000000000000000000000815260206004820181905260248201527f4f776e61626c653a2063616c6c6572206973206e6f7420746865206f776e657260448201526064015b60405180910390fd5b6001548614610f955760018690555b60025473ffffffffffffffffffffffffffffffffffffffff868116911614610ff857600280547fffffffffffffffffffffffff00000000000000000000000000000000000000001673ffffffffffffffffffffffffffffffffffffffff87161790555b600260149054906101000a900460ff1615158415151461105657600280547fffffffffffffffffffffff00ffffffffffffffffffffffffffffffffffffffff1674010000000000000000000000000000000000000000861515021790555b60036040516020016110689190611b22565b604051602081830303815290604052805190602001208360405160200161108f9190611b06565b60405160208183030381529060405280519060200120146110bf5782516110bd906003906020860190611629565b505b60046040516020016110d19190611b22565b60405160208183030381529060405280519060200120826040516020016110f89190611b06565b6040516020818303038152906040528051906020012014611128578151611126906004906020850190611629565b505b60055460ff1615158115151461116557600580547fffffffffffffffffffffffffffffffffffffffffffffffffffffffffffffff00168215151790555b8473ffffffffffffffffffffffffffffffffffffffff16867f36b1c5cef608e320317b9ee5155756634c65fe7055b424ce57e2f6c59eec794786868686336040516111b4959493929190611bb2565b60405180910390a3505050505050565b60005473ffffffffffffffffffffffffffffffffffffffff163314611245576040517f08c379a000000000000000000000000000000000000000000000000000000000815260206004820181905260248201527f4f776e61626c653a2063616c6c6572206973206e6f7420746865206f776e65726044820152606401610f7d565b61124f60006115b4565b565b6004805461125e90611d22565b80601f016020809104026020016040519081016040528092919081815260200182805461128a90611d22565b80156112d75780601f106112ac576101008083540402835291602001916112d7565b820191906000526020600020905b8154815290600101906020018083116112ba57829003601f168201915b505050505081565b73ffffffffffffffffffffffffffffffffffffffff8a1661eeee146113e8573415611336576040517fbcfd35be00000000000000000000000000000000000000000000000000000000815260040160405180910390fd5b6040517f23b872dd000000000000000000000000000000000000000000000000000000008152336004820152306024820152604481018a905273ffffffffffffffffffffffffffffffffffffffff8b16906323b872dd90606401602060405180830381600087803b1580156113aa57600080fd5b505af11580156113be573d6000803e3d6000fd5b505050506040513d601f19601f820116820180604052508101906113e291906117f3565b506113f0565b349850601297505b61146a8b8b8b8b8b8b8b8b8b8080601f01602080910402602001604051908101604052809392919081815260200183838082843760009201919091525050604080516020601f8f018190048102820181019092528d815292508d91508c908190840183828082843760009201919091525061090992505050565b5050505050505050505050565b6003805461125e90611d22565b60005473ffffffffffffffffffffffffffffffffffffffff163314611505576040517f08c379a000000000000000000000000000000000000000000000000000000000815260206004820181905260248201527f4f776e61626c653a2063616c6c6572206973206e6f7420746865206f776e65726044820152606401610f7d565b73ffffffffffffffffffffffffffffffffffffffff81166115a8576040517f08c379a000000000000000000000000000000000000000000000000000000000815260206004820152602660248201527f4f776e61626c653a206e6577206f776e657220697320746865207a65726f206160448201527f64647265737300000000000000000000000000000000000000000000000000006064820152608401610f7d565b6115b1816115b4565b50565b6000805473ffffffffffffffffffffffffffffffffffffffff8381167fffffffffffffffffffffffff0000000000000000000000000000000000000000831681178455604051919092169283917f8be0079c531659141344cd1fd0a4f28419497f9722a3daafe3b4186f6b6457e09190a35050565b82805461163590611d22565b90600052602060002090601f016020900481019282611657576000855561169d565b82601f1061167057805160ff191683800117855561169d565b8280016001018555821561169d579182015b8281111561169d578251825591602001919060010190611682565b506116a99291506116ad565b5090565b5b808211156116a957600081556001016116ae565b600067ffffffffffffffff808411156116dd576116dd611d76565b604051601f85017fffffffffffffffffffffffffffffffffffffffffffffffffffffffffffffffe0908116603f0116810190828211818310171561172357611723611d76565b8160405280935085815286868601111561173c57600080fd5b858560208301376000602087830101525050509392505050565b803561176181611dc7565b919050565b60008083601f84011261177857600080fd5b50813567ffffffffffffffff81111561179057600080fd5b6020830191508360208285010111156117a857600080fd5b9250929050565b600082601f8301126117c057600080fd5b6117cf838335602085016116c2565b9392505050565b6000602082840312156117e857600080fd5b81356117cf81611da5565b60006020828403121561180557600080fd5b81516117cf81611dc7565b60006020828403121561182257600080fd5b81357fffffffff00000000000000000000000000000000000000000000000000000000811681146117cf57600080fd5b60006020828403121561186457600080fd5b81516117cf81611da5565b60006020828403121561188157600080fd5b5051919050565b60008060008060008060c087890312156118a157600080fd5b8635955060208701356118b381611da5565b945060408701356118c381611dc7565b9350606087013567ffffffffffffffff808211156118e057600080fd5b818901915089601f8301126118f457600080fd5b6119038a8335602085016116c2565b9450608089013591508082111561191957600080fd5b5061192689828a016117af565b92505061193560a08801611756565b90509295509295509295565b60008060008060008060008060008060006101208c8e03121561196357600080fd5b8b359a5061197460208d0135611da5565b60208c0135995060408c0135985060608c0135975061199660808d0135611da5565b60808c0135965060a08c013595506119b060c08d01611756565b945067ffffffffffffffff8060e08e013511156119cc57600080fd5b6119dc8e60e08f01358f01611766565b90955093506101008d01358110156119f357600080fd5b50611a058d6101008e01358e01611766565b81935080925050509295989b509295989b9093969950565b60008060008060008060008060c0898b031215611a3957600080fd5b883597506020890135611a4b81611da5565b96506040890135955060608901359450608089013567ffffffffffffffff80821115611a7657600080fd5b611a828c838d01611766565b909650945060a08b0135915080821115611a9b57600080fd5b50611aa88b828c01611766565b999c989b5096995094979396929594505050565b60008151808452611ad4816020860160208601611cf2565b601f017fffffffffffffffffffffffffffffffffffffffffffffffffffffffffffffffe0169290920160200192915050565b60008251611b18818460208701611cf2565b9190910192915050565b6000808354611b3081611d22565b60018281168015611b485760018114611b7757611ba6565b7fffffffffffffffffffffffffffffffffffffffffffffffffffffffffffffff00841687528287019450611ba6565b8760005260208060002060005b85811015611b9d5781548a820152908401908201611b84565b50505082870194505b50929695505050505050565b851515815260a060208201526000611bcd60a0830187611abc565b8281036040840152611bdf8187611abc565b9415156060840152505073ffffffffffffffffffffffffffffffffffffffff919091166080909101529392505050565b6020815260006117cf6020830184611abc565b60006101008a835289602084015273ffffffffffffffffffffffffffffffffffffffff808a16604085015280891660608501525086608084015285151560a08401528060c0840152611c7681840186611abc565b905082810360e0840152611c8a8185611abc565b9b9a5050505050505050505050565b85815284602082015273ffffffffffffffffffffffffffffffffffffffff8416604082015260a060608201526000611cd460a0830185611abc565b8281036080840152611ce68185611abc565b98975050505050505050565b60005b83811015611d0d578181015183820152602001611cf5565b83811115611d1c576000848401525b50505050565b600181811c90821680611d3657607f821691505b60208210811415611d70577f4e487b7100000000000000000000000000000000000000000000000000000000600052602260045260246000fd5b50919050565b7f4e487b7100000000000000000000000000000000000000000000000000000000600052604160045260246000fd5b73ffffffffffffffffffffffffffffffffffffffff811681146115b157600080fd5b80151581146115b157600080fdfea2646970667358221220b63fbafaae828d7a79cda741015019948f91b7e8a4a9d451a9dc48d4a894e10b64736f6c63430008060033a2646970667358221220af7ee00f20b22d5b526a38c469324887ef9026a2681eef123193d9f30894c68064736f6c63430008060033",
  "devdoc": {
    "details": "Adheres to - IJBETHERC20ProjectPayerDeployer:  General interface for the methods in this contract that interact with the blockchain's state according to the protocol's rules.",
    "kind": "dev",
    "methods": {
      "deployProjectPayer(uint256,address,bool,string,bytes,bool,address,address)": {
        "params": {
          "_defaultBeneficiary": "The address that'll receive the project's tokens when the project payer receives payments. ",
          "_defaultMemo": "The memo that'll be forwarded with the project payer's received payments. ",
          "_defaultMetadata": "The metadata that'll be forwarded with the project payer's received payments. ",
          "_defaultPreferAddToBalance": "A flag indicating if received payments should call the `pay` function or the `addToBalance` function of a project.",
          "_defaultPreferClaimedTokens": "A flag indicating whether issued tokens from the project payer's received payments should be automatically claimed into the beneficiary's wallet. ",
          "_defaultProjectId": "The ID of the project whose treasury should be forwarded the project payer contract's received payments.",
          "_directory": "A contract storing directories of terminals and controllers for each project.",
          "_owner": "The address that will own the project payer."
        },
        "returns": {
          "projectPayer": "The project payer contract."
        }
      }
    },
    "version": 1
  },
  "userdoc": {
    "kind": "user",
    "methods": {
      "deployProjectPayer(uint256,address,bool,string,bytes,bool,address,address)": {
        "notice": " Allows anyone to deploy a new project payer contract."
      }
    },
    "notice": " Deploys project payer contracts.",
    "version": 1
  },
  "storageLayout": {
    "storage": [],
    "types": null
  }
}