{
  "address": "0xCBB8e16d998161AdB20465830107ca298995f371",
  "abi": [
    {
      "inputs": [
        {
          "internalType": "contract IJBOperatorStore",
          "name": "_operatorStore",
          "type": "address"
        },
        {
          "internalType": "contract IJBProjects",
          "name": "_projects",
          "type": "address"
        },
        {
          "internalType": "contract IJBDirectory",
          "name": "_directory",
          "type": "address"
        }
      ],
      "stateMutability": "nonpayable",
      "type": "constructor"
    },
    {
      "inputs": [],
      "name": "CANT_REMOVE_TOKEN_IF_ITS_REQUIRED",
      "type": "error"
    },
    {
      "inputs": [],
      "name": "CONTROLLER_UNAUTHORIZED",
      "type": "error"
    },
    {
      "inputs": [],
      "name": "EMPTY_NAME",
      "type": "error"
    },
    {
      "inputs": [],
      "name": "EMPTY_SYMBOL",
      "type": "error"
    },
    {
      "inputs": [],
      "name": "INSUFFICIENT_FUNDS",
      "type": "error"
    },
    {
      "inputs": [],
      "name": "INSUFFICIENT_UNCLAIMED_TOKENS",
      "type": "error"
    },
    {
      "inputs": [],
      "name": "PROJECT_ALREADY_HAS_TOKEN",
      "type": "error"
    },
    {
      "inputs": [],
      "name": "RECIPIENT_ZERO_ADDRESS",
      "type": "error"
    },
    {
      "inputs": [],
      "name": "TOKENS_MUST_HAVE_18_DECIMALS",
      "type": "error"
    },
    {
      "inputs": [],
      "name": "TOKEN_ALREADY_IN_USE",
      "type": "error"
    },
    {
      "inputs": [],
      "name": "TOKEN_NOT_FOUND",
      "type": "error"
    },
    {
      "inputs": [],
      "name": "UNAUTHORIZED",
      "type": "error"
    },
    {
      "anonymous": false,
      "inputs": [
        {
          "indexed": true,
          "internalType": "address",
          "name": "holder",
          "type": "address"
        },
        {
          "indexed": true,
          "internalType": "uint256",
          "name": "projectId",
          "type": "uint256"
        },
        {
          "indexed": false,
          "internalType": "uint256",
          "name": "amount",
          "type": "uint256"
        },
        {
          "indexed": false,
          "internalType": "uint256",
          "name": "initialUnclaimedBalance",
          "type": "uint256"
        },
        {
          "indexed": false,
          "internalType": "uint256",
          "name": "initialClaimedBalance",
          "type": "uint256"
        },
        {
          "indexed": false,
          "internalType": "bool",
          "name": "preferClaimedTokens",
          "type": "bool"
        },
        {
          "indexed": false,
          "internalType": "address",
          "name": "caller",
          "type": "address"
        }
      ],
      "name": "Burn",
      "type": "event"
    },
    {
      "anonymous": false,
      "inputs": [
        {
          "indexed": true,
          "internalType": "uint256",
          "name": "projectId",
          "type": "uint256"
        },
        {
          "indexed": true,
          "internalType": "contract IJBToken",
          "name": "newToken",
          "type": "address"
        },
        {
          "indexed": true,
          "internalType": "contract IJBToken",
          "name": "oldToken",
          "type": "address"
        },
        {
          "indexed": false,
          "internalType": "address",
          "name": "owner",
          "type": "address"
        },
        {
          "indexed": false,
          "internalType": "address",
          "name": "caller",
          "type": "address"
        }
      ],
      "name": "Change",
      "type": "event"
    },
    {
      "anonymous": false,
      "inputs": [
        {
          "indexed": true,
          "internalType": "address",
          "name": "holder",
          "type": "address"
        },
        {
          "indexed": true,
          "internalType": "uint256",
          "name": "projectId",
          "type": "uint256"
        },
        {
          "indexed": false,
          "internalType": "uint256",
          "name": "initialUnclaimedBalance",
          "type": "uint256"
        },
        {
          "indexed": false,
          "internalType": "uint256",
          "name": "amount",
          "type": "uint256"
        },
        {
          "indexed": false,
          "internalType": "address",
          "name": "caller",
          "type": "address"
        }
      ],
      "name": "Claim",
      "type": "event"
    },
    {
      "anonymous": false,
      "inputs": [
        {
          "indexed": true,
          "internalType": "uint256",
          "name": "projectId",
          "type": "uint256"
        },
        {
          "indexed": true,
          "internalType": "contract IJBToken",
          "name": "token",
          "type": "address"
        },
        {
          "indexed": false,
          "internalType": "string",
          "name": "name",
          "type": "string"
        },
        {
          "indexed": false,
          "internalType": "string",
          "name": "symbol",
          "type": "string"
        },
        {
          "indexed": false,
          "internalType": "address",
          "name": "caller",
          "type": "address"
        }
      ],
      "name": "Issue",
      "type": "event"
    },
    {
      "anonymous": false,
      "inputs": [
        {
          "indexed": true,
          "internalType": "address",
          "name": "holder",
          "type": "address"
        },
        {
          "indexed": true,
          "internalType": "uint256",
          "name": "projectId",
          "type": "uint256"
        },
        {
          "indexed": false,
          "internalType": "uint256",
          "name": "amount",
          "type": "uint256"
        },
        {
          "indexed": false,
          "internalType": "bool",
          "name": "tokensWereClaimed",
          "type": "bool"
        },
        {
          "indexed": false,
          "internalType": "bool",
          "name": "preferClaimedTokens",
          "type": "bool"
        },
        {
          "indexed": false,
          "internalType": "address",
          "name": "caller",
          "type": "address"
        }
      ],
      "name": "Mint",
      "type": "event"
    },
    {
      "anonymous": false,
      "inputs": [
        {
          "indexed": true,
          "internalType": "uint256",
          "name": "projectId",
          "type": "uint256"
        },
        {
          "indexed": true,
          "internalType": "bool",
          "name": "flag",
          "type": "bool"
        },
        {
          "indexed": false,
          "internalType": "address",
          "name": "caller",
          "type": "address"
        }
      ],
      "name": "ShouldRequireClaim",
      "type": "event"
    },
    {
      "anonymous": false,
      "inputs": [
        {
          "indexed": true,
          "internalType": "address",
          "name": "holder",
          "type": "address"
        },
        {
          "indexed": true,
          "internalType": "uint256",
          "name": "projectId",
          "type": "uint256"
        },
        {
          "indexed": true,
          "internalType": "address",
          "name": "recipient",
          "type": "address"
        },
        {
          "indexed": false,
          "internalType": "uint256",
          "name": "amount",
          "type": "uint256"
        },
        {
          "indexed": false,
          "internalType": "address",
          "name": "caller",
          "type": "address"
        }
      ],
      "name": "Transfer",
      "type": "event"
    },
    {
      "inputs": [
        {
          "internalType": "address",
          "name": "_holder",
          "type": "address"
        },
        {
          "internalType": "uint256",
          "name": "_projectId",
          "type": "uint256"
        }
      ],
      "name": "balanceOf",
      "outputs": [
        {
          "internalType": "uint256",
          "name": "balance",
          "type": "uint256"
        }
      ],
      "stateMutability": "view",
      "type": "function"
    },
    {
      "inputs": [
        {
          "internalType": "address",
          "name": "_holder",
          "type": "address"
        },
        {
          "internalType": "uint256",
          "name": "_projectId",
          "type": "uint256"
        },
        {
          "internalType": "uint256",
          "name": "_amount",
          "type": "uint256"
        },
        {
          "internalType": "bool",
          "name": "_preferClaimedTokens",
          "type": "bool"
        }
      ],
      "name": "burnFrom",
      "outputs": [],
      "stateMutability": "nonpayable",
      "type": "function"
    },
    {
      "inputs": [
        {
          "internalType": "uint256",
          "name": "_projectId",
          "type": "uint256"
        },
        {
          "internalType": "contract IJBToken",
          "name": "_token",
          "type": "address"
        },
        {
          "internalType": "address",
          "name": "_newOwner",
          "type": "address"
        }
      ],
      "name": "changeFor",
      "outputs": [
        {
          "internalType": "contract IJBToken",
          "name": "oldToken",
          "type": "address"
        }
      ],
      "stateMutability": "nonpayable",
      "type": "function"
    },
    {
      "inputs": [
        {
          "internalType": "address",
          "name": "_holder",
          "type": "address"
        },
        {
          "internalType": "uint256",
          "name": "_projectId",
          "type": "uint256"
        },
        {
          "internalType": "uint256",
          "name": "_amount",
          "type": "uint256"
        }
      ],
      "name": "claimFor",
      "outputs": [],
      "stateMutability": "nonpayable",
      "type": "function"
    },
    {
      "inputs": [],
      "name": "directory",
      "outputs": [
        {
          "internalType": "contract IJBDirectory",
          "name": "",
          "type": "address"
        }
      ],
      "stateMutability": "view",
      "type": "function"
    },
    {
      "inputs": [
        {
          "internalType": "uint256",
          "name": "_projectId",
          "type": "uint256"
        },
        {
          "internalType": "string",
          "name": "_name",
          "type": "string"
        },
        {
          "internalType": "string",
          "name": "_symbol",
          "type": "string"
        }
      ],
      "name": "issueFor",
      "outputs": [
        {
          "internalType": "contract IJBToken",
          "name": "token",
          "type": "address"
        }
      ],
      "stateMutability": "nonpayable",
      "type": "function"
    },
    {
      "inputs": [
        {
          "internalType": "address",
          "name": "_holder",
          "type": "address"
        },
        {
          "internalType": "uint256",
          "name": "_projectId",
          "type": "uint256"
        },
        {
          "internalType": "uint256",
          "name": "_amount",
          "type": "uint256"
        },
        {
          "internalType": "bool",
          "name": "_preferClaimedTokens",
          "type": "bool"
        }
      ],
      "name": "mintFor",
      "outputs": [],
      "stateMutability": "nonpayable",
      "type": "function"
    },
    {
      "inputs": [],
      "name": "operatorStore",
      "outputs": [
        {
          "internalType": "contract IJBOperatorStore",
          "name": "",
          "type": "address"
        }
      ],
      "stateMutability": "view",
      "type": "function"
    },
    {
      "inputs": [
        {
          "internalType": "contract IJBToken",
          "name": "",
          "type": "address"
        }
      ],
      "name": "projectOf",
      "outputs": [
        {
          "internalType": "uint256",
          "name": "",
          "type": "uint256"
        }
      ],
      "stateMutability": "view",
      "type": "function"
    },
    {
      "inputs": [],
      "name": "projects",
      "outputs": [
        {
          "internalType": "contract IJBProjects",
          "name": "",
          "type": "address"
        }
      ],
      "stateMutability": "view",
      "type": "function"
    },
    {
      "inputs": [
        {
          "internalType": "uint256",
          "name": "",
          "type": "uint256"
        }
      ],
      "name": "requireClaimFor",
      "outputs": [
        {
          "internalType": "bool",
          "name": "",
          "type": "bool"
        }
      ],
      "stateMutability": "view",
      "type": "function"
    },
    {
      "inputs": [
        {
          "internalType": "uint256",
          "name": "_projectId",
          "type": "uint256"
        },
        {
          "internalType": "bool",
          "name": "_flag",
          "type": "bool"
        }
      ],
      "name": "shouldRequireClaimingFor",
      "outputs": [],
      "stateMutability": "nonpayable",
      "type": "function"
    },
    {
      "inputs": [
        {
          "internalType": "uint256",
          "name": "",
          "type": "uint256"
        }
      ],
      "name": "tokenOf",
      "outputs": [
        {
          "internalType": "contract IJBToken",
          "name": "",
          "type": "address"
        }
      ],
      "stateMutability": "view",
      "type": "function"
    },
    {
      "inputs": [
        {
          "internalType": "uint256",
          "name": "_projectId",
          "type": "uint256"
        }
      ],
      "name": "totalSupplyOf",
      "outputs": [
        {
          "internalType": "uint256",
          "name": "totalSupply",
          "type": "uint256"
        }
      ],
      "stateMutability": "view",
      "type": "function"
    },
    {
      "inputs": [
        {
          "internalType": "address",
          "name": "_holder",
          "type": "address"
        },
        {
          "internalType": "uint256",
          "name": "_projectId",
          "type": "uint256"
        },
        {
          "internalType": "address",
          "name": "_recipient",
          "type": "address"
        },
        {
          "internalType": "uint256",
          "name": "_amount",
          "type": "uint256"
        }
      ],
      "name": "transferFrom",
      "outputs": [],
      "stateMutability": "nonpayable",
      "type": "function"
    },
    {
      "inputs": [
        {
          "internalType": "address",
          "name": "",
          "type": "address"
        },
        {
          "internalType": "uint256",
          "name": "",
          "type": "uint256"
        }
      ],
      "name": "unclaimedBalanceOf",
      "outputs": [
        {
          "internalType": "uint256",
          "name": "",
          "type": "uint256"
        }
      ],
      "stateMutability": "view",
      "type": "function"
    },
    {
      "inputs": [
        {
          "internalType": "uint256",
          "name": "",
          "type": "uint256"
        }
      ],
      "name": "unclaimedTotalSupplyOf",
      "outputs": [
        {
          "internalType": "uint256",
          "name": "",
          "type": "uint256"
        }
      ],
      "stateMutability": "view",
      "type": "function"
    }
  ],
  "transactionHash": "0x3b6430fca23ce78aa4e5c07b1e85cfe53c47000b2aead654a8e50708bb865941",
  "args": [
    "0x6F3C5afCa0c9eDf3926eF2dDF17c8ae6391afEfb",
    "0xD8B4359143eda5B2d763E127Ed27c77addBc47d3",
    "0xCc8f7a89d89c2AB3559f484E0C656423E979ac9C"
  ],
  "numDeployments": 3,
  "solcInputHash": "a1f674e02c4866a16e5bde886a31b82e",
  "bytecode": "0x60e06040523480156200001157600080fd5b5060405162003edc38038062003edc83398101604081905262000034916200005a565b6001600160601b0319606091821b811660805292811b831660a0521b1660c052620000c7565b6000806000606084860312156200007057600080fd5b83516200007d81620000ae565b60208501519093506200009081620000ae565b6040850151909250620000a381620000ae565b809150509250925092565b6001600160a01b0381168114620000c457600080fd5b50565b60805160601c60a05160601c60c05160601c613dab6200013160003960008181610271015261165e0152600081816102de0152818161181e01526118f2015260008181610306015281816104a801528181610b9001528181610f8701526113be0152613dab6000f3fe60806040523480156200001157600080fd5b5060043610620001315760003560e01c80638b79543c11620000c0578063ad007d63116200008b578063ceddd3e4116200006e578063ceddd3e41462000328578063ea78803f146200033f578063ff0186c5146200036b57600080fd5b8063ad007d6314620002d8578063c41c2f24146200030057600080fd5b80638b79543c146200026b578063906ebd0f1462000293578063a7f2a70b14620002aa578063ac689bcd14620002c157600080fd5b806357e4c778116200010157806357e4c77814620001d45780636607955d146200020457806375b0d9cd146200021d5780637b4d8e2c146200023457600080fd5b8062fdd58e14620001365780631412884f1462000160578063176309b714620001835780635287af3714620001a6575b600080fd5b6200014d6200014736600462001a30565b62000382565b6040519081526020015b60405180910390f35b6200014d6200017136600462001b73565b60026020526000908152604090205481565b6200014d6200019436600462001b53565b60016020526000908152604090205481565b6200014d620001b736600462001a30565b600360209081526000928352604080842090915290825290205481565b620001eb620001e536600462001bda565b6200046a565b6040516001600160a01b03909116815260200162000157565b6200021b6200021536600462001aac565b6200086a565b005b6200014d6200022e36600462001b73565b62000a81565b6200025a6200024536600462001b73565b60046020526000908152604090205460ff1681565b604051901515815260200162000157565b620001eb7f000000000000000000000000000000000000000000000000000000000000000081565b6200021b620002a436600462001ae4565b62000b55565b620001eb620002bb36600462001c21565b62000f49565b6200021b620002d236600462001a5f565b620011e8565b620001eb7f000000000000000000000000000000000000000000000000000000000000000081565b620001eb7f000000000000000000000000000000000000000000000000000000000000000081565b6200021b6200033936600462001ae4565b62001383565b620001eb6200035036600462001b73565b6000602081905290815260409020546001600160a01b031681565b6200021b6200037c36600462001ba7565b6200162f565b6001600160a01b0380831660009081526003602090815260408083208584528252808320549183905290912054909116801562000463576040517efdd58e0000000000000000000000000000000000000000000000000000000081526001600160a01b0385811660048301526024820185905282169062fdd58e9060440160206040518083038186803b1580156200041957600080fd5b505afa1580156200042e573d6000803e3d6000fd5b505050506040513d601f19601f8201168201806040525081019062000454919062001b8d565b62000460908362001d8d565b91505b5092915050565b6040517f5dd8f6aa00000000000000000000000000000000000000000000000000000000815260048101849052600090849033906001600160a01b037f00000000000000000000000000000000000000000000000000000000000000001690635dd8f6aa9060240160206040518083038186803b158015620004eb57600080fd5b505afa15801562000500573d6000803e3d6000fd5b505050506040513d601f19601f8201168201806040525081019062000526919062001a09565b6001600160a01b03161462000567576040517fab7f741400000000000000000000000000000000000000000000000000000000815260040160405180910390fd5b6001600160a01b0384161580156200058d575060008581526004602052604090205460ff165b15620005c5576040517fd4ae123800000000000000000000000000000000000000000000000000000000815260040160405180910390fd5b6001600160a01b0384166000908152600160205260409020541562000616576040517f1379a84600000000000000000000000000000000000000000000000000000000815260040160405180910390fd5b6001600160a01b03841615801590620006a75750836001600160a01b031663313ce5676040518163ffffffff1660e01b815260040160206040518083038186803b1580156200066457600080fd5b505afa15801562000679573d6000803e3d6000fd5b505050506040513d601f19601f820116820180604052508101906200069f919062001ca2565b60ff16601214155b15620006df576040517fadc38c9400000000000000000000000000000000000000000000000000000000815260040160405180910390fd5b600085815260208190526040902080546001600160a01b038681167fffffffffffffffffffffffff0000000000000000000000000000000000000000831681179093551692501562000747576001600160a01b03841660009081526001602052604090208590555b6001600160a01b0382161562000771576001600160a01b0382166000908152600160205260408120555b6001600160a01b038316158015906200079257506001600160a01b03821615155b1562000816576040517f29507f73000000000000000000000000000000000000000000000000000000008152600481018690526001600160a01b0384811660248301528316906329507f7390604401600060405180830381600087803b158015620007fc57600080fd5b505af115801562000811573d6000803e3d6000fd5b505050505b604080516001600160a01b038581168252336020830152808516929087169188917f53b937570201bb723ab1530f41c21f62fba8df64afef862cb0a6f4eccc3094dc910160405180910390a4509392505050565b8282600b6200087b838383620017bd565b6000858152602081905260409020546001600160a01b031680620008cb576040517f73c463ce00000000000000000000000000000000000000000000000000000000815260040160405180910390fd5b6001600160a01b0387166000908152600360209081526040808320898452909152902054858110156200092a576040517f83fc8b2d00000000000000000000000000000000000000000000000000000000815260040160405180910390fd5b6001600160a01b03881660009081526003602090815260408083208a84529091529020546200095b90879062001da8565b6001600160a01b03891660009081526003602090815260408083208b84528252808320939093556002905220546200099590879062001da8565b6000888152600260205260409081902091909155517f836a1040000000000000000000000000000000000000000000000000000000008152600481018890526001600160a01b0389811660248301526044820188905283169063836a104090606401600060405180830381600087803b15801562000a1257600080fd5b505af115801562000a27573d6000803e3d6000fd5b505060408051848152602081018a9052338183015290518a93506001600160a01b038c1692507fe718784128df3c3d45fbd6519133fee450494f7cdb2b53830a5087cd47f980829181900360600190a35050505050505050565b60008181526002602090815260408083205491839052909120546001600160a01b0316801562000b4f576040517fbd85b039000000000000000000000000000000000000000000000000000000008152600481018490526001600160a01b0382169063bd85b0399060240160206040518083038186803b15801562000b0557600080fd5b505afa15801562000b1a573d6000803e3d6000fd5b505050506040513d601f19601f8201168201806040525081019062000b40919062001b8d565b62000b4c908362001d8d565b91505b50919050565b6040517f5dd8f6aa00000000000000000000000000000000000000000000000000000000815260048101849052839033906001600160a01b037f00000000000000000000000000000000000000000000000000000000000000001690635dd8f6aa9060240160206040518083038186803b15801562000bd357600080fd5b505afa15801562000be8573d6000803e3d6000fd5b505050506040513d601f19601f8201168201806040525081019062000c0e919062001a09565b6001600160a01b03161462000c4f576040517fab7f741400000000000000000000000000000000000000000000000000000000815260040160405180910390fd5b600084815260208181526040808320546001600160a01b0389811685526003845282852089865290935290832054911691821562000d28576040517efdd58e0000000000000000000000000000000000000000000000000000000081526001600160a01b0389811660048301526024820189905284169062fdd58e9060440160206040518083038186803b15801562000ce757600080fd5b505afa15801562000cfc573d6000803e3d6000fd5b505050506040513d601f19601f8201168201806040525081019062000d22919062001b8d565b62000d2b565b60005b905062000d39828262001d8d565b86111562000d73576040517fe793143800000000000000000000000000000000000000000000000000000000815260040160405180910390fd5b60008162000d845750600062000dc3565b851562000da45786821062000d9a578662000d9c565b815b905062000dc3565b86831062000db457600062000dc0565b62000dc0838862001da8565b90505b600062000dd1828962001da8565b9050801562000e55576001600160a01b038a1660009081526003602090815260408083208c845290915290205462000e0b90829062001da8565b6001600160a01b038b1660009081526003602090815260408083208d845282528083209390935560029052205462000e4590829062001da8565b60008a8152600260205260409020555b811562000ee1576040517f9eea5f66000000000000000000000000000000000000000000000000000000008152600481018a90526001600160a01b038b8116602483015260448201849052861690639eea5f6690606401600060405180830381600087803b15801562000ec757600080fd5b505af115801562000edc573d6000803e3d6000fd5b505050505b6040805189815260208101869052908101849052871515606082015233608082015289906001600160a01b038c16907fbe100da6adaa492f7ba1b0de916ae2606126ec7b044d7aa8ec74971a607ceecd9060a00160405180910390a350505050505050505050565b6040517f5dd8f6aa00000000000000000000000000000000000000000000000000000000815260048101869052600090869033906001600160a01b037f00000000000000000000000000000000000000000000000000000000000000001690635dd8f6aa9060240160206040518083038186803b15801562000fca57600080fd5b505afa15801562000fdf573d6000803e3d6000fd5b505050506040513d601f19601f8201168201806040525081019062001005919062001a09565b6001600160a01b03161462001046576040517fab7f741400000000000000000000000000000000000000000000000000000000815260040160405180910390fd5b846200107e576040517f92bf449d00000000000000000000000000000000000000000000000000000000815260040160405180910390fd5b82620010b6576040517f571431a700000000000000000000000000000000000000000000000000000000815260040160405180910390fd5b6000878152602081905260409020546001600160a01b03161562001106576040517fa54630ac00000000000000000000000000000000000000000000000000000000815260040160405180910390fd5b858585856040516200111890620019af565b62001127949392919062001d10565b604051809103906000f08015801562001144573d6000803e3d6000fd5b5060008881526020818152604080832080547fffffffffffffffffffffffff0000000000000000000000000000000000000000166001600160a01b0386169081179091558084526001909252918290208a905590519193509088907f1b1705bef26552c8f314c5eb80e9c84f02876c2f7f30a7f9ad5cafd17d5fa6da90620011d6908a908a908a908a90339062001d46565b60405180910390a35095945050505050565b8383600c620011f9838383620017bd565b6001600160a01b0385166200123a576040517fc6587bab00000000000000000000000000000000000000000000000000000000815260040160405180910390fd5b6001600160a01b03871660009081526003602090815260408083208984529091529020548085111562001299576040517f83fc8b2d00000000000000000000000000000000000000000000000000000000815260040160405180910390fd5b6001600160a01b03881660009081526003602090815260408083208a8452909152902054620012ca90869062001da8565b6001600160a01b03808a1660009081526003602081815260408084208d8552825280842095909555928a16825282528281208a825290915220546200131190869062001d8d565b6001600160a01b0387811660008181526003602090815260408083208d8452825291829020949094558051898152339481019490945290928a928c16917fae47e55abe3902569528abe4272b889079230a248aec0659a2939a90354982c6910160405180910390a45050505050505050565b6040517f5dd8f6aa00000000000000000000000000000000000000000000000000000000815260048101849052839033906001600160a01b037f00000000000000000000000000000000000000000000000000000000000000001690635dd8f6aa9060240160206040518083038186803b1580156200140157600080fd5b505afa15801562001416573d6000803e3d6000fd5b505050506040513d601f19601f820116820180604052508101906200143c919062001a09565b6001600160a01b0316146200147d576040517fab7f741400000000000000000000000000000000000000000000000000000000815260040160405180910390fd5b6000848152602081815260408083205460049092528220546001600160a01b03909116919060ff1680620014ae5750835b8015620014c357506001600160a01b03821615155b9050801562001556576040517f836a1040000000000000000000000000000000000000000000000000000000008152600481018790526001600160a01b0388811660248301526044820187905283169063836a104090606401600060405180830381600087803b1580156200153757600080fd5b505af11580156200154c573d6000803e3d6000fd5b50505050620015d1565b6001600160a01b03871660009081526003602090815260408083208984529091529020546200158790869062001d8d565b6001600160a01b03881660009081526003602090815260408083208a8452825280832093909355600290522054620015c190869062001d8d565b6000878152600260205260409020555b60408051868152821515602082015285151581830152336060820152905187916001600160a01b038a16917f5dd3ead325af435e56bc762b40de54c96de6071938d18a26414245807591d86f9181900360800190a350505050505050565b6040517f6352211e000000000000000000000000000000000000000000000000000000008152600481018390527f00000000000000000000000000000000000000000000000000000000000000006001600160a01b031690636352211e9060240160206040518083038186803b158015620016a957600080fd5b505afa158015620016be573d6000803e3d6000fd5b505050506040513d601f19601f82011682018060405250810190620016e4919062001a09565b82600d620016f4838383620017bd565b6000858152602081905260409020546001600160a01b03168062001744576040517f73c463ce00000000000000000000000000000000000000000000000000000000815260040160405180910390fd5b60008681526004602090815260409182902080547fffffffffffffffffffffffffffffffffffffffffffffffffffffffffffffff0016881515908117909155915133815288917f91c234a3a3ebdc00c9bbd80f24661ca100d784b6d9f53923b3a693344719e08c910160405180910390a3505050505050565b336001600160a01b038416148015906200189e57506040517fc161c93f0000000000000000000000000000000000000000000000000000000081523360048201526001600160a01b03848116602483015260448201849052606482018390527f0000000000000000000000000000000000000000000000000000000000000000169063c161c93f9060840160206040518083038186803b1580156200186157600080fd5b505afa15801562001876573d6000803e3d6000fd5b505050506040513d601f19601f820116820180604052508101906200189c919062001b33565b155b80156200197257506040517fc161c93f0000000000000000000000000000000000000000000000000000000081523360048201526001600160a01b03848116602483015260006044830152606482018390527f0000000000000000000000000000000000000000000000000000000000000000169063c161c93f9060840160206040518083038186803b1580156200193557600080fd5b505afa1580156200194a573d6000803e3d6000fd5b505050506040513d601f19601f8201168201806040525081019062001970919062001b33565b155b15620019aa576040517f075fd2b100000000000000000000000000000000000000000000000000000000815260040160405180910390fd5b505050565b611f5c8062001e1a83390190565b60008083601f840112620019d057600080fd5b50813567ffffffffffffffff811115620019e957600080fd5b60208301915083602082850101111562001a0257600080fd5b9250929050565b60006020828403121562001a1c57600080fd5b815162001a298162001df1565b9392505050565b6000806040838503121562001a4457600080fd5b823562001a518162001df1565b946020939093013593505050565b6000806000806080858703121562001a7657600080fd5b843562001a838162001df1565b935060208501359250604085013562001a9c8162001df1565b9396929550929360600135925050565b60008060006060848603121562001ac257600080fd5b833562001acf8162001df1565b95602085013595506040909401359392505050565b6000806000806080858703121562001afb57600080fd5b843562001b088162001df1565b93506020850135925060408501359150606085013562001b288162001e0a565b939692955090935050565b60006020828403121562001b4657600080fd5b815162001a298162001e0a565b60006020828403121562001b6657600080fd5b813562001a298162001df1565b60006020828403121562001b8657600080fd5b5035919050565b60006020828403121562001ba057600080fd5b5051919050565b6000806040838503121562001bbb57600080fd5b82359150602083013562001bcf8162001e0a565b809150509250929050565b60008060006060848603121562001bf057600080fd5b83359250602084013562001c048162001df1565b9150604084013562001c168162001df1565b809150509250925092565b60008060008060006060868803121562001c3a57600080fd5b85359450602086013567ffffffffffffffff8082111562001c5a57600080fd5b62001c6889838a01620019bd565b9096509450604088013591508082111562001c8257600080fd5b5062001c9188828901620019bd565b969995985093965092949392505050565b60006020828403121562001cb557600080fd5b815160ff8116811462001a2957600080fd5b8183528181602085013750600060208284010152600060207fffffffffffffffffffffffffffffffffffffffffffffffffffffffffffffffe0601f840116840101905092915050565b60408152600062001d2660408301868862001cc7565b828103602084015262001d3b81858762001cc7565b979650505050505050565b60608152600062001d5c60608301878962001cc7565b828103602084015262001d7181868862001cc7565b9150506001600160a01b03831660408301529695505050505050565b6000821982111562001da35762001da362001dc2565b500190565b60008282101562001dbd5762001dbd62001dc2565b500390565b7f4e487b7100000000000000000000000000000000000000000000000000000000600052601160045260246000fd5b6001600160a01b038116811462001e0757600080fd5b50565b801515811462001e0757600080fdfe6101606040527f6e71edae12b1b97f4d1f60370fef10105fa2faae0126114a169c64845d6126c9610140523480156200003757600080fd5b5060405162001f5c38038062001f5c8339810160408190526200005a9162000310565b8180604051806040016040528060018152602001603160f81b8152508484816003908051906020019062000090929190620001b3565b508051620000a6906004906020840190620001b3565b5050825160208085019190912083518483012060e08290526101008190524660a0818152604080517f8b73c3c69bb8fe3d512ecc4cf759cc79239f7b179b0ffacaa9a75d522b39400f81880181905281830187905260608201869052608082019490945230818401528151808203909301835260c0019052805194019390932091935091906080523060601b60c05261012052506200015593506200014f9250506200015d9050565b62000161565b5050620003cd565b3390565b600680546001600160a01b038381166001600160a01b0319831681179093556040519116919082907f8be0079c531659141344cd1fd0a4f28419497f9722a3daafe3b4186f6b6457e090600090a35050565b828054620001c1906200037a565b90600052602060002090601f016020900481019282620001e5576000855562000230565b82601f106200020057805160ff191683800117855562000230565b8280016001018555821562000230579182015b828111156200023057825182559160200191906001019062000213565b506200023e92915062000242565b5090565b5b808211156200023e576000815560010162000243565b600082601f8301126200026b57600080fd5b81516001600160401b0380821115620002885762000288620003b7565b604051601f8301601f19908116603f01168101908282118183101715620002b357620002b3620003b7565b81604052838152602092508683858801011115620002d057600080fd5b600091505b83821015620002f45785820183015181830184015290820190620002d5565b83821115620003065760008385830101525b9695505050505050565b600080604083850312156200032457600080fd5b82516001600160401b03808211156200033c57600080fd5b6200034a8683870162000259565b935060208501519150808211156200036157600080fd5b50620003708582860162000259565b9150509250929050565b600181811c908216806200038f57607f821691505b60208210811415620003b157634e487b7160e01b600052602260045260246000fd5b50919050565b634e487b7160e01b600052604160045260246000fd5b60805160a05160c05160601c60e051610100516101205161014051611b316200042b600039600061095e01526000611016015260006110650152600061104001526000610f9901526000610fc301526000610fed0152611b316000f3fe608060405234801561001057600080fd5b50600436106101a25760003560e01c80637ecebe00116100ee578063a457c2d711610097578063d505accf11610071578063d505accf14610365578063dd62ed3e14610378578063f2fde38b146103be578063f8548e36146103d157600080fd5b8063a457c2d71461032c578063a9059cbb1461033f578063bd85b0391461035257600080fd5b80638da5cb5b116100c85780638da5cb5b146102e957806395d89b41146103115780639eea5f661461031957600080fd5b80637ecebe00146102b0578063836a1040146102c35780638cb0a511146102d657600080fd5b806329507f7311610150578063395093511161012a578063395093511461025f57806370a0823114610272578063715018a6146102a857600080fd5b806329507f7314610235578063313ce567146102485780633644e5151461025757600080fd5b806318160ddd1161018157806318160ddd146102055780631c0f12b61461020d57806323b872dd1461022257600080fd5b8062fdd58e146101a757806306fdde03146101cd578063095ea7b3146101e2575b600080fd5b6101ba6101b53660046118de565b6103e4565b6040519081526020015b60405180910390f35b6101d5610412565b6040516101c491906119ad565b6101f56101f03660046118de565b6104a4565b60405190151581526020016101c4565b6002546101ba565b61022061021b366004611944565b6104ba565b005b6101f561023036600461182f565b6104cc565b610220610243366004611921565b6105c2565b604051601281526020016101c4565b6101ba61063b565b6101f561026d3660046118de565b610645565b6101ba6102803660046117e1565b73ffffffffffffffffffffffffffffffffffffffff1660009081526020819052604090205490565b61022061068e565b6101ba6102be3660046117e1565b610701565b6102206102d1366004611988565b61072e565b6102206102e4366004611988565b6107a4565b60065460405173ffffffffffffffffffffffffffffffffffffffff90911681526020016101c4565b6101d56107b4565b610220610327366004611988565b6107c3565b6101f561033a3660046118de565b610834565b6101f561034d3660046118de565b6108f2565b6101ba610360366004611908565b6108ff565b61022061037336600461186b565b61090a565b6101ba6103863660046117fc565b73ffffffffffffffffffffffffffffffffffffffff918216600090815260016020908152604080832093909416825291909152205490565b6102206103cc3660046117e1565b610a95565b6102206103df366004611988565b610b91565b73ffffffffffffffffffffffffffffffffffffffff82166000908152602081905260408120545b9392505050565b60606003805461042190611a4f565b80601f016020809104026020016040519081016040528092919081815260200182805461044d90611a4f565b801561049a5780601f1061046f5761010080835404028352916020019161049a565b820191906000526020600020905b81548152906001019060200180831161047d57829003601f168201915b5050505050905090565b60006104b1338484610b9b565b50600192915050565b6104c58383836104cc565b5050505050565b73ffffffffffffffffffffffffffffffffffffffff831660009081526001602090815260408083203384529091528120547fffffffffffffffffffffffffffffffffffffffffffffffffffffffffffffffff81146105ac578281101561059f5760405162461bcd60e51b815260206004820152602860248201527f45524332303a207472616e7366657220616d6f756e742065786365656473206160448201527f6c6c6f77616e636500000000000000000000000000000000000000000000000060648201526084015b60405180910390fd5b6105ac8533858403610b9b565b6105b7858585610d1a565b506001949350505050565b60065473ffffffffffffffffffffffffffffffffffffffff1633146106295760405162461bcd60e51b815260206004820181905260248201527f4f776e61626c653a2063616c6c6572206973206e6f7420746865206f776e65726044820152606401610596565b61063281610a95565b5050565b905090565b6000610636610f7f565b33600081815260016020908152604080832073ffffffffffffffffffffffffffffffffffffffff8716845290915281205490916104b1918590610689908690611a20565b610b9b565b60065473ffffffffffffffffffffffffffffffffffffffff1633146106f55760405162461bcd60e51b815260206004820181905260248201527f4f776e61626c653a2063616c6c6572206973206e6f7420746865206f776e65726044820152606401610596565b6106ff60006110b3565b565b73ffffffffffffffffffffffffffffffffffffffff81166000908152600560205260408120545b92915050565b60065473ffffffffffffffffffffffffffffffffffffffff1633146107955760405162461bcd60e51b815260206004820181905260248201527f4f776e61626c653a2063616c6c6572206973206e6f7420746865206f776e65726044820152606401610596565b61079f828261112a565b505050565b6107ae82826104a4565b50505050565b60606004805461042190611a4f565b60065473ffffffffffffffffffffffffffffffffffffffff16331461082a5760405162461bcd60e51b815260206004820181905260248201527f4f776e61626c653a2063616c6c6572206973206e6f7420746865206f776e65726044820152606401610596565b61079f8282611230565b33600090815260016020908152604080832073ffffffffffffffffffffffffffffffffffffffff86168452909152812054828110156108db5760405162461bcd60e51b815260206004820152602560248201527f45524332303a2064656372656173656420616c6c6f77616e63652062656c6f7760448201527f207a65726f0000000000000000000000000000000000000000000000000000006064820152608401610596565b6108e83385858403610b9b565b5060019392505050565b60006104b1338484610d1a565b600061072860025490565b8342111561095a5760405162461bcd60e51b815260206004820152601d60248201527f45524332305065726d69743a206578706972656420646561646c696e650000006044820152606401610596565b60007f00000000000000000000000000000000000000000000000000000000000000008888886109898c6113e9565b60408051602081019690965273ffffffffffffffffffffffffffffffffffffffff94851690860152929091166060840152608083015260a082015260c0810186905260e00160405160208183030381529060405280519060200120905060006109f18261141e565b90506000610a0182878787611487565b90508973ffffffffffffffffffffffffffffffffffffffff168173ffffffffffffffffffffffffffffffffffffffff1614610a7e5760405162461bcd60e51b815260206004820152601e60248201527f45524332305065726d69743a20696e76616c6964207369676e617475726500006044820152606401610596565b610a898a8a8a610b9b565b50505050505050505050565b60065473ffffffffffffffffffffffffffffffffffffffff163314610afc5760405162461bcd60e51b815260206004820181905260248201527f4f776e61626c653a2063616c6c6572206973206e6f7420746865206f776e65726044820152606401610596565b73ffffffffffffffffffffffffffffffffffffffff8116610b855760405162461bcd60e51b815260206004820152602660248201527f4f776e61626c653a206e6577206f776e657220697320746865207a65726f206160448201527f64647265737300000000000000000000000000000000000000000000000000006064820152608401610596565b610b8e816110b3565b50565b6107ae82826108f2565b73ffffffffffffffffffffffffffffffffffffffff8316610c235760405162461bcd60e51b8152602060048201526024808201527f45524332303a20617070726f76652066726f6d20746865207a65726f2061646460448201527f72657373000000000000000000000000000000000000000000000000000000006064820152608401610596565b73ffffffffffffffffffffffffffffffffffffffff8216610cac5760405162461bcd60e51b815260206004820152602260248201527f45524332303a20617070726f766520746f20746865207a65726f20616464726560448201527f73730000000000000000000000000000000000000000000000000000000000006064820152608401610596565b73ffffffffffffffffffffffffffffffffffffffff83811660008181526001602090815260408083209487168084529482529182902085905590518481527f8c5be1e5ebec7d5bd14f71427d1e84f3dd0314c0f7b2291e5b200ac8c7c3b925910160405180910390a3505050565b73ffffffffffffffffffffffffffffffffffffffff8316610da35760405162461bcd60e51b815260206004820152602560248201527f45524332303a207472616e736665722066726f6d20746865207a65726f20616460448201527f64726573730000000000000000000000000000000000000000000000000000006064820152608401610596565b73ffffffffffffffffffffffffffffffffffffffff8216610e2c5760405162461bcd60e51b815260206004820152602360248201527f45524332303a207472616e7366657220746f20746865207a65726f206164647260448201527f65737300000000000000000000000000000000000000000000000000000000006064820152608401610596565b73ffffffffffffffffffffffffffffffffffffffff831660009081526020819052604090205481811015610ec85760405162461bcd60e51b815260206004820152602660248201527f45524332303a207472616e7366657220616d6f756e742065786365656473206260448201527f616c616e636500000000000000000000000000000000000000000000000000006064820152608401610596565b73ffffffffffffffffffffffffffffffffffffffff808516600090815260208190526040808220858503905591851681529081208054849290610f0c908490611a20565b925050819055508273ffffffffffffffffffffffffffffffffffffffff168473ffffffffffffffffffffffffffffffffffffffff167fddf252ad1be2c89b69c2b068fc378daa952ba7f163c4a11628f55a4df523b3ef84604051610f7291815260200190565b60405180910390a36107ae565b60003073ffffffffffffffffffffffffffffffffffffffff7f000000000000000000000000000000000000000000000000000000000000000016148015610fe557507f000000000000000000000000000000000000000000000000000000000000000046145b1561100f57507f000000000000000000000000000000000000000000000000000000000000000090565b50604080517f00000000000000000000000000000000000000000000000000000000000000006020808301919091527f0000000000000000000000000000000000000000000000000000000000000000828401527f000000000000000000000000000000000000000000000000000000000000000060608301524660808301523060a0808401919091528351808403909101815260c0909201909252805191012090565b6006805473ffffffffffffffffffffffffffffffffffffffff8381167fffffffffffffffffffffffff0000000000000000000000000000000000000000831681179093556040519116919082907f8be0079c531659141344cd1fd0a4f28419497f9722a3daafe3b4186f6b6457e090600090a35050565b73ffffffffffffffffffffffffffffffffffffffff821661118d5760405162461bcd60e51b815260206004820152601f60248201527f45524332303a206d696e7420746f20746865207a65726f2061646472657373006044820152606401610596565b806002600082825461119f9190611a20565b909155505073ffffffffffffffffffffffffffffffffffffffff8216600090815260208190526040812080548392906111d9908490611a20565b909155505060405181815273ffffffffffffffffffffffffffffffffffffffff8316906000907fddf252ad1be2c89b69c2b068fc378daa952ba7f163c4a11628f55a4df523b3ef9060200160405180910390a35050565b73ffffffffffffffffffffffffffffffffffffffff82166112b95760405162461bcd60e51b815260206004820152602160248201527f45524332303a206275726e2066726f6d20746865207a65726f2061646472657360448201527f73000000000000000000000000000000000000000000000000000000000000006064820152608401610596565b73ffffffffffffffffffffffffffffffffffffffff8216600090815260208190526040902054818110156113555760405162461bcd60e51b815260206004820152602260248201527f45524332303a206275726e20616d6f756e7420657863656564732062616c616e60448201527f63650000000000000000000000000000000000000000000000000000000000006064820152608401610596565b73ffffffffffffffffffffffffffffffffffffffff83166000908152602081905260408120838303905560028054849290611391908490611a38565b909155505060405182815260009073ffffffffffffffffffffffffffffffffffffffff8516907fddf252ad1be2c89b69c2b068fc378daa952ba7f163c4a11628f55a4df523b3ef9060200160405180910390a3505050565b73ffffffffffffffffffffffffffffffffffffffff811660009081526005602052604090208054600181018255905b50919050565b600061072861142b610f7f565b836040517f19010000000000000000000000000000000000000000000000000000000000006020820152602281018390526042810182905260009060620160405160208183030381529060405280519060200120905092915050565b6000806000611498878787876114af565b915091506114a5816115c7565b5095945050505050565b6000807f7fffffffffffffffffffffffffffffff5d576e7357a4501ddfe92f46681b20a08311156114e657506000905060036115be565b8460ff16601b141580156114fe57508460ff16601c14155b1561150f57506000905060046115be565b6040805160008082526020820180845289905260ff881692820192909252606081018690526080810185905260019060a0016020604051602081039080840390855afa158015611563573d6000803e3d6000fd5b50506040517fffffffffffffffffffffffffffffffffffffffffffffffffffffffffffffffe0015191505073ffffffffffffffffffffffffffffffffffffffff81166115b7576000600192509250506115be565b9150600090505b94509492505050565b60008160048111156115db576115db611acc565b14156115e45750565b60018160048111156115f8576115f8611acc565b14156116465760405162461bcd60e51b815260206004820152601860248201527f45434453413a20696e76616c6964207369676e617475726500000000000000006044820152606401610596565b600281600481111561165a5761165a611acc565b14156116a85760405162461bcd60e51b815260206004820152601f60248201527f45434453413a20696e76616c6964207369676e6174757265206c656e677468006044820152606401610596565b60038160048111156116bc576116bc611acc565b14156117305760405162461bcd60e51b815260206004820152602260248201527f45434453413a20696e76616c6964207369676e6174757265202773272076616c60448201527f75650000000000000000000000000000000000000000000000000000000000006064820152608401610596565b600481600481111561174457611744611acc565b1415610b8e5760405162461bcd60e51b815260206004820152602260248201527f45434453413a20696e76616c6964207369676e6174757265202776272076616c60448201527f75650000000000000000000000000000000000000000000000000000000000006064820152608401610596565b803573ffffffffffffffffffffffffffffffffffffffff811681146117dc57600080fd5b919050565b6000602082840312156117f357600080fd5b61040b826117b8565b6000806040838503121561180f57600080fd5b611818836117b8565b9150611826602084016117b8565b90509250929050565b60008060006060848603121561184457600080fd5b61184d846117b8565b925061185b602085016117b8565b9150604084013590509250925092565b600080600080600080600060e0888a03121561188657600080fd5b61188f886117b8565b965061189d602089016117b8565b95506040880135945060608801359350608088013560ff811681146118c157600080fd5b9699959850939692959460a0840135945060c09093013592915050565b600080604083850312156118f157600080fd5b6118fa836117b8565b946020939093013593505050565b60006020828403121561191a57600080fd5b5035919050565b6000806040838503121561193457600080fd5b82359150611826602084016117b8565b6000806000806080858703121561195a57600080fd5b8435935061196a602086016117b8565b9250611978604086016117b8565b9396929550929360600135925050565b60008060006060848603121561199d57600080fd5b8335925061185b602085016117b8565b600060208083528351808285015260005b818110156119da578581018301518582016040015282016119be565b818111156119ec576000604083870101525b50601f017fffffffffffffffffffffffffffffffffffffffffffffffffffffffffffffffe016929092016040019392505050565b60008219821115611a3357611a33611a9d565b500190565b600082821015611a4a57611a4a611a9d565b500390565b600181811c90821680611a6357607f821691505b60208210811415611418577f4e487b7100000000000000000000000000000000000000000000000000000000600052602260045260246000fd5b7f4e487b7100000000000000000000000000000000000000000000000000000000600052601160045260246000fd5b7f4e487b7100000000000000000000000000000000000000000000000000000000600052602160045260246000fdfea2646970667358221220586a7a11e0cbfbbd87a10728794d4dc92939154620539c3d548c9e1e576c2e8e64736f6c63430008060033a2646970667358221220935a83258ebd3b82280b36df498749c4dc91d1f076f97de9e451d596373e341d64736f6c63430008060033",
  "devdoc": {
    "details": "Token balances can be either represented internally or claimed as ERC-20s into wallets. This contract manages these two representations and allows claiming.The total supply of a project's tokens and the balance of each account are calculated in this contract.Each project can bring their own token if they prefer, and swap between tokens at any time.Adheres to - IJBTokenStore: General interface for the methods in this contract that interact with the blockchain's state according to the protocol's rules.Inherits from - JBControllerUtility: Includes convenience functionality for checking if the message sender is the current controller of the project whose data is being manipulated. JBOperatable: Includes convenience functionality for checking a message sender's permissions before executing certain transactions.",
    "kind": "dev",
    "methods": {
      "balanceOf(address,uint256)": {
        "params": {
          "_holder": "The token holder to get a balance for.",
          "_projectId": "The project to get the `_holder`s balance of."
        },
        "returns": {
          "balance": "The project token balance of the `_holder"
        }
      },
      "burnFrom(address,uint256,uint256,bool)": {
        "details": "Only a project's current controller can burn its tokens.",
        "params": {
          "_amount": "The amount of tokens to burn.",
          "_holder": "The address that owns the tokens being burned.",
          "_preferClaimedTokens": "A flag indicating whether there's a preference for tokens to burned from the `_holder`s wallet if the project currently has a token contract attached.",
          "_projectId": "The ID of the project to which the burned tokens belong."
        }
      },
      "changeFor(uint256,address,address)": {
        "details": "Only a project's current controller can change its token.This contract must have access to all of the token's `IJBToken` interface functions.Can't change to a token that's currently being used by another project.Changing to the zero address will remove the current token without adding a new one.",
        "params": {
          "_newOwner": "An address to transfer the current token's ownership to. This is optional, but it cannot be done later.",
          "_projectId": "The ID of the project to which the changed token belongs.",
          "_token": "The new token. Send an empty address to remove the project's current token without adding a new one, if claiming tokens isn't currency required by the project"
        },
        "returns": {
          "oldToken": "The token that was removed as the project's token."
        }
      },
      "claimFor(address,uint256,uint256)": {
        "details": "Only a token holder or an operator specified by the token holder can claim its unclaimed tokens.",
        "params": {
          "_amount": "The amount of tokens to claim.",
          "_holder": "The owner of the tokens being claimed.",
          "_projectId": "The ID of the project whose tokens are being claimed."
        }
      },
      "constructor": {
        "params": {
          "_directory": "A contract storing directories of terminals and controllers for each project.",
          "_operatorStore": "A contract storing operator assignments.",
          "_projects": "A contract which mints ERC-721's that represent project ownership and transfers."
        }
      },
      "issueFor(uint256,string,string)": {
        "details": "Deploys a project's ERC-20 token contract.Only a project's current controller can issue its token.",
        "params": {
          "_name": "The ERC-20's name.",
          "_projectId": "The ID of the project being issued tokens.",
          "_symbol": "The ERC-20's symbol."
        },
        "returns": {
          "token": "The token that was issued."
        }
      },
      "mintFor(address,uint256,uint256,bool)": {
        "details": "Only a project's current controller can mint its tokens.",
        "params": {
          "_amount": "The amount of tokens to mint.",
          "_holder": "The address receiving the new tokens.",
          "_preferClaimedTokens": "A flag indicating whether there's a preference for minted tokens to be claimed automatically into the `_holder`s wallet if the project currently has a token contract attached.",
          "_projectId": "The ID of the project to which the tokens belong."
        }
      },
      "shouldRequireClaimingFor(uint256,bool)": {
        "details": "Only a token holder or an operator can require claimed token.",
        "params": {
          "_flag": "A flag indicating whether or not claiming should be required.",
          "_projectId": "The ID of the project being affected."
        }
      },
      "totalSupplyOf(uint256)": {
        "params": {
          "_projectId": "The ID of the project to get the total token supply of."
        },
        "returns": {
          "totalSupply": "The total supply of the project's tokens."
        }
      },
      "transferFrom(address,uint256,address,uint256)": {
        "details": "Only a token holder or an operator can transfer its unclaimed tokens.",
        "params": {
          "_amount": "The amount of tokens to transfer.",
          "_holder": "The address to transfer tokens from.",
          "_projectId": "The ID of the project whose tokens are being transferred.",
          "_recipient": "The recipient of the tokens."
        }
      }
    },
    "version": 1
  },
  "userdoc": {
    "kind": "user",
    "methods": {
      "balanceOf(address,uint256)": {
        "notice": "The total balance of tokens a holder has for a specified project, including claimed and unclaimed tokens."
      },
      "burnFrom(address,uint256,uint256,bool)": {
        "notice": "Burns a project's tokens."
      },
      "changeFor(uint256,address,address)": {
        "notice": "Swap the current project's token for another, and transfer ownership of the current token to another address if needed."
      },
      "claimFor(address,uint256,uint256)": {
        "notice": "Claims internally accounted for tokens into a holder's wallet."
      },
      "directory()": {
        "notice": " The directory of terminals and controllers for projects."
      },
      "issueFor(uint256,string,string)": {
        "notice": "Issues a project's ERC-20 tokens that'll be used when claiming tokens."
      },
      "mintFor(address,uint256,uint256,bool)": {
        "notice": "Mint new project tokens."
      },
      "operatorStore()": {
        "notice": " A contract storing operator assignments."
      },
      "projectOf(address)": {
        "notice": "The ID of the project that each token belongs to. _token The token to check the project association of."
      },
      "projects()": {
        "notice": "Mints ERC-721's that represent project ownership and transfers."
      },
      "requireClaimFor(uint256)": {
        "notice": "A flag indicating if tokens are required to be issued as claimed for a particular project. _projectId The ID of the project to which the requirement applies."
      },
      "shouldRequireClaimingFor(uint256,bool)": {
        "notice": "Allows a project to force all future mints of its tokens to be claimed into the holder's wallet, or revoke the flag if it's already set."
      },
      "tokenOf(uint256)": {
        "notice": "Each project's attached token contract. _projectId The ID of the project to which the token belongs."
      },
      "totalSupplyOf(uint256)": {
        "notice": "The total supply of tokens for each project, including claimed and unclaimed tokens."
      },
      "transferFrom(address,uint256,address,uint256)": {
        "notice": "Allows a holder to transfer unclaimed tokens to another account."
      },
      "unclaimedBalanceOf(address,uint256)": {
        "notice": "Each holder's balance of unclaimed tokens for each project. _holder The holder of balance. _projectId The ID of the project to which the token belongs."
      },
      "unclaimedTotalSupplyOf(uint256)": {
        "notice": "The total supply of unclaimed tokens for each project. _projectId The ID of the project to which the token belongs."
      }
    },
    "notice": "Manage token minting, burning, and account balances.",
    "version": 1
  },
  "storageLayout": {
    "storage": [
      {
        "astId": 13450,
        "contract": "contracts/JBTokenStore.sol:JBTokenStore",
        "label": "tokenOf",
        "offset": 0,
        "slot": "0",
        "type": "t_mapping(t_uint256,t_contract(IJBToken)19122)"
      },
      {
        "astId": 13457,
        "contract": "contracts/JBTokenStore.sol:JBTokenStore",
        "label": "projectOf",
        "offset": 0,
        "slot": "1",
        "type": "t_mapping(t_contract(IJBToken)19122,t_uint256)"
      },
      {
        "astId": 13463,
        "contract": "contracts/JBTokenStore.sol:JBTokenStore",
        "label": "unclaimedTotalSupplyOf",
        "offset": 0,
        "slot": "2",
        "type": "t_mapping(t_uint256,t_uint256)"
      },
      {
        "astId": 13471,
        "contract": "contracts/JBTokenStore.sol:JBTokenStore",
        "label": "unclaimedBalanceOf",
        "offset": 0,
        "slot": "3",
        "type": "t_mapping(t_address,t_mapping(t_uint256,t_uint256))"
      },
      {
        "astId": 13477,
        "contract": "contracts/JBTokenStore.sol:JBTokenStore",
        "label": "requireClaimFor",
        "offset": 0,
        "slot": "4",
        "type": "t_mapping(t_uint256,t_bool)"
      }
    ],
    "types": {
      "t_address": {
        "encoding": "inplace",
        "label": "address",
        "numberOfBytes": "20"
      },
      "t_bool": {
        "encoding": "inplace",
        "label": "bool",
        "numberOfBytes": "1"
      },
      "t_contract(IJBToken)19122": {
        "encoding": "inplace",
        "label": "contract IJBToken",
        "numberOfBytes": "20"
      },
      "t_mapping(t_address,t_mapping(t_uint256,t_uint256))": {
        "encoding": "mapping",
        "key": "t_address",
        "label": "mapping(address => mapping(uint256 => uint256))",
        "numberOfBytes": "32",
        "value": "t_mapping(t_uint256,t_uint256)"
      },
      "t_mapping(t_contract(IJBToken)19122,t_uint256)": {
        "encoding": "mapping",
        "key": "t_contract(IJBToken)19122",
        "label": "mapping(contract IJBToken => uint256)",
        "numberOfBytes": "32",
        "value": "t_uint256"
      },
      "t_mapping(t_uint256,t_bool)": {
        "encoding": "mapping",
        "key": "t_uint256",
        "label": "mapping(uint256 => bool)",
        "numberOfBytes": "32",
        "value": "t_bool"
      },
      "t_mapping(t_uint256,t_contract(IJBToken)19122)": {
        "encoding": "mapping",
        "key": "t_uint256",
        "label": "mapping(uint256 => contract IJBToken)",
        "numberOfBytes": "32",
        "value": "t_contract(IJBToken)19122"
      },
      "t_mapping(t_uint256,t_uint256)": {
        "encoding": "mapping",
        "key": "t_uint256",
        "label": "mapping(uint256 => uint256)",
        "numberOfBytes": "32",
        "value": "t_uint256"
      },
      "t_uint256": {
        "encoding": "inplace",
        "label": "uint256",
        "numberOfBytes": "32"
      }
    }
  }
}