{
  "_format": "hh-sol-artifact-1",
  "contractName": "PublicResolver_mainnet_9412610",
  "sourceName": "contracts/legacy/PublicResolver_mainnet_9412610.sol",
  "abi": [
    {
      "inputs": [
        {
          "internalType": "contract ENS",
          "name": "_ens",
          "type": "address"
        }
      ],
      "payable": false,
      "stateMutability": "nonpayable",
      "type": "constructor"
    },
    {
      "anonymous": false,
      "inputs": [
        {
          "indexed": true,
          "internalType": "bytes32",
          "name": "node",
          "type": "bytes32"
        },
        {
          "indexed": true,
          "internalType": "uint256",
          "name": "contentType",
          "type": "uint256"
        }
      ],
      "name": "ABIChanged",
      "type": "event"
    },
    {
      "anonymous": false,
      "inputs": [
        {
          "indexed": true,
          "internalType": "bytes32",
          "name": "node",
          "type": "bytes32"
        },
        {
          "indexed": false,
          "internalType": "address",
          "name": "a",
          "type": "address"
        }
      ],
      "name": "AddrChanged",
      "type": "event"
    },
    {
      "anonymous": false,
      "inputs": [
        {
          "indexed": true,
          "internalType": "bytes32",
          "name": "node",
          "type": "bytes32"
        },
        {
          "indexed": false,
          "internalType": "uint256",
          "name": "coinType",
          "type": "uint256"
        },
        {
          "indexed": false,
          "internalType": "bytes",
          "name": "newAddress",
          "type": "bytes"
        }
      ],
      "name": "AddressChanged",
      "type": "event"
    },
    {
      "anonymous": false,
      "inputs": [
        {
          "indexed": true,
          "internalType": "bytes32",
          "name": "node",
          "type": "bytes32"
        },
        {
          "indexed": true,
          "internalType": "address",
          "name": "owner",
          "type": "address"
        },
        {
          "indexed": true,
          "internalType": "address",
          "name": "target",
          "type": "address"
        },
        {
          "indexed": false,
          "internalType": "bool",
          "name": "isAuthorised",
          "type": "bool"
        }
      ],
      "name": "AuthorisationChanged",
      "type": "event"
    },
    {
      "anonymous": false,
      "inputs": [
        {
          "indexed": true,
          "internalType": "bytes32",
          "name": "node",
          "type": "bytes32"
        },
        {
          "indexed": false,
          "internalType": "bytes",
          "name": "hash",
          "type": "bytes"
        }
      ],
      "name": "ContenthashChanged",
      "type": "event"
    },
    {
      "anonymous": false,
      "inputs": [
        {
          "indexed": true,
          "internalType": "bytes32",
          "name": "node",
          "type": "bytes32"
        },
        {
          "indexed": false,
          "internalType": "bytes",
          "name": "name",
          "type": "bytes"
        },
        {
          "indexed": false,
          "internalType": "uint16",
          "name": "resource",
          "type": "uint16"
        },
        {
          "indexed": false,
          "internalType": "bytes",
          "name": "record",
          "type": "bytes"
        }
      ],
      "name": "DNSRecordChanged",
      "type": "event"
    },
    {
      "anonymous": false,
      "inputs": [
        {
          "indexed": true,
          "internalType": "bytes32",
          "name": "node",
          "type": "bytes32"
        },
        {
          "indexed": false,
          "internalType": "bytes",
          "name": "name",
          "type": "bytes"
        },
        {
          "indexed": false,
          "internalType": "uint16",
          "name": "resource",
          "type": "uint16"
        }
      ],
      "name": "DNSRecordDeleted",
      "type": "event"
    },
    {
      "anonymous": false,
      "inputs": [
        {
          "indexed": true,
          "internalType": "bytes32",
          "name": "node",
          "type": "bytes32"
        }
      ],
      "name": "DNSZoneCleared",
      "type": "event"
    },
    {
      "anonymous": false,
      "inputs": [
        {
          "indexed": true,
          "internalType": "bytes32",
          "name": "node",
          "type": "bytes32"
        },
        {
          "indexed": true,
          "internalType": "bytes4",
          "name": "interfaceID",
          "type": "bytes4"
        },
        {
          "indexed": false,
          "internalType": "address",
          "name": "implementer",
          "type": "address"
        }
      ],
      "name": "InterfaceChanged",
      "type": "event"
    },
    {
      "anonymous": false,
      "inputs": [
        {
          "indexed": true,
          "internalType": "bytes32",
          "name": "node",
          "type": "bytes32"
        },
        {
          "indexed": false,
          "internalType": "string",
          "name": "name",
          "type": "string"
        }
      ],
      "name": "NameChanged",
      "type": "event"
    },
    {
      "anonymous": false,
      "inputs": [
        {
          "indexed": true,
          "internalType": "bytes32",
          "name": "node",
          "type": "bytes32"
        },
        {
          "indexed": false,
          "internalType": "bytes32",
          "name": "x",
          "type": "bytes32"
        },
        {
          "indexed": false,
          "internalType": "bytes32",
          "name": "y",
          "type": "bytes32"
        }
      ],
      "name": "PubkeyChanged",
      "type": "event"
    },
    {
      "anonymous": false,
      "inputs": [
        {
          "indexed": true,
          "internalType": "bytes32",
          "name": "node",
          "type": "bytes32"
        },
        {
          "indexed": true,
          "internalType": "string",
          "name": "indexedKey",
          "type": "string"
        },
        {
          "indexed": false,
          "internalType": "string",
          "name": "key",
          "type": "string"
        }
      ],
      "name": "TextChanged",
      "type": "event"
    },
    {
      "constant": true,
      "inputs": [
        {
          "internalType": "bytes32",
          "name": "node",
          "type": "bytes32"
        },
        {
          "internalType": "uint256",
          "name": "contentTypes",
          "type": "uint256"
        }
      ],
      "name": "ABI",
      "outputs": [
        {
          "internalType": "uint256",
          "name": "",
          "type": "uint256"
        },
        {
          "internalType": "bytes",
          "name": "",
          "type": "bytes"
        }
      ],
      "payable": false,
      "stateMutability": "view",
      "type": "function"
    },
    {
      "constant": true,
      "inputs": [
        {
          "internalType": "bytes32",
          "name": "node",
          "type": "bytes32"
        }
      ],
      "name": "addr",
      "outputs": [
        {
          "internalType": "address payable",
          "name": "",
          "type": "address"
        }
      ],
      "payable": false,
      "stateMutability": "view",
      "type": "function"
    },
    {
      "constant": true,
      "inputs": [
        {
          "internalType": "bytes32",
          "name": "node",
          "type": "bytes32"
        },
        {
          "internalType": "uint256",
          "name": "coinType",
          "type": "uint256"
        }
      ],
      "name": "addr",
      "outputs": [
        {
          "internalType": "bytes",
          "name": "",
          "type": "bytes"
        }
      ],
      "payable": false,
      "stateMutability": "view",
      "type": "function"
    },
    {
      "constant": true,
      "inputs": [
        {
          "internalType": "bytes32",
          "name": "",
          "type": "bytes32"
        },
        {
          "internalType": "address",
          "name": "",
          "type": "address"
        },
        {
          "internalType": "address",
          "name": "",
          "type": "address"
        }
      ],
      "name": "authorisations",
      "outputs": [
        {
          "internalType": "bool",
          "name": "",
          "type": "bool"
        }
      ],
      "payable": false,
      "stateMutability": "view",
      "type": "function"
    },
    {
      "constant": false,
      "inputs": [
        {
          "internalType": "bytes32",
          "name": "node",
          "type": "bytes32"
        }
      ],
      "name": "clearDNSZone",
      "outputs": [],
      "payable": false,
      "stateMutability": "nonpayable",
      "type": "function"
    },
    {
      "constant": true,
      "inputs": [
        {
          "internalType": "bytes32",
          "name": "node",
          "type": "bytes32"
        }
      ],
      "name": "contenthash",
      "outputs": [
        {
          "internalType": "bytes",
          "name": "",
          "type": "bytes"
        }
      ],
      "payable": false,
      "stateMutability": "view",
      "type": "function"
    },
    {
      "constant": true,
      "inputs": [
        {
          "internalType": "bytes32",
          "name": "node",
          "type": "bytes32"
        },
        {
          "internalType": "bytes32",
          "name": "name",
          "type": "bytes32"
        },
        {
          "internalType": "uint16",
          "name": "resource",
          "type": "uint16"
        }
      ],
      "name": "dnsRecord",
      "outputs": [
        {
          "internalType": "bytes",
          "name": "",
          "type": "bytes"
        }
      ],
      "payable": false,
      "stateMutability": "view",
      "type": "function"
    },
    {
      "constant": true,
      "inputs": [
        {
          "internalType": "bytes32",
          "name": "node",
          "type": "bytes32"
        },
        {
          "internalType": "bytes32",
          "name": "name",
          "type": "bytes32"
        }
      ],
      "name": "hasDNSRecords",
      "outputs": [
        {
          "internalType": "bool",
          "name": "",
          "type": "bool"
        }
      ],
      "payable": false,
      "stateMutability": "view",
      "type": "function"
    },
    {
      "constant": true,
      "inputs": [
        {
          "internalType": "bytes32",
          "name": "node",
          "type": "bytes32"
        },
        {
          "internalType": "bytes4",
          "name": "interfaceID",
          "type": "bytes4"
        }
      ],
      "name": "interfaceImplementer",
      "outputs": [
        {
          "internalType": "address",
          "name": "",
          "type": "address"
        }
      ],
      "payable": false,
      "stateMutability": "view",
      "type": "function"
    },
    {
      "constant": false,
      "inputs": [
        {
          "internalType": "bytes[]",
          "name": "data",
          "type": "bytes[]"
        }
      ],
      "name": "multicall",
      "outputs": [
        {
          "internalType": "bytes[]",
          "name": "results",
          "type": "bytes[]"
        }
      ],
      "payable": false,
      "stateMutability": "nonpayable",
      "type": "function"
    },
    {
      "constant": true,
      "inputs": [
        {
          "internalType": "bytes32",
          "name": "node",
          "type": "bytes32"
        }
      ],
      "name": "name",
      "outputs": [
        {
          "internalType": "string",
          "name": "",
          "type": "string"
        }
      ],
      "payable": false,
      "stateMutability": "view",
      "type": "function"
    },
    {
      "constant": true,
      "inputs": [
        {
          "internalType": "bytes32",
          "name": "node",
          "type": "bytes32"
        }
      ],
      "name": "pubkey",
      "outputs": [
        {
          "internalType": "bytes32",
          "name": "x",
          "type": "bytes32"
        },
        {
          "internalType": "bytes32",
          "name": "y",
          "type": "bytes32"
        }
      ],
      "payable": false,
      "stateMutability": "view",
      "type": "function"
    },
    {
      "constant": false,
      "inputs": [
        {
          "internalType": "bytes32",
          "name": "node",
          "type": "bytes32"
        },
        {
          "internalType": "uint256",
          "name": "contentType",
          "type": "uint256"
        },
        {
          "internalType": "bytes",
          "name": "data",
          "type": "bytes"
        }
      ],
      "name": "setABI",
      "outputs": [],
      "payable": false,
      "stateMutability": "nonpayable",
      "type": "function"
    },
    {
      "constant": false,
      "inputs": [
        {
          "internalType": "bytes32",
          "name": "node",
          "type": "bytes32"
        },
        {
          "internalType": "uint256",
          "name": "coinType",
          "type": "uint256"
        },
        {
          "internalType": "bytes",
          "name": "a",
          "type": "bytes"
        }
      ],
      "name": "setAddr",
      "outputs": [],
      "payable": false,
      "stateMutability": "nonpayable",
      "type": "function"
    },
    {
      "constant": false,
      "inputs": [
        {
          "internalType": "bytes32",
          "name": "node",
          "type": "bytes32"
        },
        {
          "internalType": "address",
          "name": "a",
          "type": "address"
        }
      ],
      "name": "setAddr",
      "outputs": [],
      "payable": false,
      "stateMutability": "nonpayable",
      "type": "function"
    },
    {
      "constant": false,
      "inputs": [
        {
          "internalType": "bytes32",
          "name": "node",
          "type": "bytes32"
        },
        {
          "internalType": "address",
          "name": "target",
          "type": "address"
        },
        {
          "internalType": "bool",
          "name": "isAuthorised",
          "type": "bool"
        }
      ],
      "name": "setAuthorisation",
      "outputs": [],
      "payable": false,
      "stateMutability": "nonpayable",
      "type": "function"
    },
    {
      "constant": false,
      "inputs": [
        {
          "internalType": "bytes32",
          "name": "node",
          "type": "bytes32"
        },
        {
          "internalType": "bytes",
          "name": "hash",
          "type": "bytes"
        }
      ],
      "name": "setContenthash",
      "outputs": [],
      "payable": false,
      "stateMutability": "nonpayable",
      "type": "function"
    },
    {
      "constant": false,
      "inputs": [
        {
          "internalType": "bytes32",
          "name": "node",
          "type": "bytes32"
        },
        {
          "internalType": "bytes",
          "name": "data",
          "type": "bytes"
        }
      ],
      "name": "setDNSRecords",
      "outputs": [],
      "payable": false,
      "stateMutability": "nonpayable",
      "type": "function"
    },
    {
      "constant": false,
      "inputs": [
        {
          "internalType": "bytes32",
          "name": "node",
          "type": "bytes32"
        },
        {
          "internalType": "bytes4",
          "name": "interfaceID",
          "type": "bytes4"
        },
        {
          "internalType": "address",
          "name": "implementer",
          "type": "address"
        }
      ],
      "name": "setInterface",
      "outputs": [],
      "payable": false,
      "stateMutability": "nonpayable",
      "type": "function"
    },
    {
      "constant": false,
      "inputs": [
        {
          "internalType": "bytes32",
          "name": "node",
          "type": "bytes32"
        },
        {
          "internalType": "string",
          "name": "name",
          "type": "string"
        }
      ],
      "name": "setName",
      "outputs": [],
      "payable": false,
      "stateMutability": "nonpayable",
      "type": "function"
    },
    {
      "constant": false,
      "inputs": [
        {
          "internalType": "bytes32",
          "name": "node",
          "type": "bytes32"
        },
        {
          "internalType": "bytes32",
          "name": "x",
          "type": "bytes32"
        },
        {
          "internalType": "bytes32",
          "name": "y",
          "type": "bytes32"
        }
      ],
      "name": "setPubkey",
      "outputs": [],
      "payable": false,
      "stateMutability": "nonpayable",
      "type": "function"
    },
    {
      "constant": false,
      "inputs": [
        {
          "internalType": "bytes32",
          "name": "node",
          "type": "bytes32"
        },
        {
          "internalType": "string",
          "name": "key",
          "type": "string"
        },
        {
          "internalType": "string",
          "name": "value",
          "type": "string"
        }
      ],
      "name": "setText",
      "outputs": [],
      "payable": false,
      "stateMutability": "nonpayable",
      "type": "function"
    },
    {
      "constant": true,
      "inputs": [
        {
          "internalType": "bytes4",
          "name": "interfaceID",
          "type": "bytes4"
        }
      ],
      "name": "supportsInterface",
      "outputs": [
        {
          "internalType": "bool",
          "name": "",
          "type": "bool"
        }
      ],
      "payable": false,
      "stateMutability": "pure",
      "type": "function"
    },
    {
      "constant": true,
      "inputs": [
        {
          "internalType": "bytes32",
          "name": "node",
          "type": "bytes32"
        },
        {
          "internalType": "string",
          "name": "key",
          "type": "string"
        }
      ],
      "name": "text",
      "outputs": [
        {
          "internalType": "string",
          "name": "",
          "type": "string"
        }
      ],
      "payable": false,
      "stateMutability": "view",
      "type": "function"
    }
  ],
  "bytecode": "0x60806040523480156200001157600080fd5b5060405162002abe38038062002abe83398101604081905262000034916200006d565b600a80546001600160a01b0319166001600160a01b0392909216919091179055620000d6565b80516200006781620000bc565b92915050565b6000602082840312156200008057600080fd5b60006200008e84846200005a565b949350505050565b60006200006782620000b0565b6000620000678262000096565b6001600160a01b031690565b620000c781620000a3565b8114620000d357600080fd5b50565b6129d880620000e66000396000f3fe608060405234801561001057600080fd5b50600436106101985760003560e01c8063691f3431116100e3578063bc1c58d11161008c578063e59d895d11610066578063e59d895d14610387578063f1cb7e061461039a578063f86bc879146103ad57610198565b8063bc1c58d114610340578063c869023314610353578063d5fa2b001461037457610198565b8063a8fa5682116100bd578063a8fa5682146102fa578063ac9650d81461030d578063ad5780af1461032d57610198565b8063691f3431146102c157806377372213146102d45780638b95dd71146102e757610198565b8063304e6ade116101455780634cbf6ba41161011f5780634cbf6ba41461027b57806359d1d43c1461028e578063623195b0146102ae57610198565b8063304e6ade146102425780633b3b57de146102555780633e9ce7941461026857610198565b8063124a319c11610176578063124a319c146101ee5780632203ab561461020e57806329cd62ea1461022f57610198565b806301ffc9a71461019d5780630af179d7146101c657806310f13a8c146101db575b600080fd5b6101b06101ab366004612504565b6103c0565b6040516101bd9190612730565b60405180910390f35b6101d96101d4366004612364565b61041e565b005b6101d96101e93660046123ba565b61060b565b6102016101fc366004612302565b6106b8565b6040516101bd9190612703565b61022161021c36600461224c565b6109f7565b6040516101bd9291906127f3565b6101d961023d36600461227c565b610b16565b6101d9610250366004612364565b610b96565b610201610263366004612164565b610bf5565b6101d9610276366004612209565b610c2a565b6101b061028936600461224c565b610ccf565b6102a161029c366004612364565b610d01565b6040516101bd9190612787565b6101d96102bc366004612441565b610dc3565b6102a16102cf366004612164565b610e3e565b6101d96102e2366004612364565b610edf565b6101d96102f53660046124a9565b610f3e565b6102a16103083660046122bf565b611003565b61032061031b366004612122565b611090565b6040516101bd919061271f565b6101d961033b366004612164565b6111d4565b6102a161034e366004612164565b611227565b610366610361366004612164565b61128f565b6040516101bd92919061274c565b6101d9610382366004612182565b6112a9565b6101d9610395366004612332565b6112d0565b6102a16103a836600461224c565b61139d565b6101b06103bb3660046121bc565b611446565b60007fffffffff0000000000000000000000000000000000000000000000000000000082167f59d1d43c00000000000000000000000000000000000000000000000000000000148061041657506104168261146c565b90505b919050565b82610428816114c2565b61043157600080fd5b60008060608082610440611e30565b61048a60008a8a8080601f016020809104026020016040519081016040528093929190818152602001838380828437600092019190915250929392505063ffffffff6115d1169050565b90505b610496816115ec565b6105ae5761ffff86166104ee57806040015195506104b3816115fa565b9350836040516020016104c691906126ec565b6040516020818303038152906040528051906020012091506104e781611621565b92506105a0565b60606104f9826115fa565b9050816040015161ffff168761ffff161415806105235750610521858263ffffffff61164216565b155b1561059e576105778b86898d8d8080601f016020809104026020016040519081016040528093929190818152602001838380828437600092019190915250505050602087015189518c918290039015611660565b81604001519650816020015195508094508480519060200120925061059b82611621565b93505b505b6105a9816118c7565b61048d565b50825115610600576106008984878b8b8080601f0160208091040260200160405190810160405280939291908181526020018383808284376000920191909152505088518b9250828f03915015611660565b505050505050505050565b84610615816114c2565b61061e57600080fd5b82826009600089815260200190815260200160002087876040516106439291906126df565b90815260405190819003602001902061065d929091611e7b565b50848460405161066e9291906126df565b6040518091039020867fd8c9334b1a9c2f9da342a0a2b32629c1a229b6445dad78947f674b44444a755087876040516106a8929190612775565b60405180910390a3505050505050565b60008281526006602090815260408083207fffffffff000000000000000000000000000000000000000000000000000000008516845290915281205473ffffffffffffffffffffffffffffffffffffffff1680156107175790506109f1565b600061072285610bf5565b905073ffffffffffffffffffffffffffffffffffffffff811661074a576000925050506109f1565b600060608273ffffffffffffffffffffffffffffffffffffffff166301ffc9a760e01b60405160240161077d9190612767565b604080517fffffffffffffffffffffffffffffffffffffffffffffffffffffffffffffffe08184030181529181526020820180517bffffffffffffffffffffffffffffffffffffffffffffffffffffffff167f01ffc9a700000000000000000000000000000000000000000000000000000000179052516107fe91906126ec565b600060405180830381855afa9150503d8060008114610839576040519150601f19603f3d011682016040523d82523d6000602084013e61083e565b606091505b5091509150811580610851575060208151105b8061088d575080601f8151811061086457fe5b01602001517fff0000000000000000000000000000000000000000000000000000000000000016155b1561089f5760009450505050506109f1565b8273ffffffffffffffffffffffffffffffffffffffff16866040516024016108c79190612767565b604080517fffffffffffffffffffffffffffffffffffffffffffffffffffffffffffffffe08184030181529181526020820180517bffffffffffffffffffffffffffffffffffffffffffffffffffffffff167f01ffc9a7000000000000000000000000000000000000000000000000000000001790525161094891906126ec565b600060405180830381855afa9150503d8060008114610983576040519150601f19603f3d011682016040523d82523d6000602084013e610988565b606091505b50909250905081158061099c575060208151105b806109d8575080601f815181106109af57fe5b01602001517fff0000000000000000000000000000000000000000000000000000000000000016155b156109ea5760009450505050506109f1565b5090925050505b92915050565b600082815260208190526040812060609060015b848111610af85780851615801590610a4357506000818152602083905260409020546002600019610100600184161502019091160415155b15610af0576000818152602083815260409182902080548351601f6002600019610100600186161502019093169290920491820184900484028101840190945280845284939192839190830182828015610ade5780601f10610ab357610100808354040283529160200191610ade565b820191906000526020600020905b815481529060010190602001808311610ac157829003601f168201915b50505050509050935093505050610b0f565b60011b610a0b565b505060408051602081019091526000808252925090505b9250929050565b82610b20816114c2565b610b2957600080fd5b6040805180820182528481526020808201858152600088815260089092529083902091518255516001909101555184907f1d6f5e03d3f63eb58751986629a5439baee5079ff04f345becb66e23eb154e4690610b88908690869061274c565b60405180910390a250505050565b82610ba0816114c2565b610ba957600080fd5b6000848152600260205260409020610bc2908484611e7b565b50837fe379c1624ed7e714cc0937528a32359d69d5281337765313dba4e081b72d75788484604051610b88929190612775565b60006060610c0483603c61139d565b9050805160001415610c1a576000915050610419565b610c238161199a565b9392505050565b6000838152600b602090815260408083203380855290835281842073ffffffffffffffffffffffffffffffffffffffff871680865293529281902080547fffffffffffffffffffffffffffffffffffffffffffffffffffffffffffffff00168515151790555190919085907fe1c5610a6e0cbe10764ecd182adcef1ec338dc4e199c99c32ce98f38e12791df90610cc2908690612730565b60405180910390a4505050565b600091825260056020908152604080842060038352818520548552825280842092845291905290205461ffff16151590565b6060600960008581526020019081526020016000208383604051610d269291906126df565b9081526040805160209281900383018120805460026001821615610100026000190190911604601f81018590048502830185019093528282529092909190830182828015610db55780601f10610d8a57610100808354040283529160200191610db5565b820191906000526020600020905b815481529060010190602001808311610d9857829003601f168201915b505050505090509392505050565b83610dcd816114c2565b610dd657600080fd5b6000198401841615610de757600080fd5b6000858152602081815260408083208784529091529020610e09908484611e7b565b50604051849086907faa121bbeef5f32f5961a2a28966e769023910fc9479059ee3495d4c1a696efe390600090a35050505050565b60008181526007602090815260409182902080548351601f6002600019610100600186161502019093169290920491820184900484028101840190945280845260609392830182828015610ed35780601f10610ea857610100808354040283529160200191610ed3565b820191906000526020600020905b815481529060010190602001808311610eb657829003601f168201915b50505050509050919050565b82610ee9816114c2565b610ef257600080fd5b6000848152600760205260409020610f0b908484611e7b565b50837fb7d29e911041e8d9b843369e890bcb72c9388692ba48b65ac54e7214c4c348f78484604051610b88929190612775565b82610f48816114c2565b610f5157600080fd5b837f65412581168e88a1e60c6459d7f44ae83ad0832e670826c05a4e2476b57af7528484604051610f839291906127f3565b60405180910390a2603c831415610fd557837f52d7d861f09ab3d26239d492e8968629f95e9e318cf0b73bfddc441522a15fd2610fbf8461199a565b604051610fcc9190612711565b60405180910390a25b600084815260016020908152604080832086845282529091208351610ffc92850190611f17565b5050505050565b6000838152600460209081526040808320600383528184205484528252808320858452825280832061ffff8516845282529182902080548351601f6002600019610100600186161502019093169290920491820184900484028101840190945280845260609392830182828015610db55780601f10610d8a57610100808354040283529160200191610db5565b6040805182815260208084028201019091526060908280156110c657816020015b60608152602001906001900390816110b15790505b50905060005b828110156111cd5760006060308686858181106110e557fe5b6020028201905080357fffffffffffffffffffffffffffffffffffffffffffffffffffffffffffffffe13684900301811261111f57600080fd5b9091016020810191503567ffffffffffffffff81111561113e57600080fd5b3681900382131561114e57600080fd5b60405161115c9291906126df565b600060405180830381855af49150503d8060008114611197576040519150601f19603f3d011682016040523d82523d6000602084013e61119c565b606091505b5091509150816111ab57600080fd5b808484815181106111b857fe5b602090810291909101015250506001016110cc565b5092915050565b806111de816114c2565b6111e757600080fd5b600082815260036020526040808220805460010190555183917fb757169b8492ca2f1c6619d9d76ce22803035c3b1d5f6930dffe7b127c1a198391a25050565b600081815260026020818152604092839020805484516001821615610100026000190190911693909304601f81018390048302840183019094528383526060939091830182828015610ed35780601f10610ea857610100808354040283529160200191610ed3565b600090815260086020526040902080546001909101549091565b816112b3816114c2565b6112bc57600080fd5b6112cb83603c6102f5856119c2565b505050565b826112da816114c2565b6112e357600080fd5b60008481526006602090815260408083207fffffffff00000000000000000000000000000000000000000000000000000000871680855292529182902080547fffffffffffffffffffffffff00000000000000000000000000000000000000001673ffffffffffffffffffffffffffffffffffffffff8616179055905185907f7c69f06bea0bdef565b709e93a147836b0063ba2dd89f02d0b7e8d931e6a6daa9061138f908690612703565b60405180910390a350505050565b600082815260016020818152604080842085855282529283902080548451600294821615610100026000190190911693909304601f810183900483028401830190945283835260609390918301828280156114395780601f1061140e57610100808354040283529160200191611439565b820191906000526020600020905b81548152906001019060200180831161141c57829003601f168201915b5050505050905092915050565b600b60209081526000938452604080852082529284528284209052825290205460ff1681565b60007fffffffff0000000000000000000000000000000000000000000000000000000082167fc86902330000000000000000000000000000000000000000000000000000000014806104165750610416826119fb565b600a546040517f02571be3000000000000000000000000000000000000000000000000000000008152600091829173ffffffffffffffffffffffffffffffffffffffff909116906302571be39061151d90869060040161273e565b60206040518083038186803b15801561153557600080fd5b505afa158015611549573d6000803e3d6000fd5b505050506040513d601f19601f8201168201806040525061156d91908101906120fc565b905073ffffffffffffffffffffffffffffffffffffffff8116331480610c2357506000838152600b6020908152604080832073ffffffffffffffffffffffffffffffffffffffff85168452825280832033845290915290205460ff16915050919050565b6115d9611e30565b82815260c081018290526109f1816118c7565b805151602090910151101590565b60208101518151606091610416916116129082611a51565b8451919063ffffffff611a9816565b60a081015160c082015182516060926104169281900363ffffffff611a9816565b600081518351148015610c235750610c238360008460008751611afa565b600087815260036020908152604090912054875191880191909120606061168e87878763ffffffff611a9816565b905083156117a85760008a81526004602090815260408083208684528252808320858452825280832061ffff8c16845290915290205460026000196101006001841615020190911604156117335760008a81526005602090815260408083208684528252808320858452909152902080547fffffffffffffffffffffffffffffffffffffffffffffffffffffffffffff0000811661ffff918216600019019091161790555b60008a81526004602090815260408083208684528252808320858452825280832061ffff8c168452909152812061176991611f85565b897f03528ed0c2a3ebc993b12ce3c16bb382f9c7d88ef7d8a1bf290eaf35955a12078a8a60405161179b929190612798565b60405180910390a26118bb565b60008a81526004602090815260408083208684528252808320858452825280832061ffff8c168452909152902054600260001961010060018416150201909116046118425760008a815260056020908152604080832086845282528083208584529091529020805461ffff808216600101167fffffffffffffffffffffffffffffffffffffffffffffffffffffffffffff00009091161790555b60008a81526004602090815260408083208684528252808320858452825280832061ffff8c1684528252909120825161187d92840190611f17565b50897f52a608b3303a48862d07a73d82fa221318c0027fbbcfb1b2329bface3f19ff2b8a8a846040516118b2939291906127b8565b60405180910390a25b50505050505050505050565b60c081015160208201819052815151116118e057611997565b60006118f482600001518360200151611a51565b602083015183519101915061190f908263ffffffff611b1d16565b61ffff166040830152815160029190910190611931908263ffffffff611b1d16565b61ffff166060830152815160029190910190611953908263ffffffff611b3d16565b63ffffffff908116608084015282516004929092019160009161197991908490611b1d16565b600283810160a086015261ffff9190911690920190910160c0830152505b50565b600081516014146119aa57600080fd5b50602001516c01000000000000000000000000900490565b6040805160148082528183019092526060916020820181803883395050506c010000000000000000000000009290920260208301525090565b60007fffffffff0000000000000000000000000000000000000000000000000000000082167f691f3431000000000000000000000000000000000000000000000000000000001480610416575061041682611b5f565b6000815b83518110611a5f57fe5b6000611a71858363ffffffff611bc416565b60ff1691820160010191905080611a885750611a8e565b50611a55565b9190910392915050565b606083518284011115611aaa57600080fd5b6060826040519080825280601f01601f191660200182016040528015611ad7576020820181803883390190505b50905060208082019086860101611aef828287611be2565b509095945050505050565b6000611b07848484611c3e565b611b12878785611c3e565b149695505050505050565b60008251826002011115611b3057600080fd5b50016002015161ffff1690565b60008251826004011115611b5057600080fd5b50016004015163ffffffff1690565b6000604051611b6d906126f8565b60405180910390207bffffffffffffffffffffffffffffffffffffffffffffffffffffffff1916827bffffffffffffffffffffffffffffffffffffffffffffffffffffffff19161480610416575061041682611c5a565b6000828281518110611bd257fe5b016020015160f81c905092915050565b5b60208110611c205781518352602092830192909101907fffffffffffffffffffffffffffffffffffffffffffffffffffffffffffffffe001611be3565b905182516020929092036101000a6000190180199091169116179052565b600083518284011115611c5057600080fd5b5091016020012090565b60007fffffffff0000000000000000000000000000000000000000000000000000000082167fa8fa568200000000000000000000000000000000000000000000000000000000148061041657506104168260007fffffffff0000000000000000000000000000000000000000000000000000000082167fbc1c58d100000000000000000000000000000000000000000000000000000000148061041657506104168260007fffffffff0000000000000000000000000000000000000000000000000000000082167f3b3b57de000000000000000000000000000000000000000000000000000000001480611d8f57507fffffffff0000000000000000000000000000000000000000000000000000000082167ff1cb7e0600000000000000000000000000000000000000000000000000000000145b8061041657506104168260007fffffffff0000000000000000000000000000000000000000000000000000000082167f2203ab5600000000000000000000000000000000000000000000000000000000148061041657507f01ffc9a7000000000000000000000000000000000000000000000000000000007fffffffff00000000000000000000000000000000000000000000000000000000831614610416565b6040518060e001604052806060815260200160008152602001600061ffff168152602001600061ffff168152602001600063ffffffff16815260200160008152602001600081525090565b828054600181600116156101000203166002900490600052602060002090601f016020900481019282601f10611eda578280017fffffffffffffffffffffffffffffffffffffffffffffffffffffffffffffff00823516178555611f07565b82800160010185558215611f07579182015b82811115611f07578235825591602001919060010190611eec565b50611f13929150611fc5565b5090565b828054600181600116156101000203166002900490600052602060002090601f016020900481019282601f10611f5857805160ff1916838001178555611f07565b82800160010185558215611f07579182015b82811115611f07578251825591602001919060010190611f6a565b50805460018160011615610100020316600290046000825580601f10611fab5750611997565b601f01602090049060005260206000209081019061199791905b611fdf91905b80821115611f135760008155600101611fcb565b90565b80356109f18161295d565b80516109f18161295d565b60008083601f84011261200a57600080fd5b50813567ffffffffffffffff81111561202257600080fd5b602083019150836020820283011115610b0f57600080fd5b80356109f181612971565b80356109f18161297a565b80356109f181612983565b60008083601f84011261206d57600080fd5b50813567ffffffffffffffff81111561208557600080fd5b602083019150836001820283011115610b0f57600080fd5b600082601f8301126120ae57600080fd5b81356120c16120bc8261283a565b612813565b915080825260208301602083018583830111156120dd57600080fd5b6120e88382846128f9565b50505092915050565b80356109f18161298c565b60006020828403121561210e57600080fd5b600061211a8484611fed565b949350505050565b6000806020838503121561213557600080fd5b823567ffffffffffffffff81111561214c57600080fd5b61215885828601611ff8565b92509250509250929050565b60006020828403121561217657600080fd5b600061211a8484612045565b6000806040838503121561219557600080fd5b60006121a18585612045565b92505060206121b285828601611fe2565b9150509250929050565b6000806000606084860312156121d157600080fd5b60006121dd8686612045565b93505060206121ee86828701611fe2565b92505060406121ff86828701611fe2565b9150509250925092565b60008060006060848603121561221e57600080fd5b600061222a8686612045565b935050602061223b86828701611fe2565b92505060406121ff8682870161203a565b6000806040838503121561225f57600080fd5b600061226b8585612045565b92505060206121b285828601612045565b60008060006060848603121561229157600080fd5b600061229d8686612045565b93505060206122ae86828701612045565b92505060406121ff86828701612045565b6000806000606084860312156122d457600080fd5b60006122e08686612045565b93505060206122f186828701612045565b92505060406121ff868287016120f1565b6000806040838503121561231557600080fd5b60006123218585612045565b92505060206121b285828601612050565b60008060006060848603121561234757600080fd5b60006123538686612045565b93505060206121ee86828701612050565b60008060006040848603121561237957600080fd5b60006123858686612045565b935050602084013567ffffffffffffffff8111156123a257600080fd5b6123ae8682870161205b565b92509250509250925092565b6000806000806000606086880312156123d257600080fd5b60006123de8888612045565b955050602086013567ffffffffffffffff8111156123fb57600080fd5b6124078882890161205b565b9450945050604086013567ffffffffffffffff81111561242657600080fd5b6124328882890161205b565b92509250509295509295909350565b6000806000806060858703121561245757600080fd5b60006124638787612045565b945050602061247487828801612045565b935050604085013567ffffffffffffffff81111561249157600080fd5b61249d8782880161205b565b95989497509550505050565b6000806000606084860312156124be57600080fd5b60006124ca8686612045565b93505060206124db86828701612045565b925050604084013567ffffffffffffffff8111156124f857600080fd5b6121ff8682870161209d565b60006020828403121561251657600080fd5b600061211a8484612050565b6000610c23838361261a565b612537816128e8565b82525050565b61253781612893565b600061255182612886565b61255b818561288a565b93508360208202850161256d85612880565b8060005b858110156125a7578484038952815161258a8582612522565b945061259583612880565b60209a909a0199925050600101612571565b5091979650505050505050565b6125378161289e565b61253781611fdf565b612537816128a3565b60006125db838561288a565b93506125e88385846128f9565b6125f183612935565b9093019392505050565b60006126078385610419565b93506126148385846128f9565b50500190565b600061262582612886565b61262f818561288a565b935061263f818560208601612905565b6125f181612935565b600061265382612886565b61265d8185610419565b935061266d818560208601612905565b9290920192915050565b6000612684602483610419565b7f696e74657266616365496d706c656d656e74657228627974657333322c62797481527f6573342900000000000000000000000000000000000000000000000000000000602082015260240192915050565b612537816128c8565b600061211a8284866125fb565b6000610c238284612648565b60006109f182612677565b602081016109f1828461253d565b602081016109f1828461252e565b60208082528101610c238184612546565b602081016109f182846125b4565b602081016109f182846125bd565b6040810161275a82856125bd565b610c2360208301846125bd565b602081016109f182846125c6565b6020808252810161211a8184866125cf565b60208082528101610c23818461261a565b604080825281016127a9818561261a565b9050610c2360208301846126d6565b606080825281016127c9818661261a565b90506127d860208301856126d6565b81810360408301526127ea818461261a565b95945050505050565b6040810161280182856125bd565b818103602083015261211a818461261a565b60405181810167ffffffffffffffff8111828210171561283257600080fd5b604052919050565b600067ffffffffffffffff82111561285157600080fd5b506020601f919091017fffffffffffffffffffffffffffffffffffffffffffffffffffffffffffffffe0160190565b60200190565b5190565b90815260200190565b6000610416826128cf565b151590565b7fffffffff000000000000000000000000000000000000000000000000000000001690565b61ffff1690565b73ffffffffffffffffffffffffffffffffffffffff1690565b600061041682600061041682612893565b82818337506000910152565b60005b83811015612920578181015183820152602001612908565b8381111561292f576000848401525b50505050565b601f017fffffffffffffffffffffffffffffffffffffffffffffffffffffffffffffffe01690565b61296681612893565b811461199757600080fd5b6129668161289e565b61296681611fdf565b612966816128a3565b612966816128c856fea365627a7a7231582082927c55ed80cd2c2b4af3ecca0340c755f0257fadbdd76a4c4b6458f1c8eefc6c6578706572696d656e74616cf564736f6c63430005110040",
  "linkReferences": {},
  "deployedLinkReferences": {}
}