{
  "_format": "hh-sol-artifact-1",
  "contractName": "Swap",
  "sourceName": "contracts/token/Swap.sol",
  "abi": [
    {
      "inputs": [
        {
          "internalType": "address",
          "name": "_yaxis",
          "type": "address"
        },
        {
          "internalType": "address",
          "name": "_yax",
          "type": "address"
        },
        {
          "internalType": "address",
          "name": "_syax",
          "type": "address"
        }
      ],
      "stateMutability": "nonpayable",
      "type": "constructor"
    },
    {
      "inputs": [],
      "name": "SYAX",
      "outputs": [
        {
          "internalType": "contract IERC20",
          "name": "",
          "type": "address"
        }
      ],
      "stateMutability": "view",
      "type": "function"
    },
    {
      "inputs": [],
      "name": "YAX",
      "outputs": [
        {
          "internalType": "contract IERC20",
          "name": "",
          "type": "address"
        }
      ],
      "stateMutability": "view",
      "type": "function"
    },
    {
      "inputs": [],
      "name": "YAXIS",
      "outputs": [
        {
          "internalType": "contract IERC20",
          "name": "",
          "type": "address"
        }
      ],
      "stateMutability": "view",
      "type": "function"
    },
    {
      "inputs": [],
      "name": "swap",
      "outputs": [],
      "stateMutability": "nonpayable",
      "type": "function"
    }
  ],
  "bytecode": "0x60e060405234801561001057600080fd5b506040516109b93803806109b98339818101604052606081101561003357600080fd5b50805160208201516040909201516001600160601b0319606092831b811660805292821b831660a052901b1660c05260805160601c60a05160601c60c05160601c6108fb6100be6000398061015052806101d75280610201528061046f52508060935280610293528061031a5280610348528061044b5250806103fa528061042752506108fb6000f3fe608060405234801561001057600080fd5b506004361061004c5760003560e01c80638119c06514610051578063a35c1a2d1461005b578063c6f461d01461007f578063fd982af014610087575b600080fd5b61005961008f565b005b610063610425565b604080516001600160a01b039092168252519081900360200190f35b610063610449565b61006361046d565b60007f00000000000000000000000000000000000000000000000000000000000000006001600160a01b03166370a08231306040518263ffffffff1660e01b815260040180826001600160a01b0316815260200191505060206040518083038186803b1580156100fe57600080fd5b505afa158015610112573d6000803e3d6000fd5b505050506040513d602081101561012857600080fd5b5051604080516370a0823160e01b815233600482015290519192506000916001600160a01b037f000000000000000000000000000000000000000000000000000000000000000016916370a08231916024808301926020929190829003018186803b15801561019657600080fd5b505afa1580156101aa573d6000803e3d6000fd5b505050506040513d60208110156101c057600080fd5b505190508015610273576101ff6001600160a01b037f000000000000000000000000000000000000000000000000000000000000000016333084610491565b7f00000000000000000000000000000000000000000000000000000000000000006001600160a01b031663e9fad8ee6040518163ffffffff1660e01b8152600401600060405180830381600087803b15801561025a57600080fd5b505af115801561026e573d6000803e3d6000fd5b505050505b604080516370a0823160e01b815233600482015290516001600160a01b037f000000000000000000000000000000000000000000000000000000000000000016916370a08231916024808301926020929190829003018186803b1580156102d957600080fd5b505afa1580156102ed573d6000803e3d6000fd5b505050506040513d602081101561030357600080fd5b505190508015610342576103426001600160a01b037f000000000000000000000000000000000000000000000000000000000000000016333084610491565b6103e5827f00000000000000000000000000000000000000000000000000000000000000006001600160a01b03166370a08231306040518263ffffffff1660e01b815260040180826001600160a01b0316815260200191505060206040518083038186803b1580156103b357600080fd5b505afa1580156103c7573d6000803e3d6000fd5b505050506040513d60208110156103dd57600080fd5b5051906104f1565b90508015610421576104216001600160a01b037f000000000000000000000000000000000000000000000000000000000000000016338361054e565b5050565b7f000000000000000000000000000000000000000000000000000000000000000081565b7f000000000000000000000000000000000000000000000000000000000000000081565b7f000000000000000000000000000000000000000000000000000000000000000081565b604080516001600160a01b0380861660248301528416604482015260648082018490528251808303909101815260849091019091526020810180516001600160e01b03166323b872dd60e01b1790526104eb9085906105a5565b50505050565b600082821115610548576040805162461bcd60e51b815260206004820152601e60248201527f536166654d6174683a207375627472616374696f6e206f766572666c6f770000604482015290519081900360640190fd5b50900390565b604080516001600160a01b038416602482015260448082018490528251808303909101815260649091019091526020810180516001600160e01b031663a9059cbb60e01b1790526105a09084906105a5565b505050565b60606105fa826040518060400160405280602081526020017f5361666545524332303a206c6f772d6c6576656c2063616c6c206661696c6564815250856001600160a01b03166106569092919063ffffffff16565b8051909150156105a05780806020019051602081101561061957600080fd5b50516105a05760405162461bcd60e51b815260040180806020018281038252602a81526020018061089c602a913960400191505060405180910390fd5b6060610665848460008561066f565b90505b9392505050565b6060824710156106b05760405162461bcd60e51b81526004018080602001828103825260268152602001806108766026913960400191505060405180910390fd5b6106b9856107cb565b61070a576040805162461bcd60e51b815260206004820152601d60248201527f416464726573733a2063616c6c20746f206e6f6e2d636f6e7472616374000000604482015290519081900360640190fd5b60006060866001600160a01b031685876040518082805190602001908083835b602083106107495780518252601f19909201916020918201910161072a565b6001836020036101000a03801982511681845116808217855250505050505090500191505060006040518083038185875af1925050503d80600081146107ab576040519150601f19603f3d011682016040523d82523d6000602084013e6107b0565b606091505b50915091506107c08282866107d1565b979650505050505050565b3b151590565b606083156107e0575081610668565b8251156107f05782518084602001fd5b8160405162461bcd60e51b81526004018080602001828103825283818151815260200191508051906020019080838360005b8381101561083a578181015183820152602001610822565b50505050905090810190601f1680156108675780820380516001836020036101000a031916815260200191505b509250505060405180910390fdfe416464726573733a20696e73756666696369656e742062616c616e636520666f722063616c6c5361666545524332303a204552433230206f7065726174696f6e20646964206e6f742073756363656564a2646970667358221220fd415a1b93ffda5bcaf0c34a7e3e0590c30d4d912d28d3399e1434630081c4ff64736f6c634300060c0033",
  "linkReferences": {},
  "deployedLinkReferences": {}
}