{
  "abi": [
    {
      "inputs": [],
      "payable": false,
      "stateMutability": "nonpayable",
      "type": "constructor"
    },
    {
      "anonymous": false,
      "inputs": [
        {
          "indexed": false,
          "internalType": "string",
          "name": "action",
          "type": "string"
        },
        {
          "indexed": false,
          "internalType": "bool",
          "name": "pauseState",
          "type": "bool"
        }
      ],
      "name": "ActionPaused",
      "type": "event"
    },
    {
      "anonymous": false,
      "inputs": [
        {
          "indexed": false,
          "internalType": "contract CToken",
          "name": "cToken",
          "type": "address"
        },
        {
          "indexed": false,
          "internalType": "string",
          "name": "action",
          "type": "string"
        },
        {
          "indexed": false,
          "internalType": "bool",
          "name": "pauseState",
          "type": "bool"
        }
      ],
      "name": "ActionPaused",
      "type": "event"
    },
    {
      "anonymous": false,
      "inputs": [
        {
          "indexed": true,
          "internalType": "contract CToken",
          "name": "cToken",
          "type": "address"
        },
        {
          "indexed": false,
          "internalType": "uint256",
          "name": "newSpeed",
          "type": "uint256"
        }
      ],
      "name": "CompSpeedUpdated",
      "type": "event"
    },
    {
      "anonymous": false,
      "inputs": [
        {
          "indexed": true,
          "internalType": "contract CToken",
          "name": "cToken",
          "type": "address"
        },
        {
          "indexed": true,
          "internalType": "address",
          "name": "borrower",
          "type": "address"
        },
        {
          "indexed": false,
          "internalType": "uint256",
          "name": "compDelta",
          "type": "uint256"
        },
        {
          "indexed": false,
          "internalType": "uint256",
          "name": "compBorrowIndex",
          "type": "uint256"
        }
      ],
      "name": "DistributedBorrowerComp",
      "type": "event"
    },
    {
      "anonymous": false,
      "inputs": [
        {
          "indexed": true,
          "internalType": "contract CToken",
          "name": "cToken",
          "type": "address"
        },
        {
          "indexed": true,
          "internalType": "address",
          "name": "supplier",
          "type": "address"
        },
        {
          "indexed": false,
          "internalType": "uint256",
          "name": "compDelta",
          "type": "uint256"
        },
        {
          "indexed": false,
          "internalType": "uint256",
          "name": "compSupplyIndex",
          "type": "uint256"
        }
      ],
      "name": "DistributedSupplierComp",
      "type": "event"
    },
    {
      "anonymous": false,
      "inputs": [
        {
          "indexed": false,
          "internalType": "uint256",
          "name": "error",
          "type": "uint256"
        },
        {
          "indexed": false,
          "internalType": "uint256",
          "name": "info",
          "type": "uint256"
        },
        {
          "indexed": false,
          "internalType": "uint256",
          "name": "detail",
          "type": "uint256"
        }
      ],
      "name": "Failure",
      "type": "event"
    },
    {
      "anonymous": false,
      "inputs": [
        {
          "indexed": false,
          "internalType": "contract CToken",
          "name": "cToken",
          "type": "address"
        },
        {
          "indexed": false,
          "internalType": "bool",
          "name": "isComped",
          "type": "bool"
        }
      ],
      "name": "MarketComped",
      "type": "event"
    },
    {
      "anonymous": false,
      "inputs": [
        {
          "indexed": false,
          "internalType": "contract CToken",
          "name": "cToken",
          "type": "address"
        },
        {
          "indexed": false,
          "internalType": "address",
          "name": "account",
          "type": "address"
        }
      ],
      "name": "MarketEntered",
      "type": "event"
    },
    {
      "anonymous": false,
      "inputs": [
        {
          "indexed": false,
          "internalType": "contract CToken",
          "name": "cToken",
          "type": "address"
        },
        {
          "indexed": false,
          "internalType": "address",
          "name": "account",
          "type": "address"
        }
      ],
      "name": "MarketExited",
      "type": "event"
    },
    {
      "anonymous": false,
      "inputs": [
        {
          "indexed": false,
          "internalType": "contract CToken",
          "name": "cToken",
          "type": "address"
        }
      ],
      "name": "MarketListed",
      "type": "event"
    },
    {
      "anonymous": false,
      "inputs": [
        {
          "indexed": false,
          "internalType": "uint256",
          "name": "oldCloseFactorMantissa",
          "type": "uint256"
        },
        {
          "indexed": false,
          "internalType": "uint256",
          "name": "newCloseFactorMantissa",
          "type": "uint256"
        }
      ],
      "name": "NewCloseFactor",
      "type": "event"
    },
    {
      "anonymous": false,
      "inputs": [
        {
          "indexed": false,
          "internalType": "contract CToken",
          "name": "cToken",
          "type": "address"
        },
        {
          "indexed": false,
          "internalType": "uint256",
          "name": "oldCollateralFactorMantissa",
          "type": "uint256"
        },
        {
          "indexed": false,
          "internalType": "uint256",
          "name": "newCollateralFactorMantissa",
          "type": "uint256"
        }
      ],
      "name": "NewCollateralFactor",
      "type": "event"
    },
    {
      "anonymous": false,
      "inputs": [
        {
          "indexed": false,
          "internalType": "uint256",
          "name": "oldCompRate",
          "type": "uint256"
        },
        {
          "indexed": false,
          "internalType": "uint256",
          "name": "newCompRate",
          "type": "uint256"
        }
      ],
      "name": "NewCompRate",
      "type": "event"
    },
    {
      "anonymous": false,
      "inputs": [
        {
          "indexed": false,
          "internalType": "uint256",
          "name": "oldLiquidationIncentiveMantissa",
          "type": "uint256"
        },
        {
          "indexed": false,
          "internalType": "uint256",
          "name": "newLiquidationIncentiveMantissa",
          "type": "uint256"
        }
      ],
      "name": "NewLiquidationIncentive",
      "type": "event"
    },
    {
      "anonymous": false,
      "inputs": [
        {
          "indexed": false,
          "internalType": "uint256",
          "name": "oldMaxAssets",
          "type": "uint256"
        },
        {
          "indexed": false,
          "internalType": "uint256",
          "name": "newMaxAssets",
          "type": "uint256"
        }
      ],
      "name": "NewMaxAssets",
      "type": "event"
    },
    {
      "anonymous": false,
      "inputs": [
        {
          "indexed": false,
          "internalType": "address",
          "name": "oldPauseGuardian",
          "type": "address"
        },
        {
          "indexed": false,
          "internalType": "address",
          "name": "newPauseGuardian",
          "type": "address"
        }
      ],
      "name": "NewPauseGuardian",
      "type": "event"
    },
    {
      "anonymous": false,
      "inputs": [
        {
          "indexed": false,
          "internalType": "contract PriceOracle",
          "name": "oldPriceOracle",
          "type": "address"
        },
        {
          "indexed": false,
          "internalType": "contract PriceOracle",
          "name": "newPriceOracle",
          "type": "address"
        }
      ],
      "name": "NewPriceOracle",
      "type": "event"
    },
    {
      "constant": false,
      "inputs": [
        {
          "internalType": "address[]",
          "name": "cTokens",
          "type": "address[]"
        }
      ],
      "name": "_addCompMarkets",
      "outputs": [],
      "payable": false,
      "stateMutability": "nonpayable",
      "type": "function"
    },
    {
      "constant": false,
      "inputs": [
        {
          "internalType": "contract Unitroller",
          "name": "unitroller",
          "type": "address"
        }
      ],
      "name": "_become",
      "outputs": [],
      "payable": false,
      "stateMutability": "nonpayable",
      "type": "function"
    },
    {
      "constant": true,
      "inputs": [],
      "name": "_borrowGuardianPaused",
      "outputs": [
        {
          "internalType": "bool",
          "name": "",
          "type": "bool"
        }
      ],
      "payable": false,
      "stateMutability": "view",
      "type": "function"
    },
    {
      "constant": false,
      "inputs": [
        {
          "internalType": "address",
          "name": "cToken",
          "type": "address"
        }
      ],
      "name": "_dropCompMarket",
      "outputs": [],
      "payable": false,
      "stateMutability": "nonpayable",
      "type": "function"
    },
    {
      "constant": true,
      "inputs": [],
      "name": "_mintGuardianPaused",
      "outputs": [
        {
          "internalType": "bool",
          "name": "",
          "type": "bool"
        }
      ],
      "payable": false,
      "stateMutability": "view",
      "type": "function"
    },
    {
      "constant": false,
      "inputs": [
        {
          "internalType": "contract CToken",
          "name": "cToken",
          "type": "address"
        },
        {
          "internalType": "bool",
          "name": "state",
          "type": "bool"
        }
      ],
      "name": "_setBorrowPaused",
      "outputs": [
        {
          "internalType": "bool",
          "name": "",
          "type": "bool"
        }
      ],
      "payable": false,
      "stateMutability": "nonpayable",
      "type": "function"
    },
    {
      "constant": false,
      "inputs": [
        {
          "internalType": "uint256",
          "name": "newCloseFactorMantissa",
          "type": "uint256"
        }
      ],
      "name": "_setCloseFactor",
      "outputs": [
        {
          "internalType": "uint256",
          "name": "",
          "type": "uint256"
        }
      ],
      "payable": false,
      "stateMutability": "nonpayable",
      "type": "function"
    },
    {
      "constant": false,
      "inputs": [
        {
          "internalType": "contract CToken",
          "name": "cToken",
          "type": "address"
        },
        {
          "internalType": "uint256",
          "name": "newCollateralFactorMantissa",
          "type": "uint256"
        }
      ],
      "name": "_setCollateralFactor",
      "outputs": [
        {
          "internalType": "uint256",
          "name": "",
          "type": "uint256"
        }
      ],
      "payable": false,
      "stateMutability": "nonpayable",
      "type": "function"
    },
    {
      "constant": false,
      "inputs": [
        {
          "internalType": "uint256",
          "name": "compRate_",
          "type": "uint256"
        }
      ],
      "name": "_setCompRate",
      "outputs": [],
      "payable": false,
      "stateMutability": "nonpayable",
      "type": "function"
    },
    {
      "constant": false,
      "inputs": [
        {
          "internalType": "uint256",
          "name": "newLiquidationIncentiveMantissa",
          "type": "uint256"
        }
      ],
      "name": "_setLiquidationIncentive",
      "outputs": [
        {
          "internalType": "uint256",
          "name": "",
          "type": "uint256"
        }
      ],
      "payable": false,
      "stateMutability": "nonpayable",
      "type": "function"
    },
    {
      "constant": false,
      "inputs": [
        {
          "internalType": "uint256",
          "name": "newMaxAssets",
          "type": "uint256"
        }
      ],
      "name": "_setMaxAssets",
      "outputs": [
        {
          "internalType": "uint256",
          "name": "",
          "type": "uint256"
        }
      ],
      "payable": false,
      "stateMutability": "nonpayable",
      "type": "function"
    },
    {
      "constant": false,
      "inputs": [
        {
          "internalType": "contract CToken",
          "name": "cToken",
          "type": "address"
        },
        {
          "internalType": "bool",
          "name": "state",
          "type": "bool"
        }
      ],
      "name": "_setMintPaused",
      "outputs": [
        {
          "internalType": "bool",
          "name": "",
          "type": "bool"
        }
      ],
      "payable": false,
      "stateMutability": "nonpayable",
      "type": "function"
    },
    {
      "constant": false,
      "inputs": [
        {
          "internalType": "address",
          "name": "newPauseGuardian",
          "type": "address"
        }
      ],
      "name": "_setPauseGuardian",
      "outputs": [
        {
          "internalType": "uint256",
          "name": "",
          "type": "uint256"
        }
      ],
      "payable": false,
      "stateMutability": "nonpayable",
      "type": "function"
    },
    {
      "constant": false,
      "inputs": [
        {
          "internalType": "contract PriceOracle",
          "name": "newOracle",
          "type": "address"
        }
      ],
      "name": "_setPriceOracle",
      "outputs": [
        {
          "internalType": "uint256",
          "name": "",
          "type": "uint256"
        }
      ],
      "payable": false,
      "stateMutability": "nonpayable",
      "type": "function"
    },
    {
      "constant": false,
      "inputs": [
        {
          "internalType": "bool",
          "name": "state",
          "type": "bool"
        }
      ],
      "name": "_setSeizePaused",
      "outputs": [
        {
          "internalType": "bool",
          "name": "",
          "type": "bool"
        }
      ],
      "payable": false,
      "stateMutability": "nonpayable",
      "type": "function"
    },
    {
      "constant": false,
      "inputs": [
        {
          "internalType": "bool",
          "name": "state",
          "type": "bool"
        }
      ],
      "name": "_setTransferPaused",
      "outputs": [
        {
          "internalType": "bool",
          "name": "",
          "type": "bool"
        }
      ],
      "payable": false,
      "stateMutability": "nonpayable",
      "type": "function"
    },
    {
      "constant": false,
      "inputs": [
        {
          "internalType": "contract CToken",
          "name": "cToken",
          "type": "address"
        }
      ],
      "name": "_supportMarket",
      "outputs": [
        {
          "internalType": "uint256",
          "name": "",
          "type": "uint256"
        }
      ],
      "payable": false,
      "stateMutability": "nonpayable",
      "type": "function"
    },
    {
      "constant": true,
      "inputs": [
        {
          "internalType": "address",
          "name": "",
          "type": "address"
        },
        {
          "internalType": "uint256",
          "name": "",
          "type": "uint256"
        }
      ],
      "name": "accountAssets",
      "outputs": [
        {
          "internalType": "contract CToken",
          "name": "",
          "type": "address"
        }
      ],
      "payable": false,
      "stateMutability": "view",
      "type": "function"
    },
    {
      "constant": true,
      "inputs": [],
      "name": "admin",
      "outputs": [
        {
          "internalType": "address",
          "name": "",
          "type": "address"
        }
      ],
      "payable": false,
      "stateMutability": "view",
      "type": "function"
    },
    {
      "constant": true,
      "inputs": [
        {
          "internalType": "uint256",
          "name": "",
          "type": "uint256"
        }
      ],
      "name": "allMarkets",
      "outputs": [
        {
          "internalType": "contract CToken",
          "name": "",
          "type": "address"
        }
      ],
      "payable": false,
      "stateMutability": "view",
      "type": "function"
    },
    {
      "constant": false,
      "inputs": [
        {
          "internalType": "address",
          "name": "cToken",
          "type": "address"
        },
        {
          "internalType": "address",
          "name": "borrower",
          "type": "address"
        },
        {
          "internalType": "uint256",
          "name": "borrowAmount",
          "type": "uint256"
        }
      ],
      "name": "borrowAllowed",
      "outputs": [
        {
          "internalType": "uint256",
          "name": "",
          "type": "uint256"
        }
      ],
      "payable": false,
      "stateMutability": "nonpayable",
      "type": "function"
    },
    {
      "constant": true,
      "inputs": [
        {
          "internalType": "address",
          "name": "",
          "type": "address"
        }
      ],
      "name": "borrowGuardianPaused",
      "outputs": [
        {
          "internalType": "bool",
          "name": "",
          "type": "bool"
        }
      ],
      "payable": false,
      "stateMutability": "view",
      "type": "function"
    },
    {
      "constant": false,
      "inputs": [
        {
          "internalType": "address",
          "name": "cToken",
          "type": "address"
        },
        {
          "internalType": "address",
          "name": "borrower",
          "type": "address"
        },
        {
          "internalType": "uint256",
          "name": "borrowAmount",
          "type": "uint256"
        }
      ],
      "name": "borrowVerify",
      "outputs": [],
      "payable": false,
      "stateMutability": "nonpayable",
      "type": "function"
    },
    {
      "constant": true,
      "inputs": [
        {
          "internalType": "address",
          "name": "account",
          "type": "address"
        },
        {
          "internalType": "contract CToken",
          "name": "cToken",
          "type": "address"
        }
      ],
      "name": "checkMembership",
      "outputs": [
        {
          "internalType": "bool",
          "name": "",
          "type": "bool"
        }
      ],
      "payable": false,
      "stateMutability": "view",
      "type": "function"
    },
    {
      "constant": false,
      "inputs": [
        {
          "internalType": "address",
          "name": "holder",
          "type": "address"
        },
        {
          "internalType": "contract CToken[]",
          "name": "cTokens",
          "type": "address[]"
        }
      ],
      "name": "claimComp",
      "outputs": [],
      "payable": false,
      "stateMutability": "nonpayable",
      "type": "function"
    },
    {
      "constant": false,
      "inputs": [
        {
          "internalType": "address[]",
          "name": "holders",
          "type": "address[]"
        },
        {
          "internalType": "contract CToken[]",
          "name": "cTokens",
          "type": "address[]"
        },
        {
          "internalType": "bool",
          "name": "borrowers",
          "type": "bool"
        },
        {
          "internalType": "bool",
          "name": "suppliers",
          "type": "bool"
        }
      ],
      "name": "claimComp",
      "outputs": [],
      "payable": false,
      "stateMutability": "nonpayable",
      "type": "function"
    },
    {
      "constant": false,
      "inputs": [
        {
          "internalType": "address",
          "name": "holder",
          "type": "address"
        }
      ],
      "name": "claimComp",
      "outputs": [],
      "payable": false,
      "stateMutability": "nonpayable",
      "type": "function"
    },
    {
      "constant": true,
      "inputs": [],
      "name": "closeFactorMantissa",
      "outputs": [
        {
          "internalType": "uint256",
          "name": "",
          "type": "uint256"
        }
      ],
      "payable": false,
      "stateMutability": "view",
      "type": "function"
    },
    {
      "constant": true,
      "inputs": [
        {
          "internalType": "address",
          "name": "",
          "type": "address"
        }
      ],
      "name": "compAccrued",
      "outputs": [
        {
          "internalType": "uint256",
          "name": "",
          "type": "uint256"
        }
      ],
      "payable": false,
      "stateMutability": "view",
      "type": "function"
    },
    {
      "constant": true,
      "inputs": [
        {
          "internalType": "address",
          "name": "",
          "type": "address"
        }
      ],
      "name": "compBorrowState",
      "outputs": [
        {
          "internalType": "uint224",
          "name": "index",
          "type": "uint224"
        },
        {
          "internalType": "uint32",
          "name": "block",
          "type": "uint32"
        }
      ],
      "payable": false,
      "stateMutability": "view",
      "type": "function"
    },
    {
      "constant": true,
      "inputs": [
        {
          "internalType": "address",
          "name": "",
          "type": "address"
        },
        {
          "internalType": "address",
          "name": "",
          "type": "address"
        }
      ],
      "name": "compBorrowerIndex",
      "outputs": [
        {
          "internalType": "uint256",
          "name": "",
          "type": "uint256"
        }
      ],
      "payable": false,
      "stateMutability": "view",
      "type": "function"
    },
    {
      "constant": true,
      "inputs": [],
      "name": "compClaimThreshold",
      "outputs": [
        {
          "internalType": "uint256",
          "name": "",
          "type": "uint256"
        }
      ],
      "payable": false,
      "stateMutability": "view",
      "type": "function"
    },
    {
      "constant": true,
      "inputs": [],
      "name": "compInitialIndex",
      "outputs": [
        {
          "internalType": "uint224",
          "name": "",
          "type": "uint224"
        }
      ],
      "payable": false,
      "stateMutability": "view",
      "type": "function"
    },
    {
      "constant": true,
      "inputs": [],
      "name": "compRate",
      "outputs": [
        {
          "internalType": "uint256",
          "name": "",
          "type": "uint256"
        }
      ],
      "payable": false,
      "stateMutability": "view",
      "type": "function"
    },
    {
      "constant": true,
      "inputs": [
        {
          "internalType": "address",
          "name": "",
          "type": "address"
        }
      ],
      "name": "compSpeeds",
      "outputs": [
        {
          "internalType": "uint256",
          "name": "",
          "type": "uint256"
        }
      ],
      "payable": false,
      "stateMutability": "view",
      "type": "function"
    },
    {
      "constant": true,
      "inputs": [
        {
          "internalType": "address",
          "name": "",
          "type": "address"
        },
        {
          "internalType": "address",
          "name": "",
          "type": "address"
        }
      ],
      "name": "compSupplierIndex",
      "outputs": [
        {
          "internalType": "uint256",
          "name": "",
          "type": "uint256"
        }
      ],
      "payable": false,
      "stateMutability": "view",
      "type": "function"
    },
    {
      "constant": true,
      "inputs": [
        {
          "internalType": "address",
          "name": "",
          "type": "address"
        }
      ],
      "name": "compSupplyState",
      "outputs": [
        {
          "internalType": "uint224",
          "name": "index",
          "type": "uint224"
        },
        {
          "internalType": "uint32",
          "name": "block",
          "type": "uint32"
        }
      ],
      "payable": false,
      "stateMutability": "view",
      "type": "function"
    },
    {
      "constant": true,
      "inputs": [],
      "name": "comptrollerImplementation",
      "outputs": [
        {
          "internalType": "address",
          "name": "",
          "type": "address"
        }
      ],
      "payable": false,
      "stateMutability": "view",
      "type": "function"
    },
    {
      "constant": false,
      "inputs": [
        {
          "internalType": "address[]",
          "name": "cTokens",
          "type": "address[]"
        }
      ],
      "name": "enterMarkets",
      "outputs": [
        {
          "internalType": "uint256[]",
          "name": "",
          "type": "uint256[]"
        }
      ],
      "payable": false,
      "stateMutability": "nonpayable",
      "type": "function"
    },
    {
      "constant": false,
      "inputs": [
        {
          "internalType": "address",
          "name": "cTokenAddress",
          "type": "address"
        }
      ],
      "name": "exitMarket",
      "outputs": [
        {
          "internalType": "uint256",
          "name": "",
          "type": "uint256"
        }
      ],
      "payable": false,
      "stateMutability": "nonpayable",
      "type": "function"
    },
    {
      "constant": true,
      "inputs": [
        {
          "internalType": "address",
          "name": "account",
          "type": "address"
        }
      ],
      "name": "getAccountLiquidity",
      "outputs": [
        {
          "internalType": "uint256",
          "name": "",
          "type": "uint256"
        },
        {
          "internalType": "uint256",
          "name": "",
          "type": "uint256"
        },
        {
          "internalType": "uint256",
          "name": "",
          "type": "uint256"
        }
      ],
      "payable": false,
      "stateMutability": "view",
      "type": "function"
    },
    {
      "constant": true,
      "inputs": [],
      "name": "getAllMarkets",
      "outputs": [
        {
          "internalType": "contract CToken[]",
          "name": "",
          "type": "address[]"
        }
      ],
      "payable": false,
      "stateMutability": "view",
      "type": "function"
    },
    {
      "constant": true,
      "inputs": [
        {
          "internalType": "address",
          "name": "account",
          "type": "address"
        }
      ],
      "name": "getAssetsIn",
      "outputs": [
        {
          "internalType": "contract CToken[]",
          "name": "",
          "type": "address[]"
        }
      ],
      "payable": false,
      "stateMutability": "view",
      "type": "function"
    },
    {
      "constant": true,
      "inputs": [],
      "name": "getBlockNumber",
      "outputs": [
        {
          "internalType": "uint256",
          "name": "",
          "type": "uint256"
        }
      ],
      "payable": false,
      "stateMutability": "view",
      "type": "function"
    },
    {
      "constant": true,
      "inputs": [],
      "name": "getCompAddress",
      "outputs": [
        {
          "internalType": "address",
          "name": "",
          "type": "address"
        }
      ],
      "payable": false,
      "stateMutability": "view",
      "type": "function"
    },
    {
      "constant": true,
      "inputs": [
        {
          "internalType": "address",
          "name": "account",
          "type": "address"
        },
        {
          "internalType": "address",
          "name": "cTokenModify",
          "type": "address"
        },
        {
          "internalType": "uint256",
          "name": "redeemTokens",
          "type": "uint256"
        },
        {
          "internalType": "uint256",
          "name": "borrowAmount",
          "type": "uint256"
        }
      ],
      "name": "getHypotheticalAccountLiquidity",
      "outputs": [
        {
          "internalType": "uint256",
          "name": "",
          "type": "uint256"
        },
        {
          "internalType": "uint256",
          "name": "",
          "type": "uint256"
        },
        {
          "internalType": "uint256",
          "name": "",
          "type": "uint256"
        }
      ],
      "payable": false,
      "stateMutability": "view",
      "type": "function"
    },
    {
      "constant": true,
      "inputs": [],
      "name": "isComptroller",
      "outputs": [
        {
          "internalType": "bool",
          "name": "",
          "type": "bool"
        }
      ],
      "payable": false,
      "stateMutability": "view",
      "type": "function"
    },
    {
      "constant": false,
      "inputs": [
        {
          "internalType": "address",
          "name": "cTokenBorrowed",
          "type": "address"
        },
        {
          "internalType": "address",
          "name": "cTokenCollateral",
          "type": "address"
        },
        {
          "internalType": "address",
          "name": "liquidator",
          "type": "address"
        },
        {
          "internalType": "address",
          "name": "borrower",
          "type": "address"
        },
        {
          "internalType": "uint256",
          "name": "repayAmount",
          "type": "uint256"
        }
      ],
      "name": "liquidateBorrowAllowed",
      "outputs": [
        {
          "internalType": "uint256",
          "name": "",
          "type": "uint256"
        }
      ],
      "payable": false,
      "stateMutability": "nonpayable",
      "type": "function"
    },
    {
      "constant": false,
      "inputs": [
        {
          "internalType": "address",
          "name": "cTokenBorrowed",
          "type": "address"
        },
        {
          "internalType": "address",
          "name": "cTokenCollateral",
          "type": "address"
        },
        {
          "internalType": "address",
          "name": "liquidator",
          "type": "address"
        },
        {
          "internalType": "address",
          "name": "borrower",
          "type": "address"
        },
        {
          "internalType": "uint256",
          "name": "actualRepayAmount",
          "type": "uint256"
        },
        {
          "internalType": "uint256",
          "name": "seizeTokens",
          "type": "uint256"
        }
      ],
      "name": "liquidateBorrowVerify",
      "outputs": [],
      "payable": false,
      "stateMutability": "nonpayable",
      "type": "function"
    },
    {
      "constant": true,
      "inputs": [
        {
          "internalType": "address",
          "name": "cTokenBorrowed",
          "type": "address"
        },
        {
          "internalType": "address",
          "name": "cTokenCollateral",
          "type": "address"
        },
        {
          "internalType": "uint256",
          "name": "actualRepayAmount",
          "type": "uint256"
        }
      ],
      "name": "liquidateCalculateSeizeTokens",
      "outputs": [
        {
          "internalType": "uint256",
          "name": "",
          "type": "uint256"
        },
        {
          "internalType": "uint256",
          "name": "",
          "type": "uint256"
        }
      ],
      "payable": false,
      "stateMutability": "view",
      "type": "function"
    },
    {
      "constant": true,
      "inputs": [],
      "name": "liquidationIncentiveMantissa",
      "outputs": [
        {
          "internalType": "uint256",
          "name": "",
          "type": "uint256"
        }
      ],
      "payable": false,
      "stateMutability": "view",
      "type": "function"
    },
    {
      "constant": true,
      "inputs": [
        {
          "internalType": "address",
          "name": "",
          "type": "address"
        }
      ],
      "name": "markets",
      "outputs": [
        {
          "internalType": "bool",
          "name": "isListed",
          "type": "bool"
        },
        {
          "internalType": "uint256",
          "name": "collateralFactorMantissa",
          "type": "uint256"
        },
        {
          "internalType": "bool",
          "name": "isComped",
          "type": "bool"
        }
      ],
      "payable": false,
      "stateMutability": "view",
      "type": "function"
    },
    {
      "constant": true,
      "inputs": [],
      "name": "maxAssets",
      "outputs": [
        {
          "internalType": "uint256",
          "name": "",
          "type": "uint256"
        }
      ],
      "payable": false,
      "stateMutability": "view",
      "type": "function"
    },
    {
      "constant": false,
      "inputs": [
        {
          "internalType": "address",
          "name": "cToken",
          "type": "address"
        },
        {
          "internalType": "address",
          "name": "minter",
          "type": "address"
        },
        {
          "internalType": "uint256",
          "name": "mintAmount",
          "type": "uint256"
        }
      ],
      "name": "mintAllowed",
      "outputs": [
        {
          "internalType": "uint256",
          "name": "",
          "type": "uint256"
        }
      ],
      "payable": false,
      "stateMutability": "nonpayable",
      "type": "function"
    },
    {
      "constant": true,
      "inputs": [
        {
          "internalType": "address",
          "name": "",
          "type": "address"
        }
      ],
      "name": "mintGuardianPaused",
      "outputs": [
        {
          "internalType": "bool",
          "name": "",
          "type": "bool"
        }
      ],
      "payable": false,
      "stateMutability": "view",
      "type": "function"
    },
    {
      "constant": false,
      "inputs": [
        {
          "internalType": "address",
          "name": "cToken",
          "type": "address"
        },
        {
          "internalType": "address",
          "name": "minter",
          "type": "address"
        },
        {
          "internalType": "uint256",
          "name": "actualMintAmount",
          "type": "uint256"
        },
        {
          "internalType": "uint256",
          "name": "mintTokens",
          "type": "uint256"
        }
      ],
      "name": "mintVerify",
      "outputs": [],
      "payable": false,
      "stateMutability": "nonpayable",
      "type": "function"
    },
    {
      "constant": true,
      "inputs": [],
      "name": "oracle",
      "outputs": [
        {
          "internalType": "contract PriceOracle",
          "name": "",
          "type": "address"
        }
      ],
      "payable": false,
      "stateMutability": "view",
      "type": "function"
    },
    {
      "constant": true,
      "inputs": [],
      "name": "pauseGuardian",
      "outputs": [
        {
          "internalType": "address",
          "name": "",
          "type": "address"
        }
      ],
      "payable": false,
      "stateMutability": "view",
      "type": "function"
    },
    {
      "constant": true,
      "inputs": [],
      "name": "pendingAdmin",
      "outputs": [
        {
          "internalType": "address",
          "name": "",
          "type": "address"
        }
      ],
      "payable": false,
      "stateMutability": "view",
      "type": "function"
    },
    {
      "constant": true,
      "inputs": [],
      "name": "pendingComptrollerImplementation",
      "outputs": [
        {
          "internalType": "address",
          "name": "",
          "type": "address"
        }
      ],
      "payable": false,
      "stateMutability": "view",
      "type": "function"
    },
    {
      "constant": false,
      "inputs": [
        {
          "internalType": "address",
          "name": "cToken",
          "type": "address"
        },
        {
          "internalType": "address",
          "name": "redeemer",
          "type": "address"
        },
        {
          "internalType": "uint256",
          "name": "redeemTokens",
          "type": "uint256"
        }
      ],
      "name": "redeemAllowed",
      "outputs": [
        {
          "internalType": "uint256",
          "name": "",
          "type": "uint256"
        }
      ],
      "payable": false,
      "stateMutability": "nonpayable",
      "type": "function"
    },
    {
      "constant": false,
      "inputs": [
        {
          "internalType": "address",
          "name": "cToken",
          "type": "address"
        },
        {
          "internalType": "address",
          "name": "redeemer",
          "type": "address"
        },
        {
          "internalType": "uint256",
          "name": "redeemAmount",
          "type": "uint256"
        },
        {
          "internalType": "uint256",
          "name": "redeemTokens",
          "type": "uint256"
        }
      ],
      "name": "redeemVerify",
      "outputs": [],
      "payable": false,
      "stateMutability": "nonpayable",
      "type": "function"
    },
    {
      "constant": false,
      "inputs": [],
      "name": "refreshCompSpeeds",
      "outputs": [],
      "payable": false,
      "stateMutability": "nonpayable",
      "type": "function"
    },
    {
      "constant": false,
      "inputs": [
        {
          "internalType": "address",
          "name": "cToken",
          "type": "address"
        },
        {
          "internalType": "address",
          "name": "payer",
          "type": "address"
        },
        {
          "internalType": "address",
          "name": "borrower",
          "type": "address"
        },
        {
          "internalType": "uint256",
          "name": "repayAmount",
          "type": "uint256"
        }
      ],
      "name": "repayBorrowAllowed",
      "outputs": [
        {
          "internalType": "uint256",
          "name": "",
          "type": "uint256"
        }
      ],
      "payable": false,
      "stateMutability": "nonpayable",
      "type": "function"
    },
    {
      "constant": false,
      "inputs": [
        {
          "internalType": "address",
          "name": "cToken",
          "type": "address"
        },
        {
          "internalType": "address",
          "name": "payer",
          "type": "address"
        },
        {
          "internalType": "address",
          "name": "borrower",
          "type": "address"
        },
        {
          "internalType": "uint256",
          "name": "actualRepayAmount",
          "type": "uint256"
        },
        {
          "internalType": "uint256",
          "name": "borrowerIndex",
          "type": "uint256"
        }
      ],
      "name": "repayBorrowVerify",
      "outputs": [],
      "payable": false,
      "stateMutability": "nonpayable",
      "type": "function"
    },
    {
      "constant": false,
      "inputs": [
        {
          "internalType": "address",
          "name": "cTokenCollateral",
          "type": "address"
        },
        {
          "internalType": "address",
          "name": "cTokenBorrowed",
          "type": "address"
        },
        {
          "internalType": "address",
          "name": "liquidator",
          "type": "address"
        },
        {
          "internalType": "address",
          "name": "borrower",
          "type": "address"
        },
        {
          "internalType": "uint256",
          "name": "seizeTokens",
          "type": "uint256"
        }
      ],
      "name": "seizeAllowed",
      "outputs": [
        {
          "internalType": "uint256",
          "name": "",
          "type": "uint256"
        }
      ],
      "payable": false,
      "stateMutability": "nonpayable",
      "type": "function"
    },
    {
      "constant": true,
      "inputs": [],
      "name": "seizeGuardianPaused",
      "outputs": [
        {
          "internalType": "bool",
          "name": "",
          "type": "bool"
        }
      ],
      "payable": false,
      "stateMutability": "view",
      "type": "function"
    },
    {
      "constant": false,
      "inputs": [
        {
          "internalType": "address",
          "name": "cTokenCollateral",
          "type": "address"
        },
        {
          "internalType": "address",
          "name": "cTokenBorrowed",
          "type": "address"
        },
        {
          "internalType": "address",
          "name": "liquidator",
          "type": "address"
        },
        {
          "internalType": "address",
          "name": "borrower",
          "type": "address"
        },
        {
          "internalType": "uint256",
          "name": "seizeTokens",
          "type": "uint256"
        }
      ],
      "name": "seizeVerify",
      "outputs": [],
      "payable": false,
      "stateMutability": "nonpayable",
      "type": "function"
    },
    {
      "constant": false,
      "inputs": [
        {
          "internalType": "address",
          "name": "cToken",
          "type": "address"
        },
        {
          "internalType": "address",
          "name": "src",
          "type": "address"
        },
        {
          "internalType": "address",
          "name": "dst",
          "type": "address"
        },
        {
          "internalType": "uint256",
          "name": "transferTokens",
          "type": "uint256"
        }
      ],
      "name": "transferAllowed",
      "outputs": [
        {
          "internalType": "uint256",
          "name": "",
          "type": "uint256"
        }
      ],
      "payable": false,
      "stateMutability": "nonpayable",
      "type": "function"
    },
    {
      "constant": true,
      "inputs": [],
      "name": "transferGuardianPaused",
      "outputs": [
        {
          "internalType": "bool",
          "name": "",
          "type": "bool"
        }
      ],
      "payable": false,
      "stateMutability": "view",
      "type": "function"
    },
    {
      "constant": false,
      "inputs": [
        {
          "internalType": "address",
          "name": "cToken",
          "type": "address"
        },
        {
          "internalType": "address",
          "name": "src",
          "type": "address"
        },
        {
          "internalType": "address",
          "name": "dst",
          "type": "address"
        },
        {
          "internalType": "uint256",
          "name": "transferTokens",
          "type": "uint256"
        }
      ],
      "name": "transferVerify",
      "outputs": [],
      "payable": false,
      "stateMutability": "nonpayable",
      "type": "function"
    }
  ],
  "bytecode": "608060405234801561001057600080fd5b50600080546001600160a01b03191633179055615a4980620000336000396000f3fe608060405234801561001057600080fd5b506004361061041c5760003560e01c8063731f0c2b1161022b578063bdcdc25811610130578063dce15449116100b8578063e875544611610087578063e8755446146110ca578063e9af0292146110d2578063eabe7d91146110f8578063ede4edd01461112e578063f851a440146111545761041c565b8063dce1544914611062578063dcfbc0c71461108e578063e4028eee14611096578063e6653f3d146110c25761041c565b8063cc7ebdc4116100ff578063cc7ebdc414610f02578063ce485c5e14610f28578063d02f735114610fc9578063d9226ced1461100f578063da3d454c1461102c5761041c565b8063bdcdc25814610da8578063c299823814610de4578063c488847b14610e85578063ca0af04314610ed45761041c565b80639d1b5a0a116101b3578063abfceffc11610182578063abfceffc14610cec578063ac0b0bb714610d62578063b0772d0b14610d6a578063b21be7fd14610d72578063bb82aa5e14610da05761041c565b80639d1b5a0a14610c92578063a76b3fda14610c9a578063a7f0e23114610cc0578063aa90075414610ce45761041c565b80638c57804e116101fa5780638c57804e14610bcf5780638e8f294b14610bf55780638ebf636414610c3d578063929fe9a114610c5c57806394b2294b14610c8a5761041c565b8063731f0c2b14610b91578063747026c914610bb75780637dc0d1d014610bbf57806387f7630314610bc75761041c565b80634ada90af116103315780635ec88c79116102b95780636a491112116102885780636a49111214610a7e5780636a56947e14610a9b5780636b79c38d14610ad75780636d154ea514610b255780636d35bf9114610b4b5761041c565b80635ec88c79146108c05780635f5af1aa146108e65780635fc7e71e1461090c5780636810dfa6146109525761041c565b80634fd42e17116103005780634fd42e17146107ee57806351dff9891461080b57806352d84d1e1461084757806355ee1fe1146108645780635c7786051461088a5761041c565b80634ada90af1461074e5780634d8e5037146107565780634e79238f1461075e5780634ef4c3e1146107b85761041c565b806326782247116103b45780633bcf7ec1116103835780633bcf7ec1146106885780633c94786f146106b657806341c728b9146106be57806342cbb15c146106fa57806347ef3b3b146107025761041c565b8063267822471461061e5780632d70db7814610626578063317b0b77146106455780633aa729b4146106625761041c565b80631d7b33d7116103f05780631d7b33d7146105445780631ededc911461057c57806324008a62146105be57806324a3d622146105fa5761041c565b80627e3dd21461042157806318c882a51461043d5780631c3db2e01461046b5780631d504dc61461051e575b600080fd5b61042961115c565b604080519115158252519081900360200190f35b6104296004803603604081101561045357600080fd5b506001600160a01b0381351690602001351515611161565b61051c6004803603604081101561048157600080fd5b6001600160a01b038235169190810190604081016020820135600160201b8111156104ab57600080fd5b8201836020820111156104bd57600080fd5b803590602001918460208302840111600160201b831117156104de57600080fd5b919080806020026020016040519081016040528093929190818152602001838360200280828437600092019190915250929550611301945050505050565b005b61051c6004803603602081101561053457600080fd5b50356001600160a01b0316611363565b61056a6004803603602081101561055a57600080fd5b50356001600160a01b03166114c2565b60408051918252519081900360200190f35b61051c600480360360a081101561059257600080fd5b506001600160a01b038135811691602081013582169160408201351690606081013590608001356114d4565b61056a600480360360808110156105d457600080fd5b506001600160a01b038135811691602081013582169160408201351690606001356114db565b6106026115a4565b604080516001600160a01b039092168252519081900360200190f35b6106026115b3565b6104296004803603602081101561063c57600080fd5b503515156115c2565b61056a6004803603602081101561065b57600080fd5b50356116fc565b61051c6004803603602081101561067857600080fd5b50356001600160a01b031661180d565b6104296004803603604081101561069e57600080fd5b506001600160a01b038135169060200135151561193e565b610429611ad9565b61051c600480360360808110156106d457600080fd5b506001600160a01b03813581169160208101359091169060408101359060600135611ae9565b61056a611aef565b61051c600480360360c081101561071857600080fd5b506001600160a01b0381358116916020810135821691604082013581169160608101359091169060808101359060a00135611af4565b61056a611afc565b61051c611b02565b61079a6004803603608081101561077457600080fd5b506001600160a01b03813581169160208101359091169060408101359060600135611b4a565b60408051938452602084019290925282820152519081900360600190f35b61056a600480360360608110156107ce57600080fd5b506001600160a01b03813581169160208101359091169060400135611b84565b61056a6004803603602081101561080457600080fd5b5035611c2f565b61051c6004803603608081101561082157600080fd5b506001600160a01b03813581169160208101359091169060408101359060600135611d23565b6106026004803603602081101561085d57600080fd5b5035611d77565b61056a6004803603602081101561087a57600080fd5b50356001600160a01b0316611d9e565b61051c600480360360608110156108a057600080fd5b506001600160a01b03813581169160208101359091169060400135611e25565b61079a600480360360208110156108d657600080fd5b50356001600160a01b0316611e2a565b61056a600480360360208110156108fc57600080fd5b50356001600160a01b0316611e5f565b61056a600480360360a081101561092257600080fd5b506001600160a01b0381358116916020810135821691604082013581169160608101359091169060800135611ee3565b61051c6004803603608081101561096857600080fd5b810190602081018135600160201b81111561098257600080fd5b82018360208201111561099457600080fd5b803590602001918460208302840111600160201b831117156109b557600080fd5b9190808060200260200160405190810160405280939291908181526020018383602002808284376000920191909152509295949360208101935035915050600160201b811115610a0457600080fd5b820183602082011115610a1657600080fd5b803590602001918460208302840111600160201b83111715610a3757600080fd5b91908080602002602001604051908101604052809392919081815260200183836020028082843760009201919091525092955050505080351515915060200135151561206a565b61051c60048036036020811015610a9457600080fd5b5035612213565b61051c60048036036080811015610ab157600080fd5b506001600160a01b03813581169160208101358216916040820135169060600135611ae9565b610afd60048036036020811015610aed57600080fd5b50356001600160a01b03166122b7565b604080516001600160e01b03909316835263ffffffff90911660208301528051918290030190f35b61042960048036036020811015610b3b57600080fd5b50356001600160a01b03166122e1565b61051c600480360360a0811015610b6157600080fd5b506001600160a01b03813581169160208101358216916040820135811691606081013590911690608001356114d4565b61042960048036036020811015610ba757600080fd5b50356001600160a01b03166122f6565b61056a61230b565b610602612316565b610429612325565b610afd60048036036020811015610be557600080fd5b50356001600160a01b0316612335565b610c1b60048036036020811015610c0b57600080fd5b50356001600160a01b031661235f565b6040805193151584526020840192909252151582820152519081900360600190f35b61042960048036036020811015610c5357600080fd5b50351515612385565b61042960048036036040811015610c7257600080fd5b506001600160a01b03813581169160200135166124be565b61056a6124f1565b6106026124f7565b61056a60048036036020811015610cb057600080fd5b50356001600160a01b031661250f565b610cc861266c565b604080516001600160e01b039092168252519081900360200190f35b61056a61267f565b610d1260048036036020811015610d0257600080fd5b50356001600160a01b0316612685565b60408051602080825283518183015283519192839290830191858101910280838360005b83811015610d4e578181015183820152602001610d36565b505050509050019250505060405180910390f35b61042961270e565b610d1261271e565b61056a60048036036040811015610d8857600080fd5b506001600160a01b0381358116916020013516612780565b61060261279d565b61056a60048036036080811015610dbe57600080fd5b506001600160a01b038135811691602081013582169160408201351690606001356127ac565b610d1260048036036020811015610dfa57600080fd5b810190602081018135600160201b811115610e1457600080fd5b820183602082011115610e2657600080fd5b803590602001918460208302840111600160201b83111715610e4757600080fd5b919080806020026020016040519081016040528093929190818152602001838360200280828437600092019190915250929550612840945050505050565b610ebb60048036036060811015610e9b57600080fd5b506001600160a01b038135811691602081013590911690604001356128d7565b6040805192835260208301919091528051918290030190f35b61056a60048036036040811015610eea57600080fd5b506001600160a01b0381358116916020013516612b4c565b61056a60048036036020811015610f1857600080fd5b50356001600160a01b0316612b69565b61051c60048036036020811015610f3e57600080fd5b810190602081018135600160201b811115610f5857600080fd5b820183602082011115610f6a57600080fd5b803590602001918460208302840111600160201b83111715610f8b57600080fd5b919080806020026020016040519081016040528093929190818152602001838360200280828437600092019190915250929550612b7b945050505050565b61056a600480360360a0811015610fdf57600080fd5b506001600160a01b0381358116916020810135821691604082013581169160608101359091169060800135612c0d565b61056a6004803603602081101561102557600080fd5b5035612dc5565b61056a6004803603606081101561104257600080fd5b506001600160a01b03813581169160208101359091169060400135612e2e565b6106026004803603604081101561107857600080fd5b506001600160a01b03813516906020013561311b565b610602613150565b61056a600480360360408110156110ac57600080fd5b506001600160a01b03813516906020013561315f565b61042961330f565b61056a61331f565b61051c600480360360208110156110e857600080fd5b50356001600160a01b0316613325565b61056a6004803603606081101561110e57600080fd5b506001600160a01b03813581169160208101359091169060400135613389565b61056a6004803603602081101561114457600080fd5b50356001600160a01b03166133c6565b6106026136d9565b600181565b6001600160a01b03821660009081526009602052604081205460ff166111b85760405162461bcd60e51b81526004018080602001828103825260288152602001806159296028913960400191505060405180910390fd5b600a546001600160a01b03163314806111db57506000546001600160a01b031633145b6112165760405162461bcd60e51b81526004018080602001828103825260278152602001806159826027913960400191505060405180910390fd5b6000546001600160a01b031633148061123157506001821515145b61127b576040805162461bcd60e51b81526020600482015260166024820152756f6e6c792061646d696e2063616e20756e706175736560501b604482015290519081900360640190fd5b6001600160a01b0383166000818152600c6020908152604091829020805486151560ff199091168117909155825193845283830152606090830181905260069083015265426f72726f7760d01b6080830152517f71aec636243f9709bb0007ae15e9afb8150ab01716d75fd7573be5cc096e03b09181900360a00190a150805b92915050565b60408051600180825281830190925260609160208083019080388339019050509050828160008151811061133157fe5b60200260200101906001600160a01b031690816001600160a01b03168152505061135e818360018061206a565b505050565b806001600160a01b031663f851a4406040518163ffffffff1660e01b815260040160206040518083038186803b15801561139c57600080fd5b505afa1580156113b0573d6000803e3d6000fd5b505050506040513d60208110156113c657600080fd5b50516001600160a01b0316331461140e5760405162461bcd60e51b81526004018080602001828103825260278152602001806159ee6027913960400191505060405180910390fd5b806001600160a01b031663c1e803346040518163ffffffff1660e01b8152600401602060405180830381600087803b15801561144957600080fd5b505af115801561145d573d6000803e3d6000fd5b505050506040513d602081101561147357600080fd5b5051156114bf576040805162461bcd60e51b815260206004820152601560248201527418da185b99d9481b9bdd08185d5d1a1bdc9a5e9959605a1b604482015290519081900360640190fd5b50565b600f6020526000908152604090205481565b5050505050565b6001600160a01b03841660009081526009602052604081205460ff166115035750600961159c565b61150b615869565b6040518060200160405280876001600160a01b031663aa5af0fd6040518163ffffffff1660e01b815260040160206040518083038186803b15801561154f57600080fd5b505afa158015611563573d6000803e3d6000fd5b505050506040513d602081101561157957600080fd5b50519052905061158986826136e8565b6115968685836000613970565b60009150505b949350505050565b600a546001600160a01b031681565b6001546001600160a01b031681565b600a546000906001600160a01b03163314806115e857506000546001600160a01b031633145b6116235760405162461bcd60e51b81526004018080602001828103825260278152602001806159826027913960400191505060405180910390fd5b6000546001600160a01b031633148061163e57506001821515145b611688576040805162461bcd60e51b81526020600482015260166024820152756f6e6c792061646d696e2063616e20756e706175736560501b604482015290519081900360640190fd5b600a8054831515600160b81b810260ff60b81b1990921691909117909155604080516020810192909252808252600582820152645365697a6560d81b6060830152517fef159d9a32b2472e32b098f954f3ce62d232939f1c207070b584df1814de2de09181900360800190a150805b919050565b600080546001600160a01b031633146117225761171b60016004613b5b565b90506116f7565b61172a615869565b506040805160208101909152828152611741615869565b50604080516020810190915266b1a2bc2ec5000081526117618282613bc1565b1561177a57611771600580613b5b565b925050506116f7565b611782615869565b506040805160208101909152670c7d713b49da000081526117a38184613bc9565b156117bd576117b3600580613b5b565b93505050506116f7565b6005805490869055604080518281526020810188905281517f3b9670cf975d26958e754b57098eaa2ac914d8d2a31b83257997b9f346110fd9929181900390910190a160005b9695505050505050565b6000546001600160a01b0316331461186c576040805162461bcd60e51b815260206004820152601f60248201527f6f6e6c792061646d696e2063616e2064726f7020636f6d70206d61726b657400604482015290519081900360640190fd5b6001600160a01b0381166000908152600960205260409020600381015460ff1615156001146118e2576040805162461bcd60e51b815260206004820152601b60248201527f6d61726b6574206973206e6f74206120636f6d70206d61726b65740000000000604482015290519081900360640190fd5b60038101805460ff19169055604080516001600160a01b03841681526000602082015281517f93c1f3e36ed71139f466a4ce8c9751790e2e33f5afb2df0dcfb3aeabe55d5aa2929181900390910190a161193a613bd0565b5050565b6001600160a01b03821660009081526009602052604081205460ff166119955760405162461bcd60e51b81526004018080602001828103825260288152602001806159296028913960400191505060405180910390fd5b600a546001600160a01b03163314806119b857506000546001600160a01b031633145b6119f35760405162461bcd60e51b81526004018080602001828103825260278152602001806159826027913960400191505060405180910390fd5b6000546001600160a01b0316331480611a0e57506001821515145b611a58576040805162461bcd60e51b81526020600482015260166024820152756f6e6c792061646d696e2063616e20756e706175736560501b604482015290519081900360640190fd5b6001600160a01b0383166000818152600b6020908152604091829020805486151560ff199091168117909155825193845283830152606090830181905260049083015263135a5b9d60e21b6080830152517f71aec636243f9709bb0007ae15e9afb8150ab01716d75fd7573be5cc096e03b09181900360a00190a150919050565b600a54600160a01b900460ff1681565b50505050565b435b90565b505050505050565b60065481565b333214611b405760405162461bcd60e51b81526004018080602001828103825260318152602001806159516031913960400191505060405180910390fd5b611b48613bd0565b565b600080600080600080611b5f8a8a8a8a613f95565b925092509250826011811115611b7157fe5b95509093509150505b9450945094915050565b6001600160a01b0383166000908152600b602052604081205460ff1615611be3576040805162461bcd60e51b815260206004820152600e60248201526d1b5a5b9d081a5cc81c185d5cd95960921b604482015290519081900360640190fd5b6001600160a01b03841660009081526009602052604090205460ff16611c0d5760095b9050611c28565b611c16846143b0565b611c228484600061462e565b60005b90505b9392505050565b600080546001600160a01b03163314611c4e5761171b6001600b613b5b565b611c56615869565b506040805160208101909152828152611c6d615869565b506040805160208101909152670de0b6b3a76400008152611c8e8282613bc9565b15611c9f576117716007600c613b5b565b611ca7615869565b5060408051602081019091526714d1120d7b1600008152611cc88184613bc9565b15611cd9576117b36007600c613b5b565b6006805490869055604080518281526020810188905281517faeba5a6c40a8ac138134bff1aaa65debf25971188a58804bad717f82f0ec1316929181900390910190a16000611803565b80158015611d315750600082115b15611ae9576040805162461bcd60e51b815260206004820152601160248201527072656465656d546f6b656e73207a65726f60781b604482015290519081900360640190fd5b600d8181548110611d8457fe5b6000918252602090912001546001600160a01b0316905081565b600080546001600160a01b03163314611dbd5761171b60016010613b5b565b600480546001600160a01b038481166001600160a01b0319831681179093556040805191909216808252602082019390935281517fd52b2b9b7e9ee655fcb95d2e5b9e0c9f69e7ef2b8e9d2d0ea78402d576d22e22929181900390910190a160009392505050565b61135e565b600080600080600080611e41876000806000613f95565b925092509250826011811115611e5357fe5b97919650945092505050565b600080546001600160a01b03163314611e7e5761171b60016013613b5b565b600a80546001600160a01b038481166001600160a01b0319831617928390556040805192821680845293909116602083015280517f0613b6ee6a04f0d09f390e4d9318894b9f6ac7fd83897cd8d18896ba579c401e9281900390910190a16000611c28565b6001600160a01b03851660009081526009602052604081205460ff161580611f2457506001600160a01b03851660009081526009602052604090205460ff16155b15611f335760095b9050612061565b600080611f3f85614826565b91935090915060009050826011811115611f5557fe5b14611f6f57816011811115611f6657fe5b92505050612061565b80611f7b576003611f66565b6000886001600160a01b03166395dd9193876040518263ffffffff1660e01b815260040180826001600160a01b03166001600160a01b0316815260200191505060206040518083038186803b158015611fd357600080fd5b505afa158015611fe7573d6000803e3d6000fd5b505050506040513d6020811015611ffd57600080fd5b50516040805160208101909152600554815290915060009081906120219084614846565b9092509050600082600381111561203457fe5b1461204857600b5b95505050505050612061565b8087111561205757601161203c565b6000955050505050505b95945050505050565b60005b83518110156114d457600084828151811061208457fe5b6020908102919091018101516001600160a01b0381166000908152600990925260409091205490915060ff166120f9576040805162461bcd60e51b81526020600482015260156024820152741b585c9ad95d081b5d5cdd081899481b1a5cdd1959605a1b604482015290519081900360640190fd5b600184151514156121c15761210c615869565b6040518060200160405280836001600160a01b031663aa5af0fd6040518163ffffffff1660e01b815260040160206040518083038186803b15801561215057600080fd5b505afa158015612164573d6000803e3d6000fd5b505050506040513d602081101561217a57600080fd5b50519052905061218a82826136e8565b60005b87518110156121be576121b6838983815181106121a657fe5b6020026020010151846001613970565b60010161218d565b50505b6001831515141561220a576121d5816143b0565b60005b865181101561220857612200828883815181106121f157fe5b6020026020010151600161462e565b6001016121d8565b505b5060010161206d565b61221b61489a565b61226c576040805162461bcd60e51b815260206004820152601f60248201527f6f6e6c792061646d696e2063616e206368616e676520636f6d70207261746500604482015290519081900360640190fd5b600e805490829055604080518281526020810184905281517fc227c9272633c3a307d9845bf2bc2509cefb20d655b5f3c1002d8e1e3f22c8b0929181900390910190a161193a613bd0565b6010602052600090815260409020546001600160e01b03811690600160e01b900463ffffffff1682565b600c6020526000908152604090205460ff1681565b600b6020526000908152604090205460ff1681565b66038d7ea4c6800081565b6004546001600160a01b031681565b600a54600160b01b900460ff1681565b6011602052600090815260409020546001600160e01b03811690600160e01b900463ffffffff1682565b60096020526000908152604090208054600182015460039092015460ff91821692911683565b600a546000906001600160a01b03163314806123ab57506000546001600160a01b031633145b6123e65760405162461bcd60e51b81526004018080602001828103825260278152602001806159826027913960400191505060405180910390fd5b6000546001600160a01b031633148061240157506001821515145b61244b576040805162461bcd60e51b81526020600482015260166024820152756f6e6c792061646d696e2063616e20756e706175736560501b604482015290519081900360640190fd5b600a8054831515600160b01b810260ff60b01b1990921691909117909155604080516020810192909252808252600882820152672a3930b739b332b960c11b6060830152517fef159d9a32b2472e32b098f954f3ce62d232939f1c207070b584df1814de2de09181900360800190a15090565b6001600160a01b038082166000908152600960209081526040808320938616835260029093019052205460ff1692915050565b60075481565b73c00e94cb662c3520282e6f5717214004a7f2688890565b600080546001600160a01b0316331461252e5761171b60016012613b5b565b6001600160a01b03821660009081526009602052604090205460ff161561255b5761171b600a6011613b5b565b816001600160a01b031663fe9c44ae6040518163ffffffff1660e01b815260040160206040518083038186803b15801561259457600080fd5b505afa1580156125a8573d6000803e3d6000fd5b505050506040513d60208110156125be57600080fd5b5050604080516060810182526001808252600060208381018281528486018381526001600160a01b03891684526009909252949091209251835490151560ff19918216178455935191830191909155516003909101805491151591909216179055612628826148c3565b604080516001600160a01b038416815290517fcf583bb0c569eb967f806b11601c4cb93c10310485c67add5f8362c2f212321f9181900360200190a1600092915050565b6ec097ce7bc90715b34b9f100000000081565b600e5481565b60608060086000846001600160a01b03166001600160a01b0316815260200190815260200160002080548060200260200160405190810160405280929190818152602001828054801561270157602002820191906000526020600020905b81546001600160a01b031681526001909101906020018083116126e3575b5093979650505050505050565b600a54600160b81b900460ff1681565b6060600d80548060200260200160405190810160405280929190818152602001828054801561277657602002820191906000526020600020905b81546001600160a01b03168152600190910190602001808311612758575b5050505050905090565b601260209081526000928352604080842090915290825290205481565b6002546001600160a01b031681565b600a54600090600160b01b900460ff1615612803576040805162461bcd60e51b81526020600482015260126024820152711d1c985b9cd9995c881a5cc81c185d5cd95960721b604482015290519081900360640190fd5b60006128108686856149a1565b9050801561281f57905061159c565b612828866143b0565b6128348686600061462e565b6115968685600061462e565b6060600082519050606081604051908082528060200260200182016040528015612874578160200160208202803883390190505b50905060005b828110156128cf57600085828151811061289057fe5b602002602001015190506128a48133614a44565b60118111156128af57fe5b8383815181106128bb57fe5b60209081029190910101525060010161287a565b509392505050565b600480546040805163fc57d4df60e01b81526001600160a01b038781169482019490945290516000938493849391169163fc57d4df91602480820192602092909190829003018186803b15801561292d57600080fd5b505afa158015612941573d6000803e3d6000fd5b505050506040513d602081101561295757600080fd5b5051600480546040805163fc57d4df60e01b81526001600160a01b038a8116948201949094529051939450600093929091169163fc57d4df91602480820192602092909190829003018186803b1580156129b057600080fd5b505afa1580156129c4573d6000803e3d6000fd5b505050506040513d60208110156129da57600080fd5b505190508115806129e9575080155b156129fe57600d935060009250612b44915050565b6000866001600160a01b031663182df0f56040518163ffffffff1660e01b815260040160206040518083038186803b158015612a3957600080fd5b505afa158015612a4d573d6000803e3d6000fd5b505050506040513d6020811015612a6357600080fd5b505190506000612a71615869565b612a79615869565b612a81615869565b6000612a8f60065489614b65565b945090506000816003811115612aa157fe5b14612abd57600b5b995060009850612b44975050505050505050565b612ac78787614b65565b935090506000816003811115612ad957fe5b14612ae557600b612aa9565b612aef8484614ba0565b925090506000816003811115612b0157fe5b14612b0d57600b612aa9565b612b17828c614846565b955090506000816003811115612b2957fe5b14612b3557600b612aa9565b60009950939750505050505050505b935093915050565b601360209081526000928352604080842090915290825290205481565b60146020526000908152604090205481565b612b8361489a565b612bd4576040805162461bcd60e51b815260206004820152601e60248201527f6f6e6c792061646d696e2063616e2061646420636f6d70206d61726b65740000604482015290519081900360640190fd5b60005b8151811015612c0457612bfc828281518110612bef57fe5b6020026020010151614bb8565b600101612bd7565b506114bf613bd0565b600a54600090600160b81b900460ff1615612c61576040805162461bcd60e51b815260206004820152600f60248201526e1cd95a5e99481a5cc81c185d5cd959608a1b604482015290519081900360640190fd5b6001600160a01b03861660009081526009602052604090205460ff161580612ca257506001600160a01b03851660009081526009602052604090205460ff16155b15612cae576009611f2c565b846001600160a01b0316635fe3b5676040518163ffffffff1660e01b815260040160206040518083038186803b158015612ce757600080fd5b505afa158015612cfb573d6000803e3d6000fd5b505050506040513d6020811015612d1157600080fd5b505160408051635fe3b56760e01b815290516001600160a01b0392831692891691635fe3b567916004808301926020929190829003018186803b158015612d5757600080fd5b505afa158015612d6b573d6000803e3d6000fd5b505050506040513d6020811015612d8157600080fd5b50516001600160a01b031614612d98576002611f2c565b612da1866143b0565b612dad8684600061462e565b612db98685600061462e565b60009695505050505050565b600080546001600160a01b03163314612de45761171b6001600d613b5b565b6007805490839055604080518281526020810185905281517f7093cf1eb653f749c3ff531d6df7f92764536a7fa0d13530cd26e070780c32ea929181900390910190a16000611c28565b6001600160a01b0383166000908152600c602052604081205460ff1615612e8f576040805162461bcd60e51b815260206004820152601060248201526f189bdc9c9bddc81a5cc81c185d5cd95960821b604482015290519081900360640190fd5b6001600160a01b03841660009081526009602052604090205460ff16612eb6576009611c06565b6001600160a01b038085166000908152600960209081526040808320938716835260029093019052205460ff16612fa657336001600160a01b03851614612f3c576040805162461bcd60e51b815260206004820152601560248201527439b2b73232b91036bab9ba1031329031aa37b5b2b760591b604482015290519081900360640190fd5b6000612f483385614a44565b90506000816011811115612f5857fe5b14612f7157806011811115612f6957fe5b915050611c28565b6001600160a01b038086166000908152600960209081526040808320938816835260029093019052205460ff16612fa457fe5b505b600480546040805163fc57d4df60e01b81526001600160a01b03888116948201949094529051929091169163fc57d4df91602480820192602092909190829003018186803b158015612ff757600080fd5b505afa15801561300b573d6000803e3d6000fd5b505050506040513d602081101561302157600080fd5b505161302e57600d611c06565b60008061303e8587600087613f95565b9193509091506000905082601181111561305457fe5b1461306e5781601181111561306557fe5b92505050611c28565b801561307b576004613065565b613083615869565b6040518060200160405280886001600160a01b031663aa5af0fd6040518163ffffffff1660e01b815260040160206040518083038186803b1580156130c757600080fd5b505afa1580156130db573d6000803e3d6000fd5b505050506040513d60208110156130f157600080fd5b50519052905061310187826136e8565b61310e8787836000613970565b6000979650505050505050565b6008602052816000526040600020818154811061313457fe5b6000918252602090912001546001600160a01b03169150829050565b6003546001600160a01b031681565b600080546001600160a01b031633146131855761317e60016006613b5b565b90506112fb565b6001600160a01b0383166000908152600960205260409020805460ff166131ba576131b260096007613b5b565b9150506112fb565b6131c2615869565b5060408051602081019091528381526131d9615869565b506040805160208101909152670c7d713b49da000081526131fa8183613bc9565b156132155761320b60066008613b5b565b93505050506112fb565b841580159061329e5750600480546040805163fc57d4df60e01b81526001600160a01b038a8116948201949094529051929091169163fc57d4df91602480820192602092909190829003018186803b15801561327057600080fd5b505afa158015613284573d6000803e3d6000fd5b505050506040513d602081101561329a57600080fd5b5051155b156132af5761320b600d6009613b5b565b60018301805490869055604080516001600160a01b03891681526020810183905280820188905290517f70483e6592cd5182d45ac970e05bc62cdcc90e9d8ef2c2dbe686cf383bcd7fc59181900360600190a16000979650505050505050565b600a54600160a81b900460ff1681565b60055481565b6114bf81600d80548060200260200160405190810160405280929190818152602001828054801561337f57602002820191906000526020600020905b81546001600160a01b03168152600190910190602001808311613361575b5050505050611301565b6000806133978585856149a1565b905080156133a6579050611c28565b6133af856143b0565b6133bb8585600061462e565b600095945050505050565b6000808290506000806000836001600160a01b031663c37f68e2336040518263ffffffff1660e01b815260040180826001600160a01b03166001600160a01b0316815260200191505060806040518083038186803b15801561342757600080fd5b505afa15801561343b573d6000803e3d6000fd5b505050506040513d608081101561345157600080fd5b5080516020820151604090920151909450909250905082156134a45760405162461bcd60e51b81526004018080602001828103825260258152602001806159a96025913960400191505060405180910390fd5b80156134c1576134b6600c6002613b5b565b9450505050506116f7565b60006134ce8733856149a1565b905080156134ef576134e3600e600383614ed3565b955050505050506116f7565b6001600160a01b0385166000908152600960209081526040808320338452600281019092529091205460ff1661352e57600096505050505050506116f7565b3360009081526002820160209081526040808320805460ff1916905560088252918290208054835181840281018401909452808452606093928301828280156135a057602002820191906000526020600020905b81546001600160a01b03168152600190910190602001808311613582575b5050835193945083925060009150505b828110156135f557896001600160a01b03168482815181106135ce57fe5b60200260200101516001600160a01b031614156135ed578091506135f5565b6001016135b0565b508181106135ff57fe5b33600090815260086020526040902080548190600019810190811061362057fe5b9060005260206000200160009054906101000a90046001600160a01b031681838154811061364a57fe5b600091825260209091200180546001600160a01b0319166001600160a01b0392909216919091179055805461368382600019830161587c565b50604080516001600160a01b038c16815233602082015281517fe699a64c18b07ac5b7301aa273f36a2287239eb9501d81950672794afba29a0d929181900390910190a160009c9b505050505050505050505050565b6000546001600160a01b031681565b6001600160a01b0382166000908152601160209081526040808320600f9092528220549091613715611aef565b8354909150600090613735908390600160e01b900463ffffffff16614f39565b90506000811180156137475750600083115b156139165760006137bc876001600160a01b03166347bd37186040518163ffffffff1660e01b815260040160206040518083038186803b15801561378a57600080fd5b505afa15801561379e573d6000803e3d6000fd5b505050506040513d60208110156137b457600080fd5b505187614f73565b905060006137ca8386614f91565b90506137d4615869565b600083116137f157604051806020016040528060008152506137fb565b6137fb8284614fd3565b9050613805615869565b604080516020810190915288546001600160e01b031681526138279083615011565b9050604051806040016040528061387783600001516040518060400160405280601a81526020017f6e657720696e6465782065786365656473203232342062697473000000000000815250615036565b6001600160e01b031681526020016138b2886040518060400160405280601c81526020016000805160206159ce8339815191528152506150d0565b63ffffffff9081169091526001600160a01b038c166000908152601160209081526040909120835181549490920151909216600160e01b026001600160e01b039182166001600160e01b0319909416939093171691909117905550611af492505050565b8015611af457613949826040518060400160405280601c81526020016000805160206159ce8339815191528152506150d0565b845463ffffffff91909116600160e01b026001600160e01b03909116178455505050505050565b6001600160a01b0384166000908152601160205260409020613990615869565b50604080516020810190915281546001600160e01b031681526139b1615869565b5060408051602080820183526001600160a01b03808a16600090815260138352848120918a1680825282845294812080548552865195909152915291909155805115613b52576139ff615869565b613a098383615125565b90506000613a98896001600160a01b03166395dd91938a6040518263ffffffff1660e01b815260040180826001600160a01b03166001600160a01b0316815260200191505060206040518083038186803b158015613a6657600080fd5b505afa158015613a7a573d6000803e3d6000fd5b505050506040513d6020811015613a9057600080fd5b505188614f73565b90506000613aa6828461514a565b6001600160a01b038a1660009081526014602052604081205491925090613acd9083615179565b9050613aee8a828a613ae65766038d7ea4c68000613ae9565b60005b6151af565b6001600160a01b03808c1660008181526014602090815260409182902094909455895181518781529485015280519193928f16927f1fc3ecc087d8d2d15e23d0032af5a47059c3892d003d8e139fdcb6bb327c99a6929081900390910190a3505050505b50505050505050565b60007f45b96fe442630264581b197e84bbada861235052c5a1aadfff9ea4e40a969aa0836011811115613b8a57fe5b836013811115613b9657fe5b604080519283526020830191909152600082820152519081900360600190a1826011811115611c2857fe5b519051111590565b5190511090565b6060600d805480602002602001604051908101604052809291908181526020018280548015613c2857602002820191906000526020600020905b81546001600160a01b03168152600190910190602001808311613c0a575b50939450600093505050505b8151811015613cee576000828281518110613c4b57fe5b60200260200101519050613c5d615869565b6040518060200160405280836001600160a01b031663aa5af0fd6040518163ffffffff1660e01b815260040160206040518083038186803b158015613ca157600080fd5b505afa158015613cb5573d6000803e3d6000fd5b505050506040513d6020811015613ccb57600080fd5b505190529050613cda826143b0565b613ce482826136e8565b5050600101613c34565b50613cf7615869565b60405180602001604052806000815250905060608251604051908082528060200260200182016040528015613d4657816020015b613d33615869565b815260200190600190039081613d2b5790505b50905060005b8351811015613ecc576000848281518110613d6357fe5b6020908102919091018101516001600160a01b0381166000908152600990925260409091206003015490915060ff1615613ec357613d9f615869565b60408051602080820180845260045463fc57d4df60e01b9091526001600160a01b03868116602485015293519293849391169163fc57d4df916044808601929190818703018186803b158015613df457600080fd5b505afa158015613e08573d6000803e3d6000fd5b505050506040513d6020811015613e1e57600080fd5b505190529050613e2c615869565b613e9a82846001600160a01b03166347bd37186040518163ffffffff1660e01b815260040160206040518083038186803b158015613e6957600080fd5b505afa158015613e7d573d6000803e3d6000fd5b505050506040513d6020811015613e9357600080fd5b50516152f4565b905080858581518110613ea957fe5b6020026020010181905250613ebe8682615011565b955050505b50600101613d4c565b5060005b8351811015611ae9576000600d8281548110613ee857fe5b600091825260208220015485516001600160a01b039091169250613f0d576000613f35565b613f35600e54613f30868681518110613f2257fe5b602002602001015188615315565b615348565b6001600160a01b0383166000818152600f60209081526040918290208490558151848152915193945091927f2ab93f65628379309f36cb125e90d7c902454a545c4f8b8cb0794af75c24b807929181900390910190a25050600101613ed0565b6000806000613fa26158a0565b6001600160a01b03881660009081526008602090815260408083208054825181850281018501909352808352849360609392919083018282801561400f57602002820191906000526020600020905b81546001600160a01b03168152600190910190602001808311613ff1575b50939450600093505050505b815181101561436b57600082828151811061403257fe5b60200260200101519050806001600160a01b031663c37f68e28e6040518263ffffffff1660e01b815260040180826001600160a01b03166001600160a01b0316815260200191505060806040518083038186803b15801561409257600080fd5b505afa1580156140a6573d6000803e3d6000fd5b505050506040513d60808110156140bc57600080fd5b508051602082015160408084015160609485015160808c0152938a019390935291880191909152945084156141025750600f975060009650869550611b7a945050505050565b60408051602080820183526001600160a01b0380851660008181526009845285902060010154845260c08b01939093528351808301855260808b0151815260e08b015260048054855163fc57d4df60e01b815291820194909452935192169263fc57d4df9260248083019392829003018186803b15801561418257600080fd5b505afa158015614196573d6000803e3d6000fd5b505050506040513d60208110156141ac57600080fd5b505160a087018190526141d05750600d975060009650869550611b7a945050505050565b604080516020810190915260a08701518152610100870181905260c087015160e08801516141fd92615361565b6101208801529350600084600381111561421357fe5b1461422f5750600b975060009650869550611b7a945050505050565b614247866101200151876040015188600001516153b9565b87529350600084600381111561425957fe5b146142755750600b975060009650869550611b7a945050505050565b61428d866101000151876060015188602001516153b9565b6020880152935060008460038111156142a257fe5b146142be5750600b975060009650869550611b7a945050505050565b8b6001600160a01b0316816001600160a01b03161415614362576142ec8661012001518c88602001516153b9565b60208801529350600084600381111561430157fe5b1461431d5750600b975060009650869550611b7a945050505050565b6143318661010001518b88602001516153b9565b60208801529350600084600381111561434657fe5b146143625750600b975060009650869550611b7a945050505050565b5060010161401b565b50602084015184511115614392575050506020810151905160009450039150829050611b7a565b5050815160209092015160009550859450919091039150611b7a9050565b6001600160a01b0381166000908152601060209081526040808320600f90925282205490916143dd611aef565b83549091506000906143fd908390600160e01b900463ffffffff16614f39565b905060008111801561440f5750600083115b156145d5576000856001600160a01b03166318160ddd6040518163ffffffff1660e01b815260040160206040518083038186803b15801561444f57600080fd5b505afa158015614463573d6000803e3d6000fd5b505050506040513d602081101561447957600080fd5b5051905060006144898386614f91565b9050614493615869565b600083116144b057604051806020016040528060008152506144ba565b6144ba8284614fd3565b90506144c4615869565b604080516020810190915288546001600160e01b031681526144e69083615011565b9050604051806040016040528061453683600001516040518060400160405280601a81526020017f6e657720696e6465782065786365656473203232342062697473000000000000815250615036565b6001600160e01b03168152602001614571886040518060400160405280601c81526020016000805160206159ce8339815191528152506150d0565b63ffffffff9081169091526001600160a01b038b166000908152601060209081526040909120835181549490920151909216600160e01b026001600160e01b039182166001600160e01b03199094169390931716919091179055506114d492505050565b80156114d457614608826040518060400160405280601c81526020016000805160206159ce8339815191528152506150d0565b845463ffffffff91909116600160e01b026001600160e01b039091161784555050505050565b6001600160a01b038316600090815260106020526040902061464e615869565b50604080516020810190915281546001600160e01b0316815261466f615869565b5060408051602080820183526001600160a01b038089166000908152601283528481209189168082528284529481208054855286519590915291529190915580511580156146bd5750815115155b156146d5576ec097ce7bc90715b34b9f100000000081525b6146dd615869565b6146e78383615125565b90506000876001600160a01b03166370a08231886040518263ffffffff1660e01b815260040180826001600160a01b03166001600160a01b0316815260200191505060206040518083038186803b15801561474157600080fd5b505afa158015614755573d6000803e3d6000fd5b505050506040513d602081101561476b57600080fd5b50519050600061477b828461514a565b6001600160a01b038916600090815260146020526040812054919250906147a29083615179565b90506147bb89828a613ae65766038d7ea4c68000613ae9565b6001600160a01b03808b1660008181526014602090815260409182902094909455895181518781529485015280519193928e16927f2caecd17d02f56fa897705dcc740da2d237c373f70686f4e0d9bd3bf0400ea7a929081900390910190a350505050505050505050565b6000806000614839846000806000613f95565b9250925092509193909250565b6000806000614853615869565b61485d8686615406565b9092509050600082600381111561487057fe5b146148815750915060009050614893565b600061488c8261546e565b9350935050505b9250929050565b600080546001600160a01b03163314806148be57506002546001600160a01b031633145b905090565b60005b600d5481101561494e57816001600160a01b0316600d82815481106148e757fe5b6000918252602090912001546001600160a01b03161415614946576040805162461bcd60e51b81526020600482015260146024820152731b585c9ad95d08185b1c9958591e48185919195960621b604482015290519081900360640190fd5b6001016148c6565b50600d80546001810182556000919091527fd7b6990105719101dabeb77144f2a3385c8033acd3af97e9423a695e81ad1eb50180546001600160a01b0319166001600160a01b0392909216919091179055565b6001600160a01b03831660009081526009602052604081205460ff166149c8576009611c06565b6001600160a01b038085166000908152600960209081526040808320938716835260029093019052205460ff16614a00576000611c06565b600080614a108587866000613f95565b91935090915060009050826011811115614a2657fe5b14614a375781601181111561306557fe5b8015612db9576004613065565b6001600160a01b0382166000908152600960205260408120805460ff16614a6f5760099150506112fb565b6001600160a01b038316600090815260028201602052604090205460ff16151560011415614aa15760009150506112fb565b6007546001600160a01b03841660009081526008602052604090205410614acc5760109150506112fb565b6001600160a01b0380841660008181526002840160209081526040808320805460ff19166001908117909155600883528184208054918201815584529282902090920180549489166001600160a01b031990951685179055815193845283019190915280517f3ab23ab0d51cccc0c3085aec51f99228625aa1a922b3a8ca89a26b0f2027a1a59281900390910190a15060009392505050565b6000614b6f615869565b614b9560405180602001604052808681525060405180602001604052808681525061547d565b915091509250929050565b6000614baa615869565b83518351614b959190615566565b6001600160a01b0381166000908152600960205260409020805460ff161515600114614c2b576040805162461bcd60e51b815260206004820152601960248201527f636f6d70206d61726b6574206973206e6f74206c697374656400000000000000604482015290519081900360640190fd5b600381015460ff1615614c85576040805162461bcd60e51b815260206004820152601960248201527f636f6d70206d61726b657420616c726561647920616464656400000000000000604482015290519081900360640190fd5b60038101805460ff19166001908117909155604080516001600160a01b0385168152602081019290925280517f93c1f3e36ed71139f466a4ce8c9751790e2e33f5afb2df0dcfb3aeabe55d5aa29281900390910190a16001600160a01b0382166000908152601060205260409020546001600160e01b0316158015614d2d57506001600160a01b038216600090815260106020526040902054600160e01b900463ffffffff16155b15614dea5760405180604001604052806ec097ce7bc90715b34b9f10000000006001600160e01b03168152602001614d8f614d66611aef565b6040518060400160405280601c81526020016000805160206159ce8339815191528152506150d0565b63ffffffff9081169091526001600160a01b0384166000908152601060209081526040909120835181549490920151909216600160e01b026001600160e01b039182166001600160e01b031990941693909317169190911790555b6001600160a01b0382166000908152601160205260409020546001600160e01b0316158015614e3c57506001600160a01b038216600090815260116020526040902054600160e01b900463ffffffff16155b1561193a5760405180604001604052806ec097ce7bc90715b34b9f10000000006001600160e01b03168152602001614e75614d66611aef565b63ffffffff9081169091526001600160a01b0384166000908152601160209081526040909120835181549490920151909216600160e01b026001600160e01b039182166001600160e01b031990941693909317169190911790555050565b60007f45b96fe442630264581b197e84bbada861235052c5a1aadfff9ea4e40a969aa0846011811115614f0257fe5b846013811115614f0e57fe5b604080519283526020830191909152818101859052519081900360600190a1836011811115611c2557fe5b6000611c288383604051806040016040528060158152602001747375627472616374696f6e20756e646572666c6f7760581b815250615616565b6000611c28614f8a84670de0b6b3a7640000614f91565b8351615670565b6000611c2883836040518060400160405280601781526020017f6d756c7469706c69636174696f6e206f766572666c6f770000000000000000008152506156a3565b614fdb615869565b6040518060200160405280615008615002866ec097ce7bc90715b34b9f1000000000614f91565b85615670565b90529392505050565b615019615869565b604051806020016040528061500885600001518560000151615179565b600081600160e01b84106150c85760405162461bcd60e51b81526004018080602001828103825283818151815260200191508051906020019080838360005b8381101561508d578181015183820152602001615075565b50505050905090810190601f1680156150ba5780820380516001836020036101000a031916815260200191505b509250505060405180910390fd5b509192915050565b600081600160201b84106150c85760405162461bcd60e51b815260206004820181815283516024840152835190928392604490910191908501908083836000831561508d578181015183820152602001615075565b61512d615869565b604051806020016040528061500885600001518560000151614f39565b60006ec097ce7bc90715b34b9f100000000061516a848460000151614f91565b8161517157fe5b049392505050565b6000611c288383604051806040016040528060118152602001706164646974696f6e206f766572666c6f7760781b815250615722565b60008183101580156151c15750600083115b156152ec5760006151d06124f7565b604080516370a0823160e01b815230600482015290519192506000916001600160a01b038416916370a08231916024808301926020929190829003018186803b15801561521c57600080fd5b505afa158015615230573d6000803e3d6000fd5b505050506040513d602081101561524657600080fd5b505190508085116152e957816001600160a01b031663a9059cbb87876040518363ffffffff1660e01b815260040180836001600160a01b03166001600160a01b0316815260200182815260200192505050602060405180830381600087803b1580156152b157600080fd5b505af11580156152c5573d6000803e3d6000fd5b505050506040513d60208110156152db57600080fd5b5060009350611c2892505050565b50505b509092915050565b6152fc615869565b6040518060200160405280615008856000015185614f91565b61531d615869565b60405180602001604052806150086153418660000151670de0b6b3a7640000614f91565b8551615670565b6000670de0b6b3a764000061516a848460000151614f91565b600061536b615869565b6000615375615869565b61537f878761547d565b9092509050600082600381111561539257fe5b146153a1579092509050612b44565b6153ab818661547d565b935093505050935093915050565b60008060006153c6615869565b6153d08787615406565b909250905060008260038111156153e357fe5b146153f45750915060009050612b44565b6153ab6154008261546e565b86615777565b6000615410615869565b60008061542186600001518661579d565b9092509050600082600381111561543457fe5b1461545357506040805160208101909152600081529092509050614893565b60408051602081019091529081526000969095509350505050565b51670de0b6b3a7640000900490565b6000615487615869565b60008061549c8660000151866000015161579d565b909250905060008260038111156154af57fe5b146154ce57506040805160208101909152600081529092509050614893565b6000806154e36706f05b59d3b2000084615777565b909250905060008260038111156154f657fe5b1461551857506040805160208101909152600081529094509250614893915050565b60008061552d83670de0b6b3a76400006157dc565b9092509050600082600381111561554057fe5b1461554757fe5b604080516020810190915290815260009a909950975050505050505050565b6000615570615869565b60008061558586670de0b6b3a764000061579d565b9092509050600082600381111561559857fe5b146155b757506040805160208101909152600081529092509050614893565b6000806155c483886157dc565b909250905060008260038111156155d757fe5b146155f957506040805160208101909152600081529094509250614893915050565b604080516020810190915290815260009890975095505050505050565b600081848411156156685760405162461bcd60e51b815260206004820181815283516024840152835190928392604490910191908501908083836000831561508d578181015183820152602001615075565b505050900390565b6000611c2883836040518060400160405280600e81526020016d646976696465206279207a65726f60901b815250615807565b60008315806156b0575082155b156156bd57506000611c28565b838302838582816156ca57fe5b041483906157195760405162461bcd60e51b815260206004820181815283516024840152835190928392604490910191908501908083836000831561508d578181015183820152602001615075565b50949350505050565b600083830182858210156157195760405162461bcd60e51b815260206004820181815283516024840152835190928392604490910191908501908083836000831561508d578181015183820152602001615075565b60008083830184811061578f57600092509050614893565b506002915060009050614893565b600080836157b057506000905080614893565b838302838582816157bd57fe5b04146157d157506002915060009050614893565b600092509050614893565b600080826157f05750600190506000614893565b60008385816157fb57fe5b04915091509250929050565b600081836158565760405162461bcd60e51b815260206004820181815283516024840152835190928392604490910191908501908083836000831561508d578181015183820152602001615075565b5082848161586057fe5b04949350505050565b6040518060200160405280600081525090565b81548183558181111561135e5760008381526020902061135e91810190830161590a565b6040518061014001604052806000815260200160008152602001600081526020016000815260200160008152602001600081526020016158de615869565b81526020016158eb615869565b81526020016158f8615869565b8152602001615905615869565b905290565b611af191905b808211156159245760008155600101615910565b509056fe63616e6e6f742070617573652061206d61726b65742074686174206973206e6f74206c69737465646f6e6c792065787465726e616c6c79206f776e6564206163636f756e7473206d61792072656672657368207370656564736f6e6c7920706175736520677561726469616e20616e642061646d696e2063616e207061757365657869744d61726b65743a206765744163636f756e74536e617073686f74206661696c6564626c6f636b206e756d62657220657863656564732033322062697473000000006f6e6c7920756e6974726f6c6c65722061646d696e2063616e206368616e676520627261696e73a265627a7a723158207c6d0210e28127faab30f51c5e28f39f6a68e2c872254f73a35eab24c04847de64736f6c63430005110032",
  "bytecodeSha1": "f6e7ab583b1cfc37ec22938713f53757116d9979",
  "compiler": {
    "evm_version": "istanbul",
    "optimizer": {
      "enabled": true,
      "runs": 200
    },
    "version": "0.5.17+commit.d19bba13"
  },
  "contractName": "nComptroller",
  "language": "Solidity",
  "natspec": {
    "methods": {
      "_addCompMarkets(address[])": {
        "notice": "Add markets to compMarkets, allowing them to earn COMP in the flywheel",
        "params": {
          "cTokens": "The addresses of the markets to add"
        }
      },
      "_dropCompMarket(address)": {
        "notice": "Remove a market from compMarkets, preventing it from earning COMP in the flywheel",
        "params": {
          "cToken": "The address of the market to drop"
        }
      },
      "_setCloseFactor(uint256)": {
        "details": "Admin function to set closeFactor",
        "notice": "Sets the closeFactor used when liquidating borrows",
        "params": {
          "newCloseFactorMantissa": "New close factor, scaled by 1e18"
        },
        "return": "uint 0=success, otherwise a failure. (See ErrorReporter for details)"
      },
      "_setCollateralFactor(address,uint256)": {
        "details": "Admin function to set per-market collateralFactor",
        "notice": "Sets the collateralFactor for a market",
        "params": {
          "cToken": "The market to set the factor on",
          "newCollateralFactorMantissa": "The new collateral factor, scaled by 1e18"
        },
        "return": "uint 0=success, otherwise a failure. (See ErrorReporter for details)"
      },
      "_setCompRate(uint256)": {
        "notice": "Set the amount of COMP distributed per block",
        "params": {
          "compRate_": "The amount of COMP wei per block to distribute"
        }
      },
      "_setLiquidationIncentive(uint256)": {
        "details": "Admin function to set liquidationIncentive",
        "notice": "Sets liquidationIncentive",
        "params": {
          "newLiquidationIncentiveMantissa": "New liquidationIncentive scaled by 1e18"
        },
        "return": "uint 0=success, otherwise a failure. (See ErrorReporter for details)"
      },
      "_setMaxAssets(uint256)": {
        "details": "Admin function to set maxAssets",
        "notice": "Sets maxAssets which controls how many markets can be entered",
        "params": {
          "newMaxAssets": "New max assets"
        },
        "return": "uint 0=success, otherwise a failure. (See ErrorReporter for details)"
      },
      "_setPauseGuardian(address)": {
        "notice": "Admin function to change the Pause Guardian",
        "params": {
          "newPauseGuardian": "The address of the new Pause Guardian"
        },
        "return": "uint 0=success, otherwise a failure. (See enum Error for details)"
      },
      "_setPriceOracle(address)": {
        "details": "Admin function to set a new price oracle",
        "notice": "Sets a new price oracle for the comptroller",
        "return": "uint 0=success, otherwise a failure (see ErrorReporter.sol for details)"
      },
      "_supportMarket(address)": {
        "details": "Admin function to set isListed and add support for the market",
        "notice": "Add the market to the markets mapping and set it as listed",
        "params": {
          "cToken": "The address of the market (token) to list"
        },
        "return": "uint 0=success, otherwise a failure. (See enum Error for details)"
      },
      "borrowAllowed(address,address,uint256)": {
        "notice": "Checks if the account should be allowed to borrow the underlying asset of the given market",
        "params": {
          "borrowAmount": "The amount of underlying the account would borrow",
          "borrower": "The account which would borrow the asset",
          "cToken": "The market to verify the borrow against"
        },
        "return": "0 if the borrow is allowed, otherwise a semi-opaque error code (See ErrorReporter.sol)"
      },
      "borrowVerify(address,address,uint256)": {
        "notice": "Validates borrow and reverts on rejection. May emit logs.",
        "params": {
          "borrowAmount": "The amount of the underlying asset requested to borrow",
          "borrower": "The address borrowing the underlying",
          "cToken": "Asset whose underlying is being borrowed"
        }
      },
      "checkMembership(address,address)": {
        "notice": "Returns whether the given account is entered in the given asset",
        "params": {
          "account": "The address of the account to check",
          "cToken": "The cToken to check"
        },
        "return": "True if the account is in the asset, otherwise false."
      },
      "claimComp(address)": {
        "notice": "Claim all the comp accrued by holder in all markets",
        "params": {
          "holder": "The address to claim COMP for"
        }
      },
      "claimComp(address,address[])": {
        "notice": "Claim all the comp accrued by holder in the specified markets",
        "params": {
          "cTokens": "The list of markets to claim COMP in",
          "holder": "The address to claim COMP for"
        }
      },
      "claimComp(address[],address[],bool,bool)": {
        "notice": "Claim all comp accrued by the holders",
        "params": {
          "borrowers": "Whether or not to claim COMP earned by borrowing",
          "cTokens": "The list of markets to claim COMP in",
          "holders": "The addresses to claim COMP for",
          "suppliers": "Whether or not to claim COMP earned by supplying"
        }
      },
      "enterMarkets(address[])": {
        "notice": "Add assets to be included in account liquidity calculation",
        "params": {
          "cTokens": "The list of addresses of the cToken markets to be enabled"
        },
        "return": "Success indicator for whether each corresponding market was entered"
      },
      "exitMarket(address)": {
        "details": "Sender must not have an outstanding borrow balance in the asset, or be providing necessary collateral for an outstanding borrow.",
        "notice": "Removes asset from sender's account liquidity calculation",
        "params": {
          "cTokenAddress": "The address of the asset to be removed"
        },
        "return": "Whether or not the account successfully exited the market"
      },
      "getAccountLiquidity(address)": {
        "notice": "Determine the current account liquidity wrt collateral requirements",
        "return": "(possible error code (semi-opaque), account liquidity in excess of collateral requirements,         account shortfall below collateral requirements)"
      },
      "getAllMarkets()": {
        "details": "The automatic getter may be used to access an individual market.",
        "notice": "Return all of the markets",
        "return": "The list of market addresses"
      },
      "getAssetsIn(address)": {
        "notice": "Returns the assets an account has entered",
        "params": {
          "account": "The address of the account to pull assets for"
        },
        "return": "A dynamic list with the assets the account has entered"
      },
      "getCompAddress()": {
        "notice": "Return the address of the COMP token",
        "return": "The address of COMP"
      },
      "getHypotheticalAccountLiquidity(address,address,uint256,uint256)": {
        "notice": "Determine what the account liquidity would be if the given amounts were redeemed/borrowed",
        "params": {
          "account": "The account to determine liquidity for",
          "borrowAmount": "The amount of underlying to hypothetically borrow",
          "cTokenModify": "The market to hypothetically redeem/borrow in",
          "redeemTokens": "The number of tokens to hypothetically redeem"
        },
        "return": "(possible error code (semi-opaque), hypothetical account liquidity in excess of collateral requirements,         hypothetical account shortfall below collateral requirements)"
      },
      "liquidateBorrowAllowed(address,address,address,address,uint256)": {
        "notice": "Checks if the liquidation should be allowed to occur",
        "params": {
          "borrower": "The address of the borrower",
          "cTokenBorrowed": "Asset which was borrowed by the borrower",
          "cTokenCollateral": "Asset which was used as collateral and will be seized",
          "liquidator": "The address repaying the borrow and seizing the collateral",
          "repayAmount": "The amount of underlying being repaid"
        }
      },
      "liquidateBorrowVerify(address,address,address,address,uint256,uint256)": {
        "notice": "Validates liquidateBorrow and reverts on rejection. May emit logs.",
        "params": {
          "actualRepayAmount": "The amount of underlying being repaid",
          "borrower": "The address of the borrower",
          "cTokenBorrowed": "Asset which was borrowed by the borrower",
          "cTokenCollateral": "Asset which was used as collateral and will be seized",
          "liquidator": "The address repaying the borrow and seizing the collateral"
        }
      },
      "liquidateCalculateSeizeTokens(address,address,uint256)": {
        "details": "Used in liquidation (called in cToken.liquidateBorrowFresh)",
        "notice": "Calculate number of tokens of collateral asset to seize given an underlying amount",
        "params": {
          "actualRepayAmount": "The amount of cTokenBorrowed underlying to convert into cTokenCollateral tokens",
          "cTokenBorrowed": "The address of the borrowed cToken",
          "cTokenCollateral": "The address of the collateral cToken"
        },
        "return": "(errorCode, number of cTokenCollateral tokens to be seized in a liquidation)"
      },
      "mintAllowed(address,address,uint256)": {
        "notice": "Checks if the account should be allowed to mint tokens in the given market",
        "params": {
          "cToken": "The market to verify the mint against",
          "mintAmount": "The amount of underlying being supplied to the market in exchange for tokens",
          "minter": "The account which would get the minted tokens"
        },
        "return": "0 if the mint is allowed, otherwise a semi-opaque error code (See ErrorReporter.sol)"
      },
      "mintVerify(address,address,uint256,uint256)": {
        "notice": "Validates mint and reverts on rejection. May emit logs.",
        "params": {
          "actualMintAmount": "The amount of the underlying asset being minted",
          "cToken": "Asset being minted",
          "mintTokens": "The number of tokens being minted",
          "minter": "The address minting the tokens"
        }
      },
      "redeemAllowed(address,address,uint256)": {
        "notice": "Checks if the account should be allowed to redeem tokens in the given market",
        "params": {
          "cToken": "The market to verify the redeem against",
          "redeemTokens": "The number of cTokens to exchange for the underlying asset in the market",
          "redeemer": "The account which would redeem the tokens"
        },
        "return": "0 if the redeem is allowed, otherwise a semi-opaque error code (See ErrorReporter.sol)"
      },
      "redeemVerify(address,address,uint256,uint256)": {
        "notice": "Validates redeem and reverts on rejection. May emit logs.",
        "params": {
          "cToken": "Asset being redeemed",
          "redeemAmount": "The amount of the underlying asset being redeemed",
          "redeemTokens": "The number of tokens being redeemed",
          "redeemer": "The address redeeming the tokens"
        }
      },
      "refreshCompSpeeds()": {
        "notice": "Recalculate and update COMP speeds for all COMP markets"
      },
      "repayBorrowAllowed(address,address,address,uint256)": {
        "notice": "Checks if the account should be allowed to repay a borrow in the given market",
        "params": {
          "borrower": "The account which would borrowed the asset",
          "cToken": "The market to verify the repay against",
          "payer": "The account which would repay the asset",
          "repayAmount": "The amount of the underlying asset the account would repay"
        },
        "return": "0 if the repay is allowed, otherwise a semi-opaque error code (See ErrorReporter.sol)"
      },
      "repayBorrowVerify(address,address,address,uint256,uint256)": {
        "notice": "Validates repayBorrow and reverts on rejection. May emit logs.",
        "params": {
          "actualRepayAmount": "The amount of underlying being repaid",
          "borrower": "The address of the borrower",
          "cToken": "Asset being repaid",
          "payer": "The address repaying the borrow"
        }
      },
      "seizeAllowed(address,address,address,address,uint256)": {
        "notice": "Checks if the seizing of assets should be allowed to occur",
        "params": {
          "borrower": "The address of the borrower",
          "cTokenBorrowed": "Asset which was borrowed by the borrower",
          "cTokenCollateral": "Asset which was used as collateral and will be seized",
          "liquidator": "The address repaying the borrow and seizing the collateral",
          "seizeTokens": "The number of collateral tokens to seize"
        }
      },
      "seizeVerify(address,address,address,address,uint256)": {
        "notice": "Validates seize and reverts on rejection. May emit logs.",
        "params": {
          "borrower": "The address of the borrower",
          "cTokenBorrowed": "Asset which was borrowed by the borrower",
          "cTokenCollateral": "Asset which was used as collateral and will be seized",
          "liquidator": "The address repaying the borrow and seizing the collateral",
          "seizeTokens": "The number of collateral tokens to seize"
        }
      },
      "transferAllowed(address,address,address,uint256)": {
        "notice": "Checks if the account should be allowed to transfer tokens in the given market",
        "params": {
          "cToken": "The market to verify the transfer against",
          "dst": "The account which receives the tokens",
          "src": "The account which sources the tokens",
          "transferTokens": "The number of cTokens to transfer"
        },
        "return": "0 if the transfer is allowed, otherwise a semi-opaque error code (See ErrorReporter.sol)"
      },
      "transferVerify(address,address,address,uint256)": {
        "notice": "Validates transfer and reverts on rejection. May emit logs.",
        "params": {
          "cToken": "Asset being transferred",
          "dst": "The account which receives the tokens",
          "src": "The account which sources the tokens",
          "transferTokens": "The number of cTokens to transfer"
        }
      }
    }
  },
  "opcodes": "PUSH1 0x80 PUSH1 0x40 MSTORE CALLVALUE DUP1 ISZERO PUSH2 0x10 JUMPI PUSH1 0x0 DUP1 REVERT JUMPDEST POP PUSH1 0x4 CALLDATASIZE LT PUSH2 0x41C JUMPI PUSH1 0x0 CALLDATALOAD PUSH1 0xE0 SHR DUP1 PUSH4 0x731F0C2B GT PUSH2 0x22B JUMPI DUP1 PUSH4 0xBDCDC258 GT PUSH2 0x130 JUMPI DUP1 PUSH4 0xDCE15449 GT PUSH2 0xB8 JUMPI DUP1 PUSH4 0xE8755446 GT PUSH2 0x87 JUMPI DUP1 PUSH4 0xE8755446 EQ PUSH2 0x10CA JUMPI DUP1 PUSH4 0xE9AF0292 EQ PUSH2 0x10D2 JUMPI DUP1 PUSH4 0xEABE7D91 EQ PUSH2 0x10F8 JUMPI DUP1 PUSH4 0xEDE4EDD0 EQ PUSH2 0x112E JUMPI DUP1 PUSH4 0xF851A440 EQ PUSH2 0x1154 JUMPI PUSH2 0x41C JUMP JUMPDEST DUP1 PUSH4 0xDCE15449 EQ PUSH2 0x1062 JUMPI DUP1 PUSH4 0xDCFBC0C7 EQ PUSH2 0x108E JUMPI DUP1 PUSH4 0xE4028EEE EQ PUSH2 0x1096 JUMPI DUP1 PUSH4 0xE6653F3D EQ PUSH2 0x10C2 JUMPI PUSH2 0x41C JUMP JUMPDEST DUP1 PUSH4 0xCC7EBDC4 GT PUSH2 0xFF JUMPI DUP1 PUSH4 0xCC7EBDC4 EQ PUSH2 0xF02 JUMPI DUP1 PUSH4 0xCE485C5E EQ PUSH2 0xF28 JUMPI DUP1 PUSH4 0xD02F7351 EQ PUSH2 0xFC9 JUMPI DUP1 PUSH4 0xD9226CED EQ PUSH2 0x100F JUMPI DUP1 PUSH4 0xDA3D454C EQ PUSH2 0x102C JUMPI PUSH2 0x41C JUMP JUMPDEST DUP1 PUSH4 0xBDCDC258 EQ PUSH2 0xDA8 JUMPI DUP1 PUSH4 0xC2998238 EQ PUSH2 0xDE4 JUMPI DUP1 PUSH4 0xC488847B EQ PUSH2 0xE85 JUMPI DUP1 PUSH4 0xCA0AF043 EQ PUSH2 0xED4 JUMPI PUSH2 0x41C JUMP JUMPDEST DUP1 PUSH4 0x9D1B5A0A GT PUSH2 0x1B3 JUMPI DUP1 PUSH4 0xABFCEFFC GT PUSH2 0x182 JUMPI DUP1 PUSH4 0xABFCEFFC EQ PUSH2 0xCEC JUMPI DUP1 PUSH4 0xAC0B0BB7 EQ PUSH2 0xD62 JUMPI DUP1 PUSH4 0xB0772D0B EQ PUSH2 0xD6A JUMPI DUP1 PUSH4 0xB21BE7FD EQ PUSH2 0xD72 JUMPI DUP1 PUSH4 0xBB82AA5E EQ PUSH2 0xDA0 JUMPI PUSH2 0x41C JUMP JUMPDEST DUP1 PUSH4 0x9D1B5A0A EQ PUSH2 0xC92 JUMPI DUP1 PUSH4 0xA76B3FDA EQ PUSH2 0xC9A JUMPI DUP1 PUSH4 0xA7F0E231 EQ PUSH2 0xCC0 JUMPI DUP1 PUSH4 0xAA900754 EQ PUSH2 0xCE4 JUMPI PUSH2 0x41C JUMP JUMPDEST DUP1 PUSH4 0x8C57804E GT PUSH2 0x1FA JUMPI DUP1 PUSH4 0x8C57804E EQ PUSH2 0xBCF JUMPI DUP1 PUSH4 0x8E8F294B EQ PUSH2 0xBF5 JUMPI DUP1 PUSH4 0x8EBF6364 EQ PUSH2 0xC3D JUMPI DUP1 PUSH4 0x929FE9A1 EQ PUSH2 0xC5C JUMPI DUP1 PUSH4 0x94B2294B EQ PUSH2 0xC8A JUMPI PUSH2 0x41C JUMP JUMPDEST DUP1 PUSH4 0x731F0C2B EQ PUSH2 0xB91 JUMPI DUP1 PUSH4 0x747026C9 EQ PUSH2 0xBB7 JUMPI DUP1 PUSH4 0x7DC0D1D0 EQ PUSH2 0xBBF JUMPI DUP1 PUSH4 0x87F76303 EQ PUSH2 0xBC7 JUMPI PUSH2 0x41C JUMP JUMPDEST DUP1 PUSH4 0x4ADA90AF GT PUSH2 0x331 JUMPI DUP1 PUSH4 0x5EC88C79 GT PUSH2 0x2B9 JUMPI DUP1 PUSH4 0x6A491112 GT PUSH2 0x288 JUMPI DUP1 PUSH4 0x6A491112 EQ PUSH2 0xA7E JUMPI DUP1 PUSH4 0x6A56947E EQ PUSH2 0xA9B JUMPI DUP1 PUSH4 0x6B79C38D EQ PUSH2 0xAD7 JUMPI DUP1 PUSH4 0x6D154EA5 EQ PUSH2 0xB25 JUMPI DUP1 PUSH4 0x6D35BF91 EQ PUSH2 0xB4B JUMPI PUSH2 0x41C JUMP JUMPDEST DUP1 PUSH4 0x5EC88C79 EQ PUSH2 0x8C0 JUMPI DUP1 PUSH4 0x5F5AF1AA EQ PUSH2 0x8E6 JUMPI DUP1 PUSH4 0x5FC7E71E EQ PUSH2 0x90C JUMPI DUP1 PUSH4 0x6810DFA6 EQ PUSH2 0x952 JUMPI PUSH2 0x41C JUMP JUMPDEST DUP1 PUSH4 0x4FD42E17 GT PUSH2 0x300 JUMPI DUP1 PUSH4 0x4FD42E17 EQ PUSH2 0x7EE JUMPI DUP1 PUSH4 0x51DFF989 EQ PUSH2 0x80B JUMPI DUP1 PUSH4 0x52D84D1E EQ PUSH2 0x847 JUMPI DUP1 PUSH4 0x55EE1FE1 EQ PUSH2 0x864 JUMPI DUP1 PUSH4 0x5C778605 EQ PUSH2 0x88A JUMPI PUSH2 0x41C JUMP JUMPDEST DUP1 PUSH4 0x4ADA90AF EQ PUSH2 0x74E JUMPI DUP1 PUSH4 0x4D8E5037 EQ PUSH2 0x756 JUMPI DUP1 PUSH4 0x4E79238F EQ PUSH2 0x75E JUMPI DUP1 PUSH4 0x4EF4C3E1 EQ PUSH2 0x7B8 JUMPI PUSH2 0x41C JUMP JUMPDEST DUP1 PUSH4 0x26782247 GT PUSH2 0x3B4 JUMPI DUP1 PUSH4 0x3BCF7EC1 GT PUSH2 0x383 JUMPI DUP1 PUSH4 0x3BCF7EC1 EQ PUSH2 0x688 JUMPI DUP1 PUSH4 0x3C94786F EQ PUSH2 0x6B6 JUMPI DUP1 PUSH4 0x41C728B9 EQ PUSH2 0x6BE JUMPI DUP1 PUSH4 0x42CBB15C EQ PUSH2 0x6FA JUMPI DUP1 PUSH4 0x47EF3B3B EQ PUSH2 0x702 JUMPI PUSH2 0x41C JUMP JUMPDEST DUP1 PUSH4 0x26782247 EQ PUSH2 0x61E JUMPI DUP1 PUSH4 0x2D70DB78 EQ PUSH2 0x626 JUMPI DUP1 PUSH4 0x317B0B77 EQ PUSH2 0x645 JUMPI DUP1 PUSH4 0x3AA729B4 EQ PUSH2 0x662 JUMPI PUSH2 0x41C JUMP JUMPDEST DUP1 PUSH4 0x1D7B33D7 GT PUSH2 0x3F0 JUMPI DUP1 PUSH4 0x1D7B33D7 EQ PUSH2 0x544 JUMPI DUP1 PUSH4 0x1EDEDC91 EQ PUSH2 0x57C JUMPI DUP1 PUSH4 0x24008A62 EQ PUSH2 0x5BE JUMPI DUP1 PUSH4 0x24A3D622 EQ PUSH2 0x5FA JUMPI PUSH2 0x41C JUMP JUMPDEST DUP1 PUSH3 0x7E3DD2 EQ PUSH2 0x421 JUMPI DUP1 PUSH4 0x18C882A5 EQ PUSH2 0x43D JUMPI DUP1 PUSH4 0x1C3DB2E0 EQ PUSH2 0x46B JUMPI DUP1 PUSH4 0x1D504DC6 EQ PUSH2 0x51E JUMPI JUMPDEST PUSH1 0x0 DUP1 REVERT JUMPDEST PUSH2 0x429 PUSH2 0x115C JUMP JUMPDEST PUSH1 0x40 DUP1 MLOAD SWAP2 ISZERO ISZERO DUP3 MSTORE MLOAD SWAP1 DUP2 SWAP1 SUB PUSH1 0x20 ADD SWAP1 RETURN JUMPDEST PUSH2 0x429 PUSH1 0x4 DUP1 CALLDATASIZE SUB PUSH1 0x40 DUP2 LT ISZERO PUSH2 0x453 JUMPI PUSH1 0x0 DUP1 REVERT JUMPDEST POP PUSH1 0x1 PUSH1 0x1 PUSH1 0xA0 SHL SUB DUP2 CALLDATALOAD AND SWAP1 PUSH1 0x20 ADD CALLDATALOAD ISZERO ISZERO PUSH2 0x1161 JUMP JUMPDEST PUSH2 0x51C PUSH1 0x4 DUP1 CALLDATASIZE SUB PUSH1 0x40 DUP2 LT ISZERO PUSH2 0x481 JUMPI PUSH1 0x0 DUP1 REVERT JUMPDEST PUSH1 0x1 PUSH1 0x1 PUSH1 0xA0 SHL SUB DUP3 CALLDATALOAD AND SWAP2 SWAP1 DUP2 ADD SWAP1 PUSH1 0x40 DUP2 ADD PUSH1 0x20 DUP3 ADD CALLDATALOAD PUSH1 0x1 PUSH1 0x20 SHL DUP2 GT ISZERO PUSH2 0x4AB JUMPI PUSH1 0x0 DUP1 REVERT JUMPDEST DUP3 ADD DUP4 PUSH1 0x20 DUP3 ADD GT ISZERO PUSH2 0x4BD JUMPI PUSH1 0x0 DUP1 REVERT JUMPDEST DUP1 CALLDATALOAD SWAP1 PUSH1 0x20 ADD SWAP2 DUP5 PUSH1 0x20 DUP4 MUL DUP5 ADD GT PUSH1 0x1 PUSH1 0x20 SHL DUP4 GT OR ISZERO PUSH2 0x4DE JUMPI PUSH1 0x0 DUP1 REVERT JUMPDEST SWAP2 SWAP1 DUP1 DUP1 PUSH1 0x20 MUL PUSH1 0x20 ADD PUSH1 0x40 MLOAD SWAP1 DUP2 ADD PUSH1 0x40 MSTORE DUP1 SWAP4 SWAP3 SWAP2 SWAP1 DUP2 DUP2 MSTORE PUSH1 0x20 ADD DUP4 DUP4 PUSH1 0x20 MUL DUP1 DUP3 DUP5 CALLDATACOPY PUSH1 0x0 SWAP3 ADD SWAP2 SWAP1 SWAP2 MSTORE POP SWAP3 SWAP6 POP PUSH2 0x1301 SWAP5 POP POP POP POP POP JUMP JUMPDEST STOP JUMPDEST PUSH2 0x51C PUSH1 0x4 DUP1 CALLDATASIZE SUB PUSH1 0x20 DUP2 LT ISZERO PUSH2 0x534 JUMPI PUSH1 0x0 DUP1 REVERT JUMPDEST POP CALLDATALOAD PUSH1 0x1 PUSH1 0x1 PUSH1 0xA0 SHL SUB AND PUSH2 0x1363 JUMP JUMPDEST PUSH2 0x56A PUSH1 0x4 DUP1 CALLDATASIZE SUB PUSH1 0x20 DUP2 LT ISZERO PUSH2 0x55A JUMPI PUSH1 0x0 DUP1 REVERT JUMPDEST POP CALLDATALOAD PUSH1 0x1 PUSH1 0x1 PUSH1 0xA0 SHL SUB AND PUSH2 0x14C2 JUMP JUMPDEST PUSH1 0x40 DUP1 MLOAD SWAP2 DUP3 MSTORE MLOAD SWAP1 DUP2 SWAP1 SUB PUSH1 0x20 ADD SWAP1 RETURN JUMPDEST PUSH2 0x51C PUSH1 0x4 DUP1 CALLDATASIZE SUB PUSH1 0xA0 DUP2 LT ISZERO PUSH2 0x592 JUMPI PUSH1 0x0 DUP1 REVERT JUMPDEST POP PUSH1 0x1 PUSH1 0x1 PUSH1 0xA0 SHL SUB DUP2 CALLDATALOAD DUP2 AND SWAP2 PUSH1 0x20 DUP2 ADD CALLDATALOAD DUP3 AND SWAP2 PUSH1 0x40 DUP3 ADD CALLDATALOAD AND SWAP1 PUSH1 0x60 DUP2 ADD CALLDATALOAD SWAP1 PUSH1 0x80 ADD CALLDATALOAD PUSH2 0x14D4 JUMP JUMPDEST PUSH2 0x56A PUSH1 0x4 DUP1 CALLDATASIZE SUB PUSH1 0x80 DUP2 LT ISZERO PUSH2 0x5D4 JUMPI PUSH1 0x0 DUP1 REVERT JUMPDEST POP PUSH1 0x1 PUSH1 0x1 PUSH1 0xA0 SHL SUB DUP2 CALLDATALOAD DUP2 AND SWAP2 PUSH1 0x20 DUP2 ADD CALLDATALOAD DUP3 AND SWAP2 PUSH1 0x40 DUP3 ADD CALLDATALOAD AND SWAP1 PUSH1 0x60 ADD CALLDATALOAD PUSH2 0x14DB JUMP JUMPDEST PUSH2 0x602 PUSH2 0x15A4 JUMP JUMPDEST PUSH1 0x40 DUP1 MLOAD PUSH1 0x1 PUSH1 0x1 PUSH1 0xA0 SHL SUB SWAP1 SWAP3 AND DUP3 MSTORE MLOAD SWAP1 DUP2 SWAP1 SUB PUSH1 0x20 ADD SWAP1 RETURN JUMPDEST PUSH2 0x602 PUSH2 0x15B3 JUMP JUMPDEST PUSH2 0x429 PUSH1 0x4 DUP1 CALLDATASIZE SUB PUSH1 0x20 DUP2 LT ISZERO PUSH2 0x63C JUMPI PUSH1 0x0 DUP1 REVERT JUMPDEST POP CALLDATALOAD ISZERO ISZERO PUSH2 0x15C2 JUMP JUMPDEST PUSH2 0x56A PUSH1 0x4 DUP1 CALLDATASIZE SUB PUSH1 0x20 DUP2 LT ISZERO PUSH2 0x65B JUMPI PUSH1 0x0 DUP1 REVERT JUMPDEST POP CALLDATALOAD PUSH2 0x16FC JUMP JUMPDEST PUSH2 0x51C PUSH1 0x4 DUP1 CALLDATASIZE SUB PUSH1 0x20 DUP2 LT ISZERO PUSH2 0x678 JUMPI PUSH1 0x0 DUP1 REVERT JUMPDEST POP CALLDATALOAD PUSH1 0x1 PUSH1 0x1 PUSH1 0xA0 SHL SUB AND PUSH2 0x180D JUMP JUMPDEST PUSH2 0x429 PUSH1 0x4 DUP1 CALLDATASIZE SUB PUSH1 0x40 DUP2 LT ISZERO PUSH2 0x69E JUMPI PUSH1 0x0 DUP1 REVERT JUMPDEST POP PUSH1 0x1 PUSH1 0x1 PUSH1 0xA0 SHL SUB DUP2 CALLDATALOAD AND SWAP1 PUSH1 0x20 ADD CALLDATALOAD ISZERO ISZERO PUSH2 0x193E JUMP JUMPDEST PUSH2 0x429 PUSH2 0x1AD9 JUMP JUMPDEST PUSH2 0x51C PUSH1 0x4 DUP1 CALLDATASIZE SUB PUSH1 0x80 DUP2 LT ISZERO PUSH2 0x6D4 JUMPI PUSH1 0x0 DUP1 REVERT JUMPDEST POP PUSH1 0x1 PUSH1 0x1 PUSH1 0xA0 SHL SUB DUP2 CALLDATALOAD DUP2 AND SWAP2 PUSH1 0x20 DUP2 ADD CALLDATALOAD SWAP1 SWAP2 AND SWAP1 PUSH1 0x40 DUP2 ADD CALLDATALOAD SWAP1 PUSH1 0x60 ADD CALLDATALOAD PUSH2 0x1AE9 JUMP JUMPDEST PUSH2 0x56A PUSH2 0x1AEF JUMP JUMPDEST PUSH2 0x51C PUSH1 0x4 DUP1 CALLDATASIZE SUB PUSH1 0xC0 DUP2 LT ISZERO PUSH2 0x718 JUMPI PUSH1 0x0 DUP1 REVERT JUMPDEST POP PUSH1 0x1 PUSH1 0x1 PUSH1 0xA0 SHL SUB DUP2 CALLDATALOAD DUP2 AND SWAP2 PUSH1 0x20 DUP2 ADD CALLDATALOAD DUP3 AND SWAP2 PUSH1 0x40 DUP3 ADD CALLDATALOAD DUP2 AND SWAP2 PUSH1 0x60 DUP2 ADD CALLDATALOAD SWAP1 SWAP2 AND SWAP1 PUSH1 0x80 DUP2 ADD CALLDATALOAD SWAP1 PUSH1 0xA0 ADD CALLDATALOAD PUSH2 0x1AF4 JUMP JUMPDEST PUSH2 0x56A PUSH2 0x1AFC JUMP JUMPDEST PUSH2 0x51C PUSH2 0x1B02 JUMP JUMPDEST PUSH2 0x79A PUSH1 0x4 DUP1 CALLDATASIZE SUB PUSH1 0x80 DUP2 LT ISZERO PUSH2 0x774 JUMPI PUSH1 0x0 DUP1 REVERT JUMPDEST POP PUSH1 0x1 PUSH1 0x1 PUSH1 0xA0 SHL SUB DUP2 CALLDATALOAD DUP2 AND SWAP2 PUSH1 0x20 DUP2 ADD CALLDATALOAD SWAP1 SWAP2 AND SWAP1 PUSH1 0x40 DUP2 ADD CALLDATALOAD SWAP1 PUSH1 0x60 ADD CALLDATALOAD PUSH2 0x1B4A JUMP JUMPDEST PUSH1 0x40 DUP1 MLOAD SWAP4 DUP5 MSTORE PUSH1 0x20 DUP5 ADD SWAP3 SWAP1 SWAP3 MSTORE DUP3 DUP3 ADD MSTORE MLOAD SWAP1 DUP2 SWAP1 SUB PUSH1 0x60 ADD SWAP1 RETURN JUMPDEST PUSH2 0x56A PUSH1 0x4 DUP1 CALLDATASIZE SUB PUSH1 0x60 DUP2 LT ISZERO PUSH2 0x7CE JUMPI PUSH1 0x0 DUP1 REVERT JUMPDEST POP PUSH1 0x1 PUSH1 0x1 PUSH1 0xA0 SHL SUB DUP2 CALLDATALOAD DUP2 AND SWAP2 PUSH1 0x20 DUP2 ADD CALLDATALOAD SWAP1 SWAP2 AND SWAP1 PUSH1 0x40 ADD CALLDATALOAD PUSH2 0x1B84 JUMP JUMPDEST PUSH2 0x56A PUSH1 0x4 DUP1 CALLDATASIZE SUB PUSH1 0x20 DUP2 LT ISZERO PUSH2 0x804 JUMPI PUSH1 0x0 DUP1 REVERT JUMPDEST POP CALLDATALOAD PUSH2 0x1C2F JUMP JUMPDEST PUSH2 0x51C PUSH1 0x4 DUP1 CALLDATASIZE SUB PUSH1 0x80 DUP2 LT ISZERO PUSH2 0x821 JUMPI PUSH1 0x0 DUP1 REVERT JUMPDEST POP PUSH1 0x1 PUSH1 0x1 PUSH1 0xA0 SHL SUB DUP2 CALLDATALOAD DUP2 AND SWAP2 PUSH1 0x20 DUP2 ADD CALLDATALOAD SWAP1 SWAP2 AND SWAP1 PUSH1 0x40 DUP2 ADD CALLDATALOAD SWAP1 PUSH1 0x60 ADD CALLDATALOAD PUSH2 0x1D23 JUMP JUMPDEST PUSH2 0x602 PUSH1 0x4 DUP1 CALLDATASIZE SUB PUSH1 0x20 DUP2 LT ISZERO PUSH2 0x85D JUMPI PUSH1 0x0 DUP1 REVERT JUMPDEST POP CALLDATALOAD PUSH2 0x1D77 JUMP JUMPDEST PUSH2 0x56A PUSH1 0x4 DUP1 CALLDATASIZE SUB PUSH1 0x20 DUP2 LT ISZERO PUSH2 0x87A JUMPI PUSH1 0x0 DUP1 REVERT JUMPDEST POP CALLDATALOAD PUSH1 0x1 PUSH1 0x1 PUSH1 0xA0 SHL SUB AND PUSH2 0x1D9E JUMP JUMPDEST PUSH2 0x51C PUSH1 0x4 DUP1 CALLDATASIZE SUB PUSH1 0x60 DUP2 LT ISZERO PUSH2 0x8A0 JUMPI PUSH1 0x0 DUP1 REVERT JUMPDEST POP PUSH1 0x1 PUSH1 0x1 PUSH1 0xA0 SHL SUB DUP2 CALLDATALOAD DUP2 AND SWAP2 PUSH1 0x20 DUP2 ADD CALLDATALOAD SWAP1 SWAP2 AND SWAP1 PUSH1 0x40 ADD CALLDATALOAD PUSH2 0x1E25 JUMP JUMPDEST PUSH2 0x79A PUSH1 0x4 DUP1 CALLDATASIZE SUB PUSH1 0x20 DUP2 LT ISZERO PUSH2 0x8D6 JUMPI PUSH1 0x0 DUP1 REVERT JUMPDEST POP CALLDATALOAD PUSH1 0x1 PUSH1 0x1 PUSH1 0xA0 SHL SUB AND PUSH2 0x1E2A JUMP JUMPDEST PUSH2 0x56A PUSH1 0x4 DUP1 CALLDATASIZE SUB PUSH1 0x20 DUP2 LT ISZERO PUSH2 0x8FC JUMPI PUSH1 0x0 DUP1 REVERT JUMPDEST POP CALLDATALOAD PUSH1 0x1 PUSH1 0x1 PUSH1 0xA0 SHL SUB AND PUSH2 0x1E5F JUMP JUMPDEST PUSH2 0x56A PUSH1 0x4 DUP1 CALLDATASIZE SUB PUSH1 0xA0 DUP2 LT ISZERO PUSH2 0x922 JUMPI PUSH1 0x0 DUP1 REVERT JUMPDEST POP PUSH1 0x1 PUSH1 0x1 PUSH1 0xA0 SHL SUB DUP2 CALLDATALOAD DUP2 AND SWAP2 PUSH1 0x20 DUP2 ADD CALLDATALOAD DUP3 AND SWAP2 PUSH1 0x40 DUP3 ADD CALLDATALOAD DUP2 AND SWAP2 PUSH1 0x60 DUP2 ADD CALLDATALOAD SWAP1 SWAP2 AND SWAP1 PUSH1 0x80 ADD CALLDATALOAD PUSH2 0x1EE3 JUMP JUMPDEST PUSH2 0x51C PUSH1 0x4 DUP1 CALLDATASIZE SUB PUSH1 0x80 DUP2 LT ISZERO PUSH2 0x968 JUMPI PUSH1 0x0 DUP1 REVERT JUMPDEST DUP2 ADD SWAP1 PUSH1 0x20 DUP2 ADD DUP2 CALLDATALOAD PUSH1 0x1 PUSH1 0x20 SHL DUP2 GT ISZERO PUSH2 0x982 JUMPI PUSH1 0x0 DUP1 REVERT JUMPDEST DUP3 ADD DUP4 PUSH1 0x20 DUP3 ADD GT ISZERO PUSH2 0x994 JUMPI PUSH1 0x0 DUP1 REVERT JUMPDEST DUP1 CALLDATALOAD SWAP1 PUSH1 0x20 ADD SWAP2 DUP5 PUSH1 0x20 DUP4 MUL DUP5 ADD GT PUSH1 0x1 PUSH1 0x20 SHL DUP4 GT OR ISZERO PUSH2 0x9B5 JUMPI PUSH1 0x0 DUP1 REVERT JUMPDEST SWAP2 SWAP1 DUP1 DUP1 PUSH1 0x20 MUL PUSH1 0x20 ADD PUSH1 0x40 MLOAD SWAP1 DUP2 ADD PUSH1 0x40 MSTORE DUP1 SWAP4 SWAP3 SWAP2 SWAP1 DUP2 DUP2 MSTORE PUSH1 0x20 ADD DUP4 DUP4 PUSH1 0x20 MUL DUP1 DUP3 DUP5 CALLDATACOPY PUSH1 0x0 SWAP3 ADD SWAP2 SWAP1 SWAP2 MSTORE POP SWAP3 SWAP6 SWAP5 SWAP4 PUSH1 0x20 DUP2 ADD SWAP4 POP CALLDATALOAD SWAP2 POP POP PUSH1 0x1 PUSH1 0x20 SHL DUP2 GT ISZERO PUSH2 0xA04 JUMPI PUSH1 0x0 DUP1 REVERT JUMPDEST DUP3 ADD DUP4 PUSH1 0x20 DUP3 ADD GT ISZERO PUSH2 0xA16 JUMPI PUSH1 0x0 DUP1 REVERT JUMPDEST DUP1 CALLDATALOAD SWAP1 PUSH1 0x20 ADD SWAP2 DUP5 PUSH1 0x20 DUP4 MUL DUP5 ADD GT PUSH1 0x1 PUSH1 0x20 SHL DUP4 GT OR ISZERO PUSH2 0xA37 JUMPI PUSH1 0x0 DUP1 REVERT JUMPDEST SWAP2 SWAP1 DUP1 DUP1 PUSH1 0x20 MUL PUSH1 0x20 ADD PUSH1 0x40 MLOAD SWAP1 DUP2 ADD PUSH1 0x40 MSTORE DUP1 SWAP4 SWAP3 SWAP2 SWAP1 DUP2 DUP2 MSTORE PUSH1 0x20 ADD DUP4 DUP4 PUSH1 0x20 MUL DUP1 DUP3 DUP5 CALLDATACOPY PUSH1 0x0 SWAP3 ADD SWAP2 SWAP1 SWAP2 MSTORE POP SWAP3 SWAP6 POP POP POP POP DUP1 CALLDATALOAD ISZERO ISZERO SWAP2 POP PUSH1 0x20 ADD CALLDATALOAD ISZERO ISZERO PUSH2 0x206A JUMP JUMPDEST PUSH2 0x51C PUSH1 0x4 DUP1 CALLDATASIZE SUB PUSH1 0x20 DUP2 LT ISZERO PUSH2 0xA94 JUMPI PUSH1 0x0 DUP1 REVERT JUMPDEST POP CALLDATALOAD PUSH2 0x2213 JUMP JUMPDEST PUSH2 0x51C PUSH1 0x4 DUP1 CALLDATASIZE SUB PUSH1 0x80 DUP2 LT ISZERO PUSH2 0xAB1 JUMPI PUSH1 0x0 DUP1 REVERT JUMPDEST POP PUSH1 0x1 PUSH1 0x1 PUSH1 0xA0 SHL SUB DUP2 CALLDATALOAD DUP2 AND SWAP2 PUSH1 0x20 DUP2 ADD CALLDATALOAD DUP3 AND SWAP2 PUSH1 0x40 DUP3 ADD CALLDATALOAD AND SWAP1 PUSH1 0x60 ADD CALLDATALOAD PUSH2 0x1AE9 JUMP JUMPDEST PUSH2 0xAFD PUSH1 0x4 DUP1 CALLDATASIZE SUB PUSH1 0x20 DUP2 LT ISZERO PUSH2 0xAED JUMPI PUSH1 0x0 DUP1 REVERT JUMPDEST POP CALLDATALOAD PUSH1 0x1 PUSH1 0x1 PUSH1 0xA0 SHL SUB AND PUSH2 0x22B7 JUMP JUMPDEST PUSH1 0x40 DUP1 MLOAD PUSH1 0x1 PUSH1 0x1 PUSH1 0xE0 SHL SUB SWAP1 SWAP4 AND DUP4 MSTORE PUSH4 0xFFFFFFFF SWAP1 SWAP2 AND PUSH1 0x20 DUP4 ADD MSTORE DUP1 MLOAD SWAP2 DUP3 SWAP1 SUB ADD SWAP1 RETURN JUMPDEST PUSH2 0x429 PUSH1 0x4 DUP1 CALLDATASIZE SUB PUSH1 0x20 DUP2 LT ISZERO PUSH2 0xB3B JUMPI PUSH1 0x0 DUP1 REVERT JUMPDEST POP CALLDATALOAD PUSH1 0x1 PUSH1 0x1 PUSH1 0xA0 SHL SUB AND PUSH2 0x22E1 JUMP JUMPDEST PUSH2 0x51C PUSH1 0x4 DUP1 CALLDATASIZE SUB PUSH1 0xA0 DUP2 LT ISZERO PUSH2 0xB61 JUMPI PUSH1 0x0 DUP1 REVERT JUMPDEST POP PUSH1 0x1 PUSH1 0x1 PUSH1 0xA0 SHL SUB DUP2 CALLDATALOAD DUP2 AND SWAP2 PUSH1 0x20 DUP2 ADD CALLDATALOAD DUP3 AND SWAP2 PUSH1 0x40 DUP3 ADD CALLDATALOAD DUP2 AND SWAP2 PUSH1 0x60 DUP2 ADD CALLDATALOAD SWAP1 SWAP2 AND SWAP1 PUSH1 0x80 ADD CALLDATALOAD PUSH2 0x14D4 JUMP JUMPDEST PUSH2 0x429 PUSH1 0x4 DUP1 CALLDATASIZE SUB PUSH1 0x20 DUP2 LT ISZERO PUSH2 0xBA7 JUMPI PUSH1 0x0 DUP1 REVERT JUMPDEST POP CALLDATALOAD PUSH1 0x1 PUSH1 0x1 PUSH1 0xA0 SHL SUB AND PUSH2 0x22F6 JUMP JUMPDEST PUSH2 0x56A PUSH2 0x230B JUMP JUMPDEST PUSH2 0x602 PUSH2 0x2316 JUMP JUMPDEST PUSH2 0x429 PUSH2 0x2325 JUMP JUMPDEST PUSH2 0xAFD PUSH1 0x4 DUP1 CALLDATASIZE SUB PUSH1 0x20 DUP2 LT ISZERO PUSH2 0xBE5 JUMPI PUSH1 0x0 DUP1 REVERT JUMPDEST POP CALLDATALOAD PUSH1 0x1 PUSH1 0x1 PUSH1 0xA0 SHL SUB AND PUSH2 0x2335 JUMP JUMPDEST PUSH2 0xC1B PUSH1 0x4 DUP1 CALLDATASIZE SUB PUSH1 0x20 DUP2 LT ISZERO PUSH2 0xC0B JUMPI PUSH1 0x0 DUP1 REVERT JUMPDEST POP CALLDATALOAD PUSH1 0x1 PUSH1 0x1 PUSH1 0xA0 SHL SUB AND PUSH2 0x235F JUMP JUMPDEST PUSH1 0x40 DUP1 MLOAD SWAP4 ISZERO ISZERO DUP5 MSTORE PUSH1 0x20 DUP5 ADD SWAP3 SWAP1 SWAP3 MSTORE ISZERO ISZERO DUP3 DUP3 ADD MSTORE MLOAD SWAP1 DUP2 SWAP1 SUB PUSH1 0x60 ADD SWAP1 RETURN JUMPDEST PUSH2 0x429 PUSH1 0x4 DUP1 CALLDATASIZE SUB PUSH1 0x20 DUP2 LT ISZERO PUSH2 0xC53 JUMPI PUSH1 0x0 DUP1 REVERT JUMPDEST POP CALLDATALOAD ISZERO ISZERO PUSH2 0x2385 JUMP JUMPDEST PUSH2 0x429 PUSH1 0x4 DUP1 CALLDATASIZE SUB PUSH1 0x40 DUP2 LT ISZERO PUSH2 0xC72 JUMPI PUSH1 0x0 DUP1 REVERT JUMPDEST POP PUSH1 0x1 PUSH1 0x1 PUSH1 0xA0 SHL SUB DUP2 CALLDATALOAD DUP2 AND SWAP2 PUSH1 0x20 ADD CALLDATALOAD AND PUSH2 0x24BE JUMP JUMPDEST PUSH2 0x56A PUSH2 0x24F1 JUMP JUMPDEST PUSH2 0x602 PUSH2 0x24F7 JUMP JUMPDEST PUSH2 0x56A PUSH1 0x4 DUP1 CALLDATASIZE SUB PUSH1 0x20 DUP2 LT ISZERO PUSH2 0xCB0 JUMPI PUSH1 0x0 DUP1 REVERT JUMPDEST POP CALLDATALOAD PUSH1 0x1 PUSH1 0x1 PUSH1 0xA0 SHL SUB AND PUSH2 0x250F JUMP JUMPDEST PUSH2 0xCC8 PUSH2 0x266C JUMP JUMPDEST PUSH1 0x40 DUP1 MLOAD PUSH1 0x1 PUSH1 0x1 PUSH1 0xE0 SHL SUB SWAP1 SWAP3 AND DUP3 MSTORE MLOAD SWAP1 DUP2 SWAP1 SUB PUSH1 0x20 ADD SWAP1 RETURN JUMPDEST PUSH2 0x56A PUSH2 0x267F JUMP JUMPDEST PUSH2 0xD12 PUSH1 0x4 DUP1 CALLDATASIZE SUB PUSH1 0x20 DUP2 LT ISZERO PUSH2 0xD02 JUMPI PUSH1 0x0 DUP1 REVERT JUMPDEST POP CALLDATALOAD PUSH1 0x1 PUSH1 0x1 PUSH1 0xA0 SHL SUB AND PUSH2 0x2685 JUMP JUMPDEST PUSH1 0x40 DUP1 MLOAD PUSH1 0x20 DUP1 DUP3 MSTORE DUP4 MLOAD DUP2 DUP4 ADD MSTORE DUP4 MLOAD SWAP2 SWAP3 DUP4 SWAP3 SWAP1 DUP4 ADD SWAP2 DUP6 DUP2 ADD SWAP2 MUL DUP1 DUP4 DUP4 PUSH1 0x0 JUMPDEST DUP4 DUP2 LT ISZERO PUSH2 0xD4E JUMPI DUP2 DUP2 ADD MLOAD DUP4 DUP3 ADD MSTORE PUSH1 0x20 ADD PUSH2 0xD36 JUMP JUMPDEST POP POP POP POP SWAP1 POP ADD SWAP3 POP POP POP PUSH1 0x40 MLOAD DUP1 SWAP2 SUB SWAP1 RETURN JUMPDEST PUSH2 0x429 PUSH2 0x270E JUMP JUMPDEST PUSH2 0xD12 PUSH2 0x271E JUMP JUMPDEST PUSH2 0x56A PUSH1 0x4 DUP1 CALLDATASIZE SUB PUSH1 0x40 DUP2 LT ISZERO PUSH2 0xD88 JUMPI PUSH1 0x0 DUP1 REVERT JUMPDEST POP PUSH1 0x1 PUSH1 0x1 PUSH1 0xA0 SHL SUB DUP2 CALLDATALOAD DUP2 AND SWAP2 PUSH1 0x20 ADD CALLDATALOAD AND PUSH2 0x2780 JUMP JUMPDEST PUSH2 0x602 PUSH2 0x279D JUMP JUMPDEST PUSH2 0x56A PUSH1 0x4 DUP1 CALLDATASIZE SUB PUSH1 0x80 DUP2 LT ISZERO PUSH2 0xDBE JUMPI PUSH1 0x0 DUP1 REVERT JUMPDEST POP PUSH1 0x1 PUSH1 0x1 PUSH1 0xA0 SHL SUB DUP2 CALLDATALOAD DUP2 AND SWAP2 PUSH1 0x20 DUP2 ADD CALLDATALOAD DUP3 AND SWAP2 PUSH1 0x40 DUP3 ADD CALLDATALOAD AND SWAP1 PUSH1 0x60 ADD CALLDATALOAD PUSH2 0x27AC JUMP JUMPDEST PUSH2 0xD12 PUSH1 0x4 DUP1 CALLDATASIZE SUB PUSH1 0x20 DUP2 LT ISZERO PUSH2 0xDFA JUMPI PUSH1 0x0 DUP1 REVERT JUMPDEST DUP2 ADD SWAP1 PUSH1 0x20 DUP2 ADD DUP2 CALLDATALOAD PUSH1 0x1 PUSH1 0x20 SHL DUP2 GT ISZERO PUSH2 0xE14 JUMPI PUSH1 0x0 DUP1 REVERT JUMPDEST DUP3 ADD DUP4 PUSH1 0x20 DUP3 ADD GT ISZERO PUSH2 0xE26 JUMPI PUSH1 0x0 DUP1 REVERT JUMPDEST DUP1 CALLDATALOAD SWAP1 PUSH1 0x20 ADD SWAP2 DUP5 PUSH1 0x20 DUP4 MUL DUP5 ADD GT PUSH1 0x1 PUSH1 0x20 SHL DUP4 GT OR ISZERO PUSH2 0xE47 JUMPI PUSH1 0x0 DUP1 REVERT JUMPDEST SWAP2 SWAP1 DUP1 DUP1 PUSH1 0x20 MUL PUSH1 0x20 ADD PUSH1 0x40 MLOAD SWAP1 DUP2 ADD PUSH1 0x40 MSTORE DUP1 SWAP4 SWAP3 SWAP2 SWAP1 DUP2 DUP2 MSTORE PUSH1 0x20 ADD DUP4 DUP4 PUSH1 0x20 MUL DUP1 DUP3 DUP5 CALLDATACOPY PUSH1 0x0 SWAP3 ADD SWAP2 SWAP1 SWAP2 MSTORE POP SWAP3 SWAP6 POP PUSH2 0x2840 SWAP5 POP POP POP POP POP JUMP JUMPDEST PUSH2 0xEBB PUSH1 0x4 DUP1 CALLDATASIZE SUB PUSH1 0x60 DUP2 LT ISZERO PUSH2 0xE9B JUMPI PUSH1 0x0 DUP1 REVERT JUMPDEST POP PUSH1 0x1 PUSH1 0x1 PUSH1 0xA0 SHL SUB DUP2 CALLDATALOAD DUP2 AND SWAP2 PUSH1 0x20 DUP2 ADD CALLDATALOAD SWAP1 SWAP2 AND SWAP1 PUSH1 0x40 ADD CALLDATALOAD PUSH2 0x28D7 JUMP JUMPDEST PUSH1 0x40 DUP1 MLOAD SWAP3 DUP4 MSTORE PUSH1 0x20 DUP4 ADD SWAP2 SWAP1 SWAP2 MSTORE DUP1 MLOAD SWAP2 DUP3 SWAP1 SUB ADD SWAP1 RETURN JUMPDEST PUSH2 0x56A PUSH1 0x4 DUP1 CALLDATASIZE SUB PUSH1 0x40 DUP2 LT ISZERO PUSH2 0xEEA JUMPI PUSH1 0x0 DUP1 REVERT JUMPDEST POP PUSH1 0x1 PUSH1 0x1 PUSH1 0xA0 SHL SUB DUP2 CALLDATALOAD DUP2 AND SWAP2 PUSH1 0x20 ADD CALLDATALOAD AND PUSH2 0x2B4C JUMP JUMPDEST PUSH2 0x56A PUSH1 0x4 DUP1 CALLDATASIZE SUB PUSH1 0x20 DUP2 LT ISZERO PUSH2 0xF18 JUMPI PUSH1 0x0 DUP1 REVERT JUMPDEST POP CALLDATALOAD PUSH1 0x1 PUSH1 0x1 PUSH1 0xA0 SHL SUB AND PUSH2 0x2B69 JUMP JUMPDEST PUSH2 0x51C PUSH1 0x4 DUP1 CALLDATASIZE SUB PUSH1 0x20 DUP2 LT ISZERO PUSH2 0xF3E JUMPI PUSH1 0x0 DUP1 REVERT JUMPDEST DUP2 ADD SWAP1 PUSH1 0x20 DUP2 ADD DUP2 CALLDATALOAD PUSH1 0x1 PUSH1 0x20 SHL DUP2 GT ISZERO PUSH2 0xF58 JUMPI PUSH1 0x0 DUP1 REVERT JUMPDEST DUP3 ADD DUP4 PUSH1 0x20 DUP3 ADD GT ISZERO PUSH2 0xF6A JUMPI PUSH1 0x0 DUP1 REVERT JUMPDEST DUP1 CALLDATALOAD SWAP1 PUSH1 0x20 ADD SWAP2 DUP5 PUSH1 0x20 DUP4 MUL DUP5 ADD GT PUSH1 0x1 PUSH1 0x20 SHL DUP4 GT OR ISZERO PUSH2 0xF8B JUMPI PUSH1 0x0 DUP1 REVERT JUMPDEST SWAP2 SWAP1 DUP1 DUP1 PUSH1 0x20 MUL PUSH1 0x20 ADD PUSH1 0x40 MLOAD SWAP1 DUP2 ADD PUSH1 0x40 MSTORE DUP1 SWAP4 SWAP3 SWAP2 SWAP1 DUP2 DUP2 MSTORE PUSH1 0x20 ADD DUP4 DUP4 PUSH1 0x20 MUL DUP1 DUP3 DUP5 CALLDATACOPY PUSH1 0x0 SWAP3 ADD SWAP2 SWAP1 SWAP2 MSTORE POP SWAP3 SWAP6 POP PUSH2 0x2B7B SWAP5 POP POP POP POP POP JUMP JUMPDEST PUSH2 0x56A PUSH1 0x4 DUP1 CALLDATASIZE SUB PUSH1 0xA0 DUP2 LT ISZERO PUSH2 0xFDF JUMPI PUSH1 0x0 DUP1 REVERT JUMPDEST POP PUSH1 0x1 PUSH1 0x1 PUSH1 0xA0 SHL SUB DUP2 CALLDATALOAD DUP2 AND SWAP2 PUSH1 0x20 DUP2 ADD CALLDATALOAD DUP3 AND SWAP2 PUSH1 0x40 DUP3 ADD CALLDATALOAD DUP2 AND SWAP2 PUSH1 0x60 DUP2 ADD CALLDATALOAD SWAP1 SWAP2 AND SWAP1 PUSH1 0x80 ADD CALLDATALOAD PUSH2 0x2C0D JUMP JUMPDEST PUSH2 0x56A PUSH1 0x4 DUP1 CALLDATASIZE SUB PUSH1 0x20 DUP2 LT ISZERO PUSH2 0x1025 JUMPI PUSH1 0x0 DUP1 REVERT JUMPDEST POP CALLDATALOAD PUSH2 0x2DC5 JUMP JUMPDEST PUSH2 0x56A PUSH1 0x4 DUP1 CALLDATASIZE SUB PUSH1 0x60 DUP2 LT ISZERO PUSH2 0x1042 JUMPI PUSH1 0x0 DUP1 REVERT JUMPDEST POP PUSH1 0x1 PUSH1 0x1 PUSH1 0xA0 SHL SUB DUP2 CALLDATALOAD DUP2 AND SWAP2 PUSH1 0x20 DUP2 ADD CALLDATALOAD SWAP1 SWAP2 AND SWAP1 PUSH1 0x40 ADD CALLDATALOAD PUSH2 0x2E2E JUMP JUMPDEST PUSH2 0x602 PUSH1 0x4 DUP1 CALLDATASIZE SUB PUSH1 0x40 DUP2 LT ISZERO PUSH2 0x1078 JUMPI PUSH1 0x0 DUP1 REVERT JUMPDEST POP PUSH1 0x1 PUSH1 0x1 PUSH1 0xA0 SHL SUB DUP2 CALLDATALOAD AND SWAP1 PUSH1 0x20 ADD CALLDATALOAD PUSH2 0x311B JUMP JUMPDEST PUSH2 0x602 PUSH2 0x3150 JUMP JUMPDEST PUSH2 0x56A PUSH1 0x4 DUP1 CALLDATASIZE SUB PUSH1 0x40 DUP2 LT ISZERO PUSH2 0x10AC JUMPI PUSH1 0x0 DUP1 REVERT JUMPDEST POP PUSH1 0x1 PUSH1 0x1 PUSH1 0xA0 SHL SUB DUP2 CALLDATALOAD AND SWAP1 PUSH1 0x20 ADD CALLDATALOAD PUSH2 0x315F JUMP JUMPDEST PUSH2 0x429 PUSH2 0x330F JUMP JUMPDEST PUSH2 0x56A PUSH2 0x331F JUMP JUMPDEST PUSH2 0x51C PUSH1 0x4 DUP1 CALLDATASIZE SUB PUSH1 0x20 DUP2 LT ISZERO PUSH2 0x10E8 JUMPI PUSH1 0x0 DUP1 REVERT JUMPDEST POP CALLDATALOAD PUSH1 0x1 PUSH1 0x1 PUSH1 0xA0 SHL SUB AND PUSH2 0x3325 JUMP JUMPDEST PUSH2 0x56A PUSH1 0x4 DUP1 CALLDATASIZE SUB PUSH1 0x60 DUP2 LT ISZERO PUSH2 0x110E JUMPI PUSH1 0x0 DUP1 REVERT JUMPDEST POP PUSH1 0x1 PUSH1 0x1 PUSH1 0xA0 SHL SUB DUP2 CALLDATALOAD DUP2 AND SWAP2 PUSH1 0x20 DUP2 ADD CALLDATALOAD SWAP1 SWAP2 AND SWAP1 PUSH1 0x40 ADD CALLDATALOAD PUSH2 0x3389 JUMP JUMPDEST PUSH2 0x56A PUSH1 0x4 DUP1 CALLDATASIZE SUB PUSH1 0x20 DUP2 LT ISZERO PUSH2 0x1144 JUMPI PUSH1 0x0 DUP1 REVERT JUMPDEST POP CALLDATALOAD PUSH1 0x1 PUSH1 0x1 PUSH1 0xA0 SHL SUB AND PUSH2 0x33C6 JUMP JUMPDEST PUSH2 0x602 PUSH2 0x36D9 JUMP JUMPDEST PUSH1 0x1 DUP2 JUMP JUMPDEST PUSH1 0x1 PUSH1 0x1 PUSH1 0xA0 SHL SUB DUP3 AND PUSH1 0x0 SWAP1 DUP2 MSTORE PUSH1 0x9 PUSH1 0x20 MSTORE PUSH1 0x40 DUP2 KECCAK256 SLOAD PUSH1 0xFF AND PUSH2 0x11B8 JUMPI PUSH1 0x40 MLOAD PUSH3 0x461BCD PUSH1 0xE5 SHL DUP2 MSTORE PUSH1 0x4 ADD DUP1 DUP1 PUSH1 0x20 ADD DUP3 DUP2 SUB DUP3 MSTORE PUSH1 0x28 DUP2 MSTORE PUSH1 0x20 ADD DUP1 PUSH2 0x5929 PUSH1 0x28 SWAP2 CODECOPY PUSH1 0x40 ADD SWAP2 POP POP PUSH1 0x40 MLOAD DUP1 SWAP2 SUB SWAP1 REVERT JUMPDEST PUSH1 0xA SLOAD PUSH1 0x1 PUSH1 0x1 PUSH1 0xA0 SHL SUB AND CALLER EQ DUP1 PUSH2 0x11DB JUMPI POP PUSH1 0x0 SLOAD PUSH1 0x1 PUSH1 0x1 PUSH1 0xA0 SHL SUB AND CALLER EQ JUMPDEST PUSH2 0x1216 JUMPI PUSH1 0x40 MLOAD PUSH3 0x461BCD PUSH1 0xE5 SHL DUP2 MSTORE PUSH1 0x4 ADD DUP1 DUP1 PUSH1 0x20 ADD DUP3 DUP2 SUB DUP3 MSTORE PUSH1 0x27 DUP2 MSTORE PUSH1 0x20 ADD DUP1 PUSH2 0x5982 PUSH1 0x27 SWAP2 CODECOPY PUSH1 0x40 ADD SWAP2 POP POP PUSH1 0x40 MLOAD DUP1 SWAP2 SUB SWAP1 REVERT JUMPDEST PUSH1 0x0 SLOAD PUSH1 0x1 PUSH1 0x1 PUSH1 0xA0 SHL SUB AND CALLER EQ DUP1 PUSH2 0x1231 JUMPI POP PUSH1 0x1 DUP3 ISZERO ISZERO EQ JUMPDEST PUSH2 0x127B JUMPI PUSH1 0x40 DUP1 MLOAD PUSH3 0x461BCD PUSH1 0xE5 SHL DUP2 MSTORE PUSH1 0x20 PUSH1 0x4 DUP3 ADD MSTORE PUSH1 0x16 PUSH1 0x24 DUP3 ADD MSTORE PUSH22 0x6F6E6C792061646D696E2063616E20756E7061757365 PUSH1 0x50 SHL PUSH1 0x44 DUP3 ADD MSTORE SWAP1 MLOAD SWAP1 DUP2 SWAP1 SUB PUSH1 0x64 ADD SWAP1 REVERT JUMPDEST PUSH1 0x1 PUSH1 0x1 PUSH1 0xA0 SHL SUB DUP4 AND PUSH1 0x0 DUP2 DUP2 MSTORE PUSH1 0xC PUSH1 0x20 SWAP1 DUP2 MSTORE PUSH1 0x40 SWAP2 DUP3 SWAP1 KECCAK256 DUP1 SLOAD DUP7 ISZERO ISZERO PUSH1 0xFF NOT SWAP1 SWAP2 AND DUP2 OR SWAP1 SWAP2 SSTORE DUP3 MLOAD SWAP4 DUP5 MSTORE DUP4 DUP4 ADD MSTORE PUSH1 0x60 SWAP1 DUP4 ADD DUP2 SWAP1 MSTORE PUSH1 0x6 SWAP1 DUP4 ADD MSTORE PUSH6 0x426F72726F77 PUSH1 0xD0 SHL PUSH1 0x80 DUP4 ADD MSTORE MLOAD PUSH32 0x71AEC636243F9709BB0007AE15E9AFB8150AB01716D75FD7573BE5CC096E03B0 SWAP2 DUP2 SWAP1 SUB PUSH1 0xA0 ADD SWAP1 LOG1 POP DUP1 JUMPDEST SWAP3 SWAP2 POP POP JUMP JUMPDEST PUSH1 0x40 DUP1 MLOAD PUSH1 0x1 DUP1 DUP3 MSTORE DUP2 DUP4 ADD SWAP1 SWAP3 MSTORE PUSH1 0x60 SWAP2 PUSH1 0x20 DUP1 DUP4 ADD SWAP1 DUP1 CODESIZE DUP4 CODECOPY ADD SWAP1 POP POP SWAP1 POP DUP3 DUP2 PUSH1 0x0 DUP2 MLOAD DUP2 LT PUSH2 0x1331 JUMPI INVALID JUMPDEST PUSH1 0x20 MUL PUSH1 0x20 ADD ADD SWAP1 PUSH1 0x1 PUSH1 0x1 PUSH1 0xA0 SHL SUB AND SWAP1 DUP2 PUSH1 0x1 PUSH1 0x1 PUSH1 0xA0 SHL SUB AND DUP2 MSTORE POP POP PUSH2 0x135E DUP2 DUP4 PUSH1 0x1 DUP1 PUSH2 0x206A JUMP JUMPDEST POP POP POP JUMP JUMPDEST DUP1 PUSH1 0x1 PUSH1 0x1 PUSH1 0xA0 SHL SUB AND PUSH4 0xF851A440 PUSH1 0x40 MLOAD DUP2 PUSH4 0xFFFFFFFF AND PUSH1 0xE0 SHL DUP2 MSTORE PUSH1 0x4 ADD PUSH1 0x20 PUSH1 0x40 MLOAD DUP1 DUP4 SUB DUP2 DUP7 DUP1 EXTCODESIZE ISZERO DUP1 ISZERO PUSH2 0x139C JUMPI PUSH1 0x0 DUP1 REVERT JUMPDEST POP GAS STATICCALL ISZERO DUP1 ISZERO PUSH2 0x13B0 JUMPI RETURNDATASIZE PUSH1 0x0 DUP1 RETURNDATACOPY RETURNDATASIZE PUSH1 0x0 REVERT JUMPDEST POP POP POP POP PUSH1 0x40 MLOAD RETURNDATASIZE PUSH1 0x20 DUP2 LT ISZERO PUSH2 0x13C6 JUMPI PUSH1 0x0 DUP1 REVERT JUMPDEST POP MLOAD PUSH1 0x1 PUSH1 0x1 PUSH1 0xA0 SHL SUB AND CALLER EQ PUSH2 0x140E JUMPI PUSH1 0x40 MLOAD PUSH3 0x461BCD PUSH1 0xE5 SHL DUP2 MSTORE PUSH1 0x4 ADD DUP1 DUP1 PUSH1 0x20 ADD DUP3 DUP2 SUB DUP3 MSTORE PUSH1 0x27 DUP2 MSTORE PUSH1 0x20 ADD DUP1 PUSH2 0x59EE PUSH1 0x27 SWAP2 CODECOPY PUSH1 0x40 ADD SWAP2 POP POP PUSH1 0x40 MLOAD DUP1 SWAP2 SUB SWAP1 REVERT JUMPDEST DUP1 PUSH1 0x1 PUSH1 0x1 PUSH1 0xA0 SHL SUB AND PUSH4 0xC1E80334 PUSH1 0x40 MLOAD DUP2 PUSH4 0xFFFFFFFF AND PUSH1 0xE0 SHL DUP2 MSTORE PUSH1 0x4 ADD PUSH1 0x20 PUSH1 0x40 MLOAD DUP1 DUP4 SUB DUP2 PUSH1 0x0 DUP8 DUP1 EXTCODESIZE ISZERO DUP1 ISZERO PUSH2 0x1449 JUMPI PUSH1 0x0 DUP1 REVERT JUMPDEST POP GAS CALL ISZERO DUP1 ISZERO PUSH2 0x145D JUMPI RETURNDATASIZE PUSH1 0x0 DUP1 RETURNDATACOPY RETURNDATASIZE PUSH1 0x0 REVERT JUMPDEST POP POP POP POP PUSH1 0x40 MLOAD RETURNDATASIZE PUSH1 0x20 DUP2 LT ISZERO PUSH2 0x1473 JUMPI PUSH1 0x0 DUP1 REVERT JUMPDEST POP MLOAD ISZERO PUSH2 0x14BF JUMPI PUSH1 0x40 DUP1 MLOAD PUSH3 0x461BCD PUSH1 0xE5 SHL DUP2 MSTORE PUSH1 0x20 PUSH1 0x4 DUP3 ADD MSTORE PUSH1 0x15 PUSH1 0x24 DUP3 ADD MSTORE PUSH21 0x18DA185B99D9481B9BDD08185D5D1A1BDC9A5E9959 PUSH1 0x5A SHL PUSH1 0x44 DUP3 ADD MSTORE SWAP1 MLOAD SWAP1 DUP2 SWAP1 SUB PUSH1 0x64 ADD SWAP1 REVERT JUMPDEST POP JUMP JUMPDEST PUSH1 0xF PUSH1 0x20 MSTORE PUSH1 0x0 SWAP1 DUP2 MSTORE PUSH1 0x40 SWAP1 KECCAK256 SLOAD DUP2 JUMP JUMPDEST POP POP POP POP POP JUMP JUMPDEST PUSH1 0x1 PUSH1 0x1 PUSH1 0xA0 SHL SUB DUP5 AND PUSH1 0x0 SWAP1 DUP2 MSTORE PUSH1 0x9 PUSH1 0x20 MSTORE PUSH1 0x40 DUP2 KECCAK256 SLOAD PUSH1 0xFF AND PUSH2 0x1503 JUMPI POP PUSH1 0x9 PUSH2 0x159C JUMP JUMPDEST PUSH2 0x150B PUSH2 0x5869 JUMP JUMPDEST PUSH1 0x40 MLOAD DUP1 PUSH1 0x20 ADD PUSH1 0x40 MSTORE DUP1 DUP8 PUSH1 0x1 PUSH1 0x1 PUSH1 0xA0 SHL SUB AND PUSH4 0xAA5AF0FD PUSH1 0x40 MLOAD DUP2 PUSH4 0xFFFFFFFF AND PUSH1 0xE0 SHL DUP2 MSTORE PUSH1 0x4 ADD PUSH1 0x20 PUSH1 0x40 MLOAD DUP1 DUP4 SUB DUP2 DUP7 DUP1 EXTCODESIZE ISZERO DUP1 ISZERO PUSH2 0x154F JUMPI PUSH1 0x0 DUP1 REVERT JUMPDEST POP GAS STATICCALL ISZERO DUP1 ISZERO PUSH2 0x1563 JUMPI RETURNDATASIZE PUSH1 0x0 DUP1 RETURNDATACOPY RETURNDATASIZE PUSH1 0x0 REVERT JUMPDEST POP POP POP POP PUSH1 0x40 MLOAD RETURNDATASIZE PUSH1 0x20 DUP2 LT ISZERO PUSH2 0x1579 JUMPI PUSH1 0x0 DUP1 REVERT JUMPDEST POP MLOAD SWAP1 MSTORE SWAP1 POP PUSH2 0x1589 DUP7 DUP3 PUSH2 0x36E8 JUMP JUMPDEST PUSH2 0x1596 DUP7 DUP6 DUP4 PUSH1 0x0 PUSH2 0x3970 JUMP JUMPDEST PUSH1 0x0 SWAP2 POP POP JUMPDEST SWAP5 SWAP4 POP POP POP POP JUMP JUMPDEST PUSH1 0xA SLOAD PUSH1 0x1 PUSH1 0x1 PUSH1 0xA0 SHL SUB AND DUP2 JUMP JUMPDEST PUSH1 0x1 SLOAD PUSH1 0x1 PUSH1 0x1 PUSH1 0xA0 SHL SUB AND DUP2 JUMP JUMPDEST PUSH1 0xA SLOAD PUSH1 0x0 SWAP1 PUSH1 0x1 PUSH1 0x1 PUSH1 0xA0 SHL SUB AND CALLER EQ DUP1 PUSH2 0x15E8 JUMPI POP PUSH1 0x0 SLOAD PUSH1 0x1 PUSH1 0x1 PUSH1 0xA0 SHL SUB AND CALLER EQ JUMPDEST PUSH2 0x1623 JUMPI PUSH1 0x40 MLOAD PUSH3 0x461BCD PUSH1 0xE5 SHL DUP2 MSTORE PUSH1 0x4 ADD DUP1 DUP1 PUSH1 0x20 ADD DUP3 DUP2 SUB DUP3 MSTORE PUSH1 0x27 DUP2 MSTORE PUSH1 0x20 ADD DUP1 PUSH2 0x5982 PUSH1 0x27 SWAP2 CODECOPY PUSH1 0x40 ADD SWAP2 POP POP PUSH1 0x40 MLOAD DUP1 SWAP2 SUB SWAP1 REVERT JUMPDEST PUSH1 0x0 SLOAD PUSH1 0x1 PUSH1 0x1 PUSH1 0xA0 SHL SUB AND CALLER EQ DUP1 PUSH2 0x163E JUMPI POP PUSH1 0x1 DUP3 ISZERO ISZERO EQ JUMPDEST PUSH2 0x1688 JUMPI PUSH1 0x40 DUP1 MLOAD PUSH3 0x461BCD PUSH1 0xE5 SHL DUP2 MSTORE PUSH1 0x20 PUSH1 0x4 DUP3 ADD MSTORE PUSH1 0x16 PUSH1 0x24 DUP3 ADD MSTORE PUSH22 0x6F6E6C792061646D696E2063616E20756E7061757365 PUSH1 0x50 SHL PUSH1 0x44 DUP3 ADD MSTORE SWAP1 MLOAD SWAP1 DUP2 SWAP1 SUB PUSH1 0x64 ADD SWAP1 REVERT JUMPDEST PUSH1 0xA DUP1 SLOAD DUP4 ISZERO ISZERO PUSH1 0x1 PUSH1 0xB8 SHL DUP2 MUL PUSH1 0xFF PUSH1 0xB8 SHL NOT SWAP1 SWAP3 AND SWAP2 SWAP1 SWAP2 OR SWAP1 SWAP2 SSTORE PUSH1 0x40 DUP1 MLOAD PUSH1 0x20 DUP2 ADD SWAP3 SWAP1 SWAP3 MSTORE DUP1 DUP3 MSTORE PUSH1 0x5 DUP3 DUP3 ADD MSTORE PUSH5 0x5365697A65 PUSH1 0xD8 SHL PUSH1 0x60 DUP4 ADD MSTORE MLOAD PUSH32 0xEF159D9A32B2472E32B098F954F3CE62D232939F1C207070B584DF1814DE2DE0 SWAP2 DUP2 SWAP1 SUB PUSH1 0x80 ADD SWAP1 LOG1 POP DUP1 JUMPDEST SWAP2 SWAP1 POP JUMP JUMPDEST PUSH1 0x0 DUP1 SLOAD PUSH1 0x1 PUSH1 0x1 PUSH1 0xA0 SHL SUB AND CALLER EQ PUSH2 0x1722 JUMPI PUSH2 0x171B PUSH1 0x1 PUSH1 0x4 PUSH2 0x3B5B JUMP JUMPDEST SWAP1 POP PUSH2 0x16F7 JUMP JUMPDEST PUSH2 0x172A PUSH2 0x5869 JUMP JUMPDEST POP PUSH1 0x40 DUP1 MLOAD PUSH1 0x20 DUP2 ADD SWAP1 SWAP2 MSTORE DUP3 DUP2 MSTORE PUSH2 0x1741 PUSH2 0x5869 JUMP JUMPDEST POP PUSH1 0x40 DUP1 MLOAD PUSH1 0x20 DUP2 ADD SWAP1 SWAP2 MSTORE PUSH7 0xB1A2BC2EC50000 DUP2 MSTORE PUSH2 0x1761 DUP3 DUP3 PUSH2 0x3BC1 JUMP JUMPDEST ISZERO PUSH2 0x177A JUMPI PUSH2 0x1771 PUSH1 0x5 DUP1 PUSH2 0x3B5B JUMP JUMPDEST SWAP3 POP POP POP PUSH2 0x16F7 JUMP JUMPDEST PUSH2 0x1782 PUSH2 0x5869 JUMP JUMPDEST POP PUSH1 0x40 DUP1 MLOAD PUSH1 0x20 DUP2 ADD SWAP1 SWAP2 MSTORE PUSH8 0xC7D713B49DA0000 DUP2 MSTORE PUSH2 0x17A3 DUP2 DUP5 PUSH2 0x3BC9 JUMP JUMPDEST ISZERO PUSH2 0x17BD JUMPI PUSH2 0x17B3 PUSH1 0x5 DUP1 PUSH2 0x3B5B JUMP JUMPDEST SWAP4 POP POP POP POP PUSH2 0x16F7 JUMP JUMPDEST PUSH1 0x5 DUP1 SLOAD SWAP1 DUP7 SWAP1 SSTORE PUSH1 0x40 DUP1 MLOAD DUP3 DUP2 MSTORE PUSH1 0x20 DUP2 ADD DUP9 SWAP1 MSTORE DUP2 MLOAD PUSH32 0x3B9670CF975D26958E754B57098EAA2AC914D8D2A31B83257997B9F346110FD9 SWAP3 SWAP2 DUP2 SWAP1 SUB SWAP1 SWAP2 ADD SWAP1 LOG1 PUSH1 0x0 JUMPDEST SWAP7 SWAP6 POP POP POP POP POP POP JUMP JUMPDEST PUSH1 0x0 SLOAD PUSH1 0x1 PUSH1 0x1 PUSH1 0xA0 SHL SUB AND CALLER EQ PUSH2 0x186C JUMPI PUSH1 0x40 DUP1 MLOAD PUSH3 0x461BCD PUSH1 0xE5 SHL DUP2 MSTORE PUSH1 0x20 PUSH1 0x4 DUP3 ADD MSTORE PUSH1 0x1F PUSH1 0x24 DUP3 ADD MSTORE PUSH32 0x6F6E6C792061646D696E2063616E2064726F7020636F6D70206D61726B657400 PUSH1 0x44 DUP3 ADD MSTORE SWAP1 MLOAD SWAP1 DUP2 SWAP1 SUB PUSH1 0x64 ADD SWAP1 REVERT JUMPDEST PUSH1 0x1 PUSH1 0x1 PUSH1 0xA0 SHL SUB DUP2 AND PUSH1 0x0 SWAP1 DUP2 MSTORE PUSH1 0x9 PUSH1 0x20 MSTORE PUSH1 0x40 SWAP1 KECCAK256 PUSH1 0x3 DUP2 ADD SLOAD PUSH1 0xFF AND ISZERO ISZERO PUSH1 0x1 EQ PUSH2 0x18E2 JUMPI PUSH1 0x40 DUP1 MLOAD PUSH3 0x461BCD PUSH1 0xE5 SHL DUP2 MSTORE PUSH1 0x20 PUSH1 0x4 DUP3 ADD MSTORE PUSH1 0x1B PUSH1 0x24 DUP3 ADD MSTORE PUSH32 0x6D61726B6574206973206E6F74206120636F6D70206D61726B65740000000000 PUSH1 0x44 DUP3 ADD MSTORE SWAP1 MLOAD SWAP1 DUP2 SWAP1 SUB PUSH1 0x64 ADD SWAP1 REVERT JUMPDEST PUSH1 0x3 DUP2 ADD DUP1 SLOAD PUSH1 0xFF NOT AND SWAP1 SSTORE PUSH1 0x40 DUP1 MLOAD PUSH1 0x1 PUSH1 0x1 PUSH1 0xA0 SHL SUB DUP5 AND DUP2 MSTORE PUSH1 0x0 PUSH1 0x20 DUP3 ADD MSTORE DUP2 MLOAD PUSH32 0x93C1F3E36ED71139F466A4CE8C9751790E2E33F5AFB2DF0DCFB3AEABE55D5AA2 SWAP3 SWAP2 DUP2 SWAP1 SUB SWAP1 SWAP2 ADD SWAP1 LOG1 PUSH2 0x193A PUSH2 0x3BD0 JUMP JUMPDEST POP POP JUMP JUMPDEST PUSH1 0x1 PUSH1 0x1 PUSH1 0xA0 SHL SUB DUP3 AND PUSH1 0x0 SWAP1 DUP2 MSTORE PUSH1 0x9 PUSH1 0x20 MSTORE PUSH1 0x40 DUP2 KECCAK256 SLOAD PUSH1 0xFF AND PUSH2 0x1995 JUMPI PUSH1 0x40 MLOAD PUSH3 0x461BCD PUSH1 0xE5 SHL DUP2 MSTORE PUSH1 0x4 ADD DUP1 DUP1 PUSH1 0x20 ADD DUP3 DUP2 SUB DUP3 MSTORE PUSH1 0x28 DUP2 MSTORE PUSH1 0x20 ADD DUP1 PUSH2 0x5929 PUSH1 0x28 SWAP2 CODECOPY PUSH1 0x40 ADD SWAP2 POP POP PUSH1 0x40 MLOAD DUP1 SWAP2 SUB SWAP1 REVERT JUMPDEST PUSH1 0xA SLOAD PUSH1 0x1 PUSH1 0x1 PUSH1 0xA0 SHL SUB AND CALLER EQ DUP1 PUSH2 0x19B8 JUMPI POP PUSH1 0x0 SLOAD PUSH1 0x1 PUSH1 0x1 PUSH1 0xA0 SHL SUB AND CALLER EQ JUMPDEST PUSH2 0x19F3 JUMPI PUSH1 0x40 MLOAD PUSH3 0x461BCD PUSH1 0xE5 SHL DUP2 MSTORE PUSH1 0x4 ADD DUP1 DUP1 PUSH1 0x20 ADD DUP3 DUP2 SUB DUP3 MSTORE PUSH1 0x27 DUP2 MSTORE PUSH1 0x20 ADD DUP1 PUSH2 0x5982 PUSH1 0x27 SWAP2 CODECOPY PUSH1 0x40 ADD SWAP2 POP POP PUSH1 0x40 MLOAD DUP1 SWAP2 SUB SWAP1 REVERT JUMPDEST PUSH1 0x0 SLOAD PUSH1 0x1 PUSH1 0x1 PUSH1 0xA0 SHL SUB AND CALLER EQ DUP1 PUSH2 0x1A0E JUMPI POP PUSH1 0x1 DUP3 ISZERO ISZERO EQ JUMPDEST PUSH2 0x1A58 JUMPI PUSH1 0x40 DUP1 MLOAD PUSH3 0x461BCD PUSH1 0xE5 SHL DUP2 MSTORE PUSH1 0x20 PUSH1 0x4 DUP3 ADD MSTORE PUSH1 0x16 PUSH1 0x24 DUP3 ADD MSTORE PUSH22 0x6F6E6C792061646D696E2063616E20756E7061757365 PUSH1 0x50 SHL PUSH1 0x44 DUP3 ADD MSTORE SWAP1 MLOAD SWAP1 DUP2 SWAP1 SUB PUSH1 0x64 ADD SWAP1 REVERT JUMPDEST PUSH1 0x1 PUSH1 0x1 PUSH1 0xA0 SHL SUB DUP4 AND PUSH1 0x0 DUP2 DUP2 MSTORE PUSH1 0xB PUSH1 0x20 SWAP1 DUP2 MSTORE PUSH1 0x40 SWAP2 DUP3 SWAP1 KECCAK256 DUP1 SLOAD DUP7 ISZERO ISZERO PUSH1 0xFF NOT SWAP1 SWAP2 AND DUP2 OR SWAP1 SWAP2 SSTORE DUP3 MLOAD SWAP4 DUP5 MSTORE DUP4 DUP4 ADD MSTORE PUSH1 0x60 SWAP1 DUP4 ADD DUP2 SWAP1 MSTORE PUSH1 0x4 SWAP1 DUP4 ADD MSTORE PUSH4 0x135A5B9D PUSH1 0xE2 SHL PUSH1 0x80 DUP4 ADD MSTORE MLOAD PUSH32 0x71AEC636243F9709BB0007AE15E9AFB8150AB01716D75FD7573BE5CC096E03B0 SWAP2 DUP2 SWAP1 SUB PUSH1 0xA0 ADD SWAP1 LOG1 POP SWAP2 SWAP1 POP JUMP JUMPDEST PUSH1 0xA SLOAD PUSH1 0x1 PUSH1 0xA0 SHL SWAP1 DIV PUSH1 0xFF AND DUP2 JUMP JUMPDEST POP POP POP POP JUMP JUMPDEST NUMBER JUMPDEST SWAP1 JUMP JUMPDEST POP POP POP POP POP POP JUMP JUMPDEST PUSH1 0x6 SLOAD DUP2 JUMP JUMPDEST CALLER ORIGIN EQ PUSH2 0x1B40 JUMPI PUSH1 0x40 MLOAD PUSH3 0x461BCD PUSH1 0xE5 SHL DUP2 MSTORE PUSH1 0x4 ADD DUP1 DUP1 PUSH1 0x20 ADD DUP3 DUP2 SUB DUP3 MSTORE PUSH1 0x31 DUP2 MSTORE PUSH1 0x20 ADD DUP1 PUSH2 0x5951 PUSH1 0x31 SWAP2 CODECOPY PUSH1 0x40 ADD SWAP2 POP POP PUSH1 0x40 MLOAD DUP1 SWAP2 SUB SWAP1 REVERT JUMPDEST PUSH2 0x1B48 PUSH2 0x3BD0 JUMP JUMPDEST JUMP JUMPDEST PUSH1 0x0 DUP1 PUSH1 0x0 DUP1 PUSH1 0x0 DUP1 PUSH2 0x1B5F DUP11 DUP11 DUP11 DUP11 PUSH2 0x3F95 JUMP JUMPDEST SWAP3 POP SWAP3 POP SWAP3 POP DUP3 PUSH1 0x11 DUP2 GT ISZERO PUSH2 0x1B71 JUMPI INVALID JUMPDEST SWAP6 POP SWAP1 SWAP4 POP SWAP2 POP POP JUMPDEST SWAP5 POP SWAP5 POP SWAP5 SWAP2 POP POP JUMP JUMPDEST PUSH1 0x1 PUSH1 0x1 PUSH1 0xA0 SHL SUB DUP4 AND PUSH1 0x0 SWAP1 DUP2 MSTORE PUSH1 0xB PUSH1 0x20 MSTORE PUSH1 0x40 DUP2 KECCAK256 SLOAD PUSH1 0xFF AND ISZERO PUSH2 0x1BE3 JUMPI PUSH1 0x40 DUP1 MLOAD PUSH3 0x461BCD PUSH1 0xE5 SHL DUP2 MSTORE PUSH1 0x20 PUSH1 0x4 DUP3 ADD MSTORE PUSH1 0xE PUSH1 0x24 DUP3 ADD MSTORE PUSH14 0x1B5A5B9D081A5CC81C185D5CD959 PUSH1 0x92 SHL PUSH1 0x44 DUP3 ADD MSTORE SWAP1 MLOAD SWAP1 DUP2 SWAP1 SUB PUSH1 0x64 ADD SWAP1 REVERT JUMPDEST PUSH1 0x1 PUSH1 0x1 PUSH1 0xA0 SHL SUB DUP5 AND PUSH1 0x0 SWAP1 DUP2 MSTORE PUSH1 0x9 PUSH1 0x20 MSTORE PUSH1 0x40 SWAP1 KECCAK256 SLOAD PUSH1 0xFF AND PUSH2 0x1C0D JUMPI PUSH1 0x9 JUMPDEST SWAP1 POP PUSH2 0x1C28 JUMP JUMPDEST PUSH2 0x1C16 DUP5 PUSH2 0x43B0 JUMP JUMPDEST PUSH2 0x1C22 DUP5 DUP5 PUSH1 0x0 PUSH2 0x462E JUMP JUMPDEST PUSH1 0x0 JUMPDEST SWAP1 POP JUMPDEST SWAP4 SWAP3 POP POP POP JUMP JUMPDEST PUSH1 0x0 DUP1 SLOAD PUSH1 0x1 PUSH1 0x1 PUSH1 0xA0 SHL SUB AND CALLER EQ PUSH2 0x1C4E JUMPI PUSH2 0x171B PUSH1 0x1 PUSH1 0xB PUSH2 0x3B5B JUMP JUMPDEST PUSH2 0x1C56 PUSH2 0x5869 JUMP JUMPDEST POP PUSH1 0x40 DUP1 MLOAD PUSH1 0x20 DUP2 ADD SWAP1 SWAP2 MSTORE DUP3 DUP2 MSTORE PUSH2 0x1C6D PUSH2 0x5869 JUMP JUMPDEST POP PUSH1 0x40 DUP1 MLOAD PUSH1 0x20 DUP2 ADD SWAP1 SWAP2 MSTORE PUSH8 0xDE0B6B3A7640000 DUP2 MSTORE PUSH2 0x1C8E DUP3 DUP3 PUSH2 0x3BC9 JUMP JUMPDEST ISZERO PUSH2 0x1C9F JUMPI PUSH2 0x1771 PUSH1 0x7 PUSH1 0xC PUSH2 0x3B5B JUMP JUMPDEST PUSH2 0x1CA7 PUSH2 0x5869 JUMP JUMPDEST POP PUSH1 0x40 DUP1 MLOAD PUSH1 0x20 DUP2 ADD SWAP1 SWAP2 MSTORE PUSH8 0x14D1120D7B160000 DUP2 MSTORE PUSH2 0x1CC8 DUP2 DUP5 PUSH2 0x3BC9 JUMP JUMPDEST ISZERO PUSH2 0x1CD9 JUMPI PUSH2 0x17B3 PUSH1 0x7 PUSH1 0xC PUSH2 0x3B5B JUMP JUMPDEST PUSH1 0x6 DUP1 SLOAD SWAP1 DUP7 SWAP1 SSTORE PUSH1 0x40 DUP1 MLOAD DUP3 DUP2 MSTORE PUSH1 0x20 DUP2 ADD DUP9 SWAP1 MSTORE DUP2 MLOAD PUSH32 0xAEBA5A6C40A8AC138134BFF1AAA65DEBF25971188A58804BAD717F82F0EC1316 SWAP3 SWAP2 DUP2 SWAP1 SUB SWAP1 SWAP2 ADD SWAP1 LOG1 PUSH1 0x0 PUSH2 0x1803 JUMP JUMPDEST DUP1 ISZERO DUP1 ISZERO PUSH2 0x1D31 JUMPI POP PUSH1 0x0 DUP3 GT JUMPDEST ISZERO PUSH2 0x1AE9 JUMPI PUSH1 0x40 DUP1 MLOAD PUSH3 0x461BCD PUSH1 0xE5 SHL DUP2 MSTORE PUSH1 0x20 PUSH1 0x4 DUP3 ADD MSTORE PUSH1 0x11 PUSH1 0x24 DUP3 ADD MSTORE PUSH17 0x72656465656D546F6B656E73207A65726F PUSH1 0x78 SHL PUSH1 0x44 DUP3 ADD MSTORE SWAP1 MLOAD SWAP1 DUP2 SWAP1 SUB PUSH1 0x64 ADD SWAP1 REVERT JUMPDEST PUSH1 0xD DUP2 DUP2 SLOAD DUP2 LT PUSH2 0x1D84 JUMPI INVALID JUMPDEST PUSH1 0x0 SWAP2 DUP3 MSTORE PUSH1 0x20 SWAP1 SWAP2 KECCAK256 ADD SLOAD PUSH1 0x1 PUSH1 0x1 PUSH1 0xA0 SHL SUB AND SWAP1 POP DUP2 JUMP JUMPDEST PUSH1 0x0 DUP1 SLOAD PUSH1 0x1 PUSH1 0x1 PUSH1 0xA0 SHL SUB AND CALLER EQ PUSH2 0x1DBD JUMPI PUSH2 0x171B PUSH1 0x1 PUSH1 0x10 PUSH2 0x3B5B JUMP JUMPDEST PUSH1 0x4 DUP1 SLOAD PUSH1 0x1 PUSH1 0x1 PUSH1 0xA0 SHL SUB DUP5 DUP2 AND PUSH1 0x1 PUSH1 0x1 PUSH1 0xA0 SHL SUB NOT DUP4 AND DUP2 OR SWAP1 SWAP4 SSTORE PUSH1 0x40 DUP1 MLOAD SWAP2 SWAP1 SWAP3 AND DUP1 DUP3 MSTORE PUSH1 0x20 DUP3 ADD SWAP4 SWAP1 SWAP4 MSTORE DUP2 MLOAD PUSH32 0xD52B2B9B7E9EE655FCB95D2E5B9E0C9F69E7EF2B8E9D2D0EA78402D576D22E22 SWAP3 SWAP2 DUP2 SWAP1 SUB SWAP1 SWAP2 ADD SWAP1 LOG1 PUSH1 0x0 SWAP4 SWAP3 POP POP POP JUMP JUMPDEST PUSH2 0x135E JUMP JUMPDEST PUSH1 0x0 DUP1 PUSH1 0x0 DUP1 PUSH1 0x0 DUP1 PUSH2 0x1E41 DUP8 PUSH1 0x0 DUP1 PUSH1 0x0 PUSH2 0x3F95 JUMP JUMPDEST SWAP3 POP SWAP3 POP SWAP3 POP DUP3 PUSH1 0x11 DUP2 GT ISZERO PUSH2 0x1E53 JUMPI INVALID JUMPDEST SWAP8 SWAP2 SWAP7 POP SWAP5 POP SWAP3 POP POP POP JUMP JUMPDEST PUSH1 0x0 DUP1 SLOAD PUSH1 0x1 PUSH1 0x1 PUSH1 0xA0 SHL SUB AND CALLER EQ PUSH2 0x1E7E JUMPI PUSH2 0x171B PUSH1 0x1 PUSH1 0x13 PUSH2 0x3B5B JUMP JUMPDEST PUSH1 0xA DUP1 SLOAD PUSH1 0x1 PUSH1 0x1 PUSH1 0xA0 SHL SUB DUP5 DUP2 AND PUSH1 0x1 PUSH1 0x1 PUSH1 0xA0 SHL SUB NOT DUP4 AND OR SWAP3 DUP4 SWAP1 SSTORE PUSH1 0x40 DUP1 MLOAD SWAP3 DUP3 AND DUP1 DUP5 MSTORE SWAP4 SWAP1 SWAP2 AND PUSH1 0x20 DUP4 ADD MSTORE DUP1 MLOAD PUSH32 0x613B6EE6A04F0D09F390E4D9318894B9F6AC7FD83897CD8D18896BA579C401E SWAP3 DUP2 SWAP1 SUB SWAP1 SWAP2 ADD SWAP1 LOG1 PUSH1 0x0 PUSH2 0x1C28 JUMP JUMPDEST PUSH1 0x1 PUSH1 0x1 PUSH1 0xA0 SHL SUB DUP6 AND PUSH1 0x0 SWAP1 DUP2 MSTORE PUSH1 0x9 PUSH1 0x20 MSTORE PUSH1 0x40 DUP2 KECCAK256 SLOAD PUSH1 0xFF AND ISZERO DUP1 PUSH2 0x1F24 JUMPI POP PUSH1 0x1 PUSH1 0x1 PUSH1 0xA0 SHL SUB DUP6 AND PUSH1 0x0 SWAP1 DUP2 MSTORE PUSH1 0x9 PUSH1 0x20 MSTORE PUSH1 0x40 SWAP1 KECCAK256 SLOAD PUSH1 0xFF AND ISZERO JUMPDEST ISZERO PUSH2 0x1F33 JUMPI PUSH1 0x9 JUMPDEST SWAP1 POP PUSH2 0x2061 JUMP JUMPDEST PUSH1 0x0 DUP1 PUSH2 0x1F3F DUP6 PUSH2 0x4826 JUMP JUMPDEST SWAP2 SWAP4 POP SWAP1 SWAP2 POP PUSH1 0x0 SWAP1 POP DUP3 PUSH1 0x11 DUP2 GT ISZERO PUSH2 0x1F55 JUMPI INVALID JUMPDEST EQ PUSH2 0x1F6F JUMPI DUP2 PUSH1 0x11 DUP2 GT ISZERO PUSH2 0x1F66 JUMPI INVALID JUMPDEST SWAP3 POP POP POP PUSH2 0x2061 JUMP JUMPDEST DUP1 PUSH2 0x1F7B JUMPI PUSH1 0x3 PUSH2 0x1F66 JUMP JUMPDEST PUSH1 0x0 DUP9 PUSH1 0x1 PUSH1 0x1 PUSH1 0xA0 SHL SUB AND PUSH4 0x95DD9193 DUP8 PUSH1 0x40 MLOAD DUP3 PUSH4 0xFFFFFFFF AND PUSH1 0xE0 SHL DUP2 MSTORE PUSH1 0x4 ADD DUP1 DUP3 PUSH1 0x1 PUSH1 0x1 PUSH1 0xA0 SHL SUB AND PUSH1 0x1 PUSH1 0x1 PUSH1 0xA0 SHL SUB AND DUP2 MSTORE PUSH1 0x20 ADD SWAP2 POP POP PUSH1 0x20 PUSH1 0x40 MLOAD DUP1 DUP4 SUB DUP2 DUP7 DUP1 EXTCODESIZE ISZERO DUP1 ISZERO PUSH2 0x1FD3 JUMPI PUSH1 0x0 DUP1 REVERT JUMPDEST POP GAS STATICCALL ISZERO DUP1 ISZERO PUSH2 0x1FE7 JUMPI RETURNDATASIZE PUSH1 0x0 DUP1 RETURNDATACOPY RETURNDATASIZE PUSH1 0x0 REVERT JUMPDEST POP POP POP POP PUSH1 0x40 MLOAD RETURNDATASIZE PUSH1 0x20 DUP2 LT ISZERO PUSH2 0x1FFD JUMPI PUSH1 0x0 DUP1 REVERT JUMPDEST POP MLOAD PUSH1 0x40 DUP1 MLOAD PUSH1 0x20 DUP2 ADD SWAP1 SWAP2 MSTORE PUSH1 0x5 SLOAD DUP2 MSTORE SWAP1 SWAP2 POP PUSH1 0x0 SWAP1 DUP2 SWAP1 PUSH2 0x2021 SWAP1 DUP5 PUSH2 0x4846 JUMP JUMPDEST SWAP1 SWAP3 POP SWAP1 POP PUSH1 0x0 DUP3 PUSH1 0x3 DUP2 GT ISZERO PUSH2 0x2034 JUMPI INVALID JUMPDEST EQ PUSH2 0x2048 JUMPI PUSH1 0xB JUMPDEST SWAP6 POP POP POP POP POP POP PUSH2 0x2061 JUMP JUMPDEST DUP1 DUP8 GT ISZERO PUSH2 0x2057 JUMPI PUSH1 0x11 PUSH2 0x203C JUMP JUMPDEST PUSH1 0x0 SWAP6 POP POP POP POP POP POP JUMPDEST SWAP6 SWAP5 POP POP POP POP POP JUMP JUMPDEST PUSH1 0x0 JUMPDEST DUP4 MLOAD DUP2 LT ISZERO PUSH2 0x14D4 JUMPI PUSH1 0x0 DUP5 DUP3 DUP2 MLOAD DUP2 LT PUSH2 0x2084 JUMPI INVALID JUMPDEST PUSH1 0x20 SWAP1 DUP2 MUL SWAP2 SWAP1 SWAP2 ADD DUP2 ADD MLOAD PUSH1 0x1 PUSH1 0x1 PUSH1 0xA0 SHL SUB DUP2 AND PUSH1 0x0 SWAP1 DUP2 MSTORE PUSH1 0x9 SWAP1 SWAP3 MSTORE PUSH1 0x40 SWAP1 SWAP2 KECCAK256 SLOAD SWAP1 SWAP2 POP PUSH1 0xFF AND PUSH2 0x20F9 JUMPI PUSH1 0x40 DUP1 MLOAD PUSH3 0x461BCD PUSH1 0xE5 SHL DUP2 MSTORE PUSH1 0x20 PUSH1 0x4 DUP3 ADD MSTORE PUSH1 0x15 PUSH1 0x24 DUP3 ADD MSTORE PUSH21 0x1B585C9AD95D081B5D5CDD081899481B1A5CDD1959 PUSH1 0x5A SHL PUSH1 0x44 DUP3 ADD MSTORE SWAP1 MLOAD SWAP1 DUP2 SWAP1 SUB PUSH1 0x64 ADD SWAP1 REVERT JUMPDEST PUSH1 0x1 DUP5 ISZERO ISZERO EQ ISZERO PUSH2 0x21C1 JUMPI PUSH2 0x210C PUSH2 0x5869 JUMP JUMPDEST PUSH1 0x40 MLOAD DUP1 PUSH1 0x20 ADD PUSH1 0x40 MSTORE DUP1 DUP4 PUSH1 0x1 PUSH1 0x1 PUSH1 0xA0 SHL SUB AND PUSH4 0xAA5AF0FD PUSH1 0x40 MLOAD DUP2 PUSH4 0xFFFFFFFF AND PUSH1 0xE0 SHL DUP2 MSTORE PUSH1 0x4 ADD PUSH1 0x20 PUSH1 0x40 MLOAD DUP1 DUP4 SUB DUP2 DUP7 DUP1 EXTCODESIZE ISZERO DUP1 ISZERO PUSH2 0x2150 JUMPI PUSH1 0x0 DUP1 REVERT JUMPDEST POP GAS STATICCALL ISZERO DUP1 ISZERO PUSH2 0x2164 JUMPI RETURNDATASIZE PUSH1 0x0 DUP1 RETURNDATACOPY RETURNDATASIZE PUSH1 0x0 REVERT JUMPDEST POP POP POP POP PUSH1 0x40 MLOAD RETURNDATASIZE PUSH1 0x20 DUP2 LT ISZERO PUSH2 0x217A JUMPI PUSH1 0x0 DUP1 REVERT JUMPDEST POP MLOAD SWAP1 MSTORE SWAP1 POP PUSH2 0x218A DUP3 DUP3 PUSH2 0x36E8 JUMP JUMPDEST PUSH1 0x0 JUMPDEST DUP8 MLOAD DUP2 LT ISZERO PUSH2 0x21BE JUMPI PUSH2 0x21B6 DUP4 DUP10 DUP4 DUP2 MLOAD DUP2 LT PUSH2 0x21A6 JUMPI INVALID JUMPDEST PUSH1 0x20 MUL PUSH1 0x20 ADD ADD MLOAD DUP5 PUSH1 0x1 PUSH2 0x3970 JUMP JUMPDEST PUSH1 0x1 ADD PUSH2 0x218D JUMP JUMPDEST POP POP JUMPDEST PUSH1 0x1 DUP4 ISZERO ISZERO EQ ISZERO PUSH2 0x220A JUMPI PUSH2 0x21D5 DUP2 PUSH2 0x43B0 JUMP JUMPDEST PUSH1 0x0 JUMPDEST DUP7 MLOAD DUP2 LT ISZERO PUSH2 0x2208 JUMPI PUSH2 0x2200 DUP3 DUP9 DUP4 DUP2 MLOAD DUP2 LT PUSH2 0x21F1 JUMPI INVALID JUMPDEST PUSH1 0x20 MUL PUSH1 0x20 ADD ADD MLOAD PUSH1 0x1 PUSH2 0x462E JUMP JUMPDEST PUSH1 0x1 ADD PUSH2 0x21D8 JUMP JUMPDEST POP JUMPDEST POP PUSH1 0x1 ADD PUSH2 0x206D JUMP JUMPDEST PUSH2 0x221B PUSH2 0x489A JUMP JUMPDEST PUSH2 0x226C JUMPI PUSH1 0x40 DUP1 MLOAD PUSH3 0x461BCD PUSH1 0xE5 SHL DUP2 MSTORE PUSH1 0x20 PUSH1 0x4 DUP3 ADD MSTORE PUSH1 0x1F PUSH1 0x24 DUP3 ADD MSTORE PUSH32 0x6F6E6C792061646D696E2063616E206368616E676520636F6D70207261746500 PUSH1 0x44 DUP3 ADD MSTORE SWAP1 MLOAD SWAP1 DUP2 SWAP1 SUB PUSH1 0x64 ADD SWAP1 REVERT JUMPDEST PUSH1 0xE DUP1 SLOAD SWAP1 DUP3 SWAP1 SSTORE PUSH1 0x40 DUP1 MLOAD DUP3 DUP2 MSTORE PUSH1 0x20 DUP2 ADD DUP5 SWAP1 MSTORE DUP2 MLOAD PUSH32 0xC227C9272633C3A307D9845BF2BC2509CEFB20D655B5F3C1002D8E1E3F22C8B0 SWAP3 SWAP2 DUP2 SWAP1 SUB SWAP1 SWAP2 ADD SWAP1 LOG1 PUSH2 0x193A PUSH2 0x3BD0 JUMP JUMPDEST PUSH1 0x10 PUSH1 0x20 MSTORE PUSH1 0x0 SWAP1 DUP2 MSTORE PUSH1 0x40 SWAP1 KECCAK256 SLOAD PUSH1 0x1 PUSH1 0x1 PUSH1 0xE0 SHL SUB DUP2 AND SWAP1 PUSH1 0x1 PUSH1 0xE0 SHL SWAP1 DIV PUSH4 0xFFFFFFFF AND DUP3 JUMP JUMPDEST PUSH1 0xC PUSH1 0x20 MSTORE PUSH1 0x0 SWAP1 DUP2 MSTORE PUSH1 0x40 SWAP1 KECCAK256 SLOAD PUSH1 0xFF AND DUP2 JUMP JUMPDEST PUSH1 0xB PUSH1 0x20 MSTORE PUSH1 0x0 SWAP1 DUP2 MSTORE PUSH1 0x40 SWAP1 KECCAK256 SLOAD PUSH1 0xFF AND DUP2 JUMP JUMPDEST PUSH7 0x38D7EA4C68000 DUP2 JUMP JUMPDEST PUSH1 0x4 SLOAD PUSH1 0x1 PUSH1 0x1 PUSH1 0xA0 SHL SUB AND DUP2 JUMP JUMPDEST PUSH1 0xA SLOAD PUSH1 0x1 PUSH1 0xB0 SHL SWAP1 DIV PUSH1 0xFF AND DUP2 JUMP JUMPDEST PUSH1 0x11 PUSH1 0x20 MSTORE PUSH1 0x0 SWAP1 DUP2 MSTORE PUSH1 0x40 SWAP1 KECCAK256 SLOAD PUSH1 0x1 PUSH1 0x1 PUSH1 0xE0 SHL SUB DUP2 AND SWAP1 PUSH1 0x1 PUSH1 0xE0 SHL SWAP1 DIV PUSH4 0xFFFFFFFF AND DUP3 JUMP JUMPDEST PUSH1 0x9 PUSH1 0x20 MSTORE PUSH1 0x0 SWAP1 DUP2 MSTORE PUSH1 0x40 SWAP1 KECCAK256 DUP1 SLOAD PUSH1 0x1 DUP3 ADD SLOAD PUSH1 0x3 SWAP1 SWAP3 ADD SLOAD PUSH1 0xFF SWAP2 DUP3 AND SWAP3 SWAP2 AND DUP4 JUMP JUMPDEST PUSH1 0xA SLOAD PUSH1 0x0 SWAP1 PUSH1 0x1 PUSH1 0x1 PUSH1 0xA0 SHL SUB AND CALLER EQ DUP1 PUSH2 0x23AB JUMPI POP PUSH1 0x0 SLOAD PUSH1 0x1 PUSH1 0x1 PUSH1 0xA0 SHL SUB AND CALLER EQ JUMPDEST PUSH2 0x23E6 JUMPI PUSH1 0x40 MLOAD PUSH3 0x461BCD PUSH1 0xE5 SHL DUP2 MSTORE PUSH1 0x4 ADD DUP1 DUP1 PUSH1 0x20 ADD DUP3 DUP2 SUB DUP3 MSTORE PUSH1 0x27 DUP2 MSTORE PUSH1 0x20 ADD DUP1 PUSH2 0x5982 PUSH1 0x27 SWAP2 CODECOPY PUSH1 0x40 ADD SWAP2 POP POP PUSH1 0x40 MLOAD DUP1 SWAP2 SUB SWAP1 REVERT JUMPDEST PUSH1 0x0 SLOAD PUSH1 0x1 PUSH1 0x1 PUSH1 0xA0 SHL SUB AND CALLER EQ DUP1 PUSH2 0x2401 JUMPI POP PUSH1 0x1 DUP3 ISZERO ISZERO EQ JUMPDEST PUSH2 0x244B JUMPI PUSH1 0x40 DUP1 MLOAD PUSH3 0x461BCD PUSH1 0xE5 SHL DUP2 MSTORE PUSH1 0x20 PUSH1 0x4 DUP3 ADD MSTORE PUSH1 0x16 PUSH1 0x24 DUP3 ADD MSTORE PUSH22 0x6F6E6C792061646D696E2063616E20756E7061757365 PUSH1 0x50 SHL PUSH1 0x44 DUP3 ADD MSTORE SWAP1 MLOAD SWAP1 DUP2 SWAP1 SUB PUSH1 0x64 ADD SWAP1 REVERT JUMPDEST PUSH1 0xA DUP1 SLOAD DUP4 ISZERO ISZERO PUSH1 0x1 PUSH1 0xB0 SHL DUP2 MUL PUSH1 0xFF PUSH1 0xB0 SHL NOT SWAP1 SWAP3 AND SWAP2 SWAP1 SWAP2 OR SWAP1 SWAP2 SSTORE PUSH1 0x40 DUP1 MLOAD PUSH1 0x20 DUP2 ADD SWAP3 SWAP1 SWAP3 MSTORE DUP1 DUP3 MSTORE PUSH1 0x8 DUP3 DUP3 ADD MSTORE PUSH8 0x2A3930B739B332B9 PUSH1 0xC1 SHL PUSH1 0x60 DUP4 ADD MSTORE MLOAD PUSH32 0xEF159D9A32B2472E32B098F954F3CE62D232939F1C207070B584DF1814DE2DE0 SWAP2 DUP2 SWAP1 SUB PUSH1 0x80 ADD SWAP1 LOG1 POP SWAP1 JUMP JUMPDEST PUSH1 0x1 PUSH1 0x1 PUSH1 0xA0 SHL SUB DUP1 DUP3 AND PUSH1 0x0 SWAP1 DUP2 MSTORE PUSH1 0x9 PUSH1 0x20 SWAP1 DUP2 MSTORE PUSH1 0x40 DUP1 DUP4 KECCAK256 SWAP4 DUP7 AND DUP4 MSTORE PUSH1 0x2 SWAP1 SWAP4 ADD SWAP1 MSTORE KECCAK256 SLOAD PUSH1 0xFF AND SWAP3 SWAP2 POP POP JUMP JUMPDEST PUSH1 0x7 SLOAD DUP2 JUMP JUMPDEST PUSH20 0xC00E94CB662C3520282E6F5717214004A7F26888 SWAP1 JUMP JUMPDEST PUSH1 0x0 DUP1 SLOAD PUSH1 0x1 PUSH1 0x1 PUSH1 0xA0 SHL SUB AND CALLER EQ PUSH2 0x252E JUMPI PUSH2 0x171B PUSH1 0x1 PUSH1 0x12 PUSH2 0x3B5B JUMP JUMPDEST PUSH1 0x1 PUSH1 0x1 PUSH1 0xA0 SHL SUB DUP3 AND PUSH1 0x0 SWAP1 DUP2 MSTORE PUSH1 0x9 PUSH1 0x20 MSTORE PUSH1 0x40 SWAP1 KECCAK256 SLOAD PUSH1 0xFF AND ISZERO PUSH2 0x255B JUMPI PUSH2 0x171B PUSH1 0xA PUSH1 0x11 PUSH2 0x3B5B JUMP JUMPDEST DUP2 PUSH1 0x1 PUSH1 0x1 PUSH1 0xA0 SHL SUB AND PUSH4 0xFE9C44AE PUSH1 0x40 MLOAD DUP2 PUSH4 0xFFFFFFFF AND PUSH1 0xE0 SHL DUP2 MSTORE PUSH1 0x4 ADD PUSH1 0x20 PUSH1 0x40 MLOAD DUP1 DUP4 SUB DUP2 DUP7 DUP1 EXTCODESIZE ISZERO DUP1 ISZERO PUSH2 0x2594 JUMPI PUSH1 0x0 DUP1 REVERT JUMPDEST POP GAS STATICCALL ISZERO DUP1 ISZERO PUSH2 0x25A8 JUMPI RETURNDATASIZE PUSH1 0x0 DUP1 RETURNDATACOPY RETURNDATASIZE PUSH1 0x0 REVERT JUMPDEST POP POP POP POP PUSH1 0x40 MLOAD RETURNDATASIZE PUSH1 0x20 DUP2 LT ISZERO PUSH2 0x25BE JUMPI PUSH1 0x0 DUP1 REVERT JUMPDEST POP POP PUSH1 0x40 DUP1 MLOAD PUSH1 0x60 DUP2 ADD DUP3 MSTORE PUSH1 0x1 DUP1 DUP3 MSTORE PUSH1 0x0 PUSH1 0x20 DUP4 DUP2 ADD DUP3 DUP2 MSTORE DUP5 DUP7 ADD DUP4 DUP2 MSTORE PUSH1 0x1 PUSH1 0x1 PUSH1 0xA0 SHL SUB DUP10 AND DUP5 MSTORE PUSH1 0x9 SWAP1 SWAP3 MSTORE SWAP5 SWAP1 SWAP2 KECCAK256 SWAP3 MLOAD DUP4 SLOAD SWAP1 ISZERO ISZERO PUSH1 0xFF NOT SWAP2 DUP3 AND OR DUP5 SSTORE SWAP4 MLOAD SWAP2 DUP4 ADD SWAP2 SWAP1 SWAP2 SSTORE MLOAD PUSH1 0x3 SWAP1 SWAP2 ADD DUP1 SLOAD SWAP2 ISZERO ISZERO SWAP2 SWAP1 SWAP3 AND OR SWAP1 SSTORE PUSH2 0x2628 DUP3 PUSH2 0x48C3 JUMP JUMPDEST PUSH1 0x40 DUP1 MLOAD PUSH1 0x1 PUSH1 0x1 PUSH1 0xA0 SHL SUB DUP5 AND DUP2 MSTORE SWAP1 MLOAD PUSH32 0xCF583BB0C569EB967F806B11601C4CB93C10310485C67ADD5F8362C2F212321F SWAP2 DUP2 SWAP1 SUB PUSH1 0x20 ADD SWAP1 LOG1 PUSH1 0x0 SWAP3 SWAP2 POP POP JUMP JUMPDEST PUSH15 0xC097CE7BC90715B34B9F1000000000 DUP2 JUMP JUMPDEST PUSH1 0xE SLOAD DUP2 JUMP JUMPDEST PUSH1 0x60 DUP1 PUSH1 0x8 PUSH1 0x0 DUP5 PUSH1 0x1 PUSH1 0x1 PUSH1 0xA0 SHL SUB AND PUSH1 0x1 PUSH1 0x1 PUSH1 0xA0 SHL SUB AND DUP2 MSTORE PUSH1 0x20 ADD SWAP1 DUP2 MSTORE PUSH1 0x20 ADD PUSH1 0x0 KECCAK256 DUP1 SLOAD DUP1 PUSH1 0x20 MUL PUSH1 0x20 ADD PUSH1 0x40 MLOAD SWAP1 DUP2 ADD PUSH1 0x40 MSTORE DUP1 SWAP3 SWAP2 SWAP1 DUP2 DUP2 MSTORE PUSH1 0x20 ADD DUP3 DUP1 SLOAD DUP1 ISZERO PUSH2 0x2701 JUMPI PUSH1 0x20 MUL DUP3 ADD SWAP2 SWAP1 PUSH1 0x0 MSTORE PUSH1 0x20 PUSH1 0x0 KECCAK256 SWAP1 JUMPDEST DUP2 SLOAD PUSH1 0x1 PUSH1 0x1 PUSH1 0xA0 SHL SUB AND DUP2 MSTORE PUSH1 0x1 SWAP1 SWAP2 ADD SWAP1 PUSH1 0x20 ADD DUP1 DUP4 GT PUSH2 0x26E3 JUMPI JUMPDEST POP SWAP4 SWAP8 SWAP7 POP POP POP POP POP POP POP JUMP JUMPDEST PUSH1 0xA SLOAD PUSH1 0x1 PUSH1 0xB8 SHL SWAP1 DIV PUSH1 0xFF AND DUP2 JUMP JUMPDEST PUSH1 0x60 PUSH1 0xD DUP1 SLOAD DUP1 PUSH1 0x20 MUL PUSH1 0x20 ADD PUSH1 0x40 MLOAD SWAP1 DUP2 ADD PUSH1 0x40 MSTORE DUP1 SWAP3 SWAP2 SWAP1 DUP2 DUP2 MSTORE PUSH1 0x20 ADD DUP3 DUP1 SLOAD DUP1 ISZERO PUSH2 0x2776 JUMPI PUSH1 0x20 MUL DUP3 ADD SWAP2 SWAP1 PUSH1 0x0 MSTORE PUSH1 0x20 PUSH1 0x0 KECCAK256 SWAP1 JUMPDEST DUP2 SLOAD PUSH1 0x1 PUSH1 0x1 PUSH1 0xA0 SHL SUB AND DUP2 MSTORE PUSH1 0x1 SWAP1 SWAP2 ADD SWAP1 PUSH1 0x20 ADD DUP1 DUP4 GT PUSH2 0x2758 JUMPI JUMPDEST POP POP POP POP POP SWAP1 POP SWAP1 JUMP JUMPDEST PUSH1 0x12 PUSH1 0x20 SWAP1 DUP2 MSTORE PUSH1 0x0 SWAP3 DUP4 MSTORE PUSH1 0x40 DUP1 DUP5 KECCAK256 SWAP1 SWAP2 MSTORE SWAP1 DUP3 MSTORE SWAP1 KECCAK256 SLOAD DUP2 JUMP JUMPDEST PUSH1 0x2 SLOAD PUSH1 0x1 PUSH1 0x1 PUSH1 0xA0 SHL SUB AND DUP2 JUMP JUMPDEST PUSH1 0xA SLOAD PUSH1 0x0 SWAP1 PUSH1 0x1 PUSH1 0xB0 SHL SWAP1 DIV PUSH1 0xFF AND ISZERO PUSH2 0x2803 JUMPI PUSH1 0x40 DUP1 MLOAD PUSH3 0x461BCD PUSH1 0xE5 SHL DUP2 MSTORE PUSH1 0x20 PUSH1 0x4 DUP3 ADD MSTORE PUSH1 0x12 PUSH1 0x24 DUP3 ADD MSTORE PUSH18 0x1D1C985B9CD9995C881A5CC81C185D5CD959 PUSH1 0x72 SHL PUSH1 0x44 DUP3 ADD MSTORE SWAP1 MLOAD SWAP1 DUP2 SWAP1 SUB PUSH1 0x64 ADD SWAP1 REVERT JUMPDEST PUSH1 0x0 PUSH2 0x2810 DUP7 DUP7 DUP6 PUSH2 0x49A1 JUMP JUMPDEST SWAP1 POP DUP1 ISZERO PUSH2 0x281F JUMPI SWAP1 POP PUSH2 0x159C JUMP JUMPDEST PUSH2 0x2828 DUP7 PUSH2 0x43B0 JUMP JUMPDEST PUSH2 0x2834 DUP7 DUP7 PUSH1 0x0 PUSH2 0x462E JUMP JUMPDEST PUSH2 0x1596 DUP7 DUP6 PUSH1 0x0 PUSH2 0x462E JUMP JUMPDEST PUSH1 0x60 PUSH1 0x0 DUP3 MLOAD SWAP1 POP PUSH1 0x60 DUP2 PUSH1 0x40 MLOAD SWAP1 DUP1 DUP3 MSTORE DUP1 PUSH1 0x20 MUL PUSH1 0x20 ADD DUP3 ADD PUSH1 0x40 MSTORE DUP1 ISZERO PUSH2 0x2874 JUMPI DUP2 PUSH1 0x20 ADD PUSH1 0x20 DUP3 MUL DUP1 CODESIZE DUP4 CODECOPY ADD SWAP1 POP JUMPDEST POP SWAP1 POP PUSH1 0x0 JUMPDEST DUP3 DUP2 LT ISZERO PUSH2 0x28CF JUMPI PUSH1 0x0 DUP6 DUP3 DUP2 MLOAD DUP2 LT PUSH2 0x2890 JUMPI INVALID JUMPDEST PUSH1 0x20 MUL PUSH1 0x20 ADD ADD MLOAD SWAP1 POP PUSH2 0x28A4 DUP2 CALLER PUSH2 0x4A44 JUMP JUMPDEST PUSH1 0x11 DUP2 GT ISZERO PUSH2 0x28AF JUMPI INVALID JUMPDEST DUP4 DUP4 DUP2 MLOAD DUP2 LT PUSH2 0x28BB JUMPI INVALID JUMPDEST PUSH1 0x20 SWAP1 DUP2 MUL SWAP2 SWAP1 SWAP2 ADD ADD MSTORE POP PUSH1 0x1 ADD PUSH2 0x287A JUMP JUMPDEST POP SWAP4 SWAP3 POP POP POP JUMP JUMPDEST PUSH1 0x4 DUP1 SLOAD PUSH1 0x40 DUP1 MLOAD PUSH4 0xFC57D4DF PUSH1 0xE0 SHL DUP2 MSTORE PUSH1 0x1 PUSH1 0x1 PUSH1 0xA0 SHL SUB DUP8 DUP2 AND SWAP5 DUP3 ADD SWAP5 SWAP1 SWAP5 MSTORE SWAP1 MLOAD PUSH1 0x0 SWAP4 DUP5 SWAP4 DUP5 SWAP4 SWAP2 AND SWAP2 PUSH4 0xFC57D4DF SWAP2 PUSH1 0x24 DUP1 DUP3 ADD SWAP3 PUSH1 0x20 SWAP3 SWAP1 SWAP2 SWAP1 DUP3 SWAP1 SUB ADD DUP2 DUP7 DUP1 EXTCODESIZE ISZERO DUP1 ISZERO PUSH2 0x292D JUMPI PUSH1 0x0 DUP1 REVERT JUMPDEST POP GAS STATICCALL ISZERO DUP1 ISZERO PUSH2 0x2941 JUMPI RETURNDATASIZE PUSH1 0x0 DUP1 RETURNDATACOPY RETURNDATASIZE PUSH1 0x0 REVERT JUMPDEST POP POP POP POP PUSH1 0x40 MLOAD RETURNDATASIZE PUSH1 0x20 DUP2 LT ISZERO PUSH2 0x2957 JUMPI PUSH1 0x0 DUP1 REVERT JUMPDEST POP MLOAD PUSH1 0x4 DUP1 SLOAD PUSH1 0x40 DUP1 MLOAD PUSH4 0xFC57D4DF PUSH1 0xE0 SHL DUP2 MSTORE PUSH1 0x1 PUSH1 0x1 PUSH1 0xA0 SHL SUB DUP11 DUP2 AND SWAP5 DUP3 ADD SWAP5 SWAP1 SWAP5 MSTORE SWAP1 MLOAD SWAP4 SWAP5 POP PUSH1 0x0 SWAP4 SWAP3 SWAP1 SWAP2 AND SWAP2 PUSH4 0xFC57D4DF SWAP2 PUSH1 0x24 DUP1 DUP3 ADD SWAP3 PUSH1 0x20 SWAP3 SWAP1 SWAP2 SWAP1 DUP3 SWAP1 SUB ADD DUP2 DUP7 DUP1 EXTCODESIZE ISZERO DUP1 ISZERO PUSH2 0x29B0 JUMPI PUSH1 0x0 DUP1 REVERT JUMPDEST POP GAS STATICCALL ISZERO DUP1 ISZERO PUSH2 0x29C4 JUMPI RETURNDATASIZE PUSH1 0x0 DUP1 RETURNDATACOPY RETURNDATASIZE PUSH1 0x0 REVERT JUMPDEST POP POP POP POP PUSH1 0x40 MLOAD RETURNDATASIZE PUSH1 0x20 DUP2 LT ISZERO PUSH2 0x29DA JUMPI PUSH1 0x0 DUP1 REVERT JUMPDEST POP MLOAD SWAP1 POP DUP2 ISZERO DUP1 PUSH2 0x29E9 JUMPI POP DUP1 ISZERO JUMPDEST ISZERO PUSH2 0x29FE JUMPI PUSH1 0xD SWAP4 POP PUSH1 0x0 SWAP3 POP PUSH2 0x2B44 SWAP2 POP POP JUMP JUMPDEST PUSH1 0x0 DUP7 PUSH1 0x1 PUSH1 0x1 PUSH1 0xA0 SHL SUB AND PUSH4 0x182DF0F5 PUSH1 0x40 MLOAD DUP2 PUSH4 0xFFFFFFFF AND PUSH1 0xE0 SHL DUP2 MSTORE PUSH1 0x4 ADD PUSH1 0x20 PUSH1 0x40 MLOAD DUP1 DUP4 SUB DUP2 DUP7 DUP1 EXTCODESIZE ISZERO DUP1 ISZERO PUSH2 0x2A39 JUMPI PUSH1 0x0 DUP1 REVERT JUMPDEST POP GAS STATICCALL ISZERO DUP1 ISZERO PUSH2 0x2A4D JUMPI RETURNDATASIZE PUSH1 0x0 DUP1 RETURNDATACOPY RETURNDATASIZE PUSH1 0x0 REVERT JUMPDEST POP POP POP POP PUSH1 0x40 MLOAD RETURNDATASIZE PUSH1 0x20 DUP2 LT ISZERO PUSH2 0x2A63 JUMPI PUSH1 0x0 DUP1 REVERT JUMPDEST POP MLOAD SWAP1 POP PUSH1 0x0 PUSH2 0x2A71 PUSH2 0x5869 JUMP JUMPDEST PUSH2 0x2A79 PUSH2 0x5869 JUMP JUMPDEST PUSH2 0x2A81 PUSH2 0x5869 JUMP JUMPDEST PUSH1 0x0 PUSH2 0x2A8F PUSH1 0x6 SLOAD DUP10 PUSH2 0x4B65 JUMP JUMPDEST SWAP5 POP SWAP1 POP PUSH1 0x0 DUP2 PUSH1 0x3 DUP2 GT ISZERO PUSH2 0x2AA1 JUMPI INVALID JUMPDEST EQ PUSH2 0x2ABD JUMPI PUSH1 0xB JUMPDEST SWAP10 POP PUSH1 0x0 SWAP9 POP PUSH2 0x2B44 SWAP8 POP POP POP POP POP POP POP POP JUMP JUMPDEST PUSH2 0x2AC7 DUP8 DUP8 PUSH2 0x4B65 JUMP JUMPDEST SWAP4 POP SWAP1 POP PUSH1 0x0 DUP2 PUSH1 0x3 DUP2 GT ISZERO PUSH2 0x2AD9 JUMPI INVALID JUMPDEST EQ PUSH2 0x2AE5 JUMPI PUSH1 0xB PUSH2 0x2AA9 JUMP JUMPDEST PUSH2 0x2AEF DUP5 DUP5 PUSH2 0x4BA0 JUMP JUMPDEST SWAP3 POP SWAP1 POP PUSH1 0x0 DUP2 PUSH1 0x3 DUP2 GT ISZERO PUSH2 0x2B01 JUMPI INVALID JUMPDEST EQ PUSH2 0x2B0D JUMPI PUSH1 0xB PUSH2 0x2AA9 JUMP JUMPDEST PUSH2 0x2B17 DUP3 DUP13 PUSH2 0x4846 JUMP JUMPDEST SWAP6 POP SWAP1 POP PUSH1 0x0 DUP2 PUSH1 0x3 DUP2 GT ISZERO PUSH2 0x2B29 JUMPI INVALID JUMPDEST EQ PUSH2 0x2B35 JUMPI PUSH1 0xB PUSH2 0x2AA9 JUMP JUMPDEST PUSH1 0x0 SWAP10 POP SWAP4 SWAP8 POP POP POP POP POP POP POP POP JUMPDEST SWAP4 POP SWAP4 SWAP2 POP POP JUMP JUMPDEST PUSH1 0x13 PUSH1 0x20 SWAP1 DUP2 MSTORE PUSH1 0x0 SWAP3 DUP4 MSTORE PUSH1 0x40 DUP1 DUP5 KECCAK256 SWAP1 SWAP2 MSTORE SWAP1 DUP3 MSTORE SWAP1 KECCAK256 SLOAD DUP2 JUMP JUMPDEST PUSH1 0x14 PUSH1 0x20 MSTORE PUSH1 0x0 SWAP1 DUP2 MSTORE PUSH1 0x40 SWAP1 KECCAK256 SLOAD DUP2 JUMP JUMPDEST PUSH2 0x2B83 PUSH2 0x489A JUMP JUMPDEST PUSH2 0x2BD4 JUMPI PUSH1 0x40 DUP1 MLOAD PUSH3 0x461BCD PUSH1 0xE5 SHL DUP2 MSTORE PUSH1 0x20 PUSH1 0x4 DUP3 ADD MSTORE PUSH1 0x1E PUSH1 0x24 DUP3 ADD MSTORE PUSH32 0x6F6E6C792061646D696E2063616E2061646420636F6D70206D61726B65740000 PUSH1 0x44 DUP3 ADD MSTORE SWAP1 MLOAD SWAP1 DUP2 SWAP1 SUB PUSH1 0x64 ADD SWAP1 REVERT JUMPDEST PUSH1 0x0 JUMPDEST DUP2 MLOAD DUP2 LT ISZERO PUSH2 0x2C04 JUMPI PUSH2 0x2BFC DUP3 DUP3 DUP2 MLOAD DUP2 LT PUSH2 0x2BEF JUMPI INVALID JUMPDEST PUSH1 0x20 MUL PUSH1 0x20 ADD ADD MLOAD PUSH2 0x4BB8 JUMP JUMPDEST PUSH1 0x1 ADD PUSH2 0x2BD7 JUMP JUMPDEST POP PUSH2 0x14BF PUSH2 0x3BD0 JUMP JUMPDEST PUSH1 0xA SLOAD PUSH1 0x0 SWAP1 PUSH1 0x1 PUSH1 0xB8 SHL SWAP1 DIV PUSH1 0xFF AND ISZERO PUSH2 0x2C61 JUMPI PUSH1 0x40 DUP1 MLOAD PUSH3 0x461BCD PUSH1 0xE5 SHL DUP2 MSTORE PUSH1 0x20 PUSH1 0x4 DUP3 ADD MSTORE PUSH1 0xF PUSH1 0x24 DUP3 ADD MSTORE PUSH15 0x1CD95A5E99481A5CC81C185D5CD959 PUSH1 0x8A SHL PUSH1 0x44 DUP3 ADD MSTORE SWAP1 MLOAD SWAP1 DUP2 SWAP1 SUB PUSH1 0x64 ADD SWAP1 REVERT JUMPDEST PUSH1 0x1 PUSH1 0x1 PUSH1 0xA0 SHL SUB DUP7 AND PUSH1 0x0 SWAP1 DUP2 MSTORE PUSH1 0x9 PUSH1 0x20 MSTORE PUSH1 0x40 SWAP1 KECCAK256 SLOAD PUSH1 0xFF AND ISZERO DUP1 PUSH2 0x2CA2 JUMPI POP PUSH1 0x1 PUSH1 0x1 PUSH1 0xA0 SHL SUB DUP6 AND PUSH1 0x0 SWAP1 DUP2 MSTORE PUSH1 0x9 PUSH1 0x20 MSTORE PUSH1 0x40 SWAP1 KECCAK256 SLOAD PUSH1 0xFF AND ISZERO JUMPDEST ISZERO PUSH2 0x2CAE JUMPI PUSH1 0x9 PUSH2 0x1F2C JUMP JUMPDEST DUP5 PUSH1 0x1 PUSH1 0x1 PUSH1 0xA0 SHL SUB AND PUSH4 0x5FE3B567 PUSH1 0x40 MLOAD DUP2 PUSH4 0xFFFFFFFF AND PUSH1 0xE0 SHL DUP2 MSTORE PUSH1 0x4 ADD PUSH1 0x20 PUSH1 0x40 MLOAD DUP1 DUP4 SUB DUP2 DUP7 DUP1 EXTCODESIZE ISZERO DUP1 ISZERO PUSH2 0x2CE7 JUMPI PUSH1 0x0 DUP1 REVERT JUMPDEST POP GAS STATICCALL ISZERO DUP1 ISZERO PUSH2 0x2CFB JUMPI RETURNDATASIZE PUSH1 0x0 DUP1 RETURNDATACOPY RETURNDATASIZE PUSH1 0x0 REVERT JUMPDEST POP POP POP POP PUSH1 0x40 MLOAD RETURNDATASIZE PUSH1 0x20 DUP2 LT ISZERO PUSH2 0x2D11 JUMPI PUSH1 0x0 DUP1 REVERT JUMPDEST POP MLOAD PUSH1 0x40 DUP1 MLOAD PUSH4 0x5FE3B567 PUSH1 0xE0 SHL DUP2 MSTORE SWAP1 MLOAD PUSH1 0x1 PUSH1 0x1 PUSH1 0xA0 SHL SUB SWAP3 DUP4 AND SWAP3 DUP10 AND SWAP2 PUSH4 0x5FE3B567 SWAP2 PUSH1 0x4 DUP1 DUP4 ADD SWAP3 PUSH1 0x20 SWAP3 SWAP2 SWAP1 DUP3 SWAP1 SUB ADD DUP2 DUP7 DUP1 EXTCODESIZE ISZERO DUP1 ISZERO PUSH2 0x2D57 JUMPI PUSH1 0x0 DUP1 REVERT JUMPDEST POP GAS STATICCALL ISZERO DUP1 ISZERO PUSH2 0x2D6B JUMPI RETURNDATASIZE PUSH1 0x0 DUP1 RETURNDATACOPY RETURNDATASIZE PUSH1 0x0 REVERT JUMPDEST POP POP POP POP PUSH1 0x40 MLOAD RETURNDATASIZE PUSH1 0x20 DUP2 LT ISZERO PUSH2 0x2D81 JUMPI PUSH1 0x0 DUP1 REVERT JUMPDEST POP MLOAD PUSH1 0x1 PUSH1 0x1 PUSH1 0xA0 SHL SUB AND EQ PUSH2 0x2D98 JUMPI PUSH1 0x2 PUSH2 0x1F2C JUMP JUMPDEST PUSH2 0x2DA1 DUP7 PUSH2 0x43B0 JUMP JUMPDEST PUSH2 0x2DAD DUP7 DUP5 PUSH1 0x0 PUSH2 0x462E JUMP JUMPDEST PUSH2 0x2DB9 DUP7 DUP6 PUSH1 0x0 PUSH2 0x462E JUMP JUMPDEST PUSH1 0x0 SWAP7 SWAP6 POP POP POP POP POP POP JUMP JUMPDEST PUSH1 0x0 DUP1 SLOAD PUSH1 0x1 PUSH1 0x1 PUSH1 0xA0 SHL SUB AND CALLER EQ PUSH2 0x2DE4 JUMPI PUSH2 0x171B PUSH1 0x1 PUSH1 0xD PUSH2 0x3B5B JUMP JUMPDEST PUSH1 0x7 DUP1 SLOAD SWAP1 DUP4 SWAP1 SSTORE PUSH1 0x40 DUP1 MLOAD DUP3 DUP2 MSTORE PUSH1 0x20 DUP2 ADD DUP6 SWAP1 MSTORE DUP2 MLOAD PUSH32 0x7093CF1EB653F749C3FF531D6DF7F92764536A7FA0D13530CD26E070780C32EA SWAP3 SWAP2 DUP2 SWAP1 SUB SWAP1 SWAP2 ADD SWAP1 LOG1 PUSH1 0x0 PUSH2 0x1C28 JUMP JUMPDEST PUSH1 0x1 PUSH1 0x1 PUSH1 0xA0 SHL SUB DUP4 AND PUSH1 0x0 SWAP1 DUP2 MSTORE PUSH1 0xC PUSH1 0x20 MSTORE PUSH1 0x40 DUP2 KECCAK256 SLOAD PUSH1 0xFF AND ISZERO PUSH2 0x2E8F JUMPI PUSH1 0x40 DUP1 MLOAD PUSH3 0x461BCD PUSH1 0xE5 SHL DUP2 MSTORE PUSH1 0x20 PUSH1 0x4 DUP3 ADD MSTORE PUSH1 0x10 PUSH1 0x24 DUP3 ADD MSTORE PUSH16 0x189BDC9C9BDDC81A5CC81C185D5CD959 PUSH1 0x82 SHL PUSH1 0x44 DUP3 ADD MSTORE SWAP1 MLOAD SWAP1 DUP2 SWAP1 SUB PUSH1 0x64 ADD SWAP1 REVERT JUMPDEST PUSH1 0x1 PUSH1 0x1 PUSH1 0xA0 SHL SUB DUP5 AND PUSH1 0x0 SWAP1 DUP2 MSTORE PUSH1 0x9 PUSH1 0x20 MSTORE PUSH1 0x40 SWAP1 KECCAK256 SLOAD PUSH1 0xFF AND PUSH2 0x2EB6 JUMPI PUSH1 0x9 PUSH2 0x1C06 JUMP JUMPDEST PUSH1 0x1 PUSH1 0x1 PUSH1 0xA0 SHL SUB DUP1 DUP6 AND PUSH1 0x0 SWAP1 DUP2 MSTORE PUSH1 0x9 PUSH1 0x20 SWAP1 DUP2 MSTORE PUSH1 0x40 DUP1 DUP4 KECCAK256 SWAP4 DUP8 AND DUP4 MSTORE PUSH1 0x2 SWAP1 SWAP4 ADD SWAP1 MSTORE KECCAK256 SLOAD PUSH1 0xFF AND PUSH2 0x2FA6 JUMPI CALLER PUSH1 0x1 PUSH1 0x1 PUSH1 0xA0 SHL SUB DUP6 AND EQ PUSH2 0x2F3C JUMPI PUSH1 0x40 DUP1 MLOAD PUSH3 0x461BCD PUSH1 0xE5 SHL DUP2 MSTORE PUSH1 0x20 PUSH1 0x4 DUP3 ADD MSTORE PUSH1 0x15 PUSH1 0x24 DUP3 ADD MSTORE PUSH21 0x39B2B73232B91036BAB9BA1031329031AA37B5B2B7 PUSH1 0x59 SHL PUSH1 0x44 DUP3 ADD MSTORE SWAP1 MLOAD SWAP1 DUP2 SWAP1 SUB PUSH1 0x64 ADD SWAP1 REVERT JUMPDEST PUSH1 0x0 PUSH2 0x2F48 CALLER DUP6 PUSH2 0x4A44 JUMP JUMPDEST SWAP1 POP PUSH1 0x0 DUP2 PUSH1 0x11 DUP2 GT ISZERO PUSH2 0x2F58 JUMPI INVALID JUMPDEST EQ PUSH2 0x2F71 JUMPI DUP1 PUSH1 0x11 DUP2 GT ISZERO PUSH2 0x2F69 JUMPI INVALID JUMPDEST SWAP2 POP POP PUSH2 0x1C28 JUMP JUMPDEST PUSH1 0x1 PUSH1 0x1 PUSH1 0xA0 SHL SUB DUP1 DUP7 AND PUSH1 0x0 SWAP1 DUP2 MSTORE PUSH1 0x9 PUSH1 0x20 SWAP1 DUP2 MSTORE PUSH1 0x40 DUP1 DUP4 KECCAK256 SWAP4 DUP9 AND DUP4 MSTORE PUSH1 0x2 SWAP1 SWAP4 ADD SWAP1 MSTORE KECCAK256 SLOAD PUSH1 0xFF AND PUSH2 0x2FA4 JUMPI INVALID JUMPDEST POP JUMPDEST PUSH1 0x4 DUP1 SLOAD PUSH1 0x40 DUP1 MLOAD PUSH4 0xFC57D4DF PUSH1 0xE0 SHL DUP2 MSTORE PUSH1 0x1 PUSH1 0x1 PUSH1 0xA0 SHL SUB DUP9 DUP2 AND SWAP5 DUP3 ADD SWAP5 SWAP1 SWAP5 MSTORE SWAP1 MLOAD SWAP3 SWAP1 SWAP2 AND SWAP2 PUSH4 0xFC57D4DF SWAP2 PUSH1 0x24 DUP1 DUP3 ADD SWAP3 PUSH1 0x20 SWAP3 SWAP1 SWAP2 SWAP1 DUP3 SWAP1 SUB ADD DUP2 DUP7 DUP1 EXTCODESIZE ISZERO DUP1 ISZERO PUSH2 0x2FF7 JUMPI PUSH1 0x0 DUP1 REVERT JUMPDEST POP GAS STATICCALL ISZERO DUP1 ISZERO PUSH2 0x300B JUMPI RETURNDATASIZE PUSH1 0x0 DUP1 RETURNDATACOPY RETURNDATASIZE PUSH1 0x0 REVERT JUMPDEST POP POP POP POP PUSH1 0x40 MLOAD RETURNDATASIZE PUSH1 0x20 DUP2 LT ISZERO PUSH2 0x3021 JUMPI PUSH1 0x0 DUP1 REVERT JUMPDEST POP MLOAD PUSH2 0x302E JUMPI PUSH1 0xD PUSH2 0x1C06 JUMP JUMPDEST PUSH1 0x0 DUP1 PUSH2 0x303E DUP6 DUP8 PUSH1 0x0 DUP8 PUSH2 0x3F95 JUMP JUMPDEST SWAP2 SWAP4 POP SWAP1 SWAP2 POP PUSH1 0x0 SWAP1 POP DUP3 PUSH1 0x11 DUP2 GT ISZERO PUSH2 0x3054 JUMPI INVALID JUMPDEST EQ PUSH2 0x306E JUMPI DUP2 PUSH1 0x11 DUP2 GT ISZERO PUSH2 0x3065 JUMPI INVALID JUMPDEST SWAP3 POP POP POP PUSH2 0x1C28 JUMP JUMPDEST DUP1 ISZERO PUSH2 0x307B JUMPI PUSH1 0x4 PUSH2 0x3065 JUMP JUMPDEST PUSH2 0x3083 PUSH2 0x5869 JUMP JUMPDEST PUSH1 0x40 MLOAD DUP1 PUSH1 0x20 ADD PUSH1 0x40 MSTORE DUP1 DUP9 PUSH1 0x1 PUSH1 0x1 PUSH1 0xA0 SHL SUB AND PUSH4 0xAA5AF0FD PUSH1 0x40 MLOAD DUP2 PUSH4 0xFFFFFFFF AND PUSH1 0xE0 SHL DUP2 MSTORE PUSH1 0x4 ADD PUSH1 0x20 PUSH1 0x40 MLOAD DUP1 DUP4 SUB DUP2 DUP7 DUP1 EXTCODESIZE ISZERO DUP1 ISZERO PUSH2 0x30C7 JUMPI PUSH1 0x0 DUP1 REVERT JUMPDEST POP GAS STATICCALL ISZERO DUP1 ISZERO PUSH2 0x30DB JUMPI RETURNDATASIZE PUSH1 0x0 DUP1 RETURNDATACOPY RETURNDATASIZE PUSH1 0x0 REVERT JUMPDEST POP POP POP POP PUSH1 0x40 MLOAD RETURNDATASIZE PUSH1 0x20 DUP2 LT ISZERO PUSH2 0x30F1 JUMPI PUSH1 0x0 DUP1 REVERT JUMPDEST POP MLOAD SWAP1 MSTORE SWAP1 POP PUSH2 0x3101 DUP8 DUP3 PUSH2 0x36E8 JUMP JUMPDEST PUSH2 0x310E DUP8 DUP8 DUP4 PUSH1 0x0 PUSH2 0x3970 JUMP JUMPDEST PUSH1 0x0 SWAP8 SWAP7 POP POP POP POP POP POP POP JUMP JUMPDEST PUSH1 0x8 PUSH1 0x20 MSTORE DUP2 PUSH1 0x0 MSTORE PUSH1 0x40 PUSH1 0x0 KECCAK256 DUP2 DUP2 SLOAD DUP2 LT PUSH2 0x3134 JUMPI INVALID JUMPDEST PUSH1 0x0 SWAP2 DUP3 MSTORE PUSH1 0x20 SWAP1 SWAP2 KECCAK256 ADD SLOAD PUSH1 0x1 PUSH1 0x1 PUSH1 0xA0 SHL SUB AND SWAP2 POP DUP3 SWAP1 POP JUMP JUMPDEST PUSH1 0x3 SLOAD PUSH1 0x1 PUSH1 0x1 PUSH1 0xA0 SHL SUB AND DUP2 JUMP JUMPDEST PUSH1 0x0 DUP1 SLOAD PUSH1 0x1 PUSH1 0x1 PUSH1 0xA0 SHL SUB AND CALLER EQ PUSH2 0x3185 JUMPI PUSH2 0x317E PUSH1 0x1 PUSH1 0x6 PUSH2 0x3B5B JUMP JUMPDEST SWAP1 POP PUSH2 0x12FB JUMP JUMPDEST PUSH1 0x1 PUSH1 0x1 PUSH1 0xA0 SHL SUB DUP4 AND PUSH1 0x0 SWAP1 DUP2 MSTORE PUSH1 0x9 PUSH1 0x20 MSTORE PUSH1 0x40 SWAP1 KECCAK256 DUP1 SLOAD PUSH1 0xFF AND PUSH2 0x31BA JUMPI PUSH2 0x31B2 PUSH1 0x9 PUSH1 0x7 PUSH2 0x3B5B JUMP JUMPDEST SWAP2 POP POP PUSH2 0x12FB JUMP JUMPDEST PUSH2 0x31C2 PUSH2 0x5869 JUMP JUMPDEST POP PUSH1 0x40 DUP1 MLOAD PUSH1 0x20 DUP2 ADD SWAP1 SWAP2 MSTORE DUP4 DUP2 MSTORE PUSH2 0x31D9 PUSH2 0x5869 JUMP JUMPDEST POP PUSH1 0x40 DUP1 MLOAD PUSH1 0x20 DUP2 ADD SWAP1 SWAP2 MSTORE PUSH8 0xC7D713B49DA0000 DUP2 MSTORE PUSH2 0x31FA DUP2 DUP4 PUSH2 0x3BC9 JUMP JUMPDEST ISZERO PUSH2 0x3215 JUMPI PUSH2 0x320B PUSH1 0x6 PUSH1 0x8 PUSH2 0x3B5B JUMP JUMPDEST SWAP4 POP POP POP POP PUSH2 0x12FB JUMP JUMPDEST DUP5 ISZERO DUP1 ISZERO SWAP1 PUSH2 0x329E JUMPI POP PUSH1 0x4 DUP1 SLOAD PUSH1 0x40 DUP1 MLOAD PUSH4 0xFC57D4DF PUSH1 0xE0 SHL DUP2 MSTORE PUSH1 0x1 PUSH1 0x1 PUSH1 0xA0 SHL SUB DUP11 DUP2 AND SWAP5 DUP3 ADD SWAP5 SWAP1 SWAP5 MSTORE SWAP1 MLOAD SWAP3 SWAP1 SWAP2 AND SWAP2 PUSH4 0xFC57D4DF SWAP2 PUSH1 0x24 DUP1 DUP3 ADD SWAP3 PUSH1 0x20 SWAP3 SWAP1 SWAP2 SWAP1 DUP3 SWAP1 SUB ADD DUP2 DUP7 DUP1 EXTCODESIZE ISZERO DUP1 ISZERO PUSH2 0x3270 JUMPI PUSH1 0x0 DUP1 REVERT JUMPDEST POP GAS STATICCALL ISZERO DUP1 ISZERO PUSH2 0x3284 JUMPI RETURNDATASIZE PUSH1 0x0 DUP1 RETURNDATACOPY RETURNDATASIZE PUSH1 0x0 REVERT JUMPDEST POP POP POP POP PUSH1 0x40 MLOAD RETURNDATASIZE PUSH1 0x20 DUP2 LT ISZERO PUSH2 0x329A JUMPI PUSH1 0x0 DUP1 REVERT JUMPDEST POP MLOAD ISZERO JUMPDEST ISZERO PUSH2 0x32AF JUMPI PUSH2 0x320B PUSH1 0xD PUSH1 0x9 PUSH2 0x3B5B JUMP JUMPDEST PUSH1 0x1 DUP4 ADD DUP1 SLOAD SWAP1 DUP7 SWAP1 SSTORE PUSH1 0x40 DUP1 MLOAD PUSH1 0x1 PUSH1 0x1 PUSH1 0xA0 SHL SUB DUP10 AND DUP2 MSTORE PUSH1 0x20 DUP2 ADD DUP4 SWAP1 MSTORE DUP1 DUP3 ADD DUP9 SWAP1 MSTORE SWAP1 MLOAD PUSH32 0x70483E6592CD5182D45AC970E05BC62CDCC90E9D8EF2C2DBE686CF383BCD7FC5 SWAP2 DUP2 SWAP1 SUB PUSH1 0x60 ADD SWAP1 LOG1 PUSH1 0x0 SWAP8 SWAP7 POP POP POP POP POP POP POP JUMP JUMPDEST PUSH1 0xA SLOAD PUSH1 0x1 PUSH1 0xA8 SHL SWAP1 DIV PUSH1 0xFF AND DUP2 JUMP JUMPDEST PUSH1 0x5 SLOAD DUP2 JUMP JUMPDEST PUSH2 0x14BF DUP2 PUSH1 0xD DUP1 SLOAD DUP1 PUSH1 0x20 MUL PUSH1 0x20 ADD PUSH1 0x40 MLOAD SWAP1 DUP2 ADD PUSH1 0x40 MSTORE DUP1 SWAP3 SWAP2 SWAP1 DUP2 DUP2 MSTORE PUSH1 0x20 ADD DUP3 DUP1 SLOAD DUP1 ISZERO PUSH2 0x337F JUMPI PUSH1 0x20 MUL DUP3 ADD SWAP2 SWAP1 PUSH1 0x0 MSTORE PUSH1 0x20 PUSH1 0x0 KECCAK256 SWAP1 JUMPDEST DUP2 SLOAD PUSH1 0x1 PUSH1 0x1 PUSH1 0xA0 SHL SUB AND DUP2 MSTORE PUSH1 0x1 SWAP1 SWAP2 ADD SWAP1 PUSH1 0x20 ADD DUP1 DUP4 GT PUSH2 0x3361 JUMPI JUMPDEST POP POP POP POP POP PUSH2 0x1301 JUMP JUMPDEST PUSH1 0x0 DUP1 PUSH2 0x3397 DUP6 DUP6 DUP6 PUSH2 0x49A1 JUMP JUMPDEST SWAP1 POP DUP1 ISZERO PUSH2 0x33A6 JUMPI SWAP1 POP PUSH2 0x1C28 JUMP JUMPDEST PUSH2 0x33AF DUP6 PUSH2 0x43B0 JUMP JUMPDEST PUSH2 0x33BB DUP6 DUP6 PUSH1 0x0 PUSH2 0x462E JUMP JUMPDEST PUSH1 0x0 SWAP6 SWAP5 POP POP POP POP POP JUMP JUMPDEST PUSH1 0x0 DUP1 DUP3 SWAP1 POP PUSH1 0x0 DUP1 PUSH1 0x0 DUP4 PUSH1 0x1 PUSH1 0x1 PUSH1 0xA0 SHL SUB AND PUSH4 0xC37F68E2 CALLER PUSH1 0x40 MLOAD DUP3 PUSH4 0xFFFFFFFF AND PUSH1 0xE0 SHL DUP2 MSTORE PUSH1 0x4 ADD DUP1 DUP3 PUSH1 0x1 PUSH1 0x1 PUSH1 0xA0 SHL SUB AND PUSH1 0x1 PUSH1 0x1 PUSH1 0xA0 SHL SUB AND DUP2 MSTORE PUSH1 0x20 ADD SWAP2 POP POP PUSH1 0x80 PUSH1 0x40 MLOAD DUP1 DUP4 SUB DUP2 DUP7 DUP1 EXTCODESIZE ISZERO DUP1 ISZERO PUSH2 0x3427 JUMPI PUSH1 0x0 DUP1 REVERT JUMPDEST POP GAS STATICCALL ISZERO DUP1 ISZERO PUSH2 0x343B JUMPI RETURNDATASIZE PUSH1 0x0 DUP1 RETURNDATACOPY RETURNDATASIZE PUSH1 0x0 REVERT JUMPDEST POP POP POP POP PUSH1 0x40 MLOAD RETURNDATASIZE PUSH1 0x80 DUP2 LT ISZERO PUSH2 0x3451 JUMPI PUSH1 0x0 DUP1 REVERT JUMPDEST POP DUP1 MLOAD PUSH1 0x20 DUP3 ADD MLOAD PUSH1 0x40 SWAP1 SWAP3 ADD MLOAD SWAP1 SWAP5 POP SWAP1 SWAP3 POP SWAP1 POP DUP3 ISZERO PUSH2 0x34A4 JUMPI PUSH1 0x40 MLOAD PUSH3 0x461BCD PUSH1 0xE5 SHL DUP2 MSTORE PUSH1 0x4 ADD DUP1 DUP1 PUSH1 0x20 ADD DUP3 DUP2 SUB DUP3 MSTORE PUSH1 0x25 DUP2 MSTORE PUSH1 0x20 ADD DUP1 PUSH2 0x59A9 PUSH1 0x25 SWAP2 CODECOPY PUSH1 0x40 ADD SWAP2 POP POP PUSH1 0x40 MLOAD DUP1 SWAP2 SUB SWAP1 REVERT JUMPDEST DUP1 ISZERO PUSH2 0x34C1 JUMPI PUSH2 0x34B6 PUSH1 0xC PUSH1 0x2 PUSH2 0x3B5B JUMP JUMPDEST SWAP5 POP POP POP POP POP PUSH2 0x16F7 JUMP JUMPDEST PUSH1 0x0 PUSH2 0x34CE DUP8 CALLER DUP6 PUSH2 0x49A1 JUMP JUMPDEST SWAP1 POP DUP1 ISZERO PUSH2 0x34EF JUMPI PUSH2 0x34E3 PUSH1 0xE PUSH1 0x3 DUP4 PUSH2 0x4ED3 JUMP JUMPDEST SWAP6 POP POP POP POP POP POP PUSH2 0x16F7 JUMP JUMPDEST PUSH1 0x1 PUSH1 0x1 PUSH1 0xA0 SHL SUB DUP6 AND PUSH1 0x0 SWAP1 DUP2 MSTORE PUSH1 0x9 PUSH1 0x20 SWAP1 DUP2 MSTORE PUSH1 0x40 DUP1 DUP4 KECCAK256 CALLER DUP5 MSTORE PUSH1 0x2 DUP2 ADD SWAP1 SWAP3 MSTORE SWAP1 SWAP2 KECCAK256 SLOAD PUSH1 0xFF AND PUSH2 0x352E JUMPI PUSH1 0x0 SWAP7 POP POP POP POP POP POP POP PUSH2 0x16F7 JUMP JUMPDEST CALLER PUSH1 0x0 SWAP1 DUP2 MSTORE PUSH1 0x2 DUP3 ADD PUSH1 0x20 SWAP1 DUP2 MSTORE PUSH1 0x40 DUP1 DUP4 KECCAK256 DUP1 SLOAD PUSH1 0xFF NOT AND SWAP1 SSTORE PUSH1 0x8 DUP3 MSTORE SWAP2 DUP3 SWAP1 KECCAK256 DUP1 SLOAD DUP4 MLOAD DUP2 DUP5 MUL DUP2 ADD DUP5 ADD SWAP1 SWAP5 MSTORE DUP1 DUP5 MSTORE PUSH1 0x60 SWAP4 SWAP3 DUP4 ADD DUP3 DUP3 DUP1 ISZERO PUSH2 0x35A0 JUMPI PUSH1 0x20 MUL DUP3 ADD SWAP2 SWAP1 PUSH1 0x0 MSTORE PUSH1 0x20 PUSH1 0x0 KECCAK256 SWAP1 JUMPDEST DUP2 SLOAD PUSH1 0x1 PUSH1 0x1 PUSH1 0xA0 SHL SUB AND DUP2 MSTORE PUSH1 0x1 SWAP1 SWAP2 ADD SWAP1 PUSH1 0x20 ADD DUP1 DUP4 GT PUSH2 0x3582 JUMPI JUMPDEST POP POP DUP4 MLOAD SWAP4 SWAP5 POP DUP4 SWAP3 POP PUSH1 0x0 SWAP2 POP POP JUMPDEST DUP3 DUP2 LT ISZERO PUSH2 0x35F5 JUMPI DUP10 PUSH1 0x1 PUSH1 0x1 PUSH1 0xA0 SHL SUB AND DUP5 DUP3 DUP2 MLOAD DUP2 LT PUSH2 0x35CE JUMPI INVALID JUMPDEST PUSH1 0x20 MUL PUSH1 0x20 ADD ADD MLOAD PUSH1 0x1 PUSH1 0x1 PUSH1 0xA0 SHL SUB AND EQ ISZERO PUSH2 0x35ED JUMPI DUP1 SWAP2 POP PUSH2 0x35F5 JUMP JUMPDEST PUSH1 0x1 ADD PUSH2 0x35B0 JUMP JUMPDEST POP DUP2 DUP2 LT PUSH2 0x35FF JUMPI INVALID JUMPDEST CALLER PUSH1 0x0 SWAP1 DUP2 MSTORE PUSH1 0x8 PUSH1 0x20 MSTORE PUSH1 0x40 SWAP1 KECCAK256 DUP1 SLOAD DUP2 SWAP1 PUSH1 0x0 NOT DUP2 ADD SWAP1 DUP2 LT PUSH2 0x3620 JUMPI INVALID JUMPDEST SWAP1 PUSH1 0x0 MSTORE PUSH1 0x20 PUSH1 0x0 KECCAK256 ADD PUSH1 0x0 SWAP1 SLOAD SWAP1 PUSH2 0x100 EXP SWAP1 DIV PUSH1 0x1 PUSH1 0x1 PUSH1 0xA0 SHL SUB AND DUP2 DUP4 DUP2 SLOAD DUP2 LT PUSH2 0x364A JUMPI INVALID JUMPDEST PUSH1 0x0 SWAP2 DUP3 MSTORE PUSH1 0x20 SWAP1 SWAP2 KECCAK256 ADD DUP1 SLOAD PUSH1 0x1 PUSH1 0x1 PUSH1 0xA0 SHL SUB NOT AND PUSH1 0x1 PUSH1 0x1 PUSH1 0xA0 SHL SUB SWAP3 SWAP1 SWAP3 AND SWAP2 SWAP1 SWAP2 OR SWAP1 SSTORE DUP1 SLOAD PUSH2 0x3683 DUP3 PUSH1 0x0 NOT DUP4 ADD PUSH2 0x587C JUMP JUMPDEST POP PUSH1 0x40 DUP1 MLOAD PUSH1 0x1 PUSH1 0x1 PUSH1 0xA0 SHL SUB DUP13 AND DUP2 MSTORE CALLER PUSH1 0x20 DUP3 ADD MSTORE DUP2 MLOAD PUSH32 0xE699A64C18B07AC5B7301AA273F36A2287239EB9501D81950672794AFBA29A0D SWAP3 SWAP2 DUP2 SWAP1 SUB SWAP1 SWAP2 ADD SWAP1 LOG1 PUSH1 0x0 SWAP13 SWAP12 POP POP POP POP POP POP POP POP POP POP POP POP JUMP JUMPDEST PUSH1 0x0 SLOAD PUSH1 0x1 PUSH1 0x1 PUSH1 0xA0 SHL SUB AND DUP2 JUMP JUMPDEST PUSH1 0x1 PUSH1 0x1 PUSH1 0xA0 SHL SUB DUP3 AND PUSH1 0x0 SWAP1 DUP2 MSTORE PUSH1 0x11 PUSH1 0x20 SWAP1 DUP2 MSTORE PUSH1 0x40 DUP1 DUP4 KECCAK256 PUSH1 0xF SWAP1 SWAP3 MSTORE DUP3 KECCAK256 SLOAD SWAP1 SWAP2 PUSH2 0x3715 PUSH2 0x1AEF JUMP JUMPDEST DUP4 SLOAD SWAP1 SWAP2 POP PUSH1 0x0 SWAP1 PUSH2 0x3735 SWAP1 DUP4 SWAP1 PUSH1 0x1 PUSH1 0xE0 SHL SWAP1 DIV PUSH4 0xFFFFFFFF AND PUSH2 0x4F39 JUMP JUMPDEST SWAP1 POP PUSH1 0x0 DUP2 GT DUP1 ISZERO PUSH2 0x3747 JUMPI POP PUSH1 0x0 DUP4 GT JUMPDEST ISZERO PUSH2 0x3916 JUMPI PUSH1 0x0 PUSH2 0x37BC DUP8 PUSH1 0x1 PUSH1 0x1 PUSH1 0xA0 SHL SUB AND PUSH4 0x47BD3718 PUSH1 0x40 MLOAD DUP2 PUSH4 0xFFFFFFFF AND PUSH1 0xE0 SHL DUP2 MSTORE PUSH1 0x4 ADD PUSH1 0x20 PUSH1 0x40 MLOAD DUP1 DUP4 SUB DUP2 DUP7 DUP1 EXTCODESIZE ISZERO DUP1 ISZERO PUSH2 0x378A JUMPI PUSH1 0x0 DUP1 REVERT JUMPDEST POP GAS STATICCALL ISZERO DUP1 ISZERO PUSH2 0x379E JUMPI RETURNDATASIZE PUSH1 0x0 DUP1 RETURNDATACOPY RETURNDATASIZE PUSH1 0x0 REVERT JUMPDEST POP POP POP POP PUSH1 0x40 MLOAD RETURNDATASIZE PUSH1 0x20 DUP2 LT ISZERO PUSH2 0x37B4 JUMPI PUSH1 0x0 DUP1 REVERT JUMPDEST POP MLOAD DUP8 PUSH2 0x4F73 JUMP JUMPDEST SWAP1 POP PUSH1 0x0 PUSH2 0x37CA DUP4 DUP7 PUSH2 0x4F91 JUMP JUMPDEST SWAP1 POP PUSH2 0x37D4 PUSH2 0x5869 JUMP JUMPDEST PUSH1 0x0 DUP4 GT PUSH2 0x37F1 JUMPI PUSH1 0x40 MLOAD DUP1 PUSH1 0x20 ADD PUSH1 0x40 MSTORE DUP1 PUSH1 0x0 DUP2 MSTORE POP PUSH2 0x37FB JUMP JUMPDEST PUSH2 0x37FB DUP3 DUP5 PUSH2 0x4FD3 JUMP JUMPDEST SWAP1 POP PUSH2 0x3805 PUSH2 0x5869 JUMP JUMPDEST PUSH1 0x40 DUP1 MLOAD PUSH1 0x20 DUP2 ADD SWAP1 SWAP2 MSTORE DUP9 SLOAD PUSH1 0x1 PUSH1 0x1 PUSH1 0xE0 SHL SUB AND DUP2 MSTORE PUSH2 0x3827 SWAP1 DUP4 PUSH2 0x5011 JUMP JUMPDEST SWAP1 POP PUSH1 0x40 MLOAD DUP1 PUSH1 0x40 ADD PUSH1 0x40 MSTORE DUP1 PUSH2 0x3877 DUP4 PUSH1 0x0 ADD MLOAD PUSH1 0x40 MLOAD DUP1 PUSH1 0x40 ADD PUSH1 0x40 MSTORE DUP1 PUSH1 0x1A DUP2 MSTORE PUSH1 0x20 ADD PUSH32 0x6E657720696E6465782065786365656473203232342062697473000000000000 DUP2 MSTORE POP PUSH2 0x5036 JUMP JUMPDEST PUSH1 0x1 PUSH1 0x1 PUSH1 0xE0 SHL SUB AND DUP2 MSTORE PUSH1 0x20 ADD PUSH2 0x38B2 DUP9 PUSH1 0x40 MLOAD DUP1 PUSH1 0x40 ADD PUSH1 0x40 MSTORE DUP1 PUSH1 0x1C DUP2 MSTORE PUSH1 0x20 ADD PUSH1 0x0 DUP1 MLOAD PUSH1 0x20 PUSH2 0x59CE DUP4 CODECOPY DUP2 MLOAD SWAP2 MSTORE DUP2 MSTORE POP PUSH2 0x50D0 JUMP JUMPDEST PUSH4 0xFFFFFFFF SWAP1 DUP2 AND SWAP1 SWAP2 MSTORE PUSH1 0x1 PUSH1 0x1 PUSH1 0xA0 SHL SUB DUP13 AND PUSH1 0x0 SWAP1 DUP2 MSTORE PUSH1 0x11 PUSH1 0x20 SWAP1 DUP2 MSTORE PUSH1 0x40 SWAP1 SWAP2 KECCAK256 DUP4 MLOAD DUP2 SLOAD SWAP5 SWAP1 SWAP3 ADD MLOAD SWAP1 SWAP3 AND PUSH1 0x1 PUSH1 0xE0 SHL MUL PUSH1 0x1 PUSH1 0x1 PUSH1 0xE0 SHL SUB SWAP2 DUP3 AND PUSH1 0x1 PUSH1 0x1 PUSH1 0xE0 SHL SUB NOT SWAP1 SWAP5 AND SWAP4 SWAP1 SWAP4 OR AND SWAP2 SWAP1 SWAP2 OR SWAP1 SSTORE POP PUSH2 0x1AF4 SWAP3 POP POP POP JUMP JUMPDEST DUP1 ISZERO PUSH2 0x1AF4 JUMPI PUSH2 0x3949 DUP3 PUSH1 0x40 MLOAD DUP1 PUSH1 0x40 ADD PUSH1 0x40 MSTORE DUP1 PUSH1 0x1C DUP2 MSTORE PUSH1 0x20 ADD PUSH1 0x0 DUP1 MLOAD PUSH1 0x20 PUSH2 0x59CE DUP4 CODECOPY DUP2 MLOAD SWAP2 MSTORE DUP2 MSTORE POP PUSH2 0x50D0 JUMP JUMPDEST DUP5 SLOAD PUSH4 0xFFFFFFFF SWAP2 SWAP1 SWAP2 AND PUSH1 0x1 PUSH1 0xE0 SHL MUL PUSH1 0x1 PUSH1 0x1 PUSH1 0xE0 SHL SUB SWAP1 SWAP2 AND OR DUP5 SSTORE POP POP POP POP POP POP JUMP JUMPDEST PUSH1 0x1 PUSH1 0x1 PUSH1 0xA0 SHL SUB DUP5 AND PUSH1 0x0 SWAP1 DUP2 MSTORE PUSH1 0x11 PUSH1 0x20 MSTORE PUSH1 0x40 SWAP1 KECCAK256 PUSH2 0x3990 PUSH2 0x5869 JUMP JUMPDEST POP PUSH1 0x40 DUP1 MLOAD PUSH1 0x20 DUP2 ADD SWAP1 SWAP2 MSTORE DUP2 SLOAD PUSH1 0x1 PUSH1 0x1 PUSH1 0xE0 SHL SUB AND DUP2 MSTORE PUSH2 0x39B1 PUSH2 0x5869 JUMP JUMPDEST POP PUSH1 0x40 DUP1 MLOAD PUSH1 0x20 DUP1 DUP3 ADD DUP4 MSTORE PUSH1 0x1 PUSH1 0x1 PUSH1 0xA0 SHL SUB DUP1 DUP11 AND PUSH1 0x0 SWAP1 DUP2 MSTORE PUSH1 0x13 DUP4 MSTORE DUP5 DUP2 KECCAK256 SWAP2 DUP11 AND DUP1 DUP3 MSTORE DUP3 DUP5 MSTORE SWAP5 DUP2 KECCAK256 DUP1 SLOAD DUP6 MSTORE DUP7 MLOAD SWAP6 SWAP1 SWAP2 MSTORE SWAP2 MSTORE SWAP2 SWAP1 SWAP2 SSTORE DUP1 MLOAD ISZERO PUSH2 0x3B52 JUMPI PUSH2 0x39FF PUSH2 0x5869 JUMP JUMPDEST PUSH2 0x3A09 DUP4 DUP4 PUSH2 0x5125 JUMP JUMPDEST SWAP1 POP PUSH1 0x0 PUSH2 0x3A98 DUP10 PUSH1 0x1 PUSH1 0x1 PUSH1 0xA0 SHL SUB AND PUSH4 0x95DD9193 DUP11 PUSH1 0x40 MLOAD DUP3 PUSH4 0xFFFFFFFF AND PUSH1 0xE0 SHL DUP2 MSTORE PUSH1 0x4 ADD DUP1 DUP3 PUSH1 0x1 PUSH1 0x1 PUSH1 0xA0 SHL SUB AND PUSH1 0x1 PUSH1 0x1 PUSH1 0xA0 SHL SUB AND DUP2 MSTORE PUSH1 0x20 ADD SWAP2 POP POP PUSH1 0x20 PUSH1 0x40 MLOAD DUP1 DUP4 SUB DUP2 DUP7 DUP1 EXTCODESIZE ISZERO DUP1 ISZERO PUSH2 0x3A66 JUMPI PUSH1 0x0 DUP1 REVERT JUMPDEST POP GAS STATICCALL ISZERO DUP1 ISZERO PUSH2 0x3A7A JUMPI RETURNDATASIZE PUSH1 0x0 DUP1 RETURNDATACOPY RETURNDATASIZE PUSH1 0x0 REVERT JUMPDEST POP POP POP POP PUSH1 0x40 MLOAD RETURNDATASIZE PUSH1 0x20 DUP2 LT ISZERO PUSH2 0x3A90 JUMPI PUSH1 0x0 DUP1 REVERT JUMPDEST POP MLOAD DUP9 PUSH2 0x4F73 JUMP JUMPDEST SWAP1 POP PUSH1 0x0 PUSH2 0x3AA6 DUP3 DUP5 PUSH2 0x514A JUMP JUMPDEST PUSH1 0x1 PUSH1 0x1 PUSH1 0xA0 SHL SUB DUP11 AND PUSH1 0x0 SWAP1 DUP2 MSTORE PUSH1 0x14 PUSH1 0x20 MSTORE PUSH1 0x40 DUP2 KECCAK256 SLOAD SWAP2 SWAP3 POP SWAP1 PUSH2 0x3ACD SWAP1 DUP4 PUSH2 0x5179 JUMP JUMPDEST SWAP1 POP PUSH2 0x3AEE DUP11 DUP3 DUP11 PUSH2 0x3AE6 JUMPI PUSH7 0x38D7EA4C68000 PUSH2 0x3AE9 JUMP JUMPDEST PUSH1 0x0 JUMPDEST PUSH2 0x51AF JUMP JUMPDEST PUSH1 0x1 PUSH1 0x1 PUSH1 0xA0 SHL SUB DUP1 DUP13 AND PUSH1 0x0 DUP2 DUP2 MSTORE PUSH1 0x14 PUSH1 0x20 SWAP1 DUP2 MSTORE PUSH1 0x40 SWAP2 DUP3 SWAP1 KECCAK256 SWAP5 SWAP1 SWAP5 SSTORE DUP10 MLOAD DUP2 MLOAD DUP8 DUP2 MSTORE SWAP5 DUP6 ADD MSTORE DUP1 MLOAD SWAP2 SWAP4 SWAP3 DUP16 AND SWAP3 PUSH32 0x1FC3ECC087D8D2D15E23D0032AF5A47059C3892D003D8E139FDCB6BB327C99A6 SWAP3 SWAP1 DUP2 SWAP1 SUB SWAP1 SWAP2 ADD SWAP1 LOG3 POP POP POP POP JUMPDEST POP POP POP POP POP POP POP JUMP JUMPDEST PUSH1 0x0 PUSH32 0x45B96FE442630264581B197E84BBADA861235052C5A1AADFFF9EA4E40A969AA0 DUP4 PUSH1 0x11 DUP2 GT ISZERO PUSH2 0x3B8A JUMPI INVALID JUMPDEST DUP4 PUSH1 0x13 DUP2 GT ISZERO PUSH2 0x3B96 JUMPI INVALID JUMPDEST PUSH1 0x40 DUP1 MLOAD SWAP3 DUP4 MSTORE PUSH1 0x20 DUP4 ADD SWAP2 SWAP1 SWAP2 MSTORE PUSH1 0x0 DUP3 DUP3 ADD MSTORE MLOAD SWAP1 DUP2 SWAP1 SUB PUSH1 0x60 ADD SWAP1 LOG1 DUP3 PUSH1 0x11 DUP2 GT ISZERO PUSH2 0x1C28 JUMPI INVALID JUMPDEST MLOAD SWAP1 MLOAD GT ISZERO SWAP1 JUMP JUMPDEST MLOAD SWAP1 MLOAD LT SWAP1 JUMP JUMPDEST PUSH1 0x60 PUSH1 0xD DUP1 SLOAD DUP1 PUSH1 0x20 MUL PUSH1 0x20 ADD PUSH1 0x40 MLOAD SWAP1 DUP2 ADD PUSH1 0x40 MSTORE DUP1 SWAP3 SWAP2 SWAP1 DUP2 DUP2 MSTORE PUSH1 0x20 ADD DUP3 DUP1 SLOAD DUP1 ISZERO PUSH2 0x3C28 JUMPI PUSH1 0x20 MUL DUP3 ADD SWAP2 SWAP1 PUSH1 0x0 MSTORE PUSH1 0x20 PUSH1 0x0 KECCAK256 SWAP1 JUMPDEST DUP2 SLOAD PUSH1 0x1 PUSH1 0x1 PUSH1 0xA0 SHL SUB AND DUP2 MSTORE PUSH1 0x1 SWAP1 SWAP2 ADD SWAP1 PUSH1 0x20 ADD DUP1 DUP4 GT PUSH2 0x3C0A JUMPI JUMPDEST POP SWAP4 SWAP5 POP PUSH1 0x0 SWAP4 POP POP POP POP JUMPDEST DUP2 MLOAD DUP2 LT ISZERO PUSH2 0x3CEE JUMPI PUSH1 0x0 DUP3 DUP3 DUP2 MLOAD DUP2 LT PUSH2 0x3C4B JUMPI INVALID JUMPDEST PUSH1 0x20 MUL PUSH1 0x20 ADD ADD MLOAD SWAP1 POP PUSH2 0x3C5D PUSH2 0x5869 JUMP JUMPDEST PUSH1 0x40 MLOAD DUP1 PUSH1 0x20 ADD PUSH1 0x40 MSTORE DUP1 DUP4 PUSH1 0x1 PUSH1 0x1 PUSH1 0xA0 SHL SUB AND PUSH4 0xAA5AF0FD PUSH1 0x40 MLOAD DUP2 PUSH4 0xFFFFFFFF AND PUSH1 0xE0 SHL DUP2 MSTORE PUSH1 0x4 ADD PUSH1 0x20 PUSH1 0x40 MLOAD DUP1 DUP4 SUB DUP2 DUP7 DUP1 EXTCODESIZE ISZERO DUP1 ISZERO PUSH2 0x3CA1 JUMPI PUSH1 0x0 DUP1 REVERT JUMPDEST POP GAS STATICCALL ISZERO DUP1 ISZERO PUSH2 0x3CB5 JUMPI RETURNDATASIZE PUSH1 0x0 DUP1 RETURNDATACOPY RETURNDATASIZE PUSH1 0x0 REVERT JUMPDEST POP POP POP POP PUSH1 0x40 MLOAD RETURNDATASIZE PUSH1 0x20 DUP2 LT ISZERO PUSH2 0x3CCB JUMPI PUSH1 0x0 DUP1 REVERT JUMPDEST POP MLOAD SWAP1 MSTORE SWAP1 POP PUSH2 0x3CDA DUP3 PUSH2 0x43B0 JUMP JUMPDEST PUSH2 0x3CE4 DUP3 DUP3 PUSH2 0x36E8 JUMP JUMPDEST POP POP PUSH1 0x1 ADD PUSH2 0x3C34 JUMP JUMPDEST POP PUSH2 0x3CF7 PUSH2 0x5869 JUMP JUMPDEST PUSH1 0x40 MLOAD DUP1 PUSH1 0x20 ADD PUSH1 0x40 MSTORE DUP1 PUSH1 0x0 DUP2 MSTORE POP SWAP1 POP PUSH1 0x60 DUP3 MLOAD PUSH1 0x40 MLOAD SWAP1 DUP1 DUP3 MSTORE DUP1 PUSH1 0x20 MUL PUSH1 0x20 ADD DUP3 ADD PUSH1 0x40 MSTORE DUP1 ISZERO PUSH2 0x3D46 JUMPI DUP2 PUSH1 0x20 ADD JUMPDEST PUSH2 0x3D33 PUSH2 0x5869 JUMP JUMPDEST DUP2 MSTORE PUSH1 0x20 ADD SWAP1 PUSH1 0x1 SWAP1 SUB SWAP1 DUP2 PUSH2 0x3D2B JUMPI SWAP1 POP JUMPDEST POP SWAP1 POP PUSH1 0x0 JUMPDEST DUP4 MLOAD DUP2 LT ISZERO PUSH2 0x3ECC JUMPI PUSH1 0x0 DUP5 DUP3 DUP2 MLOAD DUP2 LT PUSH2 0x3D63 JUMPI INVALID JUMPDEST PUSH1 0x20 SWAP1 DUP2 MUL SWAP2 SWAP1 SWAP2 ADD DUP2 ADD MLOAD PUSH1 0x1 PUSH1 0x1 PUSH1 0xA0 SHL SUB DUP2 AND PUSH1 0x0 SWAP1 DUP2 MSTORE PUSH1 0x9 SWAP1 SWAP3 MSTORE PUSH1 0x40 SWAP1 SWAP2 KECCAK256 PUSH1 0x3 ADD SLOAD SWAP1 SWAP2 POP PUSH1 0xFF AND ISZERO PUSH2 0x3EC3 JUMPI PUSH2 0x3D9F PUSH2 0x5869 JUMP JUMPDEST PUSH1 0x40 DUP1 MLOAD PUSH1 0x20 DUP1 DUP3 ADD DUP1 DUP5 MSTORE PUSH1 0x4 SLOAD PUSH4 0xFC57D4DF PUSH1 0xE0 SHL SWAP1 SWAP2 MSTORE PUSH1 0x1 PUSH1 0x1 PUSH1 0xA0 SHL SUB DUP7 DUP2 AND PUSH1 0x24 DUP6 ADD MSTORE SWAP4 MLOAD SWAP3 SWAP4 DUP5 SWAP4 SWAP2 AND SWAP2 PUSH4 0xFC57D4DF SWAP2 PUSH1 0x44 DUP1 DUP7 ADD SWAP3 SWAP2 SWAP1 DUP2 DUP8 SUB ADD DUP2 DUP7 DUP1 EXTCODESIZE ISZERO DUP1 ISZERO PUSH2 0x3DF4 JUMPI PUSH1 0x0 DUP1 REVERT JUMPDEST POP GAS STATICCALL ISZERO DUP1 ISZERO PUSH2 0x3E08 JUMPI RETURNDATASIZE PUSH1 0x0 DUP1 RETURNDATACOPY RETURNDATASIZE PUSH1 0x0 REVERT JUMPDEST POP POP POP POP PUSH1 0x40 MLOAD RETURNDATASIZE PUSH1 0x20 DUP2 LT ISZERO PUSH2 0x3E1E JUMPI PUSH1 0x0 DUP1 REVERT JUMPDEST POP MLOAD SWAP1 MSTORE SWAP1 POP PUSH2 0x3E2C PUSH2 0x5869 JUMP JUMPDEST PUSH2 0x3E9A DUP3 DUP5 PUSH1 0x1 PUSH1 0x1 PUSH1 0xA0 SHL SUB AND PUSH4 0x47BD3718 PUSH1 0x40 MLOAD DUP2 PUSH4 0xFFFFFFFF AND PUSH1 0xE0 SHL DUP2 MSTORE PUSH1 0x4 ADD PUSH1 0x20 PUSH1 0x40 MLOAD DUP1 DUP4 SUB DUP2 DUP7 DUP1 EXTCODESIZE ISZERO DUP1 ISZERO PUSH2 0x3E69 JUMPI PUSH1 0x0 DUP1 REVERT JUMPDEST POP GAS STATICCALL ISZERO DUP1 ISZERO PUSH2 0x3E7D JUMPI RETURNDATASIZE PUSH1 0x0 DUP1 RETURNDATACOPY RETURNDATASIZE PUSH1 0x0 REVERT JUMPDEST POP POP POP POP PUSH1 0x40 MLOAD RETURNDATASIZE PUSH1 0x20 DUP2 LT ISZERO PUSH2 0x3E93 JUMPI PUSH1 0x0 DUP1 REVERT JUMPDEST POP MLOAD PUSH2 0x52F4 JUMP JUMPDEST SWAP1 POP DUP1 DUP6 DUP6 DUP2 MLOAD DUP2 LT PUSH2 0x3EA9 JUMPI INVALID JUMPDEST PUSH1 0x20 MUL PUSH1 0x20 ADD ADD DUP2 SWAP1 MSTORE POP PUSH2 0x3EBE DUP7 DUP3 PUSH2 0x5011 JUMP JUMPDEST SWAP6 POP POP POP JUMPDEST POP PUSH1 0x1 ADD PUSH2 0x3D4C JUMP JUMPDEST POP PUSH1 0x0 JUMPDEST DUP4 MLOAD DUP2 LT ISZERO PUSH2 0x1AE9 JUMPI PUSH1 0x0 PUSH1 0xD DUP3 DUP2 SLOAD DUP2 LT PUSH2 0x3EE8 JUMPI INVALID JUMPDEST PUSH1 0x0 SWAP2 DUP3 MSTORE PUSH1 0x20 DUP3 KECCAK256 ADD SLOAD DUP6 MLOAD PUSH1 0x1 PUSH1 0x1 PUSH1 0xA0 SHL SUB SWAP1 SWAP2 AND SWAP3 POP PUSH2 0x3F0D JUMPI PUSH1 0x0 PUSH2 0x3F35 JUMP JUMPDEST PUSH2 0x3F35 PUSH1 0xE SLOAD PUSH2 0x3F30 DUP7 DUP7 DUP2 MLOAD DUP2 LT PUSH2 0x3F22 JUMPI INVALID JUMPDEST PUSH1 0x20 MUL PUSH1 0x20 ADD ADD MLOAD DUP9 PUSH2 0x5315 JUMP JUMPDEST PUSH2 0x5348 JUMP JUMPDEST PUSH1 0x1 PUSH1 0x1 PUSH1 0xA0 SHL SUB DUP4 AND PUSH1 0x0 DUP2 DUP2 MSTORE PUSH1 0xF PUSH1 0x20 SWAP1 DUP2 MSTORE PUSH1 0x40 SWAP2 DUP3 SWAP1 KECCAK256 DUP5 SWAP1 SSTORE DUP2 MLOAD DUP5 DUP2 MSTORE SWAP2 MLOAD SWAP4 SWAP5 POP SWAP2 SWAP3 PUSH32 0x2AB93F65628379309F36CB125E90D7C902454A545C4F8B8CB0794AF75C24B807 SWAP3 SWAP2 DUP2 SWAP1 SUB SWAP1 SWAP2 ADD SWAP1 LOG2 POP POP PUSH1 0x1 ADD PUSH2 0x3ED0 JUMP JUMPDEST PUSH1 0x0 DUP1 PUSH1 0x0 PUSH2 0x3FA2 PUSH2 0x58A0 JUMP JUMPDEST PUSH1 0x1 PUSH1 0x1 PUSH1 0xA0 SHL SUB DUP9 AND PUSH1 0x0 SWAP1 DUP2 MSTORE PUSH1 0x8 PUSH1 0x20 SWAP1 DUP2 MSTORE PUSH1 0x40 DUP1 DUP4 KECCAK256 DUP1 SLOAD DUP3 MLOAD DUP2 DUP6 MUL DUP2 ADD DUP6 ADD SWAP1 SWAP4 MSTORE DUP1 DUP4 MSTORE DUP5 SWAP4 PUSH1 0x60 SWAP4 SWAP3 SWAP2 SWAP1 DUP4 ADD DUP3 DUP3 DUP1 ISZERO PUSH2 0x400F JUMPI PUSH1 0x20 MUL DUP3 ADD SWAP2 SWAP1 PUSH1 0x0 MSTORE PUSH1 0x20 PUSH1 0x0 KECCAK256 SWAP1 JUMPDEST DUP2 SLOAD PUSH1 0x1 PUSH1 0x1 PUSH1 0xA0 SHL SUB AND DUP2 MSTORE PUSH1 0x1 SWAP1 SWAP2 ADD SWAP1 PUSH1 0x20 ADD DUP1 DUP4 GT PUSH2 0x3FF1 JUMPI JUMPDEST POP SWAP4 SWAP5 POP PUSH1 0x0 SWAP4 POP POP POP POP JUMPDEST DUP2 MLOAD DUP2 LT ISZERO PUSH2 0x436B JUMPI PUSH1 0x0 DUP3 DUP3 DUP2 MLOAD DUP2 LT PUSH2 0x4032 JUMPI INVALID JUMPDEST PUSH1 0x20 MUL PUSH1 0x20 ADD ADD MLOAD SWAP1 POP DUP1 PUSH1 0x1 PUSH1 0x1 PUSH1 0xA0 SHL SUB AND PUSH4 0xC37F68E2 DUP15 PUSH1 0x40 MLOAD DUP3 PUSH4 0xFFFFFFFF AND PUSH1 0xE0 SHL DUP2 MSTORE PUSH1 0x4 ADD DUP1 DUP3 PUSH1 0x1 PUSH1 0x1 PUSH1 0xA0 SHL SUB AND PUSH1 0x1 PUSH1 0x1 PUSH1 0xA0 SHL SUB AND DUP2 MSTORE PUSH1 0x20 ADD SWAP2 POP POP PUSH1 0x80 PUSH1 0x40 MLOAD DUP1 DUP4 SUB DUP2 DUP7 DUP1 EXTCODESIZE ISZERO DUP1 ISZERO PUSH2 0x4092 JUMPI PUSH1 0x0 DUP1 REVERT JUMPDEST POP GAS STATICCALL ISZERO DUP1 ISZERO PUSH2 0x40A6 JUMPI RETURNDATASIZE PUSH1 0x0 DUP1 RETURNDATACOPY RETURNDATASIZE PUSH1 0x0 REVERT JUMPDEST POP POP POP POP PUSH1 0x40 MLOAD RETURNDATASIZE PUSH1 0x80 DUP2 LT ISZERO PUSH2 0x40BC JUMPI PUSH1 0x0 DUP1 REVERT JUMPDEST POP DUP1 MLOAD PUSH1 0x20 DUP3 ADD MLOAD PUSH1 0x40 DUP1 DUP5 ADD MLOAD PUSH1 0x60 SWAP5 DUP6 ADD MLOAD PUSH1 0x80 DUP13 ADD MSTORE SWAP4 DUP11 ADD SWAP4 SWAP1 SWAP4 MSTORE SWAP2 DUP9 ADD SWAP2 SWAP1 SWAP2 MSTORE SWAP5 POP DUP5 ISZERO PUSH2 0x4102 JUMPI POP PUSH1 0xF SWAP8 POP PUSH1 0x0 SWAP7 POP DUP7 SWAP6 POP PUSH2 0x1B7A SWAP5 POP POP POP POP POP JUMP JUMPDEST PUSH1 0x40 DUP1 MLOAD PUSH1 0x20 DUP1 DUP3 ADD DUP4 MSTORE PUSH1 0x1 PUSH1 0x1 PUSH1 0xA0 SHL SUB DUP1 DUP6 AND PUSH1 0x0 DUP2 DUP2 MSTORE PUSH1 0x9 DUP5 MSTORE DUP6 SWAP1 KECCAK256 PUSH1 0x1 ADD SLOAD DUP5 MSTORE PUSH1 0xC0 DUP12 ADD SWAP4 SWAP1 SWAP4 MSTORE DUP4 MLOAD DUP1 DUP4 ADD DUP6 MSTORE PUSH1 0x80 DUP12 ADD MLOAD DUP2 MSTORE PUSH1 0xE0 DUP12 ADD MSTORE PUSH1 0x4 DUP1 SLOAD DUP6 MLOAD PUSH4 0xFC57D4DF PUSH1 0xE0 SHL DUP2 MSTORE SWAP2 DUP3 ADD SWAP5 SWAP1 SWAP5 MSTORE SWAP4 MLOAD SWAP3 AND SWAP3 PUSH4 0xFC57D4DF SWAP3 PUSH1 0x24 DUP1 DUP4 ADD SWAP4 SWAP3 DUP3 SWAP1 SUB ADD DUP2 DUP7 DUP1 EXTCODESIZE ISZERO DUP1 ISZERO PUSH2 0x4182 JUMPI PUSH1 0x0 DUP1 REVERT JUMPDEST POP GAS STATICCALL ISZERO DUP1 ISZERO PUSH2 0x4196 JUMPI RETURNDATASIZE PUSH1 0x0 DUP1 RETURNDATACOPY RETURNDATASIZE PUSH1 0x0 REVERT JUMPDEST POP POP POP POP PUSH1 0x40 MLOAD RETURNDATASIZE PUSH1 0x20 DUP2 LT ISZERO PUSH2 0x41AC JUMPI PUSH1 0x0 DUP1 REVERT JUMPDEST POP MLOAD PUSH1 0xA0 DUP8 ADD DUP2 SWAP1 MSTORE PUSH2 0x41D0 JUMPI POP PUSH1 0xD SWAP8 POP PUSH1 0x0 SWAP7 POP DUP7 SWAP6 POP PUSH2 0x1B7A SWAP5 POP POP POP POP POP JUMP JUMPDEST PUSH1 0x40 DUP1 MLOAD PUSH1 0x20 DUP2 ADD SWAP1 SWAP2 MSTORE PUSH1 0xA0 DUP8 ADD MLOAD DUP2 MSTORE PUSH2 0x100 DUP8 ADD DUP2 SWAP1 MSTORE PUSH1 0xC0 DUP8 ADD MLOAD PUSH1 0xE0 DUP9 ADD MLOAD PUSH2 0x41FD SWAP3 PUSH2 0x5361 JUMP JUMPDEST PUSH2 0x120 DUP9 ADD MSTORE SWAP4 POP PUSH1 0x0 DUP5 PUSH1 0x3 DUP2 GT ISZERO PUSH2 0x4213 JUMPI INVALID JUMPDEST EQ PUSH2 0x422F JUMPI POP PUSH1 0xB SWAP8 POP PUSH1 0x0 SWAP7 POP DUP7 SWAP6 POP PUSH2 0x1B7A SWAP5 POP POP POP POP POP JUMP JUMPDEST PUSH2 0x4247 DUP7 PUSH2 0x120 ADD MLOAD DUP8 PUSH1 0x40 ADD MLOAD DUP9 PUSH1 0x0 ADD MLOAD PUSH2 0x53B9 JUMP JUMPDEST DUP8 MSTORE SWAP4 POP PUSH1 0x0 DUP5 PUSH1 0x3 DUP2 GT ISZERO PUSH2 0x4259 JUMPI INVALID JUMPDEST EQ PUSH2 0x4275 JUMPI POP PUSH1 0xB SWAP8 POP PUSH1 0x0 SWAP7 POP DUP7 SWAP6 POP PUSH2 0x1B7A SWAP5 POP POP POP POP POP JUMP JUMPDEST PUSH2 0x428D DUP7 PUSH2 0x100 ADD MLOAD DUP8 PUSH1 0x60 ADD MLOAD DUP9 PUSH1 0x20 ADD MLOAD PUSH2 0x53B9 JUMP JUMPDEST PUSH1 0x20 DUP9 ADD MSTORE SWAP4 POP PUSH1 0x0 DUP5 PUSH1 0x3 DUP2 GT ISZERO PUSH2 0x42A2 JUMPI INVALID JUMPDEST EQ PUSH2 0x42BE JUMPI POP PUSH1 0xB SWAP8 POP PUSH1 0x0 SWAP7 POP DUP7 SWAP6 POP PUSH2 0x1B7A SWAP5 POP POP POP POP POP JUMP JUMPDEST DUP12 PUSH1 0x1 PUSH1 0x1 PUSH1 0xA0 SHL SUB AND DUP2 PUSH1 0x1 PUSH1 0x1 PUSH1 0xA0 SHL SUB AND EQ ISZERO PUSH2 0x4362 JUMPI PUSH2 0x42EC DUP7 PUSH2 0x120 ADD MLOAD DUP13 DUP9 PUSH1 0x20 ADD MLOAD PUSH2 0x53B9 JUMP JUMPDEST PUSH1 0x20 DUP9 ADD MSTORE SWAP4 POP PUSH1 0x0 DUP5 PUSH1 0x3 DUP2 GT ISZERO PUSH2 0x4301 JUMPI INVALID JUMPDEST EQ PUSH2 0x431D JUMPI POP PUSH1 0xB SWAP8 POP PUSH1 0x0 SWAP7 POP DUP7 SWAP6 POP PUSH2 0x1B7A SWAP5 POP POP POP POP POP JUMP JUMPDEST PUSH2 0x4331 DUP7 PUSH2 0x100 ADD MLOAD DUP12 DUP9 PUSH1 0x20 ADD MLOAD PUSH2 0x53B9 JUMP JUMPDEST PUSH1 0x20 DUP9 ADD MSTORE SWAP4 POP PUSH1 0x0 DUP5 PUSH1 0x3 DUP2 GT ISZERO PUSH2 0x4346 JUMPI INVALID JUMPDEST EQ PUSH2 0x4362 JUMPI POP PUSH1 0xB SWAP8 POP PUSH1 0x0 SWAP7 POP DUP7 SWAP6 POP PUSH2 0x1B7A SWAP5 POP POP POP POP POP JUMP JUMPDEST POP PUSH1 0x1 ADD PUSH2 0x401B JUMP JUMPDEST POP PUSH1 0x20 DUP5 ADD MLOAD DUP5 MLOAD GT ISZERO PUSH2 0x4392 JUMPI POP POP POP PUSH1 0x20 DUP2 ADD MLOAD SWAP1 MLOAD PUSH1 0x0 SWAP5 POP SUB SWAP2 POP DUP3 SWAP1 POP PUSH2 0x1B7A JUMP JUMPDEST POP POP DUP2 MLOAD PUSH1 0x20 SWAP1 SWAP3 ADD MLOAD PUSH1 0x0 SWAP6 POP DUP6 SWAP5 POP SWAP2 SWAP1 SWAP2 SUB SWAP2 POP PUSH2 0x1B7A SWAP1 POP JUMP JUMPDEST PUSH1 0x1 PUSH1 0x1 PUSH1 0xA0 SHL SUB DUP2 AND PUSH1 0x0 SWAP1 DUP2 MSTORE PUSH1 0x10 PUSH1 0x20 SWAP1 DUP2 MSTORE PUSH1 0x40 DUP1 DUP4 KECCAK256 PUSH1 0xF SWAP1 SWAP3 MSTORE DUP3 KECCAK256 SLOAD SWAP1 SWAP2 PUSH2 0x43DD PUSH2 0x1AEF JUMP JUMPDEST DUP4 SLOAD SWAP1 SWAP2 POP PUSH1 0x0 SWAP1 PUSH2 0x43FD SWAP1 DUP4 SWAP1 PUSH1 0x1 PUSH1 0xE0 SHL SWAP1 DIV PUSH4 0xFFFFFFFF AND PUSH2 0x4F39 JUMP JUMPDEST SWAP1 POP PUSH1 0x0 DUP2 GT DUP1 ISZERO PUSH2 0x440F JUMPI POP PUSH1 0x0 DUP4 GT JUMPDEST ISZERO PUSH2 0x45D5 JUMPI PUSH1 0x0 DUP6 PUSH1 0x1 PUSH1 0x1 PUSH1 0xA0 SHL SUB AND PUSH4 0x18160DDD PUSH1 0x40 MLOAD DUP2 PUSH4 0xFFFFFFFF AND PUSH1 0xE0 SHL DUP2 MSTORE PUSH1 0x4 ADD PUSH1 0x20 PUSH1 0x40 MLOAD DUP1 DUP4 SUB DUP2 DUP7 DUP1 EXTCODESIZE ISZERO DUP1 ISZERO PUSH2 0x444F JUMPI PUSH1 0x0 DUP1 REVERT JUMPDEST POP GAS STATICCALL ISZERO DUP1 ISZERO PUSH2 0x4463 JUMPI RETURNDATASIZE PUSH1 0x0 DUP1 RETURNDATACOPY RETURNDATASIZE PUSH1 0x0 REVERT JUMPDEST POP POP POP POP PUSH1 0x40 MLOAD RETURNDATASIZE PUSH1 0x20 DUP2 LT ISZERO PUSH2 0x4479 JUMPI PUSH1 0x0 DUP1 REVERT JUMPDEST POP MLOAD SWAP1 POP PUSH1 0x0 PUSH2 0x4489 DUP4 DUP7 PUSH2 0x4F91 JUMP JUMPDEST SWAP1 POP PUSH2 0x4493 PUSH2 0x5869 JUMP JUMPDEST PUSH1 0x0 DUP4 GT PUSH2 0x44B0 JUMPI PUSH1 0x40 MLOAD DUP1 PUSH1 0x20 ADD PUSH1 0x40 MSTORE DUP1 PUSH1 0x0 DUP2 MSTORE POP PUSH2 0x44BA JUMP JUMPDEST PUSH2 0x44BA DUP3 DUP5 PUSH2 0x4FD3 JUMP JUMPDEST SWAP1 POP PUSH2 0x44C4 PUSH2 0x5869 JUMP JUMPDEST PUSH1 0x40 DUP1 MLOAD PUSH1 0x20 DUP2 ADD SWAP1 SWAP2 MSTORE DUP9 SLOAD PUSH1 0x1 PUSH1 0x1 PUSH1 0xE0 SHL SUB AND DUP2 MSTORE PUSH2 0x44E6 SWAP1 DUP4 PUSH2 0x5011 JUMP JUMPDEST SWAP1 POP PUSH1 0x40 MLOAD DUP1 PUSH1 0x40 ADD PUSH1 0x40 MSTORE DUP1 PUSH2 0x4536 DUP4 PUSH1 0x0 ADD MLOAD PUSH1 0x40 MLOAD DUP1 PUSH1 0x40 ADD PUSH1 0x40 MSTORE DUP1 PUSH1 0x1A DUP2 MSTORE PUSH1 0x20 ADD PUSH32 0x6E657720696E6465782065786365656473203232342062697473000000000000 DUP2 MSTORE POP PUSH2 0x5036 JUMP JUMPDEST PUSH1 0x1 PUSH1 0x1 PUSH1 0xE0 SHL SUB AND DUP2 MSTORE PUSH1 0x20 ADD PUSH2 0x4571 DUP9 PUSH1 0x40 MLOAD DUP1 PUSH1 0x40 ADD PUSH1 0x40 MSTORE DUP1 PUSH1 0x1C DUP2 MSTORE PUSH1 0x20 ADD PUSH1 0x0 DUP1 MLOAD PUSH1 0x20 PUSH2 0x59CE DUP4 CODECOPY DUP2 MLOAD SWAP2 MSTORE DUP2 MSTORE POP PUSH2 0x50D0 JUMP JUMPDEST PUSH4 0xFFFFFFFF SWAP1 DUP2 AND SWAP1 SWAP2 MSTORE PUSH1 0x1 PUSH1 0x1 PUSH1 0xA0 SHL SUB DUP12 AND PUSH1 0x0 SWAP1 DUP2 MSTORE PUSH1 0x10 PUSH1 0x20 SWAP1 DUP2 MSTORE PUSH1 0x40 SWAP1 SWAP2 KECCAK256 DUP4 MLOAD DUP2 SLOAD SWAP5 SWAP1 SWAP3 ADD MLOAD SWAP1 SWAP3 AND PUSH1 0x1 PUSH1 0xE0 SHL MUL PUSH1 0x1 PUSH1 0x1 PUSH1 0xE0 SHL SUB SWAP2 DUP3 AND PUSH1 0x1 PUSH1 0x1 PUSH1 0xE0 SHL SUB NOT SWAP1 SWAP5 AND SWAP4 SWAP1 SWAP4 OR AND SWAP2 SWAP1 SWAP2 OR SWAP1 SSTORE POP PUSH2 0x14D4 SWAP3 POP POP POP JUMP JUMPDEST DUP1 ISZERO PUSH2 0x14D4 JUMPI PUSH2 0x4608 DUP3 PUSH1 0x40 MLOAD DUP1 PUSH1 0x40 ADD PUSH1 0x40 MSTORE DUP1 PUSH1 0x1C DUP2 MSTORE PUSH1 0x20 ADD PUSH1 0x0 DUP1 MLOAD PUSH1 0x20 PUSH2 0x59CE DUP4 CODECOPY DUP2 MLOAD SWAP2 MSTORE DUP2 MSTORE POP PUSH2 0x50D0 JUMP JUMPDEST DUP5 SLOAD PUSH4 0xFFFFFFFF SWAP2 SWAP1 SWAP2 AND PUSH1 0x1 PUSH1 0xE0 SHL MUL PUSH1 0x1 PUSH1 0x1 PUSH1 0xE0 SHL SUB SWAP1 SWAP2 AND OR DUP5 SSTORE POP POP POP POP POP JUMP JUMPDEST PUSH1 0x1 PUSH1 0x1 PUSH1 0xA0 SHL SUB DUP4 AND PUSH1 0x0 SWAP1 DUP2 MSTORE PUSH1 0x10 PUSH1 0x20 MSTORE PUSH1 0x40 SWAP1 KECCAK256 PUSH2 0x464E PUSH2 0x5869 JUMP JUMPDEST POP PUSH1 0x40 DUP1 MLOAD PUSH1 0x20 DUP2 ADD SWAP1 SWAP2 MSTORE DUP2 SLOAD PUSH1 0x1 PUSH1 0x1 PUSH1 0xE0 SHL SUB AND DUP2 MSTORE PUSH2 0x466F PUSH2 0x5869 JUMP JUMPDEST POP PUSH1 0x40 DUP1 MLOAD PUSH1 0x20 DUP1 DUP3 ADD DUP4 MSTORE PUSH1 0x1 PUSH1 0x1 PUSH1 0xA0 SHL SUB DUP1 DUP10 AND PUSH1 0x0 SWAP1 DUP2 MSTORE PUSH1 0x12 DUP4 MSTORE DUP5 DUP2 KECCAK256 SWAP2 DUP10 AND DUP1 DUP3 MSTORE DUP3 DUP5 MSTORE SWAP5 DUP2 KECCAK256 DUP1 SLOAD DUP6 MSTORE DUP7 MLOAD SWAP6 SWAP1 SWAP2 MSTORE SWAP2 MSTORE SWAP2 SWAP1 SWAP2 SSTORE DUP1 MLOAD ISZERO DUP1 ISZERO PUSH2 0x46BD JUMPI POP DUP2 MLOAD ISZERO ISZERO JUMPDEST ISZERO PUSH2 0x46D5 JUMPI PUSH15 0xC097CE7BC90715B34B9F1000000000 DUP2 MSTORE JUMPDEST PUSH2 0x46DD PUSH2 0x5869 JUMP JUMPDEST PUSH2 0x46E7 DUP4 DUP4 PUSH2 0x5125 JUMP JUMPDEST SWAP1 POP PUSH1 0x0 DUP8 PUSH1 0x1 PUSH1 0x1 PUSH1 0xA0 SHL SUB AND PUSH4 0x70A08231 DUP9 PUSH1 0x40 MLOAD DUP3 PUSH4 0xFFFFFFFF AND PUSH1 0xE0 SHL DUP2 MSTORE PUSH1 0x4 ADD DUP1 DUP3 PUSH1 0x1 PUSH1 0x1 PUSH1 0xA0 SHL SUB AND PUSH1 0x1 PUSH1 0x1 PUSH1 0xA0 SHL SUB AND DUP2 MSTORE PUSH1 0x20 ADD SWAP2 POP POP PUSH1 0x20 PUSH1 0x40 MLOAD DUP1 DUP4 SUB DUP2 DUP7 DUP1 EXTCODESIZE ISZERO DUP1 ISZERO PUSH2 0x4741 JUMPI PUSH1 0x0 DUP1 REVERT JUMPDEST POP GAS STATICCALL ISZERO DUP1 ISZERO PUSH2 0x4755 JUMPI RETURNDATASIZE PUSH1 0x0 DUP1 RETURNDATACOPY RETURNDATASIZE PUSH1 0x0 REVERT JUMPDEST POP POP POP POP PUSH1 0x40 MLOAD RETURNDATASIZE PUSH1 0x20 DUP2 LT ISZERO PUSH2 0x476B JUMPI PUSH1 0x0 DUP1 REVERT JUMPDEST POP MLOAD SWAP1 POP PUSH1 0x0 PUSH2 0x477B DUP3 DUP5 PUSH2 0x514A JUMP JUMPDEST PUSH1 0x1 PUSH1 0x1 PUSH1 0xA0 SHL SUB DUP10 AND PUSH1 0x0 SWAP1 DUP2 MSTORE PUSH1 0x14 PUSH1 0x20 MSTORE PUSH1 0x40 DUP2 KECCAK256 SLOAD SWAP2 SWAP3 POP SWAP1 PUSH2 0x47A2 SWAP1 DUP4 PUSH2 0x5179 JUMP JUMPDEST SWAP1 POP PUSH2 0x47BB DUP10 DUP3 DUP11 PUSH2 0x3AE6 JUMPI PUSH7 0x38D7EA4C68000 PUSH2 0x3AE9 JUMP JUMPDEST PUSH1 0x1 PUSH1 0x1 PUSH1 0xA0 SHL SUB DUP1 DUP12 AND PUSH1 0x0 DUP2 DUP2 MSTORE PUSH1 0x14 PUSH1 0x20 SWAP1 DUP2 MSTORE PUSH1 0x40 SWAP2 DUP3 SWAP1 KECCAK256 SWAP5 SWAP1 SWAP5 SSTORE DUP10 MLOAD DUP2 MLOAD DUP8 DUP2 MSTORE SWAP5 DUP6 ADD MSTORE DUP1 MLOAD SWAP2 SWAP4 SWAP3 DUP15 AND SWAP3 PUSH32 0x2CAECD17D02F56FA897705DCC740DA2D237C373F70686F4E0D9BD3BF0400EA7A SWAP3 SWAP1 DUP2 SWAP1 SUB SWAP1 SWAP2 ADD SWAP1 LOG3 POP POP POP POP POP POP POP POP POP POP JUMP JUMPDEST PUSH1 0x0 DUP1 PUSH1 0x0 PUSH2 0x4839 DUP5 PUSH1 0x0 DUP1 PUSH1 0x0 PUSH2 0x3F95 JUMP JUMPDEST SWAP3 POP SWAP3 POP SWAP3 POP SWAP2 SWAP4 SWAP1 SWAP3 POP JUMP JUMPDEST PUSH1 0x0 DUP1 PUSH1 0x0 PUSH2 0x4853 PUSH2 0x5869 JUMP JUMPDEST PUSH2 0x485D DUP7 DUP7 PUSH2 0x5406 JUMP JUMPDEST SWAP1 SWAP3 POP SWAP1 POP PUSH1 0x0 DUP3 PUSH1 0x3 DUP2 GT ISZERO PUSH2 0x4870 JUMPI INVALID JUMPDEST EQ PUSH2 0x4881 JUMPI POP SWAP2 POP PUSH1 0x0 SWAP1 POP PUSH2 0x4893 JUMP JUMPDEST PUSH1 0x0 PUSH2 0x488C DUP3 PUSH2 0x546E JUMP JUMPDEST SWAP4 POP SWAP4 POP POP POP JUMPDEST SWAP3 POP SWAP3 SWAP1 POP JUMP JUMPDEST PUSH1 0x0 DUP1 SLOAD PUSH1 0x1 PUSH1 0x1 PUSH1 0xA0 SHL SUB AND CALLER EQ DUP1 PUSH2 0x48BE JUMPI POP PUSH1 0x2 SLOAD PUSH1 0x1 PUSH1 0x1 PUSH1 0xA0 SHL SUB AND CALLER EQ JUMPDEST SWAP1 POP SWAP1 JUMP JUMPDEST PUSH1 0x0 JUMPDEST PUSH1 0xD SLOAD DUP2 LT ISZERO PUSH2 0x494E JUMPI DUP2 PUSH1 0x1 PUSH1 0x1 PUSH1 0xA0 SHL SUB AND PUSH1 0xD DUP3 DUP2 SLOAD DUP2 LT PUSH2 0x48E7 JUMPI INVALID JUMPDEST PUSH1 0x0 SWAP2 DUP3 MSTORE PUSH1 0x20 SWAP1 SWAP2 KECCAK256 ADD SLOAD PUSH1 0x1 PUSH1 0x1 PUSH1 0xA0 SHL SUB AND EQ ISZERO PUSH2 0x4946 JUMPI PUSH1 0x40 DUP1 MLOAD PUSH3 0x461BCD PUSH1 0xE5 SHL DUP2 MSTORE PUSH1 0x20 PUSH1 0x4 DUP3 ADD MSTORE PUSH1 0x14 PUSH1 0x24 DUP3 ADD MSTORE PUSH20 0x1B585C9AD95D08185B1C9958591E481859191959 PUSH1 0x62 SHL PUSH1 0x44 DUP3 ADD MSTORE SWAP1 MLOAD SWAP1 DUP2 SWAP1 SUB PUSH1 0x64 ADD SWAP1 REVERT JUMPDEST PUSH1 0x1 ADD PUSH2 0x48C6 JUMP JUMPDEST POP PUSH1 0xD DUP1 SLOAD PUSH1 0x1 DUP2 ADD DUP3 SSTORE PUSH1 0x0 SWAP2 SWAP1 SWAP2 MSTORE PUSH32 0xD7B6990105719101DABEB77144F2A3385C8033ACD3AF97E9423A695E81AD1EB5 ADD DUP1 SLOAD PUSH1 0x1 PUSH1 0x1 PUSH1 0xA0 SHL SUB NOT AND PUSH1 0x1 PUSH1 0x1 PUSH1 0xA0 SHL SUB SWAP3 SWAP1 SWAP3 AND SWAP2 SWAP1 SWAP2 OR SWAP1 SSTORE JUMP JUMPDEST PUSH1 0x1 PUSH1 0x1 PUSH1 0xA0 SHL SUB DUP4 AND PUSH1 0x0 SWAP1 DUP2 MSTORE PUSH1 0x9 PUSH1 0x20 MSTORE PUSH1 0x40 DUP2 KECCAK256 SLOAD PUSH1 0xFF AND PUSH2 0x49C8 JUMPI PUSH1 0x9 PUSH2 0x1C06 JUMP JUMPDEST PUSH1 0x1 PUSH1 0x1 PUSH1 0xA0 SHL SUB DUP1 DUP6 AND PUSH1 0x0 SWAP1 DUP2 MSTORE PUSH1 0x9 PUSH1 0x20 SWAP1 DUP2 MSTORE PUSH1 0x40 DUP1 DUP4 KECCAK256 SWAP4 DUP8 AND DUP4 MSTORE PUSH1 0x2 SWAP1 SWAP4 ADD SWAP1 MSTORE KECCAK256 SLOAD PUSH1 0xFF AND PUSH2 0x4A00 JUMPI PUSH1 0x0 PUSH2 0x1C06 JUMP JUMPDEST PUSH1 0x0 DUP1 PUSH2 0x4A10 DUP6 DUP8 DUP7 PUSH1 0x0 PUSH2 0x3F95 JUMP JUMPDEST SWAP2 SWAP4 POP SWAP1 SWAP2 POP PUSH1 0x0 SWAP1 POP DUP3 PUSH1 0x11 DUP2 GT ISZERO PUSH2 0x4A26 JUMPI INVALID JUMPDEST EQ PUSH2 0x4A37 JUMPI DUP2 PUSH1 0x11 DUP2 GT ISZERO PUSH2 0x3065 JUMPI INVALID JUMPDEST DUP1 ISZERO PUSH2 0x2DB9 JUMPI PUSH1 0x4 PUSH2 0x3065 JUMP JUMPDEST PUSH1 0x1 PUSH1 0x1 PUSH1 0xA0 SHL SUB DUP3 AND PUSH1 0x0 SWAP1 DUP2 MSTORE PUSH1 0x9 PUSH1 0x20 MSTORE PUSH1 0x40 DUP2 KECCAK256 DUP1 SLOAD PUSH1 0xFF AND PUSH2 0x4A6F JUMPI PUSH1 0x9 SWAP2 POP POP PUSH2 0x12FB JUMP JUMPDEST PUSH1 0x1 PUSH1 0x1 PUSH1 0xA0 SHL SUB DUP4 AND PUSH1 0x0 SWAP1 DUP2 MSTORE PUSH1 0x2 DUP3 ADD PUSH1 0x20 MSTORE PUSH1 0x40 SWAP1 KECCAK256 SLOAD PUSH1 0xFF AND ISZERO ISZERO PUSH1 0x1 EQ ISZERO PUSH2 0x4AA1 JUMPI PUSH1 0x0 SWAP2 POP POP PUSH2 0x12FB JUMP JUMPDEST PUSH1 0x7 SLOAD PUSH1 0x1 PUSH1 0x1 PUSH1 0xA0 SHL SUB DUP5 AND PUSH1 0x0 SWAP1 DUP2 MSTORE PUSH1 0x8 PUSH1 0x20 MSTORE PUSH1 0x40 SWAP1 KECCAK256 SLOAD LT PUSH2 0x4ACC JUMPI PUSH1 0x10 SWAP2 POP POP PUSH2 0x12FB JUMP JUMPDEST PUSH1 0x1 PUSH1 0x1 PUSH1 0xA0 SHL SUB DUP1 DUP5 AND PUSH1 0x0 DUP2 DUP2 MSTORE PUSH1 0x2 DUP5 ADD PUSH1 0x20 SWAP1 DUP2 MSTORE PUSH1 0x40 DUP1 DUP4 KECCAK256 DUP1 SLOAD PUSH1 0xFF NOT AND PUSH1 0x1 SWAP1 DUP2 OR SWAP1 SWAP2 SSTORE PUSH1 0x8 DUP4 MSTORE DUP2 DUP5 KECCAK256 DUP1 SLOAD SWAP2 DUP3 ADD DUP2 SSTORE DUP5 MSTORE SWAP3 DUP3 SWAP1 KECCAK256 SWAP1 SWAP3 ADD DUP1 SLOAD SWAP5 DUP10 AND PUSH1 0x1 PUSH1 0x1 PUSH1 0xA0 SHL SUB NOT SWAP1 SWAP6 AND DUP6 OR SWAP1 SSTORE DUP2 MLOAD SWAP4 DUP5 MSTORE DUP4 ADD SWAP2 SWAP1 SWAP2 MSTORE DUP1 MLOAD PUSH32 0x3AB23AB0D51CCCC0C3085AEC51F99228625AA1A922B3A8CA89A26B0F2027A1A5 SWAP3 DUP2 SWAP1 SUB SWAP1 SWAP2 ADD SWAP1 LOG1 POP PUSH1 0x0 SWAP4 SWAP3 POP POP POP JUMP JUMPDEST PUSH1 0x0 PUSH2 0x4B6F PUSH2 0x5869 JUMP JUMPDEST PUSH2 0x4B95 PUSH1 0x40 MLOAD DUP1 PUSH1 0x20 ADD PUSH1 0x40 MSTORE DUP1 DUP7 DUP2 MSTORE POP PUSH1 0x40 MLOAD DUP1 PUSH1 0x20 ADD PUSH1 0x40 MSTORE DUP1 DUP7 DUP2 MSTORE POP PUSH2 0x547D JUMP JUMPDEST SWAP2 POP SWAP2 POP SWAP3 POP SWAP3 SWAP1 POP JUMP JUMPDEST PUSH1 0x0 PUSH2 0x4BAA PUSH2 0x5869 JUMP JUMPDEST DUP4 MLOAD DUP4 MLOAD PUSH2 0x4B95 SWAP2 SWAP1 PUSH2 0x5566 JUMP JUMPDEST PUSH1 0x1 PUSH1 0x1 PUSH1 0xA0 SHL SUB DUP2 AND PUSH1 0x0 SWAP1 DUP2 MSTORE PUSH1 0x9 PUSH1 0x20 MSTORE PUSH1 0x40 SWAP1 KECCAK256 DUP1 SLOAD PUSH1 0xFF AND ISZERO ISZERO PUSH1 0x1 EQ PUSH2 0x4C2B JUMPI PUSH1 0x40 DUP1 MLOAD PUSH3 0x461BCD PUSH1 0xE5 SHL DUP2 MSTORE PUSH1 0x20 PUSH1 0x4 DUP3 ADD MSTORE PUSH1 0x19 PUSH1 0x24 DUP3 ADD MSTORE PUSH32 0x636F6D70206D61726B6574206973206E6F74206C697374656400000000000000 PUSH1 0x44 DUP3 ADD MSTORE SWAP1 MLOAD SWAP1 DUP2 SWAP1 SUB PUSH1 0x64 ADD SWAP1 REVERT JUMPDEST PUSH1 0x3 DUP2 ADD SLOAD PUSH1 0xFF AND ISZERO PUSH2 0x4C85 JUMPI PUSH1 0x40 DUP1 MLOAD PUSH3 0x461BCD PUSH1 0xE5 SHL DUP2 MSTORE PUSH1 0x20 PUSH1 0x4 DUP3 ADD MSTORE PUSH1 0x19 PUSH1 0x24 DUP3 ADD MSTORE PUSH32 0x636F6D70206D61726B657420616C726561647920616464656400000000000000 PUSH1 0x44 DUP3 ADD MSTORE SWAP1 MLOAD SWAP1 DUP2 SWAP1 SUB PUSH1 0x64 ADD SWAP1 REVERT JUMPDEST PUSH1 0x3 DUP2 ADD DUP1 SLOAD PUSH1 0xFF NOT AND PUSH1 0x1 SWAP1 DUP2 OR SWAP1 SWAP2 SSTORE PUSH1 0x40 DUP1 MLOAD PUSH1 0x1 PUSH1 0x1 PUSH1 0xA0 SHL SUB DUP6 AND DUP2 MSTORE PUSH1 0x20 DUP2 ADD SWAP3 SWAP1 SWAP3 MSTORE DUP1 MLOAD PUSH32 0x93C1F3E36ED71139F466A4CE8C9751790E2E33F5AFB2DF0DCFB3AEABE55D5AA2 SWAP3 DUP2 SWAP1 SUB SWAP1 SWAP2 ADD SWAP1 LOG1 PUSH1 0x1 PUSH1 0x1 PUSH1 0xA0 SHL SUB DUP3 AND PUSH1 0x0 SWAP1 DUP2 MSTORE PUSH1 0x10 PUSH1 0x20 MSTORE PUSH1 0x40 SWAP1 KECCAK256 SLOAD PUSH1 0x1 PUSH1 0x1 PUSH1 0xE0 SHL SUB AND ISZERO DUP1 ISZERO PUSH2 0x4D2D JUMPI POP PUSH1 0x1 PUSH1 0x1 PUSH1 0xA0 SHL SUB DUP3 AND PUSH1 0x0 SWAP1 DUP2 MSTORE PUSH1 0x10 PUSH1 0x20 MSTORE PUSH1 0x40 SWAP1 KECCAK256 SLOAD PUSH1 0x1 PUSH1 0xE0 SHL SWAP1 DIV PUSH4 0xFFFFFFFF AND ISZERO JUMPDEST ISZERO PUSH2 0x4DEA JUMPI PUSH1 0x40 MLOAD DUP1 PUSH1 0x40 ADD PUSH1 0x40 MSTORE DUP1 PUSH15 0xC097CE7BC90715B34B9F1000000000 PUSH1 0x1 PUSH1 0x1 PUSH1 0xE0 SHL SUB AND DUP2 MSTORE PUSH1 0x20 ADD PUSH2 0x4D8F PUSH2 0x4D66 PUSH2 0x1AEF JUMP JUMPDEST PUSH1 0x40 MLOAD DUP1 PUSH1 0x40 ADD PUSH1 0x40 MSTORE DUP1 PUSH1 0x1C DUP2 MSTORE PUSH1 0x20 ADD PUSH1 0x0 DUP1 MLOAD PUSH1 0x20 PUSH2 0x59CE DUP4 CODECOPY DUP2 MLOAD SWAP2 MSTORE DUP2 MSTORE POP PUSH2 0x50D0 JUMP JUMPDEST PUSH4 0xFFFFFFFF SWAP1 DUP2 AND SWAP1 SWAP2 MSTORE PUSH1 0x1 PUSH1 0x1 PUSH1 0xA0 SHL SUB DUP5 AND PUSH1 0x0 SWAP1 DUP2 MSTORE PUSH1 0x10 PUSH1 0x20 SWAP1 DUP2 MSTORE PUSH1 0x40 SWAP1 SWAP2 KECCAK256 DUP4 MLOAD DUP2 SLOAD SWAP5 SWAP1 SWAP3 ADD MLOAD SWAP1 SWAP3 AND PUSH1 0x1 PUSH1 0xE0 SHL MUL PUSH1 0x1 PUSH1 0x1 PUSH1 0xE0 SHL SUB SWAP2 DUP3 AND PUSH1 0x1 PUSH1 0x1 PUSH1 0xE0 SHL SUB NOT SWAP1 SWAP5 AND SWAP4 SWAP1 SWAP4 OR AND SWAP2 SWAP1 SWAP2 OR SWAP1 SSTORE JUMPDEST PUSH1 0x1 PUSH1 0x1 PUSH1 0xA0 SHL SUB DUP3 AND PUSH1 0x0 SWAP1 DUP2 MSTORE PUSH1 0x11 PUSH1 0x20 MSTORE PUSH1 0x40 SWAP1 KECCAK256 SLOAD PUSH1 0x1 PUSH1 0x1 PUSH1 0xE0 SHL SUB AND ISZERO DUP1 ISZERO PUSH2 0x4E3C JUMPI POP PUSH1 0x1 PUSH1 0x1 PUSH1 0xA0 SHL SUB DUP3 AND PUSH1 0x0 SWAP1 DUP2 MSTORE PUSH1 0x11 PUSH1 0x20 MSTORE PUSH1 0x40 SWAP1 KECCAK256 SLOAD PUSH1 0x1 PUSH1 0xE0 SHL SWAP1 DIV PUSH4 0xFFFFFFFF AND ISZERO JUMPDEST ISZERO PUSH2 0x193A JUMPI PUSH1 0x40 MLOAD DUP1 PUSH1 0x40 ADD PUSH1 0x40 MSTORE DUP1 PUSH15 0xC097CE7BC90715B34B9F1000000000 PUSH1 0x1 PUSH1 0x1 PUSH1 0xE0 SHL SUB AND DUP2 MSTORE PUSH1 0x20 ADD PUSH2 0x4E75 PUSH2 0x4D66 PUSH2 0x1AEF JUMP JUMPDEST PUSH4 0xFFFFFFFF SWAP1 DUP2 AND SWAP1 SWAP2 MSTORE PUSH1 0x1 PUSH1 0x1 PUSH1 0xA0 SHL SUB DUP5 AND PUSH1 0x0 SWAP1 DUP2 MSTORE PUSH1 0x11 PUSH1 0x20 SWAP1 DUP2 MSTORE PUSH1 0x40 SWAP1 SWAP2 KECCAK256 DUP4 MLOAD DUP2 SLOAD SWAP5 SWAP1 SWAP3 ADD MLOAD SWAP1 SWAP3 AND PUSH1 0x1 PUSH1 0xE0 SHL MUL PUSH1 0x1 PUSH1 0x1 PUSH1 0xE0 SHL SUB SWAP2 DUP3 AND PUSH1 0x1 PUSH1 0x1 PUSH1 0xE0 SHL SUB NOT SWAP1 SWAP5 AND SWAP4 SWAP1 SWAP4 OR AND SWAP2 SWAP1 SWAP2 OR SWAP1 SSTORE POP POP JUMP JUMPDEST PUSH1 0x0 PUSH32 0x45B96FE442630264581B197E84BBADA861235052C5A1AADFFF9EA4E40A969AA0 DUP5 PUSH1 0x11 DUP2 GT ISZERO PUSH2 0x4F02 JUMPI INVALID JUMPDEST DUP5 PUSH1 0x13 DUP2 GT ISZERO PUSH2 0x4F0E JUMPI INVALID JUMPDEST PUSH1 0x40 DUP1 MLOAD SWAP3 DUP4 MSTORE PUSH1 0x20 DUP4 ADD SWAP2 SWAP1 SWAP2 MSTORE DUP2 DUP2 ADD DUP6 SWAP1 MSTORE MLOAD SWAP1 DUP2 SWAP1 SUB PUSH1 0x60 ADD SWAP1 LOG1 DUP4 PUSH1 0x11 DUP2 GT ISZERO PUSH2 0x1C25 JUMPI INVALID JUMPDEST PUSH1 0x0 PUSH2 0x1C28 DUP4 DUP4 PUSH1 0x40 MLOAD DUP1 PUSH1 0x40 ADD PUSH1 0x40 MSTORE DUP1 PUSH1 0x15 DUP2 MSTORE PUSH1 0x20 ADD PUSH21 0x7375627472616374696F6E20756E646572666C6F77 PUSH1 0x58 SHL DUP2 MSTORE POP PUSH2 0x5616 JUMP JUMPDEST PUSH1 0x0 PUSH2 0x1C28 PUSH2 0x4F8A DUP5 PUSH8 0xDE0B6B3A7640000 PUSH2 0x4F91 JUMP JUMPDEST DUP4 MLOAD PUSH2 0x5670 JUMP JUMPDEST PUSH1 0x0 PUSH2 0x1C28 DUP4 DUP4 PUSH1 0x40 MLOAD DUP1 PUSH1 0x40 ADD PUSH1 0x40 MSTORE DUP1 PUSH1 0x17 DUP2 MSTORE PUSH1 0x20 ADD PUSH32 0x6D756C7469706C69636174696F6E206F766572666C6F77000000000000000000 DUP2 MSTORE POP PUSH2 0x56A3 JUMP JUMPDEST PUSH2 0x4FDB PUSH2 0x5869 JUMP JUMPDEST PUSH1 0x40 MLOAD DUP1 PUSH1 0x20 ADD PUSH1 0x40 MSTORE DUP1 PUSH2 0x5008 PUSH2 0x5002 DUP7 PUSH15 0xC097CE7BC90715B34B9F1000000000 PUSH2 0x4F91 JUMP JUMPDEST DUP6 PUSH2 0x5670 JUMP JUMPDEST SWAP1 MSTORE SWAP4 SWAP3 POP POP POP JUMP JUMPDEST PUSH2 0x5019 PUSH2 0x5869 JUMP JUMPDEST PUSH1 0x40 MLOAD DUP1 PUSH1 0x20 ADD PUSH1 0x40 MSTORE DUP1 PUSH2 0x5008 DUP6 PUSH1 0x0 ADD MLOAD DUP6 PUSH1 0x0 ADD MLOAD PUSH2 0x5179 JUMP JUMPDEST PUSH1 0x0 DUP2 PUSH1 0x1 PUSH1 0xE0 SHL DUP5 LT PUSH2 0x50C8 JUMPI PUSH1 0x40 MLOAD PUSH3 0x461BCD PUSH1 0xE5 SHL DUP2 MSTORE PUSH1 0x4 ADD DUP1 DUP1 PUSH1 0x20 ADD DUP3 DUP2 SUB DUP3 MSTORE DUP4 DUP2 DUP2 MLOAD DUP2 MSTORE PUSH1 0x20 ADD SWAP2 POP DUP1 MLOAD SWAP1 PUSH1 0x20 ADD SWAP1 DUP1 DUP4 DUP4 PUSH1 0x0 JUMPDEST DUP4 DUP2 LT ISZERO PUSH2 0x508D JUMPI DUP2 DUP2 ADD MLOAD DUP4 DUP3 ADD MSTORE PUSH1 0x20 ADD PUSH2 0x5075 JUMP JUMPDEST POP POP POP POP SWAP1 POP SWAP1 DUP2 ADD SWAP1 PUSH1 0x1F AND DUP1 ISZERO PUSH2 0x50BA JUMPI DUP1 DUP3 SUB DUP1 MLOAD PUSH1 0x1 DUP4 PUSH1 0x20 SUB PUSH2 0x100 EXP SUB NOT AND DUP2 MSTORE PUSH1 0x20 ADD SWAP2 POP JUMPDEST POP SWAP3 POP POP POP PUSH1 0x40 MLOAD DUP1 SWAP2 SUB SWAP1 REVERT JUMPDEST POP SWAP2 SWAP3 SWAP2 POP POP JUMP JUMPDEST PUSH1 0x0 DUP2 PUSH1 0x1 PUSH1 0x20 SHL DUP5 LT PUSH2 0x50C8 JUMPI PUSH1 0x40 MLOAD PUSH3 0x461BCD PUSH1 0xE5 SHL DUP2 MSTORE PUSH1 0x20 PUSH1 0x4 DUP3 ADD DUP2 DUP2 MSTORE DUP4 MLOAD PUSH1 0x24 DUP5 ADD MSTORE DUP4 MLOAD SWAP1 SWAP3 DUP4 SWAP3 PUSH1 0x44 SWAP1 SWAP2 ADD SWAP2 SWAP1 DUP6 ADD SWAP1 DUP1 DUP4 DUP4 PUSH1 0x0 DUP4 ISZERO PUSH2 0x508D JUMPI DUP2 DUP2 ADD MLOAD DUP4 DUP3 ADD MSTORE PUSH1 0x20 ADD PUSH2 0x5075 JUMP JUMPDEST PUSH2 0x512D PUSH2 0x5869 JUMP JUMPDEST PUSH1 0x40 MLOAD DUP1 PUSH1 0x20 ADD PUSH1 0x40 MSTORE DUP1 PUSH2 0x5008 DUP6 PUSH1 0x0 ADD MLOAD DUP6 PUSH1 0x0 ADD MLOAD PUSH2 0x4F39 JUMP JUMPDEST PUSH1 0x0 PUSH15 0xC097CE7BC90715B34B9F1000000000 PUSH2 0x516A DUP5 DUP5 PUSH1 0x0 ADD MLOAD PUSH2 0x4F91 JUMP JUMPDEST DUP2 PUSH2 0x5171 JUMPI INVALID JUMPDEST DIV SWAP4 SWAP3 POP POP POP JUMP JUMPDEST PUSH1 0x0 PUSH2 0x1C28 DUP4 DUP4 PUSH1 0x40 MLOAD DUP1 PUSH1 0x40 ADD PUSH1 0x40 MSTORE DUP1 PUSH1 0x11 DUP2 MSTORE PUSH1 0x20 ADD PUSH17 0x6164646974696F6E206F766572666C6F77 PUSH1 0x78 SHL DUP2 MSTORE POP PUSH2 0x5722 JUMP JUMPDEST PUSH1 0x0 DUP2 DUP4 LT ISZERO DUP1 ISZERO PUSH2 0x51C1 JUMPI POP PUSH1 0x0 DUP4 GT JUMPDEST ISZERO PUSH2 0x52EC JUMPI PUSH1 0x0 PUSH2 0x51D0 PUSH2 0x24F7 JUMP JUMPDEST PUSH1 0x40 DUP1 MLOAD PUSH4 0x70A08231 PUSH1 0xE0 SHL DUP2 MSTORE ADDRESS PUSH1 0x4 DUP3 ADD MSTORE SWAP1 MLOAD SWAP2 SWAP3 POP PUSH1 0x0 SWAP2 PUSH1 0x1 PUSH1 0x1 PUSH1 0xA0 SHL SUB DUP5 AND SWAP2 PUSH4 0x70A08231 SWAP2 PUSH1 0x24 DUP1 DUP4 ADD SWAP3 PUSH1 0x20 SWAP3 SWAP2 SWAP1 DUP3 SWAP1 SUB ADD DUP2 DUP7 DUP1 EXTCODESIZE ISZERO DUP1 ISZERO PUSH2 0x521C JUMPI PUSH1 0x0 DUP1 REVERT JUMPDEST POP GAS STATICCALL ISZERO DUP1 ISZERO PUSH2 0x5230 JUMPI RETURNDATASIZE PUSH1 0x0 DUP1 RETURNDATACOPY RETURNDATASIZE PUSH1 0x0 REVERT JUMPDEST POP POP POP POP PUSH1 0x40 MLOAD RETURNDATASIZE PUSH1 0x20 DUP2 LT ISZERO PUSH2 0x5246 JUMPI PUSH1 0x0 DUP1 REVERT JUMPDEST POP MLOAD SWAP1 POP DUP1 DUP6 GT PUSH2 0x52E9 JUMPI DUP2 PUSH1 0x1 PUSH1 0x1 PUSH1 0xA0 SHL SUB AND PUSH4 0xA9059CBB DUP8 DUP8 PUSH1 0x40 MLOAD DUP4 PUSH4 0xFFFFFFFF AND PUSH1 0xE0 SHL DUP2 MSTORE PUSH1 0x4 ADD DUP1 DUP4 PUSH1 0x1 PUSH1 0x1 PUSH1 0xA0 SHL SUB AND PUSH1 0x1 PUSH1 0x1 PUSH1 0xA0 SHL SUB AND DUP2 MSTORE PUSH1 0x20 ADD DUP3 DUP2 MSTORE PUSH1 0x20 ADD SWAP3 POP POP POP PUSH1 0x20 PUSH1 0x40 MLOAD DUP1 DUP4 SUB DUP2 PUSH1 0x0 DUP8 DUP1 EXTCODESIZE ISZERO DUP1 ISZERO PUSH2 0x52B1 JUMPI PUSH1 0x0 DUP1 REVERT JUMPDEST POP GAS CALL ISZERO DUP1 ISZERO PUSH2 0x52C5 JUMPI RETURNDATASIZE PUSH1 0x0 DUP1 RETURNDATACOPY RETURNDATASIZE PUSH1 0x0 REVERT JUMPDEST POP POP POP POP PUSH1 0x40 MLOAD RETURNDATASIZE PUSH1 0x20 DUP2 LT ISZERO PUSH2 0x52DB JUMPI PUSH1 0x0 DUP1 REVERT JUMPDEST POP PUSH1 0x0 SWAP4 POP PUSH2 0x1C28 SWAP3 POP POP POP JUMP JUMPDEST POP POP JUMPDEST POP SWAP1 SWAP3 SWAP2 POP POP JUMP JUMPDEST PUSH2 0x52FC PUSH2 0x5869 JUMP JUMPDEST PUSH1 0x40 MLOAD DUP1 PUSH1 0x20 ADD PUSH1 0x40 MSTORE DUP1 PUSH2 0x5008 DUP6 PUSH1 0x0 ADD MLOAD DUP6 PUSH2 0x4F91 JUMP JUMPDEST PUSH2 0x531D PUSH2 0x5869 JUMP JUMPDEST PUSH1 0x40 MLOAD DUP1 PUSH1 0x20 ADD PUSH1 0x40 MSTORE DUP1 PUSH2 0x5008 PUSH2 0x5341 DUP7 PUSH1 0x0 ADD MLOAD PUSH8 0xDE0B6B3A7640000 PUSH2 0x4F91 JUMP JUMPDEST DUP6 MLOAD PUSH2 0x5670 JUMP JUMPDEST PUSH1 0x0 PUSH8 0xDE0B6B3A7640000 PUSH2 0x516A DUP5 DUP5 PUSH1 0x0 ADD MLOAD PUSH2 0x4F91 JUMP JUMPDEST PUSH1 0x0 PUSH2 0x536B PUSH2 0x5869 JUMP JUMPDEST PUSH1 0x0 PUSH2 0x5375 PUSH2 0x5869 JUMP JUMPDEST PUSH2 0x537F DUP8 DUP8 PUSH2 0x547D JUMP JUMPDEST SWAP1 SWAP3 POP SWAP1 POP PUSH1 0x0 DUP3 PUSH1 0x3 DUP2 GT ISZERO PUSH2 0x5392 JUMPI INVALID JUMPDEST EQ PUSH2 0x53A1 JUMPI SWAP1 SWAP3 POP SWAP1 POP PUSH2 0x2B44 JUMP JUMPDEST PUSH2 0x53AB DUP2 DUP7 PUSH2 0x547D JUMP JUMPDEST SWAP4 POP SWAP4 POP POP POP SWAP4 POP SWAP4 SWAP2 POP POP JUMP JUMPDEST PUSH1 0x0 DUP1 PUSH1 0x0 PUSH2 0x53C6 PUSH2 0x5869 JUMP JUMPDEST PUSH2 0x53D0 DUP8 DUP8 PUSH2 0x5406 JUMP JUMPDEST SWAP1 SWAP3 POP SWAP1 POP PUSH1 0x0 DUP3 PUSH1 0x3 DUP2 GT ISZERO PUSH2 0x53E3 JUMPI INVALID JUMPDEST EQ PUSH2 0x53F4 JUMPI POP SWAP2 POP PUSH1 0x0 SWAP1 POP PUSH2 0x2B44 JUMP JUMPDEST PUSH2 0x53AB PUSH2 0x5400 DUP3 PUSH2 0x546E JUMP JUMPDEST DUP7 PUSH2 0x5777 JUMP JUMPDEST PUSH1 0x0 PUSH2 0x5410 PUSH2 0x5869 JUMP JUMPDEST PUSH1 0x0 DUP1 PUSH2 0x5421 DUP7 PUSH1 0x0 ADD MLOAD DUP7 PUSH2 0x579D JUMP JUMPDEST SWAP1 SWAP3 POP SWAP1 POP PUSH1 0x0 DUP3 PUSH1 0x3 DUP2 GT ISZERO PUSH2 0x5434 JUMPI INVALID JUMPDEST EQ PUSH2 0x5453 JUMPI POP PUSH1 0x40 DUP1 MLOAD PUSH1 0x20 DUP2 ADD SWAP1 SWAP2 MSTORE PUSH1 0x0 DUP2 MSTORE SWAP1 SWAP3 POP SWAP1 POP PUSH2 0x4893 JUMP JUMPDEST PUSH1 0x40 DUP1 MLOAD PUSH1 0x20 DUP2 ADD SWAP1 SWAP2 MSTORE SWAP1 DUP2 MSTORE PUSH1 0x0 SWAP7 SWAP1 SWAP6 POP SWAP4 POP POP POP POP JUMP JUMPDEST MLOAD PUSH8 0xDE0B6B3A7640000 SWAP1 DIV SWAP1 JUMP JUMPDEST PUSH1 0x0 PUSH2 0x5487 PUSH2 0x5869 JUMP JUMPDEST PUSH1 0x0 DUP1 PUSH2 0x549C DUP7 PUSH1 0x0 ADD MLOAD DUP7 PUSH1 0x0 ADD MLOAD PUSH2 0x579D JUMP JUMPDEST SWAP1 SWAP3 POP SWAP1 POP PUSH1 0x0 DUP3 PUSH1 0x3 DUP2 GT ISZERO PUSH2 0x54AF JUMPI INVALID JUMPDEST EQ PUSH2 0x54CE JUMPI POP PUSH1 0x40 DUP1 MLOAD PUSH1 0x20 DUP2 ADD SWAP1 SWAP2 MSTORE PUSH1 0x0 DUP2 MSTORE SWAP1 SWAP3 POP SWAP1 POP PUSH2 0x4893 JUMP JUMPDEST PUSH1 0x0 DUP1 PUSH2 0x54E3 PUSH8 0x6F05B59D3B20000 DUP5 PUSH2 0x5777 JUMP JUMPDEST SWAP1 SWAP3 POP SWAP1 POP PUSH1 0x0 DUP3 PUSH1 0x3 DUP2 GT ISZERO PUSH2 0x54F6 JUMPI INVALID JUMPDEST EQ PUSH2 0x5518 JUMPI POP PUSH1 0x40 DUP1 MLOAD PUSH1 0x20 DUP2 ADD SWAP1 SWAP2 MSTORE PUSH1 0x0 DUP2 MSTORE SWAP1 SWAP5 POP SWAP3 POP PUSH2 0x4893 SWAP2 POP POP JUMP JUMPDEST PUSH1 0x0 DUP1 PUSH2 0x552D DUP4 PUSH8 0xDE0B6B3A7640000 PUSH2 0x57DC JUMP JUMPDEST SWAP1 SWAP3 POP SWAP1 POP PUSH1 0x0 DUP3 PUSH1 0x3 DUP2 GT ISZERO PUSH2 0x5540 JUMPI INVALID JUMPDEST EQ PUSH2 0x5547 JUMPI INVALID JUMPDEST PUSH1 0x40 DUP1 MLOAD PUSH1 0x20 DUP2 ADD SWAP1 SWAP2 MSTORE SWAP1 DUP2 MSTORE PUSH1 0x0 SWAP11 SWAP1 SWAP10 POP SWAP8 POP POP POP POP POP POP POP POP JUMP JUMPDEST PUSH1 0x0 PUSH2 0x5570 PUSH2 0x5869 JUMP JUMPDEST PUSH1 0x0 DUP1 PUSH2 0x5585 DUP7 PUSH8 0xDE0B6B3A7640000 PUSH2 0x579D JUMP JUMPDEST SWAP1 SWAP3 POP SWAP1 POP PUSH1 0x0 DUP3 PUSH1 0x3 DUP2 GT ISZERO PUSH2 0x5598 JUMPI INVALID JUMPDEST EQ PUSH2 0x55B7 JUMPI POP PUSH1 0x40 DUP1 MLOAD PUSH1 0x20 DUP2 ADD SWAP1 SWAP2 MSTORE PUSH1 0x0 DUP2 MSTORE SWAP1 SWAP3 POP SWAP1 POP PUSH2 0x4893 JUMP JUMPDEST PUSH1 0x0 DUP1 PUSH2 0x55C4 DUP4 DUP9 PUSH2 0x57DC JUMP JUMPDEST SWAP1 SWAP3 POP SWAP1 POP PUSH1 0x0 DUP3 PUSH1 0x3 DUP2 GT ISZERO PUSH2 0x55D7 JUMPI INVALID JUMPDEST EQ PUSH2 0x55F9 JUMPI POP PUSH1 0x40 DUP1 MLOAD PUSH1 0x20 DUP2 ADD SWAP1 SWAP2 MSTORE PUSH1 0x0 DUP2 MSTORE SWAP1 SWAP5 POP SWAP3 POP PUSH2 0x4893 SWAP2 POP POP JUMP JUMPDEST PUSH1 0x40 DUP1 MLOAD PUSH1 0x20 DUP2 ADD SWAP1 SWAP2 MSTORE SWAP1 DUP2 MSTORE PUSH1 0x0 SWAP9 SWAP1 SWAP8 POP SWAP6 POP POP POP POP POP POP JUMP JUMPDEST PUSH1 0x0 DUP2 DUP5 DUP5 GT ISZERO PUSH2 0x5668 JUMPI PUSH1 0x40 MLOAD PUSH3 0x461BCD PUSH1 0xE5 SHL DUP2 MSTORE PUSH1 0x20 PUSH1 0x4 DUP3 ADD DUP2 DUP2 MSTORE DUP4 MLOAD PUSH1 0x24 DUP5 ADD MSTORE DUP4 MLOAD SWAP1 SWAP3 DUP4 SWAP3 PUSH1 0x44 SWAP1 SWAP2 ADD SWAP2 SWAP1 DUP6 ADD SWAP1 DUP1 DUP4 DUP4 PUSH1 0x0 DUP4 ISZERO PUSH2 0x508D JUMPI DUP2 DUP2 ADD MLOAD DUP4 DUP3 ADD MSTORE PUSH1 0x20 ADD PUSH2 0x5075 JUMP JUMPDEST POP POP POP SWAP1 SUB SWAP1 JUMP JUMPDEST PUSH1 0x0 PUSH2 0x1C28 DUP4 DUP4 PUSH1 0x40 MLOAD DUP1 PUSH1 0x40 ADD PUSH1 0x40 MSTORE DUP1 PUSH1 0xE DUP2 MSTORE PUSH1 0x20 ADD PUSH14 0x646976696465206279207A65726F PUSH1 0x90 SHL DUP2 MSTORE POP PUSH2 0x5807 JUMP JUMPDEST PUSH1 0x0 DUP4 ISZERO DUP1 PUSH2 0x56B0 JUMPI POP DUP3 ISZERO JUMPDEST ISZERO PUSH2 0x56BD JUMPI POP PUSH1 0x0 PUSH2 0x1C28 JUMP JUMPDEST DUP4 DUP4 MUL DUP4 DUP6 DUP3 DUP2 PUSH2 0x56CA JUMPI INVALID JUMPDEST DIV EQ DUP4 SWAP1 PUSH2 0x5719 JUMPI PUSH1 0x40 MLOAD PUSH3 0x461BCD PUSH1 0xE5 SHL DUP2 MSTORE PUSH1 0x20 PUSH1 0x4 DUP3 ADD DUP2 DUP2 MSTORE DUP4 MLOAD PUSH1 0x24 DUP5 ADD MSTORE DUP4 MLOAD SWAP1 SWAP3 DUP4 SWAP3 PUSH1 0x44 SWAP1 SWAP2 ADD SWAP2 SWAP1 DUP6 ADD SWAP1 DUP1 DUP4 DUP4 PUSH1 0x0 DUP4 ISZERO PUSH2 0x508D JUMPI DUP2 DUP2 ADD MLOAD DUP4 DUP3 ADD MSTORE PUSH1 0x20 ADD PUSH2 0x5075 JUMP JUMPDEST POP SWAP5 SWAP4 POP POP POP POP JUMP JUMPDEST PUSH1 0x0 DUP4 DUP4 ADD DUP3 DUP6 DUP3 LT ISZERO PUSH2 0x5719 JUMPI PUSH1 0x40 MLOAD PUSH3 0x461BCD PUSH1 0xE5 SHL DUP2 MSTORE PUSH1 0x20 PUSH1 0x4 DUP3 ADD DUP2 DUP2 MSTORE DUP4 MLOAD PUSH1 0x24 DUP5 ADD MSTORE DUP4 MLOAD SWAP1 SWAP3 DUP4 SWAP3 PUSH1 0x44 SWAP1 SWAP2 ADD SWAP2 SWAP1 DUP6 ADD SWAP1 DUP1 DUP4 DUP4 PUSH1 0x0 DUP4 ISZERO PUSH2 0x508D JUMPI DUP2 DUP2 ADD MLOAD DUP4 DUP3 ADD MSTORE PUSH1 0x20 ADD PUSH2 0x5075 JUMP JUMPDEST PUSH1 0x0 DUP1 DUP4 DUP4 ADD DUP5 DUP2 LT PUSH2 0x578F JUMPI PUSH1 0x0 SWAP3 POP SWAP1 POP PUSH2 0x4893 JUMP JUMPDEST POP PUSH1 0x2 SWAP2 POP PUSH1 0x0 SWAP1 POP PUSH2 0x4893 JUMP JUMPDEST PUSH1 0x0 DUP1 DUP4 PUSH2 0x57B0 JUMPI POP PUSH1 0x0 SWAP1 POP DUP1 PUSH2 0x4893 JUMP JUMPDEST DUP4 DUP4 MUL DUP4 DUP6 DUP3 DUP2 PUSH2 0x57BD JUMPI INVALID JUMPDEST DIV EQ PUSH2 0x57D1 JUMPI POP PUSH1 0x2 SWAP2 POP PUSH1 0x0 SWAP1 POP PUSH2 0x4893 JUMP JUMPDEST PUSH1 0x0 SWAP3 POP SWAP1 POP PUSH2 0x4893 JUMP JUMPDEST PUSH1 0x0 DUP1 DUP3 PUSH2 0x57F0 JUMPI POP PUSH1 0x1 SWAP1 POP PUSH1 0x0 PUSH2 0x4893 JUMP JUMPDEST PUSH1 0x0 DUP4 DUP6 DUP2 PUSH2 0x57FB JUMPI INVALID JUMPDEST DIV SWAP2 POP SWAP2 POP SWAP3 POP SWAP3 SWAP1 POP JUMP JUMPDEST PUSH1 0x0 DUP2 DUP4 PUSH2 0x5856 JUMPI PUSH1 0x40 MLOAD PUSH3 0x461BCD PUSH1 0xE5 SHL DUP2 MSTORE PUSH1 0x20 PUSH1 0x4 DUP3 ADD DUP2 DUP2 MSTORE DUP4 MLOAD PUSH1 0x24 DUP5 ADD MSTORE DUP4 MLOAD SWAP1 SWAP3 DUP4 SWAP3 PUSH1 0x44 SWAP1 SWAP2 ADD SWAP2 SWAP1 DUP6 ADD SWAP1 DUP1 DUP4 DUP4 PUSH1 0x0 DUP4 ISZERO PUSH2 0x508D JUMPI DUP2 DUP2 ADD MLOAD DUP4 DUP3 ADD MSTORE PUSH1 0x20 ADD PUSH2 0x5075 JUMP JUMPDEST POP DUP3 DUP5 DUP2 PUSH2 0x5860 JUMPI INVALID JUMPDEST DIV SWAP5 SWAP4 POP POP POP POP JUMP JUMPDEST PUSH1 0x40 MLOAD DUP1 PUSH1 0x20 ADD PUSH1 0x40 MSTORE DUP1 PUSH1 0x0 DUP2 MSTORE POP SWAP1 JUMP JUMPDEST DUP2 SLOAD DUP2 DUP4 SSTORE DUP2 DUP2 GT ISZERO PUSH2 0x135E JUMPI PUSH1 0x0 DUP4 DUP2 MSTORE PUSH1 0x20 SWAP1 KECCAK256 PUSH2 0x135E SWAP2 DUP2 ADD SWAP1 DUP4 ADD PUSH2 0x590A JUMP JUMPDEST PUSH1 0x40 MLOAD DUP1 PUSH2 0x140 ADD PUSH1 0x40 MSTORE DUP1 PUSH1 0x0 DUP2 MSTORE PUSH1 0x20 ADD PUSH1 0x0 DUP2 MSTORE PUSH1 0x20 ADD PUSH1 0x0 DUP2 MSTORE PUSH1 0x20 ADD PUSH1 0x0 DUP2 MSTORE PUSH1 0x20 ADD PUSH1 0x0 DUP2 MSTORE PUSH1 0x20 ADD PUSH1 0x0 DUP2 MSTORE PUSH1 0x20 ADD PUSH2 0x58DE PUSH2 0x5869 JUMP JUMPDEST DUP2 MSTORE PUSH1 0x20 ADD PUSH2 0x58EB PUSH2 0x5869 JUMP JUMPDEST DUP2 MSTORE PUSH1 0x20 ADD PUSH2 0x58F8 PUSH2 0x5869 JUMP JUMPDEST DUP2 MSTORE PUSH1 0x20 ADD PUSH2 0x5905 PUSH2 0x5869 JUMP JUMPDEST SWAP1 MSTORE SWAP1 JUMP JUMPDEST PUSH2 0x1AF1 SWAP2 SWAP1 JUMPDEST DUP1 DUP3 GT ISZERO PUSH2 0x5924 JUMPI PUSH1 0x0 DUP2 SSTORE PUSH1 0x1 ADD PUSH2 0x5910 JUMP JUMPDEST POP SWAP1 JUMP INVALID PUSH4 0x616E6E6F PUSH21 0x2070617573652061206D61726B6574207468617420 PUSH10 0x73206E6F74206C697374 PUSH6 0x646F6E6C7920 PUSH6 0x787465726E61 PUSH13 0x6C79206F776E6564206163636F PUSH22 0x6E7473206D6179207265667265736820737065656473 PUSH16 0x6E6C7920706175736520677561726469 PUSH2 0x6E20 PUSH2 0x6E64 KECCAK256 PUSH2 0x646D PUSH10 0x6E2063616E2070617573 PUSH6 0x657869744D61 PUSH19 0x6B65743A206765744163636F756E74536E6170 PUSH20 0x686F74206661696C6564626C6F636B206E756D62 PUSH6 0x722065786365 PUSH6 0x647320333220 PUSH3 0x697473 STOP STOP STOP STOP PUSH16 0x6E6C7920756E6974726F6C6C65722061 PUSH5 0x6D696E2063 PUSH2 0x6E20 PUSH4 0x68616E67 PUSH6 0x20627261696E PUSH20 0xA265627A7A723158207C6D0210E28127FAAB30F5 SHR 0x5E 0x28 RETURN SWAP16 PUSH11 0x68E2C872254F73A35EAB24 0xC0 0x48 SELFBALANCE 0xDE PUSH5 0x736F6C6343 STOP SDIV GT STOP ORIGIN ",
  "sha1": "3e0a6058b405997034e1efacda8bc7c11b7212e8",
  "source": "pragma solidity ^0.5.16;\n\nimport \"compound-finance/compound-protocol@2.8.1/contracts/Comptroller.sol\";\nimport \"compound-finance/compound-protocol@2.8.1/contracts/CErc20Immutable.sol\";\nimport \"compound-finance/compound-protocol@2.8.1/contracts/CEther.sol\";\nimport \"compound-finance/compound-protocol@2.8.1/contracts/WhitePaperInterestRateModel.sol\";\nimport \"compound-finance/compound-protocol@2.8.1/contracts/JumpRateModel.sol\";\nimport \"compound-finance/compound-protocol@2.8.1/contracts/SimplePriceOracle.sol\";\n\ncontract nComptroller is Comptroller {\n    constructor() public Comptroller() {}\n}\n\ncontract nPriceOracle is SimplePriceOracle { }\n\ncontract nCErc20 is CErc20Immutable { \n    constructor(address underlying_,\n            ComptrollerInterface comptroller_,\n            InterestRateModel interestRateModel_,\n            uint initialExchangeRateMantissa_,\n            string memory name_,\n            string memory symbol_,\n            uint8 decimals_,\n            address payable admin_) public\n        CErc20Immutable(underlying_, comptroller_, interestRateModel_, initialExchangeRateMantissa_, name_, symbol_, decimals_, admin_) { }\n}\n\ncontract nCEther is CEther { \n    constructor(ComptrollerInterface comptroller_,\n                InterestRateModel interestRateModel_,\n                uint initialExchangeRateMantissa_,\n                string memory name_,\n                string memory symbol_,\n                uint8 decimals_,\n                address payable admin_) public\n        CEther(comptroller_, interestRateModel_, initialExchangeRateMantissa_, name_, symbol_, decimals_, admin_) { }\n}\n\ncontract nJumpRateModel is JumpRateModel {\n    constructor(uint baseRatePerYear, uint multiplierPerYear, uint jumpMultiplierPerYear, uint kink_) public \n        JumpRateModel(baseRatePerYear, multiplierPerYear, jumpMultiplierPerYear, kink_) { }\n}\n\ncontract nWhitePaperInterestRateModel is WhitePaperInterestRateModel {\n    constructor(uint baseRatePerYear, uint multiplierPerYear) public\n        WhitePaperInterestRateModel(baseRatePerYear, multiplierPerYear) {}\n}",
  "sourcePath": "contracts/mocks/CompoundImports.sol",
  "type": "contract"
}