{
  "abi": [
    {
      "inputs": [
        {
          "internalType": "uint256",
          "name": "baseRatePerYear",
          "type": "uint256"
        },
        {
          "internalType": "uint256",
          "name": "multiplierPerYear",
          "type": "uint256"
        },
        {
          "internalType": "uint256",
          "name": "jumpMultiplierPerYear",
          "type": "uint256"
        },
        {
          "internalType": "uint256",
          "name": "kink_",
          "type": "uint256"
        }
      ],
      "payable": false,
      "stateMutability": "nonpayable",
      "type": "constructor"
    },
    {
      "anonymous": false,
      "inputs": [
        {
          "indexed": false,
          "internalType": "uint256",
          "name": "baseRatePerBlock",
          "type": "uint256"
        },
        {
          "indexed": false,
          "internalType": "uint256",
          "name": "multiplierPerBlock",
          "type": "uint256"
        },
        {
          "indexed": false,
          "internalType": "uint256",
          "name": "jumpMultiplierPerBlock",
          "type": "uint256"
        },
        {
          "indexed": false,
          "internalType": "uint256",
          "name": "kink",
          "type": "uint256"
        }
      ],
      "name": "NewInterestParams",
      "type": "event"
    },
    {
      "constant": true,
      "inputs": [],
      "name": "baseRatePerBlock",
      "outputs": [
        {
          "internalType": "uint256",
          "name": "",
          "type": "uint256"
        }
      ],
      "payable": false,
      "stateMutability": "view",
      "type": "function"
    },
    {
      "constant": true,
      "inputs": [],
      "name": "blocksPerYear",
      "outputs": [
        {
          "internalType": "uint256",
          "name": "",
          "type": "uint256"
        }
      ],
      "payable": false,
      "stateMutability": "view",
      "type": "function"
    },
    {
      "constant": true,
      "inputs": [
        {
          "internalType": "uint256",
          "name": "cash",
          "type": "uint256"
        },
        {
          "internalType": "uint256",
          "name": "borrows",
          "type": "uint256"
        },
        {
          "internalType": "uint256",
          "name": "reserves",
          "type": "uint256"
        }
      ],
      "name": "getBorrowRate",
      "outputs": [
        {
          "internalType": "uint256",
          "name": "",
          "type": "uint256"
        }
      ],
      "payable": false,
      "stateMutability": "view",
      "type": "function"
    },
    {
      "constant": true,
      "inputs": [
        {
          "internalType": "uint256",
          "name": "cash",
          "type": "uint256"
        },
        {
          "internalType": "uint256",
          "name": "borrows",
          "type": "uint256"
        },
        {
          "internalType": "uint256",
          "name": "reserves",
          "type": "uint256"
        },
        {
          "internalType": "uint256",
          "name": "reserveFactorMantissa",
          "type": "uint256"
        }
      ],
      "name": "getSupplyRate",
      "outputs": [
        {
          "internalType": "uint256",
          "name": "",
          "type": "uint256"
        }
      ],
      "payable": false,
      "stateMutability": "view",
      "type": "function"
    },
    {
      "constant": true,
      "inputs": [],
      "name": "isInterestRateModel",
      "outputs": [
        {
          "internalType": "bool",
          "name": "",
          "type": "bool"
        }
      ],
      "payable": false,
      "stateMutability": "view",
      "type": "function"
    },
    {
      "constant": true,
      "inputs": [],
      "name": "jumpMultiplierPerBlock",
      "outputs": [
        {
          "internalType": "uint256",
          "name": "",
          "type": "uint256"
        }
      ],
      "payable": false,
      "stateMutability": "view",
      "type": "function"
    },
    {
      "constant": true,
      "inputs": [],
      "name": "kink",
      "outputs": [
        {
          "internalType": "uint256",
          "name": "",
          "type": "uint256"
        }
      ],
      "payable": false,
      "stateMutability": "view",
      "type": "function"
    },
    {
      "constant": true,
      "inputs": [],
      "name": "multiplierPerBlock",
      "outputs": [
        {
          "internalType": "uint256",
          "name": "",
          "type": "uint256"
        }
      ],
      "payable": false,
      "stateMutability": "view",
      "type": "function"
    },
    {
      "constant": true,
      "inputs": [
        {
          "internalType": "uint256",
          "name": "cash",
          "type": "uint256"
        },
        {
          "internalType": "uint256",
          "name": "borrows",
          "type": "uint256"
        },
        {
          "internalType": "uint256",
          "name": "reserves",
          "type": "uint256"
        }
      ],
      "name": "utilizationRate",
      "outputs": [
        {
          "internalType": "uint256",
          "name": "",
          "type": "uint256"
        }
      ],
      "payable": false,
      "stateMutability": "pure",
      "type": "function"
    }
  ],
  "bytecode": "608060405234801561001057600080fd5b506040516107d73803806107d78339818101604052608081101561003357600080fd5b5080516020808301516040840151606090940151929390929091849084908490849061006d908590622014809061039e610109821b17901c565b6001556100888362201480610109602090811b61039e17901c565b6000556100a38262201480610109602090811b61039e17901c565b60028190556003829055600154600054604080519283526020830191909152818101929092526060810183905290517f6960ab234c7ef4b0c9197100f5393cfcde7c453ac910a27bd2000aa1dd4c068d9181900360800190a150505050505050506101fa565b600061015183836040518060400160405280601a81526020017f536166654d6174683a206469766973696f6e206279207a65726f00000000000081525061015860201b60201c565b9392505050565b600081836101e45760405162461bcd60e51b81526004018080602001828103825283818151815260200191508051906020019080838360005b838110156101a9578181015183820152602001610191565b50505050905090810190601f1680156101d65780820380516001836020036101000a031916815260200191505b509250505060405180910390fd5b5060008385816101f057fe5b0495945050505050565b6105ce806102096000396000f3fe608060405234801561001057600080fd5b50600436106100935760003560e01c8063a385fb9611610066578063a385fb9614610120578063b816881614610128578063b9f9850a14610157578063f14039de1461015f578063fd2da3391461016757610093565b806315f24053146100985780632191f92a146100d35780636e71e2d8146100ef5780638726bb8914610118575b600080fd5b6100c1600480360360608110156100ae57600080fd5b508035906020810135906040013561016f565b60408051918252519081900360200190f35b6100db610247565b604080519115158252519081900360200190f35b6100c16004803603606081101561010557600080fd5b508035906020810135906040013561024c565b6100c161029e565b6100c16102a4565b6100c16004803603608081101561013e57600080fd5b50803590602081013590604081013590606001356102ab565b6100c161032a565b6100c1610330565b6100c1610336565b60008061017d85858561024c565b905060035481116101cf576101c76001546101bb670de0b6b3a76400006101af6000548661033c90919063ffffffff16565b9063ffffffff61039e16565b9063ffffffff6103e016565b915050610240565b60006101fa6001546101bb670de0b6b3a76400006101af60005460035461033c90919063ffffffff16565b905060006102136003548461043a90919063ffffffff16565b905061023a826101bb670de0b6b3a76400006101af6002548661033c90919063ffffffff16565b93505050505b9392505050565b600181565b60008261025b57506000610240565b61029661027e83610272878763ffffffff6103e016565b9063ffffffff61043a16565b6101af85670de0b6b3a764000063ffffffff61033c16565b949350505050565b60005481565b6220148081565b6000806102c6670de0b6b3a76400008463ffffffff61043a16565b905060006102d587878761016f565b905060006102f5670de0b6b3a76400006101af848663ffffffff61033c16565b905061031e670de0b6b3a76400006101af836103128c8c8c61024c565b9063ffffffff61033c16565b98975050505050505050565b60025481565b60015481565b60035481565b60008261034b57506000610398565b8282028284828161035857fe5b04146103955760405162461bcd60e51b81526004018080602001828103825260218152602001806105796021913960400191505060405180910390fd5b90505b92915050565b600061039583836040518060400160405280601a81526020017f536166654d6174683a206469766973696f6e206279207a65726f00000000000081525061047c565b600082820183811015610395576040805162461bcd60e51b815260206004820152601b60248201527f536166654d6174683a206164646974696f6e206f766572666c6f770000000000604482015290519081900360640190fd5b600061039583836040518060400160405280601f81526020017f536166654d6174683a207375627472616374696f6e20756e646572666c6f770081525061051e565b600081836105085760405162461bcd60e51b81526004018080602001828103825283818151815260200191508051906020019080838360005b838110156104cd5781810151838201526020016104b5565b50505050905090810190601f1680156104fa5780820380516001836020036101000a031916815260200191505b509250505060405180910390fd5b50600083858161051457fe5b0495945050505050565b600081848411156105705760405162461bcd60e51b81526020600482018181528351602484015283519092839260449091019190850190808383600083156104cd5781810151838201526020016104b5565b50505090039056fe536166654d6174683a206d756c7469706c69636174696f6e206f766572666c6f77a265627a7a72315820b87d6ab19333ec307b363dfb8e44c84da5928b67c072b2fcac603d2424ff0a0064736f6c63430005110032",
  "bytecodeSha1": "696ab7f84514b4884be431f683d868868e0ea767",
  "compiler": {
    "evm_version": "istanbul",
    "optimizer": {
      "enabled": true,
      "runs": 200
    },
    "version": "0.5.17+commit.d19bba13"
  },
  "contractName": "nJumpRateModel",
  "language": "Solidity",
  "natspec": {
    "methods": {
      "getBorrowRate(uint256,uint256,uint256)": {
        "notice": "Calculates the current borrow rate per block, with the error code expected by the market",
        "params": {
          "borrows": "The amount of borrows in the market",
          "cash": "The amount of cash in the market",
          "reserves": "The amount of reserves in the market"
        },
        "return": "The borrow rate percentage per block as a mantissa (scaled by 1e18)"
      },
      "getSupplyRate(uint256,uint256,uint256,uint256)": {
        "notice": "Calculates the current supply rate per block",
        "params": {
          "borrows": "The amount of borrows in the market",
          "cash": "The amount of cash in the market",
          "reserveFactorMantissa": "The current reserve factor for the market",
          "reserves": "The amount of reserves in the market"
        },
        "return": "The supply rate percentage per block as a mantissa (scaled by 1e18)"
      },
      "utilizationRate(uint256,uint256,uint256)": {
        "notice": "Calculates the utilization rate of the market: `borrows / (cash + borrows - reserves)`",
        "params": {
          "borrows": "The amount of borrows in the market",
          "cash": "The amount of cash in the market",
          "reserves": "The amount of reserves in the market (currently unused)"
        },
        "return": "The utilization rate as a mantissa between [0, 1e18]"
      }
    }
  },
  "opcodes": "PUSH1 0x80 PUSH1 0x40 MSTORE CALLVALUE DUP1 ISZERO PUSH2 0x10 JUMPI PUSH1 0x0 DUP1 REVERT JUMPDEST POP PUSH1 0x4 CALLDATASIZE LT PUSH2 0x93 JUMPI PUSH1 0x0 CALLDATALOAD PUSH1 0xE0 SHR DUP1 PUSH4 0xA385FB96 GT PUSH2 0x66 JUMPI DUP1 PUSH4 0xA385FB96 EQ PUSH2 0x120 JUMPI DUP1 PUSH4 0xB8168816 EQ PUSH2 0x128 JUMPI DUP1 PUSH4 0xB9F9850A EQ PUSH2 0x157 JUMPI DUP1 PUSH4 0xF14039DE EQ PUSH2 0x15F JUMPI DUP1 PUSH4 0xFD2DA339 EQ PUSH2 0x167 JUMPI PUSH2 0x93 JUMP JUMPDEST DUP1 PUSH4 0x15F24053 EQ PUSH2 0x98 JUMPI DUP1 PUSH4 0x2191F92A EQ PUSH2 0xD3 JUMPI DUP1 PUSH4 0x6E71E2D8 EQ PUSH2 0xEF JUMPI DUP1 PUSH4 0x8726BB89 EQ PUSH2 0x118 JUMPI JUMPDEST PUSH1 0x0 DUP1 REVERT JUMPDEST PUSH2 0xC1 PUSH1 0x4 DUP1 CALLDATASIZE SUB PUSH1 0x60 DUP2 LT ISZERO PUSH2 0xAE JUMPI PUSH1 0x0 DUP1 REVERT JUMPDEST POP DUP1 CALLDATALOAD SWAP1 PUSH1 0x20 DUP2 ADD CALLDATALOAD SWAP1 PUSH1 0x40 ADD CALLDATALOAD PUSH2 0x16F JUMP JUMPDEST PUSH1 0x40 DUP1 MLOAD SWAP2 DUP3 MSTORE MLOAD SWAP1 DUP2 SWAP1 SUB PUSH1 0x20 ADD SWAP1 RETURN JUMPDEST PUSH2 0xDB PUSH2 0x247 JUMP JUMPDEST PUSH1 0x40 DUP1 MLOAD SWAP2 ISZERO ISZERO DUP3 MSTORE MLOAD SWAP1 DUP2 SWAP1 SUB PUSH1 0x20 ADD SWAP1 RETURN JUMPDEST PUSH2 0xC1 PUSH1 0x4 DUP1 CALLDATASIZE SUB PUSH1 0x60 DUP2 LT ISZERO PUSH2 0x105 JUMPI PUSH1 0x0 DUP1 REVERT JUMPDEST POP DUP1 CALLDATALOAD SWAP1 PUSH1 0x20 DUP2 ADD CALLDATALOAD SWAP1 PUSH1 0x40 ADD CALLDATALOAD PUSH2 0x24C JUMP JUMPDEST PUSH2 0xC1 PUSH2 0x29E JUMP JUMPDEST PUSH2 0xC1 PUSH2 0x2A4 JUMP JUMPDEST PUSH2 0xC1 PUSH1 0x4 DUP1 CALLDATASIZE SUB PUSH1 0x80 DUP2 LT ISZERO PUSH2 0x13E JUMPI PUSH1 0x0 DUP1 REVERT JUMPDEST POP DUP1 CALLDATALOAD SWAP1 PUSH1 0x20 DUP2 ADD CALLDATALOAD SWAP1 PUSH1 0x40 DUP2 ADD CALLDATALOAD SWAP1 PUSH1 0x60 ADD CALLDATALOAD PUSH2 0x2AB JUMP JUMPDEST PUSH2 0xC1 PUSH2 0x32A JUMP JUMPDEST PUSH2 0xC1 PUSH2 0x330 JUMP JUMPDEST PUSH2 0xC1 PUSH2 0x336 JUMP JUMPDEST PUSH1 0x0 DUP1 PUSH2 0x17D DUP6 DUP6 DUP6 PUSH2 0x24C JUMP JUMPDEST SWAP1 POP PUSH1 0x3 SLOAD DUP2 GT PUSH2 0x1CF JUMPI PUSH2 0x1C7 PUSH1 0x1 SLOAD PUSH2 0x1BB PUSH8 0xDE0B6B3A7640000 PUSH2 0x1AF PUSH1 0x0 SLOAD DUP7 PUSH2 0x33C SWAP1 SWAP2 SWAP1 PUSH4 0xFFFFFFFF AND JUMP JUMPDEST SWAP1 PUSH4 0xFFFFFFFF PUSH2 0x39E AND JUMP JUMPDEST SWAP1 PUSH4 0xFFFFFFFF PUSH2 0x3E0 AND JUMP JUMPDEST SWAP2 POP POP PUSH2 0x240 JUMP JUMPDEST PUSH1 0x0 PUSH2 0x1FA PUSH1 0x1 SLOAD PUSH2 0x1BB PUSH8 0xDE0B6B3A7640000 PUSH2 0x1AF PUSH1 0x0 SLOAD PUSH1 0x3 SLOAD PUSH2 0x33C SWAP1 SWAP2 SWAP1 PUSH4 0xFFFFFFFF AND JUMP JUMPDEST SWAP1 POP PUSH1 0x0 PUSH2 0x213 PUSH1 0x3 SLOAD DUP5 PUSH2 0x43A SWAP1 SWAP2 SWAP1 PUSH4 0xFFFFFFFF AND JUMP JUMPDEST SWAP1 POP PUSH2 0x23A DUP3 PUSH2 0x1BB PUSH8 0xDE0B6B3A7640000 PUSH2 0x1AF PUSH1 0x2 SLOAD DUP7 PUSH2 0x33C SWAP1 SWAP2 SWAP1 PUSH4 0xFFFFFFFF AND JUMP JUMPDEST SWAP4 POP POP POP POP JUMPDEST SWAP4 SWAP3 POP POP POP JUMP JUMPDEST PUSH1 0x1 DUP2 JUMP JUMPDEST PUSH1 0x0 DUP3 PUSH2 0x25B JUMPI POP PUSH1 0x0 PUSH2 0x240 JUMP JUMPDEST PUSH2 0x296 PUSH2 0x27E DUP4 PUSH2 0x272 DUP8 DUP8 PUSH4 0xFFFFFFFF PUSH2 0x3E0 AND JUMP JUMPDEST SWAP1 PUSH4 0xFFFFFFFF PUSH2 0x43A AND JUMP JUMPDEST PUSH2 0x1AF DUP6 PUSH8 0xDE0B6B3A7640000 PUSH4 0xFFFFFFFF PUSH2 0x33C AND JUMP JUMPDEST SWAP5 SWAP4 POP POP POP POP JUMP JUMPDEST PUSH1 0x0 SLOAD DUP2 JUMP JUMPDEST PUSH3 0x201480 DUP2 JUMP JUMPDEST PUSH1 0x0 DUP1 PUSH2 0x2C6 PUSH8 0xDE0B6B3A7640000 DUP5 PUSH4 0xFFFFFFFF PUSH2 0x43A AND JUMP JUMPDEST SWAP1 POP PUSH1 0x0 PUSH2 0x2D5 DUP8 DUP8 DUP8 PUSH2 0x16F JUMP JUMPDEST SWAP1 POP PUSH1 0x0 PUSH2 0x2F5 PUSH8 0xDE0B6B3A7640000 PUSH2 0x1AF DUP5 DUP7 PUSH4 0xFFFFFFFF PUSH2 0x33C AND JUMP JUMPDEST SWAP1 POP PUSH2 0x31E PUSH8 0xDE0B6B3A7640000 PUSH2 0x1AF DUP4 PUSH2 0x312 DUP13 DUP13 DUP13 PUSH2 0x24C JUMP JUMPDEST SWAP1 PUSH4 0xFFFFFFFF PUSH2 0x33C AND JUMP JUMPDEST SWAP9 SWAP8 POP POP POP POP POP POP POP POP JUMP JUMPDEST PUSH1 0x2 SLOAD DUP2 JUMP JUMPDEST PUSH1 0x1 SLOAD DUP2 JUMP JUMPDEST PUSH1 0x3 SLOAD DUP2 JUMP JUMPDEST PUSH1 0x0 DUP3 PUSH2 0x34B JUMPI POP PUSH1 0x0 PUSH2 0x398 JUMP JUMPDEST DUP3 DUP3 MUL DUP3 DUP5 DUP3 DUP2 PUSH2 0x358 JUMPI INVALID JUMPDEST DIV EQ PUSH2 0x395 JUMPI PUSH1 0x40 MLOAD PUSH3 0x461BCD PUSH1 0xE5 SHL DUP2 MSTORE PUSH1 0x4 ADD DUP1 DUP1 PUSH1 0x20 ADD DUP3 DUP2 SUB DUP3 MSTORE PUSH1 0x21 DUP2 MSTORE PUSH1 0x20 ADD DUP1 PUSH2 0x579 PUSH1 0x21 SWAP2 CODECOPY PUSH1 0x40 ADD SWAP2 POP POP PUSH1 0x40 MLOAD DUP1 SWAP2 SUB SWAP1 REVERT JUMPDEST SWAP1 POP JUMPDEST SWAP3 SWAP2 POP POP JUMP JUMPDEST PUSH1 0x0 PUSH2 0x395 DUP4 DUP4 PUSH1 0x40 MLOAD DUP1 PUSH1 0x40 ADD PUSH1 0x40 MSTORE DUP1 PUSH1 0x1A DUP2 MSTORE PUSH1 0x20 ADD PUSH32 0x536166654D6174683A206469766973696F6E206279207A65726F000000000000 DUP2 MSTORE POP PUSH2 0x47C JUMP JUMPDEST PUSH1 0x0 DUP3 DUP3 ADD DUP4 DUP2 LT ISZERO PUSH2 0x395 JUMPI PUSH1 0x40 DUP1 MLOAD PUSH3 0x461BCD PUSH1 0xE5 SHL DUP2 MSTORE PUSH1 0x20 PUSH1 0x4 DUP3 ADD MSTORE PUSH1 0x1B PUSH1 0x24 DUP3 ADD MSTORE PUSH32 0x536166654D6174683A206164646974696F6E206F766572666C6F770000000000 PUSH1 0x44 DUP3 ADD MSTORE SWAP1 MLOAD SWAP1 DUP2 SWAP1 SUB PUSH1 0x64 ADD SWAP1 REVERT JUMPDEST PUSH1 0x0 PUSH2 0x395 DUP4 DUP4 PUSH1 0x40 MLOAD DUP1 PUSH1 0x40 ADD PUSH1 0x40 MSTORE DUP1 PUSH1 0x1F DUP2 MSTORE PUSH1 0x20 ADD PUSH32 0x536166654D6174683A207375627472616374696F6E20756E646572666C6F7700 DUP2 MSTORE POP PUSH2 0x51E JUMP JUMPDEST PUSH1 0x0 DUP2 DUP4 PUSH2 0x508 JUMPI PUSH1 0x40 MLOAD PUSH3 0x461BCD PUSH1 0xE5 SHL DUP2 MSTORE PUSH1 0x4 ADD DUP1 DUP1 PUSH1 0x20 ADD DUP3 DUP2 SUB DUP3 MSTORE DUP4 DUP2 DUP2 MLOAD DUP2 MSTORE PUSH1 0x20 ADD SWAP2 POP DUP1 MLOAD SWAP1 PUSH1 0x20 ADD SWAP1 DUP1 DUP4 DUP4 PUSH1 0x0 JUMPDEST DUP4 DUP2 LT ISZERO PUSH2 0x4CD JUMPI DUP2 DUP2 ADD MLOAD DUP4 DUP3 ADD MSTORE PUSH1 0x20 ADD PUSH2 0x4B5 JUMP JUMPDEST POP POP POP POP SWAP1 POP SWAP1 DUP2 ADD SWAP1 PUSH1 0x1F AND DUP1 ISZERO PUSH2 0x4FA JUMPI DUP1 DUP3 SUB DUP1 MLOAD PUSH1 0x1 DUP4 PUSH1 0x20 SUB PUSH2 0x100 EXP SUB NOT AND DUP2 MSTORE PUSH1 0x20 ADD SWAP2 POP JUMPDEST POP SWAP3 POP POP POP PUSH1 0x40 MLOAD DUP1 SWAP2 SUB SWAP1 REVERT JUMPDEST POP PUSH1 0x0 DUP4 DUP6 DUP2 PUSH2 0x514 JUMPI INVALID JUMPDEST DIV SWAP6 SWAP5 POP POP POP POP POP JUMP JUMPDEST PUSH1 0x0 DUP2 DUP5 DUP5 GT ISZERO PUSH2 0x570 JUMPI PUSH1 0x40 MLOAD PUSH3 0x461BCD PUSH1 0xE5 SHL DUP2 MSTORE PUSH1 0x20 PUSH1 0x4 DUP3 ADD DUP2 DUP2 MSTORE DUP4 MLOAD PUSH1 0x24 DUP5 ADD MSTORE DUP4 MLOAD SWAP1 SWAP3 DUP4 SWAP3 PUSH1 0x44 SWAP1 SWAP2 ADD SWAP2 SWAP1 DUP6 ADD SWAP1 DUP1 DUP4 DUP4 PUSH1 0x0 DUP4 ISZERO PUSH2 0x4CD JUMPI DUP2 DUP2 ADD MLOAD DUP4 DUP3 ADD MSTORE PUSH1 0x20 ADD PUSH2 0x4B5 JUMP JUMPDEST POP POP POP SWAP1 SUB SWAP1 JUMP INVALID MSTORE8 PUSH2 0x6665 0x4D PUSH2 0x7468 GASPRICE KECCAK256 PUSH14 0x756C7469706C69636174696F6E20 PUSH16 0x766572666C6F77A265627A7A72315820 0xB8 PUSH30 0x6AB19333EC307B363DFB8E44C84DA5928B67C072B2FCAC603D2424FF0A00 PUSH5 0x736F6C6343 STOP SDIV GT STOP ORIGIN ",
  "sha1": "3e0a6058b405997034e1efacda8bc7c11b7212e8",
  "source": "pragma solidity ^0.5.16;\n\nimport \"compound-finance/compound-protocol@2.8.1/contracts/Comptroller.sol\";\nimport \"compound-finance/compound-protocol@2.8.1/contracts/CErc20Immutable.sol\";\nimport \"compound-finance/compound-protocol@2.8.1/contracts/CEther.sol\";\nimport \"compound-finance/compound-protocol@2.8.1/contracts/WhitePaperInterestRateModel.sol\";\nimport \"compound-finance/compound-protocol@2.8.1/contracts/JumpRateModel.sol\";\nimport \"compound-finance/compound-protocol@2.8.1/contracts/SimplePriceOracle.sol\";\n\ncontract nComptroller is Comptroller {\n    constructor() public Comptroller() {}\n}\n\ncontract nPriceOracle is SimplePriceOracle { }\n\ncontract nCErc20 is CErc20Immutable { \n    constructor(address underlying_,\n            ComptrollerInterface comptroller_,\n            InterestRateModel interestRateModel_,\n            uint initialExchangeRateMantissa_,\n            string memory name_,\n            string memory symbol_,\n            uint8 decimals_,\n            address payable admin_) public\n        CErc20Immutable(underlying_, comptroller_, interestRateModel_, initialExchangeRateMantissa_, name_, symbol_, decimals_, admin_) { }\n}\n\ncontract nCEther is CEther { \n    constructor(ComptrollerInterface comptroller_,\n                InterestRateModel interestRateModel_,\n                uint initialExchangeRateMantissa_,\n                string memory name_,\n                string memory symbol_,\n                uint8 decimals_,\n                address payable admin_) public\n        CEther(comptroller_, interestRateModel_, initialExchangeRateMantissa_, name_, symbol_, decimals_, admin_) { }\n}\n\ncontract nJumpRateModel is JumpRateModel {\n    constructor(uint baseRatePerYear, uint multiplierPerYear, uint jumpMultiplierPerYear, uint kink_) public \n        JumpRateModel(baseRatePerYear, multiplierPerYear, jumpMultiplierPerYear, kink_) { }\n}\n\ncontract nWhitePaperInterestRateModel is WhitePaperInterestRateModel {\n    constructor(uint baseRatePerYear, uint multiplierPerYear) public\n        WhitePaperInterestRateModel(baseRatePerYear, multiplierPerYear) {}\n}",
  "sourcePath": "contracts/mocks/CompoundImports.sol",
  "type": "contract"
}