{
  "_format": "hh-sol-artifact-1",
  "contractName": "Controller",
  "sourceName": "contracts/v3/controllers/Controller.sol",
  "abi": [
    {
      "inputs": [
        {
          "internalType": "address",
          "name": "_manager",
          "type": "address"
        }
      ],
      "stateMutability": "nonpayable",
      "type": "constructor"
    },
    {
      "anonymous": false,
      "inputs": [
        {
          "indexed": true,
          "internalType": "address",
          "name": "token",
          "type": "address"
        },
        {
          "indexed": true,
          "internalType": "address",
          "name": "strategy",
          "type": "address"
        }
      ],
      "name": "Earn",
      "type": "event"
    },
    {
      "anonymous": false,
      "inputs": [
        {
          "indexed": true,
          "internalType": "address",
          "name": "strategy",
          "type": "address"
        }
      ],
      "name": "Harvest",
      "type": "event"
    },
    {
      "anonymous": false,
      "inputs": [
        {
          "indexed": true,
          "internalType": "address",
          "name": "vault",
          "type": "address"
        }
      ],
      "name": "InsuranceClaimed",
      "type": "event"
    },
    {
      "anonymous": false,
      "inputs": [
        {
          "indexed": true,
          "internalType": "address",
          "name": "vault",
          "type": "address"
        },
        {
          "indexed": true,
          "internalType": "address",
          "name": "strategy1",
          "type": "address"
        },
        {
          "indexed": true,
          "internalType": "address",
          "name": "strategy2",
          "type": "address"
        }
      ],
      "name": "StrategiesReordered",
      "type": "event"
    },
    {
      "anonymous": false,
      "inputs": [
        {
          "indexed": true,
          "internalType": "address",
          "name": "vault",
          "type": "address"
        },
        {
          "indexed": true,
          "internalType": "address",
          "name": "strategy",
          "type": "address"
        },
        {
          "indexed": false,
          "internalType": "uint256",
          "name": "cap",
          "type": "uint256"
        }
      ],
      "name": "StrategyAdded",
      "type": "event"
    },
    {
      "anonymous": false,
      "inputs": [
        {
          "indexed": true,
          "internalType": "address",
          "name": "vault",
          "type": "address"
        },
        {
          "indexed": true,
          "internalType": "address",
          "name": "strategy",
          "type": "address"
        }
      ],
      "name": "StrategyRemoved",
      "type": "event"
    },
    {
      "inputs": [
        {
          "internalType": "address",
          "name": "_vault",
          "type": "address"
        },
        {
          "internalType": "address",
          "name": "_strategy",
          "type": "address"
        },
        {
          "internalType": "uint256",
          "name": "_cap",
          "type": "uint256"
        },
        {
          "internalType": "uint256",
          "name": "_timeout",
          "type": "uint256"
        }
      ],
      "name": "addStrategy",
      "outputs": [],
      "stateMutability": "nonpayable",
      "type": "function"
    },
    {
      "inputs": [],
      "name": "balanceOf",
      "outputs": [
        {
          "internalType": "uint256",
          "name": "_balance",
          "type": "uint256"
        }
      ],
      "stateMutability": "view",
      "type": "function"
    },
    {
      "inputs": [
        {
          "internalType": "address",
          "name": "_vault",
          "type": "address"
        }
      ],
      "name": "converter",
      "outputs": [
        {
          "internalType": "address",
          "name": "",
          "type": "address"
        }
      ],
      "stateMutability": "view",
      "type": "function"
    },
    {
      "inputs": [
        {
          "internalType": "address",
          "name": "_strategy",
          "type": "address"
        },
        {
          "internalType": "address",
          "name": "_token",
          "type": "address"
        },
        {
          "internalType": "uint256",
          "name": "_amount",
          "type": "uint256"
        }
      ],
      "name": "earn",
      "outputs": [],
      "stateMutability": "nonpayable",
      "type": "function"
    },
    {
      "inputs": [
        {
          "internalType": "address",
          "name": "_vault",
          "type": "address"
        },
        {
          "internalType": "address",
          "name": "_strategy",
          "type": "address"
        }
      ],
      "name": "getCap",
      "outputs": [
        {
          "internalType": "uint256",
          "name": "",
          "type": "uint256"
        }
      ],
      "stateMutability": "view",
      "type": "function"
    },
    {
      "inputs": [],
      "name": "globalInvestEnabled",
      "outputs": [
        {
          "internalType": "bool",
          "name": "",
          "type": "bool"
        }
      ],
      "stateMutability": "view",
      "type": "function"
    },
    {
      "inputs": [
        {
          "internalType": "address",
          "name": "_strategy",
          "type": "address"
        },
        {
          "internalType": "uint256",
          "name": "_estimatedWETH",
          "type": "uint256"
        },
        {
          "internalType": "uint256",
          "name": "_estimatedYAXIS",
          "type": "uint256"
        }
      ],
      "name": "harvestStrategy",
      "outputs": [],
      "stateMutability": "nonpayable",
      "type": "function"
    },
    {
      "inputs": [
        {
          "internalType": "address",
          "name": "_strategy",
          "type": "address"
        },
        {
          "internalType": "address",
          "name": "_token",
          "type": "address"
        }
      ],
      "name": "inCaseStrategyGetStuck",
      "outputs": [],
      "stateMutability": "nonpayable",
      "type": "function"
    },
    {
      "inputs": [
        {
          "internalType": "address",
          "name": "_token",
          "type": "address"
        },
        {
          "internalType": "uint256",
          "name": "_amount",
          "type": "uint256"
        }
      ],
      "name": "inCaseTokensGetStuck",
      "outputs": [],
      "stateMutability": "nonpayable",
      "type": "function"
    },
    {
      "inputs": [],
      "name": "investEnabled",
      "outputs": [
        {
          "internalType": "bool",
          "name": "",
          "type": "bool"
        }
      ],
      "stateMutability": "view",
      "type": "function"
    },
    {
      "inputs": [],
      "name": "manager",
      "outputs": [
        {
          "internalType": "contract IManager",
          "name": "",
          "type": "address"
        }
      ],
      "stateMutability": "view",
      "type": "function"
    },
    {
      "inputs": [],
      "name": "maxStrategies",
      "outputs": [
        {
          "internalType": "uint256",
          "name": "",
          "type": "uint256"
        }
      ],
      "stateMutability": "view",
      "type": "function"
    },
    {
      "inputs": [
        {
          "internalType": "address",
          "name": "_vault",
          "type": "address"
        },
        {
          "internalType": "address",
          "name": "_strategy",
          "type": "address"
        },
        {
          "internalType": "uint256",
          "name": "_timeout",
          "type": "uint256"
        }
      ],
      "name": "removeStrategy",
      "outputs": [],
      "stateMutability": "nonpayable",
      "type": "function"
    },
    {
      "inputs": [
        {
          "internalType": "address",
          "name": "_vault",
          "type": "address"
        },
        {
          "internalType": "address",
          "name": "_strategy1",
          "type": "address"
        },
        {
          "internalType": "address",
          "name": "_strategy2",
          "type": "address"
        }
      ],
      "name": "reorderStrategies",
      "outputs": [],
      "stateMutability": "nonpayable",
      "type": "function"
    },
    {
      "inputs": [
        {
          "internalType": "address",
          "name": "_vault",
          "type": "address"
        },
        {
          "internalType": "address",
          "name": "_strategy",
          "type": "address"
        },
        {
          "internalType": "uint256",
          "name": "_cap",
          "type": "uint256"
        },
        {
          "internalType": "address",
          "name": "_convert",
          "type": "address"
        }
      ],
      "name": "setCap",
      "outputs": [],
      "stateMutability": "nonpayable",
      "type": "function"
    },
    {
      "inputs": [
        {
          "internalType": "address",
          "name": "_vault",
          "type": "address"
        },
        {
          "internalType": "address",
          "name": "_converter",
          "type": "address"
        }
      ],
      "name": "setConverter",
      "outputs": [],
      "stateMutability": "nonpayable",
      "type": "function"
    },
    {
      "inputs": [
        {
          "internalType": "bool",
          "name": "_investEnabled",
          "type": "bool"
        }
      ],
      "name": "setInvestEnabled",
      "outputs": [],
      "stateMutability": "nonpayable",
      "type": "function"
    },
    {
      "inputs": [
        {
          "internalType": "uint256",
          "name": "_maxStrategies",
          "type": "uint256"
        }
      ],
      "name": "setMaxStrategies",
      "outputs": [],
      "stateMutability": "nonpayable",
      "type": "function"
    },
    {
      "inputs": [
        {
          "internalType": "address",
          "name": "_strategy",
          "type": "address"
        }
      ],
      "name": "skim",
      "outputs": [],
      "stateMutability": "nonpayable",
      "type": "function"
    },
    {
      "inputs": [
        {
          "internalType": "address",
          "name": "_vault",
          "type": "address"
        }
      ],
      "name": "strategies",
      "outputs": [
        {
          "internalType": "address[]",
          "name": "",
          "type": "address[]"
        }
      ],
      "stateMutability": "view",
      "type": "function"
    },
    {
      "inputs": [],
      "name": "strategies",
      "outputs": [
        {
          "internalType": "uint256",
          "name": "",
          "type": "uint256"
        }
      ],
      "stateMutability": "view",
      "type": "function"
    },
    {
      "inputs": [
        {
          "internalType": "address",
          "name": "_token",
          "type": "address"
        },
        {
          "internalType": "uint256",
          "name": "_amount",
          "type": "uint256"
        }
      ],
      "name": "withdraw",
      "outputs": [],
      "stateMutability": "nonpayable",
      "type": "function"
    },
    {
      "inputs": [
        {
          "internalType": "address",
          "name": "_strategy",
          "type": "address"
        },
        {
          "internalType": "address",
          "name": "_convert",
          "type": "address"
        }
      ],
      "name": "withdrawAll",
      "outputs": [],
      "stateMutability": "nonpayable",
      "type": "function"
    }
  ],
  "bytecode": "0x60a060405234801561001057600080fd5b50604051613ff7380380613ff78339818101604052602081101561003357600080fd5b50516001600160601b031960609190911b166080526000805460ff19166001908117909155600a905560805160601c613eca61012d6000398061052452806105f452806109f85280610ad65280610e6a5280610e8e5280610f4e528061102252806110e2528061132852806114c352806115835280611653528061186052806119ab5280611a6b5280611b3a5280611c0e5280611ce65280611ec45280611f845280612066528061212652806121f6528061268852806127c152806128cd528061299c5280612c655280612d255280612df45280612f015280612fd152806131d652806132a8528061335c52806139355250613eca6000f3fe608060405234801561001057600080fd5b506004361061014d5760003560e01c806376e2008d116100c3578063b23fa5621161007c578063b23fa56214610466578063bc25cf7714610494578063c6d758cb146104ba578063c79c21b7146104e6578063d9f9027f146104ee578063f3fef3a3146104f65761014d565b806376e2008d146103375780638c12f286146103735780638fc1ea1e146103ab57806392530a55146103ca57806395c2204614610406578063a8671c31146104345761014d565b8063481c6a7511610115578063481c6a751461028a5780634ff173d7146102ae5780636bb3722e146102cb5780636e0b4f901461030157806371f4f3fb14610327578063722713f71461032f5761014d565b806309cae2c814610152578063123e63d31461018257806319c494501461019e57806338e88610146101de57806339ebf82314610214575b600080fd5b6101806004803603604081101561016857600080fd5b506001600160a01b0381358116916020013516610522565b005b61018a6109bd565b604080519115158252519081900360200190f35b6101cc600480360360408110156101b457600080fd5b506001600160a01b03813581169160200135166109c6565b60408051918252519081900360200190f35b610180600480360360608110156101f457600080fd5b506001600160a01b038135811691602081013590911690604001356109f5565b61023a6004803603602081101561022a57600080fd5b50356001600160a01b0316610def565b60408051602080825283518183015283519192839290830191858101910280838360005b8381101561027657818101518382015260200161025e565b505050509050019250505060405180910390f35b610292610e68565b604080516001600160a01b039092168252519081900360200190f35b610180600480360360208110156102c457600080fd5b5035610e8c565b610180600480360360608110156102e157600080fd5b506001600160a01b03813581169160208101359091169060400135611020565b6102926004803603602081101561031757600080fd5b50356001600160a01b031661145e565b61018a61147c565b6101cc6114ab565b6101806004803603608081101561034d57600080fd5b506001600160a01b038135811691602081013590911690604081013590606001356114c1565b6101806004803603606081101561038957600080fd5b506001600160a01b0381358116916020810135821691604090910135166119a9565b610180600480360360208110156103c157600080fd5b50351515611ec2565b610180600480360360808110156103e057600080fd5b506001600160a01b03813581169160208101358216916040820135916060013516612064565b6101806004803603604081101561041c57600080fd5b506001600160a01b0381358116916020013516612686565b6101806004803603606081101561044a57600080fd5b506001600160a01b0381351690602081013590604001356128cb565b6101806004803603604081101561047c57600080fd5b506001600160a01b0381358116916020013516612c63565b610180600480360360208110156104aa57600080fd5b50356001600160a01b0316612eff565b610180600480360360408110156104d057600080fd5b506001600160a01b0381351690602001356131d4565b6101cc61333c565b6101cc613342565b6101806004803603604081101561050c57600080fd5b506001600160a01b038135169060200135613359565b7f00000000000000000000000000000000000000000000000000000000000000006001600160a01b0316631fe4a6866040518163ffffffff1660e01b815260040160206040518083038186803b15801561057b57600080fd5b505afa15801561058f573d6000803e3d6000fd5b505050506040513d60208110156105a557600080fd5b50516001600160a01b031633146105f1576040805162461bcd60e51b815260206004820152600b60248201526a085cdd1c985d1959da5cdd60aa1b604482015290519081900360640190fd5b817f00000000000000000000000000000000000000000000000000000000000000006001600160a01b0316637ae6c8d4826040518263ffffffff1660e01b815260040180826001600160a01b0316815260200191505060206040518083038186803b15801561065f57600080fd5b505afa158015610673573d6000803e3d6000fd5b505050506040513d602081101561068957600080fd5b50516106cf576040805162461bcd60e51b815260206004820152601060248201526f21616c6c6f776564537472617465677960801b604482015290519081900360640190fd5b6000836001600160a01b0316631f1fcd516040518163ffffffff1660e01b815260040160206040518083038186803b15801561070a57600080fd5b505afa15801561071e573d6000803e3d6000fd5b505050506040513d602081101561073457600080fd5b50516040805163429c145b60e11b815290519192506001600160a01b0386169163853828b69160048082019260009290919082900301818387803b15801561077b57600080fd5b505af115801561078f573d6000803e3d6000fd5b505050506000816001600160a01b03166370a08231306040518263ffffffff1660e01b815260040180826001600160a01b0316815260200191505060206040518083038186803b1580156107e257600080fd5b505afa1580156107f6573d6000803e3d6000fd5b505050506040513d602081101561080c57600080fd5b50516001600160a01b03808716600090815260036020526040902054919250166108368187613789565b6001600160a01b03851615610919576001600160a01b0380821660009081526002602052604090205481169061086f908516828561381e565b604080516375892cf160e01b81526001600160a01b038681166004830152888116602483015260448201869052600160648301529151918316916375892cf1916084808201926020929091908290030181600087803b1580156108d157600080fd5b505af11580156108e5573d6000803e3d6000fd5b505050506040513d60208110156108fb57600080fd5b505192506109136001600160a01b038716838561381e565b5061092d565b61092d6001600160a01b038416828461381e565b6001600160a01b038116600090815260026020526040902060010154828110610997576001600160a01b0382166000908152600260205260409020600101546109769084613870565b6001600160a01b0383166000908152600260205260409020600101556109b4565b6001600160a01b0382166000908152600260205260408120600101555b50505050505050565b60005460ff1681565b6001600160a01b0391821660009081526002602090815260408083209390941682526005909201909152205490565b827f00000000000000000000000000000000000000000000000000000000000000006001600160a01b0316637ae6c8d4826040518263ffffffff1660e01b815260040180826001600160a01b0316815260200191505060206040518083038186803b158015610a6357600080fd5b505afa158015610a77573d6000803e3d6000fd5b505050506040513d6020811015610a8d57600080fd5b5051610ad3576040805162461bcd60e51b815260206004820152601060248201526f21616c6c6f776564537472617465677960801b604482015290519081900360640190fd5b827f00000000000000000000000000000000000000000000000000000000000000006001600160a01b031663a622ee7c826040518263ffffffff1660e01b815260040180826001600160a01b0316815260200191505060206040518083038186803b158015610b4157600080fd5b505afa158015610b55573d6000803e3d6000fd5b505050506040513d6020811015610b6b57600080fd5b50516001600160a01b03163314610bb2576040805162461bcd60e51b8152602060048201526006602482015265085d985d5b1d60d21b604482015290519081900360640190fd5b6000856001600160a01b0316631f1fcd516040518163ffffffff1660e01b815260040160206040518083038186803b158015610bed57600080fd5b505afa158015610c01573d6000803e3d6000fd5b505050506040513d6020811015610c1757600080fd5b505190506001600160a01b0380821690861614610d0157336000908152600260205260409020546001600160a01b0390811690610c57908716828761381e565b604080516375892cf160e01b81526001600160a01b038881166004830152848116602483015260448201889052600160648301529151918316916375892cf1916084808201926020929091908290030181600087803b158015610cb957600080fd5b505af1158015610ccd573d6000803e3d6000fd5b505050506040513d6020811015610ce357600080fd5b50519450610cfb6001600160a01b038316888761381e565b50610d15565b610d156001600160a01b038616878661381e565b33600090815260026020526040902060010154610d3290856138cd565b33600090815260026020526040808220600101929092558151630d0e30db60e41b815291516001600160a01b0389169263d0e30db092600480830193919282900301818387803b158015610d8557600080fd5b505af1158015610d99573d6000803e3d6000fd5b50505050610da73387613789565b856001600160a01b0316856001600160a01b03167f4a3db5ade61000fa57b36b688adc110f1b90af911256996dc89a52dcacd67ecd60405160405180910390a3505050505050565b6001600160a01b038116600090815260026020818152604092839020909101805483518184028101840190945280845260609392830182828015610e5c57602002820191906000526020600020905b81546001600160a01b03168152600190910190602001808311610e3e575b50505050509050919050565b7f000000000000000000000000000000000000000000000000000000000000000081565b7f00000000000000000000000000000000000000000000000000000000000000006001600160a01b031663b9b8af0b6040518163ffffffff1660e01b815260040160206040518083038186803b158015610ee557600080fd5b505afa158015610ef9573d6000803e3d6000fd5b505050506040513d6020811015610f0f57600080fd5b505115610f4c576040805162461bcd60e51b81526020600482015260066024820152651a185b1d195960d21b604482015290519081900360640190fd5b7f00000000000000000000000000000000000000000000000000000000000000006001600160a01b0316631fe4a6866040518163ffffffff1660e01b815260040160206040518083038186803b158015610fa557600080fd5b505afa158015610fb9573d6000803e3d6000fd5b505050506040513d6020811015610fcf57600080fd5b50516001600160a01b0316331461101b576040805162461bcd60e51b815260206004820152600b60248201526a085cdd1c985d1959da5cdd60aa1b604482015290519081900360640190fd5b600155565b7f00000000000000000000000000000000000000000000000000000000000000006001600160a01b031663b9b8af0b6040518163ffffffff1660e01b815260040160206040518083038186803b15801561107957600080fd5b505afa15801561108d573d6000803e3d6000fd5b505050506040513d60208110156110a357600080fd5b5051156110e0576040805162461bcd60e51b81526020600482015260066024820152651a185b1d195960d21b604482015290519081900360640190fd5b7f00000000000000000000000000000000000000000000000000000000000000006001600160a01b0316631fe4a6866040518163ffffffff1660e01b815260040160206040518083038186803b15801561113957600080fd5b505afa15801561114d573d6000803e3d6000fd5b505050506040513d602081101561116357600080fd5b50516001600160a01b031633146111af576040805162461bcd60e51b815260206004820152600b60248201526a085cdd1c985d1959da5cdd60aa1b604482015290519081900360640190fd5b6001600160a01b038084166000908152600260208181526040808420948716845260048501909152822054908301549091906111ec906001613870565b905060008360020182815481106111ff57fe5b6000918252602090912001546002850180546001600160a01b03909216925082918590811061122a57fe5b600091825260208083209190910180546001600160a01b0319166001600160a01b03948516179055918316815260048601909152604090208390556002840180548061127257fe5b60008281526020808220830160001990810180546001600160a01b031990811690915593019093556001600160a01b03891680825260048089018552604080842084905560058a0186528084208490556003808b0187528185208590559095528483208054909416909355835163429c145b60e11b81529351909363853828b69381810193929182900301818387803b15801561130e57600080fd5b505af1158015611322573d6000803e3d6000fd5b505050507f00000000000000000000000000000000000000000000000000000000000000006001600160a01b0316634bdaeac16040518163ffffffff1660e01b815260040160206040518083038186803b15801561137f57600080fd5b505afa158015611393573d6000803e3d6000fd5b505050506040513d60208110156113a957600080fd5b5051604080516335d9b91760e11b81526001600160a01b038a8116600483015289811660248301526044820189905291519190921691636bb3722e91606480830192600092919082900301818387803b15801561140557600080fd5b505af1158015611419573d6000803e3d6000fd5b50506040516001600160a01b03808a1693508a1691507f64a0e13af5f4bc5a68b1b79d9ff6e775f93e814ee8b0c97d620520190d04bae290600090a350505050505050565b6001600160a01b039081166000908152600260205260409020541690565b6000805460ff16156114a45750336000908152600260208190526040909120015415156114a8565b5060005b90565b3360009081526002602052604090206001015490565b7f00000000000000000000000000000000000000000000000000000000000000006001600160a01b031663b9b8af0b6040518163ffffffff1660e01b815260040160206040518083038186803b15801561151a57600080fd5b505afa15801561152e573d6000803e3d6000fd5b505050506040513d602081101561154457600080fd5b505115611581576040805162461bcd60e51b81526020600482015260066024820152651a185b1d195960d21b604482015290519081900360640190fd5b7f00000000000000000000000000000000000000000000000000000000000000006001600160a01b0316631fe4a6866040518163ffffffff1660e01b815260040160206040518083038186803b1580156115da57600080fd5b505afa1580156115ee573d6000803e3d6000fd5b505050506040513d602081101561160457600080fd5b50516001600160a01b03163314611650576040805162461bcd60e51b815260206004820152600b60248201526a085cdd1c985d1959da5cdd60aa1b604482015290519081900360640190fd5b827f00000000000000000000000000000000000000000000000000000000000000006001600160a01b0316637ae6c8d4826040518263ffffffff1660e01b815260040180826001600160a01b0316815260200191505060206040518083038186803b1580156116be57600080fd5b505afa1580156116d2573d6000803e3d6000fd5b505050506040513d60208110156116e857600080fd5b505161172e576040805162461bcd60e51b815260206004820152601060248201526f21616c6c6f776564537472617465677960801b604482015290519081900360640190fd5b6001600160a01b0385811660009081526002602052604090205416611787576040805162461bcd60e51b815260206004820152600a60248201526910b1b7b73b32b93a32b960b11b604482015290519081900360640190fd5b6001600160a01b0385166000908152600260208190526040909120015460015481106117eb576040805162461bcd60e51b815260206004820152600e60248201526d216d61785374726174656769657360901b604482015290519081900360640190fd5b6001600160a01b0386811660008181526002602081815260408084209283018054600181018255908552828520018054968c166001600160a01b0319978816811790915584526005830182528084208a90556004909201815281832086905560039052902080549092161790558215611956577f00000000000000000000000000000000000000000000000000000000000000006001600160a01b0316634bdaeac16040518163ffffffff1660e01b815260040160206040518083038186803b1580156118b757600080fd5b505afa1580156118cb573d6000803e3d6000fd5b505050506040513d60208110156118e157600080fd5b505160408051634b704acd60e01b81526001600160a01b03898116600483015288811660248301526044820187905291519190921691634b704acd91606480830192600092919082900301818387803b15801561193d57600080fd5b505af1158015611951573d6000803e3d6000fd5b505050505b846001600160a01b0316866001600160a01b03167fc2008aa15e9b0989ec7ae02bc3d8054428c527c989269ffb2a5bff829028a012866040518082815260200191505060405180910390a3505050505050565b7f00000000000000000000000000000000000000000000000000000000000000006001600160a01b031663b9b8af0b6040518163ffffffff1660e01b815260040160206040518083038186803b158015611a0257600080fd5b505afa158015611a16573d6000803e3d6000fd5b505050506040513d6020811015611a2c57600080fd5b505115611a69576040805162461bcd60e51b81526020600482015260066024820152651a185b1d195960d21b604482015290519081900360640190fd5b7f00000000000000000000000000000000000000000000000000000000000000006001600160a01b0316631fe4a6866040518163ffffffff1660e01b815260040160206040518083038186803b158015611ac257600080fd5b505afa158015611ad6573d6000803e3d6000fd5b505050506040513d6020811015611aec57600080fd5b50516001600160a01b03163314611b38576040805162461bcd60e51b815260206004820152600b60248201526a085cdd1c985d1959da5cdd60aa1b604482015290519081900360640190fd5b7f00000000000000000000000000000000000000000000000000000000000000006001600160a01b031663e8d76bce846040518263ffffffff1660e01b815260040180826001600160a01b0316815260200191505060206040518083038186803b158015611ba557600080fd5b505afa158015611bb9573d6000803e3d6000fd5b505050506040513d6020811015611bcf57600080fd5b5051611c0c576040805162461bcd60e51b81526020600482015260076024820152660857dd985d5b1d60ca1b604482015290519081900360640190fd5b7f00000000000000000000000000000000000000000000000000000000000000006001600160a01b0316637ae6c8d4836040518263ffffffff1660e01b815260040180826001600160a01b0316815260200191505060206040518083038186803b158015611c7957600080fd5b505afa158015611c8d573d6000803e3d6000fd5b505050506040513d6020811015611ca357600080fd5b5051611ce4576040805162461bcd60e51b815260206004820152600b60248201526a215f73747261746567793160a81b604482015290519081900360640190fd5b7f00000000000000000000000000000000000000000000000000000000000000006001600160a01b0316637ae6c8d4826040518263ffffffff1660e01b815260040180826001600160a01b0316815260200191505060206040518083038186803b158015611d5157600080fd5b505afa158015611d65573d6000803e3d6000fd5b505050506040513d6020811015611d7b57600080fd5b5051611dbc576040805162461bcd60e51b815260206004820152600b60248201526a10afb9ba3930ba32b3bc9960a91b604482015290519081900360640190fd5b6001600160a01b03808416600090815260026020818152604080842087861685526004810190925280842054948616845290922054908201805492939285919084908110611e0657fe5b9060005260206000200160006101000a8154816001600160a01b0302191690836001600160a01b0316021790555084836002018281548110611e4457fe5b600091825260208083209190910180546001600160a01b0319166001600160a01b03948516179055878316808352600487019091526040808320859055878416808452818420879055905190939192918a16917ffea1ac549b0e10ecbe67c9d07de370cb3976ed51ef1fd559cf7472021417467891a4505050505050565b7f00000000000000000000000000000000000000000000000000000000000000006001600160a01b031663b9b8af0b6040518163ffffffff1660e01b815260040160206040518083038186803b158015611f1b57600080fd5b505afa158015611f2f573d6000803e3d6000fd5b505050506040513d6020811015611f4557600080fd5b505115611f82576040805162461bcd60e51b81526020600482015260066024820152651a185b1d195960d21b604482015290519081900360640190fd5b7f00000000000000000000000000000000000000000000000000000000000000006001600160a01b0316631fe4a6866040518163ffffffff1660e01b815260040160206040518083038186803b158015611fdb57600080fd5b505afa158015611fef573d6000803e3d6000fd5b505050506040513d602081101561200557600080fd5b50516001600160a01b03163314612051576040805162461bcd60e51b815260206004820152600b60248201526a085cdd1c985d1959da5cdd60aa1b604482015290519081900360640190fd5b6000805460ff1916911515919091179055565b7f00000000000000000000000000000000000000000000000000000000000000006001600160a01b031663b9b8af0b6040518163ffffffff1660e01b815260040160206040518083038186803b1580156120bd57600080fd5b505afa1580156120d1573d6000803e3d6000fd5b505050506040513d60208110156120e757600080fd5b505115612124576040805162461bcd60e51b81526020600482015260066024820152651a185b1d195960d21b604482015290519081900360640190fd5b7f00000000000000000000000000000000000000000000000000000000000000006001600160a01b0316631fe4a6866040518163ffffffff1660e01b815260040160206040518083038186803b15801561217d57600080fd5b505afa158015612191573d6000803e3d6000fd5b505050506040513d60208110156121a757600080fd5b50516001600160a01b031633146121f3576040805162461bcd60e51b815260206004820152600b60248201526a085cdd1c985d1959da5cdd60aa1b604482015290519081900360640190fd5b827f00000000000000000000000000000000000000000000000000000000000000006001600160a01b0316637ae6c8d4826040518263ffffffff1660e01b815260040180826001600160a01b0316815260200191505060206040518083038186803b15801561226157600080fd5b505afa158015612275573d6000803e3d6000fd5b505050506040513d602081101561228b57600080fd5b50516122d1576040805162461bcd60e51b815260206004820152601060248201526f21616c6c6f776564537472617465677960801b604482015290519081900360640190fd5b6001600160a01b03808616600090815260026020908152604080832093881680845260059094018252808320879055805163722713f760e01b8152905192939263722713f792600480840193919291829003018186803b15801561233457600080fd5b505afa158015612348573d6000803e3d6000fd5b505050506040513d602081101561235e57600080fd5b50519050838111801561237057508315155b1561267e5760006123818286613870565b9050856001600160a01b0316632e1a7d4d826040518263ffffffff1660e01b815260040180828152602001915050600060405180830381600087803b1580156123c957600080fd5b505af11580156123dd573d6000803e3d6000fd5b505050506123eb8787613789565b856001600160a01b031663722713f76040518163ffffffff1660e01b815260040160206040518083038186803b15801561242457600080fd5b505afa158015612438573d6000803e3d6000fd5b505050506040513d602081101561244e57600080fd5b50516001600160a01b0388166000908152600260205260409020600101549092506124799082613870565b60026000896001600160a01b03166001600160a01b03168152602001908152602001600020600101819055506000866001600160a01b0316631f1fcd516040518163ffffffff1660e01b815260040160206040518083038186803b1580156124e057600080fd5b505afa1580156124f4573d6000803e3d6000fd5b505050506040513d602081101561250a57600080fd5b5051604080516370a0823160e01b815230600482015290519192506001600160a01b038316916370a0823191602480820192602092909190829003018186803b15801561255657600080fd5b505afa15801561256a573d6000803e3d6000fd5b505050506040513d602081101561258057600080fd5b505192506001600160a01b03851615612667576001600160a01b038089166000908152600260205260409020548116906125bd908316828661381e565b604080516375892cf160e01b81526001600160a01b038481166004830152888116602483015260448201879052600160648301529151918316916375892cf1916084808201926020929091908290030181600087803b15801561261f57600080fd5b505af1158015612633573d6000803e3d6000fd5b505050506040513d602081101561264957600080fd5b505193506126616001600160a01b0387168a8661381e565b5061267b565b61267b6001600160a01b038216898561381e565b50505b505050505050565b7f00000000000000000000000000000000000000000000000000000000000000006001600160a01b0316631fe4a6866040518163ffffffff1660e01b815260040160206040518083038186803b1580156126df57600080fd5b505afa1580156126f3573d6000803e3d6000fd5b505050506040513d602081101561270957600080fd5b50516001600160a01b03163314612755576040805162461bcd60e51b815260206004820152600b60248201526a085cdd1c985d1959da5cdd60aa1b604482015290519081900360640190fd5b816001600160a01b03166351cff8d9826040518263ffffffff1660e01b815260040180826001600160a01b03168152602001915050600060405180830381600087803b1580156127a457600080fd5b505af11580156127b8573d6000803e3d6000fd5b505050506128c77f00000000000000000000000000000000000000000000000000000000000000006001600160a01b03166361d027b36040518163ffffffff1660e01b815260040160206040518083038186803b15801561281857600080fd5b505afa15801561282c573d6000803e3d6000fd5b505050506040513d602081101561284257600080fd5b5051604080516370a0823160e01b815230600482015290516001600160a01b038516916370a08231916024808301926020929190829003018186803b15801561288a57600080fd5b505afa15801561289e573d6000803e3d6000fd5b505050506040513d60208110156128b457600080fd5b50516001600160a01b038416919061381e565b5050565b7f00000000000000000000000000000000000000000000000000000000000000006001600160a01b0316634bdaeac16040518163ffffffff1660e01b815260040160206040518083038186803b15801561292457600080fd5b505afa158015612938573d6000803e3d6000fd5b505050506040513d602081101561294e57600080fd5b50516001600160a01b03163314612999576040805162461bcd60e51b815260206004820152600a60248201526910b430b93b32b9ba32b960b11b604482015290519081900360640190fd5b827f00000000000000000000000000000000000000000000000000000000000000006001600160a01b0316637ae6c8d4826040518263ffffffff1660e01b815260040180826001600160a01b0316815260200191505060206040518083038186803b158015612a0757600080fd5b505afa158015612a1b573d6000803e3d6000fd5b505050506040513d6020811015612a3157600080fd5b5051612a77576040805162461bcd60e51b815260206004820152601060248201526f21616c6c6f776564537472617465677960801b604482015290519081900360640190fd5b6000846001600160a01b031663722713f76040518163ffffffff1660e01b815260040160206040518083038186803b158015612ab257600080fd5b505afa158015612ac6573d6000803e3d6000fd5b505050506040513d6020811015612adc57600080fd5b50516040805163e4a4b7b160e01b8152600481018790526024810186905290519192506001600160a01b0387169163e4a4b7b19160448082019260009290919082900301818387803b158015612b3157600080fd5b505af1158015612b45573d6000803e3d6000fd5b505050506000856001600160a01b031663722713f76040518163ffffffff1660e01b815260040160206040518083038186803b158015612b8457600080fd5b505afa158015612b98573d6000803e3d6000fd5b505050506040513d6020811015612bae57600080fd5b50516001600160a01b0380881660009081526003602052604090205491925016612bfd612bdb8385613870565b6001600160a01b038316600090815260026020526040902060010154906138cd565b6001600160a01b0380831660009081526002602090815260408083206001810195909555928b168083526003909401905281812085905590517f188a622567eeca997c3d494fd65f76ca910b90a50a0c44d5e37b2ea5539e027b9190a250505050505050565b7f00000000000000000000000000000000000000000000000000000000000000006001600160a01b031663b9b8af0b6040518163ffffffff1660e01b815260040160206040518083038186803b158015612cbc57600080fd5b505afa158015612cd0573d6000803e3d6000fd5b505050506040513d6020811015612ce657600080fd5b505115612d23576040805162461bcd60e51b81526020600482015260066024820152651a185b1d195960d21b604482015290519081900360640190fd5b7f00000000000000000000000000000000000000000000000000000000000000006001600160a01b0316631fe4a6866040518163ffffffff1660e01b815260040160206040518083038186803b158015612d7c57600080fd5b505afa158015612d90573d6000803e3d6000fd5b505050506040513d6020811015612da657600080fd5b50516001600160a01b03163314612df2576040805162461bcd60e51b815260206004820152600b60248201526a085cdd1c985d1959da5cdd60aa1b604482015290519081900360640190fd5b7f00000000000000000000000000000000000000000000000000000000000000006001600160a01b03166383649674826040518263ffffffff1660e01b815260040180826001600160a01b0316815260200191505060206040518083038186803b158015612e5f57600080fd5b505afa158015612e73573d6000803e3d6000fd5b505050506040513d6020811015612e8957600080fd5b5051612ed1576040805162461bcd60e51b815260206004820152601260248201527121616c6c6f776564436f6e7665727465727360701b604482015290519081900360640190fd5b6001600160a01b03918216600090815260026020526040902080546001600160a01b03191691909216179055565b7f00000000000000000000000000000000000000000000000000000000000000006001600160a01b0316631fe4a6866040518163ffffffff1660e01b815260040160206040518083038186803b158015612f5857600080fd5b505afa158015612f6c573d6000803e3d6000fd5b505050506040513d6020811015612f8257600080fd5b50516001600160a01b03163314612fce576040805162461bcd60e51b815260206004820152600b60248201526a085cdd1c985d1959da5cdd60aa1b604482015290519081900360640190fd5b807f00000000000000000000000000000000000000000000000000000000000000006001600160a01b0316637ae6c8d4826040518263ffffffff1660e01b815260040180826001600160a01b0316815260200191505060206040518083038186803b15801561303c57600080fd5b505afa158015613050573d6000803e3d6000fd5b505050506040513d602081101561306657600080fd5b50516130ac576040805162461bcd60e51b815260206004820152601060248201526f21616c6c6f776564537472617465677960801b604482015290519081900360640190fd5b6000826001600160a01b0316631f1fcd516040518163ffffffff1660e01b815260040160206040518083038186803b1580156130e757600080fd5b505afa1580156130fb573d6000803e3d6000fd5b505050506040513d602081101561311157600080fd5b505160408051630774672d60e21b815290519192506001600160a01b03851691631dd19cb49160048082019260009290919082900301818387803b15801561315857600080fd5b505af115801561316c573d6000803e3d6000fd5b5050506001600160a01b038085166000908152600360209081526040918290205482516370a0823160e01b815230600482015292516131cf9550908416938616926370a08231926024808301939192829003018186803b15801561288a57600080fd5b505050565b7f00000000000000000000000000000000000000000000000000000000000000006001600160a01b0316631fe4a6866040518163ffffffff1660e01b815260040160206040518083038186803b15801561322d57600080fd5b505afa158015613241573d6000803e3d6000fd5b505050506040513d602081101561325757600080fd5b50516001600160a01b031633146132a3576040805162461bcd60e51b815260206004820152600b60248201526a085cdd1c985d1959da5cdd60aa1b604482015290519081900360640190fd5b6128c77f00000000000000000000000000000000000000000000000000000000000000006001600160a01b03166361d027b36040518163ffffffff1660e01b815260040160206040518083038186803b1580156132ff57600080fd5b505afa158015613313573d6000803e3d6000fd5b505050506040513d602081101561332957600080fd5b50516001600160a01b038416908361381e565b60015481565b336000908152600260208190526040909120015490565b817f00000000000000000000000000000000000000000000000000000000000000006001600160a01b031663a622ee7c826040518263ffffffff1660e01b815260040180826001600160a01b0316815260200191505060206040518083038186803b1580156133c757600080fd5b505afa1580156133db573d6000803e3d6000fd5b505050506040513d60208110156133f157600080fd5b50516001600160a01b03163314613438576040805162461bcd60e51b8152602060048201526006602482015265085d985d5b1d60d21b604482015290519081900360640190fd5b606080613445858561392e565b9150915060005b82518110156136c45760006001600160a01b031683828151811061346c57fe5b60200260200101516001600160a01b03161415613488576136c4565b82818151811061349457fe5b60200260200101516001600160a01b0316632e1a7d4d8383815181106134b657fe5b60200260200101516040518263ffffffff1660e01b815260040180828152602001915050600060405180830381600087803b1580156134f457600080fd5b505af1158015613508573d6000803e3d6000fd5b505050506135293384838151811061351c57fe5b6020026020010151613789565b600083828151811061353757fe5b60200260200101516001600160a01b0316631f1fcd516040518163ffffffff1660e01b815260040160206040518083038186803b15801561357757600080fd5b505afa15801561358b573d6000803e3d6000fd5b505050506040513d60208110156135a157600080fd5b505190506001600160a01b03808216908816146136bb573360009081526002602052604090205483516001600160a01b03909116906136099082908690869081106135e857fe5b6020026020010151846001600160a01b031661381e9092919063ffffffff16565b806001600160a01b03166375892cf1838a87878151811061362657fe5b602002602001015160016040518563ffffffff1660e01b815260040180856001600160a01b03168152602001846001600160a01b03168152602001838152602001828152602001945050505050602060405180830381600087803b15801561368d57600080fd5b505af11580156136a1573d6000803e3d6000fd5b505050506040513d60208110156136b757600080fd5b5050505b5060010161344c565b50604080516370a0823160e01b815230600482015290516001600160a01b038716916370a08231916024808301926020929190829003018186803b15801561370b57600080fd5b505afa15801561371f573d6000803e3d6000fd5b505050506040513d602081101561373557600080fd5b5051336000908152600260205260409020600101549094506137579085613870565b33600081815260026020526040902060010191909155613782906001600160a01b038716908661381e565b5050505050565b806001600160a01b031663722713f76040518163ffffffff1660e01b815260040160206040518083038186803b1580156137c257600080fd5b505afa1580156137d6573d6000803e3d6000fd5b505050506040513d60208110156137ec57600080fd5b50516001600160a01b039283166000908152600260209081526040808320949095168252600390930190925291902055565b604080516001600160a01b038416602482015260448082018490528251808303909101815260649091019091526020810180516001600160e01b031663a9059cbb60e01b1790526131cf908490613b76565b6000828211156138c7576040805162461bcd60e51b815260206004820152601e60248201527f536166654d6174683a207375627472616374696f6e206f766572666c6f770000604482015290519081900360640190fd5b50900390565b600082820183811015613927576040805162461bcd60e51b815260206004820152601b60248201527f536166654d6174683a206164646974696f6e206f766572666c6f770000000000604482015290519081900360640190fd5b9392505050565b60608060007f00000000000000000000000000000000000000000000000000000000000000006001600160a01b031663a622ee7c866040518263ffffffff1660e01b815260040180826001600160a01b0316815260200191505060206040518083038186803b1580156139a057600080fd5b505afa1580156139b4573d6000803e3d6000fd5b505050506040513d60208110156139ca57600080fd5b50516001600160a01b038116600090815260026020819052604090912001549091508067ffffffffffffffff81118015613a0357600080fd5b50604051908082528060200260200182016040528015613a2d578160200160208202803683370190505b5093508067ffffffffffffffff81118015613a4757600080fd5b50604051908082528060200260200182016040528015613a71578160200160208202803683370190505b50925060008060005b83811015613b6a576001600160a01b038516600090815260026020819052604090912001805482908110613aaa57fe5b9060005260206000200160009054906101000a90046001600160a01b0316925082878281518110613ad757fe5b6001600160a01b039283166020918202929092018101919091528682166000908152600282526040808220938716825260039093019091522054915087821015613b445781868281518110613b2857fe5b6020908102919091010152613b3d8883613870565b9750613b62565b87868281518110613b5157fe5b602002602001018181525050613b6a565b600101613a7a565b50505050509250929050565b6060613bcb826040518060400160405280602081526020017f5361666545524332303a206c6f772d6c6576656c2063616c6c206661696c6564815250856001600160a01b0316613c279092919063ffffffff16565b8051909150156131cf57808060200190516020811015613bea57600080fd5b50516131cf5760405162461bcd60e51b815260040180806020018281038252602a815260200180613e6b602a913960400191505060405180910390fd5b6060613c368484600085613c3e565b949350505050565b606082471015613c7f5760405162461bcd60e51b8152600401808060200182810382526026815260200180613e456026913960400191505060405180910390fd5b613c8885613d9a565b613cd9576040805162461bcd60e51b815260206004820152601d60248201527f416464726573733a2063616c6c20746f206e6f6e2d636f6e7472616374000000604482015290519081900360640190fd5b60006060866001600160a01b031685876040518082805190602001908083835b60208310613d185780518252601f199092019160209182019101613cf9565b6001836020036101000a03801982511681845116808217855250505050505090500191505060006040518083038185875af1925050503d8060008114613d7a576040519150601f19603f3d011682016040523d82523d6000602084013e613d7f565b606091505b5091509150613d8f828286613da0565b979650505050505050565b3b151590565b60608315613daf575081613927565b825115613dbf5782518084602001fd5b8160405162461bcd60e51b81526004018080602001828103825283818151815260200191508051906020019080838360005b83811015613e09578181015183820152602001613df1565b50505050905090810190601f168015613e365780820380516001836020036101000a031916815260200191505b509250505060405180910390fdfe416464726573733a20696e73756666696369656e742062616c616e636520666f722063616c6c5361666545524332303a204552433230206f7065726174696f6e20646964206e6f742073756363656564a2646970667358221220cd175f25283445f50cf51b9fa58867702a0f81670dbee1e2047feb3ab5df4e4d64736f6c634300060c0033",
  "linkReferences": {},
  "deployedLinkReferences": {}
}