{
  "_format": "hh-sol-artifact-1",
  "contractName": "MockPickleJar",
  "sourceName": "contracts/mock/MockPickleJar.sol",
  "abi": [
    {
      "inputs": [
        {
          "internalType": "contract IERC20",
          "name": "_t3crv",
          "type": "address"
        }
      ],
      "stateMutability": "nonpayable",
      "type": "constructor"
    },
    {
      "anonymous": false,
      "inputs": [
        {
          "indexed": true,
          "internalType": "address",
          "name": "src",
          "type": "address"
        },
        {
          "indexed": true,
          "internalType": "address",
          "name": "dst",
          "type": "address"
        },
        {
          "indexed": false,
          "internalType": "uint256",
          "name": "amt",
          "type": "uint256"
        }
      ],
      "name": "Approval",
      "type": "event"
    },
    {
      "anonymous": false,
      "inputs": [
        {
          "indexed": true,
          "internalType": "address",
          "name": "src",
          "type": "address"
        },
        {
          "indexed": true,
          "internalType": "address",
          "name": "dst",
          "type": "address"
        },
        {
          "indexed": false,
          "internalType": "uint256",
          "name": "amt",
          "type": "uint256"
        }
      ],
      "name": "Transfer",
      "type": "event"
    },
    {
      "inputs": [
        {
          "internalType": "address",
          "name": "src",
          "type": "address"
        },
        {
          "internalType": "address",
          "name": "dst",
          "type": "address"
        }
      ],
      "name": "allowance",
      "outputs": [
        {
          "internalType": "uint256",
          "name": "",
          "type": "uint256"
        }
      ],
      "stateMutability": "view",
      "type": "function"
    },
    {
      "inputs": [
        {
          "internalType": "address",
          "name": "dst",
          "type": "address"
        },
        {
          "internalType": "uint256",
          "name": "amt",
          "type": "uint256"
        }
      ],
      "name": "approve",
      "outputs": [
        {
          "internalType": "bool",
          "name": "",
          "type": "bool"
        }
      ],
      "stateMutability": "nonpayable",
      "type": "function"
    },
    {
      "inputs": [],
      "name": "available",
      "outputs": [
        {
          "internalType": "uint256",
          "name": "",
          "type": "uint256"
        }
      ],
      "stateMutability": "view",
      "type": "function"
    },
    {
      "inputs": [],
      "name": "balance",
      "outputs": [
        {
          "internalType": "uint256",
          "name": "",
          "type": "uint256"
        }
      ],
      "stateMutability": "view",
      "type": "function"
    },
    {
      "inputs": [
        {
          "internalType": "address",
          "name": "whom",
          "type": "address"
        }
      ],
      "name": "balanceOf",
      "outputs": [
        {
          "internalType": "uint256",
          "name": "",
          "type": "uint256"
        }
      ],
      "stateMutability": "view",
      "type": "function"
    },
    {
      "inputs": [
        {
          "internalType": "uint256",
          "name": "amt",
          "type": "uint256"
        }
      ],
      "name": "burn",
      "outputs": [
        {
          "internalType": "bool",
          "name": "",
          "type": "bool"
        }
      ],
      "stateMutability": "nonpayable",
      "type": "function"
    },
    {
      "inputs": [
        {
          "internalType": "address",
          "name": "src",
          "type": "address"
        },
        {
          "internalType": "uint256",
          "name": "amt",
          "type": "uint256"
        }
      ],
      "name": "burnFrom",
      "outputs": [
        {
          "internalType": "bool",
          "name": "",
          "type": "bool"
        }
      ],
      "stateMutability": "nonpayable",
      "type": "function"
    },
    {
      "inputs": [],
      "name": "decimals",
      "outputs": [
        {
          "internalType": "uint8",
          "name": "",
          "type": "uint8"
        }
      ],
      "stateMutability": "view",
      "type": "function"
    },
    {
      "inputs": [
        {
          "internalType": "uint256",
          "name": "_amount",
          "type": "uint256"
        }
      ],
      "name": "deposit",
      "outputs": [],
      "stateMutability": "nonpayable",
      "type": "function"
    },
    {
      "inputs": [],
      "name": "depositAll",
      "outputs": [],
      "stateMutability": "nonpayable",
      "type": "function"
    },
    {
      "inputs": [
        {
          "internalType": "uint256",
          "name": "amt",
          "type": "uint256"
        }
      ],
      "name": "faucet",
      "outputs": [
        {
          "internalType": "bool",
          "name": "",
          "type": "bool"
        }
      ],
      "stateMutability": "nonpayable",
      "type": "function"
    },
    {
      "inputs": [],
      "name": "getRatio",
      "outputs": [
        {
          "internalType": "uint256",
          "name": "",
          "type": "uint256"
        }
      ],
      "stateMutability": "pure",
      "type": "function"
    },
    {
      "inputs": [],
      "name": "lpToken",
      "outputs": [
        {
          "internalType": "contract IERC20",
          "name": "",
          "type": "address"
        }
      ],
      "stateMutability": "view",
      "type": "function"
    },
    {
      "inputs": [
        {
          "internalType": "address",
          "name": "dst",
          "type": "address"
        },
        {
          "internalType": "uint256",
          "name": "amt",
          "type": "uint256"
        }
      ],
      "name": "mint",
      "outputs": [
        {
          "internalType": "bool",
          "name": "",
          "type": "bool"
        }
      ],
      "stateMutability": "nonpayable",
      "type": "function"
    },
    {
      "inputs": [],
      "name": "name",
      "outputs": [
        {
          "internalType": "string",
          "name": "",
          "type": "string"
        }
      ],
      "stateMutability": "view",
      "type": "function"
    },
    {
      "inputs": [],
      "name": "symbol",
      "outputs": [
        {
          "internalType": "string",
          "name": "",
          "type": "string"
        }
      ],
      "stateMutability": "view",
      "type": "function"
    },
    {
      "inputs": [],
      "name": "t3crv",
      "outputs": [
        {
          "internalType": "contract IERC20",
          "name": "",
          "type": "address"
        }
      ],
      "stateMutability": "view",
      "type": "function"
    },
    {
      "inputs": [],
      "name": "totalSupply",
      "outputs": [
        {
          "internalType": "uint256",
          "name": "",
          "type": "uint256"
        }
      ],
      "stateMutability": "view",
      "type": "function"
    },
    {
      "inputs": [
        {
          "internalType": "address",
          "name": "dst",
          "type": "address"
        },
        {
          "internalType": "uint256",
          "name": "amt",
          "type": "uint256"
        }
      ],
      "name": "transfer",
      "outputs": [
        {
          "internalType": "bool",
          "name": "",
          "type": "bool"
        }
      ],
      "stateMutability": "nonpayable",
      "type": "function"
    },
    {
      "inputs": [
        {
          "internalType": "address",
          "name": "src",
          "type": "address"
        },
        {
          "internalType": "address",
          "name": "dst",
          "type": "address"
        },
        {
          "internalType": "uint256",
          "name": "amt",
          "type": "uint256"
        }
      ],
      "name": "transferFrom",
      "outputs": [
        {
          "internalType": "bool",
          "name": "",
          "type": "bool"
        }
      ],
      "stateMutability": "nonpayable",
      "type": "function"
    },
    {
      "inputs": [
        {
          "internalType": "address",
          "name": "newOwner",
          "type": "address"
        }
      ],
      "name": "transferOwnership",
      "outputs": [],
      "stateMutability": "nonpayable",
      "type": "function"
    },
    {
      "inputs": [
        {
          "internalType": "uint256",
          "name": "_shares",
          "type": "uint256"
        }
      ],
      "name": "withdraw",
      "outputs": [],
      "stateMutability": "nonpayable",
      "type": "function"
    },
    {
      "inputs": [],
      "name": "withdrawAll",
      "outputs": [],
      "stateMutability": "nonpayable",
      "type": "function"
    }
  ],
  "bytecode": "0x608060405234801561001057600080fd5b5060405162001043380380620010438339818101604052602081101561003557600080fd5b5051604080518082018252601f81527f7069636b6c696e672043757276652e6669204441492f555344432f55534454006020828101918252835180850190945260058452643819a1b93b60d91b90840152815191929160129161009b91600091906100fc565b5081516100af9060019060208501906100fc565b506002805460ff191660ff9290921691909117610100600160a81b03191661010033021790555050600680546001600160a01b0319166001600160a01b039290921691909117905561018f565b828054600181600116156101000203166002900490600052602060002090601f016020900481019282601f1061013d57805160ff191683800117855561016a565b8280016001018555821561016a579182015b8281111561016a57825182559160200191906001019061014f565b5061017692915061017a565b5090565b5b80821115610176576000815560010161017b565b610ea4806200019f6000396000f3fe608060405234801561001057600080fd5b506004361061014d5760003560e01c80636948ab6f116100c3578063b69ef8a81161007c578063b69ef8a8146103c4578063b6b55f25146103cc578063dd62ed3e146103e9578063de5f626814610417578063ec1ebd7a1461041f578063f2fde38b146104275761014d565b80636948ab6f1461032e57806370a082311461033657806379cc67901461035c578063853828b61461038857806395d89b4114610390578063a9059cbb146103985761014d565b8063313ce56711610115578063313ce5671461027e57806340c10f191461029c57806342966c68146102c857806348a0d754146102e557806357915897146102ed5780635fcbd2851461030a5761014d565b806306fdde0314610152578063095ea7b3146101cf57806318160ddd1461020f57806323b872dd146102295780632e1a7d4d1461025f575b600080fd5b61015a61044d565b6040805160208082528351818301528351919283929083019185019080838360005b8381101561019457818101518382015260200161017c565b50505050905090810190601f1680156101c15780820380516001836020036101000a031916815260200191505b509250505060405180910390f35b6101fb600480360360408110156101e557600080fd5b506001600160a01b0381351690602001356104e3565b604080519115158252519081900360200190f35b61021761054a565b60408051918252519081900360200190f35b6101fb6004803603606081101561023f57600080fd5b506001600160a01b03813581169160208101359091169060400135610550565b61027c6004803603602081101561027557600080fd5b50356106af565b005b61028661075c565b6040805160ff9092168252519081900360200190f35b6101fb600480360360408110156102b257600080fd5b506001600160a01b038135169060200135610765565b6101fb600480360360208110156102de57600080fd5b50356107cf565b61021761082e565b6101fb6004803603602081101561030357600080fd5b503561084c565b610312610858565b604080516001600160a01b039092168252519081900360200190f35b610312610867565b6102176004803603602081101561034c57600080fd5b50356001600160a01b0316610876565b6101fb6004803603604081101561037257600080fd5b506001600160a01b038135169060200135610891565b61027c610948565b61015a61095b565b6101fb600480360360408110156103ae57600080fd5b506001600160a01b0381351690602001356109bb565b6102176109c8565b61027c600480360360208110156103e257600080fd5b5035610a44565b610217600480360360408110156103ff57600080fd5b506001600160a01b0381358116916020013516610af8565b61027c610b23565b610217610ba0565b61027c6004803603602081101561043d57600080fd5b50356001600160a01b0316610bac565b60008054604080516020601f60026000196101006001881615020190951694909404938401819004810282018101909252828152606093909290918301828280156104d95780601f106104ae576101008083540402835291602001916104d9565b820191906000526020600020905b8154815290600101906020018083116104bc57829003601f168201915b5050505050905090565b3360008181526005602090815260408083206001600160a01b038716808552908352818420869055815186815291519394909390927f8c5be1e5ebec7d5bd14f71427d1e84f3dd0314c0f7b2291e5b200ac8c7c3b925928290030190a35060015b92915050565b60035490565b6000336001600160a01b038516148061058c57506001600160a01b03841660009081526005602090815260408083203384529091529020548211155b6105c8576040805162461bcd60e51b815260206004820152600860248201526710b9b832b73232b960c11b604482015290519081900360640190fd5b6105d3848484610c28565b336001600160a01b0385161480159061061157506001600160a01b038416600090815260056020908152604080832033845290915290205460001914155b156106a5576001600160a01b03841660009081526005602090815260408083203384529091529020546106449083610d2c565b6001600160a01b03858116600090815260056020908152604080832033808552908352928190208590558051948552519287169391927f8c5be1e5ebec7d5bd14f71427d1e84f3dd0314c0f7b2291e5b200ac8c7c3b9259281900390910190a35b5060019392505050565b6000670de0b6b3a76400006106c2610ba0565b8302816106cb57fe5b0490506106d83383610d3c565b6006546040805163a9059cbb60e01b81523360048201526024810184905290516001600160a01b039092169163a9059cbb916044808201926020929091908290030181600087803b15801561072c57600080fd5b505af1158015610740573d6000803e3d6000fd5b505050506040513d602081101561075657600080fd5b50505050565b60025460ff1690565b60025460009061010090046001600160a01b031633146107bc576040805162461bcd60e51b815260206004820152600d60248201526c22a9292fa727aa2fa7aba722a960991b604482015290519081900360640190fd5b6107c68383610dcd565b50600192915050565b3360009081526004602052604081205482111561081c576040805162461bcd60e51b815260206004808301919091526024820152630858985b60e21b604482015290519081900360640190fd5b6108263383610d3c565b506001919050565b600061271061083b6109c8565b61251c028161084657fe5b04905090565b60006108263383610dcd565b6007546001600160a01b031681565b6006546001600160a01b031681565b6001600160a01b031660009081526004602052604090205490565b60025460009061010090046001600160a01b031633146108e8576040805162461bcd60e51b815260206004820152600d60248201526c22a9292fa727aa2fa7aba722a960991b604482015290519081900360640190fd5b6001600160a01b03831660009081526004602052604090205482111561093e576040805162461bcd60e51b815260206004808301919091526024820152630858985b60e21b604482015290519081900360640190fd5b6107c68383610d3c565b61095961095433610876565b6106af565b565b60018054604080516020601f600260001961010087891615020190951694909404938401819004810282018101909252828152606093909290918301828280156104d95780601f106104ae576101008083540402835291602001916104d9565b60006107c6338484610c28565b600654604080516370a0823160e01b815230600482015290516000926001600160a01b0316916370a08231916024808301926020929190829003018186803b158015610a1357600080fd5b505afa158015610a27573d6000803e3d6000fd5b505050506040513d6020811015610a3d57600080fd5b5051905090565b600654604080516323b872dd60e01b81523360048201523060248201526044810184905290516001600160a01b03909216916323b872dd916064808201926020929091908290030181600087803b158015610a9e57600080fd5b505af1158015610ab2573d6000803e3d6000fd5b505050506040513d6020811015610ac857600080fd5b5060009050610ad5610ba0565b82670de0b6b3a76400000281610ae757fe5b049050610af43382610dcd565b5050565b6001600160a01b03918216600090815260056020908152604080832093909416825291909152205490565b600654604080516370a0823160e01b81523360048201529051610959926001600160a01b0316916370a08231916024808301926020929190829003018186803b158015610b6f57600080fd5b505afa158015610b83573d6000803e3d6000fd5b505050506040513d6020811015610b9957600080fd5b5051610a44565b670e043da61725000090565b60025461010090046001600160a01b03163314610c00576040805162461bcd60e51b815260206004820152600d60248201526c22a9292fa727aa2fa7aba722a960991b604482015290519081900360640190fd5b600280546001600160a01b0390921661010002610100600160a81b0319909216919091179055565b6001600160a01b038316600090815260046020526040902054811115610c7e576040805162461bcd60e51b815260206004808301919091526024820152630858985b60e21b604482015290519081900360640190fd5b6001600160a01b038316600090815260046020526040902054610ca19082610d2c565b6001600160a01b038085166000908152600460205260408082209390935590841681522054610cd09082610e5e565b6001600160a01b0380841660008181526004602090815260409182902094909455805185815290519193928716927fddf252ad1be2c89b69c2b068fc378daa952ba7f163c4a11628f55a4df523b3ef92918290030190a3505050565b8082038281111561054457600080fd5b6001600160a01b038216600090815260046020526040902054610d5f9082610d2c565b6001600160a01b038316600090815260046020526040902055600354610d859082610d2c565b6003556040805182815290516000916001600160a01b038516917fddf252ad1be2c89b69c2b068fc378daa952ba7f163c4a11628f55a4df523b3ef9181900360200190a35050565b6001600160a01b038216600090815260046020526040902054610df09082610e5e565b6001600160a01b038316600090815260046020526040902055600354610e169082610e5e565b6003556040805182815290516001600160a01b038416916000917fddf252ad1be2c89b69c2b068fc378daa952ba7f163c4a11628f55a4df523b3ef9181900360200190a35050565b8082018281101561054457600080fdfea2646970667358221220c71336507f22cb61d5754a4181b16bf063591776c6f2c57b55468fb2852db72864736f6c634300060c0033",
  "linkReferences": {},
  "deployedLinkReferences": {}
}