{
  "_format": "hh-sol-artifact-1",
  "contractName": "MockPickleMasterChef",
  "sourceName": "contracts/mock/MockPickleMasterChef.sol",
  "abi": [
    {
      "inputs": [
        {
          "internalType": "contract IERC20",
          "name": "_pickleToken",
          "type": "address"
        },
        {
          "internalType": "contract IERC20",
          "name": "_lpToken",
          "type": "address"
        }
      ],
      "stateMutability": "nonpayable",
      "type": "constructor"
    },
    {
      "inputs": [
        {
          "internalType": "uint256",
          "name": "_pid",
          "type": "uint256"
        },
        {
          "internalType": "uint256",
          "name": "_amount",
          "type": "uint256"
        }
      ],
      "name": "deposit",
      "outputs": [],
      "stateMutability": "nonpayable",
      "type": "function"
    },
    {
      "inputs": [
        {
          "internalType": "uint256",
          "name": "_pid",
          "type": "uint256"
        }
      ],
      "name": "emergencyWithdraw",
      "outputs": [],
      "stateMutability": "nonpayable",
      "type": "function"
    },
    {
      "inputs": [],
      "name": "lpToken",
      "outputs": [
        {
          "internalType": "contract IERC20",
          "name": "",
          "type": "address"
        }
      ],
      "stateMutability": "view",
      "type": "function"
    },
    {
      "inputs": [
        {
          "internalType": "uint256",
          "name": "",
          "type": "uint256"
        },
        {
          "internalType": "address",
          "name": "",
          "type": "address"
        }
      ],
      "name": "pendingPickle",
      "outputs": [
        {
          "internalType": "uint256",
          "name": "",
          "type": "uint256"
        }
      ],
      "stateMutability": "view",
      "type": "function"
    },
    {
      "inputs": [],
      "name": "pickleToken",
      "outputs": [
        {
          "internalType": "contract IERC20",
          "name": "",
          "type": "address"
        }
      ],
      "stateMutability": "view",
      "type": "function"
    },
    {
      "inputs": [
        {
          "internalType": "uint256",
          "name": "",
          "type": "uint256"
        },
        {
          "internalType": "address",
          "name": "",
          "type": "address"
        }
      ],
      "name": "userInfo",
      "outputs": [
        {
          "internalType": "uint256",
          "name": "amount",
          "type": "uint256"
        },
        {
          "internalType": "uint256",
          "name": "rewardDebt",
          "type": "uint256"
        }
      ],
      "stateMutability": "view",
      "type": "function"
    },
    {
      "inputs": [
        {
          "internalType": "uint256",
          "name": "_pid",
          "type": "uint256"
        },
        {
          "internalType": "uint256",
          "name": "_amount",
          "type": "uint256"
        }
      ],
      "name": "withdraw",
      "outputs": [],
      "stateMutability": "nonpayable",
      "type": "function"
    }
  ],
  "bytecode": "0x608060405234801561001057600080fd5b5060405161061c38038061061c8339818101604052604081101561003357600080fd5b508051602090910151600080546001600160a01b039384166001600160a01b031991821617909155600180549390921692169190911790556105a28061007a6000396000f3fe608060405234801561001057600080fd5b506004361061007d5760003560e01c80635fcbd2851161005b5780635fcbd285146100e8578063876ad663146100f057806393f1a40b1461012e578063e2bbb158146101735761007d565b806311176c0314610082578063441a3e70146100a65780635312ea8e146100cb575b600080fd5b61008a610196565b604080516001600160a01b039092168252519081900360200190f35b6100c9600480360360408110156100bc57600080fd5b50803590602001356101a5565b005b6100c9600480360360208110156100e157600080fd5b50356102d5565b61008a61037d565b61011c6004803603604081101561010657600080fd5b50803590602001356001600160a01b031661038c565b60408051918252519081900360200190f35b61015a6004803603604081101561014457600080fd5b50803590602001356001600160a01b0316610413565b6040805192835260208301919091528051918290030190f35b6100c96004803603604081101561018957600080fd5b5080359060200135610437565b6000546001600160a01b031681565b6001546040805163a9059cbb60e01b81523360048201526024810184905290516001600160a01b039092169163a9059cbb916044808201926020929091908290030181600087803b1580156101f957600080fd5b505af115801561020d573d6000803e3d6000fd5b505050506040513d602081101561022357600080fd5b505060008281526002602090815260408083203380855292528220915482546001600160a01b039091169163a9059cbb91600a90046040518363ffffffff1660e01b815260040180836001600160a01b0316815260200182815260200192505050602060405180830381600087803b15801561029e57600080fd5b505af11580156102b2573d6000803e3d6000fd5b505050506040513d60208110156102c857600080fd5b5050805491909103905550565b6000818152600260209081526040808320338085529083528184206001548154845163a9059cbb60e01b815260048101949094526024840152925190946001600160a01b039093169363a9059cbb936044808501949293928390030190829087803b15801561034357600080fd5b505af1158015610357573d6000803e3d6000fd5b505050506040513d602081101561036d57600080fd5b5050600080825560019091015550565b6001546001600160a01b031681565b60008054604080516370a0823160e01b81523060048201529051600a926001600160a01b0316916370a08231916024808301926020929190829003018186803b1580156103d857600080fd5b505afa1580156103ec573d6000803e3d6000fd5b505050506040513d602081101561040257600080fd5b50518161040b57fe5b049392505050565b60026020908152600092835260408084209091529082529020805460019091015482565b600154604080516323b872dd60e01b81523360048201523060248201526044810184905290516001600160a01b03909216916323b872dd916064808201926020929091908290030181600087803b15801561049157600080fd5b505af11580156104a5573d6000803e3d6000fd5b505050506040513d60208110156104bb57600080fd5b505060008281526002602090815260408083203380855292528220915482546001600160a01b039091169163a9059cbb91600a90046040518363ffffffff1660e01b815260040180836001600160a01b0316815260200182815260200192505050602060405180830381600087803b15801561053657600080fd5b505af115801561054a573d6000803e3d6000fd5b505050506040513d602081101561056057600080fd5b5050805490910190555056fea26469706673582212203de42812867cacc33ef2cf7425e01a15892f995e7f96346514c96c30ede1cf3e64736f6c634300060c0033",
  "linkReferences": {},
  "deployedLinkReferences": {}
}