{
  "address": "0xa3bDf93a71127332DC521c3fFc71e00d8640d57f",
  "abi": [
    {
      "anonymous": false,
      "inputs": [
        {
          "indexed": false,
          "internalType": "address",
          "name": "previousAdmin",
          "type": "address"
        },
        {
          "indexed": false,
          "internalType": "address",
          "name": "newAdmin",
          "type": "address"
        }
      ],
      "name": "AdminChanged",
      "type": "event"
    },
    {
      "anonymous": false,
      "inputs": [
        {
          "indexed": true,
          "internalType": "address",
          "name": "beacon",
          "type": "address"
        }
      ],
      "name": "BeaconUpgraded",
      "type": "event"
    },
    {
      "anonymous": false,
      "inputs": [
        {
          "indexed": true,
          "internalType": "address",
          "name": "token",
          "type": "address"
        },
        {
          "indexed": true,
          "internalType": "address",
          "name": "account",
          "type": "address"
        },
        {
          "indexed": false,
          "internalType": "uint256",
          "name": "amount",
          "type": "uint256"
        }
      ],
      "name": "LogDeposit",
      "type": "event"
    },
    {
      "anonymous": false,
      "inputs": [
        {
          "indexed": false,
          "internalType": "address",
          "name": "tokenAddress",
          "type": "address"
        },
        {
          "indexed": false,
          "internalType": "uint256[]",
          "name": "percentages",
          "type": "uint256[]"
        }
      ],
      "name": "LogRebalance",
      "type": "event"
    },
    {
      "anonymous": false,
      "inputs": [
        {
          "indexed": true,
          "internalType": "address",
          "name": "token",
          "type": "address"
        },
        {
          "indexed": true,
          "internalType": "address",
          "name": "account",
          "type": "address"
        },
        {
          "indexed": false,
          "internalType": "uint256",
          "name": "amount",
          "type": "uint256"
        },
        {
          "indexed": false,
          "internalType": "uint256",
          "name": "remaining",
          "type": "uint256"
        }
      ],
      "name": "LogWithdraw",
      "type": "event"
    },
    {
      "anonymous": false,
      "inputs": [
        {
          "indexed": false,
          "internalType": "address",
          "name": "account",
          "type": "address"
        }
      ],
      "name": "Paused",
      "type": "event"
    },
    {
      "anonymous": false,
      "inputs": [
        {
          "indexed": true,
          "internalType": "bytes32",
          "name": "role",
          "type": "bytes32"
        },
        {
          "indexed": true,
          "internalType": "bytes32",
          "name": "previousAdminRole",
          "type": "bytes32"
        },
        {
          "indexed": true,
          "internalType": "bytes32",
          "name": "newAdminRole",
          "type": "bytes32"
        }
      ],
      "name": "RoleAdminChanged",
      "type": "event"
    },
    {
      "anonymous": false,
      "inputs": [
        {
          "indexed": true,
          "internalType": "bytes32",
          "name": "role",
          "type": "bytes32"
        },
        {
          "indexed": true,
          "internalType": "address",
          "name": "account",
          "type": "address"
        },
        {
          "indexed": true,
          "internalType": "address",
          "name": "sender",
          "type": "address"
        }
      ],
      "name": "RoleGranted",
      "type": "event"
    },
    {
      "anonymous": false,
      "inputs": [
        {
          "indexed": true,
          "internalType": "bytes32",
          "name": "role",
          "type": "bytes32"
        },
        {
          "indexed": true,
          "internalType": "address",
          "name": "account",
          "type": "address"
        },
        {
          "indexed": true,
          "internalType": "address",
          "name": "sender",
          "type": "address"
        }
      ],
      "name": "RoleRevoked",
      "type": "event"
    },
    {
      "anonymous": false,
      "inputs": [
        {
          "indexed": false,
          "internalType": "address",
          "name": "account",
          "type": "address"
        }
      ],
      "name": "Unpaused",
      "type": "event"
    },
    {
      "anonymous": false,
      "inputs": [
        {
          "indexed": true,
          "internalType": "address",
          "name": "implementation",
          "type": "address"
        }
      ],
      "name": "Upgraded",
      "type": "event"
    },
    {
      "inputs": [],
      "name": "DEFAULT_ADMIN_ROLE",
      "outputs": [
        {
          "internalType": "bytes32",
          "name": "",
          "type": "bytes32"
        }
      ],
      "stateMutability": "view",
      "type": "function"
    },
    {
      "inputs": [],
      "name": "ROLE_ADMIN",
      "outputs": [
        {
          "internalType": "bytes32",
          "name": "",
          "type": "bytes32"
        }
      ],
      "stateMutability": "view",
      "type": "function"
    },
    {
      "inputs": [
        {
          "internalType": "address",
          "name": "_marketRegistry",
          "type": "address"
        }
      ],
      "name": "__AssetManager_init",
      "outputs": [],
      "stateMutability": "nonpayable",
      "type": "function"
    },
    {
      "inputs": [
        {
          "internalType": "address",
          "name": "admin_",
          "type": "address"
        }
      ],
      "name": "__Controller_init",
      "outputs": [],
      "stateMutability": "nonpayable",
      "type": "function"
    },
    {
      "inputs": [
        {
          "internalType": "address",
          "name": "adapterAddress",
          "type": "address"
        }
      ],
      "name": "addAdapter",
      "outputs": [],
      "stateMutability": "nonpayable",
      "type": "function"
    },
    {
      "inputs": [
        {
          "internalType": "address",
          "name": "account",
          "type": "address"
        }
      ],
      "name": "addAdmin",
      "outputs": [],
      "stateMutability": "nonpayable",
      "type": "function"
    },
    {
      "inputs": [
        {
          "internalType": "address",
          "name": "tokenAddress",
          "type": "address"
        }
      ],
      "name": "addToken",
      "outputs": [],
      "stateMutability": "nonpayable",
      "type": "function"
    },
    {
      "inputs": [
        {
          "internalType": "address",
          "name": "tokenAddress",
          "type": "address"
        }
      ],
      "name": "approveAllMarketsMax",
      "outputs": [],
      "stateMutability": "nonpayable",
      "type": "function"
    },
    {
      "inputs": [
        {
          "internalType": "address",
          "name": "adapterAddress",
          "type": "address"
        }
      ],
      "name": "approveAllTokensMax",
      "outputs": [],
      "stateMutability": "nonpayable",
      "type": "function"
    },
    {
      "inputs": [
        {
          "internalType": "address",
          "name": "",
          "type": "address"
        },
        {
          "internalType": "address",
          "name": "",
          "type": "address"
        }
      ],
      "name": "balances",
      "outputs": [
        {
          "internalType": "uint256",
          "name": "",
          "type": "uint256"
        }
      ],
      "stateMutability": "view",
      "type": "function"
    },
    {
      "inputs": [
        {
          "internalType": "uint256[]",
          "name": "newSeq",
          "type": "uint256[]"
        }
      ],
      "name": "changeWithdrawSequence",
      "outputs": [],
      "stateMutability": "nonpayable",
      "type": "function"
    },
    {
      "inputs": [
        {
          "internalType": "address",
          "name": "tokenAddress",
          "type": "address"
        },
        {
          "internalType": "address",
          "name": "recipient",
          "type": "address"
        }
      ],
      "name": "claimTokens",
      "outputs": [],
      "stateMutability": "nonpayable",
      "type": "function"
    },
    {
      "inputs": [
        {
          "internalType": "uint256",
          "name": "index",
          "type": "uint256"
        },
        {
          "internalType": "address",
          "name": "tokenAddress",
          "type": "address"
        },
        {
          "internalType": "address",
          "name": "recipient",
          "type": "address"
        }
      ],
      "name": "claimTokensFromAdapter",
      "outputs": [],
      "stateMutability": "nonpayable",
      "type": "function"
    },
    {
      "inputs": [
        {
          "internalType": "address",
          "name": "token",
          "type": "address"
        },
        {
          "internalType": "uint256",
          "name": "amount",
          "type": "uint256"
        }
      ],
      "name": "debtWriteOff",
      "outputs": [],
      "stateMutability": "nonpayable",
      "type": "function"
    },
    {
      "inputs": [
        {
          "internalType": "address",
          "name": "token",
          "type": "address"
        },
        {
          "internalType": "uint256",
          "name": "amount",
          "type": "uint256"
        }
      ],
      "name": "deposit",
      "outputs": [
        {
          "internalType": "bool",
          "name": "",
          "type": "bool"
        }
      ],
      "stateMutability": "nonpayable",
      "type": "function"
    },
    {
      "inputs": [
        {
          "internalType": "address",
          "name": "tokenAddress",
          "type": "address"
        }
      ],
      "name": "getLoanableAmount",
      "outputs": [
        {
          "internalType": "uint256",
          "name": "",
          "type": "uint256"
        }
      ],
      "stateMutability": "view",
      "type": "function"
    },
    {
      "inputs": [
        {
          "internalType": "address",
          "name": "tokenAddress",
          "type": "address"
        },
        {
          "internalType": "uint256",
          "name": "marketId",
          "type": "uint256"
        }
      ],
      "name": "getMoneyMarket",
      "outputs": [
        {
          "internalType": "uint256",
          "name": "rate",
          "type": "uint256"
        },
        {
          "internalType": "uint256",
          "name": "tokenSupply",
          "type": "uint256"
        }
      ],
      "stateMutability": "view",
      "type": "function"
    },
    {
      "inputs": [
        {
          "internalType": "address",
          "name": "tokenAddress",
          "type": "address"
        }
      ],
      "name": "getPoolBalance",
      "outputs": [
        {
          "internalType": "uint256",
          "name": "",
          "type": "uint256"
        }
      ],
      "stateMutability": "view",
      "type": "function"
    },
    {
      "inputs": [
        {
          "internalType": "bytes32",
          "name": "role",
          "type": "bytes32"
        }
      ],
      "name": "getRoleAdmin",
      "outputs": [
        {
          "internalType": "bytes32",
          "name": "",
          "type": "bytes32"
        }
      ],
      "stateMutability": "view",
      "type": "function"
    },
    {
      "inputs": [
        {
          "internalType": "bytes32",
          "name": "role",
          "type": "bytes32"
        },
        {
          "internalType": "address",
          "name": "account",
          "type": "address"
        }
      ],
      "name": "grantRole",
      "outputs": [],
      "stateMutability": "nonpayable",
      "type": "function"
    },
    {
      "inputs": [
        {
          "internalType": "bytes32",
          "name": "role",
          "type": "bytes32"
        },
        {
          "internalType": "address",
          "name": "account",
          "type": "address"
        }
      ],
      "name": "hasRole",
      "outputs": [
        {
          "internalType": "bool",
          "name": "",
          "type": "bool"
        }
      ],
      "stateMutability": "view",
      "type": "function"
    },
    {
      "inputs": [
        {
          "internalType": "address",
          "name": "account",
          "type": "address"
        }
      ],
      "name": "isAdmin",
      "outputs": [
        {
          "internalType": "bool",
          "name": "",
          "type": "bool"
        }
      ],
      "stateMutability": "view",
      "type": "function"
    },
    {
      "inputs": [
        {
          "internalType": "address",
          "name": "tokenAddress",
          "type": "address"
        }
      ],
      "name": "isMarketSupported",
      "outputs": [
        {
          "internalType": "bool",
          "name": "",
          "type": "bool"
        }
      ],
      "stateMutability": "view",
      "type": "function"
    },
    {
      "inputs": [],
      "name": "marketRegistry",
      "outputs": [
        {
          "internalType": "address",
          "name": "",
          "type": "address"
        }
      ],
      "stateMutability": "view",
      "type": "function"
    },
    {
      "inputs": [
        {
          "internalType": "uint256",
          "name": "",
          "type": "uint256"
        }
      ],
      "name": "moneyMarkets",
      "outputs": [
        {
          "internalType": "contract IMoneyMarketAdapter",
          "name": "",
          "type": "address"
        }
      ],
      "stateMutability": "view",
      "type": "function"
    },
    {
      "inputs": [],
      "name": "moneyMarketsCount",
      "outputs": [
        {
          "internalType": "uint256",
          "name": "",
          "type": "uint256"
        }
      ],
      "stateMutability": "view",
      "type": "function"
    },
    {
      "inputs": [
        {
          "internalType": "address[]",
          "name": "adapters",
          "type": "address[]"
        }
      ],
      "name": "overwriteAdapters",
      "outputs": [],
      "stateMutability": "nonpayable",
      "type": "function"
    },
    {
      "inputs": [],
      "name": "pause",
      "outputs": [],
      "stateMutability": "nonpayable",
      "type": "function"
    },
    {
      "inputs": [],
      "name": "pauseGuardian",
      "outputs": [
        {
          "internalType": "address",
          "name": "",
          "type": "address"
        }
      ],
      "stateMutability": "view",
      "type": "function"
    },
    {
      "inputs": [],
      "name": "paused",
      "outputs": [
        {
          "internalType": "bool",
          "name": "",
          "type": "bool"
        }
      ],
      "stateMutability": "view",
      "type": "function"
    },
    {
      "inputs": [
        {
          "internalType": "address",
          "name": "tokenAddress",
          "type": "address"
        },
        {
          "internalType": "uint256[]",
          "name": "percentages",
          "type": "uint256[]"
        }
      ],
      "name": "rebalance",
      "outputs": [],
      "stateMutability": "nonpayable",
      "type": "function"
    },
    {
      "inputs": [],
      "name": "renounceAdmin",
      "outputs": [],
      "stateMutability": "nonpayable",
      "type": "function"
    },
    {
      "inputs": [
        {
          "internalType": "bytes32",
          "name": "role",
          "type": "bytes32"
        },
        {
          "internalType": "address",
          "name": "account",
          "type": "address"
        }
      ],
      "name": "renounceRole",
      "outputs": [],
      "stateMutability": "nonpayable",
      "type": "function"
    },
    {
      "inputs": [
        {
          "internalType": "bytes32",
          "name": "role",
          "type": "bytes32"
        },
        {
          "internalType": "address",
          "name": "account",
          "type": "address"
        }
      ],
      "name": "revokeRole",
      "outputs": [],
      "stateMutability": "nonpayable",
      "type": "function"
    },
    {
      "inputs": [
        {
          "internalType": "address",
          "name": "account",
          "type": "address"
        }
      ],
      "name": "setGuardian",
      "outputs": [],
      "stateMutability": "nonpayable",
      "type": "function"
    },
    {
      "inputs": [
        {
          "internalType": "address",
          "name": "_marketRegistry",
          "type": "address"
        }
      ],
      "name": "setMarketRegistry",
      "outputs": [],
      "stateMutability": "nonpayable",
      "type": "function"
    },
    {
      "inputs": [
        {
          "internalType": "address",
          "name": "",
          "type": "address"
        }
      ],
      "name": "supportedMarkets",
      "outputs": [
        {
          "internalType": "bool",
          "name": "isSupported",
          "type": "bool"
        }
      ],
      "stateMutability": "view",
      "type": "function"
    },
    {
      "inputs": [],
      "name": "supportedTokensCount",
      "outputs": [
        {
          "internalType": "uint256",
          "name": "",
          "type": "uint256"
        }
      ],
      "stateMutability": "view",
      "type": "function"
    },
    {
      "inputs": [
        {
          "internalType": "uint256",
          "name": "",
          "type": "uint256"
        }
      ],
      "name": "supportedTokensList",
      "outputs": [
        {
          "internalType": "address",
          "name": "",
          "type": "address"
        }
      ],
      "stateMutability": "view",
      "type": "function"
    },
    {
      "inputs": [
        {
          "internalType": "bytes4",
          "name": "interfaceId",
          "type": "bytes4"
        }
      ],
      "name": "supportsInterface",
      "outputs": [
        {
          "internalType": "bool",
          "name": "",
          "type": "bool"
        }
      ],
      "stateMutability": "view",
      "type": "function"
    },
    {
      "inputs": [
        {
          "internalType": "address",
          "name": "",
          "type": "address"
        }
      ],
      "name": "totalPrincipal",
      "outputs": [
        {
          "internalType": "uint256",
          "name": "",
          "type": "uint256"
        }
      ],
      "stateMutability": "view",
      "type": "function"
    },
    {
      "inputs": [
        {
          "internalType": "address",
          "name": "tokenAddress",
          "type": "address"
        }
      ],
      "name": "totalSupply",
      "outputs": [
        {
          "internalType": "uint256",
          "name": "",
          "type": "uint256"
        }
      ],
      "stateMutability": "nonpayable",
      "type": "function"
    },
    {
      "inputs": [
        {
          "internalType": "address",
          "name": "tokenAddress",
          "type": "address"
        }
      ],
      "name": "totalSupplyView",
      "outputs": [
        {
          "internalType": "uint256",
          "name": "",
          "type": "uint256"
        }
      ],
      "stateMutability": "view",
      "type": "function"
    },
    {
      "inputs": [],
      "name": "unpause",
      "outputs": [],
      "stateMutability": "nonpayable",
      "type": "function"
    },
    {
      "inputs": [
        {
          "internalType": "address",
          "name": "newImplementation",
          "type": "address"
        }
      ],
      "name": "upgradeTo",
      "outputs": [],
      "stateMutability": "nonpayable",
      "type": "function"
    },
    {
      "inputs": [
        {
          "internalType": "address",
          "name": "newImplementation",
          "type": "address"
        },
        {
          "internalType": "bytes",
          "name": "data",
          "type": "bytes"
        }
      ],
      "name": "upgradeToAndCall",
      "outputs": [],
      "stateMutability": "payable",
      "type": "function"
    },
    {
      "inputs": [
        {
          "internalType": "address",
          "name": "token",
          "type": "address"
        },
        {
          "internalType": "address",
          "name": "account",
          "type": "address"
        },
        {
          "internalType": "uint256",
          "name": "amount",
          "type": "uint256"
        }
      ],
      "name": "withdraw",
      "outputs": [
        {
          "internalType": "bool",
          "name": "",
          "type": "bool"
        }
      ],
      "stateMutability": "nonpayable",
      "type": "function"
    },
    {
      "inputs": [
        {
          "internalType": "uint256",
          "name": "",
          "type": "uint256"
        }
      ],
      "name": "withdrawSeq",
      "outputs": [
        {
          "internalType": "uint256",
          "name": "",
          "type": "uint256"
        }
      ],
      "stateMutability": "view",
      "type": "function"
    }
  ],
  "transactionHash": "0xc259ac28273450581e7169e1828b9bbf173dba9908344c29fda5d9e1e787f5f9",
  "args": [],
  "solcInputHash": "815da1a7bd393b91c2edbc66164c6945",
  "bytecode": "0x608060405234801561001057600080fd5b506148b8806100206000396000f3fe6080604052600436106102925760003560e01c80638a0dac4a1161015a578063c23f001f116100c1578063d85797041161007a578063d857970414610c49578063d9caed1214610c7c578063e49fba6b14610cbf578063e4dc2aa414610cd5578063ecb96fe614610d08578063f9e1111c14610d2957600080fd5b8063c23f001f14610b03578063cbfe49af14610b55578063d28682ea14610b88578063d391014b14610bbb578063d48bfca714610bdd578063d547741f14610c1057600080fd5b8063a2d11a7711610113578063a2d11a7714610976578063acc04b58146109a0578063b19c897314610a1b578063b8845f7514610a45578063bae6f74014610a7e578063bb904dc014610ab157600080fd5b80638a0dac4a1461087a5780638bad0c0a146108ad57806391d14854146108c257806393737049146108fb5780639d386f2a1461092e578063a217fddf1461096157600080fd5b80633f4ba83a116101fe57806360d54d41116101b757806360d54d411461076757806363c918771461079a57806369ffa08a146107c45780636c461a73146107ff57806370480275146108325780638456cb591461086557600080fd5b80633f4ba83a146105ac57806347e7ef24146105c15780634ef51c3f146105fa5780634f1ef286146106855780635af9f139146107395780635c975abb1461074f57600080fd5b806324a3d6221161025057806324a3d6221461046057806324d7806c146104a15780632f2ff15d146104d457806336568abe1461050d5780633659cfe6146105465780633e80427d1461057957600080fd5b80627034111461029757806301ffc9a7146102dc57806310d0bbe314610324578063129ac68c146103a157806320761fc4146103e2578063248a9ca314610426575b600080fd5b3480156102a357600080fd5b506102ca600480360360208110156102ba57600080fd5b50356001600160a01b0316610d6a565b60408051918252519081900360200190f35b3480156102e857600080fd5b50610310600480360360208110156102ff57600080fd5b50356001600160e01b031916610dce565b604080519115158252519081900360200190f35b34801561033057600080fd5b5061039f6004803603602081101561034757600080fd5b810190602081018135600160201b81111561036157600080fd5b82018360208201111561037357600080fd5b803590602001918460208302840111600160201b8311171561039457600080fd5b509092509050610e05565b005b3480156103ad57600080fd5b5061039f600480360360608110156103c457600080fd5b508035906001600160a01b0360208201358116916040013516610f46565b3480156103ee57600080fd5b506103106004803603602081101561040557600080fd5b50610162602052356001600160a01b03166000908152604090205460ff1681565b34801561043257600080fd5b506102ca6004803603602081101561044957600080fd5b5035600090815260c9602052604090206001015490565b34801561046c57600080fd5b5060fc546104859061010090046001600160a01b031681565b604080516001600160a01b039092168252519081900360200190f35b3480156104ad57600080fd5b50610310600480360360208110156104c457600080fd5b50356001600160a01b0316611019565b3480156104e057600080fd5b5061039f600480360360408110156104f757600080fd5b50803590602001356001600160a01b0316611033565b34801561051957600080fd5b5061039f6004803603604081101561053057600080fd5b50803590602001356001600160a01b0316611059565b34801561055257600080fd5b5061039f6004803603602081101561056957600080fd5b50356001600160a01b03166110d7565b34801561058557600080fd5b5061039f6004803603602081101561059c57600080fd5b50356001600160a01b03166110fe565b3480156105b857600080fd5b5061039f6111b0565b3480156105cd57600080fd5b50610310600480360360408110156105e457600080fd5b506001600160a01b03813516906020013561126a565b34801561060657600080fd5b5061039f6004803603604081101561061d57600080fd5b6001600160a01b038235169190810190604081016020820135600160201b81111561064757600080fd5b82018360208201111561065957600080fd5b803590602001918460208302840111600160201b8311171561067a57600080fd5b509092509050611953565b61039f6004803603604081101561069b57600080fd5b6001600160a01b038235169190810190604081016020820135600160201b8111156106c557600080fd5b8201836020820111156106d757600080fd5b803590602001918460018302840111600160201b831117156106f857600080fd5b91908080601f01602080910402602001604051908101604052809392919081815260200183838082843760009201919091525092955061215b945050505050565b34801561074557600080fd5b50610161546102ca565b34801561075b57600080fd5b5060fc5460ff16610310565b34801561077357600080fd5b5061039f6004803603602081101561078a57600080fd5b50356001600160a01b0316612170565b3480156107a657600080fd5b50610485600480360360208110156107bd57600080fd5b5035612267565b3480156107d057600080fd5b5061039f600480360360408110156107e757600080fd5b506001600160a01b0381358116916020013516612292565b34801561080b57600080fd5b5061039f6004803603602081101561082257600080fd5b50356001600160a01b031661239e565b34801561083e57600080fd5b5061039f6004803603602081101561085557600080fd5b50356001600160a01b03166124ce565b34801561087157600080fd5b5061039f612606565b34801561088657600080fd5b5061039f6004803603602081101561089d57600080fd5b50356001600160a01b0316612695565b3480156108b957600080fd5b5061039f6126f1565b3480156108ce57600080fd5b50610310600480360360408110156108e557600080fd5b50803590602001356001600160a01b0316612728565b34801561090757600080fd5b506102ca6004803603602081101561091e57600080fd5b50356001600160a01b0316612753565b34801561093a57600080fd5b5061039f6004803603602081101561095157600080fd5b50356001600160a01b03166128ea565b34801561096d57600080fd5b506102ca600081565b34801561098257600080fd5b506102ca6004803603602081101561099957600080fd5b5035612983565b3480156109ac57600080fd5b5061039f600480360360208110156109c357600080fd5b810190602081018135600160201b8111156109dd57600080fd5b8201836020820111156109ef57600080fd5b803590602001918460208302840111600160201b83111715610a1057600080fd5b5090925090506129a5565b348015610a2757600080fd5b5061048560048036036020811015610a3e57600080fd5b50356129e6565b348015610a5157600080fd5b5061039f60048036036040811015610a6857600080fd5b506001600160a01b0381351690602001356129f7565b348015610a8a57600080fd5b5061039f60048036036020811015610aa157600080fd5b50356001600160a01b0316612adb565b348015610abd57600080fd5b50610aea60048036036040811015610ad457600080fd5b506001600160a01b038135169060200135612bba565b6040805192835260208301919091528051918290030190f35b348015610b0f57600080fd5b506102ca60048036036040811015610b2657600080fd5b5061016460209081526001600160a01b0382358116600090815260408082208452929093013516825290205481565b348015610b6157600080fd5b5061031060048036036020811015610b7857600080fd5b50356001600160a01b0316612d17565b348015610b9457600080fd5b506102ca60048036036020811015610bab57600080fd5b50356001600160a01b0316612d36565b348015610bc757600080fd5b506102ca60008051602061481883398151915281565b348015610be957600080fd5b5061039f60048036036020811015610c0057600080fd5b50356001600160a01b0316612de3565b348015610c1c57600080fd5b5061039f60048036036040811015610c3357600080fd5b50803590602001356001600160a01b0316612ef4565b348015610c5557600080fd5b5061039f60048036036020811015610c6c57600080fd5b50356001600160a01b0316612f1a565b348015610c8857600080fd5b5061031060048036036060811015610c9f57600080fd5b506001600160a01b03813581169160208101359091169060400135612f71565b348015610ccb57600080fd5b50610163546102ca565b348015610ce157600080fd5b506102ca60048036036020811015610cf857600080fd5b50356001600160a01b0316613498565b348015610d1457600080fd5b5061016654610485906001600160a01b031681565b348015610d3557600080fd5b506102ca60048036036020811015610d4c57600080fd5b50610165602052356001600160a01b03166000908152604090205481565b600080610d7683612d36565b6001600160a01b03841660009081526101656020526040902054909150811115610dc5576001600160a01b03831660009081526101656020526040902054610dbe90826146d3565b9392505050565b50600092915050565b60006001600160e01b03198216637965db0b60e01b1480610dff57506301ffc9a760e01b6001600160e01b03198316145b92915050565b610e1d60008051602061481883398151915233612728565b610e425760405162461bcd60e51b8152600401610e3990614581565b60405180910390fd5b8067ffffffffffffffff811115610e6957634e487b7160e01b600052604160045260246000fd5b604051908082528060200260200182016040528015610e92578160200160208202803683370190505b508051610ea891610161916020909101906143d0565b5060005b81811015610f4157828282818110610ed457634e487b7160e01b600052603260045260246000fd5b905060200201356001600160a01b03166101618281548110610f0657634e487b7160e01b600052603260045260246000fd5b600091825260209091200180546001600160a01b0319166001600160a01b039290921691909117905580610f398161472d565b915050610eac565b505050565b610f5e60008051602061481883398151915233612728565b610f7a5760405162461bcd60e51b8152600401610e3990614581565b60006101618481548110610f9e57634e487b7160e01b600052603260045260246000fd5b6000918252602082200154604080516334ffd04560e11b81526001600160a01b0387811660048301528681166024830152915191909216935083926369ffa08a926044808201939182900301818387803b158015610ffb57600080fd5b505af115801561100f573d6000803e3d6000fd5b5050505050505050565b6000610dff60008051602061481883398151915283612728565b600082815260c9602052604090206001015461104f8133613639565b610f41838361369d565b6001600160a01b03811633146110c95760405162461bcd60e51b815260206004820152602f60248201527f416363657373436f6e74726f6c3a2063616e206f6e6c792072656e6f756e636560448201526e103937b632b9903337b91039b2b63360891b6064820152608401610e39565b6110d38282613723565b5050565b6110e08161378a565b6110fb816040518060200160405280600081525060006137be565b50565b61111660008051602061481883398151915233612728565b6111325760405162461bcd60e51b8152600401610e3990614581565b60005b610163548110156110d3576000610163828154811061116457634e487b7160e01b600052603260045260246000fd5b60009182526020822001546001600160a01b031691506111879082908590613946565b61119d6001600160a01b03821684600019613946565b50806111a88161472d565b915050611135565b60fc5461010090046001600160a01b031633146111df5760405162461bcd60e51b8152600401610e39906145b0565b60fc5460ff1661122a5760405162461bcd60e51b815260206004820152601660248201527510dbdb9d1c9bdb1b195c8e881b9bdd081c185d5cd95960521b6044820152606401610e39565b60fc805460ff191690556040513381527f5db9ee0a495bf2e6ff9c91a7834c1ba4fdd244a5e8aa4e537bd38aeae4b073aa906020015b60405180910390a1565b60fc5460009060ff16156112905760405162461bcd60e51b8152600401610e3990614650565b8261129b3382613a9d565b806112ab57506112ab3382613b2f565b6112e65760405162461bcd60e51b815260040180806020018281038252602f8152602001806147e9602f913960400191505060405180910390fd5b600261012f54141561133a5760405162461bcd60e51b815260206004820152601f60248201527f5265656e7472616e637947756172643a207265656e7472616e742063616c6c006044820152606401610e39565b600261012f55838361137d5760405162461bcd60e51b81526004018080602001828103825260248152602001806148386024913960400191505060405180910390fd5b6113873386613a9d565b6113f357336000908152610164602090815260408083206001600160a01b0389168452909152812080548692906113bf90849061467c565b90915550506001600160a01b03851660009081526101656020526040812080548692906113ed90849061467c565b90915550505b60016113fe86612d17565b156118e55760005b61016154811080156114155750815b15611659576000610161828154811061143e57634e487b7160e01b600052603260045260246000fd5b60009182526020918290200154604080516261f76560e41b81526001600160a01b038c811660048301529151919092169350839263061f76509260248082019391829003018186803b15801561149357600080fd5b505afa1580156114a7573d6000803e3d6000fd5b505050506040513d60208110156114bd57600080fd5b50516114c95750611647565b806001600160a01b0316631fd433aa896040518263ffffffff1660e01b815260040180826001600160a01b03168152602001915050602060405180830381600087803b15801561151857600080fd5b505af115801561152c573d6000803e3d6000fd5b505050506040513d602081101561154257600080fd5b50516040805163904d326160e01b81526001600160a01b038b8116600483015291519184169163904d326191602480820192602092909190829003018186803b15801561158e57600080fd5b505afa1580156115a2573d6000803e3d6000fd5b505050506040513d60208110156115b857600080fd5b5051116115c55750611647565b6115da6001600160a01b03851633838a613bc4565b806001600160a01b031663f340fa01896040518263ffffffff1660e01b815260040180826001600160a01b03168152602001915050600060405180830381600087803b15801561162957600080fd5b505af115801561163d573d6000803e3d6000fd5b5050505060009250505b806116518161472d565b915050611406565b50610161545b60008111801561166c5750815b156118e35760006101616116816001846146d3565b8154811061169f57634e487b7160e01b600052603260045260246000fd5b60009182526020918290200154604080516261f76560e41b81526001600160a01b038c811660048301529151919092169350839263061f76509260248082019391829003018186803b1580156116f457600080fd5b505afa158015611708573d6000803e3d6000fd5b505050506040513d602081101561171e57600080fd5b505161172a57506118d1565b6000816001600160a01b0316631fd433aa8a6040518263ffffffff1660e01b815260040180826001600160a01b03168152602001915050602060405180830381600087803b15801561177b57600080fd5b505af115801561178f573d6000803e3d6000fd5b505050506040513d60208110156117a557600080fd5b505160408051631b1fb46760e11b81526001600160a01b038c8116600483015291519293506000929185169163363f68ce91602480820192602092909190829003018186803b1580156117f757600080fd5b505afa15801561180b573d6000803e3d6000fd5b505050506040513d602081101561182157600080fd5b50519050818111611834575050506118d1565b8061183f8a8461467c565b111561184d575050506118d1565b6118626001600160a01b03871633858c613bc4565b826001600160a01b031663f340fa018b6040518263ffffffff1660e01b815260040180826001600160a01b03168152602001915050600060405180830381600087803b1580156118b157600080fd5b505af11580156118c5573d6000803e3d6000fd5b50505050600094505050505b806118db81614716565b91505061165f565b505b8015611900576119006001600160a01b038316333088613bc4565b60408051868152905133916001600160a01b038916917f5c8d1f77b6233deba47b516a690497af4c7f1be42a768e331832cb02b3400d6b9181900360200190a360019350505050600161012f5592915050565b8261195d81612d17565b6119ae576040805162461bcd60e51b815260206004820152601f60248201527f41737365744d616e616765723a20746f6b656e206e6f7420737570706f727400604482015290519081900360640190fd5b6119c660008051602061481883398151915233612728565b6119e25760405162461bcd60e51b8152600401610e3990614581565b6101615484906119f384600161467c565b14611a45576040805162461bcd60e51b815260206004820152601f60248201527f41737365744d616e616765723a2070657263656e7461676573206572726f7200604482015290519081900360640190fd5b60005b61016154811015611ba1576101618181548110611a7557634e487b7160e01b600052603260045260246000fd5b60009182526020918290200154604080516261f76560e41b81526001600160a01b038a811660048301529151919092169263061f76509260248082019391829003018186803b158015611ac757600080fd5b505afa158015611adb573d6000803e3d6000fd5b505050506040513d6020811015611af157600080fd5b5051611afc57611b8f565b6101618181548110611b1e57634e487b7160e01b600052603260045260246000fd5b6000918252602082200154604080516301395c5960e31b81526001600160a01b038a81166004830152306024830152915191909216926309cae2c8926044808201939182900301818387803b158015611b7657600080fd5b505af1158015611b8a573d6000803e3d6000fd5b505050505b80611b998161472d565b915050611a48565b506000816001600160a01b03166370a08231306040518263ffffffff1660e01b815260040180826001600160a01b0316815260200191505060206040518083038186803b158015611bf157600080fd5b505afa158015611c05573d6000803e3d6000fd5b505050506040513d6020811015611c1b57600080fd5b5051905060005b84811015611e05576101618181548110611c4c57634e487b7160e01b600052603260045260246000fd5b60009182526020918290200154604080516261f76560e41b81526001600160a01b038b811660048301529151919092169263061f76509260248082019391829003018186803b158015611c9e57600080fd5b505afa158015611cb2573d6000803e3d6000fd5b505050506040513d6020811015611cc857600080fd5b5051611cd357611df3565b6000612710878784818110611cf857634e487b7160e01b600052603260045260246000fd5b9050602002013584611d0a91906146b4565b611d149190614694565b905080611d215750611df3565b611d656101618381548110611d4657634e487b7160e01b600052603260045260246000fd5b6000918252602090912001546001600160a01b03868116911683613bfc565b6101618281548110611d8757634e487b7160e01b600052603260045260246000fd5b60009182526020822001546040805163f340fa0160e01b81526001600160a01b038c811660048301529151919092169263f340fa01926024808201939182900301818387803b158015611dd957600080fd5b505af1158015611ded573d6000803e3d6000fd5b50505050505b80611dfd8161472d565b915050611c22565b506000826001600160a01b03166370a08231306040518263ffffffff1660e01b815260040180826001600160a01b0316815260200191505060206040518083038186803b158015611e5557600080fd5b505afa158015611e69573d6000803e3d6000fd5b505050506040513d6020811015611e7f57600080fd5b5051610161805491925090611e96906001906146d3565b81548110611eb457634e487b7160e01b600052603260045260246000fd5b60009182526020918290200154604080516261f76560e41b81526001600160a01b038b811660048301529151919092169263061f76509260248082019391829003018186803b158015611f0657600080fd5b505afa158015611f1a573d6000803e3d6000fd5b505050506040513d6020811015611f3057600080fd5b50518015611f3e5750600081115b15612030576101618054611f969190611f59906001906146d3565b81548110611f7757634e487b7160e01b600052603260045260246000fd5b6000918252602090912001546001600160a01b03858116911683613bfc565b6101618054611fa7906001906146d3565b81548110611fc557634e487b7160e01b600052603260045260246000fd5b60009182526020822001546040805163f340fa0160e01b81526001600160a01b038b811660048301529151919092169263f340fa01926024808201939182900301818387803b15801561201757600080fd5b505af115801561202b573d6000803e3d6000fd5b505050505b604080516370a0823160e01b815230600482015290516001600160a01b038516916370a08231916024808301926020929190829003018186803b15801561207657600080fd5b505afa15801561208a573d6000803e3d6000fd5b505050506040513d60208110156120a057600080fd5b5051156120de5760405162461bcd60e51b815260040180806020018281038252603881526020018061478b6038913960400191505060405180910390fd5b7f533315164704ded1aa86acf715b7aaf2c43680da34563ff042e27a574d42814f87878760405180846001600160a01b03168152602001806020018281038252848482818152602001925060200280828437600083820152604051601f909101601f1916909201829003965090945050505050a150505050505050565b6121648261378a565b6110d3828260016137be565b61218860008051602061481883398151915233612728565b6121a45760405162461bcd60e51b8152600401610e3990614581565b6000805b6101615481101561220b5761016181815481106121d557634e487b7160e01b600052603260045260246000fd5b6000918252602090912001546001600160a01b03848116911614156121f957600191505b806122038161472d565b9150506121a8565b508061225e5761016180546001810182556000919091527fafbb1c043347995df017ce3291b765e028ad5f784d2aa00c3f5e073760a4de8b0180546001600160a01b0319166001600160a01b0384161790555b6110d3826110fe565b610163818154811061227857600080fd5b6000918252602090912001546001600160a01b0316905081565b6122aa60008051602061481883398151915233612728565b6122c65760405162461bcd60e51b8152600401610e3990614581565b6001600160a01b03811661230b5760405162461bcd60e51b81526004018080602001828103825260268152602001806147c36026913960400191505060405180910390fd5b604080516370a0823160e01b8152306004820152905183916000916001600160a01b038416916370a08231916024808301926020929190829003018186803b15801561235657600080fd5b505afa15801561236a573d6000803e3d6000fd5b505050506040513d602081101561238057600080fd5b505190506123986001600160a01b0383168483613bfc565b50505050565b600054610100900460ff16806123b7575060005460ff16155b6123d35760405162461bcd60e51b8152600401610e3990614602565b600054610100900460ff161580156123f5576000805461ffff19166101011790555b6001600160a01b0382166124465760405162461bcd60e51b8152602060048201526018602482015277436f6e74726f6c6c65723a2061646472657373207a65726f60401b6044820152606401610e39565b60fc805460ff191690556001600160a01b038216600081815260fb6020526040902080546001600160a01b0319169091179055612481613c2c565b61249960008051602061481883398151915283613ca7565b60fc8054610100600160a81b0319166101006001600160a01b0385160217905580156110d3576000805461ff00191690555050565b6124e660008051602061481883398151915233612728565b6125025760405162461bcd60e51b8152600401610e3990614581565b6001600160a01b0381166125535760405162461bcd60e51b8152602060048201526018602482015277436f6e74726f6c6c65723a2061646472657373207a65726f60401b6044820152606401610e39565b6001600160a01b03818116600090815260fb602052604090205416156125c55760405162461bcd60e51b815260206004820152602160248201527f436f6e74726f6c6c65723a2061646d696e20616c7265616479206578697374656044820152601960fa1b6064820152608401610e39565b6001600160a01b038116600081815260fb6020526040902080546001600160a01b03191690911790556110fb60008051602061481883398151915282613ca7565b60fc5461010090046001600160a01b031633146126355760405162461bcd60e51b8152600401610e39906145b0565b60fc5460ff16156126585760405162461bcd60e51b8152600401610e3990614650565b60fc805460ff191660011790556040513381527f62e78cea01bee320cd4e420270b5ea74000d11b0c9f74754ebdbfc544b05a25890602001611260565b6126ad60008051602061481883398151915233612728565b6126c95760405162461bcd60e51b8152600401610e3990614581565b60fc80546001600160a01b0390921661010002610100600160a81b0319909216919091179055565b61270960008051602061481883398151915233611059565b33600090815260fb6020526040902080546001600160a01b0319169055565b600091825260c9602090815260408084206001600160a01b0393909316845291905290205460ff1690565b600061275e82612d17565b156128e2576000805b610161548110156128db57610161818154811061279457634e487b7160e01b600052603260045260246000fd5b60009182526020918290200154604080516261f76560e41b81526001600160a01b0388811660048301529151919092169263061f76509260248082019391829003018186803b1580156127e657600080fd5b505afa1580156127fa573d6000803e3d6000fd5b505050506040513d602081101561281057600080fd5b505161281b576128c9565b610161818154811061283d57634e487b7160e01b600052603260045260246000fd5b6000918252602091829020015460408051633b62879560e21b81526001600160a01b0388811660048301529151919092169263ed8a1e549260248082019391829003018186803b15801561289057600080fd5b505afa1580156128a4573d6000803e3d6000fd5b505050506040513d60208110156128ba57600080fd5b50516128c6908361467c565b91505b806128d38161472d565b915050612767565b5092915050565b506000919050565b600054610100900460ff1680612903575060005460ff16155b61291f5760405162461bcd60e51b8152600401610e3990614602565b600054610100900460ff16158015612941576000805461ffff19166101011790555b61294a3361239e565b612952613cb1565b61016680546001600160a01b0319166001600160a01b03841617905580156110d3576000805461ff00191690555050565b610167818154811061299457600080fd5b600091825260209091200154905081565b6129bd60008051602061481883398151915233612728565b6129d95760405162461bcd60e51b8152600401610e3990614581565b610f416101678383614435565b610161818154811061227857600080fd5b336000908152610164602090815260408083206001600160a01b0386168452909152902054811115612a70576040805162461bcd60e51b815260206004820181905260248201527f41737365744d616e616765723a2062616c616e6365206e6f7420656e6f756768604482015290519081900360640190fd5b336000908152610164602090815260408083206001600160a01b038616845290915281208054839290612aa49084906146d3565b90915550506001600160a01b0382166000908152610165602052604081208054839290612ad29084906146d3565b90915550505050565b612af360008051602061481883398151915233612728565b612b0f5760405162461bcd60e51b8152600401610e3990614581565b8060005b61016154811015610f4157612b626101618281548110612b4357634e487b7160e01b600052603260045260246000fd5b60009182526020822001546001600160a01b0385811692911690613946565b612ba86101618281548110612b8757634e487b7160e01b600052603260045260246000fd5b6000918252602090912001546001600160a01b038481169116600019613946565b80612bb28161472d565b915050612b13565b6000806101618381548110612bdf57634e487b7160e01b600052603260045260246000fd5b60009182526020918290200154604080516337cef79160e01b81526001600160a01b038881166004830152915191909216926337cef7919260248082019391829003018186803b158015612c3257600080fd5b505afa158015612c46573d6000803e3d6000fd5b505050506040513d6020811015612c5c57600080fd5b505161016180549193509084908110612c8557634e487b7160e01b600052603260045260246000fd5b6000918252602091829020015460408051633b62879560e21b81526001600160a01b0388811660048301529151919092169263ed8a1e549260248082019391829003018186803b158015612cd857600080fd5b505afa158015612cec573d6000803e3d6000fd5b505050506040513d6020811015612d0257600080fd5b5051612d0e908261467c565b90509250929050565b6001600160a01b03166000908152610162602052604090205460ff1690565b6000808290506000816001600160a01b03166370a08231306040518263ffffffff1660e01b815260040180826001600160a01b0316815260200191505060206040518083038186803b158015612d8b57600080fd5b505afa158015612d9f573d6000803e3d6000fd5b505050506040513d6020811015612db557600080fd5b50519050612dc284612d17565b15610dbe5780612dd185612753565b612ddb919061467c565b949350505050565b612dfb60008051602061481883398151915233612728565b612e175760405162461bcd60e51b8152600401610e3990614581565b6001600160a01b0381166000908152610162602052604090205460ff1615612e86576040805162461bcd60e51b815260206004820152601c60248201527f41737365744d616e616765723a20746f6b656e20697320657869737400000000604482015290519081900360640190fd5b610163805460018082019092557fb0f3e90519fd0de3100ca1a24094c0a25e5cbf467d74a2603172b5a5204555b30180546001600160a01b0319166001600160a01b038416908117909155600090815261016260205260409020805460ff191690911790556110fb81612adb565b600082815260c96020526040902060010154612f108133613639565b610f418383613723565b612f3260008051602061481883398151915233612728565b612f4e5760405162461bcd60e51b8152600401610e3990614581565b61016680546001600160a01b0319166001600160a01b0392909216919091179055565b60fc5460009060ff1615612f975760405162461bcd60e51b8152600401610e3990614650565b600261012f541415612feb5760405162461bcd60e51b815260206004820152601f60248201527f5265656e7472616e637947756172643a207265656e7472616e742063616c6c006044820152606401610e39565b600261012f5583612ffc3382613a9d565b8061300c575061300c3382613b2f565b6130475760405162461bcd60e51b815260040180806020018281038252602f8152602001806147e9602f913960400191505060405180910390fd5b613052338685613d10565b61308d5760405162461bcd60e51b815260040180806020018281038252602c81526020018061475f602c913960400191505060405180910390fd5b604080516370a0823160e01b8152306004820152905184916000916001600160a01b038916916370a08231916024808301926020929190829003018186803b1580156130d857600080fd5b505afa1580156130ec573d6000803e3d6000fd5b505050506040513d602081101561310257600080fd5b50519050801561314157600082821061311b578261311d565b815b905061312981846146d3565b925061313f6001600160a01b0389168883613bfc565b505b61314a87612d17565b156133865760005b61016754811080156131645750600083115b15613384576000610161610167838154811061319057634e487b7160e01b600052603260045260246000fd5b9060005260206000200154815481106131b957634e487b7160e01b600052603260045260246000fd5b60009182526020918290200154604080516261f76560e41b81526001600160a01b038d811660048301529151919092169350839263061f76509260248082019391829003018186803b15801561320e57600080fd5b505afa158015613222573d6000803e3d6000fd5b505050506040513d602081101561323857600080fd5b50516132445750613372565b6000816001600160a01b0316631fd433aa8b6040518263ffffffff1660e01b815260040180826001600160a01b03168152602001915050602060405180830381600087803b15801561329557600080fd5b505af11580156132a9573d6000803e3d6000fd5b505050506040513d60208110156132bf57600080fd5b50519050806132cf575050613372565b60008582106132de57856132e0565b815b90506132ec81876146d3565b9550826001600160a01b031663d9caed128c8c846040518463ffffffff1660e01b815260040180846001600160a01b03168152602001836001600160a01b031681526020018281526020019350505050600060405180830381600087803b15801561335657600080fd5b505af115801561336a573d6000803e3d6000fd5b505050505050505b8061337c8161472d565b915050613152565b505b6133903388613a9d565b61343157336000908152610164602090815260408083206001600160a01b038b16845290915290205482906133c69087906146d3565b6133d0919061467c565b336000908152610164602090815260408083206001600160a01b038c16845282528083209390935561016590522054829061340c9087906146d3565b613416919061467c565b6001600160a01b038816600090815261016560205260409020555b856001600160a01b0316876001600160a01b03167f74217ce088f00bfd283666b763c64f0d1b1c345591dfdd01891dddf52446694e8785604051808381526020018281526020019250505060405180910390a360019350505050600161012f559392505050565b60006134a382612d17565b156128e2576000805b610161548110156128db5761016181815481106134d957634e487b7160e01b600052603260045260246000fd5b60009182526020918290200154604080516261f76560e41b81526001600160a01b0388811660048301529151919092169263061f76509260248082019391829003018186803b15801561352b57600080fd5b505afa15801561353f573d6000803e3d6000fd5b505050506040513d602081101561355557600080fd5b505161356057613627565b610161818154811061358257634e487b7160e01b600052603260045260246000fd5b9060005260206000200160009054906101000a90046001600160a01b03166001600160a01b0316631fd433aa856040518263ffffffff1660e01b815260040180826001600160a01b03168152602001915050602060405180830381600087803b1580156135ee57600080fd5b505af1158015613602573d6000803e3d6000fd5b505050506040513d602081101561361857600080fd5b5051613624908361467c565b91505b806136318161472d565b9150506134ac565b6136438282612728565b6110d35761365b816001600160a01b03166014613d66565b613666836020613d66565b6040516020016136779291906144d9565b60408051601f198184030181529082905262461bcd60e51b8252610e399160040161454e565b6136a78282612728565b6110d357600082815260c9602090815260408083206001600160a01b03851684529091529020805460ff191660011790556136df3390565b6001600160a01b0316816001600160a01b0316837f2f8788117e7eff1d82e926ec794901d17c78024a50270940304540a733656f0d60405160405180910390a45050565b61372d8282612728565b156110d357600082815260c9602090815260408083206001600160a01b0385168085529252808320805460ff1916905551339285917ff6391f5c32d9c69d2a47ea670b442974b53935d1edc7fd64eb21e047a839171b9190a45050565b6137a260008051602061481883398151915233612728565b6110fb5760405162461bcd60e51b8152600401610e3990614581565b60006137f17f360894a13ba1a3210667c828492db98dca3e2076cc3735a920a3ca505d382bbc546001600160a01b031690565b90506137fc84613f48565b6000835111806138095750815b1561381a576138188484613fed565b505b7f4910fdfa16fed3260ed0e7147f7cc6da11a60208b5b9406d12a635614ffd9143805460ff1661393f57805460ff191660011781556040516001600160a01b038316602482015261389990869060440160408051601f198184030181529190526020810180516001600160e01b0316631b2ce7f360e11b179052613fed565b50805460ff191681557f360894a13ba1a3210667c828492db98dca3e2076cc3735a920a3ca505d382bbc546001600160a01b038381169116146139365760405162461bcd60e51b815260206004820152602f60248201527f45524331393637557067726164653a207570677261646520627265616b73206660448201526e75727468657220757067726164657360881b6064820152608401610e39565b61393f856140d8565b5050505050565b8015806139cf5750604051636eb1769f60e11b81523060048201526001600160a01b03838116602483015284169063dd62ed3e9060440160206040518083038186803b15801561399557600080fd5b505afa1580156139a9573d6000803e3d6000fd5b505050506040513d601f19601f820116820180604052508101906139cd91906144a5565b155b613a3a5760405162461bcd60e51b815260206004820152603660248201527f5361666545524332303a20617070726f76652066726f6d206e6f6e2d7a65726f60448201527520746f206e6f6e2d7a65726f20616c6c6f77616e636560501b6064820152608401610e39565b6040516001600160a01b038316602482015260448101829052610f4190849063095ea7b360e01b906064015b60408051601f198184030181529190526020810180516001600160e01b03166001600160e01b031990931692909217909152614118565b610166546040805163e486033960e01b81526001600160a01b0384811660048301528251600094859492169263e4860339926024808301939192829003018186803b158015613aeb57600080fd5b505afa158015613aff573d6000803e3d6000fd5b505050506040513d6040811015613b1557600080fd5b50516001600160a01b039081169085161491505092915050565b610166546040805163e486033960e01b81526001600160a01b0384811660048301528251600094859492169263e4860339926024808301939192829003018186803b158015613b7d57600080fd5b505afa158015613b91573d6000803e3d6000fd5b505050506040513d6040811015613ba757600080fd5b50602001516001600160a01b039081169085161491505092915050565b6040516001600160a01b03808516602483015283166044820152606481018290526123989085906323b872dd60e01b90608401613a66565b6040516001600160a01b038316602482015260448101829052610f4190849063a9059cbb60e01b90606401613a66565b600054610100900460ff1680613c45575060005460ff16155b613c615760405162461bcd60e51b8152600401610e3990614602565b600054610100900460ff16158015613c83576000805461ffff19166101011790555b613c8b6141ea565b613c936141ea565b80156110fb576000805461ff001916905550565b6110d3828261369d565b600054610100900460ff1680613cca575060005460ff16155b613ce65760405162461bcd60e51b8152600401610e3990614602565b600054610100900460ff16158015613d08576000805461ffff19166101011790555b613c93614254565b6000613d1c8484613a9d565b15613d345781613d2b84610d6a565b10159050610dbe565b506001600160a01b03808416600090815261016460209081526040808320938616835292905220548111159392505050565b60606000613d758360026146b4565b613d8090600261467c565b67ffffffffffffffff811115613da657634e487b7160e01b600052604160045260246000fd5b6040519080825280601f01601f191660200182016040528015613dd0576020820181803683370190505b509050600360fc1b81600081518110613df957634e487b7160e01b600052603260045260246000fd5b60200101906001600160f81b031916908160001a905350600f60fb1b81600181518110613e3657634e487b7160e01b600052603260045260246000fd5b60200101906001600160f81b031916908160001a9053506000613e5a8460026146b4565b613e6590600161467c565b90505b6001811115613ef9576f181899199a1a9b1b9c1cb0b131b232b360811b85600f1660108110613ea757634e487b7160e01b600052603260045260246000fd5b1a60f81b828281518110613ecb57634e487b7160e01b600052603260045260246000fd5b60200101906001600160f81b031916908160001a90535060049490941c93613ef281614716565b9050613e68565b508315610dbe5760405162461bcd60e51b815260206004820181905260248201527f537472696e67733a20686578206c656e67746820696e73756666696369656e746044820152606401610e39565b803b613fac5760405162461bcd60e51b815260206004820152602d60248201527f455243313936373a206e657720696d706c656d656e746174696f6e206973206e60448201526c1bdd08184818dbdb9d1c9858dd609a1b6064820152608401610e39565b7f360894a13ba1a3210667c828492db98dca3e2076cc3735a920a3ca505d382bbc80546001600160a01b0319166001600160a01b0392909216919091179055565b6060823b61404c5760405162461bcd60e51b815260206004820152602660248201527f416464726573733a2064656c65676174652063616c6c20746f206e6f6e2d636f6044820152651b9d1c9858dd60d21b6064820152608401610e39565b600080846001600160a01b03168460405161406791906144bd565b600060405180830381855af49150503d80600081146140a2576040519150601f19603f3d011682016040523d82523d6000602084013e6140a7565b606091505b50915091506140cf828260405180606001604052806027815260200161485c602791396142c5565b95945050505050565b6140e181613f48565b6040516001600160a01b038216907fbc7cd75a20ee27fd9adebab32041f755214dbc6bffa90cc0225b39da2e5c2d3b90600090a250565b600061416d826040518060400160405280602081526020017f5361666545524332303a206c6f772d6c6576656c2063616c6c206661696c6564815250856001600160a01b03166142fe9092919063ffffffff16565b805190915015610f41578080602001905181019061418b9190614485565b610f415760405162461bcd60e51b815260206004820152602a60248201527f5361666545524332303a204552433230206f7065726174696f6e20646964206e6044820152691bdd081cdd58d8d9595960b21b6064820152608401610e39565b600054610100900460ff1680614203575060005460ff16155b61421f5760405162461bcd60e51b8152600401610e3990614602565b600054610100900460ff16158015613c93576000805461ffff191661010117905580156110fb576000805461ff001916905550565b600054610100900460ff168061426d575060005460ff16155b6142895760405162461bcd60e51b8152600401610e3990614602565b600054610100900460ff161580156142ab576000805461ffff19166101011790555b600161012f5580156110fb576000805461ff001916905550565b606083156142d4575081610dbe565b8251156142e45782518084602001fd5b8160405162461bcd60e51b8152600401610e39919061454e565b6060612ddb848460008585843b6143575760405162461bcd60e51b815260206004820152601d60248201527f416464726573733a2063616c6c20746f206e6f6e2d636f6e74726163740000006044820152606401610e39565b600080866001600160a01b0316858760405161437391906144bd565b60006040518083038185875af1925050503d80600081146143b0576040519150601f19603f3d011682016040523d82523d6000602084013e6143b5565b606091505b50915091506143c58282866142c5565b979650505050505050565b828054828255906000526020600020908101928215614425579160200282015b8281111561442557825182546001600160a01b0319166001600160a01b039091161782556020909201916001909101906143f0565b50614431929150614470565b5090565b828054828255906000526020600020908101928215614425579160200282015b82811115614425578235825591602001919060010190614455565b5b808211156144315760008155600101614471565b600060208284031215614496578081fd5b81518015158114610dbe578182fd5b6000602082840312156144b6578081fd5b5051919050565b600082516144cf8184602087016146ea565b9190910192915050565b7f416363657373436f6e74726f6c3a206163636f756e74200000000000000000008152600083516145118160178501602088016146ea565b7001034b99036b4b9b9b4b733903937b6329607d1b60179184019182015283516145428160288401602088016146ea565b01602801949350505050565b602081526000825180602084015261456d8160408501602087016146ea565b601f01601f19169190910160400192915050565b60208082526015908201527421b7b73a3937b63632b91d103737ba1030b236b4b760591b604082015260600190565b60208082526032908201527f436f6e74726f6c6c65723a2063616c6c657220646f6573206e6f7420686176656040820152712074686520677561726469616e20726f6c6560701b606082015260800190565b6020808252602e908201527f496e697469616c697a61626c653a20636f6e747261637420697320616c72656160408201526d191e481a5b9a5d1a585b1a5e995960921b606082015260800190565b60208082526012908201527110dbdb9d1c9bdb1b195c8e881c185d5cd95960721b604082015260600190565b6000821982111561468f5761468f614748565b500190565b6000826146af57634e487b7160e01b81526012600452602481fd5b500490565b60008160001904831182151516156146ce576146ce614748565b500290565b6000828210156146e5576146e5614748565b500390565b60005b838110156147055781810151838201526020016146ed565b838111156123985750506000910152565b60008161472557614725614748565b506000190190565b600060001982141561474157614741614748565b5060010190565b634e487b7160e01b600052601160045260246000fdfe41737365744d616e616765723a2062616c616e6365206e6f7420656e6f75676820746f20776974686472617741737365744d616e616765723a207468657265206172652072656d61696e696e672066756e647320696e207468652066756e6420706f6f6c417373744d616e616765723a20726563697069656e742063616e206e6f74206265207a65726f41737365744d616e616765723a2073656e646572206d7573742075546f6b656e206f7220757365724d616e616765722172861495e7b85edac73e3cd5fbb42dd675baadf627720e687bcfdaca02509641737365744d616e616765723a20616d6f756e742063616e206e6f74206265207a65726f416464726573733a206c6f772d6c6576656c2064656c65676174652063616c6c206661696c6564a2646970667358221220cd81c76ff23711dd71a85857a6e1b0d3c7ad7cde136e38fe7390f87acf15060d64736f6c63430008040033",
  "devdoc": {
    "details": "Manage the token assets deposited by components and admins, and invest tokens to the integrated underlying lending protocols.",
    "events": {
      "LogDeposit(address,address,uint256)": {
        "details": "Emit when making a deposit",
        "params": {
          "account": "Account address",
          "amount": "Deposit amount, in wei",
          "token": "Depositing token address"
        }
      },
      "LogRebalance(address,uint256[])": {
        "details": "Emit when rebalancing among the integrated money markets",
        "params": {
          "percentages": "Array of the percentages of the tokens to deposit to the money markets",
          "tokenAddress": "The address of the token to be rebalanced"
        }
      },
      "LogWithdraw(address,address,uint256,uint256)": {
        "details": "Emit when withdrawing from AssetManager",
        "params": {
          "account": "Account address",
          "amount": "Withdraw amount, in wei",
          "remaining": "The amount cannot be withdrawn",
          "token": "Depositing token address"
        }
      }
    },
    "kind": "dev",
    "methods": {
      "addAdapter(address)": {
        "details": "Add a new adapter for the underlying lending protocol",
        "params": {
          "adapterAddress": "adapter address"
        }
      },
      "addAdmin(address)": {
        "details": "Add a new admin account",
        "params": {
          "account": "Account address"
        }
      },
      "addToken(address)": {
        "details": "Add a new ERC20 token to support in AssetManager",
        "params": {
          "tokenAddress": "ERC20 token address"
        }
      },
      "approveAllMarketsMax(address)": {
        "details": "For a give token set allowance for all integrated money markets",
        "params": {
          "tokenAddress": "ERC20 token address"
        }
      },
      "approveAllTokensMax(address)": {
        "details": "For a give moeny market set allowance for all underlying tokens",
        "params": {
          "adapterAddress": "Address of adaptor for money market"
        }
      },
      "changeWithdrawSequence(uint256[])": {
        "details": "Set withdraw sequence",
        "params": {
          "newSeq": "priority sequence of money market indices to be used while withdrawing"
        }
      },
      "claimTokens(address,address)": {
        "details": "Claim the tokens left on AssetManager balance, in case there are tokens get stuck here.",
        "params": {
          "recipient": "Recipient address",
          "tokenAddress": "ERC20 token address"
        }
      },
      "claimTokensFromAdapter(uint256,address,address)": {
        "details": "Claim the tokens stuck in the integrated adapters",
        "params": {
          "index": "MoneyMarkets array index",
          "recipient": "Recipient address",
          "tokenAddress": "ERC20 token address"
        }
      },
      "deposit(address,uint256)": {
        "details": "Deposit tokens to AssetManager, and those tokens will be passed along to adapters to deposit to integrated asset protocols if any is available.",
        "params": {
          "amount": "ERC20 token address",
          "token": "ERC20 token address"
        },
        "returns": {
          "_0": "Deposited amount"
        }
      },
      "getLoanableAmount(address)": {
        "details": "Returns the amount of the lending pool balance minus the amount of total staked.",
        "params": {
          "tokenAddress": "ERC20 token address"
        },
        "returns": {
          "_0": "Amount can be borrowed"
        }
      },
      "getMoneyMarket(address,uint256)": {
        "details": "Get the supported lending protocol",
        "params": {
          "marketId": "MoneyMarkets array index",
          "tokenAddress": "ERC20 token address"
        },
        "returns": {
          "rate": "tokenSupply, rate(compound is supplyRatePerBlock 1e18, aave is supplyRatePerYear 1e27)"
        }
      },
      "getPoolBalance(address)": {
        "details": "Get the balance of asset manager, plus the total amount of tokens deposited to all the underlying lending protocols",
        "params": {
          "tokenAddress": "ERC20 token address"
        },
        "returns": {
          "_0": "Pool balance"
        }
      },
      "getRoleAdmin(bytes32)": {
        "details": "Returns the admin role that controls `role`. See {grantRole} and {revokeRole}. To change a role's admin, use {_setRoleAdmin}."
      },
      "grantRole(bytes32,address)": {
        "details": "Grants `role` to `account`. If `account` had not been already granted `role`, emits a {RoleGranted} event. Requirements: - the caller must have ``role``'s admin role."
      },
      "hasRole(bytes32,address)": {
        "details": "Returns `true` if `account` has been granted `role`."
      },
      "isAdmin(address)": {
        "details": "Check if the address provided is the admin",
        "params": {
          "account": "Account address"
        }
      },
      "isMarketSupported(address)": {
        "details": "Check if there is an underlying protocol available for the given ERC20 token.",
        "params": {
          "tokenAddress": "ERC20 token address"
        },
        "returns": {
          "_0": "Whether is supported"
        }
      },
      "moneyMarketsCount()": {
        "details": "Get the number of supported underlying protocols.",
        "returns": {
          "_0": "MoneyMarkets length"
        }
      },
      "pause()": {
        "details": "Called by a pauser to pause, triggers stopped state."
      },
      "paused()": {
        "details": "Returns true if the contract is paused, and false otherwise."
      },
      "rebalance(address,uint256[])": {
        "details": "Take all the supply of `tokenAddress` and redistribute it according to `percentages`. Rejects if the token is not supported.",
        "params": {
          "percentages": "A list of percentages, expressed as units in 10000, indicating how to deposit the tokens in each underlying money market. The length of this array is one less than the amount of money markets: the last money market will receive the remaining tokens. For example, if there are 3 money markets, and you want to rebalance so that the first one has 10.5% of the tokens, the second one 55%, and the third one 34.5%, this param will be [1050, 5500].",
          "tokenAddress": "Address of the token that is going to be rebalanced"
        }
      },
      "renounceAdmin()": {
        "details": "Renouce the admin from the sender's address"
      },
      "renounceRole(bytes32,address)": {
        "details": "Revokes `role` from the calling account. Roles are often managed via {grantRole} and {revokeRole}: this function's purpose is to provide a mechanism for accounts to lose their privileges if they are compromised (such as when a trusted device is misplaced). If the calling account had been granted `role`, emits a {RoleRevoked} event. Requirements: - the caller must be `account`."
      },
      "revokeRole(bytes32,address)": {
        "details": "Revokes `role` from `account`. If `account` had been granted `role`, emits a {RoleRevoked} event. Requirements: - the caller must have ``role``'s admin role."
      },
      "setGuardian(address)": {
        "details": "Set pauseGuardian account",
        "params": {
          "account": "Account address"
        }
      },
      "supportedTokensCount()": {
        "details": "Get the count of supported tokens",
        "returns": {
          "_0": "Number of supported tokens"
        }
      },
      "supportsInterface(bytes4)": {
        "details": "See {IERC165-supportsInterface}."
      },
      "totalSupply(address)": {
        "details": "Get the total amount of tokens deposited to all the integrated underlying protocols without side effects.",
        "params": {
          "tokenAddress": "ERC20 token address"
        },
        "returns": {
          "_0": "Total market balance"
        }
      },
      "totalSupplyView(address)": {
        "details": "Get the total amount of tokens deposited to all the integrated underlying protocols, but without side effects. Safe to call anytime, but may not get the most updated number for the current block. Call totalSupply() for that purpose.",
        "params": {
          "tokenAddress": "ERC20 token address"
        },
        "returns": {
          "_0": "Total market balance"
        }
      },
      "unpause()": {
        "details": "Called by a pauser to unpause, returns to normal state."
      },
      "upgradeTo(address)": {
        "details": "Upgrade the implementation of the proxy to `newImplementation`. Calls {_authorizeUpgrade}. Emits an {Upgraded} event."
      },
      "upgradeToAndCall(address,bytes)": {
        "details": "Upgrade the implementation of the proxy to `newImplementation`, and subsequently execute the function call encoded in `data`. Calls {_authorizeUpgrade}. Emits an {Upgraded} event."
      },
      "withdraw(address,address,uint256)": {
        "details": "Withdraw from AssetManager",
        "params": {
          "account": "User address",
          "amount": "ERC20 token address",
          "token": "ERC20 token address"
        },
        "returns": {
          "_0": "Withdraw amount"
        }
      }
    },
    "title": "AssetManager",
    "version": 1
  },
  "userdoc": {
    "kind": "user",
    "methods": {},
    "version": 1
  },
  "storageLayout": {
    "storage": [
      {
        "astId": 821,
        "contract": "contracts/asset/AssetManager.sol:AssetManager",
        "label": "_initialized",
        "offset": 0,
        "slot": "0",
        "type": "t_bool"
      },
      {
        "astId": 824,
        "contract": "contracts/asset/AssetManager.sol:AssetManager",
        "label": "_initializing",
        "offset": 1,
        "slot": "0",
        "type": "t_bool"
      },
      {
        "astId": 804,
        "contract": "contracts/asset/AssetManager.sol:AssetManager",
        "label": "__gap",
        "offset": 0,
        "slot": "1",
        "type": "t_array(t_uint256)50_storage"
      },
      {
        "astId": 937,
        "contract": "contracts/asset/AssetManager.sol:AssetManager",
        "label": "__gap",
        "offset": 0,
        "slot": "51",
        "type": "t_array(t_uint256)50_storage"
      },
      {
        "astId": 2184,
        "contract": "contracts/asset/AssetManager.sol:AssetManager",
        "label": "__gap",
        "offset": 0,
        "slot": "101",
        "type": "t_array(t_uint256)50_storage"
      },
      {
        "astId": 2493,
        "contract": "contracts/asset/AssetManager.sol:AssetManager",
        "label": "__gap",
        "offset": 0,
        "slot": "151",
        "type": "t_array(t_uint256)50_storage"
      },
      {
        "astId": 48,
        "contract": "contracts/asset/AssetManager.sol:AssetManager",
        "label": "_roles",
        "offset": 0,
        "slot": "201",
        "type": "t_mapping(t_bytes32,t_struct(RoleData)43_storage)"
      },
      {
        "astId": 333,
        "contract": "contracts/asset/AssetManager.sol:AssetManager",
        "label": "__gap",
        "offset": 0,
        "slot": "202",
        "type": "t_array(t_uint256)49_storage"
      },
      {
        "astId": 10453,
        "contract": "contracts/asset/AssetManager.sol:AssetManager",
        "label": "_admins",
        "offset": 0,
        "slot": "251",
        "type": "t_mapping(t_address,t_address)"
      },
      {
        "astId": 10455,
        "contract": "contracts/asset/AssetManager.sol:AssetManager",
        "label": "_paused",
        "offset": 0,
        "slot": "252",
        "type": "t_bool"
      },
      {
        "astId": 10457,
        "contract": "contracts/asset/AssetManager.sol:AssetManager",
        "label": "pauseGuardian",
        "offset": 1,
        "slot": "252",
        "type": "t_address"
      },
      {
        "astId": 10697,
        "contract": "contracts/asset/AssetManager.sol:AssetManager",
        "label": "______gap",
        "offset": 0,
        "slot": "253",
        "type": "t_array(t_uint256)50_storage"
      },
      {
        "astId": 952,
        "contract": "contracts/asset/AssetManager.sol:AssetManager",
        "label": "_status",
        "offset": 0,
        "slot": "303",
        "type": "t_uint256"
      },
      {
        "astId": 995,
        "contract": "contracts/asset/AssetManager.sol:AssetManager",
        "label": "__gap",
        "offset": 0,
        "slot": "304",
        "type": "t_array(t_uint256)49_storage"
      },
      {
        "astId": 11344,
        "contract": "contracts/asset/AssetManager.sol:AssetManager",
        "label": "moneyMarkets",
        "offset": 0,
        "slot": "353",
        "type": "t_array(t_contract(IMoneyMarketAdapter)14577)dyn_storage"
      },
      {
        "astId": 11349,
        "contract": "contracts/asset/AssetManager.sol:AssetManager",
        "label": "supportedMarkets",
        "offset": 0,
        "slot": "354",
        "type": "t_mapping(t_address,t_struct(Market)11370_storage)"
      },
      {
        "astId": 11352,
        "contract": "contracts/asset/AssetManager.sol:AssetManager",
        "label": "supportedTokensList",
        "offset": 0,
        "slot": "355",
        "type": "t_array(t_address)dyn_storage"
      },
      {
        "astId": 11358,
        "contract": "contracts/asset/AssetManager.sol:AssetManager",
        "label": "balances",
        "offset": 0,
        "slot": "356",
        "type": "t_mapping(t_address,t_mapping(t_address,t_uint256))"
      },
      {
        "astId": 11362,
        "contract": "contracts/asset/AssetManager.sol:AssetManager",
        "label": "totalPrincipal",
        "offset": 0,
        "slot": "357",
        "type": "t_mapping(t_address,t_uint256)"
      },
      {
        "astId": 11364,
        "contract": "contracts/asset/AssetManager.sol:AssetManager",
        "label": "marketRegistry",
        "offset": 0,
        "slot": "358",
        "type": "t_address"
      },
      {
        "astId": 11367,
        "contract": "contracts/asset/AssetManager.sol:AssetManager",
        "label": "withdrawSeq",
        "offset": 0,
        "slot": "359",
        "type": "t_array(t_uint256)dyn_storage"
      }
    ],
    "types": {
      "t_address": {
        "encoding": "inplace",
        "label": "address",
        "numberOfBytes": "20"
      },
      "t_array(t_address)dyn_storage": {
        "base": "t_address",
        "encoding": "dynamic_array",
        "label": "address[]",
        "numberOfBytes": "32"
      },
      "t_array(t_contract(IMoneyMarketAdapter)14577)dyn_storage": {
        "base": "t_contract(IMoneyMarketAdapter)14577",
        "encoding": "dynamic_array",
        "label": "contract IMoneyMarketAdapter[]",
        "numberOfBytes": "32"
      },
      "t_array(t_uint256)49_storage": {
        "base": "t_uint256",
        "encoding": "inplace",
        "label": "uint256[49]",
        "numberOfBytes": "1568"
      },
      "t_array(t_uint256)50_storage": {
        "base": "t_uint256",
        "encoding": "inplace",
        "label": "uint256[50]",
        "numberOfBytes": "1600"
      },
      "t_array(t_uint256)dyn_storage": {
        "base": "t_uint256",
        "encoding": "dynamic_array",
        "label": "uint256[]",
        "numberOfBytes": "32"
      },
      "t_bool": {
        "encoding": "inplace",
        "label": "bool",
        "numberOfBytes": "1"
      },
      "t_bytes32": {
        "encoding": "inplace",
        "label": "bytes32",
        "numberOfBytes": "32"
      },
      "t_contract(IMoneyMarketAdapter)14577": {
        "encoding": "inplace",
        "label": "contract IMoneyMarketAdapter",
        "numberOfBytes": "20"
      },
      "t_mapping(t_address,t_address)": {
        "encoding": "mapping",
        "key": "t_address",
        "label": "mapping(address => address)",
        "numberOfBytes": "32",
        "value": "t_address"
      },
      "t_mapping(t_address,t_bool)": {
        "encoding": "mapping",
        "key": "t_address",
        "label": "mapping(address => bool)",
        "numberOfBytes": "32",
        "value": "t_bool"
      },
      "t_mapping(t_address,t_mapping(t_address,t_uint256))": {
        "encoding": "mapping",
        "key": "t_address",
        "label": "mapping(address => mapping(address => uint256))",
        "numberOfBytes": "32",
        "value": "t_mapping(t_address,t_uint256)"
      },
      "t_mapping(t_address,t_struct(Market)11370_storage)": {
        "encoding": "mapping",
        "key": "t_address",
        "label": "mapping(address => struct AssetManager.Market)",
        "numberOfBytes": "32",
        "value": "t_struct(Market)11370_storage"
      },
      "t_mapping(t_address,t_uint256)": {
        "encoding": "mapping",
        "key": "t_address",
        "label": "mapping(address => uint256)",
        "numberOfBytes": "32",
        "value": "t_uint256"
      },
      "t_mapping(t_bytes32,t_struct(RoleData)43_storage)": {
        "encoding": "mapping",
        "key": "t_bytes32",
        "label": "mapping(bytes32 => struct AccessControlUpgradeable.RoleData)",
        "numberOfBytes": "32",
        "value": "t_struct(RoleData)43_storage"
      },
      "t_struct(Market)11370_storage": {
        "encoding": "inplace",
        "label": "struct AssetManager.Market",
        "members": [
          {
            "astId": 11369,
            "contract": "contracts/asset/AssetManager.sol:AssetManager",
            "label": "isSupported",
            "offset": 0,
            "slot": "0",
            "type": "t_bool"
          }
        ],
        "numberOfBytes": "32"
      },
      "t_struct(RoleData)43_storage": {
        "encoding": "inplace",
        "label": "struct AccessControlUpgradeable.RoleData",
        "members": [
          {
            "astId": 40,
            "contract": "contracts/asset/AssetManager.sol:AssetManager",
            "label": "members",
            "offset": 0,
            "slot": "0",
            "type": "t_mapping(t_address,t_bool)"
          },
          {
            "astId": 42,
            "contract": "contracts/asset/AssetManager.sol:AssetManager",
            "label": "adminRole",
            "offset": 0,
            "slot": "1",
            "type": "t_bytes32"
          }
        ],
        "numberOfBytes": "64"
      },
      "t_uint256": {
        "encoding": "inplace",
        "label": "uint256",
        "numberOfBytes": "32"
      }
    }
  }
}