{
  "address": "0x83Fd9B96b8d225d2Bf08Ce80321D443cde78A8Eb",
  "abi": [
    {
      "anonymous": false,
      "inputs": [
        {
          "indexed": false,
          "internalType": "address",
          "name": "previousAdmin",
          "type": "address"
        },
        {
          "indexed": false,
          "internalType": "address",
          "name": "newAdmin",
          "type": "address"
        }
      ],
      "name": "AdminChanged",
      "type": "event"
    },
    {
      "anonymous": false,
      "inputs": [
        {
          "indexed": true,
          "internalType": "address",
          "name": "beacon",
          "type": "address"
        }
      ],
      "name": "BeaconUpgraded",
      "type": "event"
    },
    {
      "anonymous": false,
      "inputs": [
        {
          "indexed": true,
          "internalType": "address",
          "name": "account",
          "type": "address"
        },
        {
          "indexed": false,
          "internalType": "uint256",
          "name": "amount",
          "type": "uint256"
        }
      ],
      "name": "LogWithdrawRewards",
      "type": "event"
    },
    {
      "anonymous": false,
      "inputs": [
        {
          "indexed": false,
          "internalType": "address",
          "name": "account",
          "type": "address"
        }
      ],
      "name": "Paused",
      "type": "event"
    },
    {
      "anonymous": false,
      "inputs": [
        {
          "indexed": true,
          "internalType": "bytes32",
          "name": "role",
          "type": "bytes32"
        },
        {
          "indexed": true,
          "internalType": "bytes32",
          "name": "previousAdminRole",
          "type": "bytes32"
        },
        {
          "indexed": true,
          "internalType": "bytes32",
          "name": "newAdminRole",
          "type": "bytes32"
        }
      ],
      "name": "RoleAdminChanged",
      "type": "event"
    },
    {
      "anonymous": false,
      "inputs": [
        {
          "indexed": true,
          "internalType": "bytes32",
          "name": "role",
          "type": "bytes32"
        },
        {
          "indexed": true,
          "internalType": "address",
          "name": "account",
          "type": "address"
        },
        {
          "indexed": true,
          "internalType": "address",
          "name": "sender",
          "type": "address"
        }
      ],
      "name": "RoleGranted",
      "type": "event"
    },
    {
      "anonymous": false,
      "inputs": [
        {
          "indexed": true,
          "internalType": "bytes32",
          "name": "role",
          "type": "bytes32"
        },
        {
          "indexed": true,
          "internalType": "address",
          "name": "account",
          "type": "address"
        },
        {
          "indexed": true,
          "internalType": "address",
          "name": "sender",
          "type": "address"
        }
      ],
      "name": "RoleRevoked",
      "type": "event"
    },
    {
      "anonymous": false,
      "inputs": [
        {
          "indexed": false,
          "internalType": "address",
          "name": "account",
          "type": "address"
        }
      ],
      "name": "Unpaused",
      "type": "event"
    },
    {
      "anonymous": false,
      "inputs": [
        {
          "indexed": true,
          "internalType": "address",
          "name": "implementation",
          "type": "address"
        }
      ],
      "name": "Upgraded",
      "type": "event"
    },
    {
      "inputs": [],
      "name": "DEFAULT_ADMIN_ROLE",
      "outputs": [
        {
          "internalType": "bytes32",
          "name": "",
          "type": "bytes32"
        }
      ],
      "stateMutability": "view",
      "type": "function"
    },
    {
      "inputs": [],
      "name": "INIT_INFLATION_INDEX",
      "outputs": [
        {
          "internalType": "uint256",
          "name": "",
          "type": "uint256"
        }
      ],
      "stateMutability": "view",
      "type": "function"
    },
    {
      "inputs": [],
      "name": "ROLE_ADMIN",
      "outputs": [
        {
          "internalType": "bytes32",
          "name": "",
          "type": "bytes32"
        }
      ],
      "stateMutability": "view",
      "type": "function"
    },
    {
      "inputs": [
        {
          "internalType": "address",
          "name": "unionToken_",
          "type": "address"
        },
        {
          "internalType": "address",
          "name": "marketRegistry_",
          "type": "address"
        }
      ],
      "name": "__Comptroller_init",
      "outputs": [],
      "stateMutability": "nonpayable",
      "type": "function"
    },
    {
      "inputs": [
        {
          "internalType": "address",
          "name": "admin_",
          "type": "address"
        }
      ],
      "name": "__Controller_init",
      "outputs": [],
      "stateMutability": "nonpayable",
      "type": "function"
    },
    {
      "inputs": [
        {
          "internalType": "address",
          "name": "account",
          "type": "address"
        }
      ],
      "name": "addAdmin",
      "outputs": [],
      "stateMutability": "nonpayable",
      "type": "function"
    },
    {
      "inputs": [
        {
          "internalType": "address",
          "name": "staker",
          "type": "address"
        },
        {
          "internalType": "address",
          "name": "token",
          "type": "address"
        },
        {
          "internalType": "uint256",
          "name": "lockedStake",
          "type": "uint256"
        },
        {
          "internalType": "uint256",
          "name": "lastRepay",
          "type": "uint256"
        }
      ],
      "name": "addFrozenCoinAge",
      "outputs": [],
      "stateMutability": "nonpayable",
      "type": "function"
    },
    {
      "inputs": [
        {
          "internalType": "address",
          "name": "account",
          "type": "address"
        },
        {
          "internalType": "address",
          "name": "token",
          "type": "address"
        }
      ],
      "name": "calculateRewards",
      "outputs": [
        {
          "internalType": "uint256",
          "name": "",
          "type": "uint256"
        }
      ],
      "stateMutability": "view",
      "type": "function"
    },
    {
      "inputs": [
        {
          "internalType": "address",
          "name": "account",
          "type": "address"
        },
        {
          "internalType": "address",
          "name": "token",
          "type": "address"
        },
        {
          "internalType": "uint256",
          "name": "futureBlocks",
          "type": "uint256"
        }
      ],
      "name": "calculateRewardsByBlocks",
      "outputs": [
        {
          "internalType": "uint256",
          "name": "",
          "type": "uint256"
        }
      ],
      "stateMutability": "view",
      "type": "function"
    },
    {
      "inputs": [],
      "name": "gInflationIndex",
      "outputs": [
        {
          "internalType": "uint256",
          "name": "",
          "type": "uint256"
        }
      ],
      "stateMutability": "view",
      "type": "function"
    },
    {
      "inputs": [],
      "name": "gLastUpdatedBlock",
      "outputs": [
        {
          "internalType": "uint256",
          "name": "",
          "type": "uint256"
        }
      ],
      "stateMutability": "view",
      "type": "function"
    },
    {
      "inputs": [
        {
          "internalType": "address",
          "name": "account",
          "type": "address"
        },
        {
          "internalType": "address",
          "name": "token",
          "type": "address"
        }
      ],
      "name": "getRewardsMultiplier",
      "outputs": [
        {
          "internalType": "uint256",
          "name": "",
          "type": "uint256"
        }
      ],
      "stateMutability": "view",
      "type": "function"
    },
    {
      "inputs": [
        {
          "internalType": "bytes32",
          "name": "role",
          "type": "bytes32"
        }
      ],
      "name": "getRoleAdmin",
      "outputs": [
        {
          "internalType": "bytes32",
          "name": "",
          "type": "bytes32"
        }
      ],
      "stateMutability": "view",
      "type": "function"
    },
    {
      "inputs": [
        {
          "internalType": "bytes32",
          "name": "role",
          "type": "bytes32"
        },
        {
          "internalType": "address",
          "name": "account",
          "type": "address"
        }
      ],
      "name": "grantRole",
      "outputs": [],
      "stateMutability": "nonpayable",
      "type": "function"
    },
    {
      "inputs": [],
      "name": "halfDecayPoint",
      "outputs": [
        {
          "internalType": "uint256",
          "name": "",
          "type": "uint256"
        }
      ],
      "stateMutability": "view",
      "type": "function"
    },
    {
      "inputs": [
        {
          "internalType": "bytes32",
          "name": "role",
          "type": "bytes32"
        },
        {
          "internalType": "address",
          "name": "account",
          "type": "address"
        }
      ],
      "name": "hasRole",
      "outputs": [
        {
          "internalType": "bool",
          "name": "",
          "type": "bool"
        }
      ],
      "stateMutability": "view",
      "type": "function"
    },
    {
      "inputs": [
        {
          "internalType": "uint256",
          "name": "effectiveTotalStake",
          "type": "uint256"
        }
      ],
      "name": "inflationPerBlock",
      "outputs": [
        {
          "internalType": "uint256",
          "name": "",
          "type": "uint256"
        }
      ],
      "stateMutability": "view",
      "type": "function"
    },
    {
      "inputs": [
        {
          "internalType": "address",
          "name": "account",
          "type": "address"
        }
      ],
      "name": "isAdmin",
      "outputs": [
        {
          "internalType": "bool",
          "name": "",
          "type": "bool"
        }
      ],
      "stateMutability": "view",
      "type": "function"
    },
    {
      "inputs": [
        {
          "internalType": "uint256",
          "name": "index",
          "type": "uint256"
        }
      ],
      "name": "lookup",
      "outputs": [
        {
          "internalType": "uint256",
          "name": "",
          "type": "uint256"
        }
      ],
      "stateMutability": "pure",
      "type": "function"
    },
    {
      "inputs": [],
      "name": "marketRegistry",
      "outputs": [
        {
          "internalType": "contract IMarketRegistry",
          "name": "",
          "type": "address"
        }
      ],
      "stateMutability": "view",
      "type": "function"
    },
    {
      "inputs": [],
      "name": "memberRatio",
      "outputs": [
        {
          "internalType": "uint256",
          "name": "",
          "type": "uint256"
        }
      ],
      "stateMutability": "view",
      "type": "function"
    },
    {
      "inputs": [],
      "name": "nonMemberRatio",
      "outputs": [
        {
          "internalType": "uint256",
          "name": "",
          "type": "uint256"
        }
      ],
      "stateMutability": "view",
      "type": "function"
    },
    {
      "inputs": [],
      "name": "pause",
      "outputs": [],
      "stateMutability": "nonpayable",
      "type": "function"
    },
    {
      "inputs": [],
      "name": "pauseGuardian",
      "outputs": [
        {
          "internalType": "address",
          "name": "",
          "type": "address"
        }
      ],
      "stateMutability": "view",
      "type": "function"
    },
    {
      "inputs": [],
      "name": "paused",
      "outputs": [
        {
          "internalType": "bool",
          "name": "",
          "type": "bool"
        }
      ],
      "stateMutability": "view",
      "type": "function"
    },
    {
      "inputs": [],
      "name": "renounceAdmin",
      "outputs": [],
      "stateMutability": "nonpayable",
      "type": "function"
    },
    {
      "inputs": [
        {
          "internalType": "bytes32",
          "name": "role",
          "type": "bytes32"
        },
        {
          "internalType": "address",
          "name": "account",
          "type": "address"
        }
      ],
      "name": "renounceRole",
      "outputs": [],
      "stateMutability": "nonpayable",
      "type": "function"
    },
    {
      "inputs": [
        {
          "internalType": "bytes32",
          "name": "role",
          "type": "bytes32"
        },
        {
          "internalType": "address",
          "name": "account",
          "type": "address"
        }
      ],
      "name": "revokeRole",
      "outputs": [],
      "stateMutability": "nonpayable",
      "type": "function"
    },
    {
      "inputs": [
        {
          "internalType": "address",
          "name": "account",
          "type": "address"
        }
      ],
      "name": "setGuardian",
      "outputs": [],
      "stateMutability": "nonpayable",
      "type": "function"
    },
    {
      "inputs": [
        {
          "internalType": "uint256",
          "name": "point",
          "type": "uint256"
        }
      ],
      "name": "setHalfDecayPoint",
      "outputs": [],
      "stateMutability": "nonpayable",
      "type": "function"
    },
    {
      "inputs": [
        {
          "internalType": "bytes4",
          "name": "interfaceId",
          "type": "bytes4"
        }
      ],
      "name": "supportsInterface",
      "outputs": [
        {
          "internalType": "bool",
          "name": "",
          "type": "bool"
        }
      ],
      "stateMutability": "view",
      "type": "function"
    },
    {
      "inputs": [],
      "name": "unionToken",
      "outputs": [
        {
          "internalType": "contract IERC20Upgradeable",
          "name": "",
          "type": "address"
        }
      ],
      "stateMutability": "view",
      "type": "function"
    },
    {
      "inputs": [],
      "name": "unpause",
      "outputs": [],
      "stateMutability": "nonpayable",
      "type": "function"
    },
    {
      "inputs": [
        {
          "internalType": "address",
          "name": "token",
          "type": "address"
        },
        {
          "internalType": "uint256",
          "name": "totalStaked",
          "type": "uint256"
        }
      ],
      "name": "updateTotalStaked",
      "outputs": [
        {
          "internalType": "bool",
          "name": "",
          "type": "bool"
        }
      ],
      "stateMutability": "nonpayable",
      "type": "function"
    },
    {
      "inputs": [
        {
          "internalType": "address",
          "name": "newImplementation",
          "type": "address"
        }
      ],
      "name": "upgradeTo",
      "outputs": [],
      "stateMutability": "nonpayable",
      "type": "function"
    },
    {
      "inputs": [
        {
          "internalType": "address",
          "name": "newImplementation",
          "type": "address"
        },
        {
          "internalType": "bytes",
          "name": "data",
          "type": "bytes"
        }
      ],
      "name": "upgradeToAndCall",
      "outputs": [],
      "stateMutability": "payable",
      "type": "function"
    },
    {
      "inputs": [
        {
          "internalType": "address",
          "name": "",
          "type": "address"
        },
        {
          "internalType": "address",
          "name": "",
          "type": "address"
        }
      ],
      "name": "users",
      "outputs": [
        {
          "internalType": "uint256",
          "name": "frozenCoinAge",
          "type": "uint256"
        },
        {
          "internalType": "uint256",
          "name": "updatedBlock",
          "type": "uint256"
        },
        {
          "internalType": "uint256",
          "name": "inflationIndex",
          "type": "uint256"
        },
        {
          "internalType": "uint256",
          "name": "accrued",
          "type": "uint256"
        }
      ],
      "stateMutability": "view",
      "type": "function"
    },
    {
      "inputs": [
        {
          "internalType": "address",
          "name": "sender",
          "type": "address"
        },
        {
          "internalType": "address",
          "name": "token",
          "type": "address"
        }
      ],
      "name": "withdrawRewards",
      "outputs": [
        {
          "internalType": "uint256",
          "name": "",
          "type": "uint256"
        }
      ],
      "stateMutability": "nonpayable",
      "type": "function"
    }
  ],
  "transactionHash": "0xdf959639cbafcec577c64cfda5ad48a653a2d831011035880ba1ce5b7c82dc89",
  "args": [],
  "solcInputHash": "815da1a7bd393b91c2edbc66164c6945",
  "bytecode": "0x608060405234801561001057600080fd5b50612e20806100206000396000f3fe6080604052600436106102245760003560e01c8063677e1de711610123578063973e5ad5116100ab578063d391014b1161006f578063d391014b14610665578063d547741f14610687578063e20981ca146106a7578063ecb96fe6146106c7578063f70222e1146106e857600080fd5b8063973e5ad5146105fd578063a068b33c14610614578063a217fddf14610630578063a84afb3014610645578063cf996b601461061457600080fd5b80637f38a81a116100f25780637f38a81a146105775780638456cb59146105935780638a0dac4a146105a85780638bad0c0a146105c857806391d14854146105dd57600080fd5b8063677e1de7146104f75780636c461a7314610517578063704802751461053757806377e90d061461055757600080fd5b80632f2ff15d116101b15780634f1ef286116101755780634f1ef28614610427578063552563131461043a5780635c975abb1461045a5780635e80536a14610472578063624a169c146104e057600080fd5b80632f2ff15d1461039b57806336568abe146103bb5780633659cfe6146103db5780633f4ba83a146103fb57806340a766341461041057600080fd5b80630cc9c970116101f85780630cc9c970146102cc578063248a9ca3146102ee57806324a3d6221461031e57806324d7806c1461035b578063267042601461037b57600080fd5b8062c9d5091461022957806301ffc9a71461025c57806304a328831461028c5780630a874df6146102ac575b600080fd5b34801561023557600080fd5b50610249610244366004612837565b610709565b6040519081526020015b60405180910390f35b34801561026857600080fd5b5061027c610277366004612a68565b610720565b6040519015158152602001610253565b34801561029857600080fd5b506102496102a7366004612a2c565b610755565b3480156102b857600080fd5b506102496102c7366004612a2c565b610779565b3480156102d857600080fd5b506102ec6102e7366004612a2c565b6108e9565b005b3480156102fa57600080fd5b50610249610309366004612a2c565b600090815260c9602052604090206001015490565b34801561032a57600080fd5b5060fc546103439061010090046001600160a01b031681565b6040516001600160a01b039091168152602001610253565b34801561036757600080fd5b5061027c61037636600461281b565b61092c565b34801561038757600080fd5b5061027c6103963660046129e1565b610946565b3480156103a757600080fd5b506102ec6103b6366004612a44565b6109da565b3480156103c757600080fd5b506102ec6103d6366004612a44565b610a05565b3480156103e757600080fd5b506102ec6103f636600461281b565b610a83565b34801561040757600080fd5b506102ec610aaa565b34801561041c57600080fd5b5061024961012f5481565b6102ec610435366004612922565b610b64565b34801561044657600080fd5b506102ec6104553660046128dd565b610b79565b34801561046657600080fd5b5060fc5460ff1661027c565b34801561047e57600080fd5b506104c061048d366004612837565b61013460209081526000928352604080842090915290825290208054600182015460028301546003909301549192909184565b604080519485526020850193909352918301526060820152608001610253565b3480156104ec57600080fd5b506102496101305481565b34801561050357600080fd5b506102ec610512366004612837565b610c56565b34801561052357600080fd5b506102ec61053236600461281b565b610d18565b34801561054357600080fd5b506102ec61055236600461281b565b610e48565b34801561056357600080fd5b5061024961057236600461289d565b610f80565b34801561058357600080fd5b50610249670a688906bd8b000081565b34801561059f57600080fd5b506102ec611421565b3480156105b457600080fd5b506102ec6105c336600461281b565b6114b0565b3480156105d457600080fd5b506102ec61150c565b3480156105e957600080fd5b5061027c6105f8366004612a44565b611543565b34801561060957600080fd5b506102496101315481565b34801561062057600080fd5b50610249670de0b6b3a764000081565b34801561063c57600080fd5b50610249600081565b34801561065157600080fd5b50610249610660366004612837565b61156e565b34801561067157600080fd5b50610249600080516020612da483398151915281565b34801561069357600080fd5b506102ec6106a2366004612a44565b611790565b3480156106b357600080fd5b506102496106c2366004612837565b6117b6565b3480156106d357600080fd5b5061013354610343906001600160a01b031681565b3480156106f457600080fd5b5061013254610343906001600160a01b031681565b600061071783836000610f80565b90505b92915050565b60006001600160e01b03198216637965db0b60e01b148061071a57506301ffc9a760e01b6001600160e01b031983161461071a565b60008061012f54836107679190612cc5565b905061077281610779565b9392505050565b60006509184e72a00082116107975750670de0b6b3a7640000919050565b655af3107a400082116107b35750670c7d713b49da0000919050565b66038d7ea4c6800082116107d05750670b1a2bc2ec500000919050565b662386f26fc1000082116107ed57506709b6e64a8ec60000919050565b67016345785d8a0000821161080b5750670853a0d2313c0000919050565b670de0b6b3a7640000821161082957506706f05b59d3b20000919050565b674563918244f40000821161084757506703782dace9d90000919050565b678ac7230489e800008211610865575067016345785d8a0000919050565b68056bc75e2d6310000082116108835750662386f26fc10000919050565b683635c9adc5dea0000082116108a1575066038d7ea4c68000919050565b69021e19e0c9bab240000082116108bf5750655af3107a4000919050565b69152d02c7e14af680000082116108dd57506509184e72a000919050565b5064e8d4a51000919050565b610901600080516020612da483398151915233611543565b6109265760405162461bcd60e51b815260040161091d90612b6c565b60405180910390fd5b61012f55565b600061071a600080516020612da483398151915283611543565b60fc5460009060ff161561096c5760405162461bcd60e51b815260040161091d90612c81565b8261097681611afe565b6001600160a01b0316336001600160a01b0316146109a65760405162461bcd60e51b815260040161091d90612bed565b82156109c9576109c48361013154436109bf9190612d04565b611b7c565b610130555b4361013155600191505b5092915050565b600082815260c960205260409020600101546109f68133611baf565b610a008383611c13565b505050565b6001600160a01b0381163314610a755760405162461bcd60e51b815260206004820152602f60248201527f416363657373436f6e74726f6c3a2063616e206f6e6c792072656e6f756e636560448201526e103937b632b9903337b91039b2b63360891b606482015260840161091d565b610a7f8282611c99565b5050565b610a8c81611d00565b610aa781604051806020016040528060008152506000611d34565b50565b60fc5461010090046001600160a01b03163314610ad95760405162461bcd60e51b815260040161091d90612b9b565b60fc5460ff16610b245760405162461bcd60e51b815260206004820152601660248201527510dbdb9d1c9bdb1b195c8e881b9bdd081c185d5cd95960521b604482015260640161091d565b60fc805460ff191690556040513381527f5db9ee0a495bf2e6ff9c91a7834c1ba4fdd244a5e8aa4e537bd38aeae4b073aa906020015b60405180910390a1565b610b6d82611d00565b610a7f82826001611d34565b82610b8381611afe565b6001600160a01b0316336001600160a01b031614610bb35760405162461bcd60e51b815260040161091d90612bed565b6001600160a01b038086166000908152610134602090815260408083209388168352929052908120600101549083821115610bf957610bf28243612d04565b9050610c06565b610c038443612d04565b90505b610c108186612ce5565b6001600160a01b03808916600090815261013460209081526040808320938b1683529290529081208054909190610c48908490612cad565b909155505050505050505050565b600054610100900460ff1680610c6f575060005460ff16155b610c8b5760405162461bcd60e51b815260040161091d90612c33565b600054610100900460ff16158015610cad576000805461ffff19166101011790555b610cb633610d18565b61013280546001600160a01b038086166001600160a01b031992831617909255610133805492851692909116919091179055670de0b6b3a7640000610130554361013155620186a061012f558015610a00576000805461ff0019169055505050565b600054610100900460ff1680610d31575060005460ff16155b610d4d5760405162461bcd60e51b815260040161091d90612c33565b600054610100900460ff16158015610d6f576000805461ffff19166101011790555b6001600160a01b038216610dc05760405162461bcd60e51b8152602060048201526018602482015277436f6e74726f6c6c65723a2061646472657373207a65726f60401b604482015260640161091d565b60fc805460ff191690556001600160a01b038216600081815260fb6020526040902080546001600160a01b0319169091179055610dfb611ebc565b610e13600080516020612da483398151915283611f37565b60fc8054610100600160a81b0319166101006001600160a01b038516021790558015610a7f576000805461ff00191690555050565b610e60600080516020612da483398151915233611543565b610e7c5760405162461bcd60e51b815260040161091d90612b6c565b6001600160a01b038116610ecd5760405162461bcd60e51b8152602060048201526018602482015277436f6e74726f6c6c65723a2061646472657373207a65726f60401b604482015260640161091d565b6001600160a01b03818116600090815260fb60205260409020541615610f3f5760405162461bcd60e51b815260206004820152602160248201527f436f6e74726f6c6c65723a2061646d696e20616c7265616479206578697374656044820152601960fa1b606482015260840161091d565b6001600160a01b038116600081815260fb6020526040902080546001600160a01b0319169091179055610aa7600080516020612da483398151915282611f37565b600080610f8c84611afe565b6001600160a01b03808716600090815261013460209081526040808320938916835292815282822083516080808201865282548252600183015482850152600283015482870152600390920154606080830191909152855160e081018752858152938401859052948301849052938201839052810182905260a0810182905260c081019190915291925090826001600160a01b0316631e7f87bc6040518163ffffffff1660e01b815260040160206040518083038186803b15801561105057600080fd5b505afa158015611064573d6000803e3d6000fd5b505050506040513d601f19601f820116820180604052508101906110889190612a90565b6020820152604051632640d9db60e01b81526001600160a01b038881166004830152841690632640d9db9060240160206040518083038186803b1580156110ce57600080fd5b505afa1580156110e2573d6000803e3d6000fd5b505050506040513d601f19601f820116820180604052508101906111069190612a90565b81526040516306e4c5a760e31b81526001600160a01b0388811660048301528416906337262d389060240160206040518083038186803b15801561114957600080fd5b505afa15801561115d573d6000803e3d6000fd5b505050506040513d601f19601f820116820180604052508101906111819190612a90565b8160600181815250508060200151836001600160a01b031663817b1cd26040518163ffffffff1660e01b815260040160206040518083038186803b1580156111c857600080fd5b505afa1580156111dc573d6000803e3d6000fd5b505050506040513d601f19601f820116820180604052508101906112009190612a90565b61120a9190612d04565b604082015260208201514381111561121f5750435b60008661122c8343612d04565b6112369190612cad565b8451604051636eb1fbb160e11b81526001600160a01b038c8116600483015260248201849052929350909187169063dd63f7629060440160206040518083038186803b15801561128557600080fd5b505afa158015611299573d6000803e3d6000fd5b505050506040513d601f19601f820116820180604052508101906112bd9190612a90565b6112c79190612cad565b6080840152604051632ba6d6dd60e11b81526001600160a01b038a8116600483015286169063574dadba9060240160206040518083038186803b15801561130d57600080fd5b505afa158015611321573d6000803e3d6000fd5b505050506040513d601f19601f820116820180604052508101906113459190612a90565b60a08401526040516321d2a57360e01b81526001600160a01b038a811660048301528616906321d2a5739060240160206040518083038186803b15801561138b57600080fd5b505afa15801561139f573d6000803e3d6000fd5b505050506040513d601f19601f820116820180604052508101906113c39190612a0c565b151560c08401819052835160a085015160608601516000936113e793929190611f41565b90506114048a8a8660400151876000015188608001518787611fce565b85606001516114139190612cad565b9a9950505050505050505050565b60fc5461010090046001600160a01b031633146114505760405162461bcd60e51b815260040161091d90612b9b565b60fc5460ff16156114735760405162461bcd60e51b815260040161091d90612c81565b60fc805460ff191660011790556040513381527f62e78cea01bee320cd4e420270b5ea74000d11b0c9f74754ebdbfc544b05a25890602001610b5a565b6114c8600080516020612da483398151915233611543565b6114e45760405162461bcd60e51b815260040161091d90612b6c565b60fc80546001600160a01b0390921661010002610100600160a81b0319909216919091179055565b611524600080516020612da483398151915233610a05565b33600090815260fb6020526040902080546001600160a01b0319169055565b600091825260c9602090815260408084206001600160a01b0393909316845291905290205460ff1690565b60008061157a83611afe565b604051632640d9db60e01b81526001600160a01b038681166004830152919250600091831690632640d9db9060240160206040518083038186803b1580156115c157600080fd5b505afa1580156115d5573d6000803e3d6000fd5b505050506040513d601f19601f820116820180604052508101906115f99190612a90565b604051632ba6d6dd60e11b81526001600160a01b03878116600483015291925060009184169063574dadba9060240160206040518083038186803b15801561164057600080fd5b505afa158015611654573d6000803e3d6000fd5b505050506040513d601f19601f820116820180604052508101906116789190612a90565b6040516306e4c5a760e31b81526001600160a01b0388811660048301529192506000918516906337262d389060240160206040518083038186803b1580156116bf57600080fd5b505afa1580156116d3573d6000803e3d6000fd5b505050506040513d601f19601f820116820180604052508101906116f79190612a90565b6040516321d2a57360e01b81526001600160a01b0389811660048301529192506000918616906321d2a5739060240160206040518083038186803b15801561173e57600080fd5b505afa158015611752573d6000803e3d6000fd5b505050506040513d601f19601f820116820180604052508101906117769190612a0c565b905061178484848484611f41565b98975050505050505050565b600082815260c960205260409020600101546117ac8133611baf565b610a008383611c99565b60fc5460009060ff16156117dc5760405162461bcd60e51b815260040161091d90612c81565b816117e681611afe565b6001600160a01b0316336001600160a01b0316146118165760405162461bcd60e51b815260040161091d90612bed565b600061182485856000610f80565b9050600061183185611afe565b90506000816001600160a01b0316631e7f87bc6040518163ffffffff1660e01b815260040160206040518083038186803b15801561186e57600080fd5b505afa158015611882573d6000803e3d6000fd5b505050506040513d601f19601f820116820180604052508101906118a69190612a90565b826001600160a01b031663817b1cd26040518163ffffffff1660e01b815260040160206040518083038186803b1580156118df57600080fd5b505afa1580156118f3573d6000803e3d6000fd5b505050506040513d601f19601f820116820180604052508101906119179190612a90565b6119219190612d04565b90506119368161013154436109bf9190612d04565b610130908155436101318190556001600160a01b038981166000908152610134602090815260408083208c85168452909152808220918255600182019390935592546002909301929092556101325490516370a0823160e01b8152306004820152859291909116906370a082319060240160206040518083038186803b1580156119bf57600080fd5b505afa1580156119d3573d6000803e3d6000fd5b505050506040513d601f19601f820116820180604052508101906119f79190612a90565b10158015611a055750600083115b15611a925761013254611a22906001600160a01b0316888561213e565b6001600160a01b03808816600081815261013460209081526040808320948b1683529390528281206003015590517f9074ae8fe137f8dd6d158c0e5f1d0b3169b04ba4be11a18ec03b9269b8e91a1a90611a7f9086815260200190565b60405180910390a28294505050506109d3565b6001600160a01b03878116600081815261013460209081526040808320948b168352938152838220600301879055925190815290917f9074ae8fe137f8dd6d158c0e5f1d0b3169b04ba4be11a18ec03b9269b8e91a1a910160405180910390a2600094505050506109d3565b6101335460405163e486033960e01b81526001600160a01b038381166004830152600092169063e486033990602401604080518083038186803b158015611b4457600080fd5b505afa158015611b58573d6000803e3d6000fd5b505050506040513d601f19601f82011682018060405250810190610772919061286f565b600082611b925750670de0b6b3a764000061071a565b81611ba157506101305461071a565b610717836101305484612190565b611bb98282611543565b610a7f57611bd1816001600160a01b031660146121ba565b611bdc8360206121ba565b604051602001611bed929190612ac4565b60408051601f198184030181529082905262461bcd60e51b825261091d91600401612b39565b611c1d8282611543565b610a7f57600082815260c9602090815260408083206001600160a01b03851684529091529020805460ff19166001179055611c553390565b6001600160a01b0316816001600160a01b0316837f2f8788117e7eff1d82e926ec794901d17c78024a50270940304540a733656f0d60405160405180910390a45050565b611ca38282611543565b15610a7f57600082815260c9602090815260408083206001600160a01b0385168085529252808320805460ff1916905551339285917ff6391f5c32d9c69d2a47ea670b442974b53935d1edc7fd64eb21e047a839171b9190a45050565b611d18600080516020612da483398151915233611543565b610aa75760405162461bcd60e51b815260040161091d90612b6c565b6000611d677f360894a13ba1a3210667c828492db98dca3e2076cc3735a920a3ca505d382bbc546001600160a01b031690565b9050611d728461239c565b600083511180611d7f5750815b15611d9057611d8e8484612441565b505b7f4910fdfa16fed3260ed0e7147f7cc6da11a60208b5b9406d12a635614ffd9143805460ff16611eb557805460ff191660011781556040516001600160a01b0383166024820152611e0f90869060440160408051601f198184030181529190526020810180516001600160e01b0316631b2ce7f360e11b179052612441565b50805460ff191681557f360894a13ba1a3210667c828492db98dca3e2076cc3735a920a3ca505d382bbc546001600160a01b03838116911614611eac5760405162461bcd60e51b815260206004820152602f60248201527f45524331393637557067726164653a207570677261646520627265616b73206660448201526e75727468657220757067726164657360881b606482015260840161091d565b611eb58561252c565b5050505050565b600054610100900460ff1680611ed5575060005460ff16155b611ef15760405162461bcd60e51b815260040161091d90612c33565b600054610100900460ff16158015611f13576000805461ffff19166101011790555b611f1b61256c565b611f2361256c565b8015610aa7576000805461ff001916905550565b610a7f8282611c13565b60008115611fbb57841580611f565750838310155b80611f615750848310155b15611f755750670de0b6b3a7640000611fc6565b6000611f818486612d04565b90506000611f8f8588612d04565b90506000611f9d83836125d6565b9050611fb1670de0b6b3a764000082612cad565b9350505050611fc6565b50670a688906bd8b00005b949350505050565b6001600160a01b03808816600090815261013460209081526040808320938a16835292905290812060020154846120058588612ce5565b101561205f5760405162461bcd60e51b815260206004820152602360248201527f20436f6d7074726f6c6c65723a2066726f7a656e20636f696e206167652065726044820152623937b960e91b606482015260840161091d565b85158061206a575086155b80612073575080155b8061207c575083155b1561208b576000915050612133565b60008486612099828a612ce5565b6120a39190612d04565b6120ad9190612cc5565b905060006120bb8987611b7c565b9050828110156121175760405162461bcd60e51b815260206004820152602160248201527f436f6d7074726f6c6c65723a20696e666c6174696f6e496e646578206572726f6044820152603960f91b606482015260840161091d565b61212d8561212784818786612d04565b9061260d565b93505050505b979650505050505050565b604080516001600160a01b038416602482015260448082018490528251808303909101815260649091019091526020810180516001600160e01b031663a9059cbb60e01b179052610a00908490612649565b6000826121a6856121a087610755565b906125d6565b6121b09084612ce5565b611fc69190612cad565b606060006121c9836002612ce5565b6121d4906002612cad565b67ffffffffffffffff8111156121fa57634e487b7160e01b600052604160045260246000fd5b6040519080825280601f01601f191660200182016040528015612224576020820181803683370190505b509050600360fc1b8160008151811061224d57634e487b7160e01b600052603260045260246000fd5b60200101906001600160f81b031916908160001a905350600f60fb1b8160018151811061228a57634e487b7160e01b600052603260045260246000fd5b60200101906001600160f81b031916908160001a90535060006122ae846002612ce5565b6122b9906001612cad565b90505b600181111561234d576f181899199a1a9b1b9c1cb0b131b232b360811b85600f16601081106122fb57634e487b7160e01b600052603260045260246000fd5b1a60f81b82828151811061231f57634e487b7160e01b600052603260045260246000fd5b60200101906001600160f81b031916908160001a90535060049490941c9361234681612d4b565b90506122bc565b5083156107175760405162461bcd60e51b815260206004820181905260248201527f537472696e67733a20686578206c656e67746820696e73756666696369656e74604482015260640161091d565b803b6124005760405162461bcd60e51b815260206004820152602d60248201527f455243313936373a206e657720696d706c656d656e746174696f6e206973206e60448201526c1bdd08184818dbdb9d1c9858dd609a1b606482015260840161091d565b7f360894a13ba1a3210667c828492db98dca3e2076cc3735a920a3ca505d382bbc80546001600160a01b0319166001600160a01b0392909216919091179055565b6060823b6124a05760405162461bcd60e51b815260206004820152602660248201527f416464726573733a2064656c65676174652063616c6c20746f206e6f6e2d636f6044820152651b9d1c9858dd60d21b606482015260840161091d565b600080846001600160a01b0316846040516124bb9190612aa8565b600060405180830381855af49150503d80600081146124f6576040519150601f19603f3d011682016040523d82523d6000602084013e6124fb565b606091505b50915091506125238282604051806060016040528060278152602001612dc46027913961271b565b95945050505050565b6125358161239c565b6040516001600160a01b038216907fbc7cd75a20ee27fd9adebab32041f755214dbc6bffa90cc0225b39da2e5c2d3b90600090a250565b600054610100900460ff1680612585575060005460ff16155b6125a15760405162461bcd60e51b815260040161091d90612c33565b600054610100900460ff16158015611f23576000805461ffff19166101011790558015610aa7576000805461ff001916905550565b6000806125e4600284612cc5565b9050826125f9670de0b6b3a764000086612ce5565b6126039083612cad565b611fc69190612cc5565b6000670de0b6b3a76400006126228385612ce5565b6126356002670de0b6b3a7640000612cc5565b61263f9190612cad565b6107179190612cc5565b600061269e826040518060400160405280602081526020017f5361666545524332303a206c6f772d6c6576656c2063616c6c206661696c6564815250856001600160a01b03166127549092919063ffffffff16565b805190915015610a0057808060200190518101906126bc9190612a0c565b610a005760405162461bcd60e51b815260206004820152602a60248201527f5361666545524332303a204552433230206f7065726174696f6e20646964206e6044820152691bdd081cdd58d8d9595960b21b606482015260840161091d565b6060831561272a575081610772565b82511561273a5782518084602001fd5b8160405162461bcd60e51b815260040161091d9190612b39565b6060611fc6848460008585843b6127ad5760405162461bcd60e51b815260206004820152601d60248201527f416464726573733a2063616c6c20746f206e6f6e2d636f6e7472616374000000604482015260640161091d565b600080866001600160a01b031685876040516127c99190612aa8565b60006040518083038185875af1925050503d8060008114612806576040519150601f19603f3d011682016040523d82523d6000602084013e61280b565b606091505b509150915061213382828661271b565b60006020828403121561282c578081fd5b813561071781612d8e565b60008060408385031215612849578081fd5b823561285481612d8e565b9150602083013561286481612d8e565b809150509250929050565b60008060408385031215612881578182fd5b825161288c81612d8e565b602084015190925061286481612d8e565b6000806000606084860312156128b1578081fd5b83356128bc81612d8e565b925060208401356128cc81612d8e565b929592945050506040919091013590565b600080600080608085870312156128f2578081fd5b84356128fd81612d8e565b9350602085013561290d81612d8e565b93969395505050506040820135916060013590565b60008060408385031215612934578182fd5b823561293f81612d8e565b9150602083013567ffffffffffffffff8082111561295b578283fd5b818501915085601f83011261296e578283fd5b81358181111561298057612980612d78565b604051601f8201601f19908116603f011681019083821181831017156129a8576129a8612d78565b816040528281528860208487010111156129c0578586fd5b82602086016020830137856020848301015280955050505050509250929050565b600080604083850312156129f3578182fd5b82356129fe81612d8e565b946020939093013593505050565b600060208284031215612a1d578081fd5b81518015158114610717578182fd5b600060208284031215612a3d578081fd5b5035919050565b60008060408385031215612a56578182fd5b82359150602083013561286481612d8e565b600060208284031215612a79578081fd5b81356001600160e01b031981168114610717578182fd5b600060208284031215612aa1578081fd5b5051919050565b60008251612aba818460208701612d1b565b9190910192915050565b7f416363657373436f6e74726f6c3a206163636f756e7420000000000000000000815260008351612afc816017850160208801612d1b565b7001034b99036b4b9b9b4b733903937b6329607d1b6017918401918201528351612b2d816028840160208801612d1b565b01602801949350505050565b6020815260008251806020840152612b58816040850160208701612d1b565b601f01601f19169190910160400192915050565b60208082526015908201527421b7b73a3937b63632b91d103737ba1030b236b4b760591b604082015260600190565b60208082526032908201527f436f6e74726f6c6c65723a2063616c6c657220646f6573206e6f7420686176656040820152712074686520677561726469616e20726f6c6560701b606082015260800190565b60208082526026908201527f556e696f6e546f6b656e3a206f6e6c792075736572206d616e616765722063616040820152651b8818d85b1b60d21b606082015260800190565b6020808252602e908201527f496e697469616c697a61626c653a20636f6e747261637420697320616c72656160408201526d191e481a5b9a5d1a585b1a5e995960921b606082015260800190565b60208082526012908201527110dbdb9d1c9bdb1b195c8e881c185d5cd95960721b604082015260600190565b60008219821115612cc057612cc0612d62565b500190565b600082612ce057634e487b7160e01b81526012600452602481fd5b500490565b6000816000190483118215151615612cff57612cff612d62565b500290565b600082821015612d1657612d16612d62565b500390565b60005b83811015612d36578181015183820152602001612d1e565b83811115612d45576000848401525b50505050565b600081612d5a57612d5a612d62565b506000190190565b634e487b7160e01b600052601160045260246000fd5b634e487b7160e01b600052604160045260246000fd5b6001600160a01b0381168114610aa757600080fdfe2172861495e7b85edac73e3cd5fbb42dd675baadf627720e687bcfdaca025096416464726573733a206c6f772d6c6576656c2064656c65676174652063616c6c206661696c6564a264697066735822122058e2d7347bf6fe4031dd60a0fe8bd8d737cbd65100e3731b60013bd09181d45f64736f6c63430008040033",
  "devdoc": {
    "events": {
      "LogWithdrawRewards(address,uint256)": {
        "details": "Withdraw rewards event",
        "params": {
          "account": "The staker's address",
          "amount": "The amount of Union tokens to withdraw"
        }
      }
    },
    "kind": "dev",
    "methods": {
      "addAdmin(address)": {
        "details": "Add a new admin account",
        "params": {
          "account": "Account address"
        }
      },
      "calculateRewards(address,address)": {
        "details": "Calculate currently unclaimed rewards",
        "params": {
          "account": "Account address",
          "token": "Staking token address"
        },
        "returns": {
          "_0": "Unclaimed rewards"
        }
      },
      "calculateRewardsByBlocks(address,address,uint256)": {
        "details": "Calculate unclaimed rewards based on blocks",
        "params": {
          "account": "User address",
          "futureBlocks": "Number of blocks in the future",
          "token": "Staking token address"
        },
        "returns": {
          "_0": "Unclaimed rewards"
        }
      },
      "getRewardsMultiplier(address,address)": {
        "details": "Get the reward multipier based on the account status",
        "params": {
          "account": "Account address",
          "token": "ERC20 token address"
        },
        "returns": {
          "_0": "Multiplier number (in wei)"
        }
      },
      "getRoleAdmin(bytes32)": {
        "details": "Returns the admin role that controls `role`. See {grantRole} and {revokeRole}. To change a role's admin, use {_setRoleAdmin}."
      },
      "grantRole(bytes32,address)": {
        "details": "Grants `role` to `account`. If `account` had not been already granted `role`, emits a {RoleGranted} event. Requirements: - the caller must have ``role``'s admin role."
      },
      "hasRole(bytes32,address)": {
        "details": "Returns `true` if `account` has been granted `role`."
      },
      "inflationPerBlock(uint256)": {
        "details": "Calculate inflation per block",
        "params": {
          "effectiveTotalStake": "Effective total stake"
        },
        "returns": {
          "_0": "Inflation amount, div totalSupply is the inflation rate"
        }
      },
      "isAdmin(address)": {
        "details": "Check if the address provided is the admin",
        "params": {
          "account": "Account address"
        }
      },
      "pause()": {
        "details": "Called by a pauser to pause, triggers stopped state."
      },
      "paused()": {
        "details": "Returns true if the contract is paused, and false otherwise."
      },
      "renounceAdmin()": {
        "details": "Renouce the admin from the sender's address"
      },
      "renounceRole(bytes32,address)": {
        "details": "Revokes `role` from the calling account. Roles are often managed via {grantRole} and {revokeRole}: this function's purpose is to provide a mechanism for accounts to lose their privileges if they are compromised (such as when a trusted device is misplaced). If the calling account had been granted `role`, emits a {RoleRevoked} event. Requirements: - the caller must be `account`."
      },
      "revokeRole(bytes32,address)": {
        "details": "Revokes `role` from `account`. If `account` had been granted `role`, emits a {RoleRevoked} event. Requirements: - the caller must have ``role``'s admin role."
      },
      "setGuardian(address)": {
        "details": "Set pauseGuardian account",
        "params": {
          "account": "Account address"
        }
      },
      "supportsInterface(bytes4)": {
        "details": "See {IERC165-supportsInterface}."
      },
      "unpause()": {
        "details": "Called by a pauser to unpause, returns to normal state."
      },
      "updateTotalStaked(address,uint256)": {
        "details": "When total staked change update inflation index",
        "params": {
          "totalStaked": "totalStaked amount"
        },
        "returns": {
          "_0": "Whether succeeded"
        }
      },
      "upgradeTo(address)": {
        "details": "Upgrade the implementation of the proxy to `newImplementation`. Calls {_authorizeUpgrade}. Emits an {Upgraded} event."
      },
      "upgradeToAndCall(address,bytes)": {
        "details": "Upgrade the implementation of the proxy to `newImplementation`, and subsequently execute the function call encoded in `data`. Calls {_authorizeUpgrade}. Emits an {Upgraded} event."
      },
      "withdrawRewards(address,address)": {
        "details": "Withdraw rewards",
        "params": {
          "token": "Staking token address"
        },
        "returns": {
          "_0": "Amount of rewards"
        }
      }
    },
    "version": 1
  },
  "userdoc": {
    "kind": "user",
    "methods": {},
    "version": 1
  },
  "storageLayout": {
    "storage": [
      {
        "astId": 821,
        "contract": "contracts/token/Comptroller.sol:Comptroller",
        "label": "_initialized",
        "offset": 0,
        "slot": "0",
        "type": "t_bool"
      },
      {
        "astId": 824,
        "contract": "contracts/token/Comptroller.sol:Comptroller",
        "label": "_initializing",
        "offset": 1,
        "slot": "0",
        "type": "t_bool"
      },
      {
        "astId": 804,
        "contract": "contracts/token/Comptroller.sol:Comptroller",
        "label": "__gap",
        "offset": 0,
        "slot": "1",
        "type": "t_array(t_uint256)50_storage"
      },
      {
        "astId": 937,
        "contract": "contracts/token/Comptroller.sol:Comptroller",
        "label": "__gap",
        "offset": 0,
        "slot": "51",
        "type": "t_array(t_uint256)50_storage"
      },
      {
        "astId": 2184,
        "contract": "contracts/token/Comptroller.sol:Comptroller",
        "label": "__gap",
        "offset": 0,
        "slot": "101",
        "type": "t_array(t_uint256)50_storage"
      },
      {
        "astId": 2493,
        "contract": "contracts/token/Comptroller.sol:Comptroller",
        "label": "__gap",
        "offset": 0,
        "slot": "151",
        "type": "t_array(t_uint256)50_storage"
      },
      {
        "astId": 48,
        "contract": "contracts/token/Comptroller.sol:Comptroller",
        "label": "_roles",
        "offset": 0,
        "slot": "201",
        "type": "t_mapping(t_bytes32,t_struct(RoleData)43_storage)"
      },
      {
        "astId": 333,
        "contract": "contracts/token/Comptroller.sol:Comptroller",
        "label": "__gap",
        "offset": 0,
        "slot": "202",
        "type": "t_array(t_uint256)49_storage"
      },
      {
        "astId": 10453,
        "contract": "contracts/token/Comptroller.sol:Comptroller",
        "label": "_admins",
        "offset": 0,
        "slot": "251",
        "type": "t_mapping(t_address,t_address)"
      },
      {
        "astId": 10455,
        "contract": "contracts/token/Comptroller.sol:Comptroller",
        "label": "_paused",
        "offset": 0,
        "slot": "252",
        "type": "t_bool"
      },
      {
        "astId": 10457,
        "contract": "contracts/token/Comptroller.sol:Comptroller",
        "label": "pauseGuardian",
        "offset": 1,
        "slot": "252",
        "type": "t_address"
      },
      {
        "astId": 10697,
        "contract": "contracts/token/Comptroller.sol:Comptroller",
        "label": "______gap",
        "offset": 0,
        "slot": "253",
        "type": "t_array(t_uint256)50_storage"
      },
      {
        "astId": 19856,
        "contract": "contracts/token/Comptroller.sol:Comptroller",
        "label": "halfDecayPoint",
        "offset": 0,
        "slot": "303",
        "type": "t_uint256"
      },
      {
        "astId": 19858,
        "contract": "contracts/token/Comptroller.sol:Comptroller",
        "label": "gInflationIndex",
        "offset": 0,
        "slot": "304",
        "type": "t_uint256"
      },
      {
        "astId": 19860,
        "contract": "contracts/token/Comptroller.sol:Comptroller",
        "label": "gLastUpdatedBlock",
        "offset": 0,
        "slot": "305",
        "type": "t_uint256"
      },
      {
        "astId": 19863,
        "contract": "contracts/token/Comptroller.sol:Comptroller",
        "label": "unionToken",
        "offset": 0,
        "slot": "306",
        "type": "t_contract(IERC20Upgradeable)1647"
      },
      {
        "astId": 19866,
        "contract": "contracts/token/Comptroller.sol:Comptroller",
        "label": "marketRegistry",
        "offset": 0,
        "slot": "307",
        "type": "t_contract(IMarketRegistry)14494"
      },
      {
        "astId": 19873,
        "contract": "contracts/token/Comptroller.sol:Comptroller",
        "label": "users",
        "offset": 0,
        "slot": "308",
        "type": "t_mapping(t_address,t_mapping(t_address,t_struct(Info)19822_storage))"
      }
    ],
    "types": {
      "t_address": {
        "encoding": "inplace",
        "label": "address",
        "numberOfBytes": "20"
      },
      "t_array(t_uint256)49_storage": {
        "base": "t_uint256",
        "encoding": "inplace",
        "label": "uint256[49]",
        "numberOfBytes": "1568"
      },
      "t_array(t_uint256)50_storage": {
        "base": "t_uint256",
        "encoding": "inplace",
        "label": "uint256[50]",
        "numberOfBytes": "1600"
      },
      "t_bool": {
        "encoding": "inplace",
        "label": "bool",
        "numberOfBytes": "1"
      },
      "t_bytes32": {
        "encoding": "inplace",
        "label": "bytes32",
        "numberOfBytes": "32"
      },
      "t_contract(IERC20Upgradeable)1647": {
        "encoding": "inplace",
        "label": "contract IERC20Upgradeable",
        "numberOfBytes": "20"
      },
      "t_contract(IMarketRegistry)14494": {
        "encoding": "inplace",
        "label": "contract IMarketRegistry",
        "numberOfBytes": "20"
      },
      "t_mapping(t_address,t_address)": {
        "encoding": "mapping",
        "key": "t_address",
        "label": "mapping(address => address)",
        "numberOfBytes": "32",
        "value": "t_address"
      },
      "t_mapping(t_address,t_bool)": {
        "encoding": "mapping",
        "key": "t_address",
        "label": "mapping(address => bool)",
        "numberOfBytes": "32",
        "value": "t_bool"
      },
      "t_mapping(t_address,t_mapping(t_address,t_struct(Info)19822_storage))": {
        "encoding": "mapping",
        "key": "t_address",
        "label": "mapping(address => mapping(address => struct Comptroller.Info))",
        "numberOfBytes": "32",
        "value": "t_mapping(t_address,t_struct(Info)19822_storage)"
      },
      "t_mapping(t_address,t_struct(Info)19822_storage)": {
        "encoding": "mapping",
        "key": "t_address",
        "label": "mapping(address => struct Comptroller.Info)",
        "numberOfBytes": "32",
        "value": "t_struct(Info)19822_storage"
      },
      "t_mapping(t_bytes32,t_struct(RoleData)43_storage)": {
        "encoding": "mapping",
        "key": "t_bytes32",
        "label": "mapping(bytes32 => struct AccessControlUpgradeable.RoleData)",
        "numberOfBytes": "32",
        "value": "t_struct(RoleData)43_storage"
      },
      "t_struct(Info)19822_storage": {
        "encoding": "inplace",
        "label": "struct Comptroller.Info",
        "members": [
          {
            "astId": 19815,
            "contract": "contracts/token/Comptroller.sol:Comptroller",
            "label": "frozenCoinAge",
            "offset": 0,
            "slot": "0",
            "type": "t_uint256"
          },
          {
            "astId": 19817,
            "contract": "contracts/token/Comptroller.sol:Comptroller",
            "label": "updatedBlock",
            "offset": 0,
            "slot": "1",
            "type": "t_uint256"
          },
          {
            "astId": 19819,
            "contract": "contracts/token/Comptroller.sol:Comptroller",
            "label": "inflationIndex",
            "offset": 0,
            "slot": "2",
            "type": "t_uint256"
          },
          {
            "astId": 19821,
            "contract": "contracts/token/Comptroller.sol:Comptroller",
            "label": "accrued",
            "offset": 0,
            "slot": "3",
            "type": "t_uint256"
          }
        ],
        "numberOfBytes": "128"
      },
      "t_struct(RoleData)43_storage": {
        "encoding": "inplace",
        "label": "struct AccessControlUpgradeable.RoleData",
        "members": [
          {
            "astId": 40,
            "contract": "contracts/token/Comptroller.sol:Comptroller",
            "label": "members",
            "offset": 0,
            "slot": "0",
            "type": "t_mapping(t_address,t_bool)"
          },
          {
            "astId": 42,
            "contract": "contracts/token/Comptroller.sol:Comptroller",
            "label": "adminRole",
            "offset": 0,
            "slot": "1",
            "type": "t_bytes32"
          }
        ],
        "numberOfBytes": "64"
      },
      "t_uint256": {
        "encoding": "inplace",
        "label": "uint256",
        "numberOfBytes": "32"
      }
    }
  }
}