{
  "address": "0x8bCD332f29A7CAe4014C72BF4A12077ae059dAfD",
  "abi": [
    {
      "inputs": [
        {
          "internalType": "uint256",
          "name": "interestRatePerBlock_",
          "type": "uint256"
        }
      ],
      "stateMutability": "nonpayable",
      "type": "constructor"
    },
    {
      "anonymous": false,
      "inputs": [
        {
          "indexed": false,
          "internalType": "uint256",
          "name": "interestRate",
          "type": "uint256"
        }
      ],
      "name": "LogNewInterestParams",
      "type": "event"
    },
    {
      "anonymous": false,
      "inputs": [
        {
          "indexed": true,
          "internalType": "address",
          "name": "previousOwner",
          "type": "address"
        },
        {
          "indexed": true,
          "internalType": "address",
          "name": "newOwner",
          "type": "address"
        }
      ],
      "name": "OwnershipTransferred",
      "type": "event"
    },
    {
      "inputs": [],
      "name": "getBorrowRate",
      "outputs": [
        {
          "internalType": "uint256",
          "name": "",
          "type": "uint256"
        }
      ],
      "stateMutability": "view",
      "type": "function"
    },
    {
      "inputs": [
        {
          "internalType": "uint256",
          "name": "reserveFactorMantissa",
          "type": "uint256"
        }
      ],
      "name": "getSupplyRate",
      "outputs": [
        {
          "internalType": "uint256",
          "name": "",
          "type": "uint256"
        }
      ],
      "stateMutability": "view",
      "type": "function"
    },
    {
      "inputs": [],
      "name": "interestRatePerBlock",
      "outputs": [
        {
          "internalType": "uint256",
          "name": "",
          "type": "uint256"
        }
      ],
      "stateMutability": "view",
      "type": "function"
    },
    {
      "inputs": [],
      "name": "isInterestRateModel",
      "outputs": [
        {
          "internalType": "bool",
          "name": "",
          "type": "bool"
        }
      ],
      "stateMutability": "view",
      "type": "function"
    },
    {
      "inputs": [],
      "name": "owner",
      "outputs": [
        {
          "internalType": "address",
          "name": "",
          "type": "address"
        }
      ],
      "stateMutability": "view",
      "type": "function"
    },
    {
      "inputs": [],
      "name": "renounceOwnership",
      "outputs": [],
      "stateMutability": "nonpayable",
      "type": "function"
    },
    {
      "inputs": [
        {
          "internalType": "uint256",
          "name": "interestRatePerBlock_",
          "type": "uint256"
        }
      ],
      "name": "setInterestRate",
      "outputs": [],
      "stateMutability": "nonpayable",
      "type": "function"
    },
    {
      "inputs": [
        {
          "internalType": "address",
          "name": "newOwner",
          "type": "address"
        }
      ],
      "name": "transferOwnership",
      "outputs": [],
      "stateMutability": "nonpayable",
      "type": "function"
    }
  ],
  "transactionHash": "0x27ce47cddc4255265f1e818082d31e5dad1f423b10b0aa67973bc4700a63a7f2",
  "args": [
    "95129375951"
  ],
  "solcInputHash": "815da1a7bd393b91c2edbc66164c6945",
  "bytecode": "0x608060405234801561001057600080fd5b5060405161053c38038061053c8339818101604052602081101561003357600080fd5b505161003e3361007c565b60018190556040805182815290517f72b60adc9f1a39b51ceffe989f8fdaf749fbee6059c5d0ba7e5e1ed5d455b9439181900360200190a1506100cc565b600080546001600160a01b038381166001600160a01b0319831681178455604051919092169283917f8be0079c531659141344cd1fd0a4f28419497f9722a3daafe3b4186f6b6457e09190a35050565b610461806100db6000396000f3fe608060405234801561001057600080fd5b50600436106100885760003560e01c80638da5cb5b1161005b5780638da5cb5b146100eb578063ba1c5e8014610113578063d955759d1461011b578063f2fde38b1461013857600080fd5b80632191f92a1461008d5780632ff7709e146100a95780635f84f302146100c4578063715018a6146100e3575b600080fd5b610095600181565b604080519115158252519081900360200190f35b6100b260015481565b60408051918252519081900360200190f35b6100e1600480360360208110156100da57600080fd5b503561015e565b005b6100e16101cc565b6000546001600160a01b0316604080516001600160a01b039092168252519081900360200190f35b6001546100b2565b6100b26004803603602081101561013157600080fd5b5035610202565b6100e16004803603602081101561014e57600080fd5b50356001600160a01b031661029f565b6000546001600160a01b031633146101915760405162461bcd60e51b81526004016101889061038a565b60405180910390fd5b60018190556040805182815290517f72b60adc9f1a39b51ceffe989f8fdaf749fbee6059c5d0ba7e5e1ed5d455b9439181900360200190a150565b6000546001600160a01b031633146101f65760405162461bcd60e51b81526004016101889061038a565b610200600061033a565b565b6000670de0b6b3a7640000821115610261576040805162461bcd60e51b815260206004820152601b60248201527f72657365727665466163746f724d616e7469737361206572726f720000000000604482015290519081900360640190fd5b600061027583670de0b6b3a76400006103fe565b9050670de0b6b3a76400008160015461028e91906103df565b61029891906103bf565b9392505050565b6000546001600160a01b031633146102c95760405162461bcd60e51b81526004016101889061038a565b6001600160a01b03811661032e5760405162461bcd60e51b815260206004820152602660248201527f4f776e61626c653a206e6577206f776e657220697320746865207a65726f206160448201526564647265737360d01b6064820152608401610188565b6103378161033a565b50565b600080546001600160a01b038381166001600160a01b0319831681178455604051919092169283917f8be0079c531659141344cd1fd0a4f28419497f9722a3daafe3b4186f6b6457e09190a35050565b6020808252818101527f4f776e61626c653a2063616c6c6572206973206e6f7420746865206f776e6572604082015260600190565b6000826103da57634e487b7160e01b81526012600452602481fd5b500490565b60008160001904831182151516156103f9576103f9610415565b500290565b60008282101561041057610410610415565b500390565b634e487b7160e01b600052601160045260246000fdfea2646970667358221220d7fc3a438331d3f50e7dd3a351a25344c5afdbf26a2a6da7e9d7c3ebb772cb0864736f6c63430008040033",
  "devdoc": {
    "events": {
      "LogNewInterestParams(uint256)": {
        "details": "Update interest parameters event",
        "params": {
          "interestRate": "New interest rate, 1e18 = 100%"
        }
      }
    },
    "kind": "dev",
    "methods": {
      "getBorrowRate()": {
        "details": "Calculates the current borrow interest rate per block",
        "returns": {
          "_0": "The borrow rate per block (as a percentage, and scaled by 1e18)"
        }
      },
      "getSupplyRate(uint256)": {
        "details": "Calculates the current suppier interest rate per block",
        "returns": {
          "_0": "The supply rate per block (as a percentage, and scaled by 1e18)"
        }
      },
      "owner()": {
        "details": "Returns the address of the current owner."
      },
      "renounceOwnership()": {
        "details": "Leaves the contract without owner. It will not be possible to call `onlyOwner` functions anymore. Can only be called by the current owner. NOTE: Renouncing ownership will leave the contract without an owner, thereby removing any functionality that is only available to the owner."
      },
      "setInterestRate(uint256)": {
        "details": "Set the borrow interest rate per block"
      },
      "transferOwnership(address)": {
        "details": "Transfers ownership of the contract to a new account (`newOwner`). Can only be called by the current owner."
      }
    },
    "stateVariables": {
      "isInterestRateModel": {
        "details": "Check to see if it is a valid interest rate model",
        "return": "Return true for a valid interest rate model",
        "returns": {
          "_0": "Return true for a valid interest rate model"
        }
      }
    },
    "version": 1
  },
  "userdoc": {
    "kind": "user",
    "methods": {},
    "version": 1
  },
  "storageLayout": {
    "storage": [
      {
        "astId": 2894,
        "contract": "contracts/market/FixedInterestRateModel.sol:FixedInterestRateModel",
        "label": "_owner",
        "offset": 0,
        "slot": "0",
        "type": "t_address"
      },
      {
        "astId": 15034,
        "contract": "contracts/market/FixedInterestRateModel.sol:FixedInterestRateModel",
        "label": "interestRatePerBlock",
        "offset": 0,
        "slot": "1",
        "type": "t_uint256"
      }
    ],
    "types": {
      "t_address": {
        "encoding": "inplace",
        "label": "address",
        "numberOfBytes": "20"
      },
      "t_uint256": {
        "encoding": "inplace",
        "label": "uint256",
        "numberOfBytes": "32"
      }
    }
  }
}