{
  "address": "0x57Ab1FF2F432D723d5bC708069615f1f6a4AF20e",
  "abi": [
    {
      "anonymous": false,
      "inputs": [
        {
          "indexed": false,
          "internalType": "address",
          "name": "previousAdmin",
          "type": "address"
        },
        {
          "indexed": false,
          "internalType": "address",
          "name": "newAdmin",
          "type": "address"
        }
      ],
      "name": "AdminChanged",
      "type": "event"
    },
    {
      "anonymous": false,
      "inputs": [
        {
          "indexed": true,
          "internalType": "address",
          "name": "beacon",
          "type": "address"
        }
      ],
      "name": "BeaconUpgraded",
      "type": "event"
    },
    {
      "anonymous": false,
      "inputs": [
        {
          "indexed": true,
          "internalType": "address",
          "name": "tokenAddress",
          "type": "address"
        },
        {
          "indexed": false,
          "internalType": "address",
          "name": "contractAddress",
          "type": "address"
        }
      ],
      "name": "LogAddUToken",
      "type": "event"
    },
    {
      "anonymous": false,
      "inputs": [
        {
          "indexed": true,
          "internalType": "address",
          "name": "tokenAddress",
          "type": "address"
        },
        {
          "indexed": false,
          "internalType": "address",
          "name": "contractAddress",
          "type": "address"
        }
      ],
      "name": "LogAddUserManager",
      "type": "event"
    },
    {
      "anonymous": false,
      "inputs": [
        {
          "indexed": false,
          "internalType": "address",
          "name": "account",
          "type": "address"
        }
      ],
      "name": "Paused",
      "type": "event"
    },
    {
      "anonymous": false,
      "inputs": [
        {
          "indexed": true,
          "internalType": "bytes32",
          "name": "role",
          "type": "bytes32"
        },
        {
          "indexed": true,
          "internalType": "bytes32",
          "name": "previousAdminRole",
          "type": "bytes32"
        },
        {
          "indexed": true,
          "internalType": "bytes32",
          "name": "newAdminRole",
          "type": "bytes32"
        }
      ],
      "name": "RoleAdminChanged",
      "type": "event"
    },
    {
      "anonymous": false,
      "inputs": [
        {
          "indexed": true,
          "internalType": "bytes32",
          "name": "role",
          "type": "bytes32"
        },
        {
          "indexed": true,
          "internalType": "address",
          "name": "account",
          "type": "address"
        },
        {
          "indexed": true,
          "internalType": "address",
          "name": "sender",
          "type": "address"
        }
      ],
      "name": "RoleGranted",
      "type": "event"
    },
    {
      "anonymous": false,
      "inputs": [
        {
          "indexed": true,
          "internalType": "bytes32",
          "name": "role",
          "type": "bytes32"
        },
        {
          "indexed": true,
          "internalType": "address",
          "name": "account",
          "type": "address"
        },
        {
          "indexed": true,
          "internalType": "address",
          "name": "sender",
          "type": "address"
        }
      ],
      "name": "RoleRevoked",
      "type": "event"
    },
    {
      "anonymous": false,
      "inputs": [
        {
          "indexed": false,
          "internalType": "address",
          "name": "account",
          "type": "address"
        }
      ],
      "name": "Unpaused",
      "type": "event"
    },
    {
      "anonymous": false,
      "inputs": [
        {
          "indexed": true,
          "internalType": "address",
          "name": "implementation",
          "type": "address"
        }
      ],
      "name": "Upgraded",
      "type": "event"
    },
    {
      "inputs": [],
      "name": "DEFAULT_ADMIN_ROLE",
      "outputs": [
        {
          "internalType": "bytes32",
          "name": "",
          "type": "bytes32"
        }
      ],
      "stateMutability": "view",
      "type": "function"
    },
    {
      "inputs": [],
      "name": "ROLE_ADMIN",
      "outputs": [
        {
          "internalType": "bytes32",
          "name": "",
          "type": "bytes32"
        }
      ],
      "stateMutability": "view",
      "type": "function"
    },
    {
      "inputs": [
        {
          "internalType": "address",
          "name": "admin_",
          "type": "address"
        }
      ],
      "name": "__Controller_init",
      "outputs": [],
      "stateMutability": "nonpayable",
      "type": "function"
    },
    {
      "inputs": [],
      "name": "__MarketRegistry_init",
      "outputs": [],
      "stateMutability": "nonpayable",
      "type": "function"
    },
    {
      "inputs": [
        {
          "internalType": "address",
          "name": "account",
          "type": "address"
        }
      ],
      "name": "addAdmin",
      "outputs": [],
      "stateMutability": "nonpayable",
      "type": "function"
    },
    {
      "inputs": [
        {
          "internalType": "address",
          "name": "token",
          "type": "address"
        },
        {
          "internalType": "address",
          "name": "uToken",
          "type": "address"
        }
      ],
      "name": "addUToken",
      "outputs": [],
      "stateMutability": "nonpayable",
      "type": "function"
    },
    {
      "inputs": [
        {
          "internalType": "address",
          "name": "token",
          "type": "address"
        },
        {
          "internalType": "address",
          "name": "userManager",
          "type": "address"
        }
      ],
      "name": "addUserManager",
      "outputs": [],
      "stateMutability": "nonpayable",
      "type": "function"
    },
    {
      "inputs": [
        {
          "internalType": "address",
          "name": "token",
          "type": "address"
        }
      ],
      "name": "deleteMarket",
      "outputs": [],
      "stateMutability": "nonpayable",
      "type": "function"
    },
    {
      "inputs": [
        {
          "internalType": "bytes32",
          "name": "role",
          "type": "bytes32"
        }
      ],
      "name": "getRoleAdmin",
      "outputs": [
        {
          "internalType": "bytes32",
          "name": "",
          "type": "bytes32"
        }
      ],
      "stateMutability": "view",
      "type": "function"
    },
    {
      "inputs": [],
      "name": "getUTokens",
      "outputs": [
        {
          "internalType": "address[]",
          "name": "",
          "type": "address[]"
        }
      ],
      "stateMutability": "view",
      "type": "function"
    },
    {
      "inputs": [],
      "name": "getUserManagers",
      "outputs": [
        {
          "internalType": "address[]",
          "name": "",
          "type": "address[]"
        }
      ],
      "stateMutability": "view",
      "type": "function"
    },
    {
      "inputs": [
        {
          "internalType": "bytes32",
          "name": "role",
          "type": "bytes32"
        },
        {
          "internalType": "address",
          "name": "account",
          "type": "address"
        }
      ],
      "name": "grantRole",
      "outputs": [],
      "stateMutability": "nonpayable",
      "type": "function"
    },
    {
      "inputs": [
        {
          "internalType": "bytes32",
          "name": "role",
          "type": "bytes32"
        },
        {
          "internalType": "address",
          "name": "account",
          "type": "address"
        }
      ],
      "name": "hasRole",
      "outputs": [
        {
          "internalType": "bool",
          "name": "",
          "type": "bool"
        }
      ],
      "stateMutability": "view",
      "type": "function"
    },
    {
      "inputs": [
        {
          "internalType": "address",
          "name": "account",
          "type": "address"
        }
      ],
      "name": "isAdmin",
      "outputs": [
        {
          "internalType": "bool",
          "name": "",
          "type": "bool"
        }
      ],
      "stateMutability": "view",
      "type": "function"
    },
    {
      "inputs": [],
      "name": "pause",
      "outputs": [],
      "stateMutability": "nonpayable",
      "type": "function"
    },
    {
      "inputs": [],
      "name": "pauseGuardian",
      "outputs": [
        {
          "internalType": "address",
          "name": "",
          "type": "address"
        }
      ],
      "stateMutability": "view",
      "type": "function"
    },
    {
      "inputs": [],
      "name": "paused",
      "outputs": [
        {
          "internalType": "bool",
          "name": "",
          "type": "bool"
        }
      ],
      "stateMutability": "view",
      "type": "function"
    },
    {
      "inputs": [],
      "name": "renounceAdmin",
      "outputs": [],
      "stateMutability": "nonpayable",
      "type": "function"
    },
    {
      "inputs": [
        {
          "internalType": "bytes32",
          "name": "role",
          "type": "bytes32"
        },
        {
          "internalType": "address",
          "name": "account",
          "type": "address"
        }
      ],
      "name": "renounceRole",
      "outputs": [],
      "stateMutability": "nonpayable",
      "type": "function"
    },
    {
      "inputs": [
        {
          "internalType": "bytes32",
          "name": "role",
          "type": "bytes32"
        },
        {
          "internalType": "address",
          "name": "account",
          "type": "address"
        }
      ],
      "name": "revokeRole",
      "outputs": [],
      "stateMutability": "nonpayable",
      "type": "function"
    },
    {
      "inputs": [
        {
          "internalType": "address",
          "name": "account",
          "type": "address"
        }
      ],
      "name": "setGuardian",
      "outputs": [],
      "stateMutability": "nonpayable",
      "type": "function"
    },
    {
      "inputs": [
        {
          "internalType": "bytes4",
          "name": "interfaceId",
          "type": "bytes4"
        }
      ],
      "name": "supportsInterface",
      "outputs": [
        {
          "internalType": "bool",
          "name": "",
          "type": "bool"
        }
      ],
      "stateMutability": "view",
      "type": "function"
    },
    {
      "inputs": [
        {
          "internalType": "address",
          "name": "",
          "type": "address"
        }
      ],
      "name": "tokens",
      "outputs": [
        {
          "internalType": "address",
          "name": "uToken",
          "type": "address"
        },
        {
          "internalType": "address",
          "name": "userManager",
          "type": "address"
        }
      ],
      "stateMutability": "view",
      "type": "function"
    },
    {
      "inputs": [
        {
          "internalType": "uint256",
          "name": "",
          "type": "uint256"
        }
      ],
      "name": "uTokenList",
      "outputs": [
        {
          "internalType": "address",
          "name": "",
          "type": "address"
        }
      ],
      "stateMutability": "view",
      "type": "function"
    },
    {
      "inputs": [],
      "name": "unpause",
      "outputs": [],
      "stateMutability": "nonpayable",
      "type": "function"
    },
    {
      "inputs": [
        {
          "internalType": "address",
          "name": "newImplementation",
          "type": "address"
        }
      ],
      "name": "upgradeTo",
      "outputs": [],
      "stateMutability": "nonpayable",
      "type": "function"
    },
    {
      "inputs": [
        {
          "internalType": "address",
          "name": "newImplementation",
          "type": "address"
        },
        {
          "internalType": "bytes",
          "name": "data",
          "type": "bytes"
        }
      ],
      "name": "upgradeToAndCall",
      "outputs": [],
      "stateMutability": "payable",
      "type": "function"
    },
    {
      "inputs": [
        {
          "internalType": "uint256",
          "name": "",
          "type": "uint256"
        }
      ],
      "name": "userManagerList",
      "outputs": [
        {
          "internalType": "address",
          "name": "",
          "type": "address"
        }
      ],
      "stateMutability": "view",
      "type": "function"
    }
  ],
  "transactionHash": "0xdc13fe492caf15523f0b98a9b75aee7523b583018fcfe0d8691dbd1699380a01",
  "args": [],
  "solcInputHash": "815da1a7bd393b91c2edbc66164c6945",
  "bytecode": "0x608060405234801561001057600080fd5b50611f7c806100206000396000f3fe6080604052600436106101b75760003560e01c806370480275116100ec578063a217fddf1161008a578063d547741f11610064578063d547741f146104bb578063d960e94a146104db578063e4860339146104fb578063f5e157c81461055d57600080fd5b8063a217fddf14610464578063cdbffbf814610479578063d391014b1461049957600080fd5b80638a0dac4a116100c65780638a0dac4a146103fa5780638bad0c0a1461041a57806391d148541461042f5780639c93ff011461044f57600080fd5b806370480275146103a55780637f93977a146103c55780638456cb59146103e557600080fd5b806336568abe116101595780634f1ef286116101335780634f1ef2861461033a578063561b08da1461034d5780635c975abb1461036d5780636c461a731461038557600080fd5b806336568abe146102e55780633659cfe6146103055780633f4ba83a1461032557600080fd5b806324a3d6221161019557806324a3d6221461025157806324d7806c1461028e57806329225288146102ae5780632f2ff15d146102c357600080fd5b806301ffc9a7146101bc57806314833a3b146101f1578063248a9ca314610213575b600080fd5b3480156101c857600080fd5b506101dc6101d7366004611c1b565b61057d565b60405190151581526020015b60405180910390f35b3480156101fd57600080fd5b506102066105b4565b6040516101e89190611cd4565b34801561021f57600080fd5b5061024361022e366004611be1565b600090815260c9602052604090206001015490565b6040519081526020016101e8565b34801561025d57600080fd5b5060fc546102769061010090046001600160a01b031681565b6040516001600160a01b0390911681526020016101e8565b34801561029a57600080fd5b506101dc6102a9366004611ad8565b610617565b3480156102ba57600080fd5b50610206610631565b3480156102cf57600080fd5b506102e36102de366004611bf9565b610692565b005b3480156102f157600080fd5b506102e3610300366004611bf9565b6106bd565b34801561031157600080fd5b506102e3610320366004611ad8565b610740565b34801561033157600080fd5b506102e3610767565b6102e3610348366004611b24565b610821565b34801561035957600080fd5b506102e3610368366004611af2565b610836565b34801561037957600080fd5b5060fc5460ff166101dc565b34801561039157600080fd5b506102e36103a0366004611ad8565b610999565b3480156103b157600080fd5b506102e36103c0366004611ad8565b610ac9565b3480156103d157600080fd5b506102766103e0366004611be1565b610c01565b3480156103f157600080fd5b506102e3610c2c565b34801561040657600080fd5b506102e3610415366004611ad8565b610ce0565b34801561042657600080fd5b506102e3610d3c565b34801561043b57600080fd5b506101dc61044a366004611bf9565b610d73565b34801561045b57600080fd5b506102e3610d9e565b34801561047057600080fd5b50610243600081565b34801561048557600080fd5b506102e3610494366004611af2565b610e12565b3480156104a557600080fd5b50610243600080516020611f0083398151915281565b3480156104c757600080fd5b506102e36104d6366004611bf9565b610f5f565b3480156104e757600080fd5b506102e36104f6366004611ad8565b610f85565b34801561050757600080fd5b5061053d610516366004611ad8565b61013160205260009081526040902080546001909101546001600160a01b03918216911682565b604080516001600160a01b039384168152929091166020830152016101e8565b34801561056957600080fd5b50610276610578366004611be1565b6112d1565b60006001600160e01b03198216637965db0b60e01b14806105ae57506301ffc9a760e01b6001600160e01b03198316145b92915050565b606061013080548060200260200160405190810160405280929190818152602001828054801561060d57602002820191906000526020600020905b81546001600160a01b031681526001909101906020018083116105ef575b5050505050905090565b60006105ae600080516020611f0083398151915283610d73565b606061012f80548060200260200160405190810160405280929190818152602001828054801561060d576020028201919060005260206000209081546001600160a01b031681526001909101906020018083116105ef575050505050905090565b600082815260c960205260409020600101546106ae81336112e2565b6106b88383611346565b505050565b6001600160a01b03811633146107325760405162461bcd60e51b815260206004820152602f60248201527f416363657373436f6e74726f6c3a2063616e206f6e6c792072656e6f756e636560448201526e103937b632b9903337b91039b2b63360891b60648201526084015b60405180910390fd5b61073c82826113cc565b5050565b61074981611433565b61076481604051806020016040528060008152506000611467565b50565b60fc5461010090046001600160a01b031633146107965760405162461bcd60e51b815260040161072990611d83565b60fc5460ff166107e15760405162461bcd60e51b815260206004820152601660248201527510dbdb9d1c9bdb1b195c8e881b9bdd081c185d5cd95960521b6044820152606401610729565b60fc805460ff191690556040513381527f5db9ee0a495bf2e6ff9c91a7834c1ba4fdd244a5e8aa4e537bd38aeae4b073aa906020015b60405180910390a1565b61082a82611433565b61073c82826001611467565b6001600160a01b0380831660009081526101316020526040902060010154839116156108bf5760405162461bcd60e51b815260206004820152603260248201527f4d61726b657452656769737472793a2068617320616c726561647920657869736044820152713a103a3434b9903ab9b2b926b0b730b3b2b960711b6064820152608401610729565b6108d7600080516020611f0083398151915233610d73565b6108f35760405162461bcd60e51b815260040161072990611d54565b610130805460018082019092557f2f605e086faac1d93117bbfbc18835d434e9405fadc1ca66faf4b864746daf340180546001600160a01b038581166001600160a01b03199283168117909355861660008181526101316020908152604091829020909501805490931684179092559051918252917f081428de8cb860717cb137b42e1e2226ea2f3e6c9f6b811bc12c8d611157aaf391015b60405180910390a2505050565b600054610100900460ff16806109b2575060005460ff16155b6109ce5760405162461bcd60e51b815260040161072990611dd5565b600054610100900460ff161580156109f0576000805461ffff19166101011790555b6001600160a01b038216610a415760405162461bcd60e51b8152602060048201526018602482015277436f6e74726f6c6c65723a2061646472657373207a65726f60401b6044820152606401610729565b60fc805460ff191690556001600160a01b038216600081815260fb6020526040902080546001600160a01b0319169091179055610a7c6115ef565b610a94600080516020611f0083398151915283611656565b60fc8054610100600160a81b0319166101006001600160a01b03851602179055801561073c576000805461ff00191690555050565b610ae1600080516020611f0083398151915233610d73565b610afd5760405162461bcd60e51b815260040161072990611d54565b6001600160a01b038116610b4e5760405162461bcd60e51b8152602060048201526018602482015277436f6e74726f6c6c65723a2061646472657373207a65726f60401b6044820152606401610729565b6001600160a01b03818116600090815260fb60205260409020541615610bc05760405162461bcd60e51b815260206004820152602160248201527f436f6e74726f6c6c65723a2061646d696e20616c7265616479206578697374656044820152601960fa1b6064820152608401610729565b6001600160a01b038116600081815260fb6020526040902080546001600160a01b0319169091179055610764600080516020611f0083398151915282611656565b61012f8181548110610c1257600080fd5b6000918252602090912001546001600160a01b0316905081565b60fc5461010090046001600160a01b03163314610c5b5760405162461bcd60e51b815260040161072990611d83565b60fc5460ff1615610ca35760405162461bcd60e51b815260206004820152601260248201527110dbdb9d1c9bdb1b195c8e881c185d5cd95960721b6044820152606401610729565b60fc805460ff191660011790556040513381527f62e78cea01bee320cd4e420270b5ea74000d11b0c9f74754ebdbfc544b05a25890602001610817565b610cf8600080516020611f0083398151915233610d73565b610d145760405162461bcd60e51b815260040161072990611d54565b60fc80546001600160a01b0390921661010002610100600160a81b0319909216919091179055565b610d54600080516020611f00833981519152336106bd565b33600090815260fb6020526040902080546001600160a01b0319169055565b600091825260c9602090815260408084206001600160a01b0393909316845291905290205460ff1690565b600054610100900460ff1680610db7575060005460ff16155b610dd35760405162461bcd60e51b815260040161072990611dd5565b600054610100900460ff16158015610df5576000805461ffff19166101011790555b610dfe33610999565b8015610764576000805461ff001916905550565b6001600160a01b038083166000908152610131602052604090205483911615610e935760405162461bcd60e51b815260206004820152602d60248201527f4d61726b657452656769737472793a2068617320616c7265616479206578697360448201526c3a103a3434b9903aaa37b5b2b760991b6064820152608401610729565b610eab600080516020611f0083398151915233610d73565b610ec75760405162461bcd60e51b815260040161072990611d54565b61012f8054600181019091557f232da9e50dad2971456a78fb5cd6ff6b75019984d6e918139ce990999420f9790180546001600160a01b038481166001600160a01b031992831681179093558516600081815261013160209081526040918290208054909416851790935551928352917fa8ddf380e0018e0fe64254567490e65f8df5c1e5ad620dad96349c8eecc4475c910161098c565b600082815260c96020526040902060010154610f7b81336112e2565b6106b883836113cc565b610f9d600080516020611f0083398151915233610d73565b610fb95760405162461bcd60e51b815260040161072990611d54565b6001600160a01b03808216600090815261013160205260408120549091169080805b61012f548110156110415761012f818154811061100857634e487b7160e01b600052603260045260246000fd5b6000918252602090912001546001600160a01b038581169116141561102f57600192508091505b8061103981611eb8565b915050610fdb565b5081156111235761012f805461105990600190611e5a565b8154811061107757634e487b7160e01b600052603260045260246000fd5b60009182526020909120015461012f80546001600160a01b0390921691839081106110b257634e487b7160e01b600052603260045260246000fd5b9060005260206000200160006101000a8154816001600160a01b0302191690836001600160a01b0316021790555061012f80548061110057634e487b7160e01b600052603160045260246000fd5b600082815260209020810160001990810180546001600160a01b03191690550190555b6001600160a01b0380851660009081526101316020526040812080546001600160a01b0319168155600101549091169080805b610130548110156111bc57610130818154811061118357634e487b7160e01b600052603260045260246000fd5b6000918252602090912001546001600160a01b03858116911614156111aa57600192508091505b806111b481611eb8565b915050611156565b50811561129e5761013080546111d490600190611e5a565b815481106111f257634e487b7160e01b600052603260045260246000fd5b60009182526020909120015461013080546001600160a01b03909216918390811061122d57634e487b7160e01b600052603260045260246000fd5b9060005260206000200160006101000a8154816001600160a01b0302191690836001600160a01b0316021790555061013080548061127b57634e487b7160e01b600052603160045260246000fd5b600082815260209020810160001990810180546001600160a01b03191690550190555b5050506001600160a01b0390931660009081526101316020526040902060010180546001600160a01b0319169055505050565b6101308181548110610c1257600080fd5b6112ec8282610d73565b61073c57611304816001600160a01b03166014611660565b61130f836020611660565b604051602001611320929190611c5f565b60408051601f198184030181529082905262461bcd60e51b825261072991600401611d21565b6113508282610d73565b61073c57600082815260c9602090815260408083206001600160a01b03851684529091529020805460ff191660011790556113883390565b6001600160a01b0316816001600160a01b0316837f2f8788117e7eff1d82e926ec794901d17c78024a50270940304540a733656f0d60405160405180910390a45050565b6113d68282610d73565b1561073c57600082815260c9602090815260408083206001600160a01b0385168085529252808320805460ff1916905551339285917ff6391f5c32d9c69d2a47ea670b442974b53935d1edc7fd64eb21e047a839171b9190a45050565b61144b600080516020611f0083398151915233610d73565b6107645760405162461bcd60e51b815260040161072990611d54565b600061149a7f360894a13ba1a3210667c828492db98dca3e2076cc3735a920a3ca505d382bbc546001600160a01b031690565b90506114a584611849565b6000835111806114b25750815b156114c3576114c184846118ee565b505b7f4910fdfa16fed3260ed0e7147f7cc6da11a60208b5b9406d12a635614ffd9143805460ff166115e857805460ff191660011781556040516001600160a01b038316602482015261154290869060440160408051601f198184030181529190526020810180516001600160e01b0316631b2ce7f360e11b1790526118ee565b50805460ff191681557f360894a13ba1a3210667c828492db98dca3e2076cc3735a920a3ca505d382bbc546001600160a01b038381169116146115df5760405162461bcd60e51b815260206004820152602f60248201527f45524331393637557067726164653a207570677261646520627265616b73206660448201526e75727468657220757067726164657360881b6064820152608401610729565b6115e8856119d9565b5050505050565b600054610100900460ff1680611608575060005460ff16155b6116245760405162461bcd60e51b815260040161072990611dd5565b600054610100900460ff16158015611646576000805461ffff19166101011790555b61164e611a19565b610dfe611a19565b61073c8282611346565b6060600061166f836002611e3b565b61167a906002611e23565b67ffffffffffffffff8111156116a057634e487b7160e01b600052604160045260246000fd5b6040519080825280601f01601f1916602001820160405280156116ca576020820181803683370190505b509050600360fc1b816000815181106116f357634e487b7160e01b600052603260045260246000fd5b60200101906001600160f81b031916908160001a905350600f60fb1b8160018151811061173057634e487b7160e01b600052603260045260246000fd5b60200101906001600160f81b031916908160001a9053506000611754846002611e3b565b61175f906001611e23565b90505b60018111156117f3576f181899199a1a9b1b9c1cb0b131b232b360811b85600f16601081106117a157634e487b7160e01b600052603260045260246000fd5b1a60f81b8282815181106117c557634e487b7160e01b600052603260045260246000fd5b60200101906001600160f81b031916908160001a90535060049490941c936117ec81611ea1565b9050611762565b5083156118425760405162461bcd60e51b815260206004820181905260248201527f537472696e67733a20686578206c656e67746820696e73756666696369656e746044820152606401610729565b9392505050565b803b6118ad5760405162461bcd60e51b815260206004820152602d60248201527f455243313936373a206e657720696d706c656d656e746174696f6e206973206e60448201526c1bdd08184818dbdb9d1c9858dd609a1b6064820152608401610729565b7f360894a13ba1a3210667c828492db98dca3e2076cc3735a920a3ca505d382bbc80546001600160a01b0319166001600160a01b0392909216919091179055565b6060823b61194d5760405162461bcd60e51b815260206004820152602660248201527f416464726573733a2064656c65676174652063616c6c20746f206e6f6e2d636f6044820152651b9d1c9858dd60d21b6064820152608401610729565b600080846001600160a01b0316846040516119689190611c43565b600060405180830381855af49150503d80600081146119a3576040519150601f19603f3d011682016040523d82523d6000602084013e6119a8565b606091505b50915091506119d08282604051806060016040528060278152602001611f2060279139611a83565b95945050505050565b6119e281611849565b6040516001600160a01b038216907fbc7cd75a20ee27fd9adebab32041f755214dbc6bffa90cc0225b39da2e5c2d3b90600090a250565b600054610100900460ff1680611a32575060005460ff16155b611a4e5760405162461bcd60e51b815260040161072990611dd5565b600054610100900460ff16158015610dfe576000805461ffff19166101011790558015610764576000805461ff001916905550565b60608315611a92575081611842565b825115611aa25782518084602001fd5b8160405162461bcd60e51b81526004016107299190611d21565b80356001600160a01b0381168114611ad357600080fd5b919050565b600060208284031215611ae9578081fd5b61184282611abc565b60008060408385031215611b04578081fd5b611b0d83611abc565b9150611b1b60208401611abc565b90509250929050565b60008060408385031215611b36578182fd5b611b3f83611abc565b9150602083013567ffffffffffffffff80821115611b5b578283fd5b818501915085601f830112611b6e578283fd5b813581811115611b8057611b80611ee9565b604051601f8201601f19908116603f01168101908382118183101715611ba857611ba8611ee9565b81604052828152886020848701011115611bc0578586fd5b82602086016020830137856020848301015280955050505050509250929050565b600060208284031215611bf2578081fd5b5035919050565b60008060408385031215611c0b578182fd5b82359150611b1b60208401611abc565b600060208284031215611c2c578081fd5b81356001600160e01b031981168114611842578182fd5b60008251611c55818460208701611e71565b9190910192915050565b7f416363657373436f6e74726f6c3a206163636f756e7420000000000000000000815260008351611c97816017850160208801611e71565b7001034b99036b4b9b9b4b733903937b6329607d1b6017918401918201528351611cc8816028840160208801611e71565b01602801949350505050565b6020808252825182820181905260009190848201906040850190845b81811015611d155783516001600160a01b031683529284019291840191600101611cf0565b50909695505050505050565b6020815260008251806020840152611d40816040850160208701611e71565b601f01601f19169190910160400192915050565b60208082526015908201527421b7b73a3937b63632b91d103737ba1030b236b4b760591b604082015260600190565b60208082526032908201527f436f6e74726f6c6c65723a2063616c6c657220646f6573206e6f7420686176656040820152712074686520677561726469616e20726f6c6560701b606082015260800190565b6020808252602e908201527f496e697469616c697a61626c653a20636f6e747261637420697320616c72656160408201526d191e481a5b9a5d1a585b1a5e995960921b606082015260800190565b60008219821115611e3657611e36611ed3565b500190565b6000816000190483118215151615611e5557611e55611ed3565b500290565b600082821015611e6c57611e6c611ed3565b500390565b60005b83811015611e8c578181015183820152602001611e74565b83811115611e9b576000848401525b50505050565b600081611eb057611eb0611ed3565b506000190190565b6000600019821415611ecc57611ecc611ed3565b5060010190565b634e487b7160e01b600052601160045260246000fd5b634e487b7160e01b600052604160045260246000fdfe2172861495e7b85edac73e3cd5fbb42dd675baadf627720e687bcfdaca025096416464726573733a206c6f772d6c6576656c2064656c65676174652063616c6c206661696c6564a2646970667358221220cec20198eb4fff3e80332f001a95a2e5a64af364d2d4344615613d45331c329464736f6c63430008040033",
  "devdoc": {
    "details": "Registering and managing all the lending markets.",
    "kind": "dev",
    "methods": {
      "__MarketRegistry_init()": {
        "details": "Initialization function"
      },
      "addAdmin(address)": {
        "details": "Add a new admin account",
        "params": {
          "account": "Account address"
        }
      },
      "getRoleAdmin(bytes32)": {
        "details": "Returns the admin role that controls `role`. See {grantRole} and {revokeRole}. To change a role's admin, use {_setRoleAdmin}."
      },
      "getUTokens()": {
        "details": "Retrieves the value of the state variable `uTokenList`",
        "returns": {
          "_0": "Stored uToken address"
        }
      },
      "grantRole(bytes32,address)": {
        "details": "Grants `role` to `account`. If `account` had not been already granted `role`, emits a {RoleGranted} event. Requirements: - the caller must have ``role``'s admin role."
      },
      "hasRole(bytes32,address)": {
        "details": "Returns `true` if `account` has been granted `role`."
      },
      "isAdmin(address)": {
        "details": "Check if the address provided is the admin",
        "params": {
          "account": "Account address"
        }
      },
      "pause()": {
        "details": "Called by a pauser to pause, triggers stopped state."
      },
      "paused()": {
        "details": "Returns true if the contract is paused, and false otherwise."
      },
      "renounceAdmin()": {
        "details": "Renouce the admin from the sender's address"
      },
      "renounceRole(bytes32,address)": {
        "details": "Revokes `role` from the calling account. Roles are often managed via {grantRole} and {revokeRole}: this function's purpose is to provide a mechanism for accounts to lose their privileges if they are compromised (such as when a trusted device is misplaced). If the calling account had been granted `role`, emits a {RoleRevoked} event. Requirements: - the caller must be `account`."
      },
      "revokeRole(bytes32,address)": {
        "details": "Revokes `role` from `account`. If `account` had been granted `role`, emits a {RoleRevoked} event. Requirements: - the caller must have ``role``'s admin role."
      },
      "setGuardian(address)": {
        "details": "Set pauseGuardian account",
        "params": {
          "account": "Account address"
        }
      },
      "supportsInterface(bytes4)": {
        "details": "See {IERC165-supportsInterface}."
      },
      "unpause()": {
        "details": "Called by a pauser to unpause, returns to normal state."
      },
      "upgradeTo(address)": {
        "details": "Upgrade the implementation of the proxy to `newImplementation`. Calls {_authorizeUpgrade}. Emits an {Upgraded} event."
      },
      "upgradeToAndCall(address,bytes)": {
        "details": "Upgrade the implementation of the proxy to `newImplementation`, and subsequently execute the function call encoded in `data`. Calls {_authorizeUpgrade}. Emits an {Upgraded} event."
      }
    },
    "title": "MarketRegistry Contract",
    "version": 1
  },
  "userdoc": {
    "kind": "user",
    "methods": {},
    "version": 1
  },
  "storageLayout": {
    "storage": [
      {
        "astId": 821,
        "contract": "contracts/market/MarketRegistry.sol:MarketRegistry",
        "label": "_initialized",
        "offset": 0,
        "slot": "0",
        "type": "t_bool"
      },
      {
        "astId": 824,
        "contract": "contracts/market/MarketRegistry.sol:MarketRegistry",
        "label": "_initializing",
        "offset": 1,
        "slot": "0",
        "type": "t_bool"
      },
      {
        "astId": 804,
        "contract": "contracts/market/MarketRegistry.sol:MarketRegistry",
        "label": "__gap",
        "offset": 0,
        "slot": "1",
        "type": "t_array(t_uint256)50_storage"
      },
      {
        "astId": 937,
        "contract": "contracts/market/MarketRegistry.sol:MarketRegistry",
        "label": "__gap",
        "offset": 0,
        "slot": "51",
        "type": "t_array(t_uint256)50_storage"
      },
      {
        "astId": 2184,
        "contract": "contracts/market/MarketRegistry.sol:MarketRegistry",
        "label": "__gap",
        "offset": 0,
        "slot": "101",
        "type": "t_array(t_uint256)50_storage"
      },
      {
        "astId": 2493,
        "contract": "contracts/market/MarketRegistry.sol:MarketRegistry",
        "label": "__gap",
        "offset": 0,
        "slot": "151",
        "type": "t_array(t_uint256)50_storage"
      },
      {
        "astId": 48,
        "contract": "contracts/market/MarketRegistry.sol:MarketRegistry",
        "label": "_roles",
        "offset": 0,
        "slot": "201",
        "type": "t_mapping(t_bytes32,t_struct(RoleData)43_storage)"
      },
      {
        "astId": 333,
        "contract": "contracts/market/MarketRegistry.sol:MarketRegistry",
        "label": "__gap",
        "offset": 0,
        "slot": "202",
        "type": "t_array(t_uint256)49_storage"
      },
      {
        "astId": 10453,
        "contract": "contracts/market/MarketRegistry.sol:MarketRegistry",
        "label": "_admins",
        "offset": 0,
        "slot": "251",
        "type": "t_mapping(t_address,t_address)"
      },
      {
        "astId": 10455,
        "contract": "contracts/market/MarketRegistry.sol:MarketRegistry",
        "label": "_paused",
        "offset": 0,
        "slot": "252",
        "type": "t_bool"
      },
      {
        "astId": 10457,
        "contract": "contracts/market/MarketRegistry.sol:MarketRegistry",
        "label": "pauseGuardian",
        "offset": 1,
        "slot": "252",
        "type": "t_address"
      },
      {
        "astId": 10697,
        "contract": "contracts/market/MarketRegistry.sol:MarketRegistry",
        "label": "______gap",
        "offset": 0,
        "slot": "253",
        "type": "t_array(t_uint256)50_storage"
      },
      {
        "astId": 15126,
        "contract": "contracts/market/MarketRegistry.sol:MarketRegistry",
        "label": "uTokenList",
        "offset": 0,
        "slot": "303",
        "type": "t_array(t_address)dyn_storage"
      },
      {
        "astId": 15129,
        "contract": "contracts/market/MarketRegistry.sol:MarketRegistry",
        "label": "userManagerList",
        "offset": 0,
        "slot": "304",
        "type": "t_array(t_address)dyn_storage"
      },
      {
        "astId": 15134,
        "contract": "contracts/market/MarketRegistry.sol:MarketRegistry",
        "label": "tokens",
        "offset": 0,
        "slot": "305",
        "type": "t_mapping(t_address,t_struct(Market)15123_storage)"
      }
    ],
    "types": {
      "t_address": {
        "encoding": "inplace",
        "label": "address",
        "numberOfBytes": "20"
      },
      "t_array(t_address)dyn_storage": {
        "base": "t_address",
        "encoding": "dynamic_array",
        "label": "address[]",
        "numberOfBytes": "32"
      },
      "t_array(t_uint256)49_storage": {
        "base": "t_uint256",
        "encoding": "inplace",
        "label": "uint256[49]",
        "numberOfBytes": "1568"
      },
      "t_array(t_uint256)50_storage": {
        "base": "t_uint256",
        "encoding": "inplace",
        "label": "uint256[50]",
        "numberOfBytes": "1600"
      },
      "t_bool": {
        "encoding": "inplace",
        "label": "bool",
        "numberOfBytes": "1"
      },
      "t_bytes32": {
        "encoding": "inplace",
        "label": "bytes32",
        "numberOfBytes": "32"
      },
      "t_mapping(t_address,t_address)": {
        "encoding": "mapping",
        "key": "t_address",
        "label": "mapping(address => address)",
        "numberOfBytes": "32",
        "value": "t_address"
      },
      "t_mapping(t_address,t_bool)": {
        "encoding": "mapping",
        "key": "t_address",
        "label": "mapping(address => bool)",
        "numberOfBytes": "32",
        "value": "t_bool"
      },
      "t_mapping(t_address,t_struct(Market)15123_storage)": {
        "encoding": "mapping",
        "key": "t_address",
        "label": "mapping(address => struct MarketRegistry.Market)",
        "numberOfBytes": "32",
        "value": "t_struct(Market)15123_storage"
      },
      "t_mapping(t_bytes32,t_struct(RoleData)43_storage)": {
        "encoding": "mapping",
        "key": "t_bytes32",
        "label": "mapping(bytes32 => struct AccessControlUpgradeable.RoleData)",
        "numberOfBytes": "32",
        "value": "t_struct(RoleData)43_storage"
      },
      "t_struct(Market)15123_storage": {
        "encoding": "inplace",
        "label": "struct MarketRegistry.Market",
        "members": [
          {
            "astId": 15120,
            "contract": "contracts/market/MarketRegistry.sol:MarketRegistry",
            "label": "uToken",
            "offset": 0,
            "slot": "0",
            "type": "t_address"
          },
          {
            "astId": 15122,
            "contract": "contracts/market/MarketRegistry.sol:MarketRegistry",
            "label": "userManager",
            "offset": 0,
            "slot": "1",
            "type": "t_address"
          }
        ],
        "numberOfBytes": "64"
      },
      "t_struct(RoleData)43_storage": {
        "encoding": "inplace",
        "label": "struct AccessControlUpgradeable.RoleData",
        "members": [
          {
            "astId": 40,
            "contract": "contracts/market/MarketRegistry.sol:MarketRegistry",
            "label": "members",
            "offset": 0,
            "slot": "0",
            "type": "t_mapping(t_address,t_bool)"
          },
          {
            "astId": 42,
            "contract": "contracts/market/MarketRegistry.sol:MarketRegistry",
            "label": "adminRole",
            "offset": 0,
            "slot": "1",
            "type": "t_bytes32"
          }
        ],
        "numberOfBytes": "64"
      },
      "t_uint256": {
        "encoding": "inplace",
        "label": "uint256",
        "numberOfBytes": "32"
      }
    }
  }
}