{
  "address": "0xABcf48cE11d4D5de14BBD6fcAbD927d9CcC5FFc0",
  "abi": [
    {
      "anonymous": false,
      "inputs": [
        {
          "indexed": false,
          "internalType": "address",
          "name": "previousAdmin",
          "type": "address"
        },
        {
          "indexed": false,
          "internalType": "address",
          "name": "newAdmin",
          "type": "address"
        }
      ],
      "name": "AdminChanged",
      "type": "event"
    },
    {
      "anonymous": false,
      "inputs": [
        {
          "indexed": true,
          "internalType": "address",
          "name": "beacon",
          "type": "address"
        }
      ],
      "name": "BeaconUpgraded",
      "type": "event"
    },
    {
      "anonymous": false,
      "inputs": [
        {
          "indexed": false,
          "internalType": "address",
          "name": "account",
          "type": "address"
        }
      ],
      "name": "Paused",
      "type": "event"
    },
    {
      "anonymous": false,
      "inputs": [
        {
          "indexed": true,
          "internalType": "bytes32",
          "name": "role",
          "type": "bytes32"
        },
        {
          "indexed": true,
          "internalType": "bytes32",
          "name": "previousAdminRole",
          "type": "bytes32"
        },
        {
          "indexed": true,
          "internalType": "bytes32",
          "name": "newAdminRole",
          "type": "bytes32"
        }
      ],
      "name": "RoleAdminChanged",
      "type": "event"
    },
    {
      "anonymous": false,
      "inputs": [
        {
          "indexed": true,
          "internalType": "bytes32",
          "name": "role",
          "type": "bytes32"
        },
        {
          "indexed": true,
          "internalType": "address",
          "name": "account",
          "type": "address"
        },
        {
          "indexed": true,
          "internalType": "address",
          "name": "sender",
          "type": "address"
        }
      ],
      "name": "RoleGranted",
      "type": "event"
    },
    {
      "anonymous": false,
      "inputs": [
        {
          "indexed": true,
          "internalType": "bytes32",
          "name": "role",
          "type": "bytes32"
        },
        {
          "indexed": true,
          "internalType": "address",
          "name": "account",
          "type": "address"
        },
        {
          "indexed": true,
          "internalType": "address",
          "name": "sender",
          "type": "address"
        }
      ],
      "name": "RoleRevoked",
      "type": "event"
    },
    {
      "anonymous": false,
      "inputs": [
        {
          "indexed": false,
          "internalType": "address",
          "name": "account",
          "type": "address"
        }
      ],
      "name": "Unpaused",
      "type": "event"
    },
    {
      "anonymous": false,
      "inputs": [
        {
          "indexed": true,
          "internalType": "address",
          "name": "implementation",
          "type": "address"
        }
      ],
      "name": "Upgraded",
      "type": "event"
    },
    {
      "inputs": [],
      "name": "DEFAULT_ADMIN_ROLE",
      "outputs": [
        {
          "internalType": "bytes32",
          "name": "",
          "type": "bytes32"
        }
      ],
      "stateMutability": "view",
      "type": "function"
    },
    {
      "inputs": [],
      "name": "ROLE_ADMIN",
      "outputs": [
        {
          "internalType": "bytes32",
          "name": "",
          "type": "bytes32"
        }
      ],
      "stateMutability": "view",
      "type": "function"
    },
    {
      "inputs": [
        {
          "internalType": "address",
          "name": "admin_",
          "type": "address"
        }
      ],
      "name": "__Controller_init",
      "outputs": [],
      "stateMutability": "nonpayable",
      "type": "function"
    },
    {
      "inputs": [
        {
          "internalType": "address",
          "name": "_assetManager",
          "type": "address"
        }
      ],
      "name": "__PureTokenAdapter_init",
      "outputs": [],
      "stateMutability": "nonpayable",
      "type": "function"
    },
    {
      "inputs": [
        {
          "internalType": "address",
          "name": "account",
          "type": "address"
        }
      ],
      "name": "addAdmin",
      "outputs": [],
      "stateMutability": "nonpayable",
      "type": "function"
    },
    {
      "inputs": [],
      "name": "assetManager",
      "outputs": [
        {
          "internalType": "address",
          "name": "",
          "type": "address"
        }
      ],
      "stateMutability": "view",
      "type": "function"
    },
    {
      "inputs": [
        {
          "internalType": "address",
          "name": "",
          "type": "address"
        }
      ],
      "name": "ceilingMap",
      "outputs": [
        {
          "internalType": "uint256",
          "name": "",
          "type": "uint256"
        }
      ],
      "stateMutability": "view",
      "type": "function"
    },
    {
      "inputs": [
        {
          "internalType": "address",
          "name": "tokenAddress",
          "type": "address"
        },
        {
          "internalType": "address",
          "name": "recipient",
          "type": "address"
        }
      ],
      "name": "claimTokens",
      "outputs": [],
      "stateMutability": "nonpayable",
      "type": "function"
    },
    {
      "inputs": [
        {
          "internalType": "address",
          "name": "tokenAddress",
          "type": "address"
        }
      ],
      "name": "deposit",
      "outputs": [],
      "stateMutability": "view",
      "type": "function"
    },
    {
      "inputs": [
        {
          "internalType": "address",
          "name": "",
          "type": "address"
        }
      ],
      "name": "floorMap",
      "outputs": [
        {
          "internalType": "uint256",
          "name": "",
          "type": "uint256"
        }
      ],
      "stateMutability": "view",
      "type": "function"
    },
    {
      "inputs": [
        {
          "internalType": "address",
          "name": "",
          "type": "address"
        }
      ],
      "name": "getRate",
      "outputs": [
        {
          "internalType": "uint256",
          "name": "",
          "type": "uint256"
        }
      ],
      "stateMutability": "pure",
      "type": "function"
    },
    {
      "inputs": [
        {
          "internalType": "bytes32",
          "name": "role",
          "type": "bytes32"
        }
      ],
      "name": "getRoleAdmin",
      "outputs": [
        {
          "internalType": "bytes32",
          "name": "",
          "type": "bytes32"
        }
      ],
      "stateMutability": "view",
      "type": "function"
    },
    {
      "inputs": [
        {
          "internalType": "address",
          "name": "tokenAddress",
          "type": "address"
        }
      ],
      "name": "getSupply",
      "outputs": [
        {
          "internalType": "uint256",
          "name": "",
          "type": "uint256"
        }
      ],
      "stateMutability": "view",
      "type": "function"
    },
    {
      "inputs": [
        {
          "internalType": "address",
          "name": "tokenAddress",
          "type": "address"
        }
      ],
      "name": "getSupplyView",
      "outputs": [
        {
          "internalType": "uint256",
          "name": "",
          "type": "uint256"
        }
      ],
      "stateMutability": "view",
      "type": "function"
    },
    {
      "inputs": [
        {
          "internalType": "bytes32",
          "name": "role",
          "type": "bytes32"
        },
        {
          "internalType": "address",
          "name": "account",
          "type": "address"
        }
      ],
      "name": "grantRole",
      "outputs": [],
      "stateMutability": "nonpayable",
      "type": "function"
    },
    {
      "inputs": [
        {
          "internalType": "bytes32",
          "name": "role",
          "type": "bytes32"
        },
        {
          "internalType": "address",
          "name": "account",
          "type": "address"
        }
      ],
      "name": "hasRole",
      "outputs": [
        {
          "internalType": "bool",
          "name": "",
          "type": "bool"
        }
      ],
      "stateMutability": "view",
      "type": "function"
    },
    {
      "inputs": [
        {
          "internalType": "address",
          "name": "account",
          "type": "address"
        }
      ],
      "name": "isAdmin",
      "outputs": [
        {
          "internalType": "bool",
          "name": "",
          "type": "bool"
        }
      ],
      "stateMutability": "view",
      "type": "function"
    },
    {
      "inputs": [],
      "name": "pause",
      "outputs": [],
      "stateMutability": "nonpayable",
      "type": "function"
    },
    {
      "inputs": [],
      "name": "pauseGuardian",
      "outputs": [
        {
          "internalType": "address",
          "name": "",
          "type": "address"
        }
      ],
      "stateMutability": "view",
      "type": "function"
    },
    {
      "inputs": [],
      "name": "paused",
      "outputs": [
        {
          "internalType": "bool",
          "name": "",
          "type": "bool"
        }
      ],
      "stateMutability": "view",
      "type": "function"
    },
    {
      "inputs": [],
      "name": "renounceAdmin",
      "outputs": [],
      "stateMutability": "nonpayable",
      "type": "function"
    },
    {
      "inputs": [
        {
          "internalType": "bytes32",
          "name": "role",
          "type": "bytes32"
        },
        {
          "internalType": "address",
          "name": "account",
          "type": "address"
        }
      ],
      "name": "renounceRole",
      "outputs": [],
      "stateMutability": "nonpayable",
      "type": "function"
    },
    {
      "inputs": [
        {
          "internalType": "bytes32",
          "name": "role",
          "type": "bytes32"
        },
        {
          "internalType": "address",
          "name": "account",
          "type": "address"
        }
      ],
      "name": "revokeRole",
      "outputs": [],
      "stateMutability": "nonpayable",
      "type": "function"
    },
    {
      "inputs": [
        {
          "internalType": "address",
          "name": "_assetManager",
          "type": "address"
        }
      ],
      "name": "setAssetManager",
      "outputs": [],
      "stateMutability": "nonpayable",
      "type": "function"
    },
    {
      "inputs": [
        {
          "internalType": "address",
          "name": "tokenAddress",
          "type": "address"
        },
        {
          "internalType": "uint256",
          "name": "ceiling",
          "type": "uint256"
        }
      ],
      "name": "setCeiling",
      "outputs": [],
      "stateMutability": "nonpayable",
      "type": "function"
    },
    {
      "inputs": [
        {
          "internalType": "address",
          "name": "tokenAddress",
          "type": "address"
        },
        {
          "internalType": "uint256",
          "name": "floor",
          "type": "uint256"
        }
      ],
      "name": "setFloor",
      "outputs": [],
      "stateMutability": "nonpayable",
      "type": "function"
    },
    {
      "inputs": [
        {
          "internalType": "address",
          "name": "account",
          "type": "address"
        }
      ],
      "name": "setGuardian",
      "outputs": [],
      "stateMutability": "nonpayable",
      "type": "function"
    },
    {
      "inputs": [
        {
          "internalType": "bytes4",
          "name": "interfaceId",
          "type": "bytes4"
        }
      ],
      "name": "supportsInterface",
      "outputs": [
        {
          "internalType": "bool",
          "name": "",
          "type": "bool"
        }
      ],
      "stateMutability": "view",
      "type": "function"
    },
    {
      "inputs": [
        {
          "internalType": "address",
          "name": "tokenAddress",
          "type": "address"
        }
      ],
      "name": "supportsToken",
      "outputs": [
        {
          "internalType": "bool",
          "name": "",
          "type": "bool"
        }
      ],
      "stateMutability": "view",
      "type": "function"
    },
    {
      "inputs": [],
      "name": "unpause",
      "outputs": [],
      "stateMutability": "nonpayable",
      "type": "function"
    },
    {
      "inputs": [
        {
          "internalType": "address",
          "name": "newImplementation",
          "type": "address"
        }
      ],
      "name": "upgradeTo",
      "outputs": [],
      "stateMutability": "nonpayable",
      "type": "function"
    },
    {
      "inputs": [
        {
          "internalType": "address",
          "name": "newImplementation",
          "type": "address"
        },
        {
          "internalType": "bytes",
          "name": "data",
          "type": "bytes"
        }
      ],
      "name": "upgradeToAndCall",
      "outputs": [],
      "stateMutability": "payable",
      "type": "function"
    },
    {
      "inputs": [
        {
          "internalType": "address",
          "name": "tokenAddress",
          "type": "address"
        },
        {
          "internalType": "address",
          "name": "recipient",
          "type": "address"
        },
        {
          "internalType": "uint256",
          "name": "tokenAmount",
          "type": "uint256"
        }
      ],
      "name": "withdraw",
      "outputs": [],
      "stateMutability": "nonpayable",
      "type": "function"
    },
    {
      "inputs": [
        {
          "internalType": "address",
          "name": "tokenAddress",
          "type": "address"
        },
        {
          "internalType": "address",
          "name": "recipient",
          "type": "address"
        }
      ],
      "name": "withdrawAll",
      "outputs": [],
      "stateMutability": "nonpayable",
      "type": "function"
    }
  ],
  "transactionHash": "0xc62f3a728f63aa49b5d3ff110e79a5fac0732d09b3bd764d2e9c989d47ab29c1",
  "args": [],
  "solcInputHash": "815da1a7bd393b91c2edbc66164c6945",
  "bytecode": "0x608060405234801561001057600080fd5b506121e6806100206000396000f3fe6080604052600436106101f95760003560e01c806369ffa08a1161010d57806391d14854116100a0578063d391014b1161006f578063d391014b14610823578063d547741f14610845578063d9caed121461087e578063ed8a1e54146102e9578063f340fa01146108c157600080fd5b806391d148541461077b57806394217ad1146107b4578063a217fddf146107d5578063c99c7d93146107ea57600080fd5b80638456cb59116100dc5780638456cb59146106dd5780638a0dac4a146106f25780638bad0c0a14610725578063904d32611461073a57600080fd5b806369ffa08a146106035780636c00c7f01461063e5780636c461a731461067757806370480275146106aa57600080fd5b80632f2ff15d1161019057806337cef7911161015f57806337cef791146104c25780633f4ba83a146104ed57806343060237146105025780634f1ef286146105355780635c975abb146105eb57600080fd5b80632f2ff15d146103dc578063363f68ce1461041557806336568abe146104565780633659cfe61461048f57600080fd5b80631fd433aa116101cc5780631fd433aa146102e9578063248a9ca31461032e57806324a3d6221461036857806324d7806c146103a957600080fd5b806301ffc9a7146101fe578063061f76501461024657806309b12ff51461027957806309cae2c8146102ae575b600080fd5b34801561020a57600080fd5b506102326004803603602081101561022157600080fd5b50356001600160e01b0319166108f4565b604080519115158252519081900360200190f35b34801561025257600080fd5b506102326004803603602081101561026957600080fd5b50356001600160a01b031661092b565b34801561028557600080fd5b506102ac6004803603602081101561029c57600080fd5b50356001600160a01b0316610936565b005b3480156102ba57600080fd5b506102ac600480360360408110156102d157600080fd5b506001600160a01b03813581169160200135166109d1565b3480156102f557600080fd5b5061031c6004803603602081101561030c57600080fd5b50356001600160a01b0316610af9565b60408051918252519081900360200190f35b34801561033a57600080fd5b5061031c6004803603602081101561035157600080fd5b5035600090815260c9602052604090206001015490565b34801561037457600080fd5b5060fc5461038d9061010090046001600160a01b031681565b604080516001600160a01b039092168252519081900360200190f35b3480156103b557600080fd5b50610232600480360360208110156103cc57600080fd5b50356001600160a01b0316610b77565b3480156103e857600080fd5b506102ac600480360360408110156103ff57600080fd5b50803590602001356001600160a01b0316610b91565b34801561042157600080fd5b5061031c6004803603602081101561043857600080fd5b50610131602052356001600160a01b03166000908152604090205481565b34801561046257600080fd5b506102ac6004803603604081101561047957600080fd5b50803590602001356001600160a01b0316610bbc565b34801561049b57600080fd5b506102ac600480360360208110156104b257600080fd5b50356001600160a01b0316610c36565b3480156104ce57600080fd5b5061031c600480360360208110156104e557600080fd5b506000919050565b3480156104f957600080fd5b506102ac610c5d565b34801561050e57600080fd5b506102ac6004803603602081101561052557600080fd5b50356001600160a01b0316610d17565b6102ac6004803603604081101561054b57600080fd5b6001600160a01b03823516919081019060408101602082013564010000000081111561057657600080fd5b82018360208201111561058857600080fd5b803590602001918460018302840111640100000000831117156105aa57600080fd5b91908080601f016020809104026020016040519081016040528093929190818152602001838380828437600092019190915250929550610d6e945050505050565b3480156105f757600080fd5b5060fc5460ff16610232565b34801561060f57600080fd5b506102ac6004803603604081101561062657600080fd5b506001600160a01b0381358116916020013516610d83565b34801561064a57600080fd5b506102ac6004803603604081101561066157600080fd5b506001600160a01b038135169060200135610dd7565b34801561068357600080fd5b506102ac6004803603602081101561069a57600080fd5b50356001600160a01b0316610e28565b3480156106b657600080fd5b506102ac600480360360208110156106cd57600080fd5b50356001600160a01b0316610f58565b3480156106e957600080fd5b506102ac611090565b3480156106fe57600080fd5b506102ac6004803603602081101561071557600080fd5b50356001600160a01b0316611144565b34801561073157600080fd5b506102ac6111a0565b34801561074657600080fd5b5061031c6004803603602081101561075d57600080fd5b50610130602052356001600160a01b03166000908152604090205481565b34801561078757600080fd5b506102326004803603604081101561079e57600080fd5b50803590602001356001600160a01b03166111d7565b3480156107c057600080fd5b5061012f5461038d906001600160a01b031681565b3480156107e157600080fd5b5061031c600081565b3480156107f657600080fd5b506102ac6004803603604081101561080d57600080fd5b506001600160a01b038135169060200135611202565b34801561082f57600080fd5b5061031c60008051602061216a83398151915281565b34801561085157600080fd5b506102ac6004803603604081101561086857600080fd5b50803590602001356001600160a01b0316611253565b34801561088a57600080fd5b506102ac600480360360608110156108a157600080fd5b506001600160a01b03813581169160208101359091169060400135611279565b3480156108cd57600080fd5b506102ac600480360360208110156108e457600080fd5b50356001600160a01b0316611324565b60006001600160e01b03198216637965db0b60e01b148061092557506301ffc9a760e01b6001600160e01b03198316145b92915050565b600061092582611369565b600054610100900460ff168061094f575060005460ff16155b6109745760405162461bcd60e51b815260040161096b90612039565b60405180910390fd5b600054610100900460ff16158015610996576000805461ffff19166101011790555b61099f33610e28565b61012f80546001600160a01b0319166001600160a01b03841617905580156109cd576000805461ff00191690555b5050565b61012f546001600160a01b03163314610a1b5760405162461bcd60e51b815260040180806020018281038252602d81526020018061213d602d913960400191505060405180910390fd5b81610a2581611369565b610a605760405162461bcd60e51b81526004018080602001828103825260258152602001806121186025913960400191505060405180910390fd5b6000839050610af383826001600160a01b03166370a08231306040518263ffffffff1660e01b815260040180826001600160a01b0316815260200191505060206040518083038186803b158015610ab657600080fd5b505afa158015610aca573d6000803e3d6000fd5b505050506040513d6020811015610ae057600080fd5b50516001600160a01b0384169190611404565b50505050565b604080516370a0823160e01b8152306004820152905160009183916001600160a01b038316916370a08231916024808301926020929190829003018186803b158015610b4457600080fd5b505afa158015610b58573d6000803e3d6000fd5b505050506040513d6020811015610b6e57600080fd5b50519392505050565b600061092560008051602061216a833981519152836111d7565b600082815260c96020526040902060010154610bad8133611456565b610bb783836114ba565b505050565b6001600160a01b0381163314610c2c5760405162461bcd60e51b815260206004820152602f60248201527f416363657373436f6e74726f6c3a2063616e206f6e6c792072656e6f756e636560448201526e103937b632b9903337b91039b2b63360891b606482015260840161096b565b6109cd8282611540565b610c3f816115a7565b610c5a816040518060200160405280600081525060006115db565b50565b60fc5461010090046001600160a01b03163314610c8c5760405162461bcd60e51b815260040161096b90611fe7565b60fc5460ff16610cd75760405162461bcd60e51b815260206004820152601660248201527510dbdb9d1c9bdb1b195c8e881b9bdd081c185d5cd95960521b604482015260640161096b565b60fc805460ff191690556040513381527f5db9ee0a495bf2e6ff9c91a7834c1ba4fdd244a5e8aa4e537bd38aeae4b073aa906020015b60405180910390a1565b610d2f60008051602061216a833981519152336111d7565b610d4b5760405162461bcd60e51b815260040161096b90611fb8565b61012f80546001600160a01b0319166001600160a01b0392909216919091179055565b610d77826115a7565b6109cd828260016115db565b61012f546001600160a01b03163314610dcd5760405162461bcd60e51b815260040180806020018281038252602d81526020018061213d602d913960400191505060405180910390fd5b6109cd828261175c565b610def60008051602061216a833981519152336111d7565b610e0b5760405162461bcd60e51b815260040161096b90611fb8565b6001600160a01b0390911660009081526101316020526040902055565b600054610100900460ff1680610e41575060005460ff16155b610e5d5760405162461bcd60e51b815260040161096b90612039565b600054610100900460ff16158015610e7f576000805461ffff19166101011790555b6001600160a01b038216610ed05760405162461bcd60e51b8152602060048201526018602482015277436f6e74726f6c6c65723a2061646472657373207a65726f60401b604482015260640161096b565b60fc805460ff191690556001600160a01b038216600081815260fb6020526040902080546001600160a01b0319169091179055610f0b6117e9565b610f2360008051602061216a83398151915283611864565b60fc8054610100600160a81b0319166101006001600160a01b0385160217905580156109cd576000805461ff00191690555050565b610f7060008051602061216a833981519152336111d7565b610f8c5760405162461bcd60e51b815260040161096b90611fb8565b6001600160a01b038116610fdd5760405162461bcd60e51b8152602060048201526018602482015277436f6e74726f6c6c65723a2061646472657373207a65726f60401b604482015260640161096b565b6001600160a01b03818116600090815260fb6020526040902054161561104f5760405162461bcd60e51b815260206004820152602160248201527f436f6e74726f6c6c65723a2061646d696e20616c7265616479206578697374656044820152601960fa1b606482015260840161096b565b6001600160a01b038116600081815260fb6020526040902080546001600160a01b0319169091179055610c5a60008051602061216a83398151915282611864565b60fc5461010090046001600160a01b031633146110bf5760405162461bcd60e51b815260040161096b90611fe7565b60fc5460ff16156111075760405162461bcd60e51b815260206004820152601260248201527110dbdb9d1c9bdb1b195c8e881c185d5cd95960721b604482015260640161096b565b60fc805460ff191660011790556040513381527f62e78cea01bee320cd4e420270b5ea74000d11b0c9f74754ebdbfc544b05a25890602001610d0d565b61115c60008051602061216a833981519152336111d7565b6111785760405162461bcd60e51b815260040161096b90611fb8565b60fc80546001600160a01b0390921661010002610100600160a81b0319909216919091179055565b6111b860008051602061216a83398151915233610bbc565b33600090815260fb6020526040902080546001600160a01b0319169055565b600091825260c9602090815260408084206001600160a01b0393909316845291905290205460ff1690565b61121a60008051602061216a833981519152336111d7565b6112365760405162461bcd60e51b815260040161096b90611fb8565b6001600160a01b0390911660009081526101306020526040902055565b600082815260c9602052604090206001015461126f8133611456565b610bb78383611540565b61012f546001600160a01b031633146112c35760405162461bcd60e51b815260040180806020018281038252602d81526020018061213d602d913960400191505060405180910390fd5b826112cd81611369565b6113085760405162461bcd60e51b81526004018080602001828103825260258152602001806121186025913960400191505060405180910390fd5b8361131d6001600160a01b0382168585611404565b5050505050565b8061132e81611369565b6109cd5760405162461bcd60e51b81526004018080602001828103825260258152602001806121186025913960400191505060405180910390fd5b6000816001600160a01b038116158015906113fd57506000816001600160a01b03166370a08231306040518263ffffffff1660e01b815260040180826001600160a01b0316815260200191505060206040518083038186803b1580156113ce57600080fd5b505afa1580156113e2573d6000803e3d6000fd5b505050506040513d60208110156113f857600080fd5b505110155b9392505050565b604080516001600160a01b038416602482015260448082018490528251808303909101815260649091019091526020810180516001600160e01b031663a9059cbb60e01b179052610bb790849061186e565b61146082826111d7565b6109cd57611478816001600160a01b03166014611940565b611483836020611940565b604051602001611494929190611f10565b60408051601f198184030181529082905262461bcd60e51b825261096b91600401611f85565b6114c482826111d7565b6109cd57600082815260c9602090815260408083206001600160a01b03851684529091529020805460ff191660011790556114fc3390565b6001600160a01b0316816001600160a01b0316837f2f8788117e7eff1d82e926ec794901d17c78024a50270940304540a733656f0d60405160405180910390a45050565b61154a82826111d7565b156109cd57600082815260c9602090815260408083206001600160a01b0385168085529252808320805460ff1916905551339285917ff6391f5c32d9c69d2a47ea670b442974b53935d1edc7fd64eb21e047a839171b9190a45050565b6115bf60008051602061216a833981519152336111d7565b610c5a5760405162461bcd60e51b815260040161096b90611fb8565b600061160e7f360894a13ba1a3210667c828492db98dca3e2076cc3735a920a3ca505d382bbc546001600160a01b031690565b905061161984611b22565b6000835111806116265750815b15611637576116358484611bc7565b505b7f4910fdfa16fed3260ed0e7147f7cc6da11a60208b5b9406d12a635614ffd9143805460ff1661131d57805460ff191660011781556040516001600160a01b03831660248201526116b690869060440160408051601f198184030181529190526020810180516001600160e01b0316631b2ce7f360e11b179052611bc7565b50805460ff191681557f360894a13ba1a3210667c828492db98dca3e2076cc3735a920a3ca505d382bbc546001600160a01b038381169116146117535760405162461bcd60e51b815260206004820152602f60248201527f45524331393637557067726164653a207570677261646520627265616b73206660448201526e75727468657220757067726164657360881b606482015260840161096b565b61131d85611cb2565b604080516370a0823160e01b8152306004820152905183916000916001600160a01b038416916370a08231916024808301926020929190829003018186803b1580156117a757600080fd5b505afa1580156117bb573d6000803e3d6000fd5b505050506040513d60208110156117d157600080fd5b50519050610af36001600160a01b0383168483611404565b600054610100900460ff1680611802575060005460ff16155b61181e5760405162461bcd60e51b815260040161096b90612039565b600054610100900460ff16158015611840576000805461ffff19166101011790555b611848611cf2565b611850611cf2565b8015610c5a576000805461ff001916905550565b6109cd82826114ba565b60006118c3826040518060400160405280602081526020017f5361666545524332303a206c6f772d6c6576656c2063616c6c206661696c6564815250856001600160a01b0316611d5c9092919063ffffffff16565b805190915015610bb757808060200190518101906118e19190611ed4565b610bb75760405162461bcd60e51b815260206004820152602a60248201527f5361666545524332303a204552433230206f7065726174696f6e20646964206e6044820152691bdd081cdd58d8d9595960b21b606482015260840161096b565b6060600061194f83600261209f565b61195a906002612087565b67ffffffffffffffff81111561198057634e487b7160e01b600052604160045260246000fd5b6040519080825280601f01601f1916602001820160405280156119aa576020820181803683370190505b509050600360fc1b816000815181106119d357634e487b7160e01b600052603260045260246000fd5b60200101906001600160f81b031916908160001a905350600f60fb1b81600181518110611a1057634e487b7160e01b600052603260045260246000fd5b60200101906001600160f81b031916908160001a9053506000611a3484600261209f565b611a3f906001612087565b90505b6001811115611ad3576f181899199a1a9b1b9c1cb0b131b232b360811b85600f1660108110611a8157634e487b7160e01b600052603260045260246000fd5b1a60f81b828281518110611aa557634e487b7160e01b600052603260045260246000fd5b60200101906001600160f81b031916908160001a90535060049490941c93611acc816120ea565b9050611a42565b5083156113fd5760405162461bcd60e51b815260206004820181905260248201527f537472696e67733a20686578206c656e67746820696e73756666696369656e74604482015260640161096b565b803b611b865760405162461bcd60e51b815260206004820152602d60248201527f455243313936373a206e657720696d706c656d656e746174696f6e206973206e60448201526c1bdd08184818dbdb9d1c9858dd609a1b606482015260840161096b565b7f360894a13ba1a3210667c828492db98dca3e2076cc3735a920a3ca505d382bbc80546001600160a01b0319166001600160a01b0392909216919091179055565b6060823b611c265760405162461bcd60e51b815260206004820152602660248201527f416464726573733a2064656c65676174652063616c6c20746f206e6f6e2d636f6044820152651b9d1c9858dd60d21b606482015260840161096b565b600080846001600160a01b031684604051611c419190611ef4565b600060405180830381855af49150503d8060008114611c7c576040519150601f19603f3d011682016040523d82523d6000602084013e611c81565b606091505b5091509150611ca9828260405180606001604052806027815260200161218a60279139611d73565b95945050505050565b611cbb81611b22565b6040516001600160a01b038216907fbc7cd75a20ee27fd9adebab32041f755214dbc6bffa90cc0225b39da2e5c2d3b90600090a250565b600054610100900460ff1680611d0b575060005460ff16155b611d275760405162461bcd60e51b815260040161096b90612039565b600054610100900460ff16158015611850576000805461ffff19166101011790558015610c5a576000805461ff001916905550565b6060611d6b8484600085611dac565b949350505050565b60608315611d825750816113fd565b825115611d925782518084602001fd5b8160405162461bcd60e51b815260040161096b9190611f85565b606082471015611e0d5760405162461bcd60e51b815260206004820152602660248201527f416464726573733a20696e73756666696369656e742062616c616e636520666f6044820152651c8818d85b1b60d21b606482015260840161096b565b843b611e5b5760405162461bcd60e51b815260206004820152601d60248201527f416464726573733a2063616c6c20746f206e6f6e2d636f6e7472616374000000604482015260640161096b565b600080866001600160a01b03168587604051611e779190611ef4565b60006040518083038185875af1925050503d8060008114611eb4576040519150601f19603f3d011682016040523d82523d6000602084013e611eb9565b606091505b5091509150611ec9828286611d73565b979650505050505050565b600060208284031215611ee5578081fd5b815180151581146113fd578182fd5b60008251611f068184602087016120be565b9190910192915050565b7f416363657373436f6e74726f6c3a206163636f756e7420000000000000000000815260008351611f488160178501602088016120be565b7001034b99036b4b9b9b4b733903937b6329607d1b6017918401918201528351611f798160288401602088016120be565b01602801949350505050565b6020815260008251806020840152611fa48160408501602087016120be565b601f01601f19169190910160400192915050565b60208082526015908201527421b7b73a3937b63632b91d103737ba1030b236b4b760591b604082015260600190565b60208082526032908201527f436f6e74726f6c6c65723a2063616c6c657220646f6573206e6f7420686176656040820152712074686520677561726469616e20726f6c6560701b606082015260800190565b6020808252602e908201527f496e697469616c697a61626c653a20636f6e747261637420697320616c72656160408201526d191e481a5b9a5d1a585b1a5e995960921b606082015260800190565b6000821982111561209a5761209a612101565b500190565b60008160001904831182151516156120b9576120b9612101565b500290565b60005b838110156120d95781810151838201526020016120c1565b83811115610af35750506000910152565b6000816120f9576120f9612101565b506000190190565b634e487b7160e01b600052601160045260246000fdfe50757265546f6b656e416461707465723a20746f6b656e206e6f7420737570706f7274656450757265546f6b656e416461707465723a206f6e6c79206173736574206d616e616765722063616e2063616c6c2172861495e7b85edac73e3cd5fbb42dd675baadf627720e687bcfdaca025096416464726573733a206c6f772d6c6576656c2064656c65676174652063616c6c206661696c6564a264697066735822122006bcf21f8421bb0cbcc40b0992ae027474be844e5c00460910555dc7eec6ef7664736f6c63430008040033",
  "devdoc": {
    "kind": "dev",
    "methods": {
      "addAdmin(address)": {
        "details": "Add a new admin account",
        "params": {
          "account": "Account address"
        }
      },
      "deposit(address)": {
        "details": "Deposits the given amount of tokens in the underlying money market."
      },
      "getRoleAdmin(bytes32)": {
        "details": "Returns the admin role that controls `role`. See {grantRole} and {revokeRole}. To change a role's admin, use {_setRoleAdmin}."
      },
      "getSupply(address)": {
        "details": "Returns the supply for the given token, including accrued interest. This function can have side effects."
      },
      "getSupplyView(address)": {
        "details": "Returns the supply for the given token; it might not include accrued interest. This function *cannot* have side effects."
      },
      "grantRole(bytes32,address)": {
        "details": "Grants `role` to `account`. If `account` had not been already granted `role`, emits a {RoleGranted} event. Requirements: - the caller must have ``role``'s admin role."
      },
      "hasRole(bytes32,address)": {
        "details": "Returns `true` if `account` has been granted `role`."
      },
      "isAdmin(address)": {
        "details": "Check if the address provided is the admin",
        "params": {
          "account": "Account address"
        }
      },
      "pause()": {
        "details": "Called by a pauser to pause, triggers stopped state."
      },
      "paused()": {
        "details": "Returns true if the contract is paused, and false otherwise."
      },
      "renounceAdmin()": {
        "details": "Renouce the admin from the sender's address"
      },
      "renounceRole(bytes32,address)": {
        "details": "Revokes `role` from the calling account. Roles are often managed via {grantRole} and {revokeRole}: this function's purpose is to provide a mechanism for accounts to lose their privileges if they are compromised (such as when a trusted device is misplaced). If the calling account had been granted `role`, emits a {RoleRevoked} event. Requirements: - the caller must be `account`."
      },
      "revokeRole(bytes32,address)": {
        "details": "Revokes `role` from `account`. If `account` had been granted `role`, emits a {RoleRevoked} event. Requirements: - the caller must have ``role``'s admin role."
      },
      "setGuardian(address)": {
        "details": "Set pauseGuardian account",
        "params": {
          "account": "Account address"
        }
      },
      "supportsInterface(bytes4)": {
        "details": "See {IERC165-supportsInterface}."
      },
      "supportsToken(address)": {
        "details": "Indicates if the adapter supports the token with the given address."
      },
      "unpause()": {
        "details": "Called by a pauser to unpause, returns to normal state."
      },
      "upgradeTo(address)": {
        "details": "Upgrade the implementation of the proxy to `newImplementation`. Calls {_authorizeUpgrade}. Emits an {Upgraded} event."
      },
      "upgradeToAndCall(address,bytes)": {
        "details": "Upgrade the implementation of the proxy to `newImplementation`, and subsequently execute the function call encoded in `data`. Calls {_authorizeUpgrade}. Emits an {Upgraded} event."
      },
      "withdrawAll(address,address)": {
        "details": "Withdraws all the tokens from the underlying money market and transfers them to `recipient`."
      }
    },
    "stateVariables": {
      "ceilingMap": {
        "details": "The maximum amount that should be deposited in money market",
        "params": {
          "tokenAddress": "The address of token whose ceiling is being fetched"
        }
      },
      "floorMap": {
        "details": "The minimum amount that should be deposited in money market before moving to next priority market",
        "params": {
          "tokenAddress": "The address of token whose floor is being fetched"
        }
      }
    },
    "version": 1
  },
  "userdoc": {
    "kind": "user",
    "methods": {},
    "version": 1
  },
  "storageLayout": {
    "storage": [
      {
        "astId": 821,
        "contract": "contracts/asset/PureTokenAdapter.sol:PureTokenAdapter",
        "label": "_initialized",
        "offset": 0,
        "slot": "0",
        "type": "t_bool"
      },
      {
        "astId": 824,
        "contract": "contracts/asset/PureTokenAdapter.sol:PureTokenAdapter",
        "label": "_initializing",
        "offset": 1,
        "slot": "0",
        "type": "t_bool"
      },
      {
        "astId": 804,
        "contract": "contracts/asset/PureTokenAdapter.sol:PureTokenAdapter",
        "label": "__gap",
        "offset": 0,
        "slot": "1",
        "type": "t_array(t_uint256)50_storage"
      },
      {
        "astId": 937,
        "contract": "contracts/asset/PureTokenAdapter.sol:PureTokenAdapter",
        "label": "__gap",
        "offset": 0,
        "slot": "51",
        "type": "t_array(t_uint256)50_storage"
      },
      {
        "astId": 2184,
        "contract": "contracts/asset/PureTokenAdapter.sol:PureTokenAdapter",
        "label": "__gap",
        "offset": 0,
        "slot": "101",
        "type": "t_array(t_uint256)50_storage"
      },
      {
        "astId": 2493,
        "contract": "contracts/asset/PureTokenAdapter.sol:PureTokenAdapter",
        "label": "__gap",
        "offset": 0,
        "slot": "151",
        "type": "t_array(t_uint256)50_storage"
      },
      {
        "astId": 48,
        "contract": "contracts/asset/PureTokenAdapter.sol:PureTokenAdapter",
        "label": "_roles",
        "offset": 0,
        "slot": "201",
        "type": "t_mapping(t_bytes32,t_struct(RoleData)43_storage)"
      },
      {
        "astId": 333,
        "contract": "contracts/asset/PureTokenAdapter.sol:PureTokenAdapter",
        "label": "__gap",
        "offset": 0,
        "slot": "202",
        "type": "t_array(t_uint256)49_storage"
      },
      {
        "astId": 10453,
        "contract": "contracts/asset/PureTokenAdapter.sol:PureTokenAdapter",
        "label": "_admins",
        "offset": 0,
        "slot": "251",
        "type": "t_mapping(t_address,t_address)"
      },
      {
        "astId": 10455,
        "contract": "contracts/asset/PureTokenAdapter.sol:PureTokenAdapter",
        "label": "_paused",
        "offset": 0,
        "slot": "252",
        "type": "t_bool"
      },
      {
        "astId": 10457,
        "contract": "contracts/asset/PureTokenAdapter.sol:PureTokenAdapter",
        "label": "pauseGuardian",
        "offset": 1,
        "slot": "252",
        "type": "t_address"
      },
      {
        "astId": 10697,
        "contract": "contracts/asset/PureTokenAdapter.sol:PureTokenAdapter",
        "label": "______gap",
        "offset": 0,
        "slot": "253",
        "type": "t_array(t_uint256)50_storage"
      },
      {
        "astId": 13393,
        "contract": "contracts/asset/PureTokenAdapter.sol:PureTokenAdapter",
        "label": "assetManager",
        "offset": 0,
        "slot": "303",
        "type": "t_address"
      },
      {
        "astId": 13398,
        "contract": "contracts/asset/PureTokenAdapter.sol:PureTokenAdapter",
        "label": "floorMap",
        "offset": 0,
        "slot": "304",
        "type": "t_mapping(t_address,t_uint256)"
      },
      {
        "astId": 13403,
        "contract": "contracts/asset/PureTokenAdapter.sol:PureTokenAdapter",
        "label": "ceilingMap",
        "offset": 0,
        "slot": "305",
        "type": "t_mapping(t_address,t_uint256)"
      }
    ],
    "types": {
      "t_address": {
        "encoding": "inplace",
        "label": "address",
        "numberOfBytes": "20"
      },
      "t_array(t_uint256)49_storage": {
        "base": "t_uint256",
        "encoding": "inplace",
        "label": "uint256[49]",
        "numberOfBytes": "1568"
      },
      "t_array(t_uint256)50_storage": {
        "base": "t_uint256",
        "encoding": "inplace",
        "label": "uint256[50]",
        "numberOfBytes": "1600"
      },
      "t_bool": {
        "encoding": "inplace",
        "label": "bool",
        "numberOfBytes": "1"
      },
      "t_bytes32": {
        "encoding": "inplace",
        "label": "bytes32",
        "numberOfBytes": "32"
      },
      "t_mapping(t_address,t_address)": {
        "encoding": "mapping",
        "key": "t_address",
        "label": "mapping(address => address)",
        "numberOfBytes": "32",
        "value": "t_address"
      },
      "t_mapping(t_address,t_bool)": {
        "encoding": "mapping",
        "key": "t_address",
        "label": "mapping(address => bool)",
        "numberOfBytes": "32",
        "value": "t_bool"
      },
      "t_mapping(t_address,t_uint256)": {
        "encoding": "mapping",
        "key": "t_address",
        "label": "mapping(address => uint256)",
        "numberOfBytes": "32",
        "value": "t_uint256"
      },
      "t_mapping(t_bytes32,t_struct(RoleData)43_storage)": {
        "encoding": "mapping",
        "key": "t_bytes32",
        "label": "mapping(bytes32 => struct AccessControlUpgradeable.RoleData)",
        "numberOfBytes": "32",
        "value": "t_struct(RoleData)43_storage"
      },
      "t_struct(RoleData)43_storage": {
        "encoding": "inplace",
        "label": "struct AccessControlUpgradeable.RoleData",
        "members": [
          {
            "astId": 40,
            "contract": "contracts/asset/PureTokenAdapter.sol:PureTokenAdapter",
            "label": "members",
            "offset": 0,
            "slot": "0",
            "type": "t_mapping(t_address,t_bool)"
          },
          {
            "astId": 42,
            "contract": "contracts/asset/PureTokenAdapter.sol:PureTokenAdapter",
            "label": "adminRole",
            "offset": 0,
            "slot": "1",
            "type": "t_bytes32"
          }
        ],
        "numberOfBytes": "64"
      },
      "t_uint256": {
        "encoding": "inplace",
        "label": "uint256",
        "numberOfBytes": "32"
      }
    }
  }
}