{
  "address": "0x2741740E6929f3E2AA193F90c6F19830823Ec10c",
  "abi": [
    {
      "inputs": [
        {
          "internalType": "uint256",
          "name": "effectiveNumber_",
          "type": "uint256"
        }
      ],
      "stateMutability": "nonpayable",
      "type": "constructor"
    },
    {
      "anonymous": false,
      "inputs": [
        {
          "indexed": true,
          "internalType": "address",
          "name": "previousOwner",
          "type": "address"
        },
        {
          "indexed": true,
          "internalType": "address",
          "name": "newOwner",
          "type": "address"
        }
      ],
      "name": "OwnershipTransferred",
      "type": "event"
    },
    {
      "inputs": [],
      "name": "effectiveNumber",
      "outputs": [
        {
          "internalType": "uint256",
          "name": "",
          "type": "uint256"
        }
      ],
      "stateMutability": "view",
      "type": "function"
    },
    {
      "inputs": [
        {
          "internalType": "uint256[]",
          "name": "vouchs",
          "type": "uint256[]"
        }
      ],
      "name": "getCreditLimit",
      "outputs": [
        {
          "internalType": "uint256",
          "name": "",
          "type": "uint256"
        }
      ],
      "stateMutability": "view",
      "type": "function"
    },
    {
      "inputs": [
        {
          "components": [
            {
              "internalType": "address",
              "name": "staker",
              "type": "address"
            },
            {
              "internalType": "uint256",
              "name": "vouchingAmount",
              "type": "uint256"
            },
            {
              "internalType": "uint256",
              "name": "lockedAmount",
              "type": "uint256"
            },
            {
              "internalType": "uint256",
              "name": "availableStakingAmount",
              "type": "uint256"
            }
          ],
          "internalType": "struct ICreditLimitModel.LockedInfo[]",
          "name": "array",
          "type": "tuple[]"
        },
        {
          "internalType": "address",
          "name": "account",
          "type": "address"
        },
        {
          "internalType": "uint256",
          "name": "amount",
          "type": "uint256"
        },
        {
          "internalType": "bool",
          "name": "isIncrease",
          "type": "bool"
        }
      ],
      "name": "getLockedAmount",
      "outputs": [
        {
          "internalType": "uint256",
          "name": "",
          "type": "uint256"
        }
      ],
      "stateMutability": "pure",
      "type": "function"
    },
    {
      "inputs": [],
      "name": "isCreditLimitModel",
      "outputs": [
        {
          "internalType": "bool",
          "name": "",
          "type": "bool"
        }
      ],
      "stateMutability": "view",
      "type": "function"
    },
    {
      "inputs": [],
      "name": "owner",
      "outputs": [
        {
          "internalType": "address",
          "name": "",
          "type": "address"
        }
      ],
      "stateMutability": "view",
      "type": "function"
    },
    {
      "inputs": [],
      "name": "renounceOwnership",
      "outputs": [],
      "stateMutability": "nonpayable",
      "type": "function"
    },
    {
      "inputs": [
        {
          "internalType": "uint256",
          "name": "number",
          "type": "uint256"
        }
      ],
      "name": "setEffectNumber",
      "outputs": [],
      "stateMutability": "nonpayable",
      "type": "function"
    },
    {
      "inputs": [
        {
          "internalType": "address",
          "name": "newOwner",
          "type": "address"
        }
      ],
      "name": "transferOwnership",
      "outputs": [],
      "stateMutability": "nonpayable",
      "type": "function"
    }
  ],
  "transactionHash": "0x05404151f3171726c7b364147d06a8736156943fbfcaf9fffd2bd57fcfd0ddb2",
  "args": [
    "3"
  ],
  "solcInputHash": "815da1a7bd393b91c2edbc66164c6945",
  "bytecode": "0x608060405234801561001057600080fd5b50604051610de4380380610de483398101604081905261002f91610090565b61003833610040565b6001556100a8565b600080546001600160a01b038381166001600160a01b0319831681178455604051919092169283917f8be0079c531659141344cd1fd0a4f28419497f9722a3daafe3b4186f6b6457e09190a35050565b6000602082840312156100a1578081fd5b5051919050565b610d2d806100b76000396000f3fe608060405234801561001057600080fd5b50600436106100885760003560e01c80638da5cb5b1161005b5780638da5cb5b146100d9578063a0d9987b146100f4578063b0db493014610107578063f2fde38b1461011f57600080fd5b80634c9cc6731461008d57806351118cfb146100b3578063715018a6146100bc578063747bcf8f146100c6575b600080fd5b6100a061009b366004610b23565b610132565b6040519081526020015b60405180910390f35b6100a060015481565b6100c46101a6565b005b6100c46100d4366004610bb6565b6101e5565b6000546040516001600160a01b0390911681526020016100aa565b6100a0610102366004610a22565b610214565b61010f600181565b60405190151581526020016100aa565b6100c461012d366004610a01565b610678565b6000600154825110610199576000805b83518110156101925783818151811061016b57634e487b7160e01b600052603260045260246000fd5b60200260200101518261017e9190610c81565b91508061018a81610cb0565b915050610142565b5092915050565b506000919050565b919050565b6000546001600160a01b031633146101d95760405162461bcd60e51b81526004016101d090610bce565b60405180910390fd5b6101e36000610713565b565b6000546001600160a01b0316331461020f5760405162461bcd60e51b81526004016101d090610bce565b600155565b600084516000141561022857506000610670565b826000831561053a5761023c876001610763565b965060005b875181101561053457600088828151811061026c57634e487b7160e01b600052603260045260246000fd5b60200260200101516040015189838151811061029857634e487b7160e01b600052603260045260246000fd5b6020026020010151602001511115610313578882815181106102ca57634e487b7160e01b600052603260045260246000fd5b6020026020010151604001518983815181106102f657634e487b7160e01b600052603260045260246000fd5b60200260200101516020015161030c9190610c99565b9050610317565b5060005b88828151811061033757634e487b7160e01b600052603260045260246000fd5b602002602001015160600151811115610461578389838151811061036b57634e487b7160e01b600052603260045260246000fd5b60200260200101516060015111156103bf578389838151811061039e57634e487b7160e01b600052603260045260246000fd5b6020026020010151604001516103b49190610c81565b9250600093506104d0565b8882815181106103df57634e487b7160e01b600052603260045260246000fd5b60200260200101516060015189838151811061040b57634e487b7160e01b600052603260045260246000fd5b6020026020010151604001516104219190610c81565b925088828151811061044357634e487b7160e01b600052603260045260246000fd5b6020026020010151606001518461045a9190610c99565b93506104d0565b8381111561048a578389838151811061039e57634e487b7160e01b600052603260045260246000fd5b808983815181106104ab57634e487b7160e01b600052603260045260246000fd5b6020026020010151604001516104c19190610c81565b92506104cd8185610c99565b93505b8882815181106104f057634e487b7160e01b600052603260045260246000fd5b6020026020010151600001516001600160a01b0316886001600160a01b031614156105215782945050505050610670565b508061052c81610cb0565b915050610241565b50610669565b610545876000610763565b965060005b8751811015610667578288828151811061057457634e487b7160e01b600052603260045260246000fd5b60200260200101516040015111156105c857828882815181106105a757634e487b7160e01b600052603260045260246000fd5b6020026020010151604001516105bd9190610c99565b915060009250610606565b600091508781815181106105ec57634e487b7160e01b600052603260045260246000fd5b602002602001015160400151836106039190610c99565b92505b87818151811061062657634e487b7160e01b600052603260045260246000fd5b6020026020010151600001516001600160a01b0316876001600160a01b03161415610655575091506106709050565b8061065f81610cb0565b91505061054a565b505b6000925050505b949350505050565b6000546001600160a01b031633146106a25760405162461bcd60e51b81526004016101d090610bce565b6001600160a01b0381166107075760405162461bcd60e51b815260206004820152602660248201527f4f776e61626c653a206e6577206f776e657220697320746865207a65726f206160448201526564647265737360d01b60648201526084016101d0565b61071081610713565b50565b600080546001600160a01b038381166001600160a01b0319831681178455604051919092169283917f8be0079c531659141344cd1fd0a4f28419497f9722a3daafe3b4186f6b6457e09190a35050565b815160609060005b818110156109d1576000610780826001610c81565b90505b828110156109be5784156108a1578581815181106107b157634e487b7160e01b600052603260045260246000fd5b6020026020010151602001518683815181106107dd57634e487b7160e01b600052603260045260246000fd5b602002602001015160200151101561089c57600086828151811061081157634e487b7160e01b600052603260045260246000fd5b6020026020010151905086838151811061083b57634e487b7160e01b600052603260045260246000fd5b602002602001015187838151811061086357634e487b7160e01b600052603260045260246000fd5b60200260200101819052508087848151811061088f57634e487b7160e01b600052603260045260246000fd5b6020026020010181905250505b6109ac565b8581815181106108c157634e487b7160e01b600052603260045260246000fd5b6020026020010151602001518683815181106108ed57634e487b7160e01b600052603260045260246000fd5b60200260200101516020015111156109ac57600086828151811061092157634e487b7160e01b600052603260045260246000fd5b6020026020010151905086838151811061094b57634e487b7160e01b600052603260045260246000fd5b602002602001015187838151811061097357634e487b7160e01b600052603260045260246000fd5b60200260200101819052508087848151811061099f57634e487b7160e01b600052603260045260246000fd5b6020026020010181905250505b806109b681610cb0565b915050610783565b50806109c981610cb0565b91505061076b565b50929392505050565b80356001600160a01b03811681146101a157600080fd5b803580151581146101a157600080fd5b600060208284031215610a12578081fd5b610a1b826109da565b9392505050565b6000806000806080808688031215610a38578384fd5b853567ffffffffffffffff811115610a4e578485fd5b8601601f81018813610a5e578485fd5b80356020610a73610a6e83610c5d565b610c2c565b8083825282820191508285018c848660071b8801011115610a9257898afd5b8995505b84861015610aef5786818e031215610aac57898afd5b610ab4610c03565b610abd826109da565b815281850135858201526040808301359082015260608083013590820152835260019590950194918301918601610a96565b509850610aff90508982016109da565b96505050505060408501359150610b18606086016109f1565b905092959194509250565b60006020808385031215610b35578182fd5b823567ffffffffffffffff811115610b4b578283fd5b8301601f81018513610b5b578283fd5b8035610b69610a6e82610c5d565b80828252848201915084840188868560051b8701011115610b88578687fd5b8694505b83851015610baa578035835260019490940193918501918501610b8c565b50979650505050505050565b600060208284031215610bc7578081fd5b5035919050565b6020808252818101527f4f776e61626c653a2063616c6c6572206973206e6f7420746865206f776e6572604082015260600190565b6040516080810167ffffffffffffffff81118282101715610c2657610c26610ce1565b60405290565b604051601f8201601f1916810167ffffffffffffffff81118282101715610c5557610c55610ce1565b604052919050565b600067ffffffffffffffff821115610c7757610c77610ce1565b5060051b60200190565b60008219821115610c9457610c94610ccb565b500190565b600082821015610cab57610cab610ccb565b500390565b6000600019821415610cc457610cc4610ccb565b5060010190565b634e487b7160e01b600052601160045260246000fd5b634e487b7160e01b600052604160045260246000fdfea2646970667358221220a7f196f0f8f3b027fd1d8c80067d38b55cb0dde8ac2ee98bc7d236be8f0ee86864736f6c63430008040033",
  "devdoc": {
    "kind": "dev",
    "methods": {
      "getCreditLimit(uint256[])": {
        "returns": {
          "_0": "Member credit limit"
        }
      },
      "owner()": {
        "details": "Returns the address of the current owner."
      },
      "renounceOwnership()": {
        "details": "Leaves the contract without owner. It will not be possible to call `onlyOwner` functions anymore. Can only be called by the current owner. NOTE: Renouncing ownership will leave the contract without an owner, thereby removing any functionality that is only available to the owner."
      },
      "transferOwnership(address)": {
        "details": "Transfers ownership of the contract to a new account (`newOwner`). Can only be called by the current owner."
      }
    },
    "version": 1
  },
  "userdoc": {
    "kind": "user",
    "methods": {
      "getCreditLimit(uint256[])": {
        "notice": "Calculates the member credit limit by vouchs"
      }
    },
    "version": 1
  },
  "storageLayout": {
    "storage": [
      {
        "astId": 2894,
        "contract": "contracts/user/SumOfTrust.sol:SumOfTrust",
        "label": "_owner",
        "offset": 0,
        "slot": "0",
        "type": "t_address"
      },
      {
        "astId": 22181,
        "contract": "contracts/user/SumOfTrust.sol:SumOfTrust",
        "label": "effectiveNumber",
        "offset": 0,
        "slot": "1",
        "type": "t_uint256"
      }
    ],
    "types": {
      "t_address": {
        "encoding": "inplace",
        "label": "address",
        "numberOfBytes": "20"
      },
      "t_uint256": {
        "encoding": "inplace",
        "label": "uint256",
        "numberOfBytes": "32"
      }
    }
  }
}