{
  "address": "0x15dCc98027dC9a3E655A37bD36ED7F7483aBBEc8",
  "abi": [
    {
      "inputs": [
        {
          "internalType": "address",
          "name": "unionToken_",
          "type": "address"
        },
        {
          "internalType": "address",
          "name": "recipient_",
          "type": "address"
        },
        {
          "internalType": "uint256",
          "name": "vestingAmount_",
          "type": "uint256"
        },
        {
          "internalType": "uint256",
          "name": "vestingBegin_",
          "type": "uint256"
        },
        {
          "internalType": "uint256",
          "name": "vestingCliff_",
          "type": "uint256"
        },
        {
          "internalType": "uint256",
          "name": "vestingEnd_",
          "type": "uint256"
        }
      ],
      "stateMutability": "nonpayable",
      "type": "constructor"
    },
    {
      "inputs": [],
      "name": "claim",
      "outputs": [],
      "stateMutability": "nonpayable",
      "type": "function"
    },
    {
      "inputs": [],
      "name": "lastUpdate",
      "outputs": [
        {
          "internalType": "uint256",
          "name": "",
          "type": "uint256"
        }
      ],
      "stateMutability": "view",
      "type": "function"
    },
    {
      "inputs": [],
      "name": "recipient",
      "outputs": [
        {
          "internalType": "address",
          "name": "",
          "type": "address"
        }
      ],
      "stateMutability": "view",
      "type": "function"
    },
    {
      "inputs": [],
      "name": "unionToken",
      "outputs": [
        {
          "internalType": "address",
          "name": "",
          "type": "address"
        }
      ],
      "stateMutability": "view",
      "type": "function"
    },
    {
      "inputs": [],
      "name": "vestingAmount",
      "outputs": [
        {
          "internalType": "uint256",
          "name": "",
          "type": "uint256"
        }
      ],
      "stateMutability": "view",
      "type": "function"
    },
    {
      "inputs": [],
      "name": "vestingBegin",
      "outputs": [
        {
          "internalType": "uint256",
          "name": "",
          "type": "uint256"
        }
      ],
      "stateMutability": "view",
      "type": "function"
    },
    {
      "inputs": [],
      "name": "vestingCliff",
      "outputs": [
        {
          "internalType": "uint256",
          "name": "",
          "type": "uint256"
        }
      ],
      "stateMutability": "view",
      "type": "function"
    },
    {
      "inputs": [],
      "name": "vestingEnd",
      "outputs": [
        {
          "internalType": "uint256",
          "name": "",
          "type": "uint256"
        }
      ],
      "stateMutability": "view",
      "type": "function"
    }
  ],
  "transactionHash": "0x74818188cf8c3274fc301484d3479500e390d34de4326dda7c69dbe500cb2d36",
  "args": [
    "0x598C0657385A1a631dD71818485bD704CFa552aE",
    "0x14bF0cb2dEb280e8FE68242F06206F970c2ef425",
    "20000000000000000000000000",
    "1630478173718",
    "1630478173718",
    "1630488714518"
  ],
  "solcInputHash": "815da1a7bd393b91c2edbc66164c6945",
  "bytecode": "0x608060405234801561001057600080fd5b506040516107be3803806107be833981810160405260c081101561003357600080fd5b508051602082015160408301516060840151608085015160a0909501519394929391929091428310156100ad576040805162461bcd60e51b815260206004820152601760248201527f76657374696e6720626567696e20746f6f206561726c79000000000000000000604482015290519081900360640190fd5b828210156100f7576040805162461bcd60e51b8152602060048201526012602482015271636c69666620697320746f6f206561726c7960701b604482015290519081900360640190fd5b81811161013e576040805162461bcd60e51b815260206004820152601060248201526f656e6420697320746f6f206561726c7960801b604482015290519081900360640190fd5b600080546001600160a01b039788166001600160a01b0319918216179091556001805496909716951694909417909455600291909155600381905560049290925560055560065561062a806101946000396000f3fe608060405234801561001057600080fd5b50600436106100875760003560e01c8063c04637111161005b578063c0463711146100e9578063e29bc68b146100f2578063f3640e74146100fb578063f70222e11461010457600080fd5b8062728f761461008c5780634e71d92d146100a757806366d003ac146100b157806384a1931f146100e0575b600080fd5b61009560025481565b60408051918252519081900360200190f35b6100af610117565b005b6001546100c4906001600160a01b031681565b604080516001600160a01b039092168252519081900360200190f35b61009560055481565b61009560065481565b61009560035481565b61009560045481565b6000546100c4906001600160a01b031681565b60045442101561015d576040805162461bcd60e51b815260206004820152600c60248201526b1b9bdd081d1a5b59481e595d60a21b604482015290519081900360640190fd5b600060055442106101e657600054604080516370a0823160e01b815230600482015290516001600160a01b03909216916370a0823191602480820192602092909190829003018186803b1580156101b357600080fd5b505afa1580156101c7573d6000803e3d6000fd5b505050506040513d60208110156101dd57600080fd5b50519050610221565b6003546005546101f69190610597565b6006546102039042610597565b6002546102109190610578565b61021a9190610558565b4260065590505b60015460005461023e916001600160a01b03918216911683610241565b50565b604080516001600160a01b038416602482015260448082018490528251808303909101815260649091019091526020810180516001600160e01b031663a9059cbb60e01b179052610293908490610298565b505050565b60006102ed826040518060400160405280602081526020017f5361666545524332303a206c6f772d6c6576656c2063616c6c206661696c6564815250856001600160a01b031661036f9092919063ffffffff16565b805190915015610293578080602001905181019061030b91906104e9565b6102935760405162461bcd60e51b815260206004820152602a60248201527f5361666545524332303a204552433230206f7065726174696f6e20646964206e6044820152691bdd081cdd58d8d9595960b21b60648201526084015b60405180910390fd5b606061037e8484600085610388565b90505b9392505050565b6060824710156103e95760405162461bcd60e51b815260206004820152602660248201527f416464726573733a20696e73756666696369656e742062616c616e636520666f6044820152651c8818d85b1b60d21b6064820152608401610366565b843b6104375760405162461bcd60e51b815260206004820152601d60248201527f416464726573733a2063616c6c20746f206e6f6e2d636f6e74726163740000006044820152606401610366565b600080866001600160a01b031685876040516104539190610509565b60006040518083038185875af1925050503d8060008114610490576040519150601f19603f3d011682016040523d82523d6000602084013e610495565b606091505b50915091506104a58282866104b0565b979650505050505050565b606083156104bf575081610381565b8251156104cf5782518084602001fd5b8160405162461bcd60e51b81526004016103669190610525565b6000602082840312156104fa578081fd5b81518015158114610381578182fd5b6000825161051b8184602087016105ae565b9190910192915050565b60208152600082518060208401526105448160408501602087016105ae565b601f01601f19169190910160400192915050565b60008261057357634e487b7160e01b81526012600452602481fd5b500490565b6000816000190483118215151615610592576105926105de565b500290565b6000828210156105a9576105a96105de565b500390565b60005b838110156105c95781810151838201526020016105b1565b838111156105d8576000848401525b50505050565b634e487b7160e01b600052601160045260246000fdfea26469706673582212200fc7b80db94d55e161d944a4792f31e30d36507934a51da487511c0826a24b9b64736f6c63430008040033",
  "devdoc": {
    "kind": "dev",
    "methods": {},
    "version": 1
  },
  "userdoc": {
    "kind": "user",
    "methods": {},
    "version": 1
  },
  "storageLayout": {
    "storage": [
      {
        "astId": 21619,
        "contract": "contracts/treasury/TreasuryVester.sol:TreasuryVester",
        "label": "unionToken",
        "offset": 0,
        "slot": "0",
        "type": "t_address"
      },
      {
        "astId": 21621,
        "contract": "contracts/treasury/TreasuryVester.sol:TreasuryVester",
        "label": "recipient",
        "offset": 0,
        "slot": "1",
        "type": "t_address"
      },
      {
        "astId": 21623,
        "contract": "contracts/treasury/TreasuryVester.sol:TreasuryVester",
        "label": "vestingAmount",
        "offset": 0,
        "slot": "2",
        "type": "t_uint256"
      },
      {
        "astId": 21625,
        "contract": "contracts/treasury/TreasuryVester.sol:TreasuryVester",
        "label": "vestingBegin",
        "offset": 0,
        "slot": "3",
        "type": "t_uint256"
      },
      {
        "astId": 21627,
        "contract": "contracts/treasury/TreasuryVester.sol:TreasuryVester",
        "label": "vestingCliff",
        "offset": 0,
        "slot": "4",
        "type": "t_uint256"
      },
      {
        "astId": 21629,
        "contract": "contracts/treasury/TreasuryVester.sol:TreasuryVester",
        "label": "vestingEnd",
        "offset": 0,
        "slot": "5",
        "type": "t_uint256"
      },
      {
        "astId": 21631,
        "contract": "contracts/treasury/TreasuryVester.sol:TreasuryVester",
        "label": "lastUpdate",
        "offset": 0,
        "slot": "6",
        "type": "t_uint256"
      }
    ],
    "types": {
      "t_address": {
        "encoding": "inplace",
        "label": "address",
        "numberOfBytes": "20"
      },
      "t_uint256": {
        "encoding": "inplace",
        "label": "uint256",
        "numberOfBytes": "32"
      }
    }
  }
}