{
  "address": "0x14bF0cb2dEb280e8FE68242F06206F970c2ef425",
  "abi": [
    {
      "inputs": [
        {
          "internalType": "contract IERC20",
          "name": "token_",
          "type": "address"
        }
      ],
      "stateMutability": "nonpayable",
      "type": "constructor"
    },
    {
      "inputs": [
        {
          "internalType": "uint256",
          "name": "dripStart_",
          "type": "uint256"
        },
        {
          "internalType": "uint256",
          "name": "dripRate_",
          "type": "uint256"
        },
        {
          "internalType": "address",
          "name": "target_",
          "type": "address"
        },
        {
          "internalType": "uint256",
          "name": "amount_",
          "type": "uint256"
        }
      ],
      "name": "addSchedule",
      "outputs": [],
      "stateMutability": "nonpayable",
      "type": "function"
    },
    {
      "inputs": [],
      "name": "admin",
      "outputs": [
        {
          "internalType": "address",
          "name": "",
          "type": "address"
        }
      ],
      "stateMutability": "view",
      "type": "function"
    },
    {
      "inputs": [
        {
          "internalType": "address",
          "name": "target",
          "type": "address"
        }
      ],
      "name": "drip",
      "outputs": [
        {
          "internalType": "uint256",
          "name": "",
          "type": "uint256"
        }
      ],
      "stateMutability": "nonpayable",
      "type": "function"
    },
    {
      "inputs": [
        {
          "internalType": "uint256",
          "name": "dripStart_",
          "type": "uint256"
        },
        {
          "internalType": "uint256",
          "name": "dripRate_",
          "type": "uint256"
        },
        {
          "internalType": "address",
          "name": "target_",
          "type": "address"
        },
        {
          "internalType": "uint256",
          "name": "amount_",
          "type": "uint256"
        }
      ],
      "name": "editSchedule",
      "outputs": [],
      "stateMutability": "nonpayable",
      "type": "function"
    },
    {
      "inputs": [
        {
          "internalType": "address",
          "name": "account",
          "type": "address"
        },
        {
          "internalType": "uint256",
          "name": "amount",
          "type": "uint256"
        }
      ],
      "name": "grantToken",
      "outputs": [],
      "stateMutability": "nonpayable",
      "type": "function"
    },
    {
      "inputs": [
        {
          "internalType": "address",
          "name": "admin_",
          "type": "address"
        }
      ],
      "name": "setAdmin",
      "outputs": [],
      "stateMutability": "nonpayable",
      "type": "function"
    },
    {
      "inputs": [],
      "name": "token",
      "outputs": [
        {
          "internalType": "contract IERC20",
          "name": "",
          "type": "address"
        }
      ],
      "stateMutability": "view",
      "type": "function"
    },
    {
      "inputs": [
        {
          "internalType": "address",
          "name": "",
          "type": "address"
        }
      ],
      "name": "tokenSchedules",
      "outputs": [
        {
          "internalType": "uint256",
          "name": "dripStart",
          "type": "uint256"
        },
        {
          "internalType": "uint256",
          "name": "amount",
          "type": "uint256"
        },
        {
          "internalType": "uint256",
          "name": "dripRate",
          "type": "uint256"
        },
        {
          "internalType": "address",
          "name": "target",
          "type": "address"
        },
        {
          "internalType": "uint256",
          "name": "dripped",
          "type": "uint256"
        }
      ],
      "stateMutability": "view",
      "type": "function"
    }
  ],
  "transactionHash": "0xd209dbd0e7c37686f42927ee6195e71d669955aaf746bc5acf5465df2b235900",
  "args": [
    "0x598C0657385A1a631dD71818485bD704CFa552aE"
  ],
  "solcInputHash": "815da1a7bd393b91c2edbc66164c6945",
  "bytecode": "0x60a060405234801561001057600080fd5b50604051610d46380380610d468339818101604052602081101561003357600080fd5b5051600080546001600160a01b031916331790556001600160601b031960609190911b1660805260805160601c610cc0610086600039600081816102440152818161047b01526107da0152610cc06000f3fe608060405234801561001057600080fd5b50600436106100885760003560e01c8063d663e0221161005b578063d663e0221461015d578063f851a440146101e4578063f8fb886f14610213578063fc0c546a1461023f57600080fd5b806317c4db721461008d57806367a5cd06146100c75780636ff9af4c146100ff578063704b6c0214610137575b600080fd5b6100c5600480360360808110156100a357600080fd5b508035906020810135906001600160a01b036040820135169060600135610266565b005b6100ed600480360360208110156100dd57600080fd5b50356001600160a01b03166103d6565b60408051918252519081900360200190f35b6100c56004803603608081101561011557600080fd5b508035906020810135906001600160a01b036040820135169060600135610606565b6100c56004803603602081101561014d57600080fd5b50356001600160a01b03166106f6565b6101b06004803603602081101561017357600080fd5b506001602081905290356001600160a01b039081166000908152604090208054928101546002820154600383015460049093015491939092169085565b604080519586526020860194909452848401929092526001600160a01b031660608401526080830152519081900360a00190f35b6000546101f7906001600160a01b031681565b604080516001600160a01b039092168252519081900360200190f35b6100c56004803603604081101561022957600080fd5b506001600160a01b03813516906020013561076d565b6101f77f000000000000000000000000000000000000000000000000000000000000000081565b6000546001600160a01b031633146102bb576040805162461bcd60e51b81526020600482015260136024820152722a3932b0b9bab93c9d103737ba1030b236b4b760691b604482015290519081900360640190fd5b6001600160a01b03828116600090815260016020526040902060030154161561032b576040805162461bcd60e51b815260206004820152601e60248201527f546172676574207363686564756c6520616c7265616479206578697374730000604482015290519081900360640190fd5b6103666040518060a0016040528060008152602001600081526020016000815260200160006001600160a01b03168152602001600081525090565b93845260408085019384526001600160a01b03928316606086018181526020808801948552600060808901818152938152600191829052939093209651875592519186019190915592516002850155516003840180546001600160a01b0319169190921617905551600490910155565b6001600160a01b03818116600090815260016020526040812060030154909116610447576040805162461bcd60e51b815260206004820152601d60248201527f546172676574207363686564756c6520646f65736e2774206578697374000000604482015290519081900360640190fd5b6001600160a01b038083166000908152600160208190526040909120600281015481546004830154600384015493909401547f000000000000000000000000000000000000000000000000000000000000000095929491939192919091169043848110156104ee576040805162461bcd60e51b815260206004820152600f60248201526e1b9bdd081e595d081cdd185c9d1959608a1b604482015290519081900360640190fd5b6000876001600160a01b03166370a08231306040518263ffffffff1660e01b815260040180826001600160a01b0316815260200191505060206040518083038186803b15801561053d57600080fd5b505afa158015610551573d6000803e3d6000fd5b505050506040513d602081101561056757600080fd5b50519050600061058b8861057b8986610c31565b6105859190610c12565b856108ca565b90506000868211156105a8576105a18783610c31565b90506105ac565b5060005b60006105b884836108ca565b905060006105c6828a610bfa565b6001600160a01b03808a1660009081526001602052604090206004018290559091506105f5908d1689846108e3565b509c9b505050505050505050505050565b6000546001600160a01b0316331461065b576040805162461bcd60e51b81526020600482015260136024820152722a3932b0b9bab93c9d103737ba1030b236b4b760691b604482015290519081900360640190fd5b6001600160a01b03828116600090815260016020526040902060030154166106ca576040805162461bcd60e51b815260206004820152601d60248201527f546172676574207363686564756c6520646f65736e2774206578697374000000604482015290519081900360640190fd5b6001600160a01b0390911660009081526001602081905260409091209384556002840192909255910155565b6000546001600160a01b0316331461074b576040805162461bcd60e51b81526020600482015260136024820152722a3932b0b9bab93c9d103737ba1030b236b4b760691b604482015290519081900360640190fd5b600080546001600160a01b0319166001600160a01b0392909216919091179055565b6000546001600160a01b031633146107c2576040805162461bcd60e51b81526020600482015260136024820152722a3932b0b9bab93c9d103737ba1030b236b4b760691b604482015290519081900360640190fd5b604080516370a0823160e01b815230600482015290517f0000000000000000000000000000000000000000000000000000000000000000916000916001600160a01b038416916370a08231916024808301926020929190829003018186803b15801561082d57600080fd5b505afa158015610841573d6000803e3d6000fd5b505050506040513d602081101561085757600080fd5b50519050808311156108b0576040805162461bcd60e51b815260206004820152601a60248201527f616d6f756e74206c6172676572207468616e2062616c616e6365000000000000604482015290519081900360640190fd5b6108c46001600160a01b03831685856108e3565b50505050565b60008183116108da5750816108dd565b50805b92915050565b604080516001600160a01b038416602482015260448082018490528251808303909101815260649091019091526020810180516001600160e01b031663a9059cbb60e01b17905261093590849061093a565b505050565b600061098f826040518060400160405280602081526020017f5361666545524332303a206c6f772d6c6576656c2063616c6c206661696c6564815250856001600160a01b0316610a119092919063ffffffff16565b80519091501561093557808060200190518101906109ad9190610b8b565b6109355760405162461bcd60e51b815260206004820152602a60248201527f5361666545524332303a204552433230206f7065726174696f6e20646964206e6044820152691bdd081cdd58d8d9595960b21b60648201526084015b60405180910390fd5b6060610a208484600085610a2a565b90505b9392505050565b606082471015610a8b5760405162461bcd60e51b815260206004820152602660248201527f416464726573733a20696e73756666696369656e742062616c616e636520666f6044820152651c8818d85b1b60d21b6064820152608401610a08565b843b610ad95760405162461bcd60e51b815260206004820152601d60248201527f416464726573733a2063616c6c20746f206e6f6e2d636f6e74726163740000006044820152606401610a08565b600080866001600160a01b03168587604051610af59190610bab565b60006040518083038185875af1925050503d8060008114610b32576040519150601f19603f3d011682016040523d82523d6000602084013e610b37565b606091505b5091509150610b47828286610b52565b979650505050505050565b60608315610b61575081610a23565b825115610b715782518084602001fd5b8160405162461bcd60e51b8152600401610a089190610bc7565b600060208284031215610b9c578081fd5b81518015158114610a23578182fd5b60008251610bbd818460208701610c48565b9190910192915050565b6020815260008251806020840152610be6816040850160208701610c48565b601f01601f19169190910160400192915050565b60008219821115610c0d57610c0d610c74565b500190565b6000816000190483118215151615610c2c57610c2c610c74565b500290565b600082821015610c4357610c43610c74565b500390565b60005b83811015610c63578181015183820152602001610c4b565b838111156108c45750506000910152565b634e487b7160e01b600052601160045260246000fdfea264697066735822122015f03f825b1c0c27194d5def9cbfb80d775b2b7279a5814cf7777722fc95d61c64736f6c63430008040033",
  "devdoc": {
    "kind": "dev",
    "methods": {
      "drip(address)": {
        "details": "Note: this will only drip up to the amount of tokens available.",
        "returns": {
          "_0": "The amount of tokens dripped in this call"
        }
      }
    },
    "version": 1
  },
  "userdoc": {
    "kind": "user",
    "methods": {
      "drip(address)": {
        "notice": "Drips the maximum amount of tokens to match the drip rate since inception"
      },
      "token()": {
        "notice": "Reference to token to drip (immutable)"
      }
    },
    "version": 1
  },
  "storageLayout": {
    "storage": [
      {
        "astId": 21233,
        "contract": "contracts/treasury/Treasury.sol:Treasury",
        "label": "admin",
        "offset": 0,
        "slot": "0",
        "type": "t_address"
      },
      {
        "astId": 21249,
        "contract": "contracts/treasury/Treasury.sol:Treasury",
        "label": "tokenSchedules",
        "offset": 0,
        "slot": "1",
        "type": "t_mapping(t_address,t_struct(Schedule)21244_storage)"
      }
    ],
    "types": {
      "t_address": {
        "encoding": "inplace",
        "label": "address",
        "numberOfBytes": "20"
      },
      "t_mapping(t_address,t_struct(Schedule)21244_storage)": {
        "encoding": "mapping",
        "key": "t_address",
        "label": "mapping(address => struct Treasury.Schedule)",
        "numberOfBytes": "32",
        "value": "t_struct(Schedule)21244_storage"
      },
      "t_struct(Schedule)21244_storage": {
        "encoding": "inplace",
        "label": "struct Treasury.Schedule",
        "members": [
          {
            "astId": 21235,
            "contract": "contracts/treasury/Treasury.sol:Treasury",
            "label": "dripStart",
            "offset": 0,
            "slot": "0",
            "type": "t_uint256"
          },
          {
            "astId": 21237,
            "contract": "contracts/treasury/Treasury.sol:Treasury",
            "label": "amount",
            "offset": 0,
            "slot": "1",
            "type": "t_uint256"
          },
          {
            "astId": 21239,
            "contract": "contracts/treasury/Treasury.sol:Treasury",
            "label": "dripRate",
            "offset": 0,
            "slot": "2",
            "type": "t_uint256"
          },
          {
            "astId": 21241,
            "contract": "contracts/treasury/Treasury.sol:Treasury",
            "label": "target",
            "offset": 0,
            "slot": "3",
            "type": "t_address"
          },
          {
            "astId": 21243,
            "contract": "contracts/treasury/Treasury.sol:Treasury",
            "label": "dripped",
            "offset": 0,
            "slot": "4",
            "type": "t_uint256"
          }
        ],
        "numberOfBytes": "160"
      },
      "t_uint256": {
        "encoding": "inplace",
        "label": "uint256",
        "numberOfBytes": "32"
      }
    }
  }
}