{
  "address": "0xed1411eaCDaE26ACeAf0240cf4B4077dbB75d06a",
  "abi": [
    {
      "inputs": [
        {
          "internalType": "contract ERC20VotesComp",
          "name": "_token",
          "type": "address"
        },
        {
          "internalType": "contract TimelockController",
          "name": "_timelock",
          "type": "address"
        }
      ],
      "stateMutability": "nonpayable",
      "type": "constructor"
    },
    {
      "anonymous": false,
      "inputs": [
        {
          "indexed": false,
          "internalType": "uint256",
          "name": "proposalId",
          "type": "uint256"
        }
      ],
      "name": "ProposalCanceled",
      "type": "event"
    },
    {
      "anonymous": false,
      "inputs": [
        {
          "indexed": false,
          "internalType": "uint256",
          "name": "proposalId",
          "type": "uint256"
        },
        {
          "indexed": false,
          "internalType": "address",
          "name": "proposer",
          "type": "address"
        },
        {
          "indexed": false,
          "internalType": "address[]",
          "name": "targets",
          "type": "address[]"
        },
        {
          "indexed": false,
          "internalType": "uint256[]",
          "name": "values",
          "type": "uint256[]"
        },
        {
          "indexed": false,
          "internalType": "string[]",
          "name": "signatures",
          "type": "string[]"
        },
        {
          "indexed": false,
          "internalType": "bytes[]",
          "name": "calldatas",
          "type": "bytes[]"
        },
        {
          "indexed": false,
          "internalType": "uint256",
          "name": "startBlock",
          "type": "uint256"
        },
        {
          "indexed": false,
          "internalType": "uint256",
          "name": "endBlock",
          "type": "uint256"
        },
        {
          "indexed": false,
          "internalType": "string",
          "name": "description",
          "type": "string"
        }
      ],
      "name": "ProposalCreated",
      "type": "event"
    },
    {
      "anonymous": false,
      "inputs": [
        {
          "indexed": false,
          "internalType": "uint256",
          "name": "proposalId",
          "type": "uint256"
        }
      ],
      "name": "ProposalExecuted",
      "type": "event"
    },
    {
      "anonymous": false,
      "inputs": [
        {
          "indexed": false,
          "internalType": "uint256",
          "name": "proposalId",
          "type": "uint256"
        },
        {
          "indexed": false,
          "internalType": "uint256",
          "name": "eta",
          "type": "uint256"
        }
      ],
      "name": "ProposalQueued",
      "type": "event"
    },
    {
      "anonymous": false,
      "inputs": [
        {
          "indexed": false,
          "internalType": "address",
          "name": "oldTimelock",
          "type": "address"
        },
        {
          "indexed": false,
          "internalType": "address",
          "name": "newTimelock",
          "type": "address"
        }
      ],
      "name": "TimelockChange",
      "type": "event"
    },
    {
      "anonymous": false,
      "inputs": [
        {
          "indexed": true,
          "internalType": "address",
          "name": "voter",
          "type": "address"
        },
        {
          "indexed": false,
          "internalType": "uint256",
          "name": "proposalId",
          "type": "uint256"
        },
        {
          "indexed": false,
          "internalType": "uint8",
          "name": "support",
          "type": "uint8"
        },
        {
          "indexed": false,
          "internalType": "uint256",
          "name": "weight",
          "type": "uint256"
        },
        {
          "indexed": false,
          "internalType": "string",
          "name": "reason",
          "type": "string"
        }
      ],
      "name": "VoteCast",
      "type": "event"
    },
    {
      "inputs": [],
      "name": "BALLOT_TYPEHASH",
      "outputs": [
        {
          "internalType": "bytes32",
          "name": "",
          "type": "bytes32"
        }
      ],
      "stateMutability": "view",
      "type": "function"
    },
    {
      "inputs": [],
      "name": "COUNTING_MODE",
      "outputs": [
        {
          "internalType": "string",
          "name": "",
          "type": "string"
        }
      ],
      "stateMutability": "pure",
      "type": "function"
    },
    {
      "inputs": [
        {
          "internalType": "uint256",
          "name": "proposalId",
          "type": "uint256"
        }
      ],
      "name": "cancel",
      "outputs": [],
      "stateMutability": "nonpayable",
      "type": "function"
    },
    {
      "inputs": [
        {
          "internalType": "uint256",
          "name": "proposalId",
          "type": "uint256"
        },
        {
          "internalType": "uint8",
          "name": "support",
          "type": "uint8"
        }
      ],
      "name": "castVote",
      "outputs": [
        {
          "internalType": "uint256",
          "name": "",
          "type": "uint256"
        }
      ],
      "stateMutability": "nonpayable",
      "type": "function"
    },
    {
      "inputs": [
        {
          "internalType": "uint256",
          "name": "proposalId",
          "type": "uint256"
        },
        {
          "internalType": "uint8",
          "name": "support",
          "type": "uint8"
        },
        {
          "internalType": "uint8",
          "name": "v",
          "type": "uint8"
        },
        {
          "internalType": "bytes32",
          "name": "r",
          "type": "bytes32"
        },
        {
          "internalType": "bytes32",
          "name": "s",
          "type": "bytes32"
        }
      ],
      "name": "castVoteBySig",
      "outputs": [
        {
          "internalType": "uint256",
          "name": "",
          "type": "uint256"
        }
      ],
      "stateMutability": "nonpayable",
      "type": "function"
    },
    {
      "inputs": [
        {
          "internalType": "uint256",
          "name": "proposalId",
          "type": "uint256"
        },
        {
          "internalType": "uint8",
          "name": "support",
          "type": "uint8"
        },
        {
          "internalType": "string",
          "name": "reason",
          "type": "string"
        }
      ],
      "name": "castVoteWithReason",
      "outputs": [
        {
          "internalType": "uint256",
          "name": "",
          "type": "uint256"
        }
      ],
      "stateMutability": "nonpayable",
      "type": "function"
    },
    {
      "inputs": [
        {
          "internalType": "address[]",
          "name": "targets",
          "type": "address[]"
        },
        {
          "internalType": "uint256[]",
          "name": "values",
          "type": "uint256[]"
        },
        {
          "internalType": "bytes[]",
          "name": "calldatas",
          "type": "bytes[]"
        },
        {
          "internalType": "bytes32",
          "name": "descriptionHash",
          "type": "bytes32"
        }
      ],
      "name": "execute",
      "outputs": [
        {
          "internalType": "uint256",
          "name": "",
          "type": "uint256"
        }
      ],
      "stateMutability": "payable",
      "type": "function"
    },
    {
      "inputs": [
        {
          "internalType": "uint256",
          "name": "proposalId",
          "type": "uint256"
        }
      ],
      "name": "execute",
      "outputs": [],
      "stateMutability": "payable",
      "type": "function"
    },
    {
      "inputs": [
        {
          "internalType": "uint256",
          "name": "proposalId",
          "type": "uint256"
        }
      ],
      "name": "getActions",
      "outputs": [
        {
          "internalType": "address[]",
          "name": "targets",
          "type": "address[]"
        },
        {
          "internalType": "uint256[]",
          "name": "values",
          "type": "uint256[]"
        },
        {
          "internalType": "string[]",
          "name": "signatures",
          "type": "string[]"
        },
        {
          "internalType": "bytes[]",
          "name": "calldatas",
          "type": "bytes[]"
        }
      ],
      "stateMutability": "view",
      "type": "function"
    },
    {
      "inputs": [
        {
          "internalType": "uint256",
          "name": "proposalId",
          "type": "uint256"
        },
        {
          "internalType": "address",
          "name": "voter",
          "type": "address"
        }
      ],
      "name": "getReceipt",
      "outputs": [
        {
          "components": [
            {
              "internalType": "bool",
              "name": "hasVoted",
              "type": "bool"
            },
            {
              "internalType": "uint8",
              "name": "support",
              "type": "uint8"
            },
            {
              "internalType": "uint96",
              "name": "votes",
              "type": "uint96"
            }
          ],
          "internalType": "struct IGovernorCompatibilityBravo.Receipt",
          "name": "",
          "type": "tuple"
        }
      ],
      "stateMutability": "view",
      "type": "function"
    },
    {
      "inputs": [
        {
          "internalType": "address",
          "name": "account",
          "type": "address"
        },
        {
          "internalType": "uint256",
          "name": "blockNumber",
          "type": "uint256"
        }
      ],
      "name": "getVotes",
      "outputs": [
        {
          "internalType": "uint256",
          "name": "",
          "type": "uint256"
        }
      ],
      "stateMutability": "view",
      "type": "function"
    },
    {
      "inputs": [
        {
          "internalType": "uint256",
          "name": "proposalId",
          "type": "uint256"
        },
        {
          "internalType": "address",
          "name": "account",
          "type": "address"
        }
      ],
      "name": "hasVoted",
      "outputs": [
        {
          "internalType": "bool",
          "name": "",
          "type": "bool"
        }
      ],
      "stateMutability": "view",
      "type": "function"
    },
    {
      "inputs": [
        {
          "internalType": "address[]",
          "name": "targets",
          "type": "address[]"
        },
        {
          "internalType": "uint256[]",
          "name": "values",
          "type": "uint256[]"
        },
        {
          "internalType": "bytes[]",
          "name": "calldatas",
          "type": "bytes[]"
        },
        {
          "internalType": "bytes32",
          "name": "descriptionHash",
          "type": "bytes32"
        }
      ],
      "name": "hashProposal",
      "outputs": [
        {
          "internalType": "uint256",
          "name": "",
          "type": "uint256"
        }
      ],
      "stateMutability": "pure",
      "type": "function"
    },
    {
      "inputs": [
        {
          "internalType": "address",
          "name": "",
          "type": "address"
        }
      ],
      "name": "latestProposalIds",
      "outputs": [
        {
          "internalType": "uint256",
          "name": "",
          "type": "uint256"
        }
      ],
      "stateMutability": "view",
      "type": "function"
    },
    {
      "inputs": [],
      "name": "name",
      "outputs": [
        {
          "internalType": "string",
          "name": "",
          "type": "string"
        }
      ],
      "stateMutability": "view",
      "type": "function"
    },
    {
      "inputs": [],
      "name": "proposalCount",
      "outputs": [
        {
          "internalType": "uint256",
          "name": "",
          "type": "uint256"
        }
      ],
      "stateMutability": "view",
      "type": "function"
    },
    {
      "inputs": [
        {
          "internalType": "uint256",
          "name": "proposalId",
          "type": "uint256"
        }
      ],
      "name": "proposalDeadline",
      "outputs": [
        {
          "internalType": "uint256",
          "name": "",
          "type": "uint256"
        }
      ],
      "stateMutability": "view",
      "type": "function"
    },
    {
      "inputs": [
        {
          "internalType": "uint256",
          "name": "proposalId",
          "type": "uint256"
        }
      ],
      "name": "proposalEta",
      "outputs": [
        {
          "internalType": "uint256",
          "name": "",
          "type": "uint256"
        }
      ],
      "stateMutability": "view",
      "type": "function"
    },
    {
      "inputs": [
        {
          "internalType": "uint256",
          "name": "proposalId",
          "type": "uint256"
        }
      ],
      "name": "proposalSnapshot",
      "outputs": [
        {
          "internalType": "uint256",
          "name": "",
          "type": "uint256"
        }
      ],
      "stateMutability": "view",
      "type": "function"
    },
    {
      "inputs": [],
      "name": "proposalThreshold",
      "outputs": [
        {
          "internalType": "uint256",
          "name": "",
          "type": "uint256"
        }
      ],
      "stateMutability": "pure",
      "type": "function"
    },
    {
      "inputs": [
        {
          "internalType": "uint256",
          "name": "proposalId",
          "type": "uint256"
        }
      ],
      "name": "proposals",
      "outputs": [
        {
          "internalType": "uint256",
          "name": "id",
          "type": "uint256"
        },
        {
          "internalType": "address",
          "name": "proposer",
          "type": "address"
        },
        {
          "internalType": "uint256",
          "name": "eta",
          "type": "uint256"
        },
        {
          "internalType": "uint256",
          "name": "startBlock",
          "type": "uint256"
        },
        {
          "internalType": "uint256",
          "name": "endBlock",
          "type": "uint256"
        },
        {
          "internalType": "uint256",
          "name": "forVotes",
          "type": "uint256"
        },
        {
          "internalType": "uint256",
          "name": "againstVotes",
          "type": "uint256"
        },
        {
          "internalType": "uint256",
          "name": "abstainVotes",
          "type": "uint256"
        },
        {
          "internalType": "bool",
          "name": "canceled",
          "type": "bool"
        },
        {
          "internalType": "bool",
          "name": "executed",
          "type": "bool"
        }
      ],
      "stateMutability": "view",
      "type": "function"
    },
    {
      "inputs": [
        {
          "internalType": "address[]",
          "name": "targets",
          "type": "address[]"
        },
        {
          "internalType": "uint256[]",
          "name": "values",
          "type": "uint256[]"
        },
        {
          "internalType": "bytes[]",
          "name": "calldatas",
          "type": "bytes[]"
        },
        {
          "internalType": "string",
          "name": "description",
          "type": "string"
        }
      ],
      "name": "propose",
      "outputs": [
        {
          "internalType": "uint256",
          "name": "",
          "type": "uint256"
        }
      ],
      "stateMutability": "nonpayable",
      "type": "function"
    },
    {
      "inputs": [
        {
          "internalType": "address[]",
          "name": "targets",
          "type": "address[]"
        },
        {
          "internalType": "uint256[]",
          "name": "values",
          "type": "uint256[]"
        },
        {
          "internalType": "string[]",
          "name": "signatures",
          "type": "string[]"
        },
        {
          "internalType": "bytes[]",
          "name": "calldatas",
          "type": "bytes[]"
        },
        {
          "internalType": "string",
          "name": "description",
          "type": "string"
        }
      ],
      "name": "propose",
      "outputs": [
        {
          "internalType": "uint256",
          "name": "",
          "type": "uint256"
        }
      ],
      "stateMutability": "nonpayable",
      "type": "function"
    },
    {
      "inputs": [
        {
          "internalType": "address[]",
          "name": "targets",
          "type": "address[]"
        },
        {
          "internalType": "uint256[]",
          "name": "values",
          "type": "uint256[]"
        },
        {
          "internalType": "bytes[]",
          "name": "calldatas",
          "type": "bytes[]"
        },
        {
          "internalType": "bytes32",
          "name": "descriptionHash",
          "type": "bytes32"
        }
      ],
      "name": "queue",
      "outputs": [
        {
          "internalType": "uint256",
          "name": "",
          "type": "uint256"
        }
      ],
      "stateMutability": "nonpayable",
      "type": "function"
    },
    {
      "inputs": [
        {
          "internalType": "uint256",
          "name": "proposalId",
          "type": "uint256"
        }
      ],
      "name": "queue",
      "outputs": [],
      "stateMutability": "nonpayable",
      "type": "function"
    },
    {
      "inputs": [
        {
          "internalType": "uint256",
          "name": "blockNumber",
          "type": "uint256"
        }
      ],
      "name": "quorum",
      "outputs": [
        {
          "internalType": "uint256",
          "name": "",
          "type": "uint256"
        }
      ],
      "stateMutability": "view",
      "type": "function"
    },
    {
      "inputs": [],
      "name": "quorumVotes",
      "outputs": [
        {
          "internalType": "uint256",
          "name": "",
          "type": "uint256"
        }
      ],
      "stateMutability": "view",
      "type": "function"
    },
    {
      "inputs": [
        {
          "internalType": "uint256",
          "name": "proposalId",
          "type": "uint256"
        }
      ],
      "name": "state",
      "outputs": [
        {
          "internalType": "enum IGovernor.ProposalState",
          "name": "",
          "type": "uint8"
        }
      ],
      "stateMutability": "view",
      "type": "function"
    },
    {
      "inputs": [
        {
          "internalType": "bytes4",
          "name": "interfaceId",
          "type": "bytes4"
        }
      ],
      "name": "supportsInterface",
      "outputs": [
        {
          "internalType": "bool",
          "name": "",
          "type": "bool"
        }
      ],
      "stateMutability": "view",
      "type": "function"
    },
    {
      "inputs": [],
      "name": "timelock",
      "outputs": [
        {
          "internalType": "address",
          "name": "",
          "type": "address"
        }
      ],
      "stateMutability": "view",
      "type": "function"
    },
    {
      "inputs": [],
      "name": "token",
      "outputs": [
        {
          "internalType": "contract ERC20VotesComp",
          "name": "",
          "type": "address"
        }
      ],
      "stateMutability": "view",
      "type": "function"
    },
    {
      "inputs": [
        {
          "internalType": "contract TimelockController",
          "name": "newTimelock",
          "type": "address"
        }
      ],
      "name": "updateTimelock",
      "outputs": [],
      "stateMutability": "nonpayable",
      "type": "function"
    },
    {
      "inputs": [],
      "name": "version",
      "outputs": [
        {
          "internalType": "string",
          "name": "",
          "type": "string"
        }
      ],
      "stateMutability": "view",
      "type": "function"
    },
    {
      "inputs": [],
      "name": "votingDelay",
      "outputs": [
        {
          "internalType": "uint256",
          "name": "",
          "type": "uint256"
        }
      ],
      "stateMutability": "pure",
      "type": "function"
    },
    {
      "inputs": [],
      "name": "votingPeriod",
      "outputs": [
        {
          "internalType": "uint256",
          "name": "",
          "type": "uint256"
        }
      ],
      "stateMutability": "pure",
      "type": "function"
    }
  ],
  "transactionHash": "0x20d7c49a7a3bb0f84ab69e9a694e9a0906eae79cde32965e73c9ed0d1aff6604",
  "args": [
    "0x598C0657385A1a631dD71818485bD704CFa552aE",
    "0x5aAD7F7239c28Aa38c6BA6b62B3267D3a6Bb7F7a"
  ],
  "solcInputHash": "815da1a7bd393b91c2edbc66164c6945",
  "bytecode": "0x6101406040523480156200001257600080fd5b50604051620042e8380380620042e883398101604081905262000035916200025a565b80826040518060400160405280600e81526020016d2ab734b7b71023b7bb32b93737b960911b815250806200006f6200013060201b60201c565b815160209283012081519183019190912060c082815260e08290524660a0818152604080517f8b73c3c69bb8fe3d512ecc4cf759cc79239f7b179b0ffacaa9a75d522b39400f818901819052818301979097526060810195909552608080860193909352308583015280518086039092018252939092019092528051908401209052610100528151620001099160009190840190620001b4565b505060601b6001600160601b0319166101205262000127816200014b565b505050620002ee565b6040805180820190915260018152603160f81b602082015290565b600354604080516001600160a01b03928316815291831660208301527f08f74ea46ef7894f65eabfb5e6e695de773a000b47c529ab559178069b226401910160405180910390a1600380546001600160a01b0319166001600160a01b0392909216919091179055565b828054620001c29062000298565b90600052602060002090601f016020900481019282620001e6576000855562000231565b82601f106200020157805160ff191683800117855562000231565b8280016001018555821562000231579182015b828111156200023157825182559160200191906001019062000214565b506200023f92915062000243565b5090565b5b808211156200023f576000815560010162000244565b600080604083850312156200026d578182fd5b82516200027a81620002d5565b60208401519092506200028d81620002d5565b809150509250929050565b600181811c90821680620002ad57607f821691505b60208210811415620002cf57634e487b7160e01b600052602260045260246000fd5b50919050565b6001600160a01b0381168114620002eb57600080fd5b50565b60805160a05160c05160e051610100516101205160601c613f996200034f600039600081816107cd0152818161182f0152612215015260006123a0015260006123ef015260006123ca0152600061234e015260006123770152613f996000f3fe6080604052600436106102045760003560e01c80637b3c71d311610118578063da95691a116100a0578063e23a9a521161006f578063e23a9a52146106b1578063eb9019d41461077b578063f8ce560a1461079b578063fc0c546a146107bb578063fe0d94c1146107ef57600080fd5b8063da95691a146105f7578063dd4e2ba514610617578063ddf0b0091461065d578063deaaa7cc1461067d57600080fd5b8063b58131b0116100e7578063b58131b014610552578063c01f9e371461056f578063c59057e41461058f578063d33219b4146105af578063da35c664146105e157600080fd5b80637b3c71d3146104d25780637d5e81e2146104f2578063a890c91014610512578063ab58fb8e1461053257600080fd5b80632d63f6931161019b5780633e4f49e61161016a5780633e4f49e6146103ef57806340e58ee51461041c578063438596321461043e57806354fd4d501461048857806356781388146104b257600080fd5b80632d63f6931461036a578063328dd9821461038a5780633932abb1146103ba5780633bccf4fd146103cf57600080fd5b8063160cbed7116101d7578063160cbed7146102f557806317977c611461031557806324bc1a64146103425780632656227d1461035757600080fd5b8063013cf08b1461020957806301ffc9a71461028457806302a251a3146102b457806306fdde03146102d3575b600080fd5b34801561021557600080fd5b5061022961022436600461387f565b610802565b604080519a8b526001600160a01b0390991660208b0152978901969096526060880194909452608087019290925260a086015260c085015260e084015215156101008301521515610120820152610140015b60405180910390f35b34801561029057600080fd5b506102a461029f366004613857565b6108c7565b604051901515815260200161027b565b3480156102c057600080fd5b5061b3cb5b60405190815260200161027b565b3480156102df57600080fd5b506102e86108d8565b60405161027b9190613c32565b34801561030157600080fd5b506102c5610310366004613622565b61096a565b34801561032157600080fd5b506102c56103303660046135db565b60066020526000908152604090205481565b34801561034e57600080fd5b506102c5610ba1565b6102c5610365366004613622565b610bb6565b34801561037657600080fd5b506102c561038536600461387f565b610ca5565b34801561039657600080fd5b506103aa6103a536600461387f565b610cdc565b60405161027b9493929190613be5565b3480156103c657600080fd5b506119af6102c5565b3480156103db57600080fd5b506102c56103ea366004613972565b610f6d565b3480156103fb57600080fd5b5061040f61040a36600461387f565b611001565b60405161027b9190613c45565b34801561042857600080fd5b5061043c61043736600461387f565b61100c565b005b34801561044a57600080fd5b506102a4610459366004613897565b60008281526002602090815260408083206001600160a01b038516845260080190915290205460ff1692915050565b34801561049457600080fd5b506040805180820190915260018152603160f81b60208201526102e8565b3480156104be57600080fd5b506102c56104cd3660046138c6565b611327565b3480156104de57600080fd5b506102c56104ed3660046138f1565b611350565b3480156104fe57600080fd5b506102c561050d3660046136ad565b6113a2565b34801561051e57600080fd5b5061043c61052d3660046135db565b6113f6565b34801561053e57600080fd5b506102c561054d36600461387f565b61146a565b34801561055e57600080fd5b50690a968163f0a57b4000006102c5565b34801561057b57600080fd5b506102c561058a36600461387f565b611512565b34801561059b57600080fd5b506102c56105aa366004613622565b611541565b3480156105bb57600080fd5b506003546001600160a01b03165b6040516001600160a01b03909116815260200161027b565b3480156105ed57600080fd5b506102c560055481565b34801561060357600080fd5b506102c5610612366004613754565b61157b565b34801561062357600080fd5b5060408051808201909152601a81527f737570706f72743d627261766f2671756f72756d3d627261766f00000000000060208201526102e8565b34801561066957600080fd5b5061043c61067836600461387f565b61158a565b34801561068957600080fd5b506102c57f150214d74d59b7d1e90c73fc22ef3d991dd0a76b046543d4d80ab92d2a50328f81565b3480156106bd57600080fd5b5061074b6106cc366004613897565b60408051606081018252600080825260208201819052918101919091525060009182526002602090815260408084206001600160a01b0393909316845260089092018152918190208151606081018352905460ff8082161515835261010082041693820193909352620100009092046001600160601b03169082015290565b6040805182511515815260208084015160ff1690820152918101516001600160601b03169082015260600161027b565b34801561078757600080fd5b506102c56107963660046135f7565b6117f8565b3480156107a757600080fd5b506102c56107b636600461387f565b611804565b3480156107c757600080fd5b506105c97f000000000000000000000000000000000000000000000000000000000000000081565b61043c6107fd36600461387f565b6118c4565b80600080808080808080806108168a61146a565b97506108218b610ca5565b965061082c8b611512565b60008c815260026020526040812080546005820154600683015460078401546001600160a01b039093169e50949a50985092965091945061086c8d611001565b9050600281600781111561089057634e487b7160e01b600052602160045260246000fd5b14935060078160078111156108b557634e487b7160e01b600052602160045260246000fd5b14925050509193959799509193959799565b60006108d282611b32565b92915050565b6060600080546108e790613ed2565b80601f016020809104026020016040519081016040528092919081815260200182805461091390613ed2565b80156109605780601f1061093557610100808354040283529160200191610960565b820191906000526020600020905b81548152906001019060200180831161094357829003601f168201915b5050505050905090565b60008061097986868686611541565b9050600461098682611001565b60078111156109a557634e487b7160e01b600052602160045260246000fd5b146109cb5760405162461bcd60e51b81526004016109c290613cae565b60405180910390fd5b6003546040805163793d064960e11b815290516000926001600160a01b03169163f27a0c92916004808301926020929190829003018186803b158015610a1057600080fd5b505afa158015610a24573d6000803e3d6000fd5b505050506040513d601f19601f82011682018060405250810190610a48919061383f565b60035460405163b1c5f42760e01b81529192506001600160a01b03169063b1c5f42790610a82908a908a908a906000908b90600401613b3f565b60206040518083038186803b158015610a9a57600080fd5b505afa158015610aae573d6000803e3d6000fd5b505050506040513d601f19601f82011682018060405250810190610ad2919061383f565b60008381526004602081905260408083209390935560035492516308f2a0bb60e41b81526001600160a01b0390931692638f2a0bb092610b1e928c928c928c9290918c918a9101613b8d565b600060405180830381600087803b158015610b3857600080fd5b505af1158015610b4c573d6000803e3d6000fd5b505050507f9a2e42fd6722813d69113e7d0079d3d940171428df7373df9c7f7617cfda2892828242610b7e9190613e0d565b604080519283526020830191909152015b60405180910390a15095945050505050565b6000610bb16107b6600143613e8f565b905090565b600080610bc586868686611541565b90506000610bd282611001565b90506004816007811115610bf657634e487b7160e01b600052602160045260246000fd5b1480610c2157506005816007811115610c1f57634e487b7160e01b600052602160045260246000fd5b145b610c3d5760405162461bcd60e51b81526004016109c290613cae565b600082815260016020818152604092839020600201805460ff191690921790915590518381527f712ae1383f79ac853f8d882153778e0260ef8f03b504e2866e0593e04d2b291f910160405180910390a1610c9b8288888888611b57565b5095945050505050565b60008181526001602090815260408083208151928301909152546001600160401b0316908190525b6001600160401b031692915050565b60608060608060006002600087815260200190815260200160002090508060010181600201826003018360040183805480602002602001604051908101604052809291908181526020018280548015610d5e57602002820191906000526020600020905b81546001600160a01b03168152600190910190602001808311610d40575b5050505050935082805480602002602001604051908101604052809291908181526020018280548015610db057602002820191906000526020600020905b815481526020019060010190808311610d9c575b5050505050925081805480602002602001604051908101604052809291908181526020016000905b82821015610e84578382906000526020600020018054610df790613ed2565b80601f0160208091040260200160405190810160405280929190818152602001828054610e2390613ed2565b8015610e705780601f10610e4557610100808354040283529160200191610e70565b820191906000526020600020905b815481529060010190602001808311610e5357829003601f168201915b505050505081526020019060010190610dd8565b50505050915080805480602002602001604051908101604052809291908181526020016000905b82821015610f57578382906000526020600020018054610eca90613ed2565b80601f0160208091040260200160405190810160405280929190818152602001828054610ef690613ed2565b8015610f435780601f10610f1857610100808354040283529160200191610f43565b820191906000526020600020905b815481529060010190602001808311610f2657829003601f168201915b505050505081526020019060010190610eab565b5050505090509450945094509450509193509193565b604080517f150214d74d59b7d1e90c73fc22ef3d991dd0a76b046543d4d80ab92d2a50328f602082015290810186905260ff851660608201526000908190610fd990610fd19060800160405160208183030381529060405280519060200120611b6b565b868686611bb9565b9050610ff687828860405180602001604052806000815250611bd7565b979650505050505050565b60006108d282611cf0565b600081815260026020526040902080546001600160a01b0316336001600160a01b0316148061105d5750690a968163f0a57b400000815461105b906001600160a01b0316610796600143613e8f565b105b6110b95760405162461bcd60e51b815260206004820152602760248201527f476f7665726e6f72427261766f3a2070726f706f7365722061626f76652074686044820152661c995cda1bdb1960ca1b60648201526084016109c2565b6113228160010180548060200260200160405190810160405280929190818152602001828054801561111457602002820191906000526020600020905b81546001600160a01b031681526001909101906020018083116110f6575b50505050508260020180548060200260200160405190810160405280929190818152602001828054801561116757602002820191906000526020600020905b815481526020019060010190808311611153575b505050505061131884600301805480602002602001604051908101604052809291908181526020016000905b8282101561123f5783829060005260206000200180546111b290613ed2565b80601f01602080910402602001604051908101604052809291908181526020018280546111de90613ed2565b801561122b5780601f106112005761010080835404028352916020019161122b565b820191906000526020600020905b81548152906001019060200180831161120e57829003601f168201915b505050505081526020019060010190611193565b50505060048701805460408051602080840282018101909252828152935060009084015b8282101561130f57838290600052602060002001805461128290613ed2565b80601f01602080910402602001604051908101604052809291908181526020018280546112ae90613ed2565b80156112fb5780601f106112d0576101008083540402835291602001916112fb565b820191906000526020600020905b8154815290600101906020018083116112de57829003601f168201915b505050505081526020019060010190611263565b50505050611ddb565b8460090154611f8f565b505050565b60008033905061134884828560405180602001604052806000815250611bd7565b949350505050565b60008033905061139886828787878080601f016020809104026020016040519081016040528093929190818152602001838380828437600092019190915250611bd792505050565b9695505050505050565b60006113ac611fa6565b600580549060006113bc83613f07565b919050555060006113d68686868680519060200120611541565b3360009081526006602052604090208190559050611398868686866120d4565b6113fe61214a565b6001600160a01b0316336001600160a01b03161461145e5760405162461bcd60e51b815260206004820152601860248201527f476f7665726e6f723a206f6e6c79476f7665726e616e6365000000000000000060448201526064016109c2565b6114678161215e565b50565b600354600082815260046020819052604080832054905163d45c443560e01b815291820152909182916001600160a01b039091169063d45c44359060240160206040518083038186803b1580156114c057600080fd5b505afa1580156114d4573d6000803e3d6000fd5b505050506040513d601f19601f820116820180604052508101906114f8919061383f565b905080600114611508578061150b565b60005b9392505050565b60008181526001602081815260408084208151928301909152909101546001600160401b031690819052610ccd565b60008484848460405160200161155a9493929190613af4565b60408051601f19818403018152919052805160209091012095945050505050565b600061139886868686866121c7565b6000818152600260209081526040918290206001810180548451818502810185019095528085529193611322939092908301828280156115f357602002820191906000526020600020905b81546001600160a01b031681526001909101906020018083116115d5575b50505050508260020180548060200260200160405190810160405280929190818152602001828054801561164657602002820191906000526020600020905b815481526020019060010190808311611632575b50505050506117ee84600301805480602002602001604051908101604052809291908181526020016000905b8282101561171e57838290600052602060002001805461169190613ed2565b80601f01602080910402602001604051908101604052809291908181526020018280546116bd90613ed2565b801561170a5780601f106116df5761010080835404028352916020019161170a565b820191906000526020600020905b8154815290600101906020018083116116ed57829003601f168201915b505050505081526020019060010190611672565b50505060048701805460408051602080840282018101909252828152935060009084015b8282101561130f57838290600052602060002001805461176190613ed2565b80601f016020809104026020016040519081016040528092919081815260200182805461178d90613ed2565b80156117da5780601f106117af576101008083540402835291602001916117da565b820191906000526020600020905b8154815290600101906020018083116117bd57829003601f168201915b505050505081526020019060010190611742565b846009015461096a565b600061150b83836121ec565b604051632394e7a360e21b815260048101829052600090670de0b6b3a7640000906001600160a01b037f00000000000000000000000000000000000000000000000000000000000000001690638e539e8c9060240160206040518083038186803b15801561187157600080fd5b505afa158015611885573d6000803e3d6000fd5b505050506040513d601f19601f820116820180604052508101906118a9919061383f565b6118ba90668e1bc9bf040000613e70565b6108d29190613e50565b60008181526002602090815260409182902060018101805484518185028101850190955280855291936113229390929083018282801561192d57602002820191906000526020600020905b81546001600160a01b0316815260019091019060200180831161190f575b50505050508260020180548060200260200160405190810160405280929190818152602001828054801561198057602002820191906000526020600020905b81548152602001906001019080831161196c575b5050505050611b2884600301805480602002602001604051908101604052809291908181526020016000905b82821015611a585783829060005260206000200180546119cb90613ed2565b80601f01602080910402602001604051908101604052809291908181526020018280546119f790613ed2565b8015611a445780601f10611a1957610100808354040283529160200191611a44565b820191906000526020600020905b815481529060010190602001808311611a2757829003601f168201915b5050505050815260200190600101906119ac565b50505060048701805460408051602080840282018101909252828152935060009084015b8282101561130f578382906000526020600020018054611a9b90613ed2565b80601f0160208091040260200160405190810160405280929190818152602001828054611ac790613ed2565b8015611b145780601f10611ae957610100808354040283529160200191611b14565b820191906000526020600020905b815481529060010190602001808311611af757829003601f168201915b505050505081526020019060010190611a7c565b8460090154610bb6565b60006001600160e01b03198216636e665ced60e01b14806108d257506108d2826122a1565b611b6485858585856122d6565b5050505050565b60006108d2611b7861234a565b8360405161190160f01b6020820152602281018390526042810182905260009060620160405160208183030381529060405280519060200120905092915050565b6000806000611bca8787878761243d565b91509150610c9b8161252a565b6000848152600160208190526040822090611bf187611001565b6007811115611c1057634e487b7160e01b600052602160045260246000fd5b14611c695760405162461bcd60e51b815260206004820152602360248201527f476f7665726e6f723a20766f7465206e6f742063757272656e746c792061637460448201526269766560e81b60648201526084016109c2565b604080516020810190915281546001600160401b031690819052600090611c919087906117f8565b9050611c9f8787878461272b565b856001600160a01b03167fb8e138887d0aa13bab447e82de9d5c1777041ecd21ca36ba824ff1e6c07ddda488878488604051611cde9493929190613d92565b60405180910390a29695505050505050565b600080611cfc8361273d565b90506004816007811115611d2057634e487b7160e01b600052602160045260246000fd5b14611d2b5792915050565b60008381526004602052604090205480611d46575092915050565b600354604051632ab0f52960e01b8152600481018390526001600160a01b0390911690632ab0f5299060240160206040518083038186803b158015611d8a57600080fd5b505afa158015611d9e573d6000803e3d6000fd5b505050506040513d601f19601f82011682018060405250810190611dc2919061381f565b15611dd1575060079392505050565b5060059392505050565b6060600082516001600160401b03811115611e0657634e487b7160e01b600052604160045260246000fd5b604051908082528060200260200182016040528015611e3957816020015b6060815260200190600190039081611e245790505b50905060005b8451811015611f8757848181518110611e6857634e487b7160e01b600052603260045260246000fd5b602002602001015151600014611f2257848181518110611e9857634e487b7160e01b600052603260045260246000fd5b6020026020010151848281518110611ec057634e487b7160e01b600052603260045260246000fd5b6020026020010151604051602401611ed89190613c32565b60408051601f198184030181529082905291611ef391613ad8565b6040519081900390206020820180516001600160e01b03166001600160e01b0319909216919091179052611f4b565b838181518110611f4257634e487b7160e01b600052603260045260246000fd5b60200260200101515b828281518110611f6b57634e487b7160e01b600052603260045260246000fd5b602002602001018190525080611f8090613f07565b9050611e3f565b509392505050565b6000611f9d85858585612891565b95945050505050565b336000908152600660205260409020548015611467576000611fc782611001565b90506001816007811115611feb57634e487b7160e01b600052602160045260246000fd5b141561204c5760405162461bcd60e51b815260206004820152602a60248201527f476f7665726e6f723a20666f756e6420616e20616c726561647920616374697660448201526919481c1c9bdc1bdcd85b60b21b60648201526084016109c2565b600081600781111561206e57634e487b7160e01b600052602160045260246000fd5b14156120d05760405162461bcd60e51b815260206004820152602b60248201527f476f7665726e6f723a20666f756e6420616e20616c72656164792070656e646960448201526a1b99c81c1c9bdc1bdcd85b60aa1b60648201526084016109c2565b5050565b600061213e33868686516001600160401b0381111561210357634e487b7160e01b600052604160045260246000fd5b60405190808252806020026020018201604052801561213657816020015b60608152602001906001900390816121215790505b50878761293f565b611f9d858585856129fc565b6000610bb16003546001600160a01b031690565b600354604080516001600160a01b03928316815291831660208301527f08f74ea46ef7894f65eabfb5e6e695de773a000b47c529ab559178069b226401910160405180910390a1600380546001600160a01b0319166001600160a01b0392909216919091179055565b60006121d733878787878761293f565b61139886866121e68787611ddb565b856113a2565b60405163782d6fe160e01b81526001600160a01b038381166004830152602482018390526000917f00000000000000000000000000000000000000000000000000000000000000009091169063782d6fe19060440160206040518083038186803b15801561225957600080fd5b505afa15801561226d573d6000803e3d6000fd5b505050506040513d601f19601f8201168201806040525081019061229191906139bf565b6001600160601b03169392505050565b60006001600160e01b0319821663bf26d89760e01b14806108d257506301ffc9a760e01b6001600160e01b03198316146108d2565b60035460405163e38335e560e01b81526001600160a01b039091169063e38335e5903490612311908890889088906000908990600401613b3f565b6000604051808303818588803b15801561232a57600080fd5b505af115801561233e573d6000803e3d6000fd5b50505050505050505050565b60007f000000000000000000000000000000000000000000000000000000000000000046141561239957507f000000000000000000000000000000000000000000000000000000000000000090565b50604080517f00000000000000000000000000000000000000000000000000000000000000006020808301919091527f0000000000000000000000000000000000000000000000000000000000000000828401527f000000000000000000000000000000000000000000000000000000000000000060608301524660808301523060a0808401919091528351808403909101815260c0909201909252805191012090565b6000807f7fffffffffffffffffffffffffffffff5d576e7357a4501ddfe92f46681b20a08311156124745750600090506003612521565b8460ff16601b1415801561248c57508460ff16601c14155b1561249d5750600090506004612521565b6040805160008082526020820180845289905260ff881692820192909252606081018690526080810185905260019060a0016020604051602081039080840390855afa1580156124f1573d6000803e3d6000fd5b5050604051601f1901519150506001600160a01b03811661251a57600060019250925050612521565b9150600090505b94509492505050565b600081600481111561254c57634e487b7160e01b600052602160045260246000fd5b14156125555750565b600181600481111561257757634e487b7160e01b600052602160045260246000fd5b14156125c55760405162461bcd60e51b815260206004820152601860248201527f45434453413a20696e76616c6964207369676e6174757265000000000000000060448201526064016109c2565b60028160048111156125e757634e487b7160e01b600052602160045260246000fd5b14156126355760405162461bcd60e51b815260206004820152601f60248201527f45434453413a20696e76616c6964207369676e6174757265206c656e6774680060448201526064016109c2565b600381600481111561265757634e487b7160e01b600052602160045260246000fd5b14156126b05760405162461bcd60e51b815260206004820152602260248201527f45434453413a20696e76616c6964207369676e6174757265202773272076616c604482015261756560f01b60648201526084016109c2565b60048160048111156126d257634e487b7160e01b600052602160045260246000fd5b14156114675760405162461bcd60e51b815260206004820152602260248201527f45434453413a20696e76616c6964207369676e6174757265202776272076616c604482015261756560f01b60648201526084016109c2565b61273784848484612aa4565b50505050565b6000818152600160208181526040808420815160a08101835281546001600160401b0390811660808301908152825283518086018552958301541685529283019390935260029092015460ff808216158015948401949094526101009091041615156060820152906127b25750600792915050565b8060600151156127c55750600292915050565b805151436001600160401b0390911611156127e35750600092915050565b602081015151436001600160401b0390911611156128045750600192915050565b6128118160200151612c49565b156128435761281f83612c78565b801561282f575061282f83612c83565b61283a57600361150b565b60049392505050565b60405162461bcd60e51b815260206004820152601d60248201527f476f7665726e6f723a20756e6b6e6f776e2070726f706f73616c20696400000060448201526064016109c2565b50919050565b6000806128a086868686612ca2565b60008181526004602052604090205490915015611f9d5760035460008281526004602081905260409182902054915163c4d252f560e01b8152908101919091526001600160a01b039091169063c4d252f590602401600060405180830381600087803b15801561290f57600080fd5b505af1158015612923573d6000803e3d6000fd5b5050506000828152600460205260408120555095945050505050565b80516020820120600061295d87876129578888611ddb565b85611541565b60008181526002602052604090206009810154919250906129f15780546001600160a01b0319166001600160a01b038a1617815587516129a690600183019060208b019061311f565b5086516129bc90600283019060208a0190613180565b5085516129d290600383019060208901906131bb565b5084516129e89060048301906020880190613214565b50600981018390555b505050505050505050565b6000690a968163f0a57b400000612a1833610796600143613e8f565b1015612a985760405162461bcd60e51b815260206004820152604360248201527f476f7665726e6f72436f6d7061746962696c697479427261766f3a2070726f7060448201527f6f73657220766f7465732062656c6f772070726f706f73616c207468726573686064820152621bdb1960ea1b608482015260a4016109c2565b611f9d85858585612dd8565b60008481526002602090815260408083206001600160a01b038716845260088101909252909120805460ff1615612b335760405162461bcd60e51b815260206004820152602d60248201527f476f7665726e6f72436f6d7061746962696c697479427261766f3a20766f746560448201526c08185b1c9958591e4818d85cdd609a1b60648201526084016109c2565b805460ff85166101000261ffff19909116176001178155612b5383613024565b81546001600160601b039190911662010000026dffffffffffffffffffffffff00001990911617815560ff8416612ba35782826006016000828254612b989190613e0d565b90915550612c419050565b60ff841660011415612bc35782826005016000828254612b989190613e0d565b60ff841660021415612be35782826007016000828254612b989190613e0d565b60405162461bcd60e51b815260206004820152602d60248201527f476f7665726e6f72436f6d7061746962696c697479427261766f3a20696e766160448201526c6c696420766f7465207479706560981b60648201526084016109c2565b505050505050565b6000612c5e82516001600160401b0316151590565b80156108d257505051436001600160401b03909116111590565b60006108d282613090565b60008181526002602052604081206006810154600590910154116108d2565b600080612cb186868686611541565b90506000612cbe82611001565b90506002816007811115612ce257634e487b7160e01b600052602160045260246000fd5b14158015612d1057506006816007811115612d0d57634e487b7160e01b600052602160045260246000fd5b14155b8015612d3c57506007816007811115612d3957634e487b7160e01b600052602160045260246000fd5b14155b612d885760405162461bcd60e51b815260206004820152601d60248201527f476f7665726e6f723a2070726f706f73616c206e6f742061637469766500000060448201526064016109c2565b60008281526001602052604090819020600201805461ff001916610100179055517f789cf55be980739dad1d0699b93b58e806b51c9d96619bfa8fe0a28abaa7b30c90610b8f9084815260200190565b600080612dee8686868680519060200120611541565b90508451865114612e115760405162461bcd60e51b81526004016109c290613c6d565b8351865114612e325760405162461bcd60e51b81526004016109c290613c6d565b6000865111612e835760405162461bcd60e51b815260206004820152601860248201527f476f7665726e6f723a20656d7074792070726f706f73616c000000000000000060448201526064016109c2565b600081815260016020908152604091829020825191820190925281546001600160401b03169081905215612f035760405162461bcd60e51b815260206004820152602160248201527f476f7665726e6f723a2070726f706f73616c20616c72656164792065786973746044820152607360f81b60648201526084016109c2565b6000612f106119af6130b7565b612f19436130b7565b612f239190613e25565b90506000612f3261b3cb6130b7565b612f3c9083613e25565b835467ffffffffffffffff19166001600160401b038416178455905060018301805467ffffffffffffffff19166001600160401b0383161790557f7d84a6263ae0d98d3329bd7b46bb4e8d6f98cd35a7adb45c274c8b7fd5ebd5e084338b8b8d516001600160401b03811115612fc257634e487b7160e01b600052604160045260246000fd5b604051908082528060200260200182016040528015612ff557816020015b6060815260200190600190039081612fe05790505b508c88888e60405161300f99989796959493929190613cef565b60405180910390a15091979650505050505050565b60006001600160601b0382111561308c5760405162461bcd60e51b815260206004820152602660248201527f53616665436173743a2076616c756520646f65736e27742066697420696e203960448201526536206269747360d01b60648201526084016109c2565b5090565b600081815260026020526040812060058101546130af6107b685610ca5565b109392505050565b60006001600160401b0382111561308c5760405162461bcd60e51b815260206004820152602660248201527f53616665436173743a2076616c756520646f65736e27742066697420696e203660448201526534206269747360d01b60648201526084016109c2565b828054828255906000526020600020908101928215613174579160200282015b8281111561317457825182546001600160a01b0319166001600160a01b0390911617825560209092019160019091019061313f565b5061308c92915061326d565b828054828255906000526020600020908101928215613174579160200282015b828111156131745782518255916020019190600101906131a0565b828054828255906000526020600020908101928215613208579160200282015b8281111561320857825180516131f8918491602090910190613282565b50916020019190600101906131db565b5061308c9291506132f5565b828054828255906000526020600020908101928215613261579160200282015b828111156132615782518051613251918491602090910190613282565b5091602001919060010190613234565b5061308c929150613312565b5b8082111561308c576000815560010161326e565b82805461328e90613ed2565b90600052602060002090601f0160209004810192826132b05760008555613174565b82601f106132c957805160ff1916838001178555613174565b8280016001018555821561317457918201828111156131745782518255916020019190600101906131a0565b8082111561308c576000613309828261332f565b506001016132f5565b8082111561308c576000613326828261332f565b50600101613312565b50805461333b90613ed2565b6000825580601f1061334b575050565b601f016020900490600052602060002090810190611467919061326d565b60006001600160401b0383111561338257613382613f38565b613395601f8401601f1916602001613dba565b90508281528383830111156133a957600080fd5b828260208301376000602084830101529392505050565b600082601f8301126133d0578081fd5b813560206133e56133e083613dea565b613dba565b80838252828201915082860187848660051b8901011115613404578586fd5b855b8581101561342b57813561341981613f4e565b84529284019290840190600101613406565b5090979650505050505050565b600082601f830112613448578081fd5b813560206134586133e083613dea565b80838252828201915082860187848660051b8901011115613477578586fd5b855b8581101561342b5781356001600160401b03811115613496578788fd5b8801603f81018a136134a6578788fd5b6134b78a8783013560408401613369565b8552509284019290840190600101613479565b600082601f8301126134da578081fd5b813560206134ea6133e083613dea565b80838252828201915082860187848660051b8901011115613509578586fd5b855b8581101561342b5781356001600160401b03811115613528578788fd5b6135368a87838c01016135a6565b855250928401929084019060010161350b565b600082601f830112613559578081fd5b813560206135696133e083613dea565b80838252828201915082860187848660051b8901011115613588578586fd5b855b8581101561342b5781358452928401929084019060010161358a565b600082601f8301126135b6578081fd5b61150b83833560208501613369565b803560ff811681146135d657600080fd5b919050565b6000602082840312156135ec578081fd5b813561150b81613f4e565b60008060408385031215613609578081fd5b823561361481613f4e565b946020939093013593505050565b60008060008060808587031215613637578182fd5b84356001600160401b038082111561364d578384fd5b613659888389016133c0565b9550602087013591508082111561366e578384fd5b61367a88838901613549565b9450604087013591508082111561368f578384fd5b5061369c87828801613438565b949793965093946060013593505050565b600080600080608085870312156136c2578182fd5b84356001600160401b03808211156136d8578384fd5b6136e4888389016133c0565b955060208701359150808211156136f9578384fd5b61370588838901613549565b9450604087013591508082111561371a578384fd5b61372688838901613438565b9350606087013591508082111561373b578283fd5b50613748878288016135a6565b91505092959194509250565b600080600080600060a0868803121561376b578283fd5b85356001600160401b0380821115613781578485fd5b61378d89838a016133c0565b965060208801359150808211156137a2578485fd5b6137ae89838a01613549565b955060408801359150808211156137c3578485fd5b6137cf89838a016134ca565b945060608801359150808211156137e4578283fd5b6137f089838a01613438565b93506080880135915080821115613805578283fd5b50613812888289016135a6565b9150509295509295909350565b600060208284031215613830578081fd5b8151801515811461150b578182fd5b600060208284031215613850578081fd5b5051919050565b600060208284031215613868578081fd5b81356001600160e01b03198116811461150b578182fd5b600060208284031215613890578081fd5b5035919050565b600080604083850312156138a9578182fd5b8235915060208301356138bb81613f4e565b809150509250929050565b600080604083850312156138d8578182fd5b823591506138e8602084016135c5565b90509250929050565b60008060008060608587031215613906578182fd5b84359350613916602086016135c5565b925060408501356001600160401b0380821115613931578384fd5b818701915087601f830112613944578384fd5b813581811115613952578485fd5b886020828501011115613963578485fd5b95989497505060200194505050565b600080600080600060a08688031215613989578283fd5b85359450613999602087016135c5565b93506139a7604087016135c5565b94979396509394606081013594506080013592915050565b6000602082840312156139d0578081fd5b81516001600160601b038116811461150b578182fd5b6000815180845260208085019450808401835b83811015613a1e5781516001600160a01b0316875295820195908201906001016139f9565b509495945050505050565b600081518084526020808501808196508360051b81019150828601855b85811015613a70578284038952613a5e848351613aac565b98850198935090840190600101613a46565b5091979650505050505050565b6000815180845260208085019450808401835b83811015613a1e57815187529582019590820190600101613a90565b60008151808452613ac4816020860160208601613ea6565b601f01601f19169290920160200192915050565b60008251613aea818460208701613ea6565b9190910192915050565b608081526000613b0760808301876139e6565b8281036020840152613b198187613a7d565b90508281036040840152613b2d8186613a29565b91505082606083015295945050505050565b60a081526000613b5260a08301886139e6565b8281036020840152613b648188613a7d565b90508281036040840152613b788187613a29565b60608401959095525050608001529392505050565b60c081526000613ba060c08301896139e6565b8281036020840152613bb28189613a7d565b90508281036040840152613bc68188613a29565b60608401969096525050608081019290925260a0909101529392505050565b608081526000613bf860808301876139e6565b8281036020840152613c0a8187613a7d565b90508281036040840152613c1e8186613a29565b90508281036060840152610ff68185613a29565b60208152600061150b6020830184613aac565b6020810160088310613c6757634e487b7160e01b600052602160045260246000fd5b91905290565b60208082526021908201527f476f7665726e6f723a20696e76616c69642070726f706f73616c206c656e67746040820152600d60fb1b606082015260800190565b60208082526021908201527f476f7665726e6f723a2070726f706f73616c206e6f74207375636365737366756040820152601b60fa1b606082015260800190565b8981526001600160a01b038916602082015261012060408201819052600090613d1a8382018b6139e6565b90508281036060840152613d2e818a613a7d565b90508281036080840152613d428189613a29565b905082810360a0840152613d568188613a29565b6001600160401b0387811660c0860152861660e08501528381036101008501529050613d828185613aac565b9c9b505050505050505050505050565b84815260ff841660208201528260408201526080606082015260006113986080830184613aac565b604051601f8201601f191681016001600160401b0381118282101715613de257613de2613f38565b604052919050565b60006001600160401b03821115613e0357613e03613f38565b5060051b60200190565b60008219821115613e2057613e20613f22565b500190565b60006001600160401b03808316818516808303821115613e4757613e47613f22565b01949350505050565b600082613e6b57634e487b7160e01b81526012600452602481fd5b500490565b6000816000190483118215151615613e8a57613e8a613f22565b500290565b600082821015613ea157613ea1613f22565b500390565b60005b83811015613ec1578181015183820152602001613ea9565b838111156127375750506000910152565b600181811c90821680613ee657607f821691505b6020821081141561288b57634e487b7160e01b600052602260045260246000fd5b6000600019821415613f1b57613f1b613f22565b5060010190565b634e487b7160e01b600052601160045260246000fd5b634e487b7160e01b600052604160045260246000fd5b6001600160a01b038116811461146757600080fdfea264697066735822122002709525ab1d92ac42741b8b8591fcc5c69754a55b752739c5f701ee16a23e4464736f6c63430008040033",
  "devdoc": {
    "kind": "dev",
    "methods": {
      "COUNTING_MODE()": {
        "details": "A description of the possible `support` values for {castVote} and the way these votes are counted, meant to be consumed by UIs to show correct vote options and interpret the results. The string is a URL-encoded sequence of key-value pairs that each describe one aspect, for example `support=bravo&quorum=for,abstain`. There are 2 standard keys: `support` and `quorum`. - `support=bravo` refers to the vote options 0 = For, 1 = Against, 2 = Abstain, as in `GovernorBravo`. - `quorum=bravo` means that only For votes are counted towards quorum. - `quorum=for,abstain` means that both For and Abstain votes are counted towards quorum. NOTE: The string can be decoded by the standard https://developer.mozilla.org/en-US/docs/Web/API/URLSearchParams[`URLSearchParams`] JavaScript class."
      },
      "cancel(uint256)": {
        "details": "Cancels a proposal only if sender is the proposer, or proposer delegates dropped below proposal threshold."
      },
      "castVote(uint256,uint8)": {
        "details": "See {IGovernor-castVote}."
      },
      "castVoteBySig(uint256,uint8,uint8,bytes32,bytes32)": {
        "details": "See {IGovernor-castVoteBySig}."
      },
      "castVoteWithReason(uint256,uint8,string)": {
        "details": "See {IGovernor-castVoteWithReason}."
      },
      "execute(address[],uint256[],bytes[],bytes32)": {
        "details": "See {IGovernor-execute}."
      },
      "execute(uint256)": {
        "details": "See {IGovernorCompatibilityBravo-execute}."
      },
      "getActions(uint256)": {
        "details": "See {IGovernorCompatibilityBravo-getActions}."
      },
      "getReceipt(uint256,address)": {
        "details": "See {IGovernorCompatibilityBravo-getReceipt}."
      },
      "hasVoted(uint256,address)": {
        "details": "See {IGovernor-hasVoted}."
      },
      "hashProposal(address[],uint256[],bytes[],bytes32)": {
        "details": "See {IGovernor-hashProposal}. The proposal id is produced by hashing the RLC encoded `targets` array, the `values` array, the `calldatas` array and the descriptionHash (bytes32 which itself is the keccak256 hash of the description string). This proposal id can be produced from the proposal data which is part of the {ProposalCreated} event. It can even be computed in advance, before the proposal is submitted. Note that the chainId and the governor address are not part of the proposal id computation. Consequently, the same proposal (with same operation and same description) will have the same id if submitted on multiple governors accross multiple networks. This also means that in order to execute the same operation twice (on the same governor) the proposer will have to change the description in order to avoid proposal id conflicts."
      },
      "name()": {
        "details": "See {IGovernor-name}."
      },
      "proposalDeadline(uint256)": {
        "details": "See {IGovernor-proposalDeadline}."
      },
      "proposalEta(uint256)": {
        "details": "Public accessor to check the eta of a queued proposal"
      },
      "proposalSnapshot(uint256)": {
        "details": "See {IGovernor-proposalSnapshot}."
      },
      "proposalThreshold()": {
        "details": "Part of the Governor Bravo's interface: _\"The number of votes required in order for a voter to become a proposer\"_."
      },
      "proposals(uint256)": {
        "details": "See {IGovernorCompatibilityBravo-proposals}."
      },
      "propose(address[],uint256[],string[],bytes[],string)": {
        "details": "See {IGovernorCompatibilityBravo-propose}."
      },
      "queue(address[],uint256[],bytes[],bytes32)": {
        "details": "Function to queue a proposal to the timelock."
      },
      "queue(uint256)": {
        "details": "See {IGovernorCompatibilityBravo-queue}."
      },
      "quorum(uint256)": {
        "details": "Minimum number of cast voted required for a proposal to be successful. Note: The `blockNumber` parameter corresponds to the snaphot used for counting vote. This allows to scale the quroum depending on values such as the totalSupply of a token at this block (see {ERC20Votes})."
      },
      "quorumVotes()": {
        "details": "See {IGovernorCompatibilityBravo-quorumVotes}."
      },
      "timelock()": {
        "details": "Public accessor to check the address of the timelock"
      },
      "updateTimelock(address)": {
        "details": "Public endpoint to update the underlying timelock instance. Restricted to the timelock itself, so updates must be proposed, scheduled and executed using the {Governor} workflow."
      },
      "version()": {
        "details": "See {IGovernor-version}."
      },
      "votingDelay()": {
        "details": "delay, in number of block, between the proposal is created and the vote starts. This can be increassed to leave time for users to buy voting power, of delegate it, before the voting of a proposal starts."
      },
      "votingPeriod()": {
        "details": "delay, in number of blocks, between the vote start and vote ends. Note: the {votingDelay} can delay the start of the vote. This must be considered when setting the voting duration compared to the voting delay."
      }
    },
    "version": 1
  },
  "userdoc": {
    "kind": "user",
    "methods": {
      "COUNTING_MODE()": {
        "notice": "module:voting"
      },
      "quorum(uint256)": {
        "notice": "module:user-config"
      },
      "votingDelay()": {
        "notice": "module:user-config"
      },
      "votingPeriod()": {
        "notice": "module:user-config"
      }
    },
    "version": 1
  },
  "storageLayout": {
    "storage": [
      {
        "astId": 3034,
        "contract": "contracts/governance/UnionGovernor.sol:UnionGovernor",
        "label": "_name",
        "offset": 0,
        "slot": "0",
        "type": "t_string_storage"
      },
      {
        "astId": 3039,
        "contract": "contracts/governance/UnionGovernor.sol:UnionGovernor",
        "label": "_proposals",
        "offset": 0,
        "slot": "1",
        "type": "t_mapping(t_uint256,t_struct(ProposalCore)3032_storage)"
      },
      {
        "astId": 4849,
        "contract": "contracts/governance/UnionGovernor.sol:UnionGovernor",
        "label": "_proposalDetails",
        "offset": 0,
        "slot": "2",
        "type": "t_mapping(t_uint256,t_struct(ProposalDetails)4844_storage)"
      },
      {
        "astId": 5798,
        "contract": "contracts/governance/UnionGovernor.sol:UnionGovernor",
        "label": "_timelock",
        "offset": 0,
        "slot": "3",
        "type": "t_contract(TimelockController)4787"
      },
      {
        "astId": 5802,
        "contract": "contracts/governance/UnionGovernor.sol:UnionGovernor",
        "label": "_timelockIds",
        "offset": 0,
        "slot": "4",
        "type": "t_mapping(t_uint256,t_bytes32)"
      },
      {
        "astId": 13732,
        "contract": "contracts/governance/UnionGovernor.sol:UnionGovernor",
        "label": "proposalCount",
        "offset": 0,
        "slot": "5",
        "type": "t_uint256"
      },
      {
        "astId": 13736,
        "contract": "contracts/governance/UnionGovernor.sol:UnionGovernor",
        "label": "latestProposalIds",
        "offset": 0,
        "slot": "6",
        "type": "t_mapping(t_address,t_uint256)"
      }
    ],
    "types": {
      "t_address": {
        "encoding": "inplace",
        "label": "address",
        "numberOfBytes": "20"
      },
      "t_array(t_address)dyn_storage": {
        "base": "t_address",
        "encoding": "dynamic_array",
        "label": "address[]",
        "numberOfBytes": "32"
      },
      "t_array(t_bytes_storage)dyn_storage": {
        "base": "t_bytes_storage",
        "encoding": "dynamic_array",
        "label": "bytes[]",
        "numberOfBytes": "32"
      },
      "t_array(t_string_storage)dyn_storage": {
        "base": "t_string_storage",
        "encoding": "dynamic_array",
        "label": "string[]",
        "numberOfBytes": "32"
      },
      "t_array(t_uint256)dyn_storage": {
        "base": "t_uint256",
        "encoding": "dynamic_array",
        "label": "uint256[]",
        "numberOfBytes": "32"
      },
      "t_bool": {
        "encoding": "inplace",
        "label": "bool",
        "numberOfBytes": "1"
      },
      "t_bytes32": {
        "encoding": "inplace",
        "label": "bytes32",
        "numberOfBytes": "32"
      },
      "t_bytes_storage": {
        "encoding": "bytes",
        "label": "bytes",
        "numberOfBytes": "32"
      },
      "t_contract(TimelockController)4787": {
        "encoding": "inplace",
        "label": "contract TimelockController",
        "numberOfBytes": "20"
      },
      "t_mapping(t_address,t_struct(Receipt)5624_storage)": {
        "encoding": "mapping",
        "key": "t_address",
        "label": "mapping(address => struct IGovernorCompatibilityBravo.Receipt)",
        "numberOfBytes": "32",
        "value": "t_struct(Receipt)5624_storage"
      },
      "t_mapping(t_address,t_uint256)": {
        "encoding": "mapping",
        "key": "t_address",
        "label": "mapping(address => uint256)",
        "numberOfBytes": "32",
        "value": "t_uint256"
      },
      "t_mapping(t_uint256,t_bytes32)": {
        "encoding": "mapping",
        "key": "t_uint256",
        "label": "mapping(uint256 => bytes32)",
        "numberOfBytes": "32",
        "value": "t_bytes32"
      },
      "t_mapping(t_uint256,t_struct(ProposalCore)3032_storage)": {
        "encoding": "mapping",
        "key": "t_uint256",
        "label": "mapping(uint256 => struct Governor.ProposalCore)",
        "numberOfBytes": "32",
        "value": "t_struct(ProposalCore)3032_storage"
      },
      "t_mapping(t_uint256,t_struct(ProposalDetails)4844_storage)": {
        "encoding": "mapping",
        "key": "t_uint256",
        "label": "mapping(uint256 => struct GovernorCompatibilityBravo.ProposalDetails)",
        "numberOfBytes": "32",
        "value": "t_struct(ProposalDetails)4844_storage"
      },
      "t_string_storage": {
        "encoding": "bytes",
        "label": "string",
        "numberOfBytes": "32"
      },
      "t_struct(BlockNumber)9307_storage": {
        "encoding": "inplace",
        "label": "struct Timers.BlockNumber",
        "members": [
          {
            "astId": 9306,
            "contract": "contracts/governance/UnionGovernor.sol:UnionGovernor",
            "label": "_deadline",
            "offset": 0,
            "slot": "0",
            "type": "t_uint64"
          }
        ],
        "numberOfBytes": "32"
      },
      "t_struct(ProposalCore)3032_storage": {
        "encoding": "inplace",
        "label": "struct Governor.ProposalCore",
        "members": [
          {
            "astId": 3024,
            "contract": "contracts/governance/UnionGovernor.sol:UnionGovernor",
            "label": "voteStart",
            "offset": 0,
            "slot": "0",
            "type": "t_struct(BlockNumber)9307_storage"
          },
          {
            "astId": 3027,
            "contract": "contracts/governance/UnionGovernor.sol:UnionGovernor",
            "label": "voteEnd",
            "offset": 0,
            "slot": "1",
            "type": "t_struct(BlockNumber)9307_storage"
          },
          {
            "astId": 3029,
            "contract": "contracts/governance/UnionGovernor.sol:UnionGovernor",
            "label": "executed",
            "offset": 0,
            "slot": "2",
            "type": "t_bool"
          },
          {
            "astId": 3031,
            "contract": "contracts/governance/UnionGovernor.sol:UnionGovernor",
            "label": "canceled",
            "offset": 1,
            "slot": "2",
            "type": "t_bool"
          }
        ],
        "numberOfBytes": "96"
      },
      "t_struct(ProposalDetails)4844_storage": {
        "encoding": "inplace",
        "label": "struct GovernorCompatibilityBravo.ProposalDetails",
        "members": [
          {
            "astId": 4818,
            "contract": "contracts/governance/UnionGovernor.sol:UnionGovernor",
            "label": "proposer",
            "offset": 0,
            "slot": "0",
            "type": "t_address"
          },
          {
            "astId": 4821,
            "contract": "contracts/governance/UnionGovernor.sol:UnionGovernor",
            "label": "targets",
            "offset": 0,
            "slot": "1",
            "type": "t_array(t_address)dyn_storage"
          },
          {
            "astId": 4824,
            "contract": "contracts/governance/UnionGovernor.sol:UnionGovernor",
            "label": "values",
            "offset": 0,
            "slot": "2",
            "type": "t_array(t_uint256)dyn_storage"
          },
          {
            "astId": 4827,
            "contract": "contracts/governance/UnionGovernor.sol:UnionGovernor",
            "label": "signatures",
            "offset": 0,
            "slot": "3",
            "type": "t_array(t_string_storage)dyn_storage"
          },
          {
            "astId": 4830,
            "contract": "contracts/governance/UnionGovernor.sol:UnionGovernor",
            "label": "calldatas",
            "offset": 0,
            "slot": "4",
            "type": "t_array(t_bytes_storage)dyn_storage"
          },
          {
            "astId": 4832,
            "contract": "contracts/governance/UnionGovernor.sol:UnionGovernor",
            "label": "forVotes",
            "offset": 0,
            "slot": "5",
            "type": "t_uint256"
          },
          {
            "astId": 4834,
            "contract": "contracts/governance/UnionGovernor.sol:UnionGovernor",
            "label": "againstVotes",
            "offset": 0,
            "slot": "6",
            "type": "t_uint256"
          },
          {
            "astId": 4836,
            "contract": "contracts/governance/UnionGovernor.sol:UnionGovernor",
            "label": "abstainVotes",
            "offset": 0,
            "slot": "7",
            "type": "t_uint256"
          },
          {
            "astId": 4841,
            "contract": "contracts/governance/UnionGovernor.sol:UnionGovernor",
            "label": "receipts",
            "offset": 0,
            "slot": "8",
            "type": "t_mapping(t_address,t_struct(Receipt)5624_storage)"
          },
          {
            "astId": 4843,
            "contract": "contracts/governance/UnionGovernor.sol:UnionGovernor",
            "label": "descriptionHash",
            "offset": 0,
            "slot": "9",
            "type": "t_bytes32"
          }
        ],
        "numberOfBytes": "320"
      },
      "t_struct(Receipt)5624_storage": {
        "encoding": "inplace",
        "label": "struct IGovernorCompatibilityBravo.Receipt",
        "members": [
          {
            "astId": 5619,
            "contract": "contracts/governance/UnionGovernor.sol:UnionGovernor",
            "label": "hasVoted",
            "offset": 0,
            "slot": "0",
            "type": "t_bool"
          },
          {
            "astId": 5621,
            "contract": "contracts/governance/UnionGovernor.sol:UnionGovernor",
            "label": "support",
            "offset": 1,
            "slot": "0",
            "type": "t_uint8"
          },
          {
            "astId": 5623,
            "contract": "contracts/governance/UnionGovernor.sol:UnionGovernor",
            "label": "votes",
            "offset": 2,
            "slot": "0",
            "type": "t_uint96"
          }
        ],
        "numberOfBytes": "32"
      },
      "t_uint256": {
        "encoding": "inplace",
        "label": "uint256",
        "numberOfBytes": "32"
      },
      "t_uint64": {
        "encoding": "inplace",
        "label": "uint64",
        "numberOfBytes": "8"
      },
      "t_uint8": {
        "encoding": "inplace",
        "label": "uint8",
        "numberOfBytes": "1"
      },
      "t_uint96": {
        "encoding": "inplace",
        "label": "uint96",
        "numberOfBytes": "12"
      }
    }
  }
}