{
  "address": "0x598C0657385A1a631dD71818485bD704CFa552aE",
  "abi": [
    {
      "inputs": [
        {
          "internalType": "string",
          "name": "name",
          "type": "string"
        },
        {
          "internalType": "string",
          "name": "symbol",
          "type": "string"
        },
        {
          "internalType": "uint256",
          "name": "mintingAllowedAfter_",
          "type": "uint256"
        }
      ],
      "stateMutability": "nonpayable",
      "type": "constructor"
    },
    {
      "anonymous": false,
      "inputs": [
        {
          "indexed": true,
          "internalType": "address",
          "name": "owner",
          "type": "address"
        },
        {
          "indexed": true,
          "internalType": "address",
          "name": "spender",
          "type": "address"
        },
        {
          "indexed": false,
          "internalType": "uint256",
          "name": "value",
          "type": "uint256"
        }
      ],
      "name": "Approval",
      "type": "event"
    },
    {
      "anonymous": false,
      "inputs": [
        {
          "indexed": true,
          "internalType": "address",
          "name": "delegator",
          "type": "address"
        },
        {
          "indexed": true,
          "internalType": "address",
          "name": "fromDelegate",
          "type": "address"
        },
        {
          "indexed": true,
          "internalType": "address",
          "name": "toDelegate",
          "type": "address"
        }
      ],
      "name": "DelegateChanged",
      "type": "event"
    },
    {
      "anonymous": false,
      "inputs": [
        {
          "indexed": true,
          "internalType": "address",
          "name": "delegate",
          "type": "address"
        },
        {
          "indexed": false,
          "internalType": "uint256",
          "name": "previousBalance",
          "type": "uint256"
        },
        {
          "indexed": false,
          "internalType": "uint256",
          "name": "newBalance",
          "type": "uint256"
        }
      ],
      "name": "DelegateVotesChanged",
      "type": "event"
    },
    {
      "anonymous": false,
      "inputs": [
        {
          "indexed": true,
          "internalType": "address",
          "name": "previousOwner",
          "type": "address"
        },
        {
          "indexed": true,
          "internalType": "address",
          "name": "newOwner",
          "type": "address"
        }
      ],
      "name": "OwnershipTransferred",
      "type": "event"
    },
    {
      "anonymous": false,
      "inputs": [
        {
          "indexed": true,
          "internalType": "address",
          "name": "from",
          "type": "address"
        },
        {
          "indexed": true,
          "internalType": "address",
          "name": "to",
          "type": "address"
        },
        {
          "indexed": false,
          "internalType": "uint256",
          "name": "value",
          "type": "uint256"
        }
      ],
      "name": "Transfer",
      "type": "event"
    },
    {
      "anonymous": false,
      "inputs": [
        {
          "indexed": true,
          "internalType": "address",
          "name": "_account",
          "type": "address"
        }
      ],
      "name": "Unwhitelisted",
      "type": "event"
    },
    {
      "anonymous": false,
      "inputs": [],
      "name": "WhitelistDisabled",
      "type": "event"
    },
    {
      "anonymous": false,
      "inputs": [],
      "name": "WhitelistEnabled",
      "type": "event"
    },
    {
      "anonymous": false,
      "inputs": [
        {
          "indexed": true,
          "internalType": "address",
          "name": "_account",
          "type": "address"
        }
      ],
      "name": "Whitelisted",
      "type": "event"
    },
    {
      "inputs": [],
      "name": "DELEGATION_TYPEHASH",
      "outputs": [
        {
          "internalType": "bytes32",
          "name": "",
          "type": "bytes32"
        }
      ],
      "stateMutability": "view",
      "type": "function"
    },
    {
      "inputs": [],
      "name": "DOMAIN_SEPARATOR",
      "outputs": [
        {
          "internalType": "bytes32",
          "name": "",
          "type": "bytes32"
        }
      ],
      "stateMutability": "view",
      "type": "function"
    },
    {
      "inputs": [],
      "name": "DOMAIN_TYPEHASH",
      "outputs": [
        {
          "internalType": "bytes32",
          "name": "",
          "type": "bytes32"
        }
      ],
      "stateMutability": "view",
      "type": "function"
    },
    {
      "inputs": [],
      "name": "INIT_CIRCULATING",
      "outputs": [
        {
          "internalType": "uint256",
          "name": "",
          "type": "uint256"
        }
      ],
      "stateMutability": "view",
      "type": "function"
    },
    {
      "inputs": [],
      "name": "PERMIT_TYPEHASH",
      "outputs": [
        {
          "internalType": "bytes32",
          "name": "",
          "type": "bytes32"
        }
      ],
      "stateMutability": "view",
      "type": "function"
    },
    {
      "inputs": [
        {
          "internalType": "address",
          "name": "owner",
          "type": "address"
        },
        {
          "internalType": "address",
          "name": "spender",
          "type": "address"
        }
      ],
      "name": "allowance",
      "outputs": [
        {
          "internalType": "uint256",
          "name": "",
          "type": "uint256"
        }
      ],
      "stateMutability": "view",
      "type": "function"
    },
    {
      "inputs": [
        {
          "internalType": "address",
          "name": "spender",
          "type": "address"
        },
        {
          "internalType": "uint256",
          "name": "amount",
          "type": "uint256"
        }
      ],
      "name": "approve",
      "outputs": [
        {
          "internalType": "bool",
          "name": "",
          "type": "bool"
        }
      ],
      "stateMutability": "nonpayable",
      "type": "function"
    },
    {
      "inputs": [
        {
          "internalType": "address",
          "name": "account",
          "type": "address"
        }
      ],
      "name": "balanceOf",
      "outputs": [
        {
          "internalType": "uint256",
          "name": "",
          "type": "uint256"
        }
      ],
      "stateMutability": "view",
      "type": "function"
    },
    {
      "inputs": [
        {
          "internalType": "uint256",
          "name": "amount",
          "type": "uint256"
        }
      ],
      "name": "burn",
      "outputs": [],
      "stateMutability": "nonpayable",
      "type": "function"
    },
    {
      "inputs": [
        {
          "internalType": "address",
          "name": "account",
          "type": "address"
        },
        {
          "internalType": "uint256",
          "name": "amount",
          "type": "uint256"
        }
      ],
      "name": "burnFrom",
      "outputs": [],
      "stateMutability": "nonpayable",
      "type": "function"
    },
    {
      "inputs": [
        {
          "internalType": "address",
          "name": "account",
          "type": "address"
        },
        {
          "internalType": "uint32",
          "name": "pos",
          "type": "uint32"
        }
      ],
      "name": "checkpoints",
      "outputs": [
        {
          "components": [
            {
              "internalType": "uint32",
              "name": "fromBlock",
              "type": "uint32"
            },
            {
              "internalType": "uint224",
              "name": "votes",
              "type": "uint224"
            }
          ],
          "internalType": "struct ERC20Votes.Checkpoint",
          "name": "",
          "type": "tuple"
        }
      ],
      "stateMutability": "view",
      "type": "function"
    },
    {
      "inputs": [],
      "name": "decimals",
      "outputs": [
        {
          "internalType": "uint8",
          "name": "",
          "type": "uint8"
        }
      ],
      "stateMutability": "view",
      "type": "function"
    },
    {
      "inputs": [
        {
          "internalType": "address",
          "name": "spender",
          "type": "address"
        },
        {
          "internalType": "uint256",
          "name": "subtractedValue",
          "type": "uint256"
        }
      ],
      "name": "decreaseAllowance",
      "outputs": [
        {
          "internalType": "bool",
          "name": "",
          "type": "bool"
        }
      ],
      "stateMutability": "nonpayable",
      "type": "function"
    },
    {
      "inputs": [
        {
          "internalType": "address",
          "name": "delegatee",
          "type": "address"
        }
      ],
      "name": "delegate",
      "outputs": [],
      "stateMutability": "nonpayable",
      "type": "function"
    },
    {
      "inputs": [
        {
          "internalType": "address",
          "name": "delegatee",
          "type": "address"
        },
        {
          "internalType": "uint256",
          "name": "nonce",
          "type": "uint256"
        },
        {
          "internalType": "uint256",
          "name": "expiry",
          "type": "uint256"
        },
        {
          "internalType": "uint8",
          "name": "v",
          "type": "uint8"
        },
        {
          "internalType": "bytes32",
          "name": "r",
          "type": "bytes32"
        },
        {
          "internalType": "bytes32",
          "name": "s",
          "type": "bytes32"
        }
      ],
      "name": "delegateBySig",
      "outputs": [],
      "stateMutability": "nonpayable",
      "type": "function"
    },
    {
      "inputs": [
        {
          "internalType": "address",
          "name": "account",
          "type": "address"
        }
      ],
      "name": "delegates",
      "outputs": [
        {
          "internalType": "address",
          "name": "",
          "type": "address"
        }
      ],
      "stateMutability": "view",
      "type": "function"
    },
    {
      "inputs": [],
      "name": "disableWhitelist",
      "outputs": [],
      "stateMutability": "nonpayable",
      "type": "function"
    },
    {
      "inputs": [],
      "name": "enableWhitelist",
      "outputs": [],
      "stateMutability": "nonpayable",
      "type": "function"
    },
    {
      "inputs": [
        {
          "internalType": "address",
          "name": "account",
          "type": "address"
        }
      ],
      "name": "getCurrentVotes",
      "outputs": [
        {
          "internalType": "uint96",
          "name": "",
          "type": "uint96"
        }
      ],
      "stateMutability": "view",
      "type": "function"
    },
    {
      "inputs": [
        {
          "internalType": "uint256",
          "name": "blockNumber",
          "type": "uint256"
        }
      ],
      "name": "getPastTotalSupply",
      "outputs": [
        {
          "internalType": "uint256",
          "name": "",
          "type": "uint256"
        }
      ],
      "stateMutability": "view",
      "type": "function"
    },
    {
      "inputs": [
        {
          "internalType": "address",
          "name": "account",
          "type": "address"
        },
        {
          "internalType": "uint256",
          "name": "blockNumber",
          "type": "uint256"
        }
      ],
      "name": "getPastVotes",
      "outputs": [
        {
          "internalType": "uint256",
          "name": "",
          "type": "uint256"
        }
      ],
      "stateMutability": "view",
      "type": "function"
    },
    {
      "inputs": [
        {
          "internalType": "address",
          "name": "account",
          "type": "address"
        },
        {
          "internalType": "uint256",
          "name": "blockNumber",
          "type": "uint256"
        }
      ],
      "name": "getPriorVotes",
      "outputs": [
        {
          "internalType": "uint96",
          "name": "",
          "type": "uint96"
        }
      ],
      "stateMutability": "view",
      "type": "function"
    },
    {
      "inputs": [
        {
          "internalType": "address",
          "name": "account",
          "type": "address"
        }
      ],
      "name": "getVotes",
      "outputs": [
        {
          "internalType": "uint256",
          "name": "",
          "type": "uint256"
        }
      ],
      "stateMutability": "view",
      "type": "function"
    },
    {
      "inputs": [
        {
          "internalType": "address",
          "name": "spender",
          "type": "address"
        },
        {
          "internalType": "uint256",
          "name": "addedValue",
          "type": "uint256"
        }
      ],
      "name": "increaseAllowance",
      "outputs": [
        {
          "internalType": "bool",
          "name": "",
          "type": "bool"
        }
      ],
      "stateMutability": "nonpayable",
      "type": "function"
    },
    {
      "inputs": [
        {
          "internalType": "address",
          "name": "_account",
          "type": "address"
        }
      ],
      "name": "isWhitelisted",
      "outputs": [
        {
          "internalType": "bool",
          "name": "",
          "type": "bool"
        }
      ],
      "stateMutability": "view",
      "type": "function"
    },
    {
      "inputs": [],
      "name": "minimumTimeBetweenMints",
      "outputs": [
        {
          "internalType": "uint256",
          "name": "",
          "type": "uint256"
        }
      ],
      "stateMutability": "view",
      "type": "function"
    },
    {
      "inputs": [
        {
          "internalType": "address",
          "name": "dst",
          "type": "address"
        },
        {
          "internalType": "uint256",
          "name": "amount",
          "type": "uint256"
        }
      ],
      "name": "mint",
      "outputs": [
        {
          "internalType": "bool",
          "name": "",
          "type": "bool"
        }
      ],
      "stateMutability": "nonpayable",
      "type": "function"
    },
    {
      "inputs": [],
      "name": "mintCap",
      "outputs": [
        {
          "internalType": "uint256",
          "name": "",
          "type": "uint256"
        }
      ],
      "stateMutability": "view",
      "type": "function"
    },
    {
      "inputs": [],
      "name": "mintingAllowedAfter",
      "outputs": [
        {
          "internalType": "uint256",
          "name": "",
          "type": "uint256"
        }
      ],
      "stateMutability": "view",
      "type": "function"
    },
    {
      "inputs": [],
      "name": "name",
      "outputs": [
        {
          "internalType": "string",
          "name": "",
          "type": "string"
        }
      ],
      "stateMutability": "view",
      "type": "function"
    },
    {
      "inputs": [
        {
          "internalType": "address",
          "name": "owner",
          "type": "address"
        }
      ],
      "name": "nonces",
      "outputs": [
        {
          "internalType": "uint256",
          "name": "",
          "type": "uint256"
        }
      ],
      "stateMutability": "view",
      "type": "function"
    },
    {
      "inputs": [
        {
          "internalType": "address",
          "name": "account",
          "type": "address"
        }
      ],
      "name": "numCheckpoints",
      "outputs": [
        {
          "internalType": "uint32",
          "name": "",
          "type": "uint32"
        }
      ],
      "stateMutability": "view",
      "type": "function"
    },
    {
      "inputs": [],
      "name": "owner",
      "outputs": [
        {
          "internalType": "address",
          "name": "",
          "type": "address"
        }
      ],
      "stateMutability": "view",
      "type": "function"
    },
    {
      "inputs": [
        {
          "internalType": "address",
          "name": "owner",
          "type": "address"
        },
        {
          "internalType": "address",
          "name": "spender",
          "type": "address"
        },
        {
          "internalType": "uint256",
          "name": "value",
          "type": "uint256"
        },
        {
          "internalType": "uint256",
          "name": "deadline",
          "type": "uint256"
        },
        {
          "internalType": "uint8",
          "name": "v",
          "type": "uint8"
        },
        {
          "internalType": "bytes32",
          "name": "r",
          "type": "bytes32"
        },
        {
          "internalType": "bytes32",
          "name": "s",
          "type": "bytes32"
        }
      ],
      "name": "permit",
      "outputs": [],
      "stateMutability": "nonpayable",
      "type": "function"
    },
    {
      "inputs": [],
      "name": "renounceOwnership",
      "outputs": [],
      "stateMutability": "nonpayable",
      "type": "function"
    },
    {
      "inputs": [],
      "name": "symbol",
      "outputs": [
        {
          "internalType": "string",
          "name": "",
          "type": "string"
        }
      ],
      "stateMutability": "view",
      "type": "function"
    },
    {
      "inputs": [],
      "name": "totalSupply",
      "outputs": [
        {
          "internalType": "uint256",
          "name": "",
          "type": "uint256"
        }
      ],
      "stateMutability": "view",
      "type": "function"
    },
    {
      "inputs": [
        {
          "internalType": "address",
          "name": "recipient",
          "type": "address"
        },
        {
          "internalType": "uint256",
          "name": "amount",
          "type": "uint256"
        }
      ],
      "name": "transfer",
      "outputs": [
        {
          "internalType": "bool",
          "name": "",
          "type": "bool"
        }
      ],
      "stateMutability": "nonpayable",
      "type": "function"
    },
    {
      "inputs": [
        {
          "internalType": "address",
          "name": "sender",
          "type": "address"
        },
        {
          "internalType": "address",
          "name": "recipient",
          "type": "address"
        },
        {
          "internalType": "uint256",
          "name": "amount",
          "type": "uint256"
        }
      ],
      "name": "transferFrom",
      "outputs": [
        {
          "internalType": "bool",
          "name": "",
          "type": "bool"
        }
      ],
      "stateMutability": "nonpayable",
      "type": "function"
    },
    {
      "inputs": [
        {
          "internalType": "address",
          "name": "newOwner",
          "type": "address"
        }
      ],
      "name": "transferOwnership",
      "outputs": [],
      "stateMutability": "nonpayable",
      "type": "function"
    },
    {
      "inputs": [
        {
          "internalType": "address",
          "name": "_account",
          "type": "address"
        }
      ],
      "name": "unwhitelist",
      "outputs": [],
      "stateMutability": "nonpayable",
      "type": "function"
    },
    {
      "inputs": [
        {
          "internalType": "address",
          "name": "_account",
          "type": "address"
        }
      ],
      "name": "whitelist",
      "outputs": [],
      "stateMutability": "nonpayable",
      "type": "function"
    },
    {
      "inputs": [],
      "name": "whitelistEnabled",
      "outputs": [
        {
          "internalType": "bool",
          "name": "",
          "type": "bool"
        }
      ],
      "stateMutability": "view",
      "type": "function"
    }
  ],
  "transactionHash": "0xa6937ef4c28bce1446f9eba38e8a4bbb57a51a8a3f0f95ce9caed73382e40574",
  "args": [
    "Union Token",
    "UNION",
    "1633061850"
  ],
  "solcInputHash": "815da1a7bd393b91c2edbc66164c6945",
  "bytecode": "0x6101406040527f6e71edae12b1b97f4d1f60370fef10105fa2faae0126114a169c64845d6126c9610120523480156200003757600080fd5b50604051620033ab380380620033ab8339810160408190526200005a9162000b7d565b8280604051806040016040528060018152602001603160f81b815250858581600390805190602001906200009092919062000a2e565b508051620000a690600490602084019062000a2e565b5050825160209384012082519284019290922060c083815260e08290524660a0818152604080517f8b73c3c69bb8fe3d512ecc4cf759cc79239f7b179b0ffacaa9a75d522b39400f818a0181905281830198909852606081019590955260808086019390935230858301528051808603909201825293909201909252805194019390932090925261010052506200013f905033620001f7565b42811015620001a55760405162461bcd60e51b815260206004820152602760248201527f6d696e74696e672063616e206f6e6c7920626567696e206166746572206465706044820152661b1bde5b595b9d60ca1b60648201526084015b60405180910390fd5b33600090815260208190526040902054620001d157620001d1336a52b7d2dcc80cd2e400000062000249565b600b8190556009805460ff60a01b19169055620001ee33620002cb565b50505062000c8b565b600980546001600160a01b038381166001600160a01b0319831681179093556040519116919082907f8be0079c531659141344cd1fd0a4f28419497f9722a3daafe3b4186f6b6457e090600090a35050565b6200026082826200037360201b620011891760201c565b600b54421015620002b45760405162461bcd60e51b815260206004820152601760248201527f6d696e74696e67206e6f7420616c6c6f7765642079657400000000000000000060448201526064016200019c565b620002c4426301e1338062000bed565b600b555050565b6009546001600160a01b03163314620003275760405162461bcd60e51b815260206004820181905260248201527f4f776e61626c653a2063616c6c6572206973206e6f7420746865206f776e657260448201526064016200019c565b6001600160a01b0381166000818152600a6020526040808220805460ff19166001179055517faab7954e9d246b167ef88aeddad35209ca2489d95a8aeb59e288d9b19fae5a549190a250565b6200038a82826200042460201b620012191760201c565b6001600160601b036200039c60025490565b1115620004055760405162461bcd60e51b815260206004820152603060248201527f4552433230566f7465733a20746f74616c20737570706c79207269736b73206f60448201526f766572666c6f77696e6720766f74657360801b60648201526084016200019c565b6200041e6008620013106200052560201b17836200053a565b50505050565b6001600160a01b0382166200047c5760405162461bcd60e51b815260206004820152601f60248201527f45524332303a206d696e7420746f20746865207a65726f20616464726573730060448201526064016200019c565b6200048a6000838362000710565b80600260008282546200049e919062000bed565b90915550506001600160a01b03821660009081526020819052604081208054839290620004cd90849062000bed565b90915550506040518181526001600160a01b038316906000907fddf252ad1be2c89b69c2b068fc378daa952ba7f163c4a11628f55a4df523b3ef9060200160405180910390a36200052160008383620007c3565b5050565b600062000533828462000bed565b9392505050565b8254600090819080156200059857856200055660018362000c08565b815481106200057557634e487b7160e01b600052603260045260246000fd5b60009182526020909120015464010000000090046001600160e01b03166200059b565b60005b6001600160e01b03169250620005b283858760201c565b91506000811180156200060257504386620005cf60018462000c08565b81548110620005ee57634e487b7160e01b600052603260045260246000fd5b60009182526020909120015463ffffffff16145b1562000682576200061e82620007db60201b6200131c1760201c565b866200062c60018462000c08565b815481106200064b57634e487b7160e01b600052603260045260246000fd5b9060005260206000200160000160046101000a8154816001600160e01b0302191690836001600160e01b0316021790555062000707565b856040518060400160405280620006a4436200084a60201b620013891760201c565b63ffffffff168152602001620006c585620007db60201b6200131c1760201c565b6001600160e01b0390811690915282546001810184556000938452602093849020835194909301519091166401000000000263ffffffff909316929092179101555b50935093915050565b62000728838383620007be60201b62000a3b1760201c565b600954600160a01b900460ff1615620007be57336000908152600a602052604090205460ff16806200076157506001600160a01b038216155b620007be5760405162461bcd60e51b815260206004820152602660248201527f57686974656c69737461626c653a2061646472657373206e6f742077686974656044820152651b1a5cdd195960d21b60648201526084016200019c565b505050565b620007be838383620008b160201b620013ee1760201c565b60006001600160e01b03821115620008465760405162461bcd60e51b815260206004820152602760248201527f53616665436173743a2076616c756520646f65736e27742066697420696e20326044820152663234206269747360c81b60648201526084016200019c565b5090565b600063ffffffff821115620008465760405162461bcd60e51b815260206004820152602660248201527f53616665436173743a2076616c756520646f65736e27742066697420696e203360448201526532206269747360d01b60648201526084016200019c565b620008c9838383620007be60201b62000a3b1760201c565b6001600160a01b03838116600090815260066020526040808220548584168352912054620007be92918216911683818314801590620009085750600081115b15620007be576001600160a01b0383161562000995576001600160a01b03831660009081526007602090815260408220829162000952919062000a20901b6200142017856200053a565b91509150846001600160a01b03166000805160206200338b83398151915283836040516200098a929190918252602082015260400190565b60405180910390a250505b6001600160a01b03821615620007be576001600160a01b038216600090815260076020908152604082208291620009d9919062000525901b6200131017856200053a565b91509150836001600160a01b03166000805160206200338b833981519152838360405162000a11929190918252602082015260400190565b60405180910390a25050505050565b600062000533828462000c08565b82805462000a3c9062000c22565b90600052602060002090601f01602090048101928262000a60576000855562000aab565b82601f1062000a7b57805160ff191683800117855562000aab565b8280016001018555821562000aab579182015b8281111562000aab57825182559160200191906001019062000a8e565b50620008469291505b8082111562000846576000815560010162000ab4565b600082601f83011262000adb578081fd5b81516001600160401b038082111562000af85762000af862000c75565b604051601f8301601f19908116603f0116810190828211818310171562000b235762000b2362000c75565b8160405283815260209250868385880101111562000b3f578485fd5b8491505b8382101562000b62578582018301518183018401529082019062000b43565b8382111562000b7357848385830101525b9695505050505050565b60008060006060848603121562000b92578283fd5b83516001600160401b038082111562000ba9578485fd5b62000bb78783880162000aca565b9450602086015191508082111562000bcd578384fd5b5062000bdc8682870162000aca565b925050604084015190509250925092565b6000821982111562000c035762000c0362000c5f565b500190565b60008282101562000c1d5762000c1d62000c5f565b500390565b600181811c9082168062000c3757607f821691505b6020821081141562000c5957634e487b7160e01b600052602260045260246000fd5b50919050565b634e487b7160e01b600052601160045260246000fd5b634e487b7160e01b600052604160045260246000fd5b60805160a05160c05160e05161010051610120516126b062000cdb6000396000610eed01526000611785015260006117d4015260006117af015260006117330152600061175c01526126b06000f3fe608060405234801561001057600080fd5b50600436106102695760003560e01c806376c71ca111610151578063a9059cbb116100c3578063d6b0f48411610087578063d6b0f484146105b0578063dd62ed3e146105b8578063e7a324dc146105f1578063f1127ed814610618578063f2fde38b14610655578063f557d6571461066857600080fd5b8063a9059cbb1461055c578063b4b5ea571461056f578063c3cda52014610582578063cdfb2b4e14610595578063d505accf1461059d57600080fd5b80638e539e8c116101155780638e539e8c146104f557806395d89b41146105085780639a590427146105105780639ab24eb0146105235780639b19251a14610536578063a457c2d71461054957600080fd5b806376c71ca11461048b578063782d6fe11461049357806379cc6790146104be5780637ecebe00146104d15780638da5cb5b146104e457600080fd5b80633a46b1a8116101ea578063587cde1e116101ae578063587cde1e146103d05780635c11d62f146104145780635c19a95c1461041f5780636fcfff451461043257806370a082311461045a578063715018a61461048357600080fd5b80633a46b1a8146103555780633af32abf1461036857806340c10f191461039457806342966c68146103a757806351fb012d146103bc57600080fd5b806330adf81f1161023157806330adf81f146102fb57806330b36cef14610322578063313ce5671461032b5780633644e5151461033a578063395093511461034257600080fd5b806306fdde031461026e578063095ea7b31461028c57806318160ddd146102af57806320606b70146102c157806323b872dd146102e8575b600080fd5b61027661067a565b6040516102839190612539565b60405180910390f35b61029f61029a366004612463565b61070c565b6040519015158152602001610283565b6002545b604051908152602001610283565b6102b37f8cad95687ba82c2ce50e74f7b754645e5117c3a5bec8151c0726d5857980a86681565b61029f6102f63660046123bf565b610722565b6102b37f6e71edae12b1b97f4d1f60370fef10105fa2faae0126114a169c64845d6126c981565b6102b3600b5481565b60405160128152602001610283565b6102b36107d1565b61029f610350366004612463565b6107e0565b6102b3610363366004612463565b61081c565b61029f610376366004612373565b6001600160a01b03166000908152600a602052604090205460ff1690565b61029f6103a2366004612463565b610896565b6103ba6103b5366004612521565b610931565b005b60095461029f90600160a01b900460ff1681565b6103fc6103de366004612373565b6001600160a01b039081166000908152600660205260409020541690565b6040516001600160a01b039091168152602001610283565b6102b36301e1338081565b6103ba61042d366004612373565b61093e565b610445610440366004612373565b610948565b60405163ffffffff9091168152602001610283565b6102b3610468366004612373565b6001600160a01b031660009081526020819052604090205490565b6103ba610970565b6102b3600481565b6104a66104a1366004612463565b6109a6565b6040516001600160601b039091168152602001610283565b6103ba6104cc366004612463565b6109ba565b6102b36104df366004612373565b610a40565b6009546001600160a01b03166103fc565b6102b3610503366004612521565b610a5e565b610276610aba565b6103ba61051e366004612373565b610ac9565b6102b3610531366004612373565b610b3c565b6103ba610544366004612373565b610bd1565b61029f610557366004612463565b610c47565b61029f61056a366004612463565b610ce0565b6104a661057d366004612373565b610ced565b6103ba61059036600461248c565b610cfb565b6103ba610e31565b6103ba6105ab3660046123fa565b610e99565b6103ba610ffd565b6102b36105c636600461238d565b6001600160a01b03918216600090815260016020908152604080832093909416825291909152205490565b6102b37fe48329057bfd03d55e49b547132e39cffd9c1820ad7b9d4c5307691425d15adf81565b61062b6106263660046124e3565b61105f565b60408051825163ffffffff1681526020928301516001600160e01b03169281019290925201610283565b6103ba610663366004612373565b6110f1565b6102b36a52b7d2dcc80cd2e400000081565b6060600380546106899061262f565b80601f01602080910402602001604051908101604052809291908181526020018280546106b59061262f565b80156107025780601f106106d757610100808354040283529160200191610702565b820191906000526020600020905b8154815290600101906020018083116106e557829003601f168201915b5050505050905090565b600061071933848461142c565b50600192915050565b600061072f848484611550565b6001600160a01b0384166000908152600160209081526040808320338452909152902054828110156107b95760405162461bcd60e51b815260206004820152602860248201527f45524332303a207472616e7366657220616d6f756e74206578636565647320616044820152676c6c6f77616e636560c01b60648201526084015b60405180910390fd5b6107c6853385840361142c565b506001949350505050565b60006107db61172f565b905090565b3360008181526001602090815260408083206001600160a01b038716845290915281205490916107199185906108179086906125c1565b61142c565b600043821061086d5760405162461bcd60e51b815260206004820152601f60248201527f4552433230566f7465733a20626c6f636b206e6f7420796574206d696e65640060448201526064016107b0565b6001600160a01b038316600090815260076020526040902061088f9083611822565b9392505050565b6009546000906001600160a01b031633146108c35760405162461bcd60e51b81526004016107b09061258c565b606460046108d060025490565b6108da91906125f9565b6108e491906125d9565b8211156109275760405162461bcd60e51b815260206004820152601160248201527006578636565646564206d696e742063617607c1b60448201526064016107b0565b61071983836118fb565b61093b338261196c565b50565b61093b3382611976565b6001600160a01b03811660009081526007602052604081205461096a90611389565b92915050565b6009546001600160a01b0316331461099a5760405162461bcd60e51b81526004016107b09061258c565b6109a460006119ef565b565b600061088f6109b5848461081c565b611a41565b60006109c683336105c6565b905081811015610a245760405162461bcd60e51b8152602060048201526024808201527f45524332303a206275726e20616d6f756e74206578636565647320616c6c6f77604482015263616e636560e01b60648201526084016107b0565b610a31833384840361142c565b610a3b838361196c565b505050565b6001600160a01b03811660009081526005602052604081205461096a565b6000438210610aaf5760405162461bcd60e51b815260206004820152601f60248201527f4552433230566f7465733a20626c6f636b206e6f7420796574206d696e65640060448201526064016107b0565b61096a600883611822565b6060600480546106899061262f565b6009546001600160a01b03163314610af35760405162461bcd60e51b81526004016107b09061258c565b6001600160a01b0381166000818152600a6020526040808220805460ff19169055517f51085ddf9ebdded84b76e829eb58c4078e4b5bdf97d9a94723f336039da467919190a250565b6001600160a01b0381166000908152600760205260408120548015610bbe576001600160a01b0383166000908152600760205260409020610b7e600183612618565b81548110610b9c57634e487b7160e01b600052603260045260246000fd5b60009182526020909120015464010000000090046001600160e01b0316610bc1565b60005b6001600160e01b03169392505050565b6009546001600160a01b03163314610bfb5760405162461bcd60e51b81526004016107b09061258c565b6001600160a01b0381166000818152600a6020526040808220805460ff19166001179055517faab7954e9d246b167ef88aeddad35209ca2489d95a8aeb59e288d9b19fae5a549190a250565b3360009081526001602090815260408083206001600160a01b038616845290915281205482811015610cc95760405162461bcd60e51b815260206004820152602560248201527f45524332303a2064656372656173656420616c6c6f77616e63652062656c6f77604482015264207a65726f60d81b60648201526084016107b0565b610cd6338585840361142c565b5060019392505050565b6000610719338484611550565b600061096a6109b583610b3c565b83421115610d4b5760405162461bcd60e51b815260206004820152601d60248201527f4552433230566f7465733a207369676e6174757265206578706972656400000060448201526064016107b0565b604080517fe48329057bfd03d55e49b547132e39cffd9c1820ad7b9d4c5307691425d15adf60208201526001600160a01b038816918101919091526060810186905260808101859052600090610dc590610dbd9060a00160405160208183030381529060405280519060200120611aa9565b858585611af7565b9050610dd081611b1f565b8614610e1e5760405162461bcd60e51b815260206004820152601960248201527f4552433230566f7465733a20696e76616c6964206e6f6e63650000000000000060448201526064016107b0565b610e288188611976565b50505050505050565b6009546001600160a01b03163314610e5b5760405162461bcd60e51b81526004016107b09061258c565b6009805460ff60a01b1916600160a01b1790556040517fe5e5846f783279948f6ec5faad38318cde86fe5be7ea845ede56d62f16c3743490600090a1565b83421115610ee95760405162461bcd60e51b815260206004820152601d60248201527f45524332305065726d69743a206578706972656420646561646c696e6500000060448201526064016107b0565b60007f0000000000000000000000000000000000000000000000000000000000000000888888610f188c611b1f565b6040805160208101969096526001600160a01b0394851690860152929091166060840152608083015260a082015260c0810186905260e0016040516020818303038152906040528051906020012090506000610f7382611aa9565b90506000610f8382878787611af7565b9050896001600160a01b0316816001600160a01b031614610fe65760405162461bcd60e51b815260206004820152601e60248201527f45524332305065726d69743a20696e76616c6964207369676e6174757265000060448201526064016107b0565b610ff18a8a8a61142c565b50505050505050505050565b6009546001600160a01b031633146110275760405162461bcd60e51b81526004016107b09061258c565b6009805460ff60a01b191690556040517f212c6e1d3045c9581ef0adf2504dbb1d137f52f38162ccf77a16c69d14eba5c390600090a1565b60408051808201909152600080825260208201526001600160a01b0383166000908152600760205260409020805463ffffffff84169081106110b157634e487b7160e01b600052603260045260246000fd5b60009182526020918290206040805180820190915291015463ffffffff8116825264010000000090046001600160e01b0316918101919091529392505050565b6009546001600160a01b0316331461111b5760405162461bcd60e51b81526004016107b09061258c565b6001600160a01b0381166111805760405162461bcd60e51b815260206004820152602660248201527f4f776e61626c653a206e6577206f776e657220697320746865207a65726f206160448201526564647265737360d01b60648201526084016107b0565b61093b816119ef565b6111938282611219565b6002546001600160601b0310156112055760405162461bcd60e51b815260206004820152603060248201527f4552433230566f7465733a20746f74616c20737570706c79207269736b73206f60448201526f766572666c6f77696e6720766f74657360801b60648201526084016107b0565b611213600861131083611b47565b50505050565b6001600160a01b03821661126f5760405162461bcd60e51b815260206004820152601f60248201527f45524332303a206d696e7420746f20746865207a65726f20616464726573730060448201526064016107b0565b61127b60008383611cea565b806002600082825461128d91906125c1565b90915550506001600160a01b038216600090815260208190526040812080548392906112ba9084906125c1565b90915550506040518181526001600160a01b038316906000907fddf252ad1be2c89b69c2b068fc378daa952ba7f163c4a11628f55a4df523b3ef9060200160405180910390a361130c60008383611d7c565b5050565b600061088f82846125c1565b60006001600160e01b038211156113855760405162461bcd60e51b815260206004820152602760248201527f53616665436173743a2076616c756520646f65736e27742066697420696e20326044820152663234206269747360c81b60648201526084016107b0565b5090565b600063ffffffff8211156113855760405162461bcd60e51b815260206004820152602660248201527f53616665436173743a2076616c756520646f65736e27742066697420696e203360448201526532206269747360d01b60648201526084016107b0565b6001600160a01b03838116600090815260066020526040808220548584168352912054610a3b92918216911683611d87565b600061088f8284612618565b6001600160a01b03831661148e5760405162461bcd60e51b8152602060048201526024808201527f45524332303a20617070726f76652066726f6d20746865207a65726f206164646044820152637265737360e01b60648201526084016107b0565b6001600160a01b0382166114ef5760405162461bcd60e51b815260206004820152602260248201527f45524332303a20617070726f766520746f20746865207a65726f206164647265604482015261737360f01b60648201526084016107b0565b6001600160a01b0383811660008181526001602090815260408083209487168084529482529182902085905590518481527f8c5be1e5ebec7d5bd14f71427d1e84f3dd0314c0f7b2291e5b200ac8c7c3b925910160405180910390a3505050565b6001600160a01b0383166115b45760405162461bcd60e51b815260206004820152602560248201527f45524332303a207472616e736665722066726f6d20746865207a65726f206164604482015264647265737360d81b60648201526084016107b0565b6001600160a01b0382166116165760405162461bcd60e51b815260206004820152602360248201527f45524332303a207472616e7366657220746f20746865207a65726f206164647260448201526265737360e81b60648201526084016107b0565b611621838383611cea565b6001600160a01b038316600090815260208190526040902054818110156116995760405162461bcd60e51b815260206004820152602660248201527f45524332303a207472616e7366657220616d6f756e7420657863656564732062604482015265616c616e636560d01b60648201526084016107b0565b6001600160a01b038085166000908152602081905260408082208585039055918516815290812080548492906116d09084906125c1565b92505081905550826001600160a01b0316846001600160a01b03167fddf252ad1be2c89b69c2b068fc378daa952ba7f163c4a11628f55a4df523b3ef8460405161171c91815260200190565b60405180910390a3611213848484611d7c565b60007f000000000000000000000000000000000000000000000000000000000000000046141561177e57507f000000000000000000000000000000000000000000000000000000000000000090565b50604080517f00000000000000000000000000000000000000000000000000000000000000006020808301919091527f0000000000000000000000000000000000000000000000000000000000000000828401527f000000000000000000000000000000000000000000000000000000000000000060608301524660808301523060a0808401919091528351808403909101815260c0909201909252805191012090565b8154600090815b8181101561189457600061183d8284611ec4565b90508486828154811061186057634e487b7160e01b600052603260045260246000fd5b60009182526020909120015463ffffffff1611156118805780925061188e565b61188b8160016125c1565b91505b50611829565b81156118e657846118a6600184612618565b815481106118c457634e487b7160e01b600052603260045260246000fd5b60009182526020909120015464010000000090046001600160e01b03166118e9565b60005b6001600160e01b031695945050505050565b6119058282611189565b600b544210156119575760405162461bcd60e51b815260206004820152601760248201527f6d696e74696e67206e6f7420616c6c6f7765642079657400000000000000000060448201526064016107b0565b611965426301e133806125c1565b600b555050565b61130c8282611edf565b6001600160a01b038281166000818152600660208181526040808420805485845282862054949093528787166001600160a01b03198416811790915590519190951694919391928592917f3134e8a2e6d97e929a7e54011ea5485d7d196dd5f0ba4d4ef95803e8e3fc257f9190a4611213828483611d87565b600980546001600160a01b038381166001600160a01b0319831681179093556040519116919082907f8be0079c531659141344cd1fd0a4f28419497f9722a3daafe3b4186f6b6457e090600090a35050565b60006001600160601b038211156113855760405162461bcd60e51b815260206004820152602660248201527f53616665436173743a2076616c756520646f65736e27742066697420696e203960448201526536206269747360d01b60648201526084016107b0565b600061096a611ab661172f565b8360405161190160f01b6020820152602281018390526042810182905260009060620160405160208183030381529060405280519060200120905092915050565b6000806000611b0887878787611ef7565b91509150611b1581611fe4565b5095945050505050565b6001600160a01b03811660009081526005602052604090208054600181018255905b50919050565b825460009081908015611ba05785611b60600183612618565b81548110611b7e57634e487b7160e01b600052603260045260246000fd5b60009182526020909120015464010000000090046001600160e01b0316611ba3565b60005b6001600160e01b03169250611bbc83858763ffffffff16565b9150600081118015611c0857504386611bd6600184612618565b81548110611bf457634e487b7160e01b600052603260045260246000fd5b60009182526020909120015463ffffffff16145b15611c7657611c168261131c565b86611c22600184612618565b81548110611c4057634e487b7160e01b600052603260045260246000fd5b9060005260206000200160000160046101000a8154816001600160e01b0302191690836001600160e01b03160217905550611ce1565b856040518060400160405280611c8b43611389565b63ffffffff168152602001611c9f8561131c565b6001600160e01b0390811690915282546001810184556000938452602093849020835194909301519091166401000000000263ffffffff909316929092179101555b50935093915050565b600954600160a01b900460ff1615610a3b57336000908152600a602052604090205460ff1680611d2157506001600160a01b038216155b610a3b5760405162461bcd60e51b815260206004820152602660248201527f57686974656c69737461626c653a2061646472657373206e6f742077686974656044820152651b1a5cdd195960d21b60648201526084016107b0565b610a3b8383836113ee565b816001600160a01b0316836001600160a01b031614158015611da95750600081115b15610a3b576001600160a01b03831615611e37576001600160a01b03831660009081526007602052604081208190611de49061142085611b47565b91509150846001600160a01b03167fdec2bacdd2f05b59de34da9b523dff8be42e5e38e818c82fdb0bae774387a7248383604051611e2c929190918252602082015260400190565b60405180910390a250505b6001600160a01b03821615610a3b576001600160a01b03821660009081526007602052604081208190611e6d9061131085611b47565b91509150836001600160a01b03167fdec2bacdd2f05b59de34da9b523dff8be42e5e38e818c82fdb0bae774387a7248383604051611eb5929190918252602082015260400190565b60405180910390a25050505050565b6000611ed360028484186125d9565b61088f908484166125c1565b611ee982826121e5565b611213600861142083611b47565b6000807f7fffffffffffffffffffffffffffffff5d576e7357a4501ddfe92f46681b20a0831115611f2e5750600090506003611fdb565b8460ff16601b14158015611f4657508460ff16601c14155b15611f575750600090506004611fdb565b6040805160008082526020820180845289905260ff881692820192909252606081018690526080810185905260019060a0016020604051602081039080840390855afa158015611fab573d6000803e3d6000fd5b5050604051601f1901519150506001600160a01b038116611fd457600060019250925050611fdb565b9150600090505b94509492505050565b600081600481111561200657634e487b7160e01b600052602160045260246000fd5b141561200f5750565b600181600481111561203157634e487b7160e01b600052602160045260246000fd5b141561207f5760405162461bcd60e51b815260206004820152601860248201527f45434453413a20696e76616c6964207369676e6174757265000000000000000060448201526064016107b0565b60028160048111156120a157634e487b7160e01b600052602160045260246000fd5b14156120ef5760405162461bcd60e51b815260206004820152601f60248201527f45434453413a20696e76616c6964207369676e6174757265206c656e6774680060448201526064016107b0565b600381600481111561211157634e487b7160e01b600052602160045260246000fd5b141561216a5760405162461bcd60e51b815260206004820152602260248201527f45434453413a20696e76616c6964207369676e6174757265202773272076616c604482015261756560f01b60648201526084016107b0565b600481600481111561218c57634e487b7160e01b600052602160045260246000fd5b141561093b5760405162461bcd60e51b815260206004820152602260248201527f45434453413a20696e76616c6964207369676e6174757265202776272076616c604482015261756560f01b60648201526084016107b0565b6001600160a01b0382166122455760405162461bcd60e51b815260206004820152602160248201527f45524332303a206275726e2066726f6d20746865207a65726f206164647265736044820152607360f81b60648201526084016107b0565b61225182600083611cea565b6001600160a01b038216600090815260208190526040902054818110156122c55760405162461bcd60e51b815260206004820152602260248201527f45524332303a206275726e20616d6f756e7420657863656564732062616c616e604482015261636560f01b60648201526084016107b0565b6001600160a01b03831660009081526020819052604081208383039055600280548492906122f4908490612618565b90915550506040518281526000906001600160a01b038516907fddf252ad1be2c89b69c2b068fc378daa952ba7f163c4a11628f55a4df523b3ef9060200160405180910390a3610a3b83600084611d7c565b80356001600160a01b038116811461235d57600080fd5b919050565b803560ff8116811461235d57600080fd5b600060208284031215612384578081fd5b61088f82612346565b6000806040838503121561239f578081fd5b6123a883612346565b91506123b660208401612346565b90509250929050565b6000806000606084860312156123d3578081fd5b6123dc84612346565b92506123ea60208501612346565b9150604084013590509250925092565b600080600080600080600060e0888a031215612414578283fd5b61241d88612346565b965061242b60208901612346565b9550604088013594506060880135935061244760808901612362565b925060a0880135915060c0880135905092959891949750929550565b60008060408385031215612475578182fd5b61247e83612346565b946020939093013593505050565b60008060008060008060c087890312156124a4578182fd5b6124ad87612346565b955060208701359450604087013593506124c960608801612362565b92506080870135915060a087013590509295509295509295565b600080604083850312156124f5578182fd5b6124fe83612346565b9150602083013563ffffffff81168114612516578182fd5b809150509250929050565b600060208284031215612532578081fd5b5035919050565b6000602080835283518082850152825b8181101561256557858101830151858201604001528201612549565b818111156125765783604083870101525b50601f01601f1916929092016040019392505050565b6020808252818101527f4f776e61626c653a2063616c6c6572206973206e6f7420746865206f776e6572604082015260600190565b600082198211156125d4576125d4612664565b500190565b6000826125f457634e487b7160e01b81526012600452602481fd5b500490565b600081600019048311821515161561261357612613612664565b500290565b60008282101561262a5761262a612664565b500390565b600181811c9082168061264357607f821691505b60208210811415611b4157634e487b7160e01b600052602260045260246000fd5b634e487b7160e01b600052601160045260246000fdfea2646970667358221220cbecf1bb78cdacebdc51fcba064f3bc53075d74a268eadff5901522975c741d464736f6c63430008040033dec2bacdd2f05b59de34da9b523dff8be42e5e38e818c82fdb0bae774387a724",
  "devdoc": {
    "details": "Mint and distribute UnionTokens.",
    "kind": "dev",
    "methods": {
      "DOMAIN_SEPARATOR()": {
        "details": "See {IERC20Permit-DOMAIN_SEPARATOR}."
      },
      "allowance(address,address)": {
        "details": "See {IERC20-allowance}."
      },
      "approve(address,uint256)": {
        "details": "See {IERC20-approve}. Requirements: - `spender` cannot be the zero address."
      },
      "balanceOf(address)": {
        "details": "See {IERC20-balanceOf}."
      },
      "burn(uint256)": {
        "details": "Destroys `amount` tokens from the caller. See {ERC20-_burn}."
      },
      "burnFrom(address,uint256)": {
        "details": "Destroys `amount` tokens from `account`, deducting from the caller's allowance. See {ERC20-_burn} and {ERC20-allowance}. Requirements: - the caller must have allowance for ``accounts``'s tokens of at least `amount`."
      },
      "checkpoints(address,uint32)": {
        "details": "Get the `pos`-th checkpoint for `account`."
      },
      "decimals()": {
        "details": "Returns the number of decimals used to get its user representation. For example, if `decimals` equals `2`, a balance of `505` tokens should be displayed to a user as `5.05` (`505 / 10 ** 2`). Tokens usually opt for a value of 18, imitating the relationship between Ether and Wei. This is the value {ERC20} uses, unless this function is overridden; NOTE: This information is only used for _display_ purposes: it in no way affects any of the arithmetic of the contract, including {IERC20-balanceOf} and {IERC20-transfer}."
      },
      "decreaseAllowance(address,uint256)": {
        "details": "Atomically decreases the allowance granted to `spender` by the caller. This is an alternative to {approve} that can be used as a mitigation for problems described in {IERC20-approve}. Emits an {Approval} event indicating the updated allowance. Requirements: - `spender` cannot be the zero address. - `spender` must have allowance for the caller of at least `subtractedValue`."
      },
      "delegate(address)": {
        "details": "Delegate votes from the sender to `delegatee`."
      },
      "delegateBySig(address,uint256,uint256,uint8,bytes32,bytes32)": {
        "details": "Delegates votes from signer to `delegatee`"
      },
      "delegates(address)": {
        "details": "Get the address `account` is currently delegating to."
      },
      "getCurrentVotes(address)": {
        "details": "Comp version of the {getVotes} accessor, with `uint96` return type."
      },
      "getPastTotalSupply(uint256)": {
        "details": "Retrieve the `totalSupply` at the end of `blockNumber`. Note, this value is the sum of all balances. It is but NOT the sum of all the delegated votes! Requirements: - `blockNumber` must have been already mined"
      },
      "getPastVotes(address,uint256)": {
        "details": "Retrieve the number of votes for `account` at the end of `blockNumber`. Requirements: - `blockNumber` must have been already mined"
      },
      "getPriorVotes(address,uint256)": {
        "details": "Comp version of the {getPastVotes} accessor, with `uint96` return type."
      },
      "getVotes(address)": {
        "details": "Gets the current votes balance for `account`"
      },
      "increaseAllowance(address,uint256)": {
        "details": "Atomically increases the allowance granted to `spender` by the caller. This is an alternative to {approve} that can be used as a mitigation for problems described in {IERC20-approve}. Emits an {Approval} event indicating the updated allowance. Requirements: - `spender` cannot be the zero address."
      },
      "isWhitelisted(address)": {
        "details": "Checks if account is whitelisted",
        "params": {
          "_account": "The address to check"
        }
      },
      "name()": {
        "details": "Returns the name of the token."
      },
      "nonces(address)": {
        "details": "See {IERC20Permit-nonces}."
      },
      "numCheckpoints(address)": {
        "details": "Get number of checkpoints for `account`."
      },
      "owner()": {
        "details": "Returns the address of the current owner."
      },
      "permit(address,address,uint256,uint256,uint8,bytes32,bytes32)": {
        "details": "See {IERC20Permit-permit}."
      },
      "renounceOwnership()": {
        "details": "Leaves the contract without owner. It will not be possible to call `onlyOwner` functions anymore. Can only be called by the current owner. NOTE: Renouncing ownership will leave the contract without an owner, thereby removing any functionality that is only available to the owner."
      },
      "symbol()": {
        "details": "Returns the symbol of the token, usually a shorter version of the name."
      },
      "totalSupply()": {
        "details": "See {IERC20-totalSupply}."
      },
      "transfer(address,uint256)": {
        "details": "See {IERC20-transfer}. Requirements: - `recipient` cannot be the zero address. - the caller must have a balance of at least `amount`."
      },
      "transferFrom(address,address,uint256)": {
        "details": "See {IERC20-transferFrom}. Emits an {Approval} event indicating the updated allowance. This is not required by the EIP. See the note at the beginning of {ERC20}. Requirements: - `sender` and `recipient` cannot be the zero address. - `sender` must have a balance of at least `amount`. - the caller must have allowance for ``sender``'s tokens of at least `amount`."
      },
      "transferOwnership(address)": {
        "details": "Transfers ownership of the contract to a new account (`newOwner`). Can only be called by the current owner."
      },
      "unwhitelist(address)": {
        "details": "Removes account from whitelist",
        "params": {
          "_account": "The address to remove from the whitelist"
        }
      },
      "whitelist(address)": {
        "details": "Adds account to whitelist",
        "params": {
          "_account": "The address to whitelist"
        }
      }
    },
    "title": "UnionToken Contract",
    "version": 1
  },
  "userdoc": {
    "kind": "user",
    "methods": {
      "disableWhitelist()": {
        "notice": "disable whitelist and allow transfers for everyone"
      },
      "enableWhitelist()": {
        "notice": "enable whitelist and only allow transfers from whitelisted addresses"
      },
      "minimumTimeBetweenMints()": {
        "notice": "Minimum time between mints"
      },
      "mintCap()": {
        "notice": "Cap on the percentage of totalSupply that can be minted at each mint"
      },
      "mintingAllowedAfter()": {
        "notice": "The timestamp after which minting may occur"
      }
    },
    "version": 1
  },
  "storageLayout": {
    "storage": [
      {
        "astId": 6714,
        "contract": "contracts/token/UnionToken.sol:UnionToken",
        "label": "_balances",
        "offset": 0,
        "slot": "0",
        "type": "t_mapping(t_address,t_uint256)"
      },
      {
        "astId": 6720,
        "contract": "contracts/token/UnionToken.sol:UnionToken",
        "label": "_allowances",
        "offset": 0,
        "slot": "1",
        "type": "t_mapping(t_address,t_mapping(t_address,t_uint256))"
      },
      {
        "astId": 6722,
        "contract": "contracts/token/UnionToken.sol:UnionToken",
        "label": "_totalSupply",
        "offset": 0,
        "slot": "2",
        "type": "t_uint256"
      },
      {
        "astId": 6724,
        "contract": "contracts/token/UnionToken.sol:UnionToken",
        "label": "_name",
        "offset": 0,
        "slot": "3",
        "type": "t_string_storage"
      },
      {
        "astId": 6726,
        "contract": "contracts/token/UnionToken.sol:UnionToken",
        "label": "_symbol",
        "offset": 0,
        "slot": "4",
        "type": "t_string_storage"
      },
      {
        "astId": 8134,
        "contract": "contracts/token/UnionToken.sol:UnionToken",
        "label": "_nonces",
        "offset": 0,
        "slot": "5",
        "type": "t_mapping(t_address,t_struct(Counter)8865_storage)"
      },
      {
        "astId": 7407,
        "contract": "contracts/token/UnionToken.sol:UnionToken",
        "label": "_delegates",
        "offset": 0,
        "slot": "6",
        "type": "t_mapping(t_address,t_address)"
      },
      {
        "astId": 7413,
        "contract": "contracts/token/UnionToken.sol:UnionToken",
        "label": "_checkpoints",
        "offset": 0,
        "slot": "7",
        "type": "t_mapping(t_address,t_array(t_struct(Checkpoint)7398_storage)dyn_storage)"
      },
      {
        "astId": 7417,
        "contract": "contracts/token/UnionToken.sol:UnionToken",
        "label": "_totalSupplyCheckpoints",
        "offset": 0,
        "slot": "8",
        "type": "t_array(t_struct(Checkpoint)7398_storage)dyn_storage"
      },
      {
        "astId": 2894,
        "contract": "contracts/token/UnionToken.sol:UnionToken",
        "label": "_owner",
        "offset": 0,
        "slot": "9",
        "type": "t_address"
      },
      {
        "astId": 21107,
        "contract": "contracts/token/UnionToken.sol:UnionToken",
        "label": "whitelistEnabled",
        "offset": 20,
        "slot": "9",
        "type": "t_bool"
      },
      {
        "astId": 21111,
        "contract": "contracts/token/UnionToken.sol:UnionToken",
        "label": "_whitelisted",
        "offset": 0,
        "slot": "10",
        "type": "t_mapping(t_address,t_bool)"
      },
      {
        "astId": 20894,
        "contract": "contracts/token/UnionToken.sol:UnionToken",
        "label": "mintingAllowedAfter",
        "offset": 0,
        "slot": "11",
        "type": "t_uint256"
      }
    ],
    "types": {
      "t_address": {
        "encoding": "inplace",
        "label": "address",
        "numberOfBytes": "20"
      },
      "t_array(t_struct(Checkpoint)7398_storage)dyn_storage": {
        "base": "t_struct(Checkpoint)7398_storage",
        "encoding": "dynamic_array",
        "label": "struct ERC20Votes.Checkpoint[]",
        "numberOfBytes": "32"
      },
      "t_bool": {
        "encoding": "inplace",
        "label": "bool",
        "numberOfBytes": "1"
      },
      "t_mapping(t_address,t_address)": {
        "encoding": "mapping",
        "key": "t_address",
        "label": "mapping(address => address)",
        "numberOfBytes": "32",
        "value": "t_address"
      },
      "t_mapping(t_address,t_array(t_struct(Checkpoint)7398_storage)dyn_storage)": {
        "encoding": "mapping",
        "key": "t_address",
        "label": "mapping(address => struct ERC20Votes.Checkpoint[])",
        "numberOfBytes": "32",
        "value": "t_array(t_struct(Checkpoint)7398_storage)dyn_storage"
      },
      "t_mapping(t_address,t_bool)": {
        "encoding": "mapping",
        "key": "t_address",
        "label": "mapping(address => bool)",
        "numberOfBytes": "32",
        "value": "t_bool"
      },
      "t_mapping(t_address,t_mapping(t_address,t_uint256))": {
        "encoding": "mapping",
        "key": "t_address",
        "label": "mapping(address => mapping(address => uint256))",
        "numberOfBytes": "32",
        "value": "t_mapping(t_address,t_uint256)"
      },
      "t_mapping(t_address,t_struct(Counter)8865_storage)": {
        "encoding": "mapping",
        "key": "t_address",
        "label": "mapping(address => struct Counters.Counter)",
        "numberOfBytes": "32",
        "value": "t_struct(Counter)8865_storage"
      },
      "t_mapping(t_address,t_uint256)": {
        "encoding": "mapping",
        "key": "t_address",
        "label": "mapping(address => uint256)",
        "numberOfBytes": "32",
        "value": "t_uint256"
      },
      "t_string_storage": {
        "encoding": "bytes",
        "label": "string",
        "numberOfBytes": "32"
      },
      "t_struct(Checkpoint)7398_storage": {
        "encoding": "inplace",
        "label": "struct ERC20Votes.Checkpoint",
        "members": [
          {
            "astId": 7395,
            "contract": "contracts/token/UnionToken.sol:UnionToken",
            "label": "fromBlock",
            "offset": 0,
            "slot": "0",
            "type": "t_uint32"
          },
          {
            "astId": 7397,
            "contract": "contracts/token/UnionToken.sol:UnionToken",
            "label": "votes",
            "offset": 4,
            "slot": "0",
            "type": "t_uint224"
          }
        ],
        "numberOfBytes": "32"
      },
      "t_struct(Counter)8865_storage": {
        "encoding": "inplace",
        "label": "struct Counters.Counter",
        "members": [
          {
            "astId": 8864,
            "contract": "contracts/token/UnionToken.sol:UnionToken",
            "label": "_value",
            "offset": 0,
            "slot": "0",
            "type": "t_uint256"
          }
        ],
        "numberOfBytes": "32"
      },
      "t_uint224": {
        "encoding": "inplace",
        "label": "uint224",
        "numberOfBytes": "28"
      },
      "t_uint256": {
        "encoding": "inplace",
        "label": "uint256",
        "numberOfBytes": "32"
      },
      "t_uint32": {
        "encoding": "inplace",
        "label": "uint32",
        "numberOfBytes": "4"
      }
    }
  }
}