{
  "address": "0xfD1B458C5f18BCeB9ac2fa033659F8b4c178f78D",
  "abi": [
    {
      "anonymous": false,
      "inputs": [
        {
          "indexed": false,
          "internalType": "address",
          "name": "previousAdmin",
          "type": "address"
        },
        {
          "indexed": false,
          "internalType": "address",
          "name": "newAdmin",
          "type": "address"
        }
      ],
      "name": "AdminChanged",
      "type": "event"
    },
    {
      "anonymous": false,
      "inputs": [
        {
          "indexed": true,
          "internalType": "address",
          "name": "beacon",
          "type": "address"
        }
      ],
      "name": "BeaconUpgraded",
      "type": "event"
    },
    {
      "anonymous": false,
      "inputs": [
        {
          "indexed": false,
          "internalType": "address",
          "name": "member",
          "type": "address"
        }
      ],
      "name": "LogAddMember",
      "type": "event"
    },
    {
      "anonymous": false,
      "inputs": [
        {
          "indexed": true,
          "internalType": "address",
          "name": "account",
          "type": "address"
        },
        {
          "indexed": true,
          "internalType": "address",
          "name": "borrower",
          "type": "address"
        }
      ],
      "name": "LogCancelVouch",
      "type": "event"
    },
    {
      "anonymous": false,
      "inputs": [
        {
          "indexed": true,
          "internalType": "address",
          "name": "staker",
          "type": "address"
        },
        {
          "indexed": true,
          "internalType": "address",
          "name": "borrower",
          "type": "address"
        },
        {
          "indexed": false,
          "internalType": "uint256",
          "name": "amount",
          "type": "uint256"
        }
      ],
      "name": "LogDebtWriteOff",
      "type": "event"
    },
    {
      "anonymous": false,
      "inputs": [
        {
          "indexed": false,
          "internalType": "address",
          "name": "newCreditLimitModel",
          "type": "address"
        }
      ],
      "name": "LogNewCreditLimitModel",
      "type": "event"
    },
    {
      "anonymous": false,
      "inputs": [
        {
          "indexed": true,
          "internalType": "address",
          "name": "account",
          "type": "address"
        },
        {
          "indexed": true,
          "internalType": "address",
          "name": "borrower",
          "type": "address"
        }
      ],
      "name": "LogRegisterMember",
      "type": "event"
    },
    {
      "anonymous": false,
      "inputs": [
        {
          "indexed": true,
          "internalType": "address",
          "name": "account",
          "type": "address"
        },
        {
          "indexed": false,
          "internalType": "uint256",
          "name": "amount",
          "type": "uint256"
        }
      ],
      "name": "LogStake",
      "type": "event"
    },
    {
      "anonymous": false,
      "inputs": [
        {
          "indexed": true,
          "internalType": "address",
          "name": "account",
          "type": "address"
        },
        {
          "indexed": false,
          "internalType": "uint256",
          "name": "amount",
          "type": "uint256"
        }
      ],
      "name": "LogUnstake",
      "type": "event"
    },
    {
      "anonymous": false,
      "inputs": [
        {
          "indexed": true,
          "internalType": "address",
          "name": "staker",
          "type": "address"
        },
        {
          "indexed": true,
          "internalType": "address",
          "name": "borrower",
          "type": "address"
        },
        {
          "indexed": false,
          "internalType": "uint256",
          "name": "trustAmount",
          "type": "uint256"
        }
      ],
      "name": "LogUpdateTrust",
      "type": "event"
    },
    {
      "anonymous": false,
      "inputs": [
        {
          "indexed": false,
          "internalType": "address",
          "name": "account",
          "type": "address"
        }
      ],
      "name": "Paused",
      "type": "event"
    },
    {
      "anonymous": false,
      "inputs": [
        {
          "indexed": true,
          "internalType": "bytes32",
          "name": "role",
          "type": "bytes32"
        },
        {
          "indexed": true,
          "internalType": "bytes32",
          "name": "previousAdminRole",
          "type": "bytes32"
        },
        {
          "indexed": true,
          "internalType": "bytes32",
          "name": "newAdminRole",
          "type": "bytes32"
        }
      ],
      "name": "RoleAdminChanged",
      "type": "event"
    },
    {
      "anonymous": false,
      "inputs": [
        {
          "indexed": true,
          "internalType": "bytes32",
          "name": "role",
          "type": "bytes32"
        },
        {
          "indexed": true,
          "internalType": "address",
          "name": "account",
          "type": "address"
        },
        {
          "indexed": true,
          "internalType": "address",
          "name": "sender",
          "type": "address"
        }
      ],
      "name": "RoleGranted",
      "type": "event"
    },
    {
      "anonymous": false,
      "inputs": [
        {
          "indexed": true,
          "internalType": "bytes32",
          "name": "role",
          "type": "bytes32"
        },
        {
          "indexed": true,
          "internalType": "address",
          "name": "account",
          "type": "address"
        },
        {
          "indexed": true,
          "internalType": "address",
          "name": "sender",
          "type": "address"
        }
      ],
      "name": "RoleRevoked",
      "type": "event"
    },
    {
      "anonymous": false,
      "inputs": [
        {
          "indexed": false,
          "internalType": "address",
          "name": "account",
          "type": "address"
        }
      ],
      "name": "Unpaused",
      "type": "event"
    },
    {
      "anonymous": false,
      "inputs": [
        {
          "indexed": true,
          "internalType": "address",
          "name": "implementation",
          "type": "address"
        }
      ],
      "name": "Upgraded",
      "type": "event"
    },
    {
      "inputs": [],
      "name": "DEFAULT_ADMIN_ROLE",
      "outputs": [
        {
          "internalType": "bytes32",
          "name": "",
          "type": "bytes32"
        }
      ],
      "stateMutability": "view",
      "type": "function"
    },
    {
      "inputs": [],
      "name": "MAX_STAKE_AMOUNT",
      "outputs": [
        {
          "internalType": "uint256",
          "name": "",
          "type": "uint256"
        }
      ],
      "stateMutability": "view",
      "type": "function"
    },
    {
      "inputs": [],
      "name": "MAX_TRUST_LIMIT",
      "outputs": [
        {
          "internalType": "uint256",
          "name": "",
          "type": "uint256"
        }
      ],
      "stateMutability": "view",
      "type": "function"
    },
    {
      "inputs": [],
      "name": "ROLE_ADMIN",
      "outputs": [
        {
          "internalType": "bytes32",
          "name": "",
          "type": "bytes32"
        }
      ],
      "stateMutability": "view",
      "type": "function"
    },
    {
      "inputs": [
        {
          "internalType": "address",
          "name": "admin_",
          "type": "address"
        }
      ],
      "name": "__Controller_init",
      "outputs": [],
      "stateMutability": "nonpayable",
      "type": "function"
    },
    {
      "inputs": [
        {
          "internalType": "address",
          "name": "assetManager_",
          "type": "address"
        },
        {
          "internalType": "address",
          "name": "unionToken_",
          "type": "address"
        },
        {
          "internalType": "address",
          "name": "stakingToken_",
          "type": "address"
        },
        {
          "internalType": "address",
          "name": "creditLimitModel_",
          "type": "address"
        },
        {
          "internalType": "address",
          "name": "comptroller_",
          "type": "address"
        },
        {
          "internalType": "address",
          "name": "admin_",
          "type": "address"
        }
      ],
      "name": "__UserManager_init",
      "outputs": [],
      "stateMutability": "nonpayable",
      "type": "function"
    },
    {
      "inputs": [
        {
          "internalType": "address",
          "name": "account",
          "type": "address"
        }
      ],
      "name": "addAdmin",
      "outputs": [],
      "stateMutability": "nonpayable",
      "type": "function"
    },
    {
      "inputs": [
        {
          "internalType": "address",
          "name": "account",
          "type": "address"
        }
      ],
      "name": "addMember",
      "outputs": [],
      "stateMutability": "nonpayable",
      "type": "function"
    },
    {
      "inputs": [],
      "name": "assetManager",
      "outputs": [
        {
          "internalType": "address",
          "name": "",
          "type": "address"
        }
      ],
      "stateMutability": "view",
      "type": "function"
    },
    {
      "inputs": [
        {
          "internalType": "address",
          "name": "staker",
          "type": "address"
        },
        {
          "internalType": "address",
          "name": "borrower",
          "type": "address"
        }
      ],
      "name": "cancelVouch",
      "outputs": [],
      "stateMutability": "nonpayable",
      "type": "function"
    },
    {
      "inputs": [
        {
          "internalType": "address",
          "name": "account",
          "type": "address"
        }
      ],
      "name": "checkIsMember",
      "outputs": [
        {
          "internalType": "bool",
          "name": "",
          "type": "bool"
        }
      ],
      "stateMutability": "view",
      "type": "function"
    },
    {
      "inputs": [],
      "name": "comptroller",
      "outputs": [
        {
          "internalType": "contract IComptroller",
          "name": "",
          "type": "address"
        }
      ],
      "stateMutability": "view",
      "type": "function"
    },
    {
      "inputs": [],
      "name": "creditLimitModel",
      "outputs": [
        {
          "internalType": "contract ICreditLimitModel",
          "name": "",
          "type": "address"
        }
      ],
      "stateMutability": "view",
      "type": "function"
    },
    {
      "inputs": [
        {
          "internalType": "address",
          "name": "borrower",
          "type": "address"
        },
        {
          "internalType": "uint256",
          "name": "amount",
          "type": "uint256"
        }
      ],
      "name": "debtWriteOff",
      "outputs": [],
      "stateMutability": "nonpayable",
      "type": "function"
    },
    {
      "inputs": [
        {
          "internalType": "address",
          "name": "account",
          "type": "address"
        }
      ],
      "name": "getBorrowerAddresses",
      "outputs": [
        {
          "internalType": "address[]",
          "name": "",
          "type": "address[]"
        }
      ],
      "stateMutability": "view",
      "type": "function"
    },
    {
      "inputs": [
        {
          "internalType": "address",
          "name": "account",
          "type": "address"
        },
        {
          "internalType": "address",
          "name": "borrower",
          "type": "address"
        }
      ],
      "name": "getBorrowerAsset",
      "outputs": [
        {
          "internalType": "uint256",
          "name": "trustAmount",
          "type": "uint256"
        },
        {
          "internalType": "uint256",
          "name": "vouchingAmount",
          "type": "uint256"
        },
        {
          "internalType": "uint256",
          "name": "lockedStake",
          "type": "uint256"
        }
      ],
      "stateMutability": "view",
      "type": "function"
    },
    {
      "inputs": [
        {
          "internalType": "address",
          "name": "borrower",
          "type": "address"
        }
      ],
      "name": "getCreditLimit",
      "outputs": [
        {
          "internalType": "int256",
          "name": "",
          "type": "int256"
        }
      ],
      "stateMutability": "view",
      "type": "function"
    },
    {
      "inputs": [
        {
          "internalType": "address",
          "name": "staker",
          "type": "address"
        },
        {
          "internalType": "uint256",
          "name": "pastBlocks",
          "type": "uint256"
        }
      ],
      "name": "getFrozenCoinAge",
      "outputs": [
        {
          "internalType": "uint256",
          "name": "",
          "type": "uint256"
        }
      ],
      "stateMutability": "view",
      "type": "function"
    },
    {
      "inputs": [
        {
          "internalType": "address",
          "name": "staker",
          "type": "address"
        },
        {
          "internalType": "address",
          "name": "borrower",
          "type": "address"
        }
      ],
      "name": "getLockedStake",
      "outputs": [
        {
          "internalType": "uint256",
          "name": "",
          "type": "uint256"
        }
      ],
      "stateMutability": "view",
      "type": "function"
    },
    {
      "inputs": [
        {
          "internalType": "bytes32",
          "name": "role",
          "type": "bytes32"
        }
      ],
      "name": "getRoleAdmin",
      "outputs": [
        {
          "internalType": "bytes32",
          "name": "",
          "type": "bytes32"
        }
      ],
      "stateMutability": "view",
      "type": "function"
    },
    {
      "inputs": [
        {
          "internalType": "address",
          "name": "account",
          "type": "address"
        }
      ],
      "name": "getStakerAddresses",
      "outputs": [
        {
          "internalType": "address[]",
          "name": "",
          "type": "address[]"
        }
      ],
      "stateMutability": "view",
      "type": "function"
    },
    {
      "inputs": [
        {
          "internalType": "address",
          "name": "account",
          "type": "address"
        },
        {
          "internalType": "address",
          "name": "staker",
          "type": "address"
        }
      ],
      "name": "getStakerAsset",
      "outputs": [
        {
          "internalType": "uint256",
          "name": "trustAmount",
          "type": "uint256"
        },
        {
          "internalType": "uint256",
          "name": "vouchingAmount",
          "type": "uint256"
        },
        {
          "internalType": "uint256",
          "name": "lockedStake",
          "type": "uint256"
        }
      ],
      "stateMutability": "view",
      "type": "function"
    },
    {
      "inputs": [
        {
          "internalType": "address",
          "name": "account",
          "type": "address"
        }
      ],
      "name": "getStakerBalance",
      "outputs": [
        {
          "internalType": "uint256",
          "name": "",
          "type": "uint256"
        }
      ],
      "stateMutability": "view",
      "type": "function"
    },
    {
      "inputs": [
        {
          "internalType": "address",
          "name": "staker",
          "type": "address"
        }
      ],
      "name": "getTotalFrozenAmount",
      "outputs": [
        {
          "internalType": "uint256",
          "name": "",
          "type": "uint256"
        }
      ],
      "stateMutability": "view",
      "type": "function"
    },
    {
      "inputs": [
        {
          "internalType": "address",
          "name": "staker",
          "type": "address"
        }
      ],
      "name": "getTotalLockedStake",
      "outputs": [
        {
          "internalType": "uint256",
          "name": "",
          "type": "uint256"
        }
      ],
      "stateMutability": "view",
      "type": "function"
    },
    {
      "inputs": [
        {
          "internalType": "address",
          "name": "staker",
          "type": "address"
        },
        {
          "internalType": "address",
          "name": "borrower",
          "type": "address"
        }
      ],
      "name": "getVouchingAmount",
      "outputs": [
        {
          "internalType": "uint256",
          "name": "",
          "type": "uint256"
        }
      ],
      "stateMutability": "view",
      "type": "function"
    },
    {
      "inputs": [
        {
          "internalType": "bytes32",
          "name": "role",
          "type": "bytes32"
        },
        {
          "internalType": "address",
          "name": "account",
          "type": "address"
        }
      ],
      "name": "grantRole",
      "outputs": [],
      "stateMutability": "nonpayable",
      "type": "function"
    },
    {
      "inputs": [
        {
          "internalType": "bytes32",
          "name": "role",
          "type": "bytes32"
        },
        {
          "internalType": "address",
          "name": "account",
          "type": "address"
        }
      ],
      "name": "hasRole",
      "outputs": [
        {
          "internalType": "bool",
          "name": "",
          "type": "bool"
        }
      ],
      "stateMutability": "view",
      "type": "function"
    },
    {
      "inputs": [
        {
          "internalType": "address",
          "name": "account",
          "type": "address"
        }
      ],
      "name": "isAdmin",
      "outputs": [
        {
          "internalType": "bool",
          "name": "",
          "type": "bool"
        }
      ],
      "stateMutability": "view",
      "type": "function"
    },
    {
      "inputs": [
        {
          "internalType": "address",
          "name": "",
          "type": "address"
        }
      ],
      "name": "memberFrozen",
      "outputs": [
        {
          "internalType": "uint256",
          "name": "",
          "type": "uint256"
        }
      ],
      "stateMutability": "view",
      "type": "function"
    },
    {
      "inputs": [],
      "name": "newMemberFee",
      "outputs": [
        {
          "internalType": "uint256",
          "name": "",
          "type": "uint256"
        }
      ],
      "stateMutability": "view",
      "type": "function"
    },
    {
      "inputs": [],
      "name": "pause",
      "outputs": [],
      "stateMutability": "nonpayable",
      "type": "function"
    },
    {
      "inputs": [],
      "name": "pauseGuardian",
      "outputs": [
        {
          "internalType": "address",
          "name": "",
          "type": "address"
        }
      ],
      "stateMutability": "view",
      "type": "function"
    },
    {
      "inputs": [],
      "name": "paused",
      "outputs": [
        {
          "internalType": "bool",
          "name": "",
          "type": "bool"
        }
      ],
      "stateMutability": "view",
      "type": "function"
    },
    {
      "inputs": [
        {
          "internalType": "address",
          "name": "newMember",
          "type": "address"
        }
      ],
      "name": "registerMember",
      "outputs": [],
      "stateMutability": "nonpayable",
      "type": "function"
    },
    {
      "inputs": [
        {
          "internalType": "address",
          "name": "newMember",
          "type": "address"
        },
        {
          "internalType": "uint256",
          "name": "value",
          "type": "uint256"
        },
        {
          "internalType": "uint256",
          "name": "deadline",
          "type": "uint256"
        },
        {
          "internalType": "uint8",
          "name": "v",
          "type": "uint8"
        },
        {
          "internalType": "bytes32",
          "name": "r",
          "type": "bytes32"
        },
        {
          "internalType": "bytes32",
          "name": "s",
          "type": "bytes32"
        }
      ],
      "name": "registerMemberWithPermit",
      "outputs": [],
      "stateMutability": "nonpayable",
      "type": "function"
    },
    {
      "inputs": [],
      "name": "renounceAdmin",
      "outputs": [],
      "stateMutability": "nonpayable",
      "type": "function"
    },
    {
      "inputs": [
        {
          "internalType": "bytes32",
          "name": "role",
          "type": "bytes32"
        },
        {
          "internalType": "address",
          "name": "account",
          "type": "address"
        }
      ],
      "name": "renounceRole",
      "outputs": [],
      "stateMutability": "nonpayable",
      "type": "function"
    },
    {
      "inputs": [
        {
          "internalType": "address",
          "name": "account",
          "type": "address"
        },
        {
          "internalType": "address",
          "name": "token",
          "type": "address"
        },
        {
          "internalType": "uint256",
          "name": "lastRepay",
          "type": "uint256"
        }
      ],
      "name": "repayLoanOverdue",
      "outputs": [],
      "stateMutability": "nonpayable",
      "type": "function"
    },
    {
      "inputs": [
        {
          "internalType": "bytes32",
          "name": "role",
          "type": "bytes32"
        },
        {
          "internalType": "address",
          "name": "account",
          "type": "address"
        }
      ],
      "name": "revokeRole",
      "outputs": [],
      "stateMutability": "nonpayable",
      "type": "function"
    },
    {
      "inputs": [
        {
          "internalType": "address",
          "name": "newCreditLimitModel",
          "type": "address"
        }
      ],
      "name": "setCreditLimitModel",
      "outputs": [],
      "stateMutability": "nonpayable",
      "type": "function"
    },
    {
      "inputs": [
        {
          "internalType": "address",
          "name": "account",
          "type": "address"
        }
      ],
      "name": "setGuardian",
      "outputs": [],
      "stateMutability": "nonpayable",
      "type": "function"
    },
    {
      "inputs": [
        {
          "internalType": "uint256",
          "name": "amount",
          "type": "uint256"
        }
      ],
      "name": "setNewMemberFee",
      "outputs": [],
      "stateMutability": "nonpayable",
      "type": "function"
    },
    {
      "inputs": [
        {
          "internalType": "address",
          "name": "uToken_",
          "type": "address"
        }
      ],
      "name": "setUToken",
      "outputs": [],
      "stateMutability": "nonpayable",
      "type": "function"
    },
    {
      "inputs": [
        {
          "internalType": "uint256",
          "name": "amount",
          "type": "uint256"
        }
      ],
      "name": "stake",
      "outputs": [],
      "stateMutability": "nonpayable",
      "type": "function"
    },
    {
      "inputs": [
        {
          "internalType": "uint256",
          "name": "amount",
          "type": "uint256"
        },
        {
          "internalType": "uint256",
          "name": "nonce",
          "type": "uint256"
        },
        {
          "internalType": "uint256",
          "name": "expiry",
          "type": "uint256"
        },
        {
          "internalType": "uint8",
          "name": "v",
          "type": "uint8"
        },
        {
          "internalType": "bytes32",
          "name": "r",
          "type": "bytes32"
        },
        {
          "internalType": "bytes32",
          "name": "s",
          "type": "bytes32"
        }
      ],
      "name": "stakeWithPermit",
      "outputs": [],
      "stateMutability": "nonpayable",
      "type": "function"
    },
    {
      "inputs": [
        {
          "internalType": "address",
          "name": "",
          "type": "address"
        }
      ],
      "name": "stakers",
      "outputs": [
        {
          "internalType": "uint256",
          "name": "",
          "type": "uint256"
        }
      ],
      "stateMutability": "view",
      "type": "function"
    },
    {
      "inputs": [],
      "name": "stakingToken",
      "outputs": [
        {
          "internalType": "address",
          "name": "",
          "type": "address"
        }
      ],
      "stateMutability": "view",
      "type": "function"
    },
    {
      "inputs": [
        {
          "internalType": "bytes4",
          "name": "interfaceId",
          "type": "bytes4"
        }
      ],
      "name": "supportsInterface",
      "outputs": [
        {
          "internalType": "bool",
          "name": "",
          "type": "bool"
        }
      ],
      "stateMutability": "view",
      "type": "function"
    },
    {
      "inputs": [],
      "name": "totalFrozen",
      "outputs": [
        {
          "internalType": "uint256",
          "name": "",
          "type": "uint256"
        }
      ],
      "stateMutability": "view",
      "type": "function"
    },
    {
      "inputs": [],
      "name": "totalStaked",
      "outputs": [
        {
          "internalType": "uint256",
          "name": "",
          "type": "uint256"
        }
      ],
      "stateMutability": "view",
      "type": "function"
    },
    {
      "inputs": [],
      "name": "uToken",
      "outputs": [
        {
          "internalType": "contract IUToken",
          "name": "",
          "type": "address"
        }
      ],
      "stateMutability": "view",
      "type": "function"
    },
    {
      "inputs": [],
      "name": "unionToken",
      "outputs": [
        {
          "internalType": "address",
          "name": "",
          "type": "address"
        }
      ],
      "stateMutability": "view",
      "type": "function"
    },
    {
      "inputs": [],
      "name": "unpause",
      "outputs": [],
      "stateMutability": "nonpayable",
      "type": "function"
    },
    {
      "inputs": [
        {
          "internalType": "uint256",
          "name": "amount",
          "type": "uint256"
        }
      ],
      "name": "unstake",
      "outputs": [],
      "stateMutability": "nonpayable",
      "type": "function"
    },
    {
      "inputs": [
        {
          "internalType": "address",
          "name": "borrower",
          "type": "address"
        },
        {
          "internalType": "uint256",
          "name": "amount",
          "type": "uint256"
        },
        {
          "internalType": "bool",
          "name": "isBorrow",
          "type": "bool"
        }
      ],
      "name": "updateLockedData",
      "outputs": [],
      "stateMutability": "nonpayable",
      "type": "function"
    },
    {
      "inputs": [
        {
          "internalType": "address",
          "name": "account",
          "type": "address"
        },
        {
          "internalType": "bool",
          "name": "isOverdue",
          "type": "bool"
        }
      ],
      "name": "updateTotalFrozen",
      "outputs": [],
      "stateMutability": "nonpayable",
      "type": "function"
    },
    {
      "inputs": [
        {
          "internalType": "address",
          "name": "borrower_",
          "type": "address"
        },
        {
          "internalType": "uint256",
          "name": "trustAmount",
          "type": "uint256"
        }
      ],
      "name": "updateTrust",
      "outputs": [],
      "stateMutability": "nonpayable",
      "type": "function"
    },
    {
      "inputs": [
        {
          "internalType": "address",
          "name": "newImplementation",
          "type": "address"
        }
      ],
      "name": "upgradeTo",
      "outputs": [],
      "stateMutability": "nonpayable",
      "type": "function"
    },
    {
      "inputs": [
        {
          "internalType": "address",
          "name": "newImplementation",
          "type": "address"
        },
        {
          "internalType": "bytes",
          "name": "data",
          "type": "bytes"
        }
      ],
      "name": "upgradeToAndCall",
      "outputs": [],
      "stateMutability": "payable",
      "type": "function"
    },
    {
      "inputs": [],
      "name": "withdrawRewards",
      "outputs": [],
      "stateMutability": "nonpayable",
      "type": "function"
    }
  ],
  "transactionHash": "0xfa9c4108b2d4c4d62a7ded516039114cc698e1b3f6db26f3f92d2e25c5fbb780",
  "args": [],
  "solcInputHash": "815da1a7bd393b91c2edbc66164c6945",
  "bytecode": "0x608060405234801561001057600080fd5b50615bcf80620000216000396000f3fe6080604052600436106103a25760003560e01c806370480275116101e7578063b157bf031161010d578063dd2368c9116100a0578063f01584611161006f578063f015846114610b05578063f70222e114610b26578063fa84a8a314610b47578063fcb4888e14610b6757600080fd5b8063dd2368c914610a90578063dd63f76214610ab0578063eab2039e14610ad0578063eb14845914610ae557600080fd5b8063c7b8981c116100dc578063c7b8981c14610a19578063ca6d56dc14610a2e578063d391014b14610a4e578063d547741f14610a7057600080fd5b8063b157bf0314610971578063b40d57fd146109ac578063b6a93faf146109cc578063b8845f75146109f957600080fd5b80638bad0c0a116101855780639f3da8ef116101545780639f3da8ef146108fc578063a217fddf1461091c578063a694fc3a14610931578063ab4ffaa91461095157600080fd5b80638bad0c0a146108785780639168ae721461088d57806391d14854146108bb57806394217ad1146108db57600080fd5b8063817b1cd2116101c1578063817b1cd21461080c5780638456cb591461082357806385bde8f2146108385780638a0dac4a1461085857600080fd5b806370480275146107ab5780637223325d146107cb57806372f702f3146107eb57600080fd5b80633659cfe6116102cc578063574dadba1161026a57806363315637116102395780636331563714610733578063644214f61461075457806364a118a11461076b5780636c461a731461078b57600080fd5b8063574dadba146106ba578063591d637d146106da5780635c975abb146106fa5780635fe3b5671461071257600080fd5b80633feaf532116102a65780633feaf5321461064757806343fbb8f5146106675780634f1ef286146106875780635668b02e1461069a57600080fd5b80633659cfe6146105f257806337262d38146106125780633f4ba83a1461063257600080fd5b80632640d9db116103445780632e17de78116103135780632e17de78146105755780632f2ff15d146105955780632f92f1f2146105b557806336568abe146105d257600080fd5b80632640d9db146104d057806327a9626b14610507578063293512c5146105355780632c333e251461055557600080fd5b806321d2a5731161038057806321d2a57314610423578063248a9ca31461044357806324a3d6221461047357806324d7806c146104b057600080fd5b806301ffc9a7146103a75780630babf336146103dc5780631e7f87bc146103fe575b600080fd5b3480156103b357600080fd5b506103c76103c23660046155cb565b610b87565b60405190151581526020015b60405180910390f35b3480156103e857600080fd5b506103fc6103f73660046152c9565b610bbe565b005b34801561040a57600080fd5b506104156101695481565b6040519081526020016103d3565b34801561042f57600080fd5b506103c761043e3660046152c9565b610c07565b34801561044f57600080fd5b5061041561045e366004615591565b600090815260c9602052604090206001015490565b34801561047f57600080fd5b5060fc546104989061010090046001600160a01b031681565b6040516001600160a01b0390911681526020016103d3565b3480156104bc57600080fd5b506103c76104cb3660046152c9565b610c26565b3480156104dc57600080fd5b506104156104eb3660046152c9565b6001600160a01b0316600090815261016b602052604090205490565b34801561051357600080fd5b506104156105223660046152c9565b61016c6020526000908152604090205481565b34801561054157600080fd5b506103fc610550366004615388565b610c40565b34801561056157600080fd5b506104156105703660046152c9565b610d84565b34801561058157600080fd5b506103fc610590366004615591565b611295565b3480156105a157600080fd5b506103fc6105b03660046155a9565b61156d565b3480156105c157600080fd5b50610415683635c9adc5dea0000081565b3480156105de57600080fd5b506103fc6105ed3660046155a9565b611598565b3480156105fe57600080fd5b506103fc61060d3660046152c9565b611616565b34801561061e57600080fd5b5061041561062d3660046152c9565b61163a565b34801561063e57600080fd5b506103fc6117eb565b34801561065357600080fd5b506103fc61066236600461551e565b6118a5565b34801561067357600080fd5b506103fc6106823660046154b6565b611965565b6103fc6106953660046153f9565b611ed4565b3480156106a657600080fd5b506103fc6106b536600461560b565b611ee9565b3480156106c657600080fd5b506104156106d53660046152c9565b611fa8565b3480156106e657600080fd5b506103fc6106f53660046153c3565b6120aa565b34801561070657600080fd5b5060fc5460ff166103c7565b34801561071e57600080fd5b5061016654610498906001600160a01b031681565b34801561073f57600080fd5b5061016454610498906001600160a01b031681565b34801561076057600080fd5b506104156101675481565b34801561077757600080fd5b506103fc6107863660046152c9565b612111565b34801561079757600080fd5b506103fc6107a63660046152c9565b612168565b3480156107b757600080fd5b506103fc6107c63660046152c9565b612298565b3480156107d757600080fd5b506104156107e63660046152e3565b6123d0565b3480156107f757600080fd5b5061016154610498906001600160a01b031681565b34801561081857600080fd5b506104156101685481565b34801561082f57600080fd5b506103fc612425565b34801561084457600080fd5b506103fc6108533660046152e3565b6124b4565b34801561086457600080fd5b506103fc6108733660046152c9565b6129cd565b34801561088457600080fd5b506103fc612a29565b34801561089957600080fd5b506104156108a83660046152c9565b61016b6020526000908152604090205481565b3480156108c757600080fd5b506103c76108d63660046155a9565b612a60565b3480156108e757600080fd5b5061016354610498906001600160a01b031681565b34801561090857600080fd5b506103fc610917366004615315565b612a8b565b34801561092857600080fd5b50610415600081565b34801561093d57600080fd5b506103fc61094c366004615591565b612b71565b34801561095d57600080fd5b506103fc61096c3660046154df565b612f29565b34801561097d57600080fd5b5061099161098c3660046152e3565b613311565b604080519384526020840192909252908201526060016103d3565b3480156109b857600080fd5b506109916109c73660046152e3565b61335f565b3480156109d857600080fd5b506109ec6109e73660046152c9565b6133a4565b6040516103d391906156d2565b348015610a0557600080fd5b506103fc610a143660046154b6565b61341e565b348015610a2557600080fd5b506103fc61399f565b348015610a3a57600080fd5b506103fc610a493660046152c9565b613ad5565b348015610a5a57600080fd5b50610415600080516020615b5383398151915281565b348015610a7c57600080fd5b506103fc610a8b3660046155a9565b613b8b565b348015610a9c57600080fd5b50610415610aab3660046152e3565b613bb1565b348015610abc57600080fd5b50610415610acb3660046154b6565b613be1565b348015610adc57600080fd5b50610415606481565b348015610af157600080fd5b506109ec610b003660046152c9565b613d9c565b348015610b1157600080fd5b5061016554610498906001600160a01b031681565b348015610b3257600080fd5b5061016254610498906001600160a01b031681565b348015610b5357600080fd5b506103fc610b62366004615591565b613e14565b348015610b7357600080fd5b506103fc610b823660046152c9565b613e4e565b60006001600160e01b03198216637965db0b60e01b1480610bb857506301ffc9a760e01b6001600160e01b03198316145b92915050565b610bd6600080516020615b5383398151915233612a60565b610bfb5760405162461bcd60e51b8152600401610bf2906158b5565b60405180910390fd5b610c04816141d6565b50565b6001600160a01b0316600090815261016a602052604090205460ff1690565b6000610bb8600080516020615b5383398151915283612a60565b60fc5460ff1615610c635760405162461bcd60e51b8152600401610bf290615a01565b610164546001600160a01b0316331480610c815750610c8133610c26565b610c9d5760405162461bcd60e51b8152600401610bf290615814565b6000610ca8846133a4565b905060005b8151811015610d7d576000828281518110610cd857634e487b7160e01b600052603260045260246000fd5b602002602001015190506000610cee878361335f565b61016654604051635525631360e01b81526001600160a01b0387811660048301528b8116602483015260448201849052606482018b90529295509116925063552563139150608401600060405180830381600087803b158015610d5057600080fd5b505af1158015610d64573d6000803e3d6000fd5b5050505050508080610d7590615afd565b915050610cad565b5050505050565b6000610d8e615247565b6001600160a01b038316600090815261016a602090815260409182902060040180548351818402810184019094528084529091830182828015610dfa57602002820191906000526020600020905b81546001600160a01b03168152600190910190602001808311610ddc575b5050508284525050600060408301819052905167ffffffffffffffff811115610e3357634e487b7160e01b600052604160045260246000fd5b604051908082528060200260200182016040528015610e5c578160200160208202803683370190505b50905060005b8251518110156110b4578251805182908110610e8e57634e487b7160e01b600052603260045260246000fd5b6020908102919091018101516001600160a01b031660608501818152600091825261016b909252604090205460a085015251610eca90866123d0565b60808401819052156110a257610ee38360600151613d9c565b602084015260a083015160c08401526060830151600090610f0390611fa8565b9050808460a0015111610f1c57600060c0850152610f32565b808460a00151610f2c9190615aa3565b60c08501525b610f40846060015187613bb1565b60e0850181905260808501511015610fb85760405162461bcd60e51b815260206004820152603560248201527f557365724d616e616765723a20766f756368696e67416d6f756e74206f72206c60448201527437b1b5b2b229ba30b5b2903230ba309032b93937b960591b6064820152608401610bf2565b8360e001518460c00151610fcc9190615a2d565b846080015110611010578360c0015183856040015181518110610fff57634e487b7160e01b600052603260045260246000fd5b60200260200101818152505061108a565b8360e0015184608001511161104557600083856040015181518110610fff57634e487b7160e01b600052603260045260246000fd5b8360e0015184608001516110599190615aa3565b8385604001518151811061107d57634e487b7160e01b600052603260045260246000fd5b6020026020010181815250505b60018460400181815161109d9190615a2d565b905250505b806110ac81615afd565b915050610e62565b506000826040015167ffffffffffffffff8111156110e257634e487b7160e01b600052604160045260246000fd5b60405190808252806020026020018201604052801561110b578160200160208202803683370190505b50905060005b83604001518110156111825782818151811061113d57634e487b7160e01b600052603260045260246000fd5b602002602001015182828151811061116557634e487b7160e01b600052603260045260246000fd5b60209081029190910101528061117a81615afd565b915050611111565b5061016454604051630da5a3cb60e31b81526001600160a01b03878116600483015290911690636d2d1e589060240160206040518083038186803b1580156111c957600080fd5b505afa1580156111dd573d6000803e3d6000fd5b505050506040513d601f19601f8201168201806040525081019061120191906155f3565b61016554604051634c9cc67360e01b81526001600160a01b0390911690634c9cc673906112329085906004016157a9565b60206040518083038186803b15801561124a57600080fd5b505afa15801561125e573d6000803e3d6000fd5b505050506040513d601f19601f8201168201806040525081019061128291906155f3565b61128c9190615a64565b95945050505050565b60fc5460ff16156112b85760405162461bcd60e51b8152600401610bf290615a01565b600261012f5414156112dc5760405162461bcd60e51b8152600401610bf2906159ca565b600261012f556101615433600081815261016b60205260409020546001600160a01b039092169190839061130f90611fa8565b6113199083615aa3565b101561137c5760405162461bcd60e51b815260206004820152602c60248201527f557365724d616e616765723a20756e7374616b652062616c616e63652069732060448201526b1a5b9cdd59999a58da595b9d60a21b6064820152608401610bf2565b6101665461016154604051637104c0e560e11b81523360048201526001600160a01b03918216602482015291169063e20981ca90604401602060405180830381600087803b1580156113cd57600080fd5b505af11580156113e1573d6000803e3d6000fd5b505050506040513d601f19601f8201168201806040525081019061140591906155f3565b506114108382615aa3565b33600090815261016b60205260408120919091556101688054859290611437908490615aa3565b90915550506101635461016154604051636ce5768960e11b81526001600160a01b0391821660048201523060248201526044810186905291169063d9caed1290606401602060405180830381600087803b15801561149457600080fd5b505af11580156114a8573d6000803e3d6000fd5b505050506040513d601f19601f820116820180604052508101906114cc9190615575565b6115185760405162461bcd60e51b815260206004820152601c60248201527f557365724d616e616765723a207769746864726177206661696c6564000000006044820152606401610bf2565b61152c6001600160a01b03831633856142fc565b60405183815233907faf14da4c9c7eeb91ef462950405340d31988005c789d867d3a1394f082105e89906020015b60405180910390a25050600161012f5550565b600082815260c96020526040902060010154611589813361435f565b61159383836143c3565b505050565b6001600160a01b03811633146116085760405162461bcd60e51b815260206004820152602f60248201527f416363657373436f6e74726f6c3a2063616e206f6e6c792072656e6f756e636560448201526e103937b632b9903337b91039b2b63360891b6064820152608401610bf2565b6116128282614449565b5050565b61161f816144b0565b610c04816040518060200160405280600081525060006144e4565b6000611644615247565b6001600160a01b038316600090815261016a60209081526040808320600201805482518185028101850190935280835291929091908301828280156116b257602002820191906000526020600020905b81546001600160a01b03168152600190910190602001808311611694575b50505050602080850192909252506001600160a01b038516600090815261016b909152604081205460a0840152805b8360200151518110156117cb578360200151818151811061171257634e487b7160e01b600052603260045260246000fd5b602090810291909101015161016454604051634da9983d60e11b81526001600160a01b038084166004830152929450911690639b53307a9060240160206040518083038186803b15801561176557600080fd5b505afa158015611779573d6000803e3d6000fd5b505050506040513d601f19601f8201168201806040525081019061179d9190615575565b156117b9576117ac8683613bb1565b6117b69084615a2d565b92505b806117c381615afd565b9150506116e1565b50818360a00151106117df57509392505050565b505060a0015192915050565b60fc5461010090046001600160a01b0316331461181a5760405162461bcd60e51b8152600401610bf2906158e4565b60fc5460ff166118655760405162461bcd60e51b815260206004820152601660248201527510dbdb9d1c9bdb1b195c8e881b9bdd081c185d5cd95960521b6044820152606401610bf2565b60fc805460ff191690556040513381527f5db9ee0a495bf2e6ff9c91a7834c1ba4fdd244a5e8aa4e537bd38aeae4b073aa906020015b60405180910390a1565b60fc5460ff16156118c85760405162461bcd60e51b8152600401610bf290615a01565b6101625460405163d505accf60e01b8152336004820152306024820152604481018790526064810186905260ff8516608482015260a4810184905260c481018390526001600160a01b0390911690819063d505accf9060e401600060405180830381600087803b15801561193b57600080fd5b505af115801561194f573d6000803e3d6000fd5b5050505061195c87613e4e565b50505050505050565b3361196f81610c07565b61198b5760405162461bcd60e51b8152600401610bf290615864565b60fc5460ff16156119ae5760405162461bcd60e51b8152600401610bf290615a01565b6001600160a01b038316611a045760405162461bcd60e51b815260206004820152601760248201527f626f72726f7765722063616e6e6f74206265207a65726f0000000000000000006044820152606401610bf2565b82611a0d615247565b33606082018190526001600160a01b0383161415611a775760405162461bcd60e51b815260206004820152602160248201527f557365724d616e616765723a2043616e277420766f75636820666f722073656c6044820152603360f91b6064820152608401610bf2565b6001600160a01b038216600090815261016a60205260409020600401546064118015611ac3575060608101516001600160a01b0316600090815261016a60205260409020600201546064115b611b0f5760405162461bcd60e51b815260206004820152601e60248201527f557365724d616e616765723a207472757374207265616368206c696d697400006044820152606401610bf2565b60608101516001600160a01b0316600090815261016a602090815260409182902060020180548351818402810184019094528084529091830182828015611b7f57602002820191906000526020600020905b81546001600160a01b03168152600190910190602001808311611b61575b50505050602080840192909252506001600160a01b038316600090815261016a825260409081902060040180548251818502810185019093528083529192909190830182828015611bf957602002820191906000526020600020905b81546001600160a01b03168152600190910190602001808311611bdb575b50505091835250506060810151611c109083613bb1565b60e08201819052841015611c8e576040805162461bcd60e51b81526020600482015260248101919091527f557365724d616e616765723a20747275737420616d6f756e742063616e6e6f7460448201527f206265206c657373207468616e20746865206c6f636b656420616d6f756e74206064820152608401610bf2565b60608101516001600160a01b0316600090815261016a602052604081206002015490805b82811015611d1657846001600160a01b031684602001518281518110611ce857634e487b7160e01b600052603260045260246000fd5b60200260200101516001600160a01b03161415611d0457600191505b80611d0e81615afd565b915050611cb2565b506001600160a01b038416600090815261016a602052604081206004015490805b82811015611d9f5785606001516001600160a01b031686600001518281518110611d7157634e487b7160e01b600052603260045260246000fd5b60200260200101516001600160a01b03161415611d8d57600191505b80611d9781615afd565b915050611d37565b5082611ded5760608501516001600160a01b03908116600090815261016a602090815260408220600201805460018101825590835291200180546001600160a01b0319169188169190911790555b80611e3c576001600160a01b03868116600090815261016a602090815260408220606089015160049091018054600181018255908452919092200180546001600160a01b031916919092161790555b6060850180516001600160a01b03908116600090815261016a602081815260408084208c8616808652600190910183528185208f9055928252808420865186168552600301909152918290208c9055925190519116907f6726f80fa910f3db24051175cda8d3c2af86b536cc2b137c1dbbf83136fe7c5c90611ec1908c815260200190565b60405180910390a3505050505050505050565b611edd826144b0565b611612828260016144e4565b60fc5460ff1615611f0c5760405162461bcd60e51b8152600401610bf290615a01565b610161546040516323f2ebc360e21b815233600482015230602482015260448101879052606481018690526001608482015260ff851660a482015260c4810184905260e481018390526001600160a01b03909116908190638fcbaf0c9061010401600060405180830381600087803b158015611f8757600080fd5b505af1158015611f9b573d6000803e3d6000fd5b5050505061195c87612b71565b6001600160a01b038116600090815261016b602090815260408083205461016a835281842060020180548351818602810186019094528084528594929385939092919083018282801561202457602002820191906000526020600020905b81546001600160a01b03168152600190910190602001808311612006575b50505050509050600080600090505b825181101561208e5782818151811061205c57634e487b7160e01b600052603260045260246000fd5b602002602001015191506120708783613bb1565b61207a9086615a2d565b94508061208681615afd565b915050612033565b508383106120a0575091949350505050565b5090949350505050565b610164546001600160a01b03163314806120c857506120c833610c26565b6120e45760405162461bcd60e51b8152600401610bf290615814565b60fc5460ff16156121075760405162461bcd60e51b8152600401610bf290615a01565b6116128282614665565b612129600080516020615b5383398151915233612a60565b6121455760405162461bcd60e51b8152600401610bf2906158b5565b61016480546001600160a01b0319166001600160a01b0392909216919091179055565b600054610100900460ff1680612181575060005460ff16155b61219d5760405162461bcd60e51b8152600401610bf290615936565b600054610100900460ff161580156121bf576000805461ffff19166101011790555b6001600160a01b0382166122105760405162461bcd60e51b8152602060048201526018602482015277436f6e74726f6c6c65723a2061646472657373207a65726f60401b6044820152606401610bf2565b60fc805460ff191690556001600160a01b038216600081815260fb6020526040902080546001600160a01b031916909117905561224b61492c565b612263600080516020615b53833981519152836149a7565b60fc8054610100600160a81b0319166101006001600160a01b038516021790558015611612576000805461ff00191690555050565b6122b0600080516020615b5383398151915233612a60565b6122cc5760405162461bcd60e51b8152600401610bf2906158b5565b6001600160a01b03811661231d5760405162461bcd60e51b8152602060048201526018602482015277436f6e74726f6c6c65723a2061646472657373207a65726f60401b6044820152606401610bf2565b6001600160a01b03818116600090815260fb6020526040902054161561238f5760405162461bcd60e51b815260206004820152602160248201527f436f6e74726f6c6c65723a2061646d696e20616c7265616479206578697374656044820152601960fa1b6064820152608401610bf2565b6001600160a01b038116600081815260fb6020526040902080546001600160a01b0319169091179055610c04600080516020615b53833981519152826149a7565b6001600160a01b03808316600081815261016b6020908152604080832054948616835261016a825280832093835260039093019052908120549091908181111561241c57509050610bb8565b9150610bb89050565b60fc5461010090046001600160a01b031633146124545760405162461bcd60e51b8152600401610bf2906158e4565b60fc5460ff16156124775760405162461bcd60e51b8152600401610bf290615a01565b60fc805460ff191660011790556040513381527f62e78cea01bee320cd4e420270b5ea74000d11b0c9f74754ebdbfc544b05a2589060200161189b565b336124be81610c07565b6124da5760405162461bcd60e51b8152600401610bf290615864565b60fc5460ff16156124fd5760405162461bcd60e51b8152600401610bf290615a01565b336001600160a01b038416148061251c5750336001600160a01b038316145b61258e5760405162461bcd60e51b815260206004820152603b60248201527f557365724d616e616765723a2041636365707420636c61696d73206f6e6c792060448201527f66726f6d20746865207374616b6572206f7220626f72726f77657200000000006064820152608401610bf2565b6125988383613bb1565b156125f15760405162461bcd60e51b8152602060048201526024808201527f557365724d616e616765723a204c6f636b65645374616b65206973206e6f74206044820152637a65726f60e01b6064820152608401610bf2565b6001600160a01b038216600090815261016a60205260408120600401549080805b83811015612690576001600160a01b03868116600090815261016a602052604090206004018054918916918390811061265b57634e487b7160e01b600052603260045260246000fd5b6000918252602090912001546001600160a01b0316141561267e57600192508091505b8061268881615afd565b915050612612565b506001600160a01b038616600090815261016a60205260408120600201549080805b83811015612730576001600160a01b038a8116600090815261016a602052604090206002018054918b1691839081106126fb57634e487b7160e01b600052603260045260246000fd5b6000918252602090912001546001600160a01b0316141561271e57600192508091505b8061272881615afd565b9150506126b2565b508115612845576001600160a01b038916600090815261016a6020526040902060020161275e600185615aa3565b8154811061277c57634e487b7160e01b600052603260045260246000fd5b60009182526020808320909101546001600160a01b038c8116845261016a90925260409092206002018054919092169190839081106127cb57634e487b7160e01b600052603260045260246000fd5b600091825260208083209190910180546001600160a01b0319166001600160a01b03948516179055918b16815261016a9091526040902060020180548061282257634e487b7160e01b600052603160045260246000fd5b600082815260209020810160001990810180546001600160a01b03191690550190555b8415612959576001600160a01b038816600090815261016a60205260409020600401612872600188615aa3565b8154811061289057634e487b7160e01b600052603260045260246000fd5b60009182526020808320909101546001600160a01b038b8116845261016a90925260409092206004018054919092169190869081106128df57634e487b7160e01b600052603260045260246000fd5b600091825260208083209190910180546001600160a01b0319166001600160a01b03948516179055918a16815261016a9091526040902060040180548061293657634e487b7160e01b600052603160045260246000fd5b600082815260209020810160001990810180546001600160a01b03191690550190555b6001600160a01b03808a16600081815261016a60208181526040808420958e16808552600190960182528084208490559181528183208484526003019052808220829055517fb620e4928572d86c4aa852f12b72cdb824405b403dc7c3cb5d60dece51cb648c9190a3505050505050505050565b6129e5600080516020615b5383398151915233612a60565b612a015760405162461bcd60e51b8152600401610bf2906158b5565b60fc80546001600160a01b0390921661010002610100600160a81b0319909216919091179055565b612a41600080516020615b5383398151915233611598565b33600090815260fb6020526040902080546001600160a01b0319169055565b600091825260c9602090815260408084206001600160a01b0393909316845291905290205460ff1690565b600054610100900460ff1680612aa4575060005460ff16155b612ac05760405162461bcd60e51b8152600401610bf290615936565b600054610100900460ff16158015612ae2576000805461ffff19166101011790555b612aeb82612168565b612af36149b1565b612afc846141d6565b61016680546001600160a01b038086166001600160a01b03199283161790925561016380548a84169083161790556101628054898416908316179055610161805492881692909116919091179055670de0b6b3a764000061016755801561195c576000805461ff001916905550505050505050565b60fc5460ff1615612b945760405162461bcd60e51b8152600401610bf290615a01565b600261012f541415612bb85760405162461bcd60e51b8152600401610bf2906159ca565b600261012f556101615461016654604051637104c0e560e11b81523360048201526001600160a01b0392831660248201819052929091169063e20981ca90604401602060405180830381600087803b158015612c1357600080fd5b505af1158015612c27573d6000803e3d6000fd5b505050506040513d601f19601f82011682018060405250810190612c4b91906155f3565b5033600090815261016b6020526040902054683635c9adc5dea00000612c718483615a2d565b1115612cbf5760405162461bcd60e51b815260206004820152601c60248201527f557365724d616e616765723a205374616b65206c696d697420686974000000006044820152606401610bf2565b612cc98382615a2d565b33600090815261016b60205260408120919091556101688054859290612cf0908490615a2d565b9091555050604051636eb1769f60e11b815233600482015230602482015283906001600160a01b0384169063dd62ed3e9060440160206040518083038186803b158015612d3c57600080fd5b505afa158015612d50573d6000803e3d6000fd5b505050506040513d601f19601f82011682018060405250810190612d7491906155f3565b1015612dd55760405162461bcd60e51b815260206004820152602a60248201527f557365724d616e616765723a206e6f7420656e6f75676820616c6c6f77616e636044820152696520746f207374616b6560b01b6064820152608401610bf2565b612dea6001600160a01b038316333086614a10565b61016354612e06906001600160a01b0384811691166000614a4e565b61016354612e21906001600160a01b03848116911685614a4e565b61016354610161546040516311f9fbc960e21b81526001600160a01b039182166004820152602481018690529116906347e7ef2490604401602060405180830381600087803b158015612e7357600080fd5b505af1158015612e87573d6000803e3d6000fd5b505050506040513d601f19601f82011682018060405250810190612eab9190615575565b612ef75760405162461bcd60e51b815260206004820152601b60248201527f557365724d616e616765723a204465706f736974206661696c656400000000006044820152606401610bf2565b60405183815233907f3dbdcfd4c1f2e08931aae3d544e149a1e643143f5234d166fe3debb7833884959060200161155a565b610164546001600160a01b0316331480612f475750612f4733610c26565b612f635760405162461bcd60e51b8152600401610bf290615814565b612f6b615247565b6001600160a01b038416600090815261016a602090815260409182902060040180548351818402810184019094528084529091830182828015612fd757602002820191906000526020600020905b81546001600160a01b03168152600190910190602001808311612fb9575b50505082845250505160009067ffffffffffffffff81111561300957634e487b7160e01b600052604160045260246000fd5b60405190808252806020026020018201604052801561306e57816020015b61305b604051806080016040528060006001600160a01b031681526020016000815260200160008152602001600081525090565b8152602001906001900390816130275790505b50905060005b8251518110156131d4576130b2604051806080016040528060006001600160a01b031681526020016000815260200160008152602001600081525090565b83518051839081106130d457634e487b7160e01b600052603260045260246000fd5b6020908102919091018101516001600160a01b031660608601818152600091825261016b909252604090205460a08601525161311090886123d0565b6080850152606084015161312390611fa8565b610100850181905260a08501511161314157600060c085015261315c565b8361010001518460a001516131569190615aa3565b60c08501525b6060840180516001600160a01b0316825260808501516020830152516131829088613bb1565b604082015260c08401516060820152825181908490849081106131b557634e487b7160e01b600052603260045260246000fd5b60200260200101819052505080806131cc90615afd565b915050613074565b5060005b8151811015613309576101655482516001600160a01b039091169063a0d9987b90849081908590811061321b57634e487b7160e01b600052603260045260246000fd5b60200260200101516000015188886040518563ffffffff1660e01b8152600401613248949392919061571f565b60206040518083038186803b15801561326057600080fd5b505afa158015613274573d6000803e3d6000fd5b505050506040513d601f19601f8201168201806040525081019061329891906155f3565b61016a60008484815181106132bd57634e487b7160e01b600052603260045260246000fd5b602090810291909101810151516001600160a01b0390811683528282019390935260409182016000908120938b168152600590930190529020558061330181615afd565b9150506131d8565b505050505050565b6001600160a01b03808316600090815261016a6020908152604080832093851683526001909301905290812054908061334a8585613bb1565b905061335685856123d0565b91509250925092565b6001600160a01b03808316600090815261016a602090815260408083209385168352600390930190529081205490806133988486613bb1565b905061335684866123d0565b6001600160a01b038116600090815261016a602090815260409182902060040180548351818402810184019094528084526060939283018282801561341257602002820191906000526020600020905b81546001600160a01b031681526001909101906020018083116133f4575b50505050509050919050565b6000811161347a5760405162461bcd60e51b815260206004820152602360248201527f557365724d616e616765723a20616d6f756e742063616e206e6f74206265207a60448201526265726f60e81b6064820152608401610bf2565b806101685410156134e15760405162461bcd60e51b815260206004820152602b60248201527f557365724d616e616765723a20616d6f756e742065786365656473207468652060448201526a1d1bdd185b14dd185ad95960aa1b6064820152608401610bf2565b61016454604051634da9983d60e11b81526001600160a01b03848116600483015290911690639b53307a9060240160206040518083038186803b15801561352757600080fd5b505afa15801561353b573d6000803e3d6000fd5b505050506040513d601f19601f8201168201806040525081019061355f9190615575565b6135c35760405162461bcd60e51b815260206004820152602f60248201527f557365724d616e616765723a206f6e6c792063616c6c207768656e20626f727260448201526e6f776572206973206f76657264756560881b6064820152608401610bf2565b60006135cf3384613bb1565b9050818110156136375760405162461bcd60e51b815260206004820152602d60248201527f557365724d616e616765723a20616d6f756e742065786365656473207468652060448201526c1b1bd8dad95908185b5bdd5b9d609a1b6064820152608401610bf2565b613642836001614665565b816101695410156136a95760405162461bcd60e51b815260206004820152602b60248201527f557365724d616e616765723a20616d6f756e742065786365656473207468652060448201526a3a37ba30b6233937bd32b760a91b6064820152608401610bf2565b6101665461016154604051637104c0e560e11b81523360048201526001600160a01b03918216602482015291169063e20981ca90604401602060405180830381600087803b1580156136fa57600080fd5b505af115801561370e573d6000803e3d6000fd5b505050506040513d601f19601f8201168201806040525081019061373291906155f3565b5033600090815261016b602052604081208054849290613753908490615aa3565b9250508190555081610168600082825461376d9190615aa3565b925050819055508161016960008282546137879190615aa3565b90915550506001600160a01b038316600090815261016c602052604090205482116137e0576001600160a01b038316600090815261016c6020526040812080548492906137d5908490615aa3565b909155506137fb9050565b6001600160a01b038316600090815261016c60205260408120555b6138058282615aa3565b33600090815261016a602090815260408083206001600160a01b0388168452600581018352818420949094556001909301905290812054906138478483615aa3565b33600081815261016a602081815260408084206001600160a01b038c811686526001909101835281852087905592825280842094845260039094019052908290208390556101635461016154925163b8845f7560e01b8152928216600484015260248301889052929350919091169063b8845f7590604401600060405180830381600087803b1580156138d957600080fd5b505af11580156138ed573d6000803e3d6000fd5b50506101645460405163b8845f7560e01b81526001600160a01b03898116600483015260248201899052909116925063b8845f759150604401600060405180830381600087803b15801561394057600080fd5b505af1158015613954573d6000803e3d6000fd5b50506040518681526001600160a01b03881692503391507f721dd838cd211473250d3276b95ede5c746ea6711f9ca7364967246bf2c8db849060200160405180910390a35050505050565b60fc5460ff16156139c25760405162461bcd60e51b8152600401610bf290615a01565b600261012f5414156139e65760405162461bcd60e51b8152600401610bf2906159ca565b600261012f556101665461016154604051637104c0e560e11b81523360048201526001600160a01b039182166024820152600092919091169063e20981ca90604401602060405180830381600087803b158015613a4257600080fd5b505af1158015613a56573d6000803e3d6000fd5b505050506040513d601f19601f82011682018060405250810190613a7a91906155f3565b905060008111613acc5760405162461bcd60e51b815260206004820152601f60248201527f557365724d616e616765723a206e6f7420656e6f7567682072657761726473006044820152606401610bf2565b50600161012f55565b613aed600080516020615b5383398151915233612a60565b613b095760405162461bcd60e51b8152600401610bf2906158b5565b613b1281610c07565b15613b2f5760405162461bcd60e51b8152600401610bf290615984565b6001600160a01b038116600081815261016a6020908152604091829020805460ff1916600117905590519182527f5e1ee096236e8660dc7150f7b5ecb274fb28105175e61ace07f7525ab72ede4491015b60405180910390a150565b600082815260c96020526040902060010154613ba7813361435f565b6115938383614449565b6001600160a01b03918216600090815261016a602090815260408083209390941682526005909201909152205490565b60008080613bee85613d9c565b905060005b81518110156120a0576000828281518110613c1e57634e487b7160e01b600052603260045260246000fd5b602090810291909101015161016454604051632592fb6760e01b81526001600160a01b03808416600483015292935060009290911690632592fb679060240160206040518083038186803b158015613c7557600080fd5b505afa158015613c89573d6000803e3d6000fd5b505050506040513d601f19601f82011682018060405250810190613cad91906155f3565b613cb79043615aa3565b61016454604051634da9983d60e11b81526001600160a01b038581166004830152929350911690639b53307a9060240160206040518083038186803b158015613cff57600080fd5b505afa158015613d13573d6000803e3d6000fd5b505050506040513d601f19601f82011682018060405250810190613d379190615575565b15613d87576000613d48838a61335f565b92505050818810613d6e57613d5d8282615a45565b613d679087615a2d565b9550613d85565b613d788882615a45565b613d829087615a2d565b95505b505b50508080613d9490615afd565b915050613bf3565b6001600160a01b038116600090815261016a6020908152604091829020600201805483518184028101840190945280845260609392830182828015613412576020028201919060005260206000209081546001600160a01b031681526001909101906020018083116133f45750505050509050919050565b613e2c600080516020615b5383398151915233612a60565b613e485760405162461bcd60e51b8152600401610bf2906158b5565b61016755565b60fc5460ff1615613e715760405162461bcd60e51b8152600401610bf290615a01565b610162546001600160a01b0316613e8782610c07565b15613ea45760405162461bcd60e51b8152600401610bf290615984565b610167546040516370a0823160e01b81523360048201526001600160a01b038316906370a082319060240160206040518083038186803b158015613ee757600080fd5b505afa158015613efb573d6000803e3d6000fd5b505050506040513d601f19601f82011682018060405250810190613f1f91906155f3565b1015613f6d5760405162461bcd60e51b815260206004820152601f60248201527f557365724d616e616765723a2062616c616e6365206e6f7420656e6f756768006044820152606401610bf2565b6000805b6001600160a01b038416600090815261016a602052604090206004015481101561402c576001600160a01b038416600090815261016a60205260408120600401805483908110613fd157634e487b7160e01b600052603260045260246000fd5b6000918252602090912001546001600160a01b03169050613ff181610c07565b80156140065750600061400482876123d0565b115b1561401957614016600184615a2d565b92505b508061402481615afd565b915050613f71565b5061016560009054906101000a90046001600160a01b03166001600160a01b03166351118cfb6040518163ffffffff1660e01b8152600401602060405180830381600087803b15801561407e57600080fd5b505af1158015614092573d6000803e3d6000fd5b505050506040513d601f19601f820116820180604052508101906140b691906155f3565b8110156141175760405162461bcd60e51b815260206004820152602960248201527f557365724d616e616765723a206e6f7420656e6f75676820656666656374697660448201526865207374616b65727360b81b6064820152608401610bf2565b6001600160a01b03838116600090815261016a602052604090819020805460ff1916600117905561016754905163079cc67960e41b81523360048201526024810191909152908316906379cc679090604401600060405180830381600087803b15801561418357600080fd5b505af1158015614197573d6000803e3d6000fd5b50506040516001600160a01b03861692503391507f9d20d3ae19788f508f4eab7f2347e8be09a77d3394e12b3f4ebb15f63c85b37a90600090a3505050565b806001600160a01b031663b0db49306040518163ffffffff1660e01b815260040160206040518083038186803b15801561420f57600080fd5b505afa158015614223573d6000803e3d6000fd5b505050506040513d601f19601f820116820180604052508101906142479190615575565b6142ad5760405162461bcd60e51b815260206004820152603160248201527f4d656d6265724d6e616765723a206e6577206d6f64656c206973206e6f7420616044820152700818dc99591a5d131a5b5a5d135bd9195b607a1b6064820152608401610bf2565b61016580546001600160a01b0319166001600160a01b0383169081179091556040519081527f5d836e0ba607c52b1dceb0fd428714bc02d853f50390605467267c834f7c2af490602001613b80565b6040516001600160a01b03831660248201526044810182905261159390849063a9059cbb60e01b906064015b60408051601f198184030181529190526020810180516001600160e01b03166001600160e01b031990931692909217909152614b72565b6143698282612a60565b61161257614381816001600160a01b03166014614c44565b61438c836020614c44565b60405160200161439d92919061565d565b60408051601f198184030181529082905262461bcd60e51b8252610bf2916004016157e1565b6143cd8282612a60565b61161257600082815260c9602090815260408083206001600160a01b03851684529091529020805460ff191660011790556144053390565b6001600160a01b0316816001600160a01b0316837f2f8788117e7eff1d82e926ec794901d17c78024a50270940304540a733656f0d60405160405180910390a45050565b6144538282612a60565b1561161257600082815260c9602090815260408083206001600160a01b0385168085529252808320805460ff1916905551339285917ff6391f5c32d9c69d2a47ea670b442974b53935d1edc7fd64eb21e047a839171b9190a45050565b6144c8600080516020615b5383398151915233612a60565b610c045760405162461bcd60e51b8152600401610bf2906158b5565b60006145177f360894a13ba1a3210667c828492db98dca3e2076cc3735a920a3ca505d382bbc546001600160a01b031690565b905061452284614e2d565b60008351118061452f5750815b156145405761453e8484614ed2565b505b7f4910fdfa16fed3260ed0e7147f7cc6da11a60208b5b9406d12a635614ffd9143805460ff16610d7d57805460ff191660011781556040516001600160a01b03831660248201526145bf90869060440160408051601f198184030181529190526020810180516001600160e01b0316631b2ce7f360e11b179052614ed2565b50805460ff191681557f360894a13ba1a3210667c828492db98dca3e2076cc3735a920a3ca505d382bbc546001600160a01b0383811691161461465c5760405162461bcd60e51b815260206004820152602f60248201527f45524331393637557067726164653a207570677261646520627265616b73206660448201526e75727468657220757067726164657360881b6064820152608401610bf2565b610d7d85614fb4565b610169546101685410156146c95760405162461bcd60e51b815260206004820152602560248201527f557365724d616e616765723a20746f74616c207374616b6520616d6f756e742060448201526432b93937b960d91b6064820152608401610bf2565b600061016954610168546146dd9190615aa3565b6101665461016154604051630133821360e51b81526001600160a01b039182166004820152602481018490529293501690632670426090604401602060405180830381600087803b15801561473157600080fd5b505af1158015614745573d6000803e3d6000fd5b505050506040513d601f19601f820116820180604052508101906147699190615575565b5081156148ab576000805b6001600160a01b038516600090815261016a6020526040902060040154811015614817576001600160a01b038516600090815261016a602052604081206004018054839081106147d457634e487b7160e01b600052603260045260246000fd5b60009182526020822001546001600160a01b031691506147f48288613bb1565b90506148008185615a2d565b93505050808061480f90615afd565b915050614774565b506001600160a01b038416600090815261016c6020526040902054614854578061016960008282546148499190615a2d565b9091555061488c9050565b6001600160a01b038416600090815261016c60205260409020546101695461487d908390615a2d565b6148879190615aa3565b610169555b6001600160a01b038416600090815261016c6020526040902055505050565b6001600160a01b038316600090815261016c6020526040902054610169541115614908576001600160a01b038316600090815261016c60205260408120546101698054919290916148fd908490615aa3565b9091555061490f9050565b6000610169555b50506001600160a01b0316600090815261016c6020526040812055565b600054610100900460ff1680614945575060005460ff16155b6149615760405162461bcd60e51b8152600401610bf290615936565b600054610100900460ff16158015614983576000805461ffff19166101011790555b61498b614ff4565b614993614ff4565b8015610c04576000805461ff001916905550565b61161282826143c3565b600054610100900460ff16806149ca575060005460ff16155b6149e65760405162461bcd60e51b8152600401610bf290615936565b600054610100900460ff16158015614a08576000805461ffff19166101011790555b61499361505e565b6040516001600160a01b0380851660248301528316604482015260648101829052614a489085906323b872dd60e01b90608401614328565b50505050565b801580614ad75750604051636eb1769f60e11b81523060048201526001600160a01b03838116602483015284169063dd62ed3e9060440160206040518083038186803b158015614a9d57600080fd5b505afa158015614ab1573d6000803e3d6000fd5b505050506040513d601f19601f82011682018060405250810190614ad591906155f3565b155b614b425760405162461bcd60e51b815260206004820152603660248201527f5361666545524332303a20617070726f76652066726f6d206e6f6e2d7a65726f60448201527520746f206e6f6e2d7a65726f20616c6c6f77616e636560501b6064820152608401610bf2565b6040516001600160a01b03831660248201526044810182905261159390849063095ea7b360e01b90606401614328565b6000614bc7826040518060400160405280602081526020017f5361666545524332303a206c6f772d6c6576656c2063616c6c206661696c6564815250856001600160a01b03166150cf9092919063ffffffff16565b8051909150156115935780806020019051810190614be59190615575565b6115935760405162461bcd60e51b815260206004820152602a60248201527f5361666545524332303a204552433230206f7065726174696f6e20646964206e6044820152691bdd081cdd58d8d9595960b21b6064820152608401610bf2565b60606000614c53836002615a45565b614c5e906002615a2d565b67ffffffffffffffff811115614c8457634e487b7160e01b600052604160045260246000fd5b6040519080825280601f01601f191660200182016040528015614cae576020820181803683370190505b509050600360fc1b81600081518110614cd757634e487b7160e01b600052603260045260246000fd5b60200101906001600160f81b031916908160001a905350600f60fb1b81600181518110614d1457634e487b7160e01b600052603260045260246000fd5b60200101906001600160f81b031916908160001a9053506000614d38846002615a45565b614d43906001615a2d565b90505b6001811115614dd7576f181899199a1a9b1b9c1cb0b131b232b360811b85600f1660108110614d8557634e487b7160e01b600052603260045260246000fd5b1a60f81b828281518110614da957634e487b7160e01b600052603260045260246000fd5b60200101906001600160f81b031916908160001a90535060049490941c93614dd081615ae6565b9050614d46565b508315614e265760405162461bcd60e51b815260206004820181905260248201527f537472696e67733a20686578206c656e67746820696e73756666696369656e746044820152606401610bf2565b9392505050565b803b614e915760405162461bcd60e51b815260206004820152602d60248201527f455243313936373a206e657720696d706c656d656e746174696f6e206973206e60448201526c1bdd08184818dbdb9d1c9858dd609a1b6064820152608401610bf2565b7f360894a13ba1a3210667c828492db98dca3e2076cc3735a920a3ca505d382bbc80546001600160a01b0319166001600160a01b0392909216919091179055565b6060823b614f315760405162461bcd60e51b815260206004820152602660248201527f416464726573733a2064656c65676174652063616c6c20746f206e6f6e2d636f6044820152651b9d1c9858dd60d21b6064820152608401610bf2565b600080846001600160a01b031684604051614f4c9190615641565b600060405180830381855af49150503d8060008114614f87576040519150601f19603f3d011682016040523d82523d6000602084013e614f8c565b606091505b509150915061128c8282604051806060016040528060278152602001615b73602791396150e6565b614fbd81614e2d565b6040516001600160a01b038216907fbc7cd75a20ee27fd9adebab32041f755214dbc6bffa90cc0225b39da2e5c2d3b90600090a250565b600054610100900460ff168061500d575060005460ff16155b6150295760405162461bcd60e51b8152600401610bf290615936565b600054610100900460ff16158015614993576000805461ffff19166101011790558015610c04576000805461ff001916905550565b600054610100900460ff1680615077575060005460ff16155b6150935760405162461bcd60e51b8152600401610bf290615936565b600054610100900460ff161580156150b5576000805461ffff19166101011790555b600161012f558015610c04576000805461ff001916905550565b60606150de848460008561511f565b949350505050565b606083156150f5575081614e26565b8251156151055782518084602001fd5b8160405162461bcd60e51b8152600401610bf291906157e1565b6060824710156151805760405162461bcd60e51b815260206004820152602660248201527f416464726573733a20696e73756666696369656e742062616c616e636520666f6044820152651c8818d85b1b60d21b6064820152608401610bf2565b843b6151ce5760405162461bcd60e51b815260206004820152601d60248201527f416464726573733a2063616c6c20746f206e6f6e2d636f6e74726163740000006044820152606401610bf2565b600080866001600160a01b031685876040516151ea9190615641565b60006040518083038185875af1925050503d8060008114615227576040519150601f19603f3d011682016040523d82523d6000602084013e61522c565b606091505b509150915061523c8282866150e6565b979650505050505050565b60405180610120016040528060608152602001606081526020016000815260200160006001600160a01b0316815260200160008152602001600081526020016000815260200160008152602001600081525090565b80356001600160a01b03811681146152b357600080fd5b919050565b803560ff811681146152b357600080fd5b6000602082840312156152da578081fd5b614e268261529c565b600080604083850312156152f5578081fd5b6152fe8361529c565b915061530c6020840161529c565b90509250929050565b60008060008060008060c0878903121561532d578182fd5b6153368761529c565b95506153446020880161529c565b94506153526040880161529c565b93506153606060880161529c565b925061536e6080880161529c565b915061537c60a0880161529c565b90509295509295509295565b60008060006060848603121561539c578283fd5b6153a58461529c565b92506153b36020850161529c565b9150604084013590509250925092565b600080604083850312156153d5578182fd5b6153de8361529c565b915060208301356153ee81615b44565b809150509250929050565b6000806040838503121561540b578182fd5b6154148361529c565b9150602083013567ffffffffffffffff80821115615430578283fd5b818501915085601f830112615443578283fd5b81358181111561545557615455615b2e565b604051601f8201601f19908116603f0116810190838211818310171561547d5761547d615b2e565b81604052828152886020848701011115615495578586fd5b82602086016020830137856020848301015280955050505050509250929050565b600080604083850312156154c8578182fd5b6154d18361529c565b946020939093013593505050565b6000806000606084860312156154f3578283fd5b6154fc8461529c565b925060208401359150604084013561551381615b44565b809150509250925092565b60008060008060008060c08789031215615536578182fd5b61553f8761529c565b9550602087013594506040870135935061555b606088016152b8565b92506080870135915060a087013590509295509295509295565b600060208284031215615586578081fd5b8151614e2681615b44565b6000602082840312156155a2578081fd5b5035919050565b600080604083850312156155bb578182fd5b8235915061530c6020840161529c565b6000602082840312156155dc578081fd5b81356001600160e01b031981168114614e26578182fd5b600060208284031215615604578081fd5b5051919050565b60008060008060008060c08789031215615623578384fd5b86359550602087013594506040870135935061555b606088016152b8565b60008251615653818460208701615aba565b9190910192915050565b7f416363657373436f6e74726f6c3a206163636f756e7420000000000000000000815260008351615695816017850160208801615aba565b7001034b99036b4b9b9b4b733903937b6329607d1b60179184019182015283516156c6816028840160208801615aba565b01602801949350505050565b6020808252825182820181905260009190848201906040850190845b818110156157135783516001600160a01b0316835292840192918401916001016156ee565b50909695505050505050565b608080825285518282018190526000919060209060a0850190828a01855b8281101561578057815180516001600160a01b0316855285810151868601526040808201519086015260609081015190850152928501929084019060010161573d565b5050506001600160a01b038816858301529250505083604083015261128c606083018415159052565b6020808252825182820181905260009190848201906040850190845b81811015615713578351835292840192918401916001016157c5565b6020815260008251806020840152615800816040850160208701615aba565b601f01601f19169190910160400192915050565b60208082526030908201527f557365724d616e616765723a2063616c6c657220646f6573206e6f742074686560408201526f1036b0b935b2ba1037b91030b236b4b760811b606082015260800190565b60208082526031908201527f557365724d616e616765723a2063616c6c657220646f6573206e6f74206861766040820152706520746865204d656d62657220726f6c6560781b606082015260800190565b60208082526015908201527421b7b73a3937b63632b91d103737ba1030b236b4b760591b604082015260600190565b60208082526032908201527f436f6e74726f6c6c65723a2063616c6c657220646f6573206e6f7420686176656040820152712074686520677561726469616e20726f6c6560701b606082015260800190565b6020808252602e908201527f496e697469616c697a61626c653a20636f6e747261637420697320616c72656160408201526d191e481a5b9a5d1a585b1a5e995960921b606082015260800190565b60208082526026908201527f557365724d616e616765723a206164647265737320697320616c72656164792060408201526536b2b6b132b960d11b606082015260800190565b6020808252601f908201527f5265656e7472616e637947756172643a207265656e7472616e742063616c6c00604082015260600190565b60208082526012908201527110dbdb9d1c9bdb1b195c8e881c185d5cd95960721b604082015260600190565b60008219821115615a4057615a40615b18565b500190565b6000816000190483118215151615615a5f57615a5f615b18565b500290565b60008083128015600160ff1b850184121615615a8257615a82615b18565b6001600160ff1b0384018313811615615a9d57615a9d615b18565b50500390565b600082821015615ab557615ab5615b18565b500390565b60005b83811015615ad5578181015183820152602001615abd565b83811115614a485750506000910152565b600081615af557615af5615b18565b506000190190565b6000600019821415615b1157615b11615b18565b5060010190565b634e487b7160e01b600052601160045260246000fd5b634e487b7160e01b600052604160045260246000fd5b8015158114610c0457600080fdfe2172861495e7b85edac73e3cd5fbb42dd675baadf627720e687bcfdaca025096416464726573733a206c6f772d6c6576656c2064656c65676174652063616c6c206661696c6564a2646970667358221220a37fb89922a7aa1d30a4d508a521e4de797560f985c7cd8927d6f94a236b603d64736f6c63430008040033",
  "devdoc": {
    "details": "Manages the Union members credit lines, and their vouchees and borrowers info.",
    "events": {
      "LogAddMember(address)": {
        "details": "Add new member event",
        "params": {
          "member": "New member address"
        }
      },
      "LogCancelVouch(address,address)": {
        "details": "Cancel vouching for other member event",
        "params": {
          "account": "New member's voucher address",
          "borrower": "The address gets vouched for"
        }
      },
      "LogDebtWriteOff(address,address,uint256)": {
        "details": "DebtWriteOff event",
        "params": {
          "amount": "The amount of write off",
          "borrower": "The borrower's address",
          "staker": "The staker's address"
        }
      },
      "LogNewCreditLimitModel(address)": {
        "details": "Update new credit limit model event",
        "params": {
          "newCreditLimitModel": "New credit limit model address"
        }
      },
      "LogRegisterMember(address,address)": {
        "details": "New member application event",
        "params": {
          "account": "New member's voucher address",
          "borrower": "New member address"
        }
      },
      "LogStake(address,uint256)": {
        "details": "Stake event",
        "params": {
          "account": "The staker's address",
          "amount": "The amount of tokens to stake"
        }
      },
      "LogUnstake(address,uint256)": {
        "details": "Unstake event",
        "params": {
          "account": "The staker's address",
          "amount": "The amount of tokens to unstake"
        }
      },
      "LogUpdateTrust(address,address,uint256)": {
        "details": "Update vouch for existing member event",
        "params": {
          "borrower": "The address gets vouched for",
          "staker": "Trustee address",
          "trustAmount": "Vouch amount"
        }
      }
    },
    "kind": "dev",
    "methods": {
      "addAdmin(address)": {
        "details": "Add a new admin account",
        "params": {
          "account": "Account address"
        }
      },
      "addMember(address)": {
        "details": "Add member  Accept claims only from the admin",
        "params": {
          "account": "Member address"
        }
      },
      "cancelVouch(address,address)": {
        "details": "Stop vouch for other member.",
        "params": {
          "borrower": "borrower address",
          "staker": "Staker address"
        }
      },
      "checkIsMember(address)": {
        "details": "Check if the account is a valid member",
        "params": {
          "account": "Member address"
        },
        "returns": {
          "_0": "Address whether is member"
        }
      },
      "getBorrowerAddresses(address)": {
        "details": "Get member borrowerAddresses",
        "params": {
          "account": "Member address"
        },
        "returns": {
          "_0": "Address array"
        }
      },
      "getBorrowerAsset(address,address)": {
        "details": "Get member backer asset",
        "params": {
          "account": "Member address",
          "borrower": "Borrower address"
        },
        "returns": {
          "trustAmount": "vouchingAmount lockedStake. Trust amount, vouch amount, and locked stake amount"
        }
      },
      "getCreditLimit(address)": {
        "details": "Get the member's available credit line",
        "params": {
          "borrower": "Member address"
        },
        "returns": {
          "_0": "Credit line amount"
        }
      },
      "getLockedStake(address,address)": {
        "details": "Get staker locked stake for a borrower",
        "params": {
          "borrower": "Borrower address",
          "staker": "Staker address"
        },
        "returns": {
          "_0": "LockedStake"
        }
      },
      "getRoleAdmin(bytes32)": {
        "details": "Returns the admin role that controls `role`. See {grantRole} and {revokeRole}. To change a role's admin, use {_setRoleAdmin}."
      },
      "getStakerAddresses(address)": {
        "details": "Get member stakerAddresses",
        "params": {
          "account": "Member address"
        },
        "returns": {
          "_0": "Address array"
        }
      },
      "getStakerAsset(address,address)": {
        "details": "Get member stakers asset",
        "params": {
          "account": "Member address",
          "staker": "Staker address"
        },
        "returns": {
          "trustAmount": "lockedStake vouchingAmount. Vouch amount and lockedStake"
        }
      },
      "getStakerBalance(address)": {
        "details": "Get the user's deposited stake amount",
        "params": {
          "account": "Member address"
        },
        "returns": {
          "_0": "Deposited stake amount"
        }
      },
      "getTotalFrozenAmount(address)": {
        "details": "Get staker's defaulted / frozen staked token amount",
        "params": {
          "staker": "Staker address"
        },
        "returns": {
          "_0": "Frozen token amount"
        }
      },
      "getTotalLockedStake(address)": {
        "details": "Get the user's locked stake from all his backed loans",
        "params": {
          "staker": "Staker address"
        },
        "returns": {
          "_0": "LockedStake"
        }
      },
      "getVouchingAmount(address,address)": {
        "details": "Get vouching amount",
        "params": {
          "borrower": "Borrower address",
          "staker": "Staker address"
        }
      },
      "grantRole(bytes32,address)": {
        "details": "Grants `role` to `account`. If `account` had not been already granted `role`, emits a {RoleGranted} event. Requirements: - the caller must have ``role``'s admin role."
      },
      "hasRole(bytes32,address)": {
        "details": "Returns `true` if `account` has been granted `role`."
      },
      "isAdmin(address)": {
        "details": "Check if the address provided is the admin",
        "params": {
          "account": "Account address"
        }
      },
      "pause()": {
        "details": "Called by a pauser to pause, triggers stopped state."
      },
      "paused()": {
        "details": "Returns true if the contract is paused, and false otherwise."
      },
      "registerMember(address)": {
        "details": "Apply for membership, and burn UnionToken as application fees",
        "params": {
          "newMember": "New member address"
        }
      },
      "renounceAdmin()": {
        "details": "Renouce the admin from the sender's address"
      },
      "renounceRole(bytes32,address)": {
        "details": "Revokes `role` from the calling account. Roles are often managed via {grantRole} and {revokeRole}: this function's purpose is to provide a mechanism for accounts to lose their privileges if they are compromised (such as when a trusted device is misplaced). If the calling account had been granted `role`, emits a {RoleRevoked} event. Requirements: - the caller must be `account`."
      },
      "repayLoanOverdue(address,address,uint256)": {
        "details": "Repay user's loan overdue, called only from the lending market",
        "params": {
          "account": "User address",
          "lastRepay": "Last repay block number",
          "token": "The asset token repaying to"
        }
      },
      "revokeRole(bytes32,address)": {
        "details": "Revokes `role` from `account`. If `account` had been granted `role`, emits a {RoleRevoked} event. Requirements: - the caller must have ``role``'s admin role."
      },
      "setCreditLimitModel(address)": {
        "details": "Change the credit limit model  Accept claims only from the admin",
        "params": {
          "newCreditLimitModel": "New credit limit model address"
        }
      },
      "setGuardian(address)": {
        "details": "Set pauseGuardian account",
        "params": {
          "account": "Account address"
        }
      },
      "stake(uint256)": {
        "details": "Stake",
        "params": {
          "amount": "Amount"
        }
      },
      "stakeWithPermit(uint256,uint256,uint256,uint8,bytes32,bytes32)": {
        "details": "stakeWithPermit",
        "params": {
          "amount": "Amount"
        }
      },
      "supportsInterface(bytes4)": {
        "details": "See {IERC165-supportsInterface}."
      },
      "unpause()": {
        "details": "Called by a pauser to unpause, returns to normal state."
      },
      "unstake(uint256)": {
        "details": "Unstake",
        "params": {
          "amount": "Amount"
        }
      },
      "updateLockedData(address,uint256,bool)": {
        "details": "Update userManager locked info",
        "params": {
          "amount": "Borrow or repay amount(Including previously accrued interest)",
          "borrower": "Borrower address",
          "isBorrow": "True is borrow, false is repay"
        }
      },
      "updateTotalFrozen(address,bool)": {
        "details": "Update total frozen",
        "params": {
          "account": "borrower address",
          "isOverdue": "account is overdue"
        }
      },
      "updateTrust(address,uint256)": {
        "details": "Update the trust amount for exisitng members.",
        "params": {
          "borrower_": "Account address",
          "trustAmount": "Trust amount"
        }
      },
      "upgradeTo(address)": {
        "details": "Upgrade the implementation of the proxy to `newImplementation`. Calls {_authorizeUpgrade}. Emits an {Upgraded} event."
      },
      "upgradeToAndCall(address,bytes)": {
        "details": "Upgrade the implementation of the proxy to `newImplementation`, and subsequently execute the function call encoded in `data`. Calls {_authorizeUpgrade}. Emits an {Upgraded} event."
      }
    },
    "title": "UserManager Contract",
    "version": 1
  },
  "userdoc": {
    "kind": "user",
    "methods": {},
    "version": 1
  },
  "storageLayout": {
    "storage": [
      {
        "astId": 821,
        "contract": "contracts/user/UserManager.sol:UserManager",
        "label": "_initialized",
        "offset": 0,
        "slot": "0",
        "type": "t_bool"
      },
      {
        "astId": 824,
        "contract": "contracts/user/UserManager.sol:UserManager",
        "label": "_initializing",
        "offset": 1,
        "slot": "0",
        "type": "t_bool"
      },
      {
        "astId": 804,
        "contract": "contracts/user/UserManager.sol:UserManager",
        "label": "__gap",
        "offset": 0,
        "slot": "1",
        "type": "t_array(t_uint256)50_storage"
      },
      {
        "astId": 937,
        "contract": "contracts/user/UserManager.sol:UserManager",
        "label": "__gap",
        "offset": 0,
        "slot": "51",
        "type": "t_array(t_uint256)50_storage"
      },
      {
        "astId": 2184,
        "contract": "contracts/user/UserManager.sol:UserManager",
        "label": "__gap",
        "offset": 0,
        "slot": "101",
        "type": "t_array(t_uint256)50_storage"
      },
      {
        "astId": 2493,
        "contract": "contracts/user/UserManager.sol:UserManager",
        "label": "__gap",
        "offset": 0,
        "slot": "151",
        "type": "t_array(t_uint256)50_storage"
      },
      {
        "astId": 48,
        "contract": "contracts/user/UserManager.sol:UserManager",
        "label": "_roles",
        "offset": 0,
        "slot": "201",
        "type": "t_mapping(t_bytes32,t_struct(RoleData)43_storage)"
      },
      {
        "astId": 333,
        "contract": "contracts/user/UserManager.sol:UserManager",
        "label": "__gap",
        "offset": 0,
        "slot": "202",
        "type": "t_array(t_uint256)49_storage"
      },
      {
        "astId": 10453,
        "contract": "contracts/user/UserManager.sol:UserManager",
        "label": "_admins",
        "offset": 0,
        "slot": "251",
        "type": "t_mapping(t_address,t_address)"
      },
      {
        "astId": 10455,
        "contract": "contracts/user/UserManager.sol:UserManager",
        "label": "_paused",
        "offset": 0,
        "slot": "252",
        "type": "t_bool"
      },
      {
        "astId": 10457,
        "contract": "contracts/user/UserManager.sol:UserManager",
        "label": "pauseGuardian",
        "offset": 1,
        "slot": "252",
        "type": "t_address"
      },
      {
        "astId": 10697,
        "contract": "contracts/user/UserManager.sol:UserManager",
        "label": "______gap",
        "offset": 0,
        "slot": "253",
        "type": "t_array(t_uint256)50_storage"
      },
      {
        "astId": 952,
        "contract": "contracts/user/UserManager.sol:UserManager",
        "label": "_status",
        "offset": 0,
        "slot": "303",
        "type": "t_uint256"
      },
      {
        "astId": 995,
        "contract": "contracts/user/UserManager.sol:UserManager",
        "label": "__gap",
        "offset": 0,
        "slot": "304",
        "type": "t_array(t_uint256)49_storage"
      },
      {
        "astId": 22685,
        "contract": "contracts/user/UserManager.sol:UserManager",
        "label": "stakingToken",
        "offset": 0,
        "slot": "353",
        "type": "t_address"
      },
      {
        "astId": 22687,
        "contract": "contracts/user/UserManager.sol:UserManager",
        "label": "unionToken",
        "offset": 0,
        "slot": "354",
        "type": "t_address"
      },
      {
        "astId": 22689,
        "contract": "contracts/user/UserManager.sol:UserManager",
        "label": "assetManager",
        "offset": 0,
        "slot": "355",
        "type": "t_address"
      },
      {
        "astId": 22692,
        "contract": "contracts/user/UserManager.sol:UserManager",
        "label": "uToken",
        "offset": 0,
        "slot": "356",
        "type": "t_contract(IUToken)14766"
      },
      {
        "astId": 22695,
        "contract": "contracts/user/UserManager.sol:UserManager",
        "label": "creditLimitModel",
        "offset": 0,
        "slot": "357",
        "type": "t_contract(ICreditLimitModel)14378"
      },
      {
        "astId": 22698,
        "contract": "contracts/user/UserManager.sol:UserManager",
        "label": "comptroller",
        "offset": 0,
        "slot": "358",
        "type": "t_contract(IComptroller)14330"
      },
      {
        "astId": 22700,
        "contract": "contracts/user/UserManager.sol:UserManager",
        "label": "newMemberFee",
        "offset": 0,
        "slot": "359",
        "type": "t_uint256"
      },
      {
        "astId": 22703,
        "contract": "contracts/user/UserManager.sol:UserManager",
        "label": "totalStaked",
        "offset": 0,
        "slot": "360",
        "type": "t_uint256"
      },
      {
        "astId": 22706,
        "contract": "contracts/user/UserManager.sol:UserManager",
        "label": "totalFrozen",
        "offset": 0,
        "slot": "361",
        "type": "t_uint256"
      },
      {
        "astId": 22711,
        "contract": "contracts/user/UserManager.sol:UserManager",
        "label": "members",
        "offset": 0,
        "slot": "362",
        "type": "t_mapping(t_address,t_struct(Member)22637_storage)"
      },
      {
        "astId": 22715,
        "contract": "contracts/user/UserManager.sol:UserManager",
        "label": "stakers",
        "offset": 0,
        "slot": "363",
        "type": "t_mapping(t_address,t_uint256)"
      },
      {
        "astId": 22719,
        "contract": "contracts/user/UserManager.sol:UserManager",
        "label": "memberFrozen",
        "offset": 0,
        "slot": "364",
        "type": "t_mapping(t_address,t_uint256)"
      }
    ],
    "types": {
      "t_address": {
        "encoding": "inplace",
        "label": "address",
        "numberOfBytes": "20"
      },
      "t_array(t_address)dyn_storage": {
        "base": "t_address",
        "encoding": "dynamic_array",
        "label": "address[]",
        "numberOfBytes": "32"
      },
      "t_array(t_uint256)49_storage": {
        "base": "t_uint256",
        "encoding": "inplace",
        "label": "uint256[49]",
        "numberOfBytes": "1568"
      },
      "t_array(t_uint256)50_storage": {
        "base": "t_uint256",
        "encoding": "inplace",
        "label": "uint256[50]",
        "numberOfBytes": "1600"
      },
      "t_bool": {
        "encoding": "inplace",
        "label": "bool",
        "numberOfBytes": "1"
      },
      "t_bytes32": {
        "encoding": "inplace",
        "label": "bytes32",
        "numberOfBytes": "32"
      },
      "t_contract(IComptroller)14330": {
        "encoding": "inplace",
        "label": "contract IComptroller",
        "numberOfBytes": "20"
      },
      "t_contract(ICreditLimitModel)14378": {
        "encoding": "inplace",
        "label": "contract ICreditLimitModel",
        "numberOfBytes": "20"
      },
      "t_contract(IUToken)14766": {
        "encoding": "inplace",
        "label": "contract IUToken",
        "numberOfBytes": "20"
      },
      "t_mapping(t_address,t_address)": {
        "encoding": "mapping",
        "key": "t_address",
        "label": "mapping(address => address)",
        "numberOfBytes": "32",
        "value": "t_address"
      },
      "t_mapping(t_address,t_bool)": {
        "encoding": "mapping",
        "key": "t_address",
        "label": "mapping(address => bool)",
        "numberOfBytes": "32",
        "value": "t_bool"
      },
      "t_mapping(t_address,t_struct(Member)22637_storage)": {
        "encoding": "mapping",
        "key": "t_address",
        "label": "mapping(address => struct UserManager.Member)",
        "numberOfBytes": "32",
        "value": "t_struct(Member)22637_storage"
      },
      "t_mapping(t_address,t_uint256)": {
        "encoding": "mapping",
        "key": "t_address",
        "label": "mapping(address => uint256)",
        "numberOfBytes": "32",
        "value": "t_uint256"
      },
      "t_mapping(t_bytes32,t_struct(RoleData)43_storage)": {
        "encoding": "mapping",
        "key": "t_bytes32",
        "label": "mapping(bytes32 => struct AccessControlUpgradeable.RoleData)",
        "numberOfBytes": "32",
        "value": "t_struct(RoleData)43_storage"
      },
      "t_struct(CreditLine)22656_storage": {
        "encoding": "inplace",
        "label": "struct UserManager.CreditLine",
        "members": [
          {
            "astId": 22641,
            "contract": "contracts/user/UserManager.sol:UserManager",
            "label": "borrowers",
            "offset": 0,
            "slot": "0",
            "type": "t_mapping(t_address,t_uint256)"
          },
          {
            "astId": 22644,
            "contract": "contracts/user/UserManager.sol:UserManager",
            "label": "borrowerAddresses",
            "offset": 0,
            "slot": "1",
            "type": "t_array(t_address)dyn_storage"
          },
          {
            "astId": 22648,
            "contract": "contracts/user/UserManager.sol:UserManager",
            "label": "stakers",
            "offset": 0,
            "slot": "2",
            "type": "t_mapping(t_address,t_uint256)"
          },
          {
            "astId": 22651,
            "contract": "contracts/user/UserManager.sol:UserManager",
            "label": "stakerAddresses",
            "offset": 0,
            "slot": "3",
            "type": "t_array(t_address)dyn_storage"
          },
          {
            "astId": 22655,
            "contract": "contracts/user/UserManager.sol:UserManager",
            "label": "lockedAmount",
            "offset": 0,
            "slot": "4",
            "type": "t_mapping(t_address,t_uint256)"
          }
        ],
        "numberOfBytes": "160"
      },
      "t_struct(Member)22637_storage": {
        "encoding": "inplace",
        "label": "struct UserManager.Member",
        "members": [
          {
            "astId": 22633,
            "contract": "contracts/user/UserManager.sol:UserManager",
            "label": "isMember",
            "offset": 0,
            "slot": "0",
            "type": "t_bool"
          },
          {
            "astId": 22636,
            "contract": "contracts/user/UserManager.sol:UserManager",
            "label": "creditLine",
            "offset": 0,
            "slot": "1",
            "type": "t_struct(CreditLine)22656_storage"
          }
        ],
        "numberOfBytes": "192"
      },
      "t_struct(RoleData)43_storage": {
        "encoding": "inplace",
        "label": "struct AccessControlUpgradeable.RoleData",
        "members": [
          {
            "astId": 40,
            "contract": "contracts/user/UserManager.sol:UserManager",
            "label": "members",
            "offset": 0,
            "slot": "0",
            "type": "t_mapping(t_address,t_bool)"
          },
          {
            "astId": 42,
            "contract": "contracts/user/UserManager.sol:UserManager",
            "label": "adminRole",
            "offset": 0,
            "slot": "1",
            "type": "t_bytes32"
          }
        ],
        "numberOfBytes": "64"
      },
      "t_uint256": {
        "encoding": "inplace",
        "label": "uint256",
        "numberOfBytes": "32"
      }
    }
  }
}