{
  "address": "0x4eE3Ce8a4c50A6141E593537a2a608d2f47cC19D",
  "abi": [
    {
      "anonymous": false,
      "inputs": [
        {
          "indexed": false,
          "internalType": "address",
          "name": "previousAdmin",
          "type": "address"
        },
        {
          "indexed": false,
          "internalType": "address",
          "name": "newAdmin",
          "type": "address"
        }
      ],
      "name": "AdminChanged",
      "type": "event"
    },
    {
      "anonymous": false,
      "inputs": [
        {
          "indexed": true,
          "internalType": "address",
          "name": "beacon",
          "type": "address"
        }
      ],
      "name": "BeaconUpgraded",
      "type": "event"
    },
    {
      "anonymous": false,
      "inputs": [
        {
          "indexed": true,
          "internalType": "address",
          "name": "account",
          "type": "address"
        },
        {
          "indexed": false,
          "internalType": "uint256",
          "name": "amount",
          "type": "uint256"
        },
        {
          "indexed": false,
          "internalType": "uint256",
          "name": "fee",
          "type": "uint256"
        }
      ],
      "name": "LogBorrow",
      "type": "event"
    },
    {
      "anonymous": false,
      "inputs": [
        {
          "indexed": false,
          "internalType": "address",
          "name": "minter",
          "type": "address"
        },
        {
          "indexed": false,
          "internalType": "uint256",
          "name": "underlyingAmount",
          "type": "uint256"
        },
        {
          "indexed": false,
          "internalType": "uint256",
          "name": "uTokenAmount",
          "type": "uint256"
        }
      ],
      "name": "LogMint",
      "type": "event"
    },
    {
      "anonymous": false,
      "inputs": [
        {
          "indexed": false,
          "internalType": "address",
          "name": "oldInterestRateModel",
          "type": "address"
        },
        {
          "indexed": false,
          "internalType": "address",
          "name": "newInterestRateModel",
          "type": "address"
        }
      ],
      "name": "LogNewMarketInterestRateModel",
      "type": "event"
    },
    {
      "anonymous": false,
      "inputs": [
        {
          "indexed": false,
          "internalType": "address",
          "name": "redeemer",
          "type": "address"
        },
        {
          "indexed": false,
          "internalType": "uint256",
          "name": "redeemTokensIn",
          "type": "uint256"
        },
        {
          "indexed": false,
          "internalType": "uint256",
          "name": "redeemAmountIn",
          "type": "uint256"
        },
        {
          "indexed": false,
          "internalType": "uint256",
          "name": "redeemAmount",
          "type": "uint256"
        }
      ],
      "name": "LogRedeem",
      "type": "event"
    },
    {
      "anonymous": false,
      "inputs": [
        {
          "indexed": true,
          "internalType": "address",
          "name": "account",
          "type": "address"
        },
        {
          "indexed": false,
          "internalType": "uint256",
          "name": "amount",
          "type": "uint256"
        }
      ],
      "name": "LogRepay",
      "type": "event"
    },
    {
      "anonymous": false,
      "inputs": [
        {
          "indexed": false,
          "internalType": "address",
          "name": "reserver",
          "type": "address"
        },
        {
          "indexed": false,
          "internalType": "uint256",
          "name": "actualAddAmount",
          "type": "uint256"
        },
        {
          "indexed": false,
          "internalType": "uint256",
          "name": "totalReservesNew",
          "type": "uint256"
        }
      ],
      "name": "LogReservesAdded",
      "type": "event"
    },
    {
      "anonymous": false,
      "inputs": [
        {
          "indexed": false,
          "internalType": "address",
          "name": "receiver",
          "type": "address"
        },
        {
          "indexed": false,
          "internalType": "uint256",
          "name": "reduceAmount",
          "type": "uint256"
        },
        {
          "indexed": false,
          "internalType": "uint256",
          "name": "totalReservesNew",
          "type": "uint256"
        }
      ],
      "name": "LogReservesReduced",
      "type": "event"
    },
    {
      "anonymous": false,
      "inputs": [
        {
          "indexed": false,
          "internalType": "address",
          "name": "account",
          "type": "address"
        }
      ],
      "name": "Paused",
      "type": "event"
    },
    {
      "anonymous": false,
      "inputs": [
        {
          "indexed": true,
          "internalType": "bytes32",
          "name": "role",
          "type": "bytes32"
        },
        {
          "indexed": true,
          "internalType": "bytes32",
          "name": "previousAdminRole",
          "type": "bytes32"
        },
        {
          "indexed": true,
          "internalType": "bytes32",
          "name": "newAdminRole",
          "type": "bytes32"
        }
      ],
      "name": "RoleAdminChanged",
      "type": "event"
    },
    {
      "anonymous": false,
      "inputs": [
        {
          "indexed": true,
          "internalType": "bytes32",
          "name": "role",
          "type": "bytes32"
        },
        {
          "indexed": true,
          "internalType": "address",
          "name": "account",
          "type": "address"
        },
        {
          "indexed": true,
          "internalType": "address",
          "name": "sender",
          "type": "address"
        }
      ],
      "name": "RoleGranted",
      "type": "event"
    },
    {
      "anonymous": false,
      "inputs": [
        {
          "indexed": true,
          "internalType": "bytes32",
          "name": "role",
          "type": "bytes32"
        },
        {
          "indexed": true,
          "internalType": "address",
          "name": "account",
          "type": "address"
        },
        {
          "indexed": true,
          "internalType": "address",
          "name": "sender",
          "type": "address"
        }
      ],
      "name": "RoleRevoked",
      "type": "event"
    },
    {
      "anonymous": false,
      "inputs": [
        {
          "indexed": false,
          "internalType": "address",
          "name": "account",
          "type": "address"
        }
      ],
      "name": "Unpaused",
      "type": "event"
    },
    {
      "anonymous": false,
      "inputs": [
        {
          "indexed": true,
          "internalType": "address",
          "name": "implementation",
          "type": "address"
        }
      ],
      "name": "Upgraded",
      "type": "event"
    },
    {
      "inputs": [],
      "name": "DEFAULT_ADMIN_ROLE",
      "outputs": [
        {
          "internalType": "bytes32",
          "name": "",
          "type": "bytes32"
        }
      ],
      "stateMutability": "view",
      "type": "function"
    },
    {
      "inputs": [],
      "name": "IS_UTOKEN",
      "outputs": [
        {
          "internalType": "bool",
          "name": "",
          "type": "bool"
        }
      ],
      "stateMutability": "view",
      "type": "function"
    },
    {
      "inputs": [],
      "name": "ROLE_ADMIN",
      "outputs": [
        {
          "internalType": "bytes32",
          "name": "",
          "type": "bytes32"
        }
      ],
      "stateMutability": "view",
      "type": "function"
    },
    {
      "inputs": [],
      "name": "WAD",
      "outputs": [
        {
          "internalType": "uint256",
          "name": "",
          "type": "uint256"
        }
      ],
      "stateMutability": "view",
      "type": "function"
    },
    {
      "inputs": [
        {
          "internalType": "address",
          "name": "admin_",
          "type": "address"
        }
      ],
      "name": "__Controller_init",
      "outputs": [],
      "stateMutability": "nonpayable",
      "type": "function"
    },
    {
      "inputs": [
        {
          "internalType": "contract IUErc20",
          "name": "uErc20_",
          "type": "address"
        },
        {
          "internalType": "address",
          "name": "underlying_",
          "type": "address"
        },
        {
          "internalType": "uint256",
          "name": "initialExchangeRateMantissa_",
          "type": "uint256"
        },
        {
          "internalType": "uint256",
          "name": "reserveFactorMantissa_",
          "type": "uint256"
        },
        {
          "internalType": "uint256",
          "name": "originationFee_",
          "type": "uint256"
        },
        {
          "internalType": "uint256",
          "name": "debtCeiling_",
          "type": "uint256"
        },
        {
          "internalType": "uint256",
          "name": "maxBorrow_",
          "type": "uint256"
        },
        {
          "internalType": "uint256",
          "name": "minBorrow_",
          "type": "uint256"
        },
        {
          "internalType": "uint256",
          "name": "overdueBlocks_",
          "type": "uint256"
        },
        {
          "internalType": "address",
          "name": "admin_",
          "type": "address"
        }
      ],
      "name": "__UToken_init",
      "outputs": [],
      "stateMutability": "nonpayable",
      "type": "function"
    },
    {
      "inputs": [],
      "name": "accrualBlockNumber",
      "outputs": [
        {
          "internalType": "uint256",
          "name": "",
          "type": "uint256"
        }
      ],
      "stateMutability": "view",
      "type": "function"
    },
    {
      "inputs": [],
      "name": "accrueInterest",
      "outputs": [
        {
          "internalType": "bool",
          "name": "",
          "type": "bool"
        }
      ],
      "stateMutability": "nonpayable",
      "type": "function"
    },
    {
      "inputs": [
        {
          "internalType": "address",
          "name": "account",
          "type": "address"
        }
      ],
      "name": "addAdmin",
      "outputs": [],
      "stateMutability": "nonpayable",
      "type": "function"
    },
    {
      "inputs": [
        {
          "internalType": "uint256",
          "name": "addAmount",
          "type": "uint256"
        }
      ],
      "name": "addReserves",
      "outputs": [],
      "stateMutability": "nonpayable",
      "type": "function"
    },
    {
      "inputs": [],
      "name": "assetManager",
      "outputs": [
        {
          "internalType": "address",
          "name": "",
          "type": "address"
        }
      ],
      "stateMutability": "view",
      "type": "function"
    },
    {
      "inputs": [
        {
          "internalType": "address",
          "name": "owner",
          "type": "address"
        }
      ],
      "name": "balanceOfUnderlying",
      "outputs": [
        {
          "internalType": "uint256",
          "name": "",
          "type": "uint256"
        }
      ],
      "stateMutability": "nonpayable",
      "type": "function"
    },
    {
      "inputs": [
        {
          "internalType": "address[]",
          "name": "accounts",
          "type": "address[]"
        }
      ],
      "name": "batchUpdateOverdueInfos",
      "outputs": [],
      "stateMutability": "nonpayable",
      "type": "function"
    },
    {
      "inputs": [
        {
          "internalType": "uint256",
          "name": "amount",
          "type": "uint256"
        }
      ],
      "name": "borrow",
      "outputs": [],
      "stateMutability": "nonpayable",
      "type": "function"
    },
    {
      "inputs": [
        {
          "internalType": "address",
          "name": "account",
          "type": "address"
        }
      ],
      "name": "borrowBalanceView",
      "outputs": [
        {
          "internalType": "uint256",
          "name": "",
          "type": "uint256"
        }
      ],
      "stateMutability": "view",
      "type": "function"
    },
    {
      "inputs": [],
      "name": "borrowIndex",
      "outputs": [
        {
          "internalType": "uint256",
          "name": "",
          "type": "uint256"
        }
      ],
      "stateMutability": "view",
      "type": "function"
    },
    {
      "inputs": [],
      "name": "borrowRatePerBlock",
      "outputs": [
        {
          "internalType": "uint256",
          "name": "",
          "type": "uint256"
        }
      ],
      "stateMutability": "view",
      "type": "function"
    },
    {
      "inputs": [
        {
          "internalType": "uint256",
          "name": "amount",
          "type": "uint256"
        }
      ],
      "name": "calculatingFee",
      "outputs": [
        {
          "internalType": "uint256",
          "name": "",
          "type": "uint256"
        }
      ],
      "stateMutability": "view",
      "type": "function"
    },
    {
      "inputs": [
        {
          "internalType": "address",
          "name": "account",
          "type": "address"
        }
      ],
      "name": "calculatingInterest",
      "outputs": [
        {
          "internalType": "uint256",
          "name": "",
          "type": "uint256"
        }
      ],
      "stateMutability": "view",
      "type": "function"
    },
    {
      "inputs": [
        {
          "internalType": "address",
          "name": "account",
          "type": "address"
        }
      ],
      "name": "checkIsOverdue",
      "outputs": [
        {
          "internalType": "bool",
          "name": "isOverdue",
          "type": "bool"
        }
      ],
      "stateMutability": "view",
      "type": "function"
    },
    {
      "inputs": [],
      "name": "debtCeiling",
      "outputs": [
        {
          "internalType": "uint256",
          "name": "",
          "type": "uint256"
        }
      ],
      "stateMutability": "view",
      "type": "function"
    },
    {
      "inputs": [
        {
          "internalType": "address",
          "name": "borrower",
          "type": "address"
        },
        {
          "internalType": "uint256",
          "name": "amount",
          "type": "uint256"
        }
      ],
      "name": "debtWriteOff",
      "outputs": [],
      "stateMutability": "nonpayable",
      "type": "function"
    },
    {
      "inputs": [],
      "name": "exchangeRateCurrent",
      "outputs": [
        {
          "internalType": "uint256",
          "name": "",
          "type": "uint256"
        }
      ],
      "stateMutability": "nonpayable",
      "type": "function"
    },
    {
      "inputs": [],
      "name": "exchangeRateStored",
      "outputs": [
        {
          "internalType": "uint256",
          "name": "",
          "type": "uint256"
        }
      ],
      "stateMutability": "view",
      "type": "function"
    },
    {
      "inputs": [
        {
          "internalType": "address",
          "name": "account",
          "type": "address"
        }
      ],
      "name": "getBorrowed",
      "outputs": [
        {
          "internalType": "uint256",
          "name": "borrowed",
          "type": "uint256"
        }
      ],
      "stateMutability": "view",
      "type": "function"
    },
    {
      "inputs": [
        {
          "internalType": "address",
          "name": "account",
          "type": "address"
        }
      ],
      "name": "getInterestIndex",
      "outputs": [
        {
          "internalType": "uint256",
          "name": "interestIndex",
          "type": "uint256"
        }
      ],
      "stateMutability": "view",
      "type": "function"
    },
    {
      "inputs": [
        {
          "internalType": "address",
          "name": "account",
          "type": "address"
        }
      ],
      "name": "getLastRepay",
      "outputs": [
        {
          "internalType": "uint256",
          "name": "lastRepay",
          "type": "uint256"
        }
      ],
      "stateMutability": "view",
      "type": "function"
    },
    {
      "inputs": [
        {
          "internalType": "address",
          "name": "member",
          "type": "address"
        }
      ],
      "name": "getLoan",
      "outputs": [
        {
          "internalType": "uint256",
          "name": "principal",
          "type": "uint256"
        },
        {
          "internalType": "uint256",
          "name": "totalBorrowed",
          "type": "uint256"
        },
        {
          "internalType": "address",
          "name": "asset",
          "type": "address"
        },
        {
          "internalType": "uint256",
          "name": "apr",
          "type": "uint256"
        },
        {
          "internalType": "int256",
          "name": "limit",
          "type": "int256"
        },
        {
          "internalType": "bool",
          "name": "isOverdue",
          "type": "bool"
        },
        {
          "internalType": "uint256",
          "name": "lastRepay",
          "type": "uint256"
        }
      ],
      "stateMutability": "view",
      "type": "function"
    },
    {
      "inputs": [],
      "name": "getRemainingLoanSize",
      "outputs": [
        {
          "internalType": "uint256",
          "name": "",
          "type": "uint256"
        }
      ],
      "stateMutability": "view",
      "type": "function"
    },
    {
      "inputs": [
        {
          "internalType": "bytes32",
          "name": "role",
          "type": "bytes32"
        }
      ],
      "name": "getRoleAdmin",
      "outputs": [
        {
          "internalType": "bytes32",
          "name": "",
          "type": "bytes32"
        }
      ],
      "stateMutability": "view",
      "type": "function"
    },
    {
      "inputs": [
        {
          "internalType": "bytes32",
          "name": "role",
          "type": "bytes32"
        },
        {
          "internalType": "address",
          "name": "account",
          "type": "address"
        }
      ],
      "name": "grantRole",
      "outputs": [],
      "stateMutability": "nonpayable",
      "type": "function"
    },
    {
      "inputs": [
        {
          "internalType": "bytes32",
          "name": "role",
          "type": "bytes32"
        },
        {
          "internalType": "address",
          "name": "account",
          "type": "address"
        }
      ],
      "name": "hasRole",
      "outputs": [
        {
          "internalType": "bool",
          "name": "",
          "type": "bool"
        }
      ],
      "stateMutability": "view",
      "type": "function"
    },
    {
      "inputs": [],
      "name": "interestRateModel",
      "outputs": [
        {
          "internalType": "contract IInterestRateModel",
          "name": "",
          "type": "address"
        }
      ],
      "stateMutability": "view",
      "type": "function"
    },
    {
      "inputs": [
        {
          "internalType": "address",
          "name": "account",
          "type": "address"
        }
      ],
      "name": "isAdmin",
      "outputs": [
        {
          "internalType": "bool",
          "name": "",
          "type": "bool"
        }
      ],
      "stateMutability": "view",
      "type": "function"
    },
    {
      "inputs": [],
      "name": "maxBorrow",
      "outputs": [
        {
          "internalType": "uint256",
          "name": "",
          "type": "uint256"
        }
      ],
      "stateMutability": "view",
      "type": "function"
    },
    {
      "inputs": [],
      "name": "minBorrow",
      "outputs": [
        {
          "internalType": "uint256",
          "name": "",
          "type": "uint256"
        }
      ],
      "stateMutability": "view",
      "type": "function"
    },
    {
      "inputs": [
        {
          "internalType": "uint256",
          "name": "mintAmount",
          "type": "uint256"
        }
      ],
      "name": "mint",
      "outputs": [],
      "stateMutability": "nonpayable",
      "type": "function"
    },
    {
      "inputs": [],
      "name": "originationFee",
      "outputs": [
        {
          "internalType": "uint256",
          "name": "",
          "type": "uint256"
        }
      ],
      "stateMutability": "view",
      "type": "function"
    },
    {
      "inputs": [],
      "name": "overdueBlocks",
      "outputs": [
        {
          "internalType": "uint256",
          "name": "",
          "type": "uint256"
        }
      ],
      "stateMutability": "view",
      "type": "function"
    },
    {
      "inputs": [],
      "name": "pause",
      "outputs": [],
      "stateMutability": "nonpayable",
      "type": "function"
    },
    {
      "inputs": [],
      "name": "pauseGuardian",
      "outputs": [
        {
          "internalType": "address",
          "name": "",
          "type": "address"
        }
      ],
      "stateMutability": "view",
      "type": "function"
    },
    {
      "inputs": [],
      "name": "paused",
      "outputs": [
        {
          "internalType": "bool",
          "name": "",
          "type": "bool"
        }
      ],
      "stateMutability": "view",
      "type": "function"
    },
    {
      "inputs": [
        {
          "internalType": "uint256",
          "name": "redeemTokens",
          "type": "uint256"
        }
      ],
      "name": "redeem",
      "outputs": [],
      "stateMutability": "nonpayable",
      "type": "function"
    },
    {
      "inputs": [
        {
          "internalType": "uint256",
          "name": "redeemAmount",
          "type": "uint256"
        }
      ],
      "name": "redeemUnderlying",
      "outputs": [],
      "stateMutability": "nonpayable",
      "type": "function"
    },
    {
      "inputs": [
        {
          "internalType": "address",
          "name": "receiver",
          "type": "address"
        },
        {
          "internalType": "uint256",
          "name": "reduceAmount",
          "type": "uint256"
        }
      ],
      "name": "removeReserves",
      "outputs": [],
      "stateMutability": "nonpayable",
      "type": "function"
    },
    {
      "inputs": [],
      "name": "renounceAdmin",
      "outputs": [],
      "stateMutability": "nonpayable",
      "type": "function"
    },
    {
      "inputs": [
        {
          "internalType": "bytes32",
          "name": "role",
          "type": "bytes32"
        },
        {
          "internalType": "address",
          "name": "account",
          "type": "address"
        }
      ],
      "name": "renounceRole",
      "outputs": [],
      "stateMutability": "nonpayable",
      "type": "function"
    },
    {
      "inputs": [
        {
          "internalType": "uint256",
          "name": "repayAmount",
          "type": "uint256"
        }
      ],
      "name": "repayBorrow",
      "outputs": [],
      "stateMutability": "nonpayable",
      "type": "function"
    },
    {
      "inputs": [
        {
          "internalType": "address",
          "name": "borrower",
          "type": "address"
        },
        {
          "internalType": "uint256",
          "name": "repayAmount",
          "type": "uint256"
        }
      ],
      "name": "repayBorrowBehalf",
      "outputs": [],
      "stateMutability": "nonpayable",
      "type": "function"
    },
    {
      "inputs": [
        {
          "internalType": "address",
          "name": "borrower",
          "type": "address"
        },
        {
          "internalType": "uint256",
          "name": "amount",
          "type": "uint256"
        },
        {
          "internalType": "uint256",
          "name": "nonce",
          "type": "uint256"
        },
        {
          "internalType": "uint256",
          "name": "expiry",
          "type": "uint256"
        },
        {
          "internalType": "uint8",
          "name": "v",
          "type": "uint8"
        },
        {
          "internalType": "bytes32",
          "name": "r",
          "type": "bytes32"
        },
        {
          "internalType": "bytes32",
          "name": "s",
          "type": "bytes32"
        }
      ],
      "name": "repayBorrowWithPermit",
      "outputs": [],
      "stateMutability": "nonpayable",
      "type": "function"
    },
    {
      "inputs": [],
      "name": "reserveFactorMantissa",
      "outputs": [
        {
          "internalType": "uint256",
          "name": "",
          "type": "uint256"
        }
      ],
      "stateMutability": "view",
      "type": "function"
    },
    {
      "inputs": [
        {
          "internalType": "bytes32",
          "name": "role",
          "type": "bytes32"
        },
        {
          "internalType": "address",
          "name": "account",
          "type": "address"
        }
      ],
      "name": "revokeRole",
      "outputs": [],
      "stateMutability": "nonpayable",
      "type": "function"
    },
    {
      "inputs": [
        {
          "internalType": "address",
          "name": "assetManager_",
          "type": "address"
        }
      ],
      "name": "setAssetManager",
      "outputs": [],
      "stateMutability": "nonpayable",
      "type": "function"
    },
    {
      "inputs": [
        {
          "internalType": "uint256",
          "name": "debtCeiling_",
          "type": "uint256"
        }
      ],
      "name": "setDebtCeiling",
      "outputs": [],
      "stateMutability": "nonpayable",
      "type": "function"
    },
    {
      "inputs": [
        {
          "internalType": "address",
          "name": "account",
          "type": "address"
        }
      ],
      "name": "setGuardian",
      "outputs": [],
      "stateMutability": "nonpayable",
      "type": "function"
    },
    {
      "inputs": [
        {
          "internalType": "address",
          "name": "newInterestRateModel",
          "type": "address"
        }
      ],
      "name": "setInterestRateModel",
      "outputs": [],
      "stateMutability": "nonpayable",
      "type": "function"
    },
    {
      "inputs": [
        {
          "internalType": "uint256",
          "name": "maxBorrow_",
          "type": "uint256"
        }
      ],
      "name": "setMaxBorrow",
      "outputs": [],
      "stateMutability": "nonpayable",
      "type": "function"
    },
    {
      "inputs": [
        {
          "internalType": "uint256",
          "name": "minBorrow_",
          "type": "uint256"
        }
      ],
      "name": "setMinBorrow",
      "outputs": [],
      "stateMutability": "nonpayable",
      "type": "function"
    },
    {
      "inputs": [
        {
          "internalType": "uint256",
          "name": "originationFee_",
          "type": "uint256"
        }
      ],
      "name": "setOriginationFee",
      "outputs": [],
      "stateMutability": "nonpayable",
      "type": "function"
    },
    {
      "inputs": [
        {
          "internalType": "uint256",
          "name": "overdueBlocks_",
          "type": "uint256"
        }
      ],
      "name": "setOverdueBlocks",
      "outputs": [],
      "stateMutability": "nonpayable",
      "type": "function"
    },
    {
      "inputs": [
        {
          "internalType": "uint256",
          "name": "reserveFactorMantissa_",
          "type": "uint256"
        }
      ],
      "name": "setReserveFactor",
      "outputs": [],
      "stateMutability": "nonpayable",
      "type": "function"
    },
    {
      "inputs": [
        {
          "internalType": "address",
          "name": "userManager_",
          "type": "address"
        }
      ],
      "name": "setUserManager",
      "outputs": [],
      "stateMutability": "nonpayable",
      "type": "function"
    },
    {
      "inputs": [],
      "name": "supplyRatePerBlock",
      "outputs": [
        {
          "internalType": "uint256",
          "name": "",
          "type": "uint256"
        }
      ],
      "stateMutability": "view",
      "type": "function"
    },
    {
      "inputs": [
        {
          "internalType": "bytes4",
          "name": "interfaceId",
          "type": "bytes4"
        }
      ],
      "name": "supportsInterface",
      "outputs": [
        {
          "internalType": "bool",
          "name": "",
          "type": "bool"
        }
      ],
      "stateMutability": "view",
      "type": "function"
    },
    {
      "inputs": [],
      "name": "totalBorrows",
      "outputs": [
        {
          "internalType": "uint256",
          "name": "",
          "type": "uint256"
        }
      ],
      "stateMutability": "view",
      "type": "function"
    },
    {
      "inputs": [],
      "name": "totalRedeemable",
      "outputs": [
        {
          "internalType": "uint256",
          "name": "",
          "type": "uint256"
        }
      ],
      "stateMutability": "view",
      "type": "function"
    },
    {
      "inputs": [],
      "name": "totalReserves",
      "outputs": [
        {
          "internalType": "uint256",
          "name": "",
          "type": "uint256"
        }
      ],
      "stateMutability": "view",
      "type": "function"
    },
    {
      "inputs": [],
      "name": "uErc20",
      "outputs": [
        {
          "internalType": "contract IUErc20",
          "name": "",
          "type": "address"
        }
      ],
      "stateMutability": "view",
      "type": "function"
    },
    {
      "inputs": [],
      "name": "underlying",
      "outputs": [
        {
          "internalType": "address",
          "name": "",
          "type": "address"
        }
      ],
      "stateMutability": "view",
      "type": "function"
    },
    {
      "inputs": [],
      "name": "unpause",
      "outputs": [],
      "stateMutability": "nonpayable",
      "type": "function"
    },
    {
      "inputs": [
        {
          "internalType": "address",
          "name": "account",
          "type": "address"
        }
      ],
      "name": "updateOverdueInfo",
      "outputs": [],
      "stateMutability": "nonpayable",
      "type": "function"
    },
    {
      "inputs": [
        {
          "internalType": "address",
          "name": "newImplementation",
          "type": "address"
        }
      ],
      "name": "upgradeTo",
      "outputs": [],
      "stateMutability": "nonpayable",
      "type": "function"
    },
    {
      "inputs": [
        {
          "internalType": "address",
          "name": "newImplementation",
          "type": "address"
        },
        {
          "internalType": "bytes",
          "name": "data",
          "type": "bytes"
        }
      ],
      "name": "upgradeToAndCall",
      "outputs": [],
      "stateMutability": "payable",
      "type": "function"
    },
    {
      "inputs": [],
      "name": "userManager",
      "outputs": [
        {
          "internalType": "address",
          "name": "",
          "type": "address"
        }
      ],
      "stateMutability": "view",
      "type": "function"
    }
  ],
  "transactionHash": "0x0fc5c6a6acb16da415c0188cd97aec421a04bf895fafd297ae9cefe908c906b2",
  "args": [],
  "solcInputHash": "815da1a7bd393b91c2edbc66164c6945",
  "bytecode": "0x608060405234801561001057600080fd5b506156b3806100206000396000f3fe6080604052600436106104315760003560e01c80636d2d1e5811610229578063a0712d681161012e578063bd6d894d116100b6578063e1c84ea41161007a578063e1c84ea414611084578063f3fdb15a1461109b578063f7763b3a146110bc578063f8f9da2814611116578063fb3b43f01461112b57600080fd5b8063bd6d894d14610fc0578063c5ebeaec14610fd5578063d391014b14610fff578063d547741f14611021578063db006a751461105a57600080fd5b8063ae9d70b0116100fd578063ae9d70b014610eb4578063b1511cc914610ec9578063b84dd68314610ef3578063b8845f7514610f70578063b8bb5c4214610fa957600080fd5b8063a0712d6814610e49578063a217fddf14610e73578063a6afed9514610e88578063aa5af0fd14610e9d57600080fd5b80638bad0c0a116101b15780638ff45d37116101805780638ff45d3714610d5657806391d1485414610d8957806394217ad114610dc257806397d0b02c14610de35780639b53307a14610e1657600080fd5b80638bad0c0a14610cc45780638bcd401614610cd95780638c2c351f14610d0c5780638f840ddd14610d3f57600080fd5b80637821a514116101f85780637821a51414610bfe5780637f2006a014610c285780638456cb5914610c52578063852a12e314610c675780638a0dac4a14610c9157600080fd5b80636d2d1e5814610b075780636f307dc314610b3a5780637048027514610b5b57806376a2e17b14610b8e57600080fd5b80633659cfe61161033a5780634f1ef286116102c2578063613ae34911610286578063613ae34914610a60578063626cca9e14610a775780636a14602414610aa15780636c461a7314610abd5780636c540baf14610af057600080fd5b80634f1ef286146108f75780635c8a7687146109ad5780635c975abb146109ce5780635f4cbedb146109e65780636011163e14610a1f57600080fd5b80633ffb54d1116103095780633ffb54d11461084d578063418f490914610877578063430602371461089857806347bd3718146108cb5780634c196bfb146108e257600080fd5b80633659cfe6146107a85780633af9e669146107db5780633bffb9a51461080e5780633f4ba83a1461083857600080fd5b8063248a9ca3116103bd5780632608f8181161038c5780632608f818146106715780632f2ff15d146106aa5780632fac0266146106e357806333481fc9146106fa57806336568abe1461076f57600080fd5b8063248a9ca31461057f57806324a3d622146105b957806324d7806c146105fa5780632592fb671461062d57600080fd5b8063182df0f511610404578063182df0f5146104ea5780631c446983146104ff5780631d54164b146105295780631edbcf6c1461055357806320bcc5591461056a57600080fd5b806301ffc9a7146104365780630cc0bfa51461047e5780630e752702146104a7578063173b9904146104d3575b600080fd5b34801561044257600080fd5b5061046a6004803603602081101561045957600080fd5b50356001600160e01b03191661116f565b604080519115158252519081900360200190f35b34801561048a57600080fd5b5061049561016d5481565b60408051918252519081900360200190f35b3480156104b357600080fd5b506104d1600480360360208110156104ca57600080fd5b50356111a6565b005b3480156104df57600080fd5b506104956101645481565b3480156104f657600080fd5b50610495611210565b34801561050b57600080fd5b506104d16004803603602081101561052257600080fd5b50356112c6565b34801561053557600080fd5b506104d16004803603602081101561054c57600080fd5b503561135d565b34801561055f57600080fd5b506104956101695481565b34801561057657600080fd5b5061046a600181565b34801561058b57600080fd5b50610495600480360360208110156105a257600080fd5b5035600090815260c9602052604090206001015490565b3480156105c557600080fd5b5060fc546105de9061010090046001600160a01b031681565b604080516001600160a01b039092168252519081900360200190f35b34801561060657600080fd5b5061046a6004803603602081101561061d57600080fd5b50356001600160a01b0316611397565b34801561063957600080fd5b506104956004803603602081101561065057600080fd5b50356001600160a01b03166000908152610172602052604090206003015490565b34801561067d57600080fd5b506104d16004803603604081101561069457600080fd5b506001600160a01b0381351690602001356113b1565b3480156106b657600080fd5b506104d1600480360360408110156106cd57600080fd5b50803590602001356001600160a01b0316611413565b3480156106ef57600080fd5b5061049561016e5481565b34801561070657600080fd5b5061072d6004803603602081101561071d57600080fd5b50356001600160a01b031661143e565b6040805197885260208801969096526001600160a01b039094168686015260608601929092526080850152151560a084015260c0830152519081900360e00190f35b34801561077b57600080fd5b506104d16004803603604081101561079257600080fd5b50803590602001356001600160a01b03166114c0565b3480156107b457600080fd5b506104d1600480360360208110156107cb57600080fd5b50356001600160a01b031661153e565b3480156107e757600080fd5b50610495600480360360208110156107fe57600080fd5b50356001600160a01b0316611565565b34801561081a57600080fd5b506104d16004803603602081101561083157600080fd5b50356115f5565b34801561084457600080fd5b506104d161162f565b34801561085957600080fd5b506104d16004803603602081101561087057600080fd5b50356116e9565b34801561088357600080fd5b50610171546105de906001600160a01b031681565b3480156108a457600080fd5b506104d1600480360360208110156108bb57600080fd5b50356001600160a01b0316611723565b3480156108d757600080fd5b506104956101675481565b3480156108ee57600080fd5b5061049561177a565b6104d16004803603604081101561090d57600080fd5b6001600160a01b03823516919081019060408101602082013564010000000081111561093857600080fd5b82018360208201111561094a57600080fd5b8035906020019184600183028401116401000000008311171561096c57600080fd5b91908080601f0160208091040260200160405190810160405280939291908181526020018383808284376000920191909152509295506117a6945050505050565b3480156109b957600080fd5b50610170546105de906001600160a01b031681565b3480156109da57600080fd5b5060fc5460ff1661046a565b3480156109f257600080fd5b506104d160048036036040811015610a0957600080fd5b506001600160a01b0381351690602001356117bb565b348015610a2b57600080fd5b5061049560048036036020811015610a4257600080fd5b50356001600160a01b03166000908152610172602052604090205490565b348015610a6c57600080fd5b5061049561016a5481565b348015610a8357600080fd5b5061049560048036036020811015610a9a57600080fd5b5035611a5f565b348015610aad57600080fd5b50610495670de0b6b3a764000081565b348015610ac957600080fd5b506104d160048036036020811015610ae057600080fd5b50356001600160a01b0316611a83565b348015610afc57600080fd5b506104956101655481565b348015610b1357600080fd5b5061049560048036036020811015610b2a57600080fd5b50356001600160a01b0316611bb3565b348015610b4657600080fd5b50610161546105de906001600160a01b031681565b348015610b6757600080fd5b506104d160048036036020811015610b7e57600080fd5b50356001600160a01b0316611cd6565b348015610b9a57600080fd5b506104d16004803603610140811015610bb257600080fd5b506001600160a01b038135811691602081013582169160408201359160608101359160808201359160a08101359160c08201359160e08101359161010082013591610120013516611e0e565b348015610c0a57600080fd5b506104d160048036036020811015610c2157600080fd5b5035612000565b348015610c3457600080fd5b506104d160048036036020811015610c4b57600080fd5b5035612448565b348015610c5e57600080fd5b506104d1612482565b348015610c7357600080fd5b506104d160048036036020811015610c8a57600080fd5b5035612511565b348015610c9d57600080fd5b506104d160048036036020811015610cb457600080fd5b50356001600160a01b03166125b1565b348015610cd057600080fd5b506104d161260d565b348015610ce557600080fd5b506104d160048036036020811015610cfc57600080fd5b50356001600160a01b0316612644565b348015610d1857600080fd5b5061049560048036036020811015610d2f57600080fd5b50356001600160a01b0316612681565b348015610d4b57600080fd5b506104956101685481565b348015610d6257600080fd5b506104d160048036036020811015610d7957600080fd5b50356001600160a01b03166126b0565b348015610d9557600080fd5b5061046a60048036036040811015610dac57600080fd5b50803590602001356001600160a01b0316612752565b348015610dce57600080fd5b5061016f546105de906001600160a01b031681565b348015610def57600080fd5b506104d160048036036020811015610e0657600080fd5b50356001600160a01b031661277d565b348015610e2257600080fd5b5061046a60048036036020811015610e3957600080fd5b50356001600160a01b03166127d4565b348015610e5557600080fd5b506104d160048036036020811015610e6c57600080fd5b503561282f565b348015610e7f57600080fd5b50610495600081565b348015610e9457600080fd5b5061046a612cbb565b348015610ea957600080fd5b506104956101665481565b348015610ec057600080fd5b50610495612d72565b348015610ed557600080fd5b506104d160048036036020811015610eec57600080fd5b5035612df4565b348015610eff57600080fd5b506104d160048036036020811015610f1657600080fd5b810190602081018135640100000000811115610f3157600080fd5b820183602082011115610f4357600080fd5b80359060200191846020830284011164010000000083111715610f6557600080fd5b509092509050612e2e565b348015610f7c57600080fd5b506104d160048036036040811015610f9357600080fd5b506001600160a01b038135169060200135612f50565b348015610fb557600080fd5b5061049561016b5481565b348015610fcc57600080fd5b5061049561302f565b348015610fe157600080fd5b506104d160048036036020811015610ff857600080fd5b50356130b5565b34801561100b57600080fd5b506104956000805160206154db83398151915281565b34801561102d57600080fd5b506104d16004803603604081101561104457600080fd5b50803590602001356001600160a01b0316613761565b34801561106657600080fd5b506104d16004803603602081101561107d57600080fd5b5035613787565b34801561109057600080fd5b5061049561016c5481565b3480156110a757600080fd5b50610162546105de906001600160a01b031681565b3480156110c857600080fd5b506104d1600480360360e08110156110df57600080fd5b506001600160a01b038135169060208101359060408101359060608101359060ff6080820135169060a08101359060c00135613827565b34801561112257600080fd5b506104956138f8565b34801561113757600080fd5b506104956004803603602081101561114e57600080fd5b50356001600160a01b03166000908152610172602052604090206002015490565b60006001600160e01b03198216637965db0b60e01b14806111a057506301ffc9a760e01b6001600160e01b03198316145b92915050565b60fc5460ff16156111d25760405162461bcd60e51b81526004016111c990615308565b60405180910390fd5b600261012f5414156111f65760405162461bcd60e51b81526004016111c9906152d1565b600261012f556112073380836139d8565b50600161012f55565b60008061017160009054906101000a90046001600160a01b03166001600160a01b03166318160ddd6040518163ffffffff1660e01b815260040160206040518083038186803b15801561126257600080fd5b505afa158015611276573d6000803e3d6000fd5b505050506040513d602081101561128c57600080fd5b505190508061129e5750506101635490565b80670de0b6b3a7640000610169546112b6919061536c565b6112c0919061534c565b91505090565b6112de6000805160206154db83398151915233612752565b6112fa5760405162461bcd60e51b81526004016111c990615202565b670de0b6b3a7640000811115611357576040805162461bcd60e51b815260206004820152601b60248201527f72657365727665466163746f724d616e7469737361206572726f720000000000604482015290519081900360640190fd5b61016455565b6113756000805160206154db83398151915233612752565b6113915760405162461bcd60e51b81526004016111c990615202565b61016d55565b60006111a06000805160206154db83398151915283612752565b60fc5460ff16156113d45760405162461bcd60e51b81526004016111c990615308565b600261012f5414156113f85760405162461bcd60e51b81526004016111c9906152d1565b600261012f556114093383836139d8565b5050600161012f55565b600082815260c9602052604090206001015461142f8133614038565b611439838361409c565b505050565b336000908152610172602052604081205490808080808061145e88614122565b610161549096506001600160a01b031694506114786138f8565b935061149d886001600160a01b03166000908152610172602052604090206003015490565b90506114a8886141b6565b92506114b3886127d4565b9150919395979092949650565b6001600160a01b03811633146115305760405162461bcd60e51b815260206004820152602f60248201527f416363657373436f6e74726f6c3a2063616e206f6e6c792072656e6f756e636560448201526e103937b632b9903337b91039b2b63360891b60648201526084016111c9565b61153a828261423a565b5050565b611547816142a1565b611562816040518060200160405280600081525060006142d5565b50565b61017154604080516370a0823160e01b81526001600160a01b038481166004830152915160009392909216916370a0823191602480820192602092909190829003018186803b1580156115b757600080fd5b505afa1580156115cb573d6000803e3d6000fd5b505050506040513d60208110156115e157600080fd5b50516115eb61302f565b6111a0919061536c565b61160d6000805160206154db83398151915233612752565b6116295760405162461bcd60e51b81526004016111c990615202565b61016a55565b60fc5461010090046001600160a01b0316331461165e5760405162461bcd60e51b81526004016111c990615231565b60fc5460ff166116a95760405162461bcd60e51b815260206004820152601660248201527510dbdb9d1c9bdb1b195c8e881b9bdd081c185d5cd95960521b60448201526064016111c9565b60fc805460ff191690556040513381527f5db9ee0a495bf2e6ff9c91a7834c1ba4fdd244a5e8aa4e537bd38aeae4b073aa906020015b60405180910390a1565b6117016000805160206154db83398151915233612752565b61171d5760405162461bcd60e51b81526004016111c990615202565b61016e55565b61173b6000805160206154db83398151915233612752565b6117575760405162461bcd60e51b81526004016111c990615202565b61016f80546001600160a01b0319166001600160a01b0392909216919091179055565b60006101675461016c54106117a0576101675461016c5461179b919061538b565b905090565b50600090565b6117af826142a1565b61153a828260016142d5565b60fc5460ff16156117de5760405162461bcd60e51b81526004016111c990615308565b600261012f5414156118025760405162461bcd60e51b81526004016111c9906152d1565b600261012f556118206000805160206154db83398151915233612752565b61183c5760405162461bcd60e51b81526004016111c990615202565b611844612cbb565b611883576040805162461bcd60e51b815260206004820152601e602482015260008051602061554d833981519152604482015290519081900360640190fd5b610168548111156118c55760405162461bcd60e51b81526004018080602001828103825260228152602001806154b96022913960400191505060405180910390fd5b61016f54610168546001600160a01b03909116906000906118e790849061538b565b90506101685481111561192b5760405162461bcd60e51b815260040180806020018281038252602481526020018061565a6024913960400191505060405180910390fd5b6101688190556101615460408051636ce5768960e11b81526001600160a01b03928316600482015286831660248201526044810186905290519184169163d9caed12916064808201926020929091908290030181600087803b15801561199057600080fd5b505af11580156119a4573d6000803e3d6000fd5b505050506040513d60208110156119ba57600080fd5b5051611a0a576040805162461bcd60e51b815260206004820152601a60248201527955546f6b656e3a204661696c656420746f20776974686472617760301b604482015290519081900360640190fd5b604080516001600160a01b03861681526020810185905280820183905290517f3935a21c4c6c0ed8a59526c636d4ec1f88fed93a0d52f7f279a398bb5ff3929c9181900360600190a15050600161012f555050565b6000670de0b6b3a76400008261016b54611a79919061536c565b6111a0919061534c565b600054610100900460ff1680611a9c575060005460ff16155b611ab85760405162461bcd60e51b81526004016111c990615283565b600054610100900460ff16158015611ada576000805461ffff19166101011790555b6001600160a01b038216611b2b5760405162461bcd60e51b8152602060048201526018602482015277436f6e74726f6c6c65723a2061646472657373207a65726f60401b60448201526064016111c9565b60fc805460ff191690556001600160a01b038216600081815260fb6020526040902080546001600160a01b0319169091179055611b66614456565b611b7e6000805160206154db833981519152836144d1565b60fc8054610100600160a81b0319166101006001600160a01b03851602179055801561153a576000805461ff00191690555050565b6001600160a01b0381166000908152610172602090815260408083208151608081018352815480825260018301549482019490945260028201549281019290925260030154606082015290611c0b5750600092915050565b6000611c156138f8565b610165549091504390600090611c2b908361538b565b90506000611c39828561536c565b61016654909150600090670de0b6b3a7640000611c56828561536c565b611c60919061534c565b611c6a9190615334565b905060008187602001518860000151611c839190615334565b611c8d919061536c565b90506000876040015182611ca1919061534c565b6001600160a01b038b1660009081526101726020526040902054909150611cc8908261538b565b9a9950505050505050505050565b611cee6000805160206154db83398151915233612752565b611d0a5760405162461bcd60e51b81526004016111c990615202565b6001600160a01b038116611d5b5760405162461bcd60e51b8152602060048201526018602482015277436f6e74726f6c6c65723a2061646472657373207a65726f60401b60448201526064016111c9565b6001600160a01b03818116600090815260fb60205260409020541615611dcd5760405162461bcd60e51b815260206004820152602160248201527f436f6e74726f6c6c65723a2061646d696e20616c7265616479206578697374656044820152601960fa1b60648201526084016111c9565b6001600160a01b038116600081815260fb6020526040902080546001600160a01b03191690911790556115626000805160206154db833981519152826144d1565b600054610100900460ff1680611e27575060005460ff16155b611e435760405162461bcd60e51b81526004016111c990615283565b600054610100900460ff16158015611e65576000805461ffff19166101011790555b60008911611ea45760405162461bcd60e51b81526004018080602001828103825260308152602001806154686030913960400191505060405180910390fd5b6001600160a01b038a16611eff576040805162461bcd60e51b815260206004820152601860248201527f756e6465726c79696e6720746f6b656e206973207a65726f0000000000000000604482015290519081900360640190fd5b670de0b6b3a7640000881115611f5c576040805162461bcd60e51b815260206004820152601b60248201527f72657365727665466163746f724d616e7469737361206572726f720000000000604482015290519081900360640190fd5b61017180546001600160a01b0319166001600160a01b038d16179055611f8182611a83565b611f896144db565b61016180546001600160a01b0319166001600160a01b038c1617905561016b87905561016c86905561016d85905561016e84905561016a8390556101638990556101648890554361016555670de0b6b3a7640000610166558015611ff3576000805461ff00191690555b5050505050505050505050565b60fc5460ff16156120235760405162461bcd60e51b81526004016111c990615308565b600261012f5414156120475760405162461bcd60e51b81526004016111c9906152d1565b600261012f55612055612cbb565b612094576040805162461bcd60e51b815260206004820152601e602482015260008051602061554d833981519152604482015290519081900360640190fd5b61016154604080516370a0823160e01b815230600482015290516001600160a01b039092169160009183916370a0823191602480820192602092909190829003018186803b1580156120e557600080fd5b505afa1580156120f9573d6000803e3d6000fd5b505050506040513d602081101561210f57600080fd5b505160408051636eb1769f60e11b8152336004820152306024820152905191925084916001600160a01b0385169163dd62ed3e916044808301926020929190829003018186803b15801561216257600080fd5b505afa158015612176573d6000803e3d6000fd5b505050506040513d602081101561218c57600080fd5b505110156121e1576040805162461bcd60e51b815260206004820152601c60248201527f55546f6b656e3a204e6f7420656e6f75676820616c6c6f77616e636500000000604482015290519081900360640190fd5b6121f66001600160a01b03831633308661453a565b6000826001600160a01b03166370a08231306040518263ffffffff1660e01b815260040180826001600160a01b0316815260200191505060206040518083038186803b15801561224557600080fd5b505afa158015612259573d6000803e3d6000fd5b505050506040513d602081101561226f57600080fd5b50519050600061227f838361538b565b9050600081610168546122929190615334565b9050610168548110156122ec576040805162461bcd60e51b815260206004820181905260248201527f61646420726573657276657320756e6578706563746564206f766572666c6f77604482015290519081900360640190fd5b61016881905561016f5461230e906001600160a01b03878116911660006145ab565b61016f54612329906001600160a01b038781169116856145ab565b61016f5461016154604080516311f9fbc960e21b81526001600160a01b03928316600482015260248101879052905191909216916347e7ef249160448083019260209291908290030181600087803b15801561238457600080fd5b505af1158015612398573d6000803e3d6000fd5b505050506040513d60208110156123ae57600080fd5b50516123fa576040805162461bcd60e51b815260206004820152601660248201527515551bdad95b8e8811195c1bdcda5d0819985a5b195960521b604482015290519081900360640190fd5b604080513381526020810184905280820183905290517f028de5691a4350cc942bc5300a512d556819f5d7bf9c4d2eec2feb4e4fa1bab19181900360600190a15050600161012f5550505050565b6124606000805160206154db83398151915233612752565b61247c5760405162461bcd60e51b81526004016111c990615202565b61016b55565b60fc5461010090046001600160a01b031633146124b15760405162461bcd60e51b81526004016111c990615231565b60fc5460ff16156124d45760405162461bcd60e51b81526004016111c990615308565b60fc805460ff191660011790556040513381527f62e78cea01bee320cd4e420270b5ea74000d11b0c9f74754ebdbfc544b05a258906020016116df565b60fc5460ff16156125345760405162461bcd60e51b81526004016111c990615308565b600261012f5414156125585760405162461bcd60e51b81526004016111c9906152d1565b600261012f55612566612cbb565b6125a5576040805162461bcd60e51b815260206004820152601e602482015260008051602061554d833981519152604482015290519081900360640190fd5b611207336000836146cf565b6125c96000805160206154db83398151915233612752565b6125e55760405162461bcd60e51b81526004016111c990615202565b60fc80546001600160a01b0390921661010002610100600160a81b0319909216919091179055565b6126256000805160206154db833981519152336114c0565b33600090815260fb6020526040902080546001600160a01b0319169055565b61265c6000805160206154db83398151915233612752565b6126785760405162461bcd60e51b81526004016111c990615202565b61156281614987565b600061268c82611bb3565b6001600160a01b038316600090815261017260205260409020546111a09190615334565b60fc5460ff16156126d35760405162461bcd60e51b81526004016111c990615308565b6126dc816127d4565b1561156257610170546040805163591d637d60e01b81526001600160a01b038481166004830152600160248301529151919092169163591d637d91604480830192600092919082900301818387803b15801561273757600080fd5b505af115801561274b573d6000803e3d6000fd5b5050505050565b600091825260c9602090815260408084206001600160a01b0393909316845291905290205460ff1690565b6127956000805160206154db83398151915233612752565b6127b15760405162461bcd60e51b81526004016111c990615202565b61017080546001600160a01b0319166001600160a01b0392909216919091179055565b6001600160a01b038116600090815261017260205260408120546127fa57506000919050565b6001600160a01b0382166000908152610172602052604081206003015490612822824361538b565b61016a5410949350505050565b60fc5460ff16156128525760405162461bcd60e51b81526004016111c990615308565b600261012f5414156128765760405162461bcd60e51b81526004016111c9906152d1565b600261012f55612884612cbb565b6128c3576040805162461bcd60e51b815260206004820152601e602482015260008051602061554d833981519152604482015290519081900360640190fd5b60006128cd611210565b61016154604080516370a0823160e01b815230600482015290519293506001600160a01b039091169160009183916370a0823191602480820192602092909190829003018186803b15801561292157600080fd5b505afa158015612935573d6000803e3d6000fd5b505050506040513d602081101561294b57600080fd5b505160408051636eb1769f60e11b8152336004820152306024820152905191925085916001600160a01b0385169163dd62ed3e916044808301926020929190829003018186803b15801561299e57600080fd5b505afa1580156129b2573d6000803e3d6000fd5b505050506040513d60208110156129c857600080fd5b50511015612a1d576040805162461bcd60e51b815260206004820152601c60248201527f55546f6b656e3a204e6f7420656e6f75676820616c6c6f77616e636500000000604482015290519081900360640190fd5b612a326001600160a01b03831633308761453a565b6000826001600160a01b03166370a08231306040518263ffffffff1660e01b815260040180826001600160a01b0316815260200191505060206040518083038186803b158015612a8157600080fd5b505afa158015612a95573d6000803e3d6000fd5b505050506040513d6020811015612aab57600080fd5b505190506000612abb838361538b565b9050806101696000828254612ad09190615334565b909155506000905085612aeb670de0b6b3a76400008461536c565b612af5919061534c565b61017154604080516340c10f1960e01b81523360048201526024810184905290519293506001600160a01b03909116916340c10f199160448082019260009290919082900301818387803b158015612b4c57600080fd5b505af1158015612b60573d6000803e3d6000fd5b505061016f54612b8092506001600160a01b0388811692501660006145ab565b61016f54612b9b906001600160a01b038781169116846145ab565b61016f5461016154604080516311f9fbc960e21b81526001600160a01b03928316600482015260248101869052905191909216916347e7ef249160448083019260209291908290030181600087803b158015612bf657600080fd5b505af1158015612c0a573d6000803e3d6000fd5b505050506040513d6020811015612c2057600080fd5b5051612c6c576040805162461bcd60e51b815260206004820152601660248201527515551bdad95b8e8811195c1bdcda5d0819985a5b195960521b604482015290519081900360640190fd5b604080513381526020810184905280820183905290517fa82a7ea15c804d00dba1b969024b510969fde70fac8e0d5da860cf1f7376d3179181900360600190a15050600161012f555050505050565b600080612cc66138f8565b610165549091504390600090612cdc908361538b565b90506000612cea828561536c565b90506000670de0b6b3a76400006101675483612d06919061536c565b612d10919061534c565b905060006101675482612d239190615334565b61016654909150600090670de0b6b3a7640000612d40828761536c565b612d4a919061534c565b612d549190615334565b61016596909655506101669490945550505061016755506001919050565b61016254610164546040805163d955759d60e01b81526004810192909252516000926001600160a01b03169163d955759d916024808301926020929190829003018186803b158015612dc357600080fd5b505afa158015612dd7573d6000803e3d6000fd5b505050506040513d6020811015612ded57600080fd5b5051919050565b612e0c6000805160206154db83398151915233612752565b612e285760405162461bcd60e51b81526004016111c990615202565b61016c55565b60fc5460ff1615612e515760405162461bcd60e51b81526004016111c990615308565b60005b8181101561143957612e94838383818110612e7f57634e487b7160e01b600052603260045260246000fd5b905060200201356001600160a01b03166127d4565b15612f3e57610170546001600160a01b031663591d637d848484818110612ecb57634e487b7160e01b600052603260045260246000fd5b905060200201356001600160a01b031660016040518363ffffffff1660e01b815260040180836001600160a01b03168152602001821515815260200192505050600060405180830381600087803b158015612f2557600080fd5b505af1158015612f39573d6000803e3d6000fd5b505050505b80612f48816153e5565b915050612e54565b60fc5460ff1615612f735760405162461bcd60e51b81526004016111c990615308565b610170546001600160a01b03163314612fbd5760405162461bcd60e51b81526004018080602001828103825260218152602001806154986021913960400191505060405180910390fd5b6001600160a01b038216600090815261017260205260408120549081831115612fe7575080612fea565b50815b612ff4818361538b565b6001600160a01b03851660009081526101726020526040812091909155610167805483929061302490849061538b565b909155505050505050565b6000600261012f5414156130555760405162461bcd60e51b81526004016111c9906152d1565b600261012f55613063612cbb565b6130a2576040805162461bcd60e51b815260206004820152601e602482015260008051602061554d833981519152604482015290519081900360640190fd5b6130aa611210565b9050600161012f5590565b61017054604080516321d2a57360e01b81523360048201819052915191926001600160a01b0316916321d2a57391602480820192602092909190829003018186803b15801561310357600080fd5b505afa158015613117573d6000803e3d6000fd5b505050506040513d602081101561312d57600080fd5b5051613180576040805162461bcd60e51b815260206004820152601e60248201527f55546f6b656e3a2063616c6c6572206973206e6f742061206d656d6265720000604482015290519081900360640190fd5b60fc5460ff16156131a35760405162461bcd60e51b81526004016111c990615308565b600261012f5414156131c75760405162461bcd60e51b81526004016111c9906152d1565b600261012f5561016f5461016e546001600160a01b039091169083101561321f5760405162461bcd60e51b81526004018080602001828103825260268152602001806156346026913960400191505060405180910390fd5b61322761177a565b8311156132655760405162461bcd60e51b815260040180806020018281038252602d815260200180615596602d913960400191505060405180910390fd5b600061327084611a5f565b905061016d54818561328133612681565b61328b9190615334565b6132959190615334565b11156132d25760405162461bcd60e51b815260040180806020018281038252602981526020018061556d6029913960400191505060405180910390fd5b6132db336127d4565b1561332d576040805162461bcd60e51b815260206004820181905260248201527f55546f6b656e3a204d656d62657220686173206c6f616e73206f766572647565604482015290519081900360640190fd5b61016154604080516270341160e01b81526001600160a01b0392831660048201529051918416916270341191602480820192602092909190829003018186803b15801561337957600080fd5b505afa15801561338d573d6000803e3d6000fd5b505050506040513d60208110156133a357600080fd5b50518411156133f9576040805162461bcd60e51b815260206004820152601e60248201527f55546f6b656e3a204e6f7420656e6f75676820746f206c656e64206f75740000604482015290519081900360640190fd5b6134038185615334565b61340c336141b6565b10156134495760405162461bcd60e51b815260040180806020018281038252603d8152602001806155c3603d913960400191505060405180910390fd5b613451612cbb565b613490576040805162461bcd60e51b815260206004820152601e602482015260008051602061554d833981519152604482015290519081900360640190fd5b600061349b33614122565b33600090815261017260205260409020600301549091506134cc574333600090815261017260205260409020600301555b6000826134d98784615334565b6134e39190615334565b905060008387610167546134f79190615334565b6135019190615334565b336000908152610172602052604090205490915061351f8589615334565b33600090815261017260205260408120805490919061353f908490615334565b909155505033600081815261017260205260409020546101705490916001600160a01b039091169063ab4ffaa990613577858561538b565b60016040518463ffffffff1660e01b815260040180846001600160a01b0316815260200183815260200182151581526020019350505050600060405180830381600087803b1580156135c857600080fd5b505af11580156135dc573d6000803e3d6000fd5b505033600090815261017260205260409020546135fc925090508561538b565b33600090815261017260205260408120600181019290925561016654600290920191909155610167849055610168805488929061363a908490615334565b90915550506101615460408051636ce5768960e11b81526001600160a01b039283166004820152336024820152604481018c905290519189169163d9caed12916064808201926020929091908290030181600087803b15801561369c57600080fd5b505af11580156136b0573d6000803e3d6000fd5b505050506040513d60208110156136c657600080fd5b5051613716576040805162461bcd60e51b815260206004820152601a60248201527955546f6b656e3a204661696c656420746f20776974686472617760301b604482015290519081900360640190fd5b604080518a815260208101889052815133927fe1b17d743be0011d9bba06fe70f26f50edb5da84de0c4db5fcaf609549db7036928290030190a25050600161012f5550505050505050565b600082815260c9602052604090206001015461377d8133614038565b611439838361423a565b60fc5460ff16156137aa5760405162461bcd60e51b81526004016111c990615308565b600261012f5414156137ce5760405162461bcd60e51b81526004016111c9906152d1565b600261012f556137dc612cbb565b61381b576040805162461bcd60e51b815260206004820152601e602482015260008051602061554d833981519152604482015290519081900360640190fd5b611207338260006146cf565b60fc5460ff161561384a5760405162461bcd60e51b81526004016111c990615308565b61016154604080516323f2ebc360e21b815233600482015230602482015260448101889052606481018790526001608482015260ff861660a482015260c4810185905260e4810184905290516001600160a01b03909216918291638fcbaf0c9161010480830192600092919082900301818387803b1580156138cb57600080fd5b505af11580156138df573d6000803e3d6000fd5b505050506138ee3389896139d8565b5050505050505050565b60008061016260009054906101000a90046001600160a01b03166001600160a01b031663ba1c5e806040518163ffffffff1660e01b815260040160206040518083038186803b15801561394a57600080fd5b505afa15801561395e573d6000803e3d6000fd5b505050506040513d602081101561397457600080fd5b5051905065048c273950008111156139d3576040805162461bcd60e51b815260206004820152601c60248201527f626f72726f772072617465206973206162737572646c79206869676800000000604482015290519081900360640190fd5b919050565b610161546001600160a01b031660006139f0846127d4565b6001600160a01b03851660009081526101726020526040902054909150613a15612cbb565b613a54576040805162461bcd60e51b815260206004820152601e602482015260008051602061554d833981519152604482015290519081900360640190fd5b436101655414613aab576040805162461bcd60e51b815260206004820152601860248201527f55546f6b656e3a206d61726b6574206e6f742066726573680000000000000000604482015290519081900360640190fd5b6000613ab686611bb3565b90506000613ac387614122565b9050600081871115613ad6575080613ad9565b50855b60008111613b185760405162461bcd60e51b815260040180806020018281038252602b815260200180615522602b913960400191505060405180910390fd5b60408051636eb1769f60e11b81526001600160a01b038b811660048301523060248301529151839289169163dd62ed3e916044808301926020929190829003018186803b158015613b6857600080fd5b505afa158015613b7c573d6000803e3d6000fd5b505050506040513d6020811015613b9257600080fd5b50511015613bd15760405162461bcd60e51b81526004018080602001828103825260258152602001806154436025913960400191505060405180910390fd5b600080848310613d7c57670de0b6b3a76400006101645486613bf3919061536c565b613bfd919061534c565b9150613c09828661538b565b90508615613d0957610170546040805163591d637d60e01b81526001600160a01b038d81166004830152600060248301819052925193169263591d637d9260448084019391929182900301818387803b158015613c6557600080fd5b505af1158015613c79573d6000803e3d6000fd5b505061017054610161546001600160a01b038e81166000818152610172602052604080822060030154815163293512c560e01b8152600481019490945294841660248401526044830194909452925191909316945063293512c5935060648084019382900301818387803b158015613cf057600080fd5b505af1158015613d04573d6000803e3d6000fd5b505050505b613d13838561538b565b6001600160a01b038b1660009081526101726020526040812082815560010155613d59576001600160a01b038a1660009081526101726020526040812060030155613dd4565b436001600160a01b038b1660009081526101726020526040902060030155613dd4565b670de0b6b3a76400006101645484613d94919061536c565b613d9e919061534c565b9150613daa828461538b565b9050613db6838661538b565b6001600160a01b038b16600090815261017260205260409020600101555b816101686000828254613de79190615334565b92505081905550806101696000828254613e019190615334565b90915550506001600160a01b038a16600090815261017260205260408120805461016654600290920191909155610167805491928692613e4290849061538b565b9091555050610170546001600160a01b031663ab4ffaa98c613e64848b61538b565b60006040518463ffffffff1660e01b815260040180846001600160a01b0316815260200183815260200182151581526020019350505050600060405180830381600087803b158015613eb557600080fd5b505af1158015613ec9573d6000803e3d6000fd5b50613ee3925050506001600160a01b038a168d308761453a565b61016f54613eff906001600160a01b038b8116911660006145ab565b61016f54613f1a906001600160a01b038b81169116866145ab565b61016f5461016154604080516311f9fbc960e21b81526001600160a01b03928316600482015260248101889052905191909216916347e7ef249160448083019260209291908290030181600087803b158015613f7557600080fd5b505af1158015613f89573d6000803e3d6000fd5b505050506040513d6020811015613f9f57600080fd5b5051613feb576040805162461bcd60e51b815260206004820152601660248201527515551bdad95b8e8811195c1bdcda5d0819985a5b195960521b604482015290519081900360640190fd5b6040805185815290516001600160a01b038d16917fcd300581542c5eab58e736a0b08b42cec829c4504d1c16af90f4630b27e30de3919081900360200190a2505050505050505050505050565b6140428282612752565b61153a5761405a816001600160a01b03166014614a9c565b614065836020614a9c565b60405160200161407692919061515a565b60408051601f198184030181529082905262461bcd60e51b82526111c9916004016151cf565b6140a68282612752565b61153a57600082815260c9602090815260408083206001600160a01b03851684529091529020805460ff191660011790556140de3390565b6001600160a01b0316816001600160a01b0316837f2f8788117e7eff1d82e926ec794901d17c78024a50270940304540a733656f0d60405160405180910390a45050565b6001600160a01b038116600090815261017260209081526040808320815160808101835281548082526001830154948201949094526002820154928101929092526003015460608201529061417a5750600092915050565b61016654602082015182516000929161419291615334565b61419c919061536c565b90508160400151816141ae919061534c565b949350505050565b6101705460408051632c333e2560e01b81526001600160a01b03848116600483015291516000939290921691632c333e2591602480820192602092909190829003018186803b15801561420857600080fd5b505afa15801561421c573d6000803e3d6000fd5b505050506040513d602081101561423257600080fd5b505192915050565b6142448282612752565b1561153a57600082815260c9602090815260408083206001600160a01b0385168085529252808320805460ff1916905551339285917ff6391f5c32d9c69d2a47ea670b442974b53935d1edc7fd64eb21e047a839171b9190a45050565b6142b96000805160206154db83398151915233612752565b6115625760405162461bcd60e51b81526004016111c990615202565b60006143087f360894a13ba1a3210667c828492db98dca3e2076cc3735a920a3ca505d382bbc546001600160a01b031690565b905061431384614c85565b6000835111806143205750815b156143315761432f8484614d2a565b505b7f4910fdfa16fed3260ed0e7147f7cc6da11a60208b5b9406d12a635614ffd9143805460ff1661274b57805460ff191660011781556040516001600160a01b03831660248201526143b090869060440160408051601f198184030181529190526020810180516001600160e01b0316631b2ce7f360e11b179052614d2a565b50805460ff191681557f360894a13ba1a3210667c828492db98dca3e2076cc3735a920a3ca505d382bbc546001600160a01b0383811691161461444d5760405162461bcd60e51b815260206004820152602f60248201527f45524331393637557067726164653a207570677261646520627265616b73206660448201526e75727468657220757067726164657360881b60648201526084016111c9565b61274b85614e15565b600054610100900460ff168061446f575060005460ff16155b61448b5760405162461bcd60e51b81526004016111c990615283565b600054610100900460ff161580156144ad576000805461ffff19166101011790555b6144b5614e55565b6144bd614e55565b8015611562576000805461ff001916905550565b61153a828261409c565b600054610100900460ff16806144f4575060005460ff16155b6145105760405162461bcd60e51b81526004016111c990615283565b600054610100900460ff16158015614532576000805461ffff19166101011790555b6144bd614ebf565b6040516001600160a01b03808516602483015283166044820152606481018290526145a59085906323b872dd60e01b906084015b60408051601f198184030181529190526020810180516001600160e01b03166001600160e01b031990931692909217909152614f30565b50505050565b8015806146345750604051636eb1769f60e11b81523060048201526001600160a01b03838116602483015284169063dd62ed3e9060440160206040518083038186803b1580156145fa57600080fd5b505afa15801561460e573d6000803e3d6000fd5b505050506040513d601f19601f82011682018060405250810190614632919061512d565b155b61469f5760405162461bcd60e51b815260206004820152603660248201527f5361666545524332303a20617070726f76652066726f6d206e6f6e2d7a65726f60448201527520746f206e6f6e2d7a65726f20616c6c6f77616e636560501b60648201526084016111c9565b6040516001600160a01b03831660248201526044810182905261143990849063095ea7b360e01b9060640161456e565b8115806146da575080155b6147155760405162461bcd60e51b81526004018080602001828103825260348152602001806156006034913960400191505060405180910390fd5b61016f546001600160a01b0316600061472c611210565b9050600080851561475e57859150670de0b6b3a764000061474d848461536c565b614757919061534c565b9050614781565b82614771670de0b6b3a76400008761536c565b61477b919061534c565b91508490505b806101695410156147cf576040805162461bcd60e51b81526020600482015260136024820152723932b232b2b69030b6b7bab73a1032b93937b960691b604482015290519081900360640190fd5b8061016960008282546147e2919061538b565b90915550506101715460408051632770a7eb60e21b81526001600160a01b038a811660048301526024820186905291519190921691639dc29fac91604480830192600092919082900301818387803b15801561483d57600080fd5b505af1158015614851573d6000803e3d6000fd5b50506101615460408051636ce5768960e11b81526001600160a01b0392831660048201528b83166024820152604481018690529051918816935063d9caed1292506064808201926020929091908290030181600087803b1580156148b457600080fd5b505af11580156148c8573d6000803e3d6000fd5b505050506040513d60208110156148de57600080fd5b505161492e576040805162461bcd60e51b815260206004820152601a60248201527955546f6b656e3a204661696c656420746f20776974686472617760301b604482015290519081900360640190fd5b604080516001600160a01b0389168152602081018890528082018790526060810183905290517faf488116a12f56ff590ab3ca73f6bf9d11028ca9e63e965223b3d156fe18f5939181900360800190a150505050505050565b61016254604080516310c8fc9560e11b815290516001600160a01b0392831692849290831691632191f92a91600480820192602092909190829003018186803b1580156149d357600080fd5b505afa1580156149e7573d6000803e3d6000fd5b505050506040513d60208110156149fd57600080fd5b5051614a3a5760405162461bcd60e51b815260040180806020018281038252602c815260200180615417602c913960400191505060405180910390fd5b61016280546001600160a01b0319166001600160a01b03838116918217909255604080519285168352602083019190915280517f0e0ca793e1618235d3c398af13a5a145bc17d407237e2f0687475941f6fbbac79281900390910190a1505050565b60606000614aab83600261536c565b614ab6906002615334565b67ffffffffffffffff811115614adc57634e487b7160e01b600052604160045260246000fd5b6040519080825280601f01601f191660200182016040528015614b06576020820181803683370190505b509050600360fc1b81600081518110614b2f57634e487b7160e01b600052603260045260246000fd5b60200101906001600160f81b031916908160001a905350600f60fb1b81600181518110614b6c57634e487b7160e01b600052603260045260246000fd5b60200101906001600160f81b031916908160001a9053506000614b9084600261536c565b614b9b906001615334565b90505b6001811115614c2f576f181899199a1a9b1b9c1cb0b131b232b360811b85600f1660108110614bdd57634e487b7160e01b600052603260045260246000fd5b1a60f81b828281518110614c0157634e487b7160e01b600052603260045260246000fd5b60200101906001600160f81b031916908160001a90535060049490941c93614c28816153ce565b9050614b9e565b508315614c7e5760405162461bcd60e51b815260206004820181905260248201527f537472696e67733a20686578206c656e67746820696e73756666696369656e7460448201526064016111c9565b9392505050565b803b614ce95760405162461bcd60e51b815260206004820152602d60248201527f455243313936373a206e657720696d706c656d656e746174696f6e206973206e60448201526c1bdd08184818dbdb9d1c9858dd609a1b60648201526084016111c9565b7f360894a13ba1a3210667c828492db98dca3e2076cc3735a920a3ca505d382bbc80546001600160a01b0319166001600160a01b0392909216919091179055565b6060823b614d895760405162461bcd60e51b815260206004820152602660248201527f416464726573733a2064656c65676174652063616c6c20746f206e6f6e2d636f6044820152651b9d1c9858dd60d21b60648201526084016111c9565b600080846001600160a01b031684604051614da4919061513e565b600060405180830381855af49150503d8060008114614ddf576040519150601f19603f3d011682016040523d82523d6000602084013e614de4565b606091505b5091509150614e0c82826040518060600160405280602781526020016154fb60279139615002565b95945050505050565b614e1e81614c85565b6040516001600160a01b038216907fbc7cd75a20ee27fd9adebab32041f755214dbc6bffa90cc0225b39da2e5c2d3b90600090a250565b600054610100900460ff1680614e6e575060005460ff16155b614e8a5760405162461bcd60e51b81526004016111c990615283565b600054610100900460ff161580156144bd576000805461ffff19166101011790558015611562576000805461ff001916905550565b600054610100900460ff1680614ed8575060005460ff16155b614ef45760405162461bcd60e51b81526004016111c990615283565b600054610100900460ff16158015614f16576000805461ffff19166101011790555b600161012f558015611562576000805461ff001916905550565b6000614f85826040518060400160405280602081526020017f5361666545524332303a206c6f772d6c6576656c2063616c6c206661696c6564815250856001600160a01b031661503b9092919063ffffffff16565b8051909150156114395780806020019051810190614fa3919061510d565b6114395760405162461bcd60e51b815260206004820152602a60248201527f5361666545524332303a204552433230206f7065726174696f6e20646964206e6044820152691bdd081cdd58d8d9595960b21b60648201526084016111c9565b60608315615011575081614c7e565b8251156150215782518084602001fd5b8160405162461bcd60e51b81526004016111c991906151cf565b60606141ae848460008585843b6150945760405162461bcd60e51b815260206004820152601d60248201527f416464726573733a2063616c6c20746f206e6f6e2d636f6e747261637400000060448201526064016111c9565b600080866001600160a01b031685876040516150b0919061513e565b60006040518083038185875af1925050503d80600081146150ed576040519150601f19603f3d011682016040523d82523d6000602084013e6150f2565b606091505b5091509150615102828286615002565b979650505050505050565b60006020828403121561511e578081fd5b81518015158114614c7e578182fd5b600060208284031215612ded578081fd5b600082516151508184602087016153a2565b9190910192915050565b7f416363657373436f6e74726f6c3a206163636f756e74200000000000000000008152600083516151928160178501602088016153a2565b7001034b99036b4b9b9b4b733903937b6329607d1b60179184019182015283516151c38160288401602088016153a2565b01602801949350505050565b60208152600082518060208401526151ee8160408501602087016153a2565b601f01601f19169190910160400192915050565b60208082526015908201527421b7b73a3937b63632b91d103737ba1030b236b4b760591b604082015260600190565b60208082526032908201527f436f6e74726f6c6c65723a2063616c6c657220646f6573206e6f7420686176656040820152712074686520677561726469616e20726f6c6560701b606082015260800190565b6020808252602e908201527f496e697469616c697a61626c653a20636f6e747261637420697320616c72656160408201526d191e481a5b9a5d1a585b1a5e995960921b606082015260800190565b6020808252601f908201527f5265656e7472616e637947756172643a207265656e7472616e742063616c6c00604082015260600190565b60208082526012908201527110dbdb9d1c9bdb1b195c8e881c185d5cd95960721b604082015260600190565b6000821982111561534757615347615400565b500190565b60008261536757634e487b7160e01b81526012600452602481fd5b500490565b600081600019048311821515161561538657615386615400565b500290565b60008282101561539d5761539d615400565b500390565b60005b838110156153bd5781810151838201526020016153a5565b838111156145a55750506000910152565b6000816153dd576153dd615400565b506000190190565b60006000198214156153f9576153f9615400565b5060010190565b634e487b7160e01b600052601160045260246000fdfe55546f6b656e3a206e6577206d6f64656c206973206e6f74206120696e746572657374526174654d6f64656c55546f6b656e3a204e6f7420656e6f75676820616c6c6f77616e636520746f207265706179696e697469616c2065786368616e67652072617465206d7573742062652067726561746572207468616e207a65726f2e55546f6b656e3a2063616c6c6572206973206e6f7420757365724d616e61676572616d6f756e74206973206c61726765207468616e20746f74616c52657365727665732172861495e7b85edac73e3cd5fbb42dd675baadf627720e687bcfdaca025096416464726573733a206c6f772d6c6576656c2064656c65676174652063616c6c206661696c656455546f6b656e3a20726570617920616d6f756e74206f72206f77656420616d6f756e74206973207a65726f55546f6b656e3a2061636372756520696e746572657374206661696c6564000055546f6b656e3a20616d6f756e74206c61726765207468616e20626f72726f772073697a65206d617855546f6b656e3a20616d6f756e74206d6f7265207468616e206c6f616e20676c6f62616c2073697a65206d617855546f6b656e3a20546865206c6f616e20616d6f756e7420706c7573206665652069732067726561746572207468616e20637265646974206c696d69746f6e65206f662072656465656d546f6b656e73496e206f722072656465656d416d6f756e74496e206d757374206265207a65726f55546f6b656e3a20616d6f756e74206c657373207468616e206c6f616e2073697a65206d696e72656475636520726573657276657320756e657870656374656420756e646572666c6f77a26469706673582212203072c09b6ca9e62aeca33de8fb8b95a8bec9f30fb46b19e56b3bc693041b76f864736f6c63430008040033",
  "devdoc": {
    "details": "Union accountBorrows can borrow and repay thru this component.",
    "events": {
      "LogBorrow(address,uint256,uint256)": {
        "details": "Event borrow",
        "params": {
          "account": "Member address",
          "amount": "Borrow amount",
          "fee": "Origination fee"
        }
      },
      "LogNewMarketInterestRateModel(address,address)": {
        "details": "Change of the interest rate model",
        "params": {
          "newInterestRateModel": "New interest rate model address",
          "oldInterestRateModel": "Old interest rate model address"
        }
      },
      "LogRepay(address,uint256)": {
        "details": "Event repay",
        "params": {
          "account": "Member address",
          "amount": "Repay amount"
        }
      }
    },
    "kind": "dev",
    "methods": {
      "accrueInterest()": {
        "details": "Accrue interest",
        "returns": {
          "_0": "Accrue interest finished"
        }
      },
      "addAdmin(address)": {
        "details": "Add a new admin account",
        "params": {
          "account": "Account address"
        }
      },
      "balanceOfUnderlying(address)": {
        "details": "This also accrues interest in a transaction",
        "params": {
          "owner": "The address of the account to query"
        },
        "returns": {
          "_0": "The amount of underlying owned by `owner`"
        }
      },
      "batchUpdateOverdueInfos(address[])": {
        "details": "Batch update borrower overdue info",
        "params": {
          "accounts": "Borrowers address"
        }
      },
      "borrow(uint256)": {
        "details": "Borrowing from the market  Accept claims only from the member  Borrow amount must in the range of creditLimit, minBorrow, maxBorrow, debtCeiling and not overdue",
        "params": {
          "amount": "Borrow amount"
        }
      },
      "borrowBalanceView(address)": {
        "details": "Get a member's current owed balance, including the principle and interest but without updating the user's states.",
        "params": {
          "account": "Member address"
        },
        "returns": {
          "_0": "Borrowed amount"
        }
      },
      "borrowRatePerBlock()": {
        "details": "Get the borrowing interest rate per block",
        "returns": {
          "_0": "Borrow rate"
        }
      },
      "calculatingFee(uint256)": {
        "details": "Get the origination fee",
        "params": {
          "amount": "Amount to be calculated"
        },
        "returns": {
          "_0": "Handling fee"
        }
      },
      "calculatingInterest(address)": {
        "details": "Calculating member's borrowed interest",
        "params": {
          "account": "Member address"
        },
        "returns": {
          "_0": "Interest amount"
        }
      },
      "checkIsOverdue(address)": {
        "details": "Check if the member's loan is overdue",
        "params": {
          "account": "Member address"
        },
        "returns": {
          "isOverdue": "isOverdue"
        }
      },
      "exchangeRateCurrent()": {
        "returns": {
          "_0": "Calculated exchange rate scaled by 1e18"
        }
      },
      "exchangeRateStored()": {
        "details": "This function does not accrue interest before calculating the exchange rate",
        "returns": {
          "_0": "Calculated exchange rate scaled by 1e18"
        }
      },
      "getBorrowed(address)": {
        "details": "Get the borrowed principle",
        "params": {
          "account": "Member address"
        },
        "returns": {
          "borrowed": "borrowed"
        }
      },
      "getInterestIndex(address)": {
        "details": "Get member interest index",
        "params": {
          "account": "Member address"
        },
        "returns": {
          "interestIndex": "interestIndex"
        }
      },
      "getLastRepay(address)": {
        "details": "Get the last repay block",
        "params": {
          "account": "Member address"
        },
        "returns": {
          "lastRepay": "lastRepay"
        }
      },
      "getLoan(address)": {
        "details": "Get member loan data",
        "params": {
          "member": "Member address"
        },
        "returns": {
          "principal": "totalBorrowed asset apr limit isOverdue lastRepay"
        }
      },
      "getRemainingLoanSize()": {
        "details": "Returns the remaining amount that can be borrowed from the market.",
        "returns": {
          "_0": "Remaining total amount"
        }
      },
      "getRoleAdmin(bytes32)": {
        "details": "Returns the admin role that controls `role`. See {grantRole} and {revokeRole}. To change a role's admin, use {_setRoleAdmin}."
      },
      "grantRole(bytes32,address)": {
        "details": "Grants `role` to `account`. If `account` had not been already granted `role`, emits a {RoleGranted} event. Requirements: - the caller must have ``role``'s admin role."
      },
      "hasRole(bytes32,address)": {
        "details": "Returns `true` if `account` has been granted `role`."
      },
      "isAdmin(address)": {
        "details": "Check if the address provided is the admin",
        "params": {
          "account": "Account address"
        }
      },
      "pause()": {
        "details": "Called by a pauser to pause, triggers stopped state."
      },
      "paused()": {
        "details": "Returns true if the contract is paused, and false otherwise."
      },
      "redeem(uint256)": {
        "details": "Accrues interest whether or not the operation succeeds, unless reverted",
        "params": {
          "redeemTokens": "The number of uTokens to redeem into underlying"
        }
      },
      "redeemUnderlying(uint256)": {
        "details": "Accrues interest whether or not the operation succeeds, unless reverted",
        "params": {
          "redeemAmount": "The amount of underlying to receive from redeeming uTokens"
        }
      },
      "renounceAdmin()": {
        "details": "Renouce the admin from the sender's address"
      },
      "renounceRole(bytes32,address)": {
        "details": "Revokes `role` from the calling account. Roles are often managed via {grantRole} and {revokeRole}: this function's purpose is to provide a mechanism for accounts to lose their privileges if they are compromised (such as when a trusted device is misplaced). If the calling account had been granted `role`, emits a {RoleRevoked} event. Requirements: - the caller must be `account`."
      },
      "revokeRole(bytes32,address)": {
        "details": "Revokes `role` from `account`. If `account` had been granted `role`, emits a {RoleRevoked} event. Requirements: - the caller must have ``role``'s admin role."
      },
      "setDebtCeiling(uint256)": {
        "details": "Update the market debt ceiling to a fixed amount, for example, 1 billion DAI etc.  Accept claims only from the admin",
        "params": {
          "debtCeiling_": "The debt limit for the whole system"
        }
      },
      "setGuardian(address)": {
        "details": "Set pauseGuardian account",
        "params": {
          "account": "Account address"
        }
      },
      "setInterestRateModel(address)": {
        "details": "Change to a different interest rate model  Accept claims only from the admin",
        "params": {
          "newInterestRateModel": "New interest rate model address"
        }
      },
      "setMaxBorrow(uint256)": {
        "details": "Update the max loan size  Accept claims only from the admin",
        "params": {
          "maxBorrow_": "Max loan amount per user"
        }
      },
      "setMinBorrow(uint256)": {
        "details": "Update the minimum loan size  Accept claims only from the admin",
        "params": {
          "minBorrow_": "Minimum loan amount per user"
        }
      },
      "setOriginationFee(uint256)": {
        "details": "Change loan origination fee value  Accept claims only from the admin",
        "params": {
          "originationFee_": "Fees deducted for each loan transaction"
        }
      },
      "setOverdueBlocks(uint256)": {
        "details": "Change loan overdue duration, based on the number of blocks  Accept claims only from the admin",
        "params": {
          "overdueBlocks_": "Maximum late repayment block. The number of arrivals is a default"
        }
      },
      "supplyRatePerBlock()": {
        "returns": {
          "_0": "The supply interest rate per block, scaled by 1e18"
        }
      },
      "supportsInterface(bytes4)": {
        "details": "See {IERC165-supportsInterface}."
      },
      "unpause()": {
        "details": "Called by a pauser to unpause, returns to normal state."
      },
      "updateOverdueInfo(address)": {
        "details": "Update borrower overdue info",
        "params": {
          "account": "Borrower address"
        }
      },
      "upgradeTo(address)": {
        "details": "Upgrade the implementation of the proxy to `newImplementation`. Calls {_authorizeUpgrade}. Emits an {Upgraded} event."
      },
      "upgradeToAndCall(address,bytes)": {
        "details": "Upgrade the implementation of the proxy to `newImplementation`, and subsequently execute the function call encoded in `data`. Calls {_authorizeUpgrade}. Emits an {Upgraded} event."
      }
    },
    "title": "UToken Contract",
    "version": 1
  },
  "userdoc": {
    "kind": "user",
    "methods": {
      "balanceOfUnderlying(address)": {
        "notice": "Get the underlying balance of the `owner`"
      },
      "exchangeRateCurrent()": {
        "notice": "Accrue interest then return the up-to-date exchange rate"
      },
      "exchangeRateStored()": {
        "notice": "Calculates the exchange rate from the underlying to the UToken"
      },
      "redeem(uint256)": {
        "notice": "Sender redeems uTokens in exchange for the underlying asset"
      },
      "redeemUnderlying(uint256)": {
        "notice": "Sender redeems uTokens in exchange for a specified amount of underlying asset"
      },
      "supplyRatePerBlock()": {
        "notice": "Returns the current per-block supply interest rate for this UToken"
      }
    },
    "version": 1
  },
  "storageLayout": {
    "storage": [
      {
        "astId": 821,
        "contract": "contracts/market/UToken.sol:UToken",
        "label": "_initialized",
        "offset": 0,
        "slot": "0",
        "type": "t_bool"
      },
      {
        "astId": 824,
        "contract": "contracts/market/UToken.sol:UToken",
        "label": "_initializing",
        "offset": 1,
        "slot": "0",
        "type": "t_bool"
      },
      {
        "astId": 804,
        "contract": "contracts/market/UToken.sol:UToken",
        "label": "__gap",
        "offset": 0,
        "slot": "1",
        "type": "t_array(t_uint256)50_storage"
      },
      {
        "astId": 937,
        "contract": "contracts/market/UToken.sol:UToken",
        "label": "__gap",
        "offset": 0,
        "slot": "51",
        "type": "t_array(t_uint256)50_storage"
      },
      {
        "astId": 2184,
        "contract": "contracts/market/UToken.sol:UToken",
        "label": "__gap",
        "offset": 0,
        "slot": "101",
        "type": "t_array(t_uint256)50_storage"
      },
      {
        "astId": 2493,
        "contract": "contracts/market/UToken.sol:UToken",
        "label": "__gap",
        "offset": 0,
        "slot": "151",
        "type": "t_array(t_uint256)50_storage"
      },
      {
        "astId": 48,
        "contract": "contracts/market/UToken.sol:UToken",
        "label": "_roles",
        "offset": 0,
        "slot": "201",
        "type": "t_mapping(t_bytes32,t_struct(RoleData)43_storage)"
      },
      {
        "astId": 333,
        "contract": "contracts/market/UToken.sol:UToken",
        "label": "__gap",
        "offset": 0,
        "slot": "202",
        "type": "t_array(t_uint256)49_storage"
      },
      {
        "astId": 10453,
        "contract": "contracts/market/UToken.sol:UToken",
        "label": "_admins",
        "offset": 0,
        "slot": "251",
        "type": "t_mapping(t_address,t_address)"
      },
      {
        "astId": 10455,
        "contract": "contracts/market/UToken.sol:UToken",
        "label": "_paused",
        "offset": 0,
        "slot": "252",
        "type": "t_bool"
      },
      {
        "astId": 10457,
        "contract": "contracts/market/UToken.sol:UToken",
        "label": "pauseGuardian",
        "offset": 1,
        "slot": "252",
        "type": "t_address"
      },
      {
        "astId": 10697,
        "contract": "contracts/market/UToken.sol:UToken",
        "label": "______gap",
        "offset": 0,
        "slot": "253",
        "type": "t_array(t_uint256)50_storage"
      },
      {
        "astId": 952,
        "contract": "contracts/market/UToken.sol:UToken",
        "label": "_status",
        "offset": 0,
        "slot": "303",
        "type": "t_uint256"
      },
      {
        "astId": 995,
        "contract": "contracts/market/UToken.sol:UToken",
        "label": "__gap",
        "offset": 0,
        "slot": "304",
        "type": "t_array(t_uint256)49_storage"
      },
      {
        "astId": 15512,
        "contract": "contracts/market/UToken.sol:UToken",
        "label": "underlying",
        "offset": 0,
        "slot": "353",
        "type": "t_address"
      },
      {
        "astId": 15515,
        "contract": "contracts/market/UToken.sol:UToken",
        "label": "interestRateModel",
        "offset": 0,
        "slot": "354",
        "type": "t_contract(IInterestRateModel)14430"
      },
      {
        "astId": 15517,
        "contract": "contracts/market/UToken.sol:UToken",
        "label": "initialExchangeRateMantissa",
        "offset": 0,
        "slot": "355",
        "type": "t_uint256"
      },
      {
        "astId": 15519,
        "contract": "contracts/market/UToken.sol:UToken",
        "label": "reserveFactorMantissa",
        "offset": 0,
        "slot": "356",
        "type": "t_uint256"
      },
      {
        "astId": 15521,
        "contract": "contracts/market/UToken.sol:UToken",
        "label": "accrualBlockNumber",
        "offset": 0,
        "slot": "357",
        "type": "t_uint256"
      },
      {
        "astId": 15523,
        "contract": "contracts/market/UToken.sol:UToken",
        "label": "borrowIndex",
        "offset": 0,
        "slot": "358",
        "type": "t_uint256"
      },
      {
        "astId": 15525,
        "contract": "contracts/market/UToken.sol:UToken",
        "label": "totalBorrows",
        "offset": 0,
        "slot": "359",
        "type": "t_uint256"
      },
      {
        "astId": 15527,
        "contract": "contracts/market/UToken.sol:UToken",
        "label": "totalReserves",
        "offset": 0,
        "slot": "360",
        "type": "t_uint256"
      },
      {
        "astId": 15529,
        "contract": "contracts/market/UToken.sol:UToken",
        "label": "totalRedeemable",
        "offset": 0,
        "slot": "361",
        "type": "t_uint256"
      },
      {
        "astId": 15531,
        "contract": "contracts/market/UToken.sol:UToken",
        "label": "overdueBlocks",
        "offset": 0,
        "slot": "362",
        "type": "t_uint256"
      },
      {
        "astId": 15533,
        "contract": "contracts/market/UToken.sol:UToken",
        "label": "originationFee",
        "offset": 0,
        "slot": "363",
        "type": "t_uint256"
      },
      {
        "astId": 15535,
        "contract": "contracts/market/UToken.sol:UToken",
        "label": "debtCeiling",
        "offset": 0,
        "slot": "364",
        "type": "t_uint256"
      },
      {
        "astId": 15537,
        "contract": "contracts/market/UToken.sol:UToken",
        "label": "maxBorrow",
        "offset": 0,
        "slot": "365",
        "type": "t_uint256"
      },
      {
        "astId": 15539,
        "contract": "contracts/market/UToken.sol:UToken",
        "label": "minBorrow",
        "offset": 0,
        "slot": "366",
        "type": "t_uint256"
      },
      {
        "astId": 15541,
        "contract": "contracts/market/UToken.sol:UToken",
        "label": "assetManager",
        "offset": 0,
        "slot": "367",
        "type": "t_address"
      },
      {
        "astId": 15543,
        "contract": "contracts/market/UToken.sol:UToken",
        "label": "userManager",
        "offset": 0,
        "slot": "368",
        "type": "t_address"
      },
      {
        "astId": 15546,
        "contract": "contracts/market/UToken.sol:UToken",
        "label": "uErc20",
        "offset": 0,
        "slot": "369",
        "type": "t_contract(IUErc20)14616"
      },
      {
        "astId": 15561,
        "contract": "contracts/market/UToken.sol:UToken",
        "label": "accountBorrows",
        "offset": 0,
        "slot": "370",
        "type": "t_mapping(t_address,t_struct(BorrowSnapshot)15555_storage)"
      }
    ],
    "types": {
      "t_address": {
        "encoding": "inplace",
        "label": "address",
        "numberOfBytes": "20"
      },
      "t_array(t_uint256)49_storage": {
        "base": "t_uint256",
        "encoding": "inplace",
        "label": "uint256[49]",
        "numberOfBytes": "1568"
      },
      "t_array(t_uint256)50_storage": {
        "base": "t_uint256",
        "encoding": "inplace",
        "label": "uint256[50]",
        "numberOfBytes": "1600"
      },
      "t_bool": {
        "encoding": "inplace",
        "label": "bool",
        "numberOfBytes": "1"
      },
      "t_bytes32": {
        "encoding": "inplace",
        "label": "bytes32",
        "numberOfBytes": "32"
      },
      "t_contract(IInterestRateModel)14430": {
        "encoding": "inplace",
        "label": "contract IInterestRateModel",
        "numberOfBytes": "20"
      },
      "t_contract(IUErc20)14616": {
        "encoding": "inplace",
        "label": "contract IUErc20",
        "numberOfBytes": "20"
      },
      "t_mapping(t_address,t_address)": {
        "encoding": "mapping",
        "key": "t_address",
        "label": "mapping(address => address)",
        "numberOfBytes": "32",
        "value": "t_address"
      },
      "t_mapping(t_address,t_bool)": {
        "encoding": "mapping",
        "key": "t_address",
        "label": "mapping(address => bool)",
        "numberOfBytes": "32",
        "value": "t_bool"
      },
      "t_mapping(t_address,t_struct(BorrowSnapshot)15555_storage)": {
        "encoding": "mapping",
        "key": "t_address",
        "label": "mapping(address => struct UToken.BorrowSnapshot)",
        "numberOfBytes": "32",
        "value": "t_struct(BorrowSnapshot)15555_storage"
      },
      "t_mapping(t_bytes32,t_struct(RoleData)43_storage)": {
        "encoding": "mapping",
        "key": "t_bytes32",
        "label": "mapping(bytes32 => struct AccessControlUpgradeable.RoleData)",
        "numberOfBytes": "32",
        "value": "t_struct(RoleData)43_storage"
      },
      "t_struct(BorrowSnapshot)15555_storage": {
        "encoding": "inplace",
        "label": "struct UToken.BorrowSnapshot",
        "members": [
          {
            "astId": 15548,
            "contract": "contracts/market/UToken.sol:UToken",
            "label": "principal",
            "offset": 0,
            "slot": "0",
            "type": "t_uint256"
          },
          {
            "astId": 15550,
            "contract": "contracts/market/UToken.sol:UToken",
            "label": "interest",
            "offset": 0,
            "slot": "1",
            "type": "t_uint256"
          },
          {
            "astId": 15552,
            "contract": "contracts/market/UToken.sol:UToken",
            "label": "interestIndex",
            "offset": 0,
            "slot": "2",
            "type": "t_uint256"
          },
          {
            "astId": 15554,
            "contract": "contracts/market/UToken.sol:UToken",
            "label": "lastRepay",
            "offset": 0,
            "slot": "3",
            "type": "t_uint256"
          }
        ],
        "numberOfBytes": "128"
      },
      "t_struct(RoleData)43_storage": {
        "encoding": "inplace",
        "label": "struct AccessControlUpgradeable.RoleData",
        "members": [
          {
            "astId": 40,
            "contract": "contracts/market/UToken.sol:UToken",
            "label": "members",
            "offset": 0,
            "slot": "0",
            "type": "t_mapping(t_address,t_bool)"
          },
          {
            "astId": 42,
            "contract": "contracts/market/UToken.sol:UToken",
            "label": "adminRole",
            "offset": 0,
            "slot": "1",
            "type": "t_bytes32"
          }
        ],
        "numberOfBytes": "64"
      },
      "t_uint256": {
        "encoding": "inplace",
        "label": "uint256",
        "numberOfBytes": "32"
      }
    }
  }
}