{
  "address": "0x91d7D2724365dec4A1507ED44D1d823f6Fa8618D",
  "abi": [
    {
      "anonymous": false,
      "inputs": [
        {
          "indexed": false,
          "internalType": "address",
          "name": "addr",
          "type": "address"
        },
        {
          "indexed": false,
          "internalType": "uint256",
          "name": "commitment",
          "type": "uint256"
        }
      ],
      "name": "AddedCommitment",
      "type": "event"
    },
    {
      "anonymous": false,
      "inputs": [
        {
          "indexed": true,
          "internalType": "address",
          "name": "beneficiary",
          "type": "address"
        },
        {
          "indexed": true,
          "internalType": "address",
          "name": "caller",
          "type": "address"
        }
      ],
      "name": "AdminRoleGranted",
      "type": "event"
    },
    {
      "anonymous": false,
      "inputs": [
        {
          "indexed": true,
          "internalType": "address",
          "name": "beneficiary",
          "type": "address"
        },
        {
          "indexed": true,
          "internalType": "address",
          "name": "caller",
          "type": "address"
        }
      ],
      "name": "AdminRoleRemoved",
      "type": "event"
    },
    {
      "anonymous": false,
      "inputs": [],
      "name": "AuctionCancelled",
      "type": "event"
    },
    {
      "anonymous": false,
      "inputs": [],
      "name": "AuctionFinalized",
      "type": "event"
    },
    {
      "anonymous": false,
      "inputs": [
        {
          "indexed": false,
          "internalType": "uint256",
          "name": "rate",
          "type": "uint256"
        },
        {
          "indexed": false,
          "internalType": "uint256",
          "name": "goal",
          "type": "uint256"
        }
      ],
      "name": "AuctionPriceUpdated",
      "type": "event"
    },
    {
      "anonymous": false,
      "inputs": [
        {
          "indexed": false,
          "internalType": "uint256",
          "name": "startTime",
          "type": "uint256"
        },
        {
          "indexed": false,
          "internalType": "uint256",
          "name": "endTime",
          "type": "uint256"
        }
      ],
      "name": "AuctionTimeUpdated",
      "type": "event"
    },
    {
      "anonymous": false,
      "inputs": [
        {
          "indexed": false,
          "internalType": "address",
          "name": "wallet",
          "type": "address"
        }
      ],
      "name": "AuctionWalletUpdated",
      "type": "event"
    },
    {
      "anonymous": false,
      "inputs": [
        {
          "indexed": true,
          "internalType": "string",
          "name": "_name",
          "type": "string"
        },
        {
          "indexed": false,
          "internalType": "string",
          "name": "_data",
          "type": "string"
        }
      ],
      "name": "DocumentRemoved",
      "type": "event"
    },
    {
      "anonymous": false,
      "inputs": [
        {
          "indexed": true,
          "internalType": "string",
          "name": "_name",
          "type": "string"
        },
        {
          "indexed": false,
          "internalType": "string",
          "name": "_data",
          "type": "string"
        }
      ],
      "name": "DocumentUpdated",
      "type": "event"
    },
    {
      "anonymous": false,
      "inputs": [
        {
          "indexed": true,
          "internalType": "address",
          "name": "beneficiary",
          "type": "address"
        },
        {
          "indexed": true,
          "internalType": "address",
          "name": "caller",
          "type": "address"
        }
      ],
      "name": "MinterRoleGranted",
      "type": "event"
    },
    {
      "anonymous": false,
      "inputs": [
        {
          "indexed": true,
          "internalType": "address",
          "name": "beneficiary",
          "type": "address"
        },
        {
          "indexed": true,
          "internalType": "address",
          "name": "caller",
          "type": "address"
        }
      ],
      "name": "MinterRoleRemoved",
      "type": "event"
    },
    {
      "anonymous": false,
      "inputs": [
        {
          "indexed": true,
          "internalType": "address",
          "name": "beneficiary",
          "type": "address"
        },
        {
          "indexed": true,
          "internalType": "address",
          "name": "caller",
          "type": "address"
        }
      ],
      "name": "OperatorRoleGranted",
      "type": "event"
    },
    {
      "anonymous": false,
      "inputs": [
        {
          "indexed": true,
          "internalType": "address",
          "name": "beneficiary",
          "type": "address"
        },
        {
          "indexed": true,
          "internalType": "address",
          "name": "caller",
          "type": "address"
        }
      ],
      "name": "OperatorRoleRemoved",
      "type": "event"
    },
    {
      "anonymous": false,
      "inputs": [
        {
          "indexed": true,
          "internalType": "bytes32",
          "name": "role",
          "type": "bytes32"
        },
        {
          "indexed": true,
          "internalType": "bytes32",
          "name": "previousAdminRole",
          "type": "bytes32"
        },
        {
          "indexed": true,
          "internalType": "bytes32",
          "name": "newAdminRole",
          "type": "bytes32"
        }
      ],
      "name": "RoleAdminChanged",
      "type": "event"
    },
    {
      "anonymous": false,
      "inputs": [
        {
          "indexed": true,
          "internalType": "bytes32",
          "name": "role",
          "type": "bytes32"
        },
        {
          "indexed": true,
          "internalType": "address",
          "name": "account",
          "type": "address"
        },
        {
          "indexed": true,
          "internalType": "address",
          "name": "sender",
          "type": "address"
        }
      ],
      "name": "RoleGranted",
      "type": "event"
    },
    {
      "anonymous": false,
      "inputs": [
        {
          "indexed": true,
          "internalType": "bytes32",
          "name": "role",
          "type": "bytes32"
        },
        {
          "indexed": true,
          "internalType": "address",
          "name": "account",
          "type": "address"
        },
        {
          "indexed": true,
          "internalType": "address",
          "name": "sender",
          "type": "address"
        }
      ],
      "name": "RoleRevoked",
      "type": "event"
    },
    {
      "anonymous": false,
      "inputs": [
        {
          "indexed": true,
          "internalType": "address",
          "name": "beneficiary",
          "type": "address"
        },
        {
          "indexed": true,
          "internalType": "address",
          "name": "caller",
          "type": "address"
        }
      ],
      "name": "SmartContractRoleGranted",
      "type": "event"
    },
    {
      "anonymous": false,
      "inputs": [
        {
          "indexed": true,
          "internalType": "address",
          "name": "beneficiary",
          "type": "address"
        },
        {
          "indexed": true,
          "internalType": "address",
          "name": "caller",
          "type": "address"
        }
      ],
      "name": "SmartContractRoleRemoved",
      "type": "event"
    },
    {
      "inputs": [],
      "name": "DEFAULT_ADMIN_ROLE",
      "outputs": [
        {
          "internalType": "bytes32",
          "name": "",
          "type": "bytes32"
        }
      ],
      "stateMutability": "view",
      "type": "function"
    },
    {
      "inputs": [],
      "name": "MINTER_ROLE",
      "outputs": [
        {
          "internalType": "bytes32",
          "name": "",
          "type": "bytes32"
        }
      ],
      "stateMutability": "view",
      "type": "function"
    },
    {
      "inputs": [],
      "name": "OPERATOR_ROLE",
      "outputs": [
        {
          "internalType": "bytes32",
          "name": "",
          "type": "bytes32"
        }
      ],
      "stateMutability": "view",
      "type": "function"
    },
    {
      "inputs": [],
      "name": "SMART_CONTRACT_ROLE",
      "outputs": [
        {
          "internalType": "bytes32",
          "name": "",
          "type": "bytes32"
        }
      ],
      "stateMutability": "view",
      "type": "function"
    },
    {
      "inputs": [
        {
          "internalType": "address",
          "name": "_address",
          "type": "address"
        }
      ],
      "name": "addAdminRole",
      "outputs": [],
      "stateMutability": "nonpayable",
      "type": "function"
    },
    {
      "inputs": [
        {
          "internalType": "address",
          "name": "_address",
          "type": "address"
        }
      ],
      "name": "addMinterRole",
      "outputs": [],
      "stateMutability": "nonpayable",
      "type": "function"
    },
    {
      "inputs": [
        {
          "internalType": "address",
          "name": "_address",
          "type": "address"
        }
      ],
      "name": "addOperatorRole",
      "outputs": [],
      "stateMutability": "nonpayable",
      "type": "function"
    },
    {
      "inputs": [
        {
          "internalType": "address",
          "name": "_address",
          "type": "address"
        }
      ],
      "name": "addSmartContractRole",
      "outputs": [],
      "stateMutability": "nonpayable",
      "type": "function"
    },
    {
      "inputs": [],
      "name": "auctionEnded",
      "outputs": [
        {
          "internalType": "bool",
          "name": "",
          "type": "bool"
        }
      ],
      "stateMutability": "view",
      "type": "function"
    },
    {
      "inputs": [],
      "name": "auctionSuccessful",
      "outputs": [
        {
          "internalType": "bool",
          "name": "",
          "type": "bool"
        }
      ],
      "stateMutability": "view",
      "type": "function"
    },
    {
      "inputs": [],
      "name": "auctionToken",
      "outputs": [
        {
          "internalType": "address",
          "name": "",
          "type": "address"
        }
      ],
      "stateMutability": "view",
      "type": "function"
    },
    {
      "inputs": [
        {
          "internalType": "bytes[]",
          "name": "calls",
          "type": "bytes[]"
        },
        {
          "internalType": "bool",
          "name": "revertOnFail",
          "type": "bool"
        }
      ],
      "name": "batch",
      "outputs": [
        {
          "internalType": "bool[]",
          "name": "successes",
          "type": "bool[]"
        },
        {
          "internalType": "bytes[]",
          "name": "results",
          "type": "bytes[]"
        }
      ],
      "stateMutability": "payable",
      "type": "function"
    },
    {
      "inputs": [
        {
          "internalType": "uint256",
          "name": "_commitment",
          "type": "uint256"
        }
      ],
      "name": "calculateCommitment",
      "outputs": [
        {
          "internalType": "uint256",
          "name": "committed",
          "type": "uint256"
        }
      ],
      "stateMutability": "view",
      "type": "function"
    },
    {
      "inputs": [],
      "name": "cancelAuction",
      "outputs": [],
      "stateMutability": "nonpayable",
      "type": "function"
    },
    {
      "inputs": [
        {
          "internalType": "address",
          "name": "",
          "type": "address"
        }
      ],
      "name": "claimed",
      "outputs": [
        {
          "internalType": "uint256",
          "name": "",
          "type": "uint256"
        }
      ],
      "stateMutability": "view",
      "type": "function"
    },
    {
      "inputs": [
        {
          "internalType": "address payable",
          "name": "_beneficiary",
          "type": "address"
        },
        {
          "internalType": "bool",
          "name": "readAndAgreedToMarketParticipationAgreement",
          "type": "bool"
        }
      ],
      "name": "commitEth",
      "outputs": [],
      "stateMutability": "payable",
      "type": "function"
    },
    {
      "inputs": [
        {
          "internalType": "uint256",
          "name": "_amount",
          "type": "uint256"
        },
        {
          "internalType": "bool",
          "name": "readAndAgreedToMarketParticipationAgreement",
          "type": "bool"
        }
      ],
      "name": "commitTokens",
      "outputs": [],
      "stateMutability": "nonpayable",
      "type": "function"
    },
    {
      "inputs": [
        {
          "internalType": "address",
          "name": "_from",
          "type": "address"
        },
        {
          "internalType": "uint256",
          "name": "_amount",
          "type": "uint256"
        },
        {
          "internalType": "bool",
          "name": "readAndAgreedToMarketParticipationAgreement",
          "type": "bool"
        }
      ],
      "name": "commitTokensFrom",
      "outputs": [],
      "stateMutability": "nonpayable",
      "type": "function"
    },
    {
      "inputs": [
        {
          "internalType": "address",
          "name": "",
          "type": "address"
        }
      ],
      "name": "commitments",
      "outputs": [
        {
          "internalType": "uint256",
          "name": "",
          "type": "uint256"
        }
      ],
      "stateMutability": "view",
      "type": "function"
    },
    {
      "inputs": [
        {
          "internalType": "bool",
          "name": "_status",
          "type": "bool"
        }
      ],
      "name": "enableList",
      "outputs": [],
      "stateMutability": "nonpayable",
      "type": "function"
    },
    {
      "inputs": [],
      "name": "finalize",
      "outputs": [],
      "stateMutability": "nonpayable",
      "type": "function"
    },
    {
      "inputs": [],
      "name": "finalizeTimeExpired",
      "outputs": [
        {
          "internalType": "bool",
          "name": "",
          "type": "bool"
        }
      ],
      "stateMutability": "view",
      "type": "function"
    },
    {
      "inputs": [],
      "name": "finalized",
      "outputs": [
        {
          "internalType": "bool",
          "name": "",
          "type": "bool"
        }
      ],
      "stateMutability": "view",
      "type": "function"
    },
    {
      "inputs": [],
      "name": "getAllDocuments",
      "outputs": [
        {
          "internalType": "string[]",
          "name": "",
          "type": "string[]"
        }
      ],
      "stateMutability": "view",
      "type": "function"
    },
    {
      "inputs": [],
      "name": "getBaseInformation",
      "outputs": [
        {
          "internalType": "address",
          "name": "",
          "type": "address"
        },
        {
          "internalType": "uint64",
          "name": "",
          "type": "uint64"
        },
        {
          "internalType": "uint64",
          "name": "",
          "type": "uint64"
        },
        {
          "internalType": "bool",
          "name": "",
          "type": "bool"
        }
      ],
      "stateMutability": "view",
      "type": "function"
    },
    {
      "inputs": [
        {
          "internalType": "address",
          "name": "_funder",
          "type": "address"
        },
        {
          "internalType": "address",
          "name": "_token",
          "type": "address"
        },
        {
          "internalType": "address",
          "name": "_paymentCurrency",
          "type": "address"
        },
        {
          "internalType": "uint256",
          "name": "_totalTokens",
          "type": "uint256"
        },
        {
          "internalType": "uint256",
          "name": "_startTime",
          "type": "uint256"
        },
        {
          "internalType": "uint256",
          "name": "_endTime",
          "type": "uint256"
        },
        {
          "internalType": "uint256",
          "name": "_rate",
          "type": "uint256"
        },
        {
          "internalType": "uint256",
          "name": "_goal",
          "type": "uint256"
        },
        {
          "internalType": "address",
          "name": "_admin",
          "type": "address"
        },
        {
          "internalType": "address",
          "name": "_pointList",
          "type": "address"
        },
        {
          "internalType": "address payable",
          "name": "_wallet",
          "type": "address"
        }
      ],
      "name": "getCrowdsaleInitData",
      "outputs": [
        {
          "internalType": "bytes",
          "name": "_data",
          "type": "bytes"
        }
      ],
      "stateMutability": "pure",
      "type": "function"
    },
    {
      "inputs": [
        {
          "internalType": "string",
          "name": "_name",
          "type": "string"
        }
      ],
      "name": "getDocument",
      "outputs": [
        {
          "internalType": "string",
          "name": "",
          "type": "string"
        },
        {
          "internalType": "uint256",
          "name": "",
          "type": "uint256"
        }
      ],
      "stateMutability": "view",
      "type": "function"
    },
    {
      "inputs": [],
      "name": "getDocumentCount",
      "outputs": [
        {
          "internalType": "uint256",
          "name": "",
          "type": "uint256"
        }
      ],
      "stateMutability": "view",
      "type": "function"
    },
    {
      "inputs": [
        {
          "internalType": "uint256",
          "name": "_index",
          "type": "uint256"
        }
      ],
      "name": "getDocumentName",
      "outputs": [
        {
          "internalType": "string",
          "name": "",
          "type": "string"
        }
      ],
      "stateMutability": "view",
      "type": "function"
    },
    {
      "inputs": [
        {
          "internalType": "bytes32",
          "name": "role",
          "type": "bytes32"
        }
      ],
      "name": "getRoleAdmin",
      "outputs": [
        {
          "internalType": "bytes32",
          "name": "",
          "type": "bytes32"
        }
      ],
      "stateMutability": "view",
      "type": "function"
    },
    {
      "inputs": [
        {
          "internalType": "bytes32",
          "name": "role",
          "type": "bytes32"
        },
        {
          "internalType": "uint256",
          "name": "index",
          "type": "uint256"
        }
      ],
      "name": "getRoleMember",
      "outputs": [
        {
          "internalType": "address",
          "name": "",
          "type": "address"
        }
      ],
      "stateMutability": "view",
      "type": "function"
    },
    {
      "inputs": [
        {
          "internalType": "bytes32",
          "name": "role",
          "type": "bytes32"
        }
      ],
      "name": "getRoleMemberCount",
      "outputs": [
        {
          "internalType": "uint256",
          "name": "",
          "type": "uint256"
        }
      ],
      "stateMutability": "view",
      "type": "function"
    },
    {
      "inputs": [],
      "name": "getTotalTokens",
      "outputs": [
        {
          "internalType": "uint256",
          "name": "",
          "type": "uint256"
        }
      ],
      "stateMutability": "view",
      "type": "function"
    },
    {
      "inputs": [
        {
          "internalType": "bytes32",
          "name": "role",
          "type": "bytes32"
        },
        {
          "internalType": "address",
          "name": "account",
          "type": "address"
        }
      ],
      "name": "grantRole",
      "outputs": [],
      "stateMutability": "nonpayable",
      "type": "function"
    },
    {
      "inputs": [
        {
          "internalType": "address",
          "name": "_address",
          "type": "address"
        }
      ],
      "name": "hasAdminRole",
      "outputs": [
        {
          "internalType": "bool",
          "name": "",
          "type": "bool"
        }
      ],
      "stateMutability": "view",
      "type": "function"
    },
    {
      "inputs": [
        {
          "internalType": "address",
          "name": "_address",
          "type": "address"
        }
      ],
      "name": "hasMinterRole",
      "outputs": [
        {
          "internalType": "bool",
          "name": "",
          "type": "bool"
        }
      ],
      "stateMutability": "view",
      "type": "function"
    },
    {
      "inputs": [
        {
          "internalType": "address",
          "name": "_address",
          "type": "address"
        }
      ],
      "name": "hasOperatorRole",
      "outputs": [
        {
          "internalType": "bool",
          "name": "",
          "type": "bool"
        }
      ],
      "stateMutability": "view",
      "type": "function"
    },
    {
      "inputs": [
        {
          "internalType": "bytes32",
          "name": "role",
          "type": "bytes32"
        },
        {
          "internalType": "address",
          "name": "account",
          "type": "address"
        }
      ],
      "name": "hasRole",
      "outputs": [
        {
          "internalType": "bool",
          "name": "",
          "type": "bool"
        }
      ],
      "stateMutability": "view",
      "type": "function"
    },
    {
      "inputs": [
        {
          "internalType": "address",
          "name": "_address",
          "type": "address"
        }
      ],
      "name": "hasSmartContractRole",
      "outputs": [
        {
          "internalType": "bool",
          "name": "",
          "type": "bool"
        }
      ],
      "stateMutability": "view",
      "type": "function"
    },
    {
      "inputs": [
        {
          "internalType": "bytes",
          "name": "_data",
          "type": "bytes"
        }
      ],
      "name": "init",
      "outputs": [],
      "stateMutability": "payable",
      "type": "function"
    },
    {
      "inputs": [
        {
          "internalType": "address",
          "name": "_admin",
          "type": "address"
        }
      ],
      "name": "initAccessControls",
      "outputs": [],
      "stateMutability": "nonpayable",
      "type": "function"
    },
    {
      "inputs": [
        {
          "internalType": "address",
          "name": "_funder",
          "type": "address"
        },
        {
          "internalType": "address",
          "name": "_token",
          "type": "address"
        },
        {
          "internalType": "address",
          "name": "_paymentCurrency",
          "type": "address"
        },
        {
          "internalType": "uint256",
          "name": "_totalTokens",
          "type": "uint256"
        },
        {
          "internalType": "uint256",
          "name": "_startTime",
          "type": "uint256"
        },
        {
          "internalType": "uint256",
          "name": "_endTime",
          "type": "uint256"
        },
        {
          "internalType": "uint256",
          "name": "_rate",
          "type": "uint256"
        },
        {
          "internalType": "uint256",
          "name": "_goal",
          "type": "uint256"
        },
        {
          "internalType": "address",
          "name": "_admin",
          "type": "address"
        },
        {
          "internalType": "address",
          "name": "_pointList",
          "type": "address"
        },
        {
          "internalType": "address payable",
          "name": "_wallet",
          "type": "address"
        }
      ],
      "name": "initCrowdsale",
      "outputs": [],
      "stateMutability": "nonpayable",
      "type": "function"
    },
    {
      "inputs": [
        {
          "internalType": "bytes",
          "name": "_data",
          "type": "bytes"
        }
      ],
      "name": "initMarket",
      "outputs": [],
      "stateMutability": "nonpayable",
      "type": "function"
    },
    {
      "inputs": [],
      "name": "isOpen",
      "outputs": [
        {
          "internalType": "bool",
          "name": "",
          "type": "bool"
        }
      ],
      "stateMutability": "view",
      "type": "function"
    },
    {
      "inputs": [],
      "name": "marketInfo",
      "outputs": [
        {
          "internalType": "uint64",
          "name": "startTime",
          "type": "uint64"
        },
        {
          "internalType": "uint64",
          "name": "endTime",
          "type": "uint64"
        },
        {
          "internalType": "uint128",
          "name": "totalTokens",
          "type": "uint128"
        }
      ],
      "stateMutability": "view",
      "type": "function"
    },
    {
      "inputs": [],
      "name": "marketParticipationAgreement",
      "outputs": [
        {
          "internalType": "string",
          "name": "",
          "type": "string"
        }
      ],
      "stateMutability": "pure",
      "type": "function"
    },
    {
      "inputs": [],
      "name": "marketPrice",
      "outputs": [
        {
          "internalType": "uint128",
          "name": "rate",
          "type": "uint128"
        },
        {
          "internalType": "uint128",
          "name": "goal",
          "type": "uint128"
        }
      ],
      "stateMutability": "view",
      "type": "function"
    },
    {
      "inputs": [],
      "name": "marketStatus",
      "outputs": [
        {
          "internalType": "uint128",
          "name": "commitmentsTotal",
          "type": "uint128"
        },
        {
          "internalType": "bool",
          "name": "finalized",
          "type": "bool"
        },
        {
          "internalType": "bool",
          "name": "usePointList",
          "type": "bool"
        }
      ],
      "stateMutability": "view",
      "type": "function"
    },
    {
      "inputs": [],
      "name": "marketTemplate",
      "outputs": [
        {
          "internalType": "uint256",
          "name": "",
          "type": "uint256"
        }
      ],
      "stateMutability": "view",
      "type": "function"
    },
    {
      "inputs": [],
      "name": "paymentCurrency",
      "outputs": [
        {
          "internalType": "address",
          "name": "",
          "type": "address"
        }
      ],
      "stateMutability": "view",
      "type": "function"
    },
    {
      "inputs": [
        {
          "internalType": "contract IERC20",
          "name": "token",
          "type": "address"
        },
        {
          "internalType": "address",
          "name": "from",
          "type": "address"
        },
        {
          "internalType": "address",
          "name": "to",
          "type": "address"
        },
        {
          "internalType": "uint256",
          "name": "amount",
          "type": "uint256"
        },
        {
          "internalType": "uint256",
          "name": "deadline",
          "type": "uint256"
        },
        {
          "internalType": "uint8",
          "name": "v",
          "type": "uint8"
        },
        {
          "internalType": "bytes32",
          "name": "r",
          "type": "bytes32"
        },
        {
          "internalType": "bytes32",
          "name": "s",
          "type": "bytes32"
        }
      ],
      "name": "permitToken",
      "outputs": [],
      "stateMutability": "nonpayable",
      "type": "function"
    },
    {
      "inputs": [],
      "name": "pointList",
      "outputs": [
        {
          "internalType": "address",
          "name": "",
          "type": "address"
        }
      ],
      "stateMutability": "view",
      "type": "function"
    },
    {
      "inputs": [
        {
          "internalType": "address",
          "name": "_address",
          "type": "address"
        }
      ],
      "name": "removeAdminRole",
      "outputs": [],
      "stateMutability": "nonpayable",
      "type": "function"
    },
    {
      "inputs": [
        {
          "internalType": "string",
          "name": "_name",
          "type": "string"
        }
      ],
      "name": "removeDocument",
      "outputs": [],
      "stateMutability": "nonpayable",
      "type": "function"
    },
    {
      "inputs": [
        {
          "internalType": "address",
          "name": "_address",
          "type": "address"
        }
      ],
      "name": "removeMinterRole",
      "outputs": [],
      "stateMutability": "nonpayable",
      "type": "function"
    },
    {
      "inputs": [
        {
          "internalType": "address",
          "name": "_address",
          "type": "address"
        }
      ],
      "name": "removeOperatorRole",
      "outputs": [],
      "stateMutability": "nonpayable",
      "type": "function"
    },
    {
      "inputs": [
        {
          "internalType": "address",
          "name": "_address",
          "type": "address"
        }
      ],
      "name": "removeSmartContractRole",
      "outputs": [],
      "stateMutability": "nonpayable",
      "type": "function"
    },
    {
      "inputs": [
        {
          "internalType": "bytes32",
          "name": "role",
          "type": "bytes32"
        },
        {
          "internalType": "address",
          "name": "account",
          "type": "address"
        }
      ],
      "name": "renounceRole",
      "outputs": [],
      "stateMutability": "nonpayable",
      "type": "function"
    },
    {
      "inputs": [
        {
          "internalType": "bytes32",
          "name": "role",
          "type": "bytes32"
        },
        {
          "internalType": "address",
          "name": "account",
          "type": "address"
        }
      ],
      "name": "revokeRole",
      "outputs": [],
      "stateMutability": "nonpayable",
      "type": "function"
    },
    {
      "inputs": [
        {
          "internalType": "uint256",
          "name": "_rate",
          "type": "uint256"
        },
        {
          "internalType": "uint256",
          "name": "_goal",
          "type": "uint256"
        }
      ],
      "name": "setAuctionPrice",
      "outputs": [],
      "stateMutability": "nonpayable",
      "type": "function"
    },
    {
      "inputs": [
        {
          "internalType": "uint256",
          "name": "_startTime",
          "type": "uint256"
        },
        {
          "internalType": "uint256",
          "name": "_endTime",
          "type": "uint256"
        }
      ],
      "name": "setAuctionTime",
      "outputs": [],
      "stateMutability": "nonpayable",
      "type": "function"
    },
    {
      "inputs": [
        {
          "internalType": "address payable",
          "name": "_wallet",
          "type": "address"
        }
      ],
      "name": "setAuctionWallet",
      "outputs": [],
      "stateMutability": "nonpayable",
      "type": "function"
    },
    {
      "inputs": [
        {
          "internalType": "string",
          "name": "_name",
          "type": "string"
        },
        {
          "internalType": "string",
          "name": "_data",
          "type": "string"
        }
      ],
      "name": "setDocument",
      "outputs": [],
      "stateMutability": "nonpayable",
      "type": "function"
    },
    {
      "inputs": [
        {
          "internalType": "string[]",
          "name": "_name",
          "type": "string[]"
        },
        {
          "internalType": "string[]",
          "name": "_data",
          "type": "string[]"
        }
      ],
      "name": "setDocuments",
      "outputs": [],
      "stateMutability": "nonpayable",
      "type": "function"
    },
    {
      "inputs": [
        {
          "internalType": "address",
          "name": "_list",
          "type": "address"
        }
      ],
      "name": "setList",
      "outputs": [],
      "stateMutability": "nonpayable",
      "type": "function"
    },
    {
      "inputs": [],
      "name": "tokenPrice",
      "outputs": [
        {
          "internalType": "uint256",
          "name": "",
          "type": "uint256"
        }
      ],
      "stateMutability": "view",
      "type": "function"
    },
    {
      "inputs": [
        {
          "internalType": "address",
          "name": "_user",
          "type": "address"
        }
      ],
      "name": "tokensClaimable",
      "outputs": [
        {
          "internalType": "uint256",
          "name": "claimerCommitment",
          "type": "uint256"
        }
      ],
      "stateMutability": "view",
      "type": "function"
    },
    {
      "inputs": [],
      "name": "wallet",
      "outputs": [
        {
          "internalType": "address payable",
          "name": "",
          "type": "address"
        }
      ],
      "stateMutability": "view",
      "type": "function"
    },
    {
      "inputs": [
        {
          "internalType": "address payable",
          "name": "beneficiary",
          "type": "address"
        }
      ],
      "name": "withdrawTokens",
      "outputs": [],
      "stateMutability": "nonpayable",
      "type": "function"
    },
    {
      "inputs": [],
      "name": "withdrawTokens",
      "outputs": [],
      "stateMutability": "nonpayable",
      "type": "function"
    },
    {
      "stateMutability": "payable",
      "type": "receive"
    }
  ],
  "transactionHash": "0xde9900a422e44c9356f0f82f88d2ca40d90af481bdbf5a736d417dbba72ed166",
  "args": [],
  "solcInputHash": "d1b4fa5f316a6a8ee3524e1600e2925f",
  "bytecode": "0x608060405234801561001057600080fd5b506001600555614da2806100256000396000f3fe6080604052600436106104095760003560e01c80638643337411610213578063c884ef8311610123578063dccfe310116100ab578063e8fcf7231161007a578063e8fcf72314610bbb578063f04899d314610bdb578063f08b82e614610bf0578063f5b541a614610c05578063fc4e3e0a14610c1a57610418565b8063dccfe31014610b37578063dde51f6d14610b57578063e0e081d714610b77578063e6594abd14610b9b57610418565b8063d2423b51116100f2578063d2423b5114610aa1578063d539139314610ac2578063d547741f14610ad7578063d69d3e6214610af7578063dc97e08214610b1757610418565b8063c884ef8314610a21578063c92bce8714610a41578063c9fab05914610a61578063ca15c87314610a8157610418565b80639a87222c116101a6578063adbf377611610175578063adbf37761461098c578063b3f05b97146109ac578063b7928b1d146109c1578063c395fcb3146109e1578063c6b547e614610a0157610418565b80639a87222c146109155780639c64d0ae146109355780639fa5f50b14610955578063a217fddf1461097757610418565b80639010d07c116101e25780639010d07c146108a057806391d14854146108c05780639478941c146108e057806399fdb3201461090057610418565b806386433374146108415780638a845fc0146108565780638d8f2adb146108765780638fa8b7901461088b57610418565b806345a15388116103195780636595171c116102a15780637c516e94116102705780637c516e94146107a95780637ccb6a64146107c95780637ff9b596146107f757806381353c8e1461080c578063857d26081461082c57610418565b80636595171c146107345780636ae260c11461075457806373973fcb1461077457806374cf9fc51461079457610418565b80634bb278f3116102e85780634bb278f3146106b75780634dc80e15146106cc5780634ddf47d4146106ec578063521eb273146106ff57806354f1e1261461071457610418565b806345a153881461063f57806347535d7b1461066257806349df728c146106775780634b3e6abb1461069757610418565b806324e4025b1161039c57806336568abe1161036b57806336568abe146105b357806336d0054b146105d35780633d15cc6d146105e85780633d1c22731461060a5780633f16431a1461061f57610418565b806324e4025b1461053b578063297629601461055b5780632f2ff15d1461056e578063314148e21461058e57610418565b806317026455116103d857806317026455146104c45780631b3e460e146104d9578063212f8a81146104fb578063248a9ca31461051b57610418565b8063031bee001461041d578063099db0171461044a5780630cc4c03314610477578063113b0ab2146104a457610418565b3661041857610416610c3a565b005b600080fd5b34801561042957600080fd5b50610432610c5b565b60405161044193929190614ae2565b60405180910390f35b34801561045657600080fd5b5061046a6104653660046136f2565b610c88565b6040516104419190613e9f565b34801561048357600080fd5b50610497610492366004613803565b610caa565b6040516104419190613eb3565b3480156104b057600080fd5b5061046a6104bf3660046136f2565b610cf1565b3480156104d057600080fd5b5061046a610d0b565b3480156104e557600080fd5b506104ee610d29565b6040516104419190613eaa565b34801561050757600080fd5b50610416610516366004613824565b610d2e565b34801561052757600080fd5b506104ee61053636600461394e565b610de1565b34801561054757600080fd5b5061041661055636600461398a565b610df6565b6104166105693660046137cb565b610f38565b34801561057a57600080fd5b50610416610589366004613966565b61101e565b34801561059a57600080fd5b506105a3611066565b6040516104419493929190613d73565b3480156105bf57600080fd5b506104166105ce366004613966565b61109e565b3480156105df57600080fd5b5061046a6110e0565b3480156105f457600080fd5b506105fd6110ff565b6040516104419190613c82565b34801561061657600080fd5b506104ee61110e565b34801561062b57600080fd5b5061041661063a3660046136f2565b611114565b34801561064b57600080fd5b50610654611176565b604051610441929190614aba565b34801561066e57600080fd5b5061046a611190565b34801561068357600080fd5b506104166106923660046136f2565b6111c5565b3480156106a357600080fd5b506104166106b2366004613916565b61130f565b3480156106c357600080fd5b5061041661133f565b3480156106d857600080fd5b506104ee6106e73660046136f2565b61153f565b6104166106fa3660046139ab565b611062565b34801561070b57600080fd5b506105fd611624565b34801561072057600080fd5b5061041661072f3660046136f2565b611633565b34801561074057600080fd5b5061041661074f3660046136f2565b611695565b34801561076057600080fd5b5061041661076f36600461398a565b6116ea565b34801561078057600080fd5b506104ee61078f36600461394e565b61183d565b3480156107a057600080fd5b506104976118c1565b3480156107b557600080fd5b506104166107c43660046139ea565b6118e4565b3480156107d557600080fd5b506107e96107e43660046139ab565b611958565b604051610441929190613ef5565b34801561080357600080fd5b506104ee611a45565b34801561081857600080fd5b506104166108273660046139ab565b611a58565b34801561083857600080fd5b506104ee611aa8565b34801561084d57600080fd5b5061046a611aba565b34801561086257600080fd5b506104166108713660046136f2565b611b01565b34801561088257600080fd5b50610416611b63565b34801561089757600080fd5b50610416611b6e565b3480156108ac57600080fd5b506105fd6108bb36600461398a565b611c6d565b3480156108cc57600080fd5b5061046a6108db366004613966565b611c8e565b3480156108ec57600080fd5b506104166108fb3660046136f2565b611ca6565b34801561090c57600080fd5b506105fd611d08565b34801561092157600080fd5b506104166109303660046136f2565b611d17565b34801561094157600080fd5b50610416610950366004613a6c565b611da5565b34801561096157600080fd5b5061096a611dc9565b6040516104419190613e3f565b34801561098357600080fd5b506104ee611ea1565b34801561099857600080fd5b506104166109a73660046136f2565b611ea6565b3480156109b857600080fd5b5061046a611f08565b3480156109cd57600080fd5b506104166109dc3660046136f2565b611f18565b3480156109ed57600080fd5b5061046a6109fc3660046136f2565b611f7a565b348015610a0d57600080fd5b50610497610a1c36600461394e565b611f86565b348015610a2d57600080fd5b506104ee610a3c3660046136f2565b612051565b348015610a4d57600080fd5b50610416610a5c3660046138ae565b612063565b348015610a6d57600080fd5b50610416610a7c366004613803565b6120d5565b348015610a8d57600080fd5b506104ee610a9c36600461394e565b6124b5565b610ab4610aaf366004613865565b6124cc565b604051610441929190613da5565b348015610ace57600080fd5b506104ee61265c565b348015610ae357600080fd5b50610416610af2366004613966565b61266e565b348015610b0357600080fd5b50610416610b123660046136f2565b6126a8565b348015610b2357600080fd5b50610416610b32366004613b7a565b6126c6565b348015610b4357600080fd5b50610416610b523660046136f2565b6126d1565b348015610b6357600080fd5b50610416610b723660046139ab565b612726565b348015610b8357600080fd5b50610b8c612742565b60405161044193929190614a97565b348015610ba757600080fd5b50610416610bb63660046136f2565b612767565b348015610bc757600080fd5b506104ee610bd63660046136f2565b6127a4565b348015610be757600080fd5b506105fd6127b6565b348015610bfc57600080fd5b506104ee6127c5565b348015610c1157600080fd5b506104ee6127db565b348015610c2657600080fd5b5061046a610c353660046136f2565b6127ed565b60405162461bcd60e51b8152600401610c5290614146565b60405180910390fd5b6007546001600160401b0380821691600160401b810490911690600160801b90046001600160801b031683565b6000610ca2600080516020614d4d83398151915283611c8e565b90505b919050565b60608b8b8b8b8b8b8b8b8b8b8b604051602001610cd19b9a99989796959493929190613c96565b60405160208183030381529060405290509b9a5050505050505050505050565b6000610ca2600080516020614bbd83398151915283611c8e565b60075442600160401b9091046001600160401b031662093a80011090565b600181565b60026005541415610d515760405162461bcd60e51b8152600401610c52906148f2565b6002600555600b546001600160a01b031673eeeeeeeeeeeeeeeeeeeeeeeeeeeeeeeeeeeeeeee1415610d955760405162461bcd60e51b8152600401610c5290614a1f565b80610da257610da2610c3a565b6000610dad8361183d565b90508015610dd657600b54610dcc906001600160a01b03163383612807565b610dd684826128e4565b505060016005555050565b60009081526020819052604090206002015490565b610dff33611f7a565b610e0857600080fd5b60008111610e285760405162461bcd60e51b8152600401610c52906149a2565b60008211610e485760405162461bcd60e51b8152600401610c52906143b3565b6008546001600160801b031615610e715760405162461bcd60e51b8152600401610c5290614239565b600754600160801b90046001600160801b0316610e8d82612aaf565b1115610eab5760405162461bcd60e51b8152600401610c5290614734565b610eb482612add565b600680546001600160801b0319166001600160801b0392909216919091179055610edd81612add565b600680546001600160801b03928316600160801b0292169190911790556040517f622a57040c34e45abc5fadeb22e4c3c687cf48a096c86694cd21a7be9e7851ee90610f2c9084908490614ad4565b60405180910390a15050565b60026005541415610f5b5760405162461bcd60e51b8152600401610c52906148f2565b6002600555600b546001600160a01b031673eeeeeeeeeeeeeeeeeeeeeeeeeeeeeeeeeeeeeeee14610f9e5760405162461bcd60e51b8152600401610c52906145c1565b80610fab57610fab610c3a565b6000610fb63461183d565b90506000610fc43483612b0a565b90508115610fd657610fd684836128e4565b8015610dd6576040516001600160a01b0385169082156108fc029083906000818181858888f19350505050158015611012573d6000803e3d6000fd5b50505060016005555050565b60008281526020819052604090206002015461103c906108db612b2d565b6110585760405162461bcd60e51b8152600401610c52906140ab565b6110628282612b31565b5050565b6009546007546008546001600160a01b03909216926001600160401b0380831693600160401b9093041691600160801b900460ff1690565b6110a6612b2d565b6001600160a01b0316816001600160a01b0316146110d65760405162461bcd60e51b8152600401610c52906149d0565b6110628282612b9a565b6006546008546001600160801b03600160801b90920482169116101590565b600b546001600160a01b031681565b60045490565b61112c600080516020614bbd8339815191528261101e565b611134612b2d565b6001600160a01b0316816001600160a01b03167f1d5f9ec24c6f91be922ea13ceaad919ad6554a41b5c26087f96289a9baf98ad260405160405180910390a350565b6006546001600160801b0380821691600160801b90041682565b6007546000906001600160401b031642108015906111c05750600754600160401b90046001600160401b03164211155b905090565b600260055414156111e85760405162461bcd60e51b8152600401610c52906148f2565b60026005556111f56110e0565b156112a557600854600160801b900460ff166112235760405162461bcd60e51b8152600401610c52906146fd565b600061122e8261153f565b9050600081116112505760405162461bcd60e51b8152600401610c52906148bb565b6001600160a01b0382166000908152600e60205260409020546112739082612c03565b6001600160a01b038084166000908152600e602052604090209190915560095461129f91168383612c26565b50611307565b600754600160401b90046001600160401b031642116112d65760405162461bcd60e51b8152600401610c52906146b6565b6001600160a01b038082166000908152600d602052604081208054919055600b54909161130591168383612c26565b505b506001600555565b61131833611f7a565b61132157600080fd5b60088054911515600160881b0260ff60881b19909216919091179055565b600260055414156113625760405162461bcd60e51b8152600401610c52906148f2565b600260055561137033611f7a565b806113855750600a546001600160a01b031633145b80611394575061139433610cf1565b806113a257506113a2610d0b565b6113be5760405162461bcd60e51b8152600401610c5290614960565b60088054600160801b900460ff16156113e95760405162461bcd60e51b8152600401610c5290614287565b60076113f36110e0565b156114a957611400611aba565b61141c5760405162461bcd60e51b8152600401610c5290614607565b600b54600a548354611444926001600160a01b039081169216906001600160801b0316612c26565b815460009061145b906001600160801b0316612aaf565b825490915060009061147d90600160801b90046001600160801b031683612b0a565b905080156114a257600954600a546114a2916001600160a01b03908116911683612c26565b50506114fc565b6114b1611aba565b6114cd5760405162461bcd60e51b8152600401610c5290614607565b600954600a5482546114fc926001600160a01b03908116921690600160801b90046001600160801b0316612c26565b815460ff60801b1916600160801b1782556040517f32bebcfd2d04dbae321298091d96d2cb1d07279f59718cd83bd98245b8b82b5a90600090a150506001600555565b6009546040516370a0823160e01b815260009182916001600160a01b03909116906370a0823190611574903090600401613c82565b60206040518083038186803b15801561158c57600080fd5b505afa1580156115a0573d6000803e3d6000fd5b505050506040513d601f19601f820116820180604052508101906115c49190613b62565b6001600160a01b0384166000908152600d60205260409020549091506115e990612aaf565b6001600160a01b0384166000908152600e6020526040902054909250611610908390612b0a565b91508082111561161e578091505b50919050565b600a546001600160a01b031681565b61164b600080516020614d4d8339815191528261266e565b611653612b2d565b6001600160a01b0316816001600160a01b03167f56692a161ffec953ddf9def93b958ea8d1ec95e21b80870c66be91a4374dc4e360405160405180910390a350565b6116a060008261101e565b6116a8612b2d565b6001600160a01b0316816001600160a01b03167f2570ac42fd8b322dc453ada624dc2ed0e9bdd67f16f201a25bbd30468f2aa18760405160405180910390a350565b6116f333611f7a565b6116fc57600080fd5b6402540be40082106117205760405162461bcd60e51b8152600401610c529061485e565b6402540be40081106117445760405162461bcd60e51b8152600401610c529061485e565b428210156117645760405162461bcd60e51b8152600401610c52906140fa565b8181116117835760405162461bcd60e51b8152600401610c5290614429565b6008546001600160801b0316156117ac5760405162461bcd60e51b8152600401610c5290614239565b6117b582612c6a565b6007805467ffffffffffffffff19166001600160401b03929092169190911790556117df81612c6a565b600780546001600160401b0392909216600160401b0267ffffffffffffffff60401b199092169190911790556040517f5725d1e4352d6944889e54837ffaefde55cdc0b55796b831365d61cd4c87fdb890610f2c9084908490614ad4565b60008061184983612aaf565b600854909150600090611864906001600160801b0316612aaf565b600754909150600160801b90046001600160801b03166118848284612c03565b11156118b9576007546118b0906118ab90600160801b90046001600160801b031683612b0a565b612c93565b92505050610ca5565b509192915050565b60606040518061018001604052806101508152602001614bdd6101509139905090565b60405163d505accf60e01b81526001600160a01b0389169063d505accf9061191c908a908a908a908a908a908a908a90600401613d19565b600060405180830381600087803b15801561193657600080fd5b505af115801561194a573d6000803e3d6000fd5b505050505050505050505050565b606060006002848460405161196e929190613be6565b908152602001604051809103902060010160028585604051611991929190613be6565b908152604080516020928190038301812054845460026101006001831615026000190190911604601f810185900485028301850190935282825264010000000090046001600160401b03169290918491830182828015611a325780601f10611a0757610100808354040283529160200191611a32565b820191906000526020600020905b815481529060010190602001808311611a1557829003601f168201915b50505050509150915091505b9250929050565b60006111c0670de0b6b3a7640000612c93565b600080808080808080808080611a708c8e018e613715565b9a509a509a509a509a509a509a509a509a509a509a50611a998b8b8b8b8b8b8b8b8b8b8b6120d5565b50505050505050505050505050565b600080516020614bbd83398151915281565b600754600090600160401b90046001600160401b03164211806111c057506007546008546001600160801b03600160801b909204821691611afb9116612aaf565b14905090565b611b19600080516020614bbd8339815191528261266e565b611b21612b2d565b6001600160a01b0316816001600160a01b03167fe5f1aa9e528307345194b88b24a32401c13926e0823060f1049d9b26c0bb62b260405160405180910390a350565b611b6c336111c5565b565b60026005541415611b915760405162461bcd60e51b8152600401610c52906148f2565b6002600555611b9f33611f7a565b611ba857600080fd5b60088054600160801b900460ff1615611bd35760405162461bcd60e51b8152600401610c5290614287565b80546001600160801b031615611bfb5760405162461bcd60e51b8152600401610c52906144c5565b600954600a54600754611c2b926001600160a01b03908116921690600160801b90046001600160801b0316612c26565b805460ff60801b1916600160801b1781556040517fa5fb31e47bd1eca58bf14a3312d5e6aeafdc4ee787c8ed348c15c2b092324d9390600090a1506001600555565b6000828152602081905260408120611c859083612cb8565b90505b92915050565b6000828152602081905260408120611c859083612cc4565b611cbe600080516020614d2d8339815191528261266e565b611cc6612b2d565b6001600160a01b0316816001600160a01b03167f70b25138b6fadeb9992d18b9653564271823e34b3e3257515d12a6d4b15fcddf60405160405180910390a350565b6009546001600160a01b031681565b611d2033611f7a565b611d2957600080fd5b6001600160a01b038116611d4f5760405162461bcd60e51b8152600401610c52906147e2565b600a80546001600160a01b0319166001600160a01b0383161790556040517f34ae2bad9265f0212d4cf341708b8250949164bb54f9d0e4f442024f83bb2f9090611d9a908390613c82565b60405180910390a150565b611dae33611f7a565b611db757600080fd5b611dc384848484612cd9565b50505050565b60606004805480602002602001604051908101604052809291908181526020016000905b82821015611e985760008481526020908190208301805460408051601f6002600019610100600187161502019094169390930492830185900485028101850190915281815292830182828015611e845780601f10611e5957610100808354040283529160200191611e84565b820191906000526020600020905b815481529060010190602001808311611e6757829003601f168201915b505050505081526020019060010190611ded565b50505050905090565b600081565b611ebe600080516020614d4d8339815191528261101e565b611ec6612b2d565b6001600160a01b0316816001600160a01b03167f0be6ab9784c7401fafb73f7bc47bc67cc4ef8c47a60ad3cb66d1de0353a0784c60405160405180910390a350565b600854600160801b900460ff1690565b611f30600080516020614d2d8339815191528261101e565b611f38612b2d565b6001600160a01b0316816001600160a01b03167f2d45ee102874989882745a26688d0b4fffee125a18df26536b12582c7fde4e1760405160405180910390a350565b6000610ca28183611c8e565b6004546060908210611faa5760405162461bcd60e51b8152600401610c529061477e565b60048281548110611fb757fe5b600091825260209182902001805460408051601f60026000196101006001871615020190941693909304928301859004850281018501909152818152928301828280156120455780601f1061201a57610100808354040283529160200191612045565b820191906000526020600020905b81548152906001019060200180831161202857829003601f168201915b50505050509050919050565b600e6020526000908152604090205481565b61206c33611f7a565b61207557600080fd5b8260005b818110156120cd576120c586868381811061209057fe5b90506020028101906120a29190614b0e565b8686858181106120ae57fe5b90506020028101906120c09190614b0e565b612cd9565b600101612079565b505050505050565b6402540be40087106120f95760405162461bcd60e51b8152600401610c529061485e565b6402540be400861061211d5760405162461bcd60e51b8152600401610c529061485e565b4287101561213d5760405162461bcd60e51b8152600401610c52906140fa565b86861161215c5760405162461bcd60e51b8152600401610c52906141be565b6000851161217c5760405162461bcd60e51b8152600401610c52906143b3565b6001600160a01b0381166121a25760405162461bcd60e51b8152600401610c52906147e2565b6001600160a01b0383166121c85760405162461bcd60e51b8152600401610c52906144fc565b600088116121e85760405162461bcd60e51b8152600401610c52906147ab565b600084116122085760405162461bcd60e51b8152600401610c52906149a2565b896001600160a01b031663313ce5676040518163ffffffff1660e01b815260040160206040518083038186803b15801561224157600080fd5b505afa158015612255573d6000803e3d6000fd5b505050506040513d601f19601f820116820180604052508101906122799190613b9e565b60ff1660121461229b5760405162461bcd60e51b8152600401610c529061447b565b6001600160a01b03891673eeeeeeeeeeeeeeeeeeeeeeeeeeeeeeeeeeeeeeee14612352576000896001600160a01b031663313ce5676040518163ffffffff1660e01b815260040160206040518083038186803b1580156122fa57600080fd5b505afa15801561230e573d6000803e3d6000fd5b505050506040513d601f19601f820116820180604052508101906123329190613b9e565b60ff16116123525760405162461bcd60e51b8152600401610c52906143e1565b61235b85612add565b600680546001600160801b0319166001600160801b039290921691909117905561238484612add565b600680546001600160801b03928316600160801b0292169190911790556123aa87612c6a565b6007805467ffffffffffffffff19166001600160401b03929092169190911790556123d486612c6a565b600780546001600160401b0392909216600160401b0267ffffffffffffffff60401b1990921691909117905561240988612add565b600780546001600160801b03928316600160801b029216919091179055600980546001600160a01b03808d166001600160a01b031992831617909255600b80548c8416908316179055600a80549284169290911691909117905561246c83612767565b61247582612f2b565b8761247f85612aaf565b111561249d5760405162461bcd60e51b8152600401610c529061403f565b6124a88a8c8a612807565b5050505050505050505050565b6000818152602081905260408120610ca290612f6d565b606080836001600160401b03811180156124e557600080fd5b5060405190808252806020026020018201604052801561250f578160200160208202803683370190505b509150836001600160401b038111801561252857600080fd5b5060405190808252806020026020018201604052801561255c57816020015b60608152602001906001900390816125475790505b50905060005b8481101561265357600060603088888581811061257b57fe5b905060200281019061258d9190614b0e565b60405161259b929190613be6565b600060405180830381855af49150503d80600081146125d6576040519150601f19603f3d011682016040523d82523d6000602084013e6125db565b606091505b509150915081806125ea575085155b6125f382612f78565b906126115760405162461bcd60e51b8152600401610c529190613eb3565b508185848151811061261f57fe5b6020026020010190151590811515815250508084848151811061263e57fe5b60209081029190910101525050600101612562565b50935093915050565b600080516020614d4d83398151915281565b60008281526020819052604090206002015461268c906108db612b2d565b6110d65760405162461bcd60e51b8152600401610c52906142f5565b6126b133611f7a565b6126ba57600080fd5b6126c381612f2b565b50565b611062338383610d2e565b6126dc60008261266e565b6126e4612b2d565b6001600160a01b0316816001600160a01b03167f21ba1239795d4e22874e3dc55f0a9d7b65bfb23069d32965d7c23be9524ccf9560405160405180910390a350565b61272f33611f7a565b61273857600080fd5b6110628282612fd8565b6008546001600160801b0381169060ff600160801b8204811691600160881b90041683565b60015460ff161561278a5760405162461bcd60e51b8152600401610c5290613fd0565b612795600082611058565b506001805460ff191681179055565b600d6020526000908152604090205481565b600c546001600160a01b031681565b600754600160801b90046001600160801b031690565b600080516020614d2d83398151915281565b6000610ca2600080516020614d2d83398151915283611c8e565b60006060846001600160a01b03166323b872dd85308660405160240161282f93929190613cf5565b6040516020818303038152906040529060e01b6020820180516001600160e01b0383818316178352505050506040516128689190613bf6565b6000604051808303816000865af19150503d80600081146128a5576040519150601f19603f3d011682016040523d82523d6000602084013e6128aa565b606091505b50915091508180156128d45750805115806128d45750808060200190518101906128d49190613932565b6128dd57600080fd5b5050505050565b6007546001600160401b031642108015906129115750600754600160401b90046001600160401b03164211155b61292d5760405162461bcd60e51b8152600401610c5290614681565b6001600160a01b0382166129535760405162461bcd60e51b8152600401610c5290614577565b6001600160a01b0382166000908152600d60205260408120546129769083612c03565b600854909150600160881b900460ff1615612a1657600c54604051631cd53d5560e01b81526001600160a01b0390911690631cd53d55906129bd9086908590600401613d5a565b60206040518083038186803b1580156129d557600080fd5b505afa1580156129e9573d6000803e3d6000fd5b505050506040513d601f19601f82011682018060405250810190612a0d9190613932565b612a1657600080fd5b6001600160a01b0383166000908152600d60205260409020819055600854612a5090612a4b906001600160801b031684612c03565b612add565b600880546001600160801b0319166001600160801b03929092169190911790556040517f077511a636ba1f10551cc7b89c13ff66a6ac9344e8a917527817a9690b15af7a90612aa29085908590613d5a565b60405180910390a1505050565b600654600090610ca290670de0b6b3a764000090612ad79085906001600160801b0316613209565b90613240565b60006001600160801b03821115612b065760405162461bcd60e51b8152600401610c52906142be565b5090565b80820382811115611c885760405162461bcd60e51b8152600401610c5290613fa1565b3390565b6000828152602081905260409020612b499082613272565b1561106257612b56612b2d565b6001600160a01b0316816001600160a01b0316837f2f8788117e7eff1d82e926ec794901d17c78024a50270940304540a733656f0d60405160405180910390a45050565b6000828152602081905260409020612bb29082613287565b1561106257612bbf612b2d565b6001600160a01b0316816001600160a01b0316837ff6391f5c32d9c69d2a47ea670b442974b53935d1edc7fd64eb21e047a839171b60405160405180910390a45050565b81810181811015611c885760405162461bcd60e51b8152600401610c5290614345565b6001600160a01b03831673eeeeeeeeeeeeeeeeeeeeeeeeeeeeeeeeeeeeeeee1415612c5a57612c55828261329c565b612c65565b612c65838383613329565b505050565b60006001600160401b03821115612b065760405162461bcd60e51b8152600401610c5290614540565b600654600090610ca2906001600160801b0316612ad784670de0b6b3a7640000613209565b6000611c85838361334f565b6000611c85836001600160a01b038416613394565b82612cf65760405162461bcd60e51b8152600401610c529061437c565b80612d135760405162461bcd60e51b8152600401610c5290614827565b60006001600160401b031660028585604051612d30929190613be6565b908152604051908190036020019020546001600160401b03640100000000909104161415612dd65760048054600181018255600091909152612d95907f8a35acfbc15ff81a39ae7d344fd709f28e8600b4aa8c65c6b64bfe7fe36bd19b0185856134c0565b50600454604051600290612dac9087908790613be6565b908152604051908190036020019020805463ffffffff9290921663ffffffff199092169190911790555b604051806060016040528060028686604051612df3929190613be6565b90815260408051602092819003830190205463ffffffff168352426001600160401b0316838301528051601f860183900483028101830182528581529201919085908590819084018382808284376000920191909152505050915250604051600290612e629087908790613be6565b9081526040805191829003602090810190922083518154858501516001600160401b0316640100000000026bffffffffffffffff000000001963ffffffff90931663ffffffff1990921691909117919091161781559083015180519192612ed19260018501929091019061353a565b5050604051612ee4915085908590613be6565b60405180910390207fbaa206e5ea800eb88bce099f453fee53295b793b9d5d1cfc4ce4b6db06a34f538383604051612f1d929190613ec6565b60405180910390a250505050565b6001600160a01b038116156126c357600c80546001600160a01b0383166001600160a01b03199091161790556008805460ff60881b1916600160881b17905550565b6000610ca2826133ac565b6060604482511015612fbe575060408051808201909152601d81527f5472616e73616374696f6e2072657665727465642073696c656e746c790000006020820152610ca5565b60048201915081806020019051810190610ca29190613ac8565b60006001600160401b031660028383604051612ff5929190613be6565b908152604051908190036020019020546001600160401b036401000000009091041614156130355760405162461bcd60e51b8152600401610c529061420a565b600060016002848460405161304b929190613be6565b9081526040519081900360200190205460045463ffffffff91821692909203925082166000199091011461312c5760048054600019810190811061308b57fe5b9060005260206000200160048263ffffffff16815481106130a857fe5b9060005260206000200190805460018160011615610100020316600290046130d19291906135a8565b5080600101600260048363ffffffff16815481106130eb57fe5b906000526020600020016040516131029190613c12565b908152604051908190036020019020805463ffffffff9290921663ffffffff199092169190911790555b600480548061313757fe5b600190038181906000526020600020016000613153919061361d565b90558282604051613165929190613be6565b60405180910390207f4b5338540b4d1c0f6dd0308a25f633b7ff60472f894d711cff9dd64e35c613b2600285856040516131a0929190613be6565b90815260200160405180910390206001016040516131be9190613f17565b60405180910390a2600283836040516131d8929190613be6565b90815260405190819003602001902080546bffffffffffffffffffffffff1916815560006128dd600183018261361d565b60008115806132245750508082028282828161322157fe5b04145b611c885760405162461bcd60e51b8152600401610c5290614929565b60008082116132615760405162461bcd60e51b8152600401610c5290614a69565b81838161326a57fe5b049392505050565b6000611c85836001600160a01b0384166133b0565b6000611c85836001600160a01b0384166133fa565b604080516000808252602082019092526001600160a01b0384169083906040516132c69190613bf6565b60006040518083038185875af1925050503d8060008114613303576040519150601f19603f3d011682016040523d82523d6000602084013e613308565b606091505b5050905080612c655760405162461bcd60e51b8152600401610c529061463e565b60006060846001600160a01b031663a9059cbb858560405160240161282f929190613d5a565b815460009082106133725760405162461bcd60e51b8152600401610c5290613ffd565b82600001828154811061338157fe5b9060005260206000200154905092915050565b60009081526001919091016020526040902054151590565b5490565b60006133bc8383613394565b6133f257508154600181810184556000848152602080822090930184905584548482528286019093526040902091909155611c88565b506000611c88565b600081815260018301602052604081205480156134b6578354600019808301919081019060009087908390811061342d57fe5b906000526020600020015490508087600001848154811061344a57fe5b60009182526020808320909101929092558281526001898101909252604090209084019055865487908061347a57fe5b60019003818190600052602060002001600090559055866001016000878152602001908152602001600020600090556001945050505050611c88565b6000915050611c88565b828054600181600116156101000203166002900490600052602060002090601f016020900481019282601f106135015782800160ff1982351617855561352e565b8280016001018555821561352e579182015b8281111561352e578235825591602001919060010190613513565b50612b0692915061365d565b828054600181600116156101000203166002900490600052602060002090601f016020900481019282601f1061357b57805160ff191683800117855561352e565b8280016001018555821561352e579182015b8281111561352e57825182559160200191906001019061358d565b828054600181600116156101000203166002900490600052602060002090601f016020900481019282601f106135e1578054855561352e565b8280016001018555821561352e57600052602060002091601f016020900482015b8281111561352e578254825591600101919060010190613602565b50805460018160011615610100020316600290046000825580601f1061364357506126c3565b601f0160209004906000526020600020908101906126c391905b5b80821115612b06576000815560010161365e565b60008083601f840112613683578182fd5b5081356001600160401b03811115613699578182fd5b6020830191508360208083028501011115611a3e57600080fd5b60008083601f8401126136c4578182fd5b5081356001600160401b038111156136da578182fd5b602083019150836020828501011115611a3e57600080fd5b600060208284031215613703578081fd5b813561370e81614b8a565b9392505050565b60008060008060008060008060008060006101608c8e031215613736578687fd5b8b3561374181614b8a565b9a5060208c013561375181614b8a565b995060408c013561376181614b8a565b985060608c0135975060808c0135965060a08c0135955060c08c0135945060e08c013593506101008c013561379581614b8a565b92506101208c01356137a681614b8a565b91506101408c01356137b781614b8a565b809150509295989b509295989b9093969950565b600080604083850312156137dd578182fd5b82356137e881614b8a565b915060208301356137f881614b9f565b809150509250929050565b60008060008060008060008060008060006101608c8e031215613736578081fd5b600080600060608486031215613838578283fd5b833561384381614b8a565b925060208401359150604084013561385a81614b9f565b809150509250925092565b600080600060408486031215613879578081fd5b83356001600160401b0381111561388e578182fd5b61389a86828701613672565b909450925050602084013561385a81614b9f565b600080600080604085870312156138c3578182fd5b84356001600160401b03808211156138d9578384fd5b6138e588838901613672565b909650945060208701359150808211156138fd578384fd5b5061390a87828801613672565b95989497509550505050565b600060208284031215613927578081fd5b813561370e81614b9f565b600060208284031215613943578081fd5b815161370e81614b9f565b60006020828403121561395f578081fd5b5035919050565b60008060408385031215613978578182fd5b8235915060208301356137f881614b8a565b6000806040838503121561399c578182fd5b50508035926020909101359150565b600080602083850312156139bd578182fd5b82356001600160401b038111156139d2578283fd5b6139de858286016136b3565b90969095509350505050565b600080600080600080600080610100898b031215613a06578182fd5b8835613a1181614b8a565b97506020890135613a2181614b8a565b96506040890135613a3181614b8a565b9550606089013594506080890135935060a0890135613a4f81614bad565b979a969950949793969295929450505060c08201359160e0013590565b60008060008060408587031215613a81578182fd5b84356001600160401b0380821115613a97578384fd5b613aa3888389016136b3565b90965094506020870135915080821115613abb578384fd5b5061390a878288016136b3565b600060208284031215613ad9578081fd5b81516001600160401b0380821115613aef578283fd5b818401915084601f830112613b02578283fd5b815181811115613b10578384fd5b604051601f8201601f191681016020018381118282101715613b30578586fd5b604052818152838201602001871015613b47578485fd5b613b58826020830160208701614b5e565b9695505050505050565b600060208284031215613b73578081fd5b5051919050565b60008060408385031215613b8c578182fd5b8235915060208301356137f881614b9f565b600060208284031215613baf578081fd5b815161370e81614bad565b60008151808452613bd2816020860160208601614b5e565b601f01601f19169290920160200192915050565b6000828483379101908152919050565b60008251613c08818460208701614b5e565b9190910192915050565b6000808354600180821660008114613c315760018114613c4857613c77565b60ff198316865260028304607f1686019350613c77565b600283048786526020808720875b83811015613c6f5781548a820152908501908201613c56565b505050860193505b509195945050505050565b6001600160a01b0391909116815260200190565b6001600160a01b039b8c168152998b1660208b0152978a1660408a01526060890196909652608088019490945260a087019290925260c086015260e0850152841661010084015283166101208301529091166101408201526101600190565b6001600160a01b039384168152919092166020820152604081019190915260600190565b6001600160a01b0397881681529590961660208601526040850193909352606084019190915260ff16608083015260a082015260c081019190915260e00190565b6001600160a01b03929092168252602082015260400190565b6001600160a01b039490941684526001600160401b039283166020850152911660408301521515606082015260800190565b604080825283519082018190526000906020906060840190828701845b82811015613de0578151151584529284019290840190600101613dc2565b50505083810382850152808551613df78184613eaa565b91508192508381028201848801865b83811015613e30578583038552613e1e838351613bba565b94870194925090860190600101613e06565b50909998505050505050505050565b6000602080830181845280855180835260408601915060408482028701019250838701855b82811015613e9257603f19888603018452613e80858351613bba565b94509285019290850190600101613e64565b5092979650505050505050565b901515815260200190565b90815260200190565b600060208252611c856020830184613bba565b60006020825282602083015282846040840137818301604090810191909152601f909201601f19160101919050565b600060408252613f086040830185613bba565b90508260208301529392505050565b60006020808301818452828554600180821660008114613f3e5760018114613f5c57613f94565b60028304607f16855260ff1983166040890152606088019350613f94565b60028304808652613f6c8a614b52565b885b82811015613f8a5781548b820160400152908401908801613f6e565b8a01604001955050505b5091979650505050505050565b602080825260159082015274426f72696e674d6174683a20556e646572666c6f7760581b604082015260600190565b602080825260139082015272105b1c9958591e481a5b9a5d1a585b1a5cd959606a1b604082015260600190565b60208082526022908201527f456e756d657261626c655365743a20696e646578206f7574206f6620626f756e604082015261647360f01b606082015260800190565b60208082526046908201527f43726f776473616c653a20676f616c2073686f756c6420626520657175616c2060408201527f746f206f72206c6f776572207468616e20746f74616c20746f6b656e73206f7260608201526508195c5d585b60d21b608082015260a00190565b6020808252602f908201527f416363657373436f6e74726f6c3a2073656e646572206d75737420626520616e60408201526e0818591b5a5b881d1bc819dc985b9d608a1b606082015260800190565b6020808252602c908201527f43726f776473616c653a2073746172742074696d65206973206265666f72652060408201526b63757272656e742074696d6560a01b606082015260800190565b60208082526052908201527f4e6f2061677265656d656e742070726f76696465642c20706c6561736520726560408201527f766965772074686520736d61727420636f6e7472616374206265666f726520696060820152711b9d195c9858dd1a5b99c81dda5d1a081a5d60721b608082015260a00190565b6020808252602c908201527f43726f776473616c653a2073746172742074696d65206973206e6f742062656660408201526b6f726520656e642074696d6560a01b606082015260800190565b602080825260159082015274111bd8dd5b595b9d081cda1bdd5b1908195e1a5cdd605a1b604082015260600190565b6020808252602e908201527f43726f776473616c653a2061756374696f6e2063616e6e6f742068617665206160408201526d1b1c9958591e481cdd185c9d195960921b606082015260800190565b6020808252601c908201527f43726f776473616c653a20616c72656164792066696e616c697a656400000000604082015260600190565b6020808252601c908201527f426f72696e674d6174683a2075696e74313238204f766572666c6f7700000000604082015260600190565b60208082526030908201527f416363657373436f6e74726f6c3a2073656e646572206d75737420626520616e60408201526f2061646d696e20746f207265766f6b6560801b606082015260800190565b60208082526018908201527f426f72696e674d6174683a20416464204f766572666c6f770000000000000000604082015260600190565b60208082526018908201527f5a65726f206e616d65206973206e6f7420616c6c6f7765640000000000000000604082015260600190565b602080825260149082015273043726f776473616c653a207261746520697320360641b604082015260600190565b60208082526028908201527f43726f776473616c653a205061796d656e742063757272656e6379206973206e60408201526706f742045524332360c41b606082015260800190565b60208082526032908201527f43726f776473616c653a20656e642074696d65206d757374206265206f6c646560408201527172207468616e20737461727420707269636560701b606082015260800190565b6020808252602a908201527f43726f776473616c653a20546f6b656e20646f6573206e6f74206861766520316040820152693820646563696d616c7360b01b606082015260800190565b6020808252601f908201527f43726f776473616c653a2046756e647320616c72656164792072616973656400604082015260600190565b60208082526024908201527f43726f776473616c653a2061646d696e20697320746865207a65726f206164646040820152637265737360e01b606082015260800190565b6020808252601b908201527f426f72696e674d6174683a2075696e743634204f766572666c6f770000000000604082015260600190565b6020808252602a908201527f43726f776473616c653a2062656e656669636961727920697320746865207a65604082015269726f206164647265737360b01b606082015260800190565b60208082526026908201527f43726f776473616c653a205061796d656e742063757272656e6379206973206e6040820152650dee8408aa8960d31b606082015260800190565b6020808252601f908201527f43726f776473616c653a20486173206e6f742066696e69736865642079657400604082015260600190565b60208082526023908201527f5472616e7366657248656c7065723a204554485f5452414e534645525f46414960408201526213115160ea1b606082015260800190565b6020808252818101527f43726f776473616c653a206f7574736964652061756374696f6e20686f757273604082015260600190565b60208082526027908201527f43726f776473616c653a2061756374696f6e20686173206e6f742066696e69736040820152661a1959081e595d60ca1b606082015260800190565b60208082526018908201527f43726f776473616c653a206e6f742066696e616c697a65640000000000000000604082015260600190565b6020808252602a908201527f43726f776473616c653a206d696e696d756d20746172676574206578636565646040820152690732068617264206361760b41b606082015260800190565b602080825260139082015272496e646578206f7574206f6620626f756e647360681b604082015260600190565b6020808252601c908201527f43726f776473616c653a20746f74616c20746f6b656e73206973203000000000604082015260600190565b60208082526025908201527f43726f776473616c653a2077616c6c657420697320746865207a65726f206164604082015264647265737360d81b606082015260800190565b6020808252601a908201527f53686f756c64206e6f74206265206120656d7074792064617461000000000000604082015260600190565b6020808252603e908201527f43726f776473616c653a20656e74657220616e20756e69782074696d6573746160408201527f6d7020696e207365636f6e64732c206e6f74206d696c697365636f6e64730000606082015260800190565b6020808252601d908201527f43726f776473616c653a206e6f20746f6b656e7320746f20636c61696d000000604082015260600190565b6020808252601f908201527f5265656e7472616e637947756172643a207265656e7472616e742063616c6c00604082015260600190565b60208082526018908201527f426f72696e674d6174683a204d756c204f766572666c6f770000000000000000604082015260600190565b60208082526022908201527f43726f776473616c653a2073656e646572206d75737420626520616e2061646d60408201526134b760f11b606082015260800190565b602080825260149082015273043726f776473616c653a20676f616c20697320360641b604082015260600190565b6020808252602f908201527f416363657373436f6e74726f6c3a2063616e206f6e6c792072656e6f756e636560408201526e103937b632b9903337b91039b2b63360891b606082015260800190565b6020808252602a908201527f43726f776473616c653a205061796d656e742063757272656e6379206973206e60408201526937ba1030903a37b5b2b760b11b606082015260800190565b602080825260149082015273426f72696e674d6174683a20446976207a65726f60601b604082015260600190565b6001600160801b0393909316835290151560208301521515604082015260600190565b6001600160801b0392831681529116602082015260400190565b918252602082015260400190565b6001600160401b0393841681529190921660208201526001600160801b03909116604082015260600190565b6000808335601e19843603018112614b24578283fd5b8301803591506001600160401b03821115614b3d578283fd5b602001915036819003821315611a3e57600080fd5b60009081526020902090565b60005b83811015614b79578181015183820152602001614b61565b83811115611dc35750506000910152565b6001600160a01b03811681146126c357600080fd5b80151581146126c357600080fd5b60ff811681146126c357600080fdfe9d49f397ae9ef1a834b569acb967799a367061e305932181a44f5773da873bfd4920756e6465727374616e6420746861742049276d20696e746572616374696e672077697468206120736d61727420636f6e74726163742e204920756e6465727374616e64207468617420746f6b656e7320636f6d6d6974656420617265207375626a65637420746f2074686520746f6b656e2069737375657220616e64206c6f63616c206c617773207768657265206170706c696361626c652e204920726576696577656420636f6465206f662074686520736d61727420636f6e747261637420616e6420756e6465727374616e642069742066756c6c792e204920616772656520746f206e6f7420686f6c6420646576656c6f70657273206f72206f746865722070656f706c65206173736f6369617465642077697468207468652070726f6a656374206c6961626c6520666f7220616e79206c6f73736573206f72206d6973756e6465727374616e64696e677397667070c54ef182b0f5858b034beac1b6f3089aa2d3188bb1e8929f4fa9b9299f2df0fed2c77648de5860a4cc508cd0818c85b8b8a1ab4ceeef8d981c8956a6a2646970667358221220cb68a5951d411362b0f0273a532cd63e8ca440e70e05376a9e1d707cbcf0bb7764736f6c634300060c0033",
  "devdoc": {
    "kind": "dev",
    "methods": {
      "addAdminRole(address)": {
        "details": "The sender must have the admin role.",
        "params": {
          "_address": "EOA or contract receiving the new role."
        }
      },
      "addMinterRole(address)": {
        "details": "The sender must have the admin role",
        "params": {
          "_address": "EOA or contract receiving the new role"
        }
      },
      "addOperatorRole(address)": {
        "details": "The sender must have the admin role",
        "params": {
          "_address": "EOA or contract receiving the new role"
        }
      },
      "addSmartContractRole(address)": {
        "details": "The sender must have the admin role",
        "params": {
          "_address": "EOA or contract receiving the new role"
        }
      },
      "auctionEnded()": {
        "returns": {
          "_0": "auctionEnded True if successful or time has ended."
        }
      },
      "auctionSuccessful()": {
        "returns": {
          "_0": "auctionSuccessful True if the commitmentsTotal is equal or higher than goal."
        }
      },
      "batch(bytes[],bool)": {
        "params": {
          "calls": "An array of inputs for each call.",
          "revertOnFail": "If True then reverts after a failed call and stops doing further calls."
        },
        "returns": {
          "results": "An array with the returned data of each function call, mapped one-to-one to `calls`.",
          "successes": "An array indicating the success of a call, mapped one-to-one to `calls`."
        }
      },
      "calculateCommitment(uint256)": {
        "params": {
          "_commitment": "Number of tokens to be commited."
        },
        "returns": {
          "committed": "The amount able to be purchased during a sale."
        }
      },
      "cancelAuction()": {
        "details": "Admin can cancel the auction before it starts"
      },
      "commitEth(address,bool)": {
        "details": "low level token purchase with ETH ***DO NOT OVERRIDE*** This function has a non-reentrancy guard, so it shouldn't be called by another `nonReentrant` function.",
        "params": {
          "_beneficiary": "Recipient of the token purchase."
        }
      },
      "commitTokens(uint256,bool)": {
        "params": {
          "_amount": "Amount of tokens to commit."
        }
      },
      "commitTokensFrom(address,uint256,bool)": {
        "details": "Users must approve contract prior to committing tokens to auction.",
        "params": {
          "_amount": "Amount of approved ERC20 tokens.",
          "_from": "User ERC20 address."
        }
      },
      "finalize()": {
        "details": "Must be called after crowdsale ends, to do some extra finalization work. Calls the contracts finalization function."
      },
      "finalizeTimeExpired()": {
        "returns": {
          "_0": "True if 7 days have passed since the end of the auction"
        }
      },
      "finalized()": {
        "returns": {
          "_0": "bool True if sale has been finalised."
        }
      },
      "getAllDocuments()": {
        "returns": {
          "_0": "string List of all documents names present in the contract."
        }
      },
      "getCrowdsaleInitData(address,address,address,uint256,uint256,uint256,uint256,uint256,address,address,address)": {
        "params": {
          "_admin": "Address that can finalize crowdsale.",
          "_endTime": "Crowdsale end time.",
          "_funder": "The address that funds the token for crowdsale.",
          "_goal": "Minimum amount of funds to be raised in weis or tokens.",
          "_paymentCurrency": "The currency the crowdsale accepts for payment. Can be ETH or token address.",
          "_pointList": "Address that will manage auction approvals.",
          "_rate": "Number of token units a buyer gets per wei or token.",
          "_startTime": "Crowdsale start time.",
          "_token": "Address of the token being sold.",
          "_totalTokens": "The total number of tokens to sell in crowdsale.",
          "_wallet": "Address where collected funds will be forwarded to."
        },
        "returns": {
          "_data": "All the data in bytes format."
        }
      },
      "getDocument(string)": {
        "params": {
          "_name": "Name of the document"
        },
        "returns": {
          "_0": "string The data associated with the document.",
          "_1": "uint256 the timestamp at which the document was last modified."
        }
      },
      "getDocumentCount()": {
        "returns": {
          "_0": "uint256 Count of the document names present in the contract."
        }
      },
      "getDocumentName(uint256)": {
        "returns": {
          "_0": "string Name of the document name."
        }
      },
      "getRoleAdmin(bytes32)": {
        "details": "Returns the admin role that controls `role`. See {grantRole} and {revokeRole}. To change a role's admin, use {_setRoleAdmin}."
      },
      "getRoleMember(bytes32,uint256)": {
        "details": "Returns one of the accounts that have `role`. `index` must be a value between 0 and {getRoleMemberCount}, non-inclusive. Role bearers are not sorted in any particular way, and their ordering may change at any point. WARNING: When using {getRoleMember} and {getRoleMemberCount}, make sure you perform all queries on the same block. See the following https://forum.openzeppelin.com/t/iterating-over-elements-on-enumerableset-in-openzeppelin-contracts/2296[forum post] for more information."
      },
      "getRoleMemberCount(bytes32)": {
        "details": "Returns the number of accounts that have `role`. Can be used together with {getRoleMember} to enumerate all bearers of a role."
      },
      "grantRole(bytes32,address)": {
        "details": "Grants `role` to `account`. If `account` had not been already granted `role`, emits a {RoleGranted} event. Requirements: - the caller must have ``role``'s admin role."
      },
      "hasAdminRole(address)": {
        "params": {
          "_address": "EOA or contract being checked."
        },
        "returns": {
          "_0": "bool True if the account has the role or false if it does not."
        }
      },
      "hasMinterRole(address)": {
        "params": {
          "_address": "EOA or contract being checked"
        },
        "returns": {
          "_0": "bool True if the account has the role or false if it does not"
        }
      },
      "hasOperatorRole(address)": {
        "params": {
          "_address": "EOA or contract being checked"
        },
        "returns": {
          "_0": "bool True if the account has the role or false if it does not"
        }
      },
      "hasRole(bytes32,address)": {
        "details": "Returns `true` if `account` has been granted `role`."
      },
      "hasSmartContractRole(address)": {
        "params": {
          "_address": "EOA or contract being checked"
        },
        "returns": {
          "_0": "bool True if the account has the role or false if it does not"
        }
      },
      "initAccessControls(address)": {
        "params": {
          "_admin": "Admins address."
        }
      },
      "initCrowdsale(address,address,address,uint256,uint256,uint256,uint256,uint256,address,address,address)": {
        "details": "Init function.",
        "params": {
          "_admin": "Address that can finalize auction.",
          "_endTime": "Crowdsale end time.",
          "_funder": "The address that funds the token for crowdsale.",
          "_goal": "Minimum amount of funds to be raised in weis or tokens.",
          "_paymentCurrency": "The currency the crowdsale accepts for payment. Can be ETH or token address.",
          "_pointList": "Address that will manage auction approvals.",
          "_rate": "Number of token units a buyer gets per wei or token.",
          "_startTime": "Crowdsale start time.",
          "_token": "Address of the token being sold.",
          "_totalTokens": "The total number of tokens to sell in crowdsale.",
          "_wallet": "Address where collected funds will be forwarded to."
        }
      },
      "initMarket(bytes)": {
        "params": {
          "_data": "Encoded data for initialization."
        }
      },
      "isOpen()": {
        "returns": {
          "_0": "isOpen True if the crowdsale is open, false otherwise."
        }
      },
      "marketParticipationAgreement()": {
        "details": "Attribution to the awesome delta.financial contracts"
      },
      "removeAdminRole(address)": {
        "details": "The sender must have the admin role.",
        "params": {
          "_address": "EOA or contract affected."
        }
      },
      "removeMinterRole(address)": {
        "details": "The sender must have the admin role",
        "params": {
          "_address": "EOA or contract affected"
        }
      },
      "removeOperatorRole(address)": {
        "details": "The sender must have the admin role",
        "params": {
          "_address": "EOA or contract affected"
        }
      },
      "removeSmartContractRole(address)": {
        "details": "The sender must have the admin role",
        "params": {
          "_address": "EOA or contract affected"
        }
      },
      "renounceRole(bytes32,address)": {
        "details": "Revokes `role` from the calling account. Roles are often managed via {grantRole} and {revokeRole}: this function's purpose is to provide a mechanism for accounts to lose their privileges if they are compromised (such as when a trusted device is misplaced). If the calling account had been granted `role`, emits a {RoleRevoked} event. Requirements: - the caller must be `account`."
      },
      "revokeRole(bytes32,address)": {
        "details": "Revokes `role` from `account`. If `account` had been granted `role`, emits a {RoleRevoked} event. Requirements: - the caller must have ``role``'s admin role."
      },
      "setAuctionPrice(uint256,uint256)": {
        "params": {
          "_goal": "Minimum amount raised and goal for the auction.",
          "_rate": "Price per token."
        }
      },
      "setAuctionTime(uint256,uint256)": {
        "params": {
          "_endTime": "Auction end time.",
          "_startTime": "Auction start time."
        }
      },
      "setAuctionWallet(address)": {
        "params": {
          "_wallet": "Auction wallet is where funds will be sent."
        }
      },
      "tokensClaimable(address)": {
        "returns": {
          "claimerCommitment": "How many tokens the user is able to claim."
        }
      },
      "withdrawTokens(address)": {
        "details": "Withdraw tokens only after crowdsale ends.",
        "params": {
          "beneficiary": "Whose tokens will be withdrawn."
        }
      }
    },
    "stateVariables": {
      "marketTemplate": {
        "details": "For different marketplace types, this must be incremented."
      }
    },
    "version": 1
  },
  "userdoc": {
    "events": {
      "AddedCommitment(address,uint256)": {
        "notice": "Event for adding a commitment."
      },
      "AdminRoleGranted(address,address)": {
        "notice": "Events for adding and removing various roles."
      },
      "AuctionCancelled()": {
        "notice": "Event for cancellation of the auction."
      },
      "AuctionFinalized()": {
        "notice": "Event for finalization of the crowdsale"
      },
      "AuctionPriceUpdated(uint256,uint256)": {
        "notice": "Event for updating auction prices. Needs to be before auction starts."
      },
      "AuctionTimeUpdated(uint256,uint256)": {
        "notice": "Event for updating auction times.  Needs to be before auction starts."
      },
      "AuctionWalletUpdated(address)": {
        "notice": "Event for updating auction wallet. Needs to be before auction starts."
      },
      "MinterRoleGranted(address,address)": {
        "notice": "Events for adding and removing various roles"
      }
    },
    "kind": "user",
    "methods": {
      "MINTER_ROLE()": {
        "notice": "Role definitions"
      },
      "addAdminRole(address)": {
        "notice": "Grants the admin role to an address."
      },
      "addMinterRole(address)": {
        "notice": "Grants the minter role to an address"
      },
      "addOperatorRole(address)": {
        "notice": "Grants the operator role to an address"
      },
      "addSmartContractRole(address)": {
        "notice": "Grants the smart contract role to an address"
      },
      "auctionEnded()": {
        "notice": "Checks if the sale has ended."
      },
      "auctionSuccessful()": {
        "notice": "Checks if the sale minimum amount was raised."
      },
      "auctionToken()": {
        "notice": "The token being sold."
      },
      "batch(bytes[],bool)": {
        "notice": "Allows batched call to self (this contract)."
      },
      "calculateCommitment(uint256)": {
        "notice": "Checks if the commitment doesn't exceed the goal of this sale."
      },
      "cancelAuction()": {
        "notice": "Cancel Auction"
      },
      "claimed(address)": {
        "notice": "Amount of tokens to claim per address."
      },
      "commitEth(address,bool)": {
        "notice": "Checks the amount of ETH to commit and adds the commitment. Refunds the buyer if commit is too high."
      },
      "commitTokens(uint256,bool)": {
        "notice": "Buy Tokens by commiting approved ERC20 tokens to this contract address."
      },
      "commitTokensFrom(address,uint256,bool)": {
        "notice": "Checks how much is user able to commit and processes that commitment."
      },
      "commitments(address)": {
        "notice": "The commited amount of accounts."
      },
      "finalize()": {
        "notice": "Manually finalizes the Crowdsale."
      },
      "finalized()": {
        "notice": "Checks if the sale has been finalised."
      },
      "getAllDocuments()": {
        "notice": "Used to retrieve a full list of documents attached to the smart contract."
      },
      "getCrowdsaleInitData(address,address,address,uint256,uint256,uint256,uint256,uint256,address,address,address)": {
        "notice": "Collects data to initialize the crowd sale."
      },
      "getDocument(string)": {
        "notice": "Used to return the details of a document with a known name (`string`)."
      },
      "getDocumentCount()": {
        "notice": "Used to retrieve the total documents in the smart contract."
      },
      "getDocumentName(uint256)": {
        "notice": "Used to retrieve the document name from index in the smart contract."
      },
      "hasAdminRole(address)": {
        "notice": "Used to check whether an address has the admin role."
      },
      "hasMinterRole(address)": {
        "notice": "Used to check whether an address has the minter role"
      },
      "hasOperatorRole(address)": {
        "notice": "Used to check whether an address has the operator role"
      },
      "hasSmartContractRole(address)": {
        "notice": "Used to check whether an address has the smart contract role"
      },
      "initAccessControls(address)": {
        "notice": "Initializes access controls."
      },
      "initCrowdsale(address,address,address,uint256,uint256,uint256,uint256,uint256,address,address,address)": {
        "notice": "Initializes main contract variables and transfers funds for the sale."
      },
      "initMarket(bytes)": {
        "notice": "Decodes and hands Crowdsale data to the initCrowdsale function."
      },
      "isOpen()": {
        "notice": "Checks if the sale is open."
      },
      "marketTemplate()": {
        "notice": "MISOMarket template id for the factory contract."
      },
      "paymentCurrency()": {
        "notice": "The currency the crowdsale accepts for payment. Can be ETH or token address."
      },
      "permitToken(address,address,address,uint256,uint256,uint8,bytes32,bytes32)": {
        "notice": "Call wrapper that performs `ERC20.permit` on `token`. Lookup `IERC20.permit`."
      },
      "pointList()": {
        "notice": "Address that manages auction approvals."
      },
      "removeAdminRole(address)": {
        "notice": "Removes the admin role from an address."
      },
      "removeMinterRole(address)": {
        "notice": "Removes the minter role from an address"
      },
      "removeOperatorRole(address)": {
        "notice": "Removes the operator role from an address"
      },
      "removeSmartContractRole(address)": {
        "notice": "Removes the smart contract role from an address"
      },
      "setAuctionPrice(uint256,uint256)": {
        "notice": "Admin can set auction price through this function."
      },
      "setAuctionTime(uint256,uint256)": {
        "notice": "Admin can set start and end time through this function."
      },
      "setAuctionWallet(address)": {
        "notice": "Admin can set the auction wallet through this function."
      },
      "tokensClaimable(address)": {
        "notice": "Adjusts users commitment depending on amount already claimed and unclaimed tokens left."
      },
      "wallet()": {
        "notice": "Address where funds are collected."
      },
      "withdrawTokens(address)": {
        "notice": "Withdraws bought tokens, or returns commitment if the sale is unsuccessful."
      }
    },
    "version": 1
  },
  "storageLayout": {
    "storage": [
      {
        "astId": 14933,
        "contract": "contracts/Auctions/Crowdsale.sol:Crowdsale",
        "label": "_roles",
        "offset": 0,
        "slot": "0",
        "type": "t_mapping(t_bytes32,t_struct(RoleData)14929_storage)"
      },
      {
        "astId": 859,
        "contract": "contracts/Auctions/Crowdsale.sol:Crowdsale",
        "label": "initAccess",
        "offset": 0,
        "slot": "1",
        "type": "t_bool"
      },
      {
        "astId": 23645,
        "contract": "contracts/Auctions/Crowdsale.sol:Crowdsale",
        "label": "_documents",
        "offset": 0,
        "slot": "2",
        "type": "t_mapping(t_string_memory_ptr,t_struct(Document)23641_storage)"
      },
      {
        "astId": 23649,
        "contract": "contracts/Auctions/Crowdsale.sol:Crowdsale",
        "label": "_docIndexes",
        "offset": 0,
        "slot": "3",
        "type": "t_mapping(t_string_memory_ptr,t_uint32)"
      },
      {
        "astId": 23652,
        "contract": "contracts/Auctions/Crowdsale.sol:Crowdsale",
        "label": "_docNames",
        "offset": 0,
        "slot": "4",
        "type": "t_array(t_string_storage)dyn_storage"
      },
      {
        "astId": 17715,
        "contract": "contracts/Auctions/Crowdsale.sol:Crowdsale",
        "label": "_status",
        "offset": 0,
        "slot": "5",
        "type": "t_uint256"
      },
      {
        "astId": 2549,
        "contract": "contracts/Auctions/Crowdsale.sol:Crowdsale",
        "label": "marketPrice",
        "offset": 0,
        "slot": "6",
        "type": "t_struct(MarketPrice)2547_storage"
      },
      {
        "astId": 2558,
        "contract": "contracts/Auctions/Crowdsale.sol:Crowdsale",
        "label": "marketInfo",
        "offset": 0,
        "slot": "7",
        "type": "t_struct(MarketInfo)2556_storage"
      },
      {
        "astId": 2567,
        "contract": "contracts/Auctions/Crowdsale.sol:Crowdsale",
        "label": "marketStatus",
        "offset": 0,
        "slot": "8",
        "type": "t_struct(MarketStatus)2565_storage"
      },
      {
        "astId": 2570,
        "contract": "contracts/Auctions/Crowdsale.sol:Crowdsale",
        "label": "auctionToken",
        "offset": 0,
        "slot": "9",
        "type": "t_address"
      },
      {
        "astId": 2573,
        "contract": "contracts/Auctions/Crowdsale.sol:Crowdsale",
        "label": "wallet",
        "offset": 0,
        "slot": "10",
        "type": "t_address_payable"
      },
      {
        "astId": 2576,
        "contract": "contracts/Auctions/Crowdsale.sol:Crowdsale",
        "label": "paymentCurrency",
        "offset": 0,
        "slot": "11",
        "type": "t_address"
      },
      {
        "astId": 2579,
        "contract": "contracts/Auctions/Crowdsale.sol:Crowdsale",
        "label": "pointList",
        "offset": 0,
        "slot": "12",
        "type": "t_address"
      },
      {
        "astId": 2584,
        "contract": "contracts/Auctions/Crowdsale.sol:Crowdsale",
        "label": "commitments",
        "offset": 0,
        "slot": "13",
        "type": "t_mapping(t_address,t_uint256)"
      },
      {
        "astId": 2589,
        "contract": "contracts/Auctions/Crowdsale.sol:Crowdsale",
        "label": "claimed",
        "offset": 0,
        "slot": "14",
        "type": "t_mapping(t_address,t_uint256)"
      }
    ],
    "types": {
      "t_address": {
        "encoding": "inplace",
        "label": "address",
        "numberOfBytes": "20"
      },
      "t_address_payable": {
        "encoding": "inplace",
        "label": "address payable",
        "numberOfBytes": "20"
      },
      "t_array(t_bytes32)dyn_storage": {
        "base": "t_bytes32",
        "encoding": "dynamic_array",
        "label": "bytes32[]",
        "numberOfBytes": "32"
      },
      "t_array(t_string_storage)dyn_storage": {
        "base": "t_string_storage",
        "encoding": "dynamic_array",
        "label": "string[]",
        "numberOfBytes": "32"
      },
      "t_bool": {
        "encoding": "inplace",
        "label": "bool",
        "numberOfBytes": "1"
      },
      "t_bytes32": {
        "encoding": "inplace",
        "label": "bytes32",
        "numberOfBytes": "32"
      },
      "t_mapping(t_address,t_uint256)": {
        "encoding": "mapping",
        "key": "t_address",
        "label": "mapping(address => uint256)",
        "numberOfBytes": "32",
        "value": "t_uint256"
      },
      "t_mapping(t_bytes32,t_struct(RoleData)14929_storage)": {
        "encoding": "mapping",
        "key": "t_bytes32",
        "label": "mapping(bytes32 => struct AccessControl.RoleData)",
        "numberOfBytes": "32",
        "value": "t_struct(RoleData)14929_storage"
      },
      "t_mapping(t_bytes32,t_uint256)": {
        "encoding": "mapping",
        "key": "t_bytes32",
        "label": "mapping(bytes32 => uint256)",
        "numberOfBytes": "32",
        "value": "t_uint256"
      },
      "t_mapping(t_string_memory_ptr,t_struct(Document)23641_storage)": {
        "encoding": "mapping",
        "key": "t_string_memory_ptr",
        "label": "mapping(string => struct Documents.Document)",
        "numberOfBytes": "32",
        "value": "t_struct(Document)23641_storage"
      },
      "t_mapping(t_string_memory_ptr,t_uint32)": {
        "encoding": "mapping",
        "key": "t_string_memory_ptr",
        "label": "mapping(string => uint32)",
        "numberOfBytes": "32",
        "value": "t_uint32"
      },
      "t_string_memory_ptr": {
        "encoding": "bytes",
        "label": "string",
        "numberOfBytes": "32"
      },
      "t_string_storage": {
        "encoding": "bytes",
        "label": "string",
        "numberOfBytes": "32"
      },
      "t_struct(AddressSet)17396_storage": {
        "encoding": "inplace",
        "label": "struct EnumerableSet.AddressSet",
        "members": [
          {
            "astId": 17395,
            "contract": "contracts/Auctions/Crowdsale.sol:Crowdsale",
            "label": "_inner",
            "offset": 0,
            "slot": "0",
            "type": "t_struct(Set)17131_storage"
          }
        ],
        "numberOfBytes": "64"
      },
      "t_struct(Document)23641_storage": {
        "encoding": "inplace",
        "label": "struct Documents.Document",
        "members": [
          {
            "astId": 23636,
            "contract": "contracts/Auctions/Crowdsale.sol:Crowdsale",
            "label": "docIndex",
            "offset": 0,
            "slot": "0",
            "type": "t_uint32"
          },
          {
            "astId": 23638,
            "contract": "contracts/Auctions/Crowdsale.sol:Crowdsale",
            "label": "lastModified",
            "offset": 4,
            "slot": "0",
            "type": "t_uint64"
          },
          {
            "astId": 23640,
            "contract": "contracts/Auctions/Crowdsale.sol:Crowdsale",
            "label": "data",
            "offset": 0,
            "slot": "1",
            "type": "t_string_storage"
          }
        ],
        "numberOfBytes": "64"
      },
      "t_struct(MarketInfo)2556_storage": {
        "encoding": "inplace",
        "label": "struct Crowdsale.MarketInfo",
        "members": [
          {
            "astId": 2551,
            "contract": "contracts/Auctions/Crowdsale.sol:Crowdsale",
            "label": "startTime",
            "offset": 0,
            "slot": "0",
            "type": "t_uint64"
          },
          {
            "astId": 2553,
            "contract": "contracts/Auctions/Crowdsale.sol:Crowdsale",
            "label": "endTime",
            "offset": 8,
            "slot": "0",
            "type": "t_uint64"
          },
          {
            "astId": 2555,
            "contract": "contracts/Auctions/Crowdsale.sol:Crowdsale",
            "label": "totalTokens",
            "offset": 16,
            "slot": "0",
            "type": "t_uint128"
          }
        ],
        "numberOfBytes": "32"
      },
      "t_struct(MarketPrice)2547_storage": {
        "encoding": "inplace",
        "label": "struct Crowdsale.MarketPrice",
        "members": [
          {
            "astId": 2544,
            "contract": "contracts/Auctions/Crowdsale.sol:Crowdsale",
            "label": "rate",
            "offset": 0,
            "slot": "0",
            "type": "t_uint128"
          },
          {
            "astId": 2546,
            "contract": "contracts/Auctions/Crowdsale.sol:Crowdsale",
            "label": "goal",
            "offset": 16,
            "slot": "0",
            "type": "t_uint128"
          }
        ],
        "numberOfBytes": "32"
      },
      "t_struct(MarketStatus)2565_storage": {
        "encoding": "inplace",
        "label": "struct Crowdsale.MarketStatus",
        "members": [
          {
            "astId": 2560,
            "contract": "contracts/Auctions/Crowdsale.sol:Crowdsale",
            "label": "commitmentsTotal",
            "offset": 0,
            "slot": "0",
            "type": "t_uint128"
          },
          {
            "astId": 2562,
            "contract": "contracts/Auctions/Crowdsale.sol:Crowdsale",
            "label": "finalized",
            "offset": 16,
            "slot": "0",
            "type": "t_bool"
          },
          {
            "astId": 2564,
            "contract": "contracts/Auctions/Crowdsale.sol:Crowdsale",
            "label": "usePointList",
            "offset": 17,
            "slot": "0",
            "type": "t_bool"
          }
        ],
        "numberOfBytes": "32"
      },
      "t_struct(RoleData)14929_storage": {
        "encoding": "inplace",
        "label": "struct AccessControl.RoleData",
        "members": [
          {
            "astId": 14926,
            "contract": "contracts/Auctions/Crowdsale.sol:Crowdsale",
            "label": "members",
            "offset": 0,
            "slot": "0",
            "type": "t_struct(AddressSet)17396_storage"
          },
          {
            "astId": 14928,
            "contract": "contracts/Auctions/Crowdsale.sol:Crowdsale",
            "label": "adminRole",
            "offset": 0,
            "slot": "2",
            "type": "t_bytes32"
          }
        ],
        "numberOfBytes": "96"
      },
      "t_struct(Set)17131_storage": {
        "encoding": "inplace",
        "label": "struct EnumerableSet.Set",
        "members": [
          {
            "astId": 17126,
            "contract": "contracts/Auctions/Crowdsale.sol:Crowdsale",
            "label": "_values",
            "offset": 0,
            "slot": "0",
            "type": "t_array(t_bytes32)dyn_storage"
          },
          {
            "astId": 17130,
            "contract": "contracts/Auctions/Crowdsale.sol:Crowdsale",
            "label": "_indexes",
            "offset": 0,
            "slot": "1",
            "type": "t_mapping(t_bytes32,t_uint256)"
          }
        ],
        "numberOfBytes": "64"
      },
      "t_uint128": {
        "encoding": "inplace",
        "label": "uint128",
        "numberOfBytes": "16"
      },
      "t_uint256": {
        "encoding": "inplace",
        "label": "uint256",
        "numberOfBytes": "32"
      },
      "t_uint32": {
        "encoding": "inplace",
        "label": "uint32",
        "numberOfBytes": "4"
      },
      "t_uint64": {
        "encoding": "inplace",
        "label": "uint64",
        "numberOfBytes": "8"
      }
    }
  }
}