{
  "address": "0x8edc487D26F6c8Fa76e032066A3D4F87E273515d",
  "abi": [
    {
      "inputs": [
        {
          "internalType": "contract DNSSEC",
          "name": "_dnssec",
          "type": "address"
        },
        {
          "internalType": "contract PublicSuffixList",
          "name": "_suffixes",
          "type": "address"
        },
        {
          "internalType": "contract ENS",
          "name": "_ens",
          "type": "address"
        }
      ],
      "stateMutability": "nonpayable",
      "type": "constructor"
    },
    {
      "anonymous": false,
      "inputs": [
        {
          "indexed": true,
          "internalType": "bytes32",
          "name": "node",
          "type": "bytes32"
        },
        {
          "indexed": true,
          "internalType": "address",
          "name": "owner",
          "type": "address"
        },
        {
          "indexed": false,
          "internalType": "bytes",
          "name": "dnsname",
          "type": "bytes"
        }
      ],
      "name": "Claim",
      "type": "event"
    },
    {
      "anonymous": false,
      "inputs": [
        {
          "indexed": false,
          "internalType": "address",
          "name": "oracle",
          "type": "address"
        }
      ],
      "name": "NewOracle",
      "type": "event"
    },
    {
      "anonymous": false,
      "inputs": [
        {
          "indexed": false,
          "internalType": "address",
          "name": "suffixes",
          "type": "address"
        }
      ],
      "name": "NewPublicSuffixList",
      "type": "event"
    },
    {
      "inputs": [
        {
          "internalType": "bytes",
          "name": "name",
          "type": "bytes"
        },
        {
          "internalType": "bytes",
          "name": "proof",
          "type": "bytes"
        }
      ],
      "name": "claim",
      "outputs": [],
      "stateMutability": "nonpayable",
      "type": "function"
    },
    {
      "inputs": [],
      "name": "ens",
      "outputs": [
        {
          "internalType": "contract ENS",
          "name": "",
          "type": "address"
        }
      ],
      "stateMutability": "view",
      "type": "function"
    },
    {
      "inputs": [],
      "name": "oracle",
      "outputs": [
        {
          "internalType": "contract DNSSEC",
          "name": "",
          "type": "address"
        }
      ],
      "stateMutability": "view",
      "type": "function"
    },
    {
      "inputs": [
        {
          "internalType": "bytes",
          "name": "name",
          "type": "bytes"
        },
        {
          "components": [
            {
              "internalType": "bytes",
              "name": "rrset",
              "type": "bytes"
            },
            {
              "internalType": "bytes",
              "name": "sig",
              "type": "bytes"
            }
          ],
          "internalType": "struct DNSSEC.RRSetWithSignature[]",
          "name": "input",
          "type": "tuple[]"
        },
        {
          "internalType": "bytes",
          "name": "proof",
          "type": "bytes"
        }
      ],
      "name": "proveAndClaim",
      "outputs": [],
      "stateMutability": "nonpayable",
      "type": "function"
    },
    {
      "inputs": [
        {
          "internalType": "bytes",
          "name": "name",
          "type": "bytes"
        },
        {
          "components": [
            {
              "internalType": "bytes",
              "name": "rrset",
              "type": "bytes"
            },
            {
              "internalType": "bytes",
              "name": "sig",
              "type": "bytes"
            }
          ],
          "internalType": "struct DNSSEC.RRSetWithSignature[]",
          "name": "input",
          "type": "tuple[]"
        },
        {
          "internalType": "bytes",
          "name": "proof",
          "type": "bytes"
        },
        {
          "internalType": "address",
          "name": "resolver",
          "type": "address"
        },
        {
          "internalType": "address",
          "name": "addr",
          "type": "address"
        }
      ],
      "name": "proveAndClaimWithResolver",
      "outputs": [],
      "stateMutability": "nonpayable",
      "type": "function"
    },
    {
      "inputs": [
        {
          "internalType": "contract DNSSEC",
          "name": "_dnssec",
          "type": "address"
        }
      ],
      "name": "setOracle",
      "outputs": [],
      "stateMutability": "nonpayable",
      "type": "function"
    },
    {
      "inputs": [
        {
          "internalType": "contract PublicSuffixList",
          "name": "_suffixes",
          "type": "address"
        }
      ],
      "name": "setPublicSuffixList",
      "outputs": [],
      "stateMutability": "nonpayable",
      "type": "function"
    },
    {
      "inputs": [],
      "name": "suffixes",
      "outputs": [
        {
          "internalType": "contract PublicSuffixList",
          "name": "",
          "type": "address"
        }
      ],
      "stateMutability": "view",
      "type": "function"
    },
    {
      "inputs": [
        {
          "internalType": "bytes4",
          "name": "interfaceID",
          "type": "bytes4"
        }
      ],
      "name": "supportsInterface",
      "outputs": [
        {
          "internalType": "bool",
          "name": "",
          "type": "bool"
        }
      ],
      "stateMutability": "pure",
      "type": "function"
    }
  ],
  "transactionHash": "0x9bc1943e89a850a05dcf1fab8cf5689495a1aada11c3ad964c4b327b5355dc29",
  "args": [
    "0xF427c4AdED8B6dfde604865c1a7E953B160C26f0",
    "0xed2E4cDc0280743B42F4415E3e8F7425a2d6b059",
    "0x00000000000C2E074eC69A0dFb2997BA6C7d2e1e"
  ],
  "solcInputHash": "7948b60c3b601df824761a337a51d661",
  "bytecode": "0x60806040523480156200001157600080fd5b5060405162002669380380620026698339810160408190526200003491620000ff565b600080546001600160a01b0319166001600160a01b0385169081179091556040519081527fb3eacd0e351fafdfefdec84e1cd19679b38dbcd63ea7c2c24da17fd2bc3b3c0e9060200160405180910390a1600280546001600160a01b0319166001600160a01b0384169081179091556040519081527f9176b7f47e4504df5e5516c99d90d82ac7cbd49cc77e7f22ba2ac2f2e3a3eba89060200160405180910390a1600180546001600160a01b0319166001600160a01b0392909216919091179055506200016b9050565b60008060006060848603121562000114578283fd5b8351620001218162000152565b6020850151909350620001348162000152565b6040850151909250620001478162000152565b809150509250925092565b6001600160a01b03811681146200016857600080fd5b50565b6124ee806200017b6000396000f3fe608060405234801561001057600080fd5b50600436106100a35760003560e01c80633f15457f116100765780637dc0d1d01161005b5780637dc0d1d0146101705780638bbedf7514610190578063be27b22c146101a357600080fd5b80633f15457f1461013d5780637adbf9731461015d57600080fd5b806301ffc9a7146100a85780631ecfc411146100d0578063224199c2146100e557806330349ebe146100f8575b600080fd5b6100bb6100b6366004611e6a565b6101b6565b60405190151581526020015b60405180910390f35b6100e36100de3660046120ae565b61024f565b005b6100e36100f3366004611fa1565b610414565b6002546101189073ffffffffffffffffffffffffffffffffffffffff1681565b60405173ffffffffffffffffffffffffffffffffffffffff90911681526020016100c7565b6001546101189073ffffffffffffffffffffffffffffffffffffffff1681565b6100e361016b3660046120ae565b6108e1565b6000546101189073ffffffffffffffffffffffffffffffffffffffff1681565b6100e361019e366004611f1d565b610a9d565b6100e36101b136600461204d565b610b5c565b60007fffffffff0000000000000000000000000000000000000000000000000000000082167f01ffc9a700000000000000000000000000000000000000000000000000000000148061024957507fffffffff0000000000000000000000000000000000000000000000000000000082167f17d8f49b00000000000000000000000000000000000000000000000000000000145b92915050565b6001546040517f02571be30000000000000000000000000000000000000000000000000000000081526000600482018190529173ffffffffffffffffffffffffffffffffffffffff16906302571be39060240160206040518083038186803b1580156102ba57600080fd5b505afa1580156102ce573d6000803e3d6000fd5b505050506040513d601f19601f820116820180604052508101906102f29190611e16565b905060008173ffffffffffffffffffffffffffffffffffffffff16638da5cb5b6040518163ffffffff1660e01b815260040160206040518083038186803b15801561033c57600080fd5b505afa158015610350573d6000803e3d6000fd5b505050506040513d601f19601f820116820180604052508101906103749190611e16565b90503373ffffffffffffffffffffffffffffffffffffffff82161461039857600080fd5b600280547fffffffffffffffffffffffff00000000000000000000000000000000000000001673ffffffffffffffffffffffffffffffffffffffff85169081179091556040519081527f9176b7f47e4504df5e5516c99d90d82ac7cbd49cc77e7f22ba2ac2f2e3a3eba8906020015b60405180910390a1505050565b6000546040517f435cc16200000000000000000000000000000000000000000000000000000000815273ffffffffffffffffffffffffffffffffffffffff9091169063435cc1629061046c9087908790600401612160565b600060405180830381600087803b15801561048657600080fd5b505af115801561049a573d6000803e3d6000fd5b505050506040513d6000823e601f3d908101601f191682016040526104c29190810190611eaa565b925060008060006104d38887610c30565b919450925090503373ffffffffffffffffffffffffffffffffffffffff821614610584576040517f08c379a000000000000000000000000000000000000000000000000000000000815260206004820152602d60248201527f4f6e6c79206f776e65722063616e2063616c6c2070726f7665416e64436c616960448201527f6d576974685265736f6c7665720000000000000000000000000000000000000060648201526084015b60405180910390fd5b73ffffffffffffffffffffffffffffffffffffffff8416156108345773ffffffffffffffffffffffffffffffffffffffff8516610643576040517f08c379a000000000000000000000000000000000000000000000000000000000815260206004820152602660248201527f43616e6e6f74207365742061646472206966207265736f6c766572206973206e60448201527f6f74207365740000000000000000000000000000000000000000000000000000606482015260840161057b565b6001546040517f5ef2c7f0000000000000000000000000000000000000000000000000000000008152600481018590526024810184905230604482015273ffffffffffffffffffffffffffffffffffffffff87811660648301526000608483015290911690635ef2c7f09060a401600060405180830381600087803b1580156106cb57600080fd5b505af11580156106df573d6000803e3d6000fd5b5050505060008383604051602001610701929190918252602082015260400190565b60408051808303601f190181529082905280516020909101207fd5fa2b000000000000000000000000000000000000000000000000000000000082526004820181905273ffffffffffffffffffffffffffffffffffffffff878116602484015290925087169063d5fa2b0090604401600060405180830381600087803b15801561078a57600080fd5b505af115801561079e573d6000803e3d6000fd5b50506001546040517f5b0fc9c30000000000000000000000000000000000000000000000000000000081526004810185905273ffffffffffffffffffffffffffffffffffffffff86811660248301529091169250635b0fc9c39150604401600060405180830381600087803b15801561081657600080fd5b505af115801561082a573d6000803e3d6000fd5b50505050506108d7565b6001546040517f5ef2c7f0000000000000000000000000000000000000000000000000000000008152600481018590526024810184905273ffffffffffffffffffffffffffffffffffffffff838116604483015287811660648301526000608483015290911690635ef2c7f09060a401600060405180830381600087803b1580156108be57600080fd5b505af11580156108d2573d6000803e3d6000fd5b505050505b5050505050505050565b6001546040517f02571be30000000000000000000000000000000000000000000000000000000081526000600482018190529173ffffffffffffffffffffffffffffffffffffffff16906302571be39060240160206040518083038186803b15801561094c57600080fd5b505afa158015610960573d6000803e3d6000fd5b505050506040513d601f19601f820116820180604052508101906109849190611e16565b905060008173ffffffffffffffffffffffffffffffffffffffff16638da5cb5b6040518163ffffffff1660e01b815260040160206040518083038186803b1580156109ce57600080fd5b505afa1580156109e2573d6000803e3d6000fd5b505050506040513d601f19601f82011682018060405250810190610a069190611e16565b90503373ffffffffffffffffffffffffffffffffffffffff821614610a2a57600080fd5b600080547fffffffffffffffffffffffff00000000000000000000000000000000000000001673ffffffffffffffffffffffffffffffffffffffff85169081179091556040519081527fb3eacd0e351fafdfefdec84e1cd19679b38dbcd63ea7c2c24da17fd2bc3b3c0e90602001610407565b6000546040517f435cc16200000000000000000000000000000000000000000000000000000000815273ffffffffffffffffffffffffffffffffffffffff9091169063435cc16290610af59085908590600401612160565b600060405180830381600087803b158015610b0f57600080fd5b505af1158015610b23573d6000803e3d6000fd5b505050506040513d6000823e601f3d908101601f19168201604052610b4b9190810190611eaa565b9050610b578382610b5c565b505050565b6000806000610b6b8585610c30565b6001546040517f06ab5923000000000000000000000000000000000000000000000000000000008152600481018590526024810184905273ffffffffffffffffffffffffffffffffffffffff808416604483015294975092955090935091909116906306ab592390606401602060405180830381600087803b158015610bf057600080fd5b505af1158015610c04573d6000803e3d6000fd5b505050506040513d601f19601f82011682018060405250810190610c289190611e52565b505050505050565b6000808080610c3f8682610e6e565b60ff169050610c5086600183610eb9565b92506000610c83610c6283600161229f565b6001848a51610c719190612380565b610c7b9190612380565b899190610edd565b6002546040517f4f89059e00000000000000000000000000000000000000000000000000000000815291925073ffffffffffffffffffffffffffffffffffffffff1690634f89059e90610cda908490600401612216565b60206040518083038186803b158015610cf257600080fd5b505afa158015610d06573d6000803e3d6000fd5b505050506040513d601f19601f82011682018060405250810190610d2a9190611e32565b610db6576040517f08c379a000000000000000000000000000000000000000000000000000000000815260206004820152602360248201527f506172656e74206e616d65206d7573742062652061207075626c69632073756660448201527f6669780000000000000000000000000000000000000000000000000000000000606482015260840161057b565b610dc1816000610f86565b600054909550610de89073ffffffffffffffffffffffffffffffffffffffff16888861138d565b50604080516020810188905290810186905290935073ffffffffffffffffffffffffffffffffffffffff841690606001604051602081830303815290604052805190602001207fa2e66ce20e6fb2c4f61339c364ad79f15160cf5307230c8bc4d628adbca2ba3989604051610e5d9190612216565b60405180910390a350509250925092565b6000828281518110610ea9577f4e487b7100000000000000000000000000000000000000000000000000000000600052603260045260246000fd5b016020015160f81c905092915050565b8251600090610ec8838561229f565b1115610ed357600080fd5b5091016020012090565b8251606090610eec838561229f565b1115610ef757600080fd5b60008267ffffffffffffffff811115610f39577f4e487b7100000000000000000000000000000000000000000000000000000000600052604160045260246000fd5b6040519080825280601f01601f191660200182016040528015610f63576020820181803683370190505b50905060208082019086860101610f7b82828761164c565b509095945050505050565b600080610f938484610e6e565b60ff16905080610fa7575060009050610249565b6000610fc785610fb7848761229f565b610fc290600161229f565b610f86565b90506000610fe1610fd986600161229f565b879085610eb9565b604080516020810185905290810182905290915060600160408051808303601f190181529082905280516020909101206001547f02571be30000000000000000000000000000000000000000000000000000000083526004830182905290955060009173ffffffffffffffffffffffffffffffffffffffff909116906302571be39060240160206040518083038186803b15801561107e57600080fd5b505afa158015611092573d6000803e3d6000fd5b505050506040513d601f19601f820116820180604052508101906110b69190611e16565b905073ffffffffffffffffffffffffffffffffffffffff811615806110f0575073ffffffffffffffffffffffffffffffffffffffff811630145b61117c576040517f08c379a000000000000000000000000000000000000000000000000000000000815260206004820152602a60248201527f43616e6e6f7420656e61626c652061206e616d65206f776e656420627920736f60448201527f6d656f6e6520656c736500000000000000000000000000000000000000000000606482015260840161057b565b73ffffffffffffffffffffffffffffffffffffffff8116301461138357826112d0576001546040517f02571be30000000000000000000000000000000000000000000000000000000081526000600482018190529173ffffffffffffffffffffffffffffffffffffffff16906302571be39060240160206040518083038186803b15801561120957600080fd5b505afa15801561121d573d6000803e3d6000fd5b505050506040513d601f19601f820116820180604052508101906112419190611e16565b6040517f8cb8ecec0000000000000000000000000000000000000000000000000000000081526004810185905230602482015290915073ffffffffffffffffffffffffffffffffffffffff821690638cb8ecec90604401600060405180830381600087803b1580156112b257600080fd5b505af11580156112c6573d6000803e3d6000fd5b5050505050611383565b6001546040517f06ab5923000000000000000000000000000000000000000000000000000000008152600481018590526024810184905230604482015273ffffffffffffffffffffffffffffffffffffffff909116906306ab592390606401602060405180830381600087803b15801561134957600080fd5b505af115801561135d573d6000803e3d6000fd5b505050506040513d601f19601f820116820180604052508101906113819190611e52565b505b5050505092915050565b6000806113ad604051806040016040528060608152602001600081525090565b6113c5855160056113be919061229f565b82906116c0565b5060408051808201909152600581527f045f656e730000000000000000000000000000000000000000000000000000006020820152611405908290611725565b506114108186611725565b5080516040517f087991bc000000000000000000000000000000000000000000000000000000008152600091829173ffffffffffffffffffffffffffffffffffffffff8a169163087991bc9161146b91601091600401612229565b60606040518083038186803b15801561148357600080fd5b505afa158015611497573d6000803e3d6000fd5b505050506040513d601f19601f820116820180604052508101906114bb91906120ca565b93509150507fffffffffffffffffffffffffffffffffffffffff00000000000000000000000082161580156114ef57508551155b156115035760008094509450505050611644565b855160208701207fffffffffffffffffffffffffffffffffffffffff00000000000000000000000083811691161461153a57600080fd5b60006115468782611753565b90505b805151602082015110156116385761157081608001518361156a91906122b7565b426117b4565b6115fc576040517f08c379a000000000000000000000000000000000000000000000000000000000815260206004820152603c60248201527f444e53207265636f7264206973207374616c653b2072656672657368206f722060448201527f64656c657465206974206265666f72652070726f63656564696e672e00000000606482015260840161057b565b60008061160d898460a001516117cd565b92509050811561162857965060019550611644945050505050565b505061163381611840565b611549565b50600080945094505050505b935093915050565b60208110611684578151835261166360208461229f565b925061167060208361229f565b915061167d602082612380565b905061164c565b905182516020929092036101000a7fffffffffffffffffffffffffffffffffffffffffffffffffffffffffffffffff0180199091169116179052565b6040805180820190915260608152600060208201526116e06020836123fc565b15611708576116f06020836123fc565b6116fb906020612380565b611705908361229f565b91505b506020828101829052604080518085526000815290920101905290565b60408051808201909152606081526000602082015261174c83846000015151848551611928565b9392505050565b6117a16040518060e001604052806060815260200160008152602001600061ffff168152602001600061ffff168152602001600063ffffffff16815260200160008152602001600081525090565b82815260c0810182905261024981611840565b6000806117c1838561231c565b60030b12159392505050565b6000805b83518310156118325760006117e68585610e6e565b60ff1690506117f660018561229f565b9350600080611806878785611a30565b92509050811561181e57935060019250611839915050565b611828838761229f565b95505050506117d1565b5060009050805b9250929050565b60c081015160208201819052815151116118575750565b600061186b82600001518360200151611a8c565b826020015161187a919061229f565b82519091506118899082611b12565b61ffff16604083015261189d60028261229f565b82519091506118ac9082611b12565b61ffff1660608301526118c060028261229f565b82519091506118cf9082611b3a565b63ffffffff1660808301526118e560048261229f565b82519091506000906118f79083611b12565b61ffff16905061190860028361229f565b60a08401819052915061191b818361229f565b60c0909301929092525050565b604080518082019091526060815260006020820152825182111561194b57600080fd5b602085015161195a838661229f565b111561198d5761198d8561197d87602001518786611978919061229f565b611b64565b6119889060026122df565b611b7b565b6000808651805187602083010193508088870111156119ac5787860182525b505050602084015b602084106119ec57805182526119cb60208361229f565b91506119d860208261229f565b90506119e5602085612380565b93506119b4565b5181517fffffffffffffffffffffffffffffffffffffffffffffffffffffffffffffffff60208690036101000a019081169019919091161790525083949350505050565b600080611a3d8585611b3a565b63ffffffff1663613d307814611a5857506000905080611644565b602c831015611a6c57506000905080611644565b611a8085611a7b86600461229f565b611b98565b91509150935093915050565b6000815b83518110611ac7577f4e487b7100000000000000000000000000000000000000000000000000000000600052600160045260246000fd5b6000611ad38583610e6e565b60ff169050611ae381600161229f565b611aed908361229f565b915080611afa5750611b00565b50611a90565b611b0a8382612380565b949350505050565b8151600090611b2283600261229f565b1115611b2d57600080fd5b50016002015161ffff1690565b8151600090611b4a83600461229f565b1115611b5557600080fd5b50016004015163ffffffff1690565b600081831115611b75575081610249565b50919050565b8151611b8783836116c0565b50611b928382611725565b50505050565b6000806028838551611baa9190612380565b1015611bbb57506000905080611839565b6000835b611bca85602861229f565b811015611c775760049190911b906000611be48783610e6e565b60ff16905060308110158015611bfa5750603a81105b15611c1357611c0a603082612380565b83179250611c64565b60418110158015611c245750604781105b15611c3457611c0a603782612380565b60618110158015611c455750606781105b15611c5557611c0a605782612380565b60008094509450505050611839565b5080611c6f816123c3565b915050611bbf565b50946001945092505050565b600082601f830112611c93578081fd5b8135602067ffffffffffffffff80831115611cb057611cb0612464565b8260051b611cbf838201612246565b8481528381019087850183890186018a1015611cd9578788fd5b8793505b86841015611d1657803585811115611cf3578889fd5b611d018b88838d0101611d74565b84525060019390930192918501918501611cdd565b5098975050505050505050565b600082601f830112611d33578081fd5b8135611d46611d4182612277565b612246565b818152846020838601011115611d5a578283fd5b816020850160208301379081016020019190915292915050565b600060408284031215611d85578081fd5b6040516040810167ffffffffffffffff8282108183111715611da957611da9612464565b816040528293508435915080821115611dc157600080fd5b611dcd86838701611d23565b83526020850135915080821115611de357600080fd5b50611df085828601611d23565b6020830152505092915050565b805163ffffffff81168114611e1157600080fd5b919050565b600060208284031215611e27578081fd5b815161174c81612493565b600060208284031215611e43578081fd5b8151801515811461174c578182fd5b600060208284031215611e63578081fd5b5051919050565b600060208284031215611e7b578081fd5b81357fffffffff000000000000000000000000000000000000000000000000000000008116811461174c578182fd5b600060208284031215611ebb578081fd5b815167ffffffffffffffff811115611ed1578182fd5b8201601f81018413611ee1578182fd5b8051611eef611d4182612277565b818152856020838501011115611f03578384fd5b611f14826020830160208601612397565b95945050505050565b600080600060608486031215611f31578182fd5b833567ffffffffffffffff80821115611f48578384fd5b611f5487838801611d23565b94506020860135915080821115611f69578384fd5b611f7587838801611c83565b93506040860135915080821115611f8a578283fd5b50611f9786828701611d23565b9150509250925092565b600080600080600060a08688031215611fb8578081fd5b853567ffffffffffffffff80821115611fcf578283fd5b611fdb89838a01611d23565b96506020880135915080821115611ff0578283fd5b611ffc89838a01611c83565b95506040880135915080821115612011578283fd5b5061201e88828901611d23565b935050606086013561202f81612493565b9150608086013561203f81612493565b809150509295509295909350565b6000806040838503121561205f578182fd5b823567ffffffffffffffff80821115612076578384fd5b61208286838701611d23565b93506020850135915080821115612097578283fd5b506120a485828601611d23565b9150509250929050565b6000602082840312156120bf578081fd5b813561174c81612493565b6000806000606084860312156120de578081fd5b6120e784611dfd565b92506120f560208501611dfd565b915060408401517fffffffffffffffffffffffffffffffffffffffff00000000000000000000000081168114612129578182fd5b809150509250925092565b6000815180845261214c816020860160208601612397565b601f01601f19169290920160200192915050565b6000604080830181845280865180835260608601915060608160051b87010192506020808901865b838110156121f6577fffffffffffffffffffffffffffffffffffffffffffffffffffffffffffffffa0898703018552815180518888526121ca89890182612134565b91850151888303898701529190506121e28183612134565b975050509382019390820190600101612188565b50508684038188015250505061220c8186612134565b9695505050505050565b60208152600061174c6020830184612134565b61ffff83168152604060208201526000611b0a6040830184612134565b604051601f8201601f1916810167ffffffffffffffff8111828210171561226f5761226f612464565b604052919050565b600067ffffffffffffffff82111561229157612291612464565b50601f01601f191660200190565b600082198211156122b2576122b2612435565b500190565b600063ffffffff8083168185168083038211156122d6576122d6612435565b01949350505050565b6000817fffffffffffffffffffffffffffffffffffffffffffffffffffffffffffffffff048311821515161561231757612317612435565b500290565b60008160030b8360030b828112817fffffffffffffffffffffffffffffffffffffffffffffffffffffffff800000000183128115161561235e5761235e612435565b81637fffffff01831381161561237657612376612435565b5090039392505050565b60008282101561239257612392612435565b500390565b60005b838110156123b257818101518382015260200161239a565b83811115611b925750506000910152565b60007fffffffffffffffffffffffffffffffffffffffffffffffffffffffffffffffff8214156123f5576123f5612435565b5060010190565b600082612430577f4e487b710000000000000000000000000000000000000000000000000000000081526012600452602481fd5b500690565b7f4e487b7100000000000000000000000000000000000000000000000000000000600052601160045260246000fd5b7f4e487b7100000000000000000000000000000000000000000000000000000000600052604160045260246000fd5b73ffffffffffffffffffffffffffffffffffffffff811681146124b557600080fd5b5056fea2646970667358221220ae0dd6139ae0cb36a2718e587e540353a25d46471a76819b506675195c4767d464736f6c63430008040033",
  "devdoc": {
    "details": "An ENS registrar that allows the owner of a DNS name to claim the      corresponding name in ENS.",
    "kind": "dev",
    "methods": {
      "claim(bytes,bytes)": {
        "details": "Claims a name by proving ownership of its DNS equivalent.",
        "params": {
          "name": "The name to claim, in DNS wire format.",
          "proof": "A DNS RRSet proving ownership of the name. Must be verified        in the DNSSEC oracle before calling. This RRSET must contain a TXT        record for '_ens.' + name, with the value 'a=0x...'. Ownership of        the name will be transferred to the address specified in the TXT        record."
        }
      },
      "proveAndClaim(bytes,(bytes,bytes)[],bytes)": {
        "details": "Submits proofs to the DNSSEC oracle, then claims a name using those proofs.",
        "params": {
          "input": "The data to be passed to the Oracle's `submitProofs` function. The last        proof must be the TXT record required by the registrar.",
          "name": "The name to claim, in DNS wire format.",
          "proof": "The proof record for the first element in input."
        }
      }
    },
    "version": 1
  },
  "userdoc": {
    "kind": "user",
    "methods": {},
    "version": 1
  },
  "storageLayout": {
    "storage": [
      {
        "astId": 2810,
        "contract": "contracts/dnsregistrar/DNSRegistrar.sol:DNSRegistrar",
        "label": "oracle",
        "offset": 0,
        "slot": "0",
        "type": "t_contract(DNSSEC)4290"
      },
      {
        "astId": 2813,
        "contract": "contracts/dnsregistrar/DNSRegistrar.sol:DNSRegistrar",
        "label": "ens",
        "offset": 0,
        "slot": "1",
        "type": "t_contract(ENS)12028"
      },
      {
        "astId": 2816,
        "contract": "contracts/dnsregistrar/DNSRegistrar.sol:DNSRegistrar",
        "label": "suffixes",
        "offset": 0,
        "slot": "2",
        "type": "t_contract(PublicSuffixList)3363"
      }
    ],
    "types": {
      "t_contract(DNSSEC)4290": {
        "encoding": "inplace",
        "label": "contract DNSSEC",
        "numberOfBytes": "20"
      },
      "t_contract(ENS)12028": {
        "encoding": "inplace",
        "label": "contract ENS",
        "numberOfBytes": "20"
      },
      "t_contract(PublicSuffixList)3363": {
        "encoding": "inplace",
        "label": "contract PublicSuffixList",
        "numberOfBytes": "20"
      }
    }
  }
}