{
  "address": "0x557e4f99f30916108a7bE7DDa6AF8Df935dBF179",
  "abi": [
    {
      "inputs": [
        {
          "internalType": "bytes",
          "name": "data",
          "type": "bytes"
        },
        {
          "internalType": "bytes",
          "name": "hash",
          "type": "bytes"
        }
      ],
      "name": "verify",
      "outputs": [
        {
          "internalType": "bool",
          "name": "",
          "type": "bool"
        }
      ],
      "stateMutability": "pure",
      "type": "function"
    }
  ],
  "transactionHash": "0x11339a2c0d1ce3cf4764200e808bb8ceb507692a77bbd970d662150e20fe0b05",
  "args": [],
  "solcInputHash": "7948b60c3b601df824761a337a51d661",
  "bytecode": "0x608060405234801561001057600080fd5b506108d7806100206000396000f3fe608060405234801561001057600080fd5b506004361061002b5760003560e01c8063f7e83aee14610030575b600080fd5b61004361003e3660046107fb565b610057565b604051901515815260200160405180910390f35b6000601482146100c7576040517f08c379a000000000000000000000000000000000000000000000000000000000815260206004820152601860248201527f496e76616c696420736861312068617368206c656e6774680000000000000000604482015260640160405180910390fd5b600061010d600085858080601f016020809104026020016040519081016040528093929190818152602001838380828437600092019190915250929392505061018f9050565b6bffffffffffffffffffffffff19169050600061015f87878080601f0160208091040260200160405190810160405280939291908181526020018383808284376000920191909152506101d592505050565b7fffffffffffffffffffffffffffffffffffffffff00000000000000000000000016919091149695505050505050565b815160009061019f836014610864565b11156101aa57600080fd5b5001602001517fffffffffffffffffffffffffffffffffffffffff0000000000000000000000001690565b60006040518251602084019350604067ffffffffffffffc0600183011601600982820310600181146102065761020d565b6040820191505b50776745230100efcdab890098badcfe001032547600c3d2e1f061027e565b60008383101561027757508082015192829003926020841015610277577fffffffffffffffffffffffffffffffffffffffffffffffffffffffffffffffff60208590036101000a0119165b9392505050565b60005b828110156107345761029484828961022c565b85526102a484602083018961022c565b6020860152604081850310600181146102bc576102c5565b60808286038701535b50604083038114600181146102d9576102e7565b602086018051600887021790525b5060405b60808110156103e7578581017fffffffffffffffffffffffffffffffffffffffffffffffffffffffffffffffc08101517fffffffffffffffffffffffffffffffffffffffffffffffffffffffffffffffc88201517fffffffffffffffffffffffffffffffffffffffffffffffffffffffffffffffe08301517ffffffffffffffffffffffffffffffffffffffffffffffffffffffffffffffff48401516002911891909218189081027ffffffffefffffffefffffffefffffffefffffffefffffffefffffffefffffffe1663800000009091047c010000000100000001000000010000000100000001000000010000000116179052600c016102eb565b5060805b6101408110156104e8578581017fffffffffffffffffffffffffffffffffffffffffffffffffffffffffffffff808101517fffffffffffffffffffffffffffffffffffffffffffffffffffffffffffffff908201517fffffffffffffffffffffffffffffffffffffffffffffffffffffffffffffffc08301517fffffffffffffffffffffffffffffffffffffffffffffffffffffffffffffffe88401516004911891909218189081027ffffffffcfffffffcfffffffcfffffffcfffffffcfffffffcfffffffcfffffffc1663400000009091047c0300000003000000030000000300000003000000030000000300000003161790526018016103eb565b508160008060005b605081101561070a57601481048015610520576001811461055c576002811461059657600381146105d55761060b565b6501000000000085046a0100000000000000000000860481186f01000000000000000000000000000000870416189350635a827999925061060b565b6501000000000085046f0100000000000000000000000000000086046a0100000000000000000000870418189350636ed9eba1925061060b565b6a010000000000000000000085046f010000000000000000000000000000008604818117650100000000008804169116179350638f1bbcdc925061060b565b6501000000000085046f0100000000000000000000000000000086046a010000000000000000000087041818935063ca62c1d692505b50601f770800000000000000000000000000000000000000000000008504168063ffffffe073080000000000000000000000000000000000000087041617905080840190508063ffffffff86160190508083019050807c0100000000000000000000000000000000000000000000000000000000600484028c015104019050740100000000000000000000000000000000000000008102650100000000008604179450506a0100000000000000000000633fffffff6a040000000000000000000086041663c00000006604000000000000870416170277ffffffff00ffffffff000000000000ffffffff00ffffffff85161793506001810190506104f0565b5050509190910177ffffffff00ffffffff00ffffffff00ffffffff00ffffffff1690604001610281565b506c0100000000000000000000000063ffffffff821667ffffffff000000006101008404166bffffffff0000000000000000620100008504166fffffffff000000000000000000000000630100000086041673ffffffff000000000000000000000000000000006401000000008704161717171702945050505050919050565b60008083601f8401126107c5578182fd5b50813567ffffffffffffffff8111156107dc578182fd5b6020830191508360208285010111156107f457600080fd5b9250929050565b60008060008060408587031215610810578384fd5b843567ffffffffffffffff80821115610827578586fd5b610833888389016107b4565b9096509450602087013591508082111561084b578384fd5b50610858878288016107b4565b95989497509550505050565b6000821982111561089c577f4e487b710000000000000000000000000000000000000000000000000000000081526011600452602481fd5b50019056fea2646970667358221220c406678cb7287893e44e528a42b06d6def8d64c2c31909fed03330c09e36384764736f6c63430008040033",
  "devdoc": {
    "details": "Implements the DNSSEC SHA1 digest.",
    "kind": "dev",
    "methods": {
      "verify(bytes,bytes)": {
        "details": "Verifies a cryptographic hash.",
        "params": {
          "data": "The data to hash.",
          "hash": "The hash to compare to."
        },
        "returns": {
          "_0": "True iff the hashed data matches the provided hash value."
        }
      }
    },
    "version": 1
  },
  "userdoc": {
    "kind": "user",
    "methods": {},
    "version": 1
  },
  "storageLayout": {
    "storage": [],
    "types": null
  }
}