{
  "address": "0xed2E4cDc0280743B42F4415E3e8F7425a2d6b059",
  "abi": [
    {
      "inputs": [
        {
          "internalType": "bytes",
          "name": "name",
          "type": "bytes"
        }
      ],
      "name": "isPublicSuffix",
      "outputs": [
        {
          "internalType": "bool",
          "name": "",
          "type": "bool"
        }
      ],
      "stateMutability": "view",
      "type": "function"
    }
  ],
  "transactionHash": "0x47d95e9c2f0a37ff56b1f8369e69b1690a1b94e65aff86b09d549d3b436cc137",
  "args": [],
  "solcInputHash": "7948b60c3b601df824761a337a51d661",
  "bytecode": "0x608060405234801561001057600080fd5b50610233806100206000396000f3fe608060405234801561001057600080fd5b506004361061002b5760003560e01c80634f89059e14610030575b600080fd5b61004361003e366004610153565b610057565b604051901515815260200160405180910390f35b60008061009e600085858080601f01602080910402602001604051908101604052809392919081815260200183838082843760009201919091525092939250506101089050565b60ff16905060008111801561010057506100fb6100bc8260016101c0565b85858080601f01602080910402602001604051908101604052809392919081815260200183838082843760009201919091525092939250506101089050565b60ff16155b949350505050565b6000828281518110610143577f4e487b7100000000000000000000000000000000000000000000000000000000600052603260045260246000fd5b016020015160f81c905092915050565b60008060208385031215610165578182fd5b823567ffffffffffffffff8082111561017c578384fd5b818501915085601f83011261018f578384fd5b81358181111561019d578485fd5b8660208285010111156101ae578485fd5b60209290920196919550909350505050565b600082198211156101f8577f4e487b710000000000000000000000000000000000000000000000000000000081526011600452602481fd5b50019056fea26469706673582212207b16668d1330852cf731c2e3cd0037aee1e127dbdd100890aeaaf633abac31af64736f6c63430008040033",
  "devdoc": {
    "details": "A public suffix list that treats all TLDs as public suffixes.",
    "kind": "dev",
    "methods": {},
    "version": 1
  },
  "userdoc": {
    "kind": "user",
    "methods": {},
    "version": 1
  },
  "storageLayout": {
    "storage": [],
    "types": null
  }
}