{"abi":[{"inputs":[{"internalType":"address","name":"treasury","type":"address"}],"stateMutability":"nonpayable","type":"constructor","name":"constructor"},{"anonymous":false,"inputs":[{"indexed":true,"internalType":"address","name":"action","type":"address"}],"name":"ActionListed","type":"event"},{"anonymous":false,"inputs":[{"indexed":true,"internalType":"bytes32","name":"key","type":"bytes32"},{"indexed":false,"internalType":"address","name":"value","type":"address"},{"indexed":false,"internalType":"uint256","name":"delay","type":"uint256"}],"name":"ConfigPreparedAddress","type":"event"},{"anonymous":false,"inputs":[{"indexed":true,"internalType":"bytes32","name":"key","type":"bytes32"},{"indexed":false,"internalType":"uint256","name":"value","type":"uint256"},{"indexed":false,"internalType":"uint256","name":"delay","type":"uint256"}],"name":"ConfigPreparedNumber","type":"event"},{"anonymous":false,"inputs":[{"indexed":true,"internalType":"bytes32","name":"key","type":"bytes32"}],"name":"ConfigReset","type":"event"},{"anonymous":false,"inputs":[{"indexed":true,"internalType":"bytes32","name":"key","type":"bytes32"},{"indexed":false,"internalType":"address","name":"oldValue","type":"address"},{"indexed":false,"internalType":"address","name":"newValue","type":"address"}],"name":"ConfigUpdatedAddress","type":"event"},{"anonymous":false,"inputs":[{"indexed":true,"internalType":"bytes32","name":"key","type":"bytes32"},{"indexed":false,"internalType":"uint256","name":"oldValue","type":"uint256"},{"indexed":false,"internalType":"uint256","name":"newValue","type":"uint256"}],"name":"ConfigUpdatedNumber","type":"event"},{"anonymous":false,"inputs":[{"indexed":true,"internalType":"bytes32","name":"key","type":"bytes32"}],"name":"KnownAddressKeyAdded","type":"event"},{"anonymous":false,"inputs":[{"indexed":true,"internalType":"address","name":"pool","type":"address"}],"name":"PoolDelisted","type":"event"},{"anonymous":false,"inputs":[{"indexed":true,"internalType":"address","name":"pool","type":"address"}],"name":"PoolListed","type":"event"},{"anonymous":false,"inputs":[{"indexed":true,"internalType":"address","name":"stakerVault","type":"address"}],"name":"StakerVaultDelisted","type":"event"},{"anonymous":false,"inputs":[{"indexed":true,"internalType":"address","name":"stakerVault","type":"address"}],"name":"StakerVaultListed","type":"event"},{"anonymous":false,"inputs":[{"indexed":true,"internalType":"address","name":"previousVault","type":"address"},{"indexed":true,"internalType":"address","name":"newVault","type":"address"}],"name":"VaultUpdated","type":"event"},{"inputs":[{"internalType":"address","name":"action","type":"address"}],"name":"addAction","outputs":[{"internalType":"bool","name":"","type":"bool"}],"stateMutability":"nonpayable","type":"function"},{"inputs":[{"internalType":"address","name":"feeHandler","type":"address"}],"name":"addFeeHandler","outputs":[{"internalType":"bool","name":"","type":"bool"}],"stateMutability":"nonpayable","type":"function"},{"inputs":[{"internalType":"address","name":"pool","type":"address"}],"name":"addPool","outputs":[],"stateMutability":"nonpayable","type":"function"},{"inputs":[{"internalType":"address","name":"stakerVault","type":"address"}],"name":"addStakerVault","outputs":[{"internalType":"bool","name":"","type":"bool"}],"stateMutability":"nonpayable","type":"function"},{"inputs":[],"name":"allActions","outputs":[{"internalType":"address[]","name":"","type":"address[]"}],"stateMutability":"view","type":"function"},{"inputs":[],"name":"allPools","outputs":[{"internalType":"address[]","name":"","type":"address[]"}],"stateMutability":"view","type":"function"},{"inputs":[],"name":"allStakerVaults","outputs":[{"internalType":"address[]","name":"","type":"address[]"}],"stateMutability":"view","type":"function"},{"inputs":[],"name":"allVaults","outputs":[{"internalType":"address[]","name":"","type":"address[]"}],"stateMutability":"view","type":"function"},{"inputs":[{"internalType":"bytes32","name":"","type":"bytes32"}],"name":"currentAddresses","outputs":[{"internalType":"address","name":"","type":"address"}],"stateMutability":"view","type":"function"},{"inputs":[{"internalType":"bytes32","name":"","type":"bytes32"}],"name":"currentUInts256","outputs":[{"internalType":"uint256","name":"","type":"uint256"}],"stateMutability":"view","type":"function"},{"inputs":[{"internalType":"bytes32","name":"","type":"bytes32"}],"name":"deadlines","outputs":[{"internalType":"uint256","name":"","type":"uint256"}],"stateMutability":"view","type":"function"},{"inputs":[{"internalType":"bytes32","name":"key","type":"bytes32"}],"name":"executeAddress","outputs":[{"internalType":"address","name":"","type":"address"}],"stateMutability":"nonpayable","type":"function"},{"inputs":[{"internalType":"bytes32","name":"key","type":"bytes32"}],"name":"freezeAddress","outputs":[],"stateMutability":"nonpayable","type":"function"},{"inputs":[{"internalType":"bytes32","name":"key","type":"bytes32"}],"name":"getAddress","outputs":[{"internalType":"address","name":"","type":"address"}],"stateMutability":"view","type":"function"},{"inputs":[{"internalType":"bytes32","name":"key","type":"bytes32"},{"internalType":"bool","name":"checkExists","type":"bool"}],"name":"getAddress","outputs":[{"internalType":"address","name":"","type":"address"}],"stateMutability":"view","type":"function"},{"inputs":[{"internalType":"bytes32","name":"key","type":"bytes32"}],"name":"getAddressMeta","outputs":[{"components":[{"internalType":"bool","name":"freezable","type":"bool"},{"internalType":"bool","name":"frozen","type":"bool"}],"internalType":"struct AddressProviderMeta.Meta","name":"","type":"tuple"}],"stateMutability":"view","type":"function"},{"inputs":[],"name":"getKnownAddressKeys","outputs":[{"internalType":"bytes32[]","name":"","type":"bytes32[]"}],"stateMutability":"view","type":"function"},{"inputs":[{"internalType":"uint256","name":"index","type":"uint256"}],"name":"getPoolAtIndex","outputs":[{"internalType":"address","name":"","type":"address"}],"stateMutability":"view","type":"function"},{"inputs":[{"internalType":"address","name":"token","type":"address"}],"name":"getPoolForToken","outputs":[{"internalType":"contract ILiquidityPool","name":"","type":"address"}],"stateMutability":"view","type":"function"},{"inputs":[{"internalType":"address","name":"token","type":"address"}],"name":"getStakerVault","outputs":[{"internalType":"address","name":"","type":"address"}],"stateMutability":"view","type":"function"},{"inputs":[{"internalType":"uint256","name":"index","type":"uint256"}],"name":"getVaultAtIndex","outputs":[{"internalType":"address","name":"","type":"address"}],"stateMutability":"view","type":"function"},{"inputs":[{"internalType":"address","name":"roleManager","type":"address"}],"name":"initialize","outputs":[],"stateMutability":"nonpayable","type":"function"},{"inputs":[{"internalType":"bytes32","name":"key","type":"bytes32"},{"internalType":"address","name":"initialAddress","type":"address"},{"internalType":"bool","name":"freezable","type":"bool"}],"name":"initializeAddress","outputs":[],"stateMutability":"nonpayable","type":"function"},{"inputs":[{"internalType":"bytes32","name":"key","type":"bytes32"},{"internalType":"address","name":"initialAddress","type":"address"}],"name":"initializeAddress","outputs":[],"stateMutability":"nonpayable","type":"function"},{"inputs":[{"internalType":"bytes32","name":"key","type":"bytes32"},{"internalType":"address","name":"initialAddress","type":"address"}],"name":"initializeAndFreezeAddress","outputs":[],"stateMutability":"nonpayable","type":"function"},{"inputs":[{"internalType":"address","name":"action","type":"address"}],"name":"isAction","outputs":[{"internalType":"bool","name":"","type":"bool"}],"stateMutability":"view","type":"function"},{"inputs":[{"internalType":"address","name":"pool","type":"address"}],"name":"isPool","outputs":[{"internalType":"bool","name":"","type":"bool"}],"stateMutability":"view","type":"function"},{"inputs":[{"internalType":"address","name":"stakerVault","type":"address"},{"internalType":"address","name":"token","type":"address"}],"name":"isStakerVault","outputs":[{"internalType":"bool","name":"","type":"bool"}],"stateMutability":"view","type":"function"},{"inputs":[{"internalType":"address","name":"stakerVault","type":"address"}],"name":"isStakerVaultRegistered","outputs":[{"internalType":"bool","name":"","type":"bool"}],"stateMutability":"view","type":"function"},{"inputs":[{"internalType":"address","name":"vault","type":"address"}],"name":"isVault","outputs":[{"internalType":"bool","name":"","type":"bool"}],"stateMutability":"view","type":"function"},{"inputs":[{"internalType":"address","name":"feeHandler","type":"address"}],"name":"isWhiteListedFeeHandler","outputs":[{"internalType":"bool","name":"","type":"bool"}],"stateMutability":"view","type":"function"},{"inputs":[{"internalType":"bytes32","name":"","type":"bytes32"}],"name":"pendingAddresses","outputs":[{"internalType":"address","name":"","type":"address"}],"stateMutability":"view","type":"function"},{"inputs":[{"internalType":"bytes32","name":"","type":"bytes32"}],"name":"pendingUInts256","outputs":[{"internalType":"uint256","name":"","type":"uint256"}],"stateMutability":"view","type":"function"},{"inputs":[],"name":"poolsCount","outputs":[{"internalType":"uint256","name":"","type":"uint256"}],"stateMutability":"view","type":"function"},{"inputs":[{"internalType":"bytes32","name":"key","type":"bytes32"},{"internalType":"address","name":"newAddress","type":"address"}],"name":"prepareAddress","outputs":[{"internalType":"bool","name":"","type":"bool"}],"stateMutability":"nonpayable","type":"function"},{"inputs":[{"internalType":"address","name":"feeHandler","type":"address"}],"name":"removeFeeHandler","outputs":[{"internalType":"bool","name":"","type":"bool"}],"stateMutability":"nonpayable","type":"function"},{"inputs":[{"internalType":"address","name":"pool","type":"address"}],"name":"removePool","outputs":[{"internalType":"bool","name":"","type":"bool"}],"stateMutability":"nonpayable","type":"function"},{"inputs":[{"internalType":"bytes32","name":"key","type":"bytes32"}],"name":"resetAddress","outputs":[{"internalType":"bool","name":"","type":"bool"}],"stateMutability":"nonpayable","type":"function"},{"inputs":[],"name":"roleManager","outputs":[{"internalType":"contract IRoleManager","name":"","type":"address"}],"stateMutability":"view","type":"function"},{"inputs":[{"internalType":"address","name":"token","type":"address"}],"name":"safeGetPoolForToken","outputs":[{"internalType":"address","name":"","type":"address"}],"stateMutability":"view","type":"function"},{"inputs":[{"internalType":"address","name":"token","type":"address"}],"name":"tryGetStakerVault","outputs":[{"internalType":"bool","name":"","type":"bool"},{"internalType":"address","name":"","type":"address"}],"stateMutability":"view","type":"function"},{"inputs":[{"internalType":"address","name":"previousVault","type":"address"},{"internalType":"address","name":"newVault","type":"address"}],"name":"updateVault","outputs":[],"stateMutability":"nonpayable","type":"function"},{"inputs":[],"name":"vaultsCount","outputs":[{"internalType":"uint256","name":"","type":"uint256"}],"stateMutability":"view","type":"function"}],"bytecode":"60806040523480156200001157600080fd5b5060405162002ea938038062002ea9833981016040819052620000349162000228565b600060405180604001604052806001151581526020016000151581525090506200009067747265617375727960c01b6200007983620000b160201b62001e1e1760201c565b600b620000ef60201b62001e58179092919060201c565b50620000a867747265617375727960c01b8362000106565b50505062000253565b6000808260000151620000c6576000620000c9565b60015b60ff16811790508260200151620000e2576000620000e5565b60025b60ff161792915050565b6000620000fe84848462000194565b949350505050565b600082815260036020908152604080832080546001600160a01b03198082166001600160a01b03888116918217909455600186528487208054909216909155600585528386208690558351929091168083529382015285917fc4a957706c639829ad54381b04930c464db6c7ffdc09d2b4b1acc9ee34fb9261910160405180910390a2829150505b92915050565b600082815260028401602090815260408220839055620000fe908590859062001e65620001c1821b17901c565b6000620001cf8383620001d6565b9392505050565b60008181526001830160205260408120546200021f575081546001818101845560008481526020808220909301849055845484825282860190935260409020919091556200018e565b5060006200018e565b6000602082840312156200023b57600080fd5b81516001600160a01b0381168114620001cf57600080fd5b612c4680620002636000396000f3fe608060405234801561001057600080fd5b50600436106102685760003560e01c806372409ab411610151578063c1d84e0b116100c3578063e3976edf11610087578063e3976edf14610590578063e6dc9e2b146105b9578063e76e75d4146105cc578063ec8a0f20146105df578063f76c3399146105f2578063f7a818bc1461061b57600080fd5b8063c1d84e0b1461053c578063c4d66de81461054f578063c5c63e6514610562578063d2f31c391461056a578063d914cd4b1461057d57600080fd5b8063889777381161011557806388977738146104d35780638a326546146104db5780638c788de0146104ee578063a3823335146104f6578063aff1b7e414610509578063b7016bf61461052957600080fd5b806372409ab41461045e57806375a8012b14610471578063784503981461047957806379c27a73146104ab5780637f52d894146104c057600080fd5b8063255bfbcc116101ea5780635b16ebb7116101ae5780635b16ebb7146103d85780635d138a34146103eb578063622e68cb146103f3578063652b9b4114610406578063682da3f8146104195780636b3d334d1461042c57600080fd5b8063255bfbcc1461036c578063346a4a511461037f57806339e7bcb91461039f5780633b7d0946146103b257806359eadeb0146103c557600080fd5b806315dbfe621161023157806315dbfe62146102e25780631b451d281461031057806321f8a7211461032357806323b9da8214610336578063250b7ba51461035957600080fd5b8062435da51461026d578063063effeb146102925780630ce44e3a146102a75780631010b58c146102ba578063115129b5146102cd575b600080fd5b61027561062e565b6040516001600160a01b0390911681526020015b60405180910390f35b61029a61063d565b60405161028991906128cd565b6102756102b536600461291a565b610649565b6102756102c836600461291a565b61065c565b6102e06102db36600461294b565b610669565b005b6103026102f036600461291a565b60026020526000908152604090205481565b604051908152602001610289565b6102e061031e36600461297b565b61076d565b61027561033136600461291a565b6108bd565b6103496103443660046129a9565b610934565b6040519015158152602001610289565b61034961036736600461291a565b610a5c565b61027561037a3660046129a9565b610b3e565b61030261038d36600461291a565b60056020526000908152604090205481565b6103496103ad3660046129a9565b610ba2565b6103496103c03660046129a9565b610c29565b6102756103d33660046129a9565b610e5d565b6103496103e63660046129a9565b610e6a565b61029a610f19565b6103496104013660046129a9565b610f25565b6103496104143660046129a9565b610f32565b6103496104273660046129a9565b610f3f565b61043f61043a3660046129a9565b61108d565b6040805192151583526001600160a01b03909116602083015201610289565b6102e061046c3660046129d4565b6110a4565b61029a6111a2565b61048c61048736600461291a565b6111ae565b6040805182511515815260209283015115159281019290925201610289565b6104b3611257565b6040516102899190612a16565b6103496104ce3660046129a9565b611263565b610302611270565b6102e06104e936600461294b565b61127c565b61030261128c565b61027561050436600461291a565b611298565b61030261051736600461291a565b60046020526000908152604090205481565b61034961053736600461297b565b6112fe565b61034961054a3660046129a9565b611337565b6102e061055d3660046129a9565b61156e565b61029a61167a565b6103496105783660046129a9565b611686565b6102e061058b3660046129a9565b6117ca565b61027561059e36600461291a565b6001602052600090815260409020546001600160a01b031681565b6102756105c7366004612a4e565b611ac2565b6102e06105da36600461291a565b611b42565b6103496105ed36600461294b565b611cd1565b61027561060036600461291a565b6003602052600090815260409020546001600160a01b031681565b6102756106293660046129a9565b611e10565b6000610638611e71565b905090565b60606106386010611e8a565b6000610656601083611f31565b92915050565b6000610656601283611f3d565b610671611e71565b604051632474521560e21b815269676f7665726e616e636560b01b60048201523360248201526001600160a01b0391909116906391d148549060440160206040518083038186803b1580156106c557600080fd5b505afa1580156106d9573d6000803e3d6000fd5b505050506040513d601f19601f820116820180604052508101906106fd9190612a73565b604051806040016040528060138152602001600080516020612bd0833981519152815250906107485760405162461bcd60e51b815260040161073f9190612a90565b60405180910390fd5b506040805180820190915260018082526020820152610768838383611f4a565b505050565b631c1bdbdb60e21b61077d611e71565b604051632474521560e21b8152600481018390523360248201526001600160a01b0391909116906391d148549060440160206040518083038186803b1580156107c557600080fd5b505afa1580156107d9573d6000803e3d6000fd5b505050506040513d601f19601f820116820180604052508101906107fd9190612a73565b604051806040016040528060138152602001600080516020612bd08339815191528152509061083f5760405162461bcd60e51b815260040161073f9190612a90565b506001600160a01b0383161561085c5761085a601084611fb2565b505b6001600160a01b0382161561087857610876601083611fc7565b505b816001600160a01b0316836001600160a01b03167f483bdedaaf23706a9800ac1af0d852b34927780d79f9d6ba60a80c7cad75ea3960405160405180910390a3505050565b60006108ca600b83611fdc565b604051806040016040528060168152602001751859191c995cdcc8191bd95cc81b9bdd08195e1a5cdd60521b815250906109175760405162461bcd60e51b815260040161073f9190612a90565b50506000908152600360205260409020546001600160a01b031690565b600061093e611e71565b604051632474521560e21b815269676f7665726e616e636560b01b60048201523360248201526001600160a01b0391909116906391d148549060440160206040518083038186803b15801561099257600080fd5b505afa1580156109a6573d6000803e3d6000fd5b505050506040513d601f19601f820116820180604052508101906109ca9190612a73565b604051806040016040528060138152602001600080516020612bd083398151915281525090610a0c5760405162461bcd60e51b815260040161073f9190612a90565b506000610a1a600e84611fc7565b90508015610656576040516001600160a01b038416907f94bf98b0e859f6cd82a6c9e869a41f9a081cd22b48924e50ae880fff57eed8e590600090a292915050565b6000610a66611e71565b604051632474521560e21b815269676f7665726e616e636560b01b60048201523360248201526001600160a01b0391909116906391d148549060440160206040518083038186803b158015610aba57600080fd5b505afa158015610ace573d6000803e3d6000fd5b505050506040513d601f19601f82011682018060405250810190610af29190612a73565b604051806040016040528060138152602001600080516020612bd083398151915281525090610b345760405162461bcd60e51b815260040161073f9190612a90565b5061065682611fe8565b60008080610b4d60128561209a565b9150915081604051806040016040528060118152602001701859191c995cdcc81b9bdd08199bdd5b99607a1b81525090610b9a5760405162461bcd60e51b815260040161073f9190612a90565b509392505050565b600080826001600160a01b03166321df0da76040518163ffffffff1660e01b815260040160206040518083038186803b158015610bde57600080fd5b505afa158015610bf2573d6000803e3d6000fd5b505050506040513d601f19601f82011682018060405250810190610c169190612ae5565b9050610c2283826112fe565b9392505050565b60006931b7b73a3937b63632b960b11b610c41611e71565b604051632474521560e21b8152600481018390523360248201526001600160a01b0391909116906391d148549060440160206040518083038186803b158015610c8957600080fd5b505afa158015610c9d573d6000803e3d6000fd5b505050506040513d601f19601f82011682018060405250810190610cc19190612a73565b604051806040016040528060138152602001600080516020612bd083398151915281525090610d035760405162461bcd60e51b815260040161073f9190612a90565b506000836001600160a01b0316638214f5a46040518163ffffffff1660e01b815260040160206040518083038186803b158015610d3f57600080fd5b505afa158015610d53573d6000803e3d6000fd5b505050506040513d601f19601f82011682018060405250810190610d779190612ae5565b90506000610d866012836120c1565b90508015610e55576000856001600160a01b0316638d928af86040518163ffffffff1660e01b815260040160206040518083038186803b158015610dc957600080fd5b505afa158015610ddd573d6000803e3d6000fd5b505050506040513d601f19601f82011682018060405250810190610e019190612ae5565b90506001600160a01b03811615610e1f57610e1d601082611fb2565b505b6040516001600160a01b038716907fb9e2d8ce3b465127d3242c33b980deaf0fc9be45564857347057829d543e115490600090a2505b949350505050565b60006106566006836120d6565b600080826001600160a01b0316638214f5a46040518163ffffffff1660e01b815260040160206040518083038186803b158015610ea657600080fd5b505afa158015610eba573d6000803e3d6000fd5b505050506040513d601f19601f82011682018060405250810190610ede9190612ae5565b9050600080610eee60128461209a565b91509150818015610f105750806001600160a01b0316856001600160a01b0316145b95945050505050565b6060610638600e611e8a565b6000610656600e836120eb565b60006106566010836120eb565b6000610f49611e71565b604051632474521560e21b815269676f7665726e616e636560b01b60048201523360248201526001600160a01b0391909116906391d148549060440160206040518083038186803b158015610f9d57600080fd5b505afa158015610fb1573d6000803e3d6000fd5b505050506040513d601f19601f82011682018060405250810190610fd59190612a73565b604051806040016040528060138152602001600080516020612bd0833981519152815250906110175760405162461bcd60e51b815260040161073f9190612a90565b506110236009836120eb565b156040518060400160405280601b81526020017f6164647265737320616c72656164792077686974656c69737465640000000000815250906110785760405162461bcd60e51b815260040161073f9190612a90565b50611084600983611fc7565b50600192915050565b60008061109b60068461209a565b91509150915091565b6110ac611e71565b604051632474521560e21b815269676f7665726e616e636560b01b60048201523360248201526001600160a01b0391909116906391d148549060440160206040518083038186803b15801561110057600080fd5b505afa158015611114573d6000803e3d6000fd5b505050506040513d601f19601f820116820180604052508101906111389190612a73565b604051806040016040528060138152602001600080516020612bd08339815191528152509061117a5760405162461bcd60e51b815260040161073f9190612a90565b506040805180820190915281151581526000602082015261119c848483611f4a565b50505050565b6060610638600661210d565b60408051808201909152600080825260208201526000806111d0600b856121b4565b9150915081604051806040016040528060168152602001751859191c995cdcc8191bd95cc81b9bdd08195e1a5cdd60521b815250906112225760405162461bcd60e51b815260040161073f9190612a90565b506040805180820182526000808252602091820152815180830190925260018084168114835283811c81161490820152610e55565b6060610638600b6121c3565b60006106566009836120eb565b6000610638601061225d565b611288828260006110a4565b5050565b60006106386012612267565b6000806112a4836111ae565b90508060200151156040518060400160405280601181526020017030b2323932b9b99034b990333937bd32b760791b815250906112f45760405162461bcd60e51b815260040161073f9190612a90565b50610c2283612272565b6000808061130d60068561209a565b91509150818015610f105750846001600160a01b0316816001600160a01b03161495945050505050565b60006931b7b73a3937b63632b960b11b61134f611e71565b604051632474521560e21b8152600481018390523360248201526001600160a01b0391909116906391d148549060440160206040518083038186803b15801561139757600080fd5b505afa1580156113ab573d6000803e3d6000fd5b505050506040513d601f19601f820116820180604052508101906113cf9190612a73565b604051806040016040528060138152602001600080516020612bd0833981519152815250906114115760405162461bcd60e51b815260040161073f9190612a90565b506000836001600160a01b03166321df0da76040518163ffffffff1660e01b815260040160206040518083038186803b15801561144d57600080fd5b505afa158015611461573d6000803e3d6000fd5b505050506040513d601f19601f820116820180604052508101906114859190612ae5565b6040805180820190915260188152771e995c9bc81859191c995cdcc81b9bdd08185b1b1bddd95960421b60208201529091506001600160a01b0382166114de5760405162461bcd60e51b815260040161073f9190612a90565b506114ea6006826122a6565b156040518060600160405280602b8152602001612ba5602b9139906115225760405162461bcd60e51b815260040161073f9190612a90565b5061152f600682866122bb565b506040516001600160a01b038516907f90155492be7a3762b22fb2ab49dc404aeed6cbb42373e85859eba75f6d1ce7de90600090a25060019392505050565b600054610100900460ff166115895760005460ff161561158d565b303b155b6115f05760405162461bcd60e51b815260206004820152602e60248201527f496e697469616c697a61626c653a20636f6e747261637420697320616c72656160448201526d191e481a5b9a5d1a585b1a5e995960921b606482015260840161073f565b600054610100900460ff16158015611612576000805461ffff19166101011790555b604080518082019091526001808252602082015261164a6a3937b632a6b0b730b3b2b960a91b61164183611e1e565b600b9190611e58565b506116636a3937b632a6b0b730b3b2b960a91b846122d4565b50508015611288576000805461ff00191690555050565b6060610638601261210d565b6000611690611e71565b604051632474521560e21b815269676f7665726e616e636560b01b60048201523360248201526001600160a01b0391909116906391d148549060440160206040518083038186803b1580156116e457600080fd5b505afa1580156116f8573d6000803e3d6000fd5b505050506040513d601f19601f8201168201806040525081019061171c9190612a73565b604051806040016040528060138152602001600080516020612bd08339815191528152509061175e5760405162461bcd60e51b815260040161073f9190612a90565b5061176a6009836120eb565b6040518060400160405280601781526020017f61646472657373206e6f742077686974656c6973746564000000000000000000815250906117be5760405162461bcd60e51b815260040161073f9190612a90565b50611084600983611fb2565b6b706f6f6c5f666163746f727960a01b69676f7665726e616e636560b01b6117f0611e71565b604051636bab521160e11b815260048101849052602481018390523360448201526001600160a01b03919091169063d756a4229060640160206040518083038186803b15801561183f57600080fd5b505afa158015611853573d6000803e3d6000fd5b505050506040513d601f19601f820116820180604052508101906118779190612a73565b604051806040016040528060138152602001600080516020612bd0833981519152815250906118b95760405162461bcd60e51b815260040161073f9190612a90565b506040805180820190915260188152771e995c9bc81859191c995cdcc81b9bdd08185b1b1bddd95960421b60208201526001600160a01b0384166119105760405162461bcd60e51b815260040161073f9190612a90565b5060008390506000816001600160a01b0316638214f5a46040518163ffffffff1660e01b815260040160206040518083038186803b15801561195157600080fd5b505afa158015611965573d6000803e3d6000fd5b505050506040513d601f19601f820116820180604052508101906119899190612ae5565b6040805180820190915260188152771e995c9bc81859191c995cdcc81b9bdd08185b1b1bddd95960421b60208201529091506001600160a01b0382166119e25760405162461bcd60e51b815260040161073f9190612a90565b506119ef601282876122bb565b15611abb576000826001600160a01b0316638d928af86040518163ffffffff1660e01b815260040160206040518083038186803b158015611a2f57600080fd5b505afa158015611a43573d6000803e3d6000fd5b505050506040513d601f19601f82011682018060405250810190611a679190612ae5565b90506001600160a01b03811615611a8557611a83601082611fc7565b505b6040516001600160a01b038716907fb6c7def82cf7e1ea091f2be573ceccf2fc51d7a7cf49b7e8575a477d72ca442390600090a2505b5050505050565b6000811580611ad75750611ad7600b84611fdc565b604051806040016040528060168152602001751859191c995cdcc8191bd95cc81b9bdd08195e1a5cdd60521b81525090611b245760405162461bcd60e51b815260040161073f9190612a90565b5050506000908152600360205260409020546001600160a01b031690565b611b4a611e71565b604051632474521560e21b815269676f7665726e616e636560b01b60048201523360248201526001600160a01b0391909116906391d148549060440160206040518083038186803b158015611b9e57600080fd5b505afa158015611bb2573d6000803e3d6000fd5b505050506040513d601f19601f82011682018060405250810190611bd69190612a73565b604051806040016040528060138152602001600080516020612bd083398151915281525090611c185760405162461bcd60e51b815260040161073f9190612a90565b506000611c24826111ae565b90508060200151156040518060400160405280601181526020017030b2323932b9b99034b990333937bd32b760791b81525090611c745760405162461bcd60e51b815260040161073f9190612a90565b50805160408051808201909152601081526f1a5b9d985b1a5908185c99dd5b595b9d60821b602082015290611cbc5760405162461bcd60e51b815260040161073f9190612a90565b50600160208201526107688261164183611e1e565b6000611cdb611e71565b604051632474521560e21b815269676f7665726e616e636560b01b60048201523360248201526001600160a01b0391909116906391d148549060440160206040518083038186803b158015611d2f57600080fd5b505afa158015611d43573d6000803e3d6000fd5b505050506040513d601f19601f82011682018060405250810190611d679190612a73565b604051806040016040528060138152602001600080516020612bd083398151915281525090611da95760405162461bcd60e51b815260040161073f9190612a90565b506000611db5846111ae565b90508060200151156040518060400160405280601181526020017030b2323932b9b99034b990333937bd32b760791b81525090611e055760405162461bcd60e51b815260040161073f9190612a90565b50610e55848461235f565b600080610e5560128461209a565b6000808260000151611e31576000611e34565b60015b60ff16811790508260200151611e4b576000611e4e565b60025b60ff161792915050565b6000610e5584848461236f565b6000610c22838361238c565b60006106386a3937b632a6b0b730b3b2b960a91b6108bd565b60606000611e978361225d565b905060008167ffffffffffffffff811115611eb457611eb4612b02565b604051908082528060200260200182016040528015611edd578160200160208202803683370190505b50905060005b82811015610b9a57611ef58582611f31565b828281518110611f0757611f07612b18565b6001600160a01b039092166020928302919091019091015280611f2981612b44565b915050611ee3565b6000610c2283836123db565b600080610f108484612405565b611f55600b84611fdc565b156040518060400160405280601081526020016f1a5b9d985b1a5908185c99dd5b595b9d60821b81525090611f9d5760405162461bcd60e51b815260040161073f9190612a90565b50611fa88382612414565b61119c83836122d4565b6000610c22836001600160a01b038416612498565b6000610c22836001600160a01b03841661238c565b6000610c22838361258b565b600081815260056020908152604080832054815180830190925260128252710646561646c696e65206d75737420626520360741b92820192909252906120415760405162461bcd60e51b815260040161073f9190612a90565b506000828152600560209081526040808320839055600190915280822080546001600160a01b03191690555183917f90fb84ad67dd037c388289337bb80b61b8605d38ba9a875dc38b5600909d172f91a2506001919050565b60008080806120b2866001600160a01b038716612597565b909450925050505b9250929050565b6000610c22836001600160a01b0384166125d1565b6000610c22836001600160a01b0384166125ee565b6001600160a01b03811660009081526001830160205260408120541515610c22565b6060600061211a83612267565b905060008167ffffffffffffffff81111561213757612137612b02565b604051908082528060200260200182016040528015612160578160200160208202803683370190505b50905060005b82811015610b9a576121788582611f3d565b82828151811061218a5761218a612b18565b6001600160a01b0390921660209283029190910190910152806121ac81612b44565b915050612166565b60008080806120b28686612597565b606060006121d083612267565b905060008167ffffffffffffffff8111156121ed576121ed612b02565b604051908082528060200260200182016040528015612216578160200160208202803683370190505b50905060005b82811015610b9a5761222e858261265e565b82828151811061224057612240612b18565b60209081029190910101528061225581612b44565b91505061221c565b6000610656825490565b600061065682612674565b600061227d8261267f565b6000828152600160205260409020546001600160a01b031661229f83826122d4565b5092915050565b6000610c22836001600160a01b03841661258b565b6000610e55846001600160a01b0380861690851661236f565b600082815260036020908152604080832080546001600160a01b03198082166001600160a01b03888116918217909455600186528487208054909216909155600585528386208690558351929091168083529382015285917fc4a957706c639829ad54381b04930c464db6c7ffdc09d2b4b1acc9ee34fb9261910160405180910390a2509092915050565b6000610c2283836203f480612728565b60008281526002840160205260408120829055610e558484611e65565b60008181526001830160205260408120546123d357508154600181810184556000848152602080822090930184905584548482528286019093526040902091909155610656565b506000610656565b60008260000182815481106123f2576123f2612b18565b9060005260206000200154905092915050565b60008080806120b286866127a4565b6124218261164183611e1e565b6040518060400160405280601081526020016f1a5b9d985b1a5908185c99dd5b595b9d60821b815250906124685760405162461bcd60e51b815260040161073f9190612a90565b5060405182907f0de8c1e2edd3ebb03a4489213a39c3b46b6b90669a8ae9abe1d175dcd915d5db90600090a25050565b600081815260018301602052604081205480156125815760006124bc600183612b5f565b85549091506000906124d090600190612b5f565b90508181146125355760008660000182815481106124f0576124f0612b18565b906000526020600020015490508087600001848154811061251357612513612b18565b6000918252602080832090910192909255918252600188019052604090208390555b855486908061254657612546612b76565b600190038181906000526020600020016000905590558560010160008681526020019081526020016000206000905560019350505050610656565b6000915050610656565b6000610c2283836127cf565b60008181526002830160205260408120548190806125c6576125b9858561258b565b9250600091506120ba9050565b6001925090506120ba565b60008181526002830160205260408120819055610c2283836127e7565b6000818152600283016020526040812054801515806126125750612612848461258b565b610c225760405162461bcd60e51b815260206004820152601e60248201527f456e756d657261626c654d61703a206e6f6e6578697374656e74206b65790000604482015260640161073f565b60008061266b8484612405565b50949350505050565b60006106568261225d565b60006005600083815260200190815260200160002054905080421015604051806060016040528060218152602001612bf060219139906126d25760405162461bcd60e51b815260040161073f9190612a90565b5060408051808201909152600d81526c0646561646c696e65206973203609c1b6020820152816127155760405162461bcd60e51b815260040161073f9190612a90565b5050600090815260056020526040812055565b600061273484836127f3565b60008481526001602090815260409182902080546001600160a01b0319166001600160a01b038716908117909155825190815290810184905285917fd46e58ee9dc1ae703349f8c09c19f23213a531b4d57f00cfd4a5a6cb6519668d910160405180910390a25060019392505050565b600080806127b28585611f31565b600081815260029690960160205260409095205494959350505050565b60008181526001830160205260408120541515610c22565b6000610c228383612498565b6005600083815260200190815260200160002054600014604051806040016040528060128152602001710646561646c696e65206d75737420626520360741b815250906128535760405162461bcd60e51b815260040161073f9190612a90565b5060408051808201909152601881527f64656c6179206265206174206c6561737420332064617973000000000000000060208201526203f4808210156128ac5760405162461bcd60e51b815260040161073f9190612a90565b506128b78142612b8c565b6000928352600560205260409092209190915550565b6020808252825182820181905260009190848201906040850190845b8181101561290e5783516001600160a01b0316835292840192918401916001016128e9565b50909695505050505050565b60006020828403121561292c57600080fd5b5035919050565b6001600160a01b038116811461294857600080fd5b50565b6000806040838503121561295e57600080fd5b82359150602083013561297081612933565b809150509250929050565b6000806040838503121561298e57600080fd5b823561299981612933565b9150602083013561297081612933565b6000602082840312156129bb57600080fd5b8135610c2281612933565b801515811461294857600080fd5b6000806000606084860312156129e957600080fd5b8335925060208401356129fb81612933565b91506040840135612a0b816129c6565b809150509250925092565b6020808252825182820181905260009190848201906040850190845b8181101561290e57835183529284019291840191600101612a32565b60008060408385031215612a6157600080fd5b823591506020830135612970816129c6565b600060208284031215612a8557600080fd5b8151610c22816129c6565b600060208083528351808285015260005b81811015612abd57858101830151858201604001528201612aa1565b81811115612acf576000604083870101525b50601f01601f1916929092016040019392505050565b600060208284031215612af757600080fd5b8151610c2281612933565b634e487b7160e01b600052604160045260246000fd5b634e487b7160e01b600052603260045260246000fd5b634e487b7160e01b600052601160045260246000fd5b6000600019821415612b5857612b58612b2e565b5060010190565b600082821015612b7157612b71612b2e565b500390565b634e487b7160e01b600052603160045260246000fd5b60008219821115612b9f57612b9f612b2e565b50019056fe61207374616b6572207661756c7420616c72656164792065786973747320666f722074686520746f6b656e756e617574686f72697a65642061636365737300000000000000000000000000646561646c696e6520686173206e6f74206265656e207265616368656420796574a26469706673582212200fadc15795df8212dbc1e118528531a4695a4172ed5b1d0f9106b44b2214830a64736f6c63430008090033","bytecodeSha1":"6d789e6808b60d61dbaedeb7261281f27c2431e7","compiler":{"evm_version":"london","optimizer":{"enabled":true,"runs":200},"version":"0.8.9+commit.e5eed63a"},"contractName":"AddressProvider","language":"Solidity","natspec":{"kind":"dev","methods":{"addAction(address)":{"notice":"Adds action.","params":{"action":"Address of action to add."}},"addPool(address)":{"notice":"Adds pool.","params":{"pool":"Address of pool to add."}},"addStakerVault(address)":{"details":"This fails if the token of the staker vault is the token of an existing staker vault.","notice":"Add a new staker vault and add it's lpGauge if set in vault.","params":{"stakerVault":"Vault to add."},"returns":{"_0":"`true` if successful."}},"allActions()":{"notice":"Get list of all action addresses.","returns":{"_0":"Array with action addresses."}},"allPools()":{"notice":"Get list of all pool addresses.","returns":{"_0":"Array with pool addresses."}},"allStakerVaults()":{"notice":"Returns all the staker vaults."},"allVaults()":{"notice":"returns all the registered vaults"},"executeAddress(bytes32)":{"notice":"Execute update of `key`","returns":{"_0":"New address."}},"freezeAddress(bytes32)":{"notice":"Freezes a configuration key, making it immutable","params":{"key":"Key to feeze"}},"getAddress(bytes32)":{"notice":"Returns the address for the given key"},"getAddress(bytes32,bool)":{"details":"if `checkExists` is true, it will fail if the key does not exist","notice":"Returns the address for the given key"},"getAddressMeta(bytes32)":{"notice":"returns the address metadata for the given key"},"getKnownAddressKeys()":{"notice":"Key functions "},"getPoolAtIndex(uint256)":{"notice":"returns the pool at the given index"},"getPoolForToken(address)":{"details":"Reverts if the pool deos not exist","notice":"Get the liquidity pool for a given token","params":{"token":"Token for which to get the pool."},"returns":{"_0":"Pool address."}},"getStakerVault(address)":{"details":"There can only exist one staker vault per unique token.","notice":"Get the staker vault for a given token","params":{"token":"Token for which to get the vault."},"returns":{"_0":"Vault address."}},"getVaultAtIndex(uint256)":{"notice":"returns the vault at the given index"},"initializeAddress(bytes32,address,bool)":{"notice":"Initializes an address","params":{"initialAddress":"Address for `key`","key":"Key to initialize"}},"initializeAndFreezeAddress(bytes32,address)":{"notice":"Initializes and freezes address","params":{"initialAddress":"Address for `key`","key":"Key to initialize"}},"isAction(address)":{"notice":"Check whether an address is an action.","params":{"action":"Address to check whether it is action."},"returns":{"_0":"True if address is an action."}},"isPool(address)":{"notice":"Check whether an address is an pool.","params":{"pool":"Address to check whether it is a pool."},"returns":{"_0":"True if address is a pool."}},"isStakerVaultRegistered(address)":{"notice":"Check if a vault is registered (exists).","params":{"stakerVault":"Address of staker vault to check."},"returns":{"_0":"`true` if registered, `false` if not."}},"poolsCount()":{"notice":"returns the number of pools"},"prepareAddress(bytes32,address)":{"notice":"Prepare update of an address","params":{"key":"Key to update","newAddress":"New address for `key`"},"returns":{"_0":"`true` if successful."}},"removePool(address)":{"notice":"Delists pool.","params":{"pool":"Address of pool to delist."},"returns":{"_0":"`true` if successful."}},"resetAddress(bytes32)":{"notice":"Reset `key`","returns":{"_0":"true if it was reset"}},"safeGetPoolForToken(address)":{"details":"Does not revert if the pool deos not exist","notice":"Get the liquidity pool for a given token","params":{"token":"Token for which to get the pool."},"returns":{"_0":"Pool address."}},"tryGetStakerVault(address)":{"notice":"Tries to get the staker vault for a given token but does not throw if it does not exist","returns":{"_0":"A boolean set to true if the vault exists and the vault address."}},"updateVault(address,address)":{"notice":"Vault functions  "},"vaultsCount()":{"notice":"returns the number of vaults"}},"version":1},"opcodes":"PUSH1 0x80 PUSH1 0x40 MSTORE CALLVALUE DUP1 ISZERO PUSH2 0x10 JUMPI PUSH1 0x0 DUP1 REVERT JUMPDEST POP PUSH1 0x4 CALLDATASIZE LT PUSH2 0x268 JUMPI PUSH1 0x0 CALLDATALOAD PUSH1 0xE0 SHR DUP1 PUSH4 0x72409AB4 GT PUSH2 0x151 JUMPI DUP1 PUSH4 0xC1D84E0B GT PUSH2 0xC3 JUMPI DUP1 PUSH4 0xE3976EDF GT PUSH2 0x87 JUMPI DUP1 PUSH4 0xE3976EDF EQ PUSH2 0x590 JUMPI DUP1 PUSH4 0xE6DC9E2B EQ PUSH2 0x5B9 JUMPI DUP1 PUSH4 0xE76E75D4 EQ PUSH2 0x5CC JUMPI DUP1 PUSH4 0xEC8A0F20 EQ PUSH2 0x5DF JUMPI DUP1 PUSH4 0xF76C3399 EQ PUSH2 0x5F2 JUMPI DUP1 PUSH4 0xF7A818BC EQ PUSH2 0x61B JUMPI PUSH1 0x0 DUP1 REVERT JUMPDEST DUP1 PUSH4 0xC1D84E0B EQ PUSH2 0x53C JUMPI DUP1 PUSH4 0xC4D66DE8 EQ PUSH2 0x54F JUMPI DUP1 PUSH4 0xC5C63E65 EQ PUSH2 0x562 JUMPI DUP1 PUSH4 0xD2F31C39 EQ PUSH2 0x56A JUMPI DUP1 PUSH4 0xD914CD4B EQ PUSH2 0x57D JUMPI PUSH1 0x0 DUP1 REVERT JUMPDEST DUP1 PUSH4 0x88977738 GT PUSH2 0x115 JUMPI DUP1 PUSH4 0x88977738 EQ PUSH2 0x4D3 JUMPI DUP1 PUSH4 0x8A326546 EQ PUSH2 0x4DB JUMPI DUP1 PUSH4 0x8C788DE0 EQ PUSH2 0x4EE JUMPI DUP1 PUSH4 0xA3823335 EQ PUSH2 0x4F6 JUMPI DUP1 PUSH4 0xAFF1B7E4 EQ PUSH2 0x509 JUMPI DUP1 PUSH4 0xB7016BF6 EQ PUSH2 0x529 JUMPI PUSH1 0x0 DUP1 REVERT JUMPDEST DUP1 PUSH4 0x72409AB4 EQ PUSH2 0x45E JUMPI DUP1 PUSH4 0x75A8012B EQ PUSH2 0x471 JUMPI DUP1 PUSH4 0x78450398 EQ PUSH2 0x479 JUMPI DUP1 PUSH4 0x79C27A73 EQ PUSH2 0x4AB JUMPI DUP1 PUSH4 0x7F52D894 EQ PUSH2 0x4C0 JUMPI PUSH1 0x0 DUP1 REVERT JUMPDEST DUP1 PUSH4 0x255BFBCC GT PUSH2 0x1EA JUMPI DUP1 PUSH4 0x5B16EBB7 GT PUSH2 0x1AE JUMPI DUP1 PUSH4 0x5B16EBB7 EQ PUSH2 0x3D8 JUMPI DUP1 PUSH4 0x5D138A34 EQ PUSH2 0x3EB JUMPI DUP1 PUSH4 0x622E68CB EQ PUSH2 0x3F3 JUMPI DUP1 PUSH4 0x652B9B41 EQ PUSH2 0x406 JUMPI DUP1 PUSH4 0x682DA3F8 EQ PUSH2 0x419 JUMPI DUP1 PUSH4 0x6B3D334D EQ PUSH2 0x42C JUMPI PUSH1 0x0 DUP1 REVERT JUMPDEST DUP1 PUSH4 0x255BFBCC EQ PUSH2 0x36C JUMPI DUP1 PUSH4 0x346A4A51 EQ PUSH2 0x37F JUMPI DUP1 PUSH4 0x39E7BCB9 EQ PUSH2 0x39F JUMPI DUP1 PUSH4 0x3B7D0946 EQ PUSH2 0x3B2 JUMPI DUP1 PUSH4 0x59EADEB0 EQ PUSH2 0x3C5 JUMPI PUSH1 0x0 DUP1 REVERT JUMPDEST DUP1 PUSH4 0x15DBFE62 GT PUSH2 0x231 JUMPI DUP1 PUSH4 0x15DBFE62 EQ PUSH2 0x2E2 JUMPI DUP1 PUSH4 0x1B451D28 EQ PUSH2 0x310 JUMPI DUP1 PUSH4 0x21F8A721 EQ PUSH2 0x323 JUMPI DUP1 PUSH4 0x23B9DA82 EQ PUSH2 0x336 JUMPI DUP1 PUSH4 0x250B7BA5 EQ PUSH2 0x359 JUMPI PUSH1 0x0 DUP1 REVERT JUMPDEST DUP1 PUSH3 0x435DA5 EQ PUSH2 0x26D JUMPI DUP1 PUSH4 0x63EFFEB EQ PUSH2 0x292 JUMPI DUP1 PUSH4 0xCE44E3A EQ PUSH2 0x2A7 JUMPI DUP1 PUSH4 0x1010B58C EQ PUSH2 0x2BA JUMPI DUP1 PUSH4 0x115129B5 EQ PUSH2 0x2CD JUMPI JUMPDEST PUSH1 0x0 DUP1 REVERT JUMPDEST PUSH2 0x275 PUSH2 0x62E JUMP JUMPDEST PUSH1 0x40 MLOAD PUSH1 0x1 PUSH1 0x1 PUSH1 0xA0 SHL SUB SWAP1 SWAP2 AND DUP2 MSTORE PUSH1 0x20 ADD JUMPDEST PUSH1 0x40 MLOAD DUP1 SWAP2 SUB SWAP1 RETURN JUMPDEST PUSH2 0x29A PUSH2 0x63D JUMP JUMPDEST PUSH1 0x40 MLOAD PUSH2 0x289 SWAP2 SWAP1 PUSH2 0x28CD JUMP JUMPDEST PUSH2 0x275 PUSH2 0x2B5 CALLDATASIZE PUSH1 0x4 PUSH2 0x291A JUMP JUMPDEST PUSH2 0x649 JUMP JUMPDEST PUSH2 0x275 PUSH2 0x2C8 CALLDATASIZE PUSH1 0x4 PUSH2 0x291A JUMP JUMPDEST PUSH2 0x65C JUMP JUMPDEST PUSH2 0x2E0 PUSH2 0x2DB CALLDATASIZE PUSH1 0x4 PUSH2 0x294B JUMP JUMPDEST PUSH2 0x669 JUMP JUMPDEST STOP JUMPDEST PUSH2 0x302 PUSH2 0x2F0 CALLDATASIZE PUSH1 0x4 PUSH2 0x291A JUMP JUMPDEST PUSH1 0x2 PUSH1 0x20 MSTORE PUSH1 0x0 SWAP1 DUP2 MSTORE PUSH1 0x40 SWAP1 KECCAK256 SLOAD DUP2 JUMP JUMPDEST PUSH1 0x40 MLOAD SWAP1 DUP2 MSTORE PUSH1 0x20 ADD PUSH2 0x289 JUMP JUMPDEST PUSH2 0x2E0 PUSH2 0x31E CALLDATASIZE PUSH1 0x4 PUSH2 0x297B JUMP JUMPDEST PUSH2 0x76D JUMP JUMPDEST PUSH2 0x275 PUSH2 0x331 CALLDATASIZE PUSH1 0x4 PUSH2 0x291A JUMP JUMPDEST PUSH2 0x8BD JUMP JUMPDEST PUSH2 0x349 PUSH2 0x344 CALLDATASIZE PUSH1 0x4 PUSH2 0x29A9 JUMP JUMPDEST PUSH2 0x934 JUMP JUMPDEST PUSH1 0x40 MLOAD SWAP1 ISZERO ISZERO DUP2 MSTORE PUSH1 0x20 ADD PUSH2 0x289 JUMP JUMPDEST PUSH2 0x349 PUSH2 0x367 CALLDATASIZE PUSH1 0x4 PUSH2 0x291A JUMP JUMPDEST PUSH2 0xA5C JUMP JUMPDEST PUSH2 0x275 PUSH2 0x37A CALLDATASIZE PUSH1 0x4 PUSH2 0x29A9 JUMP JUMPDEST PUSH2 0xB3E JUMP JUMPDEST PUSH2 0x302 PUSH2 0x38D CALLDATASIZE PUSH1 0x4 PUSH2 0x291A JUMP JUMPDEST PUSH1 0x5 PUSH1 0x20 MSTORE PUSH1 0x0 SWAP1 DUP2 MSTORE PUSH1 0x40 SWAP1 KECCAK256 SLOAD DUP2 JUMP JUMPDEST PUSH2 0x349 PUSH2 0x3AD CALLDATASIZE PUSH1 0x4 PUSH2 0x29A9 JUMP JUMPDEST PUSH2 0xBA2 JUMP JUMPDEST PUSH2 0x349 PUSH2 0x3C0 CALLDATASIZE PUSH1 0x4 PUSH2 0x29A9 JUMP JUMPDEST PUSH2 0xC29 JUMP JUMPDEST PUSH2 0x275 PUSH2 0x3D3 CALLDATASIZE PUSH1 0x4 PUSH2 0x29A9 JUMP JUMPDEST PUSH2 0xE5D JUMP JUMPDEST PUSH2 0x349 PUSH2 0x3E6 CALLDATASIZE PUSH1 0x4 PUSH2 0x29A9 JUMP JUMPDEST PUSH2 0xE6A JUMP JUMPDEST PUSH2 0x29A PUSH2 0xF19 JUMP JUMPDEST PUSH2 0x349 PUSH2 0x401 CALLDATASIZE PUSH1 0x4 PUSH2 0x29A9 JUMP JUMPDEST PUSH2 0xF25 JUMP JUMPDEST PUSH2 0x349 PUSH2 0x414 CALLDATASIZE PUSH1 0x4 PUSH2 0x29A9 JUMP JUMPDEST PUSH2 0xF32 JUMP JUMPDEST PUSH2 0x349 PUSH2 0x427 CALLDATASIZE PUSH1 0x4 PUSH2 0x29A9 JUMP JUMPDEST PUSH2 0xF3F JUMP JUMPDEST PUSH2 0x43F PUSH2 0x43A CALLDATASIZE PUSH1 0x4 PUSH2 0x29A9 JUMP JUMPDEST PUSH2 0x108D JUMP JUMPDEST PUSH1 0x40 DUP1 MLOAD SWAP3 ISZERO ISZERO DUP4 MSTORE PUSH1 0x1 PUSH1 0x1 PUSH1 0xA0 SHL SUB SWAP1 SWAP2 AND PUSH1 0x20 DUP4 ADD MSTORE ADD PUSH2 0x289 JUMP JUMPDEST PUSH2 0x2E0 PUSH2 0x46C CALLDATASIZE PUSH1 0x4 PUSH2 0x29D4 JUMP JUMPDEST PUSH2 0x10A4 JUMP JUMPDEST PUSH2 0x29A PUSH2 0x11A2 JUMP JUMPDEST PUSH2 0x48C PUSH2 0x487 CALLDATASIZE PUSH1 0x4 PUSH2 0x291A JUMP JUMPDEST PUSH2 0x11AE JUMP JUMPDEST PUSH1 0x40 DUP1 MLOAD DUP3 MLOAD ISZERO ISZERO DUP2 MSTORE PUSH1 0x20 SWAP3 DUP4 ADD MLOAD ISZERO ISZERO SWAP3 DUP2 ADD SWAP3 SWAP1 SWAP3 MSTORE ADD PUSH2 0x289 JUMP JUMPDEST PUSH2 0x4B3 PUSH2 0x1257 JUMP JUMPDEST PUSH1 0x40 MLOAD PUSH2 0x289 SWAP2 SWAP1 PUSH2 0x2A16 JUMP JUMPDEST PUSH2 0x349 PUSH2 0x4CE CALLDATASIZE PUSH1 0x4 PUSH2 0x29A9 JUMP JUMPDEST PUSH2 0x1263 JUMP JUMPDEST PUSH2 0x302 PUSH2 0x1270 JUMP JUMPDEST PUSH2 0x2E0 PUSH2 0x4E9 CALLDATASIZE PUSH1 0x4 PUSH2 0x294B JUMP JUMPDEST PUSH2 0x127C JUMP JUMPDEST PUSH2 0x302 PUSH2 0x128C JUMP JUMPDEST PUSH2 0x275 PUSH2 0x504 CALLDATASIZE PUSH1 0x4 PUSH2 0x291A JUMP JUMPDEST PUSH2 0x1298 JUMP JUMPDEST PUSH2 0x302 PUSH2 0x517 CALLDATASIZE PUSH1 0x4 PUSH2 0x291A JUMP JUMPDEST PUSH1 0x4 PUSH1 0x20 MSTORE PUSH1 0x0 SWAP1 DUP2 MSTORE PUSH1 0x40 SWAP1 KECCAK256 SLOAD DUP2 JUMP JUMPDEST PUSH2 0x349 PUSH2 0x537 CALLDATASIZE PUSH1 0x4 PUSH2 0x297B JUMP JUMPDEST PUSH2 0x12FE JUMP JUMPDEST PUSH2 0x349 PUSH2 0x54A CALLDATASIZE PUSH1 0x4 PUSH2 0x29A9 JUMP JUMPDEST PUSH2 0x1337 JUMP JUMPDEST PUSH2 0x2E0 PUSH2 0x55D CALLDATASIZE PUSH1 0x4 PUSH2 0x29A9 JUMP JUMPDEST PUSH2 0x156E JUMP JUMPDEST PUSH2 0x29A PUSH2 0x167A JUMP JUMPDEST PUSH2 0x349 PUSH2 0x578 CALLDATASIZE PUSH1 0x4 PUSH2 0x29A9 JUMP JUMPDEST PUSH2 0x1686 JUMP JUMPDEST PUSH2 0x2E0 PUSH2 0x58B CALLDATASIZE PUSH1 0x4 PUSH2 0x29A9 JUMP JUMPDEST PUSH2 0x17CA JUMP JUMPDEST PUSH2 0x275 PUSH2 0x59E CALLDATASIZE PUSH1 0x4 PUSH2 0x291A JUMP JUMPDEST PUSH1 0x1 PUSH1 0x20 MSTORE PUSH1 0x0 SWAP1 DUP2 MSTORE PUSH1 0x40 SWAP1 KECCAK256 SLOAD PUSH1 0x1 PUSH1 0x1 PUSH1 0xA0 SHL SUB AND DUP2 JUMP JUMPDEST PUSH2 0x275 PUSH2 0x5C7 CALLDATASIZE PUSH1 0x4 PUSH2 0x2A4E JUMP JUMPDEST PUSH2 0x1AC2 JUMP JUMPDEST PUSH2 0x2E0 PUSH2 0x5DA CALLDATASIZE PUSH1 0x4 PUSH2 0x291A JUMP JUMPDEST PUSH2 0x1B42 JUMP JUMPDEST PUSH2 0x349 PUSH2 0x5ED CALLDATASIZE PUSH1 0x4 PUSH2 0x294B JUMP JUMPDEST PUSH2 0x1CD1 JUMP JUMPDEST PUSH2 0x275 PUSH2 0x600 CALLDATASIZE PUSH1 0x4 PUSH2 0x291A JUMP JUMPDEST PUSH1 0x3 PUSH1 0x20 MSTORE PUSH1 0x0 SWAP1 DUP2 MSTORE PUSH1 0x40 SWAP1 KECCAK256 SLOAD PUSH1 0x1 PUSH1 0x1 PUSH1 0xA0 SHL SUB AND DUP2 JUMP JUMPDEST PUSH2 0x275 PUSH2 0x629 CALLDATASIZE PUSH1 0x4 PUSH2 0x29A9 JUMP JUMPDEST PUSH2 0x1E10 JUMP JUMPDEST PUSH1 0x0 PUSH2 0x638 PUSH2 0x1E71 JUMP JUMPDEST SWAP1 POP SWAP1 JUMP JUMPDEST PUSH1 0x60 PUSH2 0x638 PUSH1 0x10 PUSH2 0x1E8A JUMP JUMPDEST PUSH1 0x0 PUSH2 0x656 PUSH1 0x10 DUP4 PUSH2 0x1F31 JUMP JUMPDEST SWAP3 SWAP2 POP POP JUMP JUMPDEST PUSH1 0x0 PUSH2 0x656 PUSH1 0x12 DUP4 PUSH2 0x1F3D JUMP JUMPDEST PUSH2 0x671 PUSH2 0x1E71 JUMP JUMPDEST PUSH1 0x40 MLOAD PUSH4 0x24745215 PUSH1 0xE2 SHL DUP2 MSTORE PUSH10 0x676F7665726E616E6365 PUSH1 0xB0 SHL PUSH1 0x4 DUP3 ADD MSTORE CALLER PUSH1 0x24 DUP3 ADD MSTORE PUSH1 0x1 PUSH1 0x1 PUSH1 0xA0 SHL SUB SWAP2 SWAP1 SWAP2 AND SWAP1 PUSH4 0x91D14854 SWAP1 PUSH1 0x44 ADD PUSH1 0x20 PUSH1 0x40 MLOAD DUP1 DUP4 SUB DUP2 DUP7 DUP1 EXTCODESIZE ISZERO DUP1 ISZERO PUSH2 0x6C5 JUMPI PUSH1 0x0 DUP1 REVERT JUMPDEST POP GAS STATICCALL ISZERO DUP1 ISZERO PUSH2 0x6D9 JUMPI RETURNDATASIZE PUSH1 0x0 DUP1 RETURNDATACOPY RETURNDATASIZE PUSH1 0x0 REVERT JUMPDEST POP POP POP POP PUSH1 0x40 MLOAD RETURNDATASIZE PUSH1 0x1F NOT PUSH1 0x1F DUP3 ADD AND DUP3 ADD DUP1 PUSH1 0x40 MSTORE POP DUP2 ADD SWAP1 PUSH2 0x6FD SWAP2 SWAP1 PUSH2 0x2A73 JUMP JUMPDEST PUSH1 0x40 MLOAD DUP1 PUSH1 0x40 ADD PUSH1 0x40 MSTORE DUP1 PUSH1 0x13 DUP2 MSTORE PUSH1 0x20 ADD PUSH1 0x0 DUP1 MLOAD PUSH1 0x20 PUSH2 0x2BD0 DUP4 CODECOPY DUP2 MLOAD SWAP2 MSTORE DUP2 MSTORE POP SWAP1 PUSH2 0x748 JUMPI PUSH1 0x40 MLOAD PUSH3 0x461BCD PUSH1 0xE5 SHL DUP2 MSTORE PUSH1 0x4 ADD PUSH2 0x73F SWAP2 SWAP1 PUSH2 0x2A90 JUMP JUMPDEST PUSH1 0x40 MLOAD DUP1 SWAP2 SUB SWAP1 REVERT JUMPDEST POP PUSH1 0x40 DUP1 MLOAD DUP1 DUP3 ADD SWAP1 SWAP2 MSTORE PUSH1 0x1 DUP1 DUP3 MSTORE PUSH1 0x20 DUP3 ADD MSTORE PUSH2 0x768 DUP4 DUP4 DUP4 PUSH2 0x1F4A JUMP JUMPDEST POP POP POP JUMP JUMPDEST PUSH4 0x1C1BDBDB PUSH1 0xE2 SHL PUSH2 0x77D PUSH2 0x1E71 JUMP JUMPDEST PUSH1 0x40 MLOAD PUSH4 0x24745215 PUSH1 0xE2 SHL DUP2 MSTORE PUSH1 0x4 DUP2 ADD DUP4 SWAP1 MSTORE CALLER PUSH1 0x24 DUP3 ADD MSTORE PUSH1 0x1 PUSH1 0x1 PUSH1 0xA0 SHL SUB SWAP2 SWAP1 SWAP2 AND SWAP1 PUSH4 0x91D14854 SWAP1 PUSH1 0x44 ADD PUSH1 0x20 PUSH1 0x40 MLOAD DUP1 DUP4 SUB DUP2 DUP7 DUP1 EXTCODESIZE ISZERO DUP1 ISZERO PUSH2 0x7C5 JUMPI PUSH1 0x0 DUP1 REVERT JUMPDEST POP GAS STATICCALL ISZERO DUP1 ISZERO PUSH2 0x7D9 JUMPI RETURNDATASIZE PUSH1 0x0 DUP1 RETURNDATACOPY RETURNDATASIZE PUSH1 0x0 REVERT JUMPDEST POP POP POP POP PUSH1 0x40 MLOAD RETURNDATASIZE PUSH1 0x1F NOT PUSH1 0x1F DUP3 ADD AND DUP3 ADD DUP1 PUSH1 0x40 MSTORE POP DUP2 ADD SWAP1 PUSH2 0x7FD SWAP2 SWAP1 PUSH2 0x2A73 JUMP JUMPDEST PUSH1 0x40 MLOAD DUP1 PUSH1 0x40 ADD PUSH1 0x40 MSTORE DUP1 PUSH1 0x13 DUP2 MSTORE PUSH1 0x20 ADD PUSH1 0x0 DUP1 MLOAD PUSH1 0x20 PUSH2 0x2BD0 DUP4 CODECOPY DUP2 MLOAD SWAP2 MSTORE DUP2 MSTORE POP SWAP1 PUSH2 0x83F JUMPI PUSH1 0x40 MLOAD PUSH3 0x461BCD PUSH1 0xE5 SHL DUP2 MSTORE PUSH1 0x4 ADD PUSH2 0x73F SWAP2 SWAP1 PUSH2 0x2A90 JUMP JUMPDEST POP PUSH1 0x1 PUSH1 0x1 PUSH1 0xA0 SHL SUB DUP4 AND ISZERO PUSH2 0x85C JUMPI PUSH2 0x85A PUSH1 0x10 DUP5 PUSH2 0x1FB2 JUMP JUMPDEST POP JUMPDEST PUSH1 0x1 PUSH1 0x1 PUSH1 0xA0 SHL SUB DUP3 AND ISZERO PUSH2 0x878 JUMPI PUSH2 0x876 PUSH1 0x10 DUP4 PUSH2 0x1FC7 JUMP JUMPDEST POP JUMPDEST DUP2 PUSH1 0x1 PUSH1 0x1 PUSH1 0xA0 SHL SUB AND DUP4 PUSH1 0x1 PUSH1 0x1 PUSH1 0xA0 SHL SUB AND PUSH32 0x483BDEDAAF23706A9800AC1AF0D852B34927780D79F9D6BA60A80C7CAD75EA39 PUSH1 0x40 MLOAD PUSH1 0x40 MLOAD DUP1 SWAP2 SUB SWAP1 LOG3 POP POP POP JUMP JUMPDEST PUSH1 0x0 PUSH2 0x8CA PUSH1 0xB DUP4 PUSH2 0x1FDC JUMP JUMPDEST PUSH1 0x40 MLOAD DUP1 PUSH1 0x40 ADD PUSH1 0x40 MSTORE DUP1 PUSH1 0x16 DUP2 MSTORE PUSH1 0x20 ADD PUSH22 0x1859191C995CDCC8191BD95CC81B9BDD08195E1A5CDD PUSH1 0x52 SHL DUP2 MSTORE POP SWAP1 PUSH2 0x917 JUMPI PUSH1 0x40 MLOAD PUSH3 0x461BCD PUSH1 0xE5 SHL DUP2 MSTORE PUSH1 0x4 ADD PUSH2 0x73F SWAP2 SWAP1 PUSH2 0x2A90 JUMP JUMPDEST POP POP PUSH1 0x0 SWAP1 DUP2 MSTORE PUSH1 0x3 PUSH1 0x20 MSTORE PUSH1 0x40 SWAP1 KECCAK256 SLOAD PUSH1 0x1 PUSH1 0x1 PUSH1 0xA0 SHL SUB AND SWAP1 JUMP JUMPDEST PUSH1 0x0 PUSH2 0x93E PUSH2 0x1E71 JUMP JUMPDEST PUSH1 0x40 MLOAD PUSH4 0x24745215 PUSH1 0xE2 SHL DUP2 MSTORE PUSH10 0x676F7665726E616E6365 PUSH1 0xB0 SHL PUSH1 0x4 DUP3 ADD MSTORE CALLER PUSH1 0x24 DUP3 ADD MSTORE PUSH1 0x1 PUSH1 0x1 PUSH1 0xA0 SHL SUB SWAP2 SWAP1 SWAP2 AND SWAP1 PUSH4 0x91D14854 SWAP1 PUSH1 0x44 ADD PUSH1 0x20 PUSH1 0x40 MLOAD DUP1 DUP4 SUB DUP2 DUP7 DUP1 EXTCODESIZE ISZERO DUP1 ISZERO PUSH2 0x992 JUMPI PUSH1 0x0 DUP1 REVERT JUMPDEST POP GAS STATICCALL ISZERO DUP1 ISZERO PUSH2 0x9A6 JUMPI RETURNDATASIZE PUSH1 0x0 DUP1 RETURNDATACOPY RETURNDATASIZE PUSH1 0x0 REVERT JUMPDEST POP POP POP POP PUSH1 0x40 MLOAD RETURNDATASIZE PUSH1 0x1F NOT PUSH1 0x1F DUP3 ADD AND DUP3 ADD DUP1 PUSH1 0x40 MSTORE POP DUP2 ADD SWAP1 PUSH2 0x9CA SWAP2 SWAP1 PUSH2 0x2A73 JUMP JUMPDEST PUSH1 0x40 MLOAD DUP1 PUSH1 0x40 ADD PUSH1 0x40 MSTORE DUP1 PUSH1 0x13 DUP2 MSTORE PUSH1 0x20 ADD PUSH1 0x0 DUP1 MLOAD PUSH1 0x20 PUSH2 0x2BD0 DUP4 CODECOPY DUP2 MLOAD SWAP2 MSTORE DUP2 MSTORE POP SWAP1 PUSH2 0xA0C JUMPI PUSH1 0x40 MLOAD PUSH3 0x461BCD PUSH1 0xE5 SHL DUP2 MSTORE PUSH1 0x4 ADD PUSH2 0x73F SWAP2 SWAP1 PUSH2 0x2A90 JUMP JUMPDEST POP PUSH1 0x0 PUSH2 0xA1A PUSH1 0xE DUP5 PUSH2 0x1FC7 JUMP JUMPDEST SWAP1 POP DUP1 ISZERO PUSH2 0x656 JUMPI PUSH1 0x40 MLOAD PUSH1 0x1 PUSH1 0x1 PUSH1 0xA0 SHL SUB DUP5 AND SWAP1 PUSH32 0x94BF98B0E859F6CD82A6C9E869A41F9A081CD22B48924E50AE880FFF57EED8E5 SWAP1 PUSH1 0x0 SWAP1 LOG2 SWAP3 SWAP2 POP POP JUMP JUMPDEST PUSH1 0x0 PUSH2 0xA66 PUSH2 0x1E71 JUMP JUMPDEST PUSH1 0x40 MLOAD PUSH4 0x24745215 PUSH1 0xE2 SHL DUP2 MSTORE PUSH10 0x676F7665726E616E6365 PUSH1 0xB0 SHL PUSH1 0x4 DUP3 ADD MSTORE CALLER PUSH1 0x24 DUP3 ADD MSTORE PUSH1 0x1 PUSH1 0x1 PUSH1 0xA0 SHL SUB SWAP2 SWAP1 SWAP2 AND SWAP1 PUSH4 0x91D14854 SWAP1 PUSH1 0x44 ADD PUSH1 0x20 PUSH1 0x40 MLOAD DUP1 DUP4 SUB DUP2 DUP7 DUP1 EXTCODESIZE ISZERO DUP1 ISZERO PUSH2 0xABA JUMPI PUSH1 0x0 DUP1 REVERT JUMPDEST POP GAS STATICCALL ISZERO DUP1 ISZERO PUSH2 0xACE JUMPI RETURNDATASIZE PUSH1 0x0 DUP1 RETURNDATACOPY RETURNDATASIZE PUSH1 0x0 REVERT JUMPDEST POP POP POP POP PUSH1 0x40 MLOAD RETURNDATASIZE PUSH1 0x1F NOT PUSH1 0x1F DUP3 ADD AND DUP3 ADD DUP1 PUSH1 0x40 MSTORE POP DUP2 ADD SWAP1 PUSH2 0xAF2 SWAP2 SWAP1 PUSH2 0x2A73 JUMP JUMPDEST PUSH1 0x40 MLOAD DUP1 PUSH1 0x40 ADD PUSH1 0x40 MSTORE DUP1 PUSH1 0x13 DUP2 MSTORE PUSH1 0x20 ADD PUSH1 0x0 DUP1 MLOAD PUSH1 0x20 PUSH2 0x2BD0 DUP4 CODECOPY DUP2 MLOAD SWAP2 MSTORE DUP2 MSTORE POP SWAP1 PUSH2 0xB34 JUMPI PUSH1 0x40 MLOAD PUSH3 0x461BCD PUSH1 0xE5 SHL DUP2 MSTORE PUSH1 0x4 ADD PUSH2 0x73F SWAP2 SWAP1 PUSH2 0x2A90 JUMP JUMPDEST POP PUSH2 0x656 DUP3 PUSH2 0x1FE8 JUMP JUMPDEST PUSH1 0x0 DUP1 DUP1 PUSH2 0xB4D PUSH1 0x12 DUP6 PUSH2 0x209A JUMP JUMPDEST SWAP2 POP SWAP2 POP DUP2 PUSH1 0x40 MLOAD DUP1 PUSH1 0x40 ADD PUSH1 0x40 MSTORE DUP1 PUSH1 0x11 DUP2 MSTORE PUSH1 0x20 ADD PUSH17 0x1859191C995CDCC81B9BDD08199BDD5B99 PUSH1 0x7A SHL DUP2 MSTORE POP SWAP1 PUSH2 0xB9A JUMPI PUSH1 0x40 MLOAD PUSH3 0x461BCD PUSH1 0xE5 SHL DUP2 MSTORE PUSH1 0x4 ADD PUSH2 0x73F SWAP2 SWAP1 PUSH2 0x2A90 JUMP JUMPDEST POP SWAP4 SWAP3 POP POP POP JUMP JUMPDEST PUSH1 0x0 DUP1 DUP3 PUSH1 0x1 PUSH1 0x1 PUSH1 0xA0 SHL SUB AND PUSH4 0x21DF0DA7 PUSH1 0x40 MLOAD DUP2 PUSH4 0xFFFFFFFF AND PUSH1 0xE0 SHL DUP2 MSTORE PUSH1 0x4 ADD PUSH1 0x20 PUSH1 0x40 MLOAD DUP1 DUP4 SUB DUP2 DUP7 DUP1 EXTCODESIZE ISZERO DUP1 ISZERO PUSH2 0xBDE JUMPI PUSH1 0x0 DUP1 REVERT JUMPDEST POP GAS STATICCALL ISZERO DUP1 ISZERO PUSH2 0xBF2 JUMPI RETURNDATASIZE PUSH1 0x0 DUP1 RETURNDATACOPY RETURNDATASIZE PUSH1 0x0 REVERT JUMPDEST POP POP POP POP PUSH1 0x40 MLOAD RETURNDATASIZE PUSH1 0x1F NOT PUSH1 0x1F DUP3 ADD AND DUP3 ADD DUP1 PUSH1 0x40 MSTORE POP DUP2 ADD SWAP1 PUSH2 0xC16 SWAP2 SWAP1 PUSH2 0x2AE5 JUMP JUMPDEST SWAP1 POP PUSH2 0xC22 DUP4 DUP3 PUSH2 0x12FE JUMP JUMPDEST SWAP4 SWAP3 POP POP POP JUMP JUMPDEST PUSH1 0x0 PUSH10 0x31B7B73A3937B63632B9 PUSH1 0xB1 SHL PUSH2 0xC41 PUSH2 0x1E71 JUMP JUMPDEST PUSH1 0x40 MLOAD PUSH4 0x24745215 PUSH1 0xE2 SHL DUP2 MSTORE PUSH1 0x4 DUP2 ADD DUP4 SWAP1 MSTORE CALLER PUSH1 0x24 DUP3 ADD MSTORE PUSH1 0x1 PUSH1 0x1 PUSH1 0xA0 SHL SUB SWAP2 SWAP1 SWAP2 AND SWAP1 PUSH4 0x91D14854 SWAP1 PUSH1 0x44 ADD PUSH1 0x20 PUSH1 0x40 MLOAD DUP1 DUP4 SUB DUP2 DUP7 DUP1 EXTCODESIZE ISZERO DUP1 ISZERO PUSH2 0xC89 JUMPI PUSH1 0x0 DUP1 REVERT JUMPDEST POP GAS STATICCALL ISZERO DUP1 ISZERO PUSH2 0xC9D JUMPI RETURNDATASIZE PUSH1 0x0 DUP1 RETURNDATACOPY RETURNDATASIZE PUSH1 0x0 REVERT JUMPDEST POP POP POP POP PUSH1 0x40 MLOAD RETURNDATASIZE PUSH1 0x1F NOT PUSH1 0x1F DUP3 ADD AND DUP3 ADD DUP1 PUSH1 0x40 MSTORE POP DUP2 ADD SWAP1 PUSH2 0xCC1 SWAP2 SWAP1 PUSH2 0x2A73 JUMP JUMPDEST PUSH1 0x40 MLOAD DUP1 PUSH1 0x40 ADD PUSH1 0x40 MSTORE DUP1 PUSH1 0x13 DUP2 MSTORE PUSH1 0x20 ADD PUSH1 0x0 DUP1 MLOAD PUSH1 0x20 PUSH2 0x2BD0 DUP4 CODECOPY DUP2 MLOAD SWAP2 MSTORE DUP2 MSTORE POP SWAP1 PUSH2 0xD03 JUMPI PUSH1 0x40 MLOAD PUSH3 0x461BCD PUSH1 0xE5 SHL DUP2 MSTORE PUSH1 0x4 ADD PUSH2 0x73F SWAP2 SWAP1 PUSH2 0x2A90 JUMP JUMPDEST POP PUSH1 0x0 DUP4 PUSH1 0x1 PUSH1 0x1 PUSH1 0xA0 SHL SUB AND PUSH4 0x8214F5A4 PUSH1 0x40 MLOAD DUP2 PUSH4 0xFFFFFFFF AND PUSH1 0xE0 SHL DUP2 MSTORE PUSH1 0x4 ADD PUSH1 0x20 PUSH1 0x40 MLOAD DUP1 DUP4 SUB DUP2 DUP7 DUP1 EXTCODESIZE ISZERO DUP1 ISZERO PUSH2 0xD3F JUMPI PUSH1 0x0 DUP1 REVERT JUMPDEST POP GAS STATICCALL ISZERO DUP1 ISZERO PUSH2 0xD53 JUMPI RETURNDATASIZE PUSH1 0x0 DUP1 RETURNDATACOPY RETURNDATASIZE PUSH1 0x0 REVERT JUMPDEST POP POP POP POP PUSH1 0x40 MLOAD RETURNDATASIZE PUSH1 0x1F NOT PUSH1 0x1F DUP3 ADD AND DUP3 ADD DUP1 PUSH1 0x40 MSTORE POP DUP2 ADD SWAP1 PUSH2 0xD77 SWAP2 SWAP1 PUSH2 0x2AE5 JUMP JUMPDEST SWAP1 POP PUSH1 0x0 PUSH2 0xD86 PUSH1 0x12 DUP4 PUSH2 0x20C1 JUMP JUMPDEST SWAP1 POP DUP1 ISZERO PUSH2 0xE55 JUMPI PUSH1 0x0 DUP6 PUSH1 0x1 PUSH1 0x1 PUSH1 0xA0 SHL SUB AND PUSH4 0x8D928AF8 PUSH1 0x40 MLOAD DUP2 PUSH4 0xFFFFFFFF AND PUSH1 0xE0 SHL DUP2 MSTORE PUSH1 0x4 ADD PUSH1 0x20 PUSH1 0x40 MLOAD DUP1 DUP4 SUB DUP2 DUP7 DUP1 EXTCODESIZE ISZERO DUP1 ISZERO PUSH2 0xDC9 JUMPI PUSH1 0x0 DUP1 REVERT JUMPDEST POP GAS STATICCALL ISZERO DUP1 ISZERO PUSH2 0xDDD JUMPI RETURNDATASIZE PUSH1 0x0 DUP1 RETURNDATACOPY RETURNDATASIZE PUSH1 0x0 REVERT JUMPDEST POP POP POP POP PUSH1 0x40 MLOAD RETURNDATASIZE PUSH1 0x1F NOT PUSH1 0x1F DUP3 ADD AND DUP3 ADD DUP1 PUSH1 0x40 MSTORE POP DUP2 ADD SWAP1 PUSH2 0xE01 SWAP2 SWAP1 PUSH2 0x2AE5 JUMP JUMPDEST SWAP1 POP PUSH1 0x1 PUSH1 0x1 PUSH1 0xA0 SHL SUB DUP2 AND ISZERO PUSH2 0xE1F JUMPI PUSH2 0xE1D PUSH1 0x10 DUP3 PUSH2 0x1FB2 JUMP JUMPDEST POP JUMPDEST PUSH1 0x40 MLOAD PUSH1 0x1 PUSH1 0x1 PUSH1 0xA0 SHL SUB DUP8 AND SWAP1 PUSH32 0xB9E2D8CE3B465127D3242C33B980DEAF0FC9BE45564857347057829D543E1154 SWAP1 PUSH1 0x0 SWAP1 LOG2 POP JUMPDEST SWAP5 SWAP4 POP POP POP POP JUMP JUMPDEST PUSH1 0x0 PUSH2 0x656 PUSH1 0x6 DUP4 PUSH2 0x20D6 JUMP JUMPDEST PUSH1 0x0 DUP1 DUP3 PUSH1 0x1 PUSH1 0x1 PUSH1 0xA0 SHL SUB AND PUSH4 0x8214F5A4 PUSH1 0x40 MLOAD DUP2 PUSH4 0xFFFFFFFF AND PUSH1 0xE0 SHL DUP2 MSTORE PUSH1 0x4 ADD PUSH1 0x20 PUSH1 0x40 MLOAD DUP1 DUP4 SUB DUP2 DUP7 DUP1 EXTCODESIZE ISZERO DUP1 ISZERO PUSH2 0xEA6 JUMPI PUSH1 0x0 DUP1 REVERT JUMPDEST POP GAS STATICCALL ISZERO DUP1 ISZERO PUSH2 0xEBA JUMPI RETURNDATASIZE PUSH1 0x0 DUP1 RETURNDATACOPY RETURNDATASIZE PUSH1 0x0 REVERT JUMPDEST POP POP POP POP PUSH1 0x40 MLOAD RETURNDATASIZE PUSH1 0x1F NOT PUSH1 0x1F DUP3 ADD AND DUP3 ADD DUP1 PUSH1 0x40 MSTORE POP DUP2 ADD SWAP1 PUSH2 0xEDE SWAP2 SWAP1 PUSH2 0x2AE5 JUMP JUMPDEST SWAP1 POP PUSH1 0x0 DUP1 PUSH2 0xEEE PUSH1 0x12 DUP5 PUSH2 0x209A JUMP JUMPDEST SWAP2 POP SWAP2 POP DUP2 DUP1 ISZERO PUSH2 0xF10 JUMPI POP DUP1 PUSH1 0x1 PUSH1 0x1 PUSH1 0xA0 SHL SUB AND DUP6 PUSH1 0x1 PUSH1 0x1 PUSH1 0xA0 SHL SUB AND EQ JUMPDEST SWAP6 SWAP5 POP POP POP POP POP JUMP JUMPDEST PUSH1 0x60 PUSH2 0x638 PUSH1 0xE PUSH2 0x1E8A JUMP JUMPDEST PUSH1 0x0 PUSH2 0x656 PUSH1 0xE DUP4 PUSH2 0x20EB JUMP JUMPDEST PUSH1 0x0 PUSH2 0x656 PUSH1 0x10 DUP4 PUSH2 0x20EB JUMP JUMPDEST PUSH1 0x0 PUSH2 0xF49 PUSH2 0x1E71 JUMP JUMPDEST PUSH1 0x40 MLOAD PUSH4 0x24745215 PUSH1 0xE2 SHL DUP2 MSTORE PUSH10 0x676F7665726E616E6365 PUSH1 0xB0 SHL PUSH1 0x4 DUP3 ADD MSTORE CALLER PUSH1 0x24 DUP3 ADD MSTORE PUSH1 0x1 PUSH1 0x1 PUSH1 0xA0 SHL SUB SWAP2 SWAP1 SWAP2 AND SWAP1 PUSH4 0x91D14854 SWAP1 PUSH1 0x44 ADD PUSH1 0x20 PUSH1 0x40 MLOAD DUP1 DUP4 SUB DUP2 DUP7 DUP1 EXTCODESIZE ISZERO DUP1 ISZERO PUSH2 0xF9D JUMPI PUSH1 0x0 DUP1 REVERT JUMPDEST POP GAS STATICCALL ISZERO DUP1 ISZERO PUSH2 0xFB1 JUMPI RETURNDATASIZE PUSH1 0x0 DUP1 RETURNDATACOPY RETURNDATASIZE PUSH1 0x0 REVERT JUMPDEST POP POP POP POP PUSH1 0x40 MLOAD RETURNDATASIZE PUSH1 0x1F NOT PUSH1 0x1F DUP3 ADD AND DUP3 ADD DUP1 PUSH1 0x40 MSTORE POP DUP2 ADD SWAP1 PUSH2 0xFD5 SWAP2 SWAP1 PUSH2 0x2A73 JUMP JUMPDEST PUSH1 0x40 MLOAD DUP1 PUSH1 0x40 ADD PUSH1 0x40 MSTORE DUP1 PUSH1 0x13 DUP2 MSTORE PUSH1 0x20 ADD PUSH1 0x0 DUP1 MLOAD PUSH1 0x20 PUSH2 0x2BD0 DUP4 CODECOPY DUP2 MLOAD SWAP2 MSTORE DUP2 MSTORE POP SWAP1 PUSH2 0x1017 JUMPI PUSH1 0x40 MLOAD PUSH3 0x461BCD PUSH1 0xE5 SHL DUP2 MSTORE PUSH1 0x4 ADD PUSH2 0x73F SWAP2 SWAP1 PUSH2 0x2A90 JUMP JUMPDEST POP PUSH2 0x1023 PUSH1 0x9 DUP4 PUSH2 0x20EB JUMP JUMPDEST ISZERO PUSH1 0x40 MLOAD DUP1 PUSH1 0x40 ADD PUSH1 0x40 MSTORE DUP1 PUSH1 0x1B DUP2 MSTORE PUSH1 0x20 ADD PUSH32 0x6164647265737320616C72656164792077686974656C69737465640000000000 DUP2 MSTORE POP SWAP1 PUSH2 0x1078 JUMPI PUSH1 0x40 MLOAD PUSH3 0x461BCD PUSH1 0xE5 SHL DUP2 MSTORE PUSH1 0x4 ADD PUSH2 0x73F SWAP2 SWAP1 PUSH2 0x2A90 JUMP JUMPDEST POP PUSH2 0x1084 PUSH1 0x9 DUP4 PUSH2 0x1FC7 JUMP JUMPDEST POP PUSH1 0x1 SWAP3 SWAP2 POP POP JUMP JUMPDEST PUSH1 0x0 DUP1 PUSH2 0x109B PUSH1 0x6 DUP5 PUSH2 0x209A JUMP JUMPDEST SWAP2 POP SWAP2 POP SWAP2 POP SWAP2 JUMP JUMPDEST PUSH2 0x10AC PUSH2 0x1E71 JUMP JUMPDEST PUSH1 0x40 MLOAD PUSH4 0x24745215 PUSH1 0xE2 SHL DUP2 MSTORE PUSH10 0x676F7665726E616E6365 PUSH1 0xB0 SHL PUSH1 0x4 DUP3 ADD MSTORE CALLER PUSH1 0x24 DUP3 ADD MSTORE PUSH1 0x1 PUSH1 0x1 PUSH1 0xA0 SHL SUB SWAP2 SWAP1 SWAP2 AND SWAP1 PUSH4 0x91D14854 SWAP1 PUSH1 0x44 ADD PUSH1 0x20 PUSH1 0x40 MLOAD DUP1 DUP4 SUB DUP2 DUP7 DUP1 EXTCODESIZE ISZERO DUP1 ISZERO PUSH2 0x1100 JUMPI PUSH1 0x0 DUP1 REVERT JUMPDEST POP GAS STATICCALL ISZERO DUP1 ISZERO PUSH2 0x1114 JUMPI RETURNDATASIZE PUSH1 0x0 DUP1 RETURNDATACOPY RETURNDATASIZE PUSH1 0x0 REVERT JUMPDEST POP POP POP POP PUSH1 0x40 MLOAD RETURNDATASIZE PUSH1 0x1F NOT PUSH1 0x1F DUP3 ADD AND DUP3 ADD DUP1 PUSH1 0x40 MSTORE POP DUP2 ADD SWAP1 PUSH2 0x1138 SWAP2 SWAP1 PUSH2 0x2A73 JUMP JUMPDEST PUSH1 0x40 MLOAD DUP1 PUSH1 0x40 ADD PUSH1 0x40 MSTORE DUP1 PUSH1 0x13 DUP2 MSTORE PUSH1 0x20 ADD PUSH1 0x0 DUP1 MLOAD PUSH1 0x20 PUSH2 0x2BD0 DUP4 CODECOPY DUP2 MLOAD SWAP2 MSTORE DUP2 MSTORE POP SWAP1 PUSH2 0x117A JUMPI PUSH1 0x40 MLOAD PUSH3 0x461BCD PUSH1 0xE5 SHL DUP2 MSTORE PUSH1 0x4 ADD PUSH2 0x73F SWAP2 SWAP1 PUSH2 0x2A90 JUMP JUMPDEST POP PUSH1 0x40 DUP1 MLOAD DUP1 DUP3 ADD SWAP1 SWAP2 MSTORE DUP2 ISZERO ISZERO DUP2 MSTORE PUSH1 0x0 PUSH1 0x20 DUP3 ADD MSTORE PUSH2 0x119C DUP5 DUP5 DUP4 PUSH2 0x1F4A JUMP JUMPDEST POP POP POP POP JUMP JUMPDEST PUSH1 0x60 PUSH2 0x638 PUSH1 0x6 PUSH2 0x210D JUMP JUMPDEST PUSH1 0x40 DUP1 MLOAD DUP1 DUP3 ADD SWAP1 SWAP2 MSTORE PUSH1 0x0 DUP1 DUP3 MSTORE PUSH1 0x20 DUP3 ADD MSTORE PUSH1 0x0 DUP1 PUSH2 0x11D0 PUSH1 0xB DUP6 PUSH2 0x21B4 JUMP JUMPDEST SWAP2 POP SWAP2 POP DUP2 PUSH1 0x40 MLOAD DUP1 PUSH1 0x40 ADD PUSH1 0x40 MSTORE DUP1 PUSH1 0x16 DUP2 MSTORE PUSH1 0x20 ADD PUSH22 0x1859191C995CDCC8191BD95CC81B9BDD08195E1A5CDD PUSH1 0x52 SHL DUP2 MSTORE POP SWAP1 PUSH2 0x1222 JUMPI PUSH1 0x40 MLOAD PUSH3 0x461BCD PUSH1 0xE5 SHL DUP2 MSTORE PUSH1 0x4 ADD PUSH2 0x73F SWAP2 SWAP1 PUSH2 0x2A90 JUMP JUMPDEST POP PUSH1 0x40 DUP1 MLOAD DUP1 DUP3 ADD DUP3 MSTORE PUSH1 0x0 DUP1 DUP3 MSTORE PUSH1 0x20 SWAP2 DUP3 ADD MSTORE DUP2 MLOAD DUP1 DUP4 ADD SWAP1 SWAP3 MSTORE PUSH1 0x1 DUP1 DUP5 AND DUP2 EQ DUP4 MSTORE DUP4 DUP2 SHR DUP2 AND EQ SWAP1 DUP3 ADD MSTORE PUSH2 0xE55 JUMP JUMPDEST PUSH1 0x60 PUSH2 0x638 PUSH1 0xB PUSH2 0x21C3 JUMP JUMPDEST PUSH1 0x0 PUSH2 0x656 PUSH1 0x9 DUP4 PUSH2 0x20EB JUMP JUMPDEST PUSH1 0x0 PUSH2 0x638 PUSH1 0x10 PUSH2 0x225D JUMP JUMPDEST PUSH2 0x1288 DUP3 DUP3 PUSH1 0x0 PUSH2 0x10A4 JUMP JUMPDEST POP POP JUMP JUMPDEST PUSH1 0x0 PUSH2 0x638 PUSH1 0x12 PUSH2 0x2267 JUMP JUMPDEST PUSH1 0x0 DUP1 PUSH2 0x12A4 DUP4 PUSH2 0x11AE JUMP JUMPDEST SWAP1 POP DUP1 PUSH1 0x20 ADD MLOAD ISZERO PUSH1 0x40 MLOAD DUP1 PUSH1 0x40 ADD PUSH1 0x40 MSTORE DUP1 PUSH1 0x11 DUP2 MSTORE PUSH1 0x20 ADD PUSH17 0x30B2323932B9B99034B990333937BD32B7 PUSH1 0x79 SHL DUP2 MSTORE POP SWAP1 PUSH2 0x12F4 JUMPI PUSH1 0x40 MLOAD PUSH3 0x461BCD PUSH1 0xE5 SHL DUP2 MSTORE PUSH1 0x4 ADD PUSH2 0x73F SWAP2 SWAP1 PUSH2 0x2A90 JUMP JUMPDEST POP PUSH2 0xC22 DUP4 PUSH2 0x2272 JUMP JUMPDEST PUSH1 0x0 DUP1 DUP1 PUSH2 0x130D PUSH1 0x6 DUP6 PUSH2 0x209A JUMP JUMPDEST SWAP2 POP SWAP2 POP DUP2 DUP1 ISZERO PUSH2 0xF10 JUMPI POP DUP5 PUSH1 0x1 PUSH1 0x1 PUSH1 0xA0 SHL SUB AND DUP2 PUSH1 0x1 PUSH1 0x1 PUSH1 0xA0 SHL SUB AND EQ SWAP6 SWAP5 POP POP POP POP POP JUMP JUMPDEST PUSH1 0x0 PUSH10 0x31B7B73A3937B63632B9 PUSH1 0xB1 SHL PUSH2 0x134F PUSH2 0x1E71 JUMP JUMPDEST PUSH1 0x40 MLOAD PUSH4 0x24745215 PUSH1 0xE2 SHL DUP2 MSTORE PUSH1 0x4 DUP2 ADD DUP4 SWAP1 MSTORE CALLER PUSH1 0x24 DUP3 ADD MSTORE PUSH1 0x1 PUSH1 0x1 PUSH1 0xA0 SHL SUB SWAP2 SWAP1 SWAP2 AND SWAP1 PUSH4 0x91D14854 SWAP1 PUSH1 0x44 ADD PUSH1 0x20 PUSH1 0x40 MLOAD DUP1 DUP4 SUB DUP2 DUP7 DUP1 EXTCODESIZE ISZERO DUP1 ISZERO PUSH2 0x1397 JUMPI PUSH1 0x0 DUP1 REVERT JUMPDEST POP GAS STATICCALL ISZERO DUP1 ISZERO PUSH2 0x13AB JUMPI RETURNDATASIZE PUSH1 0x0 DUP1 RETURNDATACOPY RETURNDATASIZE PUSH1 0x0 REVERT JUMPDEST POP POP POP POP PUSH1 0x40 MLOAD RETURNDATASIZE PUSH1 0x1F NOT PUSH1 0x1F DUP3 ADD AND DUP3 ADD DUP1 PUSH1 0x40 MSTORE POP DUP2 ADD SWAP1 PUSH2 0x13CF SWAP2 SWAP1 PUSH2 0x2A73 JUMP JUMPDEST PUSH1 0x40 MLOAD DUP1 PUSH1 0x40 ADD PUSH1 0x40 MSTORE DUP1 PUSH1 0x13 DUP2 MSTORE PUSH1 0x20 ADD PUSH1 0x0 DUP1 MLOAD PUSH1 0x20 PUSH2 0x2BD0 DUP4 CODECOPY DUP2 MLOAD SWAP2 MSTORE DUP2 MSTORE POP SWAP1 PUSH2 0x1411 JUMPI PUSH1 0x40 MLOAD PUSH3 0x461BCD PUSH1 0xE5 SHL DUP2 MSTORE PUSH1 0x4 ADD PUSH2 0x73F SWAP2 SWAP1 PUSH2 0x2A90 JUMP JUMPDEST POP PUSH1 0x0 DUP4 PUSH1 0x1 PUSH1 0x1 PUSH1 0xA0 SHL SUB AND PUSH4 0x21DF0DA7 PUSH1 0x40 MLOAD DUP2 PUSH4 0xFFFFFFFF AND PUSH1 0xE0 SHL DUP2 MSTORE PUSH1 0x4 ADD PUSH1 0x20 PUSH1 0x40 MLOAD DUP1 DUP4 SUB DUP2 DUP7 DUP1 EXTCODESIZE ISZERO DUP1 ISZERO PUSH2 0x144D JUMPI PUSH1 0x0 DUP1 REVERT JUMPDEST POP GAS STATICCALL ISZERO DUP1 ISZERO PUSH2 0x1461 JUMPI RETURNDATASIZE PUSH1 0x0 DUP1 RETURNDATACOPY RETURNDATASIZE PUSH1 0x0 REVERT JUMPDEST POP POP POP POP PUSH1 0x40 MLOAD RETURNDATASIZE PUSH1 0x1F NOT PUSH1 0x1F DUP3 ADD AND DUP3 ADD DUP1 PUSH1 0x40 MSTORE POP DUP2 ADD SWAP1 PUSH2 0x1485 SWAP2 SWAP1 PUSH2 0x2AE5 JUMP JUMPDEST PUSH1 0x40 DUP1 MLOAD DUP1 DUP3 ADD SWAP1 SWAP2 MSTORE PUSH1 0x18 DUP2 MSTORE PUSH24 0x1E995C9BC81859191C995CDCC81B9BDD08185B1B1BDDD959 PUSH1 0x42 SHL PUSH1 0x20 DUP3 ADD MSTORE SWAP1 SWAP2 POP PUSH1 0x1 PUSH1 0x1 PUSH1 0xA0 SHL SUB DUP3 AND PUSH2 0x14DE JUMPI PUSH1 0x40 MLOAD PUSH3 0x461BCD PUSH1 0xE5 SHL DUP2 MSTORE PUSH1 0x4 ADD PUSH2 0x73F SWAP2 SWAP1 PUSH2 0x2A90 JUMP JUMPDEST POP PUSH2 0x14EA PUSH1 0x6 DUP3 PUSH2 0x22A6 JUMP JUMPDEST ISZERO PUSH1 0x40 MLOAD DUP1 PUSH1 0x60 ADD PUSH1 0x40 MSTORE DUP1 PUSH1 0x2B DUP2 MSTORE PUSH1 0x20 ADD PUSH2 0x2BA5 PUSH1 0x2B SWAP2 CODECOPY SWAP1 PUSH2 0x1522 JUMPI PUSH1 0x40 MLOAD PUSH3 0x461BCD PUSH1 0xE5 SHL DUP2 MSTORE PUSH1 0x4 ADD PUSH2 0x73F SWAP2 SWAP1 PUSH2 0x2A90 JUMP JUMPDEST POP PUSH2 0x152F PUSH1 0x6 DUP3 DUP7 PUSH2 0x22BB JUMP JUMPDEST POP PUSH1 0x40 MLOAD PUSH1 0x1 PUSH1 0x1 PUSH1 0xA0 SHL SUB DUP6 AND SWAP1 PUSH32 0x90155492BE7A3762B22FB2AB49DC404AEED6CBB42373E85859EBA75F6D1CE7DE SWAP1 PUSH1 0x0 SWAP1 LOG2 POP PUSH1 0x1 SWAP4 SWAP3 POP POP POP JUMP JUMPDEST PUSH1 0x0 SLOAD PUSH2 0x100 SWAP1 DIV PUSH1 0xFF AND PUSH2 0x1589 JUMPI PUSH1 0x0 SLOAD PUSH1 0xFF AND ISZERO PUSH2 0x158D JUMP JUMPDEST ADDRESS EXTCODESIZE ISZERO JUMPDEST PUSH2 0x15F0 JUMPI PUSH1 0x40 MLOAD PUSH3 0x461BCD PUSH1 0xE5 SHL DUP2 MSTORE PUSH1 0x20 PUSH1 0x4 DUP3 ADD MSTORE PUSH1 0x2E PUSH1 0x24 DUP3 ADD MSTORE PUSH32 0x496E697469616C697A61626C653A20636F6E747261637420697320616C726561 PUSH1 0x44 DUP3 ADD MSTORE PUSH14 0x191E481A5B9A5D1A585B1A5E9959 PUSH1 0x92 SHL PUSH1 0x64 DUP3 ADD MSTORE PUSH1 0x84 ADD PUSH2 0x73F JUMP JUMPDEST PUSH1 0x0 SLOAD PUSH2 0x100 SWAP1 DIV PUSH1 0xFF AND ISZERO DUP1 ISZERO PUSH2 0x1612 JUMPI PUSH1 0x0 DUP1 SLOAD PUSH2 0xFFFF NOT AND PUSH2 0x101 OR SWAP1 SSTORE JUMPDEST PUSH1 0x40 DUP1 MLOAD DUP1 DUP3 ADD SWAP1 SWAP2 MSTORE PUSH1 0x1 DUP1 DUP3 MSTORE PUSH1 0x20 DUP3 ADD MSTORE PUSH2 0x164A PUSH11 0x3937B632A6B0B730B3B2B9 PUSH1 0xA9 SHL PUSH2 0x1641 DUP4 PUSH2 0x1E1E JUMP JUMPDEST PUSH1 0xB SWAP2 SWAP1 PUSH2 0x1E58 JUMP JUMPDEST POP PUSH2 0x1663 PUSH11 0x3937B632A6B0B730B3B2B9 PUSH1 0xA9 SHL DUP5 PUSH2 0x22D4 JUMP JUMPDEST POP POP DUP1 ISZERO PUSH2 0x1288 JUMPI PUSH1 0x0 DUP1 SLOAD PUSH2 0xFF00 NOT AND SWAP1 SSTORE POP POP JUMP JUMPDEST PUSH1 0x60 PUSH2 0x638 PUSH1 0x12 PUSH2 0x210D JUMP JUMPDEST PUSH1 0x0 PUSH2 0x1690 PUSH2 0x1E71 JUMP JUMPDEST PUSH1 0x40 MLOAD PUSH4 0x24745215 PUSH1 0xE2 SHL DUP2 MSTORE PUSH10 0x676F7665726E616E6365 PUSH1 0xB0 SHL PUSH1 0x4 DUP3 ADD MSTORE CALLER PUSH1 0x24 DUP3 ADD MSTORE PUSH1 0x1 PUSH1 0x1 PUSH1 0xA0 SHL SUB SWAP2 SWAP1 SWAP2 AND SWAP1 PUSH4 0x91D14854 SWAP1 PUSH1 0x44 ADD PUSH1 0x20 PUSH1 0x40 MLOAD DUP1 DUP4 SUB DUP2 DUP7 DUP1 EXTCODESIZE ISZERO DUP1 ISZERO PUSH2 0x16E4 JUMPI PUSH1 0x0 DUP1 REVERT JUMPDEST POP GAS STATICCALL ISZERO DUP1 ISZERO PUSH2 0x16F8 JUMPI RETURNDATASIZE PUSH1 0x0 DUP1 RETURNDATACOPY RETURNDATASIZE PUSH1 0x0 REVERT JUMPDEST POP POP POP POP PUSH1 0x40 MLOAD RETURNDATASIZE PUSH1 0x1F NOT PUSH1 0x1F DUP3 ADD AND DUP3 ADD DUP1 PUSH1 0x40 MSTORE POP DUP2 ADD SWAP1 PUSH2 0x171C SWAP2 SWAP1 PUSH2 0x2A73 JUMP JUMPDEST PUSH1 0x40 MLOAD DUP1 PUSH1 0x40 ADD PUSH1 0x40 MSTORE DUP1 PUSH1 0x13 DUP2 MSTORE PUSH1 0x20 ADD PUSH1 0x0 DUP1 MLOAD PUSH1 0x20 PUSH2 0x2BD0 DUP4 CODECOPY DUP2 MLOAD SWAP2 MSTORE DUP2 MSTORE POP SWAP1 PUSH2 0x175E JUMPI PUSH1 0x40 MLOAD PUSH3 0x461BCD PUSH1 0xE5 SHL DUP2 MSTORE PUSH1 0x4 ADD PUSH2 0x73F SWAP2 SWAP1 PUSH2 0x2A90 JUMP JUMPDEST POP PUSH2 0x176A PUSH1 0x9 DUP4 PUSH2 0x20EB JUMP JUMPDEST PUSH1 0x40 MLOAD DUP1 PUSH1 0x40 ADD PUSH1 0x40 MSTORE DUP1 PUSH1 0x17 DUP2 MSTORE PUSH1 0x20 ADD PUSH32 0x61646472657373206E6F742077686974656C6973746564000000000000000000 DUP2 MSTORE POP SWAP1 PUSH2 0x17BE JUMPI PUSH1 0x40 MLOAD PUSH3 0x461BCD PUSH1 0xE5 SHL DUP2 MSTORE PUSH1 0x4 ADD PUSH2 0x73F SWAP2 SWAP1 PUSH2 0x2A90 JUMP JUMPDEST POP PUSH2 0x1084 PUSH1 0x9 DUP4 PUSH2 0x1FB2 JUMP JUMPDEST PUSH12 0x706F6F6C5F666163746F7279 PUSH1 0xA0 SHL PUSH10 0x676F7665726E616E6365 PUSH1 0xB0 SHL PUSH2 0x17F0 PUSH2 0x1E71 JUMP JUMPDEST PUSH1 0x40 MLOAD PUSH4 0x6BAB5211 PUSH1 0xE1 SHL DUP2 MSTORE PUSH1 0x4 DUP2 ADD DUP5 SWAP1 MSTORE PUSH1 0x24 DUP2 ADD DUP4 SWAP1 MSTORE CALLER PUSH1 0x44 DUP3 ADD MSTORE PUSH1 0x1 PUSH1 0x1 PUSH1 0xA0 SHL SUB SWAP2 SWAP1 SWAP2 AND SWAP1 PUSH4 0xD756A422 SWAP1 PUSH1 0x64 ADD PUSH1 0x20 PUSH1 0x40 MLOAD DUP1 DUP4 SUB DUP2 DUP7 DUP1 EXTCODESIZE ISZERO DUP1 ISZERO PUSH2 0x183F JUMPI PUSH1 0x0 DUP1 REVERT JUMPDEST POP GAS STATICCALL ISZERO DUP1 ISZERO PUSH2 0x1853 JUMPI RETURNDATASIZE PUSH1 0x0 DUP1 RETURNDATACOPY RETURNDATASIZE PUSH1 0x0 REVERT JUMPDEST POP POP POP POP PUSH1 0x40 MLOAD RETURNDATASIZE PUSH1 0x1F NOT PUSH1 0x1F DUP3 ADD AND DUP3 ADD DUP1 PUSH1 0x40 MSTORE POP DUP2 ADD SWAP1 PUSH2 0x1877 SWAP2 SWAP1 PUSH2 0x2A73 JUMP JUMPDEST PUSH1 0x40 MLOAD DUP1 PUSH1 0x40 ADD PUSH1 0x40 MSTORE DUP1 PUSH1 0x13 DUP2 MSTORE PUSH1 0x20 ADD PUSH1 0x0 DUP1 MLOAD PUSH1 0x20 PUSH2 0x2BD0 DUP4 CODECOPY DUP2 MLOAD SWAP2 MSTORE DUP2 MSTORE POP SWAP1 PUSH2 0x18B9 JUMPI PUSH1 0x40 MLOAD PUSH3 0x461BCD PUSH1 0xE5 SHL DUP2 MSTORE PUSH1 0x4 ADD PUSH2 0x73F SWAP2 SWAP1 PUSH2 0x2A90 JUMP JUMPDEST POP PUSH1 0x40 DUP1 MLOAD DUP1 DUP3 ADD SWAP1 SWAP2 MSTORE PUSH1 0x18 DUP2 MSTORE PUSH24 0x1E995C9BC81859191C995CDCC81B9BDD08185B1B1BDDD959 PUSH1 0x42 SHL PUSH1 0x20 DUP3 ADD MSTORE PUSH1 0x1 PUSH1 0x1 PUSH1 0xA0 SHL SUB DUP5 AND PUSH2 0x1910 JUMPI PUSH1 0x40 MLOAD PUSH3 0x461BCD PUSH1 0xE5 SHL DUP2 MSTORE PUSH1 0x4 ADD PUSH2 0x73F SWAP2 SWAP1 PUSH2 0x2A90 JUMP JUMPDEST POP PUSH1 0x0 DUP4 SWAP1 POP PUSH1 0x0 DUP2 PUSH1 0x1 PUSH1 0x1 PUSH1 0xA0 SHL SUB AND PUSH4 0x8214F5A4 PUSH1 0x40 MLOAD DUP2 PUSH4 0xFFFFFFFF AND PUSH1 0xE0 SHL DUP2 MSTORE PUSH1 0x4 ADD PUSH1 0x20 PUSH1 0x40 MLOAD DUP1 DUP4 SUB DUP2 DUP7 DUP1 EXTCODESIZE ISZERO DUP1 ISZERO PUSH2 0x1951 JUMPI PUSH1 0x0 DUP1 REVERT JUMPDEST POP GAS STATICCALL ISZERO DUP1 ISZERO PUSH2 0x1965 JUMPI RETURNDATASIZE PUSH1 0x0 DUP1 RETURNDATACOPY RETURNDATASIZE PUSH1 0x0 REVERT JUMPDEST POP POP POP POP PUSH1 0x40 MLOAD RETURNDATASIZE PUSH1 0x1F NOT PUSH1 0x1F DUP3 ADD AND DUP3 ADD DUP1 PUSH1 0x40 MSTORE POP DUP2 ADD SWAP1 PUSH2 0x1989 SWAP2 SWAP1 PUSH2 0x2AE5 JUMP JUMPDEST PUSH1 0x40 DUP1 MLOAD DUP1 DUP3 ADD SWAP1 SWAP2 MSTORE PUSH1 0x18 DUP2 MSTORE PUSH24 0x1E995C9BC81859191C995CDCC81B9BDD08185B1B1BDDD959 PUSH1 0x42 SHL PUSH1 0x20 DUP3 ADD MSTORE SWAP1 SWAP2 POP PUSH1 0x1 PUSH1 0x1 PUSH1 0xA0 SHL SUB DUP3 AND PUSH2 0x19E2 JUMPI PUSH1 0x40 MLOAD PUSH3 0x461BCD PUSH1 0xE5 SHL DUP2 MSTORE PUSH1 0x4 ADD PUSH2 0x73F SWAP2 SWAP1 PUSH2 0x2A90 JUMP JUMPDEST POP PUSH2 0x19EF PUSH1 0x12 DUP3 DUP8 PUSH2 0x22BB JUMP JUMPDEST ISZERO PUSH2 0x1ABB JUMPI PUSH1 0x0 DUP3 PUSH1 0x1 PUSH1 0x1 PUSH1 0xA0 SHL SUB AND PUSH4 0x8D928AF8 PUSH1 0x40 MLOAD DUP2 PUSH4 0xFFFFFFFF AND PUSH1 0xE0 SHL DUP2 MSTORE PUSH1 0x4 ADD PUSH1 0x20 PUSH1 0x40 MLOAD DUP1 DUP4 SUB DUP2 DUP7 DUP1 EXTCODESIZE ISZERO DUP1 ISZERO PUSH2 0x1A2F JUMPI PUSH1 0x0 DUP1 REVERT JUMPDEST POP GAS STATICCALL ISZERO DUP1 ISZERO PUSH2 0x1A43 JUMPI RETURNDATASIZE PUSH1 0x0 DUP1 RETURNDATACOPY RETURNDATASIZE PUSH1 0x0 REVERT JUMPDEST POP POP POP POP PUSH1 0x40 MLOAD RETURNDATASIZE PUSH1 0x1F NOT PUSH1 0x1F DUP3 ADD AND DUP3 ADD DUP1 PUSH1 0x40 MSTORE POP DUP2 ADD SWAP1 PUSH2 0x1A67 SWAP2 SWAP1 PUSH2 0x2AE5 JUMP JUMPDEST SWAP1 POP PUSH1 0x1 PUSH1 0x1 PUSH1 0xA0 SHL SUB DUP2 AND ISZERO PUSH2 0x1A85 JUMPI PUSH2 0x1A83 PUSH1 0x10 DUP3 PUSH2 0x1FC7 JUMP JUMPDEST POP JUMPDEST PUSH1 0x40 MLOAD PUSH1 0x1 PUSH1 0x1 PUSH1 0xA0 SHL SUB DUP8 AND SWAP1 PUSH32 0xB6C7DEF82CF7E1EA091F2BE573CECCF2FC51D7A7CF49B7E8575A477D72CA4423 SWAP1 PUSH1 0x0 SWAP1 LOG2 POP JUMPDEST POP POP POP POP POP JUMP JUMPDEST PUSH1 0x0 DUP2 ISZERO DUP1 PUSH2 0x1AD7 JUMPI POP PUSH2 0x1AD7 PUSH1 0xB DUP5 PUSH2 0x1FDC JUMP JUMPDEST PUSH1 0x40 MLOAD DUP1 PUSH1 0x40 ADD PUSH1 0x40 MSTORE DUP1 PUSH1 0x16 DUP2 MSTORE PUSH1 0x20 ADD PUSH22 0x1859191C995CDCC8191BD95CC81B9BDD08195E1A5CDD PUSH1 0x52 SHL DUP2 MSTORE POP SWAP1 PUSH2 0x1B24 JUMPI PUSH1 0x40 MLOAD PUSH3 0x461BCD PUSH1 0xE5 SHL DUP2 MSTORE PUSH1 0x4 ADD PUSH2 0x73F SWAP2 SWAP1 PUSH2 0x2A90 JUMP JUMPDEST POP POP POP PUSH1 0x0 SWAP1 DUP2 MSTORE PUSH1 0x3 PUSH1 0x20 MSTORE PUSH1 0x40 SWAP1 KECCAK256 SLOAD PUSH1 0x1 PUSH1 0x1 PUSH1 0xA0 SHL SUB AND SWAP1 JUMP JUMPDEST PUSH2 0x1B4A PUSH2 0x1E71 JUMP JUMPDEST PUSH1 0x40 MLOAD PUSH4 0x24745215 PUSH1 0xE2 SHL DUP2 MSTORE PUSH10 0x676F7665726E616E6365 PUSH1 0xB0 SHL PUSH1 0x4 DUP3 ADD MSTORE CALLER PUSH1 0x24 DUP3 ADD MSTORE PUSH1 0x1 PUSH1 0x1 PUSH1 0xA0 SHL SUB SWAP2 SWAP1 SWAP2 AND SWAP1 PUSH4 0x91D14854 SWAP1 PUSH1 0x44 ADD PUSH1 0x20 PUSH1 0x40 MLOAD DUP1 DUP4 SUB DUP2 DUP7 DUP1 EXTCODESIZE ISZERO DUP1 ISZERO PUSH2 0x1B9E JUMPI PUSH1 0x0 DUP1 REVERT JUMPDEST POP GAS STATICCALL ISZERO DUP1 ISZERO PUSH2 0x1BB2 JUMPI RETURNDATASIZE PUSH1 0x0 DUP1 RETURNDATACOPY RETURNDATASIZE PUSH1 0x0 REVERT JUMPDEST POP POP POP POP PUSH1 0x40 MLOAD RETURNDATASIZE PUSH1 0x1F NOT PUSH1 0x1F DUP3 ADD AND DUP3 ADD DUP1 PUSH1 0x40 MSTORE POP DUP2 ADD SWAP1 PUSH2 0x1BD6 SWAP2 SWAP1 PUSH2 0x2A73 JUMP JUMPDEST PUSH1 0x40 MLOAD DUP1 PUSH1 0x40 ADD PUSH1 0x40 MSTORE DUP1 PUSH1 0x13 DUP2 MSTORE PUSH1 0x20 ADD PUSH1 0x0 DUP1 MLOAD PUSH1 0x20 PUSH2 0x2BD0 DUP4 CODECOPY DUP2 MLOAD SWAP2 MSTORE DUP2 MSTORE POP SWAP1 PUSH2 0x1C18 JUMPI PUSH1 0x40 MLOAD PUSH3 0x461BCD PUSH1 0xE5 SHL DUP2 MSTORE PUSH1 0x4 ADD PUSH2 0x73F SWAP2 SWAP1 PUSH2 0x2A90 JUMP JUMPDEST POP PUSH1 0x0 PUSH2 0x1C24 DUP3 PUSH2 0x11AE JUMP JUMPDEST SWAP1 POP DUP1 PUSH1 0x20 ADD MLOAD ISZERO PUSH1 0x40 MLOAD DUP1 PUSH1 0x40 ADD PUSH1 0x40 MSTORE DUP1 PUSH1 0x11 DUP2 MSTORE PUSH1 0x20 ADD PUSH17 0x30B2323932B9B99034B990333937BD32B7 PUSH1 0x79 SHL DUP2 MSTORE POP SWAP1 PUSH2 0x1C74 JUMPI PUSH1 0x40 MLOAD PUSH3 0x461BCD PUSH1 0xE5 SHL DUP2 MSTORE PUSH1 0x4 ADD PUSH2 0x73F SWAP2 SWAP1 PUSH2 0x2A90 JUMP JUMPDEST POP DUP1 MLOAD PUSH1 0x40 DUP1 MLOAD DUP1 DUP3 ADD SWAP1 SWAP2 MSTORE PUSH1 0x10 DUP2 MSTORE PUSH16 0x1A5B9D985B1A5908185C99DD5B595B9D PUSH1 0x82 SHL PUSH1 0x20 DUP3 ADD MSTORE SWAP1 PUSH2 0x1CBC JUMPI PUSH1 0x40 MLOAD PUSH3 0x461BCD PUSH1 0xE5 SHL DUP2 MSTORE PUSH1 0x4 ADD PUSH2 0x73F SWAP2 SWAP1 PUSH2 0x2A90 JUMP JUMPDEST POP PUSH1 0x1 PUSH1 0x20 DUP3 ADD MSTORE PUSH2 0x768 DUP3 PUSH2 0x1641 DUP4 PUSH2 0x1E1E JUMP JUMPDEST PUSH1 0x0 PUSH2 0x1CDB PUSH2 0x1E71 JUMP JUMPDEST PUSH1 0x40 MLOAD PUSH4 0x24745215 PUSH1 0xE2 SHL DUP2 MSTORE PUSH10 0x676F7665726E616E6365 PUSH1 0xB0 SHL PUSH1 0x4 DUP3 ADD MSTORE CALLER PUSH1 0x24 DUP3 ADD MSTORE PUSH1 0x1 PUSH1 0x1 PUSH1 0xA0 SHL SUB SWAP2 SWAP1 SWAP2 AND SWAP1 PUSH4 0x91D14854 SWAP1 PUSH1 0x44 ADD PUSH1 0x20 PUSH1 0x40 MLOAD DUP1 DUP4 SUB DUP2 DUP7 DUP1 EXTCODESIZE ISZERO DUP1 ISZERO PUSH2 0x1D2F JUMPI PUSH1 0x0 DUP1 REVERT JUMPDEST POP GAS STATICCALL ISZERO DUP1 ISZERO PUSH2 0x1D43 JUMPI RETURNDATASIZE PUSH1 0x0 DUP1 RETURNDATACOPY RETURNDATASIZE PUSH1 0x0 REVERT JUMPDEST POP POP POP POP PUSH1 0x40 MLOAD RETURNDATASIZE PUSH1 0x1F NOT PUSH1 0x1F DUP3 ADD AND DUP3 ADD DUP1 PUSH1 0x40 MSTORE POP DUP2 ADD SWAP1 PUSH2 0x1D67 SWAP2 SWAP1 PUSH2 0x2A73 JUMP JUMPDEST PUSH1 0x40 MLOAD DUP1 PUSH1 0x40 ADD PUSH1 0x40 MSTORE DUP1 PUSH1 0x13 DUP2 MSTORE PUSH1 0x20 ADD PUSH1 0x0 DUP1 MLOAD PUSH1 0x20 PUSH2 0x2BD0 DUP4 CODECOPY DUP2 MLOAD SWAP2 MSTORE DUP2 MSTORE POP SWAP1 PUSH2 0x1DA9 JUMPI PUSH1 0x40 MLOAD PUSH3 0x461BCD PUSH1 0xE5 SHL DUP2 MSTORE PUSH1 0x4 ADD PUSH2 0x73F SWAP2 SWAP1 PUSH2 0x2A90 JUMP JUMPDEST POP PUSH1 0x0 PUSH2 0x1DB5 DUP5 PUSH2 0x11AE JUMP JUMPDEST SWAP1 POP DUP1 PUSH1 0x20 ADD MLOAD ISZERO PUSH1 0x40 MLOAD DUP1 PUSH1 0x40 ADD PUSH1 0x40 MSTORE DUP1 PUSH1 0x11 DUP2 MSTORE PUSH1 0x20 ADD PUSH17 0x30B2323932B9B99034B990333937BD32B7 PUSH1 0x79 SHL DUP2 MSTORE POP SWAP1 PUSH2 0x1E05 JUMPI PUSH1 0x40 MLOAD PUSH3 0x461BCD PUSH1 0xE5 SHL DUP2 MSTORE PUSH1 0x4 ADD PUSH2 0x73F SWAP2 SWAP1 PUSH2 0x2A90 JUMP JUMPDEST POP PUSH2 0xE55 DUP5 DUP5 PUSH2 0x235F JUMP JUMPDEST PUSH1 0x0 DUP1 PUSH2 0xE55 PUSH1 0x12 DUP5 PUSH2 0x209A JUMP JUMPDEST PUSH1 0x0 DUP1 DUP3 PUSH1 0x0 ADD MLOAD PUSH2 0x1E31 JUMPI PUSH1 0x0 PUSH2 0x1E34 JUMP JUMPDEST PUSH1 0x1 JUMPDEST PUSH1 0xFF AND DUP2 OR SWAP1 POP DUP3 PUSH1 0x20 ADD MLOAD PUSH2 0x1E4B JUMPI PUSH1 0x0 PUSH2 0x1E4E JUMP JUMPDEST PUSH1 0x2 JUMPDEST PUSH1 0xFF AND OR SWAP3 SWAP2 POP POP JUMP JUMPDEST PUSH1 0x0 PUSH2 0xE55 DUP5 DUP5 DUP5 PUSH2 0x236F JUMP JUMPDEST PUSH1 0x0 PUSH2 0xC22 DUP4 DUP4 PUSH2 0x238C JUMP JUMPDEST PUSH1 0x0 PUSH2 0x638 PUSH11 0x3937B632A6B0B730B3B2B9 PUSH1 0xA9 SHL PUSH2 0x8BD JUMP JUMPDEST PUSH1 0x60 PUSH1 0x0 PUSH2 0x1E97 DUP4 PUSH2 0x225D JUMP JUMPDEST SWAP1 POP PUSH1 0x0 DUP2 PUSH8 0xFFFFFFFFFFFFFFFF DUP2 GT ISZERO PUSH2 0x1EB4 JUMPI PUSH2 0x1EB4 PUSH2 0x2B02 JUMP JUMPDEST PUSH1 0x40 MLOAD SWAP1 DUP1 DUP3 MSTORE DUP1 PUSH1 0x20 MUL PUSH1 0x20 ADD DUP3 ADD PUSH1 0x40 MSTORE DUP1 ISZERO PUSH2 0x1EDD JUMPI DUP2 PUSH1 0x20 ADD PUSH1 0x20 DUP3 MUL DUP1 CALLDATASIZE DUP4 CALLDATACOPY ADD SWAP1 POP JUMPDEST POP SWAP1 POP PUSH1 0x0 JUMPDEST DUP3 DUP2 LT ISZERO PUSH2 0xB9A JUMPI PUSH2 0x1EF5 DUP6 DUP3 PUSH2 0x1F31 JUMP JUMPDEST DUP3 DUP3 DUP2 MLOAD DUP2 LT PUSH2 0x1F07 JUMPI PUSH2 0x1F07 PUSH2 0x2B18 JUMP JUMPDEST PUSH1 0x1 PUSH1 0x1 PUSH1 0xA0 SHL SUB SWAP1 SWAP3 AND PUSH1 0x20 SWAP3 DUP4 MUL SWAP2 SWAP1 SWAP2 ADD SWAP1 SWAP2 ADD MSTORE DUP1 PUSH2 0x1F29 DUP2 PUSH2 0x2B44 JUMP JUMPDEST SWAP2 POP POP PUSH2 0x1EE3 JUMP JUMPDEST PUSH1 0x0 PUSH2 0xC22 DUP4 DUP4 PUSH2 0x23DB JUMP JUMPDEST PUSH1 0x0 DUP1 PUSH2 0xF10 DUP5 DUP5 PUSH2 0x2405 JUMP JUMPDEST PUSH2 0x1F55 PUSH1 0xB DUP5 PUSH2 0x1FDC JUMP JUMPDEST ISZERO PUSH1 0x40 MLOAD DUP1 PUSH1 0x40 ADD PUSH1 0x40 MSTORE DUP1 PUSH1 0x10 DUP2 MSTORE PUSH1 0x20 ADD PUSH16 0x1A5B9D985B1A5908185C99DD5B595B9D PUSH1 0x82 SHL DUP2 MSTORE POP SWAP1 PUSH2 0x1F9D JUMPI PUSH1 0x40 MLOAD PUSH3 0x461BCD PUSH1 0xE5 SHL DUP2 MSTORE PUSH1 0x4 ADD PUSH2 0x73F SWAP2 SWAP1 PUSH2 0x2A90 JUMP JUMPDEST POP PUSH2 0x1FA8 DUP4 DUP3 PUSH2 0x2414 JUMP JUMPDEST PUSH2 0x119C DUP4 DUP4 PUSH2 0x22D4 JUMP JUMPDEST PUSH1 0x0 PUSH2 0xC22 DUP4 PUSH1 0x1 PUSH1 0x1 PUSH1 0xA0 SHL SUB DUP5 AND PUSH2 0x2498 JUMP JUMPDEST PUSH1 0x0 PUSH2 0xC22 DUP4 PUSH1 0x1 PUSH1 0x1 PUSH1 0xA0 SHL SUB DUP5 AND PUSH2 0x238C JUMP JUMPDEST PUSH1 0x0 PUSH2 0xC22 DUP4 DUP4 PUSH2 0x258B JUMP JUMPDEST PUSH1 0x0 DUP2 DUP2 MSTORE PUSH1 0x5 PUSH1 0x20 SWAP1 DUP2 MSTORE PUSH1 0x40 DUP1 DUP4 KECCAK256 SLOAD DUP2 MLOAD DUP1 DUP4 ADD SWAP1 SWAP3 MSTORE PUSH1 0x12 DUP3 MSTORE PUSH18 0x646561646C696E65206D757374206265203 PUSH1 0x74 SHL SWAP3 DUP3 ADD SWAP3 SWAP1 SWAP3 MSTORE SWAP1 PUSH2 0x2041 JUMPI PUSH1 0x40 MLOAD PUSH3 0x461BCD PUSH1 0xE5 SHL DUP2 MSTORE PUSH1 0x4 ADD PUSH2 0x73F SWAP2 SWAP1 PUSH2 0x2A90 JUMP JUMPDEST POP PUSH1 0x0 DUP3 DUP2 MSTORE PUSH1 0x5 PUSH1 0x20 SWAP1 DUP2 MSTORE PUSH1 0x40 DUP1 DUP4 KECCAK256 DUP4 SWAP1 SSTORE PUSH1 0x1 SWAP1 SWAP2 MSTORE DUP1 DUP3 KECCAK256 DUP1 SLOAD PUSH1 0x1 PUSH1 0x1 PUSH1 0xA0 SHL SUB NOT AND SWAP1 SSTORE MLOAD DUP4 SWAP2 PUSH32 0x90FB84AD67DD037C388289337BB80B61B8605D38BA9A875DC38B5600909D172F SWAP2 LOG2 POP PUSH1 0x1 SWAP2 SWAP1 POP JUMP JUMPDEST PUSH1 0x0 DUP1 DUP1 DUP1 PUSH2 0x20B2 DUP7 PUSH1 0x1 PUSH1 0x1 PUSH1 0xA0 SHL SUB DUP8 AND PUSH2 0x2597 JUMP JUMPDEST SWAP1 SWAP5 POP SWAP3 POP POP POP JUMPDEST SWAP3 POP SWAP3 SWAP1 POP JUMP JUMPDEST PUSH1 0x0 PUSH2 0xC22 DUP4 PUSH1 0x1 PUSH1 0x1 PUSH1 0xA0 SHL SUB DUP5 AND PUSH2 0x25D1 JUMP JUMPDEST PUSH1 0x0 PUSH2 0xC22 DUP4 PUSH1 0x1 PUSH1 0x1 PUSH1 0xA0 SHL SUB DUP5 AND PUSH2 0x25EE JUMP JUMPDEST PUSH1 0x1 PUSH1 0x1 PUSH1 0xA0 SHL SUB DUP2 AND PUSH1 0x0 SWAP1 DUP2 MSTORE PUSH1 0x1 DUP4 ADD PUSH1 0x20 MSTORE PUSH1 0x40 DUP2 KECCAK256 SLOAD ISZERO ISZERO PUSH2 0xC22 JUMP JUMPDEST PUSH1 0x60 PUSH1 0x0 PUSH2 0x211A DUP4 PUSH2 0x2267 JUMP JUMPDEST SWAP1 POP PUSH1 0x0 DUP2 PUSH8 0xFFFFFFFFFFFFFFFF DUP2 GT ISZERO PUSH2 0x2137 JUMPI PUSH2 0x2137 PUSH2 0x2B02 JUMP JUMPDEST PUSH1 0x40 MLOAD SWAP1 DUP1 DUP3 MSTORE DUP1 PUSH1 0x20 MUL PUSH1 0x20 ADD DUP3 ADD PUSH1 0x40 MSTORE DUP1 ISZERO PUSH2 0x2160 JUMPI DUP2 PUSH1 0x20 ADD PUSH1 0x20 DUP3 MUL DUP1 CALLDATASIZE DUP4 CALLDATACOPY ADD SWAP1 POP JUMPDEST POP SWAP1 POP PUSH1 0x0 JUMPDEST DUP3 DUP2 LT ISZERO PUSH2 0xB9A JUMPI PUSH2 0x2178 DUP6 DUP3 PUSH2 0x1F3D JUMP JUMPDEST DUP3 DUP3 DUP2 MLOAD DUP2 LT PUSH2 0x218A JUMPI PUSH2 0x218A PUSH2 0x2B18 JUMP JUMPDEST PUSH1 0x1 PUSH1 0x1 PUSH1 0xA0 SHL SUB SWAP1 SWAP3 AND PUSH1 0x20 SWAP3 DUP4 MUL SWAP2 SWAP1 SWAP2 ADD SWAP1 SWAP2 ADD MSTORE DUP1 PUSH2 0x21AC DUP2 PUSH2 0x2B44 JUMP JUMPDEST SWAP2 POP POP PUSH2 0x2166 JUMP JUMPDEST PUSH1 0x0 DUP1 DUP1 DUP1 PUSH2 0x20B2 DUP7 DUP7 PUSH2 0x2597 JUMP JUMPDEST PUSH1 0x60 PUSH1 0x0 PUSH2 0x21D0 DUP4 PUSH2 0x2267 JUMP JUMPDEST SWAP1 POP PUSH1 0x0 DUP2 PUSH8 0xFFFFFFFFFFFFFFFF DUP2 GT ISZERO PUSH2 0x21ED JUMPI PUSH2 0x21ED PUSH2 0x2B02 JUMP JUMPDEST PUSH1 0x40 MLOAD SWAP1 DUP1 DUP3 MSTORE DUP1 PUSH1 0x20 MUL PUSH1 0x20 ADD DUP3 ADD PUSH1 0x40 MSTORE DUP1 ISZERO PUSH2 0x2216 JUMPI DUP2 PUSH1 0x20 ADD PUSH1 0x20 DUP3 MUL DUP1 CALLDATASIZE DUP4 CALLDATACOPY ADD SWAP1 POP JUMPDEST POP SWAP1 POP PUSH1 0x0 JUMPDEST DUP3 DUP2 LT ISZERO PUSH2 0xB9A JUMPI PUSH2 0x222E DUP6 DUP3 PUSH2 0x265E JUMP JUMPDEST DUP3 DUP3 DUP2 MLOAD DUP2 LT PUSH2 0x2240 JUMPI PUSH2 0x2240 PUSH2 0x2B18 JUMP JUMPDEST PUSH1 0x20 SWAP1 DUP2 MUL SWAP2 SWAP1 SWAP2 ADD ADD MSTORE DUP1 PUSH2 0x2255 DUP2 PUSH2 0x2B44 JUMP JUMPDEST SWAP2 POP POP PUSH2 0x221C JUMP JUMPDEST PUSH1 0x0 PUSH2 0x656 DUP3 SLOAD SWAP1 JUMP JUMPDEST PUSH1 0x0 PUSH2 0x656 DUP3 PUSH2 0x2674 JUMP JUMPDEST PUSH1 0x0 PUSH2 0x227D DUP3 PUSH2 0x267F JUMP JUMPDEST PUSH1 0x0 DUP3 DUP2 MSTORE PUSH1 0x1 PUSH1 0x20 MSTORE PUSH1 0x40 SWAP1 KECCAK256 SLOAD PUSH1 0x1 PUSH1 0x1 PUSH1 0xA0 SHL SUB AND PUSH2 0x229F DUP4 DUP3 PUSH2 0x22D4 JUMP JUMPDEST POP SWAP3 SWAP2 POP POP JUMP JUMPDEST PUSH1 0x0 PUSH2 0xC22 DUP4 PUSH1 0x1 PUSH1 0x1 PUSH1 0xA0 SHL SUB DUP5 AND PUSH2 0x258B JUMP JUMPDEST PUSH1 0x0 PUSH2 0xE55 DUP5 PUSH1 0x1 PUSH1 0x1 PUSH1 0xA0 SHL SUB DUP1 DUP7 AND SWAP1 DUP6 AND PUSH2 0x236F JUMP JUMPDEST PUSH1 0x0 DUP3 DUP2 MSTORE PUSH1 0x3 PUSH1 0x20 SWAP1 DUP2 MSTORE PUSH1 0x40 DUP1 DUP4 KECCAK256 DUP1 SLOAD PUSH1 0x1 PUSH1 0x1 PUSH1 0xA0 SHL SUB NOT DUP1 DUP3 AND PUSH1 0x1 PUSH1 0x1 PUSH1 0xA0 SHL SUB DUP9 DUP2 AND SWAP2 DUP3 OR SWAP1 SWAP5 SSTORE PUSH1 0x1 DUP7 MSTORE DUP5 DUP8 KECCAK256 DUP1 SLOAD SWAP1 SWAP3 AND SWAP1 SWAP2 SSTORE PUSH1 0x5 DUP6 MSTORE DUP4 DUP7 KECCAK256 DUP7 SWAP1 SSTORE DUP4 MLOAD SWAP3 SWAP1 SWAP2 AND DUP1 DUP4 MSTORE SWAP4 DUP3 ADD MSTORE DUP6 SWAP2 PUSH32 0xC4A957706C639829AD54381B04930C464DB6C7FFDC09D2B4B1ACC9EE34FB9261 SWAP2 ADD PUSH1 0x40 MLOAD DUP1 SWAP2 SUB SWAP1 LOG2 POP SWAP1 SWAP3 SWAP2 POP POP JUMP JUMPDEST PUSH1 0x0 PUSH2 0xC22 DUP4 DUP4 PUSH3 0x3F480 PUSH2 0x2728 JUMP JUMPDEST PUSH1 0x0 DUP3 DUP2 MSTORE PUSH1 0x2 DUP5 ADD PUSH1 0x20 MSTORE PUSH1 0x40 DUP2 KECCAK256 DUP3 SWAP1 SSTORE PUSH2 0xE55 DUP5 DUP5 PUSH2 0x1E65 JUMP JUMPDEST PUSH1 0x0 DUP2 DUP2 MSTORE PUSH1 0x1 DUP4 ADD PUSH1 0x20 MSTORE PUSH1 0x40 DUP2 KECCAK256 SLOAD PUSH2 0x23D3 JUMPI POP DUP2 SLOAD PUSH1 0x1 DUP2 DUP2 ADD DUP5 SSTORE PUSH1 0x0 DUP5 DUP2 MSTORE PUSH1 0x20 DUP1 DUP3 KECCAK256 SWAP1 SWAP4 ADD DUP5 SWAP1 SSTORE DUP5 SLOAD DUP5 DUP3 MSTORE DUP3 DUP7 ADD SWAP1 SWAP4 MSTORE PUSH1 0x40 SWAP1 KECCAK256 SWAP2 SWAP1 SWAP2 SSTORE PUSH2 0x656 JUMP JUMPDEST POP PUSH1 0x0 PUSH2 0x656 JUMP JUMPDEST PUSH1 0x0 DUP3 PUSH1 0x0 ADD DUP3 DUP2 SLOAD DUP2 LT PUSH2 0x23F2 JUMPI PUSH2 0x23F2 PUSH2 0x2B18 JUMP JUMPDEST SWAP1 PUSH1 0x0 MSTORE PUSH1 0x20 PUSH1 0x0 KECCAK256 ADD SLOAD SWAP1 POP SWAP3 SWAP2 POP POP JUMP JUMPDEST PUSH1 0x0 DUP1 DUP1 DUP1 PUSH2 0x20B2 DUP7 DUP7 PUSH2 0x27A4 JUMP JUMPDEST PUSH2 0x2421 DUP3 PUSH2 0x1641 DUP4 PUSH2 0x1E1E JUMP JUMPDEST PUSH1 0x40 MLOAD DUP1 PUSH1 0x40 ADD PUSH1 0x40 MSTORE DUP1 PUSH1 0x10 DUP2 MSTORE PUSH1 0x20 ADD PUSH16 0x1A5B9D985B1A5908185C99DD5B595B9D PUSH1 0x82 SHL DUP2 MSTORE POP SWAP1 PUSH2 0x2468 JUMPI PUSH1 0x40 MLOAD PUSH3 0x461BCD PUSH1 0xE5 SHL DUP2 MSTORE PUSH1 0x4 ADD PUSH2 0x73F SWAP2 SWAP1 PUSH2 0x2A90 JUMP JUMPDEST POP PUSH1 0x40 MLOAD DUP3 SWAP1 PUSH32 0xDE8C1E2EDD3EBB03A4489213A39C3B46B6B90669A8AE9ABE1D175DCD915D5DB SWAP1 PUSH1 0x0 SWAP1 LOG2 POP POP JUMP JUMPDEST PUSH1 0x0 DUP2 DUP2 MSTORE PUSH1 0x1 DUP4 ADD PUSH1 0x20 MSTORE PUSH1 0x40 DUP2 KECCAK256 SLOAD DUP1 ISZERO PUSH2 0x2581 JUMPI PUSH1 0x0 PUSH2 0x24BC PUSH1 0x1 DUP4 PUSH2 0x2B5F JUMP JUMPDEST DUP6 SLOAD SWAP1 SWAP2 POP PUSH1 0x0 SWAP1 PUSH2 0x24D0 SWAP1 PUSH1 0x1 SWAP1 PUSH2 0x2B5F JUMP JUMPDEST SWAP1 POP DUP2 DUP2 EQ PUSH2 0x2535 JUMPI PUSH1 0x0 DUP7 PUSH1 0x0 ADD DUP3 DUP2 SLOAD DUP2 LT PUSH2 0x24F0 JUMPI PUSH2 0x24F0 PUSH2 0x2B18 JUMP JUMPDEST SWAP1 PUSH1 0x0 MSTORE PUSH1 0x20 PUSH1 0x0 KECCAK256 ADD SLOAD SWAP1 POP DUP1 DUP8 PUSH1 0x0 ADD DUP5 DUP2 SLOAD DUP2 LT PUSH2 0x2513 JUMPI PUSH2 0x2513 PUSH2 0x2B18 JUMP JUMPDEST PUSH1 0x0 SWAP2 DUP3 MSTORE PUSH1 0x20 DUP1 DUP4 KECCAK256 SWAP1 SWAP2 ADD SWAP3 SWAP1 SWAP3 SSTORE SWAP2 DUP3 MSTORE PUSH1 0x1 DUP9 ADD SWAP1 MSTORE PUSH1 0x40 SWAP1 KECCAK256 DUP4 SWAP1 SSTORE JUMPDEST DUP6 SLOAD DUP7 SWAP1 DUP1 PUSH2 0x2546 JUMPI PUSH2 0x2546 PUSH2 0x2B76 JUMP JUMPDEST PUSH1 0x1 SWAP1 SUB DUP2 DUP2 SWAP1 PUSH1 0x0 MSTORE PUSH1 0x20 PUSH1 0x0 KECCAK256 ADD PUSH1 0x0 SWAP1 SSTORE SWAP1 SSTORE DUP6 PUSH1 0x1 ADD PUSH1 0x0 DUP7 DUP2 MSTORE PUSH1 0x20 ADD SWAP1 DUP2 MSTORE PUSH1 0x20 ADD PUSH1 0x0 KECCAK256 PUSH1 0x0 SWAP1 SSTORE PUSH1 0x1 SWAP4 POP POP POP POP PUSH2 0x656 JUMP JUMPDEST PUSH1 0x0 SWAP2 POP POP PUSH2 0x656 JUMP JUMPDEST PUSH1 0x0 PUSH2 0xC22 DUP4 DUP4 PUSH2 0x27CF JUMP JUMPDEST PUSH1 0x0 DUP2 DUP2 MSTORE PUSH1 0x2 DUP4 ADD PUSH1 0x20 MSTORE PUSH1 0x40 DUP2 KECCAK256 SLOAD DUP2 SWAP1 DUP1 PUSH2 0x25C6 JUMPI PUSH2 0x25B9 DUP6 DUP6 PUSH2 0x258B JUMP JUMPDEST SWAP3 POP PUSH1 0x0 SWAP2 POP PUSH2 0x20BA SWAP1 POP JUMP JUMPDEST PUSH1 0x1 SWAP3 POP SWAP1 POP PUSH2 0x20BA JUMP JUMPDEST PUSH1 0x0 DUP2 DUP2 MSTORE PUSH1 0x2 DUP4 ADD PUSH1 0x20 MSTORE PUSH1 0x40 DUP2 KECCAK256 DUP2 SWAP1 SSTORE PUSH2 0xC22 DUP4 DUP4 PUSH2 0x27E7 JUMP JUMPDEST PUSH1 0x0 DUP2 DUP2 MSTORE PUSH1 0x2 DUP4 ADD PUSH1 0x20 MSTORE PUSH1 0x40 DUP2 KECCAK256 SLOAD DUP1 ISZERO ISZERO DUP1 PUSH2 0x2612 JUMPI POP PUSH2 0x2612 DUP5 DUP5 PUSH2 0x258B JUMP JUMPDEST PUSH2 0xC22 JUMPI PUSH1 0x40 MLOAD PUSH3 0x461BCD PUSH1 0xE5 SHL DUP2 MSTORE PUSH1 0x20 PUSH1 0x4 DUP3 ADD MSTORE PUSH1 0x1E PUSH1 0x24 DUP3 ADD MSTORE PUSH32 0x456E756D657261626C654D61703A206E6F6E6578697374656E74206B65790000 PUSH1 0x44 DUP3 ADD MSTORE PUSH1 0x64 ADD PUSH2 0x73F JUMP JUMPDEST PUSH1 0x0 DUP1 PUSH2 0x266B DUP5 DUP5 PUSH2 0x2405 JUMP JUMPDEST POP SWAP5 SWAP4 POP POP POP POP JUMP JUMPDEST PUSH1 0x0 PUSH2 0x656 DUP3 PUSH2 0x225D JUMP JUMPDEST PUSH1 0x0 PUSH1 0x5 PUSH1 0x0 DUP4 DUP2 MSTORE PUSH1 0x20 ADD SWAP1 DUP2 MSTORE PUSH1 0x20 ADD PUSH1 0x0 KECCAK256 SLOAD SWAP1 POP DUP1 TIMESTAMP LT ISZERO PUSH1 0x40 MLOAD DUP1 PUSH1 0x60 ADD PUSH1 0x40 MSTORE DUP1 PUSH1 0x21 DUP2 MSTORE PUSH1 0x20 ADD PUSH2 0x2BF0 PUSH1 0x21 SWAP2 CODECOPY SWAP1 PUSH2 0x26D2 JUMPI PUSH1 0x40 MLOAD PUSH3 0x461BCD PUSH1 0xE5 SHL DUP2 MSTORE PUSH1 0x4 ADD PUSH2 0x73F SWAP2 SWAP1 PUSH2 0x2A90 JUMP JUMPDEST POP PUSH1 0x40 DUP1 MLOAD DUP1 DUP3 ADD SWAP1 SWAP2 MSTORE PUSH1 0xD DUP2 MSTORE PUSH13 0x646561646C696E65206973203 PUSH1 0x9C SHL PUSH1 0x20 DUP3 ADD MSTORE DUP2 PUSH2 0x2715 JUMPI PUSH1 0x40 MLOAD PUSH3 0x461BCD PUSH1 0xE5 SHL DUP2 MSTORE PUSH1 0x4 ADD PUSH2 0x73F SWAP2 SWAP1 PUSH2 0x2A90 JUMP JUMPDEST POP POP PUSH1 0x0 SWAP1 DUP2 MSTORE PUSH1 0x5 PUSH1 0x20 MSTORE PUSH1 0x40 DUP2 KECCAK256 SSTORE JUMP JUMPDEST PUSH1 0x0 PUSH2 0x2734 DUP5 DUP4 PUSH2 0x27F3 JUMP JUMPDEST PUSH1 0x0 DUP5 DUP2 MSTORE PUSH1 0x1 PUSH1 0x20 SWAP1 DUP2 MSTORE PUSH1 0x40 SWAP2 DUP3 SWAP1 KECCAK256 DUP1 SLOAD PUSH1 0x1 PUSH1 0x1 PUSH1 0xA0 SHL SUB NOT AND PUSH1 0x1 PUSH1 0x1 PUSH1 0xA0 SHL SUB DUP8 AND SWAP1 DUP2 OR SWAP1 SWAP2 SSTORE DUP3 MLOAD SWAP1 DUP2 MSTORE SWAP1 DUP2 ADD DUP5 SWAP1 MSTORE DUP6 SWAP2 PUSH32 0xD46E58EE9DC1AE703349F8C09C19F23213A531B4D57F00CFD4A5A6CB6519668D SWAP2 ADD PUSH1 0x40 MLOAD DUP1 SWAP2 SUB SWAP1 LOG2 POP PUSH1 0x1 SWAP4 SWAP3 POP POP POP JUMP JUMPDEST PUSH1 0x0 DUP1 DUP1 PUSH2 0x27B2 DUP6 DUP6 PUSH2 0x1F31 JUMP JUMPDEST PUSH1 0x0 DUP2 DUP2 MSTORE PUSH1 0x2 SWAP7 SWAP1 SWAP7 ADD PUSH1 0x20 MSTORE PUSH1 0x40 SWAP1 SWAP6 KECCAK256 SLOAD SWAP5 SWAP6 SWAP4 POP POP POP POP JUMP JUMPDEST PUSH1 0x0 DUP2 DUP2 MSTORE PUSH1 0x1 DUP4 ADD PUSH1 0x20 MSTORE PUSH1 0x40 DUP2 KECCAK256 SLOAD ISZERO ISZERO PUSH2 0xC22 JUMP JUMPDEST PUSH1 0x0 PUSH2 0xC22 DUP4 DUP4 PUSH2 0x2498 JUMP JUMPDEST PUSH1 0x5 PUSH1 0x0 DUP4 DUP2 MSTORE PUSH1 0x20 ADD SWAP1 DUP2 MSTORE PUSH1 0x20 ADD PUSH1 0x0 KECCAK256 SLOAD PUSH1 0x0 EQ PUSH1 0x40 MLOAD DUP1 PUSH1 0x40 ADD PUSH1 0x40 MSTORE DUP1 PUSH1 0x12 DUP2 MSTORE PUSH1 0x20 ADD PUSH18 0x646561646C696E65206D757374206265203 PUSH1 0x74 SHL DUP2 MSTORE POP SWAP1 PUSH2 0x2853 JUMPI PUSH1 0x40 MLOAD PUSH3 0x461BCD PUSH1 0xE5 SHL DUP2 MSTORE PUSH1 0x4 ADD PUSH2 0x73F SWAP2 SWAP1 PUSH2 0x2A90 JUMP JUMPDEST POP PUSH1 0x40 DUP1 MLOAD DUP1 DUP3 ADD SWAP1 SWAP2 MSTORE PUSH1 0x18 DUP2 MSTORE PUSH32 0x64656C6179206265206174206C65617374203320646179730000000000000000 PUSH1 0x20 DUP3 ADD MSTORE PUSH3 0x3F480 DUP3 LT ISZERO PUSH2 0x28AC JUMPI PUSH1 0x40 MLOAD PUSH3 0x461BCD PUSH1 0xE5 SHL DUP2 MSTORE PUSH1 0x4 ADD PUSH2 0x73F SWAP2 SWAP1 PUSH2 0x2A90 JUMP JUMPDEST POP PUSH2 0x28B7 DUP2 TIMESTAMP PUSH2 0x2B8C JUMP JUMPDEST PUSH1 0x0 SWAP3 DUP4 MSTORE PUSH1 0x5 PUSH1 0x20 MSTORE PUSH1 0x40 SWAP1 SWAP3 KECCAK256 SWAP2 SWAP1 SWAP2 SSTORE POP JUMP JUMPDEST PUSH1 0x20 DUP1 DUP3 MSTORE DUP3 MLOAD DUP3 DUP3 ADD DUP2 SWAP1 MSTORE PUSH1 0x0 SWAP2 SWAP1 DUP5 DUP3 ADD SWAP1 PUSH1 0x40 DUP6 ADD SWAP1 DUP5 JUMPDEST DUP2 DUP2 LT ISZERO PUSH2 0x290E JUMPI DUP4 MLOAD PUSH1 0x1 PUSH1 0x1 PUSH1 0xA0 SHL SUB AND DUP4 MSTORE SWAP3 DUP5 ADD SWAP3 SWAP2 DUP5 ADD SWAP2 PUSH1 0x1 ADD PUSH2 0x28E9 JUMP JUMPDEST POP SWAP1 SWAP7 SWAP6 POP POP POP POP POP POP JUMP JUMPDEST PUSH1 0x0 PUSH1 0x20 DUP3 DUP5 SUB SLT ISZERO PUSH2 0x292C JUMPI PUSH1 0x0 DUP1 REVERT JUMPDEST POP CALLDATALOAD SWAP2 SWAP1 POP JUMP JUMPDEST PUSH1 0x1 PUSH1 0x1 PUSH1 0xA0 SHL SUB DUP2 AND DUP2 EQ PUSH2 0x2948 JUMPI PUSH1 0x0 DUP1 REVERT JUMPDEST POP JUMP JUMPDEST PUSH1 0x0 DUP1 PUSH1 0x40 DUP4 DUP6 SUB SLT ISZERO PUSH2 0x295E JUMPI PUSH1 0x0 DUP1 REVERT JUMPDEST DUP3 CALLDATALOAD SWAP2 POP PUSH1 0x20 DUP4 ADD CALLDATALOAD PUSH2 0x2970 DUP2 PUSH2 0x2933 JUMP JUMPDEST DUP1 SWAP2 POP POP SWAP3 POP SWAP3 SWAP1 POP JUMP JUMPDEST PUSH1 0x0 DUP1 PUSH1 0x40 DUP4 DUP6 SUB SLT ISZERO PUSH2 0x298E JUMPI PUSH1 0x0 DUP1 REVERT JUMPDEST DUP3 CALLDATALOAD PUSH2 0x2999 DUP2 PUSH2 0x2933 JUMP JUMPDEST SWAP2 POP PUSH1 0x20 DUP4 ADD CALLDATALOAD PUSH2 0x2970 DUP2 PUSH2 0x2933 JUMP JUMPDEST PUSH1 0x0 PUSH1 0x20 DUP3 DUP5 SUB SLT ISZERO PUSH2 0x29BB JUMPI PUSH1 0x0 DUP1 REVERT JUMPDEST DUP2 CALLDATALOAD PUSH2 0xC22 DUP2 PUSH2 0x2933 JUMP JUMPDEST DUP1 ISZERO ISZERO DUP2 EQ PUSH2 0x2948 JUMPI PUSH1 0x0 DUP1 REVERT JUMPDEST PUSH1 0x0 DUP1 PUSH1 0x0 PUSH1 0x60 DUP5 DUP7 SUB SLT ISZERO PUSH2 0x29E9 JUMPI PUSH1 0x0 DUP1 REVERT JUMPDEST DUP4 CALLDATALOAD SWAP3 POP PUSH1 0x20 DUP5 ADD CALLDATALOAD PUSH2 0x29FB DUP2 PUSH2 0x2933 JUMP JUMPDEST SWAP2 POP PUSH1 0x40 DUP5 ADD CALLDATALOAD PUSH2 0x2A0B DUP2 PUSH2 0x29C6 JUMP JUMPDEST DUP1 SWAP2 POP POP SWAP3 POP SWAP3 POP SWAP3 JUMP JUMPDEST PUSH1 0x20 DUP1 DUP3 MSTORE DUP3 MLOAD DUP3 DUP3 ADD DUP2 SWAP1 MSTORE PUSH1 0x0 SWAP2 SWAP1 DUP5 DUP3 ADD SWAP1 PUSH1 0x40 DUP6 ADD SWAP1 DUP5 JUMPDEST DUP2 DUP2 LT ISZERO PUSH2 0x290E JUMPI DUP4 MLOAD DUP4 MSTORE SWAP3 DUP5 ADD SWAP3 SWAP2 DUP5 ADD SWAP2 PUSH1 0x1 ADD PUSH2 0x2A32 JUMP JUMPDEST PUSH1 0x0 DUP1 PUSH1 0x40 DUP4 DUP6 SUB SLT ISZERO PUSH2 0x2A61 JUMPI PUSH1 0x0 DUP1 REVERT JUMPDEST DUP3 CALLDATALOAD SWAP2 POP PUSH1 0x20 DUP4 ADD CALLDATALOAD PUSH2 0x2970 DUP2 PUSH2 0x29C6 JUMP JUMPDEST PUSH1 0x0 PUSH1 0x20 DUP3 DUP5 SUB SLT ISZERO PUSH2 0x2A85 JUMPI PUSH1 0x0 DUP1 REVERT JUMPDEST DUP2 MLOAD PUSH2 0xC22 DUP2 PUSH2 0x29C6 JUMP JUMPDEST PUSH1 0x0 PUSH1 0x20 DUP1 DUP4 MSTORE DUP4 MLOAD DUP1 DUP3 DUP6 ADD MSTORE PUSH1 0x0 JUMPDEST DUP2 DUP2 LT ISZERO PUSH2 0x2ABD JUMPI DUP6 DUP2 ADD DUP4 ADD MLOAD DUP6 DUP3 ADD PUSH1 0x40 ADD MSTORE DUP3 ADD PUSH2 0x2AA1 JUMP JUMPDEST DUP2 DUP2 GT ISZERO PUSH2 0x2ACF JUMPI PUSH1 0x0 PUSH1 0x40 DUP4 DUP8 ADD ADD MSTORE JUMPDEST POP PUSH1 0x1F ADD PUSH1 0x1F NOT AND SWAP3 SWAP1 SWAP3 ADD PUSH1 0x40 ADD SWAP4 SWAP3 POP POP POP JUMP JUMPDEST PUSH1 0x0 PUSH1 0x20 DUP3 DUP5 SUB SLT ISZERO PUSH2 0x2AF7 JUMPI PUSH1 0x0 DUP1 REVERT JUMPDEST DUP2 MLOAD PUSH2 0xC22 DUP2 PUSH2 0x2933 JUMP JUMPDEST PUSH4 0x4E487B71 PUSH1 0xE0 SHL PUSH1 0x0 MSTORE PUSH1 0x41 PUSH1 0x4 MSTORE PUSH1 0x24 PUSH1 0x0 REVERT JUMPDEST PUSH4 0x4E487B71 PUSH1 0xE0 SHL PUSH1 0x0 MSTORE PUSH1 0x32 PUSH1 0x4 MSTORE PUSH1 0x24 PUSH1 0x0 REVERT JUMPDEST PUSH4 0x4E487B71 PUSH1 0xE0 SHL PUSH1 0x0 MSTORE PUSH1 0x11 PUSH1 0x4 MSTORE PUSH1 0x24 PUSH1 0x0 REVERT JUMPDEST PUSH1 0x0 PUSH1 0x0 NOT DUP3 EQ ISZERO PUSH2 0x2B58 JUMPI PUSH2 0x2B58 PUSH2 0x2B2E JUMP JUMPDEST POP PUSH1 0x1 ADD SWAP1 JUMP JUMPDEST PUSH1 0x0 DUP3 DUP3 LT ISZERO PUSH2 0x2B71 JUMPI PUSH2 0x2B71 PUSH2 0x2B2E JUMP JUMPDEST POP SUB SWAP1 JUMP JUMPDEST PUSH4 0x4E487B71 PUSH1 0xE0 SHL PUSH1 0x0 MSTORE PUSH1 0x31 PUSH1 0x4 MSTORE PUSH1 0x24 PUSH1 0x0 REVERT JUMPDEST PUSH1 0x0 DUP3 NOT DUP3 GT ISZERO PUSH2 0x2B9F JUMPI PUSH2 0x2B9F PUSH2 0x2B2E JUMP JUMPDEST POP ADD SWAP1 JUMP INVALID PUSH2 0x2073 PUSH21 0x616B6572207661756C7420616C7265616479206578 PUSH10 0x73747320666F72207468 PUSH6 0x20746F6B656E PUSH22 0x6E617574686F72697A65642061636365737300000000 STOP STOP STOP STOP STOP STOP STOP STOP STOP PUSH5 0x6561646C69 PUSH15 0x6520686173206E6F74206265656E20 PUSH19 0x65616368656420796574A26469706673582212 KECCAK256 0xF 0xAD 0xC1 JUMPI SWAP6 0xDF DUP3 SLT 0xDB 0xC1 0xE1 XOR MSTORE DUP6 BALANCE LOG4 PUSH10 0x5A4172ED5B1D0F9106B4 0x4B 0x22 EQ DUP4 EXP PUSH5 0x736F6C6343 STOP ADDMOD MULMOD STOP CALLER ","sha1":"4883425aef9e20b8908d0b683701678d5e4bdb02","source":"// SPDX-License-Identifier: GPL-3.0-or-later\npragma solidity 0.8.9;\n\nimport \"@openzeppelin/contracts-upgradeable/proxy/utils/Initializable.sol\";\n\nimport \"../interfaces/IGasBank.sol\";\nimport \"../interfaces/IAddressProvider.sol\";\nimport \"../interfaces/IStakerVault.sol\";\nimport \"../interfaces/oracles/IOracleProvider.sol\";\n\nimport \"../libraries/EnumerableExtensions.sol\";\nimport \"../libraries/EnumerableMapping.sol\";\nimport \"../libraries/AddressProviderKeys.sol\";\nimport \"../libraries/AddressProviderMeta.sol\";\nimport \"../libraries/Roles.sol\";\n\nimport \"./access/AuthorizationBase.sol\";\nimport \"./utils/Preparable.sol\";\n\n// solhint-disable ordering\n\ncontract AddressProvider is IAddressProvider, AuthorizationBase, Initializable, Preparable {\n    using EnumerableMapping for EnumerableMapping.AddressToAddressMap;\n    using EnumerableMapping for EnumerableMapping.Bytes32ToUIntMap;\n    using EnumerableSet for EnumerableSet.AddressSet;\n    using EnumerableSet for EnumerableSet.Bytes32Set;\n    using EnumerableExtensions for EnumerableSet.AddressSet;\n    using EnumerableExtensions for EnumerableSet.Bytes32Set;\n    using EnumerableExtensions for EnumerableMapping.AddressToAddressMap;\n    using EnumerableExtensions for EnumerableMapping.Bytes32ToUIntMap;\n    using AddressProviderMeta for AddressProviderMeta.Meta;\n\n    // LpToken -> stakerVault\n    EnumerableMapping.AddressToAddressMap internal _stakerVaults;\n\n    EnumerableSet.AddressSet internal _whiteListedFeeHandlers;\n\n    // value is encoded as (bool freezable, bool frozen)\n    EnumerableMapping.Bytes32ToUIntMap internal _addressKeyMetas;\n\n    EnumerableSet.AddressSet internal _actions; // list of all actions ever registered\n\n    EnumerableSet.AddressSet internal _vaults; // list of all active vaults\n\n    EnumerableMapping.AddressToAddressMap internal _tokenToPools;\n\n    constructor(address treasury) {\n        AddressProviderMeta.Meta memory meta = AddressProviderMeta.Meta(true, false);\n        _addressKeyMetas.set(AddressProviderKeys._TREASURY_KEY, meta.toUInt());\n        _setConfig(AddressProviderKeys._TREASURY_KEY, treasury);\n    }\n\n    function initialize(address roleManager) external initializer {\n        AddressProviderMeta.Meta memory meta = AddressProviderMeta.Meta(true, true);\n        _addressKeyMetas.set(AddressProviderKeys._ROLE_MANAGER_KEY, meta.toUInt());\n        _setConfig(AddressProviderKeys._ROLE_MANAGER_KEY, roleManager);\n    }\n\n    function getKnownAddressKeys() external view returns (bytes32[] memory) {\n        return _addressKeyMetas.keysArray();\n    }\n\n    function addFeeHandler(address feeHandler) external onlyGovernance returns (bool) {\n        require(!_whiteListedFeeHandlers.contains(feeHandler), Error.ADDRESS_WHITELISTED);\n        _whiteListedFeeHandlers.add(feeHandler);\n        return true;\n    }\n\n    function removeFeeHandler(address feeHandler) external onlyGovernance returns (bool) {\n        require(_whiteListedFeeHandlers.contains(feeHandler), Error.ADDRESS_NOT_WHITELISTED);\n        _whiteListedFeeHandlers.remove(feeHandler);\n        return true;\n    }\n\n    /**\n     * @notice Adds action.\n     * @param action Address of action to add.\n     */\n    function addAction(address action) external onlyGovernance returns (bool) {\n        bool result = _actions.add(action);\n        if (result) {\n            emit ActionListed(action);\n        }\n        return result;\n    }\n\n    /**\n     * @notice Adds pool.\n     * @param pool Address of pool to add.\n     */\n    function addPool(address pool)\n        external\n        override\n        onlyRoles2(Roles.POOL_FACTORY, Roles.GOVERNANCE)\n    {\n        require(pool != address(0), Error.ZERO_ADDRESS_NOT_ALLOWED);\n\n        ILiquidityPool ipool = ILiquidityPool(pool);\n        address poolToken = ipool.getLpToken();\n        require(poolToken != address(0), Error.ZERO_ADDRESS_NOT_ALLOWED);\n        if (_tokenToPools.set(poolToken, pool)) {\n            address vault = address(ipool.getVault());\n            if (vault != address(0)) {\n                _vaults.add(vault);\n            }\n            emit PoolListed(pool);\n        }\n    }\n\n    /**\n     * @notice Delists pool.\n     * @param pool Address of pool to delist.\n     * @return `true` if successful.\n     */\n    function removePool(address pool) external override onlyRole(Roles.CONTROLLER) returns (bool) {\n        address lpToken = ILiquidityPool(pool).getLpToken();\n        bool removed = _tokenToPools.remove(lpToken);\n        if (removed) {\n            address vault = address(ILiquidityPool(pool).getVault());\n            if (vault != address(0)) {\n                _vaults.remove(vault);\n            }\n            emit PoolDelisted(pool);\n        }\n\n        return removed;\n    }\n\n    /** Vault functions  */\n\n    /**\n     * @notice returns all the registered vaults\n     */\n    function allVaults() external view returns (address[] memory) {\n        return _vaults.toArray();\n    }\n\n    /**\n     * @notice returns the vault at the given index\n     */\n    function getVaultAtIndex(uint256 index) external view returns (address) {\n        return _vaults.at(index);\n    }\n\n    /**\n     * @notice returns the number of vaults\n     */\n    function vaultsCount() external view returns (uint256) {\n        return _vaults.length();\n    }\n\n    function isVault(address vault) external view returns (bool) {\n        return _vaults.contains(vault);\n    }\n\n    function updateVault(address previousVault, address newVault) external onlyRole(Roles.POOL) {\n        if (previousVault != address(0)) {\n            _vaults.remove(previousVault);\n        }\n        if (newVault != address(0)) {\n            _vaults.add(newVault);\n        }\n        emit VaultUpdated(previousVault, newVault);\n    }\n\n    /**\n     * @notice Returns the address for the given key\n     */\n    function getAddress(bytes32 key) public view returns (address) {\n        require(_addressKeyMetas.contains(key), Error.ADDRESS_DOES_NOT_EXIST);\n        return currentAddresses[key];\n    }\n\n    /**\n     * @notice Returns the address for the given key\n     * @dev if `checkExists` is true, it will fail if the key does not exist\n     */\n    function getAddress(bytes32 key, bool checkExists) public view returns (address) {\n        require(!checkExists || _addressKeyMetas.contains(key), Error.ADDRESS_DOES_NOT_EXIST);\n        return currentAddresses[key];\n    }\n\n    /**\n     * @notice returns the address metadata for the given key\n     */\n    function getAddressMeta(bytes32 key) public view returns (AddressProviderMeta.Meta memory) {\n        (bool exists, uint256 metadata) = _addressKeyMetas.tryGet(key);\n        require(exists, Error.ADDRESS_DOES_NOT_EXIST);\n        return AddressProviderMeta.fromUInt(metadata);\n    }\n\n    function initializeAddress(bytes32 key, address initialAddress) external {\n        initializeAddress(key, initialAddress, false);\n    }\n\n    /**\n     * @notice Initializes an address\n     * @param key Key to initialize\n     * @param initialAddress Address for `key`\n     */\n    function initializeAddress(\n        bytes32 key,\n        address initialAddress,\n        bool freezable\n    ) public override onlyGovernance {\n        AddressProviderMeta.Meta memory meta = AddressProviderMeta.Meta(freezable, false);\n        _initializeAddress(key, initialAddress, meta);\n    }\n\n    /**\n     * @notice Initializes and freezes address\n     * @param key Key to initialize\n     * @param initialAddress Address for `key`\n     */\n    function initializeAndFreezeAddress(bytes32 key, address initialAddress)\n        external\n        override\n        onlyGovernance\n    {\n        AddressProviderMeta.Meta memory meta = AddressProviderMeta.Meta(true, true);\n        _initializeAddress(key, initialAddress, meta);\n    }\n\n    /**\n     * @notice Freezes a configuration key, making it immutable\n     * @param key Key to feeze\n     */\n    function freezeAddress(bytes32 key) external override onlyGovernance {\n        AddressProviderMeta.Meta memory meta = getAddressMeta(key);\n        require(!meta.frozen, Error.ADDRESS_FROZEN);\n        require(meta.freezable, Error.INVALID_ARGUMENT);\n        meta.frozen = true;\n        _addressKeyMetas.set(key, meta.toUInt());\n    }\n\n    /**\n     * @notice Prepare update of an address\n     * @param key Key to update\n     * @param newAddress New address for `key`\n     * @return `true` if successful.\n     */\n    function prepareAddress(bytes32 key, address newAddress)\n        external\n        override\n        onlyGovernance\n        returns (bool)\n    {\n        AddressProviderMeta.Meta memory meta = getAddressMeta(key);\n        require(!meta.frozen, Error.ADDRESS_FROZEN);\n        return _prepare(key, newAddress);\n    }\n\n    /**\n     * @notice Execute update of `key`\n     * @return New address.\n     */\n    function executeAddress(bytes32 key) external override returns (address) {\n        AddressProviderMeta.Meta memory meta = getAddressMeta(key);\n        require(!meta.frozen, Error.ADDRESS_FROZEN);\n        return _executeAddress(key);\n    }\n\n    /**\n     * @notice Reset `key`\n     * @return true if it was reset\n     */\n    function resetAddress(bytes32 key) external onlyGovernance returns (bool) {\n        return _resetAddressConfig(key);\n    }\n\n    /**\n     * @notice Add a new staker vault and add it's lpGauge if set in vault.\n     * @dev This fails if the token of the staker vault is the token of an existing staker vault.\n     * @param stakerVault Vault to add.\n     * @return `true` if successful.\n     */\n    function addStakerVault(address stakerVault)\n        external\n        override\n        onlyRole(Roles.CONTROLLER)\n        returns (bool)\n    {\n        address token = IStakerVault(stakerVault).getToken();\n        require(token != address(0), Error.ZERO_ADDRESS_NOT_ALLOWED);\n        require(!_stakerVaults.contains(token), Error.STAKER_VAULT_EXISTS);\n        _stakerVaults.set(token, stakerVault);\n        emit StakerVaultListed(stakerVault);\n        return true;\n    }\n\n    function isWhiteListedFeeHandler(address feeHandler) external view override returns (bool) {\n        return _whiteListedFeeHandlers.contains(feeHandler);\n    }\n\n    /**\n     * @notice Get the liquidity pool for a given token\n     * @dev Does not revert if the pool deos not exist\n     * @param token Token for which to get the pool.\n     * @return Pool address.\n     */\n    function safeGetPoolForToken(address token) external view override returns (address) {\n        (, address poolAddress) = _tokenToPools.tryGet(token);\n        return poolAddress;\n    }\n\n    /**\n     * @notice Get the liquidity pool for a given token\n     * @dev Reverts if the pool deos not exist\n     * @param token Token for which to get the pool.\n     * @return Pool address.\n     */\n    function getPoolForToken(address token) external view override returns (ILiquidityPool) {\n        (bool exists, address poolAddress) = _tokenToPools.tryGet(token);\n        require(exists, Error.ADDRESS_NOT_FOUND);\n        return ILiquidityPool(poolAddress);\n    }\n\n    /**\n     * @notice Get list of all action addresses.\n     * @return Array with action addresses.\n     */\n    function allActions() external view override returns (address[] memory) {\n        return _actions.toArray();\n    }\n\n    /**\n     * @notice Check whether an address is an action.\n     * @param action Address to check whether it is action.\n     * @return True if address is an action.\n     */\n    function isAction(address action) external view override returns (bool) {\n        return _actions.contains(action);\n    }\n\n    /**\n     * @notice Check whether an address is an pool.\n     * @param pool Address to check whether it is a pool.\n     * @return True if address is a pool.\n     */\n    function isPool(address pool) external view returns (bool) {\n        address lpToken = ILiquidityPool(pool).getLpToken();\n        (bool exists, address poolAddress) = _tokenToPools.tryGet(lpToken);\n        return exists && pool == poolAddress;\n    }\n\n    /**\n     * @notice Get list of all pool addresses.\n     * @return Array with pool addresses.\n     */\n    function allPools() external view override returns (address[] memory) {\n        return _tokenToPools.valuesArray();\n    }\n\n    /**\n     * @notice returns the pool at the given index\n     */\n    function getPoolAtIndex(uint256 index) external view returns (address) {\n        return _tokenToPools.valueAt(index);\n    }\n\n    /**\n     * @notice returns the number of pools\n     */\n    function poolsCount() external view returns (uint256) {\n        return _tokenToPools.length();\n    }\n\n    /**\n     * @notice Returns all the staker vaults.\n     */\n    function allStakerVaults() external view override returns (address[] memory) {\n        return _stakerVaults.valuesArray();\n    }\n\n    /**\n     * @notice Get the staker vault for a given token\n     * @dev There can only exist one staker vault per unique token.\n     * @param token Token for which to get the vault.\n     * @return Vault address.\n     */\n    function getStakerVault(address token) external view override returns (address) {\n        return _stakerVaults.get(token);\n    }\n\n    /**\n     * @notice Tries to get the staker vault for a given token but does not throw if it does not exist\n     * @return A boolean set to true if the vault exists and the vault address.\n     */\n    function tryGetStakerVault(address token) external view override returns (bool, address) {\n        return _stakerVaults.tryGet(token);\n    }\n\n    /**\n     * @notice Check if a vault is registered (exists).\n     * @param stakerVault Address of staker vault to check.\n     * @return `true` if registered, `false` if not.\n     */\n    function isStakerVaultRegistered(address stakerVault) external view override returns (bool) {\n        address token = IStakerVault(stakerVault).getToken();\n        return isStakerVault(stakerVault, token);\n    }\n\n    function isStakerVault(address stakerVault, address token) public view override returns (bool) {\n        (bool exists, address vault) = _stakerVaults.tryGet(token);\n        return exists && vault == stakerVault;\n    }\n\n    function _roleManager() internal view override returns (IRoleManager) {\n        return IRoleManager(getAddress(AddressProviderKeys._ROLE_MANAGER_KEY));\n    }\n\n    function _initializeAddress(\n        bytes32 key,\n        address initialAddress,\n        AddressProviderMeta.Meta memory meta\n    ) internal {\n        require(!_addressKeyMetas.contains(key), Error.INVALID_ARGUMENT);\n        _addKnownAddressKey(key, meta);\n        _setConfig(key, initialAddress);\n    }\n\n    function _addKnownAddressKey(bytes32 key, AddressProviderMeta.Meta memory meta) internal {\n        require(_addressKeyMetas.set(key, meta.toUInt()), Error.INVALID_ARGUMENT);\n        emit KnownAddressKeyAdded(key);\n    }\n}\n","sourcePath":"contracts/AddressProvider.sol","type":"contract","deployment":{"address":"0x139c15e21b0f6e43Fc397faCe5De5b7D5ae6874a","chainid":"1","blockHeight":14391198}}