{"abi":[{"inputs":[{"internalType":"address","name":"vault_","type":"address"},{"internalType":"address","name":"strategist_","type":"address"},{"internalType":"uint256","name":"convexPid_","type":"uint256"},{"internalType":"uint256","name":"curveIndex_","type":"uint256"},{"internalType":"uint256","name":"curveHopIndex_","type":"uint256"},{"internalType":"contract IAddressProvider","name":"addressProvider_","type":"address"}],"stateMutability":"nonpayable","type":"constructor","name":"constructor"},{"anonymous":false,"inputs":[{"indexed":false,"internalType":"address","name":"token","type":"address"}],"name":"AddRewardToken","type":"event"},{"anonymous":false,"inputs":[{"indexed":false,"internalType":"uint256","name":"amount","type":"uint256"}],"name":"Deposit","type":"event"},{"anonymous":false,"inputs":[{"indexed":false,"internalType":"uint256","name":"amount","type":"uint256"}],"name":"Harvest","type":"event"},{"anonymous":false,"inputs":[{"indexed":false,"internalType":"address","name":"token","type":"address"}],"name":"RemoveRewardToken","type":"event"},{"anonymous":false,"inputs":[{"indexed":false,"internalType":"address","name":"reserve","type":"address"}],"name":"SetCommunityReserve","type":"event"},{"anonymous":false,"inputs":[{"indexed":false,"internalType":"uint256","name":"value","type":"uint256"}],"name":"SetCrvCommunityReserveShare","type":"event"},{"anonymous":false,"inputs":[{"indexed":false,"internalType":"uint256","name":"value","type":"uint256"}],"name":"SetCvxCommunityReserveShare","type":"event"},{"anonymous":false,"inputs":[{"indexed":false,"internalType":"uint256","name":"value","type":"uint256"}],"name":"SetHopImbalanceToleranceIn","type":"event"},{"anonymous":false,"inputs":[{"indexed":false,"internalType":"uint256","name":"value","type":"uint256"}],"name":"SetHopImbalanceToleranceOut","type":"event"},{"anonymous":false,"inputs":[{"indexed":false,"internalType":"uint256","name":"value","type":"uint256"}],"name":"SetImbalanceToleranceIn","type":"event"},{"anonymous":false,"inputs":[{"indexed":false,"internalType":"uint256","name":"value","type":"uint256"}],"name":"SetImbalanceToleranceOut","type":"event"},{"anonymous":false,"inputs":[{"indexed":false,"internalType":"uint256","name":"value","type":"uint256"}],"name":"SetSlippageTolerance","type":"event"},{"anonymous":false,"inputs":[{"indexed":false,"internalType":"address","name":"strategist","type":"address"}],"name":"SetStrategist","type":"event"},{"anonymous":false,"inputs":[],"name":"Shutdown","type":"event"},{"anonymous":false,"inputs":[{"indexed":false,"internalType":"address","name":"token","type":"address"},{"indexed":false,"internalType":"address","name":"newDex","type":"address"}],"name":"SwapDex","type":"event"},{"anonymous":false,"inputs":[{"indexed":false,"internalType":"uint256","name":"amount","type":"uint256"}],"name":"Withdraw","type":"event"},{"anonymous":false,"inputs":[{"indexed":false,"internalType":"uint256","name":"amount","type":"uint256"}],"name":"WithdrawAll","type":"event"},{"inputs":[{"internalType":"address","name":"token","type":"address"}],"name":"addRewardToken","outputs":[{"internalType":"bool","name":"","type":"bool"}],"stateMutability":"nonpayable","type":"function"},{"inputs":[],"name":"balance","outputs":[{"internalType":"uint256","name":"","type":"uint256"}],"stateMutability":"view","type":"function"},{"inputs":[{"internalType":"uint256","name":"convexPid_","type":"uint256"},{"internalType":"uint256","name":"curveIndex_","type":"uint256"}],"name":"changeConvexPool","outputs":[],"stateMutability":"nonpayable","type":"function"},{"inputs":[],"name":"communityReserve","outputs":[{"internalType":"address","name":"","type":"address"}],"stateMutability":"view","type":"function"},{"inputs":[],"name":"convexPid","outputs":[{"internalType":"uint256","name":"","type":"uint256"}],"stateMutability":"view","type":"function"},{"inputs":[],"name":"crvCommunityReserveShare","outputs":[{"internalType":"uint256","name":"","type":"uint256"}],"stateMutability":"view","type":"function"},{"inputs":[],"name":"curveHopIndex","outputs":[{"internalType":"uint256","name":"","type":"uint256"}],"stateMutability":"view","type":"function"},{"inputs":[],"name":"curveHopPool","outputs":[{"internalType":"contract ICurveSwap","name":"","type":"address"}],"stateMutability":"view","type":"function"},{"inputs":[],"name":"curveIndex","outputs":[{"internalType":"uint256","name":"","type":"uint256"}],"stateMutability":"view","type":"function"},{"inputs":[],"name":"curvePool","outputs":[{"internalType":"contract ICurveSwap","name":"","type":"address"}],"stateMutability":"view","type":"function"},{"inputs":[],"name":"cvxCommunityReserveShare","outputs":[{"internalType":"uint256","name":"","type":"uint256"}],"stateMutability":"view","type":"function"},{"inputs":[],"name":"decimalMultiplier","outputs":[{"internalType":"uint256","name":"","type":"uint256"}],"stateMutability":"view","type":"function"},{"inputs":[],"name":"deposit","outputs":[{"internalType":"bool","name":"","type":"bool"}],"stateMutability":"payable","type":"function"},{"inputs":[{"internalType":"uint256","name":"crvEarned","type":"uint256"}],"name":"getCvxMintAmount","outputs":[{"internalType":"uint256","name":"","type":"uint256"}],"stateMutability":"view","type":"function"},{"inputs":[],"name":"harvest","outputs":[{"internalType":"uint256","name":"","type":"uint256"}],"stateMutability":"nonpayable","type":"function"},{"inputs":[],"name":"harvestable","outputs":[{"internalType":"uint256","name":"","type":"uint256"}],"stateMutability":"view","type":"function"},{"inputs":[],"name":"hasPendingFunds","outputs":[{"internalType":"bool","name":"","type":"bool"}],"stateMutability":"pure","type":"function"},{"inputs":[],"name":"hopImbalanceToleranceIn","outputs":[{"internalType":"uint256","name":"","type":"uint256"}],"stateMutability":"view","type":"function"},{"inputs":[],"name":"hopImbalanceToleranceOut","outputs":[{"internalType":"uint256","name":"","type":"uint256"}],"stateMutability":"view","type":"function"},{"inputs":[],"name":"hopLp","outputs":[{"internalType":"contract IERC20","name":"","type":"address"}],"stateMutability":"view","type":"function"},{"inputs":[],"name":"imbalanceToleranceIn","outputs":[{"internalType":"uint256","name":"","type":"uint256"}],"stateMutability":"view","type":"function"},{"inputs":[],"name":"imbalanceToleranceOut","outputs":[{"internalType":"uint256","name":"","type":"uint256"}],"stateMutability":"view","type":"function"},{"inputs":[],"name":"isShutdown","outputs":[{"internalType":"bool","name":"","type":"bool"}],"stateMutability":"view","type":"function"},{"inputs":[],"name":"lp","outputs":[{"internalType":"contract IERC20","name":"","type":"address"}],"stateMutability":"view","type":"function"},{"inputs":[],"name":"name","outputs":[{"internalType":"string","name":"","type":"string"}],"stateMutability":"view","type":"function"},{"inputs":[{"internalType":"address","name":"token","type":"address"}],"name":"removeRewardToken","outputs":[{"internalType":"bool","name":"","type":"bool"}],"stateMutability":"nonpayable","type":"function"},{"inputs":[],"name":"rewards","outputs":[{"internalType":"contract IRewardStaking","name":"","type":"address"}],"stateMutability":"view","type":"function"},{"inputs":[],"name":"roleManager","outputs":[{"internalType":"contract IRoleManager","name":"","type":"address"}],"stateMutability":"view","type":"function"},{"inputs":[{"internalType":"address","name":"_communityReserve","type":"address"}],"name":"setCommunityReserve","outputs":[{"internalType":"bool","name":"","type":"bool"}],"stateMutability":"nonpayable","type":"function"},{"inputs":[{"internalType":"uint256","name":"crvCommunityReserveShare_","type":"uint256"}],"name":"setCrvCommunityReserveShare","outputs":[{"internalType":"bool","name":"","type":"bool"}],"stateMutability":"nonpayable","type":"function"},{"inputs":[{"internalType":"uint256","name":"cvxCommunityReserveShare_","type":"uint256"}],"name":"setCvxCommunityReserveShare","outputs":[{"internalType":"bool","name":"","type":"bool"}],"stateMutability":"nonpayable","type":"function"},{"inputs":[{"internalType":"uint256","name":"_hopImbalanceToleranceIn","type":"uint256"}],"name":"setHopImbalanceToleranceIn","outputs":[{"internalType":"bool","name":"","type":"bool"}],"stateMutability":"nonpayable","type":"function"},{"inputs":[{"internalType":"uint256","name":"_hopImbalanceToleranceOut","type":"uint256"}],"name":"setHopImbalanceToleranceOut","outputs":[{"internalType":"bool","name":"","type":"bool"}],"stateMutability":"nonpayable","type":"function"},{"inputs":[{"internalType":"uint256","name":"_imbalanceToleranceIn","type":"uint256"}],"name":"setImbalanceToleranceIn","outputs":[{"internalType":"bool","name":"","type":"bool"}],"stateMutability":"nonpayable","type":"function"},{"inputs":[{"internalType":"uint256","name":"_imbalanceToleranceOut","type":"uint256"}],"name":"setImbalanceToleranceOut","outputs":[{"internalType":"bool","name":"","type":"bool"}],"stateMutability":"nonpayable","type":"function"},{"inputs":[{"internalType":"uint256","name":"_slippageTolerance","type":"uint256"}],"name":"setSlippageTolerance","outputs":[{"internalType":"bool","name":"","type":"bool"}],"stateMutability":"nonpayable","type":"function"},{"inputs":[{"internalType":"address","name":"_strategist","type":"address"}],"name":"setStrategist","outputs":[{"internalType":"bool","name":"","type":"bool"}],"stateMutability":"nonpayable","type":"function"},{"inputs":[],"name":"shutdown","outputs":[{"internalType":"bool","name":"","type":"bool"}],"stateMutability":"nonpayable","type":"function"},{"inputs":[],"name":"slippageTolerance","outputs":[{"internalType":"uint256","name":"","type":"uint256"}],"stateMutability":"view","type":"function"},{"inputs":[],"name":"strategist","outputs":[{"internalType":"address","name":"","type":"address"}],"stateMutability":"view","type":"function"},{"inputs":[{"internalType":"address","name":"token","type":"address"}],"name":"swapDex","outputs":[{"internalType":"bool","name":"","type":"bool"}],"stateMutability":"nonpayable","type":"function"},{"inputs":[{"internalType":"address","name":"","type":"address"}],"name":"tokenDex","outputs":[{"internalType":"contract UniswapRouter02","name":"","type":"address"}],"stateMutability":"view","type":"function"},{"inputs":[],"name":"underlying","outputs":[{"internalType":"contract IERC20","name":"","type":"address"}],"stateMutability":"view","type":"function"},{"inputs":[],"name":"vault","outputs":[{"internalType":"address","name":"","type":"address"}],"stateMutability":"view","type":"function"},{"inputs":[{"internalType":"uint256","name":"amount","type":"uint256"}],"name":"withdraw","outputs":[{"internalType":"bool","name":"","type":"bool"}],"stateMutability":"nonpayable","type":"function"},{"inputs":[],"name":"withdrawAll","outputs":[{"internalType":"uint256","name":"","type":"uint256"}],"stateMutability":"nonpayable","type":"function"}],"bytecode":"6101806040523480156200001257600080fd5b5060405162005c6a38038062005c6a833981016040819052620000359162000b20565b62000054816001600160a01b03166200069f60201b6200291e1760201c565b6001600160a01b0316608052670d7621dc582100006000908155604051631526fe2760e01b815260048101869052819073f403c135812408bfbe8713b5a23a04b3d48aae3190631526fe279060240160c060405180830381600087803b158015620000be57600080fd5b505af1158015620000d3573d6000803e3d6000fd5b505050506040513d601f19601f82011682018060405250810190620000f9919062000ba7565b5050600480546001600160a01b03199081166001600160a01b038781169182178455600580549093169085161790915560405163bdf475c360e01b81529182015293955093506000927390e00ace148ca3b23ac1bc8c240c2a7dd9c2d7f5925063bdf475c39150602401602060405180830381600087803b1580156200017e57600080fd5b505af115801562000193573d6000803e3d6000fd5b505050506040513d601f19601f82011682018060405250810190620001b9919062000c36565b600180546001600160a01b0319166001600160a01b03831690811790915560405163c661065760e01b81526004810189905291925060009163c66106579060240160206040518083038186803b1580156200021357600080fd5b505afa15801562000228573d6000803e3d6000fd5b505050506040513d601f19601f820116820180604052508101906200024e919062000c36565b6001600160a01b03811661012081905260405163bdf475c360e01b815260048101919091529091506000907390e00ace148ca3b23ac1bc8c240c2a7dd9c2d7f59063bdf475c390602401602060405180830381600087803b158015620002b357600080fd5b505af1158015620002c8573d6000803e3d6000fd5b505050506040513d601f19601f82011682018060405250810190620002ee919062000c36565b6001600160a01b03811661010081905260405163c661065760e01b8152600481018a905291925060009163c66106579060240160206040518083038186803b1580156200033a57600080fd5b505afa1580156200034f573d6000803e3d6000fd5b505050506040513d601f19601f8201168201806040525081019062000375919062000c36565b9050806001600160a01b031660e0816001600160a01b031681525050806001600160a01b031663313ce5676040518163ffffffff1660e01b815260040160206040518083038186803b158015620003cb57600080fd5b505afa158015620003e0573d6000803e3d6000fd5b505050506040513d601f19601f8201168201806040525081019062000406919062000c56565b6200041390601262000c91565b6200042090600a62000db4565b610160526001600160a01b038c811660c052600d80546001600160a01b03199081168e84161790915560028c905560038b90556101408a905288821660a05266038d7ea4c68000600681905566aa87bee53800006007556008556605543df729c000600955600e60209081527fb8428cdff4b900a08867e0d3aaee8463cc9f991813d4fb78fceaacc9246f0805805473d9e1ce17f2641f24ae83637ab66a2cca9c378b9f90841681179091557f27bfe06037ca24afac93a42b25e8defacf7e71968de82b90a33ec72d41a482da80548416821790559284166000818152604090208054909316909317909155620005279190849060001990620029ad62000731821b17901c565b6200054e84600019856001600160a01b03166200073160201b620029ad179092919060201c565b6200058973f403c135812408bfbe8713b5a23a04b3d48aae31600019886001600160a01b03166200073160201b620029ad179092919060201c565b620005c473d9e1ce17f2641f24ae83637ab66a2cca9c378b9f600019836001600160a01b03166200073160201b620029ad179092919060201c565b62000607734e3fbd56cd56c3e72c1403e103b45db9da5b9d2b73b576491f1e6e5e62f1d8f26062ee822b40b0e0d460001962000731602090811b620029ad17901c565b6200064a73d533a949740bb3306d119cc777fa900ba034cd5273d9e1ce17f2641f24ae83637ab66a2cca9c378b9f60001962000731602090811b620029ad17901c565b6200068d73c02aaa39b223fe8d0a0e5c4f27ead9083c756cc273d9e1ce17f2641f24ae83637ab66a2cca9c378b9f60001962000731602090811b620029ad17901c565b50505050505050505050505062000e83565b6040516321f8a72160e01b81526a3937b632a6b0b730b3b2b960a91b60048201526000906001600160a01b038316906321f8a7219060240160206040518083038186803b158015620006f057600080fd5b505afa15801562000705573d6000803e3d6000fd5b505050506040513d601f19601f820116820180604052508101906200072b919062000c36565b92915050565b801580620007bf5750604051636eb1769f60e11b81523060048201526001600160a01b03838116602483015284169063dd62ed3e9060440160206040518083038186803b1580156200078257600080fd5b505afa15801562000797573d6000803e3d6000fd5b505050506040513d601f19601f82011682018060405250810190620007bd919062000dc5565b155b620008375760405162461bcd60e51b815260206004820152603660248201527f5361666545524332303a20617070726f76652066726f6d206e6f6e2d7a65726f60448201527f20746f206e6f6e2d7a65726f20616c6c6f77616e63650000000000000000000060648201526084015b60405180910390fd5b604080516001600160a01b038416602482015260448082018490528251808303909101815260649091019091526020810180516001600160e01b0390811663095ea7b360e01b179091526200088f9185916200089416565b505050565b6000620008f0826040518060400160405280602081526020017f5361666545524332303a206c6f772d6c6576656c2063616c6c206661696c6564815250856001600160a01b03166200097260201b62002b09179092919060201c565b8051909150156200088f578080602001905181019062000911919062000ddf565b6200088f5760405162461bcd60e51b815260206004820152602a60248201527f5361666545524332303a204552433230206f7065726174696f6e20646964206e6044820152691bdd081cdd58d8d9595960b21b60648201526084016200082e565b60606200098384846000856200098d565b90505b9392505050565b606082471015620009f05760405162461bcd60e51b815260206004820152602660248201527f416464726573733a20696e73756666696369656e742062616c616e636520666f6044820152651c8818d85b1b60d21b60648201526084016200082e565b6001600160a01b0385163b62000a495760405162461bcd60e51b815260206004820152601d60248201527f416464726573733a2063616c6c20746f206e6f6e2d636f6e747261637400000060448201526064016200082e565b600080866001600160a01b0316858760405162000a67919062000e30565b60006040518083038185875af1925050503d806000811462000aa6576040519150601f19603f3d011682016040523d82523d6000602084013e62000aab565b606091505b50909250905062000abe82828662000ac9565b979650505050505050565b6060831562000ada57508162000986565b82511562000aeb5782518084602001fd5b8160405162461bcd60e51b81526004016200082e919062000e4e565b6001600160a01b038116811462000b1d57600080fd5b50565b60008060008060008060c0878903121562000b3a57600080fd5b865162000b478162000b07565b602088015190965062000b5a8162000b07565b8095505060408701519350606087015192506080870151915060a087015162000b838162000b07565b809150509295509295509295565b8051801515811462000ba257600080fd5b919050565b60008060008060008060c0878903121562000bc157600080fd5b865162000bce8162000b07565b602088015190965062000be18162000b07565b604088015190955062000bf48162000b07565b606088015190945062000c078162000b07565b608088015190935062000c1a8162000b07565b915062000c2a60a0880162000b91565b90509295509295509295565b60006020828403121562000c4957600080fd5b8151620009868162000b07565b60006020828403121562000c6957600080fd5b815160ff811681146200098657600080fd5b634e487b7160e01b600052601160045260246000fd5b600060ff821660ff84168082101562000cae5762000cae62000c7b565b90039392505050565b600181815b8085111562000cf857816000190482111562000cdc5762000cdc62000c7b565b8085161562000cea57918102915b93841c939080029062000cbc565b509250929050565b60008262000d11575060016200072b565b8162000d20575060006200072b565b816001811462000d39576002811462000d445762000d64565b60019150506200072b565b60ff84111562000d585762000d5862000c7b565b50506001821b6200072b565b5060208310610133831016604e8410600b841016171562000d89575081810a6200072b565b62000d95838362000cb7565b806000190482111562000dac5762000dac62000c7b565b029392505050565b60006200098660ff84168362000d00565b60006020828403121562000dd857600080fd5b5051919050565b60006020828403121562000df257600080fd5b620009868262000b91565b60005b8381101562000e1a57818101518382015260200162000e00565b8381111562000e2a576000848401525b50505050565b6000825162000e4481846020870162000dfd565b9190910192915050565b602081526000825180602084015262000e6f81604085016020870162000dfd565b601f01601f19169190910160400192915050565b60805160a05160c05160e05161010051610120516101405161016051614c2a62001040600039600081816104220152818161349b01528181613b96015261415501526000818161058901528181610fe501528181611aa001526130690152600081816104b601528181611f7301528181611fa80152612c6c0152600081816103ce0152818161103001528181611a70015281816130a7015281816132ed0152818161340701528181613b020152613c4b0152600081816105bd01528181610b9b01528181610de6015281816110a601528181611b5101528181612b7d01528181613526015281816137ad015281816140c70152818161411501526141bf01526000818161081f01528181610d7a01528181610e08015281816110ca015281816113b30152818161193d01528181611b73015281816123ff0152612885015260008181614183015281816143d901526145960152600081816102900152818161088b01528181610a8301528181611245015281816113fe0152818161163f015281816117660152818161196601528181611bd601528181611cfb0152818161207d015281816121f401528181612564015261268b0152614c2a6000f3fe60806040526004361061027c5760003560e01c80637bdcdaff1161014f578063bf86d690116100c1578063e9eb50881161007a578063e9eb5088146107cd578063ecf8db0a146107ed578063fbfa77cf1461080d578063fc0e74d114610841578063fdc0bfca14610856578063ff0af85b1461086c57600080fd5b8063bf86d69014610739578063c2bddf311461075a578063c7b9d5301461077a578063d03153aa1461079a578063d0e30db0146107b0578063dbbd47d4146107b857600080fd5b80639851bf38116101135780639851bf38146106825780639b61a924146106b85780639ec5a894146106ce578063aa6a8caf146106ee578063b69ef8a81461070e578063b6ed67a81461072357600080fd5b80637bdcdaff146105ff578063853828b61461061557806386993bef1461062a578063938511a71461064057806394ef57851461066057600080fd5b80633778851e116101f357806356be5f71116101ac57806356be5f711461052d57806361240eea14610543578063621e8fe11461055757806369cbb00d146105775780636f307dc3146105ab57806370aa1726146105df57600080fd5b80633778851e146104645780633d509c971461048457806344d32ee9146104a45780634641257d146104d8578063469656a2146104ed57806349cabcdf1461050d57600080fd5b80631fe4a686116102455780631fe4a6861461037c578063218751b21461039c578063283f3b56146103bc5780632e1a7d4d146103f05780633082538f14610410578063313c06a01461044457600080fd5b8062435da51461028157806306fdde03146102cd578063117da1ee146103085780631a55820d146103385780631c03e6cc1461035c575b600080fd5b34801561028d57600080fd5b507f00000000000000000000000000000000000000000000000000000000000000005b6040516001600160a01b0390911681526020015b60405180910390f35b3480156102d957600080fd5b50604080518082018252600c81526b084d6c8a8e4d290dee086ecf60a31b602082015290516102c49190614788565b34801561031457600080fd5b506103286103233660046147bb565b610887565b60405190151581526020016102c4565b34801561034457600080fd5b5061034e60075481565b6040519081526020016102c4565b34801561036857600080fd5b506103286103773660046147ec565b610a7f565b34801561038857600080fd5b50600d546102b0906001600160a01b031681565b3480156103a857600080fd5b506001546102b0906001600160a01b031681565b3480156103c857600080fd5b506102b07f000000000000000000000000000000000000000000000000000000000000000081565b3480156103fc57600080fd5b5061032861040b3660046147bb565b610d4a565b34801561041c57600080fd5b5061034e7f000000000000000000000000000000000000000000000000000000000000000081565b34801561045057600080fd5b506004546102b0906001600160a01b031681565b34801561047057600080fd5b5061034e61047f3660046147bb565b611132565b34801561049057600080fd5b5061032861049f3660046147ec565b611241565b3480156104b057600080fd5b506102b07f000000000000000000000000000000000000000000000000000000000000000081565b3480156104e457600080fd5b5061034e611383565b3480156104f957600080fd5b506103286105083660046147ec565b6113fa565b34801561051957600080fd5b506103286105283660046147bb565b61163b565b34801561053957600080fd5b5061034e60065481565b34801561054f57600080fd5b506000610328565b34801561056357600080fd5b50600a546102b0906001600160a01b031681565b34801561058357600080fd5b5061034e7f000000000000000000000000000000000000000000000000000000000000000081565b3480156105b757600080fd5b506102b07f000000000000000000000000000000000000000000000000000000000000000081565b3480156105eb57600080fd5b506103286105fa3660046147bb565b611762565b34801561060b57600080fd5b5061034e60035481565b34801561062157600080fd5b5061034e611930565b34801561063657600080fd5b5061034e60025481565b34801561064c57600080fd5b5061032861065b3660046147bb565b611bd2565b34801561066c57600080fd5b5061068061067b366004614809565b611cf9565b005b34801561068e57600080fd5b506102b061069d3660046147ec565b600e602052600090815260409020546001600160a01b031681565b3480156106c457600080fd5b5061034e600b5481565b3480156106da57600080fd5b506005546102b0906001600160a01b031681565b3480156106fa57600080fd5b506103286107093660046147bb565b612079565b34801561071a57600080fd5b5061034e6121a0565b34801561072f57600080fd5b5061034e60085481565b34801561074557600080fd5b50600d5461032890600160a01b900460ff1681565b34801561076657600080fd5b506103286107753660046147ec565b6121f0565b34801561078657600080fd5b506103286107953660046147ec565b612330565b3480156107a657600080fd5b5061034e60005481565b6103286123cf565b3480156107c457600080fd5b5061034e612446565b3480156107d957600080fd5b506103286107e83660046147bb565b612560565b3480156107f957600080fd5b506103286108083660046147bb565b612687565b34801561081957600080fd5b506102b07f000000000000000000000000000000000000000000000000000000000000000081565b34801561084d57600080fd5b50610328612855565b34801561086257600080fd5b5061034e60095481565b34801561087857600080fd5b5061034e600c5481565b905090565b60007f0000000000000000000000000000000000000000000000000000000000000000604051632474521560e21b815269676f7665726e616e636560b01b60048201523360248201526001600160a01b0391909116906391d148549060440160206040518083038186803b1580156108fe57600080fd5b505afa158015610912573d6000803e3d6000fd5b505050506040513d601f19601f82011682018060405250810190610936919061483b565b604051806040016040528060138152602001600080516020614bd5833981519152815250906109815760405162461bcd60e51b81526004016109789190614788565b60405180910390fd5b5060408051808201909152601a81527f496e76616c696420736c69707061676520746f6c6572616e63650000000000006020820152670de0b6b3a76400008311156109df5760405162461bcd60e51b81526004016109789190614788565b5060408051808201909152601a81527f496e76616c696420736c69707061676520746f6c6572616e63650000000000006020820152670b1a2bc2ec5000008311610a3c5760405162461bcd60e51b81526004016109789190614788565b5060008290556040518281527fe4a7fd2711237e77309a9a16ff636a748dbf956fd91f6e6da800d9302f441a79906020015b60405180910390a15060015b919050565b60007f0000000000000000000000000000000000000000000000000000000000000000604051632474521560e21b815269676f7665726e616e636560b01b60048201523360248201526001600160a01b0391909116906391d148549060440160206040518083038186803b158015610af657600080fd5b505afa158015610b0a573d6000803e3d6000fd5b505050506040513d601f19601f82011682018060405250810190610b2e919061483b565b604051806040016040528060138152602001600080516020614bd583398151915281525090610b705760405162461bcd60e51b81526004016109789190614788565b506001600160a01b038216734e3fbd56cd56c3e72c1403e103b45db9da5b9d2b14801590610bd057507f00000000000000000000000000000000000000000000000000000000000000006001600160a01b0316826001600160a01b031614155b8015610bf957506001600160a01b03821673d533a949740bb3306d119cc777fa900ba034cd5214155b8015610c2257506001600160a01b03821673c02aaa39b223fe8d0a0e5c4f27ead9083c756cc214155b60405180604001604052806014815260200173125b9d985b1a59081d1bdad95b881d1bc818591960621b81525090610c6d5760405162461bcd60e51b81526004016109789190614788565b506001600160a01b03821660009081526010602052604090205415610c9457506000919050565b610c9f600f83612b22565b50610cbe8273d9e1ce17f2641f24ae83637ab66a2cca9c378b9f612b37565b610ce76001600160a01b03831673d9e1ce17f2641f24ae83637ab66a2cca9c378b9f60006129ad565b610d116001600160a01b03831673d9e1ce17f2641f24ae83637ab66a2cca9c378b9f6000196129ad565b6040516001600160a01b03831681527f851bbb4304bf0768ed98b97e429b5bd1dcc1f194b36cd1650f40293e951ae39390602001610a6e565b6040805180820190915260138152600080516020614bd58339815191526020820152600090336001600160a01b037f00000000000000000000000000000000000000000000000000000000000000001614610db85760405162461bcd60e51b81526004016109789190614788565b5081610dc657506000919050565b6000610dd0612b65565b9050828110610e6957610e2d6001600160a01b037f0000000000000000000000000000000000000000000000000000000000000000167f000000000000000000000000000000000000000000000000000000000000000085612c00565b6040518381527f5b6b431d4476a211bb7d41c20d1aab9ae2321deee0d20be3d9fc9b1093fa6e3d9060200160405180910390a150600192915050565b6000610e75828561486c565b90506000610e8282612c30565b90506000610e8e612c54565b610e98908361486c565b90506000610ea582612ca3565b90506000610eb1612cc7565b610ebb908361486c565b600554604051636197390160e11b815260048101839052600060248201529192506001600160a01b03169063c32e720290604401602060405180830381600087803b158015610f0957600080fd5b505af1158015610f1d573d6000803e3d6000fd5b505050506040513d601f19601f82011682018060405250810190610f41919061483b565b610f5357506000979650505050505050565b610f5b614720565b838160035460028110610f7057610f70614883565b602002015260015460405163e310327360e01b81526001600160a01b039091169063e310327390610fa79084908790600401614899565b600060405180830381600087803b158015610fc157600080fd5b505af1158015610fd5573d6000803e3d6000fd5b50505050610fe161473e565b86817f00000000000000000000000000000000000000000000000000000000000000006003811061101457611014614883565b60200201526040516327f6ba8360e21b81526001600160a01b037f00000000000000000000000000000000000000000000000000000000000000001690639fdaea0c906110679084908a906004016148d1565b600060405180830381600087803b15801561108157600080fd5b505af1158015611095573d6000803e3d6000fd5b506110ef9250506001600160a01b037f00000000000000000000000000000000000000000000000000000000000000001690507f00000000000000000000000000000000000000000000000000000000000000008c612c00565b6040518a81527f5b6b431d4476a211bb7d41c20d1aab9ae2321deee0d20be3d9fc9b1093fa6e3d9060200160405180910390a15060019998505050505050505050565b600080734e3fbd56cd56c3e72c1403e103b45db9da5b9d2b6001600160a01b03166318160ddd6040518163ffffffff1660e01b815260040160206040518083038186803b15801561118257600080fd5b505afa158015611196573d6000803e3d6000fd5b505050506040513d601f19601f820116820180604052508101906111ba9190614909565b905060006111d269152d02c7e14af680000083614922565b90506103e881106111e7575060009392505050565b60006111f5826103e861486c565b905060006103e86112068388614944565b6112109190614922565b90506000611229856a52b7d2dcc80cd2e400000061486c565b905080821115611237578091505b5095945050505050565b60007f0000000000000000000000000000000000000000000000000000000000000000604051632474521560e21b815269676f7665726e616e636560b01b60048201523360248201526001600160a01b0391909116906391d148549060440160206040518083038186803b1580156112b857600080fd5b505afa1580156112cc573d6000803e3d6000fd5b505050506040513d601f19601f820116820180604052508101906112f0919061483b565b604051806040016040528060138152602001600080516020614bd5833981519152815250906113325760405162461bcd60e51b81526004016109789190614788565b5061133e600f83612cfd565b61134a57506000919050565b6040516001600160a01b03831681527f36bd04094fa067bb9471a8fbdb0a6e8a43424a2566ad3a740c88973fa40a311890602001610a6e565b6040805180820190915260138152600080516020614bd58339815191526020820152600090336001600160a01b037f000000000000000000000000000000000000000000000000000000000000000016146113f15760405162461bcd60e51b81526004016109789190614788565b50610882612d12565b60007f0000000000000000000000000000000000000000000000000000000000000000604051632474521560e21b815269676f7665726e616e636560b01b60048201523360248201526001600160a01b0391909116906391d148549060440160206040518083038186803b15801561147157600080fd5b505afa158015611485573d6000803e3d6000fd5b505050506040513d601f19601f820116820180604052508101906114a9919061483b565b604051806040016040528060138152602001600080516020614bd5833981519152815250906114eb5760405162461bcd60e51b81526004016109789190614788565b506001600160a01b038083166000908152600e6020908152604091829020548251808401909352601d83527f6e6f2064657820686173206265656e2073657420666f7220746f6b656e0000009183019190915290911690816115605760405162461bcd60e51b81526004016109789190614788565b5060006001600160a01b03821673d9e1ce17f2641f24ae83637ab66a2cca9c378b9f146115a15773d9e1ce17f2641f24ae83637ab66a2cca9c378b9f6115b7565b737a250d5630b4cf539739df2c5dacb4c659f2488d5b90506115c38482612b37565b6115d86001600160a01b0385168260006129ad565b6115ee6001600160a01b038516826000196129ad565b604080516001600160a01b038087168252831660208201527fcac2ded52b5e76b519f6013bcd694b2426f57750994e28325ae931943a49ead2910160405180910390a15060019392505050565b60007f0000000000000000000000000000000000000000000000000000000000000000604051632474521560e21b815269676f7665726e616e636560b01b60048201523360248201526001600160a01b0391909116906391d148549060440160206040518083038186803b1580156116b257600080fd5b505afa1580156116c6573d6000803e3d6000fd5b505050506040513d601f19601f820116820180604052508101906116ea919061483b565b604051806040016040528060138152602001600080516020614bd58339815191528152509061172c5760405162461bcd60e51b81526004016109789190614788565b5060068290556040518281527f4ede3e4e9f7997fda6ff4a12d6c43d5c9e1e2055065cbc15f902f504f72dc8c090602001610a6e565b60007f0000000000000000000000000000000000000000000000000000000000000000604051632474521560e21b815269676f7665726e616e636560b01b60048201523360248201526001600160a01b0391909116906391d148549060440160206040518083038186803b1580156117d957600080fd5b505afa1580156117ed573d6000803e3d6000fd5b505050506040513d601f19601f82011682018060405250810190611811919061483b565b604051806040016040528060138152602001600080516020614bd5833981519152815250906118535760405162461bcd60e51b81526004016109789190614788565b5060408051808201909152600e81526d1a5b9d985b1a5908185b5bdd5b9d60921b6020820152670de0b6b3a76400008311156118a25760405162461bcd60e51b81526004016109789190614788565b50600a546001600160a01b03166118fb5760405162461bcd60e51b815260206004820152601d60248201527f436f6d6d756e6974792072657365727665206d757374206265207365740000006044820152606401610978565b600c8290556040518281527f1a8542dffa4956932e66916113e6a123e123956172fbc0e2e59df92b8a87d8e690602001610a6e565b6000336001600160a01b037f0000000000000000000000000000000000000000000000000000000000000000161480611a1157507f0000000000000000000000000000000000000000000000000000000000000000604051632474521560e21b815269676f7665726e616e636560b01b60048201523360248201526001600160a01b0391909116906391d148549060440160206040518083038186803b1580156119d957600080fd5b505afa1580156119ed573d6000803e3d6000fd5b505050506040513d601f19601f82011682018060405250810190611a11919061483b565b604051806040016040528060138152602001600080516020614bd583398151915281525090611a535760405162461bcd60e51b81526004016109789190614788565b50611a5c612e53565b6000611a66612c54565b90508015611b2a577f00000000000000000000000000000000000000000000000000000000000000006001600160a01b0316631a4d01d2827f0000000000000000000000000000000000000000000000000000000000000000611ac885612f83565b6040516001600160e01b031960e086901b1681526004810193909352600f9190910b60248301526044820152606401600060405180830381600087803b158015611b1157600080fd5b505af1158015611b25573d6000803e3d6000fd5b505050505b6000611b34612b65565b905080611b445760009250505090565b611b986001600160a01b037f0000000000000000000000000000000000000000000000000000000000000000167f000000000000000000000000000000000000000000000000000000000000000083612c00565b6040518181527f3d5a341dc6a12221fcf31279cef3771f8fad757b2d9261f97605ccc17c257424906020015b60405180910390a192915050565b60007f0000000000000000000000000000000000000000000000000000000000000000604051632474521560e21b815269676f7665726e616e636560b01b60048201523360248201526001600160a01b0391909116906391d148549060440160206040518083038186803b158015611c4957600080fd5b505afa158015611c5d573d6000803e3d6000fd5b505050506040513d601f19601f82011682018060405250810190611c81919061483b565b604051806040016040528060138152602001600080516020614bd583398151915281525090611cc35760405162461bcd60e51b81526004016109789190614788565b5060088290556040518281527fe6b4374e594cac6d717f89735f722a01c53affe6a4603ed44e09004666b7a6f390602001610a6e565b7f0000000000000000000000000000000000000000000000000000000000000000604051632474521560e21b815269676f7665726e616e636560b01b60048201523360248201526001600160a01b0391909116906391d148549060440160206040518083038186803b158015611d6e57600080fd5b505afa158015611d82573d6000803e3d6000fd5b505050506040513d601f19601f82011682018060405250810190611da6919061483b565b604051806040016040528060138152602001600080516020614bd583398151915281525090611de85760405162461bcd60e51b81526004016109789190614788565b50611df1612d12565b50611dfa612e53565b60028290556003819055604051631526fe2760e01b815260048101839052600090819073f403c135812408bfbe8713b5a23a04b3d48aae3190631526fe279060240160c060405180830381600087803b158015611e5657600080fd5b505af1158015611e6a573d6000803e3d6000fd5b505050506040513d601f19601f82011682018060405250810190611e8e9190614963565b5050600480546001600160a01b03199081166001600160a01b038781169182178455600580549093169085161790915560405163bdf475c360e01b81529182015293955093506000927390e00ace148ca3b23ac1bc8c240c2a7dd9c2d7f5925063bdf475c39150602401602060405180830381600087803b158015611f1257600080fd5b505af1158015611f26573d6000803e3d6000fd5b505050506040513d601f19601f82011682018060405250810190611f4a91906149e5565b600180546001600160a01b0319166001600160a01b0383811691909117909155909150611f9b907f0000000000000000000000000000000000000000000000000000000000000000168260006129ad565b611fd16001600160a01b037f000000000000000000000000000000000000000000000000000000000000000016826000196129ad565b611ffa6001600160a01b03841673f403c135812408bfbe8713b5a23a04b3d48aae3160006129ad565b6120246001600160a01b03841673f403c135812408bfbe8713b5a23a04b3d48aae316000196129ad565b61202c612fa7565b6040518060400160405280600e81526020016d19195c1bdcda5d0819985a5b195960921b815250906120715760405162461bcd60e51b81526004016109789190614788565b505050505050565b60007f0000000000000000000000000000000000000000000000000000000000000000604051632474521560e21b815269676f7665726e616e636560b01b60048201523360248201526001600160a01b0391909116906391d148549060440160206040518083038186803b1580156120f057600080fd5b505afa158015612104573d6000803e3d6000fd5b505050506040513d601f19601f82011682018060405250810190612128919061483b565b604051806040016040528060138152602001600080516020614bd58339815191528152509061216a5760405162461bcd60e51b81526004016109789190614788565b5060098290556040518281527f8b8ad8032596ef90599a67881aed48dba49c88dd982cd479440bfcee796dcf8b90602001610a6e565b60006121de6121ad612c54565b6121cf6121b8612cc7565b6121c06132b5565b6121ca9190614a02565b6132e6565b6121d99190614a02565b613400565b6121e6612b65565b6108829190614a02565b60007f0000000000000000000000000000000000000000000000000000000000000000604051632474521560e21b815269676f7665726e616e636560b01b60048201523360248201526001600160a01b0391909116906391d148549060440160206040518083038186803b15801561226757600080fd5b505afa15801561227b573d6000803e3d6000fd5b505050506040513d601f19601f8201168201806040525081019061229f919061483b565b604051806040016040528060138152602001600080516020614bd5833981519152815250906122e15760405162461bcd60e51b81526004016109789190614788565b50600a80546001600160a01b0319166001600160a01b0384169081179091556040519081527f17d7ba6682f162782054b119192f8e5b98fe7090b4bec7a55fc7075d9cd859ee90602001610a6e565b600d546040805180820190915260138152600080516020614bd583398151915260208201526000916001600160a01b031633146123805760405162461bcd60e51b81526004016109789190614788565b50600d80546001600160a01b0319166001600160a01b0384169081179091556040519081527f46d58e3fa07bf19b1d27240f0e286b27e9f7c1b0d88933333fe833b60eec541290602001610a6e565b6040805180820190915260138152600080516020614bd58339815191526020820152600090336001600160a01b037f0000000000000000000000000000000000000000000000000000000000000000161461243d5760405162461bcd60e51b81526004016109789190614788565b50610882612fa7565b6005546040516246613160e11b815230600482015260009182916001600160a01b0390911690628cc2629060240160206040518083038186803b15801561248c57600080fd5b505afa1580156124a0573d6000803e3d6000fd5b505050506040513d601f19601f820116820180604052508101906124c49190614909565b9050806124d357600091505090565b612518734e3fbd56cd56c3e72c1403e103b45db9da5b9d2b612513600b54670de0b6b3a7640000612504919061486c565b61250d85611132565b906134c0565b6134df565b61255073d533a949740bb3306d119cc777fa900ba034cd52612513600c54670de0b6b3a7640000612549919061486c565b85906134c0565b61255a9190614a02565b91505090565b60007f0000000000000000000000000000000000000000000000000000000000000000604051632474521560e21b815269676f7665726e616e636560b01b60048201523360248201526001600160a01b0391909116906391d148549060440160206040518083038186803b1580156125d757600080fd5b505afa1580156125eb573d6000803e3d6000fd5b505050506040513d601f19601f8201168201806040525081019061260f919061483b565b604051806040016040528060138152602001600080516020614bd5833981519152815250906126515760405162461bcd60e51b81526004016109789190614788565b5060078290556040518281527fb2861fed34a4613f8f25f46553a23408a3364ee9ddc4ef6714f0a81d856e41a790602001610a6e565b60007f0000000000000000000000000000000000000000000000000000000000000000604051632474521560e21b815269676f7665726e616e636560b01b60048201523360248201526001600160a01b0391909116906391d148549060440160206040518083038186803b1580156126fe57600080fd5b505afa158015612712573d6000803e3d6000fd5b505050506040513d601f19601f82011682018060405250810190612736919061483b565b604051806040016040528060138152602001600080516020614bd5833981519152815250906127785760405162461bcd60e51b81526004016109789190614788565b5060408051808201909152600e81526d1a5b9d985b1a5908185b5bdd5b9d60921b6020820152670de0b6b3a76400008311156127c75760405162461bcd60e51b81526004016109789190614788565b50600a546001600160a01b03166128205760405162461bcd60e51b815260206004820152601d60248201527f436f6d6d756e6974792072657365727665206d757374206265207365740000006044820152606401610978565b600b8290556040518281527f2c3c7d70a1dfbfaf74447753b8a73e1323aa10b32b9209742db563671e14b13c90602001610a6e565b6040805180820190915260138152600080516020614bd58339815191526020820152600090336001600160a01b037f000000000000000000000000000000000000000000000000000000000000000016146128c35760405162461bcd60e51b81526004016109789190614788565b50600d54600160a01b900460ff16156128dc5750600090565b600d805460ff60a01b1916600160a01b1790556040517f4426aa1fb73e391071491fcfe21a88b5c38a0a0333a1f6e77161470439704cf890600090a150600190565b6040516321f8a72160e01b81526a3937b632a6b0b730b3b2b960a91b60048201526000906001600160a01b038316906321f8a721906024015b60206040518083038186803b15801561296f57600080fd5b505afa158015612983573d6000803e3d6000fd5b505050506040513d601f19601f820116820180604052508101906129a791906149e5565b92915050565b801580612a365750604051636eb1769f60e11b81523060048201526001600160a01b03838116602483015284169063dd62ed3e9060440160206040518083038186803b1580156129fc57600080fd5b505afa158015612a10573d6000803e3d6000fd5b505050506040513d601f19601f82011682018060405250810190612a349190614909565b155b612aa15760405162461bcd60e51b815260206004820152603660248201527f5361666545524332303a20617070726f76652066726f6d206e6f6e2d7a65726f60448201527520746f206e6f6e2d7a65726f20616c6c6f77616e636560501b6064820152608401610978565b6040516001600160a01b038316602482015260448101829052612b0490849063095ea7b360e01b906064015b60408051601f198184030181529190526020810180516001600160e01b03166001600160e01b0319909316929092179091526138a9565b505050565b6060612b18848460008561397b565b90505b9392505050565b6000612b1b836001600160a01b038416613aac565b6001600160a01b039182166000908152600e6020526040902080546001600160a01b03191691909216179055565b6040516370a0823160e01b81523060048201526000907f00000000000000000000000000000000000000000000000000000000000000006001600160a01b0316906370a08231906024015b60206040518083038186803b158015612bc857600080fd5b505afa158015612bdc573d6000803e3d6000fd5b505050506040513d601f19601f820116820180604052508101906108829190614909565b6040516001600160a01b038316602482015260448101829052612b0490849063a9059cbb60e01b90606401612acd565b60006129a7600954670de0b6b3a7640000612c4b9190614a02565b61250d84613afb565b6040516370a0823160e01b81523060048201526000907f00000000000000000000000000000000000000000000000000000000000000006001600160a01b0316906370a0823190602401612bb0565b60006129a7600754670de0b6b3a7640000612cbe9190614a02565b61250d84613bbb565b600480546040516370a0823160e01b815230928101929092526000916001600160a01b03909116906370a0823190602401612bb0565b6000612b1b836001600160a01b038416613ca2565b600080612d1d612b65565b9050600560009054906101000a90046001600160a01b03166001600160a01b0316633d18b9126040518163ffffffff1660e01b8152600401600060405180830381600087803b158015612d6f57600080fd5b505af1158015612d83573d6000803e3d6000fd5b50505050612d8f613d95565b612dac734e3fbd56cd56c3e72c1403e103b45db9da5b9d2b613f31565b612dc973d533a949740bb3306d119cc777fa900ba034cd52613f31565b60005b612dd6600f613fb7565b811015612e0257612df0612deb600f83613fc1565b613f31565b80612dfa81614a1a565b915050612dcc565b50612e0b613fcd565b600081612e16612b65565b612e20919061486c565b90507f80f97f878e16410266694f134ddf012f2be424f54f8b5cafa107eccc51d00d5881604051611bc491815260200190565b6000612e5d6132b5565b90508015612eec57600554604051636197390160e11b815260048101839052600060248201526001600160a01b039091169063c32e720290604401602060405180830381600087803b158015612eb257600080fd5b505af1158015612ec6573d6000803e3d6000fd5b505050506040513d601f19601f82011682018060405250810190612eea919061483b565b505b6000612ef6612cc7565b90508015612f7f576001546003546001600160a01b0390911690631a4d01d2908390612f21826142cd565b6040516001600160e01b031960e086901b1681526004810193909352600f9190910b602483015260448201526064015b600060405180830381600087803b158015612f6b57600080fd5b505af1158015612071573d6000803e3d6000fd5b5050565b60006129a7600954670de0b6b3a7640000612f9e919061486c565b61250d84613400565b604080518082019091526011815270696e76616c6964206d73672e76616c756560781b60208201526000903415612ff15760405162461bcd60e51b81526004016109789190614788565b50600d5460408051808201909152601581527429ba3930ba32b3bc9034b99039b43aba103237bbb760591b602082015290600160a01b900460ff161561304a5760405162461bcd60e51b81526004016109789190614788565b506000613055612b65565b905080156131275761306561473e565b81817f00000000000000000000000000000000000000000000000000000000000000006003811061309857613098614883565b60200201526001600160a01b037f000000000000000000000000000000000000000000000000000000000000000016634515cef3826130d6856142f1565b6040518363ffffffff1660e01b81526004016130f39291906148d1565b600060405180830381600087803b15801561310d57600080fd5b505af1158015613121573d6000803e3d6000fd5b50505050505b6000613131612c54565b905080156131c757613141614720565b81816003546002811061315657613156614883565b60200201526001546001600160a01b0316630b4c7e4d826131768561430c565b6040518363ffffffff1660e01b8152600401613193929190614899565b600060405180830381600087803b1580156131ad57600080fd5b505af11580156131c1573d6000803e3d6000fd5b50505050505b6131cf612cc7565b6131dc5760009250505090565b60025460405163303acfe760e11b815260048101919091526001602482015273f403c135812408bfbe8713b5a23a04b3d48aae31906360759fce90604401602060405180830381600087803b15801561323457600080fd5b505af1158015613248573d6000803e3d6000fd5b505050506040513d601f19601f8201168201806040525081019061326c919061483b565b6132795760009250505090565b6040518281527f4d6ce1e535dbade1c23defba91e23b8f791ce5edc0cc320257a2b364e4e384269060200160405180910390a160019250505090565b6005546040516370a0823160e01b81523060048201526000916001600160a01b0316906370a0823190602401612bb0565b60006129a77f00000000000000000000000000000000000000000000000000000000000000006001600160a01b031663bb7b8b806040518163ffffffff1660e01b815260040160206040518083038186803b15801561334457600080fd5b505afa158015613358573d6000803e3d6000fd5b505050506040513d601f19601f8201168201806040525081019061337c9190614909565b60015460408051630176f71760e71b815290516133fa926001600160a01b03169163bb7b8b80916004808301926020929190829003018186803b1580156133c257600080fd5b505afa1580156133d6573d6000803e3d6000fd5b505050506040513d601f19601f820116820180604052508101906125499190614909565b90614327565b60006129a77f00000000000000000000000000000000000000000000000000000000000000006001600160a01b031663bb7b8b806040518163ffffffff1660e01b815260040160206040518083038186803b15801561345e57600080fd5b505afa158015613472573d6000803e3d6000fd5b505050506040513d601f19601f820116820180604052508101906134969190614909565b61250d7f000000000000000000000000000000000000000000000000000000000000000085614922565b6000670de0b6b3a76400006134d58385614944565b612b1b9190614922565b6000816134ee575060006129a7565b60606001600160a01b038416734e3fbd56cd56c3e72c1403e103b45db9da5b9d2b141561370e576040805160028082526060820183527f00000000000000000000000000000000000000000000000000000000000000009260208301908036833701905050915073c02aaa39b223fe8d0a0e5c4f27ead9083c756cc28260008151811061357d5761357d614883565b60200260200101906001600160a01b031690816001600160a01b03168152505080826001815181106135b1576135b1614883565b6001600160a01b039283166020918202929092018101919091528282166000908152600e909152604080822054905163556d6e9f60e01b8152600160048201526024810192909252604482018790529091169063d06ca61f9073b576491f1e6e5e62f1d8f26062ee822b40b0e0d49063556d6e9f9060640160206040518083038186803b15801561364157600080fd5b505afa158015613655573d6000803e3d6000fd5b505050506040513d601f19601f820116820180604052508101906136799190614909565b846040518363ffffffff1660e01b8152600401613697929190614a8f565b60006040518083038186803b1580156136af57600080fd5b505afa1580156136c3573d6000803e3d6000fd5b505050506040513d6000823e601f3d908101601f191682016040526136eb9190810190614aa8565b6001815181106136fd576136fd614883565b6020026020010151925050506129a7565b604080516003808252608082019092529060208201606080368337019050509050838160008151811061374357613743614883565b60200260200101906001600160a01b031690816001600160a01b03168152505073c02aaa39b223fe8d0a0e5c4f27ead9083c756cc28160018151811061378b5761378b614883565b60200260200101906001600160a01b031690816001600160a01b0316815250507f0000000000000000000000000000000000000000000000000000000000000000816002815181106137df576137df614883565b6001600160a01b039283166020918202929092018101919091528582166000908152600e90915260409081902054905163d06ca61f60e01b815291169063d06ca61f906138329086908590600401614a8f565b60006040518083038186803b15801561384a57600080fd5b505afa15801561385e573d6000803e3d6000fd5b505050506040513d6000823e601f3d908101601f191682016040526138869190810190614aa8565b60028151811061389857613898614883565b602002602001015191505092915050565b60006138fe826040518060400160405280602081526020017f5361666545524332303a206c6f772d6c6576656c2063616c6c206661696c6564815250856001600160a01b0316612b099092919063ffffffff16565b805190915015612b04578080602001905181019061391c919061483b565b612b045760405162461bcd60e51b815260206004820152602a60248201527f5361666545524332303a204552433230206f7065726174696f6e20646964206e6044820152691bdd081cdd58d8d9595960b21b6064820152608401610978565b6060824710156139dc5760405162461bcd60e51b815260206004820152602660248201527f416464726573733a20696e73756666696369656e742062616c616e636520666f6044820152651c8818d85b1b60d21b6064820152608401610978565b6001600160a01b0385163b613a335760405162461bcd60e51b815260206004820152601d60248201527f416464726573733a2063616c6c20746f206e6f6e2d636f6e74726163740000006044820152606401610978565b600080866001600160a01b03168587604051613a4f9190614b66565b60006040518083038185875af1925050503d8060008114613a8c576040519150601f19603f3d011682016040523d82523d6000602084013e613a91565b606091505b5091509150613aa182828661433c565b979650505050505050565b6000818152600183016020526040812054613af3575081546001818101845560008481526020808220909301849055845484825282860190935260409020919091556129a7565b5060006129a7565b60006129a77f00000000000000000000000000000000000000000000000000000000000000006001600160a01b031663bb7b8b806040518163ffffffff1660e01b815260040160206040518083038186803b158015613b5957600080fd5b505afa158015613b6d573d6000803e3d6000fd5b505050506040513d601f19601f82011682018060405250810190613b919190614909565b6133fa7f000000000000000000000000000000000000000000000000000000000000000085614944565b60006129a7600160009054906101000a90046001600160a01b03166001600160a01b031663bb7b8b806040518163ffffffff1660e01b815260040160206040518083038186803b158015613c0e57600080fd5b505afa158015613c22573d6000803e3d6000fd5b505050506040513d601f19601f82011682018060405250810190613c469190614909565b6133fa7f00000000000000000000000000000000000000000000000000000000000000006001600160a01b031663bb7b8b806040518163ffffffff1660e01b815260040160206040518083038186803b1580156133c257600080fd5b60008181526001830160205260408120548015613d8b576000613cc660018361486c565b8554909150600090613cda9060019061486c565b9050818114613d3f576000866000018281548110613cfa57613cfa614883565b9060005260206000200154905080876000018481548110613d1d57613d1d614883565b6000918252602080832090910192909255918252600188019052604090208390555b8554869080613d5057613d50614b82565b6001900381819060005260206000200160009055905585600101600086815260200190815260200160002060009055600193505050506129a7565b60009150506129a7565b600a546001600160a01b031680613da95750565b600b548015613e6b576040516370a0823160e01b8152306004820152600090734e3fbd56cd56c3e72c1403e103b45db9da5b9d2b906370a082319060240160206040518083038186803b158015613dff57600080fd5b505afa158015613e13573d6000803e3d6000fd5b505050506040513d601f19601f82011682018060405250810190613e379190614909565b90508015613e6957613e6983613e4d83856134c0565b734e3fbd56cd56c3e72c1403e103b45db9da5b9d2b9190612c00565b505b600c548015612b04576040516370a0823160e01b815230600482015260009073d533a949740bb3306d119cc777fa900ba034cd52906370a082319060240160206040518083038186803b158015613ec157600080fd5b505afa158015613ed5573d6000803e3d6000fd5b505050506040513d601f19601f82011682018060405250810190613ef99190614909565b90508015613f2b57613f2b84613f0f83856134c0565b73d533a949740bb3306d119cc777fa900ba034cd529190612c00565b50505050565b6040516370a0823160e01b81523060048201526000906001600160a01b038316906370a082319060240160206040518083038186803b158015613f7357600080fd5b505afa158015613f87573d6000803e3d6000fd5b505050506040513d601f19601f82011682018060405250810190613fab9190614909565b9050612f7f8282614375565b60006129a7825490565b6000612b1b83836146b6565b6040516370a0823160e01b815230600482015260009073c02aaa39b223fe8d0a0e5c4f27ead9083c756cc2906370a082319060240160206040518083038186803b15801561401a57600080fd5b505afa15801561402e573d6000803e3d6000fd5b505050506040513d601f19601f820116820180604052508101906140529190614909565b90508061405c5750565b60408051600280825260608201835260009260208301908036833701905050905073c02aaa39b223fe8d0a0e5c4f27ead9083c756cc2816000815181106140a5576140a5614883565b60200260200101906001600160a01b031690816001600160a01b0316815250507f0000000000000000000000000000000000000000000000000000000000000000816001815181106140f9576140f9614883565b6001600160a01b039283166020918202929092018101919091527f000000000000000000000000000000000000000000000000000000000000000082166000908152600e90915260408120549054908216916338ed17399185917f00000000000000000000000000000000000000000000000000000000000000009161424a9161250d906141a8907f0000000000000000000000000000000000000000000000000000000000000000166146e0565b60405163e5ec9db960e01b81526001600160a01b037f000000000000000000000000000000000000000000000000000000000000000081166004830152919091169063e5ec9db99060240160206040518083038186803b15801561420b57600080fd5b505afa15801561421f573d6000803e3d6000fd5b505050506040513d601f19601f820116820180604052508101906142439190614909565b8990614327565b6142549190614922565b8430426040518663ffffffff1660e01b8152600401614277959493929190614b98565b600060405180830381600087803b15801561429157600080fd5b505af11580156142a5573d6000803e3d6000fd5b505050506040513d6000823e601f3d908101601f19168201604052612b049190810190614aa8565b60006129a7600754670de0b6b3a76400006142e8919061486c565b61250d846132e6565b60006129a7600854670de0b6b3a7640000612c4b919061486c565b60006129a7600654670de0b6b3a7640000612cbe919061486c565b6000816134d5670de0b6b3a764000085614944565b6060831561434b575081612b1b565b82511561435b5782518084602001fd5b8160405162461bcd60e51b81526004016109789190614788565b8061437e575050565b6001600160a01b038216734e3fbd56cd56c3e72c1403e103b45db9da5b9d2b14156144d05773b576491f1e6e5e62f1d8f26062ee822b40b0e0d46001600160a01b0316635b41b908600160008461449a60005461250d6144067f00000000000000000000000000000000000000000000000000000000000000006001600160a01b03166146e0565b60405163e5ec9db960e01b8152734e3fbd56cd56c3e72c1403e103b45db9da5b9d2b60048201526001600160a01b03919091169063e5ec9db99060240160206040518083038186803b15801561445b57600080fd5b505afa15801561446f573d6000803e3d6000fd5b505050506040513d601f19601f820116820180604052508101906144939190614909565b89906134c0565b6040516001600160e01b031960e087901b1681526004810194909452602484019290925260448301526064820152608401612f51565b604080516002808252606082018352600092602083019080368337019050509050828160008151811061450557614505614883565b60200260200101906001600160a01b031690816001600160a01b03168152505073c02aaa39b223fe8d0a0e5c4f27ead9083c756cc28160018151811061454d5761454d614883565b6001600160a01b039283166020918202929092018101919091528482166000908152600e90915260408120549054908216916338ed173991859161463d919061250d906145bb907f0000000000000000000000000000000000000000000000000000000000000000166146e0565b60405163e5ec9db960e01b81526001600160a01b038b81166004830152919091169063e5ec9db99060240160206040518083038186803b1580156145fe57600080fd5b505afa158015614612573d6000803e3d6000fd5b505050506040513d601f19601f820116820180604052508101906146369190614909565b88906134c0565b8430426040518663ffffffff1660e01b8152600401614660959493929190614b98565b600060405180830381600087803b15801561467a57600080fd5b505af115801561468e573d6000803e3d6000fd5b505050506040513d6000823e601f3d908101601f19168201604052613f2b9190810190614aa8565b60008260000182815481106146cd576146cd614883565b9060005260206000200154905092915050565b6040516321f8a72160e01b81526d37b930b1b632a83937bb34b232b960911b60048201526000906001600160a01b038316906321f8a72190602401612957565b60405180604001604052806002906020820280368337509192915050565b60405180606001604052806003906020820280368337509192915050565b60005b8381101561477757818101518382015260200161475f565b83811115613f2b5750506000910152565b60208152600082518060208401526147a781604085016020870161475c565b601f01601f19169190910160400192915050565b6000602082840312156147cd57600080fd5b5035919050565b6001600160a01b03811681146147e957600080fd5b50565b6000602082840312156147fe57600080fd5b8135612b1b816147d4565b6000806040838503121561481c57600080fd5b50508035926020909101359150565b80518015158114610a7a57600080fd5b60006020828403121561484d57600080fd5b612b1b8261482b565b634e487b7160e01b600052601160045260246000fd5b60008282101561487e5761487e614856565b500390565b634e487b7160e01b600052603260045260246000fd5b60608101818460005b60028110156148c15781518352602092830192909101906001016148a2565b5050508260408301529392505050565b60808101818460005b60038110156148f95781518352602092830192909101906001016148da565b5050508260608301529392505050565b60006020828403121561491b57600080fd5b5051919050565b60008261493f57634e487b7160e01b600052601260045260246000fd5b500490565b600081600019048311821515161561495e5761495e614856565b500290565b60008060008060008060c0878903121561497c57600080fd5b8651614987816147d4565b6020880151909650614998816147d4565b60408801519095506149a9816147d4565b60608801519094506149ba816147d4565b60808801519093506149cb816147d4565b91506149d960a0880161482b565b90509295509295509295565b6000602082840312156149f757600080fd5b8151612b1b816147d4565b60008219821115614a1557614a15614856565b500190565b6000600019821415614a2e57614a2e614856565b5060010190565b634e487b7160e01b600052604160045260246000fd5b600081518084526020808501945080840160005b83811015614a845781516001600160a01b031687529582019590820190600101614a5f565b509495945050505050565b828152604060208201526000612b186040830184614a4b565b60006020808385031215614abb57600080fd5b825167ffffffffffffffff80821115614ad357600080fd5b818501915085601f830112614ae757600080fd5b815181811115614af957614af9614a35565b8060051b604051601f19603f83011681018181108582111715614b1e57614b1e614a35565b604052918252848201925083810185019188831115614b3c57600080fd5b938501935b82851015614b5a57845184529385019392850192614b41565b98975050505050505050565b60008251614b7881846020870161475c565b9190910192915050565b634e487b7160e01b600052603160045260246000fd5b85815284602082015260a060408201526000614bb760a0830186614a4b565b6001600160a01b039490941660608301525060800152939250505056fe756e617574686f72697a65642061636365737300000000000000000000000000a264697066735822122079467b4db15d304df6317edaf636f38a2999706f1e5ab95ae3642e6b33a6f33264736f6c63430008090033","bytecodeSha1":"8d68f22380b0c5db81671aea527d126396401215","compiler":{"evm_version":"london","optimizer":{"enabled":true,"runs":200},"version":"0.8.9+commit.e5eed63a"},"contractName":"BkdTriHopCvx","language":"Solidity","natspec":{"kind":"dev","methods":{"addRewardToken(address)":{"details":"These are tokens that are not the main assets of the strategy. For instance, temporary incentives.","notice":"Add a reward token to list of extra reward tokens.","params":{"token":"Address of token to add to reward token list."},"returns":{"_0":"True if successfully added."}},"balance()":{"details":"This includes idle underlying, idle LP and LP deposited on Convex.","notice":"Get the total underlying balance of the strategy.","returns":{"_0":"Underlying balance of strategy."}},"changeConvexPool(uint256,uint256)":{"details":"First withdraws all funds, then harvests any rewards, then changes pool, then deposits again.","notice":"Changes the Convex Pool used for farming yield, e.g. from FRAX to MIM.","params":{"convexPid_":"The PID for the new Convex Pool.","curveIndex_":"The index of the new Convex Pool Token in the new Curve Pool."}},"deposit()":{"details":"Liquidity is added to Curve Pool then Curve LP tokens are deposited \t\tinto Convex and Convex LP tokens are staked for rewards by default.","notice":"Deposit all available underlying into Convex pool.","returns":{"_0":"True if successful deposit."}},"harvest()":{"details":"Any underlying harvested is not redeposited by this method.","notice":"Harvests reward tokens and sells these for the underlying.","returns":{"_0":"Amount of underlying harvested."}},"harvestable()":{"details":"Includes rewards for CRV & CVX.","notice":"Amount of rewards that can be harvested in the underlying.","returns":{"_0":"Estimated amount of underlying available to harvest."}},"hasPendingFunds()":{"details":"Contract does not stash tokens."},"name()":{"notice":"Returns the name of the strategy.","returns":{"_0":"The name of the strategy."}},"removeRewardToken(address)":{"notice":"Remove a reward token.","params":{"token":"Address of token to remove from reward token list."},"returns":{"_0":"True if successfully removed."}},"setCommunityReserve(address)":{"details":"CRV & CVX will be taxed and allocated to the reserve,      such that Backd can participate in governance.","notice":"Set the address of the communit reserve.","params":{"_communityReserve":"Address of the community reserve."},"returns":{"_0":"True if successfully set."}},"setCrvCommunityReserveShare(uint256)":{"notice":"Set the share of CRV to send to the Community Reserve.","params":{"crvCommunityReserveShare_":"New fee charged on CRV rewards for governance."},"returns":{"_0":"True if successfully set."}},"setCvxCommunityReserveShare(uint256)":{"notice":"Set the share of CVX to send to the Community Reserve.","params":{"cvxCommunityReserveShare_":"New fee charged on CVX rewards for governance."},"returns":{"_0":"True if successfully set."}},"setHopImbalanceToleranceIn(uint256)":{"details":"Stored as a percent, e.g. 1% would be set as 0.01","notice":"Set hop imbalance tolerance for Curve Hop Pool deposits.","params":{"_hopImbalanceToleranceIn":"New hop imbalance tolarance in."},"returns":{"_0":"True if successfully set."}},"setHopImbalanceToleranceOut(uint256)":{"details":"Stored as a percent, e.g. 1% would be set as 0.01","notice":"Set hop imbalance tolerance for Curve Hop Pool withdrawals.","params":{"_hopImbalanceToleranceOut":"New hop imbalance tolarance out."},"returns":{"_0":"True if successfully set."}},"setImbalanceToleranceIn(uint256)":{"details":"Stored as a percent, e.g. 1% would be set as 0.01","notice":"Set imbalance tolerance for Curve Pool deposits.","params":{"_imbalanceToleranceIn":"New imbalance tolarance in."},"returns":{"_0":"True if successfully set."}},"setImbalanceToleranceOut(uint256)":{"details":"Stored as a percent, e.g. 1% would be set as 0.01","notice":"Set imbalance tolerance for Curve Pool withdrawals.","params":{"_imbalanceToleranceOut":"New imbalance tolarance out."},"returns":{"_0":"True if successfully set."}},"setSlippageTolerance(uint256)":{"details":"Stored as a multiplier, e.g. 2% would be set as 0.98.","notice":"Set slippage tolerance for reward token swaps.","params":{"_slippageTolerance":"New imbalance tolarance out."},"returns":{"_0":"True if successfully set."}},"setStrategist(address)":{"details":"Can only be set by current strategist.","notice":"Set strategist.","params":{"_strategist":"Address of new strategist."},"returns":{"_0":"True if successfully set."}},"shutdown()":{"notice":"Shuts down the strategy, disabling deposits.","returns":{"_0":"True if reserve was successfully set."}},"swapDex(address)":{"details":"Only SushiSwap and Uniswap are supported.","notice":"Set the DEX that should be used for swapping for a specific coin.         If Uniswap is active, it will switch to SushiSwap and vice versa.","params":{"token":"Address of token for which the DEX should be updated."}},"withdraw(uint256)":{"details":"This can only be called by the vault.      If the amount is not available, it will be made liquid.","notice":"Withdraw an amount of underlying to the vault.","params":{"amount":"Amount of underlying to withdraw."},"returns":{"_0":"True if successful withdrawal."}},"withdrawAll()":{"details":"This does not liquidate reward tokens and only considers      idle underlying, idle lp tokens and staked lp tokens.","notice":"Withdraw all underlying.","returns":{"_0":"Amount of underlying withdrawn"}}},"notice":"This is the BkdTriHopCvx strategy, which is designed to be used by a Backd ERC20 Vault. The strategy holds a given ERC20 underlying and allocates liquidity to Convex via a given Curve Pool. The Curve Pools used are Meta Pools which first require getting an LP Token from another Curve Pool. The strategy does a 'Hop' when depositing and withdrawing, by first getting the required LP Token, and then the final LP Token for Convex. Rewards received on Convex (CVX, CRV), are sold in part for the underlying. A share of earned CVX & CRV are retained on behalf of the Backd community to participate in governance.","version":1},"opcodes":"PUSH1 0x80 PUSH1 0x40 MSTORE PUSH1 0x4 CALLDATASIZE LT PUSH2 0x27C JUMPI PUSH1 0x0 CALLDATALOAD PUSH1 0xE0 SHR DUP1 PUSH4 0x7BDCDAFF GT PUSH2 0x14F JUMPI DUP1 PUSH4 0xBF86D690 GT PUSH2 0xC1 JUMPI DUP1 PUSH4 0xE9EB5088 GT PUSH2 0x7A JUMPI DUP1 PUSH4 0xE9EB5088 EQ PUSH2 0x7CD JUMPI DUP1 PUSH4 0xECF8DB0A EQ PUSH2 0x7ED JUMPI DUP1 PUSH4 0xFBFA77CF EQ PUSH2 0x80D JUMPI DUP1 PUSH4 0xFC0E74D1 EQ PUSH2 0x841 JUMPI DUP1 PUSH4 0xFDC0BFCA EQ PUSH2 0x856 JUMPI DUP1 PUSH4 0xFF0AF85B EQ PUSH2 0x86C JUMPI PUSH1 0x0 DUP1 REVERT JUMPDEST DUP1 PUSH4 0xBF86D690 EQ PUSH2 0x739 JUMPI DUP1 PUSH4 0xC2BDDF31 EQ PUSH2 0x75A JUMPI DUP1 PUSH4 0xC7B9D530 EQ PUSH2 0x77A JUMPI DUP1 PUSH4 0xD03153AA EQ PUSH2 0x79A JUMPI DUP1 PUSH4 0xD0E30DB0 EQ PUSH2 0x7B0 JUMPI DUP1 PUSH4 0xDBBD47D4 EQ PUSH2 0x7B8 JUMPI PUSH1 0x0 DUP1 REVERT JUMPDEST DUP1 PUSH4 0x9851BF38 GT PUSH2 0x113 JUMPI DUP1 PUSH4 0x9851BF38 EQ PUSH2 0x682 JUMPI DUP1 PUSH4 0x9B61A924 EQ PUSH2 0x6B8 JUMPI DUP1 PUSH4 0x9EC5A894 EQ PUSH2 0x6CE JUMPI DUP1 PUSH4 0xAA6A8CAF EQ PUSH2 0x6EE JUMPI DUP1 PUSH4 0xB69EF8A8 EQ PUSH2 0x70E JUMPI DUP1 PUSH4 0xB6ED67A8 EQ PUSH2 0x723 JUMPI PUSH1 0x0 DUP1 REVERT JUMPDEST DUP1 PUSH4 0x7BDCDAFF EQ PUSH2 0x5FF JUMPI DUP1 PUSH4 0x853828B6 EQ PUSH2 0x615 JUMPI DUP1 PUSH4 0x86993BEF EQ PUSH2 0x62A JUMPI DUP1 PUSH4 0x938511A7 EQ PUSH2 0x640 JUMPI DUP1 PUSH4 0x94EF5785 EQ PUSH2 0x660 JUMPI PUSH1 0x0 DUP1 REVERT JUMPDEST DUP1 PUSH4 0x3778851E GT PUSH2 0x1F3 JUMPI DUP1 PUSH4 0x56BE5F71 GT PUSH2 0x1AC JUMPI DUP1 PUSH4 0x56BE5F71 EQ PUSH2 0x52D JUMPI DUP1 PUSH4 0x61240EEA EQ PUSH2 0x543 JUMPI DUP1 PUSH4 0x621E8FE1 EQ PUSH2 0x557 JUMPI DUP1 PUSH4 0x69CBB00D EQ PUSH2 0x577 JUMPI DUP1 PUSH4 0x6F307DC3 EQ PUSH2 0x5AB JUMPI DUP1 PUSH4 0x70AA1726 EQ PUSH2 0x5DF JUMPI PUSH1 0x0 DUP1 REVERT JUMPDEST DUP1 PUSH4 0x3778851E EQ PUSH2 0x464 JUMPI DUP1 PUSH4 0x3D509C97 EQ PUSH2 0x484 JUMPI DUP1 PUSH4 0x44D32EE9 EQ PUSH2 0x4A4 JUMPI DUP1 PUSH4 0x4641257D EQ PUSH2 0x4D8 JUMPI DUP1 PUSH4 0x469656A2 EQ PUSH2 0x4ED JUMPI DUP1 PUSH4 0x49CABCDF EQ PUSH2 0x50D JUMPI PUSH1 0x0 DUP1 REVERT JUMPDEST DUP1 PUSH4 0x1FE4A686 GT PUSH2 0x245 JUMPI DUP1 PUSH4 0x1FE4A686 EQ PUSH2 0x37C JUMPI DUP1 PUSH4 0x218751B2 EQ PUSH2 0x39C JUMPI DUP1 PUSH4 0x283F3B56 EQ PUSH2 0x3BC JUMPI DUP1 PUSH4 0x2E1A7D4D EQ PUSH2 0x3F0 JUMPI DUP1 PUSH4 0x3082538F EQ PUSH2 0x410 JUMPI DUP1 PUSH4 0x313C06A0 EQ PUSH2 0x444 JUMPI PUSH1 0x0 DUP1 REVERT JUMPDEST DUP1 PUSH3 0x435DA5 EQ PUSH2 0x281 JUMPI DUP1 PUSH4 0x6FDDE03 EQ PUSH2 0x2CD JUMPI DUP1 PUSH4 0x117DA1EE EQ PUSH2 0x308 JUMPI DUP1 PUSH4 0x1A55820D EQ PUSH2 0x338 JUMPI DUP1 PUSH4 0x1C03E6CC EQ PUSH2 0x35C JUMPI JUMPDEST PUSH1 0x0 DUP1 REVERT JUMPDEST CALLVALUE DUP1 ISZERO PUSH2 0x28D JUMPI PUSH1 0x0 DUP1 REVERT JUMPDEST POP PUSH32 0x0 JUMPDEST PUSH1 0x40 MLOAD PUSH1 0x1 PUSH1 0x1 PUSH1 0xA0 SHL SUB SWAP1 SWAP2 AND DUP2 MSTORE PUSH1 0x20 ADD JUMPDEST PUSH1 0x40 MLOAD DUP1 SWAP2 SUB SWAP1 RETURN JUMPDEST CALLVALUE DUP1 ISZERO PUSH2 0x2D9 JUMPI PUSH1 0x0 DUP1 REVERT JUMPDEST POP PUSH1 0x40 DUP1 MLOAD DUP1 DUP3 ADD DUP3 MSTORE PUSH1 0xC DUP2 MSTORE PUSH12 0x84D6C8A8E4D290DEE086ECF PUSH1 0xA3 SHL PUSH1 0x20 DUP3 ADD MSTORE SWAP1 MLOAD PUSH2 0x2C4 SWAP2 SWAP1 PUSH2 0x4788 JUMP JUMPDEST CALLVALUE DUP1 ISZERO PUSH2 0x314 JUMPI PUSH1 0x0 DUP1 REVERT JUMPDEST POP PUSH2 0x328 PUSH2 0x323 CALLDATASIZE PUSH1 0x4 PUSH2 0x47BB JUMP JUMPDEST PUSH2 0x887 JUMP JUMPDEST PUSH1 0x40 MLOAD SWAP1 ISZERO ISZERO DUP2 MSTORE PUSH1 0x20 ADD PUSH2 0x2C4 JUMP JUMPDEST CALLVALUE DUP1 ISZERO PUSH2 0x344 JUMPI PUSH1 0x0 DUP1 REVERT JUMPDEST POP PUSH2 0x34E PUSH1 0x7 SLOAD DUP2 JUMP JUMPDEST PUSH1 0x40 MLOAD SWAP1 DUP2 MSTORE PUSH1 0x20 ADD PUSH2 0x2C4 JUMP JUMPDEST CALLVALUE DUP1 ISZERO PUSH2 0x368 JUMPI PUSH1 0x0 DUP1 REVERT JUMPDEST POP PUSH2 0x328 PUSH2 0x377 CALLDATASIZE PUSH1 0x4 PUSH2 0x47EC JUMP JUMPDEST PUSH2 0xA7F JUMP JUMPDEST CALLVALUE DUP1 ISZERO PUSH2 0x388 JUMPI PUSH1 0x0 DUP1 REVERT JUMPDEST POP PUSH1 0xD SLOAD PUSH2 0x2B0 SWAP1 PUSH1 0x1 PUSH1 0x1 PUSH1 0xA0 SHL SUB AND DUP2 JUMP JUMPDEST CALLVALUE DUP1 ISZERO PUSH2 0x3A8 JUMPI PUSH1 0x0 DUP1 REVERT JUMPDEST POP PUSH1 0x1 SLOAD PUSH2 0x2B0 SWAP1 PUSH1 0x1 PUSH1 0x1 PUSH1 0xA0 SHL SUB AND DUP2 JUMP JUMPDEST CALLVALUE DUP1 ISZERO PUSH2 0x3C8 JUMPI PUSH1 0x0 DUP1 REVERT JUMPDEST POP PUSH2 0x2B0 PUSH32 0x0 DUP2 JUMP JUMPDEST CALLVALUE DUP1 ISZERO PUSH2 0x3FC JUMPI PUSH1 0x0 DUP1 REVERT JUMPDEST POP PUSH2 0x328 PUSH2 0x40B CALLDATASIZE PUSH1 0x4 PUSH2 0x47BB JUMP JUMPDEST PUSH2 0xD4A JUMP JUMPDEST CALLVALUE DUP1 ISZERO PUSH2 0x41C JUMPI PUSH1 0x0 DUP1 REVERT JUMPDEST POP PUSH2 0x34E PUSH32 0x0 DUP2 JUMP JUMPDEST CALLVALUE DUP1 ISZERO PUSH2 0x450 JUMPI PUSH1 0x0 DUP1 REVERT JUMPDEST POP PUSH1 0x4 SLOAD PUSH2 0x2B0 SWAP1 PUSH1 0x1 PUSH1 0x1 PUSH1 0xA0 SHL SUB AND DUP2 JUMP JUMPDEST CALLVALUE DUP1 ISZERO PUSH2 0x470 JUMPI PUSH1 0x0 DUP1 REVERT JUMPDEST POP PUSH2 0x34E PUSH2 0x47F CALLDATASIZE PUSH1 0x4 PUSH2 0x47BB JUMP JUMPDEST PUSH2 0x1132 JUMP JUMPDEST CALLVALUE DUP1 ISZERO PUSH2 0x490 JUMPI PUSH1 0x0 DUP1 REVERT JUMPDEST POP PUSH2 0x328 PUSH2 0x49F CALLDATASIZE PUSH1 0x4 PUSH2 0x47EC JUMP JUMPDEST PUSH2 0x1241 JUMP JUMPDEST CALLVALUE DUP1 ISZERO PUSH2 0x4B0 JUMPI PUSH1 0x0 DUP1 REVERT JUMPDEST POP PUSH2 0x2B0 PUSH32 0x0 DUP2 JUMP JUMPDEST CALLVALUE DUP1 ISZERO PUSH2 0x4E4 JUMPI PUSH1 0x0 DUP1 REVERT JUMPDEST POP PUSH2 0x34E PUSH2 0x1383 JUMP JUMPDEST CALLVALUE DUP1 ISZERO PUSH2 0x4F9 JUMPI PUSH1 0x0 DUP1 REVERT JUMPDEST POP PUSH2 0x328 PUSH2 0x508 CALLDATASIZE PUSH1 0x4 PUSH2 0x47EC JUMP JUMPDEST PUSH2 0x13FA JUMP JUMPDEST CALLVALUE DUP1 ISZERO PUSH2 0x519 JUMPI PUSH1 0x0 DUP1 REVERT JUMPDEST POP PUSH2 0x328 PUSH2 0x528 CALLDATASIZE PUSH1 0x4 PUSH2 0x47BB JUMP JUMPDEST PUSH2 0x163B JUMP JUMPDEST CALLVALUE DUP1 ISZERO PUSH2 0x539 JUMPI PUSH1 0x0 DUP1 REVERT JUMPDEST POP PUSH2 0x34E PUSH1 0x6 SLOAD DUP2 JUMP JUMPDEST CALLVALUE DUP1 ISZERO PUSH2 0x54F JUMPI PUSH1 0x0 DUP1 REVERT JUMPDEST POP PUSH1 0x0 PUSH2 0x328 JUMP JUMPDEST CALLVALUE DUP1 ISZERO PUSH2 0x563 JUMPI PUSH1 0x0 DUP1 REVERT JUMPDEST POP PUSH1 0xA SLOAD PUSH2 0x2B0 SWAP1 PUSH1 0x1 PUSH1 0x1 PUSH1 0xA0 SHL SUB AND DUP2 JUMP JUMPDEST CALLVALUE DUP1 ISZERO PUSH2 0x583 JUMPI PUSH1 0x0 DUP1 REVERT JUMPDEST POP PUSH2 0x34E PUSH32 0x0 DUP2 JUMP JUMPDEST CALLVALUE DUP1 ISZERO PUSH2 0x5B7 JUMPI PUSH1 0x0 DUP1 REVERT JUMPDEST POP PUSH2 0x2B0 PUSH32 0x0 DUP2 JUMP JUMPDEST CALLVALUE DUP1 ISZERO PUSH2 0x5EB JUMPI PUSH1 0x0 DUP1 REVERT JUMPDEST POP PUSH2 0x328 PUSH2 0x5FA CALLDATASIZE PUSH1 0x4 PUSH2 0x47BB JUMP JUMPDEST PUSH2 0x1762 JUMP JUMPDEST CALLVALUE DUP1 ISZERO PUSH2 0x60B JUMPI PUSH1 0x0 DUP1 REVERT JUMPDEST POP PUSH2 0x34E PUSH1 0x3 SLOAD DUP2 JUMP JUMPDEST CALLVALUE DUP1 ISZERO PUSH2 0x621 JUMPI PUSH1 0x0 DUP1 REVERT JUMPDEST POP PUSH2 0x34E PUSH2 0x1930 JUMP JUMPDEST CALLVALUE DUP1 ISZERO PUSH2 0x636 JUMPI PUSH1 0x0 DUP1 REVERT JUMPDEST POP PUSH2 0x34E PUSH1 0x2 SLOAD DUP2 JUMP JUMPDEST CALLVALUE DUP1 ISZERO PUSH2 0x64C JUMPI PUSH1 0x0 DUP1 REVERT JUMPDEST POP PUSH2 0x328 PUSH2 0x65B CALLDATASIZE PUSH1 0x4 PUSH2 0x47BB JUMP JUMPDEST PUSH2 0x1BD2 JUMP JUMPDEST CALLVALUE DUP1 ISZERO PUSH2 0x66C JUMPI PUSH1 0x0 DUP1 REVERT JUMPDEST POP PUSH2 0x680 PUSH2 0x67B CALLDATASIZE PUSH1 0x4 PUSH2 0x4809 JUMP JUMPDEST PUSH2 0x1CF9 JUMP JUMPDEST STOP JUMPDEST CALLVALUE DUP1 ISZERO PUSH2 0x68E JUMPI PUSH1 0x0 DUP1 REVERT JUMPDEST POP PUSH2 0x2B0 PUSH2 0x69D CALLDATASIZE PUSH1 0x4 PUSH2 0x47EC JUMP JUMPDEST PUSH1 0xE PUSH1 0x20 MSTORE PUSH1 0x0 SWAP1 DUP2 MSTORE PUSH1 0x40 SWAP1 KECCAK256 SLOAD PUSH1 0x1 PUSH1 0x1 PUSH1 0xA0 SHL SUB AND DUP2 JUMP JUMPDEST CALLVALUE DUP1 ISZERO PUSH2 0x6C4 JUMPI PUSH1 0x0 DUP1 REVERT JUMPDEST POP PUSH2 0x34E PUSH1 0xB SLOAD DUP2 JUMP JUMPDEST CALLVALUE DUP1 ISZERO PUSH2 0x6DA JUMPI PUSH1 0x0 DUP1 REVERT JUMPDEST POP PUSH1 0x5 SLOAD PUSH2 0x2B0 SWAP1 PUSH1 0x1 PUSH1 0x1 PUSH1 0xA0 SHL SUB AND DUP2 JUMP JUMPDEST CALLVALUE DUP1 ISZERO PUSH2 0x6FA JUMPI PUSH1 0x0 DUP1 REVERT JUMPDEST POP PUSH2 0x328 PUSH2 0x709 CALLDATASIZE PUSH1 0x4 PUSH2 0x47BB JUMP JUMPDEST PUSH2 0x2079 JUMP JUMPDEST CALLVALUE DUP1 ISZERO PUSH2 0x71A JUMPI PUSH1 0x0 DUP1 REVERT JUMPDEST POP PUSH2 0x34E PUSH2 0x21A0 JUMP JUMPDEST CALLVALUE DUP1 ISZERO PUSH2 0x72F JUMPI PUSH1 0x0 DUP1 REVERT JUMPDEST POP PUSH2 0x34E PUSH1 0x8 SLOAD DUP2 JUMP JUMPDEST CALLVALUE DUP1 ISZERO PUSH2 0x745 JUMPI PUSH1 0x0 DUP1 REVERT JUMPDEST POP PUSH1 0xD SLOAD PUSH2 0x328 SWAP1 PUSH1 0x1 PUSH1 0xA0 SHL SWAP1 DIV PUSH1 0xFF AND DUP2 JUMP JUMPDEST CALLVALUE DUP1 ISZERO PUSH2 0x766 JUMPI PUSH1 0x0 DUP1 REVERT JUMPDEST POP PUSH2 0x328 PUSH2 0x775 CALLDATASIZE PUSH1 0x4 PUSH2 0x47EC JUMP JUMPDEST PUSH2 0x21F0 JUMP JUMPDEST CALLVALUE DUP1 ISZERO PUSH2 0x786 JUMPI PUSH1 0x0 DUP1 REVERT JUMPDEST POP PUSH2 0x328 PUSH2 0x795 CALLDATASIZE PUSH1 0x4 PUSH2 0x47EC JUMP JUMPDEST PUSH2 0x2330 JUMP JUMPDEST CALLVALUE DUP1 ISZERO PUSH2 0x7A6 JUMPI PUSH1 0x0 DUP1 REVERT JUMPDEST POP PUSH2 0x34E PUSH1 0x0 SLOAD DUP2 JUMP JUMPDEST PUSH2 0x328 PUSH2 0x23CF JUMP JUMPDEST CALLVALUE DUP1 ISZERO PUSH2 0x7C4 JUMPI PUSH1 0x0 DUP1 REVERT JUMPDEST POP PUSH2 0x34E PUSH2 0x2446 JUMP JUMPDEST CALLVALUE DUP1 ISZERO PUSH2 0x7D9 JUMPI PUSH1 0x0 DUP1 REVERT JUMPDEST POP PUSH2 0x328 PUSH2 0x7E8 CALLDATASIZE PUSH1 0x4 PUSH2 0x47BB JUMP JUMPDEST PUSH2 0x2560 JUMP JUMPDEST CALLVALUE DUP1 ISZERO PUSH2 0x7F9 JUMPI PUSH1 0x0 DUP1 REVERT JUMPDEST POP PUSH2 0x328 PUSH2 0x808 CALLDATASIZE PUSH1 0x4 PUSH2 0x47BB JUMP JUMPDEST PUSH2 0x2687 JUMP JUMPDEST CALLVALUE DUP1 ISZERO PUSH2 0x819 JUMPI PUSH1 0x0 DUP1 REVERT JUMPDEST POP PUSH2 0x2B0 PUSH32 0x0 DUP2 JUMP JUMPDEST CALLVALUE DUP1 ISZERO PUSH2 0x84D JUMPI PUSH1 0x0 DUP1 REVERT JUMPDEST POP PUSH2 0x328 PUSH2 0x2855 JUMP JUMPDEST CALLVALUE DUP1 ISZERO PUSH2 0x862 JUMPI PUSH1 0x0 DUP1 REVERT JUMPDEST POP PUSH2 0x34E PUSH1 0x9 SLOAD DUP2 JUMP JUMPDEST CALLVALUE DUP1 ISZERO PUSH2 0x878 JUMPI PUSH1 0x0 DUP1 REVERT JUMPDEST POP PUSH2 0x34E PUSH1 0xC SLOAD DUP2 JUMP JUMPDEST SWAP1 POP SWAP1 JUMP JUMPDEST PUSH1 0x0 PUSH32 0x0 PUSH1 0x40 MLOAD PUSH4 0x24745215 PUSH1 0xE2 SHL DUP2 MSTORE PUSH10 0x676F7665726E616E6365 PUSH1 0xB0 SHL PUSH1 0x4 DUP3 ADD MSTORE CALLER PUSH1 0x24 DUP3 ADD MSTORE PUSH1 0x1 PUSH1 0x1 PUSH1 0xA0 SHL SUB SWAP2 SWAP1 SWAP2 AND SWAP1 PUSH4 0x91D14854 SWAP1 PUSH1 0x44 ADD PUSH1 0x20 PUSH1 0x40 MLOAD DUP1 DUP4 SUB DUP2 DUP7 DUP1 EXTCODESIZE ISZERO DUP1 ISZERO PUSH2 0x8FE JUMPI PUSH1 0x0 DUP1 REVERT JUMPDEST POP GAS STATICCALL ISZERO DUP1 ISZERO PUSH2 0x912 JUMPI RETURNDATASIZE PUSH1 0x0 DUP1 RETURNDATACOPY RETURNDATASIZE PUSH1 0x0 REVERT JUMPDEST POP POP POP POP PUSH1 0x40 MLOAD RETURNDATASIZE PUSH1 0x1F NOT PUSH1 0x1F DUP3 ADD AND DUP3 ADD DUP1 PUSH1 0x40 MSTORE POP DUP2 ADD SWAP1 PUSH2 0x936 SWAP2 SWAP1 PUSH2 0x483B JUMP JUMPDEST PUSH1 0x40 MLOAD DUP1 PUSH1 0x40 ADD PUSH1 0x40 MSTORE DUP1 PUSH1 0x13 DUP2 MSTORE PUSH1 0x20 ADD PUSH1 0x0 DUP1 MLOAD PUSH1 0x20 PUSH2 0x4BD5 DUP4 CODECOPY DUP2 MLOAD SWAP2 MSTORE DUP2 MSTORE POP SWAP1 PUSH2 0x981 JUMPI PUSH1 0x40 MLOAD PUSH3 0x461BCD PUSH1 0xE5 SHL DUP2 MSTORE PUSH1 0x4 ADD PUSH2 0x978 SWAP2 SWAP1 PUSH2 0x4788 JUMP JUMPDEST PUSH1 0x40 MLOAD DUP1 SWAP2 SUB SWAP1 REVERT JUMPDEST POP PUSH1 0x40 DUP1 MLOAD DUP1 DUP3 ADD SWAP1 SWAP2 MSTORE PUSH1 0x1A DUP2 MSTORE PUSH32 0x496E76616C696420736C69707061676520746F6C6572616E6365000000000000 PUSH1 0x20 DUP3 ADD MSTORE PUSH8 0xDE0B6B3A7640000 DUP4 GT ISZERO PUSH2 0x9DF JUMPI PUSH1 0x40 MLOAD PUSH3 0x461BCD PUSH1 0xE5 SHL DUP2 MSTORE PUSH1 0x4 ADD PUSH2 0x978 SWAP2 SWAP1 PUSH2 0x4788 JUMP JUMPDEST POP PUSH1 0x40 DUP1 MLOAD DUP1 DUP3 ADD SWAP1 SWAP2 MSTORE PUSH1 0x1A DUP2 MSTORE PUSH32 0x496E76616C696420736C69707061676520746F6C6572616E6365000000000000 PUSH1 0x20 DUP3 ADD MSTORE PUSH8 0xB1A2BC2EC500000 DUP4 GT PUSH2 0xA3C JUMPI PUSH1 0x40 MLOAD PUSH3 0x461BCD PUSH1 0xE5 SHL DUP2 MSTORE PUSH1 0x4 ADD PUSH2 0x978 SWAP2 SWAP1 PUSH2 0x4788 JUMP JUMPDEST POP PUSH1 0x0 DUP3 SWAP1 SSTORE PUSH1 0x40 MLOAD DUP3 DUP2 MSTORE PUSH32 0xE4A7FD2711237E77309A9A16FF636A748DBF956FD91F6E6DA800D9302F441A79 SWAP1 PUSH1 0x20 ADD JUMPDEST PUSH1 0x40 MLOAD DUP1 SWAP2 SUB SWAP1 LOG1 POP PUSH1 0x1 JUMPDEST SWAP2 SWAP1 POP JUMP JUMPDEST PUSH1 0x0 PUSH32 0x0 PUSH1 0x40 MLOAD PUSH4 0x24745215 PUSH1 0xE2 SHL DUP2 MSTORE PUSH10 0x676F7665726E616E6365 PUSH1 0xB0 SHL PUSH1 0x4 DUP3 ADD MSTORE CALLER PUSH1 0x24 DUP3 ADD MSTORE PUSH1 0x1 PUSH1 0x1 PUSH1 0xA0 SHL SUB SWAP2 SWAP1 SWAP2 AND SWAP1 PUSH4 0x91D14854 SWAP1 PUSH1 0x44 ADD PUSH1 0x20 PUSH1 0x40 MLOAD DUP1 DUP4 SUB DUP2 DUP7 DUP1 EXTCODESIZE ISZERO DUP1 ISZERO PUSH2 0xAF6 JUMPI PUSH1 0x0 DUP1 REVERT JUMPDEST POP GAS STATICCALL ISZERO DUP1 ISZERO PUSH2 0xB0A JUMPI RETURNDATASIZE PUSH1 0x0 DUP1 RETURNDATACOPY RETURNDATASIZE PUSH1 0x0 REVERT JUMPDEST POP POP POP POP PUSH1 0x40 MLOAD RETURNDATASIZE PUSH1 0x1F NOT PUSH1 0x1F DUP3 ADD AND DUP3 ADD DUP1 PUSH1 0x40 MSTORE POP DUP2 ADD SWAP1 PUSH2 0xB2E SWAP2 SWAP1 PUSH2 0x483B JUMP JUMPDEST PUSH1 0x40 MLOAD DUP1 PUSH1 0x40 ADD PUSH1 0x40 MSTORE DUP1 PUSH1 0x13 DUP2 MSTORE PUSH1 0x20 ADD PUSH1 0x0 DUP1 MLOAD PUSH1 0x20 PUSH2 0x4BD5 DUP4 CODECOPY DUP2 MLOAD SWAP2 MSTORE DUP2 MSTORE POP SWAP1 PUSH2 0xB70 JUMPI PUSH1 0x40 MLOAD PUSH3 0x461BCD PUSH1 0xE5 SHL DUP2 MSTORE PUSH1 0x4 ADD PUSH2 0x978 SWAP2 SWAP1 PUSH2 0x4788 JUMP JUMPDEST POP PUSH1 0x1 PUSH1 0x1 PUSH1 0xA0 SHL SUB DUP3 AND PUSH20 0x4E3FBD56CD56C3E72C1403E103B45DB9DA5B9D2B EQ DUP1 ISZERO SWAP1 PUSH2 0xBD0 JUMPI POP PUSH32 0x0 PUSH1 0x1 PUSH1 0x1 PUSH1 0xA0 SHL SUB AND DUP3 PUSH1 0x1 PUSH1 0x1 PUSH1 0xA0 SHL SUB AND EQ ISZERO JUMPDEST DUP1 ISZERO PUSH2 0xBF9 JUMPI POP PUSH1 0x1 PUSH1 0x1 PUSH1 0xA0 SHL SUB DUP3 AND PUSH20 0xD533A949740BB3306D119CC777FA900BA034CD52 EQ ISZERO JUMPDEST DUP1 ISZERO PUSH2 0xC22 JUMPI POP PUSH1 0x1 PUSH1 0x1 PUSH1 0xA0 SHL SUB DUP3 AND PUSH20 0xC02AAA39B223FE8D0A0E5C4F27EAD9083C756CC2 EQ ISZERO JUMPDEST PUSH1 0x40 MLOAD DUP1 PUSH1 0x40 ADD PUSH1 0x40 MSTORE DUP1 PUSH1 0x14 DUP2 MSTORE PUSH1 0x20 ADD PUSH20 0x125B9D985B1A59081D1BDAD95B881D1BC8185919 PUSH1 0x62 SHL DUP2 MSTORE POP SWAP1 PUSH2 0xC6D JUMPI PUSH1 0x40 MLOAD PUSH3 0x461BCD PUSH1 0xE5 SHL DUP2 MSTORE PUSH1 0x4 ADD PUSH2 0x978 SWAP2 SWAP1 PUSH2 0x4788 JUMP JUMPDEST POP PUSH1 0x1 PUSH1 0x1 PUSH1 0xA0 SHL SUB DUP3 AND PUSH1 0x0 SWAP1 DUP2 MSTORE PUSH1 0x10 PUSH1 0x20 MSTORE PUSH1 0x40 SWAP1 KECCAK256 SLOAD ISZERO PUSH2 0xC94 JUMPI POP PUSH1 0x0 SWAP2 SWAP1 POP JUMP JUMPDEST PUSH2 0xC9F PUSH1 0xF DUP4 PUSH2 0x2B22 JUMP JUMPDEST POP PUSH2 0xCBE DUP3 PUSH20 0xD9E1CE17F2641F24AE83637AB66A2CCA9C378B9F PUSH2 0x2B37 JUMP JUMPDEST PUSH2 0xCE7 PUSH1 0x1 PUSH1 0x1 PUSH1 0xA0 SHL SUB DUP4 AND PUSH20 0xD9E1CE17F2641F24AE83637AB66A2CCA9C378B9F PUSH1 0x0 PUSH2 0x29AD JUMP JUMPDEST PUSH2 0xD11 PUSH1 0x1 PUSH1 0x1 PUSH1 0xA0 SHL SUB DUP4 AND PUSH20 0xD9E1CE17F2641F24AE83637AB66A2CCA9C378B9F PUSH1 0x0 NOT PUSH2 0x29AD JUMP JUMPDEST PUSH1 0x40 MLOAD PUSH1 0x1 PUSH1 0x1 PUSH1 0xA0 SHL SUB DUP4 AND DUP2 MSTORE PUSH32 0x851BBB4304BF0768ED98B97E429B5BD1DCC1F194B36CD1650F40293E951AE393 SWAP1 PUSH1 0x20 ADD PUSH2 0xA6E JUMP JUMPDEST PUSH1 0x40 DUP1 MLOAD DUP1 DUP3 ADD SWAP1 SWAP2 MSTORE PUSH1 0x13 DUP2 MSTORE PUSH1 0x0 DUP1 MLOAD PUSH1 0x20 PUSH2 0x4BD5 DUP4 CODECOPY DUP2 MLOAD SWAP2 MSTORE PUSH1 0x20 DUP3 ADD MSTORE PUSH1 0x0 SWAP1 CALLER PUSH1 0x1 PUSH1 0x1 PUSH1 0xA0 SHL SUB PUSH32 0x0 AND EQ PUSH2 0xDB8 JUMPI PUSH1 0x40 MLOAD PUSH3 0x461BCD PUSH1 0xE5 SHL DUP2 MSTORE PUSH1 0x4 ADD PUSH2 0x978 SWAP2 SWAP1 PUSH2 0x4788 JUMP JUMPDEST POP DUP2 PUSH2 0xDC6 JUMPI POP PUSH1 0x0 SWAP2 SWAP1 POP JUMP JUMPDEST PUSH1 0x0 PUSH2 0xDD0 PUSH2 0x2B65 JUMP JUMPDEST SWAP1 POP DUP3 DUP2 LT PUSH2 0xE69 JUMPI PUSH2 0xE2D PUSH1 0x1 PUSH1 0x1 PUSH1 0xA0 SHL SUB PUSH32 0x0 AND PUSH32 0x0 DUP6 PUSH2 0x2C00 JUMP JUMPDEST PUSH1 0x40 MLOAD DUP4 DUP2 MSTORE PUSH32 0x5B6B431D4476A211BB7D41C20D1AAB9AE2321DEEE0D20BE3D9FC9B1093FA6E3D SWAP1 PUSH1 0x20 ADD PUSH1 0x40 MLOAD DUP1 SWAP2 SUB SWAP1 LOG1 POP PUSH1 0x1 SWAP3 SWAP2 POP POP JUMP JUMPDEST PUSH1 0x0 PUSH2 0xE75 DUP3 DUP6 PUSH2 0x486C JUMP JUMPDEST SWAP1 POP PUSH1 0x0 PUSH2 0xE82 DUP3 PUSH2 0x2C30 JUMP JUMPDEST SWAP1 POP PUSH1 0x0 PUSH2 0xE8E PUSH2 0x2C54 JUMP JUMPDEST PUSH2 0xE98 SWAP1 DUP4 PUSH2 0x486C JUMP JUMPDEST SWAP1 POP PUSH1 0x0 PUSH2 0xEA5 DUP3 PUSH2 0x2CA3 JUMP JUMPDEST SWAP1 POP PUSH1 0x0 PUSH2 0xEB1 PUSH2 0x2CC7 JUMP JUMPDEST PUSH2 0xEBB SWAP1 DUP4 PUSH2 0x486C JUMP JUMPDEST PUSH1 0x5 SLOAD PUSH1 0x40 MLOAD PUSH4 0x61973901 PUSH1 0xE1 SHL DUP2 MSTORE PUSH1 0x4 DUP2 ADD DUP4 SWAP1 MSTORE PUSH1 0x0 PUSH1 0x24 DUP3 ADD MSTORE SWAP2 SWAP3 POP PUSH1 0x1 PUSH1 0x1 PUSH1 0xA0 SHL SUB AND SWAP1 PUSH4 0xC32E7202 SWAP1 PUSH1 0x44 ADD PUSH1 0x20 PUSH1 0x40 MLOAD DUP1 DUP4 SUB DUP2 PUSH1 0x0 DUP8 DUP1 EXTCODESIZE ISZERO DUP1 ISZERO PUSH2 0xF09 JUMPI PUSH1 0x0 DUP1 REVERT JUMPDEST POP GAS CALL ISZERO DUP1 ISZERO PUSH2 0xF1D JUMPI RETURNDATASIZE PUSH1 0x0 DUP1 RETURNDATACOPY RETURNDATASIZE PUSH1 0x0 REVERT JUMPDEST POP POP POP POP PUSH1 0x40 MLOAD RETURNDATASIZE PUSH1 0x1F NOT PUSH1 0x1F DUP3 ADD AND DUP3 ADD DUP1 PUSH1 0x40 MSTORE POP DUP2 ADD SWAP1 PUSH2 0xF41 SWAP2 SWAP1 PUSH2 0x483B JUMP JUMPDEST PUSH2 0xF53 JUMPI POP PUSH1 0x0 SWAP8 SWAP7 POP POP POP POP POP POP POP JUMP JUMPDEST PUSH2 0xF5B PUSH2 0x4720 JUMP JUMPDEST DUP4 DUP2 PUSH1 0x3 SLOAD PUSH1 0x2 DUP2 LT PUSH2 0xF70 JUMPI PUSH2 0xF70 PUSH2 0x4883 JUMP JUMPDEST PUSH1 0x20 MUL ADD MSTORE PUSH1 0x1 SLOAD PUSH1 0x40 MLOAD PUSH4 0xE3103273 PUSH1 0xE0 SHL DUP2 MSTORE PUSH1 0x1 PUSH1 0x1 PUSH1 0xA0 SHL SUB SWAP1 SWAP2 AND SWAP1 PUSH4 0xE3103273 SWAP1 PUSH2 0xFA7 SWAP1 DUP5 SWAP1 DUP8 SWAP1 PUSH1 0x4 ADD PUSH2 0x4899 JUMP JUMPDEST PUSH1 0x0 PUSH1 0x40 MLOAD DUP1 DUP4 SUB DUP2 PUSH1 0x0 DUP8 DUP1 EXTCODESIZE ISZERO DUP1 ISZERO PUSH2 0xFC1 JUMPI PUSH1 0x0 DUP1 REVERT JUMPDEST POP GAS CALL ISZERO DUP1 ISZERO PUSH2 0xFD5 JUMPI RETURNDATASIZE PUSH1 0x0 DUP1 RETURNDATACOPY RETURNDATASIZE PUSH1 0x0 REVERT JUMPDEST POP POP POP POP PUSH2 0xFE1 PUSH2 0x473E JUMP JUMPDEST DUP7 DUP2 PUSH32 0x0 PUSH1 0x3 DUP2 LT PUSH2 0x1014 JUMPI PUSH2 0x1014 PUSH2 0x4883 JUMP JUMPDEST PUSH1 0x20 MUL ADD MSTORE PUSH1 0x40 MLOAD PUSH4 0x27F6BA83 PUSH1 0xE2 SHL DUP2 MSTORE PUSH1 0x1 PUSH1 0x1 PUSH1 0xA0 SHL SUB PUSH32 0x0 AND SWAP1 PUSH4 0x9FDAEA0C SWAP1 PUSH2 0x1067 SWAP1 DUP5 SWAP1 DUP11 SWAP1 PUSH1 0x4 ADD PUSH2 0x48D1 JUMP JUMPDEST PUSH1 0x0 PUSH1 0x40 MLOAD DUP1 DUP4 SUB DUP2 PUSH1 0x0 DUP8 DUP1 EXTCODESIZE ISZERO DUP1 ISZERO PUSH2 0x1081 JUMPI PUSH1 0x0 DUP1 REVERT JUMPDEST POP GAS CALL ISZERO DUP1 ISZERO PUSH2 0x1095 JUMPI RETURNDATASIZE PUSH1 0x0 DUP1 RETURNDATACOPY RETURNDATASIZE PUSH1 0x0 REVERT JUMPDEST POP PUSH2 0x10EF SWAP3 POP POP PUSH1 0x1 PUSH1 0x1 PUSH1 0xA0 SHL SUB PUSH32 0x0 AND SWAP1 POP PUSH32 0x0 DUP13 PUSH2 0x2C00 JUMP JUMPDEST PUSH1 0x40 MLOAD DUP11 DUP2 MSTORE PUSH32 0x5B6B431D4476A211BB7D41C20D1AAB9AE2321DEEE0D20BE3D9FC9B1093FA6E3D SWAP1 PUSH1 0x20 ADD PUSH1 0x40 MLOAD DUP1 SWAP2 SUB SWAP1 LOG1 POP PUSH1 0x1 SWAP10 SWAP9 POP POP POP POP POP POP POP POP POP JUMP JUMPDEST PUSH1 0x0 DUP1 PUSH20 0x4E3FBD56CD56C3E72C1403E103B45DB9DA5B9D2B PUSH1 0x1 PUSH1 0x1 PUSH1 0xA0 SHL SUB AND PUSH4 0x18160DDD PUSH1 0x40 MLOAD DUP2 PUSH4 0xFFFFFFFF AND PUSH1 0xE0 SHL DUP2 MSTORE PUSH1 0x4 ADD PUSH1 0x20 PUSH1 0x40 MLOAD DUP1 DUP4 SUB DUP2 DUP7 DUP1 EXTCODESIZE ISZERO DUP1 ISZERO PUSH2 0x1182 JUMPI PUSH1 0x0 DUP1 REVERT JUMPDEST POP GAS STATICCALL ISZERO DUP1 ISZERO PUSH2 0x1196 JUMPI RETURNDATASIZE PUSH1 0x0 DUP1 RETURNDATACOPY RETURNDATASIZE PUSH1 0x0 REVERT JUMPDEST POP POP POP POP PUSH1 0x40 MLOAD RETURNDATASIZE PUSH1 0x1F NOT PUSH1 0x1F DUP3 ADD AND DUP3 ADD DUP1 PUSH1 0x40 MSTORE POP DUP2 ADD SWAP1 PUSH2 0x11BA SWAP2 SWAP1 PUSH2 0x4909 JUMP JUMPDEST SWAP1 POP PUSH1 0x0 PUSH2 0x11D2 PUSH10 0x152D02C7E14AF6800000 DUP4 PUSH2 0x4922 JUMP JUMPDEST SWAP1 POP PUSH2 0x3E8 DUP2 LT PUSH2 0x11E7 JUMPI POP PUSH1 0x0 SWAP4 SWAP3 POP POP POP JUMP JUMPDEST PUSH1 0x0 PUSH2 0x11F5 DUP3 PUSH2 0x3E8 PUSH2 0x486C JUMP JUMPDEST SWAP1 POP PUSH1 0x0 PUSH2 0x3E8 PUSH2 0x1206 DUP4 DUP9 PUSH2 0x4944 JUMP JUMPDEST PUSH2 0x1210 SWAP2 SWAP1 PUSH2 0x4922 JUMP JUMPDEST SWAP1 POP PUSH1 0x0 PUSH2 0x1229 DUP6 PUSH11 0x52B7D2DCC80CD2E4000000 PUSH2 0x486C JUMP JUMPDEST SWAP1 POP DUP1 DUP3 GT ISZERO PUSH2 0x1237 JUMPI DUP1 SWAP2 POP JUMPDEST POP SWAP6 SWAP5 POP POP POP POP POP JUMP JUMPDEST PUSH1 0x0 PUSH32 0x0 PUSH1 0x40 MLOAD PUSH4 0x24745215 PUSH1 0xE2 SHL DUP2 MSTORE PUSH10 0x676F7665726E616E6365 PUSH1 0xB0 SHL PUSH1 0x4 DUP3 ADD MSTORE CALLER PUSH1 0x24 DUP3 ADD MSTORE PUSH1 0x1 PUSH1 0x1 PUSH1 0xA0 SHL SUB SWAP2 SWAP1 SWAP2 AND SWAP1 PUSH4 0x91D14854 SWAP1 PUSH1 0x44 ADD PUSH1 0x20 PUSH1 0x40 MLOAD DUP1 DUP4 SUB DUP2 DUP7 DUP1 EXTCODESIZE ISZERO DUP1 ISZERO PUSH2 0x12B8 JUMPI PUSH1 0x0 DUP1 REVERT JUMPDEST POP GAS STATICCALL ISZERO DUP1 ISZERO PUSH2 0x12CC JUMPI RETURNDATASIZE PUSH1 0x0 DUP1 RETURNDATACOPY RETURNDATASIZE PUSH1 0x0 REVERT JUMPDEST POP POP POP POP PUSH1 0x40 MLOAD RETURNDATASIZE PUSH1 0x1F NOT PUSH1 0x1F DUP3 ADD AND DUP3 ADD DUP1 PUSH1 0x40 MSTORE POP DUP2 ADD SWAP1 PUSH2 0x12F0 SWAP2 SWAP1 PUSH2 0x483B JUMP JUMPDEST PUSH1 0x40 MLOAD DUP1 PUSH1 0x40 ADD PUSH1 0x40 MSTORE DUP1 PUSH1 0x13 DUP2 MSTORE PUSH1 0x20 ADD PUSH1 0x0 DUP1 MLOAD PUSH1 0x20 PUSH2 0x4BD5 DUP4 CODECOPY DUP2 MLOAD SWAP2 MSTORE DUP2 MSTORE POP SWAP1 PUSH2 0x1332 JUMPI PUSH1 0x40 MLOAD PUSH3 0x461BCD PUSH1 0xE5 SHL DUP2 MSTORE PUSH1 0x4 ADD PUSH2 0x978 SWAP2 SWAP1 PUSH2 0x4788 JUMP JUMPDEST POP PUSH2 0x133E PUSH1 0xF DUP4 PUSH2 0x2CFD JUMP JUMPDEST PUSH2 0x134A JUMPI POP PUSH1 0x0 SWAP2 SWAP1 POP JUMP JUMPDEST PUSH1 0x40 MLOAD PUSH1 0x1 PUSH1 0x1 PUSH1 0xA0 SHL SUB DUP4 AND DUP2 MSTORE PUSH32 0x36BD04094FA067BB9471A8FBDB0A6E8A43424A2566AD3A740C88973FA40A3118 SWAP1 PUSH1 0x20 ADD PUSH2 0xA6E JUMP JUMPDEST PUSH1 0x40 DUP1 MLOAD DUP1 DUP3 ADD SWAP1 SWAP2 MSTORE PUSH1 0x13 DUP2 MSTORE PUSH1 0x0 DUP1 MLOAD PUSH1 0x20 PUSH2 0x4BD5 DUP4 CODECOPY DUP2 MLOAD SWAP2 MSTORE PUSH1 0x20 DUP3 ADD MSTORE PUSH1 0x0 SWAP1 CALLER PUSH1 0x1 PUSH1 0x1 PUSH1 0xA0 SHL SUB PUSH32 0x0 AND EQ PUSH2 0x13F1 JUMPI PUSH1 0x40 MLOAD PUSH3 0x461BCD PUSH1 0xE5 SHL DUP2 MSTORE PUSH1 0x4 ADD PUSH2 0x978 SWAP2 SWAP1 PUSH2 0x4788 JUMP JUMPDEST POP PUSH2 0x882 PUSH2 0x2D12 JUMP JUMPDEST PUSH1 0x0 PUSH32 0x0 PUSH1 0x40 MLOAD PUSH4 0x24745215 PUSH1 0xE2 SHL DUP2 MSTORE PUSH10 0x676F7665726E616E6365 PUSH1 0xB0 SHL PUSH1 0x4 DUP3 ADD MSTORE CALLER PUSH1 0x24 DUP3 ADD MSTORE PUSH1 0x1 PUSH1 0x1 PUSH1 0xA0 SHL SUB SWAP2 SWAP1 SWAP2 AND SWAP1 PUSH4 0x91D14854 SWAP1 PUSH1 0x44 ADD PUSH1 0x20 PUSH1 0x40 MLOAD DUP1 DUP4 SUB DUP2 DUP7 DUP1 EXTCODESIZE ISZERO DUP1 ISZERO PUSH2 0x1471 JUMPI PUSH1 0x0 DUP1 REVERT JUMPDEST POP GAS STATICCALL ISZERO DUP1 ISZERO PUSH2 0x1485 JUMPI RETURNDATASIZE PUSH1 0x0 DUP1 RETURNDATACOPY RETURNDATASIZE PUSH1 0x0 REVERT JUMPDEST POP POP POP POP PUSH1 0x40 MLOAD RETURNDATASIZE PUSH1 0x1F NOT PUSH1 0x1F DUP3 ADD AND DUP3 ADD DUP1 PUSH1 0x40 MSTORE POP DUP2 ADD SWAP1 PUSH2 0x14A9 SWAP2 SWAP1 PUSH2 0x483B JUMP JUMPDEST PUSH1 0x40 MLOAD DUP1 PUSH1 0x40 ADD PUSH1 0x40 MSTORE DUP1 PUSH1 0x13 DUP2 MSTORE PUSH1 0x20 ADD PUSH1 0x0 DUP1 MLOAD PUSH1 0x20 PUSH2 0x4BD5 DUP4 CODECOPY DUP2 MLOAD SWAP2 MSTORE DUP2 MSTORE POP SWAP1 PUSH2 0x14EB JUMPI PUSH1 0x40 MLOAD PUSH3 0x461BCD PUSH1 0xE5 SHL DUP2 MSTORE PUSH1 0x4 ADD PUSH2 0x978 SWAP2 SWAP1 PUSH2 0x4788 JUMP JUMPDEST POP PUSH1 0x1 PUSH1 0x1 PUSH1 0xA0 SHL SUB DUP1 DUP4 AND PUSH1 0x0 SWAP1 DUP2 MSTORE PUSH1 0xE PUSH1 0x20 SWAP1 DUP2 MSTORE PUSH1 0x40 SWAP2 DUP3 SWAP1 KECCAK256 SLOAD DUP3 MLOAD DUP1 DUP5 ADD SWAP1 SWAP4 MSTORE PUSH1 0x1D DUP4 MSTORE PUSH32 0x6E6F2064657820686173206265656E2073657420666F7220746F6B656E000000 SWAP2 DUP4 ADD SWAP2 SWAP1 SWAP2 MSTORE SWAP1 SWAP2 AND SWAP1 DUP2 PUSH2 0x1560 JUMPI PUSH1 0x40 MLOAD PUSH3 0x461BCD PUSH1 0xE5 SHL DUP2 MSTORE PUSH1 0x4 ADD PUSH2 0x978 SWAP2 SWAP1 PUSH2 0x4788 JUMP JUMPDEST POP PUSH1 0x0 PUSH1 0x1 PUSH1 0x1 PUSH1 0xA0 SHL SUB DUP3 AND PUSH20 0xD9E1CE17F2641F24AE83637AB66A2CCA9C378B9F EQ PUSH2 0x15A1 JUMPI PUSH20 0xD9E1CE17F2641F24AE83637AB66A2CCA9C378B9F PUSH2 0x15B7 JUMP JUMPDEST PUSH20 0x7A250D5630B4CF539739DF2C5DACB4C659F2488D JUMPDEST SWAP1 POP PUSH2 0x15C3 DUP5 DUP3 PUSH2 0x2B37 JUMP JUMPDEST PUSH2 0x15D8 PUSH1 0x1 PUSH1 0x1 PUSH1 0xA0 SHL SUB DUP6 AND DUP3 PUSH1 0x0 PUSH2 0x29AD JUMP JUMPDEST PUSH2 0x15EE PUSH1 0x1 PUSH1 0x1 PUSH1 0xA0 SHL SUB DUP6 AND DUP3 PUSH1 0x0 NOT PUSH2 0x29AD JUMP JUMPDEST PUSH1 0x40 DUP1 MLOAD PUSH1 0x1 PUSH1 0x1 PUSH1 0xA0 SHL SUB DUP1 DUP8 AND DUP3 MSTORE DUP4 AND PUSH1 0x20 DUP3 ADD MSTORE PUSH32 0xCAC2DED52B5E76B519F6013BCD694B2426F57750994E28325AE931943A49EAD2 SWAP2 ADD PUSH1 0x40 MLOAD DUP1 SWAP2 SUB SWAP1 LOG1 POP PUSH1 0x1 SWAP4 SWAP3 POP POP POP JUMP JUMPDEST PUSH1 0x0 PUSH32 0x0 PUSH1 0x40 MLOAD PUSH4 0x24745215 PUSH1 0xE2 SHL DUP2 MSTORE PUSH10 0x676F7665726E616E6365 PUSH1 0xB0 SHL PUSH1 0x4 DUP3 ADD MSTORE CALLER PUSH1 0x24 DUP3 ADD MSTORE PUSH1 0x1 PUSH1 0x1 PUSH1 0xA0 SHL SUB SWAP2 SWAP1 SWAP2 AND SWAP1 PUSH4 0x91D14854 SWAP1 PUSH1 0x44 ADD PUSH1 0x20 PUSH1 0x40 MLOAD DUP1 DUP4 SUB DUP2 DUP7 DUP1 EXTCODESIZE ISZERO DUP1 ISZERO PUSH2 0x16B2 JUMPI PUSH1 0x0 DUP1 REVERT JUMPDEST POP GAS STATICCALL ISZERO DUP1 ISZERO PUSH2 0x16C6 JUMPI RETURNDATASIZE PUSH1 0x0 DUP1 RETURNDATACOPY RETURNDATASIZE PUSH1 0x0 REVERT JUMPDEST POP POP POP POP PUSH1 0x40 MLOAD RETURNDATASIZE PUSH1 0x1F NOT PUSH1 0x1F DUP3 ADD AND DUP3 ADD DUP1 PUSH1 0x40 MSTORE POP DUP2 ADD SWAP1 PUSH2 0x16EA SWAP2 SWAP1 PUSH2 0x483B JUMP JUMPDEST PUSH1 0x40 MLOAD DUP1 PUSH1 0x40 ADD PUSH1 0x40 MSTORE DUP1 PUSH1 0x13 DUP2 MSTORE PUSH1 0x20 ADD PUSH1 0x0 DUP1 MLOAD PUSH1 0x20 PUSH2 0x4BD5 DUP4 CODECOPY DUP2 MLOAD SWAP2 MSTORE DUP2 MSTORE POP SWAP1 PUSH2 0x172C JUMPI PUSH1 0x40 MLOAD PUSH3 0x461BCD PUSH1 0xE5 SHL DUP2 MSTORE PUSH1 0x4 ADD PUSH2 0x978 SWAP2 SWAP1 PUSH2 0x4788 JUMP JUMPDEST POP PUSH1 0x6 DUP3 SWAP1 SSTORE PUSH1 0x40 MLOAD DUP3 DUP2 MSTORE PUSH32 0x4EDE3E4E9F7997FDA6FF4A12D6C43D5C9E1E2055065CBC15F902F504F72DC8C0 SWAP1 PUSH1 0x20 ADD PUSH2 0xA6E JUMP JUMPDEST PUSH1 0x0 PUSH32 0x0 PUSH1 0x40 MLOAD PUSH4 0x24745215 PUSH1 0xE2 SHL DUP2 MSTORE PUSH10 0x676F7665726E616E6365 PUSH1 0xB0 SHL PUSH1 0x4 DUP3 ADD MSTORE CALLER PUSH1 0x24 DUP3 ADD MSTORE PUSH1 0x1 PUSH1 0x1 PUSH1 0xA0 SHL SUB SWAP2 SWAP1 SWAP2 AND SWAP1 PUSH4 0x91D14854 SWAP1 PUSH1 0x44 ADD PUSH1 0x20 PUSH1 0x40 MLOAD DUP1 DUP4 SUB DUP2 DUP7 DUP1 EXTCODESIZE ISZERO DUP1 ISZERO PUSH2 0x17D9 JUMPI PUSH1 0x0 DUP1 REVERT JUMPDEST POP GAS STATICCALL ISZERO DUP1 ISZERO PUSH2 0x17ED JUMPI RETURNDATASIZE PUSH1 0x0 DUP1 RETURNDATACOPY RETURNDATASIZE PUSH1 0x0 REVERT JUMPDEST POP POP POP POP PUSH1 0x40 MLOAD RETURNDATASIZE PUSH1 0x1F NOT PUSH1 0x1F DUP3 ADD AND DUP3 ADD DUP1 PUSH1 0x40 MSTORE POP DUP2 ADD SWAP1 PUSH2 0x1811 SWAP2 SWAP1 PUSH2 0x483B JUMP JUMPDEST PUSH1 0x40 MLOAD DUP1 PUSH1 0x40 ADD PUSH1 0x40 MSTORE DUP1 PUSH1 0x13 DUP2 MSTORE PUSH1 0x20 ADD PUSH1 0x0 DUP1 MLOAD PUSH1 0x20 PUSH2 0x4BD5 DUP4 CODECOPY DUP2 MLOAD SWAP2 MSTORE DUP2 MSTORE POP SWAP1 PUSH2 0x1853 JUMPI PUSH1 0x40 MLOAD PUSH3 0x461BCD PUSH1 0xE5 SHL DUP2 MSTORE PUSH1 0x4 ADD PUSH2 0x978 SWAP2 SWAP1 PUSH2 0x4788 JUMP JUMPDEST POP PUSH1 0x40 DUP1 MLOAD DUP1 DUP3 ADD SWAP1 SWAP2 MSTORE PUSH1 0xE DUP2 MSTORE PUSH14 0x1A5B9D985B1A5908185B5BDD5B9D PUSH1 0x92 SHL PUSH1 0x20 DUP3 ADD MSTORE PUSH8 0xDE0B6B3A7640000 DUP4 GT ISZERO PUSH2 0x18A2 JUMPI PUSH1 0x40 MLOAD PUSH3 0x461BCD PUSH1 0xE5 SHL DUP2 MSTORE PUSH1 0x4 ADD PUSH2 0x978 SWAP2 SWAP1 PUSH2 0x4788 JUMP JUMPDEST POP PUSH1 0xA SLOAD PUSH1 0x1 PUSH1 0x1 PUSH1 0xA0 SHL SUB AND PUSH2 0x18FB JUMPI PUSH1 0x40 MLOAD PUSH3 0x461BCD PUSH1 0xE5 SHL DUP2 MSTORE PUSH1 0x20 PUSH1 0x4 DUP3 ADD MSTORE PUSH1 0x1D PUSH1 0x24 DUP3 ADD MSTORE PUSH32 0x436F6D6D756E6974792072657365727665206D75737420626520736574000000 PUSH1 0x44 DUP3 ADD MSTORE PUSH1 0x64 ADD PUSH2 0x978 JUMP JUMPDEST PUSH1 0xC DUP3 SWAP1 SSTORE PUSH1 0x40 MLOAD DUP3 DUP2 MSTORE PUSH32 0x1A8542DFFA4956932E66916113E6A123E123956172FBC0E2E59DF92B8A87D8E6 SWAP1 PUSH1 0x20 ADD PUSH2 0xA6E JUMP JUMPDEST PUSH1 0x0 CALLER PUSH1 0x1 PUSH1 0x1 PUSH1 0xA0 SHL SUB PUSH32 0x0 AND EQ DUP1 PUSH2 0x1A11 JUMPI POP PUSH32 0x0 PUSH1 0x40 MLOAD PUSH4 0x24745215 PUSH1 0xE2 SHL DUP2 MSTORE PUSH10 0x676F7665726E616E6365 PUSH1 0xB0 SHL PUSH1 0x4 DUP3 ADD MSTORE CALLER PUSH1 0x24 DUP3 ADD MSTORE PUSH1 0x1 PUSH1 0x1 PUSH1 0xA0 SHL SUB SWAP2 SWAP1 SWAP2 AND SWAP1 PUSH4 0x91D14854 SWAP1 PUSH1 0x44 ADD PUSH1 0x20 PUSH1 0x40 MLOAD DUP1 DUP4 SUB DUP2 DUP7 DUP1 EXTCODESIZE ISZERO DUP1 ISZERO PUSH2 0x19D9 JUMPI PUSH1 0x0 DUP1 REVERT JUMPDEST POP GAS STATICCALL ISZERO DUP1 ISZERO PUSH2 0x19ED JUMPI RETURNDATASIZE PUSH1 0x0 DUP1 RETURNDATACOPY RETURNDATASIZE PUSH1 0x0 REVERT JUMPDEST POP POP POP POP PUSH1 0x40 MLOAD RETURNDATASIZE PUSH1 0x1F NOT PUSH1 0x1F DUP3 ADD AND DUP3 ADD DUP1 PUSH1 0x40 MSTORE POP DUP2 ADD SWAP1 PUSH2 0x1A11 SWAP2 SWAP1 PUSH2 0x483B JUMP JUMPDEST PUSH1 0x40 MLOAD DUP1 PUSH1 0x40 ADD PUSH1 0x40 MSTORE DUP1 PUSH1 0x13 DUP2 MSTORE PUSH1 0x20 ADD PUSH1 0x0 DUP1 MLOAD PUSH1 0x20 PUSH2 0x4BD5 DUP4 CODECOPY DUP2 MLOAD SWAP2 MSTORE DUP2 MSTORE POP SWAP1 PUSH2 0x1A53 JUMPI PUSH1 0x40 MLOAD PUSH3 0x461BCD PUSH1 0xE5 SHL DUP2 MSTORE PUSH1 0x4 ADD PUSH2 0x978 SWAP2 SWAP1 PUSH2 0x4788 JUMP JUMPDEST POP PUSH2 0x1A5C PUSH2 0x2E53 JUMP JUMPDEST PUSH1 0x0 PUSH2 0x1A66 PUSH2 0x2C54 JUMP JUMPDEST SWAP1 POP DUP1 ISZERO PUSH2 0x1B2A JUMPI PUSH32 0x0 PUSH1 0x1 PUSH1 0x1 PUSH1 0xA0 SHL SUB AND PUSH4 0x1A4D01D2 DUP3 PUSH32 0x0 PUSH2 0x1AC8 DUP6 PUSH2 0x2F83 JUMP JUMPDEST PUSH1 0x40 MLOAD PUSH1 0x1 PUSH1 0x1 PUSH1 0xE0 SHL SUB NOT PUSH1 0xE0 DUP7 SWAP1 SHL AND DUP2 MSTORE PUSH1 0x4 DUP2 ADD SWAP4 SWAP1 SWAP4 MSTORE PUSH1 0xF SWAP2 SWAP1 SWAP2 SIGNEXTEND PUSH1 0x24 DUP4 ADD MSTORE PUSH1 0x44 DUP3 ADD MSTORE PUSH1 0x64 ADD PUSH1 0x0 PUSH1 0x40 MLOAD DUP1 DUP4 SUB DUP2 PUSH1 0x0 DUP8 DUP1 EXTCODESIZE ISZERO DUP1 ISZERO PUSH2 0x1B11 JUMPI PUSH1 0x0 DUP1 REVERT JUMPDEST POP GAS CALL ISZERO DUP1 ISZERO PUSH2 0x1B25 JUMPI RETURNDATASIZE PUSH1 0x0 DUP1 RETURNDATACOPY RETURNDATASIZE PUSH1 0x0 REVERT JUMPDEST POP POP POP POP JUMPDEST PUSH1 0x0 PUSH2 0x1B34 PUSH2 0x2B65 JUMP JUMPDEST SWAP1 POP DUP1 PUSH2 0x1B44 JUMPI PUSH1 0x0 SWAP3 POP POP POP SWAP1 JUMP JUMPDEST PUSH2 0x1B98 PUSH1 0x1 PUSH1 0x1 PUSH1 0xA0 SHL SUB PUSH32 0x0 AND PUSH32 0x0 DUP4 PUSH2 0x2C00 JUMP JUMPDEST PUSH1 0x40 MLOAD DUP2 DUP2 MSTORE PUSH32 0x3D5A341DC6A12221FCF31279CEF3771F8FAD757B2D9261F97605CCC17C257424 SWAP1 PUSH1 0x20 ADD JUMPDEST PUSH1 0x40 MLOAD DUP1 SWAP2 SUB SWAP1 LOG1 SWAP3 SWAP2 POP POP JUMP JUMPDEST PUSH1 0x0 PUSH32 0x0 PUSH1 0x40 MLOAD PUSH4 0x24745215 PUSH1 0xE2 SHL DUP2 MSTORE PUSH10 0x676F7665726E616E6365 PUSH1 0xB0 SHL PUSH1 0x4 DUP3 ADD MSTORE CALLER PUSH1 0x24 DUP3 ADD MSTORE PUSH1 0x1 PUSH1 0x1 PUSH1 0xA0 SHL SUB SWAP2 SWAP1 SWAP2 AND SWAP1 PUSH4 0x91D14854 SWAP1 PUSH1 0x44 ADD PUSH1 0x20 PUSH1 0x40 MLOAD DUP1 DUP4 SUB DUP2 DUP7 DUP1 EXTCODESIZE ISZERO DUP1 ISZERO PUSH2 0x1C49 JUMPI PUSH1 0x0 DUP1 REVERT JUMPDEST POP GAS STATICCALL ISZERO DUP1 ISZERO PUSH2 0x1C5D JUMPI RETURNDATASIZE PUSH1 0x0 DUP1 RETURNDATACOPY RETURNDATASIZE PUSH1 0x0 REVERT JUMPDEST POP POP POP POP PUSH1 0x40 MLOAD RETURNDATASIZE PUSH1 0x1F NOT PUSH1 0x1F DUP3 ADD AND DUP3 ADD DUP1 PUSH1 0x40 MSTORE POP DUP2 ADD SWAP1 PUSH2 0x1C81 SWAP2 SWAP1 PUSH2 0x483B JUMP JUMPDEST PUSH1 0x40 MLOAD DUP1 PUSH1 0x40 ADD PUSH1 0x40 MSTORE DUP1 PUSH1 0x13 DUP2 MSTORE PUSH1 0x20 ADD PUSH1 0x0 DUP1 MLOAD PUSH1 0x20 PUSH2 0x4BD5 DUP4 CODECOPY DUP2 MLOAD SWAP2 MSTORE DUP2 MSTORE POP SWAP1 PUSH2 0x1CC3 JUMPI PUSH1 0x40 MLOAD PUSH3 0x461BCD PUSH1 0xE5 SHL DUP2 MSTORE PUSH1 0x4 ADD PUSH2 0x978 SWAP2 SWAP1 PUSH2 0x4788 JUMP JUMPDEST POP PUSH1 0x8 DUP3 SWAP1 SSTORE PUSH1 0x40 MLOAD DUP3 DUP2 MSTORE PUSH32 0xE6B4374E594CAC6D717F89735F722A01C53AFFE6A4603ED44E09004666B7A6F3 SWAP1 PUSH1 0x20 ADD PUSH2 0xA6E JUMP JUMPDEST PUSH32 0x0 PUSH1 0x40 MLOAD PUSH4 0x24745215 PUSH1 0xE2 SHL DUP2 MSTORE PUSH10 0x676F7665726E616E6365 PUSH1 0xB0 SHL PUSH1 0x4 DUP3 ADD MSTORE CALLER PUSH1 0x24 DUP3 ADD MSTORE PUSH1 0x1 PUSH1 0x1 PUSH1 0xA0 SHL SUB SWAP2 SWAP1 SWAP2 AND SWAP1 PUSH4 0x91D14854 SWAP1 PUSH1 0x44 ADD PUSH1 0x20 PUSH1 0x40 MLOAD DUP1 DUP4 SUB DUP2 DUP7 DUP1 EXTCODESIZE ISZERO DUP1 ISZERO PUSH2 0x1D6E JUMPI PUSH1 0x0 DUP1 REVERT JUMPDEST POP GAS STATICCALL ISZERO DUP1 ISZERO PUSH2 0x1D82 JUMPI RETURNDATASIZE PUSH1 0x0 DUP1 RETURNDATACOPY RETURNDATASIZE PUSH1 0x0 REVERT JUMPDEST POP POP POP POP PUSH1 0x40 MLOAD RETURNDATASIZE PUSH1 0x1F NOT PUSH1 0x1F DUP3 ADD AND DUP3 ADD DUP1 PUSH1 0x40 MSTORE POP DUP2 ADD SWAP1 PUSH2 0x1DA6 SWAP2 SWAP1 PUSH2 0x483B JUMP JUMPDEST PUSH1 0x40 MLOAD DUP1 PUSH1 0x40 ADD PUSH1 0x40 MSTORE DUP1 PUSH1 0x13 DUP2 MSTORE PUSH1 0x20 ADD PUSH1 0x0 DUP1 MLOAD PUSH1 0x20 PUSH2 0x4BD5 DUP4 CODECOPY DUP2 MLOAD SWAP2 MSTORE DUP2 MSTORE POP SWAP1 PUSH2 0x1DE8 JUMPI PUSH1 0x40 MLOAD PUSH3 0x461BCD PUSH1 0xE5 SHL DUP2 MSTORE PUSH1 0x4 ADD PUSH2 0x978 SWAP2 SWAP1 PUSH2 0x4788 JUMP JUMPDEST POP PUSH2 0x1DF1 PUSH2 0x2D12 JUMP JUMPDEST POP PUSH2 0x1DFA PUSH2 0x2E53 JUMP JUMPDEST PUSH1 0x2 DUP3 SWAP1 SSTORE PUSH1 0x3 DUP2 SWAP1 SSTORE PUSH1 0x40 MLOAD PUSH4 0x1526FE27 PUSH1 0xE0 SHL DUP2 MSTORE PUSH1 0x4 DUP2 ADD DUP4 SWAP1 MSTORE PUSH1 0x0 SWAP1 DUP2 SWAP1 PUSH20 0xF403C135812408BFBE8713B5A23A04B3D48AAE31 SWAP1 PUSH4 0x1526FE27 SWAP1 PUSH1 0x24 ADD PUSH1 0xC0 PUSH1 0x40 MLOAD DUP1 DUP4 SUB DUP2 PUSH1 0x0 DUP8 DUP1 EXTCODESIZE ISZERO DUP1 ISZERO PUSH2 0x1E56 JUMPI PUSH1 0x0 DUP1 REVERT JUMPDEST POP GAS CALL ISZERO DUP1 ISZERO PUSH2 0x1E6A JUMPI RETURNDATASIZE PUSH1 0x0 DUP1 RETURNDATACOPY RETURNDATASIZE PUSH1 0x0 REVERT JUMPDEST POP POP POP POP PUSH1 0x40 MLOAD RETURNDATASIZE PUSH1 0x1F NOT PUSH1 0x1F DUP3 ADD AND DUP3 ADD DUP1 PUSH1 0x40 MSTORE POP DUP2 ADD SWAP1 PUSH2 0x1E8E SWAP2 SWAP1 PUSH2 0x4963 JUMP JUMPDEST POP POP PUSH1 0x4 DUP1 SLOAD PUSH1 0x1 PUSH1 0x1 PUSH1 0xA0 SHL SUB NOT SWAP1 DUP2 AND PUSH1 0x1 PUSH1 0x1 PUSH1 0xA0 SHL SUB DUP8 DUP2 AND SWAP2 DUP3 OR DUP5 SSTORE PUSH1 0x5 DUP1 SLOAD SWAP1 SWAP4 AND SWAP1 DUP6 AND OR SWAP1 SWAP2 SSTORE PUSH1 0x40 MLOAD PUSH4 0xBDF475C3 PUSH1 0xE0 SHL DUP2 MSTORE SWAP2 DUP3 ADD MSTORE SWAP4 SWAP6 POP SWAP4 POP PUSH1 0x0 SWAP3 PUSH20 0x90E00ACE148CA3B23AC1BC8C240C2A7DD9C2D7F5 SWAP3 POP PUSH4 0xBDF475C3 SWAP2 POP PUSH1 0x24 ADD PUSH1 0x20 PUSH1 0x40 MLOAD DUP1 DUP4 SUB DUP2 PUSH1 0x0 DUP8 DUP1 EXTCODESIZE ISZERO DUP1 ISZERO PUSH2 0x1F12 JUMPI PUSH1 0x0 DUP1 REVERT JUMPDEST POP GAS CALL ISZERO DUP1 ISZERO PUSH2 0x1F26 JUMPI RETURNDATASIZE PUSH1 0x0 DUP1 RETURNDATACOPY RETURNDATASIZE PUSH1 0x0 REVERT JUMPDEST POP POP POP POP PUSH1 0x40 MLOAD RETURNDATASIZE PUSH1 0x1F NOT PUSH1 0x1F DUP3 ADD AND DUP3 ADD DUP1 PUSH1 0x40 MSTORE POP DUP2 ADD SWAP1 PUSH2 0x1F4A SWAP2 SWAP1 PUSH2 0x49E5 JUMP JUMPDEST PUSH1 0x1 DUP1 SLOAD PUSH1 0x1 PUSH1 0x1 PUSH1 0xA0 SHL SUB NOT AND PUSH1 0x1 PUSH1 0x1 PUSH1 0xA0 SHL SUB DUP4 DUP2 AND SWAP2 SWAP1 SWAP2 OR SWAP1 SWAP2 SSTORE SWAP1 SWAP2 POP PUSH2 0x1F9B SWAP1 PUSH32 0x0 AND DUP3 PUSH1 0x0 PUSH2 0x29AD JUMP JUMPDEST PUSH2 0x1FD1 PUSH1 0x1 PUSH1 0x1 PUSH1 0xA0 SHL SUB PUSH32 0x0 AND DUP3 PUSH1 0x0 NOT PUSH2 0x29AD JUMP JUMPDEST PUSH2 0x1FFA PUSH1 0x1 PUSH1 0x1 PUSH1 0xA0 SHL SUB DUP5 AND PUSH20 0xF403C135812408BFBE8713B5A23A04B3D48AAE31 PUSH1 0x0 PUSH2 0x29AD JUMP JUMPDEST PUSH2 0x2024 PUSH1 0x1 PUSH1 0x1 PUSH1 0xA0 SHL SUB DUP5 AND PUSH20 0xF403C135812408BFBE8713B5A23A04B3D48AAE31 PUSH1 0x0 NOT PUSH2 0x29AD JUMP JUMPDEST PUSH2 0x202C PUSH2 0x2FA7 JUMP JUMPDEST PUSH1 0x40 MLOAD DUP1 PUSH1 0x40 ADD PUSH1 0x40 MSTORE DUP1 PUSH1 0xE DUP2 MSTORE PUSH1 0x20 ADD PUSH14 0x19195C1BDCDA5D0819985A5B1959 PUSH1 0x92 SHL DUP2 MSTORE POP SWAP1 PUSH2 0x2071 JUMPI PUSH1 0x40 MLOAD PUSH3 0x461BCD PUSH1 0xE5 SHL DUP2 MSTORE PUSH1 0x4 ADD PUSH2 0x978 SWAP2 SWAP1 PUSH2 0x4788 JUMP JUMPDEST POP POP POP POP POP POP JUMP JUMPDEST PUSH1 0x0 PUSH32 0x0 PUSH1 0x40 MLOAD PUSH4 0x24745215 PUSH1 0xE2 SHL DUP2 MSTORE PUSH10 0x676F7665726E616E6365 PUSH1 0xB0 SHL PUSH1 0x4 DUP3 ADD MSTORE CALLER PUSH1 0x24 DUP3 ADD MSTORE PUSH1 0x1 PUSH1 0x1 PUSH1 0xA0 SHL SUB SWAP2 SWAP1 SWAP2 AND SWAP1 PUSH4 0x91D14854 SWAP1 PUSH1 0x44 ADD PUSH1 0x20 PUSH1 0x40 MLOAD DUP1 DUP4 SUB DUP2 DUP7 DUP1 EXTCODESIZE ISZERO DUP1 ISZERO PUSH2 0x20F0 JUMPI PUSH1 0x0 DUP1 REVERT JUMPDEST POP GAS STATICCALL ISZERO DUP1 ISZERO PUSH2 0x2104 JUMPI RETURNDATASIZE PUSH1 0x0 DUP1 RETURNDATACOPY RETURNDATASIZE PUSH1 0x0 REVERT JUMPDEST POP POP POP POP PUSH1 0x40 MLOAD RETURNDATASIZE PUSH1 0x1F NOT PUSH1 0x1F DUP3 ADD AND DUP3 ADD DUP1 PUSH1 0x40 MSTORE POP DUP2 ADD SWAP1 PUSH2 0x2128 SWAP2 SWAP1 PUSH2 0x483B JUMP JUMPDEST PUSH1 0x40 MLOAD DUP1 PUSH1 0x40 ADD PUSH1 0x40 MSTORE DUP1 PUSH1 0x13 DUP2 MSTORE PUSH1 0x20 ADD PUSH1 0x0 DUP1 MLOAD PUSH1 0x20 PUSH2 0x4BD5 DUP4 CODECOPY DUP2 MLOAD SWAP2 MSTORE DUP2 MSTORE POP SWAP1 PUSH2 0x216A JUMPI PUSH1 0x40 MLOAD PUSH3 0x461BCD PUSH1 0xE5 SHL DUP2 MSTORE PUSH1 0x4 ADD PUSH2 0x978 SWAP2 SWAP1 PUSH2 0x4788 JUMP JUMPDEST POP PUSH1 0x9 DUP3 SWAP1 SSTORE PUSH1 0x40 MLOAD DUP3 DUP2 MSTORE PUSH32 0x8B8AD8032596EF90599A67881AED48DBA49C88DD982CD479440BFCEE796DCF8B SWAP1 PUSH1 0x20 ADD PUSH2 0xA6E JUMP JUMPDEST PUSH1 0x0 PUSH2 0x21DE PUSH2 0x21AD PUSH2 0x2C54 JUMP JUMPDEST PUSH2 0x21CF PUSH2 0x21B8 PUSH2 0x2CC7 JUMP JUMPDEST PUSH2 0x21C0 PUSH2 0x32B5 JUMP JUMPDEST PUSH2 0x21CA SWAP2 SWAP1 PUSH2 0x4A02 JUMP JUMPDEST PUSH2 0x32E6 JUMP JUMPDEST PUSH2 0x21D9 SWAP2 SWAP1 PUSH2 0x4A02 JUMP JUMPDEST PUSH2 0x3400 JUMP JUMPDEST PUSH2 0x21E6 PUSH2 0x2B65 JUMP JUMPDEST PUSH2 0x882 SWAP2 SWAP1 PUSH2 0x4A02 JUMP JUMPDEST PUSH1 0x0 PUSH32 0x0 PUSH1 0x40 MLOAD PUSH4 0x24745215 PUSH1 0xE2 SHL DUP2 MSTORE PUSH10 0x676F7665726E616E6365 PUSH1 0xB0 SHL PUSH1 0x4 DUP3 ADD MSTORE CALLER PUSH1 0x24 DUP3 ADD MSTORE PUSH1 0x1 PUSH1 0x1 PUSH1 0xA0 SHL SUB SWAP2 SWAP1 SWAP2 AND SWAP1 PUSH4 0x91D14854 SWAP1 PUSH1 0x44 ADD PUSH1 0x20 PUSH1 0x40 MLOAD DUP1 DUP4 SUB DUP2 DUP7 DUP1 EXTCODESIZE ISZERO DUP1 ISZERO PUSH2 0x2267 JUMPI PUSH1 0x0 DUP1 REVERT JUMPDEST POP GAS STATICCALL ISZERO DUP1 ISZERO PUSH2 0x227B JUMPI RETURNDATASIZE PUSH1 0x0 DUP1 RETURNDATACOPY RETURNDATASIZE PUSH1 0x0 REVERT JUMPDEST POP POP POP POP PUSH1 0x40 MLOAD RETURNDATASIZE PUSH1 0x1F NOT PUSH1 0x1F DUP3 ADD AND DUP3 ADD DUP1 PUSH1 0x40 MSTORE POP DUP2 ADD SWAP1 PUSH2 0x229F SWAP2 SWAP1 PUSH2 0x483B JUMP JUMPDEST PUSH1 0x40 MLOAD DUP1 PUSH1 0x40 ADD PUSH1 0x40 MSTORE DUP1 PUSH1 0x13 DUP2 MSTORE PUSH1 0x20 ADD PUSH1 0x0 DUP1 MLOAD PUSH1 0x20 PUSH2 0x4BD5 DUP4 CODECOPY DUP2 MLOAD SWAP2 MSTORE DUP2 MSTORE POP SWAP1 PUSH2 0x22E1 JUMPI PUSH1 0x40 MLOAD PUSH3 0x461BCD PUSH1 0xE5 SHL DUP2 MSTORE PUSH1 0x4 ADD PUSH2 0x978 SWAP2 SWAP1 PUSH2 0x4788 JUMP JUMPDEST POP PUSH1 0xA DUP1 SLOAD PUSH1 0x1 PUSH1 0x1 PUSH1 0xA0 SHL SUB NOT AND PUSH1 0x1 PUSH1 0x1 PUSH1 0xA0 SHL SUB DUP5 AND SWAP1 DUP2 OR SWAP1 SWAP2 SSTORE PUSH1 0x40 MLOAD SWAP1 DUP2 MSTORE PUSH32 0x17D7BA6682F162782054B119192F8E5B98FE7090B4BEC7A55FC7075D9CD859EE SWAP1 PUSH1 0x20 ADD PUSH2 0xA6E JUMP JUMPDEST PUSH1 0xD SLOAD PUSH1 0x40 DUP1 MLOAD DUP1 DUP3 ADD SWAP1 SWAP2 MSTORE PUSH1 0x13 DUP2 MSTORE PUSH1 0x0 DUP1 MLOAD PUSH1 0x20 PUSH2 0x4BD5 DUP4 CODECOPY DUP2 MLOAD SWAP2 MSTORE PUSH1 0x20 DUP3 ADD MSTORE PUSH1 0x0 SWAP2 PUSH1 0x1 PUSH1 0x1 PUSH1 0xA0 SHL SUB AND CALLER EQ PUSH2 0x2380 JUMPI PUSH1 0x40 MLOAD PUSH3 0x461BCD PUSH1 0xE5 SHL DUP2 MSTORE PUSH1 0x4 ADD PUSH2 0x978 SWAP2 SWAP1 PUSH2 0x4788 JUMP JUMPDEST POP PUSH1 0xD DUP1 SLOAD PUSH1 0x1 PUSH1 0x1 PUSH1 0xA0 SHL SUB NOT AND PUSH1 0x1 PUSH1 0x1 PUSH1 0xA0 SHL SUB DUP5 AND SWAP1 DUP2 OR SWAP1 SWAP2 SSTORE PUSH1 0x40 MLOAD SWAP1 DUP2 MSTORE PUSH32 0x46D58E3FA07BF19B1D27240F0E286B27E9F7C1B0D88933333FE833B60EEC5412 SWAP1 PUSH1 0x20 ADD PUSH2 0xA6E JUMP JUMPDEST PUSH1 0x40 DUP1 MLOAD DUP1 DUP3 ADD SWAP1 SWAP2 MSTORE PUSH1 0x13 DUP2 MSTORE PUSH1 0x0 DUP1 MLOAD PUSH1 0x20 PUSH2 0x4BD5 DUP4 CODECOPY DUP2 MLOAD SWAP2 MSTORE PUSH1 0x20 DUP3 ADD MSTORE PUSH1 0x0 SWAP1 CALLER PUSH1 0x1 PUSH1 0x1 PUSH1 0xA0 SHL SUB PUSH32 0x0 AND EQ PUSH2 0x243D JUMPI PUSH1 0x40 MLOAD PUSH3 0x461BCD PUSH1 0xE5 SHL DUP2 MSTORE PUSH1 0x4 ADD PUSH2 0x978 SWAP2 SWAP1 PUSH2 0x4788 JUMP JUMPDEST POP PUSH2 0x882 PUSH2 0x2FA7 JUMP JUMPDEST PUSH1 0x5 SLOAD PUSH1 0x40 MLOAD PUSH3 0x466131 PUSH1 0xE1 SHL DUP2 MSTORE ADDRESS PUSH1 0x4 DUP3 ADD MSTORE PUSH1 0x0 SWAP2 DUP3 SWAP2 PUSH1 0x1 PUSH1 0x1 PUSH1 0xA0 SHL SUB SWAP1 SWAP2 AND SWAP1 PUSH3 0x8CC262 SWAP1 PUSH1 0x24 ADD PUSH1 0x20 PUSH1 0x40 MLOAD DUP1 DUP4 SUB DUP2 DUP7 DUP1 EXTCODESIZE ISZERO DUP1 ISZERO PUSH2 0x248C JUMPI PUSH1 0x0 DUP1 REVERT JUMPDEST POP GAS STATICCALL ISZERO DUP1 ISZERO PUSH2 0x24A0 JUMPI RETURNDATASIZE PUSH1 0x0 DUP1 RETURNDATACOPY RETURNDATASIZE PUSH1 0x0 REVERT JUMPDEST POP POP POP POP PUSH1 0x40 MLOAD RETURNDATASIZE PUSH1 0x1F NOT PUSH1 0x1F DUP3 ADD AND DUP3 ADD DUP1 PUSH1 0x40 MSTORE POP DUP2 ADD SWAP1 PUSH2 0x24C4 SWAP2 SWAP1 PUSH2 0x4909 JUMP JUMPDEST SWAP1 POP DUP1 PUSH2 0x24D3 JUMPI PUSH1 0x0 SWAP2 POP POP SWAP1 JUMP JUMPDEST PUSH2 0x2518 PUSH20 0x4E3FBD56CD56C3E72C1403E103B45DB9DA5B9D2B PUSH2 0x2513 PUSH1 0xB SLOAD PUSH8 0xDE0B6B3A7640000 PUSH2 0x2504 SWAP2 SWAP1 PUSH2 0x486C JUMP JUMPDEST PUSH2 0x250D DUP6 PUSH2 0x1132 JUMP JUMPDEST SWAP1 PUSH2 0x34C0 JUMP JUMPDEST PUSH2 0x34DF JUMP JUMPDEST PUSH2 0x2550 PUSH20 0xD533A949740BB3306D119CC777FA900BA034CD52 PUSH2 0x2513 PUSH1 0xC SLOAD PUSH8 0xDE0B6B3A7640000 PUSH2 0x2549 SWAP2 SWAP1 PUSH2 0x486C JUMP JUMPDEST DUP6 SWAP1 PUSH2 0x34C0 JUMP JUMPDEST PUSH2 0x255A SWAP2 SWAP1 PUSH2 0x4A02 JUMP JUMPDEST SWAP2 POP POP SWAP1 JUMP JUMPDEST PUSH1 0x0 PUSH32 0x0 PUSH1 0x40 MLOAD PUSH4 0x24745215 PUSH1 0xE2 SHL DUP2 MSTORE PUSH10 0x676F7665726E616E6365 PUSH1 0xB0 SHL PUSH1 0x4 DUP3 ADD MSTORE CALLER PUSH1 0x24 DUP3 ADD MSTORE PUSH1 0x1 PUSH1 0x1 PUSH1 0xA0 SHL SUB SWAP2 SWAP1 SWAP2 AND SWAP1 PUSH4 0x91D14854 SWAP1 PUSH1 0x44 ADD PUSH1 0x20 PUSH1 0x40 MLOAD DUP1 DUP4 SUB DUP2 DUP7 DUP1 EXTCODESIZE ISZERO DUP1 ISZERO PUSH2 0x25D7 JUMPI PUSH1 0x0 DUP1 REVERT JUMPDEST POP GAS STATICCALL ISZERO DUP1 ISZERO PUSH2 0x25EB JUMPI RETURNDATASIZE PUSH1 0x0 DUP1 RETURNDATACOPY RETURNDATASIZE PUSH1 0x0 REVERT JUMPDEST POP POP POP POP PUSH1 0x40 MLOAD RETURNDATASIZE PUSH1 0x1F NOT PUSH1 0x1F DUP3 ADD AND DUP3 ADD DUP1 PUSH1 0x40 MSTORE POP DUP2 ADD SWAP1 PUSH2 0x260F SWAP2 SWAP1 PUSH2 0x483B JUMP JUMPDEST PUSH1 0x40 MLOAD DUP1 PUSH1 0x40 ADD PUSH1 0x40 MSTORE DUP1 PUSH1 0x13 DUP2 MSTORE PUSH1 0x20 ADD PUSH1 0x0 DUP1 MLOAD PUSH1 0x20 PUSH2 0x4BD5 DUP4 CODECOPY DUP2 MLOAD SWAP2 MSTORE DUP2 MSTORE POP SWAP1 PUSH2 0x2651 JUMPI PUSH1 0x40 MLOAD PUSH3 0x461BCD PUSH1 0xE5 SHL DUP2 MSTORE PUSH1 0x4 ADD PUSH2 0x978 SWAP2 SWAP1 PUSH2 0x4788 JUMP JUMPDEST POP PUSH1 0x7 DUP3 SWAP1 SSTORE PUSH1 0x40 MLOAD DUP3 DUP2 MSTORE PUSH32 0xB2861FED34A4613F8F25F46553A23408A3364EE9DDC4EF6714F0A81D856E41A7 SWAP1 PUSH1 0x20 ADD PUSH2 0xA6E JUMP JUMPDEST PUSH1 0x0 PUSH32 0x0 PUSH1 0x40 MLOAD PUSH4 0x24745215 PUSH1 0xE2 SHL DUP2 MSTORE PUSH10 0x676F7665726E616E6365 PUSH1 0xB0 SHL PUSH1 0x4 DUP3 ADD MSTORE CALLER PUSH1 0x24 DUP3 ADD MSTORE PUSH1 0x1 PUSH1 0x1 PUSH1 0xA0 SHL SUB SWAP2 SWAP1 SWAP2 AND SWAP1 PUSH4 0x91D14854 SWAP1 PUSH1 0x44 ADD PUSH1 0x20 PUSH1 0x40 MLOAD DUP1 DUP4 SUB DUP2 DUP7 DUP1 EXTCODESIZE ISZERO DUP1 ISZERO PUSH2 0x26FE JUMPI PUSH1 0x0 DUP1 REVERT JUMPDEST POP GAS STATICCALL ISZERO DUP1 ISZERO PUSH2 0x2712 JUMPI RETURNDATASIZE PUSH1 0x0 DUP1 RETURNDATACOPY RETURNDATASIZE PUSH1 0x0 REVERT JUMPDEST POP POP POP POP PUSH1 0x40 MLOAD RETURNDATASIZE PUSH1 0x1F NOT PUSH1 0x1F DUP3 ADD AND DUP3 ADD DUP1 PUSH1 0x40 MSTORE POP DUP2 ADD SWAP1 PUSH2 0x2736 SWAP2 SWAP1 PUSH2 0x483B JUMP JUMPDEST PUSH1 0x40 MLOAD DUP1 PUSH1 0x40 ADD PUSH1 0x40 MSTORE DUP1 PUSH1 0x13 DUP2 MSTORE PUSH1 0x20 ADD PUSH1 0x0 DUP1 MLOAD PUSH1 0x20 PUSH2 0x4BD5 DUP4 CODECOPY DUP2 MLOAD SWAP2 MSTORE DUP2 MSTORE POP SWAP1 PUSH2 0x2778 JUMPI PUSH1 0x40 MLOAD PUSH3 0x461BCD PUSH1 0xE5 SHL DUP2 MSTORE PUSH1 0x4 ADD PUSH2 0x978 SWAP2 SWAP1 PUSH2 0x4788 JUMP JUMPDEST POP PUSH1 0x40 DUP1 MLOAD DUP1 DUP3 ADD SWAP1 SWAP2 MSTORE PUSH1 0xE DUP2 MSTORE PUSH14 0x1A5B9D985B1A5908185B5BDD5B9D PUSH1 0x92 SHL PUSH1 0x20 DUP3 ADD MSTORE PUSH8 0xDE0B6B3A7640000 DUP4 GT ISZERO PUSH2 0x27C7 JUMPI PUSH1 0x40 MLOAD PUSH3 0x461BCD PUSH1 0xE5 SHL DUP2 MSTORE PUSH1 0x4 ADD PUSH2 0x978 SWAP2 SWAP1 PUSH2 0x4788 JUMP JUMPDEST POP PUSH1 0xA SLOAD PUSH1 0x1 PUSH1 0x1 PUSH1 0xA0 SHL SUB AND PUSH2 0x2820 JUMPI PUSH1 0x40 MLOAD PUSH3 0x461BCD PUSH1 0xE5 SHL DUP2 MSTORE PUSH1 0x20 PUSH1 0x4 DUP3 ADD MSTORE PUSH1 0x1D PUSH1 0x24 DUP3 ADD MSTORE PUSH32 0x436F6D6D756E6974792072657365727665206D75737420626520736574000000 PUSH1 0x44 DUP3 ADD MSTORE PUSH1 0x64 ADD PUSH2 0x978 JUMP JUMPDEST PUSH1 0xB DUP3 SWAP1 SSTORE PUSH1 0x40 MLOAD DUP3 DUP2 MSTORE PUSH32 0x2C3C7D70A1DFBFAF74447753B8A73E1323AA10B32B9209742DB563671E14B13C SWAP1 PUSH1 0x20 ADD PUSH2 0xA6E JUMP JUMPDEST PUSH1 0x40 DUP1 MLOAD DUP1 DUP3 ADD SWAP1 SWAP2 MSTORE PUSH1 0x13 DUP2 MSTORE PUSH1 0x0 DUP1 MLOAD PUSH1 0x20 PUSH2 0x4BD5 DUP4 CODECOPY DUP2 MLOAD SWAP2 MSTORE PUSH1 0x20 DUP3 ADD MSTORE PUSH1 0x0 SWAP1 CALLER PUSH1 0x1 PUSH1 0x1 PUSH1 0xA0 SHL SUB PUSH32 0x0 AND EQ PUSH2 0x28C3 JUMPI PUSH1 0x40 MLOAD PUSH3 0x461BCD PUSH1 0xE5 SHL DUP2 MSTORE PUSH1 0x4 ADD PUSH2 0x978 SWAP2 SWAP1 PUSH2 0x4788 JUMP JUMPDEST POP PUSH1 0xD SLOAD PUSH1 0x1 PUSH1 0xA0 SHL SWAP1 DIV PUSH1 0xFF AND ISZERO PUSH2 0x28DC JUMPI POP PUSH1 0x0 SWAP1 JUMP JUMPDEST PUSH1 0xD DUP1 SLOAD PUSH1 0xFF PUSH1 0xA0 SHL NOT AND PUSH1 0x1 PUSH1 0xA0 SHL OR SWAP1 SSTORE PUSH1 0x40 MLOAD PUSH32 0x4426AA1FB73E391071491FCFE21A88B5C38A0A0333A1F6E77161470439704CF8 SWAP1 PUSH1 0x0 SWAP1 LOG1 POP PUSH1 0x1 SWAP1 JUMP JUMPDEST PUSH1 0x40 MLOAD PUSH4 0x21F8A721 PUSH1 0xE0 SHL DUP2 MSTORE PUSH11 0x3937B632A6B0B730B3B2B9 PUSH1 0xA9 SHL PUSH1 0x4 DUP3 ADD MSTORE PUSH1 0x0 SWAP1 PUSH1 0x1 PUSH1 0x1 PUSH1 0xA0 SHL SUB DUP4 AND SWAP1 PUSH4 0x21F8A721 SWAP1 PUSH1 0x24 ADD JUMPDEST PUSH1 0x20 PUSH1 0x40 MLOAD DUP1 DUP4 SUB DUP2 DUP7 DUP1 EXTCODESIZE ISZERO DUP1 ISZERO PUSH2 0x296F JUMPI PUSH1 0x0 DUP1 REVERT JUMPDEST POP GAS STATICCALL ISZERO DUP1 ISZERO PUSH2 0x2983 JUMPI RETURNDATASIZE PUSH1 0x0 DUP1 RETURNDATACOPY RETURNDATASIZE PUSH1 0x0 REVERT JUMPDEST POP POP POP POP PUSH1 0x40 MLOAD RETURNDATASIZE PUSH1 0x1F NOT PUSH1 0x1F DUP3 ADD AND DUP3 ADD DUP1 PUSH1 0x40 MSTORE POP DUP2 ADD SWAP1 PUSH2 0x29A7 SWAP2 SWAP1 PUSH2 0x49E5 JUMP JUMPDEST SWAP3 SWAP2 POP POP JUMP JUMPDEST DUP1 ISZERO DUP1 PUSH2 0x2A36 JUMPI POP PUSH1 0x40 MLOAD PUSH4 0x6EB1769F PUSH1 0xE1 SHL DUP2 MSTORE ADDRESS PUSH1 0x4 DUP3 ADD MSTORE PUSH1 0x1 PUSH1 0x1 PUSH1 0xA0 SHL SUB DUP4 DUP2 AND PUSH1 0x24 DUP4 ADD MSTORE DUP5 AND SWAP1 PUSH4 0xDD62ED3E SWAP1 PUSH1 0x44 ADD PUSH1 0x20 PUSH1 0x40 MLOAD DUP1 DUP4 SUB DUP2 DUP7 DUP1 EXTCODESIZE ISZERO DUP1 ISZERO PUSH2 0x29FC JUMPI PUSH1 0x0 DUP1 REVERT JUMPDEST POP GAS STATICCALL ISZERO DUP1 ISZERO PUSH2 0x2A10 JUMPI RETURNDATASIZE PUSH1 0x0 DUP1 RETURNDATACOPY RETURNDATASIZE PUSH1 0x0 REVERT JUMPDEST POP POP POP POP PUSH1 0x40 MLOAD RETURNDATASIZE PUSH1 0x1F NOT PUSH1 0x1F DUP3 ADD AND DUP3 ADD DUP1 PUSH1 0x40 MSTORE POP DUP2 ADD SWAP1 PUSH2 0x2A34 SWAP2 SWAP1 PUSH2 0x4909 JUMP JUMPDEST ISZERO JUMPDEST PUSH2 0x2AA1 JUMPI PUSH1 0x40 MLOAD PUSH3 0x461BCD PUSH1 0xE5 SHL DUP2 MSTORE PUSH1 0x20 PUSH1 0x4 DUP3 ADD MSTORE PUSH1 0x36 PUSH1 0x24 DUP3 ADD MSTORE PUSH32 0x5361666545524332303A20617070726F76652066726F6D206E6F6E2D7A65726F PUSH1 0x44 DUP3 ADD MSTORE PUSH22 0x20746F206E6F6E2D7A65726F20616C6C6F77616E6365 PUSH1 0x50 SHL PUSH1 0x64 DUP3 ADD MSTORE PUSH1 0x84 ADD PUSH2 0x978 JUMP JUMPDEST PUSH1 0x40 MLOAD PUSH1 0x1 PUSH1 0x1 PUSH1 0xA0 SHL SUB DUP4 AND PUSH1 0x24 DUP3 ADD MSTORE PUSH1 0x44 DUP2 ADD DUP3 SWAP1 MSTORE PUSH2 0x2B04 SWAP1 DUP5 SWAP1 PUSH4 0x95EA7B3 PUSH1 0xE0 SHL SWAP1 PUSH1 0x64 ADD JUMPDEST PUSH1 0x40 DUP1 MLOAD PUSH1 0x1F NOT DUP2 DUP5 SUB ADD DUP2 MSTORE SWAP2 SWAP1 MSTORE PUSH1 0x20 DUP2 ADD DUP1 MLOAD PUSH1 0x1 PUSH1 0x1 PUSH1 0xE0 SHL SUB AND PUSH1 0x1 PUSH1 0x1 PUSH1 0xE0 SHL SUB NOT SWAP1 SWAP4 AND SWAP3 SWAP1 SWAP3 OR SWAP1 SWAP2 MSTORE PUSH2 0x38A9 JUMP JUMPDEST POP POP POP JUMP JUMPDEST PUSH1 0x60 PUSH2 0x2B18 DUP5 DUP5 PUSH1 0x0 DUP6 PUSH2 0x397B JUMP JUMPDEST SWAP1 POP JUMPDEST SWAP4 SWAP3 POP POP POP JUMP JUMPDEST PUSH1 0x0 PUSH2 0x2B1B DUP4 PUSH1 0x1 PUSH1 0x1 PUSH1 0xA0 SHL SUB DUP5 AND PUSH2 0x3AAC JUMP JUMPDEST PUSH1 0x1 PUSH1 0x1 PUSH1 0xA0 SHL SUB SWAP2 DUP3 AND PUSH1 0x0 SWAP1 DUP2 MSTORE PUSH1 0xE PUSH1 0x20 MSTORE PUSH1 0x40 SWAP1 KECCAK256 DUP1 SLOAD PUSH1 0x1 PUSH1 0x1 PUSH1 0xA0 SHL SUB NOT AND SWAP2 SWAP1 SWAP3 AND OR SWAP1 SSTORE JUMP JUMPDEST PUSH1 0x40 MLOAD PUSH4 0x70A08231 PUSH1 0xE0 SHL DUP2 MSTORE ADDRESS PUSH1 0x4 DUP3 ADD MSTORE PUSH1 0x0 SWAP1 PUSH32 0x0 PUSH1 0x1 PUSH1 0x1 PUSH1 0xA0 SHL SUB AND SWAP1 PUSH4 0x70A08231 SWAP1 PUSH1 0x24 ADD JUMPDEST PUSH1 0x20 PUSH1 0x40 MLOAD DUP1 DUP4 SUB DUP2 DUP7 DUP1 EXTCODESIZE ISZERO DUP1 ISZERO PUSH2 0x2BC8 JUMPI PUSH1 0x0 DUP1 REVERT JUMPDEST POP GAS STATICCALL ISZERO DUP1 ISZERO PUSH2 0x2BDC JUMPI RETURNDATASIZE PUSH1 0x0 DUP1 RETURNDATACOPY RETURNDATASIZE PUSH1 0x0 REVERT JUMPDEST POP POP POP POP PUSH1 0x40 MLOAD RETURNDATASIZE PUSH1 0x1F NOT PUSH1 0x1F DUP3 ADD AND DUP3 ADD DUP1 PUSH1 0x40 MSTORE POP DUP2 ADD SWAP1 PUSH2 0x882 SWAP2 SWAP1 PUSH2 0x4909 JUMP JUMPDEST PUSH1 0x40 MLOAD PUSH1 0x1 PUSH1 0x1 PUSH1 0xA0 SHL SUB DUP4 AND PUSH1 0x24 DUP3 ADD MSTORE PUSH1 0x44 DUP2 ADD DUP3 SWAP1 MSTORE PUSH2 0x2B04 SWAP1 DUP5 SWAP1 PUSH4 0xA9059CBB PUSH1 0xE0 SHL SWAP1 PUSH1 0x64 ADD PUSH2 0x2ACD JUMP JUMPDEST PUSH1 0x0 PUSH2 0x29A7 PUSH1 0x9 SLOAD PUSH8 0xDE0B6B3A7640000 PUSH2 0x2C4B SWAP2 SWAP1 PUSH2 0x4A02 JUMP JUMPDEST PUSH2 0x250D DUP5 PUSH2 0x3AFB JUMP JUMPDEST PUSH1 0x40 MLOAD PUSH4 0x70A08231 PUSH1 0xE0 SHL DUP2 MSTORE ADDRESS PUSH1 0x4 DUP3 ADD MSTORE PUSH1 0x0 SWAP1 PUSH32 0x0 PUSH1 0x1 PUSH1 0x1 PUSH1 0xA0 SHL SUB AND SWAP1 PUSH4 0x70A08231 SWAP1 PUSH1 0x24 ADD PUSH2 0x2BB0 JUMP JUMPDEST PUSH1 0x0 PUSH2 0x29A7 PUSH1 0x7 SLOAD PUSH8 0xDE0B6B3A7640000 PUSH2 0x2CBE SWAP2 SWAP1 PUSH2 0x4A02 JUMP JUMPDEST PUSH2 0x250D DUP5 PUSH2 0x3BBB JUMP JUMPDEST PUSH1 0x4 DUP1 SLOAD PUSH1 0x40 MLOAD PUSH4 0x70A08231 PUSH1 0xE0 SHL DUP2 MSTORE ADDRESS SWAP3 DUP2 ADD SWAP3 SWAP1 SWAP3 MSTORE PUSH1 0x0 SWAP2 PUSH1 0x1 PUSH1 0x1 PUSH1 0xA0 SHL SUB SWAP1 SWAP2 AND SWAP1 PUSH4 0x70A08231 SWAP1 PUSH1 0x24 ADD PUSH2 0x2BB0 JUMP JUMPDEST PUSH1 0x0 PUSH2 0x2B1B DUP4 PUSH1 0x1 PUSH1 0x1 PUSH1 0xA0 SHL SUB DUP5 AND PUSH2 0x3CA2 JUMP JUMPDEST PUSH1 0x0 DUP1 PUSH2 0x2D1D PUSH2 0x2B65 JUMP JUMPDEST SWAP1 POP PUSH1 0x5 PUSH1 0x0 SWAP1 SLOAD SWAP1 PUSH2 0x100 EXP SWAP1 DIV PUSH1 0x1 PUSH1 0x1 PUSH1 0xA0 SHL SUB AND PUSH1 0x1 PUSH1 0x1 PUSH1 0xA0 SHL SUB AND PUSH4 0x3D18B912 PUSH1 0x40 MLOAD DUP2 PUSH4 0xFFFFFFFF AND PUSH1 0xE0 SHL DUP2 MSTORE PUSH1 0x4 ADD PUSH1 0x0 PUSH1 0x40 MLOAD DUP1 DUP4 SUB DUP2 PUSH1 0x0 DUP8 DUP1 EXTCODESIZE ISZERO DUP1 ISZERO PUSH2 0x2D6F JUMPI PUSH1 0x0 DUP1 REVERT JUMPDEST POP GAS CALL ISZERO DUP1 ISZERO PUSH2 0x2D83 JUMPI RETURNDATASIZE PUSH1 0x0 DUP1 RETURNDATACOPY RETURNDATASIZE PUSH1 0x0 REVERT JUMPDEST POP POP POP POP PUSH2 0x2D8F PUSH2 0x3D95 JUMP JUMPDEST PUSH2 0x2DAC PUSH20 0x4E3FBD56CD56C3E72C1403E103B45DB9DA5B9D2B PUSH2 0x3F31 JUMP JUMPDEST PUSH2 0x2DC9 PUSH20 0xD533A949740BB3306D119CC777FA900BA034CD52 PUSH2 0x3F31 JUMP JUMPDEST PUSH1 0x0 JUMPDEST PUSH2 0x2DD6 PUSH1 0xF PUSH2 0x3FB7 JUMP JUMPDEST DUP2 LT ISZERO PUSH2 0x2E02 JUMPI PUSH2 0x2DF0 PUSH2 0x2DEB PUSH1 0xF DUP4 PUSH2 0x3FC1 JUMP JUMPDEST PUSH2 0x3F31 JUMP JUMPDEST DUP1 PUSH2 0x2DFA DUP2 PUSH2 0x4A1A JUMP JUMPDEST SWAP2 POP POP PUSH2 0x2DCC JUMP JUMPDEST POP PUSH2 0x2E0B PUSH2 0x3FCD JUMP JUMPDEST PUSH1 0x0 DUP2 PUSH2 0x2E16 PUSH2 0x2B65 JUMP JUMPDEST PUSH2 0x2E20 SWAP2 SWAP1 PUSH2 0x486C JUMP JUMPDEST SWAP1 POP PUSH32 0x80F97F878E16410266694F134DDF012F2BE424F54F8B5CAFA107ECCC51D00D58 DUP2 PUSH1 0x40 MLOAD PUSH2 0x1BC4 SWAP2 DUP2 MSTORE PUSH1 0x20 ADD SWAP1 JUMP JUMPDEST PUSH1 0x0 PUSH2 0x2E5D PUSH2 0x32B5 JUMP JUMPDEST SWAP1 POP DUP1 ISZERO PUSH2 0x2EEC JUMPI PUSH1 0x5 SLOAD PUSH1 0x40 MLOAD PUSH4 0x61973901 PUSH1 0xE1 SHL DUP2 MSTORE PUSH1 0x4 DUP2 ADD DUP4 SWAP1 MSTORE PUSH1 0x0 PUSH1 0x24 DUP3 ADD MSTORE PUSH1 0x1 PUSH1 0x1 PUSH1 0xA0 SHL SUB SWAP1 SWAP2 AND SWAP1 PUSH4 0xC32E7202 SWAP1 PUSH1 0x44 ADD PUSH1 0x20 PUSH1 0x40 MLOAD DUP1 DUP4 SUB DUP2 PUSH1 0x0 DUP8 DUP1 EXTCODESIZE ISZERO DUP1 ISZERO PUSH2 0x2EB2 JUMPI PUSH1 0x0 DUP1 REVERT JUMPDEST POP GAS CALL ISZERO DUP1 ISZERO PUSH2 0x2EC6 JUMPI RETURNDATASIZE PUSH1 0x0 DUP1 RETURNDATACOPY RETURNDATASIZE PUSH1 0x0 REVERT JUMPDEST POP POP POP POP PUSH1 0x40 MLOAD RETURNDATASIZE PUSH1 0x1F NOT PUSH1 0x1F DUP3 ADD AND DUP3 ADD DUP1 PUSH1 0x40 MSTORE POP DUP2 ADD SWAP1 PUSH2 0x2EEA SWAP2 SWAP1 PUSH2 0x483B JUMP JUMPDEST POP JUMPDEST PUSH1 0x0 PUSH2 0x2EF6 PUSH2 0x2CC7 JUMP JUMPDEST SWAP1 POP DUP1 ISZERO PUSH2 0x2F7F JUMPI PUSH1 0x1 SLOAD PUSH1 0x3 SLOAD PUSH1 0x1 PUSH1 0x1 PUSH1 0xA0 SHL SUB SWAP1 SWAP2 AND SWAP1 PUSH4 0x1A4D01D2 SWAP1 DUP4 SWAP1 PUSH2 0x2F21 DUP3 PUSH2 0x42CD JUMP JUMPDEST PUSH1 0x40 MLOAD PUSH1 0x1 PUSH1 0x1 PUSH1 0xE0 SHL SUB NOT PUSH1 0xE0 DUP7 SWAP1 SHL AND DUP2 MSTORE PUSH1 0x4 DUP2 ADD SWAP4 SWAP1 SWAP4 MSTORE PUSH1 0xF SWAP2 SWAP1 SWAP2 SIGNEXTEND PUSH1 0x24 DUP4 ADD MSTORE PUSH1 0x44 DUP3 ADD MSTORE PUSH1 0x64 ADD JUMPDEST PUSH1 0x0 PUSH1 0x40 MLOAD DUP1 DUP4 SUB DUP2 PUSH1 0x0 DUP8 DUP1 EXTCODESIZE ISZERO DUP1 ISZERO PUSH2 0x2F6B JUMPI PUSH1 0x0 DUP1 REVERT JUMPDEST POP GAS CALL ISZERO DUP1 ISZERO PUSH2 0x2071 JUMPI RETURNDATASIZE PUSH1 0x0 DUP1 RETURNDATACOPY RETURNDATASIZE PUSH1 0x0 REVERT JUMPDEST POP POP JUMP JUMPDEST PUSH1 0x0 PUSH2 0x29A7 PUSH1 0x9 SLOAD PUSH8 0xDE0B6B3A7640000 PUSH2 0x2F9E SWAP2 SWAP1 PUSH2 0x486C JUMP JUMPDEST PUSH2 0x250D DUP5 PUSH2 0x3400 JUMP JUMPDEST PUSH1 0x40 DUP1 MLOAD DUP1 DUP3 ADD SWAP1 SWAP2 MSTORE PUSH1 0x11 DUP2 MSTORE PUSH17 0x696E76616C6964206D73672E76616C7565 PUSH1 0x78 SHL PUSH1 0x20 DUP3 ADD MSTORE PUSH1 0x0 SWAP1 CALLVALUE ISZERO PUSH2 0x2FF1 JUMPI PUSH1 0x40 MLOAD PUSH3 0x461BCD PUSH1 0xE5 SHL DUP2 MSTORE PUSH1 0x4 ADD PUSH2 0x978 SWAP2 SWAP1 PUSH2 0x4788 JUMP JUMPDEST POP PUSH1 0xD SLOAD PUSH1 0x40 DUP1 MLOAD DUP1 DUP3 ADD SWAP1 SWAP2 MSTORE PUSH1 0x15 DUP2 MSTORE PUSH21 0x29BA3930BA32B3BC9034B99039B43ABA103237BBB7 PUSH1 0x59 SHL PUSH1 0x20 DUP3 ADD MSTORE SWAP1 PUSH1 0x1 PUSH1 0xA0 SHL SWAP1 DIV PUSH1 0xFF AND ISZERO PUSH2 0x304A JUMPI PUSH1 0x40 MLOAD PUSH3 0x461BCD PUSH1 0xE5 SHL DUP2 MSTORE PUSH1 0x4 ADD PUSH2 0x978 SWAP2 SWAP1 PUSH2 0x4788 JUMP JUMPDEST POP PUSH1 0x0 PUSH2 0x3055 PUSH2 0x2B65 JUMP JUMPDEST SWAP1 POP DUP1 ISZERO PUSH2 0x3127 JUMPI PUSH2 0x3065 PUSH2 0x473E JUMP JUMPDEST DUP2 DUP2 PUSH32 0x0 PUSH1 0x3 DUP2 LT PUSH2 0x3098 JUMPI PUSH2 0x3098 PUSH2 0x4883 JUMP JUMPDEST PUSH1 0x20 MUL ADD MSTORE PUSH1 0x1 PUSH1 0x1 PUSH1 0xA0 SHL SUB PUSH32 0x0 AND PUSH4 0x4515CEF3 DUP3 PUSH2 0x30D6 DUP6 PUSH2 0x42F1 JUMP JUMPDEST PUSH1 0x40 MLOAD DUP4 PUSH4 0xFFFFFFFF AND PUSH1 0xE0 SHL DUP2 MSTORE PUSH1 0x4 ADD PUSH2 0x30F3 SWAP3 SWAP2 SWAP1 PUSH2 0x48D1 JUMP JUMPDEST PUSH1 0x0 PUSH1 0x40 MLOAD DUP1 DUP4 SUB DUP2 PUSH1 0x0 DUP8 DUP1 EXTCODESIZE ISZERO DUP1 ISZERO PUSH2 0x310D JUMPI PUSH1 0x0 DUP1 REVERT JUMPDEST POP GAS CALL ISZERO DUP1 ISZERO PUSH2 0x3121 JUMPI RETURNDATASIZE PUSH1 0x0 DUP1 RETURNDATACOPY RETURNDATASIZE PUSH1 0x0 REVERT JUMPDEST POP POP POP POP POP JUMPDEST PUSH1 0x0 PUSH2 0x3131 PUSH2 0x2C54 JUMP JUMPDEST SWAP1 POP DUP1 ISZERO PUSH2 0x31C7 JUMPI PUSH2 0x3141 PUSH2 0x4720 JUMP JUMPDEST DUP2 DUP2 PUSH1 0x3 SLOAD PUSH1 0x2 DUP2 LT PUSH2 0x3156 JUMPI PUSH2 0x3156 PUSH2 0x4883 JUMP JUMPDEST PUSH1 0x20 MUL ADD MSTORE PUSH1 0x1 SLOAD PUSH1 0x1 PUSH1 0x1 PUSH1 0xA0 SHL SUB AND PUSH4 0xB4C7E4D DUP3 PUSH2 0x3176 DUP6 PUSH2 0x430C JUMP JUMPDEST PUSH1 0x40 MLOAD DUP4 PUSH4 0xFFFFFFFF AND PUSH1 0xE0 SHL DUP2 MSTORE PUSH1 0x4 ADD PUSH2 0x3193 SWAP3 SWAP2 SWAP1 PUSH2 0x4899 JUMP JUMPDEST PUSH1 0x0 PUSH1 0x40 MLOAD DUP1 DUP4 SUB DUP2 PUSH1 0x0 DUP8 DUP1 EXTCODESIZE ISZERO DUP1 ISZERO PUSH2 0x31AD JUMPI PUSH1 0x0 DUP1 REVERT JUMPDEST POP GAS CALL ISZERO DUP1 ISZERO PUSH2 0x31C1 JUMPI RETURNDATASIZE PUSH1 0x0 DUP1 RETURNDATACOPY RETURNDATASIZE PUSH1 0x0 REVERT JUMPDEST POP POP POP POP POP JUMPDEST PUSH2 0x31CF PUSH2 0x2CC7 JUMP JUMPDEST PUSH2 0x31DC JUMPI PUSH1 0x0 SWAP3 POP POP POP SWAP1 JUMP JUMPDEST PUSH1 0x2 SLOAD PUSH1 0x40 MLOAD PUSH4 0x303ACFE7 PUSH1 0xE1 SHL DUP2 MSTORE PUSH1 0x4 DUP2 ADD SWAP2 SWAP1 SWAP2 MSTORE PUSH1 0x1 PUSH1 0x24 DUP3 ADD MSTORE PUSH20 0xF403C135812408BFBE8713B5A23A04B3D48AAE31 SWAP1 PUSH4 0x60759FCE SWAP1 PUSH1 0x44 ADD PUSH1 0x20 PUSH1 0x40 MLOAD DUP1 DUP4 SUB DUP2 PUSH1 0x0 DUP8 DUP1 EXTCODESIZE ISZERO DUP1 ISZERO PUSH2 0x3234 JUMPI PUSH1 0x0 DUP1 REVERT JUMPDEST POP GAS CALL ISZERO DUP1 ISZERO PUSH2 0x3248 JUMPI RETURNDATASIZE PUSH1 0x0 DUP1 RETURNDATACOPY RETURNDATASIZE PUSH1 0x0 REVERT JUMPDEST POP POP POP POP PUSH1 0x40 MLOAD RETURNDATASIZE PUSH1 0x1F NOT PUSH1 0x1F DUP3 ADD AND DUP3 ADD DUP1 PUSH1 0x40 MSTORE POP DUP2 ADD SWAP1 PUSH2 0x326C SWAP2 SWAP1 PUSH2 0x483B JUMP JUMPDEST PUSH2 0x3279 JUMPI PUSH1 0x0 SWAP3 POP POP POP SWAP1 JUMP JUMPDEST PUSH1 0x40 MLOAD DUP3 DUP2 MSTORE PUSH32 0x4D6CE1E535DBADE1C23DEFBA91E23B8F791CE5EDC0CC320257A2B364E4E38426 SWAP1 PUSH1 0x20 ADD PUSH1 0x40 MLOAD DUP1 SWAP2 SUB SWAP1 LOG1 PUSH1 0x1 SWAP3 POP POP POP SWAP1 JUMP JUMPDEST PUSH1 0x5 SLOAD PUSH1 0x40 MLOAD PUSH4 0x70A08231 PUSH1 0xE0 SHL DUP2 MSTORE ADDRESS PUSH1 0x4 DUP3 ADD MSTORE PUSH1 0x0 SWAP2 PUSH1 0x1 PUSH1 0x1 PUSH1 0xA0 SHL SUB AND SWAP1 PUSH4 0x70A08231 SWAP1 PUSH1 0x24 ADD PUSH2 0x2BB0 JUMP JUMPDEST PUSH1 0x0 PUSH2 0x29A7 PUSH32 0x0 PUSH1 0x1 PUSH1 0x1 PUSH1 0xA0 SHL SUB AND PUSH4 0xBB7B8B80 PUSH1 0x40 MLOAD DUP2 PUSH4 0xFFFFFFFF AND PUSH1 0xE0 SHL DUP2 MSTORE PUSH1 0x4 ADD PUSH1 0x20 PUSH1 0x40 MLOAD DUP1 DUP4 SUB DUP2 DUP7 DUP1 EXTCODESIZE ISZERO DUP1 ISZERO PUSH2 0x3344 JUMPI PUSH1 0x0 DUP1 REVERT JUMPDEST POP GAS STATICCALL ISZERO DUP1 ISZERO PUSH2 0x3358 JUMPI RETURNDATASIZE PUSH1 0x0 DUP1 RETURNDATACOPY RETURNDATASIZE PUSH1 0x0 REVERT JUMPDEST POP POP POP POP PUSH1 0x40 MLOAD RETURNDATASIZE PUSH1 0x1F NOT PUSH1 0x1F DUP3 ADD AND DUP3 ADD DUP1 PUSH1 0x40 MSTORE POP DUP2 ADD SWAP1 PUSH2 0x337C SWAP2 SWAP1 PUSH2 0x4909 JUMP JUMPDEST PUSH1 0x1 SLOAD PUSH1 0x40 DUP1 MLOAD PUSH4 0x176F717 PUSH1 0xE7 SHL DUP2 MSTORE SWAP1 MLOAD PUSH2 0x33FA SWAP3 PUSH1 0x1 PUSH1 0x1 PUSH1 0xA0 SHL SUB AND SWAP2 PUSH4 0xBB7B8B80 SWAP2 PUSH1 0x4 DUP1 DUP4 ADD SWAP3 PUSH1 0x20 SWAP3 SWAP2 SWAP1 DUP3 SWAP1 SUB ADD DUP2 DUP7 DUP1 EXTCODESIZE ISZERO DUP1 ISZERO PUSH2 0x33C2 JUMPI PUSH1 0x0 DUP1 REVERT JUMPDEST POP GAS STATICCALL ISZERO DUP1 ISZERO PUSH2 0x33D6 JUMPI RETURNDATASIZE PUSH1 0x0 DUP1 RETURNDATACOPY RETURNDATASIZE PUSH1 0x0 REVERT JUMPDEST POP POP POP POP PUSH1 0x40 MLOAD RETURNDATASIZE PUSH1 0x1F NOT PUSH1 0x1F DUP3 ADD AND DUP3 ADD DUP1 PUSH1 0x40 MSTORE POP DUP2 ADD SWAP1 PUSH2 0x2549 SWAP2 SWAP1 PUSH2 0x4909 JUMP JUMPDEST SWAP1 PUSH2 0x4327 JUMP JUMPDEST PUSH1 0x0 PUSH2 0x29A7 PUSH32 0x0 PUSH1 0x1 PUSH1 0x1 PUSH1 0xA0 SHL SUB AND PUSH4 0xBB7B8B80 PUSH1 0x40 MLOAD DUP2 PUSH4 0xFFFFFFFF AND PUSH1 0xE0 SHL DUP2 MSTORE PUSH1 0x4 ADD PUSH1 0x20 PUSH1 0x40 MLOAD DUP1 DUP4 SUB DUP2 DUP7 DUP1 EXTCODESIZE ISZERO DUP1 ISZERO PUSH2 0x345E JUMPI PUSH1 0x0 DUP1 REVERT JUMPDEST POP GAS STATICCALL ISZERO DUP1 ISZERO PUSH2 0x3472 JUMPI RETURNDATASIZE PUSH1 0x0 DUP1 RETURNDATACOPY RETURNDATASIZE PUSH1 0x0 REVERT JUMPDEST POP POP POP POP PUSH1 0x40 MLOAD RETURNDATASIZE PUSH1 0x1F NOT PUSH1 0x1F DUP3 ADD AND DUP3 ADD DUP1 PUSH1 0x40 MSTORE POP DUP2 ADD SWAP1 PUSH2 0x3496 SWAP2 SWAP1 PUSH2 0x4909 JUMP JUMPDEST PUSH2 0x250D PUSH32 0x0 DUP6 PUSH2 0x4922 JUMP JUMPDEST PUSH1 0x0 PUSH8 0xDE0B6B3A7640000 PUSH2 0x34D5 DUP4 DUP6 PUSH2 0x4944 JUMP JUMPDEST PUSH2 0x2B1B SWAP2 SWAP1 PUSH2 0x4922 JUMP JUMPDEST PUSH1 0x0 DUP2 PUSH2 0x34EE JUMPI POP PUSH1 0x0 PUSH2 0x29A7 JUMP JUMPDEST PUSH1 0x60 PUSH1 0x1 PUSH1 0x1 PUSH1 0xA0 SHL SUB DUP5 AND PUSH20 0x4E3FBD56CD56C3E72C1403E103B45DB9DA5B9D2B EQ ISZERO PUSH2 0x370E JUMPI PUSH1 0x40 DUP1 MLOAD PUSH1 0x2 DUP1 DUP3 MSTORE PUSH1 0x60 DUP3 ADD DUP4 MSTORE PUSH32 0x0 SWAP3 PUSH1 0x20 DUP4 ADD SWAP1 DUP1 CALLDATASIZE DUP4 CALLDATACOPY ADD SWAP1 POP POP SWAP2 POP PUSH20 0xC02AAA39B223FE8D0A0E5C4F27EAD9083C756CC2 DUP3 PUSH1 0x0 DUP2 MLOAD DUP2 LT PUSH2 0x357D JUMPI PUSH2 0x357D PUSH2 0x4883 JUMP JUMPDEST PUSH1 0x20 MUL PUSH1 0x20 ADD ADD SWAP1 PUSH1 0x1 PUSH1 0x1 PUSH1 0xA0 SHL SUB AND SWAP1 DUP2 PUSH1 0x1 PUSH1 0x1 PUSH1 0xA0 SHL SUB AND DUP2 MSTORE POP POP DUP1 DUP3 PUSH1 0x1 DUP2 MLOAD DUP2 LT PUSH2 0x35B1 JUMPI PUSH2 0x35B1 PUSH2 0x4883 JUMP JUMPDEST PUSH1 0x1 PUSH1 0x1 PUSH1 0xA0 SHL SUB SWAP3 DUP4 AND PUSH1 0x20 SWAP2 DUP3 MUL SWAP3 SWAP1 SWAP3 ADD DUP2 ADD SWAP2 SWAP1 SWAP2 MSTORE DUP3 DUP3 AND PUSH1 0x0 SWAP1 DUP2 MSTORE PUSH1 0xE SWAP1 SWAP2 MSTORE PUSH1 0x40 DUP1 DUP3 KECCAK256 SLOAD SWAP1 MLOAD PUSH4 0x556D6E9F PUSH1 0xE0 SHL DUP2 MSTORE PUSH1 0x1 PUSH1 0x4 DUP3 ADD MSTORE PUSH1 0x24 DUP2 ADD SWAP3 SWAP1 SWAP3 MSTORE PUSH1 0x44 DUP3 ADD DUP8 SWAP1 MSTORE SWAP1 SWAP2 AND SWAP1 PUSH4 0xD06CA61F SWAP1 PUSH20 0xB576491F1E6E5E62F1D8F26062EE822B40B0E0D4 SWAP1 PUSH4 0x556D6E9F SWAP1 PUSH1 0x64 ADD PUSH1 0x20 PUSH1 0x40 MLOAD DUP1 DUP4 SUB DUP2 DUP7 DUP1 EXTCODESIZE ISZERO DUP1 ISZERO PUSH2 0x3641 JUMPI PUSH1 0x0 DUP1 REVERT JUMPDEST POP GAS STATICCALL ISZERO DUP1 ISZERO PUSH2 0x3655 JUMPI RETURNDATASIZE PUSH1 0x0 DUP1 RETURNDATACOPY RETURNDATASIZE PUSH1 0x0 REVERT JUMPDEST POP POP POP POP PUSH1 0x40 MLOAD RETURNDATASIZE PUSH1 0x1F NOT PUSH1 0x1F DUP3 ADD AND DUP3 ADD DUP1 PUSH1 0x40 MSTORE POP DUP2 ADD SWAP1 PUSH2 0x3679 SWAP2 SWAP1 PUSH2 0x4909 JUMP JUMPDEST DUP5 PUSH1 0x40 MLOAD DUP4 PUSH4 0xFFFFFFFF AND PUSH1 0xE0 SHL DUP2 MSTORE PUSH1 0x4 ADD PUSH2 0x3697 SWAP3 SWAP2 SWAP1 PUSH2 0x4A8F JUMP JUMPDEST PUSH1 0x0 PUSH1 0x40 MLOAD DUP1 DUP4 SUB DUP2 DUP7 DUP1 EXTCODESIZE ISZERO DUP1 ISZERO PUSH2 0x36AF JUMPI PUSH1 0x0 DUP1 REVERT JUMPDEST POP GAS STATICCALL ISZERO DUP1 ISZERO PUSH2 0x36C3 JUMPI RETURNDATASIZE PUSH1 0x0 DUP1 RETURNDATACOPY RETURNDATASIZE PUSH1 0x0 REVERT JUMPDEST POP POP POP POP PUSH1 0x40 MLOAD RETURNDATASIZE PUSH1 0x0 DUP3 RETURNDATACOPY PUSH1 0x1F RETURNDATASIZE SWAP1 DUP2 ADD PUSH1 0x1F NOT AND DUP3 ADD PUSH1 0x40 MSTORE PUSH2 0x36EB SWAP2 SWAP1 DUP2 ADD SWAP1 PUSH2 0x4AA8 JUMP JUMPDEST PUSH1 0x1 DUP2 MLOAD DUP2 LT PUSH2 0x36FD JUMPI PUSH2 0x36FD PUSH2 0x4883 JUMP JUMPDEST PUSH1 0x20 MUL PUSH1 0x20 ADD ADD MLOAD SWAP3 POP POP POP PUSH2 0x29A7 JUMP JUMPDEST PUSH1 0x40 DUP1 MLOAD PUSH1 0x3 DUP1 DUP3 MSTORE PUSH1 0x80 DUP3 ADD SWAP1 SWAP3 MSTORE SWAP1 PUSH1 0x20 DUP3 ADD PUSH1 0x60 DUP1 CALLDATASIZE DUP4 CALLDATACOPY ADD SWAP1 POP POP SWAP1 POP DUP4 DUP2 PUSH1 0x0 DUP2 MLOAD DUP2 LT PUSH2 0x3743 JUMPI PUSH2 0x3743 PUSH2 0x4883 JUMP JUMPDEST PUSH1 0x20 MUL PUSH1 0x20 ADD ADD SWAP1 PUSH1 0x1 PUSH1 0x1 PUSH1 0xA0 SHL SUB AND SWAP1 DUP2 PUSH1 0x1 PUSH1 0x1 PUSH1 0xA0 SHL SUB AND DUP2 MSTORE POP POP PUSH20 0xC02AAA39B223FE8D0A0E5C4F27EAD9083C756CC2 DUP2 PUSH1 0x1 DUP2 MLOAD DUP2 LT PUSH2 0x378B JUMPI PUSH2 0x378B PUSH2 0x4883 JUMP JUMPDEST PUSH1 0x20 MUL PUSH1 0x20 ADD ADD SWAP1 PUSH1 0x1 PUSH1 0x1 PUSH1 0xA0 SHL SUB AND SWAP1 DUP2 PUSH1 0x1 PUSH1 0x1 PUSH1 0xA0 SHL SUB AND DUP2 MSTORE POP POP PUSH32 0x0 DUP2 PUSH1 0x2 DUP2 MLOAD DUP2 LT PUSH2 0x37DF JUMPI PUSH2 0x37DF PUSH2 0x4883 JUMP JUMPDEST PUSH1 0x1 PUSH1 0x1 PUSH1 0xA0 SHL SUB SWAP3 DUP4 AND PUSH1 0x20 SWAP2 DUP3 MUL SWAP3 SWAP1 SWAP3 ADD DUP2 ADD SWAP2 SWAP1 SWAP2 MSTORE DUP6 DUP3 AND PUSH1 0x0 SWAP1 DUP2 MSTORE PUSH1 0xE SWAP1 SWAP2 MSTORE PUSH1 0x40 SWAP1 DUP2 SWAP1 KECCAK256 SLOAD SWAP1 MLOAD PUSH4 0xD06CA61F PUSH1 0xE0 SHL DUP2 MSTORE SWAP2 AND SWAP1 PUSH4 0xD06CA61F SWAP1 PUSH2 0x3832 SWAP1 DUP7 SWAP1 DUP6 SWAP1 PUSH1 0x4 ADD PUSH2 0x4A8F JUMP JUMPDEST PUSH1 0x0 PUSH1 0x40 MLOAD DUP1 DUP4 SUB DUP2 DUP7 DUP1 EXTCODESIZE ISZERO DUP1 ISZERO PUSH2 0x384A JUMPI PUSH1 0x0 DUP1 REVERT JUMPDEST POP GAS STATICCALL ISZERO DUP1 ISZERO PUSH2 0x385E JUMPI RETURNDATASIZE PUSH1 0x0 DUP1 RETURNDATACOPY RETURNDATASIZE PUSH1 0x0 REVERT JUMPDEST POP POP POP POP PUSH1 0x40 MLOAD RETURNDATASIZE PUSH1 0x0 DUP3 RETURNDATACOPY PUSH1 0x1F RETURNDATASIZE SWAP1 DUP2 ADD PUSH1 0x1F NOT AND DUP3 ADD PUSH1 0x40 MSTORE PUSH2 0x3886 SWAP2 SWAP1 DUP2 ADD SWAP1 PUSH2 0x4AA8 JUMP JUMPDEST PUSH1 0x2 DUP2 MLOAD DUP2 LT PUSH2 0x3898 JUMPI PUSH2 0x3898 PUSH2 0x4883 JUMP JUMPDEST PUSH1 0x20 MUL PUSH1 0x20 ADD ADD MLOAD SWAP2 POP POP SWAP3 SWAP2 POP POP JUMP JUMPDEST PUSH1 0x0 PUSH2 0x38FE DUP3 PUSH1 0x40 MLOAD DUP1 PUSH1 0x40 ADD PUSH1 0x40 MSTORE DUP1 PUSH1 0x20 DUP2 MSTORE PUSH1 0x20 ADD PUSH32 0x5361666545524332303A206C6F772D6C6576656C2063616C6C206661696C6564 DUP2 MSTORE POP DUP6 PUSH1 0x1 PUSH1 0x1 PUSH1 0xA0 SHL SUB AND PUSH2 0x2B09 SWAP1 SWAP3 SWAP2 SWAP1 PUSH4 0xFFFFFFFF AND JUMP JUMPDEST DUP1 MLOAD SWAP1 SWAP2 POP ISZERO PUSH2 0x2B04 JUMPI DUP1 DUP1 PUSH1 0x20 ADD SWAP1 MLOAD DUP2 ADD SWAP1 PUSH2 0x391C SWAP2 SWAP1 PUSH2 0x483B JUMP JUMPDEST PUSH2 0x2B04 JUMPI PUSH1 0x40 MLOAD PUSH3 0x461BCD PUSH1 0xE5 SHL DUP2 MSTORE PUSH1 0x20 PUSH1 0x4 DUP3 ADD MSTORE PUSH1 0x2A PUSH1 0x24 DUP3 ADD MSTORE PUSH32 0x5361666545524332303A204552433230206F7065726174696F6E20646964206E PUSH1 0x44 DUP3 ADD MSTORE PUSH10 0x1BDD081CDD58D8D95959 PUSH1 0xB2 SHL PUSH1 0x64 DUP3 ADD MSTORE PUSH1 0x84 ADD PUSH2 0x978 JUMP JUMPDEST PUSH1 0x60 DUP3 SELFBALANCE LT ISZERO PUSH2 0x39DC JUMPI PUSH1 0x40 MLOAD PUSH3 0x461BCD PUSH1 0xE5 SHL DUP2 MSTORE PUSH1 0x20 PUSH1 0x4 DUP3 ADD MSTORE PUSH1 0x26 PUSH1 0x24 DUP3 ADD MSTORE PUSH32 0x416464726573733A20696E73756666696369656E742062616C616E636520666F PUSH1 0x44 DUP3 ADD MSTORE PUSH6 0x1C8818D85B1B PUSH1 0xD2 SHL PUSH1 0x64 DUP3 ADD MSTORE PUSH1 0x84 ADD PUSH2 0x978 JUMP JUMPDEST PUSH1 0x1 PUSH1 0x1 PUSH1 0xA0 SHL SUB DUP6 AND EXTCODESIZE PUSH2 0x3A33 JUMPI PUSH1 0x40 MLOAD PUSH3 0x461BCD PUSH1 0xE5 SHL DUP2 MSTORE PUSH1 0x20 PUSH1 0x4 DUP3 ADD MSTORE PUSH1 0x1D PUSH1 0x24 DUP3 ADD MSTORE PUSH32 0x416464726573733A2063616C6C20746F206E6F6E2D636F6E7472616374000000 PUSH1 0x44 DUP3 ADD MSTORE PUSH1 0x64 ADD PUSH2 0x978 JUMP JUMPDEST PUSH1 0x0 DUP1 DUP7 PUSH1 0x1 PUSH1 0x1 PUSH1 0xA0 SHL SUB AND DUP6 DUP8 PUSH1 0x40 MLOAD PUSH2 0x3A4F SWAP2 SWAP1 PUSH2 0x4B66 JUMP JUMPDEST PUSH1 0x0 PUSH1 0x40 MLOAD DUP1 DUP4 SUB DUP2 DUP6 DUP8 GAS CALL SWAP3 POP POP POP RETURNDATASIZE DUP1 PUSH1 0x0 DUP2 EQ PUSH2 0x3A8C JUMPI PUSH1 0x40 MLOAD SWAP2 POP PUSH1 0x1F NOT PUSH1 0x3F RETURNDATASIZE ADD AND DUP3 ADD PUSH1 0x40 MSTORE RETURNDATASIZE DUP3 MSTORE RETURNDATASIZE PUSH1 0x0 PUSH1 0x20 DUP5 ADD RETURNDATACOPY PUSH2 0x3A91 JUMP JUMPDEST PUSH1 0x60 SWAP2 POP JUMPDEST POP SWAP2 POP SWAP2 POP PUSH2 0x3AA1 DUP3 DUP3 DUP7 PUSH2 0x433C JUMP JUMPDEST SWAP8 SWAP7 POP POP POP POP POP POP POP JUMP JUMPDEST PUSH1 0x0 DUP2 DUP2 MSTORE PUSH1 0x1 DUP4 ADD PUSH1 0x20 MSTORE PUSH1 0x40 DUP2 KECCAK256 SLOAD PUSH2 0x3AF3 JUMPI POP DUP2 SLOAD PUSH1 0x1 DUP2 DUP2 ADD DUP5 SSTORE PUSH1 0x0 DUP5 DUP2 MSTORE PUSH1 0x20 DUP1 DUP3 KECCAK256 SWAP1 SWAP4 ADD DUP5 SWAP1 SSTORE DUP5 SLOAD DUP5 DUP3 MSTORE DUP3 DUP7 ADD SWAP1 SWAP4 MSTORE PUSH1 0x40 SWAP1 KECCAK256 SWAP2 SWAP1 SWAP2 SSTORE PUSH2 0x29A7 JUMP JUMPDEST POP PUSH1 0x0 PUSH2 0x29A7 JUMP JUMPDEST PUSH1 0x0 PUSH2 0x29A7 PUSH32 0x0 PUSH1 0x1 PUSH1 0x1 PUSH1 0xA0 SHL SUB AND PUSH4 0xBB7B8B80 PUSH1 0x40 MLOAD DUP2 PUSH4 0xFFFFFFFF AND PUSH1 0xE0 SHL DUP2 MSTORE PUSH1 0x4 ADD PUSH1 0x20 PUSH1 0x40 MLOAD DUP1 DUP4 SUB DUP2 DUP7 DUP1 EXTCODESIZE ISZERO DUP1 ISZERO PUSH2 0x3B59 JUMPI PUSH1 0x0 DUP1 REVERT JUMPDEST POP GAS STATICCALL ISZERO DUP1 ISZERO PUSH2 0x3B6D JUMPI RETURNDATASIZE PUSH1 0x0 DUP1 RETURNDATACOPY RETURNDATASIZE PUSH1 0x0 REVERT JUMPDEST POP POP POP POP PUSH1 0x40 MLOAD RETURNDATASIZE PUSH1 0x1F NOT PUSH1 0x1F DUP3 ADD AND DUP3 ADD DUP1 PUSH1 0x40 MSTORE POP DUP2 ADD SWAP1 PUSH2 0x3B91 SWAP2 SWAP1 PUSH2 0x4909 JUMP JUMPDEST PUSH2 0x33FA PUSH32 0x0 DUP6 PUSH2 0x4944 JUMP JUMPDEST PUSH1 0x0 PUSH2 0x29A7 PUSH1 0x1 PUSH1 0x0 SWAP1 SLOAD SWAP1 PUSH2 0x100 EXP SWAP1 DIV PUSH1 0x1 PUSH1 0x1 PUSH1 0xA0 SHL SUB AND PUSH1 0x1 PUSH1 0x1 PUSH1 0xA0 SHL SUB AND PUSH4 0xBB7B8B80 PUSH1 0x40 MLOAD DUP2 PUSH4 0xFFFFFFFF AND PUSH1 0xE0 SHL DUP2 MSTORE PUSH1 0x4 ADD PUSH1 0x20 PUSH1 0x40 MLOAD DUP1 DUP4 SUB DUP2 DUP7 DUP1 EXTCODESIZE ISZERO DUP1 ISZERO PUSH2 0x3C0E JUMPI PUSH1 0x0 DUP1 REVERT JUMPDEST POP GAS STATICCALL ISZERO DUP1 ISZERO PUSH2 0x3C22 JUMPI RETURNDATASIZE PUSH1 0x0 DUP1 RETURNDATACOPY RETURNDATASIZE PUSH1 0x0 REVERT JUMPDEST POP POP POP POP PUSH1 0x40 MLOAD RETURNDATASIZE PUSH1 0x1F NOT PUSH1 0x1F DUP3 ADD AND DUP3 ADD DUP1 PUSH1 0x40 MSTORE POP DUP2 ADD SWAP1 PUSH2 0x3C46 SWAP2 SWAP1 PUSH2 0x4909 JUMP JUMPDEST PUSH2 0x33FA PUSH32 0x0 PUSH1 0x1 PUSH1 0x1 PUSH1 0xA0 SHL SUB AND PUSH4 0xBB7B8B80 PUSH1 0x40 MLOAD DUP2 PUSH4 0xFFFFFFFF AND PUSH1 0xE0 SHL DUP2 MSTORE PUSH1 0x4 ADD PUSH1 0x20 PUSH1 0x40 MLOAD DUP1 DUP4 SUB DUP2 DUP7 DUP1 EXTCODESIZE ISZERO DUP1 ISZERO PUSH2 0x33C2 JUMPI PUSH1 0x0 DUP1 REVERT JUMPDEST PUSH1 0x0 DUP2 DUP2 MSTORE PUSH1 0x1 DUP4 ADD PUSH1 0x20 MSTORE PUSH1 0x40 DUP2 KECCAK256 SLOAD DUP1 ISZERO PUSH2 0x3D8B JUMPI PUSH1 0x0 PUSH2 0x3CC6 PUSH1 0x1 DUP4 PUSH2 0x486C JUMP JUMPDEST DUP6 SLOAD SWAP1 SWAP2 POP PUSH1 0x0 SWAP1 PUSH2 0x3CDA SWAP1 PUSH1 0x1 SWAP1 PUSH2 0x486C JUMP JUMPDEST SWAP1 POP DUP2 DUP2 EQ PUSH2 0x3D3F JUMPI PUSH1 0x0 DUP7 PUSH1 0x0 ADD DUP3 DUP2 SLOAD DUP2 LT PUSH2 0x3CFA JUMPI PUSH2 0x3CFA PUSH2 0x4883 JUMP JUMPDEST SWAP1 PUSH1 0x0 MSTORE PUSH1 0x20 PUSH1 0x0 KECCAK256 ADD SLOAD SWAP1 POP DUP1 DUP8 PUSH1 0x0 ADD DUP5 DUP2 SLOAD DUP2 LT PUSH2 0x3D1D JUMPI PUSH2 0x3D1D PUSH2 0x4883 JUMP JUMPDEST PUSH1 0x0 SWAP2 DUP3 MSTORE PUSH1 0x20 DUP1 DUP4 KECCAK256 SWAP1 SWAP2 ADD SWAP3 SWAP1 SWAP3 SSTORE SWAP2 DUP3 MSTORE PUSH1 0x1 DUP9 ADD SWAP1 MSTORE PUSH1 0x40 SWAP1 KECCAK256 DUP4 SWAP1 SSTORE JUMPDEST DUP6 SLOAD DUP7 SWAP1 DUP1 PUSH2 0x3D50 JUMPI PUSH2 0x3D50 PUSH2 0x4B82 JUMP JUMPDEST PUSH1 0x1 SWAP1 SUB DUP2 DUP2 SWAP1 PUSH1 0x0 MSTORE PUSH1 0x20 PUSH1 0x0 KECCAK256 ADD PUSH1 0x0 SWAP1 SSTORE SWAP1 SSTORE DUP6 PUSH1 0x1 ADD PUSH1 0x0 DUP7 DUP2 MSTORE PUSH1 0x20 ADD SWAP1 DUP2 MSTORE PUSH1 0x20 ADD PUSH1 0x0 KECCAK256 PUSH1 0x0 SWAP1 SSTORE PUSH1 0x1 SWAP4 POP POP POP POP PUSH2 0x29A7 JUMP JUMPDEST PUSH1 0x0 SWAP2 POP POP PUSH2 0x29A7 JUMP JUMPDEST PUSH1 0xA SLOAD PUSH1 0x1 PUSH1 0x1 PUSH1 0xA0 SHL SUB AND DUP1 PUSH2 0x3DA9 JUMPI POP JUMP JUMPDEST PUSH1 0xB SLOAD DUP1 ISZERO PUSH2 0x3E6B JUMPI PUSH1 0x40 MLOAD PUSH4 0x70A08231 PUSH1 0xE0 SHL DUP2 MSTORE ADDRESS PUSH1 0x4 DUP3 ADD MSTORE PUSH1 0x0 SWAP1 PUSH20 0x4E3FBD56CD56C3E72C1403E103B45DB9DA5B9D2B SWAP1 PUSH4 0x70A08231 SWAP1 PUSH1 0x24 ADD PUSH1 0x20 PUSH1 0x40 MLOAD DUP1 DUP4 SUB DUP2 DUP7 DUP1 EXTCODESIZE ISZERO DUP1 ISZERO PUSH2 0x3DFF JUMPI PUSH1 0x0 DUP1 REVERT JUMPDEST POP GAS STATICCALL ISZERO DUP1 ISZERO PUSH2 0x3E13 JUMPI RETURNDATASIZE PUSH1 0x0 DUP1 RETURNDATACOPY RETURNDATASIZE PUSH1 0x0 REVERT JUMPDEST POP POP POP POP PUSH1 0x40 MLOAD RETURNDATASIZE PUSH1 0x1F NOT PUSH1 0x1F DUP3 ADD AND DUP3 ADD DUP1 PUSH1 0x40 MSTORE POP DUP2 ADD SWAP1 PUSH2 0x3E37 SWAP2 SWAP1 PUSH2 0x4909 JUMP JUMPDEST SWAP1 POP DUP1 ISZERO PUSH2 0x3E69 JUMPI PUSH2 0x3E69 DUP4 PUSH2 0x3E4D DUP4 DUP6 PUSH2 0x34C0 JUMP JUMPDEST PUSH20 0x4E3FBD56CD56C3E72C1403E103B45DB9DA5B9D2B SWAP2 SWAP1 PUSH2 0x2C00 JUMP JUMPDEST POP JUMPDEST PUSH1 0xC SLOAD DUP1 ISZERO PUSH2 0x2B04 JUMPI PUSH1 0x40 MLOAD PUSH4 0x70A08231 PUSH1 0xE0 SHL DUP2 MSTORE ADDRESS PUSH1 0x4 DUP3 ADD MSTORE PUSH1 0x0 SWAP1 PUSH20 0xD533A949740BB3306D119CC777FA900BA034CD52 SWAP1 PUSH4 0x70A08231 SWAP1 PUSH1 0x24 ADD PUSH1 0x20 PUSH1 0x40 MLOAD DUP1 DUP4 SUB DUP2 DUP7 DUP1 EXTCODESIZE ISZERO DUP1 ISZERO PUSH2 0x3EC1 JUMPI PUSH1 0x0 DUP1 REVERT JUMPDEST POP GAS STATICCALL ISZERO DUP1 ISZERO PUSH2 0x3ED5 JUMPI RETURNDATASIZE PUSH1 0x0 DUP1 RETURNDATACOPY RETURNDATASIZE PUSH1 0x0 REVERT JUMPDEST POP POP POP POP PUSH1 0x40 MLOAD RETURNDATASIZE PUSH1 0x1F NOT PUSH1 0x1F DUP3 ADD AND DUP3 ADD DUP1 PUSH1 0x40 MSTORE POP DUP2 ADD SWAP1 PUSH2 0x3EF9 SWAP2 SWAP1 PUSH2 0x4909 JUMP JUMPDEST SWAP1 POP DUP1 ISZERO PUSH2 0x3F2B JUMPI PUSH2 0x3F2B DUP5 PUSH2 0x3F0F DUP4 DUP6 PUSH2 0x34C0 JUMP JUMPDEST PUSH20 0xD533A949740BB3306D119CC777FA900BA034CD52 SWAP2 SWAP1 PUSH2 0x2C00 JUMP JUMPDEST POP POP POP POP JUMP JUMPDEST PUSH1 0x40 MLOAD PUSH4 0x70A08231 PUSH1 0xE0 SHL DUP2 MSTORE ADDRESS PUSH1 0x4 DUP3 ADD MSTORE PUSH1 0x0 SWAP1 PUSH1 0x1 PUSH1 0x1 PUSH1 0xA0 SHL SUB DUP4 AND SWAP1 PUSH4 0x70A08231 SWAP1 PUSH1 0x24 ADD PUSH1 0x20 PUSH1 0x40 MLOAD DUP1 DUP4 SUB DUP2 DUP7 DUP1 EXTCODESIZE ISZERO DUP1 ISZERO PUSH2 0x3F73 JUMPI PUSH1 0x0 DUP1 REVERT JUMPDEST POP GAS STATICCALL ISZERO DUP1 ISZERO PUSH2 0x3F87 JUMPI RETURNDATASIZE PUSH1 0x0 DUP1 RETURNDATACOPY RETURNDATASIZE PUSH1 0x0 REVERT JUMPDEST POP POP POP POP PUSH1 0x40 MLOAD RETURNDATASIZE PUSH1 0x1F NOT PUSH1 0x1F DUP3 ADD AND DUP3 ADD DUP1 PUSH1 0x40 MSTORE POP DUP2 ADD SWAP1 PUSH2 0x3FAB SWAP2 SWAP1 PUSH2 0x4909 JUMP JUMPDEST SWAP1 POP PUSH2 0x2F7F DUP3 DUP3 PUSH2 0x4375 JUMP JUMPDEST PUSH1 0x0 PUSH2 0x29A7 DUP3 SLOAD SWAP1 JUMP JUMPDEST PUSH1 0x0 PUSH2 0x2B1B DUP4 DUP4 PUSH2 0x46B6 JUMP JUMPDEST PUSH1 0x40 MLOAD PUSH4 0x70A08231 PUSH1 0xE0 SHL DUP2 MSTORE ADDRESS PUSH1 0x4 DUP3 ADD MSTORE PUSH1 0x0 SWAP1 PUSH20 0xC02AAA39B223FE8D0A0E5C4F27EAD9083C756CC2 SWAP1 PUSH4 0x70A08231 SWAP1 PUSH1 0x24 ADD PUSH1 0x20 PUSH1 0x40 MLOAD DUP1 DUP4 SUB DUP2 DUP7 DUP1 EXTCODESIZE ISZERO DUP1 ISZERO PUSH2 0x401A JUMPI PUSH1 0x0 DUP1 REVERT JUMPDEST POP GAS STATICCALL ISZERO DUP1 ISZERO PUSH2 0x402E JUMPI RETURNDATASIZE PUSH1 0x0 DUP1 RETURNDATACOPY RETURNDATASIZE PUSH1 0x0 REVERT JUMPDEST POP POP POP POP PUSH1 0x40 MLOAD RETURNDATASIZE PUSH1 0x1F NOT PUSH1 0x1F DUP3 ADD AND DUP3 ADD DUP1 PUSH1 0x40 MSTORE POP DUP2 ADD SWAP1 PUSH2 0x4052 SWAP2 SWAP1 PUSH2 0x4909 JUMP JUMPDEST SWAP1 POP DUP1 PUSH2 0x405C JUMPI POP JUMP JUMPDEST PUSH1 0x40 DUP1 MLOAD PUSH1 0x2 DUP1 DUP3 MSTORE PUSH1 0x60 DUP3 ADD DUP4 MSTORE PUSH1 0x0 SWAP3 PUSH1 0x20 DUP4 ADD SWAP1 DUP1 CALLDATASIZE DUP4 CALLDATACOPY ADD SWAP1 POP POP SWAP1 POP PUSH20 0xC02AAA39B223FE8D0A0E5C4F27EAD9083C756CC2 DUP2 PUSH1 0x0 DUP2 MLOAD DUP2 LT PUSH2 0x40A5 JUMPI PUSH2 0x40A5 PUSH2 0x4883 JUMP JUMPDEST PUSH1 0x20 MUL PUSH1 0x20 ADD ADD SWAP1 PUSH1 0x1 PUSH1 0x1 PUSH1 0xA0 SHL SUB AND SWAP1 DUP2 PUSH1 0x1 PUSH1 0x1 PUSH1 0xA0 SHL SUB AND DUP2 MSTORE POP POP PUSH32 0x0 DUP2 PUSH1 0x1 DUP2 MLOAD DUP2 LT PUSH2 0x40F9 JUMPI PUSH2 0x40F9 PUSH2 0x4883 JUMP JUMPDEST PUSH1 0x1 PUSH1 0x1 PUSH1 0xA0 SHL SUB SWAP3 DUP4 AND PUSH1 0x20 SWAP2 DUP3 MUL SWAP3 SWAP1 SWAP3 ADD DUP2 ADD SWAP2 SWAP1 SWAP2 MSTORE PUSH32 0x0 DUP3 AND PUSH1 0x0 SWAP1 DUP2 MSTORE PUSH1 0xE SWAP1 SWAP2 MSTORE PUSH1 0x40 DUP2 KECCAK256 SLOAD SWAP1 SLOAD SWAP1 DUP3 AND SWAP2 PUSH4 0x38ED1739 SWAP2 DUP6 SWAP2 PUSH32 0x0 SWAP2 PUSH2 0x424A SWAP2 PUSH2 0x250D SWAP1 PUSH2 0x41A8 SWAP1 PUSH32 0x0 AND PUSH2 0x46E0 JUMP JUMPDEST PUSH1 0x40 MLOAD PUSH4 0xE5EC9DB9 PUSH1 0xE0 SHL DUP2 MSTORE PUSH1 0x1 PUSH1 0x1 PUSH1 0xA0 SHL SUB PUSH32 0x0 DUP2 AND PUSH1 0x4 DUP4 ADD MSTORE SWAP2 SWAP1 SWAP2 AND SWAP1 PUSH4 0xE5EC9DB9 SWAP1 PUSH1 0x24 ADD PUSH1 0x20 PUSH1 0x40 MLOAD DUP1 DUP4 SUB DUP2 DUP7 DUP1 EXTCODESIZE ISZERO DUP1 ISZERO PUSH2 0x420B JUMPI PUSH1 0x0 DUP1 REVERT JUMPDEST POP GAS STATICCALL ISZERO DUP1 ISZERO PUSH2 0x421F JUMPI RETURNDATASIZE PUSH1 0x0 DUP1 RETURNDATACOPY RETURNDATASIZE PUSH1 0x0 REVERT JUMPDEST POP POP POP POP PUSH1 0x40 MLOAD RETURNDATASIZE PUSH1 0x1F NOT PUSH1 0x1F DUP3 ADD AND DUP3 ADD DUP1 PUSH1 0x40 MSTORE POP DUP2 ADD SWAP1 PUSH2 0x4243 SWAP2 SWAP1 PUSH2 0x4909 JUMP JUMPDEST DUP10 SWAP1 PUSH2 0x4327 JUMP JUMPDEST PUSH2 0x4254 SWAP2 SWAP1 PUSH2 0x4922 JUMP JUMPDEST DUP5 ADDRESS TIMESTAMP PUSH1 0x40 MLOAD DUP7 PUSH4 0xFFFFFFFF AND PUSH1 0xE0 SHL DUP2 MSTORE PUSH1 0x4 ADD PUSH2 0x4277 SWAP6 SWAP5 SWAP4 SWAP3 SWAP2 SWAP1 PUSH2 0x4B98 JUMP JUMPDEST PUSH1 0x0 PUSH1 0x40 MLOAD DUP1 DUP4 SUB DUP2 PUSH1 0x0 DUP8 DUP1 EXTCODESIZE ISZERO DUP1 ISZERO PUSH2 0x4291 JUMPI PUSH1 0x0 DUP1 REVERT JUMPDEST POP GAS CALL ISZERO DUP1 ISZERO PUSH2 0x42A5 JUMPI RETURNDATASIZE PUSH1 0x0 DUP1 RETURNDATACOPY RETURNDATASIZE PUSH1 0x0 REVERT JUMPDEST POP POP POP POP PUSH1 0x40 MLOAD RETURNDATASIZE PUSH1 0x0 DUP3 RETURNDATACOPY PUSH1 0x1F RETURNDATASIZE SWAP1 DUP2 ADD PUSH1 0x1F NOT AND DUP3 ADD PUSH1 0x40 MSTORE PUSH2 0x2B04 SWAP2 SWAP1 DUP2 ADD SWAP1 PUSH2 0x4AA8 JUMP JUMPDEST PUSH1 0x0 PUSH2 0x29A7 PUSH1 0x7 SLOAD PUSH8 0xDE0B6B3A7640000 PUSH2 0x42E8 SWAP2 SWAP1 PUSH2 0x486C JUMP JUMPDEST PUSH2 0x250D DUP5 PUSH2 0x32E6 JUMP JUMPDEST PUSH1 0x0 PUSH2 0x29A7 PUSH1 0x8 SLOAD PUSH8 0xDE0B6B3A7640000 PUSH2 0x2C4B SWAP2 SWAP1 PUSH2 0x486C JUMP JUMPDEST PUSH1 0x0 PUSH2 0x29A7 PUSH1 0x6 SLOAD PUSH8 0xDE0B6B3A7640000 PUSH2 0x2CBE SWAP2 SWAP1 PUSH2 0x486C JUMP JUMPDEST PUSH1 0x0 DUP2 PUSH2 0x34D5 PUSH8 0xDE0B6B3A7640000 DUP6 PUSH2 0x4944 JUMP JUMPDEST PUSH1 0x60 DUP4 ISZERO PUSH2 0x434B JUMPI POP DUP2 PUSH2 0x2B1B JUMP JUMPDEST DUP3 MLOAD ISZERO PUSH2 0x435B JUMPI DUP3 MLOAD DUP1 DUP5 PUSH1 0x20 ADD REVERT JUMPDEST DUP2 PUSH1 0x40 MLOAD PUSH3 0x461BCD PUSH1 0xE5 SHL DUP2 MSTORE PUSH1 0x4 ADD PUSH2 0x978 SWAP2 SWAP1 PUSH2 0x4788 JUMP JUMPDEST DUP1 PUSH2 0x437E JUMPI POP POP JUMP JUMPDEST PUSH1 0x1 PUSH1 0x1 PUSH1 0xA0 SHL SUB DUP3 AND PUSH20 0x4E3FBD56CD56C3E72C1403E103B45DB9DA5B9D2B EQ ISZERO PUSH2 0x44D0 JUMPI PUSH20 0xB576491F1E6E5E62F1D8F26062EE822B40B0E0D4 PUSH1 0x1 PUSH1 0x1 PUSH1 0xA0 SHL SUB AND PUSH4 0x5B41B908 PUSH1 0x1 PUSH1 0x0 DUP5 PUSH2 0x449A PUSH1 0x0 SLOAD PUSH2 0x250D PUSH2 0x4406 PUSH32 0x0 PUSH1 0x1 PUSH1 0x1 PUSH1 0xA0 SHL SUB AND PUSH2 0x46E0 JUMP JUMPDEST PUSH1 0x40 MLOAD PUSH4 0xE5EC9DB9 PUSH1 0xE0 SHL DUP2 MSTORE PUSH20 0x4E3FBD56CD56C3E72C1403E103B45DB9DA5B9D2B PUSH1 0x4 DUP3 ADD MSTORE PUSH1 0x1 PUSH1 0x1 PUSH1 0xA0 SHL SUB SWAP2 SWAP1 SWAP2 AND SWAP1 PUSH4 0xE5EC9DB9 SWAP1 PUSH1 0x24 ADD PUSH1 0x20 PUSH1 0x40 MLOAD DUP1 DUP4 SUB DUP2 DUP7 DUP1 EXTCODESIZE ISZERO DUP1 ISZERO PUSH2 0x445B JUMPI PUSH1 0x0 DUP1 REVERT JUMPDEST POP GAS STATICCALL ISZERO DUP1 ISZERO PUSH2 0x446F JUMPI RETURNDATASIZE PUSH1 0x0 DUP1 RETURNDATACOPY RETURNDATASIZE PUSH1 0x0 REVERT JUMPDEST POP POP POP POP PUSH1 0x40 MLOAD RETURNDATASIZE PUSH1 0x1F NOT PUSH1 0x1F DUP3 ADD AND DUP3 ADD DUP1 PUSH1 0x40 MSTORE POP DUP2 ADD SWAP1 PUSH2 0x4493 SWAP2 SWAP1 PUSH2 0x4909 JUMP JUMPDEST DUP10 SWAP1 PUSH2 0x34C0 JUMP JUMPDEST PUSH1 0x40 MLOAD PUSH1 0x1 PUSH1 0x1 PUSH1 0xE0 SHL SUB NOT PUSH1 0xE0 DUP8 SWAP1 SHL AND DUP2 MSTORE PUSH1 0x4 DUP2 ADD SWAP5 SWAP1 SWAP5 MSTORE PUSH1 0x24 DUP5 ADD SWAP3 SWAP1 SWAP3 MSTORE PUSH1 0x44 DUP4 ADD MSTORE PUSH1 0x64 DUP3 ADD MSTORE PUSH1 0x84 ADD PUSH2 0x2F51 JUMP JUMPDEST PUSH1 0x40 DUP1 MLOAD PUSH1 0x2 DUP1 DUP3 MSTORE PUSH1 0x60 DUP3 ADD DUP4 MSTORE PUSH1 0x0 SWAP3 PUSH1 0x20 DUP4 ADD SWAP1 DUP1 CALLDATASIZE DUP4 CALLDATACOPY ADD SWAP1 POP POP SWAP1 POP DUP3 DUP2 PUSH1 0x0 DUP2 MLOAD DUP2 LT PUSH2 0x4505 JUMPI PUSH2 0x4505 PUSH2 0x4883 JUMP JUMPDEST PUSH1 0x20 MUL PUSH1 0x20 ADD ADD SWAP1 PUSH1 0x1 PUSH1 0x1 PUSH1 0xA0 SHL SUB AND SWAP1 DUP2 PUSH1 0x1 PUSH1 0x1 PUSH1 0xA0 SHL SUB AND DUP2 MSTORE POP POP PUSH20 0xC02AAA39B223FE8D0A0E5C4F27EAD9083C756CC2 DUP2 PUSH1 0x1 DUP2 MLOAD DUP2 LT PUSH2 0x454D JUMPI PUSH2 0x454D PUSH2 0x4883 JUMP JUMPDEST PUSH1 0x1 PUSH1 0x1 PUSH1 0xA0 SHL SUB SWAP3 DUP4 AND PUSH1 0x20 SWAP2 DUP3 MUL SWAP3 SWAP1 SWAP3 ADD DUP2 ADD SWAP2 SWAP1 SWAP2 MSTORE DUP5 DUP3 AND PUSH1 0x0 SWAP1 DUP2 MSTORE PUSH1 0xE SWAP1 SWAP2 MSTORE PUSH1 0x40 DUP2 KECCAK256 SLOAD SWAP1 SLOAD SWAP1 DUP3 AND SWAP2 PUSH4 0x38ED1739 SWAP2 DUP6 SWAP2 PUSH2 0x463D SWAP2 SWAP1 PUSH2 0x250D SWAP1 PUSH2 0x45BB SWAP1 PUSH32 0x0 AND PUSH2 0x46E0 JUMP JUMPDEST PUSH1 0x40 MLOAD PUSH4 0xE5EC9DB9 PUSH1 0xE0 SHL DUP2 MSTORE PUSH1 0x1 PUSH1 0x1 PUSH1 0xA0 SHL SUB DUP12 DUP2 AND PUSH1 0x4 DUP4 ADD MSTORE SWAP2 SWAP1 SWAP2 AND SWAP1 PUSH4 0xE5EC9DB9 SWAP1 PUSH1 0x24 ADD PUSH1 0x20 PUSH1 0x40 MLOAD DUP1 DUP4 SUB DUP2 DUP7 DUP1 EXTCODESIZE ISZERO DUP1 ISZERO PUSH2 0x45FE JUMPI PUSH1 0x0 DUP1 REVERT JUMPDEST POP GAS STATICCALL ISZERO DUP1 ISZERO PUSH2 0x4612 JUMPI RETURNDATASIZE PUSH1 0x0 DUP1 RETURNDATACOPY RETURNDATASIZE PUSH1 0x0 REVERT JUMPDEST POP POP POP POP PUSH1 0x40 MLOAD RETURNDATASIZE PUSH1 0x1F NOT PUSH1 0x1F DUP3 ADD AND DUP3 ADD DUP1 PUSH1 0x40 MSTORE POP DUP2 ADD SWAP1 PUSH2 0x4636 SWAP2 SWAP1 PUSH2 0x4909 JUMP JUMPDEST DUP9 SWAP1 PUSH2 0x34C0 JUMP JUMPDEST DUP5 ADDRESS TIMESTAMP PUSH1 0x40 MLOAD DUP7 PUSH4 0xFFFFFFFF AND PUSH1 0xE0 SHL DUP2 MSTORE PUSH1 0x4 ADD PUSH2 0x4660 SWAP6 SWAP5 SWAP4 SWAP3 SWAP2 SWAP1 PUSH2 0x4B98 JUMP JUMPDEST PUSH1 0x0 PUSH1 0x40 MLOAD DUP1 DUP4 SUB DUP2 PUSH1 0x0 DUP8 DUP1 EXTCODESIZE ISZERO DUP1 ISZERO PUSH2 0x467A JUMPI PUSH1 0x0 DUP1 REVERT JUMPDEST POP GAS CALL ISZERO DUP1 ISZERO PUSH2 0x468E JUMPI RETURNDATASIZE PUSH1 0x0 DUP1 RETURNDATACOPY RETURNDATASIZE PUSH1 0x0 REVERT JUMPDEST POP POP POP POP PUSH1 0x40 MLOAD RETURNDATASIZE PUSH1 0x0 DUP3 RETURNDATACOPY PUSH1 0x1F RETURNDATASIZE SWAP1 DUP2 ADD PUSH1 0x1F NOT AND DUP3 ADD PUSH1 0x40 MSTORE PUSH2 0x3F2B SWAP2 SWAP1 DUP2 ADD SWAP1 PUSH2 0x4AA8 JUMP JUMPDEST PUSH1 0x0 DUP3 PUSH1 0x0 ADD DUP3 DUP2 SLOAD DUP2 LT PUSH2 0x46CD JUMPI PUSH2 0x46CD PUSH2 0x4883 JUMP JUMPDEST SWAP1 PUSH1 0x0 MSTORE PUSH1 0x20 PUSH1 0x0 KECCAK256 ADD SLOAD SWAP1 POP SWAP3 SWAP2 POP POP JUMP JUMPDEST PUSH1 0x40 MLOAD PUSH4 0x21F8A721 PUSH1 0xE0 SHL DUP2 MSTORE PUSH14 0x37B930B1B632A83937BB34B232B9 PUSH1 0x91 SHL PUSH1 0x4 DUP3 ADD MSTORE PUSH1 0x0 SWAP1 PUSH1 0x1 PUSH1 0x1 PUSH1 0xA0 SHL SUB DUP4 AND SWAP1 PUSH4 0x21F8A721 SWAP1 PUSH1 0x24 ADD PUSH2 0x2957 JUMP JUMPDEST PUSH1 0x40 MLOAD DUP1 PUSH1 0x40 ADD PUSH1 0x40 MSTORE DUP1 PUSH1 0x2 SWAP1 PUSH1 0x20 DUP3 MUL DUP1 CALLDATASIZE DUP4 CALLDATACOPY POP SWAP2 SWAP3 SWAP2 POP POP JUMP JUMPDEST PUSH1 0x40 MLOAD DUP1 PUSH1 0x60 ADD PUSH1 0x40 MSTORE DUP1 PUSH1 0x3 SWAP1 PUSH1 0x20 DUP3 MUL DUP1 CALLDATASIZE DUP4 CALLDATACOPY POP SWAP2 SWAP3 SWAP2 POP POP JUMP JUMPDEST PUSH1 0x0 JUMPDEST DUP4 DUP2 LT ISZERO PUSH2 0x4777 JUMPI DUP2 DUP2 ADD MLOAD DUP4 DUP3 ADD MSTORE PUSH1 0x20 ADD PUSH2 0x475F JUMP JUMPDEST DUP4 DUP2 GT ISZERO PUSH2 0x3F2B JUMPI POP POP PUSH1 0x0 SWAP2 ADD MSTORE JUMP JUMPDEST PUSH1 0x20 DUP2 MSTORE PUSH1 0x0 DUP3 MLOAD DUP1 PUSH1 0x20 DUP5 ADD MSTORE PUSH2 0x47A7 DUP2 PUSH1 0x40 DUP6 ADD PUSH1 0x20 DUP8 ADD PUSH2 0x475C JUMP JUMPDEST PUSH1 0x1F ADD PUSH1 0x1F NOT AND SWAP2 SWAP1 SWAP2 ADD PUSH1 0x40 ADD SWAP3 SWAP2 POP POP JUMP JUMPDEST PUSH1 0x0 PUSH1 0x20 DUP3 DUP5 SUB SLT ISZERO PUSH2 0x47CD JUMPI PUSH1 0x0 DUP1 REVERT JUMPDEST POP CALLDATALOAD SWAP2 SWAP1 POP JUMP JUMPDEST PUSH1 0x1 PUSH1 0x1 PUSH1 0xA0 SHL SUB DUP2 AND DUP2 EQ PUSH2 0x47E9 JUMPI PUSH1 0x0 DUP1 REVERT JUMPDEST POP JUMP JUMPDEST PUSH1 0x0 PUSH1 0x20 DUP3 DUP5 SUB SLT ISZERO PUSH2 0x47FE JUMPI PUSH1 0x0 DUP1 REVERT JUMPDEST DUP2 CALLDATALOAD PUSH2 0x2B1B DUP2 PUSH2 0x47D4 JUMP JUMPDEST PUSH1 0x0 DUP1 PUSH1 0x40 DUP4 DUP6 SUB SLT ISZERO PUSH2 0x481C JUMPI PUSH1 0x0 DUP1 REVERT JUMPDEST POP POP DUP1 CALLDATALOAD SWAP3 PUSH1 0x20 SWAP1 SWAP2 ADD CALLDATALOAD SWAP2 POP JUMP JUMPDEST DUP1 MLOAD DUP1 ISZERO ISZERO DUP2 EQ PUSH2 0xA7A JUMPI PUSH1 0x0 DUP1 REVERT JUMPDEST PUSH1 0x0 PUSH1 0x20 DUP3 DUP5 SUB SLT ISZERO PUSH2 0x484D JUMPI PUSH1 0x0 DUP1 REVERT JUMPDEST PUSH2 0x2B1B DUP3 PUSH2 0x482B JUMP JUMPDEST PUSH4 0x4E487B71 PUSH1 0xE0 SHL PUSH1 0x0 MSTORE PUSH1 0x11 PUSH1 0x4 MSTORE PUSH1 0x24 PUSH1 0x0 REVERT JUMPDEST PUSH1 0x0 DUP3 DUP3 LT ISZERO PUSH2 0x487E JUMPI PUSH2 0x487E PUSH2 0x4856 JUMP JUMPDEST POP SUB SWAP1 JUMP JUMPDEST PUSH4 0x4E487B71 PUSH1 0xE0 SHL PUSH1 0x0 MSTORE PUSH1 0x32 PUSH1 0x4 MSTORE PUSH1 0x24 PUSH1 0x0 REVERT JUMPDEST PUSH1 0x60 DUP2 ADD DUP2 DUP5 PUSH1 0x0 JUMPDEST PUSH1 0x2 DUP2 LT ISZERO PUSH2 0x48C1 JUMPI DUP2 MLOAD DUP4 MSTORE PUSH1 0x20 SWAP3 DUP4 ADD SWAP3 SWAP1 SWAP2 ADD SWAP1 PUSH1 0x1 ADD PUSH2 0x48A2 JUMP JUMPDEST POP POP POP DUP3 PUSH1 0x40 DUP4 ADD MSTORE SWAP4 SWAP3 POP POP POP JUMP JUMPDEST PUSH1 0x80 DUP2 ADD DUP2 DUP5 PUSH1 0x0 JUMPDEST PUSH1 0x3 DUP2 LT ISZERO PUSH2 0x48F9 JUMPI DUP2 MLOAD DUP4 MSTORE PUSH1 0x20 SWAP3 DUP4 ADD SWAP3 SWAP1 SWAP2 ADD SWAP1 PUSH1 0x1 ADD PUSH2 0x48DA JUMP JUMPDEST POP POP POP DUP3 PUSH1 0x60 DUP4 ADD MSTORE SWAP4 SWAP3 POP POP POP JUMP JUMPDEST PUSH1 0x0 PUSH1 0x20 DUP3 DUP5 SUB SLT ISZERO PUSH2 0x491B JUMPI PUSH1 0x0 DUP1 REVERT JUMPDEST POP MLOAD SWAP2 SWAP1 POP JUMP JUMPDEST PUSH1 0x0 DUP3 PUSH2 0x493F JUMPI PUSH4 0x4E487B71 PUSH1 0xE0 SHL PUSH1 0x0 MSTORE PUSH1 0x12 PUSH1 0x4 MSTORE PUSH1 0x24 PUSH1 0x0 REVERT JUMPDEST POP DIV SWAP1 JUMP JUMPDEST PUSH1 0x0 DUP2 PUSH1 0x0 NOT DIV DUP4 GT DUP3 ISZERO ISZERO AND ISZERO PUSH2 0x495E JUMPI PUSH2 0x495E PUSH2 0x4856 JUMP JUMPDEST POP MUL SWAP1 JUMP JUMPDEST PUSH1 0x0 DUP1 PUSH1 0x0 DUP1 PUSH1 0x0 DUP1 PUSH1 0xC0 DUP8 DUP10 SUB SLT ISZERO PUSH2 0x497C JUMPI PUSH1 0x0 DUP1 REVERT JUMPDEST DUP7 MLOAD PUSH2 0x4987 DUP2 PUSH2 0x47D4 JUMP JUMPDEST PUSH1 0x20 DUP9 ADD MLOAD SWAP1 SWAP7 POP PUSH2 0x4998 DUP2 PUSH2 0x47D4 JUMP JUMPDEST PUSH1 0x40 DUP9 ADD MLOAD SWAP1 SWAP6 POP PUSH2 0x49A9 DUP2 PUSH2 0x47D4 JUMP JUMPDEST PUSH1 0x60 DUP9 ADD MLOAD SWAP1 SWAP5 POP PUSH2 0x49BA DUP2 PUSH2 0x47D4 JUMP JUMPDEST PUSH1 0x80 DUP9 ADD MLOAD SWAP1 SWAP4 POP PUSH2 0x49CB DUP2 PUSH2 0x47D4 JUMP JUMPDEST SWAP2 POP PUSH2 0x49D9 PUSH1 0xA0 DUP9 ADD PUSH2 0x482B JUMP JUMPDEST SWAP1 POP SWAP3 SWAP6 POP SWAP3 SWAP6 POP SWAP3 SWAP6 JUMP JUMPDEST PUSH1 0x0 PUSH1 0x20 DUP3 DUP5 SUB SLT ISZERO PUSH2 0x49F7 JUMPI PUSH1 0x0 DUP1 REVERT JUMPDEST DUP2 MLOAD PUSH2 0x2B1B DUP2 PUSH2 0x47D4 JUMP JUMPDEST PUSH1 0x0 DUP3 NOT DUP3 GT ISZERO PUSH2 0x4A15 JUMPI PUSH2 0x4A15 PUSH2 0x4856 JUMP JUMPDEST POP ADD SWAP1 JUMP JUMPDEST PUSH1 0x0 PUSH1 0x0 NOT DUP3 EQ ISZERO PUSH2 0x4A2E JUMPI PUSH2 0x4A2E PUSH2 0x4856 JUMP JUMPDEST POP PUSH1 0x1 ADD SWAP1 JUMP JUMPDEST PUSH4 0x4E487B71 PUSH1 0xE0 SHL PUSH1 0x0 MSTORE PUSH1 0x41 PUSH1 0x4 MSTORE PUSH1 0x24 PUSH1 0x0 REVERT JUMPDEST PUSH1 0x0 DUP2 MLOAD DUP1 DUP5 MSTORE PUSH1 0x20 DUP1 DUP6 ADD SWAP5 POP DUP1 DUP5 ADD PUSH1 0x0 JUMPDEST DUP4 DUP2 LT ISZERO PUSH2 0x4A84 JUMPI DUP2 MLOAD PUSH1 0x1 PUSH1 0x1 PUSH1 0xA0 SHL SUB AND DUP8 MSTORE SWAP6 DUP3 ADD SWAP6 SWAP1 DUP3 ADD SWAP1 PUSH1 0x1 ADD PUSH2 0x4A5F JUMP JUMPDEST POP SWAP5 SWAP6 SWAP5 POP POP POP POP POP JUMP JUMPDEST DUP3 DUP2 MSTORE PUSH1 0x40 PUSH1 0x20 DUP3 ADD MSTORE PUSH1 0x0 PUSH2 0x2B18 PUSH1 0x40 DUP4 ADD DUP5 PUSH2 0x4A4B JUMP JUMPDEST PUSH1 0x0 PUSH1 0x20 DUP1 DUP4 DUP6 SUB SLT ISZERO PUSH2 0x4ABB JUMPI PUSH1 0x0 DUP1 REVERT JUMPDEST DUP3 MLOAD PUSH8 0xFFFFFFFFFFFFFFFF DUP1 DUP3 GT ISZERO PUSH2 0x4AD3 JUMPI PUSH1 0x0 DUP1 REVERT JUMPDEST DUP2 DUP6 ADD SWAP2 POP DUP6 PUSH1 0x1F DUP4 ADD SLT PUSH2 0x4AE7 JUMPI PUSH1 0x0 DUP1 REVERT JUMPDEST DUP2 MLOAD DUP2 DUP2 GT ISZERO PUSH2 0x4AF9 JUMPI PUSH2 0x4AF9 PUSH2 0x4A35 JUMP JUMPDEST DUP1 PUSH1 0x5 SHL PUSH1 0x40 MLOAD PUSH1 0x1F NOT PUSH1 0x3F DUP4 ADD AND DUP2 ADD DUP2 DUP2 LT DUP6 DUP3 GT OR ISZERO PUSH2 0x4B1E JUMPI PUSH2 0x4B1E PUSH2 0x4A35 JUMP JUMPDEST PUSH1 0x40 MSTORE SWAP2 DUP3 MSTORE DUP5 DUP3 ADD SWAP3 POP DUP4 DUP2 ADD DUP6 ADD SWAP2 DUP9 DUP4 GT ISZERO PUSH2 0x4B3C JUMPI PUSH1 0x0 DUP1 REVERT JUMPDEST SWAP4 DUP6 ADD SWAP4 JUMPDEST DUP3 DUP6 LT ISZERO PUSH2 0x4B5A JUMPI DUP5 MLOAD DUP5 MSTORE SWAP4 DUP6 ADD SWAP4 SWAP3 DUP6 ADD SWAP3 PUSH2 0x4B41 JUMP JUMPDEST SWAP9 SWAP8 POP POP POP POP POP POP POP POP JUMP JUMPDEST PUSH1 0x0 DUP3 MLOAD PUSH2 0x4B78 DUP2 DUP5 PUSH1 0x20 DUP8 ADD PUSH2 0x475C JUMP JUMPDEST SWAP2 SWAP1 SWAP2 ADD SWAP3 SWAP2 POP POP JUMP JUMPDEST PUSH4 0x4E487B71 PUSH1 0xE0 SHL PUSH1 0x0 MSTORE PUSH1 0x31 PUSH1 0x4 MSTORE PUSH1 0x24 PUSH1 0x0 REVERT JUMPDEST DUP6 DUP2 MSTORE DUP5 PUSH1 0x20 DUP3 ADD MSTORE PUSH1 0xA0 PUSH1 0x40 DUP3 ADD MSTORE PUSH1 0x0 PUSH2 0x4BB7 PUSH1 0xA0 DUP4 ADD DUP7 PUSH2 0x4A4B JUMP JUMPDEST PUSH1 0x1 PUSH1 0x1 PUSH1 0xA0 SHL SUB SWAP5 SWAP1 SWAP5 AND PUSH1 0x60 DUP4 ADD MSTORE POP PUSH1 0x80 ADD MSTORE SWAP4 SWAP3 POP POP POP JUMP INVALID PUSH22 0x6E617574686F72697A65642061636365737300000000 STOP STOP STOP STOP STOP STOP STOP STOP STOP LOG2 PUSH5 0x6970667358 0x22 SLT KECCAK256 PUSH26 0x467B4DB15D304DF6317EDAF636F38A2999706F1E5AB95AE3642E PUSH12 0x33A6F33264736F6C63430008 MULMOD STOP CALLER ","sha1":"2ca16ca923638211a6d74ab62e687d4873148692","source":"// SPDX-License-Identifier: GPL-3.0-or-later\npragma solidity 0.8.9;\n\nimport \"@openzeppelin/contracts/token/ERC20/IERC20.sol\";\nimport \"@openzeppelin/contracts/token/ERC20/utils/SafeERC20.sol\";\nimport \"@openzeppelin/contracts/utils/structs/EnumerableSet.sol\";\n\nimport \"../../libraries/AddressProviderHelpers.sol\";\nimport \"../../libraries/ScaledMath.sol\";\nimport \"../utils/CvxMintAmount.sol\";\nimport \"../utils/SlippageTolerance.sol\";\nimport \"../../interfaces/IERC20Full.sol\";\nimport \"../../interfaces/IStrategy.sol\";\nimport \"../../interfaces/IAddressProvider.sol\";\nimport \"../../interfaces/vendor/IBooster.sol\";\nimport \"../../interfaces/vendor/ICurveSwap.sol\";\nimport \"../../interfaces/vendor/ICurveSwapEth.sol\";\nimport \"../../interfaces/vendor/IRewardStaking.sol\";\nimport \"../../interfaces/vendor/UniswapRouter02.sol\";\nimport \"../../interfaces/vendor/ICurveRegistry.sol\";\n\n/**\n * This is the BkdTriHopCvx strategy, which is designed to be used by a Backd ERC20 Vault.\n * The strategy holds a given ERC20 underlying and allocates liquidity to Convex via a given Curve Pool.\n * The Curve Pools used are Meta Pools which first require getting an LP Token from another Curve Pool.\n * The strategy does a 'Hop' when depositing and withdrawing, by first getting the required LP Token, and then the final LP Token for Convex.\n * Rewards received on Convex (CVX, CRV), are sold in part for the underlying.\n * A share of earned CVX & CRV are retained on behalf of the Backd community to participate in governance.\n */\ncontract BkdTriHopCvx is IStrategy, CvxMintAmount, SlippageTolerance {\n    using ScaledMath for uint256;\n    using SafeERC20 for IERC20;\n    using EnumerableSet for EnumerableSet.AddressSet;\n    using AddressProviderHelpers for IAddressProvider;\n\n    uint256 private constant _CURVE_CVX_INDEX = 1;\n    uint256 private constant _CURVE_ETH_INDEX = 0;\n\n    IBooster internal constant _BOOSTER = IBooster(0xF403C135812408BFbE8713b5A23a04b3D48AAE31); // Convex Booster Contract\n    ICurveRegistry internal constant _CURVE_REGISTRY =\n        ICurveRegistry(0x90E00ACe148ca3b23Ac1bC8C240C2a7Dd9c2d7f5); // Curve Registry Contract\n    IERC20 internal constant _CVX = IERC20(0x4e3FBD56CD56c3e72c1403e103b45Db9da5B9D2B); // CVX\n    IERC20 internal constant _WETH = IERC20(0xC02aaA39b223FE8D0A0e5C4F27eAD9083C756Cc2); // WETH\n    IERC20 internal constant _CRV = IERC20(0xD533a949740bb3306d119CC777fa900bA034cd52); // CRV\n    UniswapRouter02 internal constant _SUSHISWAP =\n        UniswapRouter02(0xd9e1cE17f2641f24aE83637ab66a2cca9C378B9F); // Sushiswap Router for swaps\n    UniswapRouter02 internal constant _UNISWAP =\n        UniswapRouter02(0x7a250d5630B4cF539739dF2C5dAcb4c659F2488D); // Uniswap Router for swaps\n    ICurveSwapEth internal constant _CVX_ETH_CURVE_POOL =\n        ICurveSwapEth(0xB576491F1E6e5E62f1d8F26062Ee822B40B0E0d4); // CVX/ETH Curve Pool\n\n    IAddressProvider internal immutable _addressProvider; // Address provider used for getting oracle provider\n    address public immutable vault; // Backd Vault\n    IERC20 public immutable underlying; // Strategy Underlying\n    ICurveSwap public immutable curveHopPool; // Curve Pool to use for Hops\n    IERC20 public immutable hopLp; // Curve Hop Pool LP Token\n    uint256 public immutable curveHopIndex; // Underlying index in Curve Pool\n    uint256 public immutable decimalMultiplier; // Used for converting between underlying and LP\n\n    ICurveSwap public curvePool; // Curve Pool\n    uint256 public convexPid; // Index of Convex Pool in Booster Contract\n    uint256 public curveIndex; // Underlying index in Curve Pool\n    IERC20 public lp; // Curve Pool LP Token\n    IRewardStaking public rewards; // Rewards Contract for claiming Convex Rewards\n    uint256 public imbalanceToleranceIn; // Maximum allowed slippage from Curve Pool Imbalance for depositing\n    uint256 public imbalanceToleranceOut; // Maximum allowed slippage from Curve Pool Imbalance for withdrawing\n    uint256 public hopImbalanceToleranceIn; // Maximum allowed slippage from Curve Hop Pool Imbalance for depositing\n    uint256 public hopImbalanceToleranceOut; // Maximum allowed slippage from Curve Hop Pool Imbalance for withdrawing\n    address public communityReserve; // Address for sending CVX & CRV Community Reserve share\n    uint256 public cvxCommunityReserveShare; // Share of CVX sent to Community Reserve\n    uint256 public crvCommunityReserveShare; // Share of CRV sent to Community Reserve\n    address public override strategist; // The strategist for the strategy\n    bool public isShutdown; // If the strategy is shutdown, stops all deposits\n    mapping(address => UniswapRouter02) public tokenDex; // Dex to use for swapping for a given token\n\n    EnumerableSet.AddressSet private _rewardTokens; // List of additional reward tokens when claiming rewards on Convex\n\n    event Deposit(uint256 amount); // Emitted after a successfull deposit\n    event Withdraw(uint256 amount); // Emitted after a successful withdrawal\n    event WithdrawAll(uint256 amount); // Emitted after successfully withdrwaing all\n    event Harvest(uint256 amount); // Emitted after a successful harvest\n    event Shutdown(); // Emitted after a successful shutdown\n    event SetCommunityReserve(address reserve); // Emitted after a succuessful setting of reserve\n    event SetCrvCommunityReserveShare(uint256 value); // Emitted after a succuessful setting of CRV Community Reserve Share\n    event SetCvxCommunityReserveShare(uint256 value); // Emitted after a succuessful setting of CVX Community Reserve Share\n    event SetImbalanceToleranceIn(uint256 value); // Emitted after a succuessful setting of imbalance tolerance in\n    event SetImbalanceToleranceOut(uint256 value); // Emitted after a succuessful setting of imbalance tolerance out\n    event SetHopImbalanceToleranceIn(uint256 value); // Emitted after a succuessful setting of hop imbalance tolerance in\n    event SetHopImbalanceToleranceOut(uint256 value); // Emitted after a succuessful setting of hop imbalance tolerance out\n    event SetStrategist(address strategist); // Emitted after a succuessful setting of strategist\n    event AddRewardToken(address token); // Emitted after successfully adding a new reward token\n    event RemoveRewardToken(address token); // Emitted after successfully removing a reward token\n    event SwapDex(address token, address newDex); // Emitted after successfully swapping a tokens dex\n\n    modifier onlyVault() {\n        require(msg.sender == vault, Error.UNAUTHORIZED_ACCESS);\n        _;\n    }\n\n    constructor(\n        address vault_,\n        address strategist_,\n        uint256 convexPid_,\n        uint256 curveIndex_,\n        uint256 curveHopIndex_,\n        IAddressProvider addressProvider_\n    ) SlippageTolerance(addressProvider_.getRoleManager()) {\n        // Getting data from supporting contracts\n        (address lp_, , , address rewards_, , ) = _BOOSTER.poolInfo(convexPid_);\n        lp = IERC20(lp_);\n        rewards = IRewardStaking(rewards_);\n        address curvePool_ = _CURVE_REGISTRY.get_pool_from_lp_token(lp_);\n        curvePool = ICurveSwap(curvePool_);\n        address hopLp_ = ICurveSwap(curvePool_).coins(curveIndex_);\n        hopLp = IERC20(hopLp_);\n        address curveHopPool_ = _CURVE_REGISTRY.get_pool_from_lp_token(hopLp_);\n        curveHopPool = ICurveSwap(curveHopPool_);\n        address underlying_ = ICurveSwap(curveHopPool_).coins(curveHopIndex_);\n        underlying = IERC20(underlying_);\n        decimalMultiplier = 10**(18 - IERC20Full(underlying_).decimals());\n\n        // Setting inputs\n        vault = vault_;\n        strategist = strategist_;\n        convexPid = convexPid_;\n        curveIndex = curveIndex_;\n        curveHopIndex = curveHopIndex_;\n        _addressProvider = IAddressProvider(addressProvider_);\n\n        // Setting default values\n        imbalanceToleranceIn = 0.001e18;\n        imbalanceToleranceOut = 0.048e18;\n        hopImbalanceToleranceIn = 0.001e18;\n        hopImbalanceToleranceOut = 0.0015e18;\n\n        // Setting dexes\n        _setDex(address(_CRV), _SUSHISWAP);\n        _setDex(address(_CVX), _SUSHISWAP);\n        _setDex(address(underlying_), _SUSHISWAP);\n\n        // Approvals\n        IERC20(underlying_).safeApprove(curveHopPool_, type(uint256).max);\n        IERC20(hopLp_).safeApprove(curvePool_, type(uint256).max);\n        IERC20(lp_).safeApprove(address(_BOOSTER), type(uint256).max);\n        IERC20(underlying_).safeApprove(address(_SUSHISWAP), type(uint256).max);\n        _CVX.safeApprove(address(_CVX_ETH_CURVE_POOL), type(uint256).max);\n        _CRV.safeApprove(address(_SUSHISWAP), type(uint256).max);\n        _WETH.safeApprove(address(_SUSHISWAP), type(uint256).max);\n    }\n\n    /**\n     * @notice Withdraw an amount of underlying to the vault.\n     * @dev This can only be called by the vault.\n     *      If the amount is not available, it will be made liquid.\n     * @param amount Amount of underlying to withdraw.\n     * @return True if successful withdrawal.\n     */\n    function withdraw(uint256 amount) external override onlyVault returns (bool) {\n        if (amount == 0) return false;\n\n        // Transferring from idle balance if enough\n        uint256 underlyingBalance = _underlyingBalance();\n        if (underlyingBalance >= amount) {\n            underlying.safeTransfer(vault, amount);\n            emit Withdraw(amount);\n            return true;\n        }\n\n        // Calculating needed amount of LP to withdraw\n        uint256 requiredUnderlyingAmount = amount - underlyingBalance;\n        uint256 maxHopLpBurned = _maxHopLpBurned(requiredUnderlyingAmount);\n        uint256 requiredHopLpAmount = maxHopLpBurned - _hopLpBalance();\n        uint256 maxLpBurned = _maxLpBurned(requiredHopLpAmount);\n        uint256 requiredLpAmount = maxLpBurned - _lpBalance();\n\n        // Unstaking needed LP Tokens from Convex\n        if (!rewards.withdrawAndUnwrap(requiredLpAmount, false)) return false;\n\n        // Removing needed liquidity from Curve Pool\n        uint256[2] memory amounts;\n        amounts[curveIndex] = requiredHopLpAmount;\n        curvePool.remove_liquidity_imbalance(amounts, maxLpBurned);\n\n        // Removing needed liquidity from Curve Hop Pool\n        uint256[3] memory hopAmounts;\n        hopAmounts[curveHopIndex] = requiredUnderlyingAmount;\n        curveHopPool.remove_liquidity_imbalance(hopAmounts, maxHopLpBurned);\n\n        // Sending underlying to vault\n        underlying.safeTransfer(vault, amount);\n        emit Withdraw(amount);\n        return true;\n    }\n\n    /**\n     * @notice Shuts down the strategy, disabling deposits.\n     * @return True if reserve was successfully set.\n     */\n    function shutdown() external override onlyVault returns (bool) {\n        if (isShutdown) return false;\n        isShutdown = true;\n        emit Shutdown();\n        return true;\n    }\n\n    /**\n     * @notice Set the address of the communit reserve.\n     * @dev CRV & CVX will be taxed and allocated to the reserve,\n     *      such that Backd can participate in governance.\n     * @param _communityReserve Address of the community reserve.\n     * @return True if successfully set.\n     */\n    function setCommunityReserve(address _communityReserve) external onlyGovernance returns (bool) {\n        communityReserve = _communityReserve;\n        emit SetCommunityReserve(_communityReserve);\n        return true;\n    }\n\n    /**\n     * @notice Set the share of CRV to send to the Community Reserve.\n     * @param crvCommunityReserveShare_ New fee charged on CRV rewards for governance.\n     * @return True if successfully set.\n     */\n    function setCrvCommunityReserveShare(uint256 crvCommunityReserveShare_)\n        external\n        onlyGovernance\n        returns (bool)\n    {\n        require(crvCommunityReserveShare_ <= ScaledMath.ONE, Error.INVALID_AMOUNT);\n        require(communityReserve != address(0), \"Community reserve must be set\");\n        crvCommunityReserveShare = crvCommunityReserveShare_;\n        emit SetCrvCommunityReserveShare(crvCommunityReserveShare_);\n        return true;\n    }\n\n    /**\n     * @notice Set the share of CVX to send to the Community Reserve.\n     * @param cvxCommunityReserveShare_ New fee charged on CVX rewards for governance.\n     * @return True if successfully set.\n     */\n    function setCvxCommunityReserveShare(uint256 cvxCommunityReserveShare_)\n        external\n        onlyGovernance\n        returns (bool)\n    {\n        require(cvxCommunityReserveShare_ <= ScaledMath.ONE, Error.INVALID_AMOUNT);\n        require(communityReserve != address(0), \"Community reserve must be set\");\n        cvxCommunityReserveShare = cvxCommunityReserveShare_;\n        emit SetCvxCommunityReserveShare(cvxCommunityReserveShare_);\n        return true;\n    }\n\n    /**\n     * @notice Set imbalance tolerance for Curve Pool deposits.\n     * @dev Stored as a percent, e.g. 1% would be set as 0.01\n     * @param _imbalanceToleranceIn New imbalance tolarance in.\n     * @return True if successfully set.\n     */\n    function setImbalanceToleranceIn(uint256 _imbalanceToleranceIn)\n        external\n        onlyGovernance\n        returns (bool)\n    {\n        imbalanceToleranceIn = _imbalanceToleranceIn;\n        emit SetImbalanceToleranceIn(_imbalanceToleranceIn);\n        return true;\n    }\n\n    /**\n     * @notice Set imbalance tolerance for Curve Pool withdrawals.\n     * @dev Stored as a percent, e.g. 1% would be set as 0.01\n     * @param _imbalanceToleranceOut New imbalance tolarance out.\n     * @return True if successfully set.\n     */\n    function setImbalanceToleranceOut(uint256 _imbalanceToleranceOut)\n        external\n        onlyGovernance\n        returns (bool)\n    {\n        imbalanceToleranceOut = _imbalanceToleranceOut;\n        emit SetImbalanceToleranceOut(_imbalanceToleranceOut);\n        return true;\n    }\n\n    /**\n     * @notice Set hop imbalance tolerance for Curve Hop Pool deposits.\n     * @dev Stored as a percent, e.g. 1% would be set as 0.01\n     * @param _hopImbalanceToleranceIn New hop imbalance tolarance in.\n     * @return True if successfully set.\n     */\n    function setHopImbalanceToleranceIn(uint256 _hopImbalanceToleranceIn)\n        external\n        onlyGovernance\n        returns (bool)\n    {\n        hopImbalanceToleranceIn = _hopImbalanceToleranceIn;\n        emit SetHopImbalanceToleranceIn(_hopImbalanceToleranceIn);\n        return true;\n    }\n\n    /**\n     * @notice Set hop imbalance tolerance for Curve Hop Pool withdrawals.\n     * @dev Stored as a percent, e.g. 1% would be set as 0.01\n     * @param _hopImbalanceToleranceOut New hop imbalance tolarance out.\n     * @return True if successfully set.\n     */\n    function setHopImbalanceToleranceOut(uint256 _hopImbalanceToleranceOut)\n        external\n        onlyGovernance\n        returns (bool)\n    {\n        hopImbalanceToleranceOut = _hopImbalanceToleranceOut;\n        emit SetHopImbalanceToleranceOut(_hopImbalanceToleranceOut);\n        return true;\n    }\n\n    /**\n     * @notice Set strategist.\n     * @dev Can only be set by current strategist.\n     * @param _strategist Address of new strategist.\n     * @return True if successfully set.\n     */\n    function setStrategist(address _strategist) external returns (bool) {\n        require(msg.sender == strategist, Error.UNAUTHORIZED_ACCESS);\n        strategist = _strategist;\n        emit SetStrategist(_strategist);\n        return true;\n    }\n\n    /**\n     * @notice Add a reward token to list of extra reward tokens.\n     * @dev These are tokens that are not the main assets of the strategy. For instance, temporary incentives.\n     * @param token Address of token to add to reward token list.\n     * @return True if successfully added.\n     */\n    function addRewardToken(address token) external onlyGovernance returns (bool) {\n        require(\n            token != address(_CVX) &&\n                token != address(underlying) &&\n                token != address(_CRV) &&\n                token != address(_WETH),\n            Error.INVALID_TOKEN_TO_ADD\n        );\n        if (_rewardTokens.contains(token)) return false;\n        _rewardTokens.add(token);\n        _setDex(token, _SUSHISWAP);\n        IERC20(token).safeApprove(address(_SUSHISWAP), 0);\n        IERC20(token).safeApprove(address(_SUSHISWAP), type(uint256).max);\n        emit AddRewardToken(token);\n        return true;\n    }\n\n    /**\n     * @notice Remove a reward token.\n     * @param token Address of token to remove from reward token list.\n     * @return True if successfully removed.\n     */\n    function removeRewardToken(address token) external onlyGovernance returns (bool) {\n        if (!_rewardTokens.remove(token)) return false;\n        emit RemoveRewardToken(token);\n        return true;\n    }\n\n    /**\n     * @notice Set the DEX that should be used for swapping for a specific coin.\n     *         If Uniswap is active, it will switch to SushiSwap and vice versa.\n     * @dev Only SushiSwap and Uniswap are supported.\n     * @param token Address of token for which the DEX should be updated.\n     */\n    function swapDex(address token) external onlyGovernance returns (bool) {\n        UniswapRouter02 currentDex = tokenDex[token];\n        require(address(currentDex) != address(0), Error.NO_DEX_SET);\n        UniswapRouter02 newDex = currentDex == _SUSHISWAP ? _UNISWAP : _SUSHISWAP;\n        _setDex(token, newDex);\n        IERC20(token).safeApprove(address(newDex), 0);\n        IERC20(token).safeApprove(address(newDex), type(uint256).max);\n        emit SwapDex(token, address(newDex));\n        return true;\n    }\n\n    /**\n     * @notice Changes the Convex Pool used for farming yield, e.g. from FRAX to MIM.\n     * @dev First withdraws all funds, then harvests any rewards, then changes pool, then deposits again.\n     * @param convexPid_ The PID for the new Convex Pool.\n     * @param curveIndex_ The index of the new Convex Pool Token in the new Curve Pool.\n     */\n    function changeConvexPool(uint256 convexPid_, uint256 curveIndex_) external onlyGovernance {\n        _harvest();\n        _withdrawAllToHopLp();\n        convexPid = convexPid_;\n        curveIndex = curveIndex_;\n        (address lp_, , , address rewards_, , ) = _BOOSTER.poolInfo(convexPid_);\n        lp = IERC20(lp_);\n        rewards = IRewardStaking(rewards_);\n        address curvePool_ = _CURVE_REGISTRY.get_pool_from_lp_token(lp_);\n        curvePool = ICurveSwap(curvePool_);\n        IERC20(hopLp).safeApprove(curvePool_, 0);\n        IERC20(hopLp).safeApprove(curvePool_, type(uint256).max);\n        IERC20(lp_).safeApprove(address(_BOOSTER), 0);\n        IERC20(lp_).safeApprove(address(_BOOSTER), type(uint256).max);\n        require(_deposit(), Error.DEPOSIT_FAILED);\n    }\n\n    /**\n     * @notice Returns the name of the strategy.\n     * @return The name of the strategy.\n     */\n    function name() external view override returns (string memory) {\n        return \"BkdTriHopCvx\";\n    }\n\n    /**\n     * @notice Amount of rewards that can be harvested in the underlying.\n     * @dev Includes rewards for CRV & CVX.\n     * @return Estimated amount of underlying available to harvest.\n     */\n    function harvestable() external view override returns (uint256) {\n        uint256 crvAmount_ = rewards.earned(address(this));\n        if (crvAmount_ == 0) return 0;\n        return\n            _underlyingAmountOut(\n                _CRV,\n                crvAmount_.scaledMul(ScaledMath.ONE - crvCommunityReserveShare)\n            ) +\n            _underlyingAmountOut(\n                _CVX,\n                getCvxMintAmount(crvAmount_).scaledMul(ScaledMath.ONE - cvxCommunityReserveShare)\n            );\n    }\n\n    /**\n     * @dev Contract does not stash tokens.\n     */\n    function hasPendingFunds() external pure override returns (bool) {\n        return false;\n    }\n\n    /**\n     * @notice Deposit all available underlying into Convex pool.\n     * @dev Liquidity is added to Curve Pool then Curve LP tokens are deposited\n     * \t\tinto Convex and Convex LP tokens are staked for rewards by default.\n     * @return True if successful deposit.\n     */\n    function deposit() public payable override onlyVault returns (bool) {\n        return _deposit();\n    }\n\n    /**\n     * @notice Withdraw all underlying.\n     * @dev This does not liquidate reward tokens and only considers\n     *      idle underlying, idle lp tokens and staked lp tokens.\n     * @return Amount of underlying withdrawn\n     */\n    function withdrawAll() public override returns (uint256) {\n        require(\n            msg.sender == vault || _roleManager().hasRole(Roles.GOVERNANCE, msg.sender),\n            Error.UNAUTHORIZED_ACCESS\n        );\n\n        // Withdrawing all from Convex and converting to Hop LP Token\n        _withdrawAllToHopLp();\n\n        // Removing liquidity from Curve Hop Pool\n        uint256 hopLpBalance = _hopLpBalance();\n        if (hopLpBalance > 0) {\n            curveHopPool.remove_liquidity_one_coin(\n                hopLpBalance,\n                int128(uint128(curveHopIndex)),\n                _minUnderlyingAccepted(hopLpBalance)\n            );\n        }\n\n        // Transferring underlying to vault\n        uint256 underlyingBalance = _underlyingBalance();\n        if (underlyingBalance == 0) return 0;\n        underlying.safeTransfer(vault, underlyingBalance);\n        emit WithdrawAll(underlyingBalance);\n        return underlyingBalance;\n    }\n\n    /**\n     * @notice Harvests reward tokens and sells these for the underlying.\n     * @dev Any underlying harvested is not redeposited by this method.\n     * @return Amount of underlying harvested.\n     */\n    function harvest() public override onlyVault returns (uint256) {\n        return _harvest();\n    }\n\n    /**\n     * @notice Get the total underlying balance of the strategy.\n     * @dev This includes idle underlying, idle LP and LP deposited on Convex.\n     * @return Underlying balance of strategy.\n     */\n    function balance() public view override returns (uint256) {\n        return\n            _underlyingBalance() +\n            _hopLpToUnderlying(_lpToHopLp(_stakedBalance() + _lpBalance()) + _hopLpBalance());\n    }\n\n    /**\n     * @dev Set the dex to use for a token.\n     * @param token Address of token to set the dex for.\n     * @param dex Dex to use for swaps with that token.\n     */\n    function _setDex(address token, UniswapRouter02 dex) internal {\n        tokenDex[token] = dex;\n    }\n\n    /**\n     * @notice Swaps all balance of a token for WETH.\n     * @param token Address of the token to swap for WETH.\n     */\n    function _swapAllForWeth(IERC20 token) internal {\n        uint256 amount = token.balanceOf(address(this));\n        return _swapForWeth(token, amount);\n    }\n\n    /**\n     * @notice Swaps a token for WETH.\n     * @param token Address of the token to swap for WETH.\n     * @param amount Amount of the token to swap for WETH.\n     */\n    function _swapForWeth(IERC20 token, uint256 amount) internal {\n        if (amount == 0) return;\n\n        // Handling CVX Swaps\n        if (address(token) == address(_CVX)) {\n            _CVX_ETH_CURVE_POOL.exchange(\n                _CURVE_CVX_INDEX,\n                _CURVE_ETH_INDEX,\n                amount,\n                amount\n                    .scaledMul(_addressProvider.getOracleProvider().getPriceETH(address(_CVX)))\n                    .scaledMul(slippageTolerance)\n            );\n            return;\n        }\n\n        // Handling other swaps\n        address[] memory path = new address[](2);\n        path[0] = address(token);\n        path[1] = address(_WETH);\n        tokenDex[address(token)].swapExactTokensForTokens(\n            amount,\n            amount\n                .scaledMul(_addressProvider.getOracleProvider().getPriceETH(address(token)))\n                .scaledMul(slippageTolerance),\n            path,\n            address(this),\n            block.timestamp\n        );\n    }\n\n    /**\n     * @notice Swaps all available WETH for underlying.\n     */\n    function _swapWethForUnderlying() internal {\n        uint256 wethBalance = _WETH.balanceOf(address(this));\n        if (wethBalance == 0) return;\n        address[] memory path = new address[](2);\n        path[0] = address(_WETH);\n        path[1] = address(underlying);\n        tokenDex[address(underlying)].swapExactTokensForTokens(\n            wethBalance,\n            wethBalance\n                .scaledDiv(_addressProvider.getOracleProvider().getPriceETH(address(underlying)))\n                .scaledMul(slippageTolerance) / decimalMultiplier,\n            path,\n            address(this),\n            block.timestamp\n        );\n    }\n\n    /**\n     * @notice Sends a share of the current balance of CRV and CVX to the Community Reserve.\n     */\n    function _sendCommunityReserveShare() internal {\n        address communityReserve_ = communityReserve;\n        if (communityReserve_ == address(0)) return;\n        uint256 cvxCommunityReserveShare_ = cvxCommunityReserveShare;\n        if (cvxCommunityReserveShare_ > 0) {\n            uint256 cvxBalance_ = _CVX.balanceOf(address(this));\n            if (cvxBalance_ > 0) {\n                _CVX.safeTransfer(\n                    communityReserve_,\n                    cvxBalance_.scaledMul(cvxCommunityReserveShare_)\n                );\n            }\n        }\n        uint256 crvCommunityReserveShare_ = crvCommunityReserveShare;\n        if (crvCommunityReserveShare_ > 0) {\n            uint256 crvBalance_ = _CRV.balanceOf(address(this));\n            if (crvBalance_ > 0) {\n                _CRV.safeTransfer(\n                    communityReserve_,\n                    crvBalance_.scaledMul(crvCommunityReserveShare_)\n                );\n            }\n        }\n    }\n\n    /**\n     * @dev Get the balance of the underlying.\n     */\n    function _underlyingBalance() internal view returns (uint256) {\n        return underlying.balanceOf(address(this));\n    }\n\n    /**\n     * @dev Get the balance of the hop lp.\n     */\n    function _hopLpBalance() internal view returns (uint256) {\n        return hopLp.balanceOf(address(this));\n    }\n\n    /**\n     * @dev Get the balance of the lp.\n     */\n    function _lpBalance() internal view returns (uint256) {\n        return lp.balanceOf(address(this));\n    }\n\n    /**\n     * @dev Get the balance of the underlying staked in the Curve pool.\n     */\n    function _stakedBalance() internal view returns (uint256) {\n        return rewards.balanceOf(address(this));\n    }\n\n    /**\n     * @notice Gets the amount of underlying that would be received by selling the token.\n     * @dev Uses WETH as intermediate in swap path.\n     * @return Underlying amount that would be received.\n     */\n    function _underlyingAmountOut(IERC20 token, uint256 amountIn) internal view returns (uint256) {\n        if (amountIn == 0) return 0;\n        address[] memory path;\n        if (token == _CVX) {\n            IERC20 underlying_ = underlying;\n            path = new address[](2);\n            path[0] = address(_WETH);\n            path[1] = address(underlying_);\n            return\n                tokenDex[address(underlying_)].getAmountsOut(\n                    _CVX_ETH_CURVE_POOL.get_dy(_CURVE_CVX_INDEX, _CURVE_ETH_INDEX, amountIn),\n                    path\n                )[1];\n        }\n        path = new address[](3);\n        path[0] = address(token);\n        path[1] = address(_WETH);\n        path[2] = address(underlying);\n        return tokenDex[address(token)].getAmountsOut(amountIn, path)[2];\n    }\n\n    /**\n     * @notice Calculates the minimum LP to accept when depositing underlying into Curve Pool.\n     * @param _hopLpAmount Amount of Hop LP that is being deposited into Curve Pool.\n     * @return The minimum LP balance to accept.\n     */\n    function _minLpAccepted(uint256 _hopLpAmount) internal view returns (uint256) {\n        return _hopLpToLp(_hopLpAmount).scaledMul(ScaledMath.ONE - imbalanceToleranceIn);\n    }\n\n    /**\n     * @notice Calculates the maximum LP to accept burning when withdrawing amount from Curve Pool.\n     * @param _hopLpAmount Amount of Hop LP that is being widthdrawn from Curve Pool.\n     * @return The maximum LP balance to accept burning.\n     */\n    function _maxLpBurned(uint256 _hopLpAmount) internal view returns (uint256) {\n        return _hopLpToLp(_hopLpAmount).scaledMul(ScaledMath.ONE + imbalanceToleranceOut);\n    }\n\n    /**\n     * @notice Calculates the minimum Hop LP to accept when burning LP tokens to withdraw from Curve Pool.\n     * @param _lpAmount Amount of LP tokens being burned to withdraw from Curve Pool.\n     * @return The mininum Hop LP balance to accept.\n     */\n    function _minHopLpAcceptedFromWithdraw(uint256 _lpAmount) internal view returns (uint256) {\n        return _lpToHopLp(_lpAmount).scaledMul(ScaledMath.ONE - imbalanceToleranceOut);\n    }\n\n    /**\n     * @notice Calculates the minimum Hop LP to accept when depositing underlying into Curve Hop Pool.\n     * @param _underlyingAmount Amount of underlying that is being deposited into Curve Hop Pool.\n     * @return The minimum Hop LP balance to accept.\n     */\n    function _minHopLpAcceptedFromDeposit(uint256 _underlyingAmount)\n        internal\n        view\n        returns (uint256)\n    {\n        return\n            _underlyingToHopLp(_underlyingAmount).scaledMul(\n                ScaledMath.ONE - hopImbalanceToleranceIn\n            );\n    }\n\n    /**\n     * @notice Calculates the maximum Hop LP to accept burning when withdrawing amount from Curve Hop Pool.\n     * @param _underlyingAmount Amount of underlying that is being widthdrawn from Curve Hop Pool.\n     * @return The maximum Hop LP balance to accept burning.\n     */\n    function _maxHopLpBurned(uint256 _underlyingAmount) internal view returns (uint256) {\n        return\n            _underlyingToHopLp(_underlyingAmount).scaledMul(\n                ScaledMath.ONE + hopImbalanceToleranceOut\n            );\n    }\n\n    /**\n     * @notice Calculates the minimum underlying to accept when burning Hop LP tokens to withdraw from Curve Hop Pool.\n     * @param _hopLpAmount Amount of Hop LP tokens being burned to withdraw from Curve Hop Pool.\n     * @return The mininum underlying balance to accept.\n     */\n    function _minUnderlyingAccepted(uint256 _hopLpAmount) internal view returns (uint256) {\n        return\n            _hopLpToUnderlying(_hopLpAmount).scaledMul(ScaledMath.ONE - hopImbalanceToleranceOut);\n    }\n\n    /**\n     * @notice Converts an amount of underlying into their estimated Hop LP value.\n     * @dev Uses get_virtual_price which is less suceptible to manipulation.\n     *  But is also less accurate to how much could be withdrawn.\n     * @param _underlyingAmount Amount of underlying to convert.\n     * @return The estimated value in the Hop LP.\n     */\n    function _underlyingToHopLp(uint256 _underlyingAmount) internal view returns (uint256) {\n        return (_underlyingAmount * decimalMultiplier).scaledDiv(curveHopPool.get_virtual_price());\n    }\n\n    /**\n     * @notice Converts an amount of Hop LP into their estimated underlying value.\n     * @dev Uses get_virtual_price which is less suceptible to manipulation.\n     *  But is also less accurate to how much could be withdrawn.\n     * @param _hopLpAmount Amount of Hop LP to convert.\n     * @return The estimated value in the underlying.\n     */\n    function _hopLpToUnderlying(uint256 _hopLpAmount) internal view returns (uint256) {\n        return (_hopLpAmount / decimalMultiplier).scaledMul(curveHopPool.get_virtual_price());\n    }\n\n    /**\n     * @notice Converts an amount of LP into their estimated Hop LP value.\n     * @dev Uses get_virtual_price which is less suceptible to manipulation.\n     *  But is also less accurate to how much could be withdrawn.\n     * @param _lpAmount Amount of underlying to convert.\n     * @return The estimated value in the Hop LP.\n     */\n    function _lpToHopLp(uint256 _lpAmount) internal view returns (uint256) {\n        return\n            _lpAmount.scaledMul(curvePool.get_virtual_price()).scaledDiv(\n                curveHopPool.get_virtual_price()\n            );\n    }\n\n    /**\n     * @notice Converts an amount of Hop LP into their estimated LP value.\n     * @dev Uses get_virtual_price which is less suceptible to manipulation.\n     *  But is also less accurate to how much could be withdrawn.\n     * @param _hopLpAmount Amount of Hop LP to convert.\n     * @return The estimated value in the LP.\n     */\n    function _hopLpToLp(uint256 _hopLpAmount) internal view returns (uint256) {\n        return\n            _hopLpAmount.scaledMul(curveHopPool.get_virtual_price()).scaledDiv(\n                curvePool.get_virtual_price()\n            );\n    }\n\n    /**\n     * @dev Deposit all available underlying into Convex pool.\n     * @return True if successful deposit.\n     */\n    function _deposit() private returns (bool) {\n        require(msg.value == 0, Error.INVALID_VALUE);\n        require(!isShutdown, Error.STRATEGY_SHUT_DOWN);\n\n        // Depositing into Curve Hop Pool\n        uint256 underlyingBalance = _underlyingBalance();\n        if (underlyingBalance > 0) {\n            uint256[3] memory hopAmounts;\n            hopAmounts[curveHopIndex] = underlyingBalance;\n            curveHopPool.add_liquidity(hopAmounts, _minHopLpAcceptedFromDeposit(underlyingBalance));\n        }\n\n        // Depositing into Curve Pool\n        uint256 hopLpBalance = _hopLpBalance();\n        if (hopLpBalance > 0) {\n            uint256[2] memory amounts;\n            amounts[curveIndex] = hopLpBalance;\n            curvePool.add_liquidity(amounts, _minLpAccepted(hopLpBalance));\n        }\n\n        // Depositing into Convex and Staking\n        if (_lpBalance() == 0) return false;\n        if (!_BOOSTER.depositAll(convexPid, true)) return false;\n        emit Deposit(underlyingBalance);\n        return true;\n    }\n\n    /**\n     * @dev Withdraw all underlying and convert to the Hop LP Token.\n     */\n    function _withdrawAllToHopLp() private {\n        // Unstaking and withdrawing from Convex pool\n        uint256 stakedBalance = _stakedBalance();\n        if (stakedBalance > 0) {\n            rewards.withdrawAndUnwrap(stakedBalance, false);\n        }\n\n        // Removing liquidity from Curve Pool\n        uint256 lpBalance = _lpBalance();\n        if (lpBalance > 0) {\n            curvePool.remove_liquidity_one_coin(\n                lpBalance,\n                int128(uint128(curveIndex)),\n                _minHopLpAcceptedFromWithdraw(lpBalance)\n            );\n        }\n    }\n\n    function _harvest() private returns (uint256) {\n        uint256 initialBalance = _underlyingBalance();\n\n        // Claim Convex rewards\n        rewards.getReward();\n\n        // Sending share to Community Reserve\n        _sendCommunityReserveShare();\n\n        // Swap CVX for WETH\n        _swapAllForWeth(_CVX);\n\n        // Swap CRV for WETH\n        _swapAllForWeth(_CRV);\n\n        // Swap Extra Rewards for WETH\n        for (uint256 i = 0; i < _rewardTokens.length(); i++) {\n            _swapAllForWeth(IERC20(_rewardTokens.at(i)));\n        }\n\n        // Swap WETH for underlying\n        _swapWethForUnderlying();\n\n        uint256 harvested = _underlyingBalance() - initialBalance;\n        emit Harvest(harvested);\n        return harvested;\n    }\n}\n","sourcePath":"contracts/strategies/BkdTriHopCvx.sol","type":"contract","deployment":{"address":"0x5F0a7A6992BBFcB230B6E436fAF3B405713f9f0B","chainid":"1","blockHeight":14391510}}