{"abi":[{"inputs":[{"internalType":"contract IController","name":"_controller","type":"address"}],"stateMutability":"nonpayable","type":"constructor","name":"constructor"},{"anonymous":false,"inputs":[{"indexed":true,"internalType":"bytes32","name":"key","type":"bytes32"},{"indexed":false,"internalType":"address","name":"value","type":"address"},{"indexed":false,"internalType":"uint256","name":"delay","type":"uint256"}],"name":"ConfigPreparedAddress","type":"event"},{"anonymous":false,"inputs":[{"indexed":true,"internalType":"bytes32","name":"key","type":"bytes32"},{"indexed":false,"internalType":"uint256","name":"value","type":"uint256"},{"indexed":false,"internalType":"uint256","name":"delay","type":"uint256"}],"name":"ConfigPreparedNumber","type":"event"},{"anonymous":false,"inputs":[{"indexed":true,"internalType":"bytes32","name":"key","type":"bytes32"}],"name":"ConfigReset","type":"event"},{"anonymous":false,"inputs":[{"indexed":true,"internalType":"bytes32","name":"key","type":"bytes32"},{"indexed":false,"internalType":"address","name":"oldValue","type":"address"},{"indexed":false,"internalType":"address","name":"newValue","type":"address"}],"name":"ConfigUpdatedAddress","type":"event"},{"anonymous":false,"inputs":[{"indexed":true,"internalType":"bytes32","name":"key","type":"bytes32"},{"indexed":false,"internalType":"uint256","name":"oldValue","type":"uint256"},{"indexed":false,"internalType":"uint256","name":"newValue","type":"uint256"}],"name":"ConfigUpdatedNumber","type":"event"},{"anonymous":false,"inputs":[{"indexed":true,"internalType":"address","name":"minter","type":"address"},{"indexed":false,"internalType":"uint256","name":"depositAmount","type":"uint256"},{"indexed":false,"internalType":"uint256","name":"mintedLpTokens","type":"uint256"}],"name":"Deposit","type":"event"},{"anonymous":false,"inputs":[{"indexed":true,"internalType":"address","name":"minter","type":"address"},{"indexed":true,"internalType":"address","name":"mintee","type":"address"},{"indexed":false,"internalType":"uint256","name":"depositAmount","type":"uint256"},{"indexed":false,"internalType":"uint256","name":"mintedLpTokens","type":"uint256"}],"name":"DepositFor","type":"event"},{"anonymous":false,"inputs":[{"indexed":true,"internalType":"address","name":"lpToken","type":"address"}],"name":"LpTokenSet","type":"event"},{"anonymous":false,"inputs":[{"indexed":true,"internalType":"address","name":"redeemer","type":"address"},{"indexed":false,"internalType":"uint256","name":"redeemAmount","type":"uint256"},{"indexed":false,"internalType":"uint256","name":"redeemTokens","type":"uint256"}],"name":"Redeem","type":"event"},{"anonymous":false,"inputs":[{"indexed":true,"internalType":"address","name":"stakerVault","type":"address"}],"name":"StakerVaultSet","type":"event"},{"inputs":[],"name":"addressProvider","outputs":[{"internalType":"contract IAddressProvider","name":"","type":"address"}],"stateMutability":"view","type":"function"},{"inputs":[{"internalType":"address","name":"account","type":"address"},{"internalType":"uint256","name":"underlyingAmount","type":"uint256"}],"name":"calcRedeem","outputs":[{"internalType":"uint256","name":"","type":"uint256"}],"stateMutability":"view","type":"function"},{"inputs":[],"name":"controller","outputs":[{"internalType":"contract IController","name":"","type":"address"}],"stateMutability":"view","type":"function"},{"inputs":[{"internalType":"bytes32","name":"","type":"bytes32"}],"name":"currentAddresses","outputs":[{"internalType":"address","name":"","type":"address"}],"stateMutability":"view","type":"function"},{"inputs":[{"internalType":"bytes32","name":"","type":"bytes32"}],"name":"currentUInts256","outputs":[{"internalType":"uint256","name":"","type":"uint256"}],"stateMutability":"view","type":"function"},{"inputs":[{"internalType":"bytes32","name":"","type":"bytes32"}],"name":"deadlines","outputs":[{"internalType":"uint256","name":"","type":"uint256"}],"stateMutability":"view","type":"function"},{"inputs":[{"internalType":"uint256","name":"depositAmount","type":"uint256"}],"name":"deposit","outputs":[{"internalType":"uint256","name":"","type":"uint256"}],"stateMutability":"payable","type":"function"},{"inputs":[{"internalType":"uint256","name":"depositAmount","type":"uint256"},{"internalType":"uint256","name":"minTokenAmount","type":"uint256"}],"name":"deposit","outputs":[{"internalType":"uint256","name":"","type":"uint256"}],"stateMutability":"payable","type":"function"},{"inputs":[{"internalType":"uint256","name":"depositAmount","type":"uint256"},{"internalType":"uint256","name":"minTokenAmount","type":"uint256"}],"name":"depositAndStake","outputs":[{"internalType":"uint256","name":"","type":"uint256"}],"stateMutability":"payable","type":"function"},{"inputs":[],"name":"depositCap","outputs":[{"internalType":"uint256","name":"","type":"uint256"}],"stateMutability":"view","type":"function"},{"inputs":[{"internalType":"address","name":"account","type":"address"},{"internalType":"uint256","name":"depositAmount","type":"uint256"}],"name":"depositFor","outputs":[{"internalType":"uint256","name":"","type":"uint256"}],"stateMutability":"payable","type":"function"},{"inputs":[{"internalType":"address","name":"account","type":"address"},{"internalType":"uint256","name":"depositAmount","type":"uint256"},{"internalType":"uint256","name":"minTokenAmount","type":"uint256"}],"name":"depositFor","outputs":[{"internalType":"uint256","name":"","type":"uint256"}],"stateMutability":"payable","type":"function"},{"inputs":[],"name":"exchangeRate","outputs":[{"internalType":"uint256","name":"","type":"uint256"}],"stateMutability":"view","type":"function"},{"inputs":[],"name":"executeNewMaxWithdrawalFee","outputs":[{"internalType":"uint256","name":"","type":"uint256"}],"stateMutability":"nonpayable","type":"function"},{"inputs":[],"name":"executeNewMinWithdrawalFee","outputs":[{"internalType":"uint256","name":"","type":"uint256"}],"stateMutability":"nonpayable","type":"function"},{"inputs":[],"name":"executeNewRequiredReserves","outputs":[{"internalType":"uint256","name":"","type":"uint256"}],"stateMutability":"nonpayable","type":"function"},{"inputs":[],"name":"executeNewReserveDeviation","outputs":[{"internalType":"uint256","name":"","type":"uint256"}],"stateMutability":"nonpayable","type":"function"},{"inputs":[],"name":"executeNewVault","outputs":[{"internalType":"address","name":"","type":"address"}],"stateMutability":"nonpayable","type":"function"},{"inputs":[],"name":"executeNewWithdrawalFeeDecreasePeriod","outputs":[{"internalType":"uint256","name":"","type":"uint256"}],"stateMutability":"nonpayable","type":"function"},{"inputs":[],"name":"getLpToken","outputs":[{"internalType":"address","name":"","type":"address"}],"stateMutability":"view","type":"function"},{"inputs":[],"name":"getMaxReserveDeviationRatio","outputs":[{"internalType":"uint256","name":"","type":"uint256"}],"stateMutability":"view","type":"function"},{"inputs":[],"name":"getMaxWithdrawalFee","outputs":[{"internalType":"uint256","name":"","type":"uint256"}],"stateMutability":"view","type":"function"},{"inputs":[],"name":"getMinWithdrawalFee","outputs":[{"internalType":"uint256","name":"","type":"uint256"}],"stateMutability":"view","type":"function"},{"inputs":[{"internalType":"uint256","name":"timeToWait","type":"uint256"},{"internalType":"uint256","name":"lastActionTimestamp","type":"uint256"},{"internalType":"uint256","name":"feeRatio","type":"uint256"}],"name":"getNewCurrentFees","outputs":[{"internalType":"uint256","name":"","type":"uint256"}],"stateMutability":"view","type":"function"},{"inputs":[],"name":"getRequiredReserveRatio","outputs":[{"internalType":"uint256","name":"","type":"uint256"}],"stateMutability":"view","type":"function"},{"inputs":[],"name":"getUnderlying","outputs":[{"internalType":"address","name":"","type":"address"}],"stateMutability":"pure","type":"function"},{"inputs":[],"name":"getVault","outputs":[{"internalType":"contract IVault","name":"","type":"address"}],"stateMutability":"view","type":"function"},{"inputs":[{"internalType":"address","name":"account","type":"address"},{"internalType":"uint256","name":"amount","type":"uint256"}],"name":"getWithdrawalFee","outputs":[{"internalType":"uint256","name":"","type":"uint256"}],"stateMutability":"view","type":"function"},{"inputs":[],"name":"getWithdrawalFeeDecreasePeriod","outputs":[{"internalType":"uint256","name":"","type":"uint256"}],"stateMutability":"view","type":"function"},{"inputs":[{"internalType":"address","name":"from","type":"address"},{"internalType":"address","name":"to","type":"address"},{"internalType":"uint256","name":"amount","type":"uint256"}],"name":"handleLpTokenTransfer","outputs":[],"stateMutability":"nonpayable","type":"function"},{"inputs":[{"internalType":"string","name":"name_","type":"string"},{"internalType":"uint256","name":"depositCap_","type":"uint256"},{"internalType":"address","name":"vault_","type":"address"}],"name":"initialize","outputs":[{"internalType":"bool","name":"","type":"bool"}],"stateMutability":"nonpayable","type":"function"},{"inputs":[],"name":"isCapped","outputs":[{"internalType":"bool","name":"","type":"bool"}],"stateMutability":"view","type":"function"},{"inputs":[],"name":"isPaused","outputs":[{"internalType":"bool","name":"","type":"bool"}],"stateMutability":"view","type":"function"},{"inputs":[],"name":"lpToken","outputs":[{"internalType":"contract ILpToken","name":"","type":"address"}],"stateMutability":"view","type":"function"},{"inputs":[],"name":"name","outputs":[{"internalType":"string","name":"","type":"string"}],"stateMutability":"view","type":"function"},{"inputs":[],"name":"pause","outputs":[{"internalType":"bool","name":"","type":"bool"}],"stateMutability":"nonpayable","type":"function"},{"inputs":[{"internalType":"bytes32","name":"","type":"bytes32"}],"name":"pendingAddresses","outputs":[{"internalType":"address","name":"","type":"address"}],"stateMutability":"view","type":"function"},{"inputs":[{"internalType":"bytes32","name":"","type":"bytes32"}],"name":"pendingUInts256","outputs":[{"internalType":"uint256","name":"","type":"uint256"}],"stateMutability":"view","type":"function"},{"inputs":[{"internalType":"uint256","name":"newFee","type":"uint256"}],"name":"prepareNewMaxWithdrawalFee","outputs":[{"internalType":"bool","name":"","type":"bool"}],"stateMutability":"nonpayable","type":"function"},{"inputs":[{"internalType":"uint256","name":"newFee","type":"uint256"}],"name":"prepareNewMinWithdrawalFee","outputs":[{"internalType":"bool","name":"","type":"bool"}],"stateMutability":"nonpayable","type":"function"},{"inputs":[{"internalType":"uint256","name":"_newRatio","type":"uint256"}],"name":"prepareNewRequiredReserves","outputs":[{"internalType":"bool","name":"","type":"bool"}],"stateMutability":"nonpayable","type":"function"},{"inputs":[{"internalType":"uint256","name":"newRatio","type":"uint256"}],"name":"prepareNewReserveDeviation","outputs":[{"internalType":"bool","name":"","type":"bool"}],"stateMutability":"nonpayable","type":"function"},{"inputs":[{"internalType":"address","name":"_vault","type":"address"}],"name":"prepareNewVault","outputs":[{"internalType":"bool","name":"","type":"bool"}],"stateMutability":"nonpayable","type":"function"},{"inputs":[{"internalType":"uint256","name":"newPeriod","type":"uint256"}],"name":"prepareNewWithdrawalFeeDecreasePeriod","outputs":[{"internalType":"bool","name":"","type":"bool"}],"stateMutability":"nonpayable","type":"function"},{"inputs":[],"name":"rebalanceVault","outputs":[],"stateMutability":"nonpayable","type":"function"},{"inputs":[{"internalType":"uint256","name":"redeemLpTokens","type":"uint256"},{"internalType":"uint256","name":"minRedeemAmount","type":"uint256"}],"name":"redeem","outputs":[{"internalType":"uint256","name":"","type":"uint256"}],"stateMutability":"nonpayable","type":"function"},{"inputs":[{"internalType":"uint256","name":"redeemLpTokens","type":"uint256"}],"name":"redeem","outputs":[{"internalType":"uint256","name":"","type":"uint256"}],"stateMutability":"nonpayable","type":"function"},{"inputs":[],"name":"resetNewMaxWithdrawalFee","outputs":[{"internalType":"bool","name":"","type":"bool"}],"stateMutability":"nonpayable","type":"function"},{"inputs":[],"name":"resetNewMinWithdrawalFee","outputs":[{"internalType":"bool","name":"","type":"bool"}],"stateMutability":"nonpayable","type":"function"},{"inputs":[],"name":"resetNewReserveDeviation","outputs":[{"internalType":"bool","name":"","type":"bool"}],"stateMutability":"nonpayable","type":"function"},{"inputs":[],"name":"resetNewVault","outputs":[{"internalType":"bool","name":"","type":"bool"}],"stateMutability":"nonpayable","type":"function"},{"inputs":[],"name":"resetNewWithdrawalFeeDecreasePeriod","outputs":[{"internalType":"bool","name":"","type":"bool"}],"stateMutability":"nonpayable","type":"function"},{"inputs":[],"name":"resetRequiredReserves","outputs":[{"internalType":"bool","name":"","type":"bool"}],"stateMutability":"nonpayable","type":"function"},{"inputs":[],"name":"roleManager","outputs":[{"internalType":"contract IRoleManager","name":"","type":"address"}],"stateMutability":"view","type":"function"},{"inputs":[{"internalType":"address","name":"_lpToken","type":"address"}],"name":"setLpToken","outputs":[{"internalType":"bool","name":"","type":"bool"}],"stateMutability":"nonpayable","type":"function"},{"inputs":[],"name":"setStaker","outputs":[{"internalType":"bool","name":"","type":"bool"}],"stateMutability":"nonpayable","type":"function"},{"inputs":[],"name":"staker","outputs":[{"internalType":"contract IStakerVault","name":"","type":"address"}],"stateMutability":"view","type":"function"},{"inputs":[],"name":"totalUnderlying","outputs":[{"internalType":"uint256","name":"","type":"uint256"}],"stateMutability":"view","type":"function"},{"inputs":[],"name":"uncap","outputs":[{"internalType":"bool","name":"","type":"bool"}],"stateMutability":"nonpayable","type":"function"},{"inputs":[],"name":"unpause","outputs":[{"internalType":"bool","name":"","type":"bool"}],"stateMutability":"nonpayable","type":"function"},{"inputs":[{"internalType":"uint256","name":"redeemLpTokens","type":"uint256"},{"internalType":"uint256","name":"minRedeemAmount","type":"uint256"}],"name":"unstakeAndRedeem","outputs":[{"internalType":"uint256","name":"","type":"uint256"}],"stateMutability":"nonpayable","type":"function"},{"inputs":[{"internalType":"uint256","name":"_depositCap","type":"uint256"}],"name":"updateDepositCap","outputs":[{"internalType":"bool","name":"","type":"bool"}],"stateMutability":"nonpayable","type":"function"},{"inputs":[],"name":"withdrawAll","outputs":[],"stateMutability":"nonpayable","type":"function"},{"inputs":[{"internalType":"address","name":"","type":"address"}],"name":"withdrawalFeeMetas","outputs":[{"internalType":"uint64","name":"timeToWait","type":"uint64"},{"internalType":"uint64","name":"feeRatio","type":"uint64"},{"internalType":"uint64","name":"lastActionTimestamp","type":"uint64"}],"stateMutability":"view","type":"function"},{"stateMutability":"payable","type":"receive"}],"bytecode":"60e06040523480156200001157600080fd5b506040516200545538038062005455833981016040819052620000349162000278565b80620000c8816001600160a01b0316632954018c6040518163ffffffff1660e01b815260040160206040518083038186803b1580156200007357600080fd5b505afa15801562000088573d6000803e3d6000fd5b505050506040513d601f19601f82011682018060405250810190620000ae919062000278565b6001600160a01b0316620001cd60201b620039961760201c565b6001600160a01b0390811660805260408051808201909152601881527f7a65726f2061646472657373206e6f7420616c6c6f77656400000000000000006020820152908216620001365760405162461bcd60e51b81526004016200012d91906200029f565b60405180910390fd5b506001600160a01b03811660a081905260408051630a55006360e21b81529051632954018c91600480820192602092909190829003018186803b1580156200017d57600080fd5b505afa15801562000192573d6000803e3d6000fd5b505050506040513d601f19601f82011682018060405250810190620001b8919062000278565b6001600160a01b031660c05250620002f79050565b6040516321f8a72160e01b81526a3937b632a6b0b730b3b2b960a91b60048201526000906001600160a01b038316906321f8a7219060240160206040518083038186803b1580156200021e57600080fd5b505afa15801562000233573d6000803e3d6000fd5b505050506040513d601f19601f8201168201806040525081019062000259919062000278565b92915050565b6001600160a01b03811681146200027557600080fd5b50565b6000602082840312156200028b57600080fd5b815162000298816200025f565b9392505050565b600060208083528351808285015260005b81811015620002ce57858101830151858201604001528201620002b0565b81811115620002e1576000604083870101525b50601f01601f1916929092016040019392505050565b60805160a05160c0516150f66200035f6000396000818161052101528181610e8e01528181611c380152818161218a01528181612fd301528181613707015281816137b30152818161385401526138f301526000610b2f01526000613a2001526150f66000f3fe6080604052600436106103c65760003560e01c80637cbc2373116101f2578063b6b55f251161010d578063e2bbb158116100a0578063f07079031161006f578063f070790314610aa7578063f1b60c9814610ac7578063f76c339914610ae7578063f77c479114610b1d57600080fd5b8063e2bbb15814610a29578063e3976edf14610a3c578063ee78877714610a72578063efe9ee6b14610a9257600080fd5b8063d14397d7116100dc578063d14397d7146109b3578063d8178a0e146109d3578063db006a75146109f3578063dbd5edc714610a1357600080fd5b8063b6b55f2514610956578063b891126714610969578063c70920bc14610989578063ca917a9f1461099e57600080fd5b80639ba1c15611610185578063ac34993011610154578063ac349930146108da578063aff1b7e4146108ef578063b187bd261461091c578063b3af73941461093657600080fd5b80639ba1c1561461087b5780639ee933b514610890578063a08bd3ec146108b0578063ac23e496146108c557600080fd5b8063855d7ecf116101c1578063855d7ecf1461081d5780638d928af81461083d5780638f7265b0146108525780639816f4731461086757600080fd5b80637cbc2373146107b35780638214f5a4146107d35780638456cb59146107f1578063853828b61461080657600080fd5b80633ad193be116102e25780635ebaf1db11610275578063671528d411610244578063671528d414610754578063697b9aab1461076b5780637969ee28146107805780637b95b5371461079357600080fd5b80635ebaf1db146106ea5780635f7ad0541461070a5780635fcbd2851461071f57806366f07dd21461073f57600080fd5b80633ff5244a116102b15780633ff5244a146106825780634cf5fbf5146106a25780634f3bddeb146106b5578063580c7102146106d557600080fd5b80633ad193be146106235780633ba0b9a9146106385780633d59f0c31461064d5780633f4ba83a1461066d57600080fd5b806327a5e8501161035a5780632f4f21e2116103295780632f4f21e21461055857806333aed8891461056b578063346a4a511461058057806337829f49146105ad57600080fd5b806327a5e850146104e557806328f6e2e3146104fa5780632954018c1461050f5780632d229bf21461054357600080fd5b8063096ddcba11610396578063096ddcba1461046057806315dbfe6214610475578063171e5e88146104b05780631f6663ab146104d057600080fd5b8062435da5146103d257806306fdde0314610404578063089cf3c21461042657806308e9940a1461044b57600080fd5b366103cd57005b600080fd5b3480156103de57600080fd5b506103e7610b51565b6040516001600160a01b0390911681526020015b60405180910390f35b34801561041057600080fd5b50610419610b60565b6040516103fb9190614c34565b34801561043257600080fd5b5061043b610bee565b60405190151581526020016103fb565b34801561045757600080fd5b5061043b610cec565b34801561046c57600080fd5b506103e7610de1565b34801561048157600080fd5b506104a2610490366004614c67565b60016020526000908152604090205481565b6040519081526020016103fb565b3480156104bc57600080fd5b5061043b6104cb366004614c67565b610ef3565b3480156104dc57600080fd5b5061043b6110b6565b3480156104f157600080fd5b506104a26111f4565b34801561050657600080fd5b506104a2611235565b34801561051b57600080fd5b506103e77f000000000000000000000000000000000000000000000000000000000000000081565b34801561054f57600080fd5b506104a2611276565b6104a2610566366004614ca3565b6112b2565b34801561057757600080fd5b5061043b6112c9565b34801561058c57600080fd5b506104a261059b366004614c67565b60046020526000908152604090205481565b3480156105b957600080fd5b506105f96105c8366004614ccf565b6006602052600090815260409020546001600160401b0380821691600160401b8104821691600160801b9091041683565b604080516001600160401b03948516815292841660208401529216918101919091526060016103fb565b34801561062f57600080fd5b506104a26113b3565b34801561064457600080fd5b506104a26113dc565b34801561065957600080fd5b5061043b610668366004614ccf565b6114a4565b34801561067957600080fd5b5061043b611598565b34801561068e57600080fd5b5061043b61069d366004614c67565b6115fd565b6104a26106b0366004614cec565b611704565b3480156106c157600080fd5b5061043b6106d0366004614d37565b611a7b565b3480156106e157600080fd5b506104a2611a90565b3480156106f657600080fd5b506008546103e7906001600160a01b031681565b34801561071657600080fd5b506104a2611aaf565b34801561072b57600080fd5b506009546103e7906001600160a01b031681565b34801561074b57600080fd5b5061043b611ac8565b34801561076057600080fd5b50600754151561043b565b34801561077757600080fd5b506104a2611d72565b6104a261078e366004614e01565b611db3565b34801561079f57600080fd5b506104a26107ae366004614e01565b611e4e565b3480156107bf57600080fd5b506104a26107ce366004614e01565b61205a565b3480156107df57600080fd5b506009546001600160a01b03166103e7565b3480156107fd57600080fd5b5061043b6123d8565b34801561081257600080fd5b5061081b612441565b005b34801561082957600080fd5b5061043b610838366004614c67565b612574565b34801561084957600080fd5b506103e761267b565b34801561085e57600080fd5b5061081b6126ba565b34801561087357600080fd5b5060006103e7565b34801561088757600080fd5b506104a261279b565b34801561089c57600080fd5b5061043b6108ab366004614ccf565b6127cd565b3480156108bc57600080fd5b5061043b612a36565b3480156108d157600080fd5b506104a2612b2b565b3480156108e657600080fd5b5061043b612b58565b3480156108fb57600080fd5b506104a261090a366004614c67565b60036020526000908152604090205481565b34801561092857600080fd5b5060055461043b9060ff1681565b34801561094257600080fd5b5061043b610951366004614c67565b612c48565b6104a2610964366004614c67565b612da6565b34801561097557600080fd5b506104a2610984366004614ca3565b612db4565b34801561099557600080fd5b506104a26130c2565b3480156109aa57600080fd5b506104a2613176565b3480156109bf57600080fd5b506104a26109ce366004614e23565b6131b7565b3480156109df57600080fd5b506104a26109ee366004614ca3565b613213565b3480156109ff57600080fd5b506104a2610a0e366004614c67565b613332565b348015610a1f57600080fd5b506104a260075481565b6104a2610a37366004614e01565b61333f565b348015610a4857600080fd5b506103e7610a57366004614c67565b6000602081905290815260409020546001600160a01b031681565b348015610a7e57600080fd5b5061043b610a8d366004614c67565b61334c565b348015610a9e57600080fd5b5061043b61343d565b348015610ab357600080fd5b5061043b610ac2366004614c67565b613532565b348015610ad357600080fd5b5061081b610ae2366004614e4f565b613677565b348015610af357600080fd5b506103e7610b02366004614c67565b6002602052600090815260409020546001600160a01b031681565b348015610b2957600080fd5b506103e77f000000000000000000000000000000000000000000000000000000000000000081565b6000610b5b613a1e565b905090565b600a8054610b6d90614e90565b80601f0160208091040260200160405190810160405280929190818152602001828054610b9990614e90565b8015610be65780601f10610bbb57610100808354040283529160200191610be6565b820191906000526020600020905b815481529060010190602001808311610bc957829003601f168201915b505050505081565b6000610bf8613a1e565b604051632474521560e21b815269676f7665726e616e636560b01b60048201523360248201526001600160a01b0391909116906391d148549060440160206040518083038186803b158015610c4c57600080fd5b505afa158015610c60573d6000803e3d6000fd5b505050506040513d601f19601f82011682018060405250810190610c849190614ecb565b60405180604001604052806013815260200160008051602061501383398151915281525090610ccf5760405162461bcd60e51b8152600401610cc69190614c34565b60405180910390fd5b50610b5b6f2932b9b2b93b32a232bb34b0ba34b7b760811b613a42565b6000610cf6613a1e565b604051632474521560e21b815269676f7665726e616e636560b01b60048201523360248201526001600160a01b0391909116906391d148549060440160206040518083038186803b158015610d4a57600080fd5b505afa158015610d5e573d6000803e3d6000fd5b505050506040513d601f19601f82011682018060405250810190610d829190614ecb565b60405180604001604052806013815260200160008051602061501383398151915281525090610dc45760405162461bcd60e51b8152600401610cc69190614c34565b50610b5b6f4d61785769746864726177616c46656560801b613a42565b600080610dec61267b565b90506001600160a01b03811615610e5157806001600160a01b031663853828b66040518163ffffffff1660e01b8152600401600060405180830381600087803b158015610e3857600080fd5b505af1158015610e4c573d6000803e3d6000fd5b505050505b6000610e646415985d5b1d60da1b613ae9565b604051630368a3a560e31b81526001600160a01b03848116600483015280831660248301529192507f000000000000000000000000000000000000000000000000000000000000000090911690631b451d2890604401600060405180830381600087803b158015610ed457600080fd5b505af1158015610ee8573d6000803e3d6000fd5b509295945050505050565b6000610efd613a1e565b604051632474521560e21b815269676f7665726e616e636560b01b60048201523360248201526001600160a01b0391909116906391d148549060440160206040518083038186803b158015610f5157600080fd5b505afa158015610f65573d6000803e3d6000fd5b505050506040513d601f19601f82011682018060405250810190610f899190614ecb565b60405180604001604052806013815260200160008051602061501383398151915281525090610fcb5760405162461bcd60e51b8152600401610cc69190614c34565b5060075415156040518060400160405280602081526020017f74686520706f6f6c206973206e6f742063757272656e746c7920636170706564815250906110255760405162461bcd60e51b8152600401610cc69190614c34565b5081600754141560405180606001604052806029815260200161509860299139906110635760405162461bcd60e51b8152600401610cc69190614c34565b5060408051808201909152600e81526d1a5b9d985b1a5908185b5bdd5b9d60921b6020820152826110a75760405162461bcd60e51b8152600401610cc69190614c34565b5050600781905560015b919050565b60006110c0613a1e565b604051632474521560e21b815269676f7665726e616e636560b01b60048201523360248201526001600160a01b0391909116906391d148549060440160206040518083038186803b15801561111457600080fd5b505afa158015611128573d6000803e3d6000fd5b505050506040513d601f19601f8201168201806040525081019061114c9190614ecb565b6040518060400160405280601381526020016000805160206150138339815191528152509061118e5760405162461bcd60e51b8152600401610cc69190614c34565b5060075415156040518060400160405280602081526020017f74686520706f6f6c206973206e6f742063757272656e746c7920636170706564815250906111e85760405162461bcd60e51b8152600401610cc69190614c34565b50506000600755600190565b6f4d696e5769746864726177616c46656560801b60005260036020527fc0f899a0b165dc0c43f66d0d223e281b3f278eca17e510016df881545bb9d8625490565b6f5265717569726564526573657276657360801b60005260036020527fba135a2864686570c0839a01a6e2733db5bf6cecadc565d84319df13ef016a155490565b600080516020614ff383398151915260005260036020527f604a2499576f2f340436d07e04cc082bc0d8e83977929464e7f0af31c1c137ff5490565b60006112c083836000611704565b90505b92915050565b60006112d3613a1e565b604051632474521560e21b815269676f7665726e616e636560b01b60048201523360248201526001600160a01b0391909116906391d148549060440160206040518083038186803b15801561132757600080fd5b505afa15801561133b573d6000803e3d6000fd5b505050506040513d601f19601f8201168201806040525081019061135f9190614ecb565b604051806040016040528060138152602001600080516020615013833981519152815250906113a15760405162461bcd60e51b8152600401610cc69190614c34565b50610b5b6415985d5b1d60da1b613b1d565b6000806113d26f5265717569726564526573657276657360801b613bce565b90506110b1613bf2565b6000806113e76130c2565b90506000600960009054906101000a90046001600160a01b03166001600160a01b03166318160ddd6040518163ffffffff1660e01b815260040160206040518083038186803b15801561143957600080fd5b505afa15801561144d573d6000803e3d6000fd5b505050506040513d601f19601f820116820180604052508101906114719190614eed565b905080158061147e575081155b1561149357670de0b6b3a76400009250505090565b61149d8282613bfc565b9250505090565b60006114ae613a1e565b604051632474521560e21b815269676f7665726e616e636560b01b60048201523360248201526001600160a01b0391909116906391d148549060440160206040518083038186803b15801561150257600080fd5b505afa158015611516573d6000803e3d6000fd5b505050506040513d601f19601f8201168201806040525081019061153a9190614ecb565b6040518060400160405280601381526020016000805160206150138339815191528152509061157c5760405162461bcd60e51b8152600401610cc69190614c34565b5061158f6415985d5b1d60da1b83613c1b565b50600192915050565b60006115a333613c2b565b6040518060400160405280601281526020017118dbdb9d1c9858dd081a5cc81c185d5cd95960721b815250906115ec5760405162461bcd60e51b8152600401610cc69190614c34565b50506005805460ff19169055600190565b6000611607613a1e565b604051632474521560e21b815269676f7665726e616e636560b01b60048201523360248201526001600160a01b0391909116906391d148549060440160206040518083038186803b15801561165b57600080fd5b505afa15801561166f573d6000803e3d6000fd5b505050506040513d601f19601f820116820180604052508101906116939190614ecb565b604051806040016040528060138152602001600080516020615013833981519152815250906116d55760405162461bcd60e51b8152600401610cc69190614c34565b506116e76116e16111f4565b83613cc3565b6112c36f4d61785769746864726177616c46656560801b83613d57565b60055460408051808201909152601281527118dbdb9d1c9858dd081a5cc81c185d5cd95960721b602082015260009160ff16156117545760405162461bcd60e51b8152600401610cc69190614c34565b50600061175f6113dc565b905061176c600754151590565b156118f5576009546040516370a0823160e01b81526001600160a01b03878116600483015260009216906370a082319060240160206040518083038186803b1580156117b757600080fd5b505afa1580156117cb573d6000803e3d6000fd5b505050506040513d601f19601f820116820180604052508101906117ef9190614eed565b60085460405163a853ba2f60e01b81526001600160a01b0389811660048301529293506000929091169063a853ba2f9060240160206040518083038186803b15801561183a57600080fd5b505afa15801561184e573d6000803e3d6000fd5b505050506040513d601f19601f820116820180604052508101906118729190614eed565b9050600061188a846118848486614f1c565b90613d67565b60075490915061189a8883614f1c565b11156040518060400160405280601b81526020017f6465706f7369742065786365656473206465706f736974206361700000000000815250906118f05760405162461bcd60e51b8152600401610cc69190614c34565b505050505b6118ff3385613d7c565b600061190b8583613bfc565b9050838110156040518060400160405280600e81526020016d1a5b9d985b1a5908185b5bdd5b9d60921b815250906119565760405162461bcd60e51b8152600401610cc69190614c34565b506009546040516340c10f1960e01b81526001600160a01b03888116600483015260248201849052909116906340c10f1990604401600060405180830381600087803b1580156119a557600080fd5b505af11580156119b9573d6000803e3d6000fd5b505050506119c5613bf2565b336001600160a01b03871614806119e45750306001600160a01b038716145b15611a2957604080518681526020810183905233917f90890809c654f11d6e72a28fa60149770a0d11ec6c92319d6ceb2bb0a4ea1a15910160405180910390a2611a70565b60408051868152602081018390526001600160a01b0388169133917f512d56e1f791d3bc07b8085104584ec42faefbefed34bbc0b881d8da16a8ebe1910160405180910390a35b9150505b9392505050565b6000611a88848484613e14565b949350505050565b6000806113d26f2932b9b2b93b32a232bb34b0ba34b7b760811b613bce565b6000610b5b600080516020614ff3833981519152613bce565b600069676f7665726e616e636560b01b6b706f6f6c5f666163746f727960a01b611af0613a1e565b604051636bab521160e11b815260048101849052602481018390523360448201526001600160a01b03919091169063d756a4229060640160206040518083038186803b158015611b3f57600080fd5b505afa158015611b53573d6000803e3d6000fd5b505050506040513d601f19601f82011682018060405250810190611b779190614ecb565b60405180604001604052806013815260200160008051602061501383398151915281525090611bb95760405162461bcd60e51b8152600401610cc69190614c34565b506008546040805180820190915260168152751059191c995cdcc81a5cc8185b1c9958591e481cd95d60521b6020820152906001600160a01b031615611c125760405162461bcd60e51b8152600401610cc69190614c34565b5060095460405163059eadeb60e41b81526001600160a01b0391821660048201526000917f000000000000000000000000000000000000000000000000000000000000000016906359eadeb09060240160206040518083038186803b158015611c7a57600080fd5b505afa158015611c8e573d6000803e3d6000fd5b505050506040513d601f19601f82011682018060405250810190611cb29190614f34565b60408051808201909152601881527f7a65726f2061646472657373206e6f7420616c6c6f776564000000000000000060208201529091506001600160a01b038216611d105760405162461bcd60e51b8152600401610cc69190614c34565b50600880546001600160a01b0319166001600160a01b038316179055611d34613f9a565b6040516001600160a01b038216907f11a945e6ecbc8413276d84b4f853634a407ccf5a1a60b1fa649aea71ea386ff290600090a26001935050505090565b6f4d61785769746864726177616c46656560801b60005260036020527fa17a95707d09266a39dd08e8e69410950f03cfcf325d18179561eb773bcea2095490565b600080611dc1308585611704565b6008546040516305dc812160e31b8152336004820152602481018390529192506001600160a01b031690632ee4090890604401602060405180830381600087803b158015611e0e57600080fd5b505af1158015611e22573d6000803e3d6000fd5b505050506040513d601f19601f82011682018060405250810190611e469190614ecb565b509392505050565b6009546040516370a0823160e01b815233600482015260009182916001600160a01b03909116906370a082319060240160206040518083038186803b158015611e9657600080fd5b505afa158015611eaa573d6000803e3d6000fd5b505050506040513d601f19601f82011682018060405250810190611ece9190614eed565b6008546040516370a0823160e01b815233600482015291925085916001600160a01b03909116906370a082319060240160206040518083038186803b158015611f1657600080fd5b505afa158015611f2a573d6000803e3d6000fd5b505050506040513d601f19601f82011682018060405250810190611f4e9190614eed565b611f589083614f1c565b101560405180604001604052806014815260200173696e73756666696369656e742062616c616e636560601b81525090611fa55760405162461bcd60e51b8152600401610cc69190614c34565b5083811015612054576008546001600160a01b0316634974c6793380611fcb8589614f51565b6040516001600160e01b031960e086901b1681526001600160a01b0393841660048201529290911660248301526044820152606401602060405180830381600087803b15801561201a57600080fd5b505af115801561202e573d6000803e3d6000fd5b505050506040513d601f19601f820116820180604052508101906120529190614ecb565b505b611a8884845b60008083116040518060400160405280600e81526020016d1a5b9d985b1a5908185b5bdd5b9d60921b815250906120a45760405162461bcd60e51b8152600401610cc69190614c34565b506009546040516370a0823160e01b81523360048201526001600160a01b0390911690849082906370a082319060240160206040518083038186803b1580156120ec57600080fd5b505afa158015612100573d6000803e3d6000fd5b505050506040513d601f19601f820116820180604052508101906121249190614eed565b101560405180604001604052806014815260200173696e73756666696369656e742062616c616e636560601b815250906121715760405162461bcd60e51b8152600401610cc69190614c34565b5060405163622e68cb60e01b81523360048201526000907f00000000000000000000000000000000000000000000000000000000000000006001600160a01b03169063622e68cb9060240160206040518083038186803b1580156121d457600080fd5b505afa1580156121e8573d6000803e3d6000fd5b505050506040513d601f19601f8201168201806040525081019061220c9190614ecb565b61221f5761221a3386613213565b612222565b60005b905060006122308287614f51565b9050826001600160a01b03166318160ddd6040518163ffffffff1660e01b815260040160206040518083038186803b15801561226b57600080fd5b505afa15801561227f573d6000803e3d6000fd5b505050506040513d601f19601f820116820180604052508101906122a39190614eed565b8614156122ad5750845b60006122c16122ba6113dc565b8390613d67565b9050858110156040518060600160405280602d8152602001614fc6602d9139906122fe5760405162461bcd60e51b8152600401610cc69190614c34565b5061230881613fe4565b604051632770a7eb60e21b8152336004820152602481018890526001600160a01b03851690639dc29fac90604401602060405180830381600087803b15801561235057600080fd5b505af1158015612364573d6000803e3d6000fd5b505050506040513d601f19601f820116820180604052508101906123889190614eed565b506123933382614222565b604080518281526020810189905233917fe5b754fb1abb7f01b499791d0b820ae3b6af3424ac1c59768edb53f4ec31a929910160405180910390a29695505050505050565b60006123e333613c2b565b6040518060400160405280601281526020017118dbdb9d1c9858dd081a5cc81c185d5cd95960721b8152509061242c5760405162461bcd60e51b8152600401610cc69190614c34565b50506005805460ff1916600190811790915590565b612449613a1e565b604051632474521560e21b815269676f7665726e616e636560b01b60048201523360248201526001600160a01b0391909116906391d148549060440160206040518083038186803b15801561249d57600080fd5b505afa1580156124b1573d6000803e3d6000fd5b505050506040513d601f19601f820116820180604052508101906124d59190614ecb565b604051806040016040528060138152602001600080516020615013833981519152815250906125175760405162461bcd60e51b8152600401610cc69190614c34565b5061252061267b565b6001600160a01b031663853828b66040518163ffffffff1660e01b8152600401600060405180830381600087803b15801561255a57600080fd5b505af115801561256e573d6000803e3d6000fd5b50505050565b600061257e613a1e565b604051632474521560e21b815269676f7665726e616e636560b01b60048201523360248201526001600160a01b0391909116906391d148549060440160206040518083038186803b1580156125d257600080fd5b505afa1580156125e6573d6000803e3d6000fd5b505050506040513d601f19601f8201168201806040525081019061260a9190614ecb565b6040518060400160405280601381526020016000805160206150138339815191528152509061264c5760405162461bcd60e51b8152600401610cc69190614c34565b5061265e82612659611d72565b613cc3565b6112c36f4d696e5769746864726177616c46656560801b83613d57565b6415985d5b1d60da1b60005260026020527fc867d482ba9cd7435d7b7450243553d6e2a33c30f68e5a536cba3964e00c8aad546001600160a01b031690565b6126c2613a1e565b604051632474521560e21b815269676f7665726e616e636560b01b60048201523360248201526001600160a01b0391909116906391d148549060440160206040518083038186803b15801561271657600080fd5b505afa15801561272a573d6000803e3d6000fd5b505050506040513d601f19601f8201168201806040525081019061274e9190614ecb565b604051806040016040528060138152602001600080516020615013833981519152815250906127905760405162461bcd60e51b8152600401610cc69190614c34565b50612799613bf2565b565b6000806127ba6f4d61785769746864726177616c46656560801b613bce565b90506110b16127c76111f4565b82613cc3565b600069676f7665726e616e636560b01b6b706f6f6c5f666163746f727960a01b6127f5613a1e565b604051636bab521160e11b815260048101849052602481018390523360448201526001600160a01b03919091169063d756a4229060640160206040518083038186803b15801561284457600080fd5b505afa158015612858573d6000803e3d6000fd5b505050506040513d601f19601f8201168201806040525081019061287c9190614ecb565b604051806040016040528060138152602001600080516020615013833981519152815250906128be5760405162461bcd60e51b8152600401610cc69190614c34565b506009546040805180820190915260168152751059191c995cdcc81a5cc8185b1c9958591e481cd95d60521b6020820152906001600160a01b0316156129175760405162461bcd60e51b8152600401610cc69190614c34565b50306001600160a01b0316846001600160a01b031663075461726040518163ffffffff1660e01b815260040160206040518083038186803b15801561295b57600080fd5b505afa15801561296f573d6000803e3d6000fd5b505050506040513d601f19601f820116820180604052508101906129939190614f34565b6001600160a01b03161460405180608001604052806044815260200161505460449139906129d45760405162461bcd60e51b8152600401610cc69190614c34565b50600980546001600160a01b0319166001600160a01b0386161790556129f8613f9a565b6040516001600160a01b038516907f1c1820b4910e7e24202fa882184fde52e795a3113b621ded50b099b270159acc90600090a25060019392505050565b6000612a40613a1e565b604051632474521560e21b815269676f7665726e616e636560b01b60048201523360248201526001600160a01b0391909116906391d148549060440160206040518083038186803b158015612a9457600080fd5b505afa158015612aa8573d6000803e3d6000fd5b505050506040513d601f19601f82011682018060405250810190612acc9190614ecb565b60405180604001604052806013815260200160008051602061501383398151915281525090612b0e5760405162461bcd60e51b8152600401610cc69190614c34565b50610b5b6f5265717569726564526573657276657360801b613a42565b600080612b4a6f4d696e5769746864726177616c46656560801b613bce565b90506110b181612659611d72565b6000612b62613a1e565b604051632474521560e21b815269676f7665726e616e636560b01b60048201523360248201526001600160a01b0391909116906391d148549060440160206040518083038186803b158015612bb657600080fd5b505afa158015612bca573d6000803e3d6000fd5b505050506040513d601f19601f82011682018060405250810190612bee9190614ecb565b60405180604001604052806013815260200160008051602061501383398151915281525090612c305760405162461bcd60e51b8152600401610cc69190614c34565b50610b5b600080516020614ff3833981519152613a42565b6000612c52613a1e565b604051632474521560e21b815269676f7665726e616e636560b01b60048201523360248201526001600160a01b0391909116906391d148549060440160206040518083038186803b158015612ca657600080fd5b505afa158015612cba573d6000803e3d6000fd5b505050506040513d601f19601f82011682018060405250810190612cde9190614ecb565b60405180604001604052806013815260200160008051602061501383398151915281525090612d205760405162461bcd60e51b8152600401610cc69190614c34565b506064612d36670de0b6b3a76400006032614f68565b612d409190614f87565b8211156040518060400160405280600e81526020016d1a5b9d985b1a5908185b5bdd5b9d60921b81525090612d885760405162461bcd60e51b8152600401610cc69190614c34565b506112c36f2932b9b2b93b32a232bb34b0ba34b7b760811b83613d57565b60006112c333836000611704565b60008082116040518060400160405280600e81526020016d1a5b9d985b1a5908185b5bdd5b9d60921b81525090612dfe5760405162461bcd60e51b8152600401610cc69190614c34565b506009546040516370a0823160e01b81526001600160a01b0385811660048301529091169060009082906370a082319060240160206040518083038186803b158015612e4957600080fd5b505afa158015612e5d573d6000803e3d6000fd5b505050506040513d601f19601f82011682018060405250810190612e819190614eed565b1160405180604001604052806014815260200173696e73756666696369656e742062616c616e636560601b81525090612ecd5760405162461bcd60e51b8152600401610cc69190614c34565b506000612ed86113dc565b90506000612ee68583613bfc565b9050826001600160a01b03166318160ddd6040518163ffffffff1660e01b815260040160206040518083038186803b158015612f2157600080fd5b505afa158015612f35573d6000803e3d6000fd5b505050506040513d601f19601f82011682018060405250810190612f599190614eed565b811415612f6a5792506112c3915050565b6001600160a01b038681166000818152600660209081526040808320815160608101835290546001600160401b038082168352600160401b8204811694830194909452600160801b9004909216828201525163622e68cb60e01b815260048101939093529290917f00000000000000000000000000000000000000000000000000000000000000009091169063622e68cb9060240160206040518083038186803b15801561301757600080fd5b505afa15801561302b573d6000803e3d6000fd5b505050506040513d601f19601f8201168201806040525081019061304f9190614ecb565b6130885761308582600001516001600160401b031683604001516001600160401b031684602001516001600160401b03166131b7565b90505b60006130a661309f83670de0b6b3a7640000614f51565b8690613d67565b905060006130b48983614258565b9a9950505050505050505050565b6000806130cd61267b565b905060006130d9614284565b90506001600160a01b0382166130ef5792915050565b6000826001600160a01b031663b40494e56040518163ffffffff1660e01b815260040160206040518083038186803b15801561312a57600080fd5b505afa15801561313e573d6000803e3d6000fd5b505050506040513d601f19601f820116820180604052508101906131629190614eed565b905061316e8282614f1c565b935050505090565b6f2932b9b2b93b32a232bb34b0ba34b7b760811b60005260036020527ff61ad85d902c01a6c2756008dbc41a8113da437e01ee2bc9df8881fed1c48c2e5490565b6000806131c48442614f51565b905060006131d06111f4565b90508582106131e2579150611a749050565b60006131ee8388613bfc565b90506131fe816118848488614f51565b6132089086614f51565b979650505050505050565b6001600160a01b038281166000818152600660209081526040808320815160608101835290546001600160401b038082168352600160401b8204811694830194909452600160801b90049092168282015260095490516370a0823160e01b81526004810194909452919390929116906370a082319060240160206040518083038186803b1580156132a357600080fd5b505afa1580156132b7573d6000803e3d6000fd5b505050506040513d601f19601f820116820180604052508101906132db9190614eed565b6132e95760009150506112c3565b600061331d82600001516001600160401b031683604001516001600160401b031684602001516001600160401b03166131b7565b90506133298482613d67565b95945050505050565b60006112c382600061205a565b60006112c0338484611704565b6000613356613a1e565b604051632474521560e21b815269676f7665726e616e636560b01b60048201523360248201526001600160a01b0391909116906391d148549060440160206040518083038186803b1580156133aa57600080fd5b505afa1580156133be573d6000803e3d6000fd5b505050506040513d601f19601f820116820180604052508101906133e29190614ecb565b604051806040016040528060138152602001600080516020615013833981519152815250906134245760405162461bcd60e51b8152600401610cc69190614c34565b506112c3600080516020614ff383398151915283613d57565b6000613447613a1e565b604051632474521560e21b815269676f7665726e616e636560b01b60048201523360248201526001600160a01b0391909116906391d148549060440160206040518083038186803b15801561349b57600080fd5b505afa1580156134af573d6000803e3d6000fd5b505050506040513d601f19601f820116820180604052508101906134d39190614ecb565b604051806040016040528060138152602001600080516020615013833981519152815250906135155760405162461bcd60e51b8152600401610cc69190614c34565b50610b5b6f4d696e5769746864726177616c46656560801b613a42565b600061353c613a1e565b604051632474521560e21b815269676f7665726e616e636560b01b60048201523360248201526001600160a01b0391909116906391d148549060440160206040518083038186803b15801561359057600080fd5b505afa1580156135a4573d6000803e3d6000fd5b505050506040513d601f19601f820116820180604052508101906135c89190614ecb565b6040518060400160405280601381526020016000805160206150138339815191528152509061360a5760405162461bcd60e51b8152600401610cc69190614c34565b5060408051808201909152600e81526d1a5b9d985b1a5908185b5bdd5b9d60921b6020820152670de0b6b3a76400008311156136595760405162461bcd60e51b8152600401610cc69190614c34565b506112c36f5265717569726564526573657276657360801b83613d57565b6009546001600160a01b031633148061369a57506008546001600160a01b031633145b604051806040016040528060138152602001600080516020615013833981519152815250906136dc5760405162461bcd60e51b8152600401610cc69190614c34565b50600954604051635b80b5fb60e11b81526001600160a01b03848116600483015291821660248201527f00000000000000000000000000000000000000000000000000000000000000009091169063b7016bf69060440160206040518083038186803b15801561374b57600080fd5b505afa15801561375f573d6000803e3d6000fd5b505050506040513d601f19601f820116820180604052508101906137839190614ecb565b8061382f5750600954604051635b80b5fb60e11b81526001600160a01b03858116600483015291821660248201527f00000000000000000000000000000000000000000000000000000000000000009091169063b7016bf69060440160206040518083038186803b1580156137f757600080fd5b505afa15801561380b573d6000803e3d6000fd5b505050506040513d601f19601f8201168201806040525081019061382f9190614ecb565b806138ce575060405163622e68cb60e01b81526001600160a01b0383811660048301527f0000000000000000000000000000000000000000000000000000000000000000169063622e68cb9060240160206040518083038186803b15801561389657600080fd5b505afa1580156138aa573d6000803e3d6000fd5b505050506040513d601f19601f820116820180604052508101906138ce9190614ecb565b8061396d575060405163622e68cb60e01b81526001600160a01b0384811660048301527f0000000000000000000000000000000000000000000000000000000000000000169063622e68cb9060240160206040518083038186803b15801561393557600080fd5b505afa158015613949573d6000803e3d6000fd5b505050506040513d601f19601f8201168201806040525081019061396d9190614ecb565b1561397757505050565b6001600160a01b0382161561399157613991828483614290565b505050565b6040516321f8a72160e01b81526a3937b632a6b0b730b3b2b960a91b60048201526000906001600160a01b038316906321f8a7219060240160206040518083038186803b1580156139e657600080fd5b505afa1580156139fa573d6000803e3d6000fd5b505050506040513d601f19601f820116820180604052508101906112c39190614f34565b7f000000000000000000000000000000000000000000000000000000000000000090565b600081815260046020908152604080832054815180830190925260128252710646561646c696e65206d75737420626520360741b9282019290925290613a9b5760405162461bcd60e51b8152600401610cc69190614c34565b50600082815260046020908152604080832083905560019091528082208290555183917f90fb84ad67dd037c388289337bb80b61b8605d38ba9a875dc38b5600909d172f91a2506001919050565b6000613af482614501565b6000828152602081905260409020546001600160a01b0316613b1683826145aa565b5092915050565b600081815260046020908152604080832054815180830190925260128252710646561646c696e65206d75737420626520360741b9282019290925290613b765760405162461bcd60e51b8152600401610cc69190614c34565b5060008281526004602090815260408083208390559082905280822080546001600160a01b03191690555183917f90fb84ad67dd037c388289337bb80b61b8605d38ba9a875dc38b5600909d172f91a2506001919050565b6000613bd982614501565b600082815260016020526040902054613b168382614635565b6127996000613fe4565b600081613c11670de0b6b3a764000085614f68565b6112c09190614f87565b60006112c083836203f480614696565b6000613c35613a1e565b604051632474521560e21b815269676f7665726e616e636560b01b60048201526001600160a01b03848116602483015291909116906391d148549060440160206040518083038186803b158015613c8b57600080fd5b505afa158015613c9f573d6000803e3d6000fd5b505050506040513d601f19601f820116820180604052508101906112c39190614ecb565b60408051808201909152600e81526d1a5b9d985b1a5908185b5bdd5b9d60921b602082015282821015613d095760405162461bcd60e51b8152600401610cc69190614c34565b5060408051808201909152600e81526d1a5b9d985b1a5908185b5bdd5b9d60921b602082015266b1a2bc2ec500008211156139915760405162461bcd60e51b8152600401610cc69190614c34565b60006112c083836203f480614711565b6000670de0b6b3a7640000613c118385614f68565b60408051808201909152601281527134b73b30b634b21036b9b39739b2b73232b960711b6020820152336001600160a01b03841614613dce5760405162461bcd60e51b8152600401610cc69190614c34565b5060408051808201909152600e81526d1a5b9d985b1a5908185b5bdd5b9d60921b60208201523482146139915760405162461bcd60e51b8152600401610cc69190614c34565b60055460009062010000900460ff16613e3857600554610100900460ff1615613e3c565b303b155b613e9f5760405162461bcd60e51b815260206004820152602e60248201527f496e697469616c697a61626c653a20636f6e747261637420697320616c72656160448201526d191e481a5b9a5d1a585b1a5e995960921b6064820152608401610cc6565b60055462010000900460ff16158015613ec4576005805462ffff001916620101001790555b8451613ed790600a906020880190614b6f565b506007849055613ef8600080516020614ff383398151915262093a80614635565b50613f1d6f4d61785769746864726177616c46656560801b666a94d74f430000614635565b50613f436f5265717569726564526573657276657360801b670de0b6b3a7640000614635565b50613f686f2932b9b2b93b32a232bb34b0ba34b7b760811b6611c37937e08000614635565b50613f7b6415985d5b1d60da1b846145aa565b50600191508015611e46576005805462ff000019169055509392505050565b6008546009546001600160a01b039182169116811580613fc157506001600160a01b038116155b15613fca575050565b613fe06001600160a01b03821683600019614767565b5050565b6000613fee61267b565b90506001600160a01b038116614002575050565b6008546040805163ba4ac71160e01b815290516000926001600160a01b03169163ba4ac711916004808301926020929190829003018186803b15801561404757600080fd5b505afa15801561405b573d6000803e3d6000fd5b505050506040513d601f19601f8201168201806040525081019061407f9190614eed565b9050600061408e6122ba6113dc565b9050600061409c60016148ad565b905060006140b26140ab613176565b8490613d67565b905060006140c86140c1611235565b8590613d67565b9050828711806140eb575080826140df8986614f51565b6140e99190614f1c565b105b1561418b576000836140fd8984614f1c565b6141079190614f51565b604051632e1a7d4d60e01b8152600481018290529091506001600160a01b03881690632e1a7d4d90602401602060405180830381600087803b15801561414c57600080fd5b505af1158015614160573d6000803e3d6000fd5b505050506040513d601f19601f820116820180604052508101906141849190614ecb565b5050614219565b60006141978885614f51565b90506141a38383614f1c565b8111156142175760006141b68383614f51565b90506141c28882614222565b876001600160a01b031663d0e30db06040518163ffffffff1660e01b8152600401600060405180830381600087803b1580156141fd57600080fd5b505af1158015614211573d6000803e3d6000fd5b50505050505b505b50505050505050565b6040516001600160a01b0383169082156108fc029083906000818181858888f19350505050158015613991573d6000803e3d6000fd5b600081600181614270670de0b6b3a764000087614f68565b61427a9190614f1c565b613c119190614f51565b6000610b5b60006148ad565b6001600160a01b03838116600081815260066020526040808220600854915163a853ba2f60e01b8152600481019490945293919291169063a853ba2f9060240160206040518083038186803b1580156142e857600080fd5b505afa1580156142fc573d6000803e3d6000fd5b505050506040513d601f19601f820116820180604052508101906143209190614eed565b6009546040516370a0823160e01b81526001600160a01b038881166004830152909116906370a082319060240160206040518083038186803b15801561436557600080fd5b505afa158015614379573d6000803e3d6000fd5b505050506040513d601f19601f8201168201806040525081019061439d9190614eed565b6143a79190614f1c565b82549091506000906143d7906001600160401b0380821691600160801b8104821691600160401b909104166131b7565b905060006143ef6143e88487614f1c565b8690613bfc565b9050600061440582670de0b6b3a7640000614f51565b905060006001600160a01b0388166144265761441f611d72565b905061446c565b6001600160a01b03881660009081526006602052604090208054614468906001600160401b0380821691600160801b8104821691600160401b909104166131b7565b9150505b60006144788483613d67565b6144828487613d67565b61448c9190614f1c565b87546fffffffffffffffff00000000000000001916600160401b6001600160401b0383160217885590506144be611276565b8754426001600160401b03908116600160801b02921677ffffffffffffffff0000000000000000ffffffffffffffff199091161717909655505050505050505050565b6000600460008381526020019081526020016000205490508042101560405180606001604052806021815260200161503360219139906145545760405162461bcd60e51b8152600401610cc69190614c34565b5060408051808201909152600d81526c0646561646c696e65206973203609c1b6020820152816145975760405162461bcd60e51b8152600401610cc69190614c34565b5050600090815260046020526040812055565b600082815260026020908152604080832080546001600160a01b03198082166001600160a01b038881169182179094558686528487208054909216909155600485528386208690558351929091168083529382015285917fc4a957706c639829ad54381b04930c464db6c7ffdc09d2b4b1acc9ee34fb926191015b60405180910390a2509092915050565b6000828152600360209081526040808320805490859055600183528184208490556004835281842084905581518181529283018590529185917fcc0bafe2accb565ea70674bf4b2555e49a47d410fb9932dfab3e5f41855d0a2f9101614625565b60006146a284836148bf565b6000848152602081815260409182902080546001600160a01b0319166001600160a01b038716908117909155825190815290810184905285917fd46e58ee9dc1ae703349f8c09c19f23213a531b4d57f00cfd4a5a6cb6519668d91015b60405180910390a25060019392505050565b600061471d84836148bf565b600084815260016020908152604091829020859055815185815290810184905285917f0e6790002e78fb96ff1fdfe3a3bb2a86489d3f3923372c1fe5b6b1fed071eed491016146ff565b8015806147f05750604051636eb1769f60e11b81523060048201526001600160a01b03838116602483015284169063dd62ed3e9060440160206040518083038186803b1580156147b657600080fd5b505afa1580156147ca573d6000803e3d6000fd5b505050506040513d601f19601f820116820180604052508101906147ee9190614eed565b155b61485b5760405162461bcd60e51b815260206004820152603660248201527f5361666545524332303a20617070726f76652066726f6d206e6f6e2d7a65726f60448201527520746f206e6f6e2d7a65726f20616c6c6f77616e636560501b6064820152608401610cc6565b604080516001600160a01b038416602482015260448082018490528251808303909101815260649091019091526020810180516001600160e01b031663095ea7b360e01b179052613991908490614999565b600047826112c3576112c03482614f51565b6004600083815260200190815260200160002054600014604051806040016040528060128152602001710646561646c696e65206d75737420626520360741b8152509061491f5760405162461bcd60e51b8152600401610cc69190614c34565b5060408051808201909152601881527f64656c6179206265206174206c6561737420332064617973000000000000000060208201526203f4808210156149785760405162461bcd60e51b8152600401610cc69190614c34565b506149838142614f1c565b6000928352600460205260409092209190915550565b60006149ee826040518060400160405280602081526020017f5361666545524332303a206c6f772d6c6576656c2063616c6c206661696c6564815250856001600160a01b0316614a6b9092919063ffffffff16565b8051909150156139915780806020019051810190614a0c9190614ecb565b6139915760405162461bcd60e51b815260206004820152602a60248201527f5361666545524332303a204552433230206f7065726174696f6e20646964206e6044820152691bdd081cdd58d8d9595960b21b6064820152608401610cc6565b6060611a888484600085856001600160a01b0385163b614acd5760405162461bcd60e51b815260206004820152601d60248201527f416464726573733a2063616c6c20746f206e6f6e2d636f6e74726163740000006044820152606401610cc6565b600080866001600160a01b03168587604051614ae99190614fa9565b60006040518083038185875af1925050503d8060008114614b26576040519150601f19603f3d011682016040523d82523d6000602084013e614b2b565b606091505b509150915061320882828660608315614b45575081611a74565b825115614b555782518084602001fd5b8160405162461bcd60e51b8152600401610cc69190614c34565b828054614b7b90614e90565b90600052602060002090601f016020900481019282614b9d5760008555614be3565b82601f10614bb657805160ff1916838001178555614be3565b82800160010185558215614be3579182015b82811115614be3578251825591602001919060010190614bc8565b50614bef929150614bf3565b5090565b5b80821115614bef5760008155600101614bf4565b60005b83811015614c23578181015183820152602001614c0b565b8381111561256e5750506000910152565b6020815260008251806020840152614c53816040850160208701614c08565b601f01601f19169190910160400192915050565b600060208284031215614c7957600080fd5b5035919050565b6001600160a01b0381168114614c9557600080fd5b50565b80356110b181614c80565b60008060408385031215614cb657600080fd5b8235614cc181614c80565b946020939093013593505050565b600060208284031215614ce157600080fd5b8135611a7481614c80565b600080600060608486031215614d0157600080fd5b8335614d0c81614c80565b95602085013595506040909401359392505050565b634e487b7160e01b600052604160045260246000fd5b600080600060608486031215614d4c57600080fd5b83356001600160401b0380821115614d6357600080fd5b818601915086601f830112614d7757600080fd5b813581811115614d8957614d89614d21565b604051601f8201601f19908116603f01168101908382118183101715614db157614db1614d21565b81604052828152896020848701011115614dca57600080fd5b82602086016020830137600060208483010152809750505050505060208401359150614df860408501614c98565b90509250925092565b60008060408385031215614e1457600080fd5b50508035926020909101359150565b600080600060608486031215614e3857600080fd5b505081359360208301359350604090920135919050565b600080600060608486031215614e6457600080fd5b8335614e6f81614c80565b92506020840135614e7f81614c80565b929592945050506040919091013590565b600181811c90821680614ea457607f821691505b60208210811415614ec557634e487b7160e01b600052602260045260246000fd5b50919050565b600060208284031215614edd57600080fd5b81518015158114611a7457600080fd5b600060208284031215614eff57600080fd5b5051919050565b634e487b7160e01b600052601160045260246000fd5b60008219821115614f2f57614f2f614f06565b500190565b600060208284031215614f4657600080fd5b8151611a7481614c80565b600082821015614f6357614f63614f06565b500390565b6000816000190483118215151615614f8257614f82614f06565b500290565b600082614fa457634e487b7160e01b600052601260045260246000fd5b500490565b60008251614fbb818460208701614c08565b919091019291505056fe6e6f7420656e6f7567682066756e647320776572652077697468647261776e2066726f6d2074686520706f6f6c5769746864726177616c4665654465637265617365506572696f640000000000756e617574686f72697a65642061636365737300000000000000000000000000646561646c696e6520686173206e6f74206265656e207265616368656420796574746865206d696e7465722061646472657373206f6620746865204c5020746f6b656e20616e642074686520706f6f6c206164647265737320646f206e6f74206d6174636876616c7565206d75737420626520646966666572656e7420746f206578697374696e672076616c7565a2646970667358221220bb286a21214d5c567ee8a468d0cb97e0044db8042d16e5c3c3a27fa14b5e843464736f6c63430008090033","bytecodeSha1":"cdb7fbc3b8b9c0f19a060345c0c9f7fc9ef1eae9","compiler":{"evm_version":"london","optimizer":{"enabled":true,"runs":200},"version":"0.8.9+commit.e5eed63a"},"contractName":"EthPool","language":"Solidity","natspec":{"kind":"dev","methods":{"calcRedeem(address,uint256)":{"notice":"Calculates the amount of LP tokens that need to be redeemed to get a certain amount of underlying (includes fees and exchange rate)","params":{"account":"Address of the account redeeming.","underlyingAmount":"The amount of underlying desired."},"returns":{"_0":"Amount of LP tokens that need to be redeemed."}},"deposit(uint256)":{"notice":"Deposit funds into liquidity pool and mint LP tokens in exchange.","params":{"depositAmount":"Amount of the underlying asset to supply."},"returns":{"_0":"The actual amount minted."}},"deposit(uint256,uint256)":{"notice":"Deposit funds into liquidity pool and mint LP tokens in exchange.","params":{"depositAmount":"Amount of the underlying asset to supply.","minTokenAmount":"Minimum amount of LP tokens that should be minted."},"returns":{"_0":"The actual amount minted."}},"depositAndStake(uint256,uint256)":{"notice":"Deposit funds into liquidity pool and stake LP Tokens in Staker Vault.","params":{"depositAmount":"Amount of the underlying asset to supply.","minTokenAmount":"Minimum amount of LP tokens that should be minted."},"returns":{"_0":"The actual amount minted and staked."}},"depositFor(address,uint256)":{"notice":"Deposit funds for an address into liquidity pool and mint LP tokens in exchange.","params":{"account":"Account to deposit for.","depositAmount":"Amount of the underlying asset to supply."},"returns":{"_0":"Actual amount minted."}},"depositFor(address,uint256,uint256)":{"notice":"Deposit funds for an address into liquidity pool and mint LP tokens in exchange.","params":{"account":"Account to deposit for.","depositAmount":"Amount of the underlying asset to supply.","minTokenAmount":"Minimum amount of LP tokens that should be minted."},"returns":{"_0":"Actual amount minted."}},"exchangeRate()":{"details":"Exchange rate means: underlying = LP token * exchangeRate","notice":"Compute current exchange rate of LP tokens to underlying scaled to 1e18.","returns":{"_0":"Current exchange rate."}},"executeNewMaxWithdrawalFee()":{"details":"Needs to be called after the update was prepraed. Fails if called before time delay is met.","notice":"Execute max withdrawal fee update (with time delay enforced).","returns":{"_0":"New max withdrawal fee."}},"executeNewMinWithdrawalFee()":{"details":"Needs to be called after the update was prepraed. Fails if called before time delay is met.","notice":"Execute min withdrawal fee update (with time delay enforced).","returns":{"_0":"New withdrawal fee."}},"executeNewRequiredReserves()":{"details":"Needs to be called after the update was prepraed. Fails if called before time delay is met.","notice":"Execute required reserve ratio update (with time delay enforced).","returns":{"_0":"New required reserve ratio."}},"executeNewReserveDeviation()":{"details":"Needs to be called after the update was prepraed. Fails if called before time delay is met.","notice":"Execute reserve deviation ratio update (with time delay enforced).","returns":{"_0":"New reserve deviation ratio."}},"executeNewVault()":{"details":"Needs to be called after the update was prepraed. Fails if called before time delay is met.","notice":"Execute Vault update (with time delay enforced).","returns":{"_0":"Address of new Vault contract."}},"executeNewWithdrawalFeeDecreasePeriod()":{"details":"Needs to be called after the update was prepraed. Fails if called before time delay is met.","notice":"Execute withdrawal fee decrease period update (with time delay enforced).","returns":{"_0":"New withdrawal fee decrease period."}},"getLpToken()":{"notice":"Returns the address of the LP token of this pool","returns":{"_0":"The address of the LP token"}},"getMaxReserveDeviationRatio()":{"returns":{"_0":"the current maximum reserve deviation ratio"}},"getMaxWithdrawalFee()":{"notice":"Returns the current maximum withdrawal fee"},"getMinWithdrawalFee()":{"notice":"Returns the current minimum withdrawal fee"},"getNewCurrentFees(uint256,uint256,uint256)":{"notice":"Calculates the withdrawal fee a user would currently need to pay on currentBalance.","params":{"feeRatio":"Fees that would currently be paid on the user's entire balance","lastActionTimestamp":"Timestamp of the last fee update","timeToWait":"The total time to wait until the withdrawal fee reached the min. fee"},"returns":{"_0":"Updated fee amount on the currentBalance"}},"getRequiredReserveRatio()":{"returns":{"_0":"the current required reserves ratio"}},"getVault()":{"returns":{"_0":"the current vault of the liquidity pool"}},"getWithdrawalFee(address,uint256)":{"notice":"Returns the withdrawal fee for `account`","params":{"account":"Address to get the withdrawal fee for","amount":"Amount to calculate the withdrawal fee for"},"returns":{"_0":"Withdrawal fee in LP tokens"}},"getWithdrawalFeeDecreasePeriod()":{"notice":"Returns the current withdrawal fee decrease period"},"handleLpTokenTransfer(address,address,uint256)":{"notice":"Checkpoint function to update a user's withdrawal fees on deposit and redeem","params":{"amount":"Amount to redeem or deposit","from":"Address sending from","to":"Address sending to"}},"isCapped()":{"notice":"Retuns if the pool has an active deposit limit","returns":{"_0":"`true` if there is currently a deposit limit"}},"pause()":{"notice":"Pause the contract.","returns":{"_0":"`true` if success."}},"prepareNewMaxWithdrawalFee(uint256)":{"notice":"Prepare update of max withdrawal fee (with time delay enforced).","params":{"newFee":"New max withdrawal fee."},"returns":{"_0":"`true` if success."}},"prepareNewMinWithdrawalFee(uint256)":{"notice":"Prepare update of min withdrawal fee (with time delay enforced).","params":{"newFee":"New min withdrawal fee."},"returns":{"_0":"`true` if success."}},"prepareNewRequiredReserves(uint256)":{"notice":"Prepare update of required reserve ratio (with time delay enforced).","params":{"_newRatio":"New required reserve ratio."},"returns":{"_0":"`true` if success."}},"prepareNewReserveDeviation(uint256)":{"notice":"Prepare update of reserve deviation ratio (with time delay enforced).","params":{"newRatio":"New reserve deviation ratio."},"returns":{"_0":"`true` if success."}},"prepareNewVault(address)":{"notice":"Prepare setting a new Vault (with time delay enforced).","params":{"_vault":"Address of new Vault contract."},"returns":{"_0":"`true` if success."}},"prepareNewWithdrawalFeeDecreasePeriod(uint256)":{"notice":"Prepare update of withdrawal decrease fee period (with time delay enforced).","params":{"newPeriod":"New withdrawal fee decrease period."},"returns":{"_0":"`true` if success."}},"rebalanceVault()":{"notice":"Rebalance vault according to required underlying backing reserves."},"redeem(uint256)":{"notice":"Redeems the underlying asset by burning LP tokens.","params":{"redeemLpTokens":"Number of tokens to burn for redeeming the underlying."},"returns":{"_0":"Actual amount of the underlying redeemed."}},"redeem(uint256,uint256)":{"notice":"Redeems the underlying asset by burning LP tokens.","params":{"minRedeemAmount":"Minimum amount of underlying that should be received.","redeemLpTokens":"Number of tokens to burn for redeeming the underlying."},"returns":{"_0":"Actual amount of the underlying redeemed."}},"resetNewMaxWithdrawalFee()":{"notice":"Reset the prepared max fee.","returns":{"_0":"`true` if success."}},"resetNewMinWithdrawalFee()":{"notice":"Reset the prepared min withdrawal fee","returns":{"_0":"`true` if success."}},"resetNewReserveDeviation()":{"notice":"Reset the prepared reserve deviation.","returns":{"_0":"`true` if success."}},"resetNewVault()":{"notice":"Reset the vault deadline.","returns":{"_0":"`true` if success."}},"resetNewWithdrawalFeeDecreasePeriod()":{"notice":"Reset the prepared withdrawal fee decrease period update.","returns":{"_0":"`true` if success."}},"resetRequiredReserves()":{"notice":"Reset the prepared required reserves.","returns":{"_0":"`true` if success."}},"setStaker()":{"details":"Staker vault and LP token pairs are immutable and the staker vault can only be set once for a pool.      Only one vault exists per LP token. This information will be retrieved from the controller of the pool.","notice":"Set the staker vault for this pool's LP token","returns":{"_0":"Address of the new staker vault for the pool."}},"totalUnderlying()":{"notice":"Compute total amount of underlying tokens for this pool.","returns":{"_0":"Total amount of underlying in pool."}},"uncap()":{"notice":"Uncap the pool to remove the deposit limit.","returns":{"_0":"`true` if success."}},"unpause()":{"notice":"Unpause the contract.","returns":{"_0":"`true` if success."}},"unstakeAndRedeem(uint256,uint256)":{"notice":"Redeems the underlying asset by burning LP tokens, unstaking any LP tokens needed.","params":{"minRedeemAmount":"Minimum amount of underlying that should be received.","redeemLpTokens":"Number of tokens to unstake and/or burn for redeeming the underlying."},"returns":{"_0":"Actual amount of the underlying redeemed."}},"updateDepositCap(uint256)":{"notice":"Update the deposit cap value.","params":{"_depositCap":"The maximum allowed deposits per address in the pool"},"returns":{"_0":"`true` if success."}},"withdrawAll()":{"details":"Should be called in case of emergencies.","notice":"Withdraws all funds from vault."},"withdrawalFeeMetas(address)":{"notice":"Keeps track of the withdrawal fees on a per-address basis"}},"version":1},"opcodes":"PUSH1 0x80 PUSH1 0x40 MSTORE PUSH1 0x4 CALLDATASIZE LT PUSH2 0x3C6 JUMPI PUSH1 0x0 CALLDATALOAD PUSH1 0xE0 SHR DUP1 PUSH4 0x7CBC2373 GT PUSH2 0x1F2 JUMPI DUP1 PUSH4 0xB6B55F25 GT PUSH2 0x10D JUMPI DUP1 PUSH4 0xE2BBB158 GT PUSH2 0xA0 JUMPI DUP1 PUSH4 0xF0707903 GT PUSH2 0x6F JUMPI DUP1 PUSH4 0xF0707903 EQ PUSH2 0xAA7 JUMPI DUP1 PUSH4 0xF1B60C98 EQ PUSH2 0xAC7 JUMPI DUP1 PUSH4 0xF76C3399 EQ PUSH2 0xAE7 JUMPI DUP1 PUSH4 0xF77C4791 EQ PUSH2 0xB1D JUMPI PUSH1 0x0 DUP1 REVERT JUMPDEST DUP1 PUSH4 0xE2BBB158 EQ PUSH2 0xA29 JUMPI DUP1 PUSH4 0xE3976EDF EQ PUSH2 0xA3C JUMPI DUP1 PUSH4 0xEE788777 EQ PUSH2 0xA72 JUMPI DUP1 PUSH4 0xEFE9EE6B EQ PUSH2 0xA92 JUMPI PUSH1 0x0 DUP1 REVERT JUMPDEST DUP1 PUSH4 0xD14397D7 GT PUSH2 0xDC JUMPI DUP1 PUSH4 0xD14397D7 EQ PUSH2 0x9B3 JUMPI DUP1 PUSH4 0xD8178A0E EQ PUSH2 0x9D3 JUMPI DUP1 PUSH4 0xDB006A75 EQ PUSH2 0x9F3 JUMPI DUP1 PUSH4 0xDBD5EDC7 EQ PUSH2 0xA13 JUMPI PUSH1 0x0 DUP1 REVERT JUMPDEST DUP1 PUSH4 0xB6B55F25 EQ PUSH2 0x956 JUMPI DUP1 PUSH4 0xB8911267 EQ PUSH2 0x969 JUMPI DUP1 PUSH4 0xC70920BC EQ PUSH2 0x989 JUMPI DUP1 PUSH4 0xCA917A9F EQ PUSH2 0x99E JUMPI PUSH1 0x0 DUP1 REVERT JUMPDEST DUP1 PUSH4 0x9BA1C156 GT PUSH2 0x185 JUMPI DUP1 PUSH4 0xAC349930 GT PUSH2 0x154 JUMPI DUP1 PUSH4 0xAC349930 EQ PUSH2 0x8DA JUMPI DUP1 PUSH4 0xAFF1B7E4 EQ PUSH2 0x8EF JUMPI DUP1 PUSH4 0xB187BD26 EQ PUSH2 0x91C JUMPI DUP1 PUSH4 0xB3AF7394 EQ PUSH2 0x936 JUMPI PUSH1 0x0 DUP1 REVERT JUMPDEST DUP1 PUSH4 0x9BA1C156 EQ PUSH2 0x87B JUMPI DUP1 PUSH4 0x9EE933B5 EQ PUSH2 0x890 JUMPI DUP1 PUSH4 0xA08BD3EC EQ PUSH2 0x8B0 JUMPI DUP1 PUSH4 0xAC23E496 EQ PUSH2 0x8C5 JUMPI PUSH1 0x0 DUP1 REVERT JUMPDEST DUP1 PUSH4 0x855D7ECF GT PUSH2 0x1C1 JUMPI DUP1 PUSH4 0x855D7ECF EQ PUSH2 0x81D JUMPI DUP1 PUSH4 0x8D928AF8 EQ PUSH2 0x83D JUMPI DUP1 PUSH4 0x8F7265B0 EQ PUSH2 0x852 JUMPI DUP1 PUSH4 0x9816F473 EQ PUSH2 0x867 JUMPI PUSH1 0x0 DUP1 REVERT JUMPDEST DUP1 PUSH4 0x7CBC2373 EQ PUSH2 0x7B3 JUMPI DUP1 PUSH4 0x8214F5A4 EQ PUSH2 0x7D3 JUMPI DUP1 PUSH4 0x8456CB59 EQ PUSH2 0x7F1 JUMPI DUP1 PUSH4 0x853828B6 EQ PUSH2 0x806 JUMPI PUSH1 0x0 DUP1 REVERT JUMPDEST DUP1 PUSH4 0x3AD193BE GT PUSH2 0x2E2 JUMPI DUP1 PUSH4 0x5EBAF1DB GT PUSH2 0x275 JUMPI DUP1 PUSH4 0x671528D4 GT PUSH2 0x244 JUMPI DUP1 PUSH4 0x671528D4 EQ PUSH2 0x754 JUMPI DUP1 PUSH4 0x697B9AAB EQ PUSH2 0x76B JUMPI DUP1 PUSH4 0x7969EE28 EQ PUSH2 0x780 JUMPI DUP1 PUSH4 0x7B95B537 EQ PUSH2 0x793 JUMPI PUSH1 0x0 DUP1 REVERT JUMPDEST DUP1 PUSH4 0x5EBAF1DB EQ PUSH2 0x6EA JUMPI DUP1 PUSH4 0x5F7AD054 EQ PUSH2 0x70A JUMPI DUP1 PUSH4 0x5FCBD285 EQ PUSH2 0x71F JUMPI DUP1 PUSH4 0x66F07DD2 EQ PUSH2 0x73F JUMPI PUSH1 0x0 DUP1 REVERT JUMPDEST DUP1 PUSH4 0x3FF5244A GT PUSH2 0x2B1 JUMPI DUP1 PUSH4 0x3FF5244A EQ PUSH2 0x682 JUMPI DUP1 PUSH4 0x4CF5FBF5 EQ PUSH2 0x6A2 JUMPI DUP1 PUSH4 0x4F3BDDEB EQ PUSH2 0x6B5 JUMPI DUP1 PUSH4 0x580C7102 EQ PUSH2 0x6D5 JUMPI PUSH1 0x0 DUP1 REVERT JUMPDEST DUP1 PUSH4 0x3AD193BE EQ PUSH2 0x623 JUMPI DUP1 PUSH4 0x3BA0B9A9 EQ PUSH2 0x638 JUMPI DUP1 PUSH4 0x3D59F0C3 EQ PUSH2 0x64D JUMPI DUP1 PUSH4 0x3F4BA83A EQ PUSH2 0x66D JUMPI PUSH1 0x0 DUP1 REVERT JUMPDEST DUP1 PUSH4 0x27A5E850 GT PUSH2 0x35A JUMPI DUP1 PUSH4 0x2F4F21E2 GT PUSH2 0x329 JUMPI DUP1 PUSH4 0x2F4F21E2 EQ PUSH2 0x558 JUMPI DUP1 PUSH4 0x33AED889 EQ PUSH2 0x56B JUMPI DUP1 PUSH4 0x346A4A51 EQ PUSH2 0x580 JUMPI DUP1 PUSH4 0x37829F49 EQ PUSH2 0x5AD JUMPI PUSH1 0x0 DUP1 REVERT JUMPDEST DUP1 PUSH4 0x27A5E850 EQ PUSH2 0x4E5 JUMPI DUP1 PUSH4 0x28F6E2E3 EQ PUSH2 0x4FA JUMPI DUP1 PUSH4 0x2954018C EQ PUSH2 0x50F JUMPI DUP1 PUSH4 0x2D229BF2 EQ PUSH2 0x543 JUMPI PUSH1 0x0 DUP1 REVERT JUMPDEST DUP1 PUSH4 0x96DDCBA GT PUSH2 0x396 JUMPI DUP1 PUSH4 0x96DDCBA EQ PUSH2 0x460 JUMPI DUP1 PUSH4 0x15DBFE62 EQ PUSH2 0x475 JUMPI DUP1 PUSH4 0x171E5E88 EQ PUSH2 0x4B0 JUMPI DUP1 PUSH4 0x1F6663AB EQ PUSH2 0x4D0 JUMPI PUSH1 0x0 DUP1 REVERT JUMPDEST DUP1 PUSH3 0x435DA5 EQ PUSH2 0x3D2 JUMPI DUP1 PUSH4 0x6FDDE03 EQ PUSH2 0x404 JUMPI DUP1 PUSH4 0x89CF3C2 EQ PUSH2 0x426 JUMPI DUP1 PUSH4 0x8E9940A EQ PUSH2 0x44B JUMPI PUSH1 0x0 DUP1 REVERT JUMPDEST CALLDATASIZE PUSH2 0x3CD JUMPI STOP JUMPDEST PUSH1 0x0 DUP1 REVERT JUMPDEST CALLVALUE DUP1 ISZERO PUSH2 0x3DE JUMPI PUSH1 0x0 DUP1 REVERT JUMPDEST POP PUSH2 0x3E7 PUSH2 0xB51 JUMP JUMPDEST PUSH1 0x40 MLOAD PUSH1 0x1 PUSH1 0x1 PUSH1 0xA0 SHL SUB SWAP1 SWAP2 AND DUP2 MSTORE PUSH1 0x20 ADD JUMPDEST PUSH1 0x40 MLOAD DUP1 SWAP2 SUB SWAP1 RETURN JUMPDEST CALLVALUE DUP1 ISZERO PUSH2 0x410 JUMPI PUSH1 0x0 DUP1 REVERT JUMPDEST POP PUSH2 0x419 PUSH2 0xB60 JUMP JUMPDEST PUSH1 0x40 MLOAD PUSH2 0x3FB SWAP2 SWAP1 PUSH2 0x4C34 JUMP JUMPDEST CALLVALUE DUP1 ISZERO PUSH2 0x432 JUMPI PUSH1 0x0 DUP1 REVERT JUMPDEST POP PUSH2 0x43B PUSH2 0xBEE JUMP JUMPDEST PUSH1 0x40 MLOAD SWAP1 ISZERO ISZERO DUP2 MSTORE PUSH1 0x20 ADD PUSH2 0x3FB JUMP JUMPDEST CALLVALUE DUP1 ISZERO PUSH2 0x457 JUMPI PUSH1 0x0 DUP1 REVERT JUMPDEST POP PUSH2 0x43B PUSH2 0xCEC JUMP JUMPDEST CALLVALUE DUP1 ISZERO PUSH2 0x46C JUMPI PUSH1 0x0 DUP1 REVERT JUMPDEST POP PUSH2 0x3E7 PUSH2 0xDE1 JUMP JUMPDEST CALLVALUE DUP1 ISZERO PUSH2 0x481 JUMPI PUSH1 0x0 DUP1 REVERT JUMPDEST POP PUSH2 0x4A2 PUSH2 0x490 CALLDATASIZE PUSH1 0x4 PUSH2 0x4C67 JUMP JUMPDEST PUSH1 0x1 PUSH1 0x20 MSTORE PUSH1 0x0 SWAP1 DUP2 MSTORE PUSH1 0x40 SWAP1 KECCAK256 SLOAD DUP2 JUMP JUMPDEST PUSH1 0x40 MLOAD SWAP1 DUP2 MSTORE PUSH1 0x20 ADD PUSH2 0x3FB JUMP JUMPDEST CALLVALUE DUP1 ISZERO PUSH2 0x4BC JUMPI PUSH1 0x0 DUP1 REVERT JUMPDEST POP PUSH2 0x43B PUSH2 0x4CB CALLDATASIZE PUSH1 0x4 PUSH2 0x4C67 JUMP JUMPDEST PUSH2 0xEF3 JUMP JUMPDEST CALLVALUE DUP1 ISZERO PUSH2 0x4DC JUMPI PUSH1 0x0 DUP1 REVERT JUMPDEST POP PUSH2 0x43B PUSH2 0x10B6 JUMP JUMPDEST CALLVALUE DUP1 ISZERO PUSH2 0x4F1 JUMPI PUSH1 0x0 DUP1 REVERT JUMPDEST POP PUSH2 0x4A2 PUSH2 0x11F4 JUMP JUMPDEST CALLVALUE DUP1 ISZERO PUSH2 0x506 JUMPI PUSH1 0x0 DUP1 REVERT JUMPDEST POP PUSH2 0x4A2 PUSH2 0x1235 JUMP JUMPDEST CALLVALUE DUP1 ISZERO PUSH2 0x51B JUMPI PUSH1 0x0 DUP1 REVERT JUMPDEST POP PUSH2 0x3E7 PUSH32 0x0 DUP2 JUMP JUMPDEST CALLVALUE DUP1 ISZERO PUSH2 0x54F JUMPI PUSH1 0x0 DUP1 REVERT JUMPDEST POP PUSH2 0x4A2 PUSH2 0x1276 JUMP JUMPDEST PUSH2 0x4A2 PUSH2 0x566 CALLDATASIZE PUSH1 0x4 PUSH2 0x4CA3 JUMP JUMPDEST PUSH2 0x12B2 JUMP JUMPDEST CALLVALUE DUP1 ISZERO PUSH2 0x577 JUMPI PUSH1 0x0 DUP1 REVERT JUMPDEST POP PUSH2 0x43B PUSH2 0x12C9 JUMP JUMPDEST CALLVALUE DUP1 ISZERO PUSH2 0x58C JUMPI PUSH1 0x0 DUP1 REVERT JUMPDEST POP PUSH2 0x4A2 PUSH2 0x59B CALLDATASIZE PUSH1 0x4 PUSH2 0x4C67 JUMP JUMPDEST PUSH1 0x4 PUSH1 0x20 MSTORE PUSH1 0x0 SWAP1 DUP2 MSTORE PUSH1 0x40 SWAP1 KECCAK256 SLOAD DUP2 JUMP JUMPDEST CALLVALUE DUP1 ISZERO PUSH2 0x5B9 JUMPI PUSH1 0x0 DUP1 REVERT JUMPDEST POP PUSH2 0x5F9 PUSH2 0x5C8 CALLDATASIZE PUSH1 0x4 PUSH2 0x4CCF JUMP JUMPDEST PUSH1 0x6 PUSH1 0x20 MSTORE PUSH1 0x0 SWAP1 DUP2 MSTORE PUSH1 0x40 SWAP1 KECCAK256 SLOAD PUSH1 0x1 PUSH1 0x1 PUSH1 0x40 SHL SUB DUP1 DUP3 AND SWAP2 PUSH1 0x1 PUSH1 0x40 SHL DUP2 DIV DUP3 AND SWAP2 PUSH1 0x1 PUSH1 0x80 SHL SWAP1 SWAP2 DIV AND DUP4 JUMP JUMPDEST PUSH1 0x40 DUP1 MLOAD PUSH1 0x1 PUSH1 0x1 PUSH1 0x40 SHL SUB SWAP5 DUP6 AND DUP2 MSTORE SWAP3 DUP5 AND PUSH1 0x20 DUP5 ADD MSTORE SWAP3 AND SWAP2 DUP2 ADD SWAP2 SWAP1 SWAP2 MSTORE PUSH1 0x60 ADD PUSH2 0x3FB JUMP JUMPDEST CALLVALUE DUP1 ISZERO PUSH2 0x62F JUMPI PUSH1 0x0 DUP1 REVERT JUMPDEST POP PUSH2 0x4A2 PUSH2 0x13B3 JUMP JUMPDEST CALLVALUE DUP1 ISZERO PUSH2 0x644 JUMPI PUSH1 0x0 DUP1 REVERT JUMPDEST POP PUSH2 0x4A2 PUSH2 0x13DC JUMP JUMPDEST CALLVALUE DUP1 ISZERO PUSH2 0x659 JUMPI PUSH1 0x0 DUP1 REVERT JUMPDEST POP PUSH2 0x43B PUSH2 0x668 CALLDATASIZE PUSH1 0x4 PUSH2 0x4CCF JUMP JUMPDEST PUSH2 0x14A4 JUMP JUMPDEST CALLVALUE DUP1 ISZERO PUSH2 0x679 JUMPI PUSH1 0x0 DUP1 REVERT JUMPDEST POP PUSH2 0x43B PUSH2 0x1598 JUMP JUMPDEST CALLVALUE DUP1 ISZERO PUSH2 0x68E JUMPI PUSH1 0x0 DUP1 REVERT JUMPDEST POP PUSH2 0x43B PUSH2 0x69D CALLDATASIZE PUSH1 0x4 PUSH2 0x4C67 JUMP JUMPDEST PUSH2 0x15FD JUMP JUMPDEST PUSH2 0x4A2 PUSH2 0x6B0 CALLDATASIZE PUSH1 0x4 PUSH2 0x4CEC JUMP JUMPDEST PUSH2 0x1704 JUMP JUMPDEST CALLVALUE DUP1 ISZERO PUSH2 0x6C1 JUMPI PUSH1 0x0 DUP1 REVERT JUMPDEST POP PUSH2 0x43B PUSH2 0x6D0 CALLDATASIZE PUSH1 0x4 PUSH2 0x4D37 JUMP JUMPDEST PUSH2 0x1A7B JUMP JUMPDEST CALLVALUE DUP1 ISZERO PUSH2 0x6E1 JUMPI PUSH1 0x0 DUP1 REVERT JUMPDEST POP PUSH2 0x4A2 PUSH2 0x1A90 JUMP JUMPDEST CALLVALUE DUP1 ISZERO PUSH2 0x6F6 JUMPI PUSH1 0x0 DUP1 REVERT JUMPDEST POP PUSH1 0x8 SLOAD PUSH2 0x3E7 SWAP1 PUSH1 0x1 PUSH1 0x1 PUSH1 0xA0 SHL SUB AND DUP2 JUMP JUMPDEST CALLVALUE DUP1 ISZERO PUSH2 0x716 JUMPI PUSH1 0x0 DUP1 REVERT JUMPDEST POP PUSH2 0x4A2 PUSH2 0x1AAF JUMP JUMPDEST CALLVALUE DUP1 ISZERO PUSH2 0x72B JUMPI PUSH1 0x0 DUP1 REVERT JUMPDEST POP PUSH1 0x9 SLOAD PUSH2 0x3E7 SWAP1 PUSH1 0x1 PUSH1 0x1 PUSH1 0xA0 SHL SUB AND DUP2 JUMP JUMPDEST CALLVALUE DUP1 ISZERO PUSH2 0x74B JUMPI PUSH1 0x0 DUP1 REVERT JUMPDEST POP PUSH2 0x43B PUSH2 0x1AC8 JUMP JUMPDEST CALLVALUE DUP1 ISZERO PUSH2 0x760 JUMPI PUSH1 0x0 DUP1 REVERT JUMPDEST POP PUSH1 0x7 SLOAD ISZERO ISZERO PUSH2 0x43B JUMP JUMPDEST CALLVALUE DUP1 ISZERO PUSH2 0x777 JUMPI PUSH1 0x0 DUP1 REVERT JUMPDEST POP PUSH2 0x4A2 PUSH2 0x1D72 JUMP JUMPDEST PUSH2 0x4A2 PUSH2 0x78E CALLDATASIZE PUSH1 0x4 PUSH2 0x4E01 JUMP JUMPDEST PUSH2 0x1DB3 JUMP JUMPDEST CALLVALUE DUP1 ISZERO PUSH2 0x79F JUMPI PUSH1 0x0 DUP1 REVERT JUMPDEST POP PUSH2 0x4A2 PUSH2 0x7AE CALLDATASIZE PUSH1 0x4 PUSH2 0x4E01 JUMP JUMPDEST PUSH2 0x1E4E JUMP JUMPDEST CALLVALUE DUP1 ISZERO PUSH2 0x7BF JUMPI PUSH1 0x0 DUP1 REVERT JUMPDEST POP PUSH2 0x4A2 PUSH2 0x7CE CALLDATASIZE PUSH1 0x4 PUSH2 0x4E01 JUMP JUMPDEST PUSH2 0x205A JUMP JUMPDEST CALLVALUE DUP1 ISZERO PUSH2 0x7DF JUMPI PUSH1 0x0 DUP1 REVERT JUMPDEST POP PUSH1 0x9 SLOAD PUSH1 0x1 PUSH1 0x1 PUSH1 0xA0 SHL SUB AND PUSH2 0x3E7 JUMP JUMPDEST CALLVALUE DUP1 ISZERO PUSH2 0x7FD JUMPI PUSH1 0x0 DUP1 REVERT JUMPDEST POP PUSH2 0x43B PUSH2 0x23D8 JUMP JUMPDEST CALLVALUE DUP1 ISZERO PUSH2 0x812 JUMPI PUSH1 0x0 DUP1 REVERT JUMPDEST POP PUSH2 0x81B PUSH2 0x2441 JUMP JUMPDEST STOP JUMPDEST CALLVALUE DUP1 ISZERO PUSH2 0x829 JUMPI PUSH1 0x0 DUP1 REVERT JUMPDEST POP PUSH2 0x43B PUSH2 0x838 CALLDATASIZE PUSH1 0x4 PUSH2 0x4C67 JUMP JUMPDEST PUSH2 0x2574 JUMP JUMPDEST CALLVALUE DUP1 ISZERO PUSH2 0x849 JUMPI PUSH1 0x0 DUP1 REVERT JUMPDEST POP PUSH2 0x3E7 PUSH2 0x267B JUMP JUMPDEST CALLVALUE DUP1 ISZERO PUSH2 0x85E JUMPI PUSH1 0x0 DUP1 REVERT JUMPDEST POP PUSH2 0x81B PUSH2 0x26BA JUMP JUMPDEST CALLVALUE DUP1 ISZERO PUSH2 0x873 JUMPI PUSH1 0x0 DUP1 REVERT JUMPDEST POP PUSH1 0x0 PUSH2 0x3E7 JUMP JUMPDEST CALLVALUE DUP1 ISZERO PUSH2 0x887 JUMPI PUSH1 0x0 DUP1 REVERT JUMPDEST POP PUSH2 0x4A2 PUSH2 0x279B JUMP JUMPDEST CALLVALUE DUP1 ISZERO PUSH2 0x89C JUMPI PUSH1 0x0 DUP1 REVERT JUMPDEST POP PUSH2 0x43B PUSH2 0x8AB CALLDATASIZE PUSH1 0x4 PUSH2 0x4CCF JUMP JUMPDEST PUSH2 0x27CD JUMP JUMPDEST CALLVALUE DUP1 ISZERO PUSH2 0x8BC JUMPI PUSH1 0x0 DUP1 REVERT JUMPDEST POP PUSH2 0x43B PUSH2 0x2A36 JUMP JUMPDEST CALLVALUE DUP1 ISZERO PUSH2 0x8D1 JUMPI PUSH1 0x0 DUP1 REVERT JUMPDEST POP PUSH2 0x4A2 PUSH2 0x2B2B JUMP JUMPDEST CALLVALUE DUP1 ISZERO PUSH2 0x8E6 JUMPI PUSH1 0x0 DUP1 REVERT JUMPDEST POP PUSH2 0x43B PUSH2 0x2B58 JUMP JUMPDEST CALLVALUE DUP1 ISZERO PUSH2 0x8FB JUMPI PUSH1 0x0 DUP1 REVERT JUMPDEST POP PUSH2 0x4A2 PUSH2 0x90A CALLDATASIZE PUSH1 0x4 PUSH2 0x4C67 JUMP JUMPDEST PUSH1 0x3 PUSH1 0x20 MSTORE PUSH1 0x0 SWAP1 DUP2 MSTORE PUSH1 0x40 SWAP1 KECCAK256 SLOAD DUP2 JUMP JUMPDEST CALLVALUE DUP1 ISZERO PUSH2 0x928 JUMPI PUSH1 0x0 DUP1 REVERT JUMPDEST POP PUSH1 0x5 SLOAD PUSH2 0x43B SWAP1 PUSH1 0xFF AND DUP2 JUMP JUMPDEST CALLVALUE DUP1 ISZERO PUSH2 0x942 JUMPI PUSH1 0x0 DUP1 REVERT JUMPDEST POP PUSH2 0x43B PUSH2 0x951 CALLDATASIZE PUSH1 0x4 PUSH2 0x4C67 JUMP JUMPDEST PUSH2 0x2C48 JUMP JUMPDEST PUSH2 0x4A2 PUSH2 0x964 CALLDATASIZE PUSH1 0x4 PUSH2 0x4C67 JUMP JUMPDEST PUSH2 0x2DA6 JUMP JUMPDEST CALLVALUE DUP1 ISZERO PUSH2 0x975 JUMPI PUSH1 0x0 DUP1 REVERT JUMPDEST POP PUSH2 0x4A2 PUSH2 0x984 CALLDATASIZE PUSH1 0x4 PUSH2 0x4CA3 JUMP JUMPDEST PUSH2 0x2DB4 JUMP JUMPDEST CALLVALUE DUP1 ISZERO PUSH2 0x995 JUMPI PUSH1 0x0 DUP1 REVERT JUMPDEST POP PUSH2 0x4A2 PUSH2 0x30C2 JUMP JUMPDEST CALLVALUE DUP1 ISZERO PUSH2 0x9AA JUMPI PUSH1 0x0 DUP1 REVERT JUMPDEST POP PUSH2 0x4A2 PUSH2 0x3176 JUMP JUMPDEST CALLVALUE DUP1 ISZERO PUSH2 0x9BF JUMPI PUSH1 0x0 DUP1 REVERT JUMPDEST POP PUSH2 0x4A2 PUSH2 0x9CE CALLDATASIZE PUSH1 0x4 PUSH2 0x4E23 JUMP JUMPDEST PUSH2 0x31B7 JUMP JUMPDEST CALLVALUE DUP1 ISZERO PUSH2 0x9DF JUMPI PUSH1 0x0 DUP1 REVERT JUMPDEST POP PUSH2 0x4A2 PUSH2 0x9EE CALLDATASIZE PUSH1 0x4 PUSH2 0x4CA3 JUMP JUMPDEST PUSH2 0x3213 JUMP JUMPDEST CALLVALUE DUP1 ISZERO PUSH2 0x9FF JUMPI PUSH1 0x0 DUP1 REVERT JUMPDEST POP PUSH2 0x4A2 PUSH2 0xA0E CALLDATASIZE PUSH1 0x4 PUSH2 0x4C67 JUMP JUMPDEST PUSH2 0x3332 JUMP JUMPDEST CALLVALUE DUP1 ISZERO PUSH2 0xA1F JUMPI PUSH1 0x0 DUP1 REVERT JUMPDEST POP PUSH2 0x4A2 PUSH1 0x7 SLOAD DUP2 JUMP JUMPDEST PUSH2 0x4A2 PUSH2 0xA37 CALLDATASIZE PUSH1 0x4 PUSH2 0x4E01 JUMP JUMPDEST PUSH2 0x333F JUMP JUMPDEST CALLVALUE DUP1 ISZERO PUSH2 0xA48 JUMPI PUSH1 0x0 DUP1 REVERT JUMPDEST POP PUSH2 0x3E7 PUSH2 0xA57 CALLDATASIZE PUSH1 0x4 PUSH2 0x4C67 JUMP JUMPDEST PUSH1 0x0 PUSH1 0x20 DUP2 SWAP1 MSTORE SWAP1 DUP2 MSTORE PUSH1 0x40 SWAP1 KECCAK256 SLOAD PUSH1 0x1 PUSH1 0x1 PUSH1 0xA0 SHL SUB AND DUP2 JUMP JUMPDEST CALLVALUE DUP1 ISZERO PUSH2 0xA7E JUMPI PUSH1 0x0 DUP1 REVERT JUMPDEST POP PUSH2 0x43B PUSH2 0xA8D CALLDATASIZE PUSH1 0x4 PUSH2 0x4C67 JUMP JUMPDEST PUSH2 0x334C JUMP JUMPDEST CALLVALUE DUP1 ISZERO PUSH2 0xA9E JUMPI PUSH1 0x0 DUP1 REVERT JUMPDEST POP PUSH2 0x43B PUSH2 0x343D JUMP JUMPDEST CALLVALUE DUP1 ISZERO PUSH2 0xAB3 JUMPI PUSH1 0x0 DUP1 REVERT JUMPDEST POP PUSH2 0x43B PUSH2 0xAC2 CALLDATASIZE PUSH1 0x4 PUSH2 0x4C67 JUMP JUMPDEST PUSH2 0x3532 JUMP JUMPDEST CALLVALUE DUP1 ISZERO PUSH2 0xAD3 JUMPI PUSH1 0x0 DUP1 REVERT JUMPDEST POP PUSH2 0x81B PUSH2 0xAE2 CALLDATASIZE PUSH1 0x4 PUSH2 0x4E4F JUMP JUMPDEST PUSH2 0x3677 JUMP JUMPDEST CALLVALUE DUP1 ISZERO PUSH2 0xAF3 JUMPI PUSH1 0x0 DUP1 REVERT JUMPDEST POP PUSH2 0x3E7 PUSH2 0xB02 CALLDATASIZE PUSH1 0x4 PUSH2 0x4C67 JUMP JUMPDEST PUSH1 0x2 PUSH1 0x20 MSTORE PUSH1 0x0 SWAP1 DUP2 MSTORE PUSH1 0x40 SWAP1 KECCAK256 SLOAD PUSH1 0x1 PUSH1 0x1 PUSH1 0xA0 SHL SUB AND DUP2 JUMP JUMPDEST CALLVALUE DUP1 ISZERO PUSH2 0xB29 JUMPI PUSH1 0x0 DUP1 REVERT JUMPDEST POP PUSH2 0x3E7 PUSH32 0x0 DUP2 JUMP JUMPDEST PUSH1 0x0 PUSH2 0xB5B PUSH2 0x3A1E JUMP JUMPDEST SWAP1 POP SWAP1 JUMP JUMPDEST PUSH1 0xA DUP1 SLOAD PUSH2 0xB6D SWAP1 PUSH2 0x4E90 JUMP JUMPDEST DUP1 PUSH1 0x1F ADD PUSH1 0x20 DUP1 SWAP2 DIV MUL PUSH1 0x20 ADD PUSH1 0x40 MLOAD SWAP1 DUP2 ADD PUSH1 0x40 MSTORE DUP1 SWAP3 SWAP2 SWAP1 DUP2 DUP2 MSTORE PUSH1 0x20 ADD DUP3 DUP1 SLOAD PUSH2 0xB99 SWAP1 PUSH2 0x4E90 JUMP JUMPDEST DUP1 ISZERO PUSH2 0xBE6 JUMPI DUP1 PUSH1 0x1F LT PUSH2 0xBBB JUMPI PUSH2 0x100 DUP1 DUP4 SLOAD DIV MUL DUP4 MSTORE SWAP2 PUSH1 0x20 ADD SWAP2 PUSH2 0xBE6 JUMP JUMPDEST DUP3 ADD SWAP2 SWAP1 PUSH1 0x0 MSTORE PUSH1 0x20 PUSH1 0x0 KECCAK256 SWAP1 JUMPDEST DUP2 SLOAD DUP2 MSTORE SWAP1 PUSH1 0x1 ADD SWAP1 PUSH1 0x20 ADD DUP1 DUP4 GT PUSH2 0xBC9 JUMPI DUP3 SWAP1 SUB PUSH1 0x1F AND DUP3 ADD SWAP2 JUMPDEST POP POP POP POP POP DUP2 JUMP JUMPDEST PUSH1 0x0 PUSH2 0xBF8 PUSH2 0x3A1E JUMP JUMPDEST PUSH1 0x40 MLOAD PUSH4 0x24745215 PUSH1 0xE2 SHL DUP2 MSTORE PUSH10 0x676F7665726E616E6365 PUSH1 0xB0 SHL PUSH1 0x4 DUP3 ADD MSTORE CALLER PUSH1 0x24 DUP3 ADD MSTORE PUSH1 0x1 PUSH1 0x1 PUSH1 0xA0 SHL SUB SWAP2 SWAP1 SWAP2 AND SWAP1 PUSH4 0x91D14854 SWAP1 PUSH1 0x44 ADD PUSH1 0x20 PUSH1 0x40 MLOAD DUP1 DUP4 SUB DUP2 DUP7 DUP1 EXTCODESIZE ISZERO DUP1 ISZERO PUSH2 0xC4C JUMPI PUSH1 0x0 DUP1 REVERT JUMPDEST POP GAS STATICCALL ISZERO DUP1 ISZERO PUSH2 0xC60 JUMPI RETURNDATASIZE PUSH1 0x0 DUP1 RETURNDATACOPY RETURNDATASIZE PUSH1 0x0 REVERT JUMPDEST POP POP POP POP PUSH1 0x40 MLOAD RETURNDATASIZE PUSH1 0x1F NOT PUSH1 0x1F DUP3 ADD AND DUP3 ADD DUP1 PUSH1 0x40 MSTORE POP DUP2 ADD SWAP1 PUSH2 0xC84 SWAP2 SWAP1 PUSH2 0x4ECB JUMP JUMPDEST PUSH1 0x40 MLOAD DUP1 PUSH1 0x40 ADD PUSH1 0x40 MSTORE DUP1 PUSH1 0x13 DUP2 MSTORE PUSH1 0x20 ADD PUSH1 0x0 DUP1 MLOAD PUSH1 0x20 PUSH2 0x5013 DUP4 CODECOPY DUP2 MLOAD SWAP2 MSTORE DUP2 MSTORE POP SWAP1 PUSH2 0xCCF JUMPI PUSH1 0x40 MLOAD PUSH3 0x461BCD PUSH1 0xE5 SHL DUP2 MSTORE PUSH1 0x4 ADD PUSH2 0xCC6 SWAP2 SWAP1 PUSH2 0x4C34 JUMP JUMPDEST PUSH1 0x40 MLOAD DUP1 SWAP2 SUB SWAP1 REVERT JUMPDEST POP PUSH2 0xB5B PUSH16 0x2932B9B2B93B32A232BB34B0BA34B7B7 PUSH1 0x81 SHL PUSH2 0x3A42 JUMP JUMPDEST PUSH1 0x0 PUSH2 0xCF6 PUSH2 0x3A1E JUMP JUMPDEST PUSH1 0x40 MLOAD PUSH4 0x24745215 PUSH1 0xE2 SHL DUP2 MSTORE PUSH10 0x676F7665726E616E6365 PUSH1 0xB0 SHL PUSH1 0x4 DUP3 ADD MSTORE CALLER PUSH1 0x24 DUP3 ADD MSTORE PUSH1 0x1 PUSH1 0x1 PUSH1 0xA0 SHL SUB SWAP2 SWAP1 SWAP2 AND SWAP1 PUSH4 0x91D14854 SWAP1 PUSH1 0x44 ADD PUSH1 0x20 PUSH1 0x40 MLOAD DUP1 DUP4 SUB DUP2 DUP7 DUP1 EXTCODESIZE ISZERO DUP1 ISZERO PUSH2 0xD4A JUMPI PUSH1 0x0 DUP1 REVERT JUMPDEST POP GAS STATICCALL ISZERO DUP1 ISZERO PUSH2 0xD5E JUMPI RETURNDATASIZE PUSH1 0x0 DUP1 RETURNDATACOPY RETURNDATASIZE PUSH1 0x0 REVERT JUMPDEST POP POP POP POP PUSH1 0x40 MLOAD RETURNDATASIZE PUSH1 0x1F NOT PUSH1 0x1F DUP3 ADD AND DUP3 ADD DUP1 PUSH1 0x40 MSTORE POP DUP2 ADD SWAP1 PUSH2 0xD82 SWAP2 SWAP1 PUSH2 0x4ECB JUMP JUMPDEST PUSH1 0x40 MLOAD DUP1 PUSH1 0x40 ADD PUSH1 0x40 MSTORE DUP1 PUSH1 0x13 DUP2 MSTORE PUSH1 0x20 ADD PUSH1 0x0 DUP1 MLOAD PUSH1 0x20 PUSH2 0x5013 DUP4 CODECOPY DUP2 MLOAD SWAP2 MSTORE DUP2 MSTORE POP SWAP1 PUSH2 0xDC4 JUMPI PUSH1 0x40 MLOAD PUSH3 0x461BCD PUSH1 0xE5 SHL DUP2 MSTORE PUSH1 0x4 ADD PUSH2 0xCC6 SWAP2 SWAP1 PUSH2 0x4C34 JUMP JUMPDEST POP PUSH2 0xB5B PUSH16 0x4D61785769746864726177616C466565 PUSH1 0x80 SHL PUSH2 0x3A42 JUMP JUMPDEST PUSH1 0x0 DUP1 PUSH2 0xDEC PUSH2 0x267B JUMP JUMPDEST SWAP1 POP PUSH1 0x1 PUSH1 0x1 PUSH1 0xA0 SHL SUB DUP2 AND ISZERO PUSH2 0xE51 JUMPI DUP1 PUSH1 0x1 PUSH1 0x1 PUSH1 0xA0 SHL SUB AND PUSH4 0x853828B6 PUSH1 0x40 MLOAD DUP2 PUSH4 0xFFFFFFFF AND PUSH1 0xE0 SHL DUP2 MSTORE PUSH1 0x4 ADD PUSH1 0x0 PUSH1 0x40 MLOAD DUP1 DUP4 SUB DUP2 PUSH1 0x0 DUP8 DUP1 EXTCODESIZE ISZERO DUP1 ISZERO PUSH2 0xE38 JUMPI PUSH1 0x0 DUP1 REVERT JUMPDEST POP GAS CALL ISZERO DUP1 ISZERO PUSH2 0xE4C JUMPI RETURNDATASIZE PUSH1 0x0 DUP1 RETURNDATACOPY RETURNDATASIZE PUSH1 0x0 REVERT JUMPDEST POP POP POP POP JUMPDEST PUSH1 0x0 PUSH2 0xE64 PUSH5 0x15985D5B1D PUSH1 0xDA SHL PUSH2 0x3AE9 JUMP JUMPDEST PUSH1 0x40 MLOAD PUSH4 0x368A3A5 PUSH1 0xE3 SHL DUP2 MSTORE PUSH1 0x1 PUSH1 0x1 PUSH1 0xA0 SHL SUB DUP5 DUP2 AND PUSH1 0x4 DUP4 ADD MSTORE DUP1 DUP4 AND PUSH1 0x24 DUP4 ADD MSTORE SWAP2 SWAP3 POP PUSH32 0x0 SWAP1 SWAP2 AND SWAP1 PUSH4 0x1B451D28 SWAP1 PUSH1 0x44 ADD PUSH1 0x0 PUSH1 0x40 MLOAD DUP1 DUP4 SUB DUP2 PUSH1 0x0 DUP8 DUP1 EXTCODESIZE ISZERO DUP1 ISZERO PUSH2 0xED4 JUMPI PUSH1 0x0 DUP1 REVERT JUMPDEST POP GAS CALL ISZERO DUP1 ISZERO PUSH2 0xEE8 JUMPI RETURNDATASIZE PUSH1 0x0 DUP1 RETURNDATACOPY RETURNDATASIZE PUSH1 0x0 REVERT JUMPDEST POP SWAP3 SWAP6 SWAP5 POP POP POP POP POP JUMP JUMPDEST PUSH1 0x0 PUSH2 0xEFD PUSH2 0x3A1E JUMP JUMPDEST PUSH1 0x40 MLOAD PUSH4 0x24745215 PUSH1 0xE2 SHL DUP2 MSTORE PUSH10 0x676F7665726E616E6365 PUSH1 0xB0 SHL PUSH1 0x4 DUP3 ADD MSTORE CALLER PUSH1 0x24 DUP3 ADD MSTORE PUSH1 0x1 PUSH1 0x1 PUSH1 0xA0 SHL SUB SWAP2 SWAP1 SWAP2 AND SWAP1 PUSH4 0x91D14854 SWAP1 PUSH1 0x44 ADD PUSH1 0x20 PUSH1 0x40 MLOAD DUP1 DUP4 SUB DUP2 DUP7 DUP1 EXTCODESIZE ISZERO DUP1 ISZERO PUSH2 0xF51 JUMPI PUSH1 0x0 DUP1 REVERT JUMPDEST POP GAS STATICCALL ISZERO DUP1 ISZERO PUSH2 0xF65 JUMPI RETURNDATASIZE PUSH1 0x0 DUP1 RETURNDATACOPY RETURNDATASIZE PUSH1 0x0 REVERT JUMPDEST POP POP POP POP PUSH1 0x40 MLOAD RETURNDATASIZE PUSH1 0x1F NOT PUSH1 0x1F DUP3 ADD AND DUP3 ADD DUP1 PUSH1 0x40 MSTORE POP DUP2 ADD SWAP1 PUSH2 0xF89 SWAP2 SWAP1 PUSH2 0x4ECB JUMP JUMPDEST PUSH1 0x40 MLOAD DUP1 PUSH1 0x40 ADD PUSH1 0x40 MSTORE DUP1 PUSH1 0x13 DUP2 MSTORE PUSH1 0x20 ADD PUSH1 0x0 DUP1 MLOAD PUSH1 0x20 PUSH2 0x5013 DUP4 CODECOPY DUP2 MLOAD SWAP2 MSTORE DUP2 MSTORE POP SWAP1 PUSH2 0xFCB JUMPI PUSH1 0x40 MLOAD PUSH3 0x461BCD PUSH1 0xE5 SHL DUP2 MSTORE PUSH1 0x4 ADD PUSH2 0xCC6 SWAP2 SWAP1 PUSH2 0x4C34 JUMP JUMPDEST POP PUSH1 0x7 SLOAD ISZERO ISZERO PUSH1 0x40 MLOAD DUP1 PUSH1 0x40 ADD PUSH1 0x40 MSTORE DUP1 PUSH1 0x20 DUP2 MSTORE PUSH1 0x20 ADD PUSH32 0x74686520706F6F6C206973206E6F742063757272656E746C7920636170706564 DUP2 MSTORE POP SWAP1 PUSH2 0x1025 JUMPI PUSH1 0x40 MLOAD PUSH3 0x461BCD PUSH1 0xE5 SHL DUP2 MSTORE PUSH1 0x4 ADD PUSH2 0xCC6 SWAP2 SWAP1 PUSH2 0x4C34 JUMP JUMPDEST POP DUP2 PUSH1 0x7 SLOAD EQ ISZERO PUSH1 0x40 MLOAD DUP1 PUSH1 0x60 ADD PUSH1 0x40 MSTORE DUP1 PUSH1 0x29 DUP2 MSTORE PUSH1 0x20 ADD PUSH2 0x5098 PUSH1 0x29 SWAP2 CODECOPY SWAP1 PUSH2 0x1063 JUMPI PUSH1 0x40 MLOAD PUSH3 0x461BCD PUSH1 0xE5 SHL DUP2 MSTORE PUSH1 0x4 ADD PUSH2 0xCC6 SWAP2 SWAP1 PUSH2 0x4C34 JUMP JUMPDEST POP PUSH1 0x40 DUP1 MLOAD DUP1 DUP3 ADD SWAP1 SWAP2 MSTORE PUSH1 0xE DUP2 MSTORE PUSH14 0x1A5B9D985B1A5908185B5BDD5B9D PUSH1 0x92 SHL PUSH1 0x20 DUP3 ADD MSTORE DUP3 PUSH2 0x10A7 JUMPI PUSH1 0x40 MLOAD PUSH3 0x461BCD PUSH1 0xE5 SHL DUP2 MSTORE PUSH1 0x4 ADD PUSH2 0xCC6 SWAP2 SWAP1 PUSH2 0x4C34 JUMP JUMPDEST POP POP PUSH1 0x7 DUP2 SWAP1 SSTORE PUSH1 0x1 JUMPDEST SWAP2 SWAP1 POP JUMP JUMPDEST PUSH1 0x0 PUSH2 0x10C0 PUSH2 0x3A1E JUMP JUMPDEST PUSH1 0x40 MLOAD PUSH4 0x24745215 PUSH1 0xE2 SHL DUP2 MSTORE PUSH10 0x676F7665726E616E6365 PUSH1 0xB0 SHL PUSH1 0x4 DUP3 ADD MSTORE CALLER PUSH1 0x24 DUP3 ADD MSTORE PUSH1 0x1 PUSH1 0x1 PUSH1 0xA0 SHL SUB SWAP2 SWAP1 SWAP2 AND SWAP1 PUSH4 0x91D14854 SWAP1 PUSH1 0x44 ADD PUSH1 0x20 PUSH1 0x40 MLOAD DUP1 DUP4 SUB DUP2 DUP7 DUP1 EXTCODESIZE ISZERO DUP1 ISZERO PUSH2 0x1114 JUMPI PUSH1 0x0 DUP1 REVERT JUMPDEST POP GAS STATICCALL ISZERO DUP1 ISZERO PUSH2 0x1128 JUMPI RETURNDATASIZE PUSH1 0x0 DUP1 RETURNDATACOPY RETURNDATASIZE PUSH1 0x0 REVERT JUMPDEST POP POP POP POP PUSH1 0x40 MLOAD RETURNDATASIZE PUSH1 0x1F NOT PUSH1 0x1F DUP3 ADD AND DUP3 ADD DUP1 PUSH1 0x40 MSTORE POP DUP2 ADD SWAP1 PUSH2 0x114C SWAP2 SWAP1 PUSH2 0x4ECB JUMP JUMPDEST PUSH1 0x40 MLOAD DUP1 PUSH1 0x40 ADD PUSH1 0x40 MSTORE DUP1 PUSH1 0x13 DUP2 MSTORE PUSH1 0x20 ADD PUSH1 0x0 DUP1 MLOAD PUSH1 0x20 PUSH2 0x5013 DUP4 CODECOPY DUP2 MLOAD SWAP2 MSTORE DUP2 MSTORE POP SWAP1 PUSH2 0x118E JUMPI PUSH1 0x40 MLOAD PUSH3 0x461BCD PUSH1 0xE5 SHL DUP2 MSTORE PUSH1 0x4 ADD PUSH2 0xCC6 SWAP2 SWAP1 PUSH2 0x4C34 JUMP JUMPDEST POP PUSH1 0x7 SLOAD ISZERO ISZERO PUSH1 0x40 MLOAD DUP1 PUSH1 0x40 ADD PUSH1 0x40 MSTORE DUP1 PUSH1 0x20 DUP2 MSTORE PUSH1 0x20 ADD PUSH32 0x74686520706F6F6C206973206E6F742063757272656E746C7920636170706564 DUP2 MSTORE POP SWAP1 PUSH2 0x11E8 JUMPI PUSH1 0x40 MLOAD PUSH3 0x461BCD PUSH1 0xE5 SHL DUP2 MSTORE PUSH1 0x4 ADD PUSH2 0xCC6 SWAP2 SWAP1 PUSH2 0x4C34 JUMP JUMPDEST POP POP PUSH1 0x0 PUSH1 0x7 SSTORE PUSH1 0x1 SWAP1 JUMP JUMPDEST PUSH16 0x4D696E5769746864726177616C466565 PUSH1 0x80 SHL PUSH1 0x0 MSTORE PUSH1 0x3 PUSH1 0x20 MSTORE PUSH32 0xC0F899A0B165DC0C43F66D0D223E281B3F278ECA17E510016DF881545BB9D862 SLOAD SWAP1 JUMP JUMPDEST PUSH16 0x52657175697265645265736572766573 PUSH1 0x80 SHL PUSH1 0x0 MSTORE PUSH1 0x3 PUSH1 0x20 MSTORE PUSH32 0xBA135A2864686570C0839A01A6E2733DB5BF6CECADC565D84319DF13EF016A15 SLOAD SWAP1 JUMP JUMPDEST PUSH1 0x0 DUP1 MLOAD PUSH1 0x20 PUSH2 0x4FF3 DUP4 CODECOPY DUP2 MLOAD SWAP2 MSTORE PUSH1 0x0 MSTORE PUSH1 0x3 PUSH1 0x20 MSTORE PUSH32 0x604A2499576F2F340436D07E04CC082BC0D8E83977929464E7F0AF31C1C137FF SLOAD SWAP1 JUMP JUMPDEST PUSH1 0x0 PUSH2 0x12C0 DUP4 DUP4 PUSH1 0x0 PUSH2 0x1704 JUMP JUMPDEST SWAP1 POP JUMPDEST SWAP3 SWAP2 POP POP JUMP JUMPDEST PUSH1 0x0 PUSH2 0x12D3 PUSH2 0x3A1E JUMP JUMPDEST PUSH1 0x40 MLOAD PUSH4 0x24745215 PUSH1 0xE2 SHL DUP2 MSTORE PUSH10 0x676F7665726E616E6365 PUSH1 0xB0 SHL PUSH1 0x4 DUP3 ADD MSTORE CALLER PUSH1 0x24 DUP3 ADD MSTORE PUSH1 0x1 PUSH1 0x1 PUSH1 0xA0 SHL SUB SWAP2 SWAP1 SWAP2 AND SWAP1 PUSH4 0x91D14854 SWAP1 PUSH1 0x44 ADD PUSH1 0x20 PUSH1 0x40 MLOAD DUP1 DUP4 SUB DUP2 DUP7 DUP1 EXTCODESIZE ISZERO DUP1 ISZERO PUSH2 0x1327 JUMPI PUSH1 0x0 DUP1 REVERT JUMPDEST POP GAS STATICCALL ISZERO DUP1 ISZERO PUSH2 0x133B JUMPI RETURNDATASIZE PUSH1 0x0 DUP1 RETURNDATACOPY RETURNDATASIZE PUSH1 0x0 REVERT JUMPDEST POP POP POP POP PUSH1 0x40 MLOAD RETURNDATASIZE PUSH1 0x1F NOT PUSH1 0x1F DUP3 ADD AND DUP3 ADD DUP1 PUSH1 0x40 MSTORE POP DUP2 ADD SWAP1 PUSH2 0x135F SWAP2 SWAP1 PUSH2 0x4ECB JUMP JUMPDEST PUSH1 0x40 MLOAD DUP1 PUSH1 0x40 ADD PUSH1 0x40 MSTORE DUP1 PUSH1 0x13 DUP2 MSTORE PUSH1 0x20 ADD PUSH1 0x0 DUP1 MLOAD PUSH1 0x20 PUSH2 0x5013 DUP4 CODECOPY DUP2 MLOAD SWAP2 MSTORE DUP2 MSTORE POP SWAP1 PUSH2 0x13A1 JUMPI PUSH1 0x40 MLOAD PUSH3 0x461BCD PUSH1 0xE5 SHL DUP2 MSTORE PUSH1 0x4 ADD PUSH2 0xCC6 SWAP2 SWAP1 PUSH2 0x4C34 JUMP JUMPDEST POP PUSH2 0xB5B PUSH5 0x15985D5B1D PUSH1 0xDA SHL PUSH2 0x3B1D JUMP JUMPDEST PUSH1 0x0 DUP1 PUSH2 0x13D2 PUSH16 0x52657175697265645265736572766573 PUSH1 0x80 SHL PUSH2 0x3BCE JUMP JUMPDEST SWAP1 POP PUSH2 0x10B1 PUSH2 0x3BF2 JUMP JUMPDEST PUSH1 0x0 DUP1 PUSH2 0x13E7 PUSH2 0x30C2 JUMP JUMPDEST SWAP1 POP PUSH1 0x0 PUSH1 0x9 PUSH1 0x0 SWAP1 SLOAD SWAP1 PUSH2 0x100 EXP SWAP1 DIV PUSH1 0x1 PUSH1 0x1 PUSH1 0xA0 SHL SUB AND PUSH1 0x1 PUSH1 0x1 PUSH1 0xA0 SHL SUB AND PUSH4 0x18160DDD PUSH1 0x40 MLOAD DUP2 PUSH4 0xFFFFFFFF AND PUSH1 0xE0 SHL DUP2 MSTORE PUSH1 0x4 ADD PUSH1 0x20 PUSH1 0x40 MLOAD DUP1 DUP4 SUB DUP2 DUP7 DUP1 EXTCODESIZE ISZERO DUP1 ISZERO PUSH2 0x1439 JUMPI PUSH1 0x0 DUP1 REVERT JUMPDEST POP GAS STATICCALL ISZERO DUP1 ISZERO PUSH2 0x144D JUMPI RETURNDATASIZE PUSH1 0x0 DUP1 RETURNDATACOPY RETURNDATASIZE PUSH1 0x0 REVERT JUMPDEST POP POP POP POP PUSH1 0x40 MLOAD RETURNDATASIZE PUSH1 0x1F NOT PUSH1 0x1F DUP3 ADD AND DUP3 ADD DUP1 PUSH1 0x40 MSTORE POP DUP2 ADD SWAP1 PUSH2 0x1471 SWAP2 SWAP1 PUSH2 0x4EED JUMP JUMPDEST SWAP1 POP DUP1 ISZERO DUP1 PUSH2 0x147E JUMPI POP DUP2 ISZERO JUMPDEST ISZERO PUSH2 0x1493 JUMPI PUSH8 0xDE0B6B3A7640000 SWAP3 POP POP POP SWAP1 JUMP JUMPDEST PUSH2 0x149D DUP3 DUP3 PUSH2 0x3BFC JUMP JUMPDEST SWAP3 POP POP POP SWAP1 JUMP JUMPDEST PUSH1 0x0 PUSH2 0x14AE PUSH2 0x3A1E JUMP JUMPDEST PUSH1 0x40 MLOAD PUSH4 0x24745215 PUSH1 0xE2 SHL DUP2 MSTORE PUSH10 0x676F7665726E616E6365 PUSH1 0xB0 SHL PUSH1 0x4 DUP3 ADD MSTORE CALLER PUSH1 0x24 DUP3 ADD MSTORE PUSH1 0x1 PUSH1 0x1 PUSH1 0xA0 SHL SUB SWAP2 SWAP1 SWAP2 AND SWAP1 PUSH4 0x91D14854 SWAP1 PUSH1 0x44 ADD PUSH1 0x20 PUSH1 0x40 MLOAD DUP1 DUP4 SUB DUP2 DUP7 DUP1 EXTCODESIZE ISZERO DUP1 ISZERO PUSH2 0x1502 JUMPI PUSH1 0x0 DUP1 REVERT JUMPDEST POP GAS STATICCALL ISZERO DUP1 ISZERO PUSH2 0x1516 JUMPI RETURNDATASIZE PUSH1 0x0 DUP1 RETURNDATACOPY RETURNDATASIZE PUSH1 0x0 REVERT JUMPDEST POP POP POP POP PUSH1 0x40 MLOAD RETURNDATASIZE PUSH1 0x1F NOT PUSH1 0x1F DUP3 ADD AND DUP3 ADD DUP1 PUSH1 0x40 MSTORE POP DUP2 ADD SWAP1 PUSH2 0x153A SWAP2 SWAP1 PUSH2 0x4ECB JUMP JUMPDEST PUSH1 0x40 MLOAD DUP1 PUSH1 0x40 ADD PUSH1 0x40 MSTORE DUP1 PUSH1 0x13 DUP2 MSTORE PUSH1 0x20 ADD PUSH1 0x0 DUP1 MLOAD PUSH1 0x20 PUSH2 0x5013 DUP4 CODECOPY DUP2 MLOAD SWAP2 MSTORE DUP2 MSTORE POP SWAP1 PUSH2 0x157C JUMPI PUSH1 0x40 MLOAD PUSH3 0x461BCD PUSH1 0xE5 SHL DUP2 MSTORE PUSH1 0x4 ADD PUSH2 0xCC6 SWAP2 SWAP1 PUSH2 0x4C34 JUMP JUMPDEST POP PUSH2 0x158F PUSH5 0x15985D5B1D PUSH1 0xDA SHL DUP4 PUSH2 0x3C1B JUMP JUMPDEST POP PUSH1 0x1 SWAP3 SWAP2 POP POP JUMP JUMPDEST PUSH1 0x0 PUSH2 0x15A3 CALLER PUSH2 0x3C2B JUMP JUMPDEST PUSH1 0x40 MLOAD DUP1 PUSH1 0x40 ADD PUSH1 0x40 MSTORE DUP1 PUSH1 0x12 DUP2 MSTORE PUSH1 0x20 ADD PUSH18 0x18DBDB9D1C9858DD081A5CC81C185D5CD959 PUSH1 0x72 SHL DUP2 MSTORE POP SWAP1 PUSH2 0x15EC JUMPI PUSH1 0x40 MLOAD PUSH3 0x461BCD PUSH1 0xE5 SHL DUP2 MSTORE PUSH1 0x4 ADD PUSH2 0xCC6 SWAP2 SWAP1 PUSH2 0x4C34 JUMP JUMPDEST POP POP PUSH1 0x5 DUP1 SLOAD PUSH1 0xFF NOT AND SWAP1 SSTORE PUSH1 0x1 SWAP1 JUMP JUMPDEST PUSH1 0x0 PUSH2 0x1607 PUSH2 0x3A1E JUMP JUMPDEST PUSH1 0x40 MLOAD PUSH4 0x24745215 PUSH1 0xE2 SHL DUP2 MSTORE PUSH10 0x676F7665726E616E6365 PUSH1 0xB0 SHL PUSH1 0x4 DUP3 ADD MSTORE CALLER PUSH1 0x24 DUP3 ADD MSTORE PUSH1 0x1 PUSH1 0x1 PUSH1 0xA0 SHL SUB SWAP2 SWAP1 SWAP2 AND SWAP1 PUSH4 0x91D14854 SWAP1 PUSH1 0x44 ADD PUSH1 0x20 PUSH1 0x40 MLOAD DUP1 DUP4 SUB DUP2 DUP7 DUP1 EXTCODESIZE ISZERO DUP1 ISZERO PUSH2 0x165B JUMPI PUSH1 0x0 DUP1 REVERT JUMPDEST POP GAS STATICCALL ISZERO DUP1 ISZERO PUSH2 0x166F JUMPI RETURNDATASIZE PUSH1 0x0 DUP1 RETURNDATACOPY RETURNDATASIZE PUSH1 0x0 REVERT JUMPDEST POP POP POP POP PUSH1 0x40 MLOAD RETURNDATASIZE PUSH1 0x1F NOT PUSH1 0x1F DUP3 ADD AND DUP3 ADD DUP1 PUSH1 0x40 MSTORE POP DUP2 ADD SWAP1 PUSH2 0x1693 SWAP2 SWAP1 PUSH2 0x4ECB JUMP JUMPDEST PUSH1 0x40 MLOAD DUP1 PUSH1 0x40 ADD PUSH1 0x40 MSTORE DUP1 PUSH1 0x13 DUP2 MSTORE PUSH1 0x20 ADD PUSH1 0x0 DUP1 MLOAD PUSH1 0x20 PUSH2 0x5013 DUP4 CODECOPY DUP2 MLOAD SWAP2 MSTORE DUP2 MSTORE POP SWAP1 PUSH2 0x16D5 JUMPI PUSH1 0x40 MLOAD PUSH3 0x461BCD PUSH1 0xE5 SHL DUP2 MSTORE PUSH1 0x4 ADD PUSH2 0xCC6 SWAP2 SWAP1 PUSH2 0x4C34 JUMP JUMPDEST POP PUSH2 0x16E7 PUSH2 0x16E1 PUSH2 0x11F4 JUMP JUMPDEST DUP4 PUSH2 0x3CC3 JUMP JUMPDEST PUSH2 0x12C3 PUSH16 0x4D61785769746864726177616C466565 PUSH1 0x80 SHL DUP4 PUSH2 0x3D57 JUMP JUMPDEST PUSH1 0x5 SLOAD PUSH1 0x40 DUP1 MLOAD DUP1 DUP3 ADD SWAP1 SWAP2 MSTORE PUSH1 0x12 DUP2 MSTORE PUSH18 0x18DBDB9D1C9858DD081A5CC81C185D5CD959 PUSH1 0x72 SHL PUSH1 0x20 DUP3 ADD MSTORE PUSH1 0x0 SWAP2 PUSH1 0xFF AND ISZERO PUSH2 0x1754 JUMPI PUSH1 0x40 MLOAD PUSH3 0x461BCD PUSH1 0xE5 SHL DUP2 MSTORE PUSH1 0x4 ADD PUSH2 0xCC6 SWAP2 SWAP1 PUSH2 0x4C34 JUMP JUMPDEST POP PUSH1 0x0 PUSH2 0x175F PUSH2 0x13DC JUMP JUMPDEST SWAP1 POP PUSH2 0x176C PUSH1 0x7 SLOAD ISZERO ISZERO SWAP1 JUMP JUMPDEST ISZERO PUSH2 0x18F5 JUMPI PUSH1 0x9 SLOAD PUSH1 0x40 MLOAD PUSH4 0x70A08231 PUSH1 0xE0 SHL DUP2 MSTORE PUSH1 0x1 PUSH1 0x1 PUSH1 0xA0 SHL SUB DUP8 DUP2 AND PUSH1 0x4 DUP4 ADD MSTORE PUSH1 0x0 SWAP3 AND SWAP1 PUSH4 0x70A08231 SWAP1 PUSH1 0x24 ADD PUSH1 0x20 PUSH1 0x40 MLOAD DUP1 DUP4 SUB DUP2 DUP7 DUP1 EXTCODESIZE ISZERO DUP1 ISZERO PUSH2 0x17B7 JUMPI PUSH1 0x0 DUP1 REVERT JUMPDEST POP GAS STATICCALL ISZERO DUP1 ISZERO PUSH2 0x17CB JUMPI RETURNDATASIZE PUSH1 0x0 DUP1 RETURNDATACOPY RETURNDATASIZE PUSH1 0x0 REVERT JUMPDEST POP POP POP POP PUSH1 0x40 MLOAD RETURNDATASIZE PUSH1 0x1F NOT PUSH1 0x1F DUP3 ADD AND DUP3 ADD DUP1 PUSH1 0x40 MSTORE POP DUP2 ADD SWAP1 PUSH2 0x17EF SWAP2 SWAP1 PUSH2 0x4EED JUMP JUMPDEST PUSH1 0x8 SLOAD PUSH1 0x40 MLOAD PUSH4 0xA853BA2F PUSH1 0xE0 SHL DUP2 MSTORE PUSH1 0x1 PUSH1 0x1 PUSH1 0xA0 SHL SUB DUP10 DUP2 AND PUSH1 0x4 DUP4 ADD MSTORE SWAP3 SWAP4 POP PUSH1 0x0 SWAP3 SWAP1 SWAP2 AND SWAP1 PUSH4 0xA853BA2F SWAP1 PUSH1 0x24 ADD PUSH1 0x20 PUSH1 0x40 MLOAD DUP1 DUP4 SUB DUP2 DUP7 DUP1 EXTCODESIZE ISZERO DUP1 ISZERO PUSH2 0x183A JUMPI PUSH1 0x0 DUP1 REVERT JUMPDEST POP GAS STATICCALL ISZERO DUP1 ISZERO PUSH2 0x184E JUMPI RETURNDATASIZE PUSH1 0x0 DUP1 RETURNDATACOPY RETURNDATASIZE PUSH1 0x0 REVERT JUMPDEST POP POP POP POP PUSH1 0x40 MLOAD RETURNDATASIZE PUSH1 0x1F NOT PUSH1 0x1F DUP3 ADD AND DUP3 ADD DUP1 PUSH1 0x40 MSTORE POP DUP2 ADD SWAP1 PUSH2 0x1872 SWAP2 SWAP1 PUSH2 0x4EED JUMP JUMPDEST SWAP1 POP PUSH1 0x0 PUSH2 0x188A DUP5 PUSH2 0x1884 DUP5 DUP7 PUSH2 0x4F1C JUMP JUMPDEST SWAP1 PUSH2 0x3D67 JUMP JUMPDEST PUSH1 0x7 SLOAD SWAP1 SWAP2 POP PUSH2 0x189A DUP9 DUP4 PUSH2 0x4F1C JUMP JUMPDEST GT ISZERO PUSH1 0x40 MLOAD DUP1 PUSH1 0x40 ADD PUSH1 0x40 MSTORE DUP1 PUSH1 0x1B DUP2 MSTORE PUSH1 0x20 ADD PUSH32 0x6465706F7369742065786365656473206465706F736974206361700000000000 DUP2 MSTORE POP SWAP1 PUSH2 0x18F0 JUMPI PUSH1 0x40 MLOAD PUSH3 0x461BCD PUSH1 0xE5 SHL DUP2 MSTORE PUSH1 0x4 ADD PUSH2 0xCC6 SWAP2 SWAP1 PUSH2 0x4C34 JUMP JUMPDEST POP POP POP POP JUMPDEST PUSH2 0x18FF CALLER DUP6 PUSH2 0x3D7C JUMP JUMPDEST PUSH1 0x0 PUSH2 0x190B DUP6 DUP4 PUSH2 0x3BFC JUMP JUMPDEST SWAP1 POP DUP4 DUP2 LT ISZERO PUSH1 0x40 MLOAD DUP1 PUSH1 0x40 ADD PUSH1 0x40 MSTORE DUP1 PUSH1 0xE DUP2 MSTORE PUSH1 0x20 ADD PUSH14 0x1A5B9D985B1A5908185B5BDD5B9D PUSH1 0x92 SHL DUP2 MSTORE POP SWAP1 PUSH2 0x1956 JUMPI PUSH1 0x40 MLOAD PUSH3 0x461BCD PUSH1 0xE5 SHL DUP2 MSTORE PUSH1 0x4 ADD PUSH2 0xCC6 SWAP2 SWAP1 PUSH2 0x4C34 JUMP JUMPDEST POP PUSH1 0x9 SLOAD PUSH1 0x40 MLOAD PUSH4 0x40C10F19 PUSH1 0xE0 SHL DUP2 MSTORE PUSH1 0x1 PUSH1 0x1 PUSH1 0xA0 SHL SUB DUP9 DUP2 AND PUSH1 0x4 DUP4 ADD MSTORE PUSH1 0x24 DUP3 ADD DUP5 SWAP1 MSTORE SWAP1 SWAP2 AND SWAP1 PUSH4 0x40C10F19 SWAP1 PUSH1 0x44 ADD PUSH1 0x0 PUSH1 0x40 MLOAD DUP1 DUP4 SUB DUP2 PUSH1 0x0 DUP8 DUP1 EXTCODESIZE ISZERO DUP1 ISZERO PUSH2 0x19A5 JUMPI PUSH1 0x0 DUP1 REVERT JUMPDEST POP GAS CALL ISZERO DUP1 ISZERO PUSH2 0x19B9 JUMPI RETURNDATASIZE PUSH1 0x0 DUP1 RETURNDATACOPY RETURNDATASIZE PUSH1 0x0 REVERT JUMPDEST POP POP POP POP PUSH2 0x19C5 PUSH2 0x3BF2 JUMP JUMPDEST CALLER PUSH1 0x1 PUSH1 0x1 PUSH1 0xA0 SHL SUB DUP8 AND EQ DUP1 PUSH2 0x19E4 JUMPI POP ADDRESS PUSH1 0x1 PUSH1 0x1 PUSH1 0xA0 SHL SUB DUP8 AND EQ JUMPDEST ISZERO PUSH2 0x1A29 JUMPI PUSH1 0x40 DUP1 MLOAD DUP7 DUP2 MSTORE PUSH1 0x20 DUP2 ADD DUP4 SWAP1 MSTORE CALLER SWAP2 PUSH32 0x90890809C654F11D6E72A28FA60149770A0D11EC6C92319D6CEB2BB0A4EA1A15 SWAP2 ADD PUSH1 0x40 MLOAD DUP1 SWAP2 SUB SWAP1 LOG2 PUSH2 0x1A70 JUMP JUMPDEST PUSH1 0x40 DUP1 MLOAD DUP7 DUP2 MSTORE PUSH1 0x20 DUP2 ADD DUP4 SWAP1 MSTORE PUSH1 0x1 PUSH1 0x1 PUSH1 0xA0 SHL SUB DUP9 AND SWAP2 CALLER SWAP2 PUSH32 0x512D56E1F791D3BC07B8085104584EC42FAEFBEFED34BBC0B881D8DA16A8EBE1 SWAP2 ADD PUSH1 0x40 MLOAD DUP1 SWAP2 SUB SWAP1 LOG3 JUMPDEST SWAP2 POP POP JUMPDEST SWAP4 SWAP3 POP POP POP JUMP JUMPDEST PUSH1 0x0 PUSH2 0x1A88 DUP5 DUP5 DUP5 PUSH2 0x3E14 JUMP JUMPDEST SWAP5 SWAP4 POP POP POP POP JUMP JUMPDEST PUSH1 0x0 DUP1 PUSH2 0x13D2 PUSH16 0x2932B9B2B93B32A232BB34B0BA34B7B7 PUSH1 0x81 SHL PUSH2 0x3BCE JUMP JUMPDEST PUSH1 0x0 PUSH2 0xB5B PUSH1 0x0 DUP1 MLOAD PUSH1 0x20 PUSH2 0x4FF3 DUP4 CODECOPY DUP2 MLOAD SWAP2 MSTORE PUSH2 0x3BCE JUMP JUMPDEST PUSH1 0x0 PUSH10 0x676F7665726E616E6365 PUSH1 0xB0 SHL PUSH12 0x706F6F6C5F666163746F7279 PUSH1 0xA0 SHL PUSH2 0x1AF0 PUSH2 0x3A1E JUMP JUMPDEST PUSH1 0x40 MLOAD PUSH4 0x6BAB5211 PUSH1 0xE1 SHL DUP2 MSTORE PUSH1 0x4 DUP2 ADD DUP5 SWAP1 MSTORE PUSH1 0x24 DUP2 ADD DUP4 SWAP1 MSTORE CALLER PUSH1 0x44 DUP3 ADD MSTORE PUSH1 0x1 PUSH1 0x1 PUSH1 0xA0 SHL SUB SWAP2 SWAP1 SWAP2 AND SWAP1 PUSH4 0xD756A422 SWAP1 PUSH1 0x64 ADD PUSH1 0x20 PUSH1 0x40 MLOAD DUP1 DUP4 SUB DUP2 DUP7 DUP1 EXTCODESIZE ISZERO DUP1 ISZERO PUSH2 0x1B3F JUMPI PUSH1 0x0 DUP1 REVERT JUMPDEST POP GAS STATICCALL ISZERO DUP1 ISZERO PUSH2 0x1B53 JUMPI RETURNDATASIZE PUSH1 0x0 DUP1 RETURNDATACOPY RETURNDATASIZE PUSH1 0x0 REVERT JUMPDEST POP POP POP POP PUSH1 0x40 MLOAD RETURNDATASIZE PUSH1 0x1F NOT PUSH1 0x1F DUP3 ADD AND DUP3 ADD DUP1 PUSH1 0x40 MSTORE POP DUP2 ADD SWAP1 PUSH2 0x1B77 SWAP2 SWAP1 PUSH2 0x4ECB JUMP JUMPDEST PUSH1 0x40 MLOAD DUP1 PUSH1 0x40 ADD PUSH1 0x40 MSTORE DUP1 PUSH1 0x13 DUP2 MSTORE PUSH1 0x20 ADD PUSH1 0x0 DUP1 MLOAD PUSH1 0x20 PUSH2 0x5013 DUP4 CODECOPY DUP2 MLOAD SWAP2 MSTORE DUP2 MSTORE POP SWAP1 PUSH2 0x1BB9 JUMPI PUSH1 0x40 MLOAD PUSH3 0x461BCD PUSH1 0xE5 SHL DUP2 MSTORE PUSH1 0x4 ADD PUSH2 0xCC6 SWAP2 SWAP1 PUSH2 0x4C34 JUMP JUMPDEST POP PUSH1 0x8 SLOAD PUSH1 0x40 DUP1 MLOAD DUP1 DUP3 ADD SWAP1 SWAP2 MSTORE PUSH1 0x16 DUP2 MSTORE PUSH22 0x1059191C995CDCC81A5CC8185B1C9958591E481CD95D PUSH1 0x52 SHL PUSH1 0x20 DUP3 ADD MSTORE SWAP1 PUSH1 0x1 PUSH1 0x1 PUSH1 0xA0 SHL SUB AND ISZERO PUSH2 0x1C12 JUMPI PUSH1 0x40 MLOAD PUSH3 0x461BCD PUSH1 0xE5 SHL DUP2 MSTORE PUSH1 0x4 ADD PUSH2 0xCC6 SWAP2 SWAP1 PUSH2 0x4C34 JUMP JUMPDEST POP PUSH1 0x9 SLOAD PUSH1 0x40 MLOAD PUSH4 0x59EADEB PUSH1 0xE4 SHL DUP2 MSTORE PUSH1 0x1 PUSH1 0x1 PUSH1 0xA0 SHL SUB SWAP2 DUP3 AND PUSH1 0x4 DUP3 ADD MSTORE PUSH1 0x0 SWAP2 PUSH32 0x0 AND SWAP1 PUSH4 0x59EADEB0 SWAP1 PUSH1 0x24 ADD PUSH1 0x20 PUSH1 0x40 MLOAD DUP1 DUP4 SUB DUP2 DUP7 DUP1 EXTCODESIZE ISZERO DUP1 ISZERO PUSH2 0x1C7A JUMPI PUSH1 0x0 DUP1 REVERT JUMPDEST POP GAS STATICCALL ISZERO DUP1 ISZERO PUSH2 0x1C8E JUMPI RETURNDATASIZE PUSH1 0x0 DUP1 RETURNDATACOPY RETURNDATASIZE PUSH1 0x0 REVERT JUMPDEST POP POP POP POP PUSH1 0x40 MLOAD RETURNDATASIZE PUSH1 0x1F NOT PUSH1 0x1F DUP3 ADD AND DUP3 ADD DUP1 PUSH1 0x40 MSTORE POP DUP2 ADD SWAP1 PUSH2 0x1CB2 SWAP2 SWAP1 PUSH2 0x4F34 JUMP JUMPDEST PUSH1 0x40 DUP1 MLOAD DUP1 DUP3 ADD SWAP1 SWAP2 MSTORE PUSH1 0x18 DUP2 MSTORE PUSH32 0x7A65726F2061646472657373206E6F7420616C6C6F7765640000000000000000 PUSH1 0x20 DUP3 ADD MSTORE SWAP1 SWAP2 POP PUSH1 0x1 PUSH1 0x1 PUSH1 0xA0 SHL SUB DUP3 AND PUSH2 0x1D10 JUMPI PUSH1 0x40 MLOAD PUSH3 0x461BCD PUSH1 0xE5 SHL DUP2 MSTORE PUSH1 0x4 ADD PUSH2 0xCC6 SWAP2 SWAP1 PUSH2 0x4C34 JUMP JUMPDEST POP PUSH1 0x8 DUP1 SLOAD PUSH1 0x1 PUSH1 0x1 PUSH1 0xA0 SHL SUB NOT AND PUSH1 0x1 PUSH1 0x1 PUSH1 0xA0 SHL SUB DUP4 AND OR SWAP1 SSTORE PUSH2 0x1D34 PUSH2 0x3F9A JUMP JUMPDEST PUSH1 0x40 MLOAD PUSH1 0x1 PUSH1 0x1 PUSH1 0xA0 SHL SUB DUP3 AND SWAP1 PUSH32 0x11A945E6ECBC8413276D84B4F853634A407CCF5A1A60B1FA649AEA71EA386FF2 SWAP1 PUSH1 0x0 SWAP1 LOG2 PUSH1 0x1 SWAP4 POP POP POP POP SWAP1 JUMP JUMPDEST PUSH16 0x4D61785769746864726177616C466565 PUSH1 0x80 SHL PUSH1 0x0 MSTORE PUSH1 0x3 PUSH1 0x20 MSTORE PUSH32 0xA17A95707D09266A39DD08E8E69410950F03CFCF325D18179561EB773BCEA209 SLOAD SWAP1 JUMP JUMPDEST PUSH1 0x0 DUP1 PUSH2 0x1DC1 ADDRESS DUP6 DUP6 PUSH2 0x1704 JUMP JUMPDEST PUSH1 0x8 SLOAD PUSH1 0x40 MLOAD PUSH4 0x5DC8121 PUSH1 0xE3 SHL DUP2 MSTORE CALLER PUSH1 0x4 DUP3 ADD MSTORE PUSH1 0x24 DUP2 ADD DUP4 SWAP1 MSTORE SWAP2 SWAP3 POP PUSH1 0x1 PUSH1 0x1 PUSH1 0xA0 SHL SUB AND SWAP1 PUSH4 0x2EE40908 SWAP1 PUSH1 0x44 ADD PUSH1 0x20 PUSH1 0x40 MLOAD DUP1 DUP4 SUB DUP2 PUSH1 0x0 DUP8 DUP1 EXTCODESIZE ISZERO DUP1 ISZERO PUSH2 0x1E0E JUMPI PUSH1 0x0 DUP1 REVERT JUMPDEST POP GAS CALL ISZERO DUP1 ISZERO PUSH2 0x1E22 JUMPI RETURNDATASIZE PUSH1 0x0 DUP1 RETURNDATACOPY RETURNDATASIZE PUSH1 0x0 REVERT JUMPDEST POP POP POP POP PUSH1 0x40 MLOAD RETURNDATASIZE PUSH1 0x1F NOT PUSH1 0x1F DUP3 ADD AND DUP3 ADD DUP1 PUSH1 0x40 MSTORE POP DUP2 ADD SWAP1 PUSH2 0x1E46 SWAP2 SWAP1 PUSH2 0x4ECB JUMP JUMPDEST POP SWAP4 SWAP3 POP POP POP JUMP JUMPDEST PUSH1 0x9 SLOAD PUSH1 0x40 MLOAD PUSH4 0x70A08231 PUSH1 0xE0 SHL DUP2 MSTORE CALLER PUSH1 0x4 DUP3 ADD MSTORE PUSH1 0x0 SWAP2 DUP3 SWAP2 PUSH1 0x1 PUSH1 0x1 PUSH1 0xA0 SHL SUB SWAP1 SWAP2 AND SWAP1 PUSH4 0x70A08231 SWAP1 PUSH1 0x24 ADD PUSH1 0x20 PUSH1 0x40 MLOAD DUP1 DUP4 SUB DUP2 DUP7 DUP1 EXTCODESIZE ISZERO DUP1 ISZERO PUSH2 0x1E96 JUMPI PUSH1 0x0 DUP1 REVERT JUMPDEST POP GAS STATICCALL ISZERO DUP1 ISZERO PUSH2 0x1EAA JUMPI RETURNDATASIZE PUSH1 0x0 DUP1 RETURNDATACOPY RETURNDATASIZE PUSH1 0x0 REVERT JUMPDEST POP POP POP POP PUSH1 0x40 MLOAD RETURNDATASIZE PUSH1 0x1F NOT PUSH1 0x1F DUP3 ADD AND DUP3 ADD DUP1 PUSH1 0x40 MSTORE POP DUP2 ADD SWAP1 PUSH2 0x1ECE SWAP2 SWAP1 PUSH2 0x4EED JUMP JUMPDEST PUSH1 0x8 SLOAD PUSH1 0x40 MLOAD PUSH4 0x70A08231 PUSH1 0xE0 SHL DUP2 MSTORE CALLER PUSH1 0x4 DUP3 ADD MSTORE SWAP2 SWAP3 POP DUP6 SWAP2 PUSH1 0x1 PUSH1 0x1 PUSH1 0xA0 SHL SUB SWAP1 SWAP2 AND SWAP1 PUSH4 0x70A08231 SWAP1 PUSH1 0x24 ADD PUSH1 0x20 PUSH1 0x40 MLOAD DUP1 DUP4 SUB DUP2 DUP7 DUP1 EXTCODESIZE ISZERO DUP1 ISZERO PUSH2 0x1F16 JUMPI PUSH1 0x0 DUP1 REVERT JUMPDEST POP GAS STATICCALL ISZERO DUP1 ISZERO PUSH2 0x1F2A JUMPI RETURNDATASIZE PUSH1 0x0 DUP1 RETURNDATACOPY RETURNDATASIZE PUSH1 0x0 REVERT JUMPDEST POP POP POP POP PUSH1 0x40 MLOAD RETURNDATASIZE PUSH1 0x1F NOT PUSH1 0x1F DUP3 ADD AND DUP3 ADD DUP1 PUSH1 0x40 MSTORE POP DUP2 ADD SWAP1 PUSH2 0x1F4E SWAP2 SWAP1 PUSH2 0x4EED JUMP JUMPDEST PUSH2 0x1F58 SWAP1 DUP4 PUSH2 0x4F1C JUMP JUMPDEST LT ISZERO PUSH1 0x40 MLOAD DUP1 PUSH1 0x40 ADD PUSH1 0x40 MSTORE DUP1 PUSH1 0x14 DUP2 MSTORE PUSH1 0x20 ADD PUSH20 0x696E73756666696369656E742062616C616E6365 PUSH1 0x60 SHL DUP2 MSTORE POP SWAP1 PUSH2 0x1FA5 JUMPI PUSH1 0x40 MLOAD PUSH3 0x461BCD PUSH1 0xE5 SHL DUP2 MSTORE PUSH1 0x4 ADD PUSH2 0xCC6 SWAP2 SWAP1 PUSH2 0x4C34 JUMP JUMPDEST POP DUP4 DUP2 LT ISZERO PUSH2 0x2054 JUMPI PUSH1 0x8 SLOAD PUSH1 0x1 PUSH1 0x1 PUSH1 0xA0 SHL SUB AND PUSH4 0x4974C679 CALLER DUP1 PUSH2 0x1FCB DUP6 DUP10 PUSH2 0x4F51 JUMP JUMPDEST PUSH1 0x40 MLOAD PUSH1 0x1 PUSH1 0x1 PUSH1 0xE0 SHL SUB NOT PUSH1 0xE0 DUP7 SWAP1 SHL AND DUP2 MSTORE PUSH1 0x1 PUSH1 0x1 PUSH1 0xA0 SHL SUB SWAP4 DUP5 AND PUSH1 0x4 DUP3 ADD MSTORE SWAP3 SWAP1 SWAP2 AND PUSH1 0x24 DUP4 ADD MSTORE PUSH1 0x44 DUP3 ADD MSTORE PUSH1 0x64 ADD PUSH1 0x20 PUSH1 0x40 MLOAD DUP1 DUP4 SUB DUP2 PUSH1 0x0 DUP8 DUP1 EXTCODESIZE ISZERO DUP1 ISZERO PUSH2 0x201A JUMPI PUSH1 0x0 DUP1 REVERT JUMPDEST POP GAS CALL ISZERO DUP1 ISZERO PUSH2 0x202E JUMPI RETURNDATASIZE PUSH1 0x0 DUP1 RETURNDATACOPY RETURNDATASIZE PUSH1 0x0 REVERT JUMPDEST POP POP POP POP PUSH1 0x40 MLOAD RETURNDATASIZE PUSH1 0x1F NOT PUSH1 0x1F DUP3 ADD AND DUP3 ADD DUP1 PUSH1 0x40 MSTORE POP DUP2 ADD SWAP1 PUSH2 0x2052 SWAP2 SWAP1 PUSH2 0x4ECB JUMP JUMPDEST POP JUMPDEST PUSH2 0x1A88 DUP5 DUP5 JUMPDEST PUSH1 0x0 DUP1 DUP4 GT PUSH1 0x40 MLOAD DUP1 PUSH1 0x40 ADD PUSH1 0x40 MSTORE DUP1 PUSH1 0xE DUP2 MSTORE PUSH1 0x20 ADD PUSH14 0x1A5B9D985B1A5908185B5BDD5B9D PUSH1 0x92 SHL DUP2 MSTORE POP SWAP1 PUSH2 0x20A4 JUMPI PUSH1 0x40 MLOAD PUSH3 0x461BCD PUSH1 0xE5 SHL DUP2 MSTORE PUSH1 0x4 ADD PUSH2 0xCC6 SWAP2 SWAP1 PUSH2 0x4C34 JUMP JUMPDEST POP PUSH1 0x9 SLOAD PUSH1 0x40 MLOAD PUSH4 0x70A08231 PUSH1 0xE0 SHL DUP2 MSTORE CALLER PUSH1 0x4 DUP3 ADD MSTORE PUSH1 0x1 PUSH1 0x1 PUSH1 0xA0 SHL SUB SWAP1 SWAP2 AND SWAP1 DUP5 SWAP1 DUP3 SWAP1 PUSH4 0x70A08231 SWAP1 PUSH1 0x24 ADD PUSH1 0x20 PUSH1 0x40 MLOAD DUP1 DUP4 SUB DUP2 DUP7 DUP1 EXTCODESIZE ISZERO DUP1 ISZERO PUSH2 0x20EC JUMPI PUSH1 0x0 DUP1 REVERT JUMPDEST POP GAS STATICCALL ISZERO DUP1 ISZERO PUSH2 0x2100 JUMPI RETURNDATASIZE PUSH1 0x0 DUP1 RETURNDATACOPY RETURNDATASIZE PUSH1 0x0 REVERT JUMPDEST POP POP POP POP PUSH1 0x40 MLOAD RETURNDATASIZE PUSH1 0x1F NOT PUSH1 0x1F DUP3 ADD AND DUP3 ADD DUP1 PUSH1 0x40 MSTORE POP DUP2 ADD SWAP1 PUSH2 0x2124 SWAP2 SWAP1 PUSH2 0x4EED JUMP JUMPDEST LT ISZERO PUSH1 0x40 MLOAD DUP1 PUSH1 0x40 ADD PUSH1 0x40 MSTORE DUP1 PUSH1 0x14 DUP2 MSTORE PUSH1 0x20 ADD PUSH20 0x696E73756666696369656E742062616C616E6365 PUSH1 0x60 SHL DUP2 MSTORE POP SWAP1 PUSH2 0x2171 JUMPI PUSH1 0x40 MLOAD PUSH3 0x461BCD PUSH1 0xE5 SHL DUP2 MSTORE PUSH1 0x4 ADD PUSH2 0xCC6 SWAP2 SWAP1 PUSH2 0x4C34 JUMP JUMPDEST POP PUSH1 0x40 MLOAD PUSH4 0x622E68CB PUSH1 0xE0 SHL DUP2 MSTORE CALLER PUSH1 0x4 DUP3 ADD MSTORE PUSH1 0x0 SWAP1 PUSH32 0x0 PUSH1 0x1 PUSH1 0x1 PUSH1 0xA0 SHL SUB AND SWAP1 PUSH4 0x622E68CB SWAP1 PUSH1 0x24 ADD PUSH1 0x20 PUSH1 0x40 MLOAD DUP1 DUP4 SUB DUP2 DUP7 DUP1 EXTCODESIZE ISZERO DUP1 ISZERO PUSH2 0x21D4 JUMPI PUSH1 0x0 DUP1 REVERT JUMPDEST POP GAS STATICCALL ISZERO DUP1 ISZERO PUSH2 0x21E8 JUMPI RETURNDATASIZE PUSH1 0x0 DUP1 RETURNDATACOPY RETURNDATASIZE PUSH1 0x0 REVERT JUMPDEST POP POP POP POP PUSH1 0x40 MLOAD RETURNDATASIZE PUSH1 0x1F NOT PUSH1 0x1F DUP3 ADD AND DUP3 ADD DUP1 PUSH1 0x40 MSTORE POP DUP2 ADD SWAP1 PUSH2 0x220C SWAP2 SWAP1 PUSH2 0x4ECB JUMP JUMPDEST PUSH2 0x221F JUMPI PUSH2 0x221A CALLER DUP7 PUSH2 0x3213 JUMP JUMPDEST PUSH2 0x2222 JUMP JUMPDEST PUSH1 0x0 JUMPDEST SWAP1 POP PUSH1 0x0 PUSH2 0x2230 DUP3 DUP8 PUSH2 0x4F51 JUMP JUMPDEST SWAP1 POP DUP3 PUSH1 0x1 PUSH1 0x1 PUSH1 0xA0 SHL SUB AND PUSH4 0x18160DDD PUSH1 0x40 MLOAD DUP2 PUSH4 0xFFFFFFFF AND PUSH1 0xE0 SHL DUP2 MSTORE PUSH1 0x4 ADD PUSH1 0x20 PUSH1 0x40 MLOAD DUP1 DUP4 SUB DUP2 DUP7 DUP1 EXTCODESIZE ISZERO DUP1 ISZERO PUSH2 0x226B JUMPI PUSH1 0x0 DUP1 REVERT JUMPDEST POP GAS STATICCALL ISZERO DUP1 ISZERO PUSH2 0x227F JUMPI RETURNDATASIZE PUSH1 0x0 DUP1 RETURNDATACOPY RETURNDATASIZE PUSH1 0x0 REVERT JUMPDEST POP POP POP POP PUSH1 0x40 MLOAD RETURNDATASIZE PUSH1 0x1F NOT PUSH1 0x1F DUP3 ADD AND DUP3 ADD DUP1 PUSH1 0x40 MSTORE POP DUP2 ADD SWAP1 PUSH2 0x22A3 SWAP2 SWAP1 PUSH2 0x4EED JUMP JUMPDEST DUP7 EQ ISZERO PUSH2 0x22AD JUMPI POP DUP5 JUMPDEST PUSH1 0x0 PUSH2 0x22C1 PUSH2 0x22BA PUSH2 0x13DC JUMP JUMPDEST DUP4 SWAP1 PUSH2 0x3D67 JUMP JUMPDEST SWAP1 POP DUP6 DUP2 LT ISZERO PUSH1 0x40 MLOAD DUP1 PUSH1 0x60 ADD PUSH1 0x40 MSTORE DUP1 PUSH1 0x2D DUP2 MSTORE PUSH1 0x20 ADD PUSH2 0x4FC6 PUSH1 0x2D SWAP2 CODECOPY SWAP1 PUSH2 0x22FE JUMPI PUSH1 0x40 MLOAD PUSH3 0x461BCD PUSH1 0xE5 SHL DUP2 MSTORE PUSH1 0x4 ADD PUSH2 0xCC6 SWAP2 SWAP1 PUSH2 0x4C34 JUMP JUMPDEST POP PUSH2 0x2308 DUP2 PUSH2 0x3FE4 JUMP JUMPDEST PUSH1 0x40 MLOAD PUSH4 0x2770A7EB PUSH1 0xE2 SHL DUP2 MSTORE CALLER PUSH1 0x4 DUP3 ADD MSTORE PUSH1 0x24 DUP2 ADD DUP9 SWAP1 MSTORE PUSH1 0x1 PUSH1 0x1 PUSH1 0xA0 SHL SUB DUP6 AND SWAP1 PUSH4 0x9DC29FAC SWAP1 PUSH1 0x44 ADD PUSH1 0x20 PUSH1 0x40 MLOAD DUP1 DUP4 SUB DUP2 PUSH1 0x0 DUP8 DUP1 EXTCODESIZE ISZERO DUP1 ISZERO PUSH2 0x2350 JUMPI PUSH1 0x0 DUP1 REVERT JUMPDEST POP GAS CALL ISZERO DUP1 ISZERO PUSH2 0x2364 JUMPI RETURNDATASIZE PUSH1 0x0 DUP1 RETURNDATACOPY RETURNDATASIZE PUSH1 0x0 REVERT JUMPDEST POP POP POP POP PUSH1 0x40 MLOAD RETURNDATASIZE PUSH1 0x1F NOT PUSH1 0x1F DUP3 ADD AND DUP3 ADD DUP1 PUSH1 0x40 MSTORE POP DUP2 ADD SWAP1 PUSH2 0x2388 SWAP2 SWAP1 PUSH2 0x4EED JUMP JUMPDEST POP PUSH2 0x2393 CALLER DUP3 PUSH2 0x4222 JUMP JUMPDEST PUSH1 0x40 DUP1 MLOAD DUP3 DUP2 MSTORE PUSH1 0x20 DUP2 ADD DUP10 SWAP1 MSTORE CALLER SWAP2 PUSH32 0xE5B754FB1ABB7F01B499791D0B820AE3B6AF3424AC1C59768EDB53F4EC31A929 SWAP2 ADD PUSH1 0x40 MLOAD DUP1 SWAP2 SUB SWAP1 LOG2 SWAP7 SWAP6 POP POP POP POP POP POP JUMP JUMPDEST PUSH1 0x0 PUSH2 0x23E3 CALLER PUSH2 0x3C2B JUMP JUMPDEST PUSH1 0x40 MLOAD DUP1 PUSH1 0x40 ADD PUSH1 0x40 MSTORE DUP1 PUSH1 0x12 DUP2 MSTORE PUSH1 0x20 ADD PUSH18 0x18DBDB9D1C9858DD081A5CC81C185D5CD959 PUSH1 0x72 SHL DUP2 MSTORE POP SWAP1 PUSH2 0x242C JUMPI PUSH1 0x40 MLOAD PUSH3 0x461BCD PUSH1 0xE5 SHL DUP2 MSTORE PUSH1 0x4 ADD PUSH2 0xCC6 SWAP2 SWAP1 PUSH2 0x4C34 JUMP JUMPDEST POP POP PUSH1 0x5 DUP1 SLOAD PUSH1 0xFF NOT AND PUSH1 0x1 SWAP1 DUP2 OR SWAP1 SWAP2 SSTORE SWAP1 JUMP JUMPDEST PUSH2 0x2449 PUSH2 0x3A1E JUMP JUMPDEST PUSH1 0x40 MLOAD PUSH4 0x24745215 PUSH1 0xE2 SHL DUP2 MSTORE PUSH10 0x676F7665726E616E6365 PUSH1 0xB0 SHL PUSH1 0x4 DUP3 ADD MSTORE CALLER PUSH1 0x24 DUP3 ADD MSTORE PUSH1 0x1 PUSH1 0x1 PUSH1 0xA0 SHL SUB SWAP2 SWAP1 SWAP2 AND SWAP1 PUSH4 0x91D14854 SWAP1 PUSH1 0x44 ADD PUSH1 0x20 PUSH1 0x40 MLOAD DUP1 DUP4 SUB DUP2 DUP7 DUP1 EXTCODESIZE ISZERO DUP1 ISZERO PUSH2 0x249D JUMPI PUSH1 0x0 DUP1 REVERT JUMPDEST POP GAS STATICCALL ISZERO DUP1 ISZERO PUSH2 0x24B1 JUMPI RETURNDATASIZE PUSH1 0x0 DUP1 RETURNDATACOPY RETURNDATASIZE PUSH1 0x0 REVERT JUMPDEST POP POP POP POP PUSH1 0x40 MLOAD RETURNDATASIZE PUSH1 0x1F NOT PUSH1 0x1F DUP3 ADD AND DUP3 ADD DUP1 PUSH1 0x40 MSTORE POP DUP2 ADD SWAP1 PUSH2 0x24D5 SWAP2 SWAP1 PUSH2 0x4ECB JUMP JUMPDEST PUSH1 0x40 MLOAD DUP1 PUSH1 0x40 ADD PUSH1 0x40 MSTORE DUP1 PUSH1 0x13 DUP2 MSTORE PUSH1 0x20 ADD PUSH1 0x0 DUP1 MLOAD PUSH1 0x20 PUSH2 0x5013 DUP4 CODECOPY DUP2 MLOAD SWAP2 MSTORE DUP2 MSTORE POP SWAP1 PUSH2 0x2517 JUMPI PUSH1 0x40 MLOAD PUSH3 0x461BCD PUSH1 0xE5 SHL DUP2 MSTORE PUSH1 0x4 ADD PUSH2 0xCC6 SWAP2 SWAP1 PUSH2 0x4C34 JUMP JUMPDEST POP PUSH2 0x2520 PUSH2 0x267B JUMP JUMPDEST PUSH1 0x1 PUSH1 0x1 PUSH1 0xA0 SHL SUB AND PUSH4 0x853828B6 PUSH1 0x40 MLOAD DUP2 PUSH4 0xFFFFFFFF AND PUSH1 0xE0 SHL DUP2 MSTORE PUSH1 0x4 ADD PUSH1 0x0 PUSH1 0x40 MLOAD DUP1 DUP4 SUB DUP2 PUSH1 0x0 DUP8 DUP1 EXTCODESIZE ISZERO DUP1 ISZERO PUSH2 0x255A JUMPI PUSH1 0x0 DUP1 REVERT JUMPDEST POP GAS CALL ISZERO DUP1 ISZERO PUSH2 0x256E JUMPI RETURNDATASIZE PUSH1 0x0 DUP1 RETURNDATACOPY RETURNDATASIZE PUSH1 0x0 REVERT JUMPDEST POP POP POP POP JUMP JUMPDEST PUSH1 0x0 PUSH2 0x257E PUSH2 0x3A1E JUMP JUMPDEST PUSH1 0x40 MLOAD PUSH4 0x24745215 PUSH1 0xE2 SHL DUP2 MSTORE PUSH10 0x676F7665726E616E6365 PUSH1 0xB0 SHL PUSH1 0x4 DUP3 ADD MSTORE CALLER PUSH1 0x24 DUP3 ADD MSTORE PUSH1 0x1 PUSH1 0x1 PUSH1 0xA0 SHL SUB SWAP2 SWAP1 SWAP2 AND SWAP1 PUSH4 0x91D14854 SWAP1 PUSH1 0x44 ADD PUSH1 0x20 PUSH1 0x40 MLOAD DUP1 DUP4 SUB DUP2 DUP7 DUP1 EXTCODESIZE ISZERO DUP1 ISZERO PUSH2 0x25D2 JUMPI PUSH1 0x0 DUP1 REVERT JUMPDEST POP GAS STATICCALL ISZERO DUP1 ISZERO PUSH2 0x25E6 JUMPI RETURNDATASIZE PUSH1 0x0 DUP1 RETURNDATACOPY RETURNDATASIZE PUSH1 0x0 REVERT JUMPDEST POP POP POP POP PUSH1 0x40 MLOAD RETURNDATASIZE PUSH1 0x1F NOT PUSH1 0x1F DUP3 ADD AND DUP3 ADD DUP1 PUSH1 0x40 MSTORE POP DUP2 ADD SWAP1 PUSH2 0x260A SWAP2 SWAP1 PUSH2 0x4ECB JUMP JUMPDEST PUSH1 0x40 MLOAD DUP1 PUSH1 0x40 ADD PUSH1 0x40 MSTORE DUP1 PUSH1 0x13 DUP2 MSTORE PUSH1 0x20 ADD PUSH1 0x0 DUP1 MLOAD PUSH1 0x20 PUSH2 0x5013 DUP4 CODECOPY DUP2 MLOAD SWAP2 MSTORE DUP2 MSTORE POP SWAP1 PUSH2 0x264C JUMPI PUSH1 0x40 MLOAD PUSH3 0x461BCD PUSH1 0xE5 SHL DUP2 MSTORE PUSH1 0x4 ADD PUSH2 0xCC6 SWAP2 SWAP1 PUSH2 0x4C34 JUMP JUMPDEST POP PUSH2 0x265E DUP3 PUSH2 0x2659 PUSH2 0x1D72 JUMP JUMPDEST PUSH2 0x3CC3 JUMP JUMPDEST PUSH2 0x12C3 PUSH16 0x4D696E5769746864726177616C466565 PUSH1 0x80 SHL DUP4 PUSH2 0x3D57 JUMP JUMPDEST PUSH5 0x15985D5B1D PUSH1 0xDA SHL PUSH1 0x0 MSTORE PUSH1 0x2 PUSH1 0x20 MSTORE PUSH32 0xC867D482BA9CD7435D7B7450243553D6E2A33C30F68E5A536CBA3964E00C8AAD SLOAD PUSH1 0x1 PUSH1 0x1 PUSH1 0xA0 SHL SUB AND SWAP1 JUMP JUMPDEST PUSH2 0x26C2 PUSH2 0x3A1E JUMP JUMPDEST PUSH1 0x40 MLOAD PUSH4 0x24745215 PUSH1 0xE2 SHL DUP2 MSTORE PUSH10 0x676F7665726E616E6365 PUSH1 0xB0 SHL PUSH1 0x4 DUP3 ADD MSTORE CALLER PUSH1 0x24 DUP3 ADD MSTORE PUSH1 0x1 PUSH1 0x1 PUSH1 0xA0 SHL SUB SWAP2 SWAP1 SWAP2 AND SWAP1 PUSH4 0x91D14854 SWAP1 PUSH1 0x44 ADD PUSH1 0x20 PUSH1 0x40 MLOAD DUP1 DUP4 SUB DUP2 DUP7 DUP1 EXTCODESIZE ISZERO DUP1 ISZERO PUSH2 0x2716 JUMPI PUSH1 0x0 DUP1 REVERT JUMPDEST POP GAS STATICCALL ISZERO DUP1 ISZERO PUSH2 0x272A JUMPI RETURNDATASIZE PUSH1 0x0 DUP1 RETURNDATACOPY RETURNDATASIZE PUSH1 0x0 REVERT JUMPDEST POP POP POP POP PUSH1 0x40 MLOAD RETURNDATASIZE PUSH1 0x1F NOT PUSH1 0x1F DUP3 ADD AND DUP3 ADD DUP1 PUSH1 0x40 MSTORE POP DUP2 ADD SWAP1 PUSH2 0x274E SWAP2 SWAP1 PUSH2 0x4ECB JUMP JUMPDEST PUSH1 0x40 MLOAD DUP1 PUSH1 0x40 ADD PUSH1 0x40 MSTORE DUP1 PUSH1 0x13 DUP2 MSTORE PUSH1 0x20 ADD PUSH1 0x0 DUP1 MLOAD PUSH1 0x20 PUSH2 0x5013 DUP4 CODECOPY DUP2 MLOAD SWAP2 MSTORE DUP2 MSTORE POP SWAP1 PUSH2 0x2790 JUMPI PUSH1 0x40 MLOAD PUSH3 0x461BCD PUSH1 0xE5 SHL DUP2 MSTORE PUSH1 0x4 ADD PUSH2 0xCC6 SWAP2 SWAP1 PUSH2 0x4C34 JUMP JUMPDEST POP PUSH2 0x2799 PUSH2 0x3BF2 JUMP JUMPDEST JUMP JUMPDEST PUSH1 0x0 DUP1 PUSH2 0x27BA PUSH16 0x4D61785769746864726177616C466565 PUSH1 0x80 SHL PUSH2 0x3BCE JUMP JUMPDEST SWAP1 POP PUSH2 0x10B1 PUSH2 0x27C7 PUSH2 0x11F4 JUMP JUMPDEST DUP3 PUSH2 0x3CC3 JUMP JUMPDEST PUSH1 0x0 PUSH10 0x676F7665726E616E6365 PUSH1 0xB0 SHL PUSH12 0x706F6F6C5F666163746F7279 PUSH1 0xA0 SHL PUSH2 0x27F5 PUSH2 0x3A1E JUMP JUMPDEST PUSH1 0x40 MLOAD PUSH4 0x6BAB5211 PUSH1 0xE1 SHL DUP2 MSTORE PUSH1 0x4 DUP2 ADD DUP5 SWAP1 MSTORE PUSH1 0x24 DUP2 ADD DUP4 SWAP1 MSTORE CALLER PUSH1 0x44 DUP3 ADD MSTORE PUSH1 0x1 PUSH1 0x1 PUSH1 0xA0 SHL SUB SWAP2 SWAP1 SWAP2 AND SWAP1 PUSH4 0xD756A422 SWAP1 PUSH1 0x64 ADD PUSH1 0x20 PUSH1 0x40 MLOAD DUP1 DUP4 SUB DUP2 DUP7 DUP1 EXTCODESIZE ISZERO DUP1 ISZERO PUSH2 0x2844 JUMPI PUSH1 0x0 DUP1 REVERT JUMPDEST POP GAS STATICCALL ISZERO DUP1 ISZERO PUSH2 0x2858 JUMPI RETURNDATASIZE PUSH1 0x0 DUP1 RETURNDATACOPY RETURNDATASIZE PUSH1 0x0 REVERT JUMPDEST POP POP POP POP PUSH1 0x40 MLOAD RETURNDATASIZE PUSH1 0x1F NOT PUSH1 0x1F DUP3 ADD AND DUP3 ADD DUP1 PUSH1 0x40 MSTORE POP DUP2 ADD SWAP1 PUSH2 0x287C SWAP2 SWAP1 PUSH2 0x4ECB JUMP JUMPDEST PUSH1 0x40 MLOAD DUP1 PUSH1 0x40 ADD PUSH1 0x40 MSTORE DUP1 PUSH1 0x13 DUP2 MSTORE PUSH1 0x20 ADD PUSH1 0x0 DUP1 MLOAD PUSH1 0x20 PUSH2 0x5013 DUP4 CODECOPY DUP2 MLOAD SWAP2 MSTORE DUP2 MSTORE POP SWAP1 PUSH2 0x28BE JUMPI PUSH1 0x40 MLOAD PUSH3 0x461BCD PUSH1 0xE5 SHL DUP2 MSTORE PUSH1 0x4 ADD PUSH2 0xCC6 SWAP2 SWAP1 PUSH2 0x4C34 JUMP JUMPDEST POP PUSH1 0x9 SLOAD PUSH1 0x40 DUP1 MLOAD DUP1 DUP3 ADD SWAP1 SWAP2 MSTORE PUSH1 0x16 DUP2 MSTORE PUSH22 0x1059191C995CDCC81A5CC8185B1C9958591E481CD95D PUSH1 0x52 SHL PUSH1 0x20 DUP3 ADD MSTORE SWAP1 PUSH1 0x1 PUSH1 0x1 PUSH1 0xA0 SHL SUB AND ISZERO PUSH2 0x2917 JUMPI PUSH1 0x40 MLOAD PUSH3 0x461BCD PUSH1 0xE5 SHL DUP2 MSTORE PUSH1 0x4 ADD PUSH2 0xCC6 SWAP2 SWAP1 PUSH2 0x4C34 JUMP JUMPDEST POP ADDRESS PUSH1 0x1 PUSH1 0x1 PUSH1 0xA0 SHL SUB AND DUP5 PUSH1 0x1 PUSH1 0x1 PUSH1 0xA0 SHL SUB AND PUSH4 0x7546172 PUSH1 0x40 MLOAD DUP2 PUSH4 0xFFFFFFFF AND PUSH1 0xE0 SHL DUP2 MSTORE PUSH1 0x4 ADD PUSH1 0x20 PUSH1 0x40 MLOAD DUP1 DUP4 SUB DUP2 DUP7 DUP1 EXTCODESIZE ISZERO DUP1 ISZERO PUSH2 0x295B JUMPI PUSH1 0x0 DUP1 REVERT JUMPDEST POP GAS STATICCALL ISZERO DUP1 ISZERO PUSH2 0x296F JUMPI RETURNDATASIZE PUSH1 0x0 DUP1 RETURNDATACOPY RETURNDATASIZE PUSH1 0x0 REVERT JUMPDEST POP POP POP POP PUSH1 0x40 MLOAD RETURNDATASIZE PUSH1 0x1F NOT PUSH1 0x1F DUP3 ADD AND DUP3 ADD DUP1 PUSH1 0x40 MSTORE POP DUP2 ADD SWAP1 PUSH2 0x2993 SWAP2 SWAP1 PUSH2 0x4F34 JUMP JUMPDEST PUSH1 0x1 PUSH1 0x1 PUSH1 0xA0 SHL SUB AND EQ PUSH1 0x40 MLOAD DUP1 PUSH1 0x80 ADD PUSH1 0x40 MSTORE DUP1 PUSH1 0x44 DUP2 MSTORE PUSH1 0x20 ADD PUSH2 0x5054 PUSH1 0x44 SWAP2 CODECOPY SWAP1 PUSH2 0x29D4 JUMPI PUSH1 0x40 MLOAD PUSH3 0x461BCD PUSH1 0xE5 SHL DUP2 MSTORE PUSH1 0x4 ADD PUSH2 0xCC6 SWAP2 SWAP1 PUSH2 0x4C34 JUMP JUMPDEST POP PUSH1 0x9 DUP1 SLOAD PUSH1 0x1 PUSH1 0x1 PUSH1 0xA0 SHL SUB NOT AND PUSH1 0x1 PUSH1 0x1 PUSH1 0xA0 SHL SUB DUP7 AND OR SWAP1 SSTORE PUSH2 0x29F8 PUSH2 0x3F9A JUMP JUMPDEST PUSH1 0x40 MLOAD PUSH1 0x1 PUSH1 0x1 PUSH1 0xA0 SHL SUB DUP6 AND SWAP1 PUSH32 0x1C1820B4910E7E24202FA882184FDE52E795A3113B621DED50B099B270159ACC SWAP1 PUSH1 0x0 SWAP1 LOG2 POP PUSH1 0x1 SWAP4 SWAP3 POP POP POP JUMP JUMPDEST PUSH1 0x0 PUSH2 0x2A40 PUSH2 0x3A1E JUMP JUMPDEST PUSH1 0x40 MLOAD PUSH4 0x24745215 PUSH1 0xE2 SHL DUP2 MSTORE PUSH10 0x676F7665726E616E6365 PUSH1 0xB0 SHL PUSH1 0x4 DUP3 ADD MSTORE CALLER PUSH1 0x24 DUP3 ADD MSTORE PUSH1 0x1 PUSH1 0x1 PUSH1 0xA0 SHL SUB SWAP2 SWAP1 SWAP2 AND SWAP1 PUSH4 0x91D14854 SWAP1 PUSH1 0x44 ADD PUSH1 0x20 PUSH1 0x40 MLOAD DUP1 DUP4 SUB DUP2 DUP7 DUP1 EXTCODESIZE ISZERO DUP1 ISZERO PUSH2 0x2A94 JUMPI PUSH1 0x0 DUP1 REVERT JUMPDEST POP GAS STATICCALL ISZERO DUP1 ISZERO PUSH2 0x2AA8 JUMPI RETURNDATASIZE PUSH1 0x0 DUP1 RETURNDATACOPY RETURNDATASIZE PUSH1 0x0 REVERT JUMPDEST POP POP POP POP PUSH1 0x40 MLOAD RETURNDATASIZE PUSH1 0x1F NOT PUSH1 0x1F DUP3 ADD AND DUP3 ADD DUP1 PUSH1 0x40 MSTORE POP DUP2 ADD SWAP1 PUSH2 0x2ACC SWAP2 SWAP1 PUSH2 0x4ECB JUMP JUMPDEST PUSH1 0x40 MLOAD DUP1 PUSH1 0x40 ADD PUSH1 0x40 MSTORE DUP1 PUSH1 0x13 DUP2 MSTORE PUSH1 0x20 ADD PUSH1 0x0 DUP1 MLOAD PUSH1 0x20 PUSH2 0x5013 DUP4 CODECOPY DUP2 MLOAD SWAP2 MSTORE DUP2 MSTORE POP SWAP1 PUSH2 0x2B0E JUMPI PUSH1 0x40 MLOAD PUSH3 0x461BCD PUSH1 0xE5 SHL DUP2 MSTORE PUSH1 0x4 ADD PUSH2 0xCC6 SWAP2 SWAP1 PUSH2 0x4C34 JUMP JUMPDEST POP PUSH2 0xB5B PUSH16 0x52657175697265645265736572766573 PUSH1 0x80 SHL PUSH2 0x3A42 JUMP JUMPDEST PUSH1 0x0 DUP1 PUSH2 0x2B4A PUSH16 0x4D696E5769746864726177616C466565 PUSH1 0x80 SHL PUSH2 0x3BCE JUMP JUMPDEST SWAP1 POP PUSH2 0x10B1 DUP2 PUSH2 0x2659 PUSH2 0x1D72 JUMP JUMPDEST PUSH1 0x0 PUSH2 0x2B62 PUSH2 0x3A1E JUMP JUMPDEST PUSH1 0x40 MLOAD PUSH4 0x24745215 PUSH1 0xE2 SHL DUP2 MSTORE PUSH10 0x676F7665726E616E6365 PUSH1 0xB0 SHL PUSH1 0x4 DUP3 ADD MSTORE CALLER PUSH1 0x24 DUP3 ADD MSTORE PUSH1 0x1 PUSH1 0x1 PUSH1 0xA0 SHL SUB SWAP2 SWAP1 SWAP2 AND SWAP1 PUSH4 0x91D14854 SWAP1 PUSH1 0x44 ADD PUSH1 0x20 PUSH1 0x40 MLOAD DUP1 DUP4 SUB DUP2 DUP7 DUP1 EXTCODESIZE ISZERO DUP1 ISZERO PUSH2 0x2BB6 JUMPI PUSH1 0x0 DUP1 REVERT JUMPDEST POP GAS STATICCALL ISZERO DUP1 ISZERO PUSH2 0x2BCA JUMPI RETURNDATASIZE PUSH1 0x0 DUP1 RETURNDATACOPY RETURNDATASIZE PUSH1 0x0 REVERT JUMPDEST POP POP POP POP PUSH1 0x40 MLOAD RETURNDATASIZE PUSH1 0x1F NOT PUSH1 0x1F DUP3 ADD AND DUP3 ADD DUP1 PUSH1 0x40 MSTORE POP DUP2 ADD SWAP1 PUSH2 0x2BEE SWAP2 SWAP1 PUSH2 0x4ECB JUMP JUMPDEST PUSH1 0x40 MLOAD DUP1 PUSH1 0x40 ADD PUSH1 0x40 MSTORE DUP1 PUSH1 0x13 DUP2 MSTORE PUSH1 0x20 ADD PUSH1 0x0 DUP1 MLOAD PUSH1 0x20 PUSH2 0x5013 DUP4 CODECOPY DUP2 MLOAD SWAP2 MSTORE DUP2 MSTORE POP SWAP1 PUSH2 0x2C30 JUMPI PUSH1 0x40 MLOAD PUSH3 0x461BCD PUSH1 0xE5 SHL DUP2 MSTORE PUSH1 0x4 ADD PUSH2 0xCC6 SWAP2 SWAP1 PUSH2 0x4C34 JUMP JUMPDEST POP PUSH2 0xB5B PUSH1 0x0 DUP1 MLOAD PUSH1 0x20 PUSH2 0x4FF3 DUP4 CODECOPY DUP2 MLOAD SWAP2 MSTORE PUSH2 0x3A42 JUMP JUMPDEST PUSH1 0x0 PUSH2 0x2C52 PUSH2 0x3A1E JUMP JUMPDEST PUSH1 0x40 MLOAD PUSH4 0x24745215 PUSH1 0xE2 SHL DUP2 MSTORE PUSH10 0x676F7665726E616E6365 PUSH1 0xB0 SHL PUSH1 0x4 DUP3 ADD MSTORE CALLER PUSH1 0x24 DUP3 ADD MSTORE PUSH1 0x1 PUSH1 0x1 PUSH1 0xA0 SHL SUB SWAP2 SWAP1 SWAP2 AND SWAP1 PUSH4 0x91D14854 SWAP1 PUSH1 0x44 ADD PUSH1 0x20 PUSH1 0x40 MLOAD DUP1 DUP4 SUB DUP2 DUP7 DUP1 EXTCODESIZE ISZERO DUP1 ISZERO PUSH2 0x2CA6 JUMPI PUSH1 0x0 DUP1 REVERT JUMPDEST POP GAS STATICCALL ISZERO DUP1 ISZERO PUSH2 0x2CBA JUMPI RETURNDATASIZE PUSH1 0x0 DUP1 RETURNDATACOPY RETURNDATASIZE PUSH1 0x0 REVERT JUMPDEST POP POP POP POP PUSH1 0x40 MLOAD RETURNDATASIZE PUSH1 0x1F NOT PUSH1 0x1F DUP3 ADD AND DUP3 ADD DUP1 PUSH1 0x40 MSTORE POP DUP2 ADD SWAP1 PUSH2 0x2CDE SWAP2 SWAP1 PUSH2 0x4ECB JUMP JUMPDEST PUSH1 0x40 MLOAD DUP1 PUSH1 0x40 ADD PUSH1 0x40 MSTORE DUP1 PUSH1 0x13 DUP2 MSTORE PUSH1 0x20 ADD PUSH1 0x0 DUP1 MLOAD PUSH1 0x20 PUSH2 0x5013 DUP4 CODECOPY DUP2 MLOAD SWAP2 MSTORE DUP2 MSTORE POP SWAP1 PUSH2 0x2D20 JUMPI PUSH1 0x40 MLOAD PUSH3 0x461BCD PUSH1 0xE5 SHL DUP2 MSTORE PUSH1 0x4 ADD PUSH2 0xCC6 SWAP2 SWAP1 PUSH2 0x4C34 JUMP JUMPDEST POP PUSH1 0x64 PUSH2 0x2D36 PUSH8 0xDE0B6B3A7640000 PUSH1 0x32 PUSH2 0x4F68 JUMP JUMPDEST PUSH2 0x2D40 SWAP2 SWAP1 PUSH2 0x4F87 JUMP JUMPDEST DUP3 GT ISZERO PUSH1 0x40 MLOAD DUP1 PUSH1 0x40 ADD PUSH1 0x40 MSTORE DUP1 PUSH1 0xE DUP2 MSTORE PUSH1 0x20 ADD PUSH14 0x1A5B9D985B1A5908185B5BDD5B9D PUSH1 0x92 SHL DUP2 MSTORE POP SWAP1 PUSH2 0x2D88 JUMPI PUSH1 0x40 MLOAD PUSH3 0x461BCD PUSH1 0xE5 SHL DUP2 MSTORE PUSH1 0x4 ADD PUSH2 0xCC6 SWAP2 SWAP1 PUSH2 0x4C34 JUMP JUMPDEST POP PUSH2 0x12C3 PUSH16 0x2932B9B2B93B32A232BB34B0BA34B7B7 PUSH1 0x81 SHL DUP4 PUSH2 0x3D57 JUMP JUMPDEST PUSH1 0x0 PUSH2 0x12C3 CALLER DUP4 PUSH1 0x0 PUSH2 0x1704 JUMP JUMPDEST PUSH1 0x0 DUP1 DUP3 GT PUSH1 0x40 MLOAD DUP1 PUSH1 0x40 ADD PUSH1 0x40 MSTORE DUP1 PUSH1 0xE DUP2 MSTORE PUSH1 0x20 ADD PUSH14 0x1A5B9D985B1A5908185B5BDD5B9D PUSH1 0x92 SHL DUP2 MSTORE POP SWAP1 PUSH2 0x2DFE JUMPI PUSH1 0x40 MLOAD PUSH3 0x461BCD PUSH1 0xE5 SHL DUP2 MSTORE PUSH1 0x4 ADD PUSH2 0xCC6 SWAP2 SWAP1 PUSH2 0x4C34 JUMP JUMPDEST POP PUSH1 0x9 SLOAD PUSH1 0x40 MLOAD PUSH4 0x70A08231 PUSH1 0xE0 SHL DUP2 MSTORE PUSH1 0x1 PUSH1 0x1 PUSH1 0xA0 SHL SUB DUP6 DUP2 AND PUSH1 0x4 DUP4 ADD MSTORE SWAP1 SWAP2 AND SWAP1 PUSH1 0x0 SWAP1 DUP3 SWAP1 PUSH4 0x70A08231 SWAP1 PUSH1 0x24 ADD PUSH1 0x20 PUSH1 0x40 MLOAD DUP1 DUP4 SUB DUP2 DUP7 DUP1 EXTCODESIZE ISZERO DUP1 ISZERO PUSH2 0x2E49 JUMPI PUSH1 0x0 DUP1 REVERT JUMPDEST POP GAS STATICCALL ISZERO DUP1 ISZERO PUSH2 0x2E5D JUMPI RETURNDATASIZE PUSH1 0x0 DUP1 RETURNDATACOPY RETURNDATASIZE PUSH1 0x0 REVERT JUMPDEST POP POP POP POP PUSH1 0x40 MLOAD RETURNDATASIZE PUSH1 0x1F NOT PUSH1 0x1F DUP3 ADD AND DUP3 ADD DUP1 PUSH1 0x40 MSTORE POP DUP2 ADD SWAP1 PUSH2 0x2E81 SWAP2 SWAP1 PUSH2 0x4EED JUMP JUMPDEST GT PUSH1 0x40 MLOAD DUP1 PUSH1 0x40 ADD PUSH1 0x40 MSTORE DUP1 PUSH1 0x14 DUP2 MSTORE PUSH1 0x20 ADD PUSH20 0x696E73756666696369656E742062616C616E6365 PUSH1 0x60 SHL DUP2 MSTORE POP SWAP1 PUSH2 0x2ECD JUMPI PUSH1 0x40 MLOAD PUSH3 0x461BCD PUSH1 0xE5 SHL DUP2 MSTORE PUSH1 0x4 ADD PUSH2 0xCC6 SWAP2 SWAP1 PUSH2 0x4C34 JUMP JUMPDEST POP PUSH1 0x0 PUSH2 0x2ED8 PUSH2 0x13DC JUMP JUMPDEST SWAP1 POP PUSH1 0x0 PUSH2 0x2EE6 DUP6 DUP4 PUSH2 0x3BFC JUMP JUMPDEST SWAP1 POP DUP3 PUSH1 0x1 PUSH1 0x1 PUSH1 0xA0 SHL SUB AND PUSH4 0x18160DDD PUSH1 0x40 MLOAD DUP2 PUSH4 0xFFFFFFFF AND PUSH1 0xE0 SHL DUP2 MSTORE PUSH1 0x4 ADD PUSH1 0x20 PUSH1 0x40 MLOAD DUP1 DUP4 SUB DUP2 DUP7 DUP1 EXTCODESIZE ISZERO DUP1 ISZERO PUSH2 0x2F21 JUMPI PUSH1 0x0 DUP1 REVERT JUMPDEST POP GAS STATICCALL ISZERO DUP1 ISZERO PUSH2 0x2F35 JUMPI RETURNDATASIZE PUSH1 0x0 DUP1 RETURNDATACOPY RETURNDATASIZE PUSH1 0x0 REVERT JUMPDEST POP POP POP POP PUSH1 0x40 MLOAD RETURNDATASIZE PUSH1 0x1F NOT PUSH1 0x1F DUP3 ADD AND DUP3 ADD DUP1 PUSH1 0x40 MSTORE POP DUP2 ADD SWAP1 PUSH2 0x2F59 SWAP2 SWAP1 PUSH2 0x4EED JUMP JUMPDEST DUP2 EQ ISZERO PUSH2 0x2F6A JUMPI SWAP3 POP PUSH2 0x12C3 SWAP2 POP POP JUMP JUMPDEST PUSH1 0x1 PUSH1 0x1 PUSH1 0xA0 SHL SUB DUP7 DUP2 AND PUSH1 0x0 DUP2 DUP2 MSTORE PUSH1 0x6 PUSH1 0x20 SWAP1 DUP2 MSTORE PUSH1 0x40 DUP1 DUP4 KECCAK256 DUP2 MLOAD PUSH1 0x60 DUP2 ADD DUP4 MSTORE SWAP1 SLOAD PUSH1 0x1 PUSH1 0x1 PUSH1 0x40 SHL SUB DUP1 DUP3 AND DUP4 MSTORE PUSH1 0x1 PUSH1 0x40 SHL DUP3 DIV DUP2 AND SWAP5 DUP4 ADD SWAP5 SWAP1 SWAP5 MSTORE PUSH1 0x1 PUSH1 0x80 SHL SWAP1 DIV SWAP1 SWAP3 AND DUP3 DUP3 ADD MSTORE MLOAD PUSH4 0x622E68CB PUSH1 0xE0 SHL DUP2 MSTORE PUSH1 0x4 DUP2 ADD SWAP4 SWAP1 SWAP4 MSTORE SWAP3 SWAP1 SWAP2 PUSH32 0x0 SWAP1 SWAP2 AND SWAP1 PUSH4 0x622E68CB SWAP1 PUSH1 0x24 ADD PUSH1 0x20 PUSH1 0x40 MLOAD DUP1 DUP4 SUB DUP2 DUP7 DUP1 EXTCODESIZE ISZERO DUP1 ISZERO PUSH2 0x3017 JUMPI PUSH1 0x0 DUP1 REVERT JUMPDEST POP GAS STATICCALL ISZERO DUP1 ISZERO PUSH2 0x302B JUMPI RETURNDATASIZE PUSH1 0x0 DUP1 RETURNDATACOPY RETURNDATASIZE PUSH1 0x0 REVERT JUMPDEST POP POP POP POP PUSH1 0x40 MLOAD RETURNDATASIZE PUSH1 0x1F NOT PUSH1 0x1F DUP3 ADD AND DUP3 ADD DUP1 PUSH1 0x40 MSTORE POP DUP2 ADD SWAP1 PUSH2 0x304F SWAP2 SWAP1 PUSH2 0x4ECB JUMP JUMPDEST PUSH2 0x3088 JUMPI PUSH2 0x3085 DUP3 PUSH1 0x0 ADD MLOAD PUSH1 0x1 PUSH1 0x1 PUSH1 0x40 SHL SUB AND DUP4 PUSH1 0x40 ADD MLOAD PUSH1 0x1 PUSH1 0x1 PUSH1 0x40 SHL SUB AND DUP5 PUSH1 0x20 ADD MLOAD PUSH1 0x1 PUSH1 0x1 PUSH1 0x40 SHL SUB AND PUSH2 0x31B7 JUMP JUMPDEST SWAP1 POP JUMPDEST PUSH1 0x0 PUSH2 0x30A6 PUSH2 0x309F DUP4 PUSH8 0xDE0B6B3A7640000 PUSH2 0x4F51 JUMP JUMPDEST DUP7 SWAP1 PUSH2 0x3D67 JUMP JUMPDEST SWAP1 POP PUSH1 0x0 PUSH2 0x30B4 DUP10 DUP4 PUSH2 0x4258 JUMP JUMPDEST SWAP11 SWAP10 POP POP POP POP POP POP POP POP POP POP JUMP JUMPDEST PUSH1 0x0 DUP1 PUSH2 0x30CD PUSH2 0x267B JUMP JUMPDEST SWAP1 POP PUSH1 0x0 PUSH2 0x30D9 PUSH2 0x4284 JUMP JUMPDEST SWAP1 POP PUSH1 0x1 PUSH1 0x1 PUSH1 0xA0 SHL SUB DUP3 AND PUSH2 0x30EF JUMPI SWAP3 SWAP2 POP POP JUMP JUMPDEST PUSH1 0x0 DUP3 PUSH1 0x1 PUSH1 0x1 PUSH1 0xA0 SHL SUB AND PUSH4 0xB40494E5 PUSH1 0x40 MLOAD DUP2 PUSH4 0xFFFFFFFF AND PUSH1 0xE0 SHL DUP2 MSTORE PUSH1 0x4 ADD PUSH1 0x20 PUSH1 0x40 MLOAD DUP1 DUP4 SUB DUP2 DUP7 DUP1 EXTCODESIZE ISZERO DUP1 ISZERO PUSH2 0x312A JUMPI PUSH1 0x0 DUP1 REVERT JUMPDEST POP GAS STATICCALL ISZERO DUP1 ISZERO PUSH2 0x313E JUMPI RETURNDATASIZE PUSH1 0x0 DUP1 RETURNDATACOPY RETURNDATASIZE PUSH1 0x0 REVERT JUMPDEST POP POP POP POP PUSH1 0x40 MLOAD RETURNDATASIZE PUSH1 0x1F NOT PUSH1 0x1F DUP3 ADD AND DUP3 ADD DUP1 PUSH1 0x40 MSTORE POP DUP2 ADD SWAP1 PUSH2 0x3162 SWAP2 SWAP1 PUSH2 0x4EED JUMP JUMPDEST SWAP1 POP PUSH2 0x316E DUP3 DUP3 PUSH2 0x4F1C JUMP JUMPDEST SWAP4 POP POP POP POP SWAP1 JUMP JUMPDEST PUSH16 0x2932B9B2B93B32A232BB34B0BA34B7B7 PUSH1 0x81 SHL PUSH1 0x0 MSTORE PUSH1 0x3 PUSH1 0x20 MSTORE PUSH32 0xF61AD85D902C01A6C2756008DBC41A8113DA437E01EE2BC9DF8881FED1C48C2E SLOAD SWAP1 JUMP JUMPDEST PUSH1 0x0 DUP1 PUSH2 0x31C4 DUP5 TIMESTAMP PUSH2 0x4F51 JUMP JUMPDEST SWAP1 POP PUSH1 0x0 PUSH2 0x31D0 PUSH2 0x11F4 JUMP JUMPDEST SWAP1 POP DUP6 DUP3 LT PUSH2 0x31E2 JUMPI SWAP2 POP PUSH2 0x1A74 SWAP1 POP JUMP JUMPDEST PUSH1 0x0 PUSH2 0x31EE DUP4 DUP9 PUSH2 0x3BFC JUMP JUMPDEST SWAP1 POP PUSH2 0x31FE DUP2 PUSH2 0x1884 DUP5 DUP9 PUSH2 0x4F51 JUMP JUMPDEST PUSH2 0x3208 SWAP1 DUP7 PUSH2 0x4F51 JUMP JUMPDEST SWAP8 SWAP7 POP POP POP POP POP POP POP JUMP JUMPDEST PUSH1 0x1 PUSH1 0x1 PUSH1 0xA0 SHL SUB DUP3 DUP2 AND PUSH1 0x0 DUP2 DUP2 MSTORE PUSH1 0x6 PUSH1 0x20 SWAP1 DUP2 MSTORE PUSH1 0x40 DUP1 DUP4 KECCAK256 DUP2 MLOAD PUSH1 0x60 DUP2 ADD DUP4 MSTORE SWAP1 SLOAD PUSH1 0x1 PUSH1 0x1 PUSH1 0x40 SHL SUB DUP1 DUP3 AND DUP4 MSTORE PUSH1 0x1 PUSH1 0x40 SHL DUP3 DIV DUP2 AND SWAP5 DUP4 ADD SWAP5 SWAP1 SWAP5 MSTORE PUSH1 0x1 PUSH1 0x80 SHL SWAP1 DIV SWAP1 SWAP3 AND DUP3 DUP3 ADD MSTORE PUSH1 0x9 SLOAD SWAP1 MLOAD PUSH4 0x70A08231 PUSH1 0xE0 SHL DUP2 MSTORE PUSH1 0x4 DUP2 ADD SWAP5 SWAP1 SWAP5 MSTORE SWAP2 SWAP4 SWAP1 SWAP3 SWAP2 AND SWAP1 PUSH4 0x70A08231 SWAP1 PUSH1 0x24 ADD PUSH1 0x20 PUSH1 0x40 MLOAD DUP1 DUP4 SUB DUP2 DUP7 DUP1 EXTCODESIZE ISZERO DUP1 ISZERO PUSH2 0x32A3 JUMPI PUSH1 0x0 DUP1 REVERT JUMPDEST POP GAS STATICCALL ISZERO DUP1 ISZERO PUSH2 0x32B7 JUMPI RETURNDATASIZE PUSH1 0x0 DUP1 RETURNDATACOPY RETURNDATASIZE PUSH1 0x0 REVERT JUMPDEST POP POP POP POP PUSH1 0x40 MLOAD RETURNDATASIZE PUSH1 0x1F NOT PUSH1 0x1F DUP3 ADD AND DUP3 ADD DUP1 PUSH1 0x40 MSTORE POP DUP2 ADD SWAP1 PUSH2 0x32DB SWAP2 SWAP1 PUSH2 0x4EED JUMP JUMPDEST PUSH2 0x32E9 JUMPI PUSH1 0x0 SWAP2 POP POP PUSH2 0x12C3 JUMP JUMPDEST PUSH1 0x0 PUSH2 0x331D DUP3 PUSH1 0x0 ADD MLOAD PUSH1 0x1 PUSH1 0x1 PUSH1 0x40 SHL SUB AND DUP4 PUSH1 0x40 ADD MLOAD PUSH1 0x1 PUSH1 0x1 PUSH1 0x40 SHL SUB AND DUP5 PUSH1 0x20 ADD MLOAD PUSH1 0x1 PUSH1 0x1 PUSH1 0x40 SHL SUB AND PUSH2 0x31B7 JUMP JUMPDEST SWAP1 POP PUSH2 0x3329 DUP5 DUP3 PUSH2 0x3D67 JUMP JUMPDEST SWAP6 SWAP5 POP POP POP POP POP JUMP JUMPDEST PUSH1 0x0 PUSH2 0x12C3 DUP3 PUSH1 0x0 PUSH2 0x205A JUMP JUMPDEST PUSH1 0x0 PUSH2 0x12C0 CALLER DUP5 DUP5 PUSH2 0x1704 JUMP JUMPDEST PUSH1 0x0 PUSH2 0x3356 PUSH2 0x3A1E JUMP JUMPDEST PUSH1 0x40 MLOAD PUSH4 0x24745215 PUSH1 0xE2 SHL DUP2 MSTORE PUSH10 0x676F7665726E616E6365 PUSH1 0xB0 SHL PUSH1 0x4 DUP3 ADD MSTORE CALLER PUSH1 0x24 DUP3 ADD MSTORE PUSH1 0x1 PUSH1 0x1 PUSH1 0xA0 SHL SUB SWAP2 SWAP1 SWAP2 AND SWAP1 PUSH4 0x91D14854 SWAP1 PUSH1 0x44 ADD PUSH1 0x20 PUSH1 0x40 MLOAD DUP1 DUP4 SUB DUP2 DUP7 DUP1 EXTCODESIZE ISZERO DUP1 ISZERO PUSH2 0x33AA JUMPI PUSH1 0x0 DUP1 REVERT JUMPDEST POP GAS STATICCALL ISZERO DUP1 ISZERO PUSH2 0x33BE JUMPI RETURNDATASIZE PUSH1 0x0 DUP1 RETURNDATACOPY RETURNDATASIZE PUSH1 0x0 REVERT JUMPDEST POP POP POP POP PUSH1 0x40 MLOAD RETURNDATASIZE PUSH1 0x1F NOT PUSH1 0x1F DUP3 ADD AND DUP3 ADD DUP1 PUSH1 0x40 MSTORE POP DUP2 ADD SWAP1 PUSH2 0x33E2 SWAP2 SWAP1 PUSH2 0x4ECB JUMP JUMPDEST PUSH1 0x40 MLOAD DUP1 PUSH1 0x40 ADD PUSH1 0x40 MSTORE DUP1 PUSH1 0x13 DUP2 MSTORE PUSH1 0x20 ADD PUSH1 0x0 DUP1 MLOAD PUSH1 0x20 PUSH2 0x5013 DUP4 CODECOPY DUP2 MLOAD SWAP2 MSTORE DUP2 MSTORE POP SWAP1 PUSH2 0x3424 JUMPI PUSH1 0x40 MLOAD PUSH3 0x461BCD PUSH1 0xE5 SHL DUP2 MSTORE PUSH1 0x4 ADD PUSH2 0xCC6 SWAP2 SWAP1 PUSH2 0x4C34 JUMP JUMPDEST POP PUSH2 0x12C3 PUSH1 0x0 DUP1 MLOAD PUSH1 0x20 PUSH2 0x4FF3 DUP4 CODECOPY DUP2 MLOAD SWAP2 MSTORE DUP4 PUSH2 0x3D57 JUMP JUMPDEST PUSH1 0x0 PUSH2 0x3447 PUSH2 0x3A1E JUMP JUMPDEST PUSH1 0x40 MLOAD PUSH4 0x24745215 PUSH1 0xE2 SHL DUP2 MSTORE PUSH10 0x676F7665726E616E6365 PUSH1 0xB0 SHL PUSH1 0x4 DUP3 ADD MSTORE CALLER PUSH1 0x24 DUP3 ADD MSTORE PUSH1 0x1 PUSH1 0x1 PUSH1 0xA0 SHL SUB SWAP2 SWAP1 SWAP2 AND SWAP1 PUSH4 0x91D14854 SWAP1 PUSH1 0x44 ADD PUSH1 0x20 PUSH1 0x40 MLOAD DUP1 DUP4 SUB DUP2 DUP7 DUP1 EXTCODESIZE ISZERO DUP1 ISZERO PUSH2 0x349B JUMPI PUSH1 0x0 DUP1 REVERT JUMPDEST POP GAS STATICCALL ISZERO DUP1 ISZERO PUSH2 0x34AF JUMPI RETURNDATASIZE PUSH1 0x0 DUP1 RETURNDATACOPY RETURNDATASIZE PUSH1 0x0 REVERT JUMPDEST POP POP POP POP PUSH1 0x40 MLOAD RETURNDATASIZE PUSH1 0x1F NOT PUSH1 0x1F DUP3 ADD AND DUP3 ADD DUP1 PUSH1 0x40 MSTORE POP DUP2 ADD SWAP1 PUSH2 0x34D3 SWAP2 SWAP1 PUSH2 0x4ECB JUMP JUMPDEST PUSH1 0x40 MLOAD DUP1 PUSH1 0x40 ADD PUSH1 0x40 MSTORE DUP1 PUSH1 0x13 DUP2 MSTORE PUSH1 0x20 ADD PUSH1 0x0 DUP1 MLOAD PUSH1 0x20 PUSH2 0x5013 DUP4 CODECOPY DUP2 MLOAD SWAP2 MSTORE DUP2 MSTORE POP SWAP1 PUSH2 0x3515 JUMPI PUSH1 0x40 MLOAD PUSH3 0x461BCD PUSH1 0xE5 SHL DUP2 MSTORE PUSH1 0x4 ADD PUSH2 0xCC6 SWAP2 SWAP1 PUSH2 0x4C34 JUMP JUMPDEST POP PUSH2 0xB5B PUSH16 0x4D696E5769746864726177616C466565 PUSH1 0x80 SHL PUSH2 0x3A42 JUMP JUMPDEST PUSH1 0x0 PUSH2 0x353C PUSH2 0x3A1E JUMP JUMPDEST PUSH1 0x40 MLOAD PUSH4 0x24745215 PUSH1 0xE2 SHL DUP2 MSTORE PUSH10 0x676F7665726E616E6365 PUSH1 0xB0 SHL PUSH1 0x4 DUP3 ADD MSTORE CALLER PUSH1 0x24 DUP3 ADD MSTORE PUSH1 0x1 PUSH1 0x1 PUSH1 0xA0 SHL SUB SWAP2 SWAP1 SWAP2 AND SWAP1 PUSH4 0x91D14854 SWAP1 PUSH1 0x44 ADD PUSH1 0x20 PUSH1 0x40 MLOAD DUP1 DUP4 SUB DUP2 DUP7 DUP1 EXTCODESIZE ISZERO DUP1 ISZERO PUSH2 0x3590 JUMPI PUSH1 0x0 DUP1 REVERT JUMPDEST POP GAS STATICCALL ISZERO DUP1 ISZERO PUSH2 0x35A4 JUMPI RETURNDATASIZE PUSH1 0x0 DUP1 RETURNDATACOPY RETURNDATASIZE PUSH1 0x0 REVERT JUMPDEST POP POP POP POP PUSH1 0x40 MLOAD RETURNDATASIZE PUSH1 0x1F NOT PUSH1 0x1F DUP3 ADD AND DUP3 ADD DUP1 PUSH1 0x40 MSTORE POP DUP2 ADD SWAP1 PUSH2 0x35C8 SWAP2 SWAP1 PUSH2 0x4ECB JUMP JUMPDEST PUSH1 0x40 MLOAD DUP1 PUSH1 0x40 ADD PUSH1 0x40 MSTORE DUP1 PUSH1 0x13 DUP2 MSTORE PUSH1 0x20 ADD PUSH1 0x0 DUP1 MLOAD PUSH1 0x20 PUSH2 0x5013 DUP4 CODECOPY DUP2 MLOAD SWAP2 MSTORE DUP2 MSTORE POP SWAP1 PUSH2 0x360A JUMPI PUSH1 0x40 MLOAD PUSH3 0x461BCD PUSH1 0xE5 SHL DUP2 MSTORE PUSH1 0x4 ADD PUSH2 0xCC6 SWAP2 SWAP1 PUSH2 0x4C34 JUMP JUMPDEST POP PUSH1 0x40 DUP1 MLOAD DUP1 DUP3 ADD SWAP1 SWAP2 MSTORE PUSH1 0xE DUP2 MSTORE PUSH14 0x1A5B9D985B1A5908185B5BDD5B9D PUSH1 0x92 SHL PUSH1 0x20 DUP3 ADD MSTORE PUSH8 0xDE0B6B3A7640000 DUP4 GT ISZERO PUSH2 0x3659 JUMPI PUSH1 0x40 MLOAD PUSH3 0x461BCD PUSH1 0xE5 SHL DUP2 MSTORE PUSH1 0x4 ADD PUSH2 0xCC6 SWAP2 SWAP1 PUSH2 0x4C34 JUMP JUMPDEST POP PUSH2 0x12C3 PUSH16 0x52657175697265645265736572766573 PUSH1 0x80 SHL DUP4 PUSH2 0x3D57 JUMP JUMPDEST PUSH1 0x9 SLOAD PUSH1 0x1 PUSH1 0x1 PUSH1 0xA0 SHL SUB AND CALLER EQ DUP1 PUSH2 0x369A JUMPI POP PUSH1 0x8 SLOAD PUSH1 0x1 PUSH1 0x1 PUSH1 0xA0 SHL SUB AND CALLER EQ JUMPDEST PUSH1 0x40 MLOAD DUP1 PUSH1 0x40 ADD PUSH1 0x40 MSTORE DUP1 PUSH1 0x13 DUP2 MSTORE PUSH1 0x20 ADD PUSH1 0x0 DUP1 MLOAD PUSH1 0x20 PUSH2 0x5013 DUP4 CODECOPY DUP2 MLOAD SWAP2 MSTORE DUP2 MSTORE POP SWAP1 PUSH2 0x36DC JUMPI PUSH1 0x40 MLOAD PUSH3 0x461BCD PUSH1 0xE5 SHL DUP2 MSTORE PUSH1 0x4 ADD PUSH2 0xCC6 SWAP2 SWAP1 PUSH2 0x4C34 JUMP JUMPDEST POP PUSH1 0x9 SLOAD PUSH1 0x40 MLOAD PUSH4 0x5B80B5FB PUSH1 0xE1 SHL DUP2 MSTORE PUSH1 0x1 PUSH1 0x1 PUSH1 0xA0 SHL SUB DUP5 DUP2 AND PUSH1 0x4 DUP4 ADD MSTORE SWAP2 DUP3 AND PUSH1 0x24 DUP3 ADD MSTORE PUSH32 0x0 SWAP1 SWAP2 AND SWAP1 PUSH4 0xB7016BF6 SWAP1 PUSH1 0x44 ADD PUSH1 0x20 PUSH1 0x40 MLOAD DUP1 DUP4 SUB DUP2 DUP7 DUP1 EXTCODESIZE ISZERO DUP1 ISZERO PUSH2 0x374B JUMPI PUSH1 0x0 DUP1 REVERT JUMPDEST POP GAS STATICCALL ISZERO DUP1 ISZERO PUSH2 0x375F JUMPI RETURNDATASIZE PUSH1 0x0 DUP1 RETURNDATACOPY RETURNDATASIZE PUSH1 0x0 REVERT JUMPDEST POP POP POP POP PUSH1 0x40 MLOAD RETURNDATASIZE PUSH1 0x1F NOT PUSH1 0x1F DUP3 ADD AND DUP3 ADD DUP1 PUSH1 0x40 MSTORE POP DUP2 ADD SWAP1 PUSH2 0x3783 SWAP2 SWAP1 PUSH2 0x4ECB JUMP JUMPDEST DUP1 PUSH2 0x382F JUMPI POP PUSH1 0x9 SLOAD PUSH1 0x40 MLOAD PUSH4 0x5B80B5FB PUSH1 0xE1 SHL DUP2 MSTORE PUSH1 0x1 PUSH1 0x1 PUSH1 0xA0 SHL SUB DUP6 DUP2 AND PUSH1 0x4 DUP4 ADD MSTORE SWAP2 DUP3 AND PUSH1 0x24 DUP3 ADD MSTORE PUSH32 0x0 SWAP1 SWAP2 AND SWAP1 PUSH4 0xB7016BF6 SWAP1 PUSH1 0x44 ADD PUSH1 0x20 PUSH1 0x40 MLOAD DUP1 DUP4 SUB DUP2 DUP7 DUP1 EXTCODESIZE ISZERO DUP1 ISZERO PUSH2 0x37F7 JUMPI PUSH1 0x0 DUP1 REVERT JUMPDEST POP GAS STATICCALL ISZERO DUP1 ISZERO PUSH2 0x380B JUMPI RETURNDATASIZE PUSH1 0x0 DUP1 RETURNDATACOPY RETURNDATASIZE PUSH1 0x0 REVERT JUMPDEST POP POP POP POP PUSH1 0x40 MLOAD RETURNDATASIZE PUSH1 0x1F NOT PUSH1 0x1F DUP3 ADD AND DUP3 ADD DUP1 PUSH1 0x40 MSTORE POP DUP2 ADD SWAP1 PUSH2 0x382F SWAP2 SWAP1 PUSH2 0x4ECB JUMP JUMPDEST DUP1 PUSH2 0x38CE JUMPI POP PUSH1 0x40 MLOAD PUSH4 0x622E68CB PUSH1 0xE0 SHL DUP2 MSTORE PUSH1 0x1 PUSH1 0x1 PUSH1 0xA0 SHL SUB DUP4 DUP2 AND PUSH1 0x4 DUP4 ADD MSTORE PUSH32 0x0 AND SWAP1 PUSH4 0x622E68CB SWAP1 PUSH1 0x24 ADD PUSH1 0x20 PUSH1 0x40 MLOAD DUP1 DUP4 SUB DUP2 DUP7 DUP1 EXTCODESIZE ISZERO DUP1 ISZERO PUSH2 0x3896 JUMPI PUSH1 0x0 DUP1 REVERT JUMPDEST POP GAS STATICCALL ISZERO DUP1 ISZERO PUSH2 0x38AA JUMPI RETURNDATASIZE PUSH1 0x0 DUP1 RETURNDATACOPY RETURNDATASIZE PUSH1 0x0 REVERT JUMPDEST POP POP POP POP PUSH1 0x40 MLOAD RETURNDATASIZE PUSH1 0x1F NOT PUSH1 0x1F DUP3 ADD AND DUP3 ADD DUP1 PUSH1 0x40 MSTORE POP DUP2 ADD SWAP1 PUSH2 0x38CE SWAP2 SWAP1 PUSH2 0x4ECB JUMP JUMPDEST DUP1 PUSH2 0x396D JUMPI POP PUSH1 0x40 MLOAD PUSH4 0x622E68CB PUSH1 0xE0 SHL DUP2 MSTORE PUSH1 0x1 PUSH1 0x1 PUSH1 0xA0 SHL SUB DUP5 DUP2 AND PUSH1 0x4 DUP4 ADD MSTORE PUSH32 0x0 AND SWAP1 PUSH4 0x622E68CB SWAP1 PUSH1 0x24 ADD PUSH1 0x20 PUSH1 0x40 MLOAD DUP1 DUP4 SUB DUP2 DUP7 DUP1 EXTCODESIZE ISZERO DUP1 ISZERO PUSH2 0x3935 JUMPI PUSH1 0x0 DUP1 REVERT JUMPDEST POP GAS STATICCALL ISZERO DUP1 ISZERO PUSH2 0x3949 JUMPI RETURNDATASIZE PUSH1 0x0 DUP1 RETURNDATACOPY RETURNDATASIZE PUSH1 0x0 REVERT JUMPDEST POP POP POP POP PUSH1 0x40 MLOAD RETURNDATASIZE PUSH1 0x1F NOT PUSH1 0x1F DUP3 ADD AND DUP3 ADD DUP1 PUSH1 0x40 MSTORE POP DUP2 ADD SWAP1 PUSH2 0x396D SWAP2 SWAP1 PUSH2 0x4ECB JUMP JUMPDEST ISZERO PUSH2 0x3977 JUMPI POP POP POP JUMP JUMPDEST PUSH1 0x1 PUSH1 0x1 PUSH1 0xA0 SHL SUB DUP3 AND ISZERO PUSH2 0x3991 JUMPI PUSH2 0x3991 DUP3 DUP5 DUP4 PUSH2 0x4290 JUMP JUMPDEST POP POP POP JUMP JUMPDEST PUSH1 0x40 MLOAD PUSH4 0x21F8A721 PUSH1 0xE0 SHL DUP2 MSTORE PUSH11 0x3937B632A6B0B730B3B2B9 PUSH1 0xA9 SHL PUSH1 0x4 DUP3 ADD MSTORE PUSH1 0x0 SWAP1 PUSH1 0x1 PUSH1 0x1 PUSH1 0xA0 SHL SUB DUP4 AND SWAP1 PUSH4 0x21F8A721 SWAP1 PUSH1 0x24 ADD PUSH1 0x20 PUSH1 0x40 MLOAD DUP1 DUP4 SUB DUP2 DUP7 DUP1 EXTCODESIZE ISZERO DUP1 ISZERO PUSH2 0x39E6 JUMPI PUSH1 0x0 DUP1 REVERT JUMPDEST POP GAS STATICCALL ISZERO DUP1 ISZERO PUSH2 0x39FA JUMPI RETURNDATASIZE PUSH1 0x0 DUP1 RETURNDATACOPY RETURNDATASIZE PUSH1 0x0 REVERT JUMPDEST POP POP POP POP PUSH1 0x40 MLOAD RETURNDATASIZE PUSH1 0x1F NOT PUSH1 0x1F DUP3 ADD AND DUP3 ADD DUP1 PUSH1 0x40 MSTORE POP DUP2 ADD SWAP1 PUSH2 0x12C3 SWAP2 SWAP1 PUSH2 0x4F34 JUMP JUMPDEST PUSH32 0x0 SWAP1 JUMP JUMPDEST PUSH1 0x0 DUP2 DUP2 MSTORE PUSH1 0x4 PUSH1 0x20 SWAP1 DUP2 MSTORE PUSH1 0x40 DUP1 DUP4 KECCAK256 SLOAD DUP2 MLOAD DUP1 DUP4 ADD SWAP1 SWAP3 MSTORE PUSH1 0x12 DUP3 MSTORE PUSH18 0x646561646C696E65206D757374206265203 PUSH1 0x74 SHL SWAP3 DUP3 ADD SWAP3 SWAP1 SWAP3 MSTORE SWAP1 PUSH2 0x3A9B JUMPI PUSH1 0x40 MLOAD PUSH3 0x461BCD PUSH1 0xE5 SHL DUP2 MSTORE PUSH1 0x4 ADD PUSH2 0xCC6 SWAP2 SWAP1 PUSH2 0x4C34 JUMP JUMPDEST POP PUSH1 0x0 DUP3 DUP2 MSTORE PUSH1 0x4 PUSH1 0x20 SWAP1 DUP2 MSTORE PUSH1 0x40 DUP1 DUP4 KECCAK256 DUP4 SWAP1 SSTORE PUSH1 0x1 SWAP1 SWAP2 MSTORE DUP1 DUP3 KECCAK256 DUP3 SWAP1 SSTORE MLOAD DUP4 SWAP2 PUSH32 0x90FB84AD67DD037C388289337BB80B61B8605D38BA9A875DC38B5600909D172F SWAP2 LOG2 POP PUSH1 0x1 SWAP2 SWAP1 POP JUMP JUMPDEST PUSH1 0x0 PUSH2 0x3AF4 DUP3 PUSH2 0x4501 JUMP JUMPDEST PUSH1 0x0 DUP3 DUP2 MSTORE PUSH1 0x20 DUP2 SWAP1 MSTORE PUSH1 0x40 SWAP1 KECCAK256 SLOAD PUSH1 0x1 PUSH1 0x1 PUSH1 0xA0 SHL SUB AND PUSH2 0x3B16 DUP4 DUP3 PUSH2 0x45AA JUMP JUMPDEST POP SWAP3 SWAP2 POP POP JUMP JUMPDEST PUSH1 0x0 DUP2 DUP2 MSTORE PUSH1 0x4 PUSH1 0x20 SWAP1 DUP2 MSTORE PUSH1 0x40 DUP1 DUP4 KECCAK256 SLOAD DUP2 MLOAD DUP1 DUP4 ADD SWAP1 SWAP3 MSTORE PUSH1 0x12 DUP3 MSTORE PUSH18 0x646561646C696E65206D757374206265203 PUSH1 0x74 SHL SWAP3 DUP3 ADD SWAP3 SWAP1 SWAP3 MSTORE SWAP1 PUSH2 0x3B76 JUMPI PUSH1 0x40 MLOAD PUSH3 0x461BCD PUSH1 0xE5 SHL DUP2 MSTORE PUSH1 0x4 ADD PUSH2 0xCC6 SWAP2 SWAP1 PUSH2 0x4C34 JUMP JUMPDEST POP PUSH1 0x0 DUP3 DUP2 MSTORE PUSH1 0x4 PUSH1 0x20 SWAP1 DUP2 MSTORE PUSH1 0x40 DUP1 DUP4 KECCAK256 DUP4 SWAP1 SSTORE SWAP1 DUP3 SWAP1 MSTORE DUP1 DUP3 KECCAK256 DUP1 SLOAD PUSH1 0x1 PUSH1 0x1 PUSH1 0xA0 SHL SUB NOT AND SWAP1 SSTORE MLOAD DUP4 SWAP2 PUSH32 0x90FB84AD67DD037C388289337BB80B61B8605D38BA9A875DC38B5600909D172F SWAP2 LOG2 POP PUSH1 0x1 SWAP2 SWAP1 POP JUMP JUMPDEST PUSH1 0x0 PUSH2 0x3BD9 DUP3 PUSH2 0x4501 JUMP JUMPDEST PUSH1 0x0 DUP3 DUP2 MSTORE PUSH1 0x1 PUSH1 0x20 MSTORE PUSH1 0x40 SWAP1 KECCAK256 SLOAD PUSH2 0x3B16 DUP4 DUP3 PUSH2 0x4635 JUMP JUMPDEST PUSH2 0x2799 PUSH1 0x0 PUSH2 0x3FE4 JUMP JUMPDEST PUSH1 0x0 DUP2 PUSH2 0x3C11 PUSH8 0xDE0B6B3A7640000 DUP6 PUSH2 0x4F68 JUMP JUMPDEST PUSH2 0x12C0 SWAP2 SWAP1 PUSH2 0x4F87 JUMP JUMPDEST PUSH1 0x0 PUSH2 0x12C0 DUP4 DUP4 PUSH3 0x3F480 PUSH2 0x4696 JUMP JUMPDEST PUSH1 0x0 PUSH2 0x3C35 PUSH2 0x3A1E JUMP JUMPDEST PUSH1 0x40 MLOAD PUSH4 0x24745215 PUSH1 0xE2 SHL DUP2 MSTORE PUSH10 0x676F7665726E616E6365 PUSH1 0xB0 SHL PUSH1 0x4 DUP3 ADD MSTORE PUSH1 0x1 PUSH1 0x1 PUSH1 0xA0 SHL SUB DUP5 DUP2 AND PUSH1 0x24 DUP4 ADD MSTORE SWAP2 SWAP1 SWAP2 AND SWAP1 PUSH4 0x91D14854 SWAP1 PUSH1 0x44 ADD PUSH1 0x20 PUSH1 0x40 MLOAD DUP1 DUP4 SUB DUP2 DUP7 DUP1 EXTCODESIZE ISZERO DUP1 ISZERO PUSH2 0x3C8B JUMPI PUSH1 0x0 DUP1 REVERT JUMPDEST POP GAS STATICCALL ISZERO DUP1 ISZERO PUSH2 0x3C9F JUMPI RETURNDATASIZE PUSH1 0x0 DUP1 RETURNDATACOPY RETURNDATASIZE PUSH1 0x0 REVERT JUMPDEST POP POP POP POP PUSH1 0x40 MLOAD RETURNDATASIZE PUSH1 0x1F NOT PUSH1 0x1F DUP3 ADD AND DUP3 ADD DUP1 PUSH1 0x40 MSTORE POP DUP2 ADD SWAP1 PUSH2 0x12C3 SWAP2 SWAP1 PUSH2 0x4ECB JUMP JUMPDEST PUSH1 0x40 DUP1 MLOAD DUP1 DUP3 ADD SWAP1 SWAP2 MSTORE PUSH1 0xE DUP2 MSTORE PUSH14 0x1A5B9D985B1A5908185B5BDD5B9D PUSH1 0x92 SHL PUSH1 0x20 DUP3 ADD MSTORE DUP3 DUP3 LT ISZERO PUSH2 0x3D09 JUMPI PUSH1 0x40 MLOAD PUSH3 0x461BCD PUSH1 0xE5 SHL DUP2 MSTORE PUSH1 0x4 ADD PUSH2 0xCC6 SWAP2 SWAP1 PUSH2 0x4C34 JUMP JUMPDEST POP PUSH1 0x40 DUP1 MLOAD DUP1 DUP3 ADD SWAP1 SWAP2 MSTORE PUSH1 0xE DUP2 MSTORE PUSH14 0x1A5B9D985B1A5908185B5BDD5B9D PUSH1 0x92 SHL PUSH1 0x20 DUP3 ADD MSTORE PUSH7 0xB1A2BC2EC50000 DUP3 GT ISZERO PUSH2 0x3991 JUMPI PUSH1 0x40 MLOAD PUSH3 0x461BCD PUSH1 0xE5 SHL DUP2 MSTORE PUSH1 0x4 ADD PUSH2 0xCC6 SWAP2 SWAP1 PUSH2 0x4C34 JUMP JUMPDEST PUSH1 0x0 PUSH2 0x12C0 DUP4 DUP4 PUSH3 0x3F480 PUSH2 0x4711 JUMP JUMPDEST PUSH1 0x0 PUSH8 0xDE0B6B3A7640000 PUSH2 0x3C11 DUP4 DUP6 PUSH2 0x4F68 JUMP JUMPDEST PUSH1 0x40 DUP1 MLOAD DUP1 DUP3 ADD SWAP1 SWAP2 MSTORE PUSH1 0x12 DUP2 MSTORE PUSH18 0x34B73B30B634B21036B9B39739B2B73232B9 PUSH1 0x71 SHL PUSH1 0x20 DUP3 ADD MSTORE CALLER PUSH1 0x1 PUSH1 0x1 PUSH1 0xA0 SHL SUB DUP5 AND EQ PUSH2 0x3DCE JUMPI PUSH1 0x40 MLOAD PUSH3 0x461BCD PUSH1 0xE5 SHL DUP2 MSTORE PUSH1 0x4 ADD PUSH2 0xCC6 SWAP2 SWAP1 PUSH2 0x4C34 JUMP JUMPDEST POP PUSH1 0x40 DUP1 MLOAD DUP1 DUP3 ADD SWAP1 SWAP2 MSTORE PUSH1 0xE DUP2 MSTORE PUSH14 0x1A5B9D985B1A5908185B5BDD5B9D PUSH1 0x92 SHL PUSH1 0x20 DUP3 ADD MSTORE CALLVALUE DUP3 EQ PUSH2 0x3991 JUMPI PUSH1 0x40 MLOAD PUSH3 0x461BCD PUSH1 0xE5 SHL DUP2 MSTORE PUSH1 0x4 ADD PUSH2 0xCC6 SWAP2 SWAP1 PUSH2 0x4C34 JUMP JUMPDEST PUSH1 0x5 SLOAD PUSH1 0x0 SWAP1 PUSH3 0x10000 SWAP1 DIV PUSH1 0xFF AND PUSH2 0x3E38 JUMPI PUSH1 0x5 SLOAD PUSH2 0x100 SWAP1 DIV PUSH1 0xFF AND ISZERO PUSH2 0x3E3C JUMP JUMPDEST ADDRESS EXTCODESIZE ISZERO JUMPDEST PUSH2 0x3E9F JUMPI PUSH1 0x40 MLOAD PUSH3 0x461BCD PUSH1 0xE5 SHL DUP2 MSTORE PUSH1 0x20 PUSH1 0x4 DUP3 ADD MSTORE PUSH1 0x2E PUSH1 0x24 DUP3 ADD MSTORE PUSH32 0x496E697469616C697A61626C653A20636F6E747261637420697320616C726561 PUSH1 0x44 DUP3 ADD MSTORE PUSH14 0x191E481A5B9A5D1A585B1A5E9959 PUSH1 0x92 SHL PUSH1 0x64 DUP3 ADD MSTORE PUSH1 0x84 ADD PUSH2 0xCC6 JUMP JUMPDEST PUSH1 0x5 SLOAD PUSH3 0x10000 SWAP1 DIV PUSH1 0xFF AND ISZERO DUP1 ISZERO PUSH2 0x3EC4 JUMPI PUSH1 0x5 DUP1 SLOAD PUSH3 0xFFFF00 NOT AND PUSH3 0x10100 OR SWAP1 SSTORE JUMPDEST DUP5 MLOAD PUSH2 0x3ED7 SWAP1 PUSH1 0xA SWAP1 PUSH1 0x20 DUP9 ADD SWAP1 PUSH2 0x4B6F JUMP JUMPDEST POP PUSH1 0x7 DUP5 SWAP1 SSTORE PUSH2 0x3EF8 PUSH1 0x0 DUP1 MLOAD PUSH1 0x20 PUSH2 0x4FF3 DUP4 CODECOPY DUP2 MLOAD SWAP2 MSTORE PUSH3 0x93A80 PUSH2 0x4635 JUMP JUMPDEST POP PUSH2 0x3F1D PUSH16 0x4D61785769746864726177616C466565 PUSH1 0x80 SHL PUSH7 0x6A94D74F430000 PUSH2 0x4635 JUMP JUMPDEST POP PUSH2 0x3F43 PUSH16 0x52657175697265645265736572766573 PUSH1 0x80 SHL PUSH8 0xDE0B6B3A7640000 PUSH2 0x4635 JUMP JUMPDEST POP PUSH2 0x3F68 PUSH16 0x2932B9B2B93B32A232BB34B0BA34B7B7 PUSH1 0x81 SHL PUSH7 0x11C37937E08000 PUSH2 0x4635 JUMP JUMPDEST POP PUSH2 0x3F7B PUSH5 0x15985D5B1D PUSH1 0xDA SHL DUP5 PUSH2 0x45AA JUMP JUMPDEST POP PUSH1 0x1 SWAP2 POP DUP1 ISZERO PUSH2 0x1E46 JUMPI PUSH1 0x5 DUP1 SLOAD PUSH3 0xFF0000 NOT AND SWAP1 SSTORE POP SWAP4 SWAP3 POP POP POP JUMP JUMPDEST PUSH1 0x8 SLOAD PUSH1 0x9 SLOAD PUSH1 0x1 PUSH1 0x1 PUSH1 0xA0 SHL SUB SWAP2 DUP3 AND SWAP2 AND DUP2 ISZERO DUP1 PUSH2 0x3FC1 JUMPI POP PUSH1 0x1 PUSH1 0x1 PUSH1 0xA0 SHL SUB DUP2 AND ISZERO JUMPDEST ISZERO PUSH2 0x3FCA JUMPI POP POP JUMP JUMPDEST PUSH2 0x3FE0 PUSH1 0x1 PUSH1 0x1 PUSH1 0xA0 SHL SUB DUP3 AND DUP4 PUSH1 0x0 NOT PUSH2 0x4767 JUMP JUMPDEST POP POP JUMP JUMPDEST PUSH1 0x0 PUSH2 0x3FEE PUSH2 0x267B JUMP JUMPDEST SWAP1 POP PUSH1 0x1 PUSH1 0x1 PUSH1 0xA0 SHL SUB DUP2 AND PUSH2 0x4002 JUMPI POP POP JUMP JUMPDEST PUSH1 0x8 SLOAD PUSH1 0x40 DUP1 MLOAD PUSH4 0xBA4AC711 PUSH1 0xE0 SHL DUP2 MSTORE SWAP1 MLOAD PUSH1 0x0 SWAP3 PUSH1 0x1 PUSH1 0x1 PUSH1 0xA0 SHL SUB AND SWAP2 PUSH4 0xBA4AC711 SWAP2 PUSH1 0x4 DUP1 DUP4 ADD SWAP3 PUSH1 0x20 SWAP3 SWAP2 SWAP1 DUP3 SWAP1 SUB ADD DUP2 DUP7 DUP1 EXTCODESIZE ISZERO DUP1 ISZERO PUSH2 0x4047 JUMPI PUSH1 0x0 DUP1 REVERT JUMPDEST POP GAS STATICCALL ISZERO DUP1 ISZERO PUSH2 0x405B JUMPI RETURNDATASIZE PUSH1 0x0 DUP1 RETURNDATACOPY RETURNDATASIZE PUSH1 0x0 REVERT JUMPDEST POP POP POP POP PUSH1 0x40 MLOAD RETURNDATASIZE PUSH1 0x1F NOT PUSH1 0x1F DUP3 ADD AND DUP3 ADD DUP1 PUSH1 0x40 MSTORE POP DUP2 ADD SWAP1 PUSH2 0x407F SWAP2 SWAP1 PUSH2 0x4EED JUMP JUMPDEST SWAP1 POP PUSH1 0x0 PUSH2 0x408E PUSH2 0x22BA PUSH2 0x13DC JUMP JUMPDEST SWAP1 POP PUSH1 0x0 PUSH2 0x409C PUSH1 0x1 PUSH2 0x48AD JUMP JUMPDEST SWAP1 POP PUSH1 0x0 PUSH2 0x40B2 PUSH2 0x40AB PUSH2 0x3176 JUMP JUMPDEST DUP5 SWAP1 PUSH2 0x3D67 JUMP JUMPDEST SWAP1 POP PUSH1 0x0 PUSH2 0x40C8 PUSH2 0x40C1 PUSH2 0x1235 JUMP JUMPDEST DUP6 SWAP1 PUSH2 0x3D67 JUMP JUMPDEST SWAP1 POP DUP3 DUP8 GT DUP1 PUSH2 0x40EB JUMPI POP DUP1 DUP3 PUSH2 0x40DF DUP10 DUP7 PUSH2 0x4F51 JUMP JUMPDEST PUSH2 0x40E9 SWAP2 SWAP1 PUSH2 0x4F1C JUMP JUMPDEST LT JUMPDEST ISZERO PUSH2 0x418B JUMPI PUSH1 0x0 DUP4 PUSH2 0x40FD DUP10 DUP5 PUSH2 0x4F1C JUMP JUMPDEST PUSH2 0x4107 SWAP2 SWAP1 PUSH2 0x4F51 JUMP JUMPDEST PUSH1 0x40 MLOAD PUSH4 0x2E1A7D4D PUSH1 0xE0 SHL DUP2 MSTORE PUSH1 0x4 DUP2 ADD DUP3 SWAP1 MSTORE SWAP1 SWAP2 POP PUSH1 0x1 PUSH1 0x1 PUSH1 0xA0 SHL SUB DUP9 AND SWAP1 PUSH4 0x2E1A7D4D SWAP1 PUSH1 0x24 ADD PUSH1 0x20 PUSH1 0x40 MLOAD DUP1 DUP4 SUB DUP2 PUSH1 0x0 DUP8 DUP1 EXTCODESIZE ISZERO DUP1 ISZERO PUSH2 0x414C JUMPI PUSH1 0x0 DUP1 REVERT JUMPDEST POP GAS CALL ISZERO DUP1 ISZERO PUSH2 0x4160 JUMPI RETURNDATASIZE PUSH1 0x0 DUP1 RETURNDATACOPY RETURNDATASIZE PUSH1 0x0 REVERT JUMPDEST POP POP POP POP PUSH1 0x40 MLOAD RETURNDATASIZE PUSH1 0x1F NOT PUSH1 0x1F DUP3 ADD AND DUP3 ADD DUP1 PUSH1 0x40 MSTORE POP DUP2 ADD SWAP1 PUSH2 0x4184 SWAP2 SWAP1 PUSH2 0x4ECB JUMP JUMPDEST POP POP PUSH2 0x4219 JUMP JUMPDEST PUSH1 0x0 PUSH2 0x4197 DUP9 DUP6 PUSH2 0x4F51 JUMP JUMPDEST SWAP1 POP PUSH2 0x41A3 DUP4 DUP4 PUSH2 0x4F1C JUMP JUMPDEST DUP2 GT ISZERO PUSH2 0x4217 JUMPI PUSH1 0x0 PUSH2 0x41B6 DUP4 DUP4 PUSH2 0x4F51 JUMP JUMPDEST SWAP1 POP PUSH2 0x41C2 DUP9 DUP3 PUSH2 0x4222 JUMP JUMPDEST DUP8 PUSH1 0x1 PUSH1 0x1 PUSH1 0xA0 SHL SUB AND PUSH4 0xD0E30DB0 PUSH1 0x40 MLOAD DUP2 PUSH4 0xFFFFFFFF AND PUSH1 0xE0 SHL DUP2 MSTORE PUSH1 0x4 ADD PUSH1 0x0 PUSH1 0x40 MLOAD DUP1 DUP4 SUB DUP2 PUSH1 0x0 DUP8 DUP1 EXTCODESIZE ISZERO DUP1 ISZERO PUSH2 0x41FD JUMPI PUSH1 0x0 DUP1 REVERT JUMPDEST POP GAS CALL ISZERO DUP1 ISZERO PUSH2 0x4211 JUMPI RETURNDATASIZE PUSH1 0x0 DUP1 RETURNDATACOPY RETURNDATASIZE PUSH1 0x0 REVERT JUMPDEST POP POP POP POP POP JUMPDEST POP JUMPDEST POP POP POP POP POP POP POP JUMP JUMPDEST PUSH1 0x40 MLOAD PUSH1 0x1 PUSH1 0x1 PUSH1 0xA0 SHL SUB DUP4 AND SWAP1 DUP3 ISZERO PUSH2 0x8FC MUL SWAP1 DUP4 SWAP1 PUSH1 0x0 DUP2 DUP2 DUP2 DUP6 DUP9 DUP9 CALL SWAP4 POP POP POP POP ISZERO DUP1 ISZERO PUSH2 0x3991 JUMPI RETURNDATASIZE PUSH1 0x0 DUP1 RETURNDATACOPY RETURNDATASIZE PUSH1 0x0 REVERT JUMPDEST PUSH1 0x0 DUP2 PUSH1 0x1 DUP2 PUSH2 0x4270 PUSH8 0xDE0B6B3A7640000 DUP8 PUSH2 0x4F68 JUMP JUMPDEST PUSH2 0x427A SWAP2 SWAP1 PUSH2 0x4F1C JUMP JUMPDEST PUSH2 0x3C11 SWAP2 SWAP1 PUSH2 0x4F51 JUMP JUMPDEST PUSH1 0x0 PUSH2 0xB5B PUSH1 0x0 PUSH2 0x48AD JUMP JUMPDEST PUSH1 0x1 PUSH1 0x1 PUSH1 0xA0 SHL SUB DUP4 DUP2 AND PUSH1 0x0 DUP2 DUP2 MSTORE PUSH1 0x6 PUSH1 0x20 MSTORE PUSH1 0x40 DUP1 DUP3 KECCAK256 PUSH1 0x8 SLOAD SWAP2 MLOAD PUSH4 0xA853BA2F PUSH1 0xE0 SHL DUP2 MSTORE PUSH1 0x4 DUP2 ADD SWAP5 SWAP1 SWAP5 MSTORE SWAP4 SWAP2 SWAP3 SWAP2 AND SWAP1 PUSH4 0xA853BA2F SWAP1 PUSH1 0x24 ADD PUSH1 0x20 PUSH1 0x40 MLOAD DUP1 DUP4 SUB DUP2 DUP7 DUP1 EXTCODESIZE ISZERO DUP1 ISZERO PUSH2 0x42E8 JUMPI PUSH1 0x0 DUP1 REVERT JUMPDEST POP GAS STATICCALL ISZERO DUP1 ISZERO PUSH2 0x42FC JUMPI RETURNDATASIZE PUSH1 0x0 DUP1 RETURNDATACOPY RETURNDATASIZE PUSH1 0x0 REVERT JUMPDEST POP POP POP POP PUSH1 0x40 MLOAD RETURNDATASIZE PUSH1 0x1F NOT PUSH1 0x1F DUP3 ADD AND DUP3 ADD DUP1 PUSH1 0x40 MSTORE POP DUP2 ADD SWAP1 PUSH2 0x4320 SWAP2 SWAP1 PUSH2 0x4EED JUMP JUMPDEST PUSH1 0x9 SLOAD PUSH1 0x40 MLOAD PUSH4 0x70A08231 PUSH1 0xE0 SHL DUP2 MSTORE PUSH1 0x1 PUSH1 0x1 PUSH1 0xA0 SHL SUB DUP9 DUP2 AND PUSH1 0x4 DUP4 ADD MSTORE SWAP1 SWAP2 AND SWAP1 PUSH4 0x70A08231 SWAP1 PUSH1 0x24 ADD PUSH1 0x20 PUSH1 0x40 MLOAD DUP1 DUP4 SUB DUP2 DUP7 DUP1 EXTCODESIZE ISZERO DUP1 ISZERO PUSH2 0x4365 JUMPI PUSH1 0x0 DUP1 REVERT JUMPDEST POP GAS STATICCALL ISZERO DUP1 ISZERO PUSH2 0x4379 JUMPI RETURNDATASIZE PUSH1 0x0 DUP1 RETURNDATACOPY RETURNDATASIZE PUSH1 0x0 REVERT JUMPDEST POP POP POP POP PUSH1 0x40 MLOAD RETURNDATASIZE PUSH1 0x1F NOT PUSH1 0x1F DUP3 ADD AND DUP3 ADD DUP1 PUSH1 0x40 MSTORE POP DUP2 ADD SWAP1 PUSH2 0x439D SWAP2 SWAP1 PUSH2 0x4EED JUMP JUMPDEST PUSH2 0x43A7 SWAP2 SWAP1 PUSH2 0x4F1C JUMP JUMPDEST DUP3 SLOAD SWAP1 SWAP2 POP PUSH1 0x0 SWAP1 PUSH2 0x43D7 SWAP1 PUSH1 0x1 PUSH1 0x1 PUSH1 0x40 SHL SUB DUP1 DUP3 AND SWAP2 PUSH1 0x1 PUSH1 0x80 SHL DUP2 DIV DUP3 AND SWAP2 PUSH1 0x1 PUSH1 0x40 SHL SWAP1 SWAP2 DIV AND PUSH2 0x31B7 JUMP JUMPDEST SWAP1 POP PUSH1 0x0 PUSH2 0x43EF PUSH2 0x43E8 DUP5 DUP8 PUSH2 0x4F1C JUMP JUMPDEST DUP7 SWAP1 PUSH2 0x3BFC JUMP JUMPDEST SWAP1 POP PUSH1 0x0 PUSH2 0x4405 DUP3 PUSH8 0xDE0B6B3A7640000 PUSH2 0x4F51 JUMP JUMPDEST SWAP1 POP PUSH1 0x0 PUSH1 0x1 PUSH1 0x1 PUSH1 0xA0 SHL SUB DUP9 AND PUSH2 0x4426 JUMPI PUSH2 0x441F PUSH2 0x1D72 JUMP JUMPDEST SWAP1 POP PUSH2 0x446C JUMP JUMPDEST PUSH1 0x1 PUSH1 0x1 PUSH1 0xA0 SHL SUB DUP9 AND PUSH1 0x0 SWAP1 DUP2 MSTORE PUSH1 0x6 PUSH1 0x20 MSTORE PUSH1 0x40 SWAP1 KECCAK256 DUP1 SLOAD PUSH2 0x4468 SWAP1 PUSH1 0x1 PUSH1 0x1 PUSH1 0x40 SHL SUB DUP1 DUP3 AND SWAP2 PUSH1 0x1 PUSH1 0x80 SHL DUP2 DIV DUP3 AND SWAP2 PUSH1 0x1 PUSH1 0x40 SHL SWAP1 SWAP2 DIV AND PUSH2 0x31B7 JUMP JUMPDEST SWAP2 POP POP JUMPDEST PUSH1 0x0 PUSH2 0x4478 DUP5 DUP4 PUSH2 0x3D67 JUMP JUMPDEST PUSH2 0x4482 DUP5 DUP8 PUSH2 0x3D67 JUMP JUMPDEST PUSH2 0x448C SWAP2 SWAP1 PUSH2 0x4F1C JUMP JUMPDEST DUP8 SLOAD PUSH16 0xFFFFFFFFFFFFFFFF0000000000000000 NOT AND PUSH1 0x1 PUSH1 0x40 SHL PUSH1 0x1 PUSH1 0x1 PUSH1 0x40 SHL SUB DUP4 AND MUL OR DUP9 SSTORE SWAP1 POP PUSH2 0x44BE PUSH2 0x1276 JUMP JUMPDEST DUP8 SLOAD TIMESTAMP PUSH1 0x1 PUSH1 0x1 PUSH1 0x40 SHL SUB SWAP1 DUP2 AND PUSH1 0x1 PUSH1 0x80 SHL MUL SWAP3 AND PUSH24 0xFFFFFFFFFFFFFFFF0000000000000000FFFFFFFFFFFFFFFF NOT SWAP1 SWAP2 AND OR OR SWAP1 SWAP7 SSTORE POP POP POP POP POP POP POP POP POP JUMP JUMPDEST PUSH1 0x0 PUSH1 0x4 PUSH1 0x0 DUP4 DUP2 MSTORE PUSH1 0x20 ADD SWAP1 DUP2 MSTORE PUSH1 0x20 ADD PUSH1 0x0 KECCAK256 SLOAD SWAP1 POP DUP1 TIMESTAMP LT ISZERO PUSH1 0x40 MLOAD DUP1 PUSH1 0x60 ADD PUSH1 0x40 MSTORE DUP1 PUSH1 0x21 DUP2 MSTORE PUSH1 0x20 ADD PUSH2 0x5033 PUSH1 0x21 SWAP2 CODECOPY SWAP1 PUSH2 0x4554 JUMPI PUSH1 0x40 MLOAD PUSH3 0x461BCD PUSH1 0xE5 SHL DUP2 MSTORE PUSH1 0x4 ADD PUSH2 0xCC6 SWAP2 SWAP1 PUSH2 0x4C34 JUMP JUMPDEST POP PUSH1 0x40 DUP1 MLOAD DUP1 DUP3 ADD SWAP1 SWAP2 MSTORE PUSH1 0xD DUP2 MSTORE PUSH13 0x646561646C696E65206973203 PUSH1 0x9C SHL PUSH1 0x20 DUP3 ADD MSTORE DUP2 PUSH2 0x4597 JUMPI PUSH1 0x40 MLOAD PUSH3 0x461BCD PUSH1 0xE5 SHL DUP2 MSTORE PUSH1 0x4 ADD PUSH2 0xCC6 SWAP2 SWAP1 PUSH2 0x4C34 JUMP JUMPDEST POP POP PUSH1 0x0 SWAP1 DUP2 MSTORE PUSH1 0x4 PUSH1 0x20 MSTORE PUSH1 0x40 DUP2 KECCAK256 SSTORE JUMP JUMPDEST PUSH1 0x0 DUP3 DUP2 MSTORE PUSH1 0x2 PUSH1 0x20 SWAP1 DUP2 MSTORE PUSH1 0x40 DUP1 DUP4 KECCAK256 DUP1 SLOAD PUSH1 0x1 PUSH1 0x1 PUSH1 0xA0 SHL SUB NOT DUP1 DUP3 AND PUSH1 0x1 PUSH1 0x1 PUSH1 0xA0 SHL SUB DUP9 DUP2 AND SWAP2 DUP3 OR SWAP1 SWAP5 SSTORE DUP7 DUP7 MSTORE DUP5 DUP8 KECCAK256 DUP1 SLOAD SWAP1 SWAP3 AND SWAP1 SWAP2 SSTORE PUSH1 0x4 DUP6 MSTORE DUP4 DUP7 KECCAK256 DUP7 SWAP1 SSTORE DUP4 MLOAD SWAP3 SWAP1 SWAP2 AND DUP1 DUP4 MSTORE SWAP4 DUP3 ADD MSTORE DUP6 SWAP2 PUSH32 0xC4A957706C639829AD54381B04930C464DB6C7FFDC09D2B4B1ACC9EE34FB9261 SWAP2 ADD JUMPDEST PUSH1 0x40 MLOAD DUP1 SWAP2 SUB SWAP1 LOG2 POP SWAP1 SWAP3 SWAP2 POP POP JUMP JUMPDEST PUSH1 0x0 DUP3 DUP2 MSTORE PUSH1 0x3 PUSH1 0x20 SWAP1 DUP2 MSTORE PUSH1 0x40 DUP1 DUP4 KECCAK256 DUP1 SLOAD SWAP1 DUP6 SWAP1 SSTORE PUSH1 0x1 DUP4 MSTORE DUP2 DUP5 KECCAK256 DUP5 SWAP1 SSTORE PUSH1 0x4 DUP4 MSTORE DUP2 DUP5 KECCAK256 DUP5 SWAP1 SSTORE DUP2 MLOAD DUP2 DUP2 MSTORE SWAP3 DUP4 ADD DUP6 SWAP1 MSTORE SWAP2 DUP6 SWAP2 PUSH32 0xCC0BAFE2ACCB565EA70674BF4B2555E49A47D410FB9932DFAB3E5F41855D0A2F SWAP2 ADD PUSH2 0x4625 JUMP JUMPDEST PUSH1 0x0 PUSH2 0x46A2 DUP5 DUP4 PUSH2 0x48BF JUMP JUMPDEST PUSH1 0x0 DUP5 DUP2 MSTORE PUSH1 0x20 DUP2 DUP2 MSTORE PUSH1 0x40 SWAP2 DUP3 SWAP1 KECCAK256 DUP1 SLOAD PUSH1 0x1 PUSH1 0x1 PUSH1 0xA0 SHL SUB NOT AND PUSH1 0x1 PUSH1 0x1 PUSH1 0xA0 SHL SUB DUP8 AND SWAP1 DUP2 OR SWAP1 SWAP2 SSTORE DUP3 MLOAD SWAP1 DUP2 MSTORE SWAP1 DUP2 ADD DUP5 SWAP1 MSTORE DUP6 SWAP2 PUSH32 0xD46E58EE9DC1AE703349F8C09C19F23213A531B4D57F00CFD4A5A6CB6519668D SWAP2 ADD JUMPDEST PUSH1 0x40 MLOAD DUP1 SWAP2 SUB SWAP1 LOG2 POP PUSH1 0x1 SWAP4 SWAP3 POP POP POP JUMP JUMPDEST PUSH1 0x0 PUSH2 0x471D DUP5 DUP4 PUSH2 0x48BF JUMP JUMPDEST PUSH1 0x0 DUP5 DUP2 MSTORE PUSH1 0x1 PUSH1 0x20 SWAP1 DUP2 MSTORE PUSH1 0x40 SWAP2 DUP3 SWAP1 KECCAK256 DUP6 SWAP1 SSTORE DUP2 MLOAD DUP6 DUP2 MSTORE SWAP1 DUP2 ADD DUP5 SWAP1 MSTORE DUP6 SWAP2 PUSH32 0xE6790002E78FB96FF1FDFE3A3BB2A86489D3F3923372C1FE5B6B1FED071EED4 SWAP2 ADD PUSH2 0x46FF JUMP JUMPDEST DUP1 ISZERO DUP1 PUSH2 0x47F0 JUMPI POP PUSH1 0x40 MLOAD PUSH4 0x6EB1769F PUSH1 0xE1 SHL DUP2 MSTORE ADDRESS PUSH1 0x4 DUP3 ADD MSTORE PUSH1 0x1 PUSH1 0x1 PUSH1 0xA0 SHL SUB DUP4 DUP2 AND PUSH1 0x24 DUP4 ADD MSTORE DUP5 AND SWAP1 PUSH4 0xDD62ED3E SWAP1 PUSH1 0x44 ADD PUSH1 0x20 PUSH1 0x40 MLOAD DUP1 DUP4 SUB DUP2 DUP7 DUP1 EXTCODESIZE ISZERO DUP1 ISZERO PUSH2 0x47B6 JUMPI PUSH1 0x0 DUP1 REVERT JUMPDEST POP GAS STATICCALL ISZERO DUP1 ISZERO PUSH2 0x47CA JUMPI RETURNDATASIZE PUSH1 0x0 DUP1 RETURNDATACOPY RETURNDATASIZE PUSH1 0x0 REVERT JUMPDEST POP POP POP POP PUSH1 0x40 MLOAD RETURNDATASIZE PUSH1 0x1F NOT PUSH1 0x1F DUP3 ADD AND DUP3 ADD DUP1 PUSH1 0x40 MSTORE POP DUP2 ADD SWAP1 PUSH2 0x47EE SWAP2 SWAP1 PUSH2 0x4EED JUMP JUMPDEST ISZERO JUMPDEST PUSH2 0x485B JUMPI PUSH1 0x40 MLOAD PUSH3 0x461BCD PUSH1 0xE5 SHL DUP2 MSTORE PUSH1 0x20 PUSH1 0x4 DUP3 ADD MSTORE PUSH1 0x36 PUSH1 0x24 DUP3 ADD MSTORE PUSH32 0x5361666545524332303A20617070726F76652066726F6D206E6F6E2D7A65726F PUSH1 0x44 DUP3 ADD MSTORE PUSH22 0x20746F206E6F6E2D7A65726F20616C6C6F77616E6365 PUSH1 0x50 SHL PUSH1 0x64 DUP3 ADD MSTORE PUSH1 0x84 ADD PUSH2 0xCC6 JUMP JUMPDEST PUSH1 0x40 DUP1 MLOAD PUSH1 0x1 PUSH1 0x1 PUSH1 0xA0 SHL SUB DUP5 AND PUSH1 0x24 DUP3 ADD MSTORE PUSH1 0x44 DUP1 DUP3 ADD DUP5 SWAP1 MSTORE DUP3 MLOAD DUP1 DUP4 SUB SWAP1 SWAP2 ADD DUP2 MSTORE PUSH1 0x64 SWAP1 SWAP2 ADD SWAP1 SWAP2 MSTORE PUSH1 0x20 DUP2 ADD DUP1 MLOAD PUSH1 0x1 PUSH1 0x1 PUSH1 0xE0 SHL SUB AND PUSH4 0x95EA7B3 PUSH1 0xE0 SHL OR SWAP1 MSTORE PUSH2 0x3991 SWAP1 DUP5 SWAP1 PUSH2 0x4999 JUMP JUMPDEST PUSH1 0x0 SELFBALANCE DUP3 PUSH2 0x12C3 JUMPI PUSH2 0x12C0 CALLVALUE DUP3 PUSH2 0x4F51 JUMP JUMPDEST PUSH1 0x4 PUSH1 0x0 DUP4 DUP2 MSTORE PUSH1 0x20 ADD SWAP1 DUP2 MSTORE PUSH1 0x20 ADD PUSH1 0x0 KECCAK256 SLOAD PUSH1 0x0 EQ PUSH1 0x40 MLOAD DUP1 PUSH1 0x40 ADD PUSH1 0x40 MSTORE DUP1 PUSH1 0x12 DUP2 MSTORE PUSH1 0x20 ADD PUSH18 0x646561646C696E65206D757374206265203 PUSH1 0x74 SHL DUP2 MSTORE POP SWAP1 PUSH2 0x491F JUMPI PUSH1 0x40 MLOAD PUSH3 0x461BCD PUSH1 0xE5 SHL DUP2 MSTORE PUSH1 0x4 ADD PUSH2 0xCC6 SWAP2 SWAP1 PUSH2 0x4C34 JUMP JUMPDEST POP PUSH1 0x40 DUP1 MLOAD DUP1 DUP3 ADD SWAP1 SWAP2 MSTORE PUSH1 0x18 DUP2 MSTORE PUSH32 0x64656C6179206265206174206C65617374203320646179730000000000000000 PUSH1 0x20 DUP3 ADD MSTORE PUSH3 0x3F480 DUP3 LT ISZERO PUSH2 0x4978 JUMPI PUSH1 0x40 MLOAD PUSH3 0x461BCD PUSH1 0xE5 SHL DUP2 MSTORE PUSH1 0x4 ADD PUSH2 0xCC6 SWAP2 SWAP1 PUSH2 0x4C34 JUMP JUMPDEST POP PUSH2 0x4983 DUP2 TIMESTAMP PUSH2 0x4F1C JUMP JUMPDEST PUSH1 0x0 SWAP3 DUP4 MSTORE PUSH1 0x4 PUSH1 0x20 MSTORE PUSH1 0x40 SWAP1 SWAP3 KECCAK256 SWAP2 SWAP1 SWAP2 SSTORE POP JUMP JUMPDEST PUSH1 0x0 PUSH2 0x49EE DUP3 PUSH1 0x40 MLOAD DUP1 PUSH1 0x40 ADD PUSH1 0x40 MSTORE DUP1 PUSH1 0x20 DUP2 MSTORE PUSH1 0x20 ADD PUSH32 0x5361666545524332303A206C6F772D6C6576656C2063616C6C206661696C6564 DUP2 MSTORE POP DUP6 PUSH1 0x1 PUSH1 0x1 PUSH1 0xA0 SHL SUB AND PUSH2 0x4A6B SWAP1 SWAP3 SWAP2 SWAP1 PUSH4 0xFFFFFFFF AND JUMP JUMPDEST DUP1 MLOAD SWAP1 SWAP2 POP ISZERO PUSH2 0x3991 JUMPI DUP1 DUP1 PUSH1 0x20 ADD SWAP1 MLOAD DUP2 ADD SWAP1 PUSH2 0x4A0C SWAP2 SWAP1 PUSH2 0x4ECB JUMP JUMPDEST PUSH2 0x3991 JUMPI PUSH1 0x40 MLOAD PUSH3 0x461BCD PUSH1 0xE5 SHL DUP2 MSTORE PUSH1 0x20 PUSH1 0x4 DUP3 ADD MSTORE PUSH1 0x2A PUSH1 0x24 DUP3 ADD MSTORE PUSH32 0x5361666545524332303A204552433230206F7065726174696F6E20646964206E PUSH1 0x44 DUP3 ADD MSTORE PUSH10 0x1BDD081CDD58D8D95959 PUSH1 0xB2 SHL PUSH1 0x64 DUP3 ADD MSTORE PUSH1 0x84 ADD PUSH2 0xCC6 JUMP JUMPDEST PUSH1 0x60 PUSH2 0x1A88 DUP5 DUP5 PUSH1 0x0 DUP6 DUP6 PUSH1 0x1 PUSH1 0x1 PUSH1 0xA0 SHL SUB DUP6 AND EXTCODESIZE PUSH2 0x4ACD JUMPI PUSH1 0x40 MLOAD PUSH3 0x461BCD PUSH1 0xE5 SHL DUP2 MSTORE PUSH1 0x20 PUSH1 0x4 DUP3 ADD MSTORE PUSH1 0x1D PUSH1 0x24 DUP3 ADD MSTORE PUSH32 0x416464726573733A2063616C6C20746F206E6F6E2D636F6E7472616374000000 PUSH1 0x44 DUP3 ADD MSTORE PUSH1 0x64 ADD PUSH2 0xCC6 JUMP JUMPDEST PUSH1 0x0 DUP1 DUP7 PUSH1 0x1 PUSH1 0x1 PUSH1 0xA0 SHL SUB AND DUP6 DUP8 PUSH1 0x40 MLOAD PUSH2 0x4AE9 SWAP2 SWAP1 PUSH2 0x4FA9 JUMP JUMPDEST PUSH1 0x0 PUSH1 0x40 MLOAD DUP1 DUP4 SUB DUP2 DUP6 DUP8 GAS CALL SWAP3 POP POP POP RETURNDATASIZE DUP1 PUSH1 0x0 DUP2 EQ PUSH2 0x4B26 JUMPI PUSH1 0x40 MLOAD SWAP2 POP PUSH1 0x1F NOT PUSH1 0x3F RETURNDATASIZE ADD AND DUP3 ADD PUSH1 0x40 MSTORE RETURNDATASIZE DUP3 MSTORE RETURNDATASIZE PUSH1 0x0 PUSH1 0x20 DUP5 ADD RETURNDATACOPY PUSH2 0x4B2B JUMP JUMPDEST PUSH1 0x60 SWAP2 POP JUMPDEST POP SWAP2 POP SWAP2 POP PUSH2 0x3208 DUP3 DUP3 DUP7 PUSH1 0x60 DUP4 ISZERO PUSH2 0x4B45 JUMPI POP DUP2 PUSH2 0x1A74 JUMP JUMPDEST DUP3 MLOAD ISZERO PUSH2 0x4B55 JUMPI DUP3 MLOAD DUP1 DUP5 PUSH1 0x20 ADD REVERT JUMPDEST DUP2 PUSH1 0x40 MLOAD PUSH3 0x461BCD PUSH1 0xE5 SHL DUP2 MSTORE PUSH1 0x4 ADD PUSH2 0xCC6 SWAP2 SWAP1 PUSH2 0x4C34 JUMP JUMPDEST DUP3 DUP1 SLOAD PUSH2 0x4B7B SWAP1 PUSH2 0x4E90 JUMP JUMPDEST SWAP1 PUSH1 0x0 MSTORE PUSH1 0x20 PUSH1 0x0 KECCAK256 SWAP1 PUSH1 0x1F ADD PUSH1 0x20 SWAP1 DIV DUP2 ADD SWAP3 DUP3 PUSH2 0x4B9D JUMPI PUSH1 0x0 DUP6 SSTORE PUSH2 0x4BE3 JUMP JUMPDEST DUP3 PUSH1 0x1F LT PUSH2 0x4BB6 JUMPI DUP1 MLOAD PUSH1 0xFF NOT AND DUP4 DUP1 ADD OR DUP6 SSTORE PUSH2 0x4BE3 JUMP JUMPDEST DUP3 DUP1 ADD PUSH1 0x1 ADD DUP6 SSTORE DUP3 ISZERO PUSH2 0x4BE3 JUMPI SWAP2 DUP3 ADD JUMPDEST DUP3 DUP2 GT ISZERO PUSH2 0x4BE3 JUMPI DUP3 MLOAD DUP3 SSTORE SWAP2 PUSH1 0x20 ADD SWAP2 SWAP1 PUSH1 0x1 ADD SWAP1 PUSH2 0x4BC8 JUMP JUMPDEST POP PUSH2 0x4BEF SWAP3 SWAP2 POP PUSH2 0x4BF3 JUMP JUMPDEST POP SWAP1 JUMP JUMPDEST JUMPDEST DUP1 DUP3 GT ISZERO PUSH2 0x4BEF JUMPI PUSH1 0x0 DUP2 SSTORE PUSH1 0x1 ADD PUSH2 0x4BF4 JUMP JUMPDEST PUSH1 0x0 JUMPDEST DUP4 DUP2 LT ISZERO PUSH2 0x4C23 JUMPI DUP2 DUP2 ADD MLOAD DUP4 DUP3 ADD MSTORE PUSH1 0x20 ADD PUSH2 0x4C0B JUMP JUMPDEST DUP4 DUP2 GT ISZERO PUSH2 0x256E JUMPI POP POP PUSH1 0x0 SWAP2 ADD MSTORE JUMP JUMPDEST PUSH1 0x20 DUP2 MSTORE PUSH1 0x0 DUP3 MLOAD DUP1 PUSH1 0x20 DUP5 ADD MSTORE PUSH2 0x4C53 DUP2 PUSH1 0x40 DUP6 ADD PUSH1 0x20 DUP8 ADD PUSH2 0x4C08 JUMP JUMPDEST PUSH1 0x1F ADD PUSH1 0x1F NOT AND SWAP2 SWAP1 SWAP2 ADD PUSH1 0x40 ADD SWAP3 SWAP2 POP POP JUMP JUMPDEST PUSH1 0x0 PUSH1 0x20 DUP3 DUP5 SUB SLT ISZERO PUSH2 0x4C79 JUMPI PUSH1 0x0 DUP1 REVERT JUMPDEST POP CALLDATALOAD SWAP2 SWAP1 POP JUMP JUMPDEST PUSH1 0x1 PUSH1 0x1 PUSH1 0xA0 SHL SUB DUP2 AND DUP2 EQ PUSH2 0x4C95 JUMPI PUSH1 0x0 DUP1 REVERT JUMPDEST POP JUMP JUMPDEST DUP1 CALLDATALOAD PUSH2 0x10B1 DUP2 PUSH2 0x4C80 JUMP JUMPDEST PUSH1 0x0 DUP1 PUSH1 0x40 DUP4 DUP6 SUB SLT ISZERO PUSH2 0x4CB6 JUMPI PUSH1 0x0 DUP1 REVERT JUMPDEST DUP3 CALLDATALOAD PUSH2 0x4CC1 DUP2 PUSH2 0x4C80 JUMP JUMPDEST SWAP5 PUSH1 0x20 SWAP4 SWAP1 SWAP4 ADD CALLDATALOAD SWAP4 POP POP POP JUMP JUMPDEST PUSH1 0x0 PUSH1 0x20 DUP3 DUP5 SUB SLT ISZERO PUSH2 0x4CE1 JUMPI PUSH1 0x0 DUP1 REVERT JUMPDEST DUP2 CALLDATALOAD PUSH2 0x1A74 DUP2 PUSH2 0x4C80 JUMP JUMPDEST PUSH1 0x0 DUP1 PUSH1 0x0 PUSH1 0x60 DUP5 DUP7 SUB SLT ISZERO PUSH2 0x4D01 JUMPI PUSH1 0x0 DUP1 REVERT JUMPDEST DUP4 CALLDATALOAD PUSH2 0x4D0C DUP2 PUSH2 0x4C80 JUMP JUMPDEST SWAP6 PUSH1 0x20 DUP6 ADD CALLDATALOAD SWAP6 POP PUSH1 0x40 SWAP1 SWAP5 ADD CALLDATALOAD SWAP4 SWAP3 POP POP POP JUMP JUMPDEST PUSH4 0x4E487B71 PUSH1 0xE0 SHL PUSH1 0x0 MSTORE PUSH1 0x41 PUSH1 0x4 MSTORE PUSH1 0x24 PUSH1 0x0 REVERT JUMPDEST PUSH1 0x0 DUP1 PUSH1 0x0 PUSH1 0x60 DUP5 DUP7 SUB SLT ISZERO PUSH2 0x4D4C JUMPI PUSH1 0x0 DUP1 REVERT JUMPDEST DUP4 CALLDATALOAD PUSH1 0x1 PUSH1 0x1 PUSH1 0x40 SHL SUB DUP1 DUP3 GT ISZERO PUSH2 0x4D63 JUMPI PUSH1 0x0 DUP1 REVERT JUMPDEST DUP2 DUP7 ADD SWAP2 POP DUP7 PUSH1 0x1F DUP4 ADD SLT PUSH2 0x4D77 JUMPI PUSH1 0x0 DUP1 REVERT JUMPDEST DUP2 CALLDATALOAD DUP2 DUP2 GT ISZERO PUSH2 0x4D89 JUMPI PUSH2 0x4D89 PUSH2 0x4D21 JUMP JUMPDEST PUSH1 0x40 MLOAD PUSH1 0x1F DUP3 ADD PUSH1 0x1F NOT SWAP1 DUP2 AND PUSH1 0x3F ADD AND DUP2 ADD SWAP1 DUP4 DUP3 GT DUP2 DUP4 LT OR ISZERO PUSH2 0x4DB1 JUMPI PUSH2 0x4DB1 PUSH2 0x4D21 JUMP JUMPDEST DUP2 PUSH1 0x40 MSTORE DUP3 DUP2 MSTORE DUP10 PUSH1 0x20 DUP5 DUP8 ADD ADD GT ISZERO PUSH2 0x4DCA JUMPI PUSH1 0x0 DUP1 REVERT JUMPDEST DUP3 PUSH1 0x20 DUP7 ADD PUSH1 0x20 DUP4 ADD CALLDATACOPY PUSH1 0x0 PUSH1 0x20 DUP5 DUP4 ADD ADD MSTORE DUP1 SWAP8 POP POP POP POP POP POP PUSH1 0x20 DUP5 ADD CALLDATALOAD SWAP2 POP PUSH2 0x4DF8 PUSH1 0x40 DUP6 ADD PUSH2 0x4C98 JUMP JUMPDEST SWAP1 POP SWAP3 POP SWAP3 POP SWAP3 JUMP JUMPDEST PUSH1 0x0 DUP1 PUSH1 0x40 DUP4 DUP6 SUB SLT ISZERO PUSH2 0x4E14 JUMPI PUSH1 0x0 DUP1 REVERT JUMPDEST POP POP DUP1 CALLDATALOAD SWAP3 PUSH1 0x20 SWAP1 SWAP2 ADD CALLDATALOAD SWAP2 POP JUMP JUMPDEST PUSH1 0x0 DUP1 PUSH1 0x0 PUSH1 0x60 DUP5 DUP7 SUB SLT ISZERO PUSH2 0x4E38 JUMPI PUSH1 0x0 DUP1 REVERT JUMPDEST POP POP DUP2 CALLDATALOAD SWAP4 PUSH1 0x20 DUP4 ADD CALLDATALOAD SWAP4 POP PUSH1 0x40 SWAP1 SWAP3 ADD CALLDATALOAD SWAP2 SWAP1 POP JUMP JUMPDEST PUSH1 0x0 DUP1 PUSH1 0x0 PUSH1 0x60 DUP5 DUP7 SUB SLT ISZERO PUSH2 0x4E64 JUMPI PUSH1 0x0 DUP1 REVERT JUMPDEST DUP4 CALLDATALOAD PUSH2 0x4E6F DUP2 PUSH2 0x4C80 JUMP JUMPDEST SWAP3 POP PUSH1 0x20 DUP5 ADD CALLDATALOAD PUSH2 0x4E7F DUP2 PUSH2 0x4C80 JUMP JUMPDEST SWAP3 SWAP6 SWAP3 SWAP5 POP POP POP PUSH1 0x40 SWAP2 SWAP1 SWAP2 ADD CALLDATALOAD SWAP1 JUMP JUMPDEST PUSH1 0x1 DUP2 DUP2 SHR SWAP1 DUP3 AND DUP1 PUSH2 0x4EA4 JUMPI PUSH1 0x7F DUP3 AND SWAP2 POP JUMPDEST PUSH1 0x20 DUP3 LT DUP2 EQ ISZERO PUSH2 0x4EC5 JUMPI PUSH4 0x4E487B71 PUSH1 0xE0 SHL PUSH1 0x0 MSTORE PUSH1 0x22 PUSH1 0x4 MSTORE PUSH1 0x24 PUSH1 0x0 REVERT JUMPDEST POP SWAP2 SWAP1 POP JUMP JUMPDEST PUSH1 0x0 PUSH1 0x20 DUP3 DUP5 SUB SLT ISZERO PUSH2 0x4EDD JUMPI PUSH1 0x0 DUP1 REVERT JUMPDEST DUP2 MLOAD DUP1 ISZERO ISZERO DUP2 EQ PUSH2 0x1A74 JUMPI PUSH1 0x0 DUP1 REVERT JUMPDEST PUSH1 0x0 PUSH1 0x20 DUP3 DUP5 SUB SLT ISZERO PUSH2 0x4EFF JUMPI PUSH1 0x0 DUP1 REVERT JUMPDEST POP MLOAD SWAP2 SWAP1 POP JUMP JUMPDEST PUSH4 0x4E487B71 PUSH1 0xE0 SHL PUSH1 0x0 MSTORE PUSH1 0x11 PUSH1 0x4 MSTORE PUSH1 0x24 PUSH1 0x0 REVERT JUMPDEST PUSH1 0x0 DUP3 NOT DUP3 GT ISZERO PUSH2 0x4F2F JUMPI PUSH2 0x4F2F PUSH2 0x4F06 JUMP JUMPDEST POP ADD SWAP1 JUMP JUMPDEST PUSH1 0x0 PUSH1 0x20 DUP3 DUP5 SUB SLT ISZERO PUSH2 0x4F46 JUMPI PUSH1 0x0 DUP1 REVERT JUMPDEST DUP2 MLOAD PUSH2 0x1A74 DUP2 PUSH2 0x4C80 JUMP JUMPDEST PUSH1 0x0 DUP3 DUP3 LT ISZERO PUSH2 0x4F63 JUMPI PUSH2 0x4F63 PUSH2 0x4F06 JUMP JUMPDEST POP SUB SWAP1 JUMP JUMPDEST PUSH1 0x0 DUP2 PUSH1 0x0 NOT DIV DUP4 GT DUP3 ISZERO ISZERO AND ISZERO PUSH2 0x4F82 JUMPI PUSH2 0x4F82 PUSH2 0x4F06 JUMP JUMPDEST POP MUL SWAP1 JUMP JUMPDEST PUSH1 0x0 DUP3 PUSH2 0x4FA4 JUMPI PUSH4 0x4E487B71 PUSH1 0xE0 SHL PUSH1 0x0 MSTORE PUSH1 0x12 PUSH1 0x4 MSTORE PUSH1 0x24 PUSH1 0x0 REVERT JUMPDEST POP DIV SWAP1 JUMP JUMPDEST PUSH1 0x0 DUP3 MLOAD PUSH2 0x4FBB DUP2 DUP5 PUSH1 0x20 DUP8 ADD PUSH2 0x4C08 JUMP JUMPDEST SWAP2 SWAP1 SWAP2 ADD SWAP3 SWAP2 POP POP JUMP INVALID PUSH15 0x6F7420656E6F7567682066756E6473 KECCAK256 PUSH24 0x6572652077697468647261776E2066726F6D207468652070 PUSH16 0x6F6C5769746864726177616C46656544 PUSH6 0x637265617365 POP PUSH6 0x72696F640000 STOP STOP STOP PUSH22 0x6E617574686F72697A65642061636365737300000000 STOP STOP STOP STOP STOP STOP STOP STOP STOP PUSH5 0x6561646C69 PUSH15 0x6520686173206E6F74206265656E20 PUSH19 0x65616368656420796574746865206D696E7465 PUSH19 0x2061646472657373206F6620746865204C5020 PUSH21 0x6F6B656E20616E642074686520706F6F6C20616464 PUSH19 0x65737320646F206E6F74206D6174636876616C PUSH22 0x65206D75737420626520646966666572656E7420746F KECCAK256 PUSH6 0x78697374696E PUSH8 0x2076616C7565A264 PUSH10 0x70667358221220BB286A 0x21 0x21 0x4D 0x5C JUMP PUSH31 0xE8A468D0CB97E0044DB8042D16E5C3C3A27FA14B5E843464736F6C63430008 MULMOD STOP CALLER ","sha1":"22cf4215c28596443b65d3ad60667ab13dbe4df7","source":"// SPDX-License-Identifier: GPL-3.0-or-later\npragma solidity 0.8.9;\n\nimport \"./LiquidityPool.sol\";\nimport \"../../interfaces/pool/IEthPool.sol\";\n\ncontract EthPool is LiquidityPool, IEthPool {\n    constructor(IController _controller) LiquidityPool(_controller) {}\n\n    receive() external payable {}\n\n    function initialize(\n        string memory name_,\n        uint256 depositCap_,\n        address vault_\n    ) external override returns (bool) {\n        return _initialize(name_, depositCap_, vault_);\n    }\n\n    function getUnderlying() public pure override returns (address) {\n        return address(0);\n    }\n\n    function _doTransferIn(address from, uint256 amount) internal override {\n        require(msg.sender == from, Error.INVALID_SENDER);\n        require(msg.value == amount, Error.INVALID_AMOUNT);\n    }\n\n    function _doTransferOut(address payable to, uint256 amount) internal override {\n        to.transfer(amount);\n    }\n\n    function _getBalanceUnderlying() internal view override returns (uint256) {\n        return _getBalanceUnderlying(false);\n    }\n\n    function _getBalanceUnderlying(bool transferInDone) internal view override returns (uint256) {\n        uint256 balance = address(this).balance;\n        if (!transferInDone) {\n            balance -= msg.value;\n        }\n        return balance;\n    }\n}\n","sourcePath":"contracts/pool/EthPool.sol","type":"contract","deployment":{"address":"0xCd283dFD87F5A5765AdCCBC9bE053e07f8d85505","chainid":"1","blockHeight":14391282}}