{
  "address": "0x8ad5fBdDE983EBDfFf3AbE8A2886d3CC7CbAe991",
  "abi": [
    {
      "inputs": [],
      "stateMutability": "nonpayable",
      "type": "constructor"
    },
    {
      "anonymous": false,
      "inputs": [
        {
          "indexed": true,
          "internalType": "address",
          "name": "account",
          "type": "address"
        }
      ],
      "name": "AccountAllowed",
      "type": "event"
    },
    {
      "anonymous": false,
      "inputs": [
        {
          "indexed": true,
          "internalType": "address",
          "name": "account",
          "type": "address"
        }
      ],
      "name": "AccountBlocked",
      "type": "event"
    },
    {
      "anonymous": false,
      "inputs": [
        {
          "indexed": false,
          "internalType": "uint32",
          "name": "index",
          "type": "uint32"
        }
      ],
      "name": "AllowedAccountsCleared",
      "type": "event"
    },
    {
      "anonymous": false,
      "inputs": [
        {
          "indexed": false,
          "internalType": "uint32",
          "name": "index",
          "type": "uint32"
        }
      ],
      "name": "BlockedAccountsCleared",
      "type": "event"
    },
    {
      "anonymous": false,
      "inputs": [
        {
          "indexed": true,
          "internalType": "address",
          "name": "previousOwner",
          "type": "address"
        },
        {
          "indexed": true,
          "internalType": "address",
          "name": "newOwner",
          "type": "address"
        }
      ],
      "name": "OwnershipTransferred",
      "type": "event"
    },
    {
      "anonymous": false,
      "inputs": [
        {
          "indexed": false,
          "internalType": "bytes32",
          "name": "root",
          "type": "bytes32"
        }
      ],
      "name": "RootChanged",
      "type": "event"
    },
    {
      "inputs": [
        {
          "internalType": "address[]",
          "name": "_accounts",
          "type": "address[]"
        }
      ],
      "name": "allowAccounts",
      "outputs": [],
      "stateMutability": "nonpayable",
      "type": "function"
    },
    {
      "inputs": [
        {
          "internalType": "bytes32[]",
          "name": "_proof",
          "type": "bytes32[]"
        }
      ],
      "name": "allowSelf",
      "outputs": [],
      "stateMutability": "nonpayable",
      "type": "function"
    },
    {
      "inputs": [
        {
          "internalType": "address[]",
          "name": "_accounts",
          "type": "address[]"
        }
      ],
      "name": "blockAccounts",
      "outputs": [],
      "stateMutability": "nonpayable",
      "type": "function"
    },
    {
      "inputs": [],
      "name": "clearAllowedAccounts",
      "outputs": [],
      "stateMutability": "nonpayable",
      "type": "function"
    },
    {
      "inputs": [],
      "name": "clearBlockedAccounts",
      "outputs": [],
      "stateMutability": "nonpayable",
      "type": "function"
    },
    {
      "inputs": [],
      "name": "getRoot",
      "outputs": [
        {
          "internalType": "bytes32",
          "name": "",
          "type": "bytes32"
        }
      ],
      "stateMutability": "view",
      "type": "function"
    },
    {
      "inputs": [
        {
          "internalType": "address",
          "name": "_account",
          "type": "address"
        }
      ],
      "name": "isAccountAllowed",
      "outputs": [
        {
          "internalType": "bool",
          "name": "",
          "type": "bool"
        }
      ],
      "stateMutability": "view",
      "type": "function"
    },
    {
      "inputs": [
        {
          "internalType": "address",
          "name": "_account",
          "type": "address"
        }
      ],
      "name": "isAccountBlocked",
      "outputs": [
        {
          "internalType": "bool",
          "name": "",
          "type": "bool"
        }
      ],
      "stateMutability": "view",
      "type": "function"
    },
    {
      "inputs": [],
      "name": "owner",
      "outputs": [
        {
          "internalType": "address",
          "name": "",
          "type": "address"
        }
      ],
      "stateMutability": "view",
      "type": "function"
    },
    {
      "inputs": [],
      "name": "renounceOwnership",
      "outputs": [],
      "stateMutability": "nonpayable",
      "type": "function"
    },
    {
      "inputs": [
        {
          "internalType": "bytes32",
          "name": "_newRoot",
          "type": "bytes32"
        }
      ],
      "name": "setRoot",
      "outputs": [],
      "stateMutability": "nonpayable",
      "type": "function"
    },
    {
      "inputs": [
        {
          "internalType": "bytes32",
          "name": "_newRoot",
          "type": "bytes32"
        }
      ],
      "name": "setRootAndClearAllowedAccounts",
      "outputs": [],
      "stateMutability": "nonpayable",
      "type": "function"
    },
    {
      "inputs": [
        {
          "internalType": "address",
          "name": "newOwner",
          "type": "address"
        }
      ],
      "name": "transferOwnership",
      "outputs": [],
      "stateMutability": "nonpayable",
      "type": "function"
    }
  ],
  "transactionHash": "0x47b902ae58bc7181ff2aa2fd593686664ba2ebdcdffc8e0195c731790fce1396",
  "args": [],
  "numDeployments": 1,
  "solcInputHash": "b97d6b1548b0198541c4320629f176b4",
  "bytecode": "0x608060405234801561001057600080fd5b5061001a3361001f565b61006f565b600080546001600160a01b038381166001600160a01b0319831681178455604051919092169283917f8be0079c531659141344cd1fd0a4f28419497f9722a3daafe3b4186f6b6457e09190a35050565b610f938061007e6000396000f3fe608060405234801561001057600080fd5b50600436106100df5760003560e01c8063851678e11161008c578063c41ac1e911610066578063c41ac1e9146101d0578063ca88bd5b146101e3578063dab5f34014610235578063f2fde38b1461024857600080fd5b8063851678e1146101825780638da5cb5b14610195578063becc43a7146101bd57600080fd5b80635f69aaf9116100bd5780635f69aaf91461015f5780636abf708114610167578063715018a61461017a57600080fd5b80631fd9a8c6146100e4578063575ca0c9146101445780635ca1e1651461014e575b600080fd5b61012f6100f2366004610e0c565b60025461ffff16600090815260036020908152604080832073ffffffffffffffffffffffffffffffffffffffff9094168352929052205460ff1690565b60405190151581526020015b60405180910390f35b61014c61025b565b005b60015460405190815260200161013b565b61014c6102eb565b61014c610175366004610e49565b6103e3565b61014c610587565b61014c610190366004610e8b565b610612565b60005460405173ffffffffffffffffffffffffffffffffffffffff909116815260200161013b565b61014c6101cb366004610e49565b6106a7565b61014c6101de366004610e49565b610840565b61012f6101f1366004610e0c565b60025461ffff6201000090910416600090815260046020908152604080832073ffffffffffffffffffffffffffffffffffffffff9094168352929052205460ff1690565b61014c610243366004610e8b565b610a33565b61014c610256366004610e0c565b610abd565b60005473ffffffffffffffffffffffffffffffffffffffff1633146102e1576040517f08c379a000000000000000000000000000000000000000000000000000000000815260206004820181905260248201527f4f776e61626c653a2063616c6c6572206973206e6f7420746865206f776e657260448201526064015b60405180910390fd5b6102e9610bea565b565b60005473ffffffffffffffffffffffffffffffffffffffff16331461036c576040517f08c379a000000000000000000000000000000000000000000000000000000000815260206004820181905260248201527f4f776e61626c653a2063616c6c6572206973206e6f7420746865206f776e657260448201526064016102d8565b6002805462010000900461ffff16908061038583610ea4565b82546101009290920a61ffff8181021990931691831602179091556002546040516201000090910490911681527ff00615fe8ae50ff90ca87ea3ef0ef3900f17c6ed04a215096a77539eebe886af91506020015b60405180910390a1565b60005473ffffffffffffffffffffffffffffffffffffffff163314610464576040517f08c379a000000000000000000000000000000000000000000000000000000000815260206004820181905260248201527f4f776e61626c653a2063616c6c6572206973206e6f7420746865206f776e657260448201526064016102d8565b60005b818110156105825760025462010000900461ffff16600090815260046020526040812060019185858581811061049f5761049f610f2e565b90506020020160208101906104b49190610e0c565b73ffffffffffffffffffffffffffffffffffffffff168152602081019190915260400160002080547fffffffffffffffffffffffffffffffffffffffffffffffffffffffffffffff001691151591909117905582828281811061051957610519610f2e565b905060200201602081019061052e9190610e0c565b73ffffffffffffffffffffffffffffffffffffffff167f28e9b38569d728986e5868b0e113d9a49ee4c47dfc6db29a673e25b3515a56a860405160405180910390a28061057a81610ec6565b915050610467565b505050565b60005473ffffffffffffffffffffffffffffffffffffffff163314610608576040517f08c379a000000000000000000000000000000000000000000000000000000000815260206004820181905260248201527f4f776e61626c653a2063616c6c6572206973206e6f7420746865206f776e657260448201526064016102d8565b6102e96000610c4e565b60005473ffffffffffffffffffffffffffffffffffffffff163314610693576040517f08c379a000000000000000000000000000000000000000000000000000000000815260206004820181905260248201527f4f776e61626c653a2063616c6c6572206973206e6f7420746865206f776e657260448201526064016102d8565b61069c81610cc3565b6106a4610bea565b50565b60005473ffffffffffffffffffffffffffffffffffffffff163314610728576040517f08c379a000000000000000000000000000000000000000000000000000000000815260206004820181905260248201527f4f776e61626c653a2063616c6c6572206973206e6f7420746865206f776e657260448201526064016102d8565b60005b818110156105825760025461ffff16600090815260036020526040812060019185858581811061075d5761075d610f2e565b90506020020160208101906107729190610e0c565b73ffffffffffffffffffffffffffffffffffffffff168152602081019190915260400160002080547fffffffffffffffffffffffffffffffffffffffffffffffffffffffffffffff00169115159190911790558282828181106107d7576107d7610f2e565b90506020020160208101906107ec9190610e0c565b73ffffffffffffffffffffffffffffffffffffffff167f2241f00dd2c136c402aac1497b67b34525c46620ff2762139f3f88ca5f7409c560405160405180910390a28061083881610ec6565b91505061072b565b60025461ffff16600090815260036020908152604080832033845290915290205460ff16156108cb576040517f08c379a000000000000000000000000000000000000000000000000000000000815260206004820152601a60248201527f4163636f756e7420616c7265616479207265676973746572656400000000000060448201526064016102d8565b6040517fffffffffffffffffffffffffffffffffffffffff0000000000000000000000003360601b166020820152600090603401604051602081830303815290604052805190602001209050610958838380806020026020016040519081016040528093929190818152602001838360200280828437600092019190915250506001549150849050610cfe565b6109be576040517f08c379a000000000000000000000000000000000000000000000000000000000815260206004820152600d60248201527f496e76616c69642070726f6f660000000000000000000000000000000000000060448201526064016102d8565b60025461ffff16600090815260036020908152604080832033808552925280832080547fffffffffffffffffffffffffffffffffffffffffffffffffffffffffffffff001660011790555190917f2241f00dd2c136c402aac1497b67b34525c46620ff2762139f3f88ca5f7409c591a2505050565b60005473ffffffffffffffffffffffffffffffffffffffff163314610ab4576040517f08c379a000000000000000000000000000000000000000000000000000000000815260206004820181905260248201527f4f776e61626c653a2063616c6c6572206973206e6f7420746865206f776e657260448201526064016102d8565b6106a481610cc3565b60005473ffffffffffffffffffffffffffffffffffffffff163314610b3e576040517f08c379a000000000000000000000000000000000000000000000000000000000815260206004820181905260248201527f4f776e61626c653a2063616c6c6572206973206e6f7420746865206f776e657260448201526064016102d8565b73ffffffffffffffffffffffffffffffffffffffff8116610be1576040517f08c379a000000000000000000000000000000000000000000000000000000000815260206004820152602660248201527f4f776e61626c653a206e6577206f776e657220697320746865207a65726f206160448201527f646472657373000000000000000000000000000000000000000000000000000060648201526084016102d8565b6106a481610c4e565b6002805461ffff16906000610bfe83610ea4565b82546101009290920a61ffff818102199093169183160217909155600254604051911681527f2d7888569c1691ca7c866b17ee2300ae16414c90e24fa2ead0530abe2520d6a791506020016103d9565b6000805473ffffffffffffffffffffffffffffffffffffffff8381167fffffffffffffffffffffffff0000000000000000000000000000000000000000831681178455604051919092169283917f8be0079c531659141344cd1fd0a4f28419497f9722a3daafe3b4186f6b6457e09190a35050565b60018190556040518181527f545a99af2f74d472d3ceb11889ff68b31a1a02f48a9431f04cda814892ee57e29060200160405180910390a150565b600082610d0b8584610d14565b14949350505050565b600081815b8451811015610db8576000858281518110610d3657610d36610f2e565b60200260200101519050808311610d78576040805160208101859052908101829052606001604051602081830303815290604052805190602001209250610da5565b60408051602081018390529081018490526060016040516020818303038152906040528051906020012092505b5080610db081610ec6565b915050610d19565b509392505050565b60008083601f840112610dd257600080fd5b50813567ffffffffffffffff811115610dea57600080fd5b6020830191508360208260051b8501011115610e0557600080fd5b9250929050565b600060208284031215610e1e57600080fd5b813573ffffffffffffffffffffffffffffffffffffffff81168114610e4257600080fd5b9392505050565b60008060208385031215610e5c57600080fd5b823567ffffffffffffffff811115610e7357600080fd5b610e7f85828601610dc0565b90969095509350505050565b600060208284031215610e9d57600080fd5b5035919050565b600061ffff80831681811415610ebc57610ebc610eff565b6001019392505050565b60007fffffffffffffffffffffffffffffffffffffffffffffffffffffffffffffffff821415610ef857610ef8610eff565b5060010190565b7f4e487b7100000000000000000000000000000000000000000000000000000000600052601160045260246000fd5b7f4e487b7100000000000000000000000000000000000000000000000000000000600052603260045260246000fdfea2646970667358221220a3dbd3deabe52c58ef0139822b4606dcbf1d985211124622af7a0fa4d4abeb6664736f6c63430008070033",
  "devdoc": {
    "kind": "dev",
    "methods": {
      "clearAllowedAccounts()": {
        "details": "This does not actually modify any existing allowlists, the the function will increment an index pointing to a new mapping that will be referenced. Only callable by `owner()`."
      },
      "clearBlockedAccounts()": {
        "details": "This does not actually modify any existing blocklists, the the function will increment an index pointing to a new mapping that will be referenced. Only callable by `owner()`."
      },
      "getRoot()": {
        "returns": {
          "_0": "The current merkle root"
        }
      },
      "owner()": {
        "details": "Returns the address of the current owner."
      },
      "renounceOwnership()": {
        "details": "Leaves the contract without owner. It will not be possible to call `onlyOwner` functions anymore. Can only be called by the current owner. NOTE: Renouncing ownership will leave the contract without an owner, thereby removing any functionality that is only available to the owner."
      },
      "transferOwnership(address)": {
        "details": "Transfers ownership of the contract to a new account (`newOwner`). Can only be called by the current owner."
      }
    },
    "version": 1
  },
  "userdoc": {
    "kind": "user",
    "methods": {
      "clearAllowedAccounts()": {
        "notice": "Clears the allowlist for all accounts."
      },
      "clearBlockedAccounts()": {
        "notice": "Clears the blocklist for all accounts."
      },
      "getRoot()": {
        "notice": "Returns the merkle root used to determine which accounts to allow."
      }
    },
    "version": 1
  },
  "storageLayout": {
    "storage": [
      {
        "astId": 964,
        "contract": "contracts/core/AccountAccessController.sol:AccountAccessController",
        "label": "_owner",
        "offset": 0,
        "slot": "0",
        "type": "t_address"
      },
      {
        "astId": 3027,
        "contract": "contracts/core/AccountAccessController.sol:AccountAccessController",
        "label": "_root",
        "offset": 0,
        "slot": "1",
        "type": "t_bytes32"
      },
      {
        "astId": 3029,
        "contract": "contracts/core/AccountAccessController.sol:AccountAccessController",
        "label": "_allowedAccountsIndex",
        "offset": 0,
        "slot": "2",
        "type": "t_uint16"
      },
      {
        "astId": 3031,
        "contract": "contracts/core/AccountAccessController.sol:AccountAccessController",
        "label": "_blockedAccountsIndex",
        "offset": 2,
        "slot": "2",
        "type": "t_uint16"
      },
      {
        "astId": 3037,
        "contract": "contracts/core/AccountAccessController.sol:AccountAccessController",
        "label": "_allowedAccounts",
        "offset": 0,
        "slot": "3",
        "type": "t_mapping(t_uint16,t_mapping(t_address,t_bool))"
      },
      {
        "astId": 3043,
        "contract": "contracts/core/AccountAccessController.sol:AccountAccessController",
        "label": "_blockedAccounts",
        "offset": 0,
        "slot": "4",
        "type": "t_mapping(t_uint16,t_mapping(t_address,t_bool))"
      }
    ],
    "types": {
      "t_address": {
        "encoding": "inplace",
        "label": "address",
        "numberOfBytes": "20"
      },
      "t_bool": {
        "encoding": "inplace",
        "label": "bool",
        "numberOfBytes": "1"
      },
      "t_bytes32": {
        "encoding": "inplace",
        "label": "bytes32",
        "numberOfBytes": "32"
      },
      "t_mapping(t_address,t_bool)": {
        "encoding": "mapping",
        "key": "t_address",
        "label": "mapping(address => bool)",
        "numberOfBytes": "32",
        "value": "t_bool"
      },
      "t_mapping(t_uint16,t_mapping(t_address,t_bool))": {
        "encoding": "mapping",
        "key": "t_uint16",
        "label": "mapping(uint16 => mapping(address => bool))",
        "numberOfBytes": "32",
        "value": "t_mapping(t_address,t_bool)"
      },
      "t_uint16": {
        "encoding": "inplace",
        "label": "uint16",
        "numberOfBytes": "2"
      }
    }
  }
}