{
  "address": "0x644cdC1e2CdAa175D138b9f5960229Bf75abfbE3",
  "abi": [
    {
      "inputs": [
        {
          "internalType": "address",
          "name": "_newController",
          "type": "address"
        },
        {
          "internalType": "address",
          "name": "_newBaseToken",
          "type": "address"
        }
      ],
      "stateMutability": "nonpayable",
      "type": "constructor"
    },
    {
      "anonymous": false,
      "inputs": [
        {
          "indexed": true,
          "internalType": "address",
          "name": "previousOwner",
          "type": "address"
        },
        {
          "indexed": true,
          "internalType": "address",
          "name": "newOwner",
          "type": "address"
        }
      ],
      "name": "OwnershipTransferred",
      "type": "event"
    },
    {
      "anonymous": false,
      "inputs": [
        {
          "indexed": false,
          "internalType": "address",
          "name": "vault",
          "type": "address"
        }
      ],
      "name": "VaultChanged",
      "type": "event"
    },
    {
      "inputs": [],
      "name": "INITIAL_SHARE_VALUE",
      "outputs": [
        {
          "internalType": "uint256",
          "name": "",
          "type": "uint256"
        }
      ],
      "stateMutability": "view",
      "type": "function"
    },
    {
      "inputs": [],
      "name": "apy",
      "outputs": [
        {
          "internalType": "uint256",
          "name": "",
          "type": "uint256"
        }
      ],
      "stateMutability": "view",
      "type": "function"
    },
    {
      "inputs": [],
      "name": "beginning",
      "outputs": [
        {
          "internalType": "uint256",
          "name": "",
          "type": "uint256"
        }
      ],
      "stateMutability": "view",
      "type": "function"
    },
    {
      "inputs": [
        {
          "internalType": "uint256",
          "name": "_amount",
          "type": "uint256"
        }
      ],
      "name": "deposit",
      "outputs": [],
      "stateMutability": "nonpayable",
      "type": "function"
    },
    {
      "inputs": [],
      "name": "getBaseToken",
      "outputs": [
        {
          "internalType": "contract IERC20",
          "name": "",
          "type": "address"
        }
      ],
      "stateMutability": "view",
      "type": "function"
    },
    {
      "inputs": [],
      "name": "getController",
      "outputs": [
        {
          "internalType": "contract IStrategyController",
          "name": "",
          "type": "address"
        }
      ],
      "stateMutability": "view",
      "type": "function"
    },
    {
      "inputs": [],
      "name": "owner",
      "outputs": [
        {
          "internalType": "address",
          "name": "",
          "type": "address"
        }
      ],
      "stateMutability": "view",
      "type": "function"
    },
    {
      "inputs": [],
      "name": "renounceOwnership",
      "outputs": [],
      "stateMutability": "nonpayable",
      "type": "function"
    },
    {
      "inputs": [
        {
          "internalType": "uint256",
          "name": "_apy",
          "type": "uint256"
        }
      ],
      "name": "setApy",
      "outputs": [],
      "stateMutability": "nonpayable",
      "type": "function"
    },
    {
      "inputs": [
        {
          "internalType": "uint256",
          "name": "_beginning",
          "type": "uint256"
        }
      ],
      "name": "setBeginning",
      "outputs": [],
      "stateMutability": "nonpayable",
      "type": "function"
    },
    {
      "inputs": [
        {
          "internalType": "contract IERC20",
          "name": "_newVault",
          "type": "address"
        }
      ],
      "name": "setVault",
      "outputs": [],
      "stateMutability": "nonpayable",
      "type": "function"
    },
    {
      "inputs": [],
      "name": "totalValue",
      "outputs": [
        {
          "internalType": "uint256",
          "name": "",
          "type": "uint256"
        }
      ],
      "stateMutability": "view",
      "type": "function"
    },
    {
      "inputs": [
        {
          "internalType": "address",
          "name": "newOwner",
          "type": "address"
        }
      ],
      "name": "transferOwnership",
      "outputs": [],
      "stateMutability": "nonpayable",
      "type": "function"
    },
    {
      "inputs": [],
      "name": "vault",
      "outputs": [
        {
          "internalType": "contract IERC20",
          "name": "",
          "type": "address"
        }
      ],
      "stateMutability": "view",
      "type": "function"
    },
    {
      "inputs": [
        {
          "internalType": "address",
          "name": "_recipient",
          "type": "address"
        },
        {
          "internalType": "uint256",
          "name": "_amount",
          "type": "uint256"
        }
      ],
      "name": "withdraw",
      "outputs": [],
      "stateMutability": "nonpayable",
      "type": "function"
    }
  ],
  "transactionHash": "0x47c8944f9f23e270f13307c5baf958c735cdd3fc007fb05faaf5a8b20bf0e3da",
  "args": [
    "0xcf88bb8f916705D199B597e6131C9febE5289aE1",
    "0xc0D34e36D829Ac4fbDcb9aE42FcbA14ff6C434d5"
  ],
  "numDeployments": 1,
  "solcInputHash": "b97d6b1548b0198541c4320629f176b4",
  "bytecode": "0x608060405234801561001057600080fd5b50604051620014e5380380620014e5833981016040819052610031916100df565b61003a33610073565b60018055600280546001600160a01b039384166001600160a01b0319918216179091556003805492909316911617905542600555610112565b600080546001600160a01b038381166001600160a01b0319831681178455604051919092169283917f8be0079c531659141344cd1fd0a4f28419497f9722a3daafe3b4186f6b6457e09190a35050565b80516001600160a01b03811681146100da57600080fd5b919050565b600080604083850312156100f257600080fd5b6100fb836100c3565b9150610109602084016100c3565b90509250929050565b6113c380620001226000396000f3fe608060405234801561001057600080fd5b50600436106100f55760003560e01c806398acd7a611610097578063e440a03e11610066578063e440a03e146101f4578063f2fde38b14610207578063f3fef3a31461021a578063fbfa77cf1461022d57600080fd5b806398acd7a6146101ac578063b436e49a146101ca578063b6b55f25146101d9578063d4c3eea0146101ec57600080fd5b80634a797b47116100d35780634a797b471461016a5780636817031b14610173578063715018a6146101865780638da5cb5b1461018e57600080fd5b80633018205f146100fa5780633b3f5e361461013e5780633bcfc4b814610153575b600080fd5b60025473ffffffffffffffffffffffffffffffffffffffff165b60405173ffffffffffffffffffffffffffffffffffffffff90911681526020015b60405180910390f35b61015161014c3660046111ca565b61024d565b005b61015c60065481565b604051908152602001610135565b61015c60055481565b61015161018136600461115f565b6102d8565b6101516103d2565b60005473ffffffffffffffffffffffffffffffffffffffff16610114565b60035473ffffffffffffffffffffffffffffffffffffffff16610114565b61015c670de0b6b3a764000081565b6101516101e73660046111ca565b61045f565b61015c61067b565b6101516102023660046111ca565b610743565b61015161021536600461115f565b6107c9565b61015161022836600461117c565b6108f9565b6004546101149073ffffffffffffffffffffffffffffffffffffffff1681565b60005473ffffffffffffffffffffffffffffffffffffffff1633146102d3576040517f08c379a000000000000000000000000000000000000000000000000000000000815260206004820181905260248201527f4f776e61626c653a2063616c6c6572206973206e6f7420746865206f776e657260448201526064015b60405180910390fd5b600655565b60005473ffffffffffffffffffffffffffffffffffffffff163314610359576040517f08c379a000000000000000000000000000000000000000000000000000000000815260206004820181905260248201527f4f776e61626c653a2063616c6c6572206973206e6f7420746865206f776e657260448201526064016102ca565b600480547fffffffffffffffffffffffff00000000000000000000000000000000000000001673ffffffffffffffffffffffffffffffffffffffff83169081179091556040519081527fa49691f0dd6477ccef49962612a236d252e3a31c3be8b61fa6abeff3e74a75729060200160405180910390a150565b60005473ffffffffffffffffffffffffffffffffffffffff163314610453576040517f08c379a000000000000000000000000000000000000000000000000000000000815260206004820181905260248201527f4f776e61626c653a2063616c6c6572206973206e6f7420746865206f776e657260448201526064016102ca565b61045d6000610b83565b565b60025473ffffffffffffffffffffffffffffffffffffffff1633146104e0576040517f08c379a000000000000000000000000000000000000000000000000000000000815260206004820152601c60248201527f43616c6c6572206973206e6f742074686520636f6e74726f6c6c65720000000060448201526064016102ca565b6003546040517f70a0823100000000000000000000000000000000000000000000000000000000815230600482015260009173ffffffffffffffffffffffffffffffffffffffff16906370a082319060240160206040518083038186803b15801561054a57600080fd5b505afa15801561055e573d6000803e3d6000fd5b505050506040513d601f19601f8201168201806040525081019061058291906111e3565b9050600061058e610bf8565b9050811561064b578181111561064b5760035473ffffffffffffffffffffffffffffffffffffffff166340c10f19306105c785856112f9565b6040517fffffffff0000000000000000000000000000000000000000000000000000000060e085901b16815273ffffffffffffffffffffffffffffffffffffffff90921660048301526024820152604401600060405180830381600087803b15801561063257600080fd5b505af1158015610646573d6000803e3d6000fd5b505050505b6002546003546106769173ffffffffffffffffffffffffffffffffffffffff91821691163086610cc4565b505050565b6003546040517f70a08231000000000000000000000000000000000000000000000000000000008152306004820152600091829173ffffffffffffffffffffffffffffffffffffffff909116906370a082319060240160206040518083038186803b1580156106e957600080fd5b505afa1580156106fd573d6000803e3d6000fd5b505050506040513d601f19601f8201168201806040525081019061072191906111e3565b9050600061072d610bf8565b90508082111561073d5750919050565b92915050565b60005473ffffffffffffffffffffffffffffffffffffffff1633146107c4576040517f08c379a000000000000000000000000000000000000000000000000000000000815260206004820181905260248201527f4f776e61626c653a2063616c6c6572206973206e6f7420746865206f776e657260448201526064016102ca565b600555565b60005473ffffffffffffffffffffffffffffffffffffffff16331461084a576040517f08c379a000000000000000000000000000000000000000000000000000000000815260206004820181905260248201527f4f776e61626c653a2063616c6c6572206973206e6f7420746865206f776e657260448201526064016102ca565b73ffffffffffffffffffffffffffffffffffffffff81166108ed576040517f08c379a000000000000000000000000000000000000000000000000000000000815260206004820152602660248201527f4f776e61626c653a206e6577206f776e657220697320746865207a65726f206160448201527f646472657373000000000000000000000000000000000000000000000000000060648201526084016102ca565b6108f681610b83565b50565b60025473ffffffffffffffffffffffffffffffffffffffff16331461097a576040517f08c379a000000000000000000000000000000000000000000000000000000000815260206004820152601c60248201527f43616c6c6572206973206e6f742074686520636f6e74726f6c6c65720000000060448201526064016102ca565b6003546040517f70a0823100000000000000000000000000000000000000000000000000000000815230600482015273ffffffffffffffffffffffffffffffffffffffff909116906370a082319060240160206040518083038186803b1580156109e357600080fd5b505afa1580156109f7573d6000803e3d6000fd5b505050506040513d601f19601f82011682018060405250810190610a1b91906111e3565b811115610b5b576003546040517f70a0823100000000000000000000000000000000000000000000000000000000815230600482015260009173ffffffffffffffffffffffffffffffffffffffff16906370a082319060240160206040518083038186803b158015610a8c57600080fd5b505afa158015610aa0573d6000803e3d6000fd5b505050506040513d601f19601f82011682018060405250810190610ac491906111e3565b610ace90836112f9565b6003546040517f40c10f190000000000000000000000000000000000000000000000000000000081523060048201526024810183905291925073ffffffffffffffffffffffffffffffffffffffff16906340c10f1990604401600060405180830381600087803b158015610b4157600080fd5b505af1158015610b55573d6000803e3d6000fd5b50505050505b600354610b7f9073ffffffffffffffffffffffffffffffffffffffff168383610da6565b5050565b6000805473ffffffffffffffffffffffffffffffffffffffff8381167fffffffffffffffffffffffff0000000000000000000000000000000000000000831681178455604051919092169283917f8be0079c531659141344cd1fd0a4f28419497f9722a3daafe3b4186f6b6457e09190a35050565b6000670de0b6b3a7640000610c0b610dfc565b60048054604080517f18160ddd000000000000000000000000000000000000000000000000000000008152905173ffffffffffffffffffffffffffffffffffffffff909216926318160ddd928282019260209290829003018186803b158015610c7357600080fd5b505afa158015610c87573d6000803e3d6000fd5b505050506040513d601f19601f82011682018060405250810190610cab91906111e3565b610cb591906112bc565b610cbf9190611281565b905090565b60405173ffffffffffffffffffffffffffffffffffffffff80851660248301528316604482015260648101829052610da09085907f23b872dd00000000000000000000000000000000000000000000000000000000906084015b604080517fffffffffffffffffffffffffffffffffffffffffffffffffffffffffffffffe08184030181529190526020810180517bffffffffffffffffffffffffffffffffffffffffffffffffffffffff167fffffffff0000000000000000000000000000000000000000000000000000000090931692909217909152610e67565b50505050565b60405173ffffffffffffffffffffffffffffffffffffffff83166024820152604481018290526106769084907fa9059cbb0000000000000000000000000000000000000000000000000000000090606401610d1e565b6000806301e133806064600654670de0b6b3a7640000610e1c91906112bc565b610e269190611281565b610e309190611281565b9050600060055442610e4291906112f9565b9050610e4e81836112bc565b610e6090670de0b6b3a7640000611269565b9250505090565b6000610ec9826040518060400160405280602081526020017f5361666545524332303a206c6f772d6c6576656c2063616c6c206661696c65648152508573ffffffffffffffffffffffffffffffffffffffff16610f739092919063ffffffff16565b8051909150156106765780806020019051810190610ee791906111a8565b610676576040517f08c379a000000000000000000000000000000000000000000000000000000000815260206004820152602a60248201527f5361666545524332303a204552433230206f7065726174696f6e20646964206e60448201527f6f7420737563636565640000000000000000000000000000000000000000000060648201526084016102ca565b6060610f828484600085610f8c565b90505b9392505050565b60608247101561101e576040517f08c379a000000000000000000000000000000000000000000000000000000000815260206004820152602660248201527f416464726573733a20696e73756666696369656e742062616c616e636520666f60448201527f722063616c6c000000000000000000000000000000000000000000000000000060648201526084016102ca565b843b611086576040517f08c379a000000000000000000000000000000000000000000000000000000000815260206004820152601d60248201527f416464726573733a2063616c6c20746f206e6f6e2d636f6e747261637400000060448201526064016102ca565b6000808673ffffffffffffffffffffffffffffffffffffffff1685876040516110af91906111fc565b60006040518083038185875af1925050503d80600081146110ec576040519150601f19603f3d011682016040523d82523d6000602084013e6110f1565b606091505b509150915061110182828661110c565b979650505050505050565b6060831561111b575081610f85565b82511561112b5782518084602001fd5b816040517f08c379a00000000000000000000000000000000000000000000000000000000081526004016102ca9190611218565b60006020828403121561117157600080fd5b8135610f858161136b565b6000806040838503121561118f57600080fd5b823561119a8161136b565b946020939093013593505050565b6000602082840312156111ba57600080fd5b81518015158114610f8557600080fd5b6000602082840312156111dc57600080fd5b5035919050565b6000602082840312156111f557600080fd5b5051919050565b6000825161120e818460208701611310565b9190910192915050565b6020815260008251806020840152611237816040850160208701611310565b601f017fffffffffffffffffffffffffffffffffffffffffffffffffffffffffffffffe0169190910160400192915050565b6000821982111561127c5761127c61133c565b500190565b6000826112b7577f4e487b7100000000000000000000000000000000000000000000000000000000600052601260045260246000fd5b500490565b6000817fffffffffffffffffffffffffffffffffffffffffffffffffffffffffffffffff04831182151516156112f4576112f461133c565b500290565b60008282101561130b5761130b61133c565b500390565b60005b8381101561132b578181015183820152602001611313565b83811115610da05750506000910152565b7f4e487b7100000000000000000000000000000000000000000000000000000000600052601160045260246000fd5b73ffffffffffffffffffffffffffffffffffffffff811681146108f657600080fdfea264697066735822122038eb7107ef280ae8da31acf2393612a084aa36c8cab3c793ce3a766b8961a17764736f6c63430008070033",
  "devdoc": {
    "kind": "dev",
    "methods": {
      "getBaseToken()": {
        "returns": {
          "_0": "The Base Token address"
        }
      },
      "getController()": {
        "details": "Functions with the `onlyController` modifier can only be called by this Strategy Controller.",
        "returns": {
          "_0": "The Strategy Controller address"
        }
      },
      "owner()": {
        "details": "Returns the address of the current owner."
      },
      "renounceOwnership()": {
        "details": "Leaves the contract without owner. It will not be possible to call `onlyOwner` functions anymore. Can only be called by the current owner. NOTE: Renouncing ownership will leave the contract without an owner, thereby removing any functionality that is only available to the owner."
      },
      "transferOwnership(address)": {
        "details": "Transfers ownership of the contract to a new account (`newOwner`). Can only be called by the current owner."
      }
    },
    "version": 1
  },
  "userdoc": {
    "kind": "user",
    "methods": {
      "apy()": {
        "notice": "Integer percent APY for mock strategy, editable in case we need to modify later for testnet"
      },
      "deposit(uint256)": {
        "notice": "`_baseToken` must blacklist users besides governance and controller from sending to this contract to prevent unwanted share inflation from users directly sending funds to the strategy"
      },
      "getBaseToken()": {
        "notice": "The ERC20 asset that this strategy utilizes to earn yield and return profits with."
      },
      "getController()": {
        "notice": "Returns the Strategy Controller that intermediates interactions between a vault and this strategy."
      },
      "setApy(uint256)": {
        "notice": "Virtual APY yields will be calculated from the starting value of INITIAL_SHARE_VALUE"
      },
      "setBeginning(uint256)": {
        "notice": "Initializes to current timestamp, changeable by governance if needed later"
      },
      "totalValue()": {
        "notice": "Virtual balance is the amount owed to all shareholders based on the current timestamp and virtual APY. This returns the actual `_baseToken` balance if it is greater than the `_virtualBalance`, which for this mock strategy, will always be when a user deposits funds prior to minting shares. After a user deposits funds via `deposit()`, `totalValue()` should return the `_actualBalance` to allow Collateral to determine how many shares to mint for a user. Once the shares are minted, the `_virtualBalance` will once again surpass the `_actualBalance`."
      },
      "vault()": {
        "notice": "This would not exist in an actual strategy since strategies are vault agnostic, only exists because we need to know vault shares supply to simulate a `totalValue()`"
      },
      "withdraw(address,uint256)": {
        "notice": "We enforce `_baseToken` ownership here and not in the initializer since we would have to deterministically figure out strategy deployment address ahead of time"
      }
    },
    "version": 1
  },
  "storageLayout": {
    "storage": [
      {
        "astId": 964,
        "contract": "contracts/core/mocks/MockStrategy.sol:MockStrategy",
        "label": "_owner",
        "offset": 0,
        "slot": "0",
        "type": "t_address"
      },
      {
        "astId": 1072,
        "contract": "contracts/core/mocks/MockStrategy.sol:MockStrategy",
        "label": "_status",
        "offset": 0,
        "slot": "1",
        "type": "t_uint256"
      },
      {
        "astId": 7029,
        "contract": "contracts/core/mocks/MockStrategy.sol:MockStrategy",
        "label": "_controller",
        "offset": 0,
        "slot": "2",
        "type": "t_contract(IStrategyController)6861"
      },
      {
        "astId": 7033,
        "contract": "contracts/core/mocks/MockStrategy.sol:MockStrategy",
        "label": "_baseToken",
        "offset": 0,
        "slot": "3",
        "type": "t_contract(ILongShortToken)6467"
      },
      {
        "astId": 7037,
        "contract": "contracts/core/mocks/MockStrategy.sol:MockStrategy",
        "label": "vault",
        "offset": 0,
        "slot": "4",
        "type": "t_contract(IERC20)1725"
      },
      {
        "astId": 7039,
        "contract": "contracts/core/mocks/MockStrategy.sol:MockStrategy",
        "label": "beginning",
        "offset": 0,
        "slot": "5",
        "type": "t_uint256"
      },
      {
        "astId": 7042,
        "contract": "contracts/core/mocks/MockStrategy.sol:MockStrategy",
        "label": "apy",
        "offset": 0,
        "slot": "6",
        "type": "t_uint256"
      }
    ],
    "types": {
      "t_address": {
        "encoding": "inplace",
        "label": "address",
        "numberOfBytes": "20"
      },
      "t_contract(IERC20)1725": {
        "encoding": "inplace",
        "label": "contract IERC20",
        "numberOfBytes": "20"
      },
      "t_contract(ILongShortToken)6467": {
        "encoding": "inplace",
        "label": "contract ILongShortToken",
        "numberOfBytes": "20"
      },
      "t_contract(IStrategyController)6861": {
        "encoding": "inplace",
        "label": "contract IStrategyController",
        "numberOfBytes": "20"
      },
      "t_uint256": {
        "encoding": "inplace",
        "label": "uint256",
        "numberOfBytes": "32"
      }
    }
  }
}