{
  "address": "0xcf88bb8f916705D199B597e6131C9febE5289aE1",
  "abi": [
    {
      "inputs": [
        {
          "internalType": "contract IERC20",
          "name": "_token",
          "type": "address"
        }
      ],
      "stateMutability": "nonpayable",
      "type": "constructor"
    },
    {
      "anonymous": false,
      "inputs": [
        {
          "indexed": true,
          "internalType": "address",
          "name": "previousOwner",
          "type": "address"
        },
        {
          "indexed": true,
          "internalType": "address",
          "name": "newOwner",
          "type": "address"
        }
      ],
      "name": "OwnershipTransferred",
      "type": "event"
    },
    {
      "anonymous": false,
      "inputs": [
        {
          "indexed": false,
          "internalType": "address",
          "name": "oldStrategy",
          "type": "address"
        },
        {
          "indexed": false,
          "internalType": "address",
          "name": "newStrategy",
          "type": "address"
        },
        {
          "indexed": false,
          "internalType": "uint256",
          "name": "amount",
          "type": "uint256"
        }
      ],
      "name": "StrategyMigrated",
      "type": "event"
    },
    {
      "anonymous": false,
      "inputs": [
        {
          "indexed": false,
          "internalType": "address",
          "name": "vault",
          "type": "address"
        }
      ],
      "name": "VaultChanged",
      "type": "event"
    },
    {
      "inputs": [
        {
          "internalType": "uint256",
          "name": "_amount",
          "type": "uint256"
        }
      ],
      "name": "deposit",
      "outputs": [],
      "stateMutability": "nonpayable",
      "type": "function"
    },
    {
      "inputs": [],
      "name": "getBaseToken",
      "outputs": [
        {
          "internalType": "contract IERC20",
          "name": "",
          "type": "address"
        }
      ],
      "stateMutability": "view",
      "type": "function"
    },
    {
      "inputs": [],
      "name": "getStrategy",
      "outputs": [
        {
          "internalType": "contract IStrategy",
          "name": "",
          "type": "address"
        }
      ],
      "stateMutability": "view",
      "type": "function"
    },
    {
      "inputs": [],
      "name": "getVault",
      "outputs": [
        {
          "internalType": "address",
          "name": "",
          "type": "address"
        }
      ],
      "stateMutability": "view",
      "type": "function"
    },
    {
      "inputs": [
        {
          "internalType": "contract IStrategy",
          "name": "_newStrategy",
          "type": "address"
        }
      ],
      "name": "migrate",
      "outputs": [],
      "stateMutability": "nonpayable",
      "type": "function"
    },
    {
      "inputs": [],
      "name": "owner",
      "outputs": [
        {
          "internalType": "address",
          "name": "",
          "type": "address"
        }
      ],
      "stateMutability": "view",
      "type": "function"
    },
    {
      "inputs": [],
      "name": "renounceOwnership",
      "outputs": [],
      "stateMutability": "nonpayable",
      "type": "function"
    },
    {
      "inputs": [
        {
          "internalType": "address",
          "name": "_newVault",
          "type": "address"
        }
      ],
      "name": "setVault",
      "outputs": [],
      "stateMutability": "nonpayable",
      "type": "function"
    },
    {
      "inputs": [],
      "name": "totalValue",
      "outputs": [
        {
          "internalType": "uint256",
          "name": "",
          "type": "uint256"
        }
      ],
      "stateMutability": "view",
      "type": "function"
    },
    {
      "inputs": [
        {
          "internalType": "address",
          "name": "newOwner",
          "type": "address"
        }
      ],
      "name": "transferOwnership",
      "outputs": [],
      "stateMutability": "nonpayable",
      "type": "function"
    },
    {
      "inputs": [
        {
          "internalType": "address",
          "name": "_recipient",
          "type": "address"
        },
        {
          "internalType": "uint256",
          "name": "_amount",
          "type": "uint256"
        }
      ],
      "name": "withdraw",
      "outputs": [],
      "stateMutability": "nonpayable",
      "type": "function"
    }
  ],
  "transactionHash": "0x701aacd73029c75eb325613371459a9578dd72910af4adf9cc61a49d3b6a3bd6",
  "args": [
    "0xc0D34e36D829Ac4fbDcb9aE42FcbA14ff6C434d5"
  ],
  "numDeployments": 1,
  "solcInputHash": "b97d6b1548b0198541c4320629f176b4",
  "bytecode": "0x60a060405234801561001057600080fd5b506040516116b63803806116b683398101604081905261002f916100ea565b6100383361009a565b600180556001600160a01b0381166100855760405162461bcd60e51b815260206004820152600c60248201526b5a65726f206164647265737360a01b604482015260640160405180910390fd5b60601b6001600160601b03191660805261011a565b600080546001600160a01b038381166001600160a01b0319831681178455604051919092169283917f8be0079c531659141344cd1fd0a4f28419497f9722a3daafe3b4186f6b6457e09190a35050565b6000602082840312156100fc57600080fd5b81516001600160a01b038116811461011357600080fd5b9392505050565b60805160601c6115546101626000396000818161016d015281816104900152818161050a015281816107720152818161085701528181610a280152610c2501526115546000f3fe608060405234801561001057600080fd5b50600436106100c95760003560e01c806398acd7a611610081578063d4c3eea01161005b578063d4c3eea0146101b7578063f2fde38b146101cd578063f3fef3a3146101e057600080fd5b806398acd7a61461016b578063b6b55f2514610191578063ce5494bb146101a457600080fd5b8063715018a6116100b2578063715018a6146101275780638d928af81461012f5780638da5cb5b1461014d57600080fd5b806307da0603146100ce5780636817031b14610112575b600080fd5b60035473ffffffffffffffffffffffffffffffffffffffff165b60405173ffffffffffffffffffffffffffffffffffffffff90911681526020015b60405180910390f35b610125610120366004611387565b6101f3565b005b6101256102f2565b60025473ffffffffffffffffffffffffffffffffffffffff166100e8565b60005473ffffffffffffffffffffffffffffffffffffffff166100e8565b7f00000000000000000000000000000000000000000000000000000000000000006100e8565b61012561019f3660046113f2565b61037f565b6101256101b2366004611387565b6105dd565b6101bf610b54565b604051908152602001610109565b6101256101db366004611387565b610cc3565b6101256101ee3660046113a4565b610df3565b60005473ffffffffffffffffffffffffffffffffffffffff163314610279576040517f08c379a000000000000000000000000000000000000000000000000000000000815260206004820181905260248201527f4f776e61626c653a2063616c6c6572206973206e6f7420746865206f776e657260448201526064015b60405180910390fd5b600280547fffffffffffffffffffffffff00000000000000000000000000000000000000001673ffffffffffffffffffffffffffffffffffffffff83169081179091556040519081527fa49691f0dd6477ccef49962612a236d252e3a31c3be8b61fa6abeff3e74a75729060200160405180910390a150565b60005473ffffffffffffffffffffffffffffffffffffffff163314610373576040517f08c379a000000000000000000000000000000000000000000000000000000000815260206004820181905260248201527f4f776e61626c653a2063616c6c6572206973206e6f7420746865206f776e65726044820152606401610270565b61037d6000610f7a565b565b60025473ffffffffffffffffffffffffffffffffffffffff163314610400576040517f08c379a000000000000000000000000000000000000000000000000000000000815260206004820152601760248201527f43616c6c6572206973206e6f7420746865207661756c740000000000000000006044820152606401610270565b6002600154141561046d576040517f08c379a000000000000000000000000000000000000000000000000000000000815260206004820152601f60248201527f5265656e7472616e637947756172643a207265656e7472616e742063616c6c006044820152606401610270565b60026001819055546104ba9073ffffffffffffffffffffffffffffffffffffffff7f0000000000000000000000000000000000000000000000000000000000000000811691163084610fef565b6003546040517f70a0823100000000000000000000000000000000000000000000000000000000815230600482015273ffffffffffffffffffffffffffffffffffffffff9182169163b6b55f25917f0000000000000000000000000000000000000000000000000000000000000000909116906370a082319060240160206040518083038186803b15801561054e57600080fd5b505afa158015610562573d6000803e3d6000fd5b505050506040513d601f19601f82011682018060405250810190610586919061140b565b6040518263ffffffff1660e01b81526004016105a491815260200190565b600060405180830381600087803b1580156105be57600080fd5b505af11580156105d2573d6000803e3d6000fd5b505060018055505050565b60005473ffffffffffffffffffffffffffffffffffffffff16331461065e576040517f08c379a000000000000000000000000000000000000000000000000000000000815260206004820181905260248201527f4f776e61626c653a2063616c6c6572206973206e6f7420746865206f776e65726044820152606401610270565b600260015414156106cb576040517f08c379a000000000000000000000000000000000000000000000000000000000815260206004820152601f60248201527f5265656e7472616e637947756172643a207265656e7472616e742063616c6c006044820152606401610270565b6002600155600380547fffffffffffffffffffffffff0000000000000000000000000000000000000000811673ffffffffffffffffffffffffffffffffffffffff8481169182179093556040517f095ea7b300000000000000000000000000000000000000000000000000000000815260048101919091527fffffffffffffffffffffffffffffffffffffffffffffffffffffffffffffffff6024820152600092918216917f0000000000000000000000000000000000000000000000000000000000000000169063095ea7b390604401602060405180830381600087803b1580156107b657600080fd5b505af11580156107ca573d6000803e3d6000fd5b505050506040513d601f19601f820116820180604052508101906107ee91906113d0565b5073ffffffffffffffffffffffffffffffffffffffff811615610af3576040517f095ea7b300000000000000000000000000000000000000000000000000000000815273ffffffffffffffffffffffffffffffffffffffff8281166004830152600060248301527f0000000000000000000000000000000000000000000000000000000000000000169063095ea7b390604401602060405180830381600087803b15801561089b57600080fd5b505af11580156108af573d6000803e3d6000fd5b505050506040513d601f19601f820116820180604052508101906108d391906113d0565b508073ffffffffffffffffffffffffffffffffffffffff1663d4c3eea06040518163ffffffff1660e01b815260040160206040518083038186803b15801561091a57600080fd5b505afa15801561092e573d6000803e3d6000fd5b505050506040513d601f19601f82011682018060405250810190610952919061140b565b6040517ff3fef3a30000000000000000000000000000000000000000000000000000000081523060048201526024810182905290925073ffffffffffffffffffffffffffffffffffffffff82169063f3fef3a390604401600060405180830381600087803b1580156109c357600080fd5b505af11580156109d7573d6000803e3d6000fd5b50506040517f70a0823100000000000000000000000000000000000000000000000000000000815230600482015273ffffffffffffffffffffffffffffffffffffffff808716935063b6b55f2592507f000000000000000000000000000000000000000000000000000000000000000016906370a082319060240160206040518083038186803b158015610a6a57600080fd5b505afa158015610a7e573d6000803e3d6000fd5b505050506040513d601f19601f82011682018060405250810190610aa2919061140b565b6040518263ffffffff1660e01b8152600401610ac091815260200190565b600060405180830381600087803b158015610ada57600080fd5b505af1158015610aee573d6000803e3d6000fd5b505050505b6040805173ffffffffffffffffffffffffffffffffffffffff8084168252851660208201529081018390527ff55572e1238e3cef1cce627268598c0bcdc71b7316311157752ae0a2e920998c9060600160405180910390a150506001805550565b600354604080517fd4c3eea0000000000000000000000000000000000000000000000000000000008152905160009273ffffffffffffffffffffffffffffffffffffffff169163d4c3eea0916004808301926020929190829003018186803b158015610bbf57600080fd5b505afa158015610bd3573d6000803e3d6000fd5b505050506040513d601f19601f82011682018060405250810190610bf7919061140b565b6040517f70a082310000000000000000000000000000000000000000000000000000000081523060048201527f000000000000000000000000000000000000000000000000000000000000000073ffffffffffffffffffffffffffffffffffffffff16906370a082319060240160206040518083038186803b158015610c7c57600080fd5b505afa158015610c90573d6000803e3d6000fd5b505050506040513d601f19601f82011682018060405250810190610cb4919061140b565b610cbe9190611491565b905090565b60005473ffffffffffffffffffffffffffffffffffffffff163314610d44576040517f08c379a000000000000000000000000000000000000000000000000000000000815260206004820181905260248201527f4f776e61626c653a2063616c6c6572206973206e6f7420746865206f776e65726044820152606401610270565b73ffffffffffffffffffffffffffffffffffffffff8116610de7576040517f08c379a000000000000000000000000000000000000000000000000000000000815260206004820152602660248201527f4f776e61626c653a206e6577206f776e657220697320746865207a65726f206160448201527f64647265737300000000000000000000000000000000000000000000000000006064820152608401610270565b610df081610f7a565b50565b60025473ffffffffffffffffffffffffffffffffffffffff163314610e74576040517f08c379a000000000000000000000000000000000000000000000000000000000815260206004820152601760248201527f43616c6c6572206973206e6f7420746865207661756c740000000000000000006044820152606401610270565b60026001541415610ee1576040517f08c379a000000000000000000000000000000000000000000000000000000000815260206004820152601f60248201527f5265656e7472616e637947756172643a207265656e7472616e742063616c6c006044820152606401610270565b60026001556003546040517ff3fef3a300000000000000000000000000000000000000000000000000000000815273ffffffffffffffffffffffffffffffffffffffff8481166004830152602482018490529091169063f3fef3a390604401600060405180830381600087803b158015610f5a57600080fd5b505af1158015610f6e573d6000803e3d6000fd5b50506001805550505050565b6000805473ffffffffffffffffffffffffffffffffffffffff8381167fffffffffffffffffffffffff0000000000000000000000000000000000000000831681178455604051919092169283917f8be0079c531659141344cd1fd0a4f28419497f9722a3daafe3b4186f6b6457e09190a35050565b6040805173ffffffffffffffffffffffffffffffffffffffff85811660248301528416604482015260648082018490528251808303909101815260849091019091526020810180517bffffffffffffffffffffffffffffffffffffffffffffffffffffffff167f23b872dd0000000000000000000000000000000000000000000000000000000017905261108490859061108a565b50505050565b60006110ec826040518060400160405280602081526020017f5361666545524332303a206c6f772d6c6576656c2063616c6c206661696c65648152508573ffffffffffffffffffffffffffffffffffffffff1661119b9092919063ffffffff16565b805190915015611196578080602001905181019061110a91906113d0565b611196576040517f08c379a000000000000000000000000000000000000000000000000000000000815260206004820152602a60248201527f5361666545524332303a204552433230206f7065726174696f6e20646964206e60448201527f6f742073756363656564000000000000000000000000000000000000000000006064820152608401610270565b505050565b60606111aa84846000856111b4565b90505b9392505050565b606082471015611246576040517f08c379a000000000000000000000000000000000000000000000000000000000815260206004820152602660248201527f416464726573733a20696e73756666696369656e742062616c616e636520666f60448201527f722063616c6c00000000000000000000000000000000000000000000000000006064820152608401610270565b843b6112ae576040517f08c379a000000000000000000000000000000000000000000000000000000000815260206004820152601d60248201527f416464726573733a2063616c6c20746f206e6f6e2d636f6e74726163740000006044820152606401610270565b6000808673ffffffffffffffffffffffffffffffffffffffff1685876040516112d79190611424565b60006040518083038185875af1925050503d8060008114611314576040519150601f19603f3d011682016040523d82523d6000602084013e611319565b606091505b5091509150611329828286611334565b979650505050505050565b606083156113435750816111ad565b8251156113535782518084602001fd5b816040517f08c379a00000000000000000000000000000000000000000000000000000000081526004016102709190611440565b60006020828403121561139957600080fd5b81356111ad816114fc565b600080604083850312156113b757600080fd5b82356113c2816114fc565b946020939093013593505050565b6000602082840312156113e257600080fd5b815180151581146111ad57600080fd5b60006020828403121561140457600080fd5b5035919050565b60006020828403121561141d57600080fd5b5051919050565b600082516114368184602087016114d0565b9190910192915050565b602081526000825180602084015261145f8160408501602087016114d0565b601f017fffffffffffffffffffffffffffffffffffffffffffffffffffffffffffffffe0169190910160400192915050565b600082198211156114cb577f4e487b7100000000000000000000000000000000000000000000000000000000600052601160045260246000fd5b500190565b60005b838110156114eb5781810151838201526020016114d3565b838111156110845750506000910152565b73ffffffffffffffffffffffffffffffffffffffff81168114610df057600080fdfea26469706673582212207c76aad393cbafad731b3df10f89afd35707b70c6d44e8195a8cdc61787ba67464736f6c63430008070033",
  "devdoc": {
    "kind": "dev",
    "methods": {
      "getBaseToken()": {
        "returns": {
          "_0": "The Base Token address"
        }
      },
      "getStrategy()": {
        "returns": {
          "_0": "The Strategy that this Strategy Controller manages"
        }
      },
      "getVault()": {
        "returns": {
          "_0": "The vault address"
        }
      },
      "owner()": {
        "details": "Returns the address of the current owner."
      },
      "renounceOwnership()": {
        "details": "Leaves the contract without owner. It will not be possible to call `onlyOwner` functions anymore. Can only be called by the current owner. NOTE: Renouncing ownership will leave the contract without an owner, thereby removing any functionality that is only available to the owner."
      },
      "totalValue()": {
        "returns": {
          "_0": "The total value of assets within the strategy"
        }
      },
      "transferOwnership(address)": {
        "details": "Transfers ownership of the contract to a new account (`newOwner`). Can only be called by the current owner."
      }
    },
    "version": 1
  },
  "userdoc": {
    "kind": "user",
    "methods": {
      "getBaseToken()": {
        "notice": "Returns the ERC20 asset that this Strategy Controller supports handling funds with."
      },
      "getVault()": {
        "notice": "Returns the vault that is allowed to deposit/withdraw through this Strategy Controller."
      },
      "totalValue()": {
        "notice": "Returns the Base Token balance of this contract and the `totalValue()` returned by the Strategy."
      }
    },
    "version": 1
  },
  "storageLayout": {
    "storage": [
      {
        "astId": 964,
        "contract": "contracts/core/SingleStrategyController.sol:SingleStrategyController",
        "label": "_owner",
        "offset": 0,
        "slot": "0",
        "type": "t_address"
      },
      {
        "astId": 1072,
        "contract": "contracts/core/SingleStrategyController.sol:SingleStrategyController",
        "label": "_status",
        "offset": 0,
        "slot": "1",
        "type": "t_uint256"
      },
      {
        "astId": 5623,
        "contract": "contracts/core/SingleStrategyController.sol:SingleStrategyController",
        "label": "_vault",
        "offset": 0,
        "slot": "2",
        "type": "t_address"
      },
      {
        "astId": 5626,
        "contract": "contracts/core/SingleStrategyController.sol:SingleStrategyController",
        "label": "_strategy",
        "offset": 0,
        "slot": "3",
        "type": "t_contract(IStrategy)6788"
      }
    ],
    "types": {
      "t_address": {
        "encoding": "inplace",
        "label": "address",
        "numberOfBytes": "20"
      },
      "t_contract(IStrategy)6788": {
        "encoding": "inplace",
        "label": "contract IStrategy",
        "numberOfBytes": "20"
      },
      "t_uint256": {
        "encoding": "inplace",
        "label": "uint256",
        "numberOfBytes": "32"
      }
    }
  }
}